{
	"submissions/Zora/CropTnsurance.sol": {
		"CropInsurance": {
			"abi": [
				{
					"inputs": [
						{
							"internalType": "address",
							"name": "_weatherOracle",
							"type": "address"
						},
						{
							"internalType": "address",
							"name": "_ethUsdPriceFeed",
							"type": "address"
						}
					],
					"stateMutability": "payable",
					"type": "constructor"
				},
				{
					"inputs": [
						{
							"internalType": "address",
							"name": "owner",
							"type": "address"
						}
					],
					"name": "OwnableInvalidOwner",
					"type": "error"
				},
				{
					"inputs": [
						{
							"internalType": "address",
							"name": "account",
							"type": "address"
						}
					],
					"name": "OwnableUnauthorizedAccount",
					"type": "error"
				},
				{
					"anonymous": false,
					"inputs": [
						{
							"indexed": true,
							"internalType": "address",
							"name": "farmer",
							"type": "address"
						},
						{
							"indexed": false,
							"internalType": "uint256",
							"name": "amount",
							"type": "uint256"
						}
					],
					"name": "ClaimPaid",
					"type": "event"
				},
				{
					"anonymous": false,
					"inputs": [
						{
							"indexed": true,
							"internalType": "address",
							"name": "farmer",
							"type": "address"
						}
					],
					"name": "ClaimSubmitted",
					"type": "event"
				},
				{
					"anonymous": false,
					"inputs": [
						{
							"indexed": true,
							"internalType": "address",
							"name": "farmer",
							"type": "address"
						},
						{
							"indexed": false,
							"internalType": "uint256",
							"name": "amount",
							"type": "uint256"
						}
					],
					"name": "InsurancePurchased",
					"type": "event"
				},
				{
					"anonymous": false,
					"inputs": [
						{
							"indexed": true,
							"internalType": "address",
							"name": "previousOwner",
							"type": "address"
						},
						{
							"indexed": true,
							"internalType": "address",
							"name": "newOwner",
							"type": "address"
						}
					],
					"name": "OwnershipTransferred",
					"type": "event"
				},
				{
					"anonymous": false,
					"inputs": [
						{
							"indexed": true,
							"internalType": "address",
							"name": "farmer",
							"type": "address"
						},
						{
							"indexed": false,
							"internalType": "uint256",
							"name": "rainfall",
							"type": "uint256"
						}
					],
					"name": "RainfallChecked",
					"type": "event"
				},
				{
					"inputs": [],
					"name": "INSURANCE_PAYOUT_USD",
					"outputs": [
						{
							"internalType": "uint256",
							"name": "",
							"type": "uint256"
						}
					],
					"stateMutability": "view",
					"type": "function"
				},
				{
					"inputs": [],
					"name": "INSURANCE_PREMIUM_USD",
					"outputs": [
						{
							"internalType": "uint256",
							"name": "",
							"type": "uint256"
						}
					],
					"stateMutability": "view",
					"type": "function"
				},
				{
					"inputs": [],
					"name": "RAINFALL_THRESHOLD",
					"outputs": [
						{
							"internalType": "uint256",
							"name": "",
							"type": "uint256"
						}
					],
					"stateMutability": "view",
					"type": "function"
				},
				{
					"inputs": [],
					"name": "checkRainfallAndClaim",
					"outputs": [],
					"stateMutability": "nonpayable",
					"type": "function"
				},
				{
					"inputs": [],
					"name": "getBalance",
					"outputs": [
						{
							"internalType": "uint256",
							"name": "",
							"type": "uint256"
						}
					],
					"stateMutability": "view",
					"type": "function"
				},
				{
					"inputs": [],
					"name": "getCurrentRainfall",
					"outputs": [
						{
							"internalType": "uint256",
							"name": "",
							"type": "uint256"
						}
					],
					"stateMutability": "view",
					"type": "function"
				},
				{
					"inputs": [],
					"name": "getEthPrice",
					"outputs": [
						{
							"internalType": "uint256",
							"name": "",
							"type": "uint256"
						}
					],
					"stateMutability": "view",
					"type": "function"
				},
				{
					"inputs": [
						{
							"internalType": "address",
							"name": "",
							"type": "address"
						}
					],
					"name": "hasInsurance",
					"outputs": [
						{
							"internalType": "bool",
							"name": "",
							"type": "bool"
						}
					],
					"stateMutability": "view",
					"type": "function"
				},
				{
					"inputs": [
						{
							"internalType": "address",
							"name": "",
							"type": "address"
						}
					],
					"name": "lastClaimTimestamp",
					"outputs": [
						{
							"internalType": "uint256",
							"name": "",
							"type": "uint256"
						}
					],
					"stateMutability": "view",
					"type": "function"
				},
				{
					"inputs": [],
					"name": "owner",
					"outputs": [
						{
							"internalType": "address",
							"name": "",
							"type": "address"
						}
					],
					"stateMutability": "view",
					"type": "function"
				},
				{
					"inputs": [],
					"name": "purchaseInsurance",
					"outputs": [],
					"stateMutability": "payable",
					"type": "function"
				},
				{
					"inputs": [],
					"name": "renounceOwnership",
					"outputs": [],
					"stateMutability": "nonpayable",
					"type": "function"
				},
				{
					"inputs": [
						{
							"internalType": "address",
							"name": "newOwner",
							"type": "address"
						}
					],
					"name": "transferOwnership",
					"outputs": [],
					"stateMutability": "nonpayable",
					"type": "function"
				},
				{
					"inputs": [],
					"name": "withdraw",
					"outputs": [],
					"stateMutability": "nonpayable",
					"type": "function"
				},
				{
					"stateMutability": "payable",
					"type": "receive"
				}
			],
			"devdoc": {
				"errors": {
					"OwnableInvalidOwner(address)": [
						{
							"details": "The owner is not a valid owner account. (eg. `address(0)`)"
						}
					],
					"OwnableUnauthorizedAccount(address)": [
						{
							"details": "The caller account is not authorized to perform an operation."
						}
					]
				},
				"kind": "dev",
				"methods": {
					"owner()": {
						"details": "Returns the address of the current owner."
					},
					"renounceOwnership()": {
						"details": "Leaves the contract without owner. It will not be possible to call `onlyOwner` functions. Can only be called by the current owner. NOTE: Renouncing ownership will leave the contract without an owner, thereby disabling any functionality that is only available to the owner."
					},
					"transferOwnership(address)": {
						"details": "Transfers ownership of the contract to a new account (`newOwner`). Can only be called by the current owner."
					}
				},
				"version": 1
			},
			"evm": {
				"assembly": "    /* \"submissions/Zora/CropTnsurance.sol\":197:3425  contract CropInsurance is Ownable {... */\n  mstore(0x40, 0x80)\n    /* \"submissions/Zora/CropTnsurance.sol\":881:1111  constructor(address _weatherOracle, address _ethUsdPriceFeed) payable Ownable(msg.sender) {... */\n  mload(0x40)\n  sub(codesize, bytecodeSize)\n  dup1\n  bytecodeSize\n  dup4\n  codecopy\n  dup2\n  dup2\n  add\n  0x40\n  mstore\n  dup2\n  add\n  swap1\n  tag_1\n  swap2\n  swap1\n  tag_2\n  jump\t// in\ntag_1:\n    /* \"submissions/Zora/CropTnsurance.sol\":959:969  msg.sender */\n  caller\n    /* \"@openzeppelin/contracts/access/Ownable.sol\":1297:1298  0 */\n  0x00\n    /* \"@openzeppelin/contracts/access/Ownable.sol\":1273:1299  initialOwner == address(0) */\n  0xffffffffffffffffffffffffffffffffffffffff\n  and\n    /* \"@openzeppelin/contracts/access/Ownable.sol\":1273:1285  initialOwner */\n  dup2\n    /* \"@openzeppelin/contracts/access/Ownable.sol\":1273:1299  initialOwner == address(0) */\n  0xffffffffffffffffffffffffffffffffffffffff\n  and\n  sub\n    /* \"@openzeppelin/contracts/access/Ownable.sol\":1269:1364  if (initialOwner == address(0)) {... */\n  tag_6\n  jumpi\n    /* \"@openzeppelin/contracts/access/Ownable.sol\":1350:1351  0 */\n  0x00\n    /* \"@openzeppelin/contracts/access/Ownable.sol\":1322:1353  OwnableInvalidOwner(address(0)) */\n  mload(0x40)\n  0x1e4fbdf700000000000000000000000000000000000000000000000000000000\n  dup2\n  mstore\n  0x04\n  add\n  tag_7\n  swap2\n  swap1\n  tag_8\n  jump\t// in\ntag_7:\n  mload(0x40)\n  dup1\n  swap2\n  sub\n  swap1\n  revert\n    /* \"@openzeppelin/contracts/access/Ownable.sol\":1269:1364  if (initialOwner == address(0)) {... */\ntag_6:\n    /* \"@openzeppelin/contracts/access/Ownable.sol\":1373:1405  _transferOwnership(initialOwner) */\n  tag_9\n    /* \"@openzeppelin/contracts/access/Ownable.sol\":1392:1404  initialOwner */\n  dup2\n    /* \"@openzeppelin/contracts/access/Ownable.sol\":1373:1391  _transferOwnership */\n  shl(0x20, tag_10)\n    /* \"@openzeppelin/contracts/access/Ownable.sol\":1373:1405  _transferOwnership(initialOwner) */\n  0x20\n  shr\n  jump\t// in\ntag_9:\n    /* \"@openzeppelin/contracts/access/Ownable.sol\":1225:1412  constructor(address initialOwner) {... */\n  pop\n    /* \"submissions/Zora/CropTnsurance.sol\":1020:1034  _weatherOracle */\n  dup2\n    /* \"submissions/Zora/CropTnsurance.sol\":982:995  weatherOracle */\n  0x01\n  0x00\n    /* \"submissions/Zora/CropTnsurance.sol\":982:1035  weatherOracle = AggregatorV3Interface(_weatherOracle) */\n  0x0100\n  exp\n  dup2\n  sload\n  dup2\n  0xffffffffffffffffffffffffffffffffffffffff\n  mul\n  not\n  and\n  swap1\n  dup4\n  0xffffffffffffffffffffffffffffffffffffffff\n  and\n  mul\n  or\n  swap1\n  sstore\n  pop\n    /* \"submissions/Zora/CropTnsurance.sol\":1086:1102  _ethUsdPriceFeed */\n  dup1\n    /* \"submissions/Zora/CropTnsurance.sol\":1046:1061  ethUsdPriceFeed */\n  0x02\n  0x00\n    /* \"submissions/Zora/CropTnsurance.sol\":1046:1103  ethUsdPriceFeed = AggregatorV3Interface(_ethUsdPriceFeed) */\n  0x0100\n  exp\n  dup2\n  sload\n  dup2\n  0xffffffffffffffffffffffffffffffffffffffff\n  mul\n  not\n  and\n  swap1\n  dup4\n  0xffffffffffffffffffffffffffffffffffffffff\n  and\n  mul\n  or\n  swap1\n  sstore\n  pop\n    /* \"submissions/Zora/CropTnsurance.sol\":881:1111  constructor(address _weatherOracle, address _ethUsdPriceFeed) payable Ownable(msg.sender) {... */\n  pop\n  pop\n    /* \"submissions/Zora/CropTnsurance.sol\":197:3425  contract CropInsurance is Ownable {... */\n  jump(tag_12)\n    /* \"@openzeppelin/contracts/access/Ownable.sol\":2912:3099  function _transferOwnership(address newOwner) internal virtual {... */\ntag_10:\n    /* \"@openzeppelin/contracts/access/Ownable.sol\":2985:3001  address oldOwner */\n  0x00\n    /* \"@openzeppelin/contracts/access/Ownable.sol\":3004:3010  _owner */\n  0x00\n  0x00\n  swap1\n  sload\n  swap1\n  0x0100\n  exp\n  swap1\n  div\n  0xffffffffffffffffffffffffffffffffffffffff\n  and\n    /* \"@openzeppelin/contracts/access/Ownable.sol\":2985:3010  address oldOwner = _owner */\n  swap1\n  pop\n    /* \"@openzeppelin/contracts/access/Ownable.sol\":3029:3037  newOwner */\n  dup2\n    /* \"@openzeppelin/contracts/access/Ownable.sol\":3020:3026  _owner */\n  0x00\n  0x00\n    /* \"@openzeppelin/contracts/access/Ownable.sol\":3020:3037  _owner = newOwner */\n  0x0100\n  exp\n  dup2\n  sload\n  dup2\n  0xffffffffffffffffffffffffffffffffffffffff\n  mul\n  not\n  and\n  swap1\n  dup4\n  0xffffffffffffffffffffffffffffffffffffffff\n  and\n  mul\n  or\n  swap1\n  sstore\n  pop\n    /* \"@openzeppelin/contracts/access/Ownable.sol\":3083:3091  newOwner */\n  dup2\n    /* \"@openzeppelin/contracts/access/Ownable.sol\":3052:3092  OwnershipTransferred(oldOwner, newOwner) */\n  0xffffffffffffffffffffffffffffffffffffffff\n  and\n    /* \"@openzeppelin/contracts/access/Ownable.sol\":3073:3081  oldOwner */\n  dup2\n    /* \"@openzeppelin/contracts/access/Ownable.sol\":3052:3092  OwnershipTransferred(oldOwner, newOwner) */\n  0xffffffffffffffffffffffffffffffffffffffff\n  and\n  0x8be0079c531659141344cd1fd0a4f28419497f9722a3daafe3b4186f6b6457e0\n  mload(0x40)\n  mload(0x40)\n  dup1\n  swap2\n  sub\n  swap1\n  log3\n    /* \"@openzeppelin/contracts/access/Ownable.sol\":2975:3099  {... */\n  pop\n    /* \"@openzeppelin/contracts/access/Ownable.sol\":2912:3099  function _transferOwnership(address newOwner) internal virtual {... */\n  pop\n  jump\t// out\n    /* \"#utility.yul\":88:205   */\ntag_15:\n    /* \"#utility.yul\":197:198   */\n  0x00\n    /* \"#utility.yul\":194:195   */\n  0x00\n    /* \"#utility.yul\":187:199   */\n  revert\n    /* \"#utility.yul\":334:460   */\ntag_17:\n    /* \"#utility.yul\":371:378   */\n  0x00\n    /* \"#utility.yul\":411:453   */\n  0xffffffffffffffffffffffffffffffffffffffff\n    /* \"#utility.yul\":404:409   */\n  dup3\n    /* \"#utility.yul\":400:454   */\n  and\n    /* \"#utility.yul\":389:454   */\n  swap1\n  pop\n    /* \"#utility.yul\":334:460   */\n  swap2\n  swap1\n  pop\n  jump\t// out\n    /* \"#utility.yul\":466:562   */\ntag_18:\n    /* \"#utility.yul\":503:510   */\n  0x00\n    /* \"#utility.yul\":532:556   */\n  tag_28\n    /* \"#utility.yul\":550:555   */\n  dup3\n    /* \"#utility.yul\":532:556   */\n  tag_17\n  jump\t// in\ntag_28:\n    /* \"#utility.yul\":521:556   */\n  swap1\n  pop\n    /* \"#utility.yul\":466:562   */\n  swap2\n  swap1\n  pop\n  jump\t// out\n    /* \"#utility.yul\":568:690   */\ntag_19:\n    /* \"#utility.yul\":641:665   */\n  tag_30\n    /* \"#utility.yul\":659:664   */\n  dup2\n    /* \"#utility.yul\":641:665   */\n  tag_18\n  jump\t// in\ntag_30:\n    /* \"#utility.yul\":634:639   */\n  dup2\n    /* \"#utility.yul\":631:666   */\n  eq\n    /* \"#utility.yul\":621:684   */\n  tag_31\n  jumpi\n    /* \"#utility.yul\":680:681   */\n  0x00\n    /* \"#utility.yul\":677:678   */\n  0x00\n    /* \"#utility.yul\":670:682   */\n  revert\n    /* \"#utility.yul\":621:684   */\ntag_31:\n    /* \"#utility.yul\":568:690   */\n  pop\n  jump\t// out\n    /* \"#utility.yul\":696:839   */\ntag_20:\n    /* \"#utility.yul\":753:758   */\n  0x00\n    /* \"#utility.yul\":784:790   */\n  dup2\n    /* \"#utility.yul\":778:791   */\n  mload\n    /* \"#utility.yul\":769:791   */\n  swap1\n  pop\n    /* \"#utility.yul\":800:833   */\n  tag_33\n    /* \"#utility.yul\":827:832   */\n  dup2\n    /* \"#utility.yul\":800:833   */\n  tag_19\n  jump\t// in\ntag_33:\n    /* \"#utility.yul\":696:839   */\n  swap3\n  swap2\n  pop\n  pop\n  jump\t// out\n    /* \"#utility.yul\":845:1352   */\ntag_2:\n    /* \"#utility.yul\":924:930   */\n  0x00\n    /* \"#utility.yul\":932:938   */\n  0x00\n    /* \"#utility.yul\":981:983   */\n  0x40\n    /* \"#utility.yul\":969:978   */\n  dup4\n    /* \"#utility.yul\":960:967   */\n  dup6\n    /* \"#utility.yul\":956:979   */\n  sub\n    /* \"#utility.yul\":952:984   */\n  slt\n    /* \"#utility.yul\":949:1068   */\n  iszero\n  tag_35\n  jumpi\n    /* \"#utility.yul\":987:1066   */\n  tag_36\n  tag_15\n  jump\t// in\ntag_36:\n    /* \"#utility.yul\":949:1068   */\ntag_35:\n    /* \"#utility.yul\":1107:1108   */\n  0x00\n    /* \"#utility.yul\":1132:1196   */\n  tag_37\n    /* \"#utility.yul\":1188:1195   */\n  dup6\n    /* \"#utility.yul\":1179:1185   */\n  dup3\n    /* \"#utility.yul\":1168:1177   */\n  dup7\n    /* \"#utility.yul\":1164:1186   */\n  add\n    /* \"#utility.yul\":1132:1196   */\n  tag_20\n  jump\t// in\ntag_37:\n    /* \"#utility.yul\":1122:1196   */\n  swap3\n  pop\n    /* \"#utility.yul\":1078:1206   */\n  pop\n    /* \"#utility.yul\":1245:1247   */\n  0x20\n    /* \"#utility.yul\":1271:1335   */\n  tag_38\n    /* \"#utility.yul\":1327:1334   */\n  dup6\n    /* \"#utility.yul\":1318:1324   */\n  dup3\n    /* \"#utility.yul\":1307:1316   */\n  dup7\n    /* \"#utility.yul\":1303:1325   */\n  add\n    /* \"#utility.yul\":1271:1335   */\n  tag_20\n  jump\t// in\ntag_38:\n    /* \"#utility.yul\":1261:1335   */\n  swap2\n  pop\n    /* \"#utility.yul\":1216:1345   */\n  pop\n    /* \"#utility.yul\":845:1352   */\n  swap3\n  pop\n  swap3\n  swap1\n  pop\n  jump\t// out\n    /* \"#utility.yul\":1358:1476   */\ntag_21:\n    /* \"#utility.yul\":1445:1469   */\n  tag_40\n    /* \"#utility.yul\":1463:1468   */\n  dup2\n    /* \"#utility.yul\":1445:1469   */\n  tag_18\n  jump\t// in\ntag_40:\n    /* \"#utility.yul\":1440:1443   */\n  dup3\n    /* \"#utility.yul\":1433:1470   */\n  mstore\n    /* \"#utility.yul\":1358:1476   */\n  pop\n  pop\n  jump\t// out\n    /* \"#utility.yul\":1482:1704   */\ntag_8:\n    /* \"#utility.yul\":1575:1579   */\n  0x00\n    /* \"#utility.yul\":1613:1615   */\n  0x20\n    /* \"#utility.yul\":1602:1611   */\n  dup3\n    /* \"#utility.yul\":1598:1616   */\n  add\n    /* \"#utility.yul\":1590:1616   */\n  swap1\n  pop\n    /* \"#utility.yul\":1626:1697   */\n  tag_42\n    /* \"#utility.yul\":1694:1695   */\n  0x00\n    /* \"#utility.yul\":1683:1692   */\n  dup4\n    /* \"#utility.yul\":1679:1696   */\n  add\n    /* \"#utility.yul\":1670:1676   */\n  dup5\n    /* \"#utility.yul\":1626:1697   */\n  tag_21\n  jump\t// in\ntag_42:\n    /* \"#utility.yul\":1482:1704   */\n  swap3\n  swap2\n  pop\n  pop\n  jump\t// out\n    /* \"submissions/Zora/CropTnsurance.sol\":197:3425  contract CropInsurance is Ownable {... */\ntag_12:\n  dataSize(sub_0)\n  dup1\n  dataOffset(sub_0)\n  0x00\n  codecopy\n  0x00\n  return\nstop\n\nsub_0: assembly {\n        /* \"submissions/Zora/CropTnsurance.sol\":197:3425  contract CropInsurance is Ownable {... */\n      mstore(0x40, 0x80)\n      jumpi(tag_1, lt(calldatasize, 0x04))\n      shr(0xe0, calldataload(0x00))\n      dup1\n      0x7c77e15c\n      gt\n      tag_17\n      jumpi\n      dup1\n      0xbd9d518b\n      gt\n      tag_18\n      jumpi\n      dup1\n      0xbd9d518b\n      eq\n      tag_13\n      jumpi\n      dup1\n      0xc5f60e82\n      eq\n      tag_14\n      jumpi\n      dup1\n      0xedb8fb44\n      eq\n      tag_15\n      jumpi\n      dup1\n      0xf2fde38b\n      eq\n      tag_16\n      jumpi\n      jump(tag_2)\n    tag_18:\n      dup1\n      0x7c77e15c\n      eq\n      tag_10\n      jumpi\n      dup1\n      0x8cd42316\n      eq\n      tag_11\n      jumpi\n      dup1\n      0x8da5cb5b\n      eq\n      tag_12\n      jumpi\n      jump(tag_2)\n    tag_17:\n      dup1\n      0x3ccfd60b\n      gt\n      tag_19\n      jumpi\n      dup1\n      0x3ccfd60b\n      eq\n      tag_6\n      jumpi\n      dup1\n      0x60550d7a\n      eq\n      tag_7\n      jumpi\n      dup1\n      0x67c9b017\n      eq\n      tag_8\n      jumpi\n      dup1\n      0x715018a6\n      eq\n      tag_9\n      jumpi\n      jump(tag_2)\n    tag_19:\n      dup1\n      0x0c15c365\n      eq\n      tag_3\n      jumpi\n      dup1\n      0x12065fe0\n      eq\n      tag_4\n      jumpi\n      dup1\n      0x16731b24\n      eq\n      tag_5\n      jumpi\n      jump(tag_2)\n    tag_1:\n      jumpi(tag_2, calldatasize)\n      stop\n    tag_2:\n      revert(0x00, 0x00)\n        /* \"submissions/Zora/CropTnsurance.sol\":2927:3164  function getCurrentRainfall() public view returns (uint256) {... */\n    tag_3:\n      callvalue\n      dup1\n      iszero\n      tag_22\n      jumpi\n      revert(0x00, 0x00)\n    tag_22:\n      pop\n      tag_23\n      tag_24\n      jump\t// in\n    tag_23:\n      mload(0x40)\n      tag_25\n      swap2\n      swap1\n      tag_26\n      jump\t// in\n    tag_25:\n      mload(0x40)\n      dup1\n      swap2\n      sub\n      swap1\n      return\n        /* \"submissions/Zora/CropTnsurance.sol\":3323:3422  function getBalance() public view returns (uint256) {... */\n    tag_4:\n      callvalue\n      dup1\n      iszero\n      tag_27\n      jumpi\n      revert(0x00, 0x00)\n    tag_27:\n      pop\n      tag_28\n      tag_29\n      jump\t// in\n    tag_28:\n      mload(0x40)\n      tag_30\n      swap2\n      swap1\n      tag_26\n      jump\t// in\n    tag_30:\n      mload(0x40)\n      dup1\n      swap2\n      sub\n      swap1\n      return\n        /* \"submissions/Zora/CropTnsurance.sol\":397:447  uint256 public constant INSURANCE_PREMIUM_USD = 10 */\n    tag_5:\n      callvalue\n      dup1\n      iszero\n      tag_31\n      jumpi\n      revert(0x00, 0x00)\n    tag_31:\n      pop\n      tag_32\n      tag_33\n      jump\t// in\n    tag_32:\n      mload(0x40)\n      tag_34\n      swap2\n      swap1\n      tag_26\n      jump\t// in\n    tag_34:\n      mload(0x40)\n      dup1\n      swap2\n      sub\n      swap1\n      return\n        /* \"submissions/Zora/CropTnsurance.sol\":3172:3278  function withdraw() external onlyOwner {... */\n    tag_6:\n      callvalue\n      dup1\n      iszero\n      tag_35\n      jumpi\n      revert(0x00, 0x00)\n    tag_35:\n      pop\n      tag_36\n      tag_37\n      jump\t// in\n    tag_36:\n      stop\n        /* \"submissions/Zora/CropTnsurance.sol\":1542:2685  function checkRainfallAndClaim() external {... */\n    tag_7:\n      callvalue\n      dup1\n      iszero\n      tag_38\n      jumpi\n      revert(0x00, 0x00)\n    tag_38:\n      pop\n      tag_39\n      tag_40\n      jump\t// in\n    tag_39:\n      stop\n        /* \"submissions/Zora/CropTnsurance.sol\":2693:2919  function getEthPrice() public view returns (uint256) {... */\n    tag_8:\n      callvalue\n      dup1\n      iszero\n      tag_41\n      jumpi\n      revert(0x00, 0x00)\n    tag_41:\n      pop\n      tag_42\n      tag_43\n      jump\t// in\n    tag_42:\n      mload(0x40)\n      tag_44\n      swap2\n      swap1\n      tag_26\n      jump\t// in\n    tag_44:\n      mload(0x40)\n      dup1\n      swap2\n      sub\n      swap1\n      return\n        /* \"@openzeppelin/contracts/access/Ownable.sol\":2293:2394  function renounceOwnership() public virtual onlyOwner {... */\n    tag_9:\n      callvalue\n      dup1\n      iszero\n      tag_45\n      jumpi\n      revert(0x00, 0x00)\n    tag_45:\n      pop\n      tag_46\n      tag_47\n      jump\t// in\n    tag_46:\n      stop\n        /* \"submissions/Zora/CropTnsurance.sol\":454:503  uint256 public constant INSURANCE_PAYOUT_USD = 50 */\n    tag_10:\n      callvalue\n      dup1\n      iszero\n      tag_48\n      jumpi\n      revert(0x00, 0x00)\n    tag_48:\n      pop\n      tag_49\n      tag_50\n      jump\t// in\n    tag_49:\n      mload(0x40)\n      tag_51\n      swap2\n      swap1\n      tag_26\n      jump\t// in\n    tag_51:\n      mload(0x40)\n      dup1\n      swap2\n      sub\n      swap1\n      return\n        /* \"submissions/Zora/CropTnsurance.sol\":512:556  mapping(address => bool) public hasInsurance */\n    tag_11:\n      callvalue\n      dup1\n      iszero\n      tag_52\n      jumpi\n      revert(0x00, 0x00)\n    tag_52:\n      pop\n      tag_53\n      0x04\n      dup1\n      calldatasize\n      sub\n      dup2\n      add\n      swap1\n      tag_54\n      swap2\n      swap1\n      tag_55\n      jump\t// in\n    tag_54:\n      tag_56\n      jump\t// in\n    tag_53:\n      mload(0x40)\n      tag_57\n      swap2\n      swap1\n      tag_58\n      jump\t// in\n    tag_57:\n      mload(0x40)\n      dup1\n      swap2\n      sub\n      swap1\n      return\n        /* \"@openzeppelin/contracts/access/Ownable.sol\":1638:1723  function owner() public view virtual returns (address) {... */\n    tag_12:\n      callvalue\n      dup1\n      iszero\n      tag_59\n      jumpi\n      revert(0x00, 0x00)\n    tag_59:\n      pop\n      tag_60\n      tag_61\n      jump\t// in\n    tag_60:\n      mload(0x40)\n      tag_62\n      swap2\n      swap1\n      tag_63\n      jump\t// in\n    tag_62:\n      mload(0x40)\n      dup1\n      swap2\n      sub\n      swap1\n      return\n        /* \"submissions/Zora/CropTnsurance.sol\":563:616  mapping(address => uint256) public lastClaimTimestamp */\n    tag_13:\n      callvalue\n      dup1\n      iszero\n      tag_64\n      jumpi\n      revert(0x00, 0x00)\n    tag_64:\n      pop\n      tag_65\n      0x04\n      dup1\n      calldatasize\n      sub\n      dup2\n      add\n      swap1\n      tag_66\n      swap2\n      swap1\n      tag_55\n      jump\t// in\n    tag_66:\n      tag_67\n      jump\t// in\n    tag_65:\n      mload(0x40)\n      tag_68\n      swap2\n      swap1\n      tag_26\n      jump\t// in\n    tag_68:\n      mload(0x40)\n      dup1\n      swap2\n      sub\n      swap1\n      return\n        /* \"submissions/Zora/CropTnsurance.sol\":342:390  uint256 public constant RAINFALL_THRESHOLD = 500 */\n    tag_14:\n      callvalue\n      dup1\n      iszero\n      tag_69\n      jumpi\n      revert(0x00, 0x00)\n    tag_69:\n      pop\n      tag_70\n      tag_71\n      jump\t// in\n    tag_70:\n      mload(0x40)\n      tag_72\n      swap2\n      swap1\n      tag_26\n      jump\t// in\n    tag_72:\n      mload(0x40)\n      dup1\n      swap2\n      sub\n      swap1\n      return\n        /* \"submissions/Zora/CropTnsurance.sol\":1119:1534  function purchaseInsurance() external payable {... */\n    tag_15:\n      tag_73\n      tag_74\n      jump\t// in\n    tag_73:\n      stop\n        /* \"@openzeppelin/contracts/access/Ownable.sol\":2543:2758  function transferOwnership(address newOwner) public virtual onlyOwner {... */\n    tag_16:\n      callvalue\n      dup1\n      iszero\n      tag_75\n      jumpi\n      revert(0x00, 0x00)\n    tag_75:\n      pop\n      tag_76\n      0x04\n      dup1\n      calldatasize\n      sub\n      dup2\n      add\n      swap1\n      tag_77\n      swap2\n      swap1\n      tag_55\n      jump\t// in\n    tag_77:\n      tag_78\n      jump\t// in\n    tag_76:\n      stop\n        /* \"submissions/Zora/CropTnsurance.sol\":2927:3164  function getCurrentRainfall() public view returns (uint256) {... */\n    tag_24:\n        /* \"submissions/Zora/CropTnsurance.sol\":2978:2985  uint256 */\n      0x00\n        /* \"submissions/Zora/CropTnsurance.sol\":3028:3043  int256 rainfall */\n      0x00\n        /* \"submissions/Zora/CropTnsurance.sol\":3088:3101  weatherOracle */\n      0x01\n      0x00\n      swap1\n      sload\n      swap1\n      0x0100\n      exp\n      swap1\n      div\n      0xffffffffffffffffffffffffffffffffffffffff\n      and\n        /* \"submissions/Zora/CropTnsurance.sol\":3088:3117  weatherOracle.latestRoundData */\n      0xffffffffffffffffffffffffffffffffffffffff\n      and\n      0xfeaf968c\n        /* \"submissions/Zora/CropTnsurance.sol\":3088:3119  weatherOracle.latestRoundData() */\n      mload(0x40)\n      dup2\n      0xffffffff\n      and\n      0xe0\n      shl\n      dup2\n      mstore\n      0x04\n      add\n      0xa0\n      mload(0x40)\n      dup1\n      dup4\n      sub\n      dup2\n      dup7\n      gas\n      staticcall\n      iszero\n      dup1\n      iszero\n      tag_81\n      jumpi\n      returndatacopy(0x00, 0x00, returndatasize)\n      revert(0x00, returndatasize)\n    tag_81:\n      pop\n      pop\n      pop\n      pop\n      mload(0x40)\n      returndatasize\n      not(0x1f)\n      0x1f\n      dup3\n      add\n      and\n      dup3\n      add\n      dup1\n      0x40\n      mstore\n      pop\n      dup2\n      add\n      swap1\n      tag_82\n      swap2\n      swap1\n      tag_83\n      jump\t// in\n    tag_82:\n        /* \"submissions/Zora/CropTnsurance.sol\":2998:3119  (... */\n      pop\n      pop\n      pop\n      swap2\n      pop\n      pop\n        /* \"submissions/Zora/CropTnsurance.sol\":3147:3155  rainfall */\n      dup1\n        /* \"submissions/Zora/CropTnsurance.sol\":3132:3156  return uint256(rainfall) */\n      swap2\n      pop\n      pop\n        /* \"submissions/Zora/CropTnsurance.sol\":2927:3164  function getCurrentRainfall() public view returns (uint256) {... */\n      swap1\n      jump\t// out\n        /* \"submissions/Zora/CropTnsurance.sol\":3323:3422  function getBalance() public view returns (uint256) {... */\n    tag_29:\n        /* \"submissions/Zora/CropTnsurance.sol\":3366:3373  uint256 */\n      0x00\n        /* \"submissions/Zora/CropTnsurance.sol\":3393:3414  address(this).balance */\n      selfbalance\n        /* \"submissions/Zora/CropTnsurance.sol\":3386:3414  return address(this).balance */\n      swap1\n      pop\n        /* \"submissions/Zora/CropTnsurance.sol\":3323:3422  function getBalance() public view returns (uint256) {... */\n      swap1\n      jump\t// out\n        /* \"submissions/Zora/CropTnsurance.sol\":397:447  uint256 public constant INSURANCE_PREMIUM_USD = 10 */\n    tag_33:\n        /* \"submissions/Zora/CropTnsurance.sol\":445:447  10 */\n      0x0a\n        /* \"submissions/Zora/CropTnsurance.sol\":397:447  uint256 public constant INSURANCE_PREMIUM_USD = 10 */\n      dup2\n      jump\t// out\n        /* \"submissions/Zora/CropTnsurance.sol\":3172:3278  function withdraw() external onlyOwner {... */\n    tag_37:\n        /* \"@openzeppelin/contracts/access/Ownable.sol\":1531:1544  _checkOwner() */\n      tag_86\n        /* \"@openzeppelin/contracts/access/Ownable.sol\":1531:1542  _checkOwner */\n      tag_87\n        /* \"@openzeppelin/contracts/access/Ownable.sol\":1531:1544  _checkOwner() */\n      jump\t// in\n    tag_86:\n        /* \"submissions/Zora/CropTnsurance.sol\":3230:3237  owner() */\n      tag_89\n        /* \"submissions/Zora/CropTnsurance.sol\":3230:3235  owner */\n      tag_61\n        /* \"submissions/Zora/CropTnsurance.sol\":3230:3237  owner() */\n      jump\t// in\n    tag_89:\n        /* \"submissions/Zora/CropTnsurance.sol\":3222:3247  payable(owner()).transfer */\n      0xffffffffffffffffffffffffffffffffffffffff\n      and\n        /* \"submissions/Zora/CropTnsurance.sol\":3222:3270  payable(owner()).transfer(address(this).balance) */\n      0x08fc\n        /* \"submissions/Zora/CropTnsurance.sol\":3248:3269  address(this).balance */\n      selfbalance\n        /* \"submissions/Zora/CropTnsurance.sol\":3222:3270  payable(owner()).transfer(address(this).balance) */\n      swap1\n      dup2\n      iszero\n      mul\n      swap1\n      mload(0x40)\n      0x00\n      mload(0x40)\n      dup1\n      dup4\n      sub\n      dup2\n      dup6\n      dup9\n      dup9\n      call\n      swap4\n      pop\n      pop\n      pop\n      pop\n      iszero\n      dup1\n      iszero\n      tag_91\n      jumpi\n      returndatacopy(0x00, 0x00, returndatasize)\n      revert(0x00, returndatasize)\n    tag_91:\n      pop\n        /* \"submissions/Zora/CropTnsurance.sol\":3172:3278  function withdraw() external onlyOwner {... */\n      jump\t// out\n        /* \"submissions/Zora/CropTnsurance.sol\":1542:2685  function checkRainfallAndClaim() external {... */\n    tag_40:\n        /* \"submissions/Zora/CropTnsurance.sol\":1603:1615  hasInsurance */\n      0x03\n        /* \"submissions/Zora/CropTnsurance.sol\":1603:1627  hasInsurance[msg.sender] */\n      0x00\n        /* \"submissions/Zora/CropTnsurance.sol\":1616:1626  msg.sender */\n      caller\n        /* \"submissions/Zora/CropTnsurance.sol\":1603:1627  hasInsurance[msg.sender] */\n      0xffffffffffffffffffffffffffffffffffffffff\n      and\n      0xffffffffffffffffffffffffffffffffffffffff\n      and\n      dup2\n      mstore\n      0x20\n      add\n      swap1\n      dup2\n      mstore\n      0x20\n      add\n      0x00\n      keccak256\n      0x00\n      swap1\n      sload\n      swap1\n      0x0100\n      exp\n      swap1\n      div\n      0xff\n      and\n        /* \"submissions/Zora/CropTnsurance.sol\":1595:1651  require(hasInsurance[msg.sender], \"No active insurance\") */\n      tag_93\n      jumpi\n      mload(0x40)\n      0x08c379a000000000000000000000000000000000000000000000000000000000\n      dup2\n      mstore\n      0x04\n      add\n      tag_94\n      swap1\n      tag_95\n      jump\t// in\n    tag_94:\n      mload(0x40)\n      dup1\n      swap2\n      sub\n      swap1\n      revert\n    tag_93:\n        /* \"submissions/Zora/CropTnsurance.sol\":1722:1728  1 days */\n      0x015180\n        /* \"submissions/Zora/CropTnsurance.sol\":1689:1707  lastClaimTimestamp */\n      0x04\n        /* \"submissions/Zora/CropTnsurance.sol\":1689:1719  lastClaimTimestamp[msg.sender] */\n      0x00\n        /* \"submissions/Zora/CropTnsurance.sol\":1708:1718  msg.sender */\n      caller\n        /* \"submissions/Zora/CropTnsurance.sol\":1689:1719  lastClaimTimestamp[msg.sender] */\n      0xffffffffffffffffffffffffffffffffffffffff\n      and\n      0xffffffffffffffffffffffffffffffffffffffff\n      and\n      dup2\n      mstore\n      0x20\n      add\n      swap1\n      dup2\n      mstore\n      0x20\n      add\n      0x00\n      keccak256\n      sload\n        /* \"submissions/Zora/CropTnsurance.sol\":1689:1728  lastClaimTimestamp[msg.sender] + 1 days */\n      tag_96\n      swap2\n      swap1\n      tag_97\n      jump\t// in\n    tag_96:\n        /* \"submissions/Zora/CropTnsurance.sol\":1670:1685  block.timestamp */\n      timestamp\n        /* \"submissions/Zora/CropTnsurance.sol\":1670:1728  block.timestamp >= lastClaimTimestamp[msg.sender] + 1 days */\n      lt\n      iszero\n        /* \"submissions/Zora/CropTnsurance.sol\":1662:1761  require(block.timestamp >= lastClaimTimestamp[msg.sender] + 1 days, \"Must wait 24h between claims\") */\n      tag_98\n      jumpi\n      mload(0x40)\n      0x08c379a000000000000000000000000000000000000000000000000000000000\n      dup2\n      mstore\n      0x04\n      add\n      tag_99\n      swap1\n      tag_100\n      jump\t// in\n    tag_99:\n      mload(0x40)\n      dup1\n      swap2\n      sub\n      swap1\n      revert\n    tag_98:\n        /* \"submissions/Zora/CropTnsurance.sol\":1789:1803  uint80 roundId */\n      0x00\n        /* \"submissions/Zora/CropTnsurance.sol\":1818:1833  int256 rainfall */\n      0x00\n        /* \"submissions/Zora/CropTnsurance.sol\":1863:1880  uint256 updatedAt */\n      0x00\n        /* \"submissions/Zora/CropTnsurance.sol\":1895:1917  uint80 answeredInRound */\n      0x00\n        /* \"submissions/Zora/CropTnsurance.sol\":1931:1944  weatherOracle */\n      0x01\n      0x00\n      swap1\n      sload\n      swap1\n      0x0100\n      exp\n      swap1\n      div\n      0xffffffffffffffffffffffffffffffffffffffff\n      and\n        /* \"submissions/Zora/CropTnsurance.sol\":1931:1960  weatherOracle.latestRoundData */\n      0xffffffffffffffffffffffffffffffffffffffff\n      and\n      0xfeaf968c\n        /* \"submissions/Zora/CropTnsurance.sol\":1931:1962  weatherOracle.latestRoundData() */\n      mload(0x40)\n      dup2\n      0xffffffff\n      and\n      0xe0\n      shl\n      dup2\n      mstore\n      0x04\n      add\n      0xa0\n      mload(0x40)\n      dup1\n      dup4\n      sub\n      dup2\n      dup7\n      gas\n      staticcall\n      iszero\n      dup1\n      iszero\n      tag_102\n      jumpi\n      returndatacopy(0x00, 0x00, returndatasize)\n      revert(0x00, returndatasize)\n    tag_102:\n      pop\n      pop\n      pop\n      pop\n      mload(0x40)\n      returndatasize\n      not(0x1f)\n      0x1f\n      dup3\n      add\n      and\n      dup3\n      add\n      dup1\n      0x40\n      mstore\n      pop\n      dup2\n      add\n      swap1\n      tag_103\n      swap2\n      swap1\n      tag_83\n      jump\t// in\n    tag_103:\n        /* \"submissions/Zora/CropTnsurance.sol\":1774:1962  (... */\n      swap5\n      pop\n      swap5\n      pop\n      pop\n      swap4\n      pop\n      swap4\n      pop\n        /* \"submissions/Zora/CropTnsurance.sol\":1995:1996  0 */\n      0x00\n        /* \"submissions/Zora/CropTnsurance.sol\":1983:1992  updatedAt */\n      dup3\n        /* \"submissions/Zora/CropTnsurance.sol\":1983:1996  updatedAt > 0 */\n      gt\n        /* \"submissions/Zora/CropTnsurance.sol\":1975:2019  require(updatedAt > 0, \"Round not complete\") */\n      tag_104\n      jumpi\n      mload(0x40)\n      0x08c379a000000000000000000000000000000000000000000000000000000000\n      dup2\n      mstore\n      0x04\n      add\n      tag_105\n      swap1\n      tag_106\n      jump\t// in\n    tag_105:\n      mload(0x40)\n      dup1\n      swap2\n      sub\n      swap1\n      revert\n    tag_104:\n        /* \"submissions/Zora/CropTnsurance.sol\":2057:2064  roundId */\n      dup4\n        /* \"submissions/Zora/CropTnsurance.sol\":2038:2064  answeredInRound >= roundId */\n      0xffffffffffffffffffff\n      and\n        /* \"submissions/Zora/CropTnsurance.sol\":2038:2053  answeredInRound */\n      dup2\n        /* \"submissions/Zora/CropTnsurance.sol\":2038:2064  answeredInRound >= roundId */\n      0xffffffffffffffffffff\n      and\n      lt\n      iszero\n        /* \"submissions/Zora/CropTnsurance.sol\":2030:2079  require(answeredInRound >= roundId, \"Stale data\") */\n      tag_107\n      jumpi\n      mload(0x40)\n      0x08c379a000000000000000000000000000000000000000000000000000000000\n      dup2\n      mstore\n      0x04\n      add\n      tag_108\n      swap1\n      tag_109\n      jump\t// in\n    tag_108:\n      mload(0x40)\n      dup1\n      swap2\n      sub\n      swap1\n      revert\n    tag_107:\n        /* \"submissions/Zora/CropTnsurance.sol\":2092:2115  uint256 currentRainfall */\n      0x00\n        /* \"submissions/Zora/CropTnsurance.sol\":2126:2134  rainfall */\n      dup4\n        /* \"submissions/Zora/CropTnsurance.sol\":2092:2135  uint256 currentRainfall = uint256(rainfall) */\n      swap1\n      pop\n        /* \"submissions/Zora/CropTnsurance.sol\":2167:2177  msg.sender */\n      caller\n        /* \"submissions/Zora/CropTnsurance.sol\":2151:2195  RainfallChecked(msg.sender, currentRainfall) */\n      0xffffffffffffffffffffffffffffffffffffffff\n      and\n      0xb7ca7d3cb9a65735003fab623dde34f69b35faa87df2abb0027e416636da03f0\n        /* \"submissions/Zora/CropTnsurance.sol\":2179:2194  currentRainfall */\n      dup3\n        /* \"submissions/Zora/CropTnsurance.sol\":2151:2195  RainfallChecked(msg.sender, currentRainfall) */\n      mload(0x40)\n      tag_110\n      swap2\n      swap1\n      tag_26\n      jump\t// in\n    tag_110:\n      mload(0x40)\n      dup1\n      swap2\n      sub\n      swap1\n      log2\n        /* \"submissions/Zora/CropTnsurance.sol\":387:390  500 */\n      0x01f4\n        /* \"submissions/Zora/CropTnsurance.sol\":2212:2227  currentRainfall */\n      dup2\n        /* \"submissions/Zora/CropTnsurance.sol\":2212:2248  currentRainfall < RAINFALL_THRESHOLD */\n      lt\n        /* \"submissions/Zora/CropTnsurance.sol\":2208:2678  if (currentRainfall < RAINFALL_THRESHOLD) {... */\n      iszero\n      tag_111\n      jumpi\n        /* \"submissions/Zora/CropTnsurance.sol\":2298:2313  block.timestamp */\n      timestamp\n        /* \"submissions/Zora/CropTnsurance.sol\":2265:2283  lastClaimTimestamp */\n      0x04\n        /* \"submissions/Zora/CropTnsurance.sol\":2265:2295  lastClaimTimestamp[msg.sender] */\n      0x00\n        /* \"submissions/Zora/CropTnsurance.sol\":2284:2294  msg.sender */\n      caller\n        /* \"submissions/Zora/CropTnsurance.sol\":2265:2295  lastClaimTimestamp[msg.sender] */\n      0xffffffffffffffffffffffffffffffffffffffff\n      and\n      0xffffffffffffffffffffffffffffffffffffffff\n      and\n      dup2\n      mstore\n      0x20\n      add\n      swap1\n      dup2\n      mstore\n      0x20\n      add\n      0x00\n      keccak256\n        /* \"submissions/Zora/CropTnsurance.sol\":2265:2313  lastClaimTimestamp[msg.sender] = block.timestamp */\n      dup2\n      swap1\n      sstore\n      pop\n        /* \"submissions/Zora/CropTnsurance.sol\":2348:2358  msg.sender */\n      caller\n        /* \"submissions/Zora/CropTnsurance.sol\":2333:2359  ClaimSubmitted(msg.sender) */\n      0xffffffffffffffffffffffffffffffffffffffff\n      and\n      0x2ab6bfd31d4179c9c028fbfabc158037d35b199e61cc811862f484a9ed0706a1\n      mload(0x40)\n      mload(0x40)\n      dup1\n      swap2\n      sub\n      swap1\n      log2\n        /* \"submissions/Zora/CropTnsurance.sol\":2376:2392  uint256 ethPrice */\n      0x00\n        /* \"submissions/Zora/CropTnsurance.sol\":2395:2408  getEthPrice() */\n      tag_112\n        /* \"submissions/Zora/CropTnsurance.sol\":2395:2406  getEthPrice */\n      tag_43\n        /* \"submissions/Zora/CropTnsurance.sol\":2395:2408  getEthPrice() */\n      jump\t// in\n    tag_112:\n        /* \"submissions/Zora/CropTnsurance.sol\":2376:2408  uint256 ethPrice = getEthPrice() */\n      swap1\n      pop\n        /* \"submissions/Zora/CropTnsurance.sol\":2423:2442  uint256 payoutInEth */\n      0x00\n        /* \"submissions/Zora/CropTnsurance.sol\":2477:2485  ethPrice */\n      dup2\n        /* \"submissions/Zora/CropTnsurance.sol\":2469:2473  1e18 */\n      0x0de0b6b3a7640000\n        /* \"submissions/Zora/CropTnsurance.sol\":501:503  50 */\n      0x32\n        /* \"submissions/Zora/CropTnsurance.sol\":2446:2473  INSURANCE_PAYOUT_USD * 1e18 */\n      tag_113\n      swap2\n      swap1\n      tag_114\n      jump\t// in\n    tag_113:\n        /* \"submissions/Zora/CropTnsurance.sol\":2445:2485  (INSURANCE_PAYOUT_USD * 1e18) / ethPrice */\n      tag_115\n      swap2\n      swap1\n      tag_116\n      jump\t// in\n    tag_115:\n        /* \"submissions/Zora/CropTnsurance.sol\":2423:2485  uint256 payoutInEth = (INSURANCE_PAYOUT_USD * 1e18) / ethPrice */\n      swap1\n      pop\n        /* \"submissions/Zora/CropTnsurance.sol\":2503:2515  bool success */\n      0x00\n        /* \"submissions/Zora/CropTnsurance.sol\":2521:2531  msg.sender */\n      caller\n        /* \"submissions/Zora/CropTnsurance.sol\":2521:2536  msg.sender.call */\n      0xffffffffffffffffffffffffffffffffffffffff\n      and\n        /* \"submissions/Zora/CropTnsurance.sol\":2544:2555  payoutInEth */\n      dup3\n        /* \"submissions/Zora/CropTnsurance.sol\":2521:2560  msg.sender.call{value: payoutInEth}(\"\") */\n      mload(0x40)\n      tag_117\n      swap1\n      tag_118\n      jump\t// in\n    tag_117:\n      0x00\n      mload(0x40)\n      dup1\n      dup4\n      sub\n      dup2\n      dup6\n      dup8\n      gas\n      call\n      swap3\n      pop\n      pop\n      pop\n      returndatasize\n      dup1\n      0x00\n      dup2\n      eq\n      tag_121\n      jumpi\n      mload(0x40)\n      swap2\n      pop\n      and(add(returndatasize, 0x3f), not(0x1f))\n      dup3\n      add\n      0x40\n      mstore\n      returndatasize\n      dup3\n      mstore\n      returndatasize\n      0x00\n      0x20\n      dup5\n      add\n      returndatacopy\n      jump(tag_120)\n    tag_121:\n      0x60\n      swap2\n      pop\n    tag_120:\n      pop\n        /* \"submissions/Zora/CropTnsurance.sol\":2502:2560  (bool success, ) = msg.sender.call{value: payoutInEth}(\"\") */\n      pop\n      swap1\n      pop\n        /* \"submissions/Zora/CropTnsurance.sol\":2583:2590  success */\n      dup1\n        /* \"submissions/Zora/CropTnsurance.sol\":2575:2610  require(success, \"Transfer failed\") */\n      tag_122\n      jumpi\n      mload(0x40)\n      0x08c379a000000000000000000000000000000000000000000000000000000000\n      dup2\n      mstore\n      0x04\n      add\n      tag_123\n      swap1\n      tag_124\n      jump\t// in\n    tag_123:\n      mload(0x40)\n      dup1\n      swap2\n      sub\n      swap1\n      revert\n    tag_122:\n        /* \"submissions/Zora/CropTnsurance.sol\":2642:2652  msg.sender */\n      caller\n        /* \"submissions/Zora/CropTnsurance.sol\":2632:2666  ClaimPaid(msg.sender, payoutInEth) */\n      0xffffffffffffffffffffffffffffffffffffffff\n      and\n      0xf42cf8c29487b42c009006cba2a2a0ca0388229f3183e6e957e0a0b163585cb4\n        /* \"submissions/Zora/CropTnsurance.sol\":2654:2665  payoutInEth */\n      dup4\n        /* \"submissions/Zora/CropTnsurance.sol\":2632:2666  ClaimPaid(msg.sender, payoutInEth) */\n      mload(0x40)\n      tag_125\n      swap2\n      swap1\n      tag_26\n      jump\t// in\n    tag_125:\n      mload(0x40)\n      dup1\n      swap2\n      sub\n      swap1\n      log2\n        /* \"submissions/Zora/CropTnsurance.sol\":2250:2678  {... */\n      pop\n      pop\n      pop\n        /* \"submissions/Zora/CropTnsurance.sol\":2208:2678  if (currentRainfall < RAINFALL_THRESHOLD) {... */\n    tag_111:\n        /* \"submissions/Zora/CropTnsurance.sol\":1584:2685  {... */\n      pop\n      pop\n      pop\n      pop\n      pop\n        /* \"submissions/Zora/CropTnsurance.sol\":1542:2685  function checkRainfallAndClaim() external {... */\n      jump\t// out\n        /* \"submissions/Zora/CropTnsurance.sol\":2693:2919  function getEthPrice() public view returns (uint256) {... */\n    tag_43:\n        /* \"submissions/Zora/CropTnsurance.sol\":2737:2744  uint256 */\n      0x00\n        /* \"submissions/Zora/CropTnsurance.sol\":2787:2799  int256 price */\n      0x00\n        /* \"submissions/Zora/CropTnsurance.sol\":2844:2859  ethUsdPriceFeed */\n      0x02\n      0x00\n      swap1\n      sload\n      swap1\n      0x0100\n      exp\n      swap1\n      div\n      0xffffffffffffffffffffffffffffffffffffffff\n      and\n        /* \"submissions/Zora/CropTnsurance.sol\":2844:2875  ethUsdPriceFeed.latestRoundData */\n      0xffffffffffffffffffffffffffffffffffffffff\n      and\n      0xfeaf968c\n        /* \"submissions/Zora/CropTnsurance.sol\":2844:2877  ethUsdPriceFeed.latestRoundData() */\n      mload(0x40)\n      dup2\n      0xffffffff\n      and\n      0xe0\n      shl\n      dup2\n      mstore\n      0x04\n      add\n      0xa0\n      mload(0x40)\n      dup1\n      dup4\n      sub\n      dup2\n      dup7\n      gas\n      staticcall\n      iszero\n      dup1\n      iszero\n      tag_128\n      jumpi\n      returndatacopy(0x00, 0x00, returndatasize)\n      revert(0x00, returndatasize)\n    tag_128:\n      pop\n      pop\n      pop\n      pop\n      mload(0x40)\n      returndatasize\n      not(0x1f)\n      0x1f\n      dup3\n      add\n      and\n      dup3\n      add\n      dup1\n      0x40\n      mstore\n      pop\n      dup2\n      add\n      swap1\n      tag_129\n      swap2\n      swap1\n      tag_83\n      jump\t// in\n    tag_129:\n        /* \"submissions/Zora/CropTnsurance.sol\":2757:2877  (... */\n      pop\n      pop\n      pop\n      swap2\n      pop\n      pop\n        /* \"submissions/Zora/CropTnsurance.sol\":2905:2910  price */\n      dup1\n        /* \"submissions/Zora/CropTnsurance.sol\":2890:2911  return uint256(price) */\n      swap2\n      pop\n      pop\n        /* \"submissions/Zora/CropTnsurance.sol\":2693:2919  function getEthPrice() public view returns (uint256) {... */\n      swap1\n      jump\t// out\n        /* \"@openzeppelin/contracts/access/Ownable.sol\":2293:2394  function renounceOwnership() public virtual onlyOwner {... */\n    tag_47:\n        /* \"@openzeppelin/contracts/access/Ownable.sol\":1531:1544  _checkOwner() */\n      tag_131\n        /* \"@openzeppelin/contracts/access/Ownable.sol\":1531:1542  _checkOwner */\n      tag_87\n        /* \"@openzeppelin/contracts/access/Ownable.sol\":1531:1544  _checkOwner() */\n      jump\t// in\n    tag_131:\n        /* \"@openzeppelin/contracts/access/Ownable.sol\":2357:2387  _transferOwnership(address(0)) */\n      tag_133\n        /* \"@openzeppelin/contracts/access/Ownable.sol\":2384:2385  0 */\n      0x00\n        /* \"@openzeppelin/contracts/access/Ownable.sol\":2357:2375  _transferOwnership */\n      tag_134\n        /* \"@openzeppelin/contracts/access/Ownable.sol\":2357:2387  _transferOwnership(address(0)) */\n      jump\t// in\n    tag_133:\n        /* \"@openzeppelin/contracts/access/Ownable.sol\":2293:2394  function renounceOwnership() public virtual onlyOwner {... */\n      jump\t// out\n        /* \"submissions/Zora/CropTnsurance.sol\":454:503  uint256 public constant INSURANCE_PAYOUT_USD = 50 */\n    tag_50:\n        /* \"submissions/Zora/CropTnsurance.sol\":501:503  50 */\n      0x32\n        /* \"submissions/Zora/CropTnsurance.sol\":454:503  uint256 public constant INSURANCE_PAYOUT_USD = 50 */\n      dup2\n      jump\t// out\n        /* \"submissions/Zora/CropTnsurance.sol\":512:556  mapping(address => bool) public hasInsurance */\n    tag_56:\n      mstore(0x20, 0x03)\n      dup1\n      0x00\n      mstore\n      keccak256(0x00, 0x40)\n      0x00\n      swap2\n      pop\n      sload\n      swap1\n      0x0100\n      exp\n      swap1\n      div\n      0xff\n      and\n      dup2\n      jump\t// out\n        /* \"@openzeppelin/contracts/access/Ownable.sol\":1638:1723  function owner() public view virtual returns (address) {... */\n    tag_61:\n        /* \"@openzeppelin/contracts/access/Ownable.sol\":1684:1691  address */\n      0x00\n        /* \"@openzeppelin/contracts/access/Ownable.sol\":1710:1716  _owner */\n      0x00\n      0x00\n      swap1\n      sload\n      swap1\n      0x0100\n      exp\n      swap1\n      div\n      0xffffffffffffffffffffffffffffffffffffffff\n      and\n        /* \"@openzeppelin/contracts/access/Ownable.sol\":1703:1716  return _owner */\n      swap1\n      pop\n        /* \"@openzeppelin/contracts/access/Ownable.sol\":1638:1723  function owner() public view virtual returns (address) {... */\n      swap1\n      jump\t// out\n        /* \"submissions/Zora/CropTnsurance.sol\":563:616  mapping(address => uint256) public lastClaimTimestamp */\n    tag_67:\n      mstore(0x20, 0x04)\n      dup1\n      0x00\n      mstore\n      keccak256(0x00, 0x40)\n      0x00\n      swap2\n      pop\n      swap1\n      pop\n      sload\n      dup2\n      jump\t// out\n        /* \"submissions/Zora/CropTnsurance.sol\":342:390  uint256 public constant RAINFALL_THRESHOLD = 500 */\n    tag_71:\n        /* \"submissions/Zora/CropTnsurance.sol\":387:390  500 */\n      0x01f4\n        /* \"submissions/Zora/CropTnsurance.sol\":342:390  uint256 public constant RAINFALL_THRESHOLD = 500 */\n      dup2\n      jump\t// out\n        /* \"submissions/Zora/CropTnsurance.sol\":1119:1534  function purchaseInsurance() external payable {... */\n    tag_74:\n        /* \"submissions/Zora/CropTnsurance.sol\":1176:1192  uint256 ethPrice */\n      0x00\n        /* \"submissions/Zora/CropTnsurance.sol\":1195:1208  getEthPrice() */\n      tag_137\n        /* \"submissions/Zora/CropTnsurance.sol\":1195:1206  getEthPrice */\n      tag_43\n        /* \"submissions/Zora/CropTnsurance.sol\":1195:1208  getEthPrice() */\n      jump\t// in\n    tag_137:\n        /* \"submissions/Zora/CropTnsurance.sol\":1176:1208  uint256 ethPrice = getEthPrice() */\n      swap1\n      pop\n        /* \"submissions/Zora/CropTnsurance.sol\":1219:1239  uint256 premiumInEth */\n      0x00\n        /* \"submissions/Zora/CropTnsurance.sol\":1275:1283  ethPrice */\n      dup2\n        /* \"submissions/Zora/CropTnsurance.sol\":1267:1271  1e18 */\n      0x0de0b6b3a7640000\n        /* \"submissions/Zora/CropTnsurance.sol\":445:447  10 */\n      0x0a\n        /* \"submissions/Zora/CropTnsurance.sol\":1243:1271  INSURANCE_PREMIUM_USD * 1e18 */\n      tag_138\n      swap2\n      swap1\n      tag_114\n      jump\t// in\n    tag_138:\n        /* \"submissions/Zora/CropTnsurance.sol\":1242:1283  (INSURANCE_PREMIUM_USD * 1e18) / ethPrice */\n      tag_139\n      swap2\n      swap1\n      tag_116\n      jump\t// in\n    tag_139:\n        /* \"submissions/Zora/CropTnsurance.sol\":1219:1283  uint256 premiumInEth = (INSURANCE_PREMIUM_USD * 1e18) / ethPrice */\n      swap1\n      pop\n        /* \"submissions/Zora/CropTnsurance.sol\":1317:1329  premiumInEth */\n      dup1\n        /* \"submissions/Zora/CropTnsurance.sol\":1304:1313  msg.value */\n      callvalue\n        /* \"submissions/Zora/CropTnsurance.sol\":1304:1329  msg.value >= premiumInEth */\n      lt\n      iszero\n        /* \"submissions/Zora/CropTnsurance.sol\":1296:1361  require(msg.value >= premiumInEth, \"Insufficient premium amount\") */\n      tag_140\n      jumpi\n      mload(0x40)\n      0x08c379a000000000000000000000000000000000000000000000000000000000\n      dup2\n      mstore\n      0x04\n      add\n      tag_141\n      swap1\n      tag_142\n      jump\t// in\n    tag_141:\n      mload(0x40)\n      dup1\n      swap2\n      sub\n      swap1\n      revert\n    tag_140:\n        /* \"submissions/Zora/CropTnsurance.sol\":1381:1393  hasInsurance */\n      0x03\n        /* \"submissions/Zora/CropTnsurance.sol\":1381:1405  hasInsurance[msg.sender] */\n      0x00\n        /* \"submissions/Zora/CropTnsurance.sol\":1394:1404  msg.sender */\n      caller\n        /* \"submissions/Zora/CropTnsurance.sol\":1381:1405  hasInsurance[msg.sender] */\n      0xffffffffffffffffffffffffffffffffffffffff\n      and\n      0xffffffffffffffffffffffffffffffffffffffff\n      and\n      dup2\n      mstore\n      0x20\n      add\n      swap1\n      dup2\n      mstore\n      0x20\n      add\n      0x00\n      keccak256\n      0x00\n      swap1\n      sload\n      swap1\n      0x0100\n      exp\n      swap1\n      div\n      0xff\n      and\n        /* \"submissions/Zora/CropTnsurance.sol\":1380:1405  !hasInsurance[msg.sender] */\n      iszero\n        /* \"submissions/Zora/CropTnsurance.sol\":1372:1425  require(!hasInsurance[msg.sender], \"Already insured\") */\n      tag_143\n      jumpi\n      mload(0x40)\n      0x08c379a000000000000000000000000000000000000000000000000000000000\n      dup2\n      mstore\n      0x04\n      add\n      tag_144\n      swap1\n      tag_145\n      jump\t// in\n    tag_144:\n      mload(0x40)\n      dup1\n      swap2\n      sub\n      swap1\n      revert\n    tag_143:\n        /* \"submissions/Zora/CropTnsurance.sol\":1465:1469  true */\n      0x01\n        /* \"submissions/Zora/CropTnsurance.sol\":1438:1450  hasInsurance */\n      0x03\n        /* \"submissions/Zora/CropTnsurance.sol\":1438:1462  hasInsurance[msg.sender] */\n      0x00\n        /* \"submissions/Zora/CropTnsurance.sol\":1451:1461  msg.sender */\n      caller\n        /* \"submissions/Zora/CropTnsurance.sol\":1438:1462  hasInsurance[msg.sender] */\n      0xffffffffffffffffffffffffffffffffffffffff\n      and\n      0xffffffffffffffffffffffffffffffffffffffff\n      and\n      dup2\n      mstore\n      0x20\n      add\n      swap1\n      dup2\n      mstore\n      0x20\n      add\n      0x00\n      keccak256\n      0x00\n        /* \"submissions/Zora/CropTnsurance.sol\":1438:1469  hasInsurance[msg.sender] = true */\n      0x0100\n      exp\n      dup2\n      sload\n      dup2\n      0xff\n      mul\n      not\n      and\n      swap1\n      dup4\n      iszero\n      iszero\n      mul\n      or\n      swap1\n      sstore\n      pop\n        /* \"submissions/Zora/CropTnsurance.sol\":1504:1514  msg.sender */\n      caller\n        /* \"submissions/Zora/CropTnsurance.sol\":1485:1526  InsurancePurchased(msg.sender, msg.value) */\n      0xffffffffffffffffffffffffffffffffffffffff\n      and\n      0x4b58308df033561e43d2c0227b19bea93ae78a05df784c985482b3fb7e154610\n        /* \"submissions/Zora/CropTnsurance.sol\":1516:1525  msg.value */\n      callvalue\n        /* \"submissions/Zora/CropTnsurance.sol\":1485:1526  InsurancePurchased(msg.sender, msg.value) */\n      mload(0x40)\n      tag_146\n      swap2\n      swap1\n      tag_26\n      jump\t// in\n    tag_146:\n      mload(0x40)\n      dup1\n      swap2\n      sub\n      swap1\n      log2\n        /* \"submissions/Zora/CropTnsurance.sol\":1165:1534  {... */\n      pop\n      pop\n        /* \"submissions/Zora/CropTnsurance.sol\":1119:1534  function purchaseInsurance() external payable {... */\n      jump\t// out\n        /* \"@openzeppelin/contracts/access/Ownable.sol\":2543:2758  function transferOwnership(address newOwner) public virtual onlyOwner {... */\n    tag_78:\n        /* \"@openzeppelin/contracts/access/Ownable.sol\":1531:1544  _checkOwner() */\n      tag_148\n        /* \"@openzeppelin/contracts/access/Ownable.sol\":1531:1542  _checkOwner */\n      tag_87\n        /* \"@openzeppelin/contracts/access/Ownable.sol\":1531:1544  _checkOwner() */\n      jump\t// in\n    tag_148:\n        /* \"@openzeppelin/contracts/access/Ownable.sol\":2647:2648  0 */\n      0x00\n        /* \"@openzeppelin/contracts/access/Ownable.sol\":2627:2649  newOwner == address(0) */\n      0xffffffffffffffffffffffffffffffffffffffff\n      and\n        /* \"@openzeppelin/contracts/access/Ownable.sol\":2627:2635  newOwner */\n      dup2\n        /* \"@openzeppelin/contracts/access/Ownable.sol\":2627:2649  newOwner == address(0) */\n      0xffffffffffffffffffffffffffffffffffffffff\n      and\n      sub\n        /* \"@openzeppelin/contracts/access/Ownable.sol\":2623:2714  if (newOwner == address(0)) {... */\n      tag_150\n      jumpi\n        /* \"@openzeppelin/contracts/access/Ownable.sol\":2700:2701  0 */\n      0x00\n        /* \"@openzeppelin/contracts/access/Ownable.sol\":2672:2703  OwnableInvalidOwner(address(0)) */\n      mload(0x40)\n      0x1e4fbdf700000000000000000000000000000000000000000000000000000000\n      dup2\n      mstore\n      0x04\n      add\n      tag_151\n      swap2\n      swap1\n      tag_63\n      jump\t// in\n    tag_151:\n      mload(0x40)\n      dup1\n      swap2\n      sub\n      swap1\n      revert\n        /* \"@openzeppelin/contracts/access/Ownable.sol\":2623:2714  if (newOwner == address(0)) {... */\n    tag_150:\n        /* \"@openzeppelin/contracts/access/Ownable.sol\":2723:2751  _transferOwnership(newOwner) */\n      tag_152\n        /* \"@openzeppelin/contracts/access/Ownable.sol\":2742:2750  newOwner */\n      dup2\n        /* \"@openzeppelin/contracts/access/Ownable.sol\":2723:2741  _transferOwnership */\n      tag_134\n        /* \"@openzeppelin/contracts/access/Ownable.sol\":2723:2751  _transferOwnership(newOwner) */\n      jump\t// in\n    tag_152:\n        /* \"@openzeppelin/contracts/access/Ownable.sol\":2543:2758  function transferOwnership(address newOwner) public virtual onlyOwner {... */\n      pop\n      jump\t// out\n        /* \"@openzeppelin/contracts/access/Ownable.sol\":1796:1958  function _checkOwner() internal view virtual {... */\n    tag_87:\n        /* \"@openzeppelin/contracts/access/Ownable.sol\":1866:1878  _msgSender() */\n      tag_154\n        /* \"@openzeppelin/contracts/access/Ownable.sol\":1866:1876  _msgSender */\n      tag_155\n        /* \"@openzeppelin/contracts/access/Ownable.sol\":1866:1878  _msgSender() */\n      jump\t// in\n    tag_154:\n        /* \"@openzeppelin/contracts/access/Ownable.sol\":1855:1878  owner() != _msgSender() */\n      0xffffffffffffffffffffffffffffffffffffffff\n      and\n        /* \"@openzeppelin/contracts/access/Ownable.sol\":1855:1862  owner() */\n      tag_156\n        /* \"@openzeppelin/contracts/access/Ownable.sol\":1855:1860  owner */\n      tag_61\n        /* \"@openzeppelin/contracts/access/Ownable.sol\":1855:1862  owner() */\n      jump\t// in\n    tag_156:\n        /* \"@openzeppelin/contracts/access/Ownable.sol\":1855:1878  owner() != _msgSender() */\n      0xffffffffffffffffffffffffffffffffffffffff\n      and\n      eq\n        /* \"@openzeppelin/contracts/access/Ownable.sol\":1851:1952  if (owner() != _msgSender()) {... */\n      tag_157\n      jumpi\n        /* \"@openzeppelin/contracts/access/Ownable.sol\":1928:1940  _msgSender() */\n      tag_158\n        /* \"@openzeppelin/contracts/access/Ownable.sol\":1928:1938  _msgSender */\n      tag_155\n        /* \"@openzeppelin/contracts/access/Ownable.sol\":1928:1940  _msgSender() */\n      jump\t// in\n    tag_158:\n        /* \"@openzeppelin/contracts/access/Ownable.sol\":1901:1941  OwnableUnauthorizedAccount(_msgSender()) */\n      mload(0x40)\n      0x118cdaa700000000000000000000000000000000000000000000000000000000\n      dup2\n      mstore\n      0x04\n      add\n      tag_159\n      swap2\n      swap1\n      tag_63\n      jump\t// in\n    tag_159:\n      mload(0x40)\n      dup1\n      swap2\n      sub\n      swap1\n      revert\n        /* \"@openzeppelin/contracts/access/Ownable.sol\":1851:1952  if (owner() != _msgSender()) {... */\n    tag_157:\n        /* \"@openzeppelin/contracts/access/Ownable.sol\":1796:1958  function _checkOwner() internal view virtual {... */\n      jump\t// out\n        /* \"@openzeppelin/contracts/access/Ownable.sol\":2912:3099  function _transferOwnership(address newOwner) internal virtual {... */\n    tag_134:\n        /* \"@openzeppelin/contracts/access/Ownable.sol\":2985:3001  address oldOwner */\n      0x00\n        /* \"@openzeppelin/contracts/access/Ownable.sol\":3004:3010  _owner */\n      0x00\n      0x00\n      swap1\n      sload\n      swap1\n      0x0100\n      exp\n      swap1\n      div\n      0xffffffffffffffffffffffffffffffffffffffff\n      and\n        /* \"@openzeppelin/contracts/access/Ownable.sol\":2985:3010  address oldOwner = _owner */\n      swap1\n      pop\n        /* \"@openzeppelin/contracts/access/Ownable.sol\":3029:3037  newOwner */\n      dup2\n        /* \"@openzeppelin/contracts/access/Ownable.sol\":3020:3026  _owner */\n      0x00\n      0x00\n        /* \"@openzeppelin/contracts/access/Ownable.sol\":3020:3037  _owner = newOwner */\n      0x0100\n      exp\n      dup2\n      sload\n      dup2\n      0xffffffffffffffffffffffffffffffffffffffff\n      mul\n      not\n      and\n      swap1\n      dup4\n      0xffffffffffffffffffffffffffffffffffffffff\n      and\n      mul\n      or\n      swap1\n      sstore\n      pop\n        /* \"@openzeppelin/contracts/access/Ownable.sol\":3083:3091  newOwner */\n      dup2\n        /* \"@openzeppelin/contracts/access/Ownable.sol\":3052:3092  OwnershipTransferred(oldOwner, newOwner) */\n      0xffffffffffffffffffffffffffffffffffffffff\n      and\n        /* \"@openzeppelin/contracts/access/Ownable.sol\":3073:3081  oldOwner */\n      dup2\n        /* \"@openzeppelin/contracts/access/Ownable.sol\":3052:3092  OwnershipTransferred(oldOwner, newOwner) */\n      0xffffffffffffffffffffffffffffffffffffffff\n      and\n      0x8be0079c531659141344cd1fd0a4f28419497f9722a3daafe3b4186f6b6457e0\n      mload(0x40)\n      mload(0x40)\n      dup1\n      swap2\n      sub\n      swap1\n      log3\n        /* \"@openzeppelin/contracts/access/Ownable.sol\":2975:3099  {... */\n      pop\n        /* \"@openzeppelin/contracts/access/Ownable.sol\":2912:3099  function _transferOwnership(address newOwner) internal virtual {... */\n      pop\n      jump\t// out\n        /* \"@openzeppelin/contracts/utils/Context.sol\":656:752  function _msgSender() internal view virtual returns (address) {... */\n    tag_155:\n        /* \"@openzeppelin/contracts/utils/Context.sol\":709:716  address */\n      0x00\n        /* \"@openzeppelin/contracts/utils/Context.sol\":735:745  msg.sender */\n      caller\n        /* \"@openzeppelin/contracts/utils/Context.sol\":728:745  return msg.sender */\n      swap1\n      pop\n        /* \"@openzeppelin/contracts/utils/Context.sol\":656:752  function _msgSender() internal view virtual returns (address) {... */\n      swap1\n      jump\t// out\n        /* \"#utility.yul\":7:84   */\n    tag_162:\n        /* \"#utility.yul\":44:51   */\n      0x00\n        /* \"#utility.yul\":73:78   */\n      dup2\n        /* \"#utility.yul\":62:78   */\n      swap1\n      pop\n        /* \"#utility.yul\":7:84   */\n      swap2\n      swap1\n      pop\n      jump\t// out\n        /* \"#utility.yul\":90:208   */\n    tag_163:\n        /* \"#utility.yul\":177:201   */\n      tag_205\n        /* \"#utility.yul\":195:200   */\n      dup2\n        /* \"#utility.yul\":177:201   */\n      tag_162\n      jump\t// in\n    tag_205:\n        /* \"#utility.yul\":172:175   */\n      dup3\n        /* \"#utility.yul\":165:202   */\n      mstore\n        /* \"#utility.yul\":90:208   */\n      pop\n      pop\n      jump\t// out\n        /* \"#utility.yul\":214:436   */\n    tag_26:\n        /* \"#utility.yul\":307:311   */\n      0x00\n        /* \"#utility.yul\":345:347   */\n      0x20\n        /* \"#utility.yul\":334:343   */\n      dup3\n        /* \"#utility.yul\":330:348   */\n      add\n        /* \"#utility.yul\":322:348   */\n      swap1\n      pop\n        /* \"#utility.yul\":358:429   */\n      tag_207\n        /* \"#utility.yul\":426:427   */\n      0x00\n        /* \"#utility.yul\":415:424   */\n      dup4\n        /* \"#utility.yul\":411:428   */\n      add\n        /* \"#utility.yul\":402:408   */\n      dup5\n        /* \"#utility.yul\":358:429   */\n      tag_163\n      jump\t// in\n    tag_207:\n        /* \"#utility.yul\":214:436   */\n      swap3\n      swap2\n      pop\n      pop\n      jump\t// out\n        /* \"#utility.yul\":523:640   */\n    tag_165:\n        /* \"#utility.yul\":632:633   */\n      0x00\n        /* \"#utility.yul\":629:630   */\n      0x00\n        /* \"#utility.yul\":622:634   */\n      revert\n        /* \"#utility.yul\":769:895   */\n    tag_167:\n        /* \"#utility.yul\":806:813   */\n      0x00\n        /* \"#utility.yul\":846:888   */\n      0xffffffffffffffffffffffffffffffffffffffff\n        /* \"#utility.yul\":839:844   */\n      dup3\n        /* \"#utility.yul\":835:889   */\n      and\n        /* \"#utility.yul\":824:889   */\n      swap1\n      pop\n        /* \"#utility.yul\":769:895   */\n      swap2\n      swap1\n      pop\n      jump\t// out\n        /* \"#utility.yul\":901:997   */\n    tag_168:\n        /* \"#utility.yul\":938:945   */\n      0x00\n        /* \"#utility.yul\":967:991   */\n      tag_213\n        /* \"#utility.yul\":985:990   */\n      dup3\n        /* \"#utility.yul\":967:991   */\n      tag_167\n      jump\t// in\n    tag_213:\n        /* \"#utility.yul\":956:991   */\n      swap1\n      pop\n        /* \"#utility.yul\":901:997   */\n      swap2\n      swap1\n      pop\n      jump\t// out\n        /* \"#utility.yul\":1003:1125   */\n    tag_169:\n        /* \"#utility.yul\":1076:1100   */\n      tag_215\n        /* \"#utility.yul\":1094:1099   */\n      dup2\n        /* \"#utility.yul\":1076:1100   */\n      tag_168\n      jump\t// in\n    tag_215:\n        /* \"#utility.yul\":1069:1074   */\n      dup2\n        /* \"#utility.yul\":1066:1101   */\n      eq\n        /* \"#utility.yul\":1056:1119   */\n      tag_216\n      jumpi\n        /* \"#utility.yul\":1115:1116   */\n      0x00\n        /* \"#utility.yul\":1112:1113   */\n      0x00\n        /* \"#utility.yul\":1105:1117   */\n      revert\n        /* \"#utility.yul\":1056:1119   */\n    tag_216:\n        /* \"#utility.yul\":1003:1125   */\n      pop\n      jump\t// out\n        /* \"#utility.yul\":1131:1270   */\n    tag_170:\n        /* \"#utility.yul\":1177:1182   */\n      0x00\n        /* \"#utility.yul\":1215:1221   */\n      dup2\n        /* \"#utility.yul\":1202:1222   */\n      calldataload\n        /* \"#utility.yul\":1193:1222   */\n      swap1\n      pop\n        /* \"#utility.yul\":1231:1264   */\n      tag_218\n        /* \"#utility.yul\":1258:1263   */\n      dup2\n        /* \"#utility.yul\":1231:1264   */\n      tag_169\n      jump\t// in\n    tag_218:\n        /* \"#utility.yul\":1131:1270   */\n      swap3\n      swap2\n      pop\n      pop\n      jump\t// out\n        /* \"#utility.yul\":1276:1605   */\n    tag_55:\n        /* \"#utility.yul\":1335:1341   */\n      0x00\n        /* \"#utility.yul\":1384:1386   */\n      0x20\n        /* \"#utility.yul\":1372:1381   */\n      dup3\n        /* \"#utility.yul\":1363:1370   */\n      dup5\n        /* \"#utility.yul\":1359:1382   */\n      sub\n        /* \"#utility.yul\":1355:1387   */\n      slt\n        /* \"#utility.yul\":1352:1471   */\n      iszero\n      tag_220\n      jumpi\n        /* \"#utility.yul\":1390:1469   */\n      tag_221\n      tag_165\n      jump\t// in\n    tag_221:\n        /* \"#utility.yul\":1352:1471   */\n    tag_220:\n        /* \"#utility.yul\":1510:1511   */\n      0x00\n        /* \"#utility.yul\":1535:1588   */\n      tag_222\n        /* \"#utility.yul\":1580:1587   */\n      dup5\n        /* \"#utility.yul\":1571:1577   */\n      dup3\n        /* \"#utility.yul\":1560:1569   */\n      dup6\n        /* \"#utility.yul\":1556:1578   */\n      add\n        /* \"#utility.yul\":1535:1588   */\n      tag_170\n      jump\t// in\n    tag_222:\n        /* \"#utility.yul\":1525:1588   */\n      swap2\n      pop\n        /* \"#utility.yul\":1481:1598   */\n      pop\n        /* \"#utility.yul\":1276:1605   */\n      swap3\n      swap2\n      pop\n      pop\n      jump\t// out\n        /* \"#utility.yul\":1611:1701   */\n    tag_171:\n        /* \"#utility.yul\":1645:1652   */\n      0x00\n        /* \"#utility.yul\":1688:1693   */\n      dup2\n        /* \"#utility.yul\":1681:1694   */\n      iszero\n        /* \"#utility.yul\":1674:1695   */\n      iszero\n        /* \"#utility.yul\":1663:1695   */\n      swap1\n      pop\n        /* \"#utility.yul\":1611:1701   */\n      swap2\n      swap1\n      pop\n      jump\t// out\n        /* \"#utility.yul\":1707:1816   */\n    tag_172:\n        /* \"#utility.yul\":1788:1809   */\n      tag_225\n        /* \"#utility.yul\":1803:1808   */\n      dup2\n        /* \"#utility.yul\":1788:1809   */\n      tag_171\n      jump\t// in\n    tag_225:\n        /* \"#utility.yul\":1783:1786   */\n      dup3\n        /* \"#utility.yul\":1776:1810   */\n      mstore\n        /* \"#utility.yul\":1707:1816   */\n      pop\n      pop\n      jump\t// out\n        /* \"#utility.yul\":1822:2032   */\n    tag_58:\n        /* \"#utility.yul\":1909:1913   */\n      0x00\n        /* \"#utility.yul\":1947:1949   */\n      0x20\n        /* \"#utility.yul\":1936:1945   */\n      dup3\n        /* \"#utility.yul\":1932:1950   */\n      add\n        /* \"#utility.yul\":1924:1950   */\n      swap1\n      pop\n        /* \"#utility.yul\":1960:2025   */\n      tag_227\n        /* \"#utility.yul\":2022:2023   */\n      0x00\n        /* \"#utility.yul\":2011:2020   */\n      dup4\n        /* \"#utility.yul\":2007:2024   */\n      add\n        /* \"#utility.yul\":1998:2004   */\n      dup5\n        /* \"#utility.yul\":1960:2025   */\n      tag_172\n      jump\t// in\n    tag_227:\n        /* \"#utility.yul\":1822:2032   */\n      swap3\n      swap2\n      pop\n      pop\n      jump\t// out\n        /* \"#utility.yul\":2038:2156   */\n    tag_173:\n        /* \"#utility.yul\":2125:2149   */\n      tag_229\n        /* \"#utility.yul\":2143:2148   */\n      dup2\n        /* \"#utility.yul\":2125:2149   */\n      tag_168\n      jump\t// in\n    tag_229:\n        /* \"#utility.yul\":2120:2123   */\n      dup3\n        /* \"#utility.yul\":2113:2150   */\n      mstore\n        /* \"#utility.yul\":2038:2156   */\n      pop\n      pop\n      jump\t// out\n        /* \"#utility.yul\":2162:2384   */\n    tag_63:\n        /* \"#utility.yul\":2255:2259   */\n      0x00\n        /* \"#utility.yul\":2293:2295   */\n      0x20\n        /* \"#utility.yul\":2282:2291   */\n      dup3\n        /* \"#utility.yul\":2278:2296   */\n      add\n        /* \"#utility.yul\":2270:2296   */\n      swap1\n      pop\n        /* \"#utility.yul\":2306:2377   */\n      tag_231\n        /* \"#utility.yul\":2374:2375   */\n      0x00\n        /* \"#utility.yul\":2363:2372   */\n      dup4\n        /* \"#utility.yul\":2359:2376   */\n      add\n        /* \"#utility.yul\":2350:2356   */\n      dup5\n        /* \"#utility.yul\":2306:2377   */\n      tag_173\n      jump\t// in\n    tag_231:\n        /* \"#utility.yul\":2162:2384   */\n      swap3\n      swap2\n      pop\n      pop\n      jump\t// out\n        /* \"#utility.yul\":2390:2495   */\n    tag_174:\n        /* \"#utility.yul\":2426:2433   */\n      0x00\n        /* \"#utility.yul\":2466:2488   */\n      0xffffffffffffffffffff\n        /* \"#utility.yul\":2459:2464   */\n      dup3\n        /* \"#utility.yul\":2455:2489   */\n      and\n        /* \"#utility.yul\":2444:2489   */\n      swap1\n      pop\n        /* \"#utility.yul\":2390:2495   */\n      swap2\n      swap1\n      pop\n      jump\t// out\n        /* \"#utility.yul\":2501:2621   */\n    tag_175:\n        /* \"#utility.yul\":2573:2596   */\n      tag_234\n        /* \"#utility.yul\":2590:2595   */\n      dup2\n        /* \"#utility.yul\":2573:2596   */\n      tag_174\n      jump\t// in\n    tag_234:\n        /* \"#utility.yul\":2566:2571   */\n      dup2\n        /* \"#utility.yul\":2563:2597   */\n      eq\n        /* \"#utility.yul\":2553:2615   */\n      tag_235\n      jumpi\n        /* \"#utility.yul\":2611:2612   */\n      0x00\n        /* \"#utility.yul\":2608:2609   */\n      0x00\n        /* \"#utility.yul\":2601:2613   */\n      revert\n        /* \"#utility.yul\":2553:2615   */\n    tag_235:\n        /* \"#utility.yul\":2501:2621   */\n      pop\n      jump\t// out\n        /* \"#utility.yul\":2627:2768   */\n    tag_176:\n        /* \"#utility.yul\":2683:2688   */\n      0x00\n        /* \"#utility.yul\":2714:2720   */\n      dup2\n        /* \"#utility.yul\":2708:2721   */\n      mload\n        /* \"#utility.yul\":2699:2721   */\n      swap1\n      pop\n        /* \"#utility.yul\":2730:2762   */\n      tag_237\n        /* \"#utility.yul\":2756:2761   */\n      dup2\n        /* \"#utility.yul\":2730:2762   */\n      tag_175\n      jump\t// in\n    tag_237:\n        /* \"#utility.yul\":2627:2768   */\n      swap3\n      swap2\n      pop\n      pop\n      jump\t// out\n        /* \"#utility.yul\":2774:2850   */\n    tag_177:\n        /* \"#utility.yul\":2810:2817   */\n      0x00\n        /* \"#utility.yul\":2839:2844   */\n      dup2\n        /* \"#utility.yul\":2828:2844   */\n      swap1\n      pop\n        /* \"#utility.yul\":2774:2850   */\n      swap2\n      swap1\n      pop\n      jump\t// out\n        /* \"#utility.yul\":2856:2976   */\n    tag_178:\n        /* \"#utility.yul\":2928:2951   */\n      tag_240\n        /* \"#utility.yul\":2945:2950   */\n      dup2\n        /* \"#utility.yul\":2928:2951   */\n      tag_177\n      jump\t// in\n    tag_240:\n        /* \"#utility.yul\":2921:2926   */\n      dup2\n        /* \"#utility.yul\":2918:2952   */\n      eq\n        /* \"#utility.yul\":2908:2970   */\n      tag_241\n      jumpi\n        /* \"#utility.yul\":2966:2967   */\n      0x00\n        /* \"#utility.yul\":2963:2964   */\n      0x00\n        /* \"#utility.yul\":2956:2968   */\n      revert\n        /* \"#utility.yul\":2908:2970   */\n    tag_241:\n        /* \"#utility.yul\":2856:2976   */\n      pop\n      jump\t// out\n        /* \"#utility.yul\":2982:3123   */\n    tag_179:\n        /* \"#utility.yul\":3038:3043   */\n      0x00\n        /* \"#utility.yul\":3069:3075   */\n      dup2\n        /* \"#utility.yul\":3063:3076   */\n      mload\n        /* \"#utility.yul\":3054:3076   */\n      swap1\n      pop\n        /* \"#utility.yul\":3085:3117   */\n      tag_243\n        /* \"#utility.yul\":3111:3116   */\n      dup2\n        /* \"#utility.yul\":3085:3117   */\n      tag_178\n      jump\t// in\n    tag_243:\n        /* \"#utility.yul\":2982:3123   */\n      swap3\n      swap2\n      pop\n      pop\n      jump\t// out\n        /* \"#utility.yul\":3129:3251   */\n    tag_180:\n        /* \"#utility.yul\":3202:3226   */\n      tag_245\n        /* \"#utility.yul\":3220:3225   */\n      dup2\n        /* \"#utility.yul\":3202:3226   */\n      tag_162\n      jump\t// in\n    tag_245:\n        /* \"#utility.yul\":3195:3200   */\n      dup2\n        /* \"#utility.yul\":3192:3227   */\n      eq\n        /* \"#utility.yul\":3182:3245   */\n      tag_246\n      jumpi\n        /* \"#utility.yul\":3241:3242   */\n      0x00\n        /* \"#utility.yul\":3238:3239   */\n      0x00\n        /* \"#utility.yul\":3231:3243   */\n      revert\n        /* \"#utility.yul\":3182:3245   */\n    tag_246:\n        /* \"#utility.yul\":3129:3251   */\n      pop\n      jump\t// out\n        /* \"#utility.yul\":3257:3400   */\n    tag_181:\n        /* \"#utility.yul\":3314:3319   */\n      0x00\n        /* \"#utility.yul\":3345:3351   */\n      dup2\n        /* \"#utility.yul\":3339:3352   */\n      mload\n        /* \"#utility.yul\":3330:3352   */\n      swap1\n      pop\n        /* \"#utility.yul\":3361:3394   */\n      tag_248\n        /* \"#utility.yul\":3388:3393   */\n      dup2\n        /* \"#utility.yul\":3361:3394   */\n      tag_180\n      jump\t// in\n    tag_248:\n        /* \"#utility.yul\":3257:3400   */\n      swap3\n      swap2\n      pop\n      pop\n      jump\t// out\n        /* \"#utility.yul\":3406:4377   */\n    tag_83:\n        /* \"#utility.yul\":3509:3515   */\n      0x00\n        /* \"#utility.yul\":3517:3523   */\n      0x00\n        /* \"#utility.yul\":3525:3531   */\n      0x00\n        /* \"#utility.yul\":3533:3539   */\n      0x00\n        /* \"#utility.yul\":3541:3547   */\n      0x00\n        /* \"#utility.yul\":3590:3593   */\n      0xa0\n        /* \"#utility.yul\":3578:3587   */\n      dup7\n        /* \"#utility.yul\":3569:3576   */\n      dup9\n        /* \"#utility.yul\":3565:3588   */\n      sub\n        /* \"#utility.yul\":3561:3594   */\n      slt\n        /* \"#utility.yul\":3558:3678   */\n      iszero\n      tag_250\n      jumpi\n        /* \"#utility.yul\":3597:3676   */\n      tag_251\n      tag_165\n      jump\t// in\n    tag_251:\n        /* \"#utility.yul\":3558:3678   */\n    tag_250:\n        /* \"#utility.yul\":3717:3718   */\n      0x00\n        /* \"#utility.yul\":3742:3805   */\n      tag_252\n        /* \"#utility.yul\":3797:3804   */\n      dup9\n        /* \"#utility.yul\":3788:3794   */\n      dup3\n        /* \"#utility.yul\":3777:3786   */\n      dup10\n        /* \"#utility.yul\":3773:3795   */\n      add\n        /* \"#utility.yul\":3742:3805   */\n      tag_176\n      jump\t// in\n    tag_252:\n        /* \"#utility.yul\":3732:3805   */\n      swap6\n      pop\n        /* \"#utility.yul\":3688:3815   */\n      pop\n        /* \"#utility.yul\":3854:3856   */\n      0x20\n        /* \"#utility.yul\":3880:3943   */\n      tag_253\n        /* \"#utility.yul\":3935:3942   */\n      dup9\n        /* \"#utility.yul\":3926:3932   */\n      dup3\n        /* \"#utility.yul\":3915:3924   */\n      dup10\n        /* \"#utility.yul\":3911:3933   */\n      add\n        /* \"#utility.yul\":3880:3943   */\n      tag_179\n      jump\t// in\n    tag_253:\n        /* \"#utility.yul\":3870:3943   */\n      swap5\n      pop\n        /* \"#utility.yul\":3825:3953   */\n      pop\n        /* \"#utility.yul\":3992:3994   */\n      0x40\n        /* \"#utility.yul\":4018:4082   */\n      tag_254\n        /* \"#utility.yul\":4074:4081   */\n      dup9\n        /* \"#utility.yul\":4065:4071   */\n      dup3\n        /* \"#utility.yul\":4054:4063   */\n      dup10\n        /* \"#utility.yul\":4050:4072   */\n      add\n        /* \"#utility.yul\":4018:4082   */\n      tag_181\n      jump\t// in\n    tag_254:\n        /* \"#utility.yul\":4008:4082   */\n      swap4\n      pop\n        /* \"#utility.yul\":3963:4092   */\n      pop\n        /* \"#utility.yul\":4131:4133   */\n      0x60\n        /* \"#utility.yul\":4157:4221   */\n      tag_255\n        /* \"#utility.yul\":4213:4220   */\n      dup9\n        /* \"#utility.yul\":4204:4210   */\n      dup3\n        /* \"#utility.yul\":4193:4202   */\n      dup10\n        /* \"#utility.yul\":4189:4211   */\n      add\n        /* \"#utility.yul\":4157:4221   */\n      tag_181\n      jump\t// in\n    tag_255:\n        /* \"#utility.yul\":4147:4221   */\n      swap3\n      pop\n        /* \"#utility.yul\":4102:4231   */\n      pop\n        /* \"#utility.yul\":4270:4273   */\n      0x80\n        /* \"#utility.yul\":4297:4360   */\n      tag_256\n        /* \"#utility.yul\":4352:4359   */\n      dup9\n        /* \"#utility.yul\":4343:4349   */\n      dup3\n        /* \"#utility.yul\":4332:4341   */\n      dup10\n        /* \"#utility.yul\":4328:4350   */\n      add\n        /* \"#utility.yul\":4297:4360   */\n      tag_176\n      jump\t// in\n    tag_256:\n        /* \"#utility.yul\":4287:4360   */\n      swap2\n      pop\n        /* \"#utility.yul\":4241:4370   */\n      pop\n        /* \"#utility.yul\":3406:4377   */\n      swap3\n      swap6\n      pop\n      swap3\n      swap6\n      swap1\n      swap4\n      pop\n      jump\t// out\n        /* \"#utility.yul\":4383:4552   */\n    tag_182:\n        /* \"#utility.yul\":4467:4478   */\n      0x00\n        /* \"#utility.yul\":4501:4507   */\n      dup3\n        /* \"#utility.yul\":4496:4499   */\n      dup3\n        /* \"#utility.yul\":4489:4508   */\n      mstore\n        /* \"#utility.yul\":4541:4545   */\n      0x20\n        /* \"#utility.yul\":4536:4539   */\n      dup3\n        /* \"#utility.yul\":4532:4546   */\n      add\n        /* \"#utility.yul\":4517:4546   */\n      swap1\n      pop\n        /* \"#utility.yul\":4383:4552   */\n      swap3\n      swap2\n      pop\n      pop\n      jump\t// out\n        /* \"#utility.yul\":4558:4727   */\n    tag_183:\n        /* \"#utility.yul\":4698:4719   */\n      0x4e6f2061637469766520696e737572616e636500000000000000000000000000\n        /* \"#utility.yul\":4694:4695   */\n      0x00\n        /* \"#utility.yul\":4686:4692   */\n      dup3\n        /* \"#utility.yul\":4682:4696   */\n      add\n        /* \"#utility.yul\":4675:4720   */\n      mstore\n        /* \"#utility.yul\":4558:4727   */\n      pop\n      jump\t// out\n        /* \"#utility.yul\":4733:5099   */\n    tag_184:\n        /* \"#utility.yul\":4875:4878   */\n      0x00\n        /* \"#utility.yul\":4896:4963   */\n      tag_260\n        /* \"#utility.yul\":4960:4962   */\n      0x13\n        /* \"#utility.yul\":4955:4958   */\n      dup4\n        /* \"#utility.yul\":4896:4963   */\n      tag_182\n      jump\t// in\n    tag_260:\n        /* \"#utility.yul\":4889:4963   */\n      swap2\n      pop\n        /* \"#utility.yul\":4972:5065   */\n      tag_261\n        /* \"#utility.yul\":5061:5064   */\n      dup3\n        /* \"#utility.yul\":4972:5065   */\n      tag_183\n      jump\t// in\n    tag_261:\n        /* \"#utility.yul\":5090:5092   */\n      0x20\n        /* \"#utility.yul\":5085:5088   */\n      dup3\n        /* \"#utility.yul\":5081:5093   */\n      add\n        /* \"#utility.yul\":5074:5093   */\n      swap1\n      pop\n        /* \"#utility.yul\":4733:5099   */\n      swap2\n      swap1\n      pop\n      jump\t// out\n        /* \"#utility.yul\":5105:5524   */\n    tag_95:\n        /* \"#utility.yul\":5271:5275   */\n      0x00\n        /* \"#utility.yul\":5309:5311   */\n      0x20\n        /* \"#utility.yul\":5298:5307   */\n      dup3\n        /* \"#utility.yul\":5294:5312   */\n      add\n        /* \"#utility.yul\":5286:5312   */\n      swap1\n      pop\n        /* \"#utility.yul\":5358:5367   */\n      dup2\n        /* \"#utility.yul\":5352:5356   */\n      dup2\n        /* \"#utility.yul\":5348:5368   */\n      sub\n        /* \"#utility.yul\":5344:5345   */\n      0x00\n        /* \"#utility.yul\":5333:5342   */\n      dup4\n        /* \"#utility.yul\":5329:5346   */\n      add\n        /* \"#utility.yul\":5322:5369   */\n      mstore\n        /* \"#utility.yul\":5386:5517   */\n      tag_263\n        /* \"#utility.yul\":5512:5516   */\n      dup2\n        /* \"#utility.yul\":5386:5517   */\n      tag_184\n      jump\t// in\n    tag_263:\n        /* \"#utility.yul\":5378:5517   */\n      swap1\n      pop\n        /* \"#utility.yul\":5105:5524   */\n      swap2\n      swap1\n      pop\n      jump\t// out\n        /* \"#utility.yul\":5530:5710   */\n    tag_185:\n        /* \"#utility.yul\":5578:5655   */\n      0x4e487b7100000000000000000000000000000000000000000000000000000000\n        /* \"#utility.yul\":5575:5576   */\n      0x00\n        /* \"#utility.yul\":5568:5656   */\n      mstore\n        /* \"#utility.yul\":5675:5679   */\n      0x11\n        /* \"#utility.yul\":5672:5673   */\n      0x04\n        /* \"#utility.yul\":5665:5680   */\n      mstore\n        /* \"#utility.yul\":5699:5703   */\n      0x24\n        /* \"#utility.yul\":5696:5697   */\n      0x00\n        /* \"#utility.yul\":5689:5704   */\n      revert\n        /* \"#utility.yul\":5716:5907   */\n    tag_97:\n        /* \"#utility.yul\":5756:5759   */\n      0x00\n        /* \"#utility.yul\":5775:5795   */\n      tag_266\n        /* \"#utility.yul\":5793:5794   */\n      dup3\n        /* \"#utility.yul\":5775:5795   */\n      tag_162\n      jump\t// in\n    tag_266:\n        /* \"#utility.yul\":5770:5795   */\n      swap2\n      pop\n        /* \"#utility.yul\":5809:5829   */\n      tag_267\n        /* \"#utility.yul\":5827:5828   */\n      dup4\n        /* \"#utility.yul\":5809:5829   */\n      tag_162\n      jump\t// in\n    tag_267:\n        /* \"#utility.yul\":5804:5829   */\n      swap3\n      pop\n        /* \"#utility.yul\":5852:5853   */\n      dup3\n        /* \"#utility.yul\":5849:5850   */\n      dup3\n        /* \"#utility.yul\":5845:5854   */\n      add\n        /* \"#utility.yul\":5838:5854   */\n      swap1\n      pop\n        /* \"#utility.yul\":5873:5876   */\n      dup1\n        /* \"#utility.yul\":5870:5871   */\n      dup3\n        /* \"#utility.yul\":5867:5877   */\n      gt\n        /* \"#utility.yul\":5864:5900   */\n      iszero\n      tag_268\n      jumpi\n        /* \"#utility.yul\":5880:5898   */\n      tag_269\n      tag_185\n      jump\t// in\n    tag_269:\n        /* \"#utility.yul\":5864:5900   */\n    tag_268:\n        /* \"#utility.yul\":5716:5907   */\n      swap3\n      swap2\n      pop\n      pop\n      jump\t// out\n        /* \"#utility.yul\":5913:6091   */\n    tag_186:\n        /* \"#utility.yul\":6053:6083   */\n      0x4d757374207761697420323468206265747765656e20636c61696d7300000000\n        /* \"#utility.yul\":6049:6050   */\n      0x00\n        /* \"#utility.yul\":6041:6047   */\n      dup3\n        /* \"#utility.yul\":6037:6051   */\n      add\n        /* \"#utility.yul\":6030:6084   */\n      mstore\n        /* \"#utility.yul\":5913:6091   */\n      pop\n      jump\t// out\n        /* \"#utility.yul\":6097:6463   */\n    tag_187:\n        /* \"#utility.yul\":6239:6242   */\n      0x00\n        /* \"#utility.yul\":6260:6327   */\n      tag_272\n        /* \"#utility.yul\":6324:6326   */\n      0x1c\n        /* \"#utility.yul\":6319:6322   */\n      dup4\n        /* \"#utility.yul\":6260:6327   */\n      tag_182\n      jump\t// in\n    tag_272:\n        /* \"#utility.yul\":6253:6327   */\n      swap2\n      pop\n        /* \"#utility.yul\":6336:6429   */\n      tag_273\n        /* \"#utility.yul\":6425:6428   */\n      dup3\n        /* \"#utility.yul\":6336:6429   */\n      tag_186\n      jump\t// in\n    tag_273:\n        /* \"#utility.yul\":6454:6456   */\n      0x20\n        /* \"#utility.yul\":6449:6452   */\n      dup3\n        /* \"#utility.yul\":6445:6457   */\n      add\n        /* \"#utility.yul\":6438:6457   */\n      swap1\n      pop\n        /* \"#utility.yul\":6097:6463   */\n      swap2\n      swap1\n      pop\n      jump\t// out\n        /* \"#utility.yul\":6469:6888   */\n    tag_100:\n        /* \"#utility.yul\":6635:6639   */\n      0x00\n        /* \"#utility.yul\":6673:6675   */\n      0x20\n        /* \"#utility.yul\":6662:6671   */\n      dup3\n        /* \"#utility.yul\":6658:6676   */\n      add\n        /* \"#utility.yul\":6650:6676   */\n      swap1\n      pop\n        /* \"#utility.yul\":6722:6731   */\n      dup2\n        /* \"#utility.yul\":6716:6720   */\n      dup2\n        /* \"#utility.yul\":6712:6732   */\n      sub\n        /* \"#utility.yul\":6708:6709   */\n      0x00\n        /* \"#utility.yul\":6697:6706   */\n      dup4\n        /* \"#utility.yul\":6693:6710   */\n      add\n        /* \"#utility.yul\":6686:6733   */\n      mstore\n        /* \"#utility.yul\":6750:6881   */\n      tag_275\n        /* \"#utility.yul\":6876:6880   */\n      dup2\n        /* \"#utility.yul\":6750:6881   */\n      tag_187\n      jump\t// in\n    tag_275:\n        /* \"#utility.yul\":6742:6881   */\n      swap1\n      pop\n        /* \"#utility.yul\":6469:6888   */\n      swap2\n      swap1\n      pop\n      jump\t// out\n        /* \"#utility.yul\":6894:7062   */\n    tag_188:\n        /* \"#utility.yul\":7034:7054   */\n      0x526f756e64206e6f7420636f6d706c6574650000000000000000000000000000\n        /* \"#utility.yul\":7030:7031   */\n      0x00\n        /* \"#utility.yul\":7022:7028   */\n      dup3\n        /* \"#utility.yul\":7018:7032   */\n      add\n        /* \"#utility.yul\":7011:7055   */\n      mstore\n        /* \"#utility.yul\":6894:7062   */\n      pop\n      jump\t// out\n        /* \"#utility.yul\":7068:7434   */\n    tag_189:\n        /* \"#utility.yul\":7210:7213   */\n      0x00\n        /* \"#utility.yul\":7231:7298   */\n      tag_278\n        /* \"#utility.yul\":7295:7297   */\n      0x12\n        /* \"#utility.yul\":7290:7293   */\n      dup4\n        /* \"#utility.yul\":7231:7298   */\n      tag_182\n      jump\t// in\n    tag_278:\n        /* \"#utility.yul\":7224:7298   */\n      swap2\n      pop\n        /* \"#utility.yul\":7307:7400   */\n      tag_279\n        /* \"#utility.yul\":7396:7399   */\n      dup3\n        /* \"#utility.yul\":7307:7400   */\n      tag_188\n      jump\t// in\n    tag_279:\n        /* \"#utility.yul\":7425:7427   */\n      0x20\n        /* \"#utility.yul\":7420:7423   */\n      dup3\n        /* \"#utility.yul\":7416:7428   */\n      add\n        /* \"#utility.yul\":7409:7428   */\n      swap1\n      pop\n        /* \"#utility.yul\":7068:7434   */\n      swap2\n      swap1\n      pop\n      jump\t// out\n        /* \"#utility.yul\":7440:7859   */\n    tag_106:\n        /* \"#utility.yul\":7606:7610   */\n      0x00\n        /* \"#utility.yul\":7644:7646   */\n      0x20\n        /* \"#utility.yul\":7633:7642   */\n      dup3\n        /* \"#utility.yul\":7629:7647   */\n      add\n        /* \"#utility.yul\":7621:7647   */\n      swap1\n      pop\n        /* \"#utility.yul\":7693:7702   */\n      dup2\n        /* \"#utility.yul\":7687:7691   */\n      dup2\n        /* \"#utility.yul\":7683:7703   */\n      sub\n        /* \"#utility.yul\":7679:7680   */\n      0x00\n        /* \"#utility.yul\":7668:7677   */\n      dup4\n        /* \"#utility.yul\":7664:7681   */\n      add\n        /* \"#utility.yul\":7657:7704   */\n      mstore\n        /* \"#utility.yul\":7721:7852   */\n      tag_281\n        /* \"#utility.yul\":7847:7851   */\n      dup2\n        /* \"#utility.yul\":7721:7852   */\n      tag_189\n      jump\t// in\n    tag_281:\n        /* \"#utility.yul\":7713:7852   */\n      swap1\n      pop\n        /* \"#utility.yul\":7440:7859   */\n      swap2\n      swap1\n      pop\n      jump\t// out\n        /* \"#utility.yul\":7865:8025   */\n    tag_190:\n        /* \"#utility.yul\":8005:8017   */\n      0x5374616c65206461746100000000000000000000000000000000000000000000\n        /* \"#utility.yul\":8001:8002   */\n      0x00\n        /* \"#utility.yul\":7993:7999   */\n      dup3\n        /* \"#utility.yul\":7989:8003   */\n      add\n        /* \"#utility.yul\":7982:8018   */\n      mstore\n        /* \"#utility.yul\":7865:8025   */\n      pop\n      jump\t// out\n        /* \"#utility.yul\":8031:8397   */\n    tag_191:\n        /* \"#utility.yul\":8173:8176   */\n      0x00\n        /* \"#utility.yul\":8194:8261   */\n      tag_284\n        /* \"#utility.yul\":8258:8260   */\n      0x0a\n        /* \"#utility.yul\":8253:8256   */\n      dup4\n        /* \"#utility.yul\":8194:8261   */\n      tag_182\n      jump\t// in\n    tag_284:\n        /* \"#utility.yul\":8187:8261   */\n      swap2\n      pop\n        /* \"#utility.yul\":8270:8363   */\n      tag_285\n        /* \"#utility.yul\":8359:8362   */\n      dup3\n        /* \"#utility.yul\":8270:8363   */\n      tag_190\n      jump\t// in\n    tag_285:\n        /* \"#utility.yul\":8388:8390   */\n      0x20\n        /* \"#utility.yul\":8383:8386   */\n      dup3\n        /* \"#utility.yul\":8379:8391   */\n      add\n        /* \"#utility.yul\":8372:8391   */\n      swap1\n      pop\n        /* \"#utility.yul\":8031:8397   */\n      swap2\n      swap1\n      pop\n      jump\t// out\n        /* \"#utility.yul\":8403:8822   */\n    tag_109:\n        /* \"#utility.yul\":8569:8573   */\n      0x00\n        /* \"#utility.yul\":8607:8609   */\n      0x20\n        /* \"#utility.yul\":8596:8605   */\n      dup3\n        /* \"#utility.yul\":8592:8610   */\n      add\n        /* \"#utility.yul\":8584:8610   */\n      swap1\n      pop\n        /* \"#utility.yul\":8656:8665   */\n      dup2\n        /* \"#utility.yul\":8650:8654   */\n      dup2\n        /* \"#utility.yul\":8646:8666   */\n      sub\n        /* \"#utility.yul\":8642:8643   */\n      0x00\n        /* \"#utility.yul\":8631:8640   */\n      dup4\n        /* \"#utility.yul\":8627:8644   */\n      add\n        /* \"#utility.yul\":8620:8667   */\n      mstore\n        /* \"#utility.yul\":8684:8815   */\n      tag_287\n        /* \"#utility.yul\":8810:8814   */\n      dup2\n        /* \"#utility.yul\":8684:8815   */\n      tag_191\n      jump\t// in\n    tag_287:\n        /* \"#utility.yul\":8676:8815   */\n      swap1\n      pop\n        /* \"#utility.yul\":8403:8822   */\n      swap2\n      swap1\n      pop\n      jump\t// out\n        /* \"#utility.yul\":8828:9238   */\n    tag_114:\n        /* \"#utility.yul\":8868:8875   */\n      0x00\n        /* \"#utility.yul\":8891:8911   */\n      tag_289\n        /* \"#utility.yul\":8909:8910   */\n      dup3\n        /* \"#utility.yul\":8891:8911   */\n      tag_162\n      jump\t// in\n    tag_289:\n        /* \"#utility.yul\":8886:8911   */\n      swap2\n      pop\n        /* \"#utility.yul\":8925:8945   */\n      tag_290\n        /* \"#utility.yul\":8943:8944   */\n      dup4\n        /* \"#utility.yul\":8925:8945   */\n      tag_162\n      jump\t// in\n    tag_290:\n        /* \"#utility.yul\":8920:8945   */\n      swap3\n      pop\n        /* \"#utility.yul\":8980:8981   */\n      dup3\n        /* \"#utility.yul\":8977:8978   */\n      dup3\n        /* \"#utility.yul\":8973:8982   */\n      mul\n        /* \"#utility.yul\":9002:9032   */\n      tag_291\n        /* \"#utility.yul\":9020:9031   */\n      dup2\n        /* \"#utility.yul\":9002:9032   */\n      tag_162\n      jump\t// in\n    tag_291:\n        /* \"#utility.yul\":8991:9032   */\n      swap2\n      pop\n        /* \"#utility.yul\":9181:9182   */\n      dup3\n        /* \"#utility.yul\":9172:9179   */\n      dup3\n        /* \"#utility.yul\":9168:9183   */\n      div\n        /* \"#utility.yul\":9165:9166   */\n      dup5\n        /* \"#utility.yul\":9162:9184   */\n      eq\n        /* \"#utility.yul\":9142:9143   */\n      dup4\n        /* \"#utility.yul\":9135:9144   */\n      iszero\n        /* \"#utility.yul\":9115:9198   */\n      or\n        /* \"#utility.yul\":9092:9231   */\n      tag_292\n      jumpi\n        /* \"#utility.yul\":9211:9229   */\n      tag_293\n      tag_185\n      jump\t// in\n    tag_293:\n        /* \"#utility.yul\":9092:9231   */\n    tag_292:\n        /* \"#utility.yul\":8876:9238   */\n      pop\n        /* \"#utility.yul\":8828:9238   */\n      swap3\n      swap2\n      pop\n      pop\n      jump\t// out\n        /* \"#utility.yul\":9244:9424   */\n    tag_192:\n        /* \"#utility.yul\":9292:9369   */\n      0x4e487b7100000000000000000000000000000000000000000000000000000000\n        /* \"#utility.yul\":9289:9290   */\n      0x00\n        /* \"#utility.yul\":9282:9370   */\n      mstore\n        /* \"#utility.yul\":9389:9393   */\n      0x12\n        /* \"#utility.yul\":9386:9387   */\n      0x04\n        /* \"#utility.yul\":9379:9394   */\n      mstore\n        /* \"#utility.yul\":9413:9417   */\n      0x24\n        /* \"#utility.yul\":9410:9411   */\n      0x00\n        /* \"#utility.yul\":9403:9418   */\n      revert\n        /* \"#utility.yul\":9430:9615   */\n    tag_116:\n        /* \"#utility.yul\":9470:9471   */\n      0x00\n        /* \"#utility.yul\":9487:9507   */\n      tag_296\n        /* \"#utility.yul\":9505:9506   */\n      dup3\n        /* \"#utility.yul\":9487:9507   */\n      tag_162\n      jump\t// in\n    tag_296:\n        /* \"#utility.yul\":9482:9507   */\n      swap2\n      pop\n        /* \"#utility.yul\":9521:9541   */\n      tag_297\n        /* \"#utility.yul\":9539:9540   */\n      dup4\n        /* \"#utility.yul\":9521:9541   */\n      tag_162\n      jump\t// in\n    tag_297:\n        /* \"#utility.yul\":9516:9541   */\n      swap3\n      pop\n        /* \"#utility.yul\":9560:9561   */\n      dup3\n        /* \"#utility.yul\":9550:9585   */\n      tag_298\n      jumpi\n        /* \"#utility.yul\":9565:9583   */\n      tag_299\n      tag_192\n      jump\t// in\n    tag_299:\n        /* \"#utility.yul\":9550:9585   */\n    tag_298:\n        /* \"#utility.yul\":9607:9608   */\n      dup3\n        /* \"#utility.yul\":9604:9605   */\n      dup3\n        /* \"#utility.yul\":9600:9609   */\n      div\n        /* \"#utility.yul\":9595:9609   */\n      swap1\n      pop\n        /* \"#utility.yul\":9430:9615   */\n      swap3\n      swap2\n      pop\n      pop\n      jump\t// out\n        /* \"#utility.yul\":9621:9768   */\n    tag_193:\n        /* \"#utility.yul\":9722:9733   */\n      0x00\n        /* \"#utility.yul\":9759:9762   */\n      dup2\n        /* \"#utility.yul\":9744:9762   */\n      swap1\n      pop\n        /* \"#utility.yul\":9621:9768   */\n      swap3\n      swap2\n      pop\n      pop\n      jump\t// out\n        /* \"#utility.yul\":9774:9888   */\n    tag_194:\n      pop\n      jump\t// out\n        /* \"#utility.yul\":9894:10292   */\n    tag_195:\n        /* \"#utility.yul\":10053:10056   */\n      0x00\n        /* \"#utility.yul\":10074:10157   */\n      tag_303\n        /* \"#utility.yul\":10155:10156   */\n      0x00\n        /* \"#utility.yul\":10150:10153   */\n      dup4\n        /* \"#utility.yul\":10074:10157   */\n      tag_193\n      jump\t// in\n    tag_303:\n        /* \"#utility.yul\":10067:10157   */\n      swap2\n      pop\n        /* \"#utility.yul\":10166:10259   */\n      tag_304\n        /* \"#utility.yul\":10255:10258   */\n      dup3\n        /* \"#utility.yul\":10166:10259   */\n      tag_194\n      jump\t// in\n    tag_304:\n        /* \"#utility.yul\":10284:10285   */\n      0x00\n        /* \"#utility.yul\":10279:10282   */\n      dup3\n        /* \"#utility.yul\":10275:10286   */\n      add\n        /* \"#utility.yul\":10268:10286   */\n      swap1\n      pop\n        /* \"#utility.yul\":9894:10292   */\n      swap2\n      swap1\n      pop\n      jump\t// out\n        /* \"#utility.yul\":10298:10677   */\n    tag_118:\n        /* \"#utility.yul\":10482:10485   */\n      0x00\n        /* \"#utility.yul\":10504:10651   */\n      tag_306\n        /* \"#utility.yul\":10647:10650   */\n      dup3\n        /* \"#utility.yul\":10504:10651   */\n      tag_195\n      jump\t// in\n    tag_306:\n        /* \"#utility.yul\":10497:10651   */\n      swap2\n      pop\n        /* \"#utility.yul\":10668:10671   */\n      dup2\n        /* \"#utility.yul\":10661:10671   */\n      swap1\n      pop\n        /* \"#utility.yul\":10298:10677   */\n      swap2\n      swap1\n      pop\n      jump\t// out\n        /* \"#utility.yul\":10683:10848   */\n    tag_196:\n        /* \"#utility.yul\":10823:10840   */\n      0x5472616e73666572206661696c65640000000000000000000000000000000000\n        /* \"#utility.yul\":10819:10820   */\n      0x00\n        /* \"#utility.yul\":10811:10817   */\n      dup3\n        /* \"#utility.yul\":10807:10821   */\n      add\n        /* \"#utility.yul\":10800:10841   */\n      mstore\n        /* \"#utility.yul\":10683:10848   */\n      pop\n      jump\t// out\n        /* \"#utility.yul\":10854:11220   */\n    tag_197:\n        /* \"#utility.yul\":10996:10999   */\n      0x00\n        /* \"#utility.yul\":11017:11084   */\n      tag_309\n        /* \"#utility.yul\":11081:11083   */\n      0x0f\n        /* \"#utility.yul\":11076:11079   */\n      dup4\n        /* \"#utility.yul\":11017:11084   */\n      tag_182\n      jump\t// in\n    tag_309:\n        /* \"#utility.yul\":11010:11084   */\n      swap2\n      pop\n        /* \"#utility.yul\":11093:11186   */\n      tag_310\n        /* \"#utility.yul\":11182:11185   */\n      dup3\n        /* \"#utility.yul\":11093:11186   */\n      tag_196\n      jump\t// in\n    tag_310:\n        /* \"#utility.yul\":11211:11213   */\n      0x20\n        /* \"#utility.yul\":11206:11209   */\n      dup3\n        /* \"#utility.yul\":11202:11214   */\n      add\n        /* \"#utility.yul\":11195:11214   */\n      swap1\n      pop\n        /* \"#utility.yul\":10854:11220   */\n      swap2\n      swap1\n      pop\n      jump\t// out\n        /* \"#utility.yul\":11226:11645   */\n    tag_124:\n        /* \"#utility.yul\":11392:11396   */\n      0x00\n        /* \"#utility.yul\":11430:11432   */\n      0x20\n        /* \"#utility.yul\":11419:11428   */\n      dup3\n        /* \"#utility.yul\":11415:11433   */\n      add\n        /* \"#utility.yul\":11407:11433   */\n      swap1\n      pop\n        /* \"#utility.yul\":11479:11488   */\n      dup2\n        /* \"#utility.yul\":11473:11477   */\n      dup2\n        /* \"#utility.yul\":11469:11489   */\n      sub\n        /* \"#utility.yul\":11465:11466   */\n      0x00\n        /* \"#utility.yul\":11454:11463   */\n      dup4\n        /* \"#utility.yul\":11450:11467   */\n      add\n        /* \"#utility.yul\":11443:11490   */\n      mstore\n        /* \"#utility.yul\":11507:11638   */\n      tag_312\n        /* \"#utility.yul\":11633:11637   */\n      dup2\n        /* \"#utility.yul\":11507:11638   */\n      tag_197\n      jump\t// in\n    tag_312:\n        /* \"#utility.yul\":11499:11638   */\n      swap1\n      pop\n        /* \"#utility.yul\":11226:11645   */\n      swap2\n      swap1\n      pop\n      jump\t// out\n        /* \"#utility.yul\":11651:11828   */\n    tag_198:\n        /* \"#utility.yul\":11791:11820   */\n      0x496e73756666696369656e74207072656d69756d20616d6f756e740000000000\n        /* \"#utility.yul\":11787:11788   */\n      0x00\n        /* \"#utility.yul\":11779:11785   */\n      dup3\n        /* \"#utility.yul\":11775:11789   */\n      add\n        /* \"#utility.yul\":11768:11821   */\n      mstore\n        /* \"#utility.yul\":11651:11828   */\n      pop\n      jump\t// out\n        /* \"#utility.yul\":11834:12200   */\n    tag_199:\n        /* \"#utility.yul\":11976:11979   */\n      0x00\n        /* \"#utility.yul\":11997:12064   */\n      tag_315\n        /* \"#utility.yul\":12061:12063   */\n      0x1b\n        /* \"#utility.yul\":12056:12059   */\n      dup4\n        /* \"#utility.yul\":11997:12064   */\n      tag_182\n      jump\t// in\n    tag_315:\n        /* \"#utility.yul\":11990:12064   */\n      swap2\n      pop\n        /* \"#utility.yul\":12073:12166   */\n      tag_316\n        /* \"#utility.yul\":12162:12165   */\n      dup3\n        /* \"#utility.yul\":12073:12166   */\n      tag_198\n      jump\t// in\n    tag_316:\n        /* \"#utility.yul\":12191:12193   */\n      0x20\n        /* \"#utility.yul\":12186:12189   */\n      dup3\n        /* \"#utility.yul\":12182:12194   */\n      add\n        /* \"#utility.yul\":12175:12194   */\n      swap1\n      pop\n        /* \"#utility.yul\":11834:12200   */\n      swap2\n      swap1\n      pop\n      jump\t// out\n        /* \"#utility.yul\":12206:12625   */\n    tag_142:\n        /* \"#utility.yul\":12372:12376   */\n      0x00\n        /* \"#utility.yul\":12410:12412   */\n      0x20\n        /* \"#utility.yul\":12399:12408   */\n      dup3\n        /* \"#utility.yul\":12395:12413   */\n      add\n        /* \"#utility.yul\":12387:12413   */\n      swap1\n      pop\n        /* \"#utility.yul\":12459:12468   */\n      dup2\n        /* \"#utility.yul\":12453:12457   */\n      dup2\n        /* \"#utility.yul\":12449:12469   */\n      sub\n        /* \"#utility.yul\":12445:12446   */\n      0x00\n        /* \"#utility.yul\":12434:12443   */\n      dup4\n        /* \"#utility.yul\":12430:12447   */\n      add\n        /* \"#utility.yul\":12423:12470   */\n      mstore\n        /* \"#utility.yul\":12487:12618   */\n      tag_318\n        /* \"#utility.yul\":12613:12617   */\n      dup2\n        /* \"#utility.yul\":12487:12618   */\n      tag_199\n      jump\t// in\n    tag_318:\n        /* \"#utility.yul\":12479:12618   */\n      swap1\n      pop\n        /* \"#utility.yul\":12206:12625   */\n      swap2\n      swap1\n      pop\n      jump\t// out\n        /* \"#utility.yul\":12631:12796   */\n    tag_200:\n        /* \"#utility.yul\":12771:12788   */\n      0x416c726561647920696e73757265640000000000000000000000000000000000\n        /* \"#utility.yul\":12767:12768   */\n      0x00\n        /* \"#utility.yul\":12759:12765   */\n      dup3\n        /* \"#utility.yul\":12755:12769   */\n      add\n        /* \"#utility.yul\":12748:12789   */\n      mstore\n        /* \"#utility.yul\":12631:12796   */\n      pop\n      jump\t// out\n        /* \"#utility.yul\":12802:13168   */\n    tag_201:\n        /* \"#utility.yul\":12944:12947   */\n      0x00\n        /* \"#utility.yul\":12965:13032   */\n      tag_321\n        /* \"#utility.yul\":13029:13031   */\n      0x0f\n        /* \"#utility.yul\":13024:13027   */\n      dup4\n        /* \"#utility.yul\":12965:13032   */\n      tag_182\n      jump\t// in\n    tag_321:\n        /* \"#utility.yul\":12958:13032   */\n      swap2\n      pop\n        /* \"#utility.yul\":13041:13134   */\n      tag_322\n        /* \"#utility.yul\":13130:13133   */\n      dup3\n        /* \"#utility.yul\":13041:13134   */\n      tag_200\n      jump\t// in\n    tag_322:\n        /* \"#utility.yul\":13159:13161   */\n      0x20\n        /* \"#utility.yul\":13154:13157   */\n      dup3\n        /* \"#utility.yul\":13150:13162   */\n      add\n        /* \"#utility.yul\":13143:13162   */\n      swap1\n      pop\n        /* \"#utility.yul\":12802:13168   */\n      swap2\n      swap1\n      pop\n      jump\t// out\n        /* \"#utility.yul\":13174:13593   */\n    tag_145:\n        /* \"#utility.yul\":13340:13344   */\n      0x00\n        /* \"#utility.yul\":13378:13380   */\n      0x20\n        /* \"#utility.yul\":13367:13376   */\n      dup3\n        /* \"#utility.yul\":13363:13381   */\n      add\n        /* \"#utility.yul\":13355:13381   */\n      swap1\n      pop\n        /* \"#utility.yul\":13427:13436   */\n      dup2\n        /* \"#utility.yul\":13421:13425   */\n      dup2\n        /* \"#utility.yul\":13417:13437   */\n      sub\n        /* \"#utility.yul\":13413:13414   */\n      0x00\n        /* \"#utility.yul\":13402:13411   */\n      dup4\n        /* \"#utility.yul\":13398:13415   */\n      add\n        /* \"#utility.yul\":13391:13438   */\n      mstore\n        /* \"#utility.yul\":13455:13586   */\n      tag_324\n        /* \"#utility.yul\":13581:13585   */\n      dup2\n        /* \"#utility.yul\":13455:13586   */\n      tag_201\n      jump\t// in\n    tag_324:\n        /* \"#utility.yul\":13447:13586   */\n      swap1\n      pop\n        /* \"#utility.yul\":13174:13593   */\n      swap2\n      swap1\n      pop\n      jump\t// out\n\n    auxdata: 0xa264697066735822122045beed6090df1dff5cc3df3bf4a167a630c5a62bdd288379065735c12070649764736f6c634300081e0033\n}\n",
				"bytecode": {
					"linkReferences": {},
					"object": "60806040526040516116273803806116278339818101604052810190610025919061024c565b335f73ffffffffffffffffffffffffffffffffffffffff168173ffffffffffffffffffffffffffffffffffffffff1603610096575f6040517f1e4fbdf700000000000000000000000000000000000000000000000000000000815260040161008d9190610299565b60405180910390fd5b6100a58161012d60201b60201c565b508160015f6101000a81548173ffffffffffffffffffffffffffffffffffffffff021916908373ffffffffffffffffffffffffffffffffffffffff1602179055508060025f6101000a81548173ffffffffffffffffffffffffffffffffffffffff021916908373ffffffffffffffffffffffffffffffffffffffff16021790555050506102b2565b5f5f5f9054906101000a900473ffffffffffffffffffffffffffffffffffffffff169050815f5f6101000a81548173ffffffffffffffffffffffffffffffffffffffff021916908373ffffffffffffffffffffffffffffffffffffffff1602179055508173ffffffffffffffffffffffffffffffffffffffff168173ffffffffffffffffffffffffffffffffffffffff167f8be0079c531659141344cd1fd0a4f28419497f9722a3daafe3b4186f6b6457e060405160405180910390a35050565b5f5ffd5b5f73ffffffffffffffffffffffffffffffffffffffff82169050919050565b5f61021b826101f2565b9050919050565b61022b81610211565b8114610235575f5ffd5b50565b5f8151905061024681610222565b92915050565b5f5f60408385031215610262576102616101ee565b5b5f61026f85828601610238565b925050602061028085828601610238565b9150509250929050565b61029381610211565b82525050565b5f6020820190506102ac5f83018461028a565b92915050565b611368806102bf5f395ff3fe6080604052600436106100e0575f3560e01c80637c77e15c1161007e578063bd9d518b11610058578063bd9d518b14610265578063c5f60e82146102a1578063edb8fb44146102cb578063f2fde38b146102d5576100e7565b80637c77e15c146101d55780638cd42316146101ff5780638da5cb5b1461023b576100e7565b80633ccfd60b116100ba5780633ccfd60b1461016957806360550d7a1461017f57806367c9b01714610195578063715018a6146101bf576100e7565b80630c15c365146100eb57806312065fe01461011557806316731b241461013f576100e7565b366100e757005b5f5ffd5b3480156100f6575f5ffd5b506100ff6102fd565b60405161010c9190610cfb565b60405180910390f35b348015610120575f5ffd5b5061012961039a565b6040516101369190610cfb565b60405180910390f35b34801561014a575f5ffd5b506101536103a1565b6040516101609190610cfb565b60405180910390f35b348015610174575f5ffd5b5061017d6103a6565b005b34801561018a575f5ffd5b506101936103fb565b005b3480156101a0575f5ffd5b506101a961085a565b6040516101b69190610cfb565b60405180910390f35b3480156101ca575f5ffd5b506101d36108f7565b005b3480156101e0575f5ffd5b506101e961090a565b6040516101f69190610cfb565b60405180910390f35b34801561020a575f5ffd5b5061022560048036038101906102209190610d72565b61090f565b6040516102329190610db7565b60405180910390f35b348015610246575f5ffd5b5061024f61092c565b60405161025c9190610ddf565b60405180910390f35b348015610270575f5ffd5b5061028b60048036038101906102869190610d72565b610953565b6040516102989190610cfb565b60405180910390f35b3480156102ac575f5ffd5b506102b5610968565b6040516102c29190610cfb565b60405180910390f35b6102d361096e565b005b3480156102e0575f5ffd5b506102fb60048036038101906102f69190610d72565b610b10565b005b5f5f60015f9054906101000a900473ffffffffffffffffffffffffffffffffffffffff1673ffffffffffffffffffffffffffffffffffffffff1663feaf968c6040518163ffffffff1660e01b815260040160a060405180830381865afa158015610369573d5f5f3e3d5ffd5b505050506040513d601f19601f8201168201806040525081019061038d9190610e94565b5050509150508091505090565b5f47905090565b600a81565b6103ae610b94565b6103b661092c565b73ffffffffffffffffffffffffffffffffffffffff166108fc4790811502906040515f60405180830381858888f193505050501580156103f8573d5f5f3e3d5ffd5b50565b60035f3373ffffffffffffffffffffffffffffffffffffffff1673ffffffffffffffffffffffffffffffffffffffff1681526020019081526020015f205f9054906101000a900460ff16610484576040517f08c379a000000000000000000000000000000000000000000000000000000000815260040161047b90610f65565b60405180910390fd5b6201518060045f3373ffffffffffffffffffffffffffffffffffffffff1673ffffffffffffffffffffffffffffffffffffffff1681526020019081526020015f20546104d09190610fb0565b421015610512576040517f08c379a00000000000000000000000000000000000000000000000000000000081526004016105099061102d565b60405180910390fd5b5f5f5f5f60015f9054906101000a900473ffffffffffffffffffffffffffffffffffffffff1673ffffffffffffffffffffffffffffffffffffffff1663feaf968c6040518163ffffffff1660e01b815260040160a060405180830381865afa158015610580573d5f5f3e3d5ffd5b505050506040513d601f19601f820116820180604052508101906105a49190610e94565b9450945050935093505f82116105ef576040517f08c379a00000000000000000000000000000000000000000000000000000000081526004016105e690611095565b60405180910390fd5b8369ffffffffffffffffffff168169ffffffffffffffffffff16101561064a576040517f08c379a0000000000000000000000000000000000000000000000000000000008152600401610641906110fd565b60405180910390fd5b5f8390503373ffffffffffffffffffffffffffffffffffffffff167fb7ca7d3cb9a65735003fab623dde34f69b35faa87df2abb0027e416636da03f0826040516106949190610cfb565b60405180910390a26101f4811015610853574260045f3373ffffffffffffffffffffffffffffffffffffffff1673ffffffffffffffffffffffffffffffffffffffff1681526020019081526020015f20819055503373ffffffffffffffffffffffffffffffffffffffff167f2ab6bfd31d4179c9c028fbfabc158037d35b199e61cc811862f484a9ed0706a160405160405180910390a25f61073461085a565b90505f81670de0b6b3a7640000603261074d919061111b565b6107579190611189565b90505f3373ffffffffffffffffffffffffffffffffffffffff168260405161077e906111e6565b5f6040518083038185875af1925050503d805f81146107b8576040519150601f19603f3d011682016040523d82523d5f602084013e6107bd565b606091505b5050905080610801576040517f08c379a00000000000000000000000000000000000000000000000000000000081526004016107f890611244565b60405180910390fd5b3373ffffffffffffffffffffffffffffffffffffffff167ff42cf8c29487b42c009006cba2a2a0ca0388229f3183e6e957e0a0b163585cb4836040516108479190610cfb565b60405180910390a25050505b5050505050565b5f5f60025f9054906101000a900473ffffffffffffffffffffffffffffffffffffffff1673ffffffffffffffffffffffffffffffffffffffff1663feaf968c6040518163ffffffff1660e01b815260040160a060405180830381865afa1580156108c6573d5f5f3e3d5ffd5b505050506040513d601f19601f820116820180604052508101906108ea9190610e94565b5050509150508091505090565b6108ff610b94565b6109085f610c1b565b565b603281565b6003602052805f5260405f205f915054906101000a900460ff1681565b5f5f5f9054906101000a900473ffffffffffffffffffffffffffffffffffffffff16905090565b6004602052805f5260405f205f915090505481565b6101f481565b5f61097761085a565b90505f81670de0b6b3a7640000600a610990919061111b565b61099a9190611189565b9050803410156109df576040517f08c379a00000000000000000000000000000000000000000000000000000000081526004016109d6906112ac565b60405180910390fd5b60035f3373ffffffffffffffffffffffffffffffffffffffff1673ffffffffffffffffffffffffffffffffffffffff1681526020019081526020015f205f9054906101000a900460ff1615610a69576040517f08c379a0000000000000000000000000000000000000000000000000000000008152600401610a6090611314565b60405180910390fd5b600160035f3373ffffffffffffffffffffffffffffffffffffffff1673ffffffffffffffffffffffffffffffffffffffff1681526020019081526020015f205f6101000a81548160ff0219169083151502179055503373ffffffffffffffffffffffffffffffffffffffff167f4b58308df033561e43d2c0227b19bea93ae78a05df784c985482b3fb7e15461034604051610b049190610cfb565b60405180910390a25050565b610b18610b94565b5f73ffffffffffffffffffffffffffffffffffffffff168173ffffffffffffffffffffffffffffffffffffffff1603610b88575f6040517f1e4fbdf7000000000000000000000000000000000000000000000000000000008152600401610b7f9190610ddf565b60405180910390fd5b610b9181610c1b565b50565b610b9c610cdc565b73ffffffffffffffffffffffffffffffffffffffff16610bba61092c565b73ffffffffffffffffffffffffffffffffffffffff1614610c1957610bdd610cdc565b6040517f118cdaa7000000000000000000000000000000000000000000000000000000008152600401610c109190610ddf565b60405180910390fd5b565b5f5f5f9054906101000a900473ffffffffffffffffffffffffffffffffffffffff169050815f5f6101000a81548173ffffffffffffffffffffffffffffffffffffffff021916908373ffffffffffffffffffffffffffffffffffffffff1602179055508173ffffffffffffffffffffffffffffffffffffffff168173ffffffffffffffffffffffffffffffffffffffff167f8be0079c531659141344cd1fd0a4f28419497f9722a3daafe3b4186f6b6457e060405160405180910390a35050565b5f33905090565b5f819050919050565b610cf581610ce3565b82525050565b5f602082019050610d0e5f830184610cec565b92915050565b5f5ffd5b5f73ffffffffffffffffffffffffffffffffffffffff82169050919050565b5f610d4182610d18565b9050919050565b610d5181610d37565b8114610d5b575f5ffd5b50565b5f81359050610d6c81610d48565b92915050565b5f60208284031215610d8757610d86610d14565b5b5f610d9484828501610d5e565b91505092915050565b5f8115159050919050565b610db181610d9d565b82525050565b5f602082019050610dca5f830184610da8565b92915050565b610dd981610d37565b82525050565b5f602082019050610df25f830184610dd0565b92915050565b5f69ffffffffffffffffffff82169050919050565b610e1681610df8565b8114610e20575f5ffd5b50565b5f81519050610e3181610e0d565b92915050565b5f819050919050565b610e4981610e37565b8114610e53575f5ffd5b50565b5f81519050610e6481610e40565b92915050565b610e7381610ce3565b8114610e7d575f5ffd5b50565b5f81519050610e8e81610e6a565b92915050565b5f5f5f5f5f60a08688031215610ead57610eac610d14565b5b5f610eba88828901610e23565b9550506020610ecb88828901610e56565b9450506040610edc88828901610e80565b9350506060610eed88828901610e80565b9250506080610efe88828901610e23565b9150509295509295909350565b5f82825260208201905092915050565b7f4e6f2061637469766520696e737572616e6365000000000000000000000000005f82015250565b5f610f4f601383610f0b565b9150610f5a82610f1b565b602082019050919050565b5f6020820190508181035f830152610f7c81610f43565b9050919050565b7f4e487b71000000000000000000000000000000000000000000000000000000005f52601160045260245ffd5b5f610fba82610ce3565b9150610fc583610ce3565b9250828201905080821115610fdd57610fdc610f83565b5b92915050565b7f4d757374207761697420323468206265747765656e20636c61696d73000000005f82015250565b5f611017601c83610f0b565b915061102282610fe3565b602082019050919050565b5f6020820190508181035f8301526110448161100b565b9050919050565b7f526f756e64206e6f7420636f6d706c65746500000000000000000000000000005f82015250565b5f61107f601283610f0b565b915061108a8261104b565b602082019050919050565b5f6020820190508181035f8301526110ac81611073565b9050919050565b7f5374616c652064617461000000000000000000000000000000000000000000005f82015250565b5f6110e7600a83610f0b565b91506110f2826110b3565b602082019050919050565b5f6020820190508181035f830152611114816110db565b9050919050565b5f61112582610ce3565b915061113083610ce3565b925082820261113e81610ce3565b9150828204841483151761115557611154610f83565b5b5092915050565b7f4e487b71000000000000000000000000000000000000000000000000000000005f52601260045260245ffd5b5f61119382610ce3565b915061119e83610ce3565b9250826111ae576111ad61115c565b5b828204905092915050565b5f81905092915050565b50565b5f6111d15f836111b9565b91506111dc826111c3565b5f82019050919050565b5f6111f0826111c6565b9150819050919050565b7f5472616e73666572206661696c656400000000000000000000000000000000005f82015250565b5f61122e600f83610f0b565b9150611239826111fa565b602082019050919050565b5f6020820190508181035f83015261125b81611222565b9050919050565b7f496e73756666696369656e74207072656d69756d20616d6f756e7400000000005f82015250565b5f611296601b83610f0b565b91506112a182611262565b602082019050919050565b5f6020820190508181035f8301526112c38161128a565b9050919050565b7f416c726561647920696e737572656400000000000000000000000000000000005f82015250565b5f6112fe600f83610f0b565b9150611309826112ca565b602082019050919050565b5f6020820190508181035f83015261132b816112f2565b905091905056fea264697066735822122045beed6090df1dff5cc3df3bf4a167a630c5a62bdd288379065735c12070649764736f6c634300081e0033",
					"opcodes": "PUSH1 0x80 PUSH1 0x40 MSTORE PUSH1 0x40 MLOAD PUSH2 0x1627 CODESIZE SUB DUP1 PUSH2 0x1627 DUP4 CODECOPY DUP2 DUP2 ADD PUSH1 0x40 MSTORE DUP2 ADD SWAP1 PUSH2 0x25 SWAP2 SWAP1 PUSH2 0x24C JUMP JUMPDEST CALLER PUSH0 PUSH20 0xFFFFFFFFFFFFFFFFFFFFFFFFFFFFFFFFFFFFFFFF AND DUP2 PUSH20 0xFFFFFFFFFFFFFFFFFFFFFFFFFFFFFFFFFFFFFFFF AND SUB PUSH2 0x96 JUMPI PUSH0 PUSH1 0x40 MLOAD PUSH32 0x1E4FBDF700000000000000000000000000000000000000000000000000000000 DUP2 MSTORE PUSH1 0x4 ADD PUSH2 0x8D SWAP2 SWAP1 PUSH2 0x299 JUMP JUMPDEST PUSH1 0x40 MLOAD DUP1 SWAP2 SUB SWAP1 REVERT JUMPDEST PUSH2 0xA5 DUP2 PUSH2 0x12D PUSH1 0x20 SHL PUSH1 0x20 SHR JUMP JUMPDEST POP DUP2 PUSH1 0x1 PUSH0 PUSH2 0x100 EXP DUP2 SLOAD DUP2 PUSH20 0xFFFFFFFFFFFFFFFFFFFFFFFFFFFFFFFFFFFFFFFF MUL NOT AND SWAP1 DUP4 PUSH20 0xFFFFFFFFFFFFFFFFFFFFFFFFFFFFFFFFFFFFFFFF AND MUL OR SWAP1 SSTORE POP DUP1 PUSH1 0x2 PUSH0 PUSH2 0x100 EXP DUP2 SLOAD DUP2 PUSH20 0xFFFFFFFFFFFFFFFFFFFFFFFFFFFFFFFFFFFFFFFF MUL NOT AND SWAP1 DUP4 PUSH20 0xFFFFFFFFFFFFFFFFFFFFFFFFFFFFFFFFFFFFFFFF AND MUL OR SWAP1 SSTORE POP POP POP PUSH2 0x2B2 JUMP JUMPDEST PUSH0 PUSH0 PUSH0 SWAP1 SLOAD SWAP1 PUSH2 0x100 EXP SWAP1 DIV PUSH20 0xFFFFFFFFFFFFFFFFFFFFFFFFFFFFFFFFFFFFFFFF AND SWAP1 POP DUP2 PUSH0 PUSH0 PUSH2 0x100 EXP DUP2 SLOAD DUP2 PUSH20 0xFFFFFFFFFFFFFFFFFFFFFFFFFFFFFFFFFFFFFFFF MUL NOT AND SWAP1 DUP4 PUSH20 0xFFFFFFFFFFFFFFFFFFFFFFFFFFFFFFFFFFFFFFFF AND MUL OR SWAP1 SSTORE POP DUP2 PUSH20 0xFFFFFFFFFFFFFFFFFFFFFFFFFFFFFFFFFFFFFFFF AND DUP2 PUSH20 0xFFFFFFFFFFFFFFFFFFFFFFFFFFFFFFFFFFFFFFFF AND PUSH32 0x8BE0079C531659141344CD1FD0A4F28419497F9722A3DAAFE3B4186F6B6457E0 PUSH1 0x40 MLOAD PUSH1 0x40 MLOAD DUP1 SWAP2 SUB SWAP1 LOG3 POP POP JUMP JUMPDEST PUSH0 PUSH0 REVERT JUMPDEST PUSH0 PUSH20 0xFFFFFFFFFFFFFFFFFFFFFFFFFFFFFFFFFFFFFFFF DUP3 AND SWAP1 POP SWAP2 SWAP1 POP JUMP JUMPDEST PUSH0 PUSH2 0x21B DUP3 PUSH2 0x1F2 JUMP JUMPDEST SWAP1 POP SWAP2 SWAP1 POP JUMP JUMPDEST PUSH2 0x22B DUP2 PUSH2 0x211 JUMP JUMPDEST DUP2 EQ PUSH2 0x235 JUMPI PUSH0 PUSH0 REVERT JUMPDEST POP JUMP JUMPDEST PUSH0 DUP2 MLOAD SWAP1 POP PUSH2 0x246 DUP2 PUSH2 0x222 JUMP JUMPDEST SWAP3 SWAP2 POP POP JUMP JUMPDEST PUSH0 PUSH0 PUSH1 0x40 DUP4 DUP6 SUB SLT ISZERO PUSH2 0x262 JUMPI PUSH2 0x261 PUSH2 0x1EE JUMP JUMPDEST JUMPDEST PUSH0 PUSH2 0x26F DUP6 DUP3 DUP7 ADD PUSH2 0x238 JUMP JUMPDEST SWAP3 POP POP PUSH1 0x20 PUSH2 0x280 DUP6 DUP3 DUP7 ADD PUSH2 0x238 JUMP JUMPDEST SWAP2 POP POP SWAP3 POP SWAP3 SWAP1 POP JUMP JUMPDEST PUSH2 0x293 DUP2 PUSH2 0x211 JUMP JUMPDEST DUP3 MSTORE POP POP JUMP JUMPDEST PUSH0 PUSH1 0x20 DUP3 ADD SWAP1 POP PUSH2 0x2AC PUSH0 DUP4 ADD DUP5 PUSH2 0x28A JUMP JUMPDEST SWAP3 SWAP2 POP POP JUMP JUMPDEST PUSH2 0x1368 DUP1 PUSH2 0x2BF PUSH0 CODECOPY PUSH0 RETURN INVALID PUSH1 0x80 PUSH1 0x40 MSTORE PUSH1 0x4 CALLDATASIZE LT PUSH2 0xE0 JUMPI PUSH0 CALLDATALOAD PUSH1 0xE0 SHR DUP1 PUSH4 0x7C77E15C GT PUSH2 0x7E JUMPI DUP1 PUSH4 0xBD9D518B GT PUSH2 0x58 JUMPI DUP1 PUSH4 0xBD9D518B EQ PUSH2 0x265 JUMPI DUP1 PUSH4 0xC5F60E82 EQ PUSH2 0x2A1 JUMPI DUP1 PUSH4 0xEDB8FB44 EQ PUSH2 0x2CB JUMPI DUP1 PUSH4 0xF2FDE38B EQ PUSH2 0x2D5 JUMPI PUSH2 0xE7 JUMP JUMPDEST DUP1 PUSH4 0x7C77E15C EQ PUSH2 0x1D5 JUMPI DUP1 PUSH4 0x8CD42316 EQ PUSH2 0x1FF JUMPI DUP1 PUSH4 0x8DA5CB5B EQ PUSH2 0x23B JUMPI PUSH2 0xE7 JUMP JUMPDEST DUP1 PUSH4 0x3CCFD60B GT PUSH2 0xBA JUMPI DUP1 PUSH4 0x3CCFD60B EQ PUSH2 0x169 JUMPI DUP1 PUSH4 0x60550D7A EQ PUSH2 0x17F JUMPI DUP1 PUSH4 0x67C9B017 EQ PUSH2 0x195 JUMPI DUP1 PUSH4 0x715018A6 EQ PUSH2 0x1BF JUMPI PUSH2 0xE7 JUMP JUMPDEST DUP1 PUSH4 0xC15C365 EQ PUSH2 0xEB JUMPI DUP1 PUSH4 0x12065FE0 EQ PUSH2 0x115 JUMPI DUP1 PUSH4 0x16731B24 EQ PUSH2 0x13F JUMPI PUSH2 0xE7 JUMP JUMPDEST CALLDATASIZE PUSH2 0xE7 JUMPI STOP JUMPDEST PUSH0 PUSH0 REVERT JUMPDEST CALLVALUE DUP1 ISZERO PUSH2 0xF6 JUMPI PUSH0 PUSH0 REVERT JUMPDEST POP PUSH2 0xFF PUSH2 0x2FD JUMP JUMPDEST PUSH1 0x40 MLOAD PUSH2 0x10C SWAP2 SWAP1 PUSH2 0xCFB JUMP JUMPDEST PUSH1 0x40 MLOAD DUP1 SWAP2 SUB SWAP1 RETURN JUMPDEST CALLVALUE DUP1 ISZERO PUSH2 0x120 JUMPI PUSH0 PUSH0 REVERT JUMPDEST POP PUSH2 0x129 PUSH2 0x39A JUMP JUMPDEST PUSH1 0x40 MLOAD PUSH2 0x136 SWAP2 SWAP1 PUSH2 0xCFB JUMP JUMPDEST PUSH1 0x40 MLOAD DUP1 SWAP2 SUB SWAP1 RETURN JUMPDEST CALLVALUE DUP1 ISZERO PUSH2 0x14A JUMPI PUSH0 PUSH0 REVERT JUMPDEST POP PUSH2 0x153 PUSH2 0x3A1 JUMP JUMPDEST PUSH1 0x40 MLOAD PUSH2 0x160 SWAP2 SWAP1 PUSH2 0xCFB JUMP JUMPDEST PUSH1 0x40 MLOAD DUP1 SWAP2 SUB SWAP1 RETURN JUMPDEST CALLVALUE DUP1 ISZERO PUSH2 0x174 JUMPI PUSH0 PUSH0 REVERT JUMPDEST POP PUSH2 0x17D PUSH2 0x3A6 JUMP JUMPDEST STOP JUMPDEST CALLVALUE DUP1 ISZERO PUSH2 0x18A JUMPI PUSH0 PUSH0 REVERT JUMPDEST POP PUSH2 0x193 PUSH2 0x3FB JUMP JUMPDEST STOP JUMPDEST CALLVALUE DUP1 ISZERO PUSH2 0x1A0 JUMPI PUSH0 PUSH0 REVERT JUMPDEST POP PUSH2 0x1A9 PUSH2 0x85A JUMP JUMPDEST PUSH1 0x40 MLOAD PUSH2 0x1B6 SWAP2 SWAP1 PUSH2 0xCFB JUMP JUMPDEST PUSH1 0x40 MLOAD DUP1 SWAP2 SUB SWAP1 RETURN JUMPDEST CALLVALUE DUP1 ISZERO PUSH2 0x1CA JUMPI PUSH0 PUSH0 REVERT JUMPDEST POP PUSH2 0x1D3 PUSH2 0x8F7 JUMP JUMPDEST STOP JUMPDEST CALLVALUE DUP1 ISZERO PUSH2 0x1E0 JUMPI PUSH0 PUSH0 REVERT JUMPDEST POP PUSH2 0x1E9 PUSH2 0x90A JUMP JUMPDEST PUSH1 0x40 MLOAD PUSH2 0x1F6 SWAP2 SWAP1 PUSH2 0xCFB JUMP JUMPDEST PUSH1 0x40 MLOAD DUP1 SWAP2 SUB SWAP1 RETURN JUMPDEST CALLVALUE DUP1 ISZERO PUSH2 0x20A JUMPI PUSH0 PUSH0 REVERT JUMPDEST POP PUSH2 0x225 PUSH1 0x4 DUP1 CALLDATASIZE SUB DUP2 ADD SWAP1 PUSH2 0x220 SWAP2 SWAP1 PUSH2 0xD72 JUMP JUMPDEST PUSH2 0x90F JUMP JUMPDEST PUSH1 0x40 MLOAD PUSH2 0x232 SWAP2 SWAP1 PUSH2 0xDB7 JUMP JUMPDEST PUSH1 0x40 MLOAD DUP1 SWAP2 SUB SWAP1 RETURN JUMPDEST CALLVALUE DUP1 ISZERO PUSH2 0x246 JUMPI PUSH0 PUSH0 REVERT JUMPDEST POP PUSH2 0x24F PUSH2 0x92C JUMP JUMPDEST PUSH1 0x40 MLOAD PUSH2 0x25C SWAP2 SWAP1 PUSH2 0xDDF JUMP JUMPDEST PUSH1 0x40 MLOAD DUP1 SWAP2 SUB SWAP1 RETURN JUMPDEST CALLVALUE DUP1 ISZERO PUSH2 0x270 JUMPI PUSH0 PUSH0 REVERT JUMPDEST POP PUSH2 0x28B PUSH1 0x4 DUP1 CALLDATASIZE SUB DUP2 ADD SWAP1 PUSH2 0x286 SWAP2 SWAP1 PUSH2 0xD72 JUMP JUMPDEST PUSH2 0x953 JUMP JUMPDEST PUSH1 0x40 MLOAD PUSH2 0x298 SWAP2 SWAP1 PUSH2 0xCFB JUMP JUMPDEST PUSH1 0x40 MLOAD DUP1 SWAP2 SUB SWAP1 RETURN JUMPDEST CALLVALUE DUP1 ISZERO PUSH2 0x2AC JUMPI PUSH0 PUSH0 REVERT JUMPDEST POP PUSH2 0x2B5 PUSH2 0x968 JUMP JUMPDEST PUSH1 0x40 MLOAD PUSH2 0x2C2 SWAP2 SWAP1 PUSH2 0xCFB JUMP JUMPDEST PUSH1 0x40 MLOAD DUP1 SWAP2 SUB SWAP1 RETURN JUMPDEST PUSH2 0x2D3 PUSH2 0x96E JUMP JUMPDEST STOP JUMPDEST CALLVALUE DUP1 ISZERO PUSH2 0x2E0 JUMPI PUSH0 PUSH0 REVERT JUMPDEST POP PUSH2 0x2FB PUSH1 0x4 DUP1 CALLDATASIZE SUB DUP2 ADD SWAP1 PUSH2 0x2F6 SWAP2 SWAP1 PUSH2 0xD72 JUMP JUMPDEST PUSH2 0xB10 JUMP JUMPDEST STOP JUMPDEST PUSH0 PUSH0 PUSH1 0x1 PUSH0 SWAP1 SLOAD SWAP1 PUSH2 0x100 EXP SWAP1 DIV PUSH20 0xFFFFFFFFFFFFFFFFFFFFFFFFFFFFFFFFFFFFFFFF AND PUSH20 0xFFFFFFFFFFFFFFFFFFFFFFFFFFFFFFFFFFFFFFFF AND PUSH4 0xFEAF968C PUSH1 0x40 MLOAD DUP2 PUSH4 0xFFFFFFFF AND PUSH1 0xE0 SHL DUP2 MSTORE PUSH1 0x4 ADD PUSH1 0xA0 PUSH1 0x40 MLOAD DUP1 DUP4 SUB DUP2 DUP7 GAS STATICCALL ISZERO DUP1 ISZERO PUSH2 0x369 JUMPI RETURNDATASIZE PUSH0 PUSH0 RETURNDATACOPY RETURNDATASIZE PUSH0 REVERT JUMPDEST POP POP POP POP PUSH1 0x40 MLOAD RETURNDATASIZE PUSH1 0x1F NOT PUSH1 0x1F DUP3 ADD AND DUP3 ADD DUP1 PUSH1 0x40 MSTORE POP DUP2 ADD SWAP1 PUSH2 0x38D SWAP2 SWAP1 PUSH2 0xE94 JUMP JUMPDEST POP POP POP SWAP2 POP POP DUP1 SWAP2 POP POP SWAP1 JUMP JUMPDEST PUSH0 SELFBALANCE SWAP1 POP SWAP1 JUMP JUMPDEST PUSH1 0xA DUP2 JUMP JUMPDEST PUSH2 0x3AE PUSH2 0xB94 JUMP JUMPDEST PUSH2 0x3B6 PUSH2 0x92C JUMP JUMPDEST PUSH20 0xFFFFFFFFFFFFFFFFFFFFFFFFFFFFFFFFFFFFFFFF AND PUSH2 0x8FC SELFBALANCE SWAP1 DUP2 ISZERO MUL SWAP1 PUSH1 0x40 MLOAD PUSH0 PUSH1 0x40 MLOAD DUP1 DUP4 SUB DUP2 DUP6 DUP9 DUP9 CALL SWAP4 POP POP POP POP ISZERO DUP1 ISZERO PUSH2 0x3F8 JUMPI RETURNDATASIZE PUSH0 PUSH0 RETURNDATACOPY RETURNDATASIZE PUSH0 REVERT JUMPDEST POP JUMP JUMPDEST PUSH1 0x3 PUSH0 CALLER PUSH20 0xFFFFFFFFFFFFFFFFFFFFFFFFFFFFFFFFFFFFFFFF AND PUSH20 0xFFFFFFFFFFFFFFFFFFFFFFFFFFFFFFFFFFFFFFFF AND DUP2 MSTORE PUSH1 0x20 ADD SWAP1 DUP2 MSTORE PUSH1 0x20 ADD PUSH0 KECCAK256 PUSH0 SWAP1 SLOAD SWAP1 PUSH2 0x100 EXP SWAP1 DIV PUSH1 0xFF AND PUSH2 0x484 JUMPI PUSH1 0x40 MLOAD PUSH32 0x8C379A000000000000000000000000000000000000000000000000000000000 DUP2 MSTORE PUSH1 0x4 ADD PUSH2 0x47B SWAP1 PUSH2 0xF65 JUMP JUMPDEST PUSH1 0x40 MLOAD DUP1 SWAP2 SUB SWAP1 REVERT JUMPDEST PUSH3 0x15180 PUSH1 0x4 PUSH0 CALLER PUSH20 0xFFFFFFFFFFFFFFFFFFFFFFFFFFFFFFFFFFFFFFFF AND PUSH20 0xFFFFFFFFFFFFFFFFFFFFFFFFFFFFFFFFFFFFFFFF AND DUP2 MSTORE PUSH1 0x20 ADD SWAP1 DUP2 MSTORE PUSH1 0x20 ADD PUSH0 KECCAK256 SLOAD PUSH2 0x4D0 SWAP2 SWAP1 PUSH2 0xFB0 JUMP JUMPDEST TIMESTAMP LT ISZERO PUSH2 0x512 JUMPI PUSH1 0x40 MLOAD PUSH32 0x8C379A000000000000000000000000000000000000000000000000000000000 DUP2 MSTORE PUSH1 0x4 ADD PUSH2 0x509 SWAP1 PUSH2 0x102D JUMP JUMPDEST PUSH1 0x40 MLOAD DUP1 SWAP2 SUB SWAP1 REVERT JUMPDEST PUSH0 PUSH0 PUSH0 PUSH0 PUSH1 0x1 PUSH0 SWAP1 SLOAD SWAP1 PUSH2 0x100 EXP SWAP1 DIV PUSH20 0xFFFFFFFFFFFFFFFFFFFFFFFFFFFFFFFFFFFFFFFF AND PUSH20 0xFFFFFFFFFFFFFFFFFFFFFFFFFFFFFFFFFFFFFFFF AND PUSH4 0xFEAF968C PUSH1 0x40 MLOAD DUP2 PUSH4 0xFFFFFFFF AND PUSH1 0xE0 SHL DUP2 MSTORE PUSH1 0x4 ADD PUSH1 0xA0 PUSH1 0x40 MLOAD DUP1 DUP4 SUB DUP2 DUP7 GAS STATICCALL ISZERO DUP1 ISZERO PUSH2 0x580 JUMPI RETURNDATASIZE PUSH0 PUSH0 RETURNDATACOPY RETURNDATASIZE PUSH0 REVERT JUMPDEST POP POP POP POP PUSH1 0x40 MLOAD RETURNDATASIZE PUSH1 0x1F NOT PUSH1 0x1F DUP3 ADD AND DUP3 ADD DUP1 PUSH1 0x40 MSTORE POP DUP2 ADD SWAP1 PUSH2 0x5A4 SWAP2 SWAP1 PUSH2 0xE94 JUMP JUMPDEST SWAP5 POP SWAP5 POP POP SWAP4 POP SWAP4 POP PUSH0 DUP3 GT PUSH2 0x5EF JUMPI PUSH1 0x40 MLOAD PUSH32 0x8C379A000000000000000000000000000000000000000000000000000000000 DUP2 MSTORE PUSH1 0x4 ADD PUSH2 0x5E6 SWAP1 PUSH2 0x1095 JUMP JUMPDEST PUSH1 0x40 MLOAD DUP1 SWAP2 SUB SWAP1 REVERT JUMPDEST DUP4 PUSH10 0xFFFFFFFFFFFFFFFFFFFF AND DUP2 PUSH10 0xFFFFFFFFFFFFFFFFFFFF AND LT ISZERO PUSH2 0x64A JUMPI PUSH1 0x40 MLOAD PUSH32 0x8C379A000000000000000000000000000000000000000000000000000000000 DUP2 MSTORE PUSH1 0x4 ADD PUSH2 0x641 SWAP1 PUSH2 0x10FD JUMP JUMPDEST PUSH1 0x40 MLOAD DUP1 SWAP2 SUB SWAP1 REVERT JUMPDEST PUSH0 DUP4 SWAP1 POP CALLER PUSH20 0xFFFFFFFFFFFFFFFFFFFFFFFFFFFFFFFFFFFFFFFF AND PUSH32 0xB7CA7D3CB9A65735003FAB623DDE34F69B35FAA87DF2ABB0027E416636DA03F0 DUP3 PUSH1 0x40 MLOAD PUSH2 0x694 SWAP2 SWAP1 PUSH2 0xCFB JUMP JUMPDEST PUSH1 0x40 MLOAD DUP1 SWAP2 SUB SWAP1 LOG2 PUSH2 0x1F4 DUP2 LT ISZERO PUSH2 0x853 JUMPI TIMESTAMP PUSH1 0x4 PUSH0 CALLER PUSH20 0xFFFFFFFFFFFFFFFFFFFFFFFFFFFFFFFFFFFFFFFF AND PUSH20 0xFFFFFFFFFFFFFFFFFFFFFFFFFFFFFFFFFFFFFFFF AND DUP2 MSTORE PUSH1 0x20 ADD SWAP1 DUP2 MSTORE PUSH1 0x20 ADD PUSH0 KECCAK256 DUP2 SWAP1 SSTORE POP CALLER PUSH20 0xFFFFFFFFFFFFFFFFFFFFFFFFFFFFFFFFFFFFFFFF AND PUSH32 0x2AB6BFD31D4179C9C028FBFABC158037D35B199E61CC811862F484A9ED0706A1 PUSH1 0x40 MLOAD PUSH1 0x40 MLOAD DUP1 SWAP2 SUB SWAP1 LOG2 PUSH0 PUSH2 0x734 PUSH2 0x85A JUMP JUMPDEST SWAP1 POP PUSH0 DUP2 PUSH8 0xDE0B6B3A7640000 PUSH1 0x32 PUSH2 0x74D SWAP2 SWAP1 PUSH2 0x111B JUMP JUMPDEST PUSH2 0x757 SWAP2 SWAP1 PUSH2 0x1189 JUMP JUMPDEST SWAP1 POP PUSH0 CALLER PUSH20 0xFFFFFFFFFFFFFFFFFFFFFFFFFFFFFFFFFFFFFFFF AND DUP3 PUSH1 0x40 MLOAD PUSH2 0x77E SWAP1 PUSH2 0x11E6 JUMP JUMPDEST PUSH0 PUSH1 0x40 MLOAD DUP1 DUP4 SUB DUP2 DUP6 DUP8 GAS CALL SWAP3 POP POP POP RETURNDATASIZE DUP1 PUSH0 DUP2 EQ PUSH2 0x7B8 JUMPI PUSH1 0x40 MLOAD SWAP2 POP PUSH1 0x1F NOT PUSH1 0x3F RETURNDATASIZE ADD AND DUP3 ADD PUSH1 0x40 MSTORE RETURNDATASIZE DUP3 MSTORE RETURNDATASIZE PUSH0 PUSH1 0x20 DUP5 ADD RETURNDATACOPY PUSH2 0x7BD JUMP JUMPDEST PUSH1 0x60 SWAP2 POP JUMPDEST POP POP SWAP1 POP DUP1 PUSH2 0x801 JUMPI PUSH1 0x40 MLOAD PUSH32 0x8C379A000000000000000000000000000000000000000000000000000000000 DUP2 MSTORE PUSH1 0x4 ADD PUSH2 0x7F8 SWAP1 PUSH2 0x1244 JUMP JUMPDEST PUSH1 0x40 MLOAD DUP1 SWAP2 SUB SWAP1 REVERT JUMPDEST CALLER PUSH20 0xFFFFFFFFFFFFFFFFFFFFFFFFFFFFFFFFFFFFFFFF AND PUSH32 0xF42CF8C29487B42C009006CBA2A2A0CA0388229F3183E6E957E0A0B163585CB4 DUP4 PUSH1 0x40 MLOAD PUSH2 0x847 SWAP2 SWAP1 PUSH2 0xCFB JUMP JUMPDEST PUSH1 0x40 MLOAD DUP1 SWAP2 SUB SWAP1 LOG2 POP POP POP JUMPDEST POP POP POP POP POP JUMP JUMPDEST PUSH0 PUSH0 PUSH1 0x2 PUSH0 SWAP1 SLOAD SWAP1 PUSH2 0x100 EXP SWAP1 DIV PUSH20 0xFFFFFFFFFFFFFFFFFFFFFFFFFFFFFFFFFFFFFFFF AND PUSH20 0xFFFFFFFFFFFFFFFFFFFFFFFFFFFFFFFFFFFFFFFF AND PUSH4 0xFEAF968C PUSH1 0x40 MLOAD DUP2 PUSH4 0xFFFFFFFF AND PUSH1 0xE0 SHL DUP2 MSTORE PUSH1 0x4 ADD PUSH1 0xA0 PUSH1 0x40 MLOAD DUP1 DUP4 SUB DUP2 DUP7 GAS STATICCALL ISZERO DUP1 ISZERO PUSH2 0x8C6 JUMPI RETURNDATASIZE PUSH0 PUSH0 RETURNDATACOPY RETURNDATASIZE PUSH0 REVERT JUMPDEST POP POP POP POP PUSH1 0x40 MLOAD RETURNDATASIZE PUSH1 0x1F NOT PUSH1 0x1F DUP3 ADD AND DUP3 ADD DUP1 PUSH1 0x40 MSTORE POP DUP2 ADD SWAP1 PUSH2 0x8EA SWAP2 SWAP1 PUSH2 0xE94 JUMP JUMPDEST POP POP POP SWAP2 POP POP DUP1 SWAP2 POP POP SWAP1 JUMP JUMPDEST PUSH2 0x8FF PUSH2 0xB94 JUMP JUMPDEST PUSH2 0x908 PUSH0 PUSH2 0xC1B JUMP JUMPDEST JUMP JUMPDEST PUSH1 0x32 DUP2 JUMP JUMPDEST PUSH1 0x3 PUSH1 0x20 MSTORE DUP1 PUSH0 MSTORE PUSH1 0x40 PUSH0 KECCAK256 PUSH0 SWAP2 POP SLOAD SWAP1 PUSH2 0x100 EXP SWAP1 DIV PUSH1 0xFF AND DUP2 JUMP JUMPDEST PUSH0 PUSH0 PUSH0 SWAP1 SLOAD SWAP1 PUSH2 0x100 EXP SWAP1 DIV PUSH20 0xFFFFFFFFFFFFFFFFFFFFFFFFFFFFFFFFFFFFFFFF AND SWAP1 POP SWAP1 JUMP JUMPDEST PUSH1 0x4 PUSH1 0x20 MSTORE DUP1 PUSH0 MSTORE PUSH1 0x40 PUSH0 KECCAK256 PUSH0 SWAP2 POP SWAP1 POP SLOAD DUP2 JUMP JUMPDEST PUSH2 0x1F4 DUP2 JUMP JUMPDEST PUSH0 PUSH2 0x977 PUSH2 0x85A JUMP JUMPDEST SWAP1 POP PUSH0 DUP2 PUSH8 0xDE0B6B3A7640000 PUSH1 0xA PUSH2 0x990 SWAP2 SWAP1 PUSH2 0x111B JUMP JUMPDEST PUSH2 0x99A SWAP2 SWAP1 PUSH2 0x1189 JUMP JUMPDEST SWAP1 POP DUP1 CALLVALUE LT ISZERO PUSH2 0x9DF JUMPI PUSH1 0x40 MLOAD PUSH32 0x8C379A000000000000000000000000000000000000000000000000000000000 DUP2 MSTORE PUSH1 0x4 ADD PUSH2 0x9D6 SWAP1 PUSH2 0x12AC JUMP JUMPDEST PUSH1 0x40 MLOAD DUP1 SWAP2 SUB SWAP1 REVERT JUMPDEST PUSH1 0x3 PUSH0 CALLER PUSH20 0xFFFFFFFFFFFFFFFFFFFFFFFFFFFFFFFFFFFFFFFF AND PUSH20 0xFFFFFFFFFFFFFFFFFFFFFFFFFFFFFFFFFFFFFFFF AND DUP2 MSTORE PUSH1 0x20 ADD SWAP1 DUP2 MSTORE PUSH1 0x20 ADD PUSH0 KECCAK256 PUSH0 SWAP1 SLOAD SWAP1 PUSH2 0x100 EXP SWAP1 DIV PUSH1 0xFF AND ISZERO PUSH2 0xA69 JUMPI PUSH1 0x40 MLOAD PUSH32 0x8C379A000000000000000000000000000000000000000000000000000000000 DUP2 MSTORE PUSH1 0x4 ADD PUSH2 0xA60 SWAP1 PUSH2 0x1314 JUMP JUMPDEST PUSH1 0x40 MLOAD DUP1 SWAP2 SUB SWAP1 REVERT JUMPDEST PUSH1 0x1 PUSH1 0x3 PUSH0 CALLER PUSH20 0xFFFFFFFFFFFFFFFFFFFFFFFFFFFFFFFFFFFFFFFF AND PUSH20 0xFFFFFFFFFFFFFFFFFFFFFFFFFFFFFFFFFFFFFFFF AND DUP2 MSTORE PUSH1 0x20 ADD SWAP1 DUP2 MSTORE PUSH1 0x20 ADD PUSH0 KECCAK256 PUSH0 PUSH2 0x100 EXP DUP2 SLOAD DUP2 PUSH1 0xFF MUL NOT AND SWAP1 DUP4 ISZERO ISZERO MUL OR SWAP1 SSTORE POP CALLER PUSH20 0xFFFFFFFFFFFFFFFFFFFFFFFFFFFFFFFFFFFFFFFF AND PUSH32 0x4B58308DF033561E43D2C0227B19BEA93AE78A05DF784C985482B3FB7E154610 CALLVALUE PUSH1 0x40 MLOAD PUSH2 0xB04 SWAP2 SWAP1 PUSH2 0xCFB JUMP JUMPDEST PUSH1 0x40 MLOAD DUP1 SWAP2 SUB SWAP1 LOG2 POP POP JUMP JUMPDEST PUSH2 0xB18 PUSH2 0xB94 JUMP JUMPDEST PUSH0 PUSH20 0xFFFFFFFFFFFFFFFFFFFFFFFFFFFFFFFFFFFFFFFF AND DUP2 PUSH20 0xFFFFFFFFFFFFFFFFFFFFFFFFFFFFFFFFFFFFFFFF AND SUB PUSH2 0xB88 JUMPI PUSH0 PUSH1 0x40 MLOAD PUSH32 0x1E4FBDF700000000000000000000000000000000000000000000000000000000 DUP2 MSTORE PUSH1 0x4 ADD PUSH2 0xB7F SWAP2 SWAP1 PUSH2 0xDDF JUMP JUMPDEST PUSH1 0x40 MLOAD DUP1 SWAP2 SUB SWAP1 REVERT JUMPDEST PUSH2 0xB91 DUP2 PUSH2 0xC1B JUMP JUMPDEST POP JUMP JUMPDEST PUSH2 0xB9C PUSH2 0xCDC JUMP JUMPDEST PUSH20 0xFFFFFFFFFFFFFFFFFFFFFFFFFFFFFFFFFFFFFFFF AND PUSH2 0xBBA PUSH2 0x92C JUMP JUMPDEST PUSH20 0xFFFFFFFFFFFFFFFFFFFFFFFFFFFFFFFFFFFFFFFF AND EQ PUSH2 0xC19 JUMPI PUSH2 0xBDD PUSH2 0xCDC JUMP JUMPDEST PUSH1 0x40 MLOAD PUSH32 0x118CDAA700000000000000000000000000000000000000000000000000000000 DUP2 MSTORE PUSH1 0x4 ADD PUSH2 0xC10 SWAP2 SWAP1 PUSH2 0xDDF JUMP JUMPDEST PUSH1 0x40 MLOAD DUP1 SWAP2 SUB SWAP1 REVERT JUMPDEST JUMP JUMPDEST PUSH0 PUSH0 PUSH0 SWAP1 SLOAD SWAP1 PUSH2 0x100 EXP SWAP1 DIV PUSH20 0xFFFFFFFFFFFFFFFFFFFFFFFFFFFFFFFFFFFFFFFF AND SWAP1 POP DUP2 PUSH0 PUSH0 PUSH2 0x100 EXP DUP2 SLOAD DUP2 PUSH20 0xFFFFFFFFFFFFFFFFFFFFFFFFFFFFFFFFFFFFFFFF MUL NOT AND SWAP1 DUP4 PUSH20 0xFFFFFFFFFFFFFFFFFFFFFFFFFFFFFFFFFFFFFFFF AND MUL OR SWAP1 SSTORE POP DUP2 PUSH20 0xFFFFFFFFFFFFFFFFFFFFFFFFFFFFFFFFFFFFFFFF AND DUP2 PUSH20 0xFFFFFFFFFFFFFFFFFFFFFFFFFFFFFFFFFFFFFFFF AND PUSH32 0x8BE0079C531659141344CD1FD0A4F28419497F9722A3DAAFE3B4186F6B6457E0 PUSH1 0x40 MLOAD PUSH1 0x40 MLOAD DUP1 SWAP2 SUB SWAP1 LOG3 POP POP JUMP JUMPDEST PUSH0 CALLER SWAP1 POP SWAP1 JUMP JUMPDEST PUSH0 DUP2 SWAP1 POP SWAP2 SWAP1 POP JUMP JUMPDEST PUSH2 0xCF5 DUP2 PUSH2 0xCE3 JUMP JUMPDEST DUP3 MSTORE POP POP JUMP JUMPDEST PUSH0 PUSH1 0x20 DUP3 ADD SWAP1 POP PUSH2 0xD0E PUSH0 DUP4 ADD DUP5 PUSH2 0xCEC JUMP JUMPDEST SWAP3 SWAP2 POP POP JUMP JUMPDEST PUSH0 PUSH0 REVERT JUMPDEST PUSH0 PUSH20 0xFFFFFFFFFFFFFFFFFFFFFFFFFFFFFFFFFFFFFFFF DUP3 AND SWAP1 POP SWAP2 SWAP1 POP JUMP JUMPDEST PUSH0 PUSH2 0xD41 DUP3 PUSH2 0xD18 JUMP JUMPDEST SWAP1 POP SWAP2 SWAP1 POP JUMP JUMPDEST PUSH2 0xD51 DUP2 PUSH2 0xD37 JUMP JUMPDEST DUP2 EQ PUSH2 0xD5B JUMPI PUSH0 PUSH0 REVERT JUMPDEST POP JUMP JUMPDEST PUSH0 DUP2 CALLDATALOAD SWAP1 POP PUSH2 0xD6C DUP2 PUSH2 0xD48 JUMP JUMPDEST SWAP3 SWAP2 POP POP JUMP JUMPDEST PUSH0 PUSH1 0x20 DUP3 DUP5 SUB SLT ISZERO PUSH2 0xD87 JUMPI PUSH2 0xD86 PUSH2 0xD14 JUMP JUMPDEST JUMPDEST PUSH0 PUSH2 0xD94 DUP5 DUP3 DUP6 ADD PUSH2 0xD5E JUMP JUMPDEST SWAP2 POP POP SWAP3 SWAP2 POP POP JUMP JUMPDEST PUSH0 DUP2 ISZERO ISZERO SWAP1 POP SWAP2 SWAP1 POP JUMP JUMPDEST PUSH2 0xDB1 DUP2 PUSH2 0xD9D JUMP JUMPDEST DUP3 MSTORE POP POP JUMP JUMPDEST PUSH0 PUSH1 0x20 DUP3 ADD SWAP1 POP PUSH2 0xDCA PUSH0 DUP4 ADD DUP5 PUSH2 0xDA8 JUMP JUMPDEST SWAP3 SWAP2 POP POP JUMP JUMPDEST PUSH2 0xDD9 DUP2 PUSH2 0xD37 JUMP JUMPDEST DUP3 MSTORE POP POP JUMP JUMPDEST PUSH0 PUSH1 0x20 DUP3 ADD SWAP1 POP PUSH2 0xDF2 PUSH0 DUP4 ADD DUP5 PUSH2 0xDD0 JUMP JUMPDEST SWAP3 SWAP2 POP POP JUMP JUMPDEST PUSH0 PUSH10 0xFFFFFFFFFFFFFFFFFFFF DUP3 AND SWAP1 POP SWAP2 SWAP1 POP JUMP JUMPDEST PUSH2 0xE16 DUP2 PUSH2 0xDF8 JUMP JUMPDEST DUP2 EQ PUSH2 0xE20 JUMPI PUSH0 PUSH0 REVERT JUMPDEST POP JUMP JUMPDEST PUSH0 DUP2 MLOAD SWAP1 POP PUSH2 0xE31 DUP2 PUSH2 0xE0D JUMP JUMPDEST SWAP3 SWAP2 POP POP JUMP JUMPDEST PUSH0 DUP2 SWAP1 POP SWAP2 SWAP1 POP JUMP JUMPDEST PUSH2 0xE49 DUP2 PUSH2 0xE37 JUMP JUMPDEST DUP2 EQ PUSH2 0xE53 JUMPI PUSH0 PUSH0 REVERT JUMPDEST POP JUMP JUMPDEST PUSH0 DUP2 MLOAD SWAP1 POP PUSH2 0xE64 DUP2 PUSH2 0xE40 JUMP JUMPDEST SWAP3 SWAP2 POP POP JUMP JUMPDEST PUSH2 0xE73 DUP2 PUSH2 0xCE3 JUMP JUMPDEST DUP2 EQ PUSH2 0xE7D JUMPI PUSH0 PUSH0 REVERT JUMPDEST POP JUMP JUMPDEST PUSH0 DUP2 MLOAD SWAP1 POP PUSH2 0xE8E DUP2 PUSH2 0xE6A JUMP JUMPDEST SWAP3 SWAP2 POP POP JUMP JUMPDEST PUSH0 PUSH0 PUSH0 PUSH0 PUSH0 PUSH1 0xA0 DUP7 DUP9 SUB SLT ISZERO PUSH2 0xEAD JUMPI PUSH2 0xEAC PUSH2 0xD14 JUMP JUMPDEST JUMPDEST PUSH0 PUSH2 0xEBA DUP9 DUP3 DUP10 ADD PUSH2 0xE23 JUMP JUMPDEST SWAP6 POP POP PUSH1 0x20 PUSH2 0xECB DUP9 DUP3 DUP10 ADD PUSH2 0xE56 JUMP JUMPDEST SWAP5 POP POP PUSH1 0x40 PUSH2 0xEDC DUP9 DUP3 DUP10 ADD PUSH2 0xE80 JUMP JUMPDEST SWAP4 POP POP PUSH1 0x60 PUSH2 0xEED DUP9 DUP3 DUP10 ADD PUSH2 0xE80 JUMP JUMPDEST SWAP3 POP POP PUSH1 0x80 PUSH2 0xEFE DUP9 DUP3 DUP10 ADD PUSH2 0xE23 JUMP JUMPDEST SWAP2 POP POP SWAP3 SWAP6 POP SWAP3 SWAP6 SWAP1 SWAP4 POP JUMP JUMPDEST PUSH0 DUP3 DUP3 MSTORE PUSH1 0x20 DUP3 ADD SWAP1 POP SWAP3 SWAP2 POP POP JUMP JUMPDEST PUSH32 0x4E6F2061637469766520696E737572616E636500000000000000000000000000 PUSH0 DUP3 ADD MSTORE POP JUMP JUMPDEST PUSH0 PUSH2 0xF4F PUSH1 0x13 DUP4 PUSH2 0xF0B JUMP JUMPDEST SWAP2 POP PUSH2 0xF5A DUP3 PUSH2 0xF1B JUMP JUMPDEST PUSH1 0x20 DUP3 ADD SWAP1 POP SWAP2 SWAP1 POP JUMP JUMPDEST PUSH0 PUSH1 0x20 DUP3 ADD SWAP1 POP DUP2 DUP2 SUB PUSH0 DUP4 ADD MSTORE PUSH2 0xF7C DUP2 PUSH2 0xF43 JUMP JUMPDEST SWAP1 POP SWAP2 SWAP1 POP JUMP JUMPDEST PUSH32 0x4E487B7100000000000000000000000000000000000000000000000000000000 PUSH0 MSTORE PUSH1 0x11 PUSH1 0x4 MSTORE PUSH1 0x24 PUSH0 REVERT JUMPDEST PUSH0 PUSH2 0xFBA DUP3 PUSH2 0xCE3 JUMP JUMPDEST SWAP2 POP PUSH2 0xFC5 DUP4 PUSH2 0xCE3 JUMP JUMPDEST SWAP3 POP DUP3 DUP3 ADD SWAP1 POP DUP1 DUP3 GT ISZERO PUSH2 0xFDD JUMPI PUSH2 0xFDC PUSH2 0xF83 JUMP JUMPDEST JUMPDEST SWAP3 SWAP2 POP POP JUMP JUMPDEST PUSH32 0x4D757374207761697420323468206265747765656E20636C61696D7300000000 PUSH0 DUP3 ADD MSTORE POP JUMP JUMPDEST PUSH0 PUSH2 0x1017 PUSH1 0x1C DUP4 PUSH2 0xF0B JUMP JUMPDEST SWAP2 POP PUSH2 0x1022 DUP3 PUSH2 0xFE3 JUMP JUMPDEST PUSH1 0x20 DUP3 ADD SWAP1 POP SWAP2 SWAP1 POP JUMP JUMPDEST PUSH0 PUSH1 0x20 DUP3 ADD SWAP1 POP DUP2 DUP2 SUB PUSH0 DUP4 ADD MSTORE PUSH2 0x1044 DUP2 PUSH2 0x100B JUMP JUMPDEST SWAP1 POP SWAP2 SWAP1 POP JUMP JUMPDEST PUSH32 0x526F756E64206E6F7420636F6D706C6574650000000000000000000000000000 PUSH0 DUP3 ADD MSTORE POP JUMP JUMPDEST PUSH0 PUSH2 0x107F PUSH1 0x12 DUP4 PUSH2 0xF0B JUMP JUMPDEST SWAP2 POP PUSH2 0x108A DUP3 PUSH2 0x104B JUMP JUMPDEST PUSH1 0x20 DUP3 ADD SWAP1 POP SWAP2 SWAP1 POP JUMP JUMPDEST PUSH0 PUSH1 0x20 DUP3 ADD SWAP1 POP DUP2 DUP2 SUB PUSH0 DUP4 ADD MSTORE PUSH2 0x10AC DUP2 PUSH2 0x1073 JUMP JUMPDEST SWAP1 POP SWAP2 SWAP1 POP JUMP JUMPDEST PUSH32 0x5374616C65206461746100000000000000000000000000000000000000000000 PUSH0 DUP3 ADD MSTORE POP JUMP JUMPDEST PUSH0 PUSH2 0x10E7 PUSH1 0xA DUP4 PUSH2 0xF0B JUMP JUMPDEST SWAP2 POP PUSH2 0x10F2 DUP3 PUSH2 0x10B3 JUMP JUMPDEST PUSH1 0x20 DUP3 ADD SWAP1 POP SWAP2 SWAP1 POP JUMP JUMPDEST PUSH0 PUSH1 0x20 DUP3 ADD SWAP1 POP DUP2 DUP2 SUB PUSH0 DUP4 ADD MSTORE PUSH2 0x1114 DUP2 PUSH2 0x10DB JUMP JUMPDEST SWAP1 POP SWAP2 SWAP1 POP JUMP JUMPDEST PUSH0 PUSH2 0x1125 DUP3 PUSH2 0xCE3 JUMP JUMPDEST SWAP2 POP PUSH2 0x1130 DUP4 PUSH2 0xCE3 JUMP JUMPDEST SWAP3 POP DUP3 DUP3 MUL PUSH2 0x113E DUP2 PUSH2 0xCE3 JUMP JUMPDEST SWAP2 POP DUP3 DUP3 DIV DUP5 EQ DUP4 ISZERO OR PUSH2 0x1155 JUMPI PUSH2 0x1154 PUSH2 0xF83 JUMP JUMPDEST JUMPDEST POP SWAP3 SWAP2 POP POP JUMP JUMPDEST PUSH32 0x4E487B7100000000000000000000000000000000000000000000000000000000 PUSH0 MSTORE PUSH1 0x12 PUSH1 0x4 MSTORE PUSH1 0x24 PUSH0 REVERT JUMPDEST PUSH0 PUSH2 0x1193 DUP3 PUSH2 0xCE3 JUMP JUMPDEST SWAP2 POP PUSH2 0x119E DUP4 PUSH2 0xCE3 JUMP JUMPDEST SWAP3 POP DUP3 PUSH2 0x11AE JUMPI PUSH2 0x11AD PUSH2 0x115C JUMP JUMPDEST JUMPDEST DUP3 DUP3 DIV SWAP1 POP SWAP3 SWAP2 POP POP JUMP JUMPDEST PUSH0 DUP2 SWAP1 POP SWAP3 SWAP2 POP POP JUMP JUMPDEST POP JUMP JUMPDEST PUSH0 PUSH2 0x11D1 PUSH0 DUP4 PUSH2 0x11B9 JUMP JUMPDEST SWAP2 POP PUSH2 0x11DC DUP3 PUSH2 0x11C3 JUMP JUMPDEST PUSH0 DUP3 ADD SWAP1 POP SWAP2 SWAP1 POP JUMP JUMPDEST PUSH0 PUSH2 0x11F0 DUP3 PUSH2 0x11C6 JUMP JUMPDEST SWAP2 POP DUP2 SWAP1 POP SWAP2 SWAP1 POP JUMP JUMPDEST PUSH32 0x5472616E73666572206661696C65640000000000000000000000000000000000 PUSH0 DUP3 ADD MSTORE POP JUMP JUMPDEST PUSH0 PUSH2 0x122E PUSH1 0xF DUP4 PUSH2 0xF0B JUMP JUMPDEST SWAP2 POP PUSH2 0x1239 DUP3 PUSH2 0x11FA JUMP JUMPDEST PUSH1 0x20 DUP3 ADD SWAP1 POP SWAP2 SWAP1 POP JUMP JUMPDEST PUSH0 PUSH1 0x20 DUP3 ADD SWAP1 POP DUP2 DUP2 SUB PUSH0 DUP4 ADD MSTORE PUSH2 0x125B DUP2 PUSH2 0x1222 JUMP JUMPDEST SWAP1 POP SWAP2 SWAP1 POP JUMP JUMPDEST PUSH32 0x496E73756666696369656E74207072656D69756D20616D6F756E740000000000 PUSH0 DUP3 ADD MSTORE POP JUMP JUMPDEST PUSH0 PUSH2 0x1296 PUSH1 0x1B DUP4 PUSH2 0xF0B JUMP JUMPDEST SWAP2 POP PUSH2 0x12A1 DUP3 PUSH2 0x1262 JUMP JUMPDEST PUSH1 0x20 DUP3 ADD SWAP1 POP SWAP2 SWAP1 POP JUMP JUMPDEST PUSH0 PUSH1 0x20 DUP3 ADD SWAP1 POP DUP2 DUP2 SUB PUSH0 DUP4 ADD MSTORE PUSH2 0x12C3 DUP2 PUSH2 0x128A JUMP JUMPDEST SWAP1 POP SWAP2 SWAP1 POP JUMP JUMPDEST PUSH32 0x416C726561647920696E73757265640000000000000000000000000000000000 PUSH0 DUP3 ADD MSTORE POP JUMP JUMPDEST PUSH0 PUSH2 0x12FE PUSH1 0xF DUP4 PUSH2 0xF0B JUMP JUMPDEST SWAP2 POP PUSH2 0x1309 DUP3 PUSH2 0x12CA JUMP JUMPDEST PUSH1 0x20 DUP3 ADD SWAP1 POP SWAP2 SWAP1 POP JUMP JUMPDEST PUSH0 PUSH1 0x20 DUP3 ADD SWAP1 POP DUP2 DUP2 SUB PUSH0 DUP4 ADD MSTORE PUSH2 0x132B DUP2 PUSH2 0x12F2 JUMP JUMPDEST SWAP1 POP SWAP2 SWAP1 POP JUMP INVALID LOG2 PUSH5 0x6970667358 0x22 SLT KECCAK256 GASLIMIT 0xBE 0xED PUSH1 0x90 0xDF SAR SELFDESTRUCT TLOAD 0xC3 0xDF EXTCODESIZE DELEGATECALL LOG1 PUSH8 0xA630C5A62BDD2883 PUSH26 0x65735C12070649764736F6C634300081E003300000000000000 "
				},
				"gasEstimates": {
					"creation": {
						"codeDepositCost": "993600",
						"executionCost": "infinite",
						"totalCost": "infinite"
					},
					"external": {
						"INSURANCE_PAYOUT_USD()": "348",
						"INSURANCE_PREMIUM_USD()": "393",
						"RAINFALL_THRESHOLD()": "369",
						"checkRainfallAndClaim()": "infinite",
						"getBalance()": "380",
						"getCurrentRainfall()": "infinite",
						"getEthPrice()": "infinite",
						"hasInsurance(address)": "2878",
						"lastClaimTimestamp(address)": "2824",
						"owner()": "2581",
						"purchaseInsurance()": "infinite",
						"renounceOwnership()": "infinite",
						"transferOwnership(address)": "infinite",
						"withdraw()": "infinite"
					}
				},
				"methodIdentifiers": {
					"INSURANCE_PAYOUT_USD()": "7c77e15c",
					"INSURANCE_PREMIUM_USD()": "16731b24",
					"RAINFALL_THRESHOLD()": "c5f60e82",
					"checkRainfallAndClaim()": "60550d7a",
					"getBalance()": "12065fe0",
					"getCurrentRainfall()": "0c15c365",
					"getEthPrice()": "67c9b017",
					"hasInsurance(address)": "8cd42316",
					"lastClaimTimestamp(address)": "bd9d518b",
					"owner()": "8da5cb5b",
					"purchaseInsurance()": "edb8fb44",
					"renounceOwnership()": "715018a6",
					"transferOwnership(address)": "f2fde38b",
					"withdraw()": "3ccfd60b"
				}
			},
			"storageLayout": {
				"storage": [
					{
						"astId": 54,
						"contract": "submissions/Zora/CropTnsurance.sol:CropInsurance",
						"label": "_owner",
						"offset": 0,
						"slot": "0",
						"type": "t_address"
					},
					{
						"astId": 232,
						"contract": "submissions/Zora/CropTnsurance.sol:CropInsurance",
						"label": "weatherOracle",
						"offset": 0,
						"slot": "1",
						"type": "t_contract(AggregatorV3Interface)45"
					},
					{
						"astId": 235,
						"contract": "submissions/Zora/CropTnsurance.sol:CropInsurance",
						"label": "ethUsdPriceFeed",
						"offset": 0,
						"slot": "2",
						"type": "t_contract(AggregatorV3Interface)45"
					},
					{
						"astId": 248,
						"contract": "submissions/Zora/CropTnsurance.sol:CropInsurance",
						"label": "hasInsurance",
						"offset": 0,
						"slot": "3",
						"type": "t_mapping(t_address,t_bool)"
					},
					{
						"astId": 252,
						"contract": "submissions/Zora/CropTnsurance.sol:CropInsurance",
						"label": "lastClaimTimestamp",
						"offset": 0,
						"slot": "4",
						"type": "t_mapping(t_address,t_uint256)"
					}
				],
				"types": {
					"t_address": {
						"encoding": "inplace",
						"label": "address",
						"numberOfBytes": "20"
					},
					"t_bool": {
						"encoding": "inplace",
						"label": "bool",
						"numberOfBytes": "1"
					},
					"t_contract(AggregatorV3Interface)45": {
						"encoding": "inplace",
						"label": "contract AggregatorV3Interface",
						"numberOfBytes": "20"
					},
					"t_mapping(t_address,t_bool)": {
						"encoding": "mapping",
						"key": "t_address",
						"label": "mapping(address => bool)",
						"numberOfBytes": "32",
						"value": "t_bool"
					},
					"t_mapping(t_address,t_uint256)": {
						"encoding": "mapping",
						"key": "t_address",
						"label": "mapping(address => uint256)",
						"numberOfBytes": "32",
						"value": "t_uint256"
					},
					"t_uint256": {
						"encoding": "inplace",
						"label": "uint256",
						"numberOfBytes": "32"
					}
				}
			},
			"userdoc": {
				"kind": "user",
				"methods": {},
				"version": 1
			}
		}
	}
}