{
	"submissions/SimpleNFT.sol": {
		"SimpleNFT": {
			"abi": [
				{
					"inputs": [
						{
							"internalType": "string",
							"name": "name_",
							"type": "string"
						},
						{
							"internalType": "string",
							"name": "symbol_",
							"type": "string"
						}
					],
					"stateMutability": "nonpayable",
					"type": "constructor"
				},
				{
					"anonymous": false,
					"inputs": [
						{
							"indexed": true,
							"internalType": "address",
							"name": "owner",
							"type": "address"
						},
						{
							"indexed": true,
							"internalType": "address",
							"name": "approved",
							"type": "address"
						},
						{
							"indexed": true,
							"internalType": "uint256",
							"name": "tokenId",
							"type": "uint256"
						}
					],
					"name": "Approval",
					"type": "event"
				},
				{
					"anonymous": false,
					"inputs": [
						{
							"indexed": true,
							"internalType": "address",
							"name": "owner",
							"type": "address"
						},
						{
							"indexed": true,
							"internalType": "address",
							"name": "operator",
							"type": "address"
						},
						{
							"indexed": false,
							"internalType": "bool",
							"name": "approved",
							"type": "bool"
						}
					],
					"name": "ApprovalForAll",
					"type": "event"
				},
				{
					"anonymous": false,
					"inputs": [
						{
							"indexed": true,
							"internalType": "address",
							"name": "from",
							"type": "address"
						},
						{
							"indexed": true,
							"internalType": "address",
							"name": "to",
							"type": "address"
						},
						{
							"indexed": true,
							"internalType": "uint256",
							"name": "tokenId",
							"type": "uint256"
						}
					],
					"name": "Transfer",
					"type": "event"
				},
				{
					"inputs": [
						{
							"internalType": "address",
							"name": "to",
							"type": "address"
						},
						{
							"internalType": "uint256",
							"name": "tokenId",
							"type": "uint256"
						}
					],
					"name": "approve",
					"outputs": [],
					"stateMutability": "nonpayable",
					"type": "function"
				},
				{
					"inputs": [
						{
							"internalType": "address",
							"name": "owner",
							"type": "address"
						}
					],
					"name": "balanceOf",
					"outputs": [
						{
							"internalType": "uint256",
							"name": "",
							"type": "uint256"
						}
					],
					"stateMutability": "view",
					"type": "function"
				},
				{
					"inputs": [
						{
							"internalType": "uint256",
							"name": "tokenId",
							"type": "uint256"
						}
					],
					"name": "getApproved",
					"outputs": [
						{
							"internalType": "address",
							"name": "",
							"type": "address"
						}
					],
					"stateMutability": "view",
					"type": "function"
				},
				{
					"inputs": [
						{
							"internalType": "address",
							"name": "owner",
							"type": "address"
						},
						{
							"internalType": "address",
							"name": "operator",
							"type": "address"
						}
					],
					"name": "isApprovedForAll",
					"outputs": [
						{
							"internalType": "bool",
							"name": "",
							"type": "bool"
						}
					],
					"stateMutability": "view",
					"type": "function"
				},
				{
					"inputs": [
						{
							"internalType": "address",
							"name": "to",
							"type": "address"
						},
						{
							"internalType": "string",
							"name": "uri",
							"type": "string"
						}
					],
					"name": "mint",
					"outputs": [],
					"stateMutability": "nonpayable",
					"type": "function"
				},
				{
					"inputs": [],
					"name": "name",
					"outputs": [
						{
							"internalType": "string",
							"name": "",
							"type": "string"
						}
					],
					"stateMutability": "view",
					"type": "function"
				},
				{
					"inputs": [
						{
							"internalType": "uint256",
							"name": "tokenId",
							"type": "uint256"
						}
					],
					"name": "ownerOf",
					"outputs": [
						{
							"internalType": "address",
							"name": "",
							"type": "address"
						}
					],
					"stateMutability": "view",
					"type": "function"
				},
				{
					"inputs": [
						{
							"internalType": "address",
							"name": "from",
							"type": "address"
						},
						{
							"internalType": "address",
							"name": "to",
							"type": "address"
						},
						{
							"internalType": "uint256",
							"name": "tokenId",
							"type": "uint256"
						}
					],
					"name": "safeTransferFrom",
					"outputs": [],
					"stateMutability": "nonpayable",
					"type": "function"
				},
				{
					"inputs": [
						{
							"internalType": "address",
							"name": "from",
							"type": "address"
						},
						{
							"internalType": "address",
							"name": "to",
							"type": "address"
						},
						{
							"internalType": "uint256",
							"name": "tokenId",
							"type": "uint256"
						},
						{
							"internalType": "bytes",
							"name": "data",
							"type": "bytes"
						}
					],
					"name": "safeTransferFrom",
					"outputs": [],
					"stateMutability": "nonpayable",
					"type": "function"
				},
				{
					"inputs": [
						{
							"internalType": "address",
							"name": "operator",
							"type": "address"
						},
						{
							"internalType": "bool",
							"name": "approved",
							"type": "bool"
						}
					],
					"name": "setApprovalForAll",
					"outputs": [],
					"stateMutability": "nonpayable",
					"type": "function"
				},
				{
					"inputs": [],
					"name": "symbol",
					"outputs": [
						{
							"internalType": "string",
							"name": "",
							"type": "string"
						}
					],
					"stateMutability": "view",
					"type": "function"
				},
				{
					"inputs": [
						{
							"internalType": "uint256",
							"name": "tokenId",
							"type": "uint256"
						}
					],
					"name": "tokenURI",
					"outputs": [
						{
							"internalType": "string",
							"name": "",
							"type": "string"
						}
					],
					"stateMutability": "view",
					"type": "function"
				},
				{
					"inputs": [
						{
							"internalType": "address",
							"name": "from",
							"type": "address"
						},
						{
							"internalType": "address",
							"name": "to",
							"type": "address"
						},
						{
							"internalType": "uint256",
							"name": "tokenId",
							"type": "uint256"
						}
					],
					"name": "transferFrom",
					"outputs": [],
					"stateMutability": "nonpayable",
					"type": "function"
				}
			],
			"devdoc": {
				"kind": "dev",
				"methods": {},
				"version": 1
			},
			"evm": {
				"assembly": "    /* \"submissions/SimpleNFT.sol\":1250:5698  contract SimpleNFT is IERC721 {... */\n  mstore(0x40, 0x80)\n    /* \"submissions/SimpleNFT.sol\":1405:1406  1 */\n  0x01\n    /* \"submissions/SimpleNFT.sol\":1371:1406  uint256 private _tokenIdCounter = 1 */\n  0x02\n  sstore\n    /* \"submissions/SimpleNFT.sol\":1707:1821  constructor(string memory name_, string memory symbol_) {... */\n  callvalue\n  dup1\n  iszero\n  tag_1\n  jumpi\n  revert(0x00, 0x00)\ntag_1:\n  pop\n  mload(0x40)\n  sub(codesize, bytecodeSize)\n  dup1\n  bytecodeSize\n  dup4\n  codecopy\n  dup2\n  dup2\n  add\n  0x40\n  mstore\n  dup2\n  add\n  swap1\n  tag_2\n  swap2\n  swap1\n  tag_3\n  jump\t// in\ntag_2:\n    /* \"submissions/SimpleNFT.sol\":1781:1786  name_ */\n  dup2\n    /* \"submissions/SimpleNFT.sol\":1774:1778  name */\n  0x00\n    /* \"submissions/SimpleNFT.sol\":1774:1786  name = name_ */\n  swap1\n  dup2\n  tag_6\n  swap2\n  swap1\n  tag_7\n  jump\t// in\ntag_6:\n  pop\n    /* \"submissions/SimpleNFT.sol\":1806:1813  symbol_ */\n  dup1\n    /* \"submissions/SimpleNFT.sol\":1797:1803  symbol */\n  0x01\n    /* \"submissions/SimpleNFT.sol\":1797:1813  symbol = symbol_ */\n  swap1\n  dup2\n  tag_8\n  swap2\n  swap1\n  tag_7\n  jump\t// in\ntag_8:\n  pop\n    /* \"submissions/SimpleNFT.sol\":1707:1821  constructor(string memory name_, string memory symbol_) {... */\n  pop\n  pop\n    /* \"submissions/SimpleNFT.sol\":1250:5698  contract SimpleNFT is IERC721 {... */\n  jump(tag_9)\n    /* \"#utility.yul\":7:82   */\ntag_10:\n    /* \"#utility.yul\":40:46   */\n  0x00\n    /* \"#utility.yul\":73:75   */\n  0x40\n    /* \"#utility.yul\":67:76   */\n  mload\n    /* \"#utility.yul\":57:76   */\n  swap1\n  pop\n    /* \"#utility.yul\":7:82   */\n  swap1\n  jump\t// out\n    /* \"#utility.yul\":88:205   */\ntag_11:\n    /* \"#utility.yul\":197:198   */\n  0x00\n    /* \"#utility.yul\":194:195   */\n  0x00\n    /* \"#utility.yul\":187:199   */\n  revert\n    /* \"#utility.yul\":211:328   */\ntag_12:\n    /* \"#utility.yul\":320:321   */\n  0x00\n    /* \"#utility.yul\":317:318   */\n  0x00\n    /* \"#utility.yul\":310:322   */\n  revert\n    /* \"#utility.yul\":334:451   */\ntag_13:\n    /* \"#utility.yul\":443:444   */\n  0x00\n    /* \"#utility.yul\":440:441   */\n  0x00\n    /* \"#utility.yul\":433:445   */\n  revert\n    /* \"#utility.yul\":457:574   */\ntag_14:\n    /* \"#utility.yul\":566:567   */\n  0x00\n    /* \"#utility.yul\":563:564   */\n  0x00\n    /* \"#utility.yul\":556:568   */\n  revert\n    /* \"#utility.yul\":580:682   */\ntag_15:\n    /* \"#utility.yul\":621:627   */\n  0x00\n    /* \"#utility.yul\":672:674   */\n  0x1f\n    /* \"#utility.yul\":668:675   */\n  not\n    /* \"#utility.yul\":663:665   */\n  0x1f\n    /* \"#utility.yul\":656:661   */\n  dup4\n    /* \"#utility.yul\":652:666   */\n  add\n    /* \"#utility.yul\":648:676   */\n  and\n    /* \"#utility.yul\":638:676   */\n  swap1\n  pop\n    /* \"#utility.yul\":580:682   */\n  swap2\n  swap1\n  pop\n  jump\t// out\n    /* \"#utility.yul\":688:868   */\ntag_16:\n    /* \"#utility.yul\":736:813   */\n  0x4e487b7100000000000000000000000000000000000000000000000000000000\n    /* \"#utility.yul\":733:734   */\n  0x00\n    /* \"#utility.yul\":726:814   */\n  mstore\n    /* \"#utility.yul\":833:837   */\n  0x41\n    /* \"#utility.yul\":830:831   */\n  0x04\n    /* \"#utility.yul\":823:838   */\n  mstore\n    /* \"#utility.yul\":857:861   */\n  0x24\n    /* \"#utility.yul\":854:855   */\n  0x00\n    /* \"#utility.yul\":847:862   */\n  revert\n    /* \"#utility.yul\":874:1155   */\ntag_17:\n    /* \"#utility.yul\":957:984   */\n  tag_51\n    /* \"#utility.yul\":979:983   */\n  dup3\n    /* \"#utility.yul\":957:984   */\n  tag_15\n  jump\t// in\ntag_51:\n    /* \"#utility.yul\":949:955   */\n  dup2\n    /* \"#utility.yul\":945:985   */\n  add\n    /* \"#utility.yul\":1087:1093   */\n  dup2\n    /* \"#utility.yul\":1075:1085   */\n  dup2\n    /* \"#utility.yul\":1072:1094   */\n  lt\n    /* \"#utility.yul\":1051:1069   */\n  0xffffffffffffffff\n    /* \"#utility.yul\":1039:1049   */\n  dup3\n    /* \"#utility.yul\":1036:1070   */\n  gt\n    /* \"#utility.yul\":1033:1095   */\n  or\n    /* \"#utility.yul\":1030:1118   */\n  iszero\n  tag_52\n  jumpi\n    /* \"#utility.yul\":1098:1116   */\n  tag_53\n  tag_16\n  jump\t// in\ntag_53:\n    /* \"#utility.yul\":1030:1118   */\ntag_52:\n    /* \"#utility.yul\":1138:1148   */\n  dup1\n    /* \"#utility.yul\":1134:1136   */\n  0x40\n    /* \"#utility.yul\":1127:1149   */\n  mstore\n    /* \"#utility.yul\":917:1155   */\n  pop\n    /* \"#utility.yul\":874:1155   */\n  pop\n  pop\n  jump\t// out\n    /* \"#utility.yul\":1161:1290   */\ntag_18:\n    /* \"#utility.yul\":1195:1201   */\n  0x00\n    /* \"#utility.yul\":1222:1242   */\n  tag_55\n  tag_10\n  jump\t// in\ntag_55:\n    /* \"#utility.yul\":1212:1242   */\n  swap1\n  pop\n    /* \"#utility.yul\":1251:1284   */\n  tag_56\n    /* \"#utility.yul\":1279:1283   */\n  dup3\n    /* \"#utility.yul\":1271:1277   */\n  dup3\n    /* \"#utility.yul\":1251:1284   */\n  tag_17\n  jump\t// in\ntag_56:\n    /* \"#utility.yul\":1161:1290   */\n  swap2\n  swap1\n  pop\n  jump\t// out\n    /* \"#utility.yul\":1296:1604   */\ntag_19:\n    /* \"#utility.yul\":1358:1362   */\n  0x00\n    /* \"#utility.yul\":1448:1466   */\n  0xffffffffffffffff\n    /* \"#utility.yul\":1440:1446   */\n  dup3\n    /* \"#utility.yul\":1437:1467   */\n  gt\n    /* \"#utility.yul\":1434:1490   */\n  iszero\n  tag_58\n  jumpi\n    /* \"#utility.yul\":1470:1488   */\n  tag_59\n  tag_16\n  jump\t// in\ntag_59:\n    /* \"#utility.yul\":1434:1490   */\ntag_58:\n    /* \"#utility.yul\":1508:1537   */\n  tag_60\n    /* \"#utility.yul\":1530:1536   */\n  dup3\n    /* \"#utility.yul\":1508:1537   */\n  tag_15\n  jump\t// in\ntag_60:\n    /* \"#utility.yul\":1500:1537   */\n  swap1\n  pop\n    /* \"#utility.yul\":1592:1596   */\n  0x20\n    /* \"#utility.yul\":1586:1590   */\n  dup2\n    /* \"#utility.yul\":1582:1597   */\n  add\n    /* \"#utility.yul\":1574:1597   */\n  swap1\n  pop\n    /* \"#utility.yul\":1296:1604   */\n  swap2\n  swap1\n  pop\n  jump\t// out\n    /* \"#utility.yul\":1610:1749   */\ntag_20:\n    /* \"#utility.yul\":1699:1705   */\n  dup3\n    /* \"#utility.yul\":1694:1697   */\n  dup2\n    /* \"#utility.yul\":1689:1692   */\n  dup4\n    /* \"#utility.yul\":1683:1706   */\n  mcopy\n    /* \"#utility.yul\":1740:1741   */\n  0x00\n    /* \"#utility.yul\":1731:1737   */\n  dup4\n    /* \"#utility.yul\":1726:1729   */\n  dup4\n    /* \"#utility.yul\":1722:1738   */\n  add\n    /* \"#utility.yul\":1715:1742   */\n  mstore\n    /* \"#utility.yul\":1610:1749   */\n  pop\n  pop\n  pop\n  jump\t// out\n    /* \"#utility.yul\":1755:2189   */\ntag_21:\n    /* \"#utility.yul\":1844:1849   */\n  0x00\n    /* \"#utility.yul\":1869:1935   */\n  tag_63\n    /* \"#utility.yul\":1885:1934   */\n  tag_64\n    /* \"#utility.yul\":1927:1933   */\n  dup5\n    /* \"#utility.yul\":1885:1934   */\n  tag_19\n  jump\t// in\ntag_64:\n    /* \"#utility.yul\":1869:1935   */\n  tag_18\n  jump\t// in\ntag_63:\n    /* \"#utility.yul\":1860:1935   */\n  swap1\n  pop\n    /* \"#utility.yul\":1958:1964   */\n  dup3\n    /* \"#utility.yul\":1951:1956   */\n  dup2\n    /* \"#utility.yul\":1944:1965   */\n  mstore\n    /* \"#utility.yul\":1996:2000   */\n  0x20\n    /* \"#utility.yul\":1989:1994   */\n  dup2\n    /* \"#utility.yul\":1985:2001   */\n  add\n    /* \"#utility.yul\":2034:2037   */\n  dup5\n    /* \"#utility.yul\":2025:2031   */\n  dup5\n    /* \"#utility.yul\":2020:2023   */\n  dup5\n    /* \"#utility.yul\":2016:2032   */\n  add\n    /* \"#utility.yul\":2013:2038   */\n  gt\n    /* \"#utility.yul\":2010:2122   */\n  iszero\n  tag_65\n  jumpi\n    /* \"#utility.yul\":2041:2120   */\n  tag_66\n  tag_14\n  jump\t// in\ntag_66:\n    /* \"#utility.yul\":2010:2122   */\ntag_65:\n    /* \"#utility.yul\":2131:2183   */\n  tag_67\n    /* \"#utility.yul\":2176:2182   */\n  dup5\n    /* \"#utility.yul\":2171:2174   */\n  dup3\n    /* \"#utility.yul\":2166:2169   */\n  dup6\n    /* \"#utility.yul\":2131:2183   */\n  tag_20\n  jump\t// in\ntag_67:\n    /* \"#utility.yul\":1850:2189   */\n  pop\n    /* \"#utility.yul\":1755:2189   */\n  swap4\n  swap3\n  pop\n  pop\n  pop\n  jump\t// out\n    /* \"#utility.yul\":2209:2564   */\ntag_22:\n    /* \"#utility.yul\":2276:2281   */\n  0x00\n    /* \"#utility.yul\":2325:2328   */\n  dup3\n    /* \"#utility.yul\":2318:2322   */\n  0x1f\n    /* \"#utility.yul\":2310:2316   */\n  dup4\n    /* \"#utility.yul\":2306:2323   */\n  add\n    /* \"#utility.yul\":2302:2329   */\n  slt\n    /* \"#utility.yul\":2292:2414   */\n  tag_69\n  jumpi\n    /* \"#utility.yul\":2333:2412   */\n  tag_70\n  tag_13\n  jump\t// in\ntag_70:\n    /* \"#utility.yul\":2292:2414   */\ntag_69:\n    /* \"#utility.yul\":2443:2449   */\n  dup2\n    /* \"#utility.yul\":2437:2450   */\n  mload\n    /* \"#utility.yul\":2468:2558   */\n  tag_71\n    /* \"#utility.yul\":2554:2557   */\n  dup5\n    /* \"#utility.yul\":2546:2552   */\n  dup3\n    /* \"#utility.yul\":2539:2543   */\n  0x20\n    /* \"#utility.yul\":2531:2537   */\n  dup7\n    /* \"#utility.yul\":2527:2544   */\n  add\n    /* \"#utility.yul\":2468:2558   */\n  tag_21\n  jump\t// in\ntag_71:\n    /* \"#utility.yul\":2459:2558   */\n  swap2\n  pop\n    /* \"#utility.yul\":2282:2564   */\n  pop\n    /* \"#utility.yul\":2209:2564   */\n  swap3\n  swap2\n  pop\n  pop\n  jump\t// out\n    /* \"#utility.yul\":2570:3423   */\ntag_3:\n    /* \"#utility.yul\":2669:2675   */\n  0x00\n    /* \"#utility.yul\":2677:2683   */\n  0x00\n    /* \"#utility.yul\":2726:2728   */\n  0x40\n    /* \"#utility.yul\":2714:2723   */\n  dup4\n    /* \"#utility.yul\":2705:2712   */\n  dup6\n    /* \"#utility.yul\":2701:2724   */\n  sub\n    /* \"#utility.yul\":2697:2729   */\n  slt\n    /* \"#utility.yul\":2694:2813   */\n  iszero\n  tag_73\n  jumpi\n    /* \"#utility.yul\":2732:2811   */\n  tag_74\n  tag_11\n  jump\t// in\ntag_74:\n    /* \"#utility.yul\":2694:2813   */\ntag_73:\n    /* \"#utility.yul\":2873:2874   */\n  0x00\n    /* \"#utility.yul\":2862:2871   */\n  dup4\n    /* \"#utility.yul\":2858:2875   */\n  add\n    /* \"#utility.yul\":2852:2876   */\n  mload\n    /* \"#utility.yul\":2903:2921   */\n  0xffffffffffffffff\n    /* \"#utility.yul\":2895:2901   */\n  dup2\n    /* \"#utility.yul\":2892:2922   */\n  gt\n    /* \"#utility.yul\":2889:3006   */\n  iszero\n  tag_75\n  jumpi\n    /* \"#utility.yul\":2925:3004   */\n  tag_76\n  tag_12\n  jump\t// in\ntag_76:\n    /* \"#utility.yul\":2889:3006   */\ntag_75:\n    /* \"#utility.yul\":3030:3104   */\n  tag_77\n    /* \"#utility.yul\":3096:3103   */\n  dup6\n    /* \"#utility.yul\":3087:3093   */\n  dup3\n    /* \"#utility.yul\":3076:3085   */\n  dup7\n    /* \"#utility.yul\":3072:3094   */\n  add\n    /* \"#utility.yul\":3030:3104   */\n  tag_22\n  jump\t// in\ntag_77:\n    /* \"#utility.yul\":3020:3104   */\n  swap3\n  pop\n    /* \"#utility.yul\":2823:3114   */\n  pop\n    /* \"#utility.yul\":3174:3176   */\n  0x20\n    /* \"#utility.yul\":3163:3172   */\n  dup4\n    /* \"#utility.yul\":3159:3177   */\n  add\n    /* \"#utility.yul\":3153:3178   */\n  mload\n    /* \"#utility.yul\":3205:3223   */\n  0xffffffffffffffff\n    /* \"#utility.yul\":3197:3203   */\n  dup2\n    /* \"#utility.yul\":3194:3224   */\n  gt\n    /* \"#utility.yul\":3191:3308   */\n  iszero\n  tag_78\n  jumpi\n    /* \"#utility.yul\":3227:3306   */\n  tag_79\n  tag_12\n  jump\t// in\ntag_79:\n    /* \"#utility.yul\":3191:3308   */\ntag_78:\n    /* \"#utility.yul\":3332:3406   */\n  tag_80\n    /* \"#utility.yul\":3398:3405   */\n  dup6\n    /* \"#utility.yul\":3389:3395   */\n  dup3\n    /* \"#utility.yul\":3378:3387   */\n  dup7\n    /* \"#utility.yul\":3374:3396   */\n  add\n    /* \"#utility.yul\":3332:3406   */\n  tag_22\n  jump\t// in\ntag_80:\n    /* \"#utility.yul\":3322:3406   */\n  swap2\n  pop\n    /* \"#utility.yul\":3124:3416   */\n  pop\n    /* \"#utility.yul\":2570:3423   */\n  swap3\n  pop\n  swap3\n  swap1\n  pop\n  jump\t// out\n    /* \"#utility.yul\":3429:3528   */\ntag_23:\n    /* \"#utility.yul\":3481:3487   */\n  0x00\n    /* \"#utility.yul\":3515:3520   */\n  dup2\n    /* \"#utility.yul\":3509:3521   */\n  mload\n    /* \"#utility.yul\":3499:3521   */\n  swap1\n  pop\n    /* \"#utility.yul\":3429:3528   */\n  swap2\n  swap1\n  pop\n  jump\t// out\n    /* \"#utility.yul\":3534:3714   */\ntag_24:\n    /* \"#utility.yul\":3582:3659   */\n  0x4e487b7100000000000000000000000000000000000000000000000000000000\n    /* \"#utility.yul\":3579:3580   */\n  0x00\n    /* \"#utility.yul\":3572:3660   */\n  mstore\n    /* \"#utility.yul\":3679:3683   */\n  0x22\n    /* \"#utility.yul\":3676:3677   */\n  0x04\n    /* \"#utility.yul\":3669:3684   */\n  mstore\n    /* \"#utility.yul\":3703:3707   */\n  0x24\n    /* \"#utility.yul\":3700:3701   */\n  0x00\n    /* \"#utility.yul\":3693:3708   */\n  revert\n    /* \"#utility.yul\":3720:4040   */\ntag_25:\n    /* \"#utility.yul\":3764:3770   */\n  0x00\n    /* \"#utility.yul\":3801:3802   */\n  0x02\n    /* \"#utility.yul\":3795:3799   */\n  dup3\n    /* \"#utility.yul\":3791:3803   */\n  div\n    /* \"#utility.yul\":3781:3803   */\n  swap1\n  pop\n    /* \"#utility.yul\":3848:3849   */\n  0x01\n    /* \"#utility.yul\":3842:3846   */\n  dup3\n    /* \"#utility.yul\":3838:3850   */\n  and\n    /* \"#utility.yul\":3869:3887   */\n  dup1\n    /* \"#utility.yul\":3859:3940   */\n  tag_84\n  jumpi\n    /* \"#utility.yul\":3925:3929   */\n  0x7f\n    /* \"#utility.yul\":3917:3923   */\n  dup3\n    /* \"#utility.yul\":3913:3930   */\n  and\n    /* \"#utility.yul\":3903:3930   */\n  swap2\n  pop\n    /* \"#utility.yul\":3859:3940   */\ntag_84:\n    /* \"#utility.yul\":3987:3989   */\n  0x20\n    /* \"#utility.yul\":3979:3985   */\n  dup3\n    /* \"#utility.yul\":3976:3990   */\n  lt\n    /* \"#utility.yul\":3956:3974   */\n  dup2\n    /* \"#utility.yul\":3953:3991   */\n  sub\n    /* \"#utility.yul\":3950:4034   */\n  tag_85\n  jumpi\n    /* \"#utility.yul\":4006:4024   */\n  tag_86\n  tag_24\n  jump\t// in\ntag_86:\n    /* \"#utility.yul\":3950:4034   */\ntag_85:\n    /* \"#utility.yul\":3771:4040   */\n  pop\n    /* \"#utility.yul\":3720:4040   */\n  swap2\n  swap1\n  pop\n  jump\t// out\n    /* \"#utility.yul\":4046:4187   */\ntag_26:\n    /* \"#utility.yul\":4095:4099   */\n  0x00\n    /* \"#utility.yul\":4118:4121   */\n  dup2\n    /* \"#utility.yul\":4110:4121   */\n  swap1\n  pop\n    /* \"#utility.yul\":4141:4144   */\n  dup2\n    /* \"#utility.yul\":4138:4139   */\n  0x00\n    /* \"#utility.yul\":4131:4145   */\n  mstore\n    /* \"#utility.yul\":4175:4179   */\n  0x20\n    /* \"#utility.yul\":4172:4173   */\n  0x00\n    /* \"#utility.yul\":4162:4180   */\n  keccak256\n    /* \"#utility.yul\":4154:4180   */\n  swap1\n  pop\n    /* \"#utility.yul\":4046:4187   */\n  swap2\n  swap1\n  pop\n  jump\t// out\n    /* \"#utility.yul\":4193:4286   */\ntag_27:\n    /* \"#utility.yul\":4230:4236   */\n  0x00\n    /* \"#utility.yul\":4277:4279   */\n  0x20\n    /* \"#utility.yul\":4272:4274   */\n  0x1f\n    /* \"#utility.yul\":4265:4270   */\n  dup4\n    /* \"#utility.yul\":4261:4275   */\n  add\n    /* \"#utility.yul\":4257:4280   */\n  div\n    /* \"#utility.yul\":4247:4280   */\n  swap1\n  pop\n    /* \"#utility.yul\":4193:4286   */\n  swap2\n  swap1\n  pop\n  jump\t// out\n    /* \"#utility.yul\":4292:4399   */\ntag_28:\n    /* \"#utility.yul\":4336:4344   */\n  0x00\n    /* \"#utility.yul\":4386:4391   */\n  dup3\n    /* \"#utility.yul\":4380:4384   */\n  dup3\n    /* \"#utility.yul\":4376:4392   */\n  shl\n    /* \"#utility.yul\":4355:4392   */\n  swap1\n  pop\n    /* \"#utility.yul\":4292:4399   */\n  swap3\n  swap2\n  pop\n  pop\n  jump\t// out\n    /* \"#utility.yul\":4405:4798   */\ntag_29:\n    /* \"#utility.yul\":4474:4480   */\n  0x00\n    /* \"#utility.yul\":4524:4525   */\n  0x08\n    /* \"#utility.yul\":4512:4522   */\n  dup4\n    /* \"#utility.yul\":4508:4526   */\n  mul\n    /* \"#utility.yul\":4547:4644   */\n  tag_91\n    /* \"#utility.yul\":4577:4643   */\n  0xffffffffffffffffffffffffffffffffffffffffffffffffffffffffffffffff\n    /* \"#utility.yul\":4566:4575   */\n  dup3\n    /* \"#utility.yul\":4547:4644   */\n  tag_28\n  jump\t// in\ntag_91:\n    /* \"#utility.yul\":4665:4704   */\n  tag_92\n    /* \"#utility.yul\":4695:4703   */\n  dup7\n    /* \"#utility.yul\":4684:4693   */\n  dup4\n    /* \"#utility.yul\":4665:4704   */\n  tag_28\n  jump\t// in\ntag_92:\n    /* \"#utility.yul\":4653:4704   */\n  swap6\n  pop\n    /* \"#utility.yul\":4737:4741   */\n  dup1\n    /* \"#utility.yul\":4733:4742   */\n  not\n    /* \"#utility.yul\":4726:4731   */\n  dup5\n    /* \"#utility.yul\":4722:4743   */\n  and\n    /* \"#utility.yul\":4713:4743   */\n  swap4\n  pop\n    /* \"#utility.yul\":4786:4790   */\n  dup1\n    /* \"#utility.yul\":4776:4784   */\n  dup7\n    /* \"#utility.yul\":4772:4791   */\n  and\n    /* \"#utility.yul\":4765:4770   */\n  dup5\n    /* \"#utility.yul\":4762:4792   */\n  or\n    /* \"#utility.yul\":4752:4792   */\n  swap3\n  pop\n    /* \"#utility.yul\":4481:4798   */\n  pop\n  pop\n    /* \"#utility.yul\":4405:4798   */\n  swap4\n  swap3\n  pop\n  pop\n  pop\n  jump\t// out\n    /* \"#utility.yul\":4804:4881   */\ntag_30:\n    /* \"#utility.yul\":4841:4848   */\n  0x00\n    /* \"#utility.yul\":4870:4875   */\n  dup2\n    /* \"#utility.yul\":4859:4875   */\n  swap1\n  pop\n    /* \"#utility.yul\":4804:4881   */\n  swap2\n  swap1\n  pop\n  jump\t// out\n    /* \"#utility.yul\":4887:4947   */\ntag_31:\n    /* \"#utility.yul\":4915:4918   */\n  0x00\n    /* \"#utility.yul\":4936:4941   */\n  dup2\n    /* \"#utility.yul\":4929:4941   */\n  swap1\n  pop\n    /* \"#utility.yul\":4887:4947   */\n  swap2\n  swap1\n  pop\n  jump\t// out\n    /* \"#utility.yul\":4953:5095   */\ntag_32:\n    /* \"#utility.yul\":5003:5012   */\n  0x00\n    /* \"#utility.yul\":5036:5089   */\n  tag_96\n    /* \"#utility.yul\":5054:5088   */\n  tag_97\n    /* \"#utility.yul\":5063:5087   */\n  tag_98\n    /* \"#utility.yul\":5081:5086   */\n  dup5\n    /* \"#utility.yul\":5063:5087   */\n  tag_30\n  jump\t// in\ntag_98:\n    /* \"#utility.yul\":5054:5088   */\n  tag_31\n  jump\t// in\ntag_97:\n    /* \"#utility.yul\":5036:5089   */\n  tag_30\n  jump\t// in\ntag_96:\n    /* \"#utility.yul\":5023:5089   */\n  swap1\n  pop\n    /* \"#utility.yul\":4953:5095   */\n  swap2\n  swap1\n  pop\n  jump\t// out\n    /* \"#utility.yul\":5101:5176   */\ntag_33:\n    /* \"#utility.yul\":5144:5147   */\n  0x00\n    /* \"#utility.yul\":5165:5170   */\n  dup2\n    /* \"#utility.yul\":5158:5170   */\n  swap1\n  pop\n    /* \"#utility.yul\":5101:5176   */\n  swap2\n  swap1\n  pop\n  jump\t// out\n    /* \"#utility.yul\":5182:5451   */\ntag_34:\n    /* \"#utility.yul\":5292:5331   */\n  tag_101\n    /* \"#utility.yul\":5323:5330   */\n  dup4\n    /* \"#utility.yul\":5292:5331   */\n  tag_32\n  jump\t// in\ntag_101:\n    /* \"#utility.yul\":5353:5444   */\n  tag_102\n    /* \"#utility.yul\":5402:5443   */\n  tag_103\n    /* \"#utility.yul\":5426:5442   */\n  dup3\n    /* \"#utility.yul\":5402:5443   */\n  tag_33\n  jump\t// in\ntag_103:\n    /* \"#utility.yul\":5394:5400   */\n  dup5\n    /* \"#utility.yul\":5387:5391   */\n  dup5\n    /* \"#utility.yul\":5381:5392   */\n  sload\n    /* \"#utility.yul\":5353:5444   */\n  tag_29\n  jump\t// in\ntag_102:\n    /* \"#utility.yul\":5347:5351   */\n  dup3\n    /* \"#utility.yul\":5340:5445   */\n  sstore\n    /* \"#utility.yul\":5258:5451   */\n  pop\n    /* \"#utility.yul\":5182:5451   */\n  pop\n  pop\n  pop\n  jump\t// out\n    /* \"#utility.yul\":5457:5530   */\ntag_35:\n    /* \"#utility.yul\":5502:5505   */\n  0x00\n    /* \"#utility.yul\":5523:5524   */\n  0x00\n    /* \"#utility.yul\":5516:5524   */\n  swap1\n  pop\n    /* \"#utility.yul\":5457:5530   */\n  swap1\n  jump\t// out\n    /* \"#utility.yul\":5536:5725   */\ntag_36:\n    /* \"#utility.yul\":5613:5645   */\n  tag_106\n  tag_35\n  jump\t// in\ntag_106:\n    /* \"#utility.yul\":5654:5719   */\n  tag_107\n    /* \"#utility.yul\":5712:5718   */\n  dup2\n    /* \"#utility.yul\":5704:5710   */\n  dup5\n    /* \"#utility.yul\":5698:5702   */\n  dup5\n    /* \"#utility.yul\":5654:5719   */\n  tag_34\n  jump\t// in\ntag_107:\n    /* \"#utility.yul\":5589:5725   */\n  pop\n    /* \"#utility.yul\":5536:5725   */\n  pop\n  pop\n  jump\t// out\n    /* \"#utility.yul\":5731:5917   */\ntag_37:\n    /* \"#utility.yul\":5791:5911   */\ntag_109:\n    /* \"#utility.yul\":5808:5811   */\n  dup2\n    /* \"#utility.yul\":5801:5806   */\n  dup2\n    /* \"#utility.yul\":5798:5812   */\n  lt\n    /* \"#utility.yul\":5791:5911   */\n  iszero\n  tag_111\n  jumpi\n    /* \"#utility.yul\":5862:5901   */\n  tag_112\n    /* \"#utility.yul\":5899:5900   */\n  0x00\n    /* \"#utility.yul\":5892:5897   */\n  dup3\n    /* \"#utility.yul\":5862:5901   */\n  tag_36\n  jump\t// in\ntag_112:\n    /* \"#utility.yul\":5835:5836   */\n  0x01\n    /* \"#utility.yul\":5828:5833   */\n  dup2\n    /* \"#utility.yul\":5824:5837   */\n  add\n    /* \"#utility.yul\":5815:5837   */\n  swap1\n  pop\n    /* \"#utility.yul\":5791:5911   */\n  jump(tag_109)\ntag_111:\n    /* \"#utility.yul\":5731:5917   */\n  pop\n  pop\n  jump\t// out\n    /* \"#utility.yul\":5923:6466   */\ntag_38:\n    /* \"#utility.yul\":6024:6026   */\n  0x1f\n    /* \"#utility.yul\":6019:6022   */\n  dup3\n    /* \"#utility.yul\":6016:6027   */\n  gt\n    /* \"#utility.yul\":6013:6459   */\n  iszero\n  tag_114\n  jumpi\n    /* \"#utility.yul\":6058:6096   */\n  tag_115\n    /* \"#utility.yul\":6090:6095   */\n  dup2\n    /* \"#utility.yul\":6058:6096   */\n  tag_26\n  jump\t// in\ntag_115:\n    /* \"#utility.yul\":6142:6171   */\n  tag_116\n    /* \"#utility.yul\":6160:6170   */\n  dup5\n    /* \"#utility.yul\":6142:6171   */\n  tag_27\n  jump\t// in\ntag_116:\n    /* \"#utility.yul\":6132:6140   */\n  dup2\n    /* \"#utility.yul\":6128:6172   */\n  add\n    /* \"#utility.yul\":6325:6327   */\n  0x20\n    /* \"#utility.yul\":6313:6323   */\n  dup6\n    /* \"#utility.yul\":6310:6328   */\n  lt\n    /* \"#utility.yul\":6307:6356   */\n  iszero\n  tag_117\n  jumpi\n    /* \"#utility.yul\":6346:6354   */\n  dup2\n    /* \"#utility.yul\":6331:6354   */\n  swap1\n  pop\n    /* \"#utility.yul\":6307:6356   */\ntag_117:\n    /* \"#utility.yul\":6369:6449   */\n  tag_118\n    /* \"#utility.yul\":6425:6447   */\n  tag_119\n    /* \"#utility.yul\":6443:6446   */\n  dup6\n    /* \"#utility.yul\":6425:6447   */\n  tag_27\n  jump\t// in\ntag_119:\n    /* \"#utility.yul\":6415:6423   */\n  dup4\n    /* \"#utility.yul\":6411:6448   */\n  add\n    /* \"#utility.yul\":6398:6409   */\n  dup3\n    /* \"#utility.yul\":6369:6449   */\n  tag_37\n  jump\t// in\ntag_118:\n    /* \"#utility.yul\":6028:6459   */\n  pop\n  pop\n    /* \"#utility.yul\":6013:6459   */\ntag_114:\n    /* \"#utility.yul\":5923:6466   */\n  pop\n  pop\n  pop\n  jump\t// out\n    /* \"#utility.yul\":6472:6589   */\ntag_39:\n    /* \"#utility.yul\":6526:6534   */\n  0x00\n    /* \"#utility.yul\":6576:6581   */\n  dup3\n    /* \"#utility.yul\":6570:6574   */\n  dup3\n    /* \"#utility.yul\":6566:6582   */\n  shr\n    /* \"#utility.yul\":6545:6582   */\n  swap1\n  pop\n    /* \"#utility.yul\":6472:6589   */\n  swap3\n  swap2\n  pop\n  pop\n  jump\t// out\n    /* \"#utility.yul\":6595:6764   */\ntag_40:\n    /* \"#utility.yul\":6639:6645   */\n  0x00\n    /* \"#utility.yul\":6672:6723   */\n  tag_122\n    /* \"#utility.yul\":6720:6721   */\n  0x00\n    /* \"#utility.yul\":6716:6722   */\n  not\n    /* \"#utility.yul\":6708:6713   */\n  dup5\n    /* \"#utility.yul\":6705:6706   */\n  0x08\n    /* \"#utility.yul\":6701:6714   */\n  mul\n    /* \"#utility.yul\":6672:6723   */\n  tag_39\n  jump\t// in\ntag_122:\n    /* \"#utility.yul\":6668:6724   */\n  not\n    /* \"#utility.yul\":6753:6757   */\n  dup1\n    /* \"#utility.yul\":6747:6751   */\n  dup4\n    /* \"#utility.yul\":6743:6758   */\n  and\n    /* \"#utility.yul\":6733:6758   */\n  swap2\n  pop\n    /* \"#utility.yul\":6646:6764   */\n  pop\n    /* \"#utility.yul\":6595:6764   */\n  swap3\n  swap2\n  pop\n  pop\n  jump\t// out\n    /* \"#utility.yul\":6769:7064   */\ntag_41:\n    /* \"#utility.yul\":6845:6849   */\n  0x00\n    /* \"#utility.yul\":6991:7020   */\n  tag_124\n    /* \"#utility.yul\":7016:7019   */\n  dup4\n    /* \"#utility.yul\":7010:7014   */\n  dup4\n    /* \"#utility.yul\":6991:7020   */\n  tag_40\n  jump\t// in\ntag_124:\n    /* \"#utility.yul\":6983:7020   */\n  swap2\n  pop\n    /* \"#utility.yul\":7053:7056   */\n  dup3\n    /* \"#utility.yul\":7050:7051   */\n  0x02\n    /* \"#utility.yul\":7046:7057   */\n  mul\n    /* \"#utility.yul\":7040:7044   */\n  dup3\n    /* \"#utility.yul\":7037:7058   */\n  or\n    /* \"#utility.yul\":7029:7058   */\n  swap1\n  pop\n    /* \"#utility.yul\":6769:7064   */\n  swap3\n  swap2\n  pop\n  pop\n  jump\t// out\n    /* \"#utility.yul\":7069:8464   */\ntag_7:\n    /* \"#utility.yul\":7186:7223   */\n  tag_126\n    /* \"#utility.yul\":7219:7222   */\n  dup3\n    /* \"#utility.yul\":7186:7223   */\n  tag_23\n  jump\t// in\ntag_126:\n    /* \"#utility.yul\":7288:7306   */\n  0xffffffffffffffff\n    /* \"#utility.yul\":7280:7286   */\n  dup2\n    /* \"#utility.yul\":7277:7307   */\n  gt\n    /* \"#utility.yul\":7274:7330   */\n  iszero\n  tag_127\n  jumpi\n    /* \"#utility.yul\":7310:7328   */\n  tag_128\n  tag_16\n  jump\t// in\ntag_128:\n    /* \"#utility.yul\":7274:7330   */\ntag_127:\n    /* \"#utility.yul\":7354:7392   */\n  tag_129\n    /* \"#utility.yul\":7386:7390   */\n  dup3\n    /* \"#utility.yul\":7380:7391   */\n  sload\n    /* \"#utility.yul\":7354:7392   */\n  tag_25\n  jump\t// in\ntag_129:\n    /* \"#utility.yul\":7439:7506   */\n  tag_130\n    /* \"#utility.yul\":7499:7505   */\n  dup3\n    /* \"#utility.yul\":7491:7497   */\n  dup3\n    /* \"#utility.yul\":7485:7489   */\n  dup6\n    /* \"#utility.yul\":7439:7506   */\n  tag_38\n  jump\t// in\ntag_130:\n    /* \"#utility.yul\":7533:7534   */\n  0x00\n    /* \"#utility.yul\":7557:7561   */\n  0x20\n    /* \"#utility.yul\":7544:7561   */\n  swap1\n  pop\n    /* \"#utility.yul\":7589:7591   */\n  0x1f\n    /* \"#utility.yul\":7581:7587   */\n  dup4\n    /* \"#utility.yul\":7578:7592   */\n  gt\n    /* \"#utility.yul\":7606:7607   */\n  0x01\n    /* \"#utility.yul\":7601:8219   */\n  dup2\n  eq\n  tag_132\n  jumpi\n    /* \"#utility.yul\":8263:8264   */\n  0x00\n    /* \"#utility.yul\":8280:8286   */\n  dup5\n    /* \"#utility.yul\":8277:8354   */\n  iszero\n  tag_133\n  jumpi\n    /* \"#utility.yul\":8329:8338   */\n  dup3\n    /* \"#utility.yul\":8324:8327   */\n  dup8\n    /* \"#utility.yul\":8320:8339   */\n  add\n    /* \"#utility.yul\":8314:8340   */\n  mload\n    /* \"#utility.yul\":8305:8340   */\n  swap1\n  pop\n    /* \"#utility.yul\":8277:8354   */\ntag_133:\n    /* \"#utility.yul\":8380:8447   */\n  tag_134\n    /* \"#utility.yul\":8440:8446   */\n  dup6\n    /* \"#utility.yul\":8433:8438   */\n  dup3\n    /* \"#utility.yul\":8380:8447   */\n  tag_41\n  jump\t// in\ntag_134:\n    /* \"#utility.yul\":8374:8378   */\n  dup7\n    /* \"#utility.yul\":8367:8448   */\n  sstore\n    /* \"#utility.yul\":8236:8458   */\n  pop\n    /* \"#utility.yul\":7571:8458   */\n  jump(tag_131)\n    /* \"#utility.yul\":7601:8219   */\ntag_132:\n    /* \"#utility.yul\":7653:7657   */\n  0x1f\n    /* \"#utility.yul\":7649:7658   */\n  not\n    /* \"#utility.yul\":7641:7647   */\n  dup5\n    /* \"#utility.yul\":7637:7659   */\n  and\n    /* \"#utility.yul\":7687:7724   */\n  tag_135\n    /* \"#utility.yul\":7719:7723   */\n  dup7\n    /* \"#utility.yul\":7687:7724   */\n  tag_26\n  jump\t// in\ntag_135:\n    /* \"#utility.yul\":7746:7747   */\n  0x00\n    /* \"#utility.yul\":7760:7968   */\ntag_136:\n    /* \"#utility.yul\":7774:7781   */\n  dup3\n    /* \"#utility.yul\":7771:7772   */\n  dup2\n    /* \"#utility.yul\":7768:7782   */\n  lt\n    /* \"#utility.yul\":7760:7968   */\n  iszero\n  tag_138\n  jumpi\n    /* \"#utility.yul\":7853:7862   */\n  dup5\n    /* \"#utility.yul\":7848:7851   */\n  dup10\n    /* \"#utility.yul\":7844:7863   */\n  add\n    /* \"#utility.yul\":7838:7864   */\n  mload\n    /* \"#utility.yul\":7830:7836   */\n  dup3\n    /* \"#utility.yul\":7823:7865   */\n  sstore\n    /* \"#utility.yul\":7904:7905   */\n  0x01\n    /* \"#utility.yul\":7896:7902   */\n  dup3\n    /* \"#utility.yul\":7892:7906   */\n  add\n    /* \"#utility.yul\":7882:7906   */\n  swap2\n  pop\n    /* \"#utility.yul\":7951:7953   */\n  0x20\n    /* \"#utility.yul\":7940:7949   */\n  dup6\n    /* \"#utility.yul\":7936:7954   */\n  add\n    /* \"#utility.yul\":7923:7954   */\n  swap5\n  pop\n    /* \"#utility.yul\":7797:7801   */\n  0x20\n    /* \"#utility.yul\":7794:7795   */\n  dup2\n    /* \"#utility.yul\":7790:7802   */\n  add\n    /* \"#utility.yul\":7785:7802   */\n  swap1\n  pop\n    /* \"#utility.yul\":7760:7968   */\n  jump(tag_136)\ntag_138:\n    /* \"#utility.yul\":7996:8002   */\n  dup7\n    /* \"#utility.yul\":7987:7994   */\n  dup4\n    /* \"#utility.yul\":7984:8003   */\n  lt\n    /* \"#utility.yul\":7981:8160   */\n  iszero\n  tag_139\n  jumpi\n    /* \"#utility.yul\":8054:8063   */\n  dup5\n    /* \"#utility.yul\":8049:8052   */\n  dup10\n    /* \"#utility.yul\":8045:8064   */\n  add\n    /* \"#utility.yul\":8039:8065   */\n  mload\n    /* \"#utility.yul\":8097:8145   */\n  tag_140\n    /* \"#utility.yul\":8139:8143   */\n  0x1f\n    /* \"#utility.yul\":8131:8137   */\n  dup10\n    /* \"#utility.yul\":8127:8144   */\n  and\n    /* \"#utility.yul\":8116:8125   */\n  dup3\n    /* \"#utility.yul\":8097:8145   */\n  tag_40\n  jump\t// in\ntag_140:\n    /* \"#utility.yul\":8089:8095   */\n  dup4\n    /* \"#utility.yul\":8082:8146   */\n  sstore\n    /* \"#utility.yul\":8004:8160   */\n  pop\n    /* \"#utility.yul\":7981:8160   */\ntag_139:\n    /* \"#utility.yul\":8206:8207   */\n  0x01\n    /* \"#utility.yul\":8202:8203   */\n  0x02\n    /* \"#utility.yul\":8194:8200   */\n  dup9\n    /* \"#utility.yul\":8190:8204   */\n  mul\n    /* \"#utility.yul\":8186:8208   */\n  add\n    /* \"#utility.yul\":8180:8184   */\n  dup9\n    /* \"#utility.yul\":8173:8209   */\n  sstore\n    /* \"#utility.yul\":7608:8219   */\n  pop\n  pop\n  pop\n    /* \"#utility.yul\":7571:8458   */\ntag_131:\n  pop\n    /* \"#utility.yul\":7161:8464   */\n  pop\n  pop\n  pop\n    /* \"#utility.yul\":7069:8464   */\n  pop\n  pop\n  jump\t// out\n    /* \"submissions/SimpleNFT.sol\":1250:5698  contract SimpleNFT is IERC721 {... */\ntag_9:\n  dataSize(sub_0)\n  dup1\n  dataOffset(sub_0)\n  0x00\n  codecopy\n  0x00\n  return\nstop\n\nsub_0: assembly {\n        /* \"submissions/SimpleNFT.sol\":1250:5698  contract SimpleNFT is IERC721 {... */\n      mstore(0x40, 0x80)\n      callvalue\n      dup1\n      iszero\n      tag_1\n      jumpi\n      revert(0x00, 0x00)\n    tag_1:\n      pop\n      jumpi(tag_2, lt(calldatasize, 0x04))\n      shr(0xe0, calldataload(0x00))\n      dup1\n      0x70a08231\n      gt\n      tag_16\n      jumpi\n      dup1\n      0xb88d4fde\n      gt\n      tag_17\n      jumpi\n      dup1\n      0xb88d4fde\n      eq\n      tag_12\n      jumpi\n      dup1\n      0xc87b56dd\n      eq\n      tag_13\n      jumpi\n      dup1\n      0xd0def521\n      eq\n      tag_14\n      jumpi\n      dup1\n      0xe985e9c5\n      eq\n      tag_15\n      jumpi\n      jump(tag_2)\n    tag_17:\n      dup1\n      0x70a08231\n      eq\n      tag_9\n      jumpi\n      dup1\n      0x95d89b41\n      eq\n      tag_10\n      jumpi\n      dup1\n      0xa22cb465\n      eq\n      tag_11\n      jumpi\n      jump(tag_2)\n    tag_16:\n      dup1\n      0x06fdde03\n      eq\n      tag_3\n      jumpi\n      dup1\n      0x081812fc\n      eq\n      tag_4\n      jumpi\n      dup1\n      0x095ea7b3\n      eq\n      tag_5\n      jumpi\n      dup1\n      0x23b872dd\n      eq\n      tag_6\n      jumpi\n      dup1\n      0x42842e0e\n      eq\n      tag_7\n      jumpi\n      dup1\n      0x6352211e\n      eq\n      tag_8\n      jumpi\n    tag_2:\n      revert(0x00, 0x00)\n        /* \"submissions/SimpleNFT.sol\":1287:1305  string public name */\n    tag_3:\n      tag_18\n      tag_19\n      jump\t// in\n    tag_18:\n      mload(0x40)\n      tag_20\n      swap2\n      swap1\n      tag_21\n      jump\t// in\n    tag_20:\n      mload(0x40)\n      dup1\n      swap2\n      sub\n      swap1\n      return\n        /* \"submissions/SimpleNFT.sol\":2575:2775  function getApproved(uint256 tokenId) public view override returns (address) {... */\n    tag_4:\n      tag_22\n      0x04\n      dup1\n      calldatasize\n      sub\n      dup2\n      add\n      swap1\n      tag_23\n      swap2\n      swap1\n      tag_24\n      jump\t// in\n    tag_23:\n      tag_25\n      jump\t// in\n    tag_22:\n      mload(0x40)\n      tag_26\n      swap2\n      swap1\n      tag_27\n      jump\t// in\n    tag_26:\n      mload(0x40)\n      dup1\n      swap2\n      sub\n      swap1\n      return\n        /* \"submissions/SimpleNFT.sol\":2224:2567  function approve(address to, uint256 tokenId) public override {... */\n    tag_5:\n      tag_28\n      0x04\n      dup1\n      calldatasize\n      sub\n      dup2\n      add\n      swap1\n      tag_29\n      swap2\n      swap1\n      tag_30\n      jump\t// in\n    tag_29:\n      tag_31\n      jump\t// in\n    tag_28:\n      stop\n        /* \"submissions/SimpleNFT.sol\":3222:3427  function transferFrom(address from, address to, uint256 tokenId) public override {... */\n    tag_6:\n      tag_32\n      0x04\n      dup1\n      calldatasize\n      sub\n      dup2\n      add\n      swap1\n      tag_33\n      swap2\n      swap1\n      tag_34\n      jump\t// in\n    tag_33:\n      tag_35\n      jump\t// in\n    tag_32:\n      stop\n        /* \"submissions/SimpleNFT.sol\":3435:3578  function safeTransferFrom(address from, address to, uint256 tokenId) public override {... */\n    tag_7:\n      tag_36\n      0x04\n      dup1\n      calldatasize\n      sub\n      dup2\n      add\n      swap1\n      tag_37\n      swap2\n      swap1\n      tag_34\n      jump\t// in\n    tag_37:\n      tag_38\n      jump\t// in\n    tag_36:\n      stop\n        /* \"submissions/SimpleNFT.sol\":2007:2216  function ownerOf(uint256 tokenId) public view override returns (address) {... */\n    tag_8:\n      tag_39\n      0x04\n      dup1\n      calldatasize\n      sub\n      dup2\n      add\n      swap1\n      tag_40\n      swap2\n      swap1\n      tag_24\n      jump\t// in\n    tag_40:\n      tag_41\n      jump\t// in\n    tag_39:\n      mload(0x40)\n      tag_42\n      swap2\n      swap1\n      tag_27\n      jump\t// in\n    tag_42:\n      mload(0x40)\n      dup1\n      swap2\n      sub\n      swap1\n      return\n        /* \"submissions/SimpleNFT.sol\":1829:1999  function balanceOf(address owner) public view override returns (uint256) {... */\n    tag_9:\n      tag_43\n      0x04\n      dup1\n      calldatasize\n      sub\n      dup2\n      add\n      swap1\n      tag_44\n      swap2\n      swap1\n      tag_45\n      jump\t// in\n    tag_44:\n      tag_46\n      jump\t// in\n    tag_43:\n      mload(0x40)\n      tag_47\n      swap2\n      swap1\n      tag_48\n      jump\t// in\n    tag_47:\n      mload(0x40)\n      dup1\n      swap2\n      sub\n      swap1\n      return\n        /* \"submissions/SimpleNFT.sol\":1327:1347  string public symbol */\n    tag_10:\n      tag_49\n      tag_50\n      jump\t// in\n    tag_49:\n      mload(0x40)\n      tag_51\n      swap2\n      swap1\n      tag_21\n      jump\t// in\n    tag_51:\n      mload(0x40)\n      dup1\n      swap2\n      sub\n      swap1\n      return\n        /* \"submissions/SimpleNFT.sol\":2783:3050  function setApprovalForAll(address operator, bool approved) public override {... */\n    tag_11:\n      tag_52\n      0x04\n      dup1\n      calldatasize\n      sub\n      dup2\n      add\n      swap1\n      tag_53\n      swap2\n      swap1\n      tag_54\n      jump\t// in\n    tag_53:\n      tag_55\n      jump\t// in\n    tag_52:\n      stop\n        /* \"submissions/SimpleNFT.sol\":3586:3824  function safeTransferFrom(address from, address to, uint256 tokenId, bytes memory data) public override {... */\n    tag_12:\n      tag_56\n      0x04\n      dup1\n      calldatasize\n      sub\n      dup2\n      add\n      swap1\n      tag_57\n      swap2\n      swap1\n      tag_58\n      jump\t// in\n    tag_57:\n      tag_59\n      jump\t// in\n    tag_56:\n      stop\n        /* \"submissions/SimpleNFT.sol\":4140:4329  function tokenURI(uint256 tokenId) public view returns (string memory) {... */\n    tag_13:\n      tag_60\n      0x04\n      dup1\n      calldatasize\n      sub\n      dup2\n      add\n      swap1\n      tag_61\n      swap2\n      swap1\n      tag_24\n      jump\t// in\n    tag_61:\n      tag_62\n      jump\t// in\n    tag_60:\n      mload(0x40)\n      tag_63\n      swap2\n      swap1\n      tag_21\n      jump\t// in\n    tag_63:\n      mload(0x40)\n      dup1\n      swap2\n      sub\n      swap1\n      return\n        /* \"submissions/SimpleNFT.sol\":3850:4132  function mint(address to, string memory uri) public {... */\n    tag_14:\n      tag_64\n      0x04\n      dup1\n      calldatasize\n      sub\n      dup2\n      add\n      swap1\n      tag_65\n      swap2\n      swap1\n      tag_66\n      jump\t// in\n    tag_65:\n      tag_67\n      jump\t// in\n    tag_64:\n      stop\n        /* \"submissions/SimpleNFT.sol\":3058:3214  function isApprovedForAll(address owner, address operator) public view override returns (bool) {... */\n    tag_15:\n      tag_68\n      0x04\n      dup1\n      calldatasize\n      sub\n      dup2\n      add\n      swap1\n      tag_69\n      swap2\n      swap1\n      tag_70\n      jump\t// in\n    tag_69:\n      tag_71\n      jump\t// in\n    tag_68:\n      mload(0x40)\n      tag_72\n      swap2\n      swap1\n      tag_73\n      jump\t// in\n    tag_72:\n      mload(0x40)\n      dup1\n      swap2\n      sub\n      swap1\n      return\n        /* \"submissions/SimpleNFT.sol\":1287:1305  string public name */\n    tag_19:\n      0x00\n      dup1\n      sload\n      tag_74\n      swap1\n      tag_75\n      jump\t// in\n    tag_74:\n      dup1\n      0x1f\n      add\n      0x20\n      dup1\n      swap2\n      div\n      mul\n      0x20\n      add\n      mload(0x40)\n      swap1\n      dup2\n      add\n      0x40\n      mstore\n      dup1\n      swap3\n      swap2\n      swap1\n      dup2\n      dup2\n      mstore\n      0x20\n      add\n      dup3\n      dup1\n      sload\n      tag_76\n      swap1\n      tag_75\n      jump\t// in\n    tag_76:\n      dup1\n      iszero\n      tag_77\n      jumpi\n      dup1\n      0x1f\n      lt\n      tag_78\n      jumpi\n      0x0100\n      dup1\n      dup4\n      sload\n      div\n      mul\n      dup4\n      mstore\n      swap2\n      0x20\n      add\n      swap2\n      jump(tag_77)\n    tag_78:\n      dup3\n      add\n      swap2\n      swap1\n      0x00\n      mstore\n      keccak256(0x00, 0x20)\n      swap1\n    tag_79:\n      dup2\n      sload\n      dup2\n      mstore\n      swap1\n      0x01\n      add\n      swap1\n      0x20\n      add\n      dup1\n      dup4\n      gt\n      tag_79\n      jumpi\n      dup3\n      swap1\n      sub\n      0x1f\n      and\n      dup3\n      add\n      swap2\n    tag_77:\n      pop\n      pop\n      pop\n      pop\n      pop\n      dup2\n      jump\t// out\n        /* \"submissions/SimpleNFT.sol\":2575:2775  function getApproved(uint256 tokenId) public view override returns (address) {... */\n    tag_25:\n        /* \"submissions/SimpleNFT.sol\":2643:2650  address */\n      0x00\n        /* \"submissions/SimpleNFT.sol\":2699:2700  0 */\n      0x00\n        /* \"submissions/SimpleNFT.sol\":2671:2701  _owners[tokenId] != address(0) */\n      0xffffffffffffffffffffffffffffffffffffffff\n      and\n        /* \"submissions/SimpleNFT.sol\":2671:2678  _owners */\n      0x03\n        /* \"submissions/SimpleNFT.sol\":2671:2687  _owners[tokenId] */\n      0x00\n        /* \"submissions/SimpleNFT.sol\":2679:2686  tokenId */\n      dup5\n        /* \"submissions/SimpleNFT.sol\":2671:2687  _owners[tokenId] */\n      dup2\n      mstore\n      0x20\n      add\n      swap1\n      dup2\n      mstore\n      0x20\n      add\n      0x00\n      keccak256\n      0x00\n      swap1\n      sload\n      swap1\n      0x0100\n      exp\n      swap1\n      div\n      0xffffffffffffffffffffffffffffffffffffffff\n      and\n        /* \"submissions/SimpleNFT.sol\":2671:2701  _owners[tokenId] != address(0) */\n      0xffffffffffffffffffffffffffffffffffffffff\n      and\n      sub\n        /* \"submissions/SimpleNFT.sol\":2663:2725  require(_owners[tokenId] != address(0), \"Token doesn't exist\") */\n      tag_81\n      jumpi\n      mload(0x40)\n      0x08c379a000000000000000000000000000000000000000000000000000000000\n      dup2\n      mstore\n      0x04\n      add\n      tag_82\n      swap1\n      tag_83\n      jump\t// in\n    tag_82:\n      mload(0x40)\n      dup1\n      swap2\n      sub\n      swap1\n      revert\n    tag_81:\n        /* \"submissions/SimpleNFT.sol\":2743:2758  _tokenApprovals */\n      0x05\n        /* \"submissions/SimpleNFT.sol\":2743:2767  _tokenApprovals[tokenId] */\n      0x00\n        /* \"submissions/SimpleNFT.sol\":2759:2766  tokenId */\n      dup4\n        /* \"submissions/SimpleNFT.sol\":2743:2767  _tokenApprovals[tokenId] */\n      dup2\n      mstore\n      0x20\n      add\n      swap1\n      dup2\n      mstore\n      0x20\n      add\n      0x00\n      keccak256\n      0x00\n      swap1\n      sload\n      swap1\n      0x0100\n      exp\n      swap1\n      div\n      0xffffffffffffffffffffffffffffffffffffffff\n      and\n        /* \"submissions/SimpleNFT.sol\":2736:2767  return _tokenApprovals[tokenId] */\n      swap1\n      pop\n        /* \"submissions/SimpleNFT.sol\":2575:2775  function getApproved(uint256 tokenId) public view override returns (address) {... */\n      swap2\n      swap1\n      pop\n      jump\t// out\n        /* \"submissions/SimpleNFT.sol\":2224:2567  function approve(address to, uint256 tokenId) public override {... */\n    tag_31:\n        /* \"submissions/SimpleNFT.sol\":2297:2310  address owner */\n      0x00\n        /* \"submissions/SimpleNFT.sol\":2313:2329  ownerOf(tokenId) */\n      tag_85\n        /* \"submissions/SimpleNFT.sol\":2321:2328  tokenId */\n      dup3\n        /* \"submissions/SimpleNFT.sol\":2313:2320  ownerOf */\n      tag_41\n        /* \"submissions/SimpleNFT.sol\":2313:2329  ownerOf(tokenId) */\n      jump\t// in\n    tag_85:\n        /* \"submissions/SimpleNFT.sol\":2297:2329  address owner = ownerOf(tokenId) */\n      swap1\n      pop\n        /* \"submissions/SimpleNFT.sol\":2354:2359  owner */\n      dup1\n        /* \"submissions/SimpleNFT.sol\":2348:2359  to != owner */\n      0xffffffffffffffffffffffffffffffffffffffff\n      and\n        /* \"submissions/SimpleNFT.sol\":2348:2350  to */\n      dup4\n        /* \"submissions/SimpleNFT.sol\":2348:2359  to != owner */\n      0xffffffffffffffffffffffffffffffffffffffff\n      and\n      sub\n        /* \"submissions/SimpleNFT.sol\":2340:2377  require(to != owner, \"Already owner\") */\n      tag_86\n      jumpi\n      mload(0x40)\n      0x08c379a000000000000000000000000000000000000000000000000000000000\n      dup2\n      mstore\n      0x04\n      add\n      tag_87\n      swap1\n      tag_88\n      jump\t// in\n    tag_87:\n      mload(0x40)\n      dup1\n      swap2\n      sub\n      swap1\n      revert\n    tag_86:\n        /* \"submissions/SimpleNFT.sol\":2410:2415  owner */\n      dup1\n        /* \"submissions/SimpleNFT.sol\":2396:2415  msg.sender == owner */\n      0xffffffffffffffffffffffffffffffffffffffff\n      and\n        /* \"submissions/SimpleNFT.sol\":2396:2406  msg.sender */\n      caller\n        /* \"submissions/SimpleNFT.sol\":2396:2415  msg.sender == owner */\n      0xffffffffffffffffffffffffffffffffffffffff\n      and\n      eq\n        /* \"submissions/SimpleNFT.sol\":2396:2454  msg.sender == owner || isApprovedForAll(owner, msg.sender) */\n      dup1\n      tag_89\n      jumpi\n      pop\n        /* \"submissions/SimpleNFT.sol\":2419:2454  isApprovedForAll(owner, msg.sender) */\n      tag_90\n        /* \"submissions/SimpleNFT.sol\":2436:2441  owner */\n      dup2\n        /* \"submissions/SimpleNFT.sol\":2443:2453  msg.sender */\n      caller\n        /* \"submissions/SimpleNFT.sol\":2419:2435  isApprovedForAll */\n      tag_71\n        /* \"submissions/SimpleNFT.sol\":2419:2454  isApprovedForAll(owner, msg.sender) */\n      jump\t// in\n    tag_90:\n        /* \"submissions/SimpleNFT.sol\":2396:2454  msg.sender == owner || isApprovedForAll(owner, msg.sender) */\n    tag_89:\n        /* \"submissions/SimpleNFT.sol\":2388:2473  require(msg.sender == owner || isApprovedForAll(owner, msg.sender), \"Not authorized\") */\n      tag_91\n      jumpi\n      mload(0x40)\n      0x08c379a000000000000000000000000000000000000000000000000000000000\n      dup2\n      mstore\n      0x04\n      add\n      tag_92\n      swap1\n      tag_93\n      jump\t// in\n    tag_92:\n      mload(0x40)\n      dup1\n      swap2\n      sub\n      swap1\n      revert\n    tag_91:\n        /* \"submissions/SimpleNFT.sol\":2513:2515  to */\n      dup3\n        /* \"submissions/SimpleNFT.sol\":2486:2501  _tokenApprovals */\n      0x05\n        /* \"submissions/SimpleNFT.sol\":2486:2510  _tokenApprovals[tokenId] */\n      0x00\n        /* \"submissions/SimpleNFT.sol\":2502:2509  tokenId */\n      dup5\n        /* \"submissions/SimpleNFT.sol\":2486:2510  _tokenApprovals[tokenId] */\n      dup2\n      mstore\n      0x20\n      add\n      swap1\n      dup2\n      mstore\n      0x20\n      add\n      0x00\n      keccak256\n      0x00\n        /* \"submissions/SimpleNFT.sol\":2486:2515  _tokenApprovals[tokenId] = to */\n      0x0100\n      exp\n      dup2\n      sload\n      dup2\n      0xffffffffffffffffffffffffffffffffffffffff\n      mul\n      not\n      and\n      swap1\n      dup4\n      0xffffffffffffffffffffffffffffffffffffffff\n      and\n      mul\n      or\n      swap1\n      sstore\n      pop\n        /* \"submissions/SimpleNFT.sol\":2551:2558  tokenId */\n      dup2\n        /* \"submissions/SimpleNFT.sol\":2547:2549  to */\n      dup4\n        /* \"submissions/SimpleNFT.sol\":2531:2559  Approval(owner, to, tokenId) */\n      0xffffffffffffffffffffffffffffffffffffffff\n      and\n        /* \"submissions/SimpleNFT.sol\":2540:2545  owner */\n      dup3\n        /* \"submissions/SimpleNFT.sol\":2531:2559  Approval(owner, to, tokenId) */\n      0xffffffffffffffffffffffffffffffffffffffff\n      and\n      0x8c5be1e5ebec7d5bd14f71427d1e84f3dd0314c0f7b2291e5b200ac8c7c3b925\n      mload(0x40)\n      mload(0x40)\n      dup1\n      swap2\n      sub\n      swap1\n      log4\n        /* \"submissions/SimpleNFT.sol\":2286:2567  {... */\n      pop\n        /* \"submissions/SimpleNFT.sol\":2224:2567  function approve(address to, uint256 tokenId) public override {... */\n      pop\n      pop\n      jump\t// out\n        /* \"submissions/SimpleNFT.sol\":3222:3427  function transferFrom(address from, address to, uint256 tokenId) public override {... */\n    tag_35:\n        /* \"submissions/SimpleNFT.sol\":3322:3361  _isApprovedOrOwner(msg.sender, tokenId) */\n      tag_95\n        /* \"submissions/SimpleNFT.sol\":3341:3351  msg.sender */\n      caller\n        /* \"submissions/SimpleNFT.sol\":3353:3360  tokenId */\n      dup3\n        /* \"submissions/SimpleNFT.sol\":3322:3340  _isApprovedOrOwner */\n      tag_96\n        /* \"submissions/SimpleNFT.sol\":3322:3361  _isApprovedOrOwner(msg.sender, tokenId) */\n      jump\t// in\n    tag_95:\n        /* \"submissions/SimpleNFT.sol\":3314:3380  require(_isApprovedOrOwner(msg.sender, tokenId), \"Not authorized\") */\n      tag_97\n      jumpi\n      mload(0x40)\n      0x08c379a000000000000000000000000000000000000000000000000000000000\n      dup2\n      mstore\n      0x04\n      add\n      tag_98\n      swap1\n      tag_93\n      jump\t// in\n    tag_98:\n      mload(0x40)\n      dup1\n      swap2\n      sub\n      swap1\n      revert\n    tag_97:\n        /* \"submissions/SimpleNFT.sol\":3391:3419  _transfer(from, to, tokenId) */\n      tag_99\n        /* \"submissions/SimpleNFT.sol\":3401:3405  from */\n      dup4\n        /* \"submissions/SimpleNFT.sol\":3407:3409  to */\n      dup4\n        /* \"submissions/SimpleNFT.sol\":3411:3418  tokenId */\n      dup4\n        /* \"submissions/SimpleNFT.sol\":3391:3400  _transfer */\n      tag_100\n        /* \"submissions/SimpleNFT.sol\":3391:3419  _transfer(from, to, tokenId) */\n      jump\t// in\n    tag_99:\n        /* \"submissions/SimpleNFT.sol\":3222:3427  function transferFrom(address from, address to, uint256 tokenId) public override {... */\n      pop\n      pop\n      pop\n      jump\t// out\n        /* \"submissions/SimpleNFT.sol\":3435:3578  function safeTransferFrom(address from, address to, uint256 tokenId) public override {... */\n    tag_38:\n        /* \"submissions/SimpleNFT.sol\":3531:3570  safeTransferFrom(from, to, tokenId, \"\") */\n      tag_102\n        /* \"submissions/SimpleNFT.sol\":3548:3552  from */\n      dup4\n        /* \"submissions/SimpleNFT.sol\":3554:3556  to */\n      dup4\n        /* \"submissions/SimpleNFT.sol\":3558:3565  tokenId */\n      dup4\n        /* \"submissions/SimpleNFT.sol\":3531:3570  safeTransferFrom(from, to, tokenId, \"\") */\n      mload(0x40)\n      dup1\n      0x20\n      add\n      0x40\n      mstore\n      dup1\n      0x00\n      dup2\n      mstore\n      pop\n        /* \"submissions/SimpleNFT.sol\":3531:3547  safeTransferFrom */\n      tag_59\n        /* \"submissions/SimpleNFT.sol\":3531:3570  safeTransferFrom(from, to, tokenId, \"\") */\n      jump\t// in\n    tag_102:\n        /* \"submissions/SimpleNFT.sol\":3435:3578  function safeTransferFrom(address from, address to, uint256 tokenId) public override {... */\n      pop\n      pop\n      pop\n      jump\t// out\n        /* \"submissions/SimpleNFT.sol\":2007:2216  function ownerOf(uint256 tokenId) public view override returns (address) {... */\n    tag_41:\n        /* \"submissions/SimpleNFT.sol\":2071:2078  address */\n      0x00\n        /* \"submissions/SimpleNFT.sol\":2091:2104  address owner */\n      0x00\n        /* \"submissions/SimpleNFT.sol\":2107:2114  _owners */\n      0x03\n        /* \"submissions/SimpleNFT.sol\":2107:2123  _owners[tokenId] */\n      0x00\n        /* \"submissions/SimpleNFT.sol\":2115:2122  tokenId */\n      dup5\n        /* \"submissions/SimpleNFT.sol\":2107:2123  _owners[tokenId] */\n      dup2\n      mstore\n      0x20\n      add\n      swap1\n      dup2\n      mstore\n      0x20\n      add\n      0x00\n      keccak256\n      0x00\n      swap1\n      sload\n      swap1\n      0x0100\n      exp\n      swap1\n      div\n      0xffffffffffffffffffffffffffffffffffffffff\n      and\n        /* \"submissions/SimpleNFT.sol\":2091:2123  address owner = _owners[tokenId] */\n      swap1\n      pop\n        /* \"submissions/SimpleNFT.sol\":2159:2160  0 */\n      0x00\n        /* \"submissions/SimpleNFT.sol\":2142:2161  owner != address(0) */\n      0xffffffffffffffffffffffffffffffffffffffff\n      and\n        /* \"submissions/SimpleNFT.sol\":2142:2147  owner */\n      dup2\n        /* \"submissions/SimpleNFT.sol\":2142:2161  owner != address(0) */\n      0xffffffffffffffffffffffffffffffffffffffff\n      and\n      sub\n        /* \"submissions/SimpleNFT.sol\":2134:2185  require(owner != address(0), \"Token doesn't exist\") */\n      tag_104\n      jumpi\n      mload(0x40)\n      0x08c379a000000000000000000000000000000000000000000000000000000000\n      dup2\n      mstore\n      0x04\n      add\n      tag_105\n      swap1\n      tag_83\n      jump\t// in\n    tag_105:\n      mload(0x40)\n      dup1\n      swap2\n      sub\n      swap1\n      revert\n    tag_104:\n        /* \"submissions/SimpleNFT.sol\":2203:2208  owner */\n      dup1\n        /* \"submissions/SimpleNFT.sol\":2196:2208  return owner */\n      swap2\n      pop\n      pop\n        /* \"submissions/SimpleNFT.sol\":2007:2216  function ownerOf(uint256 tokenId) public view override returns (address) {... */\n      swap2\n      swap1\n      pop\n      jump\t// out\n        /* \"submissions/SimpleNFT.sol\":1829:1999  function balanceOf(address owner) public view override returns (uint256) {... */\n    tag_46:\n        /* \"submissions/SimpleNFT.sol\":1893:1900  uint256 */\n      0x00\n        /* \"submissions/SimpleNFT.sol\":1938:1939  0 */\n      0x00\n        /* \"submissions/SimpleNFT.sol\":1921:1940  owner != address(0) */\n      0xffffffffffffffffffffffffffffffffffffffff\n      and\n        /* \"submissions/SimpleNFT.sol\":1921:1926  owner */\n      dup3\n        /* \"submissions/SimpleNFT.sol\":1921:1940  owner != address(0) */\n      0xffffffffffffffffffffffffffffffffffffffff\n      and\n      sub\n        /* \"submissions/SimpleNFT.sol\":1913:1957  require(owner != address(0), \"Zero address\") */\n      tag_107\n      jumpi\n      mload(0x40)\n      0x08c379a000000000000000000000000000000000000000000000000000000000\n      dup2\n      mstore\n      0x04\n      add\n      tag_108\n      swap1\n      tag_109\n      jump\t// in\n    tag_108:\n      mload(0x40)\n      dup1\n      swap2\n      sub\n      swap1\n      revert\n    tag_107:\n        /* \"submissions/SimpleNFT.sol\":1975:1984  _balances */\n      0x04\n        /* \"submissions/SimpleNFT.sol\":1975:1991  _balances[owner] */\n      0x00\n        /* \"submissions/SimpleNFT.sol\":1985:1990  owner */\n      dup4\n        /* \"submissions/SimpleNFT.sol\":1975:1991  _balances[owner] */\n      0xffffffffffffffffffffffffffffffffffffffff\n      and\n      0xffffffffffffffffffffffffffffffffffffffff\n      and\n      dup2\n      mstore\n      0x20\n      add\n      swap1\n      dup2\n      mstore\n      0x20\n      add\n      0x00\n      keccak256\n      sload\n        /* \"submissions/SimpleNFT.sol\":1968:1991  return _balances[owner] */\n      swap1\n      pop\n        /* \"submissions/SimpleNFT.sol\":1829:1999  function balanceOf(address owner) public view override returns (uint256) {... */\n      swap2\n      swap1\n      pop\n      jump\t// out\n        /* \"submissions/SimpleNFT.sol\":1327:1347  string public symbol */\n    tag_50:\n      0x01\n      dup1\n      sload\n      tag_110\n      swap1\n      tag_75\n      jump\t// in\n    tag_110:\n      dup1\n      0x1f\n      add\n      0x20\n      dup1\n      swap2\n      div\n      mul\n      0x20\n      add\n      mload(0x40)\n      swap1\n      dup2\n      add\n      0x40\n      mstore\n      dup1\n      swap3\n      swap2\n      swap1\n      dup2\n      dup2\n      mstore\n      0x20\n      add\n      dup3\n      dup1\n      sload\n      tag_111\n      swap1\n      tag_75\n      jump\t// in\n    tag_111:\n      dup1\n      iszero\n      tag_112\n      jumpi\n      dup1\n      0x1f\n      lt\n      tag_113\n      jumpi\n      0x0100\n      dup1\n      dup4\n      sload\n      div\n      mul\n      dup4\n      mstore\n      swap2\n      0x20\n      add\n      swap2\n      jump(tag_112)\n    tag_113:\n      dup3\n      add\n      swap2\n      swap1\n      0x00\n      mstore\n      keccak256(0x00, 0x20)\n      swap1\n    tag_114:\n      dup2\n      sload\n      dup2\n      mstore\n      swap1\n      0x01\n      add\n      swap1\n      0x20\n      add\n      dup1\n      dup4\n      gt\n      tag_114\n      jumpi\n      dup3\n      swap1\n      sub\n      0x1f\n      and\n      dup3\n      add\n      swap2\n    tag_112:\n      pop\n      pop\n      pop\n      pop\n      pop\n      dup2\n      jump\t// out\n        /* \"submissions/SimpleNFT.sol\":2783:3050  function setApprovalForAll(address operator, bool approved) public override {... */\n    tag_55:\n        /* \"submissions/SimpleNFT.sol\":2890:2900  msg.sender */\n      caller\n        /* \"submissions/SimpleNFT.sol\":2878:2900  operator != msg.sender */\n      0xffffffffffffffffffffffffffffffffffffffff\n      and\n        /* \"submissions/SimpleNFT.sol\":2878:2886  operator */\n      dup3\n        /* \"submissions/SimpleNFT.sol\":2878:2900  operator != msg.sender */\n      0xffffffffffffffffffffffffffffffffffffffff\n      and\n      sub\n        /* \"submissions/SimpleNFT.sol\":2870:2918  require(operator != msg.sender, \"Self approval\") */\n      tag_116\n      jumpi\n      mload(0x40)\n      0x08c379a000000000000000000000000000000000000000000000000000000000\n      dup2\n      mstore\n      0x04\n      add\n      tag_117\n      swap1\n      tag_118\n      jump\t// in\n    tag_117:\n      mload(0x40)\n      dup1\n      swap2\n      sub\n      swap1\n      revert\n    tag_116:\n        /* \"submissions/SimpleNFT.sol\":2972:2980  approved */\n      dup1\n        /* \"submissions/SimpleNFT.sol\":2929:2947  _operatorApprovals */\n      0x06\n        /* \"submissions/SimpleNFT.sol\":2929:2959  _operatorApprovals[msg.sender] */\n      0x00\n        /* \"submissions/SimpleNFT.sol\":2948:2958  msg.sender */\n      caller\n        /* \"submissions/SimpleNFT.sol\":2929:2959  _operatorApprovals[msg.sender] */\n      0xffffffffffffffffffffffffffffffffffffffff\n      and\n      0xffffffffffffffffffffffffffffffffffffffff\n      and\n      dup2\n      mstore\n      0x20\n      add\n      swap1\n      dup2\n      mstore\n      0x20\n      add\n      0x00\n      keccak256\n        /* \"submissions/SimpleNFT.sol\":2929:2969  _operatorApprovals[msg.sender][operator] */\n      0x00\n        /* \"submissions/SimpleNFT.sol\":2960:2968  operator */\n      dup5\n        /* \"submissions/SimpleNFT.sol\":2929:2969  _operatorApprovals[msg.sender][operator] */\n      0xffffffffffffffffffffffffffffffffffffffff\n      and\n      0xffffffffffffffffffffffffffffffffffffffff\n      and\n      dup2\n      mstore\n      0x20\n      add\n      swap1\n      dup2\n      mstore\n      0x20\n      add\n      0x00\n      keccak256\n      0x00\n        /* \"submissions/SimpleNFT.sol\":2929:2980  _operatorApprovals[msg.sender][operator] = approved */\n      0x0100\n      exp\n      dup2\n      sload\n      dup2\n      0xff\n      mul\n      not\n      and\n      swap1\n      dup4\n      iszero\n      iszero\n      mul\n      or\n      swap1\n      sstore\n      pop\n        /* \"submissions/SimpleNFT.sol\":3023:3031  operator */\n      dup2\n        /* \"submissions/SimpleNFT.sol\":2996:3042  ApprovalForAll(msg.sender, operator, approved) */\n      0xffffffffffffffffffffffffffffffffffffffff\n      and\n        /* \"submissions/SimpleNFT.sol\":3011:3021  msg.sender */\n      caller\n        /* \"submissions/SimpleNFT.sol\":2996:3042  ApprovalForAll(msg.sender, operator, approved) */\n      0xffffffffffffffffffffffffffffffffffffffff\n      and\n      0x17307eab39ab6107e8899845ad3d59bd9653f200f220920489ca2b5937696c31\n        /* \"submissions/SimpleNFT.sol\":3033:3041  approved */\n      dup4\n        /* \"submissions/SimpleNFT.sol\":2996:3042  ApprovalForAll(msg.sender, operator, approved) */\n      mload(0x40)\n      tag_119\n      swap2\n      swap1\n      tag_73\n      jump\t// in\n    tag_119:\n      mload(0x40)\n      dup1\n      swap2\n      sub\n      swap1\n      log3\n        /* \"submissions/SimpleNFT.sol\":2783:3050  function setApprovalForAll(address operator, bool approved) public override {... */\n      pop\n      pop\n      jump\t// out\n        /* \"submissions/SimpleNFT.sol\":3586:3824  function safeTransferFrom(address from, address to, uint256 tokenId, bytes memory data) public override {... */\n    tag_59:\n        /* \"submissions/SimpleNFT.sol\":3709:3748  _isApprovedOrOwner(msg.sender, tokenId) */\n      tag_121\n        /* \"submissions/SimpleNFT.sol\":3728:3738  msg.sender */\n      caller\n        /* \"submissions/SimpleNFT.sol\":3740:3747  tokenId */\n      dup4\n        /* \"submissions/SimpleNFT.sol\":3709:3727  _isApprovedOrOwner */\n      tag_96\n        /* \"submissions/SimpleNFT.sol\":3709:3748  _isApprovedOrOwner(msg.sender, tokenId) */\n      jump\t// in\n    tag_121:\n        /* \"submissions/SimpleNFT.sol\":3701:3767  require(_isApprovedOrOwner(msg.sender, tokenId), \"Not authorized\") */\n      tag_122\n      jumpi\n      mload(0x40)\n      0x08c379a000000000000000000000000000000000000000000000000000000000\n      dup2\n      mstore\n      0x04\n      add\n      tag_123\n      swap1\n      tag_93\n      jump\t// in\n    tag_123:\n      mload(0x40)\n      dup1\n      swap2\n      sub\n      swap1\n      revert\n    tag_122:\n        /* \"submissions/SimpleNFT.sol\":3778:3816  _safeTransfer(from, to, tokenId, data) */\n      tag_124\n        /* \"submissions/SimpleNFT.sol\":3792:3796  from */\n      dup5\n        /* \"submissions/SimpleNFT.sol\":3798:3800  to */\n      dup5\n        /* \"submissions/SimpleNFT.sol\":3802:3809  tokenId */\n      dup5\n        /* \"submissions/SimpleNFT.sol\":3811:3815  data */\n      dup5\n        /* \"submissions/SimpleNFT.sol\":3778:3791  _safeTransfer */\n      tag_125\n        /* \"submissions/SimpleNFT.sol\":3778:3816  _safeTransfer(from, to, tokenId, data) */\n      jump\t// in\n    tag_124:\n        /* \"submissions/SimpleNFT.sol\":3586:3824  function safeTransferFrom(address from, address to, uint256 tokenId, bytes memory data) public override {... */\n      pop\n      pop\n      pop\n      pop\n      jump\t// out\n        /* \"submissions/SimpleNFT.sol\":4140:4329  function tokenURI(uint256 tokenId) public view returns (string memory) {... */\n    tag_62:\n        /* \"submissions/SimpleNFT.sol\":4196:4209  string memory */\n      0x60\n        /* \"submissions/SimpleNFT.sol\":4258:4259  0 */\n      0x00\n        /* \"submissions/SimpleNFT.sol\":4230:4260  _owners[tokenId] != address(0) */\n      0xffffffffffffffffffffffffffffffffffffffff\n      and\n        /* \"submissions/SimpleNFT.sol\":4230:4237  _owners */\n      0x03\n        /* \"submissions/SimpleNFT.sol\":4230:4246  _owners[tokenId] */\n      0x00\n        /* \"submissions/SimpleNFT.sol\":4238:4245  tokenId */\n      dup5\n        /* \"submissions/SimpleNFT.sol\":4230:4246  _owners[tokenId] */\n      dup2\n      mstore\n      0x20\n      add\n      swap1\n      dup2\n      mstore\n      0x20\n      add\n      0x00\n      keccak256\n      0x00\n      swap1\n      sload\n      swap1\n      0x0100\n      exp\n      swap1\n      div\n      0xffffffffffffffffffffffffffffffffffffffff\n      and\n        /* \"submissions/SimpleNFT.sol\":4230:4260  _owners[tokenId] != address(0) */\n      0xffffffffffffffffffffffffffffffffffffffff\n      and\n      sub\n        /* \"submissions/SimpleNFT.sol\":4222:4284  require(_owners[tokenId] != address(0), \"Token doesn't exist\") */\n      tag_127\n      jumpi\n      mload(0x40)\n      0x08c379a000000000000000000000000000000000000000000000000000000000\n      dup2\n      mstore\n      0x04\n      add\n      tag_128\n      swap1\n      tag_83\n      jump\t// in\n    tag_128:\n      mload(0x40)\n      dup1\n      swap2\n      sub\n      swap1\n      revert\n    tag_127:\n        /* \"submissions/SimpleNFT.sol\":4302:4312  _tokenURIs */\n      0x07\n        /* \"submissions/SimpleNFT.sol\":4302:4321  _tokenURIs[tokenId] */\n      0x00\n        /* \"submissions/SimpleNFT.sol\":4313:4320  tokenId */\n      dup4\n        /* \"submissions/SimpleNFT.sol\":4302:4321  _tokenURIs[tokenId] */\n      dup2\n      mstore\n      0x20\n      add\n      swap1\n      dup2\n      mstore\n      0x20\n      add\n      0x00\n      keccak256\n        /* \"submissions/SimpleNFT.sol\":4295:4321  return _tokenURIs[tokenId] */\n      dup1\n      sload\n      tag_129\n      swap1\n      tag_75\n      jump\t// in\n    tag_129:\n      dup1\n      0x1f\n      add\n      0x20\n      dup1\n      swap2\n      div\n      mul\n      0x20\n      add\n      mload(0x40)\n      swap1\n      dup2\n      add\n      0x40\n      mstore\n      dup1\n      swap3\n      swap2\n      swap1\n      dup2\n      dup2\n      mstore\n      0x20\n      add\n      dup3\n      dup1\n      sload\n      tag_130\n      swap1\n      tag_75\n      jump\t// in\n    tag_130:\n      dup1\n      iszero\n      tag_131\n      jumpi\n      dup1\n      0x1f\n      lt\n      tag_132\n      jumpi\n      0x0100\n      dup1\n      dup4\n      sload\n      div\n      mul\n      dup4\n      mstore\n      swap2\n      0x20\n      add\n      swap2\n      jump(tag_131)\n    tag_132:\n      dup3\n      add\n      swap2\n      swap1\n      0x00\n      mstore\n      keccak256(0x00, 0x20)\n      swap1\n    tag_133:\n      dup2\n      sload\n      dup2\n      mstore\n      swap1\n      0x01\n      add\n      swap1\n      0x20\n      add\n      dup1\n      dup4\n      gt\n      tag_133\n      jumpi\n      dup3\n      swap1\n      sub\n      0x1f\n      and\n      dup3\n      add\n      swap2\n    tag_131:\n      pop\n      pop\n      pop\n      pop\n      pop\n      swap1\n      pop\n        /* \"submissions/SimpleNFT.sol\":4140:4329  function tokenURI(uint256 tokenId) public view returns (string memory) {... */\n      swap2\n      swap1\n      pop\n      jump\t// out\n        /* \"submissions/SimpleNFT.sol\":3850:4132  function mint(address to, string memory uri) public {... */\n    tag_67:\n        /* \"submissions/SimpleNFT.sol\":3913:3928  uint256 tokenId */\n      0x00\n        /* \"submissions/SimpleNFT.sol\":3931:3946  _tokenIdCounter */\n      sload(0x02)\n        /* \"submissions/SimpleNFT.sol\":3913:3946  uint256 tokenId = _tokenIdCounter */\n      swap1\n      pop\n        /* \"submissions/SimpleNFT.sol\":3957:3972  _tokenIdCounter */\n      0x02\n      0x00\n        /* \"submissions/SimpleNFT.sol\":3957:3974  _tokenIdCounter++ */\n      dup2\n      sload\n      dup1\n      swap3\n      swap2\n      swap1\n      tag_135\n      swap1\n      tag_136\n      jump\t// in\n    tag_135:\n      swap2\n      swap1\n      pop\n      sstore\n      pop\n        /* \"submissions/SimpleNFT.sol\":4006:4008  to */\n      dup3\n        /* \"submissions/SimpleNFT.sol\":3987:3994  _owners */\n      0x03\n        /* \"submissions/SimpleNFT.sol\":3987:4003  _owners[tokenId] */\n      0x00\n        /* \"submissions/SimpleNFT.sol\":3995:4002  tokenId */\n      dup4\n        /* \"submissions/SimpleNFT.sol\":3987:4003  _owners[tokenId] */\n      dup2\n      mstore\n      0x20\n      add\n      swap1\n      dup2\n      mstore\n      0x20\n      add\n      0x00\n      keccak256\n      0x00\n        /* \"submissions/SimpleNFT.sol\":3987:4008  _owners[tokenId] = to */\n      0x0100\n      exp\n      dup2\n      sload\n      dup2\n      0xffffffffffffffffffffffffffffffffffffffff\n      mul\n      not\n      and\n      swap1\n      dup4\n      0xffffffffffffffffffffffffffffffffffffffff\n      and\n      mul\n      or\n      swap1\n      sstore\n      pop\n        /* \"submissions/SimpleNFT.sol\":4036:4037  1 */\n      0x01\n        /* \"submissions/SimpleNFT.sol\":4019:4028  _balances */\n      0x04\n        /* \"submissions/SimpleNFT.sol\":4019:4032  _balances[to] */\n      0x00\n        /* \"submissions/SimpleNFT.sol\":4029:4031  to */\n      dup6\n        /* \"submissions/SimpleNFT.sol\":4019:4032  _balances[to] */\n      0xffffffffffffffffffffffffffffffffffffffff\n      and\n      0xffffffffffffffffffffffffffffffffffffffff\n      and\n      dup2\n      mstore\n      0x20\n      add\n      swap1\n      dup2\n      mstore\n      0x20\n      add\n      0x00\n      keccak256\n      0x00\n        /* \"submissions/SimpleNFT.sol\":4019:4037  _balances[to] += 1 */\n      dup3\n      dup3\n      sload\n      tag_137\n      swap2\n      swap1\n      tag_138\n      jump\t// in\n    tag_137:\n      swap3\n      pop\n      pop\n      dup2\n      swap1\n      sstore\n      pop\n        /* \"submissions/SimpleNFT.sol\":4070:4073  uri */\n      dup2\n        /* \"submissions/SimpleNFT.sol\":4048:4058  _tokenURIs */\n      0x07\n        /* \"submissions/SimpleNFT.sol\":4048:4067  _tokenURIs[tokenId] */\n      0x00\n        /* \"submissions/SimpleNFT.sol\":4059:4066  tokenId */\n      dup4\n        /* \"submissions/SimpleNFT.sol\":4048:4067  _tokenURIs[tokenId] */\n      dup2\n      mstore\n      0x20\n      add\n      swap1\n      dup2\n      mstore\n      0x20\n      add\n      0x00\n      keccak256\n        /* \"submissions/SimpleNFT.sol\":4048:4073  _tokenURIs[tokenId] = uri */\n      swap1\n      dup2\n      tag_139\n      swap2\n      swap1\n      tag_140\n      jump\t// in\n    tag_139:\n      pop\n        /* \"submissions/SimpleNFT.sol\":4116:4123  tokenId */\n      dup1\n        /* \"submissions/SimpleNFT.sol\":4112:4114  to */\n      dup4\n        /* \"submissions/SimpleNFT.sol\":4091:4124  Transfer(address(0), to, tokenId) */\n      0xffffffffffffffffffffffffffffffffffffffff\n      and\n        /* \"submissions/SimpleNFT.sol\":4108:4109  0 */\n      0x00\n        /* \"submissions/SimpleNFT.sol\":4091:4124  Transfer(address(0), to, tokenId) */\n      0xffffffffffffffffffffffffffffffffffffffff\n      and\n      0xddf252ad1be2c89b69c2b068fc378daa952ba7f163c4a11628f55a4df523b3ef\n      mload(0x40)\n      mload(0x40)\n      dup1\n      swap2\n      sub\n      swap1\n      log4\n        /* \"submissions/SimpleNFT.sol\":3902:4132  {... */\n      pop\n        /* \"submissions/SimpleNFT.sol\":3850:4132  function mint(address to, string memory uri) public {... */\n      pop\n      pop\n      jump\t// out\n        /* \"submissions/SimpleNFT.sol\":3058:3214  function isApprovedForAll(address owner, address operator) public view override returns (bool) {... */\n    tag_71:\n        /* \"submissions/SimpleNFT.sol\":3147:3151  bool */\n      0x00\n        /* \"submissions/SimpleNFT.sol\":3171:3189  _operatorApprovals */\n      0x06\n        /* \"submissions/SimpleNFT.sol\":3171:3196  _operatorApprovals[owner] */\n      0x00\n        /* \"submissions/SimpleNFT.sol\":3190:3195  owner */\n      dup5\n        /* \"submissions/SimpleNFT.sol\":3171:3196  _operatorApprovals[owner] */\n      0xffffffffffffffffffffffffffffffffffffffff\n      and\n      0xffffffffffffffffffffffffffffffffffffffff\n      and\n      dup2\n      mstore\n      0x20\n      add\n      swap1\n      dup2\n      mstore\n      0x20\n      add\n      0x00\n      keccak256\n        /* \"submissions/SimpleNFT.sol\":3171:3206  _operatorApprovals[owner][operator] */\n      0x00\n        /* \"submissions/SimpleNFT.sol\":3197:3205  operator */\n      dup4\n        /* \"submissions/SimpleNFT.sol\":3171:3206  _operatorApprovals[owner][operator] */\n      0xffffffffffffffffffffffffffffffffffffffff\n      and\n      0xffffffffffffffffffffffffffffffffffffffff\n      and\n      dup2\n      mstore\n      0x20\n      add\n      swap1\n      dup2\n      mstore\n      0x20\n      add\n      0x00\n      keccak256\n      0x00\n      swap1\n      sload\n      swap1\n      0x0100\n      exp\n      swap1\n      div\n      0xff\n      and\n        /* \"submissions/SimpleNFT.sol\":3164:3206  return _operatorApprovals[owner][operator] */\n      swap1\n      pop\n        /* \"submissions/SimpleNFT.sol\":3058:3214  function isApprovedForAll(address owner, address operator) public view override returns (bool) {... */\n      swap3\n      swap2\n      pop\n      pop\n      jump\t// out\n        /* \"submissions/SimpleNFT.sol\":4986:5235  function _isApprovedOrOwner(address spender, uint256 tokenId) internal view returns (bool) {... */\n    tag_96:\n        /* \"submissions/SimpleNFT.sol\":5071:5075  bool */\n      0x00\n        /* \"submissions/SimpleNFT.sol\":5088:5101  address owner */\n      0x00\n        /* \"submissions/SimpleNFT.sol\":5104:5120  ownerOf(tokenId) */\n      tag_143\n        /* \"submissions/SimpleNFT.sol\":5112:5119  tokenId */\n      dup4\n        /* \"submissions/SimpleNFT.sol\":5104:5111  ownerOf */\n      tag_41\n        /* \"submissions/SimpleNFT.sol\":5104:5120  ownerOf(tokenId) */\n      jump\t// in\n    tag_143:\n        /* \"submissions/SimpleNFT.sol\":5088:5120  address owner = ownerOf(tokenId) */\n      swap1\n      pop\n        /* \"submissions/SimpleNFT.sol\":5150:5155  owner */\n      dup1\n        /* \"submissions/SimpleNFT.sol\":5139:5155  spender == owner */\n      0xffffffffffffffffffffffffffffffffffffffff\n      and\n        /* \"submissions/SimpleNFT.sol\":5139:5146  spender */\n      dup5\n        /* \"submissions/SimpleNFT.sol\":5139:5155  spender == owner */\n      0xffffffffffffffffffffffffffffffffffffffff\n      and\n      eq\n        /* \"submissions/SimpleNFT.sol\":5139:5190  spender == owner || getApproved(tokenId) == spender */\n      dup1\n      tag_144\n      jumpi\n      pop\n        /* \"submissions/SimpleNFT.sol\":5183:5190  spender */\n      dup4\n        /* \"submissions/SimpleNFT.sol\":5159:5190  getApproved(tokenId) == spender */\n      0xffffffffffffffffffffffffffffffffffffffff\n      and\n        /* \"submissions/SimpleNFT.sol\":5159:5179  getApproved(tokenId) */\n      tag_145\n        /* \"submissions/SimpleNFT.sol\":5171:5178  tokenId */\n      dup5\n        /* \"submissions/SimpleNFT.sol\":5159:5170  getApproved */\n      tag_25\n        /* \"submissions/SimpleNFT.sol\":5159:5179  getApproved(tokenId) */\n      jump\t// in\n    tag_145:\n        /* \"submissions/SimpleNFT.sol\":5159:5190  getApproved(tokenId) == spender */\n      0xffffffffffffffffffffffffffffffffffffffff\n      and\n      eq\n        /* \"submissions/SimpleNFT.sol\":5139:5190  spender == owner || getApproved(tokenId) == spender */\n    tag_144:\n        /* \"submissions/SimpleNFT.sol\":5139:5226  spender == owner || getApproved(tokenId) == spender || isApprovedForAll(owner, spender) */\n      dup1\n      tag_146\n      jumpi\n      pop\n        /* \"submissions/SimpleNFT.sol\":5194:5226  isApprovedForAll(owner, spender) */\n      tag_147\n        /* \"submissions/SimpleNFT.sol\":5211:5216  owner */\n      dup2\n        /* \"submissions/SimpleNFT.sol\":5218:5225  spender */\n      dup6\n        /* \"submissions/SimpleNFT.sol\":5194:5210  isApprovedForAll */\n      tag_71\n        /* \"submissions/SimpleNFT.sol\":5194:5226  isApprovedForAll(owner, spender) */\n      jump\t// in\n    tag_147:\n        /* \"submissions/SimpleNFT.sol\":5139:5226  spender == owner || getApproved(tokenId) == spender || isApprovedForAll(owner, spender) */\n    tag_146:\n        /* \"submissions/SimpleNFT.sol\":5131:5227  return (spender == owner || getApproved(tokenId) == spender || isApprovedForAll(owner, spender)) */\n      swap2\n      pop\n      pop\n        /* \"submissions/SimpleNFT.sol\":4986:5235  function _isApprovedOrOwner(address spender, uint256 tokenId) internal view returns (bool) {... */\n      swap3\n      swap2\n      pop\n      pop\n      jump\t// out\n        /* \"submissions/SimpleNFT.sol\":4337:4732  function _transfer(address from, address to, uint256 tokenId) internal virtual {... */\n    tag_100:\n        /* \"submissions/SimpleNFT.sol\":4455:4459  from */\n      dup3\n        /* \"submissions/SimpleNFT.sol\":4435:4459  ownerOf(tokenId) == from */\n      0xffffffffffffffffffffffffffffffffffffffff\n      and\n        /* \"submissions/SimpleNFT.sol\":4435:4451  ownerOf(tokenId) */\n      tag_149\n        /* \"submissions/SimpleNFT.sol\":4443:4450  tokenId */\n      dup3\n        /* \"submissions/SimpleNFT.sol\":4435:4442  ownerOf */\n      tag_41\n        /* \"submissions/SimpleNFT.sol\":4435:4451  ownerOf(tokenId) */\n      jump\t// in\n    tag_149:\n        /* \"submissions/SimpleNFT.sol\":4435:4459  ownerOf(tokenId) == from */\n      0xffffffffffffffffffffffffffffffffffffffff\n      and\n      eq\n        /* \"submissions/SimpleNFT.sol\":4427:4473  require(ownerOf(tokenId) == from, \"Not owner\") */\n      tag_150\n      jumpi\n      mload(0x40)\n      0x08c379a000000000000000000000000000000000000000000000000000000000\n      dup2\n      mstore\n      0x04\n      add\n      tag_151\n      swap1\n      tag_152\n      jump\t// in\n    tag_151:\n      mload(0x40)\n      dup1\n      swap2\n      sub\n      swap1\n      revert\n    tag_150:\n        /* \"submissions/SimpleNFT.sol\":4506:4507  0 */\n      0x00\n        /* \"submissions/SimpleNFT.sol\":4492:4508  to != address(0) */\n      0xffffffffffffffffffffffffffffffffffffffff\n      and\n        /* \"submissions/SimpleNFT.sol\":4492:4494  to */\n      dup3\n        /* \"submissions/SimpleNFT.sol\":4492:4508  to != address(0) */\n      0xffffffffffffffffffffffffffffffffffffffff\n      and\n      sub\n        /* \"submissions/SimpleNFT.sol\":4484:4525  require(to != address(0), \"Zero address\") */\n      tag_153\n      jumpi\n      mload(0x40)\n      0x08c379a000000000000000000000000000000000000000000000000000000000\n      dup2\n      mstore\n      0x04\n      add\n      tag_154\n      swap1\n      tag_109\n      jump\t// in\n    tag_154:\n      mload(0x40)\n      dup1\n      swap2\n      sub\n      swap1\n      revert\n    tag_153:\n        /* \"submissions/SimpleNFT.sol\":4557:4558  1 */\n      0x01\n        /* \"submissions/SimpleNFT.sol\":4538:4547  _balances */\n      0x04\n        /* \"submissions/SimpleNFT.sol\":4538:4553  _balances[from] */\n      0x00\n        /* \"submissions/SimpleNFT.sol\":4548:4552  from */\n      dup6\n        /* \"submissions/SimpleNFT.sol\":4538:4553  _balances[from] */\n      0xffffffffffffffffffffffffffffffffffffffff\n      and\n      0xffffffffffffffffffffffffffffffffffffffff\n      and\n      dup2\n      mstore\n      0x20\n      add\n      swap1\n      dup2\n      mstore\n      0x20\n      add\n      0x00\n      keccak256\n      0x00\n        /* \"submissions/SimpleNFT.sol\":4538:4558  _balances[from] -= 1 */\n      dup3\n      dup3\n      sload\n      tag_155\n      swap2\n      swap1\n      tag_156\n      jump\t// in\n    tag_155:\n      swap3\n      pop\n      pop\n      dup2\n      swap1\n      sstore\n      pop\n        /* \"submissions/SimpleNFT.sol\":4586:4587  1 */\n      0x01\n        /* \"submissions/SimpleNFT.sol\":4569:4578  _balances */\n      0x04\n        /* \"submissions/SimpleNFT.sol\":4569:4582  _balances[to] */\n      0x00\n        /* \"submissions/SimpleNFT.sol\":4579:4581  to */\n      dup5\n        /* \"submissions/SimpleNFT.sol\":4569:4582  _balances[to] */\n      0xffffffffffffffffffffffffffffffffffffffff\n      and\n      0xffffffffffffffffffffffffffffffffffffffff\n      and\n      dup2\n      mstore\n      0x20\n      add\n      swap1\n      dup2\n      mstore\n      0x20\n      add\n      0x00\n      keccak256\n      0x00\n        /* \"submissions/SimpleNFT.sol\":4569:4587  _balances[to] += 1 */\n      dup3\n      dup3\n      sload\n      tag_157\n      swap2\n      swap1\n      tag_138\n      jump\t// in\n    tag_157:\n      swap3\n      pop\n      pop\n      dup2\n      swap1\n      sstore\n      pop\n        /* \"submissions/SimpleNFT.sol\":4617:4619  to */\n      dup2\n        /* \"submissions/SimpleNFT.sol\":4598:4605  _owners */\n      0x03\n        /* \"submissions/SimpleNFT.sol\":4598:4614  _owners[tokenId] */\n      0x00\n        /* \"submissions/SimpleNFT.sol\":4606:4613  tokenId */\n      dup4\n        /* \"submissions/SimpleNFT.sol\":4598:4614  _owners[tokenId] */\n      dup2\n      mstore\n      0x20\n      add\n      swap1\n      dup2\n      mstore\n      0x20\n      add\n      0x00\n      keccak256\n      0x00\n        /* \"submissions/SimpleNFT.sol\":4598:4619  _owners[tokenId] = to */\n      0x0100\n      exp\n      dup2\n      sload\n      dup2\n      0xffffffffffffffffffffffffffffffffffffffff\n      mul\n      not\n      and\n      swap1\n      dup4\n      0xffffffffffffffffffffffffffffffffffffffff\n      and\n      mul\n      or\n      swap1\n      sstore\n      pop\n        /* \"submissions/SimpleNFT.sol\":4639:4654  _tokenApprovals */\n      0x05\n        /* \"submissions/SimpleNFT.sol\":4639:4663  _tokenApprovals[tokenId] */\n      0x00\n        /* \"submissions/SimpleNFT.sol\":4655:4662  tokenId */\n      dup3\n        /* \"submissions/SimpleNFT.sol\":4639:4663  _tokenApprovals[tokenId] */\n      dup2\n      mstore\n      0x20\n      add\n      swap1\n      dup2\n      mstore\n      0x20\n      add\n      0x00\n      keccak256\n      0x00\n        /* \"submissions/SimpleNFT.sol\":4632:4663  delete _tokenApprovals[tokenId] */\n      0x0100\n      exp\n      dup2\n      sload\n      swap1\n      0xffffffffffffffffffffffffffffffffffffffff\n      mul\n      not\n      and\n      swap1\n      sstore\n        /* \"submissions/SimpleNFT.sol\":4716:4723  tokenId */\n      dup1\n        /* \"submissions/SimpleNFT.sol\":4712:4714  to */\n      dup3\n        /* \"submissions/SimpleNFT.sol\":4697:4724  Transfer(from, to, tokenId) */\n      0xffffffffffffffffffffffffffffffffffffffff\n      and\n        /* \"submissions/SimpleNFT.sol\":4706:4710  from */\n      dup5\n        /* \"submissions/SimpleNFT.sol\":4697:4724  Transfer(from, to, tokenId) */\n      0xffffffffffffffffffffffffffffffffffffffff\n      and\n      0xddf252ad1be2c89b69c2b068fc378daa952ba7f163c4a11628f55a4df523b3ef\n      mload(0x40)\n      mload(0x40)\n      dup1\n      swap2\n      sub\n      swap1\n      log4\n        /* \"submissions/SimpleNFT.sol\":4337:4732  function _transfer(address from, address to, uint256 tokenId) internal virtual {... */\n      pop\n      pop\n      pop\n      jump\t// out\n        /* \"submissions/SimpleNFT.sol\":4740:4978  function _safeTransfer(address from, address to, uint256 tokenId, bytes memory data) internal virtual {... */\n    tag_125:\n        /* \"submissions/SimpleNFT.sol\":4853:4881  _transfer(from, to, tokenId) */\n      tag_159\n        /* \"submissions/SimpleNFT.sol\":4863:4867  from */\n      dup5\n        /* \"submissions/SimpleNFT.sol\":4869:4871  to */\n      dup5\n        /* \"submissions/SimpleNFT.sol\":4873:4880  tokenId */\n      dup5\n        /* \"submissions/SimpleNFT.sol\":4853:4862  _transfer */\n      tag_100\n        /* \"submissions/SimpleNFT.sol\":4853:4881  _transfer(from, to, tokenId) */\n      jump\t// in\n    tag_159:\n        /* \"submissions/SimpleNFT.sol\":4900:4947  _checkOnERC721Received(from, to, tokenId, data) */\n      tag_160\n        /* \"submissions/SimpleNFT.sol\":4923:4927  from */\n      dup5\n        /* \"submissions/SimpleNFT.sol\":4929:4931  to */\n      dup5\n        /* \"submissions/SimpleNFT.sol\":4933:4940  tokenId */\n      dup5\n        /* \"submissions/SimpleNFT.sol\":4942:4946  data */\n      dup5\n        /* \"submissions/SimpleNFT.sol\":4900:4922  _checkOnERC721Received */\n      tag_161\n        /* \"submissions/SimpleNFT.sol\":4900:4947  _checkOnERC721Received(from, to, tokenId, data) */\n      jump\t// in\n    tag_160:\n        /* \"submissions/SimpleNFT.sol\":4892:4970  require(_checkOnERC721Received(from, to, tokenId, data), \"Not ERC721Receiver\") */\n      tag_162\n      jumpi\n      mload(0x40)\n      0x08c379a000000000000000000000000000000000000000000000000000000000\n      dup2\n      mstore\n      0x04\n      add\n      tag_163\n      swap1\n      tag_164\n      jump\t// in\n    tag_163:\n      mload(0x40)\n      dup1\n      swap2\n      sub\n      swap1\n      revert\n    tag_162:\n        /* \"submissions/SimpleNFT.sol\":4740:4978  function _safeTransfer(address from, address to, uint256 tokenId, bytes memory data) internal virtual {... */\n      pop\n      pop\n      pop\n      pop\n      jump\t// out\n        /* \"submissions/SimpleNFT.sol\":5243:5695  function _checkOnERC721Received(address from, address to, uint256 tokenId, bytes memory data) private returns (bool) {... */\n    tag_161:\n        /* \"submissions/SimpleNFT.sol\":5354:5358  bool */\n      0x00\n        /* \"submissions/SimpleNFT.sol\":5392:5393  0 */\n      0x00\n        /* \"submissions/SimpleNFT.sol\":5375:5377  to */\n      dup5\n        /* \"submissions/SimpleNFT.sol\":5375:5389  to.code.length */\n      0xffffffffffffffffffffffffffffffffffffffff\n      and\n      extcodesize\n        /* \"submissions/SimpleNFT.sol\":5375:5393  to.code.length > 0 */\n      gt\n        /* \"submissions/SimpleNFT.sol\":5371:5666  if (to.code.length > 0) {... */\n      iszero\n      tag_166\n      jumpi\n        /* \"submissions/SimpleNFT.sol\":5430:5432  to */\n      dup4\n        /* \"submissions/SimpleNFT.sol\":5414:5450  IERC721Receiver(to).onERC721Received */\n      0xffffffffffffffffffffffffffffffffffffffff\n      and\n      0x150b7a02\n        /* \"submissions/SimpleNFT.sol\":5451:5461  msg.sender */\n      caller\n        /* \"submissions/SimpleNFT.sol\":5463:5467  from */\n      dup8\n        /* \"submissions/SimpleNFT.sol\":5469:5476  tokenId */\n      dup7\n        /* \"submissions/SimpleNFT.sol\":5478:5482  data */\n      dup7\n        /* \"submissions/SimpleNFT.sol\":5414:5483  IERC721Receiver(to).onERC721Received(msg.sender, from, tokenId, data) */\n      mload(0x40)\n      dup6\n      0xffffffff\n      and\n      0xe0\n      shl\n      dup2\n      mstore\n      0x04\n      add\n      tag_167\n      swap5\n      swap4\n      swap3\n      swap2\n      swap1\n      tag_168\n      jump\t// in\n    tag_167:\n      0x20\n      mload(0x40)\n      dup1\n      dup4\n      sub\n      dup2\n      0x00\n      dup8\n      gas\n      call\n      swap3\n      pop\n      pop\n      pop\n      dup1\n      iszero\n      tag_169\n      jumpi\n      pop\n      mload(0x40)\n      returndatasize\n      not(0x1f)\n      0x1f\n      dup3\n      add\n      and\n      dup3\n      add\n      dup1\n      0x40\n      mstore\n      pop\n      dup2\n      add\n      swap1\n      tag_170\n      swap2\n      swap1\n      tag_171\n      jump\t// in\n    tag_170:\n      0x01\n    tag_169:\n        /* \"submissions/SimpleNFT.sol\":5410:5655  try IERC721Receiver(to).onERC721Received(msg.sender, from, tokenId, data) returns (bytes4 retval) {... */\n      tag_172\n      jumpi\n        /* \"submissions/SimpleNFT.sol\":5634:5639  false */\n      0x00\n        /* \"submissions/SimpleNFT.sol\":5627:5639  return false */\n      swap1\n      pop\n      jump(tag_165)\n        /* \"submissions/SimpleNFT.sol\":5410:5655  try IERC721Receiver(to).onERC721Received(msg.sender, from, tokenId, data) returns (bytes4 retval) {... */\n    tag_172:\n        /* \"submissions/SimpleNFT.sol\":5544:5585  IERC721Receiver.onERC721Received.selector */\n      shl(0xe0, 0x150b7a02)\n        /* \"submissions/SimpleNFT.sol\":5534:5585  retval == IERC721Receiver.onERC721Received.selector */\n      not(0xffffffffffffffffffffffffffffffffffffffffffffffffffffffff)\n      and\n        /* \"submissions/SimpleNFT.sol\":5534:5540  retval */\n      dup2\n        /* \"submissions/SimpleNFT.sol\":5534:5585  retval == IERC721Receiver.onERC721Received.selector */\n      not(0xffffffffffffffffffffffffffffffffffffffffffffffffffffffff)\n      and\n      eq\n        /* \"submissions/SimpleNFT.sol\":5527:5585  return retval == IERC721Receiver.onERC721Received.selector */\n      swap2\n      pop\n      pop\n      jump(tag_165)\n        /* \"submissions/SimpleNFT.sol\":5371:5666  if (to.code.length > 0) {... */\n    tag_166:\n        /* \"submissions/SimpleNFT.sol\":5683:5687  true */\n      0x01\n        /* \"submissions/SimpleNFT.sol\":5676:5687  return true */\n      swap1\n      pop\n        /* \"submissions/SimpleNFT.sol\":5243:5695  function _checkOnERC721Received(address from, address to, uint256 tokenId, bytes memory data) private returns (bool) {... */\n    tag_165:\n      swap5\n      swap4\n      pop\n      pop\n      pop\n      pop\n      jump\t// out\n        /* \"#utility.yul\":7:106   */\n    tag_177:\n        /* \"#utility.yul\":59:65   */\n      0x00\n        /* \"#utility.yul\":93:98   */\n      dup2\n        /* \"#utility.yul\":87:99   */\n      mload\n        /* \"#utility.yul\":77:99   */\n      swap1\n      pop\n        /* \"#utility.yul\":7:106   */\n      swap2\n      swap1\n      pop\n      jump\t// out\n        /* \"#utility.yul\":112:281   */\n    tag_178:\n        /* \"#utility.yul\":196:207   */\n      0x00\n        /* \"#utility.yul\":230:236   */\n      dup3\n        /* \"#utility.yul\":225:228   */\n      dup3\n        /* \"#utility.yul\":218:237   */\n      mstore\n        /* \"#utility.yul\":270:274   */\n      0x20\n        /* \"#utility.yul\":265:268   */\n      dup3\n        /* \"#utility.yul\":261:275   */\n      add\n        /* \"#utility.yul\":246:275   */\n      swap1\n      pop\n        /* \"#utility.yul\":112:281   */\n      swap3\n      swap2\n      pop\n      pop\n      jump\t// out\n        /* \"#utility.yul\":287:426   */\n    tag_179:\n        /* \"#utility.yul\":376:382   */\n      dup3\n        /* \"#utility.yul\":371:374   */\n      dup2\n        /* \"#utility.yul\":366:369   */\n      dup4\n        /* \"#utility.yul\":360:383   */\n      mcopy\n        /* \"#utility.yul\":417:418   */\n      0x00\n        /* \"#utility.yul\":408:414   */\n      dup4\n        /* \"#utility.yul\":403:406   */\n      dup4\n        /* \"#utility.yul\":399:415   */\n      add\n        /* \"#utility.yul\":392:419   */\n      mstore\n        /* \"#utility.yul\":287:426   */\n      pop\n      pop\n      pop\n      jump\t// out\n        /* \"#utility.yul\":432:534   */\n    tag_180:\n        /* \"#utility.yul\":473:479   */\n      0x00\n        /* \"#utility.yul\":524:526   */\n      0x1f\n        /* \"#utility.yul\":520:527   */\n      not\n        /* \"#utility.yul\":515:517   */\n      0x1f\n        /* \"#utility.yul\":508:513   */\n      dup4\n        /* \"#utility.yul\":504:518   */\n      add\n        /* \"#utility.yul\":500:528   */\n      and\n        /* \"#utility.yul\":490:528   */\n      swap1\n      pop\n        /* \"#utility.yul\":432:534   */\n      swap2\n      swap1\n      pop\n      jump\t// out\n        /* \"#utility.yul\":540:917   */\n    tag_181:\n        /* \"#utility.yul\":628:631   */\n      0x00\n        /* \"#utility.yul\":656:695   */\n      tag_253\n        /* \"#utility.yul\":689:694   */\n      dup3\n        /* \"#utility.yul\":656:695   */\n      tag_177\n      jump\t// in\n    tag_253:\n        /* \"#utility.yul\":711:782   */\n      tag_254\n        /* \"#utility.yul\":775:781   */\n      dup2\n        /* \"#utility.yul\":770:773   */\n      dup6\n        /* \"#utility.yul\":711:782   */\n      tag_178\n      jump\t// in\n    tag_254:\n        /* \"#utility.yul\":704:782   */\n      swap4\n      pop\n        /* \"#utility.yul\":791:856   */\n      tag_255\n        /* \"#utility.yul\":849:855   */\n      dup2\n        /* \"#utility.yul\":844:847   */\n      dup6\n        /* \"#utility.yul\":837:841   */\n      0x20\n        /* \"#utility.yul\":830:835   */\n      dup7\n        /* \"#utility.yul\":826:842   */\n      add\n        /* \"#utility.yul\":791:856   */\n      tag_179\n      jump\t// in\n    tag_255:\n        /* \"#utility.yul\":881:910   */\n      tag_256\n        /* \"#utility.yul\":903:909   */\n      dup2\n        /* \"#utility.yul\":881:910   */\n      tag_180\n      jump\t// in\n    tag_256:\n        /* \"#utility.yul\":876:879   */\n      dup5\n        /* \"#utility.yul\":872:911   */\n      add\n        /* \"#utility.yul\":865:911   */\n      swap2\n      pop\n        /* \"#utility.yul\":632:917   */\n      pop\n        /* \"#utility.yul\":540:917   */\n      swap3\n      swap2\n      pop\n      pop\n      jump\t// out\n        /* \"#utility.yul\":923:1236   */\n    tag_21:\n        /* \"#utility.yul\":1036:1040   */\n      0x00\n        /* \"#utility.yul\":1074:1076   */\n      0x20\n        /* \"#utility.yul\":1063:1072   */\n      dup3\n        /* \"#utility.yul\":1059:1077   */\n      add\n        /* \"#utility.yul\":1051:1077   */\n      swap1\n      pop\n        /* \"#utility.yul\":1123:1132   */\n      dup2\n        /* \"#utility.yul\":1117:1121   */\n      dup2\n        /* \"#utility.yul\":1113:1133   */\n      sub\n        /* \"#utility.yul\":1109:1110   */\n      0x00\n        /* \"#utility.yul\":1098:1107   */\n      dup4\n        /* \"#utility.yul\":1094:1111   */\n      add\n        /* \"#utility.yul\":1087:1134   */\n      mstore\n        /* \"#utility.yul\":1151:1229   */\n      tag_258\n        /* \"#utility.yul\":1224:1228   */\n      dup2\n        /* \"#utility.yul\":1215:1221   */\n      dup5\n        /* \"#utility.yul\":1151:1229   */\n      tag_181\n      jump\t// in\n    tag_258:\n        /* \"#utility.yul\":1143:1229   */\n      swap1\n      pop\n        /* \"#utility.yul\":923:1236   */\n      swap3\n      swap2\n      pop\n      pop\n      jump\t// out\n        /* \"#utility.yul\":1242:1317   */\n    tag_182:\n        /* \"#utility.yul\":1275:1281   */\n      0x00\n        /* \"#utility.yul\":1308:1310   */\n      0x40\n        /* \"#utility.yul\":1302:1311   */\n      mload\n        /* \"#utility.yul\":1292:1311   */\n      swap1\n      pop\n        /* \"#utility.yul\":1242:1317   */\n      swap1\n      jump\t// out\n        /* \"#utility.yul\":1323:1440   */\n    tag_183:\n        /* \"#utility.yul\":1432:1433   */\n      0x00\n        /* \"#utility.yul\":1429:1430   */\n      0x00\n        /* \"#utility.yul\":1422:1434   */\n      revert\n        /* \"#utility.yul\":1446:1563   */\n    tag_184:\n        /* \"#utility.yul\":1555:1556   */\n      0x00\n        /* \"#utility.yul\":1552:1553   */\n      0x00\n        /* \"#utility.yul\":1545:1557   */\n      revert\n        /* \"#utility.yul\":1569:1646   */\n    tag_185:\n        /* \"#utility.yul\":1606:1613   */\n      0x00\n        /* \"#utility.yul\":1635:1640   */\n      dup2\n        /* \"#utility.yul\":1624:1640   */\n      swap1\n      pop\n        /* \"#utility.yul\":1569:1646   */\n      swap2\n      swap1\n      pop\n      jump\t// out\n        /* \"#utility.yul\":1652:1774   */\n    tag_186:\n        /* \"#utility.yul\":1725:1749   */\n      tag_264\n        /* \"#utility.yul\":1743:1748   */\n      dup2\n        /* \"#utility.yul\":1725:1749   */\n      tag_185\n      jump\t// in\n    tag_264:\n        /* \"#utility.yul\":1718:1723   */\n      dup2\n        /* \"#utility.yul\":1715:1750   */\n      eq\n        /* \"#utility.yul\":1705:1768   */\n      tag_265\n      jumpi\n        /* \"#utility.yul\":1764:1765   */\n      0x00\n        /* \"#utility.yul\":1761:1762   */\n      0x00\n        /* \"#utility.yul\":1754:1766   */\n      revert\n        /* \"#utility.yul\":1705:1768   */\n    tag_265:\n        /* \"#utility.yul\":1652:1774   */\n      pop\n      jump\t// out\n        /* \"#utility.yul\":1780:1919   */\n    tag_187:\n        /* \"#utility.yul\":1826:1831   */\n      0x00\n        /* \"#utility.yul\":1864:1870   */\n      dup2\n        /* \"#utility.yul\":1851:1871   */\n      calldataload\n        /* \"#utility.yul\":1842:1871   */\n      swap1\n      pop\n        /* \"#utility.yul\":1880:1913   */\n      tag_267\n        /* \"#utility.yul\":1907:1912   */\n      dup2\n        /* \"#utility.yul\":1880:1913   */\n      tag_186\n      jump\t// in\n    tag_267:\n        /* \"#utility.yul\":1780:1919   */\n      swap3\n      swap2\n      pop\n      pop\n      jump\t// out\n        /* \"#utility.yul\":1925:2254   */\n    tag_24:\n        /* \"#utility.yul\":1984:1990   */\n      0x00\n        /* \"#utility.yul\":2033:2035   */\n      0x20\n        /* \"#utility.yul\":2021:2030   */\n      dup3\n        /* \"#utility.yul\":2012:2019   */\n      dup5\n        /* \"#utility.yul\":2008:2031   */\n      sub\n        /* \"#utility.yul\":2004:2036   */\n      slt\n        /* \"#utility.yul\":2001:2120   */\n      iszero\n      tag_269\n      jumpi\n        /* \"#utility.yul\":2039:2118   */\n      tag_270\n      tag_183\n      jump\t// in\n    tag_270:\n        /* \"#utility.yul\":2001:2120   */\n    tag_269:\n        /* \"#utility.yul\":2159:2160   */\n      0x00\n        /* \"#utility.yul\":2184:2237   */\n      tag_271\n        /* \"#utility.yul\":2229:2236   */\n      dup5\n        /* \"#utility.yul\":2220:2226   */\n      dup3\n        /* \"#utility.yul\":2209:2218   */\n      dup6\n        /* \"#utility.yul\":2205:2227   */\n      add\n        /* \"#utility.yul\":2184:2237   */\n      tag_187\n      jump\t// in\n    tag_271:\n        /* \"#utility.yul\":2174:2237   */\n      swap2\n      pop\n        /* \"#utility.yul\":2130:2247   */\n      pop\n        /* \"#utility.yul\":1925:2254   */\n      swap3\n      swap2\n      pop\n      pop\n      jump\t// out\n        /* \"#utility.yul\":2260:2386   */\n    tag_188:\n        /* \"#utility.yul\":2297:2304   */\n      0x00\n        /* \"#utility.yul\":2337:2379   */\n      0xffffffffffffffffffffffffffffffffffffffff\n        /* \"#utility.yul\":2330:2335   */\n      dup3\n        /* \"#utility.yul\":2326:2380   */\n      and\n        /* \"#utility.yul\":2315:2380   */\n      swap1\n      pop\n        /* \"#utility.yul\":2260:2386   */\n      swap2\n      swap1\n      pop\n      jump\t// out\n        /* \"#utility.yul\":2392:2488   */\n    tag_189:\n        /* \"#utility.yul\":2429:2436   */\n      0x00\n        /* \"#utility.yul\":2458:2482   */\n      tag_274\n        /* \"#utility.yul\":2476:2481   */\n      dup3\n        /* \"#utility.yul\":2458:2482   */\n      tag_188\n      jump\t// in\n    tag_274:\n        /* \"#utility.yul\":2447:2482   */\n      swap1\n      pop\n        /* \"#utility.yul\":2392:2488   */\n      swap2\n      swap1\n      pop\n      jump\t// out\n        /* \"#utility.yul\":2494:2612   */\n    tag_190:\n        /* \"#utility.yul\":2581:2605   */\n      tag_276\n        /* \"#utility.yul\":2599:2604   */\n      dup2\n        /* \"#utility.yul\":2581:2605   */\n      tag_189\n      jump\t// in\n    tag_276:\n        /* \"#utility.yul\":2576:2579   */\n      dup3\n        /* \"#utility.yul\":2569:2606   */\n      mstore\n        /* \"#utility.yul\":2494:2612   */\n      pop\n      pop\n      jump\t// out\n        /* \"#utility.yul\":2618:2840   */\n    tag_27:\n        /* \"#utility.yul\":2711:2715   */\n      0x00\n        /* \"#utility.yul\":2749:2751   */\n      0x20\n        /* \"#utility.yul\":2738:2747   */\n      dup3\n        /* \"#utility.yul\":2734:2752   */\n      add\n        /* \"#utility.yul\":2726:2752   */\n      swap1\n      pop\n        /* \"#utility.yul\":2762:2833   */\n      tag_278\n        /* \"#utility.yul\":2830:2831   */\n      0x00\n        /* \"#utility.yul\":2819:2828   */\n      dup4\n        /* \"#utility.yul\":2815:2832   */\n      add\n        /* \"#utility.yul\":2806:2812   */\n      dup5\n        /* \"#utility.yul\":2762:2833   */\n      tag_190\n      jump\t// in\n    tag_278:\n        /* \"#utility.yul\":2618:2840   */\n      swap3\n      swap2\n      pop\n      pop\n      jump\t// out\n        /* \"#utility.yul\":2846:2968   */\n    tag_191:\n        /* \"#utility.yul\":2919:2943   */\n      tag_280\n        /* \"#utility.yul\":2937:2942   */\n      dup2\n        /* \"#utility.yul\":2919:2943   */\n      tag_189\n      jump\t// in\n    tag_280:\n        /* \"#utility.yul\":2912:2917   */\n      dup2\n        /* \"#utility.yul\":2909:2944   */\n      eq\n        /* \"#utility.yul\":2899:2962   */\n      tag_281\n      jumpi\n        /* \"#utility.yul\":2958:2959   */\n      0x00\n        /* \"#utility.yul\":2955:2956   */\n      0x00\n        /* \"#utility.yul\":2948:2960   */\n      revert\n        /* \"#utility.yul\":2899:2962   */\n    tag_281:\n        /* \"#utility.yul\":2846:2968   */\n      pop\n      jump\t// out\n        /* \"#utility.yul\":2974:3113   */\n    tag_192:\n        /* \"#utility.yul\":3020:3025   */\n      0x00\n        /* \"#utility.yul\":3058:3064   */\n      dup2\n        /* \"#utility.yul\":3045:3065   */\n      calldataload\n        /* \"#utility.yul\":3036:3065   */\n      swap1\n      pop\n        /* \"#utility.yul\":3074:3107   */\n      tag_283\n        /* \"#utility.yul\":3101:3106   */\n      dup2\n        /* \"#utility.yul\":3074:3107   */\n      tag_191\n      jump\t// in\n    tag_283:\n        /* \"#utility.yul\":2974:3113   */\n      swap3\n      swap2\n      pop\n      pop\n      jump\t// out\n        /* \"#utility.yul\":3119:3593   */\n    tag_30:\n        /* \"#utility.yul\":3187:3193   */\n      0x00\n        /* \"#utility.yul\":3195:3201   */\n      0x00\n        /* \"#utility.yul\":3244:3246   */\n      0x40\n        /* \"#utility.yul\":3232:3241   */\n      dup4\n        /* \"#utility.yul\":3223:3230   */\n      dup6\n        /* \"#utility.yul\":3219:3242   */\n      sub\n        /* \"#utility.yul\":3215:3247   */\n      slt\n        /* \"#utility.yul\":3212:3331   */\n      iszero\n      tag_285\n      jumpi\n        /* \"#utility.yul\":3250:3329   */\n      tag_286\n      tag_183\n      jump\t// in\n    tag_286:\n        /* \"#utility.yul\":3212:3331   */\n    tag_285:\n        /* \"#utility.yul\":3370:3371   */\n      0x00\n        /* \"#utility.yul\":3395:3448   */\n      tag_287\n        /* \"#utility.yul\":3440:3447   */\n      dup6\n        /* \"#utility.yul\":3431:3437   */\n      dup3\n        /* \"#utility.yul\":3420:3429   */\n      dup7\n        /* \"#utility.yul\":3416:3438   */\n      add\n        /* \"#utility.yul\":3395:3448   */\n      tag_192\n      jump\t// in\n    tag_287:\n        /* \"#utility.yul\":3385:3448   */\n      swap3\n      pop\n        /* \"#utility.yul\":3341:3458   */\n      pop\n        /* \"#utility.yul\":3497:3499   */\n      0x20\n        /* \"#utility.yul\":3523:3576   */\n      tag_288\n        /* \"#utility.yul\":3568:3575   */\n      dup6\n        /* \"#utility.yul\":3559:3565   */\n      dup3\n        /* \"#utility.yul\":3548:3557   */\n      dup7\n        /* \"#utility.yul\":3544:3566   */\n      add\n        /* \"#utility.yul\":3523:3576   */\n      tag_187\n      jump\t// in\n    tag_288:\n        /* \"#utility.yul\":3513:3576   */\n      swap2\n      pop\n        /* \"#utility.yul\":3468:3586   */\n      pop\n        /* \"#utility.yul\":3119:3593   */\n      swap3\n      pop\n      swap3\n      swap1\n      pop\n      jump\t// out\n        /* \"#utility.yul\":3599:4218   */\n    tag_34:\n        /* \"#utility.yul\":3676:3682   */\n      0x00\n        /* \"#utility.yul\":3684:3690   */\n      0x00\n        /* \"#utility.yul\":3692:3698   */\n      0x00\n        /* \"#utility.yul\":3741:3743   */\n      0x60\n        /* \"#utility.yul\":3729:3738   */\n      dup5\n        /* \"#utility.yul\":3720:3727   */\n      dup7\n        /* \"#utility.yul\":3716:3739   */\n      sub\n        /* \"#utility.yul\":3712:3744   */\n      slt\n        /* \"#utility.yul\":3709:3828   */\n      iszero\n      tag_290\n      jumpi\n        /* \"#utility.yul\":3747:3826   */\n      tag_291\n      tag_183\n      jump\t// in\n    tag_291:\n        /* \"#utility.yul\":3709:3828   */\n    tag_290:\n        /* \"#utility.yul\":3867:3868   */\n      0x00\n        /* \"#utility.yul\":3892:3945   */\n      tag_292\n        /* \"#utility.yul\":3937:3944   */\n      dup7\n        /* \"#utility.yul\":3928:3934   */\n      dup3\n        /* \"#utility.yul\":3917:3926   */\n      dup8\n        /* \"#utility.yul\":3913:3935   */\n      add\n        /* \"#utility.yul\":3892:3945   */\n      tag_192\n      jump\t// in\n    tag_292:\n        /* \"#utility.yul\":3882:3945   */\n      swap4\n      pop\n        /* \"#utility.yul\":3838:3955   */\n      pop\n        /* \"#utility.yul\":3994:3996   */\n      0x20\n        /* \"#utility.yul\":4020:4073   */\n      tag_293\n        /* \"#utility.yul\":4065:4072   */\n      dup7\n        /* \"#utility.yul\":4056:4062   */\n      dup3\n        /* \"#utility.yul\":4045:4054   */\n      dup8\n        /* \"#utility.yul\":4041:4063   */\n      add\n        /* \"#utility.yul\":4020:4073   */\n      tag_192\n      jump\t// in\n    tag_293:\n        /* \"#utility.yul\":4010:4073   */\n      swap3\n      pop\n        /* \"#utility.yul\":3965:4083   */\n      pop\n        /* \"#utility.yul\":4122:4124   */\n      0x40\n        /* \"#utility.yul\":4148:4201   */\n      tag_294\n        /* \"#utility.yul\":4193:4200   */\n      dup7\n        /* \"#utility.yul\":4184:4190   */\n      dup3\n        /* \"#utility.yul\":4173:4182   */\n      dup8\n        /* \"#utility.yul\":4169:4191   */\n      add\n        /* \"#utility.yul\":4148:4201   */\n      tag_187\n      jump\t// in\n    tag_294:\n        /* \"#utility.yul\":4138:4201   */\n      swap2\n      pop\n        /* \"#utility.yul\":4093:4211   */\n      pop\n        /* \"#utility.yul\":3599:4218   */\n      swap3\n      pop\n      swap3\n      pop\n      swap3\n      jump\t// out\n        /* \"#utility.yul\":4224:4553   */\n    tag_45:\n        /* \"#utility.yul\":4283:4289   */\n      0x00\n        /* \"#utility.yul\":4332:4334   */\n      0x20\n        /* \"#utility.yul\":4320:4329   */\n      dup3\n        /* \"#utility.yul\":4311:4318   */\n      dup5\n        /* \"#utility.yul\":4307:4330   */\n      sub\n        /* \"#utility.yul\":4303:4335   */\n      slt\n        /* \"#utility.yul\":4300:4419   */\n      iszero\n      tag_296\n      jumpi\n        /* \"#utility.yul\":4338:4417   */\n      tag_297\n      tag_183\n      jump\t// in\n    tag_297:\n        /* \"#utility.yul\":4300:4419   */\n    tag_296:\n        /* \"#utility.yul\":4458:4459   */\n      0x00\n        /* \"#utility.yul\":4483:4536   */\n      tag_298\n        /* \"#utility.yul\":4528:4535   */\n      dup5\n        /* \"#utility.yul\":4519:4525   */\n      dup3\n        /* \"#utility.yul\":4508:4517   */\n      dup6\n        /* \"#utility.yul\":4504:4526   */\n      add\n        /* \"#utility.yul\":4483:4536   */\n      tag_192\n      jump\t// in\n    tag_298:\n        /* \"#utility.yul\":4473:4536   */\n      swap2\n      pop\n        /* \"#utility.yul\":4429:4546   */\n      pop\n        /* \"#utility.yul\":4224:4553   */\n      swap3\n      swap2\n      pop\n      pop\n      jump\t// out\n        /* \"#utility.yul\":4559:4677   */\n    tag_193:\n        /* \"#utility.yul\":4646:4670   */\n      tag_300\n        /* \"#utility.yul\":4664:4669   */\n      dup2\n        /* \"#utility.yul\":4646:4670   */\n      tag_185\n      jump\t// in\n    tag_300:\n        /* \"#utility.yul\":4641:4644   */\n      dup3\n        /* \"#utility.yul\":4634:4671   */\n      mstore\n        /* \"#utility.yul\":4559:4677   */\n      pop\n      pop\n      jump\t// out\n        /* \"#utility.yul\":4683:4905   */\n    tag_48:\n        /* \"#utility.yul\":4776:4780   */\n      0x00\n        /* \"#utility.yul\":4814:4816   */\n      0x20\n        /* \"#utility.yul\":4803:4812   */\n      dup3\n        /* \"#utility.yul\":4799:4817   */\n      add\n        /* \"#utility.yul\":4791:4817   */\n      swap1\n      pop\n        /* \"#utility.yul\":4827:4898   */\n      tag_302\n        /* \"#utility.yul\":4895:4896   */\n      0x00\n        /* \"#utility.yul\":4884:4893   */\n      dup4\n        /* \"#utility.yul\":4880:4897   */\n      add\n        /* \"#utility.yul\":4871:4877   */\n      dup5\n        /* \"#utility.yul\":4827:4898   */\n      tag_193\n      jump\t// in\n    tag_302:\n        /* \"#utility.yul\":4683:4905   */\n      swap3\n      swap2\n      pop\n      pop\n      jump\t// out\n        /* \"#utility.yul\":4911:5001   */\n    tag_194:\n        /* \"#utility.yul\":4945:4952   */\n      0x00\n        /* \"#utility.yul\":4988:4993   */\n      dup2\n        /* \"#utility.yul\":4981:4994   */\n      iszero\n        /* \"#utility.yul\":4974:4995   */\n      iszero\n        /* \"#utility.yul\":4963:4995   */\n      swap1\n      pop\n        /* \"#utility.yul\":4911:5001   */\n      swap2\n      swap1\n      pop\n      jump\t// out\n        /* \"#utility.yul\":5007:5123   */\n    tag_195:\n        /* \"#utility.yul\":5077:5098   */\n      tag_305\n        /* \"#utility.yul\":5092:5097   */\n      dup2\n        /* \"#utility.yul\":5077:5098   */\n      tag_194\n      jump\t// in\n    tag_305:\n        /* \"#utility.yul\":5070:5075   */\n      dup2\n        /* \"#utility.yul\":5067:5099   */\n      eq\n        /* \"#utility.yul\":5057:5117   */\n      tag_306\n      jumpi\n        /* \"#utility.yul\":5113:5114   */\n      0x00\n        /* \"#utility.yul\":5110:5111   */\n      0x00\n        /* \"#utility.yul\":5103:5115   */\n      revert\n        /* \"#utility.yul\":5057:5117   */\n    tag_306:\n        /* \"#utility.yul\":5007:5123   */\n      pop\n      jump\t// out\n        /* \"#utility.yul\":5129:5262   */\n    tag_196:\n        /* \"#utility.yul\":5172:5177   */\n      0x00\n        /* \"#utility.yul\":5210:5216   */\n      dup2\n        /* \"#utility.yul\":5197:5217   */\n      calldataload\n        /* \"#utility.yul\":5188:5217   */\n      swap1\n      pop\n        /* \"#utility.yul\":5226:5256   */\n      tag_308\n        /* \"#utility.yul\":5250:5255   */\n      dup2\n        /* \"#utility.yul\":5226:5256   */\n      tag_195\n      jump\t// in\n    tag_308:\n        /* \"#utility.yul\":5129:5262   */\n      swap3\n      swap2\n      pop\n      pop\n      jump\t// out\n        /* \"#utility.yul\":5268:5736   */\n    tag_54:\n        /* \"#utility.yul\":5333:5339   */\n      0x00\n        /* \"#utility.yul\":5341:5347   */\n      0x00\n        /* \"#utility.yul\":5390:5392   */\n      0x40\n        /* \"#utility.yul\":5378:5387   */\n      dup4\n        /* \"#utility.yul\":5369:5376   */\n      dup6\n        /* \"#utility.yul\":5365:5388   */\n      sub\n        /* \"#utility.yul\":5361:5393   */\n      slt\n        /* \"#utility.yul\":5358:5477   */\n      iszero\n      tag_310\n      jumpi\n        /* \"#utility.yul\":5396:5475   */\n      tag_311\n      tag_183\n      jump\t// in\n    tag_311:\n        /* \"#utility.yul\":5358:5477   */\n    tag_310:\n        /* \"#utility.yul\":5516:5517   */\n      0x00\n        /* \"#utility.yul\":5541:5594   */\n      tag_312\n        /* \"#utility.yul\":5586:5593   */\n      dup6\n        /* \"#utility.yul\":5577:5583   */\n      dup3\n        /* \"#utility.yul\":5566:5575   */\n      dup7\n        /* \"#utility.yul\":5562:5584   */\n      add\n        /* \"#utility.yul\":5541:5594   */\n      tag_192\n      jump\t// in\n    tag_312:\n        /* \"#utility.yul\":5531:5594   */\n      swap3\n      pop\n        /* \"#utility.yul\":5487:5604   */\n      pop\n        /* \"#utility.yul\":5643:5645   */\n      0x20\n        /* \"#utility.yul\":5669:5719   */\n      tag_313\n        /* \"#utility.yul\":5711:5718   */\n      dup6\n        /* \"#utility.yul\":5702:5708   */\n      dup3\n        /* \"#utility.yul\":5691:5700   */\n      dup7\n        /* \"#utility.yul\":5687:5709   */\n      add\n        /* \"#utility.yul\":5669:5719   */\n      tag_196\n      jump\t// in\n    tag_313:\n        /* \"#utility.yul\":5659:5719   */\n      swap2\n      pop\n        /* \"#utility.yul\":5614:5729   */\n      pop\n        /* \"#utility.yul\":5268:5736   */\n      swap3\n      pop\n      swap3\n      swap1\n      pop\n      jump\t// out\n        /* \"#utility.yul\":5742:5859   */\n    tag_197:\n        /* \"#utility.yul\":5851:5852   */\n      0x00\n        /* \"#utility.yul\":5848:5849   */\n      0x00\n        /* \"#utility.yul\":5841:5853   */\n      revert\n        /* \"#utility.yul\":5865:5982   */\n    tag_198:\n        /* \"#utility.yul\":5974:5975   */\n      0x00\n        /* \"#utility.yul\":5971:5972   */\n      0x00\n        /* \"#utility.yul\":5964:5976   */\n      revert\n        /* \"#utility.yul\":5988:6168   */\n    tag_199:\n        /* \"#utility.yul\":6036:6113   */\n      0x4e487b7100000000000000000000000000000000000000000000000000000000\n        /* \"#utility.yul\":6033:6034   */\n      0x00\n        /* \"#utility.yul\":6026:6114   */\n      mstore\n        /* \"#utility.yul\":6133:6137   */\n      0x41\n        /* \"#utility.yul\":6130:6131   */\n      0x04\n        /* \"#utility.yul\":6123:6138   */\n      mstore\n        /* \"#utility.yul\":6157:6161   */\n      0x24\n        /* \"#utility.yul\":6154:6155   */\n      0x00\n        /* \"#utility.yul\":6147:6162   */\n      revert\n        /* \"#utility.yul\":6174:6455   */\n    tag_200:\n        /* \"#utility.yul\":6257:6284   */\n      tag_318\n        /* \"#utility.yul\":6279:6283   */\n      dup3\n        /* \"#utility.yul\":6257:6284   */\n      tag_180\n      jump\t// in\n    tag_318:\n        /* \"#utility.yul\":6249:6255   */\n      dup2\n        /* \"#utility.yul\":6245:6285   */\n      add\n        /* \"#utility.yul\":6387:6393   */\n      dup2\n        /* \"#utility.yul\":6375:6385   */\n      dup2\n        /* \"#utility.yul\":6372:6394   */\n      lt\n        /* \"#utility.yul\":6351:6369   */\n      0xffffffffffffffff\n        /* \"#utility.yul\":6339:6349   */\n      dup3\n        /* \"#utility.yul\":6336:6370   */\n      gt\n        /* \"#utility.yul\":6333:6395   */\n      or\n        /* \"#utility.yul\":6330:6418   */\n      iszero\n      tag_319\n      jumpi\n        /* \"#utility.yul\":6398:6416   */\n      tag_320\n      tag_199\n      jump\t// in\n    tag_320:\n        /* \"#utility.yul\":6330:6418   */\n    tag_319:\n        /* \"#utility.yul\":6438:6448   */\n      dup1\n        /* \"#utility.yul\":6434:6436   */\n      0x40\n        /* \"#utility.yul\":6427:6449   */\n      mstore\n        /* \"#utility.yul\":6217:6455   */\n      pop\n        /* \"#utility.yul\":6174:6455   */\n      pop\n      pop\n      jump\t// out\n        /* \"#utility.yul\":6461:6590   */\n    tag_201:\n        /* \"#utility.yul\":6495:6501   */\n      0x00\n        /* \"#utility.yul\":6522:6542   */\n      tag_322\n      tag_182\n      jump\t// in\n    tag_322:\n        /* \"#utility.yul\":6512:6542   */\n      swap1\n      pop\n        /* \"#utility.yul\":6551:6584   */\n      tag_323\n        /* \"#utility.yul\":6579:6583   */\n      dup3\n        /* \"#utility.yul\":6571:6577   */\n      dup3\n        /* \"#utility.yul\":6551:6584   */\n      tag_200\n      jump\t// in\n    tag_323:\n        /* \"#utility.yul\":6461:6590   */\n      swap2\n      swap1\n      pop\n      jump\t// out\n        /* \"#utility.yul\":6596:6903   */\n    tag_202:\n        /* \"#utility.yul\":6657:6661   */\n      0x00\n        /* \"#utility.yul\":6747:6765   */\n      0xffffffffffffffff\n        /* \"#utility.yul\":6739:6745   */\n      dup3\n        /* \"#utility.yul\":6736:6766   */\n      gt\n        /* \"#utility.yul\":6733:6789   */\n      iszero\n      tag_325\n      jumpi\n        /* \"#utility.yul\":6769:6787   */\n      tag_326\n      tag_199\n      jump\t// in\n    tag_326:\n        /* \"#utility.yul\":6733:6789   */\n    tag_325:\n        /* \"#utility.yul\":6807:6836   */\n      tag_327\n        /* \"#utility.yul\":6829:6835   */\n      dup3\n        /* \"#utility.yul\":6807:6836   */\n      tag_180\n      jump\t// in\n    tag_327:\n        /* \"#utility.yul\":6799:6836   */\n      swap1\n      pop\n        /* \"#utility.yul\":6891:6895   */\n      0x20\n        /* \"#utility.yul\":6885:6889   */\n      dup2\n        /* \"#utility.yul\":6881:6896   */\n      add\n        /* \"#utility.yul\":6873:6896   */\n      swap1\n      pop\n        /* \"#utility.yul\":6596:6903   */\n      swap2\n      swap1\n      pop\n      jump\t// out\n        /* \"#utility.yul\":6909:7057   */\n    tag_203:\n        /* \"#utility.yul\":7007:7013   */\n      dup3\n        /* \"#utility.yul\":7002:7005   */\n      dup2\n        /* \"#utility.yul\":6997:7000   */\n      dup4\n        /* \"#utility.yul\":6984:7014   */\n      calldatacopy\n        /* \"#utility.yul\":7048:7049   */\n      0x00\n        /* \"#utility.yul\":7039:7045   */\n      dup4\n        /* \"#utility.yul\":7034:7037   */\n      dup4\n        /* \"#utility.yul\":7030:7046   */\n      add\n        /* \"#utility.yul\":7023:7050   */\n      mstore\n        /* \"#utility.yul\":6909:7057   */\n      pop\n      pop\n      pop\n      jump\t// out\n        /* \"#utility.yul\":7063:7486   */\n    tag_204:\n        /* \"#utility.yul\":7140:7145   */\n      0x00\n        /* \"#utility.yul\":7165:7230   */\n      tag_330\n        /* \"#utility.yul\":7181:7229   */\n      tag_331\n        /* \"#utility.yul\":7222:7228   */\n      dup5\n        /* \"#utility.yul\":7181:7229   */\n      tag_202\n      jump\t// in\n    tag_331:\n        /* \"#utility.yul\":7165:7230   */\n      tag_201\n      jump\t// in\n    tag_330:\n        /* \"#utility.yul\":7156:7230   */\n      swap1\n      pop\n        /* \"#utility.yul\":7253:7259   */\n      dup3\n        /* \"#utility.yul\":7246:7251   */\n      dup2\n        /* \"#utility.yul\":7239:7260   */\n      mstore\n        /* \"#utility.yul\":7291:7295   */\n      0x20\n        /* \"#utility.yul\":7284:7289   */\n      dup2\n        /* \"#utility.yul\":7280:7296   */\n      add\n        /* \"#utility.yul\":7329:7332   */\n      dup5\n        /* \"#utility.yul\":7320:7326   */\n      dup5\n        /* \"#utility.yul\":7315:7318   */\n      dup5\n        /* \"#utility.yul\":7311:7327   */\n      add\n        /* \"#utility.yul\":7308:7333   */\n      gt\n        /* \"#utility.yul\":7305:7417   */\n      iszero\n      tag_332\n      jumpi\n        /* \"#utility.yul\":7336:7415   */\n      tag_333\n      tag_198\n      jump\t// in\n    tag_333:\n        /* \"#utility.yul\":7305:7417   */\n    tag_332:\n        /* \"#utility.yul\":7426:7480   */\n      tag_334\n        /* \"#utility.yul\":7473:7479   */\n      dup5\n        /* \"#utility.yul\":7468:7471   */\n      dup3\n        /* \"#utility.yul\":7463:7466   */\n      dup6\n        /* \"#utility.yul\":7426:7480   */\n      tag_203\n      jump\t// in\n    tag_334:\n        /* \"#utility.yul\":7146:7486   */\n      pop\n        /* \"#utility.yul\":7063:7486   */\n      swap4\n      swap3\n      pop\n      pop\n      pop\n      jump\t// out\n        /* \"#utility.yul\":7505:7843   */\n    tag_205:\n        /* \"#utility.yul\":7560:7565   */\n      0x00\n        /* \"#utility.yul\":7609:7612   */\n      dup3\n        /* \"#utility.yul\":7602:7606   */\n      0x1f\n        /* \"#utility.yul\":7594:7600   */\n      dup4\n        /* \"#utility.yul\":7590:7607   */\n      add\n        /* \"#utility.yul\":7586:7613   */\n      slt\n        /* \"#utility.yul\":7576:7698   */\n      tag_336\n      jumpi\n        /* \"#utility.yul\":7617:7696   */\n      tag_337\n      tag_197\n      jump\t// in\n    tag_337:\n        /* \"#utility.yul\":7576:7698   */\n    tag_336:\n        /* \"#utility.yul\":7734:7740   */\n      dup2\n        /* \"#utility.yul\":7721:7741   */\n      calldataload\n        /* \"#utility.yul\":7759:7837   */\n      tag_338\n        /* \"#utility.yul\":7833:7836   */\n      dup5\n        /* \"#utility.yul\":7825:7831   */\n      dup3\n        /* \"#utility.yul\":7818:7822   */\n      0x20\n        /* \"#utility.yul\":7810:7816   */\n      dup7\n        /* \"#utility.yul\":7806:7823   */\n      add\n        /* \"#utility.yul\":7759:7837   */\n      tag_204\n      jump\t// in\n    tag_338:\n        /* \"#utility.yul\":7750:7837   */\n      swap2\n      pop\n        /* \"#utility.yul\":7566:7843   */\n      pop\n        /* \"#utility.yul\":7505:7843   */\n      swap3\n      swap2\n      pop\n      pop\n      jump\t// out\n        /* \"#utility.yul\":7849:8792   */\n    tag_58:\n        /* \"#utility.yul\":7944:7950   */\n      0x00\n        /* \"#utility.yul\":7952:7958   */\n      0x00\n        /* \"#utility.yul\":7960:7966   */\n      0x00\n        /* \"#utility.yul\":7968:7974   */\n      0x00\n        /* \"#utility.yul\":8017:8020   */\n      0x80\n        /* \"#utility.yul\":8005:8014   */\n      dup6\n        /* \"#utility.yul\":7996:8003   */\n      dup8\n        /* \"#utility.yul\":7992:8015   */\n      sub\n        /* \"#utility.yul\":7988:8021   */\n      slt\n        /* \"#utility.yul\":7985:8105   */\n      iszero\n      tag_340\n      jumpi\n        /* \"#utility.yul\":8024:8103   */\n      tag_341\n      tag_183\n      jump\t// in\n    tag_341:\n        /* \"#utility.yul\":7985:8105   */\n    tag_340:\n        /* \"#utility.yul\":8144:8145   */\n      0x00\n        /* \"#utility.yul\":8169:8222   */\n      tag_342\n        /* \"#utility.yul\":8214:8221   */\n      dup8\n        /* \"#utility.yul\":8205:8211   */\n      dup3\n        /* \"#utility.yul\":8194:8203   */\n      dup9\n        /* \"#utility.yul\":8190:8212   */\n      add\n        /* \"#utility.yul\":8169:8222   */\n      tag_192\n      jump\t// in\n    tag_342:\n        /* \"#utility.yul\":8159:8222   */\n      swap5\n      pop\n        /* \"#utility.yul\":8115:8232   */\n      pop\n        /* \"#utility.yul\":8271:8273   */\n      0x20\n        /* \"#utility.yul\":8297:8350   */\n      tag_343\n        /* \"#utility.yul\":8342:8349   */\n      dup8\n        /* \"#utility.yul\":8333:8339   */\n      dup3\n        /* \"#utility.yul\":8322:8331   */\n      dup9\n        /* \"#utility.yul\":8318:8340   */\n      add\n        /* \"#utility.yul\":8297:8350   */\n      tag_192\n      jump\t// in\n    tag_343:\n        /* \"#utility.yul\":8287:8350   */\n      swap4\n      pop\n        /* \"#utility.yul\":8242:8360   */\n      pop\n        /* \"#utility.yul\":8399:8401   */\n      0x40\n        /* \"#utility.yul\":8425:8478   */\n      tag_344\n        /* \"#utility.yul\":8470:8477   */\n      dup8\n        /* \"#utility.yul\":8461:8467   */\n      dup3\n        /* \"#utility.yul\":8450:8459   */\n      dup9\n        /* \"#utility.yul\":8446:8468   */\n      add\n        /* \"#utility.yul\":8425:8478   */\n      tag_187\n      jump\t// in\n    tag_344:\n        /* \"#utility.yul\":8415:8478   */\n      swap3\n      pop\n        /* \"#utility.yul\":8370:8488   */\n      pop\n        /* \"#utility.yul\":8555:8557   */\n      0x60\n        /* \"#utility.yul\":8544:8553   */\n      dup6\n        /* \"#utility.yul\":8540:8558   */\n      add\n        /* \"#utility.yul\":8527:8559   */\n      calldataload\n        /* \"#utility.yul\":8586:8604   */\n      0xffffffffffffffff\n        /* \"#utility.yul\":8578:8584   */\n      dup2\n        /* \"#utility.yul\":8575:8605   */\n      gt\n        /* \"#utility.yul\":8572:8689   */\n      iszero\n      tag_345\n      jumpi\n        /* \"#utility.yul\":8608:8687   */\n      tag_346\n      tag_184\n      jump\t// in\n    tag_346:\n        /* \"#utility.yul\":8572:8689   */\n    tag_345:\n        /* \"#utility.yul\":8713:8775   */\n      tag_347\n        /* \"#utility.yul\":8767:8774   */\n      dup8\n        /* \"#utility.yul\":8758:8764   */\n      dup3\n        /* \"#utility.yul\":8747:8756   */\n      dup9\n        /* \"#utility.yul\":8743:8765   */\n      add\n        /* \"#utility.yul\":8713:8775   */\n      tag_205\n      jump\t// in\n    tag_347:\n        /* \"#utility.yul\":8703:8775   */\n      swap2\n      pop\n        /* \"#utility.yul\":8498:8785   */\n      pop\n        /* \"#utility.yul\":7849:8792   */\n      swap3\n      swap6\n      swap2\n      swap5\n      pop\n      swap3\n      pop\n      jump\t// out\n        /* \"#utility.yul\":8798:9106   */\n    tag_206:\n        /* \"#utility.yul\":8860:8864   */\n      0x00\n        /* \"#utility.yul\":8950:8968   */\n      0xffffffffffffffff\n        /* \"#utility.yul\":8942:8948   */\n      dup3\n        /* \"#utility.yul\":8939:8969   */\n      gt\n        /* \"#utility.yul\":8936:8992   */\n      iszero\n      tag_349\n      jumpi\n        /* \"#utility.yul\":8972:8990   */\n      tag_350\n      tag_199\n      jump\t// in\n    tag_350:\n        /* \"#utility.yul\":8936:8992   */\n    tag_349:\n        /* \"#utility.yul\":9010:9039   */\n      tag_351\n        /* \"#utility.yul\":9032:9038   */\n      dup3\n        /* \"#utility.yul\":9010:9039   */\n      tag_180\n      jump\t// in\n    tag_351:\n        /* \"#utility.yul\":9002:9039   */\n      swap1\n      pop\n        /* \"#utility.yul\":9094:9098   */\n      0x20\n        /* \"#utility.yul\":9088:9092   */\n      dup2\n        /* \"#utility.yul\":9084:9099   */\n      add\n        /* \"#utility.yul\":9076:9099   */\n      swap1\n      pop\n        /* \"#utility.yul\":8798:9106   */\n      swap2\n      swap1\n      pop\n      jump\t// out\n        /* \"#utility.yul\":9112:9537   */\n    tag_207:\n        /* \"#utility.yul\":9190:9195   */\n      0x00\n        /* \"#utility.yul\":9215:9281   */\n      tag_353\n        /* \"#utility.yul\":9231:9280   */\n      tag_354\n        /* \"#utility.yul\":9273:9279   */\n      dup5\n        /* \"#utility.yul\":9231:9280   */\n      tag_206\n      jump\t// in\n    tag_354:\n        /* \"#utility.yul\":9215:9281   */\n      tag_201\n      jump\t// in\n    tag_353:\n        /* \"#utility.yul\":9206:9281   */\n      swap1\n      pop\n        /* \"#utility.yul\":9304:9310   */\n      dup3\n        /* \"#utility.yul\":9297:9302   */\n      dup2\n        /* \"#utility.yul\":9290:9311   */\n      mstore\n        /* \"#utility.yul\":9342:9346   */\n      0x20\n        /* \"#utility.yul\":9335:9340   */\n      dup2\n        /* \"#utility.yul\":9331:9347   */\n      add\n        /* \"#utility.yul\":9380:9383   */\n      dup5\n        /* \"#utility.yul\":9371:9377   */\n      dup5\n        /* \"#utility.yul\":9366:9369   */\n      dup5\n        /* \"#utility.yul\":9362:9378   */\n      add\n        /* \"#utility.yul\":9359:9384   */\n      gt\n        /* \"#utility.yul\":9356:9468   */\n      iszero\n      tag_355\n      jumpi\n        /* \"#utility.yul\":9387:9466   */\n      tag_356\n      tag_198\n      jump\t// in\n    tag_356:\n        /* \"#utility.yul\":9356:9468   */\n    tag_355:\n        /* \"#utility.yul\":9477:9531   */\n      tag_357\n        /* \"#utility.yul\":9524:9530   */\n      dup5\n        /* \"#utility.yul\":9519:9522   */\n      dup3\n        /* \"#utility.yul\":9514:9517   */\n      dup6\n        /* \"#utility.yul\":9477:9531   */\n      tag_203\n      jump\t// in\n    tag_357:\n        /* \"#utility.yul\":9196:9537   */\n      pop\n        /* \"#utility.yul\":9112:9537   */\n      swap4\n      swap3\n      pop\n      pop\n      pop\n      jump\t// out\n        /* \"#utility.yul\":9557:9897   */\n    tag_208:\n        /* \"#utility.yul\":9613:9618   */\n      0x00\n        /* \"#utility.yul\":9662:9665   */\n      dup3\n        /* \"#utility.yul\":9655:9659   */\n      0x1f\n        /* \"#utility.yul\":9647:9653   */\n      dup4\n        /* \"#utility.yul\":9643:9660   */\n      add\n        /* \"#utility.yul\":9639:9666   */\n      slt\n        /* \"#utility.yul\":9629:9751   */\n      tag_359\n      jumpi\n        /* \"#utility.yul\":9670:9749   */\n      tag_360\n      tag_197\n      jump\t// in\n    tag_360:\n        /* \"#utility.yul\":9629:9751   */\n    tag_359:\n        /* \"#utility.yul\":9787:9793   */\n      dup2\n        /* \"#utility.yul\":9774:9794   */\n      calldataload\n        /* \"#utility.yul\":9812:9891   */\n      tag_361\n        /* \"#utility.yul\":9887:9890   */\n      dup5\n        /* \"#utility.yul\":9879:9885   */\n      dup3\n        /* \"#utility.yul\":9872:9876   */\n      0x20\n        /* \"#utility.yul\":9864:9870   */\n      dup7\n        /* \"#utility.yul\":9860:9877   */\n      add\n        /* \"#utility.yul\":9812:9891   */\n      tag_207\n      jump\t// in\n    tag_361:\n        /* \"#utility.yul\":9803:9891   */\n      swap2\n      pop\n        /* \"#utility.yul\":9619:9897   */\n      pop\n        /* \"#utility.yul\":9557:9897   */\n      swap3\n      swap2\n      pop\n      pop\n      jump\t// out\n        /* \"#utility.yul\":9903:10557   */\n    tag_66:\n        /* \"#utility.yul\":9981:9987   */\n      0x00\n        /* \"#utility.yul\":9989:9995   */\n      0x00\n        /* \"#utility.yul\":10038:10040   */\n      0x40\n        /* \"#utility.yul\":10026:10035   */\n      dup4\n        /* \"#utility.yul\":10017:10024   */\n      dup6\n        /* \"#utility.yul\":10013:10036   */\n      sub\n        /* \"#utility.yul\":10009:10041   */\n      slt\n        /* \"#utility.yul\":10006:10125   */\n      iszero\n      tag_363\n      jumpi\n        /* \"#utility.yul\":10044:10123   */\n      tag_364\n      tag_183\n      jump\t// in\n    tag_364:\n        /* \"#utility.yul\":10006:10125   */\n    tag_363:\n        /* \"#utility.yul\":10164:10165   */\n      0x00\n        /* \"#utility.yul\":10189:10242   */\n      tag_365\n        /* \"#utility.yul\":10234:10241   */\n      dup6\n        /* \"#utility.yul\":10225:10231   */\n      dup3\n        /* \"#utility.yul\":10214:10223   */\n      dup7\n        /* \"#utility.yul\":10210:10232   */\n      add\n        /* \"#utility.yul\":10189:10242   */\n      tag_192\n      jump\t// in\n    tag_365:\n        /* \"#utility.yul\":10179:10242   */\n      swap3\n      pop\n        /* \"#utility.yul\":10135:10252   */\n      pop\n        /* \"#utility.yul\":10319:10321   */\n      0x20\n        /* \"#utility.yul\":10308:10317   */\n      dup4\n        /* \"#utility.yul\":10304:10322   */\n      add\n        /* \"#utility.yul\":10291:10323   */\n      calldataload\n        /* \"#utility.yul\":10350:10368   */\n      0xffffffffffffffff\n        /* \"#utility.yul\":10342:10348   */\n      dup2\n        /* \"#utility.yul\":10339:10369   */\n      gt\n        /* \"#utility.yul\":10336:10453   */\n      iszero\n      tag_366\n      jumpi\n        /* \"#utility.yul\":10372:10451   */\n      tag_367\n      tag_184\n      jump\t// in\n    tag_367:\n        /* \"#utility.yul\":10336:10453   */\n    tag_366:\n        /* \"#utility.yul\":10477:10540   */\n      tag_368\n        /* \"#utility.yul\":10532:10539   */\n      dup6\n        /* \"#utility.yul\":10523:10529   */\n      dup3\n        /* \"#utility.yul\":10512:10521   */\n      dup7\n        /* \"#utility.yul\":10508:10530   */\n      add\n        /* \"#utility.yul\":10477:10540   */\n      tag_208\n      jump\t// in\n    tag_368:\n        /* \"#utility.yul\":10467:10540   */\n      swap2\n      pop\n        /* \"#utility.yul\":10262:10550   */\n      pop\n        /* \"#utility.yul\":9903:10557   */\n      swap3\n      pop\n      swap3\n      swap1\n      pop\n      jump\t// out\n        /* \"#utility.yul\":10563:11037   */\n    tag_70:\n        /* \"#utility.yul\":10631:10637   */\n      0x00\n        /* \"#utility.yul\":10639:10645   */\n      0x00\n        /* \"#utility.yul\":10688:10690   */\n      0x40\n        /* \"#utility.yul\":10676:10685   */\n      dup4\n        /* \"#utility.yul\":10667:10674   */\n      dup6\n        /* \"#utility.yul\":10663:10686   */\n      sub\n        /* \"#utility.yul\":10659:10691   */\n      slt\n        /* \"#utility.yul\":10656:10775   */\n      iszero\n      tag_370\n      jumpi\n        /* \"#utility.yul\":10694:10773   */\n      tag_371\n      tag_183\n      jump\t// in\n    tag_371:\n        /* \"#utility.yul\":10656:10775   */\n    tag_370:\n        /* \"#utility.yul\":10814:10815   */\n      0x00\n        /* \"#utility.yul\":10839:10892   */\n      tag_372\n        /* \"#utility.yul\":10884:10891   */\n      dup6\n        /* \"#utility.yul\":10875:10881   */\n      dup3\n        /* \"#utility.yul\":10864:10873   */\n      dup7\n        /* \"#utility.yul\":10860:10882   */\n      add\n        /* \"#utility.yul\":10839:10892   */\n      tag_192\n      jump\t// in\n    tag_372:\n        /* \"#utility.yul\":10829:10892   */\n      swap3\n      pop\n        /* \"#utility.yul\":10785:10902   */\n      pop\n        /* \"#utility.yul\":10941:10943   */\n      0x20\n        /* \"#utility.yul\":10967:11020   */\n      tag_373\n        /* \"#utility.yul\":11012:11019   */\n      dup6\n        /* \"#utility.yul\":11003:11009   */\n      dup3\n        /* \"#utility.yul\":10992:11001   */\n      dup7\n        /* \"#utility.yul\":10988:11010   */\n      add\n        /* \"#utility.yul\":10967:11020   */\n      tag_192\n      jump\t// in\n    tag_373:\n        /* \"#utility.yul\":10957:11020   */\n      swap2\n      pop\n        /* \"#utility.yul\":10912:11030   */\n      pop\n        /* \"#utility.yul\":10563:11037   */\n      swap3\n      pop\n      swap3\n      swap1\n      pop\n      jump\t// out\n        /* \"#utility.yul\":11043:11152   */\n    tag_209:\n        /* \"#utility.yul\":11124:11145   */\n      tag_375\n        /* \"#utility.yul\":11139:11144   */\n      dup2\n        /* \"#utility.yul\":11124:11145   */\n      tag_194\n      jump\t// in\n    tag_375:\n        /* \"#utility.yul\":11119:11122   */\n      dup3\n        /* \"#utility.yul\":11112:11146   */\n      mstore\n        /* \"#utility.yul\":11043:11152   */\n      pop\n      pop\n      jump\t// out\n        /* \"#utility.yul\":11158:11368   */\n    tag_73:\n        /* \"#utility.yul\":11245:11249   */\n      0x00\n        /* \"#utility.yul\":11283:11285   */\n      0x20\n        /* \"#utility.yul\":11272:11281   */\n      dup3\n        /* \"#utility.yul\":11268:11286   */\n      add\n        /* \"#utility.yul\":11260:11286   */\n      swap1\n      pop\n        /* \"#utility.yul\":11296:11361   */\n      tag_377\n        /* \"#utility.yul\":11358:11359   */\n      0x00\n        /* \"#utility.yul\":11347:11356   */\n      dup4\n        /* \"#utility.yul\":11343:11360   */\n      add\n        /* \"#utility.yul\":11334:11340   */\n      dup5\n        /* \"#utility.yul\":11296:11361   */\n      tag_209\n      jump\t// in\n    tag_377:\n        /* \"#utility.yul\":11158:11368   */\n      swap3\n      swap2\n      pop\n      pop\n      jump\t// out\n        /* \"#utility.yul\":11374:11554   */\n    tag_210:\n        /* \"#utility.yul\":11422:11499   */\n      0x4e487b7100000000000000000000000000000000000000000000000000000000\n        /* \"#utility.yul\":11419:11420   */\n      0x00\n        /* \"#utility.yul\":11412:11500   */\n      mstore\n        /* \"#utility.yul\":11519:11523   */\n      0x22\n        /* \"#utility.yul\":11516:11517   */\n      0x04\n        /* \"#utility.yul\":11509:11524   */\n      mstore\n        /* \"#utility.yul\":11543:11547   */\n      0x24\n        /* \"#utility.yul\":11540:11541   */\n      0x00\n        /* \"#utility.yul\":11533:11548   */\n      revert\n        /* \"#utility.yul\":11560:11880   */\n    tag_75:\n        /* \"#utility.yul\":11604:11610   */\n      0x00\n        /* \"#utility.yul\":11641:11642   */\n      0x02\n        /* \"#utility.yul\":11635:11639   */\n      dup3\n        /* \"#utility.yul\":11631:11643   */\n      div\n        /* \"#utility.yul\":11621:11643   */\n      swap1\n      pop\n        /* \"#utility.yul\":11688:11689   */\n      0x01\n        /* \"#utility.yul\":11682:11686   */\n      dup3\n        /* \"#utility.yul\":11678:11690   */\n      and\n        /* \"#utility.yul\":11709:11727   */\n      dup1\n        /* \"#utility.yul\":11699:11780   */\n      tag_380\n      jumpi\n        /* \"#utility.yul\":11765:11769   */\n      0x7f\n        /* \"#utility.yul\":11757:11763   */\n      dup3\n        /* \"#utility.yul\":11753:11770   */\n      and\n        /* \"#utility.yul\":11743:11770   */\n      swap2\n      pop\n        /* \"#utility.yul\":11699:11780   */\n    tag_380:\n        /* \"#utility.yul\":11827:11829   */\n      0x20\n        /* \"#utility.yul\":11819:11825   */\n      dup3\n        /* \"#utility.yul\":11816:11830   */\n      lt\n        /* \"#utility.yul\":11796:11814   */\n      dup2\n        /* \"#utility.yul\":11793:11831   */\n      sub\n        /* \"#utility.yul\":11790:11874   */\n      tag_381\n      jumpi\n        /* \"#utility.yul\":11846:11864   */\n      tag_382\n      tag_210\n      jump\t// in\n    tag_382:\n        /* \"#utility.yul\":11790:11874   */\n    tag_381:\n        /* \"#utility.yul\":11611:11880   */\n      pop\n        /* \"#utility.yul\":11560:11880   */\n      swap2\n      swap1\n      pop\n      jump\t// out\n        /* \"#utility.yul\":11886:12055   */\n    tag_211:\n        /* \"#utility.yul\":12026:12047   */\n      0x546f6b656e20646f65736e277420657869737400000000000000000000000000\n        /* \"#utility.yul\":12022:12023   */\n      0x00\n        /* \"#utility.yul\":12014:12020   */\n      dup3\n        /* \"#utility.yul\":12010:12024   */\n      add\n        /* \"#utility.yul\":12003:12048   */\n      mstore\n        /* \"#utility.yul\":11886:12055   */\n      pop\n      jump\t// out\n        /* \"#utility.yul\":12061:12427   */\n    tag_212:\n        /* \"#utility.yul\":12203:12206   */\n      0x00\n        /* \"#utility.yul\":12224:12291   */\n      tag_385\n        /* \"#utility.yul\":12288:12290   */\n      0x13\n        /* \"#utility.yul\":12283:12286   */\n      dup4\n        /* \"#utility.yul\":12224:12291   */\n      tag_178\n      jump\t// in\n    tag_385:\n        /* \"#utility.yul\":12217:12291   */\n      swap2\n      pop\n        /* \"#utility.yul\":12300:12393   */\n      tag_386\n        /* \"#utility.yul\":12389:12392   */\n      dup3\n        /* \"#utility.yul\":12300:12393   */\n      tag_211\n      jump\t// in\n    tag_386:\n        /* \"#utility.yul\":12418:12420   */\n      0x20\n        /* \"#utility.yul\":12413:12416   */\n      dup3\n        /* \"#utility.yul\":12409:12421   */\n      add\n        /* \"#utility.yul\":12402:12421   */\n      swap1\n      pop\n        /* \"#utility.yul\":12061:12427   */\n      swap2\n      swap1\n      pop\n      jump\t// out\n        /* \"#utility.yul\":12433:12852   */\n    tag_83:\n        /* \"#utility.yul\":12599:12603   */\n      0x00\n        /* \"#utility.yul\":12637:12639   */\n      0x20\n        /* \"#utility.yul\":12626:12635   */\n      dup3\n        /* \"#utility.yul\":12622:12640   */\n      add\n        /* \"#utility.yul\":12614:12640   */\n      swap1\n      pop\n        /* \"#utility.yul\":12686:12695   */\n      dup2\n        /* \"#utility.yul\":12680:12684   */\n      dup2\n        /* \"#utility.yul\":12676:12696   */\n      sub\n        /* \"#utility.yul\":12672:12673   */\n      0x00\n        /* \"#utility.yul\":12661:12670   */\n      dup4\n        /* \"#utility.yul\":12657:12674   */\n      add\n        /* \"#utility.yul\":12650:12697   */\n      mstore\n        /* \"#utility.yul\":12714:12845   */\n      tag_388\n        /* \"#utility.yul\":12840:12844   */\n      dup2\n        /* \"#utility.yul\":12714:12845   */\n      tag_212\n      jump\t// in\n    tag_388:\n        /* \"#utility.yul\":12706:12845   */\n      swap1\n      pop\n        /* \"#utility.yul\":12433:12852   */\n      swap2\n      swap1\n      pop\n      jump\t// out\n        /* \"#utility.yul\":12858:13021   */\n    tag_213:\n        /* \"#utility.yul\":12998:13013   */\n      0x416c7265616479206f776e657200000000000000000000000000000000000000\n        /* \"#utility.yul\":12994:12995   */\n      0x00\n        /* \"#utility.yul\":12986:12992   */\n      dup3\n        /* \"#utility.yul\":12982:12996   */\n      add\n        /* \"#utility.yul\":12975:13014   */\n      mstore\n        /* \"#utility.yul\":12858:13021   */\n      pop\n      jump\t// out\n        /* \"#utility.yul\":13027:13393   */\n    tag_214:\n        /* \"#utility.yul\":13169:13172   */\n      0x00\n        /* \"#utility.yul\":13190:13257   */\n      tag_391\n        /* \"#utility.yul\":13254:13256   */\n      0x0d\n        /* \"#utility.yul\":13249:13252   */\n      dup4\n        /* \"#utility.yul\":13190:13257   */\n      tag_178\n      jump\t// in\n    tag_391:\n        /* \"#utility.yul\":13183:13257   */\n      swap2\n      pop\n        /* \"#utility.yul\":13266:13359   */\n      tag_392\n        /* \"#utility.yul\":13355:13358   */\n      dup3\n        /* \"#utility.yul\":13266:13359   */\n      tag_213\n      jump\t// in\n    tag_392:\n        /* \"#utility.yul\":13384:13386   */\n      0x20\n        /* \"#utility.yul\":13379:13382   */\n      dup3\n        /* \"#utility.yul\":13375:13387   */\n      add\n        /* \"#utility.yul\":13368:13387   */\n      swap1\n      pop\n        /* \"#utility.yul\":13027:13393   */\n      swap2\n      swap1\n      pop\n      jump\t// out\n        /* \"#utility.yul\":13399:13818   */\n    tag_88:\n        /* \"#utility.yul\":13565:13569   */\n      0x00\n        /* \"#utility.yul\":13603:13605   */\n      0x20\n        /* \"#utility.yul\":13592:13601   */\n      dup3\n        /* \"#utility.yul\":13588:13606   */\n      add\n        /* \"#utility.yul\":13580:13606   */\n      swap1\n      pop\n        /* \"#utility.yul\":13652:13661   */\n      dup2\n        /* \"#utility.yul\":13646:13650   */\n      dup2\n        /* \"#utility.yul\":13642:13662   */\n      sub\n        /* \"#utility.yul\":13638:13639   */\n      0x00\n        /* \"#utility.yul\":13627:13636   */\n      dup4\n        /* \"#utility.yul\":13623:13640   */\n      add\n        /* \"#utility.yul\":13616:13663   */\n      mstore\n        /* \"#utility.yul\":13680:13811   */\n      tag_394\n        /* \"#utility.yul\":13806:13810   */\n      dup2\n        /* \"#utility.yul\":13680:13811   */\n      tag_214\n      jump\t// in\n    tag_394:\n        /* \"#utility.yul\":13672:13811   */\n      swap1\n      pop\n        /* \"#utility.yul\":13399:13818   */\n      swap2\n      swap1\n      pop\n      jump\t// out\n        /* \"#utility.yul\":13824:13988   */\n    tag_215:\n        /* \"#utility.yul\":13964:13980   */\n      0x4e6f7420617574686f72697a6564000000000000000000000000000000000000\n        /* \"#utility.yul\":13960:13961   */\n      0x00\n        /* \"#utility.yul\":13952:13958   */\n      dup3\n        /* \"#utility.yul\":13948:13962   */\n      add\n        /* \"#utility.yul\":13941:13981   */\n      mstore\n        /* \"#utility.yul\":13824:13988   */\n      pop\n      jump\t// out\n        /* \"#utility.yul\":13994:14360   */\n    tag_216:\n        /* \"#utility.yul\":14136:14139   */\n      0x00\n        /* \"#utility.yul\":14157:14224   */\n      tag_397\n        /* \"#utility.yul\":14221:14223   */\n      0x0e\n        /* \"#utility.yul\":14216:14219   */\n      dup4\n        /* \"#utility.yul\":14157:14224   */\n      tag_178\n      jump\t// in\n    tag_397:\n        /* \"#utility.yul\":14150:14224   */\n      swap2\n      pop\n        /* \"#utility.yul\":14233:14326   */\n      tag_398\n        /* \"#utility.yul\":14322:14325   */\n      dup3\n        /* \"#utility.yul\":14233:14326   */\n      tag_215\n      jump\t// in\n    tag_398:\n        /* \"#utility.yul\":14351:14353   */\n      0x20\n        /* \"#utility.yul\":14346:14349   */\n      dup3\n        /* \"#utility.yul\":14342:14354   */\n      add\n        /* \"#utility.yul\":14335:14354   */\n      swap1\n      pop\n        /* \"#utility.yul\":13994:14360   */\n      swap2\n      swap1\n      pop\n      jump\t// out\n        /* \"#utility.yul\":14366:14785   */\n    tag_93:\n        /* \"#utility.yul\":14532:14536   */\n      0x00\n        /* \"#utility.yul\":14570:14572   */\n      0x20\n        /* \"#utility.yul\":14559:14568   */\n      dup3\n        /* \"#utility.yul\":14555:14573   */\n      add\n        /* \"#utility.yul\":14547:14573   */\n      swap1\n      pop\n        /* \"#utility.yul\":14619:14628   */\n      dup2\n        /* \"#utility.yul\":14613:14617   */\n      dup2\n        /* \"#utility.yul\":14609:14629   */\n      sub\n        /* \"#utility.yul\":14605:14606   */\n      0x00\n        /* \"#utility.yul\":14594:14603   */\n      dup4\n        /* \"#utility.yul\":14590:14607   */\n      add\n        /* \"#utility.yul\":14583:14630   */\n      mstore\n        /* \"#utility.yul\":14647:14778   */\n      tag_400\n        /* \"#utility.yul\":14773:14777   */\n      dup2\n        /* \"#utility.yul\":14647:14778   */\n      tag_216\n      jump\t// in\n    tag_400:\n        /* \"#utility.yul\":14639:14778   */\n      swap1\n      pop\n        /* \"#utility.yul\":14366:14785   */\n      swap2\n      swap1\n      pop\n      jump\t// out\n        /* \"#utility.yul\":14791:14953   */\n    tag_217:\n        /* \"#utility.yul\":14931:14945   */\n      0x5a65726f20616464726573730000000000000000000000000000000000000000\n        /* \"#utility.yul\":14927:14928   */\n      0x00\n        /* \"#utility.yul\":14919:14925   */\n      dup3\n        /* \"#utility.yul\":14915:14929   */\n      add\n        /* \"#utility.yul\":14908:14946   */\n      mstore\n        /* \"#utility.yul\":14791:14953   */\n      pop\n      jump\t// out\n        /* \"#utility.yul\":14959:15325   */\n    tag_218:\n        /* \"#utility.yul\":15101:15104   */\n      0x00\n        /* \"#utility.yul\":15122:15189   */\n      tag_403\n        /* \"#utility.yul\":15186:15188   */\n      0x0c\n        /* \"#utility.yul\":15181:15184   */\n      dup4\n        /* \"#utility.yul\":15122:15189   */\n      tag_178\n      jump\t// in\n    tag_403:\n        /* \"#utility.yul\":15115:15189   */\n      swap2\n      pop\n        /* \"#utility.yul\":15198:15291   */\n      tag_404\n        /* \"#utility.yul\":15287:15290   */\n      dup3\n        /* \"#utility.yul\":15198:15291   */\n      tag_217\n      jump\t// in\n    tag_404:\n        /* \"#utility.yul\":15316:15318   */\n      0x20\n        /* \"#utility.yul\":15311:15314   */\n      dup3\n        /* \"#utility.yul\":15307:15319   */\n      add\n        /* \"#utility.yul\":15300:15319   */\n      swap1\n      pop\n        /* \"#utility.yul\":14959:15325   */\n      swap2\n      swap1\n      pop\n      jump\t// out\n        /* \"#utility.yul\":15331:15750   */\n    tag_109:\n        /* \"#utility.yul\":15497:15501   */\n      0x00\n        /* \"#utility.yul\":15535:15537   */\n      0x20\n        /* \"#utility.yul\":15524:15533   */\n      dup3\n        /* \"#utility.yul\":15520:15538   */\n      add\n        /* \"#utility.yul\":15512:15538   */\n      swap1\n      pop\n        /* \"#utility.yul\":15584:15593   */\n      dup2\n        /* \"#utility.yul\":15578:15582   */\n      dup2\n        /* \"#utility.yul\":15574:15594   */\n      sub\n        /* \"#utility.yul\":15570:15571   */\n      0x00\n        /* \"#utility.yul\":15559:15568   */\n      dup4\n        /* \"#utility.yul\":15555:15572   */\n      add\n        /* \"#utility.yul\":15548:15595   */\n      mstore\n        /* \"#utility.yul\":15612:15743   */\n      tag_406\n        /* \"#utility.yul\":15738:15742   */\n      dup2\n        /* \"#utility.yul\":15612:15743   */\n      tag_218\n      jump\t// in\n    tag_406:\n        /* \"#utility.yul\":15604:15743   */\n      swap1\n      pop\n        /* \"#utility.yul\":15331:15750   */\n      swap2\n      swap1\n      pop\n      jump\t// out\n        /* \"#utility.yul\":15756:15919   */\n    tag_219:\n        /* \"#utility.yul\":15896:15911   */\n      0x53656c6620617070726f76616c00000000000000000000000000000000000000\n        /* \"#utility.yul\":15892:15893   */\n      0x00\n        /* \"#utility.yul\":15884:15890   */\n      dup3\n        /* \"#utility.yul\":15880:15894   */\n      add\n        /* \"#utility.yul\":15873:15912   */\n      mstore\n        /* \"#utility.yul\":15756:15919   */\n      pop\n      jump\t// out\n        /* \"#utility.yul\":15925:16291   */\n    tag_220:\n        /* \"#utility.yul\":16067:16070   */\n      0x00\n        /* \"#utility.yul\":16088:16155   */\n      tag_409\n        /* \"#utility.yul\":16152:16154   */\n      0x0d\n        /* \"#utility.yul\":16147:16150   */\n      dup4\n        /* \"#utility.yul\":16088:16155   */\n      tag_178\n      jump\t// in\n    tag_409:\n        /* \"#utility.yul\":16081:16155   */\n      swap2\n      pop\n        /* \"#utility.yul\":16164:16257   */\n      tag_410\n        /* \"#utility.yul\":16253:16256   */\n      dup3\n        /* \"#utility.yul\":16164:16257   */\n      tag_219\n      jump\t// in\n    tag_410:\n        /* \"#utility.yul\":16282:16284   */\n      0x20\n        /* \"#utility.yul\":16277:16280   */\n      dup3\n        /* \"#utility.yul\":16273:16285   */\n      add\n        /* \"#utility.yul\":16266:16285   */\n      swap1\n      pop\n        /* \"#utility.yul\":15925:16291   */\n      swap2\n      swap1\n      pop\n      jump\t// out\n        /* \"#utility.yul\":16297:16716   */\n    tag_118:\n        /* \"#utility.yul\":16463:16467   */\n      0x00\n        /* \"#utility.yul\":16501:16503   */\n      0x20\n        /* \"#utility.yul\":16490:16499   */\n      dup3\n        /* \"#utility.yul\":16486:16504   */\n      add\n        /* \"#utility.yul\":16478:16504   */\n      swap1\n      pop\n        /* \"#utility.yul\":16550:16559   */\n      dup2\n        /* \"#utility.yul\":16544:16548   */\n      dup2\n        /* \"#utility.yul\":16540:16560   */\n      sub\n        /* \"#utility.yul\":16536:16537   */\n      0x00\n        /* \"#utility.yul\":16525:16534   */\n      dup4\n        /* \"#utility.yul\":16521:16538   */\n      add\n        /* \"#utility.yul\":16514:16561   */\n      mstore\n        /* \"#utility.yul\":16578:16709   */\n      tag_412\n        /* \"#utility.yul\":16704:16708   */\n      dup2\n        /* \"#utility.yul\":16578:16709   */\n      tag_220\n      jump\t// in\n    tag_412:\n        /* \"#utility.yul\":16570:16709   */\n      swap1\n      pop\n        /* \"#utility.yul\":16297:16716   */\n      swap2\n      swap1\n      pop\n      jump\t// out\n        /* \"#utility.yul\":16722:16902   */\n    tag_221:\n        /* \"#utility.yul\":16770:16847   */\n      0x4e487b7100000000000000000000000000000000000000000000000000000000\n        /* \"#utility.yul\":16767:16768   */\n      0x00\n        /* \"#utility.yul\":16760:16848   */\n      mstore\n        /* \"#utility.yul\":16867:16871   */\n      0x11\n        /* \"#utility.yul\":16864:16865   */\n      0x04\n        /* \"#utility.yul\":16857:16872   */\n      mstore\n        /* \"#utility.yul\":16891:16895   */\n      0x24\n        /* \"#utility.yul\":16888:16889   */\n      0x00\n        /* \"#utility.yul\":16881:16896   */\n      revert\n        /* \"#utility.yul\":16908:17141   */\n    tag_136:\n        /* \"#utility.yul\":16947:16950   */\n      0x00\n        /* \"#utility.yul\":16970:16994   */\n      tag_415\n        /* \"#utility.yul\":16988:16993   */\n      dup3\n        /* \"#utility.yul\":16970:16994   */\n      tag_185\n      jump\t// in\n    tag_415:\n        /* \"#utility.yul\":16961:16994   */\n      swap2\n      pop\n        /* \"#utility.yul\":17016:17082   */\n      0xffffffffffffffffffffffffffffffffffffffffffffffffffffffffffffffff\n        /* \"#utility.yul\":17009:17014   */\n      dup3\n        /* \"#utility.yul\":17006:17083   */\n      sub\n        /* \"#utility.yul\":17003:17106   */\n      tag_416\n      jumpi\n        /* \"#utility.yul\":17086:17104   */\n      tag_417\n      tag_221\n      jump\t// in\n    tag_417:\n        /* \"#utility.yul\":17003:17106   */\n    tag_416:\n        /* \"#utility.yul\":17133:17134   */\n      0x01\n        /* \"#utility.yul\":17126:17131   */\n      dup3\n        /* \"#utility.yul\":17122:17135   */\n      add\n        /* \"#utility.yul\":17115:17135   */\n      swap1\n      pop\n        /* \"#utility.yul\":16908:17141   */\n      swap2\n      swap1\n      pop\n      jump\t// out\n        /* \"#utility.yul\":17147:17338   */\n    tag_138:\n        /* \"#utility.yul\":17187:17190   */\n      0x00\n        /* \"#utility.yul\":17206:17226   */\n      tag_419\n        /* \"#utility.yul\":17224:17225   */\n      dup3\n        /* \"#utility.yul\":17206:17226   */\n      tag_185\n      jump\t// in\n    tag_419:\n        /* \"#utility.yul\":17201:17226   */\n      swap2\n      pop\n        /* \"#utility.yul\":17240:17260   */\n      tag_420\n        /* \"#utility.yul\":17258:17259   */\n      dup4\n        /* \"#utility.yul\":17240:17260   */\n      tag_185\n      jump\t// in\n    tag_420:\n        /* \"#utility.yul\":17235:17260   */\n      swap3\n      pop\n        /* \"#utility.yul\":17283:17284   */\n      dup3\n        /* \"#utility.yul\":17280:17281   */\n      dup3\n        /* \"#utility.yul\":17276:17285   */\n      add\n        /* \"#utility.yul\":17269:17285   */\n      swap1\n      pop\n        /* \"#utility.yul\":17304:17307   */\n      dup1\n        /* \"#utility.yul\":17301:17302   */\n      dup3\n        /* \"#utility.yul\":17298:17308   */\n      gt\n        /* \"#utility.yul\":17295:17331   */\n      iszero\n      tag_421\n      jumpi\n        /* \"#utility.yul\":17311:17329   */\n      tag_422\n      tag_221\n      jump\t// in\n    tag_422:\n        /* \"#utility.yul\":17295:17331   */\n    tag_421:\n        /* \"#utility.yul\":17147:17338   */\n      swap3\n      swap2\n      pop\n      pop\n      jump\t// out\n        /* \"#utility.yul\":17344:17485   */\n    tag_222:\n        /* \"#utility.yul\":17393:17397   */\n      0x00\n        /* \"#utility.yul\":17416:17419   */\n      dup2\n        /* \"#utility.yul\":17408:17419   */\n      swap1\n      pop\n        /* \"#utility.yul\":17439:17442   */\n      dup2\n        /* \"#utility.yul\":17436:17437   */\n      0x00\n        /* \"#utility.yul\":17429:17443   */\n      mstore\n        /* \"#utility.yul\":17473:17477   */\n      0x20\n        /* \"#utility.yul\":17470:17471   */\n      0x00\n        /* \"#utility.yul\":17460:17478   */\n      keccak256\n        /* \"#utility.yul\":17452:17478   */\n      swap1\n      pop\n        /* \"#utility.yul\":17344:17485   */\n      swap2\n      swap1\n      pop\n      jump\t// out\n        /* \"#utility.yul\":17491:17584   */\n    tag_223:\n        /* \"#utility.yul\":17528:17534   */\n      0x00\n        /* \"#utility.yul\":17575:17577   */\n      0x20\n        /* \"#utility.yul\":17570:17572   */\n      0x1f\n        /* \"#utility.yul\":17563:17568   */\n      dup4\n        /* \"#utility.yul\":17559:17573   */\n      add\n        /* \"#utility.yul\":17555:17578   */\n      div\n        /* \"#utility.yul\":17545:17578   */\n      swap1\n      pop\n        /* \"#utility.yul\":17491:17584   */\n      swap2\n      swap1\n      pop\n      jump\t// out\n        /* \"#utility.yul\":17590:17697   */\n    tag_224:\n        /* \"#utility.yul\":17634:17642   */\n      0x00\n        /* \"#utility.yul\":17684:17689   */\n      dup3\n        /* \"#utility.yul\":17678:17682   */\n      dup3\n        /* \"#utility.yul\":17674:17690   */\n      shl\n        /* \"#utility.yul\":17653:17690   */\n      swap1\n      pop\n        /* \"#utility.yul\":17590:17697   */\n      swap3\n      swap2\n      pop\n      pop\n      jump\t// out\n        /* \"#utility.yul\":17703:18096   */\n    tag_225:\n        /* \"#utility.yul\":17772:17778   */\n      0x00\n        /* \"#utility.yul\":17822:17823   */\n      0x08\n        /* \"#utility.yul\":17810:17820   */\n      dup4\n        /* \"#utility.yul\":17806:17824   */\n      mul\n        /* \"#utility.yul\":17845:17942   */\n      tag_427\n        /* \"#utility.yul\":17875:17941   */\n      0xffffffffffffffffffffffffffffffffffffffffffffffffffffffffffffffff\n        /* \"#utility.yul\":17864:17873   */\n      dup3\n        /* \"#utility.yul\":17845:17942   */\n      tag_224\n      jump\t// in\n    tag_427:\n        /* \"#utility.yul\":17963:18002   */\n      tag_428\n        /* \"#utility.yul\":17993:18001   */\n      dup7\n        /* \"#utility.yul\":17982:17991   */\n      dup4\n        /* \"#utility.yul\":17963:18002   */\n      tag_224\n      jump\t// in\n    tag_428:\n        /* \"#utility.yul\":17951:18002   */\n      swap6\n      pop\n        /* \"#utility.yul\":18035:18039   */\n      dup1\n        /* \"#utility.yul\":18031:18040   */\n      not\n        /* \"#utility.yul\":18024:18029   */\n      dup5\n        /* \"#utility.yul\":18020:18041   */\n      and\n        /* \"#utility.yul\":18011:18041   */\n      swap4\n      pop\n        /* \"#utility.yul\":18084:18088   */\n      dup1\n        /* \"#utility.yul\":18074:18082   */\n      dup7\n        /* \"#utility.yul\":18070:18089   */\n      and\n        /* \"#utility.yul\":18063:18068   */\n      dup5\n        /* \"#utility.yul\":18060:18090   */\n      or\n        /* \"#utility.yul\":18050:18090   */\n      swap3\n      pop\n        /* \"#utility.yul\":17779:18096   */\n      pop\n      pop\n        /* \"#utility.yul\":17703:18096   */\n      swap4\n      swap3\n      pop\n      pop\n      pop\n      jump\t// out\n        /* \"#utility.yul\":18102:18162   */\n    tag_226:\n        /* \"#utility.yul\":18130:18133   */\n      0x00\n        /* \"#utility.yul\":18151:18156   */\n      dup2\n        /* \"#utility.yul\":18144:18156   */\n      swap1\n      pop\n        /* \"#utility.yul\":18102:18162   */\n      swap2\n      swap1\n      pop\n      jump\t// out\n        /* \"#utility.yul\":18168:18310   */\n    tag_227:\n        /* \"#utility.yul\":18218:18227   */\n      0x00\n        /* \"#utility.yul\":18251:18304   */\n      tag_431\n        /* \"#utility.yul\":18269:18303   */\n      tag_432\n        /* \"#utility.yul\":18278:18302   */\n      tag_433\n        /* \"#utility.yul\":18296:18301   */\n      dup5\n        /* \"#utility.yul\":18278:18302   */\n      tag_185\n      jump\t// in\n    tag_433:\n        /* \"#utility.yul\":18269:18303   */\n      tag_226\n      jump\t// in\n    tag_432:\n        /* \"#utility.yul\":18251:18304   */\n      tag_185\n      jump\t// in\n    tag_431:\n        /* \"#utility.yul\":18238:18304   */\n      swap1\n      pop\n        /* \"#utility.yul\":18168:18310   */\n      swap2\n      swap1\n      pop\n      jump\t// out\n        /* \"#utility.yul\":18316:18391   */\n    tag_228:\n        /* \"#utility.yul\":18359:18362   */\n      0x00\n        /* \"#utility.yul\":18380:18385   */\n      dup2\n        /* \"#utility.yul\":18373:18385   */\n      swap1\n      pop\n        /* \"#utility.yul\":18316:18391   */\n      swap2\n      swap1\n      pop\n      jump\t// out\n        /* \"#utility.yul\":18397:18666   */\n    tag_229:\n        /* \"#utility.yul\":18507:18546   */\n      tag_436\n        /* \"#utility.yul\":18538:18545   */\n      dup4\n        /* \"#utility.yul\":18507:18546   */\n      tag_227\n      jump\t// in\n    tag_436:\n        /* \"#utility.yul\":18568:18659   */\n      tag_437\n        /* \"#utility.yul\":18617:18658   */\n      tag_438\n        /* \"#utility.yul\":18641:18657   */\n      dup3\n        /* \"#utility.yul\":18617:18658   */\n      tag_228\n      jump\t// in\n    tag_438:\n        /* \"#utility.yul\":18609:18615   */\n      dup5\n        /* \"#utility.yul\":18602:18606   */\n      dup5\n        /* \"#utility.yul\":18596:18607   */\n      sload\n        /* \"#utility.yul\":18568:18659   */\n      tag_225\n      jump\t// in\n    tag_437:\n        /* \"#utility.yul\":18562:18566   */\n      dup3\n        /* \"#utility.yul\":18555:18660   */\n      sstore\n        /* \"#utility.yul\":18473:18666   */\n      pop\n        /* \"#utility.yul\":18397:18666   */\n      pop\n      pop\n      pop\n      jump\t// out\n        /* \"#utility.yul\":18672:18745   */\n    tag_230:\n        /* \"#utility.yul\":18717:18720   */\n      0x00\n        /* \"#utility.yul\":18738:18739   */\n      0x00\n        /* \"#utility.yul\":18731:18739   */\n      swap1\n      pop\n        /* \"#utility.yul\":18672:18745   */\n      swap1\n      jump\t// out\n        /* \"#utility.yul\":18751:18940   */\n    tag_231:\n        /* \"#utility.yul\":18828:18860   */\n      tag_441\n      tag_230\n      jump\t// in\n    tag_441:\n        /* \"#utility.yul\":18869:18934   */\n      tag_442\n        /* \"#utility.yul\":18927:18933   */\n      dup2\n        /* \"#utility.yul\":18919:18925   */\n      dup5\n        /* \"#utility.yul\":18913:18917   */\n      dup5\n        /* \"#utility.yul\":18869:18934   */\n      tag_229\n      jump\t// in\n    tag_442:\n        /* \"#utility.yul\":18804:18940   */\n      pop\n        /* \"#utility.yul\":18751:18940   */\n      pop\n      pop\n      jump\t// out\n        /* \"#utility.yul\":18946:19132   */\n    tag_232:\n        /* \"#utility.yul\":19006:19126   */\n    tag_444:\n        /* \"#utility.yul\":19023:19026   */\n      dup2\n        /* \"#utility.yul\":19016:19021   */\n      dup2\n        /* \"#utility.yul\":19013:19027   */\n      lt\n        /* \"#utility.yul\":19006:19126   */\n      iszero\n      tag_446\n      jumpi\n        /* \"#utility.yul\":19077:19116   */\n      tag_447\n        /* \"#utility.yul\":19114:19115   */\n      0x00\n        /* \"#utility.yul\":19107:19112   */\n      dup3\n        /* \"#utility.yul\":19077:19116   */\n      tag_231\n      jump\t// in\n    tag_447:\n        /* \"#utility.yul\":19050:19051   */\n      0x01\n        /* \"#utility.yul\":19043:19048   */\n      dup2\n        /* \"#utility.yul\":19039:19052   */\n      add\n        /* \"#utility.yul\":19030:19052   */\n      swap1\n      pop\n        /* \"#utility.yul\":19006:19126   */\n      jump(tag_444)\n    tag_446:\n        /* \"#utility.yul\":18946:19132   */\n      pop\n      pop\n      jump\t// out\n        /* \"#utility.yul\":19138:19681   */\n    tag_233:\n        /* \"#utility.yul\":19239:19241   */\n      0x1f\n        /* \"#utility.yul\":19234:19237   */\n      dup3\n        /* \"#utility.yul\":19231:19242   */\n      gt\n        /* \"#utility.yul\":19228:19674   */\n      iszero\n      tag_449\n      jumpi\n        /* \"#utility.yul\":19273:19311   */\n      tag_450\n        /* \"#utility.yul\":19305:19310   */\n      dup2\n        /* \"#utility.yul\":19273:19311   */\n      tag_222\n      jump\t// in\n    tag_450:\n        /* \"#utility.yul\":19357:19386   */\n      tag_451\n        /* \"#utility.yul\":19375:19385   */\n      dup5\n        /* \"#utility.yul\":19357:19386   */\n      tag_223\n      jump\t// in\n    tag_451:\n        /* \"#utility.yul\":19347:19355   */\n      dup2\n        /* \"#utility.yul\":19343:19387   */\n      add\n        /* \"#utility.yul\":19540:19542   */\n      0x20\n        /* \"#utility.yul\":19528:19538   */\n      dup6\n        /* \"#utility.yul\":19525:19543   */\n      lt\n        /* \"#utility.yul\":19522:19571   */\n      iszero\n      tag_452\n      jumpi\n        /* \"#utility.yul\":19561:19569   */\n      dup2\n        /* \"#utility.yul\":19546:19569   */\n      swap1\n      pop\n        /* \"#utility.yul\":19522:19571   */\n    tag_452:\n        /* \"#utility.yul\":19584:19664   */\n      tag_453\n        /* \"#utility.yul\":19640:19662   */\n      tag_454\n        /* \"#utility.yul\":19658:19661   */\n      dup6\n        /* \"#utility.yul\":19640:19662   */\n      tag_223\n      jump\t// in\n    tag_454:\n        /* \"#utility.yul\":19630:19638   */\n      dup4\n        /* \"#utility.yul\":19626:19663   */\n      add\n        /* \"#utility.yul\":19613:19624   */\n      dup3\n        /* \"#utility.yul\":19584:19664   */\n      tag_232\n      jump\t// in\n    tag_453:\n        /* \"#utility.yul\":19243:19674   */\n      pop\n      pop\n        /* \"#utility.yul\":19228:19674   */\n    tag_449:\n        /* \"#utility.yul\":19138:19681   */\n      pop\n      pop\n      pop\n      jump\t// out\n        /* \"#utility.yul\":19687:19804   */\n    tag_234:\n        /* \"#utility.yul\":19741:19749   */\n      0x00\n        /* \"#utility.yul\":19791:19796   */\n      dup3\n        /* \"#utility.yul\":19785:19789   */\n      dup3\n        /* \"#utility.yul\":19781:19797   */\n      shr\n        /* \"#utility.yul\":19760:19797   */\n      swap1\n      pop\n        /* \"#utility.yul\":19687:19804   */\n      swap3\n      swap2\n      pop\n      pop\n      jump\t// out\n        /* \"#utility.yul\":19810:19979   */\n    tag_235:\n        /* \"#utility.yul\":19854:19860   */\n      0x00\n        /* \"#utility.yul\":19887:19938   */\n      tag_457\n        /* \"#utility.yul\":19935:19936   */\n      0x00\n        /* \"#utility.yul\":19931:19937   */\n      not\n        /* \"#utility.yul\":19923:19928   */\n      dup5\n        /* \"#utility.yul\":19920:19921   */\n      0x08\n        /* \"#utility.yul\":19916:19929   */\n      mul\n        /* \"#utility.yul\":19887:19938   */\n      tag_234\n      jump\t// in\n    tag_457:\n        /* \"#utility.yul\":19883:19939   */\n      not\n        /* \"#utility.yul\":19968:19972   */\n      dup1\n        /* \"#utility.yul\":19962:19966   */\n      dup4\n        /* \"#utility.yul\":19958:19973   */\n      and\n        /* \"#utility.yul\":19948:19973   */\n      swap2\n      pop\n        /* \"#utility.yul\":19861:19979   */\n      pop\n        /* \"#utility.yul\":19810:19979   */\n      swap3\n      swap2\n      pop\n      pop\n      jump\t// out\n        /* \"#utility.yul\":19984:20279   */\n    tag_236:\n        /* \"#utility.yul\":20060:20064   */\n      0x00\n        /* \"#utility.yul\":20206:20235   */\n      tag_459\n        /* \"#utility.yul\":20231:20234   */\n      dup4\n        /* \"#utility.yul\":20225:20229   */\n      dup4\n        /* \"#utility.yul\":20206:20235   */\n      tag_235\n      jump\t// in\n    tag_459:\n        /* \"#utility.yul\":20198:20235   */\n      swap2\n      pop\n        /* \"#utility.yul\":20268:20271   */\n      dup3\n        /* \"#utility.yul\":20265:20266   */\n      0x02\n        /* \"#utility.yul\":20261:20272   */\n      mul\n        /* \"#utility.yul\":20255:20259   */\n      dup3\n        /* \"#utility.yul\":20252:20273   */\n      or\n        /* \"#utility.yul\":20244:20273   */\n      swap1\n      pop\n        /* \"#utility.yul\":19984:20279   */\n      swap3\n      swap2\n      pop\n      pop\n      jump\t// out\n        /* \"#utility.yul\":20284:21679   */\n    tag_140:\n        /* \"#utility.yul\":20401:20438   */\n      tag_461\n        /* \"#utility.yul\":20434:20437   */\n      dup3\n        /* \"#utility.yul\":20401:20438   */\n      tag_177\n      jump\t// in\n    tag_461:\n        /* \"#utility.yul\":20503:20521   */\n      0xffffffffffffffff\n        /* \"#utility.yul\":20495:20501   */\n      dup2\n        /* \"#utility.yul\":20492:20522   */\n      gt\n        /* \"#utility.yul\":20489:20545   */\n      iszero\n      tag_462\n      jumpi\n        /* \"#utility.yul\":20525:20543   */\n      tag_463\n      tag_199\n      jump\t// in\n    tag_463:\n        /* \"#utility.yul\":20489:20545   */\n    tag_462:\n        /* \"#utility.yul\":20569:20607   */\n      tag_464\n        /* \"#utility.yul\":20601:20605   */\n      dup3\n        /* \"#utility.yul\":20595:20606   */\n      sload\n        /* \"#utility.yul\":20569:20607   */\n      tag_75\n      jump\t// in\n    tag_464:\n        /* \"#utility.yul\":20654:20721   */\n      tag_465\n        /* \"#utility.yul\":20714:20720   */\n      dup3\n        /* \"#utility.yul\":20706:20712   */\n      dup3\n        /* \"#utility.yul\":20700:20704   */\n      dup6\n        /* \"#utility.yul\":20654:20721   */\n      tag_233\n      jump\t// in\n    tag_465:\n        /* \"#utility.yul\":20748:20749   */\n      0x00\n        /* \"#utility.yul\":20772:20776   */\n      0x20\n        /* \"#utility.yul\":20759:20776   */\n      swap1\n      pop\n        /* \"#utility.yul\":20804:20806   */\n      0x1f\n        /* \"#utility.yul\":20796:20802   */\n      dup4\n        /* \"#utility.yul\":20793:20807   */\n      gt\n        /* \"#utility.yul\":20821:20822   */\n      0x01\n        /* \"#utility.yul\":20816:21434   */\n      dup2\n      eq\n      tag_467\n      jumpi\n        /* \"#utility.yul\":21478:21479   */\n      0x00\n        /* \"#utility.yul\":21495:21501   */\n      dup5\n        /* \"#utility.yul\":21492:21569   */\n      iszero\n      tag_468\n      jumpi\n        /* \"#utility.yul\":21544:21553   */\n      dup3\n        /* \"#utility.yul\":21539:21542   */\n      dup8\n        /* \"#utility.yul\":21535:21554   */\n      add\n        /* \"#utility.yul\":21529:21555   */\n      mload\n        /* \"#utility.yul\":21520:21555   */\n      swap1\n      pop\n        /* \"#utility.yul\":21492:21569   */\n    tag_468:\n        /* \"#utility.yul\":21595:21662   */\n      tag_469\n        /* \"#utility.yul\":21655:21661   */\n      dup6\n        /* \"#utility.yul\":21648:21653   */\n      dup3\n        /* \"#utility.yul\":21595:21662   */\n      tag_236\n      jump\t// in\n    tag_469:\n        /* \"#utility.yul\":21589:21593   */\n      dup7\n        /* \"#utility.yul\":21582:21663   */\n      sstore\n        /* \"#utility.yul\":21451:21673   */\n      pop\n        /* \"#utility.yul\":20786:21673   */\n      jump(tag_466)\n        /* \"#utility.yul\":20816:21434   */\n    tag_467:\n        /* \"#utility.yul\":20868:20872   */\n      0x1f\n        /* \"#utility.yul\":20864:20873   */\n      not\n        /* \"#utility.yul\":20856:20862   */\n      dup5\n        /* \"#utility.yul\":20852:20874   */\n      and\n        /* \"#utility.yul\":20902:20939   */\n      tag_470\n        /* \"#utility.yul\":20934:20938   */\n      dup7\n        /* \"#utility.yul\":20902:20939   */\n      tag_222\n      jump\t// in\n    tag_470:\n        /* \"#utility.yul\":20961:20962   */\n      0x00\n        /* \"#utility.yul\":20975:21183   */\n    tag_471:\n        /* \"#utility.yul\":20989:20996   */\n      dup3\n        /* \"#utility.yul\":20986:20987   */\n      dup2\n        /* \"#utility.yul\":20983:20997   */\n      lt\n        /* \"#utility.yul\":20975:21183   */\n      iszero\n      tag_473\n      jumpi\n        /* \"#utility.yul\":21068:21077   */\n      dup5\n        /* \"#utility.yul\":21063:21066   */\n      dup10\n        /* \"#utility.yul\":21059:21078   */\n      add\n        /* \"#utility.yul\":21053:21079   */\n      mload\n        /* \"#utility.yul\":21045:21051   */\n      dup3\n        /* \"#utility.yul\":21038:21080   */\n      sstore\n        /* \"#utility.yul\":21119:21120   */\n      0x01\n        /* \"#utility.yul\":21111:21117   */\n      dup3\n        /* \"#utility.yul\":21107:21121   */\n      add\n        /* \"#utility.yul\":21097:21121   */\n      swap2\n      pop\n        /* \"#utility.yul\":21166:21168   */\n      0x20\n        /* \"#utility.yul\":21155:21164   */\n      dup6\n        /* \"#utility.yul\":21151:21169   */\n      add\n        /* \"#utility.yul\":21138:21169   */\n      swap5\n      pop\n        /* \"#utility.yul\":21012:21016   */\n      0x20\n        /* \"#utility.yul\":21009:21010   */\n      dup2\n        /* \"#utility.yul\":21005:21017   */\n      add\n        /* \"#utility.yul\":21000:21017   */\n      swap1\n      pop\n        /* \"#utility.yul\":20975:21183   */\n      jump(tag_471)\n    tag_473:\n        /* \"#utility.yul\":21211:21217   */\n      dup7\n        /* \"#utility.yul\":21202:21209   */\n      dup4\n        /* \"#utility.yul\":21199:21218   */\n      lt\n        /* \"#utility.yul\":21196:21375   */\n      iszero\n      tag_474\n      jumpi\n        /* \"#utility.yul\":21269:21278   */\n      dup5\n        /* \"#utility.yul\":21264:21267   */\n      dup10\n        /* \"#utility.yul\":21260:21279   */\n      add\n        /* \"#utility.yul\":21254:21280   */\n      mload\n        /* \"#utility.yul\":21312:21360   */\n      tag_475\n        /* \"#utility.yul\":21354:21358   */\n      0x1f\n        /* \"#utility.yul\":21346:21352   */\n      dup10\n        /* \"#utility.yul\":21342:21359   */\n      and\n        /* \"#utility.yul\":21331:21340   */\n      dup3\n        /* \"#utility.yul\":21312:21360   */\n      tag_235\n      jump\t// in\n    tag_475:\n        /* \"#utility.yul\":21304:21310   */\n      dup4\n        /* \"#utility.yul\":21297:21361   */\n      sstore\n        /* \"#utility.yul\":21219:21375   */\n      pop\n        /* \"#utility.yul\":21196:21375   */\n    tag_474:\n        /* \"#utility.yul\":21421:21422   */\n      0x01\n        /* \"#utility.yul\":21417:21418   */\n      0x02\n        /* \"#utility.yul\":21409:21415   */\n      dup9\n        /* \"#utility.yul\":21405:21419   */\n      mul\n        /* \"#utility.yul\":21401:21423   */\n      add\n        /* \"#utility.yul\":21395:21399   */\n      dup9\n        /* \"#utility.yul\":21388:21424   */\n      sstore\n        /* \"#utility.yul\":20823:21434   */\n      pop\n      pop\n      pop\n        /* \"#utility.yul\":20786:21673   */\n    tag_466:\n      pop\n        /* \"#utility.yul\":20376:21679   */\n      pop\n      pop\n      pop\n        /* \"#utility.yul\":20284:21679   */\n      pop\n      pop\n      jump\t// out\n        /* \"#utility.yul\":21685:21844   */\n    tag_237:\n        /* \"#utility.yul\":21825:21836   */\n      0x4e6f74206f776e65720000000000000000000000000000000000000000000000\n        /* \"#utility.yul\":21821:21822   */\n      0x00\n        /* \"#utility.yul\":21813:21819   */\n      dup3\n        /* \"#utility.yul\":21809:21823   */\n      add\n        /* \"#utility.yul\":21802:21837   */\n      mstore\n        /* \"#utility.yul\":21685:21844   */\n      pop\n      jump\t// out\n        /* \"#utility.yul\":21850:22215   */\n    tag_238:\n        /* \"#utility.yul\":21992:21995   */\n      0x00\n        /* \"#utility.yul\":22013:22079   */\n      tag_478\n        /* \"#utility.yul\":22077:22078   */\n      0x09\n        /* \"#utility.yul\":22072:22075   */\n      dup4\n        /* \"#utility.yul\":22013:22079   */\n      tag_178\n      jump\t// in\n    tag_478:\n        /* \"#utility.yul\":22006:22079   */\n      swap2\n      pop\n        /* \"#utility.yul\":22088:22181   */\n      tag_479\n        /* \"#utility.yul\":22177:22180   */\n      dup3\n        /* \"#utility.yul\":22088:22181   */\n      tag_237\n      jump\t// in\n    tag_479:\n        /* \"#utility.yul\":22206:22208   */\n      0x20\n        /* \"#utility.yul\":22201:22204   */\n      dup3\n        /* \"#utility.yul\":22197:22209   */\n      add\n        /* \"#utility.yul\":22190:22209   */\n      swap1\n      pop\n        /* \"#utility.yul\":21850:22215   */\n      swap2\n      swap1\n      pop\n      jump\t// out\n        /* \"#utility.yul\":22221:22640   */\n    tag_152:\n        /* \"#utility.yul\":22387:22391   */\n      0x00\n        /* \"#utility.yul\":22425:22427   */\n      0x20\n        /* \"#utility.yul\":22414:22423   */\n      dup3\n        /* \"#utility.yul\":22410:22428   */\n      add\n        /* \"#utility.yul\":22402:22428   */\n      swap1\n      pop\n        /* \"#utility.yul\":22474:22483   */\n      dup2\n        /* \"#utility.yul\":22468:22472   */\n      dup2\n        /* \"#utility.yul\":22464:22484   */\n      sub\n        /* \"#utility.yul\":22460:22461   */\n      0x00\n        /* \"#utility.yul\":22449:22458   */\n      dup4\n        /* \"#utility.yul\":22445:22462   */\n      add\n        /* \"#utility.yul\":22438:22485   */\n      mstore\n        /* \"#utility.yul\":22502:22633   */\n      tag_481\n        /* \"#utility.yul\":22628:22632   */\n      dup2\n        /* \"#utility.yul\":22502:22633   */\n      tag_238\n      jump\t// in\n    tag_481:\n        /* \"#utility.yul\":22494:22633   */\n      swap1\n      pop\n        /* \"#utility.yul\":22221:22640   */\n      swap2\n      swap1\n      pop\n      jump\t// out\n        /* \"#utility.yul\":22646:22840   */\n    tag_156:\n        /* \"#utility.yul\":22686:22690   */\n      0x00\n        /* \"#utility.yul\":22706:22726   */\n      tag_483\n        /* \"#utility.yul\":22724:22725   */\n      dup3\n        /* \"#utility.yul\":22706:22726   */\n      tag_185\n      jump\t// in\n    tag_483:\n        /* \"#utility.yul\":22701:22726   */\n      swap2\n      pop\n        /* \"#utility.yul\":22740:22760   */\n      tag_484\n        /* \"#utility.yul\":22758:22759   */\n      dup4\n        /* \"#utility.yul\":22740:22760   */\n      tag_185\n      jump\t// in\n    tag_484:\n        /* \"#utility.yul\":22735:22760   */\n      swap3\n      pop\n        /* \"#utility.yul\":22784:22785   */\n      dup3\n        /* \"#utility.yul\":22781:22782   */\n      dup3\n        /* \"#utility.yul\":22777:22786   */\n      sub\n        /* \"#utility.yul\":22769:22786   */\n      swap1\n      pop\n        /* \"#utility.yul\":22808:22809   */\n      dup2\n        /* \"#utility.yul\":22802:22806   */\n      dup2\n        /* \"#utility.yul\":22799:22810   */\n      gt\n        /* \"#utility.yul\":22796:22833   */\n      iszero\n      tag_485\n      jumpi\n        /* \"#utility.yul\":22813:22831   */\n      tag_486\n      tag_221\n      jump\t// in\n    tag_486:\n        /* \"#utility.yul\":22796:22833   */\n    tag_485:\n        /* \"#utility.yul\":22646:22840   */\n      swap3\n      swap2\n      pop\n      pop\n      jump\t// out\n        /* \"#utility.yul\":22846:23014   */\n    tag_239:\n        /* \"#utility.yul\":22986:23006   */\n      0x4e6f742045524337323152656365697665720000000000000000000000000000\n        /* \"#utility.yul\":22982:22983   */\n      0x00\n        /* \"#utility.yul\":22974:22980   */\n      dup3\n        /* \"#utility.yul\":22970:22984   */\n      add\n        /* \"#utility.yul\":22963:23007   */\n      mstore\n        /* \"#utility.yul\":22846:23014   */\n      pop\n      jump\t// out\n        /* \"#utility.yul\":23020:23386   */\n    tag_240:\n        /* \"#utility.yul\":23162:23165   */\n      0x00\n        /* \"#utility.yul\":23183:23250   */\n      tag_489\n        /* \"#utility.yul\":23247:23249   */\n      0x12\n        /* \"#utility.yul\":23242:23245   */\n      dup4\n        /* \"#utility.yul\":23183:23250   */\n      tag_178\n      jump\t// in\n    tag_489:\n        /* \"#utility.yul\":23176:23250   */\n      swap2\n      pop\n        /* \"#utility.yul\":23259:23352   */\n      tag_490\n        /* \"#utility.yul\":23348:23351   */\n      dup3\n        /* \"#utility.yul\":23259:23352   */\n      tag_239\n      jump\t// in\n    tag_490:\n        /* \"#utility.yul\":23377:23379   */\n      0x20\n        /* \"#utility.yul\":23372:23375   */\n      dup3\n        /* \"#utility.yul\":23368:23380   */\n      add\n        /* \"#utility.yul\":23361:23380   */\n      swap1\n      pop\n        /* \"#utility.yul\":23020:23386   */\n      swap2\n      swap1\n      pop\n      jump\t// out\n        /* \"#utility.yul\":23392:23811   */\n    tag_164:\n        /* \"#utility.yul\":23558:23562   */\n      0x00\n        /* \"#utility.yul\":23596:23598   */\n      0x20\n        /* \"#utility.yul\":23585:23594   */\n      dup3\n        /* \"#utility.yul\":23581:23599   */\n      add\n        /* \"#utility.yul\":23573:23599   */\n      swap1\n      pop\n        /* \"#utility.yul\":23645:23654   */\n      dup2\n        /* \"#utility.yul\":23639:23643   */\n      dup2\n        /* \"#utility.yul\":23635:23655   */\n      sub\n        /* \"#utility.yul\":23631:23632   */\n      0x00\n        /* \"#utility.yul\":23620:23629   */\n      dup4\n        /* \"#utility.yul\":23616:23633   */\n      add\n        /* \"#utility.yul\":23609:23656   */\n      mstore\n        /* \"#utility.yul\":23673:23804   */\n      tag_492\n        /* \"#utility.yul\":23799:23803   */\n      dup2\n        /* \"#utility.yul\":23673:23804   */\n      tag_240\n      jump\t// in\n    tag_492:\n        /* \"#utility.yul\":23665:23804   */\n      swap1\n      pop\n        /* \"#utility.yul\":23392:23811   */\n      swap2\n      swap1\n      pop\n      jump\t// out\n        /* \"#utility.yul\":23817:23915   */\n    tag_241:\n        /* \"#utility.yul\":23868:23874   */\n      0x00\n        /* \"#utility.yul\":23902:23907   */\n      dup2\n        /* \"#utility.yul\":23896:23908   */\n      mload\n        /* \"#utility.yul\":23886:23908   */\n      swap1\n      pop\n        /* \"#utility.yul\":23817:23915   */\n      swap2\n      swap1\n      pop\n      jump\t// out\n        /* \"#utility.yul\":23921:24089   */\n    tag_242:\n        /* \"#utility.yul\":24004:24015   */\n      0x00\n        /* \"#utility.yul\":24038:24044   */\n      dup3\n        /* \"#utility.yul\":24033:24036   */\n      dup3\n        /* \"#utility.yul\":24026:24045   */\n      mstore\n        /* \"#utility.yul\":24078:24082   */\n      0x20\n        /* \"#utility.yul\":24073:24076   */\n      dup3\n        /* \"#utility.yul\":24069:24083   */\n      add\n        /* \"#utility.yul\":24054:24083   */\n      swap1\n      pop\n        /* \"#utility.yul\":23921:24089   */\n      swap3\n      swap2\n      pop\n      pop\n      jump\t// out\n        /* \"#utility.yul\":24095:24468   */\n    tag_243:\n        /* \"#utility.yul\":24181:24184   */\n      0x00\n        /* \"#utility.yul\":24209:24247   */\n      tag_496\n        /* \"#utility.yul\":24241:24246   */\n      dup3\n        /* \"#utility.yul\":24209:24247   */\n      tag_241\n      jump\t// in\n    tag_496:\n        /* \"#utility.yul\":24263:24333   */\n      tag_497\n        /* \"#utility.yul\":24326:24332   */\n      dup2\n        /* \"#utility.yul\":24321:24324   */\n      dup6\n        /* \"#utility.yul\":24263:24333   */\n      tag_242\n      jump\t// in\n    tag_497:\n        /* \"#utility.yul\":24256:24333   */\n      swap4\n      pop\n        /* \"#utility.yul\":24342:24407   */\n      tag_498\n        /* \"#utility.yul\":24400:24406   */\n      dup2\n        /* \"#utility.yul\":24395:24398   */\n      dup6\n        /* \"#utility.yul\":24388:24392   */\n      0x20\n        /* \"#utility.yul\":24381:24386   */\n      dup7\n        /* \"#utility.yul\":24377:24393   */\n      add\n        /* \"#utility.yul\":24342:24407   */\n      tag_179\n      jump\t// in\n    tag_498:\n        /* \"#utility.yul\":24432:24461   */\n      tag_499\n        /* \"#utility.yul\":24454:24460   */\n      dup2\n        /* \"#utility.yul\":24432:24461   */\n      tag_180\n      jump\t// in\n    tag_499:\n        /* \"#utility.yul\":24427:24430   */\n      dup5\n        /* \"#utility.yul\":24423:24462   */\n      add\n        /* \"#utility.yul\":24416:24462   */\n      swap2\n      pop\n        /* \"#utility.yul\":24185:24468   */\n      pop\n        /* \"#utility.yul\":24095:24468   */\n      swap3\n      swap2\n      pop\n      pop\n      jump\t// out\n        /* \"#utility.yul\":24474:25114   */\n    tag_168:\n        /* \"#utility.yul\":24669:24673   */\n      0x00\n        /* \"#utility.yul\":24707:24710   */\n      0x80\n        /* \"#utility.yul\":24696:24705   */\n      dup3\n        /* \"#utility.yul\":24692:24711   */\n      add\n        /* \"#utility.yul\":24684:24711   */\n      swap1\n      pop\n        /* \"#utility.yul\":24721:24792   */\n      tag_501\n        /* \"#utility.yul\":24789:24790   */\n      0x00\n        /* \"#utility.yul\":24778:24787   */\n      dup4\n        /* \"#utility.yul\":24774:24791   */\n      add\n        /* \"#utility.yul\":24765:24771   */\n      dup8\n        /* \"#utility.yul\":24721:24792   */\n      tag_190\n      jump\t// in\n    tag_501:\n        /* \"#utility.yul\":24802:24874   */\n      tag_502\n        /* \"#utility.yul\":24870:24872   */\n      0x20\n        /* \"#utility.yul\":24859:24868   */\n      dup4\n        /* \"#utility.yul\":24855:24873   */\n      add\n        /* \"#utility.yul\":24846:24852   */\n      dup7\n        /* \"#utility.yul\":24802:24874   */\n      tag_190\n      jump\t// in\n    tag_502:\n        /* \"#utility.yul\":24884:24956   */\n      tag_503\n        /* \"#utility.yul\":24952:24954   */\n      0x40\n        /* \"#utility.yul\":24941:24950   */\n      dup4\n        /* \"#utility.yul\":24937:24955   */\n      add\n        /* \"#utility.yul\":24928:24934   */\n      dup6\n        /* \"#utility.yul\":24884:24956   */\n      tag_193\n      jump\t// in\n    tag_503:\n        /* \"#utility.yul\":25003:25012   */\n      dup2\n        /* \"#utility.yul\":24997:25001   */\n      dup2\n        /* \"#utility.yul\":24993:25013   */\n      sub\n        /* \"#utility.yul\":24988:24990   */\n      0x60\n        /* \"#utility.yul\":24977:24986   */\n      dup4\n        /* \"#utility.yul\":24973:24991   */\n      add\n        /* \"#utility.yul\":24966:25014   */\n      mstore\n        /* \"#utility.yul\":25031:25107   */\n      tag_504\n        /* \"#utility.yul\":25102:25106   */\n      dup2\n        /* \"#utility.yul\":25093:25099   */\n      dup5\n        /* \"#utility.yul\":25031:25107   */\n      tag_243\n      jump\t// in\n    tag_504:\n        /* \"#utility.yul\":25023:25107   */\n      swap1\n      pop\n        /* \"#utility.yul\":24474:25114   */\n      swap6\n      swap5\n      pop\n      pop\n      pop\n      pop\n      pop\n      jump\t// out\n        /* \"#utility.yul\":25120:25269   */\n    tag_244:\n        /* \"#utility.yul\":25156:25163   */\n      0x00\n        /* \"#utility.yul\":25196:25262   */\n      0xffffffff00000000000000000000000000000000000000000000000000000000\n        /* \"#utility.yul\":25189:25194   */\n      dup3\n        /* \"#utility.yul\":25185:25263   */\n      and\n        /* \"#utility.yul\":25174:25263   */\n      swap1\n      pop\n        /* \"#utility.yul\":25120:25269   */\n      swap2\n      swap1\n      pop\n      jump\t// out\n        /* \"#utility.yul\":25275:25395   */\n    tag_245:\n        /* \"#utility.yul\":25347:25370   */\n      tag_507\n        /* \"#utility.yul\":25364:25369   */\n      dup2\n        /* \"#utility.yul\":25347:25370   */\n      tag_244\n      jump\t// in\n    tag_507:\n        /* \"#utility.yul\":25340:25345   */\n      dup2\n        /* \"#utility.yul\":25337:25371   */\n      eq\n        /* \"#utility.yul\":25327:25389   */\n      tag_508\n      jumpi\n        /* \"#utility.yul\":25385:25386   */\n      0x00\n        /* \"#utility.yul\":25382:25383   */\n      0x00\n        /* \"#utility.yul\":25375:25387   */\n      revert\n        /* \"#utility.yul\":25327:25389   */\n    tag_508:\n        /* \"#utility.yul\":25275:25395   */\n      pop\n      jump\t// out\n        /* \"#utility.yul\":25401:25542   */\n    tag_246:\n        /* \"#utility.yul\":25457:25462   */\n      0x00\n        /* \"#utility.yul\":25488:25494   */\n      dup2\n        /* \"#utility.yul\":25482:25495   */\n      mload\n        /* \"#utility.yul\":25473:25495   */\n      swap1\n      pop\n        /* \"#utility.yul\":25504:25536   */\n      tag_510\n        /* \"#utility.yul\":25530:25535   */\n      dup2\n        /* \"#utility.yul\":25504:25536   */\n      tag_245\n      jump\t// in\n    tag_510:\n        /* \"#utility.yul\":25401:25542   */\n      swap3\n      swap2\n      pop\n      pop\n      jump\t// out\n        /* \"#utility.yul\":25548:25897   */\n    tag_171:\n        /* \"#utility.yul\":25617:25623   */\n      0x00\n        /* \"#utility.yul\":25666:25668   */\n      0x20\n        /* \"#utility.yul\":25654:25663   */\n      dup3\n        /* \"#utility.yul\":25645:25652   */\n      dup5\n        /* \"#utility.yul\":25641:25664   */\n      sub\n        /* \"#utility.yul\":25637:25669   */\n      slt\n        /* \"#utility.yul\":25634:25753   */\n      iszero\n      tag_512\n      jumpi\n        /* \"#utility.yul\":25672:25751   */\n      tag_513\n      tag_183\n      jump\t// in\n    tag_513:\n        /* \"#utility.yul\":25634:25753   */\n    tag_512:\n        /* \"#utility.yul\":25792:25793   */\n      0x00\n        /* \"#utility.yul\":25817:25880   */\n      tag_514\n        /* \"#utility.yul\":25872:25879   */\n      dup5\n        /* \"#utility.yul\":25863:25869   */\n      dup3\n        /* \"#utility.yul\":25852:25861   */\n      dup6\n        /* \"#utility.yul\":25848:25870   */\n      add\n        /* \"#utility.yul\":25817:25880   */\n      tag_246\n      jump\t// in\n    tag_514:\n        /* \"#utility.yul\":25807:25880   */\n      swap2\n      pop\n        /* \"#utility.yul\":25763:25890   */\n      pop\n        /* \"#utility.yul\":25548:25897   */\n      swap3\n      swap2\n      pop\n      pop\n      jump\t// out\n\n    auxdata: 0xa2646970667358221220bbd776cac593c27ee0bcf89f59f64fb63159a1517dfd8100b7742187826ceaf764736f6c634300081e0033\n}\n",
				"bytecode": {
					"linkReferences": {},
					"object": "60806040526001600255348015610014575f5ffd5b506040516123fb3803806123fb833981810160405281019061003691906101a9565b815f9081610044919061042f565b508060019081610054919061042f565b5050506104fe565b5f604051905090565b5f5ffd5b5f5ffd5b5f5ffd5b5f5ffd5b5f601f19601f8301169050919050565b7f4e487b71000000000000000000000000000000000000000000000000000000005f52604160045260245ffd5b6100bb82610075565b810181811067ffffffffffffffff821117156100da576100d9610085565b5b80604052505050565b5f6100ec61005c565b90506100f882826100b2565b919050565b5f67ffffffffffffffff82111561011757610116610085565b5b61012082610075565b9050602081019050919050565b8281835e5f83830152505050565b5f61014d610148846100fd565b6100e3565b90508281526020810184848401111561016957610168610071565b5b61017484828561012d565b509392505050565b5f82601f8301126101905761018f61006d565b5b81516101a084826020860161013b565b91505092915050565b5f5f604083850312156101bf576101be610065565b5b5f83015167ffffffffffffffff8111156101dc576101db610069565b5b6101e88582860161017c565b925050602083015167ffffffffffffffff81111561020957610208610069565b5b6102158582860161017c565b9150509250929050565b5f81519050919050565b7f4e487b71000000000000000000000000000000000000000000000000000000005f52602260045260245ffd5b5f600282049050600182168061026d57607f821691505b6020821081036102805761027f610229565b5b50919050565b5f819050815f5260205f209050919050565b5f6020601f8301049050919050565b5f82821b905092915050565b5f600883026102e27fffffffffffffffffffffffffffffffffffffffffffffffffffffffffffffffff826102a7565b6102ec86836102a7565b95508019841693508086168417925050509392505050565b5f819050919050565b5f819050919050565b5f61033061032b61032684610304565b61030d565b610304565b9050919050565b5f819050919050565b61034983610316565b61035d61035582610337565b8484546102b3565b825550505050565b5f5f905090565b610374610365565b61037f818484610340565b505050565b5b818110156103a2576103975f8261036c565b600181019050610385565b5050565b601f8211156103e7576103b881610286565b6103c184610298565b810160208510156103d0578190505b6103e46103dc85610298565b830182610384565b50505b505050565b5f82821c905092915050565b5f6104075f19846008026103ec565b1980831691505092915050565b5f61041f83836103f8565b9150826002028217905092915050565b6104388261021f565b67ffffffffffffffff81111561045157610450610085565b5b61045b8254610256565b6104668282856103a6565b5f60209050601f831160018114610497575f8415610485578287015190505b61048f8582610414565b8655506104f6565b601f1984166104a586610286565b5f5b828110156104cc578489015182556001820191506020850194506020810190506104a7565b868310156104e957848901516104e5601f8916826103f8565b8355505b6001600288020188555050505b505050505050565b611ef08061050b5f395ff3fe608060405234801561000f575f5ffd5b50600436106100cd575f3560e01c806370a082311161008a578063b88d4fde11610064578063b88d4fde1461020d578063c87b56dd14610229578063d0def52114610259578063e985e9c514610275576100cd565b806370a08231146101a357806395d89b41146101d3578063a22cb465146101f1576100cd565b806306fdde03146100d1578063081812fc146100ef578063095ea7b31461011f57806323b872dd1461013b57806342842e0e146101575780636352211e14610173575b5f5ffd5b6100d96102a5565b6040516100e691906111b1565b60405180910390f35b61010960048036038101906101049190611215565b610330565b604051610116919061127f565b60405180910390f35b610139600480360381019061013491906112c2565b610407565b005b61015560048036038101906101509190611300565b6105af565b005b610171600480360381019061016c9190611300565b610608565b005b61018d60048036038101906101889190611215565b610627565b60405161019a919061127f565b60405180910390f35b6101bd60048036038101906101b89190611350565b6106d3565b6040516101ca919061138a565b60405180910390f35b6101db610787565b6040516101e891906111b1565b60405180910390f35b61020b600480360381019061020691906113d8565b610813565b005b61022760048036038101906102229190611542565b610979565b005b610243600480360381019061023e9190611215565b6109d4565b60405161025091906111b1565b60405180910390f35b610273600480360381019061026e9190611660565b610b13565b005b61028f600480360381019061028a91906116ba565b610c52565b60405161029c9190611707565b60405180910390f35b5f80546102b19061174d565b80601f01602080910402602001604051908101604052809291908181526020018280546102dd9061174d565b80156103285780601f106102ff57610100808354040283529160200191610328565b820191905f5260205f20905b81548152906001019060200180831161030b57829003601f168201915b505050505081565b5f5f73ffffffffffffffffffffffffffffffffffffffff1660035f8481526020019081526020015f205f9054906101000a900473ffffffffffffffffffffffffffffffffffffffff1673ffffffffffffffffffffffffffffffffffffffff16036103cf576040517f08c379a00000000000000000000000000000000000000000000000000000000081526004016103c6906117c7565b60405180910390fd5b60055f8381526020019081526020015f205f9054906101000a900473ffffffffffffffffffffffffffffffffffffffff169050919050565b5f61041182610627565b90508073ffffffffffffffffffffffffffffffffffffffff168373ffffffffffffffffffffffffffffffffffffffff1603610481576040517f08c379a00000000000000000000000000000000000000000000000000000000081526004016104789061182f565b60405180910390fd5b8073ffffffffffffffffffffffffffffffffffffffff163373ffffffffffffffffffffffffffffffffffffffff1614806104c157506104c08133610c52565b5b610500576040517f08c379a00000000000000000000000000000000000000000000000000000000081526004016104f790611897565b60405180910390fd5b8260055f8481526020019081526020015f205f6101000a81548173ffffffffffffffffffffffffffffffffffffffff021916908373ffffffffffffffffffffffffffffffffffffffff160217905550818373ffffffffffffffffffffffffffffffffffffffff168273ffffffffffffffffffffffffffffffffffffffff167f8c5be1e5ebec7d5bd14f71427d1e84f3dd0314c0f7b2291e5b200ac8c7c3b92560405160405180910390a4505050565b6105b93382610ce0565b6105f8576040517f08c379a00000000000000000000000000000000000000000000000000000000081526004016105ef90611897565b60405180910390fd5b610603838383610d74565b505050565b61062283838360405180602001604052805f815250610979565b505050565b5f5f60035f8481526020019081526020015f205f9054906101000a900473ffffffffffffffffffffffffffffffffffffffff1690505f73ffffffffffffffffffffffffffffffffffffffff168173ffffffffffffffffffffffffffffffffffffffff16036106ca576040517f08c379a00000000000000000000000000000000000000000000000000000000081526004016106c1906117c7565b60405180910390fd5b80915050919050565b5f5f73ffffffffffffffffffffffffffffffffffffffff168273ffffffffffffffffffffffffffffffffffffffff1603610742576040517f08c379a0000000000000000000000000000000000000000000000000000000008152600401610739906118ff565b60405180910390fd5b60045f8373ffffffffffffffffffffffffffffffffffffffff1673ffffffffffffffffffffffffffffffffffffffff1681526020019081526020015f20549050919050565b600180546107949061174d565b80601f01602080910402602001604051908101604052809291908181526020018280546107c09061174d565b801561080b5780601f106107e25761010080835404028352916020019161080b565b820191905f5260205f20905b8154815290600101906020018083116107ee57829003601f168201915b505050505081565b3373ffffffffffffffffffffffffffffffffffffffff168273ffffffffffffffffffffffffffffffffffffffff1603610881576040517f08c379a000000000000000000000000000000000000000000000000000000000815260040161087890611967565b60405180910390fd5b8060065f3373ffffffffffffffffffffffffffffffffffffffff1673ffffffffffffffffffffffffffffffffffffffff1681526020019081526020015f205f8473ffffffffffffffffffffffffffffffffffffffff1673ffffffffffffffffffffffffffffffffffffffff1681526020019081526020015f205f6101000a81548160ff0219169083151502179055508173ffffffffffffffffffffffffffffffffffffffff163373ffffffffffffffffffffffffffffffffffffffff167f17307eab39ab6107e8899845ad3d59bd9653f200f220920489ca2b5937696c318360405161096d9190611707565b60405180910390a35050565b6109833383610ce0565b6109c2576040517f08c379a00000000000000000000000000000000000000000000000000000000081526004016109b990611897565b60405180910390fd5b6109ce84848484610fe2565b50505050565b60605f73ffffffffffffffffffffffffffffffffffffffff1660035f8481526020019081526020015f205f9054906101000a900473ffffffffffffffffffffffffffffffffffffffff1673ffffffffffffffffffffffffffffffffffffffff1603610a74576040517f08c379a0000000000000000000000000000000000000000000000000000000008152600401610a6b906117c7565b60405180910390fd5b60075f8381526020019081526020015f208054610a909061174d565b80601f0160208091040260200160405190810160405280929190818152602001828054610abc9061174d565b8015610b075780601f10610ade57610100808354040283529160200191610b07565b820191905f5260205f20905b815481529060010190602001808311610aea57829003601f168201915b50505050509050919050565b5f600254905060025f815480929190610b2b906119b2565b91905055508260035f8381526020019081526020015f205f6101000a81548173ffffffffffffffffffffffffffffffffffffffff021916908373ffffffffffffffffffffffffffffffffffffffff160217905550600160045f8573ffffffffffffffffffffffffffffffffffffffff1673ffffffffffffffffffffffffffffffffffffffff1681526020019081526020015f205f828254610bcc91906119f9565b925050819055508160075f8381526020019081526020015f209081610bf19190611bcc565b50808373ffffffffffffffffffffffffffffffffffffffff165f73ffffffffffffffffffffffffffffffffffffffff167fddf252ad1be2c89b69c2b068fc378daa952ba7f163c4a11628f55a4df523b3ef60405160405180910390a4505050565b5f60065f8473ffffffffffffffffffffffffffffffffffffffff1673ffffffffffffffffffffffffffffffffffffffff1681526020019081526020015f205f8373ffffffffffffffffffffffffffffffffffffffff1673ffffffffffffffffffffffffffffffffffffffff1681526020019081526020015f205f9054906101000a900460ff16905092915050565b5f5f610ceb83610627565b90508073ffffffffffffffffffffffffffffffffffffffff168473ffffffffffffffffffffffffffffffffffffffff161480610d5a57508373ffffffffffffffffffffffffffffffffffffffff16610d4284610330565b73ffffffffffffffffffffffffffffffffffffffff16145b80610d6b5750610d6a8185610c52565b5b91505092915050565b8273ffffffffffffffffffffffffffffffffffffffff16610d9482610627565b73ffffffffffffffffffffffffffffffffffffffff1614610dea576040517f08c379a0000000000000000000000000000000000000000000000000000000008152600401610de190611ce5565b60405180910390fd5b5f73ffffffffffffffffffffffffffffffffffffffff168273ffffffffffffffffffffffffffffffffffffffff1603610e58576040517f08c379a0000000000000000000000000000000000000000000000000000000008152600401610e4f906118ff565b60405180910390fd5b600160045f8573ffffffffffffffffffffffffffffffffffffffff1673ffffffffffffffffffffffffffffffffffffffff1681526020019081526020015f205f828254610ea59190611d03565b92505081905550600160045f8473ffffffffffffffffffffffffffffffffffffffff1673ffffffffffffffffffffffffffffffffffffffff1681526020019081526020015f205f828254610ef991906119f9565b925050819055508160035f8381526020019081526020015f205f6101000a81548173ffffffffffffffffffffffffffffffffffffffff021916908373ffffffffffffffffffffffffffffffffffffffff16021790555060055f8281526020019081526020015f205f6101000a81549073ffffffffffffffffffffffffffffffffffffffff0219169055808273ffffffffffffffffffffffffffffffffffffffff168473ffffffffffffffffffffffffffffffffffffffff167fddf252ad1be2c89b69c2b068fc378daa952ba7f163c4a11628f55a4df523b3ef60405160405180910390a4505050565b610fed848484610d74565b610ff98484848461103e565b611038576040517f08c379a000000000000000000000000000000000000000000000000000000000815260040161102f90611d80565b60405180910390fd5b50505050565b5f5f8473ffffffffffffffffffffffffffffffffffffffff163b1115611134578373ffffffffffffffffffffffffffffffffffffffff1663150b7a02338786866040518563ffffffff1660e01b815260040161109d9493929190611df0565b6020604051808303815f875af19250505080156110d857506040513d601f19601f820116820180604052508101906110d59190611e8f565b60015b6110e4575f9050611139565b63150b7a0260e01b7bffffffffffffffffffffffffffffffffffffffffffffffffffffffff1916817bffffffffffffffffffffffffffffffffffffffffffffffffffffffff191614915050611139565b600190505b949350505050565b5f81519050919050565b5f82825260208201905092915050565b8281835e5f83830152505050565b5f601f19601f8301169050919050565b5f61118382611141565b61118d818561114b565b935061119d81856020860161115b565b6111a681611169565b840191505092915050565b5f6020820190508181035f8301526111c98184611179565b905092915050565b5f604051905090565b5f5ffd5b5f5ffd5b5f819050919050565b6111f4816111e2565b81146111fe575f5ffd5b50565b5f8135905061120f816111eb565b92915050565b5f6020828403121561122a576112296111da565b5b5f61123784828501611201565b91505092915050565b5f73ffffffffffffffffffffffffffffffffffffffff82169050919050565b5f61126982611240565b9050919050565b6112798161125f565b82525050565b5f6020820190506112925f830184611270565b92915050565b6112a18161125f565b81146112ab575f5ffd5b50565b5f813590506112bc81611298565b92915050565b5f5f604083850312156112d8576112d76111da565b5b5f6112e5858286016112ae565b92505060206112f685828601611201565b9150509250929050565b5f5f5f60608486031215611317576113166111da565b5b5f611324868287016112ae565b9350506020611335868287016112ae565b925050604061134686828701611201565b9150509250925092565b5f60208284031215611365576113646111da565b5b5f611372848285016112ae565b91505092915050565b611384816111e2565b82525050565b5f60208201905061139d5f83018461137b565b92915050565b5f8115159050919050565b6113b7816113a3565b81146113c1575f5ffd5b50565b5f813590506113d2816113ae565b92915050565b5f5f604083850312156113ee576113ed6111da565b5b5f6113fb858286016112ae565b925050602061140c858286016113c4565b9150509250929050565b5f5ffd5b5f5ffd5b7f4e487b71000000000000000000000000000000000000000000000000000000005f52604160045260245ffd5b61145482611169565b810181811067ffffffffffffffff821117156114735761147261141e565b5b80604052505050565b5f6114856111d1565b9050611491828261144b565b919050565b5f67ffffffffffffffff8211156114b0576114af61141e565b5b6114b982611169565b9050602081019050919050565b828183375f83830152505050565b5f6114e66114e184611496565b61147c565b9050828152602081018484840111156115025761150161141a565b5b61150d8482856114c6565b509392505050565b5f82601f83011261152957611528611416565b5b81356115398482602086016114d4565b91505092915050565b5f5f5f5f6080858703121561155a576115596111da565b5b5f611567878288016112ae565b9450506020611578878288016112ae565b935050604061158987828801611201565b925050606085013567ffffffffffffffff8111156115aa576115a96111de565b5b6115b687828801611515565b91505092959194509250565b5f67ffffffffffffffff8211156115dc576115db61141e565b5b6115e582611169565b9050602081019050919050565b5f6116046115ff846115c2565b61147c565b9050828152602081018484840111156116205761161f61141a565b5b61162b8482856114c6565b509392505050565b5f82601f83011261164757611646611416565b5b81356116578482602086016115f2565b91505092915050565b5f5f60408385031215611676576116756111da565b5b5f611683858286016112ae565b925050602083013567ffffffffffffffff8111156116a4576116a36111de565b5b6116b085828601611633565b9150509250929050565b5f5f604083850312156116d0576116cf6111da565b5b5f6116dd858286016112ae565b92505060206116ee858286016112ae565b9150509250929050565b611701816113a3565b82525050565b5f60208201905061171a5f8301846116f8565b92915050565b7f4e487b71000000000000000000000000000000000000000000000000000000005f52602260045260245ffd5b5f600282049050600182168061176457607f821691505b60208210810361177757611776611720565b5b50919050565b7f546f6b656e20646f65736e2774206578697374000000000000000000000000005f82015250565b5f6117b160138361114b565b91506117bc8261177d565b602082019050919050565b5f6020820190508181035f8301526117de816117a5565b9050919050565b7f416c7265616479206f776e6572000000000000000000000000000000000000005f82015250565b5f611819600d8361114b565b9150611824826117e5565b602082019050919050565b5f6020820190508181035f8301526118468161180d565b9050919050565b7f4e6f7420617574686f72697a65640000000000000000000000000000000000005f82015250565b5f611881600e8361114b565b915061188c8261184d565b602082019050919050565b5f6020820190508181035f8301526118ae81611875565b9050919050565b7f5a65726f206164647265737300000000000000000000000000000000000000005f82015250565b5f6118e9600c8361114b565b91506118f4826118b5565b602082019050919050565b5f6020820190508181035f830152611916816118dd565b9050919050565b7f53656c6620617070726f76616c000000000000000000000000000000000000005f82015250565b5f611951600d8361114b565b915061195c8261191d565b602082019050919050565b5f6020820190508181035f83015261197e81611945565b9050919050565b7f4e487b71000000000000000000000000000000000000000000000000000000005f52601160045260245ffd5b5f6119bc826111e2565b91507fffffffffffffffffffffffffffffffffffffffffffffffffffffffffffffffff82036119ee576119ed611985565b5b600182019050919050565b5f611a03826111e2565b9150611a0e836111e2565b9250828201905080821115611a2657611a25611985565b5b92915050565b5f819050815f5260205f209050919050565b5f6020601f8301049050919050565b5f82821b905092915050565b5f60088302611a887fffffffffffffffffffffffffffffffffffffffffffffffffffffffffffffffff82611a4d565b611a928683611a4d565b95508019841693508086168417925050509392505050565b5f819050919050565b5f611acd611ac8611ac3846111e2565b611aaa565b6111e2565b9050919050565b5f819050919050565b611ae683611ab3565b611afa611af282611ad4565b848454611a59565b825550505050565b5f5f905090565b611b11611b02565b611b1c818484611add565b505050565b5b81811015611b3f57611b345f82611b09565b600181019050611b22565b5050565b601f821115611b8457611b5581611a2c565b611b5e84611a3e565b81016020851015611b6d578190505b611b81611b7985611a3e565b830182611b21565b50505b505050565b5f82821c905092915050565b5f611ba45f1984600802611b89565b1980831691505092915050565b5f611bbc8383611b95565b9150826002028217905092915050565b611bd582611141565b67ffffffffffffffff811115611bee57611bed61141e565b5b611bf8825461174d565b611c03828285611b43565b5f60209050601f831160018114611c34575f8415611c22578287015190505b611c2c8582611bb1565b865550611c93565b601f198416611c4286611a2c565b5f5b82811015611c6957848901518255600182019150602085019450602081019050611c44565b86831015611c865784890151611c82601f891682611b95565b8355505b6001600288020188555050505b505050505050565b7f4e6f74206f776e657200000000000000000000000000000000000000000000005f82015250565b5f611ccf60098361114b565b9150611cda82611c9b565b602082019050919050565b5f6020820190508181035f830152611cfc81611cc3565b9050919050565b5f611d0d826111e2565b9150611d18836111e2565b9250828203905081811115611d3057611d2f611985565b5b92915050565b7f4e6f7420455243373231526563656976657200000000000000000000000000005f82015250565b5f611d6a60128361114b565b9150611d7582611d36565b602082019050919050565b5f6020820190508181035f830152611d9781611d5e565b9050919050565b5f81519050919050565b5f82825260208201905092915050565b5f611dc282611d9e565b611dcc8185611da8565b9350611ddc81856020860161115b565b611de581611169565b840191505092915050565b5f608082019050611e035f830187611270565b611e106020830186611270565b611e1d604083018561137b565b8181036060830152611e2f8184611db8565b905095945050505050565b5f7fffffffff0000000000000000000000000000000000000000000000000000000082169050919050565b611e6e81611e3a565b8114611e78575f5ffd5b50565b5f81519050611e8981611e65565b92915050565b5f60208284031215611ea457611ea36111da565b5b5f611eb184828501611e7b565b9150509291505056fea2646970667358221220bbd776cac593c27ee0bcf89f59f64fb63159a1517dfd8100b7742187826ceaf764736f6c634300081e0033",
					"opcodes": "PUSH1 0x80 PUSH1 0x40 MSTORE PUSH1 0x1 PUSH1 0x2 SSTORE CALLVALUE DUP1 ISZERO PUSH2 0x14 JUMPI PUSH0 PUSH0 REVERT JUMPDEST POP PUSH1 0x40 MLOAD PUSH2 0x23FB CODESIZE SUB DUP1 PUSH2 0x23FB DUP4 CODECOPY DUP2 DUP2 ADD PUSH1 0x40 MSTORE DUP2 ADD SWAP1 PUSH2 0x36 SWAP2 SWAP1 PUSH2 0x1A9 JUMP JUMPDEST DUP2 PUSH0 SWAP1 DUP2 PUSH2 0x44 SWAP2 SWAP1 PUSH2 0x42F JUMP JUMPDEST POP DUP1 PUSH1 0x1 SWAP1 DUP2 PUSH2 0x54 SWAP2 SWAP1 PUSH2 0x42F JUMP JUMPDEST POP POP POP PUSH2 0x4FE JUMP JUMPDEST PUSH0 PUSH1 0x40 MLOAD SWAP1 POP SWAP1 JUMP JUMPDEST PUSH0 PUSH0 REVERT JUMPDEST PUSH0 PUSH0 REVERT JUMPDEST PUSH0 PUSH0 REVERT JUMPDEST PUSH0 PUSH0 REVERT JUMPDEST PUSH0 PUSH1 0x1F NOT PUSH1 0x1F DUP4 ADD AND SWAP1 POP SWAP2 SWAP1 POP JUMP JUMPDEST PUSH32 0x4E487B7100000000000000000000000000000000000000000000000000000000 PUSH0 MSTORE PUSH1 0x41 PUSH1 0x4 MSTORE PUSH1 0x24 PUSH0 REVERT JUMPDEST PUSH2 0xBB DUP3 PUSH2 0x75 JUMP JUMPDEST DUP2 ADD DUP2 DUP2 LT PUSH8 0xFFFFFFFFFFFFFFFF DUP3 GT OR ISZERO PUSH2 0xDA JUMPI PUSH2 0xD9 PUSH2 0x85 JUMP JUMPDEST JUMPDEST DUP1 PUSH1 0x40 MSTORE POP POP POP JUMP JUMPDEST PUSH0 PUSH2 0xEC PUSH2 0x5C JUMP JUMPDEST SWAP1 POP PUSH2 0xF8 DUP3 DUP3 PUSH2 0xB2 JUMP JUMPDEST SWAP2 SWAP1 POP JUMP JUMPDEST PUSH0 PUSH8 0xFFFFFFFFFFFFFFFF DUP3 GT ISZERO PUSH2 0x117 JUMPI PUSH2 0x116 PUSH2 0x85 JUMP JUMPDEST JUMPDEST PUSH2 0x120 DUP3 PUSH2 0x75 JUMP JUMPDEST SWAP1 POP PUSH1 0x20 DUP2 ADD SWAP1 POP SWAP2 SWAP1 POP JUMP JUMPDEST DUP3 DUP2 DUP4 MCOPY PUSH0 DUP4 DUP4 ADD MSTORE POP POP POP JUMP JUMPDEST PUSH0 PUSH2 0x14D PUSH2 0x148 DUP5 PUSH2 0xFD JUMP JUMPDEST PUSH2 0xE3 JUMP JUMPDEST SWAP1 POP DUP3 DUP2 MSTORE PUSH1 0x20 DUP2 ADD DUP5 DUP5 DUP5 ADD GT ISZERO PUSH2 0x169 JUMPI PUSH2 0x168 PUSH2 0x71 JUMP JUMPDEST JUMPDEST PUSH2 0x174 DUP5 DUP3 DUP6 PUSH2 0x12D JUMP JUMPDEST POP SWAP4 SWAP3 POP POP POP JUMP JUMPDEST PUSH0 DUP3 PUSH1 0x1F DUP4 ADD SLT PUSH2 0x190 JUMPI PUSH2 0x18F PUSH2 0x6D JUMP JUMPDEST JUMPDEST DUP2 MLOAD PUSH2 0x1A0 DUP5 DUP3 PUSH1 0x20 DUP7 ADD PUSH2 0x13B JUMP JUMPDEST SWAP2 POP POP SWAP3 SWAP2 POP POP JUMP JUMPDEST PUSH0 PUSH0 PUSH1 0x40 DUP4 DUP6 SUB SLT ISZERO PUSH2 0x1BF JUMPI PUSH2 0x1BE PUSH2 0x65 JUMP JUMPDEST JUMPDEST PUSH0 DUP4 ADD MLOAD PUSH8 0xFFFFFFFFFFFFFFFF DUP2 GT ISZERO PUSH2 0x1DC JUMPI PUSH2 0x1DB PUSH2 0x69 JUMP JUMPDEST JUMPDEST PUSH2 0x1E8 DUP6 DUP3 DUP7 ADD PUSH2 0x17C JUMP JUMPDEST SWAP3 POP POP PUSH1 0x20 DUP4 ADD MLOAD PUSH8 0xFFFFFFFFFFFFFFFF DUP2 GT ISZERO PUSH2 0x209 JUMPI PUSH2 0x208 PUSH2 0x69 JUMP JUMPDEST JUMPDEST PUSH2 0x215 DUP6 DUP3 DUP7 ADD PUSH2 0x17C JUMP JUMPDEST SWAP2 POP POP SWAP3 POP SWAP3 SWAP1 POP JUMP JUMPDEST PUSH0 DUP2 MLOAD SWAP1 POP SWAP2 SWAP1 POP JUMP JUMPDEST PUSH32 0x4E487B7100000000000000000000000000000000000000000000000000000000 PUSH0 MSTORE PUSH1 0x22 PUSH1 0x4 MSTORE PUSH1 0x24 PUSH0 REVERT JUMPDEST PUSH0 PUSH1 0x2 DUP3 DIV SWAP1 POP PUSH1 0x1 DUP3 AND DUP1 PUSH2 0x26D JUMPI PUSH1 0x7F DUP3 AND SWAP2 POP JUMPDEST PUSH1 0x20 DUP3 LT DUP2 SUB PUSH2 0x280 JUMPI PUSH2 0x27F PUSH2 0x229 JUMP JUMPDEST JUMPDEST POP SWAP2 SWAP1 POP JUMP JUMPDEST PUSH0 DUP2 SWAP1 POP DUP2 PUSH0 MSTORE PUSH1 0x20 PUSH0 KECCAK256 SWAP1 POP SWAP2 SWAP1 POP JUMP JUMPDEST PUSH0 PUSH1 0x20 PUSH1 0x1F DUP4 ADD DIV SWAP1 POP SWAP2 SWAP1 POP JUMP JUMPDEST PUSH0 DUP3 DUP3 SHL SWAP1 POP SWAP3 SWAP2 POP POP JUMP JUMPDEST PUSH0 PUSH1 0x8 DUP4 MUL PUSH2 0x2E2 PUSH32 0xFFFFFFFFFFFFFFFFFFFFFFFFFFFFFFFFFFFFFFFFFFFFFFFFFFFFFFFFFFFFFFFF DUP3 PUSH2 0x2A7 JUMP JUMPDEST PUSH2 0x2EC DUP7 DUP4 PUSH2 0x2A7 JUMP JUMPDEST SWAP6 POP DUP1 NOT DUP5 AND SWAP4 POP DUP1 DUP7 AND DUP5 OR SWAP3 POP POP POP SWAP4 SWAP3 POP POP POP JUMP JUMPDEST PUSH0 DUP2 SWAP1 POP SWAP2 SWAP1 POP JUMP JUMPDEST PUSH0 DUP2 SWAP1 POP SWAP2 SWAP1 POP JUMP JUMPDEST PUSH0 PUSH2 0x330 PUSH2 0x32B PUSH2 0x326 DUP5 PUSH2 0x304 JUMP JUMPDEST PUSH2 0x30D JUMP JUMPDEST PUSH2 0x304 JUMP JUMPDEST SWAP1 POP SWAP2 SWAP1 POP JUMP JUMPDEST PUSH0 DUP2 SWAP1 POP SWAP2 SWAP1 POP JUMP JUMPDEST PUSH2 0x349 DUP4 PUSH2 0x316 JUMP JUMPDEST PUSH2 0x35D PUSH2 0x355 DUP3 PUSH2 0x337 JUMP JUMPDEST DUP5 DUP5 SLOAD PUSH2 0x2B3 JUMP JUMPDEST DUP3 SSTORE POP POP POP POP JUMP JUMPDEST PUSH0 PUSH0 SWAP1 POP SWAP1 JUMP JUMPDEST PUSH2 0x374 PUSH2 0x365 JUMP JUMPDEST PUSH2 0x37F DUP2 DUP5 DUP5 PUSH2 0x340 JUMP JUMPDEST POP POP POP JUMP JUMPDEST JUMPDEST DUP2 DUP2 LT ISZERO PUSH2 0x3A2 JUMPI PUSH2 0x397 PUSH0 DUP3 PUSH2 0x36C JUMP JUMPDEST PUSH1 0x1 DUP2 ADD SWAP1 POP PUSH2 0x385 JUMP JUMPDEST POP POP JUMP JUMPDEST PUSH1 0x1F DUP3 GT ISZERO PUSH2 0x3E7 JUMPI PUSH2 0x3B8 DUP2 PUSH2 0x286 JUMP JUMPDEST PUSH2 0x3C1 DUP5 PUSH2 0x298 JUMP JUMPDEST DUP2 ADD PUSH1 0x20 DUP6 LT ISZERO PUSH2 0x3D0 JUMPI DUP2 SWAP1 POP JUMPDEST PUSH2 0x3E4 PUSH2 0x3DC DUP6 PUSH2 0x298 JUMP JUMPDEST DUP4 ADD DUP3 PUSH2 0x384 JUMP JUMPDEST POP POP JUMPDEST POP POP POP JUMP JUMPDEST PUSH0 DUP3 DUP3 SHR SWAP1 POP SWAP3 SWAP2 POP POP JUMP JUMPDEST PUSH0 PUSH2 0x407 PUSH0 NOT DUP5 PUSH1 0x8 MUL PUSH2 0x3EC JUMP JUMPDEST NOT DUP1 DUP4 AND SWAP2 POP POP SWAP3 SWAP2 POP POP JUMP JUMPDEST PUSH0 PUSH2 0x41F DUP4 DUP4 PUSH2 0x3F8 JUMP JUMPDEST SWAP2 POP DUP3 PUSH1 0x2 MUL DUP3 OR SWAP1 POP SWAP3 SWAP2 POP POP JUMP JUMPDEST PUSH2 0x438 DUP3 PUSH2 0x21F JUMP JUMPDEST PUSH8 0xFFFFFFFFFFFFFFFF DUP2 GT ISZERO PUSH2 0x451 JUMPI PUSH2 0x450 PUSH2 0x85 JUMP JUMPDEST JUMPDEST PUSH2 0x45B DUP3 SLOAD PUSH2 0x256 JUMP JUMPDEST PUSH2 0x466 DUP3 DUP3 DUP6 PUSH2 0x3A6 JUMP JUMPDEST PUSH0 PUSH1 0x20 SWAP1 POP PUSH1 0x1F DUP4 GT PUSH1 0x1 DUP2 EQ PUSH2 0x497 JUMPI PUSH0 DUP5 ISZERO PUSH2 0x485 JUMPI DUP3 DUP8 ADD MLOAD SWAP1 POP JUMPDEST PUSH2 0x48F DUP6 DUP3 PUSH2 0x414 JUMP JUMPDEST DUP7 SSTORE POP PUSH2 0x4F6 JUMP JUMPDEST PUSH1 0x1F NOT DUP5 AND PUSH2 0x4A5 DUP7 PUSH2 0x286 JUMP JUMPDEST PUSH0 JUMPDEST DUP3 DUP2 LT ISZERO PUSH2 0x4CC JUMPI DUP5 DUP10 ADD MLOAD DUP3 SSTORE PUSH1 0x1 DUP3 ADD SWAP2 POP PUSH1 0x20 DUP6 ADD SWAP5 POP PUSH1 0x20 DUP2 ADD SWAP1 POP PUSH2 0x4A7 JUMP JUMPDEST DUP7 DUP4 LT ISZERO PUSH2 0x4E9 JUMPI DUP5 DUP10 ADD MLOAD PUSH2 0x4E5 PUSH1 0x1F DUP10 AND DUP3 PUSH2 0x3F8 JUMP JUMPDEST DUP4 SSTORE POP JUMPDEST PUSH1 0x1 PUSH1 0x2 DUP9 MUL ADD DUP9 SSTORE POP POP POP JUMPDEST POP POP POP POP POP POP JUMP JUMPDEST PUSH2 0x1EF0 DUP1 PUSH2 0x50B PUSH0 CODECOPY PUSH0 RETURN INVALID PUSH1 0x80 PUSH1 0x40 MSTORE CALLVALUE DUP1 ISZERO PUSH2 0xF JUMPI PUSH0 PUSH0 REVERT JUMPDEST POP PUSH1 0x4 CALLDATASIZE LT PUSH2 0xCD JUMPI PUSH0 CALLDATALOAD PUSH1 0xE0 SHR DUP1 PUSH4 0x70A08231 GT PUSH2 0x8A JUMPI DUP1 PUSH4 0xB88D4FDE GT PUSH2 0x64 JUMPI DUP1 PUSH4 0xB88D4FDE EQ PUSH2 0x20D JUMPI DUP1 PUSH4 0xC87B56DD EQ PUSH2 0x229 JUMPI DUP1 PUSH4 0xD0DEF521 EQ PUSH2 0x259 JUMPI DUP1 PUSH4 0xE985E9C5 EQ PUSH2 0x275 JUMPI PUSH2 0xCD JUMP JUMPDEST DUP1 PUSH4 0x70A08231 EQ PUSH2 0x1A3 JUMPI DUP1 PUSH4 0x95D89B41 EQ PUSH2 0x1D3 JUMPI DUP1 PUSH4 0xA22CB465 EQ PUSH2 0x1F1 JUMPI PUSH2 0xCD JUMP JUMPDEST DUP1 PUSH4 0x6FDDE03 EQ PUSH2 0xD1 JUMPI DUP1 PUSH4 0x81812FC EQ PUSH2 0xEF JUMPI DUP1 PUSH4 0x95EA7B3 EQ PUSH2 0x11F JUMPI DUP1 PUSH4 0x23B872DD EQ PUSH2 0x13B JUMPI DUP1 PUSH4 0x42842E0E EQ PUSH2 0x157 JUMPI DUP1 PUSH4 0x6352211E EQ PUSH2 0x173 JUMPI JUMPDEST PUSH0 PUSH0 REVERT JUMPDEST PUSH2 0xD9 PUSH2 0x2A5 JUMP JUMPDEST PUSH1 0x40 MLOAD PUSH2 0xE6 SWAP2 SWAP1 PUSH2 0x11B1 JUMP JUMPDEST PUSH1 0x40 MLOAD DUP1 SWAP2 SUB SWAP1 RETURN JUMPDEST PUSH2 0x109 PUSH1 0x4 DUP1 CALLDATASIZE SUB DUP2 ADD SWAP1 PUSH2 0x104 SWAP2 SWAP1 PUSH2 0x1215 JUMP JUMPDEST PUSH2 0x330 JUMP JUMPDEST PUSH1 0x40 MLOAD PUSH2 0x116 SWAP2 SWAP1 PUSH2 0x127F JUMP JUMPDEST PUSH1 0x40 MLOAD DUP1 SWAP2 SUB SWAP1 RETURN JUMPDEST PUSH2 0x139 PUSH1 0x4 DUP1 CALLDATASIZE SUB DUP2 ADD SWAP1 PUSH2 0x134 SWAP2 SWAP1 PUSH2 0x12C2 JUMP JUMPDEST PUSH2 0x407 JUMP JUMPDEST STOP JUMPDEST PUSH2 0x155 PUSH1 0x4 DUP1 CALLDATASIZE SUB DUP2 ADD SWAP1 PUSH2 0x150 SWAP2 SWAP1 PUSH2 0x1300 JUMP JUMPDEST PUSH2 0x5AF JUMP JUMPDEST STOP JUMPDEST PUSH2 0x171 PUSH1 0x4 DUP1 CALLDATASIZE SUB DUP2 ADD SWAP1 PUSH2 0x16C SWAP2 SWAP1 PUSH2 0x1300 JUMP JUMPDEST PUSH2 0x608 JUMP JUMPDEST STOP JUMPDEST PUSH2 0x18D PUSH1 0x4 DUP1 CALLDATASIZE SUB DUP2 ADD SWAP1 PUSH2 0x188 SWAP2 SWAP1 PUSH2 0x1215 JUMP JUMPDEST PUSH2 0x627 JUMP JUMPDEST PUSH1 0x40 MLOAD PUSH2 0x19A SWAP2 SWAP1 PUSH2 0x127F JUMP JUMPDEST PUSH1 0x40 MLOAD DUP1 SWAP2 SUB SWAP1 RETURN JUMPDEST PUSH2 0x1BD PUSH1 0x4 DUP1 CALLDATASIZE SUB DUP2 ADD SWAP1 PUSH2 0x1B8 SWAP2 SWAP1 PUSH2 0x1350 JUMP JUMPDEST PUSH2 0x6D3 JUMP JUMPDEST PUSH1 0x40 MLOAD PUSH2 0x1CA SWAP2 SWAP1 PUSH2 0x138A JUMP JUMPDEST PUSH1 0x40 MLOAD DUP1 SWAP2 SUB SWAP1 RETURN JUMPDEST PUSH2 0x1DB PUSH2 0x787 JUMP JUMPDEST PUSH1 0x40 MLOAD PUSH2 0x1E8 SWAP2 SWAP1 PUSH2 0x11B1 JUMP JUMPDEST PUSH1 0x40 MLOAD DUP1 SWAP2 SUB SWAP1 RETURN JUMPDEST PUSH2 0x20B PUSH1 0x4 DUP1 CALLDATASIZE SUB DUP2 ADD SWAP1 PUSH2 0x206 SWAP2 SWAP1 PUSH2 0x13D8 JUMP JUMPDEST PUSH2 0x813 JUMP JUMPDEST STOP JUMPDEST PUSH2 0x227 PUSH1 0x4 DUP1 CALLDATASIZE SUB DUP2 ADD SWAP1 PUSH2 0x222 SWAP2 SWAP1 PUSH2 0x1542 JUMP JUMPDEST PUSH2 0x979 JUMP JUMPDEST STOP JUMPDEST PUSH2 0x243 PUSH1 0x4 DUP1 CALLDATASIZE SUB DUP2 ADD SWAP1 PUSH2 0x23E SWAP2 SWAP1 PUSH2 0x1215 JUMP JUMPDEST PUSH2 0x9D4 JUMP JUMPDEST PUSH1 0x40 MLOAD PUSH2 0x250 SWAP2 SWAP1 PUSH2 0x11B1 JUMP JUMPDEST PUSH1 0x40 MLOAD DUP1 SWAP2 SUB SWAP1 RETURN JUMPDEST PUSH2 0x273 PUSH1 0x4 DUP1 CALLDATASIZE SUB DUP2 ADD SWAP1 PUSH2 0x26E SWAP2 SWAP1 PUSH2 0x1660 JUMP JUMPDEST PUSH2 0xB13 JUMP JUMPDEST STOP JUMPDEST PUSH2 0x28F PUSH1 0x4 DUP1 CALLDATASIZE SUB DUP2 ADD SWAP1 PUSH2 0x28A SWAP2 SWAP1 PUSH2 0x16BA JUMP JUMPDEST PUSH2 0xC52 JUMP JUMPDEST PUSH1 0x40 MLOAD PUSH2 0x29C SWAP2 SWAP1 PUSH2 0x1707 JUMP JUMPDEST PUSH1 0x40 MLOAD DUP1 SWAP2 SUB SWAP1 RETURN JUMPDEST PUSH0 DUP1 SLOAD PUSH2 0x2B1 SWAP1 PUSH2 0x174D JUMP JUMPDEST DUP1 PUSH1 0x1F ADD PUSH1 0x20 DUP1 SWAP2 DIV MUL PUSH1 0x20 ADD PUSH1 0x40 MLOAD SWAP1 DUP2 ADD PUSH1 0x40 MSTORE DUP1 SWAP3 SWAP2 SWAP1 DUP2 DUP2 MSTORE PUSH1 0x20 ADD DUP3 DUP1 SLOAD PUSH2 0x2DD SWAP1 PUSH2 0x174D JUMP JUMPDEST DUP1 ISZERO PUSH2 0x328 JUMPI DUP1 PUSH1 0x1F LT PUSH2 0x2FF JUMPI PUSH2 0x100 DUP1 DUP4 SLOAD DIV MUL DUP4 MSTORE SWAP2 PUSH1 0x20 ADD SWAP2 PUSH2 0x328 JUMP JUMPDEST DUP3 ADD SWAP2 SWAP1 PUSH0 MSTORE PUSH1 0x20 PUSH0 KECCAK256 SWAP1 JUMPDEST DUP2 SLOAD DUP2 MSTORE SWAP1 PUSH1 0x1 ADD SWAP1 PUSH1 0x20 ADD DUP1 DUP4 GT PUSH2 0x30B JUMPI DUP3 SWAP1 SUB PUSH1 0x1F AND DUP3 ADD SWAP2 JUMPDEST POP POP POP POP POP DUP2 JUMP JUMPDEST PUSH0 PUSH0 PUSH20 0xFFFFFFFFFFFFFFFFFFFFFFFFFFFFFFFFFFFFFFFF AND PUSH1 0x3 PUSH0 DUP5 DUP2 MSTORE PUSH1 0x20 ADD SWAP1 DUP2 MSTORE PUSH1 0x20 ADD PUSH0 KECCAK256 PUSH0 SWAP1 SLOAD SWAP1 PUSH2 0x100 EXP SWAP1 DIV PUSH20 0xFFFFFFFFFFFFFFFFFFFFFFFFFFFFFFFFFFFFFFFF AND PUSH20 0xFFFFFFFFFFFFFFFFFFFFFFFFFFFFFFFFFFFFFFFF AND SUB PUSH2 0x3CF JUMPI PUSH1 0x40 MLOAD PUSH32 0x8C379A000000000000000000000000000000000000000000000000000000000 DUP2 MSTORE PUSH1 0x4 ADD PUSH2 0x3C6 SWAP1 PUSH2 0x17C7 JUMP JUMPDEST PUSH1 0x40 MLOAD DUP1 SWAP2 SUB SWAP1 REVERT JUMPDEST PUSH1 0x5 PUSH0 DUP4 DUP2 MSTORE PUSH1 0x20 ADD SWAP1 DUP2 MSTORE PUSH1 0x20 ADD PUSH0 KECCAK256 PUSH0 SWAP1 SLOAD SWAP1 PUSH2 0x100 EXP SWAP1 DIV PUSH20 0xFFFFFFFFFFFFFFFFFFFFFFFFFFFFFFFFFFFFFFFF AND SWAP1 POP SWAP2 SWAP1 POP JUMP JUMPDEST PUSH0 PUSH2 0x411 DUP3 PUSH2 0x627 JUMP JUMPDEST SWAP1 POP DUP1 PUSH20 0xFFFFFFFFFFFFFFFFFFFFFFFFFFFFFFFFFFFFFFFF AND DUP4 PUSH20 0xFFFFFFFFFFFFFFFFFFFFFFFFFFFFFFFFFFFFFFFF AND SUB PUSH2 0x481 JUMPI PUSH1 0x40 MLOAD PUSH32 0x8C379A000000000000000000000000000000000000000000000000000000000 DUP2 MSTORE PUSH1 0x4 ADD PUSH2 0x478 SWAP1 PUSH2 0x182F JUMP JUMPDEST PUSH1 0x40 MLOAD DUP1 SWAP2 SUB SWAP1 REVERT JUMPDEST DUP1 PUSH20 0xFFFFFFFFFFFFFFFFFFFFFFFFFFFFFFFFFFFFFFFF AND CALLER PUSH20 0xFFFFFFFFFFFFFFFFFFFFFFFFFFFFFFFFFFFFFFFF AND EQ DUP1 PUSH2 0x4C1 JUMPI POP PUSH2 0x4C0 DUP2 CALLER PUSH2 0xC52 JUMP JUMPDEST JUMPDEST PUSH2 0x500 JUMPI PUSH1 0x40 MLOAD PUSH32 0x8C379A000000000000000000000000000000000000000000000000000000000 DUP2 MSTORE PUSH1 0x4 ADD PUSH2 0x4F7 SWAP1 PUSH2 0x1897 JUMP JUMPDEST PUSH1 0x40 MLOAD DUP1 SWAP2 SUB SWAP1 REVERT JUMPDEST DUP3 PUSH1 0x5 PUSH0 DUP5 DUP2 MSTORE PUSH1 0x20 ADD SWAP1 DUP2 MSTORE PUSH1 0x20 ADD PUSH0 KECCAK256 PUSH0 PUSH2 0x100 EXP DUP2 SLOAD DUP2 PUSH20 0xFFFFFFFFFFFFFFFFFFFFFFFFFFFFFFFFFFFFFFFF MUL NOT AND SWAP1 DUP4 PUSH20 0xFFFFFFFFFFFFFFFFFFFFFFFFFFFFFFFFFFFFFFFF AND MUL OR SWAP1 SSTORE POP DUP2 DUP4 PUSH20 0xFFFFFFFFFFFFFFFFFFFFFFFFFFFFFFFFFFFFFFFF AND DUP3 PUSH20 0xFFFFFFFFFFFFFFFFFFFFFFFFFFFFFFFFFFFFFFFF AND PUSH32 0x8C5BE1E5EBEC7D5BD14F71427D1E84F3DD0314C0F7B2291E5B200AC8C7C3B925 PUSH1 0x40 MLOAD PUSH1 0x40 MLOAD DUP1 SWAP2 SUB SWAP1 LOG4 POP POP POP JUMP JUMPDEST PUSH2 0x5B9 CALLER DUP3 PUSH2 0xCE0 JUMP JUMPDEST PUSH2 0x5F8 JUMPI PUSH1 0x40 MLOAD PUSH32 0x8C379A000000000000000000000000000000000000000000000000000000000 DUP2 MSTORE PUSH1 0x4 ADD PUSH2 0x5EF SWAP1 PUSH2 0x1897 JUMP JUMPDEST PUSH1 0x40 MLOAD DUP1 SWAP2 SUB SWAP1 REVERT JUMPDEST PUSH2 0x603 DUP4 DUP4 DUP4 PUSH2 0xD74 JUMP JUMPDEST POP POP POP JUMP JUMPDEST PUSH2 0x622 DUP4 DUP4 DUP4 PUSH1 0x40 MLOAD DUP1 PUSH1 0x20 ADD PUSH1 0x40 MSTORE DUP1 PUSH0 DUP2 MSTORE POP PUSH2 0x979 JUMP JUMPDEST POP POP POP JUMP JUMPDEST PUSH0 PUSH0 PUSH1 0x3 PUSH0 DUP5 DUP2 MSTORE PUSH1 0x20 ADD SWAP1 DUP2 MSTORE PUSH1 0x20 ADD PUSH0 KECCAK256 PUSH0 SWAP1 SLOAD SWAP1 PUSH2 0x100 EXP SWAP1 DIV PUSH20 0xFFFFFFFFFFFFFFFFFFFFFFFFFFFFFFFFFFFFFFFF AND SWAP1 POP PUSH0 PUSH20 0xFFFFFFFFFFFFFFFFFFFFFFFFFFFFFFFFFFFFFFFF AND DUP2 PUSH20 0xFFFFFFFFFFFFFFFFFFFFFFFFFFFFFFFFFFFFFFFF AND SUB PUSH2 0x6CA JUMPI PUSH1 0x40 MLOAD PUSH32 0x8C379A000000000000000000000000000000000000000000000000000000000 DUP2 MSTORE PUSH1 0x4 ADD PUSH2 0x6C1 SWAP1 PUSH2 0x17C7 JUMP JUMPDEST PUSH1 0x40 MLOAD DUP1 SWAP2 SUB SWAP1 REVERT JUMPDEST DUP1 SWAP2 POP POP SWAP2 SWAP1 POP JUMP JUMPDEST PUSH0 PUSH0 PUSH20 0xFFFFFFFFFFFFFFFFFFFFFFFFFFFFFFFFFFFFFFFF AND DUP3 PUSH20 0xFFFFFFFFFFFFFFFFFFFFFFFFFFFFFFFFFFFFFFFF AND SUB PUSH2 0x742 JUMPI PUSH1 0x40 MLOAD PUSH32 0x8C379A000000000000000000000000000000000000000000000000000000000 DUP2 MSTORE PUSH1 0x4 ADD PUSH2 0x739 SWAP1 PUSH2 0x18FF JUMP JUMPDEST PUSH1 0x40 MLOAD DUP1 SWAP2 SUB SWAP1 REVERT JUMPDEST PUSH1 0x4 PUSH0 DUP4 PUSH20 0xFFFFFFFFFFFFFFFFFFFFFFFFFFFFFFFFFFFFFFFF AND PUSH20 0xFFFFFFFFFFFFFFFFFFFFFFFFFFFFFFFFFFFFFFFF AND DUP2 MSTORE PUSH1 0x20 ADD SWAP1 DUP2 MSTORE PUSH1 0x20 ADD PUSH0 KECCAK256 SLOAD SWAP1 POP SWAP2 SWAP1 POP JUMP JUMPDEST PUSH1 0x1 DUP1 SLOAD PUSH2 0x794 SWAP1 PUSH2 0x174D JUMP JUMPDEST DUP1 PUSH1 0x1F ADD PUSH1 0x20 DUP1 SWAP2 DIV MUL PUSH1 0x20 ADD PUSH1 0x40 MLOAD SWAP1 DUP2 ADD PUSH1 0x40 MSTORE DUP1 SWAP3 SWAP2 SWAP1 DUP2 DUP2 MSTORE PUSH1 0x20 ADD DUP3 DUP1 SLOAD PUSH2 0x7C0 SWAP1 PUSH2 0x174D JUMP JUMPDEST DUP1 ISZERO PUSH2 0x80B JUMPI DUP1 PUSH1 0x1F LT PUSH2 0x7E2 JUMPI PUSH2 0x100 DUP1 DUP4 SLOAD DIV MUL DUP4 MSTORE SWAP2 PUSH1 0x20 ADD SWAP2 PUSH2 0x80B JUMP JUMPDEST DUP3 ADD SWAP2 SWAP1 PUSH0 MSTORE PUSH1 0x20 PUSH0 KECCAK256 SWAP1 JUMPDEST DUP2 SLOAD DUP2 MSTORE SWAP1 PUSH1 0x1 ADD SWAP1 PUSH1 0x20 ADD DUP1 DUP4 GT PUSH2 0x7EE JUMPI DUP3 SWAP1 SUB PUSH1 0x1F AND DUP3 ADD SWAP2 JUMPDEST POP POP POP POP POP DUP2 JUMP JUMPDEST CALLER PUSH20 0xFFFFFFFFFFFFFFFFFFFFFFFFFFFFFFFFFFFFFFFF AND DUP3 PUSH20 0xFFFFFFFFFFFFFFFFFFFFFFFFFFFFFFFFFFFFFFFF AND SUB PUSH2 0x881 JUMPI PUSH1 0x40 MLOAD PUSH32 0x8C379A000000000000000000000000000000000000000000000000000000000 DUP2 MSTORE PUSH1 0x4 ADD PUSH2 0x878 SWAP1 PUSH2 0x1967 JUMP JUMPDEST PUSH1 0x40 MLOAD DUP1 SWAP2 SUB SWAP1 REVERT JUMPDEST DUP1 PUSH1 0x6 PUSH0 CALLER PUSH20 0xFFFFFFFFFFFFFFFFFFFFFFFFFFFFFFFFFFFFFFFF AND PUSH20 0xFFFFFFFFFFFFFFFFFFFFFFFFFFFFFFFFFFFFFFFF AND DUP2 MSTORE PUSH1 0x20 ADD SWAP1 DUP2 MSTORE PUSH1 0x20 ADD PUSH0 KECCAK256 PUSH0 DUP5 PUSH20 0xFFFFFFFFFFFFFFFFFFFFFFFFFFFFFFFFFFFFFFFF AND PUSH20 0xFFFFFFFFFFFFFFFFFFFFFFFFFFFFFFFFFFFFFFFF AND DUP2 MSTORE PUSH1 0x20 ADD SWAP1 DUP2 MSTORE PUSH1 0x20 ADD PUSH0 KECCAK256 PUSH0 PUSH2 0x100 EXP DUP2 SLOAD DUP2 PUSH1 0xFF MUL NOT AND SWAP1 DUP4 ISZERO ISZERO MUL OR SWAP1 SSTORE POP DUP2 PUSH20 0xFFFFFFFFFFFFFFFFFFFFFFFFFFFFFFFFFFFFFFFF AND CALLER PUSH20 0xFFFFFFFFFFFFFFFFFFFFFFFFFFFFFFFFFFFFFFFF AND PUSH32 0x17307EAB39AB6107E8899845AD3D59BD9653F200F220920489CA2B5937696C31 DUP4 PUSH1 0x40 MLOAD PUSH2 0x96D SWAP2 SWAP1 PUSH2 0x1707 JUMP JUMPDEST PUSH1 0x40 MLOAD DUP1 SWAP2 SUB SWAP1 LOG3 POP POP JUMP JUMPDEST PUSH2 0x983 CALLER DUP4 PUSH2 0xCE0 JUMP JUMPDEST PUSH2 0x9C2 JUMPI PUSH1 0x40 MLOAD PUSH32 0x8C379A000000000000000000000000000000000000000000000000000000000 DUP2 MSTORE PUSH1 0x4 ADD PUSH2 0x9B9 SWAP1 PUSH2 0x1897 JUMP JUMPDEST PUSH1 0x40 MLOAD DUP1 SWAP2 SUB SWAP1 REVERT JUMPDEST PUSH2 0x9CE DUP5 DUP5 DUP5 DUP5 PUSH2 0xFE2 JUMP JUMPDEST POP POP POP POP JUMP JUMPDEST PUSH1 0x60 PUSH0 PUSH20 0xFFFFFFFFFFFFFFFFFFFFFFFFFFFFFFFFFFFFFFFF AND PUSH1 0x3 PUSH0 DUP5 DUP2 MSTORE PUSH1 0x20 ADD SWAP1 DUP2 MSTORE PUSH1 0x20 ADD PUSH0 KECCAK256 PUSH0 SWAP1 SLOAD SWAP1 PUSH2 0x100 EXP SWAP1 DIV PUSH20 0xFFFFFFFFFFFFFFFFFFFFFFFFFFFFFFFFFFFFFFFF AND PUSH20 0xFFFFFFFFFFFFFFFFFFFFFFFFFFFFFFFFFFFFFFFF AND SUB PUSH2 0xA74 JUMPI PUSH1 0x40 MLOAD PUSH32 0x8C379A000000000000000000000000000000000000000000000000000000000 DUP2 MSTORE PUSH1 0x4 ADD PUSH2 0xA6B SWAP1 PUSH2 0x17C7 JUMP JUMPDEST PUSH1 0x40 MLOAD DUP1 SWAP2 SUB SWAP1 REVERT JUMPDEST PUSH1 0x7 PUSH0 DUP4 DUP2 MSTORE PUSH1 0x20 ADD SWAP1 DUP2 MSTORE PUSH1 0x20 ADD PUSH0 KECCAK256 DUP1 SLOAD PUSH2 0xA90 SWAP1 PUSH2 0x174D JUMP JUMPDEST DUP1 PUSH1 0x1F ADD PUSH1 0x20 DUP1 SWAP2 DIV MUL PUSH1 0x20 ADD PUSH1 0x40 MLOAD SWAP1 DUP2 ADD PUSH1 0x40 MSTORE DUP1 SWAP3 SWAP2 SWAP1 DUP2 DUP2 MSTORE PUSH1 0x20 ADD DUP3 DUP1 SLOAD PUSH2 0xABC SWAP1 PUSH2 0x174D JUMP JUMPDEST DUP1 ISZERO PUSH2 0xB07 JUMPI DUP1 PUSH1 0x1F LT PUSH2 0xADE JUMPI PUSH2 0x100 DUP1 DUP4 SLOAD DIV MUL DUP4 MSTORE SWAP2 PUSH1 0x20 ADD SWAP2 PUSH2 0xB07 JUMP JUMPDEST DUP3 ADD SWAP2 SWAP1 PUSH0 MSTORE PUSH1 0x20 PUSH0 KECCAK256 SWAP1 JUMPDEST DUP2 SLOAD DUP2 MSTORE SWAP1 PUSH1 0x1 ADD SWAP1 PUSH1 0x20 ADD DUP1 DUP4 GT PUSH2 0xAEA JUMPI DUP3 SWAP1 SUB PUSH1 0x1F AND DUP3 ADD SWAP2 JUMPDEST POP POP POP POP POP SWAP1 POP SWAP2 SWAP1 POP JUMP JUMPDEST PUSH0 PUSH1 0x2 SLOAD SWAP1 POP PUSH1 0x2 PUSH0 DUP2 SLOAD DUP1 SWAP3 SWAP2 SWAP1 PUSH2 0xB2B SWAP1 PUSH2 0x19B2 JUMP JUMPDEST SWAP2 SWAP1 POP SSTORE POP DUP3 PUSH1 0x3 PUSH0 DUP4 DUP2 MSTORE PUSH1 0x20 ADD SWAP1 DUP2 MSTORE PUSH1 0x20 ADD PUSH0 KECCAK256 PUSH0 PUSH2 0x100 EXP DUP2 SLOAD DUP2 PUSH20 0xFFFFFFFFFFFFFFFFFFFFFFFFFFFFFFFFFFFFFFFF MUL NOT AND SWAP1 DUP4 PUSH20 0xFFFFFFFFFFFFFFFFFFFFFFFFFFFFFFFFFFFFFFFF AND MUL OR SWAP1 SSTORE POP PUSH1 0x1 PUSH1 0x4 PUSH0 DUP6 PUSH20 0xFFFFFFFFFFFFFFFFFFFFFFFFFFFFFFFFFFFFFFFF AND PUSH20 0xFFFFFFFFFFFFFFFFFFFFFFFFFFFFFFFFFFFFFFFF AND DUP2 MSTORE PUSH1 0x20 ADD SWAP1 DUP2 MSTORE PUSH1 0x20 ADD PUSH0 KECCAK256 PUSH0 DUP3 DUP3 SLOAD PUSH2 0xBCC SWAP2 SWAP1 PUSH2 0x19F9 JUMP JUMPDEST SWAP3 POP POP DUP2 SWAP1 SSTORE POP DUP2 PUSH1 0x7 PUSH0 DUP4 DUP2 MSTORE PUSH1 0x20 ADD SWAP1 DUP2 MSTORE PUSH1 0x20 ADD PUSH0 KECCAK256 SWAP1 DUP2 PUSH2 0xBF1 SWAP2 SWAP1 PUSH2 0x1BCC JUMP JUMPDEST POP DUP1 DUP4 PUSH20 0xFFFFFFFFFFFFFFFFFFFFFFFFFFFFFFFFFFFFFFFF AND PUSH0 PUSH20 0xFFFFFFFFFFFFFFFFFFFFFFFFFFFFFFFFFFFFFFFF AND PUSH32 0xDDF252AD1BE2C89B69C2B068FC378DAA952BA7F163C4A11628F55A4DF523B3EF PUSH1 0x40 MLOAD PUSH1 0x40 MLOAD DUP1 SWAP2 SUB SWAP1 LOG4 POP POP POP JUMP JUMPDEST PUSH0 PUSH1 0x6 PUSH0 DUP5 PUSH20 0xFFFFFFFFFFFFFFFFFFFFFFFFFFFFFFFFFFFFFFFF AND PUSH20 0xFFFFFFFFFFFFFFFFFFFFFFFFFFFFFFFFFFFFFFFF AND DUP2 MSTORE PUSH1 0x20 ADD SWAP1 DUP2 MSTORE PUSH1 0x20 ADD PUSH0 KECCAK256 PUSH0 DUP4 PUSH20 0xFFFFFFFFFFFFFFFFFFFFFFFFFFFFFFFFFFFFFFFF AND PUSH20 0xFFFFFFFFFFFFFFFFFFFFFFFFFFFFFFFFFFFFFFFF AND DUP2 MSTORE PUSH1 0x20 ADD SWAP1 DUP2 MSTORE PUSH1 0x20 ADD PUSH0 KECCAK256 PUSH0 SWAP1 SLOAD SWAP1 PUSH2 0x100 EXP SWAP1 DIV PUSH1 0xFF AND SWAP1 POP SWAP3 SWAP2 POP POP JUMP JUMPDEST PUSH0 PUSH0 PUSH2 0xCEB DUP4 PUSH2 0x627 JUMP JUMPDEST SWAP1 POP DUP1 PUSH20 0xFFFFFFFFFFFFFFFFFFFFFFFFFFFFFFFFFFFFFFFF AND DUP5 PUSH20 0xFFFFFFFFFFFFFFFFFFFFFFFFFFFFFFFFFFFFFFFF AND EQ DUP1 PUSH2 0xD5A JUMPI POP DUP4 PUSH20 0xFFFFFFFFFFFFFFFFFFFFFFFFFFFFFFFFFFFFFFFF AND PUSH2 0xD42 DUP5 PUSH2 0x330 JUMP JUMPDEST PUSH20 0xFFFFFFFFFFFFFFFFFFFFFFFFFFFFFFFFFFFFFFFF AND EQ JUMPDEST DUP1 PUSH2 0xD6B JUMPI POP PUSH2 0xD6A DUP2 DUP6 PUSH2 0xC52 JUMP JUMPDEST JUMPDEST SWAP2 POP POP SWAP3 SWAP2 POP POP JUMP JUMPDEST DUP3 PUSH20 0xFFFFFFFFFFFFFFFFFFFFFFFFFFFFFFFFFFFFFFFF AND PUSH2 0xD94 DUP3 PUSH2 0x627 JUMP JUMPDEST PUSH20 0xFFFFFFFFFFFFFFFFFFFFFFFFFFFFFFFFFFFFFFFF AND EQ PUSH2 0xDEA JUMPI PUSH1 0x40 MLOAD PUSH32 0x8C379A000000000000000000000000000000000000000000000000000000000 DUP2 MSTORE PUSH1 0x4 ADD PUSH2 0xDE1 SWAP1 PUSH2 0x1CE5 JUMP JUMPDEST PUSH1 0x40 MLOAD DUP1 SWAP2 SUB SWAP1 REVERT JUMPDEST PUSH0 PUSH20 0xFFFFFFFFFFFFFFFFFFFFFFFFFFFFFFFFFFFFFFFF AND DUP3 PUSH20 0xFFFFFFFFFFFFFFFFFFFFFFFFFFFFFFFFFFFFFFFF AND SUB PUSH2 0xE58 JUMPI PUSH1 0x40 MLOAD PUSH32 0x8C379A000000000000000000000000000000000000000000000000000000000 DUP2 MSTORE PUSH1 0x4 ADD PUSH2 0xE4F SWAP1 PUSH2 0x18FF JUMP JUMPDEST PUSH1 0x40 MLOAD DUP1 SWAP2 SUB SWAP1 REVERT JUMPDEST PUSH1 0x1 PUSH1 0x4 PUSH0 DUP6 PUSH20 0xFFFFFFFFFFFFFFFFFFFFFFFFFFFFFFFFFFFFFFFF AND PUSH20 0xFFFFFFFFFFFFFFFFFFFFFFFFFFFFFFFFFFFFFFFF AND DUP2 MSTORE PUSH1 0x20 ADD SWAP1 DUP2 MSTORE PUSH1 0x20 ADD PUSH0 KECCAK256 PUSH0 DUP3 DUP3 SLOAD PUSH2 0xEA5 SWAP2 SWAP1 PUSH2 0x1D03 JUMP JUMPDEST SWAP3 POP POP DUP2 SWAP1 SSTORE POP PUSH1 0x1 PUSH1 0x4 PUSH0 DUP5 PUSH20 0xFFFFFFFFFFFFFFFFFFFFFFFFFFFFFFFFFFFFFFFF AND PUSH20 0xFFFFFFFFFFFFFFFFFFFFFFFFFFFFFFFFFFFFFFFF AND DUP2 MSTORE PUSH1 0x20 ADD SWAP1 DUP2 MSTORE PUSH1 0x20 ADD PUSH0 KECCAK256 PUSH0 DUP3 DUP3 SLOAD PUSH2 0xEF9 SWAP2 SWAP1 PUSH2 0x19F9 JUMP JUMPDEST SWAP3 POP POP DUP2 SWAP1 SSTORE POP DUP2 PUSH1 0x3 PUSH0 DUP4 DUP2 MSTORE PUSH1 0x20 ADD SWAP1 DUP2 MSTORE PUSH1 0x20 ADD PUSH0 KECCAK256 PUSH0 PUSH2 0x100 EXP DUP2 SLOAD DUP2 PUSH20 0xFFFFFFFFFFFFFFFFFFFFFFFFFFFFFFFFFFFFFFFF MUL NOT AND SWAP1 DUP4 PUSH20 0xFFFFFFFFFFFFFFFFFFFFFFFFFFFFFFFFFFFFFFFF AND MUL OR SWAP1 SSTORE POP PUSH1 0x5 PUSH0 DUP3 DUP2 MSTORE PUSH1 0x20 ADD SWAP1 DUP2 MSTORE PUSH1 0x20 ADD PUSH0 KECCAK256 PUSH0 PUSH2 0x100 EXP DUP2 SLOAD SWAP1 PUSH20 0xFFFFFFFFFFFFFFFFFFFFFFFFFFFFFFFFFFFFFFFF MUL NOT AND SWAP1 SSTORE DUP1 DUP3 PUSH20 0xFFFFFFFFFFFFFFFFFFFFFFFFFFFFFFFFFFFFFFFF AND DUP5 PUSH20 0xFFFFFFFFFFFFFFFFFFFFFFFFFFFFFFFFFFFFFFFF AND PUSH32 0xDDF252AD1BE2C89B69C2B068FC378DAA952BA7F163C4A11628F55A4DF523B3EF PUSH1 0x40 MLOAD PUSH1 0x40 MLOAD DUP1 SWAP2 SUB SWAP1 LOG4 POP POP POP JUMP JUMPDEST PUSH2 0xFED DUP5 DUP5 DUP5 PUSH2 0xD74 JUMP JUMPDEST PUSH2 0xFF9 DUP5 DUP5 DUP5 DUP5 PUSH2 0x103E JUMP JUMPDEST PUSH2 0x1038 JUMPI PUSH1 0x40 MLOAD PUSH32 0x8C379A000000000000000000000000000000000000000000000000000000000 DUP2 MSTORE PUSH1 0x4 ADD PUSH2 0x102F SWAP1 PUSH2 0x1D80 JUMP JUMPDEST PUSH1 0x40 MLOAD DUP1 SWAP2 SUB SWAP1 REVERT JUMPDEST POP POP POP POP JUMP JUMPDEST PUSH0 PUSH0 DUP5 PUSH20 0xFFFFFFFFFFFFFFFFFFFFFFFFFFFFFFFFFFFFFFFF AND EXTCODESIZE GT ISZERO PUSH2 0x1134 JUMPI DUP4 PUSH20 0xFFFFFFFFFFFFFFFFFFFFFFFFFFFFFFFFFFFFFFFF AND PUSH4 0x150B7A02 CALLER DUP8 DUP7 DUP7 PUSH1 0x40 MLOAD DUP6 PUSH4 0xFFFFFFFF AND PUSH1 0xE0 SHL DUP2 MSTORE PUSH1 0x4 ADD PUSH2 0x109D SWAP5 SWAP4 SWAP3 SWAP2 SWAP1 PUSH2 0x1DF0 JUMP JUMPDEST PUSH1 0x20 PUSH1 0x40 MLOAD DUP1 DUP4 SUB DUP2 PUSH0 DUP8 GAS CALL SWAP3 POP POP POP DUP1 ISZERO PUSH2 0x10D8 JUMPI POP PUSH1 0x40 MLOAD RETURNDATASIZE PUSH1 0x1F NOT PUSH1 0x1F DUP3 ADD AND DUP3 ADD DUP1 PUSH1 0x40 MSTORE POP DUP2 ADD SWAP1 PUSH2 0x10D5 SWAP2 SWAP1 PUSH2 0x1E8F JUMP JUMPDEST PUSH1 0x1 JUMPDEST PUSH2 0x10E4 JUMPI PUSH0 SWAP1 POP PUSH2 0x1139 JUMP JUMPDEST PUSH4 0x150B7A02 PUSH1 0xE0 SHL PUSH28 0xFFFFFFFFFFFFFFFFFFFFFFFFFFFFFFFFFFFFFFFFFFFFFFFFFFFFFFFF NOT AND DUP2 PUSH28 0xFFFFFFFFFFFFFFFFFFFFFFFFFFFFFFFFFFFFFFFFFFFFFFFFFFFFFFFF NOT AND EQ SWAP2 POP POP PUSH2 0x1139 JUMP JUMPDEST PUSH1 0x1 SWAP1 POP JUMPDEST SWAP5 SWAP4 POP POP POP POP JUMP JUMPDEST PUSH0 DUP2 MLOAD SWAP1 POP SWAP2 SWAP1 POP JUMP JUMPDEST PUSH0 DUP3 DUP3 MSTORE PUSH1 0x20 DUP3 ADD SWAP1 POP SWAP3 SWAP2 POP POP JUMP JUMPDEST DUP3 DUP2 DUP4 MCOPY PUSH0 DUP4 DUP4 ADD MSTORE POP POP POP JUMP JUMPDEST PUSH0 PUSH1 0x1F NOT PUSH1 0x1F DUP4 ADD AND SWAP1 POP SWAP2 SWAP1 POP JUMP JUMPDEST PUSH0 PUSH2 0x1183 DUP3 PUSH2 0x1141 JUMP JUMPDEST PUSH2 0x118D DUP2 DUP6 PUSH2 0x114B JUMP JUMPDEST SWAP4 POP PUSH2 0x119D DUP2 DUP6 PUSH1 0x20 DUP7 ADD PUSH2 0x115B JUMP JUMPDEST PUSH2 0x11A6 DUP2 PUSH2 0x1169 JUMP JUMPDEST DUP5 ADD SWAP2 POP POP SWAP3 SWAP2 POP POP JUMP JUMPDEST PUSH0 PUSH1 0x20 DUP3 ADD SWAP1 POP DUP2 DUP2 SUB PUSH0 DUP4 ADD MSTORE PUSH2 0x11C9 DUP2 DUP5 PUSH2 0x1179 JUMP JUMPDEST SWAP1 POP SWAP3 SWAP2 POP POP JUMP JUMPDEST PUSH0 PUSH1 0x40 MLOAD SWAP1 POP SWAP1 JUMP JUMPDEST PUSH0 PUSH0 REVERT JUMPDEST PUSH0 PUSH0 REVERT JUMPDEST PUSH0 DUP2 SWAP1 POP SWAP2 SWAP1 POP JUMP JUMPDEST PUSH2 0x11F4 DUP2 PUSH2 0x11E2 JUMP JUMPDEST DUP2 EQ PUSH2 0x11FE JUMPI PUSH0 PUSH0 REVERT JUMPDEST POP JUMP JUMPDEST PUSH0 DUP2 CALLDATALOAD SWAP1 POP PUSH2 0x120F DUP2 PUSH2 0x11EB JUMP JUMPDEST SWAP3 SWAP2 POP POP JUMP JUMPDEST PUSH0 PUSH1 0x20 DUP3 DUP5 SUB SLT ISZERO PUSH2 0x122A JUMPI PUSH2 0x1229 PUSH2 0x11DA JUMP JUMPDEST JUMPDEST PUSH0 PUSH2 0x1237 DUP5 DUP3 DUP6 ADD PUSH2 0x1201 JUMP JUMPDEST SWAP2 POP POP SWAP3 SWAP2 POP POP JUMP JUMPDEST PUSH0 PUSH20 0xFFFFFFFFFFFFFFFFFFFFFFFFFFFFFFFFFFFFFFFF DUP3 AND SWAP1 POP SWAP2 SWAP1 POP JUMP JUMPDEST PUSH0 PUSH2 0x1269 DUP3 PUSH2 0x1240 JUMP JUMPDEST SWAP1 POP SWAP2 SWAP1 POP JUMP JUMPDEST PUSH2 0x1279 DUP2 PUSH2 0x125F JUMP JUMPDEST DUP3 MSTORE POP POP JUMP JUMPDEST PUSH0 PUSH1 0x20 DUP3 ADD SWAP1 POP PUSH2 0x1292 PUSH0 DUP4 ADD DUP5 PUSH2 0x1270 JUMP JUMPDEST SWAP3 SWAP2 POP POP JUMP JUMPDEST PUSH2 0x12A1 DUP2 PUSH2 0x125F JUMP JUMPDEST DUP2 EQ PUSH2 0x12AB JUMPI PUSH0 PUSH0 REVERT JUMPDEST POP JUMP JUMPDEST PUSH0 DUP2 CALLDATALOAD SWAP1 POP PUSH2 0x12BC DUP2 PUSH2 0x1298 JUMP JUMPDEST SWAP3 SWAP2 POP POP JUMP JUMPDEST PUSH0 PUSH0 PUSH1 0x40 DUP4 DUP6 SUB SLT ISZERO PUSH2 0x12D8 JUMPI PUSH2 0x12D7 PUSH2 0x11DA JUMP JUMPDEST JUMPDEST PUSH0 PUSH2 0x12E5 DUP6 DUP3 DUP7 ADD PUSH2 0x12AE JUMP JUMPDEST SWAP3 POP POP PUSH1 0x20 PUSH2 0x12F6 DUP6 DUP3 DUP7 ADD PUSH2 0x1201 JUMP JUMPDEST SWAP2 POP POP SWAP3 POP SWAP3 SWAP1 POP JUMP JUMPDEST PUSH0 PUSH0 PUSH0 PUSH1 0x60 DUP5 DUP7 SUB SLT ISZERO PUSH2 0x1317 JUMPI PUSH2 0x1316 PUSH2 0x11DA JUMP JUMPDEST JUMPDEST PUSH0 PUSH2 0x1324 DUP7 DUP3 DUP8 ADD PUSH2 0x12AE JUMP JUMPDEST SWAP4 POP POP PUSH1 0x20 PUSH2 0x1335 DUP7 DUP3 DUP8 ADD PUSH2 0x12AE JUMP JUMPDEST SWAP3 POP POP PUSH1 0x40 PUSH2 0x1346 DUP7 DUP3 DUP8 ADD PUSH2 0x1201 JUMP JUMPDEST SWAP2 POP POP SWAP3 POP SWAP3 POP SWAP3 JUMP JUMPDEST PUSH0 PUSH1 0x20 DUP3 DUP5 SUB SLT ISZERO PUSH2 0x1365 JUMPI PUSH2 0x1364 PUSH2 0x11DA JUMP JUMPDEST JUMPDEST PUSH0 PUSH2 0x1372 DUP5 DUP3 DUP6 ADD PUSH2 0x12AE JUMP JUMPDEST SWAP2 POP POP SWAP3 SWAP2 POP POP JUMP JUMPDEST PUSH2 0x1384 DUP2 PUSH2 0x11E2 JUMP JUMPDEST DUP3 MSTORE POP POP JUMP JUMPDEST PUSH0 PUSH1 0x20 DUP3 ADD SWAP1 POP PUSH2 0x139D PUSH0 DUP4 ADD DUP5 PUSH2 0x137B JUMP JUMPDEST SWAP3 SWAP2 POP POP JUMP JUMPDEST PUSH0 DUP2 ISZERO ISZERO SWAP1 POP SWAP2 SWAP1 POP JUMP JUMPDEST PUSH2 0x13B7 DUP2 PUSH2 0x13A3 JUMP JUMPDEST DUP2 EQ PUSH2 0x13C1 JUMPI PUSH0 PUSH0 REVERT JUMPDEST POP JUMP JUMPDEST PUSH0 DUP2 CALLDATALOAD SWAP1 POP PUSH2 0x13D2 DUP2 PUSH2 0x13AE JUMP JUMPDEST SWAP3 SWAP2 POP POP JUMP JUMPDEST PUSH0 PUSH0 PUSH1 0x40 DUP4 DUP6 SUB SLT ISZERO PUSH2 0x13EE JUMPI PUSH2 0x13ED PUSH2 0x11DA JUMP JUMPDEST JUMPDEST PUSH0 PUSH2 0x13FB DUP6 DUP3 DUP7 ADD PUSH2 0x12AE JUMP JUMPDEST SWAP3 POP POP PUSH1 0x20 PUSH2 0x140C DUP6 DUP3 DUP7 ADD PUSH2 0x13C4 JUMP JUMPDEST SWAP2 POP POP SWAP3 POP SWAP3 SWAP1 POP JUMP JUMPDEST PUSH0 PUSH0 REVERT JUMPDEST PUSH0 PUSH0 REVERT JUMPDEST PUSH32 0x4E487B7100000000000000000000000000000000000000000000000000000000 PUSH0 MSTORE PUSH1 0x41 PUSH1 0x4 MSTORE PUSH1 0x24 PUSH0 REVERT JUMPDEST PUSH2 0x1454 DUP3 PUSH2 0x1169 JUMP JUMPDEST DUP2 ADD DUP2 DUP2 LT PUSH8 0xFFFFFFFFFFFFFFFF DUP3 GT OR ISZERO PUSH2 0x1473 JUMPI PUSH2 0x1472 PUSH2 0x141E JUMP JUMPDEST JUMPDEST DUP1 PUSH1 0x40 MSTORE POP POP POP JUMP JUMPDEST PUSH0 PUSH2 0x1485 PUSH2 0x11D1 JUMP JUMPDEST SWAP1 POP PUSH2 0x1491 DUP3 DUP3 PUSH2 0x144B JUMP JUMPDEST SWAP2 SWAP1 POP JUMP JUMPDEST PUSH0 PUSH8 0xFFFFFFFFFFFFFFFF DUP3 GT ISZERO PUSH2 0x14B0 JUMPI PUSH2 0x14AF PUSH2 0x141E JUMP JUMPDEST JUMPDEST PUSH2 0x14B9 DUP3 PUSH2 0x1169 JUMP JUMPDEST SWAP1 POP PUSH1 0x20 DUP2 ADD SWAP1 POP SWAP2 SWAP1 POP JUMP JUMPDEST DUP3 DUP2 DUP4 CALLDATACOPY PUSH0 DUP4 DUP4 ADD MSTORE POP POP POP JUMP JUMPDEST PUSH0 PUSH2 0x14E6 PUSH2 0x14E1 DUP5 PUSH2 0x1496 JUMP JUMPDEST PUSH2 0x147C JUMP JUMPDEST SWAP1 POP DUP3 DUP2 MSTORE PUSH1 0x20 DUP2 ADD DUP5 DUP5 DUP5 ADD GT ISZERO PUSH2 0x1502 JUMPI PUSH2 0x1501 PUSH2 0x141A JUMP JUMPDEST JUMPDEST PUSH2 0x150D DUP5 DUP3 DUP6 PUSH2 0x14C6 JUMP JUMPDEST POP SWAP4 SWAP3 POP POP POP JUMP JUMPDEST PUSH0 DUP3 PUSH1 0x1F DUP4 ADD SLT PUSH2 0x1529 JUMPI PUSH2 0x1528 PUSH2 0x1416 JUMP JUMPDEST JUMPDEST DUP2 CALLDATALOAD PUSH2 0x1539 DUP5 DUP3 PUSH1 0x20 DUP7 ADD PUSH2 0x14D4 JUMP JUMPDEST SWAP2 POP POP SWAP3 SWAP2 POP POP JUMP JUMPDEST PUSH0 PUSH0 PUSH0 PUSH0 PUSH1 0x80 DUP6 DUP8 SUB SLT ISZERO PUSH2 0x155A JUMPI PUSH2 0x1559 PUSH2 0x11DA JUMP JUMPDEST JUMPDEST PUSH0 PUSH2 0x1567 DUP8 DUP3 DUP9 ADD PUSH2 0x12AE JUMP JUMPDEST SWAP5 POP POP PUSH1 0x20 PUSH2 0x1578 DUP8 DUP3 DUP9 ADD PUSH2 0x12AE JUMP JUMPDEST SWAP4 POP POP PUSH1 0x40 PUSH2 0x1589 DUP8 DUP3 DUP9 ADD PUSH2 0x1201 JUMP JUMPDEST SWAP3 POP POP PUSH1 0x60 DUP6 ADD CALLDATALOAD PUSH8 0xFFFFFFFFFFFFFFFF DUP2 GT ISZERO PUSH2 0x15AA JUMPI PUSH2 0x15A9 PUSH2 0x11DE JUMP JUMPDEST JUMPDEST PUSH2 0x15B6 DUP8 DUP3 DUP9 ADD PUSH2 0x1515 JUMP JUMPDEST SWAP2 POP POP SWAP3 SWAP6 SWAP2 SWAP5 POP SWAP3 POP JUMP JUMPDEST PUSH0 PUSH8 0xFFFFFFFFFFFFFFFF DUP3 GT ISZERO PUSH2 0x15DC JUMPI PUSH2 0x15DB PUSH2 0x141E JUMP JUMPDEST JUMPDEST PUSH2 0x15E5 DUP3 PUSH2 0x1169 JUMP JUMPDEST SWAP1 POP PUSH1 0x20 DUP2 ADD SWAP1 POP SWAP2 SWAP1 POP JUMP JUMPDEST PUSH0 PUSH2 0x1604 PUSH2 0x15FF DUP5 PUSH2 0x15C2 JUMP JUMPDEST PUSH2 0x147C JUMP JUMPDEST SWAP1 POP DUP3 DUP2 MSTORE PUSH1 0x20 DUP2 ADD DUP5 DUP5 DUP5 ADD GT ISZERO PUSH2 0x1620 JUMPI PUSH2 0x161F PUSH2 0x141A JUMP JUMPDEST JUMPDEST PUSH2 0x162B DUP5 DUP3 DUP6 PUSH2 0x14C6 JUMP JUMPDEST POP SWAP4 SWAP3 POP POP POP JUMP JUMPDEST PUSH0 DUP3 PUSH1 0x1F DUP4 ADD SLT PUSH2 0x1647 JUMPI PUSH2 0x1646 PUSH2 0x1416 JUMP JUMPDEST JUMPDEST DUP2 CALLDATALOAD PUSH2 0x1657 DUP5 DUP3 PUSH1 0x20 DUP7 ADD PUSH2 0x15F2 JUMP JUMPDEST SWAP2 POP POP SWAP3 SWAP2 POP POP JUMP JUMPDEST PUSH0 PUSH0 PUSH1 0x40 DUP4 DUP6 SUB SLT ISZERO PUSH2 0x1676 JUMPI PUSH2 0x1675 PUSH2 0x11DA JUMP JUMPDEST JUMPDEST PUSH0 PUSH2 0x1683 DUP6 DUP3 DUP7 ADD PUSH2 0x12AE JUMP JUMPDEST SWAP3 POP POP PUSH1 0x20 DUP4 ADD CALLDATALOAD PUSH8 0xFFFFFFFFFFFFFFFF DUP2 GT ISZERO PUSH2 0x16A4 JUMPI PUSH2 0x16A3 PUSH2 0x11DE JUMP JUMPDEST JUMPDEST PUSH2 0x16B0 DUP6 DUP3 DUP7 ADD PUSH2 0x1633 JUMP JUMPDEST SWAP2 POP POP SWAP3 POP SWAP3 SWAP1 POP JUMP JUMPDEST PUSH0 PUSH0 PUSH1 0x40 DUP4 DUP6 SUB SLT ISZERO PUSH2 0x16D0 JUMPI PUSH2 0x16CF PUSH2 0x11DA JUMP JUMPDEST JUMPDEST PUSH0 PUSH2 0x16DD DUP6 DUP3 DUP7 ADD PUSH2 0x12AE JUMP JUMPDEST SWAP3 POP POP PUSH1 0x20 PUSH2 0x16EE DUP6 DUP3 DUP7 ADD PUSH2 0x12AE JUMP JUMPDEST SWAP2 POP POP SWAP3 POP SWAP3 SWAP1 POP JUMP JUMPDEST PUSH2 0x1701 DUP2 PUSH2 0x13A3 JUMP JUMPDEST DUP3 MSTORE POP POP JUMP JUMPDEST PUSH0 PUSH1 0x20 DUP3 ADD SWAP1 POP PUSH2 0x171A PUSH0 DUP4 ADD DUP5 PUSH2 0x16F8 JUMP JUMPDEST SWAP3 SWAP2 POP POP JUMP JUMPDEST PUSH32 0x4E487B7100000000000000000000000000000000000000000000000000000000 PUSH0 MSTORE PUSH1 0x22 PUSH1 0x4 MSTORE PUSH1 0x24 PUSH0 REVERT JUMPDEST PUSH0 PUSH1 0x2 DUP3 DIV SWAP1 POP PUSH1 0x1 DUP3 AND DUP1 PUSH2 0x1764 JUMPI PUSH1 0x7F DUP3 AND SWAP2 POP JUMPDEST PUSH1 0x20 DUP3 LT DUP2 SUB PUSH2 0x1777 JUMPI PUSH2 0x1776 PUSH2 0x1720 JUMP JUMPDEST JUMPDEST POP SWAP2 SWAP1 POP JUMP JUMPDEST PUSH32 0x546F6B656E20646F65736E277420657869737400000000000000000000000000 PUSH0 DUP3 ADD MSTORE POP JUMP JUMPDEST PUSH0 PUSH2 0x17B1 PUSH1 0x13 DUP4 PUSH2 0x114B JUMP JUMPDEST SWAP2 POP PUSH2 0x17BC DUP3 PUSH2 0x177D JUMP JUMPDEST PUSH1 0x20 DUP3 ADD SWAP1 POP SWAP2 SWAP1 POP JUMP JUMPDEST PUSH0 PUSH1 0x20 DUP3 ADD SWAP1 POP DUP2 DUP2 SUB PUSH0 DUP4 ADD MSTORE PUSH2 0x17DE DUP2 PUSH2 0x17A5 JUMP JUMPDEST SWAP1 POP SWAP2 SWAP1 POP JUMP JUMPDEST PUSH32 0x416C7265616479206F776E657200000000000000000000000000000000000000 PUSH0 DUP3 ADD MSTORE POP JUMP JUMPDEST PUSH0 PUSH2 0x1819 PUSH1 0xD DUP4 PUSH2 0x114B JUMP JUMPDEST SWAP2 POP PUSH2 0x1824 DUP3 PUSH2 0x17E5 JUMP JUMPDEST PUSH1 0x20 DUP3 ADD SWAP1 POP SWAP2 SWAP1 POP JUMP JUMPDEST PUSH0 PUSH1 0x20 DUP3 ADD SWAP1 POP DUP2 DUP2 SUB PUSH0 DUP4 ADD MSTORE PUSH2 0x1846 DUP2 PUSH2 0x180D JUMP JUMPDEST SWAP1 POP SWAP2 SWAP1 POP JUMP JUMPDEST PUSH32 0x4E6F7420617574686F72697A6564000000000000000000000000000000000000 PUSH0 DUP3 ADD MSTORE POP JUMP JUMPDEST PUSH0 PUSH2 0x1881 PUSH1 0xE DUP4 PUSH2 0x114B JUMP JUMPDEST SWAP2 POP PUSH2 0x188C DUP3 PUSH2 0x184D JUMP JUMPDEST PUSH1 0x20 DUP3 ADD SWAP1 POP SWAP2 SWAP1 POP JUMP JUMPDEST PUSH0 PUSH1 0x20 DUP3 ADD SWAP1 POP DUP2 DUP2 SUB PUSH0 DUP4 ADD MSTORE PUSH2 0x18AE DUP2 PUSH2 0x1875 JUMP JUMPDEST SWAP1 POP SWAP2 SWAP1 POP JUMP JUMPDEST PUSH32 0x5A65726F20616464726573730000000000000000000000000000000000000000 PUSH0 DUP3 ADD MSTORE POP JUMP JUMPDEST PUSH0 PUSH2 0x18E9 PUSH1 0xC DUP4 PUSH2 0x114B JUMP JUMPDEST SWAP2 POP PUSH2 0x18F4 DUP3 PUSH2 0x18B5 JUMP JUMPDEST PUSH1 0x20 DUP3 ADD SWAP1 POP SWAP2 SWAP1 POP JUMP JUMPDEST PUSH0 PUSH1 0x20 DUP3 ADD SWAP1 POP DUP2 DUP2 SUB PUSH0 DUP4 ADD MSTORE PUSH2 0x1916 DUP2 PUSH2 0x18DD JUMP JUMPDEST SWAP1 POP SWAP2 SWAP1 POP JUMP JUMPDEST PUSH32 0x53656C6620617070726F76616C00000000000000000000000000000000000000 PUSH0 DUP3 ADD MSTORE POP JUMP JUMPDEST PUSH0 PUSH2 0x1951 PUSH1 0xD DUP4 PUSH2 0x114B JUMP JUMPDEST SWAP2 POP PUSH2 0x195C DUP3 PUSH2 0x191D JUMP JUMPDEST PUSH1 0x20 DUP3 ADD SWAP1 POP SWAP2 SWAP1 POP JUMP JUMPDEST PUSH0 PUSH1 0x20 DUP3 ADD SWAP1 POP DUP2 DUP2 SUB PUSH0 DUP4 ADD MSTORE PUSH2 0x197E DUP2 PUSH2 0x1945 JUMP JUMPDEST SWAP1 POP SWAP2 SWAP1 POP JUMP JUMPDEST PUSH32 0x4E487B7100000000000000000000000000000000000000000000000000000000 PUSH0 MSTORE PUSH1 0x11 PUSH1 0x4 MSTORE PUSH1 0x24 PUSH0 REVERT JUMPDEST PUSH0 PUSH2 0x19BC DUP3 PUSH2 0x11E2 JUMP JUMPDEST SWAP2 POP PUSH32 0xFFFFFFFFFFFFFFFFFFFFFFFFFFFFFFFFFFFFFFFFFFFFFFFFFFFFFFFFFFFFFFFF DUP3 SUB PUSH2 0x19EE JUMPI PUSH2 0x19ED PUSH2 0x1985 JUMP JUMPDEST JUMPDEST PUSH1 0x1 DUP3 ADD SWAP1 POP SWAP2 SWAP1 POP JUMP JUMPDEST PUSH0 PUSH2 0x1A03 DUP3 PUSH2 0x11E2 JUMP JUMPDEST SWAP2 POP PUSH2 0x1A0E DUP4 PUSH2 0x11E2 JUMP JUMPDEST SWAP3 POP DUP3 DUP3 ADD SWAP1 POP DUP1 DUP3 GT ISZERO PUSH2 0x1A26 JUMPI PUSH2 0x1A25 PUSH2 0x1985 JUMP JUMPDEST JUMPDEST SWAP3 SWAP2 POP POP JUMP JUMPDEST PUSH0 DUP2 SWAP1 POP DUP2 PUSH0 MSTORE PUSH1 0x20 PUSH0 KECCAK256 SWAP1 POP SWAP2 SWAP1 POP JUMP JUMPDEST PUSH0 PUSH1 0x20 PUSH1 0x1F DUP4 ADD DIV SWAP1 POP SWAP2 SWAP1 POP JUMP JUMPDEST PUSH0 DUP3 DUP3 SHL SWAP1 POP SWAP3 SWAP2 POP POP JUMP JUMPDEST PUSH0 PUSH1 0x8 DUP4 MUL PUSH2 0x1A88 PUSH32 0xFFFFFFFFFFFFFFFFFFFFFFFFFFFFFFFFFFFFFFFFFFFFFFFFFFFFFFFFFFFFFFFF DUP3 PUSH2 0x1A4D JUMP JUMPDEST PUSH2 0x1A92 DUP7 DUP4 PUSH2 0x1A4D JUMP JUMPDEST SWAP6 POP DUP1 NOT DUP5 AND SWAP4 POP DUP1 DUP7 AND DUP5 OR SWAP3 POP POP POP SWAP4 SWAP3 POP POP POP JUMP JUMPDEST PUSH0 DUP2 SWAP1 POP SWAP2 SWAP1 POP JUMP JUMPDEST PUSH0 PUSH2 0x1ACD PUSH2 0x1AC8 PUSH2 0x1AC3 DUP5 PUSH2 0x11E2 JUMP JUMPDEST PUSH2 0x1AAA JUMP JUMPDEST PUSH2 0x11E2 JUMP JUMPDEST SWAP1 POP SWAP2 SWAP1 POP JUMP JUMPDEST PUSH0 DUP2 SWAP1 POP SWAP2 SWAP1 POP JUMP JUMPDEST PUSH2 0x1AE6 DUP4 PUSH2 0x1AB3 JUMP JUMPDEST PUSH2 0x1AFA PUSH2 0x1AF2 DUP3 PUSH2 0x1AD4 JUMP JUMPDEST DUP5 DUP5 SLOAD PUSH2 0x1A59 JUMP JUMPDEST DUP3 SSTORE POP POP POP POP JUMP JUMPDEST PUSH0 PUSH0 SWAP1 POP SWAP1 JUMP JUMPDEST PUSH2 0x1B11 PUSH2 0x1B02 JUMP JUMPDEST PUSH2 0x1B1C DUP2 DUP5 DUP5 PUSH2 0x1ADD JUMP JUMPDEST POP POP POP JUMP JUMPDEST JUMPDEST DUP2 DUP2 LT ISZERO PUSH2 0x1B3F JUMPI PUSH2 0x1B34 PUSH0 DUP3 PUSH2 0x1B09 JUMP JUMPDEST PUSH1 0x1 DUP2 ADD SWAP1 POP PUSH2 0x1B22 JUMP JUMPDEST POP POP JUMP JUMPDEST PUSH1 0x1F DUP3 GT ISZERO PUSH2 0x1B84 JUMPI PUSH2 0x1B55 DUP2 PUSH2 0x1A2C JUMP JUMPDEST PUSH2 0x1B5E DUP5 PUSH2 0x1A3E JUMP JUMPDEST DUP2 ADD PUSH1 0x20 DUP6 LT ISZERO PUSH2 0x1B6D JUMPI DUP2 SWAP1 POP JUMPDEST PUSH2 0x1B81 PUSH2 0x1B79 DUP6 PUSH2 0x1A3E JUMP JUMPDEST DUP4 ADD DUP3 PUSH2 0x1B21 JUMP JUMPDEST POP POP JUMPDEST POP POP POP JUMP JUMPDEST PUSH0 DUP3 DUP3 SHR SWAP1 POP SWAP3 SWAP2 POP POP JUMP JUMPDEST PUSH0 PUSH2 0x1BA4 PUSH0 NOT DUP5 PUSH1 0x8 MUL PUSH2 0x1B89 JUMP JUMPDEST NOT DUP1 DUP4 AND SWAP2 POP POP SWAP3 SWAP2 POP POP JUMP JUMPDEST PUSH0 PUSH2 0x1BBC DUP4 DUP4 PUSH2 0x1B95 JUMP JUMPDEST SWAP2 POP DUP3 PUSH1 0x2 MUL DUP3 OR SWAP1 POP SWAP3 SWAP2 POP POP JUMP JUMPDEST PUSH2 0x1BD5 DUP3 PUSH2 0x1141 JUMP JUMPDEST PUSH8 0xFFFFFFFFFFFFFFFF DUP2 GT ISZERO PUSH2 0x1BEE JUMPI PUSH2 0x1BED PUSH2 0x141E JUMP JUMPDEST JUMPDEST PUSH2 0x1BF8 DUP3 SLOAD PUSH2 0x174D JUMP JUMPDEST PUSH2 0x1C03 DUP3 DUP3 DUP6 PUSH2 0x1B43 JUMP JUMPDEST PUSH0 PUSH1 0x20 SWAP1 POP PUSH1 0x1F DUP4 GT PUSH1 0x1 DUP2 EQ PUSH2 0x1C34 JUMPI PUSH0 DUP5 ISZERO PUSH2 0x1C22 JUMPI DUP3 DUP8 ADD MLOAD SWAP1 POP JUMPDEST PUSH2 0x1C2C DUP6 DUP3 PUSH2 0x1BB1 JUMP JUMPDEST DUP7 SSTORE POP PUSH2 0x1C93 JUMP JUMPDEST PUSH1 0x1F NOT DUP5 AND PUSH2 0x1C42 DUP7 PUSH2 0x1A2C JUMP JUMPDEST PUSH0 JUMPDEST DUP3 DUP2 LT ISZERO PUSH2 0x1C69 JUMPI DUP5 DUP10 ADD MLOAD DUP3 SSTORE PUSH1 0x1 DUP3 ADD SWAP2 POP PUSH1 0x20 DUP6 ADD SWAP5 POP PUSH1 0x20 DUP2 ADD SWAP1 POP PUSH2 0x1C44 JUMP JUMPDEST DUP7 DUP4 LT ISZERO PUSH2 0x1C86 JUMPI DUP5 DUP10 ADD MLOAD PUSH2 0x1C82 PUSH1 0x1F DUP10 AND DUP3 PUSH2 0x1B95 JUMP JUMPDEST DUP4 SSTORE POP JUMPDEST PUSH1 0x1 PUSH1 0x2 DUP9 MUL ADD DUP9 SSTORE POP POP POP JUMPDEST POP POP POP POP POP POP JUMP JUMPDEST PUSH32 0x4E6F74206F776E65720000000000000000000000000000000000000000000000 PUSH0 DUP3 ADD MSTORE POP JUMP JUMPDEST PUSH0 PUSH2 0x1CCF PUSH1 0x9 DUP4 PUSH2 0x114B JUMP JUMPDEST SWAP2 POP PUSH2 0x1CDA DUP3 PUSH2 0x1C9B JUMP JUMPDEST PUSH1 0x20 DUP3 ADD SWAP1 POP SWAP2 SWAP1 POP JUMP JUMPDEST PUSH0 PUSH1 0x20 DUP3 ADD SWAP1 POP DUP2 DUP2 SUB PUSH0 DUP4 ADD MSTORE PUSH2 0x1CFC DUP2 PUSH2 0x1CC3 JUMP JUMPDEST SWAP1 POP SWAP2 SWAP1 POP JUMP JUMPDEST PUSH0 PUSH2 0x1D0D DUP3 PUSH2 0x11E2 JUMP JUMPDEST SWAP2 POP PUSH2 0x1D18 DUP4 PUSH2 0x11E2 JUMP JUMPDEST SWAP3 POP DUP3 DUP3 SUB SWAP1 POP DUP2 DUP2 GT ISZERO PUSH2 0x1D30 JUMPI PUSH2 0x1D2F PUSH2 0x1985 JUMP JUMPDEST JUMPDEST SWAP3 SWAP2 POP POP JUMP JUMPDEST PUSH32 0x4E6F742045524337323152656365697665720000000000000000000000000000 PUSH0 DUP3 ADD MSTORE POP JUMP JUMPDEST PUSH0 PUSH2 0x1D6A PUSH1 0x12 DUP4 PUSH2 0x114B JUMP JUMPDEST SWAP2 POP PUSH2 0x1D75 DUP3 PUSH2 0x1D36 JUMP JUMPDEST PUSH1 0x20 DUP3 ADD SWAP1 POP SWAP2 SWAP1 POP JUMP JUMPDEST PUSH0 PUSH1 0x20 DUP3 ADD SWAP1 POP DUP2 DUP2 SUB PUSH0 DUP4 ADD MSTORE PUSH2 0x1D97 DUP2 PUSH2 0x1D5E JUMP JUMPDEST SWAP1 POP SWAP2 SWAP1 POP JUMP JUMPDEST PUSH0 DUP2 MLOAD SWAP1 POP SWAP2 SWAP1 POP JUMP JUMPDEST PUSH0 DUP3 DUP3 MSTORE PUSH1 0x20 DUP3 ADD SWAP1 POP SWAP3 SWAP2 POP POP JUMP JUMPDEST PUSH0 PUSH2 0x1DC2 DUP3 PUSH2 0x1D9E JUMP JUMPDEST PUSH2 0x1DCC DUP2 DUP6 PUSH2 0x1DA8 JUMP JUMPDEST SWAP4 POP PUSH2 0x1DDC DUP2 DUP6 PUSH1 0x20 DUP7 ADD PUSH2 0x115B JUMP JUMPDEST PUSH2 0x1DE5 DUP2 PUSH2 0x1169 JUMP JUMPDEST DUP5 ADD SWAP2 POP POP SWAP3 SWAP2 POP POP JUMP JUMPDEST PUSH0 PUSH1 0x80 DUP3 ADD SWAP1 POP PUSH2 0x1E03 PUSH0 DUP4 ADD DUP8 PUSH2 0x1270 JUMP JUMPDEST PUSH2 0x1E10 PUSH1 0x20 DUP4 ADD DUP7 PUSH2 0x1270 JUMP JUMPDEST PUSH2 0x1E1D PUSH1 0x40 DUP4 ADD DUP6 PUSH2 0x137B JUMP JUMPDEST DUP2 DUP2 SUB PUSH1 0x60 DUP4 ADD MSTORE PUSH2 0x1E2F DUP2 DUP5 PUSH2 0x1DB8 JUMP JUMPDEST SWAP1 POP SWAP6 SWAP5 POP POP POP POP POP JUMP JUMPDEST PUSH0 PUSH32 0xFFFFFFFF00000000000000000000000000000000000000000000000000000000 DUP3 AND SWAP1 POP SWAP2 SWAP1 POP JUMP JUMPDEST PUSH2 0x1E6E DUP2 PUSH2 0x1E3A JUMP JUMPDEST DUP2 EQ PUSH2 0x1E78 JUMPI PUSH0 PUSH0 REVERT JUMPDEST POP JUMP JUMPDEST PUSH0 DUP2 MLOAD SWAP1 POP PUSH2 0x1E89 DUP2 PUSH2 0x1E65 JUMP JUMPDEST SWAP3 SWAP2 POP POP JUMP JUMPDEST PUSH0 PUSH1 0x20 DUP3 DUP5 SUB SLT ISZERO PUSH2 0x1EA4 JUMPI PUSH2 0x1EA3 PUSH2 0x11DA JUMP JUMPDEST JUMPDEST PUSH0 PUSH2 0x1EB1 DUP5 DUP3 DUP6 ADD PUSH2 0x1E7B JUMP JUMPDEST SWAP2 POP POP SWAP3 SWAP2 POP POP JUMP INVALID LOG2 PUSH5 0x6970667358 0x22 SLT KECCAK256 0xBB 0xD7 PUSH23 0xCAC593C27EE0BCF89F59F64FB63159A1517DFD8100B774 0x21 DUP8 DUP3 PUSH13 0xEAF764736F6C634300081E0033 "
				},
				"gasEstimates": {
					"creation": {
						"codeDepositCost": "1584000",
						"executionCost": "infinite",
						"totalCost": "infinite"
					},
					"external": {
						"approve(address,uint256)": "31688",
						"balanceOf(address)": "2886",
						"getApproved(uint256)": "5120",
						"isApprovedForAll(address,address)": "infinite",
						"mint(address,string)": "infinite",
						"name()": "infinite",
						"ownerOf(uint256)": "3051",
						"safeTransferFrom(address,address,uint256)": "infinite",
						"safeTransferFrom(address,address,uint256,bytes)": "infinite",
						"setApprovalForAll(address,bool)": "infinite",
						"symbol()": "infinite",
						"tokenURI(uint256)": "infinite",
						"transferFrom(address,address,uint256)": "infinite"
					},
					"internal": {
						"_checkOnERC721Received(address,address,uint256,bytes memory)": "infinite",
						"_isApprovedOrOwner(address,uint256)": "infinite",
						"_safeTransfer(address,address,uint256,bytes memory)": "infinite",
						"_transfer(address,address,uint256)": "infinite"
					}
				},
				"methodIdentifiers": {
					"approve(address,uint256)": "095ea7b3",
					"balanceOf(address)": "70a08231",
					"getApproved(uint256)": "081812fc",
					"isApprovedForAll(address,address)": "e985e9c5",
					"mint(address,string)": "d0def521",
					"name()": "06fdde03",
					"ownerOf(uint256)": "6352211e",
					"safeTransferFrom(address,address,uint256)": "42842e0e",
					"safeTransferFrom(address,address,uint256,bytes)": "b88d4fde",
					"setApprovalForAll(address,bool)": "a22cb465",
					"symbol()": "95d89b41",
					"tokenURI(uint256)": "c87b56dd",
					"transferFrom(address,address,uint256)": "23b872dd"
				}
			},
			"storageLayout": {
				"storage": [
					{
						"astId": 117,
						"contract": "submissions/SimpleNFT.sol:SimpleNFT",
						"label": "name",
						"offset": 0,
						"slot": "0",
						"type": "t_string_storage"
					},
					{
						"astId": 119,
						"contract": "submissions/SimpleNFT.sol:SimpleNFT",
						"label": "symbol",
						"offset": 0,
						"slot": "1",
						"type": "t_string_storage"
					},
					{
						"astId": 122,
						"contract": "submissions/SimpleNFT.sol:SimpleNFT",
						"label": "_tokenIdCounter",
						"offset": 0,
						"slot": "2",
						"type": "t_uint256"
					},
					{
						"astId": 126,
						"contract": "submissions/SimpleNFT.sol:SimpleNFT",
						"label": "_owners",
						"offset": 0,
						"slot": "3",
						"type": "t_mapping(t_uint256,t_address)"
					},
					{
						"astId": 130,
						"contract": "submissions/SimpleNFT.sol:SimpleNFT",
						"label": "_balances",
						"offset": 0,
						"slot": "4",
						"type": "t_mapping(t_address,t_uint256)"
					},
					{
						"astId": 134,
						"contract": "submissions/SimpleNFT.sol:SimpleNFT",
						"label": "_tokenApprovals",
						"offset": 0,
						"slot": "5",
						"type": "t_mapping(t_uint256,t_address)"
					},
					{
						"astId": 140,
						"contract": "submissions/SimpleNFT.sol:SimpleNFT",
						"label": "_operatorApprovals",
						"offset": 0,
						"slot": "6",
						"type": "t_mapping(t_address,t_mapping(t_address,t_bool))"
					},
					{
						"astId": 144,
						"contract": "submissions/SimpleNFT.sol:SimpleNFT",
						"label": "_tokenURIs",
						"offset": 0,
						"slot": "7",
						"type": "t_mapping(t_uint256,t_string_storage)"
					}
				],
				"types": {
					"t_address": {
						"encoding": "inplace",
						"label": "address",
						"numberOfBytes": "20"
					},
					"t_bool": {
						"encoding": "inplace",
						"label": "bool",
						"numberOfBytes": "1"
					},
					"t_mapping(t_address,t_bool)": {
						"encoding": "mapping",
						"key": "t_address",
						"label": "mapping(address => bool)",
						"numberOfBytes": "32",
						"value": "t_bool"
					},
					"t_mapping(t_address,t_mapping(t_address,t_bool))": {
						"encoding": "mapping",
						"key": "t_address",
						"label": "mapping(address => mapping(address => bool))",
						"numberOfBytes": "32",
						"value": "t_mapping(t_address,t_bool)"
					},
					"t_mapping(t_address,t_uint256)": {
						"encoding": "mapping",
						"key": "t_address",
						"label": "mapping(address => uint256)",
						"numberOfBytes": "32",
						"value": "t_uint256"
					},
					"t_mapping(t_uint256,t_address)": {
						"encoding": "mapping",
						"key": "t_uint256",
						"label": "mapping(uint256 => address)",
						"numberOfBytes": "32",
						"value": "t_address"
					},
					"t_mapping(t_uint256,t_string_storage)": {
						"encoding": "mapping",
						"key": "t_uint256",
						"label": "mapping(uint256 => string)",
						"numberOfBytes": "32",
						"value": "t_string_storage"
					},
					"t_string_storage": {
						"encoding": "bytes",
						"label": "string",
						"numberOfBytes": "32"
					},
					"t_uint256": {
						"encoding": "inplace",
						"label": "uint256",
						"numberOfBytes": "32"
					}
				}
			},
			"userdoc": {
				"kind": "user",
				"methods": {},
				"version": 1
			}
		}
	}
}