{
	"submissions/Zora/Day6EtherPiggyBank.sol": {
		"EtherPiggyBank": {
			"abi": [
				{
					"inputs": [],
					"stateMutability": "nonpayable",
					"type": "constructor"
				},
				{
					"inputs": [
						{
							"internalType": "address",
							"name": "",
							"type": "address"
						}
					],
					"name": "balance",
					"outputs": [
						{
							"internalType": "uint256",
							"name": "",
							"type": "uint256"
						}
					],
					"stateMutability": "view",
					"type": "function"
				},
				{
					"inputs": [],
					"name": "bankManager",
					"outputs": [
						{
							"internalType": "address",
							"name": "",
							"type": "address"
						}
					],
					"stateMutability": "view",
					"type": "function"
				},
				{
					"inputs": [],
					"name": "depositAmountEther",
					"outputs": [],
					"stateMutability": "payable",
					"type": "function"
				},
				{
					"inputs": [
						{
							"internalType": "address",
							"name": "_member",
							"type": "address"
						}
					],
					"name": "getBalance",
					"outputs": [
						{
							"internalType": "uint256",
							"name": "",
							"type": "uint256"
						}
					],
					"stateMutability": "view",
					"type": "function"
				},
				{
					"inputs": [],
					"name": "getMembers",
					"outputs": [
						{
							"internalType": "address[]",
							"name": "",
							"type": "address[]"
						}
					],
					"stateMutability": "view",
					"type": "function"
				},
				{
					"inputs": [
						{
							"internalType": "address",
							"name": "",
							"type": "address"
						}
					],
					"name": "registeredMembers",
					"outputs": [
						{
							"internalType": "bool",
							"name": "",
							"type": "bool"
						}
					],
					"stateMutability": "view",
					"type": "function"
				},
				{
					"inputs": [
						{
							"internalType": "uint256",
							"name": "_amount",
							"type": "uint256"
						}
					],
					"name": "withdrawAmount",
					"outputs": [],
					"stateMutability": "nonpayable",
					"type": "function"
				}
			],
			"devdoc": {
				"kind": "dev",
				"methods": {},
				"version": 1
			},
			"evm": {
				"assembly": "    /* \"submissions/Zora/Day6EtherPiggyBank.sol\":60:1369  contract EtherPiggyBank{... */\n  mstore(0x40, 0x80)\n    /* \"submissions/Zora/Day6EtherPiggyBank.sol\":254:345  constructor(){... */\n  callvalue\n  dup1\n  iszero\n  tag_1\n  jumpi\n  revert(0x00, 0x00)\ntag_1:\n  pop\n    /* \"submissions/Zora/Day6EtherPiggyBank.sol\":292:302  msg.sender */\n  caller\n    /* \"submissions/Zora/Day6EtherPiggyBank.sol\":278:289  bankManager */\n  0x00\n  0x00\n    /* \"submissions/Zora/Day6EtherPiggyBank.sol\":278:302  bankManager = msg.sender */\n  0x0100\n  exp\n  dup2\n  sload\n  dup2\n  0xffffffffffffffffffffffffffffffffffffffff\n  mul\n  not\n  and\n  swap1\n  dup4\n  0xffffffffffffffffffffffffffffffffffffffff\n  and\n  mul\n  or\n  swap1\n  sstore\n  pop\n    /* \"submissions/Zora/Day6EtherPiggyBank.sol\":313:320  members */\n  0x01\n    /* \"submissions/Zora/Day6EtherPiggyBank.sol\":326:336  msg.sender */\n  caller\n    /* \"submissions/Zora/Day6EtherPiggyBank.sol\":313:337  members.push(msg.sender) */\n  swap1\n  dup1\n  0x01\n  dup2\n  sload\n  add\n  dup1\n  dup3\n  sstore\n  dup1\n  swap2\n  pop\n  pop\n  0x01\n  swap1\n  sub\n  swap1\n  0x00\n  mstore\n  keccak256(0x00, 0x20)\n  add\n  0x00\n  swap1\n  swap2\n  swap1\n  swap2\n  swap1\n  swap2\n  0x0100\n  exp\n  dup2\n  sload\n  dup2\n  0xffffffffffffffffffffffffffffffffffffffff\n  mul\n  not\n  and\n  swap1\n  dup4\n  0xffffffffffffffffffffffffffffffffffffffff\n  and\n  mul\n  or\n  swap1\n  sstore\n  pop\n    /* \"submissions/Zora/Day6EtherPiggyBank.sol\":60:1369  contract EtherPiggyBank{... */\n  dataSize(sub_0)\n  dup1\n  dataOffset(sub_0)\n  0x00\n  codecopy\n  0x00\n  return\nstop\n\nsub_0: assembly {\n        /* \"submissions/Zora/Day6EtherPiggyBank.sol\":60:1369  contract EtherPiggyBank{... */\n      mstore(0x40, 0x80)\n      jumpi(tag_1, lt(calldatasize, 0x04))\n      shr(0xe0, calldataload(0x00))\n      dup1\n      0xc379c3e8\n      gt\n      tag_9\n      jumpi\n      dup1\n      0xc379c3e8\n      eq\n      tag_5\n      jumpi\n      dup1\n      0xe3d670d7\n      eq\n      tag_6\n      jumpi\n      dup1\n      0xe9e2990e\n      eq\n      tag_7\n      jumpi\n      dup1\n      0xf8b2cb4f\n      eq\n      tag_8\n      jumpi\n      jump(tag_1)\n    tag_9:\n      dup1\n      0x0562b9f7\n      eq\n      tag_2\n      jumpi\n      dup1\n      0x7254647a\n      eq\n      tag_3\n      jumpi\n      dup1\n      0x9eab5253\n      eq\n      tag_4\n      jumpi\n    tag_1:\n      revert(0x00, 0x00)\n        /* \"submissions/Zora/Day6EtherPiggyBank.sol\":926:1189  function withdrawAmount(uint256 _amount) public onlyRegisteredMember{... */\n    tag_2:\n      callvalue\n      dup1\n      iszero\n      tag_10\n      jumpi\n      revert(0x00, 0x00)\n    tag_10:\n      pop\n      tag_11\n      0x04\n      dup1\n      calldatasize\n      sub\n      dup2\n      add\n      swap1\n      tag_12\n      swap2\n      swap1\n      tag_13\n      jump\t// in\n    tag_12:\n      tag_14\n      jump\t// in\n    tag_11:\n      stop\n        /* \"submissions/Zora/Day6EtherPiggyBank.sol\":147:196  mapping(address => bool) public registeredMembers */\n    tag_3:\n      callvalue\n      dup1\n      iszero\n      tag_15\n      jumpi\n      revert(0x00, 0x00)\n    tag_15:\n      pop\n      tag_16\n      0x04\n      dup1\n      calldatasize\n      sub\n      dup2\n      add\n      swap1\n      tag_17\n      swap2\n      swap1\n      tag_18\n      jump\t// in\n    tag_17:\n      tag_19\n      jump\t// in\n    tag_16:\n      mload(0x40)\n      tag_20\n      swap2\n      swap1\n      tag_21\n      jump\t// in\n    tag_20:\n      mload(0x40)\n      dup1\n      swap2\n      sub\n      swap1\n      return\n        /* \"submissions/Zora/Day6EtherPiggyBank.sol\":630:722  function getMembers() public view returns(address[] memory){... */\n    tag_4:\n      callvalue\n      dup1\n      iszero\n      tag_22\n      jumpi\n      revert(0x00, 0x00)\n    tag_22:\n      pop\n      tag_23\n      tag_24\n      jump\t// in\n    tag_23:\n      mload(0x40)\n      tag_25\n      swap2\n      swap1\n      tag_26\n      jump\t// in\n    tag_25:\n      mload(0x40)\n      dup1\n      swap2\n      sub\n      swap1\n      return\n        /* \"submissions/Zora/Day6EtherPiggyBank.sol\":730:918  function depositAmountEther() public payable onlyRegisteredMember{... */\n    tag_5:\n      tag_27\n      tag_28\n      jump\t// in\n    tag_27:\n      stop\n        /* \"submissions/Zora/Day6EtherPiggyBank.sol\":203:245  mapping(address => uint256) public balance */\n    tag_6:\n      callvalue\n      dup1\n      iszero\n      tag_29\n      jumpi\n      revert(0x00, 0x00)\n    tag_29:\n      pop\n      tag_30\n      0x04\n      dup1\n      calldatasize\n      sub\n      dup2\n      add\n      swap1\n      tag_31\n      swap2\n      swap1\n      tag_18\n      jump\t// in\n    tag_31:\n      tag_32\n      jump\t// in\n    tag_30:\n      mload(0x40)\n      tag_33\n      swap2\n      swap1\n      tag_34\n      jump\t// in\n    tag_33:\n      mload(0x40)\n      dup1\n      swap2\n      sub\n      swap1\n      return\n        /* \"submissions/Zora/Day6EtherPiggyBank.sol\":90:116  address public bankManager */\n    tag_7:\n      callvalue\n      dup1\n      iszero\n      tag_35\n      jumpi\n      revert(0x00, 0x00)\n    tag_35:\n      pop\n      tag_36\n      tag_37\n      jump\t// in\n    tag_36:\n      mload(0x40)\n      tag_38\n      swap2\n      swap1\n      tag_39\n      jump\t// in\n    tag_38:\n      mload(0x40)\n      dup1\n      swap2\n      sub\n      swap1\n      return\n        /* \"submissions/Zora/Day6EtherPiggyBank.sol\":1197:1364  function getBalance(address _member) public view returns(uint256){... */\n    tag_8:\n      callvalue\n      dup1\n      iszero\n      tag_40\n      jumpi\n      revert(0x00, 0x00)\n    tag_40:\n      pop\n      tag_41\n      0x04\n      dup1\n      calldatasize\n      sub\n      dup2\n      add\n      swap1\n      tag_42\n      swap2\n      swap1\n      tag_18\n      jump\t// in\n    tag_42:\n      tag_43\n      jump\t// in\n    tag_41:\n      mload(0x40)\n      tag_44\n      swap2\n      swap1\n      tag_34\n      jump\t// in\n    tag_44:\n      mload(0x40)\n      dup1\n      swap2\n      sub\n      swap1\n      return\n        /* \"submissions/Zora/Day6EtherPiggyBank.sol\":926:1189  function withdrawAmount(uint256 _amount) public onlyRegisteredMember{... */\n    tag_14:\n        /* \"submissions/Zora/Day6EtherPiggyBank.sol\":547:564  registeredMembers */\n      0x02\n        /* \"submissions/Zora/Day6EtherPiggyBank.sol\":547:576  registeredMembers[msg.sender] */\n      0x00\n        /* \"submissions/Zora/Day6EtherPiggyBank.sol\":565:575  msg.sender */\n      caller\n        /* \"submissions/Zora/Day6EtherPiggyBank.sol\":547:576  registeredMembers[msg.sender] */\n      0xffffffffffffffffffffffffffffffffffffffff\n      and\n      0xffffffffffffffffffffffffffffffffffffffff\n      and\n      dup2\n      mstore\n      0x20\n      add\n      swap1\n      dup2\n      mstore\n      0x20\n      add\n      0x00\n      keccak256\n      0x00\n      swap1\n      sload\n      swap1\n      0x0100\n      exp\n      swap1\n      div\n      0xff\n      and\n        /* \"submissions/Zora/Day6EtherPiggyBank.sol\":539:602  require(registeredMembers[msg.sender], \"Member not registered\") */\n      tag_46\n      jumpi\n      mload(0x40)\n      0x08c379a000000000000000000000000000000000000000000000000000000000\n      dup2\n      mstore\n      0x04\n      add\n      tag_47\n      swap1\n      tag_48\n      jump\t// in\n    tag_47:\n      mload(0x40)\n      dup1\n      swap2\n      sub\n      swap1\n      revert\n    tag_46:\n        /* \"submissions/Zora/Day6EtherPiggyBank.sol\":1023:1024  0 */\n      0x00\n        /* \"submissions/Zora/Day6EtherPiggyBank.sol\":1013:1020  _amount */\n      dup2\n        /* \"submissions/Zora/Day6EtherPiggyBank.sol\":1013:1024  _amount > 0 */\n      gt\n        /* \"submissions/Zora/Day6EtherPiggyBank.sol\":1005:1043  require(_amount > 0, \"Invalid amount\") */\n      tag_50\n      jumpi\n      mload(0x40)\n      0x08c379a000000000000000000000000000000000000000000000000000000000\n      dup2\n      mstore\n      0x04\n      add\n      tag_51\n      swap1\n      tag_52\n      jump\t// in\n    tag_51:\n      mload(0x40)\n      dup1\n      swap2\n      sub\n      swap1\n      revert\n    tag_50:\n        /* \"submissions/Zora/Day6EtherPiggyBank.sol\":1085:1092  _amount */\n      dup1\n        /* \"submissions/Zora/Day6EtherPiggyBank.sol\":1062:1069  balance */\n      0x03\n        /* \"submissions/Zora/Day6EtherPiggyBank.sol\":1062:1081  balance[msg.sender] */\n      0x00\n        /* \"submissions/Zora/Day6EtherPiggyBank.sol\":1070:1080  msg.sender */\n      caller\n        /* \"submissions/Zora/Day6EtherPiggyBank.sol\":1062:1081  balance[msg.sender] */\n      0xffffffffffffffffffffffffffffffffffffffff\n      and\n      0xffffffffffffffffffffffffffffffffffffffff\n      and\n      dup2\n      mstore\n      0x20\n      add\n      swap1\n      dup2\n      mstore\n      0x20\n      add\n      0x00\n      keccak256\n      sload\n        /* \"submissions/Zora/Day6EtherPiggyBank.sol\":1062:1092  balance[msg.sender] >= _amount */\n      lt\n      iszero\n        /* \"submissions/Zora/Day6EtherPiggyBank.sol\":1054:1117  require(balance[msg.sender] >= _amount, \"Insufficient balance\") */\n      tag_53\n      jumpi\n      mload(0x40)\n      0x08c379a000000000000000000000000000000000000000000000000000000000\n      dup2\n      mstore\n      0x04\n      add\n      tag_54\n      swap1\n      tag_55\n      jump\t// in\n    tag_54:\n      mload(0x40)\n      dup1\n      swap2\n      sub\n      swap1\n      revert\n    tag_53:\n        /* \"submissions/Zora/Day6EtherPiggyBank.sol\":1172:1179  _amount */\n      dup1\n        /* \"submissions/Zora/Day6EtherPiggyBank.sol\":1150:1157  balance */\n      0x03\n        /* \"submissions/Zora/Day6EtherPiggyBank.sol\":1150:1169  balance[msg.sender] */\n      0x00\n        /* \"submissions/Zora/Day6EtherPiggyBank.sol\":1158:1168  msg.sender */\n      caller\n        /* \"submissions/Zora/Day6EtherPiggyBank.sol\":1150:1169  balance[msg.sender] */\n      0xffffffffffffffffffffffffffffffffffffffff\n      and\n      0xffffffffffffffffffffffffffffffffffffffff\n      and\n      dup2\n      mstore\n      0x20\n      add\n      swap1\n      dup2\n      mstore\n      0x20\n      add\n      0x00\n      keccak256\n      sload\n        /* \"submissions/Zora/Day6EtherPiggyBank.sol\":1150:1179  balance[msg.sender] - _amount */\n      tag_56\n      swap2\n      swap1\n      tag_57\n      jump\t// in\n    tag_56:\n        /* \"submissions/Zora/Day6EtherPiggyBank.sol\":1128:1135  balance */\n      0x03\n        /* \"submissions/Zora/Day6EtherPiggyBank.sol\":1128:1147  balance[msg.sender] */\n      0x00\n        /* \"submissions/Zora/Day6EtherPiggyBank.sol\":1136:1146  msg.sender */\n      caller\n        /* \"submissions/Zora/Day6EtherPiggyBank.sol\":1128:1147  balance[msg.sender] */\n      0xffffffffffffffffffffffffffffffffffffffff\n      and\n      0xffffffffffffffffffffffffffffffffffffffff\n      and\n      dup2\n      mstore\n      0x20\n      add\n      swap1\n      dup2\n      mstore\n      0x20\n      add\n      0x00\n      keccak256\n        /* \"submissions/Zora/Day6EtherPiggyBank.sol\":1128:1179  balance[msg.sender] = balance[msg.sender] - _amount */\n      dup2\n      swap1\n      sstore\n      pop\n        /* \"submissions/Zora/Day6EtherPiggyBank.sol\":926:1189  function withdrawAmount(uint256 _amount) public onlyRegisteredMember{... */\n      pop\n      jump\t// out\n        /* \"submissions/Zora/Day6EtherPiggyBank.sol\":147:196  mapping(address => bool) public registeredMembers */\n    tag_19:\n      mstore(0x20, 0x02)\n      dup1\n      0x00\n      mstore\n      keccak256(0x00, 0x40)\n      0x00\n      swap2\n      pop\n      sload\n      swap1\n      0x0100\n      exp\n      swap1\n      div\n      0xff\n      and\n      dup2\n      jump\t// out\n        /* \"submissions/Zora/Day6EtherPiggyBank.sol\":630:722  function getMembers() public view returns(address[] memory){... */\n    tag_24:\n        /* \"submissions/Zora/Day6EtherPiggyBank.sol\":672:688  address[] memory */\n      0x60\n        /* \"submissions/Zora/Day6EtherPiggyBank.sol\":707:714  members */\n      0x01\n        /* \"submissions/Zora/Day6EtherPiggyBank.sol\":700:714  return members */\n      dup1\n      sload\n      dup1\n      0x20\n      mul\n      0x20\n      add\n      mload(0x40)\n      swap1\n      dup2\n      add\n      0x40\n      mstore\n      dup1\n      swap3\n      swap2\n      swap1\n      dup2\n      dup2\n      mstore\n      0x20\n      add\n      dup3\n      dup1\n      sload\n      dup1\n      iszero\n      tag_59\n      jumpi\n      0x20\n      mul\n      dup3\n      add\n      swap2\n      swap1\n      0x00\n      mstore\n      keccak256(0x00, 0x20)\n      swap1\n    tag_60:\n      dup2\n      0x00\n      swap1\n      sload\n      swap1\n      0x0100\n      exp\n      swap1\n      div\n      0xffffffffffffffffffffffffffffffffffffffff\n      and\n      0xffffffffffffffffffffffffffffffffffffffff\n      and\n      dup2\n      mstore\n      0x20\n      add\n      swap1\n      0x01\n      add\n      swap1\n      dup1\n      dup4\n      gt\n      tag_60\n      jumpi\n    tag_59:\n      pop\n      pop\n      pop\n      pop\n      pop\n      swap1\n      pop\n        /* \"submissions/Zora/Day6EtherPiggyBank.sol\":630:722  function getMembers() public view returns(address[] memory){... */\n      swap1\n      jump\t// out\n        /* \"submissions/Zora/Day6EtherPiggyBank.sol\":730:918  function depositAmountEther() public payable onlyRegisteredMember{... */\n    tag_28:\n        /* \"submissions/Zora/Day6EtherPiggyBank.sol\":547:564  registeredMembers */\n      0x02\n        /* \"submissions/Zora/Day6EtherPiggyBank.sol\":547:576  registeredMembers[msg.sender] */\n      0x00\n        /* \"submissions/Zora/Day6EtherPiggyBank.sol\":565:575  msg.sender */\n      caller\n        /* \"submissions/Zora/Day6EtherPiggyBank.sol\":547:576  registeredMembers[msg.sender] */\n      0xffffffffffffffffffffffffffffffffffffffff\n      and\n      0xffffffffffffffffffffffffffffffffffffffff\n      and\n      dup2\n      mstore\n      0x20\n      add\n      swap1\n      dup2\n      mstore\n      0x20\n      add\n      0x00\n      keccak256\n      0x00\n      swap1\n      sload\n      swap1\n      0x0100\n      exp\n      swap1\n      div\n      0xff\n      and\n        /* \"submissions/Zora/Day6EtherPiggyBank.sol\":539:602  require(registeredMembers[msg.sender], \"Member not registered\") */\n      tag_62\n      jumpi\n      mload(0x40)\n      0x08c379a000000000000000000000000000000000000000000000000000000000\n      dup2\n      mstore\n      0x04\n      add\n      tag_63\n      swap1\n      tag_48\n      jump\t// in\n    tag_63:\n      mload(0x40)\n      dup1\n      swap2\n      sub\n      swap1\n      revert\n    tag_62:\n        /* \"submissions/Zora/Day6EtherPiggyBank.sol\":826:827  0 */\n      0x00\n        /* \"submissions/Zora/Day6EtherPiggyBank.sol\":814:823  msg.value */\n      callvalue\n        /* \"submissions/Zora/Day6EtherPiggyBank.sol\":814:827  msg.value > 0 */\n      gt\n        /* \"submissions/Zora/Day6EtherPiggyBank.sol\":806:846  require(msg.value > 0, \"Invalid amount\") */\n      tag_65\n      jumpi\n      mload(0x40)\n      0x08c379a000000000000000000000000000000000000000000000000000000000\n      dup2\n      mstore\n      0x04\n      add\n      tag_66\n      swap1\n      tag_52\n      jump\t// in\n    tag_66:\n      mload(0x40)\n      dup1\n      swap2\n      sub\n      swap1\n      revert\n    tag_65:\n        /* \"submissions/Zora/Day6EtherPiggyBank.sol\":899:908  msg.value */\n      callvalue\n        /* \"submissions/Zora/Day6EtherPiggyBank.sol\":879:886  balance */\n      0x03\n        /* \"submissions/Zora/Day6EtherPiggyBank.sol\":879:898  balance[msg.sender] */\n      0x00\n        /* \"submissions/Zora/Day6EtherPiggyBank.sol\":887:897  msg.sender */\n      caller\n        /* \"submissions/Zora/Day6EtherPiggyBank.sol\":879:898  balance[msg.sender] */\n      0xffffffffffffffffffffffffffffffffffffffff\n      and\n      0xffffffffffffffffffffffffffffffffffffffff\n      and\n      dup2\n      mstore\n      0x20\n      add\n      swap1\n      dup2\n      mstore\n      0x20\n      add\n      0x00\n      keccak256\n      sload\n        /* \"submissions/Zora/Day6EtherPiggyBank.sol\":879:908  balance[msg.sender]+msg.value */\n      tag_67\n      swap2\n      swap1\n      tag_68\n      jump\t// in\n    tag_67:\n        /* \"submissions/Zora/Day6EtherPiggyBank.sol\":857:864  balance */\n      0x03\n        /* \"submissions/Zora/Day6EtherPiggyBank.sol\":857:876  balance[msg.sender] */\n      0x00\n        /* \"submissions/Zora/Day6EtherPiggyBank.sol\":865:875  msg.sender */\n      caller\n        /* \"submissions/Zora/Day6EtherPiggyBank.sol\":857:876  balance[msg.sender] */\n      0xffffffffffffffffffffffffffffffffffffffff\n      and\n      0xffffffffffffffffffffffffffffffffffffffff\n      and\n      dup2\n      mstore\n      0x20\n      add\n      swap1\n      dup2\n      mstore\n      0x20\n      add\n      0x00\n      keccak256\n        /* \"submissions/Zora/Day6EtherPiggyBank.sol\":857:908  balance[msg.sender] = balance[msg.sender]+msg.value */\n      dup2\n      swap1\n      sstore\n      pop\n        /* \"submissions/Zora/Day6EtherPiggyBank.sol\":730:918  function depositAmountEther() public payable onlyRegisteredMember{... */\n      jump\t// out\n        /* \"submissions/Zora/Day6EtherPiggyBank.sol\":203:245  mapping(address => uint256) public balance */\n    tag_32:\n      mstore(0x20, 0x03)\n      dup1\n      0x00\n      mstore\n      keccak256(0x00, 0x40)\n      0x00\n      swap2\n      pop\n      swap1\n      pop\n      sload\n      dup2\n      jump\t// out\n        /* \"submissions/Zora/Day6EtherPiggyBank.sol\":90:116  address public bankManager */\n    tag_37:\n      0x00\n      0x00\n      swap1\n      sload\n      swap1\n      0x0100\n      exp\n      swap1\n      div\n      0xffffffffffffffffffffffffffffffffffffffff\n      and\n      dup2\n      jump\t// out\n        /* \"submissions/Zora/Day6EtherPiggyBank.sol\":1197:1364  function getBalance(address _member) public view returns(uint256){... */\n    tag_43:\n        /* \"submissions/Zora/Day6EtherPiggyBank.sol\":1254:1261  uint256 */\n      0x00\n        /* \"submissions/Zora/Day6EtherPiggyBank.sol\":1300:1301  0 */\n      0x00\n        /* \"submissions/Zora/Day6EtherPiggyBank.sol\":1281:1302  _member != address(0) */\n      0xffffffffffffffffffffffffffffffffffffffff\n      and\n        /* \"submissions/Zora/Day6EtherPiggyBank.sol\":1281:1288  _member */\n      dup3\n        /* \"submissions/Zora/Day6EtherPiggyBank.sol\":1281:1302  _member != address(0) */\n      0xffffffffffffffffffffffffffffffffffffffff\n      and\n      sub\n        /* \"submissions/Zora/Day6EtherPiggyBank.sol\":1273:1322  require(_member != address(0), \"Invalid address\") */\n      tag_70\n      jumpi\n      mload(0x40)\n      0x08c379a000000000000000000000000000000000000000000000000000000000\n      dup2\n      mstore\n      0x04\n      add\n      tag_71\n      swap1\n      tag_72\n      jump\t// in\n    tag_71:\n      mload(0x40)\n      dup1\n      swap2\n      sub\n      swap1\n      revert\n    tag_70:\n        /* \"submissions/Zora/Day6EtherPiggyBank.sol\":1340:1347  balance */\n      0x03\n        /* \"submissions/Zora/Day6EtherPiggyBank.sol\":1340:1356  balance[_member] */\n      0x00\n        /* \"submissions/Zora/Day6EtherPiggyBank.sol\":1348:1355  _member */\n      dup4\n        /* \"submissions/Zora/Day6EtherPiggyBank.sol\":1340:1356  balance[_member] */\n      0xffffffffffffffffffffffffffffffffffffffff\n      and\n      0xffffffffffffffffffffffffffffffffffffffff\n      and\n      dup2\n      mstore\n      0x20\n      add\n      swap1\n      dup2\n      mstore\n      0x20\n      add\n      0x00\n      keccak256\n      sload\n        /* \"submissions/Zora/Day6EtherPiggyBank.sol\":1333:1356  return balance[_member] */\n      swap1\n      pop\n        /* \"submissions/Zora/Day6EtherPiggyBank.sol\":1197:1364  function getBalance(address _member) public view returns(uint256){... */\n      swap2\n      swap1\n      pop\n      jump\t// out\n        /* \"#utility.yul\":88:205   */\n    tag_74:\n        /* \"#utility.yul\":197:198   */\n      0x00\n        /* \"#utility.yul\":194:195   */\n      0x00\n        /* \"#utility.yul\":187:199   */\n      revert\n        /* \"#utility.yul\":334:411   */\n    tag_76:\n        /* \"#utility.yul\":371:378   */\n      0x00\n        /* \"#utility.yul\":400:405   */\n      dup2\n        /* \"#utility.yul\":389:405   */\n      swap1\n      pop\n        /* \"#utility.yul\":334:411   */\n      swap2\n      swap1\n      pop\n      jump\t// out\n        /* \"#utility.yul\":417:539   */\n    tag_77:\n        /* \"#utility.yul\":490:514   */\n      tag_110\n        /* \"#utility.yul\":508:513   */\n      dup2\n        /* \"#utility.yul\":490:514   */\n      tag_76\n      jump\t// in\n    tag_110:\n        /* \"#utility.yul\":483:488   */\n      dup2\n        /* \"#utility.yul\":480:515   */\n      eq\n        /* \"#utility.yul\":470:533   */\n      tag_111\n      jumpi\n        /* \"#utility.yul\":529:530   */\n      0x00\n        /* \"#utility.yul\":526:527   */\n      0x00\n        /* \"#utility.yul\":519:531   */\n      revert\n        /* \"#utility.yul\":470:533   */\n    tag_111:\n        /* \"#utility.yul\":417:539   */\n      pop\n      jump\t// out\n        /* \"#utility.yul\":545:684   */\n    tag_78:\n        /* \"#utility.yul\":591:596   */\n      0x00\n        /* \"#utility.yul\":629:635   */\n      dup2\n        /* \"#utility.yul\":616:636   */\n      calldataload\n        /* \"#utility.yul\":607:636   */\n      swap1\n      pop\n        /* \"#utility.yul\":645:678   */\n      tag_113\n        /* \"#utility.yul\":672:677   */\n      dup2\n        /* \"#utility.yul\":645:678   */\n      tag_77\n      jump\t// in\n    tag_113:\n        /* \"#utility.yul\":545:684   */\n      swap3\n      swap2\n      pop\n      pop\n      jump\t// out\n        /* \"#utility.yul\":690:1019   */\n    tag_13:\n        /* \"#utility.yul\":749:755   */\n      0x00\n        /* \"#utility.yul\":798:800   */\n      0x20\n        /* \"#utility.yul\":786:795   */\n      dup3\n        /* \"#utility.yul\":777:784   */\n      dup5\n        /* \"#utility.yul\":773:796   */\n      sub\n        /* \"#utility.yul\":769:801   */\n      slt\n        /* \"#utility.yul\":766:885   */\n      iszero\n      tag_115\n      jumpi\n        /* \"#utility.yul\":804:883   */\n      tag_116\n      tag_74\n      jump\t// in\n    tag_116:\n        /* \"#utility.yul\":766:885   */\n    tag_115:\n        /* \"#utility.yul\":924:925   */\n      0x00\n        /* \"#utility.yul\":949:1002   */\n      tag_117\n        /* \"#utility.yul\":994:1001   */\n      dup5\n        /* \"#utility.yul\":985:991   */\n      dup3\n        /* \"#utility.yul\":974:983   */\n      dup6\n        /* \"#utility.yul\":970:992   */\n      add\n        /* \"#utility.yul\":949:1002   */\n      tag_78\n      jump\t// in\n    tag_117:\n        /* \"#utility.yul\":939:1002   */\n      swap2\n      pop\n        /* \"#utility.yul\":895:1012   */\n      pop\n        /* \"#utility.yul\":690:1019   */\n      swap3\n      swap2\n      pop\n      pop\n      jump\t// out\n        /* \"#utility.yul\":1025:1151   */\n    tag_79:\n        /* \"#utility.yul\":1062:1069   */\n      0x00\n        /* \"#utility.yul\":1102:1144   */\n      0xffffffffffffffffffffffffffffffffffffffff\n        /* \"#utility.yul\":1095:1100   */\n      dup3\n        /* \"#utility.yul\":1091:1145   */\n      and\n        /* \"#utility.yul\":1080:1145   */\n      swap1\n      pop\n        /* \"#utility.yul\":1025:1151   */\n      swap2\n      swap1\n      pop\n      jump\t// out\n        /* \"#utility.yul\":1157:1253   */\n    tag_80:\n        /* \"#utility.yul\":1194:1201   */\n      0x00\n        /* \"#utility.yul\":1223:1247   */\n      tag_120\n        /* \"#utility.yul\":1241:1246   */\n      dup3\n        /* \"#utility.yul\":1223:1247   */\n      tag_79\n      jump\t// in\n    tag_120:\n        /* \"#utility.yul\":1212:1247   */\n      swap1\n      pop\n        /* \"#utility.yul\":1157:1253   */\n      swap2\n      swap1\n      pop\n      jump\t// out\n        /* \"#utility.yul\":1259:1381   */\n    tag_81:\n        /* \"#utility.yul\":1332:1356   */\n      tag_122\n        /* \"#utility.yul\":1350:1355   */\n      dup2\n        /* \"#utility.yul\":1332:1356   */\n      tag_80\n      jump\t// in\n    tag_122:\n        /* \"#utility.yul\":1325:1330   */\n      dup2\n        /* \"#utility.yul\":1322:1357   */\n      eq\n        /* \"#utility.yul\":1312:1375   */\n      tag_123\n      jumpi\n        /* \"#utility.yul\":1371:1372   */\n      0x00\n        /* \"#utility.yul\":1368:1369   */\n      0x00\n        /* \"#utility.yul\":1361:1373   */\n      revert\n        /* \"#utility.yul\":1312:1375   */\n    tag_123:\n        /* \"#utility.yul\":1259:1381   */\n      pop\n      jump\t// out\n        /* \"#utility.yul\":1387:1526   */\n    tag_82:\n        /* \"#utility.yul\":1433:1438   */\n      0x00\n        /* \"#utility.yul\":1471:1477   */\n      dup2\n        /* \"#utility.yul\":1458:1478   */\n      calldataload\n        /* \"#utility.yul\":1449:1478   */\n      swap1\n      pop\n        /* \"#utility.yul\":1487:1520   */\n      tag_125\n        /* \"#utility.yul\":1514:1519   */\n      dup2\n        /* \"#utility.yul\":1487:1520   */\n      tag_81\n      jump\t// in\n    tag_125:\n        /* \"#utility.yul\":1387:1526   */\n      swap3\n      swap2\n      pop\n      pop\n      jump\t// out\n        /* \"#utility.yul\":1532:1861   */\n    tag_18:\n        /* \"#utility.yul\":1591:1597   */\n      0x00\n        /* \"#utility.yul\":1640:1642   */\n      0x20\n        /* \"#utility.yul\":1628:1637   */\n      dup3\n        /* \"#utility.yul\":1619:1626   */\n      dup5\n        /* \"#utility.yul\":1615:1638   */\n      sub\n        /* \"#utility.yul\":1611:1643   */\n      slt\n        /* \"#utility.yul\":1608:1727   */\n      iszero\n      tag_127\n      jumpi\n        /* \"#utility.yul\":1646:1725   */\n      tag_128\n      tag_74\n      jump\t// in\n    tag_128:\n        /* \"#utility.yul\":1608:1727   */\n    tag_127:\n        /* \"#utility.yul\":1766:1767   */\n      0x00\n        /* \"#utility.yul\":1791:1844   */\n      tag_129\n        /* \"#utility.yul\":1836:1843   */\n      dup5\n        /* \"#utility.yul\":1827:1833   */\n      dup3\n        /* \"#utility.yul\":1816:1825   */\n      dup6\n        /* \"#utility.yul\":1812:1834   */\n      add\n        /* \"#utility.yul\":1791:1844   */\n      tag_82\n      jump\t// in\n    tag_129:\n        /* \"#utility.yul\":1781:1844   */\n      swap2\n      pop\n        /* \"#utility.yul\":1737:1854   */\n      pop\n        /* \"#utility.yul\":1532:1861   */\n      swap3\n      swap2\n      pop\n      pop\n      jump\t// out\n        /* \"#utility.yul\":1867:1957   */\n    tag_83:\n        /* \"#utility.yul\":1901:1908   */\n      0x00\n        /* \"#utility.yul\":1944:1949   */\n      dup2\n        /* \"#utility.yul\":1937:1950   */\n      iszero\n        /* \"#utility.yul\":1930:1951   */\n      iszero\n        /* \"#utility.yul\":1919:1951   */\n      swap1\n      pop\n        /* \"#utility.yul\":1867:1957   */\n      swap2\n      swap1\n      pop\n      jump\t// out\n        /* \"#utility.yul\":1963:2072   */\n    tag_84:\n        /* \"#utility.yul\":2044:2065   */\n      tag_132\n        /* \"#utility.yul\":2059:2064   */\n      dup2\n        /* \"#utility.yul\":2044:2065   */\n      tag_83\n      jump\t// in\n    tag_132:\n        /* \"#utility.yul\":2039:2042   */\n      dup3\n        /* \"#utility.yul\":2032:2066   */\n      mstore\n        /* \"#utility.yul\":1963:2072   */\n      pop\n      pop\n      jump\t// out\n        /* \"#utility.yul\":2078:2288   */\n    tag_21:\n        /* \"#utility.yul\":2165:2169   */\n      0x00\n        /* \"#utility.yul\":2203:2205   */\n      0x20\n        /* \"#utility.yul\":2192:2201   */\n      dup3\n        /* \"#utility.yul\":2188:2206   */\n      add\n        /* \"#utility.yul\":2180:2206   */\n      swap1\n      pop\n        /* \"#utility.yul\":2216:2281   */\n      tag_134\n        /* \"#utility.yul\":2278:2279   */\n      0x00\n        /* \"#utility.yul\":2267:2276   */\n      dup4\n        /* \"#utility.yul\":2263:2280   */\n      add\n        /* \"#utility.yul\":2254:2260   */\n      dup5\n        /* \"#utility.yul\":2216:2281   */\n      tag_84\n      jump\t// in\n    tag_134:\n        /* \"#utility.yul\":2078:2288   */\n      swap3\n      swap2\n      pop\n      pop\n      jump\t// out\n        /* \"#utility.yul\":2294:2408   */\n    tag_85:\n        /* \"#utility.yul\":2361:2367   */\n      0x00\n        /* \"#utility.yul\":2395:2400   */\n      dup2\n        /* \"#utility.yul\":2389:2401   */\n      mload\n        /* \"#utility.yul\":2379:2401   */\n      swap1\n      pop\n        /* \"#utility.yul\":2294:2408   */\n      swap2\n      swap1\n      pop\n      jump\t// out\n        /* \"#utility.yul\":2414:2598   */\n    tag_86:\n        /* \"#utility.yul\":2513:2524   */\n      0x00\n        /* \"#utility.yul\":2547:2553   */\n      dup3\n        /* \"#utility.yul\":2542:2545   */\n      dup3\n        /* \"#utility.yul\":2535:2554   */\n      mstore\n        /* \"#utility.yul\":2587:2591   */\n      0x20\n        /* \"#utility.yul\":2582:2585   */\n      dup3\n        /* \"#utility.yul\":2578:2592   */\n      add\n        /* \"#utility.yul\":2563:2592   */\n      swap1\n      pop\n        /* \"#utility.yul\":2414:2598   */\n      swap3\n      swap2\n      pop\n      pop\n      jump\t// out\n        /* \"#utility.yul\":2604:2736   */\n    tag_87:\n        /* \"#utility.yul\":2671:2675   */\n      0x00\n        /* \"#utility.yul\":2694:2697   */\n      dup2\n        /* \"#utility.yul\":2686:2697   */\n      swap1\n      pop\n        /* \"#utility.yul\":2724:2728   */\n      0x20\n        /* \"#utility.yul\":2719:2722   */\n      dup3\n        /* \"#utility.yul\":2715:2729   */\n      add\n        /* \"#utility.yul\":2707:2729   */\n      swap1\n      pop\n        /* \"#utility.yul\":2604:2736   */\n      swap2\n      swap1\n      pop\n      jump\t// out\n        /* \"#utility.yul\":2742:2850   */\n    tag_88:\n        /* \"#utility.yul\":2819:2843   */\n      tag_139\n        /* \"#utility.yul\":2837:2842   */\n      dup2\n        /* \"#utility.yul\":2819:2843   */\n      tag_80\n      jump\t// in\n    tag_139:\n        /* \"#utility.yul\":2814:2817   */\n      dup3\n        /* \"#utility.yul\":2807:2844   */\n      mstore\n        /* \"#utility.yul\":2742:2850   */\n      pop\n      pop\n      jump\t// out\n        /* \"#utility.yul\":2856:3035   */\n    tag_89:\n        /* \"#utility.yul\":2925:2935   */\n      0x00\n        /* \"#utility.yul\":2946:2992   */\n      tag_141\n        /* \"#utility.yul\":2988:2991   */\n      dup4\n        /* \"#utility.yul\":2980:2986   */\n      dup4\n        /* \"#utility.yul\":2946:2992   */\n      tag_88\n      jump\t// in\n    tag_141:\n        /* \"#utility.yul\":3024:3028   */\n      0x20\n        /* \"#utility.yul\":3019:3022   */\n      dup4\n        /* \"#utility.yul\":3015:3029   */\n      add\n        /* \"#utility.yul\":3001:3029   */\n      swap1\n      pop\n        /* \"#utility.yul\":2856:3035   */\n      swap3\n      swap2\n      pop\n      pop\n      jump\t// out\n        /* \"#utility.yul\":3041:3154   */\n    tag_90:\n        /* \"#utility.yul\":3111:3115   */\n      0x00\n        /* \"#utility.yul\":3143:3147   */\n      0x20\n        /* \"#utility.yul\":3138:3141   */\n      dup3\n        /* \"#utility.yul\":3134:3148   */\n      add\n        /* \"#utility.yul\":3126:3148   */\n      swap1\n      pop\n        /* \"#utility.yul\":3041:3154   */\n      swap2\n      swap1\n      pop\n      jump\t// out\n        /* \"#utility.yul\":3190:3922   */\n    tag_91:\n        /* \"#utility.yul\":3309:3312   */\n      0x00\n        /* \"#utility.yul\":3338:3392   */\n      tag_144\n        /* \"#utility.yul\":3386:3391   */\n      dup3\n        /* \"#utility.yul\":3338:3392   */\n      tag_85\n      jump\t// in\n    tag_144:\n        /* \"#utility.yul\":3408:3494   */\n      tag_145\n        /* \"#utility.yul\":3487:3493   */\n      dup2\n        /* \"#utility.yul\":3482:3485   */\n      dup6\n        /* \"#utility.yul\":3408:3494   */\n      tag_86\n      jump\t// in\n    tag_145:\n        /* \"#utility.yul\":3401:3494   */\n      swap4\n      pop\n        /* \"#utility.yul\":3518:3574   */\n      tag_146\n        /* \"#utility.yul\":3568:3573   */\n      dup4\n        /* \"#utility.yul\":3518:3574   */\n      tag_87\n      jump\t// in\n    tag_146:\n        /* \"#utility.yul\":3597:3604   */\n      dup1\n        /* \"#utility.yul\":3628:3629   */\n      0x00\n        /* \"#utility.yul\":3613:3897   */\n    tag_147:\n        /* \"#utility.yul\":3638:3644   */\n      dup4\n        /* \"#utility.yul\":3635:3636   */\n      dup2\n        /* \"#utility.yul\":3632:3645   */\n      lt\n        /* \"#utility.yul\":3613:3897   */\n      iszero\n      tag_149\n      jumpi\n        /* \"#utility.yul\":3714:3720   */\n      dup2\n        /* \"#utility.yul\":3708:3721   */\n      mload\n        /* \"#utility.yul\":3741:3804   */\n      tag_150\n        /* \"#utility.yul\":3800:3803   */\n      dup9\n        /* \"#utility.yul\":3785:3798   */\n      dup3\n        /* \"#utility.yul\":3741:3804   */\n      tag_89\n      jump\t// in\n    tag_150:\n        /* \"#utility.yul\":3734:3804   */\n      swap8\n      pop\n        /* \"#utility.yul\":3827:3887   */\n      tag_151\n        /* \"#utility.yul\":3880:3886   */\n      dup4\n        /* \"#utility.yul\":3827:3887   */\n      tag_90\n      jump\t// in\n    tag_151:\n        /* \"#utility.yul\":3817:3887   */\n      swap3\n      pop\n        /* \"#utility.yul\":3673:3897   */\n      pop\n        /* \"#utility.yul\":3660:3661   */\n      0x01\n        /* \"#utility.yul\":3657:3658   */\n      dup2\n        /* \"#utility.yul\":3653:3662   */\n      add\n        /* \"#utility.yul\":3648:3662   */\n      swap1\n      pop\n        /* \"#utility.yul\":3613:3897   */\n      jump(tag_147)\n    tag_149:\n        /* \"#utility.yul\":3617:3631   */\n      pop\n        /* \"#utility.yul\":3913:3916   */\n      dup6\n        /* \"#utility.yul\":3906:3916   */\n      swap4\n      pop\n        /* \"#utility.yul\":3314:3922   */\n      pop\n      pop\n      pop\n        /* \"#utility.yul\":3190:3922   */\n      swap3\n      swap2\n      pop\n      pop\n      jump\t// out\n        /* \"#utility.yul\":3928:4301   */\n    tag_26:\n        /* \"#utility.yul\":4071:4075   */\n      0x00\n        /* \"#utility.yul\":4109:4111   */\n      0x20\n        /* \"#utility.yul\":4098:4107   */\n      dup3\n        /* \"#utility.yul\":4094:4112   */\n      add\n        /* \"#utility.yul\":4086:4112   */\n      swap1\n      pop\n        /* \"#utility.yul\":4158:4167   */\n      dup2\n        /* \"#utility.yul\":4152:4156   */\n      dup2\n        /* \"#utility.yul\":4148:4168   */\n      sub\n        /* \"#utility.yul\":4144:4145   */\n      0x00\n        /* \"#utility.yul\":4133:4142   */\n      dup4\n        /* \"#utility.yul\":4129:4146   */\n      add\n        /* \"#utility.yul\":4122:4169   */\n      mstore\n        /* \"#utility.yul\":4186:4294   */\n      tag_153\n        /* \"#utility.yul\":4289:4293   */\n      dup2\n        /* \"#utility.yul\":4280:4286   */\n      dup5\n        /* \"#utility.yul\":4186:4294   */\n      tag_91\n      jump\t// in\n    tag_153:\n        /* \"#utility.yul\":4178:4294   */\n      swap1\n      pop\n        /* \"#utility.yul\":3928:4301   */\n      swap3\n      swap2\n      pop\n      pop\n      jump\t// out\n        /* \"#utility.yul\":4307:4425   */\n    tag_92:\n        /* \"#utility.yul\":4394:4418   */\n      tag_155\n        /* \"#utility.yul\":4412:4417   */\n      dup2\n        /* \"#utility.yul\":4394:4418   */\n      tag_76\n      jump\t// in\n    tag_155:\n        /* \"#utility.yul\":4389:4392   */\n      dup3\n        /* \"#utility.yul\":4382:4419   */\n      mstore\n        /* \"#utility.yul\":4307:4425   */\n      pop\n      pop\n      jump\t// out\n        /* \"#utility.yul\":4431:4653   */\n    tag_34:\n        /* \"#utility.yul\":4524:4528   */\n      0x00\n        /* \"#utility.yul\":4562:4564   */\n      0x20\n        /* \"#utility.yul\":4551:4560   */\n      dup3\n        /* \"#utility.yul\":4547:4565   */\n      add\n        /* \"#utility.yul\":4539:4565   */\n      swap1\n      pop\n        /* \"#utility.yul\":4575:4646   */\n      tag_157\n        /* \"#utility.yul\":4643:4644   */\n      0x00\n        /* \"#utility.yul\":4632:4641   */\n      dup4\n        /* \"#utility.yul\":4628:4645   */\n      add\n        /* \"#utility.yul\":4619:4625   */\n      dup5\n        /* \"#utility.yul\":4575:4646   */\n      tag_92\n      jump\t// in\n    tag_157:\n        /* \"#utility.yul\":4431:4653   */\n      swap3\n      swap2\n      pop\n      pop\n      jump\t// out\n        /* \"#utility.yul\":4659:4777   */\n    tag_93:\n        /* \"#utility.yul\":4746:4770   */\n      tag_159\n        /* \"#utility.yul\":4764:4769   */\n      dup2\n        /* \"#utility.yul\":4746:4770   */\n      tag_80\n      jump\t// in\n    tag_159:\n        /* \"#utility.yul\":4741:4744   */\n      dup3\n        /* \"#utility.yul\":4734:4771   */\n      mstore\n        /* \"#utility.yul\":4659:4777   */\n      pop\n      pop\n      jump\t// out\n        /* \"#utility.yul\":4783:5005   */\n    tag_39:\n        /* \"#utility.yul\":4876:4880   */\n      0x00\n        /* \"#utility.yul\":4914:4916   */\n      0x20\n        /* \"#utility.yul\":4903:4912   */\n      dup3\n        /* \"#utility.yul\":4899:4917   */\n      add\n        /* \"#utility.yul\":4891:4917   */\n      swap1\n      pop\n        /* \"#utility.yul\":4927:4998   */\n      tag_161\n        /* \"#utility.yul\":4995:4996   */\n      0x00\n        /* \"#utility.yul\":4984:4993   */\n      dup4\n        /* \"#utility.yul\":4980:4997   */\n      add\n        /* \"#utility.yul\":4971:4977   */\n      dup5\n        /* \"#utility.yul\":4927:4998   */\n      tag_93\n      jump\t// in\n    tag_161:\n        /* \"#utility.yul\":4783:5005   */\n      swap3\n      swap2\n      pop\n      pop\n      jump\t// out\n        /* \"#utility.yul\":5011:5180   */\n    tag_94:\n        /* \"#utility.yul\":5095:5106   */\n      0x00\n        /* \"#utility.yul\":5129:5135   */\n      dup3\n        /* \"#utility.yul\":5124:5127   */\n      dup3\n        /* \"#utility.yul\":5117:5136   */\n      mstore\n        /* \"#utility.yul\":5169:5173   */\n      0x20\n        /* \"#utility.yul\":5164:5167   */\n      dup3\n        /* \"#utility.yul\":5160:5174   */\n      add\n        /* \"#utility.yul\":5145:5174   */\n      swap1\n      pop\n        /* \"#utility.yul\":5011:5180   */\n      swap3\n      swap2\n      pop\n      pop\n      jump\t// out\n        /* \"#utility.yul\":5186:5357   */\n    tag_95:\n        /* \"#utility.yul\":5326:5349   */\n      0x4d656d626572206e6f7420726567697374657265640000000000000000000000\n        /* \"#utility.yul\":5322:5323   */\n      0x00\n        /* \"#utility.yul\":5314:5320   */\n      dup3\n        /* \"#utility.yul\":5310:5324   */\n      add\n        /* \"#utility.yul\":5303:5350   */\n      mstore\n        /* \"#utility.yul\":5186:5357   */\n      pop\n      jump\t// out\n        /* \"#utility.yul\":5363:5729   */\n    tag_96:\n        /* \"#utility.yul\":5505:5508   */\n      0x00\n        /* \"#utility.yul\":5526:5593   */\n      tag_165\n        /* \"#utility.yul\":5590:5592   */\n      0x15\n        /* \"#utility.yul\":5585:5588   */\n      dup4\n        /* \"#utility.yul\":5526:5593   */\n      tag_94\n      jump\t// in\n    tag_165:\n        /* \"#utility.yul\":5519:5593   */\n      swap2\n      pop\n        /* \"#utility.yul\":5602:5695   */\n      tag_166\n        /* \"#utility.yul\":5691:5694   */\n      dup3\n        /* \"#utility.yul\":5602:5695   */\n      tag_95\n      jump\t// in\n    tag_166:\n        /* \"#utility.yul\":5720:5722   */\n      0x20\n        /* \"#utility.yul\":5715:5718   */\n      dup3\n        /* \"#utility.yul\":5711:5723   */\n      add\n        /* \"#utility.yul\":5704:5723   */\n      swap1\n      pop\n        /* \"#utility.yul\":5363:5729   */\n      swap2\n      swap1\n      pop\n      jump\t// out\n        /* \"#utility.yul\":5735:6154   */\n    tag_48:\n        /* \"#utility.yul\":5901:5905   */\n      0x00\n        /* \"#utility.yul\":5939:5941   */\n      0x20\n        /* \"#utility.yul\":5928:5937   */\n      dup3\n        /* \"#utility.yul\":5924:5942   */\n      add\n        /* \"#utility.yul\":5916:5942   */\n      swap1\n      pop\n        /* \"#utility.yul\":5988:5997   */\n      dup2\n        /* \"#utility.yul\":5982:5986   */\n      dup2\n        /* \"#utility.yul\":5978:5998   */\n      sub\n        /* \"#utility.yul\":5974:5975   */\n      0x00\n        /* \"#utility.yul\":5963:5972   */\n      dup4\n        /* \"#utility.yul\":5959:5976   */\n      add\n        /* \"#utility.yul\":5952:5999   */\n      mstore\n        /* \"#utility.yul\":6016:6147   */\n      tag_168\n        /* \"#utility.yul\":6142:6146   */\n      dup2\n        /* \"#utility.yul\":6016:6147   */\n      tag_96\n      jump\t// in\n    tag_168:\n        /* \"#utility.yul\":6008:6147   */\n      swap1\n      pop\n        /* \"#utility.yul\":5735:6154   */\n      swap2\n      swap1\n      pop\n      jump\t// out\n        /* \"#utility.yul\":6160:6324   */\n    tag_97:\n        /* \"#utility.yul\":6300:6316   */\n      0x496e76616c696420616d6f756e74000000000000000000000000000000000000\n        /* \"#utility.yul\":6296:6297   */\n      0x00\n        /* \"#utility.yul\":6288:6294   */\n      dup3\n        /* \"#utility.yul\":6284:6298   */\n      add\n        /* \"#utility.yul\":6277:6317   */\n      mstore\n        /* \"#utility.yul\":6160:6324   */\n      pop\n      jump\t// out\n        /* \"#utility.yul\":6330:6696   */\n    tag_98:\n        /* \"#utility.yul\":6472:6475   */\n      0x00\n        /* \"#utility.yul\":6493:6560   */\n      tag_171\n        /* \"#utility.yul\":6557:6559   */\n      0x0e\n        /* \"#utility.yul\":6552:6555   */\n      dup4\n        /* \"#utility.yul\":6493:6560   */\n      tag_94\n      jump\t// in\n    tag_171:\n        /* \"#utility.yul\":6486:6560   */\n      swap2\n      pop\n        /* \"#utility.yul\":6569:6662   */\n      tag_172\n        /* \"#utility.yul\":6658:6661   */\n      dup3\n        /* \"#utility.yul\":6569:6662   */\n      tag_97\n      jump\t// in\n    tag_172:\n        /* \"#utility.yul\":6687:6689   */\n      0x20\n        /* \"#utility.yul\":6682:6685   */\n      dup3\n        /* \"#utility.yul\":6678:6690   */\n      add\n        /* \"#utility.yul\":6671:6690   */\n      swap1\n      pop\n        /* \"#utility.yul\":6330:6696   */\n      swap2\n      swap1\n      pop\n      jump\t// out\n        /* \"#utility.yul\":6702:7121   */\n    tag_52:\n        /* \"#utility.yul\":6868:6872   */\n      0x00\n        /* \"#utility.yul\":6906:6908   */\n      0x20\n        /* \"#utility.yul\":6895:6904   */\n      dup3\n        /* \"#utility.yul\":6891:6909   */\n      add\n        /* \"#utility.yul\":6883:6909   */\n      swap1\n      pop\n        /* \"#utility.yul\":6955:6964   */\n      dup2\n        /* \"#utility.yul\":6949:6953   */\n      dup2\n        /* \"#utility.yul\":6945:6965   */\n      sub\n        /* \"#utility.yul\":6941:6942   */\n      0x00\n        /* \"#utility.yul\":6930:6939   */\n      dup4\n        /* \"#utility.yul\":6926:6943   */\n      add\n        /* \"#utility.yul\":6919:6966   */\n      mstore\n        /* \"#utility.yul\":6983:7114   */\n      tag_174\n        /* \"#utility.yul\":7109:7113   */\n      dup2\n        /* \"#utility.yul\":6983:7114   */\n      tag_98\n      jump\t// in\n    tag_174:\n        /* \"#utility.yul\":6975:7114   */\n      swap1\n      pop\n        /* \"#utility.yul\":6702:7121   */\n      swap2\n      swap1\n      pop\n      jump\t// out\n        /* \"#utility.yul\":7127:7297   */\n    tag_99:\n        /* \"#utility.yul\":7267:7289   */\n      0x496e73756666696369656e742062616c616e6365000000000000000000000000\n        /* \"#utility.yul\":7263:7264   */\n      0x00\n        /* \"#utility.yul\":7255:7261   */\n      dup3\n        /* \"#utility.yul\":7251:7265   */\n      add\n        /* \"#utility.yul\":7244:7290   */\n      mstore\n        /* \"#utility.yul\":7127:7297   */\n      pop\n      jump\t// out\n        /* \"#utility.yul\":7303:7669   */\n    tag_100:\n        /* \"#utility.yul\":7445:7448   */\n      0x00\n        /* \"#utility.yul\":7466:7533   */\n      tag_177\n        /* \"#utility.yul\":7530:7532   */\n      0x14\n        /* \"#utility.yul\":7525:7528   */\n      dup4\n        /* \"#utility.yul\":7466:7533   */\n      tag_94\n      jump\t// in\n    tag_177:\n        /* \"#utility.yul\":7459:7533   */\n      swap2\n      pop\n        /* \"#utility.yul\":7542:7635   */\n      tag_178\n        /* \"#utility.yul\":7631:7634   */\n      dup3\n        /* \"#utility.yul\":7542:7635   */\n      tag_99\n      jump\t// in\n    tag_178:\n        /* \"#utility.yul\":7660:7662   */\n      0x20\n        /* \"#utility.yul\":7655:7658   */\n      dup3\n        /* \"#utility.yul\":7651:7663   */\n      add\n        /* \"#utility.yul\":7644:7663   */\n      swap1\n      pop\n        /* \"#utility.yul\":7303:7669   */\n      swap2\n      swap1\n      pop\n      jump\t// out\n        /* \"#utility.yul\":7675:8094   */\n    tag_55:\n        /* \"#utility.yul\":7841:7845   */\n      0x00\n        /* \"#utility.yul\":7879:7881   */\n      0x20\n        /* \"#utility.yul\":7868:7877   */\n      dup3\n        /* \"#utility.yul\":7864:7882   */\n      add\n        /* \"#utility.yul\":7856:7882   */\n      swap1\n      pop\n        /* \"#utility.yul\":7928:7937   */\n      dup2\n        /* \"#utility.yul\":7922:7926   */\n      dup2\n        /* \"#utility.yul\":7918:7938   */\n      sub\n        /* \"#utility.yul\":7914:7915   */\n      0x00\n        /* \"#utility.yul\":7903:7912   */\n      dup4\n        /* \"#utility.yul\":7899:7916   */\n      add\n        /* \"#utility.yul\":7892:7939   */\n      mstore\n        /* \"#utility.yul\":7956:8087   */\n      tag_180\n        /* \"#utility.yul\":8082:8086   */\n      dup2\n        /* \"#utility.yul\":7956:8087   */\n      tag_100\n      jump\t// in\n    tag_180:\n        /* \"#utility.yul\":7948:8087   */\n      swap1\n      pop\n        /* \"#utility.yul\":7675:8094   */\n      swap2\n      swap1\n      pop\n      jump\t// out\n        /* \"#utility.yul\":8100:8280   */\n    tag_101:\n        /* \"#utility.yul\":8148:8225   */\n      0x4e487b7100000000000000000000000000000000000000000000000000000000\n        /* \"#utility.yul\":8145:8146   */\n      0x00\n        /* \"#utility.yul\":8138:8226   */\n      mstore\n        /* \"#utility.yul\":8245:8249   */\n      0x11\n        /* \"#utility.yul\":8242:8243   */\n      0x04\n        /* \"#utility.yul\":8235:8250   */\n      mstore\n        /* \"#utility.yul\":8269:8273   */\n      0x24\n        /* \"#utility.yul\":8266:8267   */\n      0x00\n        /* \"#utility.yul\":8259:8274   */\n      revert\n        /* \"#utility.yul\":8286:8480   */\n    tag_57:\n        /* \"#utility.yul\":8326:8330   */\n      0x00\n        /* \"#utility.yul\":8346:8366   */\n      tag_183\n        /* \"#utility.yul\":8364:8365   */\n      dup3\n        /* \"#utility.yul\":8346:8366   */\n      tag_76\n      jump\t// in\n    tag_183:\n        /* \"#utility.yul\":8341:8366   */\n      swap2\n      pop\n        /* \"#utility.yul\":8380:8400   */\n      tag_184\n        /* \"#utility.yul\":8398:8399   */\n      dup4\n        /* \"#utility.yul\":8380:8400   */\n      tag_76\n      jump\t// in\n    tag_184:\n        /* \"#utility.yul\":8375:8400   */\n      swap3\n      pop\n        /* \"#utility.yul\":8424:8425   */\n      dup3\n        /* \"#utility.yul\":8421:8422   */\n      dup3\n        /* \"#utility.yul\":8417:8426   */\n      sub\n        /* \"#utility.yul\":8409:8426   */\n      swap1\n      pop\n        /* \"#utility.yul\":8448:8449   */\n      dup2\n        /* \"#utility.yul\":8442:8446   */\n      dup2\n        /* \"#utility.yul\":8439:8450   */\n      gt\n        /* \"#utility.yul\":8436:8473   */\n      iszero\n      tag_185\n      jumpi\n        /* \"#utility.yul\":8453:8471   */\n      tag_186\n      tag_101\n      jump\t// in\n    tag_186:\n        /* \"#utility.yul\":8436:8473   */\n    tag_185:\n        /* \"#utility.yul\":8286:8480   */\n      swap3\n      swap2\n      pop\n      pop\n      jump\t// out\n        /* \"#utility.yul\":8486:8677   */\n    tag_68:\n        /* \"#utility.yul\":8526:8529   */\n      0x00\n        /* \"#utility.yul\":8545:8565   */\n      tag_188\n        /* \"#utility.yul\":8563:8564   */\n      dup3\n        /* \"#utility.yul\":8545:8565   */\n      tag_76\n      jump\t// in\n    tag_188:\n        /* \"#utility.yul\":8540:8565   */\n      swap2\n      pop\n        /* \"#utility.yul\":8579:8599   */\n      tag_189\n        /* \"#utility.yul\":8597:8598   */\n      dup4\n        /* \"#utility.yul\":8579:8599   */\n      tag_76\n      jump\t// in\n    tag_189:\n        /* \"#utility.yul\":8574:8599   */\n      swap3\n      pop\n        /* \"#utility.yul\":8622:8623   */\n      dup3\n        /* \"#utility.yul\":8619:8620   */\n      dup3\n        /* \"#utility.yul\":8615:8624   */\n      add\n        /* \"#utility.yul\":8608:8624   */\n      swap1\n      pop\n        /* \"#utility.yul\":8643:8646   */\n      dup1\n        /* \"#utility.yul\":8640:8641   */\n      dup3\n        /* \"#utility.yul\":8637:8647   */\n      gt\n        /* \"#utility.yul\":8634:8670   */\n      iszero\n      tag_190\n      jumpi\n        /* \"#utility.yul\":8650:8668   */\n      tag_191\n      tag_101\n      jump\t// in\n    tag_191:\n        /* \"#utility.yul\":8634:8670   */\n    tag_190:\n        /* \"#utility.yul\":8486:8677   */\n      swap3\n      swap2\n      pop\n      pop\n      jump\t// out\n        /* \"#utility.yul\":8683:8848   */\n    tag_102:\n        /* \"#utility.yul\":8823:8840   */\n      0x496e76616c696420616464726573730000000000000000000000000000000000\n        /* \"#utility.yul\":8819:8820   */\n      0x00\n        /* \"#utility.yul\":8811:8817   */\n      dup3\n        /* \"#utility.yul\":8807:8821   */\n      add\n        /* \"#utility.yul\":8800:8841   */\n      mstore\n        /* \"#utility.yul\":8683:8848   */\n      pop\n      jump\t// out\n        /* \"#utility.yul\":8854:9220   */\n    tag_103:\n        /* \"#utility.yul\":8996:8999   */\n      0x00\n        /* \"#utility.yul\":9017:9084   */\n      tag_194\n        /* \"#utility.yul\":9081:9083   */\n      0x0f\n        /* \"#utility.yul\":9076:9079   */\n      dup4\n        /* \"#utility.yul\":9017:9084   */\n      tag_94\n      jump\t// in\n    tag_194:\n        /* \"#utility.yul\":9010:9084   */\n      swap2\n      pop\n        /* \"#utility.yul\":9093:9186   */\n      tag_195\n        /* \"#utility.yul\":9182:9185   */\n      dup3\n        /* \"#utility.yul\":9093:9186   */\n      tag_102\n      jump\t// in\n    tag_195:\n        /* \"#utility.yul\":9211:9213   */\n      0x20\n        /* \"#utility.yul\":9206:9209   */\n      dup3\n        /* \"#utility.yul\":9202:9214   */\n      add\n        /* \"#utility.yul\":9195:9214   */\n      swap1\n      pop\n        /* \"#utility.yul\":8854:9220   */\n      swap2\n      swap1\n      pop\n      jump\t// out\n        /* \"#utility.yul\":9226:9645   */\n    tag_72:\n        /* \"#utility.yul\":9392:9396   */\n      0x00\n        /* \"#utility.yul\":9430:9432   */\n      0x20\n        /* \"#utility.yul\":9419:9428   */\n      dup3\n        /* \"#utility.yul\":9415:9433   */\n      add\n        /* \"#utility.yul\":9407:9433   */\n      swap1\n      pop\n        /* \"#utility.yul\":9479:9488   */\n      dup2\n        /* \"#utility.yul\":9473:9477   */\n      dup2\n        /* \"#utility.yul\":9469:9489   */\n      sub\n        /* \"#utility.yul\":9465:9466   */\n      0x00\n        /* \"#utility.yul\":9454:9463   */\n      dup4\n        /* \"#utility.yul\":9450:9467   */\n      add\n        /* \"#utility.yul\":9443:9490   */\n      mstore\n        /* \"#utility.yul\":9507:9638   */\n      tag_197\n        /* \"#utility.yul\":9633:9637   */\n      dup2\n        /* \"#utility.yul\":9507:9638   */\n      tag_103\n      jump\t// in\n    tag_197:\n        /* \"#utility.yul\":9499:9638   */\n      swap1\n      pop\n        /* \"#utility.yul\":9226:9645   */\n      swap2\n      swap1\n      pop\n      jump\t// out\n\n    auxdata: 0xa26469706673582212206abb45bc14f9cf0fd2ca798bffbdd563930066a032ae1b81c9d488111fbb7cf364736f6c634300081e0033\n}\n",
				"bytecode": {
					"linkReferences": {},
					"object": "6080604052348015600e575f5ffd5b50335f5f6101000a81548173ffffffffffffffffffffffffffffffffffffffff021916908373ffffffffffffffffffffffffffffffffffffffff160217905550600133908060018154018082558091505060019003905f5260205f20015f9091909190916101000a81548173ffffffffffffffffffffffffffffffffffffffff021916908373ffffffffffffffffffffffffffffffffffffffff160217905550610b2b806100bb5f395ff3fe60806040526004361061006f575f3560e01c8063c379c3e81161004d578063c379c3e814610101578063e3d670d71461010b578063e9e2990e14610147578063f8b2cb4f146101715761006f565b80630562b9f7146100735780637254647a1461009b5780639eab5253146100d7575b5f5ffd5b34801561007e575f5ffd5b50610099600480360381019061009491906106a8565b6101ad565b005b3480156100a6575f5ffd5b506100c160048036038101906100bc919061072d565b610385565b6040516100ce9190610772565b60405180910390f35b3480156100e2575f5ffd5b506100eb6103a2565b6040516100f89190610842565b60405180910390f35b61010961042d565b005b348015610116575f5ffd5b50610131600480360381019061012c919061072d565b610584565b60405161013e9190610871565b60405180910390f35b348015610152575f5ffd5b5061015b610599565b6040516101689190610899565b60405180910390f35b34801561017c575f5ffd5b506101976004803603810190610192919061072d565b6105bd565b6040516101a49190610871565b60405180910390f35b60025f3373ffffffffffffffffffffffffffffffffffffffff1673ffffffffffffffffffffffffffffffffffffffff1681526020019081526020015f205f9054906101000a900460ff16610236576040517f08c379a000000000000000000000000000000000000000000000000000000000815260040161022d9061090c565b60405180910390fd5b5f8111610278576040517f08c379a000000000000000000000000000000000000000000000000000000000815260040161026f90610974565b60405180910390fd5b8060035f3373ffffffffffffffffffffffffffffffffffffffff1673ffffffffffffffffffffffffffffffffffffffff1681526020019081526020015f205410156102f8576040517f08c379a00000000000000000000000000000000000000000000000000000000081526004016102ef906109dc565b60405180910390fd5b8060035f3373ffffffffffffffffffffffffffffffffffffffff1673ffffffffffffffffffffffffffffffffffffffff1681526020019081526020015f20546103419190610a27565b60035f3373ffffffffffffffffffffffffffffffffffffffff1673ffffffffffffffffffffffffffffffffffffffff1681526020019081526020015f208190555050565b6002602052805f5260405f205f915054906101000a900460ff1681565b6060600180548060200260200160405190810160405280929190818152602001828054801561042357602002820191905f5260205f20905b815f9054906101000a900473ffffffffffffffffffffffffffffffffffffffff1673ffffffffffffffffffffffffffffffffffffffff16815260200190600101908083116103da575b5050505050905090565b60025f3373ffffffffffffffffffffffffffffffffffffffff1673ffffffffffffffffffffffffffffffffffffffff1681526020019081526020015f205f9054906101000a900460ff166104b6576040517f08c379a00000000000000000000000000000000000000000000000000000000081526004016104ad9061090c565b60405180910390fd5b5f34116104f8576040517f08c379a00000000000000000000000000000000000000000000000000000000081526004016104ef90610974565b60405180910390fd5b3460035f3373ffffffffffffffffffffffffffffffffffffffff1673ffffffffffffffffffffffffffffffffffffffff1681526020019081526020015f20546105419190610a5a565b60035f3373ffffffffffffffffffffffffffffffffffffffff1673ffffffffffffffffffffffffffffffffffffffff1681526020019081526020015f2081905550565b6003602052805f5260405f205f915090505481565b5f5f9054906101000a900473ffffffffffffffffffffffffffffffffffffffff1681565b5f5f73ffffffffffffffffffffffffffffffffffffffff168273ffffffffffffffffffffffffffffffffffffffff160361062c576040517f08c379a000000000000000000000000000000000000000000000000000000000815260040161062390610ad7565b60405180910390fd5b60035f8373ffffffffffffffffffffffffffffffffffffffff1673ffffffffffffffffffffffffffffffffffffffff1681526020019081526020015f20549050919050565b5f5ffd5b5f819050919050565b61068781610675565b8114610691575f5ffd5b50565b5f813590506106a28161067e565b92915050565b5f602082840312156106bd576106bc610671565b5b5f6106ca84828501610694565b91505092915050565b5f73ffffffffffffffffffffffffffffffffffffffff82169050919050565b5f6106fc826106d3565b9050919050565b61070c816106f2565b8114610716575f5ffd5b50565b5f8135905061072781610703565b92915050565b5f6020828403121561074257610741610671565b5b5f61074f84828501610719565b91505092915050565b5f8115159050919050565b61076c81610758565b82525050565b5f6020820190506107855f830184610763565b92915050565b5f81519050919050565b5f82825260208201905092915050565b5f819050602082019050919050565b6107bd816106f2565b82525050565b5f6107ce83836107b4565b60208301905092915050565b5f602082019050919050565b5f6107f08261078b565b6107fa8185610795565b9350610805836107a5565b805f5b8381101561083557815161081c88826107c3565b9750610827836107da565b925050600181019050610808565b5085935050505092915050565b5f6020820190508181035f83015261085a81846107e6565b905092915050565b61086b81610675565b82525050565b5f6020820190506108845f830184610862565b92915050565b610893816106f2565b82525050565b5f6020820190506108ac5f83018461088a565b92915050565b5f82825260208201905092915050565b7f4d656d626572206e6f74207265676973746572656400000000000000000000005f82015250565b5f6108f66015836108b2565b9150610901826108c2565b602082019050919050565b5f6020820190508181035f830152610923816108ea565b9050919050565b7f496e76616c696420616d6f756e740000000000000000000000000000000000005f82015250565b5f61095e600e836108b2565b91506109698261092a565b602082019050919050565b5f6020820190508181035f83015261098b81610952565b9050919050565b7f496e73756666696369656e742062616c616e63650000000000000000000000005f82015250565b5f6109c66014836108b2565b91506109d182610992565b602082019050919050565b5f6020820190508181035f8301526109f3816109ba565b9050919050565b7f4e487b71000000000000000000000000000000000000000000000000000000005f52601160045260245ffd5b5f610a3182610675565b9150610a3c83610675565b9250828203905081811115610a5457610a536109fa565b5b92915050565b5f610a6482610675565b9150610a6f83610675565b9250828201905080821115610a8757610a866109fa565b5b92915050565b7f496e76616c6964206164647265737300000000000000000000000000000000005f82015250565b5f610ac1600f836108b2565b9150610acc82610a8d565b602082019050919050565b5f6020820190508181035f830152610aee81610ab5565b905091905056fea26469706673582212206abb45bc14f9cf0fd2ca798bffbdd563930066a032ae1b81c9d488111fbb7cf364736f6c634300081e0033",
					"opcodes": "PUSH1 0x80 PUSH1 0x40 MSTORE CALLVALUE DUP1 ISZERO PUSH1 0xE JUMPI PUSH0 PUSH0 REVERT JUMPDEST POP CALLER PUSH0 PUSH0 PUSH2 0x100 EXP DUP2 SLOAD DUP2 PUSH20 0xFFFFFFFFFFFFFFFFFFFFFFFFFFFFFFFFFFFFFFFF MUL NOT AND SWAP1 DUP4 PUSH20 0xFFFFFFFFFFFFFFFFFFFFFFFFFFFFFFFFFFFFFFFF AND MUL OR SWAP1 SSTORE POP PUSH1 0x1 CALLER SWAP1 DUP1 PUSH1 0x1 DUP2 SLOAD ADD DUP1 DUP3 SSTORE DUP1 SWAP2 POP POP PUSH1 0x1 SWAP1 SUB SWAP1 PUSH0 MSTORE PUSH1 0x20 PUSH0 KECCAK256 ADD PUSH0 SWAP1 SWAP2 SWAP1 SWAP2 SWAP1 SWAP2 PUSH2 0x100 EXP DUP2 SLOAD DUP2 PUSH20 0xFFFFFFFFFFFFFFFFFFFFFFFFFFFFFFFFFFFFFFFF MUL NOT AND SWAP1 DUP4 PUSH20 0xFFFFFFFFFFFFFFFFFFFFFFFFFFFFFFFFFFFFFFFF AND MUL OR SWAP1 SSTORE POP PUSH2 0xB2B DUP1 PUSH2 0xBB PUSH0 CODECOPY PUSH0 RETURN INVALID PUSH1 0x80 PUSH1 0x40 MSTORE PUSH1 0x4 CALLDATASIZE LT PUSH2 0x6F JUMPI PUSH0 CALLDATALOAD PUSH1 0xE0 SHR DUP1 PUSH4 0xC379C3E8 GT PUSH2 0x4D JUMPI DUP1 PUSH4 0xC379C3E8 EQ PUSH2 0x101 JUMPI DUP1 PUSH4 0xE3D670D7 EQ PUSH2 0x10B JUMPI DUP1 PUSH4 0xE9E2990E EQ PUSH2 0x147 JUMPI DUP1 PUSH4 0xF8B2CB4F EQ PUSH2 0x171 JUMPI PUSH2 0x6F JUMP JUMPDEST DUP1 PUSH4 0x562B9F7 EQ PUSH2 0x73 JUMPI DUP1 PUSH4 0x7254647A EQ PUSH2 0x9B JUMPI DUP1 PUSH4 0x9EAB5253 EQ PUSH2 0xD7 JUMPI JUMPDEST PUSH0 PUSH0 REVERT JUMPDEST CALLVALUE DUP1 ISZERO PUSH2 0x7E JUMPI PUSH0 PUSH0 REVERT JUMPDEST POP PUSH2 0x99 PUSH1 0x4 DUP1 CALLDATASIZE SUB DUP2 ADD SWAP1 PUSH2 0x94 SWAP2 SWAP1 PUSH2 0x6A8 JUMP JUMPDEST PUSH2 0x1AD JUMP JUMPDEST STOP JUMPDEST CALLVALUE DUP1 ISZERO PUSH2 0xA6 JUMPI PUSH0 PUSH0 REVERT JUMPDEST POP PUSH2 0xC1 PUSH1 0x4 DUP1 CALLDATASIZE SUB DUP2 ADD SWAP1 PUSH2 0xBC SWAP2 SWAP1 PUSH2 0x72D JUMP JUMPDEST PUSH2 0x385 JUMP JUMPDEST PUSH1 0x40 MLOAD PUSH2 0xCE SWAP2 SWAP1 PUSH2 0x772 JUMP JUMPDEST PUSH1 0x40 MLOAD DUP1 SWAP2 SUB SWAP1 RETURN JUMPDEST CALLVALUE DUP1 ISZERO PUSH2 0xE2 JUMPI PUSH0 PUSH0 REVERT JUMPDEST POP PUSH2 0xEB PUSH2 0x3A2 JUMP JUMPDEST PUSH1 0x40 MLOAD PUSH2 0xF8 SWAP2 SWAP1 PUSH2 0x842 JUMP JUMPDEST PUSH1 0x40 MLOAD DUP1 SWAP2 SUB SWAP1 RETURN JUMPDEST PUSH2 0x109 PUSH2 0x42D JUMP JUMPDEST STOP JUMPDEST CALLVALUE DUP1 ISZERO PUSH2 0x116 JUMPI PUSH0 PUSH0 REVERT JUMPDEST POP PUSH2 0x131 PUSH1 0x4 DUP1 CALLDATASIZE SUB DUP2 ADD SWAP1 PUSH2 0x12C SWAP2 SWAP1 PUSH2 0x72D JUMP JUMPDEST PUSH2 0x584 JUMP JUMPDEST PUSH1 0x40 MLOAD PUSH2 0x13E SWAP2 SWAP1 PUSH2 0x871 JUMP JUMPDEST PUSH1 0x40 MLOAD DUP1 SWAP2 SUB SWAP1 RETURN JUMPDEST CALLVALUE DUP1 ISZERO PUSH2 0x152 JUMPI PUSH0 PUSH0 REVERT JUMPDEST POP PUSH2 0x15B PUSH2 0x599 JUMP JUMPDEST PUSH1 0x40 MLOAD PUSH2 0x168 SWAP2 SWAP1 PUSH2 0x899 JUMP JUMPDEST PUSH1 0x40 MLOAD DUP1 SWAP2 SUB SWAP1 RETURN JUMPDEST CALLVALUE DUP1 ISZERO PUSH2 0x17C JUMPI PUSH0 PUSH0 REVERT JUMPDEST POP PUSH2 0x197 PUSH1 0x4 DUP1 CALLDATASIZE SUB DUP2 ADD SWAP1 PUSH2 0x192 SWAP2 SWAP1 PUSH2 0x72D JUMP JUMPDEST PUSH2 0x5BD JUMP JUMPDEST PUSH1 0x40 MLOAD PUSH2 0x1A4 SWAP2 SWAP1 PUSH2 0x871 JUMP JUMPDEST PUSH1 0x40 MLOAD DUP1 SWAP2 SUB SWAP1 RETURN JUMPDEST PUSH1 0x2 PUSH0 CALLER PUSH20 0xFFFFFFFFFFFFFFFFFFFFFFFFFFFFFFFFFFFFFFFF AND PUSH20 0xFFFFFFFFFFFFFFFFFFFFFFFFFFFFFFFFFFFFFFFF AND DUP2 MSTORE PUSH1 0x20 ADD SWAP1 DUP2 MSTORE PUSH1 0x20 ADD PUSH0 KECCAK256 PUSH0 SWAP1 SLOAD SWAP1 PUSH2 0x100 EXP SWAP1 DIV PUSH1 0xFF AND PUSH2 0x236 JUMPI PUSH1 0x40 MLOAD PUSH32 0x8C379A000000000000000000000000000000000000000000000000000000000 DUP2 MSTORE PUSH1 0x4 ADD PUSH2 0x22D SWAP1 PUSH2 0x90C JUMP JUMPDEST PUSH1 0x40 MLOAD DUP1 SWAP2 SUB SWAP1 REVERT JUMPDEST PUSH0 DUP2 GT PUSH2 0x278 JUMPI PUSH1 0x40 MLOAD PUSH32 0x8C379A000000000000000000000000000000000000000000000000000000000 DUP2 MSTORE PUSH1 0x4 ADD PUSH2 0x26F SWAP1 PUSH2 0x974 JUMP JUMPDEST PUSH1 0x40 MLOAD DUP1 SWAP2 SUB SWAP1 REVERT JUMPDEST DUP1 PUSH1 0x3 PUSH0 CALLER PUSH20 0xFFFFFFFFFFFFFFFFFFFFFFFFFFFFFFFFFFFFFFFF AND PUSH20 0xFFFFFFFFFFFFFFFFFFFFFFFFFFFFFFFFFFFFFFFF AND DUP2 MSTORE PUSH1 0x20 ADD SWAP1 DUP2 MSTORE PUSH1 0x20 ADD PUSH0 KECCAK256 SLOAD LT ISZERO PUSH2 0x2F8 JUMPI PUSH1 0x40 MLOAD PUSH32 0x8C379A000000000000000000000000000000000000000000000000000000000 DUP2 MSTORE PUSH1 0x4 ADD PUSH2 0x2EF SWAP1 PUSH2 0x9DC JUMP JUMPDEST PUSH1 0x40 MLOAD DUP1 SWAP2 SUB SWAP1 REVERT JUMPDEST DUP1 PUSH1 0x3 PUSH0 CALLER PUSH20 0xFFFFFFFFFFFFFFFFFFFFFFFFFFFFFFFFFFFFFFFF AND PUSH20 0xFFFFFFFFFFFFFFFFFFFFFFFFFFFFFFFFFFFFFFFF AND DUP2 MSTORE PUSH1 0x20 ADD SWAP1 DUP2 MSTORE PUSH1 0x20 ADD PUSH0 KECCAK256 SLOAD PUSH2 0x341 SWAP2 SWAP1 PUSH2 0xA27 JUMP JUMPDEST PUSH1 0x3 PUSH0 CALLER PUSH20 0xFFFFFFFFFFFFFFFFFFFFFFFFFFFFFFFFFFFFFFFF AND PUSH20 0xFFFFFFFFFFFFFFFFFFFFFFFFFFFFFFFFFFFFFFFF AND DUP2 MSTORE PUSH1 0x20 ADD SWAP1 DUP2 MSTORE PUSH1 0x20 ADD PUSH0 KECCAK256 DUP2 SWAP1 SSTORE POP POP JUMP JUMPDEST PUSH1 0x2 PUSH1 0x20 MSTORE DUP1 PUSH0 MSTORE PUSH1 0x40 PUSH0 KECCAK256 PUSH0 SWAP2 POP SLOAD SWAP1 PUSH2 0x100 EXP SWAP1 DIV PUSH1 0xFF AND DUP2 JUMP JUMPDEST PUSH1 0x60 PUSH1 0x1 DUP1 SLOAD DUP1 PUSH1 0x20 MUL PUSH1 0x20 ADD PUSH1 0x40 MLOAD SWAP1 DUP2 ADD PUSH1 0x40 MSTORE DUP1 SWAP3 SWAP2 SWAP1 DUP2 DUP2 MSTORE PUSH1 0x20 ADD DUP3 DUP1 SLOAD DUP1 ISZERO PUSH2 0x423 JUMPI PUSH1 0x20 MUL DUP3 ADD SWAP2 SWAP1 PUSH0 MSTORE PUSH1 0x20 PUSH0 KECCAK256 SWAP1 JUMPDEST DUP2 PUSH0 SWAP1 SLOAD SWAP1 PUSH2 0x100 EXP SWAP1 DIV PUSH20 0xFFFFFFFFFFFFFFFFFFFFFFFFFFFFFFFFFFFFFFFF AND PUSH20 0xFFFFFFFFFFFFFFFFFFFFFFFFFFFFFFFFFFFFFFFF AND DUP2 MSTORE PUSH1 0x20 ADD SWAP1 PUSH1 0x1 ADD SWAP1 DUP1 DUP4 GT PUSH2 0x3DA JUMPI JUMPDEST POP POP POP POP POP SWAP1 POP SWAP1 JUMP JUMPDEST PUSH1 0x2 PUSH0 CALLER PUSH20 0xFFFFFFFFFFFFFFFFFFFFFFFFFFFFFFFFFFFFFFFF AND PUSH20 0xFFFFFFFFFFFFFFFFFFFFFFFFFFFFFFFFFFFFFFFF AND DUP2 MSTORE PUSH1 0x20 ADD SWAP1 DUP2 MSTORE PUSH1 0x20 ADD PUSH0 KECCAK256 PUSH0 SWAP1 SLOAD SWAP1 PUSH2 0x100 EXP SWAP1 DIV PUSH1 0xFF AND PUSH2 0x4B6 JUMPI PUSH1 0x40 MLOAD PUSH32 0x8C379A000000000000000000000000000000000000000000000000000000000 DUP2 MSTORE PUSH1 0x4 ADD PUSH2 0x4AD SWAP1 PUSH2 0x90C JUMP JUMPDEST PUSH1 0x40 MLOAD DUP1 SWAP2 SUB SWAP1 REVERT JUMPDEST PUSH0 CALLVALUE GT PUSH2 0x4F8 JUMPI PUSH1 0x40 MLOAD PUSH32 0x8C379A000000000000000000000000000000000000000000000000000000000 DUP2 MSTORE PUSH1 0x4 ADD PUSH2 0x4EF SWAP1 PUSH2 0x974 JUMP JUMPDEST PUSH1 0x40 MLOAD DUP1 SWAP2 SUB SWAP1 REVERT JUMPDEST CALLVALUE PUSH1 0x3 PUSH0 CALLER PUSH20 0xFFFFFFFFFFFFFFFFFFFFFFFFFFFFFFFFFFFFFFFF AND PUSH20 0xFFFFFFFFFFFFFFFFFFFFFFFFFFFFFFFFFFFFFFFF AND DUP2 MSTORE PUSH1 0x20 ADD SWAP1 DUP2 MSTORE PUSH1 0x20 ADD PUSH0 KECCAK256 SLOAD PUSH2 0x541 SWAP2 SWAP1 PUSH2 0xA5A JUMP JUMPDEST PUSH1 0x3 PUSH0 CALLER PUSH20 0xFFFFFFFFFFFFFFFFFFFFFFFFFFFFFFFFFFFFFFFF AND PUSH20 0xFFFFFFFFFFFFFFFFFFFFFFFFFFFFFFFFFFFFFFFF AND DUP2 MSTORE PUSH1 0x20 ADD SWAP1 DUP2 MSTORE PUSH1 0x20 ADD PUSH0 KECCAK256 DUP2 SWAP1 SSTORE POP JUMP JUMPDEST PUSH1 0x3 PUSH1 0x20 MSTORE DUP1 PUSH0 MSTORE PUSH1 0x40 PUSH0 KECCAK256 PUSH0 SWAP2 POP SWAP1 POP SLOAD DUP2 JUMP JUMPDEST PUSH0 PUSH0 SWAP1 SLOAD SWAP1 PUSH2 0x100 EXP SWAP1 DIV PUSH20 0xFFFFFFFFFFFFFFFFFFFFFFFFFFFFFFFFFFFFFFFF AND DUP2 JUMP JUMPDEST PUSH0 PUSH0 PUSH20 0xFFFFFFFFFFFFFFFFFFFFFFFFFFFFFFFFFFFFFFFF AND DUP3 PUSH20 0xFFFFFFFFFFFFFFFFFFFFFFFFFFFFFFFFFFFFFFFF AND SUB PUSH2 0x62C JUMPI PUSH1 0x40 MLOAD PUSH32 0x8C379A000000000000000000000000000000000000000000000000000000000 DUP2 MSTORE PUSH1 0x4 ADD PUSH2 0x623 SWAP1 PUSH2 0xAD7 JUMP JUMPDEST PUSH1 0x40 MLOAD DUP1 SWAP2 SUB SWAP1 REVERT JUMPDEST PUSH1 0x3 PUSH0 DUP4 PUSH20 0xFFFFFFFFFFFFFFFFFFFFFFFFFFFFFFFFFFFFFFFF AND PUSH20 0xFFFFFFFFFFFFFFFFFFFFFFFFFFFFFFFFFFFFFFFF AND DUP2 MSTORE PUSH1 0x20 ADD SWAP1 DUP2 MSTORE PUSH1 0x20 ADD PUSH0 KECCAK256 SLOAD SWAP1 POP SWAP2 SWAP1 POP JUMP JUMPDEST PUSH0 PUSH0 REVERT JUMPDEST PUSH0 DUP2 SWAP1 POP SWAP2 SWAP1 POP JUMP JUMPDEST PUSH2 0x687 DUP2 PUSH2 0x675 JUMP JUMPDEST DUP2 EQ PUSH2 0x691 JUMPI PUSH0 PUSH0 REVERT JUMPDEST POP JUMP JUMPDEST PUSH0 DUP2 CALLDATALOAD SWAP1 POP PUSH2 0x6A2 DUP2 PUSH2 0x67E JUMP JUMPDEST SWAP3 SWAP2 POP POP JUMP JUMPDEST PUSH0 PUSH1 0x20 DUP3 DUP5 SUB SLT ISZERO PUSH2 0x6BD JUMPI PUSH2 0x6BC PUSH2 0x671 JUMP JUMPDEST JUMPDEST PUSH0 PUSH2 0x6CA DUP5 DUP3 DUP6 ADD PUSH2 0x694 JUMP JUMPDEST SWAP2 POP POP SWAP3 SWAP2 POP POP JUMP JUMPDEST PUSH0 PUSH20 0xFFFFFFFFFFFFFFFFFFFFFFFFFFFFFFFFFFFFFFFF DUP3 AND SWAP1 POP SWAP2 SWAP1 POP JUMP JUMPDEST PUSH0 PUSH2 0x6FC DUP3 PUSH2 0x6D3 JUMP JUMPDEST SWAP1 POP SWAP2 SWAP1 POP JUMP JUMPDEST PUSH2 0x70C DUP2 PUSH2 0x6F2 JUMP JUMPDEST DUP2 EQ PUSH2 0x716 JUMPI PUSH0 PUSH0 REVERT JUMPDEST POP JUMP JUMPDEST PUSH0 DUP2 CALLDATALOAD SWAP1 POP PUSH2 0x727 DUP2 PUSH2 0x703 JUMP JUMPDEST SWAP3 SWAP2 POP POP JUMP JUMPDEST PUSH0 PUSH1 0x20 DUP3 DUP5 SUB SLT ISZERO PUSH2 0x742 JUMPI PUSH2 0x741 PUSH2 0x671 JUMP JUMPDEST JUMPDEST PUSH0 PUSH2 0x74F DUP5 DUP3 DUP6 ADD PUSH2 0x719 JUMP JUMPDEST SWAP2 POP POP SWAP3 SWAP2 POP POP JUMP JUMPDEST PUSH0 DUP2 ISZERO ISZERO SWAP1 POP SWAP2 SWAP1 POP JUMP JUMPDEST PUSH2 0x76C DUP2 PUSH2 0x758 JUMP JUMPDEST DUP3 MSTORE POP POP JUMP JUMPDEST PUSH0 PUSH1 0x20 DUP3 ADD SWAP1 POP PUSH2 0x785 PUSH0 DUP4 ADD DUP5 PUSH2 0x763 JUMP JUMPDEST SWAP3 SWAP2 POP POP JUMP JUMPDEST PUSH0 DUP2 MLOAD SWAP1 POP SWAP2 SWAP1 POP JUMP JUMPDEST PUSH0 DUP3 DUP3 MSTORE PUSH1 0x20 DUP3 ADD SWAP1 POP SWAP3 SWAP2 POP POP JUMP JUMPDEST PUSH0 DUP2 SWAP1 POP PUSH1 0x20 DUP3 ADD SWAP1 POP SWAP2 SWAP1 POP JUMP JUMPDEST PUSH2 0x7BD DUP2 PUSH2 0x6F2 JUMP JUMPDEST DUP3 MSTORE POP POP JUMP JUMPDEST PUSH0 PUSH2 0x7CE DUP4 DUP4 PUSH2 0x7B4 JUMP JUMPDEST PUSH1 0x20 DUP4 ADD SWAP1 POP SWAP3 SWAP2 POP POP JUMP JUMPDEST PUSH0 PUSH1 0x20 DUP3 ADD SWAP1 POP SWAP2 SWAP1 POP JUMP JUMPDEST PUSH0 PUSH2 0x7F0 DUP3 PUSH2 0x78B JUMP JUMPDEST PUSH2 0x7FA DUP2 DUP6 PUSH2 0x795 JUMP JUMPDEST SWAP4 POP PUSH2 0x805 DUP4 PUSH2 0x7A5 JUMP JUMPDEST DUP1 PUSH0 JUMPDEST DUP4 DUP2 LT ISZERO PUSH2 0x835 JUMPI DUP2 MLOAD PUSH2 0x81C DUP9 DUP3 PUSH2 0x7C3 JUMP JUMPDEST SWAP8 POP PUSH2 0x827 DUP4 PUSH2 0x7DA JUMP JUMPDEST SWAP3 POP POP PUSH1 0x1 DUP2 ADD SWAP1 POP PUSH2 0x808 JUMP JUMPDEST POP DUP6 SWAP4 POP POP POP POP SWAP3 SWAP2 POP POP JUMP JUMPDEST PUSH0 PUSH1 0x20 DUP3 ADD SWAP1 POP DUP2 DUP2 SUB PUSH0 DUP4 ADD MSTORE PUSH2 0x85A DUP2 DUP5 PUSH2 0x7E6 JUMP JUMPDEST SWAP1 POP SWAP3 SWAP2 POP POP JUMP JUMPDEST PUSH2 0x86B DUP2 PUSH2 0x675 JUMP JUMPDEST DUP3 MSTORE POP POP JUMP JUMPDEST PUSH0 PUSH1 0x20 DUP3 ADD SWAP1 POP PUSH2 0x884 PUSH0 DUP4 ADD DUP5 PUSH2 0x862 JUMP JUMPDEST SWAP3 SWAP2 POP POP JUMP JUMPDEST PUSH2 0x893 DUP2 PUSH2 0x6F2 JUMP JUMPDEST DUP3 MSTORE POP POP JUMP JUMPDEST PUSH0 PUSH1 0x20 DUP3 ADD SWAP1 POP PUSH2 0x8AC PUSH0 DUP4 ADD DUP5 PUSH2 0x88A JUMP JUMPDEST SWAP3 SWAP2 POP POP JUMP JUMPDEST PUSH0 DUP3 DUP3 MSTORE PUSH1 0x20 DUP3 ADD SWAP1 POP SWAP3 SWAP2 POP POP JUMP JUMPDEST PUSH32 0x4D656D626572206E6F7420726567697374657265640000000000000000000000 PUSH0 DUP3 ADD MSTORE POP JUMP JUMPDEST PUSH0 PUSH2 0x8F6 PUSH1 0x15 DUP4 PUSH2 0x8B2 JUMP JUMPDEST SWAP2 POP PUSH2 0x901 DUP3 PUSH2 0x8C2 JUMP JUMPDEST PUSH1 0x20 DUP3 ADD SWAP1 POP SWAP2 SWAP1 POP JUMP JUMPDEST PUSH0 PUSH1 0x20 DUP3 ADD SWAP1 POP DUP2 DUP2 SUB PUSH0 DUP4 ADD MSTORE PUSH2 0x923 DUP2 PUSH2 0x8EA JUMP JUMPDEST SWAP1 POP SWAP2 SWAP1 POP JUMP JUMPDEST PUSH32 0x496E76616C696420616D6F756E74000000000000000000000000000000000000 PUSH0 DUP3 ADD MSTORE POP JUMP JUMPDEST PUSH0 PUSH2 0x95E PUSH1 0xE DUP4 PUSH2 0x8B2 JUMP JUMPDEST SWAP2 POP PUSH2 0x969 DUP3 PUSH2 0x92A JUMP JUMPDEST PUSH1 0x20 DUP3 ADD SWAP1 POP SWAP2 SWAP1 POP JUMP JUMPDEST PUSH0 PUSH1 0x20 DUP3 ADD SWAP1 POP DUP2 DUP2 SUB PUSH0 DUP4 ADD MSTORE PUSH2 0x98B DUP2 PUSH2 0x952 JUMP JUMPDEST SWAP1 POP SWAP2 SWAP1 POP JUMP JUMPDEST PUSH32 0x496E73756666696369656E742062616C616E6365000000000000000000000000 PUSH0 DUP3 ADD MSTORE POP JUMP JUMPDEST PUSH0 PUSH2 0x9C6 PUSH1 0x14 DUP4 PUSH2 0x8B2 JUMP JUMPDEST SWAP2 POP PUSH2 0x9D1 DUP3 PUSH2 0x992 JUMP JUMPDEST PUSH1 0x20 DUP3 ADD SWAP1 POP SWAP2 SWAP1 POP JUMP JUMPDEST PUSH0 PUSH1 0x20 DUP3 ADD SWAP1 POP DUP2 DUP2 SUB PUSH0 DUP4 ADD MSTORE PUSH2 0x9F3 DUP2 PUSH2 0x9BA JUMP JUMPDEST SWAP1 POP SWAP2 SWAP1 POP JUMP JUMPDEST PUSH32 0x4E487B7100000000000000000000000000000000000000000000000000000000 PUSH0 MSTORE PUSH1 0x11 PUSH1 0x4 MSTORE PUSH1 0x24 PUSH0 REVERT JUMPDEST PUSH0 PUSH2 0xA31 DUP3 PUSH2 0x675 JUMP JUMPDEST SWAP2 POP PUSH2 0xA3C DUP4 PUSH2 0x675 JUMP JUMPDEST SWAP3 POP DUP3 DUP3 SUB SWAP1 POP DUP2 DUP2 GT ISZERO PUSH2 0xA54 JUMPI PUSH2 0xA53 PUSH2 0x9FA JUMP JUMPDEST JUMPDEST SWAP3 SWAP2 POP POP JUMP JUMPDEST PUSH0 PUSH2 0xA64 DUP3 PUSH2 0x675 JUMP JUMPDEST SWAP2 POP PUSH2 0xA6F DUP4 PUSH2 0x675 JUMP JUMPDEST SWAP3 POP DUP3 DUP3 ADD SWAP1 POP DUP1 DUP3 GT ISZERO PUSH2 0xA87 JUMPI PUSH2 0xA86 PUSH2 0x9FA JUMP JUMPDEST JUMPDEST SWAP3 SWAP2 POP POP JUMP JUMPDEST PUSH32 0x496E76616C696420616464726573730000000000000000000000000000000000 PUSH0 DUP3 ADD MSTORE POP JUMP JUMPDEST PUSH0 PUSH2 0xAC1 PUSH1 0xF DUP4 PUSH2 0x8B2 JUMP JUMPDEST SWAP2 POP PUSH2 0xACC DUP3 PUSH2 0xA8D JUMP JUMPDEST PUSH1 0x20 DUP3 ADD SWAP1 POP SWAP2 SWAP1 POP JUMP JUMPDEST PUSH0 PUSH1 0x20 DUP3 ADD SWAP1 POP DUP2 DUP2 SUB PUSH0 DUP4 ADD MSTORE PUSH2 0xAEE DUP2 PUSH2 0xAB5 JUMP JUMPDEST SWAP1 POP SWAP2 SWAP1 POP JUMP INVALID LOG2 PUSH5 0x6970667358 0x22 SLT KECCAK256 PUSH11 0xBB45BC14F9CF0FD2CA798B SELFDESTRUCT 0xBD 0xD5 PUSH4 0x930066A0 ORIGIN 0xAE SHL DUP2 0xC9 0xD4 DUP9 GT 0x1F 0xBB PUSH29 0xF364736F6C634300081E00330000000000000000000000000000000000 "
				},
				"gasEstimates": {
					"creation": {
						"codeDepositCost": "571800",
						"executionCost": "73443",
						"totalCost": "645243"
					},
					"external": {
						"balance(address)": "2824",
						"bankManager()": "2551",
						"depositAmountEther()": "infinite",
						"getBalance(address)": "2929",
						"getMembers()": "infinite",
						"registeredMembers(address)": "2856",
						"withdrawAmount(uint256)": "infinite"
					}
				},
				"methodIdentifiers": {
					"balance(address)": "e3d670d7",
					"bankManager()": "e9e2990e",
					"depositAmountEther()": "c379c3e8",
					"getBalance(address)": "f8b2cb4f",
					"getMembers()": "9eab5253",
					"registeredMembers(address)": "7254647a",
					"withdrawAmount(uint256)": "0562b9f7"
				}
			},
			"storageLayout": {
				"storage": [
					{
						"astId": 3,
						"contract": "submissions/Zora/Day6EtherPiggyBank.sol:EtherPiggyBank",
						"label": "bankManager",
						"offset": 0,
						"slot": "0",
						"type": "t_address"
					},
					{
						"astId": 6,
						"contract": "submissions/Zora/Day6EtherPiggyBank.sol:EtherPiggyBank",
						"label": "members",
						"offset": 0,
						"slot": "1",
						"type": "t_array(t_address)dyn_storage"
					},
					{
						"astId": 10,
						"contract": "submissions/Zora/Day6EtherPiggyBank.sol:EtherPiggyBank",
						"label": "registeredMembers",
						"offset": 0,
						"slot": "2",
						"type": "t_mapping(t_address,t_bool)"
					},
					{
						"astId": 14,
						"contract": "submissions/Zora/Day6EtherPiggyBank.sol:EtherPiggyBank",
						"label": "balance",
						"offset": 0,
						"slot": "3",
						"type": "t_mapping(t_address,t_uint256)"
					}
				],
				"types": {
					"t_address": {
						"encoding": "inplace",
						"label": "address",
						"numberOfBytes": "20"
					},
					"t_array(t_address)dyn_storage": {
						"base": "t_address",
						"encoding": "dynamic_array",
						"label": "address[]",
						"numberOfBytes": "32"
					},
					"t_bool": {
						"encoding": "inplace",
						"label": "bool",
						"numberOfBytes": "1"
					},
					"t_mapping(t_address,t_bool)": {
						"encoding": "mapping",
						"key": "t_address",
						"label": "mapping(address => bool)",
						"numberOfBytes": "32",
						"value": "t_bool"
					},
					"t_mapping(t_address,t_uint256)": {
						"encoding": "mapping",
						"key": "t_address",
						"label": "mapping(address => uint256)",
						"numberOfBytes": "32",
						"value": "t_uint256"
					},
					"t_uint256": {
						"encoding": "inplace",
						"label": "uint256",
						"numberOfBytes": "32"
					}
				}
			},
			"userdoc": {
				"kind": "user",
				"methods": {},
				"version": 1
			}
		}
	}
}