{
	"submissions/Zora/Day24EhancedSimpleEscrow.sol": {
		"EnhancedSimpleEscrow": {
			"abi": [
				{
					"inputs": [
						{
							"internalType": "address",
							"name": "_seller",
							"type": "address"
						},
						{
							"internalType": "address",
							"name": "_arbiter",
							"type": "address"
						},
						{
							"internalType": "uint256",
							"name": "_deliveryTimeout",
							"type": "uint256"
						}
					],
					"stateMutability": "nonpayable",
					"type": "constructor"
				},
				{
					"anonymous": false,
					"inputs": [
						{
							"indexed": true,
							"internalType": "address",
							"name": "buyer",
							"type": "address"
						},
						{
							"indexed": true,
							"internalType": "address",
							"name": "seller",
							"type": "address"
						},
						{
							"indexed": false,
							"internalType": "uint256",
							"name": "amount",
							"type": "uint256"
						}
					],
					"name": "DeliveryConfirmed",
					"type": "event"
				},
				{
					"anonymous": false,
					"inputs": [
						{
							"indexed": true,
							"internalType": "address",
							"name": "buyer",
							"type": "address"
						}
					],
					"name": "DeliveryTimeoutReached",
					"type": "event"
				},
				{
					"anonymous": false,
					"inputs": [
						{
							"indexed": true,
							"internalType": "address",
							"name": "initiator",
							"type": "address"
						}
					],
					"name": "DisputeRaised",
					"type": "event"
				},
				{
					"anonymous": false,
					"inputs": [
						{
							"indexed": true,
							"internalType": "address",
							"name": "arbiter",
							"type": "address"
						},
						{
							"indexed": false,
							"internalType": "address",
							"name": "recipient",
							"type": "address"
						},
						{
							"indexed": false,
							"internalType": "uint256",
							"name": "amount",
							"type": "uint256"
						}
					],
					"name": "DisputeResolved",
					"type": "event"
				},
				{
					"anonymous": false,
					"inputs": [
						{
							"indexed": true,
							"internalType": "address",
							"name": "initiator",
							"type": "address"
						}
					],
					"name": "EscrowCancelled",
					"type": "event"
				},
				{
					"anonymous": false,
					"inputs": [
						{
							"indexed": true,
							"internalType": "address",
							"name": "buyer",
							"type": "address"
						},
						{
							"indexed": false,
							"internalType": "uint256",
							"name": "amount",
							"type": "uint256"
						}
					],
					"name": "PaymentDeposited",
					"type": "event"
				},
				{
					"inputs": [],
					"name": "amount",
					"outputs": [
						{
							"internalType": "uint256",
							"name": "",
							"type": "uint256"
						}
					],
					"stateMutability": "view",
					"type": "function"
				},
				{
					"inputs": [],
					"name": "arbiter",
					"outputs": [
						{
							"internalType": "address",
							"name": "",
							"type": "address"
						}
					],
					"stateMutability": "view",
					"type": "function"
				},
				{
					"inputs": [],
					"name": "buyer",
					"outputs": [
						{
							"internalType": "address",
							"name": "",
							"type": "address"
						}
					],
					"stateMutability": "view",
					"type": "function"
				},
				{
					"inputs": [],
					"name": "cancelAfterTimeout",
					"outputs": [],
					"stateMutability": "nonpayable",
					"type": "function"
				},
				{
					"inputs": [],
					"name": "cancelMutual",
					"outputs": [],
					"stateMutability": "nonpayable",
					"type": "function"
				},
				{
					"inputs": [],
					"name": "confirmDelivery",
					"outputs": [],
					"stateMutability": "nonpayable",
					"type": "function"
				},
				{
					"inputs": [],
					"name": "deliveryTimeout",
					"outputs": [
						{
							"internalType": "uint256",
							"name": "",
							"type": "uint256"
						}
					],
					"stateMutability": "view",
					"type": "function"
				},
				{
					"inputs": [],
					"name": "deposit",
					"outputs": [],
					"stateMutability": "payable",
					"type": "function"
				},
				{
					"inputs": [],
					"name": "depositTime",
					"outputs": [
						{
							"internalType": "uint256",
							"name": "",
							"type": "uint256"
						}
					],
					"stateMutability": "view",
					"type": "function"
				},
				{
					"inputs": [],
					"name": "getTimeLeft",
					"outputs": [
						{
							"internalType": "uint256",
							"name": "",
							"type": "uint256"
						}
					],
					"stateMutability": "view",
					"type": "function"
				},
				{
					"inputs": [],
					"name": "raiseDispute",
					"outputs": [],
					"stateMutability": "nonpayable",
					"type": "function"
				},
				{
					"inputs": [
						{
							"internalType": "bool",
							"name": "_releaseToSeller",
							"type": "bool"
						}
					],
					"name": "resolveDispute",
					"outputs": [],
					"stateMutability": "nonpayable",
					"type": "function"
				},
				{
					"inputs": [],
					"name": "seller",
					"outputs": [
						{
							"internalType": "address",
							"name": "",
							"type": "address"
						}
					],
					"stateMutability": "view",
					"type": "function"
				},
				{
					"inputs": [],
					"name": "state",
					"outputs": [
						{
							"internalType": "enum EnhancedSimpleEscrow.EscrowState",
							"name": "",
							"type": "uint8"
						}
					],
					"stateMutability": "view",
					"type": "function"
				},
				{
					"stateMutability": "payable",
					"type": "receive"
				}
			],
			"devdoc": {
				"kind": "dev",
				"methods": {},
				"title": "EnhancedSimpleEscrow - 具有超时、取消和事件的安全托管合约",
				"version": 1
			},
			"evm": {
				"assembly": "    /* \"submissions/Zora/Day24EhancedSimpleEscrow.sol\":148:5407  contract EnhancedSimpleEscrow {... */\n  mstore(0x40, 0xe0)\n    /* \"submissions/Zora/Day24EhancedSimpleEscrow.sol\":1254:1784  constructor(address _seller, address _arbiter, uint256 _deliveryTimeout) {... */\n  callvalue\n  dup1\n  iszero\n  tag_1\n  jumpi\n  revert(0x00, 0x00)\ntag_1:\n  pop\n  mload(0x40)\n  sub(codesize, bytecodeSize)\n  dup1\n  bytecodeSize\n  dup4\n  codecopy\n  dup2\n  dup2\n  add\n  0x40\n  mstore\n  dup2\n  add\n  swap1\n  tag_2\n  swap2\n  swap1\n  tag_3\n  jump\t// in\ntag_2:\n    /* \"submissions/Zora/Day24EhancedSimpleEscrow.sol\":1390:1391  0 */\n  0x00\n    /* \"submissions/Zora/Day24EhancedSimpleEscrow.sol\":1371:1387  _deliveryTimeout */\n  dup2\n    /* \"submissions/Zora/Day24EhancedSimpleEscrow.sol\":1371:1391  _deliveryTimeout > 0 */\n  gt\n    /* \"submissions/Zora/Day24EhancedSimpleEscrow.sol\":1363:1438  require(_deliveryTimeout > 0, \"Delivery timeout must be greater than zero\") */\n  tag_6\n  jumpi\n  mload(0x40)\n  0x08c379a000000000000000000000000000000000000000000000000000000000\n  dup2\n  mstore\n  0x04\n  add\n  tag_7\n  swap1\n  tag_8\n  jump\t// in\ntag_7:\n  mload(0x40)\n  dup1\n  swap2\n  sub\n  swap1\n  revert\ntag_6:\n    /* \"submissions/Zora/Day24EhancedSimpleEscrow.sol\":1457:1467  msg.sender */\n  caller\n    /* \"submissions/Zora/Day24EhancedSimpleEscrow.sol\":1449:1467  buyer = msg.sender */\n  0xffffffffffffffffffffffffffffffffffffffff\n  and\n  0x80\n  dup2\n  0xffffffffffffffffffffffffffffffffffffffff\n  and\n  dup2\n  mstore\n  pop\n  pop\n    /* \"submissions/Zora/Day24EhancedSimpleEscrow.sol\":1503:1510  _seller */\n  dup3\n    /* \"submissions/Zora/Day24EhancedSimpleEscrow.sol\":1494:1510  seller = _seller */\n  0xffffffffffffffffffffffffffffffffffffffff\n  and\n  0xa0\n  dup2\n  0xffffffffffffffffffffffffffffffffffffffff\n  and\n  dup2\n  mstore\n  pop\n  pop\n    /* \"submissions/Zora/Day24EhancedSimpleEscrow.sol\":1532:1540  _arbiter */\n  dup2\n    /* \"submissions/Zora/Day24EhancedSimpleEscrow.sol\":1522:1540  arbiter = _arbiter */\n  0xffffffffffffffffffffffffffffffffffffffff\n  and\n  0xc0\n  dup2\n  0xffffffffffffffffffffffffffffffffffffffff\n  and\n  dup2\n  mstore\n  pop\n  pop\n    /* \"submissions/Zora/Day24EhancedSimpleEscrow.sol\":1602:1630  EscrowState.AWAITING_PAYMENT */\n  0x00\n    /* \"submissions/Zora/Day24EhancedSimpleEscrow.sol\":1594:1599  state */\n  0x01\n  0x00\n    /* \"submissions/Zora/Day24EhancedSimpleEscrow.sol\":1594:1630  state = EscrowState.AWAITING_PAYMENT */\n  0x0100\n  exp\n  dup2\n  sload\n  dup2\n  0xff\n  mul\n  not\n  and\n  swap1\n  dup4\n  0x04\n  dup2\n  gt\n  iszero\n  tag_9\n  jumpi\n  tag_10\n  tag_11\n  jump\t// in\ntag_10:\ntag_9:\n  mul\n  or\n  swap1\n  sstore\n  pop\n    /* \"submissions/Zora/Day24EhancedSimpleEscrow.sol\":1723:1739  _deliveryTimeout */\n  dup1\n    /* \"submissions/Zora/Day24EhancedSimpleEscrow.sol\":1705:1720  deliveryTimeout */\n  0x03\n    /* \"submissions/Zora/Day24EhancedSimpleEscrow.sol\":1705:1739  deliveryTimeout = _deliveryTimeout */\n  dup2\n  swap1\n  sstore\n  pop\n    /* \"submissions/Zora/Day24EhancedSimpleEscrow.sol\":1254:1784  constructor(address _seller, address _arbiter, uint256 _deliveryTimeout) {... */\n  pop\n  pop\n  pop\n    /* \"submissions/Zora/Day24EhancedSimpleEscrow.sol\":148:5407  contract EnhancedSimpleEscrow {... */\n  jump(tag_12)\n    /* \"#utility.yul\":88:205   */\ntag_14:\n    /* \"#utility.yul\":197:198   */\n  0x00\n    /* \"#utility.yul\":194:195   */\n  0x00\n    /* \"#utility.yul\":187:199   */\n  revert\n    /* \"#utility.yul\":334:460   */\ntag_16:\n    /* \"#utility.yul\":371:378   */\n  0x00\n    /* \"#utility.yul\":411:453   */\n  0xffffffffffffffffffffffffffffffffffffffff\n    /* \"#utility.yul\":404:409   */\n  dup3\n    /* \"#utility.yul\":400:454   */\n  and\n    /* \"#utility.yul\":389:454   */\n  swap1\n  pop\n    /* \"#utility.yul\":334:460   */\n  swap2\n  swap1\n  pop\n  jump\t// out\n    /* \"#utility.yul\":466:562   */\ntag_17:\n    /* \"#utility.yul\":503:510   */\n  0x00\n    /* \"#utility.yul\":532:556   */\n  tag_32\n    /* \"#utility.yul\":550:555   */\n  dup3\n    /* \"#utility.yul\":532:556   */\n  tag_16\n  jump\t// in\ntag_32:\n    /* \"#utility.yul\":521:556   */\n  swap1\n  pop\n    /* \"#utility.yul\":466:562   */\n  swap2\n  swap1\n  pop\n  jump\t// out\n    /* \"#utility.yul\":568:690   */\ntag_18:\n    /* \"#utility.yul\":641:665   */\n  tag_34\n    /* \"#utility.yul\":659:664   */\n  dup2\n    /* \"#utility.yul\":641:665   */\n  tag_17\n  jump\t// in\ntag_34:\n    /* \"#utility.yul\":634:639   */\n  dup2\n    /* \"#utility.yul\":631:666   */\n  eq\n    /* \"#utility.yul\":621:684   */\n  tag_35\n  jumpi\n    /* \"#utility.yul\":680:681   */\n  0x00\n    /* \"#utility.yul\":677:678   */\n  0x00\n    /* \"#utility.yul\":670:682   */\n  revert\n    /* \"#utility.yul\":621:684   */\ntag_35:\n    /* \"#utility.yul\":568:690   */\n  pop\n  jump\t// out\n    /* \"#utility.yul\":696:839   */\ntag_19:\n    /* \"#utility.yul\":753:758   */\n  0x00\n    /* \"#utility.yul\":784:790   */\n  dup2\n    /* \"#utility.yul\":778:791   */\n  mload\n    /* \"#utility.yul\":769:791   */\n  swap1\n  pop\n    /* \"#utility.yul\":800:833   */\n  tag_37\n    /* \"#utility.yul\":827:832   */\n  dup2\n    /* \"#utility.yul\":800:833   */\n  tag_18\n  jump\t// in\ntag_37:\n    /* \"#utility.yul\":696:839   */\n  swap3\n  swap2\n  pop\n  pop\n  jump\t// out\n    /* \"#utility.yul\":845:922   */\ntag_20:\n    /* \"#utility.yul\":882:889   */\n  0x00\n    /* \"#utility.yul\":911:916   */\n  dup2\n    /* \"#utility.yul\":900:916   */\n  swap1\n  pop\n    /* \"#utility.yul\":845:922   */\n  swap2\n  swap1\n  pop\n  jump\t// out\n    /* \"#utility.yul\":928:1050   */\ntag_21:\n    /* \"#utility.yul\":1001:1025   */\n  tag_40\n    /* \"#utility.yul\":1019:1024   */\n  dup2\n    /* \"#utility.yul\":1001:1025   */\n  tag_20\n  jump\t// in\ntag_40:\n    /* \"#utility.yul\":994:999   */\n  dup2\n    /* \"#utility.yul\":991:1026   */\n  eq\n    /* \"#utility.yul\":981:1044   */\n  tag_41\n  jumpi\n    /* \"#utility.yul\":1040:1041   */\n  0x00\n    /* \"#utility.yul\":1037:1038   */\n  0x00\n    /* \"#utility.yul\":1030:1042   */\n  revert\n    /* \"#utility.yul\":981:1044   */\ntag_41:\n    /* \"#utility.yul\":928:1050   */\n  pop\n  jump\t// out\n    /* \"#utility.yul\":1056:1199   */\ntag_22:\n    /* \"#utility.yul\":1113:1118   */\n  0x00\n    /* \"#utility.yul\":1144:1150   */\n  dup2\n    /* \"#utility.yul\":1138:1151   */\n  mload\n    /* \"#utility.yul\":1129:1151   */\n  swap1\n  pop\n    /* \"#utility.yul\":1160:1193   */\n  tag_43\n    /* \"#utility.yul\":1187:1192   */\n  dup2\n    /* \"#utility.yul\":1160:1193   */\n  tag_21\n  jump\t// in\ntag_43:\n    /* \"#utility.yul\":1056:1199   */\n  swap3\n  swap2\n  pop\n  pop\n  jump\t// out\n    /* \"#utility.yul\":1205:1868   */\ntag_3:\n    /* \"#utility.yul\":1293:1299   */\n  0x00\n    /* \"#utility.yul\":1301:1307   */\n  0x00\n    /* \"#utility.yul\":1309:1315   */\n  0x00\n    /* \"#utility.yul\":1358:1360   */\n  0x60\n    /* \"#utility.yul\":1346:1355   */\n  dup5\n    /* \"#utility.yul\":1337:1344   */\n  dup7\n    /* \"#utility.yul\":1333:1356   */\n  sub\n    /* \"#utility.yul\":1329:1361   */\n  slt\n    /* \"#utility.yul\":1326:1445   */\n  iszero\n  tag_45\n  jumpi\n    /* \"#utility.yul\":1364:1443   */\n  tag_46\n  tag_14\n  jump\t// in\ntag_46:\n    /* \"#utility.yul\":1326:1445   */\ntag_45:\n    /* \"#utility.yul\":1484:1485   */\n  0x00\n    /* \"#utility.yul\":1509:1573   */\n  tag_47\n    /* \"#utility.yul\":1565:1572   */\n  dup7\n    /* \"#utility.yul\":1556:1562   */\n  dup3\n    /* \"#utility.yul\":1545:1554   */\n  dup8\n    /* \"#utility.yul\":1541:1563   */\n  add\n    /* \"#utility.yul\":1509:1573   */\n  tag_19\n  jump\t// in\ntag_47:\n    /* \"#utility.yul\":1499:1573   */\n  swap4\n  pop\n    /* \"#utility.yul\":1455:1583   */\n  pop\n    /* \"#utility.yul\":1622:1624   */\n  0x20\n    /* \"#utility.yul\":1648:1712   */\n  tag_48\n    /* \"#utility.yul\":1704:1711   */\n  dup7\n    /* \"#utility.yul\":1695:1701   */\n  dup3\n    /* \"#utility.yul\":1684:1693   */\n  dup8\n    /* \"#utility.yul\":1680:1702   */\n  add\n    /* \"#utility.yul\":1648:1712   */\n  tag_19\n  jump\t// in\ntag_48:\n    /* \"#utility.yul\":1638:1712   */\n  swap3\n  pop\n    /* \"#utility.yul\":1593:1722   */\n  pop\n    /* \"#utility.yul\":1761:1763   */\n  0x40\n    /* \"#utility.yul\":1787:1851   */\n  tag_49\n    /* \"#utility.yul\":1843:1850   */\n  dup7\n    /* \"#utility.yul\":1834:1840   */\n  dup3\n    /* \"#utility.yul\":1823:1832   */\n  dup8\n    /* \"#utility.yul\":1819:1841   */\n  add\n    /* \"#utility.yul\":1787:1851   */\n  tag_22\n  jump\t// in\ntag_49:\n    /* \"#utility.yul\":1777:1851   */\n  swap2\n  pop\n    /* \"#utility.yul\":1732:1861   */\n  pop\n    /* \"#utility.yul\":1205:1868   */\n  swap3\n  pop\n  swap3\n  pop\n  swap3\n  jump\t// out\n    /* \"#utility.yul\":1874:2043   */\ntag_23:\n    /* \"#utility.yul\":1958:1969   */\n  0x00\n    /* \"#utility.yul\":1992:1998   */\n  dup3\n    /* \"#utility.yul\":1987:1990   */\n  dup3\n    /* \"#utility.yul\":1980:1999   */\n  mstore\n    /* \"#utility.yul\":2032:2036   */\n  0x20\n    /* \"#utility.yul\":2027:2030   */\n  dup3\n    /* \"#utility.yul\":2023:2037   */\n  add\n    /* \"#utility.yul\":2008:2037   */\n  swap1\n  pop\n    /* \"#utility.yul\":1874:2043   */\n  swap3\n  swap2\n  pop\n  pop\n  jump\t// out\n    /* \"#utility.yul\":2049:2278   */\ntag_24:\n    /* \"#utility.yul\":2189:2223   */\n  0x44656c69766572792074696d656f7574206d7573742062652067726561746572\n    /* \"#utility.yul\":2185:2186   */\n  0x00\n    /* \"#utility.yul\":2177:2183   */\n  dup3\n    /* \"#utility.yul\":2173:2187   */\n  add\n    /* \"#utility.yul\":2166:2224   */\n  mstore\n    /* \"#utility.yul\":2258:2270   */\n  0x207468616e207a65726f00000000000000000000000000000000000000000000\n    /* \"#utility.yul\":2253:2255   */\n  0x20\n    /* \"#utility.yul\":2245:2251   */\n  dup3\n    /* \"#utility.yul\":2241:2256   */\n  add\n    /* \"#utility.yul\":2234:2271   */\n  mstore\n    /* \"#utility.yul\":2049:2278   */\n  pop\n  jump\t// out\n    /* \"#utility.yul\":2284:2650   */\ntag_25:\n    /* \"#utility.yul\":2426:2429   */\n  0x00\n    /* \"#utility.yul\":2447:2514   */\n  tag_53\n    /* \"#utility.yul\":2511:2513   */\n  0x2a\n    /* \"#utility.yul\":2506:2509   */\n  dup4\n    /* \"#utility.yul\":2447:2514   */\n  tag_23\n  jump\t// in\ntag_53:\n    /* \"#utility.yul\":2440:2514   */\n  swap2\n  pop\n    /* \"#utility.yul\":2523:2616   */\n  tag_54\n    /* \"#utility.yul\":2612:2615   */\n  dup3\n    /* \"#utility.yul\":2523:2616   */\n  tag_24\n  jump\t// in\ntag_54:\n    /* \"#utility.yul\":2641:2643   */\n  0x40\n    /* \"#utility.yul\":2636:2639   */\n  dup3\n    /* \"#utility.yul\":2632:2644   */\n  add\n    /* \"#utility.yul\":2625:2644   */\n  swap1\n  pop\n    /* \"#utility.yul\":2284:2650   */\n  swap2\n  swap1\n  pop\n  jump\t// out\n    /* \"#utility.yul\":2656:3075   */\ntag_8:\n    /* \"#utility.yul\":2822:2826   */\n  0x00\n    /* \"#utility.yul\":2860:2862   */\n  0x20\n    /* \"#utility.yul\":2849:2858   */\n  dup3\n    /* \"#utility.yul\":2845:2863   */\n  add\n    /* \"#utility.yul\":2837:2863   */\n  swap1\n  pop\n    /* \"#utility.yul\":2909:2918   */\n  dup2\n    /* \"#utility.yul\":2903:2907   */\n  dup2\n    /* \"#utility.yul\":2899:2919   */\n  sub\n    /* \"#utility.yul\":2895:2896   */\n  0x00\n    /* \"#utility.yul\":2884:2893   */\n  dup4\n    /* \"#utility.yul\":2880:2897   */\n  add\n    /* \"#utility.yul\":2873:2920   */\n  mstore\n    /* \"#utility.yul\":2937:3068   */\n  tag_56\n    /* \"#utility.yul\":3063:3067   */\n  dup2\n    /* \"#utility.yul\":2937:3068   */\n  tag_25\n  jump\t// in\ntag_56:\n    /* \"#utility.yul\":2929:3068   */\n  swap1\n  pop\n    /* \"#utility.yul\":2656:3075   */\n  swap2\n  swap1\n  pop\n  jump\t// out\n    /* \"#utility.yul\":3081:3261   */\ntag_11:\n    /* \"#utility.yul\":3129:3206   */\n  0x4e487b7100000000000000000000000000000000000000000000000000000000\n    /* \"#utility.yul\":3126:3127   */\n  0x00\n    /* \"#utility.yul\":3119:3207   */\n  mstore\n    /* \"#utility.yul\":3226:3230   */\n  0x21\n    /* \"#utility.yul\":3223:3224   */\n  0x04\n    /* \"#utility.yul\":3216:3231   */\n  mstore\n    /* \"#utility.yul\":3250:3254   */\n  0x24\n    /* \"#utility.yul\":3247:3248   */\n  0x00\n    /* \"#utility.yul\":3240:3255   */\n  revert\n    /* \"submissions/Zora/Day24EhancedSimpleEscrow.sol\":148:5407  contract EnhancedSimpleEscrow {... */\ntag_12:\n  mload(0x80)\n  mload(0xa0)\n  mload(0xc0)\n  codecopy(0x00, dataOffset(sub_0), dataSize(sub_0))\n  0x00\n  assignImmutable(\"0x5c4c6aa067b6f8e6cb38e6ab843832a94d1712d661a04d73c517d6a1931a9e5d\")\n  0x00\n  assignImmutable(\"0x7f8b6b088b6d74c2852fc86c796dca07b44eed6fb3daf5e6b59f7c364db14528\")\n  0x00\n  assignImmutable(\"0x1a192fabce13988b84994d4296e6cdc418d55e2f1d7f942188d4040b94fc57ac\")\n  return(0x00, dataSize(sub_0))\nstop\n\nsub_0: assembly {\n        /* \"submissions/Zora/Day24EhancedSimpleEscrow.sol\":148:5407  contract EnhancedSimpleEscrow {... */\n      mstore(0x40, 0x80)\n      jumpi(tag_1, lt(calldatasize, 0x04))\n      shr(0xe0, calldataload(0x00))\n      dup1\n      0xaa8c217c\n      gt\n      tag_17\n      jumpi\n      dup1\n      0xd0e30db0\n      gt\n      tag_18\n      jumpi\n      dup1\n      0xd0e30db0\n      eq\n      tag_13\n      jumpi\n      dup1\n      0xdc9c5035\n      eq\n      tag_14\n      jumpi\n      dup1\n      0xf3e435ab\n      eq\n      tag_15\n      jumpi\n      dup1\n      0xfe25e00a\n      eq\n      tag_16\n      jumpi\n      jump(tag_2)\n    tag_18:\n      dup1\n      0xaa8c217c\n      eq\n      tag_10\n      jumpi\n      dup1\n      0xc19d93fb\n      eq\n      tag_11\n      jumpi\n      dup1\n      0xc7e284b8\n      eq\n      tag_12\n      jumpi\n      jump(tag_2)\n    tag_17:\n      dup1\n      0x5e8a626e\n      gt\n      tag_19\n      jumpi\n      dup1\n      0x5e8a626e\n      eq\n      tag_6\n      jumpi\n      dup1\n      0x6daa2d44\n      eq\n      tag_7\n      jumpi\n      dup1\n      0x7150d8ae\n      eq\n      tag_8\n      jumpi\n      dup1\n      0x89e1e82a\n      eq\n      tag_9\n      jumpi\n      jump(tag_2)\n    tag_19:\n      dup1\n      0x08551a53\n      eq\n      tag_3\n      jumpi\n      dup1\n      0x2264d639\n      eq\n      tag_4\n      jumpi\n      dup1\n      0x5e10177b\n      eq\n      tag_5\n      jumpi\n      jump(tag_2)\n    tag_1:\n      jumpi(tag_2, calldatasize)\n        /* \"submissions/Zora/Day24EhancedSimpleEscrow.sol\":1861:1898  revert(\"Direct payments not allowed\") */\n      mload(0x40)\n      0x08c379a000000000000000000000000000000000000000000000000000000000\n      dup2\n      mstore\n      0x04\n      add\n      tag_22\n      swap1\n      tag_23\n      jump\t// in\n    tag_22:\n      mload(0x40)\n      dup1\n      swap2\n      sub\n      swap1\n      revert\n        /* \"submissions/Zora/Day24EhancedSimpleEscrow.sol\":148:5407  contract EnhancedSimpleEscrow {... */\n    tag_2:\n      revert(0x00, 0x00)\n        /* \"submissions/Zora/Day24EhancedSimpleEscrow.sol\":363:394  address public immutable seller */\n    tag_3:\n      callvalue\n      dup1\n      iszero\n      tag_24\n      jumpi\n      revert(0x00, 0x00)\n    tag_24:\n      pop\n      tag_25\n      tag_26\n      jump\t// in\n    tag_25:\n      mload(0x40)\n      tag_27\n      swap2\n      swap1\n      tag_28\n      jump\t// in\n    tag_27:\n      mload(0x40)\n      dup1\n      swap2\n      sub\n      swap1\n      return\n        /* \"submissions/Zora/Day24EhancedSimpleEscrow.sol\":4530:5077  function cancelMutual() external {... */\n    tag_4:\n      callvalue\n      dup1\n      iszero\n      tag_29\n      jumpi\n      revert(0x00, 0x00)\n    tag_29:\n      pop\n      tag_30\n      tag_31\n      jump\t// in\n    tag_30:\n      stop\n        /* \"submissions/Zora/Day24EhancedSimpleEscrow.sol\":2551:2883  function confirmDelivery() external {... */\n    tag_5:\n      callvalue\n      dup1\n      iszero\n      tag_32\n      jumpi\n      revert(0x00, 0x00)\n    tag_32:\n      pop\n      tag_33\n      tag_34\n      jump\t// in\n    tag_33:\n      stop\n        /* \"submissions/Zora/Day24EhancedSimpleEscrow.sol\":578:604  uint256 public depositTime */\n    tag_6:\n      callvalue\n      dup1\n      iszero\n      tag_35\n      jumpi\n      revert(0x00, 0x00)\n    tag_35:\n      pop\n      tag_36\n      tag_37\n      jump\t// in\n    tag_36:\n      mload(0x40)\n      tag_38\n      swap2\n      swap1\n      tag_39\n      jump\t// in\n    tag_38:\n      mload(0x40)\n      dup1\n      swap2\n      sub\n      swap1\n      return\n        /* \"submissions/Zora/Day24EhancedSimpleEscrow.sol\":2914:3240  function raiseDispute() external {... */\n    tag_7:\n      callvalue\n      dup1\n      iszero\n      tag_40\n      jumpi\n      revert(0x00, 0x00)\n    tag_40:\n      pop\n      tag_41\n      tag_42\n      jump\t// in\n    tag_41:\n      stop\n        /* \"submissions/Zora/Day24EhancedSimpleEscrow.sol\":326:356  address public immutable buyer */\n    tag_8:\n      callvalue\n      dup1\n      iszero\n      tag_43\n      jumpi\n      revert(0x00, 0x00)\n    tag_43:\n      pop\n      tag_44\n      tag_45\n      jump\t// in\n    tag_44:\n      mload(0x40)\n      tag_46\n      swap2\n      swap1\n      tag_28\n      jump\t// in\n    tag_46:\n      mload(0x40)\n      dup1\n      swap2\n      sub\n      swap1\n      return\n        /* \"submissions/Zora/Day24EhancedSimpleEscrow.sol\":3280:3867  function resolveDispute(bool _releaseToSeller) external {... */\n    tag_9:\n      callvalue\n      dup1\n      iszero\n      tag_47\n      jumpi\n      revert(0x00, 0x00)\n    tag_47:\n      pop\n      tag_48\n      0x04\n      dup1\n      calldatasize\n      sub\n      dup2\n      add\n      swap1\n      tag_49\n      swap2\n      swap1\n      tag_50\n      jump\t// in\n    tag_49:\n      tag_51\n      jump\t// in\n    tag_48:\n      stop\n        /* \"submissions/Zora/Day24EhancedSimpleEscrow.sol\":491:512  uint256 public amount */\n    tag_10:\n      callvalue\n      dup1\n      iszero\n      tag_52\n      jumpi\n      revert(0x00, 0x00)\n    tag_52:\n      pop\n      tag_53\n      tag_54\n      jump\t// in\n    tag_53:\n      mload(0x40)\n      tag_55\n      swap2\n      swap1\n      tag_39\n      jump\t// in\n    tag_55:\n      mload(0x40)\n      dup1\n      swap2\n      sub\n      swap1\n      return\n        /* \"submissions/Zora/Day24EhancedSimpleEscrow.sol\":547:571  EscrowState public state */\n    tag_11:\n      callvalue\n      dup1\n      iszero\n      tag_56\n      jumpi\n      revert(0x00, 0x00)\n    tag_56:\n      pop\n      tag_57\n      tag_58\n      jump\t// in\n    tag_57:\n      mload(0x40)\n      tag_59\n      swap2\n      swap1\n      tag_60\n      jump\t// in\n    tag_59:\n      mload(0x40)\n      dup1\n      swap2\n      sub\n      swap1\n      return\n        /* \"submissions/Zora/Day24EhancedSimpleEscrow.sol\":5138:5404  function getTimeLeft() external view returns (uint256) {... */\n    tag_12:\n      callvalue\n      dup1\n      iszero\n      tag_61\n      jumpi\n      revert(0x00, 0x00)\n    tag_61:\n      pop\n      tag_62\n      tag_63\n      jump\t// in\n    tag_62:\n      mload(0x40)\n      tag_64\n      swap2\n      swap1\n      tag_39\n      jump\t// in\n    tag_64:\n      mload(0x40)\n      dup1\n      swap2\n      sub\n      swap1\n      return\n        /* \"submissions/Zora/Day24EhancedSimpleEscrow.sol\":1954:2508  function deposit() external payable {... */\n    tag_13:\n      tag_65\n      tag_66\n      jump\t// in\n    tag_65:\n      stop\n        /* \"submissions/Zora/Day24EhancedSimpleEscrow.sol\":611:641  uint256 public deliveryTimeout */\n    tag_14:\n      callvalue\n      dup1\n      iszero\n      tag_67\n      jumpi\n      revert(0x00, 0x00)\n    tag_67:\n      pop\n      tag_68\n      tag_69\n      jump\t// in\n    tag_68:\n      mload(0x40)\n      tag_70\n      swap2\n      swap1\n      tag_39\n      jump\t// in\n    tag_70:\n      mload(0x40)\n      dup1\n      swap2\n      sub\n      swap1\n      return\n        /* \"submissions/Zora/Day24EhancedSimpleEscrow.sol\":3919:4481  function cancelAfterTimeout() external {... */\n    tag_15:\n      callvalue\n      dup1\n      iszero\n      tag_71\n      jumpi\n      revert(0x00, 0x00)\n    tag_71:\n      pop\n      tag_72\n      tag_73\n      jump\t// in\n    tag_72:\n      stop\n        /* \"submissions/Zora/Day24EhancedSimpleEscrow.sol\":401:433  address public immutable arbiter */\n    tag_16:\n      callvalue\n      dup1\n      iszero\n      tag_74\n      jumpi\n      revert(0x00, 0x00)\n    tag_74:\n      pop\n      tag_75\n      tag_76\n      jump\t// in\n    tag_75:\n      mload(0x40)\n      tag_77\n      swap2\n      swap1\n      tag_28\n      jump\t// in\n    tag_77:\n      mload(0x40)\n      dup1\n      swap2\n      sub\n      swap1\n      return\n        /* \"submissions/Zora/Day24EhancedSimpleEscrow.sol\":363:394  address public immutable seller */\n    tag_26:\n      immutable(\"0x7f8b6b088b6d74c2852fc86c796dca07b44eed6fb3daf5e6b59f7c364db14528\")\n      dup2\n      jump\t// out\n        /* \"submissions/Zora/Day24EhancedSimpleEscrow.sol\":4530:5077  function cancelMutual() external {... */\n    tag_31:\n        /* \"submissions/Zora/Day24EhancedSimpleEscrow.sol\":4596:4601  buyer */\n      immutable(\"0x1a192fabce13988b84994d4296e6cdc418d55e2f1d7f942188d4040b94fc57ac\")\n        /* \"submissions/Zora/Day24EhancedSimpleEscrow.sol\":4582:4601  msg.sender == buyer */\n      0xffffffffffffffffffffffffffffffffffffffff\n      and\n        /* \"submissions/Zora/Day24EhancedSimpleEscrow.sol\":4582:4592  msg.sender */\n      caller\n        /* \"submissions/Zora/Day24EhancedSimpleEscrow.sol\":4582:4601  msg.sender == buyer */\n      0xffffffffffffffffffffffffffffffffffffffff\n      and\n      eq\n        /* \"submissions/Zora/Day24EhancedSimpleEscrow.sol\":4582:4625  msg.sender == buyer || msg.sender == seller */\n      dup1\n      tag_79\n      jumpi\n      pop\n        /* \"submissions/Zora/Day24EhancedSimpleEscrow.sol\":4619:4625  seller */\n      immutable(\"0x7f8b6b088b6d74c2852fc86c796dca07b44eed6fb3daf5e6b59f7c364db14528\")\n        /* \"submissions/Zora/Day24EhancedSimpleEscrow.sol\":4605:4625  msg.sender == seller */\n      0xffffffffffffffffffffffffffffffffffffffff\n      and\n        /* \"submissions/Zora/Day24EhancedSimpleEscrow.sol\":4605:4615  msg.sender */\n      caller\n        /* \"submissions/Zora/Day24EhancedSimpleEscrow.sol\":4605:4625  msg.sender == seller */\n      0xffffffffffffffffffffffffffffffffffffffff\n      and\n      eq\n        /* \"submissions/Zora/Day24EhancedSimpleEscrow.sol\":4582:4625  msg.sender == buyer || msg.sender == seller */\n    tag_79:\n        /* \"submissions/Zora/Day24EhancedSimpleEscrow.sol\":4574:4644  require(msg.sender == buyer || msg.sender == seller, \"Not authorized\") */\n      tag_80\n      jumpi\n      mload(0x40)\n      0x08c379a000000000000000000000000000000000000000000000000000000000\n      dup2\n      mstore\n      0x04\n      add\n      tag_81\n      swap1\n      tag_82\n      jump\t// in\n    tag_81:\n      mload(0x40)\n      dup1\n      swap2\n      sub\n      swap1\n      revert\n    tag_80:\n        /* \"submissions/Zora/Day24EhancedSimpleEscrow.sol\":4686:4715  EscrowState.AWAITING_DELIVERY */\n      0x01\n        /* \"submissions/Zora/Day24EhancedSimpleEscrow.sol\":4677:4715  state == EscrowState.AWAITING_DELIVERY */\n      0x04\n      dup2\n      gt\n      iszero\n      tag_83\n      jumpi\n      tag_84\n      tag_85\n      jump\t// in\n    tag_84:\n    tag_83:\n        /* \"submissions/Zora/Day24EhancedSimpleEscrow.sol\":4677:4682  state */\n      0x01\n      0x00\n      swap1\n      sload\n      swap1\n      0x0100\n      exp\n      swap1\n      div\n      0xff\n      and\n        /* \"submissions/Zora/Day24EhancedSimpleEscrow.sol\":4677:4715  state == EscrowState.AWAITING_DELIVERY */\n      0x04\n      dup2\n      gt\n      iszero\n      tag_86\n      jumpi\n      tag_87\n      tag_85\n      jump\t// in\n    tag_87:\n    tag_86:\n      eq\n        /* \"submissions/Zora/Day24EhancedSimpleEscrow.sol\":4677:4756  state == EscrowState.AWAITING_DELIVERY || state == EscrowState.AWAITING_PAYMENT */\n      dup1\n      tag_88\n      jumpi\n      pop\n        /* \"submissions/Zora/Day24EhancedSimpleEscrow.sol\":4728:4756  EscrowState.AWAITING_PAYMENT */\n      0x00\n        /* \"submissions/Zora/Day24EhancedSimpleEscrow.sol\":4719:4756  state == EscrowState.AWAITING_PAYMENT */\n      0x04\n      dup2\n      gt\n      iszero\n      tag_89\n      jumpi\n      tag_90\n      tag_85\n      jump\t// in\n    tag_90:\n    tag_89:\n        /* \"submissions/Zora/Day24EhancedSimpleEscrow.sol\":4719:4724  state */\n      0x01\n      0x00\n      swap1\n      sload\n      swap1\n      0x0100\n      exp\n      swap1\n      div\n      0xff\n      and\n        /* \"submissions/Zora/Day24EhancedSimpleEscrow.sol\":4719:4756  state == EscrowState.AWAITING_PAYMENT */\n      0x04\n      dup2\n      gt\n      iszero\n      tag_91\n      jumpi\n      tag_92\n      tag_85\n      jump\t// in\n    tag_92:\n    tag_91:\n      eq\n        /* \"submissions/Zora/Day24EhancedSimpleEscrow.sol\":4677:4756  state == EscrowState.AWAITING_DELIVERY || state == EscrowState.AWAITING_PAYMENT */\n    tag_88:\n        /* \"submissions/Zora/Day24EhancedSimpleEscrow.sol\":4655:4801  require(... */\n      tag_93\n      jumpi\n      mload(0x40)\n      0x08c379a000000000000000000000000000000000000000000000000000000000\n      dup2\n      mstore\n      0x04\n      add\n      tag_94\n      swap1\n      tag_95\n      jump\t// in\n    tag_94:\n      mload(0x40)\n      dup1\n      swap2\n      sub\n      swap1\n      revert\n    tag_93:\n        /* \"submissions/Zora/Day24EhancedSimpleEscrow.sol\":4814:4839  EscrowState previousState */\n      0x00\n        /* \"submissions/Zora/Day24EhancedSimpleEscrow.sol\":4842:4847  state */\n      0x01\n      0x00\n      swap1\n      sload\n      swap1\n      0x0100\n      exp\n      swap1\n      div\n      0xff\n      and\n        /* \"submissions/Zora/Day24EhancedSimpleEscrow.sol\":4814:4847  EscrowState previousState = state */\n      swap1\n      pop\n        /* \"submissions/Zora/Day24EhancedSimpleEscrow.sol\":4866:4887  EscrowState.CANCELLED */\n      0x04\n        /* \"submissions/Zora/Day24EhancedSimpleEscrow.sol\":4858:4863  state */\n      0x01\n      0x00\n        /* \"submissions/Zora/Day24EhancedSimpleEscrow.sol\":4858:4887  state = EscrowState.CANCELLED */\n      0x0100\n      exp\n      dup2\n      sload\n      dup2\n      0xff\n      mul\n      not\n      and\n      swap1\n      dup4\n      0x04\n      dup2\n      gt\n      iszero\n      tag_96\n      jumpi\n      tag_97\n      tag_85\n      jump\t// in\n    tag_97:\n    tag_96:\n      mul\n      or\n      swap1\n      sstore\n      pop\n        /* \"submissions/Zora/Day24EhancedSimpleEscrow.sol\":4921:4950  EscrowState.AWAITING_DELIVERY */\n      0x01\n        /* \"submissions/Zora/Day24EhancedSimpleEscrow.sol\":4904:4950  previousState == EscrowState.AWAITING_DELIVERY */\n      0x04\n      dup2\n      gt\n      iszero\n      tag_98\n      jumpi\n      tag_99\n      tag_85\n      jump\t// in\n    tag_99:\n    tag_98:\n        /* \"submissions/Zora/Day24EhancedSimpleEscrow.sol\":4904:4917  previousState */\n      dup2\n        /* \"submissions/Zora/Day24EhancedSimpleEscrow.sol\":4904:4950  previousState == EscrowState.AWAITING_DELIVERY */\n      0x04\n      dup2\n      gt\n      iszero\n      tag_100\n      jumpi\n      tag_101\n      tag_85\n      jump\t// in\n    tag_101:\n    tag_100:\n      sub\n        /* \"submissions/Zora/Day24EhancedSimpleEscrow.sol\":4900:5025  if (previousState == EscrowState.AWAITING_DELIVERY) {... */\n      tag_102\n      jumpi\n        /* \"submissions/Zora/Day24EhancedSimpleEscrow.sol\":4975:4980  buyer */\n      immutable(\"0x1a192fabce13988b84994d4296e6cdc418d55e2f1d7f942188d4040b94fc57ac\")\n        /* \"submissions/Zora/Day24EhancedSimpleEscrow.sol\":4967:4990  payable(buyer).transfer */\n      0xffffffffffffffffffffffffffffffffffffffff\n      and\n        /* \"submissions/Zora/Day24EhancedSimpleEscrow.sol\":4967:5013  payable(buyer).transfer(address(this).balance) */\n      0x08fc\n        /* \"submissions/Zora/Day24EhancedSimpleEscrow.sol\":4991:5012  address(this).balance */\n      selfbalance\n        /* \"submissions/Zora/Day24EhancedSimpleEscrow.sol\":4967:5013  payable(buyer).transfer(address(this).balance) */\n      swap1\n      dup2\n      iszero\n      mul\n      swap1\n      mload(0x40)\n      0x00\n      mload(0x40)\n      dup1\n      dup4\n      sub\n      dup2\n      dup6\n      dup9\n      dup9\n      call\n      swap4\n      pop\n      pop\n      pop\n      pop\n      iszero\n      dup1\n      iszero\n      tag_104\n      jumpi\n      returndatacopy(0x00, 0x00, returndatasize)\n      revert(0x00, returndatasize)\n    tag_104:\n      pop\n        /* \"submissions/Zora/Day24EhancedSimpleEscrow.sol\":4900:5025  if (previousState == EscrowState.AWAITING_DELIVERY) {... */\n    tag_102:\n        /* \"submissions/Zora/Day24EhancedSimpleEscrow.sol\":5058:5068  msg.sender */\n      caller\n        /* \"submissions/Zora/Day24EhancedSimpleEscrow.sol\":5042:5069  EscrowCancelled(msg.sender) */\n      0xffffffffffffffffffffffffffffffffffffffff\n      and\n      0xac2a38716bf0fa9fa1a52e859663398120e11fa721ea31fe0682199b9fd367e7\n      mload(0x40)\n      mload(0x40)\n      dup1\n      swap2\n      sub\n      swap1\n      log2\n        /* \"submissions/Zora/Day24EhancedSimpleEscrow.sol\":4563:5077  {... */\n      pop\n        /* \"submissions/Zora/Day24EhancedSimpleEscrow.sol\":4530:5077  function cancelMutual() external {... */\n      jump\t// out\n        /* \"submissions/Zora/Day24EhancedSimpleEscrow.sol\":2551:2883  function confirmDelivery() external {... */\n    tag_34:\n        /* \"submissions/Zora/Day24EhancedSimpleEscrow.sol\":2620:2625  buyer */\n      immutable(\"0x1a192fabce13988b84994d4296e6cdc418d55e2f1d7f942188d4040b94fc57ac\")\n        /* \"submissions/Zora/Day24EhancedSimpleEscrow.sol\":2606:2625  msg.sender == buyer */\n      0xffffffffffffffffffffffffffffffffffffffff\n      and\n        /* \"submissions/Zora/Day24EhancedSimpleEscrow.sol\":2606:2616  msg.sender */\n      caller\n        /* \"submissions/Zora/Day24EhancedSimpleEscrow.sol\":2606:2625  msg.sender == buyer */\n      0xffffffffffffffffffffffffffffffffffffffff\n      and\n      eq\n        /* \"submissions/Zora/Day24EhancedSimpleEscrow.sol\":2598:2652  require(msg.sender == buyer, \"Only buyer can confirm\") */\n      tag_106\n      jumpi\n      mload(0x40)\n      0x08c379a000000000000000000000000000000000000000000000000000000000\n      dup2\n      mstore\n      0x04\n      add\n      tag_107\n      swap1\n      tag_108\n      jump\t// in\n    tag_107:\n      mload(0x40)\n      dup1\n      swap2\n      sub\n      swap1\n      revert\n    tag_106:\n        /* \"submissions/Zora/Day24EhancedSimpleEscrow.sol\":2680:2709  EscrowState.AWAITING_DELIVERY */\n      0x01\n        /* \"submissions/Zora/Day24EhancedSimpleEscrow.sol\":2671:2709  state == EscrowState.AWAITING_DELIVERY */\n      0x04\n      dup2\n      gt\n      iszero\n      tag_109\n      jumpi\n      tag_110\n      tag_85\n      jump\t// in\n    tag_110:\n    tag_109:\n        /* \"submissions/Zora/Day24EhancedSimpleEscrow.sol\":2671:2676  state */\n      0x01\n      0x00\n      swap1\n      sload\n      swap1\n      0x0100\n      exp\n      swap1\n      div\n      0xff\n      and\n        /* \"submissions/Zora/Day24EhancedSimpleEscrow.sol\":2671:2709  state == EscrowState.AWAITING_DELIVERY */\n      0x04\n      dup2\n      gt\n      iszero\n      tag_111\n      jumpi\n      tag_112\n      tag_85\n      jump\t// in\n    tag_112:\n    tag_111:\n      eq\n        /* \"submissions/Zora/Day24EhancedSimpleEscrow.sol\":2663:2735  require(state == EscrowState.AWAITING_DELIVERY, \"Not in delivery state\") */\n      tag_113\n      jumpi\n      mload(0x40)\n      0x08c379a000000000000000000000000000000000000000000000000000000000\n      dup2\n      mstore\n      0x04\n      add\n      tag_114\n      swap1\n      tag_115\n      jump\t// in\n    tag_114:\n      mload(0x40)\n      dup1\n      swap2\n      sub\n      swap1\n      revert\n    tag_113:\n        /* \"submissions/Zora/Day24EhancedSimpleEscrow.sol\":2756:2776  EscrowState.COMPLETE */\n      0x02\n        /* \"submissions/Zora/Day24EhancedSimpleEscrow.sol\":2748:2753  state */\n      0x01\n      0x00\n        /* \"submissions/Zora/Day24EhancedSimpleEscrow.sol\":2748:2776  state = EscrowState.COMPLETE */\n      0x0100\n      exp\n      dup2\n      sload\n      dup2\n      0xff\n      mul\n      not\n      and\n      swap1\n      dup4\n      0x04\n      dup2\n      gt\n      iszero\n      tag_116\n      jumpi\n      tag_117\n      tag_85\n      jump\t// in\n    tag_117:\n    tag_116:\n      mul\n      or\n      swap1\n      sstore\n      pop\n        /* \"submissions/Zora/Day24EhancedSimpleEscrow.sol\":2795:2801  seller */\n      immutable(\"0x7f8b6b088b6d74c2852fc86c796dca07b44eed6fb3daf5e6b59f7c364db14528\")\n        /* \"submissions/Zora/Day24EhancedSimpleEscrow.sol\":2787:2811  payable(seller).transfer */\n      0xffffffffffffffffffffffffffffffffffffffff\n      and\n        /* \"submissions/Zora/Day24EhancedSimpleEscrow.sol\":2787:2819  payable(seller).transfer(amount) */\n      0x08fc\n        /* \"submissions/Zora/Day24EhancedSimpleEscrow.sol\":2812:2818  amount */\n      sload(0x00)\n        /* \"submissions/Zora/Day24EhancedSimpleEscrow.sol\":2787:2819  payable(seller).transfer(amount) */\n      swap1\n      dup2\n      iszero\n      mul\n      swap1\n      mload(0x40)\n      0x00\n      mload(0x40)\n      dup1\n      dup4\n      sub\n      dup2\n      dup6\n      dup9\n      dup9\n      call\n      swap4\n      pop\n      pop\n      pop\n      pop\n      iszero\n      dup1\n      iszero\n      tag_119\n      jumpi\n      returndatacopy(0x00, 0x00, returndatasize)\n      revert(0x00, returndatasize)\n    tag_119:\n      pop\n        /* \"submissions/Zora/Day24EhancedSimpleEscrow.sol\":2860:2866  seller */\n      immutable(\"0x7f8b6b088b6d74c2852fc86c796dca07b44eed6fb3daf5e6b59f7c364db14528\")\n        /* \"submissions/Zora/Day24EhancedSimpleEscrow.sol\":2835:2875  DeliveryConfirmed(buyer, seller, amount) */\n      0xffffffffffffffffffffffffffffffffffffffff\n      and\n        /* \"submissions/Zora/Day24EhancedSimpleEscrow.sol\":2853:2858  buyer */\n      immutable(\"0x1a192fabce13988b84994d4296e6cdc418d55e2f1d7f942188d4040b94fc57ac\")\n        /* \"submissions/Zora/Day24EhancedSimpleEscrow.sol\":2835:2875  DeliveryConfirmed(buyer, seller, amount) */\n      0xffffffffffffffffffffffffffffffffffffffff\n      and\n      0xdf462b659b1ef8bf3bb666339203dff5a51e2430e9caaf35984dcb2a92c77d66\n        /* \"submissions/Zora/Day24EhancedSimpleEscrow.sol\":2868:2874  amount */\n      sload(0x00)\n        /* \"submissions/Zora/Day24EhancedSimpleEscrow.sol\":2835:2875  DeliveryConfirmed(buyer, seller, amount) */\n      mload(0x40)\n      tag_120\n      swap2\n      swap1\n      tag_39\n      jump\t// in\n    tag_120:\n      mload(0x40)\n      dup1\n      swap2\n      sub\n      swap1\n      log3\n        /* \"submissions/Zora/Day24EhancedSimpleEscrow.sol\":2551:2883  function confirmDelivery() external {... */\n      jump\t// out\n        /* \"submissions/Zora/Day24EhancedSimpleEscrow.sol\":578:604  uint256 public depositTime */\n    tag_37:\n      sload(0x02)\n      dup2\n      jump\t// out\n        /* \"submissions/Zora/Day24EhancedSimpleEscrow.sol\":2914:3240  function raiseDispute() external {... */\n    tag_42:\n        /* \"submissions/Zora/Day24EhancedSimpleEscrow.sol\":2980:2985  buyer */\n      immutable(\"0x1a192fabce13988b84994d4296e6cdc418d55e2f1d7f942188d4040b94fc57ac\")\n        /* \"submissions/Zora/Day24EhancedSimpleEscrow.sol\":2966:2985  msg.sender == buyer */\n      0xffffffffffffffffffffffffffffffffffffffff\n      and\n        /* \"submissions/Zora/Day24EhancedSimpleEscrow.sol\":2966:2976  msg.sender */\n      caller\n        /* \"submissions/Zora/Day24EhancedSimpleEscrow.sol\":2966:2985  msg.sender == buyer */\n      0xffffffffffffffffffffffffffffffffffffffff\n      and\n      eq\n        /* \"submissions/Zora/Day24EhancedSimpleEscrow.sol\":2966:3009  msg.sender == buyer || msg.sender == seller */\n      dup1\n      tag_122\n      jumpi\n      pop\n        /* \"submissions/Zora/Day24EhancedSimpleEscrow.sol\":3003:3009  seller */\n      immutable(\"0x7f8b6b088b6d74c2852fc86c796dca07b44eed6fb3daf5e6b59f7c364db14528\")\n        /* \"submissions/Zora/Day24EhancedSimpleEscrow.sol\":2989:3009  msg.sender == seller */\n      0xffffffffffffffffffffffffffffffffffffffff\n      and\n        /* \"submissions/Zora/Day24EhancedSimpleEscrow.sol\":2989:2999  msg.sender */\n      caller\n        /* \"submissions/Zora/Day24EhancedSimpleEscrow.sol\":2989:3009  msg.sender == seller */\n      0xffffffffffffffffffffffffffffffffffffffff\n      and\n      eq\n        /* \"submissions/Zora/Day24EhancedSimpleEscrow.sol\":2966:3009  msg.sender == buyer || msg.sender == seller */\n    tag_122:\n        /* \"submissions/Zora/Day24EhancedSimpleEscrow.sol\":2958:3028  require(msg.sender == buyer || msg.sender == seller, \"Not authorized\") */\n      tag_123\n      jumpi\n      mload(0x40)\n      0x08c379a000000000000000000000000000000000000000000000000000000000\n      dup2\n      mstore\n      0x04\n      add\n      tag_124\n      swap1\n      tag_82\n      jump\t// in\n    tag_124:\n      mload(0x40)\n      dup1\n      swap2\n      sub\n      swap1\n      revert\n    tag_123:\n        /* \"submissions/Zora/Day24EhancedSimpleEscrow.sol\":3056:3085  EscrowState.AWAITING_DELIVERY */\n      0x01\n        /* \"submissions/Zora/Day24EhancedSimpleEscrow.sol\":3047:3085  state == EscrowState.AWAITING_DELIVERY */\n      0x04\n      dup2\n      gt\n      iszero\n      tag_125\n      jumpi\n      tag_126\n      tag_85\n      jump\t// in\n    tag_126:\n    tag_125:\n        /* \"submissions/Zora/Day24EhancedSimpleEscrow.sol\":3047:3052  state */\n      0x01\n      0x00\n      swap1\n      sload\n      swap1\n      0x0100\n      exp\n      swap1\n      div\n      0xff\n      and\n        /* \"submissions/Zora/Day24EhancedSimpleEscrow.sol\":3047:3085  state == EscrowState.AWAITING_DELIVERY */\n      0x04\n      dup2\n      gt\n      iszero\n      tag_127\n      jumpi\n      tag_128\n      tag_85\n      jump\t// in\n    tag_128:\n    tag_127:\n      eq\n        /* \"submissions/Zora/Day24EhancedSimpleEscrow.sol\":3039:3107  require(state == EscrowState.AWAITING_DELIVERY, \"Can't dispute now\") */\n      tag_129\n      jumpi\n      mload(0x40)\n      0x08c379a000000000000000000000000000000000000000000000000000000000\n      dup2\n      mstore\n      0x04\n      add\n      tag_130\n      swap1\n      tag_131\n      jump\t// in\n    tag_130:\n      mload(0x40)\n      dup1\n      swap2\n      sub\n      swap1\n      revert\n    tag_129:\n        /* \"submissions/Zora/Day24EhancedSimpleEscrow.sol\":3171:3191  EscrowState.DISPUTED */\n      0x03\n        /* \"submissions/Zora/Day24EhancedSimpleEscrow.sol\":3163:3168  state */\n      0x01\n      0x00\n        /* \"submissions/Zora/Day24EhancedSimpleEscrow.sol\":3163:3191  state = EscrowState.DISPUTED */\n      0x0100\n      exp\n      dup2\n      sload\n      dup2\n      0xff\n      mul\n      not\n      and\n      swap1\n      dup4\n      0x04\n      dup2\n      gt\n      iszero\n      tag_132\n      jumpi\n      tag_133\n      tag_85\n      jump\t// in\n    tag_133:\n    tag_132:\n      mul\n      or\n      swap1\n      sstore\n      pop\n        /* \"submissions/Zora/Day24EhancedSimpleEscrow.sol\":3221:3231  msg.sender */\n      caller\n        /* \"submissions/Zora/Day24EhancedSimpleEscrow.sol\":3207:3232  DisputeRaised(msg.sender) */\n      0xffffffffffffffffffffffffffffffffffffffff\n      and\n      0x0b3cd97b16a08a5c77357c276d248827ad32dfd56060f7c55d6255537ba3d962\n      mload(0x40)\n      mload(0x40)\n      dup1\n      swap2\n      sub\n      swap1\n      log2\n        /* \"submissions/Zora/Day24EhancedSimpleEscrow.sol\":2914:3240  function raiseDispute() external {... */\n      jump\t// out\n        /* \"submissions/Zora/Day24EhancedSimpleEscrow.sol\":326:356  address public immutable buyer */\n    tag_45:\n      immutable(\"0x1a192fabce13988b84994d4296e6cdc418d55e2f1d7f942188d4040b94fc57ac\")\n      dup2\n      jump\t// out\n        /* \"submissions/Zora/Day24EhancedSimpleEscrow.sol\":3280:3867  function resolveDispute(bool _releaseToSeller) external {... */\n    tag_51:\n        /* \"submissions/Zora/Day24EhancedSimpleEscrow.sol\":3369:3376  arbiter */\n      immutable(\"0x5c4c6aa067b6f8e6cb38e6ab843832a94d1712d661a04d73c517d6a1931a9e5d\")\n        /* \"submissions/Zora/Day24EhancedSimpleEscrow.sol\":3355:3376  msg.sender == arbiter */\n      0xffffffffffffffffffffffffffffffffffffffff\n      and\n        /* \"submissions/Zora/Day24EhancedSimpleEscrow.sol\":3355:3365  msg.sender */\n      caller\n        /* \"submissions/Zora/Day24EhancedSimpleEscrow.sol\":3355:3376  msg.sender == arbiter */\n      0xffffffffffffffffffffffffffffffffffffffff\n      and\n      eq\n        /* \"submissions/Zora/Day24EhancedSimpleEscrow.sol\":3347:3405  require(msg.sender == arbiter, \"Only arbiter can resolve\") */\n      tag_135\n      jumpi\n      mload(0x40)\n      0x08c379a000000000000000000000000000000000000000000000000000000000\n      dup2\n      mstore\n      0x04\n      add\n      tag_136\n      swap1\n      tag_137\n      jump\t// in\n    tag_136:\n      mload(0x40)\n      dup1\n      swap2\n      sub\n      swap1\n      revert\n    tag_135:\n        /* \"submissions/Zora/Day24EhancedSimpleEscrow.sol\":3433:3453  EscrowState.DISPUTED */\n      0x03\n        /* \"submissions/Zora/Day24EhancedSimpleEscrow.sol\":3424:3453  state == EscrowState.DISPUTED */\n      0x04\n      dup2\n      gt\n      iszero\n      tag_138\n      jumpi\n      tag_139\n      tag_85\n      jump\t// in\n    tag_139:\n    tag_138:\n        /* \"submissions/Zora/Day24EhancedSimpleEscrow.sol\":3424:3429  state */\n      0x01\n      0x00\n      swap1\n      sload\n      swap1\n      0x0100\n      exp\n      swap1\n      div\n      0xff\n      and\n        /* \"submissions/Zora/Day24EhancedSimpleEscrow.sol\":3424:3453  state == EscrowState.DISPUTED */\n      0x04\n      dup2\n      gt\n      iszero\n      tag_140\n      jumpi\n      tag_141\n      tag_85\n      jump\t// in\n    tag_141:\n    tag_140:\n      eq\n        /* \"submissions/Zora/Day24EhancedSimpleEscrow.sol\":3416:3479  require(state == EscrowState.DISPUTED, \"No dispute to resolve\") */\n      tag_142\n      jumpi\n      mload(0x40)\n      0x08c379a000000000000000000000000000000000000000000000000000000000\n      dup2\n      mstore\n      0x04\n      add\n      tag_143\n      swap1\n      tag_144\n      jump\t// in\n    tag_143:\n      mload(0x40)\n      dup1\n      swap2\n      sub\n      swap1\n      revert\n    tag_142:\n        /* \"submissions/Zora/Day24EhancedSimpleEscrow.sol\":3500:3520  EscrowState.COMPLETE */\n      0x02\n        /* \"submissions/Zora/Day24EhancedSimpleEscrow.sol\":3492:3497  state */\n      0x01\n      0x00\n        /* \"submissions/Zora/Day24EhancedSimpleEscrow.sol\":3492:3520  state = EscrowState.COMPLETE */\n      0x0100\n      exp\n      dup2\n      sload\n      dup2\n      0xff\n      mul\n      not\n      and\n      swap1\n      dup4\n      0x04\n      dup2\n      gt\n      iszero\n      tag_145\n      jumpi\n      tag_146\n      tag_85\n      jump\t// in\n    tag_146:\n    tag_145:\n      mul\n      or\n      swap1\n      sstore\n      pop\n        /* \"submissions/Zora/Day24EhancedSimpleEscrow.sol\":3600:3616  _releaseToSeller */\n      dup1\n        /* \"submissions/Zora/Day24EhancedSimpleEscrow.sol\":3596:3860  if (_releaseToSeller) {... */\n      iszero\n      tag_147\n      jumpi\n        /* \"submissions/Zora/Day24EhancedSimpleEscrow.sol\":3641:3647  seller */\n      immutable(\"0x7f8b6b088b6d74c2852fc86c796dca07b44eed6fb3daf5e6b59f7c364db14528\")\n        /* \"submissions/Zora/Day24EhancedSimpleEscrow.sol\":3633:3657  payable(seller).transfer */\n      0xffffffffffffffffffffffffffffffffffffffff\n      and\n        /* \"submissions/Zora/Day24EhancedSimpleEscrow.sol\":3633:3665  payable(seller).transfer(amount) */\n      0x08fc\n        /* \"submissions/Zora/Day24EhancedSimpleEscrow.sol\":3658:3664  amount */\n      sload(0x00)\n        /* \"submissions/Zora/Day24EhancedSimpleEscrow.sol\":3633:3665  payable(seller).transfer(amount) */\n      swap1\n      dup2\n      iszero\n      mul\n      swap1\n      mload(0x40)\n      0x00\n      mload(0x40)\n      dup1\n      dup4\n      sub\n      dup2\n      dup6\n      dup9\n      dup9\n      call\n      swap4\n      pop\n      pop\n      pop\n      pop\n      iszero\n      dup1\n      iszero\n      tag_149\n      jumpi\n      returndatacopy(0x00, 0x00, returndatasize)\n      revert(0x00, returndatasize)\n    tag_149:\n      pop\n        /* \"submissions/Zora/Day24EhancedSimpleEscrow.sol\":3701:3708  arbiter */\n      immutable(\"0x5c4c6aa067b6f8e6cb38e6ab843832a94d1712d661a04d73c517d6a1931a9e5d\")\n        /* \"submissions/Zora/Day24EhancedSimpleEscrow.sol\":3685:3725  DisputeResolved(arbiter, seller, amount) */\n      0xffffffffffffffffffffffffffffffffffffffff\n      and\n      0xc98fd1f80a8937b1fdeb951d0b63bf7c924a1872543ae2499295625b18abe70e\n        /* \"submissions/Zora/Day24EhancedSimpleEscrow.sol\":3710:3716  seller */\n      immutable(\"0x7f8b6b088b6d74c2852fc86c796dca07b44eed6fb3daf5e6b59f7c364db14528\")\n        /* \"submissions/Zora/Day24EhancedSimpleEscrow.sol\":3718:3724  amount */\n      sload(0x00)\n        /* \"submissions/Zora/Day24EhancedSimpleEscrow.sol\":3685:3725  DisputeResolved(arbiter, seller, amount) */\n      mload(0x40)\n      tag_150\n      swap3\n      swap2\n      swap1\n      tag_151\n      jump\t// in\n    tag_150:\n      mload(0x40)\n      dup1\n      swap2\n      sub\n      swap1\n      log2\n        /* \"submissions/Zora/Day24EhancedSimpleEscrow.sol\":3596:3860  if (_releaseToSeller) {... */\n      jump(tag_152)\n    tag_147:\n        /* \"submissions/Zora/Day24EhancedSimpleEscrow.sol\":3766:3771  buyer */\n      immutable(\"0x1a192fabce13988b84994d4296e6cdc418d55e2f1d7f942188d4040b94fc57ac\")\n        /* \"submissions/Zora/Day24EhancedSimpleEscrow.sol\":3758:3781  payable(buyer).transfer */\n      0xffffffffffffffffffffffffffffffffffffffff\n      and\n        /* \"submissions/Zora/Day24EhancedSimpleEscrow.sol\":3758:3789  payable(buyer).transfer(amount) */\n      0x08fc\n        /* \"submissions/Zora/Day24EhancedSimpleEscrow.sol\":3782:3788  amount */\n      sload(0x00)\n        /* \"submissions/Zora/Day24EhancedSimpleEscrow.sol\":3758:3789  payable(buyer).transfer(amount) */\n      swap1\n      dup2\n      iszero\n      mul\n      swap1\n      mload(0x40)\n      0x00\n      mload(0x40)\n      dup1\n      dup4\n      sub\n      dup2\n      dup6\n      dup9\n      dup9\n      call\n      swap4\n      pop\n      pop\n      pop\n      pop\n      iszero\n      dup1\n      iszero\n      tag_154\n      jumpi\n      returndatacopy(0x00, 0x00, returndatasize)\n      revert(0x00, returndatasize)\n    tag_154:\n      pop\n        /* \"submissions/Zora/Day24EhancedSimpleEscrow.sol\":3825:3832  arbiter */\n      immutable(\"0x5c4c6aa067b6f8e6cb38e6ab843832a94d1712d661a04d73c517d6a1931a9e5d\")\n        /* \"submissions/Zora/Day24EhancedSimpleEscrow.sol\":3809:3848  DisputeResolved(arbiter, buyer, amount) */\n      0xffffffffffffffffffffffffffffffffffffffff\n      and\n      0xc98fd1f80a8937b1fdeb951d0b63bf7c924a1872543ae2499295625b18abe70e\n        /* \"submissions/Zora/Day24EhancedSimpleEscrow.sol\":3834:3839  buyer */\n      immutable(\"0x1a192fabce13988b84994d4296e6cdc418d55e2f1d7f942188d4040b94fc57ac\")\n        /* \"submissions/Zora/Day24EhancedSimpleEscrow.sol\":3841:3847  amount */\n      sload(0x00)\n        /* \"submissions/Zora/Day24EhancedSimpleEscrow.sol\":3809:3848  DisputeResolved(arbiter, buyer, amount) */\n      mload(0x40)\n      tag_155\n      swap3\n      swap2\n      swap1\n      tag_151\n      jump\t// in\n    tag_155:\n      mload(0x40)\n      dup1\n      swap2\n      sub\n      swap1\n      log2\n        /* \"submissions/Zora/Day24EhancedSimpleEscrow.sol\":3596:3860  if (_releaseToSeller) {... */\n    tag_152:\n        /* \"submissions/Zora/Day24EhancedSimpleEscrow.sol\":3280:3867  function resolveDispute(bool _releaseToSeller) external {... */\n      pop\n      jump\t// out\n        /* \"submissions/Zora/Day24EhancedSimpleEscrow.sol\":491:512  uint256 public amount */\n    tag_54:\n      sload(0x00)\n      dup2\n      jump\t// out\n        /* \"submissions/Zora/Day24EhancedSimpleEscrow.sol\":547:571  EscrowState public state */\n    tag_58:\n      0x01\n      0x00\n      swap1\n      sload\n      swap1\n      0x0100\n      exp\n      swap1\n      div\n      0xff\n      and\n      dup2\n      jump\t// out\n        /* \"submissions/Zora/Day24EhancedSimpleEscrow.sol\":5138:5404  function getTimeLeft() external view returns (uint256) {... */\n    tag_63:\n        /* \"submissions/Zora/Day24EhancedSimpleEscrow.sol\":5184:5191  uint256 */\n      0x00\n        /* \"submissions/Zora/Day24EhancedSimpleEscrow.sol\":5217:5246  EscrowState.AWAITING_DELIVERY */\n      0x01\n        /* \"submissions/Zora/Day24EhancedSimpleEscrow.sol\":5208:5246  state != EscrowState.AWAITING_DELIVERY */\n      0x04\n      dup2\n      gt\n      iszero\n      tag_157\n      jumpi\n      tag_158\n      tag_85\n      jump\t// in\n    tag_158:\n    tag_157:\n        /* \"submissions/Zora/Day24EhancedSimpleEscrow.sol\":5208:5213  state */\n      0x01\n      0x00\n      swap1\n      sload\n      swap1\n      0x0100\n      exp\n      swap1\n      div\n      0xff\n      and\n        /* \"submissions/Zora/Day24EhancedSimpleEscrow.sol\":5208:5246  state != EscrowState.AWAITING_DELIVERY */\n      0x04\n      dup2\n      gt\n      iszero\n      tag_159\n      jumpi\n      tag_160\n      tag_85\n      jump\t// in\n    tag_160:\n    tag_159:\n      eq\n        /* \"submissions/Zora/Day24EhancedSimpleEscrow.sol\":5204:5256  if (state != EscrowState.AWAITING_DELIVERY) return 0 */\n      tag_161\n      jumpi\n        /* \"submissions/Zora/Day24EhancedSimpleEscrow.sol\":5255:5256  0 */\n      0x00\n        /* \"submissions/Zora/Day24EhancedSimpleEscrow.sol\":5248:5256  return 0 */\n      swap1\n      pop\n      jump(tag_156)\n        /* \"submissions/Zora/Day24EhancedSimpleEscrow.sol\":5204:5256  if (state != EscrowState.AWAITING_DELIVERY) return 0 */\n    tag_161:\n        /* \"submissions/Zora/Day24EhancedSimpleEscrow.sol\":5304:5319  deliveryTimeout */\n      sload(0x03)\n        /* \"submissions/Zora/Day24EhancedSimpleEscrow.sol\":5290:5301  depositTime */\n      sload(0x02)\n        /* \"submissions/Zora/Day24EhancedSimpleEscrow.sol\":5290:5319  depositTime + deliveryTimeout */\n      tag_162\n      swap2\n      swap1\n      tag_163\n      jump\t// in\n    tag_162:\n        /* \"submissions/Zora/Day24EhancedSimpleEscrow.sol\":5271:5286  block.timestamp */\n      timestamp\n        /* \"submissions/Zora/Day24EhancedSimpleEscrow.sol\":5271:5319  block.timestamp >= depositTime + deliveryTimeout */\n      lt\n        /* \"submissions/Zora/Day24EhancedSimpleEscrow.sol\":5267:5329  if (block.timestamp >= depositTime + deliveryTimeout) return 0 */\n      tag_164\n      jumpi\n        /* \"submissions/Zora/Day24EhancedSimpleEscrow.sol\":5328:5329  0 */\n      0x00\n        /* \"submissions/Zora/Day24EhancedSimpleEscrow.sol\":5321:5329  return 0 */\n      swap1\n      pop\n      jump(tag_156)\n        /* \"submissions/Zora/Day24EhancedSimpleEscrow.sol\":5267:5329  if (block.timestamp >= depositTime + deliveryTimeout) return 0 */\n    tag_164:\n        /* \"submissions/Zora/Day24EhancedSimpleEscrow.sol\":5381:5396  block.timestamp */\n      timestamp\n        /* \"submissions/Zora/Day24EhancedSimpleEscrow.sol\":5362:5377  deliveryTimeout */\n      sload(0x03)\n        /* \"submissions/Zora/Day24EhancedSimpleEscrow.sol\":5348:5359  depositTime */\n      sload(0x02)\n        /* \"submissions/Zora/Day24EhancedSimpleEscrow.sol\":5348:5377  depositTime + deliveryTimeout */\n      tag_165\n      swap2\n      swap1\n      tag_163\n      jump\t// in\n    tag_165:\n        /* \"submissions/Zora/Day24EhancedSimpleEscrow.sol\":5347:5396  (depositTime + deliveryTimeout) - block.timestamp */\n      tag_166\n      swap2\n      swap1\n      tag_167\n      jump\t// in\n    tag_166:\n        /* \"submissions/Zora/Day24EhancedSimpleEscrow.sol\":5340:5396  return (depositTime + deliveryTimeout) - block.timestamp */\n      swap1\n      pop\n        /* \"submissions/Zora/Day24EhancedSimpleEscrow.sol\":5138:5404  function getTimeLeft() external view returns (uint256) {... */\n    tag_156:\n      swap1\n      jump\t// out\n        /* \"submissions/Zora/Day24EhancedSimpleEscrow.sol\":1954:2508  function deposit() external payable {... */\n    tag_66:\n        /* \"submissions/Zora/Day24EhancedSimpleEscrow.sol\":2023:2028  buyer */\n      immutable(\"0x1a192fabce13988b84994d4296e6cdc418d55e2f1d7f942188d4040b94fc57ac\")\n        /* \"submissions/Zora/Day24EhancedSimpleEscrow.sol\":2009:2028  msg.sender == buyer */\n      0xffffffffffffffffffffffffffffffffffffffff\n      and\n        /* \"submissions/Zora/Day24EhancedSimpleEscrow.sol\":2009:2019  msg.sender */\n      caller\n        /* \"submissions/Zora/Day24EhancedSimpleEscrow.sol\":2009:2028  msg.sender == buyer */\n      0xffffffffffffffffffffffffffffffffffffffff\n      and\n      eq\n        /* \"submissions/Zora/Day24EhancedSimpleEscrow.sol\":2001:2055  require(msg.sender == buyer, \"Only buyer can deposit\") */\n      tag_169\n      jumpi\n      mload(0x40)\n      0x08c379a000000000000000000000000000000000000000000000000000000000\n      dup2\n      mstore\n      0x04\n      add\n      tag_170\n      swap1\n      tag_171\n      jump\t// in\n    tag_170:\n      mload(0x40)\n      dup1\n      swap2\n      sub\n      swap1\n      revert\n    tag_169:\n        /* \"submissions/Zora/Day24EhancedSimpleEscrow.sol\":2083:2111  EscrowState.AWAITING_PAYMENT */\n      0x00\n        /* \"submissions/Zora/Day24EhancedSimpleEscrow.sol\":2074:2111  state == EscrowState.AWAITING_PAYMENT */\n      0x04\n      dup2\n      gt\n      iszero\n      tag_172\n      jumpi\n      tag_173\n      tag_85\n      jump\t// in\n    tag_173:\n    tag_172:\n        /* \"submissions/Zora/Day24EhancedSimpleEscrow.sol\":2074:2079  state */\n      0x01\n      0x00\n      swap1\n      sload\n      swap1\n      0x0100\n      exp\n      swap1\n      div\n      0xff\n      and\n        /* \"submissions/Zora/Day24EhancedSimpleEscrow.sol\":2074:2111  state == EscrowState.AWAITING_PAYMENT */\n      0x04\n      dup2\n      gt\n      iszero\n      tag_174\n      jumpi\n      tag_175\n      tag_85\n      jump\t// in\n    tag_175:\n    tag_174:\n      eq\n        /* \"submissions/Zora/Day24EhancedSimpleEscrow.sol\":2066:2128  require(state == EscrowState.AWAITING_PAYMENT, \"Already paid\") */\n      tag_176\n      jumpi\n      mload(0x40)\n      0x08c379a000000000000000000000000000000000000000000000000000000000\n      dup2\n      mstore\n      0x04\n      add\n      tag_177\n      swap1\n      tag_178\n      jump\t// in\n    tag_177:\n      mload(0x40)\n      dup1\n      swap2\n      sub\n      swap1\n      revert\n    tag_176:\n        /* \"submissions/Zora/Day24EhancedSimpleEscrow.sol\":2177:2178  0 */\n      0x00\n        /* \"submissions/Zora/Day24EhancedSimpleEscrow.sol\":2165:2174  msg.value */\n      callvalue\n        /* \"submissions/Zora/Day24EhancedSimpleEscrow.sol\":2165:2178  msg.value > 0 */\n      gt\n        /* \"submissions/Zora/Day24EhancedSimpleEscrow.sol\":2157:2215  require(msg.value > 0, \"Amount must be greater than zero\") */\n      tag_179\n      jumpi\n      mload(0x40)\n      0x08c379a000000000000000000000000000000000000000000000000000000000\n      dup2\n      mstore\n      0x04\n      add\n      tag_180\n      swap1\n      tag_181\n      jump\t// in\n    tag_180:\n      mload(0x40)\n      dup1\n      swap2\n      sub\n      swap1\n      revert\n    tag_179:\n        /* \"submissions/Zora/Day24EhancedSimpleEscrow.sol\":2237:2246  msg.value */\n      callvalue\n        /* \"submissions/Zora/Day24EhancedSimpleEscrow.sol\":2228:2234  amount */\n      0x00\n        /* \"submissions/Zora/Day24EhancedSimpleEscrow.sol\":2228:2246  amount = msg.value */\n      dup2\n      swap1\n      sstore\n      pop\n        /* \"submissions/Zora/Day24EhancedSimpleEscrow.sol\":2347:2376  EscrowState.AWAITING_DELIVERY */\n      0x01\n        /* \"submissions/Zora/Day24EhancedSimpleEscrow.sol\":2339:2344  state */\n      dup1\n      0x00\n        /* \"submissions/Zora/Day24EhancedSimpleEscrow.sol\":2339:2376  state = EscrowState.AWAITING_DELIVERY */\n      0x0100\n      exp\n      dup2\n      sload\n      dup2\n      0xff\n      mul\n      not\n      and\n      swap1\n      dup4\n      0x04\n      dup2\n      gt\n      iszero\n      tag_182\n      jumpi\n      tag_183\n      tag_85\n      jump\t// in\n    tag_183:\n    tag_182:\n      mul\n      or\n      swap1\n      sstore\n      pop\n        /* \"submissions/Zora/Day24EhancedSimpleEscrow.sol\":2438:2453  block.timestamp */\n      timestamp\n        /* \"submissions/Zora/Day24EhancedSimpleEscrow.sol\":2424:2435  depositTime */\n      0x02\n        /* \"submissions/Zora/Day24EhancedSimpleEscrow.sol\":2424:2453  depositTime = block.timestamp */\n      dup2\n      swap1\n      sstore\n      pop\n        /* \"submissions/Zora/Day24EhancedSimpleEscrow.sol\":2486:2491  buyer */\n      immutable(\"0x1a192fabce13988b84994d4296e6cdc418d55e2f1d7f942188d4040b94fc57ac\")\n        /* \"submissions/Zora/Day24EhancedSimpleEscrow.sol\":2469:2500  PaymentDeposited(buyer, amount) */\n      0xffffffffffffffffffffffffffffffffffffffff\n      and\n      0xd348a8f42fae8db1d0030271b37ed6d94a5e292ff36db57b244ffe13f494dd45\n        /* \"submissions/Zora/Day24EhancedSimpleEscrow.sol\":2493:2499  amount */\n      sload(0x00)\n        /* \"submissions/Zora/Day24EhancedSimpleEscrow.sol\":2469:2500  PaymentDeposited(buyer, amount) */\n      mload(0x40)\n      tag_184\n      swap2\n      swap1\n      tag_39\n      jump\t// in\n    tag_184:\n      mload(0x40)\n      dup1\n      swap2\n      sub\n      swap1\n      log2\n        /* \"submissions/Zora/Day24EhancedSimpleEscrow.sol\":1954:2508  function deposit() external payable {... */\n      jump\t// out\n        /* \"submissions/Zora/Day24EhancedSimpleEscrow.sol\":611:641  uint256 public deliveryTimeout */\n    tag_69:\n      sload(0x03)\n      dup2\n      jump\t// out\n        /* \"submissions/Zora/Day24EhancedSimpleEscrow.sol\":3919:4481  function cancelAfterTimeout() external {... */\n    tag_73:\n        /* \"submissions/Zora/Day24EhancedSimpleEscrow.sol\":3991:3996  buyer */\n      immutable(\"0x1a192fabce13988b84994d4296e6cdc418d55e2f1d7f942188d4040b94fc57ac\")\n        /* \"submissions/Zora/Day24EhancedSimpleEscrow.sol\":3977:3996  msg.sender == buyer */\n      0xffffffffffffffffffffffffffffffffffffffff\n      and\n        /* \"submissions/Zora/Day24EhancedSimpleEscrow.sol\":3977:3987  msg.sender */\n      caller\n        /* \"submissions/Zora/Day24EhancedSimpleEscrow.sol\":3977:3996  msg.sender == buyer */\n      0xffffffffffffffffffffffffffffffffffffffff\n      and\n      eq\n        /* \"submissions/Zora/Day24EhancedSimpleEscrow.sol\":3969:4044  require(msg.sender == buyer, \"Only buyer can trigger timeout cancellation\") */\n      tag_186\n      jumpi\n      mload(0x40)\n      0x08c379a000000000000000000000000000000000000000000000000000000000\n      dup2\n      mstore\n      0x04\n      add\n      tag_187\n      swap1\n      tag_188\n      jump\t// in\n    tag_187:\n      mload(0x40)\n      dup1\n      swap2\n      sub\n      swap1\n      revert\n    tag_186:\n        /* \"submissions/Zora/Day24EhancedSimpleEscrow.sol\":4072:4101  EscrowState.AWAITING_DELIVERY */\n      0x01\n        /* \"submissions/Zora/Day24EhancedSimpleEscrow.sol\":4063:4101  state == EscrowState.AWAITING_DELIVERY */\n      0x04\n      dup2\n      gt\n      iszero\n      tag_189\n      jumpi\n      tag_190\n      tag_85\n      jump\t// in\n    tag_190:\n    tag_189:\n        /* \"submissions/Zora/Day24EhancedSimpleEscrow.sol\":4063:4068  state */\n      0x01\n      0x00\n      swap1\n      sload\n      swap1\n      0x0100\n      exp\n      swap1\n      div\n      0xff\n      and\n        /* \"submissions/Zora/Day24EhancedSimpleEscrow.sol\":4063:4101  state == EscrowState.AWAITING_DELIVERY */\n      0x04\n      dup2\n      gt\n      iszero\n      tag_191\n      jumpi\n      tag_192\n      tag_85\n      jump\t// in\n    tag_192:\n    tag_191:\n      eq\n        /* \"submissions/Zora/Day24EhancedSimpleEscrow.sol\":4055:4136  require(state == EscrowState.AWAITING_DELIVERY, \"Cannot cancel in current state\") */\n      tag_193\n      jumpi\n      mload(0x40)\n      0x08c379a000000000000000000000000000000000000000000000000000000000\n      dup2\n      mstore\n      0x04\n      add\n      tag_194\n      swap1\n      tag_195\n      jump\t// in\n    tag_194:\n      mload(0x40)\n      dup1\n      swap2\n      sub\n      swap1\n      revert\n    tag_193:\n        /* \"submissions/Zora/Day24EhancedSimpleEscrow.sol\":4188:4203  deliveryTimeout */\n      sload(0x03)\n        /* \"submissions/Zora/Day24EhancedSimpleEscrow.sol\":4174:4185  depositTime */\n      sload(0x02)\n        /* \"submissions/Zora/Day24EhancedSimpleEscrow.sol\":4174:4203  depositTime + deliveryTimeout */\n      tag_196\n      swap2\n      swap1\n      tag_163\n      jump\t// in\n    tag_196:\n        /* \"submissions/Zora/Day24EhancedSimpleEscrow.sol\":4155:4170  block.timestamp */\n      timestamp\n        /* \"submissions/Zora/Day24EhancedSimpleEscrow.sol\":4155:4203  block.timestamp >= depositTime + deliveryTimeout */\n      lt\n      iszero\n        /* \"submissions/Zora/Day24EhancedSimpleEscrow.sol\":4147:4227  require(block.timestamp >= depositTime + deliveryTimeout, \"Timeout not reached\") */\n      tag_197\n      jumpi\n      mload(0x40)\n      0x08c379a000000000000000000000000000000000000000000000000000000000\n      dup2\n      mstore\n      0x04\n      add\n      tag_198\n      swap1\n      tag_199\n      jump\t// in\n    tag_198:\n      mload(0x40)\n      dup1\n      swap2\n      sub\n      swap1\n      revert\n    tag_197:\n        /* \"submissions/Zora/Day24EhancedSimpleEscrow.sol\":4248:4269  EscrowState.CANCELLED */\n      0x04\n        /* \"submissions/Zora/Day24EhancedSimpleEscrow.sol\":4240:4245  state */\n      0x01\n      0x00\n        /* \"submissions/Zora/Day24EhancedSimpleEscrow.sol\":4240:4269  state = EscrowState.CANCELLED */\n      0x0100\n      exp\n      dup2\n      sload\n      dup2\n      0xff\n      mul\n      not\n      and\n      swap1\n      dup4\n      0x04\n      dup2\n      gt\n      iszero\n      tag_200\n      jumpi\n      tag_201\n      tag_85\n      jump\t// in\n    tag_201:\n    tag_200:\n      mul\n      or\n      swap1\n      sstore\n      pop\n        /* \"submissions/Zora/Day24EhancedSimpleEscrow.sol\":4352:4357  buyer */\n      immutable(\"0x1a192fabce13988b84994d4296e6cdc418d55e2f1d7f942188d4040b94fc57ac\")\n        /* \"submissions/Zora/Day24EhancedSimpleEscrow.sol\":4344:4367  payable(buyer).transfer */\n      0xffffffffffffffffffffffffffffffffffffffff\n      and\n        /* \"submissions/Zora/Day24EhancedSimpleEscrow.sol\":4344:4390  payable(buyer).transfer(address(this).balance) */\n      0x08fc\n        /* \"submissions/Zora/Day24EhancedSimpleEscrow.sol\":4368:4389  address(this).balance */\n      selfbalance\n        /* \"submissions/Zora/Day24EhancedSimpleEscrow.sol\":4344:4390  payable(buyer).transfer(address(this).balance) */\n      swap1\n      dup2\n      iszero\n      mul\n      swap1\n      mload(0x40)\n      0x00\n      mload(0x40)\n      dup1\n      dup4\n      sub\n      dup2\n      dup6\n      dup9\n      dup9\n      call\n      swap4\n      pop\n      pop\n      pop\n      pop\n      iszero\n      dup1\n      iszero\n      tag_203\n      jumpi\n      returndatacopy(0x00, 0x00, returndatasize)\n      revert(0x00, returndatasize)\n    tag_203:\n      pop\n        /* \"submissions/Zora/Day24EhancedSimpleEscrow.sol\":4422:4427  buyer */\n      immutable(\"0x1a192fabce13988b84994d4296e6cdc418d55e2f1d7f942188d4040b94fc57ac\")\n        /* \"submissions/Zora/Day24EhancedSimpleEscrow.sol\":4406:4428  EscrowCancelled(buyer) */\n      0xffffffffffffffffffffffffffffffffffffffff\n      and\n      0xac2a38716bf0fa9fa1a52e859663398120e11fa721ea31fe0682199b9fd367e7\n      mload(0x40)\n      mload(0x40)\n      dup1\n      swap2\n      sub\n      swap1\n      log2\n        /* \"submissions/Zora/Day24EhancedSimpleEscrow.sol\":4467:4472  buyer */\n      immutable(\"0x1a192fabce13988b84994d4296e6cdc418d55e2f1d7f942188d4040b94fc57ac\")\n        /* \"submissions/Zora/Day24EhancedSimpleEscrow.sol\":4444:4473  DeliveryTimeoutReached(buyer) */\n      0xffffffffffffffffffffffffffffffffffffffff\n      and\n      0x2bf2011b75b523a6a342b7f6d3fd3a1faf2086f70351c66f9a893a33e5260fe4\n      mload(0x40)\n      mload(0x40)\n      dup1\n      swap2\n      sub\n      swap1\n      log2\n        /* \"submissions/Zora/Day24EhancedSimpleEscrow.sol\":3919:4481  function cancelAfterTimeout() external {... */\n      jump\t// out\n        /* \"submissions/Zora/Day24EhancedSimpleEscrow.sol\":401:433  address public immutable arbiter */\n    tag_76:\n      immutable(\"0x5c4c6aa067b6f8e6cb38e6ab843832a94d1712d661a04d73c517d6a1931a9e5d\")\n      dup2\n      jump\t// out\n        /* \"#utility.yul\":7:176   */\n    tag_204:\n        /* \"#utility.yul\":91:102   */\n      0x00\n        /* \"#utility.yul\":125:131   */\n      dup3\n        /* \"#utility.yul\":120:123   */\n      dup3\n        /* \"#utility.yul\":113:132   */\n      mstore\n        /* \"#utility.yul\":165:169   */\n      0x20\n        /* \"#utility.yul\":160:163   */\n      dup3\n        /* \"#utility.yul\":156:170   */\n      add\n        /* \"#utility.yul\":141:170   */\n      swap1\n      pop\n        /* \"#utility.yul\":7:176   */\n      swap3\n      swap2\n      pop\n      pop\n      jump\t// out\n        /* \"#utility.yul\":182:359   */\n    tag_205:\n        /* \"#utility.yul\":322:351   */\n      0x446972656374207061796d656e7473206e6f7420616c6c6f7765640000000000\n        /* \"#utility.yul\":318:319   */\n      0x00\n        /* \"#utility.yul\":310:316   */\n      dup3\n        /* \"#utility.yul\":306:320   */\n      add\n        /* \"#utility.yul\":299:352   */\n      mstore\n        /* \"#utility.yul\":182:359   */\n      pop\n      jump\t// out\n        /* \"#utility.yul\":365:731   */\n    tag_206:\n        /* \"#utility.yul\":507:510   */\n      0x00\n        /* \"#utility.yul\":528:595   */\n      tag_253\n        /* \"#utility.yul\":592:594   */\n      0x1b\n        /* \"#utility.yul\":587:590   */\n      dup4\n        /* \"#utility.yul\":528:595   */\n      tag_204\n      jump\t// in\n    tag_253:\n        /* \"#utility.yul\":521:595   */\n      swap2\n      pop\n        /* \"#utility.yul\":604:697   */\n      tag_254\n        /* \"#utility.yul\":693:696   */\n      dup3\n        /* \"#utility.yul\":604:697   */\n      tag_205\n      jump\t// in\n    tag_254:\n        /* \"#utility.yul\":722:724   */\n      0x20\n        /* \"#utility.yul\":717:720   */\n      dup3\n        /* \"#utility.yul\":713:725   */\n      add\n        /* \"#utility.yul\":706:725   */\n      swap1\n      pop\n        /* \"#utility.yul\":365:731   */\n      swap2\n      swap1\n      pop\n      jump\t// out\n        /* \"#utility.yul\":737:1156   */\n    tag_23:\n        /* \"#utility.yul\":903:907   */\n      0x00\n        /* \"#utility.yul\":941:943   */\n      0x20\n        /* \"#utility.yul\":930:939   */\n      dup3\n        /* \"#utility.yul\":926:944   */\n      add\n        /* \"#utility.yul\":918:944   */\n      swap1\n      pop\n        /* \"#utility.yul\":990:999   */\n      dup2\n        /* \"#utility.yul\":984:988   */\n      dup2\n        /* \"#utility.yul\":980:1000   */\n      sub\n        /* \"#utility.yul\":976:977   */\n      0x00\n        /* \"#utility.yul\":965:974   */\n      dup4\n        /* \"#utility.yul\":961:978   */\n      add\n        /* \"#utility.yul\":954:1001   */\n      mstore\n        /* \"#utility.yul\":1018:1149   */\n      tag_256\n        /* \"#utility.yul\":1144:1148   */\n      dup2\n        /* \"#utility.yul\":1018:1149   */\n      tag_206\n      jump\t// in\n    tag_256:\n        /* \"#utility.yul\":1010:1149   */\n      swap1\n      pop\n        /* \"#utility.yul\":737:1156   */\n      swap2\n      swap1\n      pop\n      jump\t// out\n        /* \"#utility.yul\":1162:1288   */\n    tag_207:\n        /* \"#utility.yul\":1199:1206   */\n      0x00\n        /* \"#utility.yul\":1239:1281   */\n      0xffffffffffffffffffffffffffffffffffffffff\n        /* \"#utility.yul\":1232:1237   */\n      dup3\n        /* \"#utility.yul\":1228:1282   */\n      and\n        /* \"#utility.yul\":1217:1282   */\n      swap1\n      pop\n        /* \"#utility.yul\":1162:1288   */\n      swap2\n      swap1\n      pop\n      jump\t// out\n        /* \"#utility.yul\":1294:1390   */\n    tag_208:\n        /* \"#utility.yul\":1331:1338   */\n      0x00\n        /* \"#utility.yul\":1360:1384   */\n      tag_259\n        /* \"#utility.yul\":1378:1383   */\n      dup3\n        /* \"#utility.yul\":1360:1384   */\n      tag_207\n      jump\t// in\n    tag_259:\n        /* \"#utility.yul\":1349:1384   */\n      swap1\n      pop\n        /* \"#utility.yul\":1294:1390   */\n      swap2\n      swap1\n      pop\n      jump\t// out\n        /* \"#utility.yul\":1396:1514   */\n    tag_209:\n        /* \"#utility.yul\":1483:1507   */\n      tag_261\n        /* \"#utility.yul\":1501:1506   */\n      dup2\n        /* \"#utility.yul\":1483:1507   */\n      tag_208\n      jump\t// in\n    tag_261:\n        /* \"#utility.yul\":1478:1481   */\n      dup3\n        /* \"#utility.yul\":1471:1508   */\n      mstore\n        /* \"#utility.yul\":1396:1514   */\n      pop\n      pop\n      jump\t// out\n        /* \"#utility.yul\":1520:1742   */\n    tag_28:\n        /* \"#utility.yul\":1613:1617   */\n      0x00\n        /* \"#utility.yul\":1651:1653   */\n      0x20\n        /* \"#utility.yul\":1640:1649   */\n      dup3\n        /* \"#utility.yul\":1636:1654   */\n      add\n        /* \"#utility.yul\":1628:1654   */\n      swap1\n      pop\n        /* \"#utility.yul\":1664:1735   */\n      tag_263\n        /* \"#utility.yul\":1732:1733   */\n      0x00\n        /* \"#utility.yul\":1721:1730   */\n      dup4\n        /* \"#utility.yul\":1717:1734   */\n      add\n        /* \"#utility.yul\":1708:1714   */\n      dup5\n        /* \"#utility.yul\":1664:1735   */\n      tag_209\n      jump\t// in\n    tag_263:\n        /* \"#utility.yul\":1520:1742   */\n      swap3\n      swap2\n      pop\n      pop\n      jump\t// out\n        /* \"#utility.yul\":1748:1825   */\n    tag_210:\n        /* \"#utility.yul\":1785:1792   */\n      0x00\n        /* \"#utility.yul\":1814:1819   */\n      dup2\n        /* \"#utility.yul\":1803:1819   */\n      swap1\n      pop\n        /* \"#utility.yul\":1748:1825   */\n      swap2\n      swap1\n      pop\n      jump\t// out\n        /* \"#utility.yul\":1831:1949   */\n    tag_211:\n        /* \"#utility.yul\":1918:1942   */\n      tag_266\n        /* \"#utility.yul\":1936:1941   */\n      dup2\n        /* \"#utility.yul\":1918:1942   */\n      tag_210\n      jump\t// in\n    tag_266:\n        /* \"#utility.yul\":1913:1916   */\n      dup3\n        /* \"#utility.yul\":1906:1943   */\n      mstore\n        /* \"#utility.yul\":1831:1949   */\n      pop\n      pop\n      jump\t// out\n        /* \"#utility.yul\":1955:2177   */\n    tag_39:\n        /* \"#utility.yul\":2048:2052   */\n      0x00\n        /* \"#utility.yul\":2086:2088   */\n      0x20\n        /* \"#utility.yul\":2075:2084   */\n      dup3\n        /* \"#utility.yul\":2071:2089   */\n      add\n        /* \"#utility.yul\":2063:2089   */\n      swap1\n      pop\n        /* \"#utility.yul\":2099:2170   */\n      tag_268\n        /* \"#utility.yul\":2167:2168   */\n      0x00\n        /* \"#utility.yul\":2156:2165   */\n      dup4\n        /* \"#utility.yul\":2152:2169   */\n      add\n        /* \"#utility.yul\":2143:2149   */\n      dup5\n        /* \"#utility.yul\":2099:2170   */\n      tag_211\n      jump\t// in\n    tag_268:\n        /* \"#utility.yul\":1955:2177   */\n      swap3\n      swap2\n      pop\n      pop\n      jump\t// out\n        /* \"#utility.yul\":2264:2381   */\n    tag_213:\n        /* \"#utility.yul\":2373:2374   */\n      0x00\n        /* \"#utility.yul\":2370:2371   */\n      0x00\n        /* \"#utility.yul\":2363:2375   */\n      revert\n        /* \"#utility.yul\":2510:2600   */\n    tag_215:\n        /* \"#utility.yul\":2544:2551   */\n      0x00\n        /* \"#utility.yul\":2587:2592   */\n      dup2\n        /* \"#utility.yul\":2580:2593   */\n      iszero\n        /* \"#utility.yul\":2573:2594   */\n      iszero\n        /* \"#utility.yul\":2562:2594   */\n      swap1\n      pop\n        /* \"#utility.yul\":2510:2600   */\n      swap2\n      swap1\n      pop\n      jump\t// out\n        /* \"#utility.yul\":2606:2722   */\n    tag_216:\n        /* \"#utility.yul\":2676:2697   */\n      tag_274\n        /* \"#utility.yul\":2691:2696   */\n      dup2\n        /* \"#utility.yul\":2676:2697   */\n      tag_215\n      jump\t// in\n    tag_274:\n        /* \"#utility.yul\":2669:2674   */\n      dup2\n        /* \"#utility.yul\":2666:2698   */\n      eq\n        /* \"#utility.yul\":2656:2716   */\n      tag_275\n      jumpi\n        /* \"#utility.yul\":2712:2713   */\n      0x00\n        /* \"#utility.yul\":2709:2710   */\n      0x00\n        /* \"#utility.yul\":2702:2714   */\n      revert\n        /* \"#utility.yul\":2656:2716   */\n    tag_275:\n        /* \"#utility.yul\":2606:2722   */\n      pop\n      jump\t// out\n        /* \"#utility.yul\":2728:2861   */\n    tag_217:\n        /* \"#utility.yul\":2771:2776   */\n      0x00\n        /* \"#utility.yul\":2809:2815   */\n      dup2\n        /* \"#utility.yul\":2796:2816   */\n      calldataload\n        /* \"#utility.yul\":2787:2816   */\n      swap1\n      pop\n        /* \"#utility.yul\":2825:2855   */\n      tag_277\n        /* \"#utility.yul\":2849:2854   */\n      dup2\n        /* \"#utility.yul\":2825:2855   */\n      tag_216\n      jump\t// in\n    tag_277:\n        /* \"#utility.yul\":2728:2861   */\n      swap3\n      swap2\n      pop\n      pop\n      jump\t// out\n        /* \"#utility.yul\":2867:3190   */\n    tag_50:\n        /* \"#utility.yul\":2923:2929   */\n      0x00\n        /* \"#utility.yul\":2972:2974   */\n      0x20\n        /* \"#utility.yul\":2960:2969   */\n      dup3\n        /* \"#utility.yul\":2951:2958   */\n      dup5\n        /* \"#utility.yul\":2947:2970   */\n      sub\n        /* \"#utility.yul\":2943:2975   */\n      slt\n        /* \"#utility.yul\":2940:3059   */\n      iszero\n      tag_279\n      jumpi\n        /* \"#utility.yul\":2978:3057   */\n      tag_280\n      tag_213\n      jump\t// in\n    tag_280:\n        /* \"#utility.yul\":2940:3059   */\n    tag_279:\n        /* \"#utility.yul\":3098:3099   */\n      0x00\n        /* \"#utility.yul\":3123:3173   */\n      tag_281\n        /* \"#utility.yul\":3165:3172   */\n      dup5\n        /* \"#utility.yul\":3156:3162   */\n      dup3\n        /* \"#utility.yul\":3145:3154   */\n      dup6\n        /* \"#utility.yul\":3141:3163   */\n      add\n        /* \"#utility.yul\":3123:3173   */\n      tag_217\n      jump\t// in\n    tag_281:\n        /* \"#utility.yul\":3113:3173   */\n      swap2\n      pop\n        /* \"#utility.yul\":3069:3183   */\n      pop\n        /* \"#utility.yul\":2867:3190   */\n      swap3\n      swap2\n      pop\n      pop\n      jump\t// out\n        /* \"#utility.yul\":3196:3376   */\n    tag_85:\n        /* \"#utility.yul\":3244:3321   */\n      0x4e487b7100000000000000000000000000000000000000000000000000000000\n        /* \"#utility.yul\":3241:3242   */\n      0x00\n        /* \"#utility.yul\":3234:3322   */\n      mstore\n        /* \"#utility.yul\":3341:3345   */\n      0x21\n        /* \"#utility.yul\":3338:3339   */\n      0x04\n        /* \"#utility.yul\":3331:3346   */\n      mstore\n        /* \"#utility.yul\":3365:3369   */\n      0x24\n        /* \"#utility.yul\":3362:3363   */\n      0x00\n        /* \"#utility.yul\":3355:3370   */\n      revert\n        /* \"#utility.yul\":3382:3500   */\n    tag_218:\n        /* \"#utility.yul\":3468:3469   */\n      0x05\n        /* \"#utility.yul\":3461:3466   */\n      dup2\n        /* \"#utility.yul\":3458:3470   */\n      lt\n        /* \"#utility.yul\":3448:3494   */\n      tag_284\n      jumpi\n        /* \"#utility.yul\":3474:3492   */\n      tag_285\n      tag_85\n      jump\t// in\n    tag_285:\n        /* \"#utility.yul\":3448:3494   */\n    tag_284:\n        /* \"#utility.yul\":3382:3500   */\n      pop\n      jump\t// out\n        /* \"#utility.yul\":3506:3643   */\n    tag_219:\n        /* \"#utility.yul\":3556:3563   */\n      0x00\n        /* \"#utility.yul\":3585:3590   */\n      dup2\n        /* \"#utility.yul\":3574:3590   */\n      swap1\n      pop\n        /* \"#utility.yul\":3591:3637   */\n      tag_287\n        /* \"#utility.yul\":3631:3636   */\n      dup3\n        /* \"#utility.yul\":3591:3637   */\n      tag_218\n      jump\t// in\n    tag_287:\n        /* \"#utility.yul\":3506:3643   */\n      swap2\n      swap1\n      pop\n      jump\t// out\n        /* \"#utility.yul\":3649:3786   */\n    tag_220:\n        /* \"#utility.yul\":3710:3719   */\n      0x00\n        /* \"#utility.yul\":3743:3780   */\n      tag_289\n        /* \"#utility.yul\":3774:3779   */\n      dup3\n        /* \"#utility.yul\":3743:3780   */\n      tag_219\n      jump\t// in\n    tag_289:\n        /* \"#utility.yul\":3730:3780   */\n      swap1\n      pop\n        /* \"#utility.yul\":3649:3786   */\n      swap2\n      swap1\n      pop\n      jump\t// out\n        /* \"#utility.yul\":3792:3945   */\n    tag_221:\n        /* \"#utility.yul\":3890:3938   */\n      tag_291\n        /* \"#utility.yul\":3932:3937   */\n      dup2\n        /* \"#utility.yul\":3890:3938   */\n      tag_220\n      jump\t// in\n    tag_291:\n        /* \"#utility.yul\":3885:3888   */\n      dup3\n        /* \"#utility.yul\":3878:3939   */\n      mstore\n        /* \"#utility.yul\":3792:3945   */\n      pop\n      pop\n      jump\t// out\n        /* \"#utility.yul\":3951:4195   */\n    tag_60:\n        /* \"#utility.yul\":4055:4059   */\n      0x00\n        /* \"#utility.yul\":4093:4095   */\n      0x20\n        /* \"#utility.yul\":4082:4091   */\n      dup3\n        /* \"#utility.yul\":4078:4096   */\n      add\n        /* \"#utility.yul\":4070:4096   */\n      swap1\n      pop\n        /* \"#utility.yul\":4106:4188   */\n      tag_293\n        /* \"#utility.yul\":4185:4186   */\n      0x00\n        /* \"#utility.yul\":4174:4183   */\n      dup4\n        /* \"#utility.yul\":4170:4187   */\n      add\n        /* \"#utility.yul\":4161:4167   */\n      dup5\n        /* \"#utility.yul\":4106:4188   */\n      tag_221\n      jump\t// in\n    tag_293:\n        /* \"#utility.yul\":3951:4195   */\n      swap3\n      swap2\n      pop\n      pop\n      jump\t// out\n        /* \"#utility.yul\":4201:4365   */\n    tag_222:\n        /* \"#utility.yul\":4341:4357   */\n      0x4e6f7420617574686f72697a6564000000000000000000000000000000000000\n        /* \"#utility.yul\":4337:4338   */\n      0x00\n        /* \"#utility.yul\":4329:4335   */\n      dup3\n        /* \"#utility.yul\":4325:4339   */\n      add\n        /* \"#utility.yul\":4318:4358   */\n      mstore\n        /* \"#utility.yul\":4201:4365   */\n      pop\n      jump\t// out\n        /* \"#utility.yul\":4371:4737   */\n    tag_223:\n        /* \"#utility.yul\":4513:4516   */\n      0x00\n        /* \"#utility.yul\":4534:4601   */\n      tag_296\n        /* \"#utility.yul\":4598:4600   */\n      0x0e\n        /* \"#utility.yul\":4593:4596   */\n      dup4\n        /* \"#utility.yul\":4534:4601   */\n      tag_204\n      jump\t// in\n    tag_296:\n        /* \"#utility.yul\":4527:4601   */\n      swap2\n      pop\n        /* \"#utility.yul\":4610:4703   */\n      tag_297\n        /* \"#utility.yul\":4699:4702   */\n      dup3\n        /* \"#utility.yul\":4610:4703   */\n      tag_222\n      jump\t// in\n    tag_297:\n        /* \"#utility.yul\":4728:4730   */\n      0x20\n        /* \"#utility.yul\":4723:4726   */\n      dup3\n        /* \"#utility.yul\":4719:4731   */\n      add\n        /* \"#utility.yul\":4712:4731   */\n      swap1\n      pop\n        /* \"#utility.yul\":4371:4737   */\n      swap2\n      swap1\n      pop\n      jump\t// out\n        /* \"#utility.yul\":4743:5162   */\n    tag_82:\n        /* \"#utility.yul\":4909:4913   */\n      0x00\n        /* \"#utility.yul\":4947:4949   */\n      0x20\n        /* \"#utility.yul\":4936:4945   */\n      dup3\n        /* \"#utility.yul\":4932:4950   */\n      add\n        /* \"#utility.yul\":4924:4950   */\n      swap1\n      pop\n        /* \"#utility.yul\":4996:5005   */\n      dup2\n        /* \"#utility.yul\":4990:4994   */\n      dup2\n        /* \"#utility.yul\":4986:5006   */\n      sub\n        /* \"#utility.yul\":4982:4983   */\n      0x00\n        /* \"#utility.yul\":4971:4980   */\n      dup4\n        /* \"#utility.yul\":4967:4984   */\n      add\n        /* \"#utility.yul\":4960:5007   */\n      mstore\n        /* \"#utility.yul\":5024:5155   */\n      tag_299\n        /* \"#utility.yul\":5150:5154   */\n      dup2\n        /* \"#utility.yul\":5024:5155   */\n      tag_223\n      jump\t// in\n    tag_299:\n        /* \"#utility.yul\":5016:5155   */\n      swap1\n      pop\n        /* \"#utility.yul\":4743:5162   */\n      swap2\n      swap1\n      pop\n      jump\t// out\n        /* \"#utility.yul\":5168:5335   */\n    tag_224:\n        /* \"#utility.yul\":5308:5327   */\n      0x43616e6e6f742063616e63656c206e6f77000000000000000000000000000000\n        /* \"#utility.yul\":5304:5305   */\n      0x00\n        /* \"#utility.yul\":5296:5302   */\n      dup3\n        /* \"#utility.yul\":5292:5306   */\n      add\n        /* \"#utility.yul\":5285:5328   */\n      mstore\n        /* \"#utility.yul\":5168:5335   */\n      pop\n      jump\t// out\n        /* \"#utility.yul\":5341:5707   */\n    tag_225:\n        /* \"#utility.yul\":5483:5486   */\n      0x00\n        /* \"#utility.yul\":5504:5571   */\n      tag_302\n        /* \"#utility.yul\":5568:5570   */\n      0x11\n        /* \"#utility.yul\":5563:5566   */\n      dup4\n        /* \"#utility.yul\":5504:5571   */\n      tag_204\n      jump\t// in\n    tag_302:\n        /* \"#utility.yul\":5497:5571   */\n      swap2\n      pop\n        /* \"#utility.yul\":5580:5673   */\n      tag_303\n        /* \"#utility.yul\":5669:5672   */\n      dup3\n        /* \"#utility.yul\":5580:5673   */\n      tag_224\n      jump\t// in\n    tag_303:\n        /* \"#utility.yul\":5698:5700   */\n      0x20\n        /* \"#utility.yul\":5693:5696   */\n      dup3\n        /* \"#utility.yul\":5689:5701   */\n      add\n        /* \"#utility.yul\":5682:5701   */\n      swap1\n      pop\n        /* \"#utility.yul\":5341:5707   */\n      swap2\n      swap1\n      pop\n      jump\t// out\n        /* \"#utility.yul\":5713:6132   */\n    tag_95:\n        /* \"#utility.yul\":5879:5883   */\n      0x00\n        /* \"#utility.yul\":5917:5919   */\n      0x20\n        /* \"#utility.yul\":5906:5915   */\n      dup3\n        /* \"#utility.yul\":5902:5920   */\n      add\n        /* \"#utility.yul\":5894:5920   */\n      swap1\n      pop\n        /* \"#utility.yul\":5966:5975   */\n      dup2\n        /* \"#utility.yul\":5960:5964   */\n      dup2\n        /* \"#utility.yul\":5956:5976   */\n      sub\n        /* \"#utility.yul\":5952:5953   */\n      0x00\n        /* \"#utility.yul\":5941:5950   */\n      dup4\n        /* \"#utility.yul\":5937:5954   */\n      add\n        /* \"#utility.yul\":5930:5977   */\n      mstore\n        /* \"#utility.yul\":5994:6125   */\n      tag_305\n        /* \"#utility.yul\":6120:6124   */\n      dup2\n        /* \"#utility.yul\":5994:6125   */\n      tag_225\n      jump\t// in\n    tag_305:\n        /* \"#utility.yul\":5986:6125   */\n      swap1\n      pop\n        /* \"#utility.yul\":5713:6132   */\n      swap2\n      swap1\n      pop\n      jump\t// out\n        /* \"#utility.yul\":6138:6310   */\n    tag_226:\n        /* \"#utility.yul\":6278:6302   */\n      0x4f6e6c792062757965722063616e20636f6e6669726d00000000000000000000\n        /* \"#utility.yul\":6274:6275   */\n      0x00\n        /* \"#utility.yul\":6266:6272   */\n      dup3\n        /* \"#utility.yul\":6262:6276   */\n      add\n        /* \"#utility.yul\":6255:6303   */\n      mstore\n        /* \"#utility.yul\":6138:6310   */\n      pop\n      jump\t// out\n        /* \"#utility.yul\":6316:6682   */\n    tag_227:\n        /* \"#utility.yul\":6458:6461   */\n      0x00\n        /* \"#utility.yul\":6479:6546   */\n      tag_308\n        /* \"#utility.yul\":6543:6545   */\n      0x16\n        /* \"#utility.yul\":6538:6541   */\n      dup4\n        /* \"#utility.yul\":6479:6546   */\n      tag_204\n      jump\t// in\n    tag_308:\n        /* \"#utility.yul\":6472:6546   */\n      swap2\n      pop\n        /* \"#utility.yul\":6555:6648   */\n      tag_309\n        /* \"#utility.yul\":6644:6647   */\n      dup3\n        /* \"#utility.yul\":6555:6648   */\n      tag_226\n      jump\t// in\n    tag_309:\n        /* \"#utility.yul\":6673:6675   */\n      0x20\n        /* \"#utility.yul\":6668:6671   */\n      dup3\n        /* \"#utility.yul\":6664:6676   */\n      add\n        /* \"#utility.yul\":6657:6676   */\n      swap1\n      pop\n        /* \"#utility.yul\":6316:6682   */\n      swap2\n      swap1\n      pop\n      jump\t// out\n        /* \"#utility.yul\":6688:7107   */\n    tag_108:\n        /* \"#utility.yul\":6854:6858   */\n      0x00\n        /* \"#utility.yul\":6892:6894   */\n      0x20\n        /* \"#utility.yul\":6881:6890   */\n      dup3\n        /* \"#utility.yul\":6877:6895   */\n      add\n        /* \"#utility.yul\":6869:6895   */\n      swap1\n      pop\n        /* \"#utility.yul\":6941:6950   */\n      dup2\n        /* \"#utility.yul\":6935:6939   */\n      dup2\n        /* \"#utility.yul\":6931:6951   */\n      sub\n        /* \"#utility.yul\":6927:6928   */\n      0x00\n        /* \"#utility.yul\":6916:6925   */\n      dup4\n        /* \"#utility.yul\":6912:6929   */\n      add\n        /* \"#utility.yul\":6905:6952   */\n      mstore\n        /* \"#utility.yul\":6969:7100   */\n      tag_311\n        /* \"#utility.yul\":7095:7099   */\n      dup2\n        /* \"#utility.yul\":6969:7100   */\n      tag_227\n      jump\t// in\n    tag_311:\n        /* \"#utility.yul\":6961:7100   */\n      swap1\n      pop\n        /* \"#utility.yul\":6688:7107   */\n      swap2\n      swap1\n      pop\n      jump\t// out\n        /* \"#utility.yul\":7113:7284   */\n    tag_228:\n        /* \"#utility.yul\":7253:7276   */\n      0x4e6f7420696e2064656c69766572792073746174650000000000000000000000\n        /* \"#utility.yul\":7249:7250   */\n      0x00\n        /* \"#utility.yul\":7241:7247   */\n      dup3\n        /* \"#utility.yul\":7237:7251   */\n      add\n        /* \"#utility.yul\":7230:7277   */\n      mstore\n        /* \"#utility.yul\":7113:7284   */\n      pop\n      jump\t// out\n        /* \"#utility.yul\":7290:7656   */\n    tag_229:\n        /* \"#utility.yul\":7432:7435   */\n      0x00\n        /* \"#utility.yul\":7453:7520   */\n      tag_314\n        /* \"#utility.yul\":7517:7519   */\n      0x15\n        /* \"#utility.yul\":7512:7515   */\n      dup4\n        /* \"#utility.yul\":7453:7520   */\n      tag_204\n      jump\t// in\n    tag_314:\n        /* \"#utility.yul\":7446:7520   */\n      swap2\n      pop\n        /* \"#utility.yul\":7529:7622   */\n      tag_315\n        /* \"#utility.yul\":7618:7621   */\n      dup3\n        /* \"#utility.yul\":7529:7622   */\n      tag_228\n      jump\t// in\n    tag_315:\n        /* \"#utility.yul\":7647:7649   */\n      0x20\n        /* \"#utility.yul\":7642:7645   */\n      dup3\n        /* \"#utility.yul\":7638:7650   */\n      add\n        /* \"#utility.yul\":7631:7650   */\n      swap1\n      pop\n        /* \"#utility.yul\":7290:7656   */\n      swap2\n      swap1\n      pop\n      jump\t// out\n        /* \"#utility.yul\":7662:8081   */\n    tag_115:\n        /* \"#utility.yul\":7828:7832   */\n      0x00\n        /* \"#utility.yul\":7866:7868   */\n      0x20\n        /* \"#utility.yul\":7855:7864   */\n      dup3\n        /* \"#utility.yul\":7851:7869   */\n      add\n        /* \"#utility.yul\":7843:7869   */\n      swap1\n      pop\n        /* \"#utility.yul\":7915:7924   */\n      dup2\n        /* \"#utility.yul\":7909:7913   */\n      dup2\n        /* \"#utility.yul\":7905:7925   */\n      sub\n        /* \"#utility.yul\":7901:7902   */\n      0x00\n        /* \"#utility.yul\":7890:7899   */\n      dup4\n        /* \"#utility.yul\":7886:7903   */\n      add\n        /* \"#utility.yul\":7879:7926   */\n      mstore\n        /* \"#utility.yul\":7943:8074   */\n      tag_317\n        /* \"#utility.yul\":8069:8073   */\n      dup2\n        /* \"#utility.yul\":7943:8074   */\n      tag_229\n      jump\t// in\n    tag_317:\n        /* \"#utility.yul\":7935:8074   */\n      swap1\n      pop\n        /* \"#utility.yul\":7662:8081   */\n      swap2\n      swap1\n      pop\n      jump\t// out\n        /* \"#utility.yul\":8087:8254   */\n    tag_230:\n        /* \"#utility.yul\":8227:8246   */\n      0x43616e27742064697370757465206e6f77000000000000000000000000000000\n        /* \"#utility.yul\":8223:8224   */\n      0x00\n        /* \"#utility.yul\":8215:8221   */\n      dup3\n        /* \"#utility.yul\":8211:8225   */\n      add\n        /* \"#utility.yul\":8204:8247   */\n      mstore\n        /* \"#utility.yul\":8087:8254   */\n      pop\n      jump\t// out\n        /* \"#utility.yul\":8260:8626   */\n    tag_231:\n        /* \"#utility.yul\":8402:8405   */\n      0x00\n        /* \"#utility.yul\":8423:8490   */\n      tag_320\n        /* \"#utility.yul\":8487:8489   */\n      0x11\n        /* \"#utility.yul\":8482:8485   */\n      dup4\n        /* \"#utility.yul\":8423:8490   */\n      tag_204\n      jump\t// in\n    tag_320:\n        /* \"#utility.yul\":8416:8490   */\n      swap2\n      pop\n        /* \"#utility.yul\":8499:8592   */\n      tag_321\n        /* \"#utility.yul\":8588:8591   */\n      dup3\n        /* \"#utility.yul\":8499:8592   */\n      tag_230\n      jump\t// in\n    tag_321:\n        /* \"#utility.yul\":8617:8619   */\n      0x20\n        /* \"#utility.yul\":8612:8615   */\n      dup3\n        /* \"#utility.yul\":8608:8620   */\n      add\n        /* \"#utility.yul\":8601:8620   */\n      swap1\n      pop\n        /* \"#utility.yul\":8260:8626   */\n      swap2\n      swap1\n      pop\n      jump\t// out\n        /* \"#utility.yul\":8632:9051   */\n    tag_131:\n        /* \"#utility.yul\":8798:8802   */\n      0x00\n        /* \"#utility.yul\":8836:8838   */\n      0x20\n        /* \"#utility.yul\":8825:8834   */\n      dup3\n        /* \"#utility.yul\":8821:8839   */\n      add\n        /* \"#utility.yul\":8813:8839   */\n      swap1\n      pop\n        /* \"#utility.yul\":8885:8894   */\n      dup2\n        /* \"#utility.yul\":8879:8883   */\n      dup2\n        /* \"#utility.yul\":8875:8895   */\n      sub\n        /* \"#utility.yul\":8871:8872   */\n      0x00\n        /* \"#utility.yul\":8860:8869   */\n      dup4\n        /* \"#utility.yul\":8856:8873   */\n      add\n        /* \"#utility.yul\":8849:8896   */\n      mstore\n        /* \"#utility.yul\":8913:9044   */\n      tag_323\n        /* \"#utility.yul\":9039:9043   */\n      dup2\n        /* \"#utility.yul\":8913:9044   */\n      tag_231\n      jump\t// in\n    tag_323:\n        /* \"#utility.yul\":8905:9044   */\n      swap1\n      pop\n        /* \"#utility.yul\":8632:9051   */\n      swap2\n      swap1\n      pop\n      jump\t// out\n        /* \"#utility.yul\":9057:9231   */\n    tag_232:\n        /* \"#utility.yul\":9197:9223   */\n      0x4f6e6c7920617262697465722063616e207265736f6c76650000000000000000\n        /* \"#utility.yul\":9193:9194   */\n      0x00\n        /* \"#utility.yul\":9185:9191   */\n      dup3\n        /* \"#utility.yul\":9181:9195   */\n      add\n        /* \"#utility.yul\":9174:9224   */\n      mstore\n        /* \"#utility.yul\":9057:9231   */\n      pop\n      jump\t// out\n        /* \"#utility.yul\":9237:9603   */\n    tag_233:\n        /* \"#utility.yul\":9379:9382   */\n      0x00\n        /* \"#utility.yul\":9400:9467   */\n      tag_326\n        /* \"#utility.yul\":9464:9466   */\n      0x18\n        /* \"#utility.yul\":9459:9462   */\n      dup4\n        /* \"#utility.yul\":9400:9467   */\n      tag_204\n      jump\t// in\n    tag_326:\n        /* \"#utility.yul\":9393:9467   */\n      swap2\n      pop\n        /* \"#utility.yul\":9476:9569   */\n      tag_327\n        /* \"#utility.yul\":9565:9568   */\n      dup3\n        /* \"#utility.yul\":9476:9569   */\n      tag_232\n      jump\t// in\n    tag_327:\n        /* \"#utility.yul\":9594:9596   */\n      0x20\n        /* \"#utility.yul\":9589:9592   */\n      dup3\n        /* \"#utility.yul\":9585:9597   */\n      add\n        /* \"#utility.yul\":9578:9597   */\n      swap1\n      pop\n        /* \"#utility.yul\":9237:9603   */\n      swap2\n      swap1\n      pop\n      jump\t// out\n        /* \"#utility.yul\":9609:10028   */\n    tag_137:\n        /* \"#utility.yul\":9775:9779   */\n      0x00\n        /* \"#utility.yul\":9813:9815   */\n      0x20\n        /* \"#utility.yul\":9802:9811   */\n      dup3\n        /* \"#utility.yul\":9798:9816   */\n      add\n        /* \"#utility.yul\":9790:9816   */\n      swap1\n      pop\n        /* \"#utility.yul\":9862:9871   */\n      dup2\n        /* \"#utility.yul\":9856:9860   */\n      dup2\n        /* \"#utility.yul\":9852:9872   */\n      sub\n        /* \"#utility.yul\":9848:9849   */\n      0x00\n        /* \"#utility.yul\":9837:9846   */\n      dup4\n        /* \"#utility.yul\":9833:9850   */\n      add\n        /* \"#utility.yul\":9826:9873   */\n      mstore\n        /* \"#utility.yul\":9890:10021   */\n      tag_329\n        /* \"#utility.yul\":10016:10020   */\n      dup2\n        /* \"#utility.yul\":9890:10021   */\n      tag_233\n      jump\t// in\n    tag_329:\n        /* \"#utility.yul\":9882:10021   */\n      swap1\n      pop\n        /* \"#utility.yul\":9609:10028   */\n      swap2\n      swap1\n      pop\n      jump\t// out\n        /* \"#utility.yul\":10034:10205   */\n    tag_234:\n        /* \"#utility.yul\":10174:10197   */\n      0x4e6f206469737075746520746f207265736f6c76650000000000000000000000\n        /* \"#utility.yul\":10170:10171   */\n      0x00\n        /* \"#utility.yul\":10162:10168   */\n      dup3\n        /* \"#utility.yul\":10158:10172   */\n      add\n        /* \"#utility.yul\":10151:10198   */\n      mstore\n        /* \"#utility.yul\":10034:10205   */\n      pop\n      jump\t// out\n        /* \"#utility.yul\":10211:10577   */\n    tag_235:\n        /* \"#utility.yul\":10353:10356   */\n      0x00\n        /* \"#utility.yul\":10374:10441   */\n      tag_332\n        /* \"#utility.yul\":10438:10440   */\n      0x15\n        /* \"#utility.yul\":10433:10436   */\n      dup4\n        /* \"#utility.yul\":10374:10441   */\n      tag_204\n      jump\t// in\n    tag_332:\n        /* \"#utility.yul\":10367:10441   */\n      swap2\n      pop\n        /* \"#utility.yul\":10450:10543   */\n      tag_333\n        /* \"#utility.yul\":10539:10542   */\n      dup3\n        /* \"#utility.yul\":10450:10543   */\n      tag_234\n      jump\t// in\n    tag_333:\n        /* \"#utility.yul\":10568:10570   */\n      0x20\n        /* \"#utility.yul\":10563:10566   */\n      dup3\n        /* \"#utility.yul\":10559:10571   */\n      add\n        /* \"#utility.yul\":10552:10571   */\n      swap1\n      pop\n        /* \"#utility.yul\":10211:10577   */\n      swap2\n      swap1\n      pop\n      jump\t// out\n        /* \"#utility.yul\":10583:11002   */\n    tag_144:\n        /* \"#utility.yul\":10749:10753   */\n      0x00\n        /* \"#utility.yul\":10787:10789   */\n      0x20\n        /* \"#utility.yul\":10776:10785   */\n      dup3\n        /* \"#utility.yul\":10772:10790   */\n      add\n        /* \"#utility.yul\":10764:10790   */\n      swap1\n      pop\n        /* \"#utility.yul\":10836:10845   */\n      dup2\n        /* \"#utility.yul\":10830:10834   */\n      dup2\n        /* \"#utility.yul\":10826:10846   */\n      sub\n        /* \"#utility.yul\":10822:10823   */\n      0x00\n        /* \"#utility.yul\":10811:10820   */\n      dup4\n        /* \"#utility.yul\":10807:10824   */\n      add\n        /* \"#utility.yul\":10800:10847   */\n      mstore\n        /* \"#utility.yul\":10864:10995   */\n      tag_335\n        /* \"#utility.yul\":10990:10994   */\n      dup2\n        /* \"#utility.yul\":10864:10995   */\n      tag_235\n      jump\t// in\n    tag_335:\n        /* \"#utility.yul\":10856:10995   */\n      swap1\n      pop\n        /* \"#utility.yul\":10583:11002   */\n      swap2\n      swap1\n      pop\n      jump\t// out\n        /* \"#utility.yul\":11008:11340   */\n    tag_151:\n        /* \"#utility.yul\":11129:11133   */\n      0x00\n        /* \"#utility.yul\":11167:11169   */\n      0x40\n        /* \"#utility.yul\":11156:11165   */\n      dup3\n        /* \"#utility.yul\":11152:11170   */\n      add\n        /* \"#utility.yul\":11144:11170   */\n      swap1\n      pop\n        /* \"#utility.yul\":11180:11251   */\n      tag_337\n        /* \"#utility.yul\":11248:11249   */\n      0x00\n        /* \"#utility.yul\":11237:11246   */\n      dup4\n        /* \"#utility.yul\":11233:11250   */\n      add\n        /* \"#utility.yul\":11224:11230   */\n      dup6\n        /* \"#utility.yul\":11180:11251   */\n      tag_209\n      jump\t// in\n    tag_337:\n        /* \"#utility.yul\":11261:11333   */\n      tag_338\n        /* \"#utility.yul\":11329:11331   */\n      0x20\n        /* \"#utility.yul\":11318:11327   */\n      dup4\n        /* \"#utility.yul\":11314:11332   */\n      add\n        /* \"#utility.yul\":11305:11311   */\n      dup5\n        /* \"#utility.yul\":11261:11333   */\n      tag_211\n      jump\t// in\n    tag_338:\n        /* \"#utility.yul\":11008:11340   */\n      swap4\n      swap3\n      pop\n      pop\n      pop\n      jump\t// out\n        /* \"#utility.yul\":11346:11526   */\n    tag_236:\n        /* \"#utility.yul\":11394:11471   */\n      0x4e487b7100000000000000000000000000000000000000000000000000000000\n        /* \"#utility.yul\":11391:11392   */\n      0x00\n        /* \"#utility.yul\":11384:11472   */\n      mstore\n        /* \"#utility.yul\":11491:11495   */\n      0x11\n        /* \"#utility.yul\":11488:11489   */\n      0x04\n        /* \"#utility.yul\":11481:11496   */\n      mstore\n        /* \"#utility.yul\":11515:11519   */\n      0x24\n        /* \"#utility.yul\":11512:11513   */\n      0x00\n        /* \"#utility.yul\":11505:11520   */\n      revert\n        /* \"#utility.yul\":11532:11723   */\n    tag_163:\n        /* \"#utility.yul\":11572:11575   */\n      0x00\n        /* \"#utility.yul\":11591:11611   */\n      tag_341\n        /* \"#utility.yul\":11609:11610   */\n      dup3\n        /* \"#utility.yul\":11591:11611   */\n      tag_210\n      jump\t// in\n    tag_341:\n        /* \"#utility.yul\":11586:11611   */\n      swap2\n      pop\n        /* \"#utility.yul\":11625:11645   */\n      tag_342\n        /* \"#utility.yul\":11643:11644   */\n      dup4\n        /* \"#utility.yul\":11625:11645   */\n      tag_210\n      jump\t// in\n    tag_342:\n        /* \"#utility.yul\":11620:11645   */\n      swap3\n      pop\n        /* \"#utility.yul\":11668:11669   */\n      dup3\n        /* \"#utility.yul\":11665:11666   */\n      dup3\n        /* \"#utility.yul\":11661:11670   */\n      add\n        /* \"#utility.yul\":11654:11670   */\n      swap1\n      pop\n        /* \"#utility.yul\":11689:11692   */\n      dup1\n        /* \"#utility.yul\":11686:11687   */\n      dup3\n        /* \"#utility.yul\":11683:11693   */\n      gt\n        /* \"#utility.yul\":11680:11716   */\n      iszero\n      tag_343\n      jumpi\n        /* \"#utility.yul\":11696:11714   */\n      tag_344\n      tag_236\n      jump\t// in\n    tag_344:\n        /* \"#utility.yul\":11680:11716   */\n    tag_343:\n        /* \"#utility.yul\":11532:11723   */\n      swap3\n      swap2\n      pop\n      pop\n      jump\t// out\n        /* \"#utility.yul\":11729:11923   */\n    tag_167:\n        /* \"#utility.yul\":11769:11773   */\n      0x00\n        /* \"#utility.yul\":11789:11809   */\n      tag_346\n        /* \"#utility.yul\":11807:11808   */\n      dup3\n        /* \"#utility.yul\":11789:11809   */\n      tag_210\n      jump\t// in\n    tag_346:\n        /* \"#utility.yul\":11784:11809   */\n      swap2\n      pop\n        /* \"#utility.yul\":11823:11843   */\n      tag_347\n        /* \"#utility.yul\":11841:11842   */\n      dup4\n        /* \"#utility.yul\":11823:11843   */\n      tag_210\n      jump\t// in\n    tag_347:\n        /* \"#utility.yul\":11818:11843   */\n      swap3\n      pop\n        /* \"#utility.yul\":11867:11868   */\n      dup3\n        /* \"#utility.yul\":11864:11865   */\n      dup3\n        /* \"#utility.yul\":11860:11869   */\n      sub\n        /* \"#utility.yul\":11852:11869   */\n      swap1\n      pop\n        /* \"#utility.yul\":11891:11892   */\n      dup2\n        /* \"#utility.yul\":11885:11889   */\n      dup2\n        /* \"#utility.yul\":11882:11893   */\n      gt\n        /* \"#utility.yul\":11879:11916   */\n      iszero\n      tag_348\n      jumpi\n        /* \"#utility.yul\":11896:11914   */\n      tag_349\n      tag_236\n      jump\t// in\n    tag_349:\n        /* \"#utility.yul\":11879:11916   */\n    tag_348:\n        /* \"#utility.yul\":11729:11923   */\n      swap3\n      swap2\n      pop\n      pop\n      jump\t// out\n        /* \"#utility.yul\":11929:12101   */\n    tag_237:\n        /* \"#utility.yul\":12069:12093   */\n      0x4f6e6c792062757965722063616e206465706f73697400000000000000000000\n        /* \"#utility.yul\":12065:12066   */\n      0x00\n        /* \"#utility.yul\":12057:12063   */\n      dup3\n        /* \"#utility.yul\":12053:12067   */\n      add\n        /* \"#utility.yul\":12046:12094   */\n      mstore\n        /* \"#utility.yul\":11929:12101   */\n      pop\n      jump\t// out\n        /* \"#utility.yul\":12107:12473   */\n    tag_238:\n        /* \"#utility.yul\":12249:12252   */\n      0x00\n        /* \"#utility.yul\":12270:12337   */\n      tag_352\n        /* \"#utility.yul\":12334:12336   */\n      0x16\n        /* \"#utility.yul\":12329:12332   */\n      dup4\n        /* \"#utility.yul\":12270:12337   */\n      tag_204\n      jump\t// in\n    tag_352:\n        /* \"#utility.yul\":12263:12337   */\n      swap2\n      pop\n        /* \"#utility.yul\":12346:12439   */\n      tag_353\n        /* \"#utility.yul\":12435:12438   */\n      dup3\n        /* \"#utility.yul\":12346:12439   */\n      tag_237\n      jump\t// in\n    tag_353:\n        /* \"#utility.yul\":12464:12466   */\n      0x20\n        /* \"#utility.yul\":12459:12462   */\n      dup3\n        /* \"#utility.yul\":12455:12467   */\n      add\n        /* \"#utility.yul\":12448:12467   */\n      swap1\n      pop\n        /* \"#utility.yul\":12107:12473   */\n      swap2\n      swap1\n      pop\n      jump\t// out\n        /* \"#utility.yul\":12479:12898   */\n    tag_171:\n        /* \"#utility.yul\":12645:12649   */\n      0x00\n        /* \"#utility.yul\":12683:12685   */\n      0x20\n        /* \"#utility.yul\":12672:12681   */\n      dup3\n        /* \"#utility.yul\":12668:12686   */\n      add\n        /* \"#utility.yul\":12660:12686   */\n      swap1\n      pop\n        /* \"#utility.yul\":12732:12741   */\n      dup2\n        /* \"#utility.yul\":12726:12730   */\n      dup2\n        /* \"#utility.yul\":12722:12742   */\n      sub\n        /* \"#utility.yul\":12718:12719   */\n      0x00\n        /* \"#utility.yul\":12707:12716   */\n      dup4\n        /* \"#utility.yul\":12703:12720   */\n      add\n        /* \"#utility.yul\":12696:12743   */\n      mstore\n        /* \"#utility.yul\":12760:12891   */\n      tag_355\n        /* \"#utility.yul\":12886:12890   */\n      dup2\n        /* \"#utility.yul\":12760:12891   */\n      tag_238\n      jump\t// in\n    tag_355:\n        /* \"#utility.yul\":12752:12891   */\n      swap1\n      pop\n        /* \"#utility.yul\":12479:12898   */\n      swap2\n      swap1\n      pop\n      jump\t// out\n        /* \"#utility.yul\":12904:13066   */\n    tag_239:\n        /* \"#utility.yul\":13044:13058   */\n      0x416c726561647920706169640000000000000000000000000000000000000000\n        /* \"#utility.yul\":13040:13041   */\n      0x00\n        /* \"#utility.yul\":13032:13038   */\n      dup3\n        /* \"#utility.yul\":13028:13042   */\n      add\n        /* \"#utility.yul\":13021:13059   */\n      mstore\n        /* \"#utility.yul\":12904:13066   */\n      pop\n      jump\t// out\n        /* \"#utility.yul\":13072:13438   */\n    tag_240:\n        /* \"#utility.yul\":13214:13217   */\n      0x00\n        /* \"#utility.yul\":13235:13302   */\n      tag_358\n        /* \"#utility.yul\":13299:13301   */\n      0x0c\n        /* \"#utility.yul\":13294:13297   */\n      dup4\n        /* \"#utility.yul\":13235:13302   */\n      tag_204\n      jump\t// in\n    tag_358:\n        /* \"#utility.yul\":13228:13302   */\n      swap2\n      pop\n        /* \"#utility.yul\":13311:13404   */\n      tag_359\n        /* \"#utility.yul\":13400:13403   */\n      dup3\n        /* \"#utility.yul\":13311:13404   */\n      tag_239\n      jump\t// in\n    tag_359:\n        /* \"#utility.yul\":13429:13431   */\n      0x20\n        /* \"#utility.yul\":13424:13427   */\n      dup3\n        /* \"#utility.yul\":13420:13432   */\n      add\n        /* \"#utility.yul\":13413:13432   */\n      swap1\n      pop\n        /* \"#utility.yul\":13072:13438   */\n      swap2\n      swap1\n      pop\n      jump\t// out\n        /* \"#utility.yul\":13444:13863   */\n    tag_178:\n        /* \"#utility.yul\":13610:13614   */\n      0x00\n        /* \"#utility.yul\":13648:13650   */\n      0x20\n        /* \"#utility.yul\":13637:13646   */\n      dup3\n        /* \"#utility.yul\":13633:13651   */\n      add\n        /* \"#utility.yul\":13625:13651   */\n      swap1\n      pop\n        /* \"#utility.yul\":13697:13706   */\n      dup2\n        /* \"#utility.yul\":13691:13695   */\n      dup2\n        /* \"#utility.yul\":13687:13707   */\n      sub\n        /* \"#utility.yul\":13683:13684   */\n      0x00\n        /* \"#utility.yul\":13672:13681   */\n      dup4\n        /* \"#utility.yul\":13668:13685   */\n      add\n        /* \"#utility.yul\":13661:13708   */\n      mstore\n        /* \"#utility.yul\":13725:13856   */\n      tag_361\n        /* \"#utility.yul\":13851:13855   */\n      dup2\n        /* \"#utility.yul\":13725:13856   */\n      tag_240\n      jump\t// in\n    tag_361:\n        /* \"#utility.yul\":13717:13856   */\n      swap1\n      pop\n        /* \"#utility.yul\":13444:13863   */\n      swap2\n      swap1\n      pop\n      jump\t// out\n        /* \"#utility.yul\":13869:14051   */\n    tag_241:\n        /* \"#utility.yul\":14009:14043   */\n      0x416d6f756e74206d7573742062652067726561746572207468616e207a65726f\n        /* \"#utility.yul\":14005:14006   */\n      0x00\n        /* \"#utility.yul\":13997:14003   */\n      dup3\n        /* \"#utility.yul\":13993:14007   */\n      add\n        /* \"#utility.yul\":13986:14044   */\n      mstore\n        /* \"#utility.yul\":13869:14051   */\n      pop\n      jump\t// out\n        /* \"#utility.yul\":14057:14423   */\n    tag_242:\n        /* \"#utility.yul\":14199:14202   */\n      0x00\n        /* \"#utility.yul\":14220:14287   */\n      tag_364\n        /* \"#utility.yul\":14284:14286   */\n      0x20\n        /* \"#utility.yul\":14279:14282   */\n      dup4\n        /* \"#utility.yul\":14220:14287   */\n      tag_204\n      jump\t// in\n    tag_364:\n        /* \"#utility.yul\":14213:14287   */\n      swap2\n      pop\n        /* \"#utility.yul\":14296:14389   */\n      tag_365\n        /* \"#utility.yul\":14385:14388   */\n      dup3\n        /* \"#utility.yul\":14296:14389   */\n      tag_241\n      jump\t// in\n    tag_365:\n        /* \"#utility.yul\":14414:14416   */\n      0x20\n        /* \"#utility.yul\":14409:14412   */\n      dup3\n        /* \"#utility.yul\":14405:14417   */\n      add\n        /* \"#utility.yul\":14398:14417   */\n      swap1\n      pop\n        /* \"#utility.yul\":14057:14423   */\n      swap2\n      swap1\n      pop\n      jump\t// out\n        /* \"#utility.yul\":14429:14848   */\n    tag_181:\n        /* \"#utility.yul\":14595:14599   */\n      0x00\n        /* \"#utility.yul\":14633:14635   */\n      0x20\n        /* \"#utility.yul\":14622:14631   */\n      dup3\n        /* \"#utility.yul\":14618:14636   */\n      add\n        /* \"#utility.yul\":14610:14636   */\n      swap1\n      pop\n        /* \"#utility.yul\":14682:14691   */\n      dup2\n        /* \"#utility.yul\":14676:14680   */\n      dup2\n        /* \"#utility.yul\":14672:14692   */\n      sub\n        /* \"#utility.yul\":14668:14669   */\n      0x00\n        /* \"#utility.yul\":14657:14666   */\n      dup4\n        /* \"#utility.yul\":14653:14670   */\n      add\n        /* \"#utility.yul\":14646:14693   */\n      mstore\n        /* \"#utility.yul\":14710:14841   */\n      tag_367\n        /* \"#utility.yul\":14836:14840   */\n      dup2\n        /* \"#utility.yul\":14710:14841   */\n      tag_242\n      jump\t// in\n    tag_367:\n        /* \"#utility.yul\":14702:14841   */\n      swap1\n      pop\n        /* \"#utility.yul\":14429:14848   */\n      swap2\n      swap1\n      pop\n      jump\t// out\n        /* \"#utility.yul\":14854:15084   */\n    tag_243:\n        /* \"#utility.yul\":14994:15028   */\n      0x4f6e6c792062757965722063616e20747269676765722074696d656f75742063\n        /* \"#utility.yul\":14990:14991   */\n      0x00\n        /* \"#utility.yul\":14982:14988   */\n      dup3\n        /* \"#utility.yul\":14978:14992   */\n      add\n        /* \"#utility.yul\":14971:15029   */\n      mstore\n        /* \"#utility.yul\":15063:15076   */\n      0x616e63656c6c6174696f6e000000000000000000000000000000000000000000\n        /* \"#utility.yul\":15058:15060   */\n      0x20\n        /* \"#utility.yul\":15050:15056   */\n      dup3\n        /* \"#utility.yul\":15046:15061   */\n      add\n        /* \"#utility.yul\":15039:15077   */\n      mstore\n        /* \"#utility.yul\":14854:15084   */\n      pop\n      jump\t// out\n        /* \"#utility.yul\":15090:15456   */\n    tag_244:\n        /* \"#utility.yul\":15232:15235   */\n      0x00\n        /* \"#utility.yul\":15253:15320   */\n      tag_370\n        /* \"#utility.yul\":15317:15319   */\n      0x2b\n        /* \"#utility.yul\":15312:15315   */\n      dup4\n        /* \"#utility.yul\":15253:15320   */\n      tag_204\n      jump\t// in\n    tag_370:\n        /* \"#utility.yul\":15246:15320   */\n      swap2\n      pop\n        /* \"#utility.yul\":15329:15422   */\n      tag_371\n        /* \"#utility.yul\":15418:15421   */\n      dup3\n        /* \"#utility.yul\":15329:15422   */\n      tag_243\n      jump\t// in\n    tag_371:\n        /* \"#utility.yul\":15447:15449   */\n      0x40\n        /* \"#utility.yul\":15442:15445   */\n      dup3\n        /* \"#utility.yul\":15438:15450   */\n      add\n        /* \"#utility.yul\":15431:15450   */\n      swap1\n      pop\n        /* \"#utility.yul\":15090:15456   */\n      swap2\n      swap1\n      pop\n      jump\t// out\n        /* \"#utility.yul\":15462:15881   */\n    tag_188:\n        /* \"#utility.yul\":15628:15632   */\n      0x00\n        /* \"#utility.yul\":15666:15668   */\n      0x20\n        /* \"#utility.yul\":15655:15664   */\n      dup3\n        /* \"#utility.yul\":15651:15669   */\n      add\n        /* \"#utility.yul\":15643:15669   */\n      swap1\n      pop\n        /* \"#utility.yul\":15715:15724   */\n      dup2\n        /* \"#utility.yul\":15709:15713   */\n      dup2\n        /* \"#utility.yul\":15705:15725   */\n      sub\n        /* \"#utility.yul\":15701:15702   */\n      0x00\n        /* \"#utility.yul\":15690:15699   */\n      dup4\n        /* \"#utility.yul\":15686:15703   */\n      add\n        /* \"#utility.yul\":15679:15726   */\n      mstore\n        /* \"#utility.yul\":15743:15874   */\n      tag_373\n        /* \"#utility.yul\":15869:15873   */\n      dup2\n        /* \"#utility.yul\":15743:15874   */\n      tag_244\n      jump\t// in\n    tag_373:\n        /* \"#utility.yul\":15735:15874   */\n      swap1\n      pop\n        /* \"#utility.yul\":15462:15881   */\n      swap2\n      swap1\n      pop\n      jump\t// out\n        /* \"#utility.yul\":15887:16067   */\n    tag_245:\n        /* \"#utility.yul\":16027:16059   */\n      0x43616e6e6f742063616e63656c20696e2063757272656e742073746174650000\n        /* \"#utility.yul\":16023:16024   */\n      0x00\n        /* \"#utility.yul\":16015:16021   */\n      dup3\n        /* \"#utility.yul\":16011:16025   */\n      add\n        /* \"#utility.yul\":16004:16060   */\n      mstore\n        /* \"#utility.yul\":15887:16067   */\n      pop\n      jump\t// out\n        /* \"#utility.yul\":16073:16439   */\n    tag_246:\n        /* \"#utility.yul\":16215:16218   */\n      0x00\n        /* \"#utility.yul\":16236:16303   */\n      tag_376\n        /* \"#utility.yul\":16300:16302   */\n      0x1e\n        /* \"#utility.yul\":16295:16298   */\n      dup4\n        /* \"#utility.yul\":16236:16303   */\n      tag_204\n      jump\t// in\n    tag_376:\n        /* \"#utility.yul\":16229:16303   */\n      swap2\n      pop\n        /* \"#utility.yul\":16312:16405   */\n      tag_377\n        /* \"#utility.yul\":16401:16404   */\n      dup3\n        /* \"#utility.yul\":16312:16405   */\n      tag_245\n      jump\t// in\n    tag_377:\n        /* \"#utility.yul\":16430:16432   */\n      0x20\n        /* \"#utility.yul\":16425:16428   */\n      dup3\n        /* \"#utility.yul\":16421:16433   */\n      add\n        /* \"#utility.yul\":16414:16433   */\n      swap1\n      pop\n        /* \"#utility.yul\":16073:16439   */\n      swap2\n      swap1\n      pop\n      jump\t// out\n        /* \"#utility.yul\":16445:16864   */\n    tag_195:\n        /* \"#utility.yul\":16611:16615   */\n      0x00\n        /* \"#utility.yul\":16649:16651   */\n      0x20\n        /* \"#utility.yul\":16638:16647   */\n      dup3\n        /* \"#utility.yul\":16634:16652   */\n      add\n        /* \"#utility.yul\":16626:16652   */\n      swap1\n      pop\n        /* \"#utility.yul\":16698:16707   */\n      dup2\n        /* \"#utility.yul\":16692:16696   */\n      dup2\n        /* \"#utility.yul\":16688:16708   */\n      sub\n        /* \"#utility.yul\":16684:16685   */\n      0x00\n        /* \"#utility.yul\":16673:16682   */\n      dup4\n        /* \"#utility.yul\":16669:16686   */\n      add\n        /* \"#utility.yul\":16662:16709   */\n      mstore\n        /* \"#utility.yul\":16726:16857   */\n      tag_379\n        /* \"#utility.yul\":16852:16856   */\n      dup2\n        /* \"#utility.yul\":16726:16857   */\n      tag_246\n      jump\t// in\n    tag_379:\n        /* \"#utility.yul\":16718:16857   */\n      swap1\n      pop\n        /* \"#utility.yul\":16445:16864   */\n      swap2\n      swap1\n      pop\n      jump\t// out\n        /* \"#utility.yul\":16870:17039   */\n    tag_247:\n        /* \"#utility.yul\":17010:17031   */\n      0x54696d656f7574206e6f74207265616368656400000000000000000000000000\n        /* \"#utility.yul\":17006:17007   */\n      0x00\n        /* \"#utility.yul\":16998:17004   */\n      dup3\n        /* \"#utility.yul\":16994:17008   */\n      add\n        /* \"#utility.yul\":16987:17032   */\n      mstore\n        /* \"#utility.yul\":16870:17039   */\n      pop\n      jump\t// out\n        /* \"#utility.yul\":17045:17411   */\n    tag_248:\n        /* \"#utility.yul\":17187:17190   */\n      0x00\n        /* \"#utility.yul\":17208:17275   */\n      tag_382\n        /* \"#utility.yul\":17272:17274   */\n      0x13\n        /* \"#utility.yul\":17267:17270   */\n      dup4\n        /* \"#utility.yul\":17208:17275   */\n      tag_204\n      jump\t// in\n    tag_382:\n        /* \"#utility.yul\":17201:17275   */\n      swap2\n      pop\n        /* \"#utility.yul\":17284:17377   */\n      tag_383\n        /* \"#utility.yul\":17373:17376   */\n      dup3\n        /* \"#utility.yul\":17284:17377   */\n      tag_247\n      jump\t// in\n    tag_383:\n        /* \"#utility.yul\":17402:17404   */\n      0x20\n        /* \"#utility.yul\":17397:17400   */\n      dup3\n        /* \"#utility.yul\":17393:17405   */\n      add\n        /* \"#utility.yul\":17386:17405   */\n      swap1\n      pop\n        /* \"#utility.yul\":17045:17411   */\n      swap2\n      swap1\n      pop\n      jump\t// out\n        /* \"#utility.yul\":17417:17836   */\n    tag_199:\n        /* \"#utility.yul\":17583:17587   */\n      0x00\n        /* \"#utility.yul\":17621:17623   */\n      0x20\n        /* \"#utility.yul\":17610:17619   */\n      dup3\n        /* \"#utility.yul\":17606:17624   */\n      add\n        /* \"#utility.yul\":17598:17624   */\n      swap1\n      pop\n        /* \"#utility.yul\":17670:17679   */\n      dup2\n        /* \"#utility.yul\":17664:17668   */\n      dup2\n        /* \"#utility.yul\":17660:17680   */\n      sub\n        /* \"#utility.yul\":17656:17657   */\n      0x00\n        /* \"#utility.yul\":17645:17654   */\n      dup4\n        /* \"#utility.yul\":17641:17658   */\n      add\n        /* \"#utility.yul\":17634:17681   */\n      mstore\n        /* \"#utility.yul\":17698:17829   */\n      tag_385\n        /* \"#utility.yul\":17824:17828   */\n      dup2\n        /* \"#utility.yul\":17698:17829   */\n      tag_248\n      jump\t// in\n    tag_385:\n        /* \"#utility.yul\":17690:17829   */\n      swap1\n      pop\n        /* \"#utility.yul\":17417:17836   */\n      swap2\n      swap1\n      pop\n      jump\t// out\n\n    auxdata: 0xa2646970667358221220f7bf0d5e3d6d253b5b67f74a1ceb07217bc8885d7b14531cfccc548004dd9d4564736f6c634300081e0033\n}\n",
				"bytecode": {
					"linkReferences": {},
					"object": "60e060405234801561000f575f5ffd5b50604051611e7d380380611e7d833981810160405281019061003191906101d8565b5f8111610073576040517f08c379a000000000000000000000000000000000000000000000000000000000815260040161006a906102a8565b60405180910390fd5b3373ffffffffffffffffffffffffffffffffffffffff1660808173ffffffffffffffffffffffffffffffffffffffff16815250508273ffffffffffffffffffffffffffffffffffffffff1660a08173ffffffffffffffffffffffffffffffffffffffff16815250508173ffffffffffffffffffffffffffffffffffffffff1660c08173ffffffffffffffffffffffffffffffffffffffff16815250505f60015f6101000a81548160ff02191690836004811115610133576101326102c6565b5b0217905550806003819055505050506102f3565b5f5ffd5b5f73ffffffffffffffffffffffffffffffffffffffff82169050919050565b5f6101748261014b565b9050919050565b6101848161016a565b811461018e575f5ffd5b50565b5f8151905061019f8161017b565b92915050565b5f819050919050565b6101b7816101a5565b81146101c1575f5ffd5b50565b5f815190506101d2816101ae565b92915050565b5f5f5f606084860312156101ef576101ee610147565b5b5f6101fc86828701610191565b935050602061020d86828701610191565b925050604061021e868287016101c4565b9150509250925092565b5f82825260208201905092915050565b7f44656c69766572792074696d656f7574206d75737420626520677265617465725f8201527f207468616e207a65726f00000000000000000000000000000000000000000000602082015250565b5f610292602a83610228565b915061029d82610238565b604082019050919050565b5f6020820190508181035f8301526102bf81610286565b9050919050565b7f4e487b71000000000000000000000000000000000000000000000000000000005f52602160045260245ffd5b60805160a05160c051611ac66103b75f395f81816109f801528181610b9001528181610c8b015261125501525f818161030001528181610379015281816106f90152818161075e0152818161086101528181610b2b0152610be801525f818161032401528181610521015281816105cc015281816107950152818161080c015281816109d401528181610c2601528181610ce301528181610db901528181610f3301528181610faa015281816111290152818161118d01526111f00152611ac65ff3fe6080604052600436106100e0575f3560e01c8063aa8c217c1161007e578063d0e30db011610058578063d0e30db01461028a578063dc9c503514610294578063f3e435ab146102be578063fe25e00a146102d457610120565b8063aa8c217c1461020c578063c19d93fb14610236578063c7e284b81461026057610120565b80635e8a626e116100ba5780635e8a626e1461017a5780636daa2d44146101a45780637150d8ae146101ba57806389e1e82a146101e457610120565b806308551a53146101245780632264d6391461014e5780635e10177b1461016457610120565b36610120576040517f08c379a0000000000000000000000000000000000000000000000000000000008152600401610117906112d1565b60405180910390fd5b5f5ffd5b34801561012f575f5ffd5b506101386102fe565b604051610145919061132e565b60405180910390f35b348015610159575f5ffd5b50610162610322565b005b34801561016f575f5ffd5b506101786105ca565b005b348015610185575f5ffd5b5061018e610804565b60405161019b919061135f565b60405180910390f35b3480156101af575f5ffd5b506101b861080a565b005b3480156101c5575f5ffd5b506101ce6109d2565b6040516101db919061132e565b60405180910390f35b3480156101ef575f5ffd5b5061020a600480360381019061020591906113b1565b6109f6565b005b348015610217575f5ffd5b50610220610d1e565b60405161022d919061135f565b60405180910390f35b348015610241575f5ffd5b5061024a610d23565b604051610257919061144f565b60405180910390f35b34801561026b575f5ffd5b50610274610d35565b604051610281919061135f565b60405180910390f35b610292610db7565b005b34801561029f575f5ffd5b506102a8610fa2565b6040516102b5919061135f565b60405180910390f35b3480156102c9575f5ffd5b506102d2610fa8565b005b3480156102df575f5ffd5b506102e8611253565b6040516102f5919061132e565b60405180910390f35b7f000000000000000000000000000000000000000000000000000000000000000081565b7f000000000000000000000000000000000000000000000000000000000000000073ffffffffffffffffffffffffffffffffffffffff163373ffffffffffffffffffffffffffffffffffffffff1614806103c757507f000000000000000000000000000000000000000000000000000000000000000073ffffffffffffffffffffffffffffffffffffffff163373ffffffffffffffffffffffffffffffffffffffff16145b610406576040517f08c379a00000000000000000000000000000000000000000000000000000000081526004016103fd906114b2565b60405180910390fd5b6001600481111561041a576104196113dc565b5b60015f9054906101000a900460ff16600481111561043b5761043a6113dc565b5b148061047857505f6004811115610455576104546113dc565b5b60015f9054906101000a900460ff166004811115610476576104756113dc565b5b145b6104b7576040517f08c379a00000000000000000000000000000000000000000000000000000000081526004016104ae9061151a565b60405180910390fd5b5f60015f9054906101000a900460ff169050600460015f6101000a81548160ff021916908360048111156104ee576104ed6113dc565b5b021790555060016004811115610507576105066113dc565b5b81600481111561051a576105196113dc565b5b03610584577f000000000000000000000000000000000000000000000000000000000000000073ffffffffffffffffffffffffffffffffffffffff166108fc4790811502906040515f60405180830381858888f19350505050158015610582573d5f5f3e3d5ffd5b505b3373ffffffffffffffffffffffffffffffffffffffff167fac2a38716bf0fa9fa1a52e859663398120e11fa721ea31fe0682199b9fd367e760405160405180910390a250565b7f000000000000000000000000000000000000000000000000000000000000000073ffffffffffffffffffffffffffffffffffffffff163373ffffffffffffffffffffffffffffffffffffffff1614610658576040517f08c379a000000000000000000000000000000000000000000000000000000000815260040161064f90611582565b60405180910390fd5b6001600481111561066c5761066b6113dc565b5b60015f9054906101000a900460ff16600481111561068d5761068c6113dc565b5b146106cd576040517f08c379a00000000000000000000000000000000000000000000000000000000081526004016106c4906115ea565b60405180910390fd5b600260015f6101000a81548160ff021916908360048111156106f2576106f16113dc565b5b02179055507f000000000000000000000000000000000000000000000000000000000000000073ffffffffffffffffffffffffffffffffffffffff166108fc5f5490811502906040515f60405180830381858888f1935050505015801561075b573d5f5f3e3d5ffd5b507f000000000000000000000000000000000000000000000000000000000000000073ffffffffffffffffffffffffffffffffffffffff167f000000000000000000000000000000000000000000000000000000000000000073ffffffffffffffffffffffffffffffffffffffff167fdf462b659b1ef8bf3bb666339203dff5a51e2430e9caaf35984dcb2a92c77d665f546040516107fa919061135f565b60405180910390a3565b60025481565b7f000000000000000000000000000000000000000000000000000000000000000073ffffffffffffffffffffffffffffffffffffffff163373ffffffffffffffffffffffffffffffffffffffff1614806108af57507f000000000000000000000000000000000000000000000000000000000000000073ffffffffffffffffffffffffffffffffffffffff163373ffffffffffffffffffffffffffffffffffffffff16145b6108ee576040517f08c379a00000000000000000000000000000000000000000000000000000000081526004016108e5906114b2565b60405180910390fd5b60016004811115610902576109016113dc565b5b60015f9054906101000a900460ff166004811115610923576109226113dc565b5b14610963576040517f08c379a000000000000000000000000000000000000000000000000000000000815260040161095a90611652565b60405180910390fd5b600360015f6101000a81548160ff02191690836004811115610988576109876113dc565b5b02179055503373ffffffffffffffffffffffffffffffffffffffff167f0b3cd97b16a08a5c77357c276d248827ad32dfd56060f7c55d6255537ba3d96260405160405180910390a2565b7f000000000000000000000000000000000000000000000000000000000000000081565b7f000000000000000000000000000000000000000000000000000000000000000073ffffffffffffffffffffffffffffffffffffffff163373ffffffffffffffffffffffffffffffffffffffff1614610a84576040517f08c379a0000000000000000000000000000000000000000000000000000000008152600401610a7b906116ba565b60405180910390fd5b60036004811115610a9857610a976113dc565b5b60015f9054906101000a900460ff166004811115610ab957610ab86113dc565b5b14610af9576040517f08c379a0000000000000000000000000000000000000000000000000000000008152600401610af090611722565b60405180910390fd5b600260015f6101000a81548160ff02191690836004811115610b1e57610b1d6113dc565b5b02179055508015610c24577f000000000000000000000000000000000000000000000000000000000000000073ffffffffffffffffffffffffffffffffffffffff166108fc5f5490811502906040515f60405180830381858888f19350505050158015610b8d573d5f5f3e3d5ffd5b507f000000000000000000000000000000000000000000000000000000000000000073ffffffffffffffffffffffffffffffffffffffff167fc98fd1f80a8937b1fdeb951d0b63bf7c924a1872543ae2499295625b18abe70e7f00000000000000000000000000000000000000000000000000000000000000005f54604051610c17929190611740565b60405180910390a2610d1b565b7f000000000000000000000000000000000000000000000000000000000000000073ffffffffffffffffffffffffffffffffffffffff166108fc5f5490811502906040515f60405180830381858888f19350505050158015610c88573d5f5f3e3d5ffd5b507f000000000000000000000000000000000000000000000000000000000000000073ffffffffffffffffffffffffffffffffffffffff167fc98fd1f80a8937b1fdeb951d0b63bf7c924a1872543ae2499295625b18abe70e7f00000000000000000000000000000000000000000000000000000000000000005f54604051610d12929190611740565b60405180910390a25b50565b5f5481565b60015f9054906101000a900460ff1681565b5f60016004811115610d4a57610d496113dc565b5b60015f9054906101000a900460ff166004811115610d6b57610d6a6113dc565b5b14610d78575f9050610db4565b600354600254610d889190611794565b4210610d96575f9050610db4565b42600354600254610da79190611794565b610db191906117c7565b90505b90565b7f000000000000000000000000000000000000000000000000000000000000000073ffffffffffffffffffffffffffffffffffffffff163373ffffffffffffffffffffffffffffffffffffffff1614610e45576040517f08c379a0000000000000000000000000000000000000000000000000000000008152600401610e3c90611844565b60405180910390fd5b5f6004811115610e5857610e576113dc565b5b60015f9054906101000a900460ff166004811115610e7957610e786113dc565b5b14610eb9576040517f08c379a0000000000000000000000000000000000000000000000000000000008152600401610eb0906118ac565b60405180910390fd5b5f3411610efb576040517f08c379a0000000000000000000000000000000000000000000000000000000008152600401610ef290611914565b60405180910390fd5b345f819055506001805f6101000a81548160ff02191690836004811115610f2557610f246113dc565b5b0217905550426002819055507f000000000000000000000000000000000000000000000000000000000000000073ffffffffffffffffffffffffffffffffffffffff167fd348a8f42fae8db1d0030271b37ed6d94a5e292ff36db57b244ffe13f494dd455f54604051610f98919061135f565b60405180910390a2565b60035481565b7f000000000000000000000000000000000000000000000000000000000000000073ffffffffffffffffffffffffffffffffffffffff163373ffffffffffffffffffffffffffffffffffffffff1614611036576040517f08c379a000000000000000000000000000000000000000000000000000000000815260040161102d906119a2565b60405180910390fd5b6001600481111561104a576110496113dc565b5b60015f9054906101000a900460ff16600481111561106b5761106a6113dc565b5b146110ab576040517f08c379a00000000000000000000000000000000000000000000000000000000081526004016110a290611a0a565b60405180910390fd5b6003546002546110bb9190611794565b4210156110fd576040517f08c379a00000000000000000000000000000000000000000000000000000000081526004016110f490611a72565b60405180910390fd5b600460015f6101000a81548160ff02191690836004811115611122576111216113dc565b5b02179055507f000000000000000000000000000000000000000000000000000000000000000073ffffffffffffffffffffffffffffffffffffffff166108fc4790811502906040515f60405180830381858888f1935050505015801561118a573d5f5f3e3d5ffd5b507f000000000000000000000000000000000000000000000000000000000000000073ffffffffffffffffffffffffffffffffffffffff167fac2a38716bf0fa9fa1a52e859663398120e11fa721ea31fe0682199b9fd367e760405160405180910390a27f000000000000000000000000000000000000000000000000000000000000000073ffffffffffffffffffffffffffffffffffffffff167f2bf2011b75b523a6a342b7f6d3fd3a1faf2086f70351c66f9a893a33e5260fe460405160405180910390a2565b7f000000000000000000000000000000000000000000000000000000000000000081565b5f82825260208201905092915050565b7f446972656374207061796d656e7473206e6f7420616c6c6f77656400000000005f82015250565b5f6112bb601b83611277565b91506112c682611287565b602082019050919050565b5f6020820190508181035f8301526112e8816112af565b9050919050565b5f73ffffffffffffffffffffffffffffffffffffffff82169050919050565b5f611318826112ef565b9050919050565b6113288161130e565b82525050565b5f6020820190506113415f83018461131f565b92915050565b5f819050919050565b61135981611347565b82525050565b5f6020820190506113725f830184611350565b92915050565b5f5ffd5b5f8115159050919050565b6113908161137c565b811461139a575f5ffd5b50565b5f813590506113ab81611387565b92915050565b5f602082840312156113c6576113c5611378565b5b5f6113d38482850161139d565b91505092915050565b7f4e487b71000000000000000000000000000000000000000000000000000000005f52602160045260245ffd5b6005811061141a576114196113dc565b5b50565b5f81905061142a82611409565b919050565b5f6114398261141d565b9050919050565b6114498161142f565b82525050565b5f6020820190506114625f830184611440565b92915050565b7f4e6f7420617574686f72697a65640000000000000000000000000000000000005f82015250565b5f61149c600e83611277565b91506114a782611468565b602082019050919050565b5f6020820190508181035f8301526114c981611490565b9050919050565b7f43616e6e6f742063616e63656c206e6f770000000000000000000000000000005f82015250565b5f611504601183611277565b915061150f826114d0565b602082019050919050565b5f6020820190508181035f830152611531816114f8565b9050919050565b7f4f6e6c792062757965722063616e20636f6e6669726d000000000000000000005f82015250565b5f61156c601683611277565b915061157782611538565b602082019050919050565b5f6020820190508181035f83015261159981611560565b9050919050565b7f4e6f7420696e2064656c697665727920737461746500000000000000000000005f82015250565b5f6115d4601583611277565b91506115df826115a0565b602082019050919050565b5f6020820190508181035f830152611601816115c8565b9050919050565b7f43616e27742064697370757465206e6f770000000000000000000000000000005f82015250565b5f61163c601183611277565b915061164782611608565b602082019050919050565b5f6020820190508181035f83015261166981611630565b9050919050565b7f4f6e6c7920617262697465722063616e207265736f6c766500000000000000005f82015250565b5f6116a4601883611277565b91506116af82611670565b602082019050919050565b5f6020820190508181035f8301526116d181611698565b9050919050565b7f4e6f206469737075746520746f207265736f6c766500000000000000000000005f82015250565b5f61170c601583611277565b9150611717826116d8565b602082019050919050565b5f6020820190508181035f83015261173981611700565b9050919050565b5f6040820190506117535f83018561131f565b6117606020830184611350565b9392505050565b7f4e487b71000000000000000000000000000000000000000000000000000000005f52601160045260245ffd5b5f61179e82611347565b91506117a983611347565b92508282019050808211156117c1576117c0611767565b5b92915050565b5f6117d182611347565b91506117dc83611347565b92508282039050818111156117f4576117f3611767565b5b92915050565b7f4f6e6c792062757965722063616e206465706f736974000000000000000000005f82015250565b5f61182e601683611277565b9150611839826117fa565b602082019050919050565b5f6020820190508181035f83015261185b81611822565b9050919050565b7f416c7265616479207061696400000000000000000000000000000000000000005f82015250565b5f611896600c83611277565b91506118a182611862565b602082019050919050565b5f6020820190508181035f8301526118c38161188a565b9050919050565b7f416d6f756e74206d7573742062652067726561746572207468616e207a65726f5f82015250565b5f6118fe602083611277565b9150611909826118ca565b602082019050919050565b5f6020820190508181035f83015261192b816118f2565b9050919050565b7f4f6e6c792062757965722063616e20747269676765722074696d656f757420635f8201527f616e63656c6c6174696f6e000000000000000000000000000000000000000000602082015250565b5f61198c602b83611277565b915061199782611932565b604082019050919050565b5f6020820190508181035f8301526119b981611980565b9050919050565b7f43616e6e6f742063616e63656c20696e2063757272656e7420737461746500005f82015250565b5f6119f4601e83611277565b91506119ff826119c0565b602082019050919050565b5f6020820190508181035f830152611a21816119e8565b9050919050565b7f54696d656f7574206e6f742072656163686564000000000000000000000000005f82015250565b5f611a5c601383611277565b9150611a6782611a28565b602082019050919050565b5f6020820190508181035f830152611a8981611a50565b905091905056fea2646970667358221220f7bf0d5e3d6d253b5b67f74a1ceb07217bc8885d7b14531cfccc548004dd9d4564736f6c634300081e0033",
					"opcodes": "PUSH1 0xE0 PUSH1 0x40 MSTORE CALLVALUE DUP1 ISZERO PUSH2 0xF JUMPI PUSH0 PUSH0 REVERT JUMPDEST POP PUSH1 0x40 MLOAD PUSH2 0x1E7D CODESIZE SUB DUP1 PUSH2 0x1E7D DUP4 CODECOPY DUP2 DUP2 ADD PUSH1 0x40 MSTORE DUP2 ADD SWAP1 PUSH2 0x31 SWAP2 SWAP1 PUSH2 0x1D8 JUMP JUMPDEST PUSH0 DUP2 GT PUSH2 0x73 JUMPI PUSH1 0x40 MLOAD PUSH32 0x8C379A000000000000000000000000000000000000000000000000000000000 DUP2 MSTORE PUSH1 0x4 ADD PUSH2 0x6A SWAP1 PUSH2 0x2A8 JUMP JUMPDEST PUSH1 0x40 MLOAD DUP1 SWAP2 SUB SWAP1 REVERT JUMPDEST CALLER PUSH20 0xFFFFFFFFFFFFFFFFFFFFFFFFFFFFFFFFFFFFFFFF AND PUSH1 0x80 DUP2 PUSH20 0xFFFFFFFFFFFFFFFFFFFFFFFFFFFFFFFFFFFFFFFF AND DUP2 MSTORE POP POP DUP3 PUSH20 0xFFFFFFFFFFFFFFFFFFFFFFFFFFFFFFFFFFFFFFFF AND PUSH1 0xA0 DUP2 PUSH20 0xFFFFFFFFFFFFFFFFFFFFFFFFFFFFFFFFFFFFFFFF AND DUP2 MSTORE POP POP DUP2 PUSH20 0xFFFFFFFFFFFFFFFFFFFFFFFFFFFFFFFFFFFFFFFF AND PUSH1 0xC0 DUP2 PUSH20 0xFFFFFFFFFFFFFFFFFFFFFFFFFFFFFFFFFFFFFFFF AND DUP2 MSTORE POP POP PUSH0 PUSH1 0x1 PUSH0 PUSH2 0x100 EXP DUP2 SLOAD DUP2 PUSH1 0xFF MUL NOT AND SWAP1 DUP4 PUSH1 0x4 DUP2 GT ISZERO PUSH2 0x133 JUMPI PUSH2 0x132 PUSH2 0x2C6 JUMP JUMPDEST JUMPDEST MUL OR SWAP1 SSTORE POP DUP1 PUSH1 0x3 DUP2 SWAP1 SSTORE POP POP POP POP PUSH2 0x2F3 JUMP JUMPDEST PUSH0 PUSH0 REVERT JUMPDEST PUSH0 PUSH20 0xFFFFFFFFFFFFFFFFFFFFFFFFFFFFFFFFFFFFFFFF DUP3 AND SWAP1 POP SWAP2 SWAP1 POP JUMP JUMPDEST PUSH0 PUSH2 0x174 DUP3 PUSH2 0x14B JUMP JUMPDEST SWAP1 POP SWAP2 SWAP1 POP JUMP JUMPDEST PUSH2 0x184 DUP2 PUSH2 0x16A JUMP JUMPDEST DUP2 EQ PUSH2 0x18E JUMPI PUSH0 PUSH0 REVERT JUMPDEST POP JUMP JUMPDEST PUSH0 DUP2 MLOAD SWAP1 POP PUSH2 0x19F DUP2 PUSH2 0x17B JUMP JUMPDEST SWAP3 SWAP2 POP POP JUMP JUMPDEST PUSH0 DUP2 SWAP1 POP SWAP2 SWAP1 POP JUMP JUMPDEST PUSH2 0x1B7 DUP2 PUSH2 0x1A5 JUMP JUMPDEST DUP2 EQ PUSH2 0x1C1 JUMPI PUSH0 PUSH0 REVERT JUMPDEST POP JUMP JUMPDEST PUSH0 DUP2 MLOAD SWAP1 POP PUSH2 0x1D2 DUP2 PUSH2 0x1AE JUMP JUMPDEST SWAP3 SWAP2 POP POP JUMP JUMPDEST PUSH0 PUSH0 PUSH0 PUSH1 0x60 DUP5 DUP7 SUB SLT ISZERO PUSH2 0x1EF JUMPI PUSH2 0x1EE PUSH2 0x147 JUMP JUMPDEST JUMPDEST PUSH0 PUSH2 0x1FC DUP7 DUP3 DUP8 ADD PUSH2 0x191 JUMP JUMPDEST SWAP4 POP POP PUSH1 0x20 PUSH2 0x20D DUP7 DUP3 DUP8 ADD PUSH2 0x191 JUMP JUMPDEST SWAP3 POP POP PUSH1 0x40 PUSH2 0x21E DUP7 DUP3 DUP8 ADD PUSH2 0x1C4 JUMP JUMPDEST SWAP2 POP POP SWAP3 POP SWAP3 POP SWAP3 JUMP JUMPDEST PUSH0 DUP3 DUP3 MSTORE PUSH1 0x20 DUP3 ADD SWAP1 POP SWAP3 SWAP2 POP POP JUMP JUMPDEST PUSH32 0x44656C69766572792074696D656F7574206D7573742062652067726561746572 PUSH0 DUP3 ADD MSTORE PUSH32 0x207468616E207A65726F00000000000000000000000000000000000000000000 PUSH1 0x20 DUP3 ADD MSTORE POP JUMP JUMPDEST PUSH0 PUSH2 0x292 PUSH1 0x2A DUP4 PUSH2 0x228 JUMP JUMPDEST SWAP2 POP PUSH2 0x29D DUP3 PUSH2 0x238 JUMP JUMPDEST PUSH1 0x40 DUP3 ADD SWAP1 POP SWAP2 SWAP1 POP JUMP JUMPDEST PUSH0 PUSH1 0x20 DUP3 ADD SWAP1 POP DUP2 DUP2 SUB PUSH0 DUP4 ADD MSTORE PUSH2 0x2BF DUP2 PUSH2 0x286 JUMP JUMPDEST SWAP1 POP SWAP2 SWAP1 POP JUMP JUMPDEST PUSH32 0x4E487B7100000000000000000000000000000000000000000000000000000000 PUSH0 MSTORE PUSH1 0x21 PUSH1 0x4 MSTORE PUSH1 0x24 PUSH0 REVERT JUMPDEST PUSH1 0x80 MLOAD PUSH1 0xA0 MLOAD PUSH1 0xC0 MLOAD PUSH2 0x1AC6 PUSH2 0x3B7 PUSH0 CODECOPY PUSH0 DUP2 DUP2 PUSH2 0x9F8 ADD MSTORE DUP2 DUP2 PUSH2 0xB90 ADD MSTORE DUP2 DUP2 PUSH2 0xC8B ADD MSTORE PUSH2 0x1255 ADD MSTORE PUSH0 DUP2 DUP2 PUSH2 0x300 ADD MSTORE DUP2 DUP2 PUSH2 0x379 ADD MSTORE DUP2 DUP2 PUSH2 0x6F9 ADD MSTORE DUP2 DUP2 PUSH2 0x75E ADD MSTORE DUP2 DUP2 PUSH2 0x861 ADD MSTORE DUP2 DUP2 PUSH2 0xB2B ADD MSTORE PUSH2 0xBE8 ADD MSTORE PUSH0 DUP2 DUP2 PUSH2 0x324 ADD MSTORE DUP2 DUP2 PUSH2 0x521 ADD MSTORE DUP2 DUP2 PUSH2 0x5CC ADD MSTORE DUP2 DUP2 PUSH2 0x795 ADD MSTORE DUP2 DUP2 PUSH2 0x80C ADD MSTORE DUP2 DUP2 PUSH2 0x9D4 ADD MSTORE DUP2 DUP2 PUSH2 0xC26 ADD MSTORE DUP2 DUP2 PUSH2 0xCE3 ADD MSTORE DUP2 DUP2 PUSH2 0xDB9 ADD MSTORE DUP2 DUP2 PUSH2 0xF33 ADD MSTORE DUP2 DUP2 PUSH2 0xFAA ADD MSTORE DUP2 DUP2 PUSH2 0x1129 ADD MSTORE DUP2 DUP2 PUSH2 0x118D ADD MSTORE PUSH2 0x11F0 ADD MSTORE PUSH2 0x1AC6 PUSH0 RETURN INVALID PUSH1 0x80 PUSH1 0x40 MSTORE PUSH1 0x4 CALLDATASIZE LT PUSH2 0xE0 JUMPI PUSH0 CALLDATALOAD PUSH1 0xE0 SHR DUP1 PUSH4 0xAA8C217C GT PUSH2 0x7E JUMPI DUP1 PUSH4 0xD0E30DB0 GT PUSH2 0x58 JUMPI DUP1 PUSH4 0xD0E30DB0 EQ PUSH2 0x28A JUMPI DUP1 PUSH4 0xDC9C5035 EQ PUSH2 0x294 JUMPI DUP1 PUSH4 0xF3E435AB EQ PUSH2 0x2BE JUMPI DUP1 PUSH4 0xFE25E00A EQ PUSH2 0x2D4 JUMPI PUSH2 0x120 JUMP JUMPDEST DUP1 PUSH4 0xAA8C217C EQ PUSH2 0x20C JUMPI DUP1 PUSH4 0xC19D93FB EQ PUSH2 0x236 JUMPI DUP1 PUSH4 0xC7E284B8 EQ PUSH2 0x260 JUMPI PUSH2 0x120 JUMP JUMPDEST DUP1 PUSH4 0x5E8A626E GT PUSH2 0xBA JUMPI DUP1 PUSH4 0x5E8A626E EQ PUSH2 0x17A JUMPI DUP1 PUSH4 0x6DAA2D44 EQ PUSH2 0x1A4 JUMPI DUP1 PUSH4 0x7150D8AE EQ PUSH2 0x1BA JUMPI DUP1 PUSH4 0x89E1E82A EQ PUSH2 0x1E4 JUMPI PUSH2 0x120 JUMP JUMPDEST DUP1 PUSH4 0x8551A53 EQ PUSH2 0x124 JUMPI DUP1 PUSH4 0x2264D639 EQ PUSH2 0x14E JUMPI DUP1 PUSH4 0x5E10177B EQ PUSH2 0x164 JUMPI PUSH2 0x120 JUMP JUMPDEST CALLDATASIZE PUSH2 0x120 JUMPI PUSH1 0x40 MLOAD PUSH32 0x8C379A000000000000000000000000000000000000000000000000000000000 DUP2 MSTORE PUSH1 0x4 ADD PUSH2 0x117 SWAP1 PUSH2 0x12D1 JUMP JUMPDEST PUSH1 0x40 MLOAD DUP1 SWAP2 SUB SWAP1 REVERT JUMPDEST PUSH0 PUSH0 REVERT JUMPDEST CALLVALUE DUP1 ISZERO PUSH2 0x12F JUMPI PUSH0 PUSH0 REVERT JUMPDEST POP PUSH2 0x138 PUSH2 0x2FE JUMP JUMPDEST PUSH1 0x40 MLOAD PUSH2 0x145 SWAP2 SWAP1 PUSH2 0x132E JUMP JUMPDEST PUSH1 0x40 MLOAD DUP1 SWAP2 SUB SWAP1 RETURN JUMPDEST CALLVALUE DUP1 ISZERO PUSH2 0x159 JUMPI PUSH0 PUSH0 REVERT JUMPDEST POP PUSH2 0x162 PUSH2 0x322 JUMP JUMPDEST STOP JUMPDEST CALLVALUE DUP1 ISZERO PUSH2 0x16F JUMPI PUSH0 PUSH0 REVERT JUMPDEST POP PUSH2 0x178 PUSH2 0x5CA JUMP JUMPDEST STOP JUMPDEST CALLVALUE DUP1 ISZERO PUSH2 0x185 JUMPI PUSH0 PUSH0 REVERT JUMPDEST POP PUSH2 0x18E PUSH2 0x804 JUMP JUMPDEST PUSH1 0x40 MLOAD PUSH2 0x19B SWAP2 SWAP1 PUSH2 0x135F JUMP JUMPDEST PUSH1 0x40 MLOAD DUP1 SWAP2 SUB SWAP1 RETURN JUMPDEST CALLVALUE DUP1 ISZERO PUSH2 0x1AF JUMPI PUSH0 PUSH0 REVERT JUMPDEST POP PUSH2 0x1B8 PUSH2 0x80A JUMP JUMPDEST STOP JUMPDEST CALLVALUE DUP1 ISZERO PUSH2 0x1C5 JUMPI PUSH0 PUSH0 REVERT JUMPDEST POP PUSH2 0x1CE PUSH2 0x9D2 JUMP JUMPDEST PUSH1 0x40 MLOAD PUSH2 0x1DB SWAP2 SWAP1 PUSH2 0x132E JUMP JUMPDEST PUSH1 0x40 MLOAD DUP1 SWAP2 SUB SWAP1 RETURN JUMPDEST CALLVALUE DUP1 ISZERO PUSH2 0x1EF JUMPI PUSH0 PUSH0 REVERT JUMPDEST POP PUSH2 0x20A PUSH1 0x4 DUP1 CALLDATASIZE SUB DUP2 ADD SWAP1 PUSH2 0x205 SWAP2 SWAP1 PUSH2 0x13B1 JUMP JUMPDEST PUSH2 0x9F6 JUMP JUMPDEST STOP JUMPDEST CALLVALUE DUP1 ISZERO PUSH2 0x217 JUMPI PUSH0 PUSH0 REVERT JUMPDEST POP PUSH2 0x220 PUSH2 0xD1E JUMP JUMPDEST PUSH1 0x40 MLOAD PUSH2 0x22D SWAP2 SWAP1 PUSH2 0x135F JUMP JUMPDEST PUSH1 0x40 MLOAD DUP1 SWAP2 SUB SWAP1 RETURN JUMPDEST CALLVALUE DUP1 ISZERO PUSH2 0x241 JUMPI PUSH0 PUSH0 REVERT JUMPDEST POP PUSH2 0x24A PUSH2 0xD23 JUMP JUMPDEST PUSH1 0x40 MLOAD PUSH2 0x257 SWAP2 SWAP1 PUSH2 0x144F JUMP JUMPDEST PUSH1 0x40 MLOAD DUP1 SWAP2 SUB SWAP1 RETURN JUMPDEST CALLVALUE DUP1 ISZERO PUSH2 0x26B JUMPI PUSH0 PUSH0 REVERT JUMPDEST POP PUSH2 0x274 PUSH2 0xD35 JUMP JUMPDEST PUSH1 0x40 MLOAD PUSH2 0x281 SWAP2 SWAP1 PUSH2 0x135F JUMP JUMPDEST PUSH1 0x40 MLOAD DUP1 SWAP2 SUB SWAP1 RETURN JUMPDEST PUSH2 0x292 PUSH2 0xDB7 JUMP JUMPDEST STOP JUMPDEST CALLVALUE DUP1 ISZERO PUSH2 0x29F JUMPI PUSH0 PUSH0 REVERT JUMPDEST POP PUSH2 0x2A8 PUSH2 0xFA2 JUMP JUMPDEST PUSH1 0x40 MLOAD PUSH2 0x2B5 SWAP2 SWAP1 PUSH2 0x135F JUMP JUMPDEST PUSH1 0x40 MLOAD DUP1 SWAP2 SUB SWAP1 RETURN JUMPDEST CALLVALUE DUP1 ISZERO PUSH2 0x2C9 JUMPI PUSH0 PUSH0 REVERT JUMPDEST POP PUSH2 0x2D2 PUSH2 0xFA8 JUMP JUMPDEST STOP JUMPDEST CALLVALUE DUP1 ISZERO PUSH2 0x2DF JUMPI PUSH0 PUSH0 REVERT JUMPDEST POP PUSH2 0x2E8 PUSH2 0x1253 JUMP JUMPDEST PUSH1 0x40 MLOAD PUSH2 0x2F5 SWAP2 SWAP1 PUSH2 0x132E JUMP JUMPDEST PUSH1 0x40 MLOAD DUP1 SWAP2 SUB SWAP1 RETURN JUMPDEST PUSH32 0x0 DUP2 JUMP JUMPDEST PUSH32 0x0 PUSH20 0xFFFFFFFFFFFFFFFFFFFFFFFFFFFFFFFFFFFFFFFF AND CALLER PUSH20 0xFFFFFFFFFFFFFFFFFFFFFFFFFFFFFFFFFFFFFFFF AND EQ DUP1 PUSH2 0x3C7 JUMPI POP PUSH32 0x0 PUSH20 0xFFFFFFFFFFFFFFFFFFFFFFFFFFFFFFFFFFFFFFFF AND CALLER PUSH20 0xFFFFFFFFFFFFFFFFFFFFFFFFFFFFFFFFFFFFFFFF AND EQ JUMPDEST PUSH2 0x406 JUMPI PUSH1 0x40 MLOAD PUSH32 0x8C379A000000000000000000000000000000000000000000000000000000000 DUP2 MSTORE PUSH1 0x4 ADD PUSH2 0x3FD SWAP1 PUSH2 0x14B2 JUMP JUMPDEST PUSH1 0x40 MLOAD DUP1 SWAP2 SUB SWAP1 REVERT JUMPDEST PUSH1 0x1 PUSH1 0x4 DUP2 GT ISZERO PUSH2 0x41A JUMPI PUSH2 0x419 PUSH2 0x13DC JUMP JUMPDEST JUMPDEST PUSH1 0x1 PUSH0 SWAP1 SLOAD SWAP1 PUSH2 0x100 EXP SWAP1 DIV PUSH1 0xFF AND PUSH1 0x4 DUP2 GT ISZERO PUSH2 0x43B JUMPI PUSH2 0x43A PUSH2 0x13DC JUMP JUMPDEST JUMPDEST EQ DUP1 PUSH2 0x478 JUMPI POP PUSH0 PUSH1 0x4 DUP2 GT ISZERO PUSH2 0x455 JUMPI PUSH2 0x454 PUSH2 0x13DC JUMP JUMPDEST JUMPDEST PUSH1 0x1 PUSH0 SWAP1 SLOAD SWAP1 PUSH2 0x100 EXP SWAP1 DIV PUSH1 0xFF AND PUSH1 0x4 DUP2 GT ISZERO PUSH2 0x476 JUMPI PUSH2 0x475 PUSH2 0x13DC JUMP JUMPDEST JUMPDEST EQ JUMPDEST PUSH2 0x4B7 JUMPI PUSH1 0x40 MLOAD PUSH32 0x8C379A000000000000000000000000000000000000000000000000000000000 DUP2 MSTORE PUSH1 0x4 ADD PUSH2 0x4AE SWAP1 PUSH2 0x151A JUMP JUMPDEST PUSH1 0x40 MLOAD DUP1 SWAP2 SUB SWAP1 REVERT JUMPDEST PUSH0 PUSH1 0x1 PUSH0 SWAP1 SLOAD SWAP1 PUSH2 0x100 EXP SWAP1 DIV PUSH1 0xFF AND SWAP1 POP PUSH1 0x4 PUSH1 0x1 PUSH0 PUSH2 0x100 EXP DUP2 SLOAD DUP2 PUSH1 0xFF MUL NOT AND SWAP1 DUP4 PUSH1 0x4 DUP2 GT ISZERO PUSH2 0x4EE JUMPI PUSH2 0x4ED PUSH2 0x13DC JUMP JUMPDEST JUMPDEST MUL OR SWAP1 SSTORE POP PUSH1 0x1 PUSH1 0x4 DUP2 GT ISZERO PUSH2 0x507 JUMPI PUSH2 0x506 PUSH2 0x13DC JUMP JUMPDEST JUMPDEST DUP2 PUSH1 0x4 DUP2 GT ISZERO PUSH2 0x51A JUMPI PUSH2 0x519 PUSH2 0x13DC JUMP JUMPDEST JUMPDEST SUB PUSH2 0x584 JUMPI PUSH32 0x0 PUSH20 0xFFFFFFFFFFFFFFFFFFFFFFFFFFFFFFFFFFFFFFFF AND PUSH2 0x8FC SELFBALANCE SWAP1 DUP2 ISZERO MUL SWAP1 PUSH1 0x40 MLOAD PUSH0 PUSH1 0x40 MLOAD DUP1 DUP4 SUB DUP2 DUP6 DUP9 DUP9 CALL SWAP4 POP POP POP POP ISZERO DUP1 ISZERO PUSH2 0x582 JUMPI RETURNDATASIZE PUSH0 PUSH0 RETURNDATACOPY RETURNDATASIZE PUSH0 REVERT JUMPDEST POP JUMPDEST CALLER PUSH20 0xFFFFFFFFFFFFFFFFFFFFFFFFFFFFFFFFFFFFFFFF AND PUSH32 0xAC2A38716BF0FA9FA1A52E859663398120E11FA721EA31FE0682199B9FD367E7 PUSH1 0x40 MLOAD PUSH1 0x40 MLOAD DUP1 SWAP2 SUB SWAP1 LOG2 POP JUMP JUMPDEST PUSH32 0x0 PUSH20 0xFFFFFFFFFFFFFFFFFFFFFFFFFFFFFFFFFFFFFFFF AND CALLER PUSH20 0xFFFFFFFFFFFFFFFFFFFFFFFFFFFFFFFFFFFFFFFF AND EQ PUSH2 0x658 JUMPI PUSH1 0x40 MLOAD PUSH32 0x8C379A000000000000000000000000000000000000000000000000000000000 DUP2 MSTORE PUSH1 0x4 ADD PUSH2 0x64F SWAP1 PUSH2 0x1582 JUMP JUMPDEST PUSH1 0x40 MLOAD DUP1 SWAP2 SUB SWAP1 REVERT JUMPDEST PUSH1 0x1 PUSH1 0x4 DUP2 GT ISZERO PUSH2 0x66C JUMPI PUSH2 0x66B PUSH2 0x13DC JUMP JUMPDEST JUMPDEST PUSH1 0x1 PUSH0 SWAP1 SLOAD SWAP1 PUSH2 0x100 EXP SWAP1 DIV PUSH1 0xFF AND PUSH1 0x4 DUP2 GT ISZERO PUSH2 0x68D JUMPI PUSH2 0x68C PUSH2 0x13DC JUMP JUMPDEST JUMPDEST EQ PUSH2 0x6CD JUMPI PUSH1 0x40 MLOAD PUSH32 0x8C379A000000000000000000000000000000000000000000000000000000000 DUP2 MSTORE PUSH1 0x4 ADD PUSH2 0x6C4 SWAP1 PUSH2 0x15EA JUMP JUMPDEST PUSH1 0x40 MLOAD DUP1 SWAP2 SUB SWAP1 REVERT JUMPDEST PUSH1 0x2 PUSH1 0x1 PUSH0 PUSH2 0x100 EXP DUP2 SLOAD DUP2 PUSH1 0xFF MUL NOT AND SWAP1 DUP4 PUSH1 0x4 DUP2 GT ISZERO PUSH2 0x6F2 JUMPI PUSH2 0x6F1 PUSH2 0x13DC JUMP JUMPDEST JUMPDEST MUL OR SWAP1 SSTORE POP PUSH32 0x0 PUSH20 0xFFFFFFFFFFFFFFFFFFFFFFFFFFFFFFFFFFFFFFFF AND PUSH2 0x8FC PUSH0 SLOAD SWAP1 DUP2 ISZERO MUL SWAP1 PUSH1 0x40 MLOAD PUSH0 PUSH1 0x40 MLOAD DUP1 DUP4 SUB DUP2 DUP6 DUP9 DUP9 CALL SWAP4 POP POP POP POP ISZERO DUP1 ISZERO PUSH2 0x75B JUMPI RETURNDATASIZE PUSH0 PUSH0 RETURNDATACOPY RETURNDATASIZE PUSH0 REVERT JUMPDEST POP PUSH32 0x0 PUSH20 0xFFFFFFFFFFFFFFFFFFFFFFFFFFFFFFFFFFFFFFFF AND PUSH32 0x0 PUSH20 0xFFFFFFFFFFFFFFFFFFFFFFFFFFFFFFFFFFFFFFFF AND PUSH32 0xDF462B659B1EF8BF3BB666339203DFF5A51E2430E9CAAF35984DCB2A92C77D66 PUSH0 SLOAD PUSH1 0x40 MLOAD PUSH2 0x7FA SWAP2 SWAP1 PUSH2 0x135F JUMP JUMPDEST PUSH1 0x40 MLOAD DUP1 SWAP2 SUB SWAP1 LOG3 JUMP JUMPDEST PUSH1 0x2 SLOAD DUP2 JUMP JUMPDEST PUSH32 0x0 PUSH20 0xFFFFFFFFFFFFFFFFFFFFFFFFFFFFFFFFFFFFFFFF AND CALLER PUSH20 0xFFFFFFFFFFFFFFFFFFFFFFFFFFFFFFFFFFFFFFFF AND EQ DUP1 PUSH2 0x8AF JUMPI POP PUSH32 0x0 PUSH20 0xFFFFFFFFFFFFFFFFFFFFFFFFFFFFFFFFFFFFFFFF AND CALLER PUSH20 0xFFFFFFFFFFFFFFFFFFFFFFFFFFFFFFFFFFFFFFFF AND EQ JUMPDEST PUSH2 0x8EE JUMPI PUSH1 0x40 MLOAD PUSH32 0x8C379A000000000000000000000000000000000000000000000000000000000 DUP2 MSTORE PUSH1 0x4 ADD PUSH2 0x8E5 SWAP1 PUSH2 0x14B2 JUMP JUMPDEST PUSH1 0x40 MLOAD DUP1 SWAP2 SUB SWAP1 REVERT JUMPDEST PUSH1 0x1 PUSH1 0x4 DUP2 GT ISZERO PUSH2 0x902 JUMPI PUSH2 0x901 PUSH2 0x13DC JUMP JUMPDEST JUMPDEST PUSH1 0x1 PUSH0 SWAP1 SLOAD SWAP1 PUSH2 0x100 EXP SWAP1 DIV PUSH1 0xFF AND PUSH1 0x4 DUP2 GT ISZERO PUSH2 0x923 JUMPI PUSH2 0x922 PUSH2 0x13DC JUMP JUMPDEST JUMPDEST EQ PUSH2 0x963 JUMPI PUSH1 0x40 MLOAD PUSH32 0x8C379A000000000000000000000000000000000000000000000000000000000 DUP2 MSTORE PUSH1 0x4 ADD PUSH2 0x95A SWAP1 PUSH2 0x1652 JUMP JUMPDEST PUSH1 0x40 MLOAD DUP1 SWAP2 SUB SWAP1 REVERT JUMPDEST PUSH1 0x3 PUSH1 0x1 PUSH0 PUSH2 0x100 EXP DUP2 SLOAD DUP2 PUSH1 0xFF MUL NOT AND SWAP1 DUP4 PUSH1 0x4 DUP2 GT ISZERO PUSH2 0x988 JUMPI PUSH2 0x987 PUSH2 0x13DC JUMP JUMPDEST JUMPDEST MUL OR SWAP1 SSTORE POP CALLER PUSH20 0xFFFFFFFFFFFFFFFFFFFFFFFFFFFFFFFFFFFFFFFF AND PUSH32 0xB3CD97B16A08A5C77357C276D248827AD32DFD56060F7C55D6255537BA3D962 PUSH1 0x40 MLOAD PUSH1 0x40 MLOAD DUP1 SWAP2 SUB SWAP1 LOG2 JUMP JUMPDEST PUSH32 0x0 DUP2 JUMP JUMPDEST PUSH32 0x0 PUSH20 0xFFFFFFFFFFFFFFFFFFFFFFFFFFFFFFFFFFFFFFFF AND CALLER PUSH20 0xFFFFFFFFFFFFFFFFFFFFFFFFFFFFFFFFFFFFFFFF AND EQ PUSH2 0xA84 JUMPI PUSH1 0x40 MLOAD PUSH32 0x8C379A000000000000000000000000000000000000000000000000000000000 DUP2 MSTORE PUSH1 0x4 ADD PUSH2 0xA7B SWAP1 PUSH2 0x16BA JUMP JUMPDEST PUSH1 0x40 MLOAD DUP1 SWAP2 SUB SWAP1 REVERT JUMPDEST PUSH1 0x3 PUSH1 0x4 DUP2 GT ISZERO PUSH2 0xA98 JUMPI PUSH2 0xA97 PUSH2 0x13DC JUMP JUMPDEST JUMPDEST PUSH1 0x1 PUSH0 SWAP1 SLOAD SWAP1 PUSH2 0x100 EXP SWAP1 DIV PUSH1 0xFF AND PUSH1 0x4 DUP2 GT ISZERO PUSH2 0xAB9 JUMPI PUSH2 0xAB8 PUSH2 0x13DC JUMP JUMPDEST JUMPDEST EQ PUSH2 0xAF9 JUMPI PUSH1 0x40 MLOAD PUSH32 0x8C379A000000000000000000000000000000000000000000000000000000000 DUP2 MSTORE PUSH1 0x4 ADD PUSH2 0xAF0 SWAP1 PUSH2 0x1722 JUMP JUMPDEST PUSH1 0x40 MLOAD DUP1 SWAP2 SUB SWAP1 REVERT JUMPDEST PUSH1 0x2 PUSH1 0x1 PUSH0 PUSH2 0x100 EXP DUP2 SLOAD DUP2 PUSH1 0xFF MUL NOT AND SWAP1 DUP4 PUSH1 0x4 DUP2 GT ISZERO PUSH2 0xB1E JUMPI PUSH2 0xB1D PUSH2 0x13DC JUMP JUMPDEST JUMPDEST MUL OR SWAP1 SSTORE POP DUP1 ISZERO PUSH2 0xC24 JUMPI PUSH32 0x0 PUSH20 0xFFFFFFFFFFFFFFFFFFFFFFFFFFFFFFFFFFFFFFFF AND PUSH2 0x8FC PUSH0 SLOAD SWAP1 DUP2 ISZERO MUL SWAP1 PUSH1 0x40 MLOAD PUSH0 PUSH1 0x40 MLOAD DUP1 DUP4 SUB DUP2 DUP6 DUP9 DUP9 CALL SWAP4 POP POP POP POP ISZERO DUP1 ISZERO PUSH2 0xB8D JUMPI RETURNDATASIZE PUSH0 PUSH0 RETURNDATACOPY RETURNDATASIZE PUSH0 REVERT JUMPDEST POP PUSH32 0x0 PUSH20 0xFFFFFFFFFFFFFFFFFFFFFFFFFFFFFFFFFFFFFFFF AND PUSH32 0xC98FD1F80A8937B1FDEB951D0B63BF7C924A1872543AE2499295625B18ABE70E PUSH32 0x0 PUSH0 SLOAD PUSH1 0x40 MLOAD PUSH2 0xC17 SWAP3 SWAP2 SWAP1 PUSH2 0x1740 JUMP JUMPDEST PUSH1 0x40 MLOAD DUP1 SWAP2 SUB SWAP1 LOG2 PUSH2 0xD1B JUMP JUMPDEST PUSH32 0x0 PUSH20 0xFFFFFFFFFFFFFFFFFFFFFFFFFFFFFFFFFFFFFFFF AND PUSH2 0x8FC PUSH0 SLOAD SWAP1 DUP2 ISZERO MUL SWAP1 PUSH1 0x40 MLOAD PUSH0 PUSH1 0x40 MLOAD DUP1 DUP4 SUB DUP2 DUP6 DUP9 DUP9 CALL SWAP4 POP POP POP POP ISZERO DUP1 ISZERO PUSH2 0xC88 JUMPI RETURNDATASIZE PUSH0 PUSH0 RETURNDATACOPY RETURNDATASIZE PUSH0 REVERT JUMPDEST POP PUSH32 0x0 PUSH20 0xFFFFFFFFFFFFFFFFFFFFFFFFFFFFFFFFFFFFFFFF AND PUSH32 0xC98FD1F80A8937B1FDEB951D0B63BF7C924A1872543AE2499295625B18ABE70E PUSH32 0x0 PUSH0 SLOAD PUSH1 0x40 MLOAD PUSH2 0xD12 SWAP3 SWAP2 SWAP1 PUSH2 0x1740 JUMP JUMPDEST PUSH1 0x40 MLOAD DUP1 SWAP2 SUB SWAP1 LOG2 JUMPDEST POP JUMP JUMPDEST PUSH0 SLOAD DUP2 JUMP JUMPDEST PUSH1 0x1 PUSH0 SWAP1 SLOAD SWAP1 PUSH2 0x100 EXP SWAP1 DIV PUSH1 0xFF AND DUP2 JUMP JUMPDEST PUSH0 PUSH1 0x1 PUSH1 0x4 DUP2 GT ISZERO PUSH2 0xD4A JUMPI PUSH2 0xD49 PUSH2 0x13DC JUMP JUMPDEST JUMPDEST PUSH1 0x1 PUSH0 SWAP1 SLOAD SWAP1 PUSH2 0x100 EXP SWAP1 DIV PUSH1 0xFF AND PUSH1 0x4 DUP2 GT ISZERO PUSH2 0xD6B JUMPI PUSH2 0xD6A PUSH2 0x13DC JUMP JUMPDEST JUMPDEST EQ PUSH2 0xD78 JUMPI PUSH0 SWAP1 POP PUSH2 0xDB4 JUMP JUMPDEST PUSH1 0x3 SLOAD PUSH1 0x2 SLOAD PUSH2 0xD88 SWAP2 SWAP1 PUSH2 0x1794 JUMP JUMPDEST TIMESTAMP LT PUSH2 0xD96 JUMPI PUSH0 SWAP1 POP PUSH2 0xDB4 JUMP JUMPDEST TIMESTAMP PUSH1 0x3 SLOAD PUSH1 0x2 SLOAD PUSH2 0xDA7 SWAP2 SWAP1 PUSH2 0x1794 JUMP JUMPDEST PUSH2 0xDB1 SWAP2 SWAP1 PUSH2 0x17C7 JUMP JUMPDEST SWAP1 POP JUMPDEST SWAP1 JUMP JUMPDEST PUSH32 0x0 PUSH20 0xFFFFFFFFFFFFFFFFFFFFFFFFFFFFFFFFFFFFFFFF AND CALLER PUSH20 0xFFFFFFFFFFFFFFFFFFFFFFFFFFFFFFFFFFFFFFFF AND EQ PUSH2 0xE45 JUMPI PUSH1 0x40 MLOAD PUSH32 0x8C379A000000000000000000000000000000000000000000000000000000000 DUP2 MSTORE PUSH1 0x4 ADD PUSH2 0xE3C SWAP1 PUSH2 0x1844 JUMP JUMPDEST PUSH1 0x40 MLOAD DUP1 SWAP2 SUB SWAP1 REVERT JUMPDEST PUSH0 PUSH1 0x4 DUP2 GT ISZERO PUSH2 0xE58 JUMPI PUSH2 0xE57 PUSH2 0x13DC JUMP JUMPDEST JUMPDEST PUSH1 0x1 PUSH0 SWAP1 SLOAD SWAP1 PUSH2 0x100 EXP SWAP1 DIV PUSH1 0xFF AND PUSH1 0x4 DUP2 GT ISZERO PUSH2 0xE79 JUMPI PUSH2 0xE78 PUSH2 0x13DC JUMP JUMPDEST JUMPDEST EQ PUSH2 0xEB9 JUMPI PUSH1 0x40 MLOAD PUSH32 0x8C379A000000000000000000000000000000000000000000000000000000000 DUP2 MSTORE PUSH1 0x4 ADD PUSH2 0xEB0 SWAP1 PUSH2 0x18AC JUMP JUMPDEST PUSH1 0x40 MLOAD DUP1 SWAP2 SUB SWAP1 REVERT JUMPDEST PUSH0 CALLVALUE GT PUSH2 0xEFB JUMPI PUSH1 0x40 MLOAD PUSH32 0x8C379A000000000000000000000000000000000000000000000000000000000 DUP2 MSTORE PUSH1 0x4 ADD PUSH2 0xEF2 SWAP1 PUSH2 0x1914 JUMP JUMPDEST PUSH1 0x40 MLOAD DUP1 SWAP2 SUB SWAP1 REVERT JUMPDEST CALLVALUE PUSH0 DUP2 SWAP1 SSTORE POP PUSH1 0x1 DUP1 PUSH0 PUSH2 0x100 EXP DUP2 SLOAD DUP2 PUSH1 0xFF MUL NOT AND SWAP1 DUP4 PUSH1 0x4 DUP2 GT ISZERO PUSH2 0xF25 JUMPI PUSH2 0xF24 PUSH2 0x13DC JUMP JUMPDEST JUMPDEST MUL OR SWAP1 SSTORE POP TIMESTAMP PUSH1 0x2 DUP2 SWAP1 SSTORE POP PUSH32 0x0 PUSH20 0xFFFFFFFFFFFFFFFFFFFFFFFFFFFFFFFFFFFFFFFF AND PUSH32 0xD348A8F42FAE8DB1D0030271B37ED6D94A5E292FF36DB57B244FFE13F494DD45 PUSH0 SLOAD PUSH1 0x40 MLOAD PUSH2 0xF98 SWAP2 SWAP1 PUSH2 0x135F JUMP JUMPDEST PUSH1 0x40 MLOAD DUP1 SWAP2 SUB SWAP1 LOG2 JUMP JUMPDEST PUSH1 0x3 SLOAD DUP2 JUMP JUMPDEST PUSH32 0x0 PUSH20 0xFFFFFFFFFFFFFFFFFFFFFFFFFFFFFFFFFFFFFFFF AND CALLER PUSH20 0xFFFFFFFFFFFFFFFFFFFFFFFFFFFFFFFFFFFFFFFF AND EQ PUSH2 0x1036 JUMPI PUSH1 0x40 MLOAD PUSH32 0x8C379A000000000000000000000000000000000000000000000000000000000 DUP2 MSTORE PUSH1 0x4 ADD PUSH2 0x102D SWAP1 PUSH2 0x19A2 JUMP JUMPDEST PUSH1 0x40 MLOAD DUP1 SWAP2 SUB SWAP1 REVERT JUMPDEST PUSH1 0x1 PUSH1 0x4 DUP2 GT ISZERO PUSH2 0x104A JUMPI PUSH2 0x1049 PUSH2 0x13DC JUMP JUMPDEST JUMPDEST PUSH1 0x1 PUSH0 SWAP1 SLOAD SWAP1 PUSH2 0x100 EXP SWAP1 DIV PUSH1 0xFF AND PUSH1 0x4 DUP2 GT ISZERO PUSH2 0x106B JUMPI PUSH2 0x106A PUSH2 0x13DC JUMP JUMPDEST JUMPDEST EQ PUSH2 0x10AB JUMPI PUSH1 0x40 MLOAD PUSH32 0x8C379A000000000000000000000000000000000000000000000000000000000 DUP2 MSTORE PUSH1 0x4 ADD PUSH2 0x10A2 SWAP1 PUSH2 0x1A0A JUMP JUMPDEST PUSH1 0x40 MLOAD DUP1 SWAP2 SUB SWAP1 REVERT JUMPDEST PUSH1 0x3 SLOAD PUSH1 0x2 SLOAD PUSH2 0x10BB SWAP2 SWAP1 PUSH2 0x1794 JUMP JUMPDEST TIMESTAMP LT ISZERO PUSH2 0x10FD JUMPI PUSH1 0x40 MLOAD PUSH32 0x8C379A000000000000000000000000000000000000000000000000000000000 DUP2 MSTORE PUSH1 0x4 ADD PUSH2 0x10F4 SWAP1 PUSH2 0x1A72 JUMP JUMPDEST PUSH1 0x40 MLOAD DUP1 SWAP2 SUB SWAP1 REVERT JUMPDEST PUSH1 0x4 PUSH1 0x1 PUSH0 PUSH2 0x100 EXP DUP2 SLOAD DUP2 PUSH1 0xFF MUL NOT AND SWAP1 DUP4 PUSH1 0x4 DUP2 GT ISZERO PUSH2 0x1122 JUMPI PUSH2 0x1121 PUSH2 0x13DC JUMP JUMPDEST JUMPDEST MUL OR SWAP1 SSTORE POP PUSH32 0x0 PUSH20 0xFFFFFFFFFFFFFFFFFFFFFFFFFFFFFFFFFFFFFFFF AND PUSH2 0x8FC SELFBALANCE SWAP1 DUP2 ISZERO MUL SWAP1 PUSH1 0x40 MLOAD PUSH0 PUSH1 0x40 MLOAD DUP1 DUP4 SUB DUP2 DUP6 DUP9 DUP9 CALL SWAP4 POP POP POP POP ISZERO DUP1 ISZERO PUSH2 0x118A JUMPI RETURNDATASIZE PUSH0 PUSH0 RETURNDATACOPY RETURNDATASIZE PUSH0 REVERT JUMPDEST POP PUSH32 0x0 PUSH20 0xFFFFFFFFFFFFFFFFFFFFFFFFFFFFFFFFFFFFFFFF AND PUSH32 0xAC2A38716BF0FA9FA1A52E859663398120E11FA721EA31FE0682199B9FD367E7 PUSH1 0x40 MLOAD PUSH1 0x40 MLOAD DUP1 SWAP2 SUB SWAP1 LOG2 PUSH32 0x0 PUSH20 0xFFFFFFFFFFFFFFFFFFFFFFFFFFFFFFFFFFFFFFFF AND PUSH32 0x2BF2011B75B523A6A342B7F6D3FD3A1FAF2086F70351C66F9A893A33E5260FE4 PUSH1 0x40 MLOAD PUSH1 0x40 MLOAD DUP1 SWAP2 SUB SWAP1 LOG2 JUMP JUMPDEST PUSH32 0x0 DUP2 JUMP JUMPDEST PUSH0 DUP3 DUP3 MSTORE PUSH1 0x20 DUP3 ADD SWAP1 POP SWAP3 SWAP2 POP POP JUMP JUMPDEST PUSH32 0x446972656374207061796D656E7473206E6F7420616C6C6F7765640000000000 PUSH0 DUP3 ADD MSTORE POP JUMP JUMPDEST PUSH0 PUSH2 0x12BB PUSH1 0x1B DUP4 PUSH2 0x1277 JUMP JUMPDEST SWAP2 POP PUSH2 0x12C6 DUP3 PUSH2 0x1287 JUMP JUMPDEST PUSH1 0x20 DUP3 ADD SWAP1 POP SWAP2 SWAP1 POP JUMP JUMPDEST PUSH0 PUSH1 0x20 DUP3 ADD SWAP1 POP DUP2 DUP2 SUB PUSH0 DUP4 ADD MSTORE PUSH2 0x12E8 DUP2 PUSH2 0x12AF JUMP JUMPDEST SWAP1 POP SWAP2 SWAP1 POP JUMP JUMPDEST PUSH0 PUSH20 0xFFFFFFFFFFFFFFFFFFFFFFFFFFFFFFFFFFFFFFFF DUP3 AND SWAP1 POP SWAP2 SWAP1 POP JUMP JUMPDEST PUSH0 PUSH2 0x1318 DUP3 PUSH2 0x12EF JUMP JUMPDEST SWAP1 POP SWAP2 SWAP1 POP JUMP JUMPDEST PUSH2 0x1328 DUP2 PUSH2 0x130E JUMP JUMPDEST DUP3 MSTORE POP POP JUMP JUMPDEST PUSH0 PUSH1 0x20 DUP3 ADD SWAP1 POP PUSH2 0x1341 PUSH0 DUP4 ADD DUP5 PUSH2 0x131F JUMP JUMPDEST SWAP3 SWAP2 POP POP JUMP JUMPDEST PUSH0 DUP2 SWAP1 POP SWAP2 SWAP1 POP JUMP JUMPDEST PUSH2 0x1359 DUP2 PUSH2 0x1347 JUMP JUMPDEST DUP3 MSTORE POP POP JUMP JUMPDEST PUSH0 PUSH1 0x20 DUP3 ADD SWAP1 POP PUSH2 0x1372 PUSH0 DUP4 ADD DUP5 PUSH2 0x1350 JUMP JUMPDEST SWAP3 SWAP2 POP POP JUMP JUMPDEST PUSH0 PUSH0 REVERT JUMPDEST PUSH0 DUP2 ISZERO ISZERO SWAP1 POP SWAP2 SWAP1 POP JUMP JUMPDEST PUSH2 0x1390 DUP2 PUSH2 0x137C JUMP JUMPDEST DUP2 EQ PUSH2 0x139A JUMPI PUSH0 PUSH0 REVERT JUMPDEST POP JUMP JUMPDEST PUSH0 DUP2 CALLDATALOAD SWAP1 POP PUSH2 0x13AB DUP2 PUSH2 0x1387 JUMP JUMPDEST SWAP3 SWAP2 POP POP JUMP JUMPDEST PUSH0 PUSH1 0x20 DUP3 DUP5 SUB SLT ISZERO PUSH2 0x13C6 JUMPI PUSH2 0x13C5 PUSH2 0x1378 JUMP JUMPDEST JUMPDEST PUSH0 PUSH2 0x13D3 DUP5 DUP3 DUP6 ADD PUSH2 0x139D JUMP JUMPDEST SWAP2 POP POP SWAP3 SWAP2 POP POP JUMP JUMPDEST PUSH32 0x4E487B7100000000000000000000000000000000000000000000000000000000 PUSH0 MSTORE PUSH1 0x21 PUSH1 0x4 MSTORE PUSH1 0x24 PUSH0 REVERT JUMPDEST PUSH1 0x5 DUP2 LT PUSH2 0x141A JUMPI PUSH2 0x1419 PUSH2 0x13DC JUMP JUMPDEST JUMPDEST POP JUMP JUMPDEST PUSH0 DUP2 SWAP1 POP PUSH2 0x142A DUP3 PUSH2 0x1409 JUMP JUMPDEST SWAP2 SWAP1 POP JUMP JUMPDEST PUSH0 PUSH2 0x1439 DUP3 PUSH2 0x141D JUMP JUMPDEST SWAP1 POP SWAP2 SWAP1 POP JUMP JUMPDEST PUSH2 0x1449 DUP2 PUSH2 0x142F JUMP JUMPDEST DUP3 MSTORE POP POP JUMP JUMPDEST PUSH0 PUSH1 0x20 DUP3 ADD SWAP1 POP PUSH2 0x1462 PUSH0 DUP4 ADD DUP5 PUSH2 0x1440 JUMP JUMPDEST SWAP3 SWAP2 POP POP JUMP JUMPDEST PUSH32 0x4E6F7420617574686F72697A6564000000000000000000000000000000000000 PUSH0 DUP3 ADD MSTORE POP JUMP JUMPDEST PUSH0 PUSH2 0x149C PUSH1 0xE DUP4 PUSH2 0x1277 JUMP JUMPDEST SWAP2 POP PUSH2 0x14A7 DUP3 PUSH2 0x1468 JUMP JUMPDEST PUSH1 0x20 DUP3 ADD SWAP1 POP SWAP2 SWAP1 POP JUMP JUMPDEST PUSH0 PUSH1 0x20 DUP3 ADD SWAP1 POP DUP2 DUP2 SUB PUSH0 DUP4 ADD MSTORE PUSH2 0x14C9 DUP2 PUSH2 0x1490 JUMP JUMPDEST SWAP1 POP SWAP2 SWAP1 POP JUMP JUMPDEST PUSH32 0x43616E6E6F742063616E63656C206E6F77000000000000000000000000000000 PUSH0 DUP3 ADD MSTORE POP JUMP JUMPDEST PUSH0 PUSH2 0x1504 PUSH1 0x11 DUP4 PUSH2 0x1277 JUMP JUMPDEST SWAP2 POP PUSH2 0x150F DUP3 PUSH2 0x14D0 JUMP JUMPDEST PUSH1 0x20 DUP3 ADD SWAP1 POP SWAP2 SWAP1 POP JUMP JUMPDEST PUSH0 PUSH1 0x20 DUP3 ADD SWAP1 POP DUP2 DUP2 SUB PUSH0 DUP4 ADD MSTORE PUSH2 0x1531 DUP2 PUSH2 0x14F8 JUMP JUMPDEST SWAP1 POP SWAP2 SWAP1 POP JUMP JUMPDEST PUSH32 0x4F6E6C792062757965722063616E20636F6E6669726D00000000000000000000 PUSH0 DUP3 ADD MSTORE POP JUMP JUMPDEST PUSH0 PUSH2 0x156C PUSH1 0x16 DUP4 PUSH2 0x1277 JUMP JUMPDEST SWAP2 POP PUSH2 0x1577 DUP3 PUSH2 0x1538 JUMP JUMPDEST PUSH1 0x20 DUP3 ADD SWAP1 POP SWAP2 SWAP1 POP JUMP JUMPDEST PUSH0 PUSH1 0x20 DUP3 ADD SWAP1 POP DUP2 DUP2 SUB PUSH0 DUP4 ADD MSTORE PUSH2 0x1599 DUP2 PUSH2 0x1560 JUMP JUMPDEST SWAP1 POP SWAP2 SWAP1 POP JUMP JUMPDEST PUSH32 0x4E6F7420696E2064656C69766572792073746174650000000000000000000000 PUSH0 DUP3 ADD MSTORE POP JUMP JUMPDEST PUSH0 PUSH2 0x15D4 PUSH1 0x15 DUP4 PUSH2 0x1277 JUMP JUMPDEST SWAP2 POP PUSH2 0x15DF DUP3 PUSH2 0x15A0 JUMP JUMPDEST PUSH1 0x20 DUP3 ADD SWAP1 POP SWAP2 SWAP1 POP JUMP JUMPDEST PUSH0 PUSH1 0x20 DUP3 ADD SWAP1 POP DUP2 DUP2 SUB PUSH0 DUP4 ADD MSTORE PUSH2 0x1601 DUP2 PUSH2 0x15C8 JUMP JUMPDEST SWAP1 POP SWAP2 SWAP1 POP JUMP JUMPDEST PUSH32 0x43616E27742064697370757465206E6F77000000000000000000000000000000 PUSH0 DUP3 ADD MSTORE POP JUMP JUMPDEST PUSH0 PUSH2 0x163C PUSH1 0x11 DUP4 PUSH2 0x1277 JUMP JUMPDEST SWAP2 POP PUSH2 0x1647 DUP3 PUSH2 0x1608 JUMP JUMPDEST PUSH1 0x20 DUP3 ADD SWAP1 POP SWAP2 SWAP1 POP JUMP JUMPDEST PUSH0 PUSH1 0x20 DUP3 ADD SWAP1 POP DUP2 DUP2 SUB PUSH0 DUP4 ADD MSTORE PUSH2 0x1669 DUP2 PUSH2 0x1630 JUMP JUMPDEST SWAP1 POP SWAP2 SWAP1 POP JUMP JUMPDEST PUSH32 0x4F6E6C7920617262697465722063616E207265736F6C76650000000000000000 PUSH0 DUP3 ADD MSTORE POP JUMP JUMPDEST PUSH0 PUSH2 0x16A4 PUSH1 0x18 DUP4 PUSH2 0x1277 JUMP JUMPDEST SWAP2 POP PUSH2 0x16AF DUP3 PUSH2 0x1670 JUMP JUMPDEST PUSH1 0x20 DUP3 ADD SWAP1 POP SWAP2 SWAP1 POP JUMP JUMPDEST PUSH0 PUSH1 0x20 DUP3 ADD SWAP1 POP DUP2 DUP2 SUB PUSH0 DUP4 ADD MSTORE PUSH2 0x16D1 DUP2 PUSH2 0x1698 JUMP JUMPDEST SWAP1 POP SWAP2 SWAP1 POP JUMP JUMPDEST PUSH32 0x4E6F206469737075746520746F207265736F6C76650000000000000000000000 PUSH0 DUP3 ADD MSTORE POP JUMP JUMPDEST PUSH0 PUSH2 0x170C PUSH1 0x15 DUP4 PUSH2 0x1277 JUMP JUMPDEST SWAP2 POP PUSH2 0x1717 DUP3 PUSH2 0x16D8 JUMP JUMPDEST PUSH1 0x20 DUP3 ADD SWAP1 POP SWAP2 SWAP1 POP JUMP JUMPDEST PUSH0 PUSH1 0x20 DUP3 ADD SWAP1 POP DUP2 DUP2 SUB PUSH0 DUP4 ADD MSTORE PUSH2 0x1739 DUP2 PUSH2 0x1700 JUMP JUMPDEST SWAP1 POP SWAP2 SWAP1 POP JUMP JUMPDEST PUSH0 PUSH1 0x40 DUP3 ADD SWAP1 POP PUSH2 0x1753 PUSH0 DUP4 ADD DUP6 PUSH2 0x131F JUMP JUMPDEST PUSH2 0x1760 PUSH1 0x20 DUP4 ADD DUP5 PUSH2 0x1350 JUMP JUMPDEST SWAP4 SWAP3 POP POP POP JUMP JUMPDEST PUSH32 0x4E487B7100000000000000000000000000000000000000000000000000000000 PUSH0 MSTORE PUSH1 0x11 PUSH1 0x4 MSTORE PUSH1 0x24 PUSH0 REVERT JUMPDEST PUSH0 PUSH2 0x179E DUP3 PUSH2 0x1347 JUMP JUMPDEST SWAP2 POP PUSH2 0x17A9 DUP4 PUSH2 0x1347 JUMP JUMPDEST SWAP3 POP DUP3 DUP3 ADD SWAP1 POP DUP1 DUP3 GT ISZERO PUSH2 0x17C1 JUMPI PUSH2 0x17C0 PUSH2 0x1767 JUMP JUMPDEST JUMPDEST SWAP3 SWAP2 POP POP JUMP JUMPDEST PUSH0 PUSH2 0x17D1 DUP3 PUSH2 0x1347 JUMP JUMPDEST SWAP2 POP PUSH2 0x17DC DUP4 PUSH2 0x1347 JUMP JUMPDEST SWAP3 POP DUP3 DUP3 SUB SWAP1 POP DUP2 DUP2 GT ISZERO PUSH2 0x17F4 JUMPI PUSH2 0x17F3 PUSH2 0x1767 JUMP JUMPDEST JUMPDEST SWAP3 SWAP2 POP POP JUMP JUMPDEST PUSH32 0x4F6E6C792062757965722063616E206465706F73697400000000000000000000 PUSH0 DUP3 ADD MSTORE POP JUMP JUMPDEST PUSH0 PUSH2 0x182E PUSH1 0x16 DUP4 PUSH2 0x1277 JUMP JUMPDEST SWAP2 POP PUSH2 0x1839 DUP3 PUSH2 0x17FA JUMP JUMPDEST PUSH1 0x20 DUP3 ADD SWAP1 POP SWAP2 SWAP1 POP JUMP JUMPDEST PUSH0 PUSH1 0x20 DUP3 ADD SWAP1 POP DUP2 DUP2 SUB PUSH0 DUP4 ADD MSTORE PUSH2 0x185B DUP2 PUSH2 0x1822 JUMP JUMPDEST SWAP1 POP SWAP2 SWAP1 POP JUMP JUMPDEST PUSH32 0x416C726561647920706169640000000000000000000000000000000000000000 PUSH0 DUP3 ADD MSTORE POP JUMP JUMPDEST PUSH0 PUSH2 0x1896 PUSH1 0xC DUP4 PUSH2 0x1277 JUMP JUMPDEST SWAP2 POP PUSH2 0x18A1 DUP3 PUSH2 0x1862 JUMP JUMPDEST PUSH1 0x20 DUP3 ADD SWAP1 POP SWAP2 SWAP1 POP JUMP JUMPDEST PUSH0 PUSH1 0x20 DUP3 ADD SWAP1 POP DUP2 DUP2 SUB PUSH0 DUP4 ADD MSTORE PUSH2 0x18C3 DUP2 PUSH2 0x188A JUMP JUMPDEST SWAP1 POP SWAP2 SWAP1 POP JUMP JUMPDEST PUSH32 0x416D6F756E74206D7573742062652067726561746572207468616E207A65726F PUSH0 DUP3 ADD MSTORE POP JUMP JUMPDEST PUSH0 PUSH2 0x18FE PUSH1 0x20 DUP4 PUSH2 0x1277 JUMP JUMPDEST SWAP2 POP PUSH2 0x1909 DUP3 PUSH2 0x18CA JUMP JUMPDEST PUSH1 0x20 DUP3 ADD SWAP1 POP SWAP2 SWAP1 POP JUMP JUMPDEST PUSH0 PUSH1 0x20 DUP3 ADD SWAP1 POP DUP2 DUP2 SUB PUSH0 DUP4 ADD MSTORE PUSH2 0x192B DUP2 PUSH2 0x18F2 JUMP JUMPDEST SWAP1 POP SWAP2 SWAP1 POP JUMP JUMPDEST PUSH32 0x4F6E6C792062757965722063616E20747269676765722074696D656F75742063 PUSH0 DUP3 ADD MSTORE PUSH32 0x616E63656C6C6174696F6E000000000000000000000000000000000000000000 PUSH1 0x20 DUP3 ADD MSTORE POP JUMP JUMPDEST PUSH0 PUSH2 0x198C PUSH1 0x2B DUP4 PUSH2 0x1277 JUMP JUMPDEST SWAP2 POP PUSH2 0x1997 DUP3 PUSH2 0x1932 JUMP JUMPDEST PUSH1 0x40 DUP3 ADD SWAP1 POP SWAP2 SWAP1 POP JUMP JUMPDEST PUSH0 PUSH1 0x20 DUP3 ADD SWAP1 POP DUP2 DUP2 SUB PUSH0 DUP4 ADD MSTORE PUSH2 0x19B9 DUP2 PUSH2 0x1980 JUMP JUMPDEST SWAP1 POP SWAP2 SWAP1 POP JUMP JUMPDEST PUSH32 0x43616E6E6F742063616E63656C20696E2063757272656E742073746174650000 PUSH0 DUP3 ADD MSTORE POP JUMP JUMPDEST PUSH0 PUSH2 0x19F4 PUSH1 0x1E DUP4 PUSH2 0x1277 JUMP JUMPDEST SWAP2 POP PUSH2 0x19FF DUP3 PUSH2 0x19C0 JUMP JUMPDEST PUSH1 0x20 DUP3 ADD SWAP1 POP SWAP2 SWAP1 POP JUMP JUMPDEST PUSH0 PUSH1 0x20 DUP3 ADD SWAP1 POP DUP2 DUP2 SUB PUSH0 DUP4 ADD MSTORE PUSH2 0x1A21 DUP2 PUSH2 0x19E8 JUMP JUMPDEST SWAP1 POP SWAP2 SWAP1 POP JUMP JUMPDEST PUSH32 0x54696D656F7574206E6F74207265616368656400000000000000000000000000 PUSH0 DUP3 ADD MSTORE POP JUMP JUMPDEST PUSH0 PUSH2 0x1A5C PUSH1 0x13 DUP4 PUSH2 0x1277 JUMP JUMPDEST SWAP2 POP PUSH2 0x1A67 DUP3 PUSH2 0x1A28 JUMP JUMPDEST PUSH1 0x20 DUP3 ADD SWAP1 POP SWAP2 SWAP1 POP JUMP JUMPDEST PUSH0 PUSH1 0x20 DUP3 ADD SWAP1 POP DUP2 DUP2 SUB PUSH0 DUP4 ADD MSTORE PUSH2 0x1A89 DUP2 PUSH2 0x1A50 JUMP JUMPDEST SWAP1 POP SWAP2 SWAP1 POP JUMP INVALID LOG2 PUSH5 0x6970667358 0x22 SLT KECCAK256 0xF7 0xBF 0xD MCOPY RETURNDATASIZE PUSH14 0x253B5B67F74A1CEB07217BC8885D PUSH28 0x14531CFCCC548004DD9D4564736F6C634300081E0033000000000000 "
				},
				"gasEstimates": {
					"creation": {
						"codeDepositCost": "1370800",
						"executionCost": "infinite",
						"totalCost": "infinite"
					},
					"external": {
						"amount()": "2447",
						"arbiter()": "infinite",
						"buyer()": "infinite",
						"cancelAfterTimeout()": "infinite",
						"cancelMutual()": "infinite",
						"confirmDelivery()": "infinite",
						"deliveryTimeout()": "2469",
						"deposit()": "infinite",
						"depositTime()": "2448",
						"getTimeLeft()": "infinite",
						"raiseDispute()": "infinite",
						"resolveDispute(bool)": "infinite",
						"seller()": "infinite",
						"state()": "2599"
					}
				},
				"methodIdentifiers": {
					"amount()": "aa8c217c",
					"arbiter()": "fe25e00a",
					"buyer()": "7150d8ae",
					"cancelAfterTimeout()": "f3e435ab",
					"cancelMutual()": "2264d639",
					"confirmDelivery()": "5e10177b",
					"deliveryTimeout()": "dc9c5035",
					"deposit()": "d0e30db0",
					"depositTime()": "5e8a626e",
					"getTimeLeft()": "c7e284b8",
					"raiseDispute()": "6daa2d44",
					"resolveDispute(bool)": "89e1e82a",
					"seller()": "08551a53",
					"state()": "c19d93fb"
				}
			},
			"storageLayout": {
				"storage": [
					{
						"astId": 16,
						"contract": "submissions/Zora/Day24EhancedSimpleEscrow.sol:EnhancedSimpleEscrow",
						"label": "amount",
						"offset": 0,
						"slot": "0",
						"type": "t_uint256"
					},
					{
						"astId": 19,
						"contract": "submissions/Zora/Day24EhancedSimpleEscrow.sol:EnhancedSimpleEscrow",
						"label": "state",
						"offset": 0,
						"slot": "1",
						"type": "t_enum(EscrowState)8"
					},
					{
						"astId": 21,
						"contract": "submissions/Zora/Day24EhancedSimpleEscrow.sol:EnhancedSimpleEscrow",
						"label": "depositTime",
						"offset": 0,
						"slot": "2",
						"type": "t_uint256"
					},
					{
						"astId": 23,
						"contract": "submissions/Zora/Day24EhancedSimpleEscrow.sol:EnhancedSimpleEscrow",
						"label": "deliveryTimeout",
						"offset": 0,
						"slot": "3",
						"type": "t_uint256"
					}
				],
				"types": {
					"t_enum(EscrowState)8": {
						"encoding": "inplace",
						"label": "enum EnhancedSimpleEscrow.EscrowState",
						"numberOfBytes": "1"
					},
					"t_uint256": {
						"encoding": "inplace",
						"label": "uint256",
						"numberOfBytes": "32"
					}
				}
			},
			"userdoc": {
				"kind": "user",
				"methods": {},
				"version": 1
			}
		}
	}
}