{
	"submissions/Zora/Day25AutomatedMarketMaker.sol": {
		"AutomatedMarketMaker": {
			"abi": [
				{
					"inputs": [
						{
							"internalType": "address",
							"name": "_tokenA",
							"type": "address"
						},
						{
							"internalType": "address",
							"name": "_tokenB",
							"type": "address"
						},
						{
							"internalType": "string",
							"name": "_name",
							"type": "string"
						},
						{
							"internalType": "string",
							"name": "_symbol",
							"type": "string"
						}
					],
					"stateMutability": "nonpayable",
					"type": "constructor"
				},
				{
					"inputs": [
						{
							"internalType": "address",
							"name": "spender",
							"type": "address"
						},
						{
							"internalType": "uint256",
							"name": "allowance",
							"type": "uint256"
						},
						{
							"internalType": "uint256",
							"name": "needed",
							"type": "uint256"
						}
					],
					"name": "ERC20InsufficientAllowance",
					"type": "error"
				},
				{
					"inputs": [
						{
							"internalType": "address",
							"name": "sender",
							"type": "address"
						},
						{
							"internalType": "uint256",
							"name": "balance",
							"type": "uint256"
						},
						{
							"internalType": "uint256",
							"name": "needed",
							"type": "uint256"
						}
					],
					"name": "ERC20InsufficientBalance",
					"type": "error"
				},
				{
					"inputs": [
						{
							"internalType": "address",
							"name": "approver",
							"type": "address"
						}
					],
					"name": "ERC20InvalidApprover",
					"type": "error"
				},
				{
					"inputs": [
						{
							"internalType": "address",
							"name": "receiver",
							"type": "address"
						}
					],
					"name": "ERC20InvalidReceiver",
					"type": "error"
				},
				{
					"inputs": [
						{
							"internalType": "address",
							"name": "sender",
							"type": "address"
						}
					],
					"name": "ERC20InvalidSender",
					"type": "error"
				},
				{
					"inputs": [
						{
							"internalType": "address",
							"name": "spender",
							"type": "address"
						}
					],
					"name": "ERC20InvalidSpender",
					"type": "error"
				},
				{
					"anonymous": false,
					"inputs": [
						{
							"indexed": true,
							"internalType": "address",
							"name": "owner",
							"type": "address"
						},
						{
							"indexed": true,
							"internalType": "address",
							"name": "spender",
							"type": "address"
						},
						{
							"indexed": false,
							"internalType": "uint256",
							"name": "value",
							"type": "uint256"
						}
					],
					"name": "Approval",
					"type": "event"
				},
				{
					"anonymous": false,
					"inputs": [
						{
							"indexed": true,
							"internalType": "address",
							"name": "provider",
							"type": "address"
						},
						{
							"indexed": false,
							"internalType": "uint256",
							"name": "amountA",
							"type": "uint256"
						},
						{
							"indexed": false,
							"internalType": "uint256",
							"name": "amountB",
							"type": "uint256"
						},
						{
							"indexed": false,
							"internalType": "uint256",
							"name": "liquidity",
							"type": "uint256"
						}
					],
					"name": "LiquidityAdded",
					"type": "event"
				},
				{
					"anonymous": false,
					"inputs": [
						{
							"indexed": true,
							"internalType": "address",
							"name": "provider",
							"type": "address"
						},
						{
							"indexed": false,
							"internalType": "uint256",
							"name": "amountA",
							"type": "uint256"
						},
						{
							"indexed": false,
							"internalType": "uint256",
							"name": "amountB",
							"type": "uint256"
						},
						{
							"indexed": false,
							"internalType": "uint256",
							"name": "liquidity",
							"type": "uint256"
						}
					],
					"name": "LiquidityRemoved",
					"type": "event"
				},
				{
					"anonymous": false,
					"inputs": [
						{
							"indexed": true,
							"internalType": "address",
							"name": "trader",
							"type": "address"
						},
						{
							"indexed": false,
							"internalType": "address",
							"name": "tokenIn",
							"type": "address"
						},
						{
							"indexed": false,
							"internalType": "uint256",
							"name": "amountIn",
							"type": "uint256"
						},
						{
							"indexed": false,
							"internalType": "address",
							"name": "tokenOut",
							"type": "address"
						},
						{
							"indexed": false,
							"internalType": "uint256",
							"name": "amountOut",
							"type": "uint256"
						}
					],
					"name": "TokensSwapped",
					"type": "event"
				},
				{
					"anonymous": false,
					"inputs": [
						{
							"indexed": true,
							"internalType": "address",
							"name": "from",
							"type": "address"
						},
						{
							"indexed": true,
							"internalType": "address",
							"name": "to",
							"type": "address"
						},
						{
							"indexed": false,
							"internalType": "uint256",
							"name": "value",
							"type": "uint256"
						}
					],
					"name": "Transfer",
					"type": "event"
				},
				{
					"inputs": [
						{
							"internalType": "uint256",
							"name": "amountA",
							"type": "uint256"
						},
						{
							"internalType": "uint256",
							"name": "amountB",
							"type": "uint256"
						}
					],
					"name": "addLiquidity",
					"outputs": [],
					"stateMutability": "nonpayable",
					"type": "function"
				},
				{
					"inputs": [
						{
							"internalType": "address",
							"name": "owner",
							"type": "address"
						},
						{
							"internalType": "address",
							"name": "spender",
							"type": "address"
						}
					],
					"name": "allowance",
					"outputs": [
						{
							"internalType": "uint256",
							"name": "",
							"type": "uint256"
						}
					],
					"stateMutability": "view",
					"type": "function"
				},
				{
					"inputs": [
						{
							"internalType": "address",
							"name": "spender",
							"type": "address"
						},
						{
							"internalType": "uint256",
							"name": "value",
							"type": "uint256"
						}
					],
					"name": "approve",
					"outputs": [
						{
							"internalType": "bool",
							"name": "",
							"type": "bool"
						}
					],
					"stateMutability": "nonpayable",
					"type": "function"
				},
				{
					"inputs": [
						{
							"internalType": "address",
							"name": "account",
							"type": "address"
						}
					],
					"name": "balanceOf",
					"outputs": [
						{
							"internalType": "uint256",
							"name": "",
							"type": "uint256"
						}
					],
					"stateMutability": "view",
					"type": "function"
				},
				{
					"inputs": [],
					"name": "decimals",
					"outputs": [
						{
							"internalType": "uint8",
							"name": "",
							"type": "uint8"
						}
					],
					"stateMutability": "view",
					"type": "function"
				},
				{
					"inputs": [],
					"name": "getReserves",
					"outputs": [
						{
							"internalType": "uint256",
							"name": "",
							"type": "uint256"
						},
						{
							"internalType": "uint256",
							"name": "",
							"type": "uint256"
						}
					],
					"stateMutability": "view",
					"type": "function"
				},
				{
					"inputs": [],
					"name": "name",
					"outputs": [
						{
							"internalType": "string",
							"name": "",
							"type": "string"
						}
					],
					"stateMutability": "view",
					"type": "function"
				},
				{
					"inputs": [],
					"name": "owner",
					"outputs": [
						{
							"internalType": "address",
							"name": "",
							"type": "address"
						}
					],
					"stateMutability": "view",
					"type": "function"
				},
				{
					"inputs": [
						{
							"internalType": "uint256",
							"name": "liquidityToRemove",
							"type": "uint256"
						}
					],
					"name": "removeLiquidity",
					"outputs": [
						{
							"internalType": "uint256",
							"name": "amountAOut",
							"type": "uint256"
						},
						{
							"internalType": "uint256",
							"name": "amountBOut",
							"type": "uint256"
						}
					],
					"stateMutability": "nonpayable",
					"type": "function"
				},
				{
					"inputs": [],
					"name": "reserveA",
					"outputs": [
						{
							"internalType": "uint256",
							"name": "",
							"type": "uint256"
						}
					],
					"stateMutability": "view",
					"type": "function"
				},
				{
					"inputs": [],
					"name": "reserveB",
					"outputs": [
						{
							"internalType": "uint256",
							"name": "",
							"type": "uint256"
						}
					],
					"stateMutability": "view",
					"type": "function"
				},
				{
					"inputs": [
						{
							"internalType": "uint256",
							"name": "amountAIn",
							"type": "uint256"
						},
						{
							"internalType": "uint256",
							"name": "minBOut",
							"type": "uint256"
						}
					],
					"name": "swapAforB",
					"outputs": [],
					"stateMutability": "nonpayable",
					"type": "function"
				},
				{
					"inputs": [
						{
							"internalType": "uint256",
							"name": "amountBIn",
							"type": "uint256"
						},
						{
							"internalType": "uint256",
							"name": "minAOut",
							"type": "uint256"
						}
					],
					"name": "swapBforA",
					"outputs": [],
					"stateMutability": "nonpayable",
					"type": "function"
				},
				{
					"inputs": [],
					"name": "symbol",
					"outputs": [
						{
							"internalType": "string",
							"name": "",
							"type": "string"
						}
					],
					"stateMutability": "view",
					"type": "function"
				},
				{
					"inputs": [],
					"name": "tokenA",
					"outputs": [
						{
							"internalType": "contract IERC20",
							"name": "",
							"type": "address"
						}
					],
					"stateMutability": "view",
					"type": "function"
				},
				{
					"inputs": [],
					"name": "tokenB",
					"outputs": [
						{
							"internalType": "contract IERC20",
							"name": "",
							"type": "address"
						}
					],
					"stateMutability": "view",
					"type": "function"
				},
				{
					"inputs": [],
					"name": "totalSupply",
					"outputs": [
						{
							"internalType": "uint256",
							"name": "",
							"type": "uint256"
						}
					],
					"stateMutability": "view",
					"type": "function"
				},
				{
					"inputs": [
						{
							"internalType": "address",
							"name": "to",
							"type": "address"
						},
						{
							"internalType": "uint256",
							"name": "value",
							"type": "uint256"
						}
					],
					"name": "transfer",
					"outputs": [
						{
							"internalType": "bool",
							"name": "",
							"type": "bool"
						}
					],
					"stateMutability": "nonpayable",
					"type": "function"
				},
				{
					"inputs": [
						{
							"internalType": "address",
							"name": "from",
							"type": "address"
						},
						{
							"internalType": "address",
							"name": "to",
							"type": "address"
						},
						{
							"internalType": "uint256",
							"name": "value",
							"type": "uint256"
						}
					],
					"name": "transferFrom",
					"outputs": [
						{
							"internalType": "bool",
							"name": "",
							"type": "bool"
						}
					],
					"stateMutability": "nonpayable",
					"type": "function"
				}
			],
			"devdoc": {
				"errors": {
					"ERC20InsufficientAllowance(address,uint256,uint256)": [
						{
							"details": "Indicates a failure with the `spender`’s `allowance`. Used in transfers.",
							"params": {
								"allowance": "Amount of tokens a `spender` is allowed to operate with.",
								"needed": "Minimum amount required to perform a transfer.",
								"spender": "Address that may be allowed to operate on tokens without being their owner."
							}
						}
					],
					"ERC20InsufficientBalance(address,uint256,uint256)": [
						{
							"details": "Indicates an error related to the current `balance` of a `sender`. Used in transfers.",
							"params": {
								"balance": "Current balance for the interacting account.",
								"needed": "Minimum amount required to perform a transfer.",
								"sender": "Address whose tokens are being transferred."
							}
						}
					],
					"ERC20InvalidApprover(address)": [
						{
							"details": "Indicates a failure with the `approver` of a token to be approved. Used in approvals.",
							"params": {
								"approver": "Address initiating an approval operation."
							}
						}
					],
					"ERC20InvalidReceiver(address)": [
						{
							"details": "Indicates a failure with the token `receiver`. Used in transfers.",
							"params": {
								"receiver": "Address to which tokens are being transferred."
							}
						}
					],
					"ERC20InvalidSender(address)": [
						{
							"details": "Indicates a failure with the token `sender`. Used in transfers.",
							"params": {
								"sender": "Address whose tokens are being transferred."
							}
						}
					],
					"ERC20InvalidSpender(address)": [
						{
							"details": "Indicates a failure with the `spender` to be approved. Used in approvals.",
							"params": {
								"spender": "Address that may be allowed to operate on tokens without being their owner."
							}
						}
					]
				},
				"events": {
					"Approval(address,address,uint256)": {
						"details": "Emitted when the allowance of a `spender` for an `owner` is set by a call to {approve}. `value` is the new allowance."
					},
					"Transfer(address,address,uint256)": {
						"details": "Emitted when `value` tokens are moved from one account (`from`) to another (`to`). Note that `value` may be zero."
					}
				},
				"kind": "dev",
				"methods": {
					"allowance(address,address)": {
						"details": "Returns the remaining number of tokens that `spender` will be allowed to spend on behalf of `owner` through {transferFrom}. This is zero by default. This value changes when {approve} or {transferFrom} are called."
					},
					"approve(address,uint256)": {
						"details": "See {IERC20-approve}. NOTE: If `value` is the maximum `uint256`, the allowance is not updated on `transferFrom`. This is semantically equivalent to an infinite approval. Requirements: - `spender` cannot be the zero address."
					},
					"balanceOf(address)": {
						"details": "Returns the value of tokens owned by `account`."
					},
					"decimals()": {
						"details": "Returns the number of decimals used to get its user representation. For example, if `decimals` equals `2`, a balance of `505` tokens should be displayed to a user as `5.05` (`505 / 10 ** 2`). Tokens usually opt for a value of 18, imitating the relationship between Ether and Wei. This is the default value returned by this function, unless it's overridden. NOTE: This information is only used for _display_ purposes: it in no way affects any of the arithmetic of the contract, including {IERC20-balanceOf} and {IERC20-transfer}."
					},
					"name()": {
						"details": "Returns the name of the token."
					},
					"symbol()": {
						"details": "Returns the symbol of the token, usually a shorter version of the name."
					},
					"totalSupply()": {
						"details": "Returns the value of tokens in existence."
					},
					"transfer(address,uint256)": {
						"details": "See {IERC20-transfer}. Requirements: - `to` cannot be the zero address. - the caller must have a balance of at least `value`."
					},
					"transferFrom(address,address,uint256)": {
						"details": "See {IERC20-transferFrom}. Skips emitting an {Approval} event indicating an allowance update. This is not required by the ERC. See {xref-ERC20-_approve-address-address-uint256-bool-}[_approve]. NOTE: Does not update the allowance if the current allowance is the maximum `uint256`. Requirements: - `from` and `to` cannot be the zero address. - `from` must have a balance of at least `value`. - the caller must have allowance for ``from``'s tokens of at least `value`."
					}
				},
				"title": "Automated Market Maker with Liquidity Token",
				"version": 1
			},
			"evm": {
				"assembly": "    /* \"submissions/Zora/Day25AutomatedMarketMaker.sol\":198:5857  contract AutomatedMarketMaker is ERC20 {... */\n  mstore(0x40, 0x80)\n    /* \"submissions/Zora/Day25AutomatedMarketMaker.sol\":1158:1377  constructor(address _tokenA, address _tokenB, string memory _name, string memory _symbol) ERC20(_name, _symbol) {... */\n  callvalue\n  dup1\n  iszero\n  tag_1\n  jumpi\n  revert(0x00, 0x00)\ntag_1:\n  pop\n  mload(0x40)\n  sub(codesize, bytecodeSize)\n  dup1\n  bytecodeSize\n  dup4\n  codecopy\n  dup2\n  dup2\n  add\n  0x40\n  mstore\n  dup2\n  add\n  swap1\n  tag_2\n  swap2\n  swap1\n  tag_3\n  jump\t// in\ntag_2:\n    /* \"submissions/Zora/Day25AutomatedMarketMaker.sol\":1254:1259  _name */\n  dup2\n    /* \"submissions/Zora/Day25AutomatedMarketMaker.sol\":1261:1268  _symbol */\n  dup2\n    /* \"@openzeppelin/contracts/token/ERC20/ERC20.sol\":1656:1661  name_ */\n  dup2\n    /* \"@openzeppelin/contracts/token/ERC20/ERC20.sol\":1648:1653  _name */\n  0x03\n    /* \"@openzeppelin/contracts/token/ERC20/ERC20.sol\":1648:1661  _name = name_ */\n  swap1\n  dup2\n  tag_7\n  swap2\n  swap1\n  tag_8\n  jump\t// in\ntag_7:\n  pop\n    /* \"@openzeppelin/contracts/token/ERC20/ERC20.sol\":1681:1688  symbol_ */\n  dup1\n    /* \"@openzeppelin/contracts/token/ERC20/ERC20.sol\":1671:1678  _symbol */\n  0x04\n    /* \"@openzeppelin/contracts/token/ERC20/ERC20.sol\":1671:1688  _symbol = symbol_ */\n  swap1\n  dup2\n  tag_9\n  swap2\n  swap1\n  tag_8\n  jump\t// in\ntag_9:\n  pop\n    /* \"@openzeppelin/contracts/token/ERC20/ERC20.sol\":1582:1695  constructor(string memory name_, string memory symbol_) {... */\n  pop\n  pop\n    /* \"submissions/Zora/Day25AutomatedMarketMaker.sol\":1297:1304  _tokenA */\n  dup4\n    /* \"submissions/Zora/Day25AutomatedMarketMaker.sol\":1281:1287  tokenA */\n  0x05\n  0x00\n    /* \"submissions/Zora/Day25AutomatedMarketMaker.sol\":1281:1305  tokenA = IERC20(_tokenA) */\n  0x0100\n  exp\n  dup2\n  sload\n  dup2\n  0xffffffffffffffffffffffffffffffffffffffff\n  mul\n  not\n  and\n  swap1\n  dup4\n  0xffffffffffffffffffffffffffffffffffffffff\n  and\n  mul\n  or\n  swap1\n  sstore\n  pop\n    /* \"submissions/Zora/Day25AutomatedMarketMaker.sol\":1332:1339  _tokenB */\n  dup3\n    /* \"submissions/Zora/Day25AutomatedMarketMaker.sol\":1316:1322  tokenB */\n  0x06\n  0x00\n    /* \"submissions/Zora/Day25AutomatedMarketMaker.sol\":1316:1340  tokenB = IERC20(_tokenB) */\n  0x0100\n  exp\n  dup2\n  sload\n  dup2\n  0xffffffffffffffffffffffffffffffffffffffff\n  mul\n  not\n  and\n  swap1\n  dup4\n  0xffffffffffffffffffffffffffffffffffffffff\n  and\n  mul\n  or\n  swap1\n  sstore\n  pop\n    /* \"submissions/Zora/Day25AutomatedMarketMaker.sol\":1359:1369  msg.sender */\n  caller\n    /* \"submissions/Zora/Day25AutomatedMarketMaker.sol\":1351:1356  owner */\n  0x09\n  0x00\n    /* \"submissions/Zora/Day25AutomatedMarketMaker.sol\":1351:1369  owner = msg.sender */\n  0x0100\n  exp\n  dup2\n  sload\n  dup2\n  0xffffffffffffffffffffffffffffffffffffffff\n  mul\n  not\n  and\n  swap1\n  dup4\n  0xffffffffffffffffffffffffffffffffffffffff\n  and\n  mul\n  or\n  swap1\n  sstore\n  pop\n    /* \"submissions/Zora/Day25AutomatedMarketMaker.sol\":1158:1377  constructor(address _tokenA, address _tokenB, string memory _name, string memory _symbol) ERC20(_name, _symbol) {... */\n  pop\n  pop\n  pop\n  pop\n    /* \"submissions/Zora/Day25AutomatedMarketMaker.sol\":198:5857  contract AutomatedMarketMaker is ERC20 {... */\n  jump(tag_11)\n    /* \"#utility.yul\":7:82   */\ntag_12:\n    /* \"#utility.yul\":40:46   */\n  0x00\n    /* \"#utility.yul\":73:75   */\n  0x40\n    /* \"#utility.yul\":67:76   */\n  mload\n    /* \"#utility.yul\":57:76   */\n  swap1\n  pop\n    /* \"#utility.yul\":7:82   */\n  swap1\n  jump\t// out\n    /* \"#utility.yul\":88:205   */\ntag_13:\n    /* \"#utility.yul\":197:198   */\n  0x00\n    /* \"#utility.yul\":194:195   */\n  0x00\n    /* \"#utility.yul\":187:199   */\n  revert\n    /* \"#utility.yul\":211:328   */\ntag_14:\n    /* \"#utility.yul\":320:321   */\n  0x00\n    /* \"#utility.yul\":317:318   */\n  0x00\n    /* \"#utility.yul\":310:322   */\n  revert\n    /* \"#utility.yul\":334:460   */\ntag_15:\n    /* \"#utility.yul\":371:378   */\n  0x00\n    /* \"#utility.yul\":411:453   */\n  0xffffffffffffffffffffffffffffffffffffffff\n    /* \"#utility.yul\":404:409   */\n  dup3\n    /* \"#utility.yul\":400:454   */\n  and\n    /* \"#utility.yul\":389:454   */\n  swap1\n  pop\n    /* \"#utility.yul\":334:460   */\n  swap2\n  swap1\n  pop\n  jump\t// out\n    /* \"#utility.yul\":466:562   */\ntag_16:\n    /* \"#utility.yul\":503:510   */\n  0x00\n    /* \"#utility.yul\":532:556   */\n  tag_54\n    /* \"#utility.yul\":550:555   */\n  dup3\n    /* \"#utility.yul\":532:556   */\n  tag_15\n  jump\t// in\ntag_54:\n    /* \"#utility.yul\":521:556   */\n  swap1\n  pop\n    /* \"#utility.yul\":466:562   */\n  swap2\n  swap1\n  pop\n  jump\t// out\n    /* \"#utility.yul\":568:690   */\ntag_17:\n    /* \"#utility.yul\":641:665   */\n  tag_56\n    /* \"#utility.yul\":659:664   */\n  dup2\n    /* \"#utility.yul\":641:665   */\n  tag_16\n  jump\t// in\ntag_56:\n    /* \"#utility.yul\":634:639   */\n  dup2\n    /* \"#utility.yul\":631:666   */\n  eq\n    /* \"#utility.yul\":621:684   */\n  tag_57\n  jumpi\n    /* \"#utility.yul\":680:681   */\n  0x00\n    /* \"#utility.yul\":677:678   */\n  0x00\n    /* \"#utility.yul\":670:682   */\n  revert\n    /* \"#utility.yul\":621:684   */\ntag_57:\n    /* \"#utility.yul\":568:690   */\n  pop\n  jump\t// out\n    /* \"#utility.yul\":696:839   */\ntag_18:\n    /* \"#utility.yul\":753:758   */\n  0x00\n    /* \"#utility.yul\":784:790   */\n  dup2\n    /* \"#utility.yul\":778:791   */\n  mload\n    /* \"#utility.yul\":769:791   */\n  swap1\n  pop\n    /* \"#utility.yul\":800:833   */\n  tag_59\n    /* \"#utility.yul\":827:832   */\n  dup2\n    /* \"#utility.yul\":800:833   */\n  tag_17\n  jump\t// in\ntag_59:\n    /* \"#utility.yul\":696:839   */\n  swap3\n  swap2\n  pop\n  pop\n  jump\t// out\n    /* \"#utility.yul\":845:962   */\ntag_19:\n    /* \"#utility.yul\":954:955   */\n  0x00\n    /* \"#utility.yul\":951:952   */\n  0x00\n    /* \"#utility.yul\":944:956   */\n  revert\n    /* \"#utility.yul\":968:1085   */\ntag_20:\n    /* \"#utility.yul\":1077:1078   */\n  0x00\n    /* \"#utility.yul\":1074:1075   */\n  0x00\n    /* \"#utility.yul\":1067:1079   */\n  revert\n    /* \"#utility.yul\":1091:1193   */\ntag_21:\n    /* \"#utility.yul\":1132:1138   */\n  0x00\n    /* \"#utility.yul\":1183:1185   */\n  0x1f\n    /* \"#utility.yul\":1179:1186   */\n  not\n    /* \"#utility.yul\":1174:1176   */\n  0x1f\n    /* \"#utility.yul\":1167:1172   */\n  dup4\n    /* \"#utility.yul\":1163:1177   */\n  add\n    /* \"#utility.yul\":1159:1187   */\n  and\n    /* \"#utility.yul\":1149:1187   */\n  swap1\n  pop\n    /* \"#utility.yul\":1091:1193   */\n  swap2\n  swap1\n  pop\n  jump\t// out\n    /* \"#utility.yul\":1199:1379   */\ntag_22:\n    /* \"#utility.yul\":1247:1324   */\n  0x4e487b7100000000000000000000000000000000000000000000000000000000\n    /* \"#utility.yul\":1244:1245   */\n  0x00\n    /* \"#utility.yul\":1237:1325   */\n  mstore\n    /* \"#utility.yul\":1344:1348   */\n  0x41\n    /* \"#utility.yul\":1341:1342   */\n  0x04\n    /* \"#utility.yul\":1334:1349   */\n  mstore\n    /* \"#utility.yul\":1368:1372   */\n  0x24\n    /* \"#utility.yul\":1365:1366   */\n  0x00\n    /* \"#utility.yul\":1358:1373   */\n  revert\n    /* \"#utility.yul\":1385:1666   */\ntag_23:\n    /* \"#utility.yul\":1468:1495   */\n  tag_65\n    /* \"#utility.yul\":1490:1494   */\n  dup3\n    /* \"#utility.yul\":1468:1495   */\n  tag_21\n  jump\t// in\ntag_65:\n    /* \"#utility.yul\":1460:1466   */\n  dup2\n    /* \"#utility.yul\":1456:1496   */\n  add\n    /* \"#utility.yul\":1598:1604   */\n  dup2\n    /* \"#utility.yul\":1586:1596   */\n  dup2\n    /* \"#utility.yul\":1583:1605   */\n  lt\n    /* \"#utility.yul\":1562:1580   */\n  0xffffffffffffffff\n    /* \"#utility.yul\":1550:1560   */\n  dup3\n    /* \"#utility.yul\":1547:1581   */\n  gt\n    /* \"#utility.yul\":1544:1606   */\n  or\n    /* \"#utility.yul\":1541:1629   */\n  iszero\n  tag_66\n  jumpi\n    /* \"#utility.yul\":1609:1627   */\n  tag_67\n  tag_22\n  jump\t// in\ntag_67:\n    /* \"#utility.yul\":1541:1629   */\ntag_66:\n    /* \"#utility.yul\":1649:1659   */\n  dup1\n    /* \"#utility.yul\":1645:1647   */\n  0x40\n    /* \"#utility.yul\":1638:1660   */\n  mstore\n    /* \"#utility.yul\":1428:1666   */\n  pop\n    /* \"#utility.yul\":1385:1666   */\n  pop\n  pop\n  jump\t// out\n    /* \"#utility.yul\":1672:1801   */\ntag_24:\n    /* \"#utility.yul\":1706:1712   */\n  0x00\n    /* \"#utility.yul\":1733:1753   */\n  tag_69\n  tag_12\n  jump\t// in\ntag_69:\n    /* \"#utility.yul\":1723:1753   */\n  swap1\n  pop\n    /* \"#utility.yul\":1762:1795   */\n  tag_70\n    /* \"#utility.yul\":1790:1794   */\n  dup3\n    /* \"#utility.yul\":1782:1788   */\n  dup3\n    /* \"#utility.yul\":1762:1795   */\n  tag_23\n  jump\t// in\ntag_70:\n    /* \"#utility.yul\":1672:1801   */\n  swap2\n  swap1\n  pop\n  jump\t// out\n    /* \"#utility.yul\":1807:2115   */\ntag_25:\n    /* \"#utility.yul\":1869:1873   */\n  0x00\n    /* \"#utility.yul\":1959:1977   */\n  0xffffffffffffffff\n    /* \"#utility.yul\":1951:1957   */\n  dup3\n    /* \"#utility.yul\":1948:1978   */\n  gt\n    /* \"#utility.yul\":1945:2001   */\n  iszero\n  tag_72\n  jumpi\n    /* \"#utility.yul\":1981:1999   */\n  tag_73\n  tag_22\n  jump\t// in\ntag_73:\n    /* \"#utility.yul\":1945:2001   */\ntag_72:\n    /* \"#utility.yul\":2019:2048   */\n  tag_74\n    /* \"#utility.yul\":2041:2047   */\n  dup3\n    /* \"#utility.yul\":2019:2048   */\n  tag_21\n  jump\t// in\ntag_74:\n    /* \"#utility.yul\":2011:2048   */\n  swap1\n  pop\n    /* \"#utility.yul\":2103:2107   */\n  0x20\n    /* \"#utility.yul\":2097:2101   */\n  dup2\n    /* \"#utility.yul\":2093:2108   */\n  add\n    /* \"#utility.yul\":2085:2108   */\n  swap1\n  pop\n    /* \"#utility.yul\":1807:2115   */\n  swap2\n  swap1\n  pop\n  jump\t// out\n    /* \"#utility.yul\":2121:2260   */\ntag_26:\n    /* \"#utility.yul\":2210:2216   */\n  dup3\n    /* \"#utility.yul\":2205:2208   */\n  dup2\n    /* \"#utility.yul\":2200:2203   */\n  dup4\n    /* \"#utility.yul\":2194:2217   */\n  mcopy\n    /* \"#utility.yul\":2251:2252   */\n  0x00\n    /* \"#utility.yul\":2242:2248   */\n  dup4\n    /* \"#utility.yul\":2237:2240   */\n  dup4\n    /* \"#utility.yul\":2233:2249   */\n  add\n    /* \"#utility.yul\":2226:2253   */\n  mstore\n    /* \"#utility.yul\":2121:2260   */\n  pop\n  pop\n  pop\n  jump\t// out\n    /* \"#utility.yul\":2266:2700   */\ntag_27:\n    /* \"#utility.yul\":2355:2360   */\n  0x00\n    /* \"#utility.yul\":2380:2446   */\n  tag_77\n    /* \"#utility.yul\":2396:2445   */\n  tag_78\n    /* \"#utility.yul\":2438:2444   */\n  dup5\n    /* \"#utility.yul\":2396:2445   */\n  tag_25\n  jump\t// in\ntag_78:\n    /* \"#utility.yul\":2380:2446   */\n  tag_24\n  jump\t// in\ntag_77:\n    /* \"#utility.yul\":2371:2446   */\n  swap1\n  pop\n    /* \"#utility.yul\":2469:2475   */\n  dup3\n    /* \"#utility.yul\":2462:2467   */\n  dup2\n    /* \"#utility.yul\":2455:2476   */\n  mstore\n    /* \"#utility.yul\":2507:2511   */\n  0x20\n    /* \"#utility.yul\":2500:2505   */\n  dup2\n    /* \"#utility.yul\":2496:2512   */\n  add\n    /* \"#utility.yul\":2545:2548   */\n  dup5\n    /* \"#utility.yul\":2536:2542   */\n  dup5\n    /* \"#utility.yul\":2531:2534   */\n  dup5\n    /* \"#utility.yul\":2527:2543   */\n  add\n    /* \"#utility.yul\":2524:2549   */\n  gt\n    /* \"#utility.yul\":2521:2633   */\n  iszero\n  tag_79\n  jumpi\n    /* \"#utility.yul\":2552:2631   */\n  tag_80\n  tag_20\n  jump\t// in\ntag_80:\n    /* \"#utility.yul\":2521:2633   */\ntag_79:\n    /* \"#utility.yul\":2642:2694   */\n  tag_81\n    /* \"#utility.yul\":2687:2693   */\n  dup5\n    /* \"#utility.yul\":2682:2685   */\n  dup3\n    /* \"#utility.yul\":2677:2680   */\n  dup6\n    /* \"#utility.yul\":2642:2694   */\n  tag_26\n  jump\t// in\ntag_81:\n    /* \"#utility.yul\":2361:2700   */\n  pop\n    /* \"#utility.yul\":2266:2700   */\n  swap4\n  swap3\n  pop\n  pop\n  pop\n  jump\t// out\n    /* \"#utility.yul\":2720:3075   */\ntag_28:\n    /* \"#utility.yul\":2787:2792   */\n  0x00\n    /* \"#utility.yul\":2836:2839   */\n  dup3\n    /* \"#utility.yul\":2829:2833   */\n  0x1f\n    /* \"#utility.yul\":2821:2827   */\n  dup4\n    /* \"#utility.yul\":2817:2834   */\n  add\n    /* \"#utility.yul\":2813:2840   */\n  slt\n    /* \"#utility.yul\":2803:2925   */\n  tag_83\n  jumpi\n    /* \"#utility.yul\":2844:2923   */\n  tag_84\n  tag_19\n  jump\t// in\ntag_84:\n    /* \"#utility.yul\":2803:2925   */\ntag_83:\n    /* \"#utility.yul\":2954:2960   */\n  dup2\n    /* \"#utility.yul\":2948:2961   */\n  mload\n    /* \"#utility.yul\":2979:3069   */\n  tag_85\n    /* \"#utility.yul\":3065:3068   */\n  dup5\n    /* \"#utility.yul\":3057:3063   */\n  dup3\n    /* \"#utility.yul\":3050:3054   */\n  0x20\n    /* \"#utility.yul\":3042:3048   */\n  dup7\n    /* \"#utility.yul\":3038:3055   */\n  add\n    /* \"#utility.yul\":2979:3069   */\n  tag_27\n  jump\t// in\ntag_85:\n    /* \"#utility.yul\":2970:3069   */\n  swap2\n  pop\n    /* \"#utility.yul\":2793:3075   */\n  pop\n    /* \"#utility.yul\":2720:3075   */\n  swap3\n  swap2\n  pop\n  pop\n  jump\t// out\n    /* \"#utility.yul\":3081:4247   */\ntag_3:\n    /* \"#utility.yul\":3198:3204   */\n  0x00\n    /* \"#utility.yul\":3206:3212   */\n  0x00\n    /* \"#utility.yul\":3214:3220   */\n  0x00\n    /* \"#utility.yul\":3222:3228   */\n  0x00\n    /* \"#utility.yul\":3271:3274   */\n  0x80\n    /* \"#utility.yul\":3259:3268   */\n  dup6\n    /* \"#utility.yul\":3250:3257   */\n  dup8\n    /* \"#utility.yul\":3246:3269   */\n  sub\n    /* \"#utility.yul\":3242:3275   */\n  slt\n    /* \"#utility.yul\":3239:3359   */\n  iszero\n  tag_87\n  jumpi\n    /* \"#utility.yul\":3278:3357   */\n  tag_88\n  tag_13\n  jump\t// in\ntag_88:\n    /* \"#utility.yul\":3239:3359   */\ntag_87:\n    /* \"#utility.yul\":3398:3399   */\n  0x00\n    /* \"#utility.yul\":3423:3487   */\n  tag_89\n    /* \"#utility.yul\":3479:3486   */\n  dup8\n    /* \"#utility.yul\":3470:3476   */\n  dup3\n    /* \"#utility.yul\":3459:3468   */\n  dup9\n    /* \"#utility.yul\":3455:3477   */\n  add\n    /* \"#utility.yul\":3423:3487   */\n  tag_18\n  jump\t// in\ntag_89:\n    /* \"#utility.yul\":3413:3487   */\n  swap5\n  pop\n    /* \"#utility.yul\":3369:3497   */\n  pop\n    /* \"#utility.yul\":3536:3538   */\n  0x20\n    /* \"#utility.yul\":3562:3626   */\n  tag_90\n    /* \"#utility.yul\":3618:3625   */\n  dup8\n    /* \"#utility.yul\":3609:3615   */\n  dup3\n    /* \"#utility.yul\":3598:3607   */\n  dup9\n    /* \"#utility.yul\":3594:3616   */\n  add\n    /* \"#utility.yul\":3562:3626   */\n  tag_18\n  jump\t// in\ntag_90:\n    /* \"#utility.yul\":3552:3626   */\n  swap4\n  pop\n    /* \"#utility.yul\":3507:3636   */\n  pop\n    /* \"#utility.yul\":3696:3698   */\n  0x40\n    /* \"#utility.yul\":3685:3694   */\n  dup6\n    /* \"#utility.yul\":3681:3699   */\n  add\n    /* \"#utility.yul\":3675:3700   */\n  mload\n    /* \"#utility.yul\":3727:3745   */\n  0xffffffffffffffff\n    /* \"#utility.yul\":3719:3725   */\n  dup2\n    /* \"#utility.yul\":3716:3746   */\n  gt\n    /* \"#utility.yul\":3713:3830   */\n  iszero\n  tag_91\n  jumpi\n    /* \"#utility.yul\":3749:3828   */\n  tag_92\n  tag_14\n  jump\t// in\ntag_92:\n    /* \"#utility.yul\":3713:3830   */\ntag_91:\n    /* \"#utility.yul\":3854:3928   */\n  tag_93\n    /* \"#utility.yul\":3920:3927   */\n  dup8\n    /* \"#utility.yul\":3911:3917   */\n  dup3\n    /* \"#utility.yul\":3900:3909   */\n  dup9\n    /* \"#utility.yul\":3896:3918   */\n  add\n    /* \"#utility.yul\":3854:3928   */\n  tag_28\n  jump\t// in\ntag_93:\n    /* \"#utility.yul\":3844:3928   */\n  swap3\n  pop\n    /* \"#utility.yul\":3646:3938   */\n  pop\n    /* \"#utility.yul\":3998:4000   */\n  0x60\n    /* \"#utility.yul\":3987:3996   */\n  dup6\n    /* \"#utility.yul\":3983:4001   */\n  add\n    /* \"#utility.yul\":3977:4002   */\n  mload\n    /* \"#utility.yul\":4029:4047   */\n  0xffffffffffffffff\n    /* \"#utility.yul\":4021:4027   */\n  dup2\n    /* \"#utility.yul\":4018:4048   */\n  gt\n    /* \"#utility.yul\":4015:4132   */\n  iszero\n  tag_94\n  jumpi\n    /* \"#utility.yul\":4051:4130   */\n  tag_95\n  tag_14\n  jump\t// in\ntag_95:\n    /* \"#utility.yul\":4015:4132   */\ntag_94:\n    /* \"#utility.yul\":4156:4230   */\n  tag_96\n    /* \"#utility.yul\":4222:4229   */\n  dup8\n    /* \"#utility.yul\":4213:4219   */\n  dup3\n    /* \"#utility.yul\":4202:4211   */\n  dup9\n    /* \"#utility.yul\":4198:4220   */\n  add\n    /* \"#utility.yul\":4156:4230   */\n  tag_28\n  jump\t// in\ntag_96:\n    /* \"#utility.yul\":4146:4230   */\n  swap2\n  pop\n    /* \"#utility.yul\":3948:4240   */\n  pop\n    /* \"#utility.yul\":3081:4247   */\n  swap3\n  swap6\n  swap2\n  swap5\n  pop\n  swap3\n  pop\n  jump\t// out\n    /* \"#utility.yul\":4253:4352   */\ntag_29:\n    /* \"#utility.yul\":4305:4311   */\n  0x00\n    /* \"#utility.yul\":4339:4344   */\n  dup2\n    /* \"#utility.yul\":4333:4345   */\n  mload\n    /* \"#utility.yul\":4323:4345   */\n  swap1\n  pop\n    /* \"#utility.yul\":4253:4352   */\n  swap2\n  swap1\n  pop\n  jump\t// out\n    /* \"#utility.yul\":4358:4538   */\ntag_30:\n    /* \"#utility.yul\":4406:4483   */\n  0x4e487b7100000000000000000000000000000000000000000000000000000000\n    /* \"#utility.yul\":4403:4404   */\n  0x00\n    /* \"#utility.yul\":4396:4484   */\n  mstore\n    /* \"#utility.yul\":4503:4507   */\n  0x22\n    /* \"#utility.yul\":4500:4501   */\n  0x04\n    /* \"#utility.yul\":4493:4508   */\n  mstore\n    /* \"#utility.yul\":4527:4531   */\n  0x24\n    /* \"#utility.yul\":4524:4525   */\n  0x00\n    /* \"#utility.yul\":4517:4532   */\n  revert\n    /* \"#utility.yul\":4544:4864   */\ntag_31:\n    /* \"#utility.yul\":4588:4594   */\n  0x00\n    /* \"#utility.yul\":4625:4626   */\n  0x02\n    /* \"#utility.yul\":4619:4623   */\n  dup3\n    /* \"#utility.yul\":4615:4627   */\n  div\n    /* \"#utility.yul\":4605:4627   */\n  swap1\n  pop\n    /* \"#utility.yul\":4672:4673   */\n  0x01\n    /* \"#utility.yul\":4666:4670   */\n  dup3\n    /* \"#utility.yul\":4662:4674   */\n  and\n    /* \"#utility.yul\":4693:4711   */\n  dup1\n    /* \"#utility.yul\":4683:4764   */\n  tag_100\n  jumpi\n    /* \"#utility.yul\":4749:4753   */\n  0x7f\n    /* \"#utility.yul\":4741:4747   */\n  dup3\n    /* \"#utility.yul\":4737:4754   */\n  and\n    /* \"#utility.yul\":4727:4754   */\n  swap2\n  pop\n    /* \"#utility.yul\":4683:4764   */\ntag_100:\n    /* \"#utility.yul\":4811:4813   */\n  0x20\n    /* \"#utility.yul\":4803:4809   */\n  dup3\n    /* \"#utility.yul\":4800:4814   */\n  lt\n    /* \"#utility.yul\":4780:4798   */\n  dup2\n    /* \"#utility.yul\":4777:4815   */\n  sub\n    /* \"#utility.yul\":4774:4858   */\n  tag_101\n  jumpi\n    /* \"#utility.yul\":4830:4848   */\n  tag_102\n  tag_30\n  jump\t// in\ntag_102:\n    /* \"#utility.yul\":4774:4858   */\ntag_101:\n    /* \"#utility.yul\":4595:4864   */\n  pop\n    /* \"#utility.yul\":4544:4864   */\n  swap2\n  swap1\n  pop\n  jump\t// out\n    /* \"#utility.yul\":4870:5011   */\ntag_32:\n    /* \"#utility.yul\":4919:4923   */\n  0x00\n    /* \"#utility.yul\":4942:4945   */\n  dup2\n    /* \"#utility.yul\":4934:4945   */\n  swap1\n  pop\n    /* \"#utility.yul\":4965:4968   */\n  dup2\n    /* \"#utility.yul\":4962:4963   */\n  0x00\n    /* \"#utility.yul\":4955:4969   */\n  mstore\n    /* \"#utility.yul\":4999:5003   */\n  0x20\n    /* \"#utility.yul\":4996:4997   */\n  0x00\n    /* \"#utility.yul\":4986:5004   */\n  keccak256\n    /* \"#utility.yul\":4978:5004   */\n  swap1\n  pop\n    /* \"#utility.yul\":4870:5011   */\n  swap2\n  swap1\n  pop\n  jump\t// out\n    /* \"#utility.yul\":5017:5110   */\ntag_33:\n    /* \"#utility.yul\":5054:5060   */\n  0x00\n    /* \"#utility.yul\":5101:5103   */\n  0x20\n    /* \"#utility.yul\":5096:5098   */\n  0x1f\n    /* \"#utility.yul\":5089:5094   */\n  dup4\n    /* \"#utility.yul\":5085:5099   */\n  add\n    /* \"#utility.yul\":5081:5104   */\n  div\n    /* \"#utility.yul\":5071:5104   */\n  swap1\n  pop\n    /* \"#utility.yul\":5017:5110   */\n  swap2\n  swap1\n  pop\n  jump\t// out\n    /* \"#utility.yul\":5116:5223   */\ntag_34:\n    /* \"#utility.yul\":5160:5168   */\n  0x00\n    /* \"#utility.yul\":5210:5215   */\n  dup3\n    /* \"#utility.yul\":5204:5208   */\n  dup3\n    /* \"#utility.yul\":5200:5216   */\n  shl\n    /* \"#utility.yul\":5179:5216   */\n  swap1\n  pop\n    /* \"#utility.yul\":5116:5223   */\n  swap3\n  swap2\n  pop\n  pop\n  jump\t// out\n    /* \"#utility.yul\":5229:5622   */\ntag_35:\n    /* \"#utility.yul\":5298:5304   */\n  0x00\n    /* \"#utility.yul\":5348:5349   */\n  0x08\n    /* \"#utility.yul\":5336:5346   */\n  dup4\n    /* \"#utility.yul\":5332:5350   */\n  mul\n    /* \"#utility.yul\":5371:5468   */\n  tag_107\n    /* \"#utility.yul\":5401:5467   */\n  0xffffffffffffffffffffffffffffffffffffffffffffffffffffffffffffffff\n    /* \"#utility.yul\":5390:5399   */\n  dup3\n    /* \"#utility.yul\":5371:5468   */\n  tag_34\n  jump\t// in\ntag_107:\n    /* \"#utility.yul\":5489:5528   */\n  tag_108\n    /* \"#utility.yul\":5519:5527   */\n  dup7\n    /* \"#utility.yul\":5508:5517   */\n  dup4\n    /* \"#utility.yul\":5489:5528   */\n  tag_34\n  jump\t// in\ntag_108:\n    /* \"#utility.yul\":5477:5528   */\n  swap6\n  pop\n    /* \"#utility.yul\":5561:5565   */\n  dup1\n    /* \"#utility.yul\":5557:5566   */\n  not\n    /* \"#utility.yul\":5550:5555   */\n  dup5\n    /* \"#utility.yul\":5546:5567   */\n  and\n    /* \"#utility.yul\":5537:5567   */\n  swap4\n  pop\n    /* \"#utility.yul\":5610:5614   */\n  dup1\n    /* \"#utility.yul\":5600:5608   */\n  dup7\n    /* \"#utility.yul\":5596:5615   */\n  and\n    /* \"#utility.yul\":5589:5594   */\n  dup5\n    /* \"#utility.yul\":5586:5616   */\n  or\n    /* \"#utility.yul\":5576:5616   */\n  swap3\n  pop\n    /* \"#utility.yul\":5305:5622   */\n  pop\n  pop\n    /* \"#utility.yul\":5229:5622   */\n  swap4\n  swap3\n  pop\n  pop\n  pop\n  jump\t// out\n    /* \"#utility.yul\":5628:5705   */\ntag_36:\n    /* \"#utility.yul\":5665:5672   */\n  0x00\n    /* \"#utility.yul\":5694:5699   */\n  dup2\n    /* \"#utility.yul\":5683:5699   */\n  swap1\n  pop\n    /* \"#utility.yul\":5628:5705   */\n  swap2\n  swap1\n  pop\n  jump\t// out\n    /* \"#utility.yul\":5711:5771   */\ntag_37:\n    /* \"#utility.yul\":5739:5742   */\n  0x00\n    /* \"#utility.yul\":5760:5765   */\n  dup2\n    /* \"#utility.yul\":5753:5765   */\n  swap1\n  pop\n    /* \"#utility.yul\":5711:5771   */\n  swap2\n  swap1\n  pop\n  jump\t// out\n    /* \"#utility.yul\":5777:5919   */\ntag_38:\n    /* \"#utility.yul\":5827:5836   */\n  0x00\n    /* \"#utility.yul\":5860:5913   */\n  tag_112\n    /* \"#utility.yul\":5878:5912   */\n  tag_113\n    /* \"#utility.yul\":5887:5911   */\n  tag_114\n    /* \"#utility.yul\":5905:5910   */\n  dup5\n    /* \"#utility.yul\":5887:5911   */\n  tag_36\n  jump\t// in\ntag_114:\n    /* \"#utility.yul\":5878:5912   */\n  tag_37\n  jump\t// in\ntag_113:\n    /* \"#utility.yul\":5860:5913   */\n  tag_36\n  jump\t// in\ntag_112:\n    /* \"#utility.yul\":5847:5913   */\n  swap1\n  pop\n    /* \"#utility.yul\":5777:5919   */\n  swap2\n  swap1\n  pop\n  jump\t// out\n    /* \"#utility.yul\":5925:6000   */\ntag_39:\n    /* \"#utility.yul\":5968:5971   */\n  0x00\n    /* \"#utility.yul\":5989:5994   */\n  dup2\n    /* \"#utility.yul\":5982:5994   */\n  swap1\n  pop\n    /* \"#utility.yul\":5925:6000   */\n  swap2\n  swap1\n  pop\n  jump\t// out\n    /* \"#utility.yul\":6006:6275   */\ntag_40:\n    /* \"#utility.yul\":6116:6155   */\n  tag_117\n    /* \"#utility.yul\":6147:6154   */\n  dup4\n    /* \"#utility.yul\":6116:6155   */\n  tag_38\n  jump\t// in\ntag_117:\n    /* \"#utility.yul\":6177:6268   */\n  tag_118\n    /* \"#utility.yul\":6226:6267   */\n  tag_119\n    /* \"#utility.yul\":6250:6266   */\n  dup3\n    /* \"#utility.yul\":6226:6267   */\n  tag_39\n  jump\t// in\ntag_119:\n    /* \"#utility.yul\":6218:6224   */\n  dup5\n    /* \"#utility.yul\":6211:6215   */\n  dup5\n    /* \"#utility.yul\":6205:6216   */\n  sload\n    /* \"#utility.yul\":6177:6268   */\n  tag_35\n  jump\t// in\ntag_118:\n    /* \"#utility.yul\":6171:6175   */\n  dup3\n    /* \"#utility.yul\":6164:6269   */\n  sstore\n    /* \"#utility.yul\":6082:6275   */\n  pop\n    /* \"#utility.yul\":6006:6275   */\n  pop\n  pop\n  pop\n  jump\t// out\n    /* \"#utility.yul\":6281:6354   */\ntag_41:\n    /* \"#utility.yul\":6326:6329   */\n  0x00\n    /* \"#utility.yul\":6347:6348   */\n  0x00\n    /* \"#utility.yul\":6340:6348   */\n  swap1\n  pop\n    /* \"#utility.yul\":6281:6354   */\n  swap1\n  jump\t// out\n    /* \"#utility.yul\":6360:6549   */\ntag_42:\n    /* \"#utility.yul\":6437:6469   */\n  tag_122\n  tag_41\n  jump\t// in\ntag_122:\n    /* \"#utility.yul\":6478:6543   */\n  tag_123\n    /* \"#utility.yul\":6536:6542   */\n  dup2\n    /* \"#utility.yul\":6528:6534   */\n  dup5\n    /* \"#utility.yul\":6522:6526   */\n  dup5\n    /* \"#utility.yul\":6478:6543   */\n  tag_40\n  jump\t// in\ntag_123:\n    /* \"#utility.yul\":6413:6549   */\n  pop\n    /* \"#utility.yul\":6360:6549   */\n  pop\n  pop\n  jump\t// out\n    /* \"#utility.yul\":6555:6741   */\ntag_43:\n    /* \"#utility.yul\":6615:6735   */\ntag_125:\n    /* \"#utility.yul\":6632:6635   */\n  dup2\n    /* \"#utility.yul\":6625:6630   */\n  dup2\n    /* \"#utility.yul\":6622:6636   */\n  lt\n    /* \"#utility.yul\":6615:6735   */\n  iszero\n  tag_127\n  jumpi\n    /* \"#utility.yul\":6686:6725   */\n  tag_128\n    /* \"#utility.yul\":6723:6724   */\n  0x00\n    /* \"#utility.yul\":6716:6721   */\n  dup3\n    /* \"#utility.yul\":6686:6725   */\n  tag_42\n  jump\t// in\ntag_128:\n    /* \"#utility.yul\":6659:6660   */\n  0x01\n    /* \"#utility.yul\":6652:6657   */\n  dup2\n    /* \"#utility.yul\":6648:6661   */\n  add\n    /* \"#utility.yul\":6639:6661   */\n  swap1\n  pop\n    /* \"#utility.yul\":6615:6735   */\n  jump(tag_125)\ntag_127:\n    /* \"#utility.yul\":6555:6741   */\n  pop\n  pop\n  jump\t// out\n    /* \"#utility.yul\":6747:7290   */\ntag_44:\n    /* \"#utility.yul\":6848:6850   */\n  0x1f\n    /* \"#utility.yul\":6843:6846   */\n  dup3\n    /* \"#utility.yul\":6840:6851   */\n  gt\n    /* \"#utility.yul\":6837:7283   */\n  iszero\n  tag_130\n  jumpi\n    /* \"#utility.yul\":6882:6920   */\n  tag_131\n    /* \"#utility.yul\":6914:6919   */\n  dup2\n    /* \"#utility.yul\":6882:6920   */\n  tag_32\n  jump\t// in\ntag_131:\n    /* \"#utility.yul\":6966:6995   */\n  tag_132\n    /* \"#utility.yul\":6984:6994   */\n  dup5\n    /* \"#utility.yul\":6966:6995   */\n  tag_33\n  jump\t// in\ntag_132:\n    /* \"#utility.yul\":6956:6964   */\n  dup2\n    /* \"#utility.yul\":6952:6996   */\n  add\n    /* \"#utility.yul\":7149:7151   */\n  0x20\n    /* \"#utility.yul\":7137:7147   */\n  dup6\n    /* \"#utility.yul\":7134:7152   */\n  lt\n    /* \"#utility.yul\":7131:7180   */\n  iszero\n  tag_133\n  jumpi\n    /* \"#utility.yul\":7170:7178   */\n  dup2\n    /* \"#utility.yul\":7155:7178   */\n  swap1\n  pop\n    /* \"#utility.yul\":7131:7180   */\ntag_133:\n    /* \"#utility.yul\":7193:7273   */\n  tag_134\n    /* \"#utility.yul\":7249:7271   */\n  tag_135\n    /* \"#utility.yul\":7267:7270   */\n  dup6\n    /* \"#utility.yul\":7249:7271   */\n  tag_33\n  jump\t// in\ntag_135:\n    /* \"#utility.yul\":7239:7247   */\n  dup4\n    /* \"#utility.yul\":7235:7272   */\n  add\n    /* \"#utility.yul\":7222:7233   */\n  dup3\n    /* \"#utility.yul\":7193:7273   */\n  tag_43\n  jump\t// in\ntag_134:\n    /* \"#utility.yul\":6852:7283   */\n  pop\n  pop\n    /* \"#utility.yul\":6837:7283   */\ntag_130:\n    /* \"#utility.yul\":6747:7290   */\n  pop\n  pop\n  pop\n  jump\t// out\n    /* \"#utility.yul\":7296:7413   */\ntag_45:\n    /* \"#utility.yul\":7350:7358   */\n  0x00\n    /* \"#utility.yul\":7400:7405   */\n  dup3\n    /* \"#utility.yul\":7394:7398   */\n  dup3\n    /* \"#utility.yul\":7390:7406   */\n  shr\n    /* \"#utility.yul\":7369:7406   */\n  swap1\n  pop\n    /* \"#utility.yul\":7296:7413   */\n  swap3\n  swap2\n  pop\n  pop\n  jump\t// out\n    /* \"#utility.yul\":7419:7588   */\ntag_46:\n    /* \"#utility.yul\":7463:7469   */\n  0x00\n    /* \"#utility.yul\":7496:7547   */\n  tag_138\n    /* \"#utility.yul\":7544:7545   */\n  0x00\n    /* \"#utility.yul\":7540:7546   */\n  not\n    /* \"#utility.yul\":7532:7537   */\n  dup5\n    /* \"#utility.yul\":7529:7530   */\n  0x08\n    /* \"#utility.yul\":7525:7538   */\n  mul\n    /* \"#utility.yul\":7496:7547   */\n  tag_45\n  jump\t// in\ntag_138:\n    /* \"#utility.yul\":7492:7548   */\n  not\n    /* \"#utility.yul\":7577:7581   */\n  dup1\n    /* \"#utility.yul\":7571:7575   */\n  dup4\n    /* \"#utility.yul\":7567:7582   */\n  and\n    /* \"#utility.yul\":7557:7582   */\n  swap2\n  pop\n    /* \"#utility.yul\":7470:7588   */\n  pop\n    /* \"#utility.yul\":7419:7588   */\n  swap3\n  swap2\n  pop\n  pop\n  jump\t// out\n    /* \"#utility.yul\":7593:7888   */\ntag_47:\n    /* \"#utility.yul\":7669:7673   */\n  0x00\n    /* \"#utility.yul\":7815:7844   */\n  tag_140\n    /* \"#utility.yul\":7840:7843   */\n  dup4\n    /* \"#utility.yul\":7834:7838   */\n  dup4\n    /* \"#utility.yul\":7815:7844   */\n  tag_46\n  jump\t// in\ntag_140:\n    /* \"#utility.yul\":7807:7844   */\n  swap2\n  pop\n    /* \"#utility.yul\":7877:7880   */\n  dup3\n    /* \"#utility.yul\":7874:7875   */\n  0x02\n    /* \"#utility.yul\":7870:7881   */\n  mul\n    /* \"#utility.yul\":7864:7868   */\n  dup3\n    /* \"#utility.yul\":7861:7882   */\n  or\n    /* \"#utility.yul\":7853:7882   */\n  swap1\n  pop\n    /* \"#utility.yul\":7593:7888   */\n  swap3\n  swap2\n  pop\n  pop\n  jump\t// out\n    /* \"#utility.yul\":7893:9288   */\ntag_8:\n    /* \"#utility.yul\":8010:8047   */\n  tag_142\n    /* \"#utility.yul\":8043:8046   */\n  dup3\n    /* \"#utility.yul\":8010:8047   */\n  tag_29\n  jump\t// in\ntag_142:\n    /* \"#utility.yul\":8112:8130   */\n  0xffffffffffffffff\n    /* \"#utility.yul\":8104:8110   */\n  dup2\n    /* \"#utility.yul\":8101:8131   */\n  gt\n    /* \"#utility.yul\":8098:8154   */\n  iszero\n  tag_143\n  jumpi\n    /* \"#utility.yul\":8134:8152   */\n  tag_144\n  tag_22\n  jump\t// in\ntag_144:\n    /* \"#utility.yul\":8098:8154   */\ntag_143:\n    /* \"#utility.yul\":8178:8216   */\n  tag_145\n    /* \"#utility.yul\":8210:8214   */\n  dup3\n    /* \"#utility.yul\":8204:8215   */\n  sload\n    /* \"#utility.yul\":8178:8216   */\n  tag_31\n  jump\t// in\ntag_145:\n    /* \"#utility.yul\":8263:8330   */\n  tag_146\n    /* \"#utility.yul\":8323:8329   */\n  dup3\n    /* \"#utility.yul\":8315:8321   */\n  dup3\n    /* \"#utility.yul\":8309:8313   */\n  dup6\n    /* \"#utility.yul\":8263:8330   */\n  tag_44\n  jump\t// in\ntag_146:\n    /* \"#utility.yul\":8357:8358   */\n  0x00\n    /* \"#utility.yul\":8381:8385   */\n  0x20\n    /* \"#utility.yul\":8368:8385   */\n  swap1\n  pop\n    /* \"#utility.yul\":8413:8415   */\n  0x1f\n    /* \"#utility.yul\":8405:8411   */\n  dup4\n    /* \"#utility.yul\":8402:8416   */\n  gt\n    /* \"#utility.yul\":8430:8431   */\n  0x01\n    /* \"#utility.yul\":8425:9043   */\n  dup2\n  eq\n  tag_148\n  jumpi\n    /* \"#utility.yul\":9087:9088   */\n  0x00\n    /* \"#utility.yul\":9104:9110   */\n  dup5\n    /* \"#utility.yul\":9101:9178   */\n  iszero\n  tag_149\n  jumpi\n    /* \"#utility.yul\":9153:9162   */\n  dup3\n    /* \"#utility.yul\":9148:9151   */\n  dup8\n    /* \"#utility.yul\":9144:9163   */\n  add\n    /* \"#utility.yul\":9138:9164   */\n  mload\n    /* \"#utility.yul\":9129:9164   */\n  swap1\n  pop\n    /* \"#utility.yul\":9101:9178   */\ntag_149:\n    /* \"#utility.yul\":9204:9271   */\n  tag_150\n    /* \"#utility.yul\":9264:9270   */\n  dup6\n    /* \"#utility.yul\":9257:9262   */\n  dup3\n    /* \"#utility.yul\":9204:9271   */\n  tag_47\n  jump\t// in\ntag_150:\n    /* \"#utility.yul\":9198:9202   */\n  dup7\n    /* \"#utility.yul\":9191:9272   */\n  sstore\n    /* \"#utility.yul\":9060:9282   */\n  pop\n    /* \"#utility.yul\":8395:9282   */\n  jump(tag_147)\n    /* \"#utility.yul\":8425:9043   */\ntag_148:\n    /* \"#utility.yul\":8477:8481   */\n  0x1f\n    /* \"#utility.yul\":8473:8482   */\n  not\n    /* \"#utility.yul\":8465:8471   */\n  dup5\n    /* \"#utility.yul\":8461:8483   */\n  and\n    /* \"#utility.yul\":8511:8548   */\n  tag_151\n    /* \"#utility.yul\":8543:8547   */\n  dup7\n    /* \"#utility.yul\":8511:8548   */\n  tag_32\n  jump\t// in\ntag_151:\n    /* \"#utility.yul\":8570:8571   */\n  0x00\n    /* \"#utility.yul\":8584:8792   */\ntag_152:\n    /* \"#utility.yul\":8598:8605   */\n  dup3\n    /* \"#utility.yul\":8595:8596   */\n  dup2\n    /* \"#utility.yul\":8592:8606   */\n  lt\n    /* \"#utility.yul\":8584:8792   */\n  iszero\n  tag_154\n  jumpi\n    /* \"#utility.yul\":8677:8686   */\n  dup5\n    /* \"#utility.yul\":8672:8675   */\n  dup10\n    /* \"#utility.yul\":8668:8687   */\n  add\n    /* \"#utility.yul\":8662:8688   */\n  mload\n    /* \"#utility.yul\":8654:8660   */\n  dup3\n    /* \"#utility.yul\":8647:8689   */\n  sstore\n    /* \"#utility.yul\":8728:8729   */\n  0x01\n    /* \"#utility.yul\":8720:8726   */\n  dup3\n    /* \"#utility.yul\":8716:8730   */\n  add\n    /* \"#utility.yul\":8706:8730   */\n  swap2\n  pop\n    /* \"#utility.yul\":8775:8777   */\n  0x20\n    /* \"#utility.yul\":8764:8773   */\n  dup6\n    /* \"#utility.yul\":8760:8778   */\n  add\n    /* \"#utility.yul\":8747:8778   */\n  swap5\n  pop\n    /* \"#utility.yul\":8621:8625   */\n  0x20\n    /* \"#utility.yul\":8618:8619   */\n  dup2\n    /* \"#utility.yul\":8614:8626   */\n  add\n    /* \"#utility.yul\":8609:8626   */\n  swap1\n  pop\n    /* \"#utility.yul\":8584:8792   */\n  jump(tag_152)\ntag_154:\n    /* \"#utility.yul\":8820:8826   */\n  dup7\n    /* \"#utility.yul\":8811:8818   */\n  dup4\n    /* \"#utility.yul\":8808:8827   */\n  lt\n    /* \"#utility.yul\":8805:8984   */\n  iszero\n  tag_155\n  jumpi\n    /* \"#utility.yul\":8878:8887   */\n  dup5\n    /* \"#utility.yul\":8873:8876   */\n  dup10\n    /* \"#utility.yul\":8869:8888   */\n  add\n    /* \"#utility.yul\":8863:8889   */\n  mload\n    /* \"#utility.yul\":8921:8969   */\n  tag_156\n    /* \"#utility.yul\":8963:8967   */\n  0x1f\n    /* \"#utility.yul\":8955:8961   */\n  dup10\n    /* \"#utility.yul\":8951:8968   */\n  and\n    /* \"#utility.yul\":8940:8949   */\n  dup3\n    /* \"#utility.yul\":8921:8969   */\n  tag_46\n  jump\t// in\ntag_156:\n    /* \"#utility.yul\":8913:8919   */\n  dup4\n    /* \"#utility.yul\":8906:8970   */\n  sstore\n    /* \"#utility.yul\":8828:8984   */\n  pop\n    /* \"#utility.yul\":8805:8984   */\ntag_155:\n    /* \"#utility.yul\":9030:9031   */\n  0x01\n    /* \"#utility.yul\":9026:9027   */\n  0x02\n    /* \"#utility.yul\":9018:9024   */\n  dup9\n    /* \"#utility.yul\":9014:9028   */\n  mul\n    /* \"#utility.yul\":9010:9032   */\n  add\n    /* \"#utility.yul\":9004:9008   */\n  dup9\n    /* \"#utility.yul\":8997:9033   */\n  sstore\n    /* \"#utility.yul\":8432:9043   */\n  pop\n  pop\n  pop\n    /* \"#utility.yul\":8395:9282   */\ntag_147:\n  pop\n    /* \"#utility.yul\":7985:9288   */\n  pop\n  pop\n  pop\n    /* \"#utility.yul\":7893:9288   */\n  pop\n  pop\n  jump\t// out\n    /* \"submissions/Zora/Day25AutomatedMarketMaker.sol\":198:5857  contract AutomatedMarketMaker is ERC20 {... */\ntag_11:\n  dataSize(sub_0)\n  dup1\n  dataOffset(sub_0)\n  0x00\n  codecopy\n  0x00\n  return\nstop\n\nsub_0: assembly {\n        /* \"submissions/Zora/Day25AutomatedMarketMaker.sol\":198:5857  contract AutomatedMarketMaker is ERC20 {... */\n      mstore(0x40, 0x80)\n      callvalue\n      dup1\n      iszero\n      tag_1\n      jumpi\n      revert(0x00, 0x00)\n    tag_1:\n      pop\n      jumpi(tag_2, lt(calldatasize, 0x04))\n      shr(0xe0, calldataload(0x00))\n      dup1\n      0x5f64b55b\n      gt\n      tag_22\n      jumpi\n      dup1\n      0x9cd441da\n      gt\n      tag_23\n      jumpi\n      dup1\n      0x9cd441da\n      eq\n      tag_17\n      jumpi\n      dup1\n      0xa9059cbb\n      eq\n      tag_18\n      jumpi\n      dup1\n      0xc915cc24\n      eq\n      tag_19\n      jumpi\n      dup1\n      0xdc5fa6c5\n      eq\n      tag_20\n      jumpi\n      dup1\n      0xdd62ed3e\n      eq\n      tag_21\n      jumpi\n      jump(tag_2)\n    tag_23:\n      dup1\n      0x5f64b55b\n      eq\n      tag_12\n      jumpi\n      dup1\n      0x70a08231\n      eq\n      tag_13\n      jumpi\n      dup1\n      0x8da5cb5b\n      eq\n      tag_14\n      jumpi\n      dup1\n      0x95d89b41\n      eq\n      tag_15\n      jumpi\n      dup1\n      0x9c8f9f23\n      eq\n      tag_16\n      jumpi\n      jump(tag_2)\n    tag_22:\n      dup1\n      0x140e6247\n      gt\n      tag_24\n      jumpi\n      dup1\n      0x140e6247\n      eq\n      tag_7\n      jumpi\n      dup1\n      0x18160ddd\n      eq\n      tag_8\n      jumpi\n      dup1\n      0x19e36f3b\n      eq\n      tag_9\n      jumpi\n      dup1\n      0x23b872dd\n      eq\n      tag_10\n      jumpi\n      dup1\n      0x313ce567\n      eq\n      tag_11\n      jumpi\n      jump(tag_2)\n    tag_24:\n      dup1\n      0x06fdde03\n      eq\n      tag_3\n      jumpi\n      dup1\n      0x0902f1ac\n      eq\n      tag_4\n      jumpi\n      dup1\n      0x095ea7b3\n      eq\n      tag_5\n      jumpi\n      dup1\n      0x0fc63d10\n      eq\n      tag_6\n      jumpi\n    tag_2:\n      revert(0x00, 0x00)\n        /* \"@openzeppelin/contracts/token/ERC20/ERC20.sol\":1760:1849  function name() public view virtual returns (string memory) {... */\n    tag_3:\n      tag_25\n      tag_26\n      jump\t// in\n    tag_25:\n      mload(0x40)\n      tag_27\n      swap2\n      swap1\n      tag_28\n      jump\t// in\n    tag_27:\n      mload(0x40)\n      dup1\n      swap2\n      sub\n      swap1\n      return\n        /* \"submissions/Zora/Day25AutomatedMarketMaker.sol\":5208:5318  function getReserves() external view returns (uint256, uint256) {... */\n    tag_4:\n      tag_29\n      tag_30\n      jump\t// in\n    tag_29:\n      mload(0x40)\n      tag_31\n      swap3\n      swap2\n      swap1\n      tag_32\n      jump\t// in\n    tag_31:\n      mload(0x40)\n      dup1\n      swap2\n      sub\n      swap1\n      return\n        /* \"@openzeppelin/contracts/token/ERC20/ERC20.sol\":3902:4088  function approve(address spender, uint256 value) public virtual returns (bool) {... */\n    tag_5:\n      tag_33\n      0x04\n      dup1\n      calldatasize\n      sub\n      dup2\n      add\n      swap1\n      tag_34\n      swap2\n      swap1\n      tag_35\n      jump\t// in\n    tag_34:\n      tag_36\n      jump\t// in\n    tag_33:\n      mload(0x40)\n      tag_37\n      swap2\n      swap1\n      tag_38\n      jump\t// in\n    tag_37:\n      mload(0x40)\n      dup1\n      swap2\n      sub\n      swap1\n      return\n        /* \"submissions/Zora/Day25AutomatedMarketMaker.sol\":331:351  IERC20 public tokenA */\n    tag_6:\n      tag_39\n      tag_40\n      jump\t// in\n    tag_39:\n      mload(0x40)\n      tag_41\n      swap2\n      swap1\n      tag_42\n      jump\t// in\n    tag_41:\n      mload(0x40)\n      dup1\n      swap2\n      sub\n      swap1\n      return\n        /* \"submissions/Zora/Day25AutomatedMarketMaker.sol\":3646:4396  function swapAforB(uint256 amountAIn, uint256 minBOut) external {... */\n    tag_7:\n      tag_43\n      0x04\n      dup1\n      calldatasize\n      sub\n      dup2\n      add\n      swap1\n      tag_44\n      swap2\n      swap1\n      tag_45\n      jump\t// in\n    tag_44:\n      tag_46\n      jump\t// in\n    tag_43:\n      stop\n        /* \"@openzeppelin/contracts/token/ERC20/ERC20.sol\":2803:2900  function totalSupply() public view virtual returns (uint256) {... */\n    tag_8:\n      tag_47\n      tag_48\n      jump\t// in\n    tag_47:\n      mload(0x40)\n      tag_49\n      swap2\n      swap1\n      tag_50\n      jump\t// in\n    tag_49:\n      mload(0x40)\n      dup1\n      swap2\n      sub\n      swap1\n      return\n        /* \"submissions/Zora/Day25AutomatedMarketMaker.sol\":444:467  uint256 public reserveB */\n    tag_9:\n      tag_51\n      tag_52\n      jump\t// in\n    tag_51:\n      mload(0x40)\n      tag_53\n      swap2\n      swap1\n      tag_50\n      jump\t// in\n    tag_53:\n      mload(0x40)\n      dup1\n      swap2\n      sub\n      swap1\n      return\n        /* \"@openzeppelin/contracts/token/ERC20/ERC20.sol\":4680:4924  function transferFrom(address from, address to, uint256 value) public virtual returns (bool) {... */\n    tag_10:\n      tag_54\n      0x04\n      dup1\n      calldatasize\n      sub\n      dup2\n      add\n      swap1\n      tag_55\n      swap2\n      swap1\n      tag_56\n      jump\t// in\n    tag_55:\n      tag_57\n      jump\t// in\n    tag_54:\n      mload(0x40)\n      tag_58\n      swap2\n      swap1\n      tag_38\n      jump\t// in\n    tag_58:\n      mload(0x40)\n      dup1\n      swap2\n      sub\n      swap1\n      return\n        /* \"@openzeppelin/contracts/token/ERC20/ERC20.sol\":2688:2770  function decimals() public view virtual returns (uint8) {... */\n    tag_11:\n      tag_59\n      tag_60\n      jump\t// in\n    tag_59:\n      mload(0x40)\n      tag_61\n      swap2\n      swap1\n      tag_62\n      jump\t// in\n    tag_61:\n      mload(0x40)\n      dup1\n      swap2\n      sub\n      swap1\n      return\n        /* \"submissions/Zora/Day25AutomatedMarketMaker.sol\":358:378  IERC20 public tokenB */\n    tag_12:\n      tag_63\n      tag_64\n      jump\t// in\n    tag_63:\n      mload(0x40)\n      tag_65\n      swap2\n      swap1\n      tag_42\n      jump\t// in\n    tag_65:\n      mload(0x40)\n      dup1\n      swap2\n      sub\n      swap1\n      return\n        /* \"@openzeppelin/contracts/token/ERC20/ERC20.sol\":2933:3049  function balanceOf(address account) public view virtual returns (uint256) {... */\n    tag_13:\n      tag_66\n      0x04\n      dup1\n      calldatasize\n      sub\n      dup2\n      add\n      swap1\n      tag_67\n      swap2\n      swap1\n      tag_68\n      jump\t// in\n    tag_67:\n      tag_69\n      jump\t// in\n    tag_66:\n      mload(0x40)\n      tag_70\n      swap2\n      swap1\n      tag_50\n      jump\t// in\n    tag_70:\n      mload(0x40)\n      dup1\n      swap2\n      sub\n      swap1\n      return\n        /* \"submissions/Zora/Day25AutomatedMarketMaker.sol\":505:525  address public owner */\n    tag_14:\n      tag_71\n      tag_72\n      jump\t// in\n    tag_71:\n      mload(0x40)\n      tag_73\n      swap2\n      swap1\n      tag_74\n      jump\t// in\n    tag_73:\n      mload(0x40)\n      dup1\n      swap2\n      sub\n      swap1\n      return\n        /* \"@openzeppelin/contracts/token/ERC20/ERC20.sol\":1962:2055  function symbol() public view virtual returns (string memory) {... */\n    tag_15:\n      tag_75\n      tag_76\n      jump\t// in\n    tag_75:\n      mload(0x40)\n      tag_77\n      swap2\n      swap1\n      tag_28\n      jump\t// in\n    tag_77:\n      mload(0x40)\n      dup1\n      swap2\n      sub\n      swap1\n      return\n        /* \"submissions/Zora/Day25AutomatedMarketMaker.sol\":2457:3596  function removeLiquidity(uint256 liquidityToRemove) external returns (uint256 amountAOut, uint256 amountBOut) {... */\n    tag_16:\n      tag_78\n      0x04\n      dup1\n      calldatasize\n      sub\n      dup2\n      add\n      swap1\n      tag_79\n      swap2\n      swap1\n      tag_80\n      jump\t// in\n    tag_79:\n      tag_81\n      jump\t// in\n    tag_78:\n      mload(0x40)\n      tag_82\n      swap3\n      swap2\n      swap1\n      tag_32\n      jump\t// in\n    tag_82:\n      mload(0x40)\n      dup1\n      swap2\n      sub\n      swap1\n      return\n        /* \"submissions/Zora/Day25AutomatedMarketMaker.sol\":1537:2401  function addLiquidity(uint256 amountA, uint256 amountB) external {... */\n    tag_17:\n      tag_83\n      0x04\n      dup1\n      calldatasize\n      sub\n      dup2\n      add\n      swap1\n      tag_84\n      swap2\n      swap1\n      tag_45\n      jump\t// in\n    tag_84:\n      tag_85\n      jump\t// in\n    tag_83:\n      stop\n        /* \"@openzeppelin/contracts/token/ERC20/ERC20.sol\":3244:3422  function transfer(address to, uint256 value) public virtual returns (bool) {... */\n    tag_18:\n      tag_86\n      0x04\n      dup1\n      calldatasize\n      sub\n      dup2\n      add\n      swap1\n      tag_87\n      swap2\n      swap1\n      tag_35\n      jump\t// in\n    tag_87:\n      tag_88\n      jump\t// in\n    tag_86:\n      mload(0x40)\n      tag_89\n      swap2\n      swap1\n      tag_38\n      jump\t// in\n    tag_89:\n      mload(0x40)\n      dup1\n      swap2\n      sub\n      swap1\n      return\n        /* \"submissions/Zora/Day25AutomatedMarketMaker.sol\":4446:5157  function swapBforA(uint256 amountBIn, uint256 minAOut) external {... */\n    tag_19:\n      tag_90\n      0x04\n      dup1\n      calldatasize\n      sub\n      dup2\n      add\n      swap1\n      tag_91\n      swap2\n      swap1\n      tag_45\n      jump\t// in\n    tag_91:\n      tag_92\n      jump\t// in\n    tag_90:\n      stop\n        /* \"submissions/Zora/Day25AutomatedMarketMaker.sol\":414:437  uint256 public reserveA */\n    tag_20:\n      tag_93\n      tag_94\n      jump\t// in\n    tag_93:\n      mload(0x40)\n      tag_95\n      swap2\n      swap1\n      tag_50\n      jump\t// in\n    tag_95:\n      mload(0x40)\n      dup1\n      swap2\n      sub\n      swap1\n      return\n        /* \"@openzeppelin/contracts/token/ERC20/ERC20.sol\":3455:3595  function allowance(address owner, address spender) public view virtual returns (uint256) {... */\n    tag_21:\n      tag_96\n      0x04\n      dup1\n      calldatasize\n      sub\n      dup2\n      add\n      swap1\n      tag_97\n      swap2\n      swap1\n      tag_98\n      jump\t// in\n    tag_97:\n      tag_99\n      jump\t// in\n    tag_96:\n      mload(0x40)\n      tag_100\n      swap2\n      swap1\n      tag_50\n      jump\t// in\n    tag_100:\n      mload(0x40)\n      dup1\n      swap2\n      sub\n      swap1\n      return\n        /* \"@openzeppelin/contracts/token/ERC20/ERC20.sol\":1760:1849  function name() public view virtual returns (string memory) {... */\n    tag_26:\n        /* \"@openzeppelin/contracts/token/ERC20/ERC20.sol\":1805:1818  string memory */\n      0x60\n        /* \"@openzeppelin/contracts/token/ERC20/ERC20.sol\":1837:1842  _name */\n      0x03\n        /* \"@openzeppelin/contracts/token/ERC20/ERC20.sol\":1830:1842  return _name */\n      dup1\n      sload\n      tag_102\n      swap1\n      tag_103\n      jump\t// in\n    tag_102:\n      dup1\n      0x1f\n      add\n      0x20\n      dup1\n      swap2\n      div\n      mul\n      0x20\n      add\n      mload(0x40)\n      swap1\n      dup2\n      add\n      0x40\n      mstore\n      dup1\n      swap3\n      swap2\n      swap1\n      dup2\n      dup2\n      mstore\n      0x20\n      add\n      dup3\n      dup1\n      sload\n      tag_104\n      swap1\n      tag_103\n      jump\t// in\n    tag_104:\n      dup1\n      iszero\n      tag_105\n      jumpi\n      dup1\n      0x1f\n      lt\n      tag_106\n      jumpi\n      0x0100\n      dup1\n      dup4\n      sload\n      div\n      mul\n      dup4\n      mstore\n      swap2\n      0x20\n      add\n      swap2\n      jump(tag_105)\n    tag_106:\n      dup3\n      add\n      swap2\n      swap1\n      0x00\n      mstore\n      keccak256(0x00, 0x20)\n      swap1\n    tag_107:\n      dup2\n      sload\n      dup2\n      mstore\n      swap1\n      0x01\n      add\n      swap1\n      0x20\n      add\n      dup1\n      dup4\n      gt\n      tag_107\n      jumpi\n      dup3\n      swap1\n      sub\n      0x1f\n      and\n      dup3\n      add\n      swap2\n    tag_105:\n      pop\n      pop\n      pop\n      pop\n      pop\n      swap1\n      pop\n        /* \"@openzeppelin/contracts/token/ERC20/ERC20.sol\":1760:1849  function name() public view virtual returns (string memory) {... */\n      swap1\n      jump\t// out\n        /* \"submissions/Zora/Day25AutomatedMarketMaker.sol\":5208:5318  function getReserves() external view returns (uint256, uint256) {... */\n    tag_30:\n        /* \"submissions/Zora/Day25AutomatedMarketMaker.sol\":5254:5261  uint256 */\n      0x00\n        /* \"submissions/Zora/Day25AutomatedMarketMaker.sol\":5263:5270  uint256 */\n      0x00\n        /* \"submissions/Zora/Day25AutomatedMarketMaker.sol\":5291:5299  reserveA */\n      sload(0x07)\n        /* \"submissions/Zora/Day25AutomatedMarketMaker.sol\":5301:5309  reserveB */\n      sload(0x08)\n        /* \"submissions/Zora/Day25AutomatedMarketMaker.sol\":5283:5310  return (reserveA, reserveB) */\n      swap2\n      pop\n      swap2\n      pop\n        /* \"submissions/Zora/Day25AutomatedMarketMaker.sol\":5208:5318  function getReserves() external view returns (uint256, uint256) {... */\n      swap1\n      swap2\n      jump\t// out\n        /* \"@openzeppelin/contracts/token/ERC20/ERC20.sol\":3902:4088  function approve(address spender, uint256 value) public virtual returns (bool) {... */\n    tag_36:\n        /* \"@openzeppelin/contracts/token/ERC20/ERC20.sol\":3975:3979  bool */\n      0x00\n        /* \"@openzeppelin/contracts/token/ERC20/ERC20.sol\":3991:4004  address owner */\n      0x00\n        /* \"@openzeppelin/contracts/token/ERC20/ERC20.sol\":4007:4019  _msgSender() */\n      tag_110\n        /* \"@openzeppelin/contracts/token/ERC20/ERC20.sol\":4007:4017  _msgSender */\n      tag_111\n        /* \"@openzeppelin/contracts/token/ERC20/ERC20.sol\":4007:4019  _msgSender() */\n      jump\t// in\n    tag_110:\n        /* \"@openzeppelin/contracts/token/ERC20/ERC20.sol\":3991:4019  address owner = _msgSender() */\n      swap1\n      pop\n        /* \"@openzeppelin/contracts/token/ERC20/ERC20.sol\":4029:4060  _approve(owner, spender, value) */\n      tag_112\n        /* \"@openzeppelin/contracts/token/ERC20/ERC20.sol\":4038:4043  owner */\n      dup2\n        /* \"@openzeppelin/contracts/token/ERC20/ERC20.sol\":4045:4052  spender */\n      dup6\n        /* \"@openzeppelin/contracts/token/ERC20/ERC20.sol\":4054:4059  value */\n      dup6\n        /* \"@openzeppelin/contracts/token/ERC20/ERC20.sol\":4029:4037  _approve */\n      tag_113\n        /* \"@openzeppelin/contracts/token/ERC20/ERC20.sol\":4029:4060  _approve(owner, spender, value) */\n      jump\t// in\n    tag_112:\n        /* \"@openzeppelin/contracts/token/ERC20/ERC20.sol\":4077:4081  true */\n      0x01\n        /* \"@openzeppelin/contracts/token/ERC20/ERC20.sol\":4070:4081  return true */\n      swap2\n      pop\n      pop\n        /* \"@openzeppelin/contracts/token/ERC20/ERC20.sol\":3902:4088  function approve(address spender, uint256 value) public virtual returns (bool) {... */\n      swap3\n      swap2\n      pop\n      pop\n      jump\t// out\n        /* \"submissions/Zora/Day25AutomatedMarketMaker.sol\":331:351  IERC20 public tokenA */\n    tag_40:\n      0x05\n      0x00\n      swap1\n      sload\n      swap1\n      0x0100\n      exp\n      swap1\n      div\n      0xffffffffffffffffffffffffffffffffffffffff\n      and\n      dup2\n      jump\t// out\n        /* \"submissions/Zora/Day25AutomatedMarketMaker.sol\":3646:4396  function swapAforB(uint256 amountAIn, uint256 minBOut) external {... */\n    tag_46:\n        /* \"submissions/Zora/Day25AutomatedMarketMaker.sol\":3741:3742  0 */\n      0x00\n        /* \"submissions/Zora/Day25AutomatedMarketMaker.sol\":3729:3738  amountAIn */\n      dup3\n        /* \"submissions/Zora/Day25AutomatedMarketMaker.sol\":3729:3742  amountAIn > 0 */\n      gt\n        /* \"submissions/Zora/Day25AutomatedMarketMaker.sol\":3721:3765  require(amountAIn > 0, \"Amount must be > 0\") */\n      tag_115\n      jumpi\n      mload(0x40)\n      0x08c379a000000000000000000000000000000000000000000000000000000000\n      dup2\n      mstore\n      0x04\n      add\n      tag_116\n      swap1\n      tag_117\n      jump\t// in\n    tag_116:\n      mload(0x40)\n      dup1\n      swap2\n      sub\n      swap1\n      revert\n    tag_115:\n        /* \"submissions/Zora/Day25AutomatedMarketMaker.sol\":3795:3796  0 */\n      0x00\n        /* \"submissions/Zora/Day25AutomatedMarketMaker.sol\":3784:3792  reserveA */\n      sload(0x07)\n        /* \"submissions/Zora/Day25AutomatedMarketMaker.sol\":3784:3796  reserveA > 0 */\n      gt\n        /* \"submissions/Zora/Day25AutomatedMarketMaker.sol\":3784:3812  reserveA > 0 && reserveB > 0 */\n      dup1\n      iszero\n      tag_118\n      jumpi\n      pop\n        /* \"submissions/Zora/Day25AutomatedMarketMaker.sol\":3811:3812  0 */\n      0x00\n        /* \"submissions/Zora/Day25AutomatedMarketMaker.sol\":3800:3808  reserveB */\n      sload(0x08)\n        /* \"submissions/Zora/Day25AutomatedMarketMaker.sol\":3800:3812  reserveB > 0 */\n      gt\n        /* \"submissions/Zora/Day25AutomatedMarketMaker.sol\":3784:3812  reserveA > 0 && reserveB > 0 */\n    tag_118:\n        /* \"submissions/Zora/Day25AutomatedMarketMaker.sol\":3776:3838  require(reserveA > 0 && reserveB > 0, \"Insufficient reserves\") */\n      tag_119\n      jumpi\n      mload(0x40)\n      0x08c379a000000000000000000000000000000000000000000000000000000000\n      dup2\n      mstore\n      0x04\n      add\n      tag_120\n      swap1\n      tag_121\n      jump\t// in\n    tag_120:\n      mload(0x40)\n      dup1\n      swap2\n      sub\n      swap1\n      revert\n    tag_119:\n        /* \"submissions/Zora/Day25AutomatedMarketMaker.sol\":3851:3875  uint256 amountAInWithFee */\n      0x00\n        /* \"submissions/Zora/Day25AutomatedMarketMaker.sol\":3896:3900  1000 */\n      0x03e8\n        /* \"submissions/Zora/Day25AutomatedMarketMaker.sol\":3890:3893  997 */\n      0x03e5\n        /* \"submissions/Zora/Day25AutomatedMarketMaker.sol\":3878:3887  amountAIn */\n      dup5\n        /* \"submissions/Zora/Day25AutomatedMarketMaker.sol\":3878:3893  amountAIn * 997 */\n      tag_122\n      swap2\n      swap1\n      tag_123\n      jump\t// in\n    tag_122:\n        /* \"submissions/Zora/Day25AutomatedMarketMaker.sol\":3878:3900  amountAIn * 997 / 1000 */\n      tag_124\n      swap2\n      swap1\n      tag_125\n      jump\t// in\n    tag_124:\n        /* \"submissions/Zora/Day25AutomatedMarketMaker.sol\":3851:3900  uint256 amountAInWithFee = amountAIn * 997 / 1000 */\n      swap1\n      pop\n        /* \"submissions/Zora/Day25AutomatedMarketMaker.sol\":3934:3952  uint256 amountBOut */\n      0x00\n        /* \"submissions/Zora/Day25AutomatedMarketMaker.sol\":3997:4013  amountAInWithFee */\n      dup2\n        /* \"submissions/Zora/Day25AutomatedMarketMaker.sol\":3986:3994  reserveA */\n      sload(0x07)\n        /* \"submissions/Zora/Day25AutomatedMarketMaker.sol\":3986:4013  reserveA + amountAInWithFee */\n      tag_126\n      swap2\n      swap1\n      tag_127\n      jump\t// in\n    tag_126:\n        /* \"submissions/Zora/Day25AutomatedMarketMaker.sol\":3966:3982  amountAInWithFee */\n      dup3\n        /* \"submissions/Zora/Day25AutomatedMarketMaker.sol\":3955:3963  reserveB */\n      sload(0x08)\n        /* \"submissions/Zora/Day25AutomatedMarketMaker.sol\":3955:3982  reserveB * amountAInWithFee */\n      tag_128\n      swap2\n      swap1\n      tag_123\n      jump\t// in\n    tag_128:\n        /* \"submissions/Zora/Day25AutomatedMarketMaker.sol\":3955:4014  reserveB * amountAInWithFee / (reserveA + amountAInWithFee) */\n      tag_129\n      swap2\n      swap1\n      tag_125\n      jump\t// in\n    tag_129:\n        /* \"submissions/Zora/Day25AutomatedMarketMaker.sol\":3934:4014  uint256 amountBOut = reserveB * amountAInWithFee / (reserveA + amountAInWithFee) */\n      swap1\n      pop\n        /* \"submissions/Zora/Day25AutomatedMarketMaker.sol\":4049:4056  minBOut */\n      dup3\n        /* \"submissions/Zora/Day25AutomatedMarketMaker.sol\":4035:4045  amountBOut */\n      dup2\n        /* \"submissions/Zora/Day25AutomatedMarketMaker.sol\":4035:4056  amountBOut >= minBOut */\n      lt\n      iszero\n        /* \"submissions/Zora/Day25AutomatedMarketMaker.sol\":4027:4078  require(amountBOut >= minBOut, \"Slippage too high\") */\n      tag_130\n      jumpi\n      mload(0x40)\n      0x08c379a000000000000000000000000000000000000000000000000000000000\n      dup2\n      mstore\n      0x04\n      add\n      tag_131\n      swap1\n      tag_132\n      jump\t// in\n    tag_131:\n      mload(0x40)\n      dup1\n      swap2\n      sub\n      swap1\n      revert\n    tag_130:\n        /* \"submissions/Zora/Day25AutomatedMarketMaker.sol\":4107:4113  tokenA */\n      0x05\n      0x00\n      swap1\n      sload\n      swap1\n      0x0100\n      exp\n      swap1\n      div\n      0xffffffffffffffffffffffffffffffffffffffff\n      and\n        /* \"submissions/Zora/Day25AutomatedMarketMaker.sol\":4107:4126  tokenA.transferFrom */\n      0xffffffffffffffffffffffffffffffffffffffff\n      and\n      0x23b872dd\n        /* \"submissions/Zora/Day25AutomatedMarketMaker.sol\":4127:4137  msg.sender */\n      caller\n        /* \"submissions/Zora/Day25AutomatedMarketMaker.sol\":4147:4151  this */\n      address\n        /* \"submissions/Zora/Day25AutomatedMarketMaker.sol\":4154:4163  amountAIn */\n      dup8\n        /* \"submissions/Zora/Day25AutomatedMarketMaker.sol\":4107:4164  tokenA.transferFrom(msg.sender, address(this), amountAIn) */\n      mload(0x40)\n      dup5\n      0xffffffff\n      and\n      0xe0\n      shl\n      dup2\n      mstore\n      0x04\n      add\n      tag_133\n      swap4\n      swap3\n      swap2\n      swap1\n      tag_134\n      jump\t// in\n    tag_133:\n      0x20\n      mload(0x40)\n      dup1\n      dup4\n      sub\n      dup2\n      0x00\n      dup8\n      gas\n      call\n      iszero\n      dup1\n      iszero\n      tag_136\n      jumpi\n      returndatacopy(0x00, 0x00, returndatasize)\n      revert(0x00, returndatasize)\n    tag_136:\n      pop\n      pop\n      pop\n      pop\n      mload(0x40)\n      returndatasize\n      not(0x1f)\n      0x1f\n      dup3\n      add\n      and\n      dup3\n      add\n      dup1\n      0x40\n      mstore\n      pop\n      dup2\n      add\n      swap1\n      tag_137\n      swap2\n      swap1\n      tag_138\n      jump\t// in\n    tag_137:\n      pop\n        /* \"submissions/Zora/Day25AutomatedMarketMaker.sol\":4175:4181  tokenB */\n      0x06\n      0x00\n      swap1\n      sload\n      swap1\n      0x0100\n      exp\n      swap1\n      div\n      0xffffffffffffffffffffffffffffffffffffffff\n      and\n        /* \"submissions/Zora/Day25AutomatedMarketMaker.sol\":4175:4190  tokenB.transfer */\n      0xffffffffffffffffffffffffffffffffffffffff\n      and\n      0xa9059cbb\n        /* \"submissions/Zora/Day25AutomatedMarketMaker.sol\":4191:4201  msg.sender */\n      caller\n        /* \"submissions/Zora/Day25AutomatedMarketMaker.sol\":4203:4213  amountBOut */\n      dup4\n        /* \"submissions/Zora/Day25AutomatedMarketMaker.sol\":4175:4214  tokenB.transfer(msg.sender, amountBOut) */\n      mload(0x40)\n      dup4\n      0xffffffff\n      and\n      0xe0\n      shl\n      dup2\n      mstore\n      0x04\n      add\n      tag_139\n      swap3\n      swap2\n      swap1\n      tag_140\n      jump\t// in\n    tag_139:\n      0x20\n      mload(0x40)\n      dup1\n      dup4\n      sub\n      dup2\n      0x00\n      dup8\n      gas\n      call\n      iszero\n      dup1\n      iszero\n      tag_142\n      jumpi\n      returndatacopy(0x00, 0x00, returndatasize)\n      revert(0x00, returndatasize)\n    tag_142:\n      pop\n      pop\n      pop\n      pop\n      mload(0x40)\n      returndatasize\n      not(0x1f)\n      0x1f\n      dup3\n      add\n      and\n      dup3\n      add\n      dup1\n      0x40\n      mstore\n      pop\n      dup2\n      add\n      swap1\n      tag_143\n      swap2\n      swap1\n      tag_138\n      jump\t// in\n    tag_143:\n      pop\n        /* \"submissions/Zora/Day25AutomatedMarketMaker.sol\":4239:4255  amountAInWithFee */\n      dup2\n        /* \"submissions/Zora/Day25AutomatedMarketMaker.sol\":4227:4235  reserveA */\n      0x07\n      0x00\n        /* \"submissions/Zora/Day25AutomatedMarketMaker.sol\":4227:4255  reserveA += amountAInWithFee */\n      dup3\n      dup3\n      sload\n      tag_144\n      swap2\n      swap1\n      tag_127\n      jump\t// in\n    tag_144:\n      swap3\n      pop\n      pop\n      dup2\n      swap1\n      sstore\n      pop\n        /* \"submissions/Zora/Day25AutomatedMarketMaker.sol\":4278:4288  amountBOut */\n      dup1\n        /* \"submissions/Zora/Day25AutomatedMarketMaker.sol\":4266:4274  reserveB */\n      0x08\n      0x00\n        /* \"submissions/Zora/Day25AutomatedMarketMaker.sol\":4266:4288  reserveB -= amountBOut */\n      dup3\n      dup3\n      sload\n      tag_145\n      swap2\n      swap1\n      tag_146\n      jump\t// in\n    tag_145:\n      swap3\n      pop\n      pop\n      dup2\n      swap1\n      sstore\n      pop\n        /* \"submissions/Zora/Day25AutomatedMarketMaker.sol\":4320:4330  msg.sender */\n      caller\n        /* \"submissions/Zora/Day25AutomatedMarketMaker.sol\":4306:4388  TokensSwapped(msg.sender, address(tokenA), amountAIn, address(tokenB), amountBOut) */\n      0xffffffffffffffffffffffffffffffffffffffff\n      and\n      0x631fb37dba9bbcb8b2f3be2d669e365ae9f1bd850cc57dfe8b7ccd7d979a2bba\n        /* \"submissions/Zora/Day25AutomatedMarketMaker.sol\":4340:4346  tokenA */\n      0x05\n      0x00\n      swap1\n      sload\n      swap1\n      0x0100\n      exp\n      swap1\n      div\n      0xffffffffffffffffffffffffffffffffffffffff\n      and\n        /* \"submissions/Zora/Day25AutomatedMarketMaker.sol\":4349:4358  amountAIn */\n      dup7\n        /* \"submissions/Zora/Day25AutomatedMarketMaker.sol\":4368:4374  tokenB */\n      0x06\n      0x00\n      swap1\n      sload\n      swap1\n      0x0100\n      exp\n      swap1\n      div\n      0xffffffffffffffffffffffffffffffffffffffff\n      and\n        /* \"submissions/Zora/Day25AutomatedMarketMaker.sol\":4377:4387  amountBOut */\n      dup6\n        /* \"submissions/Zora/Day25AutomatedMarketMaker.sol\":4306:4388  TokensSwapped(msg.sender, address(tokenA), amountAIn, address(tokenB), amountBOut) */\n      mload(0x40)\n      tag_147\n      swap5\n      swap4\n      swap3\n      swap2\n      swap1\n      tag_148\n      jump\t// in\n    tag_147:\n      mload(0x40)\n      dup1\n      swap2\n      sub\n      swap1\n      log2\n        /* \"submissions/Zora/Day25AutomatedMarketMaker.sol\":3710:4396  {... */\n      pop\n      pop\n        /* \"submissions/Zora/Day25AutomatedMarketMaker.sol\":3646:4396  function swapAforB(uint256 amountAIn, uint256 minBOut) external {... */\n      pop\n      pop\n      jump\t// out\n        /* \"@openzeppelin/contracts/token/ERC20/ERC20.sol\":2803:2900  function totalSupply() public view virtual returns (uint256) {... */\n    tag_48:\n        /* \"@openzeppelin/contracts/token/ERC20/ERC20.sol\":2855:2862  uint256 */\n      0x00\n        /* \"@openzeppelin/contracts/token/ERC20/ERC20.sol\":2881:2893  _totalSupply */\n      sload(0x02)\n        /* \"@openzeppelin/contracts/token/ERC20/ERC20.sol\":2874:2893  return _totalSupply */\n      swap1\n      pop\n        /* \"@openzeppelin/contracts/token/ERC20/ERC20.sol\":2803:2900  function totalSupply() public view virtual returns (uint256) {... */\n      swap1\n      jump\t// out\n        /* \"submissions/Zora/Day25AutomatedMarketMaker.sol\":444:467  uint256 public reserveB */\n    tag_52:\n      sload(0x08)\n      dup2\n      jump\t// out\n        /* \"@openzeppelin/contracts/token/ERC20/ERC20.sol\":4680:4924  function transferFrom(address from, address to, uint256 value) public virtual returns (bool) {... */\n    tag_57:\n        /* \"@openzeppelin/contracts/token/ERC20/ERC20.sol\":4767:4771  bool */\n      0x00\n        /* \"@openzeppelin/contracts/token/ERC20/ERC20.sol\":4783:4798  address spender */\n      0x00\n        /* \"@openzeppelin/contracts/token/ERC20/ERC20.sol\":4801:4813  _msgSender() */\n      tag_151\n        /* \"@openzeppelin/contracts/token/ERC20/ERC20.sol\":4801:4811  _msgSender */\n      tag_111\n        /* \"@openzeppelin/contracts/token/ERC20/ERC20.sol\":4801:4813  _msgSender() */\n      jump\t// in\n    tag_151:\n        /* \"@openzeppelin/contracts/token/ERC20/ERC20.sol\":4783:4813  address spender = _msgSender() */\n      swap1\n      pop\n        /* \"@openzeppelin/contracts/token/ERC20/ERC20.sol\":4823:4860  _spendAllowance(from, spender, value) */\n      tag_152\n        /* \"@openzeppelin/contracts/token/ERC20/ERC20.sol\":4839:4843  from */\n      dup6\n        /* \"@openzeppelin/contracts/token/ERC20/ERC20.sol\":4845:4852  spender */\n      dup3\n        /* \"@openzeppelin/contracts/token/ERC20/ERC20.sol\":4854:4859  value */\n      dup6\n        /* \"@openzeppelin/contracts/token/ERC20/ERC20.sol\":4823:4838  _spendAllowance */\n      tag_153\n        /* \"@openzeppelin/contracts/token/ERC20/ERC20.sol\":4823:4860  _spendAllowance(from, spender, value) */\n      jump\t// in\n    tag_152:\n        /* \"@openzeppelin/contracts/token/ERC20/ERC20.sol\":4870:4896  _transfer(from, to, value) */\n      tag_154\n        /* \"@openzeppelin/contracts/token/ERC20/ERC20.sol\":4880:4884  from */\n      dup6\n        /* \"@openzeppelin/contracts/token/ERC20/ERC20.sol\":4886:4888  to */\n      dup6\n        /* \"@openzeppelin/contracts/token/ERC20/ERC20.sol\":4890:4895  value */\n      dup6\n        /* \"@openzeppelin/contracts/token/ERC20/ERC20.sol\":4870:4879  _transfer */\n      tag_155\n        /* \"@openzeppelin/contracts/token/ERC20/ERC20.sol\":4870:4896  _transfer(from, to, value) */\n      jump\t// in\n    tag_154:\n        /* \"@openzeppelin/contracts/token/ERC20/ERC20.sol\":4913:4917  true */\n      0x01\n        /* \"@openzeppelin/contracts/token/ERC20/ERC20.sol\":4906:4917  return true */\n      swap2\n      pop\n      pop\n        /* \"@openzeppelin/contracts/token/ERC20/ERC20.sol\":4680:4924  function transferFrom(address from, address to, uint256 value) public virtual returns (bool) {... */\n      swap4\n      swap3\n      pop\n      pop\n      pop\n      jump\t// out\n        /* \"@openzeppelin/contracts/token/ERC20/ERC20.sol\":2688:2770  function decimals() public view virtual returns (uint8) {... */\n    tag_60:\n        /* \"@openzeppelin/contracts/token/ERC20/ERC20.sol\":2737:2742  uint8 */\n      0x00\n        /* \"@openzeppelin/contracts/token/ERC20/ERC20.sol\":2761:2763  18 */\n      0x12\n        /* \"@openzeppelin/contracts/token/ERC20/ERC20.sol\":2754:2763  return 18 */\n      swap1\n      pop\n        /* \"@openzeppelin/contracts/token/ERC20/ERC20.sol\":2688:2770  function decimals() public view virtual returns (uint8) {... */\n      swap1\n      jump\t// out\n        /* \"submissions/Zora/Day25AutomatedMarketMaker.sol\":358:378  IERC20 public tokenB */\n    tag_64:\n      0x06\n      0x00\n      swap1\n      sload\n      swap1\n      0x0100\n      exp\n      swap1\n      div\n      0xffffffffffffffffffffffffffffffffffffffff\n      and\n      dup2\n      jump\t// out\n        /* \"@openzeppelin/contracts/token/ERC20/ERC20.sol\":2933:3049  function balanceOf(address account) public view virtual returns (uint256) {... */\n    tag_69:\n        /* \"@openzeppelin/contracts/token/ERC20/ERC20.sol\":2998:3005  uint256 */\n      0x00\n        /* \"@openzeppelin/contracts/token/ERC20/ERC20.sol\":3024:3033  _balances */\n      0x00\n        /* \"@openzeppelin/contracts/token/ERC20/ERC20.sol\":3024:3042  _balances[account] */\n      0x00\n        /* \"@openzeppelin/contracts/token/ERC20/ERC20.sol\":3034:3041  account */\n      dup4\n        /* \"@openzeppelin/contracts/token/ERC20/ERC20.sol\":3024:3042  _balances[account] */\n      0xffffffffffffffffffffffffffffffffffffffff\n      and\n      0xffffffffffffffffffffffffffffffffffffffff\n      and\n      dup2\n      mstore\n      0x20\n      add\n      swap1\n      dup2\n      mstore\n      0x20\n      add\n      0x00\n      keccak256\n      sload\n        /* \"@openzeppelin/contracts/token/ERC20/ERC20.sol\":3017:3042  return _balances[account] */\n      swap1\n      pop\n        /* \"@openzeppelin/contracts/token/ERC20/ERC20.sol\":2933:3049  function balanceOf(address account) public view virtual returns (uint256) {... */\n      swap2\n      swap1\n      pop\n      jump\t// out\n        /* \"submissions/Zora/Day25AutomatedMarketMaker.sol\":505:525  address public owner */\n    tag_72:\n      0x09\n      0x00\n      swap1\n      sload\n      swap1\n      0x0100\n      exp\n      swap1\n      div\n      0xffffffffffffffffffffffffffffffffffffffff\n      and\n      dup2\n      jump\t// out\n        /* \"@openzeppelin/contracts/token/ERC20/ERC20.sol\":1962:2055  function symbol() public view virtual returns (string memory) {... */\n    tag_76:\n        /* \"@openzeppelin/contracts/token/ERC20/ERC20.sol\":2009:2022  string memory */\n      0x60\n        /* \"@openzeppelin/contracts/token/ERC20/ERC20.sol\":2041:2048  _symbol */\n      0x04\n        /* \"@openzeppelin/contracts/token/ERC20/ERC20.sol\":2034:2048  return _symbol */\n      dup1\n      sload\n      tag_159\n      swap1\n      tag_103\n      jump\t// in\n    tag_159:\n      dup1\n      0x1f\n      add\n      0x20\n      dup1\n      swap2\n      div\n      mul\n      0x20\n      add\n      mload(0x40)\n      swap1\n      dup2\n      add\n      0x40\n      mstore\n      dup1\n      swap3\n      swap2\n      swap1\n      dup2\n      dup2\n      mstore\n      0x20\n      add\n      dup3\n      dup1\n      sload\n      tag_160\n      swap1\n      tag_103\n      jump\t// in\n    tag_160:\n      dup1\n      iszero\n      tag_161\n      jumpi\n      dup1\n      0x1f\n      lt\n      tag_162\n      jumpi\n      0x0100\n      dup1\n      dup4\n      sload\n      div\n      mul\n      dup4\n      mstore\n      swap2\n      0x20\n      add\n      swap2\n      jump(tag_161)\n    tag_162:\n      dup3\n      add\n      swap2\n      swap1\n      0x00\n      mstore\n      keccak256(0x00, 0x20)\n      swap1\n    tag_163:\n      dup2\n      sload\n      dup2\n      mstore\n      swap1\n      0x01\n      add\n      swap1\n      0x20\n      add\n      dup1\n      dup4\n      gt\n      tag_163\n      jumpi\n      dup3\n      swap1\n      sub\n      0x1f\n      and\n      dup3\n      add\n      swap2\n    tag_161:\n      pop\n      pop\n      pop\n      pop\n      pop\n      swap1\n      pop\n        /* \"@openzeppelin/contracts/token/ERC20/ERC20.sol\":1962:2055  function symbol() public view virtual returns (string memory) {... */\n      swap1\n      jump\t// out\n        /* \"submissions/Zora/Day25AutomatedMarketMaker.sol\":2457:3596  function removeLiquidity(uint256 liquidityToRemove) external returns (uint256 amountAOut, uint256 amountBOut) {... */\n    tag_81:\n        /* \"submissions/Zora/Day25AutomatedMarketMaker.sol\":2527:2545  uint256 amountAOut */\n      0x00\n        /* \"submissions/Zora/Day25AutomatedMarketMaker.sol\":2547:2565  uint256 amountBOut */\n      0x00\n        /* \"submissions/Zora/Day25AutomatedMarketMaker.sol\":2606:2607  0 */\n      0x00\n        /* \"submissions/Zora/Day25AutomatedMarketMaker.sol\":2586:2603  liquidityToRemove */\n      dup4\n        /* \"submissions/Zora/Day25AutomatedMarketMaker.sol\":2586:2607  liquidityToRemove > 0 */\n      gt\n        /* \"submissions/Zora/Day25AutomatedMarketMaker.sol\":2578:2643  require(liquidityToRemove > 0, \"Liquidity to remove must be > 0\") */\n      tag_165\n      jumpi\n      mload(0x40)\n      0x08c379a000000000000000000000000000000000000000000000000000000000\n      dup2\n      mstore\n      0x04\n      add\n      tag_166\n      swap1\n      tag_167\n      jump\t// in\n    tag_166:\n      mload(0x40)\n      dup1\n      swap2\n      sub\n      swap1\n      revert\n    tag_165:\n        /* \"submissions/Zora/Day25AutomatedMarketMaker.sol\":2687:2704  liquidityToRemove */\n      dup3\n        /* \"submissions/Zora/Day25AutomatedMarketMaker.sol\":2662:2683  balanceOf(msg.sender) */\n      tag_168\n        /* \"submissions/Zora/Day25AutomatedMarketMaker.sol\":2672:2682  msg.sender */\n      caller\n        /* \"submissions/Zora/Day25AutomatedMarketMaker.sol\":2662:2671  balanceOf */\n      tag_69\n        /* \"submissions/Zora/Day25AutomatedMarketMaker.sol\":2662:2683  balanceOf(msg.sender) */\n      jump\t// in\n    tag_168:\n        /* \"submissions/Zora/Day25AutomatedMarketMaker.sol\":2662:2704  balanceOf(msg.sender) >= liquidityToRemove */\n      lt\n      iszero\n        /* \"submissions/Zora/Day25AutomatedMarketMaker.sol\":2654:2738  require(balanceOf(msg.sender) >= liquidityToRemove, \"Insufficient liquidity tokens\") */\n      tag_169\n      jumpi\n      mload(0x40)\n      0x08c379a000000000000000000000000000000000000000000000000000000000\n      dup2\n      mstore\n      0x04\n      add\n      tag_170\n      swap1\n      tag_171\n      jump\t// in\n    tag_170:\n      mload(0x40)\n      dup1\n      swap2\n      sub\n      swap1\n      revert\n    tag_169:\n        /* \"submissions/Zora/Day25AutomatedMarketMaker.sol\":2784:2806  uint256 totalLiquidity */\n      0x00\n        /* \"submissions/Zora/Day25AutomatedMarketMaker.sol\":2809:2822  totalSupply() */\n      tag_172\n        /* \"submissions/Zora/Day25AutomatedMarketMaker.sol\":2809:2820  totalSupply */\n      tag_48\n        /* \"submissions/Zora/Day25AutomatedMarketMaker.sol\":2809:2822  totalSupply() */\n      jump\t// in\n    tag_172:\n        /* \"submissions/Zora/Day25AutomatedMarketMaker.sol\":2784:2822  uint256 totalLiquidity = totalSupply() */\n      swap1\n      pop\n        /* \"submissions/Zora/Day25AutomatedMarketMaker.sol\":2858:2859  0 */\n      0x00\n        /* \"submissions/Zora/Day25AutomatedMarketMaker.sol\":2841:2855  totalLiquidity */\n      dup2\n        /* \"submissions/Zora/Day25AutomatedMarketMaker.sol\":2841:2859  totalLiquidity > 0 */\n      gt\n        /* \"submissions/Zora/Day25AutomatedMarketMaker.sol\":2833:2888  require(totalLiquidity > 0, \"No liquidity in the pool\") */\n      tag_173\n      jumpi\n      mload(0x40)\n      0x08c379a000000000000000000000000000000000000000000000000000000000\n      dup2\n      mstore\n      0x04\n      add\n      tag_174\n      swap1\n      tag_175\n      jump\t// in\n    tag_174:\n      mload(0x40)\n      dup1\n      swap2\n      sub\n      swap1\n      revert\n    tag_173:\n        /* \"submissions/Zora/Day25AutomatedMarketMaker.sol\":3051:3065  totalLiquidity */\n      dup1\n        /* \"submissions/Zora/Day25AutomatedMarketMaker.sol\":3040:3048  reserveA */\n      sload(0x07)\n        /* \"submissions/Zora/Day25AutomatedMarketMaker.sol\":3020:3037  liquidityToRemove */\n      dup6\n        /* \"submissions/Zora/Day25AutomatedMarketMaker.sol\":3020:3048  liquidityToRemove * reserveA */\n      tag_176\n      swap2\n      swap1\n      tag_123\n      jump\t// in\n    tag_176:\n        /* \"submissions/Zora/Day25AutomatedMarketMaker.sol\":3020:3065  liquidityToRemove * reserveA / totalLiquidity */\n      tag_177\n      swap2\n      swap1\n      tag_125\n      jump\t// in\n    tag_177:\n        /* \"submissions/Zora/Day25AutomatedMarketMaker.sol\":3007:3065  amountAOut = liquidityToRemove * reserveA / totalLiquidity */\n      swap3\n      pop\n        /* \"submissions/Zora/Day25AutomatedMarketMaker.sol\":3120:3134  totalLiquidity */\n      dup1\n        /* \"submissions/Zora/Day25AutomatedMarketMaker.sol\":3109:3117  reserveB */\n      sload(0x08)\n        /* \"submissions/Zora/Day25AutomatedMarketMaker.sol\":3089:3106  liquidityToRemove */\n      dup6\n        /* \"submissions/Zora/Day25AutomatedMarketMaker.sol\":3089:3117  liquidityToRemove * reserveB */\n      tag_178\n      swap2\n      swap1\n      tag_123\n      jump\t// in\n    tag_178:\n        /* \"submissions/Zora/Day25AutomatedMarketMaker.sol\":3089:3134  liquidityToRemove * reserveB / totalLiquidity */\n      tag_179\n      swap2\n      swap1\n      tag_125\n      jump\t// in\n    tag_179:\n        /* \"submissions/Zora/Day25AutomatedMarketMaker.sol\":3076:3134  amountBOut = liquidityToRemove * reserveB / totalLiquidity */\n      swap2\n      pop\n        /* \"submissions/Zora/Day25AutomatedMarketMaker.sol\":3168:3169  0 */\n      0x00\n        /* \"submissions/Zora/Day25AutomatedMarketMaker.sol\":3155:3165  amountAOut */\n      dup4\n        /* \"submissions/Zora/Day25AutomatedMarketMaker.sol\":3155:3169  amountAOut > 0 */\n      gt\n        /* \"submissions/Zora/Day25AutomatedMarketMaker.sol\":3155:3187  amountAOut > 0 && amountBOut > 0 */\n      dup1\n      iszero\n      tag_180\n      jumpi\n      pop\n        /* \"submissions/Zora/Day25AutomatedMarketMaker.sol\":3186:3187  0 */\n      0x00\n        /* \"submissions/Zora/Day25AutomatedMarketMaker.sol\":3173:3183  amountBOut */\n      dup3\n        /* \"submissions/Zora/Day25AutomatedMarketMaker.sol\":3173:3187  amountBOut > 0 */\n      gt\n        /* \"submissions/Zora/Day25AutomatedMarketMaker.sol\":3155:3187  amountAOut > 0 && amountBOut > 0 */\n    tag_180:\n        /* \"submissions/Zora/Day25AutomatedMarketMaker.sol\":3147:3237  require(amountAOut > 0 && amountBOut > 0, \"Insufficient reserves for requested liquidity\") */\n      tag_181\n      jumpi\n      mload(0x40)\n      0x08c379a000000000000000000000000000000000000000000000000000000000\n      dup2\n      mstore\n      0x04\n      add\n      tag_182\n      swap1\n      tag_183\n      jump\t// in\n    tag_182:\n      mload(0x40)\n      dup1\n      swap2\n      sub\n      swap1\n      revert\n    tag_181:\n        /* \"submissions/Zora/Day25AutomatedMarketMaker.sol\":3262:3272  amountAOut */\n      dup3\n        /* \"submissions/Zora/Day25AutomatedMarketMaker.sol\":3250:3258  reserveA */\n      0x07\n      0x00\n        /* \"submissions/Zora/Day25AutomatedMarketMaker.sol\":3250:3272  reserveA -= amountAOut */\n      dup3\n      dup3\n      sload\n      tag_184\n      swap2\n      swap1\n      tag_146\n      jump\t// in\n    tag_184:\n      swap3\n      pop\n      pop\n      dup2\n      swap1\n      sstore\n      pop\n        /* \"submissions/Zora/Day25AutomatedMarketMaker.sol\":3295:3305  amountBOut */\n      dup2\n        /* \"submissions/Zora/Day25AutomatedMarketMaker.sol\":3283:3291  reserveB */\n      0x08\n      0x00\n        /* \"submissions/Zora/Day25AutomatedMarketMaker.sol\":3283:3305  reserveB -= amountBOut */\n      dup3\n      dup3\n      sload\n      tag_185\n      swap2\n      swap1\n      tag_146\n      jump\t// in\n    tag_185:\n      swap3\n      pop\n      pop\n      dup2\n      swap1\n      sstore\n      pop\n        /* \"submissions/Zora/Day25AutomatedMarketMaker.sol\":3318:3354  _burn(msg.sender, liquidityToRemove) */\n      tag_186\n        /* \"submissions/Zora/Day25AutomatedMarketMaker.sol\":3324:3334  msg.sender */\n      caller\n        /* \"submissions/Zora/Day25AutomatedMarketMaker.sol\":3336:3353  liquidityToRemove */\n      dup6\n        /* \"submissions/Zora/Day25AutomatedMarketMaker.sol\":3318:3323  _burn */\n      tag_187\n        /* \"submissions/Zora/Day25AutomatedMarketMaker.sol\":3318:3354  _burn(msg.sender, liquidityToRemove) */\n      jump\t// in\n    tag_186:\n        /* \"submissions/Zora/Day25AutomatedMarketMaker.sol\":3368:3374  tokenA */\n      0x05\n      0x00\n      swap1\n      sload\n      swap1\n      0x0100\n      exp\n      swap1\n      div\n      0xffffffffffffffffffffffffffffffffffffffff\n      and\n        /* \"submissions/Zora/Day25AutomatedMarketMaker.sol\":3368:3383  tokenA.transfer */\n      0xffffffffffffffffffffffffffffffffffffffff\n      and\n      0xa9059cbb\n        /* \"submissions/Zora/Day25AutomatedMarketMaker.sol\":3384:3394  msg.sender */\n      caller\n        /* \"submissions/Zora/Day25AutomatedMarketMaker.sol\":3396:3406  amountAOut */\n      dup6\n        /* \"submissions/Zora/Day25AutomatedMarketMaker.sol\":3368:3407  tokenA.transfer(msg.sender, amountAOut) */\n      mload(0x40)\n      dup4\n      0xffffffff\n      and\n      0xe0\n      shl\n      dup2\n      mstore\n      0x04\n      add\n      tag_188\n      swap3\n      swap2\n      swap1\n      tag_140\n      jump\t// in\n    tag_188:\n      0x20\n      mload(0x40)\n      dup1\n      dup4\n      sub\n      dup2\n      0x00\n      dup8\n      gas\n      call\n      iszero\n      dup1\n      iszero\n      tag_190\n      jumpi\n      returndatacopy(0x00, 0x00, returndatasize)\n      revert(0x00, returndatasize)\n    tag_190:\n      pop\n      pop\n      pop\n      pop\n      mload(0x40)\n      returndatasize\n      not(0x1f)\n      0x1f\n      dup3\n      add\n      and\n      dup3\n      add\n      dup1\n      0x40\n      mstore\n      pop\n      dup2\n      add\n      swap1\n      tag_191\n      swap2\n      swap1\n      tag_138\n      jump\t// in\n    tag_191:\n      pop\n        /* \"submissions/Zora/Day25AutomatedMarketMaker.sol\":3418:3424  tokenB */\n      0x06\n      0x00\n      swap1\n      sload\n      swap1\n      0x0100\n      exp\n      swap1\n      div\n      0xffffffffffffffffffffffffffffffffffffffff\n      and\n        /* \"submissions/Zora/Day25AutomatedMarketMaker.sol\":3418:3433  tokenB.transfer */\n      0xffffffffffffffffffffffffffffffffffffffff\n      and\n      0xa9059cbb\n        /* \"submissions/Zora/Day25AutomatedMarketMaker.sol\":3434:3444  msg.sender */\n      caller\n        /* \"submissions/Zora/Day25AutomatedMarketMaker.sol\":3446:3456  amountBOut */\n      dup5\n        /* \"submissions/Zora/Day25AutomatedMarketMaker.sol\":3418:3457  tokenB.transfer(msg.sender, amountBOut) */\n      mload(0x40)\n      dup4\n      0xffffffff\n      and\n      0xe0\n      shl\n      dup2\n      mstore\n      0x04\n      add\n      tag_192\n      swap3\n      swap2\n      swap1\n      tag_140\n      jump\t// in\n    tag_192:\n      0x20\n      mload(0x40)\n      dup1\n      dup4\n      sub\n      dup2\n      0x00\n      dup8\n      gas\n      call\n      iszero\n      dup1\n      iszero\n      tag_194\n      jumpi\n      returndatacopy(0x00, 0x00, returndatasize)\n      revert(0x00, returndatasize)\n    tag_194:\n      pop\n      pop\n      pop\n      pop\n      mload(0x40)\n      returndatasize\n      not(0x1f)\n      0x1f\n      dup3\n      add\n      and\n      dup3\n      add\n      dup1\n      0x40\n      mstore\n      pop\n      dup2\n      add\n      swap1\n      tag_195\n      swap2\n      swap1\n      tag_138\n      jump\t// in\n    tag_195:\n      pop\n        /* \"submissions/Zora/Day25AutomatedMarketMaker.sol\":3492:3502  msg.sender */\n      caller\n        /* \"submissions/Zora/Day25AutomatedMarketMaker.sol\":3475:3546  LiquidityRemoved(msg.sender, amountAOut, amountBOut, liquidityToRemove) */\n      0xffffffffffffffffffffffffffffffffffffffff\n      and\n      0x1dc8bb69df2b8e91fbdcbfcf93d951b3f0000f085a95fe3f7946d6161439245d\n        /* \"submissions/Zora/Day25AutomatedMarketMaker.sol\":3504:3514  amountAOut */\n      dup5\n        /* \"submissions/Zora/Day25AutomatedMarketMaker.sol\":3516:3526  amountBOut */\n      dup5\n        /* \"submissions/Zora/Day25AutomatedMarketMaker.sol\":3528:3545  liquidityToRemove */\n      dup8\n        /* \"submissions/Zora/Day25AutomatedMarketMaker.sol\":3475:3546  LiquidityRemoved(msg.sender, amountAOut, amountBOut, liquidityToRemove) */\n      mload(0x40)\n      tag_196\n      swap4\n      swap3\n      swap2\n      swap1\n      tag_197\n      jump\t// in\n    tag_196:\n      mload(0x40)\n      dup1\n      swap2\n      sub\n      swap1\n      log2\n        /* \"submissions/Zora/Day25AutomatedMarketMaker.sol\":3557:3588  return (amountAOut, amountBOut) */\n      pop\n        /* \"submissions/Zora/Day25AutomatedMarketMaker.sol\":2457:3596  function removeLiquidity(uint256 liquidityToRemove) external returns (uint256 amountAOut, uint256 amountBOut) {... */\n      swap2\n      pop\n      swap2\n      jump\t// out\n        /* \"submissions/Zora/Day25AutomatedMarketMaker.sol\":1537:2401  function addLiquidity(uint256 amountA, uint256 amountB) external {... */\n    tag_85:\n        /* \"submissions/Zora/Day25AutomatedMarketMaker.sol\":1631:1632  0 */\n      0x00\n        /* \"submissions/Zora/Day25AutomatedMarketMaker.sol\":1621:1628  amountA */\n      dup3\n        /* \"submissions/Zora/Day25AutomatedMarketMaker.sol\":1621:1632  amountA > 0 */\n      gt\n        /* \"submissions/Zora/Day25AutomatedMarketMaker.sol\":1621:1647  amountA > 0 && amountB > 0 */\n      dup1\n      iszero\n      tag_199\n      jumpi\n      pop\n        /* \"submissions/Zora/Day25AutomatedMarketMaker.sol\":1646:1647  0 */\n      0x00\n        /* \"submissions/Zora/Day25AutomatedMarketMaker.sol\":1636:1643  amountB */\n      dup2\n        /* \"submissions/Zora/Day25AutomatedMarketMaker.sol\":1636:1647  amountB > 0 */\n      gt\n        /* \"submissions/Zora/Day25AutomatedMarketMaker.sol\":1621:1647  amountA > 0 && amountB > 0 */\n    tag_199:\n        /* \"submissions/Zora/Day25AutomatedMarketMaker.sol\":1613:1671  require(amountA > 0 && amountB > 0, \"Amounts must be > 0\") */\n      tag_200\n      jumpi\n      mload(0x40)\n      0x08c379a000000000000000000000000000000000000000000000000000000000\n      dup2\n      mstore\n      0x04\n      add\n      tag_201\n      swap1\n      tag_202\n      jump\t// in\n    tag_201:\n      mload(0x40)\n      dup1\n      swap2\n      sub\n      swap1\n      revert\n    tag_200:\n        /* \"submissions/Zora/Day25AutomatedMarketMaker.sol\":1684:1690  tokenA */\n      0x05\n      0x00\n      swap1\n      sload\n      swap1\n      0x0100\n      exp\n      swap1\n      div\n      0xffffffffffffffffffffffffffffffffffffffff\n      and\n        /* \"submissions/Zora/Day25AutomatedMarketMaker.sol\":1684:1703  tokenA.transferFrom */\n      0xffffffffffffffffffffffffffffffffffffffff\n      and\n      0x23b872dd\n        /* \"submissions/Zora/Day25AutomatedMarketMaker.sol\":1704:1714  msg.sender */\n      caller\n        /* \"submissions/Zora/Day25AutomatedMarketMaker.sol\":1724:1728  this */\n      address\n        /* \"submissions/Zora/Day25AutomatedMarketMaker.sol\":1731:1738  amountA */\n      dup6\n        /* \"submissions/Zora/Day25AutomatedMarketMaker.sol\":1684:1739  tokenA.transferFrom(msg.sender, address(this), amountA) */\n      mload(0x40)\n      dup5\n      0xffffffff\n      and\n      0xe0\n      shl\n      dup2\n      mstore\n      0x04\n      add\n      tag_203\n      swap4\n      swap3\n      swap2\n      swap1\n      tag_134\n      jump\t// in\n    tag_203:\n      0x20\n      mload(0x40)\n      dup1\n      dup4\n      sub\n      dup2\n      0x00\n      dup8\n      gas\n      call\n      iszero\n      dup1\n      iszero\n      tag_205\n      jumpi\n      returndatacopy(0x00, 0x00, returndatasize)\n      revert(0x00, returndatasize)\n    tag_205:\n      pop\n      pop\n      pop\n      pop\n      mload(0x40)\n      returndatasize\n      not(0x1f)\n      0x1f\n      dup3\n      add\n      and\n      dup3\n      add\n      dup1\n      0x40\n      mstore\n      pop\n      dup2\n      add\n      swap1\n      tag_206\n      swap2\n      swap1\n      tag_138\n      jump\t// in\n    tag_206:\n      pop\n        /* \"submissions/Zora/Day25AutomatedMarketMaker.sol\":1750:1756  tokenB */\n      0x06\n      0x00\n      swap1\n      sload\n      swap1\n      0x0100\n      exp\n      swap1\n      div\n      0xffffffffffffffffffffffffffffffffffffffff\n      and\n        /* \"submissions/Zora/Day25AutomatedMarketMaker.sol\":1750:1769  tokenB.transferFrom */\n      0xffffffffffffffffffffffffffffffffffffffff\n      and\n      0x23b872dd\n        /* \"submissions/Zora/Day25AutomatedMarketMaker.sol\":1770:1780  msg.sender */\n      caller\n        /* \"submissions/Zora/Day25AutomatedMarketMaker.sol\":1790:1794  this */\n      address\n        /* \"submissions/Zora/Day25AutomatedMarketMaker.sol\":1797:1804  amountB */\n      dup5\n        /* \"submissions/Zora/Day25AutomatedMarketMaker.sol\":1750:1805  tokenB.transferFrom(msg.sender, address(this), amountB) */\n      mload(0x40)\n      dup5\n      0xffffffff\n      and\n      0xe0\n      shl\n      dup2\n      mstore\n      0x04\n      add\n      tag_207\n      swap4\n      swap3\n      swap2\n      swap1\n      tag_134\n      jump\t// in\n    tag_207:\n      0x20\n      mload(0x40)\n      dup1\n      dup4\n      sub\n      dup2\n      0x00\n      dup8\n      gas\n      call\n      iszero\n      dup1\n      iszero\n      tag_209\n      jumpi\n      returndatacopy(0x00, 0x00, returndatasize)\n      revert(0x00, returndatasize)\n    tag_209:\n      pop\n      pop\n      pop\n      pop\n      mload(0x40)\n      returndatasize\n      not(0x1f)\n      0x1f\n      dup3\n      add\n      and\n      dup3\n      add\n      dup1\n      0x40\n      mstore\n      pop\n      dup2\n      add\n      swap1\n      tag_210\n      swap2\n      swap1\n      tag_138\n      jump\t// in\n    tag_210:\n      pop\n        /* \"submissions/Zora/Day25AutomatedMarketMaker.sol\":1908:1925  uint256 liquidity */\n      0x00\n        /* \"submissions/Zora/Day25AutomatedMarketMaker.sol\":1957:1958  0 */\n      0x00\n        /* \"submissions/Zora/Day25AutomatedMarketMaker.sol\":1940:1953  totalSupply() */\n      tag_211\n        /* \"submissions/Zora/Day25AutomatedMarketMaker.sol\":1940:1951  totalSupply */\n      tag_48\n        /* \"submissions/Zora/Day25AutomatedMarketMaker.sol\":1940:1953  totalSupply() */\n      jump\t// in\n    tag_211:\n        /* \"submissions/Zora/Day25AutomatedMarketMaker.sol\":1940:1958  totalSupply() == 0 */\n      sub\n        /* \"submissions/Zora/Day25AutomatedMarketMaker.sol\":1936:2191  if (totalSupply() == 0) {... */\n      tag_212\n      jumpi\n        /* \"submissions/Zora/Day25AutomatedMarketMaker.sol\":1987:2010  sqrt(amountA * amountB) */\n      tag_213\n        /* \"submissions/Zora/Day25AutomatedMarketMaker.sol\":2002:2009  amountB */\n      dup3\n        /* \"submissions/Zora/Day25AutomatedMarketMaker.sol\":1992:1999  amountA */\n      dup5\n        /* \"submissions/Zora/Day25AutomatedMarketMaker.sol\":1992:2009  amountA * amountB */\n      tag_214\n      swap2\n      swap1\n      tag_123\n      jump\t// in\n    tag_214:\n        /* \"submissions/Zora/Day25AutomatedMarketMaker.sol\":1987:1991  sqrt */\n      tag_215\n        /* \"submissions/Zora/Day25AutomatedMarketMaker.sol\":1987:2010  sqrt(amountA * amountB) */\n      jump\t// in\n    tag_213:\n        /* \"submissions/Zora/Day25AutomatedMarketMaker.sol\":1975:2010  liquidity = sqrt(amountA * amountB) */\n      swap1\n      pop\n        /* \"submissions/Zora/Day25AutomatedMarketMaker.sol\":1936:2191  if (totalSupply() == 0) {... */\n      jump(tag_216)\n    tag_212:\n        /* \"submissions/Zora/Day25AutomatedMarketMaker.sol\":2055:2179  min(... */\n      tag_217\n        /* \"submissions/Zora/Day25AutomatedMarketMaker.sol\":2103:2111  reserveA */\n      sload(0x07)\n        /* \"submissions/Zora/Day25AutomatedMarketMaker.sol\":2087:2100  totalSupply() */\n      tag_218\n        /* \"submissions/Zora/Day25AutomatedMarketMaker.sol\":2087:2098  totalSupply */\n      tag_48\n        /* \"submissions/Zora/Day25AutomatedMarketMaker.sol\":2087:2100  totalSupply() */\n      jump\t// in\n    tag_218:\n        /* \"submissions/Zora/Day25AutomatedMarketMaker.sol\":2077:2084  amountA */\n      dup6\n        /* \"submissions/Zora/Day25AutomatedMarketMaker.sol\":2077:2100  amountA * totalSupply() */\n      tag_219\n      swap2\n      swap1\n      tag_123\n      jump\t// in\n    tag_219:\n        /* \"submissions/Zora/Day25AutomatedMarketMaker.sol\":2077:2111  amountA * totalSupply() / reserveA */\n      tag_220\n      swap2\n      swap1\n      tag_125\n      jump\t// in\n    tag_220:\n        /* \"submissions/Zora/Day25AutomatedMarketMaker.sol\":2156:2164  reserveB */\n      sload(0x08)\n        /* \"submissions/Zora/Day25AutomatedMarketMaker.sol\":2140:2153  totalSupply() */\n      tag_221\n        /* \"submissions/Zora/Day25AutomatedMarketMaker.sol\":2140:2151  totalSupply */\n      tag_48\n        /* \"submissions/Zora/Day25AutomatedMarketMaker.sol\":2140:2153  totalSupply() */\n      jump\t// in\n    tag_221:\n        /* \"submissions/Zora/Day25AutomatedMarketMaker.sol\":2130:2137  amountB */\n      dup6\n        /* \"submissions/Zora/Day25AutomatedMarketMaker.sol\":2130:2153  amountB * totalSupply() */\n      tag_222\n      swap2\n      swap1\n      tag_123\n      jump\t// in\n    tag_222:\n        /* \"submissions/Zora/Day25AutomatedMarketMaker.sol\":2130:2164  amountB * totalSupply() / reserveB */\n      tag_223\n      swap2\n      swap1\n      tag_125\n      jump\t// in\n    tag_223:\n        /* \"submissions/Zora/Day25AutomatedMarketMaker.sol\":2055:2058  min */\n      tag_224\n        /* \"submissions/Zora/Day25AutomatedMarketMaker.sol\":2055:2179  min(... */\n      jump\t// in\n    tag_217:\n        /* \"submissions/Zora/Day25AutomatedMarketMaker.sol\":2043:2179  liquidity = min(... */\n      swap1\n      pop\n        /* \"submissions/Zora/Day25AutomatedMarketMaker.sol\":1936:2191  if (totalSupply() == 0) {... */\n    tag_216:\n        /* \"submissions/Zora/Day25AutomatedMarketMaker.sol\":2203:2231  _mint(msg.sender, liquidity) */\n      tag_225\n        /* \"submissions/Zora/Day25AutomatedMarketMaker.sol\":2209:2219  msg.sender */\n      caller\n        /* \"submissions/Zora/Day25AutomatedMarketMaker.sol\":2221:2230  liquidity */\n      dup3\n        /* \"submissions/Zora/Day25AutomatedMarketMaker.sol\":2203:2208  _mint */\n      tag_226\n        /* \"submissions/Zora/Day25AutomatedMarketMaker.sol\":2203:2231  _mint(msg.sender, liquidity) */\n      jump\t// in\n    tag_225:\n        /* \"submissions/Zora/Day25AutomatedMarketMaker.sol\":2283:2290  amountA */\n      dup3\n        /* \"submissions/Zora/Day25AutomatedMarketMaker.sol\":2271:2279  reserveA */\n      0x07\n      0x00\n        /* \"submissions/Zora/Day25AutomatedMarketMaker.sol\":2271:2290  reserveA += amountA */\n      dup3\n      dup3\n      sload\n      tag_227\n      swap2\n      swap1\n      tag_127\n      jump\t// in\n    tag_227:\n      swap3\n      pop\n      pop\n      dup2\n      swap1\n      sstore\n      pop\n        /* \"submissions/Zora/Day25AutomatedMarketMaker.sol\":2313:2320  amountB */\n      dup2\n        /* \"submissions/Zora/Day25AutomatedMarketMaker.sol\":2301:2309  reserveB */\n      0x08\n      0x00\n        /* \"submissions/Zora/Day25AutomatedMarketMaker.sol\":2301:2320  reserveB += amountB */\n      dup3\n      dup3\n      sload\n      tag_228\n      swap2\n      swap1\n      tag_127\n      jump\t// in\n    tag_228:\n      swap3\n      pop\n      pop\n      dup2\n      swap1\n      sstore\n      pop\n        /* \"submissions/Zora/Day25AutomatedMarketMaker.sol\":2353:2363  msg.sender */\n      caller\n        /* \"submissions/Zora/Day25AutomatedMarketMaker.sol\":2338:2393  LiquidityAdded(msg.sender, amountA, amountB, liquidity) */\n      0xffffffffffffffffffffffffffffffffffffffff\n      and\n      0x64b83944e79c3ce8d4c297411de637c3e102d064677aac0c163976ebdcd6f50e\n        /* \"submissions/Zora/Day25AutomatedMarketMaker.sol\":2365:2372  amountA */\n      dup5\n        /* \"submissions/Zora/Day25AutomatedMarketMaker.sol\":2374:2381  amountB */\n      dup5\n        /* \"submissions/Zora/Day25AutomatedMarketMaker.sol\":2383:2392  liquidity */\n      dup5\n        /* \"submissions/Zora/Day25AutomatedMarketMaker.sol\":2338:2393  LiquidityAdded(msg.sender, amountA, amountB, liquidity) */\n      mload(0x40)\n      tag_229\n      swap4\n      swap3\n      swap2\n      swap1\n      tag_197\n      jump\t// in\n    tag_229:\n      mload(0x40)\n      dup1\n      swap2\n      sub\n      swap1\n      log2\n        /* \"submissions/Zora/Day25AutomatedMarketMaker.sol\":1602:2401  {... */\n      pop\n        /* \"submissions/Zora/Day25AutomatedMarketMaker.sol\":1537:2401  function addLiquidity(uint256 amountA, uint256 amountB) external {... */\n      pop\n      pop\n      jump\t// out\n        /* \"@openzeppelin/contracts/token/ERC20/ERC20.sol\":3244:3422  function transfer(address to, uint256 value) public virtual returns (bool) {... */\n    tag_88:\n        /* \"@openzeppelin/contracts/token/ERC20/ERC20.sol\":3313:3317  bool */\n      0x00\n        /* \"@openzeppelin/contracts/token/ERC20/ERC20.sol\":3329:3342  address owner */\n      0x00\n        /* \"@openzeppelin/contracts/token/ERC20/ERC20.sol\":3345:3357  _msgSender() */\n      tag_231\n        /* \"@openzeppelin/contracts/token/ERC20/ERC20.sol\":3345:3355  _msgSender */\n      tag_111\n        /* \"@openzeppelin/contracts/token/ERC20/ERC20.sol\":3345:3357  _msgSender() */\n      jump\t// in\n    tag_231:\n        /* \"@openzeppelin/contracts/token/ERC20/ERC20.sol\":3329:3357  address owner = _msgSender() */\n      swap1\n      pop\n        /* \"@openzeppelin/contracts/token/ERC20/ERC20.sol\":3367:3394  _transfer(owner, to, value) */\n      tag_232\n        /* \"@openzeppelin/contracts/token/ERC20/ERC20.sol\":3377:3382  owner */\n      dup2\n        /* \"@openzeppelin/contracts/token/ERC20/ERC20.sol\":3384:3386  to */\n      dup6\n        /* \"@openzeppelin/contracts/token/ERC20/ERC20.sol\":3388:3393  value */\n      dup6\n        /* \"@openzeppelin/contracts/token/ERC20/ERC20.sol\":3367:3376  _transfer */\n      tag_155\n        /* \"@openzeppelin/contracts/token/ERC20/ERC20.sol\":3367:3394  _transfer(owner, to, value) */\n      jump\t// in\n    tag_232:\n        /* \"@openzeppelin/contracts/token/ERC20/ERC20.sol\":3411:3415  true */\n      0x01\n        /* \"@openzeppelin/contracts/token/ERC20/ERC20.sol\":3404:3415  return true */\n      swap2\n      pop\n      pop\n        /* \"@openzeppelin/contracts/token/ERC20/ERC20.sol\":3244:3422  function transfer(address to, uint256 value) public virtual returns (bool) {... */\n      swap3\n      swap2\n      pop\n      pop\n      jump\t// out\n        /* \"submissions/Zora/Day25AutomatedMarketMaker.sol\":4446:5157  function swapBforA(uint256 amountBIn, uint256 minAOut) external {... */\n    tag_92:\n        /* \"submissions/Zora/Day25AutomatedMarketMaker.sol\":4541:4542  0 */\n      0x00\n        /* \"submissions/Zora/Day25AutomatedMarketMaker.sol\":4529:4538  amountBIn */\n      dup3\n        /* \"submissions/Zora/Day25AutomatedMarketMaker.sol\":4529:4542  amountBIn > 0 */\n      gt\n        /* \"submissions/Zora/Day25AutomatedMarketMaker.sol\":4521:4565  require(amountBIn > 0, \"Amount must be > 0\") */\n      tag_234\n      jumpi\n      mload(0x40)\n      0x08c379a000000000000000000000000000000000000000000000000000000000\n      dup2\n      mstore\n      0x04\n      add\n      tag_235\n      swap1\n      tag_117\n      jump\t// in\n    tag_235:\n      mload(0x40)\n      dup1\n      swap2\n      sub\n      swap1\n      revert\n    tag_234:\n        /* \"submissions/Zora/Day25AutomatedMarketMaker.sol\":4595:4596  0 */\n      0x00\n        /* \"submissions/Zora/Day25AutomatedMarketMaker.sol\":4584:4592  reserveA */\n      sload(0x07)\n        /* \"submissions/Zora/Day25AutomatedMarketMaker.sol\":4584:4596  reserveA > 0 */\n      gt\n        /* \"submissions/Zora/Day25AutomatedMarketMaker.sol\":4584:4612  reserveA > 0 && reserveB > 0 */\n      dup1\n      iszero\n      tag_236\n      jumpi\n      pop\n        /* \"submissions/Zora/Day25AutomatedMarketMaker.sol\":4611:4612  0 */\n      0x00\n        /* \"submissions/Zora/Day25AutomatedMarketMaker.sol\":4600:4608  reserveB */\n      sload(0x08)\n        /* \"submissions/Zora/Day25AutomatedMarketMaker.sol\":4600:4612  reserveB > 0 */\n      gt\n        /* \"submissions/Zora/Day25AutomatedMarketMaker.sol\":4584:4612  reserveA > 0 && reserveB > 0 */\n    tag_236:\n        /* \"submissions/Zora/Day25AutomatedMarketMaker.sol\":4576:4638  require(reserveA > 0 && reserveB > 0, \"Insufficient reserves\") */\n      tag_237\n      jumpi\n      mload(0x40)\n      0x08c379a000000000000000000000000000000000000000000000000000000000\n      dup2\n      mstore\n      0x04\n      add\n      tag_238\n      swap1\n      tag_121\n      jump\t// in\n    tag_238:\n      mload(0x40)\n      dup1\n      swap2\n      sub\n      swap1\n      revert\n    tag_237:\n        /* \"submissions/Zora/Day25AutomatedMarketMaker.sol\":4651:4675  uint256 amountBInWithFee */\n      0x00\n        /* \"submissions/Zora/Day25AutomatedMarketMaker.sol\":4696:4700  1000 */\n      0x03e8\n        /* \"submissions/Zora/Day25AutomatedMarketMaker.sol\":4690:4693  997 */\n      0x03e5\n        /* \"submissions/Zora/Day25AutomatedMarketMaker.sol\":4678:4687  amountBIn */\n      dup5\n        /* \"submissions/Zora/Day25AutomatedMarketMaker.sol\":4678:4693  amountBIn * 997 */\n      tag_239\n      swap2\n      swap1\n      tag_123\n      jump\t// in\n    tag_239:\n        /* \"submissions/Zora/Day25AutomatedMarketMaker.sol\":4678:4700  amountBIn * 997 / 1000 */\n      tag_240\n      swap2\n      swap1\n      tag_125\n      jump\t// in\n    tag_240:\n        /* \"submissions/Zora/Day25AutomatedMarketMaker.sol\":4651:4700  uint256 amountBInWithFee = amountBIn * 997 / 1000 */\n      swap1\n      pop\n        /* \"submissions/Zora/Day25AutomatedMarketMaker.sol\":4711:4729  uint256 amountAOut */\n      0x00\n        /* \"submissions/Zora/Day25AutomatedMarketMaker.sol\":4774:4790  amountBInWithFee */\n      dup2\n        /* \"submissions/Zora/Day25AutomatedMarketMaker.sol\":4763:4771  reserveB */\n      sload(0x08)\n        /* \"submissions/Zora/Day25AutomatedMarketMaker.sol\":4763:4790  reserveB + amountBInWithFee */\n      tag_241\n      swap2\n      swap1\n      tag_127\n      jump\t// in\n    tag_241:\n        /* \"submissions/Zora/Day25AutomatedMarketMaker.sol\":4743:4759  amountBInWithFee */\n      dup3\n        /* \"submissions/Zora/Day25AutomatedMarketMaker.sol\":4732:4740  reserveA */\n      sload(0x07)\n        /* \"submissions/Zora/Day25AutomatedMarketMaker.sol\":4732:4759  reserveA * amountBInWithFee */\n      tag_242\n      swap2\n      swap1\n      tag_123\n      jump\t// in\n    tag_242:\n        /* \"submissions/Zora/Day25AutomatedMarketMaker.sol\":4732:4791  reserveA * amountBInWithFee / (reserveB + amountBInWithFee) */\n      tag_243\n      swap2\n      swap1\n      tag_125\n      jump\t// in\n    tag_243:\n        /* \"submissions/Zora/Day25AutomatedMarketMaker.sol\":4711:4791  uint256 amountAOut = reserveA * amountBInWithFee / (reserveB + amountBInWithFee) */\n      swap1\n      pop\n        /* \"submissions/Zora/Day25AutomatedMarketMaker.sol\":4826:4833  minAOut */\n      dup3\n        /* \"submissions/Zora/Day25AutomatedMarketMaker.sol\":4812:4822  amountAOut */\n      dup2\n        /* \"submissions/Zora/Day25AutomatedMarketMaker.sol\":4812:4833  amountAOut >= minAOut */\n      lt\n      iszero\n        /* \"submissions/Zora/Day25AutomatedMarketMaker.sol\":4804:4855  require(amountAOut >= minAOut, \"Slippage too high\") */\n      tag_244\n      jumpi\n      mload(0x40)\n      0x08c379a000000000000000000000000000000000000000000000000000000000\n      dup2\n      mstore\n      0x04\n      add\n      tag_245\n      swap1\n      tag_132\n      jump\t// in\n    tag_245:\n      mload(0x40)\n      dup1\n      swap2\n      sub\n      swap1\n      revert\n    tag_244:\n        /* \"submissions/Zora/Day25AutomatedMarketMaker.sol\":4868:4874  tokenB */\n      0x06\n      0x00\n      swap1\n      sload\n      swap1\n      0x0100\n      exp\n      swap1\n      div\n      0xffffffffffffffffffffffffffffffffffffffff\n      and\n        /* \"submissions/Zora/Day25AutomatedMarketMaker.sol\":4868:4887  tokenB.transferFrom */\n      0xffffffffffffffffffffffffffffffffffffffff\n      and\n      0x23b872dd\n        /* \"submissions/Zora/Day25AutomatedMarketMaker.sol\":4888:4898  msg.sender */\n      caller\n        /* \"submissions/Zora/Day25AutomatedMarketMaker.sol\":4908:4912  this */\n      address\n        /* \"submissions/Zora/Day25AutomatedMarketMaker.sol\":4915:4924  amountBIn */\n      dup8\n        /* \"submissions/Zora/Day25AutomatedMarketMaker.sol\":4868:4925  tokenB.transferFrom(msg.sender, address(this), amountBIn) */\n      mload(0x40)\n      dup5\n      0xffffffff\n      and\n      0xe0\n      shl\n      dup2\n      mstore\n      0x04\n      add\n      tag_246\n      swap4\n      swap3\n      swap2\n      swap1\n      tag_134\n      jump\t// in\n    tag_246:\n      0x20\n      mload(0x40)\n      dup1\n      dup4\n      sub\n      dup2\n      0x00\n      dup8\n      gas\n      call\n      iszero\n      dup1\n      iszero\n      tag_248\n      jumpi\n      returndatacopy(0x00, 0x00, returndatasize)\n      revert(0x00, returndatasize)\n    tag_248:\n      pop\n      pop\n      pop\n      pop\n      mload(0x40)\n      returndatasize\n      not(0x1f)\n      0x1f\n      dup3\n      add\n      and\n      dup3\n      add\n      dup1\n      0x40\n      mstore\n      pop\n      dup2\n      add\n      swap1\n      tag_249\n      swap2\n      swap1\n      tag_138\n      jump\t// in\n    tag_249:\n      pop\n        /* \"submissions/Zora/Day25AutomatedMarketMaker.sol\":4936:4942  tokenA */\n      0x05\n      0x00\n      swap1\n      sload\n      swap1\n      0x0100\n      exp\n      swap1\n      div\n      0xffffffffffffffffffffffffffffffffffffffff\n      and\n        /* \"submissions/Zora/Day25AutomatedMarketMaker.sol\":4936:4951  tokenA.transfer */\n      0xffffffffffffffffffffffffffffffffffffffff\n      and\n      0xa9059cbb\n        /* \"submissions/Zora/Day25AutomatedMarketMaker.sol\":4952:4962  msg.sender */\n      caller\n        /* \"submissions/Zora/Day25AutomatedMarketMaker.sol\":4964:4974  amountAOut */\n      dup4\n        /* \"submissions/Zora/Day25AutomatedMarketMaker.sol\":4936:4975  tokenA.transfer(msg.sender, amountAOut) */\n      mload(0x40)\n      dup4\n      0xffffffff\n      and\n      0xe0\n      shl\n      dup2\n      mstore\n      0x04\n      add\n      tag_250\n      swap3\n      swap2\n      swap1\n      tag_140\n      jump\t// in\n    tag_250:\n      0x20\n      mload(0x40)\n      dup1\n      dup4\n      sub\n      dup2\n      0x00\n      dup8\n      gas\n      call\n      iszero\n      dup1\n      iszero\n      tag_252\n      jumpi\n      returndatacopy(0x00, 0x00, returndatasize)\n      revert(0x00, returndatasize)\n    tag_252:\n      pop\n      pop\n      pop\n      pop\n      mload(0x40)\n      returndatasize\n      not(0x1f)\n      0x1f\n      dup3\n      add\n      and\n      dup3\n      add\n      dup1\n      0x40\n      mstore\n      pop\n      dup2\n      add\n      swap1\n      tag_253\n      swap2\n      swap1\n      tag_138\n      jump\t// in\n    tag_253:\n      pop\n        /* \"submissions/Zora/Day25AutomatedMarketMaker.sol\":5000:5016  amountBInWithFee */\n      dup2\n        /* \"submissions/Zora/Day25AutomatedMarketMaker.sol\":4988:4996  reserveB */\n      0x08\n      0x00\n        /* \"submissions/Zora/Day25AutomatedMarketMaker.sol\":4988:5016  reserveB += amountBInWithFee */\n      dup3\n      dup3\n      sload\n      tag_254\n      swap2\n      swap1\n      tag_127\n      jump\t// in\n    tag_254:\n      swap3\n      pop\n      pop\n      dup2\n      swap1\n      sstore\n      pop\n        /* \"submissions/Zora/Day25AutomatedMarketMaker.sol\":5039:5049  amountAOut */\n      dup1\n        /* \"submissions/Zora/Day25AutomatedMarketMaker.sol\":5027:5035  reserveA */\n      0x07\n      0x00\n        /* \"submissions/Zora/Day25AutomatedMarketMaker.sol\":5027:5049  reserveA -= amountAOut */\n      dup3\n      dup3\n      sload\n      tag_255\n      swap2\n      swap1\n      tag_146\n      jump\t// in\n    tag_255:\n      swap3\n      pop\n      pop\n      dup2\n      swap1\n      sstore\n      pop\n        /* \"submissions/Zora/Day25AutomatedMarketMaker.sol\":5081:5091  msg.sender */\n      caller\n        /* \"submissions/Zora/Day25AutomatedMarketMaker.sol\":5067:5149  TokensSwapped(msg.sender, address(tokenB), amountBIn, address(tokenA), amountAOut) */\n      0xffffffffffffffffffffffffffffffffffffffff\n      and\n      0x631fb37dba9bbcb8b2f3be2d669e365ae9f1bd850cc57dfe8b7ccd7d979a2bba\n        /* \"submissions/Zora/Day25AutomatedMarketMaker.sol\":5101:5107  tokenB */\n      0x06\n      0x00\n      swap1\n      sload\n      swap1\n      0x0100\n      exp\n      swap1\n      div\n      0xffffffffffffffffffffffffffffffffffffffff\n      and\n        /* \"submissions/Zora/Day25AutomatedMarketMaker.sol\":5110:5119  amountBIn */\n      dup7\n        /* \"submissions/Zora/Day25AutomatedMarketMaker.sol\":5129:5135  tokenA */\n      0x05\n      0x00\n      swap1\n      sload\n      swap1\n      0x0100\n      exp\n      swap1\n      div\n      0xffffffffffffffffffffffffffffffffffffffff\n      and\n        /* \"submissions/Zora/Day25AutomatedMarketMaker.sol\":5138:5148  amountAOut */\n      dup6\n        /* \"submissions/Zora/Day25AutomatedMarketMaker.sol\":5067:5149  TokensSwapped(msg.sender, address(tokenB), amountBIn, address(tokenA), amountAOut) */\n      mload(0x40)\n      tag_256\n      swap5\n      swap4\n      swap3\n      swap2\n      swap1\n      tag_148\n      jump\t// in\n    tag_256:\n      mload(0x40)\n      dup1\n      swap2\n      sub\n      swap1\n      log2\n        /* \"submissions/Zora/Day25AutomatedMarketMaker.sol\":4510:5157  {... */\n      pop\n      pop\n        /* \"submissions/Zora/Day25AutomatedMarketMaker.sol\":4446:5157  function swapBforA(uint256 amountBIn, uint256 minAOut) external {... */\n      pop\n      pop\n      jump\t// out\n        /* \"submissions/Zora/Day25AutomatedMarketMaker.sol\":414:437  uint256 public reserveA */\n    tag_94:\n      sload(0x07)\n      dup2\n      jump\t// out\n        /* \"@openzeppelin/contracts/token/ERC20/ERC20.sol\":3455:3595  function allowance(address owner, address spender) public view virtual returns (uint256) {... */\n    tag_99:\n        /* \"@openzeppelin/contracts/token/ERC20/ERC20.sol\":3535:3542  uint256 */\n      0x00\n        /* \"@openzeppelin/contracts/token/ERC20/ERC20.sol\":3561:3572  _allowances */\n      0x01\n        /* \"@openzeppelin/contracts/token/ERC20/ERC20.sol\":3561:3579  _allowances[owner] */\n      0x00\n        /* \"@openzeppelin/contracts/token/ERC20/ERC20.sol\":3573:3578  owner */\n      dup5\n        /* \"@openzeppelin/contracts/token/ERC20/ERC20.sol\":3561:3579  _allowances[owner] */\n      0xffffffffffffffffffffffffffffffffffffffff\n      and\n      0xffffffffffffffffffffffffffffffffffffffff\n      and\n      dup2\n      mstore\n      0x20\n      add\n      swap1\n      dup2\n      mstore\n      0x20\n      add\n      0x00\n      keccak256\n        /* \"@openzeppelin/contracts/token/ERC20/ERC20.sol\":3561:3588  _allowances[owner][spender] */\n      0x00\n        /* \"@openzeppelin/contracts/token/ERC20/ERC20.sol\":3580:3587  spender */\n      dup4\n        /* \"@openzeppelin/contracts/token/ERC20/ERC20.sol\":3561:3588  _allowances[owner][spender] */\n      0xffffffffffffffffffffffffffffffffffffffff\n      and\n      0xffffffffffffffffffffffffffffffffffffffff\n      and\n      dup2\n      mstore\n      0x20\n      add\n      swap1\n      dup2\n      mstore\n      0x20\n      add\n      0x00\n      keccak256\n      sload\n        /* \"@openzeppelin/contracts/token/ERC20/ERC20.sol\":3554:3588  return _allowances[owner][spender] */\n      swap1\n      pop\n        /* \"@openzeppelin/contracts/token/ERC20/ERC20.sol\":3455:3595  function allowance(address owner, address spender) public view virtual returns (uint256) {... */\n      swap3\n      swap2\n      pop\n      pop\n      jump\t// out\n        /* \"@openzeppelin/contracts/utils/Context.sol\":656:752  function _msgSender() internal view virtual returns (address) {... */\n    tag_111:\n        /* \"@openzeppelin/contracts/utils/Context.sol\":709:716  address */\n      0x00\n        /* \"@openzeppelin/contracts/utils/Context.sol\":735:745  msg.sender */\n      caller\n        /* \"@openzeppelin/contracts/utils/Context.sol\":728:745  return msg.sender */\n      swap1\n      pop\n        /* \"@openzeppelin/contracts/utils/Context.sol\":656:752  function _msgSender() internal view virtual returns (address) {... */\n      swap1\n      jump\t// out\n        /* \"@openzeppelin/contracts/token/ERC20/ERC20.sol\":8630:8758  function _approve(address owner, address spender, uint256 value) internal {... */\n    tag_113:\n        /* \"@openzeppelin/contracts/token/ERC20/ERC20.sol\":8714:8751  _approve(owner, spender, value, true) */\n      tag_260\n        /* \"@openzeppelin/contracts/token/ERC20/ERC20.sol\":8723:8728  owner */\n      dup4\n        /* \"@openzeppelin/contracts/token/ERC20/ERC20.sol\":8730:8737  spender */\n      dup4\n        /* \"@openzeppelin/contracts/token/ERC20/ERC20.sol\":8739:8744  value */\n      dup4\n        /* \"@openzeppelin/contracts/token/ERC20/ERC20.sol\":8746:8750  true */\n      0x01\n        /* \"@openzeppelin/contracts/token/ERC20/ERC20.sol\":8714:8722  _approve */\n      tag_261\n        /* \"@openzeppelin/contracts/token/ERC20/ERC20.sol\":8714:8751  _approve(owner, spender, value, true) */\n      jump\t// in\n    tag_260:\n        /* \"@openzeppelin/contracts/token/ERC20/ERC20.sol\":8630:8758  function _approve(address owner, address spender, uint256 value) internal {... */\n      pop\n      pop\n      pop\n      jump\t// out\n        /* \"@openzeppelin/contracts/token/ERC20/ERC20.sol\":10319:10795  function _spendAllowance(address owner, address spender, uint256 value) internal virtual {... */\n    tag_153:\n        /* \"@openzeppelin/contracts/token/ERC20/ERC20.sol\":10418:10442  uint256 currentAllowance */\n      0x00\n        /* \"@openzeppelin/contracts/token/ERC20/ERC20.sol\":10445:10470  allowance(owner, spender) */\n      tag_263\n        /* \"@openzeppelin/contracts/token/ERC20/ERC20.sol\":10455:10460  owner */\n      dup5\n        /* \"@openzeppelin/contracts/token/ERC20/ERC20.sol\":10462:10469  spender */\n      dup5\n        /* \"@openzeppelin/contracts/token/ERC20/ERC20.sol\":10445:10454  allowance */\n      tag_99\n        /* \"@openzeppelin/contracts/token/ERC20/ERC20.sol\":10445:10470  allowance(owner, spender) */\n      jump\t// in\n    tag_263:\n        /* \"@openzeppelin/contracts/token/ERC20/ERC20.sol\":10418:10470  uint256 currentAllowance = allowance(owner, spender) */\n      swap1\n      pop\n        /* \"@openzeppelin/contracts/token/ERC20/ERC20.sol\":10503:10520  type(uint256).max */\n      0xffffffffffffffffffffffffffffffffffffffffffffffffffffffffffffffff\n        /* \"@openzeppelin/contracts/token/ERC20/ERC20.sol\":10484:10500  currentAllowance */\n      dup2\n        /* \"@openzeppelin/contracts/token/ERC20/ERC20.sol\":10484:10520  currentAllowance < type(uint256).max */\n      lt\n        /* \"@openzeppelin/contracts/token/ERC20/ERC20.sol\":10480:10789  if (currentAllowance < type(uint256).max) {... */\n      iszero\n      tag_264\n      jumpi\n        /* \"@openzeppelin/contracts/token/ERC20/ERC20.sol\":10559:10564  value */\n      dup2\n        /* \"@openzeppelin/contracts/token/ERC20/ERC20.sol\":10540:10556  currentAllowance */\n      dup2\n        /* \"@openzeppelin/contracts/token/ERC20/ERC20.sol\":10540:10564  currentAllowance < value */\n      lt\n        /* \"@openzeppelin/contracts/token/ERC20/ERC20.sol\":10536:10666  if (currentAllowance < value) {... */\n      iszero\n      tag_265\n      jumpi\n        /* \"@openzeppelin/contracts/token/ERC20/ERC20.sol\":10618:10625  spender */\n      dup3\n        /* \"@openzeppelin/contracts/token/ERC20/ERC20.sol\":10627:10643  currentAllowance */\n      dup2\n        /* \"@openzeppelin/contracts/token/ERC20/ERC20.sol\":10645:10650  value */\n      dup4\n        /* \"@openzeppelin/contracts/token/ERC20/ERC20.sol\":10591:10651  ERC20InsufficientAllowance(spender, currentAllowance, value) */\n      mload(0x40)\n      0xfb8f41b200000000000000000000000000000000000000000000000000000000\n      dup2\n      mstore\n      0x04\n      add\n      tag_266\n      swap4\n      swap3\n      swap2\n      swap1\n      tag_267\n      jump\t// in\n    tag_266:\n      mload(0x40)\n      dup1\n      swap2\n      sub\n      swap1\n      revert\n        /* \"@openzeppelin/contracts/token/ERC20/ERC20.sol\":10536:10666  if (currentAllowance < value) {... */\n    tag_265:\n        /* \"@openzeppelin/contracts/token/ERC20/ERC20.sol\":10707:10764  _approve(owner, spender, currentAllowance - value, false) */\n      tag_268\n        /* \"@openzeppelin/contracts/token/ERC20/ERC20.sol\":10716:10721  owner */\n      dup5\n        /* \"@openzeppelin/contracts/token/ERC20/ERC20.sol\":10723:10730  spender */\n      dup5\n        /* \"@openzeppelin/contracts/token/ERC20/ERC20.sol\":10751:10756  value */\n      dup5\n        /* \"@openzeppelin/contracts/token/ERC20/ERC20.sol\":10732:10748  currentAllowance */\n      dup5\n        /* \"@openzeppelin/contracts/token/ERC20/ERC20.sol\":10732:10756  currentAllowance - value */\n      sub\n        /* \"@openzeppelin/contracts/token/ERC20/ERC20.sol\":10758:10763  false */\n      0x00\n        /* \"@openzeppelin/contracts/token/ERC20/ERC20.sol\":10707:10715  _approve */\n      tag_261\n        /* \"@openzeppelin/contracts/token/ERC20/ERC20.sol\":10707:10764  _approve(owner, spender, currentAllowance - value, false) */\n      jump\t// in\n    tag_268:\n        /* \"@openzeppelin/contracts/token/ERC20/ERC20.sol\":10480:10789  if (currentAllowance < type(uint256).max) {... */\n    tag_264:\n        /* \"@openzeppelin/contracts/token/ERC20/ERC20.sol\":10408:10795  {... */\n      pop\n        /* \"@openzeppelin/contracts/token/ERC20/ERC20.sol\":10319:10795  function _spendAllowance(address owner, address spender, uint256 value) internal virtual {... */\n      pop\n      pop\n      pop\n      jump\t// out\n        /* \"@openzeppelin/contracts/token/ERC20/ERC20.sol\":5297:5597  function _transfer(address from, address to, uint256 value) internal {... */\n    tag_155:\n        /* \"@openzeppelin/contracts/token/ERC20/ERC20.sol\":5396:5397  0 */\n      0x00\n        /* \"@openzeppelin/contracts/token/ERC20/ERC20.sol\":5380:5398  from == address(0) */\n      0xffffffffffffffffffffffffffffffffffffffff\n      and\n        /* \"@openzeppelin/contracts/token/ERC20/ERC20.sol\":5380:5384  from */\n      dup4\n        /* \"@openzeppelin/contracts/token/ERC20/ERC20.sol\":5380:5398  from == address(0) */\n      0xffffffffffffffffffffffffffffffffffffffff\n      and\n      sub\n        /* \"@openzeppelin/contracts/token/ERC20/ERC20.sol\":5376:5462  if (from == address(0)) {... */\n      tag_270\n      jumpi\n        /* \"@openzeppelin/contracts/token/ERC20/ERC20.sol\":5448:5449  0 */\n      0x00\n        /* \"@openzeppelin/contracts/token/ERC20/ERC20.sol\":5421:5451  ERC20InvalidSender(address(0)) */\n      mload(0x40)\n      0x96c6fd1e00000000000000000000000000000000000000000000000000000000\n      dup2\n      mstore\n      0x04\n      add\n      tag_271\n      swap2\n      swap1\n      tag_74\n      jump\t// in\n    tag_271:\n      mload(0x40)\n      dup1\n      swap2\n      sub\n      swap1\n      revert\n        /* \"@openzeppelin/contracts/token/ERC20/ERC20.sol\":5376:5462  if (from == address(0)) {... */\n    tag_270:\n        /* \"@openzeppelin/contracts/token/ERC20/ERC20.sol\":5489:5490  0 */\n      0x00\n        /* \"@openzeppelin/contracts/token/ERC20/ERC20.sol\":5475:5491  to == address(0) */\n      0xffffffffffffffffffffffffffffffffffffffff\n      and\n        /* \"@openzeppelin/contracts/token/ERC20/ERC20.sol\":5475:5477  to */\n      dup3\n        /* \"@openzeppelin/contracts/token/ERC20/ERC20.sol\":5475:5491  to == address(0) */\n      0xffffffffffffffffffffffffffffffffffffffff\n      and\n      sub\n        /* \"@openzeppelin/contracts/token/ERC20/ERC20.sol\":5471:5557  if (to == address(0)) {... */\n      tag_272\n      jumpi\n        /* \"@openzeppelin/contracts/token/ERC20/ERC20.sol\":5543:5544  0 */\n      0x00\n        /* \"@openzeppelin/contracts/token/ERC20/ERC20.sol\":5514:5546  ERC20InvalidReceiver(address(0)) */\n      mload(0x40)\n      0xec442f0500000000000000000000000000000000000000000000000000000000\n      dup2\n      mstore\n      0x04\n      add\n      tag_273\n      swap2\n      swap1\n      tag_74\n      jump\t// in\n    tag_273:\n      mload(0x40)\n      dup1\n      swap2\n      sub\n      swap1\n      revert\n        /* \"@openzeppelin/contracts/token/ERC20/ERC20.sol\":5471:5557  if (to == address(0)) {... */\n    tag_272:\n        /* \"@openzeppelin/contracts/token/ERC20/ERC20.sol\":5566:5590  _update(from, to, value) */\n      tag_274\n        /* \"@openzeppelin/contracts/token/ERC20/ERC20.sol\":5574:5578  from */\n      dup4\n        /* \"@openzeppelin/contracts/token/ERC20/ERC20.sol\":5580:5582  to */\n      dup4\n        /* \"@openzeppelin/contracts/token/ERC20/ERC20.sol\":5584:5589  value */\n      dup4\n        /* \"@openzeppelin/contracts/token/ERC20/ERC20.sol\":5566:5573  _update */\n      tag_275\n        /* \"@openzeppelin/contracts/token/ERC20/ERC20.sol\":5566:5590  _update(from, to, value) */\n      jump\t// in\n    tag_274:\n        /* \"@openzeppelin/contracts/token/ERC20/ERC20.sol\":5297:5597  function _transfer(address from, address to, uint256 value) internal {... */\n      pop\n      pop\n      pop\n      jump\t// out\n        /* \"@openzeppelin/contracts/token/ERC20/ERC20.sol\":7888:8094  function _burn(address account, uint256 value) internal {... */\n    tag_187:\n        /* \"@openzeppelin/contracts/token/ERC20/ERC20.sol\":7977:7978  0 */\n      0x00\n        /* \"@openzeppelin/contracts/token/ERC20/ERC20.sol\":7958:7979  account == address(0) */\n      0xffffffffffffffffffffffffffffffffffffffff\n      and\n        /* \"@openzeppelin/contracts/token/ERC20/ERC20.sol\":7958:7965  account */\n      dup3\n        /* \"@openzeppelin/contracts/token/ERC20/ERC20.sol\":7958:7979  account == address(0) */\n      0xffffffffffffffffffffffffffffffffffffffff\n      and\n      sub\n        /* \"@openzeppelin/contracts/token/ERC20/ERC20.sol\":7954:8043  if (account == address(0)) {... */\n      tag_277\n      jumpi\n        /* \"@openzeppelin/contracts/token/ERC20/ERC20.sol\":8029:8030  0 */\n      0x00\n        /* \"@openzeppelin/contracts/token/ERC20/ERC20.sol\":8002:8032  ERC20InvalidSender(address(0)) */\n      mload(0x40)\n      0x96c6fd1e00000000000000000000000000000000000000000000000000000000\n      dup2\n      mstore\n      0x04\n      add\n      tag_278\n      swap2\n      swap1\n      tag_74\n      jump\t// in\n    tag_278:\n      mload(0x40)\n      dup1\n      swap2\n      sub\n      swap1\n      revert\n        /* \"@openzeppelin/contracts/token/ERC20/ERC20.sol\":7954:8043  if (account == address(0)) {... */\n    tag_277:\n        /* \"@openzeppelin/contracts/token/ERC20/ERC20.sol\":8052:8087  _update(account, address(0), value) */\n      tag_279\n        /* \"@openzeppelin/contracts/token/ERC20/ERC20.sol\":8060:8067  account */\n      dup3\n        /* \"@openzeppelin/contracts/token/ERC20/ERC20.sol\":8077:8078  0 */\n      0x00\n        /* \"@openzeppelin/contracts/token/ERC20/ERC20.sol\":8081:8086  value */\n      dup4\n        /* \"@openzeppelin/contracts/token/ERC20/ERC20.sol\":8052:8059  _update */\n      tag_275\n        /* \"@openzeppelin/contracts/token/ERC20/ERC20.sol\":8052:8087  _update(account, address(0), value) */\n      jump\t// in\n    tag_279:\n        /* \"@openzeppelin/contracts/token/ERC20/ERC20.sol\":7888:8094  function _burn(address account, uint256 value) internal {... */\n      pop\n      pop\n      jump\t// out\n        /* \"submissions/Zora/Day25AutomatedMarketMaker.sol\":5542:5854  function sqrt(uint256 y) internal pure returns (uint256 z) {... */\n    tag_215:\n        /* \"submissions/Zora/Day25AutomatedMarketMaker.sol\":5590:5599  uint256 z */\n      0x00\n        /* \"submissions/Zora/Day25AutomatedMarketMaker.sol\":5620:5621  3 */\n      0x03\n        /* \"submissions/Zora/Day25AutomatedMarketMaker.sol\":5616:5617  y */\n      dup3\n        /* \"submissions/Zora/Day25AutomatedMarketMaker.sol\":5616:5621  y > 3 */\n      gt\n        /* \"submissions/Zora/Day25AutomatedMarketMaker.sol\":5612:5847  if (y > 3) {... */\n      iszero\n      tag_281\n      jumpi\n        /* \"submissions/Zora/Day25AutomatedMarketMaker.sol\":5642:5643  y */\n      dup2\n        /* \"submissions/Zora/Day25AutomatedMarketMaker.sol\":5638:5643  z = y */\n      swap1\n      pop\n        /* \"submissions/Zora/Day25AutomatedMarketMaker.sol\":5658:5667  uint256 x */\n      0x00\n        /* \"submissions/Zora/Day25AutomatedMarketMaker.sol\":5678:5679  1 */\n      0x01\n        /* \"submissions/Zora/Day25AutomatedMarketMaker.sol\":5674:5675  2 */\n      0x02\n        /* \"submissions/Zora/Day25AutomatedMarketMaker.sol\":5670:5671  y */\n      dup5\n        /* \"submissions/Zora/Day25AutomatedMarketMaker.sol\":5670:5675  y / 2 */\n      tag_282\n      swap2\n      swap1\n      tag_125\n      jump\t// in\n    tag_282:\n        /* \"submissions/Zora/Day25AutomatedMarketMaker.sol\":5670:5679  y / 2 + 1 */\n      tag_283\n      swap2\n      swap1\n      tag_127\n      jump\t// in\n    tag_283:\n        /* \"submissions/Zora/Day25AutomatedMarketMaker.sol\":5658:5679  uint256 x = y / 2 + 1 */\n      swap1\n      pop\n        /* \"submissions/Zora/Day25AutomatedMarketMaker.sol\":5694:5786  while (x < z) {... */\n    tag_284:\n        /* \"submissions/Zora/Day25AutomatedMarketMaker.sol\":5705:5706  z */\n      dup2\n        /* \"submissions/Zora/Day25AutomatedMarketMaker.sol\":5701:5702  x */\n      dup2\n        /* \"submissions/Zora/Day25AutomatedMarketMaker.sol\":5701:5706  x < z */\n      lt\n        /* \"submissions/Zora/Day25AutomatedMarketMaker.sol\":5694:5786  while (x < z) {... */\n      iszero\n      tag_285\n      jumpi\n        /* \"submissions/Zora/Day25AutomatedMarketMaker.sol\":5731:5732  x */\n      dup1\n        /* \"submissions/Zora/Day25AutomatedMarketMaker.sol\":5727:5732  z = x */\n      swap2\n      pop\n        /* \"submissions/Zora/Day25AutomatedMarketMaker.sol\":5769:5770  2 */\n      0x02\n        /* \"submissions/Zora/Day25AutomatedMarketMaker.sol\":5764:5765  x */\n      dup2\n        /* \"submissions/Zora/Day25AutomatedMarketMaker.sol\":5760:5761  x */\n      dup3\n        /* \"submissions/Zora/Day25AutomatedMarketMaker.sol\":5756:5757  y */\n      dup6\n        /* \"submissions/Zora/Day25AutomatedMarketMaker.sol\":5756:5761  y / x */\n      tag_286\n      swap2\n      swap1\n      tag_125\n      jump\t// in\n    tag_286:\n        /* \"submissions/Zora/Day25AutomatedMarketMaker.sol\":5756:5765  y / x + x */\n      tag_287\n      swap2\n      swap1\n      tag_127\n      jump\t// in\n    tag_287:\n        /* \"submissions/Zora/Day25AutomatedMarketMaker.sol\":5755:5770  (y / x + x) / 2 */\n      tag_288\n      swap2\n      swap1\n      tag_125\n      jump\t// in\n    tag_288:\n        /* \"submissions/Zora/Day25AutomatedMarketMaker.sol\":5751:5770  x = (y / x + x) / 2 */\n      swap1\n      pop\n        /* \"submissions/Zora/Day25AutomatedMarketMaker.sol\":5694:5786  while (x < z) {... */\n      jump(tag_284)\n    tag_285:\n        /* \"submissions/Zora/Day25AutomatedMarketMaker.sol\":5623:5797  {... */\n      pop\n        /* \"submissions/Zora/Day25AutomatedMarketMaker.sol\":5612:5847  if (y > 3) {... */\n      jump(tag_289)\n    tag_281:\n        /* \"submissions/Zora/Day25AutomatedMarketMaker.sol\":5812:5813  0 */\n      0x00\n        /* \"submissions/Zora/Day25AutomatedMarketMaker.sol\":5807:5808  y */\n      dup3\n        /* \"submissions/Zora/Day25AutomatedMarketMaker.sol\":5807:5813  y != 0 */\n      eq\n        /* \"submissions/Zora/Day25AutomatedMarketMaker.sol\":5803:5847  if (y != 0) {... */\n      tag_290\n      jumpi\n        /* \"submissions/Zora/Day25AutomatedMarketMaker.sol\":5834:5835  1 */\n      0x01\n        /* \"submissions/Zora/Day25AutomatedMarketMaker.sol\":5830:5835  z = 1 */\n      swap1\n      pop\n        /* \"submissions/Zora/Day25AutomatedMarketMaker.sol\":5803:5847  if (y != 0) {... */\n    tag_290:\n        /* \"submissions/Zora/Day25AutomatedMarketMaker.sol\":5612:5847  if (y > 3) {... */\n    tag_289:\n        /* \"submissions/Zora/Day25AutomatedMarketMaker.sol\":5542:5854  function sqrt(uint256 y) internal pure returns (uint256 z) {... */\n      swap2\n      swap1\n      pop\n      jump\t// out\n        /* \"submissions/Zora/Day25AutomatedMarketMaker.sol\":5382:5488  function min(uint256 a, uint256 b) internal pure returns (uint256) {... */\n    tag_224:\n        /* \"submissions/Zora/Day25AutomatedMarketMaker.sol\":5440:5447  uint256 */\n      0x00\n        /* \"submissions/Zora/Day25AutomatedMarketMaker.sol\":5471:5472  b */\n      dup2\n        /* \"submissions/Zora/Day25AutomatedMarketMaker.sol\":5467:5468  a */\n      dup4\n        /* \"submissions/Zora/Day25AutomatedMarketMaker.sol\":5467:5472  a < b */\n      lt\n        /* \"submissions/Zora/Day25AutomatedMarketMaker.sol\":5467:5480  a < b ? a : b */\n      tag_292\n      jumpi\n        /* \"submissions/Zora/Day25AutomatedMarketMaker.sol\":5479:5480  b */\n      dup2\n        /* \"submissions/Zora/Day25AutomatedMarketMaker.sol\":5467:5480  a < b ? a : b */\n      jump(tag_293)\n    tag_292:\n        /* \"submissions/Zora/Day25AutomatedMarketMaker.sol\":5475:5476  a */\n      dup3\n        /* \"submissions/Zora/Day25AutomatedMarketMaker.sol\":5467:5480  a < b ? a : b */\n    tag_293:\n        /* \"submissions/Zora/Day25AutomatedMarketMaker.sol\":5460:5480  return a < b ? a : b */\n      swap1\n      pop\n        /* \"submissions/Zora/Day25AutomatedMarketMaker.sol\":5382:5488  function min(uint256 a, uint256 b) internal pure returns (uint256) {... */\n      swap3\n      swap2\n      pop\n      pop\n      jump\t// out\n        /* \"@openzeppelin/contracts/token/ERC20/ERC20.sol\":7362:7570  function _mint(address account, uint256 value) internal {... */\n    tag_226:\n        /* \"@openzeppelin/contracts/token/ERC20/ERC20.sol\":7451:7452  0 */\n      0x00\n        /* \"@openzeppelin/contracts/token/ERC20/ERC20.sol\":7432:7453  account == address(0) */\n      0xffffffffffffffffffffffffffffffffffffffff\n      and\n        /* \"@openzeppelin/contracts/token/ERC20/ERC20.sol\":7432:7439  account */\n      dup3\n        /* \"@openzeppelin/contracts/token/ERC20/ERC20.sol\":7432:7453  account == address(0) */\n      0xffffffffffffffffffffffffffffffffffffffff\n      and\n      sub\n        /* \"@openzeppelin/contracts/token/ERC20/ERC20.sol\":7428:7519  if (account == address(0)) {... */\n      tag_295\n      jumpi\n        /* \"@openzeppelin/contracts/token/ERC20/ERC20.sol\":7505:7506  0 */\n      0x00\n        /* \"@openzeppelin/contracts/token/ERC20/ERC20.sol\":7476:7508  ERC20InvalidReceiver(address(0)) */\n      mload(0x40)\n      0xec442f0500000000000000000000000000000000000000000000000000000000\n      dup2\n      mstore\n      0x04\n      add\n      tag_296\n      swap2\n      swap1\n      tag_74\n      jump\t// in\n    tag_296:\n      mload(0x40)\n      dup1\n      swap2\n      sub\n      swap1\n      revert\n        /* \"@openzeppelin/contracts/token/ERC20/ERC20.sol\":7428:7519  if (account == address(0)) {... */\n    tag_295:\n        /* \"@openzeppelin/contracts/token/ERC20/ERC20.sol\":7528:7563  _update(address(0), account, value) */\n      tag_297\n        /* \"@openzeppelin/contracts/token/ERC20/ERC20.sol\":7544:7545  0 */\n      0x00\n        /* \"@openzeppelin/contracts/token/ERC20/ERC20.sol\":7548:7555  account */\n      dup4\n        /* \"@openzeppelin/contracts/token/ERC20/ERC20.sol\":7557:7562  value */\n      dup4\n        /* \"@openzeppelin/contracts/token/ERC20/ERC20.sol\":7528:7535  _update */\n      tag_275\n        /* \"@openzeppelin/contracts/token/ERC20/ERC20.sol\":7528:7563  _update(address(0), account, value) */\n      jump\t// in\n    tag_297:\n        /* \"@openzeppelin/contracts/token/ERC20/ERC20.sol\":7362:7570  function _mint(address account, uint256 value) internal {... */\n      pop\n      pop\n      jump\t// out\n        /* \"@openzeppelin/contracts/token/ERC20/ERC20.sol\":9605:10037  function _approve(address owner, address spender, uint256 value, bool emitEvent) internal virtual {... */\n    tag_261:\n        /* \"@openzeppelin/contracts/token/ERC20/ERC20.sol\":9734:9735  0 */\n      0x00\n        /* \"@openzeppelin/contracts/token/ERC20/ERC20.sol\":9717:9736  owner == address(0) */\n      0xffffffffffffffffffffffffffffffffffffffff\n      and\n        /* \"@openzeppelin/contracts/token/ERC20/ERC20.sol\":9717:9722  owner */\n      dup5\n        /* \"@openzeppelin/contracts/token/ERC20/ERC20.sol\":9717:9736  owner == address(0) */\n      0xffffffffffffffffffffffffffffffffffffffff\n      and\n      sub\n        /* \"@openzeppelin/contracts/token/ERC20/ERC20.sol\":9713:9802  if (owner == address(0)) {... */\n      tag_299\n      jumpi\n        /* \"@openzeppelin/contracts/token/ERC20/ERC20.sol\":9788:9789  0 */\n      0x00\n        /* \"@openzeppelin/contracts/token/ERC20/ERC20.sol\":9759:9791  ERC20InvalidApprover(address(0)) */\n      mload(0x40)\n      0xe602df0500000000000000000000000000000000000000000000000000000000\n      dup2\n      mstore\n      0x04\n      add\n      tag_300\n      swap2\n      swap1\n      tag_74\n      jump\t// in\n    tag_300:\n      mload(0x40)\n      dup1\n      swap2\n      sub\n      swap1\n      revert\n        /* \"@openzeppelin/contracts/token/ERC20/ERC20.sol\":9713:9802  if (owner == address(0)) {... */\n    tag_299:\n        /* \"@openzeppelin/contracts/token/ERC20/ERC20.sol\":9834:9835  0 */\n      0x00\n        /* \"@openzeppelin/contracts/token/ERC20/ERC20.sol\":9815:9836  spender == address(0) */\n      0xffffffffffffffffffffffffffffffffffffffff\n      and\n        /* \"@openzeppelin/contracts/token/ERC20/ERC20.sol\":9815:9822  spender */\n      dup4\n        /* \"@openzeppelin/contracts/token/ERC20/ERC20.sol\":9815:9836  spender == address(0) */\n      0xffffffffffffffffffffffffffffffffffffffff\n      and\n      sub\n        /* \"@openzeppelin/contracts/token/ERC20/ERC20.sol\":9811:9901  if (spender == address(0)) {... */\n      tag_301\n      jumpi\n        /* \"@openzeppelin/contracts/token/ERC20/ERC20.sol\":9887:9888  0 */\n      0x00\n        /* \"@openzeppelin/contracts/token/ERC20/ERC20.sol\":9859:9890  ERC20InvalidSpender(address(0)) */\n      mload(0x40)\n      0x94280d6200000000000000000000000000000000000000000000000000000000\n      dup2\n      mstore\n      0x04\n      add\n      tag_302\n      swap2\n      swap1\n      tag_74\n      jump\t// in\n    tag_302:\n      mload(0x40)\n      dup1\n      swap2\n      sub\n      swap1\n      revert\n        /* \"@openzeppelin/contracts/token/ERC20/ERC20.sol\":9811:9901  if (spender == address(0)) {... */\n    tag_301:\n        /* \"@openzeppelin/contracts/token/ERC20/ERC20.sol\":9940:9945  value */\n      dup2\n        /* \"@openzeppelin/contracts/token/ERC20/ERC20.sol\":9910:9921  _allowances */\n      0x01\n        /* \"@openzeppelin/contracts/token/ERC20/ERC20.sol\":9910:9928  _allowances[owner] */\n      0x00\n        /* \"@openzeppelin/contracts/token/ERC20/ERC20.sol\":9922:9927  owner */\n      dup7\n        /* \"@openzeppelin/contracts/token/ERC20/ERC20.sol\":9910:9928  _allowances[owner] */\n      0xffffffffffffffffffffffffffffffffffffffff\n      and\n      0xffffffffffffffffffffffffffffffffffffffff\n      and\n      dup2\n      mstore\n      0x20\n      add\n      swap1\n      dup2\n      mstore\n      0x20\n      add\n      0x00\n      keccak256\n        /* \"@openzeppelin/contracts/token/ERC20/ERC20.sol\":9910:9937  _allowances[owner][spender] */\n      0x00\n        /* \"@openzeppelin/contracts/token/ERC20/ERC20.sol\":9929:9936  spender */\n      dup6\n        /* \"@openzeppelin/contracts/token/ERC20/ERC20.sol\":9910:9937  _allowances[owner][spender] */\n      0xffffffffffffffffffffffffffffffffffffffff\n      and\n      0xffffffffffffffffffffffffffffffffffffffff\n      and\n      dup2\n      mstore\n      0x20\n      add\n      swap1\n      dup2\n      mstore\n      0x20\n      add\n      0x00\n      keccak256\n        /* \"@openzeppelin/contracts/token/ERC20/ERC20.sol\":9910:9945  _allowances[owner][spender] = value */\n      dup2\n      swap1\n      sstore\n      pop\n        /* \"@openzeppelin/contracts/token/ERC20/ERC20.sol\":9959:9968  emitEvent */\n      dup1\n        /* \"@openzeppelin/contracts/token/ERC20/ERC20.sol\":9955:10031  if (emitEvent) {... */\n      iszero\n      tag_303\n      jumpi\n        /* \"@openzeppelin/contracts/token/ERC20/ERC20.sol\":10005:10012  spender */\n      dup3\n        /* \"@openzeppelin/contracts/token/ERC20/ERC20.sol\":9989:10020  Approval(owner, spender, value) */\n      0xffffffffffffffffffffffffffffffffffffffff\n      and\n        /* \"@openzeppelin/contracts/token/ERC20/ERC20.sol\":9998:10003  owner */\n      dup5\n        /* \"@openzeppelin/contracts/token/ERC20/ERC20.sol\":9989:10020  Approval(owner, spender, value) */\n      0xffffffffffffffffffffffffffffffffffffffff\n      and\n      0x8c5be1e5ebec7d5bd14f71427d1e84f3dd0314c0f7b2291e5b200ac8c7c3b925\n        /* \"@openzeppelin/contracts/token/ERC20/ERC20.sol\":10014:10019  value */\n      dup5\n        /* \"@openzeppelin/contracts/token/ERC20/ERC20.sol\":9989:10020  Approval(owner, spender, value) */\n      mload(0x40)\n      tag_304\n      swap2\n      swap1\n      tag_50\n      jump\t// in\n    tag_304:\n      mload(0x40)\n      dup1\n      swap2\n      sub\n      swap1\n      log3\n        /* \"@openzeppelin/contracts/token/ERC20/ERC20.sol\":9955:10031  if (emitEvent) {... */\n    tag_303:\n        /* \"@openzeppelin/contracts/token/ERC20/ERC20.sol\":9605:10037  function _approve(address owner, address spender, uint256 value, bool emitEvent) internal virtual {... */\n      pop\n      pop\n      pop\n      pop\n      jump\t// out\n        /* \"@openzeppelin/contracts/token/ERC20/ERC20.sol\":5912:7019  function _update(address from, address to, uint256 value) internal virtual {... */\n    tag_275:\n        /* \"@openzeppelin/contracts/token/ERC20/ERC20.sol\":6017:6018  0 */\n      0x00\n        /* \"@openzeppelin/contracts/token/ERC20/ERC20.sol\":6001:6019  from == address(0) */\n      0xffffffffffffffffffffffffffffffffffffffff\n      and\n        /* \"@openzeppelin/contracts/token/ERC20/ERC20.sol\":6001:6005  from */\n      dup4\n        /* \"@openzeppelin/contracts/token/ERC20/ERC20.sol\":6001:6019  from == address(0) */\n      0xffffffffffffffffffffffffffffffffffffffff\n      and\n      sub\n        /* \"@openzeppelin/contracts/token/ERC20/ERC20.sol\":5997:6537  if (from == address(0)) {... */\n      tag_306\n      jumpi\n        /* \"@openzeppelin/contracts/token/ERC20/ERC20.sol\":6153:6158  value */\n      dup1\n        /* \"@openzeppelin/contracts/token/ERC20/ERC20.sol\":6137:6149  _totalSupply */\n      0x02\n      0x00\n        /* \"@openzeppelin/contracts/token/ERC20/ERC20.sol\":6137:6158  _totalSupply += value */\n      dup3\n      dup3\n      sload\n      tag_307\n      swap2\n      swap1\n      tag_127\n      jump\t// in\n    tag_307:\n      swap3\n      pop\n      pop\n      dup2\n      swap1\n      sstore\n      pop\n        /* \"@openzeppelin/contracts/token/ERC20/ERC20.sol\":5997:6537  if (from == address(0)) {... */\n      jump(tag_308)\n    tag_306:\n        /* \"@openzeppelin/contracts/token/ERC20/ERC20.sol\":6189:6208  uint256 fromBalance */\n      0x00\n        /* \"@openzeppelin/contracts/token/ERC20/ERC20.sol\":6211:6220  _balances */\n      0x00\n        /* \"@openzeppelin/contracts/token/ERC20/ERC20.sol\":6211:6226  _balances[from] */\n      0x00\n        /* \"@openzeppelin/contracts/token/ERC20/ERC20.sol\":6221:6225  from */\n      dup6\n        /* \"@openzeppelin/contracts/token/ERC20/ERC20.sol\":6211:6226  _balances[from] */\n      0xffffffffffffffffffffffffffffffffffffffff\n      and\n      0xffffffffffffffffffffffffffffffffffffffff\n      and\n      dup2\n      mstore\n      0x20\n      add\n      swap1\n      dup2\n      mstore\n      0x20\n      add\n      0x00\n      keccak256\n      sload\n        /* \"@openzeppelin/contracts/token/ERC20/ERC20.sol\":6189:6226  uint256 fromBalance = _balances[from] */\n      swap1\n      pop\n        /* \"@openzeppelin/contracts/token/ERC20/ERC20.sol\":6258:6263  value */\n      dup2\n        /* \"@openzeppelin/contracts/token/ERC20/ERC20.sol\":6244:6255  fromBalance */\n      dup2\n        /* \"@openzeppelin/contracts/token/ERC20/ERC20.sol\":6244:6263  fromBalance < value */\n      lt\n        /* \"@openzeppelin/contracts/token/ERC20/ERC20.sol\":6240:6355  if (fromBalance < value) {... */\n      iszero\n      tag_309\n      jumpi\n        /* \"@openzeppelin/contracts/token/ERC20/ERC20.sol\":6315:6319  from */\n      dup4\n        /* \"@openzeppelin/contracts/token/ERC20/ERC20.sol\":6321:6332  fromBalance */\n      dup2\n        /* \"@openzeppelin/contracts/token/ERC20/ERC20.sol\":6334:6339  value */\n      dup4\n        /* \"@openzeppelin/contracts/token/ERC20/ERC20.sol\":6290:6340  ERC20InsufficientBalance(from, fromBalance, value) */\n      mload(0x40)\n      0xe450d38c00000000000000000000000000000000000000000000000000000000\n      dup2\n      mstore\n      0x04\n      add\n      tag_310\n      swap4\n      swap3\n      swap2\n      swap1\n      tag_267\n      jump\t// in\n    tag_310:\n      mload(0x40)\n      dup1\n      swap2\n      sub\n      swap1\n      revert\n        /* \"@openzeppelin/contracts/token/ERC20/ERC20.sol\":6240:6355  if (fromBalance < value) {... */\n    tag_309:\n        /* \"@openzeppelin/contracts/token/ERC20/ERC20.sol\":6507:6512  value */\n      dup2\n        /* \"@openzeppelin/contracts/token/ERC20/ERC20.sol\":6493:6504  fromBalance */\n      dup2\n        /* \"@openzeppelin/contracts/token/ERC20/ERC20.sol\":6493:6512  fromBalance - value */\n      sub\n        /* \"@openzeppelin/contracts/token/ERC20/ERC20.sol\":6475:6484  _balances */\n      0x00\n        /* \"@openzeppelin/contracts/token/ERC20/ERC20.sol\":6475:6490  _balances[from] */\n      0x00\n        /* \"@openzeppelin/contracts/token/ERC20/ERC20.sol\":6485:6489  from */\n      dup7\n        /* \"@openzeppelin/contracts/token/ERC20/ERC20.sol\":6475:6490  _balances[from] */\n      0xffffffffffffffffffffffffffffffffffffffff\n      and\n      0xffffffffffffffffffffffffffffffffffffffff\n      and\n      dup2\n      mstore\n      0x20\n      add\n      swap1\n      dup2\n      mstore\n      0x20\n      add\n      0x00\n      keccak256\n        /* \"@openzeppelin/contracts/token/ERC20/ERC20.sol\":6475:6512  _balances[from] = fromBalance - value */\n      dup2\n      swap1\n      sstore\n      pop\n        /* \"@openzeppelin/contracts/token/ERC20/ERC20.sol\":6175:6537  {... */\n      pop\n        /* \"@openzeppelin/contracts/token/ERC20/ERC20.sol\":5997:6537  if (from == address(0)) {... */\n    tag_308:\n        /* \"@openzeppelin/contracts/token/ERC20/ERC20.sol\":6565:6566  0 */\n      0x00\n        /* \"@openzeppelin/contracts/token/ERC20/ERC20.sol\":6551:6567  to == address(0) */\n      0xffffffffffffffffffffffffffffffffffffffff\n      and\n        /* \"@openzeppelin/contracts/token/ERC20/ERC20.sol\":6551:6553  to */\n      dup3\n        /* \"@openzeppelin/contracts/token/ERC20/ERC20.sol\":6551:6567  to == address(0) */\n      0xffffffffffffffffffffffffffffffffffffffff\n      and\n      sub\n        /* \"@openzeppelin/contracts/token/ERC20/ERC20.sol\":6547:6972  if (to == address(0)) {... */\n      tag_311\n      jumpi\n        /* \"@openzeppelin/contracts/token/ERC20/ERC20.sol\":6730:6735  value */\n      dup1\n        /* \"@openzeppelin/contracts/token/ERC20/ERC20.sol\":6714:6726  _totalSupply */\n      0x02\n      0x00\n        /* \"@openzeppelin/contracts/token/ERC20/ERC20.sol\":6714:6735  _totalSupply -= value */\n      dup3\n      dup3\n      sload\n      sub\n      swap3\n      pop\n      pop\n      dup2\n      swap1\n      sstore\n      pop\n        /* \"@openzeppelin/contracts/token/ERC20/ERC20.sol\":6547:6972  if (to == address(0)) {... */\n      jump(tag_312)\n    tag_311:\n        /* \"@openzeppelin/contracts/token/ERC20/ERC20.sol\":6942:6947  value */\n      dup1\n        /* \"@openzeppelin/contracts/token/ERC20/ERC20.sol\":6925:6934  _balances */\n      0x00\n        /* \"@openzeppelin/contracts/token/ERC20/ERC20.sol\":6925:6938  _balances[to] */\n      0x00\n        /* \"@openzeppelin/contracts/token/ERC20/ERC20.sol\":6935:6937  to */\n      dup5\n        /* \"@openzeppelin/contracts/token/ERC20/ERC20.sol\":6925:6938  _balances[to] */\n      0xffffffffffffffffffffffffffffffffffffffff\n      and\n      0xffffffffffffffffffffffffffffffffffffffff\n      and\n      dup2\n      mstore\n      0x20\n      add\n      swap1\n      dup2\n      mstore\n      0x20\n      add\n      0x00\n      keccak256\n      0x00\n        /* \"@openzeppelin/contracts/token/ERC20/ERC20.sol\":6925:6947  _balances[to] += value */\n      dup3\n      dup3\n      sload\n      add\n      swap3\n      pop\n      pop\n      dup2\n      swap1\n      sstore\n      pop\n        /* \"@openzeppelin/contracts/token/ERC20/ERC20.sol\":6547:6972  if (to == address(0)) {... */\n    tag_312:\n        /* \"@openzeppelin/contracts/token/ERC20/ERC20.sol\":7002:7004  to */\n      dup2\n        /* \"@openzeppelin/contracts/token/ERC20/ERC20.sol\":6987:7012  Transfer(from, to, value) */\n      0xffffffffffffffffffffffffffffffffffffffff\n      and\n        /* \"@openzeppelin/contracts/token/ERC20/ERC20.sol\":6996:7000  from */\n      dup4\n        /* \"@openzeppelin/contracts/token/ERC20/ERC20.sol\":6987:7012  Transfer(from, to, value) */\n      0xffffffffffffffffffffffffffffffffffffffff\n      and\n      0xddf252ad1be2c89b69c2b068fc378daa952ba7f163c4a11628f55a4df523b3ef\n        /* \"@openzeppelin/contracts/token/ERC20/ERC20.sol\":7006:7011  value */\n      dup4\n        /* \"@openzeppelin/contracts/token/ERC20/ERC20.sol\":6987:7012  Transfer(from, to, value) */\n      mload(0x40)\n      tag_313\n      swap2\n      swap1\n      tag_50\n      jump\t// in\n    tag_313:\n      mload(0x40)\n      dup1\n      swap2\n      sub\n      swap1\n      log3\n        /* \"@openzeppelin/contracts/token/ERC20/ERC20.sol\":5912:7019  function _update(address from, address to, uint256 value) internal virtual {... */\n      pop\n      pop\n      pop\n      jump\t// out\n        /* \"#utility.yul\":7:106   */\n    tag_314:\n        /* \"#utility.yul\":59:65   */\n      0x00\n        /* \"#utility.yul\":93:98   */\n      dup2\n        /* \"#utility.yul\":87:99   */\n      mload\n        /* \"#utility.yul\":77:99   */\n      swap1\n      pop\n        /* \"#utility.yul\":7:106   */\n      swap2\n      swap1\n      pop\n      jump\t// out\n        /* \"#utility.yul\":112:281   */\n    tag_315:\n        /* \"#utility.yul\":196:207   */\n      0x00\n        /* \"#utility.yul\":230:236   */\n      dup3\n        /* \"#utility.yul\":225:228   */\n      dup3\n        /* \"#utility.yul\":218:237   */\n      mstore\n        /* \"#utility.yul\":270:274   */\n      0x20\n        /* \"#utility.yul\":265:268   */\n      dup3\n        /* \"#utility.yul\":261:275   */\n      add\n        /* \"#utility.yul\":246:275   */\n      swap1\n      pop\n        /* \"#utility.yul\":112:281   */\n      swap3\n      swap2\n      pop\n      pop\n      jump\t// out\n        /* \"#utility.yul\":287:426   */\n    tag_316:\n        /* \"#utility.yul\":376:382   */\n      dup3\n        /* \"#utility.yul\":371:374   */\n      dup2\n        /* \"#utility.yul\":366:369   */\n      dup4\n        /* \"#utility.yul\":360:383   */\n      mcopy\n        /* \"#utility.yul\":417:418   */\n      0x00\n        /* \"#utility.yul\":408:414   */\n      dup4\n        /* \"#utility.yul\":403:406   */\n      dup4\n        /* \"#utility.yul\":399:415   */\n      add\n        /* \"#utility.yul\":392:419   */\n      mstore\n        /* \"#utility.yul\":287:426   */\n      pop\n      pop\n      pop\n      jump\t// out\n        /* \"#utility.yul\":432:534   */\n    tag_317:\n        /* \"#utility.yul\":473:479   */\n      0x00\n        /* \"#utility.yul\":524:526   */\n      0x1f\n        /* \"#utility.yul\":520:527   */\n      not\n        /* \"#utility.yul\":515:517   */\n      0x1f\n        /* \"#utility.yul\":508:513   */\n      dup4\n        /* \"#utility.yul\":504:518   */\n      add\n        /* \"#utility.yul\":500:528   */\n      and\n        /* \"#utility.yul\":490:528   */\n      swap1\n      pop\n        /* \"#utility.yul\":432:534   */\n      swap2\n      swap1\n      pop\n      jump\t// out\n        /* \"#utility.yul\":540:917   */\n    tag_318:\n        /* \"#utility.yul\":628:631   */\n      0x00\n        /* \"#utility.yul\":656:695   */\n      tag_367\n        /* \"#utility.yul\":689:694   */\n      dup3\n        /* \"#utility.yul\":656:695   */\n      tag_314\n      jump\t// in\n    tag_367:\n        /* \"#utility.yul\":711:782   */\n      tag_368\n        /* \"#utility.yul\":775:781   */\n      dup2\n        /* \"#utility.yul\":770:773   */\n      dup6\n        /* \"#utility.yul\":711:782   */\n      tag_315\n      jump\t// in\n    tag_368:\n        /* \"#utility.yul\":704:782   */\n      swap4\n      pop\n        /* \"#utility.yul\":791:856   */\n      tag_369\n        /* \"#utility.yul\":849:855   */\n      dup2\n        /* \"#utility.yul\":844:847   */\n      dup6\n        /* \"#utility.yul\":837:841   */\n      0x20\n        /* \"#utility.yul\":830:835   */\n      dup7\n        /* \"#utility.yul\":826:842   */\n      add\n        /* \"#utility.yul\":791:856   */\n      tag_316\n      jump\t// in\n    tag_369:\n        /* \"#utility.yul\":881:910   */\n      tag_370\n        /* \"#utility.yul\":903:909   */\n      dup2\n        /* \"#utility.yul\":881:910   */\n      tag_317\n      jump\t// in\n    tag_370:\n        /* \"#utility.yul\":876:879   */\n      dup5\n        /* \"#utility.yul\":872:911   */\n      add\n        /* \"#utility.yul\":865:911   */\n      swap2\n      pop\n        /* \"#utility.yul\":632:917   */\n      pop\n        /* \"#utility.yul\":540:917   */\n      swap3\n      swap2\n      pop\n      pop\n      jump\t// out\n        /* \"#utility.yul\":923:1236   */\n    tag_28:\n        /* \"#utility.yul\":1036:1040   */\n      0x00\n        /* \"#utility.yul\":1074:1076   */\n      0x20\n        /* \"#utility.yul\":1063:1072   */\n      dup3\n        /* \"#utility.yul\":1059:1077   */\n      add\n        /* \"#utility.yul\":1051:1077   */\n      swap1\n      pop\n        /* \"#utility.yul\":1123:1132   */\n      dup2\n        /* \"#utility.yul\":1117:1121   */\n      dup2\n        /* \"#utility.yul\":1113:1133   */\n      sub\n        /* \"#utility.yul\":1109:1110   */\n      0x00\n        /* \"#utility.yul\":1098:1107   */\n      dup4\n        /* \"#utility.yul\":1094:1111   */\n      add\n        /* \"#utility.yul\":1087:1134   */\n      mstore\n        /* \"#utility.yul\":1151:1229   */\n      tag_372\n        /* \"#utility.yul\":1224:1228   */\n      dup2\n        /* \"#utility.yul\":1215:1221   */\n      dup5\n        /* \"#utility.yul\":1151:1229   */\n      tag_318\n      jump\t// in\n    tag_372:\n        /* \"#utility.yul\":1143:1229   */\n      swap1\n      pop\n        /* \"#utility.yul\":923:1236   */\n      swap3\n      swap2\n      pop\n      pop\n      jump\t// out\n        /* \"#utility.yul\":1242:1319   */\n    tag_319:\n        /* \"#utility.yul\":1279:1286   */\n      0x00\n        /* \"#utility.yul\":1308:1313   */\n      dup2\n        /* \"#utility.yul\":1297:1313   */\n      swap1\n      pop\n        /* \"#utility.yul\":1242:1319   */\n      swap2\n      swap1\n      pop\n      jump\t// out\n        /* \"#utility.yul\":1325:1443   */\n    tag_320:\n        /* \"#utility.yul\":1412:1436   */\n      tag_375\n        /* \"#utility.yul\":1430:1435   */\n      dup2\n        /* \"#utility.yul\":1412:1436   */\n      tag_319\n      jump\t// in\n    tag_375:\n        /* \"#utility.yul\":1407:1410   */\n      dup3\n        /* \"#utility.yul\":1400:1437   */\n      mstore\n        /* \"#utility.yul\":1325:1443   */\n      pop\n      pop\n      jump\t// out\n        /* \"#utility.yul\":1449:1781   */\n    tag_32:\n        /* \"#utility.yul\":1570:1574   */\n      0x00\n        /* \"#utility.yul\":1608:1610   */\n      0x40\n        /* \"#utility.yul\":1597:1606   */\n      dup3\n        /* \"#utility.yul\":1593:1611   */\n      add\n        /* \"#utility.yul\":1585:1611   */\n      swap1\n      pop\n        /* \"#utility.yul\":1621:1692   */\n      tag_377\n        /* \"#utility.yul\":1689:1690   */\n      0x00\n        /* \"#utility.yul\":1678:1687   */\n      dup4\n        /* \"#utility.yul\":1674:1691   */\n      add\n        /* \"#utility.yul\":1665:1671   */\n      dup6\n        /* \"#utility.yul\":1621:1692   */\n      tag_320\n      jump\t// in\n    tag_377:\n        /* \"#utility.yul\":1702:1774   */\n      tag_378\n        /* \"#utility.yul\":1770:1772   */\n      0x20\n        /* \"#utility.yul\":1759:1768   */\n      dup4\n        /* \"#utility.yul\":1755:1773   */\n      add\n        /* \"#utility.yul\":1746:1752   */\n      dup5\n        /* \"#utility.yul\":1702:1774   */\n      tag_320\n      jump\t// in\n    tag_378:\n        /* \"#utility.yul\":1449:1781   */\n      swap4\n      swap3\n      pop\n      pop\n      pop\n      jump\t// out\n        /* \"#utility.yul\":1868:1985   */\n    tag_322:\n        /* \"#utility.yul\":1977:1978   */\n      0x00\n        /* \"#utility.yul\":1974:1975   */\n      0x00\n        /* \"#utility.yul\":1967:1979   */\n      revert\n        /* \"#utility.yul\":2114:2240   */\n    tag_324:\n        /* \"#utility.yul\":2151:2158   */\n      0x00\n        /* \"#utility.yul\":2191:2233   */\n      0xffffffffffffffffffffffffffffffffffffffff\n        /* \"#utility.yul\":2184:2189   */\n      dup3\n        /* \"#utility.yul\":2180:2234   */\n      and\n        /* \"#utility.yul\":2169:2234   */\n      swap1\n      pop\n        /* \"#utility.yul\":2114:2240   */\n      swap2\n      swap1\n      pop\n      jump\t// out\n        /* \"#utility.yul\":2246:2342   */\n    tag_325:\n        /* \"#utility.yul\":2283:2290   */\n      0x00\n        /* \"#utility.yul\":2312:2336   */\n      tag_384\n        /* \"#utility.yul\":2330:2335   */\n      dup3\n        /* \"#utility.yul\":2312:2336   */\n      tag_324\n      jump\t// in\n    tag_384:\n        /* \"#utility.yul\":2301:2336   */\n      swap1\n      pop\n        /* \"#utility.yul\":2246:2342   */\n      swap2\n      swap1\n      pop\n      jump\t// out\n        /* \"#utility.yul\":2348:2470   */\n    tag_326:\n        /* \"#utility.yul\":2421:2445   */\n      tag_386\n        /* \"#utility.yul\":2439:2444   */\n      dup2\n        /* \"#utility.yul\":2421:2445   */\n      tag_325\n      jump\t// in\n    tag_386:\n        /* \"#utility.yul\":2414:2419   */\n      dup2\n        /* \"#utility.yul\":2411:2446   */\n      eq\n        /* \"#utility.yul\":2401:2464   */\n      tag_387\n      jumpi\n        /* \"#utility.yul\":2460:2461   */\n      0x00\n        /* \"#utility.yul\":2457:2458   */\n      0x00\n        /* \"#utility.yul\":2450:2462   */\n      revert\n        /* \"#utility.yul\":2401:2464   */\n    tag_387:\n        /* \"#utility.yul\":2348:2470   */\n      pop\n      jump\t// out\n        /* \"#utility.yul\":2476:2615   */\n    tag_327:\n        /* \"#utility.yul\":2522:2527   */\n      0x00\n        /* \"#utility.yul\":2560:2566   */\n      dup2\n        /* \"#utility.yul\":2547:2567   */\n      calldataload\n        /* \"#utility.yul\":2538:2567   */\n      swap1\n      pop\n        /* \"#utility.yul\":2576:2609   */\n      tag_389\n        /* \"#utility.yul\":2603:2608   */\n      dup2\n        /* \"#utility.yul\":2576:2609   */\n      tag_326\n      jump\t// in\n    tag_389:\n        /* \"#utility.yul\":2476:2615   */\n      swap3\n      swap2\n      pop\n      pop\n      jump\t// out\n        /* \"#utility.yul\":2621:2743   */\n    tag_328:\n        /* \"#utility.yul\":2694:2718   */\n      tag_391\n        /* \"#utility.yul\":2712:2717   */\n      dup2\n        /* \"#utility.yul\":2694:2718   */\n      tag_319\n      jump\t// in\n    tag_391:\n        /* \"#utility.yul\":2687:2692   */\n      dup2\n        /* \"#utility.yul\":2684:2719   */\n      eq\n        /* \"#utility.yul\":2674:2737   */\n      tag_392\n      jumpi\n        /* \"#utility.yul\":2733:2734   */\n      0x00\n        /* \"#utility.yul\":2730:2731   */\n      0x00\n        /* \"#utility.yul\":2723:2735   */\n      revert\n        /* \"#utility.yul\":2674:2737   */\n    tag_392:\n        /* \"#utility.yul\":2621:2743   */\n      pop\n      jump\t// out\n        /* \"#utility.yul\":2749:2888   */\n    tag_329:\n        /* \"#utility.yul\":2795:2800   */\n      0x00\n        /* \"#utility.yul\":2833:2839   */\n      dup2\n        /* \"#utility.yul\":2820:2840   */\n      calldataload\n        /* \"#utility.yul\":2811:2840   */\n      swap1\n      pop\n        /* \"#utility.yul\":2849:2882   */\n      tag_394\n        /* \"#utility.yul\":2876:2881   */\n      dup2\n        /* \"#utility.yul\":2849:2882   */\n      tag_328\n      jump\t// in\n    tag_394:\n        /* \"#utility.yul\":2749:2888   */\n      swap3\n      swap2\n      pop\n      pop\n      jump\t// out\n        /* \"#utility.yul\":2894:3368   */\n    tag_35:\n        /* \"#utility.yul\":2962:2968   */\n      0x00\n        /* \"#utility.yul\":2970:2976   */\n      0x00\n        /* \"#utility.yul\":3019:3021   */\n      0x40\n        /* \"#utility.yul\":3007:3016   */\n      dup4\n        /* \"#utility.yul\":2998:3005   */\n      dup6\n        /* \"#utility.yul\":2994:3017   */\n      sub\n        /* \"#utility.yul\":2990:3022   */\n      slt\n        /* \"#utility.yul\":2987:3106   */\n      iszero\n      tag_396\n      jumpi\n        /* \"#utility.yul\":3025:3104   */\n      tag_397\n      tag_322\n      jump\t// in\n    tag_397:\n        /* \"#utility.yul\":2987:3106   */\n    tag_396:\n        /* \"#utility.yul\":3145:3146   */\n      0x00\n        /* \"#utility.yul\":3170:3223   */\n      tag_398\n        /* \"#utility.yul\":3215:3222   */\n      dup6\n        /* \"#utility.yul\":3206:3212   */\n      dup3\n        /* \"#utility.yul\":3195:3204   */\n      dup7\n        /* \"#utility.yul\":3191:3213   */\n      add\n        /* \"#utility.yul\":3170:3223   */\n      tag_327\n      jump\t// in\n    tag_398:\n        /* \"#utility.yul\":3160:3223   */\n      swap3\n      pop\n        /* \"#utility.yul\":3116:3233   */\n      pop\n        /* \"#utility.yul\":3272:3274   */\n      0x20\n        /* \"#utility.yul\":3298:3351   */\n      tag_399\n        /* \"#utility.yul\":3343:3350   */\n      dup6\n        /* \"#utility.yul\":3334:3340   */\n      dup3\n        /* \"#utility.yul\":3323:3332   */\n      dup7\n        /* \"#utility.yul\":3319:3341   */\n      add\n        /* \"#utility.yul\":3298:3351   */\n      tag_329\n      jump\t// in\n    tag_399:\n        /* \"#utility.yul\":3288:3351   */\n      swap2\n      pop\n        /* \"#utility.yul\":3243:3361   */\n      pop\n        /* \"#utility.yul\":2894:3368   */\n      swap3\n      pop\n      swap3\n      swap1\n      pop\n      jump\t// out\n        /* \"#utility.yul\":3374:3464   */\n    tag_330:\n        /* \"#utility.yul\":3408:3415   */\n      0x00\n        /* \"#utility.yul\":3451:3456   */\n      dup2\n        /* \"#utility.yul\":3444:3457   */\n      iszero\n        /* \"#utility.yul\":3437:3458   */\n      iszero\n        /* \"#utility.yul\":3426:3458   */\n      swap1\n      pop\n        /* \"#utility.yul\":3374:3464   */\n      swap2\n      swap1\n      pop\n      jump\t// out\n        /* \"#utility.yul\":3470:3579   */\n    tag_331:\n        /* \"#utility.yul\":3551:3572   */\n      tag_402\n        /* \"#utility.yul\":3566:3571   */\n      dup2\n        /* \"#utility.yul\":3551:3572   */\n      tag_330\n      jump\t// in\n    tag_402:\n        /* \"#utility.yul\":3546:3549   */\n      dup3\n        /* \"#utility.yul\":3539:3573   */\n      mstore\n        /* \"#utility.yul\":3470:3579   */\n      pop\n      pop\n      jump\t// out\n        /* \"#utility.yul\":3585:3795   */\n    tag_38:\n        /* \"#utility.yul\":3672:3676   */\n      0x00\n        /* \"#utility.yul\":3710:3712   */\n      0x20\n        /* \"#utility.yul\":3699:3708   */\n      dup3\n        /* \"#utility.yul\":3695:3713   */\n      add\n        /* \"#utility.yul\":3687:3713   */\n      swap1\n      pop\n        /* \"#utility.yul\":3723:3788   */\n      tag_404\n        /* \"#utility.yul\":3785:3786   */\n      0x00\n        /* \"#utility.yul\":3774:3783   */\n      dup4\n        /* \"#utility.yul\":3770:3787   */\n      add\n        /* \"#utility.yul\":3761:3767   */\n      dup5\n        /* \"#utility.yul\":3723:3788   */\n      tag_331\n      jump\t// in\n    tag_404:\n        /* \"#utility.yul\":3585:3795   */\n      swap3\n      swap2\n      pop\n      pop\n      jump\t// out\n        /* \"#utility.yul\":3801:3861   */\n    tag_332:\n        /* \"#utility.yul\":3829:3832   */\n      0x00\n        /* \"#utility.yul\":3850:3855   */\n      dup2\n        /* \"#utility.yul\":3843:3855   */\n      swap1\n      pop\n        /* \"#utility.yul\":3801:3861   */\n      swap2\n      swap1\n      pop\n      jump\t// out\n        /* \"#utility.yul\":3867:4009   */\n    tag_333:\n        /* \"#utility.yul\":3917:3926   */\n      0x00\n        /* \"#utility.yul\":3950:4003   */\n      tag_407\n        /* \"#utility.yul\":3968:4002   */\n      tag_408\n        /* \"#utility.yul\":3977:4001   */\n      tag_409\n        /* \"#utility.yul\":3995:4000   */\n      dup5\n        /* \"#utility.yul\":3977:4001   */\n      tag_324\n      jump\t// in\n    tag_409:\n        /* \"#utility.yul\":3968:4002   */\n      tag_332\n      jump\t// in\n    tag_408:\n        /* \"#utility.yul\":3950:4003   */\n      tag_324\n      jump\t// in\n    tag_407:\n        /* \"#utility.yul\":3937:4003   */\n      swap1\n      pop\n        /* \"#utility.yul\":3867:4009   */\n      swap2\n      swap1\n      pop\n      jump\t// out\n        /* \"#utility.yul\":4015:4141   */\n    tag_334:\n        /* \"#utility.yul\":4065:4074   */\n      0x00\n        /* \"#utility.yul\":4098:4135   */\n      tag_411\n        /* \"#utility.yul\":4129:4134   */\n      dup3\n        /* \"#utility.yul\":4098:4135   */\n      tag_333\n      jump\t// in\n    tag_411:\n        /* \"#utility.yul\":4085:4135   */\n      swap1\n      pop\n        /* \"#utility.yul\":4015:4141   */\n      swap2\n      swap1\n      pop\n      jump\t// out\n        /* \"#utility.yul\":4147:4287   */\n    tag_335:\n        /* \"#utility.yul\":4211:4220   */\n      0x00\n        /* \"#utility.yul\":4244:4281   */\n      tag_413\n        /* \"#utility.yul\":4275:4280   */\n      dup3\n        /* \"#utility.yul\":4244:4281   */\n      tag_334\n      jump\t// in\n    tag_413:\n        /* \"#utility.yul\":4231:4281   */\n      swap1\n      pop\n        /* \"#utility.yul\":4147:4287   */\n      swap2\n      swap1\n      pop\n      jump\t// out\n        /* \"#utility.yul\":4293:4452   */\n    tag_336:\n        /* \"#utility.yul\":4394:4445   */\n      tag_415\n        /* \"#utility.yul\":4439:4444   */\n      dup2\n        /* \"#utility.yul\":4394:4445   */\n      tag_335\n      jump\t// in\n    tag_415:\n        /* \"#utility.yul\":4389:4392   */\n      dup3\n        /* \"#utility.yul\":4382:4446   */\n      mstore\n        /* \"#utility.yul\":4293:4452   */\n      pop\n      pop\n      jump\t// out\n        /* \"#utility.yul\":4458:4708   */\n    tag_42:\n        /* \"#utility.yul\":4565:4569   */\n      0x00\n        /* \"#utility.yul\":4603:4605   */\n      0x20\n        /* \"#utility.yul\":4592:4601   */\n      dup3\n        /* \"#utility.yul\":4588:4606   */\n      add\n        /* \"#utility.yul\":4580:4606   */\n      swap1\n      pop\n        /* \"#utility.yul\":4616:4701   */\n      tag_417\n        /* \"#utility.yul\":4698:4699   */\n      0x00\n        /* \"#utility.yul\":4687:4696   */\n      dup4\n        /* \"#utility.yul\":4683:4700   */\n      add\n        /* \"#utility.yul\":4674:4680   */\n      dup5\n        /* \"#utility.yul\":4616:4701   */\n      tag_336\n      jump\t// in\n    tag_417:\n        /* \"#utility.yul\":4458:4708   */\n      swap3\n      swap2\n      pop\n      pop\n      jump\t// out\n        /* \"#utility.yul\":4714:5188   */\n    tag_45:\n        /* \"#utility.yul\":4782:4788   */\n      0x00\n        /* \"#utility.yul\":4790:4796   */\n      0x00\n        /* \"#utility.yul\":4839:4841   */\n      0x40\n        /* \"#utility.yul\":4827:4836   */\n      dup4\n        /* \"#utility.yul\":4818:4825   */\n      dup6\n        /* \"#utility.yul\":4814:4837   */\n      sub\n        /* \"#utility.yul\":4810:4842   */\n      slt\n        /* \"#utility.yul\":4807:4926   */\n      iszero\n      tag_419\n      jumpi\n        /* \"#utility.yul\":4845:4924   */\n      tag_420\n      tag_322\n      jump\t// in\n    tag_420:\n        /* \"#utility.yul\":4807:4926   */\n    tag_419:\n        /* \"#utility.yul\":4965:4966   */\n      0x00\n        /* \"#utility.yul\":4990:5043   */\n      tag_421\n        /* \"#utility.yul\":5035:5042   */\n      dup6\n        /* \"#utility.yul\":5026:5032   */\n      dup3\n        /* \"#utility.yul\":5015:5024   */\n      dup7\n        /* \"#utility.yul\":5011:5033   */\n      add\n        /* \"#utility.yul\":4990:5043   */\n      tag_329\n      jump\t// in\n    tag_421:\n        /* \"#utility.yul\":4980:5043   */\n      swap3\n      pop\n        /* \"#utility.yul\":4936:5053   */\n      pop\n        /* \"#utility.yul\":5092:5094   */\n      0x20\n        /* \"#utility.yul\":5118:5171   */\n      tag_422\n        /* \"#utility.yul\":5163:5170   */\n      dup6\n        /* \"#utility.yul\":5154:5160   */\n      dup3\n        /* \"#utility.yul\":5143:5152   */\n      dup7\n        /* \"#utility.yul\":5139:5161   */\n      add\n        /* \"#utility.yul\":5118:5171   */\n      tag_329\n      jump\t// in\n    tag_422:\n        /* \"#utility.yul\":5108:5171   */\n      swap2\n      pop\n        /* \"#utility.yul\":5063:5181   */\n      pop\n        /* \"#utility.yul\":4714:5188   */\n      swap3\n      pop\n      swap3\n      swap1\n      pop\n      jump\t// out\n        /* \"#utility.yul\":5194:5416   */\n    tag_50:\n        /* \"#utility.yul\":5287:5291   */\n      0x00\n        /* \"#utility.yul\":5325:5327   */\n      0x20\n        /* \"#utility.yul\":5314:5323   */\n      dup3\n        /* \"#utility.yul\":5310:5328   */\n      add\n        /* \"#utility.yul\":5302:5328   */\n      swap1\n      pop\n        /* \"#utility.yul\":5338:5409   */\n      tag_424\n        /* \"#utility.yul\":5406:5407   */\n      0x00\n        /* \"#utility.yul\":5395:5404   */\n      dup4\n        /* \"#utility.yul\":5391:5408   */\n      add\n        /* \"#utility.yul\":5382:5388   */\n      dup5\n        /* \"#utility.yul\":5338:5409   */\n      tag_320\n      jump\t// in\n    tag_424:\n        /* \"#utility.yul\":5194:5416   */\n      swap3\n      swap2\n      pop\n      pop\n      jump\t// out\n        /* \"#utility.yul\":5422:6041   */\n    tag_56:\n        /* \"#utility.yul\":5499:5505   */\n      0x00\n        /* \"#utility.yul\":5507:5513   */\n      0x00\n        /* \"#utility.yul\":5515:5521   */\n      0x00\n        /* \"#utility.yul\":5564:5566   */\n      0x60\n        /* \"#utility.yul\":5552:5561   */\n      dup5\n        /* \"#utility.yul\":5543:5550   */\n      dup7\n        /* \"#utility.yul\":5539:5562   */\n      sub\n        /* \"#utility.yul\":5535:5567   */\n      slt\n        /* \"#utility.yul\":5532:5651   */\n      iszero\n      tag_426\n      jumpi\n        /* \"#utility.yul\":5570:5649   */\n      tag_427\n      tag_322\n      jump\t// in\n    tag_427:\n        /* \"#utility.yul\":5532:5651   */\n    tag_426:\n        /* \"#utility.yul\":5690:5691   */\n      0x00\n        /* \"#utility.yul\":5715:5768   */\n      tag_428\n        /* \"#utility.yul\":5760:5767   */\n      dup7\n        /* \"#utility.yul\":5751:5757   */\n      dup3\n        /* \"#utility.yul\":5740:5749   */\n      dup8\n        /* \"#utility.yul\":5736:5758   */\n      add\n        /* \"#utility.yul\":5715:5768   */\n      tag_327\n      jump\t// in\n    tag_428:\n        /* \"#utility.yul\":5705:5768   */\n      swap4\n      pop\n        /* \"#utility.yul\":5661:5778   */\n      pop\n        /* \"#utility.yul\":5817:5819   */\n      0x20\n        /* \"#utility.yul\":5843:5896   */\n      tag_429\n        /* \"#utility.yul\":5888:5895   */\n      dup7\n        /* \"#utility.yul\":5879:5885   */\n      dup3\n        /* \"#utility.yul\":5868:5877   */\n      dup8\n        /* \"#utility.yul\":5864:5886   */\n      add\n        /* \"#utility.yul\":5843:5896   */\n      tag_327\n      jump\t// in\n    tag_429:\n        /* \"#utility.yul\":5833:5896   */\n      swap3\n      pop\n        /* \"#utility.yul\":5788:5906   */\n      pop\n        /* \"#utility.yul\":5945:5947   */\n      0x40\n        /* \"#utility.yul\":5971:6024   */\n      tag_430\n        /* \"#utility.yul\":6016:6023   */\n      dup7\n        /* \"#utility.yul\":6007:6013   */\n      dup3\n        /* \"#utility.yul\":5996:6005   */\n      dup8\n        /* \"#utility.yul\":5992:6014   */\n      add\n        /* \"#utility.yul\":5971:6024   */\n      tag_329\n      jump\t// in\n    tag_430:\n        /* \"#utility.yul\":5961:6024   */\n      swap2\n      pop\n        /* \"#utility.yul\":5916:6034   */\n      pop\n        /* \"#utility.yul\":5422:6041   */\n      swap3\n      pop\n      swap3\n      pop\n      swap3\n      jump\t// out\n        /* \"#utility.yul\":6047:6133   */\n    tag_337:\n        /* \"#utility.yul\":6082:6089   */\n      0x00\n        /* \"#utility.yul\":6122:6126   */\n      0xff\n        /* \"#utility.yul\":6115:6120   */\n      dup3\n        /* \"#utility.yul\":6111:6127   */\n      and\n        /* \"#utility.yul\":6100:6127   */\n      swap1\n      pop\n        /* \"#utility.yul\":6047:6133   */\n      swap2\n      swap1\n      pop\n      jump\t// out\n        /* \"#utility.yul\":6139:6251   */\n    tag_338:\n        /* \"#utility.yul\":6222:6244   */\n      tag_433\n        /* \"#utility.yul\":6238:6243   */\n      dup2\n        /* \"#utility.yul\":6222:6244   */\n      tag_337\n      jump\t// in\n    tag_433:\n        /* \"#utility.yul\":6217:6220   */\n      dup3\n        /* \"#utility.yul\":6210:6245   */\n      mstore\n        /* \"#utility.yul\":6139:6251   */\n      pop\n      pop\n      jump\t// out\n        /* \"#utility.yul\":6257:6471   */\n    tag_62:\n        /* \"#utility.yul\":6346:6350   */\n      0x00\n        /* \"#utility.yul\":6384:6386   */\n      0x20\n        /* \"#utility.yul\":6373:6382   */\n      dup3\n        /* \"#utility.yul\":6369:6387   */\n      add\n        /* \"#utility.yul\":6361:6387   */\n      swap1\n      pop\n        /* \"#utility.yul\":6397:6464   */\n      tag_435\n        /* \"#utility.yul\":6461:6462   */\n      0x00\n        /* \"#utility.yul\":6450:6459   */\n      dup4\n        /* \"#utility.yul\":6446:6463   */\n      add\n        /* \"#utility.yul\":6437:6443   */\n      dup5\n        /* \"#utility.yul\":6397:6464   */\n      tag_338\n      jump\t// in\n    tag_435:\n        /* \"#utility.yul\":6257:6471   */\n      swap3\n      swap2\n      pop\n      pop\n      jump\t// out\n        /* \"#utility.yul\":6477:6806   */\n    tag_68:\n        /* \"#utility.yul\":6536:6542   */\n      0x00\n        /* \"#utility.yul\":6585:6587   */\n      0x20\n        /* \"#utility.yul\":6573:6582   */\n      dup3\n        /* \"#utility.yul\":6564:6571   */\n      dup5\n        /* \"#utility.yul\":6560:6583   */\n      sub\n        /* \"#utility.yul\":6556:6588   */\n      slt\n        /* \"#utility.yul\":6553:6672   */\n      iszero\n      tag_437\n      jumpi\n        /* \"#utility.yul\":6591:6670   */\n      tag_438\n      tag_322\n      jump\t// in\n    tag_438:\n        /* \"#utility.yul\":6553:6672   */\n    tag_437:\n        /* \"#utility.yul\":6711:6712   */\n      0x00\n        /* \"#utility.yul\":6736:6789   */\n      tag_439\n        /* \"#utility.yul\":6781:6788   */\n      dup5\n        /* \"#utility.yul\":6772:6778   */\n      dup3\n        /* \"#utility.yul\":6761:6770   */\n      dup6\n        /* \"#utility.yul\":6757:6779   */\n      add\n        /* \"#utility.yul\":6736:6789   */\n      tag_327\n      jump\t// in\n    tag_439:\n        /* \"#utility.yul\":6726:6789   */\n      swap2\n      pop\n        /* \"#utility.yul\":6682:6799   */\n      pop\n        /* \"#utility.yul\":6477:6806   */\n      swap3\n      swap2\n      pop\n      pop\n      jump\t// out\n        /* \"#utility.yul\":6812:6930   */\n    tag_339:\n        /* \"#utility.yul\":6899:6923   */\n      tag_441\n        /* \"#utility.yul\":6917:6922   */\n      dup2\n        /* \"#utility.yul\":6899:6923   */\n      tag_325\n      jump\t// in\n    tag_441:\n        /* \"#utility.yul\":6894:6897   */\n      dup3\n        /* \"#utility.yul\":6887:6924   */\n      mstore\n        /* \"#utility.yul\":6812:6930   */\n      pop\n      pop\n      jump\t// out\n        /* \"#utility.yul\":6936:7158   */\n    tag_74:\n        /* \"#utility.yul\":7029:7033   */\n      0x00\n        /* \"#utility.yul\":7067:7069   */\n      0x20\n        /* \"#utility.yul\":7056:7065   */\n      dup3\n        /* \"#utility.yul\":7052:7070   */\n      add\n        /* \"#utility.yul\":7044:7070   */\n      swap1\n      pop\n        /* \"#utility.yul\":7080:7151   */\n      tag_443\n        /* \"#utility.yul\":7148:7149   */\n      0x00\n        /* \"#utility.yul\":7137:7146   */\n      dup4\n        /* \"#utility.yul\":7133:7150   */\n      add\n        /* \"#utility.yul\":7124:7130   */\n      dup5\n        /* \"#utility.yul\":7080:7151   */\n      tag_339\n      jump\t// in\n    tag_443:\n        /* \"#utility.yul\":6936:7158   */\n      swap3\n      swap2\n      pop\n      pop\n      jump\t// out\n        /* \"#utility.yul\":7164:7493   */\n    tag_80:\n        /* \"#utility.yul\":7223:7229   */\n      0x00\n        /* \"#utility.yul\":7272:7274   */\n      0x20\n        /* \"#utility.yul\":7260:7269   */\n      dup3\n        /* \"#utility.yul\":7251:7258   */\n      dup5\n        /* \"#utility.yul\":7247:7270   */\n      sub\n        /* \"#utility.yul\":7243:7275   */\n      slt\n        /* \"#utility.yul\":7240:7359   */\n      iszero\n      tag_445\n      jumpi\n        /* \"#utility.yul\":7278:7357   */\n      tag_446\n      tag_322\n      jump\t// in\n    tag_446:\n        /* \"#utility.yul\":7240:7359   */\n    tag_445:\n        /* \"#utility.yul\":7398:7399   */\n      0x00\n        /* \"#utility.yul\":7423:7476   */\n      tag_447\n        /* \"#utility.yul\":7468:7475   */\n      dup5\n        /* \"#utility.yul\":7459:7465   */\n      dup3\n        /* \"#utility.yul\":7448:7457   */\n      dup6\n        /* \"#utility.yul\":7444:7466   */\n      add\n        /* \"#utility.yul\":7423:7476   */\n      tag_329\n      jump\t// in\n    tag_447:\n        /* \"#utility.yul\":7413:7476   */\n      swap2\n      pop\n        /* \"#utility.yul\":7369:7486   */\n      pop\n        /* \"#utility.yul\":7164:7493   */\n      swap3\n      swap2\n      pop\n      pop\n      jump\t// out\n        /* \"#utility.yul\":7499:7973   */\n    tag_98:\n        /* \"#utility.yul\":7567:7573   */\n      0x00\n        /* \"#utility.yul\":7575:7581   */\n      0x00\n        /* \"#utility.yul\":7624:7626   */\n      0x40\n        /* \"#utility.yul\":7612:7621   */\n      dup4\n        /* \"#utility.yul\":7603:7610   */\n      dup6\n        /* \"#utility.yul\":7599:7622   */\n      sub\n        /* \"#utility.yul\":7595:7627   */\n      slt\n        /* \"#utility.yul\":7592:7711   */\n      iszero\n      tag_449\n      jumpi\n        /* \"#utility.yul\":7630:7709   */\n      tag_450\n      tag_322\n      jump\t// in\n    tag_450:\n        /* \"#utility.yul\":7592:7711   */\n    tag_449:\n        /* \"#utility.yul\":7750:7751   */\n      0x00\n        /* \"#utility.yul\":7775:7828   */\n      tag_451\n        /* \"#utility.yul\":7820:7827   */\n      dup6\n        /* \"#utility.yul\":7811:7817   */\n      dup3\n        /* \"#utility.yul\":7800:7809   */\n      dup7\n        /* \"#utility.yul\":7796:7818   */\n      add\n        /* \"#utility.yul\":7775:7828   */\n      tag_327\n      jump\t// in\n    tag_451:\n        /* \"#utility.yul\":7765:7828   */\n      swap3\n      pop\n        /* \"#utility.yul\":7721:7838   */\n      pop\n        /* \"#utility.yul\":7877:7879   */\n      0x20\n        /* \"#utility.yul\":7903:7956   */\n      tag_452\n        /* \"#utility.yul\":7948:7955   */\n      dup6\n        /* \"#utility.yul\":7939:7945   */\n      dup3\n        /* \"#utility.yul\":7928:7937   */\n      dup7\n        /* \"#utility.yul\":7924:7946   */\n      add\n        /* \"#utility.yul\":7903:7956   */\n      tag_327\n      jump\t// in\n    tag_452:\n        /* \"#utility.yul\":7893:7956   */\n      swap2\n      pop\n        /* \"#utility.yul\":7848:7966   */\n      pop\n        /* \"#utility.yul\":7499:7973   */\n      swap3\n      pop\n      swap3\n      swap1\n      pop\n      jump\t// out\n        /* \"#utility.yul\":7979:8159   */\n    tag_340:\n        /* \"#utility.yul\":8027:8104   */\n      0x4e487b7100000000000000000000000000000000000000000000000000000000\n        /* \"#utility.yul\":8024:8025   */\n      0x00\n        /* \"#utility.yul\":8017:8105   */\n      mstore\n        /* \"#utility.yul\":8124:8128   */\n      0x22\n        /* \"#utility.yul\":8121:8122   */\n      0x04\n        /* \"#utility.yul\":8114:8129   */\n      mstore\n        /* \"#utility.yul\":8148:8152   */\n      0x24\n        /* \"#utility.yul\":8145:8146   */\n      0x00\n        /* \"#utility.yul\":8138:8153   */\n      revert\n        /* \"#utility.yul\":8165:8485   */\n    tag_103:\n        /* \"#utility.yul\":8209:8215   */\n      0x00\n        /* \"#utility.yul\":8246:8247   */\n      0x02\n        /* \"#utility.yul\":8240:8244   */\n      dup3\n        /* \"#utility.yul\":8236:8248   */\n      div\n        /* \"#utility.yul\":8226:8248   */\n      swap1\n      pop\n        /* \"#utility.yul\":8293:8294   */\n      0x01\n        /* \"#utility.yul\":8287:8291   */\n      dup3\n        /* \"#utility.yul\":8283:8295   */\n      and\n        /* \"#utility.yul\":8314:8332   */\n      dup1\n        /* \"#utility.yul\":8304:8385   */\n      tag_455\n      jumpi\n        /* \"#utility.yul\":8370:8374   */\n      0x7f\n        /* \"#utility.yul\":8362:8368   */\n      dup3\n        /* \"#utility.yul\":8358:8375   */\n      and\n        /* \"#utility.yul\":8348:8375   */\n      swap2\n      pop\n        /* \"#utility.yul\":8304:8385   */\n    tag_455:\n        /* \"#utility.yul\":8432:8434   */\n      0x20\n        /* \"#utility.yul\":8424:8430   */\n      dup3\n        /* \"#utility.yul\":8421:8435   */\n      lt\n        /* \"#utility.yul\":8401:8419   */\n      dup2\n        /* \"#utility.yul\":8398:8436   */\n      sub\n        /* \"#utility.yul\":8395:8479   */\n      tag_456\n      jumpi\n        /* \"#utility.yul\":8451:8469   */\n      tag_457\n      tag_340\n      jump\t// in\n    tag_457:\n        /* \"#utility.yul\":8395:8479   */\n    tag_456:\n        /* \"#utility.yul\":8216:8485   */\n      pop\n        /* \"#utility.yul\":8165:8485   */\n      swap2\n      swap1\n      pop\n      jump\t// out\n        /* \"#utility.yul\":8491:8659   */\n    tag_341:\n        /* \"#utility.yul\":8631:8651   */\n      0x416d6f756e74206d757374206265203e20300000000000000000000000000000\n        /* \"#utility.yul\":8627:8628   */\n      0x00\n        /* \"#utility.yul\":8619:8625   */\n      dup3\n        /* \"#utility.yul\":8615:8629   */\n      add\n        /* \"#utility.yul\":8608:8652   */\n      mstore\n        /* \"#utility.yul\":8491:8659   */\n      pop\n      jump\t// out\n        /* \"#utility.yul\":8665:9031   */\n    tag_342:\n        /* \"#utility.yul\":8807:8810   */\n      0x00\n        /* \"#utility.yul\":8828:8895   */\n      tag_460\n        /* \"#utility.yul\":8892:8894   */\n      0x12\n        /* \"#utility.yul\":8887:8890   */\n      dup4\n        /* \"#utility.yul\":8828:8895   */\n      tag_315\n      jump\t// in\n    tag_460:\n        /* \"#utility.yul\":8821:8895   */\n      swap2\n      pop\n        /* \"#utility.yul\":8904:8997   */\n      tag_461\n        /* \"#utility.yul\":8993:8996   */\n      dup3\n        /* \"#utility.yul\":8904:8997   */\n      tag_341\n      jump\t// in\n    tag_461:\n        /* \"#utility.yul\":9022:9024   */\n      0x20\n        /* \"#utility.yul\":9017:9020   */\n      dup3\n        /* \"#utility.yul\":9013:9025   */\n      add\n        /* \"#utility.yul\":9006:9025   */\n      swap1\n      pop\n        /* \"#utility.yul\":8665:9031   */\n      swap2\n      swap1\n      pop\n      jump\t// out\n        /* \"#utility.yul\":9037:9456   */\n    tag_117:\n        /* \"#utility.yul\":9203:9207   */\n      0x00\n        /* \"#utility.yul\":9241:9243   */\n      0x20\n        /* \"#utility.yul\":9230:9239   */\n      dup3\n        /* \"#utility.yul\":9226:9244   */\n      add\n        /* \"#utility.yul\":9218:9244   */\n      swap1\n      pop\n        /* \"#utility.yul\":9290:9299   */\n      dup2\n        /* \"#utility.yul\":9284:9288   */\n      dup2\n        /* \"#utility.yul\":9280:9300   */\n      sub\n        /* \"#utility.yul\":9276:9277   */\n      0x00\n        /* \"#utility.yul\":9265:9274   */\n      dup4\n        /* \"#utility.yul\":9261:9278   */\n      add\n        /* \"#utility.yul\":9254:9301   */\n      mstore\n        /* \"#utility.yul\":9318:9449   */\n      tag_463\n        /* \"#utility.yul\":9444:9448   */\n      dup2\n        /* \"#utility.yul\":9318:9449   */\n      tag_342\n      jump\t// in\n    tag_463:\n        /* \"#utility.yul\":9310:9449   */\n      swap1\n      pop\n        /* \"#utility.yul\":9037:9456   */\n      swap2\n      swap1\n      pop\n      jump\t// out\n        /* \"#utility.yul\":9462:9633   */\n    tag_343:\n        /* \"#utility.yul\":9602:9625   */\n      0x496e73756666696369656e742072657365727665730000000000000000000000\n        /* \"#utility.yul\":9598:9599   */\n      0x00\n        /* \"#utility.yul\":9590:9596   */\n      dup3\n        /* \"#utility.yul\":9586:9600   */\n      add\n        /* \"#utility.yul\":9579:9626   */\n      mstore\n        /* \"#utility.yul\":9462:9633   */\n      pop\n      jump\t// out\n        /* \"#utility.yul\":9639:10005   */\n    tag_344:\n        /* \"#utility.yul\":9781:9784   */\n      0x00\n        /* \"#utility.yul\":9802:9869   */\n      tag_466\n        /* \"#utility.yul\":9866:9868   */\n      0x15\n        /* \"#utility.yul\":9861:9864   */\n      dup4\n        /* \"#utility.yul\":9802:9869   */\n      tag_315\n      jump\t// in\n    tag_466:\n        /* \"#utility.yul\":9795:9869   */\n      swap2\n      pop\n        /* \"#utility.yul\":9878:9971   */\n      tag_467\n        /* \"#utility.yul\":9967:9970   */\n      dup3\n        /* \"#utility.yul\":9878:9971   */\n      tag_343\n      jump\t// in\n    tag_467:\n        /* \"#utility.yul\":9996:9998   */\n      0x20\n        /* \"#utility.yul\":9991:9994   */\n      dup3\n        /* \"#utility.yul\":9987:9999   */\n      add\n        /* \"#utility.yul\":9980:9999   */\n      swap1\n      pop\n        /* \"#utility.yul\":9639:10005   */\n      swap2\n      swap1\n      pop\n      jump\t// out\n        /* \"#utility.yul\":10011:10430   */\n    tag_121:\n        /* \"#utility.yul\":10177:10181   */\n      0x00\n        /* \"#utility.yul\":10215:10217   */\n      0x20\n        /* \"#utility.yul\":10204:10213   */\n      dup3\n        /* \"#utility.yul\":10200:10218   */\n      add\n        /* \"#utility.yul\":10192:10218   */\n      swap1\n      pop\n        /* \"#utility.yul\":10264:10273   */\n      dup2\n        /* \"#utility.yul\":10258:10262   */\n      dup2\n        /* \"#utility.yul\":10254:10274   */\n      sub\n        /* \"#utility.yul\":10250:10251   */\n      0x00\n        /* \"#utility.yul\":10239:10248   */\n      dup4\n        /* \"#utility.yul\":10235:10252   */\n      add\n        /* \"#utility.yul\":10228:10275   */\n      mstore\n        /* \"#utility.yul\":10292:10423   */\n      tag_469\n        /* \"#utility.yul\":10418:10422   */\n      dup2\n        /* \"#utility.yul\":10292:10423   */\n      tag_344\n      jump\t// in\n    tag_469:\n        /* \"#utility.yul\":10284:10423   */\n      swap1\n      pop\n        /* \"#utility.yul\":10011:10430   */\n      swap2\n      swap1\n      pop\n      jump\t// out\n        /* \"#utility.yul\":10436:10616   */\n    tag_345:\n        /* \"#utility.yul\":10484:10561   */\n      0x4e487b7100000000000000000000000000000000000000000000000000000000\n        /* \"#utility.yul\":10481:10482   */\n      0x00\n        /* \"#utility.yul\":10474:10562   */\n      mstore\n        /* \"#utility.yul\":10581:10585   */\n      0x11\n        /* \"#utility.yul\":10578:10579   */\n      0x04\n        /* \"#utility.yul\":10571:10586   */\n      mstore\n        /* \"#utility.yul\":10605:10609   */\n      0x24\n        /* \"#utility.yul\":10602:10603   */\n      0x00\n        /* \"#utility.yul\":10595:10610   */\n      revert\n        /* \"#utility.yul\":10622:11032   */\n    tag_123:\n        /* \"#utility.yul\":10662:10669   */\n      0x00\n        /* \"#utility.yul\":10685:10705   */\n      tag_472\n        /* \"#utility.yul\":10703:10704   */\n      dup3\n        /* \"#utility.yul\":10685:10705   */\n      tag_319\n      jump\t// in\n    tag_472:\n        /* \"#utility.yul\":10680:10705   */\n      swap2\n      pop\n        /* \"#utility.yul\":10719:10739   */\n      tag_473\n        /* \"#utility.yul\":10737:10738   */\n      dup4\n        /* \"#utility.yul\":10719:10739   */\n      tag_319\n      jump\t// in\n    tag_473:\n        /* \"#utility.yul\":10714:10739   */\n      swap3\n      pop\n        /* \"#utility.yul\":10774:10775   */\n      dup3\n        /* \"#utility.yul\":10771:10772   */\n      dup3\n        /* \"#utility.yul\":10767:10776   */\n      mul\n        /* \"#utility.yul\":10796:10826   */\n      tag_474\n        /* \"#utility.yul\":10814:10825   */\n      dup2\n        /* \"#utility.yul\":10796:10826   */\n      tag_319\n      jump\t// in\n    tag_474:\n        /* \"#utility.yul\":10785:10826   */\n      swap2\n      pop\n        /* \"#utility.yul\":10975:10976   */\n      dup3\n        /* \"#utility.yul\":10966:10973   */\n      dup3\n        /* \"#utility.yul\":10962:10977   */\n      div\n        /* \"#utility.yul\":10959:10960   */\n      dup5\n        /* \"#utility.yul\":10956:10978   */\n      eq\n        /* \"#utility.yul\":10936:10937   */\n      dup4\n        /* \"#utility.yul\":10929:10938   */\n      iszero\n        /* \"#utility.yul\":10909:10992   */\n      or\n        /* \"#utility.yul\":10886:11025   */\n      tag_475\n      jumpi\n        /* \"#utility.yul\":11005:11023   */\n      tag_476\n      tag_345\n      jump\t// in\n    tag_476:\n        /* \"#utility.yul\":10886:11025   */\n    tag_475:\n        /* \"#utility.yul\":10670:11032   */\n      pop\n        /* \"#utility.yul\":10622:11032   */\n      swap3\n      swap2\n      pop\n      pop\n      jump\t// out\n        /* \"#utility.yul\":11038:11218   */\n    tag_346:\n        /* \"#utility.yul\":11086:11163   */\n      0x4e487b7100000000000000000000000000000000000000000000000000000000\n        /* \"#utility.yul\":11083:11084   */\n      0x00\n        /* \"#utility.yul\":11076:11164   */\n      mstore\n        /* \"#utility.yul\":11183:11187   */\n      0x12\n        /* \"#utility.yul\":11180:11181   */\n      0x04\n        /* \"#utility.yul\":11173:11188   */\n      mstore\n        /* \"#utility.yul\":11207:11211   */\n      0x24\n        /* \"#utility.yul\":11204:11205   */\n      0x00\n        /* \"#utility.yul\":11197:11212   */\n      revert\n        /* \"#utility.yul\":11224:11409   */\n    tag_125:\n        /* \"#utility.yul\":11264:11265   */\n      0x00\n        /* \"#utility.yul\":11281:11301   */\n      tag_479\n        /* \"#utility.yul\":11299:11300   */\n      dup3\n        /* \"#utility.yul\":11281:11301   */\n      tag_319\n      jump\t// in\n    tag_479:\n        /* \"#utility.yul\":11276:11301   */\n      swap2\n      pop\n        /* \"#utility.yul\":11315:11335   */\n      tag_480\n        /* \"#utility.yul\":11333:11334   */\n      dup4\n        /* \"#utility.yul\":11315:11335   */\n      tag_319\n      jump\t// in\n    tag_480:\n        /* \"#utility.yul\":11310:11335   */\n      swap3\n      pop\n        /* \"#utility.yul\":11354:11355   */\n      dup3\n        /* \"#utility.yul\":11344:11379   */\n      tag_481\n      jumpi\n        /* \"#utility.yul\":11359:11377   */\n      tag_482\n      tag_346\n      jump\t// in\n    tag_482:\n        /* \"#utility.yul\":11344:11379   */\n    tag_481:\n        /* \"#utility.yul\":11401:11402   */\n      dup3\n        /* \"#utility.yul\":11398:11399   */\n      dup3\n        /* \"#utility.yul\":11394:11403   */\n      div\n        /* \"#utility.yul\":11389:11403   */\n      swap1\n      pop\n        /* \"#utility.yul\":11224:11409   */\n      swap3\n      swap2\n      pop\n      pop\n      jump\t// out\n        /* \"#utility.yul\":11415:11606   */\n    tag_127:\n        /* \"#utility.yul\":11455:11458   */\n      0x00\n        /* \"#utility.yul\":11474:11494   */\n      tag_484\n        /* \"#utility.yul\":11492:11493   */\n      dup3\n        /* \"#utility.yul\":11474:11494   */\n      tag_319\n      jump\t// in\n    tag_484:\n        /* \"#utility.yul\":11469:11494   */\n      swap2\n      pop\n        /* \"#utility.yul\":11508:11528   */\n      tag_485\n        /* \"#utility.yul\":11526:11527   */\n      dup4\n        /* \"#utility.yul\":11508:11528   */\n      tag_319\n      jump\t// in\n    tag_485:\n        /* \"#utility.yul\":11503:11528   */\n      swap3\n      pop\n        /* \"#utility.yul\":11551:11552   */\n      dup3\n        /* \"#utility.yul\":11548:11549   */\n      dup3\n        /* \"#utility.yul\":11544:11553   */\n      add\n        /* \"#utility.yul\":11537:11553   */\n      swap1\n      pop\n        /* \"#utility.yul\":11572:11575   */\n      dup1\n        /* \"#utility.yul\":11569:11570   */\n      dup3\n        /* \"#utility.yul\":11566:11576   */\n      gt\n        /* \"#utility.yul\":11563:11599   */\n      iszero\n      tag_486\n      jumpi\n        /* \"#utility.yul\":11579:11597   */\n      tag_487\n      tag_345\n      jump\t// in\n    tag_487:\n        /* \"#utility.yul\":11563:11599   */\n    tag_486:\n        /* \"#utility.yul\":11415:11606   */\n      swap3\n      swap2\n      pop\n      pop\n      jump\t// out\n        /* \"#utility.yul\":11612:11779   */\n    tag_347:\n        /* \"#utility.yul\":11752:11771   */\n      0x536c69707061676520746f6f2068696768000000000000000000000000000000\n        /* \"#utility.yul\":11748:11749   */\n      0x00\n        /* \"#utility.yul\":11740:11746   */\n      dup3\n        /* \"#utility.yul\":11736:11750   */\n      add\n        /* \"#utility.yul\":11729:11772   */\n      mstore\n        /* \"#utility.yul\":11612:11779   */\n      pop\n      jump\t// out\n        /* \"#utility.yul\":11785:12151   */\n    tag_348:\n        /* \"#utility.yul\":11927:11930   */\n      0x00\n        /* \"#utility.yul\":11948:12015   */\n      tag_490\n        /* \"#utility.yul\":12012:12014   */\n      0x11\n        /* \"#utility.yul\":12007:12010   */\n      dup4\n        /* \"#utility.yul\":11948:12015   */\n      tag_315\n      jump\t// in\n    tag_490:\n        /* \"#utility.yul\":11941:12015   */\n      swap2\n      pop\n        /* \"#utility.yul\":12024:12117   */\n      tag_491\n        /* \"#utility.yul\":12113:12116   */\n      dup3\n        /* \"#utility.yul\":12024:12117   */\n      tag_347\n      jump\t// in\n    tag_491:\n        /* \"#utility.yul\":12142:12144   */\n      0x20\n        /* \"#utility.yul\":12137:12140   */\n      dup3\n        /* \"#utility.yul\":12133:12145   */\n      add\n        /* \"#utility.yul\":12126:12145   */\n      swap1\n      pop\n        /* \"#utility.yul\":11785:12151   */\n      swap2\n      swap1\n      pop\n      jump\t// out\n        /* \"#utility.yul\":12157:12576   */\n    tag_132:\n        /* \"#utility.yul\":12323:12327   */\n      0x00\n        /* \"#utility.yul\":12361:12363   */\n      0x20\n        /* \"#utility.yul\":12350:12359   */\n      dup3\n        /* \"#utility.yul\":12346:12364   */\n      add\n        /* \"#utility.yul\":12338:12364   */\n      swap1\n      pop\n        /* \"#utility.yul\":12410:12419   */\n      dup2\n        /* \"#utility.yul\":12404:12408   */\n      dup2\n        /* \"#utility.yul\":12400:12420   */\n      sub\n        /* \"#utility.yul\":12396:12397   */\n      0x00\n        /* \"#utility.yul\":12385:12394   */\n      dup4\n        /* \"#utility.yul\":12381:12398   */\n      add\n        /* \"#utility.yul\":12374:12421   */\n      mstore\n        /* \"#utility.yul\":12438:12569   */\n      tag_493\n        /* \"#utility.yul\":12564:12568   */\n      dup2\n        /* \"#utility.yul\":12438:12569   */\n      tag_348\n      jump\t// in\n    tag_493:\n        /* \"#utility.yul\":12430:12569   */\n      swap1\n      pop\n        /* \"#utility.yul\":12157:12576   */\n      swap2\n      swap1\n      pop\n      jump\t// out\n        /* \"#utility.yul\":12582:13024   */\n    tag_134:\n        /* \"#utility.yul\":12731:12735   */\n      0x00\n        /* \"#utility.yul\":12769:12771   */\n      0x60\n        /* \"#utility.yul\":12758:12767   */\n      dup3\n        /* \"#utility.yul\":12754:12772   */\n      add\n        /* \"#utility.yul\":12746:12772   */\n      swap1\n      pop\n        /* \"#utility.yul\":12782:12853   */\n      tag_495\n        /* \"#utility.yul\":12850:12851   */\n      0x00\n        /* \"#utility.yul\":12839:12848   */\n      dup4\n        /* \"#utility.yul\":12835:12852   */\n      add\n        /* \"#utility.yul\":12826:12832   */\n      dup7\n        /* \"#utility.yul\":12782:12853   */\n      tag_339\n      jump\t// in\n    tag_495:\n        /* \"#utility.yul\":12863:12935   */\n      tag_496\n        /* \"#utility.yul\":12931:12933   */\n      0x20\n        /* \"#utility.yul\":12920:12929   */\n      dup4\n        /* \"#utility.yul\":12916:12934   */\n      add\n        /* \"#utility.yul\":12907:12913   */\n      dup6\n        /* \"#utility.yul\":12863:12935   */\n      tag_339\n      jump\t// in\n    tag_496:\n        /* \"#utility.yul\":12945:13017   */\n      tag_497\n        /* \"#utility.yul\":13013:13015   */\n      0x40\n        /* \"#utility.yul\":13002:13011   */\n      dup4\n        /* \"#utility.yul\":12998:13016   */\n      add\n        /* \"#utility.yul\":12989:12995   */\n      dup5\n        /* \"#utility.yul\":12945:13017   */\n      tag_320\n      jump\t// in\n    tag_497:\n        /* \"#utility.yul\":12582:13024   */\n      swap5\n      swap4\n      pop\n      pop\n      pop\n      pop\n      jump\t// out\n        /* \"#utility.yul\":13030:13146   */\n    tag_349:\n        /* \"#utility.yul\":13100:13121   */\n      tag_499\n        /* \"#utility.yul\":13115:13120   */\n      dup2\n        /* \"#utility.yul\":13100:13121   */\n      tag_330\n      jump\t// in\n    tag_499:\n        /* \"#utility.yul\":13093:13098   */\n      dup2\n        /* \"#utility.yul\":13090:13122   */\n      eq\n        /* \"#utility.yul\":13080:13140   */\n      tag_500\n      jumpi\n        /* \"#utility.yul\":13136:13137   */\n      0x00\n        /* \"#utility.yul\":13133:13134   */\n      0x00\n        /* \"#utility.yul\":13126:13138   */\n      revert\n        /* \"#utility.yul\":13080:13140   */\n    tag_500:\n        /* \"#utility.yul\":13030:13146   */\n      pop\n      jump\t// out\n        /* \"#utility.yul\":13152:13289   */\n    tag_350:\n        /* \"#utility.yul\":13206:13211   */\n      0x00\n        /* \"#utility.yul\":13237:13243   */\n      dup2\n        /* \"#utility.yul\":13231:13244   */\n      mload\n        /* \"#utility.yul\":13222:13244   */\n      swap1\n      pop\n        /* \"#utility.yul\":13253:13283   */\n      tag_502\n        /* \"#utility.yul\":13277:13282   */\n      dup2\n        /* \"#utility.yul\":13253:13283   */\n      tag_349\n      jump\t// in\n    tag_502:\n        /* \"#utility.yul\":13152:13289   */\n      swap3\n      swap2\n      pop\n      pop\n      jump\t// out\n        /* \"#utility.yul\":13295:13640   */\n    tag_138:\n        /* \"#utility.yul\":13362:13368   */\n      0x00\n        /* \"#utility.yul\":13411:13413   */\n      0x20\n        /* \"#utility.yul\":13399:13408   */\n      dup3\n        /* \"#utility.yul\":13390:13397   */\n      dup5\n        /* \"#utility.yul\":13386:13409   */\n      sub\n        /* \"#utility.yul\":13382:13414   */\n      slt\n        /* \"#utility.yul\":13379:13498   */\n      iszero\n      tag_504\n      jumpi\n        /* \"#utility.yul\":13417:13496   */\n      tag_505\n      tag_322\n      jump\t// in\n    tag_505:\n        /* \"#utility.yul\":13379:13498   */\n    tag_504:\n        /* \"#utility.yul\":13537:13538   */\n      0x00\n        /* \"#utility.yul\":13562:13623   */\n      tag_506\n        /* \"#utility.yul\":13615:13622   */\n      dup5\n        /* \"#utility.yul\":13606:13612   */\n      dup3\n        /* \"#utility.yul\":13595:13604   */\n      dup6\n        /* \"#utility.yul\":13591:13613   */\n      add\n        /* \"#utility.yul\":13562:13623   */\n      tag_350\n      jump\t// in\n    tag_506:\n        /* \"#utility.yul\":13552:13623   */\n      swap2\n      pop\n        /* \"#utility.yul\":13508:13633   */\n      pop\n        /* \"#utility.yul\":13295:13640   */\n      swap3\n      swap2\n      pop\n      pop\n      jump\t// out\n        /* \"#utility.yul\":13646:13978   */\n    tag_140:\n        /* \"#utility.yul\":13767:13771   */\n      0x00\n        /* \"#utility.yul\":13805:13807   */\n      0x40\n        /* \"#utility.yul\":13794:13803   */\n      dup3\n        /* \"#utility.yul\":13790:13808   */\n      add\n        /* \"#utility.yul\":13782:13808   */\n      swap1\n      pop\n        /* \"#utility.yul\":13818:13889   */\n      tag_508\n        /* \"#utility.yul\":13886:13887   */\n      0x00\n        /* \"#utility.yul\":13875:13884   */\n      dup4\n        /* \"#utility.yul\":13871:13888   */\n      add\n        /* \"#utility.yul\":13862:13868   */\n      dup6\n        /* \"#utility.yul\":13818:13889   */\n      tag_339\n      jump\t// in\n    tag_508:\n        /* \"#utility.yul\":13899:13971   */\n      tag_509\n        /* \"#utility.yul\":13967:13969   */\n      0x20\n        /* \"#utility.yul\":13956:13965   */\n      dup4\n        /* \"#utility.yul\":13952:13970   */\n      add\n        /* \"#utility.yul\":13943:13949   */\n      dup5\n        /* \"#utility.yul\":13899:13971   */\n      tag_320\n      jump\t// in\n    tag_509:\n        /* \"#utility.yul\":13646:13978   */\n      swap4\n      swap3\n      pop\n      pop\n      pop\n      jump\t// out\n        /* \"#utility.yul\":13984:14178   */\n    tag_146:\n        /* \"#utility.yul\":14024:14028   */\n      0x00\n        /* \"#utility.yul\":14044:14064   */\n      tag_511\n        /* \"#utility.yul\":14062:14063   */\n      dup3\n        /* \"#utility.yul\":14044:14064   */\n      tag_319\n      jump\t// in\n    tag_511:\n        /* \"#utility.yul\":14039:14064   */\n      swap2\n      pop\n        /* \"#utility.yul\":14078:14098   */\n      tag_512\n        /* \"#utility.yul\":14096:14097   */\n      dup4\n        /* \"#utility.yul\":14078:14098   */\n      tag_319\n      jump\t// in\n    tag_512:\n        /* \"#utility.yul\":14073:14098   */\n      swap3\n      pop\n        /* \"#utility.yul\":14122:14123   */\n      dup3\n        /* \"#utility.yul\":14119:14120   */\n      dup3\n        /* \"#utility.yul\":14115:14124   */\n      sub\n        /* \"#utility.yul\":14107:14124   */\n      swap1\n      pop\n        /* \"#utility.yul\":14146:14147   */\n      dup2\n        /* \"#utility.yul\":14140:14144   */\n      dup2\n        /* \"#utility.yul\":14137:14148   */\n      gt\n        /* \"#utility.yul\":14134:14171   */\n      iszero\n      tag_513\n      jumpi\n        /* \"#utility.yul\":14151:14169   */\n      tag_514\n      tag_345\n      jump\t// in\n    tag_514:\n        /* \"#utility.yul\":14134:14171   */\n    tag_513:\n        /* \"#utility.yul\":13984:14178   */\n      swap3\n      swap2\n      pop\n      pop\n      jump\t// out\n        /* \"#utility.yul\":14184:14737   */\n    tag_148:\n        /* \"#utility.yul\":14361:14365   */\n      0x00\n        /* \"#utility.yul\":14399:14402   */\n      0x80\n        /* \"#utility.yul\":14388:14397   */\n      dup3\n        /* \"#utility.yul\":14384:14403   */\n      add\n        /* \"#utility.yul\":14376:14403   */\n      swap1\n      pop\n        /* \"#utility.yul\":14413:14484   */\n      tag_516\n        /* \"#utility.yul\":14481:14482   */\n      0x00\n        /* \"#utility.yul\":14470:14479   */\n      dup4\n        /* \"#utility.yul\":14466:14483   */\n      add\n        /* \"#utility.yul\":14457:14463   */\n      dup8\n        /* \"#utility.yul\":14413:14484   */\n      tag_339\n      jump\t// in\n    tag_516:\n        /* \"#utility.yul\":14494:14566   */\n      tag_517\n        /* \"#utility.yul\":14562:14564   */\n      0x20\n        /* \"#utility.yul\":14551:14560   */\n      dup4\n        /* \"#utility.yul\":14547:14565   */\n      add\n        /* \"#utility.yul\":14538:14544   */\n      dup7\n        /* \"#utility.yul\":14494:14566   */\n      tag_320\n      jump\t// in\n    tag_517:\n        /* \"#utility.yul\":14576:14648   */\n      tag_518\n        /* \"#utility.yul\":14644:14646   */\n      0x40\n        /* \"#utility.yul\":14633:14642   */\n      dup4\n        /* \"#utility.yul\":14629:14647   */\n      add\n        /* \"#utility.yul\":14620:14626   */\n      dup6\n        /* \"#utility.yul\":14576:14648   */\n      tag_339\n      jump\t// in\n    tag_518:\n        /* \"#utility.yul\":14658:14730   */\n      tag_519\n        /* \"#utility.yul\":14726:14728   */\n      0x60\n        /* \"#utility.yul\":14715:14724   */\n      dup4\n        /* \"#utility.yul\":14711:14729   */\n      add\n        /* \"#utility.yul\":14702:14708   */\n      dup5\n        /* \"#utility.yul\":14658:14730   */\n      tag_320\n      jump\t// in\n    tag_519:\n        /* \"#utility.yul\":14184:14737   */\n      swap6\n      swap5\n      pop\n      pop\n      pop\n      pop\n      pop\n      jump\t// out\n        /* \"#utility.yul\":14743:14924   */\n    tag_351:\n        /* \"#utility.yul\":14883:14916   */\n      0x4c697175696469747920746f2072656d6f7665206d757374206265203e203000\n        /* \"#utility.yul\":14879:14880   */\n      0x00\n        /* \"#utility.yul\":14871:14877   */\n      dup3\n        /* \"#utility.yul\":14867:14881   */\n      add\n        /* \"#utility.yul\":14860:14917   */\n      mstore\n        /* \"#utility.yul\":14743:14924   */\n      pop\n      jump\t// out\n        /* \"#utility.yul\":14930:15296   */\n    tag_352:\n        /* \"#utility.yul\":15072:15075   */\n      0x00\n        /* \"#utility.yul\":15093:15160   */\n      tag_522\n        /* \"#utility.yul\":15157:15159   */\n      0x1f\n        /* \"#utility.yul\":15152:15155   */\n      dup4\n        /* \"#utility.yul\":15093:15160   */\n      tag_315\n      jump\t// in\n    tag_522:\n        /* \"#utility.yul\":15086:15160   */\n      swap2\n      pop\n        /* \"#utility.yul\":15169:15262   */\n      tag_523\n        /* \"#utility.yul\":15258:15261   */\n      dup3\n        /* \"#utility.yul\":15169:15262   */\n      tag_351\n      jump\t// in\n    tag_523:\n        /* \"#utility.yul\":15287:15289   */\n      0x20\n        /* \"#utility.yul\":15282:15285   */\n      dup3\n        /* \"#utility.yul\":15278:15290   */\n      add\n        /* \"#utility.yul\":15271:15290   */\n      swap1\n      pop\n        /* \"#utility.yul\":14930:15296   */\n      swap2\n      swap1\n      pop\n      jump\t// out\n        /* \"#utility.yul\":15302:15721   */\n    tag_167:\n        /* \"#utility.yul\":15468:15472   */\n      0x00\n        /* \"#utility.yul\":15506:15508   */\n      0x20\n        /* \"#utility.yul\":15495:15504   */\n      dup3\n        /* \"#utility.yul\":15491:15509   */\n      add\n        /* \"#utility.yul\":15483:15509   */\n      swap1\n      pop\n        /* \"#utility.yul\":15555:15564   */\n      dup2\n        /* \"#utility.yul\":15549:15553   */\n      dup2\n        /* \"#utility.yul\":15545:15565   */\n      sub\n        /* \"#utility.yul\":15541:15542   */\n      0x00\n        /* \"#utility.yul\":15530:15539   */\n      dup4\n        /* \"#utility.yul\":15526:15543   */\n      add\n        /* \"#utility.yul\":15519:15566   */\n      mstore\n        /* \"#utility.yul\":15583:15714   */\n      tag_525\n        /* \"#utility.yul\":15709:15713   */\n      dup2\n        /* \"#utility.yul\":15583:15714   */\n      tag_352\n      jump\t// in\n    tag_525:\n        /* \"#utility.yul\":15575:15714   */\n      swap1\n      pop\n        /* \"#utility.yul\":15302:15721   */\n      swap2\n      swap1\n      pop\n      jump\t// out\n        /* \"#utility.yul\":15727:15906   */\n    tag_353:\n        /* \"#utility.yul\":15867:15898   */\n      0x496e73756666696369656e74206c697175696469747920746f6b656e73000000\n        /* \"#utility.yul\":15863:15864   */\n      0x00\n        /* \"#utility.yul\":15855:15861   */\n      dup3\n        /* \"#utility.yul\":15851:15865   */\n      add\n        /* \"#utility.yul\":15844:15899   */\n      mstore\n        /* \"#utility.yul\":15727:15906   */\n      pop\n      jump\t// out\n        /* \"#utility.yul\":15912:16278   */\n    tag_354:\n        /* \"#utility.yul\":16054:16057   */\n      0x00\n        /* \"#utility.yul\":16075:16142   */\n      tag_528\n        /* \"#utility.yul\":16139:16141   */\n      0x1d\n        /* \"#utility.yul\":16134:16137   */\n      dup4\n        /* \"#utility.yul\":16075:16142   */\n      tag_315\n      jump\t// in\n    tag_528:\n        /* \"#utility.yul\":16068:16142   */\n      swap2\n      pop\n        /* \"#utility.yul\":16151:16244   */\n      tag_529\n        /* \"#utility.yul\":16240:16243   */\n      dup3\n        /* \"#utility.yul\":16151:16244   */\n      tag_353\n      jump\t// in\n    tag_529:\n        /* \"#utility.yul\":16269:16271   */\n      0x20\n        /* \"#utility.yul\":16264:16267   */\n      dup3\n        /* \"#utility.yul\":16260:16272   */\n      add\n        /* \"#utility.yul\":16253:16272   */\n      swap1\n      pop\n        /* \"#utility.yul\":15912:16278   */\n      swap2\n      swap1\n      pop\n      jump\t// out\n        /* \"#utility.yul\":16284:16703   */\n    tag_171:\n        /* \"#utility.yul\":16450:16454   */\n      0x00\n        /* \"#utility.yul\":16488:16490   */\n      0x20\n        /* \"#utility.yul\":16477:16486   */\n      dup3\n        /* \"#utility.yul\":16473:16491   */\n      add\n        /* \"#utility.yul\":16465:16491   */\n      swap1\n      pop\n        /* \"#utility.yul\":16537:16546   */\n      dup2\n        /* \"#utility.yul\":16531:16535   */\n      dup2\n        /* \"#utility.yul\":16527:16547   */\n      sub\n        /* \"#utility.yul\":16523:16524   */\n      0x00\n        /* \"#utility.yul\":16512:16521   */\n      dup4\n        /* \"#utility.yul\":16508:16525   */\n      add\n        /* \"#utility.yul\":16501:16548   */\n      mstore\n        /* \"#utility.yul\":16565:16696   */\n      tag_531\n        /* \"#utility.yul\":16691:16695   */\n      dup2\n        /* \"#utility.yul\":16565:16696   */\n      tag_354\n      jump\t// in\n    tag_531:\n        /* \"#utility.yul\":16557:16696   */\n      swap1\n      pop\n        /* \"#utility.yul\":16284:16703   */\n      swap2\n      swap1\n      pop\n      jump\t// out\n        /* \"#utility.yul\":16709:16883   */\n    tag_355:\n        /* \"#utility.yul\":16849:16875   */\n      0x4e6f206c697175696469747920696e2074686520706f6f6c0000000000000000\n        /* \"#utility.yul\":16845:16846   */\n      0x00\n        /* \"#utility.yul\":16837:16843   */\n      dup3\n        /* \"#utility.yul\":16833:16847   */\n      add\n        /* \"#utility.yul\":16826:16876   */\n      mstore\n        /* \"#utility.yul\":16709:16883   */\n      pop\n      jump\t// out\n        /* \"#utility.yul\":16889:17255   */\n    tag_356:\n        /* \"#utility.yul\":17031:17034   */\n      0x00\n        /* \"#utility.yul\":17052:17119   */\n      tag_534\n        /* \"#utility.yul\":17116:17118   */\n      0x18\n        /* \"#utility.yul\":17111:17114   */\n      dup4\n        /* \"#utility.yul\":17052:17119   */\n      tag_315\n      jump\t// in\n    tag_534:\n        /* \"#utility.yul\":17045:17119   */\n      swap2\n      pop\n        /* \"#utility.yul\":17128:17221   */\n      tag_535\n        /* \"#utility.yul\":17217:17220   */\n      dup3\n        /* \"#utility.yul\":17128:17221   */\n      tag_355\n      jump\t// in\n    tag_535:\n        /* \"#utility.yul\":17246:17248   */\n      0x20\n        /* \"#utility.yul\":17241:17244   */\n      dup3\n        /* \"#utility.yul\":17237:17249   */\n      add\n        /* \"#utility.yul\":17230:17249   */\n      swap1\n      pop\n        /* \"#utility.yul\":16889:17255   */\n      swap2\n      swap1\n      pop\n      jump\t// out\n        /* \"#utility.yul\":17261:17680   */\n    tag_175:\n        /* \"#utility.yul\":17427:17431   */\n      0x00\n        /* \"#utility.yul\":17465:17467   */\n      0x20\n        /* \"#utility.yul\":17454:17463   */\n      dup3\n        /* \"#utility.yul\":17450:17468   */\n      add\n        /* \"#utility.yul\":17442:17468   */\n      swap1\n      pop\n        /* \"#utility.yul\":17514:17523   */\n      dup2\n        /* \"#utility.yul\":17508:17512   */\n      dup2\n        /* \"#utility.yul\":17504:17524   */\n      sub\n        /* \"#utility.yul\":17500:17501   */\n      0x00\n        /* \"#utility.yul\":17489:17498   */\n      dup4\n        /* \"#utility.yul\":17485:17502   */\n      add\n        /* \"#utility.yul\":17478:17525   */\n      mstore\n        /* \"#utility.yul\":17542:17673   */\n      tag_537\n        /* \"#utility.yul\":17668:17672   */\n      dup2\n        /* \"#utility.yul\":17542:17673   */\n      tag_356\n      jump\t// in\n    tag_537:\n        /* \"#utility.yul\":17534:17673   */\n      swap1\n      pop\n        /* \"#utility.yul\":17261:17680   */\n      swap2\n      swap1\n      pop\n      jump\t// out\n        /* \"#utility.yul\":17686:17918   */\n    tag_357:\n        /* \"#utility.yul\":17826:17860   */\n      0x496e73756666696369656e7420726573657276657320666f7220726571756573\n        /* \"#utility.yul\":17822:17823   */\n      0x00\n        /* \"#utility.yul\":17814:17820   */\n      dup3\n        /* \"#utility.yul\":17810:17824   */\n      add\n        /* \"#utility.yul\":17803:17861   */\n      mstore\n        /* \"#utility.yul\":17895:17910   */\n      0x746564206c697175696469747900000000000000000000000000000000000000\n        /* \"#utility.yul\":17890:17892   */\n      0x20\n        /* \"#utility.yul\":17882:17888   */\n      dup3\n        /* \"#utility.yul\":17878:17893   */\n      add\n        /* \"#utility.yul\":17871:17911   */\n      mstore\n        /* \"#utility.yul\":17686:17918   */\n      pop\n      jump\t// out\n        /* \"#utility.yul\":17924:18290   */\n    tag_358:\n        /* \"#utility.yul\":18066:18069   */\n      0x00\n        /* \"#utility.yul\":18087:18154   */\n      tag_540\n        /* \"#utility.yul\":18151:18153   */\n      0x2d\n        /* \"#utility.yul\":18146:18149   */\n      dup4\n        /* \"#utility.yul\":18087:18154   */\n      tag_315\n      jump\t// in\n    tag_540:\n        /* \"#utility.yul\":18080:18154   */\n      swap2\n      pop\n        /* \"#utility.yul\":18163:18256   */\n      tag_541\n        /* \"#utility.yul\":18252:18255   */\n      dup3\n        /* \"#utility.yul\":18163:18256   */\n      tag_357\n      jump\t// in\n    tag_541:\n        /* \"#utility.yul\":18281:18283   */\n      0x40\n        /* \"#utility.yul\":18276:18279   */\n      dup3\n        /* \"#utility.yul\":18272:18284   */\n      add\n        /* \"#utility.yul\":18265:18284   */\n      swap1\n      pop\n        /* \"#utility.yul\":17924:18290   */\n      swap2\n      swap1\n      pop\n      jump\t// out\n        /* \"#utility.yul\":18296:18715   */\n    tag_183:\n        /* \"#utility.yul\":18462:18466   */\n      0x00\n        /* \"#utility.yul\":18500:18502   */\n      0x20\n        /* \"#utility.yul\":18489:18498   */\n      dup3\n        /* \"#utility.yul\":18485:18503   */\n      add\n        /* \"#utility.yul\":18477:18503   */\n      swap1\n      pop\n        /* \"#utility.yul\":18549:18558   */\n      dup2\n        /* \"#utility.yul\":18543:18547   */\n      dup2\n        /* \"#utility.yul\":18539:18559   */\n      sub\n        /* \"#utility.yul\":18535:18536   */\n      0x00\n        /* \"#utility.yul\":18524:18533   */\n      dup4\n        /* \"#utility.yul\":18520:18537   */\n      add\n        /* \"#utility.yul\":18513:18560   */\n      mstore\n        /* \"#utility.yul\":18577:18708   */\n      tag_543\n        /* \"#utility.yul\":18703:18707   */\n      dup2\n        /* \"#utility.yul\":18577:18708   */\n      tag_358\n      jump\t// in\n    tag_543:\n        /* \"#utility.yul\":18569:18708   */\n      swap1\n      pop\n        /* \"#utility.yul\":18296:18715   */\n      swap2\n      swap1\n      pop\n      jump\t// out\n        /* \"#utility.yul\":18721:19163   */\n    tag_197:\n        /* \"#utility.yul\":18870:18874   */\n      0x00\n        /* \"#utility.yul\":18908:18910   */\n      0x60\n        /* \"#utility.yul\":18897:18906   */\n      dup3\n        /* \"#utility.yul\":18893:18911   */\n      add\n        /* \"#utility.yul\":18885:18911   */\n      swap1\n      pop\n        /* \"#utility.yul\":18921:18992   */\n      tag_545\n        /* \"#utility.yul\":18989:18990   */\n      0x00\n        /* \"#utility.yul\":18978:18987   */\n      dup4\n        /* \"#utility.yul\":18974:18991   */\n      add\n        /* \"#utility.yul\":18965:18971   */\n      dup7\n        /* \"#utility.yul\":18921:18992   */\n      tag_320\n      jump\t// in\n    tag_545:\n        /* \"#utility.yul\":19002:19074   */\n      tag_546\n        /* \"#utility.yul\":19070:19072   */\n      0x20\n        /* \"#utility.yul\":19059:19068   */\n      dup4\n        /* \"#utility.yul\":19055:19073   */\n      add\n        /* \"#utility.yul\":19046:19052   */\n      dup6\n        /* \"#utility.yul\":19002:19074   */\n      tag_320\n      jump\t// in\n    tag_546:\n        /* \"#utility.yul\":19084:19156   */\n      tag_547\n        /* \"#utility.yul\":19152:19154   */\n      0x40\n        /* \"#utility.yul\":19141:19150   */\n      dup4\n        /* \"#utility.yul\":19137:19155   */\n      add\n        /* \"#utility.yul\":19128:19134   */\n      dup5\n        /* \"#utility.yul\":19084:19156   */\n      tag_320\n      jump\t// in\n    tag_547:\n        /* \"#utility.yul\":18721:19163   */\n      swap5\n      swap4\n      pop\n      pop\n      pop\n      pop\n      jump\t// out\n        /* \"#utility.yul\":19169:19338   */\n    tag_359:\n        /* \"#utility.yul\":19309:19330   */\n      0x416d6f756e7473206d757374206265203e203000000000000000000000000000\n        /* \"#utility.yul\":19305:19306   */\n      0x00\n        /* \"#utility.yul\":19297:19303   */\n      dup3\n        /* \"#utility.yul\":19293:19307   */\n      add\n        /* \"#utility.yul\":19286:19331   */\n      mstore\n        /* \"#utility.yul\":19169:19338   */\n      pop\n      jump\t// out\n        /* \"#utility.yul\":19344:19710   */\n    tag_360:\n        /* \"#utility.yul\":19486:19489   */\n      0x00\n        /* \"#utility.yul\":19507:19574   */\n      tag_550\n        /* \"#utility.yul\":19571:19573   */\n      0x13\n        /* \"#utility.yul\":19566:19569   */\n      dup4\n        /* \"#utility.yul\":19507:19574   */\n      tag_315\n      jump\t// in\n    tag_550:\n        /* \"#utility.yul\":19500:19574   */\n      swap2\n      pop\n        /* \"#utility.yul\":19583:19676   */\n      tag_551\n        /* \"#utility.yul\":19672:19675   */\n      dup3\n        /* \"#utility.yul\":19583:19676   */\n      tag_359\n      jump\t// in\n    tag_551:\n        /* \"#utility.yul\":19701:19703   */\n      0x20\n        /* \"#utility.yul\":19696:19699   */\n      dup3\n        /* \"#utility.yul\":19692:19704   */\n      add\n        /* \"#utility.yul\":19685:19704   */\n      swap1\n      pop\n        /* \"#utility.yul\":19344:19710   */\n      swap2\n      swap1\n      pop\n      jump\t// out\n        /* \"#utility.yul\":19716:20135   */\n    tag_202:\n        /* \"#utility.yul\":19882:19886   */\n      0x00\n        /* \"#utility.yul\":19920:19922   */\n      0x20\n        /* \"#utility.yul\":19909:19918   */\n      dup3\n        /* \"#utility.yul\":19905:19923   */\n      add\n        /* \"#utility.yul\":19897:19923   */\n      swap1\n      pop\n        /* \"#utility.yul\":19969:19978   */\n      dup2\n        /* \"#utility.yul\":19963:19967   */\n      dup2\n        /* \"#utility.yul\":19959:19979   */\n      sub\n        /* \"#utility.yul\":19955:19956   */\n      0x00\n        /* \"#utility.yul\":19944:19953   */\n      dup4\n        /* \"#utility.yul\":19940:19957   */\n      add\n        /* \"#utility.yul\":19933:19980   */\n      mstore\n        /* \"#utility.yul\":19997:20128   */\n      tag_553\n        /* \"#utility.yul\":20123:20127   */\n      dup2\n        /* \"#utility.yul\":19997:20128   */\n      tag_360\n      jump\t// in\n    tag_553:\n        /* \"#utility.yul\":19989:20128   */\n      swap1\n      pop\n        /* \"#utility.yul\":19716:20135   */\n      swap2\n      swap1\n      pop\n      jump\t// out\n        /* \"#utility.yul\":20141:20583   */\n    tag_267:\n        /* \"#utility.yul\":20290:20294   */\n      0x00\n        /* \"#utility.yul\":20328:20330   */\n      0x60\n        /* \"#utility.yul\":20317:20326   */\n      dup3\n        /* \"#utility.yul\":20313:20331   */\n      add\n        /* \"#utility.yul\":20305:20331   */\n      swap1\n      pop\n        /* \"#utility.yul\":20341:20412   */\n      tag_555\n        /* \"#utility.yul\":20409:20410   */\n      0x00\n        /* \"#utility.yul\":20398:20407   */\n      dup4\n        /* \"#utility.yul\":20394:20411   */\n      add\n        /* \"#utility.yul\":20385:20391   */\n      dup7\n        /* \"#utility.yul\":20341:20412   */\n      tag_339\n      jump\t// in\n    tag_555:\n        /* \"#utility.yul\":20422:20494   */\n      tag_556\n        /* \"#utility.yul\":20490:20492   */\n      0x20\n        /* \"#utility.yul\":20479:20488   */\n      dup4\n        /* \"#utility.yul\":20475:20493   */\n      add\n        /* \"#utility.yul\":20466:20472   */\n      dup6\n        /* \"#utility.yul\":20422:20494   */\n      tag_320\n      jump\t// in\n    tag_556:\n        /* \"#utility.yul\":20504:20576   */\n      tag_557\n        /* \"#utility.yul\":20572:20574   */\n      0x40\n        /* \"#utility.yul\":20561:20570   */\n      dup4\n        /* \"#utility.yul\":20557:20575   */\n      add\n        /* \"#utility.yul\":20548:20554   */\n      dup5\n        /* \"#utility.yul\":20504:20576   */\n      tag_320\n      jump\t// in\n    tag_557:\n        /* \"#utility.yul\":20141:20583   */\n      swap5\n      swap4\n      pop\n      pop\n      pop\n      pop\n      jump\t// out\n\n    auxdata: 0xa2646970667358221220738b2c834d3bfb667288a19228b6900f00ddc9a577b699ea505eb7e928a2cd1464736f6c634300081e0033\n}\n",
				"bytecode": {
					"linkReferences": {},
					"object": "608060405234801561000f575f5ffd5b50604051612a79380380612a79833981810160405281019061003191906102c5565b818181600390816100429190610571565b5080600490816100529190610571565b5050508360055f6101000a81548173ffffffffffffffffffffffffffffffffffffffff021916908373ffffffffffffffffffffffffffffffffffffffff1602179055508260065f6101000a81548173ffffffffffffffffffffffffffffffffffffffff021916908373ffffffffffffffffffffffffffffffffffffffff1602179055503360095f6101000a81548173ffffffffffffffffffffffffffffffffffffffff021916908373ffffffffffffffffffffffffffffffffffffffff16021790555050505050610640565b5f604051905090565b5f5ffd5b5f5ffd5b5f73ffffffffffffffffffffffffffffffffffffffff82169050919050565b5f6101588261012f565b9050919050565b6101688161014e565b8114610172575f5ffd5b50565b5f815190506101838161015f565b92915050565b5f5ffd5b5f5ffd5b5f601f19601f8301169050919050565b7f4e487b71000000000000000000000000000000000000000000000000000000005f52604160045260245ffd5b6101d782610191565b810181811067ffffffffffffffff821117156101f6576101f56101a1565b5b80604052505050565b5f61020861011e565b905061021482826101ce565b919050565b5f67ffffffffffffffff821115610233576102326101a1565b5b61023c82610191565b9050602081019050919050565b8281835e5f83830152505050565b5f61026961026484610219565b6101ff565b9050828152602081018484840111156102855761028461018d565b5b610290848285610249565b509392505050565b5f82601f8301126102ac576102ab610189565b5b81516102bc848260208601610257565b91505092915050565b5f5f5f5f608085870312156102dd576102dc610127565b5b5f6102ea87828801610175565b94505060206102fb87828801610175565b935050604085015167ffffffffffffffff81111561031c5761031b61012b565b5b61032887828801610298565b925050606085015167ffffffffffffffff8111156103495761034861012b565b5b61035587828801610298565b91505092959194509250565b5f81519050919050565b7f4e487b71000000000000000000000000000000000000000000000000000000005f52602260045260245ffd5b5f60028204905060018216806103af57607f821691505b6020821081036103c2576103c161036b565b5b50919050565b5f819050815f5260205f209050919050565b5f6020601f8301049050919050565b5f82821b905092915050565b5f600883026104247fffffffffffffffffffffffffffffffffffffffffffffffffffffffffffffffff826103e9565b61042e86836103e9565b95508019841693508086168417925050509392505050565b5f819050919050565b5f819050919050565b5f61047261046d61046884610446565b61044f565b610446565b9050919050565b5f819050919050565b61048b83610458565b61049f61049782610479565b8484546103f5565b825550505050565b5f5f905090565b6104b66104a7565b6104c1818484610482565b505050565b5b818110156104e4576104d95f826104ae565b6001810190506104c7565b5050565b601f821115610529576104fa816103c8565b610503846103da565b81016020851015610512578190505b61052661051e856103da565b8301826104c6565b50505b505050565b5f82821c905092915050565b5f6105495f198460080261052e565b1980831691505092915050565b5f610561838361053a565b9150826002028217905092915050565b61057a82610361565b67ffffffffffffffff811115610593576105926101a1565b5b61059d8254610398565b6105a88282856104e8565b5f60209050601f8311600181146105d9575f84156105c7578287015190505b6105d18582610556565b865550610638565b601f1984166105e7866103c8565b5f5b8281101561060e578489015182556001820191506020850194506020810190506105e9565b8683101561062b5784890151610627601f89168261053a565b8355505b6001600288020188555050505b505050505050565b61242c8061064d5f395ff3fe608060405234801561000f575f5ffd5b506004361061011f575f3560e01c80635f64b55b116100ab5780639cd441da1161006f5780639cd441da1461030f578063a9059cbb1461032b578063c915cc241461035b578063dc5fa6c514610377578063dd62ed3e146103955761011f565b80635f64b55b1461025457806370a08231146102725780638da5cb5b146102a257806395d89b41146102c05780639c8f9f23146102de5761011f565b8063140e6247116100f2578063140e6247146101ae57806318160ddd146101ca57806319e36f3b146101e857806323b872dd14610206578063313ce567146102365761011f565b806306fdde03146101235780630902f1ac14610141578063095ea7b3146101605780630fc63d1014610190575b5f5ffd5b61012b6103c5565b6040516101389190611a41565b60405180910390f35b610149610455565b604051610157929190611a79565b60405180910390f35b61017a60048036038101906101759190611b28565b610465565b6040516101879190611b80565b60405180910390f35b610198610487565b6040516101a59190611bf4565b60405180910390f35b6101c860048036038101906101c39190611c0d565b6104ac565b005b6101d26107d1565b6040516101df9190611c4b565b60405180910390f35b6101f06107da565b6040516101fd9190611c4b565b60405180910390f35b610220600480360381019061021b9190611c64565b6107e0565b60405161022d9190611b80565b60405180910390f35b61023e61080e565b60405161024b9190611ccf565b60405180910390f35b61025c610816565b6040516102699190611bf4565b60405180910390f35b61028c60048036038101906102879190611ce8565b61083b565b6040516102999190611c4b565b60405180910390f35b6102aa610880565b6040516102b79190611d22565b60405180910390f35b6102c86108a5565b6040516102d59190611a41565b60405180910390f35b6102f860048036038101906102f39190611d3b565b610935565b604051610306929190611a79565b60405180910390f35b61032960048036038101906103249190611c0d565b610c60565b005b61034560048036038101906103409190611b28565b610ef1565b6040516103529190611b80565b60405180910390f35b61037560048036038101906103709190611c0d565b610f13565b005b61037f611238565b60405161038c9190611c4b565b60405180910390f35b6103af60048036038101906103aa9190611d66565b61123e565b6040516103bc9190611c4b565b60405180910390f35b6060600380546103d490611dd1565b80601f016020809104026020016040519081016040528092919081815260200182805461040090611dd1565b801561044b5780601f106104225761010080835404028352916020019161044b565b820191905f5260205f20905b81548152906001019060200180831161042e57829003601f168201915b5050505050905090565b5f5f600754600854915091509091565b5f5f61046f6112c0565b905061047c8185856112c7565b600191505092915050565b60055f9054906101000a900473ffffffffffffffffffffffffffffffffffffffff1681565b5f82116104ee576040517f08c379a00000000000000000000000000000000000000000000000000000000081526004016104e590611e4b565b60405180910390fd5b5f60075411801561050057505f600854115b61053f576040517f08c379a000000000000000000000000000000000000000000000000000000000815260040161053690611eb3565b60405180910390fd5b5f6103e86103e5846105519190611efe565b61055b9190611f6c565b90505f8160075461056c9190611f9c565b8260085461057a9190611efe565b6105849190611f6c565b9050828110156105c9576040517f08c379a00000000000000000000000000000000000000000000000000000000081526004016105c090612019565b60405180910390fd5b60055f9054906101000a900473ffffffffffffffffffffffffffffffffffffffff1673ffffffffffffffffffffffffffffffffffffffff166323b872dd3330876040518463ffffffff1660e01b815260040161062793929190612037565b6020604051808303815f875af1158015610643573d5f5f3e3d5ffd5b505050506040513d601f19601f820116820180604052508101906106679190612096565b5060065f9054906101000a900473ffffffffffffffffffffffffffffffffffffffff1673ffffffffffffffffffffffffffffffffffffffff1663a9059cbb33836040518363ffffffff1660e01b81526004016106c49291906120c1565b6020604051808303815f875af11580156106e0573d5f5f3e3d5ffd5b505050506040513d601f19601f820116820180604052508101906107049190612096565b508160075f8282546107169190611f9c565b925050819055508060085f82825461072e91906120e8565b925050819055503373ffffffffffffffffffffffffffffffffffffffff167f631fb37dba9bbcb8b2f3be2d669e365ae9f1bd850cc57dfe8b7ccd7d979a2bba60055f9054906101000a900473ffffffffffffffffffffffffffffffffffffffff168660065f9054906101000a900473ffffffffffffffffffffffffffffffffffffffff16856040516107c3949392919061211b565b60405180910390a250505050565b5f600254905090565b60085481565b5f5f6107ea6112c0565b90506107f78582856112d9565b61080285858561136c565b60019150509392505050565b5f6012905090565b60065f9054906101000a900473ffffffffffffffffffffffffffffffffffffffff1681565b5f5f5f8373ffffffffffffffffffffffffffffffffffffffff1673ffffffffffffffffffffffffffffffffffffffff1681526020019081526020015f20549050919050565b60095f9054906101000a900473ffffffffffffffffffffffffffffffffffffffff1681565b6060600480546108b490611dd1565b80601f01602080910402602001604051908101604052809291908181526020018280546108e090611dd1565b801561092b5780601f106109025761010080835404028352916020019161092b565b820191905f5260205f20905b81548152906001019060200180831161090e57829003601f168201915b5050505050905090565b5f5f5f8311610979576040517f08c379a0000000000000000000000000000000000000000000000000000000008152600401610970906121a8565b60405180910390fd5b826109833361083b565b10156109c4576040517f08c379a00000000000000000000000000000000000000000000000000000000081526004016109bb90612210565b60405180910390fd5b5f6109cd6107d1565b90505f8111610a11576040517f08c379a0000000000000000000000000000000000000000000000000000000008152600401610a0890612278565b60405180910390fd5b8060075485610a209190611efe565b610a2a9190611f6c565b92508060085485610a3b9190611efe565b610a459190611f6c565b91505f83118015610a5557505f82115b610a94576040517f08c379a0000000000000000000000000000000000000000000000000000000008152600401610a8b90612306565b60405180910390fd5b8260075f828254610aa591906120e8565b925050819055508160085f828254610abd91906120e8565b92505081905550610ace338561145c565b60055f9054906101000a900473ffffffffffffffffffffffffffffffffffffffff1673ffffffffffffffffffffffffffffffffffffffff1663a9059cbb33856040518363ffffffff1660e01b8152600401610b2a9291906120c1565b6020604051808303815f875af1158015610b46573d5f5f3e3d5ffd5b505050506040513d601f19601f82011682018060405250810190610b6a9190612096565b5060065f9054906101000a900473ffffffffffffffffffffffffffffffffffffffff1673ffffffffffffffffffffffffffffffffffffffff1663a9059cbb33846040518363ffffffff1660e01b8152600401610bc79291906120c1565b6020604051808303815f875af1158015610be3573d5f5f3e3d5ffd5b505050506040513d601f19601f82011682018060405250810190610c079190612096565b503373ffffffffffffffffffffffffffffffffffffffff167f1dc8bb69df2b8e91fbdcbfcf93d951b3f0000f085a95fe3f7946d6161439245d848487604051610c5293929190612324565b60405180910390a250915091565b5f82118015610c6e57505f81115b610cad576040517f08c379a0000000000000000000000000000000000000000000000000000000008152600401610ca4906123a3565b60405180910390fd5b60055f9054906101000a900473ffffffffffffffffffffffffffffffffffffffff1673ffffffffffffffffffffffffffffffffffffffff166323b872dd3330856040518463ffffffff1660e01b8152600401610d0b93929190612037565b6020604051808303815f875af1158015610d27573d5f5f3e3d5ffd5b505050506040513d601f19601f82011682018060405250810190610d4b9190612096565b5060065f9054906101000a900473ffffffffffffffffffffffffffffffffffffffff1673ffffffffffffffffffffffffffffffffffffffff166323b872dd3330846040518463ffffffff1660e01b8152600401610daa93929190612037565b6020604051808303815f875af1158015610dc6573d5f5f3e3d5ffd5b505050506040513d601f19601f82011682018060405250810190610dea9190612096565b505f5f610df56107d1565b03610e1557610e0e8284610e099190611efe565b6114db565b9050610e60565b610e5d600754610e236107d1565b85610e2e9190611efe565b610e389190611f6c565b600854610e436107d1565b85610e4e9190611efe565b610e589190611f6c565b611552565b90505b610e6a338261156a565b8260075f828254610e7b9190611f9c565b925050819055508160085f828254610e939190611f9c565b925050819055503373ffffffffffffffffffffffffffffffffffffffff167f64b83944e79c3ce8d4c297411de637c3e102d064677aac0c163976ebdcd6f50e848484604051610ee493929190612324565b60405180910390a2505050565b5f5f610efb6112c0565b9050610f0881858561136c565b600191505092915050565b5f8211610f55576040517f08c379a0000000000000000000000000000000000000000000000000000000008152600401610f4c90611e4b565b60405180910390fd5b5f600754118015610f6757505f600854115b610fa6576040517f08c379a0000000000000000000000000000000000000000000000000000000008152600401610f9d90611eb3565b60405180910390fd5b5f6103e86103e584610fb89190611efe565b610fc29190611f6c565b90505f81600854610fd39190611f9c565b82600754610fe19190611efe565b610feb9190611f6c565b905082811015611030576040517f08c379a000000000000000000000000000000000000000000000000000000000815260040161102790612019565b60405180910390fd5b60065f9054906101000a900473ffffffffffffffffffffffffffffffffffffffff1673ffffffffffffffffffffffffffffffffffffffff166323b872dd3330876040518463ffffffff1660e01b815260040161108e93929190612037565b6020604051808303815f875af11580156110aa573d5f5f3e3d5ffd5b505050506040513d601f19601f820116820180604052508101906110ce9190612096565b5060055f9054906101000a900473ffffffffffffffffffffffffffffffffffffffff1673ffffffffffffffffffffffffffffffffffffffff1663a9059cbb33836040518363ffffffff1660e01b815260040161112b9291906120c1565b6020604051808303815f875af1158015611147573d5f5f3e3d5ffd5b505050506040513d601f19601f8201168201806040525081019061116b9190612096565b508160085f82825461117d9190611f9c565b925050819055508060075f82825461119591906120e8565b925050819055503373ffffffffffffffffffffffffffffffffffffffff167f631fb37dba9bbcb8b2f3be2d669e365ae9f1bd850cc57dfe8b7ccd7d979a2bba60065f9054906101000a900473ffffffffffffffffffffffffffffffffffffffff168660055f9054906101000a900473ffffffffffffffffffffffffffffffffffffffff168560405161122a949392919061211b565b60405180910390a250505050565b60075481565b5f60015f8473ffffffffffffffffffffffffffffffffffffffff1673ffffffffffffffffffffffffffffffffffffffff1681526020019081526020015f205f8373ffffffffffffffffffffffffffffffffffffffff1673ffffffffffffffffffffffffffffffffffffffff1681526020019081526020015f2054905092915050565b5f33905090565b6112d483838360016115e9565b505050565b5f6112e4848461123e565b90507fffffffffffffffffffffffffffffffffffffffffffffffffffffffffffffffff8110156113665781811015611357578281836040517ffb8f41b200000000000000000000000000000000000000000000000000000000815260040161134e939291906123c1565b60405180910390fd5b61136584848484035f6115e9565b5b50505050565b5f73ffffffffffffffffffffffffffffffffffffffff168373ffffffffffffffffffffffffffffffffffffffff16036113dc575f6040517f96c6fd1e0000000000000000000000000000000000000000000000000000000081526004016113d39190611d22565b60405180910390fd5b5f73ffffffffffffffffffffffffffffffffffffffff168273ffffffffffffffffffffffffffffffffffffffff160361144c575f6040517fec442f050000000000000000000000000000000000000000000000000000000081526004016114439190611d22565b60405180910390fd5b6114578383836117b8565b505050565b5f73ffffffffffffffffffffffffffffffffffffffff168273ffffffffffffffffffffffffffffffffffffffff16036114cc575f6040517f96c6fd1e0000000000000000000000000000000000000000000000000000000081526004016114c39190611d22565b60405180910390fd5b6114d7825f836117b8565b5050565b5f6003821115611540578190505f60016002846114f89190611f6c565b6115029190611f9c565b90505b8181101561153a57809150600281828561151f9190611f6c565b6115299190611f9c565b6115339190611f6c565b9050611505565b5061154d565b5f821461154c57600190505b5b919050565b5f8183106115605781611562565b825b905092915050565b5f73ffffffffffffffffffffffffffffffffffffffff168273ffffffffffffffffffffffffffffffffffffffff16036115da575f6040517fec442f050000000000000000000000000000000000000000000000000000000081526004016115d19190611d22565b60405180910390fd5b6115e55f83836117b8565b5050565b5f73ffffffffffffffffffffffffffffffffffffffff168473ffffffffffffffffffffffffffffffffffffffff1603611659575f6040517fe602df050000000000000000000000000000000000000000000000000000000081526004016116509190611d22565b60405180910390fd5b5f73ffffffffffffffffffffffffffffffffffffffff168373ffffffffffffffffffffffffffffffffffffffff16036116c9575f6040517f94280d620000000000000000000000000000000000000000000000000000000081526004016116c09190611d22565b60405180910390fd5b8160015f8673ffffffffffffffffffffffffffffffffffffffff1673ffffffffffffffffffffffffffffffffffffffff1681526020019081526020015f205f8573ffffffffffffffffffffffffffffffffffffffff1673ffffffffffffffffffffffffffffffffffffffff1681526020019081526020015f208190555080156117b2578273ffffffffffffffffffffffffffffffffffffffff168473ffffffffffffffffffffffffffffffffffffffff167f8c5be1e5ebec7d5bd14f71427d1e84f3dd0314c0f7b2291e5b200ac8c7c3b925846040516117a99190611c4b565b60405180910390a35b50505050565b5f73ffffffffffffffffffffffffffffffffffffffff168373ffffffffffffffffffffffffffffffffffffffff1603611808578060025f8282546117fc9190611f9c565b925050819055506118d6565b5f5f5f8573ffffffffffffffffffffffffffffffffffffffff1673ffffffffffffffffffffffffffffffffffffffff1681526020019081526020015f2054905081811015611891578381836040517fe450d38c000000000000000000000000000000000000000000000000000000008152600401611888939291906123c1565b60405180910390fd5b8181035f5f8673ffffffffffffffffffffffffffffffffffffffff1673ffffffffffffffffffffffffffffffffffffffff1681526020019081526020015f2081905550505b5f73ffffffffffffffffffffffffffffffffffffffff168273ffffffffffffffffffffffffffffffffffffffff160361191d578060025f8282540392505081905550611967565b805f5f8473ffffffffffffffffffffffffffffffffffffffff1673ffffffffffffffffffffffffffffffffffffffff1681526020019081526020015f205f82825401925050819055505b8173ffffffffffffffffffffffffffffffffffffffff168373ffffffffffffffffffffffffffffffffffffffff167fddf252ad1be2c89b69c2b068fc378daa952ba7f163c4a11628f55a4df523b3ef836040516119c49190611c4b565b60405180910390a3505050565b5f81519050919050565b5f82825260208201905092915050565b8281835e5f83830152505050565b5f601f19601f8301169050919050565b5f611a13826119d1565b611a1d81856119db565b9350611a2d8185602086016119eb565b611a36816119f9565b840191505092915050565b5f6020820190508181035f830152611a598184611a09565b905092915050565b5f819050919050565b611a7381611a61565b82525050565b5f604082019050611a8c5f830185611a6a565b611a996020830184611a6a565b9392505050565b5f5ffd5b5f73ffffffffffffffffffffffffffffffffffffffff82169050919050565b5f611acd82611aa4565b9050919050565b611add81611ac3565b8114611ae7575f5ffd5b50565b5f81359050611af881611ad4565b92915050565b611b0781611a61565b8114611b11575f5ffd5b50565b5f81359050611b2281611afe565b92915050565b5f5f60408385031215611b3e57611b3d611aa0565b5b5f611b4b85828601611aea565b9250506020611b5c85828601611b14565b9150509250929050565b5f8115159050919050565b611b7a81611b66565b82525050565b5f602082019050611b935f830184611b71565b92915050565b5f819050919050565b5f611bbc611bb7611bb284611aa4565b611b99565b611aa4565b9050919050565b5f611bcd82611ba2565b9050919050565b5f611bde82611bc3565b9050919050565b611bee81611bd4565b82525050565b5f602082019050611c075f830184611be5565b92915050565b5f5f60408385031215611c2357611c22611aa0565b5b5f611c3085828601611b14565b9250506020611c4185828601611b14565b9150509250929050565b5f602082019050611c5e5f830184611a6a565b92915050565b5f5f5f60608486031215611c7b57611c7a611aa0565b5b5f611c8886828701611aea565b9350506020611c9986828701611aea565b9250506040611caa86828701611b14565b9150509250925092565b5f60ff82169050919050565b611cc981611cb4565b82525050565b5f602082019050611ce25f830184611cc0565b92915050565b5f60208284031215611cfd57611cfc611aa0565b5b5f611d0a84828501611aea565b91505092915050565b611d1c81611ac3565b82525050565b5f602082019050611d355f830184611d13565b92915050565b5f60208284031215611d5057611d4f611aa0565b5b5f611d5d84828501611b14565b91505092915050565b5f5f60408385031215611d7c57611d7b611aa0565b5b5f611d8985828601611aea565b9250506020611d9a85828601611aea565b9150509250929050565b7f4e487b71000000000000000000000000000000000000000000000000000000005f52602260045260245ffd5b5f6002820490506001821680611de857607f821691505b602082108103611dfb57611dfa611da4565b5b50919050565b7f416d6f756e74206d757374206265203e203000000000000000000000000000005f82015250565b5f611e356012836119db565b9150611e4082611e01565b602082019050919050565b5f6020820190508181035f830152611e6281611e29565b9050919050565b7f496e73756666696369656e7420726573657276657300000000000000000000005f82015250565b5f611e9d6015836119db565b9150611ea882611e69565b602082019050919050565b5f6020820190508181035f830152611eca81611e91565b9050919050565b7f4e487b71000000000000000000000000000000000000000000000000000000005f52601160045260245ffd5b5f611f0882611a61565b9150611f1383611a61565b9250828202611f2181611a61565b91508282048414831517611f3857611f37611ed1565b5b5092915050565b7f4e487b71000000000000000000000000000000000000000000000000000000005f52601260045260245ffd5b5f611f7682611a61565b9150611f8183611a61565b925082611f9157611f90611f3f565b5b828204905092915050565b5f611fa682611a61565b9150611fb183611a61565b9250828201905080821115611fc957611fc8611ed1565b5b92915050565b7f536c69707061676520746f6f20686967680000000000000000000000000000005f82015250565b5f6120036011836119db565b915061200e82611fcf565b602082019050919050565b5f6020820190508181035f83015261203081611ff7565b9050919050565b5f60608201905061204a5f830186611d13565b6120576020830185611d13565b6120646040830184611a6a565b949350505050565b61207581611b66565b811461207f575f5ffd5b50565b5f815190506120908161206c565b92915050565b5f602082840312156120ab576120aa611aa0565b5b5f6120b884828501612082565b91505092915050565b5f6040820190506120d45f830185611d13565b6120e16020830184611a6a565b9392505050565b5f6120f282611a61565b91506120fd83611a61565b925082820390508181111561211557612114611ed1565b5b92915050565b5f60808201905061212e5f830187611d13565b61213b6020830186611a6a565b6121486040830185611d13565b6121556060830184611a6a565b95945050505050565b7f4c697175696469747920746f2072656d6f7665206d757374206265203e2030005f82015250565b5f612192601f836119db565b915061219d8261215e565b602082019050919050565b5f6020820190508181035f8301526121bf81612186565b9050919050565b7f496e73756666696369656e74206c697175696469747920746f6b656e730000005f82015250565b5f6121fa601d836119db565b9150612205826121c6565b602082019050919050565b5f6020820190508181035f830152612227816121ee565b9050919050565b7f4e6f206c697175696469747920696e2074686520706f6f6c00000000000000005f82015250565b5f6122626018836119db565b915061226d8261222e565b602082019050919050565b5f6020820190508181035f83015261228f81612256565b9050919050565b7f496e73756666696369656e7420726573657276657320666f72207265717565735f8201527f746564206c697175696469747900000000000000000000000000000000000000602082015250565b5f6122f0602d836119db565b91506122fb82612296565b604082019050919050565b5f6020820190508181035f83015261231d816122e4565b9050919050565b5f6060820190506123375f830186611a6a565b6123446020830185611a6a565b6123516040830184611a6a565b949350505050565b7f416d6f756e7473206d757374206265203e2030000000000000000000000000005f82015250565b5f61238d6013836119db565b915061239882612359565b602082019050919050565b5f6020820190508181035f8301526123ba81612381565b9050919050565b5f6060820190506123d45f830186611d13565b6123e16020830185611a6a565b6123ee6040830184611a6a565b94935050505056fea2646970667358221220738b2c834d3bfb667288a19228b6900f00ddc9a577b699ea505eb7e928a2cd1464736f6c634300081e0033",
					"opcodes": "PUSH1 0x80 PUSH1 0x40 MSTORE CALLVALUE DUP1 ISZERO PUSH2 0xF JUMPI PUSH0 PUSH0 REVERT JUMPDEST POP PUSH1 0x40 MLOAD PUSH2 0x2A79 CODESIZE SUB DUP1 PUSH2 0x2A79 DUP4 CODECOPY DUP2 DUP2 ADD PUSH1 0x40 MSTORE DUP2 ADD SWAP1 PUSH2 0x31 SWAP2 SWAP1 PUSH2 0x2C5 JUMP JUMPDEST DUP2 DUP2 DUP2 PUSH1 0x3 SWAP1 DUP2 PUSH2 0x42 SWAP2 SWAP1 PUSH2 0x571 JUMP JUMPDEST POP DUP1 PUSH1 0x4 SWAP1 DUP2 PUSH2 0x52 SWAP2 SWAP1 PUSH2 0x571 JUMP JUMPDEST POP POP POP DUP4 PUSH1 0x5 PUSH0 PUSH2 0x100 EXP DUP2 SLOAD DUP2 PUSH20 0xFFFFFFFFFFFFFFFFFFFFFFFFFFFFFFFFFFFFFFFF MUL NOT AND SWAP1 DUP4 PUSH20 0xFFFFFFFFFFFFFFFFFFFFFFFFFFFFFFFFFFFFFFFF AND MUL OR SWAP1 SSTORE POP DUP3 PUSH1 0x6 PUSH0 PUSH2 0x100 EXP DUP2 SLOAD DUP2 PUSH20 0xFFFFFFFFFFFFFFFFFFFFFFFFFFFFFFFFFFFFFFFF MUL NOT AND SWAP1 DUP4 PUSH20 0xFFFFFFFFFFFFFFFFFFFFFFFFFFFFFFFFFFFFFFFF AND MUL OR SWAP1 SSTORE POP CALLER PUSH1 0x9 PUSH0 PUSH2 0x100 EXP DUP2 SLOAD DUP2 PUSH20 0xFFFFFFFFFFFFFFFFFFFFFFFFFFFFFFFFFFFFFFFF MUL NOT AND SWAP1 DUP4 PUSH20 0xFFFFFFFFFFFFFFFFFFFFFFFFFFFFFFFFFFFFFFFF AND MUL OR SWAP1 SSTORE POP POP POP POP POP PUSH2 0x640 JUMP JUMPDEST PUSH0 PUSH1 0x40 MLOAD SWAP1 POP SWAP1 JUMP JUMPDEST PUSH0 PUSH0 REVERT JUMPDEST PUSH0 PUSH0 REVERT JUMPDEST PUSH0 PUSH20 0xFFFFFFFFFFFFFFFFFFFFFFFFFFFFFFFFFFFFFFFF DUP3 AND SWAP1 POP SWAP2 SWAP1 POP JUMP JUMPDEST PUSH0 PUSH2 0x158 DUP3 PUSH2 0x12F JUMP JUMPDEST SWAP1 POP SWAP2 SWAP1 POP JUMP JUMPDEST PUSH2 0x168 DUP2 PUSH2 0x14E JUMP JUMPDEST DUP2 EQ PUSH2 0x172 JUMPI PUSH0 PUSH0 REVERT JUMPDEST POP JUMP JUMPDEST PUSH0 DUP2 MLOAD SWAP1 POP PUSH2 0x183 DUP2 PUSH2 0x15F JUMP JUMPDEST SWAP3 SWAP2 POP POP JUMP JUMPDEST PUSH0 PUSH0 REVERT JUMPDEST PUSH0 PUSH0 REVERT JUMPDEST PUSH0 PUSH1 0x1F NOT PUSH1 0x1F DUP4 ADD AND SWAP1 POP SWAP2 SWAP1 POP JUMP JUMPDEST PUSH32 0x4E487B7100000000000000000000000000000000000000000000000000000000 PUSH0 MSTORE PUSH1 0x41 PUSH1 0x4 MSTORE PUSH1 0x24 PUSH0 REVERT JUMPDEST PUSH2 0x1D7 DUP3 PUSH2 0x191 JUMP JUMPDEST DUP2 ADD DUP2 DUP2 LT PUSH8 0xFFFFFFFFFFFFFFFF DUP3 GT OR ISZERO PUSH2 0x1F6 JUMPI PUSH2 0x1F5 PUSH2 0x1A1 JUMP JUMPDEST JUMPDEST DUP1 PUSH1 0x40 MSTORE POP POP POP JUMP JUMPDEST PUSH0 PUSH2 0x208 PUSH2 0x11E JUMP JUMPDEST SWAP1 POP PUSH2 0x214 DUP3 DUP3 PUSH2 0x1CE JUMP JUMPDEST SWAP2 SWAP1 POP JUMP JUMPDEST PUSH0 PUSH8 0xFFFFFFFFFFFFFFFF DUP3 GT ISZERO PUSH2 0x233 JUMPI PUSH2 0x232 PUSH2 0x1A1 JUMP JUMPDEST JUMPDEST PUSH2 0x23C DUP3 PUSH2 0x191 JUMP JUMPDEST SWAP1 POP PUSH1 0x20 DUP2 ADD SWAP1 POP SWAP2 SWAP1 POP JUMP JUMPDEST DUP3 DUP2 DUP4 MCOPY PUSH0 DUP4 DUP4 ADD MSTORE POP POP POP JUMP JUMPDEST PUSH0 PUSH2 0x269 PUSH2 0x264 DUP5 PUSH2 0x219 JUMP JUMPDEST PUSH2 0x1FF JUMP JUMPDEST SWAP1 POP DUP3 DUP2 MSTORE PUSH1 0x20 DUP2 ADD DUP5 DUP5 DUP5 ADD GT ISZERO PUSH2 0x285 JUMPI PUSH2 0x284 PUSH2 0x18D JUMP JUMPDEST JUMPDEST PUSH2 0x290 DUP5 DUP3 DUP6 PUSH2 0x249 JUMP JUMPDEST POP SWAP4 SWAP3 POP POP POP JUMP JUMPDEST PUSH0 DUP3 PUSH1 0x1F DUP4 ADD SLT PUSH2 0x2AC JUMPI PUSH2 0x2AB PUSH2 0x189 JUMP JUMPDEST JUMPDEST DUP2 MLOAD PUSH2 0x2BC DUP5 DUP3 PUSH1 0x20 DUP7 ADD PUSH2 0x257 JUMP JUMPDEST SWAP2 POP POP SWAP3 SWAP2 POP POP JUMP JUMPDEST PUSH0 PUSH0 PUSH0 PUSH0 PUSH1 0x80 DUP6 DUP8 SUB SLT ISZERO PUSH2 0x2DD JUMPI PUSH2 0x2DC PUSH2 0x127 JUMP JUMPDEST JUMPDEST PUSH0 PUSH2 0x2EA DUP8 DUP3 DUP9 ADD PUSH2 0x175 JUMP JUMPDEST SWAP5 POP POP PUSH1 0x20 PUSH2 0x2FB DUP8 DUP3 DUP9 ADD PUSH2 0x175 JUMP JUMPDEST SWAP4 POP POP PUSH1 0x40 DUP6 ADD MLOAD PUSH8 0xFFFFFFFFFFFFFFFF DUP2 GT ISZERO PUSH2 0x31C JUMPI PUSH2 0x31B PUSH2 0x12B JUMP JUMPDEST JUMPDEST PUSH2 0x328 DUP8 DUP3 DUP9 ADD PUSH2 0x298 JUMP JUMPDEST SWAP3 POP POP PUSH1 0x60 DUP6 ADD MLOAD PUSH8 0xFFFFFFFFFFFFFFFF DUP2 GT ISZERO PUSH2 0x349 JUMPI PUSH2 0x348 PUSH2 0x12B JUMP JUMPDEST JUMPDEST PUSH2 0x355 DUP8 DUP3 DUP9 ADD PUSH2 0x298 JUMP JUMPDEST SWAP2 POP POP SWAP3 SWAP6 SWAP2 SWAP5 POP SWAP3 POP JUMP JUMPDEST PUSH0 DUP2 MLOAD SWAP1 POP SWAP2 SWAP1 POP JUMP JUMPDEST PUSH32 0x4E487B7100000000000000000000000000000000000000000000000000000000 PUSH0 MSTORE PUSH1 0x22 PUSH1 0x4 MSTORE PUSH1 0x24 PUSH0 REVERT JUMPDEST PUSH0 PUSH1 0x2 DUP3 DIV SWAP1 POP PUSH1 0x1 DUP3 AND DUP1 PUSH2 0x3AF JUMPI PUSH1 0x7F DUP3 AND SWAP2 POP JUMPDEST PUSH1 0x20 DUP3 LT DUP2 SUB PUSH2 0x3C2 JUMPI PUSH2 0x3C1 PUSH2 0x36B JUMP JUMPDEST JUMPDEST POP SWAP2 SWAP1 POP JUMP JUMPDEST PUSH0 DUP2 SWAP1 POP DUP2 PUSH0 MSTORE PUSH1 0x20 PUSH0 KECCAK256 SWAP1 POP SWAP2 SWAP1 POP JUMP JUMPDEST PUSH0 PUSH1 0x20 PUSH1 0x1F DUP4 ADD DIV SWAP1 POP SWAP2 SWAP1 POP JUMP JUMPDEST PUSH0 DUP3 DUP3 SHL SWAP1 POP SWAP3 SWAP2 POP POP JUMP JUMPDEST PUSH0 PUSH1 0x8 DUP4 MUL PUSH2 0x424 PUSH32 0xFFFFFFFFFFFFFFFFFFFFFFFFFFFFFFFFFFFFFFFFFFFFFFFFFFFFFFFFFFFFFFFF DUP3 PUSH2 0x3E9 JUMP JUMPDEST PUSH2 0x42E DUP7 DUP4 PUSH2 0x3E9 JUMP JUMPDEST SWAP6 POP DUP1 NOT DUP5 AND SWAP4 POP DUP1 DUP7 AND DUP5 OR SWAP3 POP POP POP SWAP4 SWAP3 POP POP POP JUMP JUMPDEST PUSH0 DUP2 SWAP1 POP SWAP2 SWAP1 POP JUMP JUMPDEST PUSH0 DUP2 SWAP1 POP SWAP2 SWAP1 POP JUMP JUMPDEST PUSH0 PUSH2 0x472 PUSH2 0x46D PUSH2 0x468 DUP5 PUSH2 0x446 JUMP JUMPDEST PUSH2 0x44F JUMP JUMPDEST PUSH2 0x446 JUMP JUMPDEST SWAP1 POP SWAP2 SWAP1 POP JUMP JUMPDEST PUSH0 DUP2 SWAP1 POP SWAP2 SWAP1 POP JUMP JUMPDEST PUSH2 0x48B DUP4 PUSH2 0x458 JUMP JUMPDEST PUSH2 0x49F PUSH2 0x497 DUP3 PUSH2 0x479 JUMP JUMPDEST DUP5 DUP5 SLOAD PUSH2 0x3F5 JUMP JUMPDEST DUP3 SSTORE POP POP POP POP JUMP JUMPDEST PUSH0 PUSH0 SWAP1 POP SWAP1 JUMP JUMPDEST PUSH2 0x4B6 PUSH2 0x4A7 JUMP JUMPDEST PUSH2 0x4C1 DUP2 DUP5 DUP5 PUSH2 0x482 JUMP JUMPDEST POP POP POP JUMP JUMPDEST JUMPDEST DUP2 DUP2 LT ISZERO PUSH2 0x4E4 JUMPI PUSH2 0x4D9 PUSH0 DUP3 PUSH2 0x4AE JUMP JUMPDEST PUSH1 0x1 DUP2 ADD SWAP1 POP PUSH2 0x4C7 JUMP JUMPDEST POP POP JUMP JUMPDEST PUSH1 0x1F DUP3 GT ISZERO PUSH2 0x529 JUMPI PUSH2 0x4FA DUP2 PUSH2 0x3C8 JUMP JUMPDEST PUSH2 0x503 DUP5 PUSH2 0x3DA JUMP JUMPDEST DUP2 ADD PUSH1 0x20 DUP6 LT ISZERO PUSH2 0x512 JUMPI DUP2 SWAP1 POP JUMPDEST PUSH2 0x526 PUSH2 0x51E DUP6 PUSH2 0x3DA JUMP JUMPDEST DUP4 ADD DUP3 PUSH2 0x4C6 JUMP JUMPDEST POP POP JUMPDEST POP POP POP JUMP JUMPDEST PUSH0 DUP3 DUP3 SHR SWAP1 POP SWAP3 SWAP2 POP POP JUMP JUMPDEST PUSH0 PUSH2 0x549 PUSH0 NOT DUP5 PUSH1 0x8 MUL PUSH2 0x52E JUMP JUMPDEST NOT DUP1 DUP4 AND SWAP2 POP POP SWAP3 SWAP2 POP POP JUMP JUMPDEST PUSH0 PUSH2 0x561 DUP4 DUP4 PUSH2 0x53A JUMP JUMPDEST SWAP2 POP DUP3 PUSH1 0x2 MUL DUP3 OR SWAP1 POP SWAP3 SWAP2 POP POP JUMP JUMPDEST PUSH2 0x57A DUP3 PUSH2 0x361 JUMP JUMPDEST PUSH8 0xFFFFFFFFFFFFFFFF DUP2 GT ISZERO PUSH2 0x593 JUMPI PUSH2 0x592 PUSH2 0x1A1 JUMP JUMPDEST JUMPDEST PUSH2 0x59D DUP3 SLOAD PUSH2 0x398 JUMP JUMPDEST PUSH2 0x5A8 DUP3 DUP3 DUP6 PUSH2 0x4E8 JUMP JUMPDEST PUSH0 PUSH1 0x20 SWAP1 POP PUSH1 0x1F DUP4 GT PUSH1 0x1 DUP2 EQ PUSH2 0x5D9 JUMPI PUSH0 DUP5 ISZERO PUSH2 0x5C7 JUMPI DUP3 DUP8 ADD MLOAD SWAP1 POP JUMPDEST PUSH2 0x5D1 DUP6 DUP3 PUSH2 0x556 JUMP JUMPDEST DUP7 SSTORE POP PUSH2 0x638 JUMP JUMPDEST PUSH1 0x1F NOT DUP5 AND PUSH2 0x5E7 DUP7 PUSH2 0x3C8 JUMP JUMPDEST PUSH0 JUMPDEST DUP3 DUP2 LT ISZERO PUSH2 0x60E JUMPI DUP5 DUP10 ADD MLOAD DUP3 SSTORE PUSH1 0x1 DUP3 ADD SWAP2 POP PUSH1 0x20 DUP6 ADD SWAP5 POP PUSH1 0x20 DUP2 ADD SWAP1 POP PUSH2 0x5E9 JUMP JUMPDEST DUP7 DUP4 LT ISZERO PUSH2 0x62B JUMPI DUP5 DUP10 ADD MLOAD PUSH2 0x627 PUSH1 0x1F DUP10 AND DUP3 PUSH2 0x53A JUMP JUMPDEST DUP4 SSTORE POP JUMPDEST PUSH1 0x1 PUSH1 0x2 DUP9 MUL ADD DUP9 SSTORE POP POP POP JUMPDEST POP POP POP POP POP POP JUMP JUMPDEST PUSH2 0x242C DUP1 PUSH2 0x64D PUSH0 CODECOPY PUSH0 RETURN INVALID PUSH1 0x80 PUSH1 0x40 MSTORE CALLVALUE DUP1 ISZERO PUSH2 0xF JUMPI PUSH0 PUSH0 REVERT JUMPDEST POP PUSH1 0x4 CALLDATASIZE LT PUSH2 0x11F JUMPI PUSH0 CALLDATALOAD PUSH1 0xE0 SHR DUP1 PUSH4 0x5F64B55B GT PUSH2 0xAB JUMPI DUP1 PUSH4 0x9CD441DA GT PUSH2 0x6F JUMPI DUP1 PUSH4 0x9CD441DA EQ PUSH2 0x30F JUMPI DUP1 PUSH4 0xA9059CBB EQ PUSH2 0x32B JUMPI DUP1 PUSH4 0xC915CC24 EQ PUSH2 0x35B JUMPI DUP1 PUSH4 0xDC5FA6C5 EQ PUSH2 0x377 JUMPI DUP1 PUSH4 0xDD62ED3E EQ PUSH2 0x395 JUMPI PUSH2 0x11F JUMP JUMPDEST DUP1 PUSH4 0x5F64B55B EQ PUSH2 0x254 JUMPI DUP1 PUSH4 0x70A08231 EQ PUSH2 0x272 JUMPI DUP1 PUSH4 0x8DA5CB5B EQ PUSH2 0x2A2 JUMPI DUP1 PUSH4 0x95D89B41 EQ PUSH2 0x2C0 JUMPI DUP1 PUSH4 0x9C8F9F23 EQ PUSH2 0x2DE JUMPI PUSH2 0x11F JUMP JUMPDEST DUP1 PUSH4 0x140E6247 GT PUSH2 0xF2 JUMPI DUP1 PUSH4 0x140E6247 EQ PUSH2 0x1AE JUMPI DUP1 PUSH4 0x18160DDD EQ PUSH2 0x1CA JUMPI DUP1 PUSH4 0x19E36F3B EQ PUSH2 0x1E8 JUMPI DUP1 PUSH4 0x23B872DD EQ PUSH2 0x206 JUMPI DUP1 PUSH4 0x313CE567 EQ PUSH2 0x236 JUMPI PUSH2 0x11F JUMP JUMPDEST DUP1 PUSH4 0x6FDDE03 EQ PUSH2 0x123 JUMPI DUP1 PUSH4 0x902F1AC EQ PUSH2 0x141 JUMPI DUP1 PUSH4 0x95EA7B3 EQ PUSH2 0x160 JUMPI DUP1 PUSH4 0xFC63D10 EQ PUSH2 0x190 JUMPI JUMPDEST PUSH0 PUSH0 REVERT JUMPDEST PUSH2 0x12B PUSH2 0x3C5 JUMP JUMPDEST PUSH1 0x40 MLOAD PUSH2 0x138 SWAP2 SWAP1 PUSH2 0x1A41 JUMP JUMPDEST PUSH1 0x40 MLOAD DUP1 SWAP2 SUB SWAP1 RETURN JUMPDEST PUSH2 0x149 PUSH2 0x455 JUMP JUMPDEST PUSH1 0x40 MLOAD PUSH2 0x157 SWAP3 SWAP2 SWAP1 PUSH2 0x1A79 JUMP JUMPDEST PUSH1 0x40 MLOAD DUP1 SWAP2 SUB SWAP1 RETURN JUMPDEST PUSH2 0x17A PUSH1 0x4 DUP1 CALLDATASIZE SUB DUP2 ADD SWAP1 PUSH2 0x175 SWAP2 SWAP1 PUSH2 0x1B28 JUMP JUMPDEST PUSH2 0x465 JUMP JUMPDEST PUSH1 0x40 MLOAD PUSH2 0x187 SWAP2 SWAP1 PUSH2 0x1B80 JUMP JUMPDEST PUSH1 0x40 MLOAD DUP1 SWAP2 SUB SWAP1 RETURN JUMPDEST PUSH2 0x198 PUSH2 0x487 JUMP JUMPDEST PUSH1 0x40 MLOAD PUSH2 0x1A5 SWAP2 SWAP1 PUSH2 0x1BF4 JUMP JUMPDEST PUSH1 0x40 MLOAD DUP1 SWAP2 SUB SWAP1 RETURN JUMPDEST PUSH2 0x1C8 PUSH1 0x4 DUP1 CALLDATASIZE SUB DUP2 ADD SWAP1 PUSH2 0x1C3 SWAP2 SWAP1 PUSH2 0x1C0D JUMP JUMPDEST PUSH2 0x4AC JUMP JUMPDEST STOP JUMPDEST PUSH2 0x1D2 PUSH2 0x7D1 JUMP JUMPDEST PUSH1 0x40 MLOAD PUSH2 0x1DF SWAP2 SWAP1 PUSH2 0x1C4B JUMP JUMPDEST PUSH1 0x40 MLOAD DUP1 SWAP2 SUB SWAP1 RETURN JUMPDEST PUSH2 0x1F0 PUSH2 0x7DA JUMP JUMPDEST PUSH1 0x40 MLOAD PUSH2 0x1FD SWAP2 SWAP1 PUSH2 0x1C4B JUMP JUMPDEST PUSH1 0x40 MLOAD DUP1 SWAP2 SUB SWAP1 RETURN JUMPDEST PUSH2 0x220 PUSH1 0x4 DUP1 CALLDATASIZE SUB DUP2 ADD SWAP1 PUSH2 0x21B SWAP2 SWAP1 PUSH2 0x1C64 JUMP JUMPDEST PUSH2 0x7E0 JUMP JUMPDEST PUSH1 0x40 MLOAD PUSH2 0x22D SWAP2 SWAP1 PUSH2 0x1B80 JUMP JUMPDEST PUSH1 0x40 MLOAD DUP1 SWAP2 SUB SWAP1 RETURN JUMPDEST PUSH2 0x23E PUSH2 0x80E JUMP JUMPDEST PUSH1 0x40 MLOAD PUSH2 0x24B SWAP2 SWAP1 PUSH2 0x1CCF JUMP JUMPDEST PUSH1 0x40 MLOAD DUP1 SWAP2 SUB SWAP1 RETURN JUMPDEST PUSH2 0x25C PUSH2 0x816 JUMP JUMPDEST PUSH1 0x40 MLOAD PUSH2 0x269 SWAP2 SWAP1 PUSH2 0x1BF4 JUMP JUMPDEST PUSH1 0x40 MLOAD DUP1 SWAP2 SUB SWAP1 RETURN JUMPDEST PUSH2 0x28C PUSH1 0x4 DUP1 CALLDATASIZE SUB DUP2 ADD SWAP1 PUSH2 0x287 SWAP2 SWAP1 PUSH2 0x1CE8 JUMP JUMPDEST PUSH2 0x83B JUMP JUMPDEST PUSH1 0x40 MLOAD PUSH2 0x299 SWAP2 SWAP1 PUSH2 0x1C4B JUMP JUMPDEST PUSH1 0x40 MLOAD DUP1 SWAP2 SUB SWAP1 RETURN JUMPDEST PUSH2 0x2AA PUSH2 0x880 JUMP JUMPDEST PUSH1 0x40 MLOAD PUSH2 0x2B7 SWAP2 SWAP1 PUSH2 0x1D22 JUMP JUMPDEST PUSH1 0x40 MLOAD DUP1 SWAP2 SUB SWAP1 RETURN JUMPDEST PUSH2 0x2C8 PUSH2 0x8A5 JUMP JUMPDEST PUSH1 0x40 MLOAD PUSH2 0x2D5 SWAP2 SWAP1 PUSH2 0x1A41 JUMP JUMPDEST PUSH1 0x40 MLOAD DUP1 SWAP2 SUB SWAP1 RETURN JUMPDEST PUSH2 0x2F8 PUSH1 0x4 DUP1 CALLDATASIZE SUB DUP2 ADD SWAP1 PUSH2 0x2F3 SWAP2 SWAP1 PUSH2 0x1D3B JUMP JUMPDEST PUSH2 0x935 JUMP JUMPDEST PUSH1 0x40 MLOAD PUSH2 0x306 SWAP3 SWAP2 SWAP1 PUSH2 0x1A79 JUMP JUMPDEST PUSH1 0x40 MLOAD DUP1 SWAP2 SUB SWAP1 RETURN JUMPDEST PUSH2 0x329 PUSH1 0x4 DUP1 CALLDATASIZE SUB DUP2 ADD SWAP1 PUSH2 0x324 SWAP2 SWAP1 PUSH2 0x1C0D JUMP JUMPDEST PUSH2 0xC60 JUMP JUMPDEST STOP JUMPDEST PUSH2 0x345 PUSH1 0x4 DUP1 CALLDATASIZE SUB DUP2 ADD SWAP1 PUSH2 0x340 SWAP2 SWAP1 PUSH2 0x1B28 JUMP JUMPDEST PUSH2 0xEF1 JUMP JUMPDEST PUSH1 0x40 MLOAD PUSH2 0x352 SWAP2 SWAP1 PUSH2 0x1B80 JUMP JUMPDEST PUSH1 0x40 MLOAD DUP1 SWAP2 SUB SWAP1 RETURN JUMPDEST PUSH2 0x375 PUSH1 0x4 DUP1 CALLDATASIZE SUB DUP2 ADD SWAP1 PUSH2 0x370 SWAP2 SWAP1 PUSH2 0x1C0D JUMP JUMPDEST PUSH2 0xF13 JUMP JUMPDEST STOP JUMPDEST PUSH2 0x37F PUSH2 0x1238 JUMP JUMPDEST PUSH1 0x40 MLOAD PUSH2 0x38C SWAP2 SWAP1 PUSH2 0x1C4B JUMP JUMPDEST PUSH1 0x40 MLOAD DUP1 SWAP2 SUB SWAP1 RETURN JUMPDEST PUSH2 0x3AF PUSH1 0x4 DUP1 CALLDATASIZE SUB DUP2 ADD SWAP1 PUSH2 0x3AA SWAP2 SWAP1 PUSH2 0x1D66 JUMP JUMPDEST PUSH2 0x123E JUMP JUMPDEST PUSH1 0x40 MLOAD PUSH2 0x3BC SWAP2 SWAP1 PUSH2 0x1C4B JUMP JUMPDEST PUSH1 0x40 MLOAD DUP1 SWAP2 SUB SWAP1 RETURN JUMPDEST PUSH1 0x60 PUSH1 0x3 DUP1 SLOAD PUSH2 0x3D4 SWAP1 PUSH2 0x1DD1 JUMP JUMPDEST DUP1 PUSH1 0x1F ADD PUSH1 0x20 DUP1 SWAP2 DIV MUL PUSH1 0x20 ADD PUSH1 0x40 MLOAD SWAP1 DUP2 ADD PUSH1 0x40 MSTORE DUP1 SWAP3 SWAP2 SWAP1 DUP2 DUP2 MSTORE PUSH1 0x20 ADD DUP3 DUP1 SLOAD PUSH2 0x400 SWAP1 PUSH2 0x1DD1 JUMP JUMPDEST DUP1 ISZERO PUSH2 0x44B JUMPI DUP1 PUSH1 0x1F LT PUSH2 0x422 JUMPI PUSH2 0x100 DUP1 DUP4 SLOAD DIV MUL DUP4 MSTORE SWAP2 PUSH1 0x20 ADD SWAP2 PUSH2 0x44B JUMP JUMPDEST DUP3 ADD SWAP2 SWAP1 PUSH0 MSTORE PUSH1 0x20 PUSH0 KECCAK256 SWAP1 JUMPDEST DUP2 SLOAD DUP2 MSTORE SWAP1 PUSH1 0x1 ADD SWAP1 PUSH1 0x20 ADD DUP1 DUP4 GT PUSH2 0x42E JUMPI DUP3 SWAP1 SUB PUSH1 0x1F AND DUP3 ADD SWAP2 JUMPDEST POP POP POP POP POP SWAP1 POP SWAP1 JUMP JUMPDEST PUSH0 PUSH0 PUSH1 0x7 SLOAD PUSH1 0x8 SLOAD SWAP2 POP SWAP2 POP SWAP1 SWAP2 JUMP JUMPDEST PUSH0 PUSH0 PUSH2 0x46F PUSH2 0x12C0 JUMP JUMPDEST SWAP1 POP PUSH2 0x47C DUP2 DUP6 DUP6 PUSH2 0x12C7 JUMP JUMPDEST PUSH1 0x1 SWAP2 POP POP SWAP3 SWAP2 POP POP JUMP JUMPDEST PUSH1 0x5 PUSH0 SWAP1 SLOAD SWAP1 PUSH2 0x100 EXP SWAP1 DIV PUSH20 0xFFFFFFFFFFFFFFFFFFFFFFFFFFFFFFFFFFFFFFFF AND DUP2 JUMP JUMPDEST PUSH0 DUP3 GT PUSH2 0x4EE JUMPI PUSH1 0x40 MLOAD PUSH32 0x8C379A000000000000000000000000000000000000000000000000000000000 DUP2 MSTORE PUSH1 0x4 ADD PUSH2 0x4E5 SWAP1 PUSH2 0x1E4B JUMP JUMPDEST PUSH1 0x40 MLOAD DUP1 SWAP2 SUB SWAP1 REVERT JUMPDEST PUSH0 PUSH1 0x7 SLOAD GT DUP1 ISZERO PUSH2 0x500 JUMPI POP PUSH0 PUSH1 0x8 SLOAD GT JUMPDEST PUSH2 0x53F JUMPI PUSH1 0x40 MLOAD PUSH32 0x8C379A000000000000000000000000000000000000000000000000000000000 DUP2 MSTORE PUSH1 0x4 ADD PUSH2 0x536 SWAP1 PUSH2 0x1EB3 JUMP JUMPDEST PUSH1 0x40 MLOAD DUP1 SWAP2 SUB SWAP1 REVERT JUMPDEST PUSH0 PUSH2 0x3E8 PUSH2 0x3E5 DUP5 PUSH2 0x551 SWAP2 SWAP1 PUSH2 0x1EFE JUMP JUMPDEST PUSH2 0x55B SWAP2 SWAP1 PUSH2 0x1F6C JUMP JUMPDEST SWAP1 POP PUSH0 DUP2 PUSH1 0x7 SLOAD PUSH2 0x56C SWAP2 SWAP1 PUSH2 0x1F9C JUMP JUMPDEST DUP3 PUSH1 0x8 SLOAD PUSH2 0x57A SWAP2 SWAP1 PUSH2 0x1EFE JUMP JUMPDEST PUSH2 0x584 SWAP2 SWAP1 PUSH2 0x1F6C JUMP JUMPDEST SWAP1 POP DUP3 DUP2 LT ISZERO PUSH2 0x5C9 JUMPI PUSH1 0x40 MLOAD PUSH32 0x8C379A000000000000000000000000000000000000000000000000000000000 DUP2 MSTORE PUSH1 0x4 ADD PUSH2 0x5C0 SWAP1 PUSH2 0x2019 JUMP JUMPDEST PUSH1 0x40 MLOAD DUP1 SWAP2 SUB SWAP1 REVERT JUMPDEST PUSH1 0x5 PUSH0 SWAP1 SLOAD SWAP1 PUSH2 0x100 EXP SWAP1 DIV PUSH20 0xFFFFFFFFFFFFFFFFFFFFFFFFFFFFFFFFFFFFFFFF AND PUSH20 0xFFFFFFFFFFFFFFFFFFFFFFFFFFFFFFFFFFFFFFFF AND PUSH4 0x23B872DD CALLER ADDRESS DUP8 PUSH1 0x40 MLOAD DUP5 PUSH4 0xFFFFFFFF AND PUSH1 0xE0 SHL DUP2 MSTORE PUSH1 0x4 ADD PUSH2 0x627 SWAP4 SWAP3 SWAP2 SWAP1 PUSH2 0x2037 JUMP JUMPDEST PUSH1 0x20 PUSH1 0x40 MLOAD DUP1 DUP4 SUB DUP2 PUSH0 DUP8 GAS CALL ISZERO DUP1 ISZERO PUSH2 0x643 JUMPI RETURNDATASIZE PUSH0 PUSH0 RETURNDATACOPY RETURNDATASIZE PUSH0 REVERT JUMPDEST POP POP POP POP PUSH1 0x40 MLOAD RETURNDATASIZE PUSH1 0x1F NOT PUSH1 0x1F DUP3 ADD AND DUP3 ADD DUP1 PUSH1 0x40 MSTORE POP DUP2 ADD SWAP1 PUSH2 0x667 SWAP2 SWAP1 PUSH2 0x2096 JUMP JUMPDEST POP PUSH1 0x6 PUSH0 SWAP1 SLOAD SWAP1 PUSH2 0x100 EXP SWAP1 DIV PUSH20 0xFFFFFFFFFFFFFFFFFFFFFFFFFFFFFFFFFFFFFFFF AND PUSH20 0xFFFFFFFFFFFFFFFFFFFFFFFFFFFFFFFFFFFFFFFF AND PUSH4 0xA9059CBB CALLER DUP4 PUSH1 0x40 MLOAD DUP4 PUSH4 0xFFFFFFFF AND PUSH1 0xE0 SHL DUP2 MSTORE PUSH1 0x4 ADD PUSH2 0x6C4 SWAP3 SWAP2 SWAP1 PUSH2 0x20C1 JUMP JUMPDEST PUSH1 0x20 PUSH1 0x40 MLOAD DUP1 DUP4 SUB DUP2 PUSH0 DUP8 GAS CALL ISZERO DUP1 ISZERO PUSH2 0x6E0 JUMPI RETURNDATASIZE PUSH0 PUSH0 RETURNDATACOPY RETURNDATASIZE PUSH0 REVERT JUMPDEST POP POP POP POP PUSH1 0x40 MLOAD RETURNDATASIZE PUSH1 0x1F NOT PUSH1 0x1F DUP3 ADD AND DUP3 ADD DUP1 PUSH1 0x40 MSTORE POP DUP2 ADD SWAP1 PUSH2 0x704 SWAP2 SWAP1 PUSH2 0x2096 JUMP JUMPDEST POP DUP2 PUSH1 0x7 PUSH0 DUP3 DUP3 SLOAD PUSH2 0x716 SWAP2 SWAP1 PUSH2 0x1F9C JUMP JUMPDEST SWAP3 POP POP DUP2 SWAP1 SSTORE POP DUP1 PUSH1 0x8 PUSH0 DUP3 DUP3 SLOAD PUSH2 0x72E SWAP2 SWAP1 PUSH2 0x20E8 JUMP JUMPDEST SWAP3 POP POP DUP2 SWAP1 SSTORE POP CALLER PUSH20 0xFFFFFFFFFFFFFFFFFFFFFFFFFFFFFFFFFFFFFFFF AND PUSH32 0x631FB37DBA9BBCB8B2F3BE2D669E365AE9F1BD850CC57DFE8B7CCD7D979A2BBA PUSH1 0x5 PUSH0 SWAP1 SLOAD SWAP1 PUSH2 0x100 EXP SWAP1 DIV PUSH20 0xFFFFFFFFFFFFFFFFFFFFFFFFFFFFFFFFFFFFFFFF AND DUP7 PUSH1 0x6 PUSH0 SWAP1 SLOAD SWAP1 PUSH2 0x100 EXP SWAP1 DIV PUSH20 0xFFFFFFFFFFFFFFFFFFFFFFFFFFFFFFFFFFFFFFFF AND DUP6 PUSH1 0x40 MLOAD PUSH2 0x7C3 SWAP5 SWAP4 SWAP3 SWAP2 SWAP1 PUSH2 0x211B JUMP JUMPDEST PUSH1 0x40 MLOAD DUP1 SWAP2 SUB SWAP1 LOG2 POP POP POP POP JUMP JUMPDEST PUSH0 PUSH1 0x2 SLOAD SWAP1 POP SWAP1 JUMP JUMPDEST PUSH1 0x8 SLOAD DUP2 JUMP JUMPDEST PUSH0 PUSH0 PUSH2 0x7EA PUSH2 0x12C0 JUMP JUMPDEST SWAP1 POP PUSH2 0x7F7 DUP6 DUP3 DUP6 PUSH2 0x12D9 JUMP JUMPDEST PUSH2 0x802 DUP6 DUP6 DUP6 PUSH2 0x136C JUMP JUMPDEST PUSH1 0x1 SWAP2 POP POP SWAP4 SWAP3 POP POP POP JUMP JUMPDEST PUSH0 PUSH1 0x12 SWAP1 POP SWAP1 JUMP JUMPDEST PUSH1 0x6 PUSH0 SWAP1 SLOAD SWAP1 PUSH2 0x100 EXP SWAP1 DIV PUSH20 0xFFFFFFFFFFFFFFFFFFFFFFFFFFFFFFFFFFFFFFFF AND DUP2 JUMP JUMPDEST PUSH0 PUSH0 PUSH0 DUP4 PUSH20 0xFFFFFFFFFFFFFFFFFFFFFFFFFFFFFFFFFFFFFFFF AND PUSH20 0xFFFFFFFFFFFFFFFFFFFFFFFFFFFFFFFFFFFFFFFF AND DUP2 MSTORE PUSH1 0x20 ADD SWAP1 DUP2 MSTORE PUSH1 0x20 ADD PUSH0 KECCAK256 SLOAD SWAP1 POP SWAP2 SWAP1 POP JUMP JUMPDEST PUSH1 0x9 PUSH0 SWAP1 SLOAD SWAP1 PUSH2 0x100 EXP SWAP1 DIV PUSH20 0xFFFFFFFFFFFFFFFFFFFFFFFFFFFFFFFFFFFFFFFF AND DUP2 JUMP JUMPDEST PUSH1 0x60 PUSH1 0x4 DUP1 SLOAD PUSH2 0x8B4 SWAP1 PUSH2 0x1DD1 JUMP JUMPDEST DUP1 PUSH1 0x1F ADD PUSH1 0x20 DUP1 SWAP2 DIV MUL PUSH1 0x20 ADD PUSH1 0x40 MLOAD SWAP1 DUP2 ADD PUSH1 0x40 MSTORE DUP1 SWAP3 SWAP2 SWAP1 DUP2 DUP2 MSTORE PUSH1 0x20 ADD DUP3 DUP1 SLOAD PUSH2 0x8E0 SWAP1 PUSH2 0x1DD1 JUMP JUMPDEST DUP1 ISZERO PUSH2 0x92B JUMPI DUP1 PUSH1 0x1F LT PUSH2 0x902 JUMPI PUSH2 0x100 DUP1 DUP4 SLOAD DIV MUL DUP4 MSTORE SWAP2 PUSH1 0x20 ADD SWAP2 PUSH2 0x92B JUMP JUMPDEST DUP3 ADD SWAP2 SWAP1 PUSH0 MSTORE PUSH1 0x20 PUSH0 KECCAK256 SWAP1 JUMPDEST DUP2 SLOAD DUP2 MSTORE SWAP1 PUSH1 0x1 ADD SWAP1 PUSH1 0x20 ADD DUP1 DUP4 GT PUSH2 0x90E JUMPI DUP3 SWAP1 SUB PUSH1 0x1F AND DUP3 ADD SWAP2 JUMPDEST POP POP POP POP POP SWAP1 POP SWAP1 JUMP JUMPDEST PUSH0 PUSH0 PUSH0 DUP4 GT PUSH2 0x979 JUMPI PUSH1 0x40 MLOAD PUSH32 0x8C379A000000000000000000000000000000000000000000000000000000000 DUP2 MSTORE PUSH1 0x4 ADD PUSH2 0x970 SWAP1 PUSH2 0x21A8 JUMP JUMPDEST PUSH1 0x40 MLOAD DUP1 SWAP2 SUB SWAP1 REVERT JUMPDEST DUP3 PUSH2 0x983 CALLER PUSH2 0x83B JUMP JUMPDEST LT ISZERO PUSH2 0x9C4 JUMPI PUSH1 0x40 MLOAD PUSH32 0x8C379A000000000000000000000000000000000000000000000000000000000 DUP2 MSTORE PUSH1 0x4 ADD PUSH2 0x9BB SWAP1 PUSH2 0x2210 JUMP JUMPDEST PUSH1 0x40 MLOAD DUP1 SWAP2 SUB SWAP1 REVERT JUMPDEST PUSH0 PUSH2 0x9CD PUSH2 0x7D1 JUMP JUMPDEST SWAP1 POP PUSH0 DUP2 GT PUSH2 0xA11 JUMPI PUSH1 0x40 MLOAD PUSH32 0x8C379A000000000000000000000000000000000000000000000000000000000 DUP2 MSTORE PUSH1 0x4 ADD PUSH2 0xA08 SWAP1 PUSH2 0x2278 JUMP JUMPDEST PUSH1 0x40 MLOAD DUP1 SWAP2 SUB SWAP1 REVERT JUMPDEST DUP1 PUSH1 0x7 SLOAD DUP6 PUSH2 0xA20 SWAP2 SWAP1 PUSH2 0x1EFE JUMP JUMPDEST PUSH2 0xA2A SWAP2 SWAP1 PUSH2 0x1F6C JUMP JUMPDEST SWAP3 POP DUP1 PUSH1 0x8 SLOAD DUP6 PUSH2 0xA3B SWAP2 SWAP1 PUSH2 0x1EFE JUMP JUMPDEST PUSH2 0xA45 SWAP2 SWAP1 PUSH2 0x1F6C JUMP JUMPDEST SWAP2 POP PUSH0 DUP4 GT DUP1 ISZERO PUSH2 0xA55 JUMPI POP PUSH0 DUP3 GT JUMPDEST PUSH2 0xA94 JUMPI PUSH1 0x40 MLOAD PUSH32 0x8C379A000000000000000000000000000000000000000000000000000000000 DUP2 MSTORE PUSH1 0x4 ADD PUSH2 0xA8B SWAP1 PUSH2 0x2306 JUMP JUMPDEST PUSH1 0x40 MLOAD DUP1 SWAP2 SUB SWAP1 REVERT JUMPDEST DUP3 PUSH1 0x7 PUSH0 DUP3 DUP3 SLOAD PUSH2 0xAA5 SWAP2 SWAP1 PUSH2 0x20E8 JUMP JUMPDEST SWAP3 POP POP DUP2 SWAP1 SSTORE POP DUP2 PUSH1 0x8 PUSH0 DUP3 DUP3 SLOAD PUSH2 0xABD SWAP2 SWAP1 PUSH2 0x20E8 JUMP JUMPDEST SWAP3 POP POP DUP2 SWAP1 SSTORE POP PUSH2 0xACE CALLER DUP6 PUSH2 0x145C JUMP JUMPDEST PUSH1 0x5 PUSH0 SWAP1 SLOAD SWAP1 PUSH2 0x100 EXP SWAP1 DIV PUSH20 0xFFFFFFFFFFFFFFFFFFFFFFFFFFFFFFFFFFFFFFFF AND PUSH20 0xFFFFFFFFFFFFFFFFFFFFFFFFFFFFFFFFFFFFFFFF AND PUSH4 0xA9059CBB CALLER DUP6 PUSH1 0x40 MLOAD DUP4 PUSH4 0xFFFFFFFF AND PUSH1 0xE0 SHL DUP2 MSTORE PUSH1 0x4 ADD PUSH2 0xB2A SWAP3 SWAP2 SWAP1 PUSH2 0x20C1 JUMP JUMPDEST PUSH1 0x20 PUSH1 0x40 MLOAD DUP1 DUP4 SUB DUP2 PUSH0 DUP8 GAS CALL ISZERO DUP1 ISZERO PUSH2 0xB46 JUMPI RETURNDATASIZE PUSH0 PUSH0 RETURNDATACOPY RETURNDATASIZE PUSH0 REVERT JUMPDEST POP POP POP POP PUSH1 0x40 MLOAD RETURNDATASIZE PUSH1 0x1F NOT PUSH1 0x1F DUP3 ADD AND DUP3 ADD DUP1 PUSH1 0x40 MSTORE POP DUP2 ADD SWAP1 PUSH2 0xB6A SWAP2 SWAP1 PUSH2 0x2096 JUMP JUMPDEST POP PUSH1 0x6 PUSH0 SWAP1 SLOAD SWAP1 PUSH2 0x100 EXP SWAP1 DIV PUSH20 0xFFFFFFFFFFFFFFFFFFFFFFFFFFFFFFFFFFFFFFFF AND PUSH20 0xFFFFFFFFFFFFFFFFFFFFFFFFFFFFFFFFFFFFFFFF AND PUSH4 0xA9059CBB CALLER DUP5 PUSH1 0x40 MLOAD DUP4 PUSH4 0xFFFFFFFF AND PUSH1 0xE0 SHL DUP2 MSTORE PUSH1 0x4 ADD PUSH2 0xBC7 SWAP3 SWAP2 SWAP1 PUSH2 0x20C1 JUMP JUMPDEST PUSH1 0x20 PUSH1 0x40 MLOAD DUP1 DUP4 SUB DUP2 PUSH0 DUP8 GAS CALL ISZERO DUP1 ISZERO PUSH2 0xBE3 JUMPI RETURNDATASIZE PUSH0 PUSH0 RETURNDATACOPY RETURNDATASIZE PUSH0 REVERT JUMPDEST POP POP POP POP PUSH1 0x40 MLOAD RETURNDATASIZE PUSH1 0x1F NOT PUSH1 0x1F DUP3 ADD AND DUP3 ADD DUP1 PUSH1 0x40 MSTORE POP DUP2 ADD SWAP1 PUSH2 0xC07 SWAP2 SWAP1 PUSH2 0x2096 JUMP JUMPDEST POP CALLER PUSH20 0xFFFFFFFFFFFFFFFFFFFFFFFFFFFFFFFFFFFFFFFF AND PUSH32 0x1DC8BB69DF2B8E91FBDCBFCF93D951B3F0000F085A95FE3F7946D6161439245D DUP5 DUP5 DUP8 PUSH1 0x40 MLOAD PUSH2 0xC52 SWAP4 SWAP3 SWAP2 SWAP1 PUSH2 0x2324 JUMP JUMPDEST PUSH1 0x40 MLOAD DUP1 SWAP2 SUB SWAP1 LOG2 POP SWAP2 POP SWAP2 JUMP JUMPDEST PUSH0 DUP3 GT DUP1 ISZERO PUSH2 0xC6E JUMPI POP PUSH0 DUP2 GT JUMPDEST PUSH2 0xCAD JUMPI PUSH1 0x40 MLOAD PUSH32 0x8C379A000000000000000000000000000000000000000000000000000000000 DUP2 MSTORE PUSH1 0x4 ADD PUSH2 0xCA4 SWAP1 PUSH2 0x23A3 JUMP JUMPDEST PUSH1 0x40 MLOAD DUP1 SWAP2 SUB SWAP1 REVERT JUMPDEST PUSH1 0x5 PUSH0 SWAP1 SLOAD SWAP1 PUSH2 0x100 EXP SWAP1 DIV PUSH20 0xFFFFFFFFFFFFFFFFFFFFFFFFFFFFFFFFFFFFFFFF AND PUSH20 0xFFFFFFFFFFFFFFFFFFFFFFFFFFFFFFFFFFFFFFFF AND PUSH4 0x23B872DD CALLER ADDRESS DUP6 PUSH1 0x40 MLOAD DUP5 PUSH4 0xFFFFFFFF AND PUSH1 0xE0 SHL DUP2 MSTORE PUSH1 0x4 ADD PUSH2 0xD0B SWAP4 SWAP3 SWAP2 SWAP1 PUSH2 0x2037 JUMP JUMPDEST PUSH1 0x20 PUSH1 0x40 MLOAD DUP1 DUP4 SUB DUP2 PUSH0 DUP8 GAS CALL ISZERO DUP1 ISZERO PUSH2 0xD27 JUMPI RETURNDATASIZE PUSH0 PUSH0 RETURNDATACOPY RETURNDATASIZE PUSH0 REVERT JUMPDEST POP POP POP POP PUSH1 0x40 MLOAD RETURNDATASIZE PUSH1 0x1F NOT PUSH1 0x1F DUP3 ADD AND DUP3 ADD DUP1 PUSH1 0x40 MSTORE POP DUP2 ADD SWAP1 PUSH2 0xD4B SWAP2 SWAP1 PUSH2 0x2096 JUMP JUMPDEST POP PUSH1 0x6 PUSH0 SWAP1 SLOAD SWAP1 PUSH2 0x100 EXP SWAP1 DIV PUSH20 0xFFFFFFFFFFFFFFFFFFFFFFFFFFFFFFFFFFFFFFFF AND PUSH20 0xFFFFFFFFFFFFFFFFFFFFFFFFFFFFFFFFFFFFFFFF AND PUSH4 0x23B872DD CALLER ADDRESS DUP5 PUSH1 0x40 MLOAD DUP5 PUSH4 0xFFFFFFFF AND PUSH1 0xE0 SHL DUP2 MSTORE PUSH1 0x4 ADD PUSH2 0xDAA SWAP4 SWAP3 SWAP2 SWAP1 PUSH2 0x2037 JUMP JUMPDEST PUSH1 0x20 PUSH1 0x40 MLOAD DUP1 DUP4 SUB DUP2 PUSH0 DUP8 GAS CALL ISZERO DUP1 ISZERO PUSH2 0xDC6 JUMPI RETURNDATASIZE PUSH0 PUSH0 RETURNDATACOPY RETURNDATASIZE PUSH0 REVERT JUMPDEST POP POP POP POP PUSH1 0x40 MLOAD RETURNDATASIZE PUSH1 0x1F NOT PUSH1 0x1F DUP3 ADD AND DUP3 ADD DUP1 PUSH1 0x40 MSTORE POP DUP2 ADD SWAP1 PUSH2 0xDEA SWAP2 SWAP1 PUSH2 0x2096 JUMP JUMPDEST POP PUSH0 PUSH0 PUSH2 0xDF5 PUSH2 0x7D1 JUMP JUMPDEST SUB PUSH2 0xE15 JUMPI PUSH2 0xE0E DUP3 DUP5 PUSH2 0xE09 SWAP2 SWAP1 PUSH2 0x1EFE JUMP JUMPDEST PUSH2 0x14DB JUMP JUMPDEST SWAP1 POP PUSH2 0xE60 JUMP JUMPDEST PUSH2 0xE5D PUSH1 0x7 SLOAD PUSH2 0xE23 PUSH2 0x7D1 JUMP JUMPDEST DUP6 PUSH2 0xE2E SWAP2 SWAP1 PUSH2 0x1EFE JUMP JUMPDEST PUSH2 0xE38 SWAP2 SWAP1 PUSH2 0x1F6C JUMP JUMPDEST PUSH1 0x8 SLOAD PUSH2 0xE43 PUSH2 0x7D1 JUMP JUMPDEST DUP6 PUSH2 0xE4E SWAP2 SWAP1 PUSH2 0x1EFE JUMP JUMPDEST PUSH2 0xE58 SWAP2 SWAP1 PUSH2 0x1F6C JUMP JUMPDEST PUSH2 0x1552 JUMP JUMPDEST SWAP1 POP JUMPDEST PUSH2 0xE6A CALLER DUP3 PUSH2 0x156A JUMP JUMPDEST DUP3 PUSH1 0x7 PUSH0 DUP3 DUP3 SLOAD PUSH2 0xE7B SWAP2 SWAP1 PUSH2 0x1F9C JUMP JUMPDEST SWAP3 POP POP DUP2 SWAP1 SSTORE POP DUP2 PUSH1 0x8 PUSH0 DUP3 DUP3 SLOAD PUSH2 0xE93 SWAP2 SWAP1 PUSH2 0x1F9C JUMP JUMPDEST SWAP3 POP POP DUP2 SWAP1 SSTORE POP CALLER PUSH20 0xFFFFFFFFFFFFFFFFFFFFFFFFFFFFFFFFFFFFFFFF AND PUSH32 0x64B83944E79C3CE8D4C297411DE637C3E102D064677AAC0C163976EBDCD6F50E DUP5 DUP5 DUP5 PUSH1 0x40 MLOAD PUSH2 0xEE4 SWAP4 SWAP3 SWAP2 SWAP1 PUSH2 0x2324 JUMP JUMPDEST PUSH1 0x40 MLOAD DUP1 SWAP2 SUB SWAP1 LOG2 POP POP POP JUMP JUMPDEST PUSH0 PUSH0 PUSH2 0xEFB PUSH2 0x12C0 JUMP JUMPDEST SWAP1 POP PUSH2 0xF08 DUP2 DUP6 DUP6 PUSH2 0x136C JUMP JUMPDEST PUSH1 0x1 SWAP2 POP POP SWAP3 SWAP2 POP POP JUMP JUMPDEST PUSH0 DUP3 GT PUSH2 0xF55 JUMPI PUSH1 0x40 MLOAD PUSH32 0x8C379A000000000000000000000000000000000000000000000000000000000 DUP2 MSTORE PUSH1 0x4 ADD PUSH2 0xF4C SWAP1 PUSH2 0x1E4B JUMP JUMPDEST PUSH1 0x40 MLOAD DUP1 SWAP2 SUB SWAP1 REVERT JUMPDEST PUSH0 PUSH1 0x7 SLOAD GT DUP1 ISZERO PUSH2 0xF67 JUMPI POP PUSH0 PUSH1 0x8 SLOAD GT JUMPDEST PUSH2 0xFA6 JUMPI PUSH1 0x40 MLOAD PUSH32 0x8C379A000000000000000000000000000000000000000000000000000000000 DUP2 MSTORE PUSH1 0x4 ADD PUSH2 0xF9D SWAP1 PUSH2 0x1EB3 JUMP JUMPDEST PUSH1 0x40 MLOAD DUP1 SWAP2 SUB SWAP1 REVERT JUMPDEST PUSH0 PUSH2 0x3E8 PUSH2 0x3E5 DUP5 PUSH2 0xFB8 SWAP2 SWAP1 PUSH2 0x1EFE JUMP JUMPDEST PUSH2 0xFC2 SWAP2 SWAP1 PUSH2 0x1F6C JUMP JUMPDEST SWAP1 POP PUSH0 DUP2 PUSH1 0x8 SLOAD PUSH2 0xFD3 SWAP2 SWAP1 PUSH2 0x1F9C JUMP JUMPDEST DUP3 PUSH1 0x7 SLOAD PUSH2 0xFE1 SWAP2 SWAP1 PUSH2 0x1EFE JUMP JUMPDEST PUSH2 0xFEB SWAP2 SWAP1 PUSH2 0x1F6C JUMP JUMPDEST SWAP1 POP DUP3 DUP2 LT ISZERO PUSH2 0x1030 JUMPI PUSH1 0x40 MLOAD PUSH32 0x8C379A000000000000000000000000000000000000000000000000000000000 DUP2 MSTORE PUSH1 0x4 ADD PUSH2 0x1027 SWAP1 PUSH2 0x2019 JUMP JUMPDEST PUSH1 0x40 MLOAD DUP1 SWAP2 SUB SWAP1 REVERT JUMPDEST PUSH1 0x6 PUSH0 SWAP1 SLOAD SWAP1 PUSH2 0x100 EXP SWAP1 DIV PUSH20 0xFFFFFFFFFFFFFFFFFFFFFFFFFFFFFFFFFFFFFFFF AND PUSH20 0xFFFFFFFFFFFFFFFFFFFFFFFFFFFFFFFFFFFFFFFF AND PUSH4 0x23B872DD CALLER ADDRESS DUP8 PUSH1 0x40 MLOAD DUP5 PUSH4 0xFFFFFFFF AND PUSH1 0xE0 SHL DUP2 MSTORE PUSH1 0x4 ADD PUSH2 0x108E SWAP4 SWAP3 SWAP2 SWAP1 PUSH2 0x2037 JUMP JUMPDEST PUSH1 0x20 PUSH1 0x40 MLOAD DUP1 DUP4 SUB DUP2 PUSH0 DUP8 GAS CALL ISZERO DUP1 ISZERO PUSH2 0x10AA JUMPI RETURNDATASIZE PUSH0 PUSH0 RETURNDATACOPY RETURNDATASIZE PUSH0 REVERT JUMPDEST POP POP POP POP PUSH1 0x40 MLOAD RETURNDATASIZE PUSH1 0x1F NOT PUSH1 0x1F DUP3 ADD AND DUP3 ADD DUP1 PUSH1 0x40 MSTORE POP DUP2 ADD SWAP1 PUSH2 0x10CE SWAP2 SWAP1 PUSH2 0x2096 JUMP JUMPDEST POP PUSH1 0x5 PUSH0 SWAP1 SLOAD SWAP1 PUSH2 0x100 EXP SWAP1 DIV PUSH20 0xFFFFFFFFFFFFFFFFFFFFFFFFFFFFFFFFFFFFFFFF AND PUSH20 0xFFFFFFFFFFFFFFFFFFFFFFFFFFFFFFFFFFFFFFFF AND PUSH4 0xA9059CBB CALLER DUP4 PUSH1 0x40 MLOAD DUP4 PUSH4 0xFFFFFFFF AND PUSH1 0xE0 SHL DUP2 MSTORE PUSH1 0x4 ADD PUSH2 0x112B SWAP3 SWAP2 SWAP1 PUSH2 0x20C1 JUMP JUMPDEST PUSH1 0x20 PUSH1 0x40 MLOAD DUP1 DUP4 SUB DUP2 PUSH0 DUP8 GAS CALL ISZERO DUP1 ISZERO PUSH2 0x1147 JUMPI RETURNDATASIZE PUSH0 PUSH0 RETURNDATACOPY RETURNDATASIZE PUSH0 REVERT JUMPDEST POP POP POP POP PUSH1 0x40 MLOAD RETURNDATASIZE PUSH1 0x1F NOT PUSH1 0x1F DUP3 ADD AND DUP3 ADD DUP1 PUSH1 0x40 MSTORE POP DUP2 ADD SWAP1 PUSH2 0x116B SWAP2 SWAP1 PUSH2 0x2096 JUMP JUMPDEST POP DUP2 PUSH1 0x8 PUSH0 DUP3 DUP3 SLOAD PUSH2 0x117D SWAP2 SWAP1 PUSH2 0x1F9C JUMP JUMPDEST SWAP3 POP POP DUP2 SWAP1 SSTORE POP DUP1 PUSH1 0x7 PUSH0 DUP3 DUP3 SLOAD PUSH2 0x1195 SWAP2 SWAP1 PUSH2 0x20E8 JUMP JUMPDEST SWAP3 POP POP DUP2 SWAP1 SSTORE POP CALLER PUSH20 0xFFFFFFFFFFFFFFFFFFFFFFFFFFFFFFFFFFFFFFFF AND PUSH32 0x631FB37DBA9BBCB8B2F3BE2D669E365AE9F1BD850CC57DFE8B7CCD7D979A2BBA PUSH1 0x6 PUSH0 SWAP1 SLOAD SWAP1 PUSH2 0x100 EXP SWAP1 DIV PUSH20 0xFFFFFFFFFFFFFFFFFFFFFFFFFFFFFFFFFFFFFFFF AND DUP7 PUSH1 0x5 PUSH0 SWAP1 SLOAD SWAP1 PUSH2 0x100 EXP SWAP1 DIV PUSH20 0xFFFFFFFFFFFFFFFFFFFFFFFFFFFFFFFFFFFFFFFF AND DUP6 PUSH1 0x40 MLOAD PUSH2 0x122A SWAP5 SWAP4 SWAP3 SWAP2 SWAP1 PUSH2 0x211B JUMP JUMPDEST PUSH1 0x40 MLOAD DUP1 SWAP2 SUB SWAP1 LOG2 POP POP POP POP JUMP JUMPDEST PUSH1 0x7 SLOAD DUP2 JUMP JUMPDEST PUSH0 PUSH1 0x1 PUSH0 DUP5 PUSH20 0xFFFFFFFFFFFFFFFFFFFFFFFFFFFFFFFFFFFFFFFF AND PUSH20 0xFFFFFFFFFFFFFFFFFFFFFFFFFFFFFFFFFFFFFFFF AND DUP2 MSTORE PUSH1 0x20 ADD SWAP1 DUP2 MSTORE PUSH1 0x20 ADD PUSH0 KECCAK256 PUSH0 DUP4 PUSH20 0xFFFFFFFFFFFFFFFFFFFFFFFFFFFFFFFFFFFFFFFF AND PUSH20 0xFFFFFFFFFFFFFFFFFFFFFFFFFFFFFFFFFFFFFFFF AND DUP2 MSTORE PUSH1 0x20 ADD SWAP1 DUP2 MSTORE PUSH1 0x20 ADD PUSH0 KECCAK256 SLOAD SWAP1 POP SWAP3 SWAP2 POP POP JUMP JUMPDEST PUSH0 CALLER SWAP1 POP SWAP1 JUMP JUMPDEST PUSH2 0x12D4 DUP4 DUP4 DUP4 PUSH1 0x1 PUSH2 0x15E9 JUMP JUMPDEST POP POP POP JUMP JUMPDEST PUSH0 PUSH2 0x12E4 DUP5 DUP5 PUSH2 0x123E JUMP JUMPDEST SWAP1 POP PUSH32 0xFFFFFFFFFFFFFFFFFFFFFFFFFFFFFFFFFFFFFFFFFFFFFFFFFFFFFFFFFFFFFFFF DUP2 LT ISZERO PUSH2 0x1366 JUMPI DUP2 DUP2 LT ISZERO PUSH2 0x1357 JUMPI DUP3 DUP2 DUP4 PUSH1 0x40 MLOAD PUSH32 0xFB8F41B200000000000000000000000000000000000000000000000000000000 DUP2 MSTORE PUSH1 0x4 ADD PUSH2 0x134E SWAP4 SWAP3 SWAP2 SWAP1 PUSH2 0x23C1 JUMP JUMPDEST PUSH1 0x40 MLOAD DUP1 SWAP2 SUB SWAP1 REVERT JUMPDEST PUSH2 0x1365 DUP5 DUP5 DUP5 DUP5 SUB PUSH0 PUSH2 0x15E9 JUMP JUMPDEST JUMPDEST POP POP POP POP JUMP JUMPDEST PUSH0 PUSH20 0xFFFFFFFFFFFFFFFFFFFFFFFFFFFFFFFFFFFFFFFF AND DUP4 PUSH20 0xFFFFFFFFFFFFFFFFFFFFFFFFFFFFFFFFFFFFFFFF AND SUB PUSH2 0x13DC JUMPI PUSH0 PUSH1 0x40 MLOAD PUSH32 0x96C6FD1E00000000000000000000000000000000000000000000000000000000 DUP2 MSTORE PUSH1 0x4 ADD PUSH2 0x13D3 SWAP2 SWAP1 PUSH2 0x1D22 JUMP JUMPDEST PUSH1 0x40 MLOAD DUP1 SWAP2 SUB SWAP1 REVERT JUMPDEST PUSH0 PUSH20 0xFFFFFFFFFFFFFFFFFFFFFFFFFFFFFFFFFFFFFFFF AND DUP3 PUSH20 0xFFFFFFFFFFFFFFFFFFFFFFFFFFFFFFFFFFFFFFFF AND SUB PUSH2 0x144C JUMPI PUSH0 PUSH1 0x40 MLOAD PUSH32 0xEC442F0500000000000000000000000000000000000000000000000000000000 DUP2 MSTORE PUSH1 0x4 ADD PUSH2 0x1443 SWAP2 SWAP1 PUSH2 0x1D22 JUMP JUMPDEST PUSH1 0x40 MLOAD DUP1 SWAP2 SUB SWAP1 REVERT JUMPDEST PUSH2 0x1457 DUP4 DUP4 DUP4 PUSH2 0x17B8 JUMP JUMPDEST POP POP POP JUMP JUMPDEST PUSH0 PUSH20 0xFFFFFFFFFFFFFFFFFFFFFFFFFFFFFFFFFFFFFFFF AND DUP3 PUSH20 0xFFFFFFFFFFFFFFFFFFFFFFFFFFFFFFFFFFFFFFFF AND SUB PUSH2 0x14CC JUMPI PUSH0 PUSH1 0x40 MLOAD PUSH32 0x96C6FD1E00000000000000000000000000000000000000000000000000000000 DUP2 MSTORE PUSH1 0x4 ADD PUSH2 0x14C3 SWAP2 SWAP1 PUSH2 0x1D22 JUMP JUMPDEST PUSH1 0x40 MLOAD DUP1 SWAP2 SUB SWAP1 REVERT JUMPDEST PUSH2 0x14D7 DUP3 PUSH0 DUP4 PUSH2 0x17B8 JUMP JUMPDEST POP POP JUMP JUMPDEST PUSH0 PUSH1 0x3 DUP3 GT ISZERO PUSH2 0x1540 JUMPI DUP2 SWAP1 POP PUSH0 PUSH1 0x1 PUSH1 0x2 DUP5 PUSH2 0x14F8 SWAP2 SWAP1 PUSH2 0x1F6C JUMP JUMPDEST PUSH2 0x1502 SWAP2 SWAP1 PUSH2 0x1F9C JUMP JUMPDEST SWAP1 POP JUMPDEST DUP2 DUP2 LT ISZERO PUSH2 0x153A JUMPI DUP1 SWAP2 POP PUSH1 0x2 DUP2 DUP3 DUP6 PUSH2 0x151F SWAP2 SWAP1 PUSH2 0x1F6C JUMP JUMPDEST PUSH2 0x1529 SWAP2 SWAP1 PUSH2 0x1F9C JUMP JUMPDEST PUSH2 0x1533 SWAP2 SWAP1 PUSH2 0x1F6C JUMP JUMPDEST SWAP1 POP PUSH2 0x1505 JUMP JUMPDEST POP PUSH2 0x154D JUMP JUMPDEST PUSH0 DUP3 EQ PUSH2 0x154C JUMPI PUSH1 0x1 SWAP1 POP JUMPDEST JUMPDEST SWAP2 SWAP1 POP JUMP JUMPDEST PUSH0 DUP2 DUP4 LT PUSH2 0x1560 JUMPI DUP2 PUSH2 0x1562 JUMP JUMPDEST DUP3 JUMPDEST SWAP1 POP SWAP3 SWAP2 POP POP JUMP JUMPDEST PUSH0 PUSH20 0xFFFFFFFFFFFFFFFFFFFFFFFFFFFFFFFFFFFFFFFF AND DUP3 PUSH20 0xFFFFFFFFFFFFFFFFFFFFFFFFFFFFFFFFFFFFFFFF AND SUB PUSH2 0x15DA JUMPI PUSH0 PUSH1 0x40 MLOAD PUSH32 0xEC442F0500000000000000000000000000000000000000000000000000000000 DUP2 MSTORE PUSH1 0x4 ADD PUSH2 0x15D1 SWAP2 SWAP1 PUSH2 0x1D22 JUMP JUMPDEST PUSH1 0x40 MLOAD DUP1 SWAP2 SUB SWAP1 REVERT JUMPDEST PUSH2 0x15E5 PUSH0 DUP4 DUP4 PUSH2 0x17B8 JUMP JUMPDEST POP POP JUMP JUMPDEST PUSH0 PUSH20 0xFFFFFFFFFFFFFFFFFFFFFFFFFFFFFFFFFFFFFFFF AND DUP5 PUSH20 0xFFFFFFFFFFFFFFFFFFFFFFFFFFFFFFFFFFFFFFFF AND SUB PUSH2 0x1659 JUMPI PUSH0 PUSH1 0x40 MLOAD PUSH32 0xE602DF0500000000000000000000000000000000000000000000000000000000 DUP2 MSTORE PUSH1 0x4 ADD PUSH2 0x1650 SWAP2 SWAP1 PUSH2 0x1D22 JUMP JUMPDEST PUSH1 0x40 MLOAD DUP1 SWAP2 SUB SWAP1 REVERT JUMPDEST PUSH0 PUSH20 0xFFFFFFFFFFFFFFFFFFFFFFFFFFFFFFFFFFFFFFFF AND DUP4 PUSH20 0xFFFFFFFFFFFFFFFFFFFFFFFFFFFFFFFFFFFFFFFF AND SUB PUSH2 0x16C9 JUMPI PUSH0 PUSH1 0x40 MLOAD PUSH32 0x94280D6200000000000000000000000000000000000000000000000000000000 DUP2 MSTORE PUSH1 0x4 ADD PUSH2 0x16C0 SWAP2 SWAP1 PUSH2 0x1D22 JUMP JUMPDEST PUSH1 0x40 MLOAD DUP1 SWAP2 SUB SWAP1 REVERT JUMPDEST DUP2 PUSH1 0x1 PUSH0 DUP7 PUSH20 0xFFFFFFFFFFFFFFFFFFFFFFFFFFFFFFFFFFFFFFFF AND PUSH20 0xFFFFFFFFFFFFFFFFFFFFFFFFFFFFFFFFFFFFFFFF AND DUP2 MSTORE PUSH1 0x20 ADD SWAP1 DUP2 MSTORE PUSH1 0x20 ADD PUSH0 KECCAK256 PUSH0 DUP6 PUSH20 0xFFFFFFFFFFFFFFFFFFFFFFFFFFFFFFFFFFFFFFFF AND PUSH20 0xFFFFFFFFFFFFFFFFFFFFFFFFFFFFFFFFFFFFFFFF AND DUP2 MSTORE PUSH1 0x20 ADD SWAP1 DUP2 MSTORE PUSH1 0x20 ADD PUSH0 KECCAK256 DUP2 SWAP1 SSTORE POP DUP1 ISZERO PUSH2 0x17B2 JUMPI DUP3 PUSH20 0xFFFFFFFFFFFFFFFFFFFFFFFFFFFFFFFFFFFFFFFF AND DUP5 PUSH20 0xFFFFFFFFFFFFFFFFFFFFFFFFFFFFFFFFFFFFFFFF AND PUSH32 0x8C5BE1E5EBEC7D5BD14F71427D1E84F3DD0314C0F7B2291E5B200AC8C7C3B925 DUP5 PUSH1 0x40 MLOAD PUSH2 0x17A9 SWAP2 SWAP1 PUSH2 0x1C4B JUMP JUMPDEST PUSH1 0x40 MLOAD DUP1 SWAP2 SUB SWAP1 LOG3 JUMPDEST POP POP POP POP JUMP JUMPDEST PUSH0 PUSH20 0xFFFFFFFFFFFFFFFFFFFFFFFFFFFFFFFFFFFFFFFF AND DUP4 PUSH20 0xFFFFFFFFFFFFFFFFFFFFFFFFFFFFFFFFFFFFFFFF AND SUB PUSH2 0x1808 JUMPI DUP1 PUSH1 0x2 PUSH0 DUP3 DUP3 SLOAD PUSH2 0x17FC SWAP2 SWAP1 PUSH2 0x1F9C JUMP JUMPDEST SWAP3 POP POP DUP2 SWAP1 SSTORE POP PUSH2 0x18D6 JUMP JUMPDEST PUSH0 PUSH0 PUSH0 DUP6 PUSH20 0xFFFFFFFFFFFFFFFFFFFFFFFFFFFFFFFFFFFFFFFF AND PUSH20 0xFFFFFFFFFFFFFFFFFFFFFFFFFFFFFFFFFFFFFFFF AND DUP2 MSTORE PUSH1 0x20 ADD SWAP1 DUP2 MSTORE PUSH1 0x20 ADD PUSH0 KECCAK256 SLOAD SWAP1 POP DUP2 DUP2 LT ISZERO PUSH2 0x1891 JUMPI DUP4 DUP2 DUP4 PUSH1 0x40 MLOAD PUSH32 0xE450D38C00000000000000000000000000000000000000000000000000000000 DUP2 MSTORE PUSH1 0x4 ADD PUSH2 0x1888 SWAP4 SWAP3 SWAP2 SWAP1 PUSH2 0x23C1 JUMP JUMPDEST PUSH1 0x40 MLOAD DUP1 SWAP2 SUB SWAP1 REVERT JUMPDEST DUP2 DUP2 SUB PUSH0 PUSH0 DUP7 PUSH20 0xFFFFFFFFFFFFFFFFFFFFFFFFFFFFFFFFFFFFFFFF AND PUSH20 0xFFFFFFFFFFFFFFFFFFFFFFFFFFFFFFFFFFFFFFFF AND DUP2 MSTORE PUSH1 0x20 ADD SWAP1 DUP2 MSTORE PUSH1 0x20 ADD PUSH0 KECCAK256 DUP2 SWAP1 SSTORE POP POP JUMPDEST PUSH0 PUSH20 0xFFFFFFFFFFFFFFFFFFFFFFFFFFFFFFFFFFFFFFFF AND DUP3 PUSH20 0xFFFFFFFFFFFFFFFFFFFFFFFFFFFFFFFFFFFFFFFF AND SUB PUSH2 0x191D JUMPI DUP1 PUSH1 0x2 PUSH0 DUP3 DUP3 SLOAD SUB SWAP3 POP POP DUP2 SWAP1 SSTORE POP PUSH2 0x1967 JUMP JUMPDEST DUP1 PUSH0 PUSH0 DUP5 PUSH20 0xFFFFFFFFFFFFFFFFFFFFFFFFFFFFFFFFFFFFFFFF AND PUSH20 0xFFFFFFFFFFFFFFFFFFFFFFFFFFFFFFFFFFFFFFFF AND DUP2 MSTORE PUSH1 0x20 ADD SWAP1 DUP2 MSTORE PUSH1 0x20 ADD PUSH0 KECCAK256 PUSH0 DUP3 DUP3 SLOAD ADD SWAP3 POP POP DUP2 SWAP1 SSTORE POP JUMPDEST DUP2 PUSH20 0xFFFFFFFFFFFFFFFFFFFFFFFFFFFFFFFFFFFFFFFF AND DUP4 PUSH20 0xFFFFFFFFFFFFFFFFFFFFFFFFFFFFFFFFFFFFFFFF AND PUSH32 0xDDF252AD1BE2C89B69C2B068FC378DAA952BA7F163C4A11628F55A4DF523B3EF DUP4 PUSH1 0x40 MLOAD PUSH2 0x19C4 SWAP2 SWAP1 PUSH2 0x1C4B JUMP JUMPDEST PUSH1 0x40 MLOAD DUP1 SWAP2 SUB SWAP1 LOG3 POP POP POP JUMP JUMPDEST PUSH0 DUP2 MLOAD SWAP1 POP SWAP2 SWAP1 POP JUMP JUMPDEST PUSH0 DUP3 DUP3 MSTORE PUSH1 0x20 DUP3 ADD SWAP1 POP SWAP3 SWAP2 POP POP JUMP JUMPDEST DUP3 DUP2 DUP4 MCOPY PUSH0 DUP4 DUP4 ADD MSTORE POP POP POP JUMP JUMPDEST PUSH0 PUSH1 0x1F NOT PUSH1 0x1F DUP4 ADD AND SWAP1 POP SWAP2 SWAP1 POP JUMP JUMPDEST PUSH0 PUSH2 0x1A13 DUP3 PUSH2 0x19D1 JUMP JUMPDEST PUSH2 0x1A1D DUP2 DUP6 PUSH2 0x19DB JUMP JUMPDEST SWAP4 POP PUSH2 0x1A2D DUP2 DUP6 PUSH1 0x20 DUP7 ADD PUSH2 0x19EB JUMP JUMPDEST PUSH2 0x1A36 DUP2 PUSH2 0x19F9 JUMP JUMPDEST DUP5 ADD SWAP2 POP POP SWAP3 SWAP2 POP POP JUMP JUMPDEST PUSH0 PUSH1 0x20 DUP3 ADD SWAP1 POP DUP2 DUP2 SUB PUSH0 DUP4 ADD MSTORE PUSH2 0x1A59 DUP2 DUP5 PUSH2 0x1A09 JUMP JUMPDEST SWAP1 POP SWAP3 SWAP2 POP POP JUMP JUMPDEST PUSH0 DUP2 SWAP1 POP SWAP2 SWAP1 POP JUMP JUMPDEST PUSH2 0x1A73 DUP2 PUSH2 0x1A61 JUMP JUMPDEST DUP3 MSTORE POP POP JUMP JUMPDEST PUSH0 PUSH1 0x40 DUP3 ADD SWAP1 POP PUSH2 0x1A8C PUSH0 DUP4 ADD DUP6 PUSH2 0x1A6A JUMP JUMPDEST PUSH2 0x1A99 PUSH1 0x20 DUP4 ADD DUP5 PUSH2 0x1A6A JUMP JUMPDEST SWAP4 SWAP3 POP POP POP JUMP JUMPDEST PUSH0 PUSH0 REVERT JUMPDEST PUSH0 PUSH20 0xFFFFFFFFFFFFFFFFFFFFFFFFFFFFFFFFFFFFFFFF DUP3 AND SWAP1 POP SWAP2 SWAP1 POP JUMP JUMPDEST PUSH0 PUSH2 0x1ACD DUP3 PUSH2 0x1AA4 JUMP JUMPDEST SWAP1 POP SWAP2 SWAP1 POP JUMP JUMPDEST PUSH2 0x1ADD DUP2 PUSH2 0x1AC3 JUMP JUMPDEST DUP2 EQ PUSH2 0x1AE7 JUMPI PUSH0 PUSH0 REVERT JUMPDEST POP JUMP JUMPDEST PUSH0 DUP2 CALLDATALOAD SWAP1 POP PUSH2 0x1AF8 DUP2 PUSH2 0x1AD4 JUMP JUMPDEST SWAP3 SWAP2 POP POP JUMP JUMPDEST PUSH2 0x1B07 DUP2 PUSH2 0x1A61 JUMP JUMPDEST DUP2 EQ PUSH2 0x1B11 JUMPI PUSH0 PUSH0 REVERT JUMPDEST POP JUMP JUMPDEST PUSH0 DUP2 CALLDATALOAD SWAP1 POP PUSH2 0x1B22 DUP2 PUSH2 0x1AFE JUMP JUMPDEST SWAP3 SWAP2 POP POP JUMP JUMPDEST PUSH0 PUSH0 PUSH1 0x40 DUP4 DUP6 SUB SLT ISZERO PUSH2 0x1B3E JUMPI PUSH2 0x1B3D PUSH2 0x1AA0 JUMP JUMPDEST JUMPDEST PUSH0 PUSH2 0x1B4B DUP6 DUP3 DUP7 ADD PUSH2 0x1AEA JUMP JUMPDEST SWAP3 POP POP PUSH1 0x20 PUSH2 0x1B5C DUP6 DUP3 DUP7 ADD PUSH2 0x1B14 JUMP JUMPDEST SWAP2 POP POP SWAP3 POP SWAP3 SWAP1 POP JUMP JUMPDEST PUSH0 DUP2 ISZERO ISZERO SWAP1 POP SWAP2 SWAP1 POP JUMP JUMPDEST PUSH2 0x1B7A DUP2 PUSH2 0x1B66 JUMP JUMPDEST DUP3 MSTORE POP POP JUMP JUMPDEST PUSH0 PUSH1 0x20 DUP3 ADD SWAP1 POP PUSH2 0x1B93 PUSH0 DUP4 ADD DUP5 PUSH2 0x1B71 JUMP JUMPDEST SWAP3 SWAP2 POP POP JUMP JUMPDEST PUSH0 DUP2 SWAP1 POP SWAP2 SWAP1 POP JUMP JUMPDEST PUSH0 PUSH2 0x1BBC PUSH2 0x1BB7 PUSH2 0x1BB2 DUP5 PUSH2 0x1AA4 JUMP JUMPDEST PUSH2 0x1B99 JUMP JUMPDEST PUSH2 0x1AA4 JUMP JUMPDEST SWAP1 POP SWAP2 SWAP1 POP JUMP JUMPDEST PUSH0 PUSH2 0x1BCD DUP3 PUSH2 0x1BA2 JUMP JUMPDEST SWAP1 POP SWAP2 SWAP1 POP JUMP JUMPDEST PUSH0 PUSH2 0x1BDE DUP3 PUSH2 0x1BC3 JUMP JUMPDEST SWAP1 POP SWAP2 SWAP1 POP JUMP JUMPDEST PUSH2 0x1BEE DUP2 PUSH2 0x1BD4 JUMP JUMPDEST DUP3 MSTORE POP POP JUMP JUMPDEST PUSH0 PUSH1 0x20 DUP3 ADD SWAP1 POP PUSH2 0x1C07 PUSH0 DUP4 ADD DUP5 PUSH2 0x1BE5 JUMP JUMPDEST SWAP3 SWAP2 POP POP JUMP JUMPDEST PUSH0 PUSH0 PUSH1 0x40 DUP4 DUP6 SUB SLT ISZERO PUSH2 0x1C23 JUMPI PUSH2 0x1C22 PUSH2 0x1AA0 JUMP JUMPDEST JUMPDEST PUSH0 PUSH2 0x1C30 DUP6 DUP3 DUP7 ADD PUSH2 0x1B14 JUMP JUMPDEST SWAP3 POP POP PUSH1 0x20 PUSH2 0x1C41 DUP6 DUP3 DUP7 ADD PUSH2 0x1B14 JUMP JUMPDEST SWAP2 POP POP SWAP3 POP SWAP3 SWAP1 POP JUMP JUMPDEST PUSH0 PUSH1 0x20 DUP3 ADD SWAP1 POP PUSH2 0x1C5E PUSH0 DUP4 ADD DUP5 PUSH2 0x1A6A JUMP JUMPDEST SWAP3 SWAP2 POP POP JUMP JUMPDEST PUSH0 PUSH0 PUSH0 PUSH1 0x60 DUP5 DUP7 SUB SLT ISZERO PUSH2 0x1C7B JUMPI PUSH2 0x1C7A PUSH2 0x1AA0 JUMP JUMPDEST JUMPDEST PUSH0 PUSH2 0x1C88 DUP7 DUP3 DUP8 ADD PUSH2 0x1AEA JUMP JUMPDEST SWAP4 POP POP PUSH1 0x20 PUSH2 0x1C99 DUP7 DUP3 DUP8 ADD PUSH2 0x1AEA JUMP JUMPDEST SWAP3 POP POP PUSH1 0x40 PUSH2 0x1CAA DUP7 DUP3 DUP8 ADD PUSH2 0x1B14 JUMP JUMPDEST SWAP2 POP POP SWAP3 POP SWAP3 POP SWAP3 JUMP JUMPDEST PUSH0 PUSH1 0xFF DUP3 AND SWAP1 POP SWAP2 SWAP1 POP JUMP JUMPDEST PUSH2 0x1CC9 DUP2 PUSH2 0x1CB4 JUMP JUMPDEST DUP3 MSTORE POP POP JUMP JUMPDEST PUSH0 PUSH1 0x20 DUP3 ADD SWAP1 POP PUSH2 0x1CE2 PUSH0 DUP4 ADD DUP5 PUSH2 0x1CC0 JUMP JUMPDEST SWAP3 SWAP2 POP POP JUMP JUMPDEST PUSH0 PUSH1 0x20 DUP3 DUP5 SUB SLT ISZERO PUSH2 0x1CFD JUMPI PUSH2 0x1CFC PUSH2 0x1AA0 JUMP JUMPDEST JUMPDEST PUSH0 PUSH2 0x1D0A DUP5 DUP3 DUP6 ADD PUSH2 0x1AEA JUMP JUMPDEST SWAP2 POP POP SWAP3 SWAP2 POP POP JUMP JUMPDEST PUSH2 0x1D1C DUP2 PUSH2 0x1AC3 JUMP JUMPDEST DUP3 MSTORE POP POP JUMP JUMPDEST PUSH0 PUSH1 0x20 DUP3 ADD SWAP1 POP PUSH2 0x1D35 PUSH0 DUP4 ADD DUP5 PUSH2 0x1D13 JUMP JUMPDEST SWAP3 SWAP2 POP POP JUMP JUMPDEST PUSH0 PUSH1 0x20 DUP3 DUP5 SUB SLT ISZERO PUSH2 0x1D50 JUMPI PUSH2 0x1D4F PUSH2 0x1AA0 JUMP JUMPDEST JUMPDEST PUSH0 PUSH2 0x1D5D DUP5 DUP3 DUP6 ADD PUSH2 0x1B14 JUMP JUMPDEST SWAP2 POP POP SWAP3 SWAP2 POP POP JUMP JUMPDEST PUSH0 PUSH0 PUSH1 0x40 DUP4 DUP6 SUB SLT ISZERO PUSH2 0x1D7C JUMPI PUSH2 0x1D7B PUSH2 0x1AA0 JUMP JUMPDEST JUMPDEST PUSH0 PUSH2 0x1D89 DUP6 DUP3 DUP7 ADD PUSH2 0x1AEA JUMP JUMPDEST SWAP3 POP POP PUSH1 0x20 PUSH2 0x1D9A DUP6 DUP3 DUP7 ADD PUSH2 0x1AEA JUMP JUMPDEST SWAP2 POP POP SWAP3 POP SWAP3 SWAP1 POP JUMP JUMPDEST PUSH32 0x4E487B7100000000000000000000000000000000000000000000000000000000 PUSH0 MSTORE PUSH1 0x22 PUSH1 0x4 MSTORE PUSH1 0x24 PUSH0 REVERT JUMPDEST PUSH0 PUSH1 0x2 DUP3 DIV SWAP1 POP PUSH1 0x1 DUP3 AND DUP1 PUSH2 0x1DE8 JUMPI PUSH1 0x7F DUP3 AND SWAP2 POP JUMPDEST PUSH1 0x20 DUP3 LT DUP2 SUB PUSH2 0x1DFB JUMPI PUSH2 0x1DFA PUSH2 0x1DA4 JUMP JUMPDEST JUMPDEST POP SWAP2 SWAP1 POP JUMP JUMPDEST PUSH32 0x416D6F756E74206D757374206265203E20300000000000000000000000000000 PUSH0 DUP3 ADD MSTORE POP JUMP JUMPDEST PUSH0 PUSH2 0x1E35 PUSH1 0x12 DUP4 PUSH2 0x19DB JUMP JUMPDEST SWAP2 POP PUSH2 0x1E40 DUP3 PUSH2 0x1E01 JUMP JUMPDEST PUSH1 0x20 DUP3 ADD SWAP1 POP SWAP2 SWAP1 POP JUMP JUMPDEST PUSH0 PUSH1 0x20 DUP3 ADD SWAP1 POP DUP2 DUP2 SUB PUSH0 DUP4 ADD MSTORE PUSH2 0x1E62 DUP2 PUSH2 0x1E29 JUMP JUMPDEST SWAP1 POP SWAP2 SWAP1 POP JUMP JUMPDEST PUSH32 0x496E73756666696369656E742072657365727665730000000000000000000000 PUSH0 DUP3 ADD MSTORE POP JUMP JUMPDEST PUSH0 PUSH2 0x1E9D PUSH1 0x15 DUP4 PUSH2 0x19DB JUMP JUMPDEST SWAP2 POP PUSH2 0x1EA8 DUP3 PUSH2 0x1E69 JUMP JUMPDEST PUSH1 0x20 DUP3 ADD SWAP1 POP SWAP2 SWAP1 POP JUMP JUMPDEST PUSH0 PUSH1 0x20 DUP3 ADD SWAP1 POP DUP2 DUP2 SUB PUSH0 DUP4 ADD MSTORE PUSH2 0x1ECA DUP2 PUSH2 0x1E91 JUMP JUMPDEST SWAP1 POP SWAP2 SWAP1 POP JUMP JUMPDEST PUSH32 0x4E487B7100000000000000000000000000000000000000000000000000000000 PUSH0 MSTORE PUSH1 0x11 PUSH1 0x4 MSTORE PUSH1 0x24 PUSH0 REVERT JUMPDEST PUSH0 PUSH2 0x1F08 DUP3 PUSH2 0x1A61 JUMP JUMPDEST SWAP2 POP PUSH2 0x1F13 DUP4 PUSH2 0x1A61 JUMP JUMPDEST SWAP3 POP DUP3 DUP3 MUL PUSH2 0x1F21 DUP2 PUSH2 0x1A61 JUMP JUMPDEST SWAP2 POP DUP3 DUP3 DIV DUP5 EQ DUP4 ISZERO OR PUSH2 0x1F38 JUMPI PUSH2 0x1F37 PUSH2 0x1ED1 JUMP JUMPDEST JUMPDEST POP SWAP3 SWAP2 POP POP JUMP JUMPDEST PUSH32 0x4E487B7100000000000000000000000000000000000000000000000000000000 PUSH0 MSTORE PUSH1 0x12 PUSH1 0x4 MSTORE PUSH1 0x24 PUSH0 REVERT JUMPDEST PUSH0 PUSH2 0x1F76 DUP3 PUSH2 0x1A61 JUMP JUMPDEST SWAP2 POP PUSH2 0x1F81 DUP4 PUSH2 0x1A61 JUMP JUMPDEST SWAP3 POP DUP3 PUSH2 0x1F91 JUMPI PUSH2 0x1F90 PUSH2 0x1F3F JUMP JUMPDEST JUMPDEST DUP3 DUP3 DIV SWAP1 POP SWAP3 SWAP2 POP POP JUMP JUMPDEST PUSH0 PUSH2 0x1FA6 DUP3 PUSH2 0x1A61 JUMP JUMPDEST SWAP2 POP PUSH2 0x1FB1 DUP4 PUSH2 0x1A61 JUMP JUMPDEST SWAP3 POP DUP3 DUP3 ADD SWAP1 POP DUP1 DUP3 GT ISZERO PUSH2 0x1FC9 JUMPI PUSH2 0x1FC8 PUSH2 0x1ED1 JUMP JUMPDEST JUMPDEST SWAP3 SWAP2 POP POP JUMP JUMPDEST PUSH32 0x536C69707061676520746F6F2068696768000000000000000000000000000000 PUSH0 DUP3 ADD MSTORE POP JUMP JUMPDEST PUSH0 PUSH2 0x2003 PUSH1 0x11 DUP4 PUSH2 0x19DB JUMP JUMPDEST SWAP2 POP PUSH2 0x200E DUP3 PUSH2 0x1FCF JUMP JUMPDEST PUSH1 0x20 DUP3 ADD SWAP1 POP SWAP2 SWAP1 POP JUMP JUMPDEST PUSH0 PUSH1 0x20 DUP3 ADD SWAP1 POP DUP2 DUP2 SUB PUSH0 DUP4 ADD MSTORE PUSH2 0x2030 DUP2 PUSH2 0x1FF7 JUMP JUMPDEST SWAP1 POP SWAP2 SWAP1 POP JUMP JUMPDEST PUSH0 PUSH1 0x60 DUP3 ADD SWAP1 POP PUSH2 0x204A PUSH0 DUP4 ADD DUP7 PUSH2 0x1D13 JUMP JUMPDEST PUSH2 0x2057 PUSH1 0x20 DUP4 ADD DUP6 PUSH2 0x1D13 JUMP JUMPDEST PUSH2 0x2064 PUSH1 0x40 DUP4 ADD DUP5 PUSH2 0x1A6A JUMP JUMPDEST SWAP5 SWAP4 POP POP POP POP JUMP JUMPDEST PUSH2 0x2075 DUP2 PUSH2 0x1B66 JUMP JUMPDEST DUP2 EQ PUSH2 0x207F JUMPI PUSH0 PUSH0 REVERT JUMPDEST POP JUMP JUMPDEST PUSH0 DUP2 MLOAD SWAP1 POP PUSH2 0x2090 DUP2 PUSH2 0x206C JUMP JUMPDEST SWAP3 SWAP2 POP POP JUMP JUMPDEST PUSH0 PUSH1 0x20 DUP3 DUP5 SUB SLT ISZERO PUSH2 0x20AB JUMPI PUSH2 0x20AA PUSH2 0x1AA0 JUMP JUMPDEST JUMPDEST PUSH0 PUSH2 0x20B8 DUP5 DUP3 DUP6 ADD PUSH2 0x2082 JUMP JUMPDEST SWAP2 POP POP SWAP3 SWAP2 POP POP JUMP JUMPDEST PUSH0 PUSH1 0x40 DUP3 ADD SWAP1 POP PUSH2 0x20D4 PUSH0 DUP4 ADD DUP6 PUSH2 0x1D13 JUMP JUMPDEST PUSH2 0x20E1 PUSH1 0x20 DUP4 ADD DUP5 PUSH2 0x1A6A JUMP JUMPDEST SWAP4 SWAP3 POP POP POP JUMP JUMPDEST PUSH0 PUSH2 0x20F2 DUP3 PUSH2 0x1A61 JUMP JUMPDEST SWAP2 POP PUSH2 0x20FD DUP4 PUSH2 0x1A61 JUMP JUMPDEST SWAP3 POP DUP3 DUP3 SUB SWAP1 POP DUP2 DUP2 GT ISZERO PUSH2 0x2115 JUMPI PUSH2 0x2114 PUSH2 0x1ED1 JUMP JUMPDEST JUMPDEST SWAP3 SWAP2 POP POP JUMP JUMPDEST PUSH0 PUSH1 0x80 DUP3 ADD SWAP1 POP PUSH2 0x212E PUSH0 DUP4 ADD DUP8 PUSH2 0x1D13 JUMP JUMPDEST PUSH2 0x213B PUSH1 0x20 DUP4 ADD DUP7 PUSH2 0x1A6A JUMP JUMPDEST PUSH2 0x2148 PUSH1 0x40 DUP4 ADD DUP6 PUSH2 0x1D13 JUMP JUMPDEST PUSH2 0x2155 PUSH1 0x60 DUP4 ADD DUP5 PUSH2 0x1A6A JUMP JUMPDEST SWAP6 SWAP5 POP POP POP POP POP JUMP JUMPDEST PUSH32 0x4C697175696469747920746F2072656D6F7665206D757374206265203E203000 PUSH0 DUP3 ADD MSTORE POP JUMP JUMPDEST PUSH0 PUSH2 0x2192 PUSH1 0x1F DUP4 PUSH2 0x19DB JUMP JUMPDEST SWAP2 POP PUSH2 0x219D DUP3 PUSH2 0x215E JUMP JUMPDEST PUSH1 0x20 DUP3 ADD SWAP1 POP SWAP2 SWAP1 POP JUMP JUMPDEST PUSH0 PUSH1 0x20 DUP3 ADD SWAP1 POP DUP2 DUP2 SUB PUSH0 DUP4 ADD MSTORE PUSH2 0x21BF DUP2 PUSH2 0x2186 JUMP JUMPDEST SWAP1 POP SWAP2 SWAP1 POP JUMP JUMPDEST PUSH32 0x496E73756666696369656E74206C697175696469747920746F6B656E73000000 PUSH0 DUP3 ADD MSTORE POP JUMP JUMPDEST PUSH0 PUSH2 0x21FA PUSH1 0x1D DUP4 PUSH2 0x19DB JUMP JUMPDEST SWAP2 POP PUSH2 0x2205 DUP3 PUSH2 0x21C6 JUMP JUMPDEST PUSH1 0x20 DUP3 ADD SWAP1 POP SWAP2 SWAP1 POP JUMP JUMPDEST PUSH0 PUSH1 0x20 DUP3 ADD SWAP1 POP DUP2 DUP2 SUB PUSH0 DUP4 ADD MSTORE PUSH2 0x2227 DUP2 PUSH2 0x21EE JUMP JUMPDEST SWAP1 POP SWAP2 SWAP1 POP JUMP JUMPDEST PUSH32 0x4E6F206C697175696469747920696E2074686520706F6F6C0000000000000000 PUSH0 DUP3 ADD MSTORE POP JUMP JUMPDEST PUSH0 PUSH2 0x2262 PUSH1 0x18 DUP4 PUSH2 0x19DB JUMP JUMPDEST SWAP2 POP PUSH2 0x226D DUP3 PUSH2 0x222E JUMP JUMPDEST PUSH1 0x20 DUP3 ADD SWAP1 POP SWAP2 SWAP1 POP JUMP JUMPDEST PUSH0 PUSH1 0x20 DUP3 ADD SWAP1 POP DUP2 DUP2 SUB PUSH0 DUP4 ADD MSTORE PUSH2 0x228F DUP2 PUSH2 0x2256 JUMP JUMPDEST SWAP1 POP SWAP2 SWAP1 POP JUMP JUMPDEST PUSH32 0x496E73756666696369656E7420726573657276657320666F7220726571756573 PUSH0 DUP3 ADD MSTORE PUSH32 0x746564206C697175696469747900000000000000000000000000000000000000 PUSH1 0x20 DUP3 ADD MSTORE POP JUMP JUMPDEST PUSH0 PUSH2 0x22F0 PUSH1 0x2D DUP4 PUSH2 0x19DB JUMP JUMPDEST SWAP2 POP PUSH2 0x22FB DUP3 PUSH2 0x2296 JUMP JUMPDEST PUSH1 0x40 DUP3 ADD SWAP1 POP SWAP2 SWAP1 POP JUMP JUMPDEST PUSH0 PUSH1 0x20 DUP3 ADD SWAP1 POP DUP2 DUP2 SUB PUSH0 DUP4 ADD MSTORE PUSH2 0x231D DUP2 PUSH2 0x22E4 JUMP JUMPDEST SWAP1 POP SWAP2 SWAP1 POP JUMP JUMPDEST PUSH0 PUSH1 0x60 DUP3 ADD SWAP1 POP PUSH2 0x2337 PUSH0 DUP4 ADD DUP7 PUSH2 0x1A6A JUMP JUMPDEST PUSH2 0x2344 PUSH1 0x20 DUP4 ADD DUP6 PUSH2 0x1A6A JUMP JUMPDEST PUSH2 0x2351 PUSH1 0x40 DUP4 ADD DUP5 PUSH2 0x1A6A JUMP JUMPDEST SWAP5 SWAP4 POP POP POP POP JUMP JUMPDEST PUSH32 0x416D6F756E7473206D757374206265203E203000000000000000000000000000 PUSH0 DUP3 ADD MSTORE POP JUMP JUMPDEST PUSH0 PUSH2 0x238D PUSH1 0x13 DUP4 PUSH2 0x19DB JUMP JUMPDEST SWAP2 POP PUSH2 0x2398 DUP3 PUSH2 0x2359 JUMP JUMPDEST PUSH1 0x20 DUP3 ADD SWAP1 POP SWAP2 SWAP1 POP JUMP JUMPDEST PUSH0 PUSH1 0x20 DUP3 ADD SWAP1 POP DUP2 DUP2 SUB PUSH0 DUP4 ADD MSTORE PUSH2 0x23BA DUP2 PUSH2 0x2381 JUMP JUMPDEST SWAP1 POP SWAP2 SWAP1 POP JUMP JUMPDEST PUSH0 PUSH1 0x60 DUP3 ADD SWAP1 POP PUSH2 0x23D4 PUSH0 DUP4 ADD DUP7 PUSH2 0x1D13 JUMP JUMPDEST PUSH2 0x23E1 PUSH1 0x20 DUP4 ADD DUP6 PUSH2 0x1A6A JUMP JUMPDEST PUSH2 0x23EE PUSH1 0x40 DUP4 ADD DUP5 PUSH2 0x1A6A JUMP JUMPDEST SWAP5 SWAP4 POP POP POP POP JUMP INVALID LOG2 PUSH5 0x6970667358 0x22 SLT KECCAK256 PUSH20 0x8B2C834D3BFB667288A19228B6900F00DDC9A577 0xB6 SWAP10 0xEA POP MCOPY 0xB7 0xE9 0x28 LOG2 0xCD EQ PUSH5 0x736F6C6343 STOP ADDMOD 0x1E STOP CALLER "
				},
				"gasEstimates": {
					"creation": {
						"codeDepositCost": "1852000",
						"executionCost": "infinite",
						"totalCost": "infinite"
					},
					"external": {
						"addLiquidity(uint256,uint256)": "infinite",
						"allowance(address,address)": "infinite",
						"approve(address,uint256)": "infinite",
						"balanceOf(address)": "2873",
						"decimals()": "449",
						"getReserves()": "infinite",
						"name()": "infinite",
						"owner()": "2575",
						"removeLiquidity(uint256)": "infinite",
						"reserveA()": "2513",
						"reserveB()": "2492",
						"swapAforB(uint256,uint256)": "infinite",
						"swapBforA(uint256,uint256)": "infinite",
						"symbol()": "infinite",
						"tokenA()": "infinite",
						"tokenB()": "infinite",
						"totalSupply()": "2477",
						"transfer(address,uint256)": "infinite",
						"transferFrom(address,address,uint256)": "infinite"
					},
					"internal": {
						"min(uint256,uint256)": "63",
						"sqrt(uint256)": "infinite"
					}
				},
				"methodIdentifiers": {
					"addLiquidity(uint256,uint256)": "9cd441da",
					"allowance(address,address)": "dd62ed3e",
					"approve(address,uint256)": "095ea7b3",
					"balanceOf(address)": "70a08231",
					"decimals()": "313ce567",
					"getReserves()": "0902f1ac",
					"name()": "06fdde03",
					"owner()": "8da5cb5b",
					"removeLiquidity(uint256)": "9c8f9f23",
					"reserveA()": "dc5fa6c5",
					"reserveB()": "19e36f3b",
					"swapAforB(uint256,uint256)": "140e6247",
					"swapBforA(uint256,uint256)": "c915cc24",
					"symbol()": "95d89b41",
					"tokenA()": "0fc63d10",
					"tokenB()": "5f64b55b",
					"totalSupply()": "18160ddd",
					"transfer(address,uint256)": "a9059cbb",
					"transferFrom(address,address,uint256)": "23b872dd"
				}
			},
			"storageLayout": {
				"storage": [
					{
						"astId": 159,
						"contract": "submissions/Zora/Day25AutomatedMarketMaker.sol:AutomatedMarketMaker",
						"label": "_balances",
						"offset": 0,
						"slot": "0",
						"type": "t_mapping(t_address,t_uint256)"
					},
					{
						"astId": 165,
						"contract": "submissions/Zora/Day25AutomatedMarketMaker.sol:AutomatedMarketMaker",
						"label": "_allowances",
						"offset": 0,
						"slot": "1",
						"type": "t_mapping(t_address,t_mapping(t_address,t_uint256))"
					},
					{
						"astId": 167,
						"contract": "submissions/Zora/Day25AutomatedMarketMaker.sol:AutomatedMarketMaker",
						"label": "_totalSupply",
						"offset": 0,
						"slot": "2",
						"type": "t_uint256"
					},
					{
						"astId": 169,
						"contract": "submissions/Zora/Day25AutomatedMarketMaker.sol:AutomatedMarketMaker",
						"label": "_name",
						"offset": 0,
						"slot": "3",
						"type": "t_string_storage"
					},
					{
						"astId": 171,
						"contract": "submissions/Zora/Day25AutomatedMarketMaker.sol:AutomatedMarketMaker",
						"label": "_symbol",
						"offset": 0,
						"slot": "4",
						"type": "t_string_storage"
					},
					{
						"astId": 794,
						"contract": "submissions/Zora/Day25AutomatedMarketMaker.sol:AutomatedMarketMaker",
						"label": "tokenA",
						"offset": 0,
						"slot": "5",
						"type": "t_contract(IERC20)729"
					},
					{
						"astId": 797,
						"contract": "submissions/Zora/Day25AutomatedMarketMaker.sol:AutomatedMarketMaker",
						"label": "tokenB",
						"offset": 0,
						"slot": "6",
						"type": "t_contract(IERC20)729"
					},
					{
						"astId": 799,
						"contract": "submissions/Zora/Day25AutomatedMarketMaker.sol:AutomatedMarketMaker",
						"label": "reserveA",
						"offset": 0,
						"slot": "7",
						"type": "t_uint256"
					},
					{
						"astId": 801,
						"contract": "submissions/Zora/Day25AutomatedMarketMaker.sol:AutomatedMarketMaker",
						"label": "reserveB",
						"offset": 0,
						"slot": "8",
						"type": "t_uint256"
					},
					{
						"astId": 803,
						"contract": "submissions/Zora/Day25AutomatedMarketMaker.sol:AutomatedMarketMaker",
						"label": "owner",
						"offset": 0,
						"slot": "9",
						"type": "t_address"
					}
				],
				"types": {
					"t_address": {
						"encoding": "inplace",
						"label": "address",
						"numberOfBytes": "20"
					},
					"t_contract(IERC20)729": {
						"encoding": "inplace",
						"label": "contract IERC20",
						"numberOfBytes": "20"
					},
					"t_mapping(t_address,t_mapping(t_address,t_uint256))": {
						"encoding": "mapping",
						"key": "t_address",
						"label": "mapping(address => mapping(address => uint256))",
						"numberOfBytes": "32",
						"value": "t_mapping(t_address,t_uint256)"
					},
					"t_mapping(t_address,t_uint256)": {
						"encoding": "mapping",
						"key": "t_address",
						"label": "mapping(address => uint256)",
						"numberOfBytes": "32",
						"value": "t_uint256"
					},
					"t_string_storage": {
						"encoding": "bytes",
						"label": "string",
						"numberOfBytes": "32"
					},
					"t_uint256": {
						"encoding": "inplace",
						"label": "uint256",
						"numberOfBytes": "32"
					}
				}
			},
			"userdoc": {
				"kind": "user",
				"methods": {
					"addLiquidity(uint256,uint256)": {
						"notice": "Add liquidity to the pool"
					},
					"getReserves()": {
						"notice": "View the current reserves"
					},
					"removeLiquidity(uint256)": {
						"notice": "Remove liquidity from the pool"
					},
					"swapAforB(uint256,uint256)": {
						"notice": "Swap token A for token B"
					},
					"swapBforA(uint256,uint256)": {
						"notice": "Swap token B for token A"
					}
				},
				"version": 1
			}
		}
	}
}