{
	"submissions/Zora/Day10Activity Tracker.sol": {
		"SimpleFitnessTracker": {
			"abi": [
				{
					"inputs": [],
					"stateMutability": "nonpayable",
					"type": "constructor"
				},
				{
					"anonymous": false,
					"inputs": [
						{
							"indexed": true,
							"internalType": "address",
							"name": "userAddress",
							"type": "address"
						},
						{
							"indexed": false,
							"internalType": "string",
							"name": "milestone",
							"type": "string"
						},
						{
							"indexed": false,
							"internalType": "uint256",
							"name": "timestamp",
							"type": "uint256"
						}
					],
					"name": "MilestoneAchieved",
					"type": "event"
				},
				{
					"anonymous": false,
					"inputs": [
						{
							"indexed": true,
							"internalType": "address",
							"name": "userAddress",
							"type": "address"
						},
						{
							"indexed": false,
							"internalType": "uint256",
							"name": "newWeight",
							"type": "uint256"
						},
						{
							"indexed": false,
							"internalType": "uint256",
							"name": "timestamp",
							"type": "uint256"
						}
					],
					"name": "ProfileUpdated",
					"type": "event"
				},
				{
					"anonymous": false,
					"inputs": [
						{
							"indexed": true,
							"internalType": "address",
							"name": "userAddress",
							"type": "address"
						},
						{
							"indexed": false,
							"internalType": "string",
							"name": "name",
							"type": "string"
						},
						{
							"indexed": false,
							"internalType": "uint256",
							"name": "timestamp",
							"type": "uint256"
						}
					],
					"name": "UserRegistered",
					"type": "event"
				},
				{
					"anonymous": false,
					"inputs": [
						{
							"indexed": true,
							"internalType": "address",
							"name": "userAddress",
							"type": "address"
						},
						{
							"indexed": false,
							"internalType": "string",
							"name": "activityType",
							"type": "string"
						},
						{
							"indexed": false,
							"internalType": "uint256",
							"name": "duration",
							"type": "uint256"
						},
						{
							"indexed": false,
							"internalType": "uint256",
							"name": "diatance",
							"type": "uint256"
						},
						{
							"indexed": false,
							"internalType": "uint256",
							"name": "timestamp",
							"type": "uint256"
						}
					],
					"name": "WorkoutLogged",
					"type": "event"
				},
				{
					"inputs": [],
					"name": "getUserWorkoutCount",
					"outputs": [
						{
							"internalType": "uint256",
							"name": "",
							"type": "uint256"
						}
					],
					"stateMutability": "view",
					"type": "function"
				},
				{
					"inputs": [
						{
							"internalType": "string",
							"name": "_activityType",
							"type": "string"
						},
						{
							"internalType": "uint256",
							"name": "_duration",
							"type": "uint256"
						},
						{
							"internalType": "uint256",
							"name": "_distance",
							"type": "uint256"
						}
					],
					"name": "logWorkout",
					"outputs": [],
					"stateMutability": "nonpayable",
					"type": "function"
				},
				{
					"inputs": [],
					"name": "owner",
					"outputs": [
						{
							"internalType": "address",
							"name": "",
							"type": "address"
						}
					],
					"stateMutability": "view",
					"type": "function"
				},
				{
					"inputs": [
						{
							"internalType": "string",
							"name": "_name",
							"type": "string"
						},
						{
							"internalType": "uint256",
							"name": "_weight",
							"type": "uint256"
						}
					],
					"name": "registerUser",
					"outputs": [],
					"stateMutability": "nonpayable",
					"type": "function"
				},
				{
					"inputs": [
						{
							"internalType": "address",
							"name": "",
							"type": "address"
						}
					],
					"name": "totalDistance",
					"outputs": [
						{
							"internalType": "uint256",
							"name": "",
							"type": "uint256"
						}
					],
					"stateMutability": "view",
					"type": "function"
				},
				{
					"inputs": [
						{
							"internalType": "address",
							"name": "",
							"type": "address"
						}
					],
					"name": "totalWorkouts",
					"outputs": [
						{
							"internalType": "uint256",
							"name": "",
							"type": "uint256"
						}
					],
					"stateMutability": "view",
					"type": "function"
				},
				{
					"inputs": [
						{
							"internalType": "uint256",
							"name": "_newWeight",
							"type": "uint256"
						}
					],
					"name": "updateWeight",
					"outputs": [],
					"stateMutability": "nonpayable",
					"type": "function"
				},
				{
					"inputs": [
						{
							"internalType": "address",
							"name": "",
							"type": "address"
						}
					],
					"name": "userProfiles",
					"outputs": [
						{
							"internalType": "string",
							"name": "name",
							"type": "string"
						},
						{
							"internalType": "uint256",
							"name": "weight",
							"type": "uint256"
						},
						{
							"internalType": "bool",
							"name": "isRegistered",
							"type": "bool"
						}
					],
					"stateMutability": "view",
					"type": "function"
				}
			],
			"devdoc": {
				"kind": "dev",
				"methods": {},
				"version": 1
			},
			"evm": {
				"assembly": "    /* \"submissions/Zora/Day10Activity Tracker.sol\":60:3474  contract SimpleFitnessTracker{... */\n  mstore(0x40, 0x80)\n    /* \"submissions/Zora/Day10Activity Tracker.sol\":1084:1134  constructor(){... */\n  callvalue\n  dup1\n  iszero\n  tag_1\n  jumpi\n  revert(0x00, 0x00)\ntag_1:\n  pop\n    /* \"submissions/Zora/Day10Activity Tracker.sol\":1116:1126  msg.sender */\n  caller\n    /* \"submissions/Zora/Day10Activity Tracker.sol\":1108:1113  owner */\n  0x00\n  0x00\n    /* \"submissions/Zora/Day10Activity Tracker.sol\":1108:1126  owner = msg.sender */\n  0x0100\n  exp\n  dup2\n  sload\n  dup2\n  0xffffffffffffffffffffffffffffffffffffffff\n  mul\n  not\n  and\n  swap1\n  dup4\n  0xffffffffffffffffffffffffffffffffffffffff\n  and\n  mul\n  or\n  swap1\n  sstore\n  pop\n    /* \"submissions/Zora/Day10Activity Tracker.sol\":60:3474  contract SimpleFitnessTracker{... */\n  dataSize(sub_0)\n  dup1\n  dataOffset(sub_0)\n  0x00\n  codecopy\n  0x00\n  return\nstop\n\nsub_0: assembly {\n        /* \"submissions/Zora/Day10Activity Tracker.sol\":60:3474  contract SimpleFitnessTracker{... */\n      mstore(0x40, 0x80)\n      callvalue\n      dup1\n      iszero\n      tag_1\n      jumpi\n      revert(0x00, 0x00)\n    tag_1:\n      pop\n      jumpi(tag_2, lt(calldatasize, 0x04))\n      shr(0xe0, calldataload(0x00))\n      dup1\n      0xae5bde4e\n      gt\n      tag_11\n      jumpi\n      dup1\n      0xae5bde4e\n      eq\n      tag_7\n      jumpi\n      dup1\n      0xc5af3f8c\n      eq\n      tag_8\n      jumpi\n      dup1\n      0xd3951002\n      eq\n      tag_9\n      jumpi\n      dup1\n      0xec3df6ad\n      eq\n      tag_10\n      jumpi\n      jump(tag_2)\n    tag_11:\n      dup1\n      0x03cdaddd\n      eq\n      tag_3\n      jumpi\n      dup1\n      0x332d56d7\n      eq\n      tag_4\n      jumpi\n      dup1\n      0x613867dd\n      eq\n      tag_5\n      jumpi\n      dup1\n      0x8da5cb5b\n      eq\n      tag_6\n      jumpi\n    tag_2:\n      revert(0x00, 0x00)\n        /* \"submissions/Zora/Day10Activity Tracker.sol\":509:557  mapping(address => uint256) public totalWorkouts */\n    tag_3:\n      tag_12\n      0x04\n      dup1\n      calldatasize\n      sub\n      dup2\n      add\n      swap1\n      tag_13\n      swap2\n      swap1\n      tag_14\n      jump\t// in\n    tag_13:\n      tag_15\n      jump\t// in\n    tag_12:\n      mload(0x40)\n      tag_16\n      swap2\n      swap1\n      tag_17\n      jump\t// in\n    tag_16:\n      mload(0x40)\n      dup1\n      swap2\n      sub\n      swap1\n      return\n        /* \"submissions/Zora/Day10Activity Tracker.sol\":384:435  mapping(address => UserProfile) public userProfiles */\n    tag_4:\n      tag_18\n      0x04\n      dup1\n      calldatasize\n      sub\n      dup2\n      add\n      swap1\n      tag_19\n      swap2\n      swap1\n      tag_14\n      jump\t// in\n    tag_19:\n      tag_20\n      jump\t// in\n    tag_18:\n      mload(0x40)\n      tag_21\n      swap4\n      swap3\n      swap2\n      swap1\n      tag_22\n      jump\t// in\n    tag_21:\n      mload(0x40)\n      dup1\n      swap2\n      sub\n      swap1\n      return\n        /* \"submissions/Zora/Day10Activity Tracker.sol\":3335:3469  function getUserWorkoutCount() public view onlyRegistered returns (uint256){... */\n    tag_5:\n      tag_23\n      tag_24\n      jump\t// in\n    tag_23:\n      mload(0x40)\n      tag_25\n      swap2\n      swap1\n      tag_17\n      jump\t// in\n    tag_25:\n      mload(0x40)\n      dup1\n      swap2\n      sub\n      swap1\n      return\n        /* \"submissions/Zora/Day10Activity Tracker.sol\":96:116  address public owner */\n    tag_6:\n      tag_26\n      tag_27\n      jump\t// in\n    tag_26:\n      mload(0x40)\n      tag_28\n      swap2\n      swap1\n      tag_29\n      jump\t// in\n    tag_28:\n      mload(0x40)\n      dup1\n      swap2\n      sub\n      swap1\n      return\n        /* \"submissions/Zora/Day10Activity Tracker.sol\":564:612  mapping(address => uint256) public totalDistance */\n    tag_7:\n      tag_30\n      0x04\n      dup1\n      calldatasize\n      sub\n      dup2\n      add\n      swap1\n      tag_31\n      swap2\n      swap1\n      tag_14\n      jump\t// in\n    tag_31:\n      tag_32\n      jump\t// in\n    tag_30:\n      mload(0x40)\n      tag_33\n      swap2\n      swap1\n      tag_17\n      jump\t// in\n    tag_33:\n      mload(0x40)\n      dup1\n      swap2\n      sub\n      swap1\n      return\n        /* \"submissions/Zora/Day10Activity Tracker.sol\":2127:3327  function logWorkout(... */\n    tag_8:\n      tag_34\n      0x04\n      dup1\n      calldatasize\n      sub\n      dup2\n      add\n      swap1\n      tag_35\n      swap2\n      swap1\n      tag_36\n      jump\t// in\n    tag_35:\n      tag_37\n      jump\t// in\n    tag_34:\n      stop\n        /* \"submissions/Zora/Day10Activity Tracker.sol\":1275:1656  function registerUser(string memory _name, uint256 _weight) public {... */\n    tag_9:\n      tag_38\n      0x04\n      dup1\n      calldatasize\n      sub\n      dup2\n      add\n      swap1\n      tag_39\n      swap2\n      swap1\n      tag_40\n      jump\t// in\n    tag_39:\n      tag_41\n      jump\t// in\n    tag_38:\n      stop\n        /* \"submissions/Zora/Day10Activity Tracker.sol\":1664:2119  function updateWeight(uint256 _newWeight) public onlyRegistered{... */\n    tag_10:\n      tag_42\n      0x04\n      dup1\n      calldatasize\n      sub\n      dup2\n      add\n      swap1\n      tag_43\n      swap2\n      swap1\n      tag_44\n      jump\t// in\n    tag_43:\n      tag_45\n      jump\t// in\n    tag_42:\n      stop\n        /* \"submissions/Zora/Day10Activity Tracker.sol\":509:557  mapping(address => uint256) public totalWorkouts */\n    tag_15:\n      mstore(0x20, 0x03)\n      dup1\n      0x00\n      mstore\n      keccak256(0x00, 0x40)\n      0x00\n      swap2\n      pop\n      swap1\n      pop\n      sload\n      dup2\n      jump\t// out\n        /* \"submissions/Zora/Day10Activity Tracker.sol\":384:435  mapping(address => UserProfile) public userProfiles */\n    tag_20:\n      mstore(0x20, 0x01)\n      dup1\n      0x00\n      mstore\n      keccak256(0x00, 0x40)\n      0x00\n      swap2\n      pop\n      swap1\n      pop\n      dup1\n      0x00\n      add\n      dup1\n      sload\n      tag_46\n      swap1\n      tag_47\n      jump\t// in\n    tag_46:\n      dup1\n      0x1f\n      add\n      0x20\n      dup1\n      swap2\n      div\n      mul\n      0x20\n      add\n      mload(0x40)\n      swap1\n      dup2\n      add\n      0x40\n      mstore\n      dup1\n      swap3\n      swap2\n      swap1\n      dup2\n      dup2\n      mstore\n      0x20\n      add\n      dup3\n      dup1\n      sload\n      tag_48\n      swap1\n      tag_47\n      jump\t// in\n    tag_48:\n      dup1\n      iszero\n      tag_49\n      jumpi\n      dup1\n      0x1f\n      lt\n      tag_50\n      jumpi\n      0x0100\n      dup1\n      dup4\n      sload\n      div\n      mul\n      dup4\n      mstore\n      swap2\n      0x20\n      add\n      swap2\n      jump(tag_49)\n    tag_50:\n      dup3\n      add\n      swap2\n      swap1\n      0x00\n      mstore\n      keccak256(0x00, 0x20)\n      swap1\n    tag_51:\n      dup2\n      sload\n      dup2\n      mstore\n      swap1\n      0x01\n      add\n      swap1\n      0x20\n      add\n      dup1\n      dup4\n      gt\n      tag_51\n      jumpi\n      dup3\n      swap1\n      sub\n      0x1f\n      and\n      dup3\n      add\n      swap2\n    tag_49:\n      pop\n      pop\n      pop\n      pop\n      pop\n      swap1\n      dup1\n      0x01\n      add\n      sload\n      swap1\n      dup1\n      0x02\n      add\n      0x00\n      swap1\n      sload\n      swap1\n      0x0100\n      exp\n      swap1\n      div\n      0xff\n      and\n      swap1\n      pop\n      dup4\n      jump\t// out\n        /* \"submissions/Zora/Day10Activity Tracker.sol\":3335:3469  function getUserWorkoutCount() public view onlyRegistered returns (uint256){... */\n    tag_24:\n        /* \"submissions/Zora/Day10Activity Tracker.sol\":3402:3409  uint256 */\n      0x00\n        /* \"submissions/Zora/Day10Activity Tracker.sol\":1186:1198  userProfiles */\n      0x01\n        /* \"submissions/Zora/Day10Activity Tracker.sol\":1186:1210  userProfiles[msg.sender] */\n      0x00\n        /* \"submissions/Zora/Day10Activity Tracker.sol\":1199:1209  msg.sender */\n      caller\n        /* \"submissions/Zora/Day10Activity Tracker.sol\":1186:1210  userProfiles[msg.sender] */\n      0xffffffffffffffffffffffffffffffffffffffff\n      and\n      0xffffffffffffffffffffffffffffffffffffffff\n      and\n      dup2\n      mstore\n      0x20\n      add\n      swap1\n      dup2\n      mstore\n      0x20\n      add\n      0x00\n      keccak256\n        /* \"submissions/Zora/Day10Activity Tracker.sol\":1186:1223  userProfiles[msg.sender].isRegistered */\n      0x02\n      add\n      0x00\n      swap1\n      sload\n      swap1\n      0x0100\n      exp\n      swap1\n      div\n      0xff\n      and\n        /* \"submissions/Zora/Day10Activity Tracker.sol\":1178:1247  require(userProfiles[msg.sender].isRegistered, \"User not registered\") */\n      tag_53\n      jumpi\n      mload(0x40)\n      0x08c379a000000000000000000000000000000000000000000000000000000000\n      dup2\n      mstore\n      0x04\n      add\n      tag_54\n      swap1\n      tag_55\n      jump\t// in\n    tag_54:\n      mload(0x40)\n      dup1\n      swap2\n      sub\n      swap1\n      revert\n    tag_53:\n        /* \"submissions/Zora/Day10Activity Tracker.sol\":3428:3442  workoutHistory */\n      0x02\n        /* \"submissions/Zora/Day10Activity Tracker.sol\":3428:3454  workoutHistory[msg.sender] */\n      0x00\n        /* \"submissions/Zora/Day10Activity Tracker.sol\":3443:3453  msg.sender */\n      caller\n        /* \"submissions/Zora/Day10Activity Tracker.sol\":3428:3454  workoutHistory[msg.sender] */\n      0xffffffffffffffffffffffffffffffffffffffff\n      and\n      0xffffffffffffffffffffffffffffffffffffffff\n      and\n      dup2\n      mstore\n      0x20\n      add\n      swap1\n      dup2\n      mstore\n      0x20\n      add\n      0x00\n      keccak256\n        /* \"submissions/Zora/Day10Activity Tracker.sol\":3428:3461  workoutHistory[msg.sender].length */\n      dup1\n      sload\n      swap1\n      pop\n        /* \"submissions/Zora/Day10Activity Tracker.sol\":3421:3461  return workoutHistory[msg.sender].length */\n      swap1\n      pop\n        /* \"submissions/Zora/Day10Activity Tracker.sol\":3335:3469  function getUserWorkoutCount() public view onlyRegistered returns (uint256){... */\n      swap1\n      jump\t// out\n        /* \"submissions/Zora/Day10Activity Tracker.sol\":96:116  address public owner */\n    tag_27:\n      0x00\n      0x00\n      swap1\n      sload\n      swap1\n      0x0100\n      exp\n      swap1\n      div\n      0xffffffffffffffffffffffffffffffffffffffff\n      and\n      dup2\n      jump\t// out\n        /* \"submissions/Zora/Day10Activity Tracker.sol\":564:612  mapping(address => uint256) public totalDistance */\n    tag_32:\n      mstore(0x20, 0x04)\n      dup1\n      0x00\n      mstore\n      keccak256(0x00, 0x40)\n      0x00\n      swap2\n      pop\n      swap1\n      pop\n      sload\n      dup2\n      jump\t// out\n        /* \"submissions/Zora/Day10Activity Tracker.sol\":2127:3327  function logWorkout(... */\n    tag_37:\n        /* \"submissions/Zora/Day10Activity Tracker.sol\":1186:1198  userProfiles */\n      0x01\n        /* \"submissions/Zora/Day10Activity Tracker.sol\":1186:1210  userProfiles[msg.sender] */\n      0x00\n        /* \"submissions/Zora/Day10Activity Tracker.sol\":1199:1209  msg.sender */\n      caller\n        /* \"submissions/Zora/Day10Activity Tracker.sol\":1186:1210  userProfiles[msg.sender] */\n      0xffffffffffffffffffffffffffffffffffffffff\n      and\n      0xffffffffffffffffffffffffffffffffffffffff\n      and\n      dup2\n      mstore\n      0x20\n      add\n      swap1\n      dup2\n      mstore\n      0x20\n      add\n      0x00\n      keccak256\n        /* \"submissions/Zora/Day10Activity Tracker.sol\":1186:1223  userProfiles[msg.sender].isRegistered */\n      0x02\n      add\n      0x00\n      swap1\n      sload\n      swap1\n      0x0100\n      exp\n      swap1\n      div\n      0xff\n      and\n        /* \"submissions/Zora/Day10Activity Tracker.sol\":1178:1247  require(userProfiles[msg.sender].isRegistered, \"User not registered\") */\n      tag_58\n      jumpi\n      mload(0x40)\n      0x08c379a000000000000000000000000000000000000000000000000000000000\n      dup2\n      mstore\n      0x04\n      add\n      tag_59\n      swap1\n      tag_55\n      jump\t// in\n    tag_59:\n      mload(0x40)\n      dup1\n      swap2\n      sub\n      swap1\n      revert\n    tag_58:\n        /* \"submissions/Zora/Day10Activity Tracker.sol\":2280:2313  WorkoutActivity memory newWorkout */\n      0x00\n        /* \"submissions/Zora/Day10Activity Tracker.sol\":2316:2498  WorkoutActivity({... */\n      mload(0x40)\n      dup1\n      0x80\n      add\n      0x40\n      mstore\n      dup1\n        /* \"submissions/Zora/Day10Activity Tracker.sol\":2361:2374  _activityType */\n      dup6\n        /* \"submissions/Zora/Day10Activity Tracker.sol\":2316:2498  WorkoutActivity({... */\n      dup2\n      mstore\n      0x20\n      add\n        /* \"submissions/Zora/Day10Activity Tracker.sol\":2399:2408  _duration */\n      dup5\n        /* \"submissions/Zora/Day10Activity Tracker.sol\":2316:2498  WorkoutActivity({... */\n      dup2\n      mstore\n      0x20\n      add\n        /* \"submissions/Zora/Day10Activity Tracker.sol\":2433:2442  _distance */\n      dup4\n        /* \"submissions/Zora/Day10Activity Tracker.sol\":2316:2498  WorkoutActivity({... */\n      dup2\n      mstore\n      0x20\n      add\n        /* \"submissions/Zora/Day10Activity Tracker.sol\":2468:2483  block.timestamp */\n      timestamp\n        /* \"submissions/Zora/Day10Activity Tracker.sol\":2316:2498  WorkoutActivity({... */\n      dup2\n      mstore\n      pop\n        /* \"submissions/Zora/Day10Activity Tracker.sol\":2280:2498  WorkoutActivity memory newWorkout = WorkoutActivity({... */\n      swap1\n      pop\n        /* \"submissions/Zora/Day10Activity Tracker.sol\":2511:2525  workoutHistory */\n      0x02\n        /* \"submissions/Zora/Day10Activity Tracker.sol\":2511:2537  workoutHistory[msg.sender] */\n      0x00\n        /* \"submissions/Zora/Day10Activity Tracker.sol\":2526:2536  msg.sender */\n      caller\n        /* \"submissions/Zora/Day10Activity Tracker.sol\":2511:2537  workoutHistory[msg.sender] */\n      0xffffffffffffffffffffffffffffffffffffffff\n      and\n      0xffffffffffffffffffffffffffffffffffffffff\n      and\n      dup2\n      mstore\n      0x20\n      add\n      swap1\n      dup2\n      mstore\n      0x20\n      add\n      0x00\n      keccak256\n        /* \"submissions/Zora/Day10Activity Tracker.sol\":2543:2553  newWorkout */\n      dup2\n        /* \"submissions/Zora/Day10Activity Tracker.sol\":2511:2554  workoutHistory[msg.sender].push(newWorkout) */\n      swap1\n      dup1\n      0x01\n      dup2\n      sload\n      add\n      dup1\n      dup3\n      sstore\n      dup1\n      swap2\n      pop\n      pop\n      0x01\n      swap1\n      sub\n      swap1\n      0x00\n      mstore\n      keccak256(0x00, 0x20)\n      swap1\n      0x04\n      mul\n      add\n      0x00\n      swap1\n      swap2\n      swap1\n      swap2\n      swap1\n      swap2\n      pop\n      0x00\n      dup3\n      add\n      mload\n      dup2\n      0x00\n      add\n      swap1\n      dup2\n      tag_62\n      swap2\n      swap1\n      tag_63\n      jump\t// in\n    tag_62:\n      pop\n      0x20\n      dup3\n      add\n      mload\n      dup2\n      0x01\n      add\n      sstore\n      0x40\n      dup3\n      add\n      mload\n      dup2\n      0x02\n      add\n      sstore\n      0x60\n      dup3\n      add\n      mload\n      dup2\n      0x03\n      add\n      sstore\n      pop\n      pop\n        /* \"submissions/Zora/Day10Activity Tracker.sol\":2567:2580  totalWorkouts */\n      0x03\n        /* \"submissions/Zora/Day10Activity Tracker.sol\":2567:2592  totalWorkouts[msg.sender] */\n      0x00\n        /* \"submissions/Zora/Day10Activity Tracker.sol\":2581:2591  msg.sender */\n      caller\n        /* \"submissions/Zora/Day10Activity Tracker.sol\":2567:2592  totalWorkouts[msg.sender] */\n      0xffffffffffffffffffffffffffffffffffffffff\n      and\n      0xffffffffffffffffffffffffffffffffffffffff\n      and\n      dup2\n      mstore\n      0x20\n      add\n      swap1\n      dup2\n      mstore\n      0x20\n      add\n      0x00\n      keccak256\n      0x00\n        /* \"submissions/Zora/Day10Activity Tracker.sol\":2567:2594  totalWorkouts[msg.sender]++ */\n      dup2\n      sload\n      dup1\n      swap3\n      swap2\n      swap1\n      tag_64\n      swap1\n      tag_65\n      jump\t// in\n    tag_64:\n      swap2\n      swap1\n      pop\n      sstore\n      pop\n        /* \"submissions/Zora/Day10Activity Tracker.sol\":2634:2643  _distance */\n      dup2\n        /* \"submissions/Zora/Day10Activity Tracker.sol\":2605:2618  totalDistance */\n      0x04\n        /* \"submissions/Zora/Day10Activity Tracker.sol\":2605:2630  totalDistance[msg.sender] */\n      0x00\n        /* \"submissions/Zora/Day10Activity Tracker.sol\":2619:2629  msg.sender */\n      caller\n        /* \"submissions/Zora/Day10Activity Tracker.sol\":2605:2630  totalDistance[msg.sender] */\n      0xffffffffffffffffffffffffffffffffffffffff\n      and\n      0xffffffffffffffffffffffffffffffffffffffff\n      and\n      dup2\n      mstore\n      0x20\n      add\n      swap1\n      dup2\n      mstore\n      0x20\n      add\n      0x00\n      keccak256\n      0x00\n        /* \"submissions/Zora/Day10Activity Tracker.sol\":2605:2643  totalDistance[msg.sender] += _distance */\n      dup3\n      dup3\n      sload\n      tag_66\n      swap2\n      swap1\n      tag_67\n      jump\t// in\n    tag_66:\n      swap3\n      pop\n      pop\n      dup2\n      swap1\n      sstore\n      pop\n        /* \"submissions/Zora/Day10Activity Tracker.sol\":2693:2703  msg.sender */\n      caller\n        /* \"submissions/Zora/Day10Activity Tracker.sol\":2665:2820  WorkoutLogged(... */\n      0xffffffffffffffffffffffffffffffffffffffff\n      and\n      0x587a8c232da0d7b15371c5660ff1fdc5fbaf667e6a6b9b6587a378509038fd73\n        /* \"submissions/Zora/Day10Activity Tracker.sol\":2718:2731  _activityType */\n      dup6\n        /* \"submissions/Zora/Day10Activity Tracker.sol\":2746:2755  _duration */\n      dup6\n        /* \"submissions/Zora/Day10Activity Tracker.sol\":2770:2779  _distance */\n      dup6\n        /* \"submissions/Zora/Day10Activity Tracker.sol\":2794:2809  block.timestamp */\n      timestamp\n        /* \"submissions/Zora/Day10Activity Tracker.sol\":2665:2820  WorkoutLogged(... */\n      mload(0x40)\n      tag_68\n      swap5\n      swap4\n      swap3\n      swap2\n      swap1\n      tag_69\n      jump\t// in\n    tag_68:\n      mload(0x40)\n      dup1\n      swap2\n      sub\n      swap1\n      log2\n        /* \"submissions/Zora/Day10Activity Tracker.sol\":2866:2868  10 */\n      0x0a\n        /* \"submissions/Zora/Day10Activity Tracker.sol\":2837:2850  totalWorkouts */\n      0x03\n        /* \"submissions/Zora/Day10Activity Tracker.sol\":2837:2862  totalWorkouts[msg.sender] */\n      0x00\n        /* \"submissions/Zora/Day10Activity Tracker.sol\":2851:2861  msg.sender */\n      caller\n        /* \"submissions/Zora/Day10Activity Tracker.sol\":2837:2862  totalWorkouts[msg.sender] */\n      0xffffffffffffffffffffffffffffffffffffffff\n      and\n      0xffffffffffffffffffffffffffffffffffffffff\n      and\n      dup2\n      mstore\n      0x20\n      add\n      swap1\n      dup2\n      mstore\n      0x20\n      add\n      0x00\n      keccak256\n      sload\n        /* \"submissions/Zora/Day10Activity Tracker.sol\":2837:2868  totalWorkouts[msg.sender] == 10 */\n      sub\n        /* \"submissions/Zora/Day10Activity Tracker.sol\":2833:3117  if (totalWorkouts[msg.sender] == 10){... */\n      tag_70\n      jumpi\n        /* \"submissions/Zora/Day10Activity Tracker.sol\":2907:2917  msg.sender */\n      caller\n        /* \"submissions/Zora/Day10Activity Tracker.sol\":2889:2960  MilestoneAchieved(msg.sender, \"10 Workouts Completed\", block.timestamp) */\n      0xffffffffffffffffffffffffffffffffffffffff\n      and\n      0x8e330a58901ae7dba0b65f495856eab3fc73fc6ceca3dd7fbd2f4f9d14876e37\n        /* \"submissions/Zora/Day10Activity Tracker.sol\":2944:2959  block.timestamp */\n      timestamp\n        /* \"submissions/Zora/Day10Activity Tracker.sol\":2889:2960  MilestoneAchieved(msg.sender, \"10 Workouts Completed\", block.timestamp) */\n      mload(0x40)\n      tag_71\n      swap2\n      swap1\n      tag_72\n      jump\t// in\n    tag_71:\n      mload(0x40)\n      dup1\n      swap2\n      sub\n      swap1\n      log2\n        /* \"submissions/Zora/Day10Activity Tracker.sol\":2833:3117  if (totalWorkouts[msg.sender] == 10){... */\n      jump(tag_73)\n    tag_70:\n        /* \"submissions/Zora/Day10Activity Tracker.sol\":3011:3013  50 */\n      0x32\n        /* \"submissions/Zora/Day10Activity Tracker.sol\":2982:2995  totalWorkouts */\n      0x03\n        /* \"submissions/Zora/Day10Activity Tracker.sol\":2982:3007  totalWorkouts[msg.sender] */\n      0x00\n        /* \"submissions/Zora/Day10Activity Tracker.sol\":2996:3006  msg.sender */\n      caller\n        /* \"submissions/Zora/Day10Activity Tracker.sol\":2982:3007  totalWorkouts[msg.sender] */\n      0xffffffffffffffffffffffffffffffffffffffff\n      and\n      0xffffffffffffffffffffffffffffffffffffffff\n      and\n      dup2\n      mstore\n      0x20\n      add\n      swap1\n      dup2\n      mstore\n      0x20\n      add\n      0x00\n      keccak256\n      sload\n        /* \"submissions/Zora/Day10Activity Tracker.sol\":2982:3013  totalWorkouts[msg.sender] == 50 */\n      sub\n        /* \"submissions/Zora/Day10Activity Tracker.sol\":2978:3117  if (totalWorkouts[msg.sender] == 50){... */\n      tag_74\n      jumpi\n        /* \"submissions/Zora/Day10Activity Tracker.sol\":3052:3062  msg.sender */\n      caller\n        /* \"submissions/Zora/Day10Activity Tracker.sol\":3034:3105  MilestoneAchieved(msg.sender, \"50 Workouts Completed\", block.timestamp) */\n      0xffffffffffffffffffffffffffffffffffffffff\n      and\n      0x8e330a58901ae7dba0b65f495856eab3fc73fc6ceca3dd7fbd2f4f9d14876e37\n        /* \"submissions/Zora/Day10Activity Tracker.sol\":3089:3104  block.timestamp */\n      timestamp\n        /* \"submissions/Zora/Day10Activity Tracker.sol\":3034:3105  MilestoneAchieved(msg.sender, \"50 Workouts Completed\", block.timestamp) */\n      mload(0x40)\n      tag_75\n      swap2\n      swap1\n      tag_76\n      jump\t// in\n    tag_75:\n      mload(0x40)\n      dup1\n      swap2\n      sub\n      swap1\n      log2\n        /* \"submissions/Zora/Day10Activity Tracker.sol\":2978:3117  if (totalWorkouts[msg.sender] == 50){... */\n    tag_74:\n        /* \"submissions/Zora/Day10Activity Tracker.sol\":2833:3117  if (totalWorkouts[msg.sender] == 10){... */\n    tag_73:\n        /* \"submissions/Zora/Day10Activity Tracker.sol\":3162:3168  100000 */\n      0x0186a0\n        /* \"submissions/Zora/Day10Activity Tracker.sol\":3133:3146  totalDistance */\n      0x04\n        /* \"submissions/Zora/Day10Activity Tracker.sol\":3133:3158  totalDistance[msg.sender] */\n      0x00\n        /* \"submissions/Zora/Day10Activity Tracker.sol\":3147:3157  msg.sender */\n      caller\n        /* \"submissions/Zora/Day10Activity Tracker.sol\":3133:3158  totalDistance[msg.sender] */\n      0xffffffffffffffffffffffffffffffffffffffff\n      and\n      0xffffffffffffffffffffffffffffffffffffffff\n      and\n      dup2\n      mstore\n      0x20\n      add\n      swap1\n      dup2\n      mstore\n      0x20\n      add\n      0x00\n      keccak256\n      sload\n        /* \"submissions/Zora/Day10Activity Tracker.sol\":3133:3168  totalDistance[msg.sender] >= 100000 */\n      lt\n      iszero\n        /* \"submissions/Zora/Day10Activity Tracker.sol\":3133:3218  totalDistance[msg.sender] >= 100000 && totalDistance[msg.sender] - _distance < 100000 */\n      dup1\n      iszero\n      tag_77\n      jumpi\n      pop\n        /* \"submissions/Zora/Day10Activity Tracker.sol\":3212:3218  100000 */\n      0x0186a0\n        /* \"submissions/Zora/Day10Activity Tracker.sol\":3200:3209  _distance */\n      dup3\n        /* \"submissions/Zora/Day10Activity Tracker.sol\":3172:3185  totalDistance */\n      0x04\n        /* \"submissions/Zora/Day10Activity Tracker.sol\":3172:3197  totalDistance[msg.sender] */\n      0x00\n        /* \"submissions/Zora/Day10Activity Tracker.sol\":3186:3196  msg.sender */\n      caller\n        /* \"submissions/Zora/Day10Activity Tracker.sol\":3172:3197  totalDistance[msg.sender] */\n      0xffffffffffffffffffffffffffffffffffffffff\n      and\n      0xffffffffffffffffffffffffffffffffffffffff\n      and\n      dup2\n      mstore\n      0x20\n      add\n      swap1\n      dup2\n      mstore\n      0x20\n      add\n      0x00\n      keccak256\n      sload\n        /* \"submissions/Zora/Day10Activity Tracker.sol\":3172:3209  totalDistance[msg.sender] - _distance */\n      tag_78\n      swap2\n      swap1\n      tag_79\n      jump\t// in\n    tag_78:\n        /* \"submissions/Zora/Day10Activity Tracker.sol\":3172:3218  totalDistance[msg.sender] - _distance < 100000 */\n      lt\n        /* \"submissions/Zora/Day10Activity Tracker.sol\":3133:3218  totalDistance[msg.sender] >= 100000 && totalDistance[msg.sender] - _distance < 100000 */\n    tag_77:\n        /* \"submissions/Zora/Day10Activity Tracker.sol\":3129:3320  if (totalDistance[msg.sender] >= 100000 && totalDistance[msg.sender] - _distance < 100000){... */\n      iszero\n      tag_80\n      jumpi\n        /* \"submissions/Zora/Day10Activity Tracker.sol\":3257:3267  msg.sender */\n      caller\n        /* \"submissions/Zora/Day10Activity Tracker.sol\":3239:3308  MilestoneAchieved(msg.sender, \"100K Total Distance\", block.timestamp) */\n      0xffffffffffffffffffffffffffffffffffffffff\n      and\n      0x8e330a58901ae7dba0b65f495856eab3fc73fc6ceca3dd7fbd2f4f9d14876e37\n        /* \"submissions/Zora/Day10Activity Tracker.sol\":3292:3307  block.timestamp */\n      timestamp\n        /* \"submissions/Zora/Day10Activity Tracker.sol\":3239:3308  MilestoneAchieved(msg.sender, \"100K Total Distance\", block.timestamp) */\n      mload(0x40)\n      tag_81\n      swap2\n      swap1\n      tag_82\n      jump\t// in\n    tag_81:\n      mload(0x40)\n      dup1\n      swap2\n      sub\n      swap1\n      log2\n        /* \"submissions/Zora/Day10Activity Tracker.sol\":3129:3320  if (totalDistance[msg.sender] >= 100000 && totalDistance[msg.sender] - _distance < 100000){... */\n    tag_80:\n        /* \"submissions/Zora/Day10Activity Tracker.sol\":2269:3327  {... */\n      pop\n        /* \"submissions/Zora/Day10Activity Tracker.sol\":2127:3327  function logWorkout(... */\n      pop\n      pop\n      pop\n      jump\t// out\n        /* \"submissions/Zora/Day10Activity Tracker.sol\":1275:1656  function registerUser(string memory _name, uint256 _weight) public {... */\n    tag_41:\n        /* \"submissions/Zora/Day10Activity Tracker.sol\":1362:1374  userProfiles */\n      0x01\n        /* \"submissions/Zora/Day10Activity Tracker.sol\":1362:1386  userProfiles[msg.sender] */\n      0x00\n        /* \"submissions/Zora/Day10Activity Tracker.sol\":1375:1385  msg.sender */\n      caller\n        /* \"submissions/Zora/Day10Activity Tracker.sol\":1362:1386  userProfiles[msg.sender] */\n      0xffffffffffffffffffffffffffffffffffffffff\n      and\n      0xffffffffffffffffffffffffffffffffffffffff\n      and\n      dup2\n      mstore\n      0x20\n      add\n      swap1\n      dup2\n      mstore\n      0x20\n      add\n      0x00\n      keccak256\n        /* \"submissions/Zora/Day10Activity Tracker.sol\":1362:1399  userProfiles[msg.sender].isRegistered */\n      0x02\n      add\n      0x00\n      swap1\n      sload\n      swap1\n      0x0100\n      exp\n      swap1\n      div\n      0xff\n      and\n        /* \"submissions/Zora/Day10Activity Tracker.sol\":1361:1399  !userProfiles[msg.sender].isRegistered */\n      iszero\n        /* \"submissions/Zora/Day10Activity Tracker.sol\":1353:1427  require(!userProfiles[msg.sender].isRegistered, \"User already registered\") */\n      tag_84\n      jumpi\n      mload(0x40)\n      0x08c379a000000000000000000000000000000000000000000000000000000000\n      dup2\n      mstore\n      0x04\n      add\n      tag_85\n      swap1\n      tag_86\n      jump\t// in\n    tag_85:\n      mload(0x40)\n      dup1\n      swap2\n      sub\n      swap1\n      revert\n    tag_84:\n        /* \"submissions/Zora/Day10Activity Tracker.sol\":1467:1580  UserProfile({... */\n      mload(0x40)\n      dup1\n      0x60\n      add\n      0x40\n      mstore\n      dup1\n        /* \"submissions/Zora/Day10Activity Tracker.sol\":1500:1505  _name */\n      dup4\n        /* \"submissions/Zora/Day10Activity Tracker.sol\":1467:1580  UserProfile({... */\n      dup2\n      mstore\n      0x20\n      add\n        /* \"submissions/Zora/Day10Activity Tracker.sol\":1528:1535  _weight */\n      dup3\n        /* \"submissions/Zora/Day10Activity Tracker.sol\":1467:1580  UserProfile({... */\n      dup2\n      mstore\n      0x20\n      add\n        /* \"submissions/Zora/Day10Activity Tracker.sol\":1564:1568  true */\n      0x01\n        /* \"submissions/Zora/Day10Activity Tracker.sol\":1467:1580  UserProfile({... */\n      iszero\n      iszero\n      dup2\n      mstore\n      pop\n        /* \"submissions/Zora/Day10Activity Tracker.sol\":1440:1452  userProfiles */\n      0x01\n        /* \"submissions/Zora/Day10Activity Tracker.sol\":1440:1464  userProfiles[msg.sender] */\n      0x00\n        /* \"submissions/Zora/Day10Activity Tracker.sol\":1453:1463  msg.sender */\n      caller\n        /* \"submissions/Zora/Day10Activity Tracker.sol\":1440:1464  userProfiles[msg.sender] */\n      0xffffffffffffffffffffffffffffffffffffffff\n      and\n      0xffffffffffffffffffffffffffffffffffffffff\n      and\n      dup2\n      mstore\n      0x20\n      add\n      swap1\n      dup2\n      mstore\n      0x20\n      add\n      0x00\n      keccak256\n        /* \"submissions/Zora/Day10Activity Tracker.sol\":1440:1580  userProfiles[msg.sender] = UserProfile({... */\n      0x00\n      dup3\n      add\n      mload\n      dup2\n      0x00\n      add\n      swap1\n      dup2\n      tag_87\n      swap2\n      swap1\n      tag_63\n      jump\t// in\n    tag_87:\n      pop\n      0x20\n      dup3\n      add\n      mload\n      dup2\n      0x01\n      add\n      sstore\n      0x40\n      dup3\n      add\n      mload\n      dup2\n      0x02\n      add\n      exp(0x0100, 0x00)\n      dup2\n      sload\n      dup2\n      0xff\n      mul\n      not\n      and\n      swap1\n      dup4\n      iszero\n      iszero\n      mul\n      or\n      swap1\n      sstore\n      pop\n      swap1\n      pop\n      pop\n        /* \"submissions/Zora/Day10Activity Tracker.sol\":1613:1623  msg.sender */\n      caller\n        /* \"submissions/Zora/Day10Activity Tracker.sol\":1598:1648  UserRegistered(msg.sender, _name, block.timestamp) */\n      0xffffffffffffffffffffffffffffffffffffffff\n      and\n      0x89105a1c6a3c2fbd471255c66a31ccab604af5697f67d7e2e9a0028c5e4dbd91\n        /* \"submissions/Zora/Day10Activity Tracker.sol\":1625:1630  _name */\n      dup4\n        /* \"submissions/Zora/Day10Activity Tracker.sol\":1632:1647  block.timestamp */\n      timestamp\n        /* \"submissions/Zora/Day10Activity Tracker.sol\":1598:1648  UserRegistered(msg.sender, _name, block.timestamp) */\n      mload(0x40)\n      tag_88\n      swap3\n      swap2\n      swap1\n      tag_89\n      jump\t// in\n    tag_88:\n      mload(0x40)\n      dup1\n      swap2\n      sub\n      swap1\n      log2\n        /* \"submissions/Zora/Day10Activity Tracker.sol\":1275:1656  function registerUser(string memory _name, uint256 _weight) public {... */\n      pop\n      pop\n      jump\t// out\n        /* \"submissions/Zora/Day10Activity Tracker.sol\":1664:2119  function updateWeight(uint256 _newWeight) public onlyRegistered{... */\n    tag_45:\n        /* \"submissions/Zora/Day10Activity Tracker.sol\":1186:1198  userProfiles */\n      0x01\n        /* \"submissions/Zora/Day10Activity Tracker.sol\":1186:1210  userProfiles[msg.sender] */\n      0x00\n        /* \"submissions/Zora/Day10Activity Tracker.sol\":1199:1209  msg.sender */\n      caller\n        /* \"submissions/Zora/Day10Activity Tracker.sol\":1186:1210  userProfiles[msg.sender] */\n      0xffffffffffffffffffffffffffffffffffffffff\n      and\n      0xffffffffffffffffffffffffffffffffffffffff\n      and\n      dup2\n      mstore\n      0x20\n      add\n      swap1\n      dup2\n      mstore\n      0x20\n      add\n      0x00\n      keccak256\n        /* \"submissions/Zora/Day10Activity Tracker.sol\":1186:1223  userProfiles[msg.sender].isRegistered */\n      0x02\n      add\n      0x00\n      swap1\n      sload\n      swap1\n      0x0100\n      exp\n      swap1\n      div\n      0xff\n      and\n        /* \"submissions/Zora/Day10Activity Tracker.sol\":1178:1247  require(userProfiles[msg.sender].isRegistered, \"User not registered\") */\n      tag_91\n      jumpi\n      mload(0x40)\n      0x08c379a000000000000000000000000000000000000000000000000000000000\n      dup2\n      mstore\n      0x04\n      add\n      tag_92\n      swap1\n      tag_55\n      jump\t// in\n    tag_92:\n      mload(0x40)\n      dup1\n      swap2\n      sub\n      swap1\n      revert\n    tag_91:\n        /* \"submissions/Zora/Day10Activity Tracker.sol\":1738:1765  UserProfile storage profile */\n      0x00\n        /* \"submissions/Zora/Day10Activity Tracker.sol\":1768:1780  userProfiles */\n      0x01\n        /* \"submissions/Zora/Day10Activity Tracker.sol\":1768:1792  userProfiles[msg.sender] */\n      0x00\n        /* \"submissions/Zora/Day10Activity Tracker.sol\":1781:1791  msg.sender */\n      caller\n        /* \"submissions/Zora/Day10Activity Tracker.sol\":1768:1792  userProfiles[msg.sender] */\n      0xffffffffffffffffffffffffffffffffffffffff\n      and\n      0xffffffffffffffffffffffffffffffffffffffff\n      and\n      dup2\n      mstore\n      0x20\n      add\n      swap1\n      dup2\n      mstore\n      0x20\n      add\n      0x00\n      keccak256\n        /* \"submissions/Zora/Day10Activity Tracker.sol\":1738:1792  UserProfile storage profile = userProfiles[msg.sender] */\n      swap1\n      pop\n        /* \"submissions/Zora/Day10Activity Tracker.sol\":1822:1829  profile */\n      dup1\n        /* \"submissions/Zora/Day10Activity Tracker.sol\":1822:1836  profile.weight */\n      0x01\n      add\n      sload\n        /* \"submissions/Zora/Day10Activity Tracker.sol\":1809:1819  _newWeight */\n      dup3\n        /* \"submissions/Zora/Day10Activity Tracker.sol\":1809:1836  _newWeight < profile.weight */\n      lt\n        /* \"submissions/Zora/Day10Activity Tracker.sol\":1809:1897  _newWeight < profile.weight && (profile.weight - _newWeight) * 100 / profile.weight >= 5 */\n      dup1\n      iszero\n      tag_94\n      jumpi\n      pop\n        /* \"submissions/Zora/Day10Activity Tracker.sol\":1896:1897  5 */\n      0x05\n        /* \"submissions/Zora/Day10Activity Tracker.sol\":1878:1885  profile */\n      dup2\n        /* \"submissions/Zora/Day10Activity Tracker.sol\":1878:1892  profile.weight */\n      0x01\n      add\n      sload\n        /* \"submissions/Zora/Day10Activity Tracker.sol\":1872:1875  100 */\n      0x64\n        /* \"submissions/Zora/Day10Activity Tracker.sol\":1858:1868  _newWeight */\n      dup5\n        /* \"submissions/Zora/Day10Activity Tracker.sol\":1841:1848  profile */\n      dup5\n        /* \"submissions/Zora/Day10Activity Tracker.sol\":1841:1855  profile.weight */\n      0x01\n      add\n      sload\n        /* \"submissions/Zora/Day10Activity Tracker.sol\":1841:1868  profile.weight - _newWeight */\n      tag_95\n      swap2\n      swap1\n      tag_79\n      jump\t// in\n    tag_95:\n        /* \"submissions/Zora/Day10Activity Tracker.sol\":1840:1875  (profile.weight - _newWeight) * 100 */\n      tag_96\n      swap2\n      swap1\n      tag_97\n      jump\t// in\n    tag_96:\n        /* \"submissions/Zora/Day10Activity Tracker.sol\":1840:1892  (profile.weight - _newWeight) * 100 / profile.weight */\n      tag_98\n      swap2\n      swap1\n      tag_99\n      jump\t// in\n    tag_98:\n        /* \"submissions/Zora/Day10Activity Tracker.sol\":1840:1897  (profile.weight - _newWeight) * 100 / profile.weight >= 5 */\n      lt\n      iszero\n        /* \"submissions/Zora/Day10Activity Tracker.sol\":1809:1897  _newWeight < profile.weight && (profile.weight - _newWeight) * 100 / profile.weight >= 5 */\n    tag_94:\n        /* \"submissions/Zora/Day10Activity Tracker.sol\":1805:1999  if (_newWeight < profile.weight && (profile.weight - _newWeight) * 100 / profile.weight >= 5){... */\n      iszero\n      tag_100\n      jumpi\n        /* \"submissions/Zora/Day10Activity Tracker.sol\":1936:1946  msg.sender */\n      caller\n        /* \"submissions/Zora/Day10Activity Tracker.sol\":1918:1987  MilestoneAchieved(msg.sender, \"Weight Goal Reached\", block.timestamp) */\n      0xffffffffffffffffffffffffffffffffffffffff\n      and\n      0x8e330a58901ae7dba0b65f495856eab3fc73fc6ceca3dd7fbd2f4f9d14876e37\n        /* \"submissions/Zora/Day10Activity Tracker.sol\":1971:1986  block.timestamp */\n      timestamp\n        /* \"submissions/Zora/Day10Activity Tracker.sol\":1918:1987  MilestoneAchieved(msg.sender, \"Weight Goal Reached\", block.timestamp) */\n      mload(0x40)\n      tag_101\n      swap2\n      swap1\n      tag_102\n      jump\t// in\n    tag_101:\n      mload(0x40)\n      dup1\n      swap2\n      sub\n      swap1\n      log2\n        /* \"submissions/Zora/Day10Activity Tracker.sol\":1805:1999  if (_newWeight < profile.weight && (profile.weight - _newWeight) * 100 / profile.weight >= 5){... */\n    tag_100:\n        /* \"submissions/Zora/Day10Activity Tracker.sol\":2028:2038  _newWeight */\n      dup2\n        /* \"submissions/Zora/Day10Activity Tracker.sol\":2011:2018  profile */\n      dup2\n        /* \"submissions/Zora/Day10Activity Tracker.sol\":2011:2025  profile.weight */\n      0x01\n      add\n        /* \"submissions/Zora/Day10Activity Tracker.sol\":2011:2038  profile.weight = _newWeight */\n      dup2\n      swap1\n      sstore\n      pop\n        /* \"submissions/Zora/Day10Activity Tracker.sol\":2071:2081  msg.sender */\n      caller\n        /* \"submissions/Zora/Day10Activity Tracker.sol\":2056:2111  ProfileUpdated(msg.sender, _newWeight, block.timestamp) */\n      0xffffffffffffffffffffffffffffffffffffffff\n      and\n      0x05826151879c9a557068ba4e389ba7f00512db472cc81778ea86696b2b0f5afd\n        /* \"submissions/Zora/Day10Activity Tracker.sol\":2083:2093  _newWeight */\n      dup4\n        /* \"submissions/Zora/Day10Activity Tracker.sol\":2095:2110  block.timestamp */\n      timestamp\n        /* \"submissions/Zora/Day10Activity Tracker.sol\":2056:2111  ProfileUpdated(msg.sender, _newWeight, block.timestamp) */\n      mload(0x40)\n      tag_103\n      swap3\n      swap2\n      swap1\n      tag_104\n      jump\t// in\n    tag_103:\n      mload(0x40)\n      dup1\n      swap2\n      sub\n      swap1\n      log2\n        /* \"submissions/Zora/Day10Activity Tracker.sol\":1727:2119  {... */\n      pop\n        /* \"submissions/Zora/Day10Activity Tracker.sol\":1664:2119  function updateWeight(uint256 _newWeight) public onlyRegistered{... */\n      pop\n      jump\t// out\n        /* \"#utility.yul\":7:82   */\n    tag_105:\n        /* \"#utility.yul\":40:46   */\n      0x00\n        /* \"#utility.yul\":73:75   */\n      0x40\n        /* \"#utility.yul\":67:76   */\n      mload\n        /* \"#utility.yul\":57:76   */\n      swap1\n      pop\n        /* \"#utility.yul\":7:82   */\n      swap1\n      jump\t// out\n        /* \"#utility.yul\":88:205   */\n    tag_106:\n        /* \"#utility.yul\":197:198   */\n      0x00\n        /* \"#utility.yul\":194:195   */\n      0x00\n        /* \"#utility.yul\":187:199   */\n      revert\n        /* \"#utility.yul\":211:328   */\n    tag_107:\n        /* \"#utility.yul\":320:321   */\n      0x00\n        /* \"#utility.yul\":317:318   */\n      0x00\n        /* \"#utility.yul\":310:322   */\n      revert\n        /* \"#utility.yul\":334:460   */\n    tag_108:\n        /* \"#utility.yul\":371:378   */\n      0x00\n        /* \"#utility.yul\":411:453   */\n      0xffffffffffffffffffffffffffffffffffffffff\n        /* \"#utility.yul\":404:409   */\n      dup3\n        /* \"#utility.yul\":400:454   */\n      and\n        /* \"#utility.yul\":389:454   */\n      swap1\n      pop\n        /* \"#utility.yul\":334:460   */\n      swap2\n      swap1\n      pop\n      jump\t// out\n        /* \"#utility.yul\":466:562   */\n    tag_109:\n        /* \"#utility.yul\":503:510   */\n      0x00\n        /* \"#utility.yul\":532:556   */\n      tag_169\n        /* \"#utility.yul\":550:555   */\n      dup3\n        /* \"#utility.yul\":532:556   */\n      tag_108\n      jump\t// in\n    tag_169:\n        /* \"#utility.yul\":521:556   */\n      swap1\n      pop\n        /* \"#utility.yul\":466:562   */\n      swap2\n      swap1\n      pop\n      jump\t// out\n        /* \"#utility.yul\":568:690   */\n    tag_110:\n        /* \"#utility.yul\":641:665   */\n      tag_171\n        /* \"#utility.yul\":659:664   */\n      dup2\n        /* \"#utility.yul\":641:665   */\n      tag_109\n      jump\t// in\n    tag_171:\n        /* \"#utility.yul\":634:639   */\n      dup2\n        /* \"#utility.yul\":631:666   */\n      eq\n        /* \"#utility.yul\":621:684   */\n      tag_172\n      jumpi\n        /* \"#utility.yul\":680:681   */\n      0x00\n        /* \"#utility.yul\":677:678   */\n      0x00\n        /* \"#utility.yul\":670:682   */\n      revert\n        /* \"#utility.yul\":621:684   */\n    tag_172:\n        /* \"#utility.yul\":568:690   */\n      pop\n      jump\t// out\n        /* \"#utility.yul\":696:835   */\n    tag_111:\n        /* \"#utility.yul\":742:747   */\n      0x00\n        /* \"#utility.yul\":780:786   */\n      dup2\n        /* \"#utility.yul\":767:787   */\n      calldataload\n        /* \"#utility.yul\":758:787   */\n      swap1\n      pop\n        /* \"#utility.yul\":796:829   */\n      tag_174\n        /* \"#utility.yul\":823:828   */\n      dup2\n        /* \"#utility.yul\":796:829   */\n      tag_110\n      jump\t// in\n    tag_174:\n        /* \"#utility.yul\":696:835   */\n      swap3\n      swap2\n      pop\n      pop\n      jump\t// out\n        /* \"#utility.yul\":841:1170   */\n    tag_14:\n        /* \"#utility.yul\":900:906   */\n      0x00\n        /* \"#utility.yul\":949:951   */\n      0x20\n        /* \"#utility.yul\":937:946   */\n      dup3\n        /* \"#utility.yul\":928:935   */\n      dup5\n        /* \"#utility.yul\":924:947   */\n      sub\n        /* \"#utility.yul\":920:952   */\n      slt\n        /* \"#utility.yul\":917:1036   */\n      iszero\n      tag_176\n      jumpi\n        /* \"#utility.yul\":955:1034   */\n      tag_177\n      tag_106\n      jump\t// in\n    tag_177:\n        /* \"#utility.yul\":917:1036   */\n    tag_176:\n        /* \"#utility.yul\":1075:1076   */\n      0x00\n        /* \"#utility.yul\":1100:1153   */\n      tag_178\n        /* \"#utility.yul\":1145:1152   */\n      dup5\n        /* \"#utility.yul\":1136:1142   */\n      dup3\n        /* \"#utility.yul\":1125:1134   */\n      dup6\n        /* \"#utility.yul\":1121:1143   */\n      add\n        /* \"#utility.yul\":1100:1153   */\n      tag_111\n      jump\t// in\n    tag_178:\n        /* \"#utility.yul\":1090:1153   */\n      swap2\n      pop\n        /* \"#utility.yul\":1046:1163   */\n      pop\n        /* \"#utility.yul\":841:1170   */\n      swap3\n      swap2\n      pop\n      pop\n      jump\t// out\n        /* \"#utility.yul\":1176:1253   */\n    tag_112:\n        /* \"#utility.yul\":1213:1220   */\n      0x00\n        /* \"#utility.yul\":1242:1247   */\n      dup2\n        /* \"#utility.yul\":1231:1247   */\n      swap1\n      pop\n        /* \"#utility.yul\":1176:1253   */\n      swap2\n      swap1\n      pop\n      jump\t// out\n        /* \"#utility.yul\":1259:1377   */\n    tag_113:\n        /* \"#utility.yul\":1346:1370   */\n      tag_181\n        /* \"#utility.yul\":1364:1369   */\n      dup2\n        /* \"#utility.yul\":1346:1370   */\n      tag_112\n      jump\t// in\n    tag_181:\n        /* \"#utility.yul\":1341:1344   */\n      dup3\n        /* \"#utility.yul\":1334:1371   */\n      mstore\n        /* \"#utility.yul\":1259:1377   */\n      pop\n      pop\n      jump\t// out\n        /* \"#utility.yul\":1383:1605   */\n    tag_17:\n        /* \"#utility.yul\":1476:1480   */\n      0x00\n        /* \"#utility.yul\":1514:1516   */\n      0x20\n        /* \"#utility.yul\":1503:1512   */\n      dup3\n        /* \"#utility.yul\":1499:1517   */\n      add\n        /* \"#utility.yul\":1491:1517   */\n      swap1\n      pop\n        /* \"#utility.yul\":1527:1598   */\n      tag_183\n        /* \"#utility.yul\":1595:1596   */\n      0x00\n        /* \"#utility.yul\":1584:1593   */\n      dup4\n        /* \"#utility.yul\":1580:1597   */\n      add\n        /* \"#utility.yul\":1571:1577   */\n      dup5\n        /* \"#utility.yul\":1527:1598   */\n      tag_113\n      jump\t// in\n    tag_183:\n        /* \"#utility.yul\":1383:1605   */\n      swap3\n      swap2\n      pop\n      pop\n      jump\t// out\n        /* \"#utility.yul\":1611:1710   */\n    tag_114:\n        /* \"#utility.yul\":1663:1669   */\n      0x00\n        /* \"#utility.yul\":1697:1702   */\n      dup2\n        /* \"#utility.yul\":1691:1703   */\n      mload\n        /* \"#utility.yul\":1681:1703   */\n      swap1\n      pop\n        /* \"#utility.yul\":1611:1710   */\n      swap2\n      swap1\n      pop\n      jump\t// out\n        /* \"#utility.yul\":1716:1885   */\n    tag_115:\n        /* \"#utility.yul\":1800:1811   */\n      0x00\n        /* \"#utility.yul\":1834:1840   */\n      dup3\n        /* \"#utility.yul\":1829:1832   */\n      dup3\n        /* \"#utility.yul\":1822:1841   */\n      mstore\n        /* \"#utility.yul\":1874:1878   */\n      0x20\n        /* \"#utility.yul\":1869:1872   */\n      dup3\n        /* \"#utility.yul\":1865:1879   */\n      add\n        /* \"#utility.yul\":1850:1879   */\n      swap1\n      pop\n        /* \"#utility.yul\":1716:1885   */\n      swap3\n      swap2\n      pop\n      pop\n      jump\t// out\n        /* \"#utility.yul\":1891:2030   */\n    tag_116:\n        /* \"#utility.yul\":1980:1986   */\n      dup3\n        /* \"#utility.yul\":1975:1978   */\n      dup2\n        /* \"#utility.yul\":1970:1973   */\n      dup4\n        /* \"#utility.yul\":1964:1987   */\n      mcopy\n        /* \"#utility.yul\":2021:2022   */\n      0x00\n        /* \"#utility.yul\":2012:2018   */\n      dup4\n        /* \"#utility.yul\":2007:2010   */\n      dup4\n        /* \"#utility.yul\":2003:2019   */\n      add\n        /* \"#utility.yul\":1996:2023   */\n      mstore\n        /* \"#utility.yul\":1891:2030   */\n      pop\n      pop\n      pop\n      jump\t// out\n        /* \"#utility.yul\":2036:2138   */\n    tag_117:\n        /* \"#utility.yul\":2077:2083   */\n      0x00\n        /* \"#utility.yul\":2128:2130   */\n      0x1f\n        /* \"#utility.yul\":2124:2131   */\n      not\n        /* \"#utility.yul\":2119:2121   */\n      0x1f\n        /* \"#utility.yul\":2112:2117   */\n      dup4\n        /* \"#utility.yul\":2108:2122   */\n      add\n        /* \"#utility.yul\":2104:2132   */\n      and\n        /* \"#utility.yul\":2094:2132   */\n      swap1\n      pop\n        /* \"#utility.yul\":2036:2138   */\n      swap2\n      swap1\n      pop\n      jump\t// out\n        /* \"#utility.yul\":2144:2521   */\n    tag_118:\n        /* \"#utility.yul\":2232:2235   */\n      0x00\n        /* \"#utility.yul\":2260:2299   */\n      tag_189\n        /* \"#utility.yul\":2293:2298   */\n      dup3\n        /* \"#utility.yul\":2260:2299   */\n      tag_114\n      jump\t// in\n    tag_189:\n        /* \"#utility.yul\":2315:2386   */\n      tag_190\n        /* \"#utility.yul\":2379:2385   */\n      dup2\n        /* \"#utility.yul\":2374:2377   */\n      dup6\n        /* \"#utility.yul\":2315:2386   */\n      tag_115\n      jump\t// in\n    tag_190:\n        /* \"#utility.yul\":2308:2386   */\n      swap4\n      pop\n        /* \"#utility.yul\":2395:2460   */\n      tag_191\n        /* \"#utility.yul\":2453:2459   */\n      dup2\n        /* \"#utility.yul\":2448:2451   */\n      dup6\n        /* \"#utility.yul\":2441:2445   */\n      0x20\n        /* \"#utility.yul\":2434:2439   */\n      dup7\n        /* \"#utility.yul\":2430:2446   */\n      add\n        /* \"#utility.yul\":2395:2460   */\n      tag_116\n      jump\t// in\n    tag_191:\n        /* \"#utility.yul\":2485:2514   */\n      tag_192\n        /* \"#utility.yul\":2507:2513   */\n      dup2\n        /* \"#utility.yul\":2485:2514   */\n      tag_117\n      jump\t// in\n    tag_192:\n        /* \"#utility.yul\":2480:2483   */\n      dup5\n        /* \"#utility.yul\":2476:2515   */\n      add\n        /* \"#utility.yul\":2469:2515   */\n      swap2\n      pop\n        /* \"#utility.yul\":2236:2521   */\n      pop\n        /* \"#utility.yul\":2144:2521   */\n      swap3\n      swap2\n      pop\n      pop\n      jump\t// out\n        /* \"#utility.yul\":2527:2617   */\n    tag_119:\n        /* \"#utility.yul\":2561:2568   */\n      0x00\n        /* \"#utility.yul\":2604:2609   */\n      dup2\n        /* \"#utility.yul\":2597:2610   */\n      iszero\n        /* \"#utility.yul\":2590:2611   */\n      iszero\n        /* \"#utility.yul\":2579:2611   */\n      swap1\n      pop\n        /* \"#utility.yul\":2527:2617   */\n      swap2\n      swap1\n      pop\n      jump\t// out\n        /* \"#utility.yul\":2623:2732   */\n    tag_120:\n        /* \"#utility.yul\":2704:2725   */\n      tag_195\n        /* \"#utility.yul\":2719:2724   */\n      dup2\n        /* \"#utility.yul\":2704:2725   */\n      tag_119\n      jump\t// in\n    tag_195:\n        /* \"#utility.yul\":2699:2702   */\n      dup3\n        /* \"#utility.yul\":2692:2726   */\n      mstore\n        /* \"#utility.yul\":2623:2732   */\n      pop\n      pop\n      jump\t// out\n        /* \"#utility.yul\":2738:3259   */\n    tag_22:\n        /* \"#utility.yul\":2901:2905   */\n      0x00\n        /* \"#utility.yul\":2939:2941   */\n      0x60\n        /* \"#utility.yul\":2928:2937   */\n      dup3\n        /* \"#utility.yul\":2924:2942   */\n      add\n        /* \"#utility.yul\":2916:2942   */\n      swap1\n      pop\n        /* \"#utility.yul\":2988:2997   */\n      dup2\n        /* \"#utility.yul\":2982:2986   */\n      dup2\n        /* \"#utility.yul\":2978:2998   */\n      sub\n        /* \"#utility.yul\":2974:2975   */\n      0x00\n        /* \"#utility.yul\":2963:2972   */\n      dup4\n        /* \"#utility.yul\":2959:2976   */\n      add\n        /* \"#utility.yul\":2952:2999   */\n      mstore\n        /* \"#utility.yul\":3016:3094   */\n      tag_197\n        /* \"#utility.yul\":3089:3093   */\n      dup2\n        /* \"#utility.yul\":3080:3086   */\n      dup7\n        /* \"#utility.yul\":3016:3094   */\n      tag_118\n      jump\t// in\n    tag_197:\n        /* \"#utility.yul\":3008:3094   */\n      swap1\n      pop\n        /* \"#utility.yul\":3104:3176   */\n      tag_198\n        /* \"#utility.yul\":3172:3174   */\n      0x20\n        /* \"#utility.yul\":3161:3170   */\n      dup4\n        /* \"#utility.yul\":3157:3175   */\n      add\n        /* \"#utility.yul\":3148:3154   */\n      dup6\n        /* \"#utility.yul\":3104:3176   */\n      tag_113\n      jump\t// in\n    tag_198:\n        /* \"#utility.yul\":3186:3252   */\n      tag_199\n        /* \"#utility.yul\":3248:3250   */\n      0x40\n        /* \"#utility.yul\":3237:3246   */\n      dup4\n        /* \"#utility.yul\":3233:3251   */\n      add\n        /* \"#utility.yul\":3224:3230   */\n      dup5\n        /* \"#utility.yul\":3186:3252   */\n      tag_120\n      jump\t// in\n    tag_199:\n        /* \"#utility.yul\":2738:3259   */\n      swap5\n      swap4\n      pop\n      pop\n      pop\n      pop\n      jump\t// out\n        /* \"#utility.yul\":3265:3383   */\n    tag_121:\n        /* \"#utility.yul\":3352:3376   */\n      tag_201\n        /* \"#utility.yul\":3370:3375   */\n      dup2\n        /* \"#utility.yul\":3352:3376   */\n      tag_109\n      jump\t// in\n    tag_201:\n        /* \"#utility.yul\":3347:3350   */\n      dup3\n        /* \"#utility.yul\":3340:3377   */\n      mstore\n        /* \"#utility.yul\":3265:3383   */\n      pop\n      pop\n      jump\t// out\n        /* \"#utility.yul\":3389:3611   */\n    tag_29:\n        /* \"#utility.yul\":3482:3486   */\n      0x00\n        /* \"#utility.yul\":3520:3522   */\n      0x20\n        /* \"#utility.yul\":3509:3518   */\n      dup3\n        /* \"#utility.yul\":3505:3523   */\n      add\n        /* \"#utility.yul\":3497:3523   */\n      swap1\n      pop\n        /* \"#utility.yul\":3533:3604   */\n      tag_203\n        /* \"#utility.yul\":3601:3602   */\n      0x00\n        /* \"#utility.yul\":3590:3599   */\n      dup4\n        /* \"#utility.yul\":3586:3603   */\n      add\n        /* \"#utility.yul\":3577:3583   */\n      dup5\n        /* \"#utility.yul\":3533:3604   */\n      tag_121\n      jump\t// in\n    tag_203:\n        /* \"#utility.yul\":3389:3611   */\n      swap3\n      swap2\n      pop\n      pop\n      jump\t// out\n        /* \"#utility.yul\":3617:3734   */\n    tag_122:\n        /* \"#utility.yul\":3726:3727   */\n      0x00\n        /* \"#utility.yul\":3723:3724   */\n      0x00\n        /* \"#utility.yul\":3716:3728   */\n      revert\n        /* \"#utility.yul\":3740:3857   */\n    tag_123:\n        /* \"#utility.yul\":3849:3850   */\n      0x00\n        /* \"#utility.yul\":3846:3847   */\n      0x00\n        /* \"#utility.yul\":3839:3851   */\n      revert\n        /* \"#utility.yul\":3863:4043   */\n    tag_124:\n        /* \"#utility.yul\":3911:3988   */\n      0x4e487b7100000000000000000000000000000000000000000000000000000000\n        /* \"#utility.yul\":3908:3909   */\n      0x00\n        /* \"#utility.yul\":3901:3989   */\n      mstore\n        /* \"#utility.yul\":4008:4012   */\n      0x41\n        /* \"#utility.yul\":4005:4006   */\n      0x04\n        /* \"#utility.yul\":3998:4013   */\n      mstore\n        /* \"#utility.yul\":4032:4036   */\n      0x24\n        /* \"#utility.yul\":4029:4030   */\n      0x00\n        /* \"#utility.yul\":4022:4037   */\n      revert\n        /* \"#utility.yul\":4049:4330   */\n    tag_125:\n        /* \"#utility.yul\":4132:4159   */\n      tag_208\n        /* \"#utility.yul\":4154:4158   */\n      dup3\n        /* \"#utility.yul\":4132:4159   */\n      tag_117\n      jump\t// in\n    tag_208:\n        /* \"#utility.yul\":4124:4130   */\n      dup2\n        /* \"#utility.yul\":4120:4160   */\n      add\n        /* \"#utility.yul\":4262:4268   */\n      dup2\n        /* \"#utility.yul\":4250:4260   */\n      dup2\n        /* \"#utility.yul\":4247:4269   */\n      lt\n        /* \"#utility.yul\":4226:4244   */\n      0xffffffffffffffff\n        /* \"#utility.yul\":4214:4224   */\n      dup3\n        /* \"#utility.yul\":4211:4245   */\n      gt\n        /* \"#utility.yul\":4208:4270   */\n      or\n        /* \"#utility.yul\":4205:4293   */\n      iszero\n      tag_209\n      jumpi\n        /* \"#utility.yul\":4273:4291   */\n      tag_210\n      tag_124\n      jump\t// in\n    tag_210:\n        /* \"#utility.yul\":4205:4293   */\n    tag_209:\n        /* \"#utility.yul\":4313:4323   */\n      dup1\n        /* \"#utility.yul\":4309:4311   */\n      0x40\n        /* \"#utility.yul\":4302:4324   */\n      mstore\n        /* \"#utility.yul\":4092:4330   */\n      pop\n        /* \"#utility.yul\":4049:4330   */\n      pop\n      pop\n      jump\t// out\n        /* \"#utility.yul\":4336:4465   */\n    tag_126:\n        /* \"#utility.yul\":4370:4376   */\n      0x00\n        /* \"#utility.yul\":4397:4417   */\n      tag_212\n      tag_105\n      jump\t// in\n    tag_212:\n        /* \"#utility.yul\":4387:4417   */\n      swap1\n      pop\n        /* \"#utility.yul\":4426:4459   */\n      tag_213\n        /* \"#utility.yul\":4454:4458   */\n      dup3\n        /* \"#utility.yul\":4446:4452   */\n      dup3\n        /* \"#utility.yul\":4426:4459   */\n      tag_125\n      jump\t// in\n    tag_213:\n        /* \"#utility.yul\":4336:4465   */\n      swap2\n      swap1\n      pop\n      jump\t// out\n        /* \"#utility.yul\":4471:4779   */\n    tag_127:\n        /* \"#utility.yul\":4533:4537   */\n      0x00\n        /* \"#utility.yul\":4623:4641   */\n      0xffffffffffffffff\n        /* \"#utility.yul\":4615:4621   */\n      dup3\n        /* \"#utility.yul\":4612:4642   */\n      gt\n        /* \"#utility.yul\":4609:4665   */\n      iszero\n      tag_215\n      jumpi\n        /* \"#utility.yul\":4645:4663   */\n      tag_216\n      tag_124\n      jump\t// in\n    tag_216:\n        /* \"#utility.yul\":4609:4665   */\n    tag_215:\n        /* \"#utility.yul\":4683:4712   */\n      tag_217\n        /* \"#utility.yul\":4705:4711   */\n      dup3\n        /* \"#utility.yul\":4683:4712   */\n      tag_117\n      jump\t// in\n    tag_217:\n        /* \"#utility.yul\":4675:4712   */\n      swap1\n      pop\n        /* \"#utility.yul\":4767:4771   */\n      0x20\n        /* \"#utility.yul\":4761:4765   */\n      dup2\n        /* \"#utility.yul\":4757:4772   */\n      add\n        /* \"#utility.yul\":4749:4772   */\n      swap1\n      pop\n        /* \"#utility.yul\":4471:4779   */\n      swap2\n      swap1\n      pop\n      jump\t// out\n        /* \"#utility.yul\":4785:4933   */\n    tag_128:\n        /* \"#utility.yul\":4883:4889   */\n      dup3\n        /* \"#utility.yul\":4878:4881   */\n      dup2\n        /* \"#utility.yul\":4873:4876   */\n      dup4\n        /* \"#utility.yul\":4860:4890   */\n      calldatacopy\n        /* \"#utility.yul\":4924:4925   */\n      0x00\n        /* \"#utility.yul\":4915:4921   */\n      dup4\n        /* \"#utility.yul\":4910:4913   */\n      dup4\n        /* \"#utility.yul\":4906:4922   */\n      add\n        /* \"#utility.yul\":4899:4926   */\n      mstore\n        /* \"#utility.yul\":4785:4933   */\n      pop\n      pop\n      pop\n      jump\t// out\n        /* \"#utility.yul\":4939:5364   */\n    tag_129:\n        /* \"#utility.yul\":5017:5022   */\n      0x00\n        /* \"#utility.yul\":5042:5108   */\n      tag_220\n        /* \"#utility.yul\":5058:5107   */\n      tag_221\n        /* \"#utility.yul\":5100:5106   */\n      dup5\n        /* \"#utility.yul\":5058:5107   */\n      tag_127\n      jump\t// in\n    tag_221:\n        /* \"#utility.yul\":5042:5108   */\n      tag_126\n      jump\t// in\n    tag_220:\n        /* \"#utility.yul\":5033:5108   */\n      swap1\n      pop\n        /* \"#utility.yul\":5131:5137   */\n      dup3\n        /* \"#utility.yul\":5124:5129   */\n      dup2\n        /* \"#utility.yul\":5117:5138   */\n      mstore\n        /* \"#utility.yul\":5169:5173   */\n      0x20\n        /* \"#utility.yul\":5162:5167   */\n      dup2\n        /* \"#utility.yul\":5158:5174   */\n      add\n        /* \"#utility.yul\":5207:5210   */\n      dup5\n        /* \"#utility.yul\":5198:5204   */\n      dup5\n        /* \"#utility.yul\":5193:5196   */\n      dup5\n        /* \"#utility.yul\":5189:5205   */\n      add\n        /* \"#utility.yul\":5186:5211   */\n      gt\n        /* \"#utility.yul\":5183:5295   */\n      iszero\n      tag_222\n      jumpi\n        /* \"#utility.yul\":5214:5293   */\n      tag_223\n      tag_123\n      jump\t// in\n    tag_223:\n        /* \"#utility.yul\":5183:5295   */\n    tag_222:\n        /* \"#utility.yul\":5304:5358   */\n      tag_224\n        /* \"#utility.yul\":5351:5357   */\n      dup5\n        /* \"#utility.yul\":5346:5349   */\n      dup3\n        /* \"#utility.yul\":5341:5344   */\n      dup6\n        /* \"#utility.yul\":5304:5358   */\n      tag_128\n      jump\t// in\n    tag_224:\n        /* \"#utility.yul\":5023:5364   */\n      pop\n        /* \"#utility.yul\":4939:5364   */\n      swap4\n      swap3\n      pop\n      pop\n      pop\n      jump\t// out\n        /* \"#utility.yul\":5384:5724   */\n    tag_130:\n        /* \"#utility.yul\":5440:5445   */\n      0x00\n        /* \"#utility.yul\":5489:5492   */\n      dup3\n        /* \"#utility.yul\":5482:5486   */\n      0x1f\n        /* \"#utility.yul\":5474:5480   */\n      dup4\n        /* \"#utility.yul\":5470:5487   */\n      add\n        /* \"#utility.yul\":5466:5493   */\n      slt\n        /* \"#utility.yul\":5456:5578   */\n      tag_226\n      jumpi\n        /* \"#utility.yul\":5497:5576   */\n      tag_227\n      tag_122\n      jump\t// in\n    tag_227:\n        /* \"#utility.yul\":5456:5578   */\n    tag_226:\n        /* \"#utility.yul\":5614:5620   */\n      dup2\n        /* \"#utility.yul\":5601:5621   */\n      calldataload\n        /* \"#utility.yul\":5639:5718   */\n      tag_228\n        /* \"#utility.yul\":5714:5717   */\n      dup5\n        /* \"#utility.yul\":5706:5712   */\n      dup3\n        /* \"#utility.yul\":5699:5703   */\n      0x20\n        /* \"#utility.yul\":5691:5697   */\n      dup7\n        /* \"#utility.yul\":5687:5704   */\n      add\n        /* \"#utility.yul\":5639:5718   */\n      tag_129\n      jump\t// in\n    tag_228:\n        /* \"#utility.yul\":5630:5718   */\n      swap2\n      pop\n        /* \"#utility.yul\":5446:5724   */\n      pop\n        /* \"#utility.yul\":5384:5724   */\n      swap3\n      swap2\n      pop\n      pop\n      jump\t// out\n        /* \"#utility.yul\":5730:5852   */\n    tag_131:\n        /* \"#utility.yul\":5803:5827   */\n      tag_230\n        /* \"#utility.yul\":5821:5826   */\n      dup2\n        /* \"#utility.yul\":5803:5827   */\n      tag_112\n      jump\t// in\n    tag_230:\n        /* \"#utility.yul\":5796:5801   */\n      dup2\n        /* \"#utility.yul\":5793:5828   */\n      eq\n        /* \"#utility.yul\":5783:5846   */\n      tag_231\n      jumpi\n        /* \"#utility.yul\":5842:5843   */\n      0x00\n        /* \"#utility.yul\":5839:5840   */\n      0x00\n        /* \"#utility.yul\":5832:5844   */\n      revert\n        /* \"#utility.yul\":5783:5846   */\n    tag_231:\n        /* \"#utility.yul\":5730:5852   */\n      pop\n      jump\t// out\n        /* \"#utility.yul\":5858:5997   */\n    tag_132:\n        /* \"#utility.yul\":5904:5909   */\n      0x00\n        /* \"#utility.yul\":5942:5948   */\n      dup2\n        /* \"#utility.yul\":5929:5949   */\n      calldataload\n        /* \"#utility.yul\":5920:5949   */\n      swap1\n      pop\n        /* \"#utility.yul\":5958:5991   */\n      tag_233\n        /* \"#utility.yul\":5985:5990   */\n      dup2\n        /* \"#utility.yul\":5958:5991   */\n      tag_131\n      jump\t// in\n    tag_233:\n        /* \"#utility.yul\":5858:5997   */\n      swap3\n      swap2\n      pop\n      pop\n      jump\t// out\n        /* \"#utility.yul\":6003:6802   */\n    tag_36:\n        /* \"#utility.yul\":6090:6096   */\n      0x00\n        /* \"#utility.yul\":6098:6104   */\n      0x00\n        /* \"#utility.yul\":6106:6112   */\n      0x00\n        /* \"#utility.yul\":6155:6157   */\n      0x60\n        /* \"#utility.yul\":6143:6152   */\n      dup5\n        /* \"#utility.yul\":6134:6141   */\n      dup7\n        /* \"#utility.yul\":6130:6153   */\n      sub\n        /* \"#utility.yul\":6126:6158   */\n      slt\n        /* \"#utility.yul\":6123:6242   */\n      iszero\n      tag_235\n      jumpi\n        /* \"#utility.yul\":6161:6240   */\n      tag_236\n      tag_106\n      jump\t// in\n    tag_236:\n        /* \"#utility.yul\":6123:6242   */\n    tag_235:\n        /* \"#utility.yul\":6309:6310   */\n      0x00\n        /* \"#utility.yul\":6298:6307   */\n      dup5\n        /* \"#utility.yul\":6294:6311   */\n      add\n        /* \"#utility.yul\":6281:6312   */\n      calldataload\n        /* \"#utility.yul\":6339:6357   */\n      0xffffffffffffffff\n        /* \"#utility.yul\":6331:6337   */\n      dup2\n        /* \"#utility.yul\":6328:6358   */\n      gt\n        /* \"#utility.yul\":6325:6442   */\n      iszero\n      tag_237\n      jumpi\n        /* \"#utility.yul\":6361:6440   */\n      tag_238\n      tag_107\n      jump\t// in\n    tag_238:\n        /* \"#utility.yul\":6325:6442   */\n    tag_237:\n        /* \"#utility.yul\":6466:6529   */\n      tag_239\n        /* \"#utility.yul\":6521:6528   */\n      dup7\n        /* \"#utility.yul\":6512:6518   */\n      dup3\n        /* \"#utility.yul\":6501:6510   */\n      dup8\n        /* \"#utility.yul\":6497:6519   */\n      add\n        /* \"#utility.yul\":6466:6529   */\n      tag_130\n      jump\t// in\n    tag_239:\n        /* \"#utility.yul\":6456:6529   */\n      swap4\n      pop\n        /* \"#utility.yul\":6252:6539   */\n      pop\n        /* \"#utility.yul\":6578:6580   */\n      0x20\n        /* \"#utility.yul\":6604:6657   */\n      tag_240\n        /* \"#utility.yul\":6649:6656   */\n      dup7\n        /* \"#utility.yul\":6640:6646   */\n      dup3\n        /* \"#utility.yul\":6629:6638   */\n      dup8\n        /* \"#utility.yul\":6625:6647   */\n      add\n        /* \"#utility.yul\":6604:6657   */\n      tag_132\n      jump\t// in\n    tag_240:\n        /* \"#utility.yul\":6594:6657   */\n      swap3\n      pop\n        /* \"#utility.yul\":6549:6667   */\n      pop\n        /* \"#utility.yul\":6706:6708   */\n      0x40\n        /* \"#utility.yul\":6732:6785   */\n      tag_241\n        /* \"#utility.yul\":6777:6784   */\n      dup7\n        /* \"#utility.yul\":6768:6774   */\n      dup3\n        /* \"#utility.yul\":6757:6766   */\n      dup8\n        /* \"#utility.yul\":6753:6775   */\n      add\n        /* \"#utility.yul\":6732:6785   */\n      tag_132\n      jump\t// in\n    tag_241:\n        /* \"#utility.yul\":6722:6785   */\n      swap2\n      pop\n        /* \"#utility.yul\":6677:6795   */\n      pop\n        /* \"#utility.yul\":6003:6802   */\n      swap3\n      pop\n      swap3\n      pop\n      swap3\n      jump\t// out\n        /* \"#utility.yul\":6808:7462   */\n    tag_40:\n        /* \"#utility.yul\":6886:6892   */\n      0x00\n        /* \"#utility.yul\":6894:6900   */\n      0x00\n        /* \"#utility.yul\":6943:6945   */\n      0x40\n        /* \"#utility.yul\":6931:6940   */\n      dup4\n        /* \"#utility.yul\":6922:6929   */\n      dup6\n        /* \"#utility.yul\":6918:6941   */\n      sub\n        /* \"#utility.yul\":6914:6946   */\n      slt\n        /* \"#utility.yul\":6911:7030   */\n      iszero\n      tag_243\n      jumpi\n        /* \"#utility.yul\":6949:7028   */\n      tag_244\n      tag_106\n      jump\t// in\n    tag_244:\n        /* \"#utility.yul\":6911:7030   */\n    tag_243:\n        /* \"#utility.yul\":7097:7098   */\n      0x00\n        /* \"#utility.yul\":7086:7095   */\n      dup4\n        /* \"#utility.yul\":7082:7099   */\n      add\n        /* \"#utility.yul\":7069:7100   */\n      calldataload\n        /* \"#utility.yul\":7127:7145   */\n      0xffffffffffffffff\n        /* \"#utility.yul\":7119:7125   */\n      dup2\n        /* \"#utility.yul\":7116:7146   */\n      gt\n        /* \"#utility.yul\":7113:7230   */\n      iszero\n      tag_245\n      jumpi\n        /* \"#utility.yul\":7149:7228   */\n      tag_246\n      tag_107\n      jump\t// in\n    tag_246:\n        /* \"#utility.yul\":7113:7230   */\n    tag_245:\n        /* \"#utility.yul\":7254:7317   */\n      tag_247\n        /* \"#utility.yul\":7309:7316   */\n      dup6\n        /* \"#utility.yul\":7300:7306   */\n      dup3\n        /* \"#utility.yul\":7289:7298   */\n      dup7\n        /* \"#utility.yul\":7285:7307   */\n      add\n        /* \"#utility.yul\":7254:7317   */\n      tag_130\n      jump\t// in\n    tag_247:\n        /* \"#utility.yul\":7244:7317   */\n      swap3\n      pop\n        /* \"#utility.yul\":7040:7327   */\n      pop\n        /* \"#utility.yul\":7366:7368   */\n      0x20\n        /* \"#utility.yul\":7392:7445   */\n      tag_248\n        /* \"#utility.yul\":7437:7444   */\n      dup6\n        /* \"#utility.yul\":7428:7434   */\n      dup3\n        /* \"#utility.yul\":7417:7426   */\n      dup7\n        /* \"#utility.yul\":7413:7435   */\n      add\n        /* \"#utility.yul\":7392:7445   */\n      tag_132\n      jump\t// in\n    tag_248:\n        /* \"#utility.yul\":7382:7445   */\n      swap2\n      pop\n        /* \"#utility.yul\":7337:7455   */\n      pop\n        /* \"#utility.yul\":6808:7462   */\n      swap3\n      pop\n      swap3\n      swap1\n      pop\n      jump\t// out\n        /* \"#utility.yul\":7468:7797   */\n    tag_44:\n        /* \"#utility.yul\":7527:7533   */\n      0x00\n        /* \"#utility.yul\":7576:7578   */\n      0x20\n        /* \"#utility.yul\":7564:7573   */\n      dup3\n        /* \"#utility.yul\":7555:7562   */\n      dup5\n        /* \"#utility.yul\":7551:7574   */\n      sub\n        /* \"#utility.yul\":7547:7579   */\n      slt\n        /* \"#utility.yul\":7544:7663   */\n      iszero\n      tag_250\n      jumpi\n        /* \"#utility.yul\":7582:7661   */\n      tag_251\n      tag_106\n      jump\t// in\n    tag_251:\n        /* \"#utility.yul\":7544:7663   */\n    tag_250:\n        /* \"#utility.yul\":7702:7703   */\n      0x00\n        /* \"#utility.yul\":7727:7780   */\n      tag_252\n        /* \"#utility.yul\":7772:7779   */\n      dup5\n        /* \"#utility.yul\":7763:7769   */\n      dup3\n        /* \"#utility.yul\":7752:7761   */\n      dup6\n        /* \"#utility.yul\":7748:7770   */\n      add\n        /* \"#utility.yul\":7727:7780   */\n      tag_132\n      jump\t// in\n    tag_252:\n        /* \"#utility.yul\":7717:7780   */\n      swap2\n      pop\n        /* \"#utility.yul\":7673:7790   */\n      pop\n        /* \"#utility.yul\":7468:7797   */\n      swap3\n      swap2\n      pop\n      pop\n      jump\t// out\n        /* \"#utility.yul\":7803:7983   */\n    tag_133:\n        /* \"#utility.yul\":7851:7928   */\n      0x4e487b7100000000000000000000000000000000000000000000000000000000\n        /* \"#utility.yul\":7848:7849   */\n      0x00\n        /* \"#utility.yul\":7841:7929   */\n      mstore\n        /* \"#utility.yul\":7948:7952   */\n      0x22\n        /* \"#utility.yul\":7945:7946   */\n      0x04\n        /* \"#utility.yul\":7938:7953   */\n      mstore\n        /* \"#utility.yul\":7972:7976   */\n      0x24\n        /* \"#utility.yul\":7969:7970   */\n      0x00\n        /* \"#utility.yul\":7962:7977   */\n      revert\n        /* \"#utility.yul\":7989:8309   */\n    tag_47:\n        /* \"#utility.yul\":8033:8039   */\n      0x00\n        /* \"#utility.yul\":8070:8071   */\n      0x02\n        /* \"#utility.yul\":8064:8068   */\n      dup3\n        /* \"#utility.yul\":8060:8072   */\n      div\n        /* \"#utility.yul\":8050:8072   */\n      swap1\n      pop\n        /* \"#utility.yul\":8117:8118   */\n      0x01\n        /* \"#utility.yul\":8111:8115   */\n      dup3\n        /* \"#utility.yul\":8107:8119   */\n      and\n        /* \"#utility.yul\":8138:8156   */\n      dup1\n        /* \"#utility.yul\":8128:8209   */\n      tag_255\n      jumpi\n        /* \"#utility.yul\":8194:8198   */\n      0x7f\n        /* \"#utility.yul\":8186:8192   */\n      dup3\n        /* \"#utility.yul\":8182:8199   */\n      and\n        /* \"#utility.yul\":8172:8199   */\n      swap2\n      pop\n        /* \"#utility.yul\":8128:8209   */\n    tag_255:\n        /* \"#utility.yul\":8256:8258   */\n      0x20\n        /* \"#utility.yul\":8248:8254   */\n      dup3\n        /* \"#utility.yul\":8245:8259   */\n      lt\n        /* \"#utility.yul\":8225:8243   */\n      dup2\n        /* \"#utility.yul\":8222:8260   */\n      sub\n        /* \"#utility.yul\":8219:8303   */\n      tag_256\n      jumpi\n        /* \"#utility.yul\":8275:8293   */\n      tag_257\n      tag_133\n      jump\t// in\n    tag_257:\n        /* \"#utility.yul\":8219:8303   */\n    tag_256:\n        /* \"#utility.yul\":8040:8309   */\n      pop\n        /* \"#utility.yul\":7989:8309   */\n      swap2\n      swap1\n      pop\n      jump\t// out\n        /* \"#utility.yul\":8315:8484   */\n    tag_134:\n        /* \"#utility.yul\":8455:8476   */\n      0x55736572206e6f74207265676973746572656400000000000000000000000000\n        /* \"#utility.yul\":8451:8452   */\n      0x00\n        /* \"#utility.yul\":8443:8449   */\n      dup3\n        /* \"#utility.yul\":8439:8453   */\n      add\n        /* \"#utility.yul\":8432:8477   */\n      mstore\n        /* \"#utility.yul\":8315:8484   */\n      pop\n      jump\t// out\n        /* \"#utility.yul\":8490:8856   */\n    tag_135:\n        /* \"#utility.yul\":8632:8635   */\n      0x00\n        /* \"#utility.yul\":8653:8720   */\n      tag_260\n        /* \"#utility.yul\":8717:8719   */\n      0x13\n        /* \"#utility.yul\":8712:8715   */\n      dup4\n        /* \"#utility.yul\":8653:8720   */\n      tag_115\n      jump\t// in\n    tag_260:\n        /* \"#utility.yul\":8646:8720   */\n      swap2\n      pop\n        /* \"#utility.yul\":8729:8822   */\n      tag_261\n        /* \"#utility.yul\":8818:8821   */\n      dup3\n        /* \"#utility.yul\":8729:8822   */\n      tag_134\n      jump\t// in\n    tag_261:\n        /* \"#utility.yul\":8847:8849   */\n      0x20\n        /* \"#utility.yul\":8842:8845   */\n      dup3\n        /* \"#utility.yul\":8838:8850   */\n      add\n        /* \"#utility.yul\":8831:8850   */\n      swap1\n      pop\n        /* \"#utility.yul\":8490:8856   */\n      swap2\n      swap1\n      pop\n      jump\t// out\n        /* \"#utility.yul\":8862:9281   */\n    tag_55:\n        /* \"#utility.yul\":9028:9032   */\n      0x00\n        /* \"#utility.yul\":9066:9068   */\n      0x20\n        /* \"#utility.yul\":9055:9064   */\n      dup3\n        /* \"#utility.yul\":9051:9069   */\n      add\n        /* \"#utility.yul\":9043:9069   */\n      swap1\n      pop\n        /* \"#utility.yul\":9115:9124   */\n      dup2\n        /* \"#utility.yul\":9109:9113   */\n      dup2\n        /* \"#utility.yul\":9105:9125   */\n      sub\n        /* \"#utility.yul\":9101:9102   */\n      0x00\n        /* \"#utility.yul\":9090:9099   */\n      dup4\n        /* \"#utility.yul\":9086:9103   */\n      add\n        /* \"#utility.yul\":9079:9126   */\n      mstore\n        /* \"#utility.yul\":9143:9274   */\n      tag_263\n        /* \"#utility.yul\":9269:9273   */\n      dup2\n        /* \"#utility.yul\":9143:9274   */\n      tag_135\n      jump\t// in\n    tag_263:\n        /* \"#utility.yul\":9135:9274   */\n      swap1\n      pop\n        /* \"#utility.yul\":8862:9281   */\n      swap2\n      swap1\n      pop\n      jump\t// out\n        /* \"#utility.yul\":9287:9428   */\n    tag_136:\n        /* \"#utility.yul\":9336:9340   */\n      0x00\n        /* \"#utility.yul\":9359:9362   */\n      dup2\n        /* \"#utility.yul\":9351:9362   */\n      swap1\n      pop\n        /* \"#utility.yul\":9382:9385   */\n      dup2\n        /* \"#utility.yul\":9379:9380   */\n      0x00\n        /* \"#utility.yul\":9372:9386   */\n      mstore\n        /* \"#utility.yul\":9416:9420   */\n      0x20\n        /* \"#utility.yul\":9413:9414   */\n      0x00\n        /* \"#utility.yul\":9403:9421   */\n      keccak256\n        /* \"#utility.yul\":9395:9421   */\n      swap1\n      pop\n        /* \"#utility.yul\":9287:9428   */\n      swap2\n      swap1\n      pop\n      jump\t// out\n        /* \"#utility.yul\":9434:9527   */\n    tag_137:\n        /* \"#utility.yul\":9471:9477   */\n      0x00\n        /* \"#utility.yul\":9518:9520   */\n      0x20\n        /* \"#utility.yul\":9513:9515   */\n      0x1f\n        /* \"#utility.yul\":9506:9511   */\n      dup4\n        /* \"#utility.yul\":9502:9516   */\n      add\n        /* \"#utility.yul\":9498:9521   */\n      div\n        /* \"#utility.yul\":9488:9521   */\n      swap1\n      pop\n        /* \"#utility.yul\":9434:9527   */\n      swap2\n      swap1\n      pop\n      jump\t// out\n        /* \"#utility.yul\":9533:9640   */\n    tag_138:\n        /* \"#utility.yul\":9577:9585   */\n      0x00\n        /* \"#utility.yul\":9627:9632   */\n      dup3\n        /* \"#utility.yul\":9621:9625   */\n      dup3\n        /* \"#utility.yul\":9617:9633   */\n      shl\n        /* \"#utility.yul\":9596:9633   */\n      swap1\n      pop\n        /* \"#utility.yul\":9533:9640   */\n      swap3\n      swap2\n      pop\n      pop\n      jump\t// out\n        /* \"#utility.yul\":9646:10039   */\n    tag_139:\n        /* \"#utility.yul\":9715:9721   */\n      0x00\n        /* \"#utility.yul\":9765:9766   */\n      0x08\n        /* \"#utility.yul\":9753:9763   */\n      dup4\n        /* \"#utility.yul\":9749:9767   */\n      mul\n        /* \"#utility.yul\":9788:9885   */\n      tag_268\n        /* \"#utility.yul\":9818:9884   */\n      0xffffffffffffffffffffffffffffffffffffffffffffffffffffffffffffffff\n        /* \"#utility.yul\":9807:9816   */\n      dup3\n        /* \"#utility.yul\":9788:9885   */\n      tag_138\n      jump\t// in\n    tag_268:\n        /* \"#utility.yul\":9906:9945   */\n      tag_269\n        /* \"#utility.yul\":9936:9944   */\n      dup7\n        /* \"#utility.yul\":9925:9934   */\n      dup4\n        /* \"#utility.yul\":9906:9945   */\n      tag_138\n      jump\t// in\n    tag_269:\n        /* \"#utility.yul\":9894:9945   */\n      swap6\n      pop\n        /* \"#utility.yul\":9978:9982   */\n      dup1\n        /* \"#utility.yul\":9974:9983   */\n      not\n        /* \"#utility.yul\":9967:9972   */\n      dup5\n        /* \"#utility.yul\":9963:9984   */\n      and\n        /* \"#utility.yul\":9954:9984   */\n      swap4\n      pop\n        /* \"#utility.yul\":10027:10031   */\n      dup1\n        /* \"#utility.yul\":10017:10025   */\n      dup7\n        /* \"#utility.yul\":10013:10032   */\n      and\n        /* \"#utility.yul\":10006:10011   */\n      dup5\n        /* \"#utility.yul\":10003:10033   */\n      or\n        /* \"#utility.yul\":9993:10033   */\n      swap3\n      pop\n        /* \"#utility.yul\":9722:10039   */\n      pop\n      pop\n        /* \"#utility.yul\":9646:10039   */\n      swap4\n      swap3\n      pop\n      pop\n      pop\n      jump\t// out\n        /* \"#utility.yul\":10045:10105   */\n    tag_140:\n        /* \"#utility.yul\":10073:10076   */\n      0x00\n        /* \"#utility.yul\":10094:10099   */\n      dup2\n        /* \"#utility.yul\":10087:10099   */\n      swap1\n      pop\n        /* \"#utility.yul\":10045:10105   */\n      swap2\n      swap1\n      pop\n      jump\t// out\n        /* \"#utility.yul\":10111:10253   */\n    tag_141:\n        /* \"#utility.yul\":10161:10170   */\n      0x00\n        /* \"#utility.yul\":10194:10247   */\n      tag_272\n        /* \"#utility.yul\":10212:10246   */\n      tag_273\n        /* \"#utility.yul\":10221:10245   */\n      tag_274\n        /* \"#utility.yul\":10239:10244   */\n      dup5\n        /* \"#utility.yul\":10221:10245   */\n      tag_112\n      jump\t// in\n    tag_274:\n        /* \"#utility.yul\":10212:10246   */\n      tag_140\n      jump\t// in\n    tag_273:\n        /* \"#utility.yul\":10194:10247   */\n      tag_112\n      jump\t// in\n    tag_272:\n        /* \"#utility.yul\":10181:10247   */\n      swap1\n      pop\n        /* \"#utility.yul\":10111:10253   */\n      swap2\n      swap1\n      pop\n      jump\t// out\n        /* \"#utility.yul\":10259:10334   */\n    tag_142:\n        /* \"#utility.yul\":10302:10305   */\n      0x00\n        /* \"#utility.yul\":10323:10328   */\n      dup2\n        /* \"#utility.yul\":10316:10328   */\n      swap1\n      pop\n        /* \"#utility.yul\":10259:10334   */\n      swap2\n      swap1\n      pop\n      jump\t// out\n        /* \"#utility.yul\":10340:10609   */\n    tag_143:\n        /* \"#utility.yul\":10450:10489   */\n      tag_277\n        /* \"#utility.yul\":10481:10488   */\n      dup4\n        /* \"#utility.yul\":10450:10489   */\n      tag_141\n      jump\t// in\n    tag_277:\n        /* \"#utility.yul\":10511:10602   */\n      tag_278\n        /* \"#utility.yul\":10560:10601   */\n      tag_279\n        /* \"#utility.yul\":10584:10600   */\n      dup3\n        /* \"#utility.yul\":10560:10601   */\n      tag_142\n      jump\t// in\n    tag_279:\n        /* \"#utility.yul\":10552:10558   */\n      dup5\n        /* \"#utility.yul\":10545:10549   */\n      dup5\n        /* \"#utility.yul\":10539:10550   */\n      sload\n        /* \"#utility.yul\":10511:10602   */\n      tag_139\n      jump\t// in\n    tag_278:\n        /* \"#utility.yul\":10505:10509   */\n      dup3\n        /* \"#utility.yul\":10498:10603   */\n      sstore\n        /* \"#utility.yul\":10416:10609   */\n      pop\n        /* \"#utility.yul\":10340:10609   */\n      pop\n      pop\n      pop\n      jump\t// out\n        /* \"#utility.yul\":10615:10688   */\n    tag_144:\n        /* \"#utility.yul\":10660:10663   */\n      0x00\n        /* \"#utility.yul\":10681:10682   */\n      0x00\n        /* \"#utility.yul\":10674:10682   */\n      swap1\n      pop\n        /* \"#utility.yul\":10615:10688   */\n      swap1\n      jump\t// out\n        /* \"#utility.yul\":10694:10883   */\n    tag_145:\n        /* \"#utility.yul\":10771:10803   */\n      tag_282\n      tag_144\n      jump\t// in\n    tag_282:\n        /* \"#utility.yul\":10812:10877   */\n      tag_283\n        /* \"#utility.yul\":10870:10876   */\n      dup2\n        /* \"#utility.yul\":10862:10868   */\n      dup5\n        /* \"#utility.yul\":10856:10860   */\n      dup5\n        /* \"#utility.yul\":10812:10877   */\n      tag_143\n      jump\t// in\n    tag_283:\n        /* \"#utility.yul\":10747:10883   */\n      pop\n        /* \"#utility.yul\":10694:10883   */\n      pop\n      pop\n      jump\t// out\n        /* \"#utility.yul\":10889:11075   */\n    tag_146:\n        /* \"#utility.yul\":10949:11069   */\n    tag_285:\n        /* \"#utility.yul\":10966:10969   */\n      dup2\n        /* \"#utility.yul\":10959:10964   */\n      dup2\n        /* \"#utility.yul\":10956:10970   */\n      lt\n        /* \"#utility.yul\":10949:11069   */\n      iszero\n      tag_287\n      jumpi\n        /* \"#utility.yul\":11020:11059   */\n      tag_288\n        /* \"#utility.yul\":11057:11058   */\n      0x00\n        /* \"#utility.yul\":11050:11055   */\n      dup3\n        /* \"#utility.yul\":11020:11059   */\n      tag_145\n      jump\t// in\n    tag_288:\n        /* \"#utility.yul\":10993:10994   */\n      0x01\n        /* \"#utility.yul\":10986:10991   */\n      dup2\n        /* \"#utility.yul\":10982:10995   */\n      add\n        /* \"#utility.yul\":10973:10995   */\n      swap1\n      pop\n        /* \"#utility.yul\":10949:11069   */\n      jump(tag_285)\n    tag_287:\n        /* \"#utility.yul\":10889:11075   */\n      pop\n      pop\n      jump\t// out\n        /* \"#utility.yul\":11081:11624   */\n    tag_147:\n        /* \"#utility.yul\":11182:11184   */\n      0x1f\n        /* \"#utility.yul\":11177:11180   */\n      dup3\n        /* \"#utility.yul\":11174:11185   */\n      gt\n        /* \"#utility.yul\":11171:11617   */\n      iszero\n      tag_290\n      jumpi\n        /* \"#utility.yul\":11216:11254   */\n      tag_291\n        /* \"#utility.yul\":11248:11253   */\n      dup2\n        /* \"#utility.yul\":11216:11254   */\n      tag_136\n      jump\t// in\n    tag_291:\n        /* \"#utility.yul\":11300:11329   */\n      tag_292\n        /* \"#utility.yul\":11318:11328   */\n      dup5\n        /* \"#utility.yul\":11300:11329   */\n      tag_137\n      jump\t// in\n    tag_292:\n        /* \"#utility.yul\":11290:11298   */\n      dup2\n        /* \"#utility.yul\":11286:11330   */\n      add\n        /* \"#utility.yul\":11483:11485   */\n      0x20\n        /* \"#utility.yul\":11471:11481   */\n      dup6\n        /* \"#utility.yul\":11468:11486   */\n      lt\n        /* \"#utility.yul\":11465:11514   */\n      iszero\n      tag_293\n      jumpi\n        /* \"#utility.yul\":11504:11512   */\n      dup2\n        /* \"#utility.yul\":11489:11512   */\n      swap1\n      pop\n        /* \"#utility.yul\":11465:11514   */\n    tag_293:\n        /* \"#utility.yul\":11527:11607   */\n      tag_294\n        /* \"#utility.yul\":11583:11605   */\n      tag_295\n        /* \"#utility.yul\":11601:11604   */\n      dup6\n        /* \"#utility.yul\":11583:11605   */\n      tag_137\n      jump\t// in\n    tag_295:\n        /* \"#utility.yul\":11573:11581   */\n      dup4\n        /* \"#utility.yul\":11569:11606   */\n      add\n        /* \"#utility.yul\":11556:11567   */\n      dup3\n        /* \"#utility.yul\":11527:11607   */\n      tag_146\n      jump\t// in\n    tag_294:\n        /* \"#utility.yul\":11186:11617   */\n      pop\n      pop\n        /* \"#utility.yul\":11171:11617   */\n    tag_290:\n        /* \"#utility.yul\":11081:11624   */\n      pop\n      pop\n      pop\n      jump\t// out\n        /* \"#utility.yul\":11630:11747   */\n    tag_148:\n        /* \"#utility.yul\":11684:11692   */\n      0x00\n        /* \"#utility.yul\":11734:11739   */\n      dup3\n        /* \"#utility.yul\":11728:11732   */\n      dup3\n        /* \"#utility.yul\":11724:11740   */\n      shr\n        /* \"#utility.yul\":11703:11740   */\n      swap1\n      pop\n        /* \"#utility.yul\":11630:11747   */\n      swap3\n      swap2\n      pop\n      pop\n      jump\t// out\n        /* \"#utility.yul\":11753:11922   */\n    tag_149:\n        /* \"#utility.yul\":11797:11803   */\n      0x00\n        /* \"#utility.yul\":11830:11881   */\n      tag_298\n        /* \"#utility.yul\":11878:11879   */\n      0x00\n        /* \"#utility.yul\":11874:11880   */\n      not\n        /* \"#utility.yul\":11866:11871   */\n      dup5\n        /* \"#utility.yul\":11863:11864   */\n      0x08\n        /* \"#utility.yul\":11859:11872   */\n      mul\n        /* \"#utility.yul\":11830:11881   */\n      tag_148\n      jump\t// in\n    tag_298:\n        /* \"#utility.yul\":11826:11882   */\n      not\n        /* \"#utility.yul\":11911:11915   */\n      dup1\n        /* \"#utility.yul\":11905:11909   */\n      dup4\n        /* \"#utility.yul\":11901:11916   */\n      and\n        /* \"#utility.yul\":11891:11916   */\n      swap2\n      pop\n        /* \"#utility.yul\":11804:11922   */\n      pop\n        /* \"#utility.yul\":11753:11922   */\n      swap3\n      swap2\n      pop\n      pop\n      jump\t// out\n        /* \"#utility.yul\":11927:12222   */\n    tag_150:\n        /* \"#utility.yul\":12003:12007   */\n      0x00\n        /* \"#utility.yul\":12149:12178   */\n      tag_300\n        /* \"#utility.yul\":12174:12177   */\n      dup4\n        /* \"#utility.yul\":12168:12172   */\n      dup4\n        /* \"#utility.yul\":12149:12178   */\n      tag_149\n      jump\t// in\n    tag_300:\n        /* \"#utility.yul\":12141:12178   */\n      swap2\n      pop\n        /* \"#utility.yul\":12211:12214   */\n      dup3\n        /* \"#utility.yul\":12208:12209   */\n      0x02\n        /* \"#utility.yul\":12204:12215   */\n      mul\n        /* \"#utility.yul\":12198:12202   */\n      dup3\n        /* \"#utility.yul\":12195:12216   */\n      or\n        /* \"#utility.yul\":12187:12216   */\n      swap1\n      pop\n        /* \"#utility.yul\":11927:12222   */\n      swap3\n      swap2\n      pop\n      pop\n      jump\t// out\n        /* \"#utility.yul\":12227:13622   */\n    tag_63:\n        /* \"#utility.yul\":12344:12381   */\n      tag_302\n        /* \"#utility.yul\":12377:12380   */\n      dup3\n        /* \"#utility.yul\":12344:12381   */\n      tag_114\n      jump\t// in\n    tag_302:\n        /* \"#utility.yul\":12446:12464   */\n      0xffffffffffffffff\n        /* \"#utility.yul\":12438:12444   */\n      dup2\n        /* \"#utility.yul\":12435:12465   */\n      gt\n        /* \"#utility.yul\":12432:12488   */\n      iszero\n      tag_303\n      jumpi\n        /* \"#utility.yul\":12468:12486   */\n      tag_304\n      tag_124\n      jump\t// in\n    tag_304:\n        /* \"#utility.yul\":12432:12488   */\n    tag_303:\n        /* \"#utility.yul\":12512:12550   */\n      tag_305\n        /* \"#utility.yul\":12544:12548   */\n      dup3\n        /* \"#utility.yul\":12538:12549   */\n      sload\n        /* \"#utility.yul\":12512:12550   */\n      tag_47\n      jump\t// in\n    tag_305:\n        /* \"#utility.yul\":12597:12664   */\n      tag_306\n        /* \"#utility.yul\":12657:12663   */\n      dup3\n        /* \"#utility.yul\":12649:12655   */\n      dup3\n        /* \"#utility.yul\":12643:12647   */\n      dup6\n        /* \"#utility.yul\":12597:12664   */\n      tag_147\n      jump\t// in\n    tag_306:\n        /* \"#utility.yul\":12691:12692   */\n      0x00\n        /* \"#utility.yul\":12715:12719   */\n      0x20\n        /* \"#utility.yul\":12702:12719   */\n      swap1\n      pop\n        /* \"#utility.yul\":12747:12749   */\n      0x1f\n        /* \"#utility.yul\":12739:12745   */\n      dup4\n        /* \"#utility.yul\":12736:12750   */\n      gt\n        /* \"#utility.yul\":12764:12765   */\n      0x01\n        /* \"#utility.yul\":12759:13377   */\n      dup2\n      eq\n      tag_308\n      jumpi\n        /* \"#utility.yul\":13421:13422   */\n      0x00\n        /* \"#utility.yul\":13438:13444   */\n      dup5\n        /* \"#utility.yul\":13435:13512   */\n      iszero\n      tag_309\n      jumpi\n        /* \"#utility.yul\":13487:13496   */\n      dup3\n        /* \"#utility.yul\":13482:13485   */\n      dup8\n        /* \"#utility.yul\":13478:13497   */\n      add\n        /* \"#utility.yul\":13472:13498   */\n      mload\n        /* \"#utility.yul\":13463:13498   */\n      swap1\n      pop\n        /* \"#utility.yul\":13435:13512   */\n    tag_309:\n        /* \"#utility.yul\":13538:13605   */\n      tag_310\n        /* \"#utility.yul\":13598:13604   */\n      dup6\n        /* \"#utility.yul\":13591:13596   */\n      dup3\n        /* \"#utility.yul\":13538:13605   */\n      tag_150\n      jump\t// in\n    tag_310:\n        /* \"#utility.yul\":13532:13536   */\n      dup7\n        /* \"#utility.yul\":13525:13606   */\n      sstore\n        /* \"#utility.yul\":13394:13616   */\n      pop\n        /* \"#utility.yul\":12729:13616   */\n      jump(tag_307)\n        /* \"#utility.yul\":12759:13377   */\n    tag_308:\n        /* \"#utility.yul\":12811:12815   */\n      0x1f\n        /* \"#utility.yul\":12807:12816   */\n      not\n        /* \"#utility.yul\":12799:12805   */\n      dup5\n        /* \"#utility.yul\":12795:12817   */\n      and\n        /* \"#utility.yul\":12845:12882   */\n      tag_311\n        /* \"#utility.yul\":12877:12881   */\n      dup7\n        /* \"#utility.yul\":12845:12882   */\n      tag_136\n      jump\t// in\n    tag_311:\n        /* \"#utility.yul\":12904:12905   */\n      0x00\n        /* \"#utility.yul\":12918:13126   */\n    tag_312:\n        /* \"#utility.yul\":12932:12939   */\n      dup3\n        /* \"#utility.yul\":12929:12930   */\n      dup2\n        /* \"#utility.yul\":12926:12940   */\n      lt\n        /* \"#utility.yul\":12918:13126   */\n      iszero\n      tag_314\n      jumpi\n        /* \"#utility.yul\":13011:13020   */\n      dup5\n        /* \"#utility.yul\":13006:13009   */\n      dup10\n        /* \"#utility.yul\":13002:13021   */\n      add\n        /* \"#utility.yul\":12996:13022   */\n      mload\n        /* \"#utility.yul\":12988:12994   */\n      dup3\n        /* \"#utility.yul\":12981:13023   */\n      sstore\n        /* \"#utility.yul\":13062:13063   */\n      0x01\n        /* \"#utility.yul\":13054:13060   */\n      dup3\n        /* \"#utility.yul\":13050:13064   */\n      add\n        /* \"#utility.yul\":13040:13064   */\n      swap2\n      pop\n        /* \"#utility.yul\":13109:13111   */\n      0x20\n        /* \"#utility.yul\":13098:13107   */\n      dup6\n        /* \"#utility.yul\":13094:13112   */\n      add\n        /* \"#utility.yul\":13081:13112   */\n      swap5\n      pop\n        /* \"#utility.yul\":12955:12959   */\n      0x20\n        /* \"#utility.yul\":12952:12953   */\n      dup2\n        /* \"#utility.yul\":12948:12960   */\n      add\n        /* \"#utility.yul\":12943:12960   */\n      swap1\n      pop\n        /* \"#utility.yul\":12918:13126   */\n      jump(tag_312)\n    tag_314:\n        /* \"#utility.yul\":13154:13160   */\n      dup7\n        /* \"#utility.yul\":13145:13152   */\n      dup4\n        /* \"#utility.yul\":13142:13161   */\n      lt\n        /* \"#utility.yul\":13139:13318   */\n      iszero\n      tag_315\n      jumpi\n        /* \"#utility.yul\":13212:13221   */\n      dup5\n        /* \"#utility.yul\":13207:13210   */\n      dup10\n        /* \"#utility.yul\":13203:13222   */\n      add\n        /* \"#utility.yul\":13197:13223   */\n      mload\n        /* \"#utility.yul\":13255:13303   */\n      tag_316\n        /* \"#utility.yul\":13297:13301   */\n      0x1f\n        /* \"#utility.yul\":13289:13295   */\n      dup10\n        /* \"#utility.yul\":13285:13302   */\n      and\n        /* \"#utility.yul\":13274:13283   */\n      dup3\n        /* \"#utility.yul\":13255:13303   */\n      tag_149\n      jump\t// in\n    tag_316:\n        /* \"#utility.yul\":13247:13253   */\n      dup4\n        /* \"#utility.yul\":13240:13304   */\n      sstore\n        /* \"#utility.yul\":13162:13318   */\n      pop\n        /* \"#utility.yul\":13139:13318   */\n    tag_315:\n        /* \"#utility.yul\":13364:13365   */\n      0x01\n        /* \"#utility.yul\":13360:13361   */\n      0x02\n        /* \"#utility.yul\":13352:13358   */\n      dup9\n        /* \"#utility.yul\":13348:13362   */\n      mul\n        /* \"#utility.yul\":13344:13366   */\n      add\n        /* \"#utility.yul\":13338:13342   */\n      dup9\n        /* \"#utility.yul\":13331:13367   */\n      sstore\n        /* \"#utility.yul\":12766:13377   */\n      pop\n      pop\n      pop\n        /* \"#utility.yul\":12729:13616   */\n    tag_307:\n      pop\n        /* \"#utility.yul\":12319:13622   */\n      pop\n      pop\n      pop\n        /* \"#utility.yul\":12227:13622   */\n      pop\n      pop\n      jump\t// out\n        /* \"#utility.yul\":13628:13808   */\n    tag_151:\n        /* \"#utility.yul\":13676:13753   */\n      0x4e487b7100000000000000000000000000000000000000000000000000000000\n        /* \"#utility.yul\":13673:13674   */\n      0x00\n        /* \"#utility.yul\":13666:13754   */\n      mstore\n        /* \"#utility.yul\":13773:13777   */\n      0x11\n        /* \"#utility.yul\":13770:13771   */\n      0x04\n        /* \"#utility.yul\":13763:13778   */\n      mstore\n        /* \"#utility.yul\":13797:13801   */\n      0x24\n        /* \"#utility.yul\":13794:13795   */\n      0x00\n        /* \"#utility.yul\":13787:13802   */\n      revert\n        /* \"#utility.yul\":13814:14047   */\n    tag_65:\n        /* \"#utility.yul\":13853:13856   */\n      0x00\n        /* \"#utility.yul\":13876:13900   */\n      tag_319\n        /* \"#utility.yul\":13894:13899   */\n      dup3\n        /* \"#utility.yul\":13876:13900   */\n      tag_112\n      jump\t// in\n    tag_319:\n        /* \"#utility.yul\":13867:13900   */\n      swap2\n      pop\n        /* \"#utility.yul\":13922:13988   */\n      0xffffffffffffffffffffffffffffffffffffffffffffffffffffffffffffffff\n        /* \"#utility.yul\":13915:13920   */\n      dup3\n        /* \"#utility.yul\":13912:13989   */\n      sub\n        /* \"#utility.yul\":13909:14012   */\n      tag_320\n      jumpi\n        /* \"#utility.yul\":13992:14010   */\n      tag_321\n      tag_151\n      jump\t// in\n    tag_321:\n        /* \"#utility.yul\":13909:14012   */\n    tag_320:\n        /* \"#utility.yul\":14039:14040   */\n      0x01\n        /* \"#utility.yul\":14032:14037   */\n      dup3\n        /* \"#utility.yul\":14028:14041   */\n      add\n        /* \"#utility.yul\":14021:14041   */\n      swap1\n      pop\n        /* \"#utility.yul\":13814:14047   */\n      swap2\n      swap1\n      pop\n      jump\t// out\n        /* \"#utility.yul\":14053:14244   */\n    tag_67:\n        /* \"#utility.yul\":14093:14096   */\n      0x00\n        /* \"#utility.yul\":14112:14132   */\n      tag_323\n        /* \"#utility.yul\":14130:14131   */\n      dup3\n        /* \"#utility.yul\":14112:14132   */\n      tag_112\n      jump\t// in\n    tag_323:\n        /* \"#utility.yul\":14107:14132   */\n      swap2\n      pop\n        /* \"#utility.yul\":14146:14166   */\n      tag_324\n        /* \"#utility.yul\":14164:14165   */\n      dup4\n        /* \"#utility.yul\":14146:14166   */\n      tag_112\n      jump\t// in\n    tag_324:\n        /* \"#utility.yul\":14141:14166   */\n      swap3\n      pop\n        /* \"#utility.yul\":14189:14190   */\n      dup3\n        /* \"#utility.yul\":14186:14187   */\n      dup3\n        /* \"#utility.yul\":14182:14191   */\n      add\n        /* \"#utility.yul\":14175:14191   */\n      swap1\n      pop\n        /* \"#utility.yul\":14210:14213   */\n      dup1\n        /* \"#utility.yul\":14207:14208   */\n      dup3\n        /* \"#utility.yul\":14204:14214   */\n      gt\n        /* \"#utility.yul\":14201:14237   */\n      iszero\n      tag_325\n      jumpi\n        /* \"#utility.yul\":14217:14235   */\n      tag_326\n      tag_151\n      jump\t// in\n    tag_326:\n        /* \"#utility.yul\":14201:14237   */\n    tag_325:\n        /* \"#utility.yul\":14053:14244   */\n      swap3\n      swap2\n      pop\n      pop\n      jump\t// out\n        /* \"#utility.yul\":14250:14894   */\n    tag_69:\n        /* \"#utility.yul\":14447:14451   */\n      0x00\n        /* \"#utility.yul\":14485:14488   */\n      0x80\n        /* \"#utility.yul\":14474:14483   */\n      dup3\n        /* \"#utility.yul\":14470:14489   */\n      add\n        /* \"#utility.yul\":14462:14489   */\n      swap1\n      pop\n        /* \"#utility.yul\":14535:14544   */\n      dup2\n        /* \"#utility.yul\":14529:14533   */\n      dup2\n        /* \"#utility.yul\":14525:14545   */\n      sub\n        /* \"#utility.yul\":14521:14522   */\n      0x00\n        /* \"#utility.yul\":14510:14519   */\n      dup4\n        /* \"#utility.yul\":14506:14523   */\n      add\n        /* \"#utility.yul\":14499:14546   */\n      mstore\n        /* \"#utility.yul\":14563:14641   */\n      tag_328\n        /* \"#utility.yul\":14636:14640   */\n      dup2\n        /* \"#utility.yul\":14627:14633   */\n      dup8\n        /* \"#utility.yul\":14563:14641   */\n      tag_118\n      jump\t// in\n    tag_328:\n        /* \"#utility.yul\":14555:14641   */\n      swap1\n      pop\n        /* \"#utility.yul\":14651:14723   */\n      tag_329\n        /* \"#utility.yul\":14719:14721   */\n      0x20\n        /* \"#utility.yul\":14708:14717   */\n      dup4\n        /* \"#utility.yul\":14704:14722   */\n      add\n        /* \"#utility.yul\":14695:14701   */\n      dup7\n        /* \"#utility.yul\":14651:14723   */\n      tag_113\n      jump\t// in\n    tag_329:\n        /* \"#utility.yul\":14733:14805   */\n      tag_330\n        /* \"#utility.yul\":14801:14803   */\n      0x40\n        /* \"#utility.yul\":14790:14799   */\n      dup4\n        /* \"#utility.yul\":14786:14804   */\n      add\n        /* \"#utility.yul\":14777:14783   */\n      dup6\n        /* \"#utility.yul\":14733:14805   */\n      tag_113\n      jump\t// in\n    tag_330:\n        /* \"#utility.yul\":14815:14887   */\n      tag_331\n        /* \"#utility.yul\":14883:14885   */\n      0x60\n        /* \"#utility.yul\":14872:14881   */\n      dup4\n        /* \"#utility.yul\":14868:14886   */\n      add\n        /* \"#utility.yul\":14859:14865   */\n      dup5\n        /* \"#utility.yul\":14815:14887   */\n      tag_113\n      jump\t// in\n    tag_331:\n        /* \"#utility.yul\":14250:14894   */\n      swap6\n      swap5\n      pop\n      pop\n      pop\n      pop\n      pop\n      jump\t// out\n        /* \"#utility.yul\":14900:15071   */\n    tag_152:\n        /* \"#utility.yul\":15040:15063   */\n      0x313020576f726b6f75747320436f6d706c657465640000000000000000000000\n        /* \"#utility.yul\":15036:15037   */\n      0x00\n        /* \"#utility.yul\":15028:15034   */\n      dup3\n        /* \"#utility.yul\":15024:15038   */\n      add\n        /* \"#utility.yul\":15017:15064   */\n      mstore\n        /* \"#utility.yul\":14900:15071   */\n      pop\n      jump\t// out\n        /* \"#utility.yul\":15077:15443   */\n    tag_153:\n        /* \"#utility.yul\":15219:15222   */\n      0x00\n        /* \"#utility.yul\":15240:15307   */\n      tag_334\n        /* \"#utility.yul\":15304:15306   */\n      0x15\n        /* \"#utility.yul\":15299:15302   */\n      dup4\n        /* \"#utility.yul\":15240:15307   */\n      tag_115\n      jump\t// in\n    tag_334:\n        /* \"#utility.yul\":15233:15307   */\n      swap2\n      pop\n        /* \"#utility.yul\":15316:15409   */\n      tag_335\n        /* \"#utility.yul\":15405:15408   */\n      dup3\n        /* \"#utility.yul\":15316:15409   */\n      tag_152\n      jump\t// in\n    tag_335:\n        /* \"#utility.yul\":15434:15436   */\n      0x20\n        /* \"#utility.yul\":15429:15432   */\n      dup3\n        /* \"#utility.yul\":15425:15437   */\n      add\n        /* \"#utility.yul\":15418:15437   */\n      swap1\n      pop\n        /* \"#utility.yul\":15077:15443   */\n      swap2\n      swap1\n      pop\n      jump\t// out\n        /* \"#utility.yul\":15449:15978   */\n    tag_72:\n        /* \"#utility.yul\":15643:15647   */\n      0x00\n        /* \"#utility.yul\":15681:15683   */\n      0x40\n        /* \"#utility.yul\":15670:15679   */\n      dup3\n        /* \"#utility.yul\":15666:15684   */\n      add\n        /* \"#utility.yul\":15658:15684   */\n      swap1\n      pop\n        /* \"#utility.yul\":15730:15739   */\n      dup2\n        /* \"#utility.yul\":15724:15728   */\n      dup2\n        /* \"#utility.yul\":15720:15740   */\n      sub\n        /* \"#utility.yul\":15716:15717   */\n      0x00\n        /* \"#utility.yul\":15705:15714   */\n      dup4\n        /* \"#utility.yul\":15701:15718   */\n      add\n        /* \"#utility.yul\":15694:15741   */\n      mstore\n        /* \"#utility.yul\":15758:15889   */\n      tag_337\n        /* \"#utility.yul\":15884:15888   */\n      dup2\n        /* \"#utility.yul\":15758:15889   */\n      tag_153\n      jump\t// in\n    tag_337:\n        /* \"#utility.yul\":15750:15889   */\n      swap1\n      pop\n        /* \"#utility.yul\":15899:15971   */\n      tag_338\n        /* \"#utility.yul\":15967:15969   */\n      0x20\n        /* \"#utility.yul\":15956:15965   */\n      dup4\n        /* \"#utility.yul\":15952:15970   */\n      add\n        /* \"#utility.yul\":15943:15949   */\n      dup5\n        /* \"#utility.yul\":15899:15971   */\n      tag_113\n      jump\t// in\n    tag_338:\n        /* \"#utility.yul\":15449:15978   */\n      swap3\n      swap2\n      pop\n      pop\n      jump\t// out\n        /* \"#utility.yul\":15984:16155   */\n    tag_154:\n        /* \"#utility.yul\":16124:16147   */\n      0x353020576f726b6f75747320436f6d706c657465640000000000000000000000\n        /* \"#utility.yul\":16120:16121   */\n      0x00\n        /* \"#utility.yul\":16112:16118   */\n      dup3\n        /* \"#utility.yul\":16108:16122   */\n      add\n        /* \"#utility.yul\":16101:16148   */\n      mstore\n        /* \"#utility.yul\":15984:16155   */\n      pop\n      jump\t// out\n        /* \"#utility.yul\":16161:16527   */\n    tag_155:\n        /* \"#utility.yul\":16303:16306   */\n      0x00\n        /* \"#utility.yul\":16324:16391   */\n      tag_341\n        /* \"#utility.yul\":16388:16390   */\n      0x15\n        /* \"#utility.yul\":16383:16386   */\n      dup4\n        /* \"#utility.yul\":16324:16391   */\n      tag_115\n      jump\t// in\n    tag_341:\n        /* \"#utility.yul\":16317:16391   */\n      swap2\n      pop\n        /* \"#utility.yul\":16400:16493   */\n      tag_342\n        /* \"#utility.yul\":16489:16492   */\n      dup3\n        /* \"#utility.yul\":16400:16493   */\n      tag_154\n      jump\t// in\n    tag_342:\n        /* \"#utility.yul\":16518:16520   */\n      0x20\n        /* \"#utility.yul\":16513:16516   */\n      dup3\n        /* \"#utility.yul\":16509:16521   */\n      add\n        /* \"#utility.yul\":16502:16521   */\n      swap1\n      pop\n        /* \"#utility.yul\":16161:16527   */\n      swap2\n      swap1\n      pop\n      jump\t// out\n        /* \"#utility.yul\":16533:17062   */\n    tag_76:\n        /* \"#utility.yul\":16727:16731   */\n      0x00\n        /* \"#utility.yul\":16765:16767   */\n      0x40\n        /* \"#utility.yul\":16754:16763   */\n      dup3\n        /* \"#utility.yul\":16750:16768   */\n      add\n        /* \"#utility.yul\":16742:16768   */\n      swap1\n      pop\n        /* \"#utility.yul\":16814:16823   */\n      dup2\n        /* \"#utility.yul\":16808:16812   */\n      dup2\n        /* \"#utility.yul\":16804:16824   */\n      sub\n        /* \"#utility.yul\":16800:16801   */\n      0x00\n        /* \"#utility.yul\":16789:16798   */\n      dup4\n        /* \"#utility.yul\":16785:16802   */\n      add\n        /* \"#utility.yul\":16778:16825   */\n      mstore\n        /* \"#utility.yul\":16842:16973   */\n      tag_344\n        /* \"#utility.yul\":16968:16972   */\n      dup2\n        /* \"#utility.yul\":16842:16973   */\n      tag_155\n      jump\t// in\n    tag_344:\n        /* \"#utility.yul\":16834:16973   */\n      swap1\n      pop\n        /* \"#utility.yul\":16983:17055   */\n      tag_345\n        /* \"#utility.yul\":17051:17053   */\n      0x20\n        /* \"#utility.yul\":17040:17049   */\n      dup4\n        /* \"#utility.yul\":17036:17054   */\n      add\n        /* \"#utility.yul\":17027:17033   */\n      dup5\n        /* \"#utility.yul\":16983:17055   */\n      tag_113\n      jump\t// in\n    tag_345:\n        /* \"#utility.yul\":16533:17062   */\n      swap3\n      swap2\n      pop\n      pop\n      jump\t// out\n        /* \"#utility.yul\":17068:17262   */\n    tag_79:\n        /* \"#utility.yul\":17108:17112   */\n      0x00\n        /* \"#utility.yul\":17128:17148   */\n      tag_347\n        /* \"#utility.yul\":17146:17147   */\n      dup3\n        /* \"#utility.yul\":17128:17148   */\n      tag_112\n      jump\t// in\n    tag_347:\n        /* \"#utility.yul\":17123:17148   */\n      swap2\n      pop\n        /* \"#utility.yul\":17162:17182   */\n      tag_348\n        /* \"#utility.yul\":17180:17181   */\n      dup4\n        /* \"#utility.yul\":17162:17182   */\n      tag_112\n      jump\t// in\n    tag_348:\n        /* \"#utility.yul\":17157:17182   */\n      swap3\n      pop\n        /* \"#utility.yul\":17206:17207   */\n      dup3\n        /* \"#utility.yul\":17203:17204   */\n      dup3\n        /* \"#utility.yul\":17199:17208   */\n      sub\n        /* \"#utility.yul\":17191:17208   */\n      swap1\n      pop\n        /* \"#utility.yul\":17230:17231   */\n      dup2\n        /* \"#utility.yul\":17224:17228   */\n      dup2\n        /* \"#utility.yul\":17221:17232   */\n      gt\n        /* \"#utility.yul\":17218:17255   */\n      iszero\n      tag_349\n      jumpi\n        /* \"#utility.yul\":17235:17253   */\n      tag_350\n      tag_151\n      jump\t// in\n    tag_350:\n        /* \"#utility.yul\":17218:17255   */\n    tag_349:\n        /* \"#utility.yul\":17068:17262   */\n      swap3\n      swap2\n      pop\n      pop\n      jump\t// out\n        /* \"#utility.yul\":17268:17437   */\n    tag_156:\n        /* \"#utility.yul\":17408:17429   */\n      0x3130304b20546f74616c2044697374616e636500000000000000000000000000\n        /* \"#utility.yul\":17404:17405   */\n      0x00\n        /* \"#utility.yul\":17396:17402   */\n      dup3\n        /* \"#utility.yul\":17392:17406   */\n      add\n        /* \"#utility.yul\":17385:17430   */\n      mstore\n        /* \"#utility.yul\":17268:17437   */\n      pop\n      jump\t// out\n        /* \"#utility.yul\":17443:17809   */\n    tag_157:\n        /* \"#utility.yul\":17585:17588   */\n      0x00\n        /* \"#utility.yul\":17606:17673   */\n      tag_353\n        /* \"#utility.yul\":17670:17672   */\n      0x13\n        /* \"#utility.yul\":17665:17668   */\n      dup4\n        /* \"#utility.yul\":17606:17673   */\n      tag_115\n      jump\t// in\n    tag_353:\n        /* \"#utility.yul\":17599:17673   */\n      swap2\n      pop\n        /* \"#utility.yul\":17682:17775   */\n      tag_354\n        /* \"#utility.yul\":17771:17774   */\n      dup3\n        /* \"#utility.yul\":17682:17775   */\n      tag_156\n      jump\t// in\n    tag_354:\n        /* \"#utility.yul\":17800:17802   */\n      0x20\n        /* \"#utility.yul\":17795:17798   */\n      dup3\n        /* \"#utility.yul\":17791:17803   */\n      add\n        /* \"#utility.yul\":17784:17803   */\n      swap1\n      pop\n        /* \"#utility.yul\":17443:17809   */\n      swap2\n      swap1\n      pop\n      jump\t// out\n        /* \"#utility.yul\":17815:18344   */\n    tag_82:\n        /* \"#utility.yul\":18009:18013   */\n      0x00\n        /* \"#utility.yul\":18047:18049   */\n      0x40\n        /* \"#utility.yul\":18036:18045   */\n      dup3\n        /* \"#utility.yul\":18032:18050   */\n      add\n        /* \"#utility.yul\":18024:18050   */\n      swap1\n      pop\n        /* \"#utility.yul\":18096:18105   */\n      dup2\n        /* \"#utility.yul\":18090:18094   */\n      dup2\n        /* \"#utility.yul\":18086:18106   */\n      sub\n        /* \"#utility.yul\":18082:18083   */\n      0x00\n        /* \"#utility.yul\":18071:18080   */\n      dup4\n        /* \"#utility.yul\":18067:18084   */\n      add\n        /* \"#utility.yul\":18060:18107   */\n      mstore\n        /* \"#utility.yul\":18124:18255   */\n      tag_356\n        /* \"#utility.yul\":18250:18254   */\n      dup2\n        /* \"#utility.yul\":18124:18255   */\n      tag_157\n      jump\t// in\n    tag_356:\n        /* \"#utility.yul\":18116:18255   */\n      swap1\n      pop\n        /* \"#utility.yul\":18265:18337   */\n      tag_357\n        /* \"#utility.yul\":18333:18335   */\n      0x20\n        /* \"#utility.yul\":18322:18331   */\n      dup4\n        /* \"#utility.yul\":18318:18336   */\n      add\n        /* \"#utility.yul\":18309:18315   */\n      dup5\n        /* \"#utility.yul\":18265:18337   */\n      tag_113\n      jump\t// in\n    tag_357:\n        /* \"#utility.yul\":17815:18344   */\n      swap3\n      swap2\n      pop\n      pop\n      jump\t// out\n        /* \"#utility.yul\":18350:18523   */\n    tag_158:\n        /* \"#utility.yul\":18490:18515   */\n      0x5573657220616c72656164792072656769737465726564000000000000000000\n        /* \"#utility.yul\":18486:18487   */\n      0x00\n        /* \"#utility.yul\":18478:18484   */\n      dup3\n        /* \"#utility.yul\":18474:18488   */\n      add\n        /* \"#utility.yul\":18467:18516   */\n      mstore\n        /* \"#utility.yul\":18350:18523   */\n      pop\n      jump\t// out\n        /* \"#utility.yul\":18529:18895   */\n    tag_159:\n        /* \"#utility.yul\":18671:18674   */\n      0x00\n        /* \"#utility.yul\":18692:18759   */\n      tag_360\n        /* \"#utility.yul\":18756:18758   */\n      0x17\n        /* \"#utility.yul\":18751:18754   */\n      dup4\n        /* \"#utility.yul\":18692:18759   */\n      tag_115\n      jump\t// in\n    tag_360:\n        /* \"#utility.yul\":18685:18759   */\n      swap2\n      pop\n        /* \"#utility.yul\":18768:18861   */\n      tag_361\n        /* \"#utility.yul\":18857:18860   */\n      dup3\n        /* \"#utility.yul\":18768:18861   */\n      tag_158\n      jump\t// in\n    tag_361:\n        /* \"#utility.yul\":18886:18888   */\n      0x20\n        /* \"#utility.yul\":18881:18884   */\n      dup3\n        /* \"#utility.yul\":18877:18889   */\n      add\n        /* \"#utility.yul\":18870:18889   */\n      swap1\n      pop\n        /* \"#utility.yul\":18529:18895   */\n      swap2\n      swap1\n      pop\n      jump\t// out\n        /* \"#utility.yul\":18901:19320   */\n    tag_86:\n        /* \"#utility.yul\":19067:19071   */\n      0x00\n        /* \"#utility.yul\":19105:19107   */\n      0x20\n        /* \"#utility.yul\":19094:19103   */\n      dup3\n        /* \"#utility.yul\":19090:19108   */\n      add\n        /* \"#utility.yul\":19082:19108   */\n      swap1\n      pop\n        /* \"#utility.yul\":19154:19163   */\n      dup2\n        /* \"#utility.yul\":19148:19152   */\n      dup2\n        /* \"#utility.yul\":19144:19164   */\n      sub\n        /* \"#utility.yul\":19140:19141   */\n      0x00\n        /* \"#utility.yul\":19129:19138   */\n      dup4\n        /* \"#utility.yul\":19125:19142   */\n      add\n        /* \"#utility.yul\":19118:19165   */\n      mstore\n        /* \"#utility.yul\":19182:19313   */\n      tag_363\n        /* \"#utility.yul\":19308:19312   */\n      dup2\n        /* \"#utility.yul\":19182:19313   */\n      tag_159\n      jump\t// in\n    tag_363:\n        /* \"#utility.yul\":19174:19313   */\n      swap1\n      pop\n        /* \"#utility.yul\":18901:19320   */\n      swap2\n      swap1\n      pop\n      jump\t// out\n        /* \"#utility.yul\":19326:19749   */\n    tag_89:\n        /* \"#utility.yul\":19467:19471   */\n      0x00\n        /* \"#utility.yul\":19505:19507   */\n      0x40\n        /* \"#utility.yul\":19494:19503   */\n      dup3\n        /* \"#utility.yul\":19490:19508   */\n      add\n        /* \"#utility.yul\":19482:19508   */\n      swap1\n      pop\n        /* \"#utility.yul\":19554:19563   */\n      dup2\n        /* \"#utility.yul\":19548:19552   */\n      dup2\n        /* \"#utility.yul\":19544:19564   */\n      sub\n        /* \"#utility.yul\":19540:19541   */\n      0x00\n        /* \"#utility.yul\":19529:19538   */\n      dup4\n        /* \"#utility.yul\":19525:19542   */\n      add\n        /* \"#utility.yul\":19518:19565   */\n      mstore\n        /* \"#utility.yul\":19582:19660   */\n      tag_365\n        /* \"#utility.yul\":19655:19659   */\n      dup2\n        /* \"#utility.yul\":19646:19652   */\n      dup6\n        /* \"#utility.yul\":19582:19660   */\n      tag_118\n      jump\t// in\n    tag_365:\n        /* \"#utility.yul\":19574:19660   */\n      swap1\n      pop\n        /* \"#utility.yul\":19670:19742   */\n      tag_366\n        /* \"#utility.yul\":19738:19740   */\n      0x20\n        /* \"#utility.yul\":19727:19736   */\n      dup4\n        /* \"#utility.yul\":19723:19741   */\n      add\n        /* \"#utility.yul\":19714:19720   */\n      dup5\n        /* \"#utility.yul\":19670:19742   */\n      tag_113\n      jump\t// in\n    tag_366:\n        /* \"#utility.yul\":19326:19749   */\n      swap4\n      swap3\n      pop\n      pop\n      pop\n      jump\t// out\n        /* \"#utility.yul\":19755:20165   */\n    tag_97:\n        /* \"#utility.yul\":19795:19802   */\n      0x00\n        /* \"#utility.yul\":19818:19838   */\n      tag_368\n        /* \"#utility.yul\":19836:19837   */\n      dup3\n        /* \"#utility.yul\":19818:19838   */\n      tag_112\n      jump\t// in\n    tag_368:\n        /* \"#utility.yul\":19813:19838   */\n      swap2\n      pop\n        /* \"#utility.yul\":19852:19872   */\n      tag_369\n        /* \"#utility.yul\":19870:19871   */\n      dup4\n        /* \"#utility.yul\":19852:19872   */\n      tag_112\n      jump\t// in\n    tag_369:\n        /* \"#utility.yul\":19847:19872   */\n      swap3\n      pop\n        /* \"#utility.yul\":19907:19908   */\n      dup3\n        /* \"#utility.yul\":19904:19905   */\n      dup3\n        /* \"#utility.yul\":19900:19909   */\n      mul\n        /* \"#utility.yul\":19929:19959   */\n      tag_370\n        /* \"#utility.yul\":19947:19958   */\n      dup2\n        /* \"#utility.yul\":19929:19959   */\n      tag_112\n      jump\t// in\n    tag_370:\n        /* \"#utility.yul\":19918:19959   */\n      swap2\n      pop\n        /* \"#utility.yul\":20108:20109   */\n      dup3\n        /* \"#utility.yul\":20099:20106   */\n      dup3\n        /* \"#utility.yul\":20095:20110   */\n      div\n        /* \"#utility.yul\":20092:20093   */\n      dup5\n        /* \"#utility.yul\":20089:20111   */\n      eq\n        /* \"#utility.yul\":20069:20070   */\n      dup4\n        /* \"#utility.yul\":20062:20071   */\n      iszero\n        /* \"#utility.yul\":20042:20125   */\n      or\n        /* \"#utility.yul\":20019:20158   */\n      tag_371\n      jumpi\n        /* \"#utility.yul\":20138:20156   */\n      tag_372\n      tag_151\n      jump\t// in\n    tag_372:\n        /* \"#utility.yul\":20019:20158   */\n    tag_371:\n        /* \"#utility.yul\":19803:20165   */\n      pop\n        /* \"#utility.yul\":19755:20165   */\n      swap3\n      swap2\n      pop\n      pop\n      jump\t// out\n        /* \"#utility.yul\":20171:20351   */\n    tag_160:\n        /* \"#utility.yul\":20219:20296   */\n      0x4e487b7100000000000000000000000000000000000000000000000000000000\n        /* \"#utility.yul\":20216:20217   */\n      0x00\n        /* \"#utility.yul\":20209:20297   */\n      mstore\n        /* \"#utility.yul\":20316:20320   */\n      0x12\n        /* \"#utility.yul\":20313:20314   */\n      0x04\n        /* \"#utility.yul\":20306:20321   */\n      mstore\n        /* \"#utility.yul\":20340:20344   */\n      0x24\n        /* \"#utility.yul\":20337:20338   */\n      0x00\n        /* \"#utility.yul\":20330:20345   */\n      revert\n        /* \"#utility.yul\":20357:20542   */\n    tag_99:\n        /* \"#utility.yul\":20397:20398   */\n      0x00\n        /* \"#utility.yul\":20414:20434   */\n      tag_375\n        /* \"#utility.yul\":20432:20433   */\n      dup3\n        /* \"#utility.yul\":20414:20434   */\n      tag_112\n      jump\t// in\n    tag_375:\n        /* \"#utility.yul\":20409:20434   */\n      swap2\n      pop\n        /* \"#utility.yul\":20448:20468   */\n      tag_376\n        /* \"#utility.yul\":20466:20467   */\n      dup4\n        /* \"#utility.yul\":20448:20468   */\n      tag_112\n      jump\t// in\n    tag_376:\n        /* \"#utility.yul\":20443:20468   */\n      swap3\n      pop\n        /* \"#utility.yul\":20487:20488   */\n      dup3\n        /* \"#utility.yul\":20477:20512   */\n      tag_377\n      jumpi\n        /* \"#utility.yul\":20492:20510   */\n      tag_378\n      tag_160\n      jump\t// in\n    tag_378:\n        /* \"#utility.yul\":20477:20512   */\n    tag_377:\n        /* \"#utility.yul\":20534:20535   */\n      dup3\n        /* \"#utility.yul\":20531:20532   */\n      dup3\n        /* \"#utility.yul\":20527:20536   */\n      div\n        /* \"#utility.yul\":20522:20536   */\n      swap1\n      pop\n        /* \"#utility.yul\":20357:20542   */\n      swap3\n      swap2\n      pop\n      pop\n      jump\t// out\n        /* \"#utility.yul\":20548:20717   */\n    tag_161:\n        /* \"#utility.yul\":20688:20709   */\n      0x57656967687420476f616c205265616368656400000000000000000000000000\n        /* \"#utility.yul\":20684:20685   */\n      0x00\n        /* \"#utility.yul\":20676:20682   */\n      dup3\n        /* \"#utility.yul\":20672:20686   */\n      add\n        /* \"#utility.yul\":20665:20710   */\n      mstore\n        /* \"#utility.yul\":20548:20717   */\n      pop\n      jump\t// out\n        /* \"#utility.yul\":20723:21089   */\n    tag_162:\n        /* \"#utility.yul\":20865:20868   */\n      0x00\n        /* \"#utility.yul\":20886:20953   */\n      tag_381\n        /* \"#utility.yul\":20950:20952   */\n      0x13\n        /* \"#utility.yul\":20945:20948   */\n      dup4\n        /* \"#utility.yul\":20886:20953   */\n      tag_115\n      jump\t// in\n    tag_381:\n        /* \"#utility.yul\":20879:20953   */\n      swap2\n      pop\n        /* \"#utility.yul\":20962:21055   */\n      tag_382\n        /* \"#utility.yul\":21051:21054   */\n      dup3\n        /* \"#utility.yul\":20962:21055   */\n      tag_161\n      jump\t// in\n    tag_382:\n        /* \"#utility.yul\":21080:21082   */\n      0x20\n        /* \"#utility.yul\":21075:21078   */\n      dup3\n        /* \"#utility.yul\":21071:21083   */\n      add\n        /* \"#utility.yul\":21064:21083   */\n      swap1\n      pop\n        /* \"#utility.yul\":20723:21089   */\n      swap2\n      swap1\n      pop\n      jump\t// out\n        /* \"#utility.yul\":21095:21624   */\n    tag_102:\n        /* \"#utility.yul\":21289:21293   */\n      0x00\n        /* \"#utility.yul\":21327:21329   */\n      0x40\n        /* \"#utility.yul\":21316:21325   */\n      dup3\n        /* \"#utility.yul\":21312:21330   */\n      add\n        /* \"#utility.yul\":21304:21330   */\n      swap1\n      pop\n        /* \"#utility.yul\":21376:21385   */\n      dup2\n        /* \"#utility.yul\":21370:21374   */\n      dup2\n        /* \"#utility.yul\":21366:21386   */\n      sub\n        /* \"#utility.yul\":21362:21363   */\n      0x00\n        /* \"#utility.yul\":21351:21360   */\n      dup4\n        /* \"#utility.yul\":21347:21364   */\n      add\n        /* \"#utility.yul\":21340:21387   */\n      mstore\n        /* \"#utility.yul\":21404:21535   */\n      tag_384\n        /* \"#utility.yul\":21530:21534   */\n      dup2\n        /* \"#utility.yul\":21404:21535   */\n      tag_162\n      jump\t// in\n    tag_384:\n        /* \"#utility.yul\":21396:21535   */\n      swap1\n      pop\n        /* \"#utility.yul\":21545:21617   */\n      tag_385\n        /* \"#utility.yul\":21613:21615   */\n      0x20\n        /* \"#utility.yul\":21602:21611   */\n      dup4\n        /* \"#utility.yul\":21598:21616   */\n      add\n        /* \"#utility.yul\":21589:21595   */\n      dup5\n        /* \"#utility.yul\":21545:21617   */\n      tag_113\n      jump\t// in\n    tag_385:\n        /* \"#utility.yul\":21095:21624   */\n      swap3\n      swap2\n      pop\n      pop\n      jump\t// out\n        /* \"#utility.yul\":21630:21962   */\n    tag_104:\n        /* \"#utility.yul\":21751:21755   */\n      0x00\n        /* \"#utility.yul\":21789:21791   */\n      0x40\n        /* \"#utility.yul\":21778:21787   */\n      dup3\n        /* \"#utility.yul\":21774:21792   */\n      add\n        /* \"#utility.yul\":21766:21792   */\n      swap1\n      pop\n        /* \"#utility.yul\":21802:21873   */\n      tag_387\n        /* \"#utility.yul\":21870:21871   */\n      0x00\n        /* \"#utility.yul\":21859:21868   */\n      dup4\n        /* \"#utility.yul\":21855:21872   */\n      add\n        /* \"#utility.yul\":21846:21852   */\n      dup6\n        /* \"#utility.yul\":21802:21873   */\n      tag_113\n      jump\t// in\n    tag_387:\n        /* \"#utility.yul\":21883:21955   */\n      tag_388\n        /* \"#utility.yul\":21951:21953   */\n      0x20\n        /* \"#utility.yul\":21940:21949   */\n      dup4\n        /* \"#utility.yul\":21936:21954   */\n      add\n        /* \"#utility.yul\":21927:21933   */\n      dup5\n        /* \"#utility.yul\":21883:21955   */\n      tag_113\n      jump\t// in\n    tag_388:\n        /* \"#utility.yul\":21630:21962   */\n      swap4\n      swap3\n      pop\n      pop\n      pop\n      jump\t// out\n\n    auxdata: 0xa26469706673582212204731b019d00a2af1bfc3b397975e9029382aa770787f6a838423bd626bcc923464736f6c634300081e0033\n}\n",
				"bytecode": {
					"linkReferences": {},
					"object": "6080604052348015600e575f5ffd5b50335f5f6101000a81548173ffffffffffffffffffffffffffffffffffffffff021916908373ffffffffffffffffffffffffffffffffffffffff1602179055506116db8061005b5f395ff3fe608060405234801561000f575f5ffd5b5060043610610086575f3560e01c8063ae5bde4e11610059578063ae5bde4e14610128578063c5af3f8c14610158578063d395100214610174578063ec3df6ad1461019057610086565b806303cdaddd1461008a578063332d56d7146100ba578063613867dd146100ec5780638da5cb5b1461010a575b5f5ffd5b6100a4600480360381019061009f9190610b89565b6101ac565b6040516100b19190610bcc565b60405180910390f35b6100d460048036038101906100cf9190610b89565b6101c1565b6040516100e393929190610c6f565b60405180910390f35b6100f4610279565b6040516101019190610bcc565b60405180910390f35b61011261034c565b60405161011f9190610cba565b60405180910390f35b610142600480360381019061013d9190610b89565b610370565b60405161014f9190610bcc565b60405180910390f35b610172600480360381019061016d9190610e29565b610385565b005b61018e60048036038101906101899190610e95565b6107e7565b005b6101aa60048036038101906101a59190610eef565b610963565b005b6003602052805f5260405f205f915090505481565b6001602052805f5260405f205f91509050805f0180546101e090610f47565b80601f016020809104026020016040519081016040528092919081815260200182805461020c90610f47565b80156102575780601f1061022e57610100808354040283529160200191610257565b820191905f5260205f20905b81548152906001019060200180831161023a57829003601f168201915b505050505090806001015490806002015f9054906101000a900460ff16905083565b5f60015f3373ffffffffffffffffffffffffffffffffffffffff1673ffffffffffffffffffffffffffffffffffffffff1681526020019081526020015f206002015f9054906101000a900460ff16610306576040517f08c379a00000000000000000000000000000000000000000000000000000000081526004016102fd90610fc1565b60405180910390fd5b60025f3373ffffffffffffffffffffffffffffffffffffffff1673ffffffffffffffffffffffffffffffffffffffff1681526020019081526020015f2080549050905090565b5f5f9054906101000a900473ffffffffffffffffffffffffffffffffffffffff1681565b6004602052805f5260405f205f915090505481565b60015f3373ffffffffffffffffffffffffffffffffffffffff1673ffffffffffffffffffffffffffffffffffffffff1681526020019081526020015f206002015f9054906101000a900460ff16610411576040517f08c379a000000000000000000000000000000000000000000000000000000000815260040161040890610fc1565b60405180910390fd5b5f604051806080016040528085815260200184815260200183815260200142815250905060025f3373ffffffffffffffffffffffffffffffffffffffff1673ffffffffffffffffffffffffffffffffffffffff1681526020019081526020015f2081908060018154018082558091505060019003905f5260205f2090600402015f909190919091505f820151815f0190816104ac919061117f565b50602082015181600101556040820151816002015560608201518160030155505060035f3373ffffffffffffffffffffffffffffffffffffffff1673ffffffffffffffffffffffffffffffffffffffff1681526020019081526020015f205f81548092919061051a9061127b565b91905055508160045f3373ffffffffffffffffffffffffffffffffffffffff1673ffffffffffffffffffffffffffffffffffffffff1681526020019081526020015f205f82825461056b91906112c2565b925050819055503373ffffffffffffffffffffffffffffffffffffffff167f587a8c232da0d7b15371c5660ff1fdc5fbaf667e6a6b9b6587a378509038fd73858585426040516105be94939291906112f5565b60405180910390a2600a60035f3373ffffffffffffffffffffffffffffffffffffffff1673ffffffffffffffffffffffffffffffffffffffff1681526020019081526020015f20540361065e573373ffffffffffffffffffffffffffffffffffffffff167f8e330a58901ae7dba0b65f495856eab3fc73fc6ceca3dd7fbd2f4f9d14876e37426040516106519190611389565b60405180910390a26106f3565b603260035f3373ffffffffffffffffffffffffffffffffffffffff1673ffffffffffffffffffffffffffffffffffffffff1681526020019081526020015f2054036106f2573373ffffffffffffffffffffffffffffffffffffffff167f8e330a58901ae7dba0b65f495856eab3fc73fc6ceca3dd7fbd2f4f9d14876e37426040516106e991906113ff565b60405180910390a25b5b620186a060045f3373ffffffffffffffffffffffffffffffffffffffff1673ffffffffffffffffffffffffffffffffffffffff1681526020019081526020015f20541015801561078d5750620186a08260045f3373ffffffffffffffffffffffffffffffffffffffff1673ffffffffffffffffffffffffffffffffffffffff1681526020019081526020015f205461078b919061142b565b105b156107e1573373ffffffffffffffffffffffffffffffffffffffff167f8e330a58901ae7dba0b65f495856eab3fc73fc6ceca3dd7fbd2f4f9d14876e37426040516107d891906114a8565b60405180910390a25b50505050565b60015f3373ffffffffffffffffffffffffffffffffffffffff1673ffffffffffffffffffffffffffffffffffffffff1681526020019081526020015f206002015f9054906101000a900460ff1615610874576040517f08c379a000000000000000000000000000000000000000000000000000000000815260040161086b9061151e565b60405180910390fd5b60405180606001604052808381526020018281526020016001151581525060015f3373ffffffffffffffffffffffffffffffffffffffff1673ffffffffffffffffffffffffffffffffffffffff1681526020019081526020015f205f820151815f0190816108e2919061117f565b50602082015181600101556040820151816002015f6101000a81548160ff0219169083151502179055509050503373ffffffffffffffffffffffffffffffffffffffff167f89105a1c6a3c2fbd471255c66a31ccab604af5697f67d7e2e9a0028c5e4dbd91834260405161095792919061153c565b60405180910390a25050565b60015f3373ffffffffffffffffffffffffffffffffffffffff1673ffffffffffffffffffffffffffffffffffffffff1681526020019081526020015f206002015f9054906101000a900460ff166109ef576040517f08c379a00000000000000000000000000000000000000000000000000000000081526004016109e690610fc1565b60405180910390fd5b5f60015f3373ffffffffffffffffffffffffffffffffffffffff1673ffffffffffffffffffffffffffffffffffffffff1681526020019081526020015f209050806001015482108015610a6d5750600581600101546064848460010154610a56919061142b565b610a60919061156a565b610a6a91906115d8565b10155b15610ac1573373ffffffffffffffffffffffffffffffffffffffff167f8e330a58901ae7dba0b65f495856eab3fc73fc6ceca3dd7fbd2f4f9d14876e3742604051610ab89190611652565b60405180910390a25b8181600101819055503373ffffffffffffffffffffffffffffffffffffffff167f05826151879c9a557068ba4e389ba7f00512db472cc81778ea86696b2b0f5afd8342604051610b1292919061167e565b60405180910390a25050565b5f604051905090565b5f5ffd5b5f5ffd5b5f73ffffffffffffffffffffffffffffffffffffffff82169050919050565b5f610b5882610b2f565b9050919050565b610b6881610b4e565b8114610b72575f5ffd5b50565b5f81359050610b8381610b5f565b92915050565b5f60208284031215610b9e57610b9d610b27565b5b5f610bab84828501610b75565b91505092915050565b5f819050919050565b610bc681610bb4565b82525050565b5f602082019050610bdf5f830184610bbd565b92915050565b5f81519050919050565b5f82825260208201905092915050565b8281835e5f83830152505050565b5f601f19601f8301169050919050565b5f610c2782610be5565b610c318185610bef565b9350610c41818560208601610bff565b610c4a81610c0d565b840191505092915050565b5f8115159050919050565b610c6981610c55565b82525050565b5f6060820190508181035f830152610c878186610c1d565b9050610c966020830185610bbd565b610ca36040830184610c60565b949350505050565b610cb481610b4e565b82525050565b5f602082019050610ccd5f830184610cab565b92915050565b5f5ffd5b5f5ffd5b7f4e487b71000000000000000000000000000000000000000000000000000000005f52604160045260245ffd5b610d1182610c0d565b810181811067ffffffffffffffff82111715610d3057610d2f610cdb565b5b80604052505050565b5f610d42610b1e565b9050610d4e8282610d08565b919050565b5f67ffffffffffffffff821115610d6d57610d6c610cdb565b5b610d7682610c0d565b9050602081019050919050565b828183375f83830152505050565b5f610da3610d9e84610d53565b610d39565b905082815260208101848484011115610dbf57610dbe610cd7565b5b610dca848285610d83565b509392505050565b5f82601f830112610de657610de5610cd3565b5b8135610df6848260208601610d91565b91505092915050565b610e0881610bb4565b8114610e12575f5ffd5b50565b5f81359050610e2381610dff565b92915050565b5f5f5f60608486031215610e4057610e3f610b27565b5b5f84013567ffffffffffffffff811115610e5d57610e5c610b2b565b5b610e6986828701610dd2565b9350506020610e7a86828701610e15565b9250506040610e8b86828701610e15565b9150509250925092565b5f5f60408385031215610eab57610eaa610b27565b5b5f83013567ffffffffffffffff811115610ec857610ec7610b2b565b5b610ed485828601610dd2565b9250506020610ee585828601610e15565b9150509250929050565b5f60208284031215610f0457610f03610b27565b5b5f610f1184828501610e15565b91505092915050565b7f4e487b71000000000000000000000000000000000000000000000000000000005f52602260045260245ffd5b5f6002820490506001821680610f5e57607f821691505b602082108103610f7157610f70610f1a565b5b50919050565b7f55736572206e6f742072656769737465726564000000000000000000000000005f82015250565b5f610fab601383610bef565b9150610fb682610f77565b602082019050919050565b5f6020820190508181035f830152610fd881610f9f565b9050919050565b5f819050815f5260205f209050919050565b5f6020601f8301049050919050565b5f82821b905092915050565b5f6008830261103b7fffffffffffffffffffffffffffffffffffffffffffffffffffffffffffffffff82611000565b6110458683611000565b95508019841693508086168417925050509392505050565b5f819050919050565b5f61108061107b61107684610bb4565b61105d565b610bb4565b9050919050565b5f819050919050565b61109983611066565b6110ad6110a582611087565b84845461100c565b825550505050565b5f5f905090565b6110c46110b5565b6110cf818484611090565b505050565b5b818110156110f2576110e75f826110bc565b6001810190506110d5565b5050565b601f8211156111375761110881610fdf565b61111184610ff1565b81016020851015611120578190505b61113461112c85610ff1565b8301826110d4565b50505b505050565b5f82821c905092915050565b5f6111575f198460080261113c565b1980831691505092915050565b5f61116f8383611148565b9150826002028217905092915050565b61118882610be5565b67ffffffffffffffff8111156111a1576111a0610cdb565b5b6111ab8254610f47565b6111b68282856110f6565b5f60209050601f8311600181146111e7575f84156111d5578287015190505b6111df8582611164565b865550611246565b601f1984166111f586610fdf565b5f5b8281101561121c578489015182556001820191506020850194506020810190506111f7565b868310156112395784890151611235601f891682611148565b8355505b6001600288020188555050505b505050505050565b7f4e487b71000000000000000000000000000000000000000000000000000000005f52601160045260245ffd5b5f61128582610bb4565b91507fffffffffffffffffffffffffffffffffffffffffffffffffffffffffffffffff82036112b7576112b661124e565b5b600182019050919050565b5f6112cc82610bb4565b91506112d783610bb4565b92508282019050808211156112ef576112ee61124e565b5b92915050565b5f6080820190508181035f83015261130d8187610c1d565b905061131c6020830186610bbd565b6113296040830185610bbd565b6113366060830184610bbd565b95945050505050565b7f313020576f726b6f75747320436f6d706c6574656400000000000000000000005f82015250565b5f611373601583610bef565b915061137e8261133f565b602082019050919050565b5f6040820190508181035f8301526113a081611367565b90506113af6020830184610bbd565b92915050565b7f353020576f726b6f75747320436f6d706c6574656400000000000000000000005f82015250565b5f6113e9601583610bef565b91506113f4826113b5565b602082019050919050565b5f6040820190508181035f830152611416816113dd565b90506114256020830184610bbd565b92915050565b5f61143582610bb4565b915061144083610bb4565b92508282039050818111156114585761145761124e565b5b92915050565b7f3130304b20546f74616c2044697374616e6365000000000000000000000000005f82015250565b5f611492601383610bef565b915061149d8261145e565b602082019050919050565b5f6040820190508181035f8301526114bf81611486565b90506114ce6020830184610bbd565b92915050565b7f5573657220616c726561647920726567697374657265640000000000000000005f82015250565b5f611508601783610bef565b9150611513826114d4565b602082019050919050565b5f6020820190508181035f830152611535816114fc565b9050919050565b5f6040820190508181035f8301526115548185610c1d565b90506115636020830184610bbd565b9392505050565b5f61157482610bb4565b915061157f83610bb4565b925082820261158d81610bb4565b915082820484148315176115a4576115a361124e565b5b5092915050565b7f4e487b71000000000000000000000000000000000000000000000000000000005f52601260045260245ffd5b5f6115e282610bb4565b91506115ed83610bb4565b9250826115fd576115fc6115ab565b5b828204905092915050565b7f57656967687420476f616c2052656163686564000000000000000000000000005f82015250565b5f61163c601383610bef565b915061164782611608565b602082019050919050565b5f6040820190508181035f83015261166981611630565b90506116786020830184610bbd565b92915050565b5f6040820190506116915f830185610bbd565b61169e6020830184610bbd565b939250505056fea26469706673582212204731b019d00a2af1bfc3b397975e9029382aa770787f6a838423bd626bcc923464736f6c634300081e0033",
					"opcodes": "PUSH1 0x80 PUSH1 0x40 MSTORE CALLVALUE DUP1 ISZERO PUSH1 0xE JUMPI PUSH0 PUSH0 REVERT JUMPDEST POP CALLER PUSH0 PUSH0 PUSH2 0x100 EXP DUP2 SLOAD DUP2 PUSH20 0xFFFFFFFFFFFFFFFFFFFFFFFFFFFFFFFFFFFFFFFF MUL NOT AND SWAP1 DUP4 PUSH20 0xFFFFFFFFFFFFFFFFFFFFFFFFFFFFFFFFFFFFFFFF AND MUL OR SWAP1 SSTORE POP PUSH2 0x16DB DUP1 PUSH2 0x5B PUSH0 CODECOPY PUSH0 RETURN INVALID PUSH1 0x80 PUSH1 0x40 MSTORE CALLVALUE DUP1 ISZERO PUSH2 0xF JUMPI PUSH0 PUSH0 REVERT JUMPDEST POP PUSH1 0x4 CALLDATASIZE LT PUSH2 0x86 JUMPI PUSH0 CALLDATALOAD PUSH1 0xE0 SHR DUP1 PUSH4 0xAE5BDE4E GT PUSH2 0x59 JUMPI DUP1 PUSH4 0xAE5BDE4E EQ PUSH2 0x128 JUMPI DUP1 PUSH4 0xC5AF3F8C EQ PUSH2 0x158 JUMPI DUP1 PUSH4 0xD3951002 EQ PUSH2 0x174 JUMPI DUP1 PUSH4 0xEC3DF6AD EQ PUSH2 0x190 JUMPI PUSH2 0x86 JUMP JUMPDEST DUP1 PUSH4 0x3CDADDD EQ PUSH2 0x8A JUMPI DUP1 PUSH4 0x332D56D7 EQ PUSH2 0xBA JUMPI DUP1 PUSH4 0x613867DD EQ PUSH2 0xEC JUMPI DUP1 PUSH4 0x8DA5CB5B EQ PUSH2 0x10A JUMPI JUMPDEST PUSH0 PUSH0 REVERT JUMPDEST PUSH2 0xA4 PUSH1 0x4 DUP1 CALLDATASIZE SUB DUP2 ADD SWAP1 PUSH2 0x9F SWAP2 SWAP1 PUSH2 0xB89 JUMP JUMPDEST PUSH2 0x1AC JUMP JUMPDEST PUSH1 0x40 MLOAD PUSH2 0xB1 SWAP2 SWAP1 PUSH2 0xBCC JUMP JUMPDEST PUSH1 0x40 MLOAD DUP1 SWAP2 SUB SWAP1 RETURN JUMPDEST PUSH2 0xD4 PUSH1 0x4 DUP1 CALLDATASIZE SUB DUP2 ADD SWAP1 PUSH2 0xCF SWAP2 SWAP1 PUSH2 0xB89 JUMP JUMPDEST PUSH2 0x1C1 JUMP JUMPDEST PUSH1 0x40 MLOAD PUSH2 0xE3 SWAP4 SWAP3 SWAP2 SWAP1 PUSH2 0xC6F JUMP JUMPDEST PUSH1 0x40 MLOAD DUP1 SWAP2 SUB SWAP1 RETURN JUMPDEST PUSH2 0xF4 PUSH2 0x279 JUMP JUMPDEST PUSH1 0x40 MLOAD PUSH2 0x101 SWAP2 SWAP1 PUSH2 0xBCC JUMP JUMPDEST PUSH1 0x40 MLOAD DUP1 SWAP2 SUB SWAP1 RETURN JUMPDEST PUSH2 0x112 PUSH2 0x34C JUMP JUMPDEST PUSH1 0x40 MLOAD PUSH2 0x11F SWAP2 SWAP1 PUSH2 0xCBA JUMP JUMPDEST PUSH1 0x40 MLOAD DUP1 SWAP2 SUB SWAP1 RETURN JUMPDEST PUSH2 0x142 PUSH1 0x4 DUP1 CALLDATASIZE SUB DUP2 ADD SWAP1 PUSH2 0x13D SWAP2 SWAP1 PUSH2 0xB89 JUMP JUMPDEST PUSH2 0x370 JUMP JUMPDEST PUSH1 0x40 MLOAD PUSH2 0x14F SWAP2 SWAP1 PUSH2 0xBCC JUMP JUMPDEST PUSH1 0x40 MLOAD DUP1 SWAP2 SUB SWAP1 RETURN JUMPDEST PUSH2 0x172 PUSH1 0x4 DUP1 CALLDATASIZE SUB DUP2 ADD SWAP1 PUSH2 0x16D SWAP2 SWAP1 PUSH2 0xE29 JUMP JUMPDEST PUSH2 0x385 JUMP JUMPDEST STOP JUMPDEST PUSH2 0x18E PUSH1 0x4 DUP1 CALLDATASIZE SUB DUP2 ADD SWAP1 PUSH2 0x189 SWAP2 SWAP1 PUSH2 0xE95 JUMP JUMPDEST PUSH2 0x7E7 JUMP JUMPDEST STOP JUMPDEST PUSH2 0x1AA PUSH1 0x4 DUP1 CALLDATASIZE SUB DUP2 ADD SWAP1 PUSH2 0x1A5 SWAP2 SWAP1 PUSH2 0xEEF JUMP JUMPDEST PUSH2 0x963 JUMP JUMPDEST STOP JUMPDEST PUSH1 0x3 PUSH1 0x20 MSTORE DUP1 PUSH0 MSTORE PUSH1 0x40 PUSH0 KECCAK256 PUSH0 SWAP2 POP SWAP1 POP SLOAD DUP2 JUMP JUMPDEST PUSH1 0x1 PUSH1 0x20 MSTORE DUP1 PUSH0 MSTORE PUSH1 0x40 PUSH0 KECCAK256 PUSH0 SWAP2 POP SWAP1 POP DUP1 PUSH0 ADD DUP1 SLOAD PUSH2 0x1E0 SWAP1 PUSH2 0xF47 JUMP JUMPDEST DUP1 PUSH1 0x1F ADD PUSH1 0x20 DUP1 SWAP2 DIV MUL PUSH1 0x20 ADD PUSH1 0x40 MLOAD SWAP1 DUP2 ADD PUSH1 0x40 MSTORE DUP1 SWAP3 SWAP2 SWAP1 DUP2 DUP2 MSTORE PUSH1 0x20 ADD DUP3 DUP1 SLOAD PUSH2 0x20C SWAP1 PUSH2 0xF47 JUMP JUMPDEST DUP1 ISZERO PUSH2 0x257 JUMPI DUP1 PUSH1 0x1F LT PUSH2 0x22E JUMPI PUSH2 0x100 DUP1 DUP4 SLOAD DIV MUL DUP4 MSTORE SWAP2 PUSH1 0x20 ADD SWAP2 PUSH2 0x257 JUMP JUMPDEST DUP3 ADD SWAP2 SWAP1 PUSH0 MSTORE PUSH1 0x20 PUSH0 KECCAK256 SWAP1 JUMPDEST DUP2 SLOAD DUP2 MSTORE SWAP1 PUSH1 0x1 ADD SWAP1 PUSH1 0x20 ADD DUP1 DUP4 GT PUSH2 0x23A JUMPI DUP3 SWAP1 SUB PUSH1 0x1F AND DUP3 ADD SWAP2 JUMPDEST POP POP POP POP POP SWAP1 DUP1 PUSH1 0x1 ADD SLOAD SWAP1 DUP1 PUSH1 0x2 ADD PUSH0 SWAP1 SLOAD SWAP1 PUSH2 0x100 EXP SWAP1 DIV PUSH1 0xFF AND SWAP1 POP DUP4 JUMP JUMPDEST PUSH0 PUSH1 0x1 PUSH0 CALLER PUSH20 0xFFFFFFFFFFFFFFFFFFFFFFFFFFFFFFFFFFFFFFFF AND PUSH20 0xFFFFFFFFFFFFFFFFFFFFFFFFFFFFFFFFFFFFFFFF AND DUP2 MSTORE PUSH1 0x20 ADD SWAP1 DUP2 MSTORE PUSH1 0x20 ADD PUSH0 KECCAK256 PUSH1 0x2 ADD PUSH0 SWAP1 SLOAD SWAP1 PUSH2 0x100 EXP SWAP1 DIV PUSH1 0xFF AND PUSH2 0x306 JUMPI PUSH1 0x40 MLOAD PUSH32 0x8C379A000000000000000000000000000000000000000000000000000000000 DUP2 MSTORE PUSH1 0x4 ADD PUSH2 0x2FD SWAP1 PUSH2 0xFC1 JUMP JUMPDEST PUSH1 0x40 MLOAD DUP1 SWAP2 SUB SWAP1 REVERT JUMPDEST PUSH1 0x2 PUSH0 CALLER PUSH20 0xFFFFFFFFFFFFFFFFFFFFFFFFFFFFFFFFFFFFFFFF AND PUSH20 0xFFFFFFFFFFFFFFFFFFFFFFFFFFFFFFFFFFFFFFFF AND DUP2 MSTORE PUSH1 0x20 ADD SWAP1 DUP2 MSTORE PUSH1 0x20 ADD PUSH0 KECCAK256 DUP1 SLOAD SWAP1 POP SWAP1 POP SWAP1 JUMP JUMPDEST PUSH0 PUSH0 SWAP1 SLOAD SWAP1 PUSH2 0x100 EXP SWAP1 DIV PUSH20 0xFFFFFFFFFFFFFFFFFFFFFFFFFFFFFFFFFFFFFFFF AND DUP2 JUMP JUMPDEST PUSH1 0x4 PUSH1 0x20 MSTORE DUP1 PUSH0 MSTORE PUSH1 0x40 PUSH0 KECCAK256 PUSH0 SWAP2 POP SWAP1 POP SLOAD DUP2 JUMP JUMPDEST PUSH1 0x1 PUSH0 CALLER PUSH20 0xFFFFFFFFFFFFFFFFFFFFFFFFFFFFFFFFFFFFFFFF AND PUSH20 0xFFFFFFFFFFFFFFFFFFFFFFFFFFFFFFFFFFFFFFFF AND DUP2 MSTORE PUSH1 0x20 ADD SWAP1 DUP2 MSTORE PUSH1 0x20 ADD PUSH0 KECCAK256 PUSH1 0x2 ADD PUSH0 SWAP1 SLOAD SWAP1 PUSH2 0x100 EXP SWAP1 DIV PUSH1 0xFF AND PUSH2 0x411 JUMPI PUSH1 0x40 MLOAD PUSH32 0x8C379A000000000000000000000000000000000000000000000000000000000 DUP2 MSTORE PUSH1 0x4 ADD PUSH2 0x408 SWAP1 PUSH2 0xFC1 JUMP JUMPDEST PUSH1 0x40 MLOAD DUP1 SWAP2 SUB SWAP1 REVERT JUMPDEST PUSH0 PUSH1 0x40 MLOAD DUP1 PUSH1 0x80 ADD PUSH1 0x40 MSTORE DUP1 DUP6 DUP2 MSTORE PUSH1 0x20 ADD DUP5 DUP2 MSTORE PUSH1 0x20 ADD DUP4 DUP2 MSTORE PUSH1 0x20 ADD TIMESTAMP DUP2 MSTORE POP SWAP1 POP PUSH1 0x2 PUSH0 CALLER PUSH20 0xFFFFFFFFFFFFFFFFFFFFFFFFFFFFFFFFFFFFFFFF AND PUSH20 0xFFFFFFFFFFFFFFFFFFFFFFFFFFFFFFFFFFFFFFFF AND DUP2 MSTORE PUSH1 0x20 ADD SWAP1 DUP2 MSTORE PUSH1 0x20 ADD PUSH0 KECCAK256 DUP2 SWAP1 DUP1 PUSH1 0x1 DUP2 SLOAD ADD DUP1 DUP3 SSTORE DUP1 SWAP2 POP POP PUSH1 0x1 SWAP1 SUB SWAP1 PUSH0 MSTORE PUSH1 0x20 PUSH0 KECCAK256 SWAP1 PUSH1 0x4 MUL ADD PUSH0 SWAP1 SWAP2 SWAP1 SWAP2 SWAP1 SWAP2 POP PUSH0 DUP3 ADD MLOAD DUP2 PUSH0 ADD SWAP1 DUP2 PUSH2 0x4AC SWAP2 SWAP1 PUSH2 0x117F JUMP JUMPDEST POP PUSH1 0x20 DUP3 ADD MLOAD DUP2 PUSH1 0x1 ADD SSTORE PUSH1 0x40 DUP3 ADD MLOAD DUP2 PUSH1 0x2 ADD SSTORE PUSH1 0x60 DUP3 ADD MLOAD DUP2 PUSH1 0x3 ADD SSTORE POP POP PUSH1 0x3 PUSH0 CALLER PUSH20 0xFFFFFFFFFFFFFFFFFFFFFFFFFFFFFFFFFFFFFFFF AND PUSH20 0xFFFFFFFFFFFFFFFFFFFFFFFFFFFFFFFFFFFFFFFF AND DUP2 MSTORE PUSH1 0x20 ADD SWAP1 DUP2 MSTORE PUSH1 0x20 ADD PUSH0 KECCAK256 PUSH0 DUP2 SLOAD DUP1 SWAP3 SWAP2 SWAP1 PUSH2 0x51A SWAP1 PUSH2 0x127B JUMP JUMPDEST SWAP2 SWAP1 POP SSTORE POP DUP2 PUSH1 0x4 PUSH0 CALLER PUSH20 0xFFFFFFFFFFFFFFFFFFFFFFFFFFFFFFFFFFFFFFFF AND PUSH20 0xFFFFFFFFFFFFFFFFFFFFFFFFFFFFFFFFFFFFFFFF AND DUP2 MSTORE PUSH1 0x20 ADD SWAP1 DUP2 MSTORE PUSH1 0x20 ADD PUSH0 KECCAK256 PUSH0 DUP3 DUP3 SLOAD PUSH2 0x56B SWAP2 SWAP1 PUSH2 0x12C2 JUMP JUMPDEST SWAP3 POP POP DUP2 SWAP1 SSTORE POP CALLER PUSH20 0xFFFFFFFFFFFFFFFFFFFFFFFFFFFFFFFFFFFFFFFF AND PUSH32 0x587A8C232DA0D7B15371C5660FF1FDC5FBAF667E6A6B9B6587A378509038FD73 DUP6 DUP6 DUP6 TIMESTAMP PUSH1 0x40 MLOAD PUSH2 0x5BE SWAP5 SWAP4 SWAP3 SWAP2 SWAP1 PUSH2 0x12F5 JUMP JUMPDEST PUSH1 0x40 MLOAD DUP1 SWAP2 SUB SWAP1 LOG2 PUSH1 0xA PUSH1 0x3 PUSH0 CALLER PUSH20 0xFFFFFFFFFFFFFFFFFFFFFFFFFFFFFFFFFFFFFFFF AND PUSH20 0xFFFFFFFFFFFFFFFFFFFFFFFFFFFFFFFFFFFFFFFF AND DUP2 MSTORE PUSH1 0x20 ADD SWAP1 DUP2 MSTORE PUSH1 0x20 ADD PUSH0 KECCAK256 SLOAD SUB PUSH2 0x65E JUMPI CALLER PUSH20 0xFFFFFFFFFFFFFFFFFFFFFFFFFFFFFFFFFFFFFFFF AND PUSH32 0x8E330A58901AE7DBA0B65F495856EAB3FC73FC6CECA3DD7FBD2F4F9D14876E37 TIMESTAMP PUSH1 0x40 MLOAD PUSH2 0x651 SWAP2 SWAP1 PUSH2 0x1389 JUMP JUMPDEST PUSH1 0x40 MLOAD DUP1 SWAP2 SUB SWAP1 LOG2 PUSH2 0x6F3 JUMP JUMPDEST PUSH1 0x32 PUSH1 0x3 PUSH0 CALLER PUSH20 0xFFFFFFFFFFFFFFFFFFFFFFFFFFFFFFFFFFFFFFFF AND PUSH20 0xFFFFFFFFFFFFFFFFFFFFFFFFFFFFFFFFFFFFFFFF AND DUP2 MSTORE PUSH1 0x20 ADD SWAP1 DUP2 MSTORE PUSH1 0x20 ADD PUSH0 KECCAK256 SLOAD SUB PUSH2 0x6F2 JUMPI CALLER PUSH20 0xFFFFFFFFFFFFFFFFFFFFFFFFFFFFFFFFFFFFFFFF AND PUSH32 0x8E330A58901AE7DBA0B65F495856EAB3FC73FC6CECA3DD7FBD2F4F9D14876E37 TIMESTAMP PUSH1 0x40 MLOAD PUSH2 0x6E9 SWAP2 SWAP1 PUSH2 0x13FF JUMP JUMPDEST PUSH1 0x40 MLOAD DUP1 SWAP2 SUB SWAP1 LOG2 JUMPDEST JUMPDEST PUSH3 0x186A0 PUSH1 0x4 PUSH0 CALLER PUSH20 0xFFFFFFFFFFFFFFFFFFFFFFFFFFFFFFFFFFFFFFFF AND PUSH20 0xFFFFFFFFFFFFFFFFFFFFFFFFFFFFFFFFFFFFFFFF AND DUP2 MSTORE PUSH1 0x20 ADD SWAP1 DUP2 MSTORE PUSH1 0x20 ADD PUSH0 KECCAK256 SLOAD LT ISZERO DUP1 ISZERO PUSH2 0x78D JUMPI POP PUSH3 0x186A0 DUP3 PUSH1 0x4 PUSH0 CALLER PUSH20 0xFFFFFFFFFFFFFFFFFFFFFFFFFFFFFFFFFFFFFFFF AND PUSH20 0xFFFFFFFFFFFFFFFFFFFFFFFFFFFFFFFFFFFFFFFF AND DUP2 MSTORE PUSH1 0x20 ADD SWAP1 DUP2 MSTORE PUSH1 0x20 ADD PUSH0 KECCAK256 SLOAD PUSH2 0x78B SWAP2 SWAP1 PUSH2 0x142B JUMP JUMPDEST LT JUMPDEST ISZERO PUSH2 0x7E1 JUMPI CALLER PUSH20 0xFFFFFFFFFFFFFFFFFFFFFFFFFFFFFFFFFFFFFFFF AND PUSH32 0x8E330A58901AE7DBA0B65F495856EAB3FC73FC6CECA3DD7FBD2F4F9D14876E37 TIMESTAMP PUSH1 0x40 MLOAD PUSH2 0x7D8 SWAP2 SWAP1 PUSH2 0x14A8 JUMP JUMPDEST PUSH1 0x40 MLOAD DUP1 SWAP2 SUB SWAP1 LOG2 JUMPDEST POP POP POP POP JUMP JUMPDEST PUSH1 0x1 PUSH0 CALLER PUSH20 0xFFFFFFFFFFFFFFFFFFFFFFFFFFFFFFFFFFFFFFFF AND PUSH20 0xFFFFFFFFFFFFFFFFFFFFFFFFFFFFFFFFFFFFFFFF AND DUP2 MSTORE PUSH1 0x20 ADD SWAP1 DUP2 MSTORE PUSH1 0x20 ADD PUSH0 KECCAK256 PUSH1 0x2 ADD PUSH0 SWAP1 SLOAD SWAP1 PUSH2 0x100 EXP SWAP1 DIV PUSH1 0xFF AND ISZERO PUSH2 0x874 JUMPI PUSH1 0x40 MLOAD PUSH32 0x8C379A000000000000000000000000000000000000000000000000000000000 DUP2 MSTORE PUSH1 0x4 ADD PUSH2 0x86B SWAP1 PUSH2 0x151E JUMP JUMPDEST PUSH1 0x40 MLOAD DUP1 SWAP2 SUB SWAP1 REVERT JUMPDEST PUSH1 0x40 MLOAD DUP1 PUSH1 0x60 ADD PUSH1 0x40 MSTORE DUP1 DUP4 DUP2 MSTORE PUSH1 0x20 ADD DUP3 DUP2 MSTORE PUSH1 0x20 ADD PUSH1 0x1 ISZERO ISZERO DUP2 MSTORE POP PUSH1 0x1 PUSH0 CALLER PUSH20 0xFFFFFFFFFFFFFFFFFFFFFFFFFFFFFFFFFFFFFFFF AND PUSH20 0xFFFFFFFFFFFFFFFFFFFFFFFFFFFFFFFFFFFFFFFF AND DUP2 MSTORE PUSH1 0x20 ADD SWAP1 DUP2 MSTORE PUSH1 0x20 ADD PUSH0 KECCAK256 PUSH0 DUP3 ADD MLOAD DUP2 PUSH0 ADD SWAP1 DUP2 PUSH2 0x8E2 SWAP2 SWAP1 PUSH2 0x117F JUMP JUMPDEST POP PUSH1 0x20 DUP3 ADD MLOAD DUP2 PUSH1 0x1 ADD SSTORE PUSH1 0x40 DUP3 ADD MLOAD DUP2 PUSH1 0x2 ADD PUSH0 PUSH2 0x100 EXP DUP2 SLOAD DUP2 PUSH1 0xFF MUL NOT AND SWAP1 DUP4 ISZERO ISZERO MUL OR SWAP1 SSTORE POP SWAP1 POP POP CALLER PUSH20 0xFFFFFFFFFFFFFFFFFFFFFFFFFFFFFFFFFFFFFFFF AND PUSH32 0x89105A1C6A3C2FBD471255C66A31CCAB604AF5697F67D7E2E9A0028C5E4DBD91 DUP4 TIMESTAMP PUSH1 0x40 MLOAD PUSH2 0x957 SWAP3 SWAP2 SWAP1 PUSH2 0x153C JUMP JUMPDEST PUSH1 0x40 MLOAD DUP1 SWAP2 SUB SWAP1 LOG2 POP POP JUMP JUMPDEST PUSH1 0x1 PUSH0 CALLER PUSH20 0xFFFFFFFFFFFFFFFFFFFFFFFFFFFFFFFFFFFFFFFF AND PUSH20 0xFFFFFFFFFFFFFFFFFFFFFFFFFFFFFFFFFFFFFFFF AND DUP2 MSTORE PUSH1 0x20 ADD SWAP1 DUP2 MSTORE PUSH1 0x20 ADD PUSH0 KECCAK256 PUSH1 0x2 ADD PUSH0 SWAP1 SLOAD SWAP1 PUSH2 0x100 EXP SWAP1 DIV PUSH1 0xFF AND PUSH2 0x9EF JUMPI PUSH1 0x40 MLOAD PUSH32 0x8C379A000000000000000000000000000000000000000000000000000000000 DUP2 MSTORE PUSH1 0x4 ADD PUSH2 0x9E6 SWAP1 PUSH2 0xFC1 JUMP JUMPDEST PUSH1 0x40 MLOAD DUP1 SWAP2 SUB SWAP1 REVERT JUMPDEST PUSH0 PUSH1 0x1 PUSH0 CALLER PUSH20 0xFFFFFFFFFFFFFFFFFFFFFFFFFFFFFFFFFFFFFFFF AND PUSH20 0xFFFFFFFFFFFFFFFFFFFFFFFFFFFFFFFFFFFFFFFF AND DUP2 MSTORE PUSH1 0x20 ADD SWAP1 DUP2 MSTORE PUSH1 0x20 ADD PUSH0 KECCAK256 SWAP1 POP DUP1 PUSH1 0x1 ADD SLOAD DUP3 LT DUP1 ISZERO PUSH2 0xA6D JUMPI POP PUSH1 0x5 DUP2 PUSH1 0x1 ADD SLOAD PUSH1 0x64 DUP5 DUP5 PUSH1 0x1 ADD SLOAD PUSH2 0xA56 SWAP2 SWAP1 PUSH2 0x142B JUMP JUMPDEST PUSH2 0xA60 SWAP2 SWAP1 PUSH2 0x156A JUMP JUMPDEST PUSH2 0xA6A SWAP2 SWAP1 PUSH2 0x15D8 JUMP JUMPDEST LT ISZERO JUMPDEST ISZERO PUSH2 0xAC1 JUMPI CALLER PUSH20 0xFFFFFFFFFFFFFFFFFFFFFFFFFFFFFFFFFFFFFFFF AND PUSH32 0x8E330A58901AE7DBA0B65F495856EAB3FC73FC6CECA3DD7FBD2F4F9D14876E37 TIMESTAMP PUSH1 0x40 MLOAD PUSH2 0xAB8 SWAP2 SWAP1 PUSH2 0x1652 JUMP JUMPDEST PUSH1 0x40 MLOAD DUP1 SWAP2 SUB SWAP1 LOG2 JUMPDEST DUP2 DUP2 PUSH1 0x1 ADD DUP2 SWAP1 SSTORE POP CALLER PUSH20 0xFFFFFFFFFFFFFFFFFFFFFFFFFFFFFFFFFFFFFFFF AND PUSH32 0x5826151879C9A557068BA4E389BA7F00512DB472CC81778EA86696B2B0F5AFD DUP4 TIMESTAMP PUSH1 0x40 MLOAD PUSH2 0xB12 SWAP3 SWAP2 SWAP1 PUSH2 0x167E JUMP JUMPDEST PUSH1 0x40 MLOAD DUP1 SWAP2 SUB SWAP1 LOG2 POP POP JUMP JUMPDEST PUSH0 PUSH1 0x40 MLOAD SWAP1 POP SWAP1 JUMP JUMPDEST PUSH0 PUSH0 REVERT JUMPDEST PUSH0 PUSH0 REVERT JUMPDEST PUSH0 PUSH20 0xFFFFFFFFFFFFFFFFFFFFFFFFFFFFFFFFFFFFFFFF DUP3 AND SWAP1 POP SWAP2 SWAP1 POP JUMP JUMPDEST PUSH0 PUSH2 0xB58 DUP3 PUSH2 0xB2F JUMP JUMPDEST SWAP1 POP SWAP2 SWAP1 POP JUMP JUMPDEST PUSH2 0xB68 DUP2 PUSH2 0xB4E JUMP JUMPDEST DUP2 EQ PUSH2 0xB72 JUMPI PUSH0 PUSH0 REVERT JUMPDEST POP JUMP JUMPDEST PUSH0 DUP2 CALLDATALOAD SWAP1 POP PUSH2 0xB83 DUP2 PUSH2 0xB5F JUMP JUMPDEST SWAP3 SWAP2 POP POP JUMP JUMPDEST PUSH0 PUSH1 0x20 DUP3 DUP5 SUB SLT ISZERO PUSH2 0xB9E JUMPI PUSH2 0xB9D PUSH2 0xB27 JUMP JUMPDEST JUMPDEST PUSH0 PUSH2 0xBAB DUP5 DUP3 DUP6 ADD PUSH2 0xB75 JUMP JUMPDEST SWAP2 POP POP SWAP3 SWAP2 POP POP JUMP JUMPDEST PUSH0 DUP2 SWAP1 POP SWAP2 SWAP1 POP JUMP JUMPDEST PUSH2 0xBC6 DUP2 PUSH2 0xBB4 JUMP JUMPDEST DUP3 MSTORE POP POP JUMP JUMPDEST PUSH0 PUSH1 0x20 DUP3 ADD SWAP1 POP PUSH2 0xBDF PUSH0 DUP4 ADD DUP5 PUSH2 0xBBD JUMP JUMPDEST SWAP3 SWAP2 POP POP JUMP JUMPDEST PUSH0 DUP2 MLOAD SWAP1 POP SWAP2 SWAP1 POP JUMP JUMPDEST PUSH0 DUP3 DUP3 MSTORE PUSH1 0x20 DUP3 ADD SWAP1 POP SWAP3 SWAP2 POP POP JUMP JUMPDEST DUP3 DUP2 DUP4 MCOPY PUSH0 DUP4 DUP4 ADD MSTORE POP POP POP JUMP JUMPDEST PUSH0 PUSH1 0x1F NOT PUSH1 0x1F DUP4 ADD AND SWAP1 POP SWAP2 SWAP1 POP JUMP JUMPDEST PUSH0 PUSH2 0xC27 DUP3 PUSH2 0xBE5 JUMP JUMPDEST PUSH2 0xC31 DUP2 DUP6 PUSH2 0xBEF JUMP JUMPDEST SWAP4 POP PUSH2 0xC41 DUP2 DUP6 PUSH1 0x20 DUP7 ADD PUSH2 0xBFF JUMP JUMPDEST PUSH2 0xC4A DUP2 PUSH2 0xC0D JUMP JUMPDEST DUP5 ADD SWAP2 POP POP SWAP3 SWAP2 POP POP JUMP JUMPDEST PUSH0 DUP2 ISZERO ISZERO SWAP1 POP SWAP2 SWAP1 POP JUMP JUMPDEST PUSH2 0xC69 DUP2 PUSH2 0xC55 JUMP JUMPDEST DUP3 MSTORE POP POP JUMP JUMPDEST PUSH0 PUSH1 0x60 DUP3 ADD SWAP1 POP DUP2 DUP2 SUB PUSH0 DUP4 ADD MSTORE PUSH2 0xC87 DUP2 DUP7 PUSH2 0xC1D JUMP JUMPDEST SWAP1 POP PUSH2 0xC96 PUSH1 0x20 DUP4 ADD DUP6 PUSH2 0xBBD JUMP JUMPDEST PUSH2 0xCA3 PUSH1 0x40 DUP4 ADD DUP5 PUSH2 0xC60 JUMP JUMPDEST SWAP5 SWAP4 POP POP POP POP JUMP JUMPDEST PUSH2 0xCB4 DUP2 PUSH2 0xB4E JUMP JUMPDEST DUP3 MSTORE POP POP JUMP JUMPDEST PUSH0 PUSH1 0x20 DUP3 ADD SWAP1 POP PUSH2 0xCCD PUSH0 DUP4 ADD DUP5 PUSH2 0xCAB JUMP JUMPDEST SWAP3 SWAP2 POP POP JUMP JUMPDEST PUSH0 PUSH0 REVERT JUMPDEST PUSH0 PUSH0 REVERT JUMPDEST PUSH32 0x4E487B7100000000000000000000000000000000000000000000000000000000 PUSH0 MSTORE PUSH1 0x41 PUSH1 0x4 MSTORE PUSH1 0x24 PUSH0 REVERT JUMPDEST PUSH2 0xD11 DUP3 PUSH2 0xC0D JUMP JUMPDEST DUP2 ADD DUP2 DUP2 LT PUSH8 0xFFFFFFFFFFFFFFFF DUP3 GT OR ISZERO PUSH2 0xD30 JUMPI PUSH2 0xD2F PUSH2 0xCDB JUMP JUMPDEST JUMPDEST DUP1 PUSH1 0x40 MSTORE POP POP POP JUMP JUMPDEST PUSH0 PUSH2 0xD42 PUSH2 0xB1E JUMP JUMPDEST SWAP1 POP PUSH2 0xD4E DUP3 DUP3 PUSH2 0xD08 JUMP JUMPDEST SWAP2 SWAP1 POP JUMP JUMPDEST PUSH0 PUSH8 0xFFFFFFFFFFFFFFFF DUP3 GT ISZERO PUSH2 0xD6D JUMPI PUSH2 0xD6C PUSH2 0xCDB JUMP JUMPDEST JUMPDEST PUSH2 0xD76 DUP3 PUSH2 0xC0D JUMP JUMPDEST SWAP1 POP PUSH1 0x20 DUP2 ADD SWAP1 POP SWAP2 SWAP1 POP JUMP JUMPDEST DUP3 DUP2 DUP4 CALLDATACOPY PUSH0 DUP4 DUP4 ADD MSTORE POP POP POP JUMP JUMPDEST PUSH0 PUSH2 0xDA3 PUSH2 0xD9E DUP5 PUSH2 0xD53 JUMP JUMPDEST PUSH2 0xD39 JUMP JUMPDEST SWAP1 POP DUP3 DUP2 MSTORE PUSH1 0x20 DUP2 ADD DUP5 DUP5 DUP5 ADD GT ISZERO PUSH2 0xDBF JUMPI PUSH2 0xDBE PUSH2 0xCD7 JUMP JUMPDEST JUMPDEST PUSH2 0xDCA DUP5 DUP3 DUP6 PUSH2 0xD83 JUMP JUMPDEST POP SWAP4 SWAP3 POP POP POP JUMP JUMPDEST PUSH0 DUP3 PUSH1 0x1F DUP4 ADD SLT PUSH2 0xDE6 JUMPI PUSH2 0xDE5 PUSH2 0xCD3 JUMP JUMPDEST JUMPDEST DUP2 CALLDATALOAD PUSH2 0xDF6 DUP5 DUP3 PUSH1 0x20 DUP7 ADD PUSH2 0xD91 JUMP JUMPDEST SWAP2 POP POP SWAP3 SWAP2 POP POP JUMP JUMPDEST PUSH2 0xE08 DUP2 PUSH2 0xBB4 JUMP JUMPDEST DUP2 EQ PUSH2 0xE12 JUMPI PUSH0 PUSH0 REVERT JUMPDEST POP JUMP JUMPDEST PUSH0 DUP2 CALLDATALOAD SWAP1 POP PUSH2 0xE23 DUP2 PUSH2 0xDFF JUMP JUMPDEST SWAP3 SWAP2 POP POP JUMP JUMPDEST PUSH0 PUSH0 PUSH0 PUSH1 0x60 DUP5 DUP7 SUB SLT ISZERO PUSH2 0xE40 JUMPI PUSH2 0xE3F PUSH2 0xB27 JUMP JUMPDEST JUMPDEST PUSH0 DUP5 ADD CALLDATALOAD PUSH8 0xFFFFFFFFFFFFFFFF DUP2 GT ISZERO PUSH2 0xE5D JUMPI PUSH2 0xE5C PUSH2 0xB2B JUMP JUMPDEST JUMPDEST PUSH2 0xE69 DUP7 DUP3 DUP8 ADD PUSH2 0xDD2 JUMP JUMPDEST SWAP4 POP POP PUSH1 0x20 PUSH2 0xE7A DUP7 DUP3 DUP8 ADD PUSH2 0xE15 JUMP JUMPDEST SWAP3 POP POP PUSH1 0x40 PUSH2 0xE8B DUP7 DUP3 DUP8 ADD PUSH2 0xE15 JUMP JUMPDEST SWAP2 POP POP SWAP3 POP SWAP3 POP SWAP3 JUMP JUMPDEST PUSH0 PUSH0 PUSH1 0x40 DUP4 DUP6 SUB SLT ISZERO PUSH2 0xEAB JUMPI PUSH2 0xEAA PUSH2 0xB27 JUMP JUMPDEST JUMPDEST PUSH0 DUP4 ADD CALLDATALOAD PUSH8 0xFFFFFFFFFFFFFFFF DUP2 GT ISZERO PUSH2 0xEC8 JUMPI PUSH2 0xEC7 PUSH2 0xB2B JUMP JUMPDEST JUMPDEST PUSH2 0xED4 DUP6 DUP3 DUP7 ADD PUSH2 0xDD2 JUMP JUMPDEST SWAP3 POP POP PUSH1 0x20 PUSH2 0xEE5 DUP6 DUP3 DUP7 ADD PUSH2 0xE15 JUMP JUMPDEST SWAP2 POP POP SWAP3 POP SWAP3 SWAP1 POP JUMP JUMPDEST PUSH0 PUSH1 0x20 DUP3 DUP5 SUB SLT ISZERO PUSH2 0xF04 JUMPI PUSH2 0xF03 PUSH2 0xB27 JUMP JUMPDEST JUMPDEST PUSH0 PUSH2 0xF11 DUP5 DUP3 DUP6 ADD PUSH2 0xE15 JUMP JUMPDEST SWAP2 POP POP SWAP3 SWAP2 POP POP JUMP JUMPDEST PUSH32 0x4E487B7100000000000000000000000000000000000000000000000000000000 PUSH0 MSTORE PUSH1 0x22 PUSH1 0x4 MSTORE PUSH1 0x24 PUSH0 REVERT JUMPDEST PUSH0 PUSH1 0x2 DUP3 DIV SWAP1 POP PUSH1 0x1 DUP3 AND DUP1 PUSH2 0xF5E JUMPI PUSH1 0x7F DUP3 AND SWAP2 POP JUMPDEST PUSH1 0x20 DUP3 LT DUP2 SUB PUSH2 0xF71 JUMPI PUSH2 0xF70 PUSH2 0xF1A JUMP JUMPDEST JUMPDEST POP SWAP2 SWAP1 POP JUMP JUMPDEST PUSH32 0x55736572206E6F74207265676973746572656400000000000000000000000000 PUSH0 DUP3 ADD MSTORE POP JUMP JUMPDEST PUSH0 PUSH2 0xFAB PUSH1 0x13 DUP4 PUSH2 0xBEF JUMP JUMPDEST SWAP2 POP PUSH2 0xFB6 DUP3 PUSH2 0xF77 JUMP JUMPDEST PUSH1 0x20 DUP3 ADD SWAP1 POP SWAP2 SWAP1 POP JUMP JUMPDEST PUSH0 PUSH1 0x20 DUP3 ADD SWAP1 POP DUP2 DUP2 SUB PUSH0 DUP4 ADD MSTORE PUSH2 0xFD8 DUP2 PUSH2 0xF9F JUMP JUMPDEST SWAP1 POP SWAP2 SWAP1 POP JUMP JUMPDEST PUSH0 DUP2 SWAP1 POP DUP2 PUSH0 MSTORE PUSH1 0x20 PUSH0 KECCAK256 SWAP1 POP SWAP2 SWAP1 POP JUMP JUMPDEST PUSH0 PUSH1 0x20 PUSH1 0x1F DUP4 ADD DIV SWAP1 POP SWAP2 SWAP1 POP JUMP JUMPDEST PUSH0 DUP3 DUP3 SHL SWAP1 POP SWAP3 SWAP2 POP POP JUMP JUMPDEST PUSH0 PUSH1 0x8 DUP4 MUL PUSH2 0x103B PUSH32 0xFFFFFFFFFFFFFFFFFFFFFFFFFFFFFFFFFFFFFFFFFFFFFFFFFFFFFFFFFFFFFFFF DUP3 PUSH2 0x1000 JUMP JUMPDEST PUSH2 0x1045 DUP7 DUP4 PUSH2 0x1000 JUMP JUMPDEST SWAP6 POP DUP1 NOT DUP5 AND SWAP4 POP DUP1 DUP7 AND DUP5 OR SWAP3 POP POP POP SWAP4 SWAP3 POP POP POP JUMP JUMPDEST PUSH0 DUP2 SWAP1 POP SWAP2 SWAP1 POP JUMP JUMPDEST PUSH0 PUSH2 0x1080 PUSH2 0x107B PUSH2 0x1076 DUP5 PUSH2 0xBB4 JUMP JUMPDEST PUSH2 0x105D JUMP JUMPDEST PUSH2 0xBB4 JUMP JUMPDEST SWAP1 POP SWAP2 SWAP1 POP JUMP JUMPDEST PUSH0 DUP2 SWAP1 POP SWAP2 SWAP1 POP JUMP JUMPDEST PUSH2 0x1099 DUP4 PUSH2 0x1066 JUMP JUMPDEST PUSH2 0x10AD PUSH2 0x10A5 DUP3 PUSH2 0x1087 JUMP JUMPDEST DUP5 DUP5 SLOAD PUSH2 0x100C JUMP JUMPDEST DUP3 SSTORE POP POP POP POP JUMP JUMPDEST PUSH0 PUSH0 SWAP1 POP SWAP1 JUMP JUMPDEST PUSH2 0x10C4 PUSH2 0x10B5 JUMP JUMPDEST PUSH2 0x10CF DUP2 DUP5 DUP5 PUSH2 0x1090 JUMP JUMPDEST POP POP POP JUMP JUMPDEST JUMPDEST DUP2 DUP2 LT ISZERO PUSH2 0x10F2 JUMPI PUSH2 0x10E7 PUSH0 DUP3 PUSH2 0x10BC JUMP JUMPDEST PUSH1 0x1 DUP2 ADD SWAP1 POP PUSH2 0x10D5 JUMP JUMPDEST POP POP JUMP JUMPDEST PUSH1 0x1F DUP3 GT ISZERO PUSH2 0x1137 JUMPI PUSH2 0x1108 DUP2 PUSH2 0xFDF JUMP JUMPDEST PUSH2 0x1111 DUP5 PUSH2 0xFF1 JUMP JUMPDEST DUP2 ADD PUSH1 0x20 DUP6 LT ISZERO PUSH2 0x1120 JUMPI DUP2 SWAP1 POP JUMPDEST PUSH2 0x1134 PUSH2 0x112C DUP6 PUSH2 0xFF1 JUMP JUMPDEST DUP4 ADD DUP3 PUSH2 0x10D4 JUMP JUMPDEST POP POP JUMPDEST POP POP POP JUMP JUMPDEST PUSH0 DUP3 DUP3 SHR SWAP1 POP SWAP3 SWAP2 POP POP JUMP JUMPDEST PUSH0 PUSH2 0x1157 PUSH0 NOT DUP5 PUSH1 0x8 MUL PUSH2 0x113C JUMP JUMPDEST NOT DUP1 DUP4 AND SWAP2 POP POP SWAP3 SWAP2 POP POP JUMP JUMPDEST PUSH0 PUSH2 0x116F DUP4 DUP4 PUSH2 0x1148 JUMP JUMPDEST SWAP2 POP DUP3 PUSH1 0x2 MUL DUP3 OR SWAP1 POP SWAP3 SWAP2 POP POP JUMP JUMPDEST PUSH2 0x1188 DUP3 PUSH2 0xBE5 JUMP JUMPDEST PUSH8 0xFFFFFFFFFFFFFFFF DUP2 GT ISZERO PUSH2 0x11A1 JUMPI PUSH2 0x11A0 PUSH2 0xCDB JUMP JUMPDEST JUMPDEST PUSH2 0x11AB DUP3 SLOAD PUSH2 0xF47 JUMP JUMPDEST PUSH2 0x11B6 DUP3 DUP3 DUP6 PUSH2 0x10F6 JUMP JUMPDEST PUSH0 PUSH1 0x20 SWAP1 POP PUSH1 0x1F DUP4 GT PUSH1 0x1 DUP2 EQ PUSH2 0x11E7 JUMPI PUSH0 DUP5 ISZERO PUSH2 0x11D5 JUMPI DUP3 DUP8 ADD MLOAD SWAP1 POP JUMPDEST PUSH2 0x11DF DUP6 DUP3 PUSH2 0x1164 JUMP JUMPDEST DUP7 SSTORE POP PUSH2 0x1246 JUMP JUMPDEST PUSH1 0x1F NOT DUP5 AND PUSH2 0x11F5 DUP7 PUSH2 0xFDF JUMP JUMPDEST PUSH0 JUMPDEST DUP3 DUP2 LT ISZERO PUSH2 0x121C JUMPI DUP5 DUP10 ADD MLOAD DUP3 SSTORE PUSH1 0x1 DUP3 ADD SWAP2 POP PUSH1 0x20 DUP6 ADD SWAP5 POP PUSH1 0x20 DUP2 ADD SWAP1 POP PUSH2 0x11F7 JUMP JUMPDEST DUP7 DUP4 LT ISZERO PUSH2 0x1239 JUMPI DUP5 DUP10 ADD MLOAD PUSH2 0x1235 PUSH1 0x1F DUP10 AND DUP3 PUSH2 0x1148 JUMP JUMPDEST DUP4 SSTORE POP JUMPDEST PUSH1 0x1 PUSH1 0x2 DUP9 MUL ADD DUP9 SSTORE POP POP POP JUMPDEST POP POP POP POP POP POP JUMP JUMPDEST PUSH32 0x4E487B7100000000000000000000000000000000000000000000000000000000 PUSH0 MSTORE PUSH1 0x11 PUSH1 0x4 MSTORE PUSH1 0x24 PUSH0 REVERT JUMPDEST PUSH0 PUSH2 0x1285 DUP3 PUSH2 0xBB4 JUMP JUMPDEST SWAP2 POP PUSH32 0xFFFFFFFFFFFFFFFFFFFFFFFFFFFFFFFFFFFFFFFFFFFFFFFFFFFFFFFFFFFFFFFF DUP3 SUB PUSH2 0x12B7 JUMPI PUSH2 0x12B6 PUSH2 0x124E JUMP JUMPDEST JUMPDEST PUSH1 0x1 DUP3 ADD SWAP1 POP SWAP2 SWAP1 POP JUMP JUMPDEST PUSH0 PUSH2 0x12CC DUP3 PUSH2 0xBB4 JUMP JUMPDEST SWAP2 POP PUSH2 0x12D7 DUP4 PUSH2 0xBB4 JUMP JUMPDEST SWAP3 POP DUP3 DUP3 ADD SWAP1 POP DUP1 DUP3 GT ISZERO PUSH2 0x12EF JUMPI PUSH2 0x12EE PUSH2 0x124E JUMP JUMPDEST JUMPDEST SWAP3 SWAP2 POP POP JUMP JUMPDEST PUSH0 PUSH1 0x80 DUP3 ADD SWAP1 POP DUP2 DUP2 SUB PUSH0 DUP4 ADD MSTORE PUSH2 0x130D DUP2 DUP8 PUSH2 0xC1D JUMP JUMPDEST SWAP1 POP PUSH2 0x131C PUSH1 0x20 DUP4 ADD DUP7 PUSH2 0xBBD JUMP JUMPDEST PUSH2 0x1329 PUSH1 0x40 DUP4 ADD DUP6 PUSH2 0xBBD JUMP JUMPDEST PUSH2 0x1336 PUSH1 0x60 DUP4 ADD DUP5 PUSH2 0xBBD JUMP JUMPDEST SWAP6 SWAP5 POP POP POP POP POP JUMP JUMPDEST PUSH32 0x313020576F726B6F75747320436F6D706C657465640000000000000000000000 PUSH0 DUP3 ADD MSTORE POP JUMP JUMPDEST PUSH0 PUSH2 0x1373 PUSH1 0x15 DUP4 PUSH2 0xBEF JUMP JUMPDEST SWAP2 POP PUSH2 0x137E DUP3 PUSH2 0x133F JUMP JUMPDEST PUSH1 0x20 DUP3 ADD SWAP1 POP SWAP2 SWAP1 POP JUMP JUMPDEST PUSH0 PUSH1 0x40 DUP3 ADD SWAP1 POP DUP2 DUP2 SUB PUSH0 DUP4 ADD MSTORE PUSH2 0x13A0 DUP2 PUSH2 0x1367 JUMP JUMPDEST SWAP1 POP PUSH2 0x13AF PUSH1 0x20 DUP4 ADD DUP5 PUSH2 0xBBD JUMP JUMPDEST SWAP3 SWAP2 POP POP JUMP JUMPDEST PUSH32 0x353020576F726B6F75747320436F6D706C657465640000000000000000000000 PUSH0 DUP3 ADD MSTORE POP JUMP JUMPDEST PUSH0 PUSH2 0x13E9 PUSH1 0x15 DUP4 PUSH2 0xBEF JUMP JUMPDEST SWAP2 POP PUSH2 0x13F4 DUP3 PUSH2 0x13B5 JUMP JUMPDEST PUSH1 0x20 DUP3 ADD SWAP1 POP SWAP2 SWAP1 POP JUMP JUMPDEST PUSH0 PUSH1 0x40 DUP3 ADD SWAP1 POP DUP2 DUP2 SUB PUSH0 DUP4 ADD MSTORE PUSH2 0x1416 DUP2 PUSH2 0x13DD JUMP JUMPDEST SWAP1 POP PUSH2 0x1425 PUSH1 0x20 DUP4 ADD DUP5 PUSH2 0xBBD JUMP JUMPDEST SWAP3 SWAP2 POP POP JUMP JUMPDEST PUSH0 PUSH2 0x1435 DUP3 PUSH2 0xBB4 JUMP JUMPDEST SWAP2 POP PUSH2 0x1440 DUP4 PUSH2 0xBB4 JUMP JUMPDEST SWAP3 POP DUP3 DUP3 SUB SWAP1 POP DUP2 DUP2 GT ISZERO PUSH2 0x1458 JUMPI PUSH2 0x1457 PUSH2 0x124E JUMP JUMPDEST JUMPDEST SWAP3 SWAP2 POP POP JUMP JUMPDEST PUSH32 0x3130304B20546F74616C2044697374616E636500000000000000000000000000 PUSH0 DUP3 ADD MSTORE POP JUMP JUMPDEST PUSH0 PUSH2 0x1492 PUSH1 0x13 DUP4 PUSH2 0xBEF JUMP JUMPDEST SWAP2 POP PUSH2 0x149D DUP3 PUSH2 0x145E JUMP JUMPDEST PUSH1 0x20 DUP3 ADD SWAP1 POP SWAP2 SWAP1 POP JUMP JUMPDEST PUSH0 PUSH1 0x40 DUP3 ADD SWAP1 POP DUP2 DUP2 SUB PUSH0 DUP4 ADD MSTORE PUSH2 0x14BF DUP2 PUSH2 0x1486 JUMP JUMPDEST SWAP1 POP PUSH2 0x14CE PUSH1 0x20 DUP4 ADD DUP5 PUSH2 0xBBD JUMP JUMPDEST SWAP3 SWAP2 POP POP JUMP JUMPDEST PUSH32 0x5573657220616C72656164792072656769737465726564000000000000000000 PUSH0 DUP3 ADD MSTORE POP JUMP JUMPDEST PUSH0 PUSH2 0x1508 PUSH1 0x17 DUP4 PUSH2 0xBEF JUMP JUMPDEST SWAP2 POP PUSH2 0x1513 DUP3 PUSH2 0x14D4 JUMP JUMPDEST PUSH1 0x20 DUP3 ADD SWAP1 POP SWAP2 SWAP1 POP JUMP JUMPDEST PUSH0 PUSH1 0x20 DUP3 ADD SWAP1 POP DUP2 DUP2 SUB PUSH0 DUP4 ADD MSTORE PUSH2 0x1535 DUP2 PUSH2 0x14FC JUMP JUMPDEST SWAP1 POP SWAP2 SWAP1 POP JUMP JUMPDEST PUSH0 PUSH1 0x40 DUP3 ADD SWAP1 POP DUP2 DUP2 SUB PUSH0 DUP4 ADD MSTORE PUSH2 0x1554 DUP2 DUP6 PUSH2 0xC1D JUMP JUMPDEST SWAP1 POP PUSH2 0x1563 PUSH1 0x20 DUP4 ADD DUP5 PUSH2 0xBBD JUMP JUMPDEST SWAP4 SWAP3 POP POP POP JUMP JUMPDEST PUSH0 PUSH2 0x1574 DUP3 PUSH2 0xBB4 JUMP JUMPDEST SWAP2 POP PUSH2 0x157F DUP4 PUSH2 0xBB4 JUMP JUMPDEST SWAP3 POP DUP3 DUP3 MUL PUSH2 0x158D DUP2 PUSH2 0xBB4 JUMP JUMPDEST SWAP2 POP DUP3 DUP3 DIV DUP5 EQ DUP4 ISZERO OR PUSH2 0x15A4 JUMPI PUSH2 0x15A3 PUSH2 0x124E JUMP JUMPDEST JUMPDEST POP SWAP3 SWAP2 POP POP JUMP JUMPDEST PUSH32 0x4E487B7100000000000000000000000000000000000000000000000000000000 PUSH0 MSTORE PUSH1 0x12 PUSH1 0x4 MSTORE PUSH1 0x24 PUSH0 REVERT JUMPDEST PUSH0 PUSH2 0x15E2 DUP3 PUSH2 0xBB4 JUMP JUMPDEST SWAP2 POP PUSH2 0x15ED DUP4 PUSH2 0xBB4 JUMP JUMPDEST SWAP3 POP DUP3 PUSH2 0x15FD JUMPI PUSH2 0x15FC PUSH2 0x15AB JUMP JUMPDEST JUMPDEST DUP3 DUP3 DIV SWAP1 POP SWAP3 SWAP2 POP POP JUMP JUMPDEST PUSH32 0x57656967687420476F616C205265616368656400000000000000000000000000 PUSH0 DUP3 ADD MSTORE POP JUMP JUMPDEST PUSH0 PUSH2 0x163C PUSH1 0x13 DUP4 PUSH2 0xBEF JUMP JUMPDEST SWAP2 POP PUSH2 0x1647 DUP3 PUSH2 0x1608 JUMP JUMPDEST PUSH1 0x20 DUP3 ADD SWAP1 POP SWAP2 SWAP1 POP JUMP JUMPDEST PUSH0 PUSH1 0x40 DUP3 ADD SWAP1 POP DUP2 DUP2 SUB PUSH0 DUP4 ADD MSTORE PUSH2 0x1669 DUP2 PUSH2 0x1630 JUMP JUMPDEST SWAP1 POP PUSH2 0x1678 PUSH1 0x20 DUP4 ADD DUP5 PUSH2 0xBBD JUMP JUMPDEST SWAP3 SWAP2 POP POP JUMP JUMPDEST PUSH0 PUSH1 0x40 DUP3 ADD SWAP1 POP PUSH2 0x1691 PUSH0 DUP4 ADD DUP6 PUSH2 0xBBD JUMP JUMPDEST PUSH2 0x169E PUSH1 0x20 DUP4 ADD DUP5 PUSH2 0xBBD JUMP JUMPDEST SWAP4 SWAP3 POP POP POP JUMP INVALID LOG2 PUSH5 0x6970667358 0x22 SLT KECCAK256 SELFBALANCE BALANCE 0xB0 NOT 0xD0 EXP 0x2A CALL 0xBF 0xC3 0xB3 SWAP8 SWAP8 MCOPY SWAP1 0x29 CODESIZE 0x2A 0xA7 PUSH17 0x787F6A838423BD626BCC923464736F6C63 NUMBER STOP ADDMOD 0x1E STOP CALLER "
				},
				"gasEstimates": {
					"creation": {
						"codeDepositCost": "1170200",
						"executionCost": "25476",
						"totalCost": "1195676"
					},
					"external": {
						"getUserWorkoutCount()": "4817",
						"logWorkout(string,uint256,uint256)": "infinite",
						"owner()": "2574",
						"registerUser(string,uint256)": "infinite",
						"totalDistance(address)": "2802",
						"totalWorkouts(address)": "2803",
						"updateWeight(uint256)": "infinite",
						"userProfiles(address)": "infinite"
					}
				},
				"methodIdentifiers": {
					"getUserWorkoutCount()": "613867dd",
					"logWorkout(string,uint256,uint256)": "c5af3f8c",
					"owner()": "8da5cb5b",
					"registerUser(string,uint256)": "d3951002",
					"totalDistance(address)": "ae5bde4e",
					"totalWorkouts(address)": "03cdaddd",
					"updateWeight(uint256)": "ec3df6ad",
					"userProfiles(address)": "332d56d7"
				}
			},
			"storageLayout": {
				"storage": [
					{
						"astId": 3,
						"contract": "submissions/Zora/Day10Activity Tracker.sol:SimpleFitnessTracker",
						"label": "owner",
						"offset": 0,
						"slot": "0",
						"type": "t_address"
					},
					{
						"astId": 24,
						"contract": "submissions/Zora/Day10Activity Tracker.sol:SimpleFitnessTracker",
						"label": "userProfiles",
						"offset": 0,
						"slot": "1",
						"type": "t_mapping(t_address,t_struct(UserProfile)10_storage)"
					},
					{
						"astId": 30,
						"contract": "submissions/Zora/Day10Activity Tracker.sol:SimpleFitnessTracker",
						"label": "workoutHistory",
						"offset": 0,
						"slot": "2",
						"type": "t_mapping(t_address,t_array(t_struct(WorkoutActivity)19_storage)dyn_storage)"
					},
					{
						"astId": 34,
						"contract": "submissions/Zora/Day10Activity Tracker.sol:SimpleFitnessTracker",
						"label": "totalWorkouts",
						"offset": 0,
						"slot": "3",
						"type": "t_mapping(t_address,t_uint256)"
					},
					{
						"astId": 38,
						"contract": "submissions/Zora/Day10Activity Tracker.sol:SimpleFitnessTracker",
						"label": "totalDistance",
						"offset": 0,
						"slot": "4",
						"type": "t_mapping(t_address,t_uint256)"
					}
				],
				"types": {
					"t_address": {
						"encoding": "inplace",
						"label": "address",
						"numberOfBytes": "20"
					},
					"t_array(t_struct(WorkoutActivity)19_storage)dyn_storage": {
						"base": "t_struct(WorkoutActivity)19_storage",
						"encoding": "dynamic_array",
						"label": "struct SimpleFitnessTracker.WorkoutActivity[]",
						"numberOfBytes": "32"
					},
					"t_bool": {
						"encoding": "inplace",
						"label": "bool",
						"numberOfBytes": "1"
					},
					"t_mapping(t_address,t_array(t_struct(WorkoutActivity)19_storage)dyn_storage)": {
						"encoding": "mapping",
						"key": "t_address",
						"label": "mapping(address => struct SimpleFitnessTracker.WorkoutActivity[])",
						"numberOfBytes": "32",
						"value": "t_array(t_struct(WorkoutActivity)19_storage)dyn_storage"
					},
					"t_mapping(t_address,t_struct(UserProfile)10_storage)": {
						"encoding": "mapping",
						"key": "t_address",
						"label": "mapping(address => struct SimpleFitnessTracker.UserProfile)",
						"numberOfBytes": "32",
						"value": "t_struct(UserProfile)10_storage"
					},
					"t_mapping(t_address,t_uint256)": {
						"encoding": "mapping",
						"key": "t_address",
						"label": "mapping(address => uint256)",
						"numberOfBytes": "32",
						"value": "t_uint256"
					},
					"t_string_storage": {
						"encoding": "bytes",
						"label": "string",
						"numberOfBytes": "32"
					},
					"t_struct(UserProfile)10_storage": {
						"encoding": "inplace",
						"label": "struct SimpleFitnessTracker.UserProfile",
						"members": [
							{
								"astId": 5,
								"contract": "submissions/Zora/Day10Activity Tracker.sol:SimpleFitnessTracker",
								"label": "name",
								"offset": 0,
								"slot": "0",
								"type": "t_string_storage"
							},
							{
								"astId": 7,
								"contract": "submissions/Zora/Day10Activity Tracker.sol:SimpleFitnessTracker",
								"label": "weight",
								"offset": 0,
								"slot": "1",
								"type": "t_uint256"
							},
							{
								"astId": 9,
								"contract": "submissions/Zora/Day10Activity Tracker.sol:SimpleFitnessTracker",
								"label": "isRegistered",
								"offset": 0,
								"slot": "2",
								"type": "t_bool"
							}
						],
						"numberOfBytes": "96"
					},
					"t_struct(WorkoutActivity)19_storage": {
						"encoding": "inplace",
						"label": "struct SimpleFitnessTracker.WorkoutActivity",
						"members": [
							{
								"astId": 12,
								"contract": "submissions/Zora/Day10Activity Tracker.sol:SimpleFitnessTracker",
								"label": "activityType",
								"offset": 0,
								"slot": "0",
								"type": "t_string_storage"
							},
							{
								"astId": 14,
								"contract": "submissions/Zora/Day10Activity Tracker.sol:SimpleFitnessTracker",
								"label": "duration",
								"offset": 0,
								"slot": "1",
								"type": "t_uint256"
							},
							{
								"astId": 16,
								"contract": "submissions/Zora/Day10Activity Tracker.sol:SimpleFitnessTracker",
								"label": "distance",
								"offset": 0,
								"slot": "2",
								"type": "t_uint256"
							},
							{
								"astId": 18,
								"contract": "submissions/Zora/Day10Activity Tracker.sol:SimpleFitnessTracker",
								"label": "timestamp",
								"offset": 0,
								"slot": "3",
								"type": "t_uint256"
							}
						],
						"numberOfBytes": "128"
					},
					"t_uint256": {
						"encoding": "inplace",
						"label": "uint256",
						"numberOfBytes": "32"
					}
				}
			},
			"userdoc": {
				"kind": "user",
				"methods": {},
				"version": 1
			}
		}
	}
}