{
	"submissions/Zora/SignThis.sol": {
		"SignThis": {
			"abi": [
				{
					"inputs": [
						{
							"internalType": "string",
							"name": "_eventName",
							"type": "string"
						},
						{
							"internalType": "uint256",
							"name": "_eventDate",
							"type": "uint256"
						},
						{
							"internalType": "uint256",
							"name": "_maxAttendees",
							"type": "uint256"
						}
					],
					"stateMutability": "nonpayable",
					"type": "constructor"
				},
				{
					"anonymous": false,
					"inputs": [
						{
							"indexed": false,
							"internalType": "address",
							"name": "attendee",
							"type": "address"
						},
						{
							"indexed": false,
							"internalType": "uint256",
							"name": "timestamp",
							"type": "uint256"
						}
					],
					"name": "AttendeeCheckedIn",
					"type": "event"
				},
				{
					"anonymous": false,
					"inputs": [
						{
							"indexed": false,
							"internalType": "string",
							"name": "name",
							"type": "string"
						},
						{
							"indexed": false,
							"internalType": "uint256",
							"name": "date",
							"type": "uint256"
						},
						{
							"indexed": false,
							"internalType": "uint256",
							"name": "maxAttendees",
							"type": "uint256"
						}
					],
					"name": "EventCreated",
					"type": "event"
				},
				{
					"anonymous": false,
					"inputs": [
						{
							"indexed": false,
							"internalType": "bool",
							"name": "isActive",
							"type": "bool"
						}
					],
					"name": "EventStatusChanged",
					"type": "event"
				},
				{
					"inputs": [],
					"name": "attendeeCount",
					"outputs": [
						{
							"internalType": "uint256",
							"name": "",
							"type": "uint256"
						}
					],
					"stateMutability": "view",
					"type": "function"
				},
				{
					"inputs": [
						{
							"internalType": "address[]",
							"name": "attendees",
							"type": "address[]"
						},
						{
							"internalType": "uint8[]",
							"name": "v",
							"type": "uint8[]"
						},
						{
							"internalType": "bytes32[]",
							"name": "r",
							"type": "bytes32[]"
						},
						{
							"internalType": "bytes32[]",
							"name": "s",
							"type": "bytes32[]"
						}
					],
					"name": "batchCheckIn",
					"outputs": [],
					"stateMutability": "nonpayable",
					"type": "function"
				},
				{
					"inputs": [
						{
							"internalType": "address",
							"name": "attendee",
							"type": "address"
						},
						{
							"internalType": "uint8",
							"name": "v",
							"type": "uint8"
						},
						{
							"internalType": "bytes32",
							"name": "r",
							"type": "bytes32"
						},
						{
							"internalType": "bytes32",
							"name": "s",
							"type": "bytes32"
						}
					],
					"name": "checkInWithSignature",
					"outputs": [],
					"stateMutability": "nonpayable",
					"type": "function"
				},
				{
					"inputs": [],
					"name": "eventDate",
					"outputs": [
						{
							"internalType": "uint256",
							"name": "",
							"type": "uint256"
						}
					],
					"stateMutability": "view",
					"type": "function"
				},
				{
					"inputs": [],
					"name": "eventName",
					"outputs": [
						{
							"internalType": "string",
							"name": "",
							"type": "string"
						}
					],
					"stateMutability": "view",
					"type": "function"
				},
				{
					"inputs": [],
					"name": "getEventInfo",
					"outputs": [
						{
							"internalType": "string",
							"name": "name",
							"type": "string"
						},
						{
							"internalType": "uint256",
							"name": "date",
							"type": "uint256"
						},
						{
							"internalType": "uint256",
							"name": "maxCapacity",
							"type": "uint256"
						},
						{
							"internalType": "uint256",
							"name": "currentCount",
							"type": "uint256"
						},
						{
							"internalType": "bool",
							"name": "active",
							"type": "bool"
						}
					],
					"stateMutability": "view",
					"type": "function"
				},
				{
					"inputs": [
						{
							"internalType": "address",
							"name": "attendee",
							"type": "address"
						}
					],
					"name": "getMessageHash",
					"outputs": [
						{
							"internalType": "bytes32",
							"name": "",
							"type": "bytes32"
						}
					],
					"stateMutability": "view",
					"type": "function"
				},
				{
					"inputs": [
						{
							"internalType": "address",
							"name": "",
							"type": "address"
						}
					],
					"name": "hasAttended",
					"outputs": [
						{
							"internalType": "bool",
							"name": "",
							"type": "bool"
						}
					],
					"stateMutability": "view",
					"type": "function"
				},
				{
					"inputs": [],
					"name": "isEventActive",
					"outputs": [
						{
							"internalType": "bool",
							"name": "",
							"type": "bool"
						}
					],
					"stateMutability": "view",
					"type": "function"
				},
				{
					"inputs": [],
					"name": "maxAttendees",
					"outputs": [
						{
							"internalType": "uint256",
							"name": "",
							"type": "uint256"
						}
					],
					"stateMutability": "view",
					"type": "function"
				},
				{
					"inputs": [],
					"name": "organizer",
					"outputs": [
						{
							"internalType": "address",
							"name": "",
							"type": "address"
						}
					],
					"stateMutability": "view",
					"type": "function"
				},
				{
					"inputs": [],
					"name": "toggleEventStatus",
					"outputs": [],
					"stateMutability": "nonpayable",
					"type": "function"
				},
				{
					"inputs": [
						{
							"internalType": "address",
							"name": "attendee",
							"type": "address"
						},
						{
							"internalType": "uint8",
							"name": "v",
							"type": "uint8"
						},
						{
							"internalType": "bytes32",
							"name": "r",
							"type": "bytes32"
						},
						{
							"internalType": "bytes32",
							"name": "s",
							"type": "bytes32"
						}
					],
					"name": "verifySignature",
					"outputs": [
						{
							"internalType": "bool",
							"name": "",
							"type": "bool"
						}
					],
					"stateMutability": "view",
					"type": "function"
				}
			],
			"devdoc": {
				"kind": "dev",
				"methods": {},
				"version": 1
			},
			"evm": {
				"assembly": "    /* \"submissions/Zora/SignThis.sol\":60:4471  contract SignThis {... */\n  mstore(0x40, 0x80)\n    /* \"submissions/Zora/SignThis.sol\":521:848  constructor(string memory _eventName, uint256 _eventDate, uint256 _maxAttendees) {... */\n  callvalue\n  dup1\n  iszero\n  tag_1\n  jumpi\n  revert(0x00, 0x00)\ntag_1:\n  pop\n  mload(0x40)\n  sub(codesize, bytecodeSize)\n  dup1\n  bytecodeSize\n  dup4\n  codecopy\n  dup2\n  dup2\n  add\n  0x40\n  mstore\n  dup2\n  add\n  swap1\n  tag_2\n  swap2\n  swap1\n  tag_3\n  jump\t// in\ntag_2:\n    /* \"submissions/Zora/SignThis.sol\":625:635  _eventName */\n  dup3\n    /* \"submissions/Zora/SignThis.sol\":613:622  eventName */\n  0x00\n    /* \"submissions/Zora/SignThis.sol\":613:635  eventName = _eventName */\n  swap1\n  dup2\n  tag_6\n  swap2\n  swap1\n  tag_7\n  jump\t// in\ntag_6:\n  pop\n    /* \"submissions/Zora/SignThis.sol\":658:668  msg.sender */\n  caller\n    /* \"submissions/Zora/SignThis.sol\":646:655  organizer */\n  0x01\n  0x00\n    /* \"submissions/Zora/SignThis.sol\":646:668  organizer = msg.sender */\n  0x0100\n  exp\n  dup2\n  sload\n  dup2\n  0xffffffffffffffffffffffffffffffffffffffff\n  mul\n  not\n  and\n  swap1\n  dup4\n  0xffffffffffffffffffffffffffffffffffffffff\n  and\n  mul\n  or\n  swap1\n  sstore\n  pop\n    /* \"submissions/Zora/SignThis.sol\":691:701  _eventDate */\n  dup2\n    /* \"submissions/Zora/SignThis.sol\":679:688  eventDate */\n  0x02\n    /* \"submissions/Zora/SignThis.sol\":679:701  eventDate = _eventDate */\n  dup2\n  swap1\n  sstore\n  pop\n    /* \"submissions/Zora/SignThis.sol\":727:740  _maxAttendees */\n  dup1\n    /* \"submissions/Zora/SignThis.sol\":712:724  maxAttendees */\n  0x03\n    /* \"submissions/Zora/SignThis.sol\":712:740  maxAttendees = _maxAttendees */\n  dup2\n  swap1\n  sstore\n  pop\n    /* \"submissions/Zora/SignThis.sol\":767:771  true */\n  0x01\n    /* \"submissions/Zora/SignThis.sol\":751:764  isEventActive */\n  0x05\n  0x00\n    /* \"submissions/Zora/SignThis.sol\":751:771  isEventActive = true */\n  0x0100\n  exp\n  dup2\n  sload\n  dup2\n  0xff\n  mul\n  not\n  and\n  swap1\n  dup4\n  iszero\n  iszero\n  mul\n  or\n  swap1\n  sstore\n  pop\n    /* \"submissions/Zora/SignThis.sol\":789:840  EventCreated(_eventName, _eventDate, _maxAttendees) */\n  0xef361a1e306446b9c7b03355ef7fbc9ea7cbdc417a1fd436d496c6d5523a48db\n    /* \"submissions/Zora/SignThis.sol\":802:812  _eventName */\n  dup4\n    /* \"submissions/Zora/SignThis.sol\":814:824  _eventDate */\n  dup4\n    /* \"submissions/Zora/SignThis.sol\":826:839  _maxAttendees */\n  dup4\n    /* \"submissions/Zora/SignThis.sol\":789:840  EventCreated(_eventName, _eventDate, _maxAttendees) */\n  mload(0x40)\n  tag_8\n  swap4\n  swap3\n  swap2\n  swap1\n  tag_9\n  jump\t// in\ntag_8:\n  mload(0x40)\n  dup1\n  swap2\n  sub\n  swap1\n  log1\n    /* \"submissions/Zora/SignThis.sol\":521:848  constructor(string memory _eventName, uint256 _eventDate, uint256 _maxAttendees) {... */\n  pop\n  pop\n  pop\n    /* \"submissions/Zora/SignThis.sol\":60:4471  contract SignThis {... */\n  jump(tag_10)\n    /* \"#utility.yul\":7:82   */\ntag_11:\n    /* \"#utility.yul\":40:46   */\n  0x00\n    /* \"#utility.yul\":73:75   */\n  0x40\n    /* \"#utility.yul\":67:76   */\n  mload\n    /* \"#utility.yul\":57:76   */\n  swap1\n  pop\n    /* \"#utility.yul\":7:82   */\n  swap1\n  jump\t// out\n    /* \"#utility.yul\":88:205   */\ntag_12:\n    /* \"#utility.yul\":197:198   */\n  0x00\n    /* \"#utility.yul\":194:195   */\n  0x00\n    /* \"#utility.yul\":187:199   */\n  revert\n    /* \"#utility.yul\":211:328   */\ntag_13:\n    /* \"#utility.yul\":320:321   */\n  0x00\n    /* \"#utility.yul\":317:318   */\n  0x00\n    /* \"#utility.yul\":310:322   */\n  revert\n    /* \"#utility.yul\":334:451   */\ntag_14:\n    /* \"#utility.yul\":443:444   */\n  0x00\n    /* \"#utility.yul\":440:441   */\n  0x00\n    /* \"#utility.yul\":433:445   */\n  revert\n    /* \"#utility.yul\":457:574   */\ntag_15:\n    /* \"#utility.yul\":566:567   */\n  0x00\n    /* \"#utility.yul\":563:564   */\n  0x00\n    /* \"#utility.yul\":556:568   */\n  revert\n    /* \"#utility.yul\":580:682   */\ntag_16:\n    /* \"#utility.yul\":621:627   */\n  0x00\n    /* \"#utility.yul\":672:674   */\n  0x1f\n    /* \"#utility.yul\":668:675   */\n  not\n    /* \"#utility.yul\":663:665   */\n  0x1f\n    /* \"#utility.yul\":656:661   */\n  dup4\n    /* \"#utility.yul\":652:666   */\n  add\n    /* \"#utility.yul\":648:676   */\n  and\n    /* \"#utility.yul\":638:676   */\n  swap1\n  pop\n    /* \"#utility.yul\":580:682   */\n  swap2\n  swap1\n  pop\n  jump\t// out\n    /* \"#utility.yul\":688:868   */\ntag_17:\n    /* \"#utility.yul\":736:813   */\n  0x4e487b7100000000000000000000000000000000000000000000000000000000\n    /* \"#utility.yul\":733:734   */\n  0x00\n    /* \"#utility.yul\":726:814   */\n  mstore\n    /* \"#utility.yul\":833:837   */\n  0x41\n    /* \"#utility.yul\":830:831   */\n  0x04\n    /* \"#utility.yul\":823:838   */\n  mstore\n    /* \"#utility.yul\":857:861   */\n  0x24\n    /* \"#utility.yul\":854:855   */\n  0x00\n    /* \"#utility.yul\":847:862   */\n  revert\n    /* \"#utility.yul\":874:1155   */\ntag_18:\n    /* \"#utility.yul\":957:984   */\n  tag_57\n    /* \"#utility.yul\":979:983   */\n  dup3\n    /* \"#utility.yul\":957:984   */\n  tag_16\n  jump\t// in\ntag_57:\n    /* \"#utility.yul\":949:955   */\n  dup2\n    /* \"#utility.yul\":945:985   */\n  add\n    /* \"#utility.yul\":1087:1093   */\n  dup2\n    /* \"#utility.yul\":1075:1085   */\n  dup2\n    /* \"#utility.yul\":1072:1094   */\n  lt\n    /* \"#utility.yul\":1051:1069   */\n  0xffffffffffffffff\n    /* \"#utility.yul\":1039:1049   */\n  dup3\n    /* \"#utility.yul\":1036:1070   */\n  gt\n    /* \"#utility.yul\":1033:1095   */\n  or\n    /* \"#utility.yul\":1030:1118   */\n  iszero\n  tag_58\n  jumpi\n    /* \"#utility.yul\":1098:1116   */\n  tag_59\n  tag_17\n  jump\t// in\ntag_59:\n    /* \"#utility.yul\":1030:1118   */\ntag_58:\n    /* \"#utility.yul\":1138:1148   */\n  dup1\n    /* \"#utility.yul\":1134:1136   */\n  0x40\n    /* \"#utility.yul\":1127:1149   */\n  mstore\n    /* \"#utility.yul\":917:1155   */\n  pop\n    /* \"#utility.yul\":874:1155   */\n  pop\n  pop\n  jump\t// out\n    /* \"#utility.yul\":1161:1290   */\ntag_19:\n    /* \"#utility.yul\":1195:1201   */\n  0x00\n    /* \"#utility.yul\":1222:1242   */\n  tag_61\n  tag_11\n  jump\t// in\ntag_61:\n    /* \"#utility.yul\":1212:1242   */\n  swap1\n  pop\n    /* \"#utility.yul\":1251:1284   */\n  tag_62\n    /* \"#utility.yul\":1279:1283   */\n  dup3\n    /* \"#utility.yul\":1271:1277   */\n  dup3\n    /* \"#utility.yul\":1251:1284   */\n  tag_18\n  jump\t// in\ntag_62:\n    /* \"#utility.yul\":1161:1290   */\n  swap2\n  swap1\n  pop\n  jump\t// out\n    /* \"#utility.yul\":1296:1604   */\ntag_20:\n    /* \"#utility.yul\":1358:1362   */\n  0x00\n    /* \"#utility.yul\":1448:1466   */\n  0xffffffffffffffff\n    /* \"#utility.yul\":1440:1446   */\n  dup3\n    /* \"#utility.yul\":1437:1467   */\n  gt\n    /* \"#utility.yul\":1434:1490   */\n  iszero\n  tag_64\n  jumpi\n    /* \"#utility.yul\":1470:1488   */\n  tag_65\n  tag_17\n  jump\t// in\ntag_65:\n    /* \"#utility.yul\":1434:1490   */\ntag_64:\n    /* \"#utility.yul\":1508:1537   */\n  tag_66\n    /* \"#utility.yul\":1530:1536   */\n  dup3\n    /* \"#utility.yul\":1508:1537   */\n  tag_16\n  jump\t// in\ntag_66:\n    /* \"#utility.yul\":1500:1537   */\n  swap1\n  pop\n    /* \"#utility.yul\":1592:1596   */\n  0x20\n    /* \"#utility.yul\":1586:1590   */\n  dup2\n    /* \"#utility.yul\":1582:1597   */\n  add\n    /* \"#utility.yul\":1574:1597   */\n  swap1\n  pop\n    /* \"#utility.yul\":1296:1604   */\n  swap2\n  swap1\n  pop\n  jump\t// out\n    /* \"#utility.yul\":1610:1749   */\ntag_21:\n    /* \"#utility.yul\":1699:1705   */\n  dup3\n    /* \"#utility.yul\":1694:1697   */\n  dup2\n    /* \"#utility.yul\":1689:1692   */\n  dup4\n    /* \"#utility.yul\":1683:1706   */\n  mcopy\n    /* \"#utility.yul\":1740:1741   */\n  0x00\n    /* \"#utility.yul\":1731:1737   */\n  dup4\n    /* \"#utility.yul\":1726:1729   */\n  dup4\n    /* \"#utility.yul\":1722:1738   */\n  add\n    /* \"#utility.yul\":1715:1742   */\n  mstore\n    /* \"#utility.yul\":1610:1749   */\n  pop\n  pop\n  pop\n  jump\t// out\n    /* \"#utility.yul\":1755:2189   */\ntag_22:\n    /* \"#utility.yul\":1844:1849   */\n  0x00\n    /* \"#utility.yul\":1869:1935   */\n  tag_69\n    /* \"#utility.yul\":1885:1934   */\n  tag_70\n    /* \"#utility.yul\":1927:1933   */\n  dup5\n    /* \"#utility.yul\":1885:1934   */\n  tag_20\n  jump\t// in\ntag_70:\n    /* \"#utility.yul\":1869:1935   */\n  tag_19\n  jump\t// in\ntag_69:\n    /* \"#utility.yul\":1860:1935   */\n  swap1\n  pop\n    /* \"#utility.yul\":1958:1964   */\n  dup3\n    /* \"#utility.yul\":1951:1956   */\n  dup2\n    /* \"#utility.yul\":1944:1965   */\n  mstore\n    /* \"#utility.yul\":1996:2000   */\n  0x20\n    /* \"#utility.yul\":1989:1994   */\n  dup2\n    /* \"#utility.yul\":1985:2001   */\n  add\n    /* \"#utility.yul\":2034:2037   */\n  dup5\n    /* \"#utility.yul\":2025:2031   */\n  dup5\n    /* \"#utility.yul\":2020:2023   */\n  dup5\n    /* \"#utility.yul\":2016:2032   */\n  add\n    /* \"#utility.yul\":2013:2038   */\n  gt\n    /* \"#utility.yul\":2010:2122   */\n  iszero\n  tag_71\n  jumpi\n    /* \"#utility.yul\":2041:2120   */\n  tag_72\n  tag_15\n  jump\t// in\ntag_72:\n    /* \"#utility.yul\":2010:2122   */\ntag_71:\n    /* \"#utility.yul\":2131:2183   */\n  tag_73\n    /* \"#utility.yul\":2176:2182   */\n  dup5\n    /* \"#utility.yul\":2171:2174   */\n  dup3\n    /* \"#utility.yul\":2166:2169   */\n  dup6\n    /* \"#utility.yul\":2131:2183   */\n  tag_21\n  jump\t// in\ntag_73:\n    /* \"#utility.yul\":1850:2189   */\n  pop\n    /* \"#utility.yul\":1755:2189   */\n  swap4\n  swap3\n  pop\n  pop\n  pop\n  jump\t// out\n    /* \"#utility.yul\":2209:2564   */\ntag_23:\n    /* \"#utility.yul\":2276:2281   */\n  0x00\n    /* \"#utility.yul\":2325:2328   */\n  dup3\n    /* \"#utility.yul\":2318:2322   */\n  0x1f\n    /* \"#utility.yul\":2310:2316   */\n  dup4\n    /* \"#utility.yul\":2306:2323   */\n  add\n    /* \"#utility.yul\":2302:2329   */\n  slt\n    /* \"#utility.yul\":2292:2414   */\n  tag_75\n  jumpi\n    /* \"#utility.yul\":2333:2412   */\n  tag_76\n  tag_14\n  jump\t// in\ntag_76:\n    /* \"#utility.yul\":2292:2414   */\ntag_75:\n    /* \"#utility.yul\":2443:2449   */\n  dup2\n    /* \"#utility.yul\":2437:2450   */\n  mload\n    /* \"#utility.yul\":2468:2558   */\n  tag_77\n    /* \"#utility.yul\":2554:2557   */\n  dup5\n    /* \"#utility.yul\":2546:2552   */\n  dup3\n    /* \"#utility.yul\":2539:2543   */\n  0x20\n    /* \"#utility.yul\":2531:2537   */\n  dup7\n    /* \"#utility.yul\":2527:2544   */\n  add\n    /* \"#utility.yul\":2468:2558   */\n  tag_22\n  jump\t// in\ntag_77:\n    /* \"#utility.yul\":2459:2558   */\n  swap2\n  pop\n    /* \"#utility.yul\":2282:2564   */\n  pop\n    /* \"#utility.yul\":2209:2564   */\n  swap3\n  swap2\n  pop\n  pop\n  jump\t// out\n    /* \"#utility.yul\":2570:2647   */\ntag_24:\n    /* \"#utility.yul\":2607:2614   */\n  0x00\n    /* \"#utility.yul\":2636:2641   */\n  dup2\n    /* \"#utility.yul\":2625:2641   */\n  swap1\n  pop\n    /* \"#utility.yul\":2570:2647   */\n  swap2\n  swap1\n  pop\n  jump\t// out\n    /* \"#utility.yul\":2653:2775   */\ntag_25:\n    /* \"#utility.yul\":2726:2750   */\n  tag_80\n    /* \"#utility.yul\":2744:2749   */\n  dup2\n    /* \"#utility.yul\":2726:2750   */\n  tag_24\n  jump\t// in\ntag_80:\n    /* \"#utility.yul\":2719:2724   */\n  dup2\n    /* \"#utility.yul\":2716:2751   */\n  eq\n    /* \"#utility.yul\":2706:2769   */\n  tag_81\n  jumpi\n    /* \"#utility.yul\":2765:2766   */\n  0x00\n    /* \"#utility.yul\":2762:2763   */\n  0x00\n    /* \"#utility.yul\":2755:2767   */\n  revert\n    /* \"#utility.yul\":2706:2769   */\ntag_81:\n    /* \"#utility.yul\":2653:2775   */\n  pop\n  jump\t// out\n    /* \"#utility.yul\":2781:2924   */\ntag_26:\n    /* \"#utility.yul\":2838:2843   */\n  0x00\n    /* \"#utility.yul\":2869:2875   */\n  dup2\n    /* \"#utility.yul\":2863:2876   */\n  mload\n    /* \"#utility.yul\":2854:2876   */\n  swap1\n  pop\n    /* \"#utility.yul\":2885:2918   */\n  tag_83\n    /* \"#utility.yul\":2912:2917   */\n  dup2\n    /* \"#utility.yul\":2885:2918   */\n  tag_25\n  jump\t// in\ntag_83:\n    /* \"#utility.yul\":2781:2924   */\n  swap3\n  swap2\n  pop\n  pop\n  jump\t// out\n    /* \"#utility.yul\":2930:3766   */\ntag_3:\n    /* \"#utility.yul\":3028:3034   */\n  0x00\n    /* \"#utility.yul\":3036:3042   */\n  0x00\n    /* \"#utility.yul\":3044:3050   */\n  0x00\n    /* \"#utility.yul\":3093:3095   */\n  0x60\n    /* \"#utility.yul\":3081:3090   */\n  dup5\n    /* \"#utility.yul\":3072:3079   */\n  dup7\n    /* \"#utility.yul\":3068:3091   */\n  sub\n    /* \"#utility.yul\":3064:3096   */\n  slt\n    /* \"#utility.yul\":3061:3180   */\n  iszero\n  tag_85\n  jumpi\n    /* \"#utility.yul\":3099:3178   */\n  tag_86\n  tag_12\n  jump\t// in\ntag_86:\n    /* \"#utility.yul\":3061:3180   */\ntag_85:\n    /* \"#utility.yul\":3240:3241   */\n  0x00\n    /* \"#utility.yul\":3229:3238   */\n  dup5\n    /* \"#utility.yul\":3225:3242   */\n  add\n    /* \"#utility.yul\":3219:3243   */\n  mload\n    /* \"#utility.yul\":3270:3288   */\n  0xffffffffffffffff\n    /* \"#utility.yul\":3262:3268   */\n  dup2\n    /* \"#utility.yul\":3259:3289   */\n  gt\n    /* \"#utility.yul\":3256:3373   */\n  iszero\n  tag_87\n  jumpi\n    /* \"#utility.yul\":3292:3371   */\n  tag_88\n  tag_13\n  jump\t// in\ntag_88:\n    /* \"#utility.yul\":3256:3373   */\ntag_87:\n    /* \"#utility.yul\":3397:3471   */\n  tag_89\n    /* \"#utility.yul\":3463:3470   */\n  dup7\n    /* \"#utility.yul\":3454:3460   */\n  dup3\n    /* \"#utility.yul\":3443:3452   */\n  dup8\n    /* \"#utility.yul\":3439:3461   */\n  add\n    /* \"#utility.yul\":3397:3471   */\n  tag_23\n  jump\t// in\ntag_89:\n    /* \"#utility.yul\":3387:3471   */\n  swap4\n  pop\n    /* \"#utility.yul\":3190:3481   */\n  pop\n    /* \"#utility.yul\":3520:3522   */\n  0x20\n    /* \"#utility.yul\":3546:3610   */\n  tag_90\n    /* \"#utility.yul\":3602:3609   */\n  dup7\n    /* \"#utility.yul\":3593:3599   */\n  dup3\n    /* \"#utility.yul\":3582:3591   */\n  dup8\n    /* \"#utility.yul\":3578:3600   */\n  add\n    /* \"#utility.yul\":3546:3610   */\n  tag_26\n  jump\t// in\ntag_90:\n    /* \"#utility.yul\":3536:3610   */\n  swap3\n  pop\n    /* \"#utility.yul\":3491:3620   */\n  pop\n    /* \"#utility.yul\":3659:3661   */\n  0x40\n    /* \"#utility.yul\":3685:3749   */\n  tag_91\n    /* \"#utility.yul\":3741:3748   */\n  dup7\n    /* \"#utility.yul\":3732:3738   */\n  dup3\n    /* \"#utility.yul\":3721:3730   */\n  dup8\n    /* \"#utility.yul\":3717:3739   */\n  add\n    /* \"#utility.yul\":3685:3749   */\n  tag_26\n  jump\t// in\ntag_91:\n    /* \"#utility.yul\":3675:3749   */\n  swap2\n  pop\n    /* \"#utility.yul\":3630:3759   */\n  pop\n    /* \"#utility.yul\":2930:3766   */\n  swap3\n  pop\n  swap3\n  pop\n  swap3\n  jump\t// out\n    /* \"#utility.yul\":3772:3871   */\ntag_27:\n    /* \"#utility.yul\":3824:3830   */\n  0x00\n    /* \"#utility.yul\":3858:3863   */\n  dup2\n    /* \"#utility.yul\":3852:3864   */\n  mload\n    /* \"#utility.yul\":3842:3864   */\n  swap1\n  pop\n    /* \"#utility.yul\":3772:3871   */\n  swap2\n  swap1\n  pop\n  jump\t// out\n    /* \"#utility.yul\":3877:4057   */\ntag_28:\n    /* \"#utility.yul\":3925:4002   */\n  0x4e487b7100000000000000000000000000000000000000000000000000000000\n    /* \"#utility.yul\":3922:3923   */\n  0x00\n    /* \"#utility.yul\":3915:4003   */\n  mstore\n    /* \"#utility.yul\":4022:4026   */\n  0x22\n    /* \"#utility.yul\":4019:4020   */\n  0x04\n    /* \"#utility.yul\":4012:4027   */\n  mstore\n    /* \"#utility.yul\":4046:4050   */\n  0x24\n    /* \"#utility.yul\":4043:4044   */\n  0x00\n    /* \"#utility.yul\":4036:4051   */\n  revert\n    /* \"#utility.yul\":4063:4383   */\ntag_29:\n    /* \"#utility.yul\":4107:4113   */\n  0x00\n    /* \"#utility.yul\":4144:4145   */\n  0x02\n    /* \"#utility.yul\":4138:4142   */\n  dup3\n    /* \"#utility.yul\":4134:4146   */\n  div\n    /* \"#utility.yul\":4124:4146   */\n  swap1\n  pop\n    /* \"#utility.yul\":4191:4192   */\n  0x01\n    /* \"#utility.yul\":4185:4189   */\n  dup3\n    /* \"#utility.yul\":4181:4193   */\n  and\n    /* \"#utility.yul\":4212:4230   */\n  dup1\n    /* \"#utility.yul\":4202:4283   */\n  tag_95\n  jumpi\n    /* \"#utility.yul\":4268:4272   */\n  0x7f\n    /* \"#utility.yul\":4260:4266   */\n  dup3\n    /* \"#utility.yul\":4256:4273   */\n  and\n    /* \"#utility.yul\":4246:4273   */\n  swap2\n  pop\n    /* \"#utility.yul\":4202:4283   */\ntag_95:\n    /* \"#utility.yul\":4330:4332   */\n  0x20\n    /* \"#utility.yul\":4322:4328   */\n  dup3\n    /* \"#utility.yul\":4319:4333   */\n  lt\n    /* \"#utility.yul\":4299:4317   */\n  dup2\n    /* \"#utility.yul\":4296:4334   */\n  sub\n    /* \"#utility.yul\":4293:4377   */\n  tag_96\n  jumpi\n    /* \"#utility.yul\":4349:4367   */\n  tag_97\n  tag_28\n  jump\t// in\ntag_97:\n    /* \"#utility.yul\":4293:4377   */\ntag_96:\n    /* \"#utility.yul\":4114:4383   */\n  pop\n    /* \"#utility.yul\":4063:4383   */\n  swap2\n  swap1\n  pop\n  jump\t// out\n    /* \"#utility.yul\":4389:4530   */\ntag_30:\n    /* \"#utility.yul\":4438:4442   */\n  0x00\n    /* \"#utility.yul\":4461:4464   */\n  dup2\n    /* \"#utility.yul\":4453:4464   */\n  swap1\n  pop\n    /* \"#utility.yul\":4484:4487   */\n  dup2\n    /* \"#utility.yul\":4481:4482   */\n  0x00\n    /* \"#utility.yul\":4474:4488   */\n  mstore\n    /* \"#utility.yul\":4518:4522   */\n  0x20\n    /* \"#utility.yul\":4515:4516   */\n  0x00\n    /* \"#utility.yul\":4505:4523   */\n  keccak256\n    /* \"#utility.yul\":4497:4523   */\n  swap1\n  pop\n    /* \"#utility.yul\":4389:4530   */\n  swap2\n  swap1\n  pop\n  jump\t// out\n    /* \"#utility.yul\":4536:4629   */\ntag_31:\n    /* \"#utility.yul\":4573:4579   */\n  0x00\n    /* \"#utility.yul\":4620:4622   */\n  0x20\n    /* \"#utility.yul\":4615:4617   */\n  0x1f\n    /* \"#utility.yul\":4608:4613   */\n  dup4\n    /* \"#utility.yul\":4604:4618   */\n  add\n    /* \"#utility.yul\":4600:4623   */\n  div\n    /* \"#utility.yul\":4590:4623   */\n  swap1\n  pop\n    /* \"#utility.yul\":4536:4629   */\n  swap2\n  swap1\n  pop\n  jump\t// out\n    /* \"#utility.yul\":4635:4742   */\ntag_32:\n    /* \"#utility.yul\":4679:4687   */\n  0x00\n    /* \"#utility.yul\":4729:4734   */\n  dup3\n    /* \"#utility.yul\":4723:4727   */\n  dup3\n    /* \"#utility.yul\":4719:4735   */\n  shl\n    /* \"#utility.yul\":4698:4735   */\n  swap1\n  pop\n    /* \"#utility.yul\":4635:4742   */\n  swap3\n  swap2\n  pop\n  pop\n  jump\t// out\n    /* \"#utility.yul\":4748:5141   */\ntag_33:\n    /* \"#utility.yul\":4817:4823   */\n  0x00\n    /* \"#utility.yul\":4867:4868   */\n  0x08\n    /* \"#utility.yul\":4855:4865   */\n  dup4\n    /* \"#utility.yul\":4851:4869   */\n  mul\n    /* \"#utility.yul\":4890:4987   */\n  tag_102\n    /* \"#utility.yul\":4920:4986   */\n  0xffffffffffffffffffffffffffffffffffffffffffffffffffffffffffffffff\n    /* \"#utility.yul\":4909:4918   */\n  dup3\n    /* \"#utility.yul\":4890:4987   */\n  tag_32\n  jump\t// in\ntag_102:\n    /* \"#utility.yul\":5008:5047   */\n  tag_103\n    /* \"#utility.yul\":5038:5046   */\n  dup7\n    /* \"#utility.yul\":5027:5036   */\n  dup4\n    /* \"#utility.yul\":5008:5047   */\n  tag_32\n  jump\t// in\ntag_103:\n    /* \"#utility.yul\":4996:5047   */\n  swap6\n  pop\n    /* \"#utility.yul\":5080:5084   */\n  dup1\n    /* \"#utility.yul\":5076:5085   */\n  not\n    /* \"#utility.yul\":5069:5074   */\n  dup5\n    /* \"#utility.yul\":5065:5086   */\n  and\n    /* \"#utility.yul\":5056:5086   */\n  swap4\n  pop\n    /* \"#utility.yul\":5129:5133   */\n  dup1\n    /* \"#utility.yul\":5119:5127   */\n  dup7\n    /* \"#utility.yul\":5115:5134   */\n  and\n    /* \"#utility.yul\":5108:5113   */\n  dup5\n    /* \"#utility.yul\":5105:5135   */\n  or\n    /* \"#utility.yul\":5095:5135   */\n  swap3\n  pop\n    /* \"#utility.yul\":4824:5141   */\n  pop\n  pop\n    /* \"#utility.yul\":4748:5141   */\n  swap4\n  swap3\n  pop\n  pop\n  pop\n  jump\t// out\n    /* \"#utility.yul\":5147:5207   */\ntag_34:\n    /* \"#utility.yul\":5175:5178   */\n  0x00\n    /* \"#utility.yul\":5196:5201   */\n  dup2\n    /* \"#utility.yul\":5189:5201   */\n  swap1\n  pop\n    /* \"#utility.yul\":5147:5207   */\n  swap2\n  swap1\n  pop\n  jump\t// out\n    /* \"#utility.yul\":5213:5355   */\ntag_35:\n    /* \"#utility.yul\":5263:5272   */\n  0x00\n    /* \"#utility.yul\":5296:5349   */\n  tag_106\n    /* \"#utility.yul\":5314:5348   */\n  tag_107\n    /* \"#utility.yul\":5323:5347   */\n  tag_108\n    /* \"#utility.yul\":5341:5346   */\n  dup5\n    /* \"#utility.yul\":5323:5347   */\n  tag_24\n  jump\t// in\ntag_108:\n    /* \"#utility.yul\":5314:5348   */\n  tag_34\n  jump\t// in\ntag_107:\n    /* \"#utility.yul\":5296:5349   */\n  tag_24\n  jump\t// in\ntag_106:\n    /* \"#utility.yul\":5283:5349   */\n  swap1\n  pop\n    /* \"#utility.yul\":5213:5355   */\n  swap2\n  swap1\n  pop\n  jump\t// out\n    /* \"#utility.yul\":5361:5436   */\ntag_36:\n    /* \"#utility.yul\":5404:5407   */\n  0x00\n    /* \"#utility.yul\":5425:5430   */\n  dup2\n    /* \"#utility.yul\":5418:5430   */\n  swap1\n  pop\n    /* \"#utility.yul\":5361:5436   */\n  swap2\n  swap1\n  pop\n  jump\t// out\n    /* \"#utility.yul\":5442:5711   */\ntag_37:\n    /* \"#utility.yul\":5552:5591   */\n  tag_111\n    /* \"#utility.yul\":5583:5590   */\n  dup4\n    /* \"#utility.yul\":5552:5591   */\n  tag_35\n  jump\t// in\ntag_111:\n    /* \"#utility.yul\":5613:5704   */\n  tag_112\n    /* \"#utility.yul\":5662:5703   */\n  tag_113\n    /* \"#utility.yul\":5686:5702   */\n  dup3\n    /* \"#utility.yul\":5662:5703   */\n  tag_36\n  jump\t// in\ntag_113:\n    /* \"#utility.yul\":5654:5660   */\n  dup5\n    /* \"#utility.yul\":5647:5651   */\n  dup5\n    /* \"#utility.yul\":5641:5652   */\n  sload\n    /* \"#utility.yul\":5613:5704   */\n  tag_33\n  jump\t// in\ntag_112:\n    /* \"#utility.yul\":5607:5611   */\n  dup3\n    /* \"#utility.yul\":5600:5705   */\n  sstore\n    /* \"#utility.yul\":5518:5711   */\n  pop\n    /* \"#utility.yul\":5442:5711   */\n  pop\n  pop\n  pop\n  jump\t// out\n    /* \"#utility.yul\":5717:5790   */\ntag_38:\n    /* \"#utility.yul\":5762:5765   */\n  0x00\n    /* \"#utility.yul\":5783:5784   */\n  0x00\n    /* \"#utility.yul\":5776:5784   */\n  swap1\n  pop\n    /* \"#utility.yul\":5717:5790   */\n  swap1\n  jump\t// out\n    /* \"#utility.yul\":5796:5985   */\ntag_39:\n    /* \"#utility.yul\":5873:5905   */\n  tag_116\n  tag_38\n  jump\t// in\ntag_116:\n    /* \"#utility.yul\":5914:5979   */\n  tag_117\n    /* \"#utility.yul\":5972:5978   */\n  dup2\n    /* \"#utility.yul\":5964:5970   */\n  dup5\n    /* \"#utility.yul\":5958:5962   */\n  dup5\n    /* \"#utility.yul\":5914:5979   */\n  tag_37\n  jump\t// in\ntag_117:\n    /* \"#utility.yul\":5849:5985   */\n  pop\n    /* \"#utility.yul\":5796:5985   */\n  pop\n  pop\n  jump\t// out\n    /* \"#utility.yul\":5991:6177   */\ntag_40:\n    /* \"#utility.yul\":6051:6171   */\ntag_119:\n    /* \"#utility.yul\":6068:6071   */\n  dup2\n    /* \"#utility.yul\":6061:6066   */\n  dup2\n    /* \"#utility.yul\":6058:6072   */\n  lt\n    /* \"#utility.yul\":6051:6171   */\n  iszero\n  tag_121\n  jumpi\n    /* \"#utility.yul\":6122:6161   */\n  tag_122\n    /* \"#utility.yul\":6159:6160   */\n  0x00\n    /* \"#utility.yul\":6152:6157   */\n  dup3\n    /* \"#utility.yul\":6122:6161   */\n  tag_39\n  jump\t// in\ntag_122:\n    /* \"#utility.yul\":6095:6096   */\n  0x01\n    /* \"#utility.yul\":6088:6093   */\n  dup2\n    /* \"#utility.yul\":6084:6097   */\n  add\n    /* \"#utility.yul\":6075:6097   */\n  swap1\n  pop\n    /* \"#utility.yul\":6051:6171   */\n  jump(tag_119)\ntag_121:\n    /* \"#utility.yul\":5991:6177   */\n  pop\n  pop\n  jump\t// out\n    /* \"#utility.yul\":6183:6726   */\ntag_41:\n    /* \"#utility.yul\":6284:6286   */\n  0x1f\n    /* \"#utility.yul\":6279:6282   */\n  dup3\n    /* \"#utility.yul\":6276:6287   */\n  gt\n    /* \"#utility.yul\":6273:6719   */\n  iszero\n  tag_124\n  jumpi\n    /* \"#utility.yul\":6318:6356   */\n  tag_125\n    /* \"#utility.yul\":6350:6355   */\n  dup2\n    /* \"#utility.yul\":6318:6356   */\n  tag_30\n  jump\t// in\ntag_125:\n    /* \"#utility.yul\":6402:6431   */\n  tag_126\n    /* \"#utility.yul\":6420:6430   */\n  dup5\n    /* \"#utility.yul\":6402:6431   */\n  tag_31\n  jump\t// in\ntag_126:\n    /* \"#utility.yul\":6392:6400   */\n  dup2\n    /* \"#utility.yul\":6388:6432   */\n  add\n    /* \"#utility.yul\":6585:6587   */\n  0x20\n    /* \"#utility.yul\":6573:6583   */\n  dup6\n    /* \"#utility.yul\":6570:6588   */\n  lt\n    /* \"#utility.yul\":6567:6616   */\n  iszero\n  tag_127\n  jumpi\n    /* \"#utility.yul\":6606:6614   */\n  dup2\n    /* \"#utility.yul\":6591:6614   */\n  swap1\n  pop\n    /* \"#utility.yul\":6567:6616   */\ntag_127:\n    /* \"#utility.yul\":6629:6709   */\n  tag_128\n    /* \"#utility.yul\":6685:6707   */\n  tag_129\n    /* \"#utility.yul\":6703:6706   */\n  dup6\n    /* \"#utility.yul\":6685:6707   */\n  tag_31\n  jump\t// in\ntag_129:\n    /* \"#utility.yul\":6675:6683   */\n  dup4\n    /* \"#utility.yul\":6671:6708   */\n  add\n    /* \"#utility.yul\":6658:6669   */\n  dup3\n    /* \"#utility.yul\":6629:6709   */\n  tag_40\n  jump\t// in\ntag_128:\n    /* \"#utility.yul\":6288:6719   */\n  pop\n  pop\n    /* \"#utility.yul\":6273:6719   */\ntag_124:\n    /* \"#utility.yul\":6183:6726   */\n  pop\n  pop\n  pop\n  jump\t// out\n    /* \"#utility.yul\":6732:6849   */\ntag_42:\n    /* \"#utility.yul\":6786:6794   */\n  0x00\n    /* \"#utility.yul\":6836:6841   */\n  dup3\n    /* \"#utility.yul\":6830:6834   */\n  dup3\n    /* \"#utility.yul\":6826:6842   */\n  shr\n    /* \"#utility.yul\":6805:6842   */\n  swap1\n  pop\n    /* \"#utility.yul\":6732:6849   */\n  swap3\n  swap2\n  pop\n  pop\n  jump\t// out\n    /* \"#utility.yul\":6855:7024   */\ntag_43:\n    /* \"#utility.yul\":6899:6905   */\n  0x00\n    /* \"#utility.yul\":6932:6983   */\n  tag_132\n    /* \"#utility.yul\":6980:6981   */\n  0x00\n    /* \"#utility.yul\":6976:6982   */\n  not\n    /* \"#utility.yul\":6968:6973   */\n  dup5\n    /* \"#utility.yul\":6965:6966   */\n  0x08\n    /* \"#utility.yul\":6961:6974   */\n  mul\n    /* \"#utility.yul\":6932:6983   */\n  tag_42\n  jump\t// in\ntag_132:\n    /* \"#utility.yul\":6928:6984   */\n  not\n    /* \"#utility.yul\":7013:7017   */\n  dup1\n    /* \"#utility.yul\":7007:7011   */\n  dup4\n    /* \"#utility.yul\":7003:7018   */\n  and\n    /* \"#utility.yul\":6993:7018   */\n  swap2\n  pop\n    /* \"#utility.yul\":6906:7024   */\n  pop\n    /* \"#utility.yul\":6855:7024   */\n  swap3\n  swap2\n  pop\n  pop\n  jump\t// out\n    /* \"#utility.yul\":7029:7324   */\ntag_44:\n    /* \"#utility.yul\":7105:7109   */\n  0x00\n    /* \"#utility.yul\":7251:7280   */\n  tag_134\n    /* \"#utility.yul\":7276:7279   */\n  dup4\n    /* \"#utility.yul\":7270:7274   */\n  dup4\n    /* \"#utility.yul\":7251:7280   */\n  tag_43\n  jump\t// in\ntag_134:\n    /* \"#utility.yul\":7243:7280   */\n  swap2\n  pop\n    /* \"#utility.yul\":7313:7316   */\n  dup3\n    /* \"#utility.yul\":7310:7311   */\n  0x02\n    /* \"#utility.yul\":7306:7317   */\n  mul\n    /* \"#utility.yul\":7300:7304   */\n  dup3\n    /* \"#utility.yul\":7297:7318   */\n  or\n    /* \"#utility.yul\":7289:7318   */\n  swap1\n  pop\n    /* \"#utility.yul\":7029:7324   */\n  swap3\n  swap2\n  pop\n  pop\n  jump\t// out\n    /* \"#utility.yul\":7329:8724   */\ntag_7:\n    /* \"#utility.yul\":7446:7483   */\n  tag_136\n    /* \"#utility.yul\":7479:7482   */\n  dup3\n    /* \"#utility.yul\":7446:7483   */\n  tag_27\n  jump\t// in\ntag_136:\n    /* \"#utility.yul\":7548:7566   */\n  0xffffffffffffffff\n    /* \"#utility.yul\":7540:7546   */\n  dup2\n    /* \"#utility.yul\":7537:7567   */\n  gt\n    /* \"#utility.yul\":7534:7590   */\n  iszero\n  tag_137\n  jumpi\n    /* \"#utility.yul\":7570:7588   */\n  tag_138\n  tag_17\n  jump\t// in\ntag_138:\n    /* \"#utility.yul\":7534:7590   */\ntag_137:\n    /* \"#utility.yul\":7614:7652   */\n  tag_139\n    /* \"#utility.yul\":7646:7650   */\n  dup3\n    /* \"#utility.yul\":7640:7651   */\n  sload\n    /* \"#utility.yul\":7614:7652   */\n  tag_29\n  jump\t// in\ntag_139:\n    /* \"#utility.yul\":7699:7766   */\n  tag_140\n    /* \"#utility.yul\":7759:7765   */\n  dup3\n    /* \"#utility.yul\":7751:7757   */\n  dup3\n    /* \"#utility.yul\":7745:7749   */\n  dup6\n    /* \"#utility.yul\":7699:7766   */\n  tag_41\n  jump\t// in\ntag_140:\n    /* \"#utility.yul\":7793:7794   */\n  0x00\n    /* \"#utility.yul\":7817:7821   */\n  0x20\n    /* \"#utility.yul\":7804:7821   */\n  swap1\n  pop\n    /* \"#utility.yul\":7849:7851   */\n  0x1f\n    /* \"#utility.yul\":7841:7847   */\n  dup4\n    /* \"#utility.yul\":7838:7852   */\n  gt\n    /* \"#utility.yul\":7866:7867   */\n  0x01\n    /* \"#utility.yul\":7861:8479   */\n  dup2\n  eq\n  tag_142\n  jumpi\n    /* \"#utility.yul\":8523:8524   */\n  0x00\n    /* \"#utility.yul\":8540:8546   */\n  dup5\n    /* \"#utility.yul\":8537:8614   */\n  iszero\n  tag_143\n  jumpi\n    /* \"#utility.yul\":8589:8598   */\n  dup3\n    /* \"#utility.yul\":8584:8587   */\n  dup8\n    /* \"#utility.yul\":8580:8599   */\n  add\n    /* \"#utility.yul\":8574:8600   */\n  mload\n    /* \"#utility.yul\":8565:8600   */\n  swap1\n  pop\n    /* \"#utility.yul\":8537:8614   */\ntag_143:\n    /* \"#utility.yul\":8640:8707   */\n  tag_144\n    /* \"#utility.yul\":8700:8706   */\n  dup6\n    /* \"#utility.yul\":8693:8698   */\n  dup3\n    /* \"#utility.yul\":8640:8707   */\n  tag_44\n  jump\t// in\ntag_144:\n    /* \"#utility.yul\":8634:8638   */\n  dup7\n    /* \"#utility.yul\":8627:8708   */\n  sstore\n    /* \"#utility.yul\":8496:8718   */\n  pop\n    /* \"#utility.yul\":7831:8718   */\n  jump(tag_141)\n    /* \"#utility.yul\":7861:8479   */\ntag_142:\n    /* \"#utility.yul\":7913:7917   */\n  0x1f\n    /* \"#utility.yul\":7909:7918   */\n  not\n    /* \"#utility.yul\":7901:7907   */\n  dup5\n    /* \"#utility.yul\":7897:7919   */\n  and\n    /* \"#utility.yul\":7947:7984   */\n  tag_145\n    /* \"#utility.yul\":7979:7983   */\n  dup7\n    /* \"#utility.yul\":7947:7984   */\n  tag_30\n  jump\t// in\ntag_145:\n    /* \"#utility.yul\":8006:8007   */\n  0x00\n    /* \"#utility.yul\":8020:8228   */\ntag_146:\n    /* \"#utility.yul\":8034:8041   */\n  dup3\n    /* \"#utility.yul\":8031:8032   */\n  dup2\n    /* \"#utility.yul\":8028:8042   */\n  lt\n    /* \"#utility.yul\":8020:8228   */\n  iszero\n  tag_148\n  jumpi\n    /* \"#utility.yul\":8113:8122   */\n  dup5\n    /* \"#utility.yul\":8108:8111   */\n  dup10\n    /* \"#utility.yul\":8104:8123   */\n  add\n    /* \"#utility.yul\":8098:8124   */\n  mload\n    /* \"#utility.yul\":8090:8096   */\n  dup3\n    /* \"#utility.yul\":8083:8125   */\n  sstore\n    /* \"#utility.yul\":8164:8165   */\n  0x01\n    /* \"#utility.yul\":8156:8162   */\n  dup3\n    /* \"#utility.yul\":8152:8166   */\n  add\n    /* \"#utility.yul\":8142:8166   */\n  swap2\n  pop\n    /* \"#utility.yul\":8211:8213   */\n  0x20\n    /* \"#utility.yul\":8200:8209   */\n  dup6\n    /* \"#utility.yul\":8196:8214   */\n  add\n    /* \"#utility.yul\":8183:8214   */\n  swap5\n  pop\n    /* \"#utility.yul\":8057:8061   */\n  0x20\n    /* \"#utility.yul\":8054:8055   */\n  dup2\n    /* \"#utility.yul\":8050:8062   */\n  add\n    /* \"#utility.yul\":8045:8062   */\n  swap1\n  pop\n    /* \"#utility.yul\":8020:8228   */\n  jump(tag_146)\ntag_148:\n    /* \"#utility.yul\":8256:8262   */\n  dup7\n    /* \"#utility.yul\":8247:8254   */\n  dup4\n    /* \"#utility.yul\":8244:8263   */\n  lt\n    /* \"#utility.yul\":8241:8420   */\n  iszero\n  tag_149\n  jumpi\n    /* \"#utility.yul\":8314:8323   */\n  dup5\n    /* \"#utility.yul\":8309:8312   */\n  dup10\n    /* \"#utility.yul\":8305:8324   */\n  add\n    /* \"#utility.yul\":8299:8325   */\n  mload\n    /* \"#utility.yul\":8357:8405   */\n  tag_150\n    /* \"#utility.yul\":8399:8403   */\n  0x1f\n    /* \"#utility.yul\":8391:8397   */\n  dup10\n    /* \"#utility.yul\":8387:8404   */\n  and\n    /* \"#utility.yul\":8376:8385   */\n  dup3\n    /* \"#utility.yul\":8357:8405   */\n  tag_43\n  jump\t// in\ntag_150:\n    /* \"#utility.yul\":8349:8355   */\n  dup4\n    /* \"#utility.yul\":8342:8406   */\n  sstore\n    /* \"#utility.yul\":8264:8420   */\n  pop\n    /* \"#utility.yul\":8241:8420   */\ntag_149:\n    /* \"#utility.yul\":8466:8467   */\n  0x01\n    /* \"#utility.yul\":8462:8463   */\n  0x02\n    /* \"#utility.yul\":8454:8460   */\n  dup9\n    /* \"#utility.yul\":8450:8464   */\n  mul\n    /* \"#utility.yul\":8446:8468   */\n  add\n    /* \"#utility.yul\":8440:8444   */\n  dup9\n    /* \"#utility.yul\":8433:8469   */\n  sstore\n    /* \"#utility.yul\":7868:8479   */\n  pop\n  pop\n  pop\n    /* \"#utility.yul\":7831:8718   */\ntag_141:\n  pop\n    /* \"#utility.yul\":7421:8724   */\n  pop\n  pop\n  pop\n    /* \"#utility.yul\":7329:8724   */\n  pop\n  pop\n  jump\t// out\n    /* \"#utility.yul\":8730:8899   */\ntag_45:\n    /* \"#utility.yul\":8814:8825   */\n  0x00\n    /* \"#utility.yul\":8848:8854   */\n  dup3\n    /* \"#utility.yul\":8843:8846   */\n  dup3\n    /* \"#utility.yul\":8836:8855   */\n  mstore\n    /* \"#utility.yul\":8888:8892   */\n  0x20\n    /* \"#utility.yul\":8883:8886   */\n  dup3\n    /* \"#utility.yul\":8879:8893   */\n  add\n    /* \"#utility.yul\":8864:8893   */\n  swap1\n  pop\n    /* \"#utility.yul\":8730:8899   */\n  swap3\n  swap2\n  pop\n  pop\n  jump\t// out\n    /* \"#utility.yul\":8905:9282   */\ntag_46:\n    /* \"#utility.yul\":8993:8996   */\n  0x00\n    /* \"#utility.yul\":9021:9060   */\n  tag_153\n    /* \"#utility.yul\":9054:9059   */\n  dup3\n    /* \"#utility.yul\":9021:9060   */\n  tag_27\n  jump\t// in\ntag_153:\n    /* \"#utility.yul\":9076:9147   */\n  tag_154\n    /* \"#utility.yul\":9140:9146   */\n  dup2\n    /* \"#utility.yul\":9135:9138   */\n  dup6\n    /* \"#utility.yul\":9076:9147   */\n  tag_45\n  jump\t// in\ntag_154:\n    /* \"#utility.yul\":9069:9147   */\n  swap4\n  pop\n    /* \"#utility.yul\":9156:9221   */\n  tag_155\n    /* \"#utility.yul\":9214:9220   */\n  dup2\n    /* \"#utility.yul\":9209:9212   */\n  dup6\n    /* \"#utility.yul\":9202:9206   */\n  0x20\n    /* \"#utility.yul\":9195:9200   */\n  dup7\n    /* \"#utility.yul\":9191:9207   */\n  add\n    /* \"#utility.yul\":9156:9221   */\n  tag_21\n  jump\t// in\ntag_155:\n    /* \"#utility.yul\":9246:9275   */\n  tag_156\n    /* \"#utility.yul\":9268:9274   */\n  dup2\n    /* \"#utility.yul\":9246:9275   */\n  tag_16\n  jump\t// in\ntag_156:\n    /* \"#utility.yul\":9241:9244   */\n  dup5\n    /* \"#utility.yul\":9237:9276   */\n  add\n    /* \"#utility.yul\":9230:9276   */\n  swap2\n  pop\n    /* \"#utility.yul\":8997:9282   */\n  pop\n    /* \"#utility.yul\":8905:9282   */\n  swap3\n  swap2\n  pop\n  pop\n  jump\t// out\n    /* \"#utility.yul\":9288:9406   */\ntag_47:\n    /* \"#utility.yul\":9375:9399   */\n  tag_158\n    /* \"#utility.yul\":9393:9398   */\n  dup2\n    /* \"#utility.yul\":9375:9399   */\n  tag_24\n  jump\t// in\ntag_158:\n    /* \"#utility.yul\":9370:9373   */\n  dup3\n    /* \"#utility.yul\":9363:9400   */\n  mstore\n    /* \"#utility.yul\":9288:9406   */\n  pop\n  pop\n  jump\t// out\n    /* \"#utility.yul\":9412:9945   */\ntag_9:\n    /* \"#utility.yul\":9581:9585   */\n  0x00\n    /* \"#utility.yul\":9619:9621   */\n  0x60\n    /* \"#utility.yul\":9608:9617   */\n  dup3\n    /* \"#utility.yul\":9604:9622   */\n  add\n    /* \"#utility.yul\":9596:9622   */\n  swap1\n  pop\n    /* \"#utility.yul\":9668:9677   */\n  dup2\n    /* \"#utility.yul\":9662:9666   */\n  dup2\n    /* \"#utility.yul\":9658:9678   */\n  sub\n    /* \"#utility.yul\":9654:9655   */\n  0x00\n    /* \"#utility.yul\":9643:9652   */\n  dup4\n    /* \"#utility.yul\":9639:9656   */\n  add\n    /* \"#utility.yul\":9632:9679   */\n  mstore\n    /* \"#utility.yul\":9696:9774   */\n  tag_160\n    /* \"#utility.yul\":9769:9773   */\n  dup2\n    /* \"#utility.yul\":9760:9766   */\n  dup7\n    /* \"#utility.yul\":9696:9774   */\n  tag_46\n  jump\t// in\ntag_160:\n    /* \"#utility.yul\":9688:9774   */\n  swap1\n  pop\n    /* \"#utility.yul\":9784:9856   */\n  tag_161\n    /* \"#utility.yul\":9852:9854   */\n  0x20\n    /* \"#utility.yul\":9841:9850   */\n  dup4\n    /* \"#utility.yul\":9837:9855   */\n  add\n    /* \"#utility.yul\":9828:9834   */\n  dup6\n    /* \"#utility.yul\":9784:9856   */\n  tag_47\n  jump\t// in\ntag_161:\n    /* \"#utility.yul\":9866:9938   */\n  tag_162\n    /* \"#utility.yul\":9934:9936   */\n  0x40\n    /* \"#utility.yul\":9923:9932   */\n  dup4\n    /* \"#utility.yul\":9919:9937   */\n  add\n    /* \"#utility.yul\":9910:9916   */\n  dup5\n    /* \"#utility.yul\":9866:9938   */\n  tag_47\n  jump\t// in\ntag_162:\n    /* \"#utility.yul\":9412:9945   */\n  swap5\n  swap4\n  pop\n  pop\n  pop\n  pop\n  jump\t// out\n    /* \"submissions/Zora/SignThis.sol\":60:4471  contract SignThis {... */\ntag_10:\n  dataSize(sub_0)\n  dup1\n  dataOffset(sub_0)\n  0x00\n  codecopy\n  0x00\n  return\nstop\n\nsub_0: assembly {\n        /* \"submissions/Zora/SignThis.sol\":60:4471  contract SignThis {... */\n      mstore(0x40, 0x80)\n      callvalue\n      dup1\n      iszero\n      tag_1\n      jumpi\n      revert(0x00, 0x00)\n    tag_1:\n      pop\n      jumpi(tag_2, lt(calldatasize, 0x04))\n      shr(0xe0, calldataload(0x00))\n      dup1\n      0x8043c9c0\n      gt\n      tag_16\n      jumpi\n      dup1\n      0xd4e8c2ae\n      gt\n      tag_17\n      jumpi\n      dup1\n      0xd4e8c2ae\n      eq\n      tag_12\n      jumpi\n      dup1\n      0xd866b0b6\n      eq\n      tag_13\n      jumpi\n      dup1\n      0xe4b8ce62\n      eq\n      tag_14\n      jumpi\n      dup1\n      0xf1adda47\n      eq\n      tag_15\n      jumpi\n      jump(tag_2)\n    tag_17:\n      dup1\n      0x8043c9c0\n      eq\n      tag_9\n      jumpi\n      dup1\n      0x8a91ac1d\n      eq\n      tag_10\n      jumpi\n      dup1\n      0xcc54bcf2\n      eq\n      tag_11\n      jumpi\n      jump(tag_2)\n    tag_16:\n      dup1\n      0x1f5ac1b2\n      eq\n      tag_3\n      jumpi\n      dup1\n      0x4bfbe5df\n      eq\n      tag_4\n      jumpi\n      dup1\n      0x5f3d7fa1\n      eq\n      tag_5\n      jumpi\n      dup1\n      0x61203265\n      eq\n      tag_6\n      jumpi\n      dup1\n      0x6d00fa68\n      eq\n      tag_7\n      jumpi\n      dup1\n      0x6e80adcd\n      eq\n      tag_8\n      jumpi\n    tag_2:\n      revert(0x00, 0x00)\n        /* \"submissions/Zora/SignThis.sol\":3808:4021  function getMessageHash(address attendee) external view returns (bytes32) {... */\n    tag_3:\n      tag_18\n      0x04\n      dup1\n      calldatasize\n      sub\n      dup2\n      add\n      swap1\n      tag_19\n      swap2\n      swap1\n      tag_20\n      jump\t// in\n    tag_19:\n      tag_21\n      jump\t// in\n    tag_18:\n      mload(0x40)\n      tag_22\n      swap2\n      swap1\n      tag_23\n      jump\t// in\n    tag_22:\n      mload(0x40)\n      dup1\n      swap2\n      sub\n      swap1\n      return\n        /* \"submissions/Zora/SignThis.sol\":146:170  uint256 public eventDate */\n    tag_4:\n      tag_24\n      tag_25\n      jump\t// in\n    tag_24:\n      mload(0x40)\n      tag_26\n      swap2\n      swap1\n      tag_27\n      jump\t// in\n    tag_26:\n      mload(0x40)\n      dup1\n      swap2\n      sub\n      swap1\n      return\n        /* \"submissions/Zora/SignThis.sol\":177:204  uint256 public maxAttendees */\n    tag_5:\n      tag_28\n      tag_29\n      jump\t// in\n    tag_28:\n      mload(0x40)\n      tag_30\n      swap2\n      swap1\n      tag_27\n      jump\t// in\n    tag_30:\n      mload(0x40)\n      dup1\n      swap2\n      sub\n      swap1\n      return\n        /* \"submissions/Zora/SignThis.sol\":115:139  address public organizer */\n    tag_6:\n      tag_31\n      tag_32\n      jump\t// in\n    tag_31:\n      mload(0x40)\n      tag_33\n      swap2\n      swap1\n      tag_34\n      jump\t// in\n    tag_33:\n      mload(0x40)\n      dup1\n      swap2\n      sub\n      swap1\n      return\n        /* \"submissions/Zora/SignThis.sol\":4187:4468  function getEventInfo() external view returns (... */\n    tag_7:\n      tag_35\n      tag_36\n      jump\t// in\n    tag_35:\n      mload(0x40)\n      tag_37\n      swap6\n      swap5\n      swap4\n      swap3\n      swap2\n      swap1\n      tag_38\n      jump\t// in\n    tag_37:\n      mload(0x40)\n      dup1\n      swap2\n      sub\n      swap1\n      return\n        /* \"submissions/Zora/SignThis.sol\":1927:3228  function batchCheckIn(... */\n    tag_8:\n      tag_39\n      0x04\n      dup1\n      calldatasize\n      sub\n      dup2\n      add\n      swap1\n      tag_40\n      swap2\n      swap1\n      tag_41\n      jump\t// in\n    tag_40:\n      tag_42\n      jump\t// in\n    tag_39:\n      stop\n        /* \"submissions/Zora/SignThis.sol\":85:108  string public eventName */\n    tag_9:\n      tag_43\n      tag_44\n      jump\t// in\n    tag_43:\n      mload(0x40)\n      tag_45\n      swap2\n      swap1\n      tag_46\n      jump\t// in\n    tag_45:\n      mload(0x40)\n      dup1\n      swap2\n      sub\n      swap1\n      return\n        /* \"submissions/Zora/SignThis.sol\":3236:3800  function verifySignature(... */\n    tag_10:\n      tag_47\n      0x04\n      dup1\n      calldatasize\n      sub\n      dup2\n      add\n      swap1\n      tag_48\n      swap2\n      swap1\n      tag_49\n      jump\t// in\n    tag_48:\n      tag_50\n      jump\t// in\n    tag_47:\n      mload(0x40)\n      tag_51\n      swap2\n      swap1\n      tag_52\n      jump\t// in\n    tag_51:\n      mload(0x40)\n      dup1\n      swap2\n      sub\n      swap1\n      return\n        /* \"submissions/Zora/SignThis.sol\":246:271  bool public isEventActive */\n    tag_11:\n      tag_53\n      tag_54\n      jump\t// in\n    tag_53:\n      mload(0x40)\n      tag_55\n      swap2\n      swap1\n      tag_52\n      jump\t// in\n    tag_55:\n      mload(0x40)\n      dup1\n      swap2\n      sub\n      swap1\n      return\n        /* \"submissions/Zora/SignThis.sol\":1074:1919  function checkInWithSignature(... */\n    tag_12:\n      tag_56\n      0x04\n      dup1\n      calldatasize\n      sub\n      dup2\n      add\n      swap1\n      tag_57\n      swap2\n      swap1\n      tag_49\n      jump\t// in\n    tag_57:\n      tag_58\n      jump\t// in\n    tag_56:\n      stop\n        /* \"submissions/Zora/SignThis.sol\":280:323  mapping(address => bool) public hasAttended */\n    tag_13:\n      tag_59\n      0x04\n      dup1\n      calldatasize\n      sub\n      dup2\n      add\n      swap1\n      tag_60\n      swap2\n      swap1\n      tag_20\n      jump\t// in\n    tag_60:\n      tag_61\n      jump\t// in\n    tag_59:\n      mload(0x40)\n      tag_62\n      swap2\n      swap1\n      tag_52\n      jump\t// in\n    tag_62:\n      mload(0x40)\n      dup1\n      swap2\n      sub\n      swap1\n      return\n        /* \"submissions/Zora/SignThis.sol\":4029:4179  function toggleEventStatus() external onlyOrganizer {... */\n    tag_14:\n      tag_63\n      tag_64\n      jump\t// in\n    tag_63:\n      stop\n        /* \"submissions/Zora/SignThis.sol\":211:239  uint256 public attendeeCount */\n    tag_15:\n      tag_65\n      tag_66\n      jump\t// in\n    tag_65:\n      mload(0x40)\n      tag_67\n      swap2\n      swap1\n      tag_27\n      jump\t// in\n    tag_67:\n      mload(0x40)\n      dup1\n      swap2\n      sub\n      swap1\n      return\n        /* \"submissions/Zora/SignThis.sol\":3808:4021  function getMessageHash(address attendee) external view returns (bytes32) {... */\n    tag_21:\n        /* \"submissions/Zora/SignThis.sol\":3873:3880  bytes32 */\n      0x00\n        /* \"submissions/Zora/SignThis.sol\":3941:3949  attendee */\n      dup2\n        /* \"submissions/Zora/SignThis.sol\":3972:3976  this */\n      address\n        /* \"submissions/Zora/SignThis.sol\":3992:4001  eventName */\n      0x00\n        /* \"submissions/Zora/SignThis.sol\":3910:4012  abi.encodePacked(... */\n      add(0x20, mload(0x40))\n      tag_69\n      swap4\n      swap3\n      swap2\n      swap1\n      tag_70\n      jump\t// in\n    tag_69:\n      mload(0x40)\n      0x20\n      dup2\n      dup4\n      sub\n      sub\n      dup2\n      mstore\n      swap1\n      0x40\n      mstore\n        /* \"submissions/Zora/SignThis.sol\":3900:4013  keccak256(abi.encodePacked(... */\n      dup1\n      mload\n      swap1\n      0x20\n      add\n      keccak256\n        /* \"submissions/Zora/SignThis.sol\":3893:4013  return keccak256(abi.encodePacked(... */\n      swap1\n      pop\n        /* \"submissions/Zora/SignThis.sol\":3808:4021  function getMessageHash(address attendee) external view returns (bytes32) {... */\n      swap2\n      swap1\n      pop\n      jump\t// out\n        /* \"submissions/Zora/SignThis.sol\":146:170  uint256 public eventDate */\n    tag_25:\n      sload(0x02)\n      dup2\n      jump\t// out\n        /* \"submissions/Zora/SignThis.sol\":177:204  uint256 public maxAttendees */\n    tag_29:\n      sload(0x03)\n      dup2\n      jump\t// out\n        /* \"submissions/Zora/SignThis.sol\":115:139  address public organizer */\n    tag_32:\n      0x01\n      0x00\n      swap1\n      sload\n      swap1\n      0x0100\n      exp\n      swap1\n      div\n      0xffffffffffffffffffffffffffffffffffffffff\n      and\n      dup2\n      jump\t// out\n        /* \"submissions/Zora/SignThis.sol\":4187:4468  function getEventInfo() external view returns (... */\n    tag_36:\n        /* \"submissions/Zora/SignThis.sol\":4244:4262  string memory name */\n      0x60\n        /* \"submissions/Zora/SignThis.sol\":4273:4285  uint256 date */\n      0x00\n        /* \"submissions/Zora/SignThis.sol\":4296:4315  uint256 maxCapacity */\n      0x00\n        /* \"submissions/Zora/SignThis.sol\":4326:4346  uint256 currentCount */\n      0x00\n        /* \"submissions/Zora/SignThis.sol\":4357:4368  bool active */\n      0x00\n        /* \"submissions/Zora/SignThis.sol\":4395:4404  eventName */\n      0x00\n        /* \"submissions/Zora/SignThis.sol\":4406:4415  eventDate */\n      sload(0x02)\n        /* \"submissions/Zora/SignThis.sol\":4417:4429  maxAttendees */\n      sload(0x03)\n        /* \"submissions/Zora/SignThis.sol\":4431:4444  attendeeCount */\n      sload(0x04)\n        /* \"submissions/Zora/SignThis.sol\":4446:4459  isEventActive */\n      0x05\n      0x00\n      swap1\n      sload\n      swap1\n      0x0100\n      exp\n      swap1\n      div\n      0xff\n      and\n        /* \"submissions/Zora/SignThis.sol\":4387:4460  return (eventName, eventDate, maxAttendees, attendeeCount, isEventActive) */\n      dup5\n      dup1\n      sload\n      tag_72\n      swap1\n      tag_73\n      jump\t// in\n    tag_72:\n      dup1\n      0x1f\n      add\n      0x20\n      dup1\n      swap2\n      div\n      mul\n      0x20\n      add\n      mload(0x40)\n      swap1\n      dup2\n      add\n      0x40\n      mstore\n      dup1\n      swap3\n      swap2\n      swap1\n      dup2\n      dup2\n      mstore\n      0x20\n      add\n      dup3\n      dup1\n      sload\n      tag_74\n      swap1\n      tag_73\n      jump\t// in\n    tag_74:\n      dup1\n      iszero\n      tag_75\n      jumpi\n      dup1\n      0x1f\n      lt\n      tag_76\n      jumpi\n      0x0100\n      dup1\n      dup4\n      sload\n      div\n      mul\n      dup4\n      mstore\n      swap2\n      0x20\n      add\n      swap2\n      jump(tag_75)\n    tag_76:\n      dup3\n      add\n      swap2\n      swap1\n      0x00\n      mstore\n      keccak256(0x00, 0x20)\n      swap1\n    tag_77:\n      dup2\n      sload\n      dup2\n      mstore\n      swap1\n      0x01\n      add\n      swap1\n      0x20\n      add\n      dup1\n      dup4\n      gt\n      tag_77\n      jumpi\n      dup3\n      swap1\n      sub\n      0x1f\n      and\n      dup3\n      add\n      swap2\n    tag_75:\n      pop\n      pop\n      pop\n      pop\n      pop\n      swap5\n      pop\n      swap5\n      pop\n      swap5\n      pop\n      swap5\n      pop\n      swap5\n      pop\n      swap5\n      pop\n        /* \"submissions/Zora/SignThis.sol\":4187:4468  function getEventInfo() external view returns (... */\n      swap1\n      swap2\n      swap3\n      swap4\n      swap5\n      jump\t// out\n        /* \"submissions/Zora/SignThis.sol\":1927:3228  function batchCheckIn(... */\n    tag_42:\n        /* \"submissions/Zora/SignThis.sol\":1012:1025  isEventActive */\n      0x05\n      0x00\n      swap1\n      sload\n      swap1\n      0x0100\n      exp\n      swap1\n      div\n      0xff\n      and\n        /* \"submissions/Zora/SignThis.sol\":1004:1046  require(isEventActive, \"Event not active\") */\n      tag_79\n      jumpi\n      mload(0x40)\n      0x08c379a000000000000000000000000000000000000000000000000000000000\n      dup2\n      mstore\n      0x04\n      add\n      tag_80\n      swap1\n      tag_81\n      jump\t// in\n    tag_80:\n      mload(0x40)\n      dup1\n      swap2\n      sub\n      swap1\n      revert\n    tag_79:\n        /* \"submissions/Zora/SignThis.sol\":2146:2147  v */\n      dup6\n      dup6\n        /* \"submissions/Zora/SignThis.sol\":2146:2154  v.length */\n      swap1\n      pop\n        /* \"submissions/Zora/SignThis.sol\":2126:2135  attendees */\n      dup9\n      dup9\n        /* \"submissions/Zora/SignThis.sol\":2126:2142  attendees.length */\n      swap1\n      pop\n        /* \"submissions/Zora/SignThis.sol\":2126:2154  attendees.length == v.length */\n      eq\n        /* \"submissions/Zora/SignThis.sol\":2118:2180  require(attendees.length == v.length, \"Array length mismatch\") */\n      tag_83\n      jumpi\n      mload(0x40)\n      0x08c379a000000000000000000000000000000000000000000000000000000000\n      dup2\n      mstore\n      0x04\n      add\n      tag_84\n      swap1\n      tag_85\n      jump\t// in\n    tag_84:\n      mload(0x40)\n      dup1\n      swap2\n      sub\n      swap1\n      revert\n    tag_83:\n        /* \"submissions/Zora/SignThis.sol\":2219:2220  r */\n      dup4\n      dup4\n        /* \"submissions/Zora/SignThis.sol\":2219:2227  r.length */\n      swap1\n      pop\n        /* \"submissions/Zora/SignThis.sol\":2199:2208  attendees */\n      dup9\n      dup9\n        /* \"submissions/Zora/SignThis.sol\":2199:2215  attendees.length */\n      swap1\n      pop\n        /* \"submissions/Zora/SignThis.sol\":2199:2227  attendees.length == r.length */\n      eq\n        /* \"submissions/Zora/SignThis.sol\":2191:2253  require(attendees.length == r.length, \"Array length mismatch\") */\n      tag_86\n      jumpi\n      mload(0x40)\n      0x08c379a000000000000000000000000000000000000000000000000000000000\n      dup2\n      mstore\n      0x04\n      add\n      tag_87\n      swap1\n      tag_85\n      jump\t// in\n    tag_87:\n      mload(0x40)\n      dup1\n      swap2\n      sub\n      swap1\n      revert\n    tag_86:\n        /* \"submissions/Zora/SignThis.sol\":2292:2293  s */\n      dup2\n      dup2\n        /* \"submissions/Zora/SignThis.sol\":2292:2300  s.length */\n      swap1\n      pop\n        /* \"submissions/Zora/SignThis.sol\":2272:2281  attendees */\n      dup9\n      dup9\n        /* \"submissions/Zora/SignThis.sol\":2272:2288  attendees.length */\n      swap1\n      pop\n        /* \"submissions/Zora/SignThis.sol\":2272:2300  attendees.length == s.length */\n      eq\n        /* \"submissions/Zora/SignThis.sol\":2264:2326  require(attendees.length == s.length, \"Array length mismatch\") */\n      tag_88\n      jumpi\n      mload(0x40)\n      0x08c379a000000000000000000000000000000000000000000000000000000000\n      dup2\n      mstore\n      0x04\n      add\n      tag_89\n      swap1\n      tag_85\n      jump\t// in\n    tag_89:\n      mload(0x40)\n      dup1\n      swap2\n      sub\n      swap1\n      revert\n    tag_88:\n        /* \"submissions/Zora/SignThis.sol\":2381:2393  maxAttendees */\n      sload(0x03)\n        /* \"submissions/Zora/SignThis.sol\":2361:2370  attendees */\n      dup9\n      dup9\n        /* \"submissions/Zora/SignThis.sol\":2361:2377  attendees.length */\n      swap1\n      pop\n        /* \"submissions/Zora/SignThis.sol\":2345:2358  attendeeCount */\n      sload(0x04)\n        /* \"submissions/Zora/SignThis.sol\":2345:2377  attendeeCount + attendees.length */\n      tag_90\n      swap2\n      swap1\n      tag_91\n      jump\t// in\n    tag_90:\n        /* \"submissions/Zora/SignThis.sol\":2345:2393  attendeeCount + attendees.length <= maxAttendees */\n      gt\n      iszero\n        /* \"submissions/Zora/SignThis.sol\":2337:2419  require(attendeeCount + attendees.length <= maxAttendees, \"Would exceed capacity\") */\n      tag_92\n      jumpi\n      mload(0x40)\n      0x08c379a000000000000000000000000000000000000000000000000000000000\n      dup2\n      mstore\n      0x04\n      add\n      tag_93\n      swap1\n      tag_94\n      jump\t// in\n    tag_93:\n      mload(0x40)\n      dup1\n      swap2\n      sub\n      swap1\n      revert\n    tag_92:\n        /* \"submissions/Zora/SignThis.sol\":2437:2446  uint256 i */\n      0x00\n        /* \"submissions/Zora/SignThis.sol\":2449:2450  0 */\n      0x00\n        /* \"submissions/Zora/SignThis.sol\":2437:2450  uint256 i = 0 */\n      swap1\n      pop\n        /* \"submissions/Zora/SignThis.sol\":2432:3221  for (uint256 i = 0; i < attendees.length; i++) {... */\n    tag_95:\n        /* \"submissions/Zora/SignThis.sol\":2456:2465  attendees */\n      dup9\n      dup9\n        /* \"submissions/Zora/SignThis.sol\":2456:2472  attendees.length */\n      swap1\n      pop\n        /* \"submissions/Zora/SignThis.sol\":2452:2453  i */\n      dup2\n        /* \"submissions/Zora/SignThis.sol\":2452:2472  i < attendees.length */\n      lt\n        /* \"submissions/Zora/SignThis.sol\":2432:3221  for (uint256 i = 0; i < attendees.length; i++) {... */\n      iszero\n      tag_96\n      jumpi\n        /* \"submissions/Zora/SignThis.sol\":2494:2510  address attendee */\n      0x00\n        /* \"submissions/Zora/SignThis.sol\":2513:2522  attendees */\n      dup10\n      dup10\n        /* \"submissions/Zora/SignThis.sol\":2523:2524  i */\n      dup4\n        /* \"submissions/Zora/SignThis.sol\":2513:2525  attendees[i] */\n      dup2\n      dup2\n      lt\n      tag_98\n      jumpi\n      tag_99\n      tag_100\n      jump\t// in\n    tag_99:\n    tag_98:\n      swap1\n      pop\n      0x20\n      mul\n      add\n      0x20\n      dup2\n      add\n      swap1\n      tag_101\n      swap2\n      swap1\n      tag_20\n      jump\t// in\n    tag_101:\n        /* \"submissions/Zora/SignThis.sol\":2494:2525  address attendee = attendees[i] */\n      swap1\n      pop\n        /* \"submissions/Zora/SignThis.sol\":2546:2557  hasAttended */\n      0x06\n        /* \"submissions/Zora/SignThis.sol\":2546:2567  hasAttended[attendee] */\n      0x00\n        /* \"submissions/Zora/SignThis.sol\":2558:2566  attendee */\n      dup3\n        /* \"submissions/Zora/SignThis.sol\":2546:2567  hasAttended[attendee] */\n      0xffffffffffffffffffffffffffffffffffffffff\n      and\n      0xffffffffffffffffffffffffffffffffffffffff\n      and\n      dup2\n      mstore\n      0x20\n      add\n      swap1\n      dup2\n      mstore\n      0x20\n      add\n      0x00\n      keccak256\n      0x00\n      swap1\n      sload\n      swap1\n      0x0100\n      exp\n      swap1\n      div\n      0xff\n      and\n        /* \"submissions/Zora/SignThis.sol\":2542:2577  if (hasAttended[attendee]) continue */\n      iszero\n      tag_102\n      jumpi\n        /* \"submissions/Zora/SignThis.sol\":2569:2577  continue */\n      pop\n      jump(tag_97)\n        /* \"submissions/Zora/SignThis.sol\":2542:2577  if (hasAttended[attendee]) continue */\n    tag_102:\n        /* \"submissions/Zora/SignThis.sol\":2596:2615  bytes32 messageHash */\n      0x00\n        /* \"submissions/Zora/SignThis.sol\":2663:2671  attendee */\n      dup2\n        /* \"submissions/Zora/SignThis.sol\":2698:2702  this */\n      address\n        /* \"submissions/Zora/SignThis.sol\":2722:2731  eventName */\n      0x00\n        /* \"submissions/Zora/SignThis.sol\":2628:2746  abi.encodePacked(... */\n      add(0x20, mload(0x40))\n      tag_103\n      swap4\n      swap3\n      swap2\n      swap1\n      tag_70\n      jump\t// in\n    tag_103:\n      mload(0x40)\n      0x20\n      dup2\n      dup4\n      sub\n      sub\n      dup2\n      mstore\n      swap1\n      0x40\n      mstore\n        /* \"submissions/Zora/SignThis.sol\":2618:2747  keccak256(abi.encodePacked(... */\n      dup1\n      mload\n      swap1\n      0x20\n      add\n      keccak256\n        /* \"submissions/Zora/SignThis.sol\":2596:2747  bytes32 messageHash = keccak256(abi.encodePacked(... */\n      swap1\n      pop\n        /* \"submissions/Zora/SignThis.sol\":2764:2792  bytes32 ethSignedMessageHash */\n      0x00\n        /* \"submissions/Zora/SignThis.sol\":2893:2904  messageHash */\n      dup2\n        /* \"submissions/Zora/SignThis.sol\":2805:2919  abi.encodePacked(... */\n      add(0x20, mload(0x40))\n      tag_104\n      swap2\n      swap1\n      tag_105\n      jump\t// in\n    tag_104:\n      mload(0x40)\n      0x20\n      dup2\n      dup4\n      sub\n      sub\n      dup2\n      mstore\n      swap1\n      0x40\n      mstore\n        /* \"submissions/Zora/SignThis.sol\":2795:2920  keccak256(abi.encodePacked(... */\n      dup1\n      mload\n      swap1\n      0x20\n      add\n      keccak256\n        /* \"submissions/Zora/SignThis.sol\":2764:2920  bytes32 ethSignedMessageHash = keccak256(abi.encodePacked(... */\n      swap1\n      pop\n        /* \"submissions/Zora/SignThis.sol\":2937:2951  address signer */\n      0x00\n        /* \"submissions/Zora/SignThis.sol\":2954:3003  ecrecover(ethSignedMessageHash, v[i], r[i], s[i]) */\n      0x01\n        /* \"submissions/Zora/SignThis.sol\":2964:2984  ethSignedMessageHash */\n      dup3\n        /* \"submissions/Zora/SignThis.sol\":2986:2987  v */\n      dup13\n      dup13\n        /* \"submissions/Zora/SignThis.sol\":2988:2989  i */\n      dup9\n        /* \"submissions/Zora/SignThis.sol\":2986:2990  v[i] */\n      dup2\n      dup2\n      lt\n      tag_106\n      jumpi\n      tag_107\n      tag_100\n      jump\t// in\n    tag_107:\n    tag_106:\n      swap1\n      pop\n      0x20\n      mul\n      add\n      0x20\n      dup2\n      add\n      swap1\n      tag_108\n      swap2\n      swap1\n      tag_109\n      jump\t// in\n    tag_108:\n        /* \"submissions/Zora/SignThis.sol\":2992:2993  r */\n      dup12\n      dup12\n        /* \"submissions/Zora/SignThis.sol\":2994:2995  i */\n      dup10\n        /* \"submissions/Zora/SignThis.sol\":2992:2996  r[i] */\n      dup2\n      dup2\n      lt\n      tag_110\n      jumpi\n      tag_111\n      tag_100\n      jump\t// in\n    tag_111:\n    tag_110:\n      swap1\n      pop\n      0x20\n      mul\n      add\n      calldataload\n        /* \"submissions/Zora/SignThis.sol\":2998:2999  s */\n      dup11\n      dup11\n        /* \"submissions/Zora/SignThis.sol\":3000:3001  i */\n      dup11\n        /* \"submissions/Zora/SignThis.sol\":2998:3002  s[i] */\n      dup2\n      dup2\n      lt\n      tag_112\n      jumpi\n      tag_113\n      tag_100\n      jump\t// in\n    tag_113:\n    tag_112:\n      swap1\n      pop\n      0x20\n      mul\n      add\n      calldataload\n        /* \"submissions/Zora/SignThis.sol\":2954:3003  ecrecover(ethSignedMessageHash, v[i], r[i], s[i]) */\n      mload(0x40)\n      0x00\n      dup2\n      mstore\n      0x20\n      add\n      0x40\n      mstore\n      mload(0x40)\n      tag_114\n      swap5\n      swap4\n      swap3\n      swap2\n      swap1\n      tag_115\n      jump\t// in\n    tag_114:\n      0x20\n      mload(0x40)\n      0x20\n      dup2\n      sub\n      swap1\n      dup1\n      dup5\n      sub\n      swap1\n      dup6\n      gas\n      staticcall\n      iszero\n      dup1\n      iszero\n      tag_117\n      jumpi\n      returndatacopy(0x00, 0x00, returndatasize)\n      revert(0x00, returndatasize)\n    tag_117:\n      pop\n      pop\n      pop\n      mload(sub(mload(0x40), 0x20))\n        /* \"submissions/Zora/SignThis.sol\":2937:3003  address signer = ecrecover(ethSignedMessageHash, v[i], r[i], s[i]) */\n      swap1\n      pop\n        /* \"submissions/Zora/SignThis.sol\":3034:3043  organizer */\n      0x01\n      0x00\n      swap1\n      sload\n      swap1\n      0x0100\n      exp\n      swap1\n      div\n      0xffffffffffffffffffffffffffffffffffffffff\n      and\n        /* \"submissions/Zora/SignThis.sol\":3024:3043  signer == organizer */\n      0xffffffffffffffffffffffffffffffffffffffff\n      and\n        /* \"submissions/Zora/SignThis.sol\":3024:3030  signer */\n      dup2\n        /* \"submissions/Zora/SignThis.sol\":3024:3043  signer == organizer */\n      0xffffffffffffffffffffffffffffffffffffffff\n      and\n      sub\n        /* \"submissions/Zora/SignThis.sol\":3020:3210  if (signer == organizer) {... */\n      tag_118\n      jumpi\n        /* \"submissions/Zora/SignThis.sol\":3088:3092  true */\n      0x01\n        /* \"submissions/Zora/SignThis.sol\":3064:3075  hasAttended */\n      0x06\n        /* \"submissions/Zora/SignThis.sol\":3064:3085  hasAttended[attendee] */\n      0x00\n        /* \"submissions/Zora/SignThis.sol\":3076:3084  attendee */\n      dup7\n        /* \"submissions/Zora/SignThis.sol\":3064:3085  hasAttended[attendee] */\n      0xffffffffffffffffffffffffffffffffffffffff\n      and\n      0xffffffffffffffffffffffffffffffffffffffff\n      and\n      dup2\n      mstore\n      0x20\n      add\n      swap1\n      dup2\n      mstore\n      0x20\n      add\n      0x00\n      keccak256\n      0x00\n        /* \"submissions/Zora/SignThis.sol\":3064:3092  hasAttended[attendee] = true */\n      0x0100\n      exp\n      dup2\n      sload\n      dup2\n      0xff\n      mul\n      not\n      and\n      swap1\n      dup4\n      iszero\n      iszero\n      mul\n      or\n      swap1\n      sstore\n      pop\n        /* \"submissions/Zora/SignThis.sol\":3111:3124  attendeeCount */\n      0x04\n      0x00\n        /* \"submissions/Zora/SignThis.sol\":3111:3126  attendeeCount++ */\n      dup2\n      sload\n      dup1\n      swap3\n      swap2\n      swap1\n      tag_119\n      swap1\n      tag_120\n      jump\t// in\n    tag_119:\n      swap2\n      swap1\n      pop\n      sstore\n      pop\n        /* \"submissions/Zora/SignThis.sol\":3150:3194  AttendeeCheckedIn(attendee, block.timestamp) */\n      0xc4b6af862e5edf86b47bbd28434015dfdddfc6ce20ea8f6146df2972b54db5d5\n        /* \"submissions/Zora/SignThis.sol\":3168:3176  attendee */\n      dup5\n        /* \"submissions/Zora/SignThis.sol\":3178:3193  block.timestamp */\n      timestamp\n        /* \"submissions/Zora/SignThis.sol\":3150:3194  AttendeeCheckedIn(attendee, block.timestamp) */\n      mload(0x40)\n      tag_121\n      swap3\n      swap2\n      swap1\n      tag_122\n      jump\t// in\n    tag_121:\n      mload(0x40)\n      dup1\n      swap2\n      sub\n      swap1\n      log1\n        /* \"submissions/Zora/SignThis.sol\":3020:3210  if (signer == organizer) {... */\n    tag_118:\n        /* \"submissions/Zora/SignThis.sol\":2479:3221  {... */\n      pop\n      pop\n      pop\n      pop\n        /* \"submissions/Zora/SignThis.sol\":2432:3221  for (uint256 i = 0; i < attendees.length; i++) {... */\n    tag_97:\n        /* \"submissions/Zora/SignThis.sol\":2474:2477  i++ */\n      dup1\n      dup1\n      0x01\n      add\n      swap2\n      pop\n      pop\n        /* \"submissions/Zora/SignThis.sol\":2432:3221  for (uint256 i = 0; i < attendees.length; i++) {... */\n      jump(tag_95)\n    tag_96:\n      pop\n        /* \"submissions/Zora/SignThis.sol\":1927:3228  function batchCheckIn(... */\n      pop\n      pop\n      pop\n      pop\n      pop\n      pop\n      pop\n      pop\n      jump\t// out\n        /* \"submissions/Zora/SignThis.sol\":85:108  string public eventName */\n    tag_44:\n      0x00\n      dup1\n      sload\n      tag_123\n      swap1\n      tag_73\n      jump\t// in\n    tag_123:\n      dup1\n      0x1f\n      add\n      0x20\n      dup1\n      swap2\n      div\n      mul\n      0x20\n      add\n      mload(0x40)\n      swap1\n      dup2\n      add\n      0x40\n      mstore\n      dup1\n      swap3\n      swap2\n      swap1\n      dup2\n      dup2\n      mstore\n      0x20\n      add\n      dup3\n      dup1\n      sload\n      tag_124\n      swap1\n      tag_73\n      jump\t// in\n    tag_124:\n      dup1\n      iszero\n      tag_125\n      jumpi\n      dup1\n      0x1f\n      lt\n      tag_126\n      jumpi\n      0x0100\n      dup1\n      dup4\n      sload\n      div\n      mul\n      dup4\n      mstore\n      swap2\n      0x20\n      add\n      swap2\n      jump(tag_125)\n    tag_126:\n      dup3\n      add\n      swap2\n      swap1\n      0x00\n      mstore\n      keccak256(0x00, 0x20)\n      swap1\n    tag_127:\n      dup2\n      sload\n      dup2\n      mstore\n      swap1\n      0x01\n      add\n      swap1\n      0x20\n      add\n      dup1\n      dup4\n      gt\n      tag_127\n      jumpi\n      dup3\n      swap1\n      sub\n      0x1f\n      and\n      dup3\n      add\n      swap2\n    tag_125:\n      pop\n      pop\n      pop\n      pop\n      pop\n      dup2\n      jump\t// out\n        /* \"submissions/Zora/SignThis.sol\":3236:3800  function verifySignature(... */\n    tag_50:\n        /* \"submissions/Zora/SignThis.sol\":3376:3380  bool */\n      0x00\n        /* \"submissions/Zora/SignThis.sol\":3393:3412  bytes32 messageHash */\n      0x00\n        /* \"submissions/Zora/SignThis.sol\":3456:3464  attendee */\n      dup6\n        /* \"submissions/Zora/SignThis.sol\":3487:3491  this */\n      address\n        /* \"submissions/Zora/SignThis.sol\":3507:3516  eventName */\n      0x00\n        /* \"submissions/Zora/SignThis.sol\":3425:3527  abi.encodePacked(... */\n      add(0x20, mload(0x40))\n      tag_129\n      swap4\n      swap3\n      swap2\n      swap1\n      tag_70\n      jump\t// in\n    tag_129:\n      mload(0x40)\n      0x20\n      dup2\n      dup4\n      sub\n      sub\n      dup2\n      mstore\n      swap1\n      0x40\n      mstore\n        /* \"submissions/Zora/SignThis.sol\":3415:3528  keccak256(abi.encodePacked(... */\n      dup1\n      mload\n      swap1\n      0x20\n      add\n      keccak256\n        /* \"submissions/Zora/SignThis.sol\":3393:3528  bytes32 messageHash = keccak256(abi.encodePacked(... */\n      swap1\n      pop\n        /* \"submissions/Zora/SignThis.sol\":3541:3569  bytes32 ethSignedMessageHash */\n      0x00\n        /* \"submissions/Zora/SignThis.sol\":3662:3673  messageHash */\n      dup2\n        /* \"submissions/Zora/SignThis.sol\":3582:3684  abi.encodePacked(... */\n      add(0x20, mload(0x40))\n      tag_130\n      swap2\n      swap1\n      tag_105\n      jump\t// in\n    tag_130:\n      mload(0x40)\n      0x20\n      dup2\n      dup4\n      sub\n      sub\n      dup2\n      mstore\n      swap1\n      0x40\n      mstore\n        /* \"submissions/Zora/SignThis.sol\":3572:3685  keccak256(abi.encodePacked(... */\n      dup1\n      mload\n      swap1\n      0x20\n      add\n      keccak256\n        /* \"submissions/Zora/SignThis.sol\":3541:3685  bytes32 ethSignedMessageHash = keccak256(abi.encodePacked(... */\n      swap1\n      pop\n        /* \"submissions/Zora/SignThis.sol\":3698:3712  address signer */\n      0x00\n        /* \"submissions/Zora/SignThis.sol\":3715:3755  ecrecover(ethSignedMessageHash, v, r, s) */\n      0x01\n        /* \"submissions/Zora/SignThis.sol\":3725:3745  ethSignedMessageHash */\n      dup3\n        /* \"submissions/Zora/SignThis.sol\":3747:3748  v */\n      dup9\n        /* \"submissions/Zora/SignThis.sol\":3750:3751  r */\n      dup9\n        /* \"submissions/Zora/SignThis.sol\":3753:3754  s */\n      dup9\n        /* \"submissions/Zora/SignThis.sol\":3715:3755  ecrecover(ethSignedMessageHash, v, r, s) */\n      mload(0x40)\n      0x00\n      dup2\n      mstore\n      0x20\n      add\n      0x40\n      mstore\n      mload(0x40)\n      tag_131\n      swap5\n      swap4\n      swap3\n      swap2\n      swap1\n      tag_115\n      jump\t// in\n    tag_131:\n      0x20\n      mload(0x40)\n      0x20\n      dup2\n      sub\n      swap1\n      dup1\n      dup5\n      sub\n      swap1\n      dup6\n      gas\n      staticcall\n      iszero\n      dup1\n      iszero\n      tag_133\n      jumpi\n      returndatacopy(0x00, 0x00, returndatasize)\n      revert(0x00, returndatasize)\n    tag_133:\n      pop\n      pop\n      pop\n      mload(sub(mload(0x40), 0x20))\n        /* \"submissions/Zora/SignThis.sol\":3698:3755  address signer = ecrecover(ethSignedMessageHash, v, r, s) */\n      swap1\n      pop\n        /* \"submissions/Zora/SignThis.sol\":3783:3792  organizer */\n      0x01\n      0x00\n      swap1\n      sload\n      swap1\n      0x0100\n      exp\n      swap1\n      div\n      0xffffffffffffffffffffffffffffffffffffffff\n      and\n        /* \"submissions/Zora/SignThis.sol\":3773:3792  signer == organizer */\n      0xffffffffffffffffffffffffffffffffffffffff\n      and\n        /* \"submissions/Zora/SignThis.sol\":3773:3779  signer */\n      dup2\n        /* \"submissions/Zora/SignThis.sol\":3773:3792  signer == organizer */\n      0xffffffffffffffffffffffffffffffffffffffff\n      and\n      eq\n        /* \"submissions/Zora/SignThis.sol\":3766:3792  return signer == organizer */\n      swap4\n      pop\n      pop\n      pop\n      pop\n        /* \"submissions/Zora/SignThis.sol\":3236:3800  function verifySignature(... */\n      swap5\n      swap4\n      pop\n      pop\n      pop\n      pop\n      jump\t// out\n        /* \"submissions/Zora/SignThis.sol\":246:271  bool public isEventActive */\n    tag_54:\n      0x05\n      0x00\n      swap1\n      sload\n      swap1\n      0x0100\n      exp\n      swap1\n      div\n      0xff\n      and\n      dup2\n      jump\t// out\n        /* \"submissions/Zora/SignThis.sol\":1074:1919  function checkInWithSignature(... */\n    tag_58:\n        /* \"submissions/Zora/SignThis.sol\":1012:1025  isEventActive */\n      0x05\n      0x00\n      swap1\n      sload\n      swap1\n      0x0100\n      exp\n      swap1\n      div\n      0xff\n      and\n        /* \"submissions/Zora/SignThis.sol\":1004:1046  require(isEventActive, \"Event not active\") */\n      tag_135\n      jumpi\n      mload(0x40)\n      0x08c379a000000000000000000000000000000000000000000000000000000000\n      dup2\n      mstore\n      0x04\n      add\n      tag_136\n      swap1\n      tag_81\n      jump\t// in\n    tag_136:\n      mload(0x40)\n      dup1\n      swap2\n      sub\n      swap1\n      revert\n    tag_135:\n        /* \"submissions/Zora/SignThis.sol\":1252:1264  maxAttendees */\n      sload(0x03)\n        /* \"submissions/Zora/SignThis.sol\":1236:1249  attendeeCount */\n      sload(0x04)\n        /* \"submissions/Zora/SignThis.sol\":1236:1264  attendeeCount < maxAttendees */\n      lt\n        /* \"submissions/Zora/SignThis.sol\":1228:1279  require(attendeeCount < maxAttendees, \"Event full\") */\n      tag_138\n      jumpi\n      mload(0x40)\n      0x08c379a000000000000000000000000000000000000000000000000000000000\n      dup2\n      mstore\n      0x04\n      add\n      tag_139\n      swap1\n      tag_140\n      jump\t// in\n    tag_139:\n      mload(0x40)\n      dup1\n      swap2\n      sub\n      swap1\n      revert\n    tag_138:\n        /* \"submissions/Zora/SignThis.sol\":1299:1310  hasAttended */\n      0x06\n        /* \"submissions/Zora/SignThis.sol\":1299:1320  hasAttended[attendee] */\n      0x00\n        /* \"submissions/Zora/SignThis.sol\":1311:1319  attendee */\n      dup6\n        /* \"submissions/Zora/SignThis.sol\":1299:1320  hasAttended[attendee] */\n      0xffffffffffffffffffffffffffffffffffffffff\n      and\n      0xffffffffffffffffffffffffffffffffffffffff\n      and\n      dup2\n      mstore\n      0x20\n      add\n      swap1\n      dup2\n      mstore\n      0x20\n      add\n      0x00\n      keccak256\n      0x00\n      swap1\n      sload\n      swap1\n      0x0100\n      exp\n      swap1\n      div\n      0xff\n      and\n        /* \"submissions/Zora/SignThis.sol\":1298:1320  !hasAttended[attendee] */\n      iszero\n        /* \"submissions/Zora/SignThis.sol\":1290:1343  require(!hasAttended[attendee], \"Already checked in\") */\n      tag_141\n      jumpi\n      mload(0x40)\n      0x08c379a000000000000000000000000000000000000000000000000000000000\n      dup2\n      mstore\n      0x04\n      add\n      tag_142\n      swap1\n      tag_143\n      jump\t// in\n    tag_142:\n      mload(0x40)\n      dup1\n      swap2\n      sub\n      swap1\n      revert\n    tag_141:\n        /* \"submissions/Zora/SignThis.sol\":1356:1375  bytes32 messageHash */\n      0x00\n        /* \"submissions/Zora/SignThis.sol\":1419:1427  attendee */\n      dup5\n        /* \"submissions/Zora/SignThis.sol\":1450:1454  this */\n      address\n        /* \"submissions/Zora/SignThis.sol\":1472:1481  eventName */\n      0x00\n        /* \"submissions/Zora/SignThis.sol\":1388:1492  abi.encodePacked(... */\n      add(0x20, mload(0x40))\n      tag_144\n      swap4\n      swap3\n      swap2\n      swap1\n      tag_70\n      jump\t// in\n    tag_144:\n      mload(0x40)\n      0x20\n      dup2\n      dup4\n      sub\n      sub\n      dup2\n      mstore\n      swap1\n      0x40\n      mstore\n        /* \"submissions/Zora/SignThis.sol\":1378:1493  keccak256(abi.encodePacked(... */\n      dup1\n      mload\n      swap1\n      0x20\n      add\n      keccak256\n        /* \"submissions/Zora/SignThis.sol\":1356:1493  bytes32 messageHash = keccak256(abi.encodePacked(... */\n      swap1\n      pop\n        /* \"submissions/Zora/SignThis.sol\":1506:1534  bytes32 ethSignedMessageHash */\n      0x00\n        /* \"submissions/Zora/SignThis.sol\":1627:1638  messageHash */\n      dup2\n        /* \"submissions/Zora/SignThis.sol\":1547:1649  abi.encodePacked(... */\n      add(0x20, mload(0x40))\n      tag_145\n      swap2\n      swap1\n      tag_105\n      jump\t// in\n    tag_145:\n      mload(0x40)\n      0x20\n      dup2\n      dup4\n      sub\n      sub\n      dup2\n      mstore\n      swap1\n      0x40\n      mstore\n        /* \"submissions/Zora/SignThis.sol\":1537:1650  keccak256(abi.encodePacked(... */\n      dup1\n      mload\n      swap1\n      0x20\n      add\n      keccak256\n        /* \"submissions/Zora/SignThis.sol\":1506:1650  bytes32 ethSignedMessageHash = keccak256(abi.encodePacked(... */\n      swap1\n      pop\n        /* \"submissions/Zora/SignThis.sol\":1663:1677  address signer */\n      0x00\n        /* \"submissions/Zora/SignThis.sol\":1680:1720  ecrecover(ethSignedMessageHash, v, r, s) */\n      0x01\n        /* \"submissions/Zora/SignThis.sol\":1690:1710  ethSignedMessageHash */\n      dup3\n        /* \"submissions/Zora/SignThis.sol\":1712:1713  v */\n      dup8\n        /* \"submissions/Zora/SignThis.sol\":1715:1716  r */\n      dup8\n        /* \"submissions/Zora/SignThis.sol\":1718:1719  s */\n      dup8\n        /* \"submissions/Zora/SignThis.sol\":1680:1720  ecrecover(ethSignedMessageHash, v, r, s) */\n      mload(0x40)\n      0x00\n      dup2\n      mstore\n      0x20\n      add\n      0x40\n      mstore\n      mload(0x40)\n      tag_146\n      swap5\n      swap4\n      swap3\n      swap2\n      swap1\n      tag_115\n      jump\t// in\n    tag_146:\n      0x20\n      mload(0x40)\n      0x20\n      dup2\n      sub\n      swap1\n      dup1\n      dup5\n      sub\n      swap1\n      dup6\n      gas\n      staticcall\n      iszero\n      dup1\n      iszero\n      tag_148\n      jumpi\n      returndatacopy(0x00, 0x00, returndatasize)\n      revert(0x00, returndatasize)\n    tag_148:\n      pop\n      pop\n      pop\n      mload(sub(mload(0x40), 0x20))\n        /* \"submissions/Zora/SignThis.sol\":1663:1720  address signer = ecrecover(ethSignedMessageHash, v, r, s) */\n      swap1\n      pop\n        /* \"submissions/Zora/SignThis.sol\":1751:1760  organizer */\n      0x01\n      0x00\n      swap1\n      sload\n      swap1\n      0x0100\n      exp\n      swap1\n      div\n      0xffffffffffffffffffffffffffffffffffffffff\n      and\n        /* \"submissions/Zora/SignThis.sol\":1741:1760  signer == organizer */\n      0xffffffffffffffffffffffffffffffffffffffff\n      and\n        /* \"submissions/Zora/SignThis.sol\":1741:1747  signer */\n      dup2\n        /* \"submissions/Zora/SignThis.sol\":1741:1760  signer == organizer */\n      0xffffffffffffffffffffffffffffffffffffffff\n      and\n      eq\n        /* \"submissions/Zora/SignThis.sol\":1733:1782  require(signer == organizer, \"Invalid signature\") */\n      tag_149\n      jumpi\n      mload(0x40)\n      0x08c379a000000000000000000000000000000000000000000000000000000000\n      dup2\n      mstore\n      0x04\n      add\n      tag_150\n      swap1\n      tag_151\n      jump\t// in\n    tag_150:\n      mload(0x40)\n      dup1\n      swap2\n      sub\n      swap1\n      revert\n    tag_149:\n        /* \"submissions/Zora/SignThis.sol\":1819:1823  true */\n      0x01\n        /* \"submissions/Zora/SignThis.sol\":1795:1806  hasAttended */\n      0x06\n        /* \"submissions/Zora/SignThis.sol\":1795:1816  hasAttended[attendee] */\n      0x00\n        /* \"submissions/Zora/SignThis.sol\":1807:1815  attendee */\n      dup10\n        /* \"submissions/Zora/SignThis.sol\":1795:1816  hasAttended[attendee] */\n      0xffffffffffffffffffffffffffffffffffffffff\n      and\n      0xffffffffffffffffffffffffffffffffffffffff\n      and\n      dup2\n      mstore\n      0x20\n      add\n      swap1\n      dup2\n      mstore\n      0x20\n      add\n      0x00\n      keccak256\n      0x00\n        /* \"submissions/Zora/SignThis.sol\":1795:1823  hasAttended[attendee] = true */\n      0x0100\n      exp\n      dup2\n      sload\n      dup2\n      0xff\n      mul\n      not\n      and\n      swap1\n      dup4\n      iszero\n      iszero\n      mul\n      or\n      swap1\n      sstore\n      pop\n        /* \"submissions/Zora/SignThis.sol\":1834:1847  attendeeCount */\n      0x04\n      0x00\n        /* \"submissions/Zora/SignThis.sol\":1834:1849  attendeeCount++ */\n      dup2\n      sload\n      dup1\n      swap3\n      swap2\n      swap1\n      tag_152\n      swap1\n      tag_120\n      jump\t// in\n    tag_152:\n      swap2\n      swap1\n      pop\n      sstore\n      pop\n        /* \"submissions/Zora/SignThis.sol\":1867:1911  AttendeeCheckedIn(attendee, block.timestamp) */\n      0xc4b6af862e5edf86b47bbd28434015dfdddfc6ce20ea8f6146df2972b54db5d5\n        /* \"submissions/Zora/SignThis.sol\":1885:1893  attendee */\n      dup8\n        /* \"submissions/Zora/SignThis.sol\":1895:1910  block.timestamp */\n      timestamp\n        /* \"submissions/Zora/SignThis.sol\":1867:1911  AttendeeCheckedIn(attendee, block.timestamp) */\n      mload(0x40)\n      tag_153\n      swap3\n      swap2\n      swap1\n      tag_122\n      jump\t// in\n    tag_153:\n      mload(0x40)\n      dup1\n      swap2\n      sub\n      swap1\n      log1\n        /* \"submissions/Zora/SignThis.sol\":1217:1919  {... */\n      pop\n      pop\n      pop\n        /* \"submissions/Zora/SignThis.sol\":1074:1919  function checkInWithSignature(... */\n      pop\n      pop\n      pop\n      pop\n      jump\t// out\n        /* \"submissions/Zora/SignThis.sol\":280:323  mapping(address => bool) public hasAttended */\n    tag_61:\n      mstore(0x20, 0x06)\n      dup1\n      0x00\n      mstore\n      keccak256(0x00, 0x40)\n      0x00\n      swap2\n      pop\n      sload\n      swap1\n      0x0100\n      exp\n      swap1\n      div\n      0xff\n      and\n      dup2\n      jump\t// out\n        /* \"submissions/Zora/SignThis.sol\":4029:4179  function toggleEventStatus() external onlyOrganizer {... */\n    tag_64:\n        /* \"submissions/Zora/SignThis.sol\":914:923  organizer */\n      0x01\n      0x00\n      swap1\n      sload\n      swap1\n      0x0100\n      exp\n      swap1\n      div\n      0xffffffffffffffffffffffffffffffffffffffff\n      and\n        /* \"submissions/Zora/SignThis.sol\":900:923  msg.sender == organizer */\n      0xffffffffffffffffffffffffffffffffffffffff\n      and\n        /* \"submissions/Zora/SignThis.sol\":900:910  msg.sender */\n      caller\n        /* \"submissions/Zora/SignThis.sol\":900:923  msg.sender == organizer */\n      0xffffffffffffffffffffffffffffffffffffffff\n      and\n      eq\n        /* \"submissions/Zora/SignThis.sol\":892:942  require(msg.sender == organizer, \"Only organizer\") */\n      tag_155\n      jumpi\n      mload(0x40)\n      0x08c379a000000000000000000000000000000000000000000000000000000000\n      dup2\n      mstore\n      0x04\n      add\n      tag_156\n      swap1\n      tag_157\n      jump\t// in\n    tag_156:\n      mload(0x40)\n      dup1\n      swap2\n      sub\n      swap1\n      revert\n    tag_155:\n        /* \"submissions/Zora/SignThis.sol\":4109:4122  isEventActive */\n      0x05\n      0x00\n      swap1\n      sload\n      swap1\n      0x0100\n      exp\n      swap1\n      div\n      0xff\n      and\n        /* \"submissions/Zora/SignThis.sol\":4108:4122  !isEventActive */\n      iszero\n        /* \"submissions/Zora/SignThis.sol\":4092:4105  isEventActive */\n      0x05\n      0x00\n        /* \"submissions/Zora/SignThis.sol\":4092:4122  isEventActive = !isEventActive */\n      0x0100\n      exp\n      dup2\n      sload\n      dup2\n      0xff\n      mul\n      not\n      and\n      swap1\n      dup4\n      iszero\n      iszero\n      mul\n      or\n      swap1\n      sstore\n      pop\n        /* \"submissions/Zora/SignThis.sol\":4138:4171  EventStatusChanged(isEventActive) */\n      0x3b2459d109ea4ebe9f621a02c3324d4b06bcbb121b32094e9210c57575e2f150\n        /* \"submissions/Zora/SignThis.sol\":4157:4170  isEventActive */\n      0x05\n      0x00\n      swap1\n      sload\n      swap1\n      0x0100\n      exp\n      swap1\n      div\n      0xff\n      and\n        /* \"submissions/Zora/SignThis.sol\":4138:4171  EventStatusChanged(isEventActive) */\n      mload(0x40)\n      tag_159\n      swap2\n      swap1\n      tag_52\n      jump\t// in\n    tag_159:\n      mload(0x40)\n      dup1\n      swap2\n      sub\n      swap1\n      log1\n        /* \"submissions/Zora/SignThis.sol\":4029:4179  function toggleEventStatus() external onlyOrganizer {... */\n      jump\t// out\n        /* \"submissions/Zora/SignThis.sol\":211:239  uint256 public attendeeCount */\n    tag_66:\n      sload(0x04)\n      dup2\n      jump\t// out\n        /* \"#utility.yul\":88:205   */\n    tag_161:\n        /* \"#utility.yul\":197:198   */\n      0x00\n        /* \"#utility.yul\":194:195   */\n      0x00\n        /* \"#utility.yul\":187:199   */\n      revert\n        /* \"#utility.yul\":211:328   */\n    tag_162:\n        /* \"#utility.yul\":320:321   */\n      0x00\n        /* \"#utility.yul\":317:318   */\n      0x00\n        /* \"#utility.yul\":310:322   */\n      revert\n        /* \"#utility.yul\":334:460   */\n    tag_163:\n        /* \"#utility.yul\":371:378   */\n      0x00\n        /* \"#utility.yul\":411:453   */\n      0xffffffffffffffffffffffffffffffffffffffff\n        /* \"#utility.yul\":404:409   */\n      dup3\n        /* \"#utility.yul\":400:454   */\n      and\n        /* \"#utility.yul\":389:454   */\n      swap1\n      pop\n        /* \"#utility.yul\":334:460   */\n      swap2\n      swap1\n      pop\n      jump\t// out\n        /* \"#utility.yul\":466:562   */\n    tag_164:\n        /* \"#utility.yul\":503:510   */\n      0x00\n        /* \"#utility.yul\":532:556   */\n      tag_224\n        /* \"#utility.yul\":550:555   */\n      dup3\n        /* \"#utility.yul\":532:556   */\n      tag_163\n      jump\t// in\n    tag_224:\n        /* \"#utility.yul\":521:556   */\n      swap1\n      pop\n        /* \"#utility.yul\":466:562   */\n      swap2\n      swap1\n      pop\n      jump\t// out\n        /* \"#utility.yul\":568:690   */\n    tag_165:\n        /* \"#utility.yul\":641:665   */\n      tag_226\n        /* \"#utility.yul\":659:664   */\n      dup2\n        /* \"#utility.yul\":641:665   */\n      tag_164\n      jump\t// in\n    tag_226:\n        /* \"#utility.yul\":634:639   */\n      dup2\n        /* \"#utility.yul\":631:666   */\n      eq\n        /* \"#utility.yul\":621:684   */\n      tag_227\n      jumpi\n        /* \"#utility.yul\":680:681   */\n      0x00\n        /* \"#utility.yul\":677:678   */\n      0x00\n        /* \"#utility.yul\":670:682   */\n      revert\n        /* \"#utility.yul\":621:684   */\n    tag_227:\n        /* \"#utility.yul\":568:690   */\n      pop\n      jump\t// out\n        /* \"#utility.yul\":696:835   */\n    tag_166:\n        /* \"#utility.yul\":742:747   */\n      0x00\n        /* \"#utility.yul\":780:786   */\n      dup2\n        /* \"#utility.yul\":767:787   */\n      calldataload\n        /* \"#utility.yul\":758:787   */\n      swap1\n      pop\n        /* \"#utility.yul\":796:829   */\n      tag_229\n        /* \"#utility.yul\":823:828   */\n      dup2\n        /* \"#utility.yul\":796:829   */\n      tag_165\n      jump\t// in\n    tag_229:\n        /* \"#utility.yul\":696:835   */\n      swap3\n      swap2\n      pop\n      pop\n      jump\t// out\n        /* \"#utility.yul\":841:1170   */\n    tag_20:\n        /* \"#utility.yul\":900:906   */\n      0x00\n        /* \"#utility.yul\":949:951   */\n      0x20\n        /* \"#utility.yul\":937:946   */\n      dup3\n        /* \"#utility.yul\":928:935   */\n      dup5\n        /* \"#utility.yul\":924:947   */\n      sub\n        /* \"#utility.yul\":920:952   */\n      slt\n        /* \"#utility.yul\":917:1036   */\n      iszero\n      tag_231\n      jumpi\n        /* \"#utility.yul\":955:1034   */\n      tag_232\n      tag_161\n      jump\t// in\n    tag_232:\n        /* \"#utility.yul\":917:1036   */\n    tag_231:\n        /* \"#utility.yul\":1075:1076   */\n      0x00\n        /* \"#utility.yul\":1100:1153   */\n      tag_233\n        /* \"#utility.yul\":1145:1152   */\n      dup5\n        /* \"#utility.yul\":1136:1142   */\n      dup3\n        /* \"#utility.yul\":1125:1134   */\n      dup6\n        /* \"#utility.yul\":1121:1143   */\n      add\n        /* \"#utility.yul\":1100:1153   */\n      tag_166\n      jump\t// in\n    tag_233:\n        /* \"#utility.yul\":1090:1153   */\n      swap2\n      pop\n        /* \"#utility.yul\":1046:1163   */\n      pop\n        /* \"#utility.yul\":841:1170   */\n      swap3\n      swap2\n      pop\n      pop\n      jump\t// out\n        /* \"#utility.yul\":1176:1253   */\n    tag_167:\n        /* \"#utility.yul\":1213:1220   */\n      0x00\n        /* \"#utility.yul\":1242:1247   */\n      dup2\n        /* \"#utility.yul\":1231:1247   */\n      swap1\n      pop\n        /* \"#utility.yul\":1176:1253   */\n      swap2\n      swap1\n      pop\n      jump\t// out\n        /* \"#utility.yul\":1259:1377   */\n    tag_168:\n        /* \"#utility.yul\":1346:1370   */\n      tag_236\n        /* \"#utility.yul\":1364:1369   */\n      dup2\n        /* \"#utility.yul\":1346:1370   */\n      tag_167\n      jump\t// in\n    tag_236:\n        /* \"#utility.yul\":1341:1344   */\n      dup3\n        /* \"#utility.yul\":1334:1371   */\n      mstore\n        /* \"#utility.yul\":1259:1377   */\n      pop\n      pop\n      jump\t// out\n        /* \"#utility.yul\":1383:1605   */\n    tag_23:\n        /* \"#utility.yul\":1476:1480   */\n      0x00\n        /* \"#utility.yul\":1514:1516   */\n      0x20\n        /* \"#utility.yul\":1503:1512   */\n      dup3\n        /* \"#utility.yul\":1499:1517   */\n      add\n        /* \"#utility.yul\":1491:1517   */\n      swap1\n      pop\n        /* \"#utility.yul\":1527:1598   */\n      tag_238\n        /* \"#utility.yul\":1595:1596   */\n      0x00\n        /* \"#utility.yul\":1584:1593   */\n      dup4\n        /* \"#utility.yul\":1580:1597   */\n      add\n        /* \"#utility.yul\":1571:1577   */\n      dup5\n        /* \"#utility.yul\":1527:1598   */\n      tag_168\n      jump\t// in\n    tag_238:\n        /* \"#utility.yul\":1383:1605   */\n      swap3\n      swap2\n      pop\n      pop\n      jump\t// out\n        /* \"#utility.yul\":1611:1688   */\n    tag_169:\n        /* \"#utility.yul\":1648:1655   */\n      0x00\n        /* \"#utility.yul\":1677:1682   */\n      dup2\n        /* \"#utility.yul\":1666:1682   */\n      swap1\n      pop\n        /* \"#utility.yul\":1611:1688   */\n      swap2\n      swap1\n      pop\n      jump\t// out\n        /* \"#utility.yul\":1694:1812   */\n    tag_170:\n        /* \"#utility.yul\":1781:1805   */\n      tag_241\n        /* \"#utility.yul\":1799:1804   */\n      dup2\n        /* \"#utility.yul\":1781:1805   */\n      tag_169\n      jump\t// in\n    tag_241:\n        /* \"#utility.yul\":1776:1779   */\n      dup3\n        /* \"#utility.yul\":1769:1806   */\n      mstore\n        /* \"#utility.yul\":1694:1812   */\n      pop\n      pop\n      jump\t// out\n        /* \"#utility.yul\":1818:2040   */\n    tag_27:\n        /* \"#utility.yul\":1911:1915   */\n      0x00\n        /* \"#utility.yul\":1949:1951   */\n      0x20\n        /* \"#utility.yul\":1938:1947   */\n      dup3\n        /* \"#utility.yul\":1934:1952   */\n      add\n        /* \"#utility.yul\":1926:1952   */\n      swap1\n      pop\n        /* \"#utility.yul\":1962:2033   */\n      tag_243\n        /* \"#utility.yul\":2030:2031   */\n      0x00\n        /* \"#utility.yul\":2019:2028   */\n      dup4\n        /* \"#utility.yul\":2015:2032   */\n      add\n        /* \"#utility.yul\":2006:2012   */\n      dup5\n        /* \"#utility.yul\":1962:2033   */\n      tag_170\n      jump\t// in\n    tag_243:\n        /* \"#utility.yul\":1818:2040   */\n      swap3\n      swap2\n      pop\n      pop\n      jump\t// out\n        /* \"#utility.yul\":2046:2164   */\n    tag_171:\n        /* \"#utility.yul\":2133:2157   */\n      tag_245\n        /* \"#utility.yul\":2151:2156   */\n      dup2\n        /* \"#utility.yul\":2133:2157   */\n      tag_164\n      jump\t// in\n    tag_245:\n        /* \"#utility.yul\":2128:2131   */\n      dup3\n        /* \"#utility.yul\":2121:2158   */\n      mstore\n        /* \"#utility.yul\":2046:2164   */\n      pop\n      pop\n      jump\t// out\n        /* \"#utility.yul\":2170:2392   */\n    tag_34:\n        /* \"#utility.yul\":2263:2267   */\n      0x00\n        /* \"#utility.yul\":2301:2303   */\n      0x20\n        /* \"#utility.yul\":2290:2299   */\n      dup3\n        /* \"#utility.yul\":2286:2304   */\n      add\n        /* \"#utility.yul\":2278:2304   */\n      swap1\n      pop\n        /* \"#utility.yul\":2314:2385   */\n      tag_247\n        /* \"#utility.yul\":2382:2383   */\n      0x00\n        /* \"#utility.yul\":2371:2380   */\n      dup4\n        /* \"#utility.yul\":2367:2384   */\n      add\n        /* \"#utility.yul\":2358:2364   */\n      dup5\n        /* \"#utility.yul\":2314:2385   */\n      tag_171\n      jump\t// in\n    tag_247:\n        /* \"#utility.yul\":2170:2392   */\n      swap3\n      swap2\n      pop\n      pop\n      jump\t// out\n        /* \"#utility.yul\":2398:2497   */\n    tag_172:\n        /* \"#utility.yul\":2450:2456   */\n      0x00\n        /* \"#utility.yul\":2484:2489   */\n      dup2\n        /* \"#utility.yul\":2478:2490   */\n      mload\n        /* \"#utility.yul\":2468:2490   */\n      swap1\n      pop\n        /* \"#utility.yul\":2398:2497   */\n      swap2\n      swap1\n      pop\n      jump\t// out\n        /* \"#utility.yul\":2503:2672   */\n    tag_173:\n        /* \"#utility.yul\":2587:2598   */\n      0x00\n        /* \"#utility.yul\":2621:2627   */\n      dup3\n        /* \"#utility.yul\":2616:2619   */\n      dup3\n        /* \"#utility.yul\":2609:2628   */\n      mstore\n        /* \"#utility.yul\":2661:2665   */\n      0x20\n        /* \"#utility.yul\":2656:2659   */\n      dup3\n        /* \"#utility.yul\":2652:2666   */\n      add\n        /* \"#utility.yul\":2637:2666   */\n      swap1\n      pop\n        /* \"#utility.yul\":2503:2672   */\n      swap3\n      swap2\n      pop\n      pop\n      jump\t// out\n        /* \"#utility.yul\":2678:2817   */\n    tag_174:\n        /* \"#utility.yul\":2767:2773   */\n      dup3\n        /* \"#utility.yul\":2762:2765   */\n      dup2\n        /* \"#utility.yul\":2757:2760   */\n      dup4\n        /* \"#utility.yul\":2751:2774   */\n      mcopy\n        /* \"#utility.yul\":2808:2809   */\n      0x00\n        /* \"#utility.yul\":2799:2805   */\n      dup4\n        /* \"#utility.yul\":2794:2797   */\n      dup4\n        /* \"#utility.yul\":2790:2806   */\n      add\n        /* \"#utility.yul\":2783:2810   */\n      mstore\n        /* \"#utility.yul\":2678:2817   */\n      pop\n      pop\n      pop\n      jump\t// out\n        /* \"#utility.yul\":2823:2925   */\n    tag_175:\n        /* \"#utility.yul\":2864:2870   */\n      0x00\n        /* \"#utility.yul\":2915:2917   */\n      0x1f\n        /* \"#utility.yul\":2911:2918   */\n      not\n        /* \"#utility.yul\":2906:2908   */\n      0x1f\n        /* \"#utility.yul\":2899:2904   */\n      dup4\n        /* \"#utility.yul\":2895:2909   */\n      add\n        /* \"#utility.yul\":2891:2919   */\n      and\n        /* \"#utility.yul\":2881:2919   */\n      swap1\n      pop\n        /* \"#utility.yul\":2823:2925   */\n      swap2\n      swap1\n      pop\n      jump\t// out\n        /* \"#utility.yul\":2931:3308   */\n    tag_176:\n        /* \"#utility.yul\":3019:3022   */\n      0x00\n        /* \"#utility.yul\":3047:3086   */\n      tag_253\n        /* \"#utility.yul\":3080:3085   */\n      dup3\n        /* \"#utility.yul\":3047:3086   */\n      tag_172\n      jump\t// in\n    tag_253:\n        /* \"#utility.yul\":3102:3173   */\n      tag_254\n        /* \"#utility.yul\":3166:3172   */\n      dup2\n        /* \"#utility.yul\":3161:3164   */\n      dup6\n        /* \"#utility.yul\":3102:3173   */\n      tag_173\n      jump\t// in\n    tag_254:\n        /* \"#utility.yul\":3095:3173   */\n      swap4\n      pop\n        /* \"#utility.yul\":3182:3247   */\n      tag_255\n        /* \"#utility.yul\":3240:3246   */\n      dup2\n        /* \"#utility.yul\":3235:3238   */\n      dup6\n        /* \"#utility.yul\":3228:3232   */\n      0x20\n        /* \"#utility.yul\":3221:3226   */\n      dup7\n        /* \"#utility.yul\":3217:3233   */\n      add\n        /* \"#utility.yul\":3182:3247   */\n      tag_174\n      jump\t// in\n    tag_255:\n        /* \"#utility.yul\":3272:3301   */\n      tag_256\n        /* \"#utility.yul\":3294:3300   */\n      dup2\n        /* \"#utility.yul\":3272:3301   */\n      tag_175\n      jump\t// in\n    tag_256:\n        /* \"#utility.yul\":3267:3270   */\n      dup5\n        /* \"#utility.yul\":3263:3302   */\n      add\n        /* \"#utility.yul\":3256:3302   */\n      swap2\n      pop\n        /* \"#utility.yul\":3023:3308   */\n      pop\n        /* \"#utility.yul\":2931:3308   */\n      swap3\n      swap2\n      pop\n      pop\n      jump\t// out\n        /* \"#utility.yul\":3314:3404   */\n    tag_177:\n        /* \"#utility.yul\":3348:3355   */\n      0x00\n        /* \"#utility.yul\":3391:3396   */\n      dup2\n        /* \"#utility.yul\":3384:3397   */\n      iszero\n        /* \"#utility.yul\":3377:3398   */\n      iszero\n        /* \"#utility.yul\":3366:3398   */\n      swap1\n      pop\n        /* \"#utility.yul\":3314:3404   */\n      swap2\n      swap1\n      pop\n      jump\t// out\n        /* \"#utility.yul\":3410:3519   */\n    tag_178:\n        /* \"#utility.yul\":3491:3512   */\n      tag_259\n        /* \"#utility.yul\":3506:3511   */\n      dup2\n        /* \"#utility.yul\":3491:3512   */\n      tag_177\n      jump\t// in\n    tag_259:\n        /* \"#utility.yul\":3486:3489   */\n      dup3\n        /* \"#utility.yul\":3479:3513   */\n      mstore\n        /* \"#utility.yul\":3410:3519   */\n      pop\n      pop\n      jump\t// out\n        /* \"#utility.yul\":3525:4268   */\n    tag_38:\n        /* \"#utility.yul\":3744:3748   */\n      0x00\n        /* \"#utility.yul\":3782:3785   */\n      0xa0\n        /* \"#utility.yul\":3771:3780   */\n      dup3\n        /* \"#utility.yul\":3767:3786   */\n      add\n        /* \"#utility.yul\":3759:3786   */\n      swap1\n      pop\n        /* \"#utility.yul\":3832:3841   */\n      dup2\n        /* \"#utility.yul\":3826:3830   */\n      dup2\n        /* \"#utility.yul\":3822:3842   */\n      sub\n        /* \"#utility.yul\":3818:3819   */\n      0x00\n        /* \"#utility.yul\":3807:3816   */\n      dup4\n        /* \"#utility.yul\":3803:3820   */\n      add\n        /* \"#utility.yul\":3796:3843   */\n      mstore\n        /* \"#utility.yul\":3860:3938   */\n      tag_261\n        /* \"#utility.yul\":3933:3937   */\n      dup2\n        /* \"#utility.yul\":3924:3930   */\n      dup9\n        /* \"#utility.yul\":3860:3938   */\n      tag_176\n      jump\t// in\n    tag_261:\n        /* \"#utility.yul\":3852:3938   */\n      swap1\n      pop\n        /* \"#utility.yul\":3948:4020   */\n      tag_262\n        /* \"#utility.yul\":4016:4018   */\n      0x20\n        /* \"#utility.yul\":4005:4014   */\n      dup4\n        /* \"#utility.yul\":4001:4019   */\n      add\n        /* \"#utility.yul\":3992:3998   */\n      dup8\n        /* \"#utility.yul\":3948:4020   */\n      tag_170\n      jump\t// in\n    tag_262:\n        /* \"#utility.yul\":4030:4102   */\n      tag_263\n        /* \"#utility.yul\":4098:4100   */\n      0x40\n        /* \"#utility.yul\":4087:4096   */\n      dup4\n        /* \"#utility.yul\":4083:4101   */\n      add\n        /* \"#utility.yul\":4074:4080   */\n      dup7\n        /* \"#utility.yul\":4030:4102   */\n      tag_170\n      jump\t// in\n    tag_263:\n        /* \"#utility.yul\":4112:4184   */\n      tag_264\n        /* \"#utility.yul\":4180:4182   */\n      0x60\n        /* \"#utility.yul\":4169:4178   */\n      dup4\n        /* \"#utility.yul\":4165:4183   */\n      add\n        /* \"#utility.yul\":4156:4162   */\n      dup6\n        /* \"#utility.yul\":4112:4184   */\n      tag_170\n      jump\t// in\n    tag_264:\n        /* \"#utility.yul\":4194:4261   */\n      tag_265\n        /* \"#utility.yul\":4256:4259   */\n      0x80\n        /* \"#utility.yul\":4245:4254   */\n      dup4\n        /* \"#utility.yul\":4241:4260   */\n      add\n        /* \"#utility.yul\":4232:4238   */\n      dup5\n        /* \"#utility.yul\":4194:4261   */\n      tag_178\n      jump\t// in\n    tag_265:\n        /* \"#utility.yul\":3525:4268   */\n      swap7\n      swap6\n      pop\n      pop\n      pop\n      pop\n      pop\n      pop\n      jump\t// out\n        /* \"#utility.yul\":4274:4391   */\n    tag_179:\n        /* \"#utility.yul\":4383:4384   */\n      0x00\n        /* \"#utility.yul\":4380:4381   */\n      0x00\n        /* \"#utility.yul\":4373:4385   */\n      revert\n        /* \"#utility.yul\":4397:4514   */\n    tag_180:\n        /* \"#utility.yul\":4506:4507   */\n      0x00\n        /* \"#utility.yul\":4503:4504   */\n      0x00\n        /* \"#utility.yul\":4496:4508   */\n      revert\n        /* \"#utility.yul\":4520:4637   */\n    tag_181:\n        /* \"#utility.yul\":4629:4630   */\n      0x00\n        /* \"#utility.yul\":4626:4627   */\n      0x00\n        /* \"#utility.yul\":4619:4631   */\n      revert\n        /* \"#utility.yul\":4660:5228   */\n    tag_182:\n        /* \"#utility.yul\":4733:4741   */\n      0x00\n        /* \"#utility.yul\":4743:4749   */\n      0x00\n        /* \"#utility.yul\":4793:4796   */\n      dup4\n        /* \"#utility.yul\":4786:4790   */\n      0x1f\n        /* \"#utility.yul\":4778:4784   */\n      dup5\n        /* \"#utility.yul\":4774:4791   */\n      add\n        /* \"#utility.yul\":4770:4797   */\n      slt\n        /* \"#utility.yul\":4760:4882   */\n      tag_270\n      jumpi\n        /* \"#utility.yul\":4801:4880   */\n      tag_271\n      tag_179\n      jump\t// in\n    tag_271:\n        /* \"#utility.yul\":4760:4882   */\n    tag_270:\n        /* \"#utility.yul\":4914:4920   */\n      dup3\n        /* \"#utility.yul\":4901:4921   */\n      calldataload\n        /* \"#utility.yul\":4891:4921   */\n      swap1\n      pop\n        /* \"#utility.yul\":4944:4962   */\n      0xffffffffffffffff\n        /* \"#utility.yul\":4936:4942   */\n      dup2\n        /* \"#utility.yul\":4933:4963   */\n      gt\n        /* \"#utility.yul\":4930:5047   */\n      iszero\n      tag_272\n      jumpi\n        /* \"#utility.yul\":4966:5045   */\n      tag_273\n      tag_180\n      jump\t// in\n    tag_273:\n        /* \"#utility.yul\":4930:5047   */\n    tag_272:\n        /* \"#utility.yul\":5080:5084   */\n      0x20\n        /* \"#utility.yul\":5072:5078   */\n      dup4\n        /* \"#utility.yul\":5068:5085   */\n      add\n        /* \"#utility.yul\":5056:5085   */\n      swap2\n      pop\n        /* \"#utility.yul\":5134:5137   */\n      dup4\n        /* \"#utility.yul\":5126:5130   */\n      0x20\n        /* \"#utility.yul\":5118:5124   */\n      dup3\n        /* \"#utility.yul\":5114:5131   */\n      mul\n        /* \"#utility.yul\":5104:5112   */\n      dup4\n        /* \"#utility.yul\":5100:5132   */\n      add\n        /* \"#utility.yul\":5097:5138   */\n      gt\n        /* \"#utility.yul\":5094:5222   */\n      iszero\n      tag_274\n      jumpi\n        /* \"#utility.yul\":5141:5220   */\n      tag_275\n      tag_181\n      jump\t// in\n    tag_275:\n        /* \"#utility.yul\":5094:5222   */\n    tag_274:\n        /* \"#utility.yul\":4660:5228   */\n      swap3\n      pop\n      swap3\n      swap1\n      pop\n      jump\t// out\n        /* \"#utility.yul\":5249:5815   */\n    tag_183:\n        /* \"#utility.yul\":5320:5328   */\n      0x00\n        /* \"#utility.yul\":5330:5336   */\n      0x00\n        /* \"#utility.yul\":5380:5383   */\n      dup4\n        /* \"#utility.yul\":5373:5377   */\n      0x1f\n        /* \"#utility.yul\":5365:5371   */\n      dup5\n        /* \"#utility.yul\":5361:5378   */\n      add\n        /* \"#utility.yul\":5357:5384   */\n      slt\n        /* \"#utility.yul\":5347:5469   */\n      tag_277\n      jumpi\n        /* \"#utility.yul\":5388:5467   */\n      tag_278\n      tag_179\n      jump\t// in\n    tag_278:\n        /* \"#utility.yul\":5347:5469   */\n    tag_277:\n        /* \"#utility.yul\":5501:5507   */\n      dup3\n        /* \"#utility.yul\":5488:5508   */\n      calldataload\n        /* \"#utility.yul\":5478:5508   */\n      swap1\n      pop\n        /* \"#utility.yul\":5531:5549   */\n      0xffffffffffffffff\n        /* \"#utility.yul\":5523:5529   */\n      dup2\n        /* \"#utility.yul\":5520:5550   */\n      gt\n        /* \"#utility.yul\":5517:5634   */\n      iszero\n      tag_279\n      jumpi\n        /* \"#utility.yul\":5553:5632   */\n      tag_280\n      tag_180\n      jump\t// in\n    tag_280:\n        /* \"#utility.yul\":5517:5634   */\n    tag_279:\n        /* \"#utility.yul\":5667:5671   */\n      0x20\n        /* \"#utility.yul\":5659:5665   */\n      dup4\n        /* \"#utility.yul\":5655:5672   */\n      add\n        /* \"#utility.yul\":5643:5672   */\n      swap2\n      pop\n        /* \"#utility.yul\":5721:5724   */\n      dup4\n        /* \"#utility.yul\":5713:5717   */\n      0x20\n        /* \"#utility.yul\":5705:5711   */\n      dup3\n        /* \"#utility.yul\":5701:5718   */\n      mul\n        /* \"#utility.yul\":5691:5699   */\n      dup4\n        /* \"#utility.yul\":5687:5719   */\n      add\n        /* \"#utility.yul\":5684:5725   */\n      gt\n        /* \"#utility.yul\":5681:5809   */\n      iszero\n      tag_281\n      jumpi\n        /* \"#utility.yul\":5728:5807   */\n      tag_282\n      tag_181\n      jump\t// in\n    tag_282:\n        /* \"#utility.yul\":5681:5809   */\n    tag_281:\n        /* \"#utility.yul\":5249:5815   */\n      swap3\n      pop\n      swap3\n      swap1\n      pop\n      jump\t// out\n        /* \"#utility.yul\":5838:6406   */\n    tag_184:\n        /* \"#utility.yul\":5911:5919   */\n      0x00\n        /* \"#utility.yul\":5921:5927   */\n      0x00\n        /* \"#utility.yul\":5971:5974   */\n      dup4\n        /* \"#utility.yul\":5964:5968   */\n      0x1f\n        /* \"#utility.yul\":5956:5962   */\n      dup5\n        /* \"#utility.yul\":5952:5969   */\n      add\n        /* \"#utility.yul\":5948:5975   */\n      slt\n        /* \"#utility.yul\":5938:6060   */\n      tag_284\n      jumpi\n        /* \"#utility.yul\":5979:6058   */\n      tag_285\n      tag_179\n      jump\t// in\n    tag_285:\n        /* \"#utility.yul\":5938:6060   */\n    tag_284:\n        /* \"#utility.yul\":6092:6098   */\n      dup3\n        /* \"#utility.yul\":6079:6099   */\n      calldataload\n        /* \"#utility.yul\":6069:6099   */\n      swap1\n      pop\n        /* \"#utility.yul\":6122:6140   */\n      0xffffffffffffffff\n        /* \"#utility.yul\":6114:6120   */\n      dup2\n        /* \"#utility.yul\":6111:6141   */\n      gt\n        /* \"#utility.yul\":6108:6225   */\n      iszero\n      tag_286\n      jumpi\n        /* \"#utility.yul\":6144:6223   */\n      tag_287\n      tag_180\n      jump\t// in\n    tag_287:\n        /* \"#utility.yul\":6108:6225   */\n    tag_286:\n        /* \"#utility.yul\":6258:6262   */\n      0x20\n        /* \"#utility.yul\":6250:6256   */\n      dup4\n        /* \"#utility.yul\":6246:6263   */\n      add\n        /* \"#utility.yul\":6234:6263   */\n      swap2\n      pop\n        /* \"#utility.yul\":6312:6315   */\n      dup4\n        /* \"#utility.yul\":6304:6308   */\n      0x20\n        /* \"#utility.yul\":6296:6302   */\n      dup3\n        /* \"#utility.yul\":6292:6309   */\n      mul\n        /* \"#utility.yul\":6282:6290   */\n      dup4\n        /* \"#utility.yul\":6278:6310   */\n      add\n        /* \"#utility.yul\":6275:6316   */\n      gt\n        /* \"#utility.yul\":6272:6400   */\n      iszero\n      tag_288\n      jumpi\n        /* \"#utility.yul\":6319:6398   */\n      tag_289\n      tag_181\n      jump\t// in\n    tag_289:\n        /* \"#utility.yul\":6272:6400   */\n    tag_288:\n        /* \"#utility.yul\":5838:6406   */\n      swap3\n      pop\n      swap3\n      swap1\n      pop\n      jump\t// out\n        /* \"#utility.yul\":6412:8093   */\n    tag_41:\n        /* \"#utility.yul\":6604:6610   */\n      0x00\n        /* \"#utility.yul\":6612:6618   */\n      0x00\n        /* \"#utility.yul\":6620:6626   */\n      0x00\n        /* \"#utility.yul\":6628:6634   */\n      0x00\n        /* \"#utility.yul\":6636:6642   */\n      0x00\n        /* \"#utility.yul\":6644:6650   */\n      0x00\n        /* \"#utility.yul\":6652:6658   */\n      0x00\n        /* \"#utility.yul\":6660:6666   */\n      0x00\n        /* \"#utility.yul\":6709:6712   */\n      0x80\n        /* \"#utility.yul\":6697:6706   */\n      dup10\n        /* \"#utility.yul\":6688:6695   */\n      dup12\n        /* \"#utility.yul\":6684:6707   */\n      sub\n        /* \"#utility.yul\":6680:6713   */\n      slt\n        /* \"#utility.yul\":6677:6797   */\n      iszero\n      tag_291\n      jumpi\n        /* \"#utility.yul\":6716:6795   */\n      tag_292\n      tag_161\n      jump\t// in\n    tag_292:\n        /* \"#utility.yul\":6677:6797   */\n    tag_291:\n        /* \"#utility.yul\":6864:6865   */\n      0x00\n        /* \"#utility.yul\":6853:6862   */\n      dup10\n        /* \"#utility.yul\":6849:6866   */\n      add\n        /* \"#utility.yul\":6836:6867   */\n      calldataload\n        /* \"#utility.yul\":6894:6912   */\n      0xffffffffffffffff\n        /* \"#utility.yul\":6886:6892   */\n      dup2\n        /* \"#utility.yul\":6883:6913   */\n      gt\n        /* \"#utility.yul\":6880:6997   */\n      iszero\n      tag_293\n      jumpi\n        /* \"#utility.yul\":6916:6995   */\n      tag_294\n      tag_162\n      jump\t// in\n    tag_294:\n        /* \"#utility.yul\":6880:6997   */\n    tag_293:\n        /* \"#utility.yul\":7029:7109   */\n      tag_295\n        /* \"#utility.yul\":7101:7108   */\n      dup12\n        /* \"#utility.yul\":7092:7098   */\n      dup3\n        /* \"#utility.yul\":7081:7090   */\n      dup13\n        /* \"#utility.yul\":7077:7099   */\n      add\n        /* \"#utility.yul\":7029:7109   */\n      tag_182\n      jump\t// in\n    tag_295:\n        /* \"#utility.yul\":7011:7109   */\n      swap9\n      pop\n      swap9\n      pop\n        /* \"#utility.yul\":6807:7119   */\n      pop\n        /* \"#utility.yul\":7186:7188   */\n      0x20\n        /* \"#utility.yul\":7175:7184   */\n      dup10\n        /* \"#utility.yul\":7171:7189   */\n      add\n        /* \"#utility.yul\":7158:7190   */\n      calldataload\n        /* \"#utility.yul\":7217:7235   */\n      0xffffffffffffffff\n        /* \"#utility.yul\":7209:7215   */\n      dup2\n        /* \"#utility.yul\":7206:7236   */\n      gt\n        /* \"#utility.yul\":7203:7320   */\n      iszero\n      tag_296\n      jumpi\n        /* \"#utility.yul\":7239:7318   */\n      tag_297\n      tag_162\n      jump\t// in\n    tag_297:\n        /* \"#utility.yul\":7203:7320   */\n    tag_296:\n        /* \"#utility.yul\":7352:7430   */\n      tag_298\n        /* \"#utility.yul\":7422:7429   */\n      dup12\n        /* \"#utility.yul\":7413:7419   */\n      dup3\n        /* \"#utility.yul\":7402:7411   */\n      dup13\n        /* \"#utility.yul\":7398:7420   */\n      add\n        /* \"#utility.yul\":7352:7430   */\n      tag_183\n      jump\t// in\n    tag_298:\n        /* \"#utility.yul\":7334:7430   */\n      swap7\n      pop\n      swap7\n      pop\n        /* \"#utility.yul\":7129:7440   */\n      pop\n        /* \"#utility.yul\":7507:7509   */\n      0x40\n        /* \"#utility.yul\":7496:7505   */\n      dup10\n        /* \"#utility.yul\":7492:7510   */\n      add\n        /* \"#utility.yul\":7479:7511   */\n      calldataload\n        /* \"#utility.yul\":7538:7556   */\n      0xffffffffffffffff\n        /* \"#utility.yul\":7530:7536   */\n      dup2\n        /* \"#utility.yul\":7527:7557   */\n      gt\n        /* \"#utility.yul\":7524:7641   */\n      iszero\n      tag_299\n      jumpi\n        /* \"#utility.yul\":7560:7639   */\n      tag_300\n      tag_162\n      jump\t// in\n    tag_300:\n        /* \"#utility.yul\":7524:7641   */\n    tag_299:\n        /* \"#utility.yul\":7673:7753   */\n      tag_301\n        /* \"#utility.yul\":7745:7752   */\n      dup12\n        /* \"#utility.yul\":7736:7742   */\n      dup3\n        /* \"#utility.yul\":7725:7734   */\n      dup13\n        /* \"#utility.yul\":7721:7743   */\n      add\n        /* \"#utility.yul\":7673:7753   */\n      tag_184\n      jump\t// in\n    tag_301:\n        /* \"#utility.yul\":7655:7753   */\n      swap5\n      pop\n      swap5\n      pop\n        /* \"#utility.yul\":7450:7763   */\n      pop\n        /* \"#utility.yul\":7830:7832   */\n      0x60\n        /* \"#utility.yul\":7819:7828   */\n      dup10\n        /* \"#utility.yul\":7815:7833   */\n      add\n        /* \"#utility.yul\":7802:7834   */\n      calldataload\n        /* \"#utility.yul\":7861:7879   */\n      0xffffffffffffffff\n        /* \"#utility.yul\":7853:7859   */\n      dup2\n        /* \"#utility.yul\":7850:7880   */\n      gt\n        /* \"#utility.yul\":7847:7964   */\n      iszero\n      tag_302\n      jumpi\n        /* \"#utility.yul\":7883:7962   */\n      tag_303\n      tag_162\n      jump\t// in\n    tag_303:\n        /* \"#utility.yul\":7847:7964   */\n    tag_302:\n        /* \"#utility.yul\":7996:8076   */\n      tag_304\n        /* \"#utility.yul\":8068:8075   */\n      dup12\n        /* \"#utility.yul\":8059:8065   */\n      dup3\n        /* \"#utility.yul\":8048:8057   */\n      dup13\n        /* \"#utility.yul\":8044:8066   */\n      add\n        /* \"#utility.yul\":7996:8076   */\n      tag_184\n      jump\t// in\n    tag_304:\n        /* \"#utility.yul\":7978:8076   */\n      swap3\n      pop\n      swap3\n      pop\n        /* \"#utility.yul\":7773:8086   */\n      pop\n        /* \"#utility.yul\":6412:8093   */\n      swap3\n      swap6\n      swap9\n      pop\n      swap3\n      swap6\n      swap9\n      swap1\n      swap4\n      swap7\n      pop\n      jump\t// out\n        /* \"#utility.yul\":8099:8412   */\n    tag_46:\n        /* \"#utility.yul\":8212:8216   */\n      0x00\n        /* \"#utility.yul\":8250:8252   */\n      0x20\n        /* \"#utility.yul\":8239:8248   */\n      dup3\n        /* \"#utility.yul\":8235:8253   */\n      add\n        /* \"#utility.yul\":8227:8253   */\n      swap1\n      pop\n        /* \"#utility.yul\":8299:8308   */\n      dup2\n        /* \"#utility.yul\":8293:8297   */\n      dup2\n        /* \"#utility.yul\":8289:8309   */\n      sub\n        /* \"#utility.yul\":8285:8286   */\n      0x00\n        /* \"#utility.yul\":8274:8283   */\n      dup4\n        /* \"#utility.yul\":8270:8287   */\n      add\n        /* \"#utility.yul\":8263:8310   */\n      mstore\n        /* \"#utility.yul\":8327:8405   */\n      tag_306\n        /* \"#utility.yul\":8400:8404   */\n      dup2\n        /* \"#utility.yul\":8391:8397   */\n      dup5\n        /* \"#utility.yul\":8327:8405   */\n      tag_176\n      jump\t// in\n    tag_306:\n        /* \"#utility.yul\":8319:8405   */\n      swap1\n      pop\n        /* \"#utility.yul\":8099:8412   */\n      swap3\n      swap2\n      pop\n      pop\n      jump\t// out\n        /* \"#utility.yul\":8418:8504   */\n    tag_185:\n        /* \"#utility.yul\":8453:8460   */\n      0x00\n        /* \"#utility.yul\":8493:8497   */\n      0xff\n        /* \"#utility.yul\":8486:8491   */\n      dup3\n        /* \"#utility.yul\":8482:8498   */\n      and\n        /* \"#utility.yul\":8471:8498   */\n      swap1\n      pop\n        /* \"#utility.yul\":8418:8504   */\n      swap2\n      swap1\n      pop\n      jump\t// out\n        /* \"#utility.yul\":8510:8628   */\n    tag_186:\n        /* \"#utility.yul\":8581:8603   */\n      tag_309\n        /* \"#utility.yul\":8597:8602   */\n      dup2\n        /* \"#utility.yul\":8581:8603   */\n      tag_185\n      jump\t// in\n    tag_309:\n        /* \"#utility.yul\":8574:8579   */\n      dup2\n        /* \"#utility.yul\":8571:8604   */\n      eq\n        /* \"#utility.yul\":8561:8622   */\n      tag_310\n      jumpi\n        /* \"#utility.yul\":8618:8619   */\n      0x00\n        /* \"#utility.yul\":8615:8616   */\n      0x00\n        /* \"#utility.yul\":8608:8620   */\n      revert\n        /* \"#utility.yul\":8561:8622   */\n    tag_310:\n        /* \"#utility.yul\":8510:8628   */\n      pop\n      jump\t// out\n        /* \"#utility.yul\":8634:8769   */\n    tag_187:\n        /* \"#utility.yul\":8678:8683   */\n      0x00\n        /* \"#utility.yul\":8716:8722   */\n      dup2\n        /* \"#utility.yul\":8703:8723   */\n      calldataload\n        /* \"#utility.yul\":8694:8723   */\n      swap1\n      pop\n        /* \"#utility.yul\":8732:8763   */\n      tag_312\n        /* \"#utility.yul\":8757:8762   */\n      dup2\n        /* \"#utility.yul\":8732:8763   */\n      tag_186\n      jump\t// in\n    tag_312:\n        /* \"#utility.yul\":8634:8769   */\n      swap3\n      swap2\n      pop\n      pop\n      jump\t// out\n        /* \"#utility.yul\":8775:8897   */\n    tag_188:\n        /* \"#utility.yul\":8848:8872   */\n      tag_314\n        /* \"#utility.yul\":8866:8871   */\n      dup2\n        /* \"#utility.yul\":8848:8872   */\n      tag_167\n      jump\t// in\n    tag_314:\n        /* \"#utility.yul\":8841:8846   */\n      dup2\n        /* \"#utility.yul\":8838:8873   */\n      eq\n        /* \"#utility.yul\":8828:8891   */\n      tag_315\n      jumpi\n        /* \"#utility.yul\":8887:8888   */\n      0x00\n        /* \"#utility.yul\":8884:8885   */\n      0x00\n        /* \"#utility.yul\":8877:8889   */\n      revert\n        /* \"#utility.yul\":8828:8891   */\n    tag_315:\n        /* \"#utility.yul\":8775:8897   */\n      pop\n      jump\t// out\n        /* \"#utility.yul\":8903:9042   */\n    tag_189:\n        /* \"#utility.yul\":8949:8954   */\n      0x00\n        /* \"#utility.yul\":8987:8993   */\n      dup2\n        /* \"#utility.yul\":8974:8994   */\n      calldataload\n        /* \"#utility.yul\":8965:8994   */\n      swap1\n      pop\n        /* \"#utility.yul\":9003:9036   */\n      tag_317\n        /* \"#utility.yul\":9030:9035   */\n      dup2\n        /* \"#utility.yul\":9003:9036   */\n      tag_188\n      jump\t// in\n    tag_317:\n        /* \"#utility.yul\":8903:9042   */\n      swap3\n      swap2\n      pop\n      pop\n      jump\t// out\n        /* \"#utility.yul\":9048:9809   */\n    tag_49:\n        /* \"#utility.yul\":9132:9138   */\n      0x00\n        /* \"#utility.yul\":9140:9146   */\n      0x00\n        /* \"#utility.yul\":9148:9154   */\n      0x00\n        /* \"#utility.yul\":9156:9162   */\n      0x00\n        /* \"#utility.yul\":9205:9208   */\n      0x80\n        /* \"#utility.yul\":9193:9202   */\n      dup6\n        /* \"#utility.yul\":9184:9191   */\n      dup8\n        /* \"#utility.yul\":9180:9203   */\n      sub\n        /* \"#utility.yul\":9176:9209   */\n      slt\n        /* \"#utility.yul\":9173:9293   */\n      iszero\n      tag_319\n      jumpi\n        /* \"#utility.yul\":9212:9291   */\n      tag_320\n      tag_161\n      jump\t// in\n    tag_320:\n        /* \"#utility.yul\":9173:9293   */\n    tag_319:\n        /* \"#utility.yul\":9332:9333   */\n      0x00\n        /* \"#utility.yul\":9357:9410   */\n      tag_321\n        /* \"#utility.yul\":9402:9409   */\n      dup8\n        /* \"#utility.yul\":9393:9399   */\n      dup3\n        /* \"#utility.yul\":9382:9391   */\n      dup9\n        /* \"#utility.yul\":9378:9400   */\n      add\n        /* \"#utility.yul\":9357:9410   */\n      tag_166\n      jump\t// in\n    tag_321:\n        /* \"#utility.yul\":9347:9410   */\n      swap5\n      pop\n        /* \"#utility.yul\":9303:9420   */\n      pop\n        /* \"#utility.yul\":9459:9461   */\n      0x20\n        /* \"#utility.yul\":9485:9536   */\n      tag_322\n        /* \"#utility.yul\":9528:9535   */\n      dup8\n        /* \"#utility.yul\":9519:9525   */\n      dup3\n        /* \"#utility.yul\":9508:9517   */\n      dup9\n        /* \"#utility.yul\":9504:9526   */\n      add\n        /* \"#utility.yul\":9485:9536   */\n      tag_187\n      jump\t// in\n    tag_322:\n        /* \"#utility.yul\":9475:9536   */\n      swap4\n      pop\n        /* \"#utility.yul\":9430:9546   */\n      pop\n        /* \"#utility.yul\":9585:9587   */\n      0x40\n        /* \"#utility.yul\":9611:9664   */\n      tag_323\n        /* \"#utility.yul\":9656:9663   */\n      dup8\n        /* \"#utility.yul\":9647:9653   */\n      dup3\n        /* \"#utility.yul\":9636:9645   */\n      dup9\n        /* \"#utility.yul\":9632:9654   */\n      add\n        /* \"#utility.yul\":9611:9664   */\n      tag_189\n      jump\t// in\n    tag_323:\n        /* \"#utility.yul\":9601:9664   */\n      swap3\n      pop\n        /* \"#utility.yul\":9556:9674   */\n      pop\n        /* \"#utility.yul\":9713:9715   */\n      0x60\n        /* \"#utility.yul\":9739:9792   */\n      tag_324\n        /* \"#utility.yul\":9784:9791   */\n      dup8\n        /* \"#utility.yul\":9775:9781   */\n      dup3\n        /* \"#utility.yul\":9764:9773   */\n      dup9\n        /* \"#utility.yul\":9760:9782   */\n      add\n        /* \"#utility.yul\":9739:9792   */\n      tag_189\n      jump\t// in\n    tag_324:\n        /* \"#utility.yul\":9729:9792   */\n      swap2\n      pop\n        /* \"#utility.yul\":9684:9802   */\n      pop\n        /* \"#utility.yul\":9048:9809   */\n      swap3\n      swap6\n      swap2\n      swap5\n      pop\n      swap3\n      pop\n      jump\t// out\n        /* \"#utility.yul\":9815:10025   */\n    tag_52:\n        /* \"#utility.yul\":9902:9906   */\n      0x00\n        /* \"#utility.yul\":9940:9942   */\n      0x20\n        /* \"#utility.yul\":9929:9938   */\n      dup3\n        /* \"#utility.yul\":9925:9943   */\n      add\n        /* \"#utility.yul\":9917:9943   */\n      swap1\n      pop\n        /* \"#utility.yul\":9953:10018   */\n      tag_326\n        /* \"#utility.yul\":10015:10016   */\n      0x00\n        /* \"#utility.yul\":10004:10013   */\n      dup4\n        /* \"#utility.yul\":10000:10017   */\n      add\n        /* \"#utility.yul\":9991:9997   */\n      dup5\n        /* \"#utility.yul\":9953:10018   */\n      tag_178\n      jump\t// in\n    tag_326:\n        /* \"#utility.yul\":9815:10025   */\n      swap3\n      swap2\n      pop\n      pop\n      jump\t// out\n        /* \"#utility.yul\":10031:10125   */\n    tag_190:\n        /* \"#utility.yul\":10064:10072   */\n      0x00\n        /* \"#utility.yul\":10112:10117   */\n      dup2\n        /* \"#utility.yul\":10108:10110   */\n      0x60\n        /* \"#utility.yul\":10104:10118   */\n      shl\n        /* \"#utility.yul\":10083:10118   */\n      swap1\n      pop\n        /* \"#utility.yul\":10031:10125   */\n      swap2\n      swap1\n      pop\n      jump\t// out\n        /* \"#utility.yul\":10131:10225   */\n    tag_191:\n        /* \"#utility.yul\":10170:10177   */\n      0x00\n        /* \"#utility.yul\":10199:10219   */\n      tag_329\n        /* \"#utility.yul\":10213:10218   */\n      dup3\n        /* \"#utility.yul\":10199:10219   */\n      tag_190\n      jump\t// in\n    tag_329:\n        /* \"#utility.yul\":10188:10219   */\n      swap1\n      pop\n        /* \"#utility.yul\":10131:10225   */\n      swap2\n      swap1\n      pop\n      jump\t// out\n        /* \"#utility.yul\":10231:10331   */\n    tag_192:\n        /* \"#utility.yul\":10270:10277   */\n      0x00\n        /* \"#utility.yul\":10299:10325   */\n      tag_331\n        /* \"#utility.yul\":10319:10324   */\n      dup3\n        /* \"#utility.yul\":10299:10325   */\n      tag_191\n      jump\t// in\n    tag_331:\n        /* \"#utility.yul\":10288:10325   */\n      swap1\n      pop\n        /* \"#utility.yul\":10231:10331   */\n      swap2\n      swap1\n      pop\n      jump\t// out\n        /* \"#utility.yul\":10337:10494   */\n    tag_193:\n        /* \"#utility.yul\":10442:10487   */\n      tag_333\n        /* \"#utility.yul\":10462:10486   */\n      tag_334\n        /* \"#utility.yul\":10480:10485   */\n      dup3\n        /* \"#utility.yul\":10462:10486   */\n      tag_164\n      jump\t// in\n    tag_334:\n        /* \"#utility.yul\":10442:10487   */\n      tag_192\n      jump\t// in\n    tag_333:\n        /* \"#utility.yul\":10437:10440   */\n      dup3\n        /* \"#utility.yul\":10430:10488   */\n      mstore\n        /* \"#utility.yul\":10337:10494   */\n      pop\n      pop\n      jump\t// out\n        /* \"#utility.yul\":10500:10680   */\n    tag_194:\n        /* \"#utility.yul\":10548:10625   */\n      0x4e487b7100000000000000000000000000000000000000000000000000000000\n        /* \"#utility.yul\":10545:10546   */\n      0x00\n        /* \"#utility.yul\":10538:10626   */\n      mstore\n        /* \"#utility.yul\":10645:10649   */\n      0x22\n        /* \"#utility.yul\":10642:10643   */\n      0x04\n        /* \"#utility.yul\":10635:10650   */\n      mstore\n        /* \"#utility.yul\":10669:10673   */\n      0x24\n        /* \"#utility.yul\":10666:10667   */\n      0x00\n        /* \"#utility.yul\":10659:10674   */\n      revert\n        /* \"#utility.yul\":10686:11006   */\n    tag_73:\n        /* \"#utility.yul\":10730:10736   */\n      0x00\n        /* \"#utility.yul\":10767:10768   */\n      0x02\n        /* \"#utility.yul\":10761:10765   */\n      dup3\n        /* \"#utility.yul\":10757:10769   */\n      div\n        /* \"#utility.yul\":10747:10769   */\n      swap1\n      pop\n        /* \"#utility.yul\":10814:10815   */\n      0x01\n        /* \"#utility.yul\":10808:10812   */\n      dup3\n        /* \"#utility.yul\":10804:10816   */\n      and\n        /* \"#utility.yul\":10835:10853   */\n      dup1\n        /* \"#utility.yul\":10825:10906   */\n      tag_337\n      jumpi\n        /* \"#utility.yul\":10891:10895   */\n      0x7f\n        /* \"#utility.yul\":10883:10889   */\n      dup3\n        /* \"#utility.yul\":10879:10896   */\n      and\n        /* \"#utility.yul\":10869:10896   */\n      swap2\n      pop\n        /* \"#utility.yul\":10825:10906   */\n    tag_337:\n        /* \"#utility.yul\":10953:10955   */\n      0x20\n        /* \"#utility.yul\":10945:10951   */\n      dup3\n        /* \"#utility.yul\":10942:10956   */\n      lt\n        /* \"#utility.yul\":10922:10940   */\n      dup2\n        /* \"#utility.yul\":10919:10957   */\n      sub\n        /* \"#utility.yul\":10916:11000   */\n      tag_338\n      jumpi\n        /* \"#utility.yul\":10972:10990   */\n      tag_339\n      tag_194\n      jump\t// in\n    tag_339:\n        /* \"#utility.yul\":10916:11000   */\n    tag_338:\n        /* \"#utility.yul\":10737:11006   */\n      pop\n        /* \"#utility.yul\":10686:11006   */\n      swap2\n      swap1\n      pop\n      jump\t// out\n        /* \"#utility.yul\":11012:11160   */\n    tag_195:\n        /* \"#utility.yul\":11114:11125   */\n      0x00\n        /* \"#utility.yul\":11151:11154   */\n      dup2\n        /* \"#utility.yul\":11136:11154   */\n      swap1\n      pop\n        /* \"#utility.yul\":11012:11160   */\n      swap3\n      swap2\n      pop\n      pop\n      jump\t// out\n        /* \"#utility.yul\":11166:11307   */\n    tag_196:\n        /* \"#utility.yul\":11215:11219   */\n      0x00\n        /* \"#utility.yul\":11238:11241   */\n      dup2\n        /* \"#utility.yul\":11230:11241   */\n      swap1\n      pop\n        /* \"#utility.yul\":11261:11264   */\n      dup2\n        /* \"#utility.yul\":11258:11259   */\n      0x00\n        /* \"#utility.yul\":11251:11265   */\n      mstore\n        /* \"#utility.yul\":11295:11299   */\n      0x20\n        /* \"#utility.yul\":11292:11293   */\n      0x00\n        /* \"#utility.yul\":11282:11300   */\n      keccak256\n        /* \"#utility.yul\":11274:11300   */\n      swap1\n      pop\n        /* \"#utility.yul\":11166:11307   */\n      swap2\n      swap1\n      pop\n      jump\t// out\n        /* \"#utility.yul\":11337:12211   */\n    tag_197:\n        /* \"#utility.yul\":11440:11443   */\n      0x00\n        /* \"#utility.yul\":11477:11482   */\n      dup2\n        /* \"#utility.yul\":11471:11483   */\n      sload\n        /* \"#utility.yul\":11506:11542   */\n      tag_343\n        /* \"#utility.yul\":11532:11541   */\n      dup2\n        /* \"#utility.yul\":11506:11542   */\n      tag_73\n      jump\t// in\n    tag_343:\n        /* \"#utility.yul\":11558:11647   */\n      tag_344\n        /* \"#utility.yul\":11640:11646   */\n      dup2\n        /* \"#utility.yul\":11635:11638   */\n      dup7\n        /* \"#utility.yul\":11558:11647   */\n      tag_195\n      jump\t// in\n    tag_344:\n        /* \"#utility.yul\":11551:11647   */\n      swap5\n      pop\n        /* \"#utility.yul\":11678:11679   */\n      0x01\n        /* \"#utility.yul\":11667:11676   */\n      dup3\n        /* \"#utility.yul\":11663:11680   */\n      and\n        /* \"#utility.yul\":11694:11695   */\n      0x00\n        /* \"#utility.yul\":11689:11855   */\n      dup2\n      eq\n      tag_346\n      jumpi\n        /* \"#utility.yul\":11869:11870   */\n      0x01\n        /* \"#utility.yul\":11864:12205   */\n      dup2\n      eq\n      tag_347\n      jumpi\n        /* \"#utility.yul\":11656:12205   */\n      jump(tag_345)\n        /* \"#utility.yul\":11689:11855   */\n    tag_346:\n        /* \"#utility.yul\":11773:11777   */\n      0xff\n        /* \"#utility.yul\":11769:11778   */\n      not\n        /* \"#utility.yul\":11758:11767   */\n      dup4\n        /* \"#utility.yul\":11754:11779   */\n      and\n        /* \"#utility.yul\":11749:11752   */\n      dup7\n        /* \"#utility.yul\":11742:11780   */\n      mstore\n        /* \"#utility.yul\":11835:11841   */\n      dup2\n        /* \"#utility.yul\":11828:11842   */\n      iszero\n        /* \"#utility.yul\":11821:11843   */\n      iszero\n        /* \"#utility.yul\":11813:11819   */\n      dup3\n        /* \"#utility.yul\":11809:11844   */\n      mul\n        /* \"#utility.yul\":11804:11807   */\n      dup7\n        /* \"#utility.yul\":11800:11845   */\n      add\n        /* \"#utility.yul\":11793:11845   */\n      swap4\n      pop\n        /* \"#utility.yul\":11689:11855   */\n      jump(tag_345)\n        /* \"#utility.yul\":11864:12205   */\n    tag_347:\n        /* \"#utility.yul\":11931:11969   */\n      tag_348\n        /* \"#utility.yul\":11963:11968   */\n      dup6\n        /* \"#utility.yul\":11931:11969   */\n      tag_196\n      jump\t// in\n    tag_348:\n        /* \"#utility.yul\":11991:11992   */\n      0x00\n        /* \"#utility.yul\":12005:12159   */\n    tag_349:\n        /* \"#utility.yul\":12019:12025   */\n      dup4\n        /* \"#utility.yul\":12016:12017   */\n      dup2\n        /* \"#utility.yul\":12013:12026   */\n      lt\n        /* \"#utility.yul\":12005:12159   */\n      iszero\n      tag_351\n      jumpi\n        /* \"#utility.yul\":12093:12100   */\n      dup2\n        /* \"#utility.yul\":12087:12101   */\n      sload\n        /* \"#utility.yul\":12083:12084   */\n      dup2\n        /* \"#utility.yul\":12078:12081   */\n      dup10\n        /* \"#utility.yul\":12074:12085   */\n      add\n        /* \"#utility.yul\":12067:12102   */\n      mstore\n        /* \"#utility.yul\":12143:12144   */\n      0x01\n        /* \"#utility.yul\":12134:12141   */\n      dup3\n        /* \"#utility.yul\":12130:12145   */\n      add\n        /* \"#utility.yul\":12119:12145   */\n      swap2\n      pop\n        /* \"#utility.yul\":12041:12045   */\n      0x20\n        /* \"#utility.yul\":12038:12039   */\n      dup2\n        /* \"#utility.yul\":12034:12046   */\n      add\n        /* \"#utility.yul\":12029:12046   */\n      swap1\n      pop\n        /* \"#utility.yul\":12005:12159   */\n      jump(tag_349)\n    tag_351:\n        /* \"#utility.yul\":12188:12194   */\n      dup4\n        /* \"#utility.yul\":12183:12186   */\n      dup9\n        /* \"#utility.yul\":12179:12195   */\n      add\n        /* \"#utility.yul\":12172:12195   */\n      swap6\n      pop\n        /* \"#utility.yul\":11871:12205   */\n      pop\n      pop\n        /* \"#utility.yul\":11656:12205   */\n    tag_345:\n      pop\n        /* \"#utility.yul\":11444:12211   */\n      pop\n      pop\n        /* \"#utility.yul\":11337:12211   */\n      swap3\n      swap2\n      pop\n      pop\n      jump\t// out\n        /* \"#utility.yul\":12217:12768   */\n    tag_70:\n        /* \"#utility.yul\":12402:12405   */\n      0x00\n        /* \"#utility.yul\":12417:12492   */\n      tag_353\n        /* \"#utility.yul\":12488:12491   */\n      dup3\n        /* \"#utility.yul\":12479:12485   */\n      dup7\n        /* \"#utility.yul\":12417:12492   */\n      tag_193\n      jump\t// in\n    tag_353:\n        /* \"#utility.yul\":12517:12519   */\n      0x14\n        /* \"#utility.yul\":12512:12515   */\n      dup3\n        /* \"#utility.yul\":12508:12520   */\n      add\n        /* \"#utility.yul\":12501:12520   */\n      swap2\n      pop\n        /* \"#utility.yul\":12530:12605   */\n      tag_354\n        /* \"#utility.yul\":12601:12604   */\n      dup3\n        /* \"#utility.yul\":12592:12598   */\n      dup6\n        /* \"#utility.yul\":12530:12605   */\n      tag_193\n      jump\t// in\n    tag_354:\n        /* \"#utility.yul\":12630:12632   */\n      0x14\n        /* \"#utility.yul\":12625:12628   */\n      dup3\n        /* \"#utility.yul\":12621:12633   */\n      add\n        /* \"#utility.yul\":12614:12633   */\n      swap2\n      pop\n        /* \"#utility.yul\":12650:12742   */\n      tag_355\n        /* \"#utility.yul\":12738:12741   */\n      dup3\n        /* \"#utility.yul\":12729:12735   */\n      dup5\n        /* \"#utility.yul\":12650:12742   */\n      tag_197\n      jump\t// in\n    tag_355:\n        /* \"#utility.yul\":12643:12742   */\n      swap2\n      pop\n        /* \"#utility.yul\":12759:12762   */\n      dup2\n        /* \"#utility.yul\":12752:12762   */\n      swap1\n      pop\n        /* \"#utility.yul\":12217:12768   */\n      swap5\n      swap4\n      pop\n      pop\n      pop\n      pop\n      jump\t// out\n        /* \"#utility.yul\":12774:12940   */\n    tag_198:\n        /* \"#utility.yul\":12914:12932   */\n      0x4576656e74206e6f742061637469766500000000000000000000000000000000\n        /* \"#utility.yul\":12910:12911   */\n      0x00\n        /* \"#utility.yul\":12902:12908   */\n      dup3\n        /* \"#utility.yul\":12898:12912   */\n      add\n        /* \"#utility.yul\":12891:12933   */\n      mstore\n        /* \"#utility.yul\":12774:12940   */\n      pop\n      jump\t// out\n        /* \"#utility.yul\":12946:13312   */\n    tag_199:\n        /* \"#utility.yul\":13088:13091   */\n      0x00\n        /* \"#utility.yul\":13109:13176   */\n      tag_358\n        /* \"#utility.yul\":13173:13175   */\n      0x10\n        /* \"#utility.yul\":13168:13171   */\n      dup4\n        /* \"#utility.yul\":13109:13176   */\n      tag_173\n      jump\t// in\n    tag_358:\n        /* \"#utility.yul\":13102:13176   */\n      swap2\n      pop\n        /* \"#utility.yul\":13185:13278   */\n      tag_359\n        /* \"#utility.yul\":13274:13277   */\n      dup3\n        /* \"#utility.yul\":13185:13278   */\n      tag_198\n      jump\t// in\n    tag_359:\n        /* \"#utility.yul\":13303:13305   */\n      0x20\n        /* \"#utility.yul\":13298:13301   */\n      dup3\n        /* \"#utility.yul\":13294:13306   */\n      add\n        /* \"#utility.yul\":13287:13306   */\n      swap1\n      pop\n        /* \"#utility.yul\":12946:13312   */\n      swap2\n      swap1\n      pop\n      jump\t// out\n        /* \"#utility.yul\":13318:13737   */\n    tag_81:\n        /* \"#utility.yul\":13484:13488   */\n      0x00\n        /* \"#utility.yul\":13522:13524   */\n      0x20\n        /* \"#utility.yul\":13511:13520   */\n      dup3\n        /* \"#utility.yul\":13507:13525   */\n      add\n        /* \"#utility.yul\":13499:13525   */\n      swap1\n      pop\n        /* \"#utility.yul\":13571:13580   */\n      dup2\n        /* \"#utility.yul\":13565:13569   */\n      dup2\n        /* \"#utility.yul\":13561:13581   */\n      sub\n        /* \"#utility.yul\":13557:13558   */\n      0x00\n        /* \"#utility.yul\":13546:13555   */\n      dup4\n        /* \"#utility.yul\":13542:13559   */\n      add\n        /* \"#utility.yul\":13535:13582   */\n      mstore\n        /* \"#utility.yul\":13599:13730   */\n      tag_361\n        /* \"#utility.yul\":13725:13729   */\n      dup2\n        /* \"#utility.yul\":13599:13730   */\n      tag_199\n      jump\t// in\n    tag_361:\n        /* \"#utility.yul\":13591:13730   */\n      swap1\n      pop\n        /* \"#utility.yul\":13318:13737   */\n      swap2\n      swap1\n      pop\n      jump\t// out\n        /* \"#utility.yul\":13743:13914   */\n    tag_200:\n        /* \"#utility.yul\":13883:13906   */\n      0x4172726179206c656e677468206d69736d617463680000000000000000000000\n        /* \"#utility.yul\":13879:13880   */\n      0x00\n        /* \"#utility.yul\":13871:13877   */\n      dup3\n        /* \"#utility.yul\":13867:13881   */\n      add\n        /* \"#utility.yul\":13860:13907   */\n      mstore\n        /* \"#utility.yul\":13743:13914   */\n      pop\n      jump\t// out\n        /* \"#utility.yul\":13920:14286   */\n    tag_201:\n        /* \"#utility.yul\":14062:14065   */\n      0x00\n        /* \"#utility.yul\":14083:14150   */\n      tag_364\n        /* \"#utility.yul\":14147:14149   */\n      0x15\n        /* \"#utility.yul\":14142:14145   */\n      dup4\n        /* \"#utility.yul\":14083:14150   */\n      tag_173\n      jump\t// in\n    tag_364:\n        /* \"#utility.yul\":14076:14150   */\n      swap2\n      pop\n        /* \"#utility.yul\":14159:14252   */\n      tag_365\n        /* \"#utility.yul\":14248:14251   */\n      dup3\n        /* \"#utility.yul\":14159:14252   */\n      tag_200\n      jump\t// in\n    tag_365:\n        /* \"#utility.yul\":14277:14279   */\n      0x20\n        /* \"#utility.yul\":14272:14275   */\n      dup3\n        /* \"#utility.yul\":14268:14280   */\n      add\n        /* \"#utility.yul\":14261:14280   */\n      swap1\n      pop\n        /* \"#utility.yul\":13920:14286   */\n      swap2\n      swap1\n      pop\n      jump\t// out\n        /* \"#utility.yul\":14292:14711   */\n    tag_85:\n        /* \"#utility.yul\":14458:14462   */\n      0x00\n        /* \"#utility.yul\":14496:14498   */\n      0x20\n        /* \"#utility.yul\":14485:14494   */\n      dup3\n        /* \"#utility.yul\":14481:14499   */\n      add\n        /* \"#utility.yul\":14473:14499   */\n      swap1\n      pop\n        /* \"#utility.yul\":14545:14554   */\n      dup2\n        /* \"#utility.yul\":14539:14543   */\n      dup2\n        /* \"#utility.yul\":14535:14555   */\n      sub\n        /* \"#utility.yul\":14531:14532   */\n      0x00\n        /* \"#utility.yul\":14520:14529   */\n      dup4\n        /* \"#utility.yul\":14516:14533   */\n      add\n        /* \"#utility.yul\":14509:14556   */\n      mstore\n        /* \"#utility.yul\":14573:14704   */\n      tag_367\n        /* \"#utility.yul\":14699:14703   */\n      dup2\n        /* \"#utility.yul\":14573:14704   */\n      tag_201\n      jump\t// in\n    tag_367:\n        /* \"#utility.yul\":14565:14704   */\n      swap1\n      pop\n        /* \"#utility.yul\":14292:14711   */\n      swap2\n      swap1\n      pop\n      jump\t// out\n        /* \"#utility.yul\":14717:14897   */\n    tag_202:\n        /* \"#utility.yul\":14765:14842   */\n      0x4e487b7100000000000000000000000000000000000000000000000000000000\n        /* \"#utility.yul\":14762:14763   */\n      0x00\n        /* \"#utility.yul\":14755:14843   */\n      mstore\n        /* \"#utility.yul\":14862:14866   */\n      0x11\n        /* \"#utility.yul\":14859:14860   */\n      0x04\n        /* \"#utility.yul\":14852:14867   */\n      mstore\n        /* \"#utility.yul\":14886:14890   */\n      0x24\n        /* \"#utility.yul\":14883:14884   */\n      0x00\n        /* \"#utility.yul\":14876:14891   */\n      revert\n        /* \"#utility.yul\":14903:15094   */\n    tag_91:\n        /* \"#utility.yul\":14943:14946   */\n      0x00\n        /* \"#utility.yul\":14962:14982   */\n      tag_370\n        /* \"#utility.yul\":14980:14981   */\n      dup3\n        /* \"#utility.yul\":14962:14982   */\n      tag_169\n      jump\t// in\n    tag_370:\n        /* \"#utility.yul\":14957:14982   */\n      swap2\n      pop\n        /* \"#utility.yul\":14996:15016   */\n      tag_371\n        /* \"#utility.yul\":15014:15015   */\n      dup4\n        /* \"#utility.yul\":14996:15016   */\n      tag_169\n      jump\t// in\n    tag_371:\n        /* \"#utility.yul\":14991:15016   */\n      swap3\n      pop\n        /* \"#utility.yul\":15039:15040   */\n      dup3\n        /* \"#utility.yul\":15036:15037   */\n      dup3\n        /* \"#utility.yul\":15032:15041   */\n      add\n        /* \"#utility.yul\":15025:15041   */\n      swap1\n      pop\n        /* \"#utility.yul\":15060:15063   */\n      dup1\n        /* \"#utility.yul\":15057:15058   */\n      dup3\n        /* \"#utility.yul\":15054:15064   */\n      gt\n        /* \"#utility.yul\":15051:15087   */\n      iszero\n      tag_372\n      jumpi\n        /* \"#utility.yul\":15067:15085   */\n      tag_373\n      tag_202\n      jump\t// in\n    tag_373:\n        /* \"#utility.yul\":15051:15087   */\n    tag_372:\n        /* \"#utility.yul\":14903:15094   */\n      swap3\n      swap2\n      pop\n      pop\n      jump\t// out\n        /* \"#utility.yul\":15100:15271   */\n    tag_203:\n        /* \"#utility.yul\":15240:15263   */\n      0x576f756c64206578636565642063617061636974790000000000000000000000\n        /* \"#utility.yul\":15236:15237   */\n      0x00\n        /* \"#utility.yul\":15228:15234   */\n      dup3\n        /* \"#utility.yul\":15224:15238   */\n      add\n        /* \"#utility.yul\":15217:15264   */\n      mstore\n        /* \"#utility.yul\":15100:15271   */\n      pop\n      jump\t// out\n        /* \"#utility.yul\":15277:15643   */\n    tag_204:\n        /* \"#utility.yul\":15419:15422   */\n      0x00\n        /* \"#utility.yul\":15440:15507   */\n      tag_376\n        /* \"#utility.yul\":15504:15506   */\n      0x15\n        /* \"#utility.yul\":15499:15502   */\n      dup4\n        /* \"#utility.yul\":15440:15507   */\n      tag_173\n      jump\t// in\n    tag_376:\n        /* \"#utility.yul\":15433:15507   */\n      swap2\n      pop\n        /* \"#utility.yul\":15516:15609   */\n      tag_377\n        /* \"#utility.yul\":15605:15608   */\n      dup3\n        /* \"#utility.yul\":15516:15609   */\n      tag_203\n      jump\t// in\n    tag_377:\n        /* \"#utility.yul\":15634:15636   */\n      0x20\n        /* \"#utility.yul\":15629:15632   */\n      dup3\n        /* \"#utility.yul\":15625:15637   */\n      add\n        /* \"#utility.yul\":15618:15637   */\n      swap1\n      pop\n        /* \"#utility.yul\":15277:15643   */\n      swap2\n      swap1\n      pop\n      jump\t// out\n        /* \"#utility.yul\":15649:16068   */\n    tag_94:\n        /* \"#utility.yul\":15815:15819   */\n      0x00\n        /* \"#utility.yul\":15853:15855   */\n      0x20\n        /* \"#utility.yul\":15842:15851   */\n      dup3\n        /* \"#utility.yul\":15838:15856   */\n      add\n        /* \"#utility.yul\":15830:15856   */\n      swap1\n      pop\n        /* \"#utility.yul\":15902:15911   */\n      dup2\n        /* \"#utility.yul\":15896:15900   */\n      dup2\n        /* \"#utility.yul\":15892:15912   */\n      sub\n        /* \"#utility.yul\":15888:15889   */\n      0x00\n        /* \"#utility.yul\":15877:15886   */\n      dup4\n        /* \"#utility.yul\":15873:15890   */\n      add\n        /* \"#utility.yul\":15866:15913   */\n      mstore\n        /* \"#utility.yul\":15930:16061   */\n      tag_379\n        /* \"#utility.yul\":16056:16060   */\n      dup2\n        /* \"#utility.yul\":15930:16061   */\n      tag_204\n      jump\t// in\n    tag_379:\n        /* \"#utility.yul\":15922:16061   */\n      swap1\n      pop\n        /* \"#utility.yul\":15649:16068   */\n      swap2\n      swap1\n      pop\n      jump\t// out\n        /* \"#utility.yul\":16074:16254   */\n    tag_100:\n        /* \"#utility.yul\":16122:16199   */\n      0x4e487b7100000000000000000000000000000000000000000000000000000000\n        /* \"#utility.yul\":16119:16120   */\n      0x00\n        /* \"#utility.yul\":16112:16200   */\n      mstore\n        /* \"#utility.yul\":16219:16223   */\n      0x32\n        /* \"#utility.yul\":16216:16217   */\n      0x04\n        /* \"#utility.yul\":16209:16224   */\n      mstore\n        /* \"#utility.yul\":16243:16247   */\n      0x24\n        /* \"#utility.yul\":16240:16241   */\n      0x00\n        /* \"#utility.yul\":16233:16248   */\n      revert\n        /* \"#utility.yul\":16260:16474   */\n    tag_205:\n        /* \"#utility.yul\":16400:16466   */\n      0x19457468657265756d205369676e6564204d6573736167653a0a333200000000\n        /* \"#utility.yul\":16396:16397   */\n      0x00\n        /* \"#utility.yul\":16388:16394   */\n      dup3\n        /* \"#utility.yul\":16384:16398   */\n      add\n        /* \"#utility.yul\":16377:16467   */\n      mstore\n        /* \"#utility.yul\":16260:16474   */\n      pop\n      jump\t// out\n        /* \"#utility.yul\":16480:16882   */\n    tag_206:\n        /* \"#utility.yul\":16640:16643   */\n      0x00\n        /* \"#utility.yul\":16661:16746   */\n      tag_383\n        /* \"#utility.yul\":16743:16745   */\n      0x1c\n        /* \"#utility.yul\":16738:16741   */\n      dup4\n        /* \"#utility.yul\":16661:16746   */\n      tag_195\n      jump\t// in\n    tag_383:\n        /* \"#utility.yul\":16654:16746   */\n      swap2\n      pop\n        /* \"#utility.yul\":16755:16848   */\n      tag_384\n        /* \"#utility.yul\":16844:16847   */\n      dup3\n        /* \"#utility.yul\":16755:16848   */\n      tag_205\n      jump\t// in\n    tag_384:\n        /* \"#utility.yul\":16873:16875   */\n      0x1c\n        /* \"#utility.yul\":16868:16871   */\n      dup3\n        /* \"#utility.yul\":16864:16876   */\n      add\n        /* \"#utility.yul\":16857:16876   */\n      swap1\n      pop\n        /* \"#utility.yul\":16480:16882   */\n      swap2\n      swap1\n      pop\n      jump\t// out\n        /* \"#utility.yul\":16888:16967   */\n    tag_207:\n        /* \"#utility.yul\":16927:16934   */\n      0x00\n        /* \"#utility.yul\":16956:16961   */\n      dup2\n        /* \"#utility.yul\":16945:16961   */\n      swap1\n      pop\n        /* \"#utility.yul\":16888:16967   */\n      swap2\n      swap1\n      pop\n      jump\t// out\n        /* \"#utility.yul\":16973:17130   */\n    tag_208:\n        /* \"#utility.yul\":17078:17123   */\n      tag_387\n        /* \"#utility.yul\":17098:17122   */\n      tag_388\n        /* \"#utility.yul\":17116:17121   */\n      dup3\n        /* \"#utility.yul\":17098:17122   */\n      tag_167\n      jump\t// in\n    tag_388:\n        /* \"#utility.yul\":17078:17123   */\n      tag_207\n      jump\t// in\n    tag_387:\n        /* \"#utility.yul\":17073:17076   */\n      dup3\n        /* \"#utility.yul\":17066:17124   */\n      mstore\n        /* \"#utility.yul\":16973:17130   */\n      pop\n      pop\n      jump\t// out\n        /* \"#utility.yul\":17136:17658   */\n    tag_105:\n        /* \"#utility.yul\":17349:17352   */\n      0x00\n        /* \"#utility.yul\":17371:17519   */\n      tag_390\n        /* \"#utility.yul\":17515:17518   */\n      dup3\n        /* \"#utility.yul\":17371:17519   */\n      tag_206\n      jump\t// in\n    tag_390:\n        /* \"#utility.yul\":17364:17519   */\n      swap2\n      pop\n        /* \"#utility.yul\":17529:17604   */\n      tag_391\n        /* \"#utility.yul\":17600:17603   */\n      dup3\n        /* \"#utility.yul\":17591:17597   */\n      dup5\n        /* \"#utility.yul\":17529:17604   */\n      tag_208\n      jump\t// in\n    tag_391:\n        /* \"#utility.yul\":17629:17631   */\n      0x20\n        /* \"#utility.yul\":17624:17627   */\n      dup3\n        /* \"#utility.yul\":17620:17632   */\n      add\n        /* \"#utility.yul\":17613:17632   */\n      swap2\n      pop\n        /* \"#utility.yul\":17649:17652   */\n      dup2\n        /* \"#utility.yul\":17642:17652   */\n      swap1\n      pop\n        /* \"#utility.yul\":17136:17658   */\n      swap3\n      swap2\n      pop\n      pop\n      jump\t// out\n        /* \"#utility.yul\":17664:17989   */\n    tag_109:\n        /* \"#utility.yul\":17721:17727   */\n      0x00\n        /* \"#utility.yul\":17770:17772   */\n      0x20\n        /* \"#utility.yul\":17758:17767   */\n      dup3\n        /* \"#utility.yul\":17749:17756   */\n      dup5\n        /* \"#utility.yul\":17745:17768   */\n      sub\n        /* \"#utility.yul\":17741:17773   */\n      slt\n        /* \"#utility.yul\":17738:17857   */\n      iszero\n      tag_393\n      jumpi\n        /* \"#utility.yul\":17776:17855   */\n      tag_394\n      tag_161\n      jump\t// in\n    tag_394:\n        /* \"#utility.yul\":17738:17857   */\n    tag_393:\n        /* \"#utility.yul\":17896:17897   */\n      0x00\n        /* \"#utility.yul\":17921:17972   */\n      tag_395\n        /* \"#utility.yul\":17964:17971   */\n      dup5\n        /* \"#utility.yul\":17955:17961   */\n      dup3\n        /* \"#utility.yul\":17944:17953   */\n      dup6\n        /* \"#utility.yul\":17940:17962   */\n      add\n        /* \"#utility.yul\":17921:17972   */\n      tag_187\n      jump\t// in\n    tag_395:\n        /* \"#utility.yul\":17911:17972   */\n      swap2\n      pop\n        /* \"#utility.yul\":17867:17982   */\n      pop\n        /* \"#utility.yul\":17664:17989   */\n      swap3\n      swap2\n      pop\n      pop\n      jump\t// out\n        /* \"#utility.yul\":17995:18107   */\n    tag_209:\n        /* \"#utility.yul\":18078:18100   */\n      tag_397\n        /* \"#utility.yul\":18094:18099   */\n      dup2\n        /* \"#utility.yul\":18078:18100   */\n      tag_185\n      jump\t// in\n    tag_397:\n        /* \"#utility.yul\":18073:18076   */\n      dup3\n        /* \"#utility.yul\":18066:18101   */\n      mstore\n        /* \"#utility.yul\":17995:18107   */\n      pop\n      pop\n      jump\t// out\n        /* \"#utility.yul\":18113:18658   */\n    tag_115:\n        /* \"#utility.yul\":18286:18290   */\n      0x00\n        /* \"#utility.yul\":18324:18327   */\n      0x80\n        /* \"#utility.yul\":18313:18322   */\n      dup3\n        /* \"#utility.yul\":18309:18328   */\n      add\n        /* \"#utility.yul\":18301:18328   */\n      swap1\n      pop\n        /* \"#utility.yul\":18338:18409   */\n      tag_399\n        /* \"#utility.yul\":18406:18407   */\n      0x00\n        /* \"#utility.yul\":18395:18404   */\n      dup4\n        /* \"#utility.yul\":18391:18408   */\n      add\n        /* \"#utility.yul\":18382:18388   */\n      dup8\n        /* \"#utility.yul\":18338:18409   */\n      tag_168\n      jump\t// in\n    tag_399:\n        /* \"#utility.yul\":18419:18487   */\n      tag_400\n        /* \"#utility.yul\":18483:18485   */\n      0x20\n        /* \"#utility.yul\":18472:18481   */\n      dup4\n        /* \"#utility.yul\":18468:18486   */\n      add\n        /* \"#utility.yul\":18459:18465   */\n      dup7\n        /* \"#utility.yul\":18419:18487   */\n      tag_209\n      jump\t// in\n    tag_400:\n        /* \"#utility.yul\":18497:18569   */\n      tag_401\n        /* \"#utility.yul\":18565:18567   */\n      0x40\n        /* \"#utility.yul\":18554:18563   */\n      dup4\n        /* \"#utility.yul\":18550:18568   */\n      add\n        /* \"#utility.yul\":18541:18547   */\n      dup6\n        /* \"#utility.yul\":18497:18569   */\n      tag_168\n      jump\t// in\n    tag_401:\n        /* \"#utility.yul\":18579:18651   */\n      tag_402\n        /* \"#utility.yul\":18647:18649   */\n      0x60\n        /* \"#utility.yul\":18636:18645   */\n      dup4\n        /* \"#utility.yul\":18632:18650   */\n      add\n        /* \"#utility.yul\":18623:18629   */\n      dup5\n        /* \"#utility.yul\":18579:18651   */\n      tag_168\n      jump\t// in\n    tag_402:\n        /* \"#utility.yul\":18113:18658   */\n      swap6\n      swap5\n      pop\n      pop\n      pop\n      pop\n      pop\n      jump\t// out\n        /* \"#utility.yul\":18664:18897   */\n    tag_120:\n        /* \"#utility.yul\":18703:18706   */\n      0x00\n        /* \"#utility.yul\":18726:18750   */\n      tag_404\n        /* \"#utility.yul\":18744:18749   */\n      dup3\n        /* \"#utility.yul\":18726:18750   */\n      tag_169\n      jump\t// in\n    tag_404:\n        /* \"#utility.yul\":18717:18750   */\n      swap2\n      pop\n        /* \"#utility.yul\":18772:18838   */\n      0xffffffffffffffffffffffffffffffffffffffffffffffffffffffffffffffff\n        /* \"#utility.yul\":18765:18770   */\n      dup3\n        /* \"#utility.yul\":18762:18839   */\n      sub\n        /* \"#utility.yul\":18759:18862   */\n      tag_405\n      jumpi\n        /* \"#utility.yul\":18842:18860   */\n      tag_406\n      tag_202\n      jump\t// in\n    tag_406:\n        /* \"#utility.yul\":18759:18862   */\n    tag_405:\n        /* \"#utility.yul\":18889:18890   */\n      0x01\n        /* \"#utility.yul\":18882:18887   */\n      dup3\n        /* \"#utility.yul\":18878:18891   */\n      add\n        /* \"#utility.yul\":18871:18891   */\n      swap1\n      pop\n        /* \"#utility.yul\":18664:18897   */\n      swap2\n      swap1\n      pop\n      jump\t// out\n        /* \"#utility.yul\":18903:19235   */\n    tag_122:\n        /* \"#utility.yul\":19024:19028   */\n      0x00\n        /* \"#utility.yul\":19062:19064   */\n      0x40\n        /* \"#utility.yul\":19051:19060   */\n      dup3\n        /* \"#utility.yul\":19047:19065   */\n      add\n        /* \"#utility.yul\":19039:19065   */\n      swap1\n      pop\n        /* \"#utility.yul\":19075:19146   */\n      tag_408\n        /* \"#utility.yul\":19143:19144   */\n      0x00\n        /* \"#utility.yul\":19132:19141   */\n      dup4\n        /* \"#utility.yul\":19128:19145   */\n      add\n        /* \"#utility.yul\":19119:19125   */\n      dup6\n        /* \"#utility.yul\":19075:19146   */\n      tag_171\n      jump\t// in\n    tag_408:\n        /* \"#utility.yul\":19156:19228   */\n      tag_409\n        /* \"#utility.yul\":19224:19226   */\n      0x20\n        /* \"#utility.yul\":19213:19222   */\n      dup4\n        /* \"#utility.yul\":19209:19227   */\n      add\n        /* \"#utility.yul\":19200:19206   */\n      dup5\n        /* \"#utility.yul\":19156:19228   */\n      tag_170\n      jump\t// in\n    tag_409:\n        /* \"#utility.yul\":18903:19235   */\n      swap4\n      swap3\n      pop\n      pop\n      pop\n      jump\t// out\n        /* \"#utility.yul\":19241:19401   */\n    tag_210:\n        /* \"#utility.yul\":19381:19393   */\n      0x4576656e742066756c6c00000000000000000000000000000000000000000000\n        /* \"#utility.yul\":19377:19378   */\n      0x00\n        /* \"#utility.yul\":19369:19375   */\n      dup3\n        /* \"#utility.yul\":19365:19379   */\n      add\n        /* \"#utility.yul\":19358:19394   */\n      mstore\n        /* \"#utility.yul\":19241:19401   */\n      pop\n      jump\t// out\n        /* \"#utility.yul\":19407:19773   */\n    tag_211:\n        /* \"#utility.yul\":19549:19552   */\n      0x00\n        /* \"#utility.yul\":19570:19637   */\n      tag_412\n        /* \"#utility.yul\":19634:19636   */\n      0x0a\n        /* \"#utility.yul\":19629:19632   */\n      dup4\n        /* \"#utility.yul\":19570:19637   */\n      tag_173\n      jump\t// in\n    tag_412:\n        /* \"#utility.yul\":19563:19637   */\n      swap2\n      pop\n        /* \"#utility.yul\":19646:19739   */\n      tag_413\n        /* \"#utility.yul\":19735:19738   */\n      dup3\n        /* \"#utility.yul\":19646:19739   */\n      tag_210\n      jump\t// in\n    tag_413:\n        /* \"#utility.yul\":19764:19766   */\n      0x20\n        /* \"#utility.yul\":19759:19762   */\n      dup3\n        /* \"#utility.yul\":19755:19767   */\n      add\n        /* \"#utility.yul\":19748:19767   */\n      swap1\n      pop\n        /* \"#utility.yul\":19407:19773   */\n      swap2\n      swap1\n      pop\n      jump\t// out\n        /* \"#utility.yul\":19779:20198   */\n    tag_140:\n        /* \"#utility.yul\":19945:19949   */\n      0x00\n        /* \"#utility.yul\":19983:19985   */\n      0x20\n        /* \"#utility.yul\":19972:19981   */\n      dup3\n        /* \"#utility.yul\":19968:19986   */\n      add\n        /* \"#utility.yul\":19960:19986   */\n      swap1\n      pop\n        /* \"#utility.yul\":20032:20041   */\n      dup2\n        /* \"#utility.yul\":20026:20030   */\n      dup2\n        /* \"#utility.yul\":20022:20042   */\n      sub\n        /* \"#utility.yul\":20018:20019   */\n      0x00\n        /* \"#utility.yul\":20007:20016   */\n      dup4\n        /* \"#utility.yul\":20003:20020   */\n      add\n        /* \"#utility.yul\":19996:20043   */\n      mstore\n        /* \"#utility.yul\":20060:20191   */\n      tag_415\n        /* \"#utility.yul\":20186:20190   */\n      dup2\n        /* \"#utility.yul\":20060:20191   */\n      tag_211\n      jump\t// in\n    tag_415:\n        /* \"#utility.yul\":20052:20191   */\n      swap1\n      pop\n        /* \"#utility.yul\":19779:20198   */\n      swap2\n      swap1\n      pop\n      jump\t// out\n        /* \"#utility.yul\":20204:20372   */\n    tag_212:\n        /* \"#utility.yul\":20344:20364   */\n      0x416c726561647920636865636b656420696e0000000000000000000000000000\n        /* \"#utility.yul\":20340:20341   */\n      0x00\n        /* \"#utility.yul\":20332:20338   */\n      dup3\n        /* \"#utility.yul\":20328:20342   */\n      add\n        /* \"#utility.yul\":20321:20365   */\n      mstore\n        /* \"#utility.yul\":20204:20372   */\n      pop\n      jump\t// out\n        /* \"#utility.yul\":20378:20744   */\n    tag_213:\n        /* \"#utility.yul\":20520:20523   */\n      0x00\n        /* \"#utility.yul\":20541:20608   */\n      tag_418\n        /* \"#utility.yul\":20605:20607   */\n      0x12\n        /* \"#utility.yul\":20600:20603   */\n      dup4\n        /* \"#utility.yul\":20541:20608   */\n      tag_173\n      jump\t// in\n    tag_418:\n        /* \"#utility.yul\":20534:20608   */\n      swap2\n      pop\n        /* \"#utility.yul\":20617:20710   */\n      tag_419\n        /* \"#utility.yul\":20706:20709   */\n      dup3\n        /* \"#utility.yul\":20617:20710   */\n      tag_212\n      jump\t// in\n    tag_419:\n        /* \"#utility.yul\":20735:20737   */\n      0x20\n        /* \"#utility.yul\":20730:20733   */\n      dup3\n        /* \"#utility.yul\":20726:20738   */\n      add\n        /* \"#utility.yul\":20719:20738   */\n      swap1\n      pop\n        /* \"#utility.yul\":20378:20744   */\n      swap2\n      swap1\n      pop\n      jump\t// out\n        /* \"#utility.yul\":20750:21169   */\n    tag_143:\n        /* \"#utility.yul\":20916:20920   */\n      0x00\n        /* \"#utility.yul\":20954:20956   */\n      0x20\n        /* \"#utility.yul\":20943:20952   */\n      dup3\n        /* \"#utility.yul\":20939:20957   */\n      add\n        /* \"#utility.yul\":20931:20957   */\n      swap1\n      pop\n        /* \"#utility.yul\":21003:21012   */\n      dup2\n        /* \"#utility.yul\":20997:21001   */\n      dup2\n        /* \"#utility.yul\":20993:21013   */\n      sub\n        /* \"#utility.yul\":20989:20990   */\n      0x00\n        /* \"#utility.yul\":20978:20987   */\n      dup4\n        /* \"#utility.yul\":20974:20991   */\n      add\n        /* \"#utility.yul\":20967:21014   */\n      mstore\n        /* \"#utility.yul\":21031:21162   */\n      tag_421\n        /* \"#utility.yul\":21157:21161   */\n      dup2\n        /* \"#utility.yul\":21031:21162   */\n      tag_213\n      jump\t// in\n    tag_421:\n        /* \"#utility.yul\":21023:21162   */\n      swap1\n      pop\n        /* \"#utility.yul\":20750:21169   */\n      swap2\n      swap1\n      pop\n      jump\t// out\n        /* \"#utility.yul\":21175:21342   */\n    tag_214:\n        /* \"#utility.yul\":21315:21334   */\n      0x496e76616c6964207369676e6174757265000000000000000000000000000000\n        /* \"#utility.yul\":21311:21312   */\n      0x00\n        /* \"#utility.yul\":21303:21309   */\n      dup3\n        /* \"#utility.yul\":21299:21313   */\n      add\n        /* \"#utility.yul\":21292:21335   */\n      mstore\n        /* \"#utility.yul\":21175:21342   */\n      pop\n      jump\t// out\n        /* \"#utility.yul\":21348:21714   */\n    tag_215:\n        /* \"#utility.yul\":21490:21493   */\n      0x00\n        /* \"#utility.yul\":21511:21578   */\n      tag_424\n        /* \"#utility.yul\":21575:21577   */\n      0x11\n        /* \"#utility.yul\":21570:21573   */\n      dup4\n        /* \"#utility.yul\":21511:21578   */\n      tag_173\n      jump\t// in\n    tag_424:\n        /* \"#utility.yul\":21504:21578   */\n      swap2\n      pop\n        /* \"#utility.yul\":21587:21680   */\n      tag_425\n        /* \"#utility.yul\":21676:21679   */\n      dup3\n        /* \"#utility.yul\":21587:21680   */\n      tag_214\n      jump\t// in\n    tag_425:\n        /* \"#utility.yul\":21705:21707   */\n      0x20\n        /* \"#utility.yul\":21700:21703   */\n      dup3\n        /* \"#utility.yul\":21696:21708   */\n      add\n        /* \"#utility.yul\":21689:21708   */\n      swap1\n      pop\n        /* \"#utility.yul\":21348:21714   */\n      swap2\n      swap1\n      pop\n      jump\t// out\n        /* \"#utility.yul\":21720:22139   */\n    tag_151:\n        /* \"#utility.yul\":21886:21890   */\n      0x00\n        /* \"#utility.yul\":21924:21926   */\n      0x20\n        /* \"#utility.yul\":21913:21922   */\n      dup3\n        /* \"#utility.yul\":21909:21927   */\n      add\n        /* \"#utility.yul\":21901:21927   */\n      swap1\n      pop\n        /* \"#utility.yul\":21973:21982   */\n      dup2\n        /* \"#utility.yul\":21967:21971   */\n      dup2\n        /* \"#utility.yul\":21963:21983   */\n      sub\n        /* \"#utility.yul\":21959:21960   */\n      0x00\n        /* \"#utility.yul\":21948:21957   */\n      dup4\n        /* \"#utility.yul\":21944:21961   */\n      add\n        /* \"#utility.yul\":21937:21984   */\n      mstore\n        /* \"#utility.yul\":22001:22132   */\n      tag_427\n        /* \"#utility.yul\":22127:22131   */\n      dup2\n        /* \"#utility.yul\":22001:22132   */\n      tag_215\n      jump\t// in\n    tag_427:\n        /* \"#utility.yul\":21993:22132   */\n      swap1\n      pop\n        /* \"#utility.yul\":21720:22139   */\n      swap2\n      swap1\n      pop\n      jump\t// out\n        /* \"#utility.yul\":22145:22309   */\n    tag_216:\n        /* \"#utility.yul\":22285:22301   */\n      0x4f6e6c79206f7267616e697a6572000000000000000000000000000000000000\n        /* \"#utility.yul\":22281:22282   */\n      0x00\n        /* \"#utility.yul\":22273:22279   */\n      dup3\n        /* \"#utility.yul\":22269:22283   */\n      add\n        /* \"#utility.yul\":22262:22302   */\n      mstore\n        /* \"#utility.yul\":22145:22309   */\n      pop\n      jump\t// out\n        /* \"#utility.yul\":22315:22681   */\n    tag_217:\n        /* \"#utility.yul\":22457:22460   */\n      0x00\n        /* \"#utility.yul\":22478:22545   */\n      tag_430\n        /* \"#utility.yul\":22542:22544   */\n      0x0e\n        /* \"#utility.yul\":22537:22540   */\n      dup4\n        /* \"#utility.yul\":22478:22545   */\n      tag_173\n      jump\t// in\n    tag_430:\n        /* \"#utility.yul\":22471:22545   */\n      swap2\n      pop\n        /* \"#utility.yul\":22554:22647   */\n      tag_431\n        /* \"#utility.yul\":22643:22646   */\n      dup3\n        /* \"#utility.yul\":22554:22647   */\n      tag_216\n      jump\t// in\n    tag_431:\n        /* \"#utility.yul\":22672:22674   */\n      0x20\n        /* \"#utility.yul\":22667:22670   */\n      dup3\n        /* \"#utility.yul\":22663:22675   */\n      add\n        /* \"#utility.yul\":22656:22675   */\n      swap1\n      pop\n        /* \"#utility.yul\":22315:22681   */\n      swap2\n      swap1\n      pop\n      jump\t// out\n        /* \"#utility.yul\":22687:23106   */\n    tag_157:\n        /* \"#utility.yul\":22853:22857   */\n      0x00\n        /* \"#utility.yul\":22891:22893   */\n      0x20\n        /* \"#utility.yul\":22880:22889   */\n      dup3\n        /* \"#utility.yul\":22876:22894   */\n      add\n        /* \"#utility.yul\":22868:22894   */\n      swap1\n      pop\n        /* \"#utility.yul\":22940:22949   */\n      dup2\n        /* \"#utility.yul\":22934:22938   */\n      dup2\n        /* \"#utility.yul\":22930:22950   */\n      sub\n        /* \"#utility.yul\":22926:22927   */\n      0x00\n        /* \"#utility.yul\":22915:22924   */\n      dup4\n        /* \"#utility.yul\":22911:22928   */\n      add\n        /* \"#utility.yul\":22904:22951   */\n      mstore\n        /* \"#utility.yul\":22968:23099   */\n      tag_433\n        /* \"#utility.yul\":23094:23098   */\n      dup2\n        /* \"#utility.yul\":22968:23099   */\n      tag_217\n      jump\t// in\n    tag_433:\n        /* \"#utility.yul\":22960:23099   */\n      swap1\n      pop\n        /* \"#utility.yul\":22687:23106   */\n      swap2\n      swap1\n      pop\n      jump\t// out\n\n    auxdata: 0xa2646970667358221220c4e5a1c12c043baaa99faefb2734b831ec22d80474f2a4e1e05143fe0b36583064736f6c634300081e0033\n}\n",
				"bytecode": {
					"linkReferences": {},
					"object": "608060405234801561000f575f5ffd5b50604051611f3b380380611f3b8339818101604052810190610031919061026b565b825f908161003f91906104de565b503360015f6101000a81548173ffffffffffffffffffffffffffffffffffffffff021916908373ffffffffffffffffffffffffffffffffffffffff1602179055508160028190555080600381905550600160055f6101000a81548160ff0219169083151502179055507fef361a1e306446b9c7b03355ef7fbc9ea7cbdc417a1fd436d496c6d5523a48db8383836040516100db93929190610604565b60405180910390a1505050610640565b5f604051905090565b5f5ffd5b5f5ffd5b5f5ffd5b5f5ffd5b5f601f19601f8301169050919050565b7f4e487b71000000000000000000000000000000000000000000000000000000005f52604160045260245ffd5b61014a82610104565b810181811067ffffffffffffffff8211171561016957610168610114565b5b80604052505050565b5f61017b6100eb565b90506101878282610141565b919050565b5f67ffffffffffffffff8211156101a6576101a5610114565b5b6101af82610104565b9050602081019050919050565b8281835e5f83830152505050565b5f6101dc6101d78461018c565b610172565b9050828152602081018484840111156101f8576101f7610100565b5b6102038482856101bc565b509392505050565b5f82601f83011261021f5761021e6100fc565b5b815161022f8482602086016101ca565b91505092915050565b5f819050919050565b61024a81610238565b8114610254575f5ffd5b50565b5f8151905061026581610241565b92915050565b5f5f5f60608486031215610282576102816100f4565b5b5f84015167ffffffffffffffff81111561029f5761029e6100f8565b5b6102ab8682870161020b565b93505060206102bc86828701610257565b92505060406102cd86828701610257565b9150509250925092565b5f81519050919050565b7f4e487b71000000000000000000000000000000000000000000000000000000005f52602260045260245ffd5b5f600282049050600182168061032557607f821691505b602082108103610338576103376102e1565b5b50919050565b5f819050815f5260205f209050919050565b5f6020601f8301049050919050565b5f82821b905092915050565b5f6008830261039a7fffffffffffffffffffffffffffffffffffffffffffffffffffffffffffffffff8261035f565b6103a4868361035f565b95508019841693508086168417925050509392505050565b5f819050919050565b5f6103df6103da6103d584610238565b6103bc565b610238565b9050919050565b5f819050919050565b6103f8836103c5565b61040c610404826103e6565b84845461036b565b825550505050565b5f5f905090565b610423610414565b61042e8184846103ef565b505050565b5b81811015610451576104465f8261041b565b600181019050610434565b5050565b601f821115610496576104678161033e565b61047084610350565b8101602085101561047f578190505b61049361048b85610350565b830182610433565b50505b505050565b5f82821c905092915050565b5f6104b65f198460080261049b565b1980831691505092915050565b5f6104ce83836104a7565b9150826002028217905092915050565b6104e7826102d7565b67ffffffffffffffff811115610500576104ff610114565b5b61050a825461030e565b610515828285610455565b5f60209050601f831160018114610546575f8415610534578287015190505b61053e85826104c3565b8655506105a5565b601f1984166105548661033e565b5f5b8281101561057b57848901518255600182019150602085019450602081019050610556565b868310156105985784890151610594601f8916826104a7565b8355505b6001600288020188555050505b505050505050565b5f82825260208201905092915050565b5f6105c7826102d7565b6105d181856105ad565b93506105e18185602086016101bc565b6105ea81610104565b840191505092915050565b6105fe81610238565b82525050565b5f6060820190508181035f83015261061c81866105bd565b905061062b60208301856105f5565b61063860408301846105f5565b949350505050565b6118ee8061064d5f395ff3fe608060405234801561000f575f5ffd5b50600436106100cd575f3560e01c80638043c9c01161008a578063d4e8c2ae11610064578063d4e8c2ae14610205578063d866b0b614610221578063e4b8ce6214610251578063f1adda471461025b576100cd565b80638043c9c0146101995780638a91ac1d146101b7578063cc54bcf2146101e7576100cd565b80631f5ac1b2146100d15780634bfbe5df146101015780635f3d7fa11461011f578063612032651461013d5780636d00fa681461015b5780636e80adcd1461017d575b5f5ffd5b6100eb60048036038101906100e69190610de0565b610279565b6040516100f89190610e23565b60405180910390f35b6101096102ac565b6040516101169190610e54565b60405180910390f35b6101276102b2565b6040516101349190610e54565b60405180910390f35b6101456102b8565b6040516101529190610e7c565b60405180910390f35b6101636102dd565b604051610174959493929190610f1f565b60405180910390f35b61019760048036038101906101929190611082565b610397565b005b6101a16107b9565b6040516101ae9190611166565b60405180910390f35b6101d160048036038101906101cc91906111e6565b610844565b6040516101de919061124a565b60405180910390f35b6101ef610949565b6040516101fc919061124a565b60405180910390f35b61021f600480360381019061021a91906111e6565b61095b565b005b61023b60048036038101906102369190610de0565b610c5d565b604051610248919061124a565b60405180910390f35b610259610c7a565b005b610263610d78565b6040516102709190610e54565b60405180910390f35b5f81305f60405160200161028f939291906113a1565b604051602081830303815290604052805190602001209050919050565b60025481565b60035481565b60015f9054906101000a900473ffffffffffffffffffffffffffffffffffffffff1681565b60605f5f5f5f5f60025460035460045460055f9054906101000a900460ff16848054610308906112d5565b80601f0160208091040260200160405190810160405280929190818152602001828054610334906112d5565b801561037f5780601f106103565761010080835404028352916020019161037f565b820191905f5260205f20905b81548152906001019060200180831161036257829003601f168201915b50505050509450945094509450945094509091929394565b60055f9054906101000a900460ff166103e5576040517f08c379a00000000000000000000000000000000000000000000000000000000081526004016103dc90611423565b60405180910390fd5b85859050888890501461042d576040517f08c379a00000000000000000000000000000000000000000000000000000000081526004016104249061148b565b60405180910390fd5b838390508888905014610475576040517f08c379a000000000000000000000000000000000000000000000000000000000815260040161046c9061148b565b60405180910390fd5b8181905088889050146104bd576040517f08c379a00000000000000000000000000000000000000000000000000000000081526004016104b49061148b565b60405180910390fd5b600354888890506004546104d191906114d6565b1115610512576040517f08c379a000000000000000000000000000000000000000000000000000000000815260040161050990611553565b60405180910390fd5b5f5f90505b888890508110156107ae575f89898381811061053657610535611571565b5b905060200201602081019061054b9190610de0565b905060065f8273ffffffffffffffffffffffffffffffffffffffff1673ffffffffffffffffffffffffffffffffffffffff1681526020019081526020015f205f9054906101000a900460ff16156105a257506107a1565b5f81305f6040516020016105b8939291906113a1565b6040516020818303038152906040528051906020012090505f816040516020016105e29190611608565b6040516020818303038152906040528051906020012090505f6001828c8c8881811061061157610610611571565b5b9050602002016020810190610626919061162d565b8b8b8981811061063957610638611571565b5b905060200201358a8a8a81811061065357610652611571565b5b905060200201356040515f81526020016040526040516106769493929190611667565b6020604051602081039080840390855afa158015610696573d5f5f3e3d5ffd5b50505060206040510351905060015f9054906101000a900473ffffffffffffffffffffffffffffffffffffffff1673ffffffffffffffffffffffffffffffffffffffff168173ffffffffffffffffffffffffffffffffffffffff160361079c57600160065f8673ffffffffffffffffffffffffffffffffffffffff1673ffffffffffffffffffffffffffffffffffffffff1681526020019081526020015f205f6101000a81548160ff02191690831515021790555060045f81548092919061075d906116aa565b91905055507fc4b6af862e5edf86b47bbd28434015dfdddfc6ce20ea8f6146df2972b54db5d584426040516107939291906116f1565b60405180910390a15b505050505b8080600101915050610517565b505050505050505050565b5f80546107c5906112d5565b80601f01602080910402602001604051908101604052809291908181526020018280546107f1906112d5565b801561083c5780601f106108135761010080835404028352916020019161083c565b820191905f5260205f20905b81548152906001019060200180831161081f57829003601f168201915b505050505081565b5f5f85305f60405160200161085b939291906113a1565b6040516020818303038152906040528051906020012090505f816040516020016108859190611608565b6040516020818303038152906040528051906020012090505f6001828888886040515f81526020016040526040516108c09493929190611667565b6020604051602081039080840390855afa1580156108e0573d5f5f3e3d5ffd5b50505060206040510351905060015f9054906101000a900473ffffffffffffffffffffffffffffffffffffffff1673ffffffffffffffffffffffffffffffffffffffff168173ffffffffffffffffffffffffffffffffffffffff16149350505050949350505050565b60055f9054906101000a900460ff1681565b60055f9054906101000a900460ff166109a9576040517f08c379a00000000000000000000000000000000000000000000000000000000081526004016109a090611423565b60405180910390fd5b600354600454106109ef576040517f08c379a00000000000000000000000000000000000000000000000000000000081526004016109e690611762565b60405180910390fd5b60065f8573ffffffffffffffffffffffffffffffffffffffff1673ffffffffffffffffffffffffffffffffffffffff1681526020019081526020015f205f9054906101000a900460ff1615610a79576040517f08c379a0000000000000000000000000000000000000000000000000000000008152600401610a70906117ca565b60405180910390fd5b5f84305f604051602001610a8f939291906113a1565b6040516020818303038152906040528051906020012090505f81604051602001610ab99190611608565b6040516020818303038152906040528051906020012090505f6001828787876040515f8152602001604052604051610af49493929190611667565b6020604051602081039080840390855afa158015610b14573d5f5f3e3d5ffd5b50505060206040510351905060015f9054906101000a900473ffffffffffffffffffffffffffffffffffffffff1673ffffffffffffffffffffffffffffffffffffffff168173ffffffffffffffffffffffffffffffffffffffff1614610baf576040517f08c379a0000000000000000000000000000000000000000000000000000000008152600401610ba690611832565b60405180910390fd5b600160065f8973ffffffffffffffffffffffffffffffffffffffff1673ffffffffffffffffffffffffffffffffffffffff1681526020019081526020015f205f6101000a81548160ff02191690831515021790555060045f815480929190610c16906116aa565b91905055507fc4b6af862e5edf86b47bbd28434015dfdddfc6ce20ea8f6146df2972b54db5d58742604051610c4c9291906116f1565b60405180910390a150505050505050565b6006602052805f5260405f205f915054906101000a900460ff1681565b60015f9054906101000a900473ffffffffffffffffffffffffffffffffffffffff1673ffffffffffffffffffffffffffffffffffffffff163373ffffffffffffffffffffffffffffffffffffffff1614610d09576040517f08c379a0000000000000000000000000000000000000000000000000000000008152600401610d009061189a565b60405180910390fd5b60055f9054906101000a900460ff161560055f6101000a81548160ff0219169083151502179055507f3b2459d109ea4ebe9f621a02c3324d4b06bcbb121b32094e9210c57575e2f15060055f9054906101000a900460ff16604051610d6e919061124a565b60405180910390a1565b60045481565b5f5ffd5b5f5ffd5b5f73ffffffffffffffffffffffffffffffffffffffff82169050919050565b5f610daf82610d86565b9050919050565b610dbf81610da5565b8114610dc9575f5ffd5b50565b5f81359050610dda81610db6565b92915050565b5f60208284031215610df557610df4610d7e565b5b5f610e0284828501610dcc565b91505092915050565b5f819050919050565b610e1d81610e0b565b82525050565b5f602082019050610e365f830184610e14565b92915050565b5f819050919050565b610e4e81610e3c565b82525050565b5f602082019050610e675f830184610e45565b92915050565b610e7681610da5565b82525050565b5f602082019050610e8f5f830184610e6d565b92915050565b5f81519050919050565b5f82825260208201905092915050565b8281835e5f83830152505050565b5f601f19601f8301169050919050565b5f610ed782610e95565b610ee18185610e9f565b9350610ef1818560208601610eaf565b610efa81610ebd565b840191505092915050565b5f8115159050919050565b610f1981610f05565b82525050565b5f60a0820190508181035f830152610f378188610ecd565b9050610f466020830187610e45565b610f536040830186610e45565b610f606060830185610e45565b610f6d6080830184610f10565b9695505050505050565b5f5ffd5b5f5ffd5b5f5ffd5b5f5f83601f840112610f9857610f97610f77565b5b8235905067ffffffffffffffff811115610fb557610fb4610f7b565b5b602083019150836020820283011115610fd157610fd0610f7f565b5b9250929050565b5f5f83601f840112610fed57610fec610f77565b5b8235905067ffffffffffffffff81111561100a57611009610f7b565b5b60208301915083602082028301111561102657611025610f7f565b5b9250929050565b5f5f83601f84011261104257611041610f77565b5b8235905067ffffffffffffffff81111561105f5761105e610f7b565b5b60208301915083602082028301111561107b5761107a610f7f565b5b9250929050565b5f5f5f5f5f5f5f5f6080898b03121561109e5761109d610d7e565b5b5f89013567ffffffffffffffff8111156110bb576110ba610d82565b5b6110c78b828c01610f83565b9850985050602089013567ffffffffffffffff8111156110ea576110e9610d82565b5b6110f68b828c01610fd8565b9650965050604089013567ffffffffffffffff81111561111957611118610d82565b5b6111258b828c0161102d565b9450945050606089013567ffffffffffffffff81111561114857611147610d82565b5b6111548b828c0161102d565b92509250509295985092959890939650565b5f6020820190508181035f83015261117e8184610ecd565b905092915050565b5f60ff82169050919050565b61119b81611186565b81146111a5575f5ffd5b50565b5f813590506111b681611192565b92915050565b6111c581610e0b565b81146111cf575f5ffd5b50565b5f813590506111e0816111bc565b92915050565b5f5f5f5f608085870312156111fe576111fd610d7e565b5b5f61120b87828801610dcc565b945050602061121c878288016111a8565b935050604061122d878288016111d2565b925050606061123e878288016111d2565b91505092959194509250565b5f60208201905061125d5f830184610f10565b92915050565b5f8160601b9050919050565b5f61127982611263565b9050919050565b5f61128a8261126f565b9050919050565b6112a261129d82610da5565b611280565b82525050565b7f4e487b71000000000000000000000000000000000000000000000000000000005f52602260045260245ffd5b5f60028204905060018216806112ec57607f821691505b6020821081036112ff576112fe6112a8565b5b50919050565b5f81905092915050565b5f819050815f5260205f209050919050565b5f815461132d816112d5565b6113378186611305565b9450600182165f8114611351576001811461136657611398565b60ff1983168652811515820286019350611398565b61136f8561130f565b5f5b8381101561139057815481890152600182019150602081019050611371565b838801955050505b50505092915050565b5f6113ac8286611291565b6014820191506113bc8285611291565b6014820191506113cc8284611321565b9150819050949350505050565b7f4576656e74206e6f7420616374697665000000000000000000000000000000005f82015250565b5f61140d601083610e9f565b9150611418826113d9565b602082019050919050565b5f6020820190508181035f83015261143a81611401565b9050919050565b7f4172726179206c656e677468206d69736d6174636800000000000000000000005f82015250565b5f611475601583610e9f565b915061148082611441565b602082019050919050565b5f6020820190508181035f8301526114a281611469565b9050919050565b7f4e487b71000000000000000000000000000000000000000000000000000000005f52601160045260245ffd5b5f6114e082610e3c565b91506114eb83610e3c565b9250828201905080821115611503576115026114a9565b5b92915050565b7f576f756c642065786365656420636170616369747900000000000000000000005f82015250565b5f61153d601583610e9f565b915061154882611509565b602082019050919050565b5f6020820190508181035f83015261156a81611531565b9050919050565b7f4e487b71000000000000000000000000000000000000000000000000000000005f52603260045260245ffd5b7f19457468657265756d205369676e6564204d6573736167653a0a3332000000005f82015250565b5f6115d2601c83611305565b91506115dd8261159e565b601c82019050919050565b5f819050919050565b6116026115fd82610e0b565b6115e8565b82525050565b5f611612826115c6565b915061161e82846115f1565b60208201915081905092915050565b5f6020828403121561164257611641610d7e565b5b5f61164f848285016111a8565b91505092915050565b61166181611186565b82525050565b5f60808201905061167a5f830187610e14565b6116876020830186611658565b6116946040830185610e14565b6116a16060830184610e14565b95945050505050565b5f6116b482610e3c565b91507fffffffffffffffffffffffffffffffffffffffffffffffffffffffffffffffff82036116e6576116e56114a9565b5b600182019050919050565b5f6040820190506117045f830185610e6d565b6117116020830184610e45565b9392505050565b7f4576656e742066756c6c000000000000000000000000000000000000000000005f82015250565b5f61174c600a83610e9f565b915061175782611718565b602082019050919050565b5f6020820190508181035f83015261177981611740565b9050919050565b7f416c726561647920636865636b656420696e00000000000000000000000000005f82015250565b5f6117b4601283610e9f565b91506117bf82611780565b602082019050919050565b5f6020820190508181035f8301526117e1816117a8565b9050919050565b7f496e76616c6964207369676e61747572650000000000000000000000000000005f82015250565b5f61181c601183610e9f565b9150611827826117e8565b602082019050919050565b5f6020820190508181035f83015261184981611810565b9050919050565b7f4f6e6c79206f7267616e697a65720000000000000000000000000000000000005f82015250565b5f611884600e83610e9f565b915061188f82611850565b602082019050919050565b5f6020820190508181035f8301526118b181611878565b905091905056fea2646970667358221220c4e5a1c12c043baaa99faefb2734b831ec22d80474f2a4e1e05143fe0b36583064736f6c634300081e0033",
					"opcodes": "PUSH1 0x80 PUSH1 0x40 MSTORE CALLVALUE DUP1 ISZERO PUSH2 0xF JUMPI PUSH0 PUSH0 REVERT JUMPDEST POP PUSH1 0x40 MLOAD PUSH2 0x1F3B CODESIZE SUB DUP1 PUSH2 0x1F3B DUP4 CODECOPY DUP2 DUP2 ADD PUSH1 0x40 MSTORE DUP2 ADD SWAP1 PUSH2 0x31 SWAP2 SWAP1 PUSH2 0x26B JUMP JUMPDEST DUP3 PUSH0 SWAP1 DUP2 PUSH2 0x3F SWAP2 SWAP1 PUSH2 0x4DE JUMP JUMPDEST POP CALLER PUSH1 0x1 PUSH0 PUSH2 0x100 EXP DUP2 SLOAD DUP2 PUSH20 0xFFFFFFFFFFFFFFFFFFFFFFFFFFFFFFFFFFFFFFFF MUL NOT AND SWAP1 DUP4 PUSH20 0xFFFFFFFFFFFFFFFFFFFFFFFFFFFFFFFFFFFFFFFF AND MUL OR SWAP1 SSTORE POP DUP2 PUSH1 0x2 DUP2 SWAP1 SSTORE POP DUP1 PUSH1 0x3 DUP2 SWAP1 SSTORE POP PUSH1 0x1 PUSH1 0x5 PUSH0 PUSH2 0x100 EXP DUP2 SLOAD DUP2 PUSH1 0xFF MUL NOT AND SWAP1 DUP4 ISZERO ISZERO MUL OR SWAP1 SSTORE POP PUSH32 0xEF361A1E306446B9C7B03355EF7FBC9EA7CBDC417A1FD436D496C6D5523A48DB DUP4 DUP4 DUP4 PUSH1 0x40 MLOAD PUSH2 0xDB SWAP4 SWAP3 SWAP2 SWAP1 PUSH2 0x604 JUMP JUMPDEST PUSH1 0x40 MLOAD DUP1 SWAP2 SUB SWAP1 LOG1 POP POP POP PUSH2 0x640 JUMP JUMPDEST PUSH0 PUSH1 0x40 MLOAD SWAP1 POP SWAP1 JUMP JUMPDEST PUSH0 PUSH0 REVERT JUMPDEST PUSH0 PUSH0 REVERT JUMPDEST PUSH0 PUSH0 REVERT JUMPDEST PUSH0 PUSH0 REVERT JUMPDEST PUSH0 PUSH1 0x1F NOT PUSH1 0x1F DUP4 ADD AND SWAP1 POP SWAP2 SWAP1 POP JUMP JUMPDEST PUSH32 0x4E487B7100000000000000000000000000000000000000000000000000000000 PUSH0 MSTORE PUSH1 0x41 PUSH1 0x4 MSTORE PUSH1 0x24 PUSH0 REVERT JUMPDEST PUSH2 0x14A DUP3 PUSH2 0x104 JUMP JUMPDEST DUP2 ADD DUP2 DUP2 LT PUSH8 0xFFFFFFFFFFFFFFFF DUP3 GT OR ISZERO PUSH2 0x169 JUMPI PUSH2 0x168 PUSH2 0x114 JUMP JUMPDEST JUMPDEST DUP1 PUSH1 0x40 MSTORE POP POP POP JUMP JUMPDEST PUSH0 PUSH2 0x17B PUSH2 0xEB JUMP JUMPDEST SWAP1 POP PUSH2 0x187 DUP3 DUP3 PUSH2 0x141 JUMP JUMPDEST SWAP2 SWAP1 POP JUMP JUMPDEST PUSH0 PUSH8 0xFFFFFFFFFFFFFFFF DUP3 GT ISZERO PUSH2 0x1A6 JUMPI PUSH2 0x1A5 PUSH2 0x114 JUMP JUMPDEST JUMPDEST PUSH2 0x1AF DUP3 PUSH2 0x104 JUMP JUMPDEST SWAP1 POP PUSH1 0x20 DUP2 ADD SWAP1 POP SWAP2 SWAP1 POP JUMP JUMPDEST DUP3 DUP2 DUP4 MCOPY PUSH0 DUP4 DUP4 ADD MSTORE POP POP POP JUMP JUMPDEST PUSH0 PUSH2 0x1DC PUSH2 0x1D7 DUP5 PUSH2 0x18C JUMP JUMPDEST PUSH2 0x172 JUMP JUMPDEST SWAP1 POP DUP3 DUP2 MSTORE PUSH1 0x20 DUP2 ADD DUP5 DUP5 DUP5 ADD GT ISZERO PUSH2 0x1F8 JUMPI PUSH2 0x1F7 PUSH2 0x100 JUMP JUMPDEST JUMPDEST PUSH2 0x203 DUP5 DUP3 DUP6 PUSH2 0x1BC JUMP JUMPDEST POP SWAP4 SWAP3 POP POP POP JUMP JUMPDEST PUSH0 DUP3 PUSH1 0x1F DUP4 ADD SLT PUSH2 0x21F JUMPI PUSH2 0x21E PUSH2 0xFC JUMP JUMPDEST JUMPDEST DUP2 MLOAD PUSH2 0x22F DUP5 DUP3 PUSH1 0x20 DUP7 ADD PUSH2 0x1CA JUMP JUMPDEST SWAP2 POP POP SWAP3 SWAP2 POP POP JUMP JUMPDEST PUSH0 DUP2 SWAP1 POP SWAP2 SWAP1 POP JUMP JUMPDEST PUSH2 0x24A DUP2 PUSH2 0x238 JUMP JUMPDEST DUP2 EQ PUSH2 0x254 JUMPI PUSH0 PUSH0 REVERT JUMPDEST POP JUMP JUMPDEST PUSH0 DUP2 MLOAD SWAP1 POP PUSH2 0x265 DUP2 PUSH2 0x241 JUMP JUMPDEST SWAP3 SWAP2 POP POP JUMP JUMPDEST PUSH0 PUSH0 PUSH0 PUSH1 0x60 DUP5 DUP7 SUB SLT ISZERO PUSH2 0x282 JUMPI PUSH2 0x281 PUSH2 0xF4 JUMP JUMPDEST JUMPDEST PUSH0 DUP5 ADD MLOAD PUSH8 0xFFFFFFFFFFFFFFFF DUP2 GT ISZERO PUSH2 0x29F JUMPI PUSH2 0x29E PUSH2 0xF8 JUMP JUMPDEST JUMPDEST PUSH2 0x2AB DUP7 DUP3 DUP8 ADD PUSH2 0x20B JUMP JUMPDEST SWAP4 POP POP PUSH1 0x20 PUSH2 0x2BC DUP7 DUP3 DUP8 ADD PUSH2 0x257 JUMP JUMPDEST SWAP3 POP POP PUSH1 0x40 PUSH2 0x2CD DUP7 DUP3 DUP8 ADD PUSH2 0x257 JUMP JUMPDEST SWAP2 POP POP SWAP3 POP SWAP3 POP SWAP3 JUMP JUMPDEST PUSH0 DUP2 MLOAD SWAP1 POP SWAP2 SWAP1 POP JUMP JUMPDEST PUSH32 0x4E487B7100000000000000000000000000000000000000000000000000000000 PUSH0 MSTORE PUSH1 0x22 PUSH1 0x4 MSTORE PUSH1 0x24 PUSH0 REVERT JUMPDEST PUSH0 PUSH1 0x2 DUP3 DIV SWAP1 POP PUSH1 0x1 DUP3 AND DUP1 PUSH2 0x325 JUMPI PUSH1 0x7F DUP3 AND SWAP2 POP JUMPDEST PUSH1 0x20 DUP3 LT DUP2 SUB PUSH2 0x338 JUMPI PUSH2 0x337 PUSH2 0x2E1 JUMP JUMPDEST JUMPDEST POP SWAP2 SWAP1 POP JUMP JUMPDEST PUSH0 DUP2 SWAP1 POP DUP2 PUSH0 MSTORE PUSH1 0x20 PUSH0 KECCAK256 SWAP1 POP SWAP2 SWAP1 POP JUMP JUMPDEST PUSH0 PUSH1 0x20 PUSH1 0x1F DUP4 ADD DIV SWAP1 POP SWAP2 SWAP1 POP JUMP JUMPDEST PUSH0 DUP3 DUP3 SHL SWAP1 POP SWAP3 SWAP2 POP POP JUMP JUMPDEST PUSH0 PUSH1 0x8 DUP4 MUL PUSH2 0x39A PUSH32 0xFFFFFFFFFFFFFFFFFFFFFFFFFFFFFFFFFFFFFFFFFFFFFFFFFFFFFFFFFFFFFFFF DUP3 PUSH2 0x35F JUMP JUMPDEST PUSH2 0x3A4 DUP7 DUP4 PUSH2 0x35F JUMP JUMPDEST SWAP6 POP DUP1 NOT DUP5 AND SWAP4 POP DUP1 DUP7 AND DUP5 OR SWAP3 POP POP POP SWAP4 SWAP3 POP POP POP JUMP JUMPDEST PUSH0 DUP2 SWAP1 POP SWAP2 SWAP1 POP JUMP JUMPDEST PUSH0 PUSH2 0x3DF PUSH2 0x3DA PUSH2 0x3D5 DUP5 PUSH2 0x238 JUMP JUMPDEST PUSH2 0x3BC JUMP JUMPDEST PUSH2 0x238 JUMP JUMPDEST SWAP1 POP SWAP2 SWAP1 POP JUMP JUMPDEST PUSH0 DUP2 SWAP1 POP SWAP2 SWAP1 POP JUMP JUMPDEST PUSH2 0x3F8 DUP4 PUSH2 0x3C5 JUMP JUMPDEST PUSH2 0x40C PUSH2 0x404 DUP3 PUSH2 0x3E6 JUMP JUMPDEST DUP5 DUP5 SLOAD PUSH2 0x36B JUMP JUMPDEST DUP3 SSTORE POP POP POP POP JUMP JUMPDEST PUSH0 PUSH0 SWAP1 POP SWAP1 JUMP JUMPDEST PUSH2 0x423 PUSH2 0x414 JUMP JUMPDEST PUSH2 0x42E DUP2 DUP5 DUP5 PUSH2 0x3EF JUMP JUMPDEST POP POP POP JUMP JUMPDEST JUMPDEST DUP2 DUP2 LT ISZERO PUSH2 0x451 JUMPI PUSH2 0x446 PUSH0 DUP3 PUSH2 0x41B JUMP JUMPDEST PUSH1 0x1 DUP2 ADD SWAP1 POP PUSH2 0x434 JUMP JUMPDEST POP POP JUMP JUMPDEST PUSH1 0x1F DUP3 GT ISZERO PUSH2 0x496 JUMPI PUSH2 0x467 DUP2 PUSH2 0x33E JUMP JUMPDEST PUSH2 0x470 DUP5 PUSH2 0x350 JUMP JUMPDEST DUP2 ADD PUSH1 0x20 DUP6 LT ISZERO PUSH2 0x47F JUMPI DUP2 SWAP1 POP JUMPDEST PUSH2 0x493 PUSH2 0x48B DUP6 PUSH2 0x350 JUMP JUMPDEST DUP4 ADD DUP3 PUSH2 0x433 JUMP JUMPDEST POP POP JUMPDEST POP POP POP JUMP JUMPDEST PUSH0 DUP3 DUP3 SHR SWAP1 POP SWAP3 SWAP2 POP POP JUMP JUMPDEST PUSH0 PUSH2 0x4B6 PUSH0 NOT DUP5 PUSH1 0x8 MUL PUSH2 0x49B JUMP JUMPDEST NOT DUP1 DUP4 AND SWAP2 POP POP SWAP3 SWAP2 POP POP JUMP JUMPDEST PUSH0 PUSH2 0x4CE DUP4 DUP4 PUSH2 0x4A7 JUMP JUMPDEST SWAP2 POP DUP3 PUSH1 0x2 MUL DUP3 OR SWAP1 POP SWAP3 SWAP2 POP POP JUMP JUMPDEST PUSH2 0x4E7 DUP3 PUSH2 0x2D7 JUMP JUMPDEST PUSH8 0xFFFFFFFFFFFFFFFF DUP2 GT ISZERO PUSH2 0x500 JUMPI PUSH2 0x4FF PUSH2 0x114 JUMP JUMPDEST JUMPDEST PUSH2 0x50A DUP3 SLOAD PUSH2 0x30E JUMP JUMPDEST PUSH2 0x515 DUP3 DUP3 DUP6 PUSH2 0x455 JUMP JUMPDEST PUSH0 PUSH1 0x20 SWAP1 POP PUSH1 0x1F DUP4 GT PUSH1 0x1 DUP2 EQ PUSH2 0x546 JUMPI PUSH0 DUP5 ISZERO PUSH2 0x534 JUMPI DUP3 DUP8 ADD MLOAD SWAP1 POP JUMPDEST PUSH2 0x53E DUP6 DUP3 PUSH2 0x4C3 JUMP JUMPDEST DUP7 SSTORE POP PUSH2 0x5A5 JUMP JUMPDEST PUSH1 0x1F NOT DUP5 AND PUSH2 0x554 DUP7 PUSH2 0x33E JUMP JUMPDEST PUSH0 JUMPDEST DUP3 DUP2 LT ISZERO PUSH2 0x57B JUMPI DUP5 DUP10 ADD MLOAD DUP3 SSTORE PUSH1 0x1 DUP3 ADD SWAP2 POP PUSH1 0x20 DUP6 ADD SWAP5 POP PUSH1 0x20 DUP2 ADD SWAP1 POP PUSH2 0x556 JUMP JUMPDEST DUP7 DUP4 LT ISZERO PUSH2 0x598 JUMPI DUP5 DUP10 ADD MLOAD PUSH2 0x594 PUSH1 0x1F DUP10 AND DUP3 PUSH2 0x4A7 JUMP JUMPDEST DUP4 SSTORE POP JUMPDEST PUSH1 0x1 PUSH1 0x2 DUP9 MUL ADD DUP9 SSTORE POP POP POP JUMPDEST POP POP POP POP POP POP JUMP JUMPDEST PUSH0 DUP3 DUP3 MSTORE PUSH1 0x20 DUP3 ADD SWAP1 POP SWAP3 SWAP2 POP POP JUMP JUMPDEST PUSH0 PUSH2 0x5C7 DUP3 PUSH2 0x2D7 JUMP JUMPDEST PUSH2 0x5D1 DUP2 DUP6 PUSH2 0x5AD JUMP JUMPDEST SWAP4 POP PUSH2 0x5E1 DUP2 DUP6 PUSH1 0x20 DUP7 ADD PUSH2 0x1BC JUMP JUMPDEST PUSH2 0x5EA DUP2 PUSH2 0x104 JUMP JUMPDEST DUP5 ADD SWAP2 POP POP SWAP3 SWAP2 POP POP JUMP JUMPDEST PUSH2 0x5FE DUP2 PUSH2 0x238 JUMP JUMPDEST DUP3 MSTORE POP POP JUMP JUMPDEST PUSH0 PUSH1 0x60 DUP3 ADD SWAP1 POP DUP2 DUP2 SUB PUSH0 DUP4 ADD MSTORE PUSH2 0x61C DUP2 DUP7 PUSH2 0x5BD JUMP JUMPDEST SWAP1 POP PUSH2 0x62B PUSH1 0x20 DUP4 ADD DUP6 PUSH2 0x5F5 JUMP JUMPDEST PUSH2 0x638 PUSH1 0x40 DUP4 ADD DUP5 PUSH2 0x5F5 JUMP JUMPDEST SWAP5 SWAP4 POP POP POP POP JUMP JUMPDEST PUSH2 0x18EE DUP1 PUSH2 0x64D PUSH0 CODECOPY PUSH0 RETURN INVALID PUSH1 0x80 PUSH1 0x40 MSTORE CALLVALUE DUP1 ISZERO PUSH2 0xF JUMPI PUSH0 PUSH0 REVERT JUMPDEST POP PUSH1 0x4 CALLDATASIZE LT PUSH2 0xCD JUMPI PUSH0 CALLDATALOAD PUSH1 0xE0 SHR DUP1 PUSH4 0x8043C9C0 GT PUSH2 0x8A JUMPI DUP1 PUSH4 0xD4E8C2AE GT PUSH2 0x64 JUMPI DUP1 PUSH4 0xD4E8C2AE EQ PUSH2 0x205 JUMPI DUP1 PUSH4 0xD866B0B6 EQ PUSH2 0x221 JUMPI DUP1 PUSH4 0xE4B8CE62 EQ PUSH2 0x251 JUMPI DUP1 PUSH4 0xF1ADDA47 EQ PUSH2 0x25B JUMPI PUSH2 0xCD JUMP JUMPDEST DUP1 PUSH4 0x8043C9C0 EQ PUSH2 0x199 JUMPI DUP1 PUSH4 0x8A91AC1D EQ PUSH2 0x1B7 JUMPI DUP1 PUSH4 0xCC54BCF2 EQ PUSH2 0x1E7 JUMPI PUSH2 0xCD JUMP JUMPDEST DUP1 PUSH4 0x1F5AC1B2 EQ PUSH2 0xD1 JUMPI DUP1 PUSH4 0x4BFBE5DF EQ PUSH2 0x101 JUMPI DUP1 PUSH4 0x5F3D7FA1 EQ PUSH2 0x11F JUMPI DUP1 PUSH4 0x61203265 EQ PUSH2 0x13D JUMPI DUP1 PUSH4 0x6D00FA68 EQ PUSH2 0x15B JUMPI DUP1 PUSH4 0x6E80ADCD EQ PUSH2 0x17D JUMPI JUMPDEST PUSH0 PUSH0 REVERT JUMPDEST PUSH2 0xEB PUSH1 0x4 DUP1 CALLDATASIZE SUB DUP2 ADD SWAP1 PUSH2 0xE6 SWAP2 SWAP1 PUSH2 0xDE0 JUMP JUMPDEST PUSH2 0x279 JUMP JUMPDEST PUSH1 0x40 MLOAD PUSH2 0xF8 SWAP2 SWAP1 PUSH2 0xE23 JUMP JUMPDEST PUSH1 0x40 MLOAD DUP1 SWAP2 SUB SWAP1 RETURN JUMPDEST PUSH2 0x109 PUSH2 0x2AC JUMP JUMPDEST PUSH1 0x40 MLOAD PUSH2 0x116 SWAP2 SWAP1 PUSH2 0xE54 JUMP JUMPDEST PUSH1 0x40 MLOAD DUP1 SWAP2 SUB SWAP1 RETURN JUMPDEST PUSH2 0x127 PUSH2 0x2B2 JUMP JUMPDEST PUSH1 0x40 MLOAD PUSH2 0x134 SWAP2 SWAP1 PUSH2 0xE54 JUMP JUMPDEST PUSH1 0x40 MLOAD DUP1 SWAP2 SUB SWAP1 RETURN JUMPDEST PUSH2 0x145 PUSH2 0x2B8 JUMP JUMPDEST PUSH1 0x40 MLOAD PUSH2 0x152 SWAP2 SWAP1 PUSH2 0xE7C JUMP JUMPDEST PUSH1 0x40 MLOAD DUP1 SWAP2 SUB SWAP1 RETURN JUMPDEST PUSH2 0x163 PUSH2 0x2DD JUMP JUMPDEST PUSH1 0x40 MLOAD PUSH2 0x174 SWAP6 SWAP5 SWAP4 SWAP3 SWAP2 SWAP1 PUSH2 0xF1F JUMP JUMPDEST PUSH1 0x40 MLOAD DUP1 SWAP2 SUB SWAP1 RETURN JUMPDEST PUSH2 0x197 PUSH1 0x4 DUP1 CALLDATASIZE SUB DUP2 ADD SWAP1 PUSH2 0x192 SWAP2 SWAP1 PUSH2 0x1082 JUMP JUMPDEST PUSH2 0x397 JUMP JUMPDEST STOP JUMPDEST PUSH2 0x1A1 PUSH2 0x7B9 JUMP JUMPDEST PUSH1 0x40 MLOAD PUSH2 0x1AE SWAP2 SWAP1 PUSH2 0x1166 JUMP JUMPDEST PUSH1 0x40 MLOAD DUP1 SWAP2 SUB SWAP1 RETURN JUMPDEST PUSH2 0x1D1 PUSH1 0x4 DUP1 CALLDATASIZE SUB DUP2 ADD SWAP1 PUSH2 0x1CC SWAP2 SWAP1 PUSH2 0x11E6 JUMP JUMPDEST PUSH2 0x844 JUMP JUMPDEST PUSH1 0x40 MLOAD PUSH2 0x1DE SWAP2 SWAP1 PUSH2 0x124A JUMP JUMPDEST PUSH1 0x40 MLOAD DUP1 SWAP2 SUB SWAP1 RETURN JUMPDEST PUSH2 0x1EF PUSH2 0x949 JUMP JUMPDEST PUSH1 0x40 MLOAD PUSH2 0x1FC SWAP2 SWAP1 PUSH2 0x124A JUMP JUMPDEST PUSH1 0x40 MLOAD DUP1 SWAP2 SUB SWAP1 RETURN JUMPDEST PUSH2 0x21F PUSH1 0x4 DUP1 CALLDATASIZE SUB DUP2 ADD SWAP1 PUSH2 0x21A SWAP2 SWAP1 PUSH2 0x11E6 JUMP JUMPDEST PUSH2 0x95B JUMP JUMPDEST STOP JUMPDEST PUSH2 0x23B PUSH1 0x4 DUP1 CALLDATASIZE SUB DUP2 ADD SWAP1 PUSH2 0x236 SWAP2 SWAP1 PUSH2 0xDE0 JUMP JUMPDEST PUSH2 0xC5D JUMP JUMPDEST PUSH1 0x40 MLOAD PUSH2 0x248 SWAP2 SWAP1 PUSH2 0x124A JUMP JUMPDEST PUSH1 0x40 MLOAD DUP1 SWAP2 SUB SWAP1 RETURN JUMPDEST PUSH2 0x259 PUSH2 0xC7A JUMP JUMPDEST STOP JUMPDEST PUSH2 0x263 PUSH2 0xD78 JUMP JUMPDEST PUSH1 0x40 MLOAD PUSH2 0x270 SWAP2 SWAP1 PUSH2 0xE54 JUMP JUMPDEST PUSH1 0x40 MLOAD DUP1 SWAP2 SUB SWAP1 RETURN JUMPDEST PUSH0 DUP2 ADDRESS PUSH0 PUSH1 0x40 MLOAD PUSH1 0x20 ADD PUSH2 0x28F SWAP4 SWAP3 SWAP2 SWAP1 PUSH2 0x13A1 JUMP JUMPDEST PUSH1 0x40 MLOAD PUSH1 0x20 DUP2 DUP4 SUB SUB DUP2 MSTORE SWAP1 PUSH1 0x40 MSTORE DUP1 MLOAD SWAP1 PUSH1 0x20 ADD KECCAK256 SWAP1 POP SWAP2 SWAP1 POP JUMP JUMPDEST PUSH1 0x2 SLOAD DUP2 JUMP JUMPDEST PUSH1 0x3 SLOAD DUP2 JUMP JUMPDEST PUSH1 0x1 PUSH0 SWAP1 SLOAD SWAP1 PUSH2 0x100 EXP SWAP1 DIV PUSH20 0xFFFFFFFFFFFFFFFFFFFFFFFFFFFFFFFFFFFFFFFF AND DUP2 JUMP JUMPDEST PUSH1 0x60 PUSH0 PUSH0 PUSH0 PUSH0 PUSH0 PUSH1 0x2 SLOAD PUSH1 0x3 SLOAD PUSH1 0x4 SLOAD PUSH1 0x5 PUSH0 SWAP1 SLOAD SWAP1 PUSH2 0x100 EXP SWAP1 DIV PUSH1 0xFF AND DUP5 DUP1 SLOAD PUSH2 0x308 SWAP1 PUSH2 0x12D5 JUMP JUMPDEST DUP1 PUSH1 0x1F ADD PUSH1 0x20 DUP1 SWAP2 DIV MUL PUSH1 0x20 ADD PUSH1 0x40 MLOAD SWAP1 DUP2 ADD PUSH1 0x40 MSTORE DUP1 SWAP3 SWAP2 SWAP1 DUP2 DUP2 MSTORE PUSH1 0x20 ADD DUP3 DUP1 SLOAD PUSH2 0x334 SWAP1 PUSH2 0x12D5 JUMP JUMPDEST DUP1 ISZERO PUSH2 0x37F JUMPI DUP1 PUSH1 0x1F LT PUSH2 0x356 JUMPI PUSH2 0x100 DUP1 DUP4 SLOAD DIV MUL DUP4 MSTORE SWAP2 PUSH1 0x20 ADD SWAP2 PUSH2 0x37F JUMP JUMPDEST DUP3 ADD SWAP2 SWAP1 PUSH0 MSTORE PUSH1 0x20 PUSH0 KECCAK256 SWAP1 JUMPDEST DUP2 SLOAD DUP2 MSTORE SWAP1 PUSH1 0x1 ADD SWAP1 PUSH1 0x20 ADD DUP1 DUP4 GT PUSH2 0x362 JUMPI DUP3 SWAP1 SUB PUSH1 0x1F AND DUP3 ADD SWAP2 JUMPDEST POP POP POP POP POP SWAP5 POP SWAP5 POP SWAP5 POP SWAP5 POP SWAP5 POP SWAP5 POP SWAP1 SWAP2 SWAP3 SWAP4 SWAP5 JUMP JUMPDEST PUSH1 0x5 PUSH0 SWAP1 SLOAD SWAP1 PUSH2 0x100 EXP SWAP1 DIV PUSH1 0xFF AND PUSH2 0x3E5 JUMPI PUSH1 0x40 MLOAD PUSH32 0x8C379A000000000000000000000000000000000000000000000000000000000 DUP2 MSTORE PUSH1 0x4 ADD PUSH2 0x3DC SWAP1 PUSH2 0x1423 JUMP JUMPDEST PUSH1 0x40 MLOAD DUP1 SWAP2 SUB SWAP1 REVERT JUMPDEST DUP6 DUP6 SWAP1 POP DUP9 DUP9 SWAP1 POP EQ PUSH2 0x42D JUMPI PUSH1 0x40 MLOAD PUSH32 0x8C379A000000000000000000000000000000000000000000000000000000000 DUP2 MSTORE PUSH1 0x4 ADD PUSH2 0x424 SWAP1 PUSH2 0x148B JUMP JUMPDEST PUSH1 0x40 MLOAD DUP1 SWAP2 SUB SWAP1 REVERT JUMPDEST DUP4 DUP4 SWAP1 POP DUP9 DUP9 SWAP1 POP EQ PUSH2 0x475 JUMPI PUSH1 0x40 MLOAD PUSH32 0x8C379A000000000000000000000000000000000000000000000000000000000 DUP2 MSTORE PUSH1 0x4 ADD PUSH2 0x46C SWAP1 PUSH2 0x148B JUMP JUMPDEST PUSH1 0x40 MLOAD DUP1 SWAP2 SUB SWAP1 REVERT JUMPDEST DUP2 DUP2 SWAP1 POP DUP9 DUP9 SWAP1 POP EQ PUSH2 0x4BD JUMPI PUSH1 0x40 MLOAD PUSH32 0x8C379A000000000000000000000000000000000000000000000000000000000 DUP2 MSTORE PUSH1 0x4 ADD PUSH2 0x4B4 SWAP1 PUSH2 0x148B JUMP JUMPDEST PUSH1 0x40 MLOAD DUP1 SWAP2 SUB SWAP1 REVERT JUMPDEST PUSH1 0x3 SLOAD DUP9 DUP9 SWAP1 POP PUSH1 0x4 SLOAD PUSH2 0x4D1 SWAP2 SWAP1 PUSH2 0x14D6 JUMP JUMPDEST GT ISZERO PUSH2 0x512 JUMPI PUSH1 0x40 MLOAD PUSH32 0x8C379A000000000000000000000000000000000000000000000000000000000 DUP2 MSTORE PUSH1 0x4 ADD PUSH2 0x509 SWAP1 PUSH2 0x1553 JUMP JUMPDEST PUSH1 0x40 MLOAD DUP1 SWAP2 SUB SWAP1 REVERT JUMPDEST PUSH0 PUSH0 SWAP1 POP JUMPDEST DUP9 DUP9 SWAP1 POP DUP2 LT ISZERO PUSH2 0x7AE JUMPI PUSH0 DUP10 DUP10 DUP4 DUP2 DUP2 LT PUSH2 0x536 JUMPI PUSH2 0x535 PUSH2 0x1571 JUMP JUMPDEST JUMPDEST SWAP1 POP PUSH1 0x20 MUL ADD PUSH1 0x20 DUP2 ADD SWAP1 PUSH2 0x54B SWAP2 SWAP1 PUSH2 0xDE0 JUMP JUMPDEST SWAP1 POP PUSH1 0x6 PUSH0 DUP3 PUSH20 0xFFFFFFFFFFFFFFFFFFFFFFFFFFFFFFFFFFFFFFFF AND PUSH20 0xFFFFFFFFFFFFFFFFFFFFFFFFFFFFFFFFFFFFFFFF AND DUP2 MSTORE PUSH1 0x20 ADD SWAP1 DUP2 MSTORE PUSH1 0x20 ADD PUSH0 KECCAK256 PUSH0 SWAP1 SLOAD SWAP1 PUSH2 0x100 EXP SWAP1 DIV PUSH1 0xFF AND ISZERO PUSH2 0x5A2 JUMPI POP PUSH2 0x7A1 JUMP JUMPDEST PUSH0 DUP2 ADDRESS PUSH0 PUSH1 0x40 MLOAD PUSH1 0x20 ADD PUSH2 0x5B8 SWAP4 SWAP3 SWAP2 SWAP1 PUSH2 0x13A1 JUMP JUMPDEST PUSH1 0x40 MLOAD PUSH1 0x20 DUP2 DUP4 SUB SUB DUP2 MSTORE SWAP1 PUSH1 0x40 MSTORE DUP1 MLOAD SWAP1 PUSH1 0x20 ADD KECCAK256 SWAP1 POP PUSH0 DUP2 PUSH1 0x40 MLOAD PUSH1 0x20 ADD PUSH2 0x5E2 SWAP2 SWAP1 PUSH2 0x1608 JUMP JUMPDEST PUSH1 0x40 MLOAD PUSH1 0x20 DUP2 DUP4 SUB SUB DUP2 MSTORE SWAP1 PUSH1 0x40 MSTORE DUP1 MLOAD SWAP1 PUSH1 0x20 ADD KECCAK256 SWAP1 POP PUSH0 PUSH1 0x1 DUP3 DUP13 DUP13 DUP9 DUP2 DUP2 LT PUSH2 0x611 JUMPI PUSH2 0x610 PUSH2 0x1571 JUMP JUMPDEST JUMPDEST SWAP1 POP PUSH1 0x20 MUL ADD PUSH1 0x20 DUP2 ADD SWAP1 PUSH2 0x626 SWAP2 SWAP1 PUSH2 0x162D JUMP JUMPDEST DUP12 DUP12 DUP10 DUP2 DUP2 LT PUSH2 0x639 JUMPI PUSH2 0x638 PUSH2 0x1571 JUMP JUMPDEST JUMPDEST SWAP1 POP PUSH1 0x20 MUL ADD CALLDATALOAD DUP11 DUP11 DUP11 DUP2 DUP2 LT PUSH2 0x653 JUMPI PUSH2 0x652 PUSH2 0x1571 JUMP JUMPDEST JUMPDEST SWAP1 POP PUSH1 0x20 MUL ADD CALLDATALOAD PUSH1 0x40 MLOAD PUSH0 DUP2 MSTORE PUSH1 0x20 ADD PUSH1 0x40 MSTORE PUSH1 0x40 MLOAD PUSH2 0x676 SWAP5 SWAP4 SWAP3 SWAP2 SWAP1 PUSH2 0x1667 JUMP JUMPDEST PUSH1 0x20 PUSH1 0x40 MLOAD PUSH1 0x20 DUP2 SUB SWAP1 DUP1 DUP5 SUB SWAP1 DUP6 GAS STATICCALL ISZERO DUP1 ISZERO PUSH2 0x696 JUMPI RETURNDATASIZE PUSH0 PUSH0 RETURNDATACOPY RETURNDATASIZE PUSH0 REVERT JUMPDEST POP POP POP PUSH1 0x20 PUSH1 0x40 MLOAD SUB MLOAD SWAP1 POP PUSH1 0x1 PUSH0 SWAP1 SLOAD SWAP1 PUSH2 0x100 EXP SWAP1 DIV PUSH20 0xFFFFFFFFFFFFFFFFFFFFFFFFFFFFFFFFFFFFFFFF AND PUSH20 0xFFFFFFFFFFFFFFFFFFFFFFFFFFFFFFFFFFFFFFFF AND DUP2 PUSH20 0xFFFFFFFFFFFFFFFFFFFFFFFFFFFFFFFFFFFFFFFF AND SUB PUSH2 0x79C JUMPI PUSH1 0x1 PUSH1 0x6 PUSH0 DUP7 PUSH20 0xFFFFFFFFFFFFFFFFFFFFFFFFFFFFFFFFFFFFFFFF AND PUSH20 0xFFFFFFFFFFFFFFFFFFFFFFFFFFFFFFFFFFFFFFFF AND DUP2 MSTORE PUSH1 0x20 ADD SWAP1 DUP2 MSTORE PUSH1 0x20 ADD PUSH0 KECCAK256 PUSH0 PUSH2 0x100 EXP DUP2 SLOAD DUP2 PUSH1 0xFF MUL NOT AND SWAP1 DUP4 ISZERO ISZERO MUL OR SWAP1 SSTORE POP PUSH1 0x4 PUSH0 DUP2 SLOAD DUP1 SWAP3 SWAP2 SWAP1 PUSH2 0x75D SWAP1 PUSH2 0x16AA JUMP JUMPDEST SWAP2 SWAP1 POP SSTORE POP PUSH32 0xC4B6AF862E5EDF86B47BBD28434015DFDDDFC6CE20EA8F6146DF2972B54DB5D5 DUP5 TIMESTAMP PUSH1 0x40 MLOAD PUSH2 0x793 SWAP3 SWAP2 SWAP1 PUSH2 0x16F1 JUMP JUMPDEST PUSH1 0x40 MLOAD DUP1 SWAP2 SUB SWAP1 LOG1 JUMPDEST POP POP POP POP JUMPDEST DUP1 DUP1 PUSH1 0x1 ADD SWAP2 POP POP PUSH2 0x517 JUMP JUMPDEST POP POP POP POP POP POP POP POP POP JUMP JUMPDEST PUSH0 DUP1 SLOAD PUSH2 0x7C5 SWAP1 PUSH2 0x12D5 JUMP JUMPDEST DUP1 PUSH1 0x1F ADD PUSH1 0x20 DUP1 SWAP2 DIV MUL PUSH1 0x20 ADD PUSH1 0x40 MLOAD SWAP1 DUP2 ADD PUSH1 0x40 MSTORE DUP1 SWAP3 SWAP2 SWAP1 DUP2 DUP2 MSTORE PUSH1 0x20 ADD DUP3 DUP1 SLOAD PUSH2 0x7F1 SWAP1 PUSH2 0x12D5 JUMP JUMPDEST DUP1 ISZERO PUSH2 0x83C JUMPI DUP1 PUSH1 0x1F LT PUSH2 0x813 JUMPI PUSH2 0x100 DUP1 DUP4 SLOAD DIV MUL DUP4 MSTORE SWAP2 PUSH1 0x20 ADD SWAP2 PUSH2 0x83C JUMP JUMPDEST DUP3 ADD SWAP2 SWAP1 PUSH0 MSTORE PUSH1 0x20 PUSH0 KECCAK256 SWAP1 JUMPDEST DUP2 SLOAD DUP2 MSTORE SWAP1 PUSH1 0x1 ADD SWAP1 PUSH1 0x20 ADD DUP1 DUP4 GT PUSH2 0x81F JUMPI DUP3 SWAP1 SUB PUSH1 0x1F AND DUP3 ADD SWAP2 JUMPDEST POP POP POP POP POP DUP2 JUMP JUMPDEST PUSH0 PUSH0 DUP6 ADDRESS PUSH0 PUSH1 0x40 MLOAD PUSH1 0x20 ADD PUSH2 0x85B SWAP4 SWAP3 SWAP2 SWAP1 PUSH2 0x13A1 JUMP JUMPDEST PUSH1 0x40 MLOAD PUSH1 0x20 DUP2 DUP4 SUB SUB DUP2 MSTORE SWAP1 PUSH1 0x40 MSTORE DUP1 MLOAD SWAP1 PUSH1 0x20 ADD KECCAK256 SWAP1 POP PUSH0 DUP2 PUSH1 0x40 MLOAD PUSH1 0x20 ADD PUSH2 0x885 SWAP2 SWAP1 PUSH2 0x1608 JUMP JUMPDEST PUSH1 0x40 MLOAD PUSH1 0x20 DUP2 DUP4 SUB SUB DUP2 MSTORE SWAP1 PUSH1 0x40 MSTORE DUP1 MLOAD SWAP1 PUSH1 0x20 ADD KECCAK256 SWAP1 POP PUSH0 PUSH1 0x1 DUP3 DUP9 DUP9 DUP9 PUSH1 0x40 MLOAD PUSH0 DUP2 MSTORE PUSH1 0x20 ADD PUSH1 0x40 MSTORE PUSH1 0x40 MLOAD PUSH2 0x8C0 SWAP5 SWAP4 SWAP3 SWAP2 SWAP1 PUSH2 0x1667 JUMP JUMPDEST PUSH1 0x20 PUSH1 0x40 MLOAD PUSH1 0x20 DUP2 SUB SWAP1 DUP1 DUP5 SUB SWAP1 DUP6 GAS STATICCALL ISZERO DUP1 ISZERO PUSH2 0x8E0 JUMPI RETURNDATASIZE PUSH0 PUSH0 RETURNDATACOPY RETURNDATASIZE PUSH0 REVERT JUMPDEST POP POP POP PUSH1 0x20 PUSH1 0x40 MLOAD SUB MLOAD SWAP1 POP PUSH1 0x1 PUSH0 SWAP1 SLOAD SWAP1 PUSH2 0x100 EXP SWAP1 DIV PUSH20 0xFFFFFFFFFFFFFFFFFFFFFFFFFFFFFFFFFFFFFFFF AND PUSH20 0xFFFFFFFFFFFFFFFFFFFFFFFFFFFFFFFFFFFFFFFF AND DUP2 PUSH20 0xFFFFFFFFFFFFFFFFFFFFFFFFFFFFFFFFFFFFFFFF AND EQ SWAP4 POP POP POP POP SWAP5 SWAP4 POP POP POP POP JUMP JUMPDEST PUSH1 0x5 PUSH0 SWAP1 SLOAD SWAP1 PUSH2 0x100 EXP SWAP1 DIV PUSH1 0xFF AND DUP2 JUMP JUMPDEST PUSH1 0x5 PUSH0 SWAP1 SLOAD SWAP1 PUSH2 0x100 EXP SWAP1 DIV PUSH1 0xFF AND PUSH2 0x9A9 JUMPI PUSH1 0x40 MLOAD PUSH32 0x8C379A000000000000000000000000000000000000000000000000000000000 DUP2 MSTORE PUSH1 0x4 ADD PUSH2 0x9A0 SWAP1 PUSH2 0x1423 JUMP JUMPDEST PUSH1 0x40 MLOAD DUP1 SWAP2 SUB SWAP1 REVERT JUMPDEST PUSH1 0x3 SLOAD PUSH1 0x4 SLOAD LT PUSH2 0x9EF JUMPI PUSH1 0x40 MLOAD PUSH32 0x8C379A000000000000000000000000000000000000000000000000000000000 DUP2 MSTORE PUSH1 0x4 ADD PUSH2 0x9E6 SWAP1 PUSH2 0x1762 JUMP JUMPDEST PUSH1 0x40 MLOAD DUP1 SWAP2 SUB SWAP1 REVERT JUMPDEST PUSH1 0x6 PUSH0 DUP6 PUSH20 0xFFFFFFFFFFFFFFFFFFFFFFFFFFFFFFFFFFFFFFFF AND PUSH20 0xFFFFFFFFFFFFFFFFFFFFFFFFFFFFFFFFFFFFFFFF AND DUP2 MSTORE PUSH1 0x20 ADD SWAP1 DUP2 MSTORE PUSH1 0x20 ADD PUSH0 KECCAK256 PUSH0 SWAP1 SLOAD SWAP1 PUSH2 0x100 EXP SWAP1 DIV PUSH1 0xFF AND ISZERO PUSH2 0xA79 JUMPI PUSH1 0x40 MLOAD PUSH32 0x8C379A000000000000000000000000000000000000000000000000000000000 DUP2 MSTORE PUSH1 0x4 ADD PUSH2 0xA70 SWAP1 PUSH2 0x17CA JUMP JUMPDEST PUSH1 0x40 MLOAD DUP1 SWAP2 SUB SWAP1 REVERT JUMPDEST PUSH0 DUP5 ADDRESS PUSH0 PUSH1 0x40 MLOAD PUSH1 0x20 ADD PUSH2 0xA8F SWAP4 SWAP3 SWAP2 SWAP1 PUSH2 0x13A1 JUMP JUMPDEST PUSH1 0x40 MLOAD PUSH1 0x20 DUP2 DUP4 SUB SUB DUP2 MSTORE SWAP1 PUSH1 0x40 MSTORE DUP1 MLOAD SWAP1 PUSH1 0x20 ADD KECCAK256 SWAP1 POP PUSH0 DUP2 PUSH1 0x40 MLOAD PUSH1 0x20 ADD PUSH2 0xAB9 SWAP2 SWAP1 PUSH2 0x1608 JUMP JUMPDEST PUSH1 0x40 MLOAD PUSH1 0x20 DUP2 DUP4 SUB SUB DUP2 MSTORE SWAP1 PUSH1 0x40 MSTORE DUP1 MLOAD SWAP1 PUSH1 0x20 ADD KECCAK256 SWAP1 POP PUSH0 PUSH1 0x1 DUP3 DUP8 DUP8 DUP8 PUSH1 0x40 MLOAD PUSH0 DUP2 MSTORE PUSH1 0x20 ADD PUSH1 0x40 MSTORE PUSH1 0x40 MLOAD PUSH2 0xAF4 SWAP5 SWAP4 SWAP3 SWAP2 SWAP1 PUSH2 0x1667 JUMP JUMPDEST PUSH1 0x20 PUSH1 0x40 MLOAD PUSH1 0x20 DUP2 SUB SWAP1 DUP1 DUP5 SUB SWAP1 DUP6 GAS STATICCALL ISZERO DUP1 ISZERO PUSH2 0xB14 JUMPI RETURNDATASIZE PUSH0 PUSH0 RETURNDATACOPY RETURNDATASIZE PUSH0 REVERT JUMPDEST POP POP POP PUSH1 0x20 PUSH1 0x40 MLOAD SUB MLOAD SWAP1 POP PUSH1 0x1 PUSH0 SWAP1 SLOAD SWAP1 PUSH2 0x100 EXP SWAP1 DIV PUSH20 0xFFFFFFFFFFFFFFFFFFFFFFFFFFFFFFFFFFFFFFFF AND PUSH20 0xFFFFFFFFFFFFFFFFFFFFFFFFFFFFFFFFFFFFFFFF AND DUP2 PUSH20 0xFFFFFFFFFFFFFFFFFFFFFFFFFFFFFFFFFFFFFFFF AND EQ PUSH2 0xBAF JUMPI PUSH1 0x40 MLOAD PUSH32 0x8C379A000000000000000000000000000000000000000000000000000000000 DUP2 MSTORE PUSH1 0x4 ADD PUSH2 0xBA6 SWAP1 PUSH2 0x1832 JUMP JUMPDEST PUSH1 0x40 MLOAD DUP1 SWAP2 SUB SWAP1 REVERT JUMPDEST PUSH1 0x1 PUSH1 0x6 PUSH0 DUP10 PUSH20 0xFFFFFFFFFFFFFFFFFFFFFFFFFFFFFFFFFFFFFFFF AND PUSH20 0xFFFFFFFFFFFFFFFFFFFFFFFFFFFFFFFFFFFFFFFF AND DUP2 MSTORE PUSH1 0x20 ADD SWAP1 DUP2 MSTORE PUSH1 0x20 ADD PUSH0 KECCAK256 PUSH0 PUSH2 0x100 EXP DUP2 SLOAD DUP2 PUSH1 0xFF MUL NOT AND SWAP1 DUP4 ISZERO ISZERO MUL OR SWAP1 SSTORE POP PUSH1 0x4 PUSH0 DUP2 SLOAD DUP1 SWAP3 SWAP2 SWAP1 PUSH2 0xC16 SWAP1 PUSH2 0x16AA JUMP JUMPDEST SWAP2 SWAP1 POP SSTORE POP PUSH32 0xC4B6AF862E5EDF86B47BBD28434015DFDDDFC6CE20EA8F6146DF2972B54DB5D5 DUP8 TIMESTAMP PUSH1 0x40 MLOAD PUSH2 0xC4C SWAP3 SWAP2 SWAP1 PUSH2 0x16F1 JUMP JUMPDEST PUSH1 0x40 MLOAD DUP1 SWAP2 SUB SWAP1 LOG1 POP POP POP POP POP POP POP JUMP JUMPDEST PUSH1 0x6 PUSH1 0x20 MSTORE DUP1 PUSH0 MSTORE PUSH1 0x40 PUSH0 KECCAK256 PUSH0 SWAP2 POP SLOAD SWAP1 PUSH2 0x100 EXP SWAP1 DIV PUSH1 0xFF AND DUP2 JUMP JUMPDEST PUSH1 0x1 PUSH0 SWAP1 SLOAD SWAP1 PUSH2 0x100 EXP SWAP1 DIV PUSH20 0xFFFFFFFFFFFFFFFFFFFFFFFFFFFFFFFFFFFFFFFF AND PUSH20 0xFFFFFFFFFFFFFFFFFFFFFFFFFFFFFFFFFFFFFFFF AND CALLER PUSH20 0xFFFFFFFFFFFFFFFFFFFFFFFFFFFFFFFFFFFFFFFF AND EQ PUSH2 0xD09 JUMPI PUSH1 0x40 MLOAD PUSH32 0x8C379A000000000000000000000000000000000000000000000000000000000 DUP2 MSTORE PUSH1 0x4 ADD PUSH2 0xD00 SWAP1 PUSH2 0x189A JUMP JUMPDEST PUSH1 0x40 MLOAD DUP1 SWAP2 SUB SWAP1 REVERT JUMPDEST PUSH1 0x5 PUSH0 SWAP1 SLOAD SWAP1 PUSH2 0x100 EXP SWAP1 DIV PUSH1 0xFF AND ISZERO PUSH1 0x5 PUSH0 PUSH2 0x100 EXP DUP2 SLOAD DUP2 PUSH1 0xFF MUL NOT AND SWAP1 DUP4 ISZERO ISZERO MUL OR SWAP1 SSTORE POP PUSH32 0x3B2459D109EA4EBE9F621A02C3324D4B06BCBB121B32094E9210C57575E2F150 PUSH1 0x5 PUSH0 SWAP1 SLOAD SWAP1 PUSH2 0x100 EXP SWAP1 DIV PUSH1 0xFF AND PUSH1 0x40 MLOAD PUSH2 0xD6E SWAP2 SWAP1 PUSH2 0x124A JUMP JUMPDEST PUSH1 0x40 MLOAD DUP1 SWAP2 SUB SWAP1 LOG1 JUMP JUMPDEST PUSH1 0x4 SLOAD DUP2 JUMP JUMPDEST PUSH0 PUSH0 REVERT JUMPDEST PUSH0 PUSH0 REVERT JUMPDEST PUSH0 PUSH20 0xFFFFFFFFFFFFFFFFFFFFFFFFFFFFFFFFFFFFFFFF DUP3 AND SWAP1 POP SWAP2 SWAP1 POP JUMP JUMPDEST PUSH0 PUSH2 0xDAF DUP3 PUSH2 0xD86 JUMP JUMPDEST SWAP1 POP SWAP2 SWAP1 POP JUMP JUMPDEST PUSH2 0xDBF DUP2 PUSH2 0xDA5 JUMP JUMPDEST DUP2 EQ PUSH2 0xDC9 JUMPI PUSH0 PUSH0 REVERT JUMPDEST POP JUMP JUMPDEST PUSH0 DUP2 CALLDATALOAD SWAP1 POP PUSH2 0xDDA DUP2 PUSH2 0xDB6 JUMP JUMPDEST SWAP3 SWAP2 POP POP JUMP JUMPDEST PUSH0 PUSH1 0x20 DUP3 DUP5 SUB SLT ISZERO PUSH2 0xDF5 JUMPI PUSH2 0xDF4 PUSH2 0xD7E JUMP JUMPDEST JUMPDEST PUSH0 PUSH2 0xE02 DUP5 DUP3 DUP6 ADD PUSH2 0xDCC JUMP JUMPDEST SWAP2 POP POP SWAP3 SWAP2 POP POP JUMP JUMPDEST PUSH0 DUP2 SWAP1 POP SWAP2 SWAP1 POP JUMP JUMPDEST PUSH2 0xE1D DUP2 PUSH2 0xE0B JUMP JUMPDEST DUP3 MSTORE POP POP JUMP JUMPDEST PUSH0 PUSH1 0x20 DUP3 ADD SWAP1 POP PUSH2 0xE36 PUSH0 DUP4 ADD DUP5 PUSH2 0xE14 JUMP JUMPDEST SWAP3 SWAP2 POP POP JUMP JUMPDEST PUSH0 DUP2 SWAP1 POP SWAP2 SWAP1 POP JUMP JUMPDEST PUSH2 0xE4E DUP2 PUSH2 0xE3C JUMP JUMPDEST DUP3 MSTORE POP POP JUMP JUMPDEST PUSH0 PUSH1 0x20 DUP3 ADD SWAP1 POP PUSH2 0xE67 PUSH0 DUP4 ADD DUP5 PUSH2 0xE45 JUMP JUMPDEST SWAP3 SWAP2 POP POP JUMP JUMPDEST PUSH2 0xE76 DUP2 PUSH2 0xDA5 JUMP JUMPDEST DUP3 MSTORE POP POP JUMP JUMPDEST PUSH0 PUSH1 0x20 DUP3 ADD SWAP1 POP PUSH2 0xE8F PUSH0 DUP4 ADD DUP5 PUSH2 0xE6D JUMP JUMPDEST SWAP3 SWAP2 POP POP JUMP JUMPDEST PUSH0 DUP2 MLOAD SWAP1 POP SWAP2 SWAP1 POP JUMP JUMPDEST PUSH0 DUP3 DUP3 MSTORE PUSH1 0x20 DUP3 ADD SWAP1 POP SWAP3 SWAP2 POP POP JUMP JUMPDEST DUP3 DUP2 DUP4 MCOPY PUSH0 DUP4 DUP4 ADD MSTORE POP POP POP JUMP JUMPDEST PUSH0 PUSH1 0x1F NOT PUSH1 0x1F DUP4 ADD AND SWAP1 POP SWAP2 SWAP1 POP JUMP JUMPDEST PUSH0 PUSH2 0xED7 DUP3 PUSH2 0xE95 JUMP JUMPDEST PUSH2 0xEE1 DUP2 DUP6 PUSH2 0xE9F JUMP JUMPDEST SWAP4 POP PUSH2 0xEF1 DUP2 DUP6 PUSH1 0x20 DUP7 ADD PUSH2 0xEAF JUMP JUMPDEST PUSH2 0xEFA DUP2 PUSH2 0xEBD JUMP JUMPDEST DUP5 ADD SWAP2 POP POP SWAP3 SWAP2 POP POP JUMP JUMPDEST PUSH0 DUP2 ISZERO ISZERO SWAP1 POP SWAP2 SWAP1 POP JUMP JUMPDEST PUSH2 0xF19 DUP2 PUSH2 0xF05 JUMP JUMPDEST DUP3 MSTORE POP POP JUMP JUMPDEST PUSH0 PUSH1 0xA0 DUP3 ADD SWAP1 POP DUP2 DUP2 SUB PUSH0 DUP4 ADD MSTORE PUSH2 0xF37 DUP2 DUP9 PUSH2 0xECD JUMP JUMPDEST SWAP1 POP PUSH2 0xF46 PUSH1 0x20 DUP4 ADD DUP8 PUSH2 0xE45 JUMP JUMPDEST PUSH2 0xF53 PUSH1 0x40 DUP4 ADD DUP7 PUSH2 0xE45 JUMP JUMPDEST PUSH2 0xF60 PUSH1 0x60 DUP4 ADD DUP6 PUSH2 0xE45 JUMP JUMPDEST PUSH2 0xF6D PUSH1 0x80 DUP4 ADD DUP5 PUSH2 0xF10 JUMP JUMPDEST SWAP7 SWAP6 POP POP POP POP POP POP JUMP JUMPDEST PUSH0 PUSH0 REVERT JUMPDEST PUSH0 PUSH0 REVERT JUMPDEST PUSH0 PUSH0 REVERT JUMPDEST PUSH0 PUSH0 DUP4 PUSH1 0x1F DUP5 ADD SLT PUSH2 0xF98 JUMPI PUSH2 0xF97 PUSH2 0xF77 JUMP JUMPDEST JUMPDEST DUP3 CALLDATALOAD SWAP1 POP PUSH8 0xFFFFFFFFFFFFFFFF DUP2 GT ISZERO PUSH2 0xFB5 JUMPI PUSH2 0xFB4 PUSH2 0xF7B JUMP JUMPDEST JUMPDEST PUSH1 0x20 DUP4 ADD SWAP2 POP DUP4 PUSH1 0x20 DUP3 MUL DUP4 ADD GT ISZERO PUSH2 0xFD1 JUMPI PUSH2 0xFD0 PUSH2 0xF7F JUMP JUMPDEST JUMPDEST SWAP3 POP SWAP3 SWAP1 POP JUMP JUMPDEST PUSH0 PUSH0 DUP4 PUSH1 0x1F DUP5 ADD SLT PUSH2 0xFED JUMPI PUSH2 0xFEC PUSH2 0xF77 JUMP JUMPDEST JUMPDEST DUP3 CALLDATALOAD SWAP1 POP PUSH8 0xFFFFFFFFFFFFFFFF DUP2 GT ISZERO PUSH2 0x100A JUMPI PUSH2 0x1009 PUSH2 0xF7B JUMP JUMPDEST JUMPDEST PUSH1 0x20 DUP4 ADD SWAP2 POP DUP4 PUSH1 0x20 DUP3 MUL DUP4 ADD GT ISZERO PUSH2 0x1026 JUMPI PUSH2 0x1025 PUSH2 0xF7F JUMP JUMPDEST JUMPDEST SWAP3 POP SWAP3 SWAP1 POP JUMP JUMPDEST PUSH0 PUSH0 DUP4 PUSH1 0x1F DUP5 ADD SLT PUSH2 0x1042 JUMPI PUSH2 0x1041 PUSH2 0xF77 JUMP JUMPDEST JUMPDEST DUP3 CALLDATALOAD SWAP1 POP PUSH8 0xFFFFFFFFFFFFFFFF DUP2 GT ISZERO PUSH2 0x105F JUMPI PUSH2 0x105E PUSH2 0xF7B JUMP JUMPDEST JUMPDEST PUSH1 0x20 DUP4 ADD SWAP2 POP DUP4 PUSH1 0x20 DUP3 MUL DUP4 ADD GT ISZERO PUSH2 0x107B JUMPI PUSH2 0x107A PUSH2 0xF7F JUMP JUMPDEST JUMPDEST SWAP3 POP SWAP3 SWAP1 POP JUMP JUMPDEST PUSH0 PUSH0 PUSH0 PUSH0 PUSH0 PUSH0 PUSH0 PUSH0 PUSH1 0x80 DUP10 DUP12 SUB SLT ISZERO PUSH2 0x109E JUMPI PUSH2 0x109D PUSH2 0xD7E JUMP JUMPDEST JUMPDEST PUSH0 DUP10 ADD CALLDATALOAD PUSH8 0xFFFFFFFFFFFFFFFF DUP2 GT ISZERO PUSH2 0x10BB JUMPI PUSH2 0x10BA PUSH2 0xD82 JUMP JUMPDEST JUMPDEST PUSH2 0x10C7 DUP12 DUP3 DUP13 ADD PUSH2 0xF83 JUMP JUMPDEST SWAP9 POP SWAP9 POP POP PUSH1 0x20 DUP10 ADD CALLDATALOAD PUSH8 0xFFFFFFFFFFFFFFFF DUP2 GT ISZERO PUSH2 0x10EA JUMPI PUSH2 0x10E9 PUSH2 0xD82 JUMP JUMPDEST JUMPDEST PUSH2 0x10F6 DUP12 DUP3 DUP13 ADD PUSH2 0xFD8 JUMP JUMPDEST SWAP7 POP SWAP7 POP POP PUSH1 0x40 DUP10 ADD CALLDATALOAD PUSH8 0xFFFFFFFFFFFFFFFF DUP2 GT ISZERO PUSH2 0x1119 JUMPI PUSH2 0x1118 PUSH2 0xD82 JUMP JUMPDEST JUMPDEST PUSH2 0x1125 DUP12 DUP3 DUP13 ADD PUSH2 0x102D JUMP JUMPDEST SWAP5 POP SWAP5 POP POP PUSH1 0x60 DUP10 ADD CALLDATALOAD PUSH8 0xFFFFFFFFFFFFFFFF DUP2 GT ISZERO PUSH2 0x1148 JUMPI PUSH2 0x1147 PUSH2 0xD82 JUMP JUMPDEST JUMPDEST PUSH2 0x1154 DUP12 DUP3 DUP13 ADD PUSH2 0x102D JUMP JUMPDEST SWAP3 POP SWAP3 POP POP SWAP3 SWAP6 SWAP9 POP SWAP3 SWAP6 SWAP9 SWAP1 SWAP4 SWAP7 POP JUMP JUMPDEST PUSH0 PUSH1 0x20 DUP3 ADD SWAP1 POP DUP2 DUP2 SUB PUSH0 DUP4 ADD MSTORE PUSH2 0x117E DUP2 DUP5 PUSH2 0xECD JUMP JUMPDEST SWAP1 POP SWAP3 SWAP2 POP POP JUMP JUMPDEST PUSH0 PUSH1 0xFF DUP3 AND SWAP1 POP SWAP2 SWAP1 POP JUMP JUMPDEST PUSH2 0x119B DUP2 PUSH2 0x1186 JUMP JUMPDEST DUP2 EQ PUSH2 0x11A5 JUMPI PUSH0 PUSH0 REVERT JUMPDEST POP JUMP JUMPDEST PUSH0 DUP2 CALLDATALOAD SWAP1 POP PUSH2 0x11B6 DUP2 PUSH2 0x1192 JUMP JUMPDEST SWAP3 SWAP2 POP POP JUMP JUMPDEST PUSH2 0x11C5 DUP2 PUSH2 0xE0B JUMP JUMPDEST DUP2 EQ PUSH2 0x11CF JUMPI PUSH0 PUSH0 REVERT JUMPDEST POP JUMP JUMPDEST PUSH0 DUP2 CALLDATALOAD SWAP1 POP PUSH2 0x11E0 DUP2 PUSH2 0x11BC JUMP JUMPDEST SWAP3 SWAP2 POP POP JUMP JUMPDEST PUSH0 PUSH0 PUSH0 PUSH0 PUSH1 0x80 DUP6 DUP8 SUB SLT ISZERO PUSH2 0x11FE JUMPI PUSH2 0x11FD PUSH2 0xD7E JUMP JUMPDEST JUMPDEST PUSH0 PUSH2 0x120B DUP8 DUP3 DUP9 ADD PUSH2 0xDCC JUMP JUMPDEST SWAP5 POP POP PUSH1 0x20 PUSH2 0x121C DUP8 DUP3 DUP9 ADD PUSH2 0x11A8 JUMP JUMPDEST SWAP4 POP POP PUSH1 0x40 PUSH2 0x122D DUP8 DUP3 DUP9 ADD PUSH2 0x11D2 JUMP JUMPDEST SWAP3 POP POP PUSH1 0x60 PUSH2 0x123E DUP8 DUP3 DUP9 ADD PUSH2 0x11D2 JUMP JUMPDEST SWAP2 POP POP SWAP3 SWAP6 SWAP2 SWAP5 POP SWAP3 POP JUMP JUMPDEST PUSH0 PUSH1 0x20 DUP3 ADD SWAP1 POP PUSH2 0x125D PUSH0 DUP4 ADD DUP5 PUSH2 0xF10 JUMP JUMPDEST SWAP3 SWAP2 POP POP JUMP JUMPDEST PUSH0 DUP2 PUSH1 0x60 SHL SWAP1 POP SWAP2 SWAP1 POP JUMP JUMPDEST PUSH0 PUSH2 0x1279 DUP3 PUSH2 0x1263 JUMP JUMPDEST SWAP1 POP SWAP2 SWAP1 POP JUMP JUMPDEST PUSH0 PUSH2 0x128A DUP3 PUSH2 0x126F JUMP JUMPDEST SWAP1 POP SWAP2 SWAP1 POP JUMP JUMPDEST PUSH2 0x12A2 PUSH2 0x129D DUP3 PUSH2 0xDA5 JUMP JUMPDEST PUSH2 0x1280 JUMP JUMPDEST DUP3 MSTORE POP POP JUMP JUMPDEST PUSH32 0x4E487B7100000000000000000000000000000000000000000000000000000000 PUSH0 MSTORE PUSH1 0x22 PUSH1 0x4 MSTORE PUSH1 0x24 PUSH0 REVERT JUMPDEST PUSH0 PUSH1 0x2 DUP3 DIV SWAP1 POP PUSH1 0x1 DUP3 AND DUP1 PUSH2 0x12EC JUMPI PUSH1 0x7F DUP3 AND SWAP2 POP JUMPDEST PUSH1 0x20 DUP3 LT DUP2 SUB PUSH2 0x12FF JUMPI PUSH2 0x12FE PUSH2 0x12A8 JUMP JUMPDEST JUMPDEST POP SWAP2 SWAP1 POP JUMP JUMPDEST PUSH0 DUP2 SWAP1 POP SWAP3 SWAP2 POP POP JUMP JUMPDEST PUSH0 DUP2 SWAP1 POP DUP2 PUSH0 MSTORE PUSH1 0x20 PUSH0 KECCAK256 SWAP1 POP SWAP2 SWAP1 POP JUMP JUMPDEST PUSH0 DUP2 SLOAD PUSH2 0x132D DUP2 PUSH2 0x12D5 JUMP JUMPDEST PUSH2 0x1337 DUP2 DUP7 PUSH2 0x1305 JUMP JUMPDEST SWAP5 POP PUSH1 0x1 DUP3 AND PUSH0 DUP2 EQ PUSH2 0x1351 JUMPI PUSH1 0x1 DUP2 EQ PUSH2 0x1366 JUMPI PUSH2 0x1398 JUMP JUMPDEST PUSH1 0xFF NOT DUP4 AND DUP7 MSTORE DUP2 ISZERO ISZERO DUP3 MUL DUP7 ADD SWAP4 POP PUSH2 0x1398 JUMP JUMPDEST PUSH2 0x136F DUP6 PUSH2 0x130F JUMP JUMPDEST PUSH0 JUMPDEST DUP4 DUP2 LT ISZERO PUSH2 0x1390 JUMPI DUP2 SLOAD DUP2 DUP10 ADD MSTORE PUSH1 0x1 DUP3 ADD SWAP2 POP PUSH1 0x20 DUP2 ADD SWAP1 POP PUSH2 0x1371 JUMP JUMPDEST DUP4 DUP9 ADD SWAP6 POP POP POP JUMPDEST POP POP POP SWAP3 SWAP2 POP POP JUMP JUMPDEST PUSH0 PUSH2 0x13AC DUP3 DUP7 PUSH2 0x1291 JUMP JUMPDEST PUSH1 0x14 DUP3 ADD SWAP2 POP PUSH2 0x13BC DUP3 DUP6 PUSH2 0x1291 JUMP JUMPDEST PUSH1 0x14 DUP3 ADD SWAP2 POP PUSH2 0x13CC DUP3 DUP5 PUSH2 0x1321 JUMP JUMPDEST SWAP2 POP DUP2 SWAP1 POP SWAP5 SWAP4 POP POP POP POP JUMP JUMPDEST PUSH32 0x4576656E74206E6F742061637469766500000000000000000000000000000000 PUSH0 DUP3 ADD MSTORE POP JUMP JUMPDEST PUSH0 PUSH2 0x140D PUSH1 0x10 DUP4 PUSH2 0xE9F JUMP JUMPDEST SWAP2 POP PUSH2 0x1418 DUP3 PUSH2 0x13D9 JUMP JUMPDEST PUSH1 0x20 DUP3 ADD SWAP1 POP SWAP2 SWAP1 POP JUMP JUMPDEST PUSH0 PUSH1 0x20 DUP3 ADD SWAP1 POP DUP2 DUP2 SUB PUSH0 DUP4 ADD MSTORE PUSH2 0x143A DUP2 PUSH2 0x1401 JUMP JUMPDEST SWAP1 POP SWAP2 SWAP1 POP JUMP JUMPDEST PUSH32 0x4172726179206C656E677468206D69736D617463680000000000000000000000 PUSH0 DUP3 ADD MSTORE POP JUMP JUMPDEST PUSH0 PUSH2 0x1475 PUSH1 0x15 DUP4 PUSH2 0xE9F JUMP JUMPDEST SWAP2 POP PUSH2 0x1480 DUP3 PUSH2 0x1441 JUMP JUMPDEST PUSH1 0x20 DUP3 ADD SWAP1 POP SWAP2 SWAP1 POP JUMP JUMPDEST PUSH0 PUSH1 0x20 DUP3 ADD SWAP1 POP DUP2 DUP2 SUB PUSH0 DUP4 ADD MSTORE PUSH2 0x14A2 DUP2 PUSH2 0x1469 JUMP JUMPDEST SWAP1 POP SWAP2 SWAP1 POP JUMP JUMPDEST PUSH32 0x4E487B7100000000000000000000000000000000000000000000000000000000 PUSH0 MSTORE PUSH1 0x11 PUSH1 0x4 MSTORE PUSH1 0x24 PUSH0 REVERT JUMPDEST PUSH0 PUSH2 0x14E0 DUP3 PUSH2 0xE3C JUMP JUMPDEST SWAP2 POP PUSH2 0x14EB DUP4 PUSH2 0xE3C JUMP JUMPDEST SWAP3 POP DUP3 DUP3 ADD SWAP1 POP DUP1 DUP3 GT ISZERO PUSH2 0x1503 JUMPI PUSH2 0x1502 PUSH2 0x14A9 JUMP JUMPDEST JUMPDEST SWAP3 SWAP2 POP POP JUMP JUMPDEST PUSH32 0x576F756C64206578636565642063617061636974790000000000000000000000 PUSH0 DUP3 ADD MSTORE POP JUMP JUMPDEST PUSH0 PUSH2 0x153D PUSH1 0x15 DUP4 PUSH2 0xE9F JUMP JUMPDEST SWAP2 POP PUSH2 0x1548 DUP3 PUSH2 0x1509 JUMP JUMPDEST PUSH1 0x20 DUP3 ADD SWAP1 POP SWAP2 SWAP1 POP JUMP JUMPDEST PUSH0 PUSH1 0x20 DUP3 ADD SWAP1 POP DUP2 DUP2 SUB PUSH0 DUP4 ADD MSTORE PUSH2 0x156A DUP2 PUSH2 0x1531 JUMP JUMPDEST SWAP1 POP SWAP2 SWAP1 POP JUMP JUMPDEST PUSH32 0x4E487B7100000000000000000000000000000000000000000000000000000000 PUSH0 MSTORE PUSH1 0x32 PUSH1 0x4 MSTORE PUSH1 0x24 PUSH0 REVERT JUMPDEST PUSH32 0x19457468657265756D205369676E6564204D6573736167653A0A333200000000 PUSH0 DUP3 ADD MSTORE POP JUMP JUMPDEST PUSH0 PUSH2 0x15D2 PUSH1 0x1C DUP4 PUSH2 0x1305 JUMP JUMPDEST SWAP2 POP PUSH2 0x15DD DUP3 PUSH2 0x159E JUMP JUMPDEST PUSH1 0x1C DUP3 ADD SWAP1 POP SWAP2 SWAP1 POP JUMP JUMPDEST PUSH0 DUP2 SWAP1 POP SWAP2 SWAP1 POP JUMP JUMPDEST PUSH2 0x1602 PUSH2 0x15FD DUP3 PUSH2 0xE0B JUMP JUMPDEST PUSH2 0x15E8 JUMP JUMPDEST DUP3 MSTORE POP POP JUMP JUMPDEST PUSH0 PUSH2 0x1612 DUP3 PUSH2 0x15C6 JUMP JUMPDEST SWAP2 POP PUSH2 0x161E DUP3 DUP5 PUSH2 0x15F1 JUMP JUMPDEST PUSH1 0x20 DUP3 ADD SWAP2 POP DUP2 SWAP1 POP SWAP3 SWAP2 POP POP JUMP JUMPDEST PUSH0 PUSH1 0x20 DUP3 DUP5 SUB SLT ISZERO PUSH2 0x1642 JUMPI PUSH2 0x1641 PUSH2 0xD7E JUMP JUMPDEST JUMPDEST PUSH0 PUSH2 0x164F DUP5 DUP3 DUP6 ADD PUSH2 0x11A8 JUMP JUMPDEST SWAP2 POP POP SWAP3 SWAP2 POP POP JUMP JUMPDEST PUSH2 0x1661 DUP2 PUSH2 0x1186 JUMP JUMPDEST DUP3 MSTORE POP POP JUMP JUMPDEST PUSH0 PUSH1 0x80 DUP3 ADD SWAP1 POP PUSH2 0x167A PUSH0 DUP4 ADD DUP8 PUSH2 0xE14 JUMP JUMPDEST PUSH2 0x1687 PUSH1 0x20 DUP4 ADD DUP7 PUSH2 0x1658 JUMP JUMPDEST PUSH2 0x1694 PUSH1 0x40 DUP4 ADD DUP6 PUSH2 0xE14 JUMP JUMPDEST PUSH2 0x16A1 PUSH1 0x60 DUP4 ADD DUP5 PUSH2 0xE14 JUMP JUMPDEST SWAP6 SWAP5 POP POP POP POP POP JUMP JUMPDEST PUSH0 PUSH2 0x16B4 DUP3 PUSH2 0xE3C JUMP JUMPDEST SWAP2 POP PUSH32 0xFFFFFFFFFFFFFFFFFFFFFFFFFFFFFFFFFFFFFFFFFFFFFFFFFFFFFFFFFFFFFFFF DUP3 SUB PUSH2 0x16E6 JUMPI PUSH2 0x16E5 PUSH2 0x14A9 JUMP JUMPDEST JUMPDEST PUSH1 0x1 DUP3 ADD SWAP1 POP SWAP2 SWAP1 POP JUMP JUMPDEST PUSH0 PUSH1 0x40 DUP3 ADD SWAP1 POP PUSH2 0x1704 PUSH0 DUP4 ADD DUP6 PUSH2 0xE6D JUMP JUMPDEST PUSH2 0x1711 PUSH1 0x20 DUP4 ADD DUP5 PUSH2 0xE45 JUMP JUMPDEST SWAP4 SWAP3 POP POP POP JUMP JUMPDEST PUSH32 0x4576656E742066756C6C00000000000000000000000000000000000000000000 PUSH0 DUP3 ADD MSTORE POP JUMP JUMPDEST PUSH0 PUSH2 0x174C PUSH1 0xA DUP4 PUSH2 0xE9F JUMP JUMPDEST SWAP2 POP PUSH2 0x1757 DUP3 PUSH2 0x1718 JUMP JUMPDEST PUSH1 0x20 DUP3 ADD SWAP1 POP SWAP2 SWAP1 POP JUMP JUMPDEST PUSH0 PUSH1 0x20 DUP3 ADD SWAP1 POP DUP2 DUP2 SUB PUSH0 DUP4 ADD MSTORE PUSH2 0x1779 DUP2 PUSH2 0x1740 JUMP JUMPDEST SWAP1 POP SWAP2 SWAP1 POP JUMP JUMPDEST PUSH32 0x416C726561647920636865636B656420696E0000000000000000000000000000 PUSH0 DUP3 ADD MSTORE POP JUMP JUMPDEST PUSH0 PUSH2 0x17B4 PUSH1 0x12 DUP4 PUSH2 0xE9F JUMP JUMPDEST SWAP2 POP PUSH2 0x17BF DUP3 PUSH2 0x1780 JUMP JUMPDEST PUSH1 0x20 DUP3 ADD SWAP1 POP SWAP2 SWAP1 POP JUMP JUMPDEST PUSH0 PUSH1 0x20 DUP3 ADD SWAP1 POP DUP2 DUP2 SUB PUSH0 DUP4 ADD MSTORE PUSH2 0x17E1 DUP2 PUSH2 0x17A8 JUMP JUMPDEST SWAP1 POP SWAP2 SWAP1 POP JUMP JUMPDEST PUSH32 0x496E76616C6964207369676E6174757265000000000000000000000000000000 PUSH0 DUP3 ADD MSTORE POP JUMP JUMPDEST PUSH0 PUSH2 0x181C PUSH1 0x11 DUP4 PUSH2 0xE9F JUMP JUMPDEST SWAP2 POP PUSH2 0x1827 DUP3 PUSH2 0x17E8 JUMP JUMPDEST PUSH1 0x20 DUP3 ADD SWAP1 POP SWAP2 SWAP1 POP JUMP JUMPDEST PUSH0 PUSH1 0x20 DUP3 ADD SWAP1 POP DUP2 DUP2 SUB PUSH0 DUP4 ADD MSTORE PUSH2 0x1849 DUP2 PUSH2 0x1810 JUMP JUMPDEST SWAP1 POP SWAP2 SWAP1 POP JUMP JUMPDEST PUSH32 0x4F6E6C79206F7267616E697A6572000000000000000000000000000000000000 PUSH0 DUP3 ADD MSTORE POP JUMP JUMPDEST PUSH0 PUSH2 0x1884 PUSH1 0xE DUP4 PUSH2 0xE9F JUMP JUMPDEST SWAP2 POP PUSH2 0x188F DUP3 PUSH2 0x1850 JUMP JUMPDEST PUSH1 0x20 DUP3 ADD SWAP1 POP SWAP2 SWAP1 POP JUMP JUMPDEST PUSH0 PUSH1 0x20 DUP3 ADD SWAP1 POP DUP2 DUP2 SUB PUSH0 DUP4 ADD MSTORE PUSH2 0x18B1 DUP2 PUSH2 0x1878 JUMP JUMPDEST SWAP1 POP SWAP2 SWAP1 POP JUMP INVALID LOG2 PUSH5 0x6970667358 0x22 SLT KECCAK256 0xC4 JUMPF 0xA1C1 0x2C DIV EXTCODESIZE 0xAA 0xA9 SWAP16 0xAE EXTSTATICCALL 0x27 CALLVALUE 0xB8 BALANCE EOFCREATE 0x22 0xD8 DIV PUSH21 0xF2A4E1E05143FE0B36583064736F6C634300081E00 CALLER "
				},
				"gasEstimates": {
					"creation": {
						"codeDepositCost": "1276400",
						"executionCost": "infinite",
						"totalCost": "infinite"
					},
					"external": {
						"attendeeCount()": "2513",
						"batchCheckIn(address[],uint8[],bytes32[],bytes32[])": "infinite",
						"checkInWithSignature(address,uint8,bytes32,bytes32)": "infinite",
						"eventDate()": "2448",
						"eventName()": "infinite",
						"getEventInfo()": "infinite",
						"getMessageHash(address)": "infinite",
						"hasAttended(address)": "2877",
						"isEventActive()": "2533",
						"maxAttendees()": "2470",
						"organizer()": "2575",
						"toggleEventStatus()": "32111",
						"verifySignature(address,uint8,bytes32,bytes32)": "infinite"
					}
				},
				"methodIdentifiers": {
					"attendeeCount()": "f1adda47",
					"batchCheckIn(address[],uint8[],bytes32[],bytes32[])": "6e80adcd",
					"checkInWithSignature(address,uint8,bytes32,bytes32)": "d4e8c2ae",
					"eventDate()": "4bfbe5df",
					"eventName()": "8043c9c0",
					"getEventInfo()": "6d00fa68",
					"getMessageHash(address)": "1f5ac1b2",
					"hasAttended(address)": "d866b0b6",
					"isEventActive()": "cc54bcf2",
					"maxAttendees()": "5f3d7fa1",
					"organizer()": "61203265",
					"toggleEventStatus()": "e4b8ce62",
					"verifySignature(address,uint8,bytes32,bytes32)": "8a91ac1d"
				}
			},
			"storageLayout": {
				"storage": [
					{
						"astId": 3,
						"contract": "submissions/Zora/SignThis.sol:SignThis",
						"label": "eventName",
						"offset": 0,
						"slot": "0",
						"type": "t_string_storage"
					},
					{
						"astId": 5,
						"contract": "submissions/Zora/SignThis.sol:SignThis",
						"label": "organizer",
						"offset": 0,
						"slot": "1",
						"type": "t_address"
					},
					{
						"astId": 7,
						"contract": "submissions/Zora/SignThis.sol:SignThis",
						"label": "eventDate",
						"offset": 0,
						"slot": "2",
						"type": "t_uint256"
					},
					{
						"astId": 9,
						"contract": "submissions/Zora/SignThis.sol:SignThis",
						"label": "maxAttendees",
						"offset": 0,
						"slot": "3",
						"type": "t_uint256"
					},
					{
						"astId": 11,
						"contract": "submissions/Zora/SignThis.sol:SignThis",
						"label": "attendeeCount",
						"offset": 0,
						"slot": "4",
						"type": "t_uint256"
					},
					{
						"astId": 13,
						"contract": "submissions/Zora/SignThis.sol:SignThis",
						"label": "isEventActive",
						"offset": 0,
						"slot": "5",
						"type": "t_bool"
					},
					{
						"astId": 17,
						"contract": "submissions/Zora/SignThis.sol:SignThis",
						"label": "hasAttended",
						"offset": 0,
						"slot": "6",
						"type": "t_mapping(t_address,t_bool)"
					}
				],
				"types": {
					"t_address": {
						"encoding": "inplace",
						"label": "address",
						"numberOfBytes": "20"
					},
					"t_bool": {
						"encoding": "inplace",
						"label": "bool",
						"numberOfBytes": "1"
					},
					"t_mapping(t_address,t_bool)": {
						"encoding": "mapping",
						"key": "t_address",
						"label": "mapping(address => bool)",
						"numberOfBytes": "32",
						"value": "t_bool"
					},
					"t_string_storage": {
						"encoding": "bytes",
						"label": "string",
						"numberOfBytes": "32"
					},
					"t_uint256": {
						"encoding": "inplace",
						"label": "uint256",
						"numberOfBytes": "32"
					}
				}
			},
			"userdoc": {
				"kind": "user",
				"methods": {},
				"version": 1
			}
		}
	}
}