{
	"submissions/Zora/Day27YieldFarming.sol": {
		"YieldFarming": {
			"abi": [
				{
					"inputs": [
						{
							"internalType": "address",
							"name": "_stakingToken",
							"type": "address"
						},
						{
							"internalType": "address",
							"name": "_rewardToken",
							"type": "address"
						},
						{
							"internalType": "uint256",
							"name": "_rewardRatePerSecond",
							"type": "uint256"
						}
					],
					"stateMutability": "nonpayable",
					"type": "constructor"
				},
				{
					"anonymous": false,
					"inputs": [
						{
							"indexed": true,
							"internalType": "address",
							"name": "user",
							"type": "address"
						},
						{
							"indexed": false,
							"internalType": "uint256",
							"name": "amount",
							"type": "uint256"
						}
					],
					"name": "EmergencyWithdraw",
					"type": "event"
				},
				{
					"anonymous": false,
					"inputs": [
						{
							"indexed": true,
							"internalType": "address",
							"name": "user",
							"type": "address"
						},
						{
							"indexed": false,
							"internalType": "uint256",
							"name": "amount",
							"type": "uint256"
						}
					],
					"name": "RewardClaimed",
					"type": "event"
				},
				{
					"anonymous": false,
					"inputs": [
						{
							"indexed": true,
							"internalType": "address",
							"name": "owner",
							"type": "address"
						},
						{
							"indexed": false,
							"internalType": "uint256",
							"name": "amount",
							"type": "uint256"
						}
					],
					"name": "RewardRefilled",
					"type": "event"
				},
				{
					"anonymous": false,
					"inputs": [
						{
							"indexed": true,
							"internalType": "address",
							"name": "user",
							"type": "address"
						},
						{
							"indexed": false,
							"internalType": "uint256",
							"name": "amount",
							"type": "uint256"
						}
					],
					"name": "Staked",
					"type": "event"
				},
				{
					"anonymous": false,
					"inputs": [
						{
							"indexed": true,
							"internalType": "address",
							"name": "user",
							"type": "address"
						},
						{
							"indexed": false,
							"internalType": "uint256",
							"name": "amount",
							"type": "uint256"
						}
					],
					"name": "Unstaked",
					"type": "event"
				},
				{
					"inputs": [],
					"name": "claimRewards",
					"outputs": [],
					"stateMutability": "nonpayable",
					"type": "function"
				},
				{
					"inputs": [],
					"name": "emergencyWithdraw",
					"outputs": [],
					"stateMutability": "nonpayable",
					"type": "function"
				},
				{
					"inputs": [],
					"name": "getStakingTokenDecimals",
					"outputs": [
						{
							"internalType": "uint8",
							"name": "",
							"type": "uint8"
						}
					],
					"stateMutability": "view",
					"type": "function"
				},
				{
					"inputs": [],
					"name": "owner",
					"outputs": [
						{
							"internalType": "address",
							"name": "",
							"type": "address"
						}
					],
					"stateMutability": "view",
					"type": "function"
				},
				{
					"inputs": [
						{
							"internalType": "address",
							"name": "user",
							"type": "address"
						}
					],
					"name": "pendingRewards",
					"outputs": [
						{
							"internalType": "uint256",
							"name": "",
							"type": "uint256"
						}
					],
					"stateMutability": "view",
					"type": "function"
				},
				{
					"inputs": [
						{
							"internalType": "uint256",
							"name": "amount",
							"type": "uint256"
						}
					],
					"name": "refillRewards",
					"outputs": [],
					"stateMutability": "nonpayable",
					"type": "function"
				},
				{
					"inputs": [],
					"name": "rewardRatePerSecond",
					"outputs": [
						{
							"internalType": "uint256",
							"name": "",
							"type": "uint256"
						}
					],
					"stateMutability": "view",
					"type": "function"
				},
				{
					"inputs": [],
					"name": "rewardToken",
					"outputs": [
						{
							"internalType": "contract IERC20",
							"name": "",
							"type": "address"
						}
					],
					"stateMutability": "view",
					"type": "function"
				},
				{
					"inputs": [
						{
							"internalType": "uint256",
							"name": "amount",
							"type": "uint256"
						}
					],
					"name": "stake",
					"outputs": [],
					"stateMutability": "nonpayable",
					"type": "function"
				},
				{
					"inputs": [
						{
							"internalType": "address",
							"name": "",
							"type": "address"
						}
					],
					"name": "stakers",
					"outputs": [
						{
							"internalType": "uint256",
							"name": "stakedAmount",
							"type": "uint256"
						},
						{
							"internalType": "uint256",
							"name": "rewardDebt",
							"type": "uint256"
						},
						{
							"internalType": "uint256",
							"name": "lastUpdate",
							"type": "uint256"
						}
					],
					"stateMutability": "view",
					"type": "function"
				},
				{
					"inputs": [],
					"name": "stakingToken",
					"outputs": [
						{
							"internalType": "contract IERC20",
							"name": "",
							"type": "address"
						}
					],
					"stateMutability": "view",
					"type": "function"
				},
				{
					"inputs": [],
					"name": "stakingTokenDecimals",
					"outputs": [
						{
							"internalType": "uint8",
							"name": "",
							"type": "uint8"
						}
					],
					"stateMutability": "view",
					"type": "function"
				},
				{
					"inputs": [
						{
							"internalType": "uint256",
							"name": "amount",
							"type": "uint256"
						}
					],
					"name": "unstake",
					"outputs": [],
					"stateMutability": "nonpayable",
					"type": "function"
				}
			],
			"devdoc": {
				"kind": "dev",
				"methods": {},
				"title": "收益耕作平台     质押代币以随时间赚取奖励,可选紧急提取和管理员补充",
				"version": 1
			},
			"evm": {
				"assembly": "    /* \"submissions/Zora/Day27YieldFarming.sol\":720:6061  contract YieldFarming is ReentrancyGuard {... */\n  mstore(0x40, 0x80)\n    /* \"submissions/Zora/Day27YieldFarming.sol\":1808:2464  constructor(... */\n  callvalue\n  dup1\n  iszero\n  tag_1\n  jumpi\n  revert(0x00, 0x00)\ntag_1:\n  pop\n  mload(0x40)\n  sub(codesize, bytecodeSize)\n  dup1\n  bytecodeSize\n  dup4\n  codecopy\n  dup2\n  dup2\n  add\n  0x40\n  mstore\n  dup2\n  add\n  swap1\n  tag_2\n  swap2\n  swap1\n  tag_3\n  jump\t// in\ntag_2:\n    /* \"@openzeppelin/contracts/security/ReentrancyGuard.sol\":1716:1717  1 */\n  0x01\n    /* \"@openzeppelin/contracts/security/ReentrancyGuard.sol\":1821:1828  _status */\n  0x00\n    /* \"@openzeppelin/contracts/security/ReentrancyGuard.sol\":1821:1843  _status = _NOT_ENTERED */\n  dup2\n  swap1\n  sstore\n  pop\n    /* \"submissions/Zora/Day27YieldFarming.sol\":1992:2005  _stakingToken */\n  dup3\n    /* \"submissions/Zora/Day27YieldFarming.sol\":1970:1982  stakingToken */\n  0x01\n  0x00\n    /* \"submissions/Zora/Day27YieldFarming.sol\":1970:2006  stakingToken = IERC20(_stakingToken) */\n  0x0100\n  exp\n  dup2\n  sload\n  dup2\n  0xffffffffffffffffffffffffffffffffffffffff\n  mul\n  not\n  and\n  swap1\n  dup4\n  0xffffffffffffffffffffffffffffffffffffffff\n  and\n  mul\n  or\n  swap1\n  sstore\n  pop\n    /* \"submissions/Zora/Day27YieldFarming.sol\":2038:2050  _rewardToken */\n  dup2\n    /* \"submissions/Zora/Day27YieldFarming.sol\":2017:2028  rewardToken */\n  0x02\n  0x00\n    /* \"submissions/Zora/Day27YieldFarming.sol\":2017:2051  rewardToken = IERC20(_rewardToken) */\n  0x0100\n  exp\n  dup2\n  sload\n  dup2\n  0xffffffffffffffffffffffffffffffffffffffff\n  mul\n  not\n  and\n  swap1\n  dup4\n  0xffffffffffffffffffffffffffffffffffffffff\n  and\n  mul\n  or\n  swap1\n  sstore\n  pop\n    /* \"submissions/Zora/Day27YieldFarming.sol\":2111:2131  _rewardRatePerSecond */\n  dup1\n    /* \"submissions/Zora/Day27YieldFarming.sol\":2089:2108  rewardRatePerSecond */\n  0x03\n    /* \"submissions/Zora/Day27YieldFarming.sol\":2089:2131  rewardRatePerSecond = _rewardRatePerSecond */\n  dup2\n  swap1\n  sstore\n  pop\n    /* \"submissions/Zora/Day27YieldFarming.sol\":2150:2160  msg.sender */\n  caller\n    /* \"submissions/Zora/Day27YieldFarming.sol\":2142:2147  owner */\n  0x04\n  0x00\n    /* \"submissions/Zora/Day27YieldFarming.sol\":2142:2160  owner = msg.sender */\n  0x0100\n  exp\n  dup2\n  sload\n  dup2\n  0xffffffffffffffffffffffffffffffffffffffff\n  mul\n  not\n  and\n  swap1\n  dup4\n  0xffffffffffffffffffffffffffffffffffffffff\n  and\n  mul\n  or\n  swap1\n  sstore\n  pop\n    /* \"submissions/Zora/Day27YieldFarming.sol\":2229:2242  _stakingToken */\n  dup3\n    /* \"submissions/Zora/Day27YieldFarming.sol\":2214:2252  IERC20Metadata(_stakingToken).decimals */\n  0xffffffffffffffffffffffffffffffffffffffff\n  and\n  0x313ce567\n    /* \"submissions/Zora/Day27YieldFarming.sol\":2214:2254  IERC20Metadata(_stakingToken).decimals() */\n  mload(0x40)\n  dup2\n  0xffffffff\n  and\n  0xe0\n  shl\n  dup2\n  mstore\n  0x04\n  add\n  0x20\n  mload(0x40)\n  dup1\n  dup4\n  sub\n  dup2\n  dup7\n  gas\n  staticcall\n  swap3\n  pop\n  pop\n  pop\n  dup1\n  iszero\n  tag_8\n  jumpi\n  pop\n  mload(0x40)\n  returndatasize\n  not(0x1f)\n  0x1f\n  dup3\n  add\n  and\n  dup3\n  add\n  dup1\n  0x40\n  mstore\n  pop\n  dup2\n  add\n  swap1\n  tag_9\n  swap2\n  swap1\n  tag_10\n  jump\t// in\ntag_9:\n  0x01\ntag_8:\n    /* \"submissions/Zora/Day27YieldFarming.sol\":2210:2457  try IERC20Metadata(_stakingToken).decimals() returns (uint8 decimals) {... */\n  tag_11\n  jumpi\n  returndatasize\n  dup1\n  0x00\n  dup2\n  eq\n  tag_16\n  jumpi\n  mload(0x40)\n  swap2\n  pop\n  and(add(returndatasize, 0x3f), not(0x1f))\n  dup3\n  add\n  0x40\n  mstore\n  returndatasize\n  dup3\n  mstore\n  returndatasize\n  0x00\n  0x20\n  dup5\n  add\n  returndatacopy\n  jump(tag_15)\ntag_16:\n  0x60\n  swap2\n  pop\ntag_15:\n  pop\n    /* \"submissions/Zora/Day27YieldFarming.sol\":2398:2400  18 */\n  0x12\n    /* \"submissions/Zora/Day27YieldFarming.sol\":2375:2395  stakingTokenDecimals */\n  0x04\n  0x14\n    /* \"submissions/Zora/Day27YieldFarming.sol\":2375:2400  stakingTokenDecimals = 18 */\n  0x0100\n  exp\n  dup2\n  sload\n  dup2\n  0xff\n  mul\n  not\n  and\n  swap1\n  dup4\n  0xff\n  and\n  mul\n  or\n  swap1\n  sstore\n  pop\n    /* \"submissions/Zora/Day27YieldFarming.sol\":2339:2457  catch (bytes memory) {... */\n  pop\n    /* \"submissions/Zora/Day27YieldFarming.sol\":2210:2457  try IERC20Metadata(_stakingToken).decimals() returns (uint8 decimals) {... */\n  jump(tag_17)\ntag_11:\n    /* \"submissions/Zora/Day27YieldFarming.sol\":2318:2326  decimals */\n  dup1\n    /* \"submissions/Zora/Day27YieldFarming.sol\":2295:2315  stakingTokenDecimals */\n  0x04\n  0x14\n    /* \"submissions/Zora/Day27YieldFarming.sol\":2295:2326  stakingTokenDecimals = decimals */\n  0x0100\n  exp\n  dup2\n  sload\n  dup2\n  0xff\n  mul\n  not\n  and\n  swap1\n  dup4\n  0xff\n  and\n  mul\n  or\n  swap1\n  sstore\n  pop\n    /* \"submissions/Zora/Day27YieldFarming.sol\":2255:2338  returns (uint8 decimals) {... */\n  pop\n    /* \"submissions/Zora/Day27YieldFarming.sol\":2210:2457  try IERC20Metadata(_stakingToken).decimals() returns (uint8 decimals) {... */\ntag_17:\n    /* \"submissions/Zora/Day27YieldFarming.sol\":1808:2464  constructor(... */\n  pop\n  pop\n  pop\n    /* \"submissions/Zora/Day27YieldFarming.sol\":720:6061  contract YieldFarming is ReentrancyGuard {... */\n  jump(tag_18)\n    /* \"#utility.yul\":88:205   */\ntag_20:\n    /* \"#utility.yul\":197:198   */\n  0x00\n    /* \"#utility.yul\":194:195   */\n  0x00\n    /* \"#utility.yul\":187:199   */\n  revert\n    /* \"#utility.yul\":334:460   */\ntag_22:\n    /* \"#utility.yul\":371:378   */\n  0x00\n    /* \"#utility.yul\":411:453   */\n  0xffffffffffffffffffffffffffffffffffffffff\n    /* \"#utility.yul\":404:409   */\n  dup3\n    /* \"#utility.yul\":400:454   */\n  and\n    /* \"#utility.yul\":389:454   */\n  swap1\n  pop\n    /* \"#utility.yul\":334:460   */\n  swap2\n  swap1\n  pop\n  jump\t// out\n    /* \"#utility.yul\":466:562   */\ntag_23:\n    /* \"#utility.yul\":503:510   */\n  0x00\n    /* \"#utility.yul\":532:556   */\n  tag_38\n    /* \"#utility.yul\":550:555   */\n  dup3\n    /* \"#utility.yul\":532:556   */\n  tag_22\n  jump\t// in\ntag_38:\n    /* \"#utility.yul\":521:556   */\n  swap1\n  pop\n    /* \"#utility.yul\":466:562   */\n  swap2\n  swap1\n  pop\n  jump\t// out\n    /* \"#utility.yul\":568:690   */\ntag_24:\n    /* \"#utility.yul\":641:665   */\n  tag_40\n    /* \"#utility.yul\":659:664   */\n  dup2\n    /* \"#utility.yul\":641:665   */\n  tag_23\n  jump\t// in\ntag_40:\n    /* \"#utility.yul\":634:639   */\n  dup2\n    /* \"#utility.yul\":631:666   */\n  eq\n    /* \"#utility.yul\":621:684   */\n  tag_41\n  jumpi\n    /* \"#utility.yul\":680:681   */\n  0x00\n    /* \"#utility.yul\":677:678   */\n  0x00\n    /* \"#utility.yul\":670:682   */\n  revert\n    /* \"#utility.yul\":621:684   */\ntag_41:\n    /* \"#utility.yul\":568:690   */\n  pop\n  jump\t// out\n    /* \"#utility.yul\":696:839   */\ntag_25:\n    /* \"#utility.yul\":753:758   */\n  0x00\n    /* \"#utility.yul\":784:790   */\n  dup2\n    /* \"#utility.yul\":778:791   */\n  mload\n    /* \"#utility.yul\":769:791   */\n  swap1\n  pop\n    /* \"#utility.yul\":800:833   */\n  tag_43\n    /* \"#utility.yul\":827:832   */\n  dup2\n    /* \"#utility.yul\":800:833   */\n  tag_24\n  jump\t// in\ntag_43:\n    /* \"#utility.yul\":696:839   */\n  swap3\n  swap2\n  pop\n  pop\n  jump\t// out\n    /* \"#utility.yul\":845:922   */\ntag_26:\n    /* \"#utility.yul\":882:889   */\n  0x00\n    /* \"#utility.yul\":911:916   */\n  dup2\n    /* \"#utility.yul\":900:916   */\n  swap1\n  pop\n    /* \"#utility.yul\":845:922   */\n  swap2\n  swap1\n  pop\n  jump\t// out\n    /* \"#utility.yul\":928:1050   */\ntag_27:\n    /* \"#utility.yul\":1001:1025   */\n  tag_46\n    /* \"#utility.yul\":1019:1024   */\n  dup2\n    /* \"#utility.yul\":1001:1025   */\n  tag_26\n  jump\t// in\ntag_46:\n    /* \"#utility.yul\":994:999   */\n  dup2\n    /* \"#utility.yul\":991:1026   */\n  eq\n    /* \"#utility.yul\":981:1044   */\n  tag_47\n  jumpi\n    /* \"#utility.yul\":1040:1041   */\n  0x00\n    /* \"#utility.yul\":1037:1038   */\n  0x00\n    /* \"#utility.yul\":1030:1042   */\n  revert\n    /* \"#utility.yul\":981:1044   */\ntag_47:\n    /* \"#utility.yul\":928:1050   */\n  pop\n  jump\t// out\n    /* \"#utility.yul\":1056:1199   */\ntag_28:\n    /* \"#utility.yul\":1113:1118   */\n  0x00\n    /* \"#utility.yul\":1144:1150   */\n  dup2\n    /* \"#utility.yul\":1138:1151   */\n  mload\n    /* \"#utility.yul\":1129:1151   */\n  swap1\n  pop\n    /* \"#utility.yul\":1160:1193   */\n  tag_49\n    /* \"#utility.yul\":1187:1192   */\n  dup2\n    /* \"#utility.yul\":1160:1193   */\n  tag_27\n  jump\t// in\ntag_49:\n    /* \"#utility.yul\":1056:1199   */\n  swap3\n  swap2\n  pop\n  pop\n  jump\t// out\n    /* \"#utility.yul\":1205:1868   */\ntag_3:\n    /* \"#utility.yul\":1293:1299   */\n  0x00\n    /* \"#utility.yul\":1301:1307   */\n  0x00\n    /* \"#utility.yul\":1309:1315   */\n  0x00\n    /* \"#utility.yul\":1358:1360   */\n  0x60\n    /* \"#utility.yul\":1346:1355   */\n  dup5\n    /* \"#utility.yul\":1337:1344   */\n  dup7\n    /* \"#utility.yul\":1333:1356   */\n  sub\n    /* \"#utility.yul\":1329:1361   */\n  slt\n    /* \"#utility.yul\":1326:1445   */\n  iszero\n  tag_51\n  jumpi\n    /* \"#utility.yul\":1364:1443   */\n  tag_52\n  tag_20\n  jump\t// in\ntag_52:\n    /* \"#utility.yul\":1326:1445   */\ntag_51:\n    /* \"#utility.yul\":1484:1485   */\n  0x00\n    /* \"#utility.yul\":1509:1573   */\n  tag_53\n    /* \"#utility.yul\":1565:1572   */\n  dup7\n    /* \"#utility.yul\":1556:1562   */\n  dup3\n    /* \"#utility.yul\":1545:1554   */\n  dup8\n    /* \"#utility.yul\":1541:1563   */\n  add\n    /* \"#utility.yul\":1509:1573   */\n  tag_25\n  jump\t// in\ntag_53:\n    /* \"#utility.yul\":1499:1573   */\n  swap4\n  pop\n    /* \"#utility.yul\":1455:1583   */\n  pop\n    /* \"#utility.yul\":1622:1624   */\n  0x20\n    /* \"#utility.yul\":1648:1712   */\n  tag_54\n    /* \"#utility.yul\":1704:1711   */\n  dup7\n    /* \"#utility.yul\":1695:1701   */\n  dup3\n    /* \"#utility.yul\":1684:1693   */\n  dup8\n    /* \"#utility.yul\":1680:1702   */\n  add\n    /* \"#utility.yul\":1648:1712   */\n  tag_25\n  jump\t// in\ntag_54:\n    /* \"#utility.yul\":1638:1712   */\n  swap3\n  pop\n    /* \"#utility.yul\":1593:1722   */\n  pop\n    /* \"#utility.yul\":1761:1763   */\n  0x40\n    /* \"#utility.yul\":1787:1851   */\n  tag_55\n    /* \"#utility.yul\":1843:1850   */\n  dup7\n    /* \"#utility.yul\":1834:1840   */\n  dup3\n    /* \"#utility.yul\":1823:1832   */\n  dup8\n    /* \"#utility.yul\":1819:1841   */\n  add\n    /* \"#utility.yul\":1787:1851   */\n  tag_28\n  jump\t// in\ntag_55:\n    /* \"#utility.yul\":1777:1851   */\n  swap2\n  pop\n    /* \"#utility.yul\":1732:1861   */\n  pop\n    /* \"#utility.yul\":1205:1868   */\n  swap3\n  pop\n  swap3\n  pop\n  swap3\n  jump\t// out\n    /* \"#utility.yul\":1874:1960   */\ntag_29:\n    /* \"#utility.yul\":1909:1916   */\n  0x00\n    /* \"#utility.yul\":1949:1953   */\n  0xff\n    /* \"#utility.yul\":1942:1947   */\n  dup3\n    /* \"#utility.yul\":1938:1954   */\n  and\n    /* \"#utility.yul\":1927:1954   */\n  swap1\n  pop\n    /* \"#utility.yul\":1874:1960   */\n  swap2\n  swap1\n  pop\n  jump\t// out\n    /* \"#utility.yul\":1966:2084   */\ntag_30:\n    /* \"#utility.yul\":2037:2059   */\n  tag_58\n    /* \"#utility.yul\":2053:2058   */\n  dup2\n    /* \"#utility.yul\":2037:2059   */\n  tag_29\n  jump\t// in\ntag_58:\n    /* \"#utility.yul\":2030:2035   */\n  dup2\n    /* \"#utility.yul\":2027:2060   */\n  eq\n    /* \"#utility.yul\":2017:2078   */\n  tag_59\n  jumpi\n    /* \"#utility.yul\":2074:2075   */\n  0x00\n    /* \"#utility.yul\":2071:2072   */\n  0x00\n    /* \"#utility.yul\":2064:2076   */\n  revert\n    /* \"#utility.yul\":2017:2078   */\ntag_59:\n    /* \"#utility.yul\":1966:2084   */\n  pop\n  jump\t// out\n    /* \"#utility.yul\":2090:2229   */\ntag_31:\n    /* \"#utility.yul\":2145:2150   */\n  0x00\n    /* \"#utility.yul\":2176:2182   */\n  dup2\n    /* \"#utility.yul\":2170:2183   */\n  mload\n    /* \"#utility.yul\":2161:2183   */\n  swap1\n  pop\n    /* \"#utility.yul\":2192:2223   */\n  tag_61\n    /* \"#utility.yul\":2217:2222   */\n  dup2\n    /* \"#utility.yul\":2192:2223   */\n  tag_30\n  jump\t// in\ntag_61:\n    /* \"#utility.yul\":2090:2229   */\n  swap3\n  swap2\n  pop\n  pop\n  jump\t// out\n    /* \"#utility.yul\":2235:2582   */\ntag_10:\n    /* \"#utility.yul\":2303:2309   */\n  0x00\n    /* \"#utility.yul\":2352:2354   */\n  0x20\n    /* \"#utility.yul\":2340:2349   */\n  dup3\n    /* \"#utility.yul\":2331:2338   */\n  dup5\n    /* \"#utility.yul\":2327:2350   */\n  sub\n    /* \"#utility.yul\":2323:2355   */\n  slt\n    /* \"#utility.yul\":2320:2439   */\n  iszero\n  tag_63\n  jumpi\n    /* \"#utility.yul\":2358:2437   */\n  tag_64\n  tag_20\n  jump\t// in\ntag_64:\n    /* \"#utility.yul\":2320:2439   */\ntag_63:\n    /* \"#utility.yul\":2478:2479   */\n  0x00\n    /* \"#utility.yul\":2503:2565   */\n  tag_65\n    /* \"#utility.yul\":2557:2564   */\n  dup5\n    /* \"#utility.yul\":2548:2554   */\n  dup3\n    /* \"#utility.yul\":2537:2546   */\n  dup6\n    /* \"#utility.yul\":2533:2555   */\n  add\n    /* \"#utility.yul\":2503:2565   */\n  tag_31\n  jump\t// in\ntag_65:\n    /* \"#utility.yul\":2493:2565   */\n  swap2\n  pop\n    /* \"#utility.yul\":2449:2575   */\n  pop\n    /* \"#utility.yul\":2235:2582   */\n  swap3\n  swap2\n  pop\n  pop\n  jump\t// out\n    /* \"submissions/Zora/Day27YieldFarming.sol\":720:6061  contract YieldFarming is ReentrancyGuard {... */\ntag_18:\n  dataSize(sub_0)\n  dup1\n  dataOffset(sub_0)\n  0x00\n  codecopy\n  0x00\n  return\nstop\n\nsub_0: assembly {\n        /* \"submissions/Zora/Day27YieldFarming.sol\":720:6061  contract YieldFarming is ReentrancyGuard {... */\n      mstore(0x40, 0x80)\n      callvalue\n      dup1\n      iszero\n      tag_1\n      jumpi\n      revert(0x00, 0x00)\n    tag_1:\n      pop\n      jumpi(tag_2, lt(calldatasize, 0x04))\n      shr(0xe0, calldataload(0x00))\n      dup1\n      0x8da5cb5b\n      gt\n      tag_16\n      jumpi\n      dup1\n      0xb9f7a7b5\n      gt\n      tag_17\n      jumpi\n      dup1\n      0xb9f7a7b5\n      eq\n      tag_12\n      jumpi\n      dup1\n      0xdb2e21bc\n      eq\n      tag_13\n      jumpi\n      dup1\n      0xe72f3e57\n      eq\n      tag_14\n      jumpi\n      dup1\n      0xf7c618c1\n      eq\n      tag_15\n      jumpi\n      jump(tag_2)\n    tag_17:\n      dup1\n      0x8da5cb5b\n      eq\n      tag_9\n      jumpi\n      dup1\n      0x9168ae72\n      eq\n      tag_10\n      jumpi\n      dup1\n      0xa694fc3a\n      eq\n      tag_11\n      jumpi\n      jump(tag_2)\n    tag_16:\n      dup1\n      0x2e17de78\n      eq\n      tag_3\n      jumpi\n      dup1\n      0x31d7a262\n      eq\n      tag_4\n      jumpi\n      dup1\n      0x372500ab\n      eq\n      tag_5\n      jumpi\n      dup1\n      0x51ddb566\n      eq\n      tag_6\n      jumpi\n      dup1\n      0x5d773b2c\n      eq\n      tag_7\n      jumpi\n      dup1\n      0x72f702f3\n      eq\n      tag_8\n      jumpi\n    tag_2:\n      revert(0x00, 0x00)\n        /* \"submissions/Zora/Day27YieldFarming.sol\":2900:3358  function unstake(uint256 amount) external nonReentrant {... */\n    tag_3:\n      tag_18\n      0x04\n      dup1\n      calldatasize\n      sub\n      dup2\n      add\n      swap1\n      tag_19\n      swap2\n      swap1\n      tag_20\n      jump\t// in\n    tag_19:\n      tag_21\n      jump\t// in\n    tag_18:\n      stop\n        /* \"submissions/Zora/Day27YieldFarming.sol\":5334:5895  function pendingRewards(address user) external view returns (uint256) {... */\n    tag_4:\n      tag_22\n      0x04\n      dup1\n      calldatasize\n      sub\n      dup2\n      add\n      swap1\n      tag_23\n      swap2\n      swap1\n      tag_24\n      jump\t// in\n    tag_23:\n      tag_25\n      jump\t// in\n    tag_22:\n      mload(0x40)\n      tag_26\n      swap2\n      swap1\n      tag_27\n      jump\t// in\n    tag_26:\n      mload(0x40)\n      dup1\n      swap2\n      sub\n      swap1\n      return\n        /* \"submissions/Zora/Day27YieldFarming.sol\":3401:3916  function claimRewards() external nonReentrant {... */\n    tag_5:\n      tag_28\n      tag_29\n      jump\t// in\n    tag_28:\n      stop\n        /* \"submissions/Zora/Day27YieldFarming.sol\":5947:6058  function getStakingTokenDecimals() external view returns (uint8) {... */\n    tag_6:\n      tag_30\n      tag_31\n      jump\t// in\n    tag_30:\n      mload(0x40)\n      tag_32\n      swap2\n      swap1\n      tag_33\n      jump\t// in\n    tag_32:\n      mload(0x40)\n      dup1\n      swap2\n      sub\n      swap1\n      return\n        /* \"submissions/Zora/Day27YieldFarming.sol\":899:933  uint256 public rewardRatePerSecond */\n    tag_7:\n      tag_34\n      tag_35\n      jump\t// in\n    tag_34:\n      mload(0x40)\n      tag_36\n      swap2\n      swap1\n      tag_27\n      jump\t// in\n    tag_36:\n      mload(0x40)\n      dup1\n      swap2\n      sub\n      swap1\n      return\n        /* \"submissions/Zora/Day27YieldFarming.sol\":803:829  IERC20 public stakingToken */\n    tag_8:\n      tag_37\n      tag_38\n      jump\t// in\n    tag_37:\n      mload(0x40)\n      tag_39\n      swap2\n      swap1\n      tag_40\n      jump\t// in\n    tag_39:\n      mload(0x40)\n      dup1\n      swap2\n      sub\n      swap1\n      return\n        /* \"submissions/Zora/Day27YieldFarming.sol\":967:987  address public owner */\n    tag_9:\n      tag_41\n      tag_42\n      jump\t// in\n    tag_41:\n      mload(0x40)\n      tag_43\n      swap2\n      swap1\n      tag_44\n      jump\t// in\n    tag_43:\n      mload(0x40)\n      dup1\n      swap2\n      sub\n      swap1\n      return\n        /* \"submissions/Zora/Day27YieldFarming.sol\":1288:1333  mapping(address => StakerInfo) public stakers */\n    tag_10:\n      tag_45\n      0x04\n      dup1\n      calldatasize\n      sub\n      dup2\n      add\n      swap1\n      tag_46\n      swap2\n      swap1\n      tag_24\n      jump\t// in\n    tag_46:\n      tag_47\n      jump\t// in\n    tag_45:\n      mload(0x40)\n      tag_48\n      swap4\n      swap3\n      swap2\n      swap1\n      tag_49\n      jump\t// in\n    tag_48:\n      mload(0x40)\n      dup1\n      swap2\n      sub\n      swap1\n      return\n        /* \"submissions/Zora/Day27YieldFarming.sol\":2519:2836  function stake(uint256 amount) external nonReentrant {... */\n    tag_11:\n      tag_50\n      0x04\n      dup1\n      calldatasize\n      sub\n      dup2\n      add\n      swap1\n      tag_51\n      swap2\n      swap1\n      tag_20\n      jump\t// in\n    tag_51:\n      tag_52\n      jump\t// in\n    tag_50:\n      stop\n        /* \"submissions/Zora/Day27YieldFarming.sol\":996:1029  uint8 public stakingTokenDecimals */\n    tag_12:\n      tag_53\n      tag_54\n      jump\t// in\n    tag_53:\n      mload(0x40)\n      tag_55\n      swap2\n      swap1\n      tag_33\n      jump\t// in\n    tag_55:\n      mload(0x40)\n      dup1\n      swap2\n      sub\n      swap1\n      return\n        /* \"submissions/Zora/Day27YieldFarming.sol\":3974:4459  function emergencyWithdraw() external nonReentrant {... */\n    tag_13:\n      tag_56\n      tag_57\n      jump\t// in\n    tag_56:\n      stop\n        /* \"submissions/Zora/Day27YieldFarming.sol\":4514:4702  function refillRewards(uint256 amount) external onlyOwner {... */\n    tag_14:\n      tag_58\n      0x04\n      dup1\n      calldatasize\n      sub\n      dup2\n      add\n      swap1\n      tag_59\n      swap2\n      swap1\n      tag_20\n      jump\t// in\n    tag_59:\n      tag_60\n      jump\t// in\n    tag_58:\n      stop\n        /* \"submissions/Zora/Day27YieldFarming.sol\":865:890  IERC20 public rewardToken */\n    tag_15:\n      tag_61\n      tag_62\n      jump\t// in\n    tag_61:\n      mload(0x40)\n      tag_63\n      swap2\n      swap1\n      tag_40\n      jump\t// in\n    tag_63:\n      mload(0x40)\n      dup1\n      swap2\n      sub\n      swap1\n      return\n        /* \"submissions/Zora/Day27YieldFarming.sol\":2900:3358  function unstake(uint256 amount) external nonReentrant {... */\n    tag_21:\n        /* \"@openzeppelin/contracts/security/ReentrancyGuard.sol\":2261:2282  _nonReentrantBefore() */\n      tag_65\n        /* \"@openzeppelin/contracts/security/ReentrancyGuard.sol\":2261:2280  _nonReentrantBefore */\n      tag_66\n        /* \"@openzeppelin/contracts/security/ReentrancyGuard.sol\":2261:2282  _nonReentrantBefore() */\n      jump\t// in\n    tag_65:\n        /* \"submissions/Zora/Day27YieldFarming.sol\":2983:2984  0 */\n      0x00\n        /* \"submissions/Zora/Day27YieldFarming.sol\":2974:2980  amount */\n      dup2\n        /* \"submissions/Zora/Day27YieldFarming.sol\":2974:2984  amount > 0 */\n      gt\n        /* \"submissions/Zora/Day27YieldFarming.sol\":2966:3005  require(amount > 0, \"Cannot unstake 0\") */\n      tag_68\n      jumpi\n      mload(0x40)\n      0x08c379a000000000000000000000000000000000000000000000000000000000\n      dup2\n      mstore\n      0x04\n      add\n      tag_69\n      swap1\n      tag_70\n      jump\t// in\n    tag_69:\n      mload(0x40)\n      dup1\n      swap2\n      sub\n      swap1\n      revert\n    tag_68:\n        /* \"submissions/Zora/Day27YieldFarming.sol\":3060:3066  amount */\n      dup1\n        /* \"submissions/Zora/Day27YieldFarming.sol\":3024:3031  stakers */\n      0x05\n        /* \"submissions/Zora/Day27YieldFarming.sol\":3024:3043  stakers[msg.sender] */\n      0x00\n        /* \"submissions/Zora/Day27YieldFarming.sol\":3032:3042  msg.sender */\n      caller\n        /* \"submissions/Zora/Day27YieldFarming.sol\":3024:3043  stakers[msg.sender] */\n      0xffffffffffffffffffffffffffffffffffffffff\n      and\n      0xffffffffffffffffffffffffffffffffffffffff\n      and\n      dup2\n      mstore\n      0x20\n      add\n      swap1\n      dup2\n      mstore\n      0x20\n      add\n      0x00\n      keccak256\n        /* \"submissions/Zora/Day27YieldFarming.sol\":3024:3056  stakers[msg.sender].stakedAmount */\n      0x00\n      add\n      sload\n        /* \"submissions/Zora/Day27YieldFarming.sol\":3024:3066  stakers[msg.sender].stakedAmount >= amount */\n      lt\n      iszero\n        /* \"submissions/Zora/Day27YieldFarming.sol\":3016:3088  require(stakers[msg.sender].stakedAmount >= amount, \"Not enough staked\") */\n      tag_71\n      jumpi\n      mload(0x40)\n      0x08c379a000000000000000000000000000000000000000000000000000000000\n      dup2\n      mstore\n      0x04\n      add\n      tag_72\n      swap1\n      tag_73\n      jump\t// in\n    tag_72:\n      mload(0x40)\n      dup1\n      swap2\n      sub\n      swap1\n      revert\n    tag_71:\n        /* \"submissions/Zora/Day27YieldFarming.sol\":3101:3126  updateRewards(msg.sender) */\n      tag_74\n        /* \"submissions/Zora/Day27YieldFarming.sol\":3115:3125  msg.sender */\n      caller\n        /* \"submissions/Zora/Day27YieldFarming.sol\":3101:3114  updateRewards */\n      tag_75\n        /* \"submissions/Zora/Day27YieldFarming.sol\":3101:3126  updateRewards(msg.sender) */\n      jump\t// in\n    tag_74:\n        /* \"submissions/Zora/Day27YieldFarming.sol\":3204:3210  amount */\n      dup1\n        /* \"submissions/Zora/Day27YieldFarming.sol\":3168:3175  stakers */\n      0x05\n        /* \"submissions/Zora/Day27YieldFarming.sol\":3168:3187  stakers[msg.sender] */\n      0x00\n        /* \"submissions/Zora/Day27YieldFarming.sol\":3176:3186  msg.sender */\n      caller\n        /* \"submissions/Zora/Day27YieldFarming.sol\":3168:3187  stakers[msg.sender] */\n      0xffffffffffffffffffffffffffffffffffffffff\n      and\n      0xffffffffffffffffffffffffffffffffffffffff\n      and\n      dup2\n      mstore\n      0x20\n      add\n      swap1\n      dup2\n      mstore\n      0x20\n      add\n      0x00\n      keccak256\n        /* \"submissions/Zora/Day27YieldFarming.sol\":3168:3200  stakers[msg.sender].stakedAmount */\n      0x00\n      add\n      0x00\n        /* \"submissions/Zora/Day27YieldFarming.sol\":3168:3210  stakers[msg.sender].stakedAmount -= amount */\n      dup3\n      dup3\n      sload\n      tag_76\n      swap2\n      swap1\n      tag_77\n      jump\t// in\n    tag_76:\n      swap3\n      pop\n      pop\n      dup2\n      swap1\n      sstore\n      pop\n        /* \"submissions/Zora/Day27YieldFarming.sol\":3242:3254  stakingToken */\n      0x01\n      0x00\n      swap1\n      sload\n      swap1\n      0x0100\n      exp\n      swap1\n      div\n      0xffffffffffffffffffffffffffffffffffffffff\n      and\n        /* \"submissions/Zora/Day27YieldFarming.sol\":3242:3263  stakingToken.transfer */\n      0xffffffffffffffffffffffffffffffffffffffff\n      and\n      0xa9059cbb\n        /* \"submissions/Zora/Day27YieldFarming.sol\":3264:3274  msg.sender */\n      caller\n        /* \"submissions/Zora/Day27YieldFarming.sol\":3276:3282  amount */\n      dup4\n        /* \"submissions/Zora/Day27YieldFarming.sol\":3242:3283  stakingToken.transfer(msg.sender, amount) */\n      mload(0x40)\n      dup4\n      0xffffffff\n      and\n      0xe0\n      shl\n      dup2\n      mstore\n      0x04\n      add\n      tag_78\n      swap3\n      swap2\n      swap1\n      tag_79\n      jump\t// in\n    tag_78:\n      0x20\n      mload(0x40)\n      dup1\n      dup4\n      sub\n      dup2\n      0x00\n      dup8\n      gas\n      call\n      iszero\n      dup1\n      iszero\n      tag_81\n      jumpi\n      returndatacopy(0x00, 0x00, returndatasize)\n      revert(0x00, returndatasize)\n    tag_81:\n      pop\n      pop\n      pop\n      pop\n      mload(0x40)\n      returndatasize\n      not(0x1f)\n      0x1f\n      dup3\n      add\n      and\n      dup3\n      add\n      dup1\n      0x40\n      mstore\n      pop\n      dup2\n      add\n      swap1\n      tag_82\n      swap2\n      swap1\n      tag_83\n      jump\t// in\n    tag_82:\n      pop\n        /* \"submissions/Zora/Day27YieldFarming.sol\":3331:3341  msg.sender */\n      caller\n        /* \"submissions/Zora/Day27YieldFarming.sol\":3322:3350  Unstaked(msg.sender, amount) */\n      0xffffffffffffffffffffffffffffffffffffffff\n      and\n      0x0f5bb82176feb1b5e747e28471aa92156a04d9f3ab9f45f28e2d704232b93f75\n        /* \"submissions/Zora/Day27YieldFarming.sol\":3343:3349  amount */\n      dup3\n        /* \"submissions/Zora/Day27YieldFarming.sol\":3322:3350  Unstaked(msg.sender, amount) */\n      mload(0x40)\n      tag_84\n      swap2\n      swap1\n      tag_27\n      jump\t// in\n    tag_84:\n      mload(0x40)\n      dup1\n      swap2\n      sub\n      swap1\n      log2\n        /* \"@openzeppelin/contracts/security/ReentrancyGuard.sol\":2303:2323  _nonReentrantAfter() */\n      tag_85\n        /* \"@openzeppelin/contracts/security/ReentrancyGuard.sol\":2303:2321  _nonReentrantAfter */\n      tag_86\n        /* \"@openzeppelin/contracts/security/ReentrancyGuard.sol\":2303:2323  _nonReentrantAfter() */\n      jump\t// in\n    tag_85:\n        /* \"submissions/Zora/Day27YieldFarming.sol\":2900:3358  function unstake(uint256 amount) external nonReentrant {... */\n      pop\n      jump\t// out\n        /* \"submissions/Zora/Day27YieldFarming.sol\":5334:5895  function pendingRewards(address user) external view returns (uint256) {... */\n    tag_25:\n        /* \"submissions/Zora/Day27YieldFarming.sol\":5395:5402  uint256 */\n      0x00\n        /* \"submissions/Zora/Day27YieldFarming.sol\":5415:5439  StakerInfo memory staker */\n      0x00\n        /* \"submissions/Zora/Day27YieldFarming.sol\":5442:5449  stakers */\n      0x05\n        /* \"submissions/Zora/Day27YieldFarming.sol\":5442:5455  stakers[user] */\n      0x00\n        /* \"submissions/Zora/Day27YieldFarming.sol\":5450:5454  user */\n      dup5\n        /* \"submissions/Zora/Day27YieldFarming.sol\":5442:5455  stakers[user] */\n      0xffffffffffffffffffffffffffffffffffffffff\n      and\n      0xffffffffffffffffffffffffffffffffffffffff\n      and\n      dup2\n      mstore\n      0x20\n      add\n      swap1\n      dup2\n      mstore\n      0x20\n      add\n      0x00\n      keccak256\n        /* \"submissions/Zora/Day27YieldFarming.sol\":5415:5455  StakerInfo memory staker = stakers[user] */\n      mload(0x40)\n      dup1\n      0x60\n      add\n      0x40\n      mstore\n      swap1\n      dup2\n      0x00\n      dup3\n      add\n      sload\n      dup2\n      mstore\n      0x20\n      add\n      0x01\n      dup3\n      add\n      sload\n      dup2\n      mstore\n      0x20\n      add\n      0x02\n      dup3\n      add\n      sload\n      dup2\n      mstore\n      pop\n      pop\n      swap1\n      pop\n        /* \"submissions/Zora/Day27YieldFarming.sol\":5468:5489  uint256 pendingReward */\n      0x00\n        /* \"submissions/Zora/Day27YieldFarming.sol\":5492:5498  staker */\n      dup2\n        /* \"submissions/Zora/Day27YieldFarming.sol\":5492:5509  staker.rewardDebt */\n      0x20\n      add\n      mload\n        /* \"submissions/Zora/Day27YieldFarming.sol\":5468:5509  uint256 pendingReward = staker.rewardDebt */\n      swap1\n      pop\n        /* \"submissions/Zora/Day27YieldFarming.sol\":5598:5599  0 */\n      0x00\n        /* \"submissions/Zora/Day27YieldFarming.sol\":5576:5582  staker */\n      dup3\n        /* \"submissions/Zora/Day27YieldFarming.sol\":5576:5595  staker.stakedAmount */\n      0x00\n      add\n      mload\n        /* \"submissions/Zora/Day27YieldFarming.sol\":5576:5599  staker.stakedAmount > 0 */\n      gt\n        /* \"submissions/Zora/Day27YieldFarming.sol\":5572:5855  if (staker.stakedAmount > 0) {... */\n      iszero\n      tag_88\n      jumpi\n        /* \"submissions/Zora/Day27YieldFarming.sol\":5616:5632  uint256 timeDiff */\n      0x00\n        /* \"submissions/Zora/Day27YieldFarming.sol\":5653:5659  staker */\n      dup3\n        /* \"submissions/Zora/Day27YieldFarming.sol\":5653:5670  staker.lastUpdate */\n      0x40\n      add\n      mload\n        /* \"submissions/Zora/Day27YieldFarming.sol\":5635:5650  block.timestamp */\n      timestamp\n        /* \"submissions/Zora/Day27YieldFarming.sol\":5635:5670  block.timestamp - staker.lastUpdate */\n      tag_89\n      swap2\n      swap1\n      tag_77\n      jump\t// in\n    tag_89:\n        /* \"submissions/Zora/Day27YieldFarming.sol\":5616:5670  uint256 timeDiff = block.timestamp - staker.lastUpdate */\n      swap1\n      pop\n        /* \"submissions/Zora/Day27YieldFarming.sol\":5685:5709  uint256 rewardMultiplier */\n      0x00\n        /* \"submissions/Zora/Day27YieldFarming.sol\":5718:5738  stakingTokenDecimals */\n      0x04\n      0x14\n      swap1\n      sload\n      swap1\n      0x0100\n      exp\n      swap1\n      div\n      0xff\n      and\n        /* \"submissions/Zora/Day27YieldFarming.sol\":5712:5714  10 */\n      0x0a\n        /* \"submissions/Zora/Day27YieldFarming.sol\":5712:5738  10 ** stakingTokenDecimals */\n      tag_90\n      swap2\n      swap1\n      tag_91\n      jump\t// in\n    tag_90:\n        /* \"submissions/Zora/Day27YieldFarming.sol\":5685:5738  uint256 rewardMultiplier = 10 ** stakingTokenDecimals */\n      swap1\n      pop\n        /* \"submissions/Zora/Day27YieldFarming.sol\":5827:5843  rewardMultiplier */\n      dup1\n        /* \"submissions/Zora/Day27YieldFarming.sol\":5804:5810  staker */\n      dup5\n        /* \"submissions/Zora/Day27YieldFarming.sol\":5804:5823  staker.stakedAmount */\n      0x00\n      add\n      mload\n        /* \"submissions/Zora/Day27YieldFarming.sol\":5782:5801  rewardRatePerSecond */\n      sload(0x03)\n        /* \"submissions/Zora/Day27YieldFarming.sol\":5771:5779  timeDiff */\n      dup5\n        /* \"submissions/Zora/Day27YieldFarming.sol\":5771:5801  timeDiff * rewardRatePerSecond */\n      tag_92\n      swap2\n      swap1\n      tag_93\n      jump\t// in\n    tag_92:\n        /* \"submissions/Zora/Day27YieldFarming.sol\":5771:5823  timeDiff * rewardRatePerSecond * staker.stakedAmount */\n      tag_94\n      swap2\n      swap1\n      tag_93\n      jump\t// in\n    tag_94:\n        /* \"submissions/Zora/Day27YieldFarming.sol\":5770:5843  (timeDiff * rewardRatePerSecond * staker.stakedAmount) / rewardMultiplier */\n      tag_95\n      swap2\n      swap1\n      tag_96\n      jump\t// in\n    tag_95:\n        /* \"submissions/Zora/Day27YieldFarming.sol\":5753:5843  pendingReward += (timeDiff * rewardRatePerSecond * staker.stakedAmount) / rewardMultiplier */\n      dup4\n      tag_97\n      swap2\n      swap1\n      tag_98\n      jump\t// in\n    tag_97:\n      swap3\n      pop\n        /* \"submissions/Zora/Day27YieldFarming.sol\":5601:5855  {... */\n      pop\n      pop\n        /* \"submissions/Zora/Day27YieldFarming.sol\":5572:5855  if (staker.stakedAmount > 0) {... */\n    tag_88:\n        /* \"submissions/Zora/Day27YieldFarming.sol\":5874:5887  pendingReward */\n      dup1\n        /* \"submissions/Zora/Day27YieldFarming.sol\":5867:5887  return pendingReward */\n      swap3\n      pop\n      pop\n      pop\n        /* \"submissions/Zora/Day27YieldFarming.sol\":5334:5895  function pendingRewards(address user) external view returns (uint256) {... */\n      swap2\n      swap1\n      pop\n      jump\t// out\n        /* \"submissions/Zora/Day27YieldFarming.sol\":3401:3916  function claimRewards() external nonReentrant {... */\n    tag_29:\n        /* \"@openzeppelin/contracts/security/ReentrancyGuard.sol\":2261:2282  _nonReentrantBefore() */\n      tag_100\n        /* \"@openzeppelin/contracts/security/ReentrancyGuard.sol\":2261:2280  _nonReentrantBefore */\n      tag_66\n        /* \"@openzeppelin/contracts/security/ReentrancyGuard.sol\":2261:2282  _nonReentrantBefore() */\n      jump\t// in\n    tag_100:\n        /* \"submissions/Zora/Day27YieldFarming.sol\":3458:3483  updateRewards(msg.sender) */\n      tag_102\n        /* \"submissions/Zora/Day27YieldFarming.sol\":3472:3482  msg.sender */\n      caller\n        /* \"submissions/Zora/Day27YieldFarming.sol\":3458:3471  updateRewards */\n      tag_75\n        /* \"submissions/Zora/Day27YieldFarming.sol\":3458:3483  updateRewards(msg.sender) */\n      jump\t// in\n    tag_102:\n        /* \"submissions/Zora/Day27YieldFarming.sol\":3496:3510  uint256 reward */\n      0x00\n        /* \"submissions/Zora/Day27YieldFarming.sol\":3513:3520  stakers */\n      0x05\n        /* \"submissions/Zora/Day27YieldFarming.sol\":3513:3532  stakers[msg.sender] */\n      0x00\n        /* \"submissions/Zora/Day27YieldFarming.sol\":3521:3531  msg.sender */\n      caller\n        /* \"submissions/Zora/Day27YieldFarming.sol\":3513:3532  stakers[msg.sender] */\n      0xffffffffffffffffffffffffffffffffffffffff\n      and\n      0xffffffffffffffffffffffffffffffffffffffff\n      and\n      dup2\n      mstore\n      0x20\n      add\n      swap1\n      dup2\n      mstore\n      0x20\n      add\n      0x00\n      keccak256\n        /* \"submissions/Zora/Day27YieldFarming.sol\":3513:3543  stakers[msg.sender].rewardDebt */\n      0x01\n      add\n      sload\n        /* \"submissions/Zora/Day27YieldFarming.sol\":3496:3543  uint256 reward = stakers[msg.sender].rewardDebt */\n      swap1\n      pop\n        /* \"submissions/Zora/Day27YieldFarming.sol\":3600:3601  0 */\n      0x00\n        /* \"submissions/Zora/Day27YieldFarming.sol\":3591:3597  reward */\n      dup2\n        /* \"submissions/Zora/Day27YieldFarming.sol\":3591:3601  reward > 0 */\n      gt\n        /* \"submissions/Zora/Day27YieldFarming.sol\":3583:3625  require(reward > 0, \"No rewards to claim\") */\n      tag_103\n      jumpi\n      mload(0x40)\n      0x08c379a000000000000000000000000000000000000000000000000000000000\n      dup2\n      mstore\n      0x04\n      add\n      tag_104\n      swap1\n      tag_105\n      jump\t// in\n    tag_104:\n      mload(0x40)\n      dup1\n      swap2\n      sub\n      swap1\n      revert\n    tag_103:\n        /* \"submissions/Zora/Day27YieldFarming.sol\":3684:3690  reward */\n      dup1\n        /* \"submissions/Zora/Day27YieldFarming.sol\":3644:3655  rewardToken */\n      0x02\n      0x00\n      swap1\n      sload\n      swap1\n      0x0100\n      exp\n      swap1\n      div\n      0xffffffffffffffffffffffffffffffffffffffff\n      and\n        /* \"submissions/Zora/Day27YieldFarming.sol\":3644:3665  rewardToken.balanceOf */\n      0xffffffffffffffffffffffffffffffffffffffff\n      and\n      0x70a08231\n        /* \"submissions/Zora/Day27YieldFarming.sol\":3674:3678  this */\n      address\n        /* \"submissions/Zora/Day27YieldFarming.sol\":3644:3680  rewardToken.balanceOf(address(this)) */\n      mload(0x40)\n      dup3\n      0xffffffff\n      and\n      0xe0\n      shl\n      dup2\n      mstore\n      0x04\n      add\n      tag_106\n      swap2\n      swap1\n      tag_44\n      jump\t// in\n    tag_106:\n      0x20\n      mload(0x40)\n      dup1\n      dup4\n      sub\n      dup2\n      dup7\n      gas\n      staticcall\n      iszero\n      dup1\n      iszero\n      tag_108\n      jumpi\n      returndatacopy(0x00, 0x00, returndatasize)\n      revert(0x00, returndatasize)\n    tag_108:\n      pop\n      pop\n      pop\n      pop\n      mload(0x40)\n      returndatasize\n      not(0x1f)\n      0x1f\n      dup3\n      add\n      and\n      dup3\n      add\n      dup1\n      0x40\n      mstore\n      pop\n      dup2\n      add\n      swap1\n      tag_109\n      swap2\n      swap1\n      tag_110\n      jump\t// in\n    tag_109:\n        /* \"submissions/Zora/Day27YieldFarming.sol\":3644:3690  rewardToken.balanceOf(address(this)) >= reward */\n      lt\n      iszero\n        /* \"submissions/Zora/Day27YieldFarming.sol\":3636:3728  require(rewardToken.balanceOf(address(this)) >= reward, \"Insufficient reward token balance\") */\n      tag_111\n      jumpi\n      mload(0x40)\n      0x08c379a000000000000000000000000000000000000000000000000000000000\n      dup2\n      mstore\n      0x04\n      add\n      tag_112\n      swap1\n      tag_113\n      jump\t// in\n    tag_112:\n      mload(0x40)\n      dup1\n      swap2\n      sub\n      swap1\n      revert\n    tag_111:\n        /* \"submissions/Zora/Day27YieldFarming.sol\":3774:3775  0 */\n      0x00\n        /* \"submissions/Zora/Day27YieldFarming.sol\":3741:3748  stakers */\n      0x05\n        /* \"submissions/Zora/Day27YieldFarming.sol\":3741:3760  stakers[msg.sender] */\n      0x00\n        /* \"submissions/Zora/Day27YieldFarming.sol\":3749:3759  msg.sender */\n      caller\n        /* \"submissions/Zora/Day27YieldFarming.sol\":3741:3760  stakers[msg.sender] */\n      0xffffffffffffffffffffffffffffffffffffffff\n      and\n      0xffffffffffffffffffffffffffffffffffffffff\n      and\n      dup2\n      mstore\n      0x20\n      add\n      swap1\n      dup2\n      mstore\n      0x20\n      add\n      0x00\n      keccak256\n        /* \"submissions/Zora/Day27YieldFarming.sol\":3741:3771  stakers[msg.sender].rewardDebt */\n      0x01\n      add\n        /* \"submissions/Zora/Day27YieldFarming.sol\":3741:3775  stakers[msg.sender].rewardDebt = 0 */\n      dup2\n      swap1\n      sstore\n      pop\n        /* \"submissions/Zora/Day27YieldFarming.sol\":3817:3828  rewardToken */\n      0x02\n      0x00\n      swap1\n      sload\n      swap1\n      0x0100\n      exp\n      swap1\n      div\n      0xffffffffffffffffffffffffffffffffffffffff\n      and\n        /* \"submissions/Zora/Day27YieldFarming.sol\":3817:3837  rewardToken.transfer */\n      0xffffffffffffffffffffffffffffffffffffffff\n      and\n      0xa9059cbb\n        /* \"submissions/Zora/Day27YieldFarming.sol\":3838:3848  msg.sender */\n      caller\n        /* \"submissions/Zora/Day27YieldFarming.sol\":3850:3856  reward */\n      dup4\n        /* \"submissions/Zora/Day27YieldFarming.sol\":3817:3857  rewardToken.transfer(msg.sender, reward) */\n      mload(0x40)\n      dup4\n      0xffffffff\n      and\n      0xe0\n      shl\n      dup2\n      mstore\n      0x04\n      add\n      tag_114\n      swap3\n      swap2\n      swap1\n      tag_79\n      jump\t// in\n    tag_114:\n      0x20\n      mload(0x40)\n      dup1\n      dup4\n      sub\n      dup2\n      0x00\n      dup8\n      gas\n      call\n      iszero\n      dup1\n      iszero\n      tag_116\n      jumpi\n      returndatacopy(0x00, 0x00, returndatasize)\n      revert(0x00, returndatasize)\n    tag_116:\n      pop\n      pop\n      pop\n      pop\n      mload(0x40)\n      returndatasize\n      not(0x1f)\n      0x1f\n      dup3\n      add\n      and\n      dup3\n      add\n      dup1\n      0x40\n      mstore\n      pop\n      dup2\n      add\n      swap1\n      tag_117\n      swap2\n      swap1\n      tag_83\n      jump\t// in\n    tag_117:\n      pop\n        /* \"submissions/Zora/Day27YieldFarming.sol\":3889:3899  msg.sender */\n      caller\n        /* \"submissions/Zora/Day27YieldFarming.sol\":3875:3908  RewardClaimed(msg.sender, reward) */\n      0xffffffffffffffffffffffffffffffffffffffff\n      and\n      0x106f923f993c2149d49b4255ff723acafa1f2d94393f561d3eda32ae348f7241\n        /* \"submissions/Zora/Day27YieldFarming.sol\":3901:3907  reward */\n      dup3\n        /* \"submissions/Zora/Day27YieldFarming.sol\":3875:3908  RewardClaimed(msg.sender, reward) */\n      mload(0x40)\n      tag_118\n      swap2\n      swap1\n      tag_27\n      jump\t// in\n    tag_118:\n      mload(0x40)\n      dup1\n      swap2\n      sub\n      swap1\n      log2\n        /* \"submissions/Zora/Day27YieldFarming.sol\":3447:3916  {... */\n      pop\n        /* \"@openzeppelin/contracts/security/ReentrancyGuard.sol\":2303:2323  _nonReentrantAfter() */\n      tag_119\n        /* \"@openzeppelin/contracts/security/ReentrancyGuard.sol\":2303:2321  _nonReentrantAfter */\n      tag_86\n        /* \"@openzeppelin/contracts/security/ReentrancyGuard.sol\":2303:2323  _nonReentrantAfter() */\n      jump\t// in\n    tag_119:\n        /* \"submissions/Zora/Day27YieldFarming.sol\":3401:3916  function claimRewards() external nonReentrant {... */\n      jump\t// out\n        /* \"submissions/Zora/Day27YieldFarming.sol\":5947:6058  function getStakingTokenDecimals() external view returns (uint8) {... */\n    tag_31:\n        /* \"submissions/Zora/Day27YieldFarming.sol\":6005:6010  uint8 */\n      0x00\n        /* \"submissions/Zora/Day27YieldFarming.sol\":6030:6050  stakingTokenDecimals */\n      0x04\n      0x14\n      swap1\n      sload\n      swap1\n      0x0100\n      exp\n      swap1\n      div\n      0xff\n      and\n        /* \"submissions/Zora/Day27YieldFarming.sol\":6023:6050  return stakingTokenDecimals */\n      swap1\n      pop\n        /* \"submissions/Zora/Day27YieldFarming.sol\":5947:6058  function getStakingTokenDecimals() external view returns (uint8) {... */\n      swap1\n      jump\t// out\n        /* \"submissions/Zora/Day27YieldFarming.sol\":899:933  uint256 public rewardRatePerSecond */\n    tag_35:\n      sload(0x03)\n      dup2\n      jump\t// out\n        /* \"submissions/Zora/Day27YieldFarming.sol\":803:829  IERC20 public stakingToken */\n    tag_38:\n      0x01\n      0x00\n      swap1\n      sload\n      swap1\n      0x0100\n      exp\n      swap1\n      div\n      0xffffffffffffffffffffffffffffffffffffffff\n      and\n      dup2\n      jump\t// out\n        /* \"submissions/Zora/Day27YieldFarming.sol\":967:987  address public owner */\n    tag_42:\n      0x04\n      0x00\n      swap1\n      sload\n      swap1\n      0x0100\n      exp\n      swap1\n      div\n      0xffffffffffffffffffffffffffffffffffffffff\n      and\n      dup2\n      jump\t// out\n        /* \"submissions/Zora/Day27YieldFarming.sol\":1288:1333  mapping(address => StakerInfo) public stakers */\n    tag_47:\n      mstore(0x20, 0x05)\n      dup1\n      0x00\n      mstore\n      keccak256(0x00, 0x40)\n      0x00\n      swap2\n      pop\n      swap1\n      pop\n      dup1\n      0x00\n      add\n      sload\n      swap1\n      dup1\n      0x01\n      add\n      sload\n      swap1\n      dup1\n      0x02\n      add\n      sload\n      swap1\n      pop\n      dup4\n      jump\t// out\n        /* \"submissions/Zora/Day27YieldFarming.sol\":2519:2836  function stake(uint256 amount) external nonReentrant {... */\n    tag_52:\n        /* \"@openzeppelin/contracts/security/ReentrancyGuard.sol\":2261:2282  _nonReentrantBefore() */\n      tag_122\n        /* \"@openzeppelin/contracts/security/ReentrancyGuard.sol\":2261:2280  _nonReentrantBefore */\n      tag_66\n        /* \"@openzeppelin/contracts/security/ReentrancyGuard.sol\":2261:2282  _nonReentrantBefore() */\n      jump\t// in\n    tag_122:\n        /* \"submissions/Zora/Day27YieldFarming.sol\":2600:2601  0 */\n      0x00\n        /* \"submissions/Zora/Day27YieldFarming.sol\":2591:2597  amount */\n      dup2\n        /* \"submissions/Zora/Day27YieldFarming.sol\":2591:2601  amount > 0 */\n      gt\n        /* \"submissions/Zora/Day27YieldFarming.sol\":2583:2620  require(amount > 0, \"Cannot stake 0\") */\n      tag_124\n      jumpi\n      mload(0x40)\n      0x08c379a000000000000000000000000000000000000000000000000000000000\n      dup2\n      mstore\n      0x04\n      add\n      tag_125\n      swap1\n      tag_126\n      jump\t// in\n    tag_125:\n      mload(0x40)\n      dup1\n      swap2\n      sub\n      swap1\n      revert\n    tag_124:\n        /* \"submissions/Zora/Day27YieldFarming.sol\":2633:2658  updateRewards(msg.sender) */\n      tag_127\n        /* \"submissions/Zora/Day27YieldFarming.sol\":2647:2657  msg.sender */\n      caller\n        /* \"submissions/Zora/Day27YieldFarming.sol\":2633:2646  updateRewards */\n      tag_75\n        /* \"submissions/Zora/Day27YieldFarming.sol\":2633:2658  updateRewards(msg.sender) */\n      jump\t// in\n    tag_127:\n        /* \"submissions/Zora/Day27YieldFarming.sol\":2671:2683  stakingToken */\n      0x01\n      0x00\n      swap1\n      sload\n      swap1\n      0x0100\n      exp\n      swap1\n      div\n      0xffffffffffffffffffffffffffffffffffffffff\n      and\n        /* \"submissions/Zora/Day27YieldFarming.sol\":2671:2696  stakingToken.transferFrom */\n      0xffffffffffffffffffffffffffffffffffffffff\n      and\n      0x23b872dd\n        /* \"submissions/Zora/Day27YieldFarming.sol\":2697:2707  msg.sender */\n      caller\n        /* \"submissions/Zora/Day27YieldFarming.sol\":2717:2721  this */\n      address\n        /* \"submissions/Zora/Day27YieldFarming.sol\":2724:2730  amount */\n      dup5\n        /* \"submissions/Zora/Day27YieldFarming.sol\":2671:2731  stakingToken.transferFrom(msg.sender, address(this), amount) */\n      mload(0x40)\n      dup5\n      0xffffffff\n      and\n      0xe0\n      shl\n      dup2\n      mstore\n      0x04\n      add\n      tag_128\n      swap4\n      swap3\n      swap2\n      swap1\n      tag_129\n      jump\t// in\n    tag_128:\n      0x20\n      mload(0x40)\n      dup1\n      dup4\n      sub\n      dup2\n      0x00\n      dup8\n      gas\n      call\n      iszero\n      dup1\n      iszero\n      tag_131\n      jumpi\n      returndatacopy(0x00, 0x00, returndatasize)\n      revert(0x00, returndatasize)\n    tag_131:\n      pop\n      pop\n      pop\n      pop\n      mload(0x40)\n      returndatasize\n      not(0x1f)\n      0x1f\n      dup3\n      add\n      and\n      dup3\n      add\n      dup1\n      0x40\n      mstore\n      pop\n      dup2\n      add\n      swap1\n      tag_132\n      swap2\n      swap1\n      tag_83\n      jump\t// in\n    tag_132:\n      pop\n        /* \"submissions/Zora/Day27YieldFarming.sol\":2778:2784  amount */\n      dup1\n        /* \"submissions/Zora/Day27YieldFarming.sol\":2742:2749  stakers */\n      0x05\n        /* \"submissions/Zora/Day27YieldFarming.sol\":2742:2761  stakers[msg.sender] */\n      0x00\n        /* \"submissions/Zora/Day27YieldFarming.sol\":2750:2760  msg.sender */\n      caller\n        /* \"submissions/Zora/Day27YieldFarming.sol\":2742:2761  stakers[msg.sender] */\n      0xffffffffffffffffffffffffffffffffffffffff\n      and\n      0xffffffffffffffffffffffffffffffffffffffff\n      and\n      dup2\n      mstore\n      0x20\n      add\n      swap1\n      dup2\n      mstore\n      0x20\n      add\n      0x00\n      keccak256\n        /* \"submissions/Zora/Day27YieldFarming.sol\":2742:2774  stakers[msg.sender].stakedAmount */\n      0x00\n      add\n      0x00\n        /* \"submissions/Zora/Day27YieldFarming.sol\":2742:2784  stakers[msg.sender].stakedAmount += amount */\n      dup3\n      dup3\n      sload\n      tag_133\n      swap2\n      swap1\n      tag_98\n      jump\t// in\n    tag_133:\n      swap3\n      pop\n      pop\n      dup2\n      swap1\n      sstore\n      pop\n        /* \"submissions/Zora/Day27YieldFarming.sol\":2809:2819  msg.sender */\n      caller\n        /* \"submissions/Zora/Day27YieldFarming.sol\":2802:2828  Staked(msg.sender, amount) */\n      0xffffffffffffffffffffffffffffffffffffffff\n      and\n      0x9e71bc8eea02a63969f509818f2dafb9254532904319f9dbda79b67bd34a5f3d\n        /* \"submissions/Zora/Day27YieldFarming.sol\":2821:2827  amount */\n      dup3\n        /* \"submissions/Zora/Day27YieldFarming.sol\":2802:2828  Staked(msg.sender, amount) */\n      mload(0x40)\n      tag_134\n      swap2\n      swap1\n      tag_27\n      jump\t// in\n    tag_134:\n      mload(0x40)\n      dup1\n      swap2\n      sub\n      swap1\n      log2\n        /* \"@openzeppelin/contracts/security/ReentrancyGuard.sol\":2303:2323  _nonReentrantAfter() */\n      tag_135\n        /* \"@openzeppelin/contracts/security/ReentrancyGuard.sol\":2303:2321  _nonReentrantAfter */\n      tag_86\n        /* \"@openzeppelin/contracts/security/ReentrancyGuard.sol\":2303:2323  _nonReentrantAfter() */\n      jump\t// in\n    tag_135:\n        /* \"submissions/Zora/Day27YieldFarming.sol\":2519:2836  function stake(uint256 amount) external nonReentrant {... */\n      pop\n      jump\t// out\n        /* \"submissions/Zora/Day27YieldFarming.sol\":996:1029  uint8 public stakingTokenDecimals */\n    tag_54:\n      0x04\n      0x14\n      swap1\n      sload\n      swap1\n      0x0100\n      exp\n      swap1\n      div\n      0xff\n      and\n      dup2\n      jump\t// out\n        /* \"submissions/Zora/Day27YieldFarming.sol\":3974:4459  function emergencyWithdraw() external nonReentrant {... */\n    tag_57:\n        /* \"@openzeppelin/contracts/security/ReentrancyGuard.sol\":2261:2282  _nonReentrantBefore() */\n      tag_137\n        /* \"@openzeppelin/contracts/security/ReentrancyGuard.sol\":2261:2280  _nonReentrantBefore */\n      tag_66\n        /* \"@openzeppelin/contracts/security/ReentrancyGuard.sol\":2261:2282  _nonReentrantBefore() */\n      jump\t// in\n    tag_137:\n        /* \"submissions/Zora/Day27YieldFarming.sol\":4036:4050  uint256 amount */\n      0x00\n        /* \"submissions/Zora/Day27YieldFarming.sol\":4053:4060  stakers */\n      0x05\n        /* \"submissions/Zora/Day27YieldFarming.sol\":4053:4072  stakers[msg.sender] */\n      0x00\n        /* \"submissions/Zora/Day27YieldFarming.sol\":4061:4071  msg.sender */\n      caller\n        /* \"submissions/Zora/Day27YieldFarming.sol\":4053:4072  stakers[msg.sender] */\n      0xffffffffffffffffffffffffffffffffffffffff\n      and\n      0xffffffffffffffffffffffffffffffffffffffff\n      and\n      dup2\n      mstore\n      0x20\n      add\n      swap1\n      dup2\n      mstore\n      0x20\n      add\n      0x00\n      keccak256\n        /* \"submissions/Zora/Day27YieldFarming.sol\":4053:4085  stakers[msg.sender].stakedAmount */\n      0x00\n      add\n      sload\n        /* \"submissions/Zora/Day27YieldFarming.sol\":4036:4085  uint256 amount = stakers[msg.sender].stakedAmount */\n      swap1\n      pop\n        /* \"submissions/Zora/Day27YieldFarming.sol\":4133:4134  0 */\n      0x00\n        /* \"submissions/Zora/Day27YieldFarming.sol\":4124:4130  amount */\n      dup2\n        /* \"submissions/Zora/Day27YieldFarming.sol\":4124:4134  amount > 0 */\n      gt\n        /* \"submissions/Zora/Day27YieldFarming.sol\":4116:4153  require(amount > 0, \"Nothing staked\") */\n      tag_139\n      jumpi\n      mload(0x40)\n      0x08c379a000000000000000000000000000000000000000000000000000000000\n      dup2\n      mstore\n      0x04\n      add\n      tag_140\n      swap1\n      tag_141\n      jump\t// in\n    tag_140:\n      mload(0x40)\n      dup1\n      swap2\n      sub\n      swap1\n      revert\n    tag_139:\n        /* \"submissions/Zora/Day27YieldFarming.sol\":4237:4238  0 */\n      0x00\n        /* \"submissions/Zora/Day27YieldFarming.sol\":4202:4209  stakers */\n      0x05\n        /* \"submissions/Zora/Day27YieldFarming.sol\":4202:4221  stakers[msg.sender] */\n      0x00\n        /* \"submissions/Zora/Day27YieldFarming.sol\":4210:4220  msg.sender */\n      caller\n        /* \"submissions/Zora/Day27YieldFarming.sol\":4202:4221  stakers[msg.sender] */\n      0xffffffffffffffffffffffffffffffffffffffff\n      and\n      0xffffffffffffffffffffffffffffffffffffffff\n      and\n      dup2\n      mstore\n      0x20\n      add\n      swap1\n      dup2\n      mstore\n      0x20\n      add\n      0x00\n      keccak256\n        /* \"submissions/Zora/Day27YieldFarming.sol\":4202:4234  stakers[msg.sender].stakedAmount */\n      0x00\n      add\n        /* \"submissions/Zora/Day27YieldFarming.sol\":4202:4238  stakers[msg.sender].stakedAmount = 0 */\n      dup2\n      swap1\n      sstore\n      pop\n        /* \"submissions/Zora/Day27YieldFarming.sol\":4282:4283  0 */\n      0x00\n        /* \"submissions/Zora/Day27YieldFarming.sol\":4249:4256  stakers */\n      0x05\n        /* \"submissions/Zora/Day27YieldFarming.sol\":4249:4268  stakers[msg.sender] */\n      0x00\n        /* \"submissions/Zora/Day27YieldFarming.sol\":4257:4267  msg.sender */\n      caller\n        /* \"submissions/Zora/Day27YieldFarming.sol\":4249:4268  stakers[msg.sender] */\n      0xffffffffffffffffffffffffffffffffffffffff\n      and\n      0xffffffffffffffffffffffffffffffffffffffff\n      and\n      dup2\n      mstore\n      0x20\n      add\n      swap1\n      dup2\n      mstore\n      0x20\n      add\n      0x00\n      keccak256\n        /* \"submissions/Zora/Day27YieldFarming.sol\":4249:4279  stakers[msg.sender].rewardDebt */\n      0x01\n      add\n        /* \"submissions/Zora/Day27YieldFarming.sol\":4249:4283  stakers[msg.sender].rewardDebt = 0 */\n      dup2\n      swap1\n      sstore\n      pop\n        /* \"submissions/Zora/Day27YieldFarming.sol\":4327:4342  block.timestamp */\n      timestamp\n        /* \"submissions/Zora/Day27YieldFarming.sol\":4294:4301  stakers */\n      0x05\n        /* \"submissions/Zora/Day27YieldFarming.sol\":4294:4313  stakers[msg.sender] */\n      0x00\n        /* \"submissions/Zora/Day27YieldFarming.sol\":4302:4312  msg.sender */\n      caller\n        /* \"submissions/Zora/Day27YieldFarming.sol\":4294:4313  stakers[msg.sender] */\n      0xffffffffffffffffffffffffffffffffffffffff\n      and\n      0xffffffffffffffffffffffffffffffffffffffff\n      and\n      dup2\n      mstore\n      0x20\n      add\n      swap1\n      dup2\n      mstore\n      0x20\n      add\n      0x00\n      keccak256\n        /* \"submissions/Zora/Day27YieldFarming.sol\":4294:4324  stakers[msg.sender].lastUpdate */\n      0x02\n      add\n        /* \"submissions/Zora/Day27YieldFarming.sol\":4294:4342  stakers[msg.sender].lastUpdate = block.timestamp */\n      dup2\n      swap1\n      sstore\n      pop\n        /* \"submissions/Zora/Day27YieldFarming.sol\":4355:4367  stakingToken */\n      0x01\n      0x00\n      swap1\n      sload\n      swap1\n      0x0100\n      exp\n      swap1\n      div\n      0xffffffffffffffffffffffffffffffffffffffff\n      and\n        /* \"submissions/Zora/Day27YieldFarming.sol\":4355:4376  stakingToken.transfer */\n      0xffffffffffffffffffffffffffffffffffffffff\n      and\n      0xa9059cbb\n        /* \"submissions/Zora/Day27YieldFarming.sol\":4377:4387  msg.sender */\n      caller\n        /* \"submissions/Zora/Day27YieldFarming.sol\":4389:4395  amount */\n      dup4\n        /* \"submissions/Zora/Day27YieldFarming.sol\":4355:4396  stakingToken.transfer(msg.sender, amount) */\n      mload(0x40)\n      dup4\n      0xffffffff\n      and\n      0xe0\n      shl\n      dup2\n      mstore\n      0x04\n      add\n      tag_142\n      swap3\n      swap2\n      swap1\n      tag_79\n      jump\t// in\n    tag_142:\n      0x20\n      mload(0x40)\n      dup1\n      dup4\n      sub\n      dup2\n      0x00\n      dup8\n      gas\n      call\n      iszero\n      dup1\n      iszero\n      tag_144\n      jumpi\n      returndatacopy(0x00, 0x00, returndatasize)\n      revert(0x00, returndatasize)\n    tag_144:\n      pop\n      pop\n      pop\n      pop\n      mload(0x40)\n      returndatasize\n      not(0x1f)\n      0x1f\n      dup3\n      add\n      and\n      dup3\n      add\n      dup1\n      0x40\n      mstore\n      pop\n      dup2\n      add\n      swap1\n      tag_145\n      swap2\n      swap1\n      tag_83\n      jump\t// in\n    tag_145:\n      pop\n        /* \"submissions/Zora/Day27YieldFarming.sol\":4432:4442  msg.sender */\n      caller\n        /* \"submissions/Zora/Day27YieldFarming.sol\":4414:4451  EmergencyWithdraw(msg.sender, amount) */\n      0xffffffffffffffffffffffffffffffffffffffff\n      and\n      0x5fafa99d0643513820be26656b45130b01e1c03062e1266bf36f88cbd3bd9695\n        /* \"submissions/Zora/Day27YieldFarming.sol\":4444:4450  amount */\n      dup3\n        /* \"submissions/Zora/Day27YieldFarming.sol\":4414:4451  EmergencyWithdraw(msg.sender, amount) */\n      mload(0x40)\n      tag_146\n      swap2\n      swap1\n      tag_27\n      jump\t// in\n    tag_146:\n      mload(0x40)\n      dup1\n      swap2\n      sub\n      swap1\n      log2\n        /* \"submissions/Zora/Day27YieldFarming.sol\":4025:4459  {... */\n      pop\n        /* \"@openzeppelin/contracts/security/ReentrancyGuard.sol\":2303:2323  _nonReentrantAfter() */\n      tag_147\n        /* \"@openzeppelin/contracts/security/ReentrancyGuard.sol\":2303:2321  _nonReentrantAfter */\n      tag_86\n        /* \"@openzeppelin/contracts/security/ReentrancyGuard.sol\":2303:2323  _nonReentrantAfter() */\n      jump\t// in\n    tag_147:\n        /* \"submissions/Zora/Day27YieldFarming.sol\":3974:4459  function emergencyWithdraw() external nonReentrant {... */\n      jump\t// out\n        /* \"submissions/Zora/Day27YieldFarming.sol\":4514:4702  function refillRewards(uint256 amount) external onlyOwner {... */\n    tag_60:\n        /* \"submissions/Zora/Day27YieldFarming.sol\":1757:1762  owner */\n      0x04\n      0x00\n      swap1\n      sload\n      swap1\n      0x0100\n      exp\n      swap1\n      div\n      0xffffffffffffffffffffffffffffffffffffffff\n      and\n        /* \"submissions/Zora/Day27YieldFarming.sol\":1743:1762  msg.sender == owner */\n      0xffffffffffffffffffffffffffffffffffffffff\n      and\n        /* \"submissions/Zora/Day27YieldFarming.sol\":1743:1753  msg.sender */\n      caller\n        /* \"submissions/Zora/Day27YieldFarming.sol\":1743:1762  msg.sender == owner */\n      0xffffffffffffffffffffffffffffffffffffffff\n      and\n      eq\n        /* \"submissions/Zora/Day27YieldFarming.sol\":1735:1780  require(msg.sender == owner, \"Not the owner\") */\n      tag_149\n      jumpi\n      mload(0x40)\n      0x08c379a000000000000000000000000000000000000000000000000000000000\n      dup2\n      mstore\n      0x04\n      add\n      tag_150\n      swap1\n      tag_151\n      jump\t// in\n    tag_150:\n      mload(0x40)\n      dup1\n      swap2\n      sub\n      swap1\n      revert\n    tag_149:\n        /* \"submissions/Zora/Day27YieldFarming.sol\":4583:4594  rewardToken */\n      0x02\n      0x00\n      swap1\n      sload\n      swap1\n      0x0100\n      exp\n      swap1\n      div\n      0xffffffffffffffffffffffffffffffffffffffff\n      and\n        /* \"submissions/Zora/Day27YieldFarming.sol\":4583:4607  rewardToken.transferFrom */\n      0xffffffffffffffffffffffffffffffffffffffff\n      and\n      0x23b872dd\n        /* \"submissions/Zora/Day27YieldFarming.sol\":4608:4618  msg.sender */\n      caller\n        /* \"submissions/Zora/Day27YieldFarming.sol\":4628:4632  this */\n      address\n        /* \"submissions/Zora/Day27YieldFarming.sol\":4635:4641  amount */\n      dup5\n        /* \"submissions/Zora/Day27YieldFarming.sol\":4583:4642  rewardToken.transferFrom(msg.sender, address(this), amount) */\n      mload(0x40)\n      dup5\n      0xffffffff\n      and\n      0xe0\n      shl\n      dup2\n      mstore\n      0x04\n      add\n      tag_153\n      swap4\n      swap3\n      swap2\n      swap1\n      tag_129\n      jump\t// in\n    tag_153:\n      0x20\n      mload(0x40)\n      dup1\n      dup4\n      sub\n      dup2\n      0x00\n      dup8\n      gas\n      call\n      iszero\n      dup1\n      iszero\n      tag_155\n      jumpi\n      returndatacopy(0x00, 0x00, returndatasize)\n      revert(0x00, returndatasize)\n    tag_155:\n      pop\n      pop\n      pop\n      pop\n      mload(0x40)\n      returndatasize\n      not(0x1f)\n      0x1f\n      dup3\n      add\n      and\n      dup3\n      add\n      dup1\n      0x40\n      mstore\n      pop\n      dup2\n      add\n      swap1\n      tag_156\n      swap2\n      swap1\n      tag_83\n      jump\t// in\n    tag_156:\n      pop\n        /* \"submissions/Zora/Day27YieldFarming.sol\":4675:4685  msg.sender */\n      caller\n        /* \"submissions/Zora/Day27YieldFarming.sol\":4660:4694  RewardRefilled(msg.sender, amount) */\n      0xffffffffffffffffffffffffffffffffffffffff\n      and\n      0x56f9f6669b4d516aba6435f89640a8f61ed69a9de006cf3b35fbb21caac37a7c\n        /* \"submissions/Zora/Day27YieldFarming.sol\":4687:4693  amount */\n      dup3\n        /* \"submissions/Zora/Day27YieldFarming.sol\":4660:4694  RewardRefilled(msg.sender, amount) */\n      mload(0x40)\n      tag_157\n      swap2\n      swap1\n      tag_27\n      jump\t// in\n    tag_157:\n      mload(0x40)\n      dup1\n      swap2\n      sub\n      swap1\n      log2\n        /* \"submissions/Zora/Day27YieldFarming.sol\":4514:4702  function refillRewards(uint256 amount) external onlyOwner {... */\n      pop\n      jump\t// out\n        /* \"submissions/Zora/Day27YieldFarming.sol\":865:890  IERC20 public rewardToken */\n    tag_62:\n      0x02\n      0x00\n      swap1\n      sload\n      swap1\n      0x0100\n      exp\n      swap1\n      div\n      0xffffffffffffffffffffffffffffffffffffffff\n      and\n      dup2\n      jump\t// out\n        /* \"@openzeppelin/contracts/security/ReentrancyGuard.sol\":2336:2623  function _nonReentrantBefore() private {... */\n    tag_66:\n        /* \"@openzeppelin/contracts/security/ReentrancyGuard.sol\":1759:1760  2 */\n      0x02\n        /* \"@openzeppelin/contracts/security/ReentrancyGuard.sol\":2468:2475  _status */\n      sload(0x00)\n        /* \"@openzeppelin/contracts/security/ReentrancyGuard.sol\":2468:2487  _status != _ENTERED */\n      sub\n        /* \"@openzeppelin/contracts/security/ReentrancyGuard.sol\":2460:2523  require(_status != _ENTERED, \"ReentrancyGuard: reentrant call\") */\n      tag_159\n      jumpi\n      mload(0x40)\n      0x08c379a000000000000000000000000000000000000000000000000000000000\n      dup2\n      mstore\n      0x04\n      add\n      tag_160\n      swap1\n      tag_161\n      jump\t// in\n    tag_160:\n      mload(0x40)\n      dup1\n      swap2\n      sub\n      swap1\n      revert\n    tag_159:\n        /* \"@openzeppelin/contracts/security/ReentrancyGuard.sol\":1759:1760  2 */\n      0x02\n        /* \"@openzeppelin/contracts/security/ReentrancyGuard.sol\":2598:2605  _status */\n      0x00\n        /* \"@openzeppelin/contracts/security/ReentrancyGuard.sol\":2598:2616  _status = _ENTERED */\n      dup2\n      swap1\n      sstore\n      pop\n        /* \"@openzeppelin/contracts/security/ReentrancyGuard.sol\":2336:2623  function _nonReentrantBefore() private {... */\n      jump\t// out\n        /* \"submissions/Zora/Day27YieldFarming.sol\":4748:5279  function updateRewards(address user) internal {... */\n    tag_75:\n        /* \"submissions/Zora/Day27YieldFarming.sol\":4805:4830  StakerInfo storage staker */\n      0x00\n        /* \"submissions/Zora/Day27YieldFarming.sol\":4833:4840  stakers */\n      0x05\n        /* \"submissions/Zora/Day27YieldFarming.sol\":4833:4846  stakers[user] */\n      0x00\n        /* \"submissions/Zora/Day27YieldFarming.sol\":4841:4845  user */\n      dup4\n        /* \"submissions/Zora/Day27YieldFarming.sol\":4833:4846  stakers[user] */\n      0xffffffffffffffffffffffffffffffffffffffff\n      and\n      0xffffffffffffffffffffffffffffffffffffffff\n      and\n      dup2\n      mstore\n      0x20\n      add\n      swap1\n      dup2\n      mstore\n      0x20\n      add\n      0x00\n      keccak256\n        /* \"submissions/Zora/Day27YieldFarming.sol\":4805:4846  StakerInfo storage staker = stakers[user] */\n      swap1\n      pop\n        /* \"submissions/Zora/Day27YieldFarming.sol\":4911:4912  0 */\n      0x00\n        /* \"submissions/Zora/Day27YieldFarming.sol\":4889:4895  staker */\n      dup2\n        /* \"submissions/Zora/Day27YieldFarming.sol\":4889:4908  staker.stakedAmount */\n      0x00\n      add\n      sload\n        /* \"submissions/Zora/Day27YieldFarming.sol\":4889:4912  staker.stakedAmount > 0 */\n      gt\n        /* \"submissions/Zora/Day27YieldFarming.sol\":4885:5224  if (staker.stakedAmount > 0) {... */\n      iszero\n      tag_163\n      jumpi\n        /* \"submissions/Zora/Day27YieldFarming.sol\":4929:4945  uint256 timeDiff */\n      0x00\n        /* \"submissions/Zora/Day27YieldFarming.sol\":4966:4972  staker */\n      dup2\n        /* \"submissions/Zora/Day27YieldFarming.sol\":4966:4983  staker.lastUpdate */\n      0x02\n      add\n      sload\n        /* \"submissions/Zora/Day27YieldFarming.sol\":4948:4963  block.timestamp */\n      timestamp\n        /* \"submissions/Zora/Day27YieldFarming.sol\":4948:4983  block.timestamp - staker.lastUpdate */\n      tag_164\n      swap2\n      swap1\n      tag_77\n      jump\t// in\n    tag_164:\n        /* \"submissions/Zora/Day27YieldFarming.sol\":4929:4983  uint256 timeDiff = block.timestamp - staker.lastUpdate */\n      swap1\n      pop\n        /* \"submissions/Zora/Day27YieldFarming.sol\":4998:5022  uint256 rewardMultiplier */\n      0x00\n        /* \"submissions/Zora/Day27YieldFarming.sol\":5031:5051  stakingTokenDecimals */\n      0x04\n      0x14\n      swap1\n      sload\n      swap1\n      0x0100\n      exp\n      swap1\n      div\n      0xff\n      and\n        /* \"submissions/Zora/Day27YieldFarming.sol\":5025:5027  10 */\n      0x0a\n        /* \"submissions/Zora/Day27YieldFarming.sol\":5025:5051  10 ** stakingTokenDecimals */\n      tag_165\n      swap2\n      swap1\n      tag_91\n      jump\t// in\n    tag_165:\n        /* \"submissions/Zora/Day27YieldFarming.sol\":4998:5051  uint256 rewardMultiplier = 10 ** stakingTokenDecimals */\n      swap1\n      pop\n        /* \"submissions/Zora/Day27YieldFarming.sol\":5066:5087  uint256 pendingReward */\n      0x00\n        /* \"submissions/Zora/Day27YieldFarming.sol\":5147:5163  rewardMultiplier */\n      dup2\n        /* \"submissions/Zora/Day27YieldFarming.sol\":5124:5130  staker */\n      dup5\n        /* \"submissions/Zora/Day27YieldFarming.sol\":5124:5143  staker.stakedAmount */\n      0x00\n      add\n      sload\n        /* \"submissions/Zora/Day27YieldFarming.sol\":5102:5121  rewardRatePerSecond */\n      sload(0x03)\n        /* \"submissions/Zora/Day27YieldFarming.sol\":5091:5099  timeDiff */\n      dup6\n        /* \"submissions/Zora/Day27YieldFarming.sol\":5091:5121  timeDiff * rewardRatePerSecond */\n      tag_166\n      swap2\n      swap1\n      tag_93\n      jump\t// in\n    tag_166:\n        /* \"submissions/Zora/Day27YieldFarming.sol\":5091:5143  timeDiff * rewardRatePerSecond * staker.stakedAmount */\n      tag_167\n      swap2\n      swap1\n      tag_93\n      jump\t// in\n    tag_167:\n        /* \"submissions/Zora/Day27YieldFarming.sol\":5090:5163  (timeDiff * rewardRatePerSecond * staker.stakedAmount) / rewardMultiplier */\n      tag_168\n      swap2\n      swap1\n      tag_96\n      jump\t// in\n    tag_168:\n        /* \"submissions/Zora/Day27YieldFarming.sol\":5066:5163  uint256 pendingReward = (timeDiff * rewardRatePerSecond * staker.stakedAmount) / rewardMultiplier */\n      swap1\n      pop\n        /* \"submissions/Zora/Day27YieldFarming.sol\":5199:5212  pendingReward */\n      dup1\n        /* \"submissions/Zora/Day27YieldFarming.sol\":5178:5184  staker */\n      dup5\n        /* \"submissions/Zora/Day27YieldFarming.sol\":5178:5195  staker.rewardDebt */\n      0x01\n      add\n      0x00\n        /* \"submissions/Zora/Day27YieldFarming.sol\":5178:5212  staker.rewardDebt += pendingReward */\n      dup3\n      dup3\n      sload\n      tag_169\n      swap2\n      swap1\n      tag_98\n      jump\t// in\n    tag_169:\n      swap3\n      pop\n      pop\n      dup2\n      swap1\n      sstore\n      pop\n        /* \"submissions/Zora/Day27YieldFarming.sol\":4914:5224  {... */\n      pop\n      pop\n      pop\n        /* \"submissions/Zora/Day27YieldFarming.sol\":4885:5224  if (staker.stakedAmount > 0) {... */\n    tag_163:\n        /* \"submissions/Zora/Day27YieldFarming.sol\":5256:5271  block.timestamp */\n      timestamp\n        /* \"submissions/Zora/Day27YieldFarming.sol\":5236:5242  staker */\n      dup2\n        /* \"submissions/Zora/Day27YieldFarming.sol\":5236:5253  staker.lastUpdate */\n      0x02\n      add\n        /* \"submissions/Zora/Day27YieldFarming.sol\":5236:5271  staker.lastUpdate = block.timestamp */\n      dup2\n      swap1\n      sstore\n      pop\n        /* \"submissions/Zora/Day27YieldFarming.sol\":4794:5279  {... */\n      pop\n        /* \"submissions/Zora/Day27YieldFarming.sol\":4748:5279  function updateRewards(address user) internal {... */\n      pop\n      jump\t// out\n        /* \"@openzeppelin/contracts/security/ReentrancyGuard.sol\":2629:2838  function _nonReentrantAfter() private {... */\n    tag_86:\n        /* \"@openzeppelin/contracts/security/ReentrancyGuard.sol\":1716:1717  1 */\n      0x01\n        /* \"@openzeppelin/contracts/security/ReentrancyGuard.sol\":2809:2816  _status */\n      0x00\n        /* \"@openzeppelin/contracts/security/ReentrancyGuard.sol\":2809:2831  _status = _NOT_ENTERED */\n      dup2\n      swap1\n      sstore\n      pop\n        /* \"@openzeppelin/contracts/security/ReentrancyGuard.sol\":2629:2838  function _nonReentrantAfter() private {... */\n      jump\t// out\n        /* \"#utility.yul\":88:205   */\n    tag_172:\n        /* \"#utility.yul\":197:198   */\n      0x00\n        /* \"#utility.yul\":194:195   */\n      0x00\n        /* \"#utility.yul\":187:199   */\n      revert\n        /* \"#utility.yul\":334:411   */\n    tag_174:\n        /* \"#utility.yul\":371:378   */\n      0x00\n        /* \"#utility.yul\":400:405   */\n      dup2\n        /* \"#utility.yul\":389:405   */\n      swap1\n      pop\n        /* \"#utility.yul\":334:411   */\n      swap2\n      swap1\n      pop\n      jump\t// out\n        /* \"#utility.yul\":417:539   */\n    tag_175:\n        /* \"#utility.yul\":490:514   */\n      tag_222\n        /* \"#utility.yul\":508:513   */\n      dup2\n        /* \"#utility.yul\":490:514   */\n      tag_174\n      jump\t// in\n    tag_222:\n        /* \"#utility.yul\":483:488   */\n      dup2\n        /* \"#utility.yul\":480:515   */\n      eq\n        /* \"#utility.yul\":470:533   */\n      tag_223\n      jumpi\n        /* \"#utility.yul\":529:530   */\n      0x00\n        /* \"#utility.yul\":526:527   */\n      0x00\n        /* \"#utility.yul\":519:531   */\n      revert\n        /* \"#utility.yul\":470:533   */\n    tag_223:\n        /* \"#utility.yul\":417:539   */\n      pop\n      jump\t// out\n        /* \"#utility.yul\":545:684   */\n    tag_176:\n        /* \"#utility.yul\":591:596   */\n      0x00\n        /* \"#utility.yul\":629:635   */\n      dup2\n        /* \"#utility.yul\":616:636   */\n      calldataload\n        /* \"#utility.yul\":607:636   */\n      swap1\n      pop\n        /* \"#utility.yul\":645:678   */\n      tag_225\n        /* \"#utility.yul\":672:677   */\n      dup2\n        /* \"#utility.yul\":645:678   */\n      tag_175\n      jump\t// in\n    tag_225:\n        /* \"#utility.yul\":545:684   */\n      swap3\n      swap2\n      pop\n      pop\n      jump\t// out\n        /* \"#utility.yul\":690:1019   */\n    tag_20:\n        /* \"#utility.yul\":749:755   */\n      0x00\n        /* \"#utility.yul\":798:800   */\n      0x20\n        /* \"#utility.yul\":786:795   */\n      dup3\n        /* \"#utility.yul\":777:784   */\n      dup5\n        /* \"#utility.yul\":773:796   */\n      sub\n        /* \"#utility.yul\":769:801   */\n      slt\n        /* \"#utility.yul\":766:885   */\n      iszero\n      tag_227\n      jumpi\n        /* \"#utility.yul\":804:883   */\n      tag_228\n      tag_172\n      jump\t// in\n    tag_228:\n        /* \"#utility.yul\":766:885   */\n    tag_227:\n        /* \"#utility.yul\":924:925   */\n      0x00\n        /* \"#utility.yul\":949:1002   */\n      tag_229\n        /* \"#utility.yul\":994:1001   */\n      dup5\n        /* \"#utility.yul\":985:991   */\n      dup3\n        /* \"#utility.yul\":974:983   */\n      dup6\n        /* \"#utility.yul\":970:992   */\n      add\n        /* \"#utility.yul\":949:1002   */\n      tag_176\n      jump\t// in\n    tag_229:\n        /* \"#utility.yul\":939:1002   */\n      swap2\n      pop\n        /* \"#utility.yul\":895:1012   */\n      pop\n        /* \"#utility.yul\":690:1019   */\n      swap3\n      swap2\n      pop\n      pop\n      jump\t// out\n        /* \"#utility.yul\":1025:1151   */\n    tag_177:\n        /* \"#utility.yul\":1062:1069   */\n      0x00\n        /* \"#utility.yul\":1102:1144   */\n      0xffffffffffffffffffffffffffffffffffffffff\n        /* \"#utility.yul\":1095:1100   */\n      dup3\n        /* \"#utility.yul\":1091:1145   */\n      and\n        /* \"#utility.yul\":1080:1145   */\n      swap1\n      pop\n        /* \"#utility.yul\":1025:1151   */\n      swap2\n      swap1\n      pop\n      jump\t// out\n        /* \"#utility.yul\":1157:1253   */\n    tag_178:\n        /* \"#utility.yul\":1194:1201   */\n      0x00\n        /* \"#utility.yul\":1223:1247   */\n      tag_232\n        /* \"#utility.yul\":1241:1246   */\n      dup3\n        /* \"#utility.yul\":1223:1247   */\n      tag_177\n      jump\t// in\n    tag_232:\n        /* \"#utility.yul\":1212:1247   */\n      swap1\n      pop\n        /* \"#utility.yul\":1157:1253   */\n      swap2\n      swap1\n      pop\n      jump\t// out\n        /* \"#utility.yul\":1259:1381   */\n    tag_179:\n        /* \"#utility.yul\":1332:1356   */\n      tag_234\n        /* \"#utility.yul\":1350:1355   */\n      dup2\n        /* \"#utility.yul\":1332:1356   */\n      tag_178\n      jump\t// in\n    tag_234:\n        /* \"#utility.yul\":1325:1330   */\n      dup2\n        /* \"#utility.yul\":1322:1357   */\n      eq\n        /* \"#utility.yul\":1312:1375   */\n      tag_235\n      jumpi\n        /* \"#utility.yul\":1371:1372   */\n      0x00\n        /* \"#utility.yul\":1368:1369   */\n      0x00\n        /* \"#utility.yul\":1361:1373   */\n      revert\n        /* \"#utility.yul\":1312:1375   */\n    tag_235:\n        /* \"#utility.yul\":1259:1381   */\n      pop\n      jump\t// out\n        /* \"#utility.yul\":1387:1526   */\n    tag_180:\n        /* \"#utility.yul\":1433:1438   */\n      0x00\n        /* \"#utility.yul\":1471:1477   */\n      dup2\n        /* \"#utility.yul\":1458:1478   */\n      calldataload\n        /* \"#utility.yul\":1449:1478   */\n      swap1\n      pop\n        /* \"#utility.yul\":1487:1520   */\n      tag_237\n        /* \"#utility.yul\":1514:1519   */\n      dup2\n        /* \"#utility.yul\":1487:1520   */\n      tag_179\n      jump\t// in\n    tag_237:\n        /* \"#utility.yul\":1387:1526   */\n      swap3\n      swap2\n      pop\n      pop\n      jump\t// out\n        /* \"#utility.yul\":1532:1861   */\n    tag_24:\n        /* \"#utility.yul\":1591:1597   */\n      0x00\n        /* \"#utility.yul\":1640:1642   */\n      0x20\n        /* \"#utility.yul\":1628:1637   */\n      dup3\n        /* \"#utility.yul\":1619:1626   */\n      dup5\n        /* \"#utility.yul\":1615:1638   */\n      sub\n        /* \"#utility.yul\":1611:1643   */\n      slt\n        /* \"#utility.yul\":1608:1727   */\n      iszero\n      tag_239\n      jumpi\n        /* \"#utility.yul\":1646:1725   */\n      tag_240\n      tag_172\n      jump\t// in\n    tag_240:\n        /* \"#utility.yul\":1608:1727   */\n    tag_239:\n        /* \"#utility.yul\":1766:1767   */\n      0x00\n        /* \"#utility.yul\":1791:1844   */\n      tag_241\n        /* \"#utility.yul\":1836:1843   */\n      dup5\n        /* \"#utility.yul\":1827:1833   */\n      dup3\n        /* \"#utility.yul\":1816:1825   */\n      dup6\n        /* \"#utility.yul\":1812:1834   */\n      add\n        /* \"#utility.yul\":1791:1844   */\n      tag_180\n      jump\t// in\n    tag_241:\n        /* \"#utility.yul\":1781:1844   */\n      swap2\n      pop\n        /* \"#utility.yul\":1737:1854   */\n      pop\n        /* \"#utility.yul\":1532:1861   */\n      swap3\n      swap2\n      pop\n      pop\n      jump\t// out\n        /* \"#utility.yul\":1867:1985   */\n    tag_181:\n        /* \"#utility.yul\":1954:1978   */\n      tag_243\n        /* \"#utility.yul\":1972:1977   */\n      dup2\n        /* \"#utility.yul\":1954:1978   */\n      tag_174\n      jump\t// in\n    tag_243:\n        /* \"#utility.yul\":1949:1952   */\n      dup3\n        /* \"#utility.yul\":1942:1979   */\n      mstore\n        /* \"#utility.yul\":1867:1985   */\n      pop\n      pop\n      jump\t// out\n        /* \"#utility.yul\":1991:2213   */\n    tag_27:\n        /* \"#utility.yul\":2084:2088   */\n      0x00\n        /* \"#utility.yul\":2122:2124   */\n      0x20\n        /* \"#utility.yul\":2111:2120   */\n      dup3\n        /* \"#utility.yul\":2107:2125   */\n      add\n        /* \"#utility.yul\":2099:2125   */\n      swap1\n      pop\n        /* \"#utility.yul\":2135:2206   */\n      tag_245\n        /* \"#utility.yul\":2203:2204   */\n      0x00\n        /* \"#utility.yul\":2192:2201   */\n      dup4\n        /* \"#utility.yul\":2188:2205   */\n      add\n        /* \"#utility.yul\":2179:2185   */\n      dup5\n        /* \"#utility.yul\":2135:2206   */\n      tag_181\n      jump\t// in\n    tag_245:\n        /* \"#utility.yul\":1991:2213   */\n      swap3\n      swap2\n      pop\n      pop\n      jump\t// out\n        /* \"#utility.yul\":2219:2305   */\n    tag_182:\n        /* \"#utility.yul\":2254:2261   */\n      0x00\n        /* \"#utility.yul\":2294:2298   */\n      0xff\n        /* \"#utility.yul\":2287:2292   */\n      dup3\n        /* \"#utility.yul\":2283:2299   */\n      and\n        /* \"#utility.yul\":2272:2299   */\n      swap1\n      pop\n        /* \"#utility.yul\":2219:2305   */\n      swap2\n      swap1\n      pop\n      jump\t// out\n        /* \"#utility.yul\":2311:2423   */\n    tag_183:\n        /* \"#utility.yul\":2394:2416   */\n      tag_248\n        /* \"#utility.yul\":2410:2415   */\n      dup2\n        /* \"#utility.yul\":2394:2416   */\n      tag_182\n      jump\t// in\n    tag_248:\n        /* \"#utility.yul\":2389:2392   */\n      dup3\n        /* \"#utility.yul\":2382:2417   */\n      mstore\n        /* \"#utility.yul\":2311:2423   */\n      pop\n      pop\n      jump\t// out\n        /* \"#utility.yul\":2429:2643   */\n    tag_33:\n        /* \"#utility.yul\":2518:2522   */\n      0x00\n        /* \"#utility.yul\":2556:2558   */\n      0x20\n        /* \"#utility.yul\":2545:2554   */\n      dup3\n        /* \"#utility.yul\":2541:2559   */\n      add\n        /* \"#utility.yul\":2533:2559   */\n      swap1\n      pop\n        /* \"#utility.yul\":2569:2636   */\n      tag_250\n        /* \"#utility.yul\":2633:2634   */\n      0x00\n        /* \"#utility.yul\":2622:2631   */\n      dup4\n        /* \"#utility.yul\":2618:2635   */\n      add\n        /* \"#utility.yul\":2609:2615   */\n      dup5\n        /* \"#utility.yul\":2569:2636   */\n      tag_183\n      jump\t// in\n    tag_250:\n        /* \"#utility.yul\":2429:2643   */\n      swap3\n      swap2\n      pop\n      pop\n      jump\t// out\n        /* \"#utility.yul\":2649:2709   */\n    tag_184:\n        /* \"#utility.yul\":2677:2680   */\n      0x00\n        /* \"#utility.yul\":2698:2703   */\n      dup2\n        /* \"#utility.yul\":2691:2703   */\n      swap1\n      pop\n        /* \"#utility.yul\":2649:2709   */\n      swap2\n      swap1\n      pop\n      jump\t// out\n        /* \"#utility.yul\":2715:2857   */\n    tag_185:\n        /* \"#utility.yul\":2765:2774   */\n      0x00\n        /* \"#utility.yul\":2798:2851   */\n      tag_253\n        /* \"#utility.yul\":2816:2850   */\n      tag_254\n        /* \"#utility.yul\":2825:2849   */\n      tag_255\n        /* \"#utility.yul\":2843:2848   */\n      dup5\n        /* \"#utility.yul\":2825:2849   */\n      tag_177\n      jump\t// in\n    tag_255:\n        /* \"#utility.yul\":2816:2850   */\n      tag_184\n      jump\t// in\n    tag_254:\n        /* \"#utility.yul\":2798:2851   */\n      tag_177\n      jump\t// in\n    tag_253:\n        /* \"#utility.yul\":2785:2851   */\n      swap1\n      pop\n        /* \"#utility.yul\":2715:2857   */\n      swap2\n      swap1\n      pop\n      jump\t// out\n        /* \"#utility.yul\":2863:2989   */\n    tag_186:\n        /* \"#utility.yul\":2913:2922   */\n      0x00\n        /* \"#utility.yul\":2946:2983   */\n      tag_257\n        /* \"#utility.yul\":2977:2982   */\n      dup3\n        /* \"#utility.yul\":2946:2983   */\n      tag_185\n      jump\t// in\n    tag_257:\n        /* \"#utility.yul\":2933:2983   */\n      swap1\n      pop\n        /* \"#utility.yul\":2863:2989   */\n      swap2\n      swap1\n      pop\n      jump\t// out\n        /* \"#utility.yul\":2995:3135   */\n    tag_187:\n        /* \"#utility.yul\":3059:3068   */\n      0x00\n        /* \"#utility.yul\":3092:3129   */\n      tag_259\n        /* \"#utility.yul\":3123:3128   */\n      dup3\n        /* \"#utility.yul\":3092:3129   */\n      tag_186\n      jump\t// in\n    tag_259:\n        /* \"#utility.yul\":3079:3129   */\n      swap1\n      pop\n        /* \"#utility.yul\":2995:3135   */\n      swap2\n      swap1\n      pop\n      jump\t// out\n        /* \"#utility.yul\":3141:3300   */\n    tag_188:\n        /* \"#utility.yul\":3242:3293   */\n      tag_261\n        /* \"#utility.yul\":3287:3292   */\n      dup2\n        /* \"#utility.yul\":3242:3293   */\n      tag_187\n      jump\t// in\n    tag_261:\n        /* \"#utility.yul\":3237:3240   */\n      dup3\n        /* \"#utility.yul\":3230:3294   */\n      mstore\n        /* \"#utility.yul\":3141:3300   */\n      pop\n      pop\n      jump\t// out\n        /* \"#utility.yul\":3306:3556   */\n    tag_40:\n        /* \"#utility.yul\":3413:3417   */\n      0x00\n        /* \"#utility.yul\":3451:3453   */\n      0x20\n        /* \"#utility.yul\":3440:3449   */\n      dup3\n        /* \"#utility.yul\":3436:3454   */\n      add\n        /* \"#utility.yul\":3428:3454   */\n      swap1\n      pop\n        /* \"#utility.yul\":3464:3549   */\n      tag_263\n        /* \"#utility.yul\":3546:3547   */\n      0x00\n        /* \"#utility.yul\":3535:3544   */\n      dup4\n        /* \"#utility.yul\":3531:3548   */\n      add\n        /* \"#utility.yul\":3522:3528   */\n      dup5\n        /* \"#utility.yul\":3464:3549   */\n      tag_188\n      jump\t// in\n    tag_263:\n        /* \"#utility.yul\":3306:3556   */\n      swap3\n      swap2\n      pop\n      pop\n      jump\t// out\n        /* \"#utility.yul\":3562:3680   */\n    tag_189:\n        /* \"#utility.yul\":3649:3673   */\n      tag_265\n        /* \"#utility.yul\":3667:3672   */\n      dup2\n        /* \"#utility.yul\":3649:3673   */\n      tag_178\n      jump\t// in\n    tag_265:\n        /* \"#utility.yul\":3644:3647   */\n      dup3\n        /* \"#utility.yul\":3637:3674   */\n      mstore\n        /* \"#utility.yul\":3562:3680   */\n      pop\n      pop\n      jump\t// out\n        /* \"#utility.yul\":3686:3908   */\n    tag_44:\n        /* \"#utility.yul\":3779:3783   */\n      0x00\n        /* \"#utility.yul\":3817:3819   */\n      0x20\n        /* \"#utility.yul\":3806:3815   */\n      dup3\n        /* \"#utility.yul\":3802:3820   */\n      add\n        /* \"#utility.yul\":3794:3820   */\n      swap1\n      pop\n        /* \"#utility.yul\":3830:3901   */\n      tag_267\n        /* \"#utility.yul\":3898:3899   */\n      0x00\n        /* \"#utility.yul\":3887:3896   */\n      dup4\n        /* \"#utility.yul\":3883:3900   */\n      add\n        /* \"#utility.yul\":3874:3880   */\n      dup5\n        /* \"#utility.yul\":3830:3901   */\n      tag_189\n      jump\t// in\n    tag_267:\n        /* \"#utility.yul\":3686:3908   */\n      swap3\n      swap2\n      pop\n      pop\n      jump\t// out\n        /* \"#utility.yul\":3914:4356   */\n    tag_49:\n        /* \"#utility.yul\":4063:4067   */\n      0x00\n        /* \"#utility.yul\":4101:4103   */\n      0x60\n        /* \"#utility.yul\":4090:4099   */\n      dup3\n        /* \"#utility.yul\":4086:4104   */\n      add\n        /* \"#utility.yul\":4078:4104   */\n      swap1\n      pop\n        /* \"#utility.yul\":4114:4185   */\n      tag_269\n        /* \"#utility.yul\":4182:4183   */\n      0x00\n        /* \"#utility.yul\":4171:4180   */\n      dup4\n        /* \"#utility.yul\":4167:4184   */\n      add\n        /* \"#utility.yul\":4158:4164   */\n      dup7\n        /* \"#utility.yul\":4114:4185   */\n      tag_181\n      jump\t// in\n    tag_269:\n        /* \"#utility.yul\":4195:4267   */\n      tag_270\n        /* \"#utility.yul\":4263:4265   */\n      0x20\n        /* \"#utility.yul\":4252:4261   */\n      dup4\n        /* \"#utility.yul\":4248:4266   */\n      add\n        /* \"#utility.yul\":4239:4245   */\n      dup6\n        /* \"#utility.yul\":4195:4267   */\n      tag_181\n      jump\t// in\n    tag_270:\n        /* \"#utility.yul\":4277:4349   */\n      tag_271\n        /* \"#utility.yul\":4345:4347   */\n      0x40\n        /* \"#utility.yul\":4334:4343   */\n      dup4\n        /* \"#utility.yul\":4330:4348   */\n      add\n        /* \"#utility.yul\":4321:4327   */\n      dup5\n        /* \"#utility.yul\":4277:4349   */\n      tag_181\n      jump\t// in\n    tag_271:\n        /* \"#utility.yul\":3914:4356   */\n      swap5\n      swap4\n      pop\n      pop\n      pop\n      pop\n      jump\t// out\n        /* \"#utility.yul\":4362:4531   */\n    tag_190:\n        /* \"#utility.yul\":4446:4457   */\n      0x00\n        /* \"#utility.yul\":4480:4486   */\n      dup3\n        /* \"#utility.yul\":4475:4478   */\n      dup3\n        /* \"#utility.yul\":4468:4487   */\n      mstore\n        /* \"#utility.yul\":4520:4524   */\n      0x20\n        /* \"#utility.yul\":4515:4518   */\n      dup3\n        /* \"#utility.yul\":4511:4525   */\n      add\n        /* \"#utility.yul\":4496:4525   */\n      swap1\n      pop\n        /* \"#utility.yul\":4362:4531   */\n      swap3\n      swap2\n      pop\n      pop\n      jump\t// out\n        /* \"#utility.yul\":4537:4703   */\n    tag_191:\n        /* \"#utility.yul\":4677:4695   */\n      0x43616e6e6f7420756e7374616b65203000000000000000000000000000000000\n        /* \"#utility.yul\":4673:4674   */\n      0x00\n        /* \"#utility.yul\":4665:4671   */\n      dup3\n        /* \"#utility.yul\":4661:4675   */\n      add\n        /* \"#utility.yul\":4654:4696   */\n      mstore\n        /* \"#utility.yul\":4537:4703   */\n      pop\n      jump\t// out\n        /* \"#utility.yul\":4709:5075   */\n    tag_192:\n        /* \"#utility.yul\":4851:4854   */\n      0x00\n        /* \"#utility.yul\":4872:4939   */\n      tag_275\n        /* \"#utility.yul\":4936:4938   */\n      0x10\n        /* \"#utility.yul\":4931:4934   */\n      dup4\n        /* \"#utility.yul\":4872:4939   */\n      tag_190\n      jump\t// in\n    tag_275:\n        /* \"#utility.yul\":4865:4939   */\n      swap2\n      pop\n        /* \"#utility.yul\":4948:5041   */\n      tag_276\n        /* \"#utility.yul\":5037:5040   */\n      dup3\n        /* \"#utility.yul\":4948:5041   */\n      tag_191\n      jump\t// in\n    tag_276:\n        /* \"#utility.yul\":5066:5068   */\n      0x20\n        /* \"#utility.yul\":5061:5064   */\n      dup3\n        /* \"#utility.yul\":5057:5069   */\n      add\n        /* \"#utility.yul\":5050:5069   */\n      swap1\n      pop\n        /* \"#utility.yul\":4709:5075   */\n      swap2\n      swap1\n      pop\n      jump\t// out\n        /* \"#utility.yul\":5081:5500   */\n    tag_70:\n        /* \"#utility.yul\":5247:5251   */\n      0x00\n        /* \"#utility.yul\":5285:5287   */\n      0x20\n        /* \"#utility.yul\":5274:5283   */\n      dup3\n        /* \"#utility.yul\":5270:5288   */\n      add\n        /* \"#utility.yul\":5262:5288   */\n      swap1\n      pop\n        /* \"#utility.yul\":5334:5343   */\n      dup2\n        /* \"#utility.yul\":5328:5332   */\n      dup2\n        /* \"#utility.yul\":5324:5344   */\n      sub\n        /* \"#utility.yul\":5320:5321   */\n      0x00\n        /* \"#utility.yul\":5309:5318   */\n      dup4\n        /* \"#utility.yul\":5305:5322   */\n      add\n        /* \"#utility.yul\":5298:5345   */\n      mstore\n        /* \"#utility.yul\":5362:5493   */\n      tag_278\n        /* \"#utility.yul\":5488:5492   */\n      dup2\n        /* \"#utility.yul\":5362:5493   */\n      tag_192\n      jump\t// in\n    tag_278:\n        /* \"#utility.yul\":5354:5493   */\n      swap1\n      pop\n        /* \"#utility.yul\":5081:5500   */\n      swap2\n      swap1\n      pop\n      jump\t// out\n        /* \"#utility.yul\":5506:5673   */\n    tag_193:\n        /* \"#utility.yul\":5646:5665   */\n      0x4e6f7420656e6f756768207374616b6564000000000000000000000000000000\n        /* \"#utility.yul\":5642:5643   */\n      0x00\n        /* \"#utility.yul\":5634:5640   */\n      dup3\n        /* \"#utility.yul\":5630:5644   */\n      add\n        /* \"#utility.yul\":5623:5666   */\n      mstore\n        /* \"#utility.yul\":5506:5673   */\n      pop\n      jump\t// out\n        /* \"#utility.yul\":5679:6045   */\n    tag_194:\n        /* \"#utility.yul\":5821:5824   */\n      0x00\n        /* \"#utility.yul\":5842:5909   */\n      tag_281\n        /* \"#utility.yul\":5906:5908   */\n      0x11\n        /* \"#utility.yul\":5901:5904   */\n      dup4\n        /* \"#utility.yul\":5842:5909   */\n      tag_190\n      jump\t// in\n    tag_281:\n        /* \"#utility.yul\":5835:5909   */\n      swap2\n      pop\n        /* \"#utility.yul\":5918:6011   */\n      tag_282\n        /* \"#utility.yul\":6007:6010   */\n      dup3\n        /* \"#utility.yul\":5918:6011   */\n      tag_193\n      jump\t// in\n    tag_282:\n        /* \"#utility.yul\":6036:6038   */\n      0x20\n        /* \"#utility.yul\":6031:6034   */\n      dup3\n        /* \"#utility.yul\":6027:6039   */\n      add\n        /* \"#utility.yul\":6020:6039   */\n      swap1\n      pop\n        /* \"#utility.yul\":5679:6045   */\n      swap2\n      swap1\n      pop\n      jump\t// out\n        /* \"#utility.yul\":6051:6470   */\n    tag_73:\n        /* \"#utility.yul\":6217:6221   */\n      0x00\n        /* \"#utility.yul\":6255:6257   */\n      0x20\n        /* \"#utility.yul\":6244:6253   */\n      dup3\n        /* \"#utility.yul\":6240:6258   */\n      add\n        /* \"#utility.yul\":6232:6258   */\n      swap1\n      pop\n        /* \"#utility.yul\":6304:6313   */\n      dup2\n        /* \"#utility.yul\":6298:6302   */\n      dup2\n        /* \"#utility.yul\":6294:6314   */\n      sub\n        /* \"#utility.yul\":6290:6291   */\n      0x00\n        /* \"#utility.yul\":6279:6288   */\n      dup4\n        /* \"#utility.yul\":6275:6292   */\n      add\n        /* \"#utility.yul\":6268:6315   */\n      mstore\n        /* \"#utility.yul\":6332:6463   */\n      tag_284\n        /* \"#utility.yul\":6458:6462   */\n      dup2\n        /* \"#utility.yul\":6332:6463   */\n      tag_194\n      jump\t// in\n    tag_284:\n        /* \"#utility.yul\":6324:6463   */\n      swap1\n      pop\n        /* \"#utility.yul\":6051:6470   */\n      swap2\n      swap1\n      pop\n      jump\t// out\n        /* \"#utility.yul\":6476:6656   */\n    tag_195:\n        /* \"#utility.yul\":6524:6601   */\n      0x4e487b7100000000000000000000000000000000000000000000000000000000\n        /* \"#utility.yul\":6521:6522   */\n      0x00\n        /* \"#utility.yul\":6514:6602   */\n      mstore\n        /* \"#utility.yul\":6621:6625   */\n      0x11\n        /* \"#utility.yul\":6618:6619   */\n      0x04\n        /* \"#utility.yul\":6611:6626   */\n      mstore\n        /* \"#utility.yul\":6645:6649   */\n      0x24\n        /* \"#utility.yul\":6642:6643   */\n      0x00\n        /* \"#utility.yul\":6635:6650   */\n      revert\n        /* \"#utility.yul\":6662:6856   */\n    tag_77:\n        /* \"#utility.yul\":6702:6706   */\n      0x00\n        /* \"#utility.yul\":6722:6742   */\n      tag_287\n        /* \"#utility.yul\":6740:6741   */\n      dup3\n        /* \"#utility.yul\":6722:6742   */\n      tag_174\n      jump\t// in\n    tag_287:\n        /* \"#utility.yul\":6717:6742   */\n      swap2\n      pop\n        /* \"#utility.yul\":6756:6776   */\n      tag_288\n        /* \"#utility.yul\":6774:6775   */\n      dup4\n        /* \"#utility.yul\":6756:6776   */\n      tag_174\n      jump\t// in\n    tag_288:\n        /* \"#utility.yul\":6751:6776   */\n      swap3\n      pop\n        /* \"#utility.yul\":6800:6801   */\n      dup3\n        /* \"#utility.yul\":6797:6798   */\n      dup3\n        /* \"#utility.yul\":6793:6802   */\n      sub\n        /* \"#utility.yul\":6785:6802   */\n      swap1\n      pop\n        /* \"#utility.yul\":6824:6825   */\n      dup2\n        /* \"#utility.yul\":6818:6822   */\n      dup2\n        /* \"#utility.yul\":6815:6826   */\n      gt\n        /* \"#utility.yul\":6812:6849   */\n      iszero\n      tag_289\n      jumpi\n        /* \"#utility.yul\":6829:6847   */\n      tag_290\n      tag_195\n      jump\t// in\n    tag_290:\n        /* \"#utility.yul\":6812:6849   */\n    tag_289:\n        /* \"#utility.yul\":6662:6856   */\n      swap3\n      swap2\n      pop\n      pop\n      jump\t// out\n        /* \"#utility.yul\":6862:7194   */\n    tag_79:\n        /* \"#utility.yul\":6983:6987   */\n      0x00\n        /* \"#utility.yul\":7021:7023   */\n      0x40\n        /* \"#utility.yul\":7010:7019   */\n      dup3\n        /* \"#utility.yul\":7006:7024   */\n      add\n        /* \"#utility.yul\":6998:7024   */\n      swap1\n      pop\n        /* \"#utility.yul\":7034:7105   */\n      tag_292\n        /* \"#utility.yul\":7102:7103   */\n      0x00\n        /* \"#utility.yul\":7091:7100   */\n      dup4\n        /* \"#utility.yul\":7087:7104   */\n      add\n        /* \"#utility.yul\":7078:7084   */\n      dup6\n        /* \"#utility.yul\":7034:7105   */\n      tag_189\n      jump\t// in\n    tag_292:\n        /* \"#utility.yul\":7115:7187   */\n      tag_293\n        /* \"#utility.yul\":7183:7185   */\n      0x20\n        /* \"#utility.yul\":7172:7181   */\n      dup4\n        /* \"#utility.yul\":7168:7186   */\n      add\n        /* \"#utility.yul\":7159:7165   */\n      dup5\n        /* \"#utility.yul\":7115:7187   */\n      tag_181\n      jump\t// in\n    tag_293:\n        /* \"#utility.yul\":6862:7194   */\n      swap4\n      swap3\n      pop\n      pop\n      pop\n      jump\t// out\n        /* \"#utility.yul\":7200:7290   */\n    tag_196:\n        /* \"#utility.yul\":7234:7241   */\n      0x00\n        /* \"#utility.yul\":7277:7282   */\n      dup2\n        /* \"#utility.yul\":7270:7283   */\n      iszero\n        /* \"#utility.yul\":7263:7284   */\n      iszero\n        /* \"#utility.yul\":7252:7284   */\n      swap1\n      pop\n        /* \"#utility.yul\":7200:7290   */\n      swap2\n      swap1\n      pop\n      jump\t// out\n        /* \"#utility.yul\":7296:7412   */\n    tag_197:\n        /* \"#utility.yul\":7366:7387   */\n      tag_296\n        /* \"#utility.yul\":7381:7386   */\n      dup2\n        /* \"#utility.yul\":7366:7387   */\n      tag_196\n      jump\t// in\n    tag_296:\n        /* \"#utility.yul\":7359:7364   */\n      dup2\n        /* \"#utility.yul\":7356:7388   */\n      eq\n        /* \"#utility.yul\":7346:7406   */\n      tag_297\n      jumpi\n        /* \"#utility.yul\":7402:7403   */\n      0x00\n        /* \"#utility.yul\":7399:7400   */\n      0x00\n        /* \"#utility.yul\":7392:7404   */\n      revert\n        /* \"#utility.yul\":7346:7406   */\n    tag_297:\n        /* \"#utility.yul\":7296:7412   */\n      pop\n      jump\t// out\n        /* \"#utility.yul\":7418:7555   */\n    tag_198:\n        /* \"#utility.yul\":7472:7477   */\n      0x00\n        /* \"#utility.yul\":7503:7509   */\n      dup2\n        /* \"#utility.yul\":7497:7510   */\n      mload\n        /* \"#utility.yul\":7488:7510   */\n      swap1\n      pop\n        /* \"#utility.yul\":7519:7549   */\n      tag_299\n        /* \"#utility.yul\":7543:7548   */\n      dup2\n        /* \"#utility.yul\":7519:7549   */\n      tag_197\n      jump\t// in\n    tag_299:\n        /* \"#utility.yul\":7418:7555   */\n      swap3\n      swap2\n      pop\n      pop\n      jump\t// out\n        /* \"#utility.yul\":7561:7906   */\n    tag_83:\n        /* \"#utility.yul\":7628:7634   */\n      0x00\n        /* \"#utility.yul\":7677:7679   */\n      0x20\n        /* \"#utility.yul\":7665:7674   */\n      dup3\n        /* \"#utility.yul\":7656:7663   */\n      dup5\n        /* \"#utility.yul\":7652:7675   */\n      sub\n        /* \"#utility.yul\":7648:7680   */\n      slt\n        /* \"#utility.yul\":7645:7764   */\n      iszero\n      tag_301\n      jumpi\n        /* \"#utility.yul\":7683:7762   */\n      tag_302\n      tag_172\n      jump\t// in\n    tag_302:\n        /* \"#utility.yul\":7645:7764   */\n    tag_301:\n        /* \"#utility.yul\":7803:7804   */\n      0x00\n        /* \"#utility.yul\":7828:7889   */\n      tag_303\n        /* \"#utility.yul\":7881:7888   */\n      dup5\n        /* \"#utility.yul\":7872:7878   */\n      dup3\n        /* \"#utility.yul\":7861:7870   */\n      dup6\n        /* \"#utility.yul\":7857:7879   */\n      add\n        /* \"#utility.yul\":7828:7889   */\n      tag_198\n      jump\t// in\n    tag_303:\n        /* \"#utility.yul\":7818:7889   */\n      swap2\n      pop\n        /* \"#utility.yul\":7774:7899   */\n      pop\n        /* \"#utility.yul\":7561:7906   */\n      swap3\n      swap2\n      pop\n      pop\n      jump\t// out\n        /* \"#utility.yul\":7912:8014   */\n    tag_199:\n        /* \"#utility.yul\":7954:7962   */\n      0x00\n        /* \"#utility.yul\":8001:8006   */\n      dup2\n        /* \"#utility.yul\":7998:7999   */\n      0x01\n        /* \"#utility.yul\":7994:8007   */\n      shr\n        /* \"#utility.yul\":7973:8007   */\n      swap1\n      pop\n        /* \"#utility.yul\":7912:8014   */\n      swap2\n      swap1\n      pop\n      jump\t// out\n        /* \"#utility.yul\":8020:8868   */\n    tag_200:\n        /* \"#utility.yul\":8081:8086   */\n      0x00\n        /* \"#utility.yul\":8088:8092   */\n      0x00\n        /* \"#utility.yul\":8112:8118   */\n      dup3\n        /* \"#utility.yul\":8103:8118   */\n      swap2\n      pop\n        /* \"#utility.yul\":8136:8141   */\n      dup4\n        /* \"#utility.yul\":8127:8141   */\n      swap1\n      pop\n        /* \"#utility.yul\":8150:8862   */\n    tag_306:\n        /* \"#utility.yul\":8171:8172   */\n      0x01\n        /* \"#utility.yul\":8161:8169   */\n      dup6\n        /* \"#utility.yul\":8158:8173   */\n      gt\n        /* \"#utility.yul\":8150:8862   */\n      iszero\n      tag_308\n      jumpi\n        /* \"#utility.yul\":8266:8270   */\n      dup1\n        /* \"#utility.yul\":8261:8264   */\n      dup7\n        /* \"#utility.yul\":8257:8271   */\n      div\n        /* \"#utility.yul\":8251:8255   */\n      dup2\n        /* \"#utility.yul\":8248:8272   */\n      gt\n        /* \"#utility.yul\":8245:8295   */\n      iszero\n      tag_309\n      jumpi\n        /* \"#utility.yul\":8275:8293   */\n      tag_310\n      tag_195\n      jump\t// in\n    tag_310:\n        /* \"#utility.yul\":8245:8295   */\n    tag_309:\n        /* \"#utility.yul\":8325:8326   */\n      0x01\n        /* \"#utility.yul\":8315:8323   */\n      dup6\n        /* \"#utility.yul\":8311:8327   */\n      and\n        /* \"#utility.yul\":8308:8759   */\n      iszero\n      tag_311\n      jumpi\n        /* \"#utility.yul\":8740:8744   */\n      dup1\n        /* \"#utility.yul\":8733:8738   */\n      dup3\n        /* \"#utility.yul\":8729:8745   */\n      mul\n        /* \"#utility.yul\":8720:8745   */\n      swap2\n      pop\n        /* \"#utility.yul\":8308:8759   */\n    tag_311:\n        /* \"#utility.yul\":8790:8794   */\n      dup1\n        /* \"#utility.yul\":8784:8788   */\n      dup2\n        /* \"#utility.yul\":8780:8795   */\n      mul\n        /* \"#utility.yul\":8772:8795   */\n      swap1\n      pop\n        /* \"#utility.yul\":8820:8852   */\n      tag_312\n        /* \"#utility.yul\":8843:8851   */\n      dup6\n        /* \"#utility.yul\":8820:8852   */\n      tag_199\n      jump\t// in\n    tag_312:\n        /* \"#utility.yul\":8808:8852   */\n      swap5\n      pop\n        /* \"#utility.yul\":8150:8862   */\n      jump(tag_306)\n    tag_308:\n        /* \"#utility.yul\":8020:8868   */\n      swap5\n      pop\n      swap5\n      swap3\n      pop\n      pop\n      pop\n      jump\t// out\n        /* \"#utility.yul\":8874:9947   */\n    tag_201:\n        /* \"#utility.yul\":8928:8933   */\n      0x00\n        /* \"#utility.yul\":9119:9127   */\n      dup3\n        /* \"#utility.yul\":9109:9149   */\n      tag_314\n      jumpi\n        /* \"#utility.yul\":9140:9141   */\n      0x01\n        /* \"#utility.yul\":9131:9141   */\n      swap1\n      pop\n        /* \"#utility.yul\":9142:9147   */\n      jump(tag_313)\n        /* \"#utility.yul\":9109:9149   */\n    tag_314:\n        /* \"#utility.yul\":9168:9172   */\n      dup2\n        /* \"#utility.yul\":9158:9194   */\n      tag_315\n      jumpi\n        /* \"#utility.yul\":9185:9186   */\n      0x00\n        /* \"#utility.yul\":9176:9186   */\n      swap1\n      pop\n        /* \"#utility.yul\":9187:9192   */\n      jump(tag_313)\n        /* \"#utility.yul\":9158:9194   */\n    tag_315:\n        /* \"#utility.yul\":9254:9258   */\n      dup2\n        /* \"#utility.yul\":9302:9303   */\n      0x01\n        /* \"#utility.yul\":9297:9324   */\n      dup2\n      eq\n      tag_317\n      jumpi\n        /* \"#utility.yul\":9338:9339   */\n      0x02\n        /* \"#utility.yul\":9333:9524   */\n      dup2\n      eq\n      tag_318\n      jumpi\n        /* \"#utility.yul\":9247:9524   */\n      jump(tag_316)\n        /* \"#utility.yul\":9297:9324   */\n    tag_317:\n        /* \"#utility.yul\":9315:9316   */\n      0x01\n        /* \"#utility.yul\":9306:9316   */\n      swap2\n      pop\n        /* \"#utility.yul\":9317:9322   */\n      pop\n      jump(tag_313)\n        /* \"#utility.yul\":9333:9524   */\n    tag_318:\n        /* \"#utility.yul\":9378:9381   */\n      0xff\n        /* \"#utility.yul\":9368:9376   */\n      dup5\n        /* \"#utility.yul\":9365:9382   */\n      gt\n        /* \"#utility.yul\":9362:9405   */\n      iszero\n      tag_319\n      jumpi\n        /* \"#utility.yul\":9385:9403   */\n      tag_320\n      tag_195\n      jump\t// in\n    tag_320:\n        /* \"#utility.yul\":9362:9405   */\n    tag_319:\n        /* \"#utility.yul\":9434:9442   */\n      dup4\n        /* \"#utility.yul\":9431:9432   */\n      0x02\n        /* \"#utility.yul\":9427:9443   */\n      exp\n        /* \"#utility.yul\":9418:9443   */\n      swap2\n      pop\n        /* \"#utility.yul\":9469:9472   */\n      dup5\n        /* \"#utility.yul\":9462:9467   */\n      dup3\n        /* \"#utility.yul\":9459:9473   */\n      gt\n        /* \"#utility.yul\":9456:9496   */\n      iszero\n      tag_321\n      jumpi\n        /* \"#utility.yul\":9476:9494   */\n      tag_322\n      tag_195\n      jump\t// in\n    tag_322:\n        /* \"#utility.yul\":9456:9496   */\n    tag_321:\n        /* \"#utility.yul\":9509:9514   */\n      pop\n      jump(tag_313)\n        /* \"#utility.yul\":9247:9524   */\n    tag_316:\n      pop\n        /* \"#utility.yul\":9633:9635   */\n      0x20\n        /* \"#utility.yul\":9623:9631   */\n      dup4\n        /* \"#utility.yul\":9620:9636   */\n      lt\n        /* \"#utility.yul\":9614:9617   */\n      0x0133\n        /* \"#utility.yul\":9608:9612   */\n      dup4\n        /* \"#utility.yul\":9605:9618   */\n      lt\n        /* \"#utility.yul\":9601:9637   */\n      and\n        /* \"#utility.yul\":9583:9585   */\n      0x4e\n        /* \"#utility.yul\":9573:9581   */\n      dup5\n        /* \"#utility.yul\":9570:9586   */\n      lt\n        /* \"#utility.yul\":9565:9567   */\n      0x0b\n        /* \"#utility.yul\":9559:9563   */\n      dup5\n        /* \"#utility.yul\":9556:9568   */\n      lt\n        /* \"#utility.yul\":9552:9587   */\n      and\n        /* \"#utility.yul\":9536:9647   */\n      or\n        /* \"#utility.yul\":9533:9779   */\n      iszero\n      tag_323\n      jumpi\n        /* \"#utility.yul\":9689:9697   */\n      dup3\n        /* \"#utility.yul\":9683:9687   */\n      dup3\n        /* \"#utility.yul\":9679:9698   */\n      exp\n        /* \"#utility.yul\":9670:9698   */\n      swap1\n      pop\n        /* \"#utility.yul\":9724:9727   */\n      dup4\n        /* \"#utility.yul\":9717:9722   */\n      dup2\n        /* \"#utility.yul\":9714:9728   */\n      gt\n        /* \"#utility.yul\":9711:9751   */\n      iszero\n      tag_324\n      jumpi\n        /* \"#utility.yul\":9731:9749   */\n      tag_325\n      tag_195\n      jump\t// in\n    tag_325:\n        /* \"#utility.yul\":9711:9751   */\n    tag_324:\n        /* \"#utility.yul\":9764:9769   */\n      jump(tag_313)\n        /* \"#utility.yul\":9533:9779   */\n    tag_323:\n        /* \"#utility.yul\":9804:9846   */\n      tag_326\n        /* \"#utility.yul\":9842:9845   */\n      dup5\n        /* \"#utility.yul\":9832:9840   */\n      dup5\n        /* \"#utility.yul\":9826:9830   */\n      dup5\n        /* \"#utility.yul\":9823:9824   */\n      0x01\n        /* \"#utility.yul\":9804:9846   */\n      tag_200\n      jump\t// in\n    tag_326:\n        /* \"#utility.yul\":9789:9846   */\n      swap3\n      pop\n      swap1\n      pop\n        /* \"#utility.yul\":9878:9882   */\n      dup2\n        /* \"#utility.yul\":9873:9876   */\n      dup5\n        /* \"#utility.yul\":9869:9883   */\n      div\n        /* \"#utility.yul\":9862:9867   */\n      dup2\n        /* \"#utility.yul\":9859:9884   */\n      gt\n        /* \"#utility.yul\":9856:9907   */\n      iszero\n      tag_327\n      jumpi\n        /* \"#utility.yul\":9887:9905   */\n      tag_328\n      tag_195\n      jump\t// in\n    tag_328:\n        /* \"#utility.yul\":9856:9907   */\n    tag_327:\n        /* \"#utility.yul\":9936:9940   */\n      dup2\n        /* \"#utility.yul\":9929:9934   */\n      dup2\n        /* \"#utility.yul\":9925:9941   */\n      mul\n        /* \"#utility.yul\":9916:9941   */\n      swap1\n      pop\n        /* \"#utility.yul\":8874:9947   */\n    tag_313:\n      swap4\n      swap3\n      pop\n      pop\n      pop\n      jump\t// out\n        /* \"#utility.yul\":9953:10234   */\n    tag_91:\n        /* \"#utility.yul\":10011:10016   */\n      0x00\n        /* \"#utility.yul\":10035:10058   */\n      tag_330\n        /* \"#utility.yul\":10053:10057   */\n      dup3\n        /* \"#utility.yul\":10035:10058   */\n      tag_174\n      jump\t// in\n    tag_330:\n        /* \"#utility.yul\":10027:10058   */\n      swap2\n      pop\n        /* \"#utility.yul\":10079:10104   */\n      tag_331\n        /* \"#utility.yul\":10095:10103   */\n      dup4\n        /* \"#utility.yul\":10079:10104   */\n      tag_182\n      jump\t// in\n    tag_331:\n        /* \"#utility.yul\":10067:10104   */\n      swap3\n      pop\n        /* \"#utility.yul\":10123:10227   */\n      tag_332\n        /* \"#utility.yul\":10160:10226   */\n      0xffffffffffffffffffffffffffffffffffffffffffffffffffffffffffffffff\n        /* \"#utility.yul\":10150:10158   */\n      dup5\n        /* \"#utility.yul\":10144:10148   */\n      dup5\n        /* \"#utility.yul\":10123:10227   */\n      tag_201\n      jump\t// in\n    tag_332:\n        /* \"#utility.yul\":10114:10227   */\n      swap1\n      pop\n        /* \"#utility.yul\":9953:10234   */\n      swap3\n      swap2\n      pop\n      pop\n      jump\t// out\n        /* \"#utility.yul\":10240:10650   */\n    tag_93:\n        /* \"#utility.yul\":10280:10287   */\n      0x00\n        /* \"#utility.yul\":10303:10323   */\n      tag_334\n        /* \"#utility.yul\":10321:10322   */\n      dup3\n        /* \"#utility.yul\":10303:10323   */\n      tag_174\n      jump\t// in\n    tag_334:\n        /* \"#utility.yul\":10298:10323   */\n      swap2\n      pop\n        /* \"#utility.yul\":10337:10357   */\n      tag_335\n        /* \"#utility.yul\":10355:10356   */\n      dup4\n        /* \"#utility.yul\":10337:10357   */\n      tag_174\n      jump\t// in\n    tag_335:\n        /* \"#utility.yul\":10332:10357   */\n      swap3\n      pop\n        /* \"#utility.yul\":10392:10393   */\n      dup3\n        /* \"#utility.yul\":10389:10390   */\n      dup3\n        /* \"#utility.yul\":10385:10394   */\n      mul\n        /* \"#utility.yul\":10414:10444   */\n      tag_336\n        /* \"#utility.yul\":10432:10443   */\n      dup2\n        /* \"#utility.yul\":10414:10444   */\n      tag_174\n      jump\t// in\n    tag_336:\n        /* \"#utility.yul\":10403:10444   */\n      swap2\n      pop\n        /* \"#utility.yul\":10593:10594   */\n      dup3\n        /* \"#utility.yul\":10584:10591   */\n      dup3\n        /* \"#utility.yul\":10580:10595   */\n      div\n        /* \"#utility.yul\":10577:10578   */\n      dup5\n        /* \"#utility.yul\":10574:10596   */\n      eq\n        /* \"#utility.yul\":10554:10555   */\n      dup4\n        /* \"#utility.yul\":10547:10556   */\n      iszero\n        /* \"#utility.yul\":10527:10610   */\n      or\n        /* \"#utility.yul\":10504:10643   */\n      tag_337\n      jumpi\n        /* \"#utility.yul\":10623:10641   */\n      tag_338\n      tag_195\n      jump\t// in\n    tag_338:\n        /* \"#utility.yul\":10504:10643   */\n    tag_337:\n        /* \"#utility.yul\":10288:10650   */\n      pop\n        /* \"#utility.yul\":10240:10650   */\n      swap3\n      swap2\n      pop\n      pop\n      jump\t// out\n        /* \"#utility.yul\":10656:10836   */\n    tag_202:\n        /* \"#utility.yul\":10704:10781   */\n      0x4e487b7100000000000000000000000000000000000000000000000000000000\n        /* \"#utility.yul\":10701:10702   */\n      0x00\n        /* \"#utility.yul\":10694:10782   */\n      mstore\n        /* \"#utility.yul\":10801:10805   */\n      0x12\n        /* \"#utility.yul\":10798:10799   */\n      0x04\n        /* \"#utility.yul\":10791:10806   */\n      mstore\n        /* \"#utility.yul\":10825:10829   */\n      0x24\n        /* \"#utility.yul\":10822:10823   */\n      0x00\n        /* \"#utility.yul\":10815:10830   */\n      revert\n        /* \"#utility.yul\":10842:11027   */\n    tag_96:\n        /* \"#utility.yul\":10882:10883   */\n      0x00\n        /* \"#utility.yul\":10899:10919   */\n      tag_341\n        /* \"#utility.yul\":10917:10918   */\n      dup3\n        /* \"#utility.yul\":10899:10919   */\n      tag_174\n      jump\t// in\n    tag_341:\n        /* \"#utility.yul\":10894:10919   */\n      swap2\n      pop\n        /* \"#utility.yul\":10933:10953   */\n      tag_342\n        /* \"#utility.yul\":10951:10952   */\n      dup4\n        /* \"#utility.yul\":10933:10953   */\n      tag_174\n      jump\t// in\n    tag_342:\n        /* \"#utility.yul\":10928:10953   */\n      swap3\n      pop\n        /* \"#utility.yul\":10972:10973   */\n      dup3\n        /* \"#utility.yul\":10962:10997   */\n      tag_343\n      jumpi\n        /* \"#utility.yul\":10977:10995   */\n      tag_344\n      tag_202\n      jump\t// in\n    tag_344:\n        /* \"#utility.yul\":10962:10997   */\n    tag_343:\n        /* \"#utility.yul\":11019:11020   */\n      dup3\n        /* \"#utility.yul\":11016:11017   */\n      dup3\n        /* \"#utility.yul\":11012:11021   */\n      div\n        /* \"#utility.yul\":11007:11021   */\n      swap1\n      pop\n        /* \"#utility.yul\":10842:11027   */\n      swap3\n      swap2\n      pop\n      pop\n      jump\t// out\n        /* \"#utility.yul\":11033:11224   */\n    tag_98:\n        /* \"#utility.yul\":11073:11076   */\n      0x00\n        /* \"#utility.yul\":11092:11112   */\n      tag_346\n        /* \"#utility.yul\":11110:11111   */\n      dup3\n        /* \"#utility.yul\":11092:11112   */\n      tag_174\n      jump\t// in\n    tag_346:\n        /* \"#utility.yul\":11087:11112   */\n      swap2\n      pop\n        /* \"#utility.yul\":11126:11146   */\n      tag_347\n        /* \"#utility.yul\":11144:11145   */\n      dup4\n        /* \"#utility.yul\":11126:11146   */\n      tag_174\n      jump\t// in\n    tag_347:\n        /* \"#utility.yul\":11121:11146   */\n      swap3\n      pop\n        /* \"#utility.yul\":11169:11170   */\n      dup3\n        /* \"#utility.yul\":11166:11167   */\n      dup3\n        /* \"#utility.yul\":11162:11171   */\n      add\n        /* \"#utility.yul\":11155:11171   */\n      swap1\n      pop\n        /* \"#utility.yul\":11190:11193   */\n      dup1\n        /* \"#utility.yul\":11187:11188   */\n      dup3\n        /* \"#utility.yul\":11184:11194   */\n      gt\n        /* \"#utility.yul\":11181:11217   */\n      iszero\n      tag_348\n      jumpi\n        /* \"#utility.yul\":11197:11215   */\n      tag_349\n      tag_195\n      jump\t// in\n    tag_349:\n        /* \"#utility.yul\":11181:11217   */\n    tag_348:\n        /* \"#utility.yul\":11033:11224   */\n      swap3\n      swap2\n      pop\n      pop\n      jump\t// out\n        /* \"#utility.yul\":11230:11399   */\n    tag_203:\n        /* \"#utility.yul\":11370:11391   */\n      0x4e6f207265776172647320746f20636c61696d00000000000000000000000000\n        /* \"#utility.yul\":11366:11367   */\n      0x00\n        /* \"#utility.yul\":11358:11364   */\n      dup3\n        /* \"#utility.yul\":11354:11368   */\n      add\n        /* \"#utility.yul\":11347:11392   */\n      mstore\n        /* \"#utility.yul\":11230:11399   */\n      pop\n      jump\t// out\n        /* \"#utility.yul\":11405:11771   */\n    tag_204:\n        /* \"#utility.yul\":11547:11550   */\n      0x00\n        /* \"#utility.yul\":11568:11635   */\n      tag_352\n        /* \"#utility.yul\":11632:11634   */\n      0x13\n        /* \"#utility.yul\":11627:11630   */\n      dup4\n        /* \"#utility.yul\":11568:11635   */\n      tag_190\n      jump\t// in\n    tag_352:\n        /* \"#utility.yul\":11561:11635   */\n      swap2\n      pop\n        /* \"#utility.yul\":11644:11737   */\n      tag_353\n        /* \"#utility.yul\":11733:11736   */\n      dup3\n        /* \"#utility.yul\":11644:11737   */\n      tag_203\n      jump\t// in\n    tag_353:\n        /* \"#utility.yul\":11762:11764   */\n      0x20\n        /* \"#utility.yul\":11757:11760   */\n      dup3\n        /* \"#utility.yul\":11753:11765   */\n      add\n        /* \"#utility.yul\":11746:11765   */\n      swap1\n      pop\n        /* \"#utility.yul\":11405:11771   */\n      swap2\n      swap1\n      pop\n      jump\t// out\n        /* \"#utility.yul\":11777:12196   */\n    tag_105:\n        /* \"#utility.yul\":11943:11947   */\n      0x00\n        /* \"#utility.yul\":11981:11983   */\n      0x20\n        /* \"#utility.yul\":11970:11979   */\n      dup3\n        /* \"#utility.yul\":11966:11984   */\n      add\n        /* \"#utility.yul\":11958:11984   */\n      swap1\n      pop\n        /* \"#utility.yul\":12030:12039   */\n      dup2\n        /* \"#utility.yul\":12024:12028   */\n      dup2\n        /* \"#utility.yul\":12020:12040   */\n      sub\n        /* \"#utility.yul\":12016:12017   */\n      0x00\n        /* \"#utility.yul\":12005:12014   */\n      dup4\n        /* \"#utility.yul\":12001:12018   */\n      add\n        /* \"#utility.yul\":11994:12041   */\n      mstore\n        /* \"#utility.yul\":12058:12189   */\n      tag_355\n        /* \"#utility.yul\":12184:12188   */\n      dup2\n        /* \"#utility.yul\":12058:12189   */\n      tag_204\n      jump\t// in\n    tag_355:\n        /* \"#utility.yul\":12050:12189   */\n      swap1\n      pop\n        /* \"#utility.yul\":11777:12196   */\n      swap2\n      swap1\n      pop\n      jump\t// out\n        /* \"#utility.yul\":12202:12345   */\n    tag_205:\n        /* \"#utility.yul\":12259:12264   */\n      0x00\n        /* \"#utility.yul\":12290:12296   */\n      dup2\n        /* \"#utility.yul\":12284:12297   */\n      mload\n        /* \"#utility.yul\":12275:12297   */\n      swap1\n      pop\n        /* \"#utility.yul\":12306:12339   */\n      tag_357\n        /* \"#utility.yul\":12333:12338   */\n      dup2\n        /* \"#utility.yul\":12306:12339   */\n      tag_175\n      jump\t// in\n    tag_357:\n        /* \"#utility.yul\":12202:12345   */\n      swap3\n      swap2\n      pop\n      pop\n      jump\t// out\n        /* \"#utility.yul\":12351:12702   */\n    tag_110:\n        /* \"#utility.yul\":12421:12427   */\n      0x00\n        /* \"#utility.yul\":12470:12472   */\n      0x20\n        /* \"#utility.yul\":12458:12467   */\n      dup3\n        /* \"#utility.yul\":12449:12456   */\n      dup5\n        /* \"#utility.yul\":12445:12468   */\n      sub\n        /* \"#utility.yul\":12441:12473   */\n      slt\n        /* \"#utility.yul\":12438:12557   */\n      iszero\n      tag_359\n      jumpi\n        /* \"#utility.yul\":12476:12555   */\n      tag_360\n      tag_172\n      jump\t// in\n    tag_360:\n        /* \"#utility.yul\":12438:12557   */\n    tag_359:\n        /* \"#utility.yul\":12596:12597   */\n      0x00\n        /* \"#utility.yul\":12621:12685   */\n      tag_361\n        /* \"#utility.yul\":12677:12684   */\n      dup5\n        /* \"#utility.yul\":12668:12674   */\n      dup3\n        /* \"#utility.yul\":12657:12666   */\n      dup6\n        /* \"#utility.yul\":12653:12675   */\n      add\n        /* \"#utility.yul\":12621:12685   */\n      tag_205\n      jump\t// in\n    tag_361:\n        /* \"#utility.yul\":12611:12685   */\n      swap2\n      pop\n        /* \"#utility.yul\":12567:12695   */\n      pop\n        /* \"#utility.yul\":12351:12702   */\n      swap3\n      swap2\n      pop\n      pop\n      jump\t// out\n        /* \"#utility.yul\":12708:12928   */\n    tag_206:\n        /* \"#utility.yul\":12848:12882   */\n      0x496e73756666696369656e742072657761726420746f6b656e2062616c616e63\n        /* \"#utility.yul\":12844:12845   */\n      0x00\n        /* \"#utility.yul\":12836:12842   */\n      dup3\n        /* \"#utility.yul\":12832:12846   */\n      add\n        /* \"#utility.yul\":12825:12883   */\n      mstore\n        /* \"#utility.yul\":12917:12920   */\n      0x6500000000000000000000000000000000000000000000000000000000000000\n        /* \"#utility.yul\":12912:12914   */\n      0x20\n        /* \"#utility.yul\":12904:12910   */\n      dup3\n        /* \"#utility.yul\":12900:12915   */\n      add\n        /* \"#utility.yul\":12893:12921   */\n      mstore\n        /* \"#utility.yul\":12708:12928   */\n      pop\n      jump\t// out\n        /* \"#utility.yul\":12934:13300   */\n    tag_207:\n        /* \"#utility.yul\":13076:13079   */\n      0x00\n        /* \"#utility.yul\":13097:13164   */\n      tag_364\n        /* \"#utility.yul\":13161:13163   */\n      0x21\n        /* \"#utility.yul\":13156:13159   */\n      dup4\n        /* \"#utility.yul\":13097:13164   */\n      tag_190\n      jump\t// in\n    tag_364:\n        /* \"#utility.yul\":13090:13164   */\n      swap2\n      pop\n        /* \"#utility.yul\":13173:13266   */\n      tag_365\n        /* \"#utility.yul\":13262:13265   */\n      dup3\n        /* \"#utility.yul\":13173:13266   */\n      tag_206\n      jump\t// in\n    tag_365:\n        /* \"#utility.yul\":13291:13293   */\n      0x40\n        /* \"#utility.yul\":13286:13289   */\n      dup3\n        /* \"#utility.yul\":13282:13294   */\n      add\n        /* \"#utility.yul\":13275:13294   */\n      swap1\n      pop\n        /* \"#utility.yul\":12934:13300   */\n      swap2\n      swap1\n      pop\n      jump\t// out\n        /* \"#utility.yul\":13306:13725   */\n    tag_113:\n        /* \"#utility.yul\":13472:13476   */\n      0x00\n        /* \"#utility.yul\":13510:13512   */\n      0x20\n        /* \"#utility.yul\":13499:13508   */\n      dup3\n        /* \"#utility.yul\":13495:13513   */\n      add\n        /* \"#utility.yul\":13487:13513   */\n      swap1\n      pop\n        /* \"#utility.yul\":13559:13568   */\n      dup2\n        /* \"#utility.yul\":13553:13557   */\n      dup2\n        /* \"#utility.yul\":13549:13569   */\n      sub\n        /* \"#utility.yul\":13545:13546   */\n      0x00\n        /* \"#utility.yul\":13534:13543   */\n      dup4\n        /* \"#utility.yul\":13530:13547   */\n      add\n        /* \"#utility.yul\":13523:13570   */\n      mstore\n        /* \"#utility.yul\":13587:13718   */\n      tag_367\n        /* \"#utility.yul\":13713:13717   */\n      dup2\n        /* \"#utility.yul\":13587:13718   */\n      tag_207\n      jump\t// in\n    tag_367:\n        /* \"#utility.yul\":13579:13718   */\n      swap1\n      pop\n        /* \"#utility.yul\":13306:13725   */\n      swap2\n      swap1\n      pop\n      jump\t// out\n        /* \"#utility.yul\":13731:13895   */\n    tag_208:\n        /* \"#utility.yul\":13871:13887   */\n      0x43616e6e6f74207374616b652030000000000000000000000000000000000000\n        /* \"#utility.yul\":13867:13868   */\n      0x00\n        /* \"#utility.yul\":13859:13865   */\n      dup3\n        /* \"#utility.yul\":13855:13869   */\n      add\n        /* \"#utility.yul\":13848:13888   */\n      mstore\n        /* \"#utility.yul\":13731:13895   */\n      pop\n      jump\t// out\n        /* \"#utility.yul\":13901:14267   */\n    tag_209:\n        /* \"#utility.yul\":14043:14046   */\n      0x00\n        /* \"#utility.yul\":14064:14131   */\n      tag_370\n        /* \"#utility.yul\":14128:14130   */\n      0x0e\n        /* \"#utility.yul\":14123:14126   */\n      dup4\n        /* \"#utility.yul\":14064:14131   */\n      tag_190\n      jump\t// in\n    tag_370:\n        /* \"#utility.yul\":14057:14131   */\n      swap2\n      pop\n        /* \"#utility.yul\":14140:14233   */\n      tag_371\n        /* \"#utility.yul\":14229:14232   */\n      dup3\n        /* \"#utility.yul\":14140:14233   */\n      tag_208\n      jump\t// in\n    tag_371:\n        /* \"#utility.yul\":14258:14260   */\n      0x20\n        /* \"#utility.yul\":14253:14256   */\n      dup3\n        /* \"#utility.yul\":14249:14261   */\n      add\n        /* \"#utility.yul\":14242:14261   */\n      swap1\n      pop\n        /* \"#utility.yul\":13901:14267   */\n      swap2\n      swap1\n      pop\n      jump\t// out\n        /* \"#utility.yul\":14273:14692   */\n    tag_126:\n        /* \"#utility.yul\":14439:14443   */\n      0x00\n        /* \"#utility.yul\":14477:14479   */\n      0x20\n        /* \"#utility.yul\":14466:14475   */\n      dup3\n        /* \"#utility.yul\":14462:14480   */\n      add\n        /* \"#utility.yul\":14454:14480   */\n      swap1\n      pop\n        /* \"#utility.yul\":14526:14535   */\n      dup2\n        /* \"#utility.yul\":14520:14524   */\n      dup2\n        /* \"#utility.yul\":14516:14536   */\n      sub\n        /* \"#utility.yul\":14512:14513   */\n      0x00\n        /* \"#utility.yul\":14501:14510   */\n      dup4\n        /* \"#utility.yul\":14497:14514   */\n      add\n        /* \"#utility.yul\":14490:14537   */\n      mstore\n        /* \"#utility.yul\":14554:14685   */\n      tag_373\n        /* \"#utility.yul\":14680:14684   */\n      dup2\n        /* \"#utility.yul\":14554:14685   */\n      tag_209\n      jump\t// in\n    tag_373:\n        /* \"#utility.yul\":14546:14685   */\n      swap1\n      pop\n        /* \"#utility.yul\":14273:14692   */\n      swap2\n      swap1\n      pop\n      jump\t// out\n        /* \"#utility.yul\":14698:15140   */\n    tag_129:\n        /* \"#utility.yul\":14847:14851   */\n      0x00\n        /* \"#utility.yul\":14885:14887   */\n      0x60\n        /* \"#utility.yul\":14874:14883   */\n      dup3\n        /* \"#utility.yul\":14870:14888   */\n      add\n        /* \"#utility.yul\":14862:14888   */\n      swap1\n      pop\n        /* \"#utility.yul\":14898:14969   */\n      tag_375\n        /* \"#utility.yul\":14966:14967   */\n      0x00\n        /* \"#utility.yul\":14955:14964   */\n      dup4\n        /* \"#utility.yul\":14951:14968   */\n      add\n        /* \"#utility.yul\":14942:14948   */\n      dup7\n        /* \"#utility.yul\":14898:14969   */\n      tag_189\n      jump\t// in\n    tag_375:\n        /* \"#utility.yul\":14979:15051   */\n      tag_376\n        /* \"#utility.yul\":15047:15049   */\n      0x20\n        /* \"#utility.yul\":15036:15045   */\n      dup4\n        /* \"#utility.yul\":15032:15050   */\n      add\n        /* \"#utility.yul\":15023:15029   */\n      dup6\n        /* \"#utility.yul\":14979:15051   */\n      tag_189\n      jump\t// in\n    tag_376:\n        /* \"#utility.yul\":15061:15133   */\n      tag_377\n        /* \"#utility.yul\":15129:15131   */\n      0x40\n        /* \"#utility.yul\":15118:15127   */\n      dup4\n        /* \"#utility.yul\":15114:15132   */\n      add\n        /* \"#utility.yul\":15105:15111   */\n      dup5\n        /* \"#utility.yul\":15061:15133   */\n      tag_181\n      jump\t// in\n    tag_377:\n        /* \"#utility.yul\":14698:15140   */\n      swap5\n      swap4\n      pop\n      pop\n      pop\n      pop\n      jump\t// out\n        /* \"#utility.yul\":15146:15310   */\n    tag_210:\n        /* \"#utility.yul\":15286:15302   */\n      0x4e6f7468696e67207374616b6564000000000000000000000000000000000000\n        /* \"#utility.yul\":15282:15283   */\n      0x00\n        /* \"#utility.yul\":15274:15280   */\n      dup3\n        /* \"#utility.yul\":15270:15284   */\n      add\n        /* \"#utility.yul\":15263:15303   */\n      mstore\n        /* \"#utility.yul\":15146:15310   */\n      pop\n      jump\t// out\n        /* \"#utility.yul\":15316:15682   */\n    tag_211:\n        /* \"#utility.yul\":15458:15461   */\n      0x00\n        /* \"#utility.yul\":15479:15546   */\n      tag_380\n        /* \"#utility.yul\":15543:15545   */\n      0x0e\n        /* \"#utility.yul\":15538:15541   */\n      dup4\n        /* \"#utility.yul\":15479:15546   */\n      tag_190\n      jump\t// in\n    tag_380:\n        /* \"#utility.yul\":15472:15546   */\n      swap2\n      pop\n        /* \"#utility.yul\":15555:15648   */\n      tag_381\n        /* \"#utility.yul\":15644:15647   */\n      dup3\n        /* \"#utility.yul\":15555:15648   */\n      tag_210\n      jump\t// in\n    tag_381:\n        /* \"#utility.yul\":15673:15675   */\n      0x20\n        /* \"#utility.yul\":15668:15671   */\n      dup3\n        /* \"#utility.yul\":15664:15676   */\n      add\n        /* \"#utility.yul\":15657:15676   */\n      swap1\n      pop\n        /* \"#utility.yul\":15316:15682   */\n      swap2\n      swap1\n      pop\n      jump\t// out\n        /* \"#utility.yul\":15688:16107   */\n    tag_141:\n        /* \"#utility.yul\":15854:15858   */\n      0x00\n        /* \"#utility.yul\":15892:15894   */\n      0x20\n        /* \"#utility.yul\":15881:15890   */\n      dup3\n        /* \"#utility.yul\":15877:15895   */\n      add\n        /* \"#utility.yul\":15869:15895   */\n      swap1\n      pop\n        /* \"#utility.yul\":15941:15950   */\n      dup2\n        /* \"#utility.yul\":15935:15939   */\n      dup2\n        /* \"#utility.yul\":15931:15951   */\n      sub\n        /* \"#utility.yul\":15927:15928   */\n      0x00\n        /* \"#utility.yul\":15916:15925   */\n      dup4\n        /* \"#utility.yul\":15912:15929   */\n      add\n        /* \"#utility.yul\":15905:15952   */\n      mstore\n        /* \"#utility.yul\":15969:16100   */\n      tag_383\n        /* \"#utility.yul\":16095:16099   */\n      dup2\n        /* \"#utility.yul\":15969:16100   */\n      tag_211\n      jump\t// in\n    tag_383:\n        /* \"#utility.yul\":15961:16100   */\n      swap1\n      pop\n        /* \"#utility.yul\":15688:16107   */\n      swap2\n      swap1\n      pop\n      jump\t// out\n        /* \"#utility.yul\":16113:16276   */\n    tag_212:\n        /* \"#utility.yul\":16253:16268   */\n      0x4e6f7420746865206f776e657200000000000000000000000000000000000000\n        /* \"#utility.yul\":16249:16250   */\n      0x00\n        /* \"#utility.yul\":16241:16247   */\n      dup3\n        /* \"#utility.yul\":16237:16251   */\n      add\n        /* \"#utility.yul\":16230:16269   */\n      mstore\n        /* \"#utility.yul\":16113:16276   */\n      pop\n      jump\t// out\n        /* \"#utility.yul\":16282:16648   */\n    tag_213:\n        /* \"#utility.yul\":16424:16427   */\n      0x00\n        /* \"#utility.yul\":16445:16512   */\n      tag_386\n        /* \"#utility.yul\":16509:16511   */\n      0x0d\n        /* \"#utility.yul\":16504:16507   */\n      dup4\n        /* \"#utility.yul\":16445:16512   */\n      tag_190\n      jump\t// in\n    tag_386:\n        /* \"#utility.yul\":16438:16512   */\n      swap2\n      pop\n        /* \"#utility.yul\":16521:16614   */\n      tag_387\n        /* \"#utility.yul\":16610:16613   */\n      dup3\n        /* \"#utility.yul\":16521:16614   */\n      tag_212\n      jump\t// in\n    tag_387:\n        /* \"#utility.yul\":16639:16641   */\n      0x20\n        /* \"#utility.yul\":16634:16637   */\n      dup3\n        /* \"#utility.yul\":16630:16642   */\n      add\n        /* \"#utility.yul\":16623:16642   */\n      swap1\n      pop\n        /* \"#utility.yul\":16282:16648   */\n      swap2\n      swap1\n      pop\n      jump\t// out\n        /* \"#utility.yul\":16654:17073   */\n    tag_151:\n        /* \"#utility.yul\":16820:16824   */\n      0x00\n        /* \"#utility.yul\":16858:16860   */\n      0x20\n        /* \"#utility.yul\":16847:16856   */\n      dup3\n        /* \"#utility.yul\":16843:16861   */\n      add\n        /* \"#utility.yul\":16835:16861   */\n      swap1\n      pop\n        /* \"#utility.yul\":16907:16916   */\n      dup2\n        /* \"#utility.yul\":16901:16905   */\n      dup2\n        /* \"#utility.yul\":16897:16917   */\n      sub\n        /* \"#utility.yul\":16893:16894   */\n      0x00\n        /* \"#utility.yul\":16882:16891   */\n      dup4\n        /* \"#utility.yul\":16878:16895   */\n      add\n        /* \"#utility.yul\":16871:16918   */\n      mstore\n        /* \"#utility.yul\":16935:17066   */\n      tag_389\n        /* \"#utility.yul\":17061:17065   */\n      dup2\n        /* \"#utility.yul\":16935:17066   */\n      tag_213\n      jump\t// in\n    tag_389:\n        /* \"#utility.yul\":16927:17066   */\n      swap1\n      pop\n        /* \"#utility.yul\":16654:17073   */\n      swap2\n      swap1\n      pop\n      jump\t// out\n        /* \"#utility.yul\":17079:17260   */\n    tag_214:\n        /* \"#utility.yul\":17219:17252   */\n      0x5265656e7472616e637947756172643a207265656e7472616e742063616c6c00\n        /* \"#utility.yul\":17215:17216   */\n      0x00\n        /* \"#utility.yul\":17207:17213   */\n      dup3\n        /* \"#utility.yul\":17203:17217   */\n      add\n        /* \"#utility.yul\":17196:17253   */\n      mstore\n        /* \"#utility.yul\":17079:17260   */\n      pop\n      jump\t// out\n        /* \"#utility.yul\":17266:17632   */\n    tag_215:\n        /* \"#utility.yul\":17408:17411   */\n      0x00\n        /* \"#utility.yul\":17429:17496   */\n      tag_392\n        /* \"#utility.yul\":17493:17495   */\n      0x1f\n        /* \"#utility.yul\":17488:17491   */\n      dup4\n        /* \"#utility.yul\":17429:17496   */\n      tag_190\n      jump\t// in\n    tag_392:\n        /* \"#utility.yul\":17422:17496   */\n      swap2\n      pop\n        /* \"#utility.yul\":17505:17598   */\n      tag_393\n        /* \"#utility.yul\":17594:17597   */\n      dup3\n        /* \"#utility.yul\":17505:17598   */\n      tag_214\n      jump\t// in\n    tag_393:\n        /* \"#utility.yul\":17623:17625   */\n      0x20\n        /* \"#utility.yul\":17618:17621   */\n      dup3\n        /* \"#utility.yul\":17614:17626   */\n      add\n        /* \"#utility.yul\":17607:17626   */\n      swap1\n      pop\n        /* \"#utility.yul\":17266:17632   */\n      swap2\n      swap1\n      pop\n      jump\t// out\n        /* \"#utility.yul\":17638:18057   */\n    tag_161:\n        /* \"#utility.yul\":17804:17808   */\n      0x00\n        /* \"#utility.yul\":17842:17844   */\n      0x20\n        /* \"#utility.yul\":17831:17840   */\n      dup3\n        /* \"#utility.yul\":17827:17845   */\n      add\n        /* \"#utility.yul\":17819:17845   */\n      swap1\n      pop\n        /* \"#utility.yul\":17891:17900   */\n      dup2\n        /* \"#utility.yul\":17885:17889   */\n      dup2\n        /* \"#utility.yul\":17881:17901   */\n      sub\n        /* \"#utility.yul\":17877:17878   */\n      0x00\n        /* \"#utility.yul\":17866:17875   */\n      dup4\n        /* \"#utility.yul\":17862:17879   */\n      add\n        /* \"#utility.yul\":17855:17902   */\n      mstore\n        /* \"#utility.yul\":17919:18050   */\n      tag_395\n        /* \"#utility.yul\":18045:18049   */\n      dup2\n        /* \"#utility.yul\":17919:18050   */\n      tag_215\n      jump\t// in\n    tag_395:\n        /* \"#utility.yul\":17911:18050   */\n      swap1\n      pop\n        /* \"#utility.yul\":17638:18057   */\n      swap2\n      swap1\n      pop\n      jump\t// out\n\n    auxdata: 0xa26469706673582212204cdad2bffcac4a8f46c89a4d7606d17ae875db3ff5d496ae0a50b05f494186bb64736f6c634300081e0033\n}\n",
				"bytecode": {
					"linkReferences": {},
					"object": "608060405234801561000f575f5ffd5b50604051611bfd380380611bfd83398181016040528101906100319190610273565b60015f819055508260015f6101000a81548173ffffffffffffffffffffffffffffffffffffffff021916908373ffffffffffffffffffffffffffffffffffffffff1602179055508160025f6101000a81548173ffffffffffffffffffffffffffffffffffffffff021916908373ffffffffffffffffffffffffffffffffffffffff160217905550806003819055503360045f6101000a81548173ffffffffffffffffffffffffffffffffffffffff021916908373ffffffffffffffffffffffffffffffffffffffff1602179055508273ffffffffffffffffffffffffffffffffffffffff1663313ce5676040518163ffffffff1660e01b8152600401602060405180830381865afa92505050801561016757506040513d601f19601f8201168201806040525081019061016491906102f9565b60015b6101bd573d805f8114610195576040519150601f19603f3d011682016040523d82523d5f602084013e61019a565b606091505b506012600460146101000a81548160ff021916908360ff160217905550506101da565b80600460146101000a81548160ff021916908360ff160217905550505b505050610324565b5f5ffd5b5f73ffffffffffffffffffffffffffffffffffffffff82169050919050565b5f61020f826101e6565b9050919050565b61021f81610205565b8114610229575f5ffd5b50565b5f8151905061023a81610216565b92915050565b5f819050919050565b61025281610240565b811461025c575f5ffd5b50565b5f8151905061026d81610249565b92915050565b5f5f5f6060848603121561028a576102896101e2565b5b5f6102978682870161022c565b93505060206102a88682870161022c565b92505060406102b98682870161025f565b9150509250925092565b5f60ff82169050919050565b6102d8816102c3565b81146102e2575f5ffd5b50565b5f815190506102f3816102cf565b92915050565b5f6020828403121561030e5761030d6101e2565b5b5f61031b848285016102e5565b91505092915050565b6118cc806103315f395ff3fe608060405234801561000f575f5ffd5b50600436106100cd575f3560e01c80638da5cb5b1161008a578063b9f7a7b511610064578063b9f7a7b5146101ed578063db2e21bc1461020b578063e72f3e5714610215578063f7c618c114610231576100cd565b80638da5cb5b146101815780639168ae721461019f578063a694fc3a146101d1576100cd565b80632e17de78146100d157806331d7a262146100ed578063372500ab1461011d57806351ddb566146101275780635d773b2c1461014557806372f702f314610163575b5f5ffd5b6100eb60048036038101906100e69190610f9e565b61024f565b005b61010760048036038101906101029190611023565b61046f565b604051610114919061105d565b60405180910390f35b61012561055e565b005b61012f61080b565b60405161013c9190611091565b60405180910390f35b61014d610821565b60405161015a919061105d565b60405180910390f35b61016b610827565b6040516101789190611105565b60405180910390f35b61018961084c565b604051610196919061112d565b60405180910390f35b6101b960048036038101906101b49190611023565b610871565b6040516101c893929190611146565b60405180910390f35b6101eb60048036038101906101e69190610f9e565b610897565b005b6101f5610a37565b6040516102029190611091565b60405180910390f35b610213610a4a565b005b61022f600480360381019061022a9190610f9e565b610c9b565b005b610239610e1a565b6040516102469190611105565b60405180910390f35b610257610e3f565b5f8111610299576040517f08c379a0000000000000000000000000000000000000000000000000000000008152600401610290906111d5565b60405180910390fd5b8060055f3373ffffffffffffffffffffffffffffffffffffffff1673ffffffffffffffffffffffffffffffffffffffff1681526020019081526020015f205f0154101561031b576040517f08c379a00000000000000000000000000000000000000000000000000000000081526004016103129061123d565b60405180910390fd5b61032433610e8c565b8060055f3373ffffffffffffffffffffffffffffffffffffffff1673ffffffffffffffffffffffffffffffffffffffff1681526020019081526020015f205f015f8282546103729190611288565b9250508190555060015f9054906101000a900473ffffffffffffffffffffffffffffffffffffffff1673ffffffffffffffffffffffffffffffffffffffff1663a9059cbb33836040518363ffffffff1660e01b81526004016103d59291906112bb565b6020604051808303815f875af11580156103f1573d5f5f3e3d5ffd5b505050506040513d601f19601f820116820180604052508101906104159190611317565b503373ffffffffffffffffffffffffffffffffffffffff167f0f5bb82176feb1b5e747e28471aa92156a04d9f3ab9f45f28e2d704232b93f758260405161045c919061105d565b60405180910390a261046c610f5e565b50565b5f5f60055f8473ffffffffffffffffffffffffffffffffffffffff1673ffffffffffffffffffffffffffffffffffffffff1681526020019081526020015f206040518060600160405290815f82015481526020016001820154815260200160028201548152505090505f816020015190505f825f01511115610554575f8260400151426104fc9190611288565b90505f600460149054906101000a900460ff16600a61051b9190611471565b905080845f01516003548461053091906114bb565b61053a91906114bb565b6105449190611529565b8361054f9190611559565b925050505b8092505050919050565b610566610e3f565b61056f33610e8c565b5f60055f3373ffffffffffffffffffffffffffffffffffffffff1673ffffffffffffffffffffffffffffffffffffffff1681526020019081526020015f206001015490505f81116105f5576040517f08c379a00000000000000000000000000000000000000000000000000000000081526004016105ec906115d6565b60405180910390fd5b8060025f9054906101000a900473ffffffffffffffffffffffffffffffffffffffff1673ffffffffffffffffffffffffffffffffffffffff166370a08231306040518263ffffffff1660e01b8152600401610650919061112d565b602060405180830381865afa15801561066b573d5f5f3e3d5ffd5b505050506040513d601f19601f8201168201806040525081019061068f9190611608565b10156106d0576040517f08c379a00000000000000000000000000000000000000000000000000000000081526004016106c7906116a3565b60405180910390fd5b5f60055f3373ffffffffffffffffffffffffffffffffffffffff1673ffffffffffffffffffffffffffffffffffffffff1681526020019081526020015f206001018190555060025f9054906101000a900473ffffffffffffffffffffffffffffffffffffffff1673ffffffffffffffffffffffffffffffffffffffff1663a9059cbb33836040518363ffffffff1660e01b81526004016107719291906112bb565b6020604051808303815f875af115801561078d573d5f5f3e3d5ffd5b505050506040513d601f19601f820116820180604052508101906107b19190611317565b503373ffffffffffffffffffffffffffffffffffffffff167f106f923f993c2149d49b4255ff723acafa1f2d94393f561d3eda32ae348f7241826040516107f8919061105d565b60405180910390a250610809610f5e565b565b5f600460149054906101000a900460ff16905090565b60035481565b60015f9054906101000a900473ffffffffffffffffffffffffffffffffffffffff1681565b60045f9054906101000a900473ffffffffffffffffffffffffffffffffffffffff1681565b6005602052805f5260405f205f91509050805f0154908060010154908060020154905083565b61089f610e3f565b5f81116108e1576040517f08c379a00000000000000000000000000000000000000000000000000000000081526004016108d89061170b565b60405180910390fd5b6108ea33610e8c565b60015f9054906101000a900473ffffffffffffffffffffffffffffffffffffffff1673ffffffffffffffffffffffffffffffffffffffff166323b872dd3330846040518463ffffffff1660e01b815260040161094893929190611729565b6020604051808303815f875af1158015610964573d5f5f3e3d5ffd5b505050506040513d601f19601f820116820180604052508101906109889190611317565b508060055f3373ffffffffffffffffffffffffffffffffffffffff1673ffffffffffffffffffffffffffffffffffffffff1681526020019081526020015f205f015f8282546109d79190611559565b925050819055503373ffffffffffffffffffffffffffffffffffffffff167f9e71bc8eea02a63969f509818f2dafb9254532904319f9dbda79b67bd34a5f3d82604051610a24919061105d565b60405180910390a2610a34610f5e565b50565b600460149054906101000a900460ff1681565b610a52610e3f565b5f60055f3373ffffffffffffffffffffffffffffffffffffffff1673ffffffffffffffffffffffffffffffffffffffff1681526020019081526020015f205f015490505f8111610ad7576040517f08c379a0000000000000000000000000000000000000000000000000000000008152600401610ace906117a8565b60405180910390fd5b5f60055f3373ffffffffffffffffffffffffffffffffffffffff1673ffffffffffffffffffffffffffffffffffffffff1681526020019081526020015f205f01819055505f60055f3373ffffffffffffffffffffffffffffffffffffffff1673ffffffffffffffffffffffffffffffffffffffff1681526020019081526020015f20600101819055504260055f3373ffffffffffffffffffffffffffffffffffffffff1673ffffffffffffffffffffffffffffffffffffffff1681526020019081526020015f206002018190555060015f9054906101000a900473ffffffffffffffffffffffffffffffffffffffff1673ffffffffffffffffffffffffffffffffffffffff1663a9059cbb33836040518363ffffffff1660e01b8152600401610c019291906112bb565b6020604051808303815f875af1158015610c1d573d5f5f3e3d5ffd5b505050506040513d601f19601f82011682018060405250810190610c419190611317565b503373ffffffffffffffffffffffffffffffffffffffff167f5fafa99d0643513820be26656b45130b01e1c03062e1266bf36f88cbd3bd969582604051610c88919061105d565b60405180910390a250610c99610f5e565b565b60045f9054906101000a900473ffffffffffffffffffffffffffffffffffffffff1673ffffffffffffffffffffffffffffffffffffffff163373ffffffffffffffffffffffffffffffffffffffff1614610d2a576040517f08c379a0000000000000000000000000000000000000000000000000000000008152600401610d2190611810565b60405180910390fd5b60025f9054906101000a900473ffffffffffffffffffffffffffffffffffffffff1673ffffffffffffffffffffffffffffffffffffffff166323b872dd3330846040518463ffffffff1660e01b8152600401610d8893929190611729565b6020604051808303815f875af1158015610da4573d5f5f3e3d5ffd5b505050506040513d601f19601f82011682018060405250810190610dc89190611317565b503373ffffffffffffffffffffffffffffffffffffffff167f56f9f6669b4d516aba6435f89640a8f61ed69a9de006cf3b35fbb21caac37a7c82604051610e0f919061105d565b60405180910390a250565b60025f9054906101000a900473ffffffffffffffffffffffffffffffffffffffff1681565b60025f5403610e83576040517f08c379a0000000000000000000000000000000000000000000000000000000008152600401610e7a90611878565b60405180910390fd5b60025f81905550565b5f60055f8373ffffffffffffffffffffffffffffffffffffffff1673ffffffffffffffffffffffffffffffffffffffff1681526020019081526020015f2090505f815f01541115610f51575f816002015442610ee89190611288565b90505f600460149054906101000a900460ff16600a610f079190611471565b90505f81845f015460035485610f1d91906114bb565b610f2791906114bb565b610f319190611529565b905080846001015f828254610f469190611559565b925050819055505050505b4281600201819055505050565b60015f81905550565b5f5ffd5b5f819050919050565b610f7d81610f6b565b8114610f87575f5ffd5b50565b5f81359050610f9881610f74565b92915050565b5f60208284031215610fb357610fb2610f67565b5b5f610fc084828501610f8a565b91505092915050565b5f73ffffffffffffffffffffffffffffffffffffffff82169050919050565b5f610ff282610fc9565b9050919050565b61100281610fe8565b811461100c575f5ffd5b50565b5f8135905061101d81610ff9565b92915050565b5f6020828403121561103857611037610f67565b5b5f6110458482850161100f565b91505092915050565b61105781610f6b565b82525050565b5f6020820190506110705f83018461104e565b92915050565b5f60ff82169050919050565b61108b81611076565b82525050565b5f6020820190506110a45f830184611082565b92915050565b5f819050919050565b5f6110cd6110c86110c384610fc9565b6110aa565b610fc9565b9050919050565b5f6110de826110b3565b9050919050565b5f6110ef826110d4565b9050919050565b6110ff816110e5565b82525050565b5f6020820190506111185f8301846110f6565b92915050565b61112781610fe8565b82525050565b5f6020820190506111405f83018461111e565b92915050565b5f6060820190506111595f83018661104e565b611166602083018561104e565b611173604083018461104e565b949350505050565b5f82825260208201905092915050565b7f43616e6e6f7420756e7374616b652030000000000000000000000000000000005f82015250565b5f6111bf60108361117b565b91506111ca8261118b565b602082019050919050565b5f6020820190508181035f8301526111ec816111b3565b9050919050565b7f4e6f7420656e6f756768207374616b65640000000000000000000000000000005f82015250565b5f61122760118361117b565b9150611232826111f3565b602082019050919050565b5f6020820190508181035f8301526112548161121b565b9050919050565b7f4e487b71000000000000000000000000000000000000000000000000000000005f52601160045260245ffd5b5f61129282610f6b565b915061129d83610f6b565b92508282039050818111156112b5576112b461125b565b5b92915050565b5f6040820190506112ce5f83018561111e565b6112db602083018461104e565b9392505050565b5f8115159050919050565b6112f6816112e2565b8114611300575f5ffd5b50565b5f81519050611311816112ed565b92915050565b5f6020828403121561132c5761132b610f67565b5b5f61133984828501611303565b91505092915050565b5f8160011c9050919050565b5f5f8291508390505b6001851115611397578086048111156113735761137261125b565b5b60018516156113825780820291505b808102905061139085611342565b9450611357565b94509492505050565b5f826113af576001905061146a565b816113bc575f905061146a565b81600181146113d257600281146113dc5761140b565b600191505061146a565b60ff8411156113ee576113ed61125b565b5b8360020a9150848211156114055761140461125b565b5b5061146a565b5060208310610133831016604e8410600b84101617156114405782820a90508381111561143b5761143a61125b565b5b61146a565b61144d848484600161134e565b925090508184048111156114645761146361125b565b5b81810290505b9392505050565b5f61147b82610f6b565b915061148683611076565b92506114b37fffffffffffffffffffffffffffffffffffffffffffffffffffffffffffffffff84846113a0565b905092915050565b5f6114c582610f6b565b91506114d083610f6b565b92508282026114de81610f6b565b915082820484148315176114f5576114f461125b565b5b5092915050565b7f4e487b71000000000000000000000000000000000000000000000000000000005f52601260045260245ffd5b5f61153382610f6b565b915061153e83610f6b565b92508261154e5761154d6114fc565b5b828204905092915050565b5f61156382610f6b565b915061156e83610f6b565b92508282019050808211156115865761158561125b565b5b92915050565b7f4e6f207265776172647320746f20636c61696d000000000000000000000000005f82015250565b5f6115c060138361117b565b91506115cb8261158c565b602082019050919050565b5f6020820190508181035f8301526115ed816115b4565b9050919050565b5f8151905061160281610f74565b92915050565b5f6020828403121561161d5761161c610f67565b5b5f61162a848285016115f4565b91505092915050565b7f496e73756666696369656e742072657761726420746f6b656e2062616c616e635f8201527f6500000000000000000000000000000000000000000000000000000000000000602082015250565b5f61168d60218361117b565b915061169882611633565b604082019050919050565b5f6020820190508181035f8301526116ba81611681565b9050919050565b7f43616e6e6f74207374616b6520300000000000000000000000000000000000005f82015250565b5f6116f5600e8361117b565b9150611700826116c1565b602082019050919050565b5f6020820190508181035f830152611722816116e9565b9050919050565b5f60608201905061173c5f83018661111e565b611749602083018561111e565b611756604083018461104e565b949350505050565b7f4e6f7468696e67207374616b65640000000000000000000000000000000000005f82015250565b5f611792600e8361117b565b915061179d8261175e565b602082019050919050565b5f6020820190508181035f8301526117bf81611786565b9050919050565b7f4e6f7420746865206f776e6572000000000000000000000000000000000000005f82015250565b5f6117fa600d8361117b565b9150611805826117c6565b602082019050919050565b5f6020820190508181035f830152611827816117ee565b9050919050565b7f5265656e7472616e637947756172643a207265656e7472616e742063616c6c005f82015250565b5f611862601f8361117b565b915061186d8261182e565b602082019050919050565b5f6020820190508181035f83015261188f81611856565b905091905056fea26469706673582212204cdad2bffcac4a8f46c89a4d7606d17ae875db3ff5d496ae0a50b05f494186bb64736f6c634300081e0033",
					"opcodes": "PUSH1 0x80 PUSH1 0x40 MSTORE CALLVALUE DUP1 ISZERO PUSH2 0xF JUMPI PUSH0 PUSH0 REVERT JUMPDEST POP PUSH1 0x40 MLOAD PUSH2 0x1BFD CODESIZE SUB DUP1 PUSH2 0x1BFD DUP4 CODECOPY DUP2 DUP2 ADD PUSH1 0x40 MSTORE DUP2 ADD SWAP1 PUSH2 0x31 SWAP2 SWAP1 PUSH2 0x273 JUMP JUMPDEST PUSH1 0x1 PUSH0 DUP2 SWAP1 SSTORE POP DUP3 PUSH1 0x1 PUSH0 PUSH2 0x100 EXP DUP2 SLOAD DUP2 PUSH20 0xFFFFFFFFFFFFFFFFFFFFFFFFFFFFFFFFFFFFFFFF MUL NOT AND SWAP1 DUP4 PUSH20 0xFFFFFFFFFFFFFFFFFFFFFFFFFFFFFFFFFFFFFFFF AND MUL OR SWAP1 SSTORE POP DUP2 PUSH1 0x2 PUSH0 PUSH2 0x100 EXP DUP2 SLOAD DUP2 PUSH20 0xFFFFFFFFFFFFFFFFFFFFFFFFFFFFFFFFFFFFFFFF MUL NOT AND SWAP1 DUP4 PUSH20 0xFFFFFFFFFFFFFFFFFFFFFFFFFFFFFFFFFFFFFFFF AND MUL OR SWAP1 SSTORE POP DUP1 PUSH1 0x3 DUP2 SWAP1 SSTORE POP CALLER PUSH1 0x4 PUSH0 PUSH2 0x100 EXP DUP2 SLOAD DUP2 PUSH20 0xFFFFFFFFFFFFFFFFFFFFFFFFFFFFFFFFFFFFFFFF MUL NOT AND SWAP1 DUP4 PUSH20 0xFFFFFFFFFFFFFFFFFFFFFFFFFFFFFFFFFFFFFFFF AND MUL OR SWAP1 SSTORE POP DUP3 PUSH20 0xFFFFFFFFFFFFFFFFFFFFFFFFFFFFFFFFFFFFFFFF AND PUSH4 0x313CE567 PUSH1 0x40 MLOAD DUP2 PUSH4 0xFFFFFFFF AND PUSH1 0xE0 SHL DUP2 MSTORE PUSH1 0x4 ADD PUSH1 0x20 PUSH1 0x40 MLOAD DUP1 DUP4 SUB DUP2 DUP7 GAS STATICCALL SWAP3 POP POP POP DUP1 ISZERO PUSH2 0x167 JUMPI POP PUSH1 0x40 MLOAD RETURNDATASIZE PUSH1 0x1F NOT PUSH1 0x1F DUP3 ADD AND DUP3 ADD DUP1 PUSH1 0x40 MSTORE POP DUP2 ADD SWAP1 PUSH2 0x164 SWAP2 SWAP1 PUSH2 0x2F9 JUMP JUMPDEST PUSH1 0x1 JUMPDEST PUSH2 0x1BD JUMPI RETURNDATASIZE DUP1 PUSH0 DUP2 EQ PUSH2 0x195 JUMPI PUSH1 0x40 MLOAD SWAP2 POP PUSH1 0x1F NOT PUSH1 0x3F RETURNDATASIZE ADD AND DUP3 ADD PUSH1 0x40 MSTORE RETURNDATASIZE DUP3 MSTORE RETURNDATASIZE PUSH0 PUSH1 0x20 DUP5 ADD RETURNDATACOPY PUSH2 0x19A JUMP JUMPDEST PUSH1 0x60 SWAP2 POP JUMPDEST POP PUSH1 0x12 PUSH1 0x4 PUSH1 0x14 PUSH2 0x100 EXP DUP2 SLOAD DUP2 PUSH1 0xFF MUL NOT AND SWAP1 DUP4 PUSH1 0xFF AND MUL OR SWAP1 SSTORE POP POP PUSH2 0x1DA JUMP JUMPDEST DUP1 PUSH1 0x4 PUSH1 0x14 PUSH2 0x100 EXP DUP2 SLOAD DUP2 PUSH1 0xFF MUL NOT AND SWAP1 DUP4 PUSH1 0xFF AND MUL OR SWAP1 SSTORE POP POP JUMPDEST POP POP POP PUSH2 0x324 JUMP JUMPDEST PUSH0 PUSH0 REVERT JUMPDEST PUSH0 PUSH20 0xFFFFFFFFFFFFFFFFFFFFFFFFFFFFFFFFFFFFFFFF DUP3 AND SWAP1 POP SWAP2 SWAP1 POP JUMP JUMPDEST PUSH0 PUSH2 0x20F DUP3 PUSH2 0x1E6 JUMP JUMPDEST SWAP1 POP SWAP2 SWAP1 POP JUMP JUMPDEST PUSH2 0x21F DUP2 PUSH2 0x205 JUMP JUMPDEST DUP2 EQ PUSH2 0x229 JUMPI PUSH0 PUSH0 REVERT JUMPDEST POP JUMP JUMPDEST PUSH0 DUP2 MLOAD SWAP1 POP PUSH2 0x23A DUP2 PUSH2 0x216 JUMP JUMPDEST SWAP3 SWAP2 POP POP JUMP JUMPDEST PUSH0 DUP2 SWAP1 POP SWAP2 SWAP1 POP JUMP JUMPDEST PUSH2 0x252 DUP2 PUSH2 0x240 JUMP JUMPDEST DUP2 EQ PUSH2 0x25C JUMPI PUSH0 PUSH0 REVERT JUMPDEST POP JUMP JUMPDEST PUSH0 DUP2 MLOAD SWAP1 POP PUSH2 0x26D DUP2 PUSH2 0x249 JUMP JUMPDEST SWAP3 SWAP2 POP POP JUMP JUMPDEST PUSH0 PUSH0 PUSH0 PUSH1 0x60 DUP5 DUP7 SUB SLT ISZERO PUSH2 0x28A JUMPI PUSH2 0x289 PUSH2 0x1E2 JUMP JUMPDEST JUMPDEST PUSH0 PUSH2 0x297 DUP7 DUP3 DUP8 ADD PUSH2 0x22C JUMP JUMPDEST SWAP4 POP POP PUSH1 0x20 PUSH2 0x2A8 DUP7 DUP3 DUP8 ADD PUSH2 0x22C JUMP JUMPDEST SWAP3 POP POP PUSH1 0x40 PUSH2 0x2B9 DUP7 DUP3 DUP8 ADD PUSH2 0x25F JUMP JUMPDEST SWAP2 POP POP SWAP3 POP SWAP3 POP SWAP3 JUMP JUMPDEST PUSH0 PUSH1 0xFF DUP3 AND SWAP1 POP SWAP2 SWAP1 POP JUMP JUMPDEST PUSH2 0x2D8 DUP2 PUSH2 0x2C3 JUMP JUMPDEST DUP2 EQ PUSH2 0x2E2 JUMPI PUSH0 PUSH0 REVERT JUMPDEST POP JUMP JUMPDEST PUSH0 DUP2 MLOAD SWAP1 POP PUSH2 0x2F3 DUP2 PUSH2 0x2CF JUMP JUMPDEST SWAP3 SWAP2 POP POP JUMP JUMPDEST PUSH0 PUSH1 0x20 DUP3 DUP5 SUB SLT ISZERO PUSH2 0x30E JUMPI PUSH2 0x30D PUSH2 0x1E2 JUMP JUMPDEST JUMPDEST PUSH0 PUSH2 0x31B DUP5 DUP3 DUP6 ADD PUSH2 0x2E5 JUMP JUMPDEST SWAP2 POP POP SWAP3 SWAP2 POP POP JUMP JUMPDEST PUSH2 0x18CC DUP1 PUSH2 0x331 PUSH0 CODECOPY PUSH0 RETURN INVALID PUSH1 0x80 PUSH1 0x40 MSTORE CALLVALUE DUP1 ISZERO PUSH2 0xF JUMPI PUSH0 PUSH0 REVERT JUMPDEST POP PUSH1 0x4 CALLDATASIZE LT PUSH2 0xCD JUMPI PUSH0 CALLDATALOAD PUSH1 0xE0 SHR DUP1 PUSH4 0x8DA5CB5B GT PUSH2 0x8A JUMPI DUP1 PUSH4 0xB9F7A7B5 GT PUSH2 0x64 JUMPI DUP1 PUSH4 0xB9F7A7B5 EQ PUSH2 0x1ED JUMPI DUP1 PUSH4 0xDB2E21BC EQ PUSH2 0x20B JUMPI DUP1 PUSH4 0xE72F3E57 EQ PUSH2 0x215 JUMPI DUP1 PUSH4 0xF7C618C1 EQ PUSH2 0x231 JUMPI PUSH2 0xCD JUMP JUMPDEST DUP1 PUSH4 0x8DA5CB5B EQ PUSH2 0x181 JUMPI DUP1 PUSH4 0x9168AE72 EQ PUSH2 0x19F JUMPI DUP1 PUSH4 0xA694FC3A EQ PUSH2 0x1D1 JUMPI PUSH2 0xCD JUMP JUMPDEST DUP1 PUSH4 0x2E17DE78 EQ PUSH2 0xD1 JUMPI DUP1 PUSH4 0x31D7A262 EQ PUSH2 0xED JUMPI DUP1 PUSH4 0x372500AB EQ PUSH2 0x11D JUMPI DUP1 PUSH4 0x51DDB566 EQ PUSH2 0x127 JUMPI DUP1 PUSH4 0x5D773B2C EQ PUSH2 0x145 JUMPI DUP1 PUSH4 0x72F702F3 EQ PUSH2 0x163 JUMPI JUMPDEST PUSH0 PUSH0 REVERT JUMPDEST PUSH2 0xEB PUSH1 0x4 DUP1 CALLDATASIZE SUB DUP2 ADD SWAP1 PUSH2 0xE6 SWAP2 SWAP1 PUSH2 0xF9E JUMP JUMPDEST PUSH2 0x24F JUMP JUMPDEST STOP JUMPDEST PUSH2 0x107 PUSH1 0x4 DUP1 CALLDATASIZE SUB DUP2 ADD SWAP1 PUSH2 0x102 SWAP2 SWAP1 PUSH2 0x1023 JUMP JUMPDEST PUSH2 0x46F JUMP JUMPDEST PUSH1 0x40 MLOAD PUSH2 0x114 SWAP2 SWAP1 PUSH2 0x105D JUMP JUMPDEST PUSH1 0x40 MLOAD DUP1 SWAP2 SUB SWAP1 RETURN JUMPDEST PUSH2 0x125 PUSH2 0x55E JUMP JUMPDEST STOP JUMPDEST PUSH2 0x12F PUSH2 0x80B JUMP JUMPDEST PUSH1 0x40 MLOAD PUSH2 0x13C SWAP2 SWAP1 PUSH2 0x1091 JUMP JUMPDEST PUSH1 0x40 MLOAD DUP1 SWAP2 SUB SWAP1 RETURN JUMPDEST PUSH2 0x14D PUSH2 0x821 JUMP JUMPDEST PUSH1 0x40 MLOAD PUSH2 0x15A SWAP2 SWAP1 PUSH2 0x105D JUMP JUMPDEST PUSH1 0x40 MLOAD DUP1 SWAP2 SUB SWAP1 RETURN JUMPDEST PUSH2 0x16B PUSH2 0x827 JUMP JUMPDEST PUSH1 0x40 MLOAD PUSH2 0x178 SWAP2 SWAP1 PUSH2 0x1105 JUMP JUMPDEST PUSH1 0x40 MLOAD DUP1 SWAP2 SUB SWAP1 RETURN JUMPDEST PUSH2 0x189 PUSH2 0x84C JUMP JUMPDEST PUSH1 0x40 MLOAD PUSH2 0x196 SWAP2 SWAP1 PUSH2 0x112D JUMP JUMPDEST PUSH1 0x40 MLOAD DUP1 SWAP2 SUB SWAP1 RETURN JUMPDEST PUSH2 0x1B9 PUSH1 0x4 DUP1 CALLDATASIZE SUB DUP2 ADD SWAP1 PUSH2 0x1B4 SWAP2 SWAP1 PUSH2 0x1023 JUMP JUMPDEST PUSH2 0x871 JUMP JUMPDEST PUSH1 0x40 MLOAD PUSH2 0x1C8 SWAP4 SWAP3 SWAP2 SWAP1 PUSH2 0x1146 JUMP JUMPDEST PUSH1 0x40 MLOAD DUP1 SWAP2 SUB SWAP1 RETURN JUMPDEST PUSH2 0x1EB PUSH1 0x4 DUP1 CALLDATASIZE SUB DUP2 ADD SWAP1 PUSH2 0x1E6 SWAP2 SWAP1 PUSH2 0xF9E JUMP JUMPDEST PUSH2 0x897 JUMP JUMPDEST STOP JUMPDEST PUSH2 0x1F5 PUSH2 0xA37 JUMP JUMPDEST PUSH1 0x40 MLOAD PUSH2 0x202 SWAP2 SWAP1 PUSH2 0x1091 JUMP JUMPDEST PUSH1 0x40 MLOAD DUP1 SWAP2 SUB SWAP1 RETURN JUMPDEST PUSH2 0x213 PUSH2 0xA4A JUMP JUMPDEST STOP JUMPDEST PUSH2 0x22F PUSH1 0x4 DUP1 CALLDATASIZE SUB DUP2 ADD SWAP1 PUSH2 0x22A SWAP2 SWAP1 PUSH2 0xF9E JUMP JUMPDEST PUSH2 0xC9B JUMP JUMPDEST STOP JUMPDEST PUSH2 0x239 PUSH2 0xE1A JUMP JUMPDEST PUSH1 0x40 MLOAD PUSH2 0x246 SWAP2 SWAP1 PUSH2 0x1105 JUMP JUMPDEST PUSH1 0x40 MLOAD DUP1 SWAP2 SUB SWAP1 RETURN JUMPDEST PUSH2 0x257 PUSH2 0xE3F JUMP JUMPDEST PUSH0 DUP2 GT PUSH2 0x299 JUMPI PUSH1 0x40 MLOAD PUSH32 0x8C379A000000000000000000000000000000000000000000000000000000000 DUP2 MSTORE PUSH1 0x4 ADD PUSH2 0x290 SWAP1 PUSH2 0x11D5 JUMP JUMPDEST PUSH1 0x40 MLOAD DUP1 SWAP2 SUB SWAP1 REVERT JUMPDEST DUP1 PUSH1 0x5 PUSH0 CALLER PUSH20 0xFFFFFFFFFFFFFFFFFFFFFFFFFFFFFFFFFFFFFFFF AND PUSH20 0xFFFFFFFFFFFFFFFFFFFFFFFFFFFFFFFFFFFFFFFF AND DUP2 MSTORE PUSH1 0x20 ADD SWAP1 DUP2 MSTORE PUSH1 0x20 ADD PUSH0 KECCAK256 PUSH0 ADD SLOAD LT ISZERO PUSH2 0x31B JUMPI PUSH1 0x40 MLOAD PUSH32 0x8C379A000000000000000000000000000000000000000000000000000000000 DUP2 MSTORE PUSH1 0x4 ADD PUSH2 0x312 SWAP1 PUSH2 0x123D JUMP JUMPDEST PUSH1 0x40 MLOAD DUP1 SWAP2 SUB SWAP1 REVERT JUMPDEST PUSH2 0x324 CALLER PUSH2 0xE8C JUMP JUMPDEST DUP1 PUSH1 0x5 PUSH0 CALLER PUSH20 0xFFFFFFFFFFFFFFFFFFFFFFFFFFFFFFFFFFFFFFFF AND PUSH20 0xFFFFFFFFFFFFFFFFFFFFFFFFFFFFFFFFFFFFFFFF AND DUP2 MSTORE PUSH1 0x20 ADD SWAP1 DUP2 MSTORE PUSH1 0x20 ADD PUSH0 KECCAK256 PUSH0 ADD PUSH0 DUP3 DUP3 SLOAD PUSH2 0x372 SWAP2 SWAP1 PUSH2 0x1288 JUMP JUMPDEST SWAP3 POP POP DUP2 SWAP1 SSTORE POP PUSH1 0x1 PUSH0 SWAP1 SLOAD SWAP1 PUSH2 0x100 EXP SWAP1 DIV PUSH20 0xFFFFFFFFFFFFFFFFFFFFFFFFFFFFFFFFFFFFFFFF AND PUSH20 0xFFFFFFFFFFFFFFFFFFFFFFFFFFFFFFFFFFFFFFFF AND PUSH4 0xA9059CBB CALLER DUP4 PUSH1 0x40 MLOAD DUP4 PUSH4 0xFFFFFFFF AND PUSH1 0xE0 SHL DUP2 MSTORE PUSH1 0x4 ADD PUSH2 0x3D5 SWAP3 SWAP2 SWAP1 PUSH2 0x12BB JUMP JUMPDEST PUSH1 0x20 PUSH1 0x40 MLOAD DUP1 DUP4 SUB DUP2 PUSH0 DUP8 GAS CALL ISZERO DUP1 ISZERO PUSH2 0x3F1 JUMPI RETURNDATASIZE PUSH0 PUSH0 RETURNDATACOPY RETURNDATASIZE PUSH0 REVERT JUMPDEST POP POP POP POP PUSH1 0x40 MLOAD RETURNDATASIZE PUSH1 0x1F NOT PUSH1 0x1F DUP3 ADD AND DUP3 ADD DUP1 PUSH1 0x40 MSTORE POP DUP2 ADD SWAP1 PUSH2 0x415 SWAP2 SWAP1 PUSH2 0x1317 JUMP JUMPDEST POP CALLER PUSH20 0xFFFFFFFFFFFFFFFFFFFFFFFFFFFFFFFFFFFFFFFF AND PUSH32 0xF5BB82176FEB1B5E747E28471AA92156A04D9F3AB9F45F28E2D704232B93F75 DUP3 PUSH1 0x40 MLOAD PUSH2 0x45C SWAP2 SWAP1 PUSH2 0x105D JUMP JUMPDEST PUSH1 0x40 MLOAD DUP1 SWAP2 SUB SWAP1 LOG2 PUSH2 0x46C PUSH2 0xF5E JUMP JUMPDEST POP JUMP JUMPDEST PUSH0 PUSH0 PUSH1 0x5 PUSH0 DUP5 PUSH20 0xFFFFFFFFFFFFFFFFFFFFFFFFFFFFFFFFFFFFFFFF AND PUSH20 0xFFFFFFFFFFFFFFFFFFFFFFFFFFFFFFFFFFFFFFFF AND DUP2 MSTORE PUSH1 0x20 ADD SWAP1 DUP2 MSTORE PUSH1 0x20 ADD PUSH0 KECCAK256 PUSH1 0x40 MLOAD DUP1 PUSH1 0x60 ADD PUSH1 0x40 MSTORE SWAP1 DUP2 PUSH0 DUP3 ADD SLOAD DUP2 MSTORE PUSH1 0x20 ADD PUSH1 0x1 DUP3 ADD SLOAD DUP2 MSTORE PUSH1 0x20 ADD PUSH1 0x2 DUP3 ADD SLOAD DUP2 MSTORE POP POP SWAP1 POP PUSH0 DUP2 PUSH1 0x20 ADD MLOAD SWAP1 POP PUSH0 DUP3 PUSH0 ADD MLOAD GT ISZERO PUSH2 0x554 JUMPI PUSH0 DUP3 PUSH1 0x40 ADD MLOAD TIMESTAMP PUSH2 0x4FC SWAP2 SWAP1 PUSH2 0x1288 JUMP JUMPDEST SWAP1 POP PUSH0 PUSH1 0x4 PUSH1 0x14 SWAP1 SLOAD SWAP1 PUSH2 0x100 EXP SWAP1 DIV PUSH1 0xFF AND PUSH1 0xA PUSH2 0x51B SWAP2 SWAP1 PUSH2 0x1471 JUMP JUMPDEST SWAP1 POP DUP1 DUP5 PUSH0 ADD MLOAD PUSH1 0x3 SLOAD DUP5 PUSH2 0x530 SWAP2 SWAP1 PUSH2 0x14BB JUMP JUMPDEST PUSH2 0x53A SWAP2 SWAP1 PUSH2 0x14BB JUMP JUMPDEST PUSH2 0x544 SWAP2 SWAP1 PUSH2 0x1529 JUMP JUMPDEST DUP4 PUSH2 0x54F SWAP2 SWAP1 PUSH2 0x1559 JUMP JUMPDEST SWAP3 POP POP POP JUMPDEST DUP1 SWAP3 POP POP POP SWAP2 SWAP1 POP JUMP JUMPDEST PUSH2 0x566 PUSH2 0xE3F JUMP JUMPDEST PUSH2 0x56F CALLER PUSH2 0xE8C JUMP JUMPDEST PUSH0 PUSH1 0x5 PUSH0 CALLER PUSH20 0xFFFFFFFFFFFFFFFFFFFFFFFFFFFFFFFFFFFFFFFF AND PUSH20 0xFFFFFFFFFFFFFFFFFFFFFFFFFFFFFFFFFFFFFFFF AND DUP2 MSTORE PUSH1 0x20 ADD SWAP1 DUP2 MSTORE PUSH1 0x20 ADD PUSH0 KECCAK256 PUSH1 0x1 ADD SLOAD SWAP1 POP PUSH0 DUP2 GT PUSH2 0x5F5 JUMPI PUSH1 0x40 MLOAD PUSH32 0x8C379A000000000000000000000000000000000000000000000000000000000 DUP2 MSTORE PUSH1 0x4 ADD PUSH2 0x5EC SWAP1 PUSH2 0x15D6 JUMP JUMPDEST PUSH1 0x40 MLOAD DUP1 SWAP2 SUB SWAP1 REVERT JUMPDEST DUP1 PUSH1 0x2 PUSH0 SWAP1 SLOAD SWAP1 PUSH2 0x100 EXP SWAP1 DIV PUSH20 0xFFFFFFFFFFFFFFFFFFFFFFFFFFFFFFFFFFFFFFFF AND PUSH20 0xFFFFFFFFFFFFFFFFFFFFFFFFFFFFFFFFFFFFFFFF AND PUSH4 0x70A08231 ADDRESS PUSH1 0x40 MLOAD DUP3 PUSH4 0xFFFFFFFF AND PUSH1 0xE0 SHL DUP2 MSTORE PUSH1 0x4 ADD PUSH2 0x650 SWAP2 SWAP1 PUSH2 0x112D JUMP JUMPDEST PUSH1 0x20 PUSH1 0x40 MLOAD DUP1 DUP4 SUB DUP2 DUP7 GAS STATICCALL ISZERO DUP1 ISZERO PUSH2 0x66B JUMPI RETURNDATASIZE PUSH0 PUSH0 RETURNDATACOPY RETURNDATASIZE PUSH0 REVERT JUMPDEST POP POP POP POP PUSH1 0x40 MLOAD RETURNDATASIZE PUSH1 0x1F NOT PUSH1 0x1F DUP3 ADD AND DUP3 ADD DUP1 PUSH1 0x40 MSTORE POP DUP2 ADD SWAP1 PUSH2 0x68F SWAP2 SWAP1 PUSH2 0x1608 JUMP JUMPDEST LT ISZERO PUSH2 0x6D0 JUMPI PUSH1 0x40 MLOAD PUSH32 0x8C379A000000000000000000000000000000000000000000000000000000000 DUP2 MSTORE PUSH1 0x4 ADD PUSH2 0x6C7 SWAP1 PUSH2 0x16A3 JUMP JUMPDEST PUSH1 0x40 MLOAD DUP1 SWAP2 SUB SWAP1 REVERT JUMPDEST PUSH0 PUSH1 0x5 PUSH0 CALLER PUSH20 0xFFFFFFFFFFFFFFFFFFFFFFFFFFFFFFFFFFFFFFFF AND PUSH20 0xFFFFFFFFFFFFFFFFFFFFFFFFFFFFFFFFFFFFFFFF AND DUP2 MSTORE PUSH1 0x20 ADD SWAP1 DUP2 MSTORE PUSH1 0x20 ADD PUSH0 KECCAK256 PUSH1 0x1 ADD DUP2 SWAP1 SSTORE POP PUSH1 0x2 PUSH0 SWAP1 SLOAD SWAP1 PUSH2 0x100 EXP SWAP1 DIV PUSH20 0xFFFFFFFFFFFFFFFFFFFFFFFFFFFFFFFFFFFFFFFF AND PUSH20 0xFFFFFFFFFFFFFFFFFFFFFFFFFFFFFFFFFFFFFFFF AND PUSH4 0xA9059CBB CALLER DUP4 PUSH1 0x40 MLOAD DUP4 PUSH4 0xFFFFFFFF AND PUSH1 0xE0 SHL DUP2 MSTORE PUSH1 0x4 ADD PUSH2 0x771 SWAP3 SWAP2 SWAP1 PUSH2 0x12BB JUMP JUMPDEST PUSH1 0x20 PUSH1 0x40 MLOAD DUP1 DUP4 SUB DUP2 PUSH0 DUP8 GAS CALL ISZERO DUP1 ISZERO PUSH2 0x78D JUMPI RETURNDATASIZE PUSH0 PUSH0 RETURNDATACOPY RETURNDATASIZE PUSH0 REVERT JUMPDEST POP POP POP POP PUSH1 0x40 MLOAD RETURNDATASIZE PUSH1 0x1F NOT PUSH1 0x1F DUP3 ADD AND DUP3 ADD DUP1 PUSH1 0x40 MSTORE POP DUP2 ADD SWAP1 PUSH2 0x7B1 SWAP2 SWAP1 PUSH2 0x1317 JUMP JUMPDEST POP CALLER PUSH20 0xFFFFFFFFFFFFFFFFFFFFFFFFFFFFFFFFFFFFFFFF AND PUSH32 0x106F923F993C2149D49B4255FF723ACAFA1F2D94393F561D3EDA32AE348F7241 DUP3 PUSH1 0x40 MLOAD PUSH2 0x7F8 SWAP2 SWAP1 PUSH2 0x105D JUMP JUMPDEST PUSH1 0x40 MLOAD DUP1 SWAP2 SUB SWAP1 LOG2 POP PUSH2 0x809 PUSH2 0xF5E JUMP JUMPDEST JUMP JUMPDEST PUSH0 PUSH1 0x4 PUSH1 0x14 SWAP1 SLOAD SWAP1 PUSH2 0x100 EXP SWAP1 DIV PUSH1 0xFF AND SWAP1 POP SWAP1 JUMP JUMPDEST PUSH1 0x3 SLOAD DUP2 JUMP JUMPDEST PUSH1 0x1 PUSH0 SWAP1 SLOAD SWAP1 PUSH2 0x100 EXP SWAP1 DIV PUSH20 0xFFFFFFFFFFFFFFFFFFFFFFFFFFFFFFFFFFFFFFFF AND DUP2 JUMP JUMPDEST PUSH1 0x4 PUSH0 SWAP1 SLOAD SWAP1 PUSH2 0x100 EXP SWAP1 DIV PUSH20 0xFFFFFFFFFFFFFFFFFFFFFFFFFFFFFFFFFFFFFFFF AND DUP2 JUMP JUMPDEST PUSH1 0x5 PUSH1 0x20 MSTORE DUP1 PUSH0 MSTORE PUSH1 0x40 PUSH0 KECCAK256 PUSH0 SWAP2 POP SWAP1 POP DUP1 PUSH0 ADD SLOAD SWAP1 DUP1 PUSH1 0x1 ADD SLOAD SWAP1 DUP1 PUSH1 0x2 ADD SLOAD SWAP1 POP DUP4 JUMP JUMPDEST PUSH2 0x89F PUSH2 0xE3F JUMP JUMPDEST PUSH0 DUP2 GT PUSH2 0x8E1 JUMPI PUSH1 0x40 MLOAD PUSH32 0x8C379A000000000000000000000000000000000000000000000000000000000 DUP2 MSTORE PUSH1 0x4 ADD PUSH2 0x8D8 SWAP1 PUSH2 0x170B JUMP JUMPDEST PUSH1 0x40 MLOAD DUP1 SWAP2 SUB SWAP1 REVERT JUMPDEST PUSH2 0x8EA CALLER PUSH2 0xE8C JUMP JUMPDEST PUSH1 0x1 PUSH0 SWAP1 SLOAD SWAP1 PUSH2 0x100 EXP SWAP1 DIV PUSH20 0xFFFFFFFFFFFFFFFFFFFFFFFFFFFFFFFFFFFFFFFF AND PUSH20 0xFFFFFFFFFFFFFFFFFFFFFFFFFFFFFFFFFFFFFFFF AND PUSH4 0x23B872DD CALLER ADDRESS DUP5 PUSH1 0x40 MLOAD DUP5 PUSH4 0xFFFFFFFF AND PUSH1 0xE0 SHL DUP2 MSTORE PUSH1 0x4 ADD PUSH2 0x948 SWAP4 SWAP3 SWAP2 SWAP1 PUSH2 0x1729 JUMP JUMPDEST PUSH1 0x20 PUSH1 0x40 MLOAD DUP1 DUP4 SUB DUP2 PUSH0 DUP8 GAS CALL ISZERO DUP1 ISZERO PUSH2 0x964 JUMPI RETURNDATASIZE PUSH0 PUSH0 RETURNDATACOPY RETURNDATASIZE PUSH0 REVERT JUMPDEST POP POP POP POP PUSH1 0x40 MLOAD RETURNDATASIZE PUSH1 0x1F NOT PUSH1 0x1F DUP3 ADD AND DUP3 ADD DUP1 PUSH1 0x40 MSTORE POP DUP2 ADD SWAP1 PUSH2 0x988 SWAP2 SWAP1 PUSH2 0x1317 JUMP JUMPDEST POP DUP1 PUSH1 0x5 PUSH0 CALLER PUSH20 0xFFFFFFFFFFFFFFFFFFFFFFFFFFFFFFFFFFFFFFFF AND PUSH20 0xFFFFFFFFFFFFFFFFFFFFFFFFFFFFFFFFFFFFFFFF AND DUP2 MSTORE PUSH1 0x20 ADD SWAP1 DUP2 MSTORE PUSH1 0x20 ADD PUSH0 KECCAK256 PUSH0 ADD PUSH0 DUP3 DUP3 SLOAD PUSH2 0x9D7 SWAP2 SWAP1 PUSH2 0x1559 JUMP JUMPDEST SWAP3 POP POP DUP2 SWAP1 SSTORE POP CALLER PUSH20 0xFFFFFFFFFFFFFFFFFFFFFFFFFFFFFFFFFFFFFFFF AND PUSH32 0x9E71BC8EEA02A63969F509818F2DAFB9254532904319F9DBDA79B67BD34A5F3D DUP3 PUSH1 0x40 MLOAD PUSH2 0xA24 SWAP2 SWAP1 PUSH2 0x105D JUMP JUMPDEST PUSH1 0x40 MLOAD DUP1 SWAP2 SUB SWAP1 LOG2 PUSH2 0xA34 PUSH2 0xF5E JUMP JUMPDEST POP JUMP JUMPDEST PUSH1 0x4 PUSH1 0x14 SWAP1 SLOAD SWAP1 PUSH2 0x100 EXP SWAP1 DIV PUSH1 0xFF AND DUP2 JUMP JUMPDEST PUSH2 0xA52 PUSH2 0xE3F JUMP JUMPDEST PUSH0 PUSH1 0x5 PUSH0 CALLER PUSH20 0xFFFFFFFFFFFFFFFFFFFFFFFFFFFFFFFFFFFFFFFF AND PUSH20 0xFFFFFFFFFFFFFFFFFFFFFFFFFFFFFFFFFFFFFFFF AND DUP2 MSTORE PUSH1 0x20 ADD SWAP1 DUP2 MSTORE PUSH1 0x20 ADD PUSH0 KECCAK256 PUSH0 ADD SLOAD SWAP1 POP PUSH0 DUP2 GT PUSH2 0xAD7 JUMPI PUSH1 0x40 MLOAD PUSH32 0x8C379A000000000000000000000000000000000000000000000000000000000 DUP2 MSTORE PUSH1 0x4 ADD PUSH2 0xACE SWAP1 PUSH2 0x17A8 JUMP JUMPDEST PUSH1 0x40 MLOAD DUP1 SWAP2 SUB SWAP1 REVERT JUMPDEST PUSH0 PUSH1 0x5 PUSH0 CALLER PUSH20 0xFFFFFFFFFFFFFFFFFFFFFFFFFFFFFFFFFFFFFFFF AND PUSH20 0xFFFFFFFFFFFFFFFFFFFFFFFFFFFFFFFFFFFFFFFF AND DUP2 MSTORE PUSH1 0x20 ADD SWAP1 DUP2 MSTORE PUSH1 0x20 ADD PUSH0 KECCAK256 PUSH0 ADD DUP2 SWAP1 SSTORE POP PUSH0 PUSH1 0x5 PUSH0 CALLER PUSH20 0xFFFFFFFFFFFFFFFFFFFFFFFFFFFFFFFFFFFFFFFF AND PUSH20 0xFFFFFFFFFFFFFFFFFFFFFFFFFFFFFFFFFFFFFFFF AND DUP2 MSTORE PUSH1 0x20 ADD SWAP1 DUP2 MSTORE PUSH1 0x20 ADD PUSH0 KECCAK256 PUSH1 0x1 ADD DUP2 SWAP1 SSTORE POP TIMESTAMP PUSH1 0x5 PUSH0 CALLER PUSH20 0xFFFFFFFFFFFFFFFFFFFFFFFFFFFFFFFFFFFFFFFF AND PUSH20 0xFFFFFFFFFFFFFFFFFFFFFFFFFFFFFFFFFFFFFFFF AND DUP2 MSTORE PUSH1 0x20 ADD SWAP1 DUP2 MSTORE PUSH1 0x20 ADD PUSH0 KECCAK256 PUSH1 0x2 ADD DUP2 SWAP1 SSTORE POP PUSH1 0x1 PUSH0 SWAP1 SLOAD SWAP1 PUSH2 0x100 EXP SWAP1 DIV PUSH20 0xFFFFFFFFFFFFFFFFFFFFFFFFFFFFFFFFFFFFFFFF AND PUSH20 0xFFFFFFFFFFFFFFFFFFFFFFFFFFFFFFFFFFFFFFFF AND PUSH4 0xA9059CBB CALLER DUP4 PUSH1 0x40 MLOAD DUP4 PUSH4 0xFFFFFFFF AND PUSH1 0xE0 SHL DUP2 MSTORE PUSH1 0x4 ADD PUSH2 0xC01 SWAP3 SWAP2 SWAP1 PUSH2 0x12BB JUMP JUMPDEST PUSH1 0x20 PUSH1 0x40 MLOAD DUP1 DUP4 SUB DUP2 PUSH0 DUP8 GAS CALL ISZERO DUP1 ISZERO PUSH2 0xC1D JUMPI RETURNDATASIZE PUSH0 PUSH0 RETURNDATACOPY RETURNDATASIZE PUSH0 REVERT JUMPDEST POP POP POP POP PUSH1 0x40 MLOAD RETURNDATASIZE PUSH1 0x1F NOT PUSH1 0x1F DUP3 ADD AND DUP3 ADD DUP1 PUSH1 0x40 MSTORE POP DUP2 ADD SWAP1 PUSH2 0xC41 SWAP2 SWAP1 PUSH2 0x1317 JUMP JUMPDEST POP CALLER PUSH20 0xFFFFFFFFFFFFFFFFFFFFFFFFFFFFFFFFFFFFFFFF AND PUSH32 0x5FAFA99D0643513820BE26656B45130B01E1C03062E1266BF36F88CBD3BD9695 DUP3 PUSH1 0x40 MLOAD PUSH2 0xC88 SWAP2 SWAP1 PUSH2 0x105D JUMP JUMPDEST PUSH1 0x40 MLOAD DUP1 SWAP2 SUB SWAP1 LOG2 POP PUSH2 0xC99 PUSH2 0xF5E JUMP JUMPDEST JUMP JUMPDEST PUSH1 0x4 PUSH0 SWAP1 SLOAD SWAP1 PUSH2 0x100 EXP SWAP1 DIV PUSH20 0xFFFFFFFFFFFFFFFFFFFFFFFFFFFFFFFFFFFFFFFF AND PUSH20 0xFFFFFFFFFFFFFFFFFFFFFFFFFFFFFFFFFFFFFFFF AND CALLER PUSH20 0xFFFFFFFFFFFFFFFFFFFFFFFFFFFFFFFFFFFFFFFF AND EQ PUSH2 0xD2A JUMPI PUSH1 0x40 MLOAD PUSH32 0x8C379A000000000000000000000000000000000000000000000000000000000 DUP2 MSTORE PUSH1 0x4 ADD PUSH2 0xD21 SWAP1 PUSH2 0x1810 JUMP JUMPDEST PUSH1 0x40 MLOAD DUP1 SWAP2 SUB SWAP1 REVERT JUMPDEST PUSH1 0x2 PUSH0 SWAP1 SLOAD SWAP1 PUSH2 0x100 EXP SWAP1 DIV PUSH20 0xFFFFFFFFFFFFFFFFFFFFFFFFFFFFFFFFFFFFFFFF AND PUSH20 0xFFFFFFFFFFFFFFFFFFFFFFFFFFFFFFFFFFFFFFFF AND PUSH4 0x23B872DD CALLER ADDRESS DUP5 PUSH1 0x40 MLOAD DUP5 PUSH4 0xFFFFFFFF AND PUSH1 0xE0 SHL DUP2 MSTORE PUSH1 0x4 ADD PUSH2 0xD88 SWAP4 SWAP3 SWAP2 SWAP1 PUSH2 0x1729 JUMP JUMPDEST PUSH1 0x20 PUSH1 0x40 MLOAD DUP1 DUP4 SUB DUP2 PUSH0 DUP8 GAS CALL ISZERO DUP1 ISZERO PUSH2 0xDA4 JUMPI RETURNDATASIZE PUSH0 PUSH0 RETURNDATACOPY RETURNDATASIZE PUSH0 REVERT JUMPDEST POP POP POP POP PUSH1 0x40 MLOAD RETURNDATASIZE PUSH1 0x1F NOT PUSH1 0x1F DUP3 ADD AND DUP3 ADD DUP1 PUSH1 0x40 MSTORE POP DUP2 ADD SWAP1 PUSH2 0xDC8 SWAP2 SWAP1 PUSH2 0x1317 JUMP JUMPDEST POP CALLER PUSH20 0xFFFFFFFFFFFFFFFFFFFFFFFFFFFFFFFFFFFFFFFF AND PUSH32 0x56F9F6669B4D516ABA6435F89640A8F61ED69A9DE006CF3B35FBB21CAAC37A7C DUP3 PUSH1 0x40 MLOAD PUSH2 0xE0F SWAP2 SWAP1 PUSH2 0x105D JUMP JUMPDEST PUSH1 0x40 MLOAD DUP1 SWAP2 SUB SWAP1 LOG2 POP JUMP JUMPDEST PUSH1 0x2 PUSH0 SWAP1 SLOAD SWAP1 PUSH2 0x100 EXP SWAP1 DIV PUSH20 0xFFFFFFFFFFFFFFFFFFFFFFFFFFFFFFFFFFFFFFFF AND DUP2 JUMP JUMPDEST PUSH1 0x2 PUSH0 SLOAD SUB PUSH2 0xE83 JUMPI PUSH1 0x40 MLOAD PUSH32 0x8C379A000000000000000000000000000000000000000000000000000000000 DUP2 MSTORE PUSH1 0x4 ADD PUSH2 0xE7A SWAP1 PUSH2 0x1878 JUMP JUMPDEST PUSH1 0x40 MLOAD DUP1 SWAP2 SUB SWAP1 REVERT JUMPDEST PUSH1 0x2 PUSH0 DUP2 SWAP1 SSTORE POP JUMP JUMPDEST PUSH0 PUSH1 0x5 PUSH0 DUP4 PUSH20 0xFFFFFFFFFFFFFFFFFFFFFFFFFFFFFFFFFFFFFFFF AND PUSH20 0xFFFFFFFFFFFFFFFFFFFFFFFFFFFFFFFFFFFFFFFF AND DUP2 MSTORE PUSH1 0x20 ADD SWAP1 DUP2 MSTORE PUSH1 0x20 ADD PUSH0 KECCAK256 SWAP1 POP PUSH0 DUP2 PUSH0 ADD SLOAD GT ISZERO PUSH2 0xF51 JUMPI PUSH0 DUP2 PUSH1 0x2 ADD SLOAD TIMESTAMP PUSH2 0xEE8 SWAP2 SWAP1 PUSH2 0x1288 JUMP JUMPDEST SWAP1 POP PUSH0 PUSH1 0x4 PUSH1 0x14 SWAP1 SLOAD SWAP1 PUSH2 0x100 EXP SWAP1 DIV PUSH1 0xFF AND PUSH1 0xA PUSH2 0xF07 SWAP2 SWAP1 PUSH2 0x1471 JUMP JUMPDEST SWAP1 POP PUSH0 DUP2 DUP5 PUSH0 ADD SLOAD PUSH1 0x3 SLOAD DUP6 PUSH2 0xF1D SWAP2 SWAP1 PUSH2 0x14BB JUMP JUMPDEST PUSH2 0xF27 SWAP2 SWAP1 PUSH2 0x14BB JUMP JUMPDEST PUSH2 0xF31 SWAP2 SWAP1 PUSH2 0x1529 JUMP JUMPDEST SWAP1 POP DUP1 DUP5 PUSH1 0x1 ADD PUSH0 DUP3 DUP3 SLOAD PUSH2 0xF46 SWAP2 SWAP1 PUSH2 0x1559 JUMP JUMPDEST SWAP3 POP POP DUP2 SWAP1 SSTORE POP POP POP POP JUMPDEST TIMESTAMP DUP2 PUSH1 0x2 ADD DUP2 SWAP1 SSTORE POP POP POP JUMP JUMPDEST PUSH1 0x1 PUSH0 DUP2 SWAP1 SSTORE POP JUMP JUMPDEST PUSH0 PUSH0 REVERT JUMPDEST PUSH0 DUP2 SWAP1 POP SWAP2 SWAP1 POP JUMP JUMPDEST PUSH2 0xF7D DUP2 PUSH2 0xF6B JUMP JUMPDEST DUP2 EQ PUSH2 0xF87 JUMPI PUSH0 PUSH0 REVERT JUMPDEST POP JUMP JUMPDEST PUSH0 DUP2 CALLDATALOAD SWAP1 POP PUSH2 0xF98 DUP2 PUSH2 0xF74 JUMP JUMPDEST SWAP3 SWAP2 POP POP JUMP JUMPDEST PUSH0 PUSH1 0x20 DUP3 DUP5 SUB SLT ISZERO PUSH2 0xFB3 JUMPI PUSH2 0xFB2 PUSH2 0xF67 JUMP JUMPDEST JUMPDEST PUSH0 PUSH2 0xFC0 DUP5 DUP3 DUP6 ADD PUSH2 0xF8A JUMP JUMPDEST SWAP2 POP POP SWAP3 SWAP2 POP POP JUMP JUMPDEST PUSH0 PUSH20 0xFFFFFFFFFFFFFFFFFFFFFFFFFFFFFFFFFFFFFFFF DUP3 AND SWAP1 POP SWAP2 SWAP1 POP JUMP JUMPDEST PUSH0 PUSH2 0xFF2 DUP3 PUSH2 0xFC9 JUMP JUMPDEST SWAP1 POP SWAP2 SWAP1 POP JUMP JUMPDEST PUSH2 0x1002 DUP2 PUSH2 0xFE8 JUMP JUMPDEST DUP2 EQ PUSH2 0x100C JUMPI PUSH0 PUSH0 REVERT JUMPDEST POP JUMP JUMPDEST PUSH0 DUP2 CALLDATALOAD SWAP1 POP PUSH2 0x101D DUP2 PUSH2 0xFF9 JUMP JUMPDEST SWAP3 SWAP2 POP POP JUMP JUMPDEST PUSH0 PUSH1 0x20 DUP3 DUP5 SUB SLT ISZERO PUSH2 0x1038 JUMPI PUSH2 0x1037 PUSH2 0xF67 JUMP JUMPDEST JUMPDEST PUSH0 PUSH2 0x1045 DUP5 DUP3 DUP6 ADD PUSH2 0x100F JUMP JUMPDEST SWAP2 POP POP SWAP3 SWAP2 POP POP JUMP JUMPDEST PUSH2 0x1057 DUP2 PUSH2 0xF6B JUMP JUMPDEST DUP3 MSTORE POP POP JUMP JUMPDEST PUSH0 PUSH1 0x20 DUP3 ADD SWAP1 POP PUSH2 0x1070 PUSH0 DUP4 ADD DUP5 PUSH2 0x104E JUMP JUMPDEST SWAP3 SWAP2 POP POP JUMP JUMPDEST PUSH0 PUSH1 0xFF DUP3 AND SWAP1 POP SWAP2 SWAP1 POP JUMP JUMPDEST PUSH2 0x108B DUP2 PUSH2 0x1076 JUMP JUMPDEST DUP3 MSTORE POP POP JUMP JUMPDEST PUSH0 PUSH1 0x20 DUP3 ADD SWAP1 POP PUSH2 0x10A4 PUSH0 DUP4 ADD DUP5 PUSH2 0x1082 JUMP JUMPDEST SWAP3 SWAP2 POP POP JUMP JUMPDEST PUSH0 DUP2 SWAP1 POP SWAP2 SWAP1 POP JUMP JUMPDEST PUSH0 PUSH2 0x10CD PUSH2 0x10C8 PUSH2 0x10C3 DUP5 PUSH2 0xFC9 JUMP JUMPDEST PUSH2 0x10AA JUMP JUMPDEST PUSH2 0xFC9 JUMP JUMPDEST SWAP1 POP SWAP2 SWAP1 POP JUMP JUMPDEST PUSH0 PUSH2 0x10DE DUP3 PUSH2 0x10B3 JUMP JUMPDEST SWAP1 POP SWAP2 SWAP1 POP JUMP JUMPDEST PUSH0 PUSH2 0x10EF DUP3 PUSH2 0x10D4 JUMP JUMPDEST SWAP1 POP SWAP2 SWAP1 POP JUMP JUMPDEST PUSH2 0x10FF DUP2 PUSH2 0x10E5 JUMP JUMPDEST DUP3 MSTORE POP POP JUMP JUMPDEST PUSH0 PUSH1 0x20 DUP3 ADD SWAP1 POP PUSH2 0x1118 PUSH0 DUP4 ADD DUP5 PUSH2 0x10F6 JUMP JUMPDEST SWAP3 SWAP2 POP POP JUMP JUMPDEST PUSH2 0x1127 DUP2 PUSH2 0xFE8 JUMP JUMPDEST DUP3 MSTORE POP POP JUMP JUMPDEST PUSH0 PUSH1 0x20 DUP3 ADD SWAP1 POP PUSH2 0x1140 PUSH0 DUP4 ADD DUP5 PUSH2 0x111E JUMP JUMPDEST SWAP3 SWAP2 POP POP JUMP JUMPDEST PUSH0 PUSH1 0x60 DUP3 ADD SWAP1 POP PUSH2 0x1159 PUSH0 DUP4 ADD DUP7 PUSH2 0x104E JUMP JUMPDEST PUSH2 0x1166 PUSH1 0x20 DUP4 ADD DUP6 PUSH2 0x104E JUMP JUMPDEST PUSH2 0x1173 PUSH1 0x40 DUP4 ADD DUP5 PUSH2 0x104E JUMP JUMPDEST SWAP5 SWAP4 POP POP POP POP JUMP JUMPDEST PUSH0 DUP3 DUP3 MSTORE PUSH1 0x20 DUP3 ADD SWAP1 POP SWAP3 SWAP2 POP POP JUMP JUMPDEST PUSH32 0x43616E6E6F7420756E7374616B65203000000000000000000000000000000000 PUSH0 DUP3 ADD MSTORE POP JUMP JUMPDEST PUSH0 PUSH2 0x11BF PUSH1 0x10 DUP4 PUSH2 0x117B JUMP JUMPDEST SWAP2 POP PUSH2 0x11CA DUP3 PUSH2 0x118B JUMP JUMPDEST PUSH1 0x20 DUP3 ADD SWAP1 POP SWAP2 SWAP1 POP JUMP JUMPDEST PUSH0 PUSH1 0x20 DUP3 ADD SWAP1 POP DUP2 DUP2 SUB PUSH0 DUP4 ADD MSTORE PUSH2 0x11EC DUP2 PUSH2 0x11B3 JUMP JUMPDEST SWAP1 POP SWAP2 SWAP1 POP JUMP JUMPDEST PUSH32 0x4E6F7420656E6F756768207374616B6564000000000000000000000000000000 PUSH0 DUP3 ADD MSTORE POP JUMP JUMPDEST PUSH0 PUSH2 0x1227 PUSH1 0x11 DUP4 PUSH2 0x117B JUMP JUMPDEST SWAP2 POP PUSH2 0x1232 DUP3 PUSH2 0x11F3 JUMP JUMPDEST PUSH1 0x20 DUP3 ADD SWAP1 POP SWAP2 SWAP1 POP JUMP JUMPDEST PUSH0 PUSH1 0x20 DUP3 ADD SWAP1 POP DUP2 DUP2 SUB PUSH0 DUP4 ADD MSTORE PUSH2 0x1254 DUP2 PUSH2 0x121B JUMP JUMPDEST SWAP1 POP SWAP2 SWAP1 POP JUMP JUMPDEST PUSH32 0x4E487B7100000000000000000000000000000000000000000000000000000000 PUSH0 MSTORE PUSH1 0x11 PUSH1 0x4 MSTORE PUSH1 0x24 PUSH0 REVERT JUMPDEST PUSH0 PUSH2 0x1292 DUP3 PUSH2 0xF6B JUMP JUMPDEST SWAP2 POP PUSH2 0x129D DUP4 PUSH2 0xF6B JUMP JUMPDEST SWAP3 POP DUP3 DUP3 SUB SWAP1 POP DUP2 DUP2 GT ISZERO PUSH2 0x12B5 JUMPI PUSH2 0x12B4 PUSH2 0x125B JUMP JUMPDEST JUMPDEST SWAP3 SWAP2 POP POP JUMP JUMPDEST PUSH0 PUSH1 0x40 DUP3 ADD SWAP1 POP PUSH2 0x12CE PUSH0 DUP4 ADD DUP6 PUSH2 0x111E JUMP JUMPDEST PUSH2 0x12DB PUSH1 0x20 DUP4 ADD DUP5 PUSH2 0x104E JUMP JUMPDEST SWAP4 SWAP3 POP POP POP JUMP JUMPDEST PUSH0 DUP2 ISZERO ISZERO SWAP1 POP SWAP2 SWAP1 POP JUMP JUMPDEST PUSH2 0x12F6 DUP2 PUSH2 0x12E2 JUMP JUMPDEST DUP2 EQ PUSH2 0x1300 JUMPI PUSH0 PUSH0 REVERT JUMPDEST POP JUMP JUMPDEST PUSH0 DUP2 MLOAD SWAP1 POP PUSH2 0x1311 DUP2 PUSH2 0x12ED JUMP JUMPDEST SWAP3 SWAP2 POP POP JUMP JUMPDEST PUSH0 PUSH1 0x20 DUP3 DUP5 SUB SLT ISZERO PUSH2 0x132C JUMPI PUSH2 0x132B PUSH2 0xF67 JUMP JUMPDEST JUMPDEST PUSH0 PUSH2 0x1339 DUP5 DUP3 DUP6 ADD PUSH2 0x1303 JUMP JUMPDEST SWAP2 POP POP SWAP3 SWAP2 POP POP JUMP JUMPDEST PUSH0 DUP2 PUSH1 0x1 SHR SWAP1 POP SWAP2 SWAP1 POP JUMP JUMPDEST PUSH0 PUSH0 DUP3 SWAP2 POP DUP4 SWAP1 POP JUMPDEST PUSH1 0x1 DUP6 GT ISZERO PUSH2 0x1397 JUMPI DUP1 DUP7 DIV DUP2 GT ISZERO PUSH2 0x1373 JUMPI PUSH2 0x1372 PUSH2 0x125B JUMP JUMPDEST JUMPDEST PUSH1 0x1 DUP6 AND ISZERO PUSH2 0x1382 JUMPI DUP1 DUP3 MUL SWAP2 POP JUMPDEST DUP1 DUP2 MUL SWAP1 POP PUSH2 0x1390 DUP6 PUSH2 0x1342 JUMP JUMPDEST SWAP5 POP PUSH2 0x1357 JUMP JUMPDEST SWAP5 POP SWAP5 SWAP3 POP POP POP JUMP JUMPDEST PUSH0 DUP3 PUSH2 0x13AF JUMPI PUSH1 0x1 SWAP1 POP PUSH2 0x146A JUMP JUMPDEST DUP2 PUSH2 0x13BC JUMPI PUSH0 SWAP1 POP PUSH2 0x146A JUMP JUMPDEST DUP2 PUSH1 0x1 DUP2 EQ PUSH2 0x13D2 JUMPI PUSH1 0x2 DUP2 EQ PUSH2 0x13DC JUMPI PUSH2 0x140B JUMP JUMPDEST PUSH1 0x1 SWAP2 POP POP PUSH2 0x146A JUMP JUMPDEST PUSH1 0xFF DUP5 GT ISZERO PUSH2 0x13EE JUMPI PUSH2 0x13ED PUSH2 0x125B JUMP JUMPDEST JUMPDEST DUP4 PUSH1 0x2 EXP SWAP2 POP DUP5 DUP3 GT ISZERO PUSH2 0x1405 JUMPI PUSH2 0x1404 PUSH2 0x125B JUMP JUMPDEST JUMPDEST POP PUSH2 0x146A JUMP JUMPDEST POP PUSH1 0x20 DUP4 LT PUSH2 0x133 DUP4 LT AND PUSH1 0x4E DUP5 LT PUSH1 0xB DUP5 LT AND OR ISZERO PUSH2 0x1440 JUMPI DUP3 DUP3 EXP SWAP1 POP DUP4 DUP2 GT ISZERO PUSH2 0x143B JUMPI PUSH2 0x143A PUSH2 0x125B JUMP JUMPDEST JUMPDEST PUSH2 0x146A JUMP JUMPDEST PUSH2 0x144D DUP5 DUP5 DUP5 PUSH1 0x1 PUSH2 0x134E JUMP JUMPDEST SWAP3 POP SWAP1 POP DUP2 DUP5 DIV DUP2 GT ISZERO PUSH2 0x1464 JUMPI PUSH2 0x1463 PUSH2 0x125B JUMP JUMPDEST JUMPDEST DUP2 DUP2 MUL SWAP1 POP JUMPDEST SWAP4 SWAP3 POP POP POP JUMP JUMPDEST PUSH0 PUSH2 0x147B DUP3 PUSH2 0xF6B JUMP JUMPDEST SWAP2 POP PUSH2 0x1486 DUP4 PUSH2 0x1076 JUMP JUMPDEST SWAP3 POP PUSH2 0x14B3 PUSH32 0xFFFFFFFFFFFFFFFFFFFFFFFFFFFFFFFFFFFFFFFFFFFFFFFFFFFFFFFFFFFFFFFF DUP5 DUP5 PUSH2 0x13A0 JUMP JUMPDEST SWAP1 POP SWAP3 SWAP2 POP POP JUMP JUMPDEST PUSH0 PUSH2 0x14C5 DUP3 PUSH2 0xF6B JUMP JUMPDEST SWAP2 POP PUSH2 0x14D0 DUP4 PUSH2 0xF6B JUMP JUMPDEST SWAP3 POP DUP3 DUP3 MUL PUSH2 0x14DE DUP2 PUSH2 0xF6B JUMP JUMPDEST SWAP2 POP DUP3 DUP3 DIV DUP5 EQ DUP4 ISZERO OR PUSH2 0x14F5 JUMPI PUSH2 0x14F4 PUSH2 0x125B JUMP JUMPDEST JUMPDEST POP SWAP3 SWAP2 POP POP JUMP JUMPDEST PUSH32 0x4E487B7100000000000000000000000000000000000000000000000000000000 PUSH0 MSTORE PUSH1 0x12 PUSH1 0x4 MSTORE PUSH1 0x24 PUSH0 REVERT JUMPDEST PUSH0 PUSH2 0x1533 DUP3 PUSH2 0xF6B JUMP JUMPDEST SWAP2 POP PUSH2 0x153E DUP4 PUSH2 0xF6B JUMP JUMPDEST SWAP3 POP DUP3 PUSH2 0x154E JUMPI PUSH2 0x154D PUSH2 0x14FC JUMP JUMPDEST JUMPDEST DUP3 DUP3 DIV SWAP1 POP SWAP3 SWAP2 POP POP JUMP JUMPDEST PUSH0 PUSH2 0x1563 DUP3 PUSH2 0xF6B JUMP JUMPDEST SWAP2 POP PUSH2 0x156E DUP4 PUSH2 0xF6B JUMP JUMPDEST SWAP3 POP DUP3 DUP3 ADD SWAP1 POP DUP1 DUP3 GT ISZERO PUSH2 0x1586 JUMPI PUSH2 0x1585 PUSH2 0x125B JUMP JUMPDEST JUMPDEST SWAP3 SWAP2 POP POP JUMP JUMPDEST PUSH32 0x4E6F207265776172647320746F20636C61696D00000000000000000000000000 PUSH0 DUP3 ADD MSTORE POP JUMP JUMPDEST PUSH0 PUSH2 0x15C0 PUSH1 0x13 DUP4 PUSH2 0x117B JUMP JUMPDEST SWAP2 POP PUSH2 0x15CB DUP3 PUSH2 0x158C JUMP JUMPDEST PUSH1 0x20 DUP3 ADD SWAP1 POP SWAP2 SWAP1 POP JUMP JUMPDEST PUSH0 PUSH1 0x20 DUP3 ADD SWAP1 POP DUP2 DUP2 SUB PUSH0 DUP4 ADD MSTORE PUSH2 0x15ED DUP2 PUSH2 0x15B4 JUMP JUMPDEST SWAP1 POP SWAP2 SWAP1 POP JUMP JUMPDEST PUSH0 DUP2 MLOAD SWAP1 POP PUSH2 0x1602 DUP2 PUSH2 0xF74 JUMP JUMPDEST SWAP3 SWAP2 POP POP JUMP JUMPDEST PUSH0 PUSH1 0x20 DUP3 DUP5 SUB SLT ISZERO PUSH2 0x161D JUMPI PUSH2 0x161C PUSH2 0xF67 JUMP JUMPDEST JUMPDEST PUSH0 PUSH2 0x162A DUP5 DUP3 DUP6 ADD PUSH2 0x15F4 JUMP JUMPDEST SWAP2 POP POP SWAP3 SWAP2 POP POP JUMP JUMPDEST PUSH32 0x496E73756666696369656E742072657761726420746F6B656E2062616C616E63 PUSH0 DUP3 ADD MSTORE PUSH32 0x6500000000000000000000000000000000000000000000000000000000000000 PUSH1 0x20 DUP3 ADD MSTORE POP JUMP JUMPDEST PUSH0 PUSH2 0x168D PUSH1 0x21 DUP4 PUSH2 0x117B JUMP JUMPDEST SWAP2 POP PUSH2 0x1698 DUP3 PUSH2 0x1633 JUMP JUMPDEST PUSH1 0x40 DUP3 ADD SWAP1 POP SWAP2 SWAP1 POP JUMP JUMPDEST PUSH0 PUSH1 0x20 DUP3 ADD SWAP1 POP DUP2 DUP2 SUB PUSH0 DUP4 ADD MSTORE PUSH2 0x16BA DUP2 PUSH2 0x1681 JUMP JUMPDEST SWAP1 POP SWAP2 SWAP1 POP JUMP JUMPDEST PUSH32 0x43616E6E6F74207374616B652030000000000000000000000000000000000000 PUSH0 DUP3 ADD MSTORE POP JUMP JUMPDEST PUSH0 PUSH2 0x16F5 PUSH1 0xE DUP4 PUSH2 0x117B JUMP JUMPDEST SWAP2 POP PUSH2 0x1700 DUP3 PUSH2 0x16C1 JUMP JUMPDEST PUSH1 0x20 DUP3 ADD SWAP1 POP SWAP2 SWAP1 POP JUMP JUMPDEST PUSH0 PUSH1 0x20 DUP3 ADD SWAP1 POP DUP2 DUP2 SUB PUSH0 DUP4 ADD MSTORE PUSH2 0x1722 DUP2 PUSH2 0x16E9 JUMP JUMPDEST SWAP1 POP SWAP2 SWAP1 POP JUMP JUMPDEST PUSH0 PUSH1 0x60 DUP3 ADD SWAP1 POP PUSH2 0x173C PUSH0 DUP4 ADD DUP7 PUSH2 0x111E JUMP JUMPDEST PUSH2 0x1749 PUSH1 0x20 DUP4 ADD DUP6 PUSH2 0x111E JUMP JUMPDEST PUSH2 0x1756 PUSH1 0x40 DUP4 ADD DUP5 PUSH2 0x104E JUMP JUMPDEST SWAP5 SWAP4 POP POP POP POP JUMP JUMPDEST PUSH32 0x4E6F7468696E67207374616B6564000000000000000000000000000000000000 PUSH0 DUP3 ADD MSTORE POP JUMP JUMPDEST PUSH0 PUSH2 0x1792 PUSH1 0xE DUP4 PUSH2 0x117B JUMP JUMPDEST SWAP2 POP PUSH2 0x179D DUP3 PUSH2 0x175E JUMP JUMPDEST PUSH1 0x20 DUP3 ADD SWAP1 POP SWAP2 SWAP1 POP JUMP JUMPDEST PUSH0 PUSH1 0x20 DUP3 ADD SWAP1 POP DUP2 DUP2 SUB PUSH0 DUP4 ADD MSTORE PUSH2 0x17BF DUP2 PUSH2 0x1786 JUMP JUMPDEST SWAP1 POP SWAP2 SWAP1 POP JUMP JUMPDEST PUSH32 0x4E6F7420746865206F776E657200000000000000000000000000000000000000 PUSH0 DUP3 ADD MSTORE POP JUMP JUMPDEST PUSH0 PUSH2 0x17FA PUSH1 0xD DUP4 PUSH2 0x117B JUMP JUMPDEST SWAP2 POP PUSH2 0x1805 DUP3 PUSH2 0x17C6 JUMP JUMPDEST PUSH1 0x20 DUP3 ADD SWAP1 POP SWAP2 SWAP1 POP JUMP JUMPDEST PUSH0 PUSH1 0x20 DUP3 ADD SWAP1 POP DUP2 DUP2 SUB PUSH0 DUP4 ADD MSTORE PUSH2 0x1827 DUP2 PUSH2 0x17EE JUMP JUMPDEST SWAP1 POP SWAP2 SWAP1 POP JUMP JUMPDEST PUSH32 0x5265656E7472616E637947756172643A207265656E7472616E742063616C6C00 PUSH0 DUP3 ADD MSTORE POP JUMP JUMPDEST PUSH0 PUSH2 0x1862 PUSH1 0x1F DUP4 PUSH2 0x117B JUMP JUMPDEST SWAP2 POP PUSH2 0x186D DUP3 PUSH2 0x182E JUMP JUMPDEST PUSH1 0x20 DUP3 ADD SWAP1 POP SWAP2 SWAP1 POP JUMP JUMPDEST PUSH0 PUSH1 0x20 DUP3 ADD SWAP1 POP DUP2 DUP2 SUB PUSH0 DUP4 ADD MSTORE PUSH2 0x188F DUP2 PUSH2 0x1856 JUMP JUMPDEST SWAP1 POP SWAP2 SWAP1 POP JUMP INVALID LOG2 PUSH5 0x6970667358 0x22 SLT KECCAK256 0x4C 0xDA 0xD2 0xBF 0xFC 0xAC BLOBBASEFEE DUP16 CHAINID 0xC8 SWAP11 0x4D PUSH23 0x6D17AE875DB3FF5D496AE0A50B05F494186BB64736F6C PUSH4 0x4300081E STOP CALLER "
				},
				"gasEstimates": {
					"creation": {
						"codeDepositCost": "1269600",
						"executionCost": "infinite",
						"totalCost": "infinite"
					},
					"external": {
						"claimRewards()": "infinite",
						"emergencyWithdraw()": "infinite",
						"getStakingTokenDecimals()": "2591",
						"owner()": "2531",
						"pendingRewards(address)": "infinite",
						"refillRewards(uint256)": "infinite",
						"rewardRatePerSecond()": "2514",
						"rewardToken()": "infinite",
						"stake(uint256)": "infinite",
						"stakers(address)": "infinite",
						"stakingToken()": "infinite",
						"stakingTokenDecimals()": "2539",
						"unstake(uint256)": "infinite"
					},
					"internal": {
						"updateRewards(address)": "infinite"
					}
				},
				"methodIdentifiers": {
					"claimRewards()": "372500ab",
					"emergencyWithdraw()": "db2e21bc",
					"getStakingTokenDecimals()": "51ddb566",
					"owner()": "8da5cb5b",
					"pendingRewards(address)": "31d7a262",
					"refillRewards(uint256)": "e72f3e57",
					"rewardRatePerSecond()": "5d773b2c",
					"rewardToken()": "f7c618c1",
					"stake(uint256)": "a694fc3a",
					"stakers(address)": "9168ae72",
					"stakingToken()": "72f702f3",
					"stakingTokenDecimals()": "b9f7a7b5",
					"unstake(uint256)": "2e17de78"
				}
			},
			"storageLayout": {
				"storage": [
					{
						"astId": 10,
						"contract": "submissions/Zora/Day27YieldFarming.sol:YieldFarming",
						"label": "_status",
						"offset": 0,
						"slot": "0",
						"type": "t_uint256"
					},
					{
						"astId": 1939,
						"contract": "submissions/Zora/Day27YieldFarming.sol:YieldFarming",
						"label": "stakingToken",
						"offset": 0,
						"slot": "1",
						"type": "t_contract(IERC20)142"
					},
					{
						"astId": 1942,
						"contract": "submissions/Zora/Day27YieldFarming.sol:YieldFarming",
						"label": "rewardToken",
						"offset": 0,
						"slot": "2",
						"type": "t_contract(IERC20)142"
					},
					{
						"astId": 1944,
						"contract": "submissions/Zora/Day27YieldFarming.sol:YieldFarming",
						"label": "rewardRatePerSecond",
						"offset": 0,
						"slot": "3",
						"type": "t_uint256"
					},
					{
						"astId": 1946,
						"contract": "submissions/Zora/Day27YieldFarming.sol:YieldFarming",
						"label": "owner",
						"offset": 0,
						"slot": "4",
						"type": "t_address"
					},
					{
						"astId": 1948,
						"contract": "submissions/Zora/Day27YieldFarming.sol:YieldFarming",
						"label": "stakingTokenDecimals",
						"offset": 20,
						"slot": "4",
						"type": "t_uint8"
					},
					{
						"astId": 1960,
						"contract": "submissions/Zora/Day27YieldFarming.sol:YieldFarming",
						"label": "stakers",
						"offset": 0,
						"slot": "5",
						"type": "t_mapping(t_address,t_struct(StakerInfo)1955_storage)"
					}
				],
				"types": {
					"t_address": {
						"encoding": "inplace",
						"label": "address",
						"numberOfBytes": "20"
					},
					"t_contract(IERC20)142": {
						"encoding": "inplace",
						"label": "contract IERC20",
						"numberOfBytes": "20"
					},
					"t_mapping(t_address,t_struct(StakerInfo)1955_storage)": {
						"encoding": "mapping",
						"key": "t_address",
						"label": "mapping(address => struct YieldFarming.StakerInfo)",
						"numberOfBytes": "32",
						"value": "t_struct(StakerInfo)1955_storage"
					},
					"t_struct(StakerInfo)1955_storage": {
						"encoding": "inplace",
						"label": "struct YieldFarming.StakerInfo",
						"members": [
							{
								"astId": 1950,
								"contract": "submissions/Zora/Day27YieldFarming.sol:YieldFarming",
								"label": "stakedAmount",
								"offset": 0,
								"slot": "0",
								"type": "t_uint256"
							},
							{
								"astId": 1952,
								"contract": "submissions/Zora/Day27YieldFarming.sol:YieldFarming",
								"label": "rewardDebt",
								"offset": 0,
								"slot": "1",
								"type": "t_uint256"
							},
							{
								"astId": 1954,
								"contract": "submissions/Zora/Day27YieldFarming.sol:YieldFarming",
								"label": "lastUpdate",
								"offset": 0,
								"slot": "2",
								"type": "t_uint256"
							}
						],
						"numberOfBytes": "96"
					},
					"t_uint256": {
						"encoding": "inplace",
						"label": "uint256",
						"numberOfBytes": "32"
					},
					"t_uint8": {
						"encoding": "inplace",
						"label": "uint8",
						"numberOfBytes": "1"
					}
				}
			},
			"userdoc": {
				"kind": "user",
				"methods": {
					"claimRewards()": {
						"notice": "领取累积的奖励"
					},
					"emergencyWithdraw()": {
						"notice": "紧急取消质押而不领取奖励"
					},
					"getStakingTokenDecimals()": {
						"notice": "查看质押代币小数位数"
					},
					"pendingRewards(address)": {
						"notice": "查看待处理奖励而不领取"
					},
					"refillRewards(uint256)": {
						"notice": "管理员可以补充奖励代币"
					},
					"stake(uint256)": {
						"notice": "质押代币以开始赚取奖励"
					},
					"unstake(uint256)": {
						"notice": "取消质押代币并可选择领取奖励"
					}
				},
				"version": 1
			}
		}
	}
}