{
	"submissions/Zora/Day29SimpleStableCoin.sol": {
		"SimpleStablecoin": {
			"abi": [
				{
					"inputs": [
						{
							"internalType": "address",
							"name": "_collateralToken",
							"type": "address"
						},
						{
							"internalType": "address",
							"name": "_initialOwner",
							"type": "address"
						},
						{
							"internalType": "address",
							"name": "_priceFeed",
							"type": "address"
						}
					],
					"stateMutability": "nonpayable",
					"type": "constructor"
				},
				{
					"inputs": [],
					"name": "AccessControlBadConfirmation",
					"type": "error"
				},
				{
					"inputs": [
						{
							"internalType": "address",
							"name": "account",
							"type": "address"
						},
						{
							"internalType": "bytes32",
							"name": "neededRole",
							"type": "bytes32"
						}
					],
					"name": "AccessControlUnauthorizedAccount",
					"type": "error"
				},
				{
					"inputs": [],
					"name": "CollateralizationRatioTooLow",
					"type": "error"
				},
				{
					"inputs": [
						{
							"internalType": "address",
							"name": "spender",
							"type": "address"
						},
						{
							"internalType": "uint256",
							"name": "allowance",
							"type": "uint256"
						},
						{
							"internalType": "uint256",
							"name": "needed",
							"type": "uint256"
						}
					],
					"name": "ERC20InsufficientAllowance",
					"type": "error"
				},
				{
					"inputs": [
						{
							"internalType": "address",
							"name": "sender",
							"type": "address"
						},
						{
							"internalType": "uint256",
							"name": "balance",
							"type": "uint256"
						},
						{
							"internalType": "uint256",
							"name": "needed",
							"type": "uint256"
						}
					],
					"name": "ERC20InsufficientBalance",
					"type": "error"
				},
				{
					"inputs": [
						{
							"internalType": "address",
							"name": "approver",
							"type": "address"
						}
					],
					"name": "ERC20InvalidApprover",
					"type": "error"
				},
				{
					"inputs": [
						{
							"internalType": "address",
							"name": "receiver",
							"type": "address"
						}
					],
					"name": "ERC20InvalidReceiver",
					"type": "error"
				},
				{
					"inputs": [
						{
							"internalType": "address",
							"name": "sender",
							"type": "address"
						}
					],
					"name": "ERC20InvalidSender",
					"type": "error"
				},
				{
					"inputs": [
						{
							"internalType": "address",
							"name": "spender",
							"type": "address"
						}
					],
					"name": "ERC20InvalidSpender",
					"type": "error"
				},
				{
					"inputs": [],
					"name": "InsufficientStablecoinBalance",
					"type": "error"
				},
				{
					"inputs": [],
					"name": "InvalidCollateralTokenAddress",
					"type": "error"
				},
				{
					"inputs": [],
					"name": "InvalidPriceFeedAddress",
					"type": "error"
				},
				{
					"inputs": [],
					"name": "MintAmountIsZero",
					"type": "error"
				},
				{
					"inputs": [
						{
							"internalType": "address",
							"name": "owner",
							"type": "address"
						}
					],
					"name": "OwnableInvalidOwner",
					"type": "error"
				},
				{
					"inputs": [
						{
							"internalType": "address",
							"name": "account",
							"type": "address"
						}
					],
					"name": "OwnableUnauthorizedAccount",
					"type": "error"
				},
				{
					"inputs": [
						{
							"internalType": "address",
							"name": "token",
							"type": "address"
						}
					],
					"name": "SafeERC20FailedOperation",
					"type": "error"
				},
				{
					"anonymous": false,
					"inputs": [
						{
							"indexed": true,
							"internalType": "address",
							"name": "owner",
							"type": "address"
						},
						{
							"indexed": true,
							"internalType": "address",
							"name": "spender",
							"type": "address"
						},
						{
							"indexed": false,
							"internalType": "uint256",
							"name": "value",
							"type": "uint256"
						}
					],
					"name": "Approval",
					"type": "event"
				},
				{
					"anonymous": false,
					"inputs": [
						{
							"indexed": false,
							"internalType": "uint256",
							"name": "newRatio",
							"type": "uint256"
						}
					],
					"name": "CollateralizationRatioUpdated",
					"type": "event"
				},
				{
					"anonymous": false,
					"inputs": [
						{
							"indexed": true,
							"internalType": "address",
							"name": "user",
							"type": "address"
						},
						{
							"indexed": false,
							"internalType": "uint256",
							"name": "amount",
							"type": "uint256"
						},
						{
							"indexed": false,
							"internalType": "uint256",
							"name": "collateralDeposited",
							"type": "uint256"
						}
					],
					"name": "Minted",
					"type": "event"
				},
				{
					"anonymous": false,
					"inputs": [
						{
							"indexed": true,
							"internalType": "address",
							"name": "previousOwner",
							"type": "address"
						},
						{
							"indexed": true,
							"internalType": "address",
							"name": "newOwner",
							"type": "address"
						}
					],
					"name": "OwnershipTransferred",
					"type": "event"
				},
				{
					"anonymous": false,
					"inputs": [
						{
							"indexed": false,
							"internalType": "address",
							"name": "newPriceFeed",
							"type": "address"
						}
					],
					"name": "PriceFeedUpdated",
					"type": "event"
				},
				{
					"anonymous": false,
					"inputs": [
						{
							"indexed": true,
							"internalType": "address",
							"name": "user",
							"type": "address"
						},
						{
							"indexed": false,
							"internalType": "uint256",
							"name": "amount",
							"type": "uint256"
						},
						{
							"indexed": false,
							"internalType": "uint256",
							"name": "collateralReturned",
							"type": "uint256"
						}
					],
					"name": "Redeemed",
					"type": "event"
				},
				{
					"anonymous": false,
					"inputs": [
						{
							"indexed": true,
							"internalType": "bytes32",
							"name": "role",
							"type": "bytes32"
						},
						{
							"indexed": true,
							"internalType": "bytes32",
							"name": "previousAdminRole",
							"type": "bytes32"
						},
						{
							"indexed": true,
							"internalType": "bytes32",
							"name": "newAdminRole",
							"type": "bytes32"
						}
					],
					"name": "RoleAdminChanged",
					"type": "event"
				},
				{
					"anonymous": false,
					"inputs": [
						{
							"indexed": true,
							"internalType": "bytes32",
							"name": "role",
							"type": "bytes32"
						},
						{
							"indexed": true,
							"internalType": "address",
							"name": "account",
							"type": "address"
						},
						{
							"indexed": true,
							"internalType": "address",
							"name": "sender",
							"type": "address"
						}
					],
					"name": "RoleGranted",
					"type": "event"
				},
				{
					"anonymous": false,
					"inputs": [
						{
							"indexed": true,
							"internalType": "bytes32",
							"name": "role",
							"type": "bytes32"
						},
						{
							"indexed": true,
							"internalType": "address",
							"name": "account",
							"type": "address"
						},
						{
							"indexed": true,
							"internalType": "address",
							"name": "sender",
							"type": "address"
						}
					],
					"name": "RoleRevoked",
					"type": "event"
				},
				{
					"anonymous": false,
					"inputs": [
						{
							"indexed": true,
							"internalType": "address",
							"name": "from",
							"type": "address"
						},
						{
							"indexed": true,
							"internalType": "address",
							"name": "to",
							"type": "address"
						},
						{
							"indexed": false,
							"internalType": "uint256",
							"name": "value",
							"type": "uint256"
						}
					],
					"name": "Transfer",
					"type": "event"
				},
				{
					"inputs": [],
					"name": "DEFAULT_ADMIN_ROLE",
					"outputs": [
						{
							"internalType": "bytes32",
							"name": "",
							"type": "bytes32"
						}
					],
					"stateMutability": "view",
					"type": "function"
				},
				{
					"inputs": [],
					"name": "PRICE_FEED_MANAGER_ROLE",
					"outputs": [
						{
							"internalType": "bytes32",
							"name": "",
							"type": "bytes32"
						}
					],
					"stateMutability": "view",
					"type": "function"
				},
				{
					"inputs": [
						{
							"internalType": "address",
							"name": "owner",
							"type": "address"
						},
						{
							"internalType": "address",
							"name": "spender",
							"type": "address"
						}
					],
					"name": "allowance",
					"outputs": [
						{
							"internalType": "uint256",
							"name": "",
							"type": "uint256"
						}
					],
					"stateMutability": "view",
					"type": "function"
				},
				{
					"inputs": [
						{
							"internalType": "address",
							"name": "spender",
							"type": "address"
						},
						{
							"internalType": "uint256",
							"name": "value",
							"type": "uint256"
						}
					],
					"name": "approve",
					"outputs": [
						{
							"internalType": "bool",
							"name": "",
							"type": "bool"
						}
					],
					"stateMutability": "nonpayable",
					"type": "function"
				},
				{
					"inputs": [
						{
							"internalType": "address",
							"name": "account",
							"type": "address"
						}
					],
					"name": "balanceOf",
					"outputs": [
						{
							"internalType": "uint256",
							"name": "",
							"type": "uint256"
						}
					],
					"stateMutability": "view",
					"type": "function"
				},
				{
					"inputs": [],
					"name": "collateralDecimals",
					"outputs": [
						{
							"internalType": "uint8",
							"name": "",
							"type": "uint8"
						}
					],
					"stateMutability": "view",
					"type": "function"
				},
				{
					"inputs": [],
					"name": "collateralToken",
					"outputs": [
						{
							"internalType": "contract IERC20",
							"name": "",
							"type": "address"
						}
					],
					"stateMutability": "view",
					"type": "function"
				},
				{
					"inputs": [],
					"name": "collateralizationRatio",
					"outputs": [
						{
							"internalType": "uint256",
							"name": "",
							"type": "uint256"
						}
					],
					"stateMutability": "view",
					"type": "function"
				},
				{
					"inputs": [],
					"name": "decimals",
					"outputs": [
						{
							"internalType": "uint8",
							"name": "",
							"type": "uint8"
						}
					],
					"stateMutability": "view",
					"type": "function"
				},
				{
					"inputs": [
						{
							"internalType": "uint256",
							"name": "amount",
							"type": "uint256"
						}
					],
					"name": "getCollateralForRedeem",
					"outputs": [
						{
							"internalType": "uint256",
							"name": "",
							"type": "uint256"
						}
					],
					"stateMutability": "view",
					"type": "function"
				},
				{
					"inputs": [],
					"name": "getCurrentPrice",
					"outputs": [
						{
							"internalType": "uint256",
							"name": "",
							"type": "uint256"
						}
					],
					"stateMutability": "view",
					"type": "function"
				},
				{
					"inputs": [
						{
							"internalType": "uint256",
							"name": "amount",
							"type": "uint256"
						}
					],
					"name": "getRequiredCollateralForMint",
					"outputs": [
						{
							"internalType": "uint256",
							"name": "",
							"type": "uint256"
						}
					],
					"stateMutability": "view",
					"type": "function"
				},
				{
					"inputs": [
						{
							"internalType": "bytes32",
							"name": "role",
							"type": "bytes32"
						}
					],
					"name": "getRoleAdmin",
					"outputs": [
						{
							"internalType": "bytes32",
							"name": "",
							"type": "bytes32"
						}
					],
					"stateMutability": "view",
					"type": "function"
				},
				{
					"inputs": [
						{
							"internalType": "bytes32",
							"name": "role",
							"type": "bytes32"
						},
						{
							"internalType": "address",
							"name": "account",
							"type": "address"
						}
					],
					"name": "grantRole",
					"outputs": [],
					"stateMutability": "nonpayable",
					"type": "function"
				},
				{
					"inputs": [
						{
							"internalType": "bytes32",
							"name": "role",
							"type": "bytes32"
						},
						{
							"internalType": "address",
							"name": "account",
							"type": "address"
						}
					],
					"name": "hasRole",
					"outputs": [
						{
							"internalType": "bool",
							"name": "",
							"type": "bool"
						}
					],
					"stateMutability": "view",
					"type": "function"
				},
				{
					"inputs": [
						{
							"internalType": "uint256",
							"name": "amount",
							"type": "uint256"
						}
					],
					"name": "mint",
					"outputs": [],
					"stateMutability": "nonpayable",
					"type": "function"
				},
				{
					"inputs": [],
					"name": "name",
					"outputs": [
						{
							"internalType": "string",
							"name": "",
							"type": "string"
						}
					],
					"stateMutability": "view",
					"type": "function"
				},
				{
					"inputs": [],
					"name": "owner",
					"outputs": [
						{
							"internalType": "address",
							"name": "",
							"type": "address"
						}
					],
					"stateMutability": "view",
					"type": "function"
				},
				{
					"inputs": [],
					"name": "priceFeed",
					"outputs": [
						{
							"internalType": "contract AggregatorV3Interface",
							"name": "",
							"type": "address"
						}
					],
					"stateMutability": "view",
					"type": "function"
				},
				{
					"inputs": [
						{
							"internalType": "uint256",
							"name": "amount",
							"type": "uint256"
						}
					],
					"name": "redeem",
					"outputs": [],
					"stateMutability": "nonpayable",
					"type": "function"
				},
				{
					"inputs": [],
					"name": "renounceOwnership",
					"outputs": [],
					"stateMutability": "nonpayable",
					"type": "function"
				},
				{
					"inputs": [
						{
							"internalType": "bytes32",
							"name": "role",
							"type": "bytes32"
						},
						{
							"internalType": "address",
							"name": "callerConfirmation",
							"type": "address"
						}
					],
					"name": "renounceRole",
					"outputs": [],
					"stateMutability": "nonpayable",
					"type": "function"
				},
				{
					"inputs": [
						{
							"internalType": "bytes32",
							"name": "role",
							"type": "bytes32"
						},
						{
							"internalType": "address",
							"name": "account",
							"type": "address"
						}
					],
					"name": "revokeRole",
					"outputs": [],
					"stateMutability": "nonpayable",
					"type": "function"
				},
				{
					"inputs": [
						{
							"internalType": "uint256",
							"name": "newRatio",
							"type": "uint256"
						}
					],
					"name": "setCollateralizationRatio",
					"outputs": [],
					"stateMutability": "nonpayable",
					"type": "function"
				},
				{
					"inputs": [
						{
							"internalType": "address",
							"name": "_newPriceFeed",
							"type": "address"
						}
					],
					"name": "setPriceFeedContract",
					"outputs": [],
					"stateMutability": "nonpayable",
					"type": "function"
				},
				{
					"inputs": [
						{
							"internalType": "bytes4",
							"name": "interfaceId",
							"type": "bytes4"
						}
					],
					"name": "supportsInterface",
					"outputs": [
						{
							"internalType": "bool",
							"name": "",
							"type": "bool"
						}
					],
					"stateMutability": "view",
					"type": "function"
				},
				{
					"inputs": [],
					"name": "symbol",
					"outputs": [
						{
							"internalType": "string",
							"name": "",
							"type": "string"
						}
					],
					"stateMutability": "view",
					"type": "function"
				},
				{
					"inputs": [],
					"name": "totalSupply",
					"outputs": [
						{
							"internalType": "uint256",
							"name": "",
							"type": "uint256"
						}
					],
					"stateMutability": "view",
					"type": "function"
				},
				{
					"inputs": [
						{
							"internalType": "address",
							"name": "to",
							"type": "address"
						},
						{
							"internalType": "uint256",
							"name": "value",
							"type": "uint256"
						}
					],
					"name": "transfer",
					"outputs": [
						{
							"internalType": "bool",
							"name": "",
							"type": "bool"
						}
					],
					"stateMutability": "nonpayable",
					"type": "function"
				},
				{
					"inputs": [
						{
							"internalType": "address",
							"name": "from",
							"type": "address"
						},
						{
							"internalType": "address",
							"name": "to",
							"type": "address"
						},
						{
							"internalType": "uint256",
							"name": "value",
							"type": "uint256"
						}
					],
					"name": "transferFrom",
					"outputs": [
						{
							"internalType": "bool",
							"name": "",
							"type": "bool"
						}
					],
					"stateMutability": "nonpayable",
					"type": "function"
				},
				{
					"inputs": [
						{
							"internalType": "address",
							"name": "newOwner",
							"type": "address"
						}
					],
					"name": "transferOwnership",
					"outputs": [],
					"stateMutability": "nonpayable",
					"type": "function"
				}
			],
			"devdoc": {
				"errors": {
					"AccessControlBadConfirmation()": [
						{
							"details": "The caller of a function is not the expected one. NOTE: Don't confuse with {AccessControlUnauthorizedAccount}."
						}
					],
					"AccessControlUnauthorizedAccount(address,bytes32)": [
						{
							"details": "The `account` is missing a role."
						}
					],
					"ERC20InsufficientAllowance(address,uint256,uint256)": [
						{
							"details": "Indicates a failure with the `spender`’s `allowance`. Used in transfers.",
							"params": {
								"allowance": "Amount of tokens a `spender` is allowed to operate with.",
								"needed": "Minimum amount required to perform a transfer.",
								"spender": "Address that may be allowed to operate on tokens without being their owner."
							}
						}
					],
					"ERC20InsufficientBalance(address,uint256,uint256)": [
						{
							"details": "Indicates an error related to the current `balance` of a `sender`. Used in transfers.",
							"params": {
								"balance": "Current balance for the interacting account.",
								"needed": "Minimum amount required to perform a transfer.",
								"sender": "Address whose tokens are being transferred."
							}
						}
					],
					"ERC20InvalidApprover(address)": [
						{
							"details": "Indicates a failure with the `approver` of a token to be approved. Used in approvals.",
							"params": {
								"approver": "Address initiating an approval operation."
							}
						}
					],
					"ERC20InvalidReceiver(address)": [
						{
							"details": "Indicates a failure with the token `receiver`. Used in transfers.",
							"params": {
								"receiver": "Address to which tokens are being transferred."
							}
						}
					],
					"ERC20InvalidSender(address)": [
						{
							"details": "Indicates a failure with the token `sender`. Used in transfers.",
							"params": {
								"sender": "Address whose tokens are being transferred."
							}
						}
					],
					"ERC20InvalidSpender(address)": [
						{
							"details": "Indicates a failure with the `spender` to be approved. Used in approvals.",
							"params": {
								"spender": "Address that may be allowed to operate on tokens without being their owner."
							}
						}
					],
					"OwnableInvalidOwner(address)": [
						{
							"details": "The owner is not a valid owner account. (eg. `address(0)`)"
						}
					],
					"OwnableUnauthorizedAccount(address)": [
						{
							"details": "The caller account is not authorized to perform an operation."
						}
					],
					"SafeERC20FailedOperation(address)": [
						{
							"details": "An operation with an ERC-20 token failed."
						}
					]
				},
				"events": {
					"Approval(address,address,uint256)": {
						"details": "Emitted when the allowance of a `spender` for an `owner` is set by a call to {approve}. `value` is the new allowance."
					},
					"RoleAdminChanged(bytes32,bytes32,bytes32)": {
						"details": "Emitted when `newAdminRole` is set as ``role``'s admin role, replacing `previousAdminRole` `DEFAULT_ADMIN_ROLE` is the starting admin for all roles, despite {RoleAdminChanged} not being emitted to signal this."
					},
					"RoleGranted(bytes32,address,address)": {
						"details": "Emitted when `account` is granted `role`. `sender` is the account that originated the contract call. This account bears the admin role (for the granted role). Expected in cases where the role was granted using the internal {AccessControl-_grantRole}."
					},
					"RoleRevoked(bytes32,address,address)": {
						"details": "Emitted when `account` is revoked `role`. `sender` is the account that originated the contract call:   - if using `revokeRole`, it is the admin role bearer   - if using `renounceRole`, it is the role bearer (i.e. `account`)"
					},
					"Transfer(address,address,uint256)": {
						"details": "Emitted when `value` tokens are moved from one account (`from`) to another (`to`). Note that `value` may be zero."
					}
				},
				"kind": "dev",
				"methods": {
					"allowance(address,address)": {
						"details": "Returns the remaining number of tokens that `spender` will be allowed to spend on behalf of `owner` through {transferFrom}. This is zero by default. This value changes when {approve} or {transferFrom} are called."
					},
					"approve(address,uint256)": {
						"details": "See {IERC20-approve}. NOTE: If `value` is the maximum `uint256`, the allowance is not updated on `transferFrom`. This is semantically equivalent to an infinite approval. Requirements: - `spender` cannot be the zero address."
					},
					"balanceOf(address)": {
						"details": "Returns the value of tokens owned by `account`."
					},
					"decimals()": {
						"details": "Returns the number of decimals used to get its user representation. For example, if `decimals` equals `2`, a balance of `505` tokens should be displayed to a user as `5.05` (`505 / 10 ** 2`). Tokens usually opt for a value of 18, imitating the relationship between Ether and Wei. This is the default value returned by this function, unless it's overridden. NOTE: This information is only used for _display_ purposes: it in no way affects any of the arithmetic of the contract, including {IERC20-balanceOf} and {IERC20-transfer}."
					},
					"getRoleAdmin(bytes32)": {
						"details": "Returns the admin role that controls `role`. See {grantRole} and {revokeRole}. To change a role's admin, use {_setRoleAdmin}."
					},
					"grantRole(bytes32,address)": {
						"details": "Grants `role` to `account`. If `account` had not been already granted `role`, emits a {RoleGranted} event. Requirements: - the caller must have ``role``'s admin role. May emit a {RoleGranted} event."
					},
					"hasRole(bytes32,address)": {
						"details": "Returns `true` if `account` has been granted `role`."
					},
					"name()": {
						"details": "Returns the name of the token."
					},
					"owner()": {
						"details": "Returns the address of the current owner."
					},
					"renounceOwnership()": {
						"details": "Leaves the contract without owner. It will not be possible to call `onlyOwner` functions. Can only be called by the current owner. NOTE: Renouncing ownership will leave the contract without an owner, thereby disabling any functionality that is only available to the owner."
					},
					"renounceRole(bytes32,address)": {
						"details": "Revokes `role` from the calling account. Roles are often managed via {grantRole} and {revokeRole}: this function's purpose is to provide a mechanism for accounts to lose their privileges if they are compromised (such as when a trusted device is misplaced). If the calling account had been revoked `role`, emits a {RoleRevoked} event. Requirements: - the caller must be `callerConfirmation`. May emit a {RoleRevoked} event."
					},
					"revokeRole(bytes32,address)": {
						"details": "Revokes `role` from `account`. If `account` had been granted `role`, emits a {RoleRevoked} event. Requirements: - the caller must have ``role``'s admin role. May emit a {RoleRevoked} event."
					},
					"supportsInterface(bytes4)": {
						"details": "Returns true if this contract implements the interface defined by `interfaceId`. See the corresponding https://eips.ethereum.org/EIPS/eip-165#how-interfaces-are-identified[ERC section] to learn more about how these ids are created. This function call must use less than 30 000 gas."
					},
					"symbol()": {
						"details": "Returns the symbol of the token, usually a shorter version of the name."
					},
					"totalSupply()": {
						"details": "Returns the value of tokens in existence."
					},
					"transfer(address,uint256)": {
						"details": "See {IERC20-transfer}. Requirements: - `to` cannot be the zero address. - the caller must have a balance of at least `value`."
					},
					"transferFrom(address,address,uint256)": {
						"details": "See {IERC20-transferFrom}. Skips emitting an {Approval} event indicating an allowance update. This is not required by the ERC. See {xref-ERC20-_approve-address-address-uint256-bool-}[_approve]. NOTE: Does not update the allowance if the current allowance is the maximum `uint256`. Requirements: - `from` and `to` cannot be the zero address. - `from` must have a balance of at least `value`. - the caller must have allowance for ``from``'s tokens of at least `value`."
					},
					"transferOwnership(address)": {
						"details": "Transfers ownership of the contract to a new account (`newOwner`). Can only be called by the current owner."
					}
				},
				"version": 1
			},
			"evm": {
				"assembly": "    /* \"submissions/Zora/Day29SimpleStableCoin.sol\":587:5861  contract SimpleStablecoin is ERC20, Ownable, ReentrancyGuard, AccessControl {... */\n  mstore(0x40, 0xc0)\n    /* \"submissions/Zora/Day29SimpleStableCoin.sol\":977:980  150 */\n  0x96\n    /* \"submissions/Zora/Day29SimpleStableCoin.sol\":937:980  uint256 public collateralizationRatio = 150 */\n  0x09\n  sstore\n    /* \"submissions/Zora/Day29SimpleStableCoin.sol\":1599:2281  constructor(... */\n  callvalue\n  dup1\n  iszero\n  tag_1\n  jumpi\n  revert(0x00, 0x00)\ntag_1:\n  pop\n  mload(0x40)\n  sub(codesize, bytecodeSize)\n  dup1\n  bytecodeSize\n  dup4\n  codecopy\n  dup2\n  dup2\n  add\n  0x40\n  mstore\n  dup2\n  add\n  swap1\n  tag_2\n  swap2\n  swap1\n  tag_3\n  jump\t// in\ntag_2:\n    /* \"submissions/Zora/Day29SimpleStableCoin.sol\":1795:1808  _initialOwner */\n  dup2\n    /* \"@openzeppelin/contracts/token/ERC20/ERC20.sol\":1582:1695  constructor(string memory name_, string memory symbol_) {... */\n  mload(0x40)\n  dup1\n  0x40\n  add\n  0x40\n  mstore\n  dup1\n  0x15\n  dup2\n  mstore\n  0x20\n  add\n  0x53696d706c652055534420537461626c65636f696e0000000000000000000000\n  dup2\n  mstore\n  pop\n  mload(0x40)\n  dup1\n  0x40\n  add\n  0x40\n  mstore\n  dup1\n  0x04\n  dup2\n  mstore\n  0x20\n  add\n  0x7355534400000000000000000000000000000000000000000000000000000000\n  dup2\n  mstore\n  pop\n    /* \"@openzeppelin/contracts/token/ERC20/ERC20.sol\":1656:1661  name_ */\n  dup2\n    /* \"@openzeppelin/contracts/token/ERC20/ERC20.sol\":1648:1653  _name */\n  0x03\n    /* \"@openzeppelin/contracts/token/ERC20/ERC20.sol\":1648:1661  _name = name_ */\n  swap1\n  dup2\n  tag_9\n  swap2\n  swap1\n  tag_10\n  jump\t// in\ntag_9:\n  pop\n    /* \"@openzeppelin/contracts/token/ERC20/ERC20.sol\":1681:1688  symbol_ */\n  dup1\n    /* \"@openzeppelin/contracts/token/ERC20/ERC20.sol\":1671:1678  _symbol */\n  0x04\n    /* \"@openzeppelin/contracts/token/ERC20/ERC20.sol\":1671:1688  _symbol = symbol_ */\n  swap1\n  dup2\n  tag_11\n  swap2\n  swap1\n  tag_10\n  jump\t// in\ntag_11:\n  pop\n    /* \"@openzeppelin/contracts/token/ERC20/ERC20.sol\":1582:1695  constructor(string memory name_, string memory symbol_) {... */\n  pop\n  pop\n    /* \"@openzeppelin/contracts/access/Ownable.sol\":1297:1298  0 */\n  0x00\n    /* \"@openzeppelin/contracts/access/Ownable.sol\":1273:1299  initialOwner == address(0) */\n  0xffffffffffffffffffffffffffffffffffffffff\n  and\n    /* \"@openzeppelin/contracts/access/Ownable.sol\":1273:1285  initialOwner */\n  dup2\n    /* \"@openzeppelin/contracts/access/Ownable.sol\":1273:1299  initialOwner == address(0) */\n  0xffffffffffffffffffffffffffffffffffffffff\n  and\n  sub\n    /* \"@openzeppelin/contracts/access/Ownable.sol\":1269:1364  if (initialOwner == address(0)) {... */\n  tag_13\n  jumpi\n    /* \"@openzeppelin/contracts/access/Ownable.sol\":1350:1351  0 */\n  0x00\n    /* \"@openzeppelin/contracts/access/Ownable.sol\":1322:1353  OwnableInvalidOwner(address(0)) */\n  mload(0x40)\n  0x1e4fbdf700000000000000000000000000000000000000000000000000000000\n  dup2\n  mstore\n  0x04\n  add\n  tag_14\n  swap2\n  swap1\n  tag_15\n  jump\t// in\ntag_14:\n  mload(0x40)\n  dup1\n  swap2\n  sub\n  swap1\n  revert\n    /* \"@openzeppelin/contracts/access/Ownable.sol\":1269:1364  if (initialOwner == address(0)) {... */\ntag_13:\n    /* \"@openzeppelin/contracts/access/Ownable.sol\":1373:1405  _transferOwnership(initialOwner) */\n  tag_16\n    /* \"@openzeppelin/contracts/access/Ownable.sol\":1392:1404  initialOwner */\n  dup2\n    /* \"@openzeppelin/contracts/access/Ownable.sol\":1373:1391  _transferOwnership */\n  shl(0x20, tag_17)\n    /* \"@openzeppelin/contracts/access/Ownable.sol\":1373:1405  _transferOwnership(initialOwner) */\n  0x20\n  shr\n  jump\t// in\ntag_16:\n    /* \"@openzeppelin/contracts/access/Ownable.sol\":1225:1412  constructor(address initialOwner) {... */\n  pop\n    /* \"@openzeppelin/contracts/security/ReentrancyGuard.sol\":1716:1717  1 */\n  0x01\n    /* \"@openzeppelin/contracts/security/ReentrancyGuard.sol\":1821:1828  _status */\n  0x06\n    /* \"@openzeppelin/contracts/security/ReentrancyGuard.sol\":1821:1843  _status = _NOT_ENTERED */\n  dup2\n  swap1\n  sstore\n  pop\n    /* \"submissions/Zora/Day29SimpleStableCoin.sol\":1853:1854  0 */\n  0x00\n    /* \"submissions/Zora/Day29SimpleStableCoin.sol\":1825:1855  _collateralToken == address(0) */\n  0xffffffffffffffffffffffffffffffffffffffff\n  and\n    /* \"submissions/Zora/Day29SimpleStableCoin.sol\":1825:1841  _collateralToken */\n  dup4\n    /* \"submissions/Zora/Day29SimpleStableCoin.sol\":1825:1855  _collateralToken == address(0) */\n  0xffffffffffffffffffffffffffffffffffffffff\n  and\n  sub\n    /* \"submissions/Zora/Day29SimpleStableCoin.sol\":1821:1895  if (_collateralToken == address(0)) revert InvalidCollateralTokenAddress() */\n  tag_20\n  jumpi\n    /* \"submissions/Zora/Day29SimpleStableCoin.sol\":1864:1895  InvalidCollateralTokenAddress() */\n  mload(0x40)\n  0x28d3d34200000000000000000000000000000000000000000000000000000000\n  dup2\n  mstore\n  0x04\n  add\n  mload(0x40)\n  dup1\n  swap2\n  sub\n  swap1\n  revert\n    /* \"submissions/Zora/Day29SimpleStableCoin.sol\":1821:1895  if (_collateralToken == address(0)) revert InvalidCollateralTokenAddress() */\ntag_20:\n    /* \"submissions/Zora/Day29SimpleStableCoin.sol\":1932:1933  0 */\n  0x00\n    /* \"submissions/Zora/Day29SimpleStableCoin.sol\":1910:1934  _priceFeed == address(0) */\n  0xffffffffffffffffffffffffffffffffffffffff\n  and\n    /* \"submissions/Zora/Day29SimpleStableCoin.sol\":1910:1920  _priceFeed */\n  dup2\n    /* \"submissions/Zora/Day29SimpleStableCoin.sol\":1910:1934  _priceFeed == address(0) */\n  0xffffffffffffffffffffffffffffffffffffffff\n  and\n  sub\n    /* \"submissions/Zora/Day29SimpleStableCoin.sol\":1906:1968  if (_priceFeed == address(0)) revert InvalidPriceFeedAddress() */\n  tag_21\n  jumpi\n    /* \"submissions/Zora/Day29SimpleStableCoin.sol\":1943:1968  InvalidPriceFeedAddress() */\n  mload(0x40)\n  0xe358806300000000000000000000000000000000000000000000000000000000\n  dup2\n  mstore\n  0x04\n  add\n  mload(0x40)\n  dup1\n  swap2\n  sub\n  swap1\n  revert\n    /* \"submissions/Zora/Day29SimpleStableCoin.sol\":1906:1968  if (_priceFeed == address(0)) revert InvalidPriceFeedAddress() */\ntag_21:\n    /* \"submissions/Zora/Day29SimpleStableCoin.sol\":2006:2022  _collateralToken */\n  dup3\n    /* \"submissions/Zora/Day29SimpleStableCoin.sol\":1981:2023  collateralToken = IERC20(_collateralToken) */\n  0xffffffffffffffffffffffffffffffffffffffff\n  and\n  0x80\n  dup2\n  0xffffffffffffffffffffffffffffffffffffffff\n  and\n  dup2\n  mstore\n  pop\n  pop\n    /* \"submissions/Zora/Day29SimpleStableCoin.sol\":2070:2086  _collateralToken */\n  dup3\n    /* \"submissions/Zora/Day29SimpleStableCoin.sol\":2055:2096  IERC20Metadata(_collateralToken).decimals */\n  0xffffffffffffffffffffffffffffffffffffffff\n  and\n  0x313ce567\n    /* \"submissions/Zora/Day29SimpleStableCoin.sol\":2055:2098  IERC20Metadata(_collateralToken).decimals() */\n  mload(0x40)\n  dup2\n  0xffffffff\n  and\n  0xe0\n  shl\n  dup2\n  mstore\n  0x04\n  add\n  0x20\n  mload(0x40)\n  dup1\n  dup4\n  sub\n  dup2\n  dup7\n  gas\n  staticcall\n  iszero\n  dup1\n  iszero\n  tag_23\n  jumpi\n  returndatacopy(0x00, 0x00, returndatasize)\n  revert(0x00, returndatasize)\ntag_23:\n  pop\n  pop\n  pop\n  pop\n  mload(0x40)\n  returndatasize\n  not(0x1f)\n  0x1f\n  dup3\n  add\n  and\n  dup3\n  add\n  dup1\n  0x40\n  mstore\n  pop\n  dup2\n  add\n  swap1\n  tag_24\n  swap2\n  swap1\n  tag_25\n  jump\t// in\ntag_24:\n    /* \"submissions/Zora/Day29SimpleStableCoin.sol\":2034:2098  collateralDecimals = IERC20Metadata(_collateralToken).decimals() */\n  0xff\n  and\n  0xa0\n  dup2\n  0xff\n  and\n  dup2\n  mstore\n  pop\n  pop\n    /* \"submissions/Zora/Day29SimpleStableCoin.sol\":2143:2153  _priceFeed */\n  dup1\n    /* \"submissions/Zora/Day29SimpleStableCoin.sol\":2109:2118  priceFeed */\n  0x08\n  0x00\n    /* \"submissions/Zora/Day29SimpleStableCoin.sol\":2109:2154  priceFeed = AggregatorV3Interface(_priceFeed) */\n  0x0100\n  exp\n  dup2\n  sload\n  dup2\n  0xffffffffffffffffffffffffffffffffffffffff\n  mul\n  not\n  and\n  swap1\n  dup4\n  0xffffffffffffffffffffffffffffffffffffffff\n  and\n  mul\n  or\n  swap1\n  sstore\n  pop\n    /* \"submissions/Zora/Day29SimpleStableCoin.sol\":2167:2212  _grantRole(DEFAULT_ADMIN_ROLE, _initialOwner) */\n  tag_26\n    /* \"@openzeppelin/contracts/access/AccessControl.sol\":2241:2245  0x00 */\n  0x00\n    /* \"submissions/Zora/Day29SimpleStableCoin.sol\":2178:2196  DEFAULT_ADMIN_ROLE */\n  0x00\n  shl\n    /* \"submissions/Zora/Day29SimpleStableCoin.sol\":2198:2211  _initialOwner */\n  dup4\n    /* \"submissions/Zora/Day29SimpleStableCoin.sol\":2167:2177  _grantRole */\n  shl(0x20, tag_27)\n    /* \"submissions/Zora/Day29SimpleStableCoin.sol\":2167:2212  _grantRole(DEFAULT_ADMIN_ROLE, _initialOwner) */\n  0x20\n  shr\n  jump\t// in\ntag_26:\n  pop\n    /* \"submissions/Zora/Day29SimpleStableCoin.sol\":2223:2273  _grantRole(PRICE_FEED_MANAGER_ROLE, _initialOwner) */\n  tag_28\n    /* \"submissions/Zora/Day29SimpleStableCoin.sol\":755:791  keccak256(\"PRICE_FEED_MANAGER_ROLE\") */\n  0xd83007455b073bdf2abc6e8b18ce2847f802b368f0ad3a285cbb1773ec2f4c83\n    /* \"submissions/Zora/Day29SimpleStableCoin.sol\":2259:2272  _initialOwner */\n  dup4\n    /* \"submissions/Zora/Day29SimpleStableCoin.sol\":2223:2233  _grantRole */\n  shl(0x20, tag_27)\n    /* \"submissions/Zora/Day29SimpleStableCoin.sol\":2223:2273  _grantRole(PRICE_FEED_MANAGER_ROLE, _initialOwner) */\n  0x20\n  shr\n  jump\t// in\ntag_28:\n  pop\n    /* \"submissions/Zora/Day29SimpleStableCoin.sol\":1599:2281  constructor(... */\n  pop\n  pop\n  pop\n    /* \"submissions/Zora/Day29SimpleStableCoin.sol\":587:5861  contract SimpleStablecoin is ERC20, Ownable, ReentrancyGuard, AccessControl {... */\n  jump(tag_29)\n    /* \"@openzeppelin/contracts/access/Ownable.sol\":2912:3099  function _transferOwnership(address newOwner) internal virtual {... */\ntag_17:\n    /* \"@openzeppelin/contracts/access/Ownable.sol\":2985:3001  address oldOwner */\n  0x00\n    /* \"@openzeppelin/contracts/access/Ownable.sol\":3004:3010  _owner */\n  0x05\n  0x00\n  swap1\n  sload\n  swap1\n  0x0100\n  exp\n  swap1\n  div\n  0xffffffffffffffffffffffffffffffffffffffff\n  and\n    /* \"@openzeppelin/contracts/access/Ownable.sol\":2985:3010  address oldOwner = _owner */\n  swap1\n  pop\n    /* \"@openzeppelin/contracts/access/Ownable.sol\":3029:3037  newOwner */\n  dup2\n    /* \"@openzeppelin/contracts/access/Ownable.sol\":3020:3026  _owner */\n  0x05\n  0x00\n    /* \"@openzeppelin/contracts/access/Ownable.sol\":3020:3037  _owner = newOwner */\n  0x0100\n  exp\n  dup2\n  sload\n  dup2\n  0xffffffffffffffffffffffffffffffffffffffff\n  mul\n  not\n  and\n  swap1\n  dup4\n  0xffffffffffffffffffffffffffffffffffffffff\n  and\n  mul\n  or\n  swap1\n  sstore\n  pop\n    /* \"@openzeppelin/contracts/access/Ownable.sol\":3083:3091  newOwner */\n  dup2\n    /* \"@openzeppelin/contracts/access/Ownable.sol\":3052:3092  OwnershipTransferred(oldOwner, newOwner) */\n  0xffffffffffffffffffffffffffffffffffffffff\n  and\n    /* \"@openzeppelin/contracts/access/Ownable.sol\":3073:3081  oldOwner */\n  dup2\n    /* \"@openzeppelin/contracts/access/Ownable.sol\":3052:3092  OwnershipTransferred(oldOwner, newOwner) */\n  0xffffffffffffffffffffffffffffffffffffffff\n  and\n  0x8be0079c531659141344cd1fd0a4f28419497f9722a3daafe3b4186f6b6457e0\n  mload(0x40)\n  mload(0x40)\n  dup1\n  swap2\n  sub\n  swap1\n  log3\n    /* \"@openzeppelin/contracts/access/Ownable.sol\":2975:3099  {... */\n  pop\n    /* \"@openzeppelin/contracts/access/Ownable.sol\":2912:3099  function _transferOwnership(address newOwner) internal virtual {... */\n  pop\n  jump\t// out\n    /* \"@openzeppelin/contracts/access/AccessControl.sol\":6155:6471  function _grantRole(bytes32 role, address account) internal virtual returns (bool) {... */\ntag_27:\n    /* \"@openzeppelin/contracts/access/AccessControl.sol\":6232:6236  bool */\n  0x00\n    /* \"@openzeppelin/contracts/access/AccessControl.sol\":6253:6275  hasRole(role, account) */\n  tag_32\n    /* \"@openzeppelin/contracts/access/AccessControl.sol\":6261:6265  role */\n  dup4\n    /* \"@openzeppelin/contracts/access/AccessControl.sol\":6267:6274  account */\n  dup4\n    /* \"@openzeppelin/contracts/access/AccessControl.sol\":6253:6260  hasRole */\n  shl(0x20, tag_33)\n    /* \"@openzeppelin/contracts/access/AccessControl.sol\":6253:6275  hasRole(role, account) */\n  0x20\n  shr\n  jump\t// in\ntag_32:\n    /* \"@openzeppelin/contracts/access/AccessControl.sol\":6248:6465  if (!hasRole(role, account)) {... */\n  tag_34\n  jumpi\n    /* \"@openzeppelin/contracts/access/AccessControl.sol\":6323:6327  true */\n  0x01\n    /* \"@openzeppelin/contracts/access/AccessControl.sol\":6291:6297  _roles */\n  0x07\n    /* \"@openzeppelin/contracts/access/AccessControl.sol\":6291:6303  _roles[role] */\n  0x00\n    /* \"@openzeppelin/contracts/access/AccessControl.sol\":6298:6302  role */\n  dup6\n    /* \"@openzeppelin/contracts/access/AccessControl.sol\":6291:6303  _roles[role] */\n  dup2\n  mstore\n  0x20\n  add\n  swap1\n  dup2\n  mstore\n  0x20\n  add\n  0x00\n  keccak256\n    /* \"@openzeppelin/contracts/access/AccessControl.sol\":6291:6311  _roles[role].hasRole */\n  0x00\n  add\n    /* \"@openzeppelin/contracts/access/AccessControl.sol\":6291:6320  _roles[role].hasRole[account] */\n  0x00\n    /* \"@openzeppelin/contracts/access/AccessControl.sol\":6312:6319  account */\n  dup5\n    /* \"@openzeppelin/contracts/access/AccessControl.sol\":6291:6320  _roles[role].hasRole[account] */\n  0xffffffffffffffffffffffffffffffffffffffff\n  and\n  0xffffffffffffffffffffffffffffffffffffffff\n  and\n  dup2\n  mstore\n  0x20\n  add\n  swap1\n  dup2\n  mstore\n  0x20\n  add\n  0x00\n  keccak256\n  0x00\n    /* \"@openzeppelin/contracts/access/AccessControl.sol\":6291:6327  _roles[role].hasRole[account] = true */\n  0x0100\n  exp\n  dup2\n  sload\n  dup2\n  0xff\n  mul\n  not\n  and\n  swap1\n  dup4\n  iszero\n  iszero\n  mul\n  or\n  swap1\n  sstore\n  pop\n    /* \"@openzeppelin/contracts/access/AccessControl.sol\":6373:6385  _msgSender() */\n  tag_35\n    /* \"@openzeppelin/contracts/access/AccessControl.sol\":6373:6383  _msgSender */\n  shl(0x20, tag_36)\n    /* \"@openzeppelin/contracts/access/AccessControl.sol\":6373:6385  _msgSender() */\n  0x20\n  shr\n  jump\t// in\ntag_35:\n    /* \"@openzeppelin/contracts/access/AccessControl.sol\":6346:6386  RoleGranted(role, account, _msgSender()) */\n  0xffffffffffffffffffffffffffffffffffffffff\n  and\n    /* \"@openzeppelin/contracts/access/AccessControl.sol\":6364:6371  account */\n  dup3\n    /* \"@openzeppelin/contracts/access/AccessControl.sol\":6346:6386  RoleGranted(role, account, _msgSender()) */\n  0xffffffffffffffffffffffffffffffffffffffff\n  and\n    /* \"@openzeppelin/contracts/access/AccessControl.sol\":6358:6362  role */\n  dup5\n    /* \"@openzeppelin/contracts/access/AccessControl.sol\":6346:6386  RoleGranted(role, account, _msgSender()) */\n  0x2f8788117e7eff1d82e926ec794901d17c78024a50270940304540a733656f0d\n  mload(0x40)\n  mload(0x40)\n  dup1\n  swap2\n  sub\n  swap1\n  log4\n    /* \"@openzeppelin/contracts/access/AccessControl.sol\":6407:6411  true */\n  0x01\n    /* \"@openzeppelin/contracts/access/AccessControl.sol\":6400:6411  return true */\n  swap1\n  pop\n  jump(tag_31)\n    /* \"@openzeppelin/contracts/access/AccessControl.sol\":6248:6465  if (!hasRole(role, account)) {... */\ntag_34:\n    /* \"@openzeppelin/contracts/access/AccessControl.sol\":6449:6454  false */\n  0x00\n    /* \"@openzeppelin/contracts/access/AccessControl.sol\":6442:6454  return false */\n  swap1\n  pop\n    /* \"@openzeppelin/contracts/access/AccessControl.sol\":6155:6471  function _grantRole(bytes32 role, address account) internal virtual returns (bool) {... */\ntag_31:\n  swap3\n  swap2\n  pop\n  pop\n  jump\t// out\n    /* \"@openzeppelin/contracts/access/AccessControl.sol\":2830:2966  function hasRole(bytes32 role, address account) public view virtual returns (bool) {... */\ntag_33:\n    /* \"@openzeppelin/contracts/access/AccessControl.sol\":2907:2911  bool */\n  0x00\n    /* \"@openzeppelin/contracts/access/AccessControl.sol\":2930:2936  _roles */\n  0x07\n    /* \"@openzeppelin/contracts/access/AccessControl.sol\":2930:2942  _roles[role] */\n  0x00\n    /* \"@openzeppelin/contracts/access/AccessControl.sol\":2937:2941  role */\n  dup5\n    /* \"@openzeppelin/contracts/access/AccessControl.sol\":2930:2942  _roles[role] */\n  dup2\n  mstore\n  0x20\n  add\n  swap1\n  dup2\n  mstore\n  0x20\n  add\n  0x00\n  keccak256\n    /* \"@openzeppelin/contracts/access/AccessControl.sol\":2930:2950  _roles[role].hasRole */\n  0x00\n  add\n    /* \"@openzeppelin/contracts/access/AccessControl.sol\":2930:2959  _roles[role].hasRole[account] */\n  0x00\n    /* \"@openzeppelin/contracts/access/AccessControl.sol\":2951:2958  account */\n  dup4\n    /* \"@openzeppelin/contracts/access/AccessControl.sol\":2930:2959  _roles[role].hasRole[account] */\n  0xffffffffffffffffffffffffffffffffffffffff\n  and\n  0xffffffffffffffffffffffffffffffffffffffff\n  and\n  dup2\n  mstore\n  0x20\n  add\n  swap1\n  dup2\n  mstore\n  0x20\n  add\n  0x00\n  keccak256\n  0x00\n  swap1\n  sload\n  swap1\n  0x0100\n  exp\n  swap1\n  div\n  0xff\n  and\n    /* \"@openzeppelin/contracts/access/AccessControl.sol\":2923:2959  return _roles[role].hasRole[account] */\n  swap1\n  pop\n    /* \"@openzeppelin/contracts/access/AccessControl.sol\":2830:2966  function hasRole(bytes32 role, address account) public view virtual returns (bool) {... */\n  swap3\n  swap2\n  pop\n  pop\n  jump\t// out\n    /* \"@openzeppelin/contracts/utils/Context.sol\":656:752  function _msgSender() internal view virtual returns (address) {... */\ntag_36:\n    /* \"@openzeppelin/contracts/utils/Context.sol\":709:716  address */\n  0x00\n    /* \"@openzeppelin/contracts/utils/Context.sol\":735:745  msg.sender */\n  caller\n    /* \"@openzeppelin/contracts/utils/Context.sol\":728:745  return msg.sender */\n  swap1\n  pop\n    /* \"@openzeppelin/contracts/utils/Context.sol\":656:752  function _msgSender() internal view virtual returns (address) {... */\n  swap1\n  jump\t// out\n    /* \"#utility.yul\":88:205   */\ntag_41:\n    /* \"#utility.yul\":197:198   */\n  0x00\n    /* \"#utility.yul\":194:195   */\n  0x00\n    /* \"#utility.yul\":187:199   */\n  revert\n    /* \"#utility.yul\":334:460   */\ntag_43:\n    /* \"#utility.yul\":371:378   */\n  0x00\n    /* \"#utility.yul\":411:453   */\n  0xffffffffffffffffffffffffffffffffffffffff\n    /* \"#utility.yul\":404:409   */\n  dup3\n    /* \"#utility.yul\":400:454   */\n  and\n    /* \"#utility.yul\":389:454   */\n  swap1\n  pop\n    /* \"#utility.yul\":334:460   */\n  swap2\n  swap1\n  pop\n  jump\t// out\n    /* \"#utility.yul\":466:562   */\ntag_44:\n    /* \"#utility.yul\":503:510   */\n  0x00\n    /* \"#utility.yul\":532:556   */\n  tag_77\n    /* \"#utility.yul\":550:555   */\n  dup3\n    /* \"#utility.yul\":532:556   */\n  tag_43\n  jump\t// in\ntag_77:\n    /* \"#utility.yul\":521:556   */\n  swap1\n  pop\n    /* \"#utility.yul\":466:562   */\n  swap2\n  swap1\n  pop\n  jump\t// out\n    /* \"#utility.yul\":568:690   */\ntag_45:\n    /* \"#utility.yul\":641:665   */\n  tag_79\n    /* \"#utility.yul\":659:664   */\n  dup2\n    /* \"#utility.yul\":641:665   */\n  tag_44\n  jump\t// in\ntag_79:\n    /* \"#utility.yul\":634:639   */\n  dup2\n    /* \"#utility.yul\":631:666   */\n  eq\n    /* \"#utility.yul\":621:684   */\n  tag_80\n  jumpi\n    /* \"#utility.yul\":680:681   */\n  0x00\n    /* \"#utility.yul\":677:678   */\n  0x00\n    /* \"#utility.yul\":670:682   */\n  revert\n    /* \"#utility.yul\":621:684   */\ntag_80:\n    /* \"#utility.yul\":568:690   */\n  pop\n  jump\t// out\n    /* \"#utility.yul\":696:839   */\ntag_46:\n    /* \"#utility.yul\":753:758   */\n  0x00\n    /* \"#utility.yul\":784:790   */\n  dup2\n    /* \"#utility.yul\":778:791   */\n  mload\n    /* \"#utility.yul\":769:791   */\n  swap1\n  pop\n    /* \"#utility.yul\":800:833   */\n  tag_82\n    /* \"#utility.yul\":827:832   */\n  dup2\n    /* \"#utility.yul\":800:833   */\n  tag_45\n  jump\t// in\ntag_82:\n    /* \"#utility.yul\":696:839   */\n  swap3\n  swap2\n  pop\n  pop\n  jump\t// out\n    /* \"#utility.yul\":845:1508   */\ntag_3:\n    /* \"#utility.yul\":933:939   */\n  0x00\n    /* \"#utility.yul\":941:947   */\n  0x00\n    /* \"#utility.yul\":949:955   */\n  0x00\n    /* \"#utility.yul\":998:1000   */\n  0x60\n    /* \"#utility.yul\":986:995   */\n  dup5\n    /* \"#utility.yul\":977:984   */\n  dup7\n    /* \"#utility.yul\":973:996   */\n  sub\n    /* \"#utility.yul\":969:1001   */\n  slt\n    /* \"#utility.yul\":966:1085   */\n  iszero\n  tag_84\n  jumpi\n    /* \"#utility.yul\":1004:1083   */\n  tag_85\n  tag_41\n  jump\t// in\ntag_85:\n    /* \"#utility.yul\":966:1085   */\ntag_84:\n    /* \"#utility.yul\":1124:1125   */\n  0x00\n    /* \"#utility.yul\":1149:1213   */\n  tag_86\n    /* \"#utility.yul\":1205:1212   */\n  dup7\n    /* \"#utility.yul\":1196:1202   */\n  dup3\n    /* \"#utility.yul\":1185:1194   */\n  dup8\n    /* \"#utility.yul\":1181:1203   */\n  add\n    /* \"#utility.yul\":1149:1213   */\n  tag_46\n  jump\t// in\ntag_86:\n    /* \"#utility.yul\":1139:1213   */\n  swap4\n  pop\n    /* \"#utility.yul\":1095:1223   */\n  pop\n    /* \"#utility.yul\":1262:1264   */\n  0x20\n    /* \"#utility.yul\":1288:1352   */\n  tag_87\n    /* \"#utility.yul\":1344:1351   */\n  dup7\n    /* \"#utility.yul\":1335:1341   */\n  dup3\n    /* \"#utility.yul\":1324:1333   */\n  dup8\n    /* \"#utility.yul\":1320:1342   */\n  add\n    /* \"#utility.yul\":1288:1352   */\n  tag_46\n  jump\t// in\ntag_87:\n    /* \"#utility.yul\":1278:1352   */\n  swap3\n  pop\n    /* \"#utility.yul\":1233:1362   */\n  pop\n    /* \"#utility.yul\":1401:1403   */\n  0x40\n    /* \"#utility.yul\":1427:1491   */\n  tag_88\n    /* \"#utility.yul\":1483:1490   */\n  dup7\n    /* \"#utility.yul\":1474:1480   */\n  dup3\n    /* \"#utility.yul\":1463:1472   */\n  dup8\n    /* \"#utility.yul\":1459:1481   */\n  add\n    /* \"#utility.yul\":1427:1491   */\n  tag_46\n  jump\t// in\ntag_88:\n    /* \"#utility.yul\":1417:1491   */\n  swap2\n  pop\n    /* \"#utility.yul\":1372:1501   */\n  pop\n    /* \"#utility.yul\":845:1508   */\n  swap3\n  pop\n  swap3\n  pop\n  swap3\n  jump\t// out\n    /* \"#utility.yul\":1514:1613   */\ntag_47:\n    /* \"#utility.yul\":1566:1572   */\n  0x00\n    /* \"#utility.yul\":1600:1605   */\n  dup2\n    /* \"#utility.yul\":1594:1606   */\n  mload\n    /* \"#utility.yul\":1584:1606   */\n  swap1\n  pop\n    /* \"#utility.yul\":1514:1613   */\n  swap2\n  swap1\n  pop\n  jump\t// out\n    /* \"#utility.yul\":1619:1799   */\ntag_48:\n    /* \"#utility.yul\":1667:1744   */\n  0x4e487b7100000000000000000000000000000000000000000000000000000000\n    /* \"#utility.yul\":1664:1665   */\n  0x00\n    /* \"#utility.yul\":1657:1745   */\n  mstore\n    /* \"#utility.yul\":1764:1768   */\n  0x41\n    /* \"#utility.yul\":1761:1762   */\n  0x04\n    /* \"#utility.yul\":1754:1769   */\n  mstore\n    /* \"#utility.yul\":1788:1792   */\n  0x24\n    /* \"#utility.yul\":1785:1786   */\n  0x00\n    /* \"#utility.yul\":1778:1793   */\n  revert\n    /* \"#utility.yul\":1805:1985   */\ntag_49:\n    /* \"#utility.yul\":1853:1930   */\n  0x4e487b7100000000000000000000000000000000000000000000000000000000\n    /* \"#utility.yul\":1850:1851   */\n  0x00\n    /* \"#utility.yul\":1843:1931   */\n  mstore\n    /* \"#utility.yul\":1950:1954   */\n  0x22\n    /* \"#utility.yul\":1947:1948   */\n  0x04\n    /* \"#utility.yul\":1940:1955   */\n  mstore\n    /* \"#utility.yul\":1974:1978   */\n  0x24\n    /* \"#utility.yul\":1971:1972   */\n  0x00\n    /* \"#utility.yul\":1964:1979   */\n  revert\n    /* \"#utility.yul\":1991:2311   */\ntag_50:\n    /* \"#utility.yul\":2035:2041   */\n  0x00\n    /* \"#utility.yul\":2072:2073   */\n  0x02\n    /* \"#utility.yul\":2066:2070   */\n  dup3\n    /* \"#utility.yul\":2062:2074   */\n  div\n    /* \"#utility.yul\":2052:2074   */\n  swap1\n  pop\n    /* \"#utility.yul\":2119:2120   */\n  0x01\n    /* \"#utility.yul\":2113:2117   */\n  dup3\n    /* \"#utility.yul\":2109:2121   */\n  and\n    /* \"#utility.yul\":2140:2158   */\n  dup1\n    /* \"#utility.yul\":2130:2211   */\n  tag_93\n  jumpi\n    /* \"#utility.yul\":2196:2200   */\n  0x7f\n    /* \"#utility.yul\":2188:2194   */\n  dup3\n    /* \"#utility.yul\":2184:2201   */\n  and\n    /* \"#utility.yul\":2174:2201   */\n  swap2\n  pop\n    /* \"#utility.yul\":2130:2211   */\ntag_93:\n    /* \"#utility.yul\":2258:2260   */\n  0x20\n    /* \"#utility.yul\":2250:2256   */\n  dup3\n    /* \"#utility.yul\":2247:2261   */\n  lt\n    /* \"#utility.yul\":2227:2245   */\n  dup2\n    /* \"#utility.yul\":2224:2262   */\n  sub\n    /* \"#utility.yul\":2221:2305   */\n  tag_94\n  jumpi\n    /* \"#utility.yul\":2277:2295   */\n  tag_95\n  tag_49\n  jump\t// in\ntag_95:\n    /* \"#utility.yul\":2221:2305   */\ntag_94:\n    /* \"#utility.yul\":2042:2311   */\n  pop\n    /* \"#utility.yul\":1991:2311   */\n  swap2\n  swap1\n  pop\n  jump\t// out\n    /* \"#utility.yul\":2317:2458   */\ntag_51:\n    /* \"#utility.yul\":2366:2370   */\n  0x00\n    /* \"#utility.yul\":2389:2392   */\n  dup2\n    /* \"#utility.yul\":2381:2392   */\n  swap1\n  pop\n    /* \"#utility.yul\":2412:2415   */\n  dup2\n    /* \"#utility.yul\":2409:2410   */\n  0x00\n    /* \"#utility.yul\":2402:2416   */\n  mstore\n    /* \"#utility.yul\":2446:2450   */\n  0x20\n    /* \"#utility.yul\":2443:2444   */\n  0x00\n    /* \"#utility.yul\":2433:2451   */\n  keccak256\n    /* \"#utility.yul\":2425:2451   */\n  swap1\n  pop\n    /* \"#utility.yul\":2317:2458   */\n  swap2\n  swap1\n  pop\n  jump\t// out\n    /* \"#utility.yul\":2464:2557   */\ntag_52:\n    /* \"#utility.yul\":2501:2507   */\n  0x00\n    /* \"#utility.yul\":2548:2550   */\n  0x20\n    /* \"#utility.yul\":2543:2545   */\n  0x1f\n    /* \"#utility.yul\":2536:2541   */\n  dup4\n    /* \"#utility.yul\":2532:2546   */\n  add\n    /* \"#utility.yul\":2528:2551   */\n  div\n    /* \"#utility.yul\":2518:2551   */\n  swap1\n  pop\n    /* \"#utility.yul\":2464:2557   */\n  swap2\n  swap1\n  pop\n  jump\t// out\n    /* \"#utility.yul\":2563:2670   */\ntag_53:\n    /* \"#utility.yul\":2607:2615   */\n  0x00\n    /* \"#utility.yul\":2657:2662   */\n  dup3\n    /* \"#utility.yul\":2651:2655   */\n  dup3\n    /* \"#utility.yul\":2647:2663   */\n  shl\n    /* \"#utility.yul\":2626:2663   */\n  swap1\n  pop\n    /* \"#utility.yul\":2563:2670   */\n  swap3\n  swap2\n  pop\n  pop\n  jump\t// out\n    /* \"#utility.yul\":2676:3069   */\ntag_54:\n    /* \"#utility.yul\":2745:2751   */\n  0x00\n    /* \"#utility.yul\":2795:2796   */\n  0x08\n    /* \"#utility.yul\":2783:2793   */\n  dup4\n    /* \"#utility.yul\":2779:2797   */\n  mul\n    /* \"#utility.yul\":2818:2915   */\n  tag_100\n    /* \"#utility.yul\":2848:2914   */\n  0xffffffffffffffffffffffffffffffffffffffffffffffffffffffffffffffff\n    /* \"#utility.yul\":2837:2846   */\n  dup3\n    /* \"#utility.yul\":2818:2915   */\n  tag_53\n  jump\t// in\ntag_100:\n    /* \"#utility.yul\":2936:2975   */\n  tag_101\n    /* \"#utility.yul\":2966:2974   */\n  dup7\n    /* \"#utility.yul\":2955:2964   */\n  dup4\n    /* \"#utility.yul\":2936:2975   */\n  tag_53\n  jump\t// in\ntag_101:\n    /* \"#utility.yul\":2924:2975   */\n  swap6\n  pop\n    /* \"#utility.yul\":3008:3012   */\n  dup1\n    /* \"#utility.yul\":3004:3013   */\n  not\n    /* \"#utility.yul\":2997:3002   */\n  dup5\n    /* \"#utility.yul\":2993:3014   */\n  and\n    /* \"#utility.yul\":2984:3014   */\n  swap4\n  pop\n    /* \"#utility.yul\":3057:3061   */\n  dup1\n    /* \"#utility.yul\":3047:3055   */\n  dup7\n    /* \"#utility.yul\":3043:3062   */\n  and\n    /* \"#utility.yul\":3036:3041   */\n  dup5\n    /* \"#utility.yul\":3033:3063   */\n  or\n    /* \"#utility.yul\":3023:3063   */\n  swap3\n  pop\n    /* \"#utility.yul\":2752:3069   */\n  pop\n  pop\n    /* \"#utility.yul\":2676:3069   */\n  swap4\n  swap3\n  pop\n  pop\n  pop\n  jump\t// out\n    /* \"#utility.yul\":3075:3152   */\ntag_55:\n    /* \"#utility.yul\":3112:3119   */\n  0x00\n    /* \"#utility.yul\":3141:3146   */\n  dup2\n    /* \"#utility.yul\":3130:3146   */\n  swap1\n  pop\n    /* \"#utility.yul\":3075:3152   */\n  swap2\n  swap1\n  pop\n  jump\t// out\n    /* \"#utility.yul\":3158:3218   */\ntag_56:\n    /* \"#utility.yul\":3186:3189   */\n  0x00\n    /* \"#utility.yul\":3207:3212   */\n  dup2\n    /* \"#utility.yul\":3200:3212   */\n  swap1\n  pop\n    /* \"#utility.yul\":3158:3218   */\n  swap2\n  swap1\n  pop\n  jump\t// out\n    /* \"#utility.yul\":3224:3366   */\ntag_57:\n    /* \"#utility.yul\":3274:3283   */\n  0x00\n    /* \"#utility.yul\":3307:3360   */\n  tag_105\n    /* \"#utility.yul\":3325:3359   */\n  tag_106\n    /* \"#utility.yul\":3334:3358   */\n  tag_107\n    /* \"#utility.yul\":3352:3357   */\n  dup5\n    /* \"#utility.yul\":3334:3358   */\n  tag_55\n  jump\t// in\ntag_107:\n    /* \"#utility.yul\":3325:3359   */\n  tag_56\n  jump\t// in\ntag_106:\n    /* \"#utility.yul\":3307:3360   */\n  tag_55\n  jump\t// in\ntag_105:\n    /* \"#utility.yul\":3294:3360   */\n  swap1\n  pop\n    /* \"#utility.yul\":3224:3366   */\n  swap2\n  swap1\n  pop\n  jump\t// out\n    /* \"#utility.yul\":3372:3447   */\ntag_58:\n    /* \"#utility.yul\":3415:3418   */\n  0x00\n    /* \"#utility.yul\":3436:3441   */\n  dup2\n    /* \"#utility.yul\":3429:3441   */\n  swap1\n  pop\n    /* \"#utility.yul\":3372:3447   */\n  swap2\n  swap1\n  pop\n  jump\t// out\n    /* \"#utility.yul\":3453:3722   */\ntag_59:\n    /* \"#utility.yul\":3563:3602   */\n  tag_110\n    /* \"#utility.yul\":3594:3601   */\n  dup4\n    /* \"#utility.yul\":3563:3602   */\n  tag_57\n  jump\t// in\ntag_110:\n    /* \"#utility.yul\":3624:3715   */\n  tag_111\n    /* \"#utility.yul\":3673:3714   */\n  tag_112\n    /* \"#utility.yul\":3697:3713   */\n  dup3\n    /* \"#utility.yul\":3673:3714   */\n  tag_58\n  jump\t// in\ntag_112:\n    /* \"#utility.yul\":3665:3671   */\n  dup5\n    /* \"#utility.yul\":3658:3662   */\n  dup5\n    /* \"#utility.yul\":3652:3663   */\n  sload\n    /* \"#utility.yul\":3624:3715   */\n  tag_54\n  jump\t// in\ntag_111:\n    /* \"#utility.yul\":3618:3622   */\n  dup3\n    /* \"#utility.yul\":3611:3716   */\n  sstore\n    /* \"#utility.yul\":3529:3722   */\n  pop\n    /* \"#utility.yul\":3453:3722   */\n  pop\n  pop\n  pop\n  jump\t// out\n    /* \"#utility.yul\":3728:3801   */\ntag_60:\n    /* \"#utility.yul\":3773:3776   */\n  0x00\n    /* \"#utility.yul\":3794:3795   */\n  0x00\n    /* \"#utility.yul\":3787:3795   */\n  swap1\n  pop\n    /* \"#utility.yul\":3728:3801   */\n  swap1\n  jump\t// out\n    /* \"#utility.yul\":3807:3996   */\ntag_61:\n    /* \"#utility.yul\":3884:3916   */\n  tag_115\n  tag_60\n  jump\t// in\ntag_115:\n    /* \"#utility.yul\":3925:3990   */\n  tag_116\n    /* \"#utility.yul\":3983:3989   */\n  dup2\n    /* \"#utility.yul\":3975:3981   */\n  dup5\n    /* \"#utility.yul\":3969:3973   */\n  dup5\n    /* \"#utility.yul\":3925:3990   */\n  tag_59\n  jump\t// in\ntag_116:\n    /* \"#utility.yul\":3860:3996   */\n  pop\n    /* \"#utility.yul\":3807:3996   */\n  pop\n  pop\n  jump\t// out\n    /* \"#utility.yul\":4002:4188   */\ntag_62:\n    /* \"#utility.yul\":4062:4182   */\ntag_118:\n    /* \"#utility.yul\":4079:4082   */\n  dup2\n    /* \"#utility.yul\":4072:4077   */\n  dup2\n    /* \"#utility.yul\":4069:4083   */\n  lt\n    /* \"#utility.yul\":4062:4182   */\n  iszero\n  tag_120\n  jumpi\n    /* \"#utility.yul\":4133:4172   */\n  tag_121\n    /* \"#utility.yul\":4170:4171   */\n  0x00\n    /* \"#utility.yul\":4163:4168   */\n  dup3\n    /* \"#utility.yul\":4133:4172   */\n  tag_61\n  jump\t// in\ntag_121:\n    /* \"#utility.yul\":4106:4107   */\n  0x01\n    /* \"#utility.yul\":4099:4104   */\n  dup2\n    /* \"#utility.yul\":4095:4108   */\n  add\n    /* \"#utility.yul\":4086:4108   */\n  swap1\n  pop\n    /* \"#utility.yul\":4062:4182   */\n  jump(tag_118)\ntag_120:\n    /* \"#utility.yul\":4002:4188   */\n  pop\n  pop\n  jump\t// out\n    /* \"#utility.yul\":4194:4737   */\ntag_63:\n    /* \"#utility.yul\":4295:4297   */\n  0x1f\n    /* \"#utility.yul\":4290:4293   */\n  dup3\n    /* \"#utility.yul\":4287:4298   */\n  gt\n    /* \"#utility.yul\":4284:4730   */\n  iszero\n  tag_123\n  jumpi\n    /* \"#utility.yul\":4329:4367   */\n  tag_124\n    /* \"#utility.yul\":4361:4366   */\n  dup2\n    /* \"#utility.yul\":4329:4367   */\n  tag_51\n  jump\t// in\ntag_124:\n    /* \"#utility.yul\":4413:4442   */\n  tag_125\n    /* \"#utility.yul\":4431:4441   */\n  dup5\n    /* \"#utility.yul\":4413:4442   */\n  tag_52\n  jump\t// in\ntag_125:\n    /* \"#utility.yul\":4403:4411   */\n  dup2\n    /* \"#utility.yul\":4399:4443   */\n  add\n    /* \"#utility.yul\":4596:4598   */\n  0x20\n    /* \"#utility.yul\":4584:4594   */\n  dup6\n    /* \"#utility.yul\":4581:4599   */\n  lt\n    /* \"#utility.yul\":4578:4627   */\n  iszero\n  tag_126\n  jumpi\n    /* \"#utility.yul\":4617:4625   */\n  dup2\n    /* \"#utility.yul\":4602:4625   */\n  swap1\n  pop\n    /* \"#utility.yul\":4578:4627   */\ntag_126:\n    /* \"#utility.yul\":4640:4720   */\n  tag_127\n    /* \"#utility.yul\":4696:4718   */\n  tag_128\n    /* \"#utility.yul\":4714:4717   */\n  dup6\n    /* \"#utility.yul\":4696:4718   */\n  tag_52\n  jump\t// in\ntag_128:\n    /* \"#utility.yul\":4686:4694   */\n  dup4\n    /* \"#utility.yul\":4682:4719   */\n  add\n    /* \"#utility.yul\":4669:4680   */\n  dup3\n    /* \"#utility.yul\":4640:4720   */\n  tag_62\n  jump\t// in\ntag_127:\n    /* \"#utility.yul\":4299:4730   */\n  pop\n  pop\n    /* \"#utility.yul\":4284:4730   */\ntag_123:\n    /* \"#utility.yul\":4194:4737   */\n  pop\n  pop\n  pop\n  jump\t// out\n    /* \"#utility.yul\":4743:4860   */\ntag_64:\n    /* \"#utility.yul\":4797:4805   */\n  0x00\n    /* \"#utility.yul\":4847:4852   */\n  dup3\n    /* \"#utility.yul\":4841:4845   */\n  dup3\n    /* \"#utility.yul\":4837:4853   */\n  shr\n    /* \"#utility.yul\":4816:4853   */\n  swap1\n  pop\n    /* \"#utility.yul\":4743:4860   */\n  swap3\n  swap2\n  pop\n  pop\n  jump\t// out\n    /* \"#utility.yul\":4866:5035   */\ntag_65:\n    /* \"#utility.yul\":4910:4916   */\n  0x00\n    /* \"#utility.yul\":4943:4994   */\n  tag_131\n    /* \"#utility.yul\":4991:4992   */\n  0x00\n    /* \"#utility.yul\":4987:4993   */\n  not\n    /* \"#utility.yul\":4979:4984   */\n  dup5\n    /* \"#utility.yul\":4976:4977   */\n  0x08\n    /* \"#utility.yul\":4972:4985   */\n  mul\n    /* \"#utility.yul\":4943:4994   */\n  tag_64\n  jump\t// in\ntag_131:\n    /* \"#utility.yul\":4939:4995   */\n  not\n    /* \"#utility.yul\":5024:5028   */\n  dup1\n    /* \"#utility.yul\":5018:5022   */\n  dup4\n    /* \"#utility.yul\":5014:5029   */\n  and\n    /* \"#utility.yul\":5004:5029   */\n  swap2\n  pop\n    /* \"#utility.yul\":4917:5035   */\n  pop\n    /* \"#utility.yul\":4866:5035   */\n  swap3\n  swap2\n  pop\n  pop\n  jump\t// out\n    /* \"#utility.yul\":5040:5335   */\ntag_66:\n    /* \"#utility.yul\":5116:5120   */\n  0x00\n    /* \"#utility.yul\":5262:5291   */\n  tag_133\n    /* \"#utility.yul\":5287:5290   */\n  dup4\n    /* \"#utility.yul\":5281:5285   */\n  dup4\n    /* \"#utility.yul\":5262:5291   */\n  tag_65\n  jump\t// in\ntag_133:\n    /* \"#utility.yul\":5254:5291   */\n  swap2\n  pop\n    /* \"#utility.yul\":5324:5327   */\n  dup3\n    /* \"#utility.yul\":5321:5322   */\n  0x02\n    /* \"#utility.yul\":5317:5328   */\n  mul\n    /* \"#utility.yul\":5311:5315   */\n  dup3\n    /* \"#utility.yul\":5308:5329   */\n  or\n    /* \"#utility.yul\":5300:5329   */\n  swap1\n  pop\n    /* \"#utility.yul\":5040:5335   */\n  swap3\n  swap2\n  pop\n  pop\n  jump\t// out\n    /* \"#utility.yul\":5340:6735   */\ntag_10:\n    /* \"#utility.yul\":5457:5494   */\n  tag_135\n    /* \"#utility.yul\":5490:5493   */\n  dup3\n    /* \"#utility.yul\":5457:5494   */\n  tag_47\n  jump\t// in\ntag_135:\n    /* \"#utility.yul\":5559:5577   */\n  0xffffffffffffffff\n    /* \"#utility.yul\":5551:5557   */\n  dup2\n    /* \"#utility.yul\":5548:5578   */\n  gt\n    /* \"#utility.yul\":5545:5601   */\n  iszero\n  tag_136\n  jumpi\n    /* \"#utility.yul\":5581:5599   */\n  tag_137\n  tag_48\n  jump\t// in\ntag_137:\n    /* \"#utility.yul\":5545:5601   */\ntag_136:\n    /* \"#utility.yul\":5625:5663   */\n  tag_138\n    /* \"#utility.yul\":5657:5661   */\n  dup3\n    /* \"#utility.yul\":5651:5662   */\n  sload\n    /* \"#utility.yul\":5625:5663   */\n  tag_50\n  jump\t// in\ntag_138:\n    /* \"#utility.yul\":5710:5777   */\n  tag_139\n    /* \"#utility.yul\":5770:5776   */\n  dup3\n    /* \"#utility.yul\":5762:5768   */\n  dup3\n    /* \"#utility.yul\":5756:5760   */\n  dup6\n    /* \"#utility.yul\":5710:5777   */\n  tag_63\n  jump\t// in\ntag_139:\n    /* \"#utility.yul\":5804:5805   */\n  0x00\n    /* \"#utility.yul\":5828:5832   */\n  0x20\n    /* \"#utility.yul\":5815:5832   */\n  swap1\n  pop\n    /* \"#utility.yul\":5860:5862   */\n  0x1f\n    /* \"#utility.yul\":5852:5858   */\n  dup4\n    /* \"#utility.yul\":5849:5863   */\n  gt\n    /* \"#utility.yul\":5877:5878   */\n  0x01\n    /* \"#utility.yul\":5872:6490   */\n  dup2\n  eq\n  tag_141\n  jumpi\n    /* \"#utility.yul\":6534:6535   */\n  0x00\n    /* \"#utility.yul\":6551:6557   */\n  dup5\n    /* \"#utility.yul\":6548:6625   */\n  iszero\n  tag_142\n  jumpi\n    /* \"#utility.yul\":6600:6609   */\n  dup3\n    /* \"#utility.yul\":6595:6598   */\n  dup8\n    /* \"#utility.yul\":6591:6610   */\n  add\n    /* \"#utility.yul\":6585:6611   */\n  mload\n    /* \"#utility.yul\":6576:6611   */\n  swap1\n  pop\n    /* \"#utility.yul\":6548:6625   */\ntag_142:\n    /* \"#utility.yul\":6651:6718   */\n  tag_143\n    /* \"#utility.yul\":6711:6717   */\n  dup6\n    /* \"#utility.yul\":6704:6709   */\n  dup3\n    /* \"#utility.yul\":6651:6718   */\n  tag_66\n  jump\t// in\ntag_143:\n    /* \"#utility.yul\":6645:6649   */\n  dup7\n    /* \"#utility.yul\":6638:6719   */\n  sstore\n    /* \"#utility.yul\":6507:6729   */\n  pop\n    /* \"#utility.yul\":5842:6729   */\n  jump(tag_140)\n    /* \"#utility.yul\":5872:6490   */\ntag_141:\n    /* \"#utility.yul\":5924:5928   */\n  0x1f\n    /* \"#utility.yul\":5920:5929   */\n  not\n    /* \"#utility.yul\":5912:5918   */\n  dup5\n    /* \"#utility.yul\":5908:5930   */\n  and\n    /* \"#utility.yul\":5958:5995   */\n  tag_144\n    /* \"#utility.yul\":5990:5994   */\n  dup7\n    /* \"#utility.yul\":5958:5995   */\n  tag_51\n  jump\t// in\ntag_144:\n    /* \"#utility.yul\":6017:6018   */\n  0x00\n    /* \"#utility.yul\":6031:6239   */\ntag_145:\n    /* \"#utility.yul\":6045:6052   */\n  dup3\n    /* \"#utility.yul\":6042:6043   */\n  dup2\n    /* \"#utility.yul\":6039:6053   */\n  lt\n    /* \"#utility.yul\":6031:6239   */\n  iszero\n  tag_147\n  jumpi\n    /* \"#utility.yul\":6124:6133   */\n  dup5\n    /* \"#utility.yul\":6119:6122   */\n  dup10\n    /* \"#utility.yul\":6115:6134   */\n  add\n    /* \"#utility.yul\":6109:6135   */\n  mload\n    /* \"#utility.yul\":6101:6107   */\n  dup3\n    /* \"#utility.yul\":6094:6136   */\n  sstore\n    /* \"#utility.yul\":6175:6176   */\n  0x01\n    /* \"#utility.yul\":6167:6173   */\n  dup3\n    /* \"#utility.yul\":6163:6177   */\n  add\n    /* \"#utility.yul\":6153:6177   */\n  swap2\n  pop\n    /* \"#utility.yul\":6222:6224   */\n  0x20\n    /* \"#utility.yul\":6211:6220   */\n  dup6\n    /* \"#utility.yul\":6207:6225   */\n  add\n    /* \"#utility.yul\":6194:6225   */\n  swap5\n  pop\n    /* \"#utility.yul\":6068:6072   */\n  0x20\n    /* \"#utility.yul\":6065:6066   */\n  dup2\n    /* \"#utility.yul\":6061:6073   */\n  add\n    /* \"#utility.yul\":6056:6073   */\n  swap1\n  pop\n    /* \"#utility.yul\":6031:6239   */\n  jump(tag_145)\ntag_147:\n    /* \"#utility.yul\":6267:6273   */\n  dup7\n    /* \"#utility.yul\":6258:6265   */\n  dup4\n    /* \"#utility.yul\":6255:6274   */\n  lt\n    /* \"#utility.yul\":6252:6431   */\n  iszero\n  tag_148\n  jumpi\n    /* \"#utility.yul\":6325:6334   */\n  dup5\n    /* \"#utility.yul\":6320:6323   */\n  dup10\n    /* \"#utility.yul\":6316:6335   */\n  add\n    /* \"#utility.yul\":6310:6336   */\n  mload\n    /* \"#utility.yul\":6368:6416   */\n  tag_149\n    /* \"#utility.yul\":6410:6414   */\n  0x1f\n    /* \"#utility.yul\":6402:6408   */\n  dup10\n    /* \"#utility.yul\":6398:6415   */\n  and\n    /* \"#utility.yul\":6387:6396   */\n  dup3\n    /* \"#utility.yul\":6368:6416   */\n  tag_65\n  jump\t// in\ntag_149:\n    /* \"#utility.yul\":6360:6366   */\n  dup4\n    /* \"#utility.yul\":6353:6417   */\n  sstore\n    /* \"#utility.yul\":6275:6431   */\n  pop\n    /* \"#utility.yul\":6252:6431   */\ntag_148:\n    /* \"#utility.yul\":6477:6478   */\n  0x01\n    /* \"#utility.yul\":6473:6474   */\n  0x02\n    /* \"#utility.yul\":6465:6471   */\n  dup9\n    /* \"#utility.yul\":6461:6475   */\n  mul\n    /* \"#utility.yul\":6457:6479   */\n  add\n    /* \"#utility.yul\":6451:6455   */\n  dup9\n    /* \"#utility.yul\":6444:6480   */\n  sstore\n    /* \"#utility.yul\":5879:6490   */\n  pop\n  pop\n  pop\n    /* \"#utility.yul\":5842:6729   */\ntag_140:\n  pop\n    /* \"#utility.yul\":5432:6735   */\n  pop\n  pop\n  pop\n    /* \"#utility.yul\":5340:6735   */\n  pop\n  pop\n  jump\t// out\n    /* \"#utility.yul\":6741:6859   */\ntag_67:\n    /* \"#utility.yul\":6828:6852   */\n  tag_151\n    /* \"#utility.yul\":6846:6851   */\n  dup2\n    /* \"#utility.yul\":6828:6852   */\n  tag_44\n  jump\t// in\ntag_151:\n    /* \"#utility.yul\":6823:6826   */\n  dup3\n    /* \"#utility.yul\":6816:6853   */\n  mstore\n    /* \"#utility.yul\":6741:6859   */\n  pop\n  pop\n  jump\t// out\n    /* \"#utility.yul\":6865:7087   */\ntag_15:\n    /* \"#utility.yul\":6958:6962   */\n  0x00\n    /* \"#utility.yul\":6996:6998   */\n  0x20\n    /* \"#utility.yul\":6985:6994   */\n  dup3\n    /* \"#utility.yul\":6981:6999   */\n  add\n    /* \"#utility.yul\":6973:6999   */\n  swap1\n  pop\n    /* \"#utility.yul\":7009:7080   */\n  tag_153\n    /* \"#utility.yul\":7077:7078   */\n  0x00\n    /* \"#utility.yul\":7066:7075   */\n  dup4\n    /* \"#utility.yul\":7062:7079   */\n  add\n    /* \"#utility.yul\":7053:7059   */\n  dup5\n    /* \"#utility.yul\":7009:7080   */\n  tag_67\n  jump\t// in\ntag_153:\n    /* \"#utility.yul\":6865:7087   */\n  swap3\n  swap2\n  pop\n  pop\n  jump\t// out\n    /* \"#utility.yul\":7093:7179   */\ntag_68:\n    /* \"#utility.yul\":7128:7135   */\n  0x00\n    /* \"#utility.yul\":7168:7172   */\n  0xff\n    /* \"#utility.yul\":7161:7166   */\n  dup3\n    /* \"#utility.yul\":7157:7173   */\n  and\n    /* \"#utility.yul\":7146:7173   */\n  swap1\n  pop\n    /* \"#utility.yul\":7093:7179   */\n  swap2\n  swap1\n  pop\n  jump\t// out\n    /* \"#utility.yul\":7185:7303   */\ntag_69:\n    /* \"#utility.yul\":7256:7278   */\n  tag_156\n    /* \"#utility.yul\":7272:7277   */\n  dup2\n    /* \"#utility.yul\":7256:7278   */\n  tag_68\n  jump\t// in\ntag_156:\n    /* \"#utility.yul\":7249:7254   */\n  dup2\n    /* \"#utility.yul\":7246:7279   */\n  eq\n    /* \"#utility.yul\":7236:7297   */\n  tag_157\n  jumpi\n    /* \"#utility.yul\":7293:7294   */\n  0x00\n    /* \"#utility.yul\":7290:7291   */\n  0x00\n    /* \"#utility.yul\":7283:7295   */\n  revert\n    /* \"#utility.yul\":7236:7297   */\ntag_157:\n    /* \"#utility.yul\":7185:7303   */\n  pop\n  jump\t// out\n    /* \"#utility.yul\":7309:7448   */\ntag_70:\n    /* \"#utility.yul\":7364:7369   */\n  0x00\n    /* \"#utility.yul\":7395:7401   */\n  dup2\n    /* \"#utility.yul\":7389:7402   */\n  mload\n    /* \"#utility.yul\":7380:7402   */\n  swap1\n  pop\n    /* \"#utility.yul\":7411:7442   */\n  tag_159\n    /* \"#utility.yul\":7436:7441   */\n  dup2\n    /* \"#utility.yul\":7411:7442   */\n  tag_69\n  jump\t// in\ntag_159:\n    /* \"#utility.yul\":7309:7448   */\n  swap3\n  swap2\n  pop\n  pop\n  jump\t// out\n    /* \"#utility.yul\":7454:7801   */\ntag_25:\n    /* \"#utility.yul\":7522:7528   */\n  0x00\n    /* \"#utility.yul\":7571:7573   */\n  0x20\n    /* \"#utility.yul\":7559:7568   */\n  dup3\n    /* \"#utility.yul\":7550:7557   */\n  dup5\n    /* \"#utility.yul\":7546:7569   */\n  sub\n    /* \"#utility.yul\":7542:7574   */\n  slt\n    /* \"#utility.yul\":7539:7658   */\n  iszero\n  tag_161\n  jumpi\n    /* \"#utility.yul\":7577:7656   */\n  tag_162\n  tag_41\n  jump\t// in\ntag_162:\n    /* \"#utility.yul\":7539:7658   */\ntag_161:\n    /* \"#utility.yul\":7697:7698   */\n  0x00\n    /* \"#utility.yul\":7722:7784   */\n  tag_163\n    /* \"#utility.yul\":7776:7783   */\n  dup5\n    /* \"#utility.yul\":7767:7773   */\n  dup3\n    /* \"#utility.yul\":7756:7765   */\n  dup6\n    /* \"#utility.yul\":7752:7774   */\n  add\n    /* \"#utility.yul\":7722:7784   */\n  tag_70\n  jump\t// in\ntag_163:\n    /* \"#utility.yul\":7712:7784   */\n  swap2\n  pop\n    /* \"#utility.yul\":7668:7794   */\n  pop\n    /* \"#utility.yul\":7454:7801   */\n  swap3\n  swap2\n  pop\n  pop\n  jump\t// out\n    /* \"submissions/Zora/Day29SimpleStableCoin.sol\":587:5861  contract SimpleStablecoin is ERC20, Ownable, ReentrancyGuard, AccessControl {... */\ntag_29:\n  mload(0x80)\n  mload(0xa0)\n  codecopy(0x00, dataOffset(sub_0), dataSize(sub_0))\n  0x00\n  assignImmutable(\"0xe2a8882ee862f6a771426dccf1ec2eb46d23eac127aae1c0e2e4e912e27014b9\")\n  0x00\n  assignImmutable(\"0x9543fe5a6239e32684922aa0a48bd87e6d4457ec5a0d7447af143143e6ab42c8\")\n  return(0x00, dataSize(sub_0))\nstop\n\nsub_0: assembly {\n        /* \"submissions/Zora/Day29SimpleStableCoin.sol\":587:5861  contract SimpleStablecoin is ERC20, Ownable, ReentrancyGuard, AccessControl {... */\n      mstore(0x40, 0x80)\n      callvalue\n      dup1\n      iszero\n      tag_1\n      jumpi\n      revert(0x00, 0x00)\n    tag_1:\n      pop\n      jumpi(tag_2, lt(calldatasize, 0x04))\n      shr(0xe0, calldataload(0x00))\n      dup1\n      0x91d14854\n      gt\n      tag_34\n      jumpi\n      dup1\n      0xd547741f\n      gt\n      tag_35\n      jumpi\n      dup1\n      0xe5829d20\n      gt\n      tag_36\n      jumpi\n      dup1\n      0xe5829d20\n      eq\n      tag_30\n      jumpi\n      dup1\n      0xeb91d37e\n      eq\n      tag_31\n      jumpi\n      dup1\n      0xec9c6c30\n      eq\n      tag_32\n      jumpi\n      dup1\n      0xf2fde38b\n      eq\n      tag_33\n      jumpi\n      jump(tag_2)\n    tag_36:\n      dup1\n      0xd547741f\n      eq\n      tag_26\n      jumpi\n      dup1\n      0xdb006a75\n      eq\n      tag_27\n      jumpi\n      dup1\n      0xdcaf9c44\n      eq\n      tag_28\n      jumpi\n      dup1\n      0xdd62ed3e\n      eq\n      tag_29\n      jumpi\n      jump(tag_2)\n    tag_35:\n      dup1\n      0xa2fd773d\n      gt\n      tag_37\n      jumpi\n      dup1\n      0xa2fd773d\n      eq\n      tag_22\n      jumpi\n      dup1\n      0xa9059cbb\n      eq\n      tag_23\n      jumpi\n      dup1\n      0xb2016bd4\n      eq\n      tag_24\n      jumpi\n      dup1\n      0xba6af5ab\n      eq\n      tag_25\n      jumpi\n      jump(tag_2)\n    tag_37:\n      dup1\n      0x91d14854\n      eq\n      tag_18\n      jumpi\n      dup1\n      0x95d89b41\n      eq\n      tag_19\n      jumpi\n      dup1\n      0xa0712d68\n      eq\n      tag_20\n      jumpi\n      dup1\n      0xa217fddf\n      eq\n      tag_21\n      jumpi\n      jump(tag_2)\n    tag_34:\n      dup1\n      0x2f2ff15d\n      gt\n      tag_38\n      jumpi\n      dup1\n      0x715018a6\n      gt\n      tag_39\n      jumpi\n      dup1\n      0x715018a6\n      eq\n      tag_14\n      jumpi\n      dup1\n      0x741bef1a\n      eq\n      tag_15\n      jumpi\n      dup1\n      0x74626404\n      eq\n      tag_16\n      jumpi\n      dup1\n      0x8da5cb5b\n      eq\n      tag_17\n      jumpi\n      jump(tag_2)\n    tag_39:\n      dup1\n      0x2f2ff15d\n      eq\n      tag_10\n      jumpi\n      dup1\n      0x313ce567\n      eq\n      tag_11\n      jumpi\n      dup1\n      0x36568abe\n      eq\n      tag_12\n      jumpi\n      dup1\n      0x70a08231\n      eq\n      tag_13\n      jumpi\n      jump(tag_2)\n    tag_38:\n      dup1\n      0x18160ddd\n      gt\n      tag_40\n      jumpi\n      dup1\n      0x18160ddd\n      eq\n      tag_6\n      jumpi\n      dup1\n      0x1bde17fe\n      eq\n      tag_7\n      jumpi\n      dup1\n      0x23b872dd\n      eq\n      tag_8\n      jumpi\n      dup1\n      0x248a9ca3\n      eq\n      tag_9\n      jumpi\n      jump(tag_2)\n    tag_40:\n      dup1\n      0x01ffc9a7\n      eq\n      tag_3\n      jumpi\n      dup1\n      0x06fdde03\n      eq\n      tag_4\n      jumpi\n      dup1\n      0x095ea7b3\n      eq\n      tag_5\n      jumpi\n    tag_2:\n      revert(0x00, 0x00)\n        /* \"@openzeppelin/contracts/access/AccessControl.sol\":2541:2743  function supportsInterface(bytes4 interfaceId) public view virtual override returns (bool) {... */\n    tag_3:\n      tag_41\n      0x04\n      dup1\n      calldatasize\n      sub\n      dup2\n      add\n      swap1\n      tag_42\n      swap2\n      swap1\n      tag_43\n      jump\t// in\n    tag_42:\n      tag_44\n      jump\t// in\n    tag_41:\n      mload(0x40)\n      tag_45\n      swap2\n      swap1\n      tag_46\n      jump\t// in\n    tag_45:\n      mload(0x40)\n      dup1\n      swap2\n      sub\n      swap1\n      return\n        /* \"@openzeppelin/contracts/token/ERC20/ERC20.sol\":1760:1849  function name() public view virtual returns (string memory) {... */\n    tag_4:\n      tag_47\n      tag_48\n      jump\t// in\n    tag_47:\n      mload(0x40)\n      tag_49\n      swap2\n      swap1\n      tag_50\n      jump\t// in\n    tag_49:\n      mload(0x40)\n      dup1\n      swap2\n      sub\n      swap1\n      return\n        /* \"@openzeppelin/contracts/token/ERC20/ERC20.sol\":3902:4088  function approve(address spender, uint256 value) public virtual returns (bool) {... */\n    tag_5:\n      tag_51\n      0x04\n      dup1\n      calldatasize\n      sub\n      dup2\n      add\n      swap1\n      tag_52\n      swap2\n      swap1\n      tag_53\n      jump\t// in\n    tag_52:\n      tag_54\n      jump\t// in\n    tag_51:\n      mload(0x40)\n      tag_55\n      swap2\n      swap1\n      tag_46\n      jump\t// in\n    tag_55:\n      mload(0x40)\n      dup1\n      swap2\n      sub\n      swap1\n      return\n        /* \"@openzeppelin/contracts/token/ERC20/ERC20.sol\":2803:2900  function totalSupply() public view virtual returns (uint256) {... */\n    tag_6:\n      tag_56\n      tag_57\n      jump\t// in\n    tag_56:\n      mload(0x40)\n      tag_58\n      swap2\n      swap1\n      tag_59\n      jump\t// in\n    tag_58:\n      mload(0x40)\n      dup1\n      swap2\n      sub\n      swap1\n      return\n        /* \"submissions/Zora/Day29SimpleStableCoin.sol\":4725:5277  function getRequiredCollateralForMint(uint256 amount) public view returns (uint256) {... */\n    tag_7:\n      tag_60\n      0x04\n      dup1\n      calldatasize\n      sub\n      dup2\n      add\n      swap1\n      tag_61\n      swap2\n      swap1\n      tag_62\n      jump\t// in\n    tag_61:\n      tag_63\n      jump\t// in\n    tag_60:\n      mload(0x40)\n      tag_64\n      swap2\n      swap1\n      tag_59\n      jump\t// in\n    tag_64:\n      mload(0x40)\n      dup1\n      swap2\n      sub\n      swap1\n      return\n        /* \"@openzeppelin/contracts/token/ERC20/ERC20.sol\":4680:4924  function transferFrom(address from, address to, uint256 value) public virtual returns (bool) {... */\n    tag_8:\n      tag_65\n      0x04\n      dup1\n      calldatasize\n      sub\n      dup2\n      add\n      swap1\n      tag_66\n      swap2\n      swap1\n      tag_67\n      jump\t// in\n    tag_66:\n      tag_68\n      jump\t// in\n    tag_65:\n      mload(0x40)\n      tag_69\n      swap2\n      swap1\n      tag_46\n      jump\t// in\n    tag_69:\n      mload(0x40)\n      dup1\n      swap2\n      sub\n      swap1\n      return\n        /* \"@openzeppelin/contracts/access/AccessControl.sol\":3786:3906  function getRoleAdmin(bytes32 role) public view virtual returns (bytes32) {... */\n    tag_9:\n      tag_70\n      0x04\n      dup1\n      calldatasize\n      sub\n      dup2\n      add\n      swap1\n      tag_71\n      swap2\n      swap1\n      tag_72\n      jump\t// in\n    tag_71:\n      tag_73\n      jump\t// in\n    tag_70:\n      mload(0x40)\n      tag_74\n      swap2\n      swap1\n      tag_75\n      jump\t// in\n    tag_74:\n      mload(0x40)\n      dup1\n      swap2\n      sub\n      swap1\n      return\n        /* \"@openzeppelin/contracts/access/AccessControl.sol\":4202:4338  function grantRole(bytes32 role, address account) public virtual onlyRole(getRoleAdmin(role)) {... */\n    tag_10:\n      tag_76\n      0x04\n      dup1\n      calldatasize\n      sub\n      dup2\n      add\n      swap1\n      tag_77\n      swap2\n      swap1\n      tag_78\n      jump\t// in\n    tag_77:\n      tag_79\n      jump\t// in\n    tag_76:\n      stop\n        /* \"@openzeppelin/contracts/token/ERC20/ERC20.sol\":2688:2770  function decimals() public view virtual returns (uint8) {... */\n    tag_11:\n      tag_80\n      tag_81\n      jump\t// in\n    tag_80:\n      mload(0x40)\n      tag_82\n      swap2\n      swap1\n      tag_83\n      jump\t// in\n    tag_82:\n      mload(0x40)\n      dup1\n      swap2\n      sub\n      swap1\n      return\n        /* \"@openzeppelin/contracts/access/AccessControl.sol\":5304:5549  function renounceRole(bytes32 role, address callerConfirmation) public virtual {... */\n    tag_12:\n      tag_84\n      0x04\n      dup1\n      calldatasize\n      sub\n      dup2\n      add\n      swap1\n      tag_85\n      swap2\n      swap1\n      tag_78\n      jump\t// in\n    tag_85:\n      tag_86\n      jump\t// in\n    tag_84:\n      stop\n        /* \"@openzeppelin/contracts/token/ERC20/ERC20.sol\":2933:3049  function balanceOf(address account) public view virtual returns (uint256) {... */\n    tag_13:\n      tag_87\n      0x04\n      dup1\n      calldatasize\n      sub\n      dup2\n      add\n      swap1\n      tag_88\n      swap2\n      swap1\n      tag_89\n      jump\t// in\n    tag_88:\n      tag_90\n      jump\t// in\n    tag_87:\n      mload(0x40)\n      tag_91\n      swap2\n      swap1\n      tag_59\n      jump\t// in\n    tag_91:\n      mload(0x40)\n      dup1\n      swap2\n      sub\n      swap1\n      return\n        /* \"@openzeppelin/contracts/access/Ownable.sol\":2293:2394  function renounceOwnership() public virtual onlyOwner {... */\n    tag_14:\n      tag_92\n      tag_93\n      jump\t// in\n    tag_92:\n      stop\n        /* \"submissions/Zora/Day29SimpleStableCoin.sol\":892:930  AggregatorV3Interface public priceFeed */\n    tag_15:\n      tag_94\n      tag_95\n      jump\t// in\n    tag_94:\n      mload(0x40)\n      tag_96\n      swap2\n      swap1\n      tag_97\n      jump\t// in\n    tag_96:\n      mload(0x40)\n      dup1\n      swap2\n      sub\n      swap1\n      return\n        /* \"submissions/Zora/Day29SimpleStableCoin.sol\":4402:4688  function setPriceFeedContract(address _newPriceFeed) external onlyRole(PRICE_FEED_MANAGER_ROLE) {... */\n    tag_16:\n      tag_98\n      0x04\n      dup1\n      calldatasize\n      sub\n      dup2\n      add\n      swap1\n      tag_99\n      swap2\n      swap1\n      tag_89\n      jump\t// in\n    tag_99:\n      tag_100\n      jump\t// in\n    tag_98:\n      stop\n        /* \"@openzeppelin/contracts/access/Ownable.sol\":1638:1723  function owner() public view virtual returns (address) {... */\n    tag_17:\n      tag_101\n      tag_102\n      jump\t// in\n    tag_101:\n      mload(0x40)\n      tag_103\n      swap2\n      swap1\n      tag_104\n      jump\t// in\n    tag_103:\n      mload(0x40)\n      dup1\n      swap2\n      sub\n      swap1\n      return\n        /* \"@openzeppelin/contracts/access/AccessControl.sol\":2830:2966  function hasRole(bytes32 role, address account) public view virtual returns (bool) {... */\n    tag_18:\n      tag_105\n      0x04\n      dup1\n      calldatasize\n      sub\n      dup2\n      add\n      swap1\n      tag_106\n      swap2\n      swap1\n      tag_78\n      jump\t// in\n    tag_106:\n      tag_107\n      jump\t// in\n    tag_105:\n      mload(0x40)\n      tag_108\n      swap2\n      swap1\n      tag_46\n      jump\t// in\n    tag_108:\n      mload(0x40)\n      dup1\n      swap2\n      sub\n      swap1\n      return\n        /* \"@openzeppelin/contracts/token/ERC20/ERC20.sol\":1962:2055  function symbol() public view virtual returns (string memory) {... */\n    tag_19:\n      tag_109\n      tag_110\n      jump\t// in\n    tag_109:\n      mload(0x40)\n      tag_111\n      swap2\n      swap1\n      tag_50\n      jump\t// in\n    tag_111:\n      mload(0x40)\n      dup1\n      swap2\n      sub\n      swap1\n      return\n        /* \"submissions/Zora/Day29SimpleStableCoin.sol\":2578:3309  function mint(uint256 amount) external nonReentrant {... */\n    tag_20:\n      tag_112\n      0x04\n      dup1\n      calldatasize\n      sub\n      dup2\n      add\n      swap1\n      tag_113\n      swap2\n      swap1\n      tag_62\n      jump\t// in\n    tag_113:\n      tag_114\n      jump\t// in\n    tag_112:\n      stop\n        /* \"@openzeppelin/contracts/access/AccessControl.sol\":2196:2245  bytes32 public constant DEFAULT_ADMIN_ROLE = 0x00 */\n    tag_21:\n      tag_115\n      tag_116\n      jump\t// in\n    tag_115:\n      mload(0x40)\n      tag_117\n      swap2\n      swap1\n      tag_75\n      jump\t// in\n    tag_117:\n      mload(0x40)\n      dup1\n      swap2\n      sub\n      swap1\n      return\n        /* \"submissions/Zora/Day29SimpleStableCoin.sol\":705:791  bytes32 public constant PRICE_FEED_MANAGER_ROLE = keccak256(\"PRICE_FEED_MANAGER_ROLE\") */\n    tag_22:\n      tag_118\n      tag_119\n      jump\t// in\n    tag_118:\n      mload(0x40)\n      tag_120\n      swap2\n      swap1\n      tag_75\n      jump\t// in\n    tag_120:\n      mload(0x40)\n      dup1\n      swap2\n      sub\n      swap1\n      return\n        /* \"@openzeppelin/contracts/token/ERC20/ERC20.sol\":3244:3422  function transfer(address to, uint256 value) public virtual returns (bool) {... */\n    tag_23:\n      tag_121\n      0x04\n      dup1\n      calldatasize\n      sub\n      dup2\n      add\n      swap1\n      tag_122\n      swap2\n      swap1\n      tag_53\n      jump\t// in\n    tag_122:\n      tag_123\n      jump\t// in\n    tag_121:\n      mload(0x40)\n      tag_124\n      swap2\n      swap1\n      tag_46\n      jump\t// in\n    tag_124:\n      mload(0x40)\n      dup1\n      swap2\n      sub\n      swap1\n      return\n        /* \"submissions/Zora/Day29SimpleStableCoin.sol\":798:837  IERC20 public immutable collateralToken */\n    tag_24:\n      tag_125\n      tag_126\n      jump\t// in\n    tag_125:\n      mload(0x40)\n      tag_127\n      swap2\n      swap1\n      tag_128\n      jump\t// in\n    tag_127:\n      mload(0x40)\n      dup1\n      swap2\n      sub\n      swap1\n      return\n        /* \"submissions/Zora/Day29SimpleStableCoin.sol\":5326:5856  function getCollateralForRedeem(uint256 amount) public view returns (uint256) {... */\n    tag_25:\n      tag_129\n      0x04\n      dup1\n      calldatasize\n      sub\n      dup2\n      add\n      swap1\n      tag_130\n      swap2\n      swap1\n      tag_62\n      jump\t// in\n    tag_130:\n      tag_131\n      jump\t// in\n    tag_129:\n      mload(0x40)\n      tag_132\n      swap2\n      swap1\n      tag_59\n      jump\t// in\n    tag_132:\n      mload(0x40)\n      dup1\n      swap2\n      sub\n      swap1\n      return\n        /* \"@openzeppelin/contracts/access/AccessControl.sol\":4618:4756  function revokeRole(bytes32 role, address account) public virtual onlyRole(getRoleAdmin(role)) {... */\n    tag_26:\n      tag_133\n      0x04\n      dup1\n      calldatasize\n      sub\n      dup2\n      add\n      swap1\n      tag_134\n      swap2\n      swap1\n      tag_78\n      jump\t// in\n    tag_134:\n      tag_135\n      jump\t// in\n    tag_133:\n      stop\n        /* \"submissions/Zora/Day29SimpleStableCoin.sol\":3340:4093  function redeem(uint256 amount) external nonReentrant {... */\n    tag_27:\n      tag_136\n      0x04\n      dup1\n      calldatasize\n      sub\n      dup2\n      add\n      swap1\n      tag_137\n      swap2\n      swap1\n      tag_62\n      jump\t// in\n    tag_137:\n      tag_138\n      jump\t// in\n    tag_136:\n      stop\n        /* \"submissions/Zora/Day29SimpleStableCoin.sol\":937:980  uint256 public collateralizationRatio = 150 */\n    tag_28:\n      tag_139\n      tag_140\n      jump\t// in\n    tag_139:\n      mload(0x40)\n      tag_141\n      swap2\n      swap1\n      tag_59\n      jump\t// in\n    tag_141:\n      mload(0x40)\n      dup1\n      swap2\n      sub\n      swap1\n      return\n        /* \"@openzeppelin/contracts/token/ERC20/ERC20.sol\":3455:3595  function allowance(address owner, address spender) public view virtual returns (uint256) {... */\n    tag_29:\n      tag_142\n      0x04\n      dup1\n      calldatasize\n      sub\n      dup2\n      add\n      swap1\n      tag_143\n      swap2\n      swap1\n      tag_144\n      jump\t// in\n    tag_143:\n      tag_145\n      jump\t// in\n    tag_142:\n      mload(0x40)\n      tag_146\n      swap2\n      swap1\n      tag_59\n      jump\t// in\n    tag_146:\n      mload(0x40)\n      dup1\n      swap2\n      sub\n      swap1\n      return\n        /* \"submissions/Zora/Day29SimpleStableCoin.sol\":4124:4371  function setCollateralizationRatio(uint256 newRatio) external onlyOwner {... */\n    tag_30:\n      tag_147\n      0x04\n      dup1\n      calldatasize\n      sub\n      dup2\n      add\n      swap1\n      tag_148\n      swap2\n      swap1\n      tag_62\n      jump\t// in\n    tag_148:\n      tag_149\n      jump\t// in\n    tag_147:\n      stop\n        /* \"submissions/Zora/Day29SimpleStableCoin.sol\":2327:2547  function getCurrentPrice() public view returns (uint256) {... */\n    tag_31:\n      tag_150\n      tag_151\n      jump\t// in\n    tag_150:\n      mload(0x40)\n      tag_152\n      swap2\n      swap1\n      tag_59\n      jump\t// in\n    tag_152:\n      mload(0x40)\n      dup1\n      swap2\n      sub\n      swap1\n      return\n        /* \"submissions/Zora/Day29SimpleStableCoin.sol\":844:885  uint8 public immutable collateralDecimals */\n    tag_32:\n      tag_153\n      tag_154\n      jump\t// in\n    tag_153:\n      mload(0x40)\n      tag_155\n      swap2\n      swap1\n      tag_83\n      jump\t// in\n    tag_155:\n      mload(0x40)\n      dup1\n      swap2\n      sub\n      swap1\n      return\n        /* \"@openzeppelin/contracts/access/Ownable.sol\":2543:2758  function transferOwnership(address newOwner) public virtual onlyOwner {... */\n    tag_33:\n      tag_156\n      0x04\n      dup1\n      calldatasize\n      sub\n      dup2\n      add\n      swap1\n      tag_157\n      swap2\n      swap1\n      tag_89\n      jump\t// in\n    tag_157:\n      tag_158\n      jump\t// in\n    tag_156:\n      stop\n        /* \"@openzeppelin/contracts/access/AccessControl.sol\":2541:2743  function supportsInterface(bytes4 interfaceId) public view virtual override returns (bool) {... */\n    tag_44:\n        /* \"@openzeppelin/contracts/access/AccessControl.sol\":2626:2630  bool */\n      0x00\n        /* \"@openzeppelin/contracts/access/AccessControl.sol\":2664:2696  type(IAccessControl).interfaceId */\n      0x7965db0b00000000000000000000000000000000000000000000000000000000\n        /* \"@openzeppelin/contracts/access/AccessControl.sol\":2649:2696  interfaceId == type(IAccessControl).interfaceId */\n      not(0xffffffffffffffffffffffffffffffffffffffffffffffffffffffff)\n      and\n        /* \"@openzeppelin/contracts/access/AccessControl.sol\":2649:2660  interfaceId */\n      dup3\n        /* \"@openzeppelin/contracts/access/AccessControl.sol\":2649:2696  interfaceId == type(IAccessControl).interfaceId */\n      not(0xffffffffffffffffffffffffffffffffffffffffffffffffffffffff)\n      and\n      eq\n        /* \"@openzeppelin/contracts/access/AccessControl.sol\":2649:2736  interfaceId == type(IAccessControl).interfaceId || super.supportsInterface(interfaceId) */\n      dup1\n      tag_160\n      jumpi\n      pop\n        /* \"@openzeppelin/contracts/access/AccessControl.sol\":2700:2736  super.supportsInterface(interfaceId) */\n      tag_161\n        /* \"@openzeppelin/contracts/access/AccessControl.sol\":2724:2735  interfaceId */\n      dup3\n        /* \"@openzeppelin/contracts/access/AccessControl.sol\":2700:2723  super.supportsInterface */\n      tag_162\n        /* \"@openzeppelin/contracts/access/AccessControl.sol\":2700:2736  super.supportsInterface(interfaceId) */\n      jump\t// in\n    tag_161:\n        /* \"@openzeppelin/contracts/access/AccessControl.sol\":2649:2736  interfaceId == type(IAccessControl).interfaceId || super.supportsInterface(interfaceId) */\n    tag_160:\n        /* \"@openzeppelin/contracts/access/AccessControl.sol\":2642:2736  return interfaceId == type(IAccessControl).interfaceId || super.supportsInterface(interfaceId) */\n      swap1\n      pop\n        /* \"@openzeppelin/contracts/access/AccessControl.sol\":2541:2743  function supportsInterface(bytes4 interfaceId) public view virtual override returns (bool) {... */\n      swap2\n      swap1\n      pop\n      jump\t// out\n        /* \"@openzeppelin/contracts/token/ERC20/ERC20.sol\":1760:1849  function name() public view virtual returns (string memory) {... */\n    tag_48:\n        /* \"@openzeppelin/contracts/token/ERC20/ERC20.sol\":1805:1818  string memory */\n      0x60\n        /* \"@openzeppelin/contracts/token/ERC20/ERC20.sol\":1837:1842  _name */\n      0x03\n        /* \"@openzeppelin/contracts/token/ERC20/ERC20.sol\":1830:1842  return _name */\n      dup1\n      sload\n      tag_164\n      swap1\n      tag_165\n      jump\t// in\n    tag_164:\n      dup1\n      0x1f\n      add\n      0x20\n      dup1\n      swap2\n      div\n      mul\n      0x20\n      add\n      mload(0x40)\n      swap1\n      dup2\n      add\n      0x40\n      mstore\n      dup1\n      swap3\n      swap2\n      swap1\n      dup2\n      dup2\n      mstore\n      0x20\n      add\n      dup3\n      dup1\n      sload\n      tag_166\n      swap1\n      tag_165\n      jump\t// in\n    tag_166:\n      dup1\n      iszero\n      tag_167\n      jumpi\n      dup1\n      0x1f\n      lt\n      tag_168\n      jumpi\n      0x0100\n      dup1\n      dup4\n      sload\n      div\n      mul\n      dup4\n      mstore\n      swap2\n      0x20\n      add\n      swap2\n      jump(tag_167)\n    tag_168:\n      dup3\n      add\n      swap2\n      swap1\n      0x00\n      mstore\n      keccak256(0x00, 0x20)\n      swap1\n    tag_169:\n      dup2\n      sload\n      dup2\n      mstore\n      swap1\n      0x01\n      add\n      swap1\n      0x20\n      add\n      dup1\n      dup4\n      gt\n      tag_169\n      jumpi\n      dup3\n      swap1\n      sub\n      0x1f\n      and\n      dup3\n      add\n      swap2\n    tag_167:\n      pop\n      pop\n      pop\n      pop\n      pop\n      swap1\n      pop\n        /* \"@openzeppelin/contracts/token/ERC20/ERC20.sol\":1760:1849  function name() public view virtual returns (string memory) {... */\n      swap1\n      jump\t// out\n        /* \"@openzeppelin/contracts/token/ERC20/ERC20.sol\":3902:4088  function approve(address spender, uint256 value) public virtual returns (bool) {... */\n    tag_54:\n        /* \"@openzeppelin/contracts/token/ERC20/ERC20.sol\":3975:3979  bool */\n      0x00\n        /* \"@openzeppelin/contracts/token/ERC20/ERC20.sol\":3991:4004  address owner */\n      0x00\n        /* \"@openzeppelin/contracts/token/ERC20/ERC20.sol\":4007:4019  _msgSender() */\n      tag_171\n        /* \"@openzeppelin/contracts/token/ERC20/ERC20.sol\":4007:4017  _msgSender */\n      tag_172\n        /* \"@openzeppelin/contracts/token/ERC20/ERC20.sol\":4007:4019  _msgSender() */\n      jump\t// in\n    tag_171:\n        /* \"@openzeppelin/contracts/token/ERC20/ERC20.sol\":3991:4019  address owner = _msgSender() */\n      swap1\n      pop\n        /* \"@openzeppelin/contracts/token/ERC20/ERC20.sol\":4029:4060  _approve(owner, spender, value) */\n      tag_173\n        /* \"@openzeppelin/contracts/token/ERC20/ERC20.sol\":4038:4043  owner */\n      dup2\n        /* \"@openzeppelin/contracts/token/ERC20/ERC20.sol\":4045:4052  spender */\n      dup6\n        /* \"@openzeppelin/contracts/token/ERC20/ERC20.sol\":4054:4059  value */\n      dup6\n        /* \"@openzeppelin/contracts/token/ERC20/ERC20.sol\":4029:4037  _approve */\n      tag_174\n        /* \"@openzeppelin/contracts/token/ERC20/ERC20.sol\":4029:4060  _approve(owner, spender, value) */\n      jump\t// in\n    tag_173:\n        /* \"@openzeppelin/contracts/token/ERC20/ERC20.sol\":4077:4081  true */\n      0x01\n        /* \"@openzeppelin/contracts/token/ERC20/ERC20.sol\":4070:4081  return true */\n      swap2\n      pop\n      pop\n        /* \"@openzeppelin/contracts/token/ERC20/ERC20.sol\":3902:4088  function approve(address spender, uint256 value) public virtual returns (bool) {... */\n      swap3\n      swap2\n      pop\n      pop\n      jump\t// out\n        /* \"@openzeppelin/contracts/token/ERC20/ERC20.sol\":2803:2900  function totalSupply() public view virtual returns (uint256) {... */\n    tag_57:\n        /* \"@openzeppelin/contracts/token/ERC20/ERC20.sol\":2855:2862  uint256 */\n      0x00\n        /* \"@openzeppelin/contracts/token/ERC20/ERC20.sol\":2881:2893  _totalSupply */\n      sload(0x02)\n        /* \"@openzeppelin/contracts/token/ERC20/ERC20.sol\":2874:2893  return _totalSupply */\n      swap1\n      pop\n        /* \"@openzeppelin/contracts/token/ERC20/ERC20.sol\":2803:2900  function totalSupply() public view virtual returns (uint256) {... */\n      swap1\n      jump\t// out\n        /* \"submissions/Zora/Day29SimpleStableCoin.sol\":4725:5277  function getRequiredCollateralForMint(uint256 amount) public view returns (uint256) {... */\n    tag_63:\n        /* \"submissions/Zora/Day29SimpleStableCoin.sol\":4800:4807  uint256 */\n      0x00\n        /* \"submissions/Zora/Day29SimpleStableCoin.sol\":4834:4835  0 */\n      0x00\n        /* \"submissions/Zora/Day29SimpleStableCoin.sol\":4824:4830  amount */\n      dup3\n        /* \"submissions/Zora/Day29SimpleStableCoin.sol\":4824:4835  amount == 0 */\n      sub\n        /* \"submissions/Zora/Day29SimpleStableCoin.sol\":4820:4845  if (amount == 0) return 0 */\n      tag_177\n      jumpi\n        /* \"submissions/Zora/Day29SimpleStableCoin.sol\":4844:4845  0 */\n      0x00\n        /* \"submissions/Zora/Day29SimpleStableCoin.sol\":4837:4845  return 0 */\n      swap1\n      pop\n      jump(tag_176)\n        /* \"submissions/Zora/Day29SimpleStableCoin.sol\":4820:4845  if (amount == 0) return 0 */\n    tag_177:\n        /* \"submissions/Zora/Day29SimpleStableCoin.sol\":4858:4881  uint256 collateralPrice */\n      0x00\n        /* \"submissions/Zora/Day29SimpleStableCoin.sol\":4884:4901  getCurrentPrice() */\n      tag_178\n        /* \"submissions/Zora/Day29SimpleStableCoin.sol\":4884:4899  getCurrentPrice */\n      tag_151\n        /* \"submissions/Zora/Day29SimpleStableCoin.sol\":4884:4901  getCurrentPrice() */\n      jump\t// in\n    tag_178:\n        /* \"submissions/Zora/Day29SimpleStableCoin.sol\":4858:4901  uint256 collateralPrice = getCurrentPrice() */\n      swap1\n      pop\n        /* \"submissions/Zora/Day29SimpleStableCoin.sol\":4912:4946  uint256 requiredCollateralValueUSD */\n      0x00\n        /* \"submissions/Zora/Day29SimpleStableCoin.sol\":4965:4975  decimals() */\n      tag_179\n        /* \"submissions/Zora/Day29SimpleStableCoin.sol\":4965:4973  decimals */\n      tag_81\n        /* \"submissions/Zora/Day29SimpleStableCoin.sol\":4965:4975  decimals() */\n      jump\t// in\n    tag_179:\n        /* \"submissions/Zora/Day29SimpleStableCoin.sol\":4959:4961  10 */\n      0x0a\n        /* \"submissions/Zora/Day29SimpleStableCoin.sol\":4959:4975  10 ** decimals() */\n      tag_180\n      swap2\n      swap1\n      tag_181\n      jump\t// in\n    tag_180:\n        /* \"submissions/Zora/Day29SimpleStableCoin.sol\":4949:4955  amount */\n      dup5\n        /* \"submissions/Zora/Day29SimpleStableCoin.sol\":4949:4976  amount * (10 ** decimals()) */\n      tag_182\n      swap2\n      swap1\n      tag_183\n      jump\t// in\n    tag_182:\n        /* \"submissions/Zora/Day29SimpleStableCoin.sol\":4912:4976  uint256 requiredCollateralValueUSD = amount * (10 ** decimals()) */\n      swap1\n      pop\n        /* \"submissions/Zora/Day29SimpleStableCoin.sol\":4987:5013  uint256 requiredCollateral */\n      0x00\n        /* \"submissions/Zora/Day29SimpleStableCoin.sol\":5079:5094  collateralPrice */\n      dup3\n        /* \"submissions/Zora/Day29SimpleStableCoin.sol\":5073:5076  100 */\n      0x64\n        /* \"submissions/Zora/Day29SimpleStableCoin.sol\":5073:5094  100 * collateralPrice */\n      tag_184\n      swap2\n      swap1\n      tag_183\n      jump\t// in\n    tag_184:\n        /* \"submissions/Zora/Day29SimpleStableCoin.sol\":5046:5068  collateralizationRatio */\n      sload(0x09)\n        /* \"submissions/Zora/Day29SimpleStableCoin.sol\":5017:5043  requiredCollateralValueUSD */\n      dup4\n        /* \"submissions/Zora/Day29SimpleStableCoin.sol\":5017:5068  requiredCollateralValueUSD * collateralizationRatio */\n      tag_185\n      swap2\n      swap1\n      tag_183\n      jump\t// in\n    tag_185:\n        /* \"submissions/Zora/Day29SimpleStableCoin.sol\":5016:5095  (requiredCollateralValueUSD * collateralizationRatio) / (100 * collateralPrice) */\n      tag_186\n      swap2\n      swap1\n      tag_187\n      jump\t// in\n    tag_186:\n        /* \"submissions/Zora/Day29SimpleStableCoin.sol\":4987:5095  uint256 requiredCollateral = (requiredCollateralValueUSD * collateralizationRatio) / (100 * collateralPrice) */\n      swap1\n      pop\n        /* \"submissions/Zora/Day29SimpleStableCoin.sol\":5106:5140  uint256 adjustedRequiredCollateral */\n      0x00\n        /* \"submissions/Zora/Day29SimpleStableCoin.sol\":5202:5211  priceFeed */\n      0x08\n      0x00\n      swap1\n      sload\n      swap1\n      0x0100\n      exp\n      swap1\n      div\n      0xffffffffffffffffffffffffffffffffffffffff\n      and\n        /* \"submissions/Zora/Day29SimpleStableCoin.sol\":5202:5220  priceFeed.decimals */\n      0xffffffffffffffffffffffffffffffffffffffff\n      and\n      0x313ce567\n        /* \"submissions/Zora/Day29SimpleStableCoin.sol\":5202:5222  priceFeed.decimals() */\n      mload(0x40)\n      dup2\n      0xffffffff\n      and\n      0xe0\n      shl\n      dup2\n      mstore\n      0x04\n      add\n      0x20\n      mload(0x40)\n      dup1\n      dup4\n      sub\n      dup2\n      dup7\n      gas\n      staticcall\n      iszero\n      dup1\n      iszero\n      tag_189\n      jumpi\n      returndatacopy(0x00, 0x00, returndatasize)\n      revert(0x00, returndatasize)\n    tag_189:\n      pop\n      pop\n      pop\n      pop\n      mload(0x40)\n      returndatasize\n      not(0x1f)\n      0x1f\n      dup3\n      add\n      and\n      dup3\n      add\n      dup1\n      0x40\n      mstore\n      pop\n      dup2\n      add\n      swap1\n      tag_190\n      swap2\n      swap1\n      tag_191\n      jump\t// in\n    tag_190:\n        /* \"submissions/Zora/Day29SimpleStableCoin.sol\":5196:5198  10 */\n      0x0a\n        /* \"submissions/Zora/Day29SimpleStableCoin.sol\":5196:5222  10 ** priceFeed.decimals() */\n      tag_192\n      swap2\n      swap1\n      tag_181\n      jump\t// in\n    tag_192:\n        /* \"submissions/Zora/Day29SimpleStableCoin.sol\":5172:5190  collateralDecimals */\n      immutable(\"0xe2a8882ee862f6a771426dccf1ec2eb46d23eac127aae1c0e2e4e912e27014b9\")\n        /* \"submissions/Zora/Day29SimpleStableCoin.sol\":5166:5168  10 */\n      0x0a\n        /* \"submissions/Zora/Day29SimpleStableCoin.sol\":5166:5190  10 ** collateralDecimals */\n      tag_193\n      swap2\n      swap1\n      tag_181\n      jump\t// in\n    tag_193:\n        /* \"submissions/Zora/Day29SimpleStableCoin.sol\":5144:5162  requiredCollateral */\n      dup4\n        /* \"submissions/Zora/Day29SimpleStableCoin.sol\":5144:5191  requiredCollateral * (10 ** collateralDecimals) */\n      tag_194\n      swap2\n      swap1\n      tag_183\n      jump\t// in\n    tag_194:\n        /* \"submissions/Zora/Day29SimpleStableCoin.sol\":5143:5223  (requiredCollateral * (10 ** collateralDecimals)) / (10 ** priceFeed.decimals()) */\n      tag_195\n      swap2\n      swap1\n      tag_187\n      jump\t// in\n    tag_195:\n        /* \"submissions/Zora/Day29SimpleStableCoin.sol\":5106:5223  uint256 adjustedRequiredCollateral = (requiredCollateral * (10 ** collateralDecimals)) / (10 ** priceFeed.decimals()) */\n      swap1\n      pop\n        /* \"submissions/Zora/Day29SimpleStableCoin.sol\":5243:5269  adjustedRequiredCollateral */\n      dup1\n        /* \"submissions/Zora/Day29SimpleStableCoin.sol\":5236:5269  return adjustedRequiredCollateral */\n      swap5\n      pop\n      pop\n      pop\n      pop\n      pop\n        /* \"submissions/Zora/Day29SimpleStableCoin.sol\":4725:5277  function getRequiredCollateralForMint(uint256 amount) public view returns (uint256) {... */\n    tag_176:\n      swap2\n      swap1\n      pop\n      jump\t// out\n        /* \"@openzeppelin/contracts/token/ERC20/ERC20.sol\":4680:4924  function transferFrom(address from, address to, uint256 value) public virtual returns (bool) {... */\n    tag_68:\n        /* \"@openzeppelin/contracts/token/ERC20/ERC20.sol\":4767:4771  bool */\n      0x00\n        /* \"@openzeppelin/contracts/token/ERC20/ERC20.sol\":4783:4798  address spender */\n      0x00\n        /* \"@openzeppelin/contracts/token/ERC20/ERC20.sol\":4801:4813  _msgSender() */\n      tag_197\n        /* \"@openzeppelin/contracts/token/ERC20/ERC20.sol\":4801:4811  _msgSender */\n      tag_172\n        /* \"@openzeppelin/contracts/token/ERC20/ERC20.sol\":4801:4813  _msgSender() */\n      jump\t// in\n    tag_197:\n        /* \"@openzeppelin/contracts/token/ERC20/ERC20.sol\":4783:4813  address spender = _msgSender() */\n      swap1\n      pop\n        /* \"@openzeppelin/contracts/token/ERC20/ERC20.sol\":4823:4860  _spendAllowance(from, spender, value) */\n      tag_198\n        /* \"@openzeppelin/contracts/token/ERC20/ERC20.sol\":4839:4843  from */\n      dup6\n        /* \"@openzeppelin/contracts/token/ERC20/ERC20.sol\":4845:4852  spender */\n      dup3\n        /* \"@openzeppelin/contracts/token/ERC20/ERC20.sol\":4854:4859  value */\n      dup6\n        /* \"@openzeppelin/contracts/token/ERC20/ERC20.sol\":4823:4838  _spendAllowance */\n      tag_199\n        /* \"@openzeppelin/contracts/token/ERC20/ERC20.sol\":4823:4860  _spendAllowance(from, spender, value) */\n      jump\t// in\n    tag_198:\n        /* \"@openzeppelin/contracts/token/ERC20/ERC20.sol\":4870:4896  _transfer(from, to, value) */\n      tag_200\n        /* \"@openzeppelin/contracts/token/ERC20/ERC20.sol\":4880:4884  from */\n      dup6\n        /* \"@openzeppelin/contracts/token/ERC20/ERC20.sol\":4886:4888  to */\n      dup6\n        /* \"@openzeppelin/contracts/token/ERC20/ERC20.sol\":4890:4895  value */\n      dup6\n        /* \"@openzeppelin/contracts/token/ERC20/ERC20.sol\":4870:4879  _transfer */\n      tag_201\n        /* \"@openzeppelin/contracts/token/ERC20/ERC20.sol\":4870:4896  _transfer(from, to, value) */\n      jump\t// in\n    tag_200:\n        /* \"@openzeppelin/contracts/token/ERC20/ERC20.sol\":4913:4917  true */\n      0x01\n        /* \"@openzeppelin/contracts/token/ERC20/ERC20.sol\":4906:4917  return true */\n      swap2\n      pop\n      pop\n        /* \"@openzeppelin/contracts/token/ERC20/ERC20.sol\":4680:4924  function transferFrom(address from, address to, uint256 value) public virtual returns (bool) {... */\n      swap4\n      swap3\n      pop\n      pop\n      pop\n      jump\t// out\n        /* \"@openzeppelin/contracts/access/AccessControl.sol\":3786:3906  function getRoleAdmin(bytes32 role) public view virtual returns (bytes32) {... */\n    tag_73:\n        /* \"@openzeppelin/contracts/access/AccessControl.sol\":3851:3858  bytes32 */\n      0x00\n        /* \"@openzeppelin/contracts/access/AccessControl.sol\":3877:3883  _roles */\n      0x07\n        /* \"@openzeppelin/contracts/access/AccessControl.sol\":3877:3889  _roles[role] */\n      0x00\n        /* \"@openzeppelin/contracts/access/AccessControl.sol\":3884:3888  role */\n      dup4\n        /* \"@openzeppelin/contracts/access/AccessControl.sol\":3877:3889  _roles[role] */\n      dup2\n      mstore\n      0x20\n      add\n      swap1\n      dup2\n      mstore\n      0x20\n      add\n      0x00\n      keccak256\n        /* \"@openzeppelin/contracts/access/AccessControl.sol\":3877:3899  _roles[role].adminRole */\n      0x01\n      add\n      sload\n        /* \"@openzeppelin/contracts/access/AccessControl.sol\":3870:3899  return _roles[role].adminRole */\n      swap1\n      pop\n        /* \"@openzeppelin/contracts/access/AccessControl.sol\":3786:3906  function getRoleAdmin(bytes32 role) public view virtual returns (bytes32) {... */\n      swap2\n      swap1\n      pop\n      jump\t// out\n        /* \"@openzeppelin/contracts/access/AccessControl.sol\":4202:4338  function grantRole(bytes32 role, address account) public virtual onlyRole(getRoleAdmin(role)) {... */\n    tag_79:\n        /* \"@openzeppelin/contracts/access/AccessControl.sol\":4276:4294  getRoleAdmin(role) */\n      tag_203\n        /* \"@openzeppelin/contracts/access/AccessControl.sol\":4289:4293  role */\n      dup3\n        /* \"@openzeppelin/contracts/access/AccessControl.sol\":4276:4288  getRoleAdmin */\n      tag_73\n        /* \"@openzeppelin/contracts/access/AccessControl.sol\":4276:4294  getRoleAdmin(role) */\n      jump\t// in\n    tag_203:\n        /* \"@openzeppelin/contracts/access/AccessControl.sol\":2473:2489  _checkRole(role) */\n      tag_205\n        /* \"@openzeppelin/contracts/access/AccessControl.sol\":2484:2488  role */\n      dup2\n        /* \"@openzeppelin/contracts/access/AccessControl.sol\":2473:2483  _checkRole */\n      tag_206\n        /* \"@openzeppelin/contracts/access/AccessControl.sol\":2473:2489  _checkRole(role) */\n      jump\t// in\n    tag_205:\n        /* \"@openzeppelin/contracts/access/AccessControl.sol\":4306:4331  _grantRole(role, account) */\n      tag_208\n        /* \"@openzeppelin/contracts/access/AccessControl.sol\":4317:4321  role */\n      dup4\n        /* \"@openzeppelin/contracts/access/AccessControl.sol\":4323:4330  account */\n      dup4\n        /* \"@openzeppelin/contracts/access/AccessControl.sol\":4306:4316  _grantRole */\n      tag_209\n        /* \"@openzeppelin/contracts/access/AccessControl.sol\":4306:4331  _grantRole(role, account) */\n      jump\t// in\n    tag_208:\n      pop\n        /* \"@openzeppelin/contracts/access/AccessControl.sol\":4202:4338  function grantRole(bytes32 role, address account) public virtual onlyRole(getRoleAdmin(role)) {... */\n      pop\n      pop\n      pop\n      jump\t// out\n        /* \"@openzeppelin/contracts/token/ERC20/ERC20.sol\":2688:2770  function decimals() public view virtual returns (uint8) {... */\n    tag_81:\n        /* \"@openzeppelin/contracts/token/ERC20/ERC20.sol\":2737:2742  uint8 */\n      0x00\n        /* \"@openzeppelin/contracts/token/ERC20/ERC20.sol\":2761:2763  18 */\n      0x12\n        /* \"@openzeppelin/contracts/token/ERC20/ERC20.sol\":2754:2763  return 18 */\n      swap1\n      pop\n        /* \"@openzeppelin/contracts/token/ERC20/ERC20.sol\":2688:2770  function decimals() public view virtual returns (uint8) {... */\n      swap1\n      jump\t// out\n        /* \"@openzeppelin/contracts/access/AccessControl.sol\":5304:5549  function renounceRole(bytes32 role, address callerConfirmation) public virtual {... */\n    tag_86:\n        /* \"@openzeppelin/contracts/access/AccessControl.sol\":5419:5431  _msgSender() */\n      tag_212\n        /* \"@openzeppelin/contracts/access/AccessControl.sol\":5419:5429  _msgSender */\n      tag_172\n        /* \"@openzeppelin/contracts/access/AccessControl.sol\":5419:5431  _msgSender() */\n      jump\t// in\n    tag_212:\n        /* \"@openzeppelin/contracts/access/AccessControl.sol\":5397:5431  callerConfirmation != _msgSender() */\n      0xffffffffffffffffffffffffffffffffffffffff\n      and\n        /* \"@openzeppelin/contracts/access/AccessControl.sol\":5397:5415  callerConfirmation */\n      dup2\n        /* \"@openzeppelin/contracts/access/AccessControl.sol\":5397:5431  callerConfirmation != _msgSender() */\n      0xffffffffffffffffffffffffffffffffffffffff\n      and\n      eq\n        /* \"@openzeppelin/contracts/access/AccessControl.sol\":5393:5495  if (callerConfirmation != _msgSender()) {... */\n      tag_213\n      jumpi\n        /* \"@openzeppelin/contracts/access/AccessControl.sol\":5454:5484  AccessControlBadConfirmation() */\n      mload(0x40)\n      0x6697b23200000000000000000000000000000000000000000000000000000000\n      dup2\n      mstore\n      0x04\n      add\n      mload(0x40)\n      dup1\n      swap2\n      sub\n      swap1\n      revert\n        /* \"@openzeppelin/contracts/access/AccessControl.sol\":5393:5495  if (callerConfirmation != _msgSender()) {... */\n    tag_213:\n        /* \"@openzeppelin/contracts/access/AccessControl.sol\":5505:5542  _revokeRole(role, callerConfirmation) */\n      tag_214\n        /* \"@openzeppelin/contracts/access/AccessControl.sol\":5517:5521  role */\n      dup3\n        /* \"@openzeppelin/contracts/access/AccessControl.sol\":5523:5541  callerConfirmation */\n      dup3\n        /* \"@openzeppelin/contracts/access/AccessControl.sol\":5505:5516  _revokeRole */\n      tag_215\n        /* \"@openzeppelin/contracts/access/AccessControl.sol\":5505:5542  _revokeRole(role, callerConfirmation) */\n      jump\t// in\n    tag_214:\n      pop\n        /* \"@openzeppelin/contracts/access/AccessControl.sol\":5304:5549  function renounceRole(bytes32 role, address callerConfirmation) public virtual {... */\n      pop\n      pop\n      jump\t// out\n        /* \"@openzeppelin/contracts/token/ERC20/ERC20.sol\":2933:3049  function balanceOf(address account) public view virtual returns (uint256) {... */\n    tag_90:\n        /* \"@openzeppelin/contracts/token/ERC20/ERC20.sol\":2998:3005  uint256 */\n      0x00\n        /* \"@openzeppelin/contracts/token/ERC20/ERC20.sol\":3024:3033  _balances */\n      0x00\n        /* \"@openzeppelin/contracts/token/ERC20/ERC20.sol\":3024:3042  _balances[account] */\n      0x00\n        /* \"@openzeppelin/contracts/token/ERC20/ERC20.sol\":3034:3041  account */\n      dup4\n        /* \"@openzeppelin/contracts/token/ERC20/ERC20.sol\":3024:3042  _balances[account] */\n      0xffffffffffffffffffffffffffffffffffffffff\n      and\n      0xffffffffffffffffffffffffffffffffffffffff\n      and\n      dup2\n      mstore\n      0x20\n      add\n      swap1\n      dup2\n      mstore\n      0x20\n      add\n      0x00\n      keccak256\n      sload\n        /* \"@openzeppelin/contracts/token/ERC20/ERC20.sol\":3017:3042  return _balances[account] */\n      swap1\n      pop\n        /* \"@openzeppelin/contracts/token/ERC20/ERC20.sol\":2933:3049  function balanceOf(address account) public view virtual returns (uint256) {... */\n      swap2\n      swap1\n      pop\n      jump\t// out\n        /* \"@openzeppelin/contracts/access/Ownable.sol\":2293:2394  function renounceOwnership() public virtual onlyOwner {... */\n    tag_93:\n        /* \"@openzeppelin/contracts/access/Ownable.sol\":1531:1544  _checkOwner() */\n      tag_218\n        /* \"@openzeppelin/contracts/access/Ownable.sol\":1531:1542  _checkOwner */\n      tag_219\n        /* \"@openzeppelin/contracts/access/Ownable.sol\":1531:1544  _checkOwner() */\n      jump\t// in\n    tag_218:\n        /* \"@openzeppelin/contracts/access/Ownable.sol\":2357:2387  _transferOwnership(address(0)) */\n      tag_221\n        /* \"@openzeppelin/contracts/access/Ownable.sol\":2384:2385  0 */\n      0x00\n        /* \"@openzeppelin/contracts/access/Ownable.sol\":2357:2375  _transferOwnership */\n      tag_222\n        /* \"@openzeppelin/contracts/access/Ownable.sol\":2357:2387  _transferOwnership(address(0)) */\n      jump\t// in\n    tag_221:\n        /* \"@openzeppelin/contracts/access/Ownable.sol\":2293:2394  function renounceOwnership() public virtual onlyOwner {... */\n      jump\t// out\n        /* \"submissions/Zora/Day29SimpleStableCoin.sol\":892:930  AggregatorV3Interface public priceFeed */\n    tag_95:\n      0x08\n      0x00\n      swap1\n      sload\n      swap1\n      0x0100\n      exp\n      swap1\n      div\n      0xffffffffffffffffffffffffffffffffffffffff\n      and\n      dup2\n      jump\t// out\n        /* \"submissions/Zora/Day29SimpleStableCoin.sol\":4402:4688  function setPriceFeedContract(address _newPriceFeed) external onlyRole(PRICE_FEED_MANAGER_ROLE) {... */\n    tag_100:\n        /* \"submissions/Zora/Day29SimpleStableCoin.sol\":755:791  keccak256(\"PRICE_FEED_MANAGER_ROLE\") */\n      0xd83007455b073bdf2abc6e8b18ce2847f802b368f0ad3a285cbb1773ec2f4c83\n        /* \"@openzeppelin/contracts/access/AccessControl.sol\":2473:2489  _checkRole(role) */\n      tag_224\n        /* \"@openzeppelin/contracts/access/AccessControl.sol\":2484:2488  role */\n      dup2\n        /* \"@openzeppelin/contracts/access/AccessControl.sol\":2473:2483  _checkRole */\n      tag_206\n        /* \"@openzeppelin/contracts/access/AccessControl.sol\":2473:2489  _checkRole(role) */\n      jump\t// in\n    tag_224:\n        /* \"submissions/Zora/Day29SimpleStableCoin.sol\":4538:4539  0 */\n      0x00\n        /* \"submissions/Zora/Day29SimpleStableCoin.sol\":4513:4540  _newPriceFeed == address(0) */\n      0xffffffffffffffffffffffffffffffffffffffff\n      and\n        /* \"submissions/Zora/Day29SimpleStableCoin.sol\":4513:4526  _newPriceFeed */\n      dup3\n        /* \"submissions/Zora/Day29SimpleStableCoin.sol\":4513:4540  _newPriceFeed == address(0) */\n      0xffffffffffffffffffffffffffffffffffffffff\n      and\n      sub\n        /* \"submissions/Zora/Day29SimpleStableCoin.sol\":4509:4574  if (_newPriceFeed == address(0)) revert InvalidPriceFeedAddress() */\n      tag_226\n      jumpi\n        /* \"submissions/Zora/Day29SimpleStableCoin.sol\":4549:4574  InvalidPriceFeedAddress() */\n      mload(0x40)\n      0xe358806300000000000000000000000000000000000000000000000000000000\n      dup2\n      mstore\n      0x04\n      add\n      mload(0x40)\n      dup1\n      swap2\n      sub\n      swap1\n      revert\n        /* \"submissions/Zora/Day29SimpleStableCoin.sol\":4509:4574  if (_newPriceFeed == address(0)) revert InvalidPriceFeedAddress() */\n    tag_226:\n        /* \"submissions/Zora/Day29SimpleStableCoin.sol\":4619:4632  _newPriceFeed */\n      dup2\n        /* \"submissions/Zora/Day29SimpleStableCoin.sol\":4585:4594  priceFeed */\n      0x08\n      0x00\n        /* \"submissions/Zora/Day29SimpleStableCoin.sol\":4585:4633  priceFeed = AggregatorV3Interface(_newPriceFeed) */\n      0x0100\n      exp\n      dup2\n      sload\n      dup2\n      0xffffffffffffffffffffffffffffffffffffffff\n      mul\n      not\n      and\n      swap1\n      dup4\n      0xffffffffffffffffffffffffffffffffffffffff\n      and\n      mul\n      or\n      swap1\n      sstore\n      pop\n        /* \"submissions/Zora/Day29SimpleStableCoin.sol\":4649:4680  PriceFeedUpdated(_newPriceFeed) */\n      0xe5b20b8497e4f3e2435ef9c20e2e26b47497ee13745ce1c681ad6640653119e6\n        /* \"submissions/Zora/Day29SimpleStableCoin.sol\":4666:4679  _newPriceFeed */\n      dup3\n        /* \"submissions/Zora/Day29SimpleStableCoin.sol\":4649:4680  PriceFeedUpdated(_newPriceFeed) */\n      mload(0x40)\n      tag_227\n      swap2\n      swap1\n      tag_104\n      jump\t// in\n    tag_227:\n      mload(0x40)\n      dup1\n      swap2\n      sub\n      swap1\n      log1\n        /* \"submissions/Zora/Day29SimpleStableCoin.sol\":4402:4688  function setPriceFeedContract(address _newPriceFeed) external onlyRole(PRICE_FEED_MANAGER_ROLE) {... */\n      pop\n      pop\n      jump\t// out\n        /* \"@openzeppelin/contracts/access/Ownable.sol\":1638:1723  function owner() public view virtual returns (address) {... */\n    tag_102:\n        /* \"@openzeppelin/contracts/access/Ownable.sol\":1684:1691  address */\n      0x00\n        /* \"@openzeppelin/contracts/access/Ownable.sol\":1710:1716  _owner */\n      0x05\n      0x00\n      swap1\n      sload\n      swap1\n      0x0100\n      exp\n      swap1\n      div\n      0xffffffffffffffffffffffffffffffffffffffff\n      and\n        /* \"@openzeppelin/contracts/access/Ownable.sol\":1703:1716  return _owner */\n      swap1\n      pop\n        /* \"@openzeppelin/contracts/access/Ownable.sol\":1638:1723  function owner() public view virtual returns (address) {... */\n      swap1\n      jump\t// out\n        /* \"@openzeppelin/contracts/access/AccessControl.sol\":2830:2966  function hasRole(bytes32 role, address account) public view virtual returns (bool) {... */\n    tag_107:\n        /* \"@openzeppelin/contracts/access/AccessControl.sol\":2907:2911  bool */\n      0x00\n        /* \"@openzeppelin/contracts/access/AccessControl.sol\":2930:2936  _roles */\n      0x07\n        /* \"@openzeppelin/contracts/access/AccessControl.sol\":2930:2942  _roles[role] */\n      0x00\n        /* \"@openzeppelin/contracts/access/AccessControl.sol\":2937:2941  role */\n      dup5\n        /* \"@openzeppelin/contracts/access/AccessControl.sol\":2930:2942  _roles[role] */\n      dup2\n      mstore\n      0x20\n      add\n      swap1\n      dup2\n      mstore\n      0x20\n      add\n      0x00\n      keccak256\n        /* \"@openzeppelin/contracts/access/AccessControl.sol\":2930:2950  _roles[role].hasRole */\n      0x00\n      add\n        /* \"@openzeppelin/contracts/access/AccessControl.sol\":2930:2959  _roles[role].hasRole[account] */\n      0x00\n        /* \"@openzeppelin/contracts/access/AccessControl.sol\":2951:2958  account */\n      dup4\n        /* \"@openzeppelin/contracts/access/AccessControl.sol\":2930:2959  _roles[role].hasRole[account] */\n      0xffffffffffffffffffffffffffffffffffffffff\n      and\n      0xffffffffffffffffffffffffffffffffffffffff\n      and\n      dup2\n      mstore\n      0x20\n      add\n      swap1\n      dup2\n      mstore\n      0x20\n      add\n      0x00\n      keccak256\n      0x00\n      swap1\n      sload\n      swap1\n      0x0100\n      exp\n      swap1\n      div\n      0xff\n      and\n        /* \"@openzeppelin/contracts/access/AccessControl.sol\":2923:2959  return _roles[role].hasRole[account] */\n      swap1\n      pop\n        /* \"@openzeppelin/contracts/access/AccessControl.sol\":2830:2966  function hasRole(bytes32 role, address account) public view virtual returns (bool) {... */\n      swap3\n      swap2\n      pop\n      pop\n      jump\t// out\n        /* \"@openzeppelin/contracts/token/ERC20/ERC20.sol\":1962:2055  function symbol() public view virtual returns (string memory) {... */\n    tag_110:\n        /* \"@openzeppelin/contracts/token/ERC20/ERC20.sol\":2009:2022  string memory */\n      0x60\n        /* \"@openzeppelin/contracts/token/ERC20/ERC20.sol\":2041:2048  _symbol */\n      0x04\n        /* \"@openzeppelin/contracts/token/ERC20/ERC20.sol\":2034:2048  return _symbol */\n      dup1\n      sload\n      tag_231\n      swap1\n      tag_165\n      jump\t// in\n    tag_231:\n      dup1\n      0x1f\n      add\n      0x20\n      dup1\n      swap2\n      div\n      mul\n      0x20\n      add\n      mload(0x40)\n      swap1\n      dup2\n      add\n      0x40\n      mstore\n      dup1\n      swap3\n      swap2\n      swap1\n      dup2\n      dup2\n      mstore\n      0x20\n      add\n      dup3\n      dup1\n      sload\n      tag_232\n      swap1\n      tag_165\n      jump\t// in\n    tag_232:\n      dup1\n      iszero\n      tag_233\n      jumpi\n      dup1\n      0x1f\n      lt\n      tag_234\n      jumpi\n      0x0100\n      dup1\n      dup4\n      sload\n      div\n      mul\n      dup4\n      mstore\n      swap2\n      0x20\n      add\n      swap2\n      jump(tag_233)\n    tag_234:\n      dup3\n      add\n      swap2\n      swap1\n      0x00\n      mstore\n      keccak256(0x00, 0x20)\n      swap1\n    tag_235:\n      dup2\n      sload\n      dup2\n      mstore\n      swap1\n      0x01\n      add\n      swap1\n      0x20\n      add\n      dup1\n      dup4\n      gt\n      tag_235\n      jumpi\n      dup3\n      swap1\n      sub\n      0x1f\n      and\n      dup3\n      add\n      swap2\n    tag_233:\n      pop\n      pop\n      pop\n      pop\n      pop\n      swap1\n      pop\n        /* \"@openzeppelin/contracts/token/ERC20/ERC20.sol\":1962:2055  function symbol() public view virtual returns (string memory) {... */\n      swap1\n      jump\t// out\n        /* \"submissions/Zora/Day29SimpleStableCoin.sol\":2578:3309  function mint(uint256 amount) external nonReentrant {... */\n    tag_114:\n        /* \"@openzeppelin/contracts/security/ReentrancyGuard.sol\":2261:2282  _nonReentrantBefore() */\n      tag_237\n        /* \"@openzeppelin/contracts/security/ReentrancyGuard.sol\":2261:2280  _nonReentrantBefore */\n      tag_238\n        /* \"@openzeppelin/contracts/security/ReentrancyGuard.sol\":2261:2282  _nonReentrantBefore() */\n      jump\t// in\n    tag_237:\n        /* \"submissions/Zora/Day29SimpleStableCoin.sol\":2655:2656  0 */\n      0x00\n        /* \"submissions/Zora/Day29SimpleStableCoin.sol\":2645:2651  amount */\n      dup2\n        /* \"submissions/Zora/Day29SimpleStableCoin.sol\":2645:2656  amount == 0 */\n      sub\n        /* \"submissions/Zora/Day29SimpleStableCoin.sol\":2641:2683  if (amount == 0) revert MintAmountIsZero() */\n      tag_240\n      jumpi\n        /* \"submissions/Zora/Day29SimpleStableCoin.sol\":2665:2683  MintAmountIsZero() */\n      mload(0x40)\n      0x7a5f358c00000000000000000000000000000000000000000000000000000000\n      dup2\n      mstore\n      0x04\n      add\n      mload(0x40)\n      dup1\n      swap2\n      sub\n      swap1\n      revert\n        /* \"submissions/Zora/Day29SimpleStableCoin.sol\":2641:2683  if (amount == 0) revert MintAmountIsZero() */\n    tag_240:\n        /* \"submissions/Zora/Day29SimpleStableCoin.sol\":2696:2719  uint256 collateralPrice */\n      0x00\n        /* \"submissions/Zora/Day29SimpleStableCoin.sol\":2722:2739  getCurrentPrice() */\n      tag_241\n        /* \"submissions/Zora/Day29SimpleStableCoin.sol\":2722:2737  getCurrentPrice */\n      tag_151\n        /* \"submissions/Zora/Day29SimpleStableCoin.sol\":2722:2739  getCurrentPrice() */\n      jump\t// in\n    tag_241:\n        /* \"submissions/Zora/Day29SimpleStableCoin.sol\":2696:2739  uint256 collateralPrice = getCurrentPrice() */\n      swap1\n      pop\n        /* \"submissions/Zora/Day29SimpleStableCoin.sol\":2750:2784  uint256 requiredCollateralValueUSD */\n      0x00\n        /* \"submissions/Zora/Day29SimpleStableCoin.sol\":2803:2813  decimals() */\n      tag_242\n        /* \"submissions/Zora/Day29SimpleStableCoin.sol\":2803:2811  decimals */\n      tag_81\n        /* \"submissions/Zora/Day29SimpleStableCoin.sol\":2803:2813  decimals() */\n      jump\t// in\n    tag_242:\n        /* \"submissions/Zora/Day29SimpleStableCoin.sol\":2797:2799  10 */\n      0x0a\n        /* \"submissions/Zora/Day29SimpleStableCoin.sol\":2797:2813  10 ** decimals() */\n      tag_243\n      swap2\n      swap1\n      tag_181\n      jump\t// in\n    tag_243:\n        /* \"submissions/Zora/Day29SimpleStableCoin.sol\":2787:2793  amount */\n      dup4\n        /* \"submissions/Zora/Day29SimpleStableCoin.sol\":2787:2814  amount * (10 ** decimals()) */\n      tag_244\n      swap2\n      swap1\n      tag_183\n      jump\t// in\n    tag_244:\n        /* \"submissions/Zora/Day29SimpleStableCoin.sol\":2750:2814  uint256 requiredCollateralValueUSD = amount * (10 ** decimals()) */\n      swap1\n      pop\n        /* \"submissions/Zora/Day29SimpleStableCoin.sol\":2857:2883  uint256 requiredCollateral */\n      0x00\n        /* \"submissions/Zora/Day29SimpleStableCoin.sol\":2949:2964  collateralPrice */\n      dup3\n        /* \"submissions/Zora/Day29SimpleStableCoin.sol\":2943:2946  100 */\n      0x64\n        /* \"submissions/Zora/Day29SimpleStableCoin.sol\":2943:2964  100 * collateralPrice */\n      tag_245\n      swap2\n      swap1\n      tag_183\n      jump\t// in\n    tag_245:\n        /* \"submissions/Zora/Day29SimpleStableCoin.sol\":2916:2938  collateralizationRatio */\n      sload(0x09)\n        /* \"submissions/Zora/Day29SimpleStableCoin.sol\":2887:2913  requiredCollateralValueUSD */\n      dup4\n        /* \"submissions/Zora/Day29SimpleStableCoin.sol\":2887:2938  requiredCollateralValueUSD * collateralizationRatio */\n      tag_246\n      swap2\n      swap1\n      tag_183\n      jump\t// in\n    tag_246:\n        /* \"submissions/Zora/Day29SimpleStableCoin.sol\":2886:2965  (requiredCollateralValueUSD * collateralizationRatio) / (100 * collateralPrice) */\n      tag_247\n      swap2\n      swap1\n      tag_187\n      jump\t// in\n    tag_247:\n        /* \"submissions/Zora/Day29SimpleStableCoin.sol\":2857:2965  uint256 requiredCollateral = (requiredCollateralValueUSD * collateralizationRatio) / (100 * collateralPrice) */\n      swap1\n      pop\n        /* \"submissions/Zora/Day29SimpleStableCoin.sol\":2976:3010  uint256 adjustedRequiredCollateral */\n      0x00\n        /* \"submissions/Zora/Day29SimpleStableCoin.sol\":3072:3081  priceFeed */\n      0x08\n      0x00\n      swap1\n      sload\n      swap1\n      0x0100\n      exp\n      swap1\n      div\n      0xffffffffffffffffffffffffffffffffffffffff\n      and\n        /* \"submissions/Zora/Day29SimpleStableCoin.sol\":3072:3090  priceFeed.decimals */\n      0xffffffffffffffffffffffffffffffffffffffff\n      and\n      0x313ce567\n        /* \"submissions/Zora/Day29SimpleStableCoin.sol\":3072:3092  priceFeed.decimals() */\n      mload(0x40)\n      dup2\n      0xffffffff\n      and\n      0xe0\n      shl\n      dup2\n      mstore\n      0x04\n      add\n      0x20\n      mload(0x40)\n      dup1\n      dup4\n      sub\n      dup2\n      dup7\n      gas\n      staticcall\n      iszero\n      dup1\n      iszero\n      tag_249\n      jumpi\n      returndatacopy(0x00, 0x00, returndatasize)\n      revert(0x00, returndatasize)\n    tag_249:\n      pop\n      pop\n      pop\n      pop\n      mload(0x40)\n      returndatasize\n      not(0x1f)\n      0x1f\n      dup3\n      add\n      and\n      dup3\n      add\n      dup1\n      0x40\n      mstore\n      pop\n      dup2\n      add\n      swap1\n      tag_250\n      swap2\n      swap1\n      tag_191\n      jump\t// in\n    tag_250:\n        /* \"submissions/Zora/Day29SimpleStableCoin.sol\":3066:3068  10 */\n      0x0a\n        /* \"submissions/Zora/Day29SimpleStableCoin.sol\":3066:3092  10 ** priceFeed.decimals() */\n      tag_251\n      swap2\n      swap1\n      tag_181\n      jump\t// in\n    tag_251:\n        /* \"submissions/Zora/Day29SimpleStableCoin.sol\":3042:3060  collateralDecimals */\n      immutable(\"0xe2a8882ee862f6a771426dccf1ec2eb46d23eac127aae1c0e2e4e912e27014b9\")\n        /* \"submissions/Zora/Day29SimpleStableCoin.sol\":3036:3038  10 */\n      0x0a\n        /* \"submissions/Zora/Day29SimpleStableCoin.sol\":3036:3060  10 ** collateralDecimals */\n      tag_252\n      swap2\n      swap1\n      tag_181\n      jump\t// in\n    tag_252:\n        /* \"submissions/Zora/Day29SimpleStableCoin.sol\":3014:3032  requiredCollateral */\n      dup4\n        /* \"submissions/Zora/Day29SimpleStableCoin.sol\":3014:3061  requiredCollateral * (10 ** collateralDecimals) */\n      tag_253\n      swap2\n      swap1\n      tag_183\n      jump\t// in\n    tag_253:\n        /* \"submissions/Zora/Day29SimpleStableCoin.sol\":3013:3093  (requiredCollateral * (10 ** collateralDecimals)) / (10 ** priceFeed.decimals()) */\n      tag_254\n      swap2\n      swap1\n      tag_187\n      jump\t// in\n    tag_254:\n        /* \"submissions/Zora/Day29SimpleStableCoin.sol\":2976:3093  uint256 adjustedRequiredCollateral = (requiredCollateral * (10 ** collateralDecimals)) / (10 ** priceFeed.decimals()) */\n      swap1\n      pop\n        /* \"submissions/Zora/Day29SimpleStableCoin.sol\":3106:3193  collateralToken.safeTransferFrom(msg.sender, address(this), adjustedRequiredCollateral) */\n      tag_255\n        /* \"submissions/Zora/Day29SimpleStableCoin.sol\":3139:3149  msg.sender */\n      caller\n        /* \"submissions/Zora/Day29SimpleStableCoin.sol\":3159:3163  this */\n      address\n        /* \"submissions/Zora/Day29SimpleStableCoin.sol\":3166:3192  adjustedRequiredCollateral */\n      dup4\n        /* \"submissions/Zora/Day29SimpleStableCoin.sol\":3106:3121  collateralToken */\n      immutable(\"0x9543fe5a6239e32684922aa0a48bd87e6d4457ec5a0d7447af143143e6ab42c8\")\n        /* \"submissions/Zora/Day29SimpleStableCoin.sol\":3106:3138  collateralToken.safeTransferFrom */\n      0xffffffffffffffffffffffffffffffffffffffff\n      and\n      tag_256\n      swap1\n        /* \"submissions/Zora/Day29SimpleStableCoin.sol\":3106:3193  collateralToken.safeTransferFrom(msg.sender, address(this), adjustedRequiredCollateral) */\n      swap4\n      swap3\n      swap2\n      swap1\n      0xffffffff\n      and\n      jump\t// in\n    tag_255:\n        /* \"submissions/Zora/Day29SimpleStableCoin.sol\":3204:3229  _mint(msg.sender, amount) */\n      tag_257\n        /* \"submissions/Zora/Day29SimpleStableCoin.sol\":3210:3220  msg.sender */\n      caller\n        /* \"submissions/Zora/Day29SimpleStableCoin.sol\":3222:3228  amount */\n      dup7\n        /* \"submissions/Zora/Day29SimpleStableCoin.sol\":3204:3209  _mint */\n      tag_258\n        /* \"submissions/Zora/Day29SimpleStableCoin.sol\":3204:3229  _mint(msg.sender, amount) */\n      jump\t// in\n    tag_257:\n        /* \"submissions/Zora/Day29SimpleStableCoin.sol\":3254:3264  msg.sender */\n      caller\n        /* \"submissions/Zora/Day29SimpleStableCoin.sol\":3247:3301  Minted(msg.sender, amount, adjustedRequiredCollateral) */\n      0xffffffffffffffffffffffffffffffffffffffff\n      and\n      0x25b428dfde728ccfaddad7e29e4ac23c24ed7fd1a6e3e3f91894a9a073f5dfff\n        /* \"submissions/Zora/Day29SimpleStableCoin.sol\":3266:3272  amount */\n      dup7\n        /* \"submissions/Zora/Day29SimpleStableCoin.sol\":3274:3300  adjustedRequiredCollateral */\n      dup4\n        /* \"submissions/Zora/Day29SimpleStableCoin.sol\":3247:3301  Minted(msg.sender, amount, adjustedRequiredCollateral) */\n      mload(0x40)\n      tag_259\n      swap3\n      swap2\n      swap1\n      tag_260\n      jump\t// in\n    tag_259:\n      mload(0x40)\n      dup1\n      swap2\n      sub\n      swap1\n      log2\n        /* \"submissions/Zora/Day29SimpleStableCoin.sol\":2630:3309  {... */\n      pop\n      pop\n      pop\n      pop\n        /* \"@openzeppelin/contracts/security/ReentrancyGuard.sol\":2303:2323  _nonReentrantAfter() */\n      tag_261\n        /* \"@openzeppelin/contracts/security/ReentrancyGuard.sol\":2303:2321  _nonReentrantAfter */\n      tag_262\n        /* \"@openzeppelin/contracts/security/ReentrancyGuard.sol\":2303:2323  _nonReentrantAfter() */\n      jump\t// in\n    tag_261:\n        /* \"submissions/Zora/Day29SimpleStableCoin.sol\":2578:3309  function mint(uint256 amount) external nonReentrant {... */\n      pop\n      jump\t// out\n        /* \"@openzeppelin/contracts/access/AccessControl.sol\":2196:2245  bytes32 public constant DEFAULT_ADMIN_ROLE = 0x00 */\n    tag_116:\n        /* \"@openzeppelin/contracts/access/AccessControl.sol\":2241:2245  0x00 */\n      0x00\n        /* \"@openzeppelin/contracts/access/AccessControl.sol\":2196:2245  bytes32 public constant DEFAULT_ADMIN_ROLE = 0x00 */\n      0x00\n      shl\n      dup2\n      jump\t// out\n        /* \"submissions/Zora/Day29SimpleStableCoin.sol\":705:791  bytes32 public constant PRICE_FEED_MANAGER_ROLE = keccak256(\"PRICE_FEED_MANAGER_ROLE\") */\n    tag_119:\n        /* \"submissions/Zora/Day29SimpleStableCoin.sol\":755:791  keccak256(\"PRICE_FEED_MANAGER_ROLE\") */\n      0xd83007455b073bdf2abc6e8b18ce2847f802b368f0ad3a285cbb1773ec2f4c83\n        /* \"submissions/Zora/Day29SimpleStableCoin.sol\":705:791  bytes32 public constant PRICE_FEED_MANAGER_ROLE = keccak256(\"PRICE_FEED_MANAGER_ROLE\") */\n      dup2\n      jump\t// out\n        /* \"@openzeppelin/contracts/token/ERC20/ERC20.sol\":3244:3422  function transfer(address to, uint256 value) public virtual returns (bool) {... */\n    tag_123:\n        /* \"@openzeppelin/contracts/token/ERC20/ERC20.sol\":3313:3317  bool */\n      0x00\n        /* \"@openzeppelin/contracts/token/ERC20/ERC20.sol\":3329:3342  address owner */\n      0x00\n        /* \"@openzeppelin/contracts/token/ERC20/ERC20.sol\":3345:3357  _msgSender() */\n      tag_264\n        /* \"@openzeppelin/contracts/token/ERC20/ERC20.sol\":3345:3355  _msgSender */\n      tag_172\n        /* \"@openzeppelin/contracts/token/ERC20/ERC20.sol\":3345:3357  _msgSender() */\n      jump\t// in\n    tag_264:\n        /* \"@openzeppelin/contracts/token/ERC20/ERC20.sol\":3329:3357  address owner = _msgSender() */\n      swap1\n      pop\n        /* \"@openzeppelin/contracts/token/ERC20/ERC20.sol\":3367:3394  _transfer(owner, to, value) */\n      tag_265\n        /* \"@openzeppelin/contracts/token/ERC20/ERC20.sol\":3377:3382  owner */\n      dup2\n        /* \"@openzeppelin/contracts/token/ERC20/ERC20.sol\":3384:3386  to */\n      dup6\n        /* \"@openzeppelin/contracts/token/ERC20/ERC20.sol\":3388:3393  value */\n      dup6\n        /* \"@openzeppelin/contracts/token/ERC20/ERC20.sol\":3367:3376  _transfer */\n      tag_201\n        /* \"@openzeppelin/contracts/token/ERC20/ERC20.sol\":3367:3394  _transfer(owner, to, value) */\n      jump\t// in\n    tag_265:\n        /* \"@openzeppelin/contracts/token/ERC20/ERC20.sol\":3411:3415  true */\n      0x01\n        /* \"@openzeppelin/contracts/token/ERC20/ERC20.sol\":3404:3415  return true */\n      swap2\n      pop\n      pop\n        /* \"@openzeppelin/contracts/token/ERC20/ERC20.sol\":3244:3422  function transfer(address to, uint256 value) public virtual returns (bool) {... */\n      swap3\n      swap2\n      pop\n      pop\n      jump\t// out\n        /* \"submissions/Zora/Day29SimpleStableCoin.sol\":798:837  IERC20 public immutable collateralToken */\n    tag_126:\n      immutable(\"0x9543fe5a6239e32684922aa0a48bd87e6d4457ec5a0d7447af143143e6ab42c8\")\n      dup2\n      jump\t// out\n        /* \"submissions/Zora/Day29SimpleStableCoin.sol\":5326:5856  function getCollateralForRedeem(uint256 amount) public view returns (uint256) {... */\n    tag_131:\n        /* \"submissions/Zora/Day29SimpleStableCoin.sol\":5395:5402  uint256 */\n      0x00\n        /* \"submissions/Zora/Day29SimpleStableCoin.sol\":5429:5430  0 */\n      0x00\n        /* \"submissions/Zora/Day29SimpleStableCoin.sol\":5419:5425  amount */\n      dup3\n        /* \"submissions/Zora/Day29SimpleStableCoin.sol\":5419:5430  amount == 0 */\n      sub\n        /* \"submissions/Zora/Day29SimpleStableCoin.sol\":5415:5440  if (amount == 0) return 0 */\n      tag_267\n      jumpi\n        /* \"submissions/Zora/Day29SimpleStableCoin.sol\":5439:5440  0 */\n      0x00\n        /* \"submissions/Zora/Day29SimpleStableCoin.sol\":5432:5440  return 0 */\n      swap1\n      pop\n      jump(tag_266)\n        /* \"submissions/Zora/Day29SimpleStableCoin.sol\":5415:5440  if (amount == 0) return 0 */\n    tag_267:\n        /* \"submissions/Zora/Day29SimpleStableCoin.sol\":5453:5476  uint256 collateralPrice */\n      0x00\n        /* \"submissions/Zora/Day29SimpleStableCoin.sol\":5479:5496  getCurrentPrice() */\n      tag_268\n        /* \"submissions/Zora/Day29SimpleStableCoin.sol\":5479:5494  getCurrentPrice */\n      tag_151\n        /* \"submissions/Zora/Day29SimpleStableCoin.sol\":5479:5496  getCurrentPrice() */\n      jump\t// in\n    tag_268:\n        /* \"submissions/Zora/Day29SimpleStableCoin.sol\":5453:5496  uint256 collateralPrice = getCurrentPrice() */\n      swap1\n      pop\n        /* \"submissions/Zora/Day29SimpleStableCoin.sol\":5507:5533  uint256 stablecoinValueUSD */\n      0x00\n        /* \"submissions/Zora/Day29SimpleStableCoin.sol\":5552:5562  decimals() */\n      tag_269\n        /* \"submissions/Zora/Day29SimpleStableCoin.sol\":5552:5560  decimals */\n      tag_81\n        /* \"submissions/Zora/Day29SimpleStableCoin.sol\":5552:5562  decimals() */\n      jump\t// in\n    tag_269:\n        /* \"submissions/Zora/Day29SimpleStableCoin.sol\":5546:5548  10 */\n      0x0a\n        /* \"submissions/Zora/Day29SimpleStableCoin.sol\":5546:5562  10 ** decimals() */\n      tag_270\n      swap2\n      swap1\n      tag_181\n      jump\t// in\n    tag_270:\n        /* \"submissions/Zora/Day29SimpleStableCoin.sol\":5536:5542  amount */\n      dup5\n        /* \"submissions/Zora/Day29SimpleStableCoin.sol\":5536:5563  amount * (10 ** decimals()) */\n      tag_271\n      swap2\n      swap1\n      tag_183\n      jump\t// in\n    tag_271:\n        /* \"submissions/Zora/Day29SimpleStableCoin.sol\":5507:5563  uint256 stablecoinValueUSD = amount * (10 ** decimals()) */\n      swap1\n      pop\n        /* \"submissions/Zora/Day29SimpleStableCoin.sol\":5574:5600  uint256 collateralToReturn */\n      0x00\n        /* \"submissions/Zora/Day29SimpleStableCoin.sol\":5658:5673  collateralPrice */\n      dup3\n        /* \"submissions/Zora/Day29SimpleStableCoin.sol\":5633:5655  collateralizationRatio */\n      sload(0x09)\n        /* \"submissions/Zora/Day29SimpleStableCoin.sol\":5633:5673  collateralizationRatio * collateralPrice */\n      tag_272\n      swap2\n      swap1\n      tag_183\n      jump\t// in\n    tag_272:\n        /* \"submissions/Zora/Day29SimpleStableCoin.sol\":5625:5628  100 */\n      0x64\n        /* \"submissions/Zora/Day29SimpleStableCoin.sol\":5604:5622  stablecoinValueUSD */\n      dup4\n        /* \"submissions/Zora/Day29SimpleStableCoin.sol\":5604:5628  stablecoinValueUSD * 100 */\n      tag_273\n      swap2\n      swap1\n      tag_183\n      jump\t// in\n    tag_273:\n        /* \"submissions/Zora/Day29SimpleStableCoin.sol\":5603:5674  (stablecoinValueUSD * 100) / (collateralizationRatio * collateralPrice) */\n      tag_274\n      swap2\n      swap1\n      tag_187\n      jump\t// in\n    tag_274:\n        /* \"submissions/Zora/Day29SimpleStableCoin.sol\":5574:5674  uint256 collateralToReturn = (stablecoinValueUSD * 100) / (collateralizationRatio * collateralPrice) */\n      swap1\n      pop\n        /* \"submissions/Zora/Day29SimpleStableCoin.sol\":5685:5719  uint256 adjustedCollateralToReturn */\n      0x00\n        /* \"submissions/Zora/Day29SimpleStableCoin.sol\":5781:5790  priceFeed */\n      0x08\n      0x00\n      swap1\n      sload\n      swap1\n      0x0100\n      exp\n      swap1\n      div\n      0xffffffffffffffffffffffffffffffffffffffff\n      and\n        /* \"submissions/Zora/Day29SimpleStableCoin.sol\":5781:5799  priceFeed.decimals */\n      0xffffffffffffffffffffffffffffffffffffffff\n      and\n      0x313ce567\n        /* \"submissions/Zora/Day29SimpleStableCoin.sol\":5781:5801  priceFeed.decimals() */\n      mload(0x40)\n      dup2\n      0xffffffff\n      and\n      0xe0\n      shl\n      dup2\n      mstore\n      0x04\n      add\n      0x20\n      mload(0x40)\n      dup1\n      dup4\n      sub\n      dup2\n      dup7\n      gas\n      staticcall\n      iszero\n      dup1\n      iszero\n      tag_276\n      jumpi\n      returndatacopy(0x00, 0x00, returndatasize)\n      revert(0x00, returndatasize)\n    tag_276:\n      pop\n      pop\n      pop\n      pop\n      mload(0x40)\n      returndatasize\n      not(0x1f)\n      0x1f\n      dup3\n      add\n      and\n      dup3\n      add\n      dup1\n      0x40\n      mstore\n      pop\n      dup2\n      add\n      swap1\n      tag_277\n      swap2\n      swap1\n      tag_191\n      jump\t// in\n    tag_277:\n        /* \"submissions/Zora/Day29SimpleStableCoin.sol\":5775:5777  10 */\n      0x0a\n        /* \"submissions/Zora/Day29SimpleStableCoin.sol\":5775:5801  10 ** priceFeed.decimals() */\n      tag_278\n      swap2\n      swap1\n      tag_181\n      jump\t// in\n    tag_278:\n        /* \"submissions/Zora/Day29SimpleStableCoin.sol\":5751:5769  collateralDecimals */\n      immutable(\"0xe2a8882ee862f6a771426dccf1ec2eb46d23eac127aae1c0e2e4e912e27014b9\")\n        /* \"submissions/Zora/Day29SimpleStableCoin.sol\":5745:5747  10 */\n      0x0a\n        /* \"submissions/Zora/Day29SimpleStableCoin.sol\":5745:5769  10 ** collateralDecimals */\n      tag_279\n      swap2\n      swap1\n      tag_181\n      jump\t// in\n    tag_279:\n        /* \"submissions/Zora/Day29SimpleStableCoin.sol\":5723:5741  collateralToReturn */\n      dup4\n        /* \"submissions/Zora/Day29SimpleStableCoin.sol\":5723:5770  collateralToReturn * (10 ** collateralDecimals) */\n      tag_280\n      swap2\n      swap1\n      tag_183\n      jump\t// in\n    tag_280:\n        /* \"submissions/Zora/Day29SimpleStableCoin.sol\":5722:5802  (collateralToReturn * (10 ** collateralDecimals)) / (10 ** priceFeed.decimals()) */\n      tag_281\n      swap2\n      swap1\n      tag_187\n      jump\t// in\n    tag_281:\n        /* \"submissions/Zora/Day29SimpleStableCoin.sol\":5685:5802  uint256 adjustedCollateralToReturn = (collateralToReturn * (10 ** collateralDecimals)) / (10 ** priceFeed.decimals()) */\n      swap1\n      pop\n        /* \"submissions/Zora/Day29SimpleStableCoin.sol\":5822:5848  adjustedCollateralToReturn */\n      dup1\n        /* \"submissions/Zora/Day29SimpleStableCoin.sol\":5815:5848  return adjustedCollateralToReturn */\n      swap5\n      pop\n      pop\n      pop\n      pop\n      pop\n        /* \"submissions/Zora/Day29SimpleStableCoin.sol\":5326:5856  function getCollateralForRedeem(uint256 amount) public view returns (uint256) {... */\n    tag_266:\n      swap2\n      swap1\n      pop\n      jump\t// out\n        /* \"@openzeppelin/contracts/access/AccessControl.sol\":4618:4756  function revokeRole(bytes32 role, address account) public virtual onlyRole(getRoleAdmin(role)) {... */\n    tag_135:\n        /* \"@openzeppelin/contracts/access/AccessControl.sol\":4693:4711  getRoleAdmin(role) */\n      tag_282\n        /* \"@openzeppelin/contracts/access/AccessControl.sol\":4706:4710  role */\n      dup3\n        /* \"@openzeppelin/contracts/access/AccessControl.sol\":4693:4705  getRoleAdmin */\n      tag_73\n        /* \"@openzeppelin/contracts/access/AccessControl.sol\":4693:4711  getRoleAdmin(role) */\n      jump\t// in\n    tag_282:\n        /* \"@openzeppelin/contracts/access/AccessControl.sol\":2473:2489  _checkRole(role) */\n      tag_284\n        /* \"@openzeppelin/contracts/access/AccessControl.sol\":2484:2488  role */\n      dup2\n        /* \"@openzeppelin/contracts/access/AccessControl.sol\":2473:2483  _checkRole */\n      tag_206\n        /* \"@openzeppelin/contracts/access/AccessControl.sol\":2473:2489  _checkRole(role) */\n      jump\t// in\n    tag_284:\n        /* \"@openzeppelin/contracts/access/AccessControl.sol\":4723:4749  _revokeRole(role, account) */\n      tag_286\n        /* \"@openzeppelin/contracts/access/AccessControl.sol\":4735:4739  role */\n      dup4\n        /* \"@openzeppelin/contracts/access/AccessControl.sol\":4741:4748  account */\n      dup4\n        /* \"@openzeppelin/contracts/access/AccessControl.sol\":4723:4734  _revokeRole */\n      tag_215\n        /* \"@openzeppelin/contracts/access/AccessControl.sol\":4723:4749  _revokeRole(role, account) */\n      jump\t// in\n    tag_286:\n      pop\n        /* \"@openzeppelin/contracts/access/AccessControl.sol\":4618:4756  function revokeRole(bytes32 role, address account) public virtual onlyRole(getRoleAdmin(role)) {... */\n      pop\n      pop\n      pop\n      jump\t// out\n        /* \"submissions/Zora/Day29SimpleStableCoin.sol\":3340:4093  function redeem(uint256 amount) external nonReentrant {... */\n    tag_138:\n        /* \"@openzeppelin/contracts/security/ReentrancyGuard.sol\":2261:2282  _nonReentrantBefore() */\n      tag_288\n        /* \"@openzeppelin/contracts/security/ReentrancyGuard.sol\":2261:2280  _nonReentrantBefore */\n      tag_238\n        /* \"@openzeppelin/contracts/security/ReentrancyGuard.sol\":2261:2282  _nonReentrantBefore() */\n      jump\t// in\n    tag_288:\n        /* \"submissions/Zora/Day29SimpleStableCoin.sol\":3419:3420  0 */\n      0x00\n        /* \"submissions/Zora/Day29SimpleStableCoin.sol\":3409:3415  amount */\n      dup2\n        /* \"submissions/Zora/Day29SimpleStableCoin.sol\":3409:3420  amount == 0 */\n      sub\n        /* \"submissions/Zora/Day29SimpleStableCoin.sol\":3405:3447  if (amount == 0) revert MintAmountIsZero() */\n      tag_290\n      jumpi\n        /* \"submissions/Zora/Day29SimpleStableCoin.sol\":3429:3447  MintAmountIsZero() */\n      mload(0x40)\n      0x7a5f358c00000000000000000000000000000000000000000000000000000000\n      dup2\n      mstore\n      0x04\n      add\n      mload(0x40)\n      dup1\n      swap2\n      sub\n      swap1\n      revert\n        /* \"submissions/Zora/Day29SimpleStableCoin.sol\":3405:3447  if (amount == 0) revert MintAmountIsZero() */\n    tag_290:\n        /* \"submissions/Zora/Day29SimpleStableCoin.sol\":3486:3492  amount */\n      dup1\n        /* \"submissions/Zora/Day29SimpleStableCoin.sol\":3462:3483  balanceOf(msg.sender) */\n      tag_291\n        /* \"submissions/Zora/Day29SimpleStableCoin.sol\":3472:3482  msg.sender */\n      caller\n        /* \"submissions/Zora/Day29SimpleStableCoin.sol\":3462:3471  balanceOf */\n      tag_90\n        /* \"submissions/Zora/Day29SimpleStableCoin.sol\":3462:3483  balanceOf(msg.sender) */\n      jump\t// in\n    tag_291:\n        /* \"submissions/Zora/Day29SimpleStableCoin.sol\":3462:3492  balanceOf(msg.sender) < amount */\n      lt\n        /* \"submissions/Zora/Day29SimpleStableCoin.sol\":3458:3532  if (balanceOf(msg.sender) < amount) revert InsufficientStablecoinBalance() */\n      iszero\n      tag_292\n      jumpi\n        /* \"submissions/Zora/Day29SimpleStableCoin.sol\":3501:3532  InsufficientStablecoinBalance() */\n      mload(0x40)\n      0x30de15db00000000000000000000000000000000000000000000000000000000\n      dup2\n      mstore\n      0x04\n      add\n      mload(0x40)\n      dup1\n      swap2\n      sub\n      swap1\n      revert\n        /* \"submissions/Zora/Day29SimpleStableCoin.sol\":3458:3532  if (balanceOf(msg.sender) < amount) revert InsufficientStablecoinBalance() */\n    tag_292:\n        /* \"submissions/Zora/Day29SimpleStableCoin.sol\":3545:3568  uint256 collateralPrice */\n      0x00\n        /* \"submissions/Zora/Day29SimpleStableCoin.sol\":3571:3588  getCurrentPrice() */\n      tag_293\n        /* \"submissions/Zora/Day29SimpleStableCoin.sol\":3571:3586  getCurrentPrice */\n      tag_151\n        /* \"submissions/Zora/Day29SimpleStableCoin.sol\":3571:3588  getCurrentPrice() */\n      jump\t// in\n    tag_293:\n        /* \"submissions/Zora/Day29SimpleStableCoin.sol\":3545:3588  uint256 collateralPrice = getCurrentPrice() */\n      swap1\n      pop\n        /* \"submissions/Zora/Day29SimpleStableCoin.sol\":3599:3625  uint256 stablecoinValueUSD */\n      0x00\n        /* \"submissions/Zora/Day29SimpleStableCoin.sol\":3644:3654  decimals() */\n      tag_294\n        /* \"submissions/Zora/Day29SimpleStableCoin.sol\":3644:3652  decimals */\n      tag_81\n        /* \"submissions/Zora/Day29SimpleStableCoin.sol\":3644:3654  decimals() */\n      jump\t// in\n    tag_294:\n        /* \"submissions/Zora/Day29SimpleStableCoin.sol\":3638:3640  10 */\n      0x0a\n        /* \"submissions/Zora/Day29SimpleStableCoin.sol\":3638:3654  10 ** decimals() */\n      tag_295\n      swap2\n      swap1\n      tag_181\n      jump\t// in\n    tag_295:\n        /* \"submissions/Zora/Day29SimpleStableCoin.sol\":3628:3634  amount */\n      dup4\n        /* \"submissions/Zora/Day29SimpleStableCoin.sol\":3628:3655  amount * (10 ** decimals()) */\n      tag_296\n      swap2\n      swap1\n      tag_183\n      jump\t// in\n    tag_296:\n        /* \"submissions/Zora/Day29SimpleStableCoin.sol\":3599:3655  uint256 stablecoinValueUSD = amount * (10 ** decimals()) */\n      swap1\n      pop\n        /* \"submissions/Zora/Day29SimpleStableCoin.sol\":3666:3692  uint256 collateralToReturn */\n      0x00\n        /* \"submissions/Zora/Day29SimpleStableCoin.sol\":3750:3765  collateralPrice */\n      dup3\n        /* \"submissions/Zora/Day29SimpleStableCoin.sol\":3725:3747  collateralizationRatio */\n      sload(0x09)\n        /* \"submissions/Zora/Day29SimpleStableCoin.sol\":3725:3765  collateralizationRatio * collateralPrice */\n      tag_297\n      swap2\n      swap1\n      tag_183\n      jump\t// in\n    tag_297:\n        /* \"submissions/Zora/Day29SimpleStableCoin.sol\":3717:3720  100 */\n      0x64\n        /* \"submissions/Zora/Day29SimpleStableCoin.sol\":3696:3714  stablecoinValueUSD */\n      dup4\n        /* \"submissions/Zora/Day29SimpleStableCoin.sol\":3696:3720  stablecoinValueUSD * 100 */\n      tag_298\n      swap2\n      swap1\n      tag_183\n      jump\t// in\n    tag_298:\n        /* \"submissions/Zora/Day29SimpleStableCoin.sol\":3695:3766  (stablecoinValueUSD * 100) / (collateralizationRatio * collateralPrice) */\n      tag_299\n      swap2\n      swap1\n      tag_187\n      jump\t// in\n    tag_299:\n        /* \"submissions/Zora/Day29SimpleStableCoin.sol\":3666:3766  uint256 collateralToReturn = (stablecoinValueUSD * 100) / (collateralizationRatio * collateralPrice) */\n      swap1\n      pop\n        /* \"submissions/Zora/Day29SimpleStableCoin.sol\":3777:3811  uint256 adjustedCollateralToReturn */\n      0x00\n        /* \"submissions/Zora/Day29SimpleStableCoin.sol\":3873:3882  priceFeed */\n      0x08\n      0x00\n      swap1\n      sload\n      swap1\n      0x0100\n      exp\n      swap1\n      div\n      0xffffffffffffffffffffffffffffffffffffffff\n      and\n        /* \"submissions/Zora/Day29SimpleStableCoin.sol\":3873:3891  priceFeed.decimals */\n      0xffffffffffffffffffffffffffffffffffffffff\n      and\n      0x313ce567\n        /* \"submissions/Zora/Day29SimpleStableCoin.sol\":3873:3893  priceFeed.decimals() */\n      mload(0x40)\n      dup2\n      0xffffffff\n      and\n      0xe0\n      shl\n      dup2\n      mstore\n      0x04\n      add\n      0x20\n      mload(0x40)\n      dup1\n      dup4\n      sub\n      dup2\n      dup7\n      gas\n      staticcall\n      iszero\n      dup1\n      iszero\n      tag_301\n      jumpi\n      returndatacopy(0x00, 0x00, returndatasize)\n      revert(0x00, returndatasize)\n    tag_301:\n      pop\n      pop\n      pop\n      pop\n      mload(0x40)\n      returndatasize\n      not(0x1f)\n      0x1f\n      dup3\n      add\n      and\n      dup3\n      add\n      dup1\n      0x40\n      mstore\n      pop\n      dup2\n      add\n      swap1\n      tag_302\n      swap2\n      swap1\n      tag_191\n      jump\t// in\n    tag_302:\n        /* \"submissions/Zora/Day29SimpleStableCoin.sol\":3867:3869  10 */\n      0x0a\n        /* \"submissions/Zora/Day29SimpleStableCoin.sol\":3867:3893  10 ** priceFeed.decimals() */\n      tag_303\n      swap2\n      swap1\n      tag_181\n      jump\t// in\n    tag_303:\n        /* \"submissions/Zora/Day29SimpleStableCoin.sol\":3843:3861  collateralDecimals */\n      immutable(\"0xe2a8882ee862f6a771426dccf1ec2eb46d23eac127aae1c0e2e4e912e27014b9\")\n        /* \"submissions/Zora/Day29SimpleStableCoin.sol\":3837:3839  10 */\n      0x0a\n        /* \"submissions/Zora/Day29SimpleStableCoin.sol\":3837:3861  10 ** collateralDecimals */\n      tag_304\n      swap2\n      swap1\n      tag_181\n      jump\t// in\n    tag_304:\n        /* \"submissions/Zora/Day29SimpleStableCoin.sol\":3815:3833  collateralToReturn */\n      dup4\n        /* \"submissions/Zora/Day29SimpleStableCoin.sol\":3815:3862  collateralToReturn * (10 ** collateralDecimals) */\n      tag_305\n      swap2\n      swap1\n      tag_183\n      jump\t// in\n    tag_305:\n        /* \"submissions/Zora/Day29SimpleStableCoin.sol\":3814:3894  (collateralToReturn * (10 ** collateralDecimals)) / (10 ** priceFeed.decimals()) */\n      tag_306\n      swap2\n      swap1\n      tag_187\n      jump\t// in\n    tag_306:\n        /* \"submissions/Zora/Day29SimpleStableCoin.sol\":3777:3894  uint256 adjustedCollateralToReturn = (collateralToReturn * (10 ** collateralDecimals)) / (10 ** priceFeed.decimals()) */\n      swap1\n      pop\n        /* \"submissions/Zora/Day29SimpleStableCoin.sol\":3907:3932  _burn(msg.sender, amount) */\n      tag_307\n        /* \"submissions/Zora/Day29SimpleStableCoin.sol\":3913:3923  msg.sender */\n      caller\n        /* \"submissions/Zora/Day29SimpleStableCoin.sol\":3925:3931  amount */\n      dup7\n        /* \"submissions/Zora/Day29SimpleStableCoin.sol\":3907:3912  _burn */\n      tag_308\n        /* \"submissions/Zora/Day29SimpleStableCoin.sol\":3907:3932  _burn(msg.sender, amount) */\n      jump\t// in\n    tag_307:\n        /* \"submissions/Zora/Day29SimpleStableCoin.sol\":3943:4011  collateralToken.safeTransfer(msg.sender, adjustedCollateralToReturn) */\n      tag_309\n        /* \"submissions/Zora/Day29SimpleStableCoin.sol\":3972:3982  msg.sender */\n      caller\n        /* \"submissions/Zora/Day29SimpleStableCoin.sol\":3984:4010  adjustedCollateralToReturn */\n      dup3\n        /* \"submissions/Zora/Day29SimpleStableCoin.sol\":3943:3958  collateralToken */\n      immutable(\"0x9543fe5a6239e32684922aa0a48bd87e6d4457ec5a0d7447af143143e6ab42c8\")\n        /* \"submissions/Zora/Day29SimpleStableCoin.sol\":3943:3971  collateralToken.safeTransfer */\n      0xffffffffffffffffffffffffffffffffffffffff\n      and\n      tag_310\n      swap1\n        /* \"submissions/Zora/Day29SimpleStableCoin.sol\":3943:4011  collateralToken.safeTransfer(msg.sender, adjustedCollateralToReturn) */\n      swap3\n      swap2\n      swap1\n      0xffffffff\n      and\n      jump\t// in\n    tag_309:\n        /* \"submissions/Zora/Day29SimpleStableCoin.sol\":4038:4048  msg.sender */\n      caller\n        /* \"submissions/Zora/Day29SimpleStableCoin.sol\":4029:4085  Redeemed(msg.sender, amount, adjustedCollateralToReturn) */\n      0xffffffffffffffffffffffffffffffffffffffff\n      and\n      0xf3a670cd3af7d64b488926880889d08a8585a138ff455227af6737339a1ec262\n        /* \"submissions/Zora/Day29SimpleStableCoin.sol\":4050:4056  amount */\n      dup7\n        /* \"submissions/Zora/Day29SimpleStableCoin.sol\":4058:4084  adjustedCollateralToReturn */\n      dup4\n        /* \"submissions/Zora/Day29SimpleStableCoin.sol\":4029:4085  Redeemed(msg.sender, amount, adjustedCollateralToReturn) */\n      mload(0x40)\n      tag_311\n      swap3\n      swap2\n      swap1\n      tag_260\n      jump\t// in\n    tag_311:\n      mload(0x40)\n      dup1\n      swap2\n      sub\n      swap1\n      log2\n        /* \"submissions/Zora/Day29SimpleStableCoin.sol\":3394:4093  {... */\n      pop\n      pop\n      pop\n      pop\n        /* \"@openzeppelin/contracts/security/ReentrancyGuard.sol\":2303:2323  _nonReentrantAfter() */\n      tag_312\n        /* \"@openzeppelin/contracts/security/ReentrancyGuard.sol\":2303:2321  _nonReentrantAfter */\n      tag_262\n        /* \"@openzeppelin/contracts/security/ReentrancyGuard.sol\":2303:2323  _nonReentrantAfter() */\n      jump\t// in\n    tag_312:\n        /* \"submissions/Zora/Day29SimpleStableCoin.sol\":3340:4093  function redeem(uint256 amount) external nonReentrant {... */\n      pop\n      jump\t// out\n        /* \"submissions/Zora/Day29SimpleStableCoin.sol\":937:980  uint256 public collateralizationRatio = 150 */\n    tag_140:\n      sload(0x09)\n      dup2\n      jump\t// out\n        /* \"@openzeppelin/contracts/token/ERC20/ERC20.sol\":3455:3595  function allowance(address owner, address spender) public view virtual returns (uint256) {... */\n    tag_145:\n        /* \"@openzeppelin/contracts/token/ERC20/ERC20.sol\":3535:3542  uint256 */\n      0x00\n        /* \"@openzeppelin/contracts/token/ERC20/ERC20.sol\":3561:3572  _allowances */\n      0x01\n        /* \"@openzeppelin/contracts/token/ERC20/ERC20.sol\":3561:3579  _allowances[owner] */\n      0x00\n        /* \"@openzeppelin/contracts/token/ERC20/ERC20.sol\":3573:3578  owner */\n      dup5\n        /* \"@openzeppelin/contracts/token/ERC20/ERC20.sol\":3561:3579  _allowances[owner] */\n      0xffffffffffffffffffffffffffffffffffffffff\n      and\n      0xffffffffffffffffffffffffffffffffffffffff\n      and\n      dup2\n      mstore\n      0x20\n      add\n      swap1\n      dup2\n      mstore\n      0x20\n      add\n      0x00\n      keccak256\n        /* \"@openzeppelin/contracts/token/ERC20/ERC20.sol\":3561:3588  _allowances[owner][spender] */\n      0x00\n        /* \"@openzeppelin/contracts/token/ERC20/ERC20.sol\":3580:3587  spender */\n      dup4\n        /* \"@openzeppelin/contracts/token/ERC20/ERC20.sol\":3561:3588  _allowances[owner][spender] */\n      0xffffffffffffffffffffffffffffffffffffffff\n      and\n      0xffffffffffffffffffffffffffffffffffffffff\n      and\n      dup2\n      mstore\n      0x20\n      add\n      swap1\n      dup2\n      mstore\n      0x20\n      add\n      0x00\n      keccak256\n      sload\n        /* \"@openzeppelin/contracts/token/ERC20/ERC20.sol\":3554:3588  return _allowances[owner][spender] */\n      swap1\n      pop\n        /* \"@openzeppelin/contracts/token/ERC20/ERC20.sol\":3455:3595  function allowance(address owner, address spender) public view virtual returns (uint256) {... */\n      swap3\n      swap2\n      pop\n      pop\n      jump\t// out\n        /* \"submissions/Zora/Day29SimpleStableCoin.sol\":4124:4371  function setCollateralizationRatio(uint256 newRatio) external onlyOwner {... */\n    tag_149:\n        /* \"@openzeppelin/contracts/access/Ownable.sol\":1531:1544  _checkOwner() */\n      tag_315\n        /* \"@openzeppelin/contracts/access/Ownable.sol\":1531:1542  _checkOwner */\n      tag_219\n        /* \"@openzeppelin/contracts/access/Ownable.sol\":1531:1544  _checkOwner() */\n      jump\t// in\n    tag_315:\n        /* \"submissions/Zora/Day29SimpleStableCoin.sol\":4222:4225  100 */\n      0x64\n        /* \"submissions/Zora/Day29SimpleStableCoin.sol\":4211:4219  newRatio */\n      dup2\n        /* \"submissions/Zora/Day29SimpleStableCoin.sol\":4211:4225  newRatio < 100 */\n      lt\n        /* \"submissions/Zora/Day29SimpleStableCoin.sol\":4207:4264  if (newRatio < 100) revert CollateralizationRatioTooLow() */\n      iszero\n      tag_317\n      jumpi\n        /* \"submissions/Zora/Day29SimpleStableCoin.sol\":4234:4264  CollateralizationRatioTooLow() */\n      mload(0x40)\n      0x33efa14600000000000000000000000000000000000000000000000000000000\n      dup2\n      mstore\n      0x04\n      add\n      mload(0x40)\n      dup1\n      swap2\n      sub\n      swap1\n      revert\n        /* \"submissions/Zora/Day29SimpleStableCoin.sol\":4207:4264  if (newRatio < 100) revert CollateralizationRatioTooLow() */\n    tag_317:\n        /* \"submissions/Zora/Day29SimpleStableCoin.sol\":4300:4308  newRatio */\n      dup1\n        /* \"submissions/Zora/Day29SimpleStableCoin.sol\":4275:4297  collateralizationRatio */\n      0x09\n        /* \"submissions/Zora/Day29SimpleStableCoin.sol\":4275:4308  collateralizationRatio = newRatio */\n      dup2\n      swap1\n      sstore\n      pop\n        /* \"submissions/Zora/Day29SimpleStableCoin.sol\":4324:4363  CollateralizationRatioUpdated(newRatio) */\n      0xfb0ebe8c7316e6a251494c38876d13d9a3a029273fce7964c12aa2ce07869530\n        /* \"submissions/Zora/Day29SimpleStableCoin.sol\":4354:4362  newRatio */\n      dup2\n        /* \"submissions/Zora/Day29SimpleStableCoin.sol\":4324:4363  CollateralizationRatioUpdated(newRatio) */\n      mload(0x40)\n      tag_318\n      swap2\n      swap1\n      tag_59\n      jump\t// in\n    tag_318:\n      mload(0x40)\n      dup1\n      swap2\n      sub\n      swap1\n      log1\n        /* \"submissions/Zora/Day29SimpleStableCoin.sol\":4124:4371  function setCollateralizationRatio(uint256 newRatio) external onlyOwner {... */\n      pop\n      jump\t// out\n        /* \"submissions/Zora/Day29SimpleStableCoin.sol\":2327:2547  function getCurrentPrice() public view returns (uint256) {... */\n    tag_151:\n        /* \"submissions/Zora/Day29SimpleStableCoin.sol\":2375:2382  uint256 */\n      0x00\n        /* \"submissions/Zora/Day29SimpleStableCoin.sol\":2398:2410  int256 price */\n      0x00\n        /* \"submissions/Zora/Day29SimpleStableCoin.sol\":2420:2429  priceFeed */\n      0x08\n      0x00\n      swap1\n      sload\n      swap1\n      0x0100\n      exp\n      swap1\n      div\n      0xffffffffffffffffffffffffffffffffffffffff\n      and\n        /* \"submissions/Zora/Day29SimpleStableCoin.sol\":2420:2445  priceFeed.latestRoundData */\n      0xffffffffffffffffffffffffffffffffffffffff\n      and\n      0xfeaf968c\n        /* \"submissions/Zora/Day29SimpleStableCoin.sol\":2420:2447  priceFeed.latestRoundData() */\n      mload(0x40)\n      dup2\n      0xffffffff\n      and\n      0xe0\n      shl\n      dup2\n      mstore\n      0x04\n      add\n      0xa0\n      mload(0x40)\n      dup1\n      dup4\n      sub\n      dup2\n      dup7\n      gas\n      staticcall\n      iszero\n      dup1\n      iszero\n      tag_321\n      jumpi\n      returndatacopy(0x00, 0x00, returndatasize)\n      revert(0x00, returndatasize)\n    tag_321:\n      pop\n      pop\n      pop\n      pop\n      mload(0x40)\n      returndatasize\n      not(0x1f)\n      0x1f\n      dup3\n      add\n      and\n      dup3\n      add\n      dup1\n      0x40\n      mstore\n      pop\n      dup2\n      add\n      swap1\n      tag_322\n      swap2\n      swap1\n      tag_323\n      jump\t// in\n    tag_322:\n        /* \"submissions/Zora/Day29SimpleStableCoin.sol\":2395:2447  (, int256 price, , , ) = priceFeed.latestRoundData() */\n      pop\n      pop\n      pop\n      swap2\n      pop\n      pop\n        /* \"submissions/Zora/Day29SimpleStableCoin.sol\":2474:2475  0 */\n      0x00\n        /* \"submissions/Zora/Day29SimpleStableCoin.sol\":2466:2471  price */\n      dup2\n        /* \"submissions/Zora/Day29SimpleStableCoin.sol\":2466:2475  price > 0 */\n      sgt\n        /* \"submissions/Zora/Day29SimpleStableCoin.sol\":2458:2507  require(price > 0, \"Invalid price feed response\") */\n      tag_324\n      jumpi\n      mload(0x40)\n      0x08c379a000000000000000000000000000000000000000000000000000000000\n      dup2\n      mstore\n      0x04\n      add\n      tag_325\n      swap1\n      tag_326\n      jump\t// in\n    tag_325:\n      mload(0x40)\n      dup1\n      swap2\n      sub\n      swap1\n      revert\n    tag_324:\n        /* \"submissions/Zora/Day29SimpleStableCoin.sol\":2533:2538  price */\n      dup1\n        /* \"submissions/Zora/Day29SimpleStableCoin.sol\":2518:2539  return uint256(price) */\n      swap2\n      pop\n      pop\n        /* \"submissions/Zora/Day29SimpleStableCoin.sol\":2327:2547  function getCurrentPrice() public view returns (uint256) {... */\n      swap1\n      jump\t// out\n        /* \"submissions/Zora/Day29SimpleStableCoin.sol\":844:885  uint8 public immutable collateralDecimals */\n    tag_154:\n      immutable(\"0xe2a8882ee862f6a771426dccf1ec2eb46d23eac127aae1c0e2e4e912e27014b9\")\n      dup2\n      jump\t// out\n        /* \"@openzeppelin/contracts/access/Ownable.sol\":2543:2758  function transferOwnership(address newOwner) public virtual onlyOwner {... */\n    tag_158:\n        /* \"@openzeppelin/contracts/access/Ownable.sol\":1531:1544  _checkOwner() */\n      tag_328\n        /* \"@openzeppelin/contracts/access/Ownable.sol\":1531:1542  _checkOwner */\n      tag_219\n        /* \"@openzeppelin/contracts/access/Ownable.sol\":1531:1544  _checkOwner() */\n      jump\t// in\n    tag_328:\n        /* \"@openzeppelin/contracts/access/Ownable.sol\":2647:2648  0 */\n      0x00\n        /* \"@openzeppelin/contracts/access/Ownable.sol\":2627:2649  newOwner == address(0) */\n      0xffffffffffffffffffffffffffffffffffffffff\n      and\n        /* \"@openzeppelin/contracts/access/Ownable.sol\":2627:2635  newOwner */\n      dup2\n        /* \"@openzeppelin/contracts/access/Ownable.sol\":2627:2649  newOwner == address(0) */\n      0xffffffffffffffffffffffffffffffffffffffff\n      and\n      sub\n        /* \"@openzeppelin/contracts/access/Ownable.sol\":2623:2714  if (newOwner == address(0)) {... */\n      tag_330\n      jumpi\n        /* \"@openzeppelin/contracts/access/Ownable.sol\":2700:2701  0 */\n      0x00\n        /* \"@openzeppelin/contracts/access/Ownable.sol\":2672:2703  OwnableInvalidOwner(address(0)) */\n      mload(0x40)\n      0x1e4fbdf700000000000000000000000000000000000000000000000000000000\n      dup2\n      mstore\n      0x04\n      add\n      tag_331\n      swap2\n      swap1\n      tag_104\n      jump\t// in\n    tag_331:\n      mload(0x40)\n      dup1\n      swap2\n      sub\n      swap1\n      revert\n        /* \"@openzeppelin/contracts/access/Ownable.sol\":2623:2714  if (newOwner == address(0)) {... */\n    tag_330:\n        /* \"@openzeppelin/contracts/access/Ownable.sol\":2723:2751  _transferOwnership(newOwner) */\n      tag_332\n        /* \"@openzeppelin/contracts/access/Ownable.sol\":2742:2750  newOwner */\n      dup2\n        /* \"@openzeppelin/contracts/access/Ownable.sol\":2723:2741  _transferOwnership */\n      tag_222\n        /* \"@openzeppelin/contracts/access/Ownable.sol\":2723:2751  _transferOwnership(newOwner) */\n      jump\t// in\n    tag_332:\n        /* \"@openzeppelin/contracts/access/Ownable.sol\":2543:2758  function transferOwnership(address newOwner) public virtual onlyOwner {... */\n      pop\n      jump\t// out\n        /* \"@openzeppelin/contracts/utils/introspection/ERC165.sol\":730:876  function supportsInterface(bytes4 interfaceId) public view virtual returns (bool) {... */\n    tag_162:\n        /* \"@openzeppelin/contracts/utils/introspection/ERC165.sol\":806:810  bool */\n      0x00\n        /* \"@openzeppelin/contracts/utils/introspection/ERC165.sol\":844:869  type(IERC165).interfaceId */\n      0x01ffc9a700000000000000000000000000000000000000000000000000000000\n        /* \"@openzeppelin/contracts/utils/introspection/ERC165.sol\":829:869  interfaceId == type(IERC165).interfaceId */\n      not(0xffffffffffffffffffffffffffffffffffffffffffffffffffffffff)\n      and\n        /* \"@openzeppelin/contracts/utils/introspection/ERC165.sol\":829:840  interfaceId */\n      dup3\n        /* \"@openzeppelin/contracts/utils/introspection/ERC165.sol\":829:869  interfaceId == type(IERC165).interfaceId */\n      not(0xffffffffffffffffffffffffffffffffffffffffffffffffffffffff)\n      and\n      eq\n        /* \"@openzeppelin/contracts/utils/introspection/ERC165.sol\":822:869  return interfaceId == type(IERC165).interfaceId */\n      swap1\n      pop\n        /* \"@openzeppelin/contracts/utils/introspection/ERC165.sol\":730:876  function supportsInterface(bytes4 interfaceId) public view virtual returns (bool) {... */\n      swap2\n      swap1\n      pop\n      jump\t// out\n        /* \"@openzeppelin/contracts/utils/Context.sol\":656:752  function _msgSender() internal view virtual returns (address) {... */\n    tag_172:\n        /* \"@openzeppelin/contracts/utils/Context.sol\":709:716  address */\n      0x00\n        /* \"@openzeppelin/contracts/utils/Context.sol\":735:745  msg.sender */\n      caller\n        /* \"@openzeppelin/contracts/utils/Context.sol\":728:745  return msg.sender */\n      swap1\n      pop\n        /* \"@openzeppelin/contracts/utils/Context.sol\":656:752  function _msgSender() internal view virtual returns (address) {... */\n      swap1\n      jump\t// out\n        /* \"@openzeppelin/contracts/token/ERC20/ERC20.sol\":8630:8758  function _approve(address owner, address spender, uint256 value) internal {... */\n    tag_174:\n        /* \"@openzeppelin/contracts/token/ERC20/ERC20.sol\":8714:8751  _approve(owner, spender, value, true) */\n      tag_336\n        /* \"@openzeppelin/contracts/token/ERC20/ERC20.sol\":8723:8728  owner */\n      dup4\n        /* \"@openzeppelin/contracts/token/ERC20/ERC20.sol\":8730:8737  spender */\n      dup4\n        /* \"@openzeppelin/contracts/token/ERC20/ERC20.sol\":8739:8744  value */\n      dup4\n        /* \"@openzeppelin/contracts/token/ERC20/ERC20.sol\":8746:8750  true */\n      0x01\n        /* \"@openzeppelin/contracts/token/ERC20/ERC20.sol\":8714:8722  _approve */\n      tag_337\n        /* \"@openzeppelin/contracts/token/ERC20/ERC20.sol\":8714:8751  _approve(owner, spender, value, true) */\n      jump\t// in\n    tag_336:\n        /* \"@openzeppelin/contracts/token/ERC20/ERC20.sol\":8630:8758  function _approve(address owner, address spender, uint256 value) internal {... */\n      pop\n      pop\n      pop\n      jump\t// out\n        /* \"@openzeppelin/contracts/token/ERC20/ERC20.sol\":10319:10795  function _spendAllowance(address owner, address spender, uint256 value) internal virtual {... */\n    tag_199:\n        /* \"@openzeppelin/contracts/token/ERC20/ERC20.sol\":10418:10442  uint256 currentAllowance */\n      0x00\n        /* \"@openzeppelin/contracts/token/ERC20/ERC20.sol\":10445:10470  allowance(owner, spender) */\n      tag_339\n        /* \"@openzeppelin/contracts/token/ERC20/ERC20.sol\":10455:10460  owner */\n      dup5\n        /* \"@openzeppelin/contracts/token/ERC20/ERC20.sol\":10462:10469  spender */\n      dup5\n        /* \"@openzeppelin/contracts/token/ERC20/ERC20.sol\":10445:10454  allowance */\n      tag_145\n        /* \"@openzeppelin/contracts/token/ERC20/ERC20.sol\":10445:10470  allowance(owner, spender) */\n      jump\t// in\n    tag_339:\n        /* \"@openzeppelin/contracts/token/ERC20/ERC20.sol\":10418:10470  uint256 currentAllowance = allowance(owner, spender) */\n      swap1\n      pop\n        /* \"@openzeppelin/contracts/token/ERC20/ERC20.sol\":10503:10520  type(uint256).max */\n      0xffffffffffffffffffffffffffffffffffffffffffffffffffffffffffffffff\n        /* \"@openzeppelin/contracts/token/ERC20/ERC20.sol\":10484:10500  currentAllowance */\n      dup2\n        /* \"@openzeppelin/contracts/token/ERC20/ERC20.sol\":10484:10520  currentAllowance < type(uint256).max */\n      lt\n        /* \"@openzeppelin/contracts/token/ERC20/ERC20.sol\":10480:10789  if (currentAllowance < type(uint256).max) {... */\n      iszero\n      tag_340\n      jumpi\n        /* \"@openzeppelin/contracts/token/ERC20/ERC20.sol\":10559:10564  value */\n      dup2\n        /* \"@openzeppelin/contracts/token/ERC20/ERC20.sol\":10540:10556  currentAllowance */\n      dup2\n        /* \"@openzeppelin/contracts/token/ERC20/ERC20.sol\":10540:10564  currentAllowance < value */\n      lt\n        /* \"@openzeppelin/contracts/token/ERC20/ERC20.sol\":10536:10666  if (currentAllowance < value) {... */\n      iszero\n      tag_341\n      jumpi\n        /* \"@openzeppelin/contracts/token/ERC20/ERC20.sol\":10618:10625  spender */\n      dup3\n        /* \"@openzeppelin/contracts/token/ERC20/ERC20.sol\":10627:10643  currentAllowance */\n      dup2\n        /* \"@openzeppelin/contracts/token/ERC20/ERC20.sol\":10645:10650  value */\n      dup4\n        /* \"@openzeppelin/contracts/token/ERC20/ERC20.sol\":10591:10651  ERC20InsufficientAllowance(spender, currentAllowance, value) */\n      mload(0x40)\n      0xfb8f41b200000000000000000000000000000000000000000000000000000000\n      dup2\n      mstore\n      0x04\n      add\n      tag_342\n      swap4\n      swap3\n      swap2\n      swap1\n      tag_343\n      jump\t// in\n    tag_342:\n      mload(0x40)\n      dup1\n      swap2\n      sub\n      swap1\n      revert\n        /* \"@openzeppelin/contracts/token/ERC20/ERC20.sol\":10536:10666  if (currentAllowance < value) {... */\n    tag_341:\n        /* \"@openzeppelin/contracts/token/ERC20/ERC20.sol\":10707:10764  _approve(owner, spender, currentAllowance - value, false) */\n      tag_344\n        /* \"@openzeppelin/contracts/token/ERC20/ERC20.sol\":10716:10721  owner */\n      dup5\n        /* \"@openzeppelin/contracts/token/ERC20/ERC20.sol\":10723:10730  spender */\n      dup5\n        /* \"@openzeppelin/contracts/token/ERC20/ERC20.sol\":10751:10756  value */\n      dup5\n        /* \"@openzeppelin/contracts/token/ERC20/ERC20.sol\":10732:10748  currentAllowance */\n      dup5\n        /* \"@openzeppelin/contracts/token/ERC20/ERC20.sol\":10732:10756  currentAllowance - value */\n      sub\n        /* \"@openzeppelin/contracts/token/ERC20/ERC20.sol\":10758:10763  false */\n      0x00\n        /* \"@openzeppelin/contracts/token/ERC20/ERC20.sol\":10707:10715  _approve */\n      tag_337\n        /* \"@openzeppelin/contracts/token/ERC20/ERC20.sol\":10707:10764  _approve(owner, spender, currentAllowance - value, false) */\n      jump\t// in\n    tag_344:\n        /* \"@openzeppelin/contracts/token/ERC20/ERC20.sol\":10480:10789  if (currentAllowance < type(uint256).max) {... */\n    tag_340:\n        /* \"@openzeppelin/contracts/token/ERC20/ERC20.sol\":10408:10795  {... */\n      pop\n        /* \"@openzeppelin/contracts/token/ERC20/ERC20.sol\":10319:10795  function _spendAllowance(address owner, address spender, uint256 value) internal virtual {... */\n      pop\n      pop\n      pop\n      jump\t// out\n        /* \"@openzeppelin/contracts/token/ERC20/ERC20.sol\":5297:5597  function _transfer(address from, address to, uint256 value) internal {... */\n    tag_201:\n        /* \"@openzeppelin/contracts/token/ERC20/ERC20.sol\":5396:5397  0 */\n      0x00\n        /* \"@openzeppelin/contracts/token/ERC20/ERC20.sol\":5380:5398  from == address(0) */\n      0xffffffffffffffffffffffffffffffffffffffff\n      and\n        /* \"@openzeppelin/contracts/token/ERC20/ERC20.sol\":5380:5384  from */\n      dup4\n        /* \"@openzeppelin/contracts/token/ERC20/ERC20.sol\":5380:5398  from == address(0) */\n      0xffffffffffffffffffffffffffffffffffffffff\n      and\n      sub\n        /* \"@openzeppelin/contracts/token/ERC20/ERC20.sol\":5376:5462  if (from == address(0)) {... */\n      tag_346\n      jumpi\n        /* \"@openzeppelin/contracts/token/ERC20/ERC20.sol\":5448:5449  0 */\n      0x00\n        /* \"@openzeppelin/contracts/token/ERC20/ERC20.sol\":5421:5451  ERC20InvalidSender(address(0)) */\n      mload(0x40)\n      0x96c6fd1e00000000000000000000000000000000000000000000000000000000\n      dup2\n      mstore\n      0x04\n      add\n      tag_347\n      swap2\n      swap1\n      tag_104\n      jump\t// in\n    tag_347:\n      mload(0x40)\n      dup1\n      swap2\n      sub\n      swap1\n      revert\n        /* \"@openzeppelin/contracts/token/ERC20/ERC20.sol\":5376:5462  if (from == address(0)) {... */\n    tag_346:\n        /* \"@openzeppelin/contracts/token/ERC20/ERC20.sol\":5489:5490  0 */\n      0x00\n        /* \"@openzeppelin/contracts/token/ERC20/ERC20.sol\":5475:5491  to == address(0) */\n      0xffffffffffffffffffffffffffffffffffffffff\n      and\n        /* \"@openzeppelin/contracts/token/ERC20/ERC20.sol\":5475:5477  to */\n      dup3\n        /* \"@openzeppelin/contracts/token/ERC20/ERC20.sol\":5475:5491  to == address(0) */\n      0xffffffffffffffffffffffffffffffffffffffff\n      and\n      sub\n        /* \"@openzeppelin/contracts/token/ERC20/ERC20.sol\":5471:5557  if (to == address(0)) {... */\n      tag_348\n      jumpi\n        /* \"@openzeppelin/contracts/token/ERC20/ERC20.sol\":5543:5544  0 */\n      0x00\n        /* \"@openzeppelin/contracts/token/ERC20/ERC20.sol\":5514:5546  ERC20InvalidReceiver(address(0)) */\n      mload(0x40)\n      0xec442f0500000000000000000000000000000000000000000000000000000000\n      dup2\n      mstore\n      0x04\n      add\n      tag_349\n      swap2\n      swap1\n      tag_104\n      jump\t// in\n    tag_349:\n      mload(0x40)\n      dup1\n      swap2\n      sub\n      swap1\n      revert\n        /* \"@openzeppelin/contracts/token/ERC20/ERC20.sol\":5471:5557  if (to == address(0)) {... */\n    tag_348:\n        /* \"@openzeppelin/contracts/token/ERC20/ERC20.sol\":5566:5590  _update(from, to, value) */\n      tag_350\n        /* \"@openzeppelin/contracts/token/ERC20/ERC20.sol\":5574:5578  from */\n      dup4\n        /* \"@openzeppelin/contracts/token/ERC20/ERC20.sol\":5580:5582  to */\n      dup4\n        /* \"@openzeppelin/contracts/token/ERC20/ERC20.sol\":5584:5589  value */\n      dup4\n        /* \"@openzeppelin/contracts/token/ERC20/ERC20.sol\":5566:5573  _update */\n      tag_351\n        /* \"@openzeppelin/contracts/token/ERC20/ERC20.sol\":5566:5590  _update(from, to, value) */\n      jump\t// in\n    tag_350:\n        /* \"@openzeppelin/contracts/token/ERC20/ERC20.sol\":5297:5597  function _transfer(address from, address to, uint256 value) internal {... */\n      pop\n      pop\n      pop\n      jump\t// out\n        /* \"@openzeppelin/contracts/access/AccessControl.sol\":3175:3278  function _checkRole(bytes32 role) internal view virtual {... */\n    tag_206:\n        /* \"@openzeppelin/contracts/access/AccessControl.sol\":3241:3271  _checkRole(role, _msgSender()) */\n      tag_353\n        /* \"@openzeppelin/contracts/access/AccessControl.sol\":3252:3256  role */\n      dup2\n        /* \"@openzeppelin/contracts/access/AccessControl.sol\":3258:3270  _msgSender() */\n      tag_354\n        /* \"@openzeppelin/contracts/access/AccessControl.sol\":3258:3268  _msgSender */\n      tag_172\n        /* \"@openzeppelin/contracts/access/AccessControl.sol\":3258:3270  _msgSender() */\n      jump\t// in\n    tag_354:\n        /* \"@openzeppelin/contracts/access/AccessControl.sol\":3241:3251  _checkRole */\n      tag_355\n        /* \"@openzeppelin/contracts/access/AccessControl.sol\":3241:3271  _checkRole(role, _msgSender()) */\n      jump\t// in\n    tag_353:\n        /* \"@openzeppelin/contracts/access/AccessControl.sol\":3175:3278  function _checkRole(bytes32 role) internal view virtual {... */\n      pop\n      jump\t// out\n        /* \"@openzeppelin/contracts/access/AccessControl.sol\":6155:6471  function _grantRole(bytes32 role, address account) internal virtual returns (bool) {... */\n    tag_209:\n        /* \"@openzeppelin/contracts/access/AccessControl.sol\":6232:6236  bool */\n      0x00\n        /* \"@openzeppelin/contracts/access/AccessControl.sol\":6253:6275  hasRole(role, account) */\n      tag_357\n        /* \"@openzeppelin/contracts/access/AccessControl.sol\":6261:6265  role */\n      dup4\n        /* \"@openzeppelin/contracts/access/AccessControl.sol\":6267:6274  account */\n      dup4\n        /* \"@openzeppelin/contracts/access/AccessControl.sol\":6253:6260  hasRole */\n      tag_107\n        /* \"@openzeppelin/contracts/access/AccessControl.sol\":6253:6275  hasRole(role, account) */\n      jump\t// in\n    tag_357:\n        /* \"@openzeppelin/contracts/access/AccessControl.sol\":6248:6465  if (!hasRole(role, account)) {... */\n      tag_358\n      jumpi\n        /* \"@openzeppelin/contracts/access/AccessControl.sol\":6323:6327  true */\n      0x01\n        /* \"@openzeppelin/contracts/access/AccessControl.sol\":6291:6297  _roles */\n      0x07\n        /* \"@openzeppelin/contracts/access/AccessControl.sol\":6291:6303  _roles[role] */\n      0x00\n        /* \"@openzeppelin/contracts/access/AccessControl.sol\":6298:6302  role */\n      dup6\n        /* \"@openzeppelin/contracts/access/AccessControl.sol\":6291:6303  _roles[role] */\n      dup2\n      mstore\n      0x20\n      add\n      swap1\n      dup2\n      mstore\n      0x20\n      add\n      0x00\n      keccak256\n        /* \"@openzeppelin/contracts/access/AccessControl.sol\":6291:6311  _roles[role].hasRole */\n      0x00\n      add\n        /* \"@openzeppelin/contracts/access/AccessControl.sol\":6291:6320  _roles[role].hasRole[account] */\n      0x00\n        /* \"@openzeppelin/contracts/access/AccessControl.sol\":6312:6319  account */\n      dup5\n        /* \"@openzeppelin/contracts/access/AccessControl.sol\":6291:6320  _roles[role].hasRole[account] */\n      0xffffffffffffffffffffffffffffffffffffffff\n      and\n      0xffffffffffffffffffffffffffffffffffffffff\n      and\n      dup2\n      mstore\n      0x20\n      add\n      swap1\n      dup2\n      mstore\n      0x20\n      add\n      0x00\n      keccak256\n      0x00\n        /* \"@openzeppelin/contracts/access/AccessControl.sol\":6291:6327  _roles[role].hasRole[account] = true */\n      0x0100\n      exp\n      dup2\n      sload\n      dup2\n      0xff\n      mul\n      not\n      and\n      swap1\n      dup4\n      iszero\n      iszero\n      mul\n      or\n      swap1\n      sstore\n      pop\n        /* \"@openzeppelin/contracts/access/AccessControl.sol\":6373:6385  _msgSender() */\n      tag_359\n        /* \"@openzeppelin/contracts/access/AccessControl.sol\":6373:6383  _msgSender */\n      tag_172\n        /* \"@openzeppelin/contracts/access/AccessControl.sol\":6373:6385  _msgSender() */\n      jump\t// in\n    tag_359:\n        /* \"@openzeppelin/contracts/access/AccessControl.sol\":6346:6386  RoleGranted(role, account, _msgSender()) */\n      0xffffffffffffffffffffffffffffffffffffffff\n      and\n        /* \"@openzeppelin/contracts/access/AccessControl.sol\":6364:6371  account */\n      dup3\n        /* \"@openzeppelin/contracts/access/AccessControl.sol\":6346:6386  RoleGranted(role, account, _msgSender()) */\n      0xffffffffffffffffffffffffffffffffffffffff\n      and\n        /* \"@openzeppelin/contracts/access/AccessControl.sol\":6358:6362  role */\n      dup5\n        /* \"@openzeppelin/contracts/access/AccessControl.sol\":6346:6386  RoleGranted(role, account, _msgSender()) */\n      0x2f8788117e7eff1d82e926ec794901d17c78024a50270940304540a733656f0d\n      mload(0x40)\n      mload(0x40)\n      dup1\n      swap2\n      sub\n      swap1\n      log4\n        /* \"@openzeppelin/contracts/access/AccessControl.sol\":6407:6411  true */\n      0x01\n        /* \"@openzeppelin/contracts/access/AccessControl.sol\":6400:6411  return true */\n      swap1\n      pop\n      jump(tag_356)\n        /* \"@openzeppelin/contracts/access/AccessControl.sol\":6248:6465  if (!hasRole(role, account)) {... */\n    tag_358:\n        /* \"@openzeppelin/contracts/access/AccessControl.sol\":6449:6454  false */\n      0x00\n        /* \"@openzeppelin/contracts/access/AccessControl.sol\":6442:6454  return false */\n      swap1\n      pop\n        /* \"@openzeppelin/contracts/access/AccessControl.sol\":6155:6471  function _grantRole(bytes32 role, address account) internal virtual returns (bool) {... */\n    tag_356:\n      swap3\n      swap2\n      pop\n      pop\n      jump\t// out\n        /* \"@openzeppelin/contracts/access/AccessControl.sol\":6708:7025  function _revokeRole(bytes32 role, address account) internal virtual returns (bool) {... */\n    tag_215:\n        /* \"@openzeppelin/contracts/access/AccessControl.sol\":6786:6790  bool */\n      0x00\n        /* \"@openzeppelin/contracts/access/AccessControl.sol\":6806:6828  hasRole(role, account) */\n      tag_362\n        /* \"@openzeppelin/contracts/access/AccessControl.sol\":6814:6818  role */\n      dup4\n        /* \"@openzeppelin/contracts/access/AccessControl.sol\":6820:6827  account */\n      dup4\n        /* \"@openzeppelin/contracts/access/AccessControl.sol\":6806:6813  hasRole */\n      tag_107\n        /* \"@openzeppelin/contracts/access/AccessControl.sol\":6806:6828  hasRole(role, account) */\n      jump\t// in\n    tag_362:\n        /* \"@openzeppelin/contracts/access/AccessControl.sol\":6802:7019  if (hasRole(role, account)) {... */\n      iszero\n      tag_363\n      jumpi\n        /* \"@openzeppelin/contracts/access/AccessControl.sol\":6876:6881  false */\n      0x00\n        /* \"@openzeppelin/contracts/access/AccessControl.sol\":6844:6850  _roles */\n      0x07\n        /* \"@openzeppelin/contracts/access/AccessControl.sol\":6844:6856  _roles[role] */\n      0x00\n        /* \"@openzeppelin/contracts/access/AccessControl.sol\":6851:6855  role */\n      dup6\n        /* \"@openzeppelin/contracts/access/AccessControl.sol\":6844:6856  _roles[role] */\n      dup2\n      mstore\n      0x20\n      add\n      swap1\n      dup2\n      mstore\n      0x20\n      add\n      0x00\n      keccak256\n        /* \"@openzeppelin/contracts/access/AccessControl.sol\":6844:6864  _roles[role].hasRole */\n      0x00\n      add\n        /* \"@openzeppelin/contracts/access/AccessControl.sol\":6844:6873  _roles[role].hasRole[account] */\n      0x00\n        /* \"@openzeppelin/contracts/access/AccessControl.sol\":6865:6872  account */\n      dup5\n        /* \"@openzeppelin/contracts/access/AccessControl.sol\":6844:6873  _roles[role].hasRole[account] */\n      0xffffffffffffffffffffffffffffffffffffffff\n      and\n      0xffffffffffffffffffffffffffffffffffffffff\n      and\n      dup2\n      mstore\n      0x20\n      add\n      swap1\n      dup2\n      mstore\n      0x20\n      add\n      0x00\n      keccak256\n      0x00\n        /* \"@openzeppelin/contracts/access/AccessControl.sol\":6844:6881  _roles[role].hasRole[account] = false */\n      0x0100\n      exp\n      dup2\n      sload\n      dup2\n      0xff\n      mul\n      not\n      and\n      swap1\n      dup4\n      iszero\n      iszero\n      mul\n      or\n      swap1\n      sstore\n      pop\n        /* \"@openzeppelin/contracts/access/AccessControl.sol\":6927:6939  _msgSender() */\n      tag_364\n        /* \"@openzeppelin/contracts/access/AccessControl.sol\":6927:6937  _msgSender */\n      tag_172\n        /* \"@openzeppelin/contracts/access/AccessControl.sol\":6927:6939  _msgSender() */\n      jump\t// in\n    tag_364:\n        /* \"@openzeppelin/contracts/access/AccessControl.sol\":6900:6940  RoleRevoked(role, account, _msgSender()) */\n      0xffffffffffffffffffffffffffffffffffffffff\n      and\n        /* \"@openzeppelin/contracts/access/AccessControl.sol\":6918:6925  account */\n      dup3\n        /* \"@openzeppelin/contracts/access/AccessControl.sol\":6900:6940  RoleRevoked(role, account, _msgSender()) */\n      0xffffffffffffffffffffffffffffffffffffffff\n      and\n        /* \"@openzeppelin/contracts/access/AccessControl.sol\":6912:6916  role */\n      dup5\n        /* \"@openzeppelin/contracts/access/AccessControl.sol\":6900:6940  RoleRevoked(role, account, _msgSender()) */\n      0xf6391f5c32d9c69d2a47ea670b442974b53935d1edc7fd64eb21e047a839171b\n      mload(0x40)\n      mload(0x40)\n      dup1\n      swap2\n      sub\n      swap1\n      log4\n        /* \"@openzeppelin/contracts/access/AccessControl.sol\":6961:6965  true */\n      0x01\n        /* \"@openzeppelin/contracts/access/AccessControl.sol\":6954:6965  return true */\n      swap1\n      pop\n      jump(tag_361)\n        /* \"@openzeppelin/contracts/access/AccessControl.sol\":6802:7019  if (hasRole(role, account)) {... */\n    tag_363:\n        /* \"@openzeppelin/contracts/access/AccessControl.sol\":7003:7008  false */\n      0x00\n        /* \"@openzeppelin/contracts/access/AccessControl.sol\":6996:7008  return false */\n      swap1\n      pop\n        /* \"@openzeppelin/contracts/access/AccessControl.sol\":6708:7025  function _revokeRole(bytes32 role, address account) internal virtual returns (bool) {... */\n    tag_361:\n      swap3\n      swap2\n      pop\n      pop\n      jump\t// out\n        /* \"@openzeppelin/contracts/access/Ownable.sol\":1796:1958  function _checkOwner() internal view virtual {... */\n    tag_219:\n        /* \"@openzeppelin/contracts/access/Ownable.sol\":1866:1878  _msgSender() */\n      tag_367\n        /* \"@openzeppelin/contracts/access/Ownable.sol\":1866:1876  _msgSender */\n      tag_172\n        /* \"@openzeppelin/contracts/access/Ownable.sol\":1866:1878  _msgSender() */\n      jump\t// in\n    tag_367:\n        /* \"@openzeppelin/contracts/access/Ownable.sol\":1855:1878  owner() != _msgSender() */\n      0xffffffffffffffffffffffffffffffffffffffff\n      and\n        /* \"@openzeppelin/contracts/access/Ownable.sol\":1855:1862  owner() */\n      tag_368\n        /* \"@openzeppelin/contracts/access/Ownable.sol\":1855:1860  owner */\n      tag_102\n        /* \"@openzeppelin/contracts/access/Ownable.sol\":1855:1862  owner() */\n      jump\t// in\n    tag_368:\n        /* \"@openzeppelin/contracts/access/Ownable.sol\":1855:1878  owner() != _msgSender() */\n      0xffffffffffffffffffffffffffffffffffffffff\n      and\n      eq\n        /* \"@openzeppelin/contracts/access/Ownable.sol\":1851:1952  if (owner() != _msgSender()) {... */\n      tag_369\n      jumpi\n        /* \"@openzeppelin/contracts/access/Ownable.sol\":1928:1940  _msgSender() */\n      tag_370\n        /* \"@openzeppelin/contracts/access/Ownable.sol\":1928:1938  _msgSender */\n      tag_172\n        /* \"@openzeppelin/contracts/access/Ownable.sol\":1928:1940  _msgSender() */\n      jump\t// in\n    tag_370:\n        /* \"@openzeppelin/contracts/access/Ownable.sol\":1901:1941  OwnableUnauthorizedAccount(_msgSender()) */\n      mload(0x40)\n      0x118cdaa700000000000000000000000000000000000000000000000000000000\n      dup2\n      mstore\n      0x04\n      add\n      tag_371\n      swap2\n      swap1\n      tag_104\n      jump\t// in\n    tag_371:\n      mload(0x40)\n      dup1\n      swap2\n      sub\n      swap1\n      revert\n        /* \"@openzeppelin/contracts/access/Ownable.sol\":1851:1952  if (owner() != _msgSender()) {... */\n    tag_369:\n        /* \"@openzeppelin/contracts/access/Ownable.sol\":1796:1958  function _checkOwner() internal view virtual {... */\n      jump\t// out\n        /* \"@openzeppelin/contracts/access/Ownable.sol\":2912:3099  function _transferOwnership(address newOwner) internal virtual {... */\n    tag_222:\n        /* \"@openzeppelin/contracts/access/Ownable.sol\":2985:3001  address oldOwner */\n      0x00\n        /* \"@openzeppelin/contracts/access/Ownable.sol\":3004:3010  _owner */\n      0x05\n      0x00\n      swap1\n      sload\n      swap1\n      0x0100\n      exp\n      swap1\n      div\n      0xffffffffffffffffffffffffffffffffffffffff\n      and\n        /* \"@openzeppelin/contracts/access/Ownable.sol\":2985:3010  address oldOwner = _owner */\n      swap1\n      pop\n        /* \"@openzeppelin/contracts/access/Ownable.sol\":3029:3037  newOwner */\n      dup2\n        /* \"@openzeppelin/contracts/access/Ownable.sol\":3020:3026  _owner */\n      0x05\n      0x00\n        /* \"@openzeppelin/contracts/access/Ownable.sol\":3020:3037  _owner = newOwner */\n      0x0100\n      exp\n      dup2\n      sload\n      dup2\n      0xffffffffffffffffffffffffffffffffffffffff\n      mul\n      not\n      and\n      swap1\n      dup4\n      0xffffffffffffffffffffffffffffffffffffffff\n      and\n      mul\n      or\n      swap1\n      sstore\n      pop\n        /* \"@openzeppelin/contracts/access/Ownable.sol\":3083:3091  newOwner */\n      dup2\n        /* \"@openzeppelin/contracts/access/Ownable.sol\":3052:3092  OwnershipTransferred(oldOwner, newOwner) */\n      0xffffffffffffffffffffffffffffffffffffffff\n      and\n        /* \"@openzeppelin/contracts/access/Ownable.sol\":3073:3081  oldOwner */\n      dup2\n        /* \"@openzeppelin/contracts/access/Ownable.sol\":3052:3092  OwnershipTransferred(oldOwner, newOwner) */\n      0xffffffffffffffffffffffffffffffffffffffff\n      and\n      0x8be0079c531659141344cd1fd0a4f28419497f9722a3daafe3b4186f6b6457e0\n      mload(0x40)\n      mload(0x40)\n      dup1\n      swap2\n      sub\n      swap1\n      log3\n        /* \"@openzeppelin/contracts/access/Ownable.sol\":2975:3099  {... */\n      pop\n        /* \"@openzeppelin/contracts/access/Ownable.sol\":2912:3099  function _transferOwnership(address newOwner) internal virtual {... */\n      pop\n      jump\t// out\n        /* \"@openzeppelin/contracts/security/ReentrancyGuard.sol\":2336:2623  function _nonReentrantBefore() private {... */\n    tag_238:\n        /* \"@openzeppelin/contracts/security/ReentrancyGuard.sol\":1759:1760  2 */\n      0x02\n        /* \"@openzeppelin/contracts/security/ReentrancyGuard.sol\":2468:2475  _status */\n      sload(0x06)\n        /* \"@openzeppelin/contracts/security/ReentrancyGuard.sol\":2468:2487  _status != _ENTERED */\n      sub\n        /* \"@openzeppelin/contracts/security/ReentrancyGuard.sol\":2460:2523  require(_status != _ENTERED, \"ReentrancyGuard: reentrant call\") */\n      tag_374\n      jumpi\n      mload(0x40)\n      0x08c379a000000000000000000000000000000000000000000000000000000000\n      dup2\n      mstore\n      0x04\n      add\n      tag_375\n      swap1\n      tag_376\n      jump\t// in\n    tag_375:\n      mload(0x40)\n      dup1\n      swap2\n      sub\n      swap1\n      revert\n    tag_374:\n        /* \"@openzeppelin/contracts/security/ReentrancyGuard.sol\":1759:1760  2 */\n      0x02\n        /* \"@openzeppelin/contracts/security/ReentrancyGuard.sol\":2598:2605  _status */\n      0x06\n        /* \"@openzeppelin/contracts/security/ReentrancyGuard.sol\":2598:2616  _status = _ENTERED */\n      dup2\n      swap1\n      sstore\n      pop\n        /* \"@openzeppelin/contracts/security/ReentrancyGuard.sol\":2336:2623  function _nonReentrantBefore() private {... */\n      jump\t// out\n        /* \"@openzeppelin/contracts/token/ERC20/utils/SafeERC20.sol\":1618:1806  function safeTransferFrom(IERC20 token, address from, address to, uint256 value) internal {... */\n    tag_256:\n        /* \"@openzeppelin/contracts/token/ERC20/utils/SafeERC20.sol\":1718:1799  _callOptionalReturn(token, abi.encodeCall(token.transferFrom, (from, to, value))) */\n      tag_378\n        /* \"@openzeppelin/contracts/token/ERC20/utils/SafeERC20.sol\":1738:1743  token */\n      dup5\n        /* \"@openzeppelin/contracts/token/ERC20/utils/SafeERC20.sol\":1760:1765  token */\n      dup6\n        /* \"@openzeppelin/contracts/token/ERC20/utils/SafeERC20.sol\":1760:1778  token.transferFrom */\n      0xffffffffffffffffffffffffffffffffffffffff\n      and\n      0x23b872dd\n        /* \"@openzeppelin/contracts/token/ERC20/utils/SafeERC20.sol\":1781:1785  from */\n      dup7\n        /* \"@openzeppelin/contracts/token/ERC20/utils/SafeERC20.sol\":1787:1789  to */\n      dup7\n        /* \"@openzeppelin/contracts/token/ERC20/utils/SafeERC20.sol\":1791:1796  value */\n      dup7\n        /* \"@openzeppelin/contracts/token/ERC20/utils/SafeERC20.sol\":1745:1798  abi.encodeCall(token.transferFrom, (from, to, value)) */\n      add(0x24, mload(0x40))\n      tag_379\n      swap4\n      swap3\n      swap2\n      swap1\n      tag_380\n      jump\t// in\n    tag_379:\n      mload(0x40)\n      0x20\n      dup2\n      dup4\n      sub\n      sub\n      dup2\n      mstore\n      swap1\n      0x40\n      mstore\n      swap2\n      pop\n      0xe0\n      shl\n      0x20\n      dup3\n      add\n      dup1\n      mload\n      0xffffffffffffffffffffffffffffffffffffffffffffffffffffffff\n      dup4\n      dup2\n      dup4\n      and\n      or\n      dup4\n      mstore\n      pop\n      pop\n      pop\n      pop\n        /* \"@openzeppelin/contracts/token/ERC20/utils/SafeERC20.sol\":1718:1737  _callOptionalReturn */\n      tag_381\n        /* \"@openzeppelin/contracts/token/ERC20/utils/SafeERC20.sol\":1718:1799  _callOptionalReturn(token, abi.encodeCall(token.transferFrom, (from, to, value))) */\n      jump\t// in\n    tag_378:\n        /* \"@openzeppelin/contracts/token/ERC20/utils/SafeERC20.sol\":1618:1806  function safeTransferFrom(IERC20 token, address from, address to, uint256 value) internal {... */\n      pop\n      pop\n      pop\n      pop\n      jump\t// out\n        /* \"@openzeppelin/contracts/token/ERC20/ERC20.sol\":7362:7570  function _mint(address account, uint256 value) internal {... */\n    tag_258:\n        /* \"@openzeppelin/contracts/token/ERC20/ERC20.sol\":7451:7452  0 */\n      0x00\n        /* \"@openzeppelin/contracts/token/ERC20/ERC20.sol\":7432:7453  account == address(0) */\n      0xffffffffffffffffffffffffffffffffffffffff\n      and\n        /* \"@openzeppelin/contracts/token/ERC20/ERC20.sol\":7432:7439  account */\n      dup3\n        /* \"@openzeppelin/contracts/token/ERC20/ERC20.sol\":7432:7453  account == address(0) */\n      0xffffffffffffffffffffffffffffffffffffffff\n      and\n      sub\n        /* \"@openzeppelin/contracts/token/ERC20/ERC20.sol\":7428:7519  if (account == address(0)) {... */\n      tag_383\n      jumpi\n        /* \"@openzeppelin/contracts/token/ERC20/ERC20.sol\":7505:7506  0 */\n      0x00\n        /* \"@openzeppelin/contracts/token/ERC20/ERC20.sol\":7476:7508  ERC20InvalidReceiver(address(0)) */\n      mload(0x40)\n      0xec442f0500000000000000000000000000000000000000000000000000000000\n      dup2\n      mstore\n      0x04\n      add\n      tag_384\n      swap2\n      swap1\n      tag_104\n      jump\t// in\n    tag_384:\n      mload(0x40)\n      dup1\n      swap2\n      sub\n      swap1\n      revert\n        /* \"@openzeppelin/contracts/token/ERC20/ERC20.sol\":7428:7519  if (account == address(0)) {... */\n    tag_383:\n        /* \"@openzeppelin/contracts/token/ERC20/ERC20.sol\":7528:7563  _update(address(0), account, value) */\n      tag_385\n        /* \"@openzeppelin/contracts/token/ERC20/ERC20.sol\":7544:7545  0 */\n      0x00\n        /* \"@openzeppelin/contracts/token/ERC20/ERC20.sol\":7548:7555  account */\n      dup4\n        /* \"@openzeppelin/contracts/token/ERC20/ERC20.sol\":7557:7562  value */\n      dup4\n        /* \"@openzeppelin/contracts/token/ERC20/ERC20.sol\":7528:7535  _update */\n      tag_351\n        /* \"@openzeppelin/contracts/token/ERC20/ERC20.sol\":7528:7563  _update(address(0), account, value) */\n      jump\t// in\n    tag_385:\n        /* \"@openzeppelin/contracts/token/ERC20/ERC20.sol\":7362:7570  function _mint(address account, uint256 value) internal {... */\n      pop\n      pop\n      jump\t// out\n        /* \"@openzeppelin/contracts/security/ReentrancyGuard.sol\":2629:2838  function _nonReentrantAfter() private {... */\n    tag_262:\n        /* \"@openzeppelin/contracts/security/ReentrancyGuard.sol\":1716:1717  1 */\n      0x01\n        /* \"@openzeppelin/contracts/security/ReentrancyGuard.sol\":2809:2816  _status */\n      0x06\n        /* \"@openzeppelin/contracts/security/ReentrancyGuard.sol\":2809:2831  _status = _NOT_ENTERED */\n      dup2\n      swap1\n      sstore\n      pop\n        /* \"@openzeppelin/contracts/security/ReentrancyGuard.sol\":2629:2838  function _nonReentrantAfter() private {... */\n      jump\t// out\n        /* \"@openzeppelin/contracts/token/ERC20/ERC20.sol\":7888:8094  function _burn(address account, uint256 value) internal {... */\n    tag_308:\n        /* \"@openzeppelin/contracts/token/ERC20/ERC20.sol\":7977:7978  0 */\n      0x00\n        /* \"@openzeppelin/contracts/token/ERC20/ERC20.sol\":7958:7979  account == address(0) */\n      0xffffffffffffffffffffffffffffffffffffffff\n      and\n        /* \"@openzeppelin/contracts/token/ERC20/ERC20.sol\":7958:7965  account */\n      dup3\n        /* \"@openzeppelin/contracts/token/ERC20/ERC20.sol\":7958:7979  account == address(0) */\n      0xffffffffffffffffffffffffffffffffffffffff\n      and\n      sub\n        /* \"@openzeppelin/contracts/token/ERC20/ERC20.sol\":7954:8043  if (account == address(0)) {... */\n      tag_388\n      jumpi\n        /* \"@openzeppelin/contracts/token/ERC20/ERC20.sol\":8029:8030  0 */\n      0x00\n        /* \"@openzeppelin/contracts/token/ERC20/ERC20.sol\":8002:8032  ERC20InvalidSender(address(0)) */\n      mload(0x40)\n      0x96c6fd1e00000000000000000000000000000000000000000000000000000000\n      dup2\n      mstore\n      0x04\n      add\n      tag_389\n      swap2\n      swap1\n      tag_104\n      jump\t// in\n    tag_389:\n      mload(0x40)\n      dup1\n      swap2\n      sub\n      swap1\n      revert\n        /* \"@openzeppelin/contracts/token/ERC20/ERC20.sol\":7954:8043  if (account == address(0)) {... */\n    tag_388:\n        /* \"@openzeppelin/contracts/token/ERC20/ERC20.sol\":8052:8087  _update(account, address(0), value) */\n      tag_390\n        /* \"@openzeppelin/contracts/token/ERC20/ERC20.sol\":8060:8067  account */\n      dup3\n        /* \"@openzeppelin/contracts/token/ERC20/ERC20.sol\":8077:8078  0 */\n      0x00\n        /* \"@openzeppelin/contracts/token/ERC20/ERC20.sol\":8081:8086  value */\n      dup4\n        /* \"@openzeppelin/contracts/token/ERC20/ERC20.sol\":8052:8059  _update */\n      tag_351\n        /* \"@openzeppelin/contracts/token/ERC20/ERC20.sol\":8052:8087  _update(account, address(0), value) */\n      jump\t// in\n    tag_390:\n        /* \"@openzeppelin/contracts/token/ERC20/ERC20.sol\":7888:8094  function _burn(address account, uint256 value) internal {... */\n      pop\n      pop\n      jump\t// out\n        /* \"@openzeppelin/contracts/token/ERC20/utils/SafeERC20.sol\":1219:1379  function safeTransfer(IERC20 token, address to, uint256 value) internal {... */\n    tag_310:\n        /* \"@openzeppelin/contracts/token/ERC20/utils/SafeERC20.sol\":1301:1372  _callOptionalReturn(token, abi.encodeCall(token.transfer, (to, value))) */\n      tag_392\n        /* \"@openzeppelin/contracts/token/ERC20/utils/SafeERC20.sol\":1321:1326  token */\n      dup4\n        /* \"@openzeppelin/contracts/token/ERC20/utils/SafeERC20.sol\":1343:1348  token */\n      dup5\n        /* \"@openzeppelin/contracts/token/ERC20/utils/SafeERC20.sol\":1343:1357  token.transfer */\n      0xffffffffffffffffffffffffffffffffffffffff\n      and\n      0xa9059cbb\n        /* \"@openzeppelin/contracts/token/ERC20/utils/SafeERC20.sol\":1360:1362  to */\n      dup6\n        /* \"@openzeppelin/contracts/token/ERC20/utils/SafeERC20.sol\":1364:1369  value */\n      dup6\n        /* \"@openzeppelin/contracts/token/ERC20/utils/SafeERC20.sol\":1328:1371  abi.encodeCall(token.transfer, (to, value)) */\n      add(0x24, mload(0x40))\n      tag_393\n      swap3\n      swap2\n      swap1\n      tag_394\n      jump\t// in\n    tag_393:\n      mload(0x40)\n      0x20\n      dup2\n      dup4\n      sub\n      sub\n      dup2\n      mstore\n      swap1\n      0x40\n      mstore\n      swap2\n      pop\n      0xe0\n      shl\n      0x20\n      dup3\n      add\n      dup1\n      mload\n      0xffffffffffffffffffffffffffffffffffffffffffffffffffffffff\n      dup4\n      dup2\n      dup4\n      and\n      or\n      dup4\n      mstore\n      pop\n      pop\n      pop\n      pop\n        /* \"@openzeppelin/contracts/token/ERC20/utils/SafeERC20.sol\":1301:1320  _callOptionalReturn */\n      tag_381\n        /* \"@openzeppelin/contracts/token/ERC20/utils/SafeERC20.sol\":1301:1372  _callOptionalReturn(token, abi.encodeCall(token.transfer, (to, value))) */\n      jump\t// in\n    tag_392:\n        /* \"@openzeppelin/contracts/token/ERC20/utils/SafeERC20.sol\":1219:1379  function safeTransfer(IERC20 token, address to, uint256 value) internal {... */\n      pop\n      pop\n      pop\n      jump\t// out\n        /* \"@openzeppelin/contracts/token/ERC20/ERC20.sol\":9605:10037  function _approve(address owner, address spender, uint256 value, bool emitEvent) internal virtual {... */\n    tag_337:\n        /* \"@openzeppelin/contracts/token/ERC20/ERC20.sol\":9734:9735  0 */\n      0x00\n        /* \"@openzeppelin/contracts/token/ERC20/ERC20.sol\":9717:9736  owner == address(0) */\n      0xffffffffffffffffffffffffffffffffffffffff\n      and\n        /* \"@openzeppelin/contracts/token/ERC20/ERC20.sol\":9717:9722  owner */\n      dup5\n        /* \"@openzeppelin/contracts/token/ERC20/ERC20.sol\":9717:9736  owner == address(0) */\n      0xffffffffffffffffffffffffffffffffffffffff\n      and\n      sub\n        /* \"@openzeppelin/contracts/token/ERC20/ERC20.sol\":9713:9802  if (owner == address(0)) {... */\n      tag_396\n      jumpi\n        /* \"@openzeppelin/contracts/token/ERC20/ERC20.sol\":9788:9789  0 */\n      0x00\n        /* \"@openzeppelin/contracts/token/ERC20/ERC20.sol\":9759:9791  ERC20InvalidApprover(address(0)) */\n      mload(0x40)\n      0xe602df0500000000000000000000000000000000000000000000000000000000\n      dup2\n      mstore\n      0x04\n      add\n      tag_397\n      swap2\n      swap1\n      tag_104\n      jump\t// in\n    tag_397:\n      mload(0x40)\n      dup1\n      swap2\n      sub\n      swap1\n      revert\n        /* \"@openzeppelin/contracts/token/ERC20/ERC20.sol\":9713:9802  if (owner == address(0)) {... */\n    tag_396:\n        /* \"@openzeppelin/contracts/token/ERC20/ERC20.sol\":9834:9835  0 */\n      0x00\n        /* \"@openzeppelin/contracts/token/ERC20/ERC20.sol\":9815:9836  spender == address(0) */\n      0xffffffffffffffffffffffffffffffffffffffff\n      and\n        /* \"@openzeppelin/contracts/token/ERC20/ERC20.sol\":9815:9822  spender */\n      dup4\n        /* \"@openzeppelin/contracts/token/ERC20/ERC20.sol\":9815:9836  spender == address(0) */\n      0xffffffffffffffffffffffffffffffffffffffff\n      and\n      sub\n        /* \"@openzeppelin/contracts/token/ERC20/ERC20.sol\":9811:9901  if (spender == address(0)) {... */\n      tag_398\n      jumpi\n        /* \"@openzeppelin/contracts/token/ERC20/ERC20.sol\":9887:9888  0 */\n      0x00\n        /* \"@openzeppelin/contracts/token/ERC20/ERC20.sol\":9859:9890  ERC20InvalidSpender(address(0)) */\n      mload(0x40)\n      0x94280d6200000000000000000000000000000000000000000000000000000000\n      dup2\n      mstore\n      0x04\n      add\n      tag_399\n      swap2\n      swap1\n      tag_104\n      jump\t// in\n    tag_399:\n      mload(0x40)\n      dup1\n      swap2\n      sub\n      swap1\n      revert\n        /* \"@openzeppelin/contracts/token/ERC20/ERC20.sol\":9811:9901  if (spender == address(0)) {... */\n    tag_398:\n        /* \"@openzeppelin/contracts/token/ERC20/ERC20.sol\":9940:9945  value */\n      dup2\n        /* \"@openzeppelin/contracts/token/ERC20/ERC20.sol\":9910:9921  _allowances */\n      0x01\n        /* \"@openzeppelin/contracts/token/ERC20/ERC20.sol\":9910:9928  _allowances[owner] */\n      0x00\n        /* \"@openzeppelin/contracts/token/ERC20/ERC20.sol\":9922:9927  owner */\n      dup7\n        /* \"@openzeppelin/contracts/token/ERC20/ERC20.sol\":9910:9928  _allowances[owner] */\n      0xffffffffffffffffffffffffffffffffffffffff\n      and\n      0xffffffffffffffffffffffffffffffffffffffff\n      and\n      dup2\n      mstore\n      0x20\n      add\n      swap1\n      dup2\n      mstore\n      0x20\n      add\n      0x00\n      keccak256\n        /* \"@openzeppelin/contracts/token/ERC20/ERC20.sol\":9910:9937  _allowances[owner][spender] */\n      0x00\n        /* \"@openzeppelin/contracts/token/ERC20/ERC20.sol\":9929:9936  spender */\n      dup6\n        /* \"@openzeppelin/contracts/token/ERC20/ERC20.sol\":9910:9937  _allowances[owner][spender] */\n      0xffffffffffffffffffffffffffffffffffffffff\n      and\n      0xffffffffffffffffffffffffffffffffffffffff\n      and\n      dup2\n      mstore\n      0x20\n      add\n      swap1\n      dup2\n      mstore\n      0x20\n      add\n      0x00\n      keccak256\n        /* \"@openzeppelin/contracts/token/ERC20/ERC20.sol\":9910:9945  _allowances[owner][spender] = value */\n      dup2\n      swap1\n      sstore\n      pop\n        /* \"@openzeppelin/contracts/token/ERC20/ERC20.sol\":9959:9968  emitEvent */\n      dup1\n        /* \"@openzeppelin/contracts/token/ERC20/ERC20.sol\":9955:10031  if (emitEvent) {... */\n      iszero\n      tag_400\n      jumpi\n        /* \"@openzeppelin/contracts/token/ERC20/ERC20.sol\":10005:10012  spender */\n      dup3\n        /* \"@openzeppelin/contracts/token/ERC20/ERC20.sol\":9989:10020  Approval(owner, spender, value) */\n      0xffffffffffffffffffffffffffffffffffffffff\n      and\n        /* \"@openzeppelin/contracts/token/ERC20/ERC20.sol\":9998:10003  owner */\n      dup5\n        /* \"@openzeppelin/contracts/token/ERC20/ERC20.sol\":9989:10020  Approval(owner, spender, value) */\n      0xffffffffffffffffffffffffffffffffffffffff\n      and\n      0x8c5be1e5ebec7d5bd14f71427d1e84f3dd0314c0f7b2291e5b200ac8c7c3b925\n        /* \"@openzeppelin/contracts/token/ERC20/ERC20.sol\":10014:10019  value */\n      dup5\n        /* \"@openzeppelin/contracts/token/ERC20/ERC20.sol\":9989:10020  Approval(owner, spender, value) */\n      mload(0x40)\n      tag_401\n      swap2\n      swap1\n      tag_59\n      jump\t// in\n    tag_401:\n      mload(0x40)\n      dup1\n      swap2\n      sub\n      swap1\n      log3\n        /* \"@openzeppelin/contracts/token/ERC20/ERC20.sol\":9955:10031  if (emitEvent) {... */\n    tag_400:\n        /* \"@openzeppelin/contracts/token/ERC20/ERC20.sol\":9605:10037  function _approve(address owner, address spender, uint256 value, bool emitEvent) internal virtual {... */\n      pop\n      pop\n      pop\n      pop\n      jump\t// out\n        /* \"@openzeppelin/contracts/token/ERC20/ERC20.sol\":5912:7019  function _update(address from, address to, uint256 value) internal virtual {... */\n    tag_351:\n        /* \"@openzeppelin/contracts/token/ERC20/ERC20.sol\":6017:6018  0 */\n      0x00\n        /* \"@openzeppelin/contracts/token/ERC20/ERC20.sol\":6001:6019  from == address(0) */\n      0xffffffffffffffffffffffffffffffffffffffff\n      and\n        /* \"@openzeppelin/contracts/token/ERC20/ERC20.sol\":6001:6005  from */\n      dup4\n        /* \"@openzeppelin/contracts/token/ERC20/ERC20.sol\":6001:6019  from == address(0) */\n      0xffffffffffffffffffffffffffffffffffffffff\n      and\n      sub\n        /* \"@openzeppelin/contracts/token/ERC20/ERC20.sol\":5997:6537  if (from == address(0)) {... */\n      tag_403\n      jumpi\n        /* \"@openzeppelin/contracts/token/ERC20/ERC20.sol\":6153:6158  value */\n      dup1\n        /* \"@openzeppelin/contracts/token/ERC20/ERC20.sol\":6137:6149  _totalSupply */\n      0x02\n      0x00\n        /* \"@openzeppelin/contracts/token/ERC20/ERC20.sol\":6137:6158  _totalSupply += value */\n      dup3\n      dup3\n      sload\n      tag_404\n      swap2\n      swap1\n      tag_405\n      jump\t// in\n    tag_404:\n      swap3\n      pop\n      pop\n      dup2\n      swap1\n      sstore\n      pop\n        /* \"@openzeppelin/contracts/token/ERC20/ERC20.sol\":5997:6537  if (from == address(0)) {... */\n      jump(tag_406)\n    tag_403:\n        /* \"@openzeppelin/contracts/token/ERC20/ERC20.sol\":6189:6208  uint256 fromBalance */\n      0x00\n        /* \"@openzeppelin/contracts/token/ERC20/ERC20.sol\":6211:6220  _balances */\n      0x00\n        /* \"@openzeppelin/contracts/token/ERC20/ERC20.sol\":6211:6226  _balances[from] */\n      0x00\n        /* \"@openzeppelin/contracts/token/ERC20/ERC20.sol\":6221:6225  from */\n      dup6\n        /* \"@openzeppelin/contracts/token/ERC20/ERC20.sol\":6211:6226  _balances[from] */\n      0xffffffffffffffffffffffffffffffffffffffff\n      and\n      0xffffffffffffffffffffffffffffffffffffffff\n      and\n      dup2\n      mstore\n      0x20\n      add\n      swap1\n      dup2\n      mstore\n      0x20\n      add\n      0x00\n      keccak256\n      sload\n        /* \"@openzeppelin/contracts/token/ERC20/ERC20.sol\":6189:6226  uint256 fromBalance = _balances[from] */\n      swap1\n      pop\n        /* \"@openzeppelin/contracts/token/ERC20/ERC20.sol\":6258:6263  value */\n      dup2\n        /* \"@openzeppelin/contracts/token/ERC20/ERC20.sol\":6244:6255  fromBalance */\n      dup2\n        /* \"@openzeppelin/contracts/token/ERC20/ERC20.sol\":6244:6263  fromBalance < value */\n      lt\n        /* \"@openzeppelin/contracts/token/ERC20/ERC20.sol\":6240:6355  if (fromBalance < value) {... */\n      iszero\n      tag_407\n      jumpi\n        /* \"@openzeppelin/contracts/token/ERC20/ERC20.sol\":6315:6319  from */\n      dup4\n        /* \"@openzeppelin/contracts/token/ERC20/ERC20.sol\":6321:6332  fromBalance */\n      dup2\n        /* \"@openzeppelin/contracts/token/ERC20/ERC20.sol\":6334:6339  value */\n      dup4\n        /* \"@openzeppelin/contracts/token/ERC20/ERC20.sol\":6290:6340  ERC20InsufficientBalance(from, fromBalance, value) */\n      mload(0x40)\n      0xe450d38c00000000000000000000000000000000000000000000000000000000\n      dup2\n      mstore\n      0x04\n      add\n      tag_408\n      swap4\n      swap3\n      swap2\n      swap1\n      tag_343\n      jump\t// in\n    tag_408:\n      mload(0x40)\n      dup1\n      swap2\n      sub\n      swap1\n      revert\n        /* \"@openzeppelin/contracts/token/ERC20/ERC20.sol\":6240:6355  if (fromBalance < value) {... */\n    tag_407:\n        /* \"@openzeppelin/contracts/token/ERC20/ERC20.sol\":6507:6512  value */\n      dup2\n        /* \"@openzeppelin/contracts/token/ERC20/ERC20.sol\":6493:6504  fromBalance */\n      dup2\n        /* \"@openzeppelin/contracts/token/ERC20/ERC20.sol\":6493:6512  fromBalance - value */\n      sub\n        /* \"@openzeppelin/contracts/token/ERC20/ERC20.sol\":6475:6484  _balances */\n      0x00\n        /* \"@openzeppelin/contracts/token/ERC20/ERC20.sol\":6475:6490  _balances[from] */\n      0x00\n        /* \"@openzeppelin/contracts/token/ERC20/ERC20.sol\":6485:6489  from */\n      dup7\n        /* \"@openzeppelin/contracts/token/ERC20/ERC20.sol\":6475:6490  _balances[from] */\n      0xffffffffffffffffffffffffffffffffffffffff\n      and\n      0xffffffffffffffffffffffffffffffffffffffff\n      and\n      dup2\n      mstore\n      0x20\n      add\n      swap1\n      dup2\n      mstore\n      0x20\n      add\n      0x00\n      keccak256\n        /* \"@openzeppelin/contracts/token/ERC20/ERC20.sol\":6475:6512  _balances[from] = fromBalance - value */\n      dup2\n      swap1\n      sstore\n      pop\n        /* \"@openzeppelin/contracts/token/ERC20/ERC20.sol\":6175:6537  {... */\n      pop\n        /* \"@openzeppelin/contracts/token/ERC20/ERC20.sol\":5997:6537  if (from == address(0)) {... */\n    tag_406:\n        /* \"@openzeppelin/contracts/token/ERC20/ERC20.sol\":6565:6566  0 */\n      0x00\n        /* \"@openzeppelin/contracts/token/ERC20/ERC20.sol\":6551:6567  to == address(0) */\n      0xffffffffffffffffffffffffffffffffffffffff\n      and\n        /* \"@openzeppelin/contracts/token/ERC20/ERC20.sol\":6551:6553  to */\n      dup3\n        /* \"@openzeppelin/contracts/token/ERC20/ERC20.sol\":6551:6567  to == address(0) */\n      0xffffffffffffffffffffffffffffffffffffffff\n      and\n      sub\n        /* \"@openzeppelin/contracts/token/ERC20/ERC20.sol\":6547:6972  if (to == address(0)) {... */\n      tag_409\n      jumpi\n        /* \"@openzeppelin/contracts/token/ERC20/ERC20.sol\":6730:6735  value */\n      dup1\n        /* \"@openzeppelin/contracts/token/ERC20/ERC20.sol\":6714:6726  _totalSupply */\n      0x02\n      0x00\n        /* \"@openzeppelin/contracts/token/ERC20/ERC20.sol\":6714:6735  _totalSupply -= value */\n      dup3\n      dup3\n      sload\n      sub\n      swap3\n      pop\n      pop\n      dup2\n      swap1\n      sstore\n      pop\n        /* \"@openzeppelin/contracts/token/ERC20/ERC20.sol\":6547:6972  if (to == address(0)) {... */\n      jump(tag_410)\n    tag_409:\n        /* \"@openzeppelin/contracts/token/ERC20/ERC20.sol\":6942:6947  value */\n      dup1\n        /* \"@openzeppelin/contracts/token/ERC20/ERC20.sol\":6925:6934  _balances */\n      0x00\n        /* \"@openzeppelin/contracts/token/ERC20/ERC20.sol\":6925:6938  _balances[to] */\n      0x00\n        /* \"@openzeppelin/contracts/token/ERC20/ERC20.sol\":6935:6937  to */\n      dup5\n        /* \"@openzeppelin/contracts/token/ERC20/ERC20.sol\":6925:6938  _balances[to] */\n      0xffffffffffffffffffffffffffffffffffffffff\n      and\n      0xffffffffffffffffffffffffffffffffffffffff\n      and\n      dup2\n      mstore\n      0x20\n      add\n      swap1\n      dup2\n      mstore\n      0x20\n      add\n      0x00\n      keccak256\n      0x00\n        /* \"@openzeppelin/contracts/token/ERC20/ERC20.sol\":6925:6947  _balances[to] += value */\n      dup3\n      dup3\n      sload\n      add\n      swap3\n      pop\n      pop\n      dup2\n      swap1\n      sstore\n      pop\n        /* \"@openzeppelin/contracts/token/ERC20/ERC20.sol\":6547:6972  if (to == address(0)) {... */\n    tag_410:\n        /* \"@openzeppelin/contracts/token/ERC20/ERC20.sol\":7002:7004  to */\n      dup2\n        /* \"@openzeppelin/contracts/token/ERC20/ERC20.sol\":6987:7012  Transfer(from, to, value) */\n      0xffffffffffffffffffffffffffffffffffffffff\n      and\n        /* \"@openzeppelin/contracts/token/ERC20/ERC20.sol\":6996:7000  from */\n      dup4\n        /* \"@openzeppelin/contracts/token/ERC20/ERC20.sol\":6987:7012  Transfer(from, to, value) */\n      0xffffffffffffffffffffffffffffffffffffffff\n      and\n      0xddf252ad1be2c89b69c2b068fc378daa952ba7f163c4a11628f55a4df523b3ef\n        /* \"@openzeppelin/contracts/token/ERC20/ERC20.sol\":7006:7011  value */\n      dup4\n        /* \"@openzeppelin/contracts/token/ERC20/ERC20.sol\":6987:7012  Transfer(from, to, value) */\n      mload(0x40)\n      tag_411\n      swap2\n      swap1\n      tag_59\n      jump\t// in\n    tag_411:\n      mload(0x40)\n      dup1\n      swap2\n      sub\n      swap1\n      log3\n        /* \"@openzeppelin/contracts/token/ERC20/ERC20.sol\":5912:7019  function _update(address from, address to, uint256 value) internal virtual {... */\n      pop\n      pop\n      pop\n      jump\t// out\n        /* \"@openzeppelin/contracts/access/AccessControl.sol\":3408:3605  function _checkRole(bytes32 role, address account) internal view virtual {... */\n    tag_355:\n        /* \"@openzeppelin/contracts/access/AccessControl.sol\":3496:3518  hasRole(role, account) */\n      tag_413\n        /* \"@openzeppelin/contracts/access/AccessControl.sol\":3504:3508  role */\n      dup3\n        /* \"@openzeppelin/contracts/access/AccessControl.sol\":3510:3517  account */\n      dup3\n        /* \"@openzeppelin/contracts/access/AccessControl.sol\":3496:3503  hasRole */\n      tag_107\n        /* \"@openzeppelin/contracts/access/AccessControl.sol\":3496:3518  hasRole(role, account) */\n      jump\t// in\n    tag_413:\n        /* \"@openzeppelin/contracts/access/AccessControl.sol\":3491:3599  if (!hasRole(role, account)) {... */\n      tag_414\n      jumpi\n        /* \"@openzeppelin/contracts/access/AccessControl.sol\":3574:3581  account */\n      dup1\n        /* \"@openzeppelin/contracts/access/AccessControl.sol\":3583:3587  role */\n      dup3\n        /* \"@openzeppelin/contracts/access/AccessControl.sol\":3541:3588  AccessControlUnauthorizedAccount(account, role) */\n      mload(0x40)\n      0xe2517d3f00000000000000000000000000000000000000000000000000000000\n      dup2\n      mstore\n      0x04\n      add\n      tag_415\n      swap3\n      swap2\n      swap1\n      tag_416\n      jump\t// in\n    tag_415:\n      mload(0x40)\n      dup1\n      swap2\n      sub\n      swap1\n      revert\n        /* \"@openzeppelin/contracts/access/AccessControl.sol\":3491:3599  if (!hasRole(role, account)) {... */\n    tag_414:\n        /* \"@openzeppelin/contracts/access/AccessControl.sol\":3408:3605  function _checkRole(bytes32 role, address account) internal view virtual {... */\n      pop\n      pop\n      jump\t// out\n        /* \"@openzeppelin/contracts/token/ERC20/utils/SafeERC20.sol\":8370:9090  function _callOptionalReturn(IERC20 token, bytes memory data) private {... */\n    tag_381:\n        /* \"@openzeppelin/contracts/token/ERC20/utils/SafeERC20.sol\":8450:8468  uint256 returnSize */\n      0x00\n        /* \"@openzeppelin/contracts/token/ERC20/utils/SafeERC20.sol\":8478:8497  uint256 returnValue */\n      0x00\n        /* \"@openzeppelin/contracts/token/ERC20/utils/SafeERC20.sol\":8616:8620  0x20 */\n      0x20\n        /* \"@openzeppelin/contracts/token/ERC20/utils/SafeERC20.sol\":8613:8614  0 */\n      0x00\n        /* \"@openzeppelin/contracts/token/ERC20/utils/SafeERC20.sol\":8606:8610  data */\n      dup5\n        /* \"@openzeppelin/contracts/token/ERC20/utils/SafeERC20.sol\":8600:8611  mload(data) */\n      mload\n        /* \"@openzeppelin/contracts/token/ERC20/utils/SafeERC20.sol\":8593:8597  0x20 */\n      0x20\n        /* \"@openzeppelin/contracts/token/ERC20/utils/SafeERC20.sol\":8587:8591  data */\n      dup7\n        /* \"@openzeppelin/contracts/token/ERC20/utils/SafeERC20.sol\":8583:8598  add(data, 0x20) */\n      add\n        /* \"@openzeppelin/contracts/token/ERC20/utils/SafeERC20.sol\":8580:8581  0 */\n      0x00\n        /* \"@openzeppelin/contracts/token/ERC20/utils/SafeERC20.sol\":8573:8578  token */\n      dup9\n        /* \"@openzeppelin/contracts/token/ERC20/utils/SafeERC20.sol\":8566:8571  gas() */\n      gas\n        /* \"@openzeppelin/contracts/token/ERC20/utils/SafeERC20.sol\":8561:8621  call(gas(), token, 0, add(data, 0x20), mload(data), 0, 0x20) */\n      call\n        /* \"@openzeppelin/contracts/token/ERC20/utils/SafeERC20.sol\":8673:8680  success */\n      dup1\n        /* \"@openzeppelin/contracts/token/ERC20/utils/SafeERC20.sol\":8663:8839  if iszero(success) {... */\n      tag_418\n      jumpi\n        /* \"@openzeppelin/contracts/token/ERC20/utils/SafeERC20.sol\":8717:8721  0x40 */\n      0x40\n        /* \"@openzeppelin/contracts/token/ERC20/utils/SafeERC20.sol\":8711:8722  mload(0x40) */\n      mload\n        /* \"@openzeppelin/contracts/token/ERC20/utils/SafeERC20.sol\":8762:8778  returndatasize() */\n      returndatasize\n        /* \"@openzeppelin/contracts/token/ERC20/utils/SafeERC20.sol\":8759:8760  0 */\n      0x00\n        /* \"@openzeppelin/contracts/token/ERC20/utils/SafeERC20.sol\":8754:8757  ptr */\n      dup3\n        /* \"@openzeppelin/contracts/token/ERC20/utils/SafeERC20.sol\":8739:8779  returndatacopy(ptr, 0, returndatasize()) */\n      returndatacopy\n        /* \"@openzeppelin/contracts/token/ERC20/utils/SafeERC20.sol\":8808:8824  returndatasize() */\n      returndatasize\n        /* \"@openzeppelin/contracts/token/ERC20/utils/SafeERC20.sol\":8803:8806  ptr */\n      dup2\n        /* \"@openzeppelin/contracts/token/ERC20/utils/SafeERC20.sol\":8796:8825  revert(ptr, returndatasize()) */\n      revert\n        /* \"@openzeppelin/contracts/token/ERC20/utils/SafeERC20.sol\":8663:8839  if iszero(success) {... */\n    tag_418:\n        /* \"@openzeppelin/contracts/token/ERC20/utils/SafeERC20.sol\":8866:8882  returndatasize() */\n      returndatasize\n        /* \"@openzeppelin/contracts/token/ERC20/utils/SafeERC20.sol\":8852:8882  returnSize := returndatasize() */\n      swap3\n      pop\n        /* \"@openzeppelin/contracts/token/ERC20/utils/SafeERC20.sol\":8916:8917  0 */\n      0x00\n        /* \"@openzeppelin/contracts/token/ERC20/utils/SafeERC20.sol\":8910:8918  mload(0) */\n      mload\n        /* \"@openzeppelin/contracts/token/ERC20/utils/SafeERC20.sol\":8895:8918  returnValue := mload(0) */\n      swap2\n      pop\n        /* \"@openzeppelin/contracts/token/ERC20/utils/SafeERC20.sol\":8532:8928  {... */\n      pop\n        /* \"@openzeppelin/contracts/token/ERC20/utils/SafeERC20.sol\":8956:8957  0 */\n      0x00\n        /* \"@openzeppelin/contracts/token/ERC20/utils/SafeERC20.sol\":8942:8952  returnSize */\n      dup3\n        /* \"@openzeppelin/contracts/token/ERC20/utils/SafeERC20.sol\":8942:8957  returnSize == 0 */\n      eq\n        /* \"@openzeppelin/contracts/token/ERC20/utils/SafeERC20.sol\":8942:9010  returnSize == 0 ? address(token).code.length == 0 : returnValue != 1 */\n      tag_419\n      jumpi\n        /* \"@openzeppelin/contracts/token/ERC20/utils/SafeERC20.sol\":9009:9010  1 */\n      0x01\n        /* \"@openzeppelin/contracts/token/ERC20/utils/SafeERC20.sol\":8994:9005  returnValue */\n      dup2\n        /* \"@openzeppelin/contracts/token/ERC20/utils/SafeERC20.sol\":8994:9010  returnValue != 1 */\n      eq\n      iszero\n        /* \"@openzeppelin/contracts/token/ERC20/utils/SafeERC20.sol\":8942:9010  returnSize == 0 ? address(token).code.length == 0 : returnValue != 1 */\n      jump(tag_420)\n    tag_419:\n        /* \"@openzeppelin/contracts/token/ERC20/utils/SafeERC20.sol\":8990:8991  0 */\n      0x00\n        /* \"@openzeppelin/contracts/token/ERC20/utils/SafeERC20.sol\":8968:8973  token */\n      dup5\n        /* \"@openzeppelin/contracts/token/ERC20/utils/SafeERC20.sol\":8960:8986  address(token).code.length */\n      0xffffffffffffffffffffffffffffffffffffffff\n      and\n      extcodesize\n        /* \"@openzeppelin/contracts/token/ERC20/utils/SafeERC20.sol\":8960:8991  address(token).code.length == 0 */\n      eq\n        /* \"@openzeppelin/contracts/token/ERC20/utils/SafeERC20.sol\":8942:9010  returnSize == 0 ? address(token).code.length == 0 : returnValue != 1 */\n    tag_420:\n        /* \"@openzeppelin/contracts/token/ERC20/utils/SafeERC20.sol\":8938:9084  if (returnSize == 0 ? address(token).code.length == 0 : returnValue != 1) {... */\n      iszero\n      tag_421\n      jumpi\n        /* \"@openzeppelin/contracts/token/ERC20/utils/SafeERC20.sol\":9066:9071  token */\n      dup4\n        /* \"@openzeppelin/contracts/token/ERC20/utils/SafeERC20.sol\":9033:9073  SafeERC20FailedOperation(address(token)) */\n      mload(0x40)\n      0x5274afe700000000000000000000000000000000000000000000000000000000\n      dup2\n      mstore\n      0x04\n      add\n      tag_422\n      swap2\n      swap1\n      tag_104\n      jump\t// in\n    tag_422:\n      mload(0x40)\n      dup1\n      swap2\n      sub\n      swap1\n      revert\n        /* \"@openzeppelin/contracts/token/ERC20/utils/SafeERC20.sol\":8938:9084  if (returnSize == 0 ? address(token).code.length == 0 : returnValue != 1) {... */\n    tag_421:\n        /* \"@openzeppelin/contracts/token/ERC20/utils/SafeERC20.sol\":8440:9090  {... */\n      pop\n      pop\n        /* \"@openzeppelin/contracts/token/ERC20/utils/SafeERC20.sol\":8370:9090  function _callOptionalReturn(IERC20 token, bytes memory data) private {... */\n      pop\n      pop\n      jump\t// out\n        /* \"#utility.yul\":88:205   */\n    tag_424:\n        /* \"#utility.yul\":197:198   */\n      0x00\n        /* \"#utility.yul\":194:195   */\n      0x00\n        /* \"#utility.yul\":187:199   */\n      revert\n        /* \"#utility.yul\":334:483   */\n    tag_426:\n        /* \"#utility.yul\":370:377   */\n      0x00\n        /* \"#utility.yul\":410:476   */\n      0xffffffff00000000000000000000000000000000000000000000000000000000\n        /* \"#utility.yul\":403:408   */\n      dup3\n        /* \"#utility.yul\":399:477   */\n      and\n        /* \"#utility.yul\":388:477   */\n      swap1\n      pop\n        /* \"#utility.yul\":334:483   */\n      swap2\n      swap1\n      pop\n      jump\t// out\n        /* \"#utility.yul\":489:609   */\n    tag_427:\n        /* \"#utility.yul\":561:584   */\n      tag_483\n        /* \"#utility.yul\":578:583   */\n      dup2\n        /* \"#utility.yul\":561:584   */\n      tag_426\n      jump\t// in\n    tag_483:\n        /* \"#utility.yul\":554:559   */\n      dup2\n        /* \"#utility.yul\":551:585   */\n      eq\n        /* \"#utility.yul\":541:603   */\n      tag_484\n      jumpi\n        /* \"#utility.yul\":599:600   */\n      0x00\n        /* \"#utility.yul\":596:597   */\n      0x00\n        /* \"#utility.yul\":589:601   */\n      revert\n        /* \"#utility.yul\":541:603   */\n    tag_484:\n        /* \"#utility.yul\":489:609   */\n      pop\n      jump\t// out\n        /* \"#utility.yul\":615:752   */\n    tag_428:\n        /* \"#utility.yul\":660:665   */\n      0x00\n        /* \"#utility.yul\":698:704   */\n      dup2\n        /* \"#utility.yul\":685:705   */\n      calldataload\n        /* \"#utility.yul\":676:705   */\n      swap1\n      pop\n        /* \"#utility.yul\":714:746   */\n      tag_486\n        /* \"#utility.yul\":740:745   */\n      dup2\n        /* \"#utility.yul\":714:746   */\n      tag_427\n      jump\t// in\n    tag_486:\n        /* \"#utility.yul\":615:752   */\n      swap3\n      swap2\n      pop\n      pop\n      jump\t// out\n        /* \"#utility.yul\":758:1085   */\n    tag_43:\n        /* \"#utility.yul\":816:822   */\n      0x00\n        /* \"#utility.yul\":865:867   */\n      0x20\n        /* \"#utility.yul\":853:862   */\n      dup3\n        /* \"#utility.yul\":844:851   */\n      dup5\n        /* \"#utility.yul\":840:863   */\n      sub\n        /* \"#utility.yul\":836:868   */\n      slt\n        /* \"#utility.yul\":833:952   */\n      iszero\n      tag_488\n      jumpi\n        /* \"#utility.yul\":871:950   */\n      tag_489\n      tag_424\n      jump\t// in\n    tag_489:\n        /* \"#utility.yul\":833:952   */\n    tag_488:\n        /* \"#utility.yul\":991:992   */\n      0x00\n        /* \"#utility.yul\":1016:1068   */\n      tag_490\n        /* \"#utility.yul\":1060:1067   */\n      dup5\n        /* \"#utility.yul\":1051:1057   */\n      dup3\n        /* \"#utility.yul\":1040:1049   */\n      dup6\n        /* \"#utility.yul\":1036:1058   */\n      add\n        /* \"#utility.yul\":1016:1068   */\n      tag_428\n      jump\t// in\n    tag_490:\n        /* \"#utility.yul\":1006:1068   */\n      swap2\n      pop\n        /* \"#utility.yul\":962:1078   */\n      pop\n        /* \"#utility.yul\":758:1085   */\n      swap3\n      swap2\n      pop\n      pop\n      jump\t// out\n        /* \"#utility.yul\":1091:1181   */\n    tag_429:\n        /* \"#utility.yul\":1125:1132   */\n      0x00\n        /* \"#utility.yul\":1168:1173   */\n      dup2\n        /* \"#utility.yul\":1161:1174   */\n      iszero\n        /* \"#utility.yul\":1154:1175   */\n      iszero\n        /* \"#utility.yul\":1143:1175   */\n      swap1\n      pop\n        /* \"#utility.yul\":1091:1181   */\n      swap2\n      swap1\n      pop\n      jump\t// out\n        /* \"#utility.yul\":1187:1296   */\n    tag_430:\n        /* \"#utility.yul\":1268:1289   */\n      tag_493\n        /* \"#utility.yul\":1283:1288   */\n      dup2\n        /* \"#utility.yul\":1268:1289   */\n      tag_429\n      jump\t// in\n    tag_493:\n        /* \"#utility.yul\":1263:1266   */\n      dup3\n        /* \"#utility.yul\":1256:1290   */\n      mstore\n        /* \"#utility.yul\":1187:1296   */\n      pop\n      pop\n      jump\t// out\n        /* \"#utility.yul\":1302:1512   */\n    tag_46:\n        /* \"#utility.yul\":1389:1393   */\n      0x00\n        /* \"#utility.yul\":1427:1429   */\n      0x20\n        /* \"#utility.yul\":1416:1425   */\n      dup3\n        /* \"#utility.yul\":1412:1430   */\n      add\n        /* \"#utility.yul\":1404:1430   */\n      swap1\n      pop\n        /* \"#utility.yul\":1440:1505   */\n      tag_495\n        /* \"#utility.yul\":1502:1503   */\n      0x00\n        /* \"#utility.yul\":1491:1500   */\n      dup4\n        /* \"#utility.yul\":1487:1504   */\n      add\n        /* \"#utility.yul\":1478:1484   */\n      dup5\n        /* \"#utility.yul\":1440:1505   */\n      tag_430\n      jump\t// in\n    tag_495:\n        /* \"#utility.yul\":1302:1512   */\n      swap3\n      swap2\n      pop\n      pop\n      jump\t// out\n        /* \"#utility.yul\":1518:1617   */\n    tag_431:\n        /* \"#utility.yul\":1570:1576   */\n      0x00\n        /* \"#utility.yul\":1604:1609   */\n      dup2\n        /* \"#utility.yul\":1598:1610   */\n      mload\n        /* \"#utility.yul\":1588:1610   */\n      swap1\n      pop\n        /* \"#utility.yul\":1518:1617   */\n      swap2\n      swap1\n      pop\n      jump\t// out\n        /* \"#utility.yul\":1623:1792   */\n    tag_432:\n        /* \"#utility.yul\":1707:1718   */\n      0x00\n        /* \"#utility.yul\":1741:1747   */\n      dup3\n        /* \"#utility.yul\":1736:1739   */\n      dup3\n        /* \"#utility.yul\":1729:1748   */\n      mstore\n        /* \"#utility.yul\":1781:1785   */\n      0x20\n        /* \"#utility.yul\":1776:1779   */\n      dup3\n        /* \"#utility.yul\":1772:1786   */\n      add\n        /* \"#utility.yul\":1757:1786   */\n      swap1\n      pop\n        /* \"#utility.yul\":1623:1792   */\n      swap3\n      swap2\n      pop\n      pop\n      jump\t// out\n        /* \"#utility.yul\":1798:1937   */\n    tag_433:\n        /* \"#utility.yul\":1887:1893   */\n      dup3\n        /* \"#utility.yul\":1882:1885   */\n      dup2\n        /* \"#utility.yul\":1877:1880   */\n      dup4\n        /* \"#utility.yul\":1871:1894   */\n      mcopy\n        /* \"#utility.yul\":1928:1929   */\n      0x00\n        /* \"#utility.yul\":1919:1925   */\n      dup4\n        /* \"#utility.yul\":1914:1917   */\n      dup4\n        /* \"#utility.yul\":1910:1926   */\n      add\n        /* \"#utility.yul\":1903:1930   */\n      mstore\n        /* \"#utility.yul\":1798:1937   */\n      pop\n      pop\n      pop\n      jump\t// out\n        /* \"#utility.yul\":1943:2045   */\n    tag_434:\n        /* \"#utility.yul\":1984:1990   */\n      0x00\n        /* \"#utility.yul\":2035:2037   */\n      0x1f\n        /* \"#utility.yul\":2031:2038   */\n      not\n        /* \"#utility.yul\":2026:2028   */\n      0x1f\n        /* \"#utility.yul\":2019:2024   */\n      dup4\n        /* \"#utility.yul\":2015:2029   */\n      add\n        /* \"#utility.yul\":2011:2039   */\n      and\n        /* \"#utility.yul\":2001:2039   */\n      swap1\n      pop\n        /* \"#utility.yul\":1943:2045   */\n      swap2\n      swap1\n      pop\n      jump\t// out\n        /* \"#utility.yul\":2051:2428   */\n    tag_435:\n        /* \"#utility.yul\":2139:2142   */\n      0x00\n        /* \"#utility.yul\":2167:2206   */\n      tag_501\n        /* \"#utility.yul\":2200:2205   */\n      dup3\n        /* \"#utility.yul\":2167:2206   */\n      tag_431\n      jump\t// in\n    tag_501:\n        /* \"#utility.yul\":2222:2293   */\n      tag_502\n        /* \"#utility.yul\":2286:2292   */\n      dup2\n        /* \"#utility.yul\":2281:2284   */\n      dup6\n        /* \"#utility.yul\":2222:2293   */\n      tag_432\n      jump\t// in\n    tag_502:\n        /* \"#utility.yul\":2215:2293   */\n      swap4\n      pop\n        /* \"#utility.yul\":2302:2367   */\n      tag_503\n        /* \"#utility.yul\":2360:2366   */\n      dup2\n        /* \"#utility.yul\":2355:2358   */\n      dup6\n        /* \"#utility.yul\":2348:2352   */\n      0x20\n        /* \"#utility.yul\":2341:2346   */\n      dup7\n        /* \"#utility.yul\":2337:2353   */\n      add\n        /* \"#utility.yul\":2302:2367   */\n      tag_433\n      jump\t// in\n    tag_503:\n        /* \"#utility.yul\":2392:2421   */\n      tag_504\n        /* \"#utility.yul\":2414:2420   */\n      dup2\n        /* \"#utility.yul\":2392:2421   */\n      tag_434\n      jump\t// in\n    tag_504:\n        /* \"#utility.yul\":2387:2390   */\n      dup5\n        /* \"#utility.yul\":2383:2422   */\n      add\n        /* \"#utility.yul\":2376:2422   */\n      swap2\n      pop\n        /* \"#utility.yul\":2143:2428   */\n      pop\n        /* \"#utility.yul\":2051:2428   */\n      swap3\n      swap2\n      pop\n      pop\n      jump\t// out\n        /* \"#utility.yul\":2434:2747   */\n    tag_50:\n        /* \"#utility.yul\":2547:2551   */\n      0x00\n        /* \"#utility.yul\":2585:2587   */\n      0x20\n        /* \"#utility.yul\":2574:2583   */\n      dup3\n        /* \"#utility.yul\":2570:2588   */\n      add\n        /* \"#utility.yul\":2562:2588   */\n      swap1\n      pop\n        /* \"#utility.yul\":2634:2643   */\n      dup2\n        /* \"#utility.yul\":2628:2632   */\n      dup2\n        /* \"#utility.yul\":2624:2644   */\n      sub\n        /* \"#utility.yul\":2620:2621   */\n      0x00\n        /* \"#utility.yul\":2609:2618   */\n      dup4\n        /* \"#utility.yul\":2605:2622   */\n      add\n        /* \"#utility.yul\":2598:2645   */\n      mstore\n        /* \"#utility.yul\":2662:2740   */\n      tag_506\n        /* \"#utility.yul\":2735:2739   */\n      dup2\n        /* \"#utility.yul\":2726:2732   */\n      dup5\n        /* \"#utility.yul\":2662:2740   */\n      tag_435\n      jump\t// in\n    tag_506:\n        /* \"#utility.yul\":2654:2740   */\n      swap1\n      pop\n        /* \"#utility.yul\":2434:2747   */\n      swap3\n      swap2\n      pop\n      pop\n      jump\t// out\n        /* \"#utility.yul\":2753:2879   */\n    tag_436:\n        /* \"#utility.yul\":2790:2797   */\n      0x00\n        /* \"#utility.yul\":2830:2872   */\n      0xffffffffffffffffffffffffffffffffffffffff\n        /* \"#utility.yul\":2823:2828   */\n      dup3\n        /* \"#utility.yul\":2819:2873   */\n      and\n        /* \"#utility.yul\":2808:2873   */\n      swap1\n      pop\n        /* \"#utility.yul\":2753:2879   */\n      swap2\n      swap1\n      pop\n      jump\t// out\n        /* \"#utility.yul\":2885:2981   */\n    tag_437:\n        /* \"#utility.yul\":2922:2929   */\n      0x00\n        /* \"#utility.yul\":2951:2975   */\n      tag_509\n        /* \"#utility.yul\":2969:2974   */\n      dup3\n        /* \"#utility.yul\":2951:2975   */\n      tag_436\n      jump\t// in\n    tag_509:\n        /* \"#utility.yul\":2940:2975   */\n      swap1\n      pop\n        /* \"#utility.yul\":2885:2981   */\n      swap2\n      swap1\n      pop\n      jump\t// out\n        /* \"#utility.yul\":2987:3109   */\n    tag_438:\n        /* \"#utility.yul\":3060:3084   */\n      tag_511\n        /* \"#utility.yul\":3078:3083   */\n      dup2\n        /* \"#utility.yul\":3060:3084   */\n      tag_437\n      jump\t// in\n    tag_511:\n        /* \"#utility.yul\":3053:3058   */\n      dup2\n        /* \"#utility.yul\":3050:3085   */\n      eq\n        /* \"#utility.yul\":3040:3103   */\n      tag_512\n      jumpi\n        /* \"#utility.yul\":3099:3100   */\n      0x00\n        /* \"#utility.yul\":3096:3097   */\n      0x00\n        /* \"#utility.yul\":3089:3101   */\n      revert\n        /* \"#utility.yul\":3040:3103   */\n    tag_512:\n        /* \"#utility.yul\":2987:3109   */\n      pop\n      jump\t// out\n        /* \"#utility.yul\":3115:3254   */\n    tag_439:\n        /* \"#utility.yul\":3161:3166   */\n      0x00\n        /* \"#utility.yul\":3199:3205   */\n      dup2\n        /* \"#utility.yul\":3186:3206   */\n      calldataload\n        /* \"#utility.yul\":3177:3206   */\n      swap1\n      pop\n        /* \"#utility.yul\":3215:3248   */\n      tag_514\n        /* \"#utility.yul\":3242:3247   */\n      dup2\n        /* \"#utility.yul\":3215:3248   */\n      tag_438\n      jump\t// in\n    tag_514:\n        /* \"#utility.yul\":3115:3254   */\n      swap3\n      swap2\n      pop\n      pop\n      jump\t// out\n        /* \"#utility.yul\":3260:3337   */\n    tag_440:\n        /* \"#utility.yul\":3297:3304   */\n      0x00\n        /* \"#utility.yul\":3326:3331   */\n      dup2\n        /* \"#utility.yul\":3315:3331   */\n      swap1\n      pop\n        /* \"#utility.yul\":3260:3337   */\n      swap2\n      swap1\n      pop\n      jump\t// out\n        /* \"#utility.yul\":3343:3465   */\n    tag_441:\n        /* \"#utility.yul\":3416:3440   */\n      tag_517\n        /* \"#utility.yul\":3434:3439   */\n      dup2\n        /* \"#utility.yul\":3416:3440   */\n      tag_440\n      jump\t// in\n    tag_517:\n        /* \"#utility.yul\":3409:3414   */\n      dup2\n        /* \"#utility.yul\":3406:3441   */\n      eq\n        /* \"#utility.yul\":3396:3459   */\n      tag_518\n      jumpi\n        /* \"#utility.yul\":3455:3456   */\n      0x00\n        /* \"#utility.yul\":3452:3453   */\n      0x00\n        /* \"#utility.yul\":3445:3457   */\n      revert\n        /* \"#utility.yul\":3396:3459   */\n    tag_518:\n        /* \"#utility.yul\":3343:3465   */\n      pop\n      jump\t// out\n        /* \"#utility.yul\":3471:3610   */\n    tag_442:\n        /* \"#utility.yul\":3517:3522   */\n      0x00\n        /* \"#utility.yul\":3555:3561   */\n      dup2\n        /* \"#utility.yul\":3542:3562   */\n      calldataload\n        /* \"#utility.yul\":3533:3562   */\n      swap1\n      pop\n        /* \"#utility.yul\":3571:3604   */\n      tag_520\n        /* \"#utility.yul\":3598:3603   */\n      dup2\n        /* \"#utility.yul\":3571:3604   */\n      tag_441\n      jump\t// in\n    tag_520:\n        /* \"#utility.yul\":3471:3610   */\n      swap3\n      swap2\n      pop\n      pop\n      jump\t// out\n        /* \"#utility.yul\":3616:4090   */\n    tag_53:\n        /* \"#utility.yul\":3684:3690   */\n      0x00\n        /* \"#utility.yul\":3692:3698   */\n      0x00\n        /* \"#utility.yul\":3741:3743   */\n      0x40\n        /* \"#utility.yul\":3729:3738   */\n      dup4\n        /* \"#utility.yul\":3720:3727   */\n      dup6\n        /* \"#utility.yul\":3716:3739   */\n      sub\n        /* \"#utility.yul\":3712:3744   */\n      slt\n        /* \"#utility.yul\":3709:3828   */\n      iszero\n      tag_522\n      jumpi\n        /* \"#utility.yul\":3747:3826   */\n      tag_523\n      tag_424\n      jump\t// in\n    tag_523:\n        /* \"#utility.yul\":3709:3828   */\n    tag_522:\n        /* \"#utility.yul\":3867:3868   */\n      0x00\n        /* \"#utility.yul\":3892:3945   */\n      tag_524\n        /* \"#utility.yul\":3937:3944   */\n      dup6\n        /* \"#utility.yul\":3928:3934   */\n      dup3\n        /* \"#utility.yul\":3917:3926   */\n      dup7\n        /* \"#utility.yul\":3913:3935   */\n      add\n        /* \"#utility.yul\":3892:3945   */\n      tag_439\n      jump\t// in\n    tag_524:\n        /* \"#utility.yul\":3882:3945   */\n      swap3\n      pop\n        /* \"#utility.yul\":3838:3955   */\n      pop\n        /* \"#utility.yul\":3994:3996   */\n      0x20\n        /* \"#utility.yul\":4020:4073   */\n      tag_525\n        /* \"#utility.yul\":4065:4072   */\n      dup6\n        /* \"#utility.yul\":4056:4062   */\n      dup3\n        /* \"#utility.yul\":4045:4054   */\n      dup7\n        /* \"#utility.yul\":4041:4063   */\n      add\n        /* \"#utility.yul\":4020:4073   */\n      tag_442\n      jump\t// in\n    tag_525:\n        /* \"#utility.yul\":4010:4073   */\n      swap2\n      pop\n        /* \"#utility.yul\":3965:4083   */\n      pop\n        /* \"#utility.yul\":3616:4090   */\n      swap3\n      pop\n      swap3\n      swap1\n      pop\n      jump\t// out\n        /* \"#utility.yul\":4096:4214   */\n    tag_443:\n        /* \"#utility.yul\":4183:4207   */\n      tag_527\n        /* \"#utility.yul\":4201:4206   */\n      dup2\n        /* \"#utility.yul\":4183:4207   */\n      tag_440\n      jump\t// in\n    tag_527:\n        /* \"#utility.yul\":4178:4181   */\n      dup3\n        /* \"#utility.yul\":4171:4208   */\n      mstore\n        /* \"#utility.yul\":4096:4214   */\n      pop\n      pop\n      jump\t// out\n        /* \"#utility.yul\":4220:4442   */\n    tag_59:\n        /* \"#utility.yul\":4313:4317   */\n      0x00\n        /* \"#utility.yul\":4351:4353   */\n      0x20\n        /* \"#utility.yul\":4340:4349   */\n      dup3\n        /* \"#utility.yul\":4336:4354   */\n      add\n        /* \"#utility.yul\":4328:4354   */\n      swap1\n      pop\n        /* \"#utility.yul\":4364:4435   */\n      tag_529\n        /* \"#utility.yul\":4432:4433   */\n      0x00\n        /* \"#utility.yul\":4421:4430   */\n      dup4\n        /* \"#utility.yul\":4417:4434   */\n      add\n        /* \"#utility.yul\":4408:4414   */\n      dup5\n        /* \"#utility.yul\":4364:4435   */\n      tag_443\n      jump\t// in\n    tag_529:\n        /* \"#utility.yul\":4220:4442   */\n      swap3\n      swap2\n      pop\n      pop\n      jump\t// out\n        /* \"#utility.yul\":4448:4777   */\n    tag_62:\n        /* \"#utility.yul\":4507:4513   */\n      0x00\n        /* \"#utility.yul\":4556:4558   */\n      0x20\n        /* \"#utility.yul\":4544:4553   */\n      dup3\n        /* \"#utility.yul\":4535:4542   */\n      dup5\n        /* \"#utility.yul\":4531:4554   */\n      sub\n        /* \"#utility.yul\":4527:4559   */\n      slt\n        /* \"#utility.yul\":4524:4643   */\n      iszero\n      tag_531\n      jumpi\n        /* \"#utility.yul\":4562:4641   */\n      tag_532\n      tag_424\n      jump\t// in\n    tag_532:\n        /* \"#utility.yul\":4524:4643   */\n    tag_531:\n        /* \"#utility.yul\":4682:4683   */\n      0x00\n        /* \"#utility.yul\":4707:4760   */\n      tag_533\n        /* \"#utility.yul\":4752:4759   */\n      dup5\n        /* \"#utility.yul\":4743:4749   */\n      dup3\n        /* \"#utility.yul\":4732:4741   */\n      dup6\n        /* \"#utility.yul\":4728:4750   */\n      add\n        /* \"#utility.yul\":4707:4760   */\n      tag_442\n      jump\t// in\n    tag_533:\n        /* \"#utility.yul\":4697:4760   */\n      swap2\n      pop\n        /* \"#utility.yul\":4653:4770   */\n      pop\n        /* \"#utility.yul\":4448:4777   */\n      swap3\n      swap2\n      pop\n      pop\n      jump\t// out\n        /* \"#utility.yul\":4783:5402   */\n    tag_67:\n        /* \"#utility.yul\":4860:4866   */\n      0x00\n        /* \"#utility.yul\":4868:4874   */\n      0x00\n        /* \"#utility.yul\":4876:4882   */\n      0x00\n        /* \"#utility.yul\":4925:4927   */\n      0x60\n        /* \"#utility.yul\":4913:4922   */\n      dup5\n        /* \"#utility.yul\":4904:4911   */\n      dup7\n        /* \"#utility.yul\":4900:4923   */\n      sub\n        /* \"#utility.yul\":4896:4928   */\n      slt\n        /* \"#utility.yul\":4893:5012   */\n      iszero\n      tag_535\n      jumpi\n        /* \"#utility.yul\":4931:5010   */\n      tag_536\n      tag_424\n      jump\t// in\n    tag_536:\n        /* \"#utility.yul\":4893:5012   */\n    tag_535:\n        /* \"#utility.yul\":5051:5052   */\n      0x00\n        /* \"#utility.yul\":5076:5129   */\n      tag_537\n        /* \"#utility.yul\":5121:5128   */\n      dup7\n        /* \"#utility.yul\":5112:5118   */\n      dup3\n        /* \"#utility.yul\":5101:5110   */\n      dup8\n        /* \"#utility.yul\":5097:5119   */\n      add\n        /* \"#utility.yul\":5076:5129   */\n      tag_439\n      jump\t// in\n    tag_537:\n        /* \"#utility.yul\":5066:5129   */\n      swap4\n      pop\n        /* \"#utility.yul\":5022:5139   */\n      pop\n        /* \"#utility.yul\":5178:5180   */\n      0x20\n        /* \"#utility.yul\":5204:5257   */\n      tag_538\n        /* \"#utility.yul\":5249:5256   */\n      dup7\n        /* \"#utility.yul\":5240:5246   */\n      dup3\n        /* \"#utility.yul\":5229:5238   */\n      dup8\n        /* \"#utility.yul\":5225:5247   */\n      add\n        /* \"#utility.yul\":5204:5257   */\n      tag_439\n      jump\t// in\n    tag_538:\n        /* \"#utility.yul\":5194:5257   */\n      swap3\n      pop\n        /* \"#utility.yul\":5149:5267   */\n      pop\n        /* \"#utility.yul\":5306:5308   */\n      0x40\n        /* \"#utility.yul\":5332:5385   */\n      tag_539\n        /* \"#utility.yul\":5377:5384   */\n      dup7\n        /* \"#utility.yul\":5368:5374   */\n      dup3\n        /* \"#utility.yul\":5357:5366   */\n      dup8\n        /* \"#utility.yul\":5353:5375   */\n      add\n        /* \"#utility.yul\":5332:5385   */\n      tag_442\n      jump\t// in\n    tag_539:\n        /* \"#utility.yul\":5322:5385   */\n      swap2\n      pop\n        /* \"#utility.yul\":5277:5395   */\n      pop\n        /* \"#utility.yul\":4783:5402   */\n      swap3\n      pop\n      swap3\n      pop\n      swap3\n      jump\t// out\n        /* \"#utility.yul\":5408:5485   */\n    tag_444:\n        /* \"#utility.yul\":5445:5452   */\n      0x00\n        /* \"#utility.yul\":5474:5479   */\n      dup2\n        /* \"#utility.yul\":5463:5479   */\n      swap1\n      pop\n        /* \"#utility.yul\":5408:5485   */\n      swap2\n      swap1\n      pop\n      jump\t// out\n        /* \"#utility.yul\":5491:5613   */\n    tag_445:\n        /* \"#utility.yul\":5564:5588   */\n      tag_542\n        /* \"#utility.yul\":5582:5587   */\n      dup2\n        /* \"#utility.yul\":5564:5588   */\n      tag_444\n      jump\t// in\n    tag_542:\n        /* \"#utility.yul\":5557:5562   */\n      dup2\n        /* \"#utility.yul\":5554:5589   */\n      eq\n        /* \"#utility.yul\":5544:5607   */\n      tag_543\n      jumpi\n        /* \"#utility.yul\":5603:5604   */\n      0x00\n        /* \"#utility.yul\":5600:5601   */\n      0x00\n        /* \"#utility.yul\":5593:5605   */\n      revert\n        /* \"#utility.yul\":5544:5607   */\n    tag_543:\n        /* \"#utility.yul\":5491:5613   */\n      pop\n      jump\t// out\n        /* \"#utility.yul\":5619:5758   */\n    tag_446:\n        /* \"#utility.yul\":5665:5670   */\n      0x00\n        /* \"#utility.yul\":5703:5709   */\n      dup2\n        /* \"#utility.yul\":5690:5710   */\n      calldataload\n        /* \"#utility.yul\":5681:5710   */\n      swap1\n      pop\n        /* \"#utility.yul\":5719:5752   */\n      tag_545\n        /* \"#utility.yul\":5746:5751   */\n      dup2\n        /* \"#utility.yul\":5719:5752   */\n      tag_445\n      jump\t// in\n    tag_545:\n        /* \"#utility.yul\":5619:5758   */\n      swap3\n      swap2\n      pop\n      pop\n      jump\t// out\n        /* \"#utility.yul\":5764:6093   */\n    tag_72:\n        /* \"#utility.yul\":5823:5829   */\n      0x00\n        /* \"#utility.yul\":5872:5874   */\n      0x20\n        /* \"#utility.yul\":5860:5869   */\n      dup3\n        /* \"#utility.yul\":5851:5858   */\n      dup5\n        /* \"#utility.yul\":5847:5870   */\n      sub\n        /* \"#utility.yul\":5843:5875   */\n      slt\n        /* \"#utility.yul\":5840:5959   */\n      iszero\n      tag_547\n      jumpi\n        /* \"#utility.yul\":5878:5957   */\n      tag_548\n      tag_424\n      jump\t// in\n    tag_548:\n        /* \"#utility.yul\":5840:5959   */\n    tag_547:\n        /* \"#utility.yul\":5998:5999   */\n      0x00\n        /* \"#utility.yul\":6023:6076   */\n      tag_549\n        /* \"#utility.yul\":6068:6075   */\n      dup5\n        /* \"#utility.yul\":6059:6065   */\n      dup3\n        /* \"#utility.yul\":6048:6057   */\n      dup6\n        /* \"#utility.yul\":6044:6066   */\n      add\n        /* \"#utility.yul\":6023:6076   */\n      tag_446\n      jump\t// in\n    tag_549:\n        /* \"#utility.yul\":6013:6076   */\n      swap2\n      pop\n        /* \"#utility.yul\":5969:6086   */\n      pop\n        /* \"#utility.yul\":5764:6093   */\n      swap3\n      swap2\n      pop\n      pop\n      jump\t// out\n        /* \"#utility.yul\":6099:6217   */\n    tag_447:\n        /* \"#utility.yul\":6186:6210   */\n      tag_551\n        /* \"#utility.yul\":6204:6209   */\n      dup2\n        /* \"#utility.yul\":6186:6210   */\n      tag_444\n      jump\t// in\n    tag_551:\n        /* \"#utility.yul\":6181:6184   */\n      dup3\n        /* \"#utility.yul\":6174:6211   */\n      mstore\n        /* \"#utility.yul\":6099:6217   */\n      pop\n      pop\n      jump\t// out\n        /* \"#utility.yul\":6223:6445   */\n    tag_75:\n        /* \"#utility.yul\":6316:6320   */\n      0x00\n        /* \"#utility.yul\":6354:6356   */\n      0x20\n        /* \"#utility.yul\":6343:6352   */\n      dup3\n        /* \"#utility.yul\":6339:6357   */\n      add\n        /* \"#utility.yul\":6331:6357   */\n      swap1\n      pop\n        /* \"#utility.yul\":6367:6438   */\n      tag_553\n        /* \"#utility.yul\":6435:6436   */\n      0x00\n        /* \"#utility.yul\":6424:6433   */\n      dup4\n        /* \"#utility.yul\":6420:6437   */\n      add\n        /* \"#utility.yul\":6411:6417   */\n      dup5\n        /* \"#utility.yul\":6367:6438   */\n      tag_447\n      jump\t// in\n    tag_553:\n        /* \"#utility.yul\":6223:6445   */\n      swap3\n      swap2\n      pop\n      pop\n      jump\t// out\n        /* \"#utility.yul\":6451:6925   */\n    tag_78:\n        /* \"#utility.yul\":6519:6525   */\n      0x00\n        /* \"#utility.yul\":6527:6533   */\n      0x00\n        /* \"#utility.yul\":6576:6578   */\n      0x40\n        /* \"#utility.yul\":6564:6573   */\n      dup4\n        /* \"#utility.yul\":6555:6562   */\n      dup6\n        /* \"#utility.yul\":6551:6574   */\n      sub\n        /* \"#utility.yul\":6547:6579   */\n      slt\n        /* \"#utility.yul\":6544:6663   */\n      iszero\n      tag_555\n      jumpi\n        /* \"#utility.yul\":6582:6661   */\n      tag_556\n      tag_424\n      jump\t// in\n    tag_556:\n        /* \"#utility.yul\":6544:6663   */\n    tag_555:\n        /* \"#utility.yul\":6702:6703   */\n      0x00\n        /* \"#utility.yul\":6727:6780   */\n      tag_557\n        /* \"#utility.yul\":6772:6779   */\n      dup6\n        /* \"#utility.yul\":6763:6769   */\n      dup3\n        /* \"#utility.yul\":6752:6761   */\n      dup7\n        /* \"#utility.yul\":6748:6770   */\n      add\n        /* \"#utility.yul\":6727:6780   */\n      tag_446\n      jump\t// in\n    tag_557:\n        /* \"#utility.yul\":6717:6780   */\n      swap3\n      pop\n        /* \"#utility.yul\":6673:6790   */\n      pop\n        /* \"#utility.yul\":6829:6831   */\n      0x20\n        /* \"#utility.yul\":6855:6908   */\n      tag_558\n        /* \"#utility.yul\":6900:6907   */\n      dup6\n        /* \"#utility.yul\":6891:6897   */\n      dup3\n        /* \"#utility.yul\":6880:6889   */\n      dup7\n        /* \"#utility.yul\":6876:6898   */\n      add\n        /* \"#utility.yul\":6855:6908   */\n      tag_439\n      jump\t// in\n    tag_558:\n        /* \"#utility.yul\":6845:6908   */\n      swap2\n      pop\n        /* \"#utility.yul\":6800:6918   */\n      pop\n        /* \"#utility.yul\":6451:6925   */\n      swap3\n      pop\n      swap3\n      swap1\n      pop\n      jump\t// out\n        /* \"#utility.yul\":6931:7017   */\n    tag_448:\n        /* \"#utility.yul\":6966:6973   */\n      0x00\n        /* \"#utility.yul\":7006:7010   */\n      0xff\n        /* \"#utility.yul\":6999:7004   */\n      dup3\n        /* \"#utility.yul\":6995:7011   */\n      and\n        /* \"#utility.yul\":6984:7011   */\n      swap1\n      pop\n        /* \"#utility.yul\":6931:7017   */\n      swap2\n      swap1\n      pop\n      jump\t// out\n        /* \"#utility.yul\":7023:7135   */\n    tag_449:\n        /* \"#utility.yul\":7106:7128   */\n      tag_561\n        /* \"#utility.yul\":7122:7127   */\n      dup2\n        /* \"#utility.yul\":7106:7128   */\n      tag_448\n      jump\t// in\n    tag_561:\n        /* \"#utility.yul\":7101:7104   */\n      dup3\n        /* \"#utility.yul\":7094:7129   */\n      mstore\n        /* \"#utility.yul\":7023:7135   */\n      pop\n      pop\n      jump\t// out\n        /* \"#utility.yul\":7141:7355   */\n    tag_83:\n        /* \"#utility.yul\":7230:7234   */\n      0x00\n        /* \"#utility.yul\":7268:7270   */\n      0x20\n        /* \"#utility.yul\":7257:7266   */\n      dup3\n        /* \"#utility.yul\":7253:7271   */\n      add\n        /* \"#utility.yul\":7245:7271   */\n      swap1\n      pop\n        /* \"#utility.yul\":7281:7348   */\n      tag_563\n        /* \"#utility.yul\":7345:7346   */\n      0x00\n        /* \"#utility.yul\":7334:7343   */\n      dup4\n        /* \"#utility.yul\":7330:7347   */\n      add\n        /* \"#utility.yul\":7321:7327   */\n      dup5\n        /* \"#utility.yul\":7281:7348   */\n      tag_449\n      jump\t// in\n    tag_563:\n        /* \"#utility.yul\":7141:7355   */\n      swap3\n      swap2\n      pop\n      pop\n      jump\t// out\n        /* \"#utility.yul\":7361:7690   */\n    tag_89:\n        /* \"#utility.yul\":7420:7426   */\n      0x00\n        /* \"#utility.yul\":7469:7471   */\n      0x20\n        /* \"#utility.yul\":7457:7466   */\n      dup3\n        /* \"#utility.yul\":7448:7455   */\n      dup5\n        /* \"#utility.yul\":7444:7467   */\n      sub\n        /* \"#utility.yul\":7440:7472   */\n      slt\n        /* \"#utility.yul\":7437:7556   */\n      iszero\n      tag_565\n      jumpi\n        /* \"#utility.yul\":7475:7554   */\n      tag_566\n      tag_424\n      jump\t// in\n    tag_566:\n        /* \"#utility.yul\":7437:7556   */\n    tag_565:\n        /* \"#utility.yul\":7595:7596   */\n      0x00\n        /* \"#utility.yul\":7620:7673   */\n      tag_567\n        /* \"#utility.yul\":7665:7672   */\n      dup5\n        /* \"#utility.yul\":7656:7662   */\n      dup3\n        /* \"#utility.yul\":7645:7654   */\n      dup6\n        /* \"#utility.yul\":7641:7663   */\n      add\n        /* \"#utility.yul\":7620:7673   */\n      tag_439\n      jump\t// in\n    tag_567:\n        /* \"#utility.yul\":7610:7673   */\n      swap2\n      pop\n        /* \"#utility.yul\":7566:7683   */\n      pop\n        /* \"#utility.yul\":7361:7690   */\n      swap3\n      swap2\n      pop\n      pop\n      jump\t// out\n        /* \"#utility.yul\":7696:7756   */\n    tag_450:\n        /* \"#utility.yul\":7724:7727   */\n      0x00\n        /* \"#utility.yul\":7745:7750   */\n      dup2\n        /* \"#utility.yul\":7738:7750   */\n      swap1\n      pop\n        /* \"#utility.yul\":7696:7756   */\n      swap2\n      swap1\n      pop\n      jump\t// out\n        /* \"#utility.yul\":7762:7904   */\n    tag_451:\n        /* \"#utility.yul\":7812:7821   */\n      0x00\n        /* \"#utility.yul\":7845:7898   */\n      tag_570\n        /* \"#utility.yul\":7863:7897   */\n      tag_571\n        /* \"#utility.yul\":7872:7896   */\n      tag_572\n        /* \"#utility.yul\":7890:7895   */\n      dup5\n        /* \"#utility.yul\":7872:7896   */\n      tag_436\n      jump\t// in\n    tag_572:\n        /* \"#utility.yul\":7863:7897   */\n      tag_450\n      jump\t// in\n    tag_571:\n        /* \"#utility.yul\":7845:7898   */\n      tag_436\n      jump\t// in\n    tag_570:\n        /* \"#utility.yul\":7832:7898   */\n      swap1\n      pop\n        /* \"#utility.yul\":7762:7904   */\n      swap2\n      swap1\n      pop\n      jump\t// out\n        /* \"#utility.yul\":7910:8036   */\n    tag_452:\n        /* \"#utility.yul\":7960:7969   */\n      0x00\n        /* \"#utility.yul\":7993:8030   */\n      tag_574\n        /* \"#utility.yul\":8024:8029   */\n      dup3\n        /* \"#utility.yul\":7993:8030   */\n      tag_451\n      jump\t// in\n    tag_574:\n        /* \"#utility.yul\":7980:8030   */\n      swap1\n      pop\n        /* \"#utility.yul\":7910:8036   */\n      swap2\n      swap1\n      pop\n      jump\t// out\n        /* \"#utility.yul\":8042:8196   */\n    tag_453:\n        /* \"#utility.yul\":8120:8129   */\n      0x00\n        /* \"#utility.yul\":8153:8190   */\n      tag_576\n        /* \"#utility.yul\":8184:8189   */\n      dup3\n        /* \"#utility.yul\":8153:8190   */\n      tag_452\n      jump\t// in\n    tag_576:\n        /* \"#utility.yul\":8140:8190   */\n      swap1\n      pop\n        /* \"#utility.yul\":8042:8196   */\n      swap2\n      swap1\n      pop\n      jump\t// out\n        /* \"#utility.yul\":8202:8389   */\n    tag_454:\n        /* \"#utility.yul\":8317:8382   */\n      tag_578\n        /* \"#utility.yul\":8376:8381   */\n      dup2\n        /* \"#utility.yul\":8317:8382   */\n      tag_453\n      jump\t// in\n    tag_578:\n        /* \"#utility.yul\":8312:8315   */\n      dup3\n        /* \"#utility.yul\":8305:8383   */\n      mstore\n        /* \"#utility.yul\":8202:8389   */\n      pop\n      pop\n      jump\t// out\n        /* \"#utility.yul\":8395:8673   */\n    tag_97:\n        /* \"#utility.yul\":8516:8520   */\n      0x00\n        /* \"#utility.yul\":8554:8556   */\n      0x20\n        /* \"#utility.yul\":8543:8552   */\n      dup3\n        /* \"#utility.yul\":8539:8557   */\n      add\n        /* \"#utility.yul\":8531:8557   */\n      swap1\n      pop\n        /* \"#utility.yul\":8567:8666   */\n      tag_580\n        /* \"#utility.yul\":8663:8664   */\n      0x00\n        /* \"#utility.yul\":8652:8661   */\n      dup4\n        /* \"#utility.yul\":8648:8665   */\n      add\n        /* \"#utility.yul\":8639:8645   */\n      dup5\n        /* \"#utility.yul\":8567:8666   */\n      tag_454\n      jump\t// in\n    tag_580:\n        /* \"#utility.yul\":8395:8673   */\n      swap3\n      swap2\n      pop\n      pop\n      jump\t// out\n        /* \"#utility.yul\":8679:8797   */\n    tag_455:\n        /* \"#utility.yul\":8766:8790   */\n      tag_582\n        /* \"#utility.yul\":8784:8789   */\n      dup2\n        /* \"#utility.yul\":8766:8790   */\n      tag_437\n      jump\t// in\n    tag_582:\n        /* \"#utility.yul\":8761:8764   */\n      dup3\n        /* \"#utility.yul\":8754:8791   */\n      mstore\n        /* \"#utility.yul\":8679:8797   */\n      pop\n      pop\n      jump\t// out\n        /* \"#utility.yul\":8803:9025   */\n    tag_104:\n        /* \"#utility.yul\":8896:8900   */\n      0x00\n        /* \"#utility.yul\":8934:8936   */\n      0x20\n        /* \"#utility.yul\":8923:8932   */\n      dup3\n        /* \"#utility.yul\":8919:8937   */\n      add\n        /* \"#utility.yul\":8911:8937   */\n      swap1\n      pop\n        /* \"#utility.yul\":8947:9018   */\n      tag_584\n        /* \"#utility.yul\":9015:9016   */\n      0x00\n        /* \"#utility.yul\":9004:9013   */\n      dup4\n        /* \"#utility.yul\":9000:9017   */\n      add\n        /* \"#utility.yul\":8991:8997   */\n      dup5\n        /* \"#utility.yul\":8947:9018   */\n      tag_455\n      jump\t// in\n    tag_584:\n        /* \"#utility.yul\":8803:9025   */\n      swap3\n      swap2\n      pop\n      pop\n      jump\t// out\n        /* \"#utility.yul\":9031:9172   */\n    tag_456:\n        /* \"#utility.yul\":9096:9105   */\n      0x00\n        /* \"#utility.yul\":9129:9166   */\n      tag_586\n        /* \"#utility.yul\":9160:9165   */\n      dup3\n        /* \"#utility.yul\":9129:9166   */\n      tag_452\n      jump\t// in\n    tag_586:\n        /* \"#utility.yul\":9116:9166   */\n      swap1\n      pop\n        /* \"#utility.yul\":9031:9172   */\n      swap2\n      swap1\n      pop\n      jump\t// out\n        /* \"#utility.yul\":9178:9339   */\n    tag_457:\n        /* \"#utility.yul\":9280:9332   */\n      tag_588\n        /* \"#utility.yul\":9326:9331   */\n      dup2\n        /* \"#utility.yul\":9280:9332   */\n      tag_456\n      jump\t// in\n    tag_588:\n        /* \"#utility.yul\":9275:9278   */\n      dup3\n        /* \"#utility.yul\":9268:9333   */\n      mstore\n        /* \"#utility.yul\":9178:9339   */\n      pop\n      pop\n      jump\t// out\n        /* \"#utility.yul\":9345:9597   */\n    tag_128:\n        /* \"#utility.yul\":9453:9457   */\n      0x00\n        /* \"#utility.yul\":9491:9493   */\n      0x20\n        /* \"#utility.yul\":9480:9489   */\n      dup3\n        /* \"#utility.yul\":9476:9494   */\n      add\n        /* \"#utility.yul\":9468:9494   */\n      swap1\n      pop\n        /* \"#utility.yul\":9504:9590   */\n      tag_590\n        /* \"#utility.yul\":9587:9588   */\n      0x00\n        /* \"#utility.yul\":9576:9585   */\n      dup4\n        /* \"#utility.yul\":9572:9589   */\n      add\n        /* \"#utility.yul\":9563:9569   */\n      dup5\n        /* \"#utility.yul\":9504:9590   */\n      tag_457\n      jump\t// in\n    tag_590:\n        /* \"#utility.yul\":9345:9597   */\n      swap3\n      swap2\n      pop\n      pop\n      jump\t// out\n        /* \"#utility.yul\":9603:10077   */\n    tag_144:\n        /* \"#utility.yul\":9671:9677   */\n      0x00\n        /* \"#utility.yul\":9679:9685   */\n      0x00\n        /* \"#utility.yul\":9728:9730   */\n      0x40\n        /* \"#utility.yul\":9716:9725   */\n      dup4\n        /* \"#utility.yul\":9707:9714   */\n      dup6\n        /* \"#utility.yul\":9703:9726   */\n      sub\n        /* \"#utility.yul\":9699:9731   */\n      slt\n        /* \"#utility.yul\":9696:9815   */\n      iszero\n      tag_592\n      jumpi\n        /* \"#utility.yul\":9734:9813   */\n      tag_593\n      tag_424\n      jump\t// in\n    tag_593:\n        /* \"#utility.yul\":9696:9815   */\n    tag_592:\n        /* \"#utility.yul\":9854:9855   */\n      0x00\n        /* \"#utility.yul\":9879:9932   */\n      tag_594\n        /* \"#utility.yul\":9924:9931   */\n      dup6\n        /* \"#utility.yul\":9915:9921   */\n      dup3\n        /* \"#utility.yul\":9904:9913   */\n      dup7\n        /* \"#utility.yul\":9900:9922   */\n      add\n        /* \"#utility.yul\":9879:9932   */\n      tag_439\n      jump\t// in\n    tag_594:\n        /* \"#utility.yul\":9869:9932   */\n      swap3\n      pop\n        /* \"#utility.yul\":9825:9942   */\n      pop\n        /* \"#utility.yul\":9981:9983   */\n      0x20\n        /* \"#utility.yul\":10007:10060   */\n      tag_595\n        /* \"#utility.yul\":10052:10059   */\n      dup6\n        /* \"#utility.yul\":10043:10049   */\n      dup3\n        /* \"#utility.yul\":10032:10041   */\n      dup7\n        /* \"#utility.yul\":10028:10050   */\n      add\n        /* \"#utility.yul\":10007:10060   */\n      tag_439\n      jump\t// in\n    tag_595:\n        /* \"#utility.yul\":9997:10060   */\n      swap2\n      pop\n        /* \"#utility.yul\":9952:10070   */\n      pop\n        /* \"#utility.yul\":9603:10077   */\n      swap3\n      pop\n      swap3\n      swap1\n      pop\n      jump\t// out\n        /* \"#utility.yul\":10083:10263   */\n    tag_458:\n        /* \"#utility.yul\":10131:10208   */\n      0x4e487b7100000000000000000000000000000000000000000000000000000000\n        /* \"#utility.yul\":10128:10129   */\n      0x00\n        /* \"#utility.yul\":10121:10209   */\n      mstore\n        /* \"#utility.yul\":10228:10232   */\n      0x22\n        /* \"#utility.yul\":10225:10226   */\n      0x04\n        /* \"#utility.yul\":10218:10233   */\n      mstore\n        /* \"#utility.yul\":10252:10256   */\n      0x24\n        /* \"#utility.yul\":10249:10250   */\n      0x00\n        /* \"#utility.yul\":10242:10257   */\n      revert\n        /* \"#utility.yul\":10269:10589   */\n    tag_165:\n        /* \"#utility.yul\":10313:10319   */\n      0x00\n        /* \"#utility.yul\":10350:10351   */\n      0x02\n        /* \"#utility.yul\":10344:10348   */\n      dup3\n        /* \"#utility.yul\":10340:10352   */\n      div\n        /* \"#utility.yul\":10330:10352   */\n      swap1\n      pop\n        /* \"#utility.yul\":10397:10398   */\n      0x01\n        /* \"#utility.yul\":10391:10395   */\n      dup3\n        /* \"#utility.yul\":10387:10399   */\n      and\n        /* \"#utility.yul\":10418:10436   */\n      dup1\n        /* \"#utility.yul\":10408:10489   */\n      tag_598\n      jumpi\n        /* \"#utility.yul\":10474:10478   */\n      0x7f\n        /* \"#utility.yul\":10466:10472   */\n      dup3\n        /* \"#utility.yul\":10462:10479   */\n      and\n        /* \"#utility.yul\":10452:10479   */\n      swap2\n      pop\n        /* \"#utility.yul\":10408:10489   */\n    tag_598:\n        /* \"#utility.yul\":10536:10538   */\n      0x20\n        /* \"#utility.yul\":10528:10534   */\n      dup3\n        /* \"#utility.yul\":10525:10539   */\n      lt\n        /* \"#utility.yul\":10505:10523   */\n      dup2\n        /* \"#utility.yul\":10502:10540   */\n      sub\n        /* \"#utility.yul\":10499:10583   */\n      tag_599\n      jumpi\n        /* \"#utility.yul\":10555:10573   */\n      tag_600\n      tag_458\n      jump\t// in\n    tag_600:\n        /* \"#utility.yul\":10499:10583   */\n    tag_599:\n        /* \"#utility.yul\":10320:10589   */\n      pop\n        /* \"#utility.yul\":10269:10589   */\n      swap2\n      swap1\n      pop\n      jump\t// out\n        /* \"#utility.yul\":10595:10775   */\n    tag_459:\n        /* \"#utility.yul\":10643:10720   */\n      0x4e487b7100000000000000000000000000000000000000000000000000000000\n        /* \"#utility.yul\":10640:10641   */\n      0x00\n        /* \"#utility.yul\":10633:10721   */\n      mstore\n        /* \"#utility.yul\":10740:10744   */\n      0x11\n        /* \"#utility.yul\":10737:10738   */\n      0x04\n        /* \"#utility.yul\":10730:10745   */\n      mstore\n        /* \"#utility.yul\":10764:10768   */\n      0x24\n        /* \"#utility.yul\":10761:10762   */\n      0x00\n        /* \"#utility.yul\":10754:10769   */\n      revert\n        /* \"#utility.yul\":10781:10883   */\n    tag_460:\n        /* \"#utility.yul\":10823:10831   */\n      0x00\n        /* \"#utility.yul\":10870:10875   */\n      dup2\n        /* \"#utility.yul\":10867:10868   */\n      0x01\n        /* \"#utility.yul\":10863:10876   */\n      shr\n        /* \"#utility.yul\":10842:10876   */\n      swap1\n      pop\n        /* \"#utility.yul\":10781:10883   */\n      swap2\n      swap1\n      pop\n      jump\t// out\n        /* \"#utility.yul\":10889:11737   */\n    tag_461:\n        /* \"#utility.yul\":10950:10955   */\n      0x00\n        /* \"#utility.yul\":10957:10961   */\n      0x00\n        /* \"#utility.yul\":10981:10987   */\n      dup3\n        /* \"#utility.yul\":10972:10987   */\n      swap2\n      pop\n        /* \"#utility.yul\":11005:11010   */\n      dup4\n        /* \"#utility.yul\":10996:11010   */\n      swap1\n      pop\n        /* \"#utility.yul\":11019:11731   */\n    tag_604:\n        /* \"#utility.yul\":11040:11041   */\n      0x01\n        /* \"#utility.yul\":11030:11038   */\n      dup6\n        /* \"#utility.yul\":11027:11042   */\n      gt\n        /* \"#utility.yul\":11019:11731   */\n      iszero\n      tag_606\n      jumpi\n        /* \"#utility.yul\":11135:11139   */\n      dup1\n        /* \"#utility.yul\":11130:11133   */\n      dup7\n        /* \"#utility.yul\":11126:11140   */\n      div\n        /* \"#utility.yul\":11120:11124   */\n      dup2\n        /* \"#utility.yul\":11117:11141   */\n      gt\n        /* \"#utility.yul\":11114:11164   */\n      iszero\n      tag_607\n      jumpi\n        /* \"#utility.yul\":11144:11162   */\n      tag_608\n      tag_459\n      jump\t// in\n    tag_608:\n        /* \"#utility.yul\":11114:11164   */\n    tag_607:\n        /* \"#utility.yul\":11194:11195   */\n      0x01\n        /* \"#utility.yul\":11184:11192   */\n      dup6\n        /* \"#utility.yul\":11180:11196   */\n      and\n        /* \"#utility.yul\":11177:11628   */\n      iszero\n      tag_609\n      jumpi\n        /* \"#utility.yul\":11609:11613   */\n      dup1\n        /* \"#utility.yul\":11602:11607   */\n      dup3\n        /* \"#utility.yul\":11598:11614   */\n      mul\n        /* \"#utility.yul\":11589:11614   */\n      swap2\n      pop\n        /* \"#utility.yul\":11177:11628   */\n    tag_609:\n        /* \"#utility.yul\":11659:11663   */\n      dup1\n        /* \"#utility.yul\":11653:11657   */\n      dup2\n        /* \"#utility.yul\":11649:11664   */\n      mul\n        /* \"#utility.yul\":11641:11664   */\n      swap1\n      pop\n        /* \"#utility.yul\":11689:11721   */\n      tag_610\n        /* \"#utility.yul\":11712:11720   */\n      dup6\n        /* \"#utility.yul\":11689:11721   */\n      tag_460\n      jump\t// in\n    tag_610:\n        /* \"#utility.yul\":11677:11721   */\n      swap5\n      pop\n        /* \"#utility.yul\":11019:11731   */\n      jump(tag_604)\n    tag_606:\n        /* \"#utility.yul\":10889:11737   */\n      swap5\n      pop\n      swap5\n      swap3\n      pop\n      pop\n      pop\n      jump\t// out\n        /* \"#utility.yul\":11743:12816   */\n    tag_462:\n        /* \"#utility.yul\":11797:11802   */\n      0x00\n        /* \"#utility.yul\":11988:11996   */\n      dup3\n        /* \"#utility.yul\":11978:12018   */\n      tag_612\n      jumpi\n        /* \"#utility.yul\":12009:12010   */\n      0x01\n        /* \"#utility.yul\":12000:12010   */\n      swap1\n      pop\n        /* \"#utility.yul\":12011:12016   */\n      jump(tag_611)\n        /* \"#utility.yul\":11978:12018   */\n    tag_612:\n        /* \"#utility.yul\":12037:12041   */\n      dup2\n        /* \"#utility.yul\":12027:12063   */\n      tag_613\n      jumpi\n        /* \"#utility.yul\":12054:12055   */\n      0x00\n        /* \"#utility.yul\":12045:12055   */\n      swap1\n      pop\n        /* \"#utility.yul\":12056:12061   */\n      jump(tag_611)\n        /* \"#utility.yul\":12027:12063   */\n    tag_613:\n        /* \"#utility.yul\":12123:12127   */\n      dup2\n        /* \"#utility.yul\":12171:12172   */\n      0x01\n        /* \"#utility.yul\":12166:12193   */\n      dup2\n      eq\n      tag_615\n      jumpi\n        /* \"#utility.yul\":12207:12208   */\n      0x02\n        /* \"#utility.yul\":12202:12393   */\n      dup2\n      eq\n      tag_616\n      jumpi\n        /* \"#utility.yul\":12116:12393   */\n      jump(tag_614)\n        /* \"#utility.yul\":12166:12193   */\n    tag_615:\n        /* \"#utility.yul\":12184:12185   */\n      0x01\n        /* \"#utility.yul\":12175:12185   */\n      swap2\n      pop\n        /* \"#utility.yul\":12186:12191   */\n      pop\n      jump(tag_611)\n        /* \"#utility.yul\":12202:12393   */\n    tag_616:\n        /* \"#utility.yul\":12247:12250   */\n      0xff\n        /* \"#utility.yul\":12237:12245   */\n      dup5\n        /* \"#utility.yul\":12234:12251   */\n      gt\n        /* \"#utility.yul\":12231:12274   */\n      iszero\n      tag_617\n      jumpi\n        /* \"#utility.yul\":12254:12272   */\n      tag_618\n      tag_459\n      jump\t// in\n    tag_618:\n        /* \"#utility.yul\":12231:12274   */\n    tag_617:\n        /* \"#utility.yul\":12303:12311   */\n      dup4\n        /* \"#utility.yul\":12300:12301   */\n      0x02\n        /* \"#utility.yul\":12296:12312   */\n      exp\n        /* \"#utility.yul\":12287:12312   */\n      swap2\n      pop\n        /* \"#utility.yul\":12338:12341   */\n      dup5\n        /* \"#utility.yul\":12331:12336   */\n      dup3\n        /* \"#utility.yul\":12328:12342   */\n      gt\n        /* \"#utility.yul\":12325:12365   */\n      iszero\n      tag_619\n      jumpi\n        /* \"#utility.yul\":12345:12363   */\n      tag_620\n      tag_459\n      jump\t// in\n    tag_620:\n        /* \"#utility.yul\":12325:12365   */\n    tag_619:\n        /* \"#utility.yul\":12378:12383   */\n      pop\n      jump(tag_611)\n        /* \"#utility.yul\":12116:12393   */\n    tag_614:\n      pop\n        /* \"#utility.yul\":12502:12504   */\n      0x20\n        /* \"#utility.yul\":12492:12500   */\n      dup4\n        /* \"#utility.yul\":12489:12505   */\n      lt\n        /* \"#utility.yul\":12483:12486   */\n      0x0133\n        /* \"#utility.yul\":12477:12481   */\n      dup4\n        /* \"#utility.yul\":12474:12487   */\n      lt\n        /* \"#utility.yul\":12470:12506   */\n      and\n        /* \"#utility.yul\":12452:12454   */\n      0x4e\n        /* \"#utility.yul\":12442:12450   */\n      dup5\n        /* \"#utility.yul\":12439:12455   */\n      lt\n        /* \"#utility.yul\":12434:12436   */\n      0x0b\n        /* \"#utility.yul\":12428:12432   */\n      dup5\n        /* \"#utility.yul\":12425:12437   */\n      lt\n        /* \"#utility.yul\":12421:12456   */\n      and\n        /* \"#utility.yul\":12405:12516   */\n      or\n        /* \"#utility.yul\":12402:12648   */\n      iszero\n      tag_621\n      jumpi\n        /* \"#utility.yul\":12558:12566   */\n      dup3\n        /* \"#utility.yul\":12552:12556   */\n      dup3\n        /* \"#utility.yul\":12548:12567   */\n      exp\n        /* \"#utility.yul\":12539:12567   */\n      swap1\n      pop\n        /* \"#utility.yul\":12593:12596   */\n      dup4\n        /* \"#utility.yul\":12586:12591   */\n      dup2\n        /* \"#utility.yul\":12583:12597   */\n      gt\n        /* \"#utility.yul\":12580:12620   */\n      iszero\n      tag_622\n      jumpi\n        /* \"#utility.yul\":12600:12618   */\n      tag_623\n      tag_459\n      jump\t// in\n    tag_623:\n        /* \"#utility.yul\":12580:12620   */\n    tag_622:\n        /* \"#utility.yul\":12633:12638   */\n      jump(tag_611)\n        /* \"#utility.yul\":12402:12648   */\n    tag_621:\n        /* \"#utility.yul\":12673:12715   */\n      tag_624\n        /* \"#utility.yul\":12711:12714   */\n      dup5\n        /* \"#utility.yul\":12701:12709   */\n      dup5\n        /* \"#utility.yul\":12695:12699   */\n      dup5\n        /* \"#utility.yul\":12692:12693   */\n      0x01\n        /* \"#utility.yul\":12673:12715   */\n      tag_461\n      jump\t// in\n    tag_624:\n        /* \"#utility.yul\":12658:12715   */\n      swap3\n      pop\n      swap1\n      pop\n        /* \"#utility.yul\":12747:12751   */\n      dup2\n        /* \"#utility.yul\":12742:12745   */\n      dup5\n        /* \"#utility.yul\":12738:12752   */\n      div\n        /* \"#utility.yul\":12731:12736   */\n      dup2\n        /* \"#utility.yul\":12728:12753   */\n      gt\n        /* \"#utility.yul\":12725:12776   */\n      iszero\n      tag_625\n      jumpi\n        /* \"#utility.yul\":12756:12774   */\n      tag_626\n      tag_459\n      jump\t// in\n    tag_626:\n        /* \"#utility.yul\":12725:12776   */\n    tag_625:\n        /* \"#utility.yul\":12805:12809   */\n      dup2\n        /* \"#utility.yul\":12798:12803   */\n      dup2\n        /* \"#utility.yul\":12794:12810   */\n      mul\n        /* \"#utility.yul\":12785:12810   */\n      swap1\n      pop\n        /* \"#utility.yul\":11743:12816   */\n    tag_611:\n      swap4\n      swap3\n      pop\n      pop\n      pop\n      jump\t// out\n        /* \"#utility.yul\":12822:13103   */\n    tag_181:\n        /* \"#utility.yul\":12880:12885   */\n      0x00\n        /* \"#utility.yul\":12904:12927   */\n      tag_628\n        /* \"#utility.yul\":12922:12926   */\n      dup3\n        /* \"#utility.yul\":12904:12927   */\n      tag_440\n      jump\t// in\n    tag_628:\n        /* \"#utility.yul\":12896:12927   */\n      swap2\n      pop\n        /* \"#utility.yul\":12948:12973   */\n      tag_629\n        /* \"#utility.yul\":12964:12972   */\n      dup4\n        /* \"#utility.yul\":12948:12973   */\n      tag_448\n      jump\t// in\n    tag_629:\n        /* \"#utility.yul\":12936:12973   */\n      swap3\n      pop\n        /* \"#utility.yul\":12992:13096   */\n      tag_630\n        /* \"#utility.yul\":13029:13095   */\n      0xffffffffffffffffffffffffffffffffffffffffffffffffffffffffffffffff\n        /* \"#utility.yul\":13019:13027   */\n      dup5\n        /* \"#utility.yul\":13013:13017   */\n      dup5\n        /* \"#utility.yul\":12992:13096   */\n      tag_462\n      jump\t// in\n    tag_630:\n        /* \"#utility.yul\":12983:13096   */\n      swap1\n      pop\n        /* \"#utility.yul\":12822:13103   */\n      swap3\n      swap2\n      pop\n      pop\n      jump\t// out\n        /* \"#utility.yul\":13109:13519   */\n    tag_183:\n        /* \"#utility.yul\":13149:13156   */\n      0x00\n        /* \"#utility.yul\":13172:13192   */\n      tag_632\n        /* \"#utility.yul\":13190:13191   */\n      dup3\n        /* \"#utility.yul\":13172:13192   */\n      tag_440\n      jump\t// in\n    tag_632:\n        /* \"#utility.yul\":13167:13192   */\n      swap2\n      pop\n        /* \"#utility.yul\":13206:13226   */\n      tag_633\n        /* \"#utility.yul\":13224:13225   */\n      dup4\n        /* \"#utility.yul\":13206:13226   */\n      tag_440\n      jump\t// in\n    tag_633:\n        /* \"#utility.yul\":13201:13226   */\n      swap3\n      pop\n        /* \"#utility.yul\":13261:13262   */\n      dup3\n        /* \"#utility.yul\":13258:13259   */\n      dup3\n        /* \"#utility.yul\":13254:13263   */\n      mul\n        /* \"#utility.yul\":13283:13313   */\n      tag_634\n        /* \"#utility.yul\":13301:13312   */\n      dup2\n        /* \"#utility.yul\":13283:13313   */\n      tag_440\n      jump\t// in\n    tag_634:\n        /* \"#utility.yul\":13272:13313   */\n      swap2\n      pop\n        /* \"#utility.yul\":13462:13463   */\n      dup3\n        /* \"#utility.yul\":13453:13460   */\n      dup3\n        /* \"#utility.yul\":13449:13464   */\n      div\n        /* \"#utility.yul\":13446:13447   */\n      dup5\n        /* \"#utility.yul\":13443:13465   */\n      eq\n        /* \"#utility.yul\":13423:13424   */\n      dup4\n        /* \"#utility.yul\":13416:13425   */\n      iszero\n        /* \"#utility.yul\":13396:13479   */\n      or\n        /* \"#utility.yul\":13373:13512   */\n      tag_635\n      jumpi\n        /* \"#utility.yul\":13492:13510   */\n      tag_636\n      tag_459\n      jump\t// in\n    tag_636:\n        /* \"#utility.yul\":13373:13512   */\n    tag_635:\n        /* \"#utility.yul\":13157:13519   */\n      pop\n        /* \"#utility.yul\":13109:13519   */\n      swap3\n      swap2\n      pop\n      pop\n      jump\t// out\n        /* \"#utility.yul\":13525:13705   */\n    tag_463:\n        /* \"#utility.yul\":13573:13650   */\n      0x4e487b7100000000000000000000000000000000000000000000000000000000\n        /* \"#utility.yul\":13570:13571   */\n      0x00\n        /* \"#utility.yul\":13563:13651   */\n      mstore\n        /* \"#utility.yul\":13670:13674   */\n      0x12\n        /* \"#utility.yul\":13667:13668   */\n      0x04\n        /* \"#utility.yul\":13660:13675   */\n      mstore\n        /* \"#utility.yul\":13694:13698   */\n      0x24\n        /* \"#utility.yul\":13691:13692   */\n      0x00\n        /* \"#utility.yul\":13684:13699   */\n      revert\n        /* \"#utility.yul\":13711:13896   */\n    tag_187:\n        /* \"#utility.yul\":13751:13752   */\n      0x00\n        /* \"#utility.yul\":13768:13788   */\n      tag_639\n        /* \"#utility.yul\":13786:13787   */\n      dup3\n        /* \"#utility.yul\":13768:13788   */\n      tag_440\n      jump\t// in\n    tag_639:\n        /* \"#utility.yul\":13763:13788   */\n      swap2\n      pop\n        /* \"#utility.yul\":13802:13822   */\n      tag_640\n        /* \"#utility.yul\":13820:13821   */\n      dup4\n        /* \"#utility.yul\":13802:13822   */\n      tag_440\n      jump\t// in\n    tag_640:\n        /* \"#utility.yul\":13797:13822   */\n      swap3\n      pop\n        /* \"#utility.yul\":13841:13842   */\n      dup3\n        /* \"#utility.yul\":13831:13866   */\n      tag_641\n      jumpi\n        /* \"#utility.yul\":13846:13864   */\n      tag_642\n      tag_463\n      jump\t// in\n    tag_642:\n        /* \"#utility.yul\":13831:13866   */\n    tag_641:\n        /* \"#utility.yul\":13888:13889   */\n      dup3\n        /* \"#utility.yul\":13885:13886   */\n      dup3\n        /* \"#utility.yul\":13881:13890   */\n      div\n        /* \"#utility.yul\":13876:13890   */\n      swap1\n      pop\n        /* \"#utility.yul\":13711:13896   */\n      swap3\n      swap2\n      pop\n      pop\n      jump\t// out\n        /* \"#utility.yul\":13902:14020   */\n    tag_464:\n        /* \"#utility.yul\":13973:13995   */\n      tag_644\n        /* \"#utility.yul\":13989:13994   */\n      dup2\n        /* \"#utility.yul\":13973:13995   */\n      tag_448\n      jump\t// in\n    tag_644:\n        /* \"#utility.yul\":13966:13971   */\n      dup2\n        /* \"#utility.yul\":13963:13996   */\n      eq\n        /* \"#utility.yul\":13953:14014   */\n      tag_645\n      jumpi\n        /* \"#utility.yul\":14010:14011   */\n      0x00\n        /* \"#utility.yul\":14007:14008   */\n      0x00\n        /* \"#utility.yul\":14000:14012   */\n      revert\n        /* \"#utility.yul\":13953:14014   */\n    tag_645:\n        /* \"#utility.yul\":13902:14020   */\n      pop\n      jump\t// out\n        /* \"#utility.yul\":14026:14165   */\n    tag_465:\n        /* \"#utility.yul\":14081:14086   */\n      0x00\n        /* \"#utility.yul\":14112:14118   */\n      dup2\n        /* \"#utility.yul\":14106:14119   */\n      mload\n        /* \"#utility.yul\":14097:14119   */\n      swap1\n      pop\n        /* \"#utility.yul\":14128:14159   */\n      tag_647\n        /* \"#utility.yul\":14153:14158   */\n      dup2\n        /* \"#utility.yul\":14128:14159   */\n      tag_464\n      jump\t// in\n    tag_647:\n        /* \"#utility.yul\":14026:14165   */\n      swap3\n      swap2\n      pop\n      pop\n      jump\t// out\n        /* \"#utility.yul\":14171:14518   */\n    tag_191:\n        /* \"#utility.yul\":14239:14245   */\n      0x00\n        /* \"#utility.yul\":14288:14290   */\n      0x20\n        /* \"#utility.yul\":14276:14285   */\n      dup3\n        /* \"#utility.yul\":14267:14274   */\n      dup5\n        /* \"#utility.yul\":14263:14286   */\n      sub\n        /* \"#utility.yul\":14259:14291   */\n      slt\n        /* \"#utility.yul\":14256:14375   */\n      iszero\n      tag_649\n      jumpi\n        /* \"#utility.yul\":14294:14373   */\n      tag_650\n      tag_424\n      jump\t// in\n    tag_650:\n        /* \"#utility.yul\":14256:14375   */\n    tag_649:\n        /* \"#utility.yul\":14414:14415   */\n      0x00\n        /* \"#utility.yul\":14439:14501   */\n      tag_651\n        /* \"#utility.yul\":14493:14500   */\n      dup5\n        /* \"#utility.yul\":14484:14490   */\n      dup3\n        /* \"#utility.yul\":14473:14482   */\n      dup6\n        /* \"#utility.yul\":14469:14491   */\n      add\n        /* \"#utility.yul\":14439:14501   */\n      tag_465\n      jump\t// in\n    tag_651:\n        /* \"#utility.yul\":14429:14501   */\n      swap2\n      pop\n        /* \"#utility.yul\":14385:14511   */\n      pop\n        /* \"#utility.yul\":14171:14518   */\n      swap3\n      swap2\n      pop\n      pop\n      jump\t// out\n        /* \"#utility.yul\":14524:14856   */\n    tag_260:\n        /* \"#utility.yul\":14645:14649   */\n      0x00\n        /* \"#utility.yul\":14683:14685   */\n      0x40\n        /* \"#utility.yul\":14672:14681   */\n      dup3\n        /* \"#utility.yul\":14668:14686   */\n      add\n        /* \"#utility.yul\":14660:14686   */\n      swap1\n      pop\n        /* \"#utility.yul\":14696:14767   */\n      tag_653\n        /* \"#utility.yul\":14764:14765   */\n      0x00\n        /* \"#utility.yul\":14753:14762   */\n      dup4\n        /* \"#utility.yul\":14749:14766   */\n      add\n        /* \"#utility.yul\":14740:14746   */\n      dup6\n        /* \"#utility.yul\":14696:14767   */\n      tag_443\n      jump\t// in\n    tag_653:\n        /* \"#utility.yul\":14777:14849   */\n      tag_654\n        /* \"#utility.yul\":14845:14847   */\n      0x20\n        /* \"#utility.yul\":14834:14843   */\n      dup4\n        /* \"#utility.yul\":14830:14848   */\n      add\n        /* \"#utility.yul\":14821:14827   */\n      dup5\n        /* \"#utility.yul\":14777:14849   */\n      tag_443\n      jump\t// in\n    tag_654:\n        /* \"#utility.yul\":14524:14856   */\n      swap4\n      swap3\n      pop\n      pop\n      pop\n      jump\t// out\n        /* \"#utility.yul\":14862:14967   */\n    tag_466:\n        /* \"#utility.yul\":14898:14905   */\n      0x00\n        /* \"#utility.yul\":14938:14960   */\n      0xffffffffffffffffffff\n        /* \"#utility.yul\":14931:14936   */\n      dup3\n        /* \"#utility.yul\":14927:14961   */\n      and\n        /* \"#utility.yul\":14916:14961   */\n      swap1\n      pop\n        /* \"#utility.yul\":14862:14967   */\n      swap2\n      swap1\n      pop\n      jump\t// out\n        /* \"#utility.yul\":14973:15093   */\n    tag_467:\n        /* \"#utility.yul\":15045:15068   */\n      tag_657\n        /* \"#utility.yul\":15062:15067   */\n      dup2\n        /* \"#utility.yul\":15045:15068   */\n      tag_466\n      jump\t// in\n    tag_657:\n        /* \"#utility.yul\":15038:15043   */\n      dup2\n        /* \"#utility.yul\":15035:15069   */\n      eq\n        /* \"#utility.yul\":15025:15087   */\n      tag_658\n      jumpi\n        /* \"#utility.yul\":15083:15084   */\n      0x00\n        /* \"#utility.yul\":15080:15081   */\n      0x00\n        /* \"#utility.yul\":15073:15085   */\n      revert\n        /* \"#utility.yul\":15025:15087   */\n    tag_658:\n        /* \"#utility.yul\":14973:15093   */\n      pop\n      jump\t// out\n        /* \"#utility.yul\":15099:15240   */\n    tag_468:\n        /* \"#utility.yul\":15155:15160   */\n      0x00\n        /* \"#utility.yul\":15186:15192   */\n      dup2\n        /* \"#utility.yul\":15180:15193   */\n      mload\n        /* \"#utility.yul\":15171:15193   */\n      swap1\n      pop\n        /* \"#utility.yul\":15202:15234   */\n      tag_660\n        /* \"#utility.yul\":15228:15233   */\n      dup2\n        /* \"#utility.yul\":15202:15234   */\n      tag_467\n      jump\t// in\n    tag_660:\n        /* \"#utility.yul\":15099:15240   */\n      swap3\n      swap2\n      pop\n      pop\n      jump\t// out\n        /* \"#utility.yul\":15246:15322   */\n    tag_469:\n        /* \"#utility.yul\":15282:15289   */\n      0x00\n        /* \"#utility.yul\":15311:15316   */\n      dup2\n        /* \"#utility.yul\":15300:15316   */\n      swap1\n      pop\n        /* \"#utility.yul\":15246:15322   */\n      swap2\n      swap1\n      pop\n      jump\t// out\n        /* \"#utility.yul\":15328:15448   */\n    tag_470:\n        /* \"#utility.yul\":15400:15423   */\n      tag_663\n        /* \"#utility.yul\":15417:15422   */\n      dup2\n        /* \"#utility.yul\":15400:15423   */\n      tag_469\n      jump\t// in\n    tag_663:\n        /* \"#utility.yul\":15393:15398   */\n      dup2\n        /* \"#utility.yul\":15390:15424   */\n      eq\n        /* \"#utility.yul\":15380:15442   */\n      tag_664\n      jumpi\n        /* \"#utility.yul\":15438:15439   */\n      0x00\n        /* \"#utility.yul\":15435:15436   */\n      0x00\n        /* \"#utility.yul\":15428:15440   */\n      revert\n        /* \"#utility.yul\":15380:15442   */\n    tag_664:\n        /* \"#utility.yul\":15328:15448   */\n      pop\n      jump\t// out\n        /* \"#utility.yul\":15454:15595   */\n    tag_471:\n        /* \"#utility.yul\":15510:15515   */\n      0x00\n        /* \"#utility.yul\":15541:15547   */\n      dup2\n        /* \"#utility.yul\":15535:15548   */\n      mload\n        /* \"#utility.yul\":15526:15548   */\n      swap1\n      pop\n        /* \"#utility.yul\":15557:15589   */\n      tag_666\n        /* \"#utility.yul\":15583:15588   */\n      dup2\n        /* \"#utility.yul\":15557:15589   */\n      tag_470\n      jump\t// in\n    tag_666:\n        /* \"#utility.yul\":15454:15595   */\n      swap3\n      swap2\n      pop\n      pop\n      jump\t// out\n        /* \"#utility.yul\":15601:15744   */\n    tag_472:\n        /* \"#utility.yul\":15658:15663   */\n      0x00\n        /* \"#utility.yul\":15689:15695   */\n      dup2\n        /* \"#utility.yul\":15683:15696   */\n      mload\n        /* \"#utility.yul\":15674:15696   */\n      swap1\n      pop\n        /* \"#utility.yul\":15705:15738   */\n      tag_668\n        /* \"#utility.yul\":15732:15737   */\n      dup2\n        /* \"#utility.yul\":15705:15738   */\n      tag_441\n      jump\t// in\n    tag_668:\n        /* \"#utility.yul\":15601:15744   */\n      swap3\n      swap2\n      pop\n      pop\n      jump\t// out\n        /* \"#utility.yul\":15750:16721   */\n    tag_323:\n        /* \"#utility.yul\":15853:15859   */\n      0x00\n        /* \"#utility.yul\":15861:15867   */\n      0x00\n        /* \"#utility.yul\":15869:15875   */\n      0x00\n        /* \"#utility.yul\":15877:15883   */\n      0x00\n        /* \"#utility.yul\":15885:15891   */\n      0x00\n        /* \"#utility.yul\":15934:15937   */\n      0xa0\n        /* \"#utility.yul\":15922:15931   */\n      dup7\n        /* \"#utility.yul\":15913:15920   */\n      dup9\n        /* \"#utility.yul\":15909:15932   */\n      sub\n        /* \"#utility.yul\":15905:15938   */\n      slt\n        /* \"#utility.yul\":15902:16022   */\n      iszero\n      tag_670\n      jumpi\n        /* \"#utility.yul\":15941:16020   */\n      tag_671\n      tag_424\n      jump\t// in\n    tag_671:\n        /* \"#utility.yul\":15902:16022   */\n    tag_670:\n        /* \"#utility.yul\":16061:16062   */\n      0x00\n        /* \"#utility.yul\":16086:16149   */\n      tag_672\n        /* \"#utility.yul\":16141:16148   */\n      dup9\n        /* \"#utility.yul\":16132:16138   */\n      dup3\n        /* \"#utility.yul\":16121:16130   */\n      dup10\n        /* \"#utility.yul\":16117:16139   */\n      add\n        /* \"#utility.yul\":16086:16149   */\n      tag_468\n      jump\t// in\n    tag_672:\n        /* \"#utility.yul\":16076:16149   */\n      swap6\n      pop\n        /* \"#utility.yul\":16032:16159   */\n      pop\n        /* \"#utility.yul\":16198:16200   */\n      0x20\n        /* \"#utility.yul\":16224:16287   */\n      tag_673\n        /* \"#utility.yul\":16279:16286   */\n      dup9\n        /* \"#utility.yul\":16270:16276   */\n      dup3\n        /* \"#utility.yul\":16259:16268   */\n      dup10\n        /* \"#utility.yul\":16255:16277   */\n      add\n        /* \"#utility.yul\":16224:16287   */\n      tag_471\n      jump\t// in\n    tag_673:\n        /* \"#utility.yul\":16214:16287   */\n      swap5\n      pop\n        /* \"#utility.yul\":16169:16297   */\n      pop\n        /* \"#utility.yul\":16336:16338   */\n      0x40\n        /* \"#utility.yul\":16362:16426   */\n      tag_674\n        /* \"#utility.yul\":16418:16425   */\n      dup9\n        /* \"#utility.yul\":16409:16415   */\n      dup3\n        /* \"#utility.yul\":16398:16407   */\n      dup10\n        /* \"#utility.yul\":16394:16416   */\n      add\n        /* \"#utility.yul\":16362:16426   */\n      tag_472\n      jump\t// in\n    tag_674:\n        /* \"#utility.yul\":16352:16426   */\n      swap4\n      pop\n        /* \"#utility.yul\":16307:16436   */\n      pop\n        /* \"#utility.yul\":16475:16477   */\n      0x60\n        /* \"#utility.yul\":16501:16565   */\n      tag_675\n        /* \"#utility.yul\":16557:16564   */\n      dup9\n        /* \"#utility.yul\":16548:16554   */\n      dup3\n        /* \"#utility.yul\":16537:16546   */\n      dup10\n        /* \"#utility.yul\":16533:16555   */\n      add\n        /* \"#utility.yul\":16501:16565   */\n      tag_472\n      jump\t// in\n    tag_675:\n        /* \"#utility.yul\":16491:16565   */\n      swap3\n      pop\n        /* \"#utility.yul\":16446:16575   */\n      pop\n        /* \"#utility.yul\":16614:16617   */\n      0x80\n        /* \"#utility.yul\":16641:16704   */\n      tag_676\n        /* \"#utility.yul\":16696:16703   */\n      dup9\n        /* \"#utility.yul\":16687:16693   */\n      dup3\n        /* \"#utility.yul\":16676:16685   */\n      dup10\n        /* \"#utility.yul\":16672:16694   */\n      add\n        /* \"#utility.yul\":16641:16704   */\n      tag_468\n      jump\t// in\n    tag_676:\n        /* \"#utility.yul\":16631:16704   */\n      swap2\n      pop\n        /* \"#utility.yul\":16585:16714   */\n      pop\n        /* \"#utility.yul\":15750:16721   */\n      swap3\n      swap6\n      pop\n      swap3\n      swap6\n      swap1\n      swap4\n      pop\n      jump\t// out\n        /* \"#utility.yul\":16727:16904   */\n    tag_473:\n        /* \"#utility.yul\":16867:16896   */\n      0x496e76616c6964207072696365206665656420726573706f6e73650000000000\n        /* \"#utility.yul\":16863:16864   */\n      0x00\n        /* \"#utility.yul\":16855:16861   */\n      dup3\n        /* \"#utility.yul\":16851:16865   */\n      add\n        /* \"#utility.yul\":16844:16897   */\n      mstore\n        /* \"#utility.yul\":16727:16904   */\n      pop\n      jump\t// out\n        /* \"#utility.yul\":16910:17276   */\n    tag_474:\n        /* \"#utility.yul\":17052:17055   */\n      0x00\n        /* \"#utility.yul\":17073:17140   */\n      tag_679\n        /* \"#utility.yul\":17137:17139   */\n      0x1b\n        /* \"#utility.yul\":17132:17135   */\n      dup4\n        /* \"#utility.yul\":17073:17140   */\n      tag_432\n      jump\t// in\n    tag_679:\n        /* \"#utility.yul\":17066:17140   */\n      swap2\n      pop\n        /* \"#utility.yul\":17149:17242   */\n      tag_680\n        /* \"#utility.yul\":17238:17241   */\n      dup3\n        /* \"#utility.yul\":17149:17242   */\n      tag_473\n      jump\t// in\n    tag_680:\n        /* \"#utility.yul\":17267:17269   */\n      0x20\n        /* \"#utility.yul\":17262:17265   */\n      dup3\n        /* \"#utility.yul\":17258:17270   */\n      add\n        /* \"#utility.yul\":17251:17270   */\n      swap1\n      pop\n        /* \"#utility.yul\":16910:17276   */\n      swap2\n      swap1\n      pop\n      jump\t// out\n        /* \"#utility.yul\":17282:17701   */\n    tag_326:\n        /* \"#utility.yul\":17448:17452   */\n      0x00\n        /* \"#utility.yul\":17486:17488   */\n      0x20\n        /* \"#utility.yul\":17475:17484   */\n      dup3\n        /* \"#utility.yul\":17471:17489   */\n      add\n        /* \"#utility.yul\":17463:17489   */\n      swap1\n      pop\n        /* \"#utility.yul\":17535:17544   */\n      dup2\n        /* \"#utility.yul\":17529:17533   */\n      dup2\n        /* \"#utility.yul\":17525:17545   */\n      sub\n        /* \"#utility.yul\":17521:17522   */\n      0x00\n        /* \"#utility.yul\":17510:17519   */\n      dup4\n        /* \"#utility.yul\":17506:17523   */\n      add\n        /* \"#utility.yul\":17499:17546   */\n      mstore\n        /* \"#utility.yul\":17563:17694   */\n      tag_682\n        /* \"#utility.yul\":17689:17693   */\n      dup2\n        /* \"#utility.yul\":17563:17694   */\n      tag_474\n      jump\t// in\n    tag_682:\n        /* \"#utility.yul\":17555:17694   */\n      swap1\n      pop\n        /* \"#utility.yul\":17282:17701   */\n      swap2\n      swap1\n      pop\n      jump\t// out\n        /* \"#utility.yul\":17707:18149   */\n    tag_343:\n        /* \"#utility.yul\":17856:17860   */\n      0x00\n        /* \"#utility.yul\":17894:17896   */\n      0x60\n        /* \"#utility.yul\":17883:17892   */\n      dup3\n        /* \"#utility.yul\":17879:17897   */\n      add\n        /* \"#utility.yul\":17871:17897   */\n      swap1\n      pop\n        /* \"#utility.yul\":17907:17978   */\n      tag_684\n        /* \"#utility.yul\":17975:17976   */\n      0x00\n        /* \"#utility.yul\":17964:17973   */\n      dup4\n        /* \"#utility.yul\":17960:17977   */\n      add\n        /* \"#utility.yul\":17951:17957   */\n      dup7\n        /* \"#utility.yul\":17907:17978   */\n      tag_455\n      jump\t// in\n    tag_684:\n        /* \"#utility.yul\":17988:18060   */\n      tag_685\n        /* \"#utility.yul\":18056:18058   */\n      0x20\n        /* \"#utility.yul\":18045:18054   */\n      dup4\n        /* \"#utility.yul\":18041:18059   */\n      add\n        /* \"#utility.yul\":18032:18038   */\n      dup6\n        /* \"#utility.yul\":17988:18060   */\n      tag_443\n      jump\t// in\n    tag_685:\n        /* \"#utility.yul\":18070:18142   */\n      tag_686\n        /* \"#utility.yul\":18138:18140   */\n      0x40\n        /* \"#utility.yul\":18127:18136   */\n      dup4\n        /* \"#utility.yul\":18123:18141   */\n      add\n        /* \"#utility.yul\":18114:18120   */\n      dup5\n        /* \"#utility.yul\":18070:18142   */\n      tag_443\n      jump\t// in\n    tag_686:\n        /* \"#utility.yul\":17707:18149   */\n      swap5\n      swap4\n      pop\n      pop\n      pop\n      pop\n      jump\t// out\n        /* \"#utility.yul\":18155:18336   */\n    tag_475:\n        /* \"#utility.yul\":18295:18328   */\n      0x5265656e7472616e637947756172643a207265656e7472616e742063616c6c00\n        /* \"#utility.yul\":18291:18292   */\n      0x00\n        /* \"#utility.yul\":18283:18289   */\n      dup3\n        /* \"#utility.yul\":18279:18293   */\n      add\n        /* \"#utility.yul\":18272:18329   */\n      mstore\n        /* \"#utility.yul\":18155:18336   */\n      pop\n      jump\t// out\n        /* \"#utility.yul\":18342:18708   */\n    tag_476:\n        /* \"#utility.yul\":18484:18487   */\n      0x00\n        /* \"#utility.yul\":18505:18572   */\n      tag_689\n        /* \"#utility.yul\":18569:18571   */\n      0x1f\n        /* \"#utility.yul\":18564:18567   */\n      dup4\n        /* \"#utility.yul\":18505:18572   */\n      tag_432\n      jump\t// in\n    tag_689:\n        /* \"#utility.yul\":18498:18572   */\n      swap2\n      pop\n        /* \"#utility.yul\":18581:18674   */\n      tag_690\n        /* \"#utility.yul\":18670:18673   */\n      dup3\n        /* \"#utility.yul\":18581:18674   */\n      tag_475\n      jump\t// in\n    tag_690:\n        /* \"#utility.yul\":18699:18701   */\n      0x20\n        /* \"#utility.yul\":18694:18697   */\n      dup3\n        /* \"#utility.yul\":18690:18702   */\n      add\n        /* \"#utility.yul\":18683:18702   */\n      swap1\n      pop\n        /* \"#utility.yul\":18342:18708   */\n      swap2\n      swap1\n      pop\n      jump\t// out\n        /* \"#utility.yul\":18714:19133   */\n    tag_376:\n        /* \"#utility.yul\":18880:18884   */\n      0x00\n        /* \"#utility.yul\":18918:18920   */\n      0x20\n        /* \"#utility.yul\":18907:18916   */\n      dup3\n        /* \"#utility.yul\":18903:18921   */\n      add\n        /* \"#utility.yul\":18895:18921   */\n      swap1\n      pop\n        /* \"#utility.yul\":18967:18976   */\n      dup2\n        /* \"#utility.yul\":18961:18965   */\n      dup2\n        /* \"#utility.yul\":18957:18977   */\n      sub\n        /* \"#utility.yul\":18953:18954   */\n      0x00\n        /* \"#utility.yul\":18942:18951   */\n      dup4\n        /* \"#utility.yul\":18938:18955   */\n      add\n        /* \"#utility.yul\":18931:18978   */\n      mstore\n        /* \"#utility.yul\":18995:19126   */\n      tag_692\n        /* \"#utility.yul\":19121:19125   */\n      dup2\n        /* \"#utility.yul\":18995:19126   */\n      tag_476\n      jump\t// in\n    tag_692:\n        /* \"#utility.yul\":18987:19126   */\n      swap1\n      pop\n        /* \"#utility.yul\":18714:19133   */\n      swap2\n      swap1\n      pop\n      jump\t// out\n        /* \"#utility.yul\":19139:19581   */\n    tag_380:\n        /* \"#utility.yul\":19288:19292   */\n      0x00\n        /* \"#utility.yul\":19326:19328   */\n      0x60\n        /* \"#utility.yul\":19315:19324   */\n      dup3\n        /* \"#utility.yul\":19311:19329   */\n      add\n        /* \"#utility.yul\":19303:19329   */\n      swap1\n      pop\n        /* \"#utility.yul\":19339:19410   */\n      tag_694\n        /* \"#utility.yul\":19407:19408   */\n      0x00\n        /* \"#utility.yul\":19396:19405   */\n      dup4\n        /* \"#utility.yul\":19392:19409   */\n      add\n        /* \"#utility.yul\":19383:19389   */\n      dup7\n        /* \"#utility.yul\":19339:19410   */\n      tag_455\n      jump\t// in\n    tag_694:\n        /* \"#utility.yul\":19420:19492   */\n      tag_695\n        /* \"#utility.yul\":19488:19490   */\n      0x20\n        /* \"#utility.yul\":19477:19486   */\n      dup4\n        /* \"#utility.yul\":19473:19491   */\n      add\n        /* \"#utility.yul\":19464:19470   */\n      dup6\n        /* \"#utility.yul\":19420:19492   */\n      tag_455\n      jump\t// in\n    tag_695:\n        /* \"#utility.yul\":19502:19574   */\n      tag_696\n        /* \"#utility.yul\":19570:19572   */\n      0x40\n        /* \"#utility.yul\":19559:19568   */\n      dup4\n        /* \"#utility.yul\":19555:19573   */\n      add\n        /* \"#utility.yul\":19546:19552   */\n      dup5\n        /* \"#utility.yul\":19502:19574   */\n      tag_443\n      jump\t// in\n    tag_696:\n        /* \"#utility.yul\":19139:19581   */\n      swap5\n      swap4\n      pop\n      pop\n      pop\n      pop\n      jump\t// out\n        /* \"#utility.yul\":19587:19919   */\n    tag_394:\n        /* \"#utility.yul\":19708:19712   */\n      0x00\n        /* \"#utility.yul\":19746:19748   */\n      0x40\n        /* \"#utility.yul\":19735:19744   */\n      dup3\n        /* \"#utility.yul\":19731:19749   */\n      add\n        /* \"#utility.yul\":19723:19749   */\n      swap1\n      pop\n        /* \"#utility.yul\":19759:19830   */\n      tag_698\n        /* \"#utility.yul\":19827:19828   */\n      0x00\n        /* \"#utility.yul\":19816:19825   */\n      dup4\n        /* \"#utility.yul\":19812:19829   */\n      add\n        /* \"#utility.yul\":19803:19809   */\n      dup6\n        /* \"#utility.yul\":19759:19830   */\n      tag_455\n      jump\t// in\n    tag_698:\n        /* \"#utility.yul\":19840:19912   */\n      tag_699\n        /* \"#utility.yul\":19908:19910   */\n      0x20\n        /* \"#utility.yul\":19897:19906   */\n      dup4\n        /* \"#utility.yul\":19893:19911   */\n      add\n        /* \"#utility.yul\":19884:19890   */\n      dup5\n        /* \"#utility.yul\":19840:19912   */\n      tag_443\n      jump\t// in\n    tag_699:\n        /* \"#utility.yul\":19587:19919   */\n      swap4\n      swap3\n      pop\n      pop\n      pop\n      jump\t// out\n        /* \"#utility.yul\":19925:20116   */\n    tag_405:\n        /* \"#utility.yul\":19965:19968   */\n      0x00\n        /* \"#utility.yul\":19984:20004   */\n      tag_701\n        /* \"#utility.yul\":20002:20003   */\n      dup3\n        /* \"#utility.yul\":19984:20004   */\n      tag_440\n      jump\t// in\n    tag_701:\n        /* \"#utility.yul\":19979:20004   */\n      swap2\n      pop\n        /* \"#utility.yul\":20018:20038   */\n      tag_702\n        /* \"#utility.yul\":20036:20037   */\n      dup4\n        /* \"#utility.yul\":20018:20038   */\n      tag_440\n      jump\t// in\n    tag_702:\n        /* \"#utility.yul\":20013:20038   */\n      swap3\n      pop\n        /* \"#utility.yul\":20061:20062   */\n      dup3\n        /* \"#utility.yul\":20058:20059   */\n      dup3\n        /* \"#utility.yul\":20054:20063   */\n      add\n        /* \"#utility.yul\":20047:20063   */\n      swap1\n      pop\n        /* \"#utility.yul\":20082:20085   */\n      dup1\n        /* \"#utility.yul\":20079:20080   */\n      dup3\n        /* \"#utility.yul\":20076:20086   */\n      gt\n        /* \"#utility.yul\":20073:20109   */\n      iszero\n      tag_703\n      jumpi\n        /* \"#utility.yul\":20089:20107   */\n      tag_704\n      tag_459\n      jump\t// in\n    tag_704:\n        /* \"#utility.yul\":20073:20109   */\n    tag_703:\n        /* \"#utility.yul\":19925:20116   */\n      swap3\n      swap2\n      pop\n      pop\n      jump\t// out\n        /* \"#utility.yul\":20122:20454   */\n    tag_416:\n        /* \"#utility.yul\":20243:20247   */\n      0x00\n        /* \"#utility.yul\":20281:20283   */\n      0x40\n        /* \"#utility.yul\":20270:20279   */\n      dup3\n        /* \"#utility.yul\":20266:20284   */\n      add\n        /* \"#utility.yul\":20258:20284   */\n      swap1\n      pop\n        /* \"#utility.yul\":20294:20365   */\n      tag_706\n        /* \"#utility.yul\":20362:20363   */\n      0x00\n        /* \"#utility.yul\":20351:20360   */\n      dup4\n        /* \"#utility.yul\":20347:20364   */\n      add\n        /* \"#utility.yul\":20338:20344   */\n      dup6\n        /* \"#utility.yul\":20294:20365   */\n      tag_455\n      jump\t// in\n    tag_706:\n        /* \"#utility.yul\":20375:20447   */\n      tag_707\n        /* \"#utility.yul\":20443:20445   */\n      0x20\n        /* \"#utility.yul\":20432:20441   */\n      dup4\n        /* \"#utility.yul\":20428:20446   */\n      add\n        /* \"#utility.yul\":20419:20425   */\n      dup5\n        /* \"#utility.yul\":20375:20447   */\n      tag_447\n      jump\t// in\n    tag_707:\n        /* \"#utility.yul\":20122:20454   */\n      swap4\n      swap3\n      pop\n      pop\n      pop\n      jump\t// out\n\n    auxdata: 0xa2646970667358221220a2b970e1a8bab334b08b6ba95edcd96c4288e5095455e38d0bc14498e76c543664736f6c634300081e0033\n}\n",
				"bytecode": {
					"linkReferences": {},
					"object": "60c06040526096600955348015610014575f5ffd5b50604051613699380380613699833981810160405281019061003691906105d3565b816040518060400160405280601581526020017f53696d706c652055534420537461626c65636f696e00000000000000000000008152506040518060400160405280600481526020017f735553440000000000000000000000000000000000000000000000000000000081525081600390816100b29190610860565b5080600490816100c29190610860565b5050505f73ffffffffffffffffffffffffffffffffffffffff168173ffffffffffffffffffffffffffffffffffffffff1603610135575f6040517f1e4fbdf700000000000000000000000000000000000000000000000000000000815260040161012c919061093e565b60405180910390fd5b6101448161035160201b60201c565b5060016006819055505f73ffffffffffffffffffffffffffffffffffffffff168373ffffffffffffffffffffffffffffffffffffffff16036101b2576040517f28d3d34200000000000000000000000000000000000000000000000000000000815260040160405180910390fd5b5f73ffffffffffffffffffffffffffffffffffffffff168173ffffffffffffffffffffffffffffffffffffffff1603610217576040517fe358806300000000000000000000000000000000000000000000000000000000815260040160405180910390fd5b8273ffffffffffffffffffffffffffffffffffffffff1660808173ffffffffffffffffffffffffffffffffffffffff16815250508273ffffffffffffffffffffffffffffffffffffffff1663313ce5676040518163ffffffff1660e01b8152600401602060405180830381865afa158015610294573d5f5f3e3d5ffd5b505050506040513d601f19601f820116820180604052508101906102b8919061098d565b60ff1660a08160ff16815250508060085f6101000a81548173ffffffffffffffffffffffffffffffffffffffff021916908373ffffffffffffffffffffffffffffffffffffffff1602179055506103175f5f1b8361041460201b60201c565b506103487fd83007455b073bdf2abc6e8b18ce2847f802b368f0ad3a285cbb1773ec2f4c838361041460201b60201c565b505050506109b8565b5f60055f9054906101000a900473ffffffffffffffffffffffffffffffffffffffff1690508160055f6101000a81548173ffffffffffffffffffffffffffffffffffffffff021916908373ffffffffffffffffffffffffffffffffffffffff1602179055508173ffffffffffffffffffffffffffffffffffffffff168173ffffffffffffffffffffffffffffffffffffffff167f8be0079c531659141344cd1fd0a4f28419497f9722a3daafe3b4186f6b6457e060405160405180910390a35050565b5f610425838361050a60201b60201c565b61050057600160075f8581526020019081526020015f205f015f8473ffffffffffffffffffffffffffffffffffffffff1673ffffffffffffffffffffffffffffffffffffffff1681526020019081526020015f205f6101000a81548160ff02191690831515021790555061049d61056e60201b60201c565b73ffffffffffffffffffffffffffffffffffffffff168273ffffffffffffffffffffffffffffffffffffffff16847f2f8788117e7eff1d82e926ec794901d17c78024a50270940304540a733656f0d60405160405180910390a460019050610504565b5f90505b92915050565b5f60075f8481526020019081526020015f205f015f8373ffffffffffffffffffffffffffffffffffffffff1673ffffffffffffffffffffffffffffffffffffffff1681526020019081526020015f205f9054906101000a900460ff16905092915050565b5f33905090565b5f5ffd5b5f73ffffffffffffffffffffffffffffffffffffffff82169050919050565b5f6105a282610579565b9050919050565b6105b281610598565b81146105bc575f5ffd5b50565b5f815190506105cd816105a9565b92915050565b5f5f5f606084860312156105ea576105e9610575565b5b5f6105f7868287016105bf565b9350506020610608868287016105bf565b9250506040610619868287016105bf565b9150509250925092565b5f81519050919050565b7f4e487b71000000000000000000000000000000000000000000000000000000005f52604160045260245ffd5b7f4e487b71000000000000000000000000000000000000000000000000000000005f52602260045260245ffd5b5f600282049050600182168061069e57607f821691505b6020821081036106b1576106b061065a565b5b50919050565b5f819050815f5260205f209050919050565b5f6020601f8301049050919050565b5f82821b905092915050565b5f600883026107137fffffffffffffffffffffffffffffffffffffffffffffffffffffffffffffffff826106d8565b61071d86836106d8565b95508019841693508086168417925050509392505050565b5f819050919050565b5f819050919050565b5f61076161075c61075784610735565b61073e565b610735565b9050919050565b5f819050919050565b61077a83610747565b61078e61078682610768565b8484546106e4565b825550505050565b5f5f905090565b6107a5610796565b6107b0818484610771565b505050565b5b818110156107d3576107c85f8261079d565b6001810190506107b6565b5050565b601f821115610818576107e9816106b7565b6107f2846106c9565b81016020851015610801578190505b61081561080d856106c9565b8301826107b5565b50505b505050565b5f82821c905092915050565b5f6108385f198460080261081d565b1980831691505092915050565b5f6108508383610829565b9150826002028217905092915050565b61086982610623565b67ffffffffffffffff8111156108825761088161062d565b5b61088c8254610687565b6108978282856107d7565b5f60209050601f8311600181146108c8575f84156108b6578287015190505b6108c08582610845565b865550610927565b601f1984166108d6866106b7565b5f5b828110156108fd578489015182556001820191506020850194506020810190506108d8565b8683101561091a5784890151610916601f891682610829565b8355505b6001600288020188555050505b505050505050565b61093881610598565b82525050565b5f6020820190506109515f83018461092f565b92915050565b5f60ff82169050919050565b61096c81610957565b8114610976575f5ffd5b50565b5f8151905061098781610963565b92915050565b5f602082840312156109a2576109a1610575565b5b5f6109af84828501610979565b91505092915050565b60805160a051612c96610a035f395f818161084f01528181610d6401528181610fce015281816111b4015261149701525f8181610dae01528181610eaa01526112070152612c965ff3fe608060405234801561000f575f5ffd5b50600436106101e3575f3560e01c806391d148541161010d578063d547741f116100a0578063e5829d201161006f578063e5829d20146105a5578063eb91d37e146105c1578063ec9c6c30146105df578063f2fde38b146105fd576101e3565b8063d547741f1461051f578063db006a751461053b578063dcaf9c4414610557578063dd62ed3e14610575576101e3565b8063a2fd773d116100dc578063a2fd773d14610483578063a9059cbb146104a1578063b2016bd4146104d1578063ba6af5ab146104ef576101e3565b806391d14854146103fb57806395d89b411461042b578063a0712d6814610449578063a217fddf14610465576101e3565b80632f2ff15d11610185578063715018a611610154578063715018a614610399578063741bef1a146103a357806374626404146103c15780638da5cb5b146103dd576101e3565b80632f2ff15d14610313578063313ce5671461032f57806336568abe1461034d57806370a0823114610369576101e3565b806318160ddd116101c157806318160ddd146102655780631bde17fe1461028357806323b872dd146102b3578063248a9ca3146102e3576101e3565b806301ffc9a7146101e757806306fdde0314610217578063095ea7b314610235575b5f5ffd5b61020160048036038101906101fc91906121f9565b610619565b60405161020e919061223e565b60405180910390f35b61021f610692565b60405161022c91906122c7565b60405180910390f35b61024f600480360381019061024a9190612374565b610722565b60405161025c919061223e565b60405180910390f35b61026d610744565b60405161027a91906123c1565b60405180910390f35b61029d600480360381019061029891906123da565b61074d565b6040516102aa91906123c1565b60405180910390f35b6102cd60048036038101906102c89190612405565b61089e565b6040516102da919061223e565b60405180910390f35b6102fd60048036038101906102f89190612488565b6108cc565b60405161030a91906124c2565b60405180910390f35b61032d600480360381019061032891906124db565b6108e9565b005b61033761090b565b6040516103449190612534565b60405180910390f35b610367600480360381019061036291906124db565b610913565b005b610383600480360381019061037e919061254d565b61098e565b60405161039091906123c1565b60405180910390f35b6103a16109d3565b005b6103ab6109e6565b6040516103b891906125d3565b60405180910390f35b6103db60048036038101906103d6919061254d565b610a0b565b005b6103e5610b15565b6040516103f291906125fb565b60405180910390f35b610415600480360381019061041091906124db565b610b3d565b604051610422919061223e565b60405180910390f35b610433610ba1565b60405161044091906122c7565b60405180910390f35b610463600480360381019061045e91906123da565b610c31565b005b61046d610e5c565b60405161047a91906124c2565b60405180910390f35b61048b610e62565b60405161049891906124c2565b60405180910390f35b6104bb60048036038101906104b69190612374565b610e86565b6040516104c8919061223e565b60405180910390f35b6104d9610ea8565b6040516104e69190612634565b60405180910390f35b610509600480360381019061050491906123da565b610ecc565b60405161051691906123c1565b60405180910390f35b610539600480360381019061053491906124db565b61101d565b005b610555600480360381019061055091906123da565b61103f565b005b61055f6112aa565b60405161056c91906123c1565b60405180910390f35b61058f600480360381019061058a919061264d565b6112b0565b60405161059c91906123c1565b60405180910390f35b6105bf60048036038101906105ba91906123da565b611332565b005b6105c96113b6565b6040516105d691906123c1565b60405180910390f35b6105e7611495565b6040516105f49190612534565b60405180910390f35b6106176004803603810190610612919061254d565b6114b9565b005b5f7f7965db0b000000000000000000000000000000000000000000000000000000007bffffffffffffffffffffffffffffffffffffffffffffffffffffffff1916827bffffffffffffffffffffffffffffffffffffffffffffffffffffffff1916148061068b575061068a8261153d565b5b9050919050565b6060600380546106a1906126b8565b80601f01602080910402602001604051908101604052809291908181526020018280546106cd906126b8565b80156107185780601f106106ef57610100808354040283529160200191610718565b820191905f5260205f20905b8154815290600101906020018083116106fb57829003601f168201915b5050505050905090565b5f5f61072c6115a6565b90506107398185856115ad565b600191505092915050565b5f600254905090565b5f5f820361075d575f9050610899565b5f6107666113b6565b90505f61077161090b565b600a61077d9190612844565b84610788919061288e565b90505f826064610798919061288e565b600954836107a6919061288e565b6107b091906128fc565b90505f60085f9054906101000a900473ffffffffffffffffffffffffffffffffffffffff1673ffffffffffffffffffffffffffffffffffffffff1663313ce5676040518163ffffffff1660e01b8152600401602060405180830381865afa15801561081d573d5f5f3e3d5ffd5b505050506040513d601f19601f820116820180604052508101906108419190612956565b600a61084d9190612844565b7f0000000000000000000000000000000000000000000000000000000000000000600a61087a9190612844565b83610885919061288e565b61088f91906128fc565b9050809450505050505b919050565b5f5f6108a86115a6565b90506108b58582856115bf565b6108c0858585611652565b60019150509392505050565b5f60075f8381526020019081526020015f20600101549050919050565b6108f2826108cc565b6108fb81611742565b6109058383611756565b50505050565b5f6012905090565b61091b6115a6565b73ffffffffffffffffffffffffffffffffffffffff168173ffffffffffffffffffffffffffffffffffffffff161461097f576040517f6697b23200000000000000000000000000000000000000000000000000000000815260040160405180910390fd5b6109898282611840565b505050565b5f5f5f8373ffffffffffffffffffffffffffffffffffffffff1673ffffffffffffffffffffffffffffffffffffffff1681526020019081526020015f20549050919050565b6109db61192a565b6109e45f6119b1565b565b60085f9054906101000a900473ffffffffffffffffffffffffffffffffffffffff1681565b7fd83007455b073bdf2abc6e8b18ce2847f802b368f0ad3a285cbb1773ec2f4c83610a3581611742565b5f73ffffffffffffffffffffffffffffffffffffffff168273ffffffffffffffffffffffffffffffffffffffff1603610a9a576040517fe358806300000000000000000000000000000000000000000000000000000000815260040160405180910390fd5b8160085f6101000a81548173ffffffffffffffffffffffffffffffffffffffff021916908373ffffffffffffffffffffffffffffffffffffffff1602179055507fe5b20b8497e4f3e2435ef9c20e2e26b47497ee13745ce1c681ad6640653119e682604051610b0991906125fb565b60405180910390a15050565b5f60055f9054906101000a900473ffffffffffffffffffffffffffffffffffffffff16905090565b5f60075f8481526020019081526020015f205f015f8373ffffffffffffffffffffffffffffffffffffffff1673ffffffffffffffffffffffffffffffffffffffff1681526020019081526020015f205f9054906101000a900460ff16905092915050565b606060048054610bb0906126b8565b80601f0160208091040260200160405190810160405280929190818152602001828054610bdc906126b8565b8015610c275780601f10610bfe57610100808354040283529160200191610c27565b820191905f5260205f20905b815481529060010190602001808311610c0a57829003601f168201915b5050505050905090565b610c39611a74565b5f8103610c72576040517f7a5f358c00000000000000000000000000000000000000000000000000000000815260040160405180910390fd5b5f610c7b6113b6565b90505f610c8661090b565b600a610c929190612844565b83610c9d919061288e565b90505f826064610cad919061288e565b60095483610cbb919061288e565b610cc591906128fc565b90505f60085f9054906101000a900473ffffffffffffffffffffffffffffffffffffffff1673ffffffffffffffffffffffffffffffffffffffff1663313ce5676040518163ffffffff1660e01b8152600401602060405180830381865afa158015610d32573d5f5f3e3d5ffd5b505050506040513d601f19601f82011682018060405250810190610d569190612956565b600a610d629190612844565b7f0000000000000000000000000000000000000000000000000000000000000000600a610d8f9190612844565b83610d9a919061288e565b610da491906128fc565b9050610df33330837f000000000000000000000000000000000000000000000000000000000000000073ffffffffffffffffffffffffffffffffffffffff16611ac3909392919063ffffffff16565b610dfd3386611b45565b3373ffffffffffffffffffffffffffffffffffffffff167f25b428dfde728ccfaddad7e29e4ac23c24ed7fd1a6e3e3f91894a9a073f5dfff8683604051610e45929190612981565b60405180910390a250505050610e59611bc4565b50565b5f5f1b81565b7fd83007455b073bdf2abc6e8b18ce2847f802b368f0ad3a285cbb1773ec2f4c8381565b5f5f610e906115a6565b9050610e9d818585611652565b600191505092915050565b7f000000000000000000000000000000000000000000000000000000000000000081565b5f5f8203610edc575f9050611018565b5f610ee56113b6565b90505f610ef061090b565b600a610efc9190612844565b84610f07919061288e565b90505f82600954610f18919061288e565b606483610f25919061288e565b610f2f91906128fc565b90505f60085f9054906101000a900473ffffffffffffffffffffffffffffffffffffffff1673ffffffffffffffffffffffffffffffffffffffff1663313ce5676040518163ffffffff1660e01b8152600401602060405180830381865afa158015610f9c573d5f5f3e3d5ffd5b505050506040513d601f19601f82011682018060405250810190610fc09190612956565b600a610fcc9190612844565b7f0000000000000000000000000000000000000000000000000000000000000000600a610ff99190612844565b83611004919061288e565b61100e91906128fc565b9050809450505050505b919050565b611026826108cc565b61102f81611742565b6110398383611840565b50505050565b611047611a74565b5f8103611080576040517f7a5f358c00000000000000000000000000000000000000000000000000000000815260040160405180910390fd5b8061108a3361098e565b10156110c2576040517f30de15db00000000000000000000000000000000000000000000000000000000815260040160405180910390fd5b5f6110cb6113b6565b90505f6110d661090b565b600a6110e29190612844565b836110ed919061288e565b90505f826009546110fe919061288e565b60648361110b919061288e565b61111591906128fc565b90505f60085f9054906101000a900473ffffffffffffffffffffffffffffffffffffffff1673ffffffffffffffffffffffffffffffffffffffff1663313ce5676040518163ffffffff1660e01b8152600401602060405180830381865afa158015611182573d5f5f3e3d5ffd5b505050506040513d601f19601f820116820180604052508101906111a69190612956565b600a6111b29190612844565b7f0000000000000000000000000000000000000000000000000000000000000000600a6111df9190612844565b836111ea919061288e565b6111f491906128fc565b90506112003386611bce565b61124b33827f000000000000000000000000000000000000000000000000000000000000000073ffffffffffffffffffffffffffffffffffffffff16611c4d9092919063ffffffff16565b3373ffffffffffffffffffffffffffffffffffffffff167ff3a670cd3af7d64b488926880889d08a8585a138ff455227af6737339a1ec2628683604051611293929190612981565b60405180910390a2505050506112a7611bc4565b50565b60095481565b5f60015f8473ffffffffffffffffffffffffffffffffffffffff1673ffffffffffffffffffffffffffffffffffffffff1681526020019081526020015f205f8373ffffffffffffffffffffffffffffffffffffffff1673ffffffffffffffffffffffffffffffffffffffff1681526020019081526020015f2054905092915050565b61133a61192a565b6064811015611375576040517f33efa14600000000000000000000000000000000000000000000000000000000815260040160405180910390fd5b806009819055507ffb0ebe8c7316e6a251494c38876d13d9a3a029273fce7964c12aa2ce07869530816040516113ab91906123c1565b60405180910390a150565b5f5f60085f9054906101000a900473ffffffffffffffffffffffffffffffffffffffff1673ffffffffffffffffffffffffffffffffffffffff1663feaf968c6040518163ffffffff1660e01b815260040160a060405180830381865afa158015611422573d5f5f3e3d5ffd5b505050506040513d601f19601f820116820180604052508101906114469190612a2e565b5050509150505f811361148e576040517f08c379a000000000000000000000000000000000000000000000000000000000815260040161148590612aef565b60405180910390fd5b8091505090565b7f000000000000000000000000000000000000000000000000000000000000000081565b6114c161192a565b5f73ffffffffffffffffffffffffffffffffffffffff168173ffffffffffffffffffffffffffffffffffffffff1603611531575f6040517f1e4fbdf700000000000000000000000000000000000000000000000000000000815260040161152891906125fb565b60405180910390fd5b61153a816119b1565b50565b5f7f01ffc9a7000000000000000000000000000000000000000000000000000000007bffffffffffffffffffffffffffffffffffffffffffffffffffffffff1916827bffffffffffffffffffffffffffffffffffffffffffffffffffffffff1916149050919050565b5f33905090565b6115ba8383836001611ccc565b505050565b5f6115ca84846112b0565b90507fffffffffffffffffffffffffffffffffffffffffffffffffffffffffffffffff81101561164c578181101561163d578281836040517ffb8f41b200000000000000000000000000000000000000000000000000000000815260040161163493929190612b0d565b60405180910390fd5b61164b84848484035f611ccc565b5b50505050565b5f73ffffffffffffffffffffffffffffffffffffffff168373ffffffffffffffffffffffffffffffffffffffff16036116c2575f6040517f96c6fd1e0000000000000000000000000000000000000000000000000000000081526004016116b991906125fb565b60405180910390fd5b5f73ffffffffffffffffffffffffffffffffffffffff168273ffffffffffffffffffffffffffffffffffffffff1603611732575f6040517fec442f0500000000000000000000000000000000000000000000000000000000815260040161172991906125fb565b60405180910390fd5b61173d838383611e9b565b505050565b6117538161174e6115a6565b6120b4565b50565b5f6117618383610b3d565b61183657600160075f8581526020019081526020015f205f015f8473ffffffffffffffffffffffffffffffffffffffff1673ffffffffffffffffffffffffffffffffffffffff1681526020019081526020015f205f6101000a81548160ff0219169083151502179055506117d36115a6565b73ffffffffffffffffffffffffffffffffffffffff168273ffffffffffffffffffffffffffffffffffffffff16847f2f8788117e7eff1d82e926ec794901d17c78024a50270940304540a733656f0d60405160405180910390a46001905061183a565b5f90505b92915050565b5f61184b8383610b3d565b15611920575f60075f8581526020019081526020015f205f015f8473ffffffffffffffffffffffffffffffffffffffff1673ffffffffffffffffffffffffffffffffffffffff1681526020019081526020015f205f6101000a81548160ff0219169083151502179055506118bd6115a6565b73ffffffffffffffffffffffffffffffffffffffff168273ffffffffffffffffffffffffffffffffffffffff16847ff6391f5c32d9c69d2a47ea670b442974b53935d1edc7fd64eb21e047a839171b60405160405180910390a460019050611924565b5f90505b92915050565b6119326115a6565b73ffffffffffffffffffffffffffffffffffffffff16611950610b15565b73ffffffffffffffffffffffffffffffffffffffff16146119af576119736115a6565b6040517f118cdaa70000000000000000000000000000000000000000000000000000000081526004016119a691906125fb565b60405180910390fd5b565b5f60055f9054906101000a900473ffffffffffffffffffffffffffffffffffffffff1690508160055f6101000a81548173ffffffffffffffffffffffffffffffffffffffff021916908373ffffffffffffffffffffffffffffffffffffffff1602179055508173ffffffffffffffffffffffffffffffffffffffff168173ffffffffffffffffffffffffffffffffffffffff167f8be0079c531659141344cd1fd0a4f28419497f9722a3daafe3b4186f6b6457e060405160405180910390a35050565b600260065403611ab9576040517f08c379a0000000000000000000000000000000000000000000000000000000008152600401611ab090612b8c565b60405180910390fd5b6002600681905550565b611b3f848573ffffffffffffffffffffffffffffffffffffffff166323b872dd868686604051602401611af893929190612baa565b604051602081830303815290604052915060e01b6020820180517bffffffffffffffffffffffffffffffffffffffffffffffffffffffff8381831617835250505050612105565b50505050565b5f73ffffffffffffffffffffffffffffffffffffffff168273ffffffffffffffffffffffffffffffffffffffff1603611bb5575f6040517fec442f05000000000000000000000000000000000000000000000000000000008152600401611bac91906125fb565b60405180910390fd5b611bc05f8383611e9b565b5050565b6001600681905550565b5f73ffffffffffffffffffffffffffffffffffffffff168273ffffffffffffffffffffffffffffffffffffffff1603611c3e575f6040517f96c6fd1e000000000000000000000000000000000000000000000000000000008152600401611c3591906125fb565b60405180910390fd5b611c49825f83611e9b565b5050565b611cc7838473ffffffffffffffffffffffffffffffffffffffff1663a9059cbb8585604051602401611c80929190612bdf565b604051602081830303815290604052915060e01b6020820180517bffffffffffffffffffffffffffffffffffffffffffffffffffffffff8381831617835250505050612105565b505050565b5f73ffffffffffffffffffffffffffffffffffffffff168473ffffffffffffffffffffffffffffffffffffffff1603611d3c575f6040517fe602df05000000000000000000000000000000000000000000000000000000008152600401611d3391906125fb565b60405180910390fd5b5f73ffffffffffffffffffffffffffffffffffffffff168373ffffffffffffffffffffffffffffffffffffffff1603611dac575f6040517f94280d62000000000000000000000000000000000000000000000000000000008152600401611da391906125fb565b60405180910390fd5b8160015f8673ffffffffffffffffffffffffffffffffffffffff1673ffffffffffffffffffffffffffffffffffffffff1681526020019081526020015f205f8573ffffffffffffffffffffffffffffffffffffffff1673ffffffffffffffffffffffffffffffffffffffff1681526020019081526020015f20819055508015611e95578273ffffffffffffffffffffffffffffffffffffffff168473ffffffffffffffffffffffffffffffffffffffff167f8c5be1e5ebec7d5bd14f71427d1e84f3dd0314c0f7b2291e5b200ac8c7c3b92584604051611e8c91906123c1565b60405180910390a35b50505050565b5f73ffffffffffffffffffffffffffffffffffffffff168373ffffffffffffffffffffffffffffffffffffffff1603611eeb578060025f828254611edf9190612c06565b92505081905550611fb9565b5f5f5f8573ffffffffffffffffffffffffffffffffffffffff1673ffffffffffffffffffffffffffffffffffffffff1681526020019081526020015f2054905081811015611f74578381836040517fe450d38c000000000000000000000000000000000000000000000000000000008152600401611f6b93929190612b0d565b60405180910390fd5b8181035f5f8673ffffffffffffffffffffffffffffffffffffffff1673ffffffffffffffffffffffffffffffffffffffff1681526020019081526020015f2081905550505b5f73ffffffffffffffffffffffffffffffffffffffff168273ffffffffffffffffffffffffffffffffffffffff1603612000578060025f828254039250508190555061204a565b805f5f8473ffffffffffffffffffffffffffffffffffffffff1673ffffffffffffffffffffffffffffffffffffffff1681526020019081526020015f205f82825401925050819055505b8173ffffffffffffffffffffffffffffffffffffffff168373ffffffffffffffffffffffffffffffffffffffff167fddf252ad1be2c89b69c2b068fc378daa952ba7f163c4a11628f55a4df523b3ef836040516120a791906123c1565b60405180910390a3505050565b6120be8282610b3d565b6121015780826040517fe2517d3f0000000000000000000000000000000000000000000000000000000081526004016120f8929190612c39565b60405180910390fd5b5050565b5f5f60205f8451602086015f885af180612124576040513d5f823e3d81fd5b3d92505f519150505f821461213d576001811415612158565b5f8473ffffffffffffffffffffffffffffffffffffffff163b145b1561219a57836040517f5274afe700000000000000000000000000000000000000000000000000000000815260040161219191906125fb565b60405180910390fd5b50505050565b5f5ffd5b5f7fffffffff0000000000000000000000000000000000000000000000000000000082169050919050565b6121d8816121a4565b81146121e2575f5ffd5b50565b5f813590506121f3816121cf565b92915050565b5f6020828403121561220e5761220d6121a0565b5b5f61221b848285016121e5565b91505092915050565b5f8115159050919050565b61223881612224565b82525050565b5f6020820190506122515f83018461222f565b92915050565b5f81519050919050565b5f82825260208201905092915050565b8281835e5f83830152505050565b5f601f19601f8301169050919050565b5f61229982612257565b6122a38185612261565b93506122b3818560208601612271565b6122bc8161227f565b840191505092915050565b5f6020820190508181035f8301526122df818461228f565b905092915050565b5f73ffffffffffffffffffffffffffffffffffffffff82169050919050565b5f612310826122e7565b9050919050565b61232081612306565b811461232a575f5ffd5b50565b5f8135905061233b81612317565b92915050565b5f819050919050565b61235381612341565b811461235d575f5ffd5b50565b5f8135905061236e8161234a565b92915050565b5f5f6040838503121561238a576123896121a0565b5b5f6123978582860161232d565b92505060206123a885828601612360565b9150509250929050565b6123bb81612341565b82525050565b5f6020820190506123d45f8301846123b2565b92915050565b5f602082840312156123ef576123ee6121a0565b5b5f6123fc84828501612360565b91505092915050565b5f5f5f6060848603121561241c5761241b6121a0565b5b5f6124298682870161232d565b935050602061243a8682870161232d565b925050604061244b86828701612360565b9150509250925092565b5f819050919050565b61246781612455565b8114612471575f5ffd5b50565b5f813590506124828161245e565b92915050565b5f6020828403121561249d5761249c6121a0565b5b5f6124aa84828501612474565b91505092915050565b6124bc81612455565b82525050565b5f6020820190506124d55f8301846124b3565b92915050565b5f5f604083850312156124f1576124f06121a0565b5b5f6124fe85828601612474565b925050602061250f8582860161232d565b9150509250929050565b5f60ff82169050919050565b61252e81612519565b82525050565b5f6020820190506125475f830184612525565b92915050565b5f60208284031215612562576125616121a0565b5b5f61256f8482850161232d565b91505092915050565b5f819050919050565b5f61259b612596612591846122e7565b612578565b6122e7565b9050919050565b5f6125ac82612581565b9050919050565b5f6125bd826125a2565b9050919050565b6125cd816125b3565b82525050565b5f6020820190506125e65f8301846125c4565b92915050565b6125f581612306565b82525050565b5f60208201905061260e5f8301846125ec565b92915050565b5f61261e826125a2565b9050919050565b61262e81612614565b82525050565b5f6020820190506126475f830184612625565b92915050565b5f5f60408385031215612663576126626121a0565b5b5f6126708582860161232d565b92505060206126818582860161232d565b9150509250929050565b7f4e487b71000000000000000000000000000000000000000000000000000000005f52602260045260245ffd5b5f60028204905060018216806126cf57607f821691505b6020821081036126e2576126e161268b565b5b50919050565b7f4e487b71000000000000000000000000000000000000000000000000000000005f52601160045260245ffd5b5f8160011c9050919050565b5f5f8291508390505b600185111561276a57808604811115612746576127456126e8565b5b60018516156127555780820291505b808102905061276385612715565b945061272a565b94509492505050565b5f82612782576001905061283d565b8161278f575f905061283d565b81600181146127a557600281146127af576127de565b600191505061283d565b60ff8411156127c1576127c06126e8565b5b8360020a9150848211156127d8576127d76126e8565b5b5061283d565b5060208310610133831016604e8410600b84101617156128135782820a90508381111561280e5761280d6126e8565b5b61283d565b6128208484846001612721565b92509050818404811115612837576128366126e8565b5b81810290505b9392505050565b5f61284e82612341565b915061285983612519565b92506128867fffffffffffffffffffffffffffffffffffffffffffffffffffffffffffffffff8484612773565b905092915050565b5f61289882612341565b91506128a383612341565b92508282026128b181612341565b915082820484148315176128c8576128c76126e8565b5b5092915050565b7f4e487b71000000000000000000000000000000000000000000000000000000005f52601260045260245ffd5b5f61290682612341565b915061291183612341565b925082612921576129206128cf565b5b828204905092915050565b61293581612519565b811461293f575f5ffd5b50565b5f815190506129508161292c565b92915050565b5f6020828403121561296b5761296a6121a0565b5b5f61297884828501612942565b91505092915050565b5f6040820190506129945f8301856123b2565b6129a160208301846123b2565b9392505050565b5f69ffffffffffffffffffff82169050919050565b6129c6816129a8565b81146129d0575f5ffd5b50565b5f815190506129e1816129bd565b92915050565b5f819050919050565b6129f9816129e7565b8114612a03575f5ffd5b50565b5f81519050612a14816129f0565b92915050565b5f81519050612a288161234a565b92915050565b5f5f5f5f5f60a08688031215612a4757612a466121a0565b5b5f612a54888289016129d3565b9550506020612a6588828901612a06565b9450506040612a7688828901612a1a565b9350506060612a8788828901612a1a565b9250506080612a98888289016129d3565b9150509295509295909350565b7f496e76616c6964207072696365206665656420726573706f6e736500000000005f82015250565b5f612ad9601b83612261565b9150612ae482612aa5565b602082019050919050565b5f6020820190508181035f830152612b0681612acd565b9050919050565b5f606082019050612b205f8301866125ec565b612b2d60208301856123b2565b612b3a60408301846123b2565b949350505050565b7f5265656e7472616e637947756172643a207265656e7472616e742063616c6c005f82015250565b5f612b76601f83612261565b9150612b8182612b42565b602082019050919050565b5f6020820190508181035f830152612ba381612b6a565b9050919050565b5f606082019050612bbd5f8301866125ec565b612bca60208301856125ec565b612bd760408301846123b2565b949350505050565b5f604082019050612bf25f8301856125ec565b612bff60208301846123b2565b9392505050565b5f612c1082612341565b9150612c1b83612341565b9250828201905080821115612c3357612c326126e8565b5b92915050565b5f604082019050612c4c5f8301856125ec565b612c5960208301846124b3565b939250505056fea2646970667358221220a2b970e1a8bab334b08b6ba95edcd96c4288e5095455e38d0bc14498e76c543664736f6c634300081e0033",
					"opcodes": "PUSH1 0xC0 PUSH1 0x40 MSTORE PUSH1 0x96 PUSH1 0x9 SSTORE CALLVALUE DUP1 ISZERO PUSH2 0x14 JUMPI PUSH0 PUSH0 REVERT JUMPDEST POP PUSH1 0x40 MLOAD PUSH2 0x3699 CODESIZE SUB DUP1 PUSH2 0x3699 DUP4 CODECOPY DUP2 DUP2 ADD PUSH1 0x40 MSTORE DUP2 ADD SWAP1 PUSH2 0x36 SWAP2 SWAP1 PUSH2 0x5D3 JUMP JUMPDEST DUP2 PUSH1 0x40 MLOAD DUP1 PUSH1 0x40 ADD PUSH1 0x40 MSTORE DUP1 PUSH1 0x15 DUP2 MSTORE PUSH1 0x20 ADD PUSH32 0x53696D706C652055534420537461626C65636F696E0000000000000000000000 DUP2 MSTORE POP PUSH1 0x40 MLOAD DUP1 PUSH1 0x40 ADD PUSH1 0x40 MSTORE DUP1 PUSH1 0x4 DUP2 MSTORE PUSH1 0x20 ADD PUSH32 0x7355534400000000000000000000000000000000000000000000000000000000 DUP2 MSTORE POP DUP2 PUSH1 0x3 SWAP1 DUP2 PUSH2 0xB2 SWAP2 SWAP1 PUSH2 0x860 JUMP JUMPDEST POP DUP1 PUSH1 0x4 SWAP1 DUP2 PUSH2 0xC2 SWAP2 SWAP1 PUSH2 0x860 JUMP JUMPDEST POP POP POP PUSH0 PUSH20 0xFFFFFFFFFFFFFFFFFFFFFFFFFFFFFFFFFFFFFFFF AND DUP2 PUSH20 0xFFFFFFFFFFFFFFFFFFFFFFFFFFFFFFFFFFFFFFFF AND SUB PUSH2 0x135 JUMPI PUSH0 PUSH1 0x40 MLOAD PUSH32 0x1E4FBDF700000000000000000000000000000000000000000000000000000000 DUP2 MSTORE PUSH1 0x4 ADD PUSH2 0x12C SWAP2 SWAP1 PUSH2 0x93E JUMP JUMPDEST PUSH1 0x40 MLOAD DUP1 SWAP2 SUB SWAP1 REVERT JUMPDEST PUSH2 0x144 DUP2 PUSH2 0x351 PUSH1 0x20 SHL PUSH1 0x20 SHR JUMP JUMPDEST POP PUSH1 0x1 PUSH1 0x6 DUP2 SWAP1 SSTORE POP PUSH0 PUSH20 0xFFFFFFFFFFFFFFFFFFFFFFFFFFFFFFFFFFFFFFFF AND DUP4 PUSH20 0xFFFFFFFFFFFFFFFFFFFFFFFFFFFFFFFFFFFFFFFF AND SUB PUSH2 0x1B2 JUMPI PUSH1 0x40 MLOAD PUSH32 0x28D3D34200000000000000000000000000000000000000000000000000000000 DUP2 MSTORE PUSH1 0x4 ADD PUSH1 0x40 MLOAD DUP1 SWAP2 SUB SWAP1 REVERT JUMPDEST PUSH0 PUSH20 0xFFFFFFFFFFFFFFFFFFFFFFFFFFFFFFFFFFFFFFFF AND DUP2 PUSH20 0xFFFFFFFFFFFFFFFFFFFFFFFFFFFFFFFFFFFFFFFF AND SUB PUSH2 0x217 JUMPI PUSH1 0x40 MLOAD PUSH32 0xE358806300000000000000000000000000000000000000000000000000000000 DUP2 MSTORE PUSH1 0x4 ADD PUSH1 0x40 MLOAD DUP1 SWAP2 SUB SWAP1 REVERT JUMPDEST DUP3 PUSH20 0xFFFFFFFFFFFFFFFFFFFFFFFFFFFFFFFFFFFFFFFF AND PUSH1 0x80 DUP2 PUSH20 0xFFFFFFFFFFFFFFFFFFFFFFFFFFFFFFFFFFFFFFFF AND DUP2 MSTORE POP POP DUP3 PUSH20 0xFFFFFFFFFFFFFFFFFFFFFFFFFFFFFFFFFFFFFFFF AND PUSH4 0x313CE567 PUSH1 0x40 MLOAD DUP2 PUSH4 0xFFFFFFFF AND PUSH1 0xE0 SHL DUP2 MSTORE PUSH1 0x4 ADD PUSH1 0x20 PUSH1 0x40 MLOAD DUP1 DUP4 SUB DUP2 DUP7 GAS STATICCALL ISZERO DUP1 ISZERO PUSH2 0x294 JUMPI RETURNDATASIZE PUSH0 PUSH0 RETURNDATACOPY RETURNDATASIZE PUSH0 REVERT JUMPDEST POP POP POP POP PUSH1 0x40 MLOAD RETURNDATASIZE PUSH1 0x1F NOT PUSH1 0x1F DUP3 ADD AND DUP3 ADD DUP1 PUSH1 0x40 MSTORE POP DUP2 ADD SWAP1 PUSH2 0x2B8 SWAP2 SWAP1 PUSH2 0x98D JUMP JUMPDEST PUSH1 0xFF AND PUSH1 0xA0 DUP2 PUSH1 0xFF AND DUP2 MSTORE POP POP DUP1 PUSH1 0x8 PUSH0 PUSH2 0x100 EXP DUP2 SLOAD DUP2 PUSH20 0xFFFFFFFFFFFFFFFFFFFFFFFFFFFFFFFFFFFFFFFF MUL NOT AND SWAP1 DUP4 PUSH20 0xFFFFFFFFFFFFFFFFFFFFFFFFFFFFFFFFFFFFFFFF AND MUL OR SWAP1 SSTORE POP PUSH2 0x317 PUSH0 PUSH0 SHL DUP4 PUSH2 0x414 PUSH1 0x20 SHL PUSH1 0x20 SHR JUMP JUMPDEST POP PUSH2 0x348 PUSH32 0xD83007455B073BDF2ABC6E8B18CE2847F802B368F0AD3A285CBB1773EC2F4C83 DUP4 PUSH2 0x414 PUSH1 0x20 SHL PUSH1 0x20 SHR JUMP JUMPDEST POP POP POP POP PUSH2 0x9B8 JUMP JUMPDEST PUSH0 PUSH1 0x5 PUSH0 SWAP1 SLOAD SWAP1 PUSH2 0x100 EXP SWAP1 DIV PUSH20 0xFFFFFFFFFFFFFFFFFFFFFFFFFFFFFFFFFFFFFFFF AND SWAP1 POP DUP2 PUSH1 0x5 PUSH0 PUSH2 0x100 EXP DUP2 SLOAD DUP2 PUSH20 0xFFFFFFFFFFFFFFFFFFFFFFFFFFFFFFFFFFFFFFFF MUL NOT AND SWAP1 DUP4 PUSH20 0xFFFFFFFFFFFFFFFFFFFFFFFFFFFFFFFFFFFFFFFF AND MUL OR SWAP1 SSTORE POP DUP2 PUSH20 0xFFFFFFFFFFFFFFFFFFFFFFFFFFFFFFFFFFFFFFFF AND DUP2 PUSH20 0xFFFFFFFFFFFFFFFFFFFFFFFFFFFFFFFFFFFFFFFF AND PUSH32 0x8BE0079C531659141344CD1FD0A4F28419497F9722A3DAAFE3B4186F6B6457E0 PUSH1 0x40 MLOAD PUSH1 0x40 MLOAD DUP1 SWAP2 SUB SWAP1 LOG3 POP POP JUMP JUMPDEST PUSH0 PUSH2 0x425 DUP4 DUP4 PUSH2 0x50A PUSH1 0x20 SHL PUSH1 0x20 SHR JUMP JUMPDEST PUSH2 0x500 JUMPI PUSH1 0x1 PUSH1 0x7 PUSH0 DUP6 DUP2 MSTORE PUSH1 0x20 ADD SWAP1 DUP2 MSTORE PUSH1 0x20 ADD PUSH0 KECCAK256 PUSH0 ADD PUSH0 DUP5 PUSH20 0xFFFFFFFFFFFFFFFFFFFFFFFFFFFFFFFFFFFFFFFF AND PUSH20 0xFFFFFFFFFFFFFFFFFFFFFFFFFFFFFFFFFFFFFFFF AND DUP2 MSTORE PUSH1 0x20 ADD SWAP1 DUP2 MSTORE PUSH1 0x20 ADD PUSH0 KECCAK256 PUSH0 PUSH2 0x100 EXP DUP2 SLOAD DUP2 PUSH1 0xFF MUL NOT AND SWAP1 DUP4 ISZERO ISZERO MUL OR SWAP1 SSTORE POP PUSH2 0x49D PUSH2 0x56E PUSH1 0x20 SHL PUSH1 0x20 SHR JUMP JUMPDEST PUSH20 0xFFFFFFFFFFFFFFFFFFFFFFFFFFFFFFFFFFFFFFFF AND DUP3 PUSH20 0xFFFFFFFFFFFFFFFFFFFFFFFFFFFFFFFFFFFFFFFF AND DUP5 PUSH32 0x2F8788117E7EFF1D82E926EC794901D17C78024A50270940304540A733656F0D PUSH1 0x40 MLOAD PUSH1 0x40 MLOAD DUP1 SWAP2 SUB SWAP1 LOG4 PUSH1 0x1 SWAP1 POP PUSH2 0x504 JUMP JUMPDEST PUSH0 SWAP1 POP JUMPDEST SWAP3 SWAP2 POP POP JUMP JUMPDEST PUSH0 PUSH1 0x7 PUSH0 DUP5 DUP2 MSTORE PUSH1 0x20 ADD SWAP1 DUP2 MSTORE PUSH1 0x20 ADD PUSH0 KECCAK256 PUSH0 ADD PUSH0 DUP4 PUSH20 0xFFFFFFFFFFFFFFFFFFFFFFFFFFFFFFFFFFFFFFFF AND PUSH20 0xFFFFFFFFFFFFFFFFFFFFFFFFFFFFFFFFFFFFFFFF AND DUP2 MSTORE PUSH1 0x20 ADD SWAP1 DUP2 MSTORE PUSH1 0x20 ADD PUSH0 KECCAK256 PUSH0 SWAP1 SLOAD SWAP1 PUSH2 0x100 EXP SWAP1 DIV PUSH1 0xFF AND SWAP1 POP SWAP3 SWAP2 POP POP JUMP JUMPDEST PUSH0 CALLER SWAP1 POP SWAP1 JUMP JUMPDEST PUSH0 PUSH0 REVERT JUMPDEST PUSH0 PUSH20 0xFFFFFFFFFFFFFFFFFFFFFFFFFFFFFFFFFFFFFFFF DUP3 AND SWAP1 POP SWAP2 SWAP1 POP JUMP JUMPDEST PUSH0 PUSH2 0x5A2 DUP3 PUSH2 0x579 JUMP JUMPDEST SWAP1 POP SWAP2 SWAP1 POP JUMP JUMPDEST PUSH2 0x5B2 DUP2 PUSH2 0x598 JUMP JUMPDEST DUP2 EQ PUSH2 0x5BC JUMPI PUSH0 PUSH0 REVERT JUMPDEST POP JUMP JUMPDEST PUSH0 DUP2 MLOAD SWAP1 POP PUSH2 0x5CD DUP2 PUSH2 0x5A9 JUMP JUMPDEST SWAP3 SWAP2 POP POP JUMP JUMPDEST PUSH0 PUSH0 PUSH0 PUSH1 0x60 DUP5 DUP7 SUB SLT ISZERO PUSH2 0x5EA JUMPI PUSH2 0x5E9 PUSH2 0x575 JUMP JUMPDEST JUMPDEST PUSH0 PUSH2 0x5F7 DUP7 DUP3 DUP8 ADD PUSH2 0x5BF JUMP JUMPDEST SWAP4 POP POP PUSH1 0x20 PUSH2 0x608 DUP7 DUP3 DUP8 ADD PUSH2 0x5BF JUMP JUMPDEST SWAP3 POP POP PUSH1 0x40 PUSH2 0x619 DUP7 DUP3 DUP8 ADD PUSH2 0x5BF JUMP JUMPDEST SWAP2 POP POP SWAP3 POP SWAP3 POP SWAP3 JUMP JUMPDEST PUSH0 DUP2 MLOAD SWAP1 POP SWAP2 SWAP1 POP JUMP JUMPDEST PUSH32 0x4E487B7100000000000000000000000000000000000000000000000000000000 PUSH0 MSTORE PUSH1 0x41 PUSH1 0x4 MSTORE PUSH1 0x24 PUSH0 REVERT JUMPDEST PUSH32 0x4E487B7100000000000000000000000000000000000000000000000000000000 PUSH0 MSTORE PUSH1 0x22 PUSH1 0x4 MSTORE PUSH1 0x24 PUSH0 REVERT JUMPDEST PUSH0 PUSH1 0x2 DUP3 DIV SWAP1 POP PUSH1 0x1 DUP3 AND DUP1 PUSH2 0x69E JUMPI PUSH1 0x7F DUP3 AND SWAP2 POP JUMPDEST PUSH1 0x20 DUP3 LT DUP2 SUB PUSH2 0x6B1 JUMPI PUSH2 0x6B0 PUSH2 0x65A JUMP JUMPDEST JUMPDEST POP SWAP2 SWAP1 POP JUMP JUMPDEST PUSH0 DUP2 SWAP1 POP DUP2 PUSH0 MSTORE PUSH1 0x20 PUSH0 KECCAK256 SWAP1 POP SWAP2 SWAP1 POP JUMP JUMPDEST PUSH0 PUSH1 0x20 PUSH1 0x1F DUP4 ADD DIV SWAP1 POP SWAP2 SWAP1 POP JUMP JUMPDEST PUSH0 DUP3 DUP3 SHL SWAP1 POP SWAP3 SWAP2 POP POP JUMP JUMPDEST PUSH0 PUSH1 0x8 DUP4 MUL PUSH2 0x713 PUSH32 0xFFFFFFFFFFFFFFFFFFFFFFFFFFFFFFFFFFFFFFFFFFFFFFFFFFFFFFFFFFFFFFFF DUP3 PUSH2 0x6D8 JUMP JUMPDEST PUSH2 0x71D DUP7 DUP4 PUSH2 0x6D8 JUMP JUMPDEST SWAP6 POP DUP1 NOT DUP5 AND SWAP4 POP DUP1 DUP7 AND DUP5 OR SWAP3 POP POP POP SWAP4 SWAP3 POP POP POP JUMP JUMPDEST PUSH0 DUP2 SWAP1 POP SWAP2 SWAP1 POP JUMP JUMPDEST PUSH0 DUP2 SWAP1 POP SWAP2 SWAP1 POP JUMP JUMPDEST PUSH0 PUSH2 0x761 PUSH2 0x75C PUSH2 0x757 DUP5 PUSH2 0x735 JUMP JUMPDEST PUSH2 0x73E JUMP JUMPDEST PUSH2 0x735 JUMP JUMPDEST SWAP1 POP SWAP2 SWAP1 POP JUMP JUMPDEST PUSH0 DUP2 SWAP1 POP SWAP2 SWAP1 POP JUMP JUMPDEST PUSH2 0x77A DUP4 PUSH2 0x747 JUMP JUMPDEST PUSH2 0x78E PUSH2 0x786 DUP3 PUSH2 0x768 JUMP JUMPDEST DUP5 DUP5 SLOAD PUSH2 0x6E4 JUMP JUMPDEST DUP3 SSTORE POP POP POP POP JUMP JUMPDEST PUSH0 PUSH0 SWAP1 POP SWAP1 JUMP JUMPDEST PUSH2 0x7A5 PUSH2 0x796 JUMP JUMPDEST PUSH2 0x7B0 DUP2 DUP5 DUP5 PUSH2 0x771 JUMP JUMPDEST POP POP POP JUMP JUMPDEST JUMPDEST DUP2 DUP2 LT ISZERO PUSH2 0x7D3 JUMPI PUSH2 0x7C8 PUSH0 DUP3 PUSH2 0x79D JUMP JUMPDEST PUSH1 0x1 DUP2 ADD SWAP1 POP PUSH2 0x7B6 JUMP JUMPDEST POP POP JUMP JUMPDEST PUSH1 0x1F DUP3 GT ISZERO PUSH2 0x818 JUMPI PUSH2 0x7E9 DUP2 PUSH2 0x6B7 JUMP JUMPDEST PUSH2 0x7F2 DUP5 PUSH2 0x6C9 JUMP JUMPDEST DUP2 ADD PUSH1 0x20 DUP6 LT ISZERO PUSH2 0x801 JUMPI DUP2 SWAP1 POP JUMPDEST PUSH2 0x815 PUSH2 0x80D DUP6 PUSH2 0x6C9 JUMP JUMPDEST DUP4 ADD DUP3 PUSH2 0x7B5 JUMP JUMPDEST POP POP JUMPDEST POP POP POP JUMP JUMPDEST PUSH0 DUP3 DUP3 SHR SWAP1 POP SWAP3 SWAP2 POP POP JUMP JUMPDEST PUSH0 PUSH2 0x838 PUSH0 NOT DUP5 PUSH1 0x8 MUL PUSH2 0x81D JUMP JUMPDEST NOT DUP1 DUP4 AND SWAP2 POP POP SWAP3 SWAP2 POP POP JUMP JUMPDEST PUSH0 PUSH2 0x850 DUP4 DUP4 PUSH2 0x829 JUMP JUMPDEST SWAP2 POP DUP3 PUSH1 0x2 MUL DUP3 OR SWAP1 POP SWAP3 SWAP2 POP POP JUMP JUMPDEST PUSH2 0x869 DUP3 PUSH2 0x623 JUMP JUMPDEST PUSH8 0xFFFFFFFFFFFFFFFF DUP2 GT ISZERO PUSH2 0x882 JUMPI PUSH2 0x881 PUSH2 0x62D JUMP JUMPDEST JUMPDEST PUSH2 0x88C DUP3 SLOAD PUSH2 0x687 JUMP JUMPDEST PUSH2 0x897 DUP3 DUP3 DUP6 PUSH2 0x7D7 JUMP JUMPDEST PUSH0 PUSH1 0x20 SWAP1 POP PUSH1 0x1F DUP4 GT PUSH1 0x1 DUP2 EQ PUSH2 0x8C8 JUMPI PUSH0 DUP5 ISZERO PUSH2 0x8B6 JUMPI DUP3 DUP8 ADD MLOAD SWAP1 POP JUMPDEST PUSH2 0x8C0 DUP6 DUP3 PUSH2 0x845 JUMP JUMPDEST DUP7 SSTORE POP PUSH2 0x927 JUMP JUMPDEST PUSH1 0x1F NOT DUP5 AND PUSH2 0x8D6 DUP7 PUSH2 0x6B7 JUMP JUMPDEST PUSH0 JUMPDEST DUP3 DUP2 LT ISZERO PUSH2 0x8FD JUMPI DUP5 DUP10 ADD MLOAD DUP3 SSTORE PUSH1 0x1 DUP3 ADD SWAP2 POP PUSH1 0x20 DUP6 ADD SWAP5 POP PUSH1 0x20 DUP2 ADD SWAP1 POP PUSH2 0x8D8 JUMP JUMPDEST DUP7 DUP4 LT ISZERO PUSH2 0x91A JUMPI DUP5 DUP10 ADD MLOAD PUSH2 0x916 PUSH1 0x1F DUP10 AND DUP3 PUSH2 0x829 JUMP JUMPDEST DUP4 SSTORE POP JUMPDEST PUSH1 0x1 PUSH1 0x2 DUP9 MUL ADD DUP9 SSTORE POP POP POP JUMPDEST POP POP POP POP POP POP JUMP JUMPDEST PUSH2 0x938 DUP2 PUSH2 0x598 JUMP JUMPDEST DUP3 MSTORE POP POP JUMP JUMPDEST PUSH0 PUSH1 0x20 DUP3 ADD SWAP1 POP PUSH2 0x951 PUSH0 DUP4 ADD DUP5 PUSH2 0x92F JUMP JUMPDEST SWAP3 SWAP2 POP POP JUMP JUMPDEST PUSH0 PUSH1 0xFF DUP3 AND SWAP1 POP SWAP2 SWAP1 POP JUMP JUMPDEST PUSH2 0x96C DUP2 PUSH2 0x957 JUMP JUMPDEST DUP2 EQ PUSH2 0x976 JUMPI PUSH0 PUSH0 REVERT JUMPDEST POP JUMP JUMPDEST PUSH0 DUP2 MLOAD SWAP1 POP PUSH2 0x987 DUP2 PUSH2 0x963 JUMP JUMPDEST SWAP3 SWAP2 POP POP JUMP JUMPDEST PUSH0 PUSH1 0x20 DUP3 DUP5 SUB SLT ISZERO PUSH2 0x9A2 JUMPI PUSH2 0x9A1 PUSH2 0x575 JUMP JUMPDEST JUMPDEST PUSH0 PUSH2 0x9AF DUP5 DUP3 DUP6 ADD PUSH2 0x979 JUMP JUMPDEST SWAP2 POP POP SWAP3 SWAP2 POP POP JUMP JUMPDEST PUSH1 0x80 MLOAD PUSH1 0xA0 MLOAD PUSH2 0x2C96 PUSH2 0xA03 PUSH0 CODECOPY PUSH0 DUP2 DUP2 PUSH2 0x84F ADD MSTORE DUP2 DUP2 PUSH2 0xD64 ADD MSTORE DUP2 DUP2 PUSH2 0xFCE ADD MSTORE DUP2 DUP2 PUSH2 0x11B4 ADD MSTORE PUSH2 0x1497 ADD MSTORE PUSH0 DUP2 DUP2 PUSH2 0xDAE ADD MSTORE DUP2 DUP2 PUSH2 0xEAA ADD MSTORE PUSH2 0x1207 ADD MSTORE PUSH2 0x2C96 PUSH0 RETURN INVALID PUSH1 0x80 PUSH1 0x40 MSTORE CALLVALUE DUP1 ISZERO PUSH2 0xF JUMPI PUSH0 PUSH0 REVERT JUMPDEST POP PUSH1 0x4 CALLDATASIZE LT PUSH2 0x1E3 JUMPI PUSH0 CALLDATALOAD PUSH1 0xE0 SHR DUP1 PUSH4 0x91D14854 GT PUSH2 0x10D JUMPI DUP1 PUSH4 0xD547741F GT PUSH2 0xA0 JUMPI DUP1 PUSH4 0xE5829D20 GT PUSH2 0x6F JUMPI DUP1 PUSH4 0xE5829D20 EQ PUSH2 0x5A5 JUMPI DUP1 PUSH4 0xEB91D37E EQ PUSH2 0x5C1 JUMPI DUP1 PUSH4 0xEC9C6C30 EQ PUSH2 0x5DF JUMPI DUP1 PUSH4 0xF2FDE38B EQ PUSH2 0x5FD JUMPI PUSH2 0x1E3 JUMP JUMPDEST DUP1 PUSH4 0xD547741F EQ PUSH2 0x51F JUMPI DUP1 PUSH4 0xDB006A75 EQ PUSH2 0x53B JUMPI DUP1 PUSH4 0xDCAF9C44 EQ PUSH2 0x557 JUMPI DUP1 PUSH4 0xDD62ED3E EQ PUSH2 0x575 JUMPI PUSH2 0x1E3 JUMP JUMPDEST DUP1 PUSH4 0xA2FD773D GT PUSH2 0xDC JUMPI DUP1 PUSH4 0xA2FD773D EQ PUSH2 0x483 JUMPI DUP1 PUSH4 0xA9059CBB EQ PUSH2 0x4A1 JUMPI DUP1 PUSH4 0xB2016BD4 EQ PUSH2 0x4D1 JUMPI DUP1 PUSH4 0xBA6AF5AB EQ PUSH2 0x4EF JUMPI PUSH2 0x1E3 JUMP JUMPDEST DUP1 PUSH4 0x91D14854 EQ PUSH2 0x3FB JUMPI DUP1 PUSH4 0x95D89B41 EQ PUSH2 0x42B JUMPI DUP1 PUSH4 0xA0712D68 EQ PUSH2 0x449 JUMPI DUP1 PUSH4 0xA217FDDF EQ PUSH2 0x465 JUMPI PUSH2 0x1E3 JUMP JUMPDEST DUP1 PUSH4 0x2F2FF15D GT PUSH2 0x185 JUMPI DUP1 PUSH4 0x715018A6 GT PUSH2 0x154 JUMPI DUP1 PUSH4 0x715018A6 EQ PUSH2 0x399 JUMPI DUP1 PUSH4 0x741BEF1A EQ PUSH2 0x3A3 JUMPI DUP1 PUSH4 0x74626404 EQ PUSH2 0x3C1 JUMPI DUP1 PUSH4 0x8DA5CB5B EQ PUSH2 0x3DD JUMPI PUSH2 0x1E3 JUMP JUMPDEST DUP1 PUSH4 0x2F2FF15D EQ PUSH2 0x313 JUMPI DUP1 PUSH4 0x313CE567 EQ PUSH2 0x32F JUMPI DUP1 PUSH4 0x36568ABE EQ PUSH2 0x34D JUMPI DUP1 PUSH4 0x70A08231 EQ PUSH2 0x369 JUMPI PUSH2 0x1E3 JUMP JUMPDEST DUP1 PUSH4 0x18160DDD GT PUSH2 0x1C1 JUMPI DUP1 PUSH4 0x18160DDD EQ PUSH2 0x265 JUMPI DUP1 PUSH4 0x1BDE17FE EQ PUSH2 0x283 JUMPI DUP1 PUSH4 0x23B872DD EQ PUSH2 0x2B3 JUMPI DUP1 PUSH4 0x248A9CA3 EQ PUSH2 0x2E3 JUMPI PUSH2 0x1E3 JUMP JUMPDEST DUP1 PUSH4 0x1FFC9A7 EQ PUSH2 0x1E7 JUMPI DUP1 PUSH4 0x6FDDE03 EQ PUSH2 0x217 JUMPI DUP1 PUSH4 0x95EA7B3 EQ PUSH2 0x235 JUMPI JUMPDEST PUSH0 PUSH0 REVERT JUMPDEST PUSH2 0x201 PUSH1 0x4 DUP1 CALLDATASIZE SUB DUP2 ADD SWAP1 PUSH2 0x1FC SWAP2 SWAP1 PUSH2 0x21F9 JUMP JUMPDEST PUSH2 0x619 JUMP JUMPDEST PUSH1 0x40 MLOAD PUSH2 0x20E SWAP2 SWAP1 PUSH2 0x223E JUMP JUMPDEST PUSH1 0x40 MLOAD DUP1 SWAP2 SUB SWAP1 RETURN JUMPDEST PUSH2 0x21F PUSH2 0x692 JUMP JUMPDEST PUSH1 0x40 MLOAD PUSH2 0x22C SWAP2 SWAP1 PUSH2 0x22C7 JUMP JUMPDEST PUSH1 0x40 MLOAD DUP1 SWAP2 SUB SWAP1 RETURN JUMPDEST PUSH2 0x24F PUSH1 0x4 DUP1 CALLDATASIZE SUB DUP2 ADD SWAP1 PUSH2 0x24A SWAP2 SWAP1 PUSH2 0x2374 JUMP JUMPDEST PUSH2 0x722 JUMP JUMPDEST PUSH1 0x40 MLOAD PUSH2 0x25C SWAP2 SWAP1 PUSH2 0x223E JUMP JUMPDEST PUSH1 0x40 MLOAD DUP1 SWAP2 SUB SWAP1 RETURN JUMPDEST PUSH2 0x26D PUSH2 0x744 JUMP JUMPDEST PUSH1 0x40 MLOAD PUSH2 0x27A SWAP2 SWAP1 PUSH2 0x23C1 JUMP JUMPDEST PUSH1 0x40 MLOAD DUP1 SWAP2 SUB SWAP1 RETURN JUMPDEST PUSH2 0x29D PUSH1 0x4 DUP1 CALLDATASIZE SUB DUP2 ADD SWAP1 PUSH2 0x298 SWAP2 SWAP1 PUSH2 0x23DA JUMP JUMPDEST PUSH2 0x74D JUMP JUMPDEST PUSH1 0x40 MLOAD PUSH2 0x2AA SWAP2 SWAP1 PUSH2 0x23C1 JUMP JUMPDEST PUSH1 0x40 MLOAD DUP1 SWAP2 SUB SWAP1 RETURN JUMPDEST PUSH2 0x2CD PUSH1 0x4 DUP1 CALLDATASIZE SUB DUP2 ADD SWAP1 PUSH2 0x2C8 SWAP2 SWAP1 PUSH2 0x2405 JUMP JUMPDEST PUSH2 0x89E JUMP JUMPDEST PUSH1 0x40 MLOAD PUSH2 0x2DA SWAP2 SWAP1 PUSH2 0x223E JUMP JUMPDEST PUSH1 0x40 MLOAD DUP1 SWAP2 SUB SWAP1 RETURN JUMPDEST PUSH2 0x2FD PUSH1 0x4 DUP1 CALLDATASIZE SUB DUP2 ADD SWAP1 PUSH2 0x2F8 SWAP2 SWAP1 PUSH2 0x2488 JUMP JUMPDEST PUSH2 0x8CC JUMP JUMPDEST PUSH1 0x40 MLOAD PUSH2 0x30A SWAP2 SWAP1 PUSH2 0x24C2 JUMP JUMPDEST PUSH1 0x40 MLOAD DUP1 SWAP2 SUB SWAP1 RETURN JUMPDEST PUSH2 0x32D PUSH1 0x4 DUP1 CALLDATASIZE SUB DUP2 ADD SWAP1 PUSH2 0x328 SWAP2 SWAP1 PUSH2 0x24DB JUMP JUMPDEST PUSH2 0x8E9 JUMP JUMPDEST STOP JUMPDEST PUSH2 0x337 PUSH2 0x90B JUMP JUMPDEST PUSH1 0x40 MLOAD PUSH2 0x344 SWAP2 SWAP1 PUSH2 0x2534 JUMP JUMPDEST PUSH1 0x40 MLOAD DUP1 SWAP2 SUB SWAP1 RETURN JUMPDEST PUSH2 0x367 PUSH1 0x4 DUP1 CALLDATASIZE SUB DUP2 ADD SWAP1 PUSH2 0x362 SWAP2 SWAP1 PUSH2 0x24DB JUMP JUMPDEST PUSH2 0x913 JUMP JUMPDEST STOP JUMPDEST PUSH2 0x383 PUSH1 0x4 DUP1 CALLDATASIZE SUB DUP2 ADD SWAP1 PUSH2 0x37E SWAP2 SWAP1 PUSH2 0x254D JUMP JUMPDEST PUSH2 0x98E JUMP JUMPDEST PUSH1 0x40 MLOAD PUSH2 0x390 SWAP2 SWAP1 PUSH2 0x23C1 JUMP JUMPDEST PUSH1 0x40 MLOAD DUP1 SWAP2 SUB SWAP1 RETURN JUMPDEST PUSH2 0x3A1 PUSH2 0x9D3 JUMP JUMPDEST STOP JUMPDEST PUSH2 0x3AB PUSH2 0x9E6 JUMP JUMPDEST PUSH1 0x40 MLOAD PUSH2 0x3B8 SWAP2 SWAP1 PUSH2 0x25D3 JUMP JUMPDEST PUSH1 0x40 MLOAD DUP1 SWAP2 SUB SWAP1 RETURN JUMPDEST PUSH2 0x3DB PUSH1 0x4 DUP1 CALLDATASIZE SUB DUP2 ADD SWAP1 PUSH2 0x3D6 SWAP2 SWAP1 PUSH2 0x254D JUMP JUMPDEST PUSH2 0xA0B JUMP JUMPDEST STOP JUMPDEST PUSH2 0x3E5 PUSH2 0xB15 JUMP JUMPDEST PUSH1 0x40 MLOAD PUSH2 0x3F2 SWAP2 SWAP1 PUSH2 0x25FB JUMP JUMPDEST PUSH1 0x40 MLOAD DUP1 SWAP2 SUB SWAP1 RETURN JUMPDEST PUSH2 0x415 PUSH1 0x4 DUP1 CALLDATASIZE SUB DUP2 ADD SWAP1 PUSH2 0x410 SWAP2 SWAP1 PUSH2 0x24DB JUMP JUMPDEST PUSH2 0xB3D JUMP JUMPDEST PUSH1 0x40 MLOAD PUSH2 0x422 SWAP2 SWAP1 PUSH2 0x223E JUMP JUMPDEST PUSH1 0x40 MLOAD DUP1 SWAP2 SUB SWAP1 RETURN JUMPDEST PUSH2 0x433 PUSH2 0xBA1 JUMP JUMPDEST PUSH1 0x40 MLOAD PUSH2 0x440 SWAP2 SWAP1 PUSH2 0x22C7 JUMP JUMPDEST PUSH1 0x40 MLOAD DUP1 SWAP2 SUB SWAP1 RETURN JUMPDEST PUSH2 0x463 PUSH1 0x4 DUP1 CALLDATASIZE SUB DUP2 ADD SWAP1 PUSH2 0x45E SWAP2 SWAP1 PUSH2 0x23DA JUMP JUMPDEST PUSH2 0xC31 JUMP JUMPDEST STOP JUMPDEST PUSH2 0x46D PUSH2 0xE5C JUMP JUMPDEST PUSH1 0x40 MLOAD PUSH2 0x47A SWAP2 SWAP1 PUSH2 0x24C2 JUMP JUMPDEST PUSH1 0x40 MLOAD DUP1 SWAP2 SUB SWAP1 RETURN JUMPDEST PUSH2 0x48B PUSH2 0xE62 JUMP JUMPDEST PUSH1 0x40 MLOAD PUSH2 0x498 SWAP2 SWAP1 PUSH2 0x24C2 JUMP JUMPDEST PUSH1 0x40 MLOAD DUP1 SWAP2 SUB SWAP1 RETURN JUMPDEST PUSH2 0x4BB PUSH1 0x4 DUP1 CALLDATASIZE SUB DUP2 ADD SWAP1 PUSH2 0x4B6 SWAP2 SWAP1 PUSH2 0x2374 JUMP JUMPDEST PUSH2 0xE86 JUMP JUMPDEST PUSH1 0x40 MLOAD PUSH2 0x4C8 SWAP2 SWAP1 PUSH2 0x223E JUMP JUMPDEST PUSH1 0x40 MLOAD DUP1 SWAP2 SUB SWAP1 RETURN JUMPDEST PUSH2 0x4D9 PUSH2 0xEA8 JUMP JUMPDEST PUSH1 0x40 MLOAD PUSH2 0x4E6 SWAP2 SWAP1 PUSH2 0x2634 JUMP JUMPDEST PUSH1 0x40 MLOAD DUP1 SWAP2 SUB SWAP1 RETURN JUMPDEST PUSH2 0x509 PUSH1 0x4 DUP1 CALLDATASIZE SUB DUP2 ADD SWAP1 PUSH2 0x504 SWAP2 SWAP1 PUSH2 0x23DA JUMP JUMPDEST PUSH2 0xECC JUMP JUMPDEST PUSH1 0x40 MLOAD PUSH2 0x516 SWAP2 SWAP1 PUSH2 0x23C1 JUMP JUMPDEST PUSH1 0x40 MLOAD DUP1 SWAP2 SUB SWAP1 RETURN JUMPDEST PUSH2 0x539 PUSH1 0x4 DUP1 CALLDATASIZE SUB DUP2 ADD SWAP1 PUSH2 0x534 SWAP2 SWAP1 PUSH2 0x24DB JUMP JUMPDEST PUSH2 0x101D JUMP JUMPDEST STOP JUMPDEST PUSH2 0x555 PUSH1 0x4 DUP1 CALLDATASIZE SUB DUP2 ADD SWAP1 PUSH2 0x550 SWAP2 SWAP1 PUSH2 0x23DA JUMP JUMPDEST PUSH2 0x103F JUMP JUMPDEST STOP JUMPDEST PUSH2 0x55F PUSH2 0x12AA JUMP JUMPDEST PUSH1 0x40 MLOAD PUSH2 0x56C SWAP2 SWAP1 PUSH2 0x23C1 JUMP JUMPDEST PUSH1 0x40 MLOAD DUP1 SWAP2 SUB SWAP1 RETURN JUMPDEST PUSH2 0x58F PUSH1 0x4 DUP1 CALLDATASIZE SUB DUP2 ADD SWAP1 PUSH2 0x58A SWAP2 SWAP1 PUSH2 0x264D JUMP JUMPDEST PUSH2 0x12B0 JUMP JUMPDEST PUSH1 0x40 MLOAD PUSH2 0x59C SWAP2 SWAP1 PUSH2 0x23C1 JUMP JUMPDEST PUSH1 0x40 MLOAD DUP1 SWAP2 SUB SWAP1 RETURN JUMPDEST PUSH2 0x5BF PUSH1 0x4 DUP1 CALLDATASIZE SUB DUP2 ADD SWAP1 PUSH2 0x5BA SWAP2 SWAP1 PUSH2 0x23DA JUMP JUMPDEST PUSH2 0x1332 JUMP JUMPDEST STOP JUMPDEST PUSH2 0x5C9 PUSH2 0x13B6 JUMP JUMPDEST PUSH1 0x40 MLOAD PUSH2 0x5D6 SWAP2 SWAP1 PUSH2 0x23C1 JUMP JUMPDEST PUSH1 0x40 MLOAD DUP1 SWAP2 SUB SWAP1 RETURN JUMPDEST PUSH2 0x5E7 PUSH2 0x1495 JUMP JUMPDEST PUSH1 0x40 MLOAD PUSH2 0x5F4 SWAP2 SWAP1 PUSH2 0x2534 JUMP JUMPDEST PUSH1 0x40 MLOAD DUP1 SWAP2 SUB SWAP1 RETURN JUMPDEST PUSH2 0x617 PUSH1 0x4 DUP1 CALLDATASIZE SUB DUP2 ADD SWAP1 PUSH2 0x612 SWAP2 SWAP1 PUSH2 0x254D JUMP JUMPDEST PUSH2 0x14B9 JUMP JUMPDEST STOP JUMPDEST PUSH0 PUSH32 0x7965DB0B00000000000000000000000000000000000000000000000000000000 PUSH28 0xFFFFFFFFFFFFFFFFFFFFFFFFFFFFFFFFFFFFFFFFFFFFFFFFFFFFFFFF NOT AND DUP3 PUSH28 0xFFFFFFFFFFFFFFFFFFFFFFFFFFFFFFFFFFFFFFFFFFFFFFFFFFFFFFFF NOT AND EQ DUP1 PUSH2 0x68B JUMPI POP PUSH2 0x68A DUP3 PUSH2 0x153D JUMP JUMPDEST JUMPDEST SWAP1 POP SWAP2 SWAP1 POP JUMP JUMPDEST PUSH1 0x60 PUSH1 0x3 DUP1 SLOAD PUSH2 0x6A1 SWAP1 PUSH2 0x26B8 JUMP JUMPDEST DUP1 PUSH1 0x1F ADD PUSH1 0x20 DUP1 SWAP2 DIV MUL PUSH1 0x20 ADD PUSH1 0x40 MLOAD SWAP1 DUP2 ADD PUSH1 0x40 MSTORE DUP1 SWAP3 SWAP2 SWAP1 DUP2 DUP2 MSTORE PUSH1 0x20 ADD DUP3 DUP1 SLOAD PUSH2 0x6CD SWAP1 PUSH2 0x26B8 JUMP JUMPDEST DUP1 ISZERO PUSH2 0x718 JUMPI DUP1 PUSH1 0x1F LT PUSH2 0x6EF JUMPI PUSH2 0x100 DUP1 DUP4 SLOAD DIV MUL DUP4 MSTORE SWAP2 PUSH1 0x20 ADD SWAP2 PUSH2 0x718 JUMP JUMPDEST DUP3 ADD SWAP2 SWAP1 PUSH0 MSTORE PUSH1 0x20 PUSH0 KECCAK256 SWAP1 JUMPDEST DUP2 SLOAD DUP2 MSTORE SWAP1 PUSH1 0x1 ADD SWAP1 PUSH1 0x20 ADD DUP1 DUP4 GT PUSH2 0x6FB JUMPI DUP3 SWAP1 SUB PUSH1 0x1F AND DUP3 ADD SWAP2 JUMPDEST POP POP POP POP POP SWAP1 POP SWAP1 JUMP JUMPDEST PUSH0 PUSH0 PUSH2 0x72C PUSH2 0x15A6 JUMP JUMPDEST SWAP1 POP PUSH2 0x739 DUP2 DUP6 DUP6 PUSH2 0x15AD JUMP JUMPDEST PUSH1 0x1 SWAP2 POP POP SWAP3 SWAP2 POP POP JUMP JUMPDEST PUSH0 PUSH1 0x2 SLOAD SWAP1 POP SWAP1 JUMP JUMPDEST PUSH0 PUSH0 DUP3 SUB PUSH2 0x75D JUMPI PUSH0 SWAP1 POP PUSH2 0x899 JUMP JUMPDEST PUSH0 PUSH2 0x766 PUSH2 0x13B6 JUMP JUMPDEST SWAP1 POP PUSH0 PUSH2 0x771 PUSH2 0x90B JUMP JUMPDEST PUSH1 0xA PUSH2 0x77D SWAP2 SWAP1 PUSH2 0x2844 JUMP JUMPDEST DUP5 PUSH2 0x788 SWAP2 SWAP1 PUSH2 0x288E JUMP JUMPDEST SWAP1 POP PUSH0 DUP3 PUSH1 0x64 PUSH2 0x798 SWAP2 SWAP1 PUSH2 0x288E JUMP JUMPDEST PUSH1 0x9 SLOAD DUP4 PUSH2 0x7A6 SWAP2 SWAP1 PUSH2 0x288E JUMP JUMPDEST PUSH2 0x7B0 SWAP2 SWAP1 PUSH2 0x28FC JUMP JUMPDEST SWAP1 POP PUSH0 PUSH1 0x8 PUSH0 SWAP1 SLOAD SWAP1 PUSH2 0x100 EXP SWAP1 DIV PUSH20 0xFFFFFFFFFFFFFFFFFFFFFFFFFFFFFFFFFFFFFFFF AND PUSH20 0xFFFFFFFFFFFFFFFFFFFFFFFFFFFFFFFFFFFFFFFF AND PUSH4 0x313CE567 PUSH1 0x40 MLOAD DUP2 PUSH4 0xFFFFFFFF AND PUSH1 0xE0 SHL DUP2 MSTORE PUSH1 0x4 ADD PUSH1 0x20 PUSH1 0x40 MLOAD DUP1 DUP4 SUB DUP2 DUP7 GAS STATICCALL ISZERO DUP1 ISZERO PUSH2 0x81D JUMPI RETURNDATASIZE PUSH0 PUSH0 RETURNDATACOPY RETURNDATASIZE PUSH0 REVERT JUMPDEST POP POP POP POP PUSH1 0x40 MLOAD RETURNDATASIZE PUSH1 0x1F NOT PUSH1 0x1F DUP3 ADD AND DUP3 ADD DUP1 PUSH1 0x40 MSTORE POP DUP2 ADD SWAP1 PUSH2 0x841 SWAP2 SWAP1 PUSH2 0x2956 JUMP JUMPDEST PUSH1 0xA PUSH2 0x84D SWAP2 SWAP1 PUSH2 0x2844 JUMP JUMPDEST PUSH32 0x0 PUSH1 0xA PUSH2 0x87A SWAP2 SWAP1 PUSH2 0x2844 JUMP JUMPDEST DUP4 PUSH2 0x885 SWAP2 SWAP1 PUSH2 0x288E JUMP JUMPDEST PUSH2 0x88F SWAP2 SWAP1 PUSH2 0x28FC JUMP JUMPDEST SWAP1 POP DUP1 SWAP5 POP POP POP POP POP JUMPDEST SWAP2 SWAP1 POP JUMP JUMPDEST PUSH0 PUSH0 PUSH2 0x8A8 PUSH2 0x15A6 JUMP JUMPDEST SWAP1 POP PUSH2 0x8B5 DUP6 DUP3 DUP6 PUSH2 0x15BF JUMP JUMPDEST PUSH2 0x8C0 DUP6 DUP6 DUP6 PUSH2 0x1652 JUMP JUMPDEST PUSH1 0x1 SWAP2 POP POP SWAP4 SWAP3 POP POP POP JUMP JUMPDEST PUSH0 PUSH1 0x7 PUSH0 DUP4 DUP2 MSTORE PUSH1 0x20 ADD SWAP1 DUP2 MSTORE PUSH1 0x20 ADD PUSH0 KECCAK256 PUSH1 0x1 ADD SLOAD SWAP1 POP SWAP2 SWAP1 POP JUMP JUMPDEST PUSH2 0x8F2 DUP3 PUSH2 0x8CC JUMP JUMPDEST PUSH2 0x8FB DUP2 PUSH2 0x1742 JUMP JUMPDEST PUSH2 0x905 DUP4 DUP4 PUSH2 0x1756 JUMP JUMPDEST POP POP POP POP JUMP JUMPDEST PUSH0 PUSH1 0x12 SWAP1 POP SWAP1 JUMP JUMPDEST PUSH2 0x91B PUSH2 0x15A6 JUMP JUMPDEST PUSH20 0xFFFFFFFFFFFFFFFFFFFFFFFFFFFFFFFFFFFFFFFF AND DUP2 PUSH20 0xFFFFFFFFFFFFFFFFFFFFFFFFFFFFFFFFFFFFFFFF AND EQ PUSH2 0x97F JUMPI PUSH1 0x40 MLOAD PUSH32 0x6697B23200000000000000000000000000000000000000000000000000000000 DUP2 MSTORE PUSH1 0x4 ADD PUSH1 0x40 MLOAD DUP1 SWAP2 SUB SWAP1 REVERT JUMPDEST PUSH2 0x989 DUP3 DUP3 PUSH2 0x1840 JUMP JUMPDEST POP POP POP JUMP JUMPDEST PUSH0 PUSH0 PUSH0 DUP4 PUSH20 0xFFFFFFFFFFFFFFFFFFFFFFFFFFFFFFFFFFFFFFFF AND PUSH20 0xFFFFFFFFFFFFFFFFFFFFFFFFFFFFFFFFFFFFFFFF AND DUP2 MSTORE PUSH1 0x20 ADD SWAP1 DUP2 MSTORE PUSH1 0x20 ADD PUSH0 KECCAK256 SLOAD SWAP1 POP SWAP2 SWAP1 POP JUMP JUMPDEST PUSH2 0x9DB PUSH2 0x192A JUMP JUMPDEST PUSH2 0x9E4 PUSH0 PUSH2 0x19B1 JUMP JUMPDEST JUMP JUMPDEST PUSH1 0x8 PUSH0 SWAP1 SLOAD SWAP1 PUSH2 0x100 EXP SWAP1 DIV PUSH20 0xFFFFFFFFFFFFFFFFFFFFFFFFFFFFFFFFFFFFFFFF AND DUP2 JUMP JUMPDEST PUSH32 0xD83007455B073BDF2ABC6E8B18CE2847F802B368F0AD3A285CBB1773EC2F4C83 PUSH2 0xA35 DUP2 PUSH2 0x1742 JUMP JUMPDEST PUSH0 PUSH20 0xFFFFFFFFFFFFFFFFFFFFFFFFFFFFFFFFFFFFFFFF AND DUP3 PUSH20 0xFFFFFFFFFFFFFFFFFFFFFFFFFFFFFFFFFFFFFFFF AND SUB PUSH2 0xA9A JUMPI PUSH1 0x40 MLOAD PUSH32 0xE358806300000000000000000000000000000000000000000000000000000000 DUP2 MSTORE PUSH1 0x4 ADD PUSH1 0x40 MLOAD DUP1 SWAP2 SUB SWAP1 REVERT JUMPDEST DUP2 PUSH1 0x8 PUSH0 PUSH2 0x100 EXP DUP2 SLOAD DUP2 PUSH20 0xFFFFFFFFFFFFFFFFFFFFFFFFFFFFFFFFFFFFFFFF MUL NOT AND SWAP1 DUP4 PUSH20 0xFFFFFFFFFFFFFFFFFFFFFFFFFFFFFFFFFFFFFFFF AND MUL OR SWAP1 SSTORE POP PUSH32 0xE5B20B8497E4F3E2435EF9C20E2E26B47497EE13745CE1C681AD6640653119E6 DUP3 PUSH1 0x40 MLOAD PUSH2 0xB09 SWAP2 SWAP1 PUSH2 0x25FB JUMP JUMPDEST PUSH1 0x40 MLOAD DUP1 SWAP2 SUB SWAP1 LOG1 POP POP JUMP JUMPDEST PUSH0 PUSH1 0x5 PUSH0 SWAP1 SLOAD SWAP1 PUSH2 0x100 EXP SWAP1 DIV PUSH20 0xFFFFFFFFFFFFFFFFFFFFFFFFFFFFFFFFFFFFFFFF AND SWAP1 POP SWAP1 JUMP JUMPDEST PUSH0 PUSH1 0x7 PUSH0 DUP5 DUP2 MSTORE PUSH1 0x20 ADD SWAP1 DUP2 MSTORE PUSH1 0x20 ADD PUSH0 KECCAK256 PUSH0 ADD PUSH0 DUP4 PUSH20 0xFFFFFFFFFFFFFFFFFFFFFFFFFFFFFFFFFFFFFFFF AND PUSH20 0xFFFFFFFFFFFFFFFFFFFFFFFFFFFFFFFFFFFFFFFF AND DUP2 MSTORE PUSH1 0x20 ADD SWAP1 DUP2 MSTORE PUSH1 0x20 ADD PUSH0 KECCAK256 PUSH0 SWAP1 SLOAD SWAP1 PUSH2 0x100 EXP SWAP1 DIV PUSH1 0xFF AND SWAP1 POP SWAP3 SWAP2 POP POP JUMP JUMPDEST PUSH1 0x60 PUSH1 0x4 DUP1 SLOAD PUSH2 0xBB0 SWAP1 PUSH2 0x26B8 JUMP JUMPDEST DUP1 PUSH1 0x1F ADD PUSH1 0x20 DUP1 SWAP2 DIV MUL PUSH1 0x20 ADD PUSH1 0x40 MLOAD SWAP1 DUP2 ADD PUSH1 0x40 MSTORE DUP1 SWAP3 SWAP2 SWAP1 DUP2 DUP2 MSTORE PUSH1 0x20 ADD DUP3 DUP1 SLOAD PUSH2 0xBDC SWAP1 PUSH2 0x26B8 JUMP JUMPDEST DUP1 ISZERO PUSH2 0xC27 JUMPI DUP1 PUSH1 0x1F LT PUSH2 0xBFE JUMPI PUSH2 0x100 DUP1 DUP4 SLOAD DIV MUL DUP4 MSTORE SWAP2 PUSH1 0x20 ADD SWAP2 PUSH2 0xC27 JUMP JUMPDEST DUP3 ADD SWAP2 SWAP1 PUSH0 MSTORE PUSH1 0x20 PUSH0 KECCAK256 SWAP1 JUMPDEST DUP2 SLOAD DUP2 MSTORE SWAP1 PUSH1 0x1 ADD SWAP1 PUSH1 0x20 ADD DUP1 DUP4 GT PUSH2 0xC0A JUMPI DUP3 SWAP1 SUB PUSH1 0x1F AND DUP3 ADD SWAP2 JUMPDEST POP POP POP POP POP SWAP1 POP SWAP1 JUMP JUMPDEST PUSH2 0xC39 PUSH2 0x1A74 JUMP JUMPDEST PUSH0 DUP2 SUB PUSH2 0xC72 JUMPI PUSH1 0x40 MLOAD PUSH32 0x7A5F358C00000000000000000000000000000000000000000000000000000000 DUP2 MSTORE PUSH1 0x4 ADD PUSH1 0x40 MLOAD DUP1 SWAP2 SUB SWAP1 REVERT JUMPDEST PUSH0 PUSH2 0xC7B PUSH2 0x13B6 JUMP JUMPDEST SWAP1 POP PUSH0 PUSH2 0xC86 PUSH2 0x90B JUMP JUMPDEST PUSH1 0xA PUSH2 0xC92 SWAP2 SWAP1 PUSH2 0x2844 JUMP JUMPDEST DUP4 PUSH2 0xC9D SWAP2 SWAP1 PUSH2 0x288E JUMP JUMPDEST SWAP1 POP PUSH0 DUP3 PUSH1 0x64 PUSH2 0xCAD SWAP2 SWAP1 PUSH2 0x288E JUMP JUMPDEST PUSH1 0x9 SLOAD DUP4 PUSH2 0xCBB SWAP2 SWAP1 PUSH2 0x288E JUMP JUMPDEST PUSH2 0xCC5 SWAP2 SWAP1 PUSH2 0x28FC JUMP JUMPDEST SWAP1 POP PUSH0 PUSH1 0x8 PUSH0 SWAP1 SLOAD SWAP1 PUSH2 0x100 EXP SWAP1 DIV PUSH20 0xFFFFFFFFFFFFFFFFFFFFFFFFFFFFFFFFFFFFFFFF AND PUSH20 0xFFFFFFFFFFFFFFFFFFFFFFFFFFFFFFFFFFFFFFFF AND PUSH4 0x313CE567 PUSH1 0x40 MLOAD DUP2 PUSH4 0xFFFFFFFF AND PUSH1 0xE0 SHL DUP2 MSTORE PUSH1 0x4 ADD PUSH1 0x20 PUSH1 0x40 MLOAD DUP1 DUP4 SUB DUP2 DUP7 GAS STATICCALL ISZERO DUP1 ISZERO PUSH2 0xD32 JUMPI RETURNDATASIZE PUSH0 PUSH0 RETURNDATACOPY RETURNDATASIZE PUSH0 REVERT JUMPDEST POP POP POP POP PUSH1 0x40 MLOAD RETURNDATASIZE PUSH1 0x1F NOT PUSH1 0x1F DUP3 ADD AND DUP3 ADD DUP1 PUSH1 0x40 MSTORE POP DUP2 ADD SWAP1 PUSH2 0xD56 SWAP2 SWAP1 PUSH2 0x2956 JUMP JUMPDEST PUSH1 0xA PUSH2 0xD62 SWAP2 SWAP1 PUSH2 0x2844 JUMP JUMPDEST PUSH32 0x0 PUSH1 0xA PUSH2 0xD8F SWAP2 SWAP1 PUSH2 0x2844 JUMP JUMPDEST DUP4 PUSH2 0xD9A SWAP2 SWAP1 PUSH2 0x288E JUMP JUMPDEST PUSH2 0xDA4 SWAP2 SWAP1 PUSH2 0x28FC JUMP JUMPDEST SWAP1 POP PUSH2 0xDF3 CALLER ADDRESS DUP4 PUSH32 0x0 PUSH20 0xFFFFFFFFFFFFFFFFFFFFFFFFFFFFFFFFFFFFFFFF AND PUSH2 0x1AC3 SWAP1 SWAP4 SWAP3 SWAP2 SWAP1 PUSH4 0xFFFFFFFF AND JUMP JUMPDEST PUSH2 0xDFD CALLER DUP7 PUSH2 0x1B45 JUMP JUMPDEST CALLER PUSH20 0xFFFFFFFFFFFFFFFFFFFFFFFFFFFFFFFFFFFFFFFF AND PUSH32 0x25B428DFDE728CCFADDAD7E29E4AC23C24ED7FD1A6E3E3F91894A9A073F5DFFF DUP7 DUP4 PUSH1 0x40 MLOAD PUSH2 0xE45 SWAP3 SWAP2 SWAP1 PUSH2 0x2981 JUMP JUMPDEST PUSH1 0x40 MLOAD DUP1 SWAP2 SUB SWAP1 LOG2 POP POP POP POP PUSH2 0xE59 PUSH2 0x1BC4 JUMP JUMPDEST POP JUMP JUMPDEST PUSH0 PUSH0 SHL DUP2 JUMP JUMPDEST PUSH32 0xD83007455B073BDF2ABC6E8B18CE2847F802B368F0AD3A285CBB1773EC2F4C83 DUP2 JUMP JUMPDEST PUSH0 PUSH0 PUSH2 0xE90 PUSH2 0x15A6 JUMP JUMPDEST SWAP1 POP PUSH2 0xE9D DUP2 DUP6 DUP6 PUSH2 0x1652 JUMP JUMPDEST PUSH1 0x1 SWAP2 POP POP SWAP3 SWAP2 POP POP JUMP JUMPDEST PUSH32 0x0 DUP2 JUMP JUMPDEST PUSH0 PUSH0 DUP3 SUB PUSH2 0xEDC JUMPI PUSH0 SWAP1 POP PUSH2 0x1018 JUMP JUMPDEST PUSH0 PUSH2 0xEE5 PUSH2 0x13B6 JUMP JUMPDEST SWAP1 POP PUSH0 PUSH2 0xEF0 PUSH2 0x90B JUMP JUMPDEST PUSH1 0xA PUSH2 0xEFC SWAP2 SWAP1 PUSH2 0x2844 JUMP JUMPDEST DUP5 PUSH2 0xF07 SWAP2 SWAP1 PUSH2 0x288E JUMP JUMPDEST SWAP1 POP PUSH0 DUP3 PUSH1 0x9 SLOAD PUSH2 0xF18 SWAP2 SWAP1 PUSH2 0x288E JUMP JUMPDEST PUSH1 0x64 DUP4 PUSH2 0xF25 SWAP2 SWAP1 PUSH2 0x288E JUMP JUMPDEST PUSH2 0xF2F SWAP2 SWAP1 PUSH2 0x28FC JUMP JUMPDEST SWAP1 POP PUSH0 PUSH1 0x8 PUSH0 SWAP1 SLOAD SWAP1 PUSH2 0x100 EXP SWAP1 DIV PUSH20 0xFFFFFFFFFFFFFFFFFFFFFFFFFFFFFFFFFFFFFFFF AND PUSH20 0xFFFFFFFFFFFFFFFFFFFFFFFFFFFFFFFFFFFFFFFF AND PUSH4 0x313CE567 PUSH1 0x40 MLOAD DUP2 PUSH4 0xFFFFFFFF AND PUSH1 0xE0 SHL DUP2 MSTORE PUSH1 0x4 ADD PUSH1 0x20 PUSH1 0x40 MLOAD DUP1 DUP4 SUB DUP2 DUP7 GAS STATICCALL ISZERO DUP1 ISZERO PUSH2 0xF9C JUMPI RETURNDATASIZE PUSH0 PUSH0 RETURNDATACOPY RETURNDATASIZE PUSH0 REVERT JUMPDEST POP POP POP POP PUSH1 0x40 MLOAD RETURNDATASIZE PUSH1 0x1F NOT PUSH1 0x1F DUP3 ADD AND DUP3 ADD DUP1 PUSH1 0x40 MSTORE POP DUP2 ADD SWAP1 PUSH2 0xFC0 SWAP2 SWAP1 PUSH2 0x2956 JUMP JUMPDEST PUSH1 0xA PUSH2 0xFCC SWAP2 SWAP1 PUSH2 0x2844 JUMP JUMPDEST PUSH32 0x0 PUSH1 0xA PUSH2 0xFF9 SWAP2 SWAP1 PUSH2 0x2844 JUMP JUMPDEST DUP4 PUSH2 0x1004 SWAP2 SWAP1 PUSH2 0x288E JUMP JUMPDEST PUSH2 0x100E SWAP2 SWAP1 PUSH2 0x28FC JUMP JUMPDEST SWAP1 POP DUP1 SWAP5 POP POP POP POP POP JUMPDEST SWAP2 SWAP1 POP JUMP JUMPDEST PUSH2 0x1026 DUP3 PUSH2 0x8CC JUMP JUMPDEST PUSH2 0x102F DUP2 PUSH2 0x1742 JUMP JUMPDEST PUSH2 0x1039 DUP4 DUP4 PUSH2 0x1840 JUMP JUMPDEST POP POP POP POP JUMP JUMPDEST PUSH2 0x1047 PUSH2 0x1A74 JUMP JUMPDEST PUSH0 DUP2 SUB PUSH2 0x1080 JUMPI PUSH1 0x40 MLOAD PUSH32 0x7A5F358C00000000000000000000000000000000000000000000000000000000 DUP2 MSTORE PUSH1 0x4 ADD PUSH1 0x40 MLOAD DUP1 SWAP2 SUB SWAP1 REVERT JUMPDEST DUP1 PUSH2 0x108A CALLER PUSH2 0x98E JUMP JUMPDEST LT ISZERO PUSH2 0x10C2 JUMPI PUSH1 0x40 MLOAD PUSH32 0x30DE15DB00000000000000000000000000000000000000000000000000000000 DUP2 MSTORE PUSH1 0x4 ADD PUSH1 0x40 MLOAD DUP1 SWAP2 SUB SWAP1 REVERT JUMPDEST PUSH0 PUSH2 0x10CB PUSH2 0x13B6 JUMP JUMPDEST SWAP1 POP PUSH0 PUSH2 0x10D6 PUSH2 0x90B JUMP JUMPDEST PUSH1 0xA PUSH2 0x10E2 SWAP2 SWAP1 PUSH2 0x2844 JUMP JUMPDEST DUP4 PUSH2 0x10ED SWAP2 SWAP1 PUSH2 0x288E JUMP JUMPDEST SWAP1 POP PUSH0 DUP3 PUSH1 0x9 SLOAD PUSH2 0x10FE SWAP2 SWAP1 PUSH2 0x288E JUMP JUMPDEST PUSH1 0x64 DUP4 PUSH2 0x110B SWAP2 SWAP1 PUSH2 0x288E JUMP JUMPDEST PUSH2 0x1115 SWAP2 SWAP1 PUSH2 0x28FC JUMP JUMPDEST SWAP1 POP PUSH0 PUSH1 0x8 PUSH0 SWAP1 SLOAD SWAP1 PUSH2 0x100 EXP SWAP1 DIV PUSH20 0xFFFFFFFFFFFFFFFFFFFFFFFFFFFFFFFFFFFFFFFF AND PUSH20 0xFFFFFFFFFFFFFFFFFFFFFFFFFFFFFFFFFFFFFFFF AND PUSH4 0x313CE567 PUSH1 0x40 MLOAD DUP2 PUSH4 0xFFFFFFFF AND PUSH1 0xE0 SHL DUP2 MSTORE PUSH1 0x4 ADD PUSH1 0x20 PUSH1 0x40 MLOAD DUP1 DUP4 SUB DUP2 DUP7 GAS STATICCALL ISZERO DUP1 ISZERO PUSH2 0x1182 JUMPI RETURNDATASIZE PUSH0 PUSH0 RETURNDATACOPY RETURNDATASIZE PUSH0 REVERT JUMPDEST POP POP POP POP PUSH1 0x40 MLOAD RETURNDATASIZE PUSH1 0x1F NOT PUSH1 0x1F DUP3 ADD AND DUP3 ADD DUP1 PUSH1 0x40 MSTORE POP DUP2 ADD SWAP1 PUSH2 0x11A6 SWAP2 SWAP1 PUSH2 0x2956 JUMP JUMPDEST PUSH1 0xA PUSH2 0x11B2 SWAP2 SWAP1 PUSH2 0x2844 JUMP JUMPDEST PUSH32 0x0 PUSH1 0xA PUSH2 0x11DF SWAP2 SWAP1 PUSH2 0x2844 JUMP JUMPDEST DUP4 PUSH2 0x11EA SWAP2 SWAP1 PUSH2 0x288E JUMP JUMPDEST PUSH2 0x11F4 SWAP2 SWAP1 PUSH2 0x28FC JUMP JUMPDEST SWAP1 POP PUSH2 0x1200 CALLER DUP7 PUSH2 0x1BCE JUMP JUMPDEST PUSH2 0x124B CALLER DUP3 PUSH32 0x0 PUSH20 0xFFFFFFFFFFFFFFFFFFFFFFFFFFFFFFFFFFFFFFFF AND PUSH2 0x1C4D SWAP1 SWAP3 SWAP2 SWAP1 PUSH4 0xFFFFFFFF AND JUMP JUMPDEST CALLER PUSH20 0xFFFFFFFFFFFFFFFFFFFFFFFFFFFFFFFFFFFFFFFF AND PUSH32 0xF3A670CD3AF7D64B488926880889D08A8585A138FF455227AF6737339A1EC262 DUP7 DUP4 PUSH1 0x40 MLOAD PUSH2 0x1293 SWAP3 SWAP2 SWAP1 PUSH2 0x2981 JUMP JUMPDEST PUSH1 0x40 MLOAD DUP1 SWAP2 SUB SWAP1 LOG2 POP POP POP POP PUSH2 0x12A7 PUSH2 0x1BC4 JUMP JUMPDEST POP JUMP JUMPDEST PUSH1 0x9 SLOAD DUP2 JUMP JUMPDEST PUSH0 PUSH1 0x1 PUSH0 DUP5 PUSH20 0xFFFFFFFFFFFFFFFFFFFFFFFFFFFFFFFFFFFFFFFF AND PUSH20 0xFFFFFFFFFFFFFFFFFFFFFFFFFFFFFFFFFFFFFFFF AND DUP2 MSTORE PUSH1 0x20 ADD SWAP1 DUP2 MSTORE PUSH1 0x20 ADD PUSH0 KECCAK256 PUSH0 DUP4 PUSH20 0xFFFFFFFFFFFFFFFFFFFFFFFFFFFFFFFFFFFFFFFF AND PUSH20 0xFFFFFFFFFFFFFFFFFFFFFFFFFFFFFFFFFFFFFFFF AND DUP2 MSTORE PUSH1 0x20 ADD SWAP1 DUP2 MSTORE PUSH1 0x20 ADD PUSH0 KECCAK256 SLOAD SWAP1 POP SWAP3 SWAP2 POP POP JUMP JUMPDEST PUSH2 0x133A PUSH2 0x192A JUMP JUMPDEST PUSH1 0x64 DUP2 LT ISZERO PUSH2 0x1375 JUMPI PUSH1 0x40 MLOAD PUSH32 0x33EFA14600000000000000000000000000000000000000000000000000000000 DUP2 MSTORE PUSH1 0x4 ADD PUSH1 0x40 MLOAD DUP1 SWAP2 SUB SWAP1 REVERT JUMPDEST DUP1 PUSH1 0x9 DUP2 SWAP1 SSTORE POP PUSH32 0xFB0EBE8C7316E6A251494C38876D13D9A3A029273FCE7964C12AA2CE07869530 DUP2 PUSH1 0x40 MLOAD PUSH2 0x13AB SWAP2 SWAP1 PUSH2 0x23C1 JUMP JUMPDEST PUSH1 0x40 MLOAD DUP1 SWAP2 SUB SWAP1 LOG1 POP JUMP JUMPDEST PUSH0 PUSH0 PUSH1 0x8 PUSH0 SWAP1 SLOAD SWAP1 PUSH2 0x100 EXP SWAP1 DIV PUSH20 0xFFFFFFFFFFFFFFFFFFFFFFFFFFFFFFFFFFFFFFFF AND PUSH20 0xFFFFFFFFFFFFFFFFFFFFFFFFFFFFFFFFFFFFFFFF AND PUSH4 0xFEAF968C PUSH1 0x40 MLOAD DUP2 PUSH4 0xFFFFFFFF AND PUSH1 0xE0 SHL DUP2 MSTORE PUSH1 0x4 ADD PUSH1 0xA0 PUSH1 0x40 MLOAD DUP1 DUP4 SUB DUP2 DUP7 GAS STATICCALL ISZERO DUP1 ISZERO PUSH2 0x1422 JUMPI RETURNDATASIZE PUSH0 PUSH0 RETURNDATACOPY RETURNDATASIZE PUSH0 REVERT JUMPDEST POP POP POP POP PUSH1 0x40 MLOAD RETURNDATASIZE PUSH1 0x1F NOT PUSH1 0x1F DUP3 ADD AND DUP3 ADD DUP1 PUSH1 0x40 MSTORE POP DUP2 ADD SWAP1 PUSH2 0x1446 SWAP2 SWAP1 PUSH2 0x2A2E JUMP JUMPDEST POP POP POP SWAP2 POP POP PUSH0 DUP2 SGT PUSH2 0x148E JUMPI PUSH1 0x40 MLOAD PUSH32 0x8C379A000000000000000000000000000000000000000000000000000000000 DUP2 MSTORE PUSH1 0x4 ADD PUSH2 0x1485 SWAP1 PUSH2 0x2AEF JUMP JUMPDEST PUSH1 0x40 MLOAD DUP1 SWAP2 SUB SWAP1 REVERT JUMPDEST DUP1 SWAP2 POP POP SWAP1 JUMP JUMPDEST PUSH32 0x0 DUP2 JUMP JUMPDEST PUSH2 0x14C1 PUSH2 0x192A JUMP JUMPDEST PUSH0 PUSH20 0xFFFFFFFFFFFFFFFFFFFFFFFFFFFFFFFFFFFFFFFF AND DUP2 PUSH20 0xFFFFFFFFFFFFFFFFFFFFFFFFFFFFFFFFFFFFFFFF AND SUB PUSH2 0x1531 JUMPI PUSH0 PUSH1 0x40 MLOAD PUSH32 0x1E4FBDF700000000000000000000000000000000000000000000000000000000 DUP2 MSTORE PUSH1 0x4 ADD PUSH2 0x1528 SWAP2 SWAP1 PUSH2 0x25FB JUMP JUMPDEST PUSH1 0x40 MLOAD DUP1 SWAP2 SUB SWAP1 REVERT JUMPDEST PUSH2 0x153A DUP2 PUSH2 0x19B1 JUMP JUMPDEST POP JUMP JUMPDEST PUSH0 PUSH32 0x1FFC9A700000000000000000000000000000000000000000000000000000000 PUSH28 0xFFFFFFFFFFFFFFFFFFFFFFFFFFFFFFFFFFFFFFFFFFFFFFFFFFFFFFFF NOT AND DUP3 PUSH28 0xFFFFFFFFFFFFFFFFFFFFFFFFFFFFFFFFFFFFFFFFFFFFFFFFFFFFFFFF NOT AND EQ SWAP1 POP SWAP2 SWAP1 POP JUMP JUMPDEST PUSH0 CALLER SWAP1 POP SWAP1 JUMP JUMPDEST PUSH2 0x15BA DUP4 DUP4 DUP4 PUSH1 0x1 PUSH2 0x1CCC JUMP JUMPDEST POP POP POP JUMP JUMPDEST PUSH0 PUSH2 0x15CA DUP5 DUP5 PUSH2 0x12B0 JUMP JUMPDEST SWAP1 POP PUSH32 0xFFFFFFFFFFFFFFFFFFFFFFFFFFFFFFFFFFFFFFFFFFFFFFFFFFFFFFFFFFFFFFFF DUP2 LT ISZERO PUSH2 0x164C JUMPI DUP2 DUP2 LT ISZERO PUSH2 0x163D JUMPI DUP3 DUP2 DUP4 PUSH1 0x40 MLOAD PUSH32 0xFB8F41B200000000000000000000000000000000000000000000000000000000 DUP2 MSTORE PUSH1 0x4 ADD PUSH2 0x1634 SWAP4 SWAP3 SWAP2 SWAP1 PUSH2 0x2B0D JUMP JUMPDEST PUSH1 0x40 MLOAD DUP1 SWAP2 SUB SWAP1 REVERT JUMPDEST PUSH2 0x164B DUP5 DUP5 DUP5 DUP5 SUB PUSH0 PUSH2 0x1CCC JUMP JUMPDEST JUMPDEST POP POP POP POP JUMP JUMPDEST PUSH0 PUSH20 0xFFFFFFFFFFFFFFFFFFFFFFFFFFFFFFFFFFFFFFFF AND DUP4 PUSH20 0xFFFFFFFFFFFFFFFFFFFFFFFFFFFFFFFFFFFFFFFF AND SUB PUSH2 0x16C2 JUMPI PUSH0 PUSH1 0x40 MLOAD PUSH32 0x96C6FD1E00000000000000000000000000000000000000000000000000000000 DUP2 MSTORE PUSH1 0x4 ADD PUSH2 0x16B9 SWAP2 SWAP1 PUSH2 0x25FB JUMP JUMPDEST PUSH1 0x40 MLOAD DUP1 SWAP2 SUB SWAP1 REVERT JUMPDEST PUSH0 PUSH20 0xFFFFFFFFFFFFFFFFFFFFFFFFFFFFFFFFFFFFFFFF AND DUP3 PUSH20 0xFFFFFFFFFFFFFFFFFFFFFFFFFFFFFFFFFFFFFFFF AND SUB PUSH2 0x1732 JUMPI PUSH0 PUSH1 0x40 MLOAD PUSH32 0xEC442F0500000000000000000000000000000000000000000000000000000000 DUP2 MSTORE PUSH1 0x4 ADD PUSH2 0x1729 SWAP2 SWAP1 PUSH2 0x25FB JUMP JUMPDEST PUSH1 0x40 MLOAD DUP1 SWAP2 SUB SWAP1 REVERT JUMPDEST PUSH2 0x173D DUP4 DUP4 DUP4 PUSH2 0x1E9B JUMP JUMPDEST POP POP POP JUMP JUMPDEST PUSH2 0x1753 DUP2 PUSH2 0x174E PUSH2 0x15A6 JUMP JUMPDEST PUSH2 0x20B4 JUMP JUMPDEST POP JUMP JUMPDEST PUSH0 PUSH2 0x1761 DUP4 DUP4 PUSH2 0xB3D JUMP JUMPDEST PUSH2 0x1836 JUMPI PUSH1 0x1 PUSH1 0x7 PUSH0 DUP6 DUP2 MSTORE PUSH1 0x20 ADD SWAP1 DUP2 MSTORE PUSH1 0x20 ADD PUSH0 KECCAK256 PUSH0 ADD PUSH0 DUP5 PUSH20 0xFFFFFFFFFFFFFFFFFFFFFFFFFFFFFFFFFFFFFFFF AND PUSH20 0xFFFFFFFFFFFFFFFFFFFFFFFFFFFFFFFFFFFFFFFF AND DUP2 MSTORE PUSH1 0x20 ADD SWAP1 DUP2 MSTORE PUSH1 0x20 ADD PUSH0 KECCAK256 PUSH0 PUSH2 0x100 EXP DUP2 SLOAD DUP2 PUSH1 0xFF MUL NOT AND SWAP1 DUP4 ISZERO ISZERO MUL OR SWAP1 SSTORE POP PUSH2 0x17D3 PUSH2 0x15A6 JUMP JUMPDEST PUSH20 0xFFFFFFFFFFFFFFFFFFFFFFFFFFFFFFFFFFFFFFFF AND DUP3 PUSH20 0xFFFFFFFFFFFFFFFFFFFFFFFFFFFFFFFFFFFFFFFF AND DUP5 PUSH32 0x2F8788117E7EFF1D82E926EC794901D17C78024A50270940304540A733656F0D PUSH1 0x40 MLOAD PUSH1 0x40 MLOAD DUP1 SWAP2 SUB SWAP1 LOG4 PUSH1 0x1 SWAP1 POP PUSH2 0x183A JUMP JUMPDEST PUSH0 SWAP1 POP JUMPDEST SWAP3 SWAP2 POP POP JUMP JUMPDEST PUSH0 PUSH2 0x184B DUP4 DUP4 PUSH2 0xB3D JUMP JUMPDEST ISZERO PUSH2 0x1920 JUMPI PUSH0 PUSH1 0x7 PUSH0 DUP6 DUP2 MSTORE PUSH1 0x20 ADD SWAP1 DUP2 MSTORE PUSH1 0x20 ADD PUSH0 KECCAK256 PUSH0 ADD PUSH0 DUP5 PUSH20 0xFFFFFFFFFFFFFFFFFFFFFFFFFFFFFFFFFFFFFFFF AND PUSH20 0xFFFFFFFFFFFFFFFFFFFFFFFFFFFFFFFFFFFFFFFF AND DUP2 MSTORE PUSH1 0x20 ADD SWAP1 DUP2 MSTORE PUSH1 0x20 ADD PUSH0 KECCAK256 PUSH0 PUSH2 0x100 EXP DUP2 SLOAD DUP2 PUSH1 0xFF MUL NOT AND SWAP1 DUP4 ISZERO ISZERO MUL OR SWAP1 SSTORE POP PUSH2 0x18BD PUSH2 0x15A6 JUMP JUMPDEST PUSH20 0xFFFFFFFFFFFFFFFFFFFFFFFFFFFFFFFFFFFFFFFF AND DUP3 PUSH20 0xFFFFFFFFFFFFFFFFFFFFFFFFFFFFFFFFFFFFFFFF AND DUP5 PUSH32 0xF6391F5C32D9C69D2A47EA670B442974B53935D1EDC7FD64EB21E047A839171B PUSH1 0x40 MLOAD PUSH1 0x40 MLOAD DUP1 SWAP2 SUB SWAP1 LOG4 PUSH1 0x1 SWAP1 POP PUSH2 0x1924 JUMP JUMPDEST PUSH0 SWAP1 POP JUMPDEST SWAP3 SWAP2 POP POP JUMP JUMPDEST PUSH2 0x1932 PUSH2 0x15A6 JUMP JUMPDEST PUSH20 0xFFFFFFFFFFFFFFFFFFFFFFFFFFFFFFFFFFFFFFFF AND PUSH2 0x1950 PUSH2 0xB15 JUMP JUMPDEST PUSH20 0xFFFFFFFFFFFFFFFFFFFFFFFFFFFFFFFFFFFFFFFF AND EQ PUSH2 0x19AF JUMPI PUSH2 0x1973 PUSH2 0x15A6 JUMP JUMPDEST PUSH1 0x40 MLOAD PUSH32 0x118CDAA700000000000000000000000000000000000000000000000000000000 DUP2 MSTORE PUSH1 0x4 ADD PUSH2 0x19A6 SWAP2 SWAP1 PUSH2 0x25FB JUMP JUMPDEST PUSH1 0x40 MLOAD DUP1 SWAP2 SUB SWAP1 REVERT JUMPDEST JUMP JUMPDEST PUSH0 PUSH1 0x5 PUSH0 SWAP1 SLOAD SWAP1 PUSH2 0x100 EXP SWAP1 DIV PUSH20 0xFFFFFFFFFFFFFFFFFFFFFFFFFFFFFFFFFFFFFFFF AND SWAP1 POP DUP2 PUSH1 0x5 PUSH0 PUSH2 0x100 EXP DUP2 SLOAD DUP2 PUSH20 0xFFFFFFFFFFFFFFFFFFFFFFFFFFFFFFFFFFFFFFFF MUL NOT AND SWAP1 DUP4 PUSH20 0xFFFFFFFFFFFFFFFFFFFFFFFFFFFFFFFFFFFFFFFF AND MUL OR SWAP1 SSTORE POP DUP2 PUSH20 0xFFFFFFFFFFFFFFFFFFFFFFFFFFFFFFFFFFFFFFFF AND DUP2 PUSH20 0xFFFFFFFFFFFFFFFFFFFFFFFFFFFFFFFFFFFFFFFF AND PUSH32 0x8BE0079C531659141344CD1FD0A4F28419497F9722A3DAAFE3B4186F6B6457E0 PUSH1 0x40 MLOAD PUSH1 0x40 MLOAD DUP1 SWAP2 SUB SWAP1 LOG3 POP POP JUMP JUMPDEST PUSH1 0x2 PUSH1 0x6 SLOAD SUB PUSH2 0x1AB9 JUMPI PUSH1 0x40 MLOAD PUSH32 0x8C379A000000000000000000000000000000000000000000000000000000000 DUP2 MSTORE PUSH1 0x4 ADD PUSH2 0x1AB0 SWAP1 PUSH2 0x2B8C JUMP JUMPDEST PUSH1 0x40 MLOAD DUP1 SWAP2 SUB SWAP1 REVERT JUMPDEST PUSH1 0x2 PUSH1 0x6 DUP2 SWAP1 SSTORE POP JUMP JUMPDEST PUSH2 0x1B3F DUP5 DUP6 PUSH20 0xFFFFFFFFFFFFFFFFFFFFFFFFFFFFFFFFFFFFFFFF AND PUSH4 0x23B872DD DUP7 DUP7 DUP7 PUSH1 0x40 MLOAD PUSH1 0x24 ADD PUSH2 0x1AF8 SWAP4 SWAP3 SWAP2 SWAP1 PUSH2 0x2BAA JUMP JUMPDEST PUSH1 0x40 MLOAD PUSH1 0x20 DUP2 DUP4 SUB SUB DUP2 MSTORE SWAP1 PUSH1 0x40 MSTORE SWAP2 POP PUSH1 0xE0 SHL PUSH1 0x20 DUP3 ADD DUP1 MLOAD PUSH28 0xFFFFFFFFFFFFFFFFFFFFFFFFFFFFFFFFFFFFFFFFFFFFFFFFFFFFFFFF DUP4 DUP2 DUP4 AND OR DUP4 MSTORE POP POP POP POP PUSH2 0x2105 JUMP JUMPDEST POP POP POP POP JUMP JUMPDEST PUSH0 PUSH20 0xFFFFFFFFFFFFFFFFFFFFFFFFFFFFFFFFFFFFFFFF AND DUP3 PUSH20 0xFFFFFFFFFFFFFFFFFFFFFFFFFFFFFFFFFFFFFFFF AND SUB PUSH2 0x1BB5 JUMPI PUSH0 PUSH1 0x40 MLOAD PUSH32 0xEC442F0500000000000000000000000000000000000000000000000000000000 DUP2 MSTORE PUSH1 0x4 ADD PUSH2 0x1BAC SWAP2 SWAP1 PUSH2 0x25FB JUMP JUMPDEST PUSH1 0x40 MLOAD DUP1 SWAP2 SUB SWAP1 REVERT JUMPDEST PUSH2 0x1BC0 PUSH0 DUP4 DUP4 PUSH2 0x1E9B JUMP JUMPDEST POP POP JUMP JUMPDEST PUSH1 0x1 PUSH1 0x6 DUP2 SWAP1 SSTORE POP JUMP JUMPDEST PUSH0 PUSH20 0xFFFFFFFFFFFFFFFFFFFFFFFFFFFFFFFFFFFFFFFF AND DUP3 PUSH20 0xFFFFFFFFFFFFFFFFFFFFFFFFFFFFFFFFFFFFFFFF AND SUB PUSH2 0x1C3E JUMPI PUSH0 PUSH1 0x40 MLOAD PUSH32 0x96C6FD1E00000000000000000000000000000000000000000000000000000000 DUP2 MSTORE PUSH1 0x4 ADD PUSH2 0x1C35 SWAP2 SWAP1 PUSH2 0x25FB JUMP JUMPDEST PUSH1 0x40 MLOAD DUP1 SWAP2 SUB SWAP1 REVERT JUMPDEST PUSH2 0x1C49 DUP3 PUSH0 DUP4 PUSH2 0x1E9B JUMP JUMPDEST POP POP JUMP JUMPDEST PUSH2 0x1CC7 DUP4 DUP5 PUSH20 0xFFFFFFFFFFFFFFFFFFFFFFFFFFFFFFFFFFFFFFFF AND PUSH4 0xA9059CBB DUP6 DUP6 PUSH1 0x40 MLOAD PUSH1 0x24 ADD PUSH2 0x1C80 SWAP3 SWAP2 SWAP1 PUSH2 0x2BDF JUMP JUMPDEST PUSH1 0x40 MLOAD PUSH1 0x20 DUP2 DUP4 SUB SUB DUP2 MSTORE SWAP1 PUSH1 0x40 MSTORE SWAP2 POP PUSH1 0xE0 SHL PUSH1 0x20 DUP3 ADD DUP1 MLOAD PUSH28 0xFFFFFFFFFFFFFFFFFFFFFFFFFFFFFFFFFFFFFFFFFFFFFFFFFFFFFFFF DUP4 DUP2 DUP4 AND OR DUP4 MSTORE POP POP POP POP PUSH2 0x2105 JUMP JUMPDEST POP POP POP JUMP JUMPDEST PUSH0 PUSH20 0xFFFFFFFFFFFFFFFFFFFFFFFFFFFFFFFFFFFFFFFF AND DUP5 PUSH20 0xFFFFFFFFFFFFFFFFFFFFFFFFFFFFFFFFFFFFFFFF AND SUB PUSH2 0x1D3C JUMPI PUSH0 PUSH1 0x40 MLOAD PUSH32 0xE602DF0500000000000000000000000000000000000000000000000000000000 DUP2 MSTORE PUSH1 0x4 ADD PUSH2 0x1D33 SWAP2 SWAP1 PUSH2 0x25FB JUMP JUMPDEST PUSH1 0x40 MLOAD DUP1 SWAP2 SUB SWAP1 REVERT JUMPDEST PUSH0 PUSH20 0xFFFFFFFFFFFFFFFFFFFFFFFFFFFFFFFFFFFFFFFF AND DUP4 PUSH20 0xFFFFFFFFFFFFFFFFFFFFFFFFFFFFFFFFFFFFFFFF AND SUB PUSH2 0x1DAC JUMPI PUSH0 PUSH1 0x40 MLOAD PUSH32 0x94280D6200000000000000000000000000000000000000000000000000000000 DUP2 MSTORE PUSH1 0x4 ADD PUSH2 0x1DA3 SWAP2 SWAP1 PUSH2 0x25FB JUMP JUMPDEST PUSH1 0x40 MLOAD DUP1 SWAP2 SUB SWAP1 REVERT JUMPDEST DUP2 PUSH1 0x1 PUSH0 DUP7 PUSH20 0xFFFFFFFFFFFFFFFFFFFFFFFFFFFFFFFFFFFFFFFF AND PUSH20 0xFFFFFFFFFFFFFFFFFFFFFFFFFFFFFFFFFFFFFFFF AND DUP2 MSTORE PUSH1 0x20 ADD SWAP1 DUP2 MSTORE PUSH1 0x20 ADD PUSH0 KECCAK256 PUSH0 DUP6 PUSH20 0xFFFFFFFFFFFFFFFFFFFFFFFFFFFFFFFFFFFFFFFF AND PUSH20 0xFFFFFFFFFFFFFFFFFFFFFFFFFFFFFFFFFFFFFFFF AND DUP2 MSTORE PUSH1 0x20 ADD SWAP1 DUP2 MSTORE PUSH1 0x20 ADD PUSH0 KECCAK256 DUP2 SWAP1 SSTORE POP DUP1 ISZERO PUSH2 0x1E95 JUMPI DUP3 PUSH20 0xFFFFFFFFFFFFFFFFFFFFFFFFFFFFFFFFFFFFFFFF AND DUP5 PUSH20 0xFFFFFFFFFFFFFFFFFFFFFFFFFFFFFFFFFFFFFFFF AND PUSH32 0x8C5BE1E5EBEC7D5BD14F71427D1E84F3DD0314C0F7B2291E5B200AC8C7C3B925 DUP5 PUSH1 0x40 MLOAD PUSH2 0x1E8C SWAP2 SWAP1 PUSH2 0x23C1 JUMP JUMPDEST PUSH1 0x40 MLOAD DUP1 SWAP2 SUB SWAP1 LOG3 JUMPDEST POP POP POP POP JUMP JUMPDEST PUSH0 PUSH20 0xFFFFFFFFFFFFFFFFFFFFFFFFFFFFFFFFFFFFFFFF AND DUP4 PUSH20 0xFFFFFFFFFFFFFFFFFFFFFFFFFFFFFFFFFFFFFFFF AND SUB PUSH2 0x1EEB JUMPI DUP1 PUSH1 0x2 PUSH0 DUP3 DUP3 SLOAD PUSH2 0x1EDF SWAP2 SWAP1 PUSH2 0x2C06 JUMP JUMPDEST SWAP3 POP POP DUP2 SWAP1 SSTORE POP PUSH2 0x1FB9 JUMP JUMPDEST PUSH0 PUSH0 PUSH0 DUP6 PUSH20 0xFFFFFFFFFFFFFFFFFFFFFFFFFFFFFFFFFFFFFFFF AND PUSH20 0xFFFFFFFFFFFFFFFFFFFFFFFFFFFFFFFFFFFFFFFF AND DUP2 MSTORE PUSH1 0x20 ADD SWAP1 DUP2 MSTORE PUSH1 0x20 ADD PUSH0 KECCAK256 SLOAD SWAP1 POP DUP2 DUP2 LT ISZERO PUSH2 0x1F74 JUMPI DUP4 DUP2 DUP4 PUSH1 0x40 MLOAD PUSH32 0xE450D38C00000000000000000000000000000000000000000000000000000000 DUP2 MSTORE PUSH1 0x4 ADD PUSH2 0x1F6B SWAP4 SWAP3 SWAP2 SWAP1 PUSH2 0x2B0D JUMP JUMPDEST PUSH1 0x40 MLOAD DUP1 SWAP2 SUB SWAP1 REVERT JUMPDEST DUP2 DUP2 SUB PUSH0 PUSH0 DUP7 PUSH20 0xFFFFFFFFFFFFFFFFFFFFFFFFFFFFFFFFFFFFFFFF AND PUSH20 0xFFFFFFFFFFFFFFFFFFFFFFFFFFFFFFFFFFFFFFFF AND DUP2 MSTORE PUSH1 0x20 ADD SWAP1 DUP2 MSTORE PUSH1 0x20 ADD PUSH0 KECCAK256 DUP2 SWAP1 SSTORE POP POP JUMPDEST PUSH0 PUSH20 0xFFFFFFFFFFFFFFFFFFFFFFFFFFFFFFFFFFFFFFFF AND DUP3 PUSH20 0xFFFFFFFFFFFFFFFFFFFFFFFFFFFFFFFFFFFFFFFF AND SUB PUSH2 0x2000 JUMPI DUP1 PUSH1 0x2 PUSH0 DUP3 DUP3 SLOAD SUB SWAP3 POP POP DUP2 SWAP1 SSTORE POP PUSH2 0x204A JUMP JUMPDEST DUP1 PUSH0 PUSH0 DUP5 PUSH20 0xFFFFFFFFFFFFFFFFFFFFFFFFFFFFFFFFFFFFFFFF AND PUSH20 0xFFFFFFFFFFFFFFFFFFFFFFFFFFFFFFFFFFFFFFFF AND DUP2 MSTORE PUSH1 0x20 ADD SWAP1 DUP2 MSTORE PUSH1 0x20 ADD PUSH0 KECCAK256 PUSH0 DUP3 DUP3 SLOAD ADD SWAP3 POP POP DUP2 SWAP1 SSTORE POP JUMPDEST DUP2 PUSH20 0xFFFFFFFFFFFFFFFFFFFFFFFFFFFFFFFFFFFFFFFF AND DUP4 PUSH20 0xFFFFFFFFFFFFFFFFFFFFFFFFFFFFFFFFFFFFFFFF AND PUSH32 0xDDF252AD1BE2C89B69C2B068FC378DAA952BA7F163C4A11628F55A4DF523B3EF DUP4 PUSH1 0x40 MLOAD PUSH2 0x20A7 SWAP2 SWAP1 PUSH2 0x23C1 JUMP JUMPDEST PUSH1 0x40 MLOAD DUP1 SWAP2 SUB SWAP1 LOG3 POP POP POP JUMP JUMPDEST PUSH2 0x20BE DUP3 DUP3 PUSH2 0xB3D JUMP JUMPDEST PUSH2 0x2101 JUMPI DUP1 DUP3 PUSH1 0x40 MLOAD PUSH32 0xE2517D3F00000000000000000000000000000000000000000000000000000000 DUP2 MSTORE PUSH1 0x4 ADD PUSH2 0x20F8 SWAP3 SWAP2 SWAP1 PUSH2 0x2C39 JUMP JUMPDEST PUSH1 0x40 MLOAD DUP1 SWAP2 SUB SWAP1 REVERT JUMPDEST POP POP JUMP JUMPDEST PUSH0 PUSH0 PUSH1 0x20 PUSH0 DUP5 MLOAD PUSH1 0x20 DUP7 ADD PUSH0 DUP9 GAS CALL DUP1 PUSH2 0x2124 JUMPI PUSH1 0x40 MLOAD RETURNDATASIZE PUSH0 DUP3 RETURNDATACOPY RETURNDATASIZE DUP2 REVERT JUMPDEST RETURNDATASIZE SWAP3 POP PUSH0 MLOAD SWAP2 POP POP PUSH0 DUP3 EQ PUSH2 0x213D JUMPI PUSH1 0x1 DUP2 EQ ISZERO PUSH2 0x2158 JUMP JUMPDEST PUSH0 DUP5 PUSH20 0xFFFFFFFFFFFFFFFFFFFFFFFFFFFFFFFFFFFFFFFF AND EXTCODESIZE EQ JUMPDEST ISZERO PUSH2 0x219A JUMPI DUP4 PUSH1 0x40 MLOAD PUSH32 0x5274AFE700000000000000000000000000000000000000000000000000000000 DUP2 MSTORE PUSH1 0x4 ADD PUSH2 0x2191 SWAP2 SWAP1 PUSH2 0x25FB JUMP JUMPDEST PUSH1 0x40 MLOAD DUP1 SWAP2 SUB SWAP1 REVERT JUMPDEST POP POP POP POP JUMP JUMPDEST PUSH0 PUSH0 REVERT JUMPDEST PUSH0 PUSH32 0xFFFFFFFF00000000000000000000000000000000000000000000000000000000 DUP3 AND SWAP1 POP SWAP2 SWAP1 POP JUMP JUMPDEST PUSH2 0x21D8 DUP2 PUSH2 0x21A4 JUMP JUMPDEST DUP2 EQ PUSH2 0x21E2 JUMPI PUSH0 PUSH0 REVERT JUMPDEST POP JUMP JUMPDEST PUSH0 DUP2 CALLDATALOAD SWAP1 POP PUSH2 0x21F3 DUP2 PUSH2 0x21CF JUMP JUMPDEST SWAP3 SWAP2 POP POP JUMP JUMPDEST PUSH0 PUSH1 0x20 DUP3 DUP5 SUB SLT ISZERO PUSH2 0x220E JUMPI PUSH2 0x220D PUSH2 0x21A0 JUMP JUMPDEST JUMPDEST PUSH0 PUSH2 0x221B DUP5 DUP3 DUP6 ADD PUSH2 0x21E5 JUMP JUMPDEST SWAP2 POP POP SWAP3 SWAP2 POP POP JUMP JUMPDEST PUSH0 DUP2 ISZERO ISZERO SWAP1 POP SWAP2 SWAP1 POP JUMP JUMPDEST PUSH2 0x2238 DUP2 PUSH2 0x2224 JUMP JUMPDEST DUP3 MSTORE POP POP JUMP JUMPDEST PUSH0 PUSH1 0x20 DUP3 ADD SWAP1 POP PUSH2 0x2251 PUSH0 DUP4 ADD DUP5 PUSH2 0x222F JUMP JUMPDEST SWAP3 SWAP2 POP POP JUMP JUMPDEST PUSH0 DUP2 MLOAD SWAP1 POP SWAP2 SWAP1 POP JUMP JUMPDEST PUSH0 DUP3 DUP3 MSTORE PUSH1 0x20 DUP3 ADD SWAP1 POP SWAP3 SWAP2 POP POP JUMP JUMPDEST DUP3 DUP2 DUP4 MCOPY PUSH0 DUP4 DUP4 ADD MSTORE POP POP POP JUMP JUMPDEST PUSH0 PUSH1 0x1F NOT PUSH1 0x1F DUP4 ADD AND SWAP1 POP SWAP2 SWAP1 POP JUMP JUMPDEST PUSH0 PUSH2 0x2299 DUP3 PUSH2 0x2257 JUMP JUMPDEST PUSH2 0x22A3 DUP2 DUP6 PUSH2 0x2261 JUMP JUMPDEST SWAP4 POP PUSH2 0x22B3 DUP2 DUP6 PUSH1 0x20 DUP7 ADD PUSH2 0x2271 JUMP JUMPDEST PUSH2 0x22BC DUP2 PUSH2 0x227F JUMP JUMPDEST DUP5 ADD SWAP2 POP POP SWAP3 SWAP2 POP POP JUMP JUMPDEST PUSH0 PUSH1 0x20 DUP3 ADD SWAP1 POP DUP2 DUP2 SUB PUSH0 DUP4 ADD MSTORE PUSH2 0x22DF DUP2 DUP5 PUSH2 0x228F JUMP JUMPDEST SWAP1 POP SWAP3 SWAP2 POP POP JUMP JUMPDEST PUSH0 PUSH20 0xFFFFFFFFFFFFFFFFFFFFFFFFFFFFFFFFFFFFFFFF DUP3 AND SWAP1 POP SWAP2 SWAP1 POP JUMP JUMPDEST PUSH0 PUSH2 0x2310 DUP3 PUSH2 0x22E7 JUMP JUMPDEST SWAP1 POP SWAP2 SWAP1 POP JUMP JUMPDEST PUSH2 0x2320 DUP2 PUSH2 0x2306 JUMP JUMPDEST DUP2 EQ PUSH2 0x232A JUMPI PUSH0 PUSH0 REVERT JUMPDEST POP JUMP JUMPDEST PUSH0 DUP2 CALLDATALOAD SWAP1 POP PUSH2 0x233B DUP2 PUSH2 0x2317 JUMP JUMPDEST SWAP3 SWAP2 POP POP JUMP JUMPDEST PUSH0 DUP2 SWAP1 POP SWAP2 SWAP1 POP JUMP JUMPDEST PUSH2 0x2353 DUP2 PUSH2 0x2341 JUMP JUMPDEST DUP2 EQ PUSH2 0x235D JUMPI PUSH0 PUSH0 REVERT JUMPDEST POP JUMP JUMPDEST PUSH0 DUP2 CALLDATALOAD SWAP1 POP PUSH2 0x236E DUP2 PUSH2 0x234A JUMP JUMPDEST SWAP3 SWAP2 POP POP JUMP JUMPDEST PUSH0 PUSH0 PUSH1 0x40 DUP4 DUP6 SUB SLT ISZERO PUSH2 0x238A JUMPI PUSH2 0x2389 PUSH2 0x21A0 JUMP JUMPDEST JUMPDEST PUSH0 PUSH2 0x2397 DUP6 DUP3 DUP7 ADD PUSH2 0x232D JUMP JUMPDEST SWAP3 POP POP PUSH1 0x20 PUSH2 0x23A8 DUP6 DUP3 DUP7 ADD PUSH2 0x2360 JUMP JUMPDEST SWAP2 POP POP SWAP3 POP SWAP3 SWAP1 POP JUMP JUMPDEST PUSH2 0x23BB DUP2 PUSH2 0x2341 JUMP JUMPDEST DUP3 MSTORE POP POP JUMP JUMPDEST PUSH0 PUSH1 0x20 DUP3 ADD SWAP1 POP PUSH2 0x23D4 PUSH0 DUP4 ADD DUP5 PUSH2 0x23B2 JUMP JUMPDEST SWAP3 SWAP2 POP POP JUMP JUMPDEST PUSH0 PUSH1 0x20 DUP3 DUP5 SUB SLT ISZERO PUSH2 0x23EF JUMPI PUSH2 0x23EE PUSH2 0x21A0 JUMP JUMPDEST JUMPDEST PUSH0 PUSH2 0x23FC DUP5 DUP3 DUP6 ADD PUSH2 0x2360 JUMP JUMPDEST SWAP2 POP POP SWAP3 SWAP2 POP POP JUMP JUMPDEST PUSH0 PUSH0 PUSH0 PUSH1 0x60 DUP5 DUP7 SUB SLT ISZERO PUSH2 0x241C JUMPI PUSH2 0x241B PUSH2 0x21A0 JUMP JUMPDEST JUMPDEST PUSH0 PUSH2 0x2429 DUP7 DUP3 DUP8 ADD PUSH2 0x232D JUMP JUMPDEST SWAP4 POP POP PUSH1 0x20 PUSH2 0x243A DUP7 DUP3 DUP8 ADD PUSH2 0x232D JUMP JUMPDEST SWAP3 POP POP PUSH1 0x40 PUSH2 0x244B DUP7 DUP3 DUP8 ADD PUSH2 0x2360 JUMP JUMPDEST SWAP2 POP POP SWAP3 POP SWAP3 POP SWAP3 JUMP JUMPDEST PUSH0 DUP2 SWAP1 POP SWAP2 SWAP1 POP JUMP JUMPDEST PUSH2 0x2467 DUP2 PUSH2 0x2455 JUMP JUMPDEST DUP2 EQ PUSH2 0x2471 JUMPI PUSH0 PUSH0 REVERT JUMPDEST POP JUMP JUMPDEST PUSH0 DUP2 CALLDATALOAD SWAP1 POP PUSH2 0x2482 DUP2 PUSH2 0x245E JUMP JUMPDEST SWAP3 SWAP2 POP POP JUMP JUMPDEST PUSH0 PUSH1 0x20 DUP3 DUP5 SUB SLT ISZERO PUSH2 0x249D JUMPI PUSH2 0x249C PUSH2 0x21A0 JUMP JUMPDEST JUMPDEST PUSH0 PUSH2 0x24AA DUP5 DUP3 DUP6 ADD PUSH2 0x2474 JUMP JUMPDEST SWAP2 POP POP SWAP3 SWAP2 POP POP JUMP JUMPDEST PUSH2 0x24BC DUP2 PUSH2 0x2455 JUMP JUMPDEST DUP3 MSTORE POP POP JUMP JUMPDEST PUSH0 PUSH1 0x20 DUP3 ADD SWAP1 POP PUSH2 0x24D5 PUSH0 DUP4 ADD DUP5 PUSH2 0x24B3 JUMP JUMPDEST SWAP3 SWAP2 POP POP JUMP JUMPDEST PUSH0 PUSH0 PUSH1 0x40 DUP4 DUP6 SUB SLT ISZERO PUSH2 0x24F1 JUMPI PUSH2 0x24F0 PUSH2 0x21A0 JUMP JUMPDEST JUMPDEST PUSH0 PUSH2 0x24FE DUP6 DUP3 DUP7 ADD PUSH2 0x2474 JUMP JUMPDEST SWAP3 POP POP PUSH1 0x20 PUSH2 0x250F DUP6 DUP3 DUP7 ADD PUSH2 0x232D JUMP JUMPDEST SWAP2 POP POP SWAP3 POP SWAP3 SWAP1 POP JUMP JUMPDEST PUSH0 PUSH1 0xFF DUP3 AND SWAP1 POP SWAP2 SWAP1 POP JUMP JUMPDEST PUSH2 0x252E DUP2 PUSH2 0x2519 JUMP JUMPDEST DUP3 MSTORE POP POP JUMP JUMPDEST PUSH0 PUSH1 0x20 DUP3 ADD SWAP1 POP PUSH2 0x2547 PUSH0 DUP4 ADD DUP5 PUSH2 0x2525 JUMP JUMPDEST SWAP3 SWAP2 POP POP JUMP JUMPDEST PUSH0 PUSH1 0x20 DUP3 DUP5 SUB SLT ISZERO PUSH2 0x2562 JUMPI PUSH2 0x2561 PUSH2 0x21A0 JUMP JUMPDEST JUMPDEST PUSH0 PUSH2 0x256F DUP5 DUP3 DUP6 ADD PUSH2 0x232D JUMP JUMPDEST SWAP2 POP POP SWAP3 SWAP2 POP POP JUMP JUMPDEST PUSH0 DUP2 SWAP1 POP SWAP2 SWAP1 POP JUMP JUMPDEST PUSH0 PUSH2 0x259B PUSH2 0x2596 PUSH2 0x2591 DUP5 PUSH2 0x22E7 JUMP JUMPDEST PUSH2 0x2578 JUMP JUMPDEST PUSH2 0x22E7 JUMP JUMPDEST SWAP1 POP SWAP2 SWAP1 POP JUMP JUMPDEST PUSH0 PUSH2 0x25AC DUP3 PUSH2 0x2581 JUMP JUMPDEST SWAP1 POP SWAP2 SWAP1 POP JUMP JUMPDEST PUSH0 PUSH2 0x25BD DUP3 PUSH2 0x25A2 JUMP JUMPDEST SWAP1 POP SWAP2 SWAP1 POP JUMP JUMPDEST PUSH2 0x25CD DUP2 PUSH2 0x25B3 JUMP JUMPDEST DUP3 MSTORE POP POP JUMP JUMPDEST PUSH0 PUSH1 0x20 DUP3 ADD SWAP1 POP PUSH2 0x25E6 PUSH0 DUP4 ADD DUP5 PUSH2 0x25C4 JUMP JUMPDEST SWAP3 SWAP2 POP POP JUMP JUMPDEST PUSH2 0x25F5 DUP2 PUSH2 0x2306 JUMP JUMPDEST DUP3 MSTORE POP POP JUMP JUMPDEST PUSH0 PUSH1 0x20 DUP3 ADD SWAP1 POP PUSH2 0x260E PUSH0 DUP4 ADD DUP5 PUSH2 0x25EC JUMP JUMPDEST SWAP3 SWAP2 POP POP JUMP JUMPDEST PUSH0 PUSH2 0x261E DUP3 PUSH2 0x25A2 JUMP JUMPDEST SWAP1 POP SWAP2 SWAP1 POP JUMP JUMPDEST PUSH2 0x262E DUP2 PUSH2 0x2614 JUMP JUMPDEST DUP3 MSTORE POP POP JUMP JUMPDEST PUSH0 PUSH1 0x20 DUP3 ADD SWAP1 POP PUSH2 0x2647 PUSH0 DUP4 ADD DUP5 PUSH2 0x2625 JUMP JUMPDEST SWAP3 SWAP2 POP POP JUMP JUMPDEST PUSH0 PUSH0 PUSH1 0x40 DUP4 DUP6 SUB SLT ISZERO PUSH2 0x2663 JUMPI PUSH2 0x2662 PUSH2 0x21A0 JUMP JUMPDEST JUMPDEST PUSH0 PUSH2 0x2670 DUP6 DUP3 DUP7 ADD PUSH2 0x232D JUMP JUMPDEST SWAP3 POP POP PUSH1 0x20 PUSH2 0x2681 DUP6 DUP3 DUP7 ADD PUSH2 0x232D JUMP JUMPDEST SWAP2 POP POP SWAP3 POP SWAP3 SWAP1 POP JUMP JUMPDEST PUSH32 0x4E487B7100000000000000000000000000000000000000000000000000000000 PUSH0 MSTORE PUSH1 0x22 PUSH1 0x4 MSTORE PUSH1 0x24 PUSH0 REVERT JUMPDEST PUSH0 PUSH1 0x2 DUP3 DIV SWAP1 POP PUSH1 0x1 DUP3 AND DUP1 PUSH2 0x26CF JUMPI PUSH1 0x7F DUP3 AND SWAP2 POP JUMPDEST PUSH1 0x20 DUP3 LT DUP2 SUB PUSH2 0x26E2 JUMPI PUSH2 0x26E1 PUSH2 0x268B JUMP JUMPDEST JUMPDEST POP SWAP2 SWAP1 POP JUMP JUMPDEST PUSH32 0x4E487B7100000000000000000000000000000000000000000000000000000000 PUSH0 MSTORE PUSH1 0x11 PUSH1 0x4 MSTORE PUSH1 0x24 PUSH0 REVERT JUMPDEST PUSH0 DUP2 PUSH1 0x1 SHR SWAP1 POP SWAP2 SWAP1 POP JUMP JUMPDEST PUSH0 PUSH0 DUP3 SWAP2 POP DUP4 SWAP1 POP JUMPDEST PUSH1 0x1 DUP6 GT ISZERO PUSH2 0x276A JUMPI DUP1 DUP7 DIV DUP2 GT ISZERO PUSH2 0x2746 JUMPI PUSH2 0x2745 PUSH2 0x26E8 JUMP JUMPDEST JUMPDEST PUSH1 0x1 DUP6 AND ISZERO PUSH2 0x2755 JUMPI DUP1 DUP3 MUL SWAP2 POP JUMPDEST DUP1 DUP2 MUL SWAP1 POP PUSH2 0x2763 DUP6 PUSH2 0x2715 JUMP JUMPDEST SWAP5 POP PUSH2 0x272A JUMP JUMPDEST SWAP5 POP SWAP5 SWAP3 POP POP POP JUMP JUMPDEST PUSH0 DUP3 PUSH2 0x2782 JUMPI PUSH1 0x1 SWAP1 POP PUSH2 0x283D JUMP JUMPDEST DUP2 PUSH2 0x278F JUMPI PUSH0 SWAP1 POP PUSH2 0x283D JUMP JUMPDEST DUP2 PUSH1 0x1 DUP2 EQ PUSH2 0x27A5 JUMPI PUSH1 0x2 DUP2 EQ PUSH2 0x27AF JUMPI PUSH2 0x27DE JUMP JUMPDEST PUSH1 0x1 SWAP2 POP POP PUSH2 0x283D JUMP JUMPDEST PUSH1 0xFF DUP5 GT ISZERO PUSH2 0x27C1 JUMPI PUSH2 0x27C0 PUSH2 0x26E8 JUMP JUMPDEST JUMPDEST DUP4 PUSH1 0x2 EXP SWAP2 POP DUP5 DUP3 GT ISZERO PUSH2 0x27D8 JUMPI PUSH2 0x27D7 PUSH2 0x26E8 JUMP JUMPDEST JUMPDEST POP PUSH2 0x283D JUMP JUMPDEST POP PUSH1 0x20 DUP4 LT PUSH2 0x133 DUP4 LT AND PUSH1 0x4E DUP5 LT PUSH1 0xB DUP5 LT AND OR ISZERO PUSH2 0x2813 JUMPI DUP3 DUP3 EXP SWAP1 POP DUP4 DUP2 GT ISZERO PUSH2 0x280E JUMPI PUSH2 0x280D PUSH2 0x26E8 JUMP JUMPDEST JUMPDEST PUSH2 0x283D JUMP JUMPDEST PUSH2 0x2820 DUP5 DUP5 DUP5 PUSH1 0x1 PUSH2 0x2721 JUMP JUMPDEST SWAP3 POP SWAP1 POP DUP2 DUP5 DIV DUP2 GT ISZERO PUSH2 0x2837 JUMPI PUSH2 0x2836 PUSH2 0x26E8 JUMP JUMPDEST JUMPDEST DUP2 DUP2 MUL SWAP1 POP JUMPDEST SWAP4 SWAP3 POP POP POP JUMP JUMPDEST PUSH0 PUSH2 0x284E DUP3 PUSH2 0x2341 JUMP JUMPDEST SWAP2 POP PUSH2 0x2859 DUP4 PUSH2 0x2519 JUMP JUMPDEST SWAP3 POP PUSH2 0x2886 PUSH32 0xFFFFFFFFFFFFFFFFFFFFFFFFFFFFFFFFFFFFFFFFFFFFFFFFFFFFFFFFFFFFFFFF DUP5 DUP5 PUSH2 0x2773 JUMP JUMPDEST SWAP1 POP SWAP3 SWAP2 POP POP JUMP JUMPDEST PUSH0 PUSH2 0x2898 DUP3 PUSH2 0x2341 JUMP JUMPDEST SWAP2 POP PUSH2 0x28A3 DUP4 PUSH2 0x2341 JUMP JUMPDEST SWAP3 POP DUP3 DUP3 MUL PUSH2 0x28B1 DUP2 PUSH2 0x2341 JUMP JUMPDEST SWAP2 POP DUP3 DUP3 DIV DUP5 EQ DUP4 ISZERO OR PUSH2 0x28C8 JUMPI PUSH2 0x28C7 PUSH2 0x26E8 JUMP JUMPDEST JUMPDEST POP SWAP3 SWAP2 POP POP JUMP JUMPDEST PUSH32 0x4E487B7100000000000000000000000000000000000000000000000000000000 PUSH0 MSTORE PUSH1 0x12 PUSH1 0x4 MSTORE PUSH1 0x24 PUSH0 REVERT JUMPDEST PUSH0 PUSH2 0x2906 DUP3 PUSH2 0x2341 JUMP JUMPDEST SWAP2 POP PUSH2 0x2911 DUP4 PUSH2 0x2341 JUMP JUMPDEST SWAP3 POP DUP3 PUSH2 0x2921 JUMPI PUSH2 0x2920 PUSH2 0x28CF JUMP JUMPDEST JUMPDEST DUP3 DUP3 DIV SWAP1 POP SWAP3 SWAP2 POP POP JUMP JUMPDEST PUSH2 0x2935 DUP2 PUSH2 0x2519 JUMP JUMPDEST DUP2 EQ PUSH2 0x293F JUMPI PUSH0 PUSH0 REVERT JUMPDEST POP JUMP JUMPDEST PUSH0 DUP2 MLOAD SWAP1 POP PUSH2 0x2950 DUP2 PUSH2 0x292C JUMP JUMPDEST SWAP3 SWAP2 POP POP JUMP JUMPDEST PUSH0 PUSH1 0x20 DUP3 DUP5 SUB SLT ISZERO PUSH2 0x296B JUMPI PUSH2 0x296A PUSH2 0x21A0 JUMP JUMPDEST JUMPDEST PUSH0 PUSH2 0x2978 DUP5 DUP3 DUP6 ADD PUSH2 0x2942 JUMP JUMPDEST SWAP2 POP POP SWAP3 SWAP2 POP POP JUMP JUMPDEST PUSH0 PUSH1 0x40 DUP3 ADD SWAP1 POP PUSH2 0x2994 PUSH0 DUP4 ADD DUP6 PUSH2 0x23B2 JUMP JUMPDEST PUSH2 0x29A1 PUSH1 0x20 DUP4 ADD DUP5 PUSH2 0x23B2 JUMP JUMPDEST SWAP4 SWAP3 POP POP POP JUMP JUMPDEST PUSH0 PUSH10 0xFFFFFFFFFFFFFFFFFFFF DUP3 AND SWAP1 POP SWAP2 SWAP1 POP JUMP JUMPDEST PUSH2 0x29C6 DUP2 PUSH2 0x29A8 JUMP JUMPDEST DUP2 EQ PUSH2 0x29D0 JUMPI PUSH0 PUSH0 REVERT JUMPDEST POP JUMP JUMPDEST PUSH0 DUP2 MLOAD SWAP1 POP PUSH2 0x29E1 DUP2 PUSH2 0x29BD JUMP JUMPDEST SWAP3 SWAP2 POP POP JUMP JUMPDEST PUSH0 DUP2 SWAP1 POP SWAP2 SWAP1 POP JUMP JUMPDEST PUSH2 0x29F9 DUP2 PUSH2 0x29E7 JUMP JUMPDEST DUP2 EQ PUSH2 0x2A03 JUMPI PUSH0 PUSH0 REVERT JUMPDEST POP JUMP JUMPDEST PUSH0 DUP2 MLOAD SWAP1 POP PUSH2 0x2A14 DUP2 PUSH2 0x29F0 JUMP JUMPDEST SWAP3 SWAP2 POP POP JUMP JUMPDEST PUSH0 DUP2 MLOAD SWAP1 POP PUSH2 0x2A28 DUP2 PUSH2 0x234A JUMP JUMPDEST SWAP3 SWAP2 POP POP JUMP JUMPDEST PUSH0 PUSH0 PUSH0 PUSH0 PUSH0 PUSH1 0xA0 DUP7 DUP9 SUB SLT ISZERO PUSH2 0x2A47 JUMPI PUSH2 0x2A46 PUSH2 0x21A0 JUMP JUMPDEST JUMPDEST PUSH0 PUSH2 0x2A54 DUP9 DUP3 DUP10 ADD PUSH2 0x29D3 JUMP JUMPDEST SWAP6 POP POP PUSH1 0x20 PUSH2 0x2A65 DUP9 DUP3 DUP10 ADD PUSH2 0x2A06 JUMP JUMPDEST SWAP5 POP POP PUSH1 0x40 PUSH2 0x2A76 DUP9 DUP3 DUP10 ADD PUSH2 0x2A1A JUMP JUMPDEST SWAP4 POP POP PUSH1 0x60 PUSH2 0x2A87 DUP9 DUP3 DUP10 ADD PUSH2 0x2A1A JUMP JUMPDEST SWAP3 POP POP PUSH1 0x80 PUSH2 0x2A98 DUP9 DUP3 DUP10 ADD PUSH2 0x29D3 JUMP JUMPDEST SWAP2 POP POP SWAP3 SWAP6 POP SWAP3 SWAP6 SWAP1 SWAP4 POP JUMP JUMPDEST PUSH32 0x496E76616C6964207072696365206665656420726573706F6E73650000000000 PUSH0 DUP3 ADD MSTORE POP JUMP JUMPDEST PUSH0 PUSH2 0x2AD9 PUSH1 0x1B DUP4 PUSH2 0x2261 JUMP JUMPDEST SWAP2 POP PUSH2 0x2AE4 DUP3 PUSH2 0x2AA5 JUMP JUMPDEST PUSH1 0x20 DUP3 ADD SWAP1 POP SWAP2 SWAP1 POP JUMP JUMPDEST PUSH0 PUSH1 0x20 DUP3 ADD SWAP1 POP DUP2 DUP2 SUB PUSH0 DUP4 ADD MSTORE PUSH2 0x2B06 DUP2 PUSH2 0x2ACD JUMP JUMPDEST SWAP1 POP SWAP2 SWAP1 POP JUMP JUMPDEST PUSH0 PUSH1 0x60 DUP3 ADD SWAP1 POP PUSH2 0x2B20 PUSH0 DUP4 ADD DUP7 PUSH2 0x25EC JUMP JUMPDEST PUSH2 0x2B2D PUSH1 0x20 DUP4 ADD DUP6 PUSH2 0x23B2 JUMP JUMPDEST PUSH2 0x2B3A PUSH1 0x40 DUP4 ADD DUP5 PUSH2 0x23B2 JUMP JUMPDEST SWAP5 SWAP4 POP POP POP POP JUMP JUMPDEST PUSH32 0x5265656E7472616E637947756172643A207265656E7472616E742063616C6C00 PUSH0 DUP3 ADD MSTORE POP JUMP JUMPDEST PUSH0 PUSH2 0x2B76 PUSH1 0x1F DUP4 PUSH2 0x2261 JUMP JUMPDEST SWAP2 POP PUSH2 0x2B81 DUP3 PUSH2 0x2B42 JUMP JUMPDEST PUSH1 0x20 DUP3 ADD SWAP1 POP SWAP2 SWAP1 POP JUMP JUMPDEST PUSH0 PUSH1 0x20 DUP3 ADD SWAP1 POP DUP2 DUP2 SUB PUSH0 DUP4 ADD MSTORE PUSH2 0x2BA3 DUP2 PUSH2 0x2B6A JUMP JUMPDEST SWAP1 POP SWAP2 SWAP1 POP JUMP JUMPDEST PUSH0 PUSH1 0x60 DUP3 ADD SWAP1 POP PUSH2 0x2BBD PUSH0 DUP4 ADD DUP7 PUSH2 0x25EC JUMP JUMPDEST PUSH2 0x2BCA PUSH1 0x20 DUP4 ADD DUP6 PUSH2 0x25EC JUMP JUMPDEST PUSH2 0x2BD7 PUSH1 0x40 DUP4 ADD DUP5 PUSH2 0x23B2 JUMP JUMPDEST SWAP5 SWAP4 POP POP POP POP JUMP JUMPDEST PUSH0 PUSH1 0x40 DUP3 ADD SWAP1 POP PUSH2 0x2BF2 PUSH0 DUP4 ADD DUP6 PUSH2 0x25EC JUMP JUMPDEST PUSH2 0x2BFF PUSH1 0x20 DUP4 ADD DUP5 PUSH2 0x23B2 JUMP JUMPDEST SWAP4 SWAP3 POP POP POP JUMP JUMPDEST PUSH0 PUSH2 0x2C10 DUP3 PUSH2 0x2341 JUMP JUMPDEST SWAP2 POP PUSH2 0x2C1B DUP4 PUSH2 0x2341 JUMP JUMPDEST SWAP3 POP DUP3 DUP3 ADD SWAP1 POP DUP1 DUP3 GT ISZERO PUSH2 0x2C33 JUMPI PUSH2 0x2C32 PUSH2 0x26E8 JUMP JUMPDEST JUMPDEST SWAP3 SWAP2 POP POP JUMP JUMPDEST PUSH0 PUSH1 0x40 DUP3 ADD SWAP1 POP PUSH2 0x2C4C PUSH0 DUP4 ADD DUP6 PUSH2 0x25EC JUMP JUMPDEST PUSH2 0x2C59 PUSH1 0x20 DUP4 ADD DUP5 PUSH2 0x24B3 JUMP JUMPDEST SWAP4 SWAP3 POP POP POP JUMP INVALID LOG2 PUSH5 0x6970667358 0x22 SLT KECCAK256 LOG2 0xB9 PUSH17 0xE1A8BAB334B08B6BA95EDCD96C4288E509 SLOAD SSTORE CALLF 0x8D0B 0xC1 PREVRANDAO SWAP9 SWAPN 0x6C SLOAD CALLDATASIZE PUSH5 0x736F6C6343 STOP ADDMOD 0x1E STOP CALLER "
				},
				"gasEstimates": {
					"creation": {
						"codeDepositCost": "2282800",
						"executionCost": "infinite",
						"totalCost": "infinite"
					},
					"external": {
						"DEFAULT_ADMIN_ROLE()": "441",
						"PRICE_FEED_MANAGER_ROLE()": "370",
						"allowance(address,address)": "infinite",
						"approve(address,uint256)": "infinite",
						"balanceOf(address)": "2940",
						"collateralDecimals()": "infinite",
						"collateralToken()": "infinite",
						"collateralizationRatio()": "2514",
						"decimals()": "406",
						"getCollateralForRedeem(uint256)": "infinite",
						"getCurrentPrice()": "infinite",
						"getRequiredCollateralForMint(uint256)": "infinite",
						"getRoleAdmin(bytes32)": "infinite",
						"grantRole(bytes32,address)": "infinite",
						"hasRole(bytes32,address)": "3167",
						"mint(uint256)": "infinite",
						"name()": "infinite",
						"owner()": "2626",
						"priceFeed()": "infinite",
						"redeem(uint256)": "infinite",
						"renounceOwnership()": "infinite",
						"renounceRole(bytes32,address)": "infinite",
						"revokeRole(bytes32,address)": "infinite",
						"setCollateralizationRatio(uint256)": "infinite",
						"setPriceFeedContract(address)": "infinite",
						"supportsInterface(bytes4)": "764",
						"symbol()": "infinite",
						"totalSupply()": "2478",
						"transfer(address,uint256)": "infinite",
						"transferFrom(address,address,uint256)": "infinite",
						"transferOwnership(address)": "infinite"
					}
				},
				"methodIdentifiers": {
					"DEFAULT_ADMIN_ROLE()": "a217fddf",
					"PRICE_FEED_MANAGER_ROLE()": "a2fd773d",
					"allowance(address,address)": "dd62ed3e",
					"approve(address,uint256)": "095ea7b3",
					"balanceOf(address)": "70a08231",
					"collateralDecimals()": "ec9c6c30",
					"collateralToken()": "b2016bd4",
					"collateralizationRatio()": "dcaf9c44",
					"decimals()": "313ce567",
					"getCollateralForRedeem(uint256)": "ba6af5ab",
					"getCurrentPrice()": "eb91d37e",
					"getRequiredCollateralForMint(uint256)": "1bde17fe",
					"getRoleAdmin(bytes32)": "248a9ca3",
					"grantRole(bytes32,address)": "2f2ff15d",
					"hasRole(bytes32,address)": "91d14854",
					"mint(uint256)": "a0712d68",
					"name()": "06fdde03",
					"owner()": "8da5cb5b",
					"priceFeed()": "741bef1a",
					"redeem(uint256)": "db006a75",
					"renounceOwnership()": "715018a6",
					"renounceRole(bytes32,address)": "36568abe",
					"revokeRole(bytes32,address)": "d547741f",
					"setCollateralizationRatio(uint256)": "e5829d20",
					"setPriceFeedContract(address)": "74626404",
					"supportsInterface(bytes4)": "01ffc9a7",
					"symbol()": "95d89b41",
					"totalSupply()": "18160ddd",
					"transfer(address,uint256)": "a9059cbb",
					"transferFrom(address,address,uint256)": "23b872dd",
					"transferOwnership(address)": "f2fde38b"
				}
			},
			"storageLayout": {
				"storage": [
					{
						"astId": 892,
						"contract": "submissions/Zora/Day29SimpleStableCoin.sol:SimpleStablecoin",
						"label": "_balances",
						"offset": 0,
						"slot": "0",
						"type": "t_mapping(t_address,t_uint256)"
					},
					{
						"astId": 898,
						"contract": "submissions/Zora/Day29SimpleStableCoin.sol:SimpleStablecoin",
						"label": "_allowances",
						"offset": 0,
						"slot": "1",
						"type": "t_mapping(t_address,t_mapping(t_address,t_uint256))"
					},
					{
						"astId": 900,
						"contract": "submissions/Zora/Day29SimpleStableCoin.sol:SimpleStablecoin",
						"label": "_totalSupply",
						"offset": 0,
						"slot": "2",
						"type": "t_uint256"
					},
					{
						"astId": 902,
						"contract": "submissions/Zora/Day29SimpleStableCoin.sol:SimpleStablecoin",
						"label": "_name",
						"offset": 0,
						"slot": "3",
						"type": "t_string_storage"
					},
					{
						"astId": 904,
						"contract": "submissions/Zora/Day29SimpleStableCoin.sol:SimpleStablecoin",
						"label": "_symbol",
						"offset": 0,
						"slot": "4",
						"type": "t_string_storage"
					},
					{
						"astId": 434,
						"contract": "submissions/Zora/Day29SimpleStableCoin.sol:SimpleStablecoin",
						"label": "_owner",
						"offset": 0,
						"slot": "5",
						"type": "t_address"
					},
					{
						"astId": 815,
						"contract": "submissions/Zora/Day29SimpleStableCoin.sol:SimpleStablecoin",
						"label": "_status",
						"offset": 0,
						"slot": "6",
						"type": "t_uint256"
					},
					{
						"astId": 73,
						"contract": "submissions/Zora/Day29SimpleStableCoin.sol:SimpleStablecoin",
						"label": "_roles",
						"offset": 0,
						"slot": "7",
						"type": "t_mapping(t_bytes32,t_struct(RoleData)68_storage)"
					},
					{
						"astId": 2052,
						"contract": "submissions/Zora/Day29SimpleStableCoin.sol:SimpleStablecoin",
						"label": "priceFeed",
						"offset": 0,
						"slot": "8",
						"type": "t_contract(AggregatorV3Interface)45"
					},
					{
						"astId": 2055,
						"contract": "submissions/Zora/Day29SimpleStableCoin.sol:SimpleStablecoin",
						"label": "collateralizationRatio",
						"offset": 0,
						"slot": "9",
						"type": "t_uint256"
					}
				],
				"types": {
					"t_address": {
						"encoding": "inplace",
						"label": "address",
						"numberOfBytes": "20"
					},
					"t_bool": {
						"encoding": "inplace",
						"label": "bool",
						"numberOfBytes": "1"
					},
					"t_bytes32": {
						"encoding": "inplace",
						"label": "bytes32",
						"numberOfBytes": "32"
					},
					"t_contract(AggregatorV3Interface)45": {
						"encoding": "inplace",
						"label": "contract AggregatorV3Interface",
						"numberOfBytes": "20"
					},
					"t_mapping(t_address,t_bool)": {
						"encoding": "mapping",
						"key": "t_address",
						"label": "mapping(address => bool)",
						"numberOfBytes": "32",
						"value": "t_bool"
					},
					"t_mapping(t_address,t_mapping(t_address,t_uint256))": {
						"encoding": "mapping",
						"key": "t_address",
						"label": "mapping(address => mapping(address => uint256))",
						"numberOfBytes": "32",
						"value": "t_mapping(t_address,t_uint256)"
					},
					"t_mapping(t_address,t_uint256)": {
						"encoding": "mapping",
						"key": "t_address",
						"label": "mapping(address => uint256)",
						"numberOfBytes": "32",
						"value": "t_uint256"
					},
					"t_mapping(t_bytes32,t_struct(RoleData)68_storage)": {
						"encoding": "mapping",
						"key": "t_bytes32",
						"label": "mapping(bytes32 => struct AccessControl.RoleData)",
						"numberOfBytes": "32",
						"value": "t_struct(RoleData)68_storage"
					},
					"t_string_storage": {
						"encoding": "bytes",
						"label": "string",
						"numberOfBytes": "32"
					},
					"t_struct(RoleData)68_storage": {
						"encoding": "inplace",
						"label": "struct AccessControl.RoleData",
						"members": [
							{
								"astId": 65,
								"contract": "submissions/Zora/Day29SimpleStableCoin.sol:SimpleStablecoin",
								"label": "hasRole",
								"offset": 0,
								"slot": "0",
								"type": "t_mapping(t_address,t_bool)"
							},
							{
								"astId": 67,
								"contract": "submissions/Zora/Day29SimpleStableCoin.sol:SimpleStablecoin",
								"label": "adminRole",
								"offset": 0,
								"slot": "1",
								"type": "t_bytes32"
							}
						],
						"numberOfBytes": "64"
					},
					"t_uint256": {
						"encoding": "inplace",
						"label": "uint256",
						"numberOfBytes": "32"
					}
				}
			},
			"userdoc": {
				"kind": "user",
				"methods": {},
				"version": 1
			}
		}
	}
}