{
	"submissions/Zora/Day8TipJar.sol": {
		"TipJar": {
			"abi": [
				{
					"inputs": [],
					"stateMutability": "nonpayable",
					"type": "constructor"
				},
				{
					"inputs": [
						{
							"internalType": "string",
							"name": "_currencyCode",
							"type": "string"
						},
						{
							"internalType": "uint256",
							"name": "_rateToEth",
							"type": "uint256"
						}
					],
					"name": "addCurrency",
					"outputs": [],
					"stateMutability": "nonpayable",
					"type": "function"
				},
				{
					"inputs": [
						{
							"internalType": "string",
							"name": "",
							"type": "string"
						}
					],
					"name": "conversionRates",
					"outputs": [
						{
							"internalType": "uint256",
							"name": "",
							"type": "uint256"
						}
					],
					"stateMutability": "view",
					"type": "function"
				},
				{
					"inputs": [
						{
							"internalType": "string",
							"name": "_currencyCode",
							"type": "string"
						},
						{
							"internalType": "uint256",
							"name": "_amount",
							"type": "uint256"
						}
					],
					"name": "convertToEth",
					"outputs": [
						{
							"internalType": "uint256",
							"name": "",
							"type": "uint256"
						}
					],
					"stateMutability": "view",
					"type": "function"
				},
				{
					"inputs": [],
					"name": "getContractBalance",
					"outputs": [
						{
							"internalType": "uint256",
							"name": "",
							"type": "uint256"
						}
					],
					"stateMutability": "view",
					"type": "function"
				},
				{
					"inputs": [
						{
							"internalType": "string",
							"name": "_currencyCode",
							"type": "string"
						}
					],
					"name": "getConversionRate",
					"outputs": [
						{
							"internalType": "uint256",
							"name": "",
							"type": "uint256"
						}
					],
					"stateMutability": "view",
					"type": "function"
				},
				{
					"inputs": [],
					"name": "getSupportedCurrencies",
					"outputs": [
						{
							"internalType": "string[]",
							"name": "",
							"type": "string[]"
						}
					],
					"stateMutability": "view",
					"type": "function"
				},
				{
					"inputs": [
						{
							"internalType": "address",
							"name": "_tipper",
							"type": "address"
						}
					],
					"name": "getTipperContribution",
					"outputs": [
						{
							"internalType": "uint256",
							"name": "",
							"type": "uint256"
						}
					],
					"stateMutability": "view",
					"type": "function"
				},
				{
					"inputs": [
						{
							"internalType": "string",
							"name": "_currencyCode",
							"type": "string"
						}
					],
					"name": "getTipsInCurrency",
					"outputs": [
						{
							"internalType": "uint256",
							"name": "",
							"type": "uint256"
						}
					],
					"stateMutability": "view",
					"type": "function"
				},
				{
					"inputs": [],
					"name": "owner",
					"outputs": [
						{
							"internalType": "address",
							"name": "",
							"type": "address"
						}
					],
					"stateMutability": "view",
					"type": "function"
				},
				{
					"inputs": [
						{
							"internalType": "uint256",
							"name": "",
							"type": "uint256"
						}
					],
					"name": "supportedCurrencies",
					"outputs": [
						{
							"internalType": "string",
							"name": "",
							"type": "string"
						}
					],
					"stateMutability": "view",
					"type": "function"
				},
				{
					"inputs": [
						{
							"internalType": "string",
							"name": "_currencyCode",
							"type": "string"
						},
						{
							"internalType": "uint256",
							"name": "_amount",
							"type": "uint256"
						}
					],
					"name": "tipInCurrency",
					"outputs": [],
					"stateMutability": "payable",
					"type": "function"
				},
				{
					"inputs": [],
					"name": "tipInEth",
					"outputs": [],
					"stateMutability": "payable",
					"type": "function"
				},
				{
					"inputs": [
						{
							"internalType": "address",
							"name": "",
							"type": "address"
						}
					],
					"name": "tipPerPerson",
					"outputs": [
						{
							"internalType": "uint256",
							"name": "",
							"type": "uint256"
						}
					],
					"stateMutability": "view",
					"type": "function"
				},
				{
					"inputs": [
						{
							"internalType": "string",
							"name": "",
							"type": "string"
						}
					],
					"name": "tipsPerCurrency",
					"outputs": [
						{
							"internalType": "uint256",
							"name": "",
							"type": "uint256"
						}
					],
					"stateMutability": "view",
					"type": "function"
				},
				{
					"inputs": [],
					"name": "totalTipsReceived",
					"outputs": [
						{
							"internalType": "uint256",
							"name": "",
							"type": "uint256"
						}
					],
					"stateMutability": "view",
					"type": "function"
				},
				{
					"inputs": [
						{
							"internalType": "address",
							"name": "_newOwner",
							"type": "address"
						}
					],
					"name": "transferOwnership",
					"outputs": [],
					"stateMutability": "nonpayable",
					"type": "function"
				},
				{
					"inputs": [],
					"name": "withdrawTips",
					"outputs": [],
					"stateMutability": "nonpayable",
					"type": "function"
				}
			],
			"devdoc": {
				"kind": "dev",
				"methods": {},
				"version": 1
			},
			"evm": {
				"assembly": "    /* \"submissions/Zora/Day8TipJar.sol\":60:3672  contract TipJar {... */\n  mstore(0x40, 0x80)\n    /* \"submissions/Zora/Day8TipJar.sol\":365:580  constructor() {... */\n  callvalue\n  dup1\n  iszero\n  tag_1\n  jumpi\n  revert(0x00, 0x00)\ntag_1:\n  pop\n    /* \"submissions/Zora/Day8TipJar.sol\":398:408  msg.sender */\n  caller\n    /* \"submissions/Zora/Day8TipJar.sol\":390:395  owner */\n  0x00\n  0x00\n    /* \"submissions/Zora/Day8TipJar.sol\":390:408  owner = msg.sender */\n  0x0100\n  exp\n  dup2\n  sload\n  dup2\n  0xffffffffffffffffffffffffffffffffffffffff\n  mul\n  not\n  and\n  swap1\n  dup4\n  0xffffffffffffffffffffffffffffffffffffffff\n  and\n  mul\n  or\n  swap1\n  sstore\n  pop\n    /* \"submissions/Zora/Day8TipJar.sol\":419:449  addCurrency(\"USD\", 5 * 10**14) */\n  tag_4\n  mload(0x40)\n  dup1\n  0x40\n  add\n  0x40\n  mstore\n  dup1\n  0x03\n  dup2\n  mstore\n  0x20\n  add\n  0x5553440000000000000000000000000000000000000000000000000000000000\n  dup2\n  mstore\n  pop\n    /* \"submissions/Zora/Day8TipJar.sol\":438:448  5 * 10**14 */\n  0x01c6bf52634000\n    /* \"submissions/Zora/Day8TipJar.sol\":419:430  addCurrency */\n  shl(0x20, tag_5)\n    /* \"submissions/Zora/Day8TipJar.sol\":419:449  addCurrency(\"USD\", 5 * 10**14) */\n  0x20\n  shr\n  jump\t// in\ntag_4:\n    /* \"submissions/Zora/Day8TipJar.sol\":460:490  addCurrency(\"EUR\", 6 * 10**14) */\n  tag_6\n  mload(0x40)\n  dup1\n  0x40\n  add\n  0x40\n  mstore\n  dup1\n  0x03\n  dup2\n  mstore\n  0x20\n  add\n  0x4555520000000000000000000000000000000000000000000000000000000000\n  dup2\n  mstore\n  pop\n    /* \"submissions/Zora/Day8TipJar.sol\":479:489  6 * 10**14 */\n  0x0221b262dd8000\n    /* \"submissions/Zora/Day8TipJar.sol\":460:471  addCurrency */\n  shl(0x20, tag_5)\n    /* \"submissions/Zora/Day8TipJar.sol\":460:490  addCurrency(\"EUR\", 6 * 10**14) */\n  0x20\n  shr\n  jump\t// in\ntag_6:\n    /* \"submissions/Zora/Day8TipJar.sol\":501:531  addCurrency(\"JPY\", 4 * 10**12) */\n  tag_7\n  mload(0x40)\n  dup1\n  0x40\n  add\n  0x40\n  mstore\n  dup1\n  0x03\n  dup2\n  mstore\n  0x20\n  add\n  0x4a50590000000000000000000000000000000000000000000000000000000000\n  dup2\n  mstore\n  pop\n    /* \"submissions/Zora/Day8TipJar.sol\":520:530  4 * 10**12 */\n  0x03a352944000\n    /* \"submissions/Zora/Day8TipJar.sol\":501:512  addCurrency */\n  shl(0x20, tag_5)\n    /* \"submissions/Zora/Day8TipJar.sol\":501:531  addCurrency(\"JPY\", 4 * 10**12) */\n  0x20\n  shr\n  jump\t// in\ntag_7:\n    /* \"submissions/Zora/Day8TipJar.sol\":542:572  addCurrency(\"INR\", 7 * 10**12) */\n  tag_8\n  mload(0x40)\n  dup1\n  0x40\n  add\n  0x40\n  mstore\n  dup1\n  0x03\n  dup2\n  mstore\n  0x20\n  add\n  0x494e520000000000000000000000000000000000000000000000000000000000\n  dup2\n  mstore\n  pop\n    /* \"submissions/Zora/Day8TipJar.sol\":561:571  7 * 10**12 */\n  0x065dd0837000\n    /* \"submissions/Zora/Day8TipJar.sol\":542:553  addCurrency */\n  shl(0x20, tag_5)\n    /* \"submissions/Zora/Day8TipJar.sol\":542:572  addCurrency(\"INR\", 7 * 10**12) */\n  0x20\n  shr\n  jump\t// in\ntag_8:\n    /* \"submissions/Zora/Day8TipJar.sol\":60:3672  contract TipJar {... */\n  jump(tag_9)\n    /* \"submissions/Zora/Day8TipJar.sol\":714:1326  function addCurrency(string memory _currencyCode, uint256 _rateToEth) public onlyOwner {... */\ntag_5:\n    /* \"submissions/Zora/Day8TipJar.sol\":642:647  owner */\n  0x00\n  0x00\n  swap1\n  sload\n  swap1\n  0x0100\n  exp\n  swap1\n  div\n  0xffffffffffffffffffffffffffffffffffffffff\n  and\n    /* \"submissions/Zora/Day8TipJar.sol\":628:647  msg.sender == owner */\n  0xffffffffffffffffffffffffffffffffffffffff\n  and\n    /* \"submissions/Zora/Day8TipJar.sol\":628:638  msg.sender */\n  caller\n    /* \"submissions/Zora/Day8TipJar.sol\":628:647  msg.sender == owner */\n  0xffffffffffffffffffffffffffffffffffffffff\n  and\n  eq\n    /* \"submissions/Zora/Day8TipJar.sol\":620:686  require(msg.sender == owner, \"Only owner can perform this action\") */\n  tag_11\n  jumpi\n  mload(0x40)\n  0x08c379a000000000000000000000000000000000000000000000000000000000\n  dup2\n  mstore\n  0x04\n  add\n  tag_12\n  swap1\n  tag_13\n  jump\t// in\ntag_12:\n  mload(0x40)\n  dup1\n  swap2\n  sub\n  swap1\n  revert\ntag_11:\n    /* \"submissions/Zora/Day8TipJar.sol\":833:834  0 */\n  0x00\n    /* \"submissions/Zora/Day8TipJar.sol\":820:830  _rateToEth */\n  dup2\n    /* \"submissions/Zora/Day8TipJar.sol\":820:834  _rateToEth > 0 */\n  gt\n    /* \"submissions/Zora/Day8TipJar.sol\":812:877  require(_rateToEth > 0, \"Conversion rate must be greater than 0\") */\n  tag_15\n  jumpi\n  mload(0x40)\n  0x08c379a000000000000000000000000000000000000000000000000000000000\n  dup2\n  mstore\n  0x04\n  add\n  tag_16\n  swap1\n  tag_17\n  jump\t// in\ntag_16:\n  mload(0x40)\n  dup1\n  swap2\n  sub\n  swap1\n  revert\ntag_15:\n    /* \"submissions/Zora/Day8TipJar.sol\":888:907  bool currencyExists */\n  0x00\n    /* \"submissions/Zora/Day8TipJar.sol\":910:915  false */\n  0x00\n    /* \"submissions/Zora/Day8TipJar.sol\":888:915  bool currencyExists = false */\n  swap1\n  pop\n    /* \"submissions/Zora/Day8TipJar.sol\":931:937  uint i */\n  0x00\n    /* \"submissions/Zora/Day8TipJar.sol\":940:941  0 */\n  0x00\n    /* \"submissions/Zora/Day8TipJar.sol\":931:941  uint i = 0 */\n  swap1\n  pop\n    /* \"submissions/Zora/Day8TipJar.sol\":926:1166  for (uint i = 0; i < supportedCurrencies.length; i++){... */\ntag_18:\n    /* \"submissions/Zora/Day8TipJar.sol\":947:966  supportedCurrencies */\n  0x04\n    /* \"submissions/Zora/Day8TipJar.sol\":947:973  supportedCurrencies.length */\n  dup1\n  sload\n  swap1\n  pop\n    /* \"submissions/Zora/Day8TipJar.sol\":943:944  i */\n  dup2\n    /* \"submissions/Zora/Day8TipJar.sol\":943:973  i < supportedCurrencies.length */\n  lt\n    /* \"submissions/Zora/Day8TipJar.sol\":926:1166  for (uint i = 0; i < supportedCurrencies.length; i++){... */\n  iszero\n  tag_19\n  jumpi\n    /* \"submissions/Zora/Day8TipJar.sol\":1058:1071  _currencyCode */\n  dup4\n    /* \"submissions/Zora/Day8TipJar.sol\":1042:1073  keccak256(bytes(_currencyCode)) */\n  dup1\n  mload\n  swap1\n  0x20\n  add\n  keccak256\n    /* \"submissions/Zora/Day8TipJar.sol\":1014:1033  supportedCurrencies */\n  0x04\n    /* \"submissions/Zora/Day8TipJar.sol\":1034:1035  i */\n  dup3\n    /* \"submissions/Zora/Day8TipJar.sol\":1014:1036  supportedCurrencies[i] */\n  dup2\n  sload\n  dup2\n  lt\n  tag_21\n  jumpi\n  tag_22\n  tag_23\n  jump\t// in\ntag_22:\ntag_21:\n  swap1\n  0x00\n  mstore\n  keccak256(0x00, 0x20)\n  add\n    /* \"submissions/Zora/Day8TipJar.sol\":998:1038  keccak256(bytes(supportedCurrencies[i])) */\n  mload(0x40)\n  tag_25\n  swap2\n  swap1\n  tag_26\n  jump\t// in\ntag_25:\n  mload(0x40)\n  dup1\n  swap2\n  sub\n  swap1\n  keccak256\n    /* \"submissions/Zora/Day8TipJar.sol\":998:1073  keccak256(bytes(supportedCurrencies[i])) == keccak256(bytes(_currencyCode)) */\n  sub\n    /* \"submissions/Zora/Day8TipJar.sol\":994:1155  if (keccak256(bytes(supportedCurrencies[i])) == keccak256(bytes(_currencyCode))) {... */\n  tag_27\n  jumpi\n    /* \"submissions/Zora/Day8TipJar.sol\":1111:1115  true */\n  0x01\n    /* \"submissions/Zora/Day8TipJar.sol\":1094:1115  currencyExists = true */\n  swap2\n  pop\n    /* \"submissions/Zora/Day8TipJar.sol\":1134:1139  break */\n  jump(tag_19)\n    /* \"submissions/Zora/Day8TipJar.sol\":994:1155  if (keccak256(bytes(supportedCurrencies[i])) == keccak256(bytes(_currencyCode))) {... */\ntag_27:\n    /* \"submissions/Zora/Day8TipJar.sol\":975:978  i++ */\n  dup1\n  dup1\n  0x01\n  add\n  swap2\n  pop\n  pop\n    /* \"submissions/Zora/Day8TipJar.sol\":926:1166  for (uint i = 0; i < supportedCurrencies.length; i++){... */\n  jump(tag_18)\ntag_19:\n  pop\n    /* \"submissions/Zora/Day8TipJar.sol\":1181:1195  currencyExists */\n  dup1\n    /* \"submissions/Zora/Day8TipJar.sol\":1176:1263  if (!currencyExists) {... */\n  tag_28\n  jumpi\n    /* \"submissions/Zora/Day8TipJar.sol\":1212:1231  supportedCurrencies */\n  0x04\n    /* \"submissions/Zora/Day8TipJar.sol\":1237:1250  _currencyCode */\n  dup4\n    /* \"submissions/Zora/Day8TipJar.sol\":1212:1251  supportedCurrencies.push(_currencyCode) */\n  swap1\n  dup1\n  0x01\n  dup2\n  sload\n  add\n  dup1\n  dup3\n  sstore\n  dup1\n  swap2\n  pop\n  pop\n  0x01\n  swap1\n  sub\n  swap1\n  0x00\n  mstore\n  keccak256(0x00, 0x20)\n  add\n  0x00\n  swap1\n  swap2\n  swap1\n  swap2\n  swap1\n  swap2\n  pop\n  swap1\n  dup2\n  tag_30\n  swap2\n  swap1\n  tag_31\n  jump\t// in\ntag_30:\n  pop\n    /* \"submissions/Zora/Day8TipJar.sol\":1176:1263  if (!currencyExists) {... */\ntag_28:\n    /* \"submissions/Zora/Day8TipJar.sol\":1308:1318  _rateToEth */\n  dup2\n    /* \"submissions/Zora/Day8TipJar.sol\":1275:1290  conversionRates */\n  0x02\n    /* \"submissions/Zora/Day8TipJar.sol\":1291:1304  _currencyCode */\n  dup5\n    /* \"submissions/Zora/Day8TipJar.sol\":1275:1305  conversionRates[_currencyCode] */\n  mload(0x40)\n  tag_32\n  swap2\n  swap1\n  tag_33\n  jump\t// in\ntag_32:\n  swap1\n  dup2\n  mstore\n  0x20\n  add\n  mload(0x40)\n  dup1\n  swap2\n  sub\n  swap1\n  keccak256\n    /* \"submissions/Zora/Day8TipJar.sol\":1275:1318  conversionRates[_currencyCode] = _rateToEth */\n  dup2\n  swap1\n  sstore\n  pop\n    /* \"submissions/Zora/Day8TipJar.sol\":801:1326  {... */\n  pop\n    /* \"submissions/Zora/Day8TipJar.sol\":714:1326  function addCurrency(string memory _currencyCode, uint256 _rateToEth) public onlyOwner {... */\n  pop\n  pop\n  jump\t// out\n    /* \"#utility.yul\":7:176   */\ntag_34:\n    /* \"#utility.yul\":91:102   */\n  0x00\n    /* \"#utility.yul\":125:131   */\n  dup3\n    /* \"#utility.yul\":120:123   */\n  dup3\n    /* \"#utility.yul\":113:132   */\n  mstore\n    /* \"#utility.yul\":165:169   */\n  0x20\n    /* \"#utility.yul\":160:163   */\n  dup3\n    /* \"#utility.yul\":156:170   */\n  add\n    /* \"#utility.yul\":141:170   */\n  swap1\n  pop\n    /* \"#utility.yul\":7:176   */\n  swap3\n  swap2\n  pop\n  pop\n  jump\t// out\n    /* \"#utility.yul\":182:403   */\ntag_35:\n    /* \"#utility.yul\":322:356   */\n  0x4f6e6c79206f776e65722063616e20706572666f726d20746869732061637469\n    /* \"#utility.yul\":318:319   */\n  0x00\n    /* \"#utility.yul\":310:316   */\n  dup3\n    /* \"#utility.yul\":306:320   */\n  add\n    /* \"#utility.yul\":299:357   */\n  mstore\n    /* \"#utility.yul\":391:395   */\n  0x6f6e000000000000000000000000000000000000000000000000000000000000\n    /* \"#utility.yul\":386:388   */\n  0x20\n    /* \"#utility.yul\":378:384   */\n  dup3\n    /* \"#utility.yul\":374:389   */\n  add\n    /* \"#utility.yul\":367:396   */\n  mstore\n    /* \"#utility.yul\":182:403   */\n  pop\n  jump\t// out\n    /* \"#utility.yul\":409:775   */\ntag_36:\n    /* \"#utility.yul\":551:554   */\n  0x00\n    /* \"#utility.yul\":572:639   */\n  tag_69\n    /* \"#utility.yul\":636:638   */\n  0x22\n    /* \"#utility.yul\":631:634   */\n  dup4\n    /* \"#utility.yul\":572:639   */\n  tag_34\n  jump\t// in\ntag_69:\n    /* \"#utility.yul\":565:639   */\n  swap2\n  pop\n    /* \"#utility.yul\":648:741   */\n  tag_70\n    /* \"#utility.yul\":737:740   */\n  dup3\n    /* \"#utility.yul\":648:741   */\n  tag_35\n  jump\t// in\ntag_70:\n    /* \"#utility.yul\":766:768   */\n  0x40\n    /* \"#utility.yul\":761:764   */\n  dup3\n    /* \"#utility.yul\":757:769   */\n  add\n    /* \"#utility.yul\":750:769   */\n  swap1\n  pop\n    /* \"#utility.yul\":409:775   */\n  swap2\n  swap1\n  pop\n  jump\t// out\n    /* \"#utility.yul\":781:1200   */\ntag_13:\n    /* \"#utility.yul\":947:951   */\n  0x00\n    /* \"#utility.yul\":985:987   */\n  0x20\n    /* \"#utility.yul\":974:983   */\n  dup3\n    /* \"#utility.yul\":970:988   */\n  add\n    /* \"#utility.yul\":962:988   */\n  swap1\n  pop\n    /* \"#utility.yul\":1034:1043   */\n  dup2\n    /* \"#utility.yul\":1028:1032   */\n  dup2\n    /* \"#utility.yul\":1024:1044   */\n  sub\n    /* \"#utility.yul\":1020:1021   */\n  0x00\n    /* \"#utility.yul\":1009:1018   */\n  dup4\n    /* \"#utility.yul\":1005:1022   */\n  add\n    /* \"#utility.yul\":998:1045   */\n  mstore\n    /* \"#utility.yul\":1062:1193   */\n  tag_72\n    /* \"#utility.yul\":1188:1192   */\n  dup2\n    /* \"#utility.yul\":1062:1193   */\n  tag_36\n  jump\t// in\ntag_72:\n    /* \"#utility.yul\":1054:1193   */\n  swap1\n  pop\n    /* \"#utility.yul\":781:1200   */\n  swap2\n  swap1\n  pop\n  jump\t// out\n    /* \"#utility.yul\":1206:1431   */\ntag_37:\n    /* \"#utility.yul\":1346:1380   */\n  0x436f6e76657273696f6e2072617465206d757374206265206772656174657220\n    /* \"#utility.yul\":1342:1343   */\n  0x00\n    /* \"#utility.yul\":1334:1340   */\n  dup3\n    /* \"#utility.yul\":1330:1344   */\n  add\n    /* \"#utility.yul\":1323:1381   */\n  mstore\n    /* \"#utility.yul\":1415:1423   */\n  0x7468616e20300000000000000000000000000000000000000000000000000000\n    /* \"#utility.yul\":1410:1412   */\n  0x20\n    /* \"#utility.yul\":1402:1408   */\n  dup3\n    /* \"#utility.yul\":1398:1413   */\n  add\n    /* \"#utility.yul\":1391:1424   */\n  mstore\n    /* \"#utility.yul\":1206:1431   */\n  pop\n  jump\t// out\n    /* \"#utility.yul\":1437:1803   */\ntag_38:\n    /* \"#utility.yul\":1579:1582   */\n  0x00\n    /* \"#utility.yul\":1600:1667   */\n  tag_75\n    /* \"#utility.yul\":1664:1666   */\n  0x26\n    /* \"#utility.yul\":1659:1662   */\n  dup4\n    /* \"#utility.yul\":1600:1667   */\n  tag_34\n  jump\t// in\ntag_75:\n    /* \"#utility.yul\":1593:1667   */\n  swap2\n  pop\n    /* \"#utility.yul\":1676:1769   */\n  tag_76\n    /* \"#utility.yul\":1765:1768   */\n  dup3\n    /* \"#utility.yul\":1676:1769   */\n  tag_37\n  jump\t// in\ntag_76:\n    /* \"#utility.yul\":1794:1796   */\n  0x40\n    /* \"#utility.yul\":1789:1792   */\n  dup3\n    /* \"#utility.yul\":1785:1797   */\n  add\n    /* \"#utility.yul\":1778:1797   */\n  swap1\n  pop\n    /* \"#utility.yul\":1437:1803   */\n  swap2\n  swap1\n  pop\n  jump\t// out\n    /* \"#utility.yul\":1809:2228   */\ntag_17:\n    /* \"#utility.yul\":1975:1979   */\n  0x00\n    /* \"#utility.yul\":2013:2015   */\n  0x20\n    /* \"#utility.yul\":2002:2011   */\n  dup3\n    /* \"#utility.yul\":1998:2016   */\n  add\n    /* \"#utility.yul\":1990:2016   */\n  swap1\n  pop\n    /* \"#utility.yul\":2062:2071   */\n  dup2\n    /* \"#utility.yul\":2056:2060   */\n  dup2\n    /* \"#utility.yul\":2052:2072   */\n  sub\n    /* \"#utility.yul\":2048:2049   */\n  0x00\n    /* \"#utility.yul\":2037:2046   */\n  dup4\n    /* \"#utility.yul\":2033:2050   */\n  add\n    /* \"#utility.yul\":2026:2073   */\n  mstore\n    /* \"#utility.yul\":2090:2221   */\n  tag_78\n    /* \"#utility.yul\":2216:2220   */\n  dup2\n    /* \"#utility.yul\":2090:2221   */\n  tag_38\n  jump\t// in\ntag_78:\n    /* \"#utility.yul\":2082:2221   */\n  swap1\n  pop\n    /* \"#utility.yul\":1809:2228   */\n  swap2\n  swap1\n  pop\n  jump\t// out\n    /* \"#utility.yul\":2234:2414   */\ntag_23:\n    /* \"#utility.yul\":2282:2359   */\n  0x4e487b7100000000000000000000000000000000000000000000000000000000\n    /* \"#utility.yul\":2279:2280   */\n  0x00\n    /* \"#utility.yul\":2272:2360   */\n  mstore\n    /* \"#utility.yul\":2379:2383   */\n  0x32\n    /* \"#utility.yul\":2376:2377   */\n  0x04\n    /* \"#utility.yul\":2369:2384   */\n  mstore\n    /* \"#utility.yul\":2403:2407   */\n  0x24\n    /* \"#utility.yul\":2400:2401   */\n  0x00\n    /* \"#utility.yul\":2393:2408   */\n  revert\n    /* \"#utility.yul\":2420:2600   */\ntag_39:\n    /* \"#utility.yul\":2468:2545   */\n  0x4e487b7100000000000000000000000000000000000000000000000000000000\n    /* \"#utility.yul\":2465:2466   */\n  0x00\n    /* \"#utility.yul\":2458:2546   */\n  mstore\n    /* \"#utility.yul\":2565:2569   */\n  0x22\n    /* \"#utility.yul\":2562:2563   */\n  0x04\n    /* \"#utility.yul\":2555:2570   */\n  mstore\n    /* \"#utility.yul\":2589:2593   */\n  0x24\n    /* \"#utility.yul\":2586:2587   */\n  0x00\n    /* \"#utility.yul\":2579:2594   */\n  revert\n    /* \"#utility.yul\":2606:2926   */\ntag_40:\n    /* \"#utility.yul\":2650:2656   */\n  0x00\n    /* \"#utility.yul\":2687:2688   */\n  0x02\n    /* \"#utility.yul\":2681:2685   */\n  dup3\n    /* \"#utility.yul\":2677:2689   */\n  div\n    /* \"#utility.yul\":2667:2689   */\n  swap1\n  pop\n    /* \"#utility.yul\":2734:2735   */\n  0x01\n    /* \"#utility.yul\":2728:2732   */\n  dup3\n    /* \"#utility.yul\":2724:2736   */\n  and\n    /* \"#utility.yul\":2755:2773   */\n  dup1\n    /* \"#utility.yul\":2745:2826   */\n  tag_82\n  jumpi\n    /* \"#utility.yul\":2811:2815   */\n  0x7f\n    /* \"#utility.yul\":2803:2809   */\n  dup3\n    /* \"#utility.yul\":2799:2816   */\n  and\n    /* \"#utility.yul\":2789:2816   */\n  swap2\n  pop\n    /* \"#utility.yul\":2745:2826   */\ntag_82:\n    /* \"#utility.yul\":2873:2875   */\n  0x20\n    /* \"#utility.yul\":2865:2871   */\n  dup3\n    /* \"#utility.yul\":2862:2876   */\n  lt\n    /* \"#utility.yul\":2842:2860   */\n  dup2\n    /* \"#utility.yul\":2839:2877   */\n  sub\n    /* \"#utility.yul\":2836:2920   */\n  tag_83\n  jumpi\n    /* \"#utility.yul\":2892:2910   */\n  tag_84\n  tag_39\n  jump\t// in\ntag_84:\n    /* \"#utility.yul\":2836:2920   */\ntag_83:\n    /* \"#utility.yul\":2657:2926   */\n  pop\n    /* \"#utility.yul\":2606:2926   */\n  swap2\n  swap1\n  pop\n  jump\t// out\n    /* \"#utility.yul\":2932:3079   */\ntag_41:\n    /* \"#utility.yul\":3033:3044   */\n  0x00\n    /* \"#utility.yul\":3070:3073   */\n  dup2\n    /* \"#utility.yul\":3055:3073   */\n  swap1\n  pop\n    /* \"#utility.yul\":2932:3079   */\n  swap3\n  swap2\n  pop\n  pop\n  jump\t// out\n    /* \"#utility.yul\":3085:3229   */\ntag_42:\n    /* \"#utility.yul\":3137:3141   */\n  0x00\n    /* \"#utility.yul\":3160:3163   */\n  dup2\n    /* \"#utility.yul\":3152:3163   */\n  swap1\n  pop\n    /* \"#utility.yul\":3183:3186   */\n  dup2\n    /* \"#utility.yul\":3180:3181   */\n  0x00\n    /* \"#utility.yul\":3173:3187   */\n  mstore\n    /* \"#utility.yul\":3217:3221   */\n  0x20\n    /* \"#utility.yul\":3214:3215   */\n  0x00\n    /* \"#utility.yul\":3204:3222   */\n  keccak256\n    /* \"#utility.yul\":3196:3222   */\n  swap1\n  pop\n    /* \"#utility.yul\":3085:3229   */\n  swap2\n  swap1\n  pop\n  jump\t// out\n    /* \"#utility.yul\":3257:4135   */\ntag_43:\n    /* \"#utility.yul\":3362:3365   */\n  0x00\n    /* \"#utility.yul\":3399:3404   */\n  dup2\n    /* \"#utility.yul\":3393:3405   */\n  sload\n    /* \"#utility.yul\":3428:3464   */\n  tag_88\n    /* \"#utility.yul\":3454:3463   */\n  dup2\n    /* \"#utility.yul\":3428:3464   */\n  tag_40\n  jump\t// in\ntag_88:\n    /* \"#utility.yul\":3480:3568   */\n  tag_89\n    /* \"#utility.yul\":3561:3567   */\n  dup2\n    /* \"#utility.yul\":3556:3559   */\n  dup7\n    /* \"#utility.yul\":3480:3568   */\n  tag_41\n  jump\t// in\ntag_89:\n    /* \"#utility.yul\":3473:3568   */\n  swap5\n  pop\n    /* \"#utility.yul\":3599:3600   */\n  0x01\n    /* \"#utility.yul\":3588:3597   */\n  dup3\n    /* \"#utility.yul\":3584:3601   */\n  and\n    /* \"#utility.yul\":3615:3616   */\n  0x00\n    /* \"#utility.yul\":3610:3776   */\n  dup2\n  eq\n  tag_91\n  jumpi\n    /* \"#utility.yul\":3790:3791   */\n  0x01\n    /* \"#utility.yul\":3785:4129   */\n  dup2\n  eq\n  tag_92\n  jumpi\n    /* \"#utility.yul\":3577:4129   */\n  jump(tag_90)\n    /* \"#utility.yul\":3610:3776   */\ntag_91:\n    /* \"#utility.yul\":3694:3698   */\n  0xff\n    /* \"#utility.yul\":3690:3699   */\n  not\n    /* \"#utility.yul\":3679:3688   */\n  dup4\n    /* \"#utility.yul\":3675:3700   */\n  and\n    /* \"#utility.yul\":3670:3673   */\n  dup7\n    /* \"#utility.yul\":3663:3701   */\n  mstore\n    /* \"#utility.yul\":3756:3762   */\n  dup2\n    /* \"#utility.yul\":3749:3763   */\n  iszero\n    /* \"#utility.yul\":3742:3764   */\n  iszero\n    /* \"#utility.yul\":3734:3740   */\n  dup3\n    /* \"#utility.yul\":3730:3765   */\n  mul\n    /* \"#utility.yul\":3725:3728   */\n  dup7\n    /* \"#utility.yul\":3721:3766   */\n  add\n    /* \"#utility.yul\":3714:3766   */\n  swap4\n  pop\n    /* \"#utility.yul\":3610:3776   */\n  jump(tag_90)\n    /* \"#utility.yul\":3785:4129   */\ntag_92:\n    /* \"#utility.yul\":3852:3893   */\n  tag_93\n    /* \"#utility.yul\":3887:3892   */\n  dup6\n    /* \"#utility.yul\":3852:3893   */\n  tag_42\n  jump\t// in\ntag_93:\n    /* \"#utility.yul\":3915:3916   */\n  0x00\n    /* \"#utility.yul\":3929:4083   */\ntag_94:\n    /* \"#utility.yul\":3943:3949   */\n  dup4\n    /* \"#utility.yul\":3940:3941   */\n  dup2\n    /* \"#utility.yul\":3937:3950   */\n  lt\n    /* \"#utility.yul\":3929:4083   */\n  iszero\n  tag_96\n  jumpi\n    /* \"#utility.yul\":4017:4024   */\n  dup2\n    /* \"#utility.yul\":4011:4025   */\n  sload\n    /* \"#utility.yul\":4007:4008   */\n  dup2\n    /* \"#utility.yul\":4002:4005   */\n  dup10\n    /* \"#utility.yul\":3998:4009   */\n  add\n    /* \"#utility.yul\":3991:4026   */\n  mstore\n    /* \"#utility.yul\":4067:4068   */\n  0x01\n    /* \"#utility.yul\":4058:4065   */\n  dup3\n    /* \"#utility.yul\":4054:4069   */\n  add\n    /* \"#utility.yul\":4043:4069   */\n  swap2\n  pop\n    /* \"#utility.yul\":3965:3969   */\n  0x20\n    /* \"#utility.yul\":3962:3963   */\n  dup2\n    /* \"#utility.yul\":3958:3970   */\n  add\n    /* \"#utility.yul\":3953:3970   */\n  swap1\n  pop\n    /* \"#utility.yul\":3929:4083   */\n  jump(tag_94)\ntag_96:\n    /* \"#utility.yul\":4112:4118   */\n  dup4\n    /* \"#utility.yul\":4107:4110   */\n  dup9\n    /* \"#utility.yul\":4103:4119   */\n  add\n    /* \"#utility.yul\":4096:4119   */\n  swap6\n  pop\n    /* \"#utility.yul\":3792:4129   */\n  pop\n  pop\n    /* \"#utility.yul\":3577:4129   */\ntag_90:\n  pop\n    /* \"#utility.yul\":3366:4135   */\n  pop\n  pop\n    /* \"#utility.yul\":3257:4135   */\n  swap3\n  swap2\n  pop\n  pop\n  jump\t// out\n    /* \"#utility.yul\":4141:4414   */\ntag_26:\n    /* \"#utility.yul\":4272:4275   */\n  0x00\n    /* \"#utility.yul\":4294:4388   */\n  tag_98\n    /* \"#utility.yul\":4384:4387   */\n  dup3\n    /* \"#utility.yul\":4375:4381   */\n  dup5\n    /* \"#utility.yul\":4294:4388   */\n  tag_43\n  jump\t// in\ntag_98:\n    /* \"#utility.yul\":4287:4388   */\n  swap2\n  pop\n    /* \"#utility.yul\":4405:4408   */\n  dup2\n    /* \"#utility.yul\":4398:4408   */\n  swap1\n  pop\n    /* \"#utility.yul\":4141:4414   */\n  swap3\n  swap2\n  pop\n  pop\n  jump\t// out\n    /* \"#utility.yul\":4420:4519   */\ntag_44:\n    /* \"#utility.yul\":4472:4478   */\n  0x00\n    /* \"#utility.yul\":4506:4511   */\n  dup2\n    /* \"#utility.yul\":4500:4512   */\n  mload\n    /* \"#utility.yul\":4490:4512   */\n  swap1\n  pop\n    /* \"#utility.yul\":4420:4519   */\n  swap2\n  swap1\n  pop\n  jump\t// out\n    /* \"#utility.yul\":4525:4705   */\ntag_45:\n    /* \"#utility.yul\":4573:4650   */\n  0x4e487b7100000000000000000000000000000000000000000000000000000000\n    /* \"#utility.yul\":4570:4571   */\n  0x00\n    /* \"#utility.yul\":4563:4651   */\n  mstore\n    /* \"#utility.yul\":4670:4674   */\n  0x41\n    /* \"#utility.yul\":4667:4668   */\n  0x04\n    /* \"#utility.yul\":4660:4675   */\n  mstore\n    /* \"#utility.yul\":4694:4698   */\n  0x24\n    /* \"#utility.yul\":4691:4692   */\n  0x00\n    /* \"#utility.yul\":4684:4699   */\n  revert\n    /* \"#utility.yul\":4711:4852   */\ntag_46:\n    /* \"#utility.yul\":4760:4764   */\n  0x00\n    /* \"#utility.yul\":4783:4786   */\n  dup2\n    /* \"#utility.yul\":4775:4786   */\n  swap1\n  pop\n    /* \"#utility.yul\":4806:4809   */\n  dup2\n    /* \"#utility.yul\":4803:4804   */\n  0x00\n    /* \"#utility.yul\":4796:4810   */\n  mstore\n    /* \"#utility.yul\":4840:4844   */\n  0x20\n    /* \"#utility.yul\":4837:4838   */\n  0x00\n    /* \"#utility.yul\":4827:4845   */\n  keccak256\n    /* \"#utility.yul\":4819:4845   */\n  swap1\n  pop\n    /* \"#utility.yul\":4711:4852   */\n  swap2\n  swap1\n  pop\n  jump\t// out\n    /* \"#utility.yul\":4858:4951   */\ntag_47:\n    /* \"#utility.yul\":4895:4901   */\n  0x00\n    /* \"#utility.yul\":4942:4944   */\n  0x20\n    /* \"#utility.yul\":4937:4939   */\n  0x1f\n    /* \"#utility.yul\":4930:4935   */\n  dup4\n    /* \"#utility.yul\":4926:4940   */\n  add\n    /* \"#utility.yul\":4922:4945   */\n  div\n    /* \"#utility.yul\":4912:4945   */\n  swap1\n  pop\n    /* \"#utility.yul\":4858:4951   */\n  swap2\n  swap1\n  pop\n  jump\t// out\n    /* \"#utility.yul\":4957:5064   */\ntag_48:\n    /* \"#utility.yul\":5001:5009   */\n  0x00\n    /* \"#utility.yul\":5051:5056   */\n  dup3\n    /* \"#utility.yul\":5045:5049   */\n  dup3\n    /* \"#utility.yul\":5041:5057   */\n  shl\n    /* \"#utility.yul\":5020:5057   */\n  swap1\n  pop\n    /* \"#utility.yul\":4957:5064   */\n  swap3\n  swap2\n  pop\n  pop\n  jump\t// out\n    /* \"#utility.yul\":5070:5463   */\ntag_49:\n    /* \"#utility.yul\":5139:5145   */\n  0x00\n    /* \"#utility.yul\":5189:5190   */\n  0x08\n    /* \"#utility.yul\":5177:5187   */\n  dup4\n    /* \"#utility.yul\":5173:5191   */\n  mul\n    /* \"#utility.yul\":5212:5309   */\n  tag_105\n    /* \"#utility.yul\":5242:5308   */\n  0xffffffffffffffffffffffffffffffffffffffffffffffffffffffffffffffff\n    /* \"#utility.yul\":5231:5240   */\n  dup3\n    /* \"#utility.yul\":5212:5309   */\n  tag_48\n  jump\t// in\ntag_105:\n    /* \"#utility.yul\":5330:5369   */\n  tag_106\n    /* \"#utility.yul\":5360:5368   */\n  dup7\n    /* \"#utility.yul\":5349:5358   */\n  dup4\n    /* \"#utility.yul\":5330:5369   */\n  tag_48\n  jump\t// in\ntag_106:\n    /* \"#utility.yul\":5318:5369   */\n  swap6\n  pop\n    /* \"#utility.yul\":5402:5406   */\n  dup1\n    /* \"#utility.yul\":5398:5407   */\n  not\n    /* \"#utility.yul\":5391:5396   */\n  dup5\n    /* \"#utility.yul\":5387:5408   */\n  and\n    /* \"#utility.yul\":5378:5408   */\n  swap4\n  pop\n    /* \"#utility.yul\":5451:5455   */\n  dup1\n    /* \"#utility.yul\":5441:5449   */\n  dup7\n    /* \"#utility.yul\":5437:5456   */\n  and\n    /* \"#utility.yul\":5430:5435   */\n  dup5\n    /* \"#utility.yul\":5427:5457   */\n  or\n    /* \"#utility.yul\":5417:5457   */\n  swap3\n  pop\n    /* \"#utility.yul\":5146:5463   */\n  pop\n  pop\n    /* \"#utility.yul\":5070:5463   */\n  swap4\n  swap3\n  pop\n  pop\n  pop\n  jump\t// out\n    /* \"#utility.yul\":5469:5546   */\ntag_50:\n    /* \"#utility.yul\":5506:5513   */\n  0x00\n    /* \"#utility.yul\":5535:5540   */\n  dup2\n    /* \"#utility.yul\":5524:5540   */\n  swap1\n  pop\n    /* \"#utility.yul\":5469:5546   */\n  swap2\n  swap1\n  pop\n  jump\t// out\n    /* \"#utility.yul\":5552:5612   */\ntag_51:\n    /* \"#utility.yul\":5580:5583   */\n  0x00\n    /* \"#utility.yul\":5601:5606   */\n  dup2\n    /* \"#utility.yul\":5594:5606   */\n  swap1\n  pop\n    /* \"#utility.yul\":5552:5612   */\n  swap2\n  swap1\n  pop\n  jump\t// out\n    /* \"#utility.yul\":5618:5760   */\ntag_52:\n    /* \"#utility.yul\":5668:5677   */\n  0x00\n    /* \"#utility.yul\":5701:5754   */\n  tag_110\n    /* \"#utility.yul\":5719:5753   */\n  tag_111\n    /* \"#utility.yul\":5728:5752   */\n  tag_112\n    /* \"#utility.yul\":5746:5751   */\n  dup5\n    /* \"#utility.yul\":5728:5752   */\n  tag_50\n  jump\t// in\ntag_112:\n    /* \"#utility.yul\":5719:5753   */\n  tag_51\n  jump\t// in\ntag_111:\n    /* \"#utility.yul\":5701:5754   */\n  tag_50\n  jump\t// in\ntag_110:\n    /* \"#utility.yul\":5688:5754   */\n  swap1\n  pop\n    /* \"#utility.yul\":5618:5760   */\n  swap2\n  swap1\n  pop\n  jump\t// out\n    /* \"#utility.yul\":5766:5841   */\ntag_53:\n    /* \"#utility.yul\":5809:5812   */\n  0x00\n    /* \"#utility.yul\":5830:5835   */\n  dup2\n    /* \"#utility.yul\":5823:5835   */\n  swap1\n  pop\n    /* \"#utility.yul\":5766:5841   */\n  swap2\n  swap1\n  pop\n  jump\t// out\n    /* \"#utility.yul\":5847:6116   */\ntag_54:\n    /* \"#utility.yul\":5957:5996   */\n  tag_115\n    /* \"#utility.yul\":5988:5995   */\n  dup4\n    /* \"#utility.yul\":5957:5996   */\n  tag_52\n  jump\t// in\ntag_115:\n    /* \"#utility.yul\":6018:6109   */\n  tag_116\n    /* \"#utility.yul\":6067:6108   */\n  tag_117\n    /* \"#utility.yul\":6091:6107   */\n  dup3\n    /* \"#utility.yul\":6067:6108   */\n  tag_53\n  jump\t// in\ntag_117:\n    /* \"#utility.yul\":6059:6065   */\n  dup5\n    /* \"#utility.yul\":6052:6056   */\n  dup5\n    /* \"#utility.yul\":6046:6057   */\n  sload\n    /* \"#utility.yul\":6018:6109   */\n  tag_49\n  jump\t// in\ntag_116:\n    /* \"#utility.yul\":6012:6016   */\n  dup3\n    /* \"#utility.yul\":6005:6110   */\n  sstore\n    /* \"#utility.yul\":5923:6116   */\n  pop\n    /* \"#utility.yul\":5847:6116   */\n  pop\n  pop\n  pop\n  jump\t// out\n    /* \"#utility.yul\":6122:6195   */\ntag_55:\n    /* \"#utility.yul\":6167:6170   */\n  0x00\n    /* \"#utility.yul\":6188:6189   */\n  0x00\n    /* \"#utility.yul\":6181:6189   */\n  swap1\n  pop\n    /* \"#utility.yul\":6122:6195   */\n  swap1\n  jump\t// out\n    /* \"#utility.yul\":6201:6390   */\ntag_56:\n    /* \"#utility.yul\":6278:6310   */\n  tag_120\n  tag_55\n  jump\t// in\ntag_120:\n    /* \"#utility.yul\":6319:6384   */\n  tag_121\n    /* \"#utility.yul\":6377:6383   */\n  dup2\n    /* \"#utility.yul\":6369:6375   */\n  dup5\n    /* \"#utility.yul\":6363:6367   */\n  dup5\n    /* \"#utility.yul\":6319:6384   */\n  tag_54\n  jump\t// in\ntag_121:\n    /* \"#utility.yul\":6254:6390   */\n  pop\n    /* \"#utility.yul\":6201:6390   */\n  pop\n  pop\n  jump\t// out\n    /* \"#utility.yul\":6396:6582   */\ntag_57:\n    /* \"#utility.yul\":6456:6576   */\ntag_123:\n    /* \"#utility.yul\":6473:6476   */\n  dup2\n    /* \"#utility.yul\":6466:6471   */\n  dup2\n    /* \"#utility.yul\":6463:6477   */\n  lt\n    /* \"#utility.yul\":6456:6576   */\n  iszero\n  tag_125\n  jumpi\n    /* \"#utility.yul\":6527:6566   */\n  tag_126\n    /* \"#utility.yul\":6564:6565   */\n  0x00\n    /* \"#utility.yul\":6557:6562   */\n  dup3\n    /* \"#utility.yul\":6527:6566   */\n  tag_56\n  jump\t// in\ntag_126:\n    /* \"#utility.yul\":6500:6501   */\n  0x01\n    /* \"#utility.yul\":6493:6498   */\n  dup2\n    /* \"#utility.yul\":6489:6502   */\n  add\n    /* \"#utility.yul\":6480:6502   */\n  swap1\n  pop\n    /* \"#utility.yul\":6456:6576   */\n  jump(tag_123)\ntag_125:\n    /* \"#utility.yul\":6396:6582   */\n  pop\n  pop\n  jump\t// out\n    /* \"#utility.yul\":6588:7131   */\ntag_58:\n    /* \"#utility.yul\":6689:6691   */\n  0x1f\n    /* \"#utility.yul\":6684:6687   */\n  dup3\n    /* \"#utility.yul\":6681:6692   */\n  gt\n    /* \"#utility.yul\":6678:7124   */\n  iszero\n  tag_128\n  jumpi\n    /* \"#utility.yul\":6723:6761   */\n  tag_129\n    /* \"#utility.yul\":6755:6760   */\n  dup2\n    /* \"#utility.yul\":6723:6761   */\n  tag_46\n  jump\t// in\ntag_129:\n    /* \"#utility.yul\":6807:6836   */\n  tag_130\n    /* \"#utility.yul\":6825:6835   */\n  dup5\n    /* \"#utility.yul\":6807:6836   */\n  tag_47\n  jump\t// in\ntag_130:\n    /* \"#utility.yul\":6797:6805   */\n  dup2\n    /* \"#utility.yul\":6793:6837   */\n  add\n    /* \"#utility.yul\":6990:6992   */\n  0x20\n    /* \"#utility.yul\":6978:6988   */\n  dup6\n    /* \"#utility.yul\":6975:6993   */\n  lt\n    /* \"#utility.yul\":6972:7021   */\n  iszero\n  tag_131\n  jumpi\n    /* \"#utility.yul\":7011:7019   */\n  dup2\n    /* \"#utility.yul\":6996:7019   */\n  swap1\n  pop\n    /* \"#utility.yul\":6972:7021   */\ntag_131:\n    /* \"#utility.yul\":7034:7114   */\n  tag_132\n    /* \"#utility.yul\":7090:7112   */\n  tag_133\n    /* \"#utility.yul\":7108:7111   */\n  dup6\n    /* \"#utility.yul\":7090:7112   */\n  tag_47\n  jump\t// in\ntag_133:\n    /* \"#utility.yul\":7080:7088   */\n  dup4\n    /* \"#utility.yul\":7076:7113   */\n  add\n    /* \"#utility.yul\":7063:7074   */\n  dup3\n    /* \"#utility.yul\":7034:7114   */\n  tag_57\n  jump\t// in\ntag_132:\n    /* \"#utility.yul\":6693:7124   */\n  pop\n  pop\n    /* \"#utility.yul\":6678:7124   */\ntag_128:\n    /* \"#utility.yul\":6588:7131   */\n  pop\n  pop\n  pop\n  jump\t// out\n    /* \"#utility.yul\":7137:7254   */\ntag_59:\n    /* \"#utility.yul\":7191:7199   */\n  0x00\n    /* \"#utility.yul\":7241:7246   */\n  dup3\n    /* \"#utility.yul\":7235:7239   */\n  dup3\n    /* \"#utility.yul\":7231:7247   */\n  shr\n    /* \"#utility.yul\":7210:7247   */\n  swap1\n  pop\n    /* \"#utility.yul\":7137:7254   */\n  swap3\n  swap2\n  pop\n  pop\n  jump\t// out\n    /* \"#utility.yul\":7260:7429   */\ntag_60:\n    /* \"#utility.yul\":7304:7310   */\n  0x00\n    /* \"#utility.yul\":7337:7388   */\n  tag_136\n    /* \"#utility.yul\":7385:7386   */\n  0x00\n    /* \"#utility.yul\":7381:7387   */\n  not\n    /* \"#utility.yul\":7373:7378   */\n  dup5\n    /* \"#utility.yul\":7370:7371   */\n  0x08\n    /* \"#utility.yul\":7366:7379   */\n  mul\n    /* \"#utility.yul\":7337:7388   */\n  tag_59\n  jump\t// in\ntag_136:\n    /* \"#utility.yul\":7333:7389   */\n  not\n    /* \"#utility.yul\":7418:7422   */\n  dup1\n    /* \"#utility.yul\":7412:7416   */\n  dup4\n    /* \"#utility.yul\":7408:7423   */\n  and\n    /* \"#utility.yul\":7398:7423   */\n  swap2\n  pop\n    /* \"#utility.yul\":7311:7429   */\n  pop\n    /* \"#utility.yul\":7260:7429   */\n  swap3\n  swap2\n  pop\n  pop\n  jump\t// out\n    /* \"#utility.yul\":7434:7729   */\ntag_61:\n    /* \"#utility.yul\":7510:7514   */\n  0x00\n    /* \"#utility.yul\":7656:7685   */\n  tag_138\n    /* \"#utility.yul\":7681:7684   */\n  dup4\n    /* \"#utility.yul\":7675:7679   */\n  dup4\n    /* \"#utility.yul\":7656:7685   */\n  tag_60\n  jump\t// in\ntag_138:\n    /* \"#utility.yul\":7648:7685   */\n  swap2\n  pop\n    /* \"#utility.yul\":7718:7721   */\n  dup3\n    /* \"#utility.yul\":7715:7716   */\n  0x02\n    /* \"#utility.yul\":7711:7722   */\n  mul\n    /* \"#utility.yul\":7705:7709   */\n  dup3\n    /* \"#utility.yul\":7702:7723   */\n  or\n    /* \"#utility.yul\":7694:7723   */\n  swap1\n  pop\n    /* \"#utility.yul\":7434:7729   */\n  swap3\n  swap2\n  pop\n  pop\n  jump\t// out\n    /* \"#utility.yul\":7734:9129   */\ntag_31:\n    /* \"#utility.yul\":7851:7888   */\n  tag_140\n    /* \"#utility.yul\":7884:7887   */\n  dup3\n    /* \"#utility.yul\":7851:7888   */\n  tag_44\n  jump\t// in\ntag_140:\n    /* \"#utility.yul\":7953:7971   */\n  0xffffffffffffffff\n    /* \"#utility.yul\":7945:7951   */\n  dup2\n    /* \"#utility.yul\":7942:7972   */\n  gt\n    /* \"#utility.yul\":7939:7995   */\n  iszero\n  tag_141\n  jumpi\n    /* \"#utility.yul\":7975:7993   */\n  tag_142\n  tag_45\n  jump\t// in\ntag_142:\n    /* \"#utility.yul\":7939:7995   */\ntag_141:\n    /* \"#utility.yul\":8019:8057   */\n  tag_143\n    /* \"#utility.yul\":8051:8055   */\n  dup3\n    /* \"#utility.yul\":8045:8056   */\n  sload\n    /* \"#utility.yul\":8019:8057   */\n  tag_40\n  jump\t// in\ntag_143:\n    /* \"#utility.yul\":8104:8171   */\n  tag_144\n    /* \"#utility.yul\":8164:8170   */\n  dup3\n    /* \"#utility.yul\":8156:8162   */\n  dup3\n    /* \"#utility.yul\":8150:8154   */\n  dup6\n    /* \"#utility.yul\":8104:8171   */\n  tag_58\n  jump\t// in\ntag_144:\n    /* \"#utility.yul\":8198:8199   */\n  0x00\n    /* \"#utility.yul\":8222:8226   */\n  0x20\n    /* \"#utility.yul\":8209:8226   */\n  swap1\n  pop\n    /* \"#utility.yul\":8254:8256   */\n  0x1f\n    /* \"#utility.yul\":8246:8252   */\n  dup4\n    /* \"#utility.yul\":8243:8257   */\n  gt\n    /* \"#utility.yul\":8271:8272   */\n  0x01\n    /* \"#utility.yul\":8266:8884   */\n  dup2\n  eq\n  tag_146\n  jumpi\n    /* \"#utility.yul\":8928:8929   */\n  0x00\n    /* \"#utility.yul\":8945:8951   */\n  dup5\n    /* \"#utility.yul\":8942:9019   */\n  iszero\n  tag_147\n  jumpi\n    /* \"#utility.yul\":8994:9003   */\n  dup3\n    /* \"#utility.yul\":8989:8992   */\n  dup8\n    /* \"#utility.yul\":8985:9004   */\n  add\n    /* \"#utility.yul\":8979:9005   */\n  mload\n    /* \"#utility.yul\":8970:9005   */\n  swap1\n  pop\n    /* \"#utility.yul\":8942:9019   */\ntag_147:\n    /* \"#utility.yul\":9045:9112   */\n  tag_148\n    /* \"#utility.yul\":9105:9111   */\n  dup6\n    /* \"#utility.yul\":9098:9103   */\n  dup3\n    /* \"#utility.yul\":9045:9112   */\n  tag_61\n  jump\t// in\ntag_148:\n    /* \"#utility.yul\":9039:9043   */\n  dup7\n    /* \"#utility.yul\":9032:9113   */\n  sstore\n    /* \"#utility.yul\":8901:9123   */\n  pop\n    /* \"#utility.yul\":8236:9123   */\n  jump(tag_145)\n    /* \"#utility.yul\":8266:8884   */\ntag_146:\n    /* \"#utility.yul\":8318:8322   */\n  0x1f\n    /* \"#utility.yul\":8314:8323   */\n  not\n    /* \"#utility.yul\":8306:8312   */\n  dup5\n    /* \"#utility.yul\":8302:8324   */\n  and\n    /* \"#utility.yul\":8352:8389   */\n  tag_149\n    /* \"#utility.yul\":8384:8388   */\n  dup7\n    /* \"#utility.yul\":8352:8389   */\n  tag_46\n  jump\t// in\ntag_149:\n    /* \"#utility.yul\":8411:8412   */\n  0x00\n    /* \"#utility.yul\":8425:8633   */\ntag_150:\n    /* \"#utility.yul\":8439:8446   */\n  dup3\n    /* \"#utility.yul\":8436:8437   */\n  dup2\n    /* \"#utility.yul\":8433:8447   */\n  lt\n    /* \"#utility.yul\":8425:8633   */\n  iszero\n  tag_152\n  jumpi\n    /* \"#utility.yul\":8518:8527   */\n  dup5\n    /* \"#utility.yul\":8513:8516   */\n  dup10\n    /* \"#utility.yul\":8509:8528   */\n  add\n    /* \"#utility.yul\":8503:8529   */\n  mload\n    /* \"#utility.yul\":8495:8501   */\n  dup3\n    /* \"#utility.yul\":8488:8530   */\n  sstore\n    /* \"#utility.yul\":8569:8570   */\n  0x01\n    /* \"#utility.yul\":8561:8567   */\n  dup3\n    /* \"#utility.yul\":8557:8571   */\n  add\n    /* \"#utility.yul\":8547:8571   */\n  swap2\n  pop\n    /* \"#utility.yul\":8616:8618   */\n  0x20\n    /* \"#utility.yul\":8605:8614   */\n  dup6\n    /* \"#utility.yul\":8601:8619   */\n  add\n    /* \"#utility.yul\":8588:8619   */\n  swap5\n  pop\n    /* \"#utility.yul\":8462:8466   */\n  0x20\n    /* \"#utility.yul\":8459:8460   */\n  dup2\n    /* \"#utility.yul\":8455:8467   */\n  add\n    /* \"#utility.yul\":8450:8467   */\n  swap1\n  pop\n    /* \"#utility.yul\":8425:8633   */\n  jump(tag_150)\ntag_152:\n    /* \"#utility.yul\":8661:8667   */\n  dup7\n    /* \"#utility.yul\":8652:8659   */\n  dup4\n    /* \"#utility.yul\":8649:8668   */\n  lt\n    /* \"#utility.yul\":8646:8825   */\n  iszero\n  tag_153\n  jumpi\n    /* \"#utility.yul\":8719:8728   */\n  dup5\n    /* \"#utility.yul\":8714:8717   */\n  dup10\n    /* \"#utility.yul\":8710:8729   */\n  add\n    /* \"#utility.yul\":8704:8730   */\n  mload\n    /* \"#utility.yul\":8762:8810   */\n  tag_154\n    /* \"#utility.yul\":8804:8808   */\n  0x1f\n    /* \"#utility.yul\":8796:8802   */\n  dup10\n    /* \"#utility.yul\":8792:8809   */\n  and\n    /* \"#utility.yul\":8781:8790   */\n  dup3\n    /* \"#utility.yul\":8762:8810   */\n  tag_60\n  jump\t// in\ntag_154:\n    /* \"#utility.yul\":8754:8760   */\n  dup4\n    /* \"#utility.yul\":8747:8811   */\n  sstore\n    /* \"#utility.yul\":8669:8825   */\n  pop\n    /* \"#utility.yul\":8646:8825   */\ntag_153:\n    /* \"#utility.yul\":8871:8872   */\n  0x01\n    /* \"#utility.yul\":8867:8868   */\n  0x02\n    /* \"#utility.yul\":8859:8865   */\n  dup9\n    /* \"#utility.yul\":8855:8869   */\n  mul\n    /* \"#utility.yul\":8851:8873   */\n  add\n    /* \"#utility.yul\":8845:8849   */\n  dup9\n    /* \"#utility.yul\":8838:8874   */\n  sstore\n    /* \"#utility.yul\":8273:8884   */\n  pop\n  pop\n  pop\n    /* \"#utility.yul\":8236:9123   */\ntag_145:\n  pop\n    /* \"#utility.yul\":7826:9129   */\n  pop\n  pop\n  pop\n    /* \"#utility.yul\":7734:9129   */\n  pop\n  pop\n  jump\t// out\n    /* \"#utility.yul\":9135:9283   */\ntag_62:\n    /* \"#utility.yul\":9237:9248   */\n  0x00\n    /* \"#utility.yul\":9274:9277   */\n  dup2\n    /* \"#utility.yul\":9259:9277   */\n  swap1\n  pop\n    /* \"#utility.yul\":9135:9283   */\n  swap3\n  swap2\n  pop\n  pop\n  jump\t// out\n    /* \"#utility.yul\":9289:9428   */\ntag_63:\n    /* \"#utility.yul\":9378:9384   */\n  dup3\n    /* \"#utility.yul\":9373:9376   */\n  dup2\n    /* \"#utility.yul\":9368:9371   */\n  dup4\n    /* \"#utility.yul\":9362:9385   */\n  mcopy\n    /* \"#utility.yul\":9419:9420   */\n  0x00\n    /* \"#utility.yul\":9410:9416   */\n  dup4\n    /* \"#utility.yul\":9405:9408   */\n  dup4\n    /* \"#utility.yul\":9401:9417   */\n  add\n    /* \"#utility.yul\":9394:9421   */\n  mstore\n    /* \"#utility.yul\":9289:9428   */\n  pop\n  pop\n  pop\n  jump\t// out\n    /* \"#utility.yul\":9434:9824   */\ntag_64:\n    /* \"#utility.yul\":9540:9543   */\n  0x00\n    /* \"#utility.yul\":9568:9607   */\n  tag_158\n    /* \"#utility.yul\":9601:9606   */\n  dup3\n    /* \"#utility.yul\":9568:9607   */\n  tag_44\n  jump\t// in\ntag_158:\n    /* \"#utility.yul\":9623:9712   */\n  tag_159\n    /* \"#utility.yul\":9705:9711   */\n  dup2\n    /* \"#utility.yul\":9700:9703   */\n  dup6\n    /* \"#utility.yul\":9623:9712   */\n  tag_62\n  jump\t// in\ntag_159:\n    /* \"#utility.yul\":9616:9712   */\n  swap4\n  pop\n    /* \"#utility.yul\":9721:9786   */\n  tag_160\n    /* \"#utility.yul\":9779:9785   */\n  dup2\n    /* \"#utility.yul\":9774:9777   */\n  dup6\n    /* \"#utility.yul\":9767:9771   */\n  0x20\n    /* \"#utility.yul\":9760:9765   */\n  dup7\n    /* \"#utility.yul\":9756:9772   */\n  add\n    /* \"#utility.yul\":9721:9786   */\n  tag_63\n  jump\t// in\ntag_160:\n    /* \"#utility.yul\":9811:9817   */\n  dup1\n    /* \"#utility.yul\":9806:9809   */\n  dup5\n    /* \"#utility.yul\":9802:9818   */\n  add\n    /* \"#utility.yul\":9795:9818   */\n  swap2\n  pop\n    /* \"#utility.yul\":9544:9824   */\n  pop\n    /* \"#utility.yul\":9434:9824   */\n  swap3\n  swap2\n  pop\n  pop\n  jump\t// out\n    /* \"#utility.yul\":9830:10105   */\ntag_33:\n    /* \"#utility.yul\":9962:9965   */\n  0x00\n    /* \"#utility.yul\":9984:10079   */\n  tag_162\n    /* \"#utility.yul\":10075:10078   */\n  dup3\n    /* \"#utility.yul\":10066:10072   */\n  dup5\n    /* \"#utility.yul\":9984:10079   */\n  tag_64\n  jump\t// in\ntag_162:\n    /* \"#utility.yul\":9977:10079   */\n  swap2\n  pop\n    /* \"#utility.yul\":10096:10099   */\n  dup2\n    /* \"#utility.yul\":10089:10099   */\n  swap1\n  pop\n    /* \"#utility.yul\":9830:10105   */\n  swap3\n  swap2\n  pop\n  pop\n  jump\t// out\n    /* \"submissions/Zora/Day8TipJar.sol\":60:3672  contract TipJar {... */\ntag_9:\n  dataSize(sub_0)\n  dup1\n  dataOffset(sub_0)\n  0x00\n  codecopy\n  0x00\n  return\nstop\n\nsub_0: assembly {\n        /* \"submissions/Zora/Day8TipJar.sol\":60:3672  contract TipJar {... */\n      mstore(0x40, 0x80)\n      jumpi(tag_1, lt(calldatasize, 0x04))\n      shr(0xe0, calldataload(0x00))\n      dup1\n      0x5c49c825\n      gt\n      tag_19\n      jumpi\n      dup1\n      0x97bf7935\n      gt\n      tag_20\n      jumpi\n      dup1\n      0x97bf7935\n      eq\n      tag_14\n      jumpi\n      dup1\n      0x9c88e42d\n      eq\n      tag_15\n      jumpi\n      dup1\n      0xb8443702\n      eq\n      tag_16\n      jumpi\n      dup1\n      0xefe8c084\n      eq\n      tag_17\n      jumpi\n      dup1\n      0xf2fde38b\n      eq\n      tag_18\n      jumpi\n      jump(tag_1)\n    tag_20:\n      dup1\n      0x5c49c825\n      eq\n      tag_10\n      jumpi\n      dup1\n      0x6de0938b\n      eq\n      tag_11\n      jumpi\n      dup1\n      0x6f9fb98a\n      eq\n      tag_12\n      jumpi\n      dup1\n      0x8da5cb5b\n      eq\n      tag_13\n      jumpi\n      jump(tag_1)\n    tag_19:\n      dup1\n      0x223506a7\n      gt\n      tag_21\n      jumpi\n      dup1\n      0x223506a7\n      eq\n      tag_6\n      jumpi\n      dup1\n      0x2ce75863\n      eq\n      tag_7\n      jumpi\n      dup1\n      0x3aaa74b2\n      eq\n      tag_8\n      jumpi\n      dup1\n      0x5c41fece\n      eq\n      tag_9\n      jumpi\n      jump(tag_1)\n    tag_21:\n      dup1\n      0x0a0e5da9\n      eq\n      tag_2\n      jumpi\n      dup1\n      0x0a8dc500\n      eq\n      tag_3\n      jumpi\n      dup1\n      0x0d9ba15f\n      eq\n      tag_4\n      jumpi\n      dup1\n      0x1fac531b\n      eq\n      tag_5\n      jumpi\n    tag_1:\n      revert(0x00, 0x00)\n        /* \"submissions/Zora/Day8TipJar.sol\":211:258  mapping(address => uint256) public tipPerPerson */\n    tag_2:\n      callvalue\n      dup1\n      iszero\n      tag_22\n      jumpi\n      revert(0x00, 0x00)\n    tag_22:\n      pop\n      tag_23\n      0x04\n      dup1\n      calldatasize\n      sub\n      dup2\n      add\n      swap1\n      tag_24\n      swap2\n      swap1\n      tag_25\n      jump\t// in\n    tag_24:\n      tag_26\n      jump\t// in\n    tag_23:\n      mload(0x40)\n      tag_27\n      swap2\n      swap1\n      tag_28\n      jump\t// in\n    tag_27:\n      mload(0x40)\n      dup1\n      swap2\n      sub\n      swap1\n      return\n        /* \"submissions/Zora/Day8TipJar.sol\":3297:3439  function getTipsInCurrency(string memory _currencyCode) public view returns (uint256) {... */\n    tag_3:\n      callvalue\n      dup1\n      iszero\n      tag_29\n      jumpi\n      revert(0x00, 0x00)\n    tag_29:\n      pop\n      tag_30\n      0x04\n      dup1\n      calldatasize\n      sub\n      dup2\n      add\n      swap1\n      tag_31\n      swap2\n      swap1\n      tag_32\n      jump\t// in\n    tag_31:\n      tag_33\n      jump\t// in\n    tag_30:\n      mload(0x40)\n      tag_34\n      swap2\n      swap1\n      tag_28\n      jump\t// in\n    tag_34:\n      mload(0x40)\n      dup1\n      swap2\n      sub\n      swap1\n      return\n        /* \"submissions/Zora/Day8TipJar.sol\":307:356  mapping(string => uint256) public tipsPerCurrency */\n    tag_4:\n      callvalue\n      dup1\n      iszero\n      tag_35\n      jumpi\n      revert(0x00, 0x00)\n    tag_35:\n      pop\n      tag_36\n      0x04\n      dup1\n      calldatasize\n      sub\n      dup2\n      add\n      swap1\n      tag_37\n      swap2\n      swap1\n      tag_32\n      jump\t// in\n    tag_37:\n      tag_38\n      jump\t// in\n    tag_36:\n      mload(0x40)\n      tag_39\n      swap2\n      swap1\n      tag_28\n      jump\t// in\n    tag_39:\n      mload(0x40)\n      dup1\n      swap2\n      sub\n      swap1\n      return\n        /* \"submissions/Zora/Day8TipJar.sol\":3447:3669  function getConversionRate(string memory _currencyCode) public view returns (uint256) {... */\n    tag_5:\n      callvalue\n      dup1\n      iszero\n      tag_40\n      jumpi\n      revert(0x00, 0x00)\n    tag_40:\n      pop\n      tag_41\n      0x04\n      dup1\n      calldatasize\n      sub\n      dup2\n      add\n      swap1\n      tag_42\n      swap2\n      swap1\n      tag_32\n      jump\t// in\n    tag_42:\n      tag_43\n      jump\t// in\n    tag_41:\n      mload(0x40)\n      tag_44\n      swap2\n      swap1\n      tag_28\n      jump\t// in\n    tag_44:\n      mload(0x40)\n      dup1\n      swap2\n      sub\n      swap1\n      return\n        /* \"submissions/Zora/Day8TipJar.sol\":3164:3289  function getTipperContribution(address _tipper) public view returns (uint256) {... */\n    tag_6:\n      callvalue\n      dup1\n      iszero\n      tag_45\n      jumpi\n      revert(0x00, 0x00)\n    tag_45:\n      pop\n      tag_46\n      0x04\n      dup1\n      calldatasize\n      sub\n      dup2\n      add\n      swap1\n      tag_47\n      swap2\n      swap1\n      tag_25\n      jump\t// in\n    tag_47:\n      tag_48\n      jump\t// in\n    tag_46:\n      mload(0x40)\n      tag_49\n      swap2\n      swap1\n      tag_28\n      jump\t// in\n    tag_49:\n      mload(0x40)\n      dup1\n      swap2\n      sub\n      swap1\n      return\n        /* \"submissions/Zora/Day8TipJar.sol\":2924:3041  function getSupportedCurrencies() public view returns (string[] memory) {... */\n    tag_7:\n      callvalue\n      dup1\n      iszero\n      tag_50\n      jumpi\n      revert(0x00, 0x00)\n    tag_50:\n      pop\n      tag_51\n      tag_52\n      jump\t// in\n    tag_51:\n      mload(0x40)\n      tag_53\n      swap2\n      swap1\n      tag_54\n      jump\t// in\n    tag_53:\n      mload(0x40)\n      dup1\n      swap2\n      sub\n      swap1\n      return\n        /* \"submissions/Zora/Day8TipJar.sol\":2423:2747  function withdrawTips() public onlyOwner {... */\n    tag_8:\n      callvalue\n      dup1\n      iszero\n      tag_55\n      jumpi\n      revert(0x00, 0x00)\n    tag_55:\n      pop\n      tag_56\n      tag_57\n      jump\t// in\n    tag_56:\n      stop\n        /* \"submissions/Zora/Day8TipJar.sol\":153:202  mapping(string => uint256) public conversionRates */\n    tag_9:\n      callvalue\n      dup1\n      iszero\n      tag_58\n      jumpi\n      revert(0x00, 0x00)\n    tag_58:\n      pop\n      tag_59\n      0x04\n      dup1\n      calldatasize\n      sub\n      dup2\n      add\n      swap1\n      tag_60\n      swap2\n      swap1\n      tag_32\n      jump\t// in\n    tag_60:\n      tag_61\n      jump\t// in\n    tag_59:\n      mload(0x40)\n      tag_62\n      swap2\n      swap1\n      tag_28\n      jump\t// in\n    tag_62:\n      mload(0x40)\n      dup1\n      swap2\n      sub\n      swap1\n      return\n        /* \"submissions/Zora/Day8TipJar.sol\":714:1326  function addCurrency(string memory _currencyCode, uint256 _rateToEth) public onlyOwner {... */\n    tag_10:\n      callvalue\n      dup1\n      iszero\n      tag_63\n      jumpi\n      revert(0x00, 0x00)\n    tag_63:\n      pop\n      tag_64\n      0x04\n      dup1\n      calldatasize\n      sub\n      dup2\n      add\n      swap1\n      tag_65\n      swap2\n      swap1\n      tag_66\n      jump\t// in\n    tag_65:\n      tag_67\n      jump\t// in\n    tag_64:\n      stop\n        /* \"submissions/Zora/Day8TipJar.sol\":1334:1618  function convertToEth(string memory _currencyCode, uint256 _amount) public view returns (uint256) {... */\n    tag_11:\n      callvalue\n      dup1\n      iszero\n      tag_68\n      jumpi\n      revert(0x00, 0x00)\n    tag_68:\n      pop\n      tag_69\n      0x04\n      dup1\n      calldatasize\n      sub\n      dup2\n      add\n      swap1\n      tag_70\n      swap2\n      swap1\n      tag_66\n      jump\t// in\n    tag_70:\n      tag_71\n      jump\t// in\n    tag_69:\n      mload(0x40)\n      tag_72\n      swap2\n      swap1\n      tag_28\n      jump\t// in\n    tag_72:\n      mload(0x40)\n      dup1\n      swap2\n      sub\n      swap1\n      return\n        /* \"submissions/Zora/Day8TipJar.sol\":3049:3156  function getContractBalance() public view returns (uint256) {... */\n    tag_12:\n      callvalue\n      dup1\n      iszero\n      tag_73\n      jumpi\n      revert(0x00, 0x00)\n    tag_73:\n      pop\n      tag_74\n      tag_75\n      jump\t// in\n    tag_74:\n      mload(0x40)\n      tag_76\n      swap2\n      swap1\n      tag_28\n      jump\t// in\n    tag_76:\n      mload(0x40)\n      dup1\n      swap2\n      sub\n      swap1\n      return\n        /* \"submissions/Zora/Day8TipJar.sol\":83:103  address public owner */\n    tag_13:\n      callvalue\n      dup1\n      iszero\n      tag_77\n      jumpi\n      revert(0x00, 0x00)\n    tag_77:\n      pop\n      tag_78\n      tag_79\n      jump\t// in\n    tag_78:\n      mload(0x40)\n      tag_80\n      swap2\n      swap1\n      tag_81\n      jump\t// in\n    tag_80:\n      mload(0x40)\n      dup1\n      swap2\n      sub\n      swap1\n      return\n        /* \"submissions/Zora/Day8TipJar.sol\":265:300  string[] public supportedCurrencies */\n    tag_14:\n      callvalue\n      dup1\n      iszero\n      tag_82\n      jumpi\n      revert(0x00, 0x00)\n    tag_82:\n      pop\n      tag_83\n      0x04\n      dup1\n      calldatasize\n      sub\n      dup2\n      add\n      swap1\n      tag_84\n      swap2\n      swap1\n      tag_85\n      jump\t// in\n    tag_84:\n      tag_86\n      jump\t// in\n    tag_83:\n      mload(0x40)\n      tag_87\n      swap2\n      swap1\n      tag_88\n      jump\t// in\n    tag_87:\n      mload(0x40)\n      dup1\n      swap2\n      sub\n      swap1\n      return\n        /* \"submissions/Zora/Day8TipJar.sol\":1882:2415  function tipInCurrency(string memory _currencyCode, uint256 _amount) public payable {... */\n    tag_15:\n      tag_89\n      0x04\n      dup1\n      calldatasize\n      sub\n      dup2\n      add\n      swap1\n      tag_90\n      swap2\n      swap1\n      tag_66\n      jump\t// in\n    tag_90:\n      tag_91\n      jump\t// in\n    tag_89:\n      stop\n        /* \"submissions/Zora/Day8TipJar.sol\":1626:1874  function tipInEth() public payable {... */\n    tag_16:\n      tag_92\n      tag_93\n      jump\t// in\n    tag_92:\n      stop\n        /* \"submissions/Zora/Day8TipJar.sol\":112:144  uint256 public totalTipsReceived */\n    tag_17:\n      callvalue\n      dup1\n      iszero\n      tag_94\n      jumpi\n      revert(0x00, 0x00)\n    tag_94:\n      pop\n      tag_95\n      tag_96\n      jump\t// in\n    tag_95:\n      mload(0x40)\n      tag_97\n      swap2\n      swap1\n      tag_28\n      jump\t// in\n    tag_97:\n      mload(0x40)\n      dup1\n      swap2\n      sub\n      swap1\n      return\n        /* \"submissions/Zora/Day8TipJar.sol\":2755:2916  function transferOwnership(address _newOwner) public onlyOwner {... */\n    tag_18:\n      callvalue\n      dup1\n      iszero\n      tag_98\n      jumpi\n      revert(0x00, 0x00)\n    tag_98:\n      pop\n      tag_99\n      0x04\n      dup1\n      calldatasize\n      sub\n      dup2\n      add\n      swap1\n      tag_100\n      swap2\n      swap1\n      tag_25\n      jump\t// in\n    tag_100:\n      tag_101\n      jump\t// in\n    tag_99:\n      stop\n        /* \"submissions/Zora/Day8TipJar.sol\":211:258  mapping(address => uint256) public tipPerPerson */\n    tag_26:\n      mstore(0x20, 0x03)\n      dup1\n      0x00\n      mstore\n      keccak256(0x00, 0x40)\n      0x00\n      swap2\n      pop\n      swap1\n      pop\n      sload\n      dup2\n      jump\t// out\n        /* \"submissions/Zora/Day8TipJar.sol\":3297:3439  function getTipsInCurrency(string memory _currencyCode) public view returns (uint256) {... */\n    tag_33:\n        /* \"submissions/Zora/Day8TipJar.sol\":3374:3381  uint256 */\n      0x00\n        /* \"submissions/Zora/Day8TipJar.sol\":3401:3416  tipsPerCurrency */\n      0x05\n        /* \"submissions/Zora/Day8TipJar.sol\":3417:3430  _currencyCode */\n      dup3\n        /* \"submissions/Zora/Day8TipJar.sol\":3401:3431  tipsPerCurrency[_currencyCode] */\n      mload(0x40)\n      tag_103\n      swap2\n      swap1\n      tag_104\n      jump\t// in\n    tag_103:\n      swap1\n      dup2\n      mstore\n      0x20\n      add\n      mload(0x40)\n      dup1\n      swap2\n      sub\n      swap1\n      keccak256\n      sload\n        /* \"submissions/Zora/Day8TipJar.sol\":3394:3431  return tipsPerCurrency[_currencyCode] */\n      swap1\n      pop\n        /* \"submissions/Zora/Day8TipJar.sol\":3297:3439  function getTipsInCurrency(string memory _currencyCode) public view returns (uint256) {... */\n      swap2\n      swap1\n      pop\n      jump\t// out\n        /* \"submissions/Zora/Day8TipJar.sol\":307:356  mapping(string => uint256) public tipsPerCurrency */\n    tag_38:\n      0x05\n      dup2\n      dup1\n      mload\n      0x20\n      dup2\n      add\n      dup3\n      add\n      dup1\n      mload\n      dup5\n      dup3\n      mstore\n      0x20\n      dup4\n      add\n      0x20\n      dup6\n      add\n      keccak256\n      dup2\n      dup4\n      mstore\n      dup1\n      swap6\n      pop\n      pop\n      pop\n      pop\n      pop\n      pop\n      0x00\n      swap2\n      pop\n      swap1\n      pop\n      sload\n      dup2\n      jump\t// out\n        /* \"submissions/Zora/Day8TipJar.sol\":3447:3669  function getConversionRate(string memory _currencyCode) public view returns (uint256) {... */\n    tag_43:\n        /* \"submissions/Zora/Day8TipJar.sol\":3524:3531  uint256 */\n      0x00\n        /* \"submissions/Zora/Day8TipJar.sol\":3585:3586  0 */\n      0x00\n        /* \"submissions/Zora/Day8TipJar.sol\":3552:3567  conversionRates */\n      0x02\n        /* \"submissions/Zora/Day8TipJar.sol\":3568:3581  _currencyCode */\n      dup4\n        /* \"submissions/Zora/Day8TipJar.sol\":3552:3582  conversionRates[_currencyCode] */\n      mload(0x40)\n      tag_106\n      swap2\n      swap1\n      tag_104\n      jump\t// in\n    tag_106:\n      swap1\n      dup2\n      mstore\n      0x20\n      add\n      mload(0x40)\n      dup1\n      swap2\n      sub\n      swap1\n      keccak256\n      sload\n        /* \"submissions/Zora/Day8TipJar.sol\":3552:3586  conversionRates[_currencyCode] > 0 */\n      gt\n        /* \"submissions/Zora/Day8TipJar.sol\":3544:3613  require(conversionRates[_currencyCode] > 0, \"Currency not supported\") */\n      tag_107\n      jumpi\n      mload(0x40)\n      0x08c379a000000000000000000000000000000000000000000000000000000000\n      dup2\n      mstore\n      0x04\n      add\n      tag_108\n      swap1\n      tag_109\n      jump\t// in\n    tag_108:\n      mload(0x40)\n      dup1\n      swap2\n      sub\n      swap1\n      revert\n    tag_107:\n        /* \"submissions/Zora/Day8TipJar.sol\":3631:3646  conversionRates */\n      0x02\n        /* \"submissions/Zora/Day8TipJar.sol\":3647:3660  _currencyCode */\n      dup3\n        /* \"submissions/Zora/Day8TipJar.sol\":3631:3661  conversionRates[_currencyCode] */\n      mload(0x40)\n      tag_110\n      swap2\n      swap1\n      tag_104\n      jump\t// in\n    tag_110:\n      swap1\n      dup2\n      mstore\n      0x20\n      add\n      mload(0x40)\n      dup1\n      swap2\n      sub\n      swap1\n      keccak256\n      sload\n        /* \"submissions/Zora/Day8TipJar.sol\":3624:3661  return conversionRates[_currencyCode] */\n      swap1\n      pop\n        /* \"submissions/Zora/Day8TipJar.sol\":3447:3669  function getConversionRate(string memory _currencyCode) public view returns (uint256) {... */\n      swap2\n      swap1\n      pop\n      jump\t// out\n        /* \"submissions/Zora/Day8TipJar.sol\":3164:3289  function getTipperContribution(address _tipper) public view returns (uint256) {... */\n    tag_48:\n        /* \"submissions/Zora/Day8TipJar.sol\":3233:3240  uint256 */\n      0x00\n        /* \"submissions/Zora/Day8TipJar.sol\":3260:3272  tipPerPerson */\n      0x03\n        /* \"submissions/Zora/Day8TipJar.sol\":3260:3281  tipPerPerson[_tipper] */\n      0x00\n        /* \"submissions/Zora/Day8TipJar.sol\":3273:3280  _tipper */\n      dup4\n        /* \"submissions/Zora/Day8TipJar.sol\":3260:3281  tipPerPerson[_tipper] */\n      0xffffffffffffffffffffffffffffffffffffffff\n      and\n      0xffffffffffffffffffffffffffffffffffffffff\n      and\n      dup2\n      mstore\n      0x20\n      add\n      swap1\n      dup2\n      mstore\n      0x20\n      add\n      0x00\n      keccak256\n      sload\n        /* \"submissions/Zora/Day8TipJar.sol\":3253:3281  return tipPerPerson[_tipper] */\n      swap1\n      pop\n        /* \"submissions/Zora/Day8TipJar.sol\":3164:3289  function getTipperContribution(address _tipper) public view returns (uint256) {... */\n      swap2\n      swap1\n      pop\n      jump\t// out\n        /* \"submissions/Zora/Day8TipJar.sol\":2924:3041  function getSupportedCurrencies() public view returns (string[] memory) {... */\n    tag_52:\n        /* \"submissions/Zora/Day8TipJar.sol\":2979:2994  string[] memory */\n      0x60\n        /* \"submissions/Zora/Day8TipJar.sol\":3014:3033  supportedCurrencies */\n      0x04\n        /* \"submissions/Zora/Day8TipJar.sol\":3007:3033  return supportedCurrencies */\n      dup1\n      sload\n      dup1\n      0x20\n      mul\n      0x20\n      add\n      mload(0x40)\n      swap1\n      dup2\n      add\n      0x40\n      mstore\n      dup1\n      swap3\n      swap2\n      swap1\n      dup2\n      dup2\n      mstore\n      0x20\n      add\n      0x00\n      swap1\n    tag_113:\n      dup3\n      dup3\n      lt\n      iszero\n      tag_114\n      jumpi\n      dup4\n      dup3\n      swap1\n      0x00\n      mstore\n      keccak256(0x00, 0x20)\n      add\n      dup1\n      sload\n      tag_116\n      swap1\n      tag_117\n      jump\t// in\n    tag_116:\n      dup1\n      0x1f\n      add\n      0x20\n      dup1\n      swap2\n      div\n      mul\n      0x20\n      add\n      mload(0x40)\n      swap1\n      dup2\n      add\n      0x40\n      mstore\n      dup1\n      swap3\n      swap2\n      swap1\n      dup2\n      dup2\n      mstore\n      0x20\n      add\n      dup3\n      dup1\n      sload\n      tag_118\n      swap1\n      tag_117\n      jump\t// in\n    tag_118:\n      dup1\n      iszero\n      tag_119\n      jumpi\n      dup1\n      0x1f\n      lt\n      tag_120\n      jumpi\n      0x0100\n      dup1\n      dup4\n      sload\n      div\n      mul\n      dup4\n      mstore\n      swap2\n      0x20\n      add\n      swap2\n      jump(tag_119)\n    tag_120:\n      dup3\n      add\n      swap2\n      swap1\n      0x00\n      mstore\n      keccak256(0x00, 0x20)\n      swap1\n    tag_121:\n      dup2\n      sload\n      dup2\n      mstore\n      swap1\n      0x01\n      add\n      swap1\n      0x20\n      add\n      dup1\n      dup4\n      gt\n      tag_121\n      jumpi\n      dup3\n      swap1\n      sub\n      0x1f\n      and\n      dup3\n      add\n      swap2\n    tag_119:\n      pop\n      pop\n      pop\n      pop\n      pop\n      dup2\n      mstore\n      0x20\n      add\n      swap1\n      0x01\n      add\n      swap1\n      jump(tag_113)\n    tag_114:\n      pop\n      pop\n      pop\n      pop\n      swap1\n      pop\n        /* \"submissions/Zora/Day8TipJar.sol\":2924:3041  function getSupportedCurrencies() public view returns (string[] memory) {... */\n      swap1\n      jump\t// out\n        /* \"submissions/Zora/Day8TipJar.sol\":2423:2747  function withdrawTips() public onlyOwner {... */\n    tag_57:\n        /* \"submissions/Zora/Day8TipJar.sol\":642:647  owner */\n      0x00\n      0x00\n      swap1\n      sload\n      swap1\n      0x0100\n      exp\n      swap1\n      div\n      0xffffffffffffffffffffffffffffffffffffffff\n      and\n        /* \"submissions/Zora/Day8TipJar.sol\":628:647  msg.sender == owner */\n      0xffffffffffffffffffffffffffffffffffffffff\n      and\n        /* \"submissions/Zora/Day8TipJar.sol\":628:638  msg.sender */\n      caller\n        /* \"submissions/Zora/Day8TipJar.sol\":628:647  msg.sender == owner */\n      0xffffffffffffffffffffffffffffffffffffffff\n      and\n      eq\n        /* \"submissions/Zora/Day8TipJar.sol\":620:686  require(msg.sender == owner, \"Only owner can perform this action\") */\n      tag_123\n      jumpi\n      mload(0x40)\n      0x08c379a000000000000000000000000000000000000000000000000000000000\n      dup2\n      mstore\n      0x04\n      add\n      tag_124\n      swap1\n      tag_125\n      jump\t// in\n    tag_124:\n      mload(0x40)\n      dup1\n      swap2\n      sub\n      swap1\n      revert\n    tag_123:\n        /* \"submissions/Zora/Day8TipJar.sol\":2475:2498  uint256 contractBalance */\n      0x00\n        /* \"submissions/Zora/Day8TipJar.sol\":2501:2522  address(this).balance */\n      selfbalance\n        /* \"submissions/Zora/Day8TipJar.sol\":2475:2522  uint256 contractBalance = address(this).balance */\n      swap1\n      pop\n        /* \"submissions/Zora/Day8TipJar.sol\":2559:2560  0 */\n      0x00\n        /* \"submissions/Zora/Day8TipJar.sol\":2541:2556  contractBalance */\n      dup2\n        /* \"submissions/Zora/Day8TipJar.sol\":2541:2560  contractBalance > 0 */\n      gt\n        /* \"submissions/Zora/Day8TipJar.sol\":2533:2584  require(contractBalance > 0, \"No tips to withdraw\") */\n      tag_127\n      jumpi\n      mload(0x40)\n      0x08c379a000000000000000000000000000000000000000000000000000000000\n      dup2\n      mstore\n      0x04\n      add\n      tag_128\n      swap1\n      tag_129\n      jump\t// in\n    tag_128:\n      mload(0x40)\n      dup1\n      swap2\n      sub\n      swap1\n      revert\n    tag_127:\n        /* \"submissions/Zora/Day8TipJar.sol\":2596:2608  bool success */\n      0x00\n        /* \"submissions/Zora/Day8TipJar.sol\":2622:2627  owner */\n      0x00\n      0x00\n      swap1\n      sload\n      swap1\n      0x0100\n      exp\n      swap1\n      div\n      0xffffffffffffffffffffffffffffffffffffffff\n      and\n        /* \"submissions/Zora/Day8TipJar.sol\":2614:2633  payable(owner).call */\n      0xffffffffffffffffffffffffffffffffffffffff\n      and\n        /* \"submissions/Zora/Day8TipJar.sol\":2641:2656  contractBalance */\n      dup3\n        /* \"submissions/Zora/Day8TipJar.sol\":2614:2661  payable(owner).call{value: contractBalance}(\"\") */\n      mload(0x40)\n      tag_130\n      swap1\n      tag_131\n      jump\t// in\n    tag_130:\n      0x00\n      mload(0x40)\n      dup1\n      dup4\n      sub\n      dup2\n      dup6\n      dup8\n      gas\n      call\n      swap3\n      pop\n      pop\n      pop\n      returndatasize\n      dup1\n      0x00\n      dup2\n      eq\n      tag_134\n      jumpi\n      mload(0x40)\n      swap2\n      pop\n      and(add(returndatasize, 0x3f), not(0x1f))\n      dup3\n      add\n      0x40\n      mstore\n      returndatasize\n      dup3\n      mstore\n      returndatasize\n      0x00\n      0x20\n      dup5\n      add\n      returndatacopy\n      jump(tag_133)\n    tag_134:\n      0x60\n      swap2\n      pop\n    tag_133:\n      pop\n        /* \"submissions/Zora/Day8TipJar.sol\":2595:2661  (bool success, ) = payable(owner).call{value: contractBalance}(\"\") */\n      pop\n      swap1\n      pop\n        /* \"submissions/Zora/Day8TipJar.sol\":2680:2687  success */\n      dup1\n        /* \"submissions/Zora/Day8TipJar.sol\":2672:2707  require(success, \"Transfer failed\") */\n      tag_135\n      jumpi\n      mload(0x40)\n      0x08c379a000000000000000000000000000000000000000000000000000000000\n      dup2\n      mstore\n      0x04\n      add\n      tag_136\n      swap1\n      tag_137\n      jump\t// in\n    tag_136:\n      mload(0x40)\n      dup1\n      swap2\n      sub\n      swap1\n      revert\n    tag_135:\n        /* \"submissions/Zora/Day8TipJar.sol\":2738:2739  0 */\n      0x00\n        /* \"submissions/Zora/Day8TipJar.sol\":2718:2735  totalTipsReceived */\n      0x01\n        /* \"submissions/Zora/Day8TipJar.sol\":2718:2739  totalTipsReceived = 0 */\n      dup2\n      swap1\n      sstore\n      pop\n        /* \"submissions/Zora/Day8TipJar.sol\":2464:2747  {... */\n      pop\n      pop\n        /* \"submissions/Zora/Day8TipJar.sol\":2423:2747  function withdrawTips() public onlyOwner {... */\n      jump\t// out\n        /* \"submissions/Zora/Day8TipJar.sol\":153:202  mapping(string => uint256) public conversionRates */\n    tag_61:\n      0x02\n      dup2\n      dup1\n      mload\n      0x20\n      dup2\n      add\n      dup3\n      add\n      dup1\n      mload\n      dup5\n      dup3\n      mstore\n      0x20\n      dup4\n      add\n      0x20\n      dup6\n      add\n      keccak256\n      dup2\n      dup4\n      mstore\n      dup1\n      swap6\n      pop\n      pop\n      pop\n      pop\n      pop\n      pop\n      0x00\n      swap2\n      pop\n      swap1\n      pop\n      sload\n      dup2\n      jump\t// out\n        /* \"submissions/Zora/Day8TipJar.sol\":714:1326  function addCurrency(string memory _currencyCode, uint256 _rateToEth) public onlyOwner {... */\n    tag_67:\n        /* \"submissions/Zora/Day8TipJar.sol\":642:647  owner */\n      0x00\n      0x00\n      swap1\n      sload\n      swap1\n      0x0100\n      exp\n      swap1\n      div\n      0xffffffffffffffffffffffffffffffffffffffff\n      and\n        /* \"submissions/Zora/Day8TipJar.sol\":628:647  msg.sender == owner */\n      0xffffffffffffffffffffffffffffffffffffffff\n      and\n        /* \"submissions/Zora/Day8TipJar.sol\":628:638  msg.sender */\n      caller\n        /* \"submissions/Zora/Day8TipJar.sol\":628:647  msg.sender == owner */\n      0xffffffffffffffffffffffffffffffffffffffff\n      and\n      eq\n        /* \"submissions/Zora/Day8TipJar.sol\":620:686  require(msg.sender == owner, \"Only owner can perform this action\") */\n      tag_139\n      jumpi\n      mload(0x40)\n      0x08c379a000000000000000000000000000000000000000000000000000000000\n      dup2\n      mstore\n      0x04\n      add\n      tag_140\n      swap1\n      tag_125\n      jump\t// in\n    tag_140:\n      mload(0x40)\n      dup1\n      swap2\n      sub\n      swap1\n      revert\n    tag_139:\n        /* \"submissions/Zora/Day8TipJar.sol\":833:834  0 */\n      0x00\n        /* \"submissions/Zora/Day8TipJar.sol\":820:830  _rateToEth */\n      dup2\n        /* \"submissions/Zora/Day8TipJar.sol\":820:834  _rateToEth > 0 */\n      gt\n        /* \"submissions/Zora/Day8TipJar.sol\":812:877  require(_rateToEth > 0, \"Conversion rate must be greater than 0\") */\n      tag_142\n      jumpi\n      mload(0x40)\n      0x08c379a000000000000000000000000000000000000000000000000000000000\n      dup2\n      mstore\n      0x04\n      add\n      tag_143\n      swap1\n      tag_144\n      jump\t// in\n    tag_143:\n      mload(0x40)\n      dup1\n      swap2\n      sub\n      swap1\n      revert\n    tag_142:\n        /* \"submissions/Zora/Day8TipJar.sol\":888:907  bool currencyExists */\n      0x00\n        /* \"submissions/Zora/Day8TipJar.sol\":910:915  false */\n      0x00\n        /* \"submissions/Zora/Day8TipJar.sol\":888:915  bool currencyExists = false */\n      swap1\n      pop\n        /* \"submissions/Zora/Day8TipJar.sol\":931:937  uint i */\n      0x00\n        /* \"submissions/Zora/Day8TipJar.sol\":940:941  0 */\n      0x00\n        /* \"submissions/Zora/Day8TipJar.sol\":931:941  uint i = 0 */\n      swap1\n      pop\n        /* \"submissions/Zora/Day8TipJar.sol\":926:1166  for (uint i = 0; i < supportedCurrencies.length; i++){... */\n    tag_145:\n        /* \"submissions/Zora/Day8TipJar.sol\":947:966  supportedCurrencies */\n      0x04\n        /* \"submissions/Zora/Day8TipJar.sol\":947:973  supportedCurrencies.length */\n      dup1\n      sload\n      swap1\n      pop\n        /* \"submissions/Zora/Day8TipJar.sol\":943:944  i */\n      dup2\n        /* \"submissions/Zora/Day8TipJar.sol\":943:973  i < supportedCurrencies.length */\n      lt\n        /* \"submissions/Zora/Day8TipJar.sol\":926:1166  for (uint i = 0; i < supportedCurrencies.length; i++){... */\n      iszero\n      tag_146\n      jumpi\n        /* \"submissions/Zora/Day8TipJar.sol\":1058:1071  _currencyCode */\n      dup4\n        /* \"submissions/Zora/Day8TipJar.sol\":1042:1073  keccak256(bytes(_currencyCode)) */\n      dup1\n      mload\n      swap1\n      0x20\n      add\n      keccak256\n        /* \"submissions/Zora/Day8TipJar.sol\":1014:1033  supportedCurrencies */\n      0x04\n        /* \"submissions/Zora/Day8TipJar.sol\":1034:1035  i */\n      dup3\n        /* \"submissions/Zora/Day8TipJar.sol\":1014:1036  supportedCurrencies[i] */\n      dup2\n      sload\n      dup2\n      lt\n      tag_148\n      jumpi\n      tag_149\n      tag_150\n      jump\t// in\n    tag_149:\n    tag_148:\n      swap1\n      0x00\n      mstore\n      keccak256(0x00, 0x20)\n      add\n        /* \"submissions/Zora/Day8TipJar.sol\":998:1038  keccak256(bytes(supportedCurrencies[i])) */\n      mload(0x40)\n      tag_152\n      swap2\n      swap1\n      tag_153\n      jump\t// in\n    tag_152:\n      mload(0x40)\n      dup1\n      swap2\n      sub\n      swap1\n      keccak256\n        /* \"submissions/Zora/Day8TipJar.sol\":998:1073  keccak256(bytes(supportedCurrencies[i])) == keccak256(bytes(_currencyCode)) */\n      sub\n        /* \"submissions/Zora/Day8TipJar.sol\":994:1155  if (keccak256(bytes(supportedCurrencies[i])) == keccak256(bytes(_currencyCode))) {... */\n      tag_154\n      jumpi\n        /* \"submissions/Zora/Day8TipJar.sol\":1111:1115  true */\n      0x01\n        /* \"submissions/Zora/Day8TipJar.sol\":1094:1115  currencyExists = true */\n      swap2\n      pop\n        /* \"submissions/Zora/Day8TipJar.sol\":1134:1139  break */\n      jump(tag_146)\n        /* \"submissions/Zora/Day8TipJar.sol\":994:1155  if (keccak256(bytes(supportedCurrencies[i])) == keccak256(bytes(_currencyCode))) {... */\n    tag_154:\n        /* \"submissions/Zora/Day8TipJar.sol\":975:978  i++ */\n      dup1\n      dup1\n      0x01\n      add\n      swap2\n      pop\n      pop\n        /* \"submissions/Zora/Day8TipJar.sol\":926:1166  for (uint i = 0; i < supportedCurrencies.length; i++){... */\n      jump(tag_145)\n    tag_146:\n      pop\n        /* \"submissions/Zora/Day8TipJar.sol\":1181:1195  currencyExists */\n      dup1\n        /* \"submissions/Zora/Day8TipJar.sol\":1176:1263  if (!currencyExists) {... */\n      tag_155\n      jumpi\n        /* \"submissions/Zora/Day8TipJar.sol\":1212:1231  supportedCurrencies */\n      0x04\n        /* \"submissions/Zora/Day8TipJar.sol\":1237:1250  _currencyCode */\n      dup4\n        /* \"submissions/Zora/Day8TipJar.sol\":1212:1251  supportedCurrencies.push(_currencyCode) */\n      swap1\n      dup1\n      0x01\n      dup2\n      sload\n      add\n      dup1\n      dup3\n      sstore\n      dup1\n      swap2\n      pop\n      pop\n      0x01\n      swap1\n      sub\n      swap1\n      0x00\n      mstore\n      keccak256(0x00, 0x20)\n      add\n      0x00\n      swap1\n      swap2\n      swap1\n      swap2\n      swap1\n      swap2\n      pop\n      swap1\n      dup2\n      tag_157\n      swap2\n      swap1\n      tag_158\n      jump\t// in\n    tag_157:\n      pop\n        /* \"submissions/Zora/Day8TipJar.sol\":1176:1263  if (!currencyExists) {... */\n    tag_155:\n        /* \"submissions/Zora/Day8TipJar.sol\":1308:1318  _rateToEth */\n      dup2\n        /* \"submissions/Zora/Day8TipJar.sol\":1275:1290  conversionRates */\n      0x02\n        /* \"submissions/Zora/Day8TipJar.sol\":1291:1304  _currencyCode */\n      dup5\n        /* \"submissions/Zora/Day8TipJar.sol\":1275:1305  conversionRates[_currencyCode] */\n      mload(0x40)\n      tag_159\n      swap2\n      swap1\n      tag_104\n      jump\t// in\n    tag_159:\n      swap1\n      dup2\n      mstore\n      0x20\n      add\n      mload(0x40)\n      dup1\n      swap2\n      sub\n      swap1\n      keccak256\n        /* \"submissions/Zora/Day8TipJar.sol\":1275:1318  conversionRates[_currencyCode] = _rateToEth */\n      dup2\n      swap1\n      sstore\n      pop\n        /* \"submissions/Zora/Day8TipJar.sol\":801:1326  {... */\n      pop\n        /* \"submissions/Zora/Day8TipJar.sol\":714:1326  function addCurrency(string memory _currencyCode, uint256 _rateToEth) public onlyOwner {... */\n      pop\n      pop\n      jump\t// out\n        /* \"submissions/Zora/Day8TipJar.sol\":1334:1618  function convertToEth(string memory _currencyCode, uint256 _amount) public view returns (uint256) {... */\n    tag_71:\n        /* \"submissions/Zora/Day8TipJar.sol\":1423:1430  uint256 */\n      0x00\n        /* \"submissions/Zora/Day8TipJar.sol\":1484:1485  0 */\n      0x00\n        /* \"submissions/Zora/Day8TipJar.sol\":1451:1466  conversionRates */\n      0x02\n        /* \"submissions/Zora/Day8TipJar.sol\":1467:1480  _currencyCode */\n      dup5\n        /* \"submissions/Zora/Day8TipJar.sol\":1451:1481  conversionRates[_currencyCode] */\n      mload(0x40)\n      tag_161\n      swap2\n      swap1\n      tag_104\n      jump\t// in\n    tag_161:\n      swap1\n      dup2\n      mstore\n      0x20\n      add\n      mload(0x40)\n      dup1\n      swap2\n      sub\n      swap1\n      keccak256\n      sload\n        /* \"submissions/Zora/Day8TipJar.sol\":1451:1485  conversionRates[_currencyCode] > 0 */\n      gt\n        /* \"submissions/Zora/Day8TipJar.sol\":1443:1512  require(conversionRates[_currencyCode] > 0, \"Currency not supported\") */\n      tag_162\n      jumpi\n      mload(0x40)\n      0x08c379a000000000000000000000000000000000000000000000000000000000\n      dup2\n      mstore\n      0x04\n      add\n      tag_163\n      swap1\n      tag_109\n      jump\t// in\n    tag_163:\n      mload(0x40)\n      dup1\n      swap2\n      sub\n      swap1\n      revert\n    tag_162:\n        /* \"submissions/Zora/Day8TipJar.sol\":1523:1540  uint256 ethAmount */\n      0x00\n        /* \"submissions/Zora/Day8TipJar.sol\":1553:1568  conversionRates */\n      0x02\n        /* \"submissions/Zora/Day8TipJar.sol\":1569:1582  _currencyCode */\n      dup5\n        /* \"submissions/Zora/Day8TipJar.sol\":1553:1583  conversionRates[_currencyCode] */\n      mload(0x40)\n      tag_164\n      swap2\n      swap1\n      tag_104\n      jump\t// in\n    tag_164:\n      swap1\n      dup2\n      mstore\n      0x20\n      add\n      mload(0x40)\n      dup1\n      swap2\n      sub\n      swap1\n      keccak256\n      sload\n        /* \"submissions/Zora/Day8TipJar.sol\":1543:1550  _amount */\n      dup4\n        /* \"submissions/Zora/Day8TipJar.sol\":1543:1583  _amount * conversionRates[_currencyCode] */\n      tag_165\n      swap2\n      swap1\n      tag_166\n      jump\t// in\n    tag_165:\n        /* \"submissions/Zora/Day8TipJar.sol\":1523:1583  uint256 ethAmount = _amount * conversionRates[_currencyCode] */\n      swap1\n      pop\n        /* \"submissions/Zora/Day8TipJar.sol\":1601:1610  ethAmount */\n      dup1\n        /* \"submissions/Zora/Day8TipJar.sol\":1594:1610  return ethAmount */\n      swap2\n      pop\n      pop\n        /* \"submissions/Zora/Day8TipJar.sol\":1334:1618  function convertToEth(string memory _currencyCode, uint256 _amount) public view returns (uint256) {... */\n      swap3\n      swap2\n      pop\n      pop\n      jump\t// out\n        /* \"submissions/Zora/Day8TipJar.sol\":3049:3156  function getContractBalance() public view returns (uint256) {... */\n    tag_75:\n        /* \"submissions/Zora/Day8TipJar.sol\":3100:3107  uint256 */\n      0x00\n        /* \"submissions/Zora/Day8TipJar.sol\":3127:3148  address(this).balance */\n      selfbalance\n        /* \"submissions/Zora/Day8TipJar.sol\":3120:3148  return address(this).balance */\n      swap1\n      pop\n        /* \"submissions/Zora/Day8TipJar.sol\":3049:3156  function getContractBalance() public view returns (uint256) {... */\n      swap1\n      jump\t// out\n        /* \"submissions/Zora/Day8TipJar.sol\":83:103  address public owner */\n    tag_79:\n      0x00\n      0x00\n      swap1\n      sload\n      swap1\n      0x0100\n      exp\n      swap1\n      div\n      0xffffffffffffffffffffffffffffffffffffffff\n      and\n      dup2\n      jump\t// out\n        /* \"submissions/Zora/Day8TipJar.sol\":265:300  string[] public supportedCurrencies */\n    tag_86:\n      0x04\n      dup2\n      dup2\n      sload\n      dup2\n      lt\n      tag_168\n      jumpi\n      0x00\n      dup1\n      revert\n    tag_168:\n      swap1\n      0x00\n      mstore\n      keccak256(0x00, 0x20)\n      add\n      0x00\n      swap2\n      pop\n      swap1\n      pop\n      dup1\n      sload\n      tag_170\n      swap1\n      tag_117\n      jump\t// in\n    tag_170:\n      dup1\n      0x1f\n      add\n      0x20\n      dup1\n      swap2\n      div\n      mul\n      0x20\n      add\n      mload(0x40)\n      swap1\n      dup2\n      add\n      0x40\n      mstore\n      dup1\n      swap3\n      swap2\n      swap1\n      dup2\n      dup2\n      mstore\n      0x20\n      add\n      dup3\n      dup1\n      sload\n      tag_171\n      swap1\n      tag_117\n      jump\t// in\n    tag_171:\n      dup1\n      iszero\n      tag_172\n      jumpi\n      dup1\n      0x1f\n      lt\n      tag_173\n      jumpi\n      0x0100\n      dup1\n      dup4\n      sload\n      div\n      mul\n      dup4\n      mstore\n      swap2\n      0x20\n      add\n      swap2\n      jump(tag_172)\n    tag_173:\n      dup3\n      add\n      swap2\n      swap1\n      0x00\n      mstore\n      keccak256(0x00, 0x20)\n      swap1\n    tag_174:\n      dup2\n      sload\n      dup2\n      mstore\n      swap1\n      0x01\n      add\n      swap1\n      0x20\n      add\n      dup1\n      dup4\n      gt\n      tag_174\n      jumpi\n      dup3\n      swap1\n      sub\n      0x1f\n      and\n      dup3\n      add\n      swap2\n    tag_172:\n      pop\n      pop\n      pop\n      pop\n      pop\n      dup2\n      jump\t// out\n        /* \"submissions/Zora/Day8TipJar.sol\":1882:2415  function tipInCurrency(string memory _currencyCode, uint256 _amount) public payable {... */\n    tag_91:\n        /* \"submissions/Zora/Day8TipJar.sol\":2018:2019  0 */\n      0x00\n        /* \"submissions/Zora/Day8TipJar.sol\":1985:2000  conversionRates */\n      0x02\n        /* \"submissions/Zora/Day8TipJar.sol\":2001:2014  _currencyCode */\n      dup4\n        /* \"submissions/Zora/Day8TipJar.sol\":1985:2015  conversionRates[_currencyCode] */\n      mload(0x40)\n      tag_176\n      swap2\n      swap1\n      tag_104\n      jump\t// in\n    tag_176:\n      swap1\n      dup2\n      mstore\n      0x20\n      add\n      mload(0x40)\n      dup1\n      swap2\n      sub\n      swap1\n      keccak256\n      sload\n        /* \"submissions/Zora/Day8TipJar.sol\":1985:2019  conversionRates[_currencyCode] > 0 */\n      gt\n        /* \"submissions/Zora/Day8TipJar.sol\":1977:2046  require(conversionRates[_currencyCode] > 0, \"Currency not supported\") */\n      tag_177\n      jumpi\n      mload(0x40)\n      0x08c379a000000000000000000000000000000000000000000000000000000000\n      dup2\n      mstore\n      0x04\n      add\n      tag_178\n      swap1\n      tag_109\n      jump\t// in\n    tag_178:\n      mload(0x40)\n      dup1\n      swap2\n      sub\n      swap1\n      revert\n    tag_177:\n        /* \"submissions/Zora/Day8TipJar.sol\":2075:2076  0 */\n      0x00\n        /* \"submissions/Zora/Day8TipJar.sol\":2065:2072  _amount */\n      dup2\n        /* \"submissions/Zora/Day8TipJar.sol\":2065:2076  _amount > 0 */\n      gt\n        /* \"submissions/Zora/Day8TipJar.sol\":2057:2110  require(_amount > 0, \"Amount must be greater than 0\") */\n      tag_179\n      jumpi\n      mload(0x40)\n      0x08c379a000000000000000000000000000000000000000000000000000000000\n      dup2\n      mstore\n      0x04\n      add\n      tag_180\n      swap1\n      tag_181\n      jump\t// in\n    tag_180:\n      mload(0x40)\n      dup1\n      swap2\n      sub\n      swap1\n      revert\n    tag_179:\n        /* \"submissions/Zora/Day8TipJar.sol\":2121:2138  uint256 ethAmount */\n      0x00\n        /* \"submissions/Zora/Day8TipJar.sol\":2141:2177  convertToEth(_currencyCode, _amount) */\n      tag_182\n        /* \"submissions/Zora/Day8TipJar.sol\":2154:2167  _currencyCode */\n      dup4\n        /* \"submissions/Zora/Day8TipJar.sol\":2169:2176  _amount */\n      dup4\n        /* \"submissions/Zora/Day8TipJar.sol\":2141:2153  convertToEth */\n      tag_71\n        /* \"submissions/Zora/Day8TipJar.sol\":2141:2177  convertToEth(_currencyCode, _amount) */\n      jump\t// in\n    tag_182:\n        /* \"submissions/Zora/Day8TipJar.sol\":2121:2177  uint256 ethAmount = convertToEth(_currencyCode, _amount) */\n      swap1\n      pop\n        /* \"submissions/Zora/Day8TipJar.sol\":2209:2218  ethAmount */\n      dup1\n        /* \"submissions/Zora/Day8TipJar.sol\":2196:2205  msg.value */\n      callvalue\n        /* \"submissions/Zora/Day8TipJar.sol\":2196:2218  msg.value == ethAmount */\n      eq\n        /* \"submissions/Zora/Day8TipJar.sol\":2188:2266  require(msg.value == ethAmount, \"Sent ETH doesn't match the converted amount\") */\n      tag_183\n      jumpi\n      mload(0x40)\n      0x08c379a000000000000000000000000000000000000000000000000000000000\n      dup2\n      mstore\n      0x04\n      add\n      tag_184\n      swap1\n      tag_185\n      jump\t// in\n    tag_184:\n      mload(0x40)\n      dup1\n      swap2\n      sub\n      swap1\n      revert\n    tag_183:\n        /* \"submissions/Zora/Day8TipJar.sol\":2305:2314  msg.value */\n      callvalue\n        /* \"submissions/Zora/Day8TipJar.sol\":2277:2289  tipPerPerson */\n      0x03\n        /* \"submissions/Zora/Day8TipJar.sol\":2277:2301  tipPerPerson[msg.sender] */\n      0x00\n        /* \"submissions/Zora/Day8TipJar.sol\":2290:2300  msg.sender */\n      caller\n        /* \"submissions/Zora/Day8TipJar.sol\":2277:2301  tipPerPerson[msg.sender] */\n      0xffffffffffffffffffffffffffffffffffffffff\n      and\n      0xffffffffffffffffffffffffffffffffffffffff\n      and\n      dup2\n      mstore\n      0x20\n      add\n      swap1\n      dup2\n      mstore\n      0x20\n      add\n      0x00\n      keccak256\n      0x00\n        /* \"submissions/Zora/Day8TipJar.sol\":2277:2314  tipPerPerson[msg.sender] += msg.value */\n      dup3\n      dup3\n      sload\n      tag_186\n      swap2\n      swap1\n      tag_187\n      jump\t// in\n    tag_186:\n      swap3\n      pop\n      pop\n      dup2\n      swap1\n      sstore\n      pop\n        /* \"submissions/Zora/Day8TipJar.sol\":2346:2355  msg.value */\n      callvalue\n        /* \"submissions/Zora/Day8TipJar.sol\":2325:2342  totalTipsReceived */\n      0x01\n      0x00\n        /* \"submissions/Zora/Day8TipJar.sol\":2325:2355  totalTipsReceived += msg.value */\n      dup3\n      dup3\n      sload\n      tag_188\n      swap2\n      swap1\n      tag_187\n      jump\t// in\n    tag_188:\n      swap3\n      pop\n      pop\n      dup2\n      swap1\n      sstore\n      pop\n        /* \"submissions/Zora/Day8TipJar.sol\":2400:2407  _amount */\n      dup2\n        /* \"submissions/Zora/Day8TipJar.sol\":2366:2381  tipsPerCurrency */\n      0x05\n        /* \"submissions/Zora/Day8TipJar.sol\":2382:2395  _currencyCode */\n      dup5\n        /* \"submissions/Zora/Day8TipJar.sol\":2366:2396  tipsPerCurrency[_currencyCode] */\n      mload(0x40)\n      tag_189\n      swap2\n      swap1\n      tag_104\n      jump\t// in\n    tag_189:\n      swap1\n      dup2\n      mstore\n      0x20\n      add\n      mload(0x40)\n      dup1\n      swap2\n      sub\n      swap1\n      keccak256\n      0x00\n        /* \"submissions/Zora/Day8TipJar.sol\":2366:2407  tipsPerCurrency[_currencyCode] += _amount */\n      dup3\n      dup3\n      sload\n      tag_190\n      swap2\n      swap1\n      tag_187\n      jump\t// in\n    tag_190:\n      swap3\n      pop\n      pop\n      dup2\n      swap1\n      sstore\n      pop\n        /* \"submissions/Zora/Day8TipJar.sol\":1966:2415  {... */\n      pop\n        /* \"submissions/Zora/Day8TipJar.sol\":1882:2415  function tipInCurrency(string memory _currencyCode, uint256 _amount) public payable {... */\n      pop\n      pop\n      jump\t// out\n        /* \"submissions/Zora/Day8TipJar.sol\":1626:1874  function tipInEth() public payable {... */\n    tag_93:\n        /* \"submissions/Zora/Day8TipJar.sol\":1692:1693  0 */\n      0x00\n        /* \"submissions/Zora/Day8TipJar.sol\":1680:1689  msg.value */\n      callvalue\n        /* \"submissions/Zora/Day8TipJar.sol\":1680:1693  msg.value > 0 */\n      gt\n        /* \"submissions/Zora/Day8TipJar.sol\":1672:1731  require(msg.value > 0, \"Tip amount must be greater than 0\") */\n      tag_192\n      jumpi\n      mload(0x40)\n      0x08c379a000000000000000000000000000000000000000000000000000000000\n      dup2\n      mstore\n      0x04\n      add\n      tag_193\n      swap1\n      tag_194\n      jump\t// in\n    tag_193:\n      mload(0x40)\n      dup1\n      swap2\n      sub\n      swap1\n      revert\n    tag_192:\n        /* \"submissions/Zora/Day8TipJar.sol\":1770:1779  msg.value */\n      callvalue\n        /* \"submissions/Zora/Day8TipJar.sol\":1742:1754  tipPerPerson */\n      0x03\n        /* \"submissions/Zora/Day8TipJar.sol\":1742:1766  tipPerPerson[msg.sender] */\n      0x00\n        /* \"submissions/Zora/Day8TipJar.sol\":1755:1765  msg.sender */\n      caller\n        /* \"submissions/Zora/Day8TipJar.sol\":1742:1766  tipPerPerson[msg.sender] */\n      0xffffffffffffffffffffffffffffffffffffffff\n      and\n      0xffffffffffffffffffffffffffffffffffffffff\n      and\n      dup2\n      mstore\n      0x20\n      add\n      swap1\n      dup2\n      mstore\n      0x20\n      add\n      0x00\n      keccak256\n      0x00\n        /* \"submissions/Zora/Day8TipJar.sol\":1742:1779  tipPerPerson[msg.sender] += msg.value */\n      dup3\n      dup3\n      sload\n      tag_195\n      swap2\n      swap1\n      tag_187\n      jump\t// in\n    tag_195:\n      swap3\n      pop\n      pop\n      dup2\n      swap1\n      sstore\n      pop\n        /* \"submissions/Zora/Day8TipJar.sol\":1811:1820  msg.value */\n      callvalue\n        /* \"submissions/Zora/Day8TipJar.sol\":1790:1807  totalTipsReceived */\n      0x01\n      0x00\n        /* \"submissions/Zora/Day8TipJar.sol\":1790:1820  totalTipsReceived += msg.value */\n      dup3\n      dup3\n      sload\n      tag_196\n      swap2\n      swap1\n      tag_187\n      jump\t// in\n    tag_196:\n      swap3\n      pop\n      pop\n      dup2\n      swap1\n      sstore\n      pop\n        /* \"submissions/Zora/Day8TipJar.sol\":1857:1866  msg.value */\n      callvalue\n        /* \"submissions/Zora/Day8TipJar.sol\":1831:1846  tipsPerCurrency */\n      0x05\n        /* \"submissions/Zora/Day8TipJar.sol\":1831:1853  tipsPerCurrency[\"ETH\"] */\n      mload(0x40)\n      tag_197\n      swap1\n      tag_198\n      jump\t// in\n    tag_197:\n      swap1\n      dup2\n      mstore\n      0x20\n      add\n      mload(0x40)\n      dup1\n      swap2\n      sub\n      swap1\n      keccak256\n      0x00\n        /* \"submissions/Zora/Day8TipJar.sol\":1831:1866  tipsPerCurrency[\"ETH\"] += msg.value */\n      dup3\n      dup3\n      sload\n      tag_199\n      swap2\n      swap1\n      tag_187\n      jump\t// in\n    tag_199:\n      swap3\n      pop\n      pop\n      dup2\n      swap1\n      sstore\n      pop\n        /* \"submissions/Zora/Day8TipJar.sol\":1626:1874  function tipInEth() public payable {... */\n      jump\t// out\n        /* \"submissions/Zora/Day8TipJar.sol\":112:144  uint256 public totalTipsReceived */\n    tag_96:\n      sload(0x01)\n      dup2\n      jump\t// out\n        /* \"submissions/Zora/Day8TipJar.sol\":2755:2916  function transferOwnership(address _newOwner) public onlyOwner {... */\n    tag_101:\n        /* \"submissions/Zora/Day8TipJar.sol\":642:647  owner */\n      0x00\n      0x00\n      swap1\n      sload\n      swap1\n      0x0100\n      exp\n      swap1\n      div\n      0xffffffffffffffffffffffffffffffffffffffff\n      and\n        /* \"submissions/Zora/Day8TipJar.sol\":628:647  msg.sender == owner */\n      0xffffffffffffffffffffffffffffffffffffffff\n      and\n        /* \"submissions/Zora/Day8TipJar.sol\":628:638  msg.sender */\n      caller\n        /* \"submissions/Zora/Day8TipJar.sol\":628:647  msg.sender == owner */\n      0xffffffffffffffffffffffffffffffffffffffff\n      and\n      eq\n        /* \"submissions/Zora/Day8TipJar.sol\":620:686  require(msg.sender == owner, \"Only owner can perform this action\") */\n      tag_201\n      jumpi\n      mload(0x40)\n      0x08c379a000000000000000000000000000000000000000000000000000000000\n      dup2\n      mstore\n      0x04\n      add\n      tag_202\n      swap1\n      tag_125\n      jump\t// in\n    tag_202:\n      mload(0x40)\n      dup1\n      swap2\n      sub\n      swap1\n      revert\n    tag_201:\n        /* \"submissions/Zora/Day8TipJar.sol\":2858:2859  0 */\n      0x00\n        /* \"submissions/Zora/Day8TipJar.sol\":2837:2860  _newOwner != address(0) */\n      0xffffffffffffffffffffffffffffffffffffffff\n      and\n        /* \"submissions/Zora/Day8TipJar.sol\":2837:2846  _newOwner */\n      dup2\n        /* \"submissions/Zora/Day8TipJar.sol\":2837:2860  _newOwner != address(0) */\n      0xffffffffffffffffffffffffffffffffffffffff\n      and\n      sub\n        /* \"submissions/Zora/Day8TipJar.sol\":2829:2880  require(_newOwner != address(0), \"Invalid address\") */\n      tag_204\n      jumpi\n      mload(0x40)\n      0x08c379a000000000000000000000000000000000000000000000000000000000\n      dup2\n      mstore\n      0x04\n      add\n      tag_205\n      swap1\n      tag_206\n      jump\t// in\n    tag_205:\n      mload(0x40)\n      dup1\n      swap2\n      sub\n      swap1\n      revert\n    tag_204:\n        /* \"submissions/Zora/Day8TipJar.sol\":2899:2908  _newOwner */\n      dup1\n        /* \"submissions/Zora/Day8TipJar.sol\":2891:2896  owner */\n      0x00\n      0x00\n        /* \"submissions/Zora/Day8TipJar.sol\":2891:2908  owner = _newOwner */\n      0x0100\n      exp\n      dup2\n      sload\n      dup2\n      0xffffffffffffffffffffffffffffffffffffffff\n      mul\n      not\n      and\n      swap1\n      dup4\n      0xffffffffffffffffffffffffffffffffffffffff\n      and\n      mul\n      or\n      swap1\n      sstore\n      pop\n        /* \"submissions/Zora/Day8TipJar.sol\":2755:2916  function transferOwnership(address _newOwner) public onlyOwner {... */\n      pop\n      jump\t// out\n        /* \"#utility.yul\":7:82   */\n    tag_207:\n        /* \"#utility.yul\":40:46   */\n      0x00\n        /* \"#utility.yul\":73:75   */\n      0x40\n        /* \"#utility.yul\":67:76   */\n      mload\n        /* \"#utility.yul\":57:76   */\n      swap1\n      pop\n        /* \"#utility.yul\":7:82   */\n      swap1\n      jump\t// out\n        /* \"#utility.yul\":88:205   */\n    tag_208:\n        /* \"#utility.yul\":197:198   */\n      0x00\n        /* \"#utility.yul\":194:195   */\n      0x00\n        /* \"#utility.yul\":187:199   */\n      revert\n        /* \"#utility.yul\":211:328   */\n    tag_209:\n        /* \"#utility.yul\":320:321   */\n      0x00\n        /* \"#utility.yul\":317:318   */\n      0x00\n        /* \"#utility.yul\":310:322   */\n      revert\n        /* \"#utility.yul\":334:460   */\n    tag_210:\n        /* \"#utility.yul\":371:378   */\n      0x00\n        /* \"#utility.yul\":411:453   */\n      0xffffffffffffffffffffffffffffffffffffffff\n        /* \"#utility.yul\":404:409   */\n      dup3\n        /* \"#utility.yul\":400:454   */\n      and\n        /* \"#utility.yul\":389:454   */\n      swap1\n      pop\n        /* \"#utility.yul\":334:460   */\n      swap2\n      swap1\n      pop\n      jump\t// out\n        /* \"#utility.yul\":466:562   */\n    tag_211:\n        /* \"#utility.yul\":503:510   */\n      0x00\n        /* \"#utility.yul\":532:556   */\n      tag_291\n        /* \"#utility.yul\":550:555   */\n      dup3\n        /* \"#utility.yul\":532:556   */\n      tag_210\n      jump\t// in\n    tag_291:\n        /* \"#utility.yul\":521:556   */\n      swap1\n      pop\n        /* \"#utility.yul\":466:562   */\n      swap2\n      swap1\n      pop\n      jump\t// out\n        /* \"#utility.yul\":568:690   */\n    tag_212:\n        /* \"#utility.yul\":641:665   */\n      tag_293\n        /* \"#utility.yul\":659:664   */\n      dup2\n        /* \"#utility.yul\":641:665   */\n      tag_211\n      jump\t// in\n    tag_293:\n        /* \"#utility.yul\":634:639   */\n      dup2\n        /* \"#utility.yul\":631:666   */\n      eq\n        /* \"#utility.yul\":621:684   */\n      tag_294\n      jumpi\n        /* \"#utility.yul\":680:681   */\n      0x00\n        /* \"#utility.yul\":677:678   */\n      0x00\n        /* \"#utility.yul\":670:682   */\n      revert\n        /* \"#utility.yul\":621:684   */\n    tag_294:\n        /* \"#utility.yul\":568:690   */\n      pop\n      jump\t// out\n        /* \"#utility.yul\":696:835   */\n    tag_213:\n        /* \"#utility.yul\":742:747   */\n      0x00\n        /* \"#utility.yul\":780:786   */\n      dup2\n        /* \"#utility.yul\":767:787   */\n      calldataload\n        /* \"#utility.yul\":758:787   */\n      swap1\n      pop\n        /* \"#utility.yul\":796:829   */\n      tag_296\n        /* \"#utility.yul\":823:828   */\n      dup2\n        /* \"#utility.yul\":796:829   */\n      tag_212\n      jump\t// in\n    tag_296:\n        /* \"#utility.yul\":696:835   */\n      swap3\n      swap2\n      pop\n      pop\n      jump\t// out\n        /* \"#utility.yul\":841:1170   */\n    tag_25:\n        /* \"#utility.yul\":900:906   */\n      0x00\n        /* \"#utility.yul\":949:951   */\n      0x20\n        /* \"#utility.yul\":937:946   */\n      dup3\n        /* \"#utility.yul\":928:935   */\n      dup5\n        /* \"#utility.yul\":924:947   */\n      sub\n        /* \"#utility.yul\":920:952   */\n      slt\n        /* \"#utility.yul\":917:1036   */\n      iszero\n      tag_298\n      jumpi\n        /* \"#utility.yul\":955:1034   */\n      tag_299\n      tag_208\n      jump\t// in\n    tag_299:\n        /* \"#utility.yul\":917:1036   */\n    tag_298:\n        /* \"#utility.yul\":1075:1076   */\n      0x00\n        /* \"#utility.yul\":1100:1153   */\n      tag_300\n        /* \"#utility.yul\":1145:1152   */\n      dup5\n        /* \"#utility.yul\":1136:1142   */\n      dup3\n        /* \"#utility.yul\":1125:1134   */\n      dup6\n        /* \"#utility.yul\":1121:1143   */\n      add\n        /* \"#utility.yul\":1100:1153   */\n      tag_213\n      jump\t// in\n    tag_300:\n        /* \"#utility.yul\":1090:1153   */\n      swap2\n      pop\n        /* \"#utility.yul\":1046:1163   */\n      pop\n        /* \"#utility.yul\":841:1170   */\n      swap3\n      swap2\n      pop\n      pop\n      jump\t// out\n        /* \"#utility.yul\":1176:1253   */\n    tag_214:\n        /* \"#utility.yul\":1213:1220   */\n      0x00\n        /* \"#utility.yul\":1242:1247   */\n      dup2\n        /* \"#utility.yul\":1231:1247   */\n      swap1\n      pop\n        /* \"#utility.yul\":1176:1253   */\n      swap2\n      swap1\n      pop\n      jump\t// out\n        /* \"#utility.yul\":1259:1377   */\n    tag_215:\n        /* \"#utility.yul\":1346:1370   */\n      tag_303\n        /* \"#utility.yul\":1364:1369   */\n      dup2\n        /* \"#utility.yul\":1346:1370   */\n      tag_214\n      jump\t// in\n    tag_303:\n        /* \"#utility.yul\":1341:1344   */\n      dup3\n        /* \"#utility.yul\":1334:1371   */\n      mstore\n        /* \"#utility.yul\":1259:1377   */\n      pop\n      pop\n      jump\t// out\n        /* \"#utility.yul\":1383:1605   */\n    tag_28:\n        /* \"#utility.yul\":1476:1480   */\n      0x00\n        /* \"#utility.yul\":1514:1516   */\n      0x20\n        /* \"#utility.yul\":1503:1512   */\n      dup3\n        /* \"#utility.yul\":1499:1517   */\n      add\n        /* \"#utility.yul\":1491:1517   */\n      swap1\n      pop\n        /* \"#utility.yul\":1527:1598   */\n      tag_305\n        /* \"#utility.yul\":1595:1596   */\n      0x00\n        /* \"#utility.yul\":1584:1593   */\n      dup4\n        /* \"#utility.yul\":1580:1597   */\n      add\n        /* \"#utility.yul\":1571:1577   */\n      dup5\n        /* \"#utility.yul\":1527:1598   */\n      tag_215\n      jump\t// in\n    tag_305:\n        /* \"#utility.yul\":1383:1605   */\n      swap3\n      swap2\n      pop\n      pop\n      jump\t// out\n        /* \"#utility.yul\":1611:1728   */\n    tag_216:\n        /* \"#utility.yul\":1720:1721   */\n      0x00\n        /* \"#utility.yul\":1717:1718   */\n      0x00\n        /* \"#utility.yul\":1710:1722   */\n      revert\n        /* \"#utility.yul\":1734:1851   */\n    tag_217:\n        /* \"#utility.yul\":1843:1844   */\n      0x00\n        /* \"#utility.yul\":1840:1841   */\n      0x00\n        /* \"#utility.yul\":1833:1845   */\n      revert\n        /* \"#utility.yul\":1857:1959   */\n    tag_218:\n        /* \"#utility.yul\":1898:1904   */\n      0x00\n        /* \"#utility.yul\":1949:1951   */\n      0x1f\n        /* \"#utility.yul\":1945:1952   */\n      not\n        /* \"#utility.yul\":1940:1942   */\n      0x1f\n        /* \"#utility.yul\":1933:1938   */\n      dup4\n        /* \"#utility.yul\":1929:1943   */\n      add\n        /* \"#utility.yul\":1925:1953   */\n      and\n        /* \"#utility.yul\":1915:1953   */\n      swap1\n      pop\n        /* \"#utility.yul\":1857:1959   */\n      swap2\n      swap1\n      pop\n      jump\t// out\n        /* \"#utility.yul\":1965:2145   */\n    tag_219:\n        /* \"#utility.yul\":2013:2090   */\n      0x4e487b7100000000000000000000000000000000000000000000000000000000\n        /* \"#utility.yul\":2010:2011   */\n      0x00\n        /* \"#utility.yul\":2003:2091   */\n      mstore\n        /* \"#utility.yul\":2110:2114   */\n      0x41\n        /* \"#utility.yul\":2107:2108   */\n      0x04\n        /* \"#utility.yul\":2100:2115   */\n      mstore\n        /* \"#utility.yul\":2134:2138   */\n      0x24\n        /* \"#utility.yul\":2131:2132   */\n      0x00\n        /* \"#utility.yul\":2124:2139   */\n      revert\n        /* \"#utility.yul\":2151:2432   */\n    tag_220:\n        /* \"#utility.yul\":2234:2261   */\n      tag_311\n        /* \"#utility.yul\":2256:2260   */\n      dup3\n        /* \"#utility.yul\":2234:2261   */\n      tag_218\n      jump\t// in\n    tag_311:\n        /* \"#utility.yul\":2226:2232   */\n      dup2\n        /* \"#utility.yul\":2222:2262   */\n      add\n        /* \"#utility.yul\":2364:2370   */\n      dup2\n        /* \"#utility.yul\":2352:2362   */\n      dup2\n        /* \"#utility.yul\":2349:2371   */\n      lt\n        /* \"#utility.yul\":2328:2346   */\n      0xffffffffffffffff\n        /* \"#utility.yul\":2316:2326   */\n      dup3\n        /* \"#utility.yul\":2313:2347   */\n      gt\n        /* \"#utility.yul\":2310:2372   */\n      or\n        /* \"#utility.yul\":2307:2395   */\n      iszero\n      tag_312\n      jumpi\n        /* \"#utility.yul\":2375:2393   */\n      tag_313\n      tag_219\n      jump\t// in\n    tag_313:\n        /* \"#utility.yul\":2307:2395   */\n    tag_312:\n        /* \"#utility.yul\":2415:2425   */\n      dup1\n        /* \"#utility.yul\":2411:2413   */\n      0x40\n        /* \"#utility.yul\":2404:2426   */\n      mstore\n        /* \"#utility.yul\":2194:2432   */\n      pop\n        /* \"#utility.yul\":2151:2432   */\n      pop\n      pop\n      jump\t// out\n        /* \"#utility.yul\":2438:2567   */\n    tag_221:\n        /* \"#utility.yul\":2472:2478   */\n      0x00\n        /* \"#utility.yul\":2499:2519   */\n      tag_315\n      tag_207\n      jump\t// in\n    tag_315:\n        /* \"#utility.yul\":2489:2519   */\n      swap1\n      pop\n        /* \"#utility.yul\":2528:2561   */\n      tag_316\n        /* \"#utility.yul\":2556:2560   */\n      dup3\n        /* \"#utility.yul\":2548:2554   */\n      dup3\n        /* \"#utility.yul\":2528:2561   */\n      tag_220\n      jump\t// in\n    tag_316:\n        /* \"#utility.yul\":2438:2567   */\n      swap2\n      swap1\n      pop\n      jump\t// out\n        /* \"#utility.yul\":2573:2881   */\n    tag_222:\n        /* \"#utility.yul\":2635:2639   */\n      0x00\n        /* \"#utility.yul\":2725:2743   */\n      0xffffffffffffffff\n        /* \"#utility.yul\":2717:2723   */\n      dup3\n        /* \"#utility.yul\":2714:2744   */\n      gt\n        /* \"#utility.yul\":2711:2767   */\n      iszero\n      tag_318\n      jumpi\n        /* \"#utility.yul\":2747:2765   */\n      tag_319\n      tag_219\n      jump\t// in\n    tag_319:\n        /* \"#utility.yul\":2711:2767   */\n    tag_318:\n        /* \"#utility.yul\":2785:2814   */\n      tag_320\n        /* \"#utility.yul\":2807:2813   */\n      dup3\n        /* \"#utility.yul\":2785:2814   */\n      tag_218\n      jump\t// in\n    tag_320:\n        /* \"#utility.yul\":2777:2814   */\n      swap1\n      pop\n        /* \"#utility.yul\":2869:2873   */\n      0x20\n        /* \"#utility.yul\":2863:2867   */\n      dup2\n        /* \"#utility.yul\":2859:2874   */\n      add\n        /* \"#utility.yul\":2851:2874   */\n      swap1\n      pop\n        /* \"#utility.yul\":2573:2881   */\n      swap2\n      swap1\n      pop\n      jump\t// out\n        /* \"#utility.yul\":2887:3035   */\n    tag_223:\n        /* \"#utility.yul\":2985:2991   */\n      dup3\n        /* \"#utility.yul\":2980:2983   */\n      dup2\n        /* \"#utility.yul\":2975:2978   */\n      dup4\n        /* \"#utility.yul\":2962:2992   */\n      calldatacopy\n        /* \"#utility.yul\":3026:3027   */\n      0x00\n        /* \"#utility.yul\":3017:3023   */\n      dup4\n        /* \"#utility.yul\":3012:3015   */\n      dup4\n        /* \"#utility.yul\":3008:3024   */\n      add\n        /* \"#utility.yul\":3001:3028   */\n      mstore\n        /* \"#utility.yul\":2887:3035   */\n      pop\n      pop\n      pop\n      jump\t// out\n        /* \"#utility.yul\":3041:3466   */\n    tag_224:\n        /* \"#utility.yul\":3119:3124   */\n      0x00\n        /* \"#utility.yul\":3144:3210   */\n      tag_323\n        /* \"#utility.yul\":3160:3209   */\n      tag_324\n        /* \"#utility.yul\":3202:3208   */\n      dup5\n        /* \"#utility.yul\":3160:3209   */\n      tag_222\n      jump\t// in\n    tag_324:\n        /* \"#utility.yul\":3144:3210   */\n      tag_221\n      jump\t// in\n    tag_323:\n        /* \"#utility.yul\":3135:3210   */\n      swap1\n      pop\n        /* \"#utility.yul\":3233:3239   */\n      dup3\n        /* \"#utility.yul\":3226:3231   */\n      dup2\n        /* \"#utility.yul\":3219:3240   */\n      mstore\n        /* \"#utility.yul\":3271:3275   */\n      0x20\n        /* \"#utility.yul\":3264:3269   */\n      dup2\n        /* \"#utility.yul\":3260:3276   */\n      add\n        /* \"#utility.yul\":3309:3312   */\n      dup5\n        /* \"#utility.yul\":3300:3306   */\n      dup5\n        /* \"#utility.yul\":3295:3298   */\n      dup5\n        /* \"#utility.yul\":3291:3307   */\n      add\n        /* \"#utility.yul\":3288:3313   */\n      gt\n        /* \"#utility.yul\":3285:3397   */\n      iszero\n      tag_325\n      jumpi\n        /* \"#utility.yul\":3316:3395   */\n      tag_326\n      tag_217\n      jump\t// in\n    tag_326:\n        /* \"#utility.yul\":3285:3397   */\n    tag_325:\n        /* \"#utility.yul\":3406:3460   */\n      tag_327\n        /* \"#utility.yul\":3453:3459   */\n      dup5\n        /* \"#utility.yul\":3448:3451   */\n      dup3\n        /* \"#utility.yul\":3443:3446   */\n      dup6\n        /* \"#utility.yul\":3406:3460   */\n      tag_223\n      jump\t// in\n    tag_327:\n        /* \"#utility.yul\":3125:3466   */\n      pop\n        /* \"#utility.yul\":3041:3466   */\n      swap4\n      swap3\n      pop\n      pop\n      pop\n      jump\t// out\n        /* \"#utility.yul\":3486:3826   */\n    tag_225:\n        /* \"#utility.yul\":3542:3547   */\n      0x00\n        /* \"#utility.yul\":3591:3594   */\n      dup3\n        /* \"#utility.yul\":3584:3588   */\n      0x1f\n        /* \"#utility.yul\":3576:3582   */\n      dup4\n        /* \"#utility.yul\":3572:3589   */\n      add\n        /* \"#utility.yul\":3568:3595   */\n      slt\n        /* \"#utility.yul\":3558:3680   */\n      tag_329\n      jumpi\n        /* \"#utility.yul\":3599:3678   */\n      tag_330\n      tag_216\n      jump\t// in\n    tag_330:\n        /* \"#utility.yul\":3558:3680   */\n    tag_329:\n        /* \"#utility.yul\":3716:3722   */\n      dup2\n        /* \"#utility.yul\":3703:3723   */\n      calldataload\n        /* \"#utility.yul\":3741:3820   */\n      tag_331\n        /* \"#utility.yul\":3816:3819   */\n      dup5\n        /* \"#utility.yul\":3808:3814   */\n      dup3\n        /* \"#utility.yul\":3801:3805   */\n      0x20\n        /* \"#utility.yul\":3793:3799   */\n      dup7\n        /* \"#utility.yul\":3789:3806   */\n      add\n        /* \"#utility.yul\":3741:3820   */\n      tag_224\n      jump\t// in\n    tag_331:\n        /* \"#utility.yul\":3732:3820   */\n      swap2\n      pop\n        /* \"#utility.yul\":3548:3826   */\n      pop\n        /* \"#utility.yul\":3486:3826   */\n      swap3\n      swap2\n      pop\n      pop\n      jump\t// out\n        /* \"#utility.yul\":3832:4341   */\n    tag_32:\n        /* \"#utility.yul\":3901:3907   */\n      0x00\n        /* \"#utility.yul\":3950:3952   */\n      0x20\n        /* \"#utility.yul\":3938:3947   */\n      dup3\n        /* \"#utility.yul\":3929:3936   */\n      dup5\n        /* \"#utility.yul\":3925:3948   */\n      sub\n        /* \"#utility.yul\":3921:3953   */\n      slt\n        /* \"#utility.yul\":3918:4037   */\n      iszero\n      tag_333\n      jumpi\n        /* \"#utility.yul\":3956:4035   */\n      tag_334\n      tag_208\n      jump\t// in\n    tag_334:\n        /* \"#utility.yul\":3918:4037   */\n    tag_333:\n        /* \"#utility.yul\":4104:4105   */\n      0x00\n        /* \"#utility.yul\":4093:4102   */\n      dup3\n        /* \"#utility.yul\":4089:4106   */\n      add\n        /* \"#utility.yul\":4076:4107   */\n      calldataload\n        /* \"#utility.yul\":4134:4152   */\n      0xffffffffffffffff\n        /* \"#utility.yul\":4126:4132   */\n      dup2\n        /* \"#utility.yul\":4123:4153   */\n      gt\n        /* \"#utility.yul\":4120:4237   */\n      iszero\n      tag_335\n      jumpi\n        /* \"#utility.yul\":4156:4235   */\n      tag_336\n      tag_209\n      jump\t// in\n    tag_336:\n        /* \"#utility.yul\":4120:4237   */\n    tag_335:\n        /* \"#utility.yul\":4261:4324   */\n      tag_337\n        /* \"#utility.yul\":4316:4323   */\n      dup5\n        /* \"#utility.yul\":4307:4313   */\n      dup3\n        /* \"#utility.yul\":4296:4305   */\n      dup6\n        /* \"#utility.yul\":4292:4314   */\n      add\n        /* \"#utility.yul\":4261:4324   */\n      tag_225\n      jump\t// in\n    tag_337:\n        /* \"#utility.yul\":4251:4324   */\n      swap2\n      pop\n        /* \"#utility.yul\":4047:4334   */\n      pop\n        /* \"#utility.yul\":3832:4341   */\n      swap3\n      swap2\n      pop\n      pop\n      jump\t// out\n        /* \"#utility.yul\":4347:4471   */\n    tag_226:\n        /* \"#utility.yul\":4424:4430   */\n      0x00\n        /* \"#utility.yul\":4458:4463   */\n      dup2\n        /* \"#utility.yul\":4452:4464   */\n      mload\n        /* \"#utility.yul\":4442:4464   */\n      swap1\n      pop\n        /* \"#utility.yul\":4347:4471   */\n      swap2\n      swap1\n      pop\n      jump\t// out\n        /* \"#utility.yul\":4477:4671   */\n    tag_227:\n        /* \"#utility.yul\":4586:4597   */\n      0x00\n        /* \"#utility.yul\":4620:4626   */\n      dup3\n        /* \"#utility.yul\":4615:4618   */\n      dup3\n        /* \"#utility.yul\":4608:4627   */\n      mstore\n        /* \"#utility.yul\":4660:4664   */\n      0x20\n        /* \"#utility.yul\":4655:4658   */\n      dup3\n        /* \"#utility.yul\":4651:4665   */\n      add\n        /* \"#utility.yul\":4636:4665   */\n      swap1\n      pop\n        /* \"#utility.yul\":4477:4671   */\n      swap3\n      swap2\n      pop\n      pop\n      jump\t// out\n        /* \"#utility.yul\":4677:4819   */\n    tag_228:\n        /* \"#utility.yul\":4754:4758   */\n      0x00\n        /* \"#utility.yul\":4777:4780   */\n      dup2\n        /* \"#utility.yul\":4769:4780   */\n      swap1\n      pop\n        /* \"#utility.yul\":4807:4811   */\n      0x20\n        /* \"#utility.yul\":4802:4805   */\n      dup3\n        /* \"#utility.yul\":4798:4812   */\n      add\n        /* \"#utility.yul\":4790:4812   */\n      swap1\n      pop\n        /* \"#utility.yul\":4677:4819   */\n      swap2\n      swap1\n      pop\n      jump\t// out\n        /* \"#utility.yul\":4825:4924   */\n    tag_229:\n        /* \"#utility.yul\":4877:4883   */\n      0x00\n        /* \"#utility.yul\":4911:4916   */\n      dup2\n        /* \"#utility.yul\":4905:4917   */\n      mload\n        /* \"#utility.yul\":4895:4917   */\n      swap1\n      pop\n        /* \"#utility.yul\":4825:4924   */\n      swap2\n      swap1\n      pop\n      jump\t// out\n        /* \"#utility.yul\":4930:5089   */\n    tag_230:\n        /* \"#utility.yul\":5004:5015   */\n      0x00\n        /* \"#utility.yul\":5038:5044   */\n      dup3\n        /* \"#utility.yul\":5033:5036   */\n      dup3\n        /* \"#utility.yul\":5026:5045   */\n      mstore\n        /* \"#utility.yul\":5078:5082   */\n      0x20\n        /* \"#utility.yul\":5073:5076   */\n      dup3\n        /* \"#utility.yul\":5069:5083   */\n      add\n        /* \"#utility.yul\":5054:5083   */\n      swap1\n      pop\n        /* \"#utility.yul\":4930:5089   */\n      swap3\n      swap2\n      pop\n      pop\n      jump\t// out\n        /* \"#utility.yul\":5095:5234   */\n    tag_231:\n        /* \"#utility.yul\":5184:5190   */\n      dup3\n        /* \"#utility.yul\":5179:5182   */\n      dup2\n        /* \"#utility.yul\":5174:5177   */\n      dup4\n        /* \"#utility.yul\":5168:5191   */\n      mcopy\n        /* \"#utility.yul\":5225:5226   */\n      0x00\n        /* \"#utility.yul\":5216:5222   */\n      dup4\n        /* \"#utility.yul\":5211:5214   */\n      dup4\n        /* \"#utility.yul\":5207:5223   */\n      add\n        /* \"#utility.yul\":5200:5227   */\n      mstore\n        /* \"#utility.yul\":5095:5234   */\n      pop\n      pop\n      pop\n      jump\t// out\n        /* \"#utility.yul\":5240:5597   */\n    tag_232:\n        /* \"#utility.yul\":5318:5321   */\n      0x00\n        /* \"#utility.yul\":5346:5385   */\n      tag_345\n        /* \"#utility.yul\":5379:5384   */\n      dup3\n        /* \"#utility.yul\":5346:5385   */\n      tag_229\n      jump\t// in\n    tag_345:\n        /* \"#utility.yul\":5401:5462   */\n      tag_346\n        /* \"#utility.yul\":5455:5461   */\n      dup2\n        /* \"#utility.yul\":5450:5453   */\n      dup6\n        /* \"#utility.yul\":5401:5462   */\n      tag_230\n      jump\t// in\n    tag_346:\n        /* \"#utility.yul\":5394:5462   */\n      swap4\n      pop\n        /* \"#utility.yul\":5471:5536   */\n      tag_347\n        /* \"#utility.yul\":5529:5535   */\n      dup2\n        /* \"#utility.yul\":5524:5527   */\n      dup6\n        /* \"#utility.yul\":5517:5521   */\n      0x20\n        /* \"#utility.yul\":5510:5515   */\n      dup7\n        /* \"#utility.yul\":5506:5522   */\n      add\n        /* \"#utility.yul\":5471:5536   */\n      tag_231\n      jump\t// in\n    tag_347:\n        /* \"#utility.yul\":5561:5590   */\n      tag_348\n        /* \"#utility.yul\":5583:5589   */\n      dup2\n        /* \"#utility.yul\":5561:5590   */\n      tag_218\n      jump\t// in\n    tag_348:\n        /* \"#utility.yul\":5556:5559   */\n      dup5\n        /* \"#utility.yul\":5552:5591   */\n      add\n        /* \"#utility.yul\":5545:5591   */\n      swap2\n      pop\n        /* \"#utility.yul\":5322:5597   */\n      pop\n        /* \"#utility.yul\":5240:5597   */\n      swap3\n      swap2\n      pop\n      pop\n      jump\t// out\n        /* \"#utility.yul\":5603:5799   */\n    tag_233:\n        /* \"#utility.yul\":5692:5702   */\n      0x00\n        /* \"#utility.yul\":5727:5793   */\n      tag_350\n        /* \"#utility.yul\":5789:5792   */\n      dup4\n        /* \"#utility.yul\":5781:5787   */\n      dup4\n        /* \"#utility.yul\":5727:5793   */\n      tag_232\n      jump\t// in\n    tag_350:\n        /* \"#utility.yul\":5713:5793   */\n      swap1\n      pop\n        /* \"#utility.yul\":5603:5799   */\n      swap3\n      swap2\n      pop\n      pop\n      jump\t// out\n        /* \"#utility.yul\":5805:5928   */\n    tag_234:\n        /* \"#utility.yul\":5885:5889   */\n      0x00\n        /* \"#utility.yul\":5917:5921   */\n      0x20\n        /* \"#utility.yul\":5912:5915   */\n      dup3\n        /* \"#utility.yul\":5908:5922   */\n      add\n        /* \"#utility.yul\":5900:5922   */\n      swap1\n      pop\n        /* \"#utility.yul\":5805:5928   */\n      swap2\n      swap1\n      pop\n      jump\t// out\n        /* \"#utility.yul\":5962:6953   */\n    tag_235:\n        /* \"#utility.yul\":6101:6104   */\n      0x00\n        /* \"#utility.yul\":6130:6194   */\n      tag_353\n        /* \"#utility.yul\":6188:6193   */\n      dup3\n        /* \"#utility.yul\":6130:6194   */\n      tag_226\n      jump\t// in\n    tag_353:\n        /* \"#utility.yul\":6210:6306   */\n      tag_354\n        /* \"#utility.yul\":6299:6305   */\n      dup2\n        /* \"#utility.yul\":6294:6297   */\n      dup6\n        /* \"#utility.yul\":6210:6306   */\n      tag_227\n      jump\t// in\n    tag_354:\n        /* \"#utility.yul\":6203:6306   */\n      swap4\n      pop\n        /* \"#utility.yul\":6332:6335   */\n      dup4\n        /* \"#utility.yul\":6377:6381   */\n      0x20\n        /* \"#utility.yul\":6369:6375   */\n      dup3\n        /* \"#utility.yul\":6365:6382   */\n      mul\n        /* \"#utility.yul\":6360:6363   */\n      dup6\n        /* \"#utility.yul\":6356:6383   */\n      add\n        /* \"#utility.yul\":6407:6473   */\n      tag_355\n        /* \"#utility.yul\":6467:6472   */\n      dup6\n        /* \"#utility.yul\":6407:6473   */\n      tag_228\n      jump\t// in\n    tag_355:\n        /* \"#utility.yul\":6496:6503   */\n      dup1\n        /* \"#utility.yul\":6527:6528   */\n      0x00\n        /* \"#utility.yul\":6512:6908   */\n    tag_356:\n        /* \"#utility.yul\":6537:6543   */\n      dup6\n        /* \"#utility.yul\":6534:6535   */\n      dup2\n        /* \"#utility.yul\":6531:6544   */\n      lt\n        /* \"#utility.yul\":6512:6908   */\n      iszero\n      tag_358\n      jumpi\n        /* \"#utility.yul\":6608:6617   */\n      dup5\n        /* \"#utility.yul\":6602:6606   */\n      dup5\n        /* \"#utility.yul\":6598:6618   */\n      sub\n        /* \"#utility.yul\":6593:6596   */\n      dup10\n        /* \"#utility.yul\":6586:6619   */\n      mstore\n        /* \"#utility.yul\":6659:6665   */\n      dup2\n        /* \"#utility.yul\":6653:6666   */\n      mload\n        /* \"#utility.yul\":6687:6771   */\n      tag_359\n        /* \"#utility.yul\":6766:6770   */\n      dup6\n        /* \"#utility.yul\":6751:6764   */\n      dup3\n        /* \"#utility.yul\":6687:6771   */\n      tag_233\n      jump\t// in\n    tag_359:\n        /* \"#utility.yul\":6679:6771   */\n      swap5\n      pop\n        /* \"#utility.yul\":6794:6864   */\n      tag_360\n        /* \"#utility.yul\":6857:6863   */\n      dup4\n        /* \"#utility.yul\":6794:6864   */\n      tag_234\n      jump\t// in\n    tag_360:\n        /* \"#utility.yul\":6784:6864   */\n      swap3\n      pop\n        /* \"#utility.yul\":6893:6897   */\n      0x20\n        /* \"#utility.yul\":6888:6891   */\n      dup11\n        /* \"#utility.yul\":6884:6898   */\n      add\n        /* \"#utility.yul\":6877:6898   */\n      swap10\n      pop\n        /* \"#utility.yul\":6572:6908   */\n      pop\n        /* \"#utility.yul\":6559:6560   */\n      0x01\n        /* \"#utility.yul\":6556:6557   */\n      dup2\n        /* \"#utility.yul\":6552:6561   */\n      add\n        /* \"#utility.yul\":6547:6561   */\n      swap1\n      pop\n        /* \"#utility.yul\":6512:6908   */\n      jump(tag_356)\n    tag_358:\n        /* \"#utility.yul\":6516:6530   */\n      pop\n        /* \"#utility.yul\":6924:6928   */\n      dup3\n        /* \"#utility.yul\":6917:6928   */\n      swap8\n      pop\n        /* \"#utility.yul\":6944:6947   */\n      dup8\n        /* \"#utility.yul\":6937:6947   */\n      swap6\n      pop\n        /* \"#utility.yul\":6106:6953   */\n      pop\n      pop\n      pop\n      pop\n      pop\n        /* \"#utility.yul\":5962:6953   */\n      swap3\n      swap2\n      pop\n      pop\n      jump\t// out\n        /* \"#utility.yul\":6959:7372   */\n    tag_54:\n        /* \"#utility.yul\":7122:7126   */\n      0x00\n        /* \"#utility.yul\":7160:7162   */\n      0x20\n        /* \"#utility.yul\":7149:7158   */\n      dup3\n        /* \"#utility.yul\":7145:7163   */\n      add\n        /* \"#utility.yul\":7137:7163   */\n      swap1\n      pop\n        /* \"#utility.yul\":7209:7218   */\n      dup2\n        /* \"#utility.yul\":7203:7207   */\n      dup2\n        /* \"#utility.yul\":7199:7219   */\n      sub\n        /* \"#utility.yul\":7195:7196   */\n      0x00\n        /* \"#utility.yul\":7184:7193   */\n      dup4\n        /* \"#utility.yul\":7180:7197   */\n      add\n        /* \"#utility.yul\":7173:7220   */\n      mstore\n        /* \"#utility.yul\":7237:7365   */\n      tag_362\n        /* \"#utility.yul\":7360:7364   */\n      dup2\n        /* \"#utility.yul\":7351:7357   */\n      dup5\n        /* \"#utility.yul\":7237:7365   */\n      tag_235\n      jump\t// in\n    tag_362:\n        /* \"#utility.yul\":7229:7365   */\n      swap1\n      pop\n        /* \"#utility.yul\":6959:7372   */\n      swap3\n      swap2\n      pop\n      pop\n      jump\t// out\n        /* \"#utility.yul\":7378:7500   */\n    tag_236:\n        /* \"#utility.yul\":7451:7475   */\n      tag_364\n        /* \"#utility.yul\":7469:7474   */\n      dup2\n        /* \"#utility.yul\":7451:7475   */\n      tag_214\n      jump\t// in\n    tag_364:\n        /* \"#utility.yul\":7444:7449   */\n      dup2\n        /* \"#utility.yul\":7441:7476   */\n      eq\n        /* \"#utility.yul\":7431:7494   */\n      tag_365\n      jumpi\n        /* \"#utility.yul\":7490:7491   */\n      0x00\n        /* \"#utility.yul\":7487:7488   */\n      0x00\n        /* \"#utility.yul\":7480:7492   */\n      revert\n        /* \"#utility.yul\":7431:7494   */\n    tag_365:\n        /* \"#utility.yul\":7378:7500   */\n      pop\n      jump\t// out\n        /* \"#utility.yul\":7506:7645   */\n    tag_237:\n        /* \"#utility.yul\":7552:7557   */\n      0x00\n        /* \"#utility.yul\":7590:7596   */\n      dup2\n        /* \"#utility.yul\":7577:7597   */\n      calldataload\n        /* \"#utility.yul\":7568:7597   */\n      swap1\n      pop\n        /* \"#utility.yul\":7606:7639   */\n      tag_367\n        /* \"#utility.yul\":7633:7638   */\n      dup2\n        /* \"#utility.yul\":7606:7639   */\n      tag_236\n      jump\t// in\n    tag_367:\n        /* \"#utility.yul\":7506:7645   */\n      swap3\n      swap2\n      pop\n      pop\n      jump\t// out\n        /* \"#utility.yul\":7651:8305   */\n    tag_66:\n        /* \"#utility.yul\":7729:7735   */\n      0x00\n        /* \"#utility.yul\":7737:7743   */\n      0x00\n        /* \"#utility.yul\":7786:7788   */\n      0x40\n        /* \"#utility.yul\":7774:7783   */\n      dup4\n        /* \"#utility.yul\":7765:7772   */\n      dup6\n        /* \"#utility.yul\":7761:7784   */\n      sub\n        /* \"#utility.yul\":7757:7789   */\n      slt\n        /* \"#utility.yul\":7754:7873   */\n      iszero\n      tag_369\n      jumpi\n        /* \"#utility.yul\":7792:7871   */\n      tag_370\n      tag_208\n      jump\t// in\n    tag_370:\n        /* \"#utility.yul\":7754:7873   */\n    tag_369:\n        /* \"#utility.yul\":7940:7941   */\n      0x00\n        /* \"#utility.yul\":7929:7938   */\n      dup4\n        /* \"#utility.yul\":7925:7942   */\n      add\n        /* \"#utility.yul\":7912:7943   */\n      calldataload\n        /* \"#utility.yul\":7970:7988   */\n      0xffffffffffffffff\n        /* \"#utility.yul\":7962:7968   */\n      dup2\n        /* \"#utility.yul\":7959:7989   */\n      gt\n        /* \"#utility.yul\":7956:8073   */\n      iszero\n      tag_371\n      jumpi\n        /* \"#utility.yul\":7992:8071   */\n      tag_372\n      tag_209\n      jump\t// in\n    tag_372:\n        /* \"#utility.yul\":7956:8073   */\n    tag_371:\n        /* \"#utility.yul\":8097:8160   */\n      tag_373\n        /* \"#utility.yul\":8152:8159   */\n      dup6\n        /* \"#utility.yul\":8143:8149   */\n      dup3\n        /* \"#utility.yul\":8132:8141   */\n      dup7\n        /* \"#utility.yul\":8128:8150   */\n      add\n        /* \"#utility.yul\":8097:8160   */\n      tag_225\n      jump\t// in\n    tag_373:\n        /* \"#utility.yul\":8087:8160   */\n      swap3\n      pop\n        /* \"#utility.yul\":7883:8170   */\n      pop\n        /* \"#utility.yul\":8209:8211   */\n      0x20\n        /* \"#utility.yul\":8235:8288   */\n      tag_374\n        /* \"#utility.yul\":8280:8287   */\n      dup6\n        /* \"#utility.yul\":8271:8277   */\n      dup3\n        /* \"#utility.yul\":8260:8269   */\n      dup7\n        /* \"#utility.yul\":8256:8278   */\n      add\n        /* \"#utility.yul\":8235:8288   */\n      tag_237\n      jump\t// in\n    tag_374:\n        /* \"#utility.yul\":8225:8288   */\n      swap2\n      pop\n        /* \"#utility.yul\":8180:8298   */\n      pop\n        /* \"#utility.yul\":7651:8305   */\n      swap3\n      pop\n      swap3\n      swap1\n      pop\n      jump\t// out\n        /* \"#utility.yul\":8311:8429   */\n    tag_238:\n        /* \"#utility.yul\":8398:8422   */\n      tag_376\n        /* \"#utility.yul\":8416:8421   */\n      dup2\n        /* \"#utility.yul\":8398:8422   */\n      tag_211\n      jump\t// in\n    tag_376:\n        /* \"#utility.yul\":8393:8396   */\n      dup3\n        /* \"#utility.yul\":8386:8423   */\n      mstore\n        /* \"#utility.yul\":8311:8429   */\n      pop\n      pop\n      jump\t// out\n        /* \"#utility.yul\":8435:8657   */\n    tag_81:\n        /* \"#utility.yul\":8528:8532   */\n      0x00\n        /* \"#utility.yul\":8566:8568   */\n      0x20\n        /* \"#utility.yul\":8555:8564   */\n      dup3\n        /* \"#utility.yul\":8551:8569   */\n      add\n        /* \"#utility.yul\":8543:8569   */\n      swap1\n      pop\n        /* \"#utility.yul\":8579:8650   */\n      tag_378\n        /* \"#utility.yul\":8647:8648   */\n      0x00\n        /* \"#utility.yul\":8636:8645   */\n      dup4\n        /* \"#utility.yul\":8632:8649   */\n      add\n        /* \"#utility.yul\":8623:8629   */\n      dup5\n        /* \"#utility.yul\":8579:8650   */\n      tag_238\n      jump\t// in\n    tag_378:\n        /* \"#utility.yul\":8435:8657   */\n      swap3\n      swap2\n      pop\n      pop\n      jump\t// out\n        /* \"#utility.yul\":8663:8992   */\n    tag_85:\n        /* \"#utility.yul\":8722:8728   */\n      0x00\n        /* \"#utility.yul\":8771:8773   */\n      0x20\n        /* \"#utility.yul\":8759:8768   */\n      dup3\n        /* \"#utility.yul\":8750:8757   */\n      dup5\n        /* \"#utility.yul\":8746:8769   */\n      sub\n        /* \"#utility.yul\":8742:8774   */\n      slt\n        /* \"#utility.yul\":8739:8858   */\n      iszero\n      tag_380\n      jumpi\n        /* \"#utility.yul\":8777:8856   */\n      tag_381\n      tag_208\n      jump\t// in\n    tag_381:\n        /* \"#utility.yul\":8739:8858   */\n    tag_380:\n        /* \"#utility.yul\":8897:8898   */\n      0x00\n        /* \"#utility.yul\":8922:8975   */\n      tag_382\n        /* \"#utility.yul\":8967:8974   */\n      dup5\n        /* \"#utility.yul\":8958:8964   */\n      dup3\n        /* \"#utility.yul\":8947:8956   */\n      dup6\n        /* \"#utility.yul\":8943:8965   */\n      add\n        /* \"#utility.yul\":8922:8975   */\n      tag_237\n      jump\t// in\n    tag_382:\n        /* \"#utility.yul\":8912:8975   */\n      swap2\n      pop\n        /* \"#utility.yul\":8868:8985   */\n      pop\n        /* \"#utility.yul\":8663:8992   */\n      swap3\n      swap2\n      pop\n      pop\n      jump\t// out\n        /* \"#utility.yul\":8998:9167   */\n    tag_239:\n        /* \"#utility.yul\":9082:9093   */\n      0x00\n        /* \"#utility.yul\":9116:9122   */\n      dup3\n        /* \"#utility.yul\":9111:9114   */\n      dup3\n        /* \"#utility.yul\":9104:9123   */\n      mstore\n        /* \"#utility.yul\":9156:9160   */\n      0x20\n        /* \"#utility.yul\":9151:9154   */\n      dup3\n        /* \"#utility.yul\":9147:9161   */\n      add\n        /* \"#utility.yul\":9132:9161   */\n      swap1\n      pop\n        /* \"#utility.yul\":8998:9167   */\n      swap3\n      swap2\n      pop\n      pop\n      jump\t// out\n        /* \"#utility.yul\":9173:9550   */\n    tag_240:\n        /* \"#utility.yul\":9261:9264   */\n      0x00\n        /* \"#utility.yul\":9289:9328   */\n      tag_385\n        /* \"#utility.yul\":9322:9327   */\n      dup3\n        /* \"#utility.yul\":9289:9328   */\n      tag_229\n      jump\t// in\n    tag_385:\n        /* \"#utility.yul\":9344:9415   */\n      tag_386\n        /* \"#utility.yul\":9408:9414   */\n      dup2\n        /* \"#utility.yul\":9403:9406   */\n      dup6\n        /* \"#utility.yul\":9344:9415   */\n      tag_239\n      jump\t// in\n    tag_386:\n        /* \"#utility.yul\":9337:9415   */\n      swap4\n      pop\n        /* \"#utility.yul\":9424:9489   */\n      tag_387\n        /* \"#utility.yul\":9482:9488   */\n      dup2\n        /* \"#utility.yul\":9477:9480   */\n      dup6\n        /* \"#utility.yul\":9470:9474   */\n      0x20\n        /* \"#utility.yul\":9463:9468   */\n      dup7\n        /* \"#utility.yul\":9459:9475   */\n      add\n        /* \"#utility.yul\":9424:9489   */\n      tag_231\n      jump\t// in\n    tag_387:\n        /* \"#utility.yul\":9514:9543   */\n      tag_388\n        /* \"#utility.yul\":9536:9542   */\n      dup2\n        /* \"#utility.yul\":9514:9543   */\n      tag_218\n      jump\t// in\n    tag_388:\n        /* \"#utility.yul\":9509:9512   */\n      dup5\n        /* \"#utility.yul\":9505:9544   */\n      add\n        /* \"#utility.yul\":9498:9544   */\n      swap2\n      pop\n        /* \"#utility.yul\":9265:9550   */\n      pop\n        /* \"#utility.yul\":9173:9550   */\n      swap3\n      swap2\n      pop\n      pop\n      jump\t// out\n        /* \"#utility.yul\":9556:9869   */\n    tag_88:\n        /* \"#utility.yul\":9669:9673   */\n      0x00\n        /* \"#utility.yul\":9707:9709   */\n      0x20\n        /* \"#utility.yul\":9696:9705   */\n      dup3\n        /* \"#utility.yul\":9692:9710   */\n      add\n        /* \"#utility.yul\":9684:9710   */\n      swap1\n      pop\n        /* \"#utility.yul\":9756:9765   */\n      dup2\n        /* \"#utility.yul\":9750:9754   */\n      dup2\n        /* \"#utility.yul\":9746:9766   */\n      sub\n        /* \"#utility.yul\":9742:9743   */\n      0x00\n        /* \"#utility.yul\":9731:9740   */\n      dup4\n        /* \"#utility.yul\":9727:9744   */\n      add\n        /* \"#utility.yul\":9720:9767   */\n      mstore\n        /* \"#utility.yul\":9784:9862   */\n      tag_390\n        /* \"#utility.yul\":9857:9861   */\n      dup2\n        /* \"#utility.yul\":9848:9854   */\n      dup5\n        /* \"#utility.yul\":9784:9862   */\n      tag_240\n      jump\t// in\n    tag_390:\n        /* \"#utility.yul\":9776:9862   */\n      swap1\n      pop\n        /* \"#utility.yul\":9556:9869   */\n      swap3\n      swap2\n      pop\n      pop\n      jump\t// out\n        /* \"#utility.yul\":9875:10023   */\n    tag_241:\n        /* \"#utility.yul\":9977:9988   */\n      0x00\n        /* \"#utility.yul\":10014:10017   */\n      dup2\n        /* \"#utility.yul\":9999:10017   */\n      swap1\n      pop\n        /* \"#utility.yul\":9875:10023   */\n      swap3\n      swap2\n      pop\n      pop\n      jump\t// out\n        /* \"#utility.yul\":10029:10419   */\n    tag_242:\n        /* \"#utility.yul\":10135:10138   */\n      0x00\n        /* \"#utility.yul\":10163:10202   */\n      tag_393\n        /* \"#utility.yul\":10196:10201   */\n      dup3\n        /* \"#utility.yul\":10163:10202   */\n      tag_229\n      jump\t// in\n    tag_393:\n        /* \"#utility.yul\":10218:10307   */\n      tag_394\n        /* \"#utility.yul\":10300:10306   */\n      dup2\n        /* \"#utility.yul\":10295:10298   */\n      dup6\n        /* \"#utility.yul\":10218:10307   */\n      tag_241\n      jump\t// in\n    tag_394:\n        /* \"#utility.yul\":10211:10307   */\n      swap4\n      pop\n        /* \"#utility.yul\":10316:10381   */\n      tag_395\n        /* \"#utility.yul\":10374:10380   */\n      dup2\n        /* \"#utility.yul\":10369:10372   */\n      dup6\n        /* \"#utility.yul\":10362:10366   */\n      0x20\n        /* \"#utility.yul\":10355:10360   */\n      dup7\n        /* \"#utility.yul\":10351:10367   */\n      add\n        /* \"#utility.yul\":10316:10381   */\n      tag_231\n      jump\t// in\n    tag_395:\n        /* \"#utility.yul\":10406:10412   */\n      dup1\n        /* \"#utility.yul\":10401:10404   */\n      dup5\n        /* \"#utility.yul\":10397:10413   */\n      add\n        /* \"#utility.yul\":10390:10413   */\n      swap2\n      pop\n        /* \"#utility.yul\":10139:10419   */\n      pop\n        /* \"#utility.yul\":10029:10419   */\n      swap3\n      swap2\n      pop\n      pop\n      jump\t// out\n        /* \"#utility.yul\":10425:10700   */\n    tag_104:\n        /* \"#utility.yul\":10557:10560   */\n      0x00\n        /* \"#utility.yul\":10579:10674   */\n      tag_397\n        /* \"#utility.yul\":10670:10673   */\n      dup3\n        /* \"#utility.yul\":10661:10667   */\n      dup5\n        /* \"#utility.yul\":10579:10674   */\n      tag_242\n      jump\t// in\n    tag_397:\n        /* \"#utility.yul\":10572:10674   */\n      swap2\n      pop\n        /* \"#utility.yul\":10691:10694   */\n      dup2\n        /* \"#utility.yul\":10684:10694   */\n      swap1\n      pop\n        /* \"#utility.yul\":10425:10700   */\n      swap3\n      swap2\n      pop\n      pop\n      jump\t// out\n        /* \"#utility.yul\":10706:10878   */\n    tag_243:\n        /* \"#utility.yul\":10846:10870   */\n      0x43757272656e6379206e6f7420737570706f7274656400000000000000000000\n        /* \"#utility.yul\":10842:10843   */\n      0x00\n        /* \"#utility.yul\":10834:10840   */\n      dup3\n        /* \"#utility.yul\":10830:10844   */\n      add\n        /* \"#utility.yul\":10823:10871   */\n      mstore\n        /* \"#utility.yul\":10706:10878   */\n      pop\n      jump\t// out\n        /* \"#utility.yul\":10884:11250   */\n    tag_244:\n        /* \"#utility.yul\":11026:11029   */\n      0x00\n        /* \"#utility.yul\":11047:11114   */\n      tag_400\n        /* \"#utility.yul\":11111:11113   */\n      0x16\n        /* \"#utility.yul\":11106:11109   */\n      dup4\n        /* \"#utility.yul\":11047:11114   */\n      tag_239\n      jump\t// in\n    tag_400:\n        /* \"#utility.yul\":11040:11114   */\n      swap2\n      pop\n        /* \"#utility.yul\":11123:11216   */\n      tag_401\n        /* \"#utility.yul\":11212:11215   */\n      dup3\n        /* \"#utility.yul\":11123:11216   */\n      tag_243\n      jump\t// in\n    tag_401:\n        /* \"#utility.yul\":11241:11243   */\n      0x20\n        /* \"#utility.yul\":11236:11239   */\n      dup3\n        /* \"#utility.yul\":11232:11244   */\n      add\n        /* \"#utility.yul\":11225:11244   */\n      swap1\n      pop\n        /* \"#utility.yul\":10884:11250   */\n      swap2\n      swap1\n      pop\n      jump\t// out\n        /* \"#utility.yul\":11256:11675   */\n    tag_109:\n        /* \"#utility.yul\":11422:11426   */\n      0x00\n        /* \"#utility.yul\":11460:11462   */\n      0x20\n        /* \"#utility.yul\":11449:11458   */\n      dup3\n        /* \"#utility.yul\":11445:11463   */\n      add\n        /* \"#utility.yul\":11437:11463   */\n      swap1\n      pop\n        /* \"#utility.yul\":11509:11518   */\n      dup2\n        /* \"#utility.yul\":11503:11507   */\n      dup2\n        /* \"#utility.yul\":11499:11519   */\n      sub\n        /* \"#utility.yul\":11495:11496   */\n      0x00\n        /* \"#utility.yul\":11484:11493   */\n      dup4\n        /* \"#utility.yul\":11480:11497   */\n      add\n        /* \"#utility.yul\":11473:11520   */\n      mstore\n        /* \"#utility.yul\":11537:11668   */\n      tag_403\n        /* \"#utility.yul\":11663:11667   */\n      dup2\n        /* \"#utility.yul\":11537:11668   */\n      tag_244\n      jump\t// in\n    tag_403:\n        /* \"#utility.yul\":11529:11668   */\n      swap1\n      pop\n        /* \"#utility.yul\":11256:11675   */\n      swap2\n      swap1\n      pop\n      jump\t// out\n        /* \"#utility.yul\":11681:11861   */\n    tag_245:\n        /* \"#utility.yul\":11729:11806   */\n      0x4e487b7100000000000000000000000000000000000000000000000000000000\n        /* \"#utility.yul\":11726:11727   */\n      0x00\n        /* \"#utility.yul\":11719:11807   */\n      mstore\n        /* \"#utility.yul\":11826:11830   */\n      0x22\n        /* \"#utility.yul\":11823:11824   */\n      0x04\n        /* \"#utility.yul\":11816:11831   */\n      mstore\n        /* \"#utility.yul\":11850:11854   */\n      0x24\n        /* \"#utility.yul\":11847:11848   */\n      0x00\n        /* \"#utility.yul\":11840:11855   */\n      revert\n        /* \"#utility.yul\":11867:12187   */\n    tag_117:\n        /* \"#utility.yul\":11911:11917   */\n      0x00\n        /* \"#utility.yul\":11948:11949   */\n      0x02\n        /* \"#utility.yul\":11942:11946   */\n      dup3\n        /* \"#utility.yul\":11938:11950   */\n      div\n        /* \"#utility.yul\":11928:11950   */\n      swap1\n      pop\n        /* \"#utility.yul\":11995:11996   */\n      0x01\n        /* \"#utility.yul\":11989:11993   */\n      dup3\n        /* \"#utility.yul\":11985:11997   */\n      and\n        /* \"#utility.yul\":12016:12034   */\n      dup1\n        /* \"#utility.yul\":12006:12087   */\n      tag_406\n      jumpi\n        /* \"#utility.yul\":12072:12076   */\n      0x7f\n        /* \"#utility.yul\":12064:12070   */\n      dup3\n        /* \"#utility.yul\":12060:12077   */\n      and\n        /* \"#utility.yul\":12050:12077   */\n      swap2\n      pop\n        /* \"#utility.yul\":12006:12087   */\n    tag_406:\n        /* \"#utility.yul\":12134:12136   */\n      0x20\n        /* \"#utility.yul\":12126:12132   */\n      dup3\n        /* \"#utility.yul\":12123:12137   */\n      lt\n        /* \"#utility.yul\":12103:12121   */\n      dup2\n        /* \"#utility.yul\":12100:12138   */\n      sub\n        /* \"#utility.yul\":12097:12181   */\n      tag_407\n      jumpi\n        /* \"#utility.yul\":12153:12171   */\n      tag_408\n      tag_245\n      jump\t// in\n    tag_408:\n        /* \"#utility.yul\":12097:12181   */\n    tag_407:\n        /* \"#utility.yul\":11918:12187   */\n      pop\n        /* \"#utility.yul\":11867:12187   */\n      swap2\n      swap1\n      pop\n      jump\t// out\n        /* \"#utility.yul\":12193:12414   */\n    tag_246:\n        /* \"#utility.yul\":12333:12367   */\n      0x4f6e6c79206f776e65722063616e20706572666f726d20746869732061637469\n        /* \"#utility.yul\":12329:12330   */\n      0x00\n        /* \"#utility.yul\":12321:12327   */\n      dup3\n        /* \"#utility.yul\":12317:12331   */\n      add\n        /* \"#utility.yul\":12310:12368   */\n      mstore\n        /* \"#utility.yul\":12402:12406   */\n      0x6f6e000000000000000000000000000000000000000000000000000000000000\n        /* \"#utility.yul\":12397:12399   */\n      0x20\n        /* \"#utility.yul\":12389:12395   */\n      dup3\n        /* \"#utility.yul\":12385:12400   */\n      add\n        /* \"#utility.yul\":12378:12407   */\n      mstore\n        /* \"#utility.yul\":12193:12414   */\n      pop\n      jump\t// out\n        /* \"#utility.yul\":12420:12786   */\n    tag_247:\n        /* \"#utility.yul\":12562:12565   */\n      0x00\n        /* \"#utility.yul\":12583:12650   */\n      tag_411\n        /* \"#utility.yul\":12647:12649   */\n      0x22\n        /* \"#utility.yul\":12642:12645   */\n      dup4\n        /* \"#utility.yul\":12583:12650   */\n      tag_239\n      jump\t// in\n    tag_411:\n        /* \"#utility.yul\":12576:12650   */\n      swap2\n      pop\n        /* \"#utility.yul\":12659:12752   */\n      tag_412\n        /* \"#utility.yul\":12748:12751   */\n      dup3\n        /* \"#utility.yul\":12659:12752   */\n      tag_246\n      jump\t// in\n    tag_412:\n        /* \"#utility.yul\":12777:12779   */\n      0x40\n        /* \"#utility.yul\":12772:12775   */\n      dup3\n        /* \"#utility.yul\":12768:12780   */\n      add\n        /* \"#utility.yul\":12761:12780   */\n      swap1\n      pop\n        /* \"#utility.yul\":12420:12786   */\n      swap2\n      swap1\n      pop\n      jump\t// out\n        /* \"#utility.yul\":12792:13211   */\n    tag_125:\n        /* \"#utility.yul\":12958:12962   */\n      0x00\n        /* \"#utility.yul\":12996:12998   */\n      0x20\n        /* \"#utility.yul\":12985:12994   */\n      dup3\n        /* \"#utility.yul\":12981:12999   */\n      add\n        /* \"#utility.yul\":12973:12999   */\n      swap1\n      pop\n        /* \"#utility.yul\":13045:13054   */\n      dup2\n        /* \"#utility.yul\":13039:13043   */\n      dup2\n        /* \"#utility.yul\":13035:13055   */\n      sub\n        /* \"#utility.yul\":13031:13032   */\n      0x00\n        /* \"#utility.yul\":13020:13029   */\n      dup4\n        /* \"#utility.yul\":13016:13033   */\n      add\n        /* \"#utility.yul\":13009:13056   */\n      mstore\n        /* \"#utility.yul\":13073:13204   */\n      tag_414\n        /* \"#utility.yul\":13199:13203   */\n      dup2\n        /* \"#utility.yul\":13073:13204   */\n      tag_247\n      jump\t// in\n    tag_414:\n        /* \"#utility.yul\":13065:13204   */\n      swap1\n      pop\n        /* \"#utility.yul\":12792:13211   */\n      swap2\n      swap1\n      pop\n      jump\t// out\n        /* \"#utility.yul\":13217:13386   */\n    tag_248:\n        /* \"#utility.yul\":13357:13378   */\n      0x4e6f207469707320746f20776974686472617700000000000000000000000000\n        /* \"#utility.yul\":13353:13354   */\n      0x00\n        /* \"#utility.yul\":13345:13351   */\n      dup3\n        /* \"#utility.yul\":13341:13355   */\n      add\n        /* \"#utility.yul\":13334:13379   */\n      mstore\n        /* \"#utility.yul\":13217:13386   */\n      pop\n      jump\t// out\n        /* \"#utility.yul\":13392:13758   */\n    tag_249:\n        /* \"#utility.yul\":13534:13537   */\n      0x00\n        /* \"#utility.yul\":13555:13622   */\n      tag_417\n        /* \"#utility.yul\":13619:13621   */\n      0x13\n        /* \"#utility.yul\":13614:13617   */\n      dup4\n        /* \"#utility.yul\":13555:13622   */\n      tag_239\n      jump\t// in\n    tag_417:\n        /* \"#utility.yul\":13548:13622   */\n      swap2\n      pop\n        /* \"#utility.yul\":13631:13724   */\n      tag_418\n        /* \"#utility.yul\":13720:13723   */\n      dup3\n        /* \"#utility.yul\":13631:13724   */\n      tag_248\n      jump\t// in\n    tag_418:\n        /* \"#utility.yul\":13749:13751   */\n      0x20\n        /* \"#utility.yul\":13744:13747   */\n      dup3\n        /* \"#utility.yul\":13740:13752   */\n      add\n        /* \"#utility.yul\":13733:13752   */\n      swap1\n      pop\n        /* \"#utility.yul\":13392:13758   */\n      swap2\n      swap1\n      pop\n      jump\t// out\n        /* \"#utility.yul\":13764:14183   */\n    tag_129:\n        /* \"#utility.yul\":13930:13934   */\n      0x00\n        /* \"#utility.yul\":13968:13970   */\n      0x20\n        /* \"#utility.yul\":13957:13966   */\n      dup3\n        /* \"#utility.yul\":13953:13971   */\n      add\n        /* \"#utility.yul\":13945:13971   */\n      swap1\n      pop\n        /* \"#utility.yul\":14017:14026   */\n      dup2\n        /* \"#utility.yul\":14011:14015   */\n      dup2\n        /* \"#utility.yul\":14007:14027   */\n      sub\n        /* \"#utility.yul\":14003:14004   */\n      0x00\n        /* \"#utility.yul\":13992:14001   */\n      dup4\n        /* \"#utility.yul\":13988:14005   */\n      add\n        /* \"#utility.yul\":13981:14028   */\n      mstore\n        /* \"#utility.yul\":14045:14176   */\n      tag_420\n        /* \"#utility.yul\":14171:14175   */\n      dup2\n        /* \"#utility.yul\":14045:14176   */\n      tag_249\n      jump\t// in\n    tag_420:\n        /* \"#utility.yul\":14037:14176   */\n      swap1\n      pop\n        /* \"#utility.yul\":13764:14183   */\n      swap2\n      swap1\n      pop\n      jump\t// out\n        /* \"#utility.yul\":14189:14336   */\n    tag_250:\n        /* \"#utility.yul\":14290:14301   */\n      0x00\n        /* \"#utility.yul\":14327:14330   */\n      dup2\n        /* \"#utility.yul\":14312:14330   */\n      swap1\n      pop\n        /* \"#utility.yul\":14189:14336   */\n      swap3\n      swap2\n      pop\n      pop\n      jump\t// out\n        /* \"#utility.yul\":14342:14456   */\n    tag_251:\n      pop\n      jump\t// out\n        /* \"#utility.yul\":14462:14860   */\n    tag_252:\n        /* \"#utility.yul\":14621:14624   */\n      0x00\n        /* \"#utility.yul\":14642:14725   */\n      tag_424\n        /* \"#utility.yul\":14723:14724   */\n      0x00\n        /* \"#utility.yul\":14718:14721   */\n      dup4\n        /* \"#utility.yul\":14642:14725   */\n      tag_250\n      jump\t// in\n    tag_424:\n        /* \"#utility.yul\":14635:14725   */\n      swap2\n      pop\n        /* \"#utility.yul\":14734:14827   */\n      tag_425\n        /* \"#utility.yul\":14823:14826   */\n      dup3\n        /* \"#utility.yul\":14734:14827   */\n      tag_251\n      jump\t// in\n    tag_425:\n        /* \"#utility.yul\":14852:14853   */\n      0x00\n        /* \"#utility.yul\":14847:14850   */\n      dup3\n        /* \"#utility.yul\":14843:14854   */\n      add\n        /* \"#utility.yul\":14836:14854   */\n      swap1\n      pop\n        /* \"#utility.yul\":14462:14860   */\n      swap2\n      swap1\n      pop\n      jump\t// out\n        /* \"#utility.yul\":14866:15245   */\n    tag_131:\n        /* \"#utility.yul\":15050:15053   */\n      0x00\n        /* \"#utility.yul\":15072:15219   */\n      tag_427\n        /* \"#utility.yul\":15215:15218   */\n      dup3\n        /* \"#utility.yul\":15072:15219   */\n      tag_252\n      jump\t// in\n    tag_427:\n        /* \"#utility.yul\":15065:15219   */\n      swap2\n      pop\n        /* \"#utility.yul\":15236:15239   */\n      dup2\n        /* \"#utility.yul\":15229:15239   */\n      swap1\n      pop\n        /* \"#utility.yul\":14866:15245   */\n      swap2\n      swap1\n      pop\n      jump\t// out\n        /* \"#utility.yul\":15251:15416   */\n    tag_253:\n        /* \"#utility.yul\":15391:15408   */\n      0x5472616e73666572206661696c65640000000000000000000000000000000000\n        /* \"#utility.yul\":15387:15388   */\n      0x00\n        /* \"#utility.yul\":15379:15385   */\n      dup3\n        /* \"#utility.yul\":15375:15389   */\n      add\n        /* \"#utility.yul\":15368:15409   */\n      mstore\n        /* \"#utility.yul\":15251:15416   */\n      pop\n      jump\t// out\n        /* \"#utility.yul\":15422:15788   */\n    tag_254:\n        /* \"#utility.yul\":15564:15567   */\n      0x00\n        /* \"#utility.yul\":15585:15652   */\n      tag_430\n        /* \"#utility.yul\":15649:15651   */\n      0x0f\n        /* \"#utility.yul\":15644:15647   */\n      dup4\n        /* \"#utility.yul\":15585:15652   */\n      tag_239\n      jump\t// in\n    tag_430:\n        /* \"#utility.yul\":15578:15652   */\n      swap2\n      pop\n        /* \"#utility.yul\":15661:15754   */\n      tag_431\n        /* \"#utility.yul\":15750:15753   */\n      dup3\n        /* \"#utility.yul\":15661:15754   */\n      tag_253\n      jump\t// in\n    tag_431:\n        /* \"#utility.yul\":15779:15781   */\n      0x20\n        /* \"#utility.yul\":15774:15777   */\n      dup3\n        /* \"#utility.yul\":15770:15782   */\n      add\n        /* \"#utility.yul\":15763:15782   */\n      swap1\n      pop\n        /* \"#utility.yul\":15422:15788   */\n      swap2\n      swap1\n      pop\n      jump\t// out\n        /* \"#utility.yul\":15794:16213   */\n    tag_137:\n        /* \"#utility.yul\":15960:15964   */\n      0x00\n        /* \"#utility.yul\":15998:16000   */\n      0x20\n        /* \"#utility.yul\":15987:15996   */\n      dup3\n        /* \"#utility.yul\":15983:16001   */\n      add\n        /* \"#utility.yul\":15975:16001   */\n      swap1\n      pop\n        /* \"#utility.yul\":16047:16056   */\n      dup2\n        /* \"#utility.yul\":16041:16045   */\n      dup2\n        /* \"#utility.yul\":16037:16057   */\n      sub\n        /* \"#utility.yul\":16033:16034   */\n      0x00\n        /* \"#utility.yul\":16022:16031   */\n      dup4\n        /* \"#utility.yul\":16018:16035   */\n      add\n        /* \"#utility.yul\":16011:16058   */\n      mstore\n        /* \"#utility.yul\":16075:16206   */\n      tag_433\n        /* \"#utility.yul\":16201:16205   */\n      dup2\n        /* \"#utility.yul\":16075:16206   */\n      tag_254\n      jump\t// in\n    tag_433:\n        /* \"#utility.yul\":16067:16206   */\n      swap1\n      pop\n        /* \"#utility.yul\":15794:16213   */\n      swap2\n      swap1\n      pop\n      jump\t// out\n        /* \"#utility.yul\":16219:16444   */\n    tag_255:\n        /* \"#utility.yul\":16359:16393   */\n      0x436f6e76657273696f6e2072617465206d757374206265206772656174657220\n        /* \"#utility.yul\":16355:16356   */\n      0x00\n        /* \"#utility.yul\":16347:16353   */\n      dup3\n        /* \"#utility.yul\":16343:16357   */\n      add\n        /* \"#utility.yul\":16336:16394   */\n      mstore\n        /* \"#utility.yul\":16428:16436   */\n      0x7468616e20300000000000000000000000000000000000000000000000000000\n        /* \"#utility.yul\":16423:16425   */\n      0x20\n        /* \"#utility.yul\":16415:16421   */\n      dup3\n        /* \"#utility.yul\":16411:16426   */\n      add\n        /* \"#utility.yul\":16404:16437   */\n      mstore\n        /* \"#utility.yul\":16219:16444   */\n      pop\n      jump\t// out\n        /* \"#utility.yul\":16450:16816   */\n    tag_256:\n        /* \"#utility.yul\":16592:16595   */\n      0x00\n        /* \"#utility.yul\":16613:16680   */\n      tag_436\n        /* \"#utility.yul\":16677:16679   */\n      0x26\n        /* \"#utility.yul\":16672:16675   */\n      dup4\n        /* \"#utility.yul\":16613:16680   */\n      tag_239\n      jump\t// in\n    tag_436:\n        /* \"#utility.yul\":16606:16680   */\n      swap2\n      pop\n        /* \"#utility.yul\":16689:16782   */\n      tag_437\n        /* \"#utility.yul\":16778:16781   */\n      dup3\n        /* \"#utility.yul\":16689:16782   */\n      tag_255\n      jump\t// in\n    tag_437:\n        /* \"#utility.yul\":16807:16809   */\n      0x40\n        /* \"#utility.yul\":16802:16805   */\n      dup3\n        /* \"#utility.yul\":16798:16810   */\n      add\n        /* \"#utility.yul\":16791:16810   */\n      swap1\n      pop\n        /* \"#utility.yul\":16450:16816   */\n      swap2\n      swap1\n      pop\n      jump\t// out\n        /* \"#utility.yul\":16822:17241   */\n    tag_144:\n        /* \"#utility.yul\":16988:16992   */\n      0x00\n        /* \"#utility.yul\":17026:17028   */\n      0x20\n        /* \"#utility.yul\":17015:17024   */\n      dup3\n        /* \"#utility.yul\":17011:17029   */\n      add\n        /* \"#utility.yul\":17003:17029   */\n      swap1\n      pop\n        /* \"#utility.yul\":17075:17084   */\n      dup2\n        /* \"#utility.yul\":17069:17073   */\n      dup2\n        /* \"#utility.yul\":17065:17085   */\n      sub\n        /* \"#utility.yul\":17061:17062   */\n      0x00\n        /* \"#utility.yul\":17050:17059   */\n      dup4\n        /* \"#utility.yul\":17046:17063   */\n      add\n        /* \"#utility.yul\":17039:17086   */\n      mstore\n        /* \"#utility.yul\":17103:17234   */\n      tag_439\n        /* \"#utility.yul\":17229:17233   */\n      dup2\n        /* \"#utility.yul\":17103:17234   */\n      tag_256\n      jump\t// in\n    tag_439:\n        /* \"#utility.yul\":17095:17234   */\n      swap1\n      pop\n        /* \"#utility.yul\":16822:17241   */\n      swap2\n      swap1\n      pop\n      jump\t// out\n        /* \"#utility.yul\":17247:17427   */\n    tag_150:\n        /* \"#utility.yul\":17295:17372   */\n      0x4e487b7100000000000000000000000000000000000000000000000000000000\n        /* \"#utility.yul\":17292:17293   */\n      0x00\n        /* \"#utility.yul\":17285:17373   */\n      mstore\n        /* \"#utility.yul\":17392:17396   */\n      0x32\n        /* \"#utility.yul\":17389:17390   */\n      0x04\n        /* \"#utility.yul\":17382:17397   */\n      mstore\n        /* \"#utility.yul\":17416:17420   */\n      0x24\n        /* \"#utility.yul\":17413:17414   */\n      0x00\n        /* \"#utility.yul\":17406:17421   */\n      revert\n        /* \"#utility.yul\":17433:17577   */\n    tag_257:\n        /* \"#utility.yul\":17485:17489   */\n      0x00\n        /* \"#utility.yul\":17508:17511   */\n      dup2\n        /* \"#utility.yul\":17500:17511   */\n      swap1\n      pop\n        /* \"#utility.yul\":17531:17534   */\n      dup2\n        /* \"#utility.yul\":17528:17529   */\n      0x00\n        /* \"#utility.yul\":17521:17535   */\n      mstore\n        /* \"#utility.yul\":17565:17569   */\n      0x20\n        /* \"#utility.yul\":17562:17563   */\n      0x00\n        /* \"#utility.yul\":17552:17570   */\n      keccak256\n        /* \"#utility.yul\":17544:17570   */\n      swap1\n      pop\n        /* \"#utility.yul\":17433:17577   */\n      swap2\n      swap1\n      pop\n      jump\t// out\n        /* \"#utility.yul\":17605:18483   */\n    tag_258:\n        /* \"#utility.yul\":17710:17713   */\n      0x00\n        /* \"#utility.yul\":17747:17752   */\n      dup2\n        /* \"#utility.yul\":17741:17753   */\n      sload\n        /* \"#utility.yul\":17776:17812   */\n      tag_443\n        /* \"#utility.yul\":17802:17811   */\n      dup2\n        /* \"#utility.yul\":17776:17812   */\n      tag_117\n      jump\t// in\n    tag_443:\n        /* \"#utility.yul\":17828:17916   */\n      tag_444\n        /* \"#utility.yul\":17909:17915   */\n      dup2\n        /* \"#utility.yul\":17904:17907   */\n      dup7\n        /* \"#utility.yul\":17828:17916   */\n      tag_250\n      jump\t// in\n    tag_444:\n        /* \"#utility.yul\":17821:17916   */\n      swap5\n      pop\n        /* \"#utility.yul\":17947:17948   */\n      0x01\n        /* \"#utility.yul\":17936:17945   */\n      dup3\n        /* \"#utility.yul\":17932:17949   */\n      and\n        /* \"#utility.yul\":17963:17964   */\n      0x00\n        /* \"#utility.yul\":17958:18124   */\n      dup2\n      eq\n      tag_446\n      jumpi\n        /* \"#utility.yul\":18138:18139   */\n      0x01\n        /* \"#utility.yul\":18133:18477   */\n      dup2\n      eq\n      tag_447\n      jumpi\n        /* \"#utility.yul\":17925:18477   */\n      jump(tag_445)\n        /* \"#utility.yul\":17958:18124   */\n    tag_446:\n        /* \"#utility.yul\":18042:18046   */\n      0xff\n        /* \"#utility.yul\":18038:18047   */\n      not\n        /* \"#utility.yul\":18027:18036   */\n      dup4\n        /* \"#utility.yul\":18023:18048   */\n      and\n        /* \"#utility.yul\":18018:18021   */\n      dup7\n        /* \"#utility.yul\":18011:18049   */\n      mstore\n        /* \"#utility.yul\":18104:18110   */\n      dup2\n        /* \"#utility.yul\":18097:18111   */\n      iszero\n        /* \"#utility.yul\":18090:18112   */\n      iszero\n        /* \"#utility.yul\":18082:18088   */\n      dup3\n        /* \"#utility.yul\":18078:18113   */\n      mul\n        /* \"#utility.yul\":18073:18076   */\n      dup7\n        /* \"#utility.yul\":18069:18114   */\n      add\n        /* \"#utility.yul\":18062:18114   */\n      swap4\n      pop\n        /* \"#utility.yul\":17958:18124   */\n      jump(tag_445)\n        /* \"#utility.yul\":18133:18477   */\n    tag_447:\n        /* \"#utility.yul\":18200:18241   */\n      tag_448\n        /* \"#utility.yul\":18235:18240   */\n      dup6\n        /* \"#utility.yul\":18200:18241   */\n      tag_257\n      jump\t// in\n    tag_448:\n        /* \"#utility.yul\":18263:18264   */\n      0x00\n        /* \"#utility.yul\":18277:18431   */\n    tag_449:\n        /* \"#utility.yul\":18291:18297   */\n      dup4\n        /* \"#utility.yul\":18288:18289   */\n      dup2\n        /* \"#utility.yul\":18285:18298   */\n      lt\n        /* \"#utility.yul\":18277:18431   */\n      iszero\n      tag_451\n      jumpi\n        /* \"#utility.yul\":18365:18372   */\n      dup2\n        /* \"#utility.yul\":18359:18373   */\n      sload\n        /* \"#utility.yul\":18355:18356   */\n      dup2\n        /* \"#utility.yul\":18350:18353   */\n      dup10\n        /* \"#utility.yul\":18346:18357   */\n      add\n        /* \"#utility.yul\":18339:18374   */\n      mstore\n        /* \"#utility.yul\":18415:18416   */\n      0x01\n        /* \"#utility.yul\":18406:18413   */\n      dup3\n        /* \"#utility.yul\":18402:18417   */\n      add\n        /* \"#utility.yul\":18391:18417   */\n      swap2\n      pop\n        /* \"#utility.yul\":18313:18317   */\n      0x20\n        /* \"#utility.yul\":18310:18311   */\n      dup2\n        /* \"#utility.yul\":18306:18318   */\n      add\n        /* \"#utility.yul\":18301:18318   */\n      swap1\n      pop\n        /* \"#utility.yul\":18277:18431   */\n      jump(tag_449)\n    tag_451:\n        /* \"#utility.yul\":18460:18466   */\n      dup4\n        /* \"#utility.yul\":18455:18458   */\n      dup9\n        /* \"#utility.yul\":18451:18467   */\n      add\n        /* \"#utility.yul\":18444:18467   */\n      swap6\n      pop\n        /* \"#utility.yul\":18140:18477   */\n      pop\n      pop\n        /* \"#utility.yul\":17925:18477   */\n    tag_445:\n      pop\n        /* \"#utility.yul\":17714:18483   */\n      pop\n      pop\n        /* \"#utility.yul\":17605:18483   */\n      swap3\n      swap2\n      pop\n      pop\n      jump\t// out\n        /* \"#utility.yul\":18489:18762   */\n    tag_153:\n        /* \"#utility.yul\":18620:18623   */\n      0x00\n        /* \"#utility.yul\":18642:18736   */\n      tag_453\n        /* \"#utility.yul\":18732:18735   */\n      dup3\n        /* \"#utility.yul\":18723:18729   */\n      dup5\n        /* \"#utility.yul\":18642:18736   */\n      tag_258\n      jump\t// in\n    tag_453:\n        /* \"#utility.yul\":18635:18736   */\n      swap2\n      pop\n        /* \"#utility.yul\":18753:18756   */\n      dup2\n        /* \"#utility.yul\":18746:18756   */\n      swap1\n      pop\n        /* \"#utility.yul\":18489:18762   */\n      swap3\n      swap2\n      pop\n      pop\n      jump\t// out\n        /* \"#utility.yul\":18768:18909   */\n    tag_259:\n        /* \"#utility.yul\":18817:18821   */\n      0x00\n        /* \"#utility.yul\":18840:18843   */\n      dup2\n        /* \"#utility.yul\":18832:18843   */\n      swap1\n      pop\n        /* \"#utility.yul\":18863:18866   */\n      dup2\n        /* \"#utility.yul\":18860:18861   */\n      0x00\n        /* \"#utility.yul\":18853:18867   */\n      mstore\n        /* \"#utility.yul\":18897:18901   */\n      0x20\n        /* \"#utility.yul\":18894:18895   */\n      0x00\n        /* \"#utility.yul\":18884:18902   */\n      keccak256\n        /* \"#utility.yul\":18876:18902   */\n      swap1\n      pop\n        /* \"#utility.yul\":18768:18909   */\n      swap2\n      swap1\n      pop\n      jump\t// out\n        /* \"#utility.yul\":18915:19008   */\n    tag_260:\n        /* \"#utility.yul\":18952:18958   */\n      0x00\n        /* \"#utility.yul\":18999:19001   */\n      0x20\n        /* \"#utility.yul\":18994:18996   */\n      0x1f\n        /* \"#utility.yul\":18987:18992   */\n      dup4\n        /* \"#utility.yul\":18983:18997   */\n      add\n        /* \"#utility.yul\":18979:19002   */\n      div\n        /* \"#utility.yul\":18969:19002   */\n      swap1\n      pop\n        /* \"#utility.yul\":18915:19008   */\n      swap2\n      swap1\n      pop\n      jump\t// out\n        /* \"#utility.yul\":19014:19121   */\n    tag_261:\n        /* \"#utility.yul\":19058:19066   */\n      0x00\n        /* \"#utility.yul\":19108:19113   */\n      dup3\n        /* \"#utility.yul\":19102:19106   */\n      dup3\n        /* \"#utility.yul\":19098:19114   */\n      shl\n        /* \"#utility.yul\":19077:19114   */\n      swap1\n      pop\n        /* \"#utility.yul\":19014:19121   */\n      swap3\n      swap2\n      pop\n      pop\n      jump\t// out\n        /* \"#utility.yul\":19127:19520   */\n    tag_262:\n        /* \"#utility.yul\":19196:19202   */\n      0x00\n        /* \"#utility.yul\":19246:19247   */\n      0x08\n        /* \"#utility.yul\":19234:19244   */\n      dup4\n        /* \"#utility.yul\":19230:19248   */\n      mul\n        /* \"#utility.yul\":19269:19366   */\n      tag_458\n        /* \"#utility.yul\":19299:19365   */\n      0xffffffffffffffffffffffffffffffffffffffffffffffffffffffffffffffff\n        /* \"#utility.yul\":19288:19297   */\n      dup3\n        /* \"#utility.yul\":19269:19366   */\n      tag_261\n      jump\t// in\n    tag_458:\n        /* \"#utility.yul\":19387:19426   */\n      tag_459\n        /* \"#utility.yul\":19417:19425   */\n      dup7\n        /* \"#utility.yul\":19406:19415   */\n      dup4\n        /* \"#utility.yul\":19387:19426   */\n      tag_261\n      jump\t// in\n    tag_459:\n        /* \"#utility.yul\":19375:19426   */\n      swap6\n      pop\n        /* \"#utility.yul\":19459:19463   */\n      dup1\n        /* \"#utility.yul\":19455:19464   */\n      not\n        /* \"#utility.yul\":19448:19453   */\n      dup5\n        /* \"#utility.yul\":19444:19465   */\n      and\n        /* \"#utility.yul\":19435:19465   */\n      swap4\n      pop\n        /* \"#utility.yul\":19508:19512   */\n      dup1\n        /* \"#utility.yul\":19498:19506   */\n      dup7\n        /* \"#utility.yul\":19494:19513   */\n      and\n        /* \"#utility.yul\":19487:19492   */\n      dup5\n        /* \"#utility.yul\":19484:19514   */\n      or\n        /* \"#utility.yul\":19474:19514   */\n      swap3\n      pop\n        /* \"#utility.yul\":19203:19520   */\n      pop\n      pop\n        /* \"#utility.yul\":19127:19520   */\n      swap4\n      swap3\n      pop\n      pop\n      pop\n      jump\t// out\n        /* \"#utility.yul\":19526:19586   */\n    tag_263:\n        /* \"#utility.yul\":19554:19557   */\n      0x00\n        /* \"#utility.yul\":19575:19580   */\n      dup2\n        /* \"#utility.yul\":19568:19580   */\n      swap1\n      pop\n        /* \"#utility.yul\":19526:19586   */\n      swap2\n      swap1\n      pop\n      jump\t// out\n        /* \"#utility.yul\":19592:19734   */\n    tag_264:\n        /* \"#utility.yul\":19642:19651   */\n      0x00\n        /* \"#utility.yul\":19675:19728   */\n      tag_462\n        /* \"#utility.yul\":19693:19727   */\n      tag_463\n        /* \"#utility.yul\":19702:19726   */\n      tag_464\n        /* \"#utility.yul\":19720:19725   */\n      dup5\n        /* \"#utility.yul\":19702:19726   */\n      tag_214\n      jump\t// in\n    tag_464:\n        /* \"#utility.yul\":19693:19727   */\n      tag_263\n      jump\t// in\n    tag_463:\n        /* \"#utility.yul\":19675:19728   */\n      tag_214\n      jump\t// in\n    tag_462:\n        /* \"#utility.yul\":19662:19728   */\n      swap1\n      pop\n        /* \"#utility.yul\":19592:19734   */\n      swap2\n      swap1\n      pop\n      jump\t// out\n        /* \"#utility.yul\":19740:19815   */\n    tag_265:\n        /* \"#utility.yul\":19783:19786   */\n      0x00\n        /* \"#utility.yul\":19804:19809   */\n      dup2\n        /* \"#utility.yul\":19797:19809   */\n      swap1\n      pop\n        /* \"#utility.yul\":19740:19815   */\n      swap2\n      swap1\n      pop\n      jump\t// out\n        /* \"#utility.yul\":19821:20090   */\n    tag_266:\n        /* \"#utility.yul\":19931:19970   */\n      tag_467\n        /* \"#utility.yul\":19962:19969   */\n      dup4\n        /* \"#utility.yul\":19931:19970   */\n      tag_264\n      jump\t// in\n    tag_467:\n        /* \"#utility.yul\":19992:20083   */\n      tag_468\n        /* \"#utility.yul\":20041:20082   */\n      tag_469\n        /* \"#utility.yul\":20065:20081   */\n      dup3\n        /* \"#utility.yul\":20041:20082   */\n      tag_265\n      jump\t// in\n    tag_469:\n        /* \"#utility.yul\":20033:20039   */\n      dup5\n        /* \"#utility.yul\":20026:20030   */\n      dup5\n        /* \"#utility.yul\":20020:20031   */\n      sload\n        /* \"#utility.yul\":19992:20083   */\n      tag_262\n      jump\t// in\n    tag_468:\n        /* \"#utility.yul\":19986:19990   */\n      dup3\n        /* \"#utility.yul\":19979:20084   */\n      sstore\n        /* \"#utility.yul\":19897:20090   */\n      pop\n        /* \"#utility.yul\":19821:20090   */\n      pop\n      pop\n      pop\n      jump\t// out\n        /* \"#utility.yul\":20096:20169   */\n    tag_267:\n        /* \"#utility.yul\":20141:20144   */\n      0x00\n        /* \"#utility.yul\":20162:20163   */\n      0x00\n        /* \"#utility.yul\":20155:20163   */\n      swap1\n      pop\n        /* \"#utility.yul\":20096:20169   */\n      swap1\n      jump\t// out\n        /* \"#utility.yul\":20175:20364   */\n    tag_268:\n        /* \"#utility.yul\":20252:20284   */\n      tag_472\n      tag_267\n      jump\t// in\n    tag_472:\n        /* \"#utility.yul\":20293:20358   */\n      tag_473\n        /* \"#utility.yul\":20351:20357   */\n      dup2\n        /* \"#utility.yul\":20343:20349   */\n      dup5\n        /* \"#utility.yul\":20337:20341   */\n      dup5\n        /* \"#utility.yul\":20293:20358   */\n      tag_266\n      jump\t// in\n    tag_473:\n        /* \"#utility.yul\":20228:20364   */\n      pop\n        /* \"#utility.yul\":20175:20364   */\n      pop\n      pop\n      jump\t// out\n        /* \"#utility.yul\":20370:20556   */\n    tag_269:\n        /* \"#utility.yul\":20430:20550   */\n    tag_475:\n        /* \"#utility.yul\":20447:20450   */\n      dup2\n        /* \"#utility.yul\":20440:20445   */\n      dup2\n        /* \"#utility.yul\":20437:20451   */\n      lt\n        /* \"#utility.yul\":20430:20550   */\n      iszero\n      tag_477\n      jumpi\n        /* \"#utility.yul\":20501:20540   */\n      tag_478\n        /* \"#utility.yul\":20538:20539   */\n      0x00\n        /* \"#utility.yul\":20531:20536   */\n      dup3\n        /* \"#utility.yul\":20501:20540   */\n      tag_268\n      jump\t// in\n    tag_478:\n        /* \"#utility.yul\":20474:20475   */\n      0x01\n        /* \"#utility.yul\":20467:20472   */\n      dup2\n        /* \"#utility.yul\":20463:20476   */\n      add\n        /* \"#utility.yul\":20454:20476   */\n      swap1\n      pop\n        /* \"#utility.yul\":20430:20550   */\n      jump(tag_475)\n    tag_477:\n        /* \"#utility.yul\":20370:20556   */\n      pop\n      pop\n      jump\t// out\n        /* \"#utility.yul\":20562:21105   */\n    tag_270:\n        /* \"#utility.yul\":20663:20665   */\n      0x1f\n        /* \"#utility.yul\":20658:20661   */\n      dup3\n        /* \"#utility.yul\":20655:20666   */\n      gt\n        /* \"#utility.yul\":20652:21098   */\n      iszero\n      tag_480\n      jumpi\n        /* \"#utility.yul\":20697:20735   */\n      tag_481\n        /* \"#utility.yul\":20729:20734   */\n      dup2\n        /* \"#utility.yul\":20697:20735   */\n      tag_259\n      jump\t// in\n    tag_481:\n        /* \"#utility.yul\":20781:20810   */\n      tag_482\n        /* \"#utility.yul\":20799:20809   */\n      dup5\n        /* \"#utility.yul\":20781:20810   */\n      tag_260\n      jump\t// in\n    tag_482:\n        /* \"#utility.yul\":20771:20779   */\n      dup2\n        /* \"#utility.yul\":20767:20811   */\n      add\n        /* \"#utility.yul\":20964:20966   */\n      0x20\n        /* \"#utility.yul\":20952:20962   */\n      dup6\n        /* \"#utility.yul\":20949:20967   */\n      lt\n        /* \"#utility.yul\":20946:20995   */\n      iszero\n      tag_483\n      jumpi\n        /* \"#utility.yul\":20985:20993   */\n      dup2\n        /* \"#utility.yul\":20970:20993   */\n      swap1\n      pop\n        /* \"#utility.yul\":20946:20995   */\n    tag_483:\n        /* \"#utility.yul\":21008:21088   */\n      tag_484\n        /* \"#utility.yul\":21064:21086   */\n      tag_485\n        /* \"#utility.yul\":21082:21085   */\n      dup6\n        /* \"#utility.yul\":21064:21086   */\n      tag_260\n      jump\t// in\n    tag_485:\n        /* \"#utility.yul\":21054:21062   */\n      dup4\n        /* \"#utility.yul\":21050:21087   */\n      add\n        /* \"#utility.yul\":21037:21048   */\n      dup3\n        /* \"#utility.yul\":21008:21088   */\n      tag_269\n      jump\t// in\n    tag_484:\n        /* \"#utility.yul\":20667:21098   */\n      pop\n      pop\n        /* \"#utility.yul\":20652:21098   */\n    tag_480:\n        /* \"#utility.yul\":20562:21105   */\n      pop\n      pop\n      pop\n      jump\t// out\n        /* \"#utility.yul\":21111:21228   */\n    tag_271:\n        /* \"#utility.yul\":21165:21173   */\n      0x00\n        /* \"#utility.yul\":21215:21220   */\n      dup3\n        /* \"#utility.yul\":21209:21213   */\n      dup3\n        /* \"#utility.yul\":21205:21221   */\n      shr\n        /* \"#utility.yul\":21184:21221   */\n      swap1\n      pop\n        /* \"#utility.yul\":21111:21228   */\n      swap3\n      swap2\n      pop\n      pop\n      jump\t// out\n        /* \"#utility.yul\":21234:21403   */\n    tag_272:\n        /* \"#utility.yul\":21278:21284   */\n      0x00\n        /* \"#utility.yul\":21311:21362   */\n      tag_488\n        /* \"#utility.yul\":21359:21360   */\n      0x00\n        /* \"#utility.yul\":21355:21361   */\n      not\n        /* \"#utility.yul\":21347:21352   */\n      dup5\n        /* \"#utility.yul\":21344:21345   */\n      0x08\n        /* \"#utility.yul\":21340:21353   */\n      mul\n        /* \"#utility.yul\":21311:21362   */\n      tag_271\n      jump\t// in\n    tag_488:\n        /* \"#utility.yul\":21307:21363   */\n      not\n        /* \"#utility.yul\":21392:21396   */\n      dup1\n        /* \"#utility.yul\":21386:21390   */\n      dup4\n        /* \"#utility.yul\":21382:21397   */\n      and\n        /* \"#utility.yul\":21372:21397   */\n      swap2\n      pop\n        /* \"#utility.yul\":21285:21403   */\n      pop\n        /* \"#utility.yul\":21234:21403   */\n      swap3\n      swap2\n      pop\n      pop\n      jump\t// out\n        /* \"#utility.yul\":21408:21703   */\n    tag_273:\n        /* \"#utility.yul\":21484:21488   */\n      0x00\n        /* \"#utility.yul\":21630:21659   */\n      tag_490\n        /* \"#utility.yul\":21655:21658   */\n      dup4\n        /* \"#utility.yul\":21649:21653   */\n      dup4\n        /* \"#utility.yul\":21630:21659   */\n      tag_272\n      jump\t// in\n    tag_490:\n        /* \"#utility.yul\":21622:21659   */\n      swap2\n      pop\n        /* \"#utility.yul\":21692:21695   */\n      dup3\n        /* \"#utility.yul\":21689:21690   */\n      0x02\n        /* \"#utility.yul\":21685:21696   */\n      mul\n        /* \"#utility.yul\":21679:21683   */\n      dup3\n        /* \"#utility.yul\":21676:21697   */\n      or\n        /* \"#utility.yul\":21668:21697   */\n      swap1\n      pop\n        /* \"#utility.yul\":21408:21703   */\n      swap3\n      swap2\n      pop\n      pop\n      jump\t// out\n        /* \"#utility.yul\":21708:23103   */\n    tag_158:\n        /* \"#utility.yul\":21825:21862   */\n      tag_492\n        /* \"#utility.yul\":21858:21861   */\n      dup3\n        /* \"#utility.yul\":21825:21862   */\n      tag_229\n      jump\t// in\n    tag_492:\n        /* \"#utility.yul\":21927:21945   */\n      0xffffffffffffffff\n        /* \"#utility.yul\":21919:21925   */\n      dup2\n        /* \"#utility.yul\":21916:21946   */\n      gt\n        /* \"#utility.yul\":21913:21969   */\n      iszero\n      tag_493\n      jumpi\n        /* \"#utility.yul\":21949:21967   */\n      tag_494\n      tag_219\n      jump\t// in\n    tag_494:\n        /* \"#utility.yul\":21913:21969   */\n    tag_493:\n        /* \"#utility.yul\":21993:22031   */\n      tag_495\n        /* \"#utility.yul\":22025:22029   */\n      dup3\n        /* \"#utility.yul\":22019:22030   */\n      sload\n        /* \"#utility.yul\":21993:22031   */\n      tag_117\n      jump\t// in\n    tag_495:\n        /* \"#utility.yul\":22078:22145   */\n      tag_496\n        /* \"#utility.yul\":22138:22144   */\n      dup3\n        /* \"#utility.yul\":22130:22136   */\n      dup3\n        /* \"#utility.yul\":22124:22128   */\n      dup6\n        /* \"#utility.yul\":22078:22145   */\n      tag_270\n      jump\t// in\n    tag_496:\n        /* \"#utility.yul\":22172:22173   */\n      0x00\n        /* \"#utility.yul\":22196:22200   */\n      0x20\n        /* \"#utility.yul\":22183:22200   */\n      swap1\n      pop\n        /* \"#utility.yul\":22228:22230   */\n      0x1f\n        /* \"#utility.yul\":22220:22226   */\n      dup4\n        /* \"#utility.yul\":22217:22231   */\n      gt\n        /* \"#utility.yul\":22245:22246   */\n      0x01\n        /* \"#utility.yul\":22240:22858   */\n      dup2\n      eq\n      tag_498\n      jumpi\n        /* \"#utility.yul\":22902:22903   */\n      0x00\n        /* \"#utility.yul\":22919:22925   */\n      dup5\n        /* \"#utility.yul\":22916:22993   */\n      iszero\n      tag_499\n      jumpi\n        /* \"#utility.yul\":22968:22977   */\n      dup3\n        /* \"#utility.yul\":22963:22966   */\n      dup8\n        /* \"#utility.yul\":22959:22978   */\n      add\n        /* \"#utility.yul\":22953:22979   */\n      mload\n        /* \"#utility.yul\":22944:22979   */\n      swap1\n      pop\n        /* \"#utility.yul\":22916:22993   */\n    tag_499:\n        /* \"#utility.yul\":23019:23086   */\n      tag_500\n        /* \"#utility.yul\":23079:23085   */\n      dup6\n        /* \"#utility.yul\":23072:23077   */\n      dup3\n        /* \"#utility.yul\":23019:23086   */\n      tag_273\n      jump\t// in\n    tag_500:\n        /* \"#utility.yul\":23013:23017   */\n      dup7\n        /* \"#utility.yul\":23006:23087   */\n      sstore\n        /* \"#utility.yul\":22875:23097   */\n      pop\n        /* \"#utility.yul\":22210:23097   */\n      jump(tag_497)\n        /* \"#utility.yul\":22240:22858   */\n    tag_498:\n        /* \"#utility.yul\":22292:22296   */\n      0x1f\n        /* \"#utility.yul\":22288:22297   */\n      not\n        /* \"#utility.yul\":22280:22286   */\n      dup5\n        /* \"#utility.yul\":22276:22298   */\n      and\n        /* \"#utility.yul\":22326:22363   */\n      tag_501\n        /* \"#utility.yul\":22358:22362   */\n      dup7\n        /* \"#utility.yul\":22326:22363   */\n      tag_259\n      jump\t// in\n    tag_501:\n        /* \"#utility.yul\":22385:22386   */\n      0x00\n        /* \"#utility.yul\":22399:22607   */\n    tag_502:\n        /* \"#utility.yul\":22413:22420   */\n      dup3\n        /* \"#utility.yul\":22410:22411   */\n      dup2\n        /* \"#utility.yul\":22407:22421   */\n      lt\n        /* \"#utility.yul\":22399:22607   */\n      iszero\n      tag_504\n      jumpi\n        /* \"#utility.yul\":22492:22501   */\n      dup5\n        /* \"#utility.yul\":22487:22490   */\n      dup10\n        /* \"#utility.yul\":22483:22502   */\n      add\n        /* \"#utility.yul\":22477:22503   */\n      mload\n        /* \"#utility.yul\":22469:22475   */\n      dup3\n        /* \"#utility.yul\":22462:22504   */\n      sstore\n        /* \"#utility.yul\":22543:22544   */\n      0x01\n        /* \"#utility.yul\":22535:22541   */\n      dup3\n        /* \"#utility.yul\":22531:22545   */\n      add\n        /* \"#utility.yul\":22521:22545   */\n      swap2\n      pop\n        /* \"#utility.yul\":22590:22592   */\n      0x20\n        /* \"#utility.yul\":22579:22588   */\n      dup6\n        /* \"#utility.yul\":22575:22593   */\n      add\n        /* \"#utility.yul\":22562:22593   */\n      swap5\n      pop\n        /* \"#utility.yul\":22436:22440   */\n      0x20\n        /* \"#utility.yul\":22433:22434   */\n      dup2\n        /* \"#utility.yul\":22429:22441   */\n      add\n        /* \"#utility.yul\":22424:22441   */\n      swap1\n      pop\n        /* \"#utility.yul\":22399:22607   */\n      jump(tag_502)\n    tag_504:\n        /* \"#utility.yul\":22635:22641   */\n      dup7\n        /* \"#utility.yul\":22626:22633   */\n      dup4\n        /* \"#utility.yul\":22623:22642   */\n      lt\n        /* \"#utility.yul\":22620:22799   */\n      iszero\n      tag_505\n      jumpi\n        /* \"#utility.yul\":22693:22702   */\n      dup5\n        /* \"#utility.yul\":22688:22691   */\n      dup10\n        /* \"#utility.yul\":22684:22703   */\n      add\n        /* \"#utility.yul\":22678:22704   */\n      mload\n        /* \"#utility.yul\":22736:22784   */\n      tag_506\n        /* \"#utility.yul\":22778:22782   */\n      0x1f\n        /* \"#utility.yul\":22770:22776   */\n      dup10\n        /* \"#utility.yul\":22766:22783   */\n      and\n        /* \"#utility.yul\":22755:22764   */\n      dup3\n        /* \"#utility.yul\":22736:22784   */\n      tag_272\n      jump\t// in\n    tag_506:\n        /* \"#utility.yul\":22728:22734   */\n      dup4\n        /* \"#utility.yul\":22721:22785   */\n      sstore\n        /* \"#utility.yul\":22643:22799   */\n      pop\n        /* \"#utility.yul\":22620:22799   */\n    tag_505:\n        /* \"#utility.yul\":22845:22846   */\n      0x01\n        /* \"#utility.yul\":22841:22842   */\n      0x02\n        /* \"#utility.yul\":22833:22839   */\n      dup9\n        /* \"#utility.yul\":22829:22843   */\n      mul\n        /* \"#utility.yul\":22825:22847   */\n      add\n        /* \"#utility.yul\":22819:22823   */\n      dup9\n        /* \"#utility.yul\":22812:22848   */\n      sstore\n        /* \"#utility.yul\":22247:22858   */\n      pop\n      pop\n      pop\n        /* \"#utility.yul\":22210:23097   */\n    tag_497:\n      pop\n        /* \"#utility.yul\":21800:23103   */\n      pop\n      pop\n      pop\n        /* \"#utility.yul\":21708:23103   */\n      pop\n      pop\n      jump\t// out\n        /* \"#utility.yul\":23109:23289   */\n    tag_274:\n        /* \"#utility.yul\":23157:23234   */\n      0x4e487b7100000000000000000000000000000000000000000000000000000000\n        /* \"#utility.yul\":23154:23155   */\n      0x00\n        /* \"#utility.yul\":23147:23235   */\n      mstore\n        /* \"#utility.yul\":23254:23258   */\n      0x11\n        /* \"#utility.yul\":23251:23252   */\n      0x04\n        /* \"#utility.yul\":23244:23259   */\n      mstore\n        /* \"#utility.yul\":23278:23282   */\n      0x24\n        /* \"#utility.yul\":23275:23276   */\n      0x00\n        /* \"#utility.yul\":23268:23283   */\n      revert\n        /* \"#utility.yul\":23295:23705   */\n    tag_166:\n        /* \"#utility.yul\":23335:23342   */\n      0x00\n        /* \"#utility.yul\":23358:23378   */\n      tag_509\n        /* \"#utility.yul\":23376:23377   */\n      dup3\n        /* \"#utility.yul\":23358:23378   */\n      tag_214\n      jump\t// in\n    tag_509:\n        /* \"#utility.yul\":23353:23378   */\n      swap2\n      pop\n        /* \"#utility.yul\":23392:23412   */\n      tag_510\n        /* \"#utility.yul\":23410:23411   */\n      dup4\n        /* \"#utility.yul\":23392:23412   */\n      tag_214\n      jump\t// in\n    tag_510:\n        /* \"#utility.yul\":23387:23412   */\n      swap3\n      pop\n        /* \"#utility.yul\":23447:23448   */\n      dup3\n        /* \"#utility.yul\":23444:23445   */\n      dup3\n        /* \"#utility.yul\":23440:23449   */\n      mul\n        /* \"#utility.yul\":23469:23499   */\n      tag_511\n        /* \"#utility.yul\":23487:23498   */\n      dup2\n        /* \"#utility.yul\":23469:23499   */\n      tag_214\n      jump\t// in\n    tag_511:\n        /* \"#utility.yul\":23458:23499   */\n      swap2\n      pop\n        /* \"#utility.yul\":23648:23649   */\n      dup3\n        /* \"#utility.yul\":23639:23646   */\n      dup3\n        /* \"#utility.yul\":23635:23650   */\n      div\n        /* \"#utility.yul\":23632:23633   */\n      dup5\n        /* \"#utility.yul\":23629:23651   */\n      eq\n        /* \"#utility.yul\":23609:23610   */\n      dup4\n        /* \"#utility.yul\":23602:23611   */\n      iszero\n        /* \"#utility.yul\":23582:23665   */\n      or\n        /* \"#utility.yul\":23559:23698   */\n      tag_512\n      jumpi\n        /* \"#utility.yul\":23678:23696   */\n      tag_513\n      tag_274\n      jump\t// in\n    tag_513:\n        /* \"#utility.yul\":23559:23698   */\n    tag_512:\n        /* \"#utility.yul\":23343:23705   */\n      pop\n        /* \"#utility.yul\":23295:23705   */\n      swap3\n      swap2\n      pop\n      pop\n      jump\t// out\n        /* \"#utility.yul\":23711:23890   */\n    tag_275:\n        /* \"#utility.yul\":23851:23882   */\n      0x416d6f756e74206d7573742062652067726561746572207468616e2030000000\n        /* \"#utility.yul\":23847:23848   */\n      0x00\n        /* \"#utility.yul\":23839:23845   */\n      dup3\n        /* \"#utility.yul\":23835:23849   */\n      add\n        /* \"#utility.yul\":23828:23883   */\n      mstore\n        /* \"#utility.yul\":23711:23890   */\n      pop\n      jump\t// out\n        /* \"#utility.yul\":23896:24262   */\n    tag_276:\n        /* \"#utility.yul\":24038:24041   */\n      0x00\n        /* \"#utility.yul\":24059:24126   */\n      tag_516\n        /* \"#utility.yul\":24123:24125   */\n      0x1d\n        /* \"#utility.yul\":24118:24121   */\n      dup4\n        /* \"#utility.yul\":24059:24126   */\n      tag_239\n      jump\t// in\n    tag_516:\n        /* \"#utility.yul\":24052:24126   */\n      swap2\n      pop\n        /* \"#utility.yul\":24135:24228   */\n      tag_517\n        /* \"#utility.yul\":24224:24227   */\n      dup3\n        /* \"#utility.yul\":24135:24228   */\n      tag_275\n      jump\t// in\n    tag_517:\n        /* \"#utility.yul\":24253:24255   */\n      0x20\n        /* \"#utility.yul\":24248:24251   */\n      dup3\n        /* \"#utility.yul\":24244:24256   */\n      add\n        /* \"#utility.yul\":24237:24256   */\n      swap1\n      pop\n        /* \"#utility.yul\":23896:24262   */\n      swap2\n      swap1\n      pop\n      jump\t// out\n        /* \"#utility.yul\":24268:24687   */\n    tag_181:\n        /* \"#utility.yul\":24434:24438   */\n      0x00\n        /* \"#utility.yul\":24472:24474   */\n      0x20\n        /* \"#utility.yul\":24461:24470   */\n      dup3\n        /* \"#utility.yul\":24457:24475   */\n      add\n        /* \"#utility.yul\":24449:24475   */\n      swap1\n      pop\n        /* \"#utility.yul\":24521:24530   */\n      dup2\n        /* \"#utility.yul\":24515:24519   */\n      dup2\n        /* \"#utility.yul\":24511:24531   */\n      sub\n        /* \"#utility.yul\":24507:24508   */\n      0x00\n        /* \"#utility.yul\":24496:24505   */\n      dup4\n        /* \"#utility.yul\":24492:24509   */\n      add\n        /* \"#utility.yul\":24485:24532   */\n      mstore\n        /* \"#utility.yul\":24549:24680   */\n      tag_519\n        /* \"#utility.yul\":24675:24679   */\n      dup2\n        /* \"#utility.yul\":24549:24680   */\n      tag_276\n      jump\t// in\n    tag_519:\n        /* \"#utility.yul\":24541:24680   */\n      swap1\n      pop\n        /* \"#utility.yul\":24268:24687   */\n      swap2\n      swap1\n      pop\n      jump\t// out\n        /* \"#utility.yul\":24693:24923   */\n    tag_277:\n        /* \"#utility.yul\":24833:24867   */\n      0x53656e742045544820646f65736e2774206d617463682074686520636f6e7665\n        /* \"#utility.yul\":24829:24830   */\n      0x00\n        /* \"#utility.yul\":24821:24827   */\n      dup3\n        /* \"#utility.yul\":24817:24831   */\n      add\n        /* \"#utility.yul\":24810:24868   */\n      mstore\n        /* \"#utility.yul\":24902:24915   */\n      0x7274656420616d6f756e74000000000000000000000000000000000000000000\n        /* \"#utility.yul\":24897:24899   */\n      0x20\n        /* \"#utility.yul\":24889:24895   */\n      dup3\n        /* \"#utility.yul\":24885:24900   */\n      add\n        /* \"#utility.yul\":24878:24916   */\n      mstore\n        /* \"#utility.yul\":24693:24923   */\n      pop\n      jump\t// out\n        /* \"#utility.yul\":24929:25295   */\n    tag_278:\n        /* \"#utility.yul\":25071:25074   */\n      0x00\n        /* \"#utility.yul\":25092:25159   */\n      tag_522\n        /* \"#utility.yul\":25156:25158   */\n      0x2b\n        /* \"#utility.yul\":25151:25154   */\n      dup4\n        /* \"#utility.yul\":25092:25159   */\n      tag_239\n      jump\t// in\n    tag_522:\n        /* \"#utility.yul\":25085:25159   */\n      swap2\n      pop\n        /* \"#utility.yul\":25168:25261   */\n      tag_523\n        /* \"#utility.yul\":25257:25260   */\n      dup3\n        /* \"#utility.yul\":25168:25261   */\n      tag_277\n      jump\t// in\n    tag_523:\n        /* \"#utility.yul\":25286:25288   */\n      0x40\n        /* \"#utility.yul\":25281:25284   */\n      dup3\n        /* \"#utility.yul\":25277:25289   */\n      add\n        /* \"#utility.yul\":25270:25289   */\n      swap1\n      pop\n        /* \"#utility.yul\":24929:25295   */\n      swap2\n      swap1\n      pop\n      jump\t// out\n        /* \"#utility.yul\":25301:25720   */\n    tag_185:\n        /* \"#utility.yul\":25467:25471   */\n      0x00\n        /* \"#utility.yul\":25505:25507   */\n      0x20\n        /* \"#utility.yul\":25494:25503   */\n      dup3\n        /* \"#utility.yul\":25490:25508   */\n      add\n        /* \"#utility.yul\":25482:25508   */\n      swap1\n      pop\n        /* \"#utility.yul\":25554:25563   */\n      dup2\n        /* \"#utility.yul\":25548:25552   */\n      dup2\n        /* \"#utility.yul\":25544:25564   */\n      sub\n        /* \"#utility.yul\":25540:25541   */\n      0x00\n        /* \"#utility.yul\":25529:25538   */\n      dup4\n        /* \"#utility.yul\":25525:25542   */\n      add\n        /* \"#utility.yul\":25518:25565   */\n      mstore\n        /* \"#utility.yul\":25582:25713   */\n      tag_525\n        /* \"#utility.yul\":25708:25712   */\n      dup2\n        /* \"#utility.yul\":25582:25713   */\n      tag_278\n      jump\t// in\n    tag_525:\n        /* \"#utility.yul\":25574:25713   */\n      swap1\n      pop\n        /* \"#utility.yul\":25301:25720   */\n      swap2\n      swap1\n      pop\n      jump\t// out\n        /* \"#utility.yul\":25726:25917   */\n    tag_187:\n        /* \"#utility.yul\":25766:25769   */\n      0x00\n        /* \"#utility.yul\":25785:25805   */\n      tag_527\n        /* \"#utility.yul\":25803:25804   */\n      dup3\n        /* \"#utility.yul\":25785:25805   */\n      tag_214\n      jump\t// in\n    tag_527:\n        /* \"#utility.yul\":25780:25805   */\n      swap2\n      pop\n        /* \"#utility.yul\":25819:25839   */\n      tag_528\n        /* \"#utility.yul\":25837:25838   */\n      dup4\n        /* \"#utility.yul\":25819:25839   */\n      tag_214\n      jump\t// in\n    tag_528:\n        /* \"#utility.yul\":25814:25839   */\n      swap3\n      pop\n        /* \"#utility.yul\":25862:25863   */\n      dup3\n        /* \"#utility.yul\":25859:25860   */\n      dup3\n        /* \"#utility.yul\":25855:25864   */\n      add\n        /* \"#utility.yul\":25848:25864   */\n      swap1\n      pop\n        /* \"#utility.yul\":25883:25886   */\n      dup1\n        /* \"#utility.yul\":25880:25881   */\n      dup3\n        /* \"#utility.yul\":25877:25887   */\n      gt\n        /* \"#utility.yul\":25874:25910   */\n      iszero\n      tag_529\n      jumpi\n        /* \"#utility.yul\":25890:25908   */\n      tag_530\n      tag_274\n      jump\t// in\n    tag_530:\n        /* \"#utility.yul\":25874:25910   */\n    tag_529:\n        /* \"#utility.yul\":25726:25917   */\n      swap3\n      swap2\n      pop\n      pop\n      jump\t// out\n        /* \"#utility.yul\":25923:26143   */\n    tag_279:\n        /* \"#utility.yul\":26063:26097   */\n      0x54697020616d6f756e74206d7573742062652067726561746572207468616e20\n        /* \"#utility.yul\":26059:26060   */\n      0x00\n        /* \"#utility.yul\":26051:26057   */\n      dup3\n        /* \"#utility.yul\":26047:26061   */\n      add\n        /* \"#utility.yul\":26040:26098   */\n      mstore\n        /* \"#utility.yul\":26132:26135   */\n      0x3000000000000000000000000000000000000000000000000000000000000000\n        /* \"#utility.yul\":26127:26129   */\n      0x20\n        /* \"#utility.yul\":26119:26125   */\n      dup3\n        /* \"#utility.yul\":26115:26130   */\n      add\n        /* \"#utility.yul\":26108:26136   */\n      mstore\n        /* \"#utility.yul\":25923:26143   */\n      pop\n      jump\t// out\n        /* \"#utility.yul\":26149:26515   */\n    tag_280:\n        /* \"#utility.yul\":26291:26294   */\n      0x00\n        /* \"#utility.yul\":26312:26379   */\n      tag_533\n        /* \"#utility.yul\":26376:26378   */\n      0x21\n        /* \"#utility.yul\":26371:26374   */\n      dup4\n        /* \"#utility.yul\":26312:26379   */\n      tag_239\n      jump\t// in\n    tag_533:\n        /* \"#utility.yul\":26305:26379   */\n      swap2\n      pop\n        /* \"#utility.yul\":26388:26481   */\n      tag_534\n        /* \"#utility.yul\":26477:26480   */\n      dup3\n        /* \"#utility.yul\":26388:26481   */\n      tag_279\n      jump\t// in\n    tag_534:\n        /* \"#utility.yul\":26506:26508   */\n      0x40\n        /* \"#utility.yul\":26501:26504   */\n      dup3\n        /* \"#utility.yul\":26497:26509   */\n      add\n        /* \"#utility.yul\":26490:26509   */\n      swap1\n      pop\n        /* \"#utility.yul\":26149:26515   */\n      swap2\n      swap1\n      pop\n      jump\t// out\n        /* \"#utility.yul\":26521:26940   */\n    tag_194:\n        /* \"#utility.yul\":26687:26691   */\n      0x00\n        /* \"#utility.yul\":26725:26727   */\n      0x20\n        /* \"#utility.yul\":26714:26723   */\n      dup3\n        /* \"#utility.yul\":26710:26728   */\n      add\n        /* \"#utility.yul\":26702:26728   */\n      swap1\n      pop\n        /* \"#utility.yul\":26774:26783   */\n      dup2\n        /* \"#utility.yul\":26768:26772   */\n      dup2\n        /* \"#utility.yul\":26764:26784   */\n      sub\n        /* \"#utility.yul\":26760:26761   */\n      0x00\n        /* \"#utility.yul\":26749:26758   */\n      dup4\n        /* \"#utility.yul\":26745:26762   */\n      add\n        /* \"#utility.yul\":26738:26785   */\n      mstore\n        /* \"#utility.yul\":26802:26933   */\n      tag_536\n        /* \"#utility.yul\":26928:26932   */\n      dup2\n        /* \"#utility.yul\":26802:26933   */\n      tag_280\n      jump\t// in\n    tag_536:\n        /* \"#utility.yul\":26794:26933   */\n      swap1\n      pop\n        /* \"#utility.yul\":26521:26940   */\n      swap2\n      swap1\n      pop\n      jump\t// out\n        /* \"#utility.yul\":26946:27099   */\n    tag_281:\n        /* \"#utility.yul\":27086:27091   */\n      0x4554480000000000000000000000000000000000000000000000000000000000\n        /* \"#utility.yul\":27082:27083   */\n      0x00\n        /* \"#utility.yul\":27074:27080   */\n      dup3\n        /* \"#utility.yul\":27070:27084   */\n      add\n        /* \"#utility.yul\":27063:27092   */\n      mstore\n        /* \"#utility.yul\":26946:27099   */\n      pop\n      jump\t// out\n        /* \"#utility.yul\":27105:27505   */\n    tag_282:\n        /* \"#utility.yul\":27265:27268   */\n      0x00\n        /* \"#utility.yul\":27286:27370   */\n      tag_539\n        /* \"#utility.yul\":27368:27369   */\n      0x03\n        /* \"#utility.yul\":27363:27366   */\n      dup4\n        /* \"#utility.yul\":27286:27370   */\n      tag_241\n      jump\t// in\n    tag_539:\n        /* \"#utility.yul\":27279:27370   */\n      swap2\n      pop\n        /* \"#utility.yul\":27379:27472   */\n      tag_540\n        /* \"#utility.yul\":27468:27471   */\n      dup3\n        /* \"#utility.yul\":27379:27472   */\n      tag_281\n      jump\t// in\n    tag_540:\n        /* \"#utility.yul\":27497:27498   */\n      0x03\n        /* \"#utility.yul\":27492:27495   */\n      dup3\n        /* \"#utility.yul\":27488:27499   */\n      add\n        /* \"#utility.yul\":27481:27499   */\n      swap1\n      pop\n        /* \"#utility.yul\":27105:27505   */\n      swap2\n      swap1\n      pop\n      jump\t// out\n        /* \"#utility.yul\":27511:27892   */\n    tag_198:\n        /* \"#utility.yul\":27696:27699   */\n      0x00\n        /* \"#utility.yul\":27718:27866   */\n      tag_542\n        /* \"#utility.yul\":27862:27865   */\n      dup3\n        /* \"#utility.yul\":27718:27866   */\n      tag_282\n      jump\t// in\n    tag_542:\n        /* \"#utility.yul\":27711:27866   */\n      swap2\n      pop\n        /* \"#utility.yul\":27883:27886   */\n      dup2\n        /* \"#utility.yul\":27876:27886   */\n      swap1\n      pop\n        /* \"#utility.yul\":27511:27892   */\n      swap2\n      swap1\n      pop\n      jump\t// out\n        /* \"#utility.yul\":27898:28063   */\n    tag_283:\n        /* \"#utility.yul\":28038:28055   */\n      0x496e76616c696420616464726573730000000000000000000000000000000000\n        /* \"#utility.yul\":28034:28035   */\n      0x00\n        /* \"#utility.yul\":28026:28032   */\n      dup3\n        /* \"#utility.yul\":28022:28036   */\n      add\n        /* \"#utility.yul\":28015:28056   */\n      mstore\n        /* \"#utility.yul\":27898:28063   */\n      pop\n      jump\t// out\n        /* \"#utility.yul\":28069:28435   */\n    tag_284:\n        /* \"#utility.yul\":28211:28214   */\n      0x00\n        /* \"#utility.yul\":28232:28299   */\n      tag_545\n        /* \"#utility.yul\":28296:28298   */\n      0x0f\n        /* \"#utility.yul\":28291:28294   */\n      dup4\n        /* \"#utility.yul\":28232:28299   */\n      tag_239\n      jump\t// in\n    tag_545:\n        /* \"#utility.yul\":28225:28299   */\n      swap2\n      pop\n        /* \"#utility.yul\":28308:28401   */\n      tag_546\n        /* \"#utility.yul\":28397:28400   */\n      dup3\n        /* \"#utility.yul\":28308:28401   */\n      tag_283\n      jump\t// in\n    tag_546:\n        /* \"#utility.yul\":28426:28428   */\n      0x20\n        /* \"#utility.yul\":28421:28424   */\n      dup3\n        /* \"#utility.yul\":28417:28429   */\n      add\n        /* \"#utility.yul\":28410:28429   */\n      swap1\n      pop\n        /* \"#utility.yul\":28069:28435   */\n      swap2\n      swap1\n      pop\n      jump\t// out\n        /* \"#utility.yul\":28441:28860   */\n    tag_206:\n        /* \"#utility.yul\":28607:28611   */\n      0x00\n        /* \"#utility.yul\":28645:28647   */\n      0x20\n        /* \"#utility.yul\":28634:28643   */\n      dup3\n        /* \"#utility.yul\":28630:28648   */\n      add\n        /* \"#utility.yul\":28622:28648   */\n      swap1\n      pop\n        /* \"#utility.yul\":28694:28703   */\n      dup2\n        /* \"#utility.yul\":28688:28692   */\n      dup2\n        /* \"#utility.yul\":28684:28704   */\n      sub\n        /* \"#utility.yul\":28680:28681   */\n      0x00\n        /* \"#utility.yul\":28669:28678   */\n      dup4\n        /* \"#utility.yul\":28665:28682   */\n      add\n        /* \"#utility.yul\":28658:28705   */\n      mstore\n        /* \"#utility.yul\":28722:28853   */\n      tag_548\n        /* \"#utility.yul\":28848:28852   */\n      dup2\n        /* \"#utility.yul\":28722:28853   */\n      tag_284\n      jump\t// in\n    tag_548:\n        /* \"#utility.yul\":28714:28853   */\n      swap1\n      pop\n        /* \"#utility.yul\":28441:28860   */\n      swap2\n      swap1\n      pop\n      jump\t// out\n\n    auxdata: 0xa2646970667358221220c908efcb0c261150b91f188cc294c5449fccbabc88fe4688ef7be21a5ea1906564736f6c634300081e0033\n}\n",
				"bytecode": {
					"linkReferences": {},
					"object": "608060405234801561000f575f5ffd5b50335f5f6101000a81548173ffffffffffffffffffffffffffffffffffffffff021916908373ffffffffffffffffffffffffffffffffffffffff16021790555061009b6040518060400160405280600381526020017f55534400000000000000000000000000000000000000000000000000000000008152506601c6bf5263400061018260201b60201c565b6100e76040518060400160405280600381526020017f4555520000000000000000000000000000000000000000000000000000000000815250660221b262dd800061018260201b60201c565b6101326040518060400160405280600381526020017f4a505900000000000000000000000000000000000000000000000000000000008152506503a35294400061018260201b60201c565b61017d6040518060400160405280600381526020017f494e52000000000000000000000000000000000000000000000000000000000081525065065dd083700061018260201b60201c565b610892565b5f5f9054906101000a900473ffffffffffffffffffffffffffffffffffffffff1673ffffffffffffffffffffffffffffffffffffffff163373ffffffffffffffffffffffffffffffffffffffff1614610210576040517f08c379a00000000000000000000000000000000000000000000000000000000081526004016102079061039d565b60405180910390fd5b5f8111610252576040517f08c379a00000000000000000000000000000000000000000000000000000000081526004016102499061042b565b60405180910390fd5b5f5f90505f5f90505b6004805490508110156102bc5783805190602001206004828154811061028457610283610449565b5b905f5260205f2001604051610299919061056f565b6040518091039020036102af57600191506102bc565b808060010191505061025b565b50806102f557600483908060018154018082558091505060019003905f5260205f20015f9091909190915090816102f39190610765565b505b81600284604051610306919061087c565b908152602001604051809103902081905550505050565b5f82825260208201905092915050565b7f4f6e6c79206f776e65722063616e20706572666f726d207468697320616374695f8201527f6f6e000000000000000000000000000000000000000000000000000000000000602082015250565b5f61038760228361031d565b91506103928261032d565b604082019050919050565b5f6020820190508181035f8301526103b48161037b565b9050919050565b7f436f6e76657273696f6e2072617465206d7573742062652067726561746572205f8201527f7468616e20300000000000000000000000000000000000000000000000000000602082015250565b5f61041560268361031d565b9150610420826103bb565b604082019050919050565b5f6020820190508181035f83015261044281610409565b9050919050565b7f4e487b71000000000000000000000000000000000000000000000000000000005f52603260045260245ffd5b7f4e487b71000000000000000000000000000000000000000000000000000000005f52602260045260245ffd5b5f60028204905060018216806104ba57607f821691505b6020821081036104cd576104cc610476565b5b50919050565b5f81905092915050565b5f819050815f5260205f209050919050565b5f81546104fb816104a3565b61050581866104d3565b9450600182165f811461051f576001811461053457610566565b60ff1983168652811515820286019350610566565b61053d856104dd565b5f5b8381101561055e5781548189015260018201915060208101905061053f565b838801955050505b50505092915050565b5f61057a82846104ef565b915081905092915050565b5f81519050919050565b7f4e487b71000000000000000000000000000000000000000000000000000000005f52604160045260245ffd5b5f819050815f5260205f209050919050565b5f6020601f8301049050919050565b5f82821b905092915050565b5f600883026106187fffffffffffffffffffffffffffffffffffffffffffffffffffffffffffffffff826105dd565b61062286836105dd565b95508019841693508086168417925050509392505050565b5f819050919050565b5f819050919050565b5f61066661066161065c8461063a565b610643565b61063a565b9050919050565b5f819050919050565b61067f8361064c565b61069361068b8261066d565b8484546105e9565b825550505050565b5f5f905090565b6106aa61069b565b6106b5818484610676565b505050565b5b818110156106d8576106cd5f826106a2565b6001810190506106bb565b5050565b601f82111561071d576106ee816105bc565b6106f7846105ce565b81016020851015610706578190505b61071a610712856105ce565b8301826106ba565b50505b505050565b5f82821c905092915050565b5f61073d5f1984600802610722565b1980831691505092915050565b5f610755838361072e565b9150826002028217905092915050565b61076e82610585565b67ffffffffffffffff8111156107875761078661058f565b5b61079182546104a3565b61079c8282856106dc565b5f60209050601f8311600181146107cd575f84156107bb578287015190505b6107c5858261074a565b86555061082c565b601f1984166107db866105bc565b5f5b82811015610802578489015182556001820191506020850194506020810190506107dd565b8683101561081f578489015161081b601f89168261072e565b8355505b6001600288020188555050505b505050505050565b5f81905092915050565b8281835e5f83830152505050565b5f61085682610585565b6108608185610834565b935061087081856020860161083e565b80840191505092915050565b5f610887828461084c565b915081905092915050565b611d1c8061089f5f395ff3fe6080604052600436106100fd575f3560e01c80635c49c8251161009457806397bf79351161006357806397bf7935146103615780639c88e42d1461039d578063b8443702146103b9578063efe8c084146103c3578063f2fde38b146103ed576100fd565b80635c49c825146102a95780636de0938b146102d15780636f9fb98a1461030d5780638da5cb5b14610337576100fd565b8063223506a7116100d0578063223506a7146101f15780632ce758631461022d5780633aaa74b2146102575780635c41fece1461026d576100fd565b80630a0e5da9146101015780630a8dc5001461013d5780630d9ba15f146101795780631fac531b146101b5575b5f5ffd5b34801561010c575f5ffd5b5061012760048036038101906101229190610f1c565b610415565b6040516101349190610f5f565b60405180910390f35b348015610148575f5ffd5b50610163600480360381019061015e91906110b4565b61042a565b6040516101709190610f5f565b60405180910390f35b348015610184575f5ffd5b5061019f600480360381019061019a91906110b4565b610451565b6040516101ac9190610f5f565b60405180910390f35b3480156101c0575f5ffd5b506101db60048036038101906101d691906110b4565b61047e565b6040516101e89190610f5f565b60405180910390f35b3480156101fc575f5ffd5b5061021760048036038101906102129190610f1c565b610505565b6040516102249190610f5f565b60405180910390f35b348015610238575f5ffd5b5061024161054b565b60405161024e9190611216565b60405180910390f35b348015610262575f5ffd5b5061026b61061f565b005b348015610278575f5ffd5b50610293600480360381019061028e91906110b4565b6107c6565b6040516102a09190610f5f565b60405180910390f35b3480156102b4575f5ffd5b506102cf60048036038101906102ca9190611260565b6107f3565b005b3480156102dc575f5ffd5b506102f760048036038101906102f29190611260565b61098e565b6040516103049190610f5f565b60405180910390f35b348015610318575f5ffd5b50610321610a26565b60405161032e9190610f5f565b60405180910390f35b348015610342575f5ffd5b5061034b610a2d565b60405161035891906112c9565b60405180910390f35b34801561036c575f5ffd5b50610387600480360381019061038291906112e2565b610a51565b6040516103949190611355565b60405180910390f35b6103b760048036038101906103b29190611260565b610af7565b005b6103c1610c8c565b005b3480156103ce575f5ffd5b506103d7610d6d565b6040516103e49190610f5f565b60405180910390f35b3480156103f8575f5ffd5b50610413600480360381019061040e9190610f1c565b610d73565b005b6003602052805f5260405f205f915090505481565b5f60058260405161043b91906113af565b9081526020016040518091039020549050919050565b6005818051602081018201805184825260208301602085012081835280955050505050505f915090505481565b5f5f60028360405161049091906113af565b908152602001604051809103902054116104df576040517f08c379a00000000000000000000000000000000000000000000000000000000081526004016104d69061140f565b60405180910390fd5b6002826040516104ef91906113af565b9081526020016040518091039020549050919050565b5f60035f8373ffffffffffffffffffffffffffffffffffffffff1673ffffffffffffffffffffffffffffffffffffffff1681526020019081526020015f20549050919050565b60606004805480602002602001604051908101604052809291908181526020015f905b82821015610616578382905f5260205f2001805461058b9061145a565b80601f01602080910402602001604051908101604052809291908181526020018280546105b79061145a565b80156106025780601f106105d957610100808354040283529160200191610602565b820191905f5260205f20905b8154815290600101906020018083116105e557829003601f168201915b50505050508152602001906001019061056e565b50505050905090565b5f5f9054906101000a900473ffffffffffffffffffffffffffffffffffffffff1673ffffffffffffffffffffffffffffffffffffffff163373ffffffffffffffffffffffffffffffffffffffff16146106ad576040517f08c379a00000000000000000000000000000000000000000000000000000000081526004016106a4906114fa565b60405180910390fd5b5f4790505f81116106f3576040517f08c379a00000000000000000000000000000000000000000000000000000000081526004016106ea90611562565b60405180910390fd5b5f5f5f9054906101000a900473ffffffffffffffffffffffffffffffffffffffff1673ffffffffffffffffffffffffffffffffffffffff1682604051610738906115ad565b5f6040518083038185875af1925050503d805f8114610772576040519150601f19603f3d011682016040523d82523d5f602084013e610777565b606091505b50509050806107bb576040517f08c379a00000000000000000000000000000000000000000000000000000000081526004016107b29061160b565b60405180910390fd5b5f6001819055505050565b6002818051602081018201805184825260208301602085012081835280955050505050505f915090505481565b5f5f9054906101000a900473ffffffffffffffffffffffffffffffffffffffff1673ffffffffffffffffffffffffffffffffffffffff163373ffffffffffffffffffffffffffffffffffffffff1614610881576040517f08c379a0000000000000000000000000000000000000000000000000000000008152600401610878906114fa565b60405180910390fd5b5f81116108c3576040517f08c379a00000000000000000000000000000000000000000000000000000000081526004016108ba90611699565b60405180910390fd5b5f5f90505f5f90505b60048054905081101561092d578380519060200120600482815481106108f5576108f46116b7565b5b905f5260205f200160405161090a9190611776565b604051809103902003610920576001915061092d565b80806001019150506108cc565b508061096657600483908060018154018082558091505060019003905f5260205f20015f909190919091509081610964919061192c565b505b8160028460405161097791906113af565b908152602001604051809103902081905550505050565b5f5f6002846040516109a091906113af565b908152602001604051809103902054116109ef576040517f08c379a00000000000000000000000000000000000000000000000000000000081526004016109e69061140f565b60405180910390fd5b5f600284604051610a0091906113af565b90815260200160405180910390205483610a1a9190611a28565b90508091505092915050565b5f47905090565b5f5f9054906101000a900473ffffffffffffffffffffffffffffffffffffffff1681565b60048181548110610a60575f80fd5b905f5260205f20015f915090508054610a789061145a565b80601f0160208091040260200160405190810160405280929190818152602001828054610aa49061145a565b8015610aef5780601f10610ac657610100808354040283529160200191610aef565b820191905f5260205f20905b815481529060010190602001808311610ad257829003601f168201915b505050505081565b5f600283604051610b0891906113af565b90815260200160405180910390205411610b57576040517f08c379a0000000000000000000000000000000000000000000000000000000008152600401610b4e9061140f565b60405180910390fd5b5f8111610b99576040517f08c379a0000000000000000000000000000000000000000000000000000000008152600401610b9090611ab3565b60405180910390fd5b5f610ba4838361098e565b9050803414610be8576040517f08c379a0000000000000000000000000000000000000000000000000000000008152600401610bdf90611b41565b60405180910390fd5b3460035f3373ffffffffffffffffffffffffffffffffffffffff1673ffffffffffffffffffffffffffffffffffffffff1681526020019081526020015f205f828254610c349190611b5f565b925050819055503460015f828254610c4c9190611b5f565b9250508190555081600584604051610c6491906113af565b90815260200160405180910390205f828254610c809190611b5f565b92505081905550505050565b5f3411610cce576040517f08c379a0000000000000000000000000000000000000000000000000000000008152600401610cc590611c02565b60405180910390fd5b3460035f3373ffffffffffffffffffffffffffffffffffffffff1673ffffffffffffffffffffffffffffffffffffffff1681526020019081526020015f205f828254610d1a9190611b5f565b925050819055503460015f828254610d329190611b5f565b92505081905550346005604051610d4890611c6a565b90815260200160405180910390205f828254610d649190611b5f565b92505081905550565b60015481565b5f5f9054906101000a900473ffffffffffffffffffffffffffffffffffffffff1673ffffffffffffffffffffffffffffffffffffffff163373ffffffffffffffffffffffffffffffffffffffff1614610e01576040517f08c379a0000000000000000000000000000000000000000000000000000000008152600401610df8906114fa565b60405180910390fd5b5f73ffffffffffffffffffffffffffffffffffffffff168173ffffffffffffffffffffffffffffffffffffffff1603610e6f576040517f08c379a0000000000000000000000000000000000000000000000000000000008152600401610e6690611cc8565b60405180910390fd5b805f5f6101000a81548173ffffffffffffffffffffffffffffffffffffffff021916908373ffffffffffffffffffffffffffffffffffffffff16021790555050565b5f604051905090565b5f5ffd5b5f5ffd5b5f73ffffffffffffffffffffffffffffffffffffffff82169050919050565b5f610eeb82610ec2565b9050919050565b610efb81610ee1565b8114610f05575f5ffd5b50565b5f81359050610f1681610ef2565b92915050565b5f60208284031215610f3157610f30610eba565b5b5f610f3e84828501610f08565b91505092915050565b5f819050919050565b610f5981610f47565b82525050565b5f602082019050610f725f830184610f50565b92915050565b5f5ffd5b5f5ffd5b5f601f19601f8301169050919050565b7f4e487b71000000000000000000000000000000000000000000000000000000005f52604160045260245ffd5b610fc682610f80565b810181811067ffffffffffffffff82111715610fe557610fe4610f90565b5b80604052505050565b5f610ff7610eb1565b90506110038282610fbd565b919050565b5f67ffffffffffffffff82111561102257611021610f90565b5b61102b82610f80565b9050602081019050919050565b828183375f83830152505050565b5f61105861105384611008565b610fee565b90508281526020810184848401111561107457611073610f7c565b5b61107f848285611038565b509392505050565b5f82601f83011261109b5761109a610f78565b5b81356110ab848260208601611046565b91505092915050565b5f602082840312156110c9576110c8610eba565b5b5f82013567ffffffffffffffff8111156110e6576110e5610ebe565b5b6110f284828501611087565b91505092915050565b5f81519050919050565b5f82825260208201905092915050565b5f819050602082019050919050565b5f81519050919050565b5f82825260208201905092915050565b8281835e5f83830152505050565b5f61115682611124565b611160818561112e565b935061117081856020860161113e565b61117981610f80565b840191505092915050565b5f61118f838361114c565b905092915050565b5f602082019050919050565b5f6111ad826110fb565b6111b78185611105565b9350836020820285016111c985611115565b805f5b8581101561120457848403895281516111e58582611184565b94506111f083611197565b925060208a019950506001810190506111cc565b50829750879550505050505092915050565b5f6020820190508181035f83015261122e81846111a3565b905092915050565b61123f81610f47565b8114611249575f5ffd5b50565b5f8135905061125a81611236565b92915050565b5f5f6040838503121561127657611275610eba565b5b5f83013567ffffffffffffffff81111561129357611292610ebe565b5b61129f85828601611087565b92505060206112b08582860161124c565b9150509250929050565b6112c381610ee1565b82525050565b5f6020820190506112dc5f8301846112ba565b92915050565b5f602082840312156112f7576112f6610eba565b5b5f6113048482850161124c565b91505092915050565b5f82825260208201905092915050565b5f61132782611124565b611331818561130d565b935061134181856020860161113e565b61134a81610f80565b840191505092915050565b5f6020820190508181035f83015261136d818461131d565b905092915050565b5f81905092915050565b5f61138982611124565b6113938185611375565b93506113a381856020860161113e565b80840191505092915050565b5f6113ba828461137f565b915081905092915050565b7f43757272656e6379206e6f7420737570706f72746564000000000000000000005f82015250565b5f6113f960168361130d565b9150611404826113c5565b602082019050919050565b5f6020820190508181035f830152611426816113ed565b9050919050565b7f4e487b71000000000000000000000000000000000000000000000000000000005f52602260045260245ffd5b5f600282049050600182168061147157607f821691505b6020821081036114845761148361142d565b5b50919050565b7f4f6e6c79206f776e65722063616e20706572666f726d207468697320616374695f8201527f6f6e000000000000000000000000000000000000000000000000000000000000602082015250565b5f6114e460228361130d565b91506114ef8261148a565b604082019050919050565b5f6020820190508181035f830152611511816114d8565b9050919050565b7f4e6f207469707320746f207769746864726177000000000000000000000000005f82015250565b5f61154c60138361130d565b915061155782611518565b602082019050919050565b5f6020820190508181035f83015261157981611540565b9050919050565b5f81905092915050565b50565b5f6115985f83611580565b91506115a38261158a565b5f82019050919050565b5f6115b78261158d565b9150819050919050565b7f5472616e73666572206661696c656400000000000000000000000000000000005f82015250565b5f6115f5600f8361130d565b9150611600826115c1565b602082019050919050565b5f6020820190508181035f830152611622816115e9565b9050919050565b7f436f6e76657273696f6e2072617465206d7573742062652067726561746572205f8201527f7468616e20300000000000000000000000000000000000000000000000000000602082015250565b5f61168360268361130d565b915061168e82611629565b604082019050919050565b5f6020820190508181035f8301526116b081611677565b9050919050565b7f4e487b71000000000000000000000000000000000000000000000000000000005f52603260045260245ffd5b5f819050815f5260205f209050919050565b5f81546117028161145a565b61170c8186611580565b9450600182165f8114611726576001811461173b5761176d565b60ff198316865281151582028601935061176d565b611744856116e4565b5f5b8381101561176557815481890152600182019150602081019050611746565b838801955050505b50505092915050565b5f61178182846116f6565b915081905092915050565b5f819050815f5260205f209050919050565b5f6020601f8301049050919050565b5f82821b905092915050565b5f600883026117e87fffffffffffffffffffffffffffffffffffffffffffffffffffffffffffffffff826117ad565b6117f286836117ad565b95508019841693508086168417925050509392505050565b5f819050919050565b5f61182d61182861182384610f47565b61180a565b610f47565b9050919050565b5f819050919050565b61184683611813565b61185a61185282611834565b8484546117b9565b825550505050565b5f5f905090565b611871611862565b61187c81848461183d565b505050565b5b8181101561189f576118945f82611869565b600181019050611882565b5050565b601f8211156118e4576118b58161178c565b6118be8461179e565b810160208510156118cd578190505b6118e16118d98561179e565b830182611881565b50505b505050565b5f82821c905092915050565b5f6119045f19846008026118e9565b1980831691505092915050565b5f61191c83836118f5565b9150826002028217905092915050565b61193582611124565b67ffffffffffffffff81111561194e5761194d610f90565b5b611958825461145a565b6119638282856118a3565b5f60209050601f831160018114611994575f8415611982578287015190505b61198c8582611911565b8655506119f3565b601f1984166119a28661178c565b5f5b828110156119c9578489015182556001820191506020850194506020810190506119a4565b868310156119e657848901516119e2601f8916826118f5565b8355505b6001600288020188555050505b505050505050565b7f4e487b71000000000000000000000000000000000000000000000000000000005f52601160045260245ffd5b5f611a3282610f47565b9150611a3d83610f47565b9250828202611a4b81610f47565b91508282048414831517611a6257611a616119fb565b5b5092915050565b7f416d6f756e74206d7573742062652067726561746572207468616e20300000005f82015250565b5f611a9d601d8361130d565b9150611aa882611a69565b602082019050919050565b5f6020820190508181035f830152611aca81611a91565b9050919050565b7f53656e742045544820646f65736e2774206d617463682074686520636f6e76655f8201527f7274656420616d6f756e74000000000000000000000000000000000000000000602082015250565b5f611b2b602b8361130d565b9150611b3682611ad1565b604082019050919050565b5f6020820190508181035f830152611b5881611b1f565b9050919050565b5f611b6982610f47565b9150611b7483610f47565b9250828201905080821115611b8c57611b8b6119fb565b5b92915050565b7f54697020616d6f756e74206d7573742062652067726561746572207468616e205f8201527f3000000000000000000000000000000000000000000000000000000000000000602082015250565b5f611bec60218361130d565b9150611bf782611b92565b604082019050919050565b5f6020820190508181035f830152611c1981611be0565b9050919050565b7f45544800000000000000000000000000000000000000000000000000000000005f82015250565b5f611c54600383611375565b9150611c5f82611c20565b600382019050919050565b5f611c7482611c48565b9150819050919050565b7f496e76616c6964206164647265737300000000000000000000000000000000005f82015250565b5f611cb2600f8361130d565b9150611cbd82611c7e565b602082019050919050565b5f6020820190508181035f830152611cdf81611ca6565b905091905056fea2646970667358221220c908efcb0c261150b91f188cc294c5449fccbabc88fe4688ef7be21a5ea1906564736f6c634300081e0033",
					"opcodes": "PUSH1 0x80 PUSH1 0x40 MSTORE CALLVALUE DUP1 ISZERO PUSH2 0xF JUMPI PUSH0 PUSH0 REVERT JUMPDEST POP CALLER PUSH0 PUSH0 PUSH2 0x100 EXP DUP2 SLOAD DUP2 PUSH20 0xFFFFFFFFFFFFFFFFFFFFFFFFFFFFFFFFFFFFFFFF MUL NOT AND SWAP1 DUP4 PUSH20 0xFFFFFFFFFFFFFFFFFFFFFFFFFFFFFFFFFFFFFFFF AND MUL OR SWAP1 SSTORE POP PUSH2 0x9B PUSH1 0x40 MLOAD DUP1 PUSH1 0x40 ADD PUSH1 0x40 MSTORE DUP1 PUSH1 0x3 DUP2 MSTORE PUSH1 0x20 ADD PUSH32 0x5553440000000000000000000000000000000000000000000000000000000000 DUP2 MSTORE POP PUSH7 0x1C6BF52634000 PUSH2 0x182 PUSH1 0x20 SHL PUSH1 0x20 SHR JUMP JUMPDEST PUSH2 0xE7 PUSH1 0x40 MLOAD DUP1 PUSH1 0x40 ADD PUSH1 0x40 MSTORE DUP1 PUSH1 0x3 DUP2 MSTORE PUSH1 0x20 ADD PUSH32 0x4555520000000000000000000000000000000000000000000000000000000000 DUP2 MSTORE POP PUSH7 0x221B262DD8000 PUSH2 0x182 PUSH1 0x20 SHL PUSH1 0x20 SHR JUMP JUMPDEST PUSH2 0x132 PUSH1 0x40 MLOAD DUP1 PUSH1 0x40 ADD PUSH1 0x40 MSTORE DUP1 PUSH1 0x3 DUP2 MSTORE PUSH1 0x20 ADD PUSH32 0x4A50590000000000000000000000000000000000000000000000000000000000 DUP2 MSTORE POP PUSH6 0x3A352944000 PUSH2 0x182 PUSH1 0x20 SHL PUSH1 0x20 SHR JUMP JUMPDEST PUSH2 0x17D PUSH1 0x40 MLOAD DUP1 PUSH1 0x40 ADD PUSH1 0x40 MSTORE DUP1 PUSH1 0x3 DUP2 MSTORE PUSH1 0x20 ADD PUSH32 0x494E520000000000000000000000000000000000000000000000000000000000 DUP2 MSTORE POP PUSH6 0x65DD0837000 PUSH2 0x182 PUSH1 0x20 SHL PUSH1 0x20 SHR JUMP JUMPDEST PUSH2 0x892 JUMP JUMPDEST PUSH0 PUSH0 SWAP1 SLOAD SWAP1 PUSH2 0x100 EXP SWAP1 DIV PUSH20 0xFFFFFFFFFFFFFFFFFFFFFFFFFFFFFFFFFFFFFFFF AND PUSH20 0xFFFFFFFFFFFFFFFFFFFFFFFFFFFFFFFFFFFFFFFF AND CALLER PUSH20 0xFFFFFFFFFFFFFFFFFFFFFFFFFFFFFFFFFFFFFFFF AND EQ PUSH2 0x210 JUMPI PUSH1 0x40 MLOAD PUSH32 0x8C379A000000000000000000000000000000000000000000000000000000000 DUP2 MSTORE PUSH1 0x4 ADD PUSH2 0x207 SWAP1 PUSH2 0x39D JUMP JUMPDEST PUSH1 0x40 MLOAD DUP1 SWAP2 SUB SWAP1 REVERT JUMPDEST PUSH0 DUP2 GT PUSH2 0x252 JUMPI PUSH1 0x40 MLOAD PUSH32 0x8C379A000000000000000000000000000000000000000000000000000000000 DUP2 MSTORE PUSH1 0x4 ADD PUSH2 0x249 SWAP1 PUSH2 0x42B JUMP JUMPDEST PUSH1 0x40 MLOAD DUP1 SWAP2 SUB SWAP1 REVERT JUMPDEST PUSH0 PUSH0 SWAP1 POP PUSH0 PUSH0 SWAP1 POP JUMPDEST PUSH1 0x4 DUP1 SLOAD SWAP1 POP DUP2 LT ISZERO PUSH2 0x2BC JUMPI DUP4 DUP1 MLOAD SWAP1 PUSH1 0x20 ADD KECCAK256 PUSH1 0x4 DUP3 DUP2 SLOAD DUP2 LT PUSH2 0x284 JUMPI PUSH2 0x283 PUSH2 0x449 JUMP JUMPDEST JUMPDEST SWAP1 PUSH0 MSTORE PUSH1 0x20 PUSH0 KECCAK256 ADD PUSH1 0x40 MLOAD PUSH2 0x299 SWAP2 SWAP1 PUSH2 0x56F JUMP JUMPDEST PUSH1 0x40 MLOAD DUP1 SWAP2 SUB SWAP1 KECCAK256 SUB PUSH2 0x2AF JUMPI PUSH1 0x1 SWAP2 POP PUSH2 0x2BC JUMP JUMPDEST DUP1 DUP1 PUSH1 0x1 ADD SWAP2 POP POP PUSH2 0x25B JUMP JUMPDEST POP DUP1 PUSH2 0x2F5 JUMPI PUSH1 0x4 DUP4 SWAP1 DUP1 PUSH1 0x1 DUP2 SLOAD ADD DUP1 DUP3 SSTORE DUP1 SWAP2 POP POP PUSH1 0x1 SWAP1 SUB SWAP1 PUSH0 MSTORE PUSH1 0x20 PUSH0 KECCAK256 ADD PUSH0 SWAP1 SWAP2 SWAP1 SWAP2 SWAP1 SWAP2 POP SWAP1 DUP2 PUSH2 0x2F3 SWAP2 SWAP1 PUSH2 0x765 JUMP JUMPDEST POP JUMPDEST DUP2 PUSH1 0x2 DUP5 PUSH1 0x40 MLOAD PUSH2 0x306 SWAP2 SWAP1 PUSH2 0x87C JUMP JUMPDEST SWAP1 DUP2 MSTORE PUSH1 0x20 ADD PUSH1 0x40 MLOAD DUP1 SWAP2 SUB SWAP1 KECCAK256 DUP2 SWAP1 SSTORE POP POP POP POP JUMP JUMPDEST PUSH0 DUP3 DUP3 MSTORE PUSH1 0x20 DUP3 ADD SWAP1 POP SWAP3 SWAP2 POP POP JUMP JUMPDEST PUSH32 0x4F6E6C79206F776E65722063616E20706572666F726D20746869732061637469 PUSH0 DUP3 ADD MSTORE PUSH32 0x6F6E000000000000000000000000000000000000000000000000000000000000 PUSH1 0x20 DUP3 ADD MSTORE POP JUMP JUMPDEST PUSH0 PUSH2 0x387 PUSH1 0x22 DUP4 PUSH2 0x31D JUMP JUMPDEST SWAP2 POP PUSH2 0x392 DUP3 PUSH2 0x32D JUMP JUMPDEST PUSH1 0x40 DUP3 ADD SWAP1 POP SWAP2 SWAP1 POP JUMP JUMPDEST PUSH0 PUSH1 0x20 DUP3 ADD SWAP1 POP DUP2 DUP2 SUB PUSH0 DUP4 ADD MSTORE PUSH2 0x3B4 DUP2 PUSH2 0x37B JUMP JUMPDEST SWAP1 POP SWAP2 SWAP1 POP JUMP JUMPDEST PUSH32 0x436F6E76657273696F6E2072617465206D757374206265206772656174657220 PUSH0 DUP3 ADD MSTORE PUSH32 0x7468616E20300000000000000000000000000000000000000000000000000000 PUSH1 0x20 DUP3 ADD MSTORE POP JUMP JUMPDEST PUSH0 PUSH2 0x415 PUSH1 0x26 DUP4 PUSH2 0x31D JUMP JUMPDEST SWAP2 POP PUSH2 0x420 DUP3 PUSH2 0x3BB JUMP JUMPDEST PUSH1 0x40 DUP3 ADD SWAP1 POP SWAP2 SWAP1 POP JUMP JUMPDEST PUSH0 PUSH1 0x20 DUP3 ADD SWAP1 POP DUP2 DUP2 SUB PUSH0 DUP4 ADD MSTORE PUSH2 0x442 DUP2 PUSH2 0x409 JUMP JUMPDEST SWAP1 POP SWAP2 SWAP1 POP JUMP JUMPDEST PUSH32 0x4E487B7100000000000000000000000000000000000000000000000000000000 PUSH0 MSTORE PUSH1 0x32 PUSH1 0x4 MSTORE PUSH1 0x24 PUSH0 REVERT JUMPDEST PUSH32 0x4E487B7100000000000000000000000000000000000000000000000000000000 PUSH0 MSTORE PUSH1 0x22 PUSH1 0x4 MSTORE PUSH1 0x24 PUSH0 REVERT JUMPDEST PUSH0 PUSH1 0x2 DUP3 DIV SWAP1 POP PUSH1 0x1 DUP3 AND DUP1 PUSH2 0x4BA JUMPI PUSH1 0x7F DUP3 AND SWAP2 POP JUMPDEST PUSH1 0x20 DUP3 LT DUP2 SUB PUSH2 0x4CD JUMPI PUSH2 0x4CC PUSH2 0x476 JUMP JUMPDEST JUMPDEST POP SWAP2 SWAP1 POP JUMP JUMPDEST PUSH0 DUP2 SWAP1 POP SWAP3 SWAP2 POP POP JUMP JUMPDEST PUSH0 DUP2 SWAP1 POP DUP2 PUSH0 MSTORE PUSH1 0x20 PUSH0 KECCAK256 SWAP1 POP SWAP2 SWAP1 POP JUMP JUMPDEST PUSH0 DUP2 SLOAD PUSH2 0x4FB DUP2 PUSH2 0x4A3 JUMP JUMPDEST PUSH2 0x505 DUP2 DUP7 PUSH2 0x4D3 JUMP JUMPDEST SWAP5 POP PUSH1 0x1 DUP3 AND PUSH0 DUP2 EQ PUSH2 0x51F JUMPI PUSH1 0x1 DUP2 EQ PUSH2 0x534 JUMPI PUSH2 0x566 JUMP JUMPDEST PUSH1 0xFF NOT DUP4 AND DUP7 MSTORE DUP2 ISZERO ISZERO DUP3 MUL DUP7 ADD SWAP4 POP PUSH2 0x566 JUMP JUMPDEST PUSH2 0x53D DUP6 PUSH2 0x4DD JUMP JUMPDEST PUSH0 JUMPDEST DUP4 DUP2 LT ISZERO PUSH2 0x55E JUMPI DUP2 SLOAD DUP2 DUP10 ADD MSTORE PUSH1 0x1 DUP3 ADD SWAP2 POP PUSH1 0x20 DUP2 ADD SWAP1 POP PUSH2 0x53F JUMP JUMPDEST DUP4 DUP9 ADD SWAP6 POP POP POP JUMPDEST POP POP POP SWAP3 SWAP2 POP POP JUMP JUMPDEST PUSH0 PUSH2 0x57A DUP3 DUP5 PUSH2 0x4EF JUMP JUMPDEST SWAP2 POP DUP2 SWAP1 POP SWAP3 SWAP2 POP POP JUMP JUMPDEST PUSH0 DUP2 MLOAD SWAP1 POP SWAP2 SWAP1 POP JUMP JUMPDEST PUSH32 0x4E487B7100000000000000000000000000000000000000000000000000000000 PUSH0 MSTORE PUSH1 0x41 PUSH1 0x4 MSTORE PUSH1 0x24 PUSH0 REVERT JUMPDEST PUSH0 DUP2 SWAP1 POP DUP2 PUSH0 MSTORE PUSH1 0x20 PUSH0 KECCAK256 SWAP1 POP SWAP2 SWAP1 POP JUMP JUMPDEST PUSH0 PUSH1 0x20 PUSH1 0x1F DUP4 ADD DIV SWAP1 POP SWAP2 SWAP1 POP JUMP JUMPDEST PUSH0 DUP3 DUP3 SHL SWAP1 POP SWAP3 SWAP2 POP POP JUMP JUMPDEST PUSH0 PUSH1 0x8 DUP4 MUL PUSH2 0x618 PUSH32 0xFFFFFFFFFFFFFFFFFFFFFFFFFFFFFFFFFFFFFFFFFFFFFFFFFFFFFFFFFFFFFFFF DUP3 PUSH2 0x5DD JUMP JUMPDEST PUSH2 0x622 DUP7 DUP4 PUSH2 0x5DD JUMP JUMPDEST SWAP6 POP DUP1 NOT DUP5 AND SWAP4 POP DUP1 DUP7 AND DUP5 OR SWAP3 POP POP POP SWAP4 SWAP3 POP POP POP JUMP JUMPDEST PUSH0 DUP2 SWAP1 POP SWAP2 SWAP1 POP JUMP JUMPDEST PUSH0 DUP2 SWAP1 POP SWAP2 SWAP1 POP JUMP JUMPDEST PUSH0 PUSH2 0x666 PUSH2 0x661 PUSH2 0x65C DUP5 PUSH2 0x63A JUMP JUMPDEST PUSH2 0x643 JUMP JUMPDEST PUSH2 0x63A JUMP JUMPDEST SWAP1 POP SWAP2 SWAP1 POP JUMP JUMPDEST PUSH0 DUP2 SWAP1 POP SWAP2 SWAP1 POP JUMP JUMPDEST PUSH2 0x67F DUP4 PUSH2 0x64C JUMP JUMPDEST PUSH2 0x693 PUSH2 0x68B DUP3 PUSH2 0x66D JUMP JUMPDEST DUP5 DUP5 SLOAD PUSH2 0x5E9 JUMP JUMPDEST DUP3 SSTORE POP POP POP POP JUMP JUMPDEST PUSH0 PUSH0 SWAP1 POP SWAP1 JUMP JUMPDEST PUSH2 0x6AA PUSH2 0x69B JUMP JUMPDEST PUSH2 0x6B5 DUP2 DUP5 DUP5 PUSH2 0x676 JUMP JUMPDEST POP POP POP JUMP JUMPDEST JUMPDEST DUP2 DUP2 LT ISZERO PUSH2 0x6D8 JUMPI PUSH2 0x6CD PUSH0 DUP3 PUSH2 0x6A2 JUMP JUMPDEST PUSH1 0x1 DUP2 ADD SWAP1 POP PUSH2 0x6BB JUMP JUMPDEST POP POP JUMP JUMPDEST PUSH1 0x1F DUP3 GT ISZERO PUSH2 0x71D JUMPI PUSH2 0x6EE DUP2 PUSH2 0x5BC JUMP JUMPDEST PUSH2 0x6F7 DUP5 PUSH2 0x5CE JUMP JUMPDEST DUP2 ADD PUSH1 0x20 DUP6 LT ISZERO PUSH2 0x706 JUMPI DUP2 SWAP1 POP JUMPDEST PUSH2 0x71A PUSH2 0x712 DUP6 PUSH2 0x5CE JUMP JUMPDEST DUP4 ADD DUP3 PUSH2 0x6BA JUMP JUMPDEST POP POP JUMPDEST POP POP POP JUMP JUMPDEST PUSH0 DUP3 DUP3 SHR SWAP1 POP SWAP3 SWAP2 POP POP JUMP JUMPDEST PUSH0 PUSH2 0x73D PUSH0 NOT DUP5 PUSH1 0x8 MUL PUSH2 0x722 JUMP JUMPDEST NOT DUP1 DUP4 AND SWAP2 POP POP SWAP3 SWAP2 POP POP JUMP JUMPDEST PUSH0 PUSH2 0x755 DUP4 DUP4 PUSH2 0x72E JUMP JUMPDEST SWAP2 POP DUP3 PUSH1 0x2 MUL DUP3 OR SWAP1 POP SWAP3 SWAP2 POP POP JUMP JUMPDEST PUSH2 0x76E DUP3 PUSH2 0x585 JUMP JUMPDEST PUSH8 0xFFFFFFFFFFFFFFFF DUP2 GT ISZERO PUSH2 0x787 JUMPI PUSH2 0x786 PUSH2 0x58F JUMP JUMPDEST JUMPDEST PUSH2 0x791 DUP3 SLOAD PUSH2 0x4A3 JUMP JUMPDEST PUSH2 0x79C DUP3 DUP3 DUP6 PUSH2 0x6DC JUMP JUMPDEST PUSH0 PUSH1 0x20 SWAP1 POP PUSH1 0x1F DUP4 GT PUSH1 0x1 DUP2 EQ PUSH2 0x7CD JUMPI PUSH0 DUP5 ISZERO PUSH2 0x7BB JUMPI DUP3 DUP8 ADD MLOAD SWAP1 POP JUMPDEST PUSH2 0x7C5 DUP6 DUP3 PUSH2 0x74A JUMP JUMPDEST DUP7 SSTORE POP PUSH2 0x82C JUMP JUMPDEST PUSH1 0x1F NOT DUP5 AND PUSH2 0x7DB DUP7 PUSH2 0x5BC JUMP JUMPDEST PUSH0 JUMPDEST DUP3 DUP2 LT ISZERO PUSH2 0x802 JUMPI DUP5 DUP10 ADD MLOAD DUP3 SSTORE PUSH1 0x1 DUP3 ADD SWAP2 POP PUSH1 0x20 DUP6 ADD SWAP5 POP PUSH1 0x20 DUP2 ADD SWAP1 POP PUSH2 0x7DD JUMP JUMPDEST DUP7 DUP4 LT ISZERO PUSH2 0x81F JUMPI DUP5 DUP10 ADD MLOAD PUSH2 0x81B PUSH1 0x1F DUP10 AND DUP3 PUSH2 0x72E JUMP JUMPDEST DUP4 SSTORE POP JUMPDEST PUSH1 0x1 PUSH1 0x2 DUP9 MUL ADD DUP9 SSTORE POP POP POP JUMPDEST POP POP POP POP POP POP JUMP JUMPDEST PUSH0 DUP2 SWAP1 POP SWAP3 SWAP2 POP POP JUMP JUMPDEST DUP3 DUP2 DUP4 MCOPY PUSH0 DUP4 DUP4 ADD MSTORE POP POP POP JUMP JUMPDEST PUSH0 PUSH2 0x856 DUP3 PUSH2 0x585 JUMP JUMPDEST PUSH2 0x860 DUP2 DUP6 PUSH2 0x834 JUMP JUMPDEST SWAP4 POP PUSH2 0x870 DUP2 DUP6 PUSH1 0x20 DUP7 ADD PUSH2 0x83E JUMP JUMPDEST DUP1 DUP5 ADD SWAP2 POP POP SWAP3 SWAP2 POP POP JUMP JUMPDEST PUSH0 PUSH2 0x887 DUP3 DUP5 PUSH2 0x84C JUMP JUMPDEST SWAP2 POP DUP2 SWAP1 POP SWAP3 SWAP2 POP POP JUMP JUMPDEST PUSH2 0x1D1C DUP1 PUSH2 0x89F PUSH0 CODECOPY PUSH0 RETURN INVALID PUSH1 0x80 PUSH1 0x40 MSTORE PUSH1 0x4 CALLDATASIZE LT PUSH2 0xFD JUMPI PUSH0 CALLDATALOAD PUSH1 0xE0 SHR DUP1 PUSH4 0x5C49C825 GT PUSH2 0x94 JUMPI DUP1 PUSH4 0x97BF7935 GT PUSH2 0x63 JUMPI DUP1 PUSH4 0x97BF7935 EQ PUSH2 0x361 JUMPI DUP1 PUSH4 0x9C88E42D EQ PUSH2 0x39D JUMPI DUP1 PUSH4 0xB8443702 EQ PUSH2 0x3B9 JUMPI DUP1 PUSH4 0xEFE8C084 EQ PUSH2 0x3C3 JUMPI DUP1 PUSH4 0xF2FDE38B EQ PUSH2 0x3ED JUMPI PUSH2 0xFD JUMP JUMPDEST DUP1 PUSH4 0x5C49C825 EQ PUSH2 0x2A9 JUMPI DUP1 PUSH4 0x6DE0938B EQ PUSH2 0x2D1 JUMPI DUP1 PUSH4 0x6F9FB98A EQ PUSH2 0x30D JUMPI DUP1 PUSH4 0x8DA5CB5B EQ PUSH2 0x337 JUMPI PUSH2 0xFD JUMP JUMPDEST DUP1 PUSH4 0x223506A7 GT PUSH2 0xD0 JUMPI DUP1 PUSH4 0x223506A7 EQ PUSH2 0x1F1 JUMPI DUP1 PUSH4 0x2CE75863 EQ PUSH2 0x22D JUMPI DUP1 PUSH4 0x3AAA74B2 EQ PUSH2 0x257 JUMPI DUP1 PUSH4 0x5C41FECE EQ PUSH2 0x26D JUMPI PUSH2 0xFD JUMP JUMPDEST DUP1 PUSH4 0xA0E5DA9 EQ PUSH2 0x101 JUMPI DUP1 PUSH4 0xA8DC500 EQ PUSH2 0x13D JUMPI DUP1 PUSH4 0xD9BA15F EQ PUSH2 0x179 JUMPI DUP1 PUSH4 0x1FAC531B EQ PUSH2 0x1B5 JUMPI JUMPDEST PUSH0 PUSH0 REVERT JUMPDEST CALLVALUE DUP1 ISZERO PUSH2 0x10C JUMPI PUSH0 PUSH0 REVERT JUMPDEST POP PUSH2 0x127 PUSH1 0x4 DUP1 CALLDATASIZE SUB DUP2 ADD SWAP1 PUSH2 0x122 SWAP2 SWAP1 PUSH2 0xF1C JUMP JUMPDEST PUSH2 0x415 JUMP JUMPDEST PUSH1 0x40 MLOAD PUSH2 0x134 SWAP2 SWAP1 PUSH2 0xF5F JUMP JUMPDEST PUSH1 0x40 MLOAD DUP1 SWAP2 SUB SWAP1 RETURN JUMPDEST CALLVALUE DUP1 ISZERO PUSH2 0x148 JUMPI PUSH0 PUSH0 REVERT JUMPDEST POP PUSH2 0x163 PUSH1 0x4 DUP1 CALLDATASIZE SUB DUP2 ADD SWAP1 PUSH2 0x15E SWAP2 SWAP1 PUSH2 0x10B4 JUMP JUMPDEST PUSH2 0x42A JUMP JUMPDEST PUSH1 0x40 MLOAD PUSH2 0x170 SWAP2 SWAP1 PUSH2 0xF5F JUMP JUMPDEST PUSH1 0x40 MLOAD DUP1 SWAP2 SUB SWAP1 RETURN JUMPDEST CALLVALUE DUP1 ISZERO PUSH2 0x184 JUMPI PUSH0 PUSH0 REVERT JUMPDEST POP PUSH2 0x19F PUSH1 0x4 DUP1 CALLDATASIZE SUB DUP2 ADD SWAP1 PUSH2 0x19A SWAP2 SWAP1 PUSH2 0x10B4 JUMP JUMPDEST PUSH2 0x451 JUMP JUMPDEST PUSH1 0x40 MLOAD PUSH2 0x1AC SWAP2 SWAP1 PUSH2 0xF5F JUMP JUMPDEST PUSH1 0x40 MLOAD DUP1 SWAP2 SUB SWAP1 RETURN JUMPDEST CALLVALUE DUP1 ISZERO PUSH2 0x1C0 JUMPI PUSH0 PUSH0 REVERT JUMPDEST POP PUSH2 0x1DB PUSH1 0x4 DUP1 CALLDATASIZE SUB DUP2 ADD SWAP1 PUSH2 0x1D6 SWAP2 SWAP1 PUSH2 0x10B4 JUMP JUMPDEST PUSH2 0x47E JUMP JUMPDEST PUSH1 0x40 MLOAD PUSH2 0x1E8 SWAP2 SWAP1 PUSH2 0xF5F JUMP JUMPDEST PUSH1 0x40 MLOAD DUP1 SWAP2 SUB SWAP1 RETURN JUMPDEST CALLVALUE DUP1 ISZERO PUSH2 0x1FC JUMPI PUSH0 PUSH0 REVERT JUMPDEST POP PUSH2 0x217 PUSH1 0x4 DUP1 CALLDATASIZE SUB DUP2 ADD SWAP1 PUSH2 0x212 SWAP2 SWAP1 PUSH2 0xF1C JUMP JUMPDEST PUSH2 0x505 JUMP JUMPDEST PUSH1 0x40 MLOAD PUSH2 0x224 SWAP2 SWAP1 PUSH2 0xF5F JUMP JUMPDEST PUSH1 0x40 MLOAD DUP1 SWAP2 SUB SWAP1 RETURN JUMPDEST CALLVALUE DUP1 ISZERO PUSH2 0x238 JUMPI PUSH0 PUSH0 REVERT JUMPDEST POP PUSH2 0x241 PUSH2 0x54B JUMP JUMPDEST PUSH1 0x40 MLOAD PUSH2 0x24E SWAP2 SWAP1 PUSH2 0x1216 JUMP JUMPDEST PUSH1 0x40 MLOAD DUP1 SWAP2 SUB SWAP1 RETURN JUMPDEST CALLVALUE DUP1 ISZERO PUSH2 0x262 JUMPI PUSH0 PUSH0 REVERT JUMPDEST POP PUSH2 0x26B PUSH2 0x61F JUMP JUMPDEST STOP JUMPDEST CALLVALUE DUP1 ISZERO PUSH2 0x278 JUMPI PUSH0 PUSH0 REVERT JUMPDEST POP PUSH2 0x293 PUSH1 0x4 DUP1 CALLDATASIZE SUB DUP2 ADD SWAP1 PUSH2 0x28E SWAP2 SWAP1 PUSH2 0x10B4 JUMP JUMPDEST PUSH2 0x7C6 JUMP JUMPDEST PUSH1 0x40 MLOAD PUSH2 0x2A0 SWAP2 SWAP1 PUSH2 0xF5F JUMP JUMPDEST PUSH1 0x40 MLOAD DUP1 SWAP2 SUB SWAP1 RETURN JUMPDEST CALLVALUE DUP1 ISZERO PUSH2 0x2B4 JUMPI PUSH0 PUSH0 REVERT JUMPDEST POP PUSH2 0x2CF PUSH1 0x4 DUP1 CALLDATASIZE SUB DUP2 ADD SWAP1 PUSH2 0x2CA SWAP2 SWAP1 PUSH2 0x1260 JUMP JUMPDEST PUSH2 0x7F3 JUMP JUMPDEST STOP JUMPDEST CALLVALUE DUP1 ISZERO PUSH2 0x2DC JUMPI PUSH0 PUSH0 REVERT JUMPDEST POP PUSH2 0x2F7 PUSH1 0x4 DUP1 CALLDATASIZE SUB DUP2 ADD SWAP1 PUSH2 0x2F2 SWAP2 SWAP1 PUSH2 0x1260 JUMP JUMPDEST PUSH2 0x98E JUMP JUMPDEST PUSH1 0x40 MLOAD PUSH2 0x304 SWAP2 SWAP1 PUSH2 0xF5F JUMP JUMPDEST PUSH1 0x40 MLOAD DUP1 SWAP2 SUB SWAP1 RETURN JUMPDEST CALLVALUE DUP1 ISZERO PUSH2 0x318 JUMPI PUSH0 PUSH0 REVERT JUMPDEST POP PUSH2 0x321 PUSH2 0xA26 JUMP JUMPDEST PUSH1 0x40 MLOAD PUSH2 0x32E SWAP2 SWAP1 PUSH2 0xF5F JUMP JUMPDEST PUSH1 0x40 MLOAD DUP1 SWAP2 SUB SWAP1 RETURN JUMPDEST CALLVALUE DUP1 ISZERO PUSH2 0x342 JUMPI PUSH0 PUSH0 REVERT JUMPDEST POP PUSH2 0x34B PUSH2 0xA2D JUMP JUMPDEST PUSH1 0x40 MLOAD PUSH2 0x358 SWAP2 SWAP1 PUSH2 0x12C9 JUMP JUMPDEST PUSH1 0x40 MLOAD DUP1 SWAP2 SUB SWAP1 RETURN JUMPDEST CALLVALUE DUP1 ISZERO PUSH2 0x36C JUMPI PUSH0 PUSH0 REVERT JUMPDEST POP PUSH2 0x387 PUSH1 0x4 DUP1 CALLDATASIZE SUB DUP2 ADD SWAP1 PUSH2 0x382 SWAP2 SWAP1 PUSH2 0x12E2 JUMP JUMPDEST PUSH2 0xA51 JUMP JUMPDEST PUSH1 0x40 MLOAD PUSH2 0x394 SWAP2 SWAP1 PUSH2 0x1355 JUMP JUMPDEST PUSH1 0x40 MLOAD DUP1 SWAP2 SUB SWAP1 RETURN JUMPDEST PUSH2 0x3B7 PUSH1 0x4 DUP1 CALLDATASIZE SUB DUP2 ADD SWAP1 PUSH2 0x3B2 SWAP2 SWAP1 PUSH2 0x1260 JUMP JUMPDEST PUSH2 0xAF7 JUMP JUMPDEST STOP JUMPDEST PUSH2 0x3C1 PUSH2 0xC8C JUMP JUMPDEST STOP JUMPDEST CALLVALUE DUP1 ISZERO PUSH2 0x3CE JUMPI PUSH0 PUSH0 REVERT JUMPDEST POP PUSH2 0x3D7 PUSH2 0xD6D JUMP JUMPDEST PUSH1 0x40 MLOAD PUSH2 0x3E4 SWAP2 SWAP1 PUSH2 0xF5F JUMP JUMPDEST PUSH1 0x40 MLOAD DUP1 SWAP2 SUB SWAP1 RETURN JUMPDEST CALLVALUE DUP1 ISZERO PUSH2 0x3F8 JUMPI PUSH0 PUSH0 REVERT JUMPDEST POP PUSH2 0x413 PUSH1 0x4 DUP1 CALLDATASIZE SUB DUP2 ADD SWAP1 PUSH2 0x40E SWAP2 SWAP1 PUSH2 0xF1C JUMP JUMPDEST PUSH2 0xD73 JUMP JUMPDEST STOP JUMPDEST PUSH1 0x3 PUSH1 0x20 MSTORE DUP1 PUSH0 MSTORE PUSH1 0x40 PUSH0 KECCAK256 PUSH0 SWAP2 POP SWAP1 POP SLOAD DUP2 JUMP JUMPDEST PUSH0 PUSH1 0x5 DUP3 PUSH1 0x40 MLOAD PUSH2 0x43B SWAP2 SWAP1 PUSH2 0x13AF JUMP JUMPDEST SWAP1 DUP2 MSTORE PUSH1 0x20 ADD PUSH1 0x40 MLOAD DUP1 SWAP2 SUB SWAP1 KECCAK256 SLOAD SWAP1 POP SWAP2 SWAP1 POP JUMP JUMPDEST PUSH1 0x5 DUP2 DUP1 MLOAD PUSH1 0x20 DUP2 ADD DUP3 ADD DUP1 MLOAD DUP5 DUP3 MSTORE PUSH1 0x20 DUP4 ADD PUSH1 0x20 DUP6 ADD KECCAK256 DUP2 DUP4 MSTORE DUP1 SWAP6 POP POP POP POP POP POP PUSH0 SWAP2 POP SWAP1 POP SLOAD DUP2 JUMP JUMPDEST PUSH0 PUSH0 PUSH1 0x2 DUP4 PUSH1 0x40 MLOAD PUSH2 0x490 SWAP2 SWAP1 PUSH2 0x13AF JUMP JUMPDEST SWAP1 DUP2 MSTORE PUSH1 0x20 ADD PUSH1 0x40 MLOAD DUP1 SWAP2 SUB SWAP1 KECCAK256 SLOAD GT PUSH2 0x4DF JUMPI PUSH1 0x40 MLOAD PUSH32 0x8C379A000000000000000000000000000000000000000000000000000000000 DUP2 MSTORE PUSH1 0x4 ADD PUSH2 0x4D6 SWAP1 PUSH2 0x140F JUMP JUMPDEST PUSH1 0x40 MLOAD DUP1 SWAP2 SUB SWAP1 REVERT JUMPDEST PUSH1 0x2 DUP3 PUSH1 0x40 MLOAD PUSH2 0x4EF SWAP2 SWAP1 PUSH2 0x13AF JUMP JUMPDEST SWAP1 DUP2 MSTORE PUSH1 0x20 ADD PUSH1 0x40 MLOAD DUP1 SWAP2 SUB SWAP1 KECCAK256 SLOAD SWAP1 POP SWAP2 SWAP1 POP JUMP JUMPDEST PUSH0 PUSH1 0x3 PUSH0 DUP4 PUSH20 0xFFFFFFFFFFFFFFFFFFFFFFFFFFFFFFFFFFFFFFFF AND PUSH20 0xFFFFFFFFFFFFFFFFFFFFFFFFFFFFFFFFFFFFFFFF AND DUP2 MSTORE PUSH1 0x20 ADD SWAP1 DUP2 MSTORE PUSH1 0x20 ADD PUSH0 KECCAK256 SLOAD SWAP1 POP SWAP2 SWAP1 POP JUMP JUMPDEST PUSH1 0x60 PUSH1 0x4 DUP1 SLOAD DUP1 PUSH1 0x20 MUL PUSH1 0x20 ADD PUSH1 0x40 MLOAD SWAP1 DUP2 ADD PUSH1 0x40 MSTORE DUP1 SWAP3 SWAP2 SWAP1 DUP2 DUP2 MSTORE PUSH1 0x20 ADD PUSH0 SWAP1 JUMPDEST DUP3 DUP3 LT ISZERO PUSH2 0x616 JUMPI DUP4 DUP3 SWAP1 PUSH0 MSTORE PUSH1 0x20 PUSH0 KECCAK256 ADD DUP1 SLOAD PUSH2 0x58B SWAP1 PUSH2 0x145A JUMP JUMPDEST DUP1 PUSH1 0x1F ADD PUSH1 0x20 DUP1 SWAP2 DIV MUL PUSH1 0x20 ADD PUSH1 0x40 MLOAD SWAP1 DUP2 ADD PUSH1 0x40 MSTORE DUP1 SWAP3 SWAP2 SWAP1 DUP2 DUP2 MSTORE PUSH1 0x20 ADD DUP3 DUP1 SLOAD PUSH2 0x5B7 SWAP1 PUSH2 0x145A JUMP JUMPDEST DUP1 ISZERO PUSH2 0x602 JUMPI DUP1 PUSH1 0x1F LT PUSH2 0x5D9 JUMPI PUSH2 0x100 DUP1 DUP4 SLOAD DIV MUL DUP4 MSTORE SWAP2 PUSH1 0x20 ADD SWAP2 PUSH2 0x602 JUMP JUMPDEST DUP3 ADD SWAP2 SWAP1 PUSH0 MSTORE PUSH1 0x20 PUSH0 KECCAK256 SWAP1 JUMPDEST DUP2 SLOAD DUP2 MSTORE SWAP1 PUSH1 0x1 ADD SWAP1 PUSH1 0x20 ADD DUP1 DUP4 GT PUSH2 0x5E5 JUMPI DUP3 SWAP1 SUB PUSH1 0x1F AND DUP3 ADD SWAP2 JUMPDEST POP POP POP POP POP DUP2 MSTORE PUSH1 0x20 ADD SWAP1 PUSH1 0x1 ADD SWAP1 PUSH2 0x56E JUMP JUMPDEST POP POP POP POP SWAP1 POP SWAP1 JUMP JUMPDEST PUSH0 PUSH0 SWAP1 SLOAD SWAP1 PUSH2 0x100 EXP SWAP1 DIV PUSH20 0xFFFFFFFFFFFFFFFFFFFFFFFFFFFFFFFFFFFFFFFF AND PUSH20 0xFFFFFFFFFFFFFFFFFFFFFFFFFFFFFFFFFFFFFFFF AND CALLER PUSH20 0xFFFFFFFFFFFFFFFFFFFFFFFFFFFFFFFFFFFFFFFF AND EQ PUSH2 0x6AD JUMPI PUSH1 0x40 MLOAD PUSH32 0x8C379A000000000000000000000000000000000000000000000000000000000 DUP2 MSTORE PUSH1 0x4 ADD PUSH2 0x6A4 SWAP1 PUSH2 0x14FA JUMP JUMPDEST PUSH1 0x40 MLOAD DUP1 SWAP2 SUB SWAP1 REVERT JUMPDEST PUSH0 SELFBALANCE SWAP1 POP PUSH0 DUP2 GT PUSH2 0x6F3 JUMPI PUSH1 0x40 MLOAD PUSH32 0x8C379A000000000000000000000000000000000000000000000000000000000 DUP2 MSTORE PUSH1 0x4 ADD PUSH2 0x6EA SWAP1 PUSH2 0x1562 JUMP JUMPDEST PUSH1 0x40 MLOAD DUP1 SWAP2 SUB SWAP1 REVERT JUMPDEST PUSH0 PUSH0 PUSH0 SWAP1 SLOAD SWAP1 PUSH2 0x100 EXP SWAP1 DIV PUSH20 0xFFFFFFFFFFFFFFFFFFFFFFFFFFFFFFFFFFFFFFFF AND PUSH20 0xFFFFFFFFFFFFFFFFFFFFFFFFFFFFFFFFFFFFFFFF AND DUP3 PUSH1 0x40 MLOAD PUSH2 0x738 SWAP1 PUSH2 0x15AD JUMP JUMPDEST PUSH0 PUSH1 0x40 MLOAD DUP1 DUP4 SUB DUP2 DUP6 DUP8 GAS CALL SWAP3 POP POP POP RETURNDATASIZE DUP1 PUSH0 DUP2 EQ PUSH2 0x772 JUMPI PUSH1 0x40 MLOAD SWAP2 POP PUSH1 0x1F NOT PUSH1 0x3F RETURNDATASIZE ADD AND DUP3 ADD PUSH1 0x40 MSTORE RETURNDATASIZE DUP3 MSTORE RETURNDATASIZE PUSH0 PUSH1 0x20 DUP5 ADD RETURNDATACOPY PUSH2 0x777 JUMP JUMPDEST PUSH1 0x60 SWAP2 POP JUMPDEST POP POP SWAP1 POP DUP1 PUSH2 0x7BB JUMPI PUSH1 0x40 MLOAD PUSH32 0x8C379A000000000000000000000000000000000000000000000000000000000 DUP2 MSTORE PUSH1 0x4 ADD PUSH2 0x7B2 SWAP1 PUSH2 0x160B JUMP JUMPDEST PUSH1 0x40 MLOAD DUP1 SWAP2 SUB SWAP1 REVERT JUMPDEST PUSH0 PUSH1 0x1 DUP2 SWAP1 SSTORE POP POP POP JUMP JUMPDEST PUSH1 0x2 DUP2 DUP1 MLOAD PUSH1 0x20 DUP2 ADD DUP3 ADD DUP1 MLOAD DUP5 DUP3 MSTORE PUSH1 0x20 DUP4 ADD PUSH1 0x20 DUP6 ADD KECCAK256 DUP2 DUP4 MSTORE DUP1 SWAP6 POP POP POP POP POP POP PUSH0 SWAP2 POP SWAP1 POP SLOAD DUP2 JUMP JUMPDEST PUSH0 PUSH0 SWAP1 SLOAD SWAP1 PUSH2 0x100 EXP SWAP1 DIV PUSH20 0xFFFFFFFFFFFFFFFFFFFFFFFFFFFFFFFFFFFFFFFF AND PUSH20 0xFFFFFFFFFFFFFFFFFFFFFFFFFFFFFFFFFFFFFFFF AND CALLER PUSH20 0xFFFFFFFFFFFFFFFFFFFFFFFFFFFFFFFFFFFFFFFF AND EQ PUSH2 0x881 JUMPI PUSH1 0x40 MLOAD PUSH32 0x8C379A000000000000000000000000000000000000000000000000000000000 DUP2 MSTORE PUSH1 0x4 ADD PUSH2 0x878 SWAP1 PUSH2 0x14FA JUMP JUMPDEST PUSH1 0x40 MLOAD DUP1 SWAP2 SUB SWAP1 REVERT JUMPDEST PUSH0 DUP2 GT PUSH2 0x8C3 JUMPI PUSH1 0x40 MLOAD PUSH32 0x8C379A000000000000000000000000000000000000000000000000000000000 DUP2 MSTORE PUSH1 0x4 ADD PUSH2 0x8BA SWAP1 PUSH2 0x1699 JUMP JUMPDEST PUSH1 0x40 MLOAD DUP1 SWAP2 SUB SWAP1 REVERT JUMPDEST PUSH0 PUSH0 SWAP1 POP PUSH0 PUSH0 SWAP1 POP JUMPDEST PUSH1 0x4 DUP1 SLOAD SWAP1 POP DUP2 LT ISZERO PUSH2 0x92D JUMPI DUP4 DUP1 MLOAD SWAP1 PUSH1 0x20 ADD KECCAK256 PUSH1 0x4 DUP3 DUP2 SLOAD DUP2 LT PUSH2 0x8F5 JUMPI PUSH2 0x8F4 PUSH2 0x16B7 JUMP JUMPDEST JUMPDEST SWAP1 PUSH0 MSTORE PUSH1 0x20 PUSH0 KECCAK256 ADD PUSH1 0x40 MLOAD PUSH2 0x90A SWAP2 SWAP1 PUSH2 0x1776 JUMP JUMPDEST PUSH1 0x40 MLOAD DUP1 SWAP2 SUB SWAP1 KECCAK256 SUB PUSH2 0x920 JUMPI PUSH1 0x1 SWAP2 POP PUSH2 0x92D JUMP JUMPDEST DUP1 DUP1 PUSH1 0x1 ADD SWAP2 POP POP PUSH2 0x8CC JUMP JUMPDEST POP DUP1 PUSH2 0x966 JUMPI PUSH1 0x4 DUP4 SWAP1 DUP1 PUSH1 0x1 DUP2 SLOAD ADD DUP1 DUP3 SSTORE DUP1 SWAP2 POP POP PUSH1 0x1 SWAP1 SUB SWAP1 PUSH0 MSTORE PUSH1 0x20 PUSH0 KECCAK256 ADD PUSH0 SWAP1 SWAP2 SWAP1 SWAP2 SWAP1 SWAP2 POP SWAP1 DUP2 PUSH2 0x964 SWAP2 SWAP1 PUSH2 0x192C JUMP JUMPDEST POP JUMPDEST DUP2 PUSH1 0x2 DUP5 PUSH1 0x40 MLOAD PUSH2 0x977 SWAP2 SWAP1 PUSH2 0x13AF JUMP JUMPDEST SWAP1 DUP2 MSTORE PUSH1 0x20 ADD PUSH1 0x40 MLOAD DUP1 SWAP2 SUB SWAP1 KECCAK256 DUP2 SWAP1 SSTORE POP POP POP POP JUMP JUMPDEST PUSH0 PUSH0 PUSH1 0x2 DUP5 PUSH1 0x40 MLOAD PUSH2 0x9A0 SWAP2 SWAP1 PUSH2 0x13AF JUMP JUMPDEST SWAP1 DUP2 MSTORE PUSH1 0x20 ADD PUSH1 0x40 MLOAD DUP1 SWAP2 SUB SWAP1 KECCAK256 SLOAD GT PUSH2 0x9EF JUMPI PUSH1 0x40 MLOAD PUSH32 0x8C379A000000000000000000000000000000000000000000000000000000000 DUP2 MSTORE PUSH1 0x4 ADD PUSH2 0x9E6 SWAP1 PUSH2 0x140F JUMP JUMPDEST PUSH1 0x40 MLOAD DUP1 SWAP2 SUB SWAP1 REVERT JUMPDEST PUSH0 PUSH1 0x2 DUP5 PUSH1 0x40 MLOAD PUSH2 0xA00 SWAP2 SWAP1 PUSH2 0x13AF JUMP JUMPDEST SWAP1 DUP2 MSTORE PUSH1 0x20 ADD PUSH1 0x40 MLOAD DUP1 SWAP2 SUB SWAP1 KECCAK256 SLOAD DUP4 PUSH2 0xA1A SWAP2 SWAP1 PUSH2 0x1A28 JUMP JUMPDEST SWAP1 POP DUP1 SWAP2 POP POP SWAP3 SWAP2 POP POP JUMP JUMPDEST PUSH0 SELFBALANCE SWAP1 POP SWAP1 JUMP JUMPDEST PUSH0 PUSH0 SWAP1 SLOAD SWAP1 PUSH2 0x100 EXP SWAP1 DIV PUSH20 0xFFFFFFFFFFFFFFFFFFFFFFFFFFFFFFFFFFFFFFFF AND DUP2 JUMP JUMPDEST PUSH1 0x4 DUP2 DUP2 SLOAD DUP2 LT PUSH2 0xA60 JUMPI PUSH0 DUP1 REVERT JUMPDEST SWAP1 PUSH0 MSTORE PUSH1 0x20 PUSH0 KECCAK256 ADD PUSH0 SWAP2 POP SWAP1 POP DUP1 SLOAD PUSH2 0xA78 SWAP1 PUSH2 0x145A JUMP JUMPDEST DUP1 PUSH1 0x1F ADD PUSH1 0x20 DUP1 SWAP2 DIV MUL PUSH1 0x20 ADD PUSH1 0x40 MLOAD SWAP1 DUP2 ADD PUSH1 0x40 MSTORE DUP1 SWAP3 SWAP2 SWAP1 DUP2 DUP2 MSTORE PUSH1 0x20 ADD DUP3 DUP1 SLOAD PUSH2 0xAA4 SWAP1 PUSH2 0x145A JUMP JUMPDEST DUP1 ISZERO PUSH2 0xAEF JUMPI DUP1 PUSH1 0x1F LT PUSH2 0xAC6 JUMPI PUSH2 0x100 DUP1 DUP4 SLOAD DIV MUL DUP4 MSTORE SWAP2 PUSH1 0x20 ADD SWAP2 PUSH2 0xAEF JUMP JUMPDEST DUP3 ADD SWAP2 SWAP1 PUSH0 MSTORE PUSH1 0x20 PUSH0 KECCAK256 SWAP1 JUMPDEST DUP2 SLOAD DUP2 MSTORE SWAP1 PUSH1 0x1 ADD SWAP1 PUSH1 0x20 ADD DUP1 DUP4 GT PUSH2 0xAD2 JUMPI DUP3 SWAP1 SUB PUSH1 0x1F AND DUP3 ADD SWAP2 JUMPDEST POP POP POP POP POP DUP2 JUMP JUMPDEST PUSH0 PUSH1 0x2 DUP4 PUSH1 0x40 MLOAD PUSH2 0xB08 SWAP2 SWAP1 PUSH2 0x13AF JUMP JUMPDEST SWAP1 DUP2 MSTORE PUSH1 0x20 ADD PUSH1 0x40 MLOAD DUP1 SWAP2 SUB SWAP1 KECCAK256 SLOAD GT PUSH2 0xB57 JUMPI PUSH1 0x40 MLOAD PUSH32 0x8C379A000000000000000000000000000000000000000000000000000000000 DUP2 MSTORE PUSH1 0x4 ADD PUSH2 0xB4E SWAP1 PUSH2 0x140F JUMP JUMPDEST PUSH1 0x40 MLOAD DUP1 SWAP2 SUB SWAP1 REVERT JUMPDEST PUSH0 DUP2 GT PUSH2 0xB99 JUMPI PUSH1 0x40 MLOAD PUSH32 0x8C379A000000000000000000000000000000000000000000000000000000000 DUP2 MSTORE PUSH1 0x4 ADD PUSH2 0xB90 SWAP1 PUSH2 0x1AB3 JUMP JUMPDEST PUSH1 0x40 MLOAD DUP1 SWAP2 SUB SWAP1 REVERT JUMPDEST PUSH0 PUSH2 0xBA4 DUP4 DUP4 PUSH2 0x98E JUMP JUMPDEST SWAP1 POP DUP1 CALLVALUE EQ PUSH2 0xBE8 JUMPI PUSH1 0x40 MLOAD PUSH32 0x8C379A000000000000000000000000000000000000000000000000000000000 DUP2 MSTORE PUSH1 0x4 ADD PUSH2 0xBDF SWAP1 PUSH2 0x1B41 JUMP JUMPDEST PUSH1 0x40 MLOAD DUP1 SWAP2 SUB SWAP1 REVERT JUMPDEST CALLVALUE PUSH1 0x3 PUSH0 CALLER PUSH20 0xFFFFFFFFFFFFFFFFFFFFFFFFFFFFFFFFFFFFFFFF AND PUSH20 0xFFFFFFFFFFFFFFFFFFFFFFFFFFFFFFFFFFFFFFFF AND DUP2 MSTORE PUSH1 0x20 ADD SWAP1 DUP2 MSTORE PUSH1 0x20 ADD PUSH0 KECCAK256 PUSH0 DUP3 DUP3 SLOAD PUSH2 0xC34 SWAP2 SWAP1 PUSH2 0x1B5F JUMP JUMPDEST SWAP3 POP POP DUP2 SWAP1 SSTORE POP CALLVALUE PUSH1 0x1 PUSH0 DUP3 DUP3 SLOAD PUSH2 0xC4C SWAP2 SWAP1 PUSH2 0x1B5F JUMP JUMPDEST SWAP3 POP POP DUP2 SWAP1 SSTORE POP DUP2 PUSH1 0x5 DUP5 PUSH1 0x40 MLOAD PUSH2 0xC64 SWAP2 SWAP1 PUSH2 0x13AF JUMP JUMPDEST SWAP1 DUP2 MSTORE PUSH1 0x20 ADD PUSH1 0x40 MLOAD DUP1 SWAP2 SUB SWAP1 KECCAK256 PUSH0 DUP3 DUP3 SLOAD PUSH2 0xC80 SWAP2 SWAP1 PUSH2 0x1B5F JUMP JUMPDEST SWAP3 POP POP DUP2 SWAP1 SSTORE POP POP POP POP JUMP JUMPDEST PUSH0 CALLVALUE GT PUSH2 0xCCE JUMPI PUSH1 0x40 MLOAD PUSH32 0x8C379A000000000000000000000000000000000000000000000000000000000 DUP2 MSTORE PUSH1 0x4 ADD PUSH2 0xCC5 SWAP1 PUSH2 0x1C02 JUMP JUMPDEST PUSH1 0x40 MLOAD DUP1 SWAP2 SUB SWAP1 REVERT JUMPDEST CALLVALUE PUSH1 0x3 PUSH0 CALLER PUSH20 0xFFFFFFFFFFFFFFFFFFFFFFFFFFFFFFFFFFFFFFFF AND PUSH20 0xFFFFFFFFFFFFFFFFFFFFFFFFFFFFFFFFFFFFFFFF AND DUP2 MSTORE PUSH1 0x20 ADD SWAP1 DUP2 MSTORE PUSH1 0x20 ADD PUSH0 KECCAK256 PUSH0 DUP3 DUP3 SLOAD PUSH2 0xD1A SWAP2 SWAP1 PUSH2 0x1B5F JUMP JUMPDEST SWAP3 POP POP DUP2 SWAP1 SSTORE POP CALLVALUE PUSH1 0x1 PUSH0 DUP3 DUP3 SLOAD PUSH2 0xD32 SWAP2 SWAP1 PUSH2 0x1B5F JUMP JUMPDEST SWAP3 POP POP DUP2 SWAP1 SSTORE POP CALLVALUE PUSH1 0x5 PUSH1 0x40 MLOAD PUSH2 0xD48 SWAP1 PUSH2 0x1C6A JUMP JUMPDEST SWAP1 DUP2 MSTORE PUSH1 0x20 ADD PUSH1 0x40 MLOAD DUP1 SWAP2 SUB SWAP1 KECCAK256 PUSH0 DUP3 DUP3 SLOAD PUSH2 0xD64 SWAP2 SWAP1 PUSH2 0x1B5F JUMP JUMPDEST SWAP3 POP POP DUP2 SWAP1 SSTORE POP JUMP JUMPDEST PUSH1 0x1 SLOAD DUP2 JUMP JUMPDEST PUSH0 PUSH0 SWAP1 SLOAD SWAP1 PUSH2 0x100 EXP SWAP1 DIV PUSH20 0xFFFFFFFFFFFFFFFFFFFFFFFFFFFFFFFFFFFFFFFF AND PUSH20 0xFFFFFFFFFFFFFFFFFFFFFFFFFFFFFFFFFFFFFFFF AND CALLER PUSH20 0xFFFFFFFFFFFFFFFFFFFFFFFFFFFFFFFFFFFFFFFF AND EQ PUSH2 0xE01 JUMPI PUSH1 0x40 MLOAD PUSH32 0x8C379A000000000000000000000000000000000000000000000000000000000 DUP2 MSTORE PUSH1 0x4 ADD PUSH2 0xDF8 SWAP1 PUSH2 0x14FA JUMP JUMPDEST PUSH1 0x40 MLOAD DUP1 SWAP2 SUB SWAP1 REVERT JUMPDEST PUSH0 PUSH20 0xFFFFFFFFFFFFFFFFFFFFFFFFFFFFFFFFFFFFFFFF AND DUP2 PUSH20 0xFFFFFFFFFFFFFFFFFFFFFFFFFFFFFFFFFFFFFFFF AND SUB PUSH2 0xE6F JUMPI PUSH1 0x40 MLOAD PUSH32 0x8C379A000000000000000000000000000000000000000000000000000000000 DUP2 MSTORE PUSH1 0x4 ADD PUSH2 0xE66 SWAP1 PUSH2 0x1CC8 JUMP JUMPDEST PUSH1 0x40 MLOAD DUP1 SWAP2 SUB SWAP1 REVERT JUMPDEST DUP1 PUSH0 PUSH0 PUSH2 0x100 EXP DUP2 SLOAD DUP2 PUSH20 0xFFFFFFFFFFFFFFFFFFFFFFFFFFFFFFFFFFFFFFFF MUL NOT AND SWAP1 DUP4 PUSH20 0xFFFFFFFFFFFFFFFFFFFFFFFFFFFFFFFFFFFFFFFF AND MUL OR SWAP1 SSTORE POP POP JUMP JUMPDEST PUSH0 PUSH1 0x40 MLOAD SWAP1 POP SWAP1 JUMP JUMPDEST PUSH0 PUSH0 REVERT JUMPDEST PUSH0 PUSH0 REVERT JUMPDEST PUSH0 PUSH20 0xFFFFFFFFFFFFFFFFFFFFFFFFFFFFFFFFFFFFFFFF DUP3 AND SWAP1 POP SWAP2 SWAP1 POP JUMP JUMPDEST PUSH0 PUSH2 0xEEB DUP3 PUSH2 0xEC2 JUMP JUMPDEST SWAP1 POP SWAP2 SWAP1 POP JUMP JUMPDEST PUSH2 0xEFB DUP2 PUSH2 0xEE1 JUMP JUMPDEST DUP2 EQ PUSH2 0xF05 JUMPI PUSH0 PUSH0 REVERT JUMPDEST POP JUMP JUMPDEST PUSH0 DUP2 CALLDATALOAD SWAP1 POP PUSH2 0xF16 DUP2 PUSH2 0xEF2 JUMP JUMPDEST SWAP3 SWAP2 POP POP JUMP JUMPDEST PUSH0 PUSH1 0x20 DUP3 DUP5 SUB SLT ISZERO PUSH2 0xF31 JUMPI PUSH2 0xF30 PUSH2 0xEBA JUMP JUMPDEST JUMPDEST PUSH0 PUSH2 0xF3E DUP5 DUP3 DUP6 ADD PUSH2 0xF08 JUMP JUMPDEST SWAP2 POP POP SWAP3 SWAP2 POP POP JUMP JUMPDEST PUSH0 DUP2 SWAP1 POP SWAP2 SWAP1 POP JUMP JUMPDEST PUSH2 0xF59 DUP2 PUSH2 0xF47 JUMP JUMPDEST DUP3 MSTORE POP POP JUMP JUMPDEST PUSH0 PUSH1 0x20 DUP3 ADD SWAP1 POP PUSH2 0xF72 PUSH0 DUP4 ADD DUP5 PUSH2 0xF50 JUMP JUMPDEST SWAP3 SWAP2 POP POP JUMP JUMPDEST PUSH0 PUSH0 REVERT JUMPDEST PUSH0 PUSH0 REVERT JUMPDEST PUSH0 PUSH1 0x1F NOT PUSH1 0x1F DUP4 ADD AND SWAP1 POP SWAP2 SWAP1 POP JUMP JUMPDEST PUSH32 0x4E487B7100000000000000000000000000000000000000000000000000000000 PUSH0 MSTORE PUSH1 0x41 PUSH1 0x4 MSTORE PUSH1 0x24 PUSH0 REVERT JUMPDEST PUSH2 0xFC6 DUP3 PUSH2 0xF80 JUMP JUMPDEST DUP2 ADD DUP2 DUP2 LT PUSH8 0xFFFFFFFFFFFFFFFF DUP3 GT OR ISZERO PUSH2 0xFE5 JUMPI PUSH2 0xFE4 PUSH2 0xF90 JUMP JUMPDEST JUMPDEST DUP1 PUSH1 0x40 MSTORE POP POP POP JUMP JUMPDEST PUSH0 PUSH2 0xFF7 PUSH2 0xEB1 JUMP JUMPDEST SWAP1 POP PUSH2 0x1003 DUP3 DUP3 PUSH2 0xFBD JUMP JUMPDEST SWAP2 SWAP1 POP JUMP JUMPDEST PUSH0 PUSH8 0xFFFFFFFFFFFFFFFF DUP3 GT ISZERO PUSH2 0x1022 JUMPI PUSH2 0x1021 PUSH2 0xF90 JUMP JUMPDEST JUMPDEST PUSH2 0x102B DUP3 PUSH2 0xF80 JUMP JUMPDEST SWAP1 POP PUSH1 0x20 DUP2 ADD SWAP1 POP SWAP2 SWAP1 POP JUMP JUMPDEST DUP3 DUP2 DUP4 CALLDATACOPY PUSH0 DUP4 DUP4 ADD MSTORE POP POP POP JUMP JUMPDEST PUSH0 PUSH2 0x1058 PUSH2 0x1053 DUP5 PUSH2 0x1008 JUMP JUMPDEST PUSH2 0xFEE JUMP JUMPDEST SWAP1 POP DUP3 DUP2 MSTORE PUSH1 0x20 DUP2 ADD DUP5 DUP5 DUP5 ADD GT ISZERO PUSH2 0x1074 JUMPI PUSH2 0x1073 PUSH2 0xF7C JUMP JUMPDEST JUMPDEST PUSH2 0x107F DUP5 DUP3 DUP6 PUSH2 0x1038 JUMP JUMPDEST POP SWAP4 SWAP3 POP POP POP JUMP JUMPDEST PUSH0 DUP3 PUSH1 0x1F DUP4 ADD SLT PUSH2 0x109B JUMPI PUSH2 0x109A PUSH2 0xF78 JUMP JUMPDEST JUMPDEST DUP2 CALLDATALOAD PUSH2 0x10AB DUP5 DUP3 PUSH1 0x20 DUP7 ADD PUSH2 0x1046 JUMP JUMPDEST SWAP2 POP POP SWAP3 SWAP2 POP POP JUMP JUMPDEST PUSH0 PUSH1 0x20 DUP3 DUP5 SUB SLT ISZERO PUSH2 0x10C9 JUMPI PUSH2 0x10C8 PUSH2 0xEBA JUMP JUMPDEST JUMPDEST PUSH0 DUP3 ADD CALLDATALOAD PUSH8 0xFFFFFFFFFFFFFFFF DUP2 GT ISZERO PUSH2 0x10E6 JUMPI PUSH2 0x10E5 PUSH2 0xEBE JUMP JUMPDEST JUMPDEST PUSH2 0x10F2 DUP5 DUP3 DUP6 ADD PUSH2 0x1087 JUMP JUMPDEST SWAP2 POP POP SWAP3 SWAP2 POP POP JUMP JUMPDEST PUSH0 DUP2 MLOAD SWAP1 POP SWAP2 SWAP1 POP JUMP JUMPDEST PUSH0 DUP3 DUP3 MSTORE PUSH1 0x20 DUP3 ADD SWAP1 POP SWAP3 SWAP2 POP POP JUMP JUMPDEST PUSH0 DUP2 SWAP1 POP PUSH1 0x20 DUP3 ADD SWAP1 POP SWAP2 SWAP1 POP JUMP JUMPDEST PUSH0 DUP2 MLOAD SWAP1 POP SWAP2 SWAP1 POP JUMP JUMPDEST PUSH0 DUP3 DUP3 MSTORE PUSH1 0x20 DUP3 ADD SWAP1 POP SWAP3 SWAP2 POP POP JUMP JUMPDEST DUP3 DUP2 DUP4 MCOPY PUSH0 DUP4 DUP4 ADD MSTORE POP POP POP JUMP JUMPDEST PUSH0 PUSH2 0x1156 DUP3 PUSH2 0x1124 JUMP JUMPDEST PUSH2 0x1160 DUP2 DUP6 PUSH2 0x112E JUMP JUMPDEST SWAP4 POP PUSH2 0x1170 DUP2 DUP6 PUSH1 0x20 DUP7 ADD PUSH2 0x113E JUMP JUMPDEST PUSH2 0x1179 DUP2 PUSH2 0xF80 JUMP JUMPDEST DUP5 ADD SWAP2 POP POP SWAP3 SWAP2 POP POP JUMP JUMPDEST PUSH0 PUSH2 0x118F DUP4 DUP4 PUSH2 0x114C JUMP JUMPDEST SWAP1 POP SWAP3 SWAP2 POP POP JUMP JUMPDEST PUSH0 PUSH1 0x20 DUP3 ADD SWAP1 POP SWAP2 SWAP1 POP JUMP JUMPDEST PUSH0 PUSH2 0x11AD DUP3 PUSH2 0x10FB JUMP JUMPDEST PUSH2 0x11B7 DUP2 DUP6 PUSH2 0x1105 JUMP JUMPDEST SWAP4 POP DUP4 PUSH1 0x20 DUP3 MUL DUP6 ADD PUSH2 0x11C9 DUP6 PUSH2 0x1115 JUMP JUMPDEST DUP1 PUSH0 JUMPDEST DUP6 DUP2 LT ISZERO PUSH2 0x1204 JUMPI DUP5 DUP5 SUB DUP10 MSTORE DUP2 MLOAD PUSH2 0x11E5 DUP6 DUP3 PUSH2 0x1184 JUMP JUMPDEST SWAP5 POP PUSH2 0x11F0 DUP4 PUSH2 0x1197 JUMP JUMPDEST SWAP3 POP PUSH1 0x20 DUP11 ADD SWAP10 POP POP PUSH1 0x1 DUP2 ADD SWAP1 POP PUSH2 0x11CC JUMP JUMPDEST POP DUP3 SWAP8 POP DUP8 SWAP6 POP POP POP POP POP POP SWAP3 SWAP2 POP POP JUMP JUMPDEST PUSH0 PUSH1 0x20 DUP3 ADD SWAP1 POP DUP2 DUP2 SUB PUSH0 DUP4 ADD MSTORE PUSH2 0x122E DUP2 DUP5 PUSH2 0x11A3 JUMP JUMPDEST SWAP1 POP SWAP3 SWAP2 POP POP JUMP JUMPDEST PUSH2 0x123F DUP2 PUSH2 0xF47 JUMP JUMPDEST DUP2 EQ PUSH2 0x1249 JUMPI PUSH0 PUSH0 REVERT JUMPDEST POP JUMP JUMPDEST PUSH0 DUP2 CALLDATALOAD SWAP1 POP PUSH2 0x125A DUP2 PUSH2 0x1236 JUMP JUMPDEST SWAP3 SWAP2 POP POP JUMP JUMPDEST PUSH0 PUSH0 PUSH1 0x40 DUP4 DUP6 SUB SLT ISZERO PUSH2 0x1276 JUMPI PUSH2 0x1275 PUSH2 0xEBA JUMP JUMPDEST JUMPDEST PUSH0 DUP4 ADD CALLDATALOAD PUSH8 0xFFFFFFFFFFFFFFFF DUP2 GT ISZERO PUSH2 0x1293 JUMPI PUSH2 0x1292 PUSH2 0xEBE JUMP JUMPDEST JUMPDEST PUSH2 0x129F DUP6 DUP3 DUP7 ADD PUSH2 0x1087 JUMP JUMPDEST SWAP3 POP POP PUSH1 0x20 PUSH2 0x12B0 DUP6 DUP3 DUP7 ADD PUSH2 0x124C JUMP JUMPDEST SWAP2 POP POP SWAP3 POP SWAP3 SWAP1 POP JUMP JUMPDEST PUSH2 0x12C3 DUP2 PUSH2 0xEE1 JUMP JUMPDEST DUP3 MSTORE POP POP JUMP JUMPDEST PUSH0 PUSH1 0x20 DUP3 ADD SWAP1 POP PUSH2 0x12DC PUSH0 DUP4 ADD DUP5 PUSH2 0x12BA JUMP JUMPDEST SWAP3 SWAP2 POP POP JUMP JUMPDEST PUSH0 PUSH1 0x20 DUP3 DUP5 SUB SLT ISZERO PUSH2 0x12F7 JUMPI PUSH2 0x12F6 PUSH2 0xEBA JUMP JUMPDEST JUMPDEST PUSH0 PUSH2 0x1304 DUP5 DUP3 DUP6 ADD PUSH2 0x124C JUMP JUMPDEST SWAP2 POP POP SWAP3 SWAP2 POP POP JUMP JUMPDEST PUSH0 DUP3 DUP3 MSTORE PUSH1 0x20 DUP3 ADD SWAP1 POP SWAP3 SWAP2 POP POP JUMP JUMPDEST PUSH0 PUSH2 0x1327 DUP3 PUSH2 0x1124 JUMP JUMPDEST PUSH2 0x1331 DUP2 DUP6 PUSH2 0x130D JUMP JUMPDEST SWAP4 POP PUSH2 0x1341 DUP2 DUP6 PUSH1 0x20 DUP7 ADD PUSH2 0x113E JUMP JUMPDEST PUSH2 0x134A DUP2 PUSH2 0xF80 JUMP JUMPDEST DUP5 ADD SWAP2 POP POP SWAP3 SWAP2 POP POP JUMP JUMPDEST PUSH0 PUSH1 0x20 DUP3 ADD SWAP1 POP DUP2 DUP2 SUB PUSH0 DUP4 ADD MSTORE PUSH2 0x136D DUP2 DUP5 PUSH2 0x131D JUMP JUMPDEST SWAP1 POP SWAP3 SWAP2 POP POP JUMP JUMPDEST PUSH0 DUP2 SWAP1 POP SWAP3 SWAP2 POP POP JUMP JUMPDEST PUSH0 PUSH2 0x1389 DUP3 PUSH2 0x1124 JUMP JUMPDEST PUSH2 0x1393 DUP2 DUP6 PUSH2 0x1375 JUMP JUMPDEST SWAP4 POP PUSH2 0x13A3 DUP2 DUP6 PUSH1 0x20 DUP7 ADD PUSH2 0x113E JUMP JUMPDEST DUP1 DUP5 ADD SWAP2 POP POP SWAP3 SWAP2 POP POP JUMP JUMPDEST PUSH0 PUSH2 0x13BA DUP3 DUP5 PUSH2 0x137F JUMP JUMPDEST SWAP2 POP DUP2 SWAP1 POP SWAP3 SWAP2 POP POP JUMP JUMPDEST PUSH32 0x43757272656E6379206E6F7420737570706F7274656400000000000000000000 PUSH0 DUP3 ADD MSTORE POP JUMP JUMPDEST PUSH0 PUSH2 0x13F9 PUSH1 0x16 DUP4 PUSH2 0x130D JUMP JUMPDEST SWAP2 POP PUSH2 0x1404 DUP3 PUSH2 0x13C5 JUMP JUMPDEST PUSH1 0x20 DUP3 ADD SWAP1 POP SWAP2 SWAP1 POP JUMP JUMPDEST PUSH0 PUSH1 0x20 DUP3 ADD SWAP1 POP DUP2 DUP2 SUB PUSH0 DUP4 ADD MSTORE PUSH2 0x1426 DUP2 PUSH2 0x13ED JUMP JUMPDEST SWAP1 POP SWAP2 SWAP1 POP JUMP JUMPDEST PUSH32 0x4E487B7100000000000000000000000000000000000000000000000000000000 PUSH0 MSTORE PUSH1 0x22 PUSH1 0x4 MSTORE PUSH1 0x24 PUSH0 REVERT JUMPDEST PUSH0 PUSH1 0x2 DUP3 DIV SWAP1 POP PUSH1 0x1 DUP3 AND DUP1 PUSH2 0x1471 JUMPI PUSH1 0x7F DUP3 AND SWAP2 POP JUMPDEST PUSH1 0x20 DUP3 LT DUP2 SUB PUSH2 0x1484 JUMPI PUSH2 0x1483 PUSH2 0x142D JUMP JUMPDEST JUMPDEST POP SWAP2 SWAP1 POP JUMP JUMPDEST PUSH32 0x4F6E6C79206F776E65722063616E20706572666F726D20746869732061637469 PUSH0 DUP3 ADD MSTORE PUSH32 0x6F6E000000000000000000000000000000000000000000000000000000000000 PUSH1 0x20 DUP3 ADD MSTORE POP JUMP JUMPDEST PUSH0 PUSH2 0x14E4 PUSH1 0x22 DUP4 PUSH2 0x130D JUMP JUMPDEST SWAP2 POP PUSH2 0x14EF DUP3 PUSH2 0x148A JUMP JUMPDEST PUSH1 0x40 DUP3 ADD SWAP1 POP SWAP2 SWAP1 POP JUMP JUMPDEST PUSH0 PUSH1 0x20 DUP3 ADD SWAP1 POP DUP2 DUP2 SUB PUSH0 DUP4 ADD MSTORE PUSH2 0x1511 DUP2 PUSH2 0x14D8 JUMP JUMPDEST SWAP1 POP SWAP2 SWAP1 POP JUMP JUMPDEST PUSH32 0x4E6F207469707320746F20776974686472617700000000000000000000000000 PUSH0 DUP3 ADD MSTORE POP JUMP JUMPDEST PUSH0 PUSH2 0x154C PUSH1 0x13 DUP4 PUSH2 0x130D JUMP JUMPDEST SWAP2 POP PUSH2 0x1557 DUP3 PUSH2 0x1518 JUMP JUMPDEST PUSH1 0x20 DUP3 ADD SWAP1 POP SWAP2 SWAP1 POP JUMP JUMPDEST PUSH0 PUSH1 0x20 DUP3 ADD SWAP1 POP DUP2 DUP2 SUB PUSH0 DUP4 ADD MSTORE PUSH2 0x1579 DUP2 PUSH2 0x1540 JUMP JUMPDEST SWAP1 POP SWAP2 SWAP1 POP JUMP JUMPDEST PUSH0 DUP2 SWAP1 POP SWAP3 SWAP2 POP POP JUMP JUMPDEST POP JUMP JUMPDEST PUSH0 PUSH2 0x1598 PUSH0 DUP4 PUSH2 0x1580 JUMP JUMPDEST SWAP2 POP PUSH2 0x15A3 DUP3 PUSH2 0x158A JUMP JUMPDEST PUSH0 DUP3 ADD SWAP1 POP SWAP2 SWAP1 POP JUMP JUMPDEST PUSH0 PUSH2 0x15B7 DUP3 PUSH2 0x158D JUMP JUMPDEST SWAP2 POP DUP2 SWAP1 POP SWAP2 SWAP1 POP JUMP JUMPDEST PUSH32 0x5472616E73666572206661696C65640000000000000000000000000000000000 PUSH0 DUP3 ADD MSTORE POP JUMP JUMPDEST PUSH0 PUSH2 0x15F5 PUSH1 0xF DUP4 PUSH2 0x130D JUMP JUMPDEST SWAP2 POP PUSH2 0x1600 DUP3 PUSH2 0x15C1 JUMP JUMPDEST PUSH1 0x20 DUP3 ADD SWAP1 POP SWAP2 SWAP1 POP JUMP JUMPDEST PUSH0 PUSH1 0x20 DUP3 ADD SWAP1 POP DUP2 DUP2 SUB PUSH0 DUP4 ADD MSTORE PUSH2 0x1622 DUP2 PUSH2 0x15E9 JUMP JUMPDEST SWAP1 POP SWAP2 SWAP1 POP JUMP JUMPDEST PUSH32 0x436F6E76657273696F6E2072617465206D757374206265206772656174657220 PUSH0 DUP3 ADD MSTORE PUSH32 0x7468616E20300000000000000000000000000000000000000000000000000000 PUSH1 0x20 DUP3 ADD MSTORE POP JUMP JUMPDEST PUSH0 PUSH2 0x1683 PUSH1 0x26 DUP4 PUSH2 0x130D JUMP JUMPDEST SWAP2 POP PUSH2 0x168E DUP3 PUSH2 0x1629 JUMP JUMPDEST PUSH1 0x40 DUP3 ADD SWAP1 POP SWAP2 SWAP1 POP JUMP JUMPDEST PUSH0 PUSH1 0x20 DUP3 ADD SWAP1 POP DUP2 DUP2 SUB PUSH0 DUP4 ADD MSTORE PUSH2 0x16B0 DUP2 PUSH2 0x1677 JUMP JUMPDEST SWAP1 POP SWAP2 SWAP1 POP JUMP JUMPDEST PUSH32 0x4E487B7100000000000000000000000000000000000000000000000000000000 PUSH0 MSTORE PUSH1 0x32 PUSH1 0x4 MSTORE PUSH1 0x24 PUSH0 REVERT JUMPDEST PUSH0 DUP2 SWAP1 POP DUP2 PUSH0 MSTORE PUSH1 0x20 PUSH0 KECCAK256 SWAP1 POP SWAP2 SWAP1 POP JUMP JUMPDEST PUSH0 DUP2 SLOAD PUSH2 0x1702 DUP2 PUSH2 0x145A JUMP JUMPDEST PUSH2 0x170C DUP2 DUP7 PUSH2 0x1580 JUMP JUMPDEST SWAP5 POP PUSH1 0x1 DUP3 AND PUSH0 DUP2 EQ PUSH2 0x1726 JUMPI PUSH1 0x1 DUP2 EQ PUSH2 0x173B JUMPI PUSH2 0x176D JUMP JUMPDEST PUSH1 0xFF NOT DUP4 AND DUP7 MSTORE DUP2 ISZERO ISZERO DUP3 MUL DUP7 ADD SWAP4 POP PUSH2 0x176D JUMP JUMPDEST PUSH2 0x1744 DUP6 PUSH2 0x16E4 JUMP JUMPDEST PUSH0 JUMPDEST DUP4 DUP2 LT ISZERO PUSH2 0x1765 JUMPI DUP2 SLOAD DUP2 DUP10 ADD MSTORE PUSH1 0x1 DUP3 ADD SWAP2 POP PUSH1 0x20 DUP2 ADD SWAP1 POP PUSH2 0x1746 JUMP JUMPDEST DUP4 DUP9 ADD SWAP6 POP POP POP JUMPDEST POP POP POP SWAP3 SWAP2 POP POP JUMP JUMPDEST PUSH0 PUSH2 0x1781 DUP3 DUP5 PUSH2 0x16F6 JUMP JUMPDEST SWAP2 POP DUP2 SWAP1 POP SWAP3 SWAP2 POP POP JUMP JUMPDEST PUSH0 DUP2 SWAP1 POP DUP2 PUSH0 MSTORE PUSH1 0x20 PUSH0 KECCAK256 SWAP1 POP SWAP2 SWAP1 POP JUMP JUMPDEST PUSH0 PUSH1 0x20 PUSH1 0x1F DUP4 ADD DIV SWAP1 POP SWAP2 SWAP1 POP JUMP JUMPDEST PUSH0 DUP3 DUP3 SHL SWAP1 POP SWAP3 SWAP2 POP POP JUMP JUMPDEST PUSH0 PUSH1 0x8 DUP4 MUL PUSH2 0x17E8 PUSH32 0xFFFFFFFFFFFFFFFFFFFFFFFFFFFFFFFFFFFFFFFFFFFFFFFFFFFFFFFFFFFFFFFF DUP3 PUSH2 0x17AD JUMP JUMPDEST PUSH2 0x17F2 DUP7 DUP4 PUSH2 0x17AD JUMP JUMPDEST SWAP6 POP DUP1 NOT DUP5 AND SWAP4 POP DUP1 DUP7 AND DUP5 OR SWAP3 POP POP POP SWAP4 SWAP3 POP POP POP JUMP JUMPDEST PUSH0 DUP2 SWAP1 POP SWAP2 SWAP1 POP JUMP JUMPDEST PUSH0 PUSH2 0x182D PUSH2 0x1828 PUSH2 0x1823 DUP5 PUSH2 0xF47 JUMP JUMPDEST PUSH2 0x180A JUMP JUMPDEST PUSH2 0xF47 JUMP JUMPDEST SWAP1 POP SWAP2 SWAP1 POP JUMP JUMPDEST PUSH0 DUP2 SWAP1 POP SWAP2 SWAP1 POP JUMP JUMPDEST PUSH2 0x1846 DUP4 PUSH2 0x1813 JUMP JUMPDEST PUSH2 0x185A PUSH2 0x1852 DUP3 PUSH2 0x1834 JUMP JUMPDEST DUP5 DUP5 SLOAD PUSH2 0x17B9 JUMP JUMPDEST DUP3 SSTORE POP POP POP POP JUMP JUMPDEST PUSH0 PUSH0 SWAP1 POP SWAP1 JUMP JUMPDEST PUSH2 0x1871 PUSH2 0x1862 JUMP JUMPDEST PUSH2 0x187C DUP2 DUP5 DUP5 PUSH2 0x183D JUMP JUMPDEST POP POP POP JUMP JUMPDEST JUMPDEST DUP2 DUP2 LT ISZERO PUSH2 0x189F JUMPI PUSH2 0x1894 PUSH0 DUP3 PUSH2 0x1869 JUMP JUMPDEST PUSH1 0x1 DUP2 ADD SWAP1 POP PUSH2 0x1882 JUMP JUMPDEST POP POP JUMP JUMPDEST PUSH1 0x1F DUP3 GT ISZERO PUSH2 0x18E4 JUMPI PUSH2 0x18B5 DUP2 PUSH2 0x178C JUMP JUMPDEST PUSH2 0x18BE DUP5 PUSH2 0x179E JUMP JUMPDEST DUP2 ADD PUSH1 0x20 DUP6 LT ISZERO PUSH2 0x18CD JUMPI DUP2 SWAP1 POP JUMPDEST PUSH2 0x18E1 PUSH2 0x18D9 DUP6 PUSH2 0x179E JUMP JUMPDEST DUP4 ADD DUP3 PUSH2 0x1881 JUMP JUMPDEST POP POP JUMPDEST POP POP POP JUMP JUMPDEST PUSH0 DUP3 DUP3 SHR SWAP1 POP SWAP3 SWAP2 POP POP JUMP JUMPDEST PUSH0 PUSH2 0x1904 PUSH0 NOT DUP5 PUSH1 0x8 MUL PUSH2 0x18E9 JUMP JUMPDEST NOT DUP1 DUP4 AND SWAP2 POP POP SWAP3 SWAP2 POP POP JUMP JUMPDEST PUSH0 PUSH2 0x191C DUP4 DUP4 PUSH2 0x18F5 JUMP JUMPDEST SWAP2 POP DUP3 PUSH1 0x2 MUL DUP3 OR SWAP1 POP SWAP3 SWAP2 POP POP JUMP JUMPDEST PUSH2 0x1935 DUP3 PUSH2 0x1124 JUMP JUMPDEST PUSH8 0xFFFFFFFFFFFFFFFF DUP2 GT ISZERO PUSH2 0x194E JUMPI PUSH2 0x194D PUSH2 0xF90 JUMP JUMPDEST JUMPDEST PUSH2 0x1958 DUP3 SLOAD PUSH2 0x145A JUMP JUMPDEST PUSH2 0x1963 DUP3 DUP3 DUP6 PUSH2 0x18A3 JUMP JUMPDEST PUSH0 PUSH1 0x20 SWAP1 POP PUSH1 0x1F DUP4 GT PUSH1 0x1 DUP2 EQ PUSH2 0x1994 JUMPI PUSH0 DUP5 ISZERO PUSH2 0x1982 JUMPI DUP3 DUP8 ADD MLOAD SWAP1 POP JUMPDEST PUSH2 0x198C DUP6 DUP3 PUSH2 0x1911 JUMP JUMPDEST DUP7 SSTORE POP PUSH2 0x19F3 JUMP JUMPDEST PUSH1 0x1F NOT DUP5 AND PUSH2 0x19A2 DUP7 PUSH2 0x178C JUMP JUMPDEST PUSH0 JUMPDEST DUP3 DUP2 LT ISZERO PUSH2 0x19C9 JUMPI DUP5 DUP10 ADD MLOAD DUP3 SSTORE PUSH1 0x1 DUP3 ADD SWAP2 POP PUSH1 0x20 DUP6 ADD SWAP5 POP PUSH1 0x20 DUP2 ADD SWAP1 POP PUSH2 0x19A4 JUMP JUMPDEST DUP7 DUP4 LT ISZERO PUSH2 0x19E6 JUMPI DUP5 DUP10 ADD MLOAD PUSH2 0x19E2 PUSH1 0x1F DUP10 AND DUP3 PUSH2 0x18F5 JUMP JUMPDEST DUP4 SSTORE POP JUMPDEST PUSH1 0x1 PUSH1 0x2 DUP9 MUL ADD DUP9 SSTORE POP POP POP JUMPDEST POP POP POP POP POP POP JUMP JUMPDEST PUSH32 0x4E487B7100000000000000000000000000000000000000000000000000000000 PUSH0 MSTORE PUSH1 0x11 PUSH1 0x4 MSTORE PUSH1 0x24 PUSH0 REVERT JUMPDEST PUSH0 PUSH2 0x1A32 DUP3 PUSH2 0xF47 JUMP JUMPDEST SWAP2 POP PUSH2 0x1A3D DUP4 PUSH2 0xF47 JUMP JUMPDEST SWAP3 POP DUP3 DUP3 MUL PUSH2 0x1A4B DUP2 PUSH2 0xF47 JUMP JUMPDEST SWAP2 POP DUP3 DUP3 DIV DUP5 EQ DUP4 ISZERO OR PUSH2 0x1A62 JUMPI PUSH2 0x1A61 PUSH2 0x19FB JUMP JUMPDEST JUMPDEST POP SWAP3 SWAP2 POP POP JUMP JUMPDEST PUSH32 0x416D6F756E74206D7573742062652067726561746572207468616E2030000000 PUSH0 DUP3 ADD MSTORE POP JUMP JUMPDEST PUSH0 PUSH2 0x1A9D PUSH1 0x1D DUP4 PUSH2 0x130D JUMP JUMPDEST SWAP2 POP PUSH2 0x1AA8 DUP3 PUSH2 0x1A69 JUMP JUMPDEST PUSH1 0x20 DUP3 ADD SWAP1 POP SWAP2 SWAP1 POP JUMP JUMPDEST PUSH0 PUSH1 0x20 DUP3 ADD SWAP1 POP DUP2 DUP2 SUB PUSH0 DUP4 ADD MSTORE PUSH2 0x1ACA DUP2 PUSH2 0x1A91 JUMP JUMPDEST SWAP1 POP SWAP2 SWAP1 POP JUMP JUMPDEST PUSH32 0x53656E742045544820646F65736E2774206D617463682074686520636F6E7665 PUSH0 DUP3 ADD MSTORE PUSH32 0x7274656420616D6F756E74000000000000000000000000000000000000000000 PUSH1 0x20 DUP3 ADD MSTORE POP JUMP JUMPDEST PUSH0 PUSH2 0x1B2B PUSH1 0x2B DUP4 PUSH2 0x130D JUMP JUMPDEST SWAP2 POP PUSH2 0x1B36 DUP3 PUSH2 0x1AD1 JUMP JUMPDEST PUSH1 0x40 DUP3 ADD SWAP1 POP SWAP2 SWAP1 POP JUMP JUMPDEST PUSH0 PUSH1 0x20 DUP3 ADD SWAP1 POP DUP2 DUP2 SUB PUSH0 DUP4 ADD MSTORE PUSH2 0x1B58 DUP2 PUSH2 0x1B1F JUMP JUMPDEST SWAP1 POP SWAP2 SWAP1 POP JUMP JUMPDEST PUSH0 PUSH2 0x1B69 DUP3 PUSH2 0xF47 JUMP JUMPDEST SWAP2 POP PUSH2 0x1B74 DUP4 PUSH2 0xF47 JUMP JUMPDEST SWAP3 POP DUP3 DUP3 ADD SWAP1 POP DUP1 DUP3 GT ISZERO PUSH2 0x1B8C JUMPI PUSH2 0x1B8B PUSH2 0x19FB JUMP JUMPDEST JUMPDEST SWAP3 SWAP2 POP POP JUMP JUMPDEST PUSH32 0x54697020616D6F756E74206D7573742062652067726561746572207468616E20 PUSH0 DUP3 ADD MSTORE PUSH32 0x3000000000000000000000000000000000000000000000000000000000000000 PUSH1 0x20 DUP3 ADD MSTORE POP JUMP JUMPDEST PUSH0 PUSH2 0x1BEC PUSH1 0x21 DUP4 PUSH2 0x130D JUMP JUMPDEST SWAP2 POP PUSH2 0x1BF7 DUP3 PUSH2 0x1B92 JUMP JUMPDEST PUSH1 0x40 DUP3 ADD SWAP1 POP SWAP2 SWAP1 POP JUMP JUMPDEST PUSH0 PUSH1 0x20 DUP3 ADD SWAP1 POP DUP2 DUP2 SUB PUSH0 DUP4 ADD MSTORE PUSH2 0x1C19 DUP2 PUSH2 0x1BE0 JUMP JUMPDEST SWAP1 POP SWAP2 SWAP1 POP JUMP JUMPDEST PUSH32 0x4554480000000000000000000000000000000000000000000000000000000000 PUSH0 DUP3 ADD MSTORE POP JUMP JUMPDEST PUSH0 PUSH2 0x1C54 PUSH1 0x3 DUP4 PUSH2 0x1375 JUMP JUMPDEST SWAP2 POP PUSH2 0x1C5F DUP3 PUSH2 0x1C20 JUMP JUMPDEST PUSH1 0x3 DUP3 ADD SWAP1 POP SWAP2 SWAP1 POP JUMP JUMPDEST PUSH0 PUSH2 0x1C74 DUP3 PUSH2 0x1C48 JUMP JUMPDEST SWAP2 POP DUP2 SWAP1 POP SWAP2 SWAP1 POP JUMP JUMPDEST PUSH32 0x496E76616C696420616464726573730000000000000000000000000000000000 PUSH0 DUP3 ADD MSTORE POP JUMP JUMPDEST PUSH0 PUSH2 0x1CB2 PUSH1 0xF DUP4 PUSH2 0x130D JUMP JUMPDEST SWAP2 POP PUSH2 0x1CBD DUP3 PUSH2 0x1C7E JUMP JUMPDEST PUSH1 0x20 DUP3 ADD SWAP1 POP SWAP2 SWAP1 POP JUMP JUMPDEST PUSH0 PUSH1 0x20 DUP3 ADD SWAP1 POP DUP2 DUP2 SUB PUSH0 DUP4 ADD MSTORE PUSH2 0x1CDF DUP2 PUSH2 0x1CA6 JUMP JUMPDEST SWAP1 POP SWAP2 SWAP1 POP JUMP INVALID LOG2 PUSH5 0x6970667358 0x22 SLT KECCAK256 0xC9 ADDMOD 0xEF 0xCB 0xC 0x26 GT POP 0xB9 0x1F XOR DUP13 0xC2 SWAP5 0xC5 PREVRANDAO SWAP16 0xCC 0xBA 0xBC DUP9 INVALID CHAINID DUP9 0xEF PUSH28 0xE21A5EA1906564736F6C634300081E00330000000000000000000000 "
				},
				"gasEstimates": {
					"creation": {
						"codeDepositCost": "1490400",
						"executionCost": "infinite",
						"totalCost": "infinite"
					},
					"external": {
						"addCurrency(string,uint256)": "infinite",
						"conversionRates(string)": "infinite",
						"convertToEth(string,uint256)": "infinite",
						"getContractBalance()": "401",
						"getConversionRate(string)": "infinite",
						"getSupportedCurrencies()": "infinite",
						"getTipperContribution(address)": "2852",
						"getTipsInCurrency(string)": "infinite",
						"owner()": "2596",
						"supportedCurrencies(uint256)": "infinite",
						"tipInCurrency(string,uint256)": "infinite",
						"tipInEth()": "infinite",
						"tipPerPerson(address)": "2826",
						"tipsPerCurrency(string)": "infinite",
						"totalTipsReceived()": "2513",
						"transferOwnership(address)": "27026",
						"withdrawTips()": "infinite"
					}
				},
				"methodIdentifiers": {
					"addCurrency(string,uint256)": "5c49c825",
					"conversionRates(string)": "5c41fece",
					"convertToEth(string,uint256)": "6de0938b",
					"getContractBalance()": "6f9fb98a",
					"getConversionRate(string)": "1fac531b",
					"getSupportedCurrencies()": "2ce75863",
					"getTipperContribution(address)": "223506a7",
					"getTipsInCurrency(string)": "0a8dc500",
					"owner()": "8da5cb5b",
					"supportedCurrencies(uint256)": "97bf7935",
					"tipInCurrency(string,uint256)": "9c88e42d",
					"tipInEth()": "b8443702",
					"tipPerPerson(address)": "0a0e5da9",
					"tipsPerCurrency(string)": "0d9ba15f",
					"totalTipsReceived()": "efe8c084",
					"transferOwnership(address)": "f2fde38b",
					"withdrawTips()": "3aaa74b2"
				}
			},
			"storageLayout": {
				"storage": [
					{
						"astId": 3,
						"contract": "submissions/Zora/Day8TipJar.sol:TipJar",
						"label": "owner",
						"offset": 0,
						"slot": "0",
						"type": "t_address"
					},
					{
						"astId": 5,
						"contract": "submissions/Zora/Day8TipJar.sol:TipJar",
						"label": "totalTipsReceived",
						"offset": 0,
						"slot": "1",
						"type": "t_uint256"
					},
					{
						"astId": 9,
						"contract": "submissions/Zora/Day8TipJar.sol:TipJar",
						"label": "conversionRates",
						"offset": 0,
						"slot": "2",
						"type": "t_mapping(t_string_memory_ptr,t_uint256)"
					},
					{
						"astId": 13,
						"contract": "submissions/Zora/Day8TipJar.sol:TipJar",
						"label": "tipPerPerson",
						"offset": 0,
						"slot": "3",
						"type": "t_mapping(t_address,t_uint256)"
					},
					{
						"astId": 16,
						"contract": "submissions/Zora/Day8TipJar.sol:TipJar",
						"label": "supportedCurrencies",
						"offset": 0,
						"slot": "4",
						"type": "t_array(t_string_storage)dyn_storage"
					},
					{
						"astId": 20,
						"contract": "submissions/Zora/Day8TipJar.sol:TipJar",
						"label": "tipsPerCurrency",
						"offset": 0,
						"slot": "5",
						"type": "t_mapping(t_string_memory_ptr,t_uint256)"
					}
				],
				"types": {
					"t_address": {
						"encoding": "inplace",
						"label": "address",
						"numberOfBytes": "20"
					},
					"t_array(t_string_storage)dyn_storage": {
						"base": "t_string_storage",
						"encoding": "dynamic_array",
						"label": "string[]",
						"numberOfBytes": "32"
					},
					"t_mapping(t_address,t_uint256)": {
						"encoding": "mapping",
						"key": "t_address",
						"label": "mapping(address => uint256)",
						"numberOfBytes": "32",
						"value": "t_uint256"
					},
					"t_mapping(t_string_memory_ptr,t_uint256)": {
						"encoding": "mapping",
						"key": "t_string_memory_ptr",
						"label": "mapping(string => uint256)",
						"numberOfBytes": "32",
						"value": "t_uint256"
					},
					"t_string_memory_ptr": {
						"encoding": "bytes",
						"label": "string",
						"numberOfBytes": "32"
					},
					"t_string_storage": {
						"encoding": "bytes",
						"label": "string",
						"numberOfBytes": "32"
					},
					"t_uint256": {
						"encoding": "inplace",
						"label": "uint256",
						"numberOfBytes": "32"
					}
				}
			},
			"userdoc": {
				"kind": "user",
				"methods": {},
				"version": 1
			}
		}
	}
}