{
	"submissions/Zora/DecentralizedGovernance.sol": {
		"DecentralizedGovernance": {
			"abi": [
				{
					"inputs": [
						{
							"internalType": "address",
							"name": "_governanceToken",
							"type": "address"
						},
						{
							"internalType": "uint256",
							"name": "_votingDuration",
							"type": "uint256"
						},
						{
							"internalType": "uint256",
							"name": "_timelockDuration",
							"type": "uint256"
						},
						{
							"internalType": "uint256",
							"name": "_quorumPercentage",
							"type": "uint256"
						},
						{
							"internalType": "uint256",
							"name": "_proposalDepositAmount",
							"type": "uint256"
						}
					],
					"stateMutability": "nonpayable",
					"type": "constructor"
				},
				{
					"anonymous": false,
					"inputs": [
						{
							"indexed": true,
							"internalType": "uint256",
							"name": "proposalId",
							"type": "uint256"
						},
						{
							"indexed": true,
							"internalType": "address",
							"name": "proposer",
							"type": "address"
						},
						{
							"indexed": false,
							"internalType": "string",
							"name": "description",
							"type": "string"
						}
					],
					"name": "ProposalCreated",
					"type": "event"
				},
				{
					"anonymous": false,
					"inputs": [
						{
							"indexed": false,
							"internalType": "address",
							"name": "proposer",
							"type": "address"
						},
						{
							"indexed": false,
							"internalType": "uint256",
							"name": "amount",
							"type": "uint256"
						}
					],
					"name": "ProposalDepositPaid",
					"type": "event"
				},
				{
					"anonymous": false,
					"inputs": [
						{
							"indexed": false,
							"internalType": "address",
							"name": "proposer",
							"type": "address"
						},
						{
							"indexed": false,
							"internalType": "uint256",
							"name": "amount",
							"type": "uint256"
						}
					],
					"name": "ProposalDepositRefunded",
					"type": "event"
				},
				{
					"anonymous": false,
					"inputs": [
						{
							"indexed": true,
							"internalType": "uint256",
							"name": "proposalId",
							"type": "uint256"
						}
					],
					"name": "ProposalExecuted",
					"type": "event"
				},
				{
					"anonymous": false,
					"inputs": [
						{
							"indexed": true,
							"internalType": "uint256",
							"name": "proposalId",
							"type": "uint256"
						}
					],
					"name": "ProposalTimelockStarted",
					"type": "event"
				},
				{
					"anonymous": false,
					"inputs": [
						{
							"indexed": true,
							"internalType": "uint256",
							"name": "proposalId",
							"type": "uint256"
						}
					],
					"name": "QuorumNotMet",
					"type": "event"
				},
				{
					"anonymous": false,
					"inputs": [
						{
							"indexed": false,
							"internalType": "uint256",
							"name": "duration",
							"type": "uint256"
						}
					],
					"name": "TimelockSet",
					"type": "event"
				},
				{
					"anonymous": false,
					"inputs": [
						{
							"indexed": true,
							"internalType": "uint256",
							"name": "proposalId",
							"type": "uint256"
						},
						{
							"indexed": true,
							"internalType": "address",
							"name": "voter",
							"type": "address"
						},
						{
							"indexed": false,
							"internalType": "bool",
							"name": "support",
							"type": "bool"
						},
						{
							"indexed": false,
							"internalType": "uint256",
							"name": "weight",
							"type": "uint256"
						}
					],
					"name": "Voted",
					"type": "event"
				},
				{
					"inputs": [],
					"name": "admin",
					"outputs": [
						{
							"internalType": "address",
							"name": "",
							"type": "address"
						}
					],
					"stateMutability": "view",
					"type": "function"
				},
				{
					"inputs": [
						{
							"internalType": "string",
							"name": "description",
							"type": "string"
						}
					],
					"name": "createProposal",
					"outputs": [
						{
							"internalType": "uint256",
							"name": "",
							"type": "uint256"
						}
					],
					"stateMutability": "nonpayable",
					"type": "function"
				},
				{
					"inputs": [
						{
							"internalType": "uint256",
							"name": "proposalId",
							"type": "uint256"
						}
					],
					"name": "executeProposal",
					"outputs": [],
					"stateMutability": "nonpayable",
					"type": "function"
				},
				{
					"inputs": [
						{
							"internalType": "uint256",
							"name": "proposalId",
							"type": "uint256"
						}
					],
					"name": "finalizeProposal",
					"outputs": [],
					"stateMutability": "nonpayable",
					"type": "function"
				},
				{
					"inputs": [
						{
							"internalType": "uint256",
							"name": "proposalId",
							"type": "uint256"
						}
					],
					"name": "getProposalResult",
					"outputs": [
						{
							"internalType": "bool",
							"name": "passed",
							"type": "bool"
						},
						{
							"internalType": "uint256",
							"name": "forVotes",
							"type": "uint256"
						},
						{
							"internalType": "uint256",
							"name": "againstVotes",
							"type": "uint256"
						},
						{
							"internalType": "bool",
							"name": "executed",
							"type": "bool"
						}
					],
					"stateMutability": "view",
					"type": "function"
				},
				{
					"inputs": [],
					"name": "governanceToken",
					"outputs": [
						{
							"internalType": "contract IERC20",
							"name": "",
							"type": "address"
						}
					],
					"stateMutability": "view",
					"type": "function"
				},
				{
					"inputs": [
						{
							"internalType": "uint256",
							"name": "",
							"type": "uint256"
						},
						{
							"internalType": "address",
							"name": "",
							"type": "address"
						}
					],
					"name": "hasVoted",
					"outputs": [
						{
							"internalType": "bool",
							"name": "",
							"type": "bool"
						}
					],
					"stateMutability": "view",
					"type": "function"
				},
				{
					"inputs": [],
					"name": "nextProposalId",
					"outputs": [
						{
							"internalType": "uint256",
							"name": "",
							"type": "uint256"
						}
					],
					"stateMutability": "view",
					"type": "function"
				},
				{
					"inputs": [],
					"name": "proposalDepositAmount",
					"outputs": [
						{
							"internalType": "uint256",
							"name": "",
							"type": "uint256"
						}
					],
					"stateMutability": "view",
					"type": "function"
				},
				{
					"inputs": [
						{
							"internalType": "uint256",
							"name": "",
							"type": "uint256"
						}
					],
					"name": "proposals",
					"outputs": [
						{
							"internalType": "address",
							"name": "proposer",
							"type": "address"
						},
						{
							"internalType": "string",
							"name": "description",
							"type": "string"
						},
						{
							"internalType": "uint256",
							"name": "forVotes",
							"type": "uint256"
						},
						{
							"internalType": "uint256",
							"name": "againstVotes",
							"type": "uint256"
						},
						{
							"internalType": "uint256",
							"name": "startTime",
							"type": "uint256"
						},
						{
							"internalType": "uint256",
							"name": "endTime",
							"type": "uint256"
						},
						{
							"internalType": "bool",
							"name": "executed",
							"type": "bool"
						},
						{
							"internalType": "bool",
							"name": "canceled",
							"type": "bool"
						},
						{
							"internalType": "uint256",
							"name": "timelockEnd",
							"type": "uint256"
						}
					],
					"stateMutability": "view",
					"type": "function"
				},
				{
					"inputs": [],
					"name": "quorumPercentage",
					"outputs": [
						{
							"internalType": "uint256",
							"name": "",
							"type": "uint256"
						}
					],
					"stateMutability": "view",
					"type": "function"
				},
				{
					"inputs": [
						{
							"internalType": "uint256",
							"name": "_proposalDepositAmount",
							"type": "uint256"
						}
					],
					"name": "setProposalDepositAmount",
					"outputs": [],
					"stateMutability": "nonpayable",
					"type": "function"
				},
				{
					"inputs": [
						{
							"internalType": "uint256",
							"name": "_quorumPercentage",
							"type": "uint256"
						}
					],
					"name": "setQuorumPercentage",
					"outputs": [],
					"stateMutability": "nonpayable",
					"type": "function"
				},
				{
					"inputs": [
						{
							"internalType": "uint256",
							"name": "_timelockDuration",
							"type": "uint256"
						}
					],
					"name": "setTimelockDuration",
					"outputs": [],
					"stateMutability": "nonpayable",
					"type": "function"
				},
				{
					"inputs": [],
					"name": "timelockDuration",
					"outputs": [
						{
							"internalType": "uint256",
							"name": "",
							"type": "uint256"
						}
					],
					"stateMutability": "view",
					"type": "function"
				},
				{
					"inputs": [
						{
							"internalType": "uint256",
							"name": "proposalId",
							"type": "uint256"
						},
						{
							"internalType": "bool",
							"name": "support",
							"type": "bool"
						}
					],
					"name": "vote",
					"outputs": [],
					"stateMutability": "nonpayable",
					"type": "function"
				},
				{
					"inputs": [],
					"name": "votingDuration",
					"outputs": [
						{
							"internalType": "uint256",
							"name": "",
							"type": "uint256"
						}
					],
					"stateMutability": "view",
					"type": "function"
				}
			],
			"devdoc": {
				"kind": "dev",
				"methods": {},
				"version": 1
			},
			"evm": {
				"assembly": "    /* \"submissions/Zora/DecentralizedGovernance.sol\":243:7349  contract DecentralizedGovernance is ReentrancyGuard {... */\n  mstore(0x40, 0x80)\n    /* \"submissions/Zora/DecentralizedGovernance.sol\":1953:2653  constructor(... */\n  callvalue\n  dup1\n  iszero\n  tag_1\n  jumpi\n  revert(0x00, 0x00)\ntag_1:\n  pop\n  mload(0x40)\n  sub(codesize, bytecodeSize)\n  dup1\n  bytecodeSize\n  dup4\n  codecopy\n  dup2\n  dup2\n  add\n  0x40\n  mstore\n  dup2\n  add\n  swap1\n  tag_2\n  swap2\n  swap1\n  tag_3\n  jump\t// in\ntag_2:\n    /* \"@openzeppelin/contracts/security/ReentrancyGuard.sol\":1716:1717  1 */\n  0x01\n    /* \"@openzeppelin/contracts/security/ReentrancyGuard.sol\":1821:1828  _status */\n  0x00\n    /* \"@openzeppelin/contracts/security/ReentrancyGuard.sol\":1821:1843  _status = _NOT_ENTERED */\n  dup2\n  swap1\n  sstore\n  pop\n    /* \"submissions/Zora/DecentralizedGovernance.sol\":2201:2202  0 */\n  0x00\n    /* \"submissions/Zora/DecentralizedGovernance.sol\":2173:2203  _governanceToken != address(0) */\n  0xffffffffffffffffffffffffffffffffffffffff\n  and\n    /* \"submissions/Zora/DecentralizedGovernance.sol\":2173:2189  _governanceToken */\n  dup6\n    /* \"submissions/Zora/DecentralizedGovernance.sol\":2173:2203  _governanceToken != address(0) */\n  0xffffffffffffffffffffffffffffffffffffffff\n  and\n  sub\n    /* \"submissions/Zora/DecentralizedGovernance.sol\":2165:2221  require(_governanceToken != address(0), \"Invalid token\") */\n  tag_8\n  jumpi\n  mload(0x40)\n  0x08c379a000000000000000000000000000000000000000000000000000000000\n  dup2\n  mstore\n  0x04\n  add\n  tag_9\n  swap1\n  tag_10\n  jump\t// in\ntag_9:\n  mload(0x40)\n  dup1\n  swap2\n  sub\n  swap1\n  revert\ntag_8:\n    /* \"submissions/Zora/DecentralizedGovernance.sol\":2258:2259  0 */\n  0x00\n    /* \"submissions/Zora/DecentralizedGovernance.sol\":2240:2255  _votingDuration */\n  dup5\n    /* \"submissions/Zora/DecentralizedGovernance.sol\":2240:2259  _votingDuration > 0 */\n  gt\n    /* \"submissions/Zora/DecentralizedGovernance.sol\":2232:2280  require(_votingDuration > 0, \"Invalid duration\") */\n  tag_11\n  jumpi\n  mload(0x40)\n  0x08c379a000000000000000000000000000000000000000000000000000000000\n  dup2\n  mstore\n  0x04\n  add\n  tag_12\n  swap1\n  tag_13\n  jump\t// in\ntag_12:\n  mload(0x40)\n  dup1\n  swap2\n  sub\n  swap1\n  revert\ntag_11:\n    /* \"submissions/Zora/DecentralizedGovernance.sol\":2319:2320  0 */\n  0x00\n    /* \"submissions/Zora/DecentralizedGovernance.sol\":2299:2316  _quorumPercentage */\n  dup3\n    /* \"submissions/Zora/DecentralizedGovernance.sol\":2299:2320  _quorumPercentage > 0 */\n  gt\n    /* \"submissions/Zora/DecentralizedGovernance.sol\":2299:2348  _quorumPercentage > 0 && _quorumPercentage <= 100 */\n  dup1\n  iszero\n  tag_14\n  jumpi\n  pop\n    /* \"submissions/Zora/DecentralizedGovernance.sol\":2345:2348  100 */\n  0x64\n    /* \"submissions/Zora/DecentralizedGovernance.sol\":2324:2341  _quorumPercentage */\n  dup3\n    /* \"submissions/Zora/DecentralizedGovernance.sol\":2324:2348  _quorumPercentage <= 100 */\n  gt\n  iszero\n    /* \"submissions/Zora/DecentralizedGovernance.sol\":2299:2348  _quorumPercentage > 0 && _quorumPercentage <= 100 */\ntag_14:\n    /* \"submissions/Zora/DecentralizedGovernance.sol\":2291:2367  require(_quorumPercentage > 0 && _quorumPercentage <= 100, \"Invalid quorum\") */\n  tag_15\n  jumpi\n  mload(0x40)\n  0x08c379a000000000000000000000000000000000000000000000000000000000\n  dup2\n  mstore\n  0x04\n  add\n  tag_16\n  swap1\n  tag_17\n  jump\t// in\ntag_16:\n  mload(0x40)\n  dup1\n  swap2\n  sub\n  swap1\n  revert\ntag_15:\n    /* \"submissions/Zora/DecentralizedGovernance.sol\":2405:2421  _governanceToken */\n  dup5\n    /* \"submissions/Zora/DecentralizedGovernance.sol\":2380:2395  governanceToken */\n  0x01\n  0x00\n    /* \"submissions/Zora/DecentralizedGovernance.sol\":2380:2422  governanceToken = IERC20(_governanceToken) */\n  0x0100\n  exp\n  dup2\n  sload\n  dup2\n  0xffffffffffffffffffffffffffffffffffffffff\n  mul\n  not\n  and\n  swap1\n  dup4\n  0xffffffffffffffffffffffffffffffffffffffff\n  and\n  mul\n  or\n  swap1\n  sstore\n  pop\n    /* \"submissions/Zora/DecentralizedGovernance.sol\":2450:2465  _votingDuration */\n  dup4\n    /* \"submissions/Zora/DecentralizedGovernance.sol\":2433:2447  votingDuration */\n  0x05\n    /* \"submissions/Zora/DecentralizedGovernance.sol\":2433:2465  votingDuration = _votingDuration */\n  dup2\n  swap1\n  sstore\n  pop\n    /* \"submissions/Zora/DecentralizedGovernance.sol\":2495:2512  _timelockDuration */\n  dup3\n    /* \"submissions/Zora/DecentralizedGovernance.sol\":2476:2492  timelockDuration */\n  0x06\n    /* \"submissions/Zora/DecentralizedGovernance.sol\":2476:2512  timelockDuration = _timelockDuration */\n  dup2\n  swap1\n  sstore\n  pop\n    /* \"submissions/Zora/DecentralizedGovernance.sol\":2531:2541  msg.sender */\n  caller\n    /* \"submissions/Zora/DecentralizedGovernance.sol\":2523:2528  admin */\n  0x07\n  0x00\n    /* \"submissions/Zora/DecentralizedGovernance.sol\":2523:2541  admin = msg.sender */\n  0x0100\n  exp\n  dup2\n  sload\n  dup2\n  0xffffffffffffffffffffffffffffffffffffffff\n  mul\n  not\n  and\n  swap1\n  dup4\n  0xffffffffffffffffffffffffffffffffffffffff\n  and\n  mul\n  or\n  swap1\n  sstore\n  pop\n    /* \"submissions/Zora/DecentralizedGovernance.sol\":2571:2588  _quorumPercentage */\n  dup2\n    /* \"submissions/Zora/DecentralizedGovernance.sol\":2552:2568  quorumPercentage */\n  0x08\n    /* \"submissions/Zora/DecentralizedGovernance.sol\":2552:2588  quorumPercentage = _quorumPercentage */\n  dup2\n  swap1\n  sstore\n  pop\n    /* \"submissions/Zora/DecentralizedGovernance.sol\":2623:2645  _proposalDepositAmount */\n  dup1\n    /* \"submissions/Zora/DecentralizedGovernance.sol\":2599:2620  proposalDepositAmount */\n  0x09\n    /* \"submissions/Zora/DecentralizedGovernance.sol\":2599:2645  proposalDepositAmount = _proposalDepositAmount */\n  dup2\n  swap1\n  sstore\n  pop\n    /* \"submissions/Zora/DecentralizedGovernance.sol\":1953:2653  constructor(... */\n  pop\n  pop\n  pop\n  pop\n  pop\n    /* \"submissions/Zora/DecentralizedGovernance.sol\":243:7349  contract DecentralizedGovernance is ReentrancyGuard {... */\n  jump(tag_18)\n    /* \"#utility.yul\":88:205   */\ntag_20:\n    /* \"#utility.yul\":197:198   */\n  0x00\n    /* \"#utility.yul\":194:195   */\n  0x00\n    /* \"#utility.yul\":187:199   */\n  revert\n    /* \"#utility.yul\":334:460   */\ntag_22:\n    /* \"#utility.yul\":371:378   */\n  0x00\n    /* \"#utility.yul\":411:453   */\n  0xffffffffffffffffffffffffffffffffffffffff\n    /* \"#utility.yul\":404:409   */\n  dup3\n    /* \"#utility.yul\":400:454   */\n  and\n    /* \"#utility.yul\":389:454   */\n  swap1\n  pop\n    /* \"#utility.yul\":334:460   */\n  swap2\n  swap1\n  pop\n  jump\t// out\n    /* \"#utility.yul\":466:562   */\ntag_23:\n    /* \"#utility.yul\":503:510   */\n  0x00\n    /* \"#utility.yul\":532:556   */\n  tag_42\n    /* \"#utility.yul\":550:555   */\n  dup3\n    /* \"#utility.yul\":532:556   */\n  tag_22\n  jump\t// in\ntag_42:\n    /* \"#utility.yul\":521:556   */\n  swap1\n  pop\n    /* \"#utility.yul\":466:562   */\n  swap2\n  swap1\n  pop\n  jump\t// out\n    /* \"#utility.yul\":568:690   */\ntag_24:\n    /* \"#utility.yul\":641:665   */\n  tag_44\n    /* \"#utility.yul\":659:664   */\n  dup2\n    /* \"#utility.yul\":641:665   */\n  tag_23\n  jump\t// in\ntag_44:\n    /* \"#utility.yul\":634:639   */\n  dup2\n    /* \"#utility.yul\":631:666   */\n  eq\n    /* \"#utility.yul\":621:684   */\n  tag_45\n  jumpi\n    /* \"#utility.yul\":680:681   */\n  0x00\n    /* \"#utility.yul\":677:678   */\n  0x00\n    /* \"#utility.yul\":670:682   */\n  revert\n    /* \"#utility.yul\":621:684   */\ntag_45:\n    /* \"#utility.yul\":568:690   */\n  pop\n  jump\t// out\n    /* \"#utility.yul\":696:839   */\ntag_25:\n    /* \"#utility.yul\":753:758   */\n  0x00\n    /* \"#utility.yul\":784:790   */\n  dup2\n    /* \"#utility.yul\":778:791   */\n  mload\n    /* \"#utility.yul\":769:791   */\n  swap1\n  pop\n    /* \"#utility.yul\":800:833   */\n  tag_47\n    /* \"#utility.yul\":827:832   */\n  dup2\n    /* \"#utility.yul\":800:833   */\n  tag_24\n  jump\t// in\ntag_47:\n    /* \"#utility.yul\":696:839   */\n  swap3\n  swap2\n  pop\n  pop\n  jump\t// out\n    /* \"#utility.yul\":845:922   */\ntag_26:\n    /* \"#utility.yul\":882:889   */\n  0x00\n    /* \"#utility.yul\":911:916   */\n  dup2\n    /* \"#utility.yul\":900:916   */\n  swap1\n  pop\n    /* \"#utility.yul\":845:922   */\n  swap2\n  swap1\n  pop\n  jump\t// out\n    /* \"#utility.yul\":928:1050   */\ntag_27:\n    /* \"#utility.yul\":1001:1025   */\n  tag_50\n    /* \"#utility.yul\":1019:1024   */\n  dup2\n    /* \"#utility.yul\":1001:1025   */\n  tag_26\n  jump\t// in\ntag_50:\n    /* \"#utility.yul\":994:999   */\n  dup2\n    /* \"#utility.yul\":991:1026   */\n  eq\n    /* \"#utility.yul\":981:1044   */\n  tag_51\n  jumpi\n    /* \"#utility.yul\":1040:1041   */\n  0x00\n    /* \"#utility.yul\":1037:1038   */\n  0x00\n    /* \"#utility.yul\":1030:1042   */\n  revert\n    /* \"#utility.yul\":981:1044   */\ntag_51:\n    /* \"#utility.yul\":928:1050   */\n  pop\n  jump\t// out\n    /* \"#utility.yul\":1056:1199   */\ntag_28:\n    /* \"#utility.yul\":1113:1118   */\n  0x00\n    /* \"#utility.yul\":1144:1150   */\n  dup2\n    /* \"#utility.yul\":1138:1151   */\n  mload\n    /* \"#utility.yul\":1129:1151   */\n  swap1\n  pop\n    /* \"#utility.yul\":1160:1193   */\n  tag_53\n    /* \"#utility.yul\":1187:1192   */\n  dup2\n    /* \"#utility.yul\":1160:1193   */\n  tag_27\n  jump\t// in\ntag_53:\n    /* \"#utility.yul\":1056:1199   */\n  swap3\n  swap2\n  pop\n  pop\n  jump\t// out\n    /* \"#utility.yul\":1205:2182   */\ntag_3:\n    /* \"#utility.yul\":1311:1317   */\n  0x00\n    /* \"#utility.yul\":1319:1325   */\n  0x00\n    /* \"#utility.yul\":1327:1333   */\n  0x00\n    /* \"#utility.yul\":1335:1341   */\n  0x00\n    /* \"#utility.yul\":1343:1349   */\n  0x00\n    /* \"#utility.yul\":1392:1395   */\n  0xa0\n    /* \"#utility.yul\":1380:1389   */\n  dup7\n    /* \"#utility.yul\":1371:1378   */\n  dup9\n    /* \"#utility.yul\":1367:1390   */\n  sub\n    /* \"#utility.yul\":1363:1396   */\n  slt\n    /* \"#utility.yul\":1360:1480   */\n  iszero\n  tag_55\n  jumpi\n    /* \"#utility.yul\":1399:1478   */\n  tag_56\n  tag_20\n  jump\t// in\ntag_56:\n    /* \"#utility.yul\":1360:1480   */\ntag_55:\n    /* \"#utility.yul\":1519:1520   */\n  0x00\n    /* \"#utility.yul\":1544:1608   */\n  tag_57\n    /* \"#utility.yul\":1600:1607   */\n  dup9\n    /* \"#utility.yul\":1591:1597   */\n  dup3\n    /* \"#utility.yul\":1580:1589   */\n  dup10\n    /* \"#utility.yul\":1576:1598   */\n  add\n    /* \"#utility.yul\":1544:1608   */\n  tag_25\n  jump\t// in\ntag_57:\n    /* \"#utility.yul\":1534:1608   */\n  swap6\n  pop\n    /* \"#utility.yul\":1490:1618   */\n  pop\n    /* \"#utility.yul\":1657:1659   */\n  0x20\n    /* \"#utility.yul\":1683:1747   */\n  tag_58\n    /* \"#utility.yul\":1739:1746   */\n  dup9\n    /* \"#utility.yul\":1730:1736   */\n  dup3\n    /* \"#utility.yul\":1719:1728   */\n  dup10\n    /* \"#utility.yul\":1715:1737   */\n  add\n    /* \"#utility.yul\":1683:1747   */\n  tag_28\n  jump\t// in\ntag_58:\n    /* \"#utility.yul\":1673:1747   */\n  swap5\n  pop\n    /* \"#utility.yul\":1628:1757   */\n  pop\n    /* \"#utility.yul\":1796:1798   */\n  0x40\n    /* \"#utility.yul\":1822:1886   */\n  tag_59\n    /* \"#utility.yul\":1878:1885   */\n  dup9\n    /* \"#utility.yul\":1869:1875   */\n  dup3\n    /* \"#utility.yul\":1858:1867   */\n  dup10\n    /* \"#utility.yul\":1854:1876   */\n  add\n    /* \"#utility.yul\":1822:1886   */\n  tag_28\n  jump\t// in\ntag_59:\n    /* \"#utility.yul\":1812:1886   */\n  swap4\n  pop\n    /* \"#utility.yul\":1767:1896   */\n  pop\n    /* \"#utility.yul\":1935:1937   */\n  0x60\n    /* \"#utility.yul\":1961:2025   */\n  tag_60\n    /* \"#utility.yul\":2017:2024   */\n  dup9\n    /* \"#utility.yul\":2008:2014   */\n  dup3\n    /* \"#utility.yul\":1997:2006   */\n  dup10\n    /* \"#utility.yul\":1993:2015   */\n  add\n    /* \"#utility.yul\":1961:2025   */\n  tag_28\n  jump\t// in\ntag_60:\n    /* \"#utility.yul\":1951:2025   */\n  swap3\n  pop\n    /* \"#utility.yul\":1906:2035   */\n  pop\n    /* \"#utility.yul\":2074:2077   */\n  0x80\n    /* \"#utility.yul\":2101:2165   */\n  tag_61\n    /* \"#utility.yul\":2157:2164   */\n  dup9\n    /* \"#utility.yul\":2148:2154   */\n  dup3\n    /* \"#utility.yul\":2137:2146   */\n  dup10\n    /* \"#utility.yul\":2133:2155   */\n  add\n    /* \"#utility.yul\":2101:2165   */\n  tag_28\n  jump\t// in\ntag_61:\n    /* \"#utility.yul\":2091:2165   */\n  swap2\n  pop\n    /* \"#utility.yul\":2045:2175   */\n  pop\n    /* \"#utility.yul\":1205:2182   */\n  swap3\n  swap6\n  pop\n  swap3\n  swap6\n  swap1\n  swap4\n  pop\n  jump\t// out\n    /* \"#utility.yul\":2188:2357   */\ntag_29:\n    /* \"#utility.yul\":2272:2283   */\n  0x00\n    /* \"#utility.yul\":2306:2312   */\n  dup3\n    /* \"#utility.yul\":2301:2304   */\n  dup3\n    /* \"#utility.yul\":2294:2313   */\n  mstore\n    /* \"#utility.yul\":2346:2350   */\n  0x20\n    /* \"#utility.yul\":2341:2344   */\n  dup3\n    /* \"#utility.yul\":2337:2351   */\n  add\n    /* \"#utility.yul\":2322:2351   */\n  swap1\n  pop\n    /* \"#utility.yul\":2188:2357   */\n  swap3\n  swap2\n  pop\n  pop\n  jump\t// out\n    /* \"#utility.yul\":2363:2526   */\ntag_30:\n    /* \"#utility.yul\":2503:2518   */\n  0x496e76616c696420746f6b656e00000000000000000000000000000000000000\n    /* \"#utility.yul\":2499:2500   */\n  0x00\n    /* \"#utility.yul\":2491:2497   */\n  dup3\n    /* \"#utility.yul\":2487:2501   */\n  add\n    /* \"#utility.yul\":2480:2519   */\n  mstore\n    /* \"#utility.yul\":2363:2526   */\n  pop\n  jump\t// out\n    /* \"#utility.yul\":2532:2898   */\ntag_31:\n    /* \"#utility.yul\":2674:2677   */\n  0x00\n    /* \"#utility.yul\":2695:2762   */\n  tag_65\n    /* \"#utility.yul\":2759:2761   */\n  0x0d\n    /* \"#utility.yul\":2754:2757   */\n  dup4\n    /* \"#utility.yul\":2695:2762   */\n  tag_29\n  jump\t// in\ntag_65:\n    /* \"#utility.yul\":2688:2762   */\n  swap2\n  pop\n    /* \"#utility.yul\":2771:2864   */\n  tag_66\n    /* \"#utility.yul\":2860:2863   */\n  dup3\n    /* \"#utility.yul\":2771:2864   */\n  tag_30\n  jump\t// in\ntag_66:\n    /* \"#utility.yul\":2889:2891   */\n  0x20\n    /* \"#utility.yul\":2884:2887   */\n  dup3\n    /* \"#utility.yul\":2880:2892   */\n  add\n    /* \"#utility.yul\":2873:2892   */\n  swap1\n  pop\n    /* \"#utility.yul\":2532:2898   */\n  swap2\n  swap1\n  pop\n  jump\t// out\n    /* \"#utility.yul\":2904:3323   */\ntag_10:\n    /* \"#utility.yul\":3070:3074   */\n  0x00\n    /* \"#utility.yul\":3108:3110   */\n  0x20\n    /* \"#utility.yul\":3097:3106   */\n  dup3\n    /* \"#utility.yul\":3093:3111   */\n  add\n    /* \"#utility.yul\":3085:3111   */\n  swap1\n  pop\n    /* \"#utility.yul\":3157:3166   */\n  dup2\n    /* \"#utility.yul\":3151:3155   */\n  dup2\n    /* \"#utility.yul\":3147:3167   */\n  sub\n    /* \"#utility.yul\":3143:3144   */\n  0x00\n    /* \"#utility.yul\":3132:3141   */\n  dup4\n    /* \"#utility.yul\":3128:3145   */\n  add\n    /* \"#utility.yul\":3121:3168   */\n  mstore\n    /* \"#utility.yul\":3185:3316   */\n  tag_68\n    /* \"#utility.yul\":3311:3315   */\n  dup2\n    /* \"#utility.yul\":3185:3316   */\n  tag_31\n  jump\t// in\ntag_68:\n    /* \"#utility.yul\":3177:3316   */\n  swap1\n  pop\n    /* \"#utility.yul\":2904:3323   */\n  swap2\n  swap1\n  pop\n  jump\t// out\n    /* \"#utility.yul\":3329:3495   */\ntag_32:\n    /* \"#utility.yul\":3469:3487   */\n  0x496e76616c6964206475726174696f6e00000000000000000000000000000000\n    /* \"#utility.yul\":3465:3466   */\n  0x00\n    /* \"#utility.yul\":3457:3463   */\n  dup3\n    /* \"#utility.yul\":3453:3467   */\n  add\n    /* \"#utility.yul\":3446:3488   */\n  mstore\n    /* \"#utility.yul\":3329:3495   */\n  pop\n  jump\t// out\n    /* \"#utility.yul\":3501:3867   */\ntag_33:\n    /* \"#utility.yul\":3643:3646   */\n  0x00\n    /* \"#utility.yul\":3664:3731   */\n  tag_71\n    /* \"#utility.yul\":3728:3730   */\n  0x10\n    /* \"#utility.yul\":3723:3726   */\n  dup4\n    /* \"#utility.yul\":3664:3731   */\n  tag_29\n  jump\t// in\ntag_71:\n    /* \"#utility.yul\":3657:3731   */\n  swap2\n  pop\n    /* \"#utility.yul\":3740:3833   */\n  tag_72\n    /* \"#utility.yul\":3829:3832   */\n  dup3\n    /* \"#utility.yul\":3740:3833   */\n  tag_32\n  jump\t// in\ntag_72:\n    /* \"#utility.yul\":3858:3860   */\n  0x20\n    /* \"#utility.yul\":3853:3856   */\n  dup3\n    /* \"#utility.yul\":3849:3861   */\n  add\n    /* \"#utility.yul\":3842:3861   */\n  swap1\n  pop\n    /* \"#utility.yul\":3501:3867   */\n  swap2\n  swap1\n  pop\n  jump\t// out\n    /* \"#utility.yul\":3873:4292   */\ntag_13:\n    /* \"#utility.yul\":4039:4043   */\n  0x00\n    /* \"#utility.yul\":4077:4079   */\n  0x20\n    /* \"#utility.yul\":4066:4075   */\n  dup3\n    /* \"#utility.yul\":4062:4080   */\n  add\n    /* \"#utility.yul\":4054:4080   */\n  swap1\n  pop\n    /* \"#utility.yul\":4126:4135   */\n  dup2\n    /* \"#utility.yul\":4120:4124   */\n  dup2\n    /* \"#utility.yul\":4116:4136   */\n  sub\n    /* \"#utility.yul\":4112:4113   */\n  0x00\n    /* \"#utility.yul\":4101:4110   */\n  dup4\n    /* \"#utility.yul\":4097:4114   */\n  add\n    /* \"#utility.yul\":4090:4137   */\n  mstore\n    /* \"#utility.yul\":4154:4285   */\n  tag_74\n    /* \"#utility.yul\":4280:4284   */\n  dup2\n    /* \"#utility.yul\":4154:4285   */\n  tag_33\n  jump\t// in\ntag_74:\n    /* \"#utility.yul\":4146:4285   */\n  swap1\n  pop\n    /* \"#utility.yul\":3873:4292   */\n  swap2\n  swap1\n  pop\n  jump\t// out\n    /* \"#utility.yul\":4298:4462   */\ntag_34:\n    /* \"#utility.yul\":4438:4454   */\n  0x496e76616c69642071756f72756d000000000000000000000000000000000000\n    /* \"#utility.yul\":4434:4435   */\n  0x00\n    /* \"#utility.yul\":4426:4432   */\n  dup3\n    /* \"#utility.yul\":4422:4436   */\n  add\n    /* \"#utility.yul\":4415:4455   */\n  mstore\n    /* \"#utility.yul\":4298:4462   */\n  pop\n  jump\t// out\n    /* \"#utility.yul\":4468:4834   */\ntag_35:\n    /* \"#utility.yul\":4610:4613   */\n  0x00\n    /* \"#utility.yul\":4631:4698   */\n  tag_77\n    /* \"#utility.yul\":4695:4697   */\n  0x0e\n    /* \"#utility.yul\":4690:4693   */\n  dup4\n    /* \"#utility.yul\":4631:4698   */\n  tag_29\n  jump\t// in\ntag_77:\n    /* \"#utility.yul\":4624:4698   */\n  swap2\n  pop\n    /* \"#utility.yul\":4707:4800   */\n  tag_78\n    /* \"#utility.yul\":4796:4799   */\n  dup3\n    /* \"#utility.yul\":4707:4800   */\n  tag_34\n  jump\t// in\ntag_78:\n    /* \"#utility.yul\":4825:4827   */\n  0x20\n    /* \"#utility.yul\":4820:4823   */\n  dup3\n    /* \"#utility.yul\":4816:4828   */\n  add\n    /* \"#utility.yul\":4809:4828   */\n  swap1\n  pop\n    /* \"#utility.yul\":4468:4834   */\n  swap2\n  swap1\n  pop\n  jump\t// out\n    /* \"#utility.yul\":4840:5259   */\ntag_17:\n    /* \"#utility.yul\":5006:5010   */\n  0x00\n    /* \"#utility.yul\":5044:5046   */\n  0x20\n    /* \"#utility.yul\":5033:5042   */\n  dup3\n    /* \"#utility.yul\":5029:5047   */\n  add\n    /* \"#utility.yul\":5021:5047   */\n  swap1\n  pop\n    /* \"#utility.yul\":5093:5102   */\n  dup2\n    /* \"#utility.yul\":5087:5091   */\n  dup2\n    /* \"#utility.yul\":5083:5103   */\n  sub\n    /* \"#utility.yul\":5079:5080   */\n  0x00\n    /* \"#utility.yul\":5068:5077   */\n  dup4\n    /* \"#utility.yul\":5064:5081   */\n  add\n    /* \"#utility.yul\":5057:5104   */\n  mstore\n    /* \"#utility.yul\":5121:5252   */\n  tag_80\n    /* \"#utility.yul\":5247:5251   */\n  dup2\n    /* \"#utility.yul\":5121:5252   */\n  tag_35\n  jump\t// in\ntag_80:\n    /* \"#utility.yul\":5113:5252   */\n  swap1\n  pop\n    /* \"#utility.yul\":4840:5259   */\n  swap2\n  swap1\n  pop\n  jump\t// out\n    /* \"submissions/Zora/DecentralizedGovernance.sol\":243:7349  contract DecentralizedGovernance is ReentrancyGuard {... */\ntag_18:\n  dataSize(sub_0)\n  dup1\n  dataOffset(sub_0)\n  0x00\n  codecopy\n  0x00\n  return\nstop\n\nsub_0: assembly {\n        /* \"submissions/Zora/DecentralizedGovernance.sol\":243:7349  contract DecentralizedGovernance is ReentrancyGuard {... */\n      mstore(0x40, 0x80)\n      callvalue\n      dup1\n      iszero\n      tag_1\n      jumpi\n      revert(0x00, 0x00)\n    tag_1:\n      pop\n      jumpi(tag_2, lt(calldatasize, 0x04))\n      shr(0xe0, calldataload(0x00))\n      dup1\n      0x43859632\n      gt\n      tag_20\n      jumpi\n      dup1\n      0xaf42d03a\n      gt\n      tag_21\n      jumpi\n      dup1\n      0xaf42d03a\n      eq\n      tag_15\n      jumpi\n      dup1\n      0xc9d27afe\n      eq\n      tag_16\n      jumpi\n      dup1\n      0xf851a440\n      eq\n      tag_17\n      jumpi\n      dup1\n      0xf91f88f7\n      eq\n      tag_18\n      jumpi\n      dup1\n      0xf96dae0a\n      eq\n      tag_19\n      jumpi\n      jump(tag_2)\n    tag_21:\n      dup1\n      0x43859632\n      eq\n      tag_11\n      jumpi\n      dup1\n      0x49c2a1a6\n      eq\n      tag_12\n      jumpi\n      dup1\n      0x4fa76ec9\n      eq\n      tag_13\n      jumpi\n      dup1\n      0x5652077c\n      eq\n      tag_14\n      jumpi\n      jump(tag_2)\n    tag_20:\n      dup1\n      0x150fea09\n      gt\n      tag_22\n      jumpi\n      dup1\n      0x150fea09\n      eq\n      tag_7\n      jumpi\n      dup1\n      0x2ab09d14\n      eq\n      tag_8\n      jumpi\n      dup1\n      0x2bbca157\n      eq\n      tag_9\n      jumpi\n      dup1\n      0x32f6a1dc\n      eq\n      tag_10\n      jumpi\n      jump(tag_2)\n    tag_22:\n      dup1\n      0x013cf08b\n      eq\n      tag_3\n      jumpi\n      dup1\n      0x0d61b519\n      eq\n      tag_4\n      jumpi\n      dup1\n      0x0e7ca9e3\n      eq\n      tag_5\n      jumpi\n      dup1\n      0x132002fc\n      eq\n      tag_6\n      jumpi\n    tag_2:\n      revert(0x00, 0x00)\n        /* \"submissions/Zora/DecentralizedGovernance.sol\":718:763  mapping(uint256 => Proposal) public proposals */\n    tag_3:\n      tag_23\n      0x04\n      dup1\n      calldatasize\n      sub\n      dup2\n      add\n      swap1\n      tag_24\n      swap2\n      swap1\n      tag_25\n      jump\t// in\n    tag_24:\n      tag_26\n      jump\t// in\n    tag_23:\n      mload(0x40)\n      tag_27\n      swap10\n      swap9\n      swap8\n      swap7\n      swap6\n      swap5\n      swap4\n      swap3\n      swap2\n      swap1\n      tag_28\n      jump\t// in\n    tag_27:\n      mload(0x40)\n      dup1\n      swap2\n      sub\n      swap1\n      return\n        /* \"submissions/Zora/DecentralizedGovernance.sol\":6129:6625  function executeProposal(uint256 proposalId) external {... */\n    tag_4:\n      tag_29\n      0x04\n      dup1\n      calldatasize\n      sub\n      dup2\n      add\n      swap1\n      tag_30\n      swap2\n      swap1\n      tag_25\n      jump\t// in\n    tag_30:\n      tag_31\n      jump\t// in\n    tag_29:\n      stop\n        /* \"submissions/Zora/DecentralizedGovernance.sol\":1170:1206  uint256 public proposalDepositAmount */\n    tag_5:\n      tag_32\n      tag_33\n      jump\t// in\n    tag_32:\n      mload(0x40)\n      tag_34\n      swap2\n      swap1\n      tag_35\n      jump\t// in\n    tag_34:\n      mload(0x40)\n      dup1\n      swap2\n      sub\n      swap1\n      return\n        /* \"submissions/Zora/DecentralizedGovernance.sol\":937:966  uint256 public votingDuration */\n    tag_6:\n      tag_36\n      tag_37\n      jump\t// in\n    tag_36:\n      mload(0x40)\n      tag_38\n      swap2\n      swap1\n      tag_35\n      jump\t// in\n    tag_38:\n      mload(0x40)\n      dup1\n      swap2\n      sub\n      swap1\n      return\n        /* \"submissions/Zora/DecentralizedGovernance.sol\":3049:3225  function setTimelockDuration(uint256 _timelockDuration) external onlyAdmin {... */\n    tag_7:\n      tag_39\n      0x04\n      dup1\n      calldatasize\n      sub\n      dup2\n      add\n      swap1\n      tag_40\n      swap2\n      swap1\n      tag_25\n      jump\t// in\n    tag_40:\n      tag_41\n      jump\t// in\n    tag_39:\n      stop\n        /* \"submissions/Zora/DecentralizedGovernance.sol\":901:930  uint256 public nextProposalId */\n    tag_8:\n      tag_42\n      tag_43\n      jump\t// in\n    tag_42:\n      mload(0x40)\n      tag_44\n      swap2\n      swap1\n      tag_35\n      jump\t// in\n    tag_44:\n      mload(0x40)\n      dup1\n      swap2\n      sub\n      swap1\n      return\n        /* \"submissions/Zora/DecentralizedGovernance.sol\":973:1004  uint256 public timelockDuration */\n    tag_9:\n      tag_45\n      tag_46\n      jump\t// in\n    tag_45:\n      mload(0x40)\n      tag_47\n      swap2\n      swap1\n      tag_35\n      jump\t// in\n    tag_47:\n      mload(0x40)\n      dup1\n      swap2\n      sub\n      swap1\n      return\n        /* \"submissions/Zora/DecentralizedGovernance.sol\":2662:2883  function setQuorumPercentage(uint256 _quorumPercentage) external onlyAdmin {... */\n    tag_10:\n      tag_48\n      0x04\n      dup1\n      calldatasize\n      sub\n      dup2\n      add\n      swap1\n      tag_49\n      swap2\n      swap1\n      tag_25\n      jump\t// in\n    tag_49:\n      tag_50\n      jump\t// in\n    tag_48:\n      stop\n        /* \"submissions/Zora/DecentralizedGovernance.sol\":832:892  mapping(uint256 => mapping(address => bool)) public hasVoted */\n    tag_11:\n      tag_51\n      0x04\n      dup1\n      calldatasize\n      sub\n      dup2\n      add\n      swap1\n      tag_52\n      swap2\n      swap1\n      tag_53\n      jump\t// in\n    tag_52:\n      tag_54\n      jump\t// in\n    tag_51:\n      mload(0x40)\n      tag_55\n      swap2\n      swap1\n      tag_56\n      jump\t// in\n    tag_55:\n      mload(0x40)\n      dup1\n      swap2\n      sub\n      swap1\n      return\n        /* \"submissions/Zora/DecentralizedGovernance.sol\":3252:4127  function createProposal(string memory description) external returns (uint256) {... */\n    tag_12:\n      tag_57\n      0x04\n      dup1\n      calldatasize\n      sub\n      dup2\n      add\n      swap1\n      tag_58\n      swap2\n      swap1\n      tag_59\n      jump\t// in\n    tag_58:\n      tag_60\n      jump\t// in\n    tag_57:\n      mload(0x40)\n      tag_61\n      swap2\n      swap1\n      tag_35\n      jump\t// in\n    tag_61:\n      mload(0x40)\n      dup1\n      swap2\n      sub\n      swap1\n      return\n        /* \"submissions/Zora/DecentralizedGovernance.sol\":1082:1113  uint256 public quorumPercentage */\n    tag_13:\n      tag_62\n      tag_63\n      jump\t// in\n    tag_62:\n      mload(0x40)\n      tag_64\n      swap2\n      swap1\n      tag_35\n      jump\t// in\n    tag_64:\n      mload(0x40)\n      dup1\n      swap2\n      sub\n      swap1\n      return\n        /* \"submissions/Zora/DecentralizedGovernance.sol\":5025:6100  function finalizeProposal(uint256 proposalId) external {... */\n    tag_14:\n      tag_65\n      0x04\n      dup1\n      calldatasize\n      sub\n      dup2\n      add\n      swap1\n      tag_66\n      swap2\n      swap1\n      tag_25\n      jump\t// in\n    tag_66:\n      tag_67\n      jump\t// in\n    tag_65:\n      stop\n        /* \"submissions/Zora/DecentralizedGovernance.sol\":2891:3041  function setProposalDepositAmount(uint256 _proposalDepositAmount) external onlyAdmin {... */\n    tag_15:\n      tag_68\n      0x04\n      dup1\n      calldatasize\n      sub\n      dup2\n      add\n      swap1\n      tag_69\n      swap2\n      swap1\n      tag_25\n      jump\t// in\n    tag_69:\n      tag_70\n      jump\t// in\n    tag_68:\n      stop\n        /* \"submissions/Zora/DecentralizedGovernance.sol\":4150:4966  function vote(uint256 proposalId, bool support) external {... */\n    tag_16:\n      tag_71\n      0x04\n      dup1\n      calldatasize\n      sub\n      dup2\n      add\n      swap1\n      tag_72\n      swap2\n      swap1\n      tag_73\n      jump\t// in\n    tag_72:\n      tag_74\n      jump\t// in\n    tag_71:\n      stop\n        /* \"submissions/Zora/DecentralizedGovernance.sol\":1055:1075  address public admin */\n    tag_17:\n      tag_75\n      tag_76\n      jump\t// in\n    tag_75:\n      mload(0x40)\n      tag_77\n      swap2\n      swap1\n      tag_78\n      jump\t// in\n    tag_77:\n      mload(0x40)\n      dup1\n      swap2\n      sub\n      swap1\n      return\n        /* \"submissions/Zora/DecentralizedGovernance.sol\":6948:7344  function getProposalResult(uint256 proposalId) external view returns (... */\n    tag_18:\n      tag_79\n      0x04\n      dup1\n      calldatasize\n      sub\n      dup2\n      add\n      swap1\n      tag_80\n      swap2\n      swap1\n      tag_25\n      jump\t// in\n    tag_80:\n      tag_81\n      jump\t// in\n    tag_79:\n      mload(0x40)\n      tag_82\n      swap5\n      swap4\n      swap3\n      swap2\n      swap1\n      tag_83\n      jump\t// in\n    tag_82:\n      mload(0x40)\n      dup1\n      swap2\n      sub\n      swap1\n      return\n        /* \"submissions/Zora/DecentralizedGovernance.sol\":335:364  IERC20 public governanceToken */\n    tag_19:\n      tag_84\n      tag_85\n      jump\t// in\n    tag_84:\n      mload(0x40)\n      tag_86\n      swap2\n      swap1\n      tag_87\n      jump\t// in\n    tag_86:\n      mload(0x40)\n      dup1\n      swap2\n      sub\n      swap1\n      return\n        /* \"submissions/Zora/DecentralizedGovernance.sol\":718:763  mapping(uint256 => Proposal) public proposals */\n    tag_26:\n      mstore(0x20, 0x02)\n      dup1\n      0x00\n      mstore\n      keccak256(0x00, 0x40)\n      0x00\n      swap2\n      pop\n      swap1\n      pop\n      dup1\n      0x00\n      add\n      0x00\n      swap1\n      sload\n      swap1\n      0x0100\n      exp\n      swap1\n      div\n      0xffffffffffffffffffffffffffffffffffffffff\n      and\n      swap1\n      dup1\n      0x01\n      add\n      dup1\n      sload\n      tag_88\n      swap1\n      tag_89\n      jump\t// in\n    tag_88:\n      dup1\n      0x1f\n      add\n      0x20\n      dup1\n      swap2\n      div\n      mul\n      0x20\n      add\n      mload(0x40)\n      swap1\n      dup2\n      add\n      0x40\n      mstore\n      dup1\n      swap3\n      swap2\n      swap1\n      dup2\n      dup2\n      mstore\n      0x20\n      add\n      dup3\n      dup1\n      sload\n      tag_90\n      swap1\n      tag_89\n      jump\t// in\n    tag_90:\n      dup1\n      iszero\n      tag_91\n      jumpi\n      dup1\n      0x1f\n      lt\n      tag_92\n      jumpi\n      0x0100\n      dup1\n      dup4\n      sload\n      div\n      mul\n      dup4\n      mstore\n      swap2\n      0x20\n      add\n      swap2\n      jump(tag_91)\n    tag_92:\n      dup3\n      add\n      swap2\n      swap1\n      0x00\n      mstore\n      keccak256(0x00, 0x20)\n      swap1\n    tag_93:\n      dup2\n      sload\n      dup2\n      mstore\n      swap1\n      0x01\n      add\n      swap1\n      0x20\n      add\n      dup1\n      dup4\n      gt\n      tag_93\n      jumpi\n      dup3\n      swap1\n      sub\n      0x1f\n      and\n      dup3\n      add\n      swap2\n    tag_91:\n      pop\n      pop\n      pop\n      pop\n      pop\n      swap1\n      dup1\n      0x02\n      add\n      sload\n      swap1\n      dup1\n      0x03\n      add\n      sload\n      swap1\n      dup1\n      0x04\n      add\n      sload\n      swap1\n      dup1\n      0x05\n      add\n      sload\n      swap1\n      dup1\n      0x06\n      add\n      0x00\n      swap1\n      sload\n      swap1\n      0x0100\n      exp\n      swap1\n      div\n      0xff\n      and\n      swap1\n      dup1\n      0x06\n      add\n      0x01\n      swap1\n      sload\n      swap1\n      0x0100\n      exp\n      swap1\n      div\n      0xff\n      and\n      swap1\n      dup1\n      0x07\n      add\n      sload\n      swap1\n      pop\n      dup10\n      jump\t// out\n        /* \"submissions/Zora/DecentralizedGovernance.sol\":6129:6625  function executeProposal(uint256 proposalId) external {... */\n    tag_31:\n        /* \"submissions/Zora/DecentralizedGovernance.sol\":6194:6219  Proposal storage proposal */\n      0x00\n        /* \"submissions/Zora/DecentralizedGovernance.sol\":6222:6231  proposals */\n      0x02\n        /* \"submissions/Zora/DecentralizedGovernance.sol\":6222:6243  proposals[proposalId] */\n      0x00\n        /* \"submissions/Zora/DecentralizedGovernance.sol\":6232:6242  proposalId */\n      dup4\n        /* \"submissions/Zora/DecentralizedGovernance.sol\":6222:6243  proposals[proposalId] */\n      dup2\n      mstore\n      0x20\n      add\n      swap1\n      dup2\n      mstore\n      0x20\n      add\n      0x00\n      keccak256\n        /* \"submissions/Zora/DecentralizedGovernance.sol\":6194:6243  Proposal storage proposal = proposals[proposalId] */\n      swap1\n      pop\n        /* \"submissions/Zora/DecentralizedGovernance.sol\":6287:6288  0 */\n      0x00\n        /* \"submissions/Zora/DecentralizedGovernance.sol\":6264:6272  proposal */\n      dup2\n        /* \"submissions/Zora/DecentralizedGovernance.sol\":6264:6284  proposal.timelockEnd */\n      0x07\n      add\n      sload\n        /* \"submissions/Zora/DecentralizedGovernance.sol\":6264:6288  proposal.timelockEnd > 0 */\n      gt\n        /* \"submissions/Zora/DecentralizedGovernance.sol\":6256:6308  require(proposal.timelockEnd > 0, \"No timelock set\") */\n      tag_95\n      jumpi\n      mload(0x40)\n      0x08c379a000000000000000000000000000000000000000000000000000000000\n      dup2\n      mstore\n      0x04\n      add\n      tag_96\n      swap1\n      tag_97\n      jump\t// in\n    tag_96:\n      mload(0x40)\n      dup1\n      swap2\n      sub\n      swap1\n      revert\n    tag_95:\n        /* \"submissions/Zora/DecentralizedGovernance.sol\":6346:6354  proposal */\n      dup1\n        /* \"submissions/Zora/DecentralizedGovernance.sol\":6346:6366  proposal.timelockEnd */\n      0x07\n      add\n      sload\n        /* \"submissions/Zora/DecentralizedGovernance.sol\":6327:6342  block.timestamp */\n      timestamp\n        /* \"submissions/Zora/DecentralizedGovernance.sol\":6327:6366  block.timestamp >= proposal.timelockEnd */\n      lt\n      iszero\n        /* \"submissions/Zora/DecentralizedGovernance.sol\":6319:6389  require(block.timestamp >= proposal.timelockEnd, \"Timelock not ended\") */\n      tag_98\n      jumpi\n      mload(0x40)\n      0x08c379a000000000000000000000000000000000000000000000000000000000\n      dup2\n      mstore\n      0x04\n      add\n      tag_99\n      swap1\n      tag_100\n      jump\t// in\n    tag_99:\n      mload(0x40)\n      dup1\n      swap2\n      sub\n      swap1\n      revert\n    tag_98:\n        /* \"submissions/Zora/DecentralizedGovernance.sol\":6409:6417  proposal */\n      dup1\n        /* \"submissions/Zora/DecentralizedGovernance.sol\":6409:6426  proposal.executed */\n      0x06\n      add\n      0x00\n      swap1\n      sload\n      swap1\n      0x0100\n      exp\n      swap1\n      div\n      0xff\n      and\n        /* \"submissions/Zora/DecentralizedGovernance.sol\":6408:6426  !proposal.executed */\n      iszero\n        /* \"submissions/Zora/DecentralizedGovernance.sol\":6400:6447  require(!proposal.executed, \"Already executed\") */\n      tag_101\n      jumpi\n      mload(0x40)\n      0x08c379a000000000000000000000000000000000000000000000000000000000\n      dup2\n      mstore\n      0x04\n      add\n      tag_102\n      swap1\n      tag_103\n      jump\t// in\n    tag_102:\n      mload(0x40)\n      dup1\n      swap2\n      sub\n      swap1\n      revert\n    tag_101:\n        /* \"submissions/Zora/DecentralizedGovernance.sol\":6467:6475  proposal */\n      dup1\n        /* \"submissions/Zora/DecentralizedGovernance.sol\":6467:6484  proposal.canceled */\n      0x06\n      add\n      0x01\n      swap1\n      sload\n      swap1\n      0x0100\n      exp\n      swap1\n      div\n      0xff\n      and\n        /* \"submissions/Zora/DecentralizedGovernance.sol\":6466:6484  !proposal.canceled */\n      iszero\n        /* \"submissions/Zora/DecentralizedGovernance.sol\":6458:6497  require(!proposal.canceled, \"Canceled\") */\n      tag_104\n      jumpi\n      mload(0x40)\n      0x08c379a000000000000000000000000000000000000000000000000000000000\n      dup2\n      mstore\n      0x04\n      add\n      tag_105\n      swap1\n      tag_106\n      jump\t// in\n    tag_105:\n      mload(0x40)\n      dup1\n      swap2\n      sub\n      swap1\n      revert\n    tag_104:\n        /* \"submissions/Zora/DecentralizedGovernance.sol\":6530:6534  true */\n      0x01\n        /* \"submissions/Zora/DecentralizedGovernance.sol\":6510:6518  proposal */\n      dup2\n        /* \"submissions/Zora/DecentralizedGovernance.sol\":6510:6527  proposal.executed */\n      0x06\n      add\n      0x00\n        /* \"submissions/Zora/DecentralizedGovernance.sol\":6510:6534  proposal.executed = true */\n      0x0100\n      exp\n      dup2\n      sload\n      dup2\n      0xff\n      mul\n      not\n      and\n      swap1\n      dup4\n      iszero\n      iszero\n      mul\n      or\n      swap1\n      sstore\n      pop\n        /* \"submissions/Zora/DecentralizedGovernance.sol\":6545:6571  _refundDeposit(proposalId) */\n      tag_107\n        /* \"submissions/Zora/DecentralizedGovernance.sol\":6560:6570  proposalId */\n      dup3\n        /* \"submissions/Zora/DecentralizedGovernance.sol\":6545:6559  _refundDeposit */\n      tag_108\n        /* \"submissions/Zora/DecentralizedGovernance.sol\":6545:6571  _refundDeposit(proposalId) */\n      jump\t// in\n    tag_107:\n        /* \"submissions/Zora/DecentralizedGovernance.sol\":6606:6616  proposalId */\n      dup2\n        /* \"submissions/Zora/DecentralizedGovernance.sol\":6589:6617  ProposalExecuted(proposalId) */\n      0x712ae1383f79ac853f8d882153778e0260ef8f03b504e2866e0593e04d2b291f\n      mload(0x40)\n      mload(0x40)\n      dup1\n      swap2\n      sub\n      swap1\n      log2\n        /* \"submissions/Zora/DecentralizedGovernance.sol\":6183:6625  {... */\n      pop\n        /* \"submissions/Zora/DecentralizedGovernance.sol\":6129:6625  function executeProposal(uint256 proposalId) external {... */\n      pop\n      jump\t// out\n        /* \"submissions/Zora/DecentralizedGovernance.sol\":1170:1206  uint256 public proposalDepositAmount */\n    tag_33:\n      sload(0x09)\n      dup2\n      jump\t// out\n        /* \"submissions/Zora/DecentralizedGovernance.sol\":937:966  uint256 public votingDuration */\n    tag_37:\n      sload(0x05)\n      dup2\n      jump\t// out\n        /* \"submissions/Zora/DecentralizedGovernance.sol\":3049:3225  function setTimelockDuration(uint256 _timelockDuration) external onlyAdmin {... */\n    tag_41:\n        /* \"submissions/Zora/DecentralizedGovernance.sol\":1906:1911  admin */\n      0x07\n      0x00\n      swap1\n      sload\n      swap1\n      0x0100\n      exp\n      swap1\n      div\n      0xffffffffffffffffffffffffffffffffffffffff\n      and\n        /* \"submissions/Zora/DecentralizedGovernance.sol\":1892:1911  msg.sender == admin */\n      0xffffffffffffffffffffffffffffffffffffffff\n      and\n        /* \"submissions/Zora/DecentralizedGovernance.sol\":1892:1902  msg.sender */\n      caller\n        /* \"submissions/Zora/DecentralizedGovernance.sol\":1892:1911  msg.sender == admin */\n      0xffffffffffffffffffffffffffffffffffffffff\n      and\n      eq\n        /* \"submissions/Zora/DecentralizedGovernance.sol\":1884:1925  require(msg.sender == admin, \"Not admin\") */\n      tag_110\n      jumpi\n      mload(0x40)\n      0x08c379a000000000000000000000000000000000000000000000000000000000\n      dup2\n      mstore\n      0x04\n      add\n      tag_111\n      swap1\n      tag_112\n      jump\t// in\n    tag_111:\n      mload(0x40)\n      dup1\n      swap2\n      sub\n      swap1\n      revert\n    tag_110:\n        /* \"submissions/Zora/DecentralizedGovernance.sol\":3154:3171  _timelockDuration */\n      dup1\n        /* \"submissions/Zora/DecentralizedGovernance.sol\":3135:3151  timelockDuration */\n      0x06\n        /* \"submissions/Zora/DecentralizedGovernance.sol\":3135:3171  timelockDuration = _timelockDuration */\n      dup2\n      swap1\n      sstore\n      pop\n        /* \"submissions/Zora/DecentralizedGovernance.sol\":3187:3217  TimelockSet(_timelockDuration) */\n      0x980b903efea70e6b1bd235b1fb05f1a5da73cbd478b73c9538053f9eb29f129f\n        /* \"submissions/Zora/DecentralizedGovernance.sol\":3199:3216  _timelockDuration */\n      dup2\n        /* \"submissions/Zora/DecentralizedGovernance.sol\":3187:3217  TimelockSet(_timelockDuration) */\n      mload(0x40)\n      tag_114\n      swap2\n      swap1\n      tag_35\n      jump\t// in\n    tag_114:\n      mload(0x40)\n      dup1\n      swap2\n      sub\n      swap1\n      log1\n        /* \"submissions/Zora/DecentralizedGovernance.sol\":3049:3225  function setTimelockDuration(uint256 _timelockDuration) external onlyAdmin {... */\n      pop\n      jump\t// out\n        /* \"submissions/Zora/DecentralizedGovernance.sol\":901:930  uint256 public nextProposalId */\n    tag_43:\n      sload(0x04)\n      dup2\n      jump\t// out\n        /* \"submissions/Zora/DecentralizedGovernance.sol\":973:1004  uint256 public timelockDuration */\n    tag_46:\n      sload(0x06)\n      dup2\n      jump\t// out\n        /* \"submissions/Zora/DecentralizedGovernance.sol\":2662:2883  function setQuorumPercentage(uint256 _quorumPercentage) external onlyAdmin {... */\n    tag_50:\n        /* \"submissions/Zora/DecentralizedGovernance.sol\":1906:1911  admin */\n      0x07\n      0x00\n      swap1\n      sload\n      swap1\n      0x0100\n      exp\n      swap1\n      div\n      0xffffffffffffffffffffffffffffffffffffffff\n      and\n        /* \"submissions/Zora/DecentralizedGovernance.sol\":1892:1911  msg.sender == admin */\n      0xffffffffffffffffffffffffffffffffffffffff\n      and\n        /* \"submissions/Zora/DecentralizedGovernance.sol\":1892:1902  msg.sender */\n      caller\n        /* \"submissions/Zora/DecentralizedGovernance.sol\":1892:1911  msg.sender == admin */\n      0xffffffffffffffffffffffffffffffffffffffff\n      and\n      eq\n        /* \"submissions/Zora/DecentralizedGovernance.sol\":1884:1925  require(msg.sender == admin, \"Not admin\") */\n      tag_116\n      jumpi\n      mload(0x40)\n      0x08c379a000000000000000000000000000000000000000000000000000000000\n      dup2\n      mstore\n      0x04\n      add\n      tag_117\n      swap1\n      tag_112\n      jump\t// in\n    tag_117:\n      mload(0x40)\n      dup1\n      swap2\n      sub\n      swap1\n      revert\n    tag_116:\n        /* \"submissions/Zora/DecentralizedGovernance.sol\":2777:2780  100 */\n      0x64\n        /* \"submissions/Zora/DecentralizedGovernance.sol\":2756:2773  _quorumPercentage */\n      dup2\n        /* \"submissions/Zora/DecentralizedGovernance.sol\":2756:2780  _quorumPercentage <= 100 */\n      gt\n      iszero\n        /* \"submissions/Zora/DecentralizedGovernance.sol\":2748:2828  require(_quorumPercentage <= 100, \"Quorum percentage must be between 0 and 100\") */\n      tag_119\n      jumpi\n      mload(0x40)\n      0x08c379a000000000000000000000000000000000000000000000000000000000\n      dup2\n      mstore\n      0x04\n      add\n      tag_120\n      swap1\n      tag_121\n      jump\t// in\n    tag_120:\n      mload(0x40)\n      dup1\n      swap2\n      sub\n      swap1\n      revert\n    tag_119:\n        /* \"submissions/Zora/DecentralizedGovernance.sol\":2858:2875  _quorumPercentage */\n      dup1\n        /* \"submissions/Zora/DecentralizedGovernance.sol\":2839:2855  quorumPercentage */\n      0x08\n        /* \"submissions/Zora/DecentralizedGovernance.sol\":2839:2875  quorumPercentage = _quorumPercentage */\n      dup2\n      swap1\n      sstore\n      pop\n        /* \"submissions/Zora/DecentralizedGovernance.sol\":2662:2883  function setQuorumPercentage(uint256 _quorumPercentage) external onlyAdmin {... */\n      pop\n      jump\t// out\n        /* \"submissions/Zora/DecentralizedGovernance.sol\":832:892  mapping(uint256 => mapping(address => bool)) public hasVoted */\n    tag_54:\n      mstore(0x20, 0x03)\n      dup2\n      0x00\n      mstore\n      mstore(0x20, keccak256(0x00, 0x40))\n      dup1\n      0x00\n      mstore\n      keccak256(0x00, 0x40)\n      0x00\n      swap2\n      pop\n      swap2\n      pop\n      swap1\n      sload\n      swap1\n      0x0100\n      exp\n      swap1\n      div\n      0xff\n      and\n      dup2\n      jump\t// out\n        /* \"submissions/Zora/DecentralizedGovernance.sol\":3252:4127  function createProposal(string memory description) external returns (uint256) {... */\n    tag_60:\n        /* \"submissions/Zora/DecentralizedGovernance.sol\":3321:3328  uint256 */\n      0x00\n        /* \"submissions/Zora/DecentralizedGovernance.sol\":3377:3378  0 */\n      0x00\n        /* \"submissions/Zora/DecentralizedGovernance.sol\":3355:3366  description */\n      dup3\n        /* \"submissions/Zora/DecentralizedGovernance.sol\":3349:3374  bytes(description).length */\n      mload\n        /* \"submissions/Zora/DecentralizedGovernance.sol\":3349:3378  bytes(description).length > 0 */\n      gt\n        /* \"submissions/Zora/DecentralizedGovernance.sol\":3341:3400  require(bytes(description).length > 0, \"Empty description\") */\n      tag_123\n      jumpi\n      mload(0x40)\n      0x08c379a000000000000000000000000000000000000000000000000000000000\n      dup2\n      mstore\n      0x04\n      add\n      tag_124\n      swap1\n      tag_125\n      jump\t// in\n    tag_124:\n      mload(0x40)\n      dup1\n      swap2\n      sub\n      swap1\n      revert\n    tag_123:\n        /* \"submissions/Zora/DecentralizedGovernance.sol\":3480:3481  0 */\n      0x00\n        /* \"submissions/Zora/DecentralizedGovernance.sol\":3456:3477  proposalDepositAmount */\n      sload(0x09)\n        /* \"submissions/Zora/DecentralizedGovernance.sol\":3456:3481  proposalDepositAmount > 0 */\n      gt\n        /* \"submissions/Zora/DecentralizedGovernance.sol\":3452:3588  if (proposalDepositAmount > 0) {... */\n      iszero\n      tag_126\n      jumpi\n        /* \"submissions/Zora/DecentralizedGovernance.sol\":3498:3513  governanceToken */\n      0x01\n      0x00\n      swap1\n      sload\n      swap1\n      0x0100\n      exp\n      swap1\n      div\n      0xffffffffffffffffffffffffffffffffffffffff\n      and\n        /* \"submissions/Zora/DecentralizedGovernance.sol\":3498:3526  governanceToken.transferFrom */\n      0xffffffffffffffffffffffffffffffffffffffff\n      and\n      0x23b872dd\n        /* \"submissions/Zora/DecentralizedGovernance.sol\":3527:3537  msg.sender */\n      caller\n        /* \"submissions/Zora/DecentralizedGovernance.sol\":3547:3551  this */\n      address\n        /* \"submissions/Zora/DecentralizedGovernance.sol\":3554:3575  proposalDepositAmount */\n      sload(0x09)\n        /* \"submissions/Zora/DecentralizedGovernance.sol\":3498:3576  governanceToken.transferFrom(msg.sender, address(this), proposalDepositAmount) */\n      mload(0x40)\n      dup5\n      0xffffffff\n      and\n      0xe0\n      shl\n      dup2\n      mstore\n      0x04\n      add\n      tag_127\n      swap4\n      swap3\n      swap2\n      swap1\n      tag_128\n      jump\t// in\n    tag_127:\n      0x20\n      mload(0x40)\n      dup1\n      dup4\n      sub\n      dup2\n      0x00\n      dup8\n      gas\n      call\n      iszero\n      dup1\n      iszero\n      tag_130\n      jumpi\n      returndatacopy(0x00, 0x00, returndatasize)\n      revert(0x00, returndatasize)\n    tag_130:\n      pop\n      pop\n      pop\n      pop\n      mload(0x40)\n      returndatasize\n      not(0x1f)\n      0x1f\n      dup3\n      add\n      and\n      dup3\n      add\n      dup1\n      0x40\n      mstore\n      pop\n      dup2\n      add\n      swap1\n      tag_131\n      swap2\n      swap1\n      tag_132\n      jump\t// in\n    tag_131:\n      pop\n        /* \"submissions/Zora/DecentralizedGovernance.sol\":3452:3588  if (proposalDepositAmount > 0) {... */\n    tag_126:\n        /* \"submissions/Zora/DecentralizedGovernance.sol\":3599:3617  uint256 proposalId */\n      0x00\n        /* \"submissions/Zora/DecentralizedGovernance.sol\":3620:3634  nextProposalId */\n      0x04\n      0x00\n        /* \"submissions/Zora/DecentralizedGovernance.sol\":3620:3636  nextProposalId++ */\n      dup2\n      sload\n      dup1\n      swap3\n      swap2\n      swap1\n      tag_133\n      swap1\n      tag_134\n      jump\t// in\n    tag_133:\n      swap2\n      swap1\n      pop\n      sstore\n        /* \"submissions/Zora/DecentralizedGovernance.sol\":3599:3636  uint256 proposalId = nextProposalId++ */\n      swap1\n      pop\n        /* \"submissions/Zora/DecentralizedGovernance.sol\":3675:4012  Proposal({... */\n      mload(0x40)\n      dup1\n      0x0120\n      add\n      0x40\n      mstore\n      dup1\n        /* \"submissions/Zora/DecentralizedGovernance.sol\":3709:3719  msg.sender */\n      caller\n        /* \"submissions/Zora/DecentralizedGovernance.sol\":3675:4012  Proposal({... */\n      0xffffffffffffffffffffffffffffffffffffffff\n      and\n      dup2\n      mstore\n      0x20\n      add\n        /* \"submissions/Zora/DecentralizedGovernance.sol\":3747:3758  description */\n      dup5\n        /* \"submissions/Zora/DecentralizedGovernance.sol\":3675:4012  Proposal({... */\n      dup2\n      mstore\n      0x20\n      add\n        /* \"submissions/Zora/DecentralizedGovernance.sol\":3783:3784  0 */\n      0x00\n        /* \"submissions/Zora/DecentralizedGovernance.sol\":3675:4012  Proposal({... */\n      dup2\n      mstore\n      0x20\n      add\n        /* \"submissions/Zora/DecentralizedGovernance.sol\":3813:3814  0 */\n      0x00\n        /* \"submissions/Zora/DecentralizedGovernance.sol\":3675:4012  Proposal({... */\n      dup2\n      mstore\n      0x20\n      add\n        /* \"submissions/Zora/DecentralizedGovernance.sol\":3840:3855  block.timestamp */\n      timestamp\n        /* \"submissions/Zora/DecentralizedGovernance.sol\":3675:4012  Proposal({... */\n      dup2\n      mstore\n      0x20\n      add\n        /* \"submissions/Zora/DecentralizedGovernance.sol\":3897:3911  votingDuration */\n      sload(0x05)\n        /* \"submissions/Zora/DecentralizedGovernance.sol\":3879:3894  block.timestamp */\n      timestamp\n        /* \"submissions/Zora/DecentralizedGovernance.sol\":3879:3911  block.timestamp + votingDuration */\n      tag_135\n      swap2\n      swap1\n      tag_136\n      jump\t// in\n    tag_135:\n        /* \"submissions/Zora/DecentralizedGovernance.sol\":3675:4012  Proposal({... */\n      dup2\n      mstore\n      0x20\n      add\n        /* \"submissions/Zora/DecentralizedGovernance.sol\":3936:3941  false */\n      0x00\n        /* \"submissions/Zora/DecentralizedGovernance.sol\":3675:4012  Proposal({... */\n      iszero\n      iszero\n      dup2\n      mstore\n      0x20\n      add\n        /* \"submissions/Zora/DecentralizedGovernance.sol\":3966:3971  false */\n      0x00\n        /* \"submissions/Zora/DecentralizedGovernance.sol\":3675:4012  Proposal({... */\n      iszero\n      iszero\n      dup2\n      mstore\n      0x20\n      add\n        /* \"submissions/Zora/DecentralizedGovernance.sol\":3999:4000  0 */\n      0x00\n        /* \"submissions/Zora/DecentralizedGovernance.sol\":3675:4012  Proposal({... */\n      dup2\n      mstore\n      pop\n        /* \"submissions/Zora/DecentralizedGovernance.sol\":3651:3660  proposals */\n      0x02\n        /* \"submissions/Zora/DecentralizedGovernance.sol\":3651:3672  proposals[proposalId] */\n      0x00\n        /* \"submissions/Zora/DecentralizedGovernance.sol\":3661:3671  proposalId */\n      dup4\n        /* \"submissions/Zora/DecentralizedGovernance.sol\":3651:3672  proposals[proposalId] */\n      dup2\n      mstore\n      0x20\n      add\n      swap1\n      dup2\n      mstore\n      0x20\n      add\n      0x00\n      keccak256\n        /* \"submissions/Zora/DecentralizedGovernance.sol\":3651:4012  proposals[proposalId] = Proposal({... */\n      0x00\n      dup3\n      add\n      mload\n      dup2\n      0x00\n      add\n      exp(0x0100, 0x00)\n      dup2\n      sload\n      dup2\n      0xffffffffffffffffffffffffffffffffffffffff\n      mul\n      not\n      and\n      swap1\n      dup4\n      0xffffffffffffffffffffffffffffffffffffffff\n      and\n      mul\n      or\n      swap1\n      sstore\n      pop\n      0x20\n      dup3\n      add\n      mload\n      dup2\n      0x01\n      add\n      swap1\n      dup2\n      tag_137\n      swap2\n      swap1\n      tag_138\n      jump\t// in\n    tag_137:\n      pop\n      0x40\n      dup3\n      add\n      mload\n      dup2\n      0x02\n      add\n      sstore\n      0x60\n      dup3\n      add\n      mload\n      dup2\n      0x03\n      add\n      sstore\n      0x80\n      dup3\n      add\n      mload\n      dup2\n      0x04\n      add\n      sstore\n      0xa0\n      dup3\n      add\n      mload\n      dup2\n      0x05\n      add\n      sstore\n      0xc0\n      dup3\n      add\n      mload\n      dup2\n      0x06\n      add\n      exp(0x0100, 0x00)\n      dup2\n      sload\n      dup2\n      0xff\n      mul\n      not\n      and\n      swap1\n      dup4\n      iszero\n      iszero\n      mul\n      or\n      swap1\n      sstore\n      pop\n      0xe0\n      dup3\n      add\n      mload\n      dup2\n      0x06\n      add\n      exp(0x0100, 0x01)\n      dup2\n      sload\n      dup2\n      0xff\n      mul\n      not\n      and\n      swap1\n      dup4\n      iszero\n      iszero\n      mul\n      or\n      swap1\n      sstore\n      pop\n      0x0100\n      dup3\n      add\n      mload\n      dup2\n      0x07\n      add\n      sstore\n      swap1\n      pop\n      pop\n        /* \"submissions/Zora/DecentralizedGovernance.sol\":4058:4068  msg.sender */\n      caller\n        /* \"submissions/Zora/DecentralizedGovernance.sol\":4030:4082  ProposalCreated(proposalId, msg.sender, description) */\n      0xffffffffffffffffffffffffffffffffffffffff\n      and\n        /* \"submissions/Zora/DecentralizedGovernance.sol\":4046:4056  proposalId */\n      dup2\n        /* \"submissions/Zora/DecentralizedGovernance.sol\":4030:4082  ProposalCreated(proposalId, msg.sender, description) */\n      0x7585f467599d0f008985f231af99293be388626ac16ca59505c2f8f88969cd63\n        /* \"submissions/Zora/DecentralizedGovernance.sol\":4070:4081  description */\n      dup6\n        /* \"submissions/Zora/DecentralizedGovernance.sol\":4030:4082  ProposalCreated(proposalId, msg.sender, description) */\n      mload(0x40)\n      tag_139\n      swap2\n      swap1\n      tag_140\n      jump\t// in\n    tag_139:\n      mload(0x40)\n      dup1\n      swap2\n      sub\n      swap1\n      log3\n        /* \"submissions/Zora/DecentralizedGovernance.sol\":4100:4110  proposalId */\n      dup1\n        /* \"submissions/Zora/DecentralizedGovernance.sol\":4093:4110  return proposalId */\n      swap2\n      pop\n      pop\n        /* \"submissions/Zora/DecentralizedGovernance.sol\":3252:4127  function createProposal(string memory description) external returns (uint256) {... */\n      swap2\n      swap1\n      pop\n      jump\t// out\n        /* \"submissions/Zora/DecentralizedGovernance.sol\":1082:1113  uint256 public quorumPercentage */\n    tag_63:\n      sload(0x08)\n      dup2\n      jump\t// out\n        /* \"submissions/Zora/DecentralizedGovernance.sol\":5025:6100  function finalizeProposal(uint256 proposalId) external {... */\n    tag_67:\n        /* \"submissions/Zora/DecentralizedGovernance.sol\":5091:5116  Proposal storage proposal */\n      0x00\n        /* \"submissions/Zora/DecentralizedGovernance.sol\":5119:5128  proposals */\n      0x02\n        /* \"submissions/Zora/DecentralizedGovernance.sol\":5119:5140  proposals[proposalId] */\n      0x00\n        /* \"submissions/Zora/DecentralizedGovernance.sol\":5129:5139  proposalId */\n      dup4\n        /* \"submissions/Zora/DecentralizedGovernance.sol\":5119:5140  proposals[proposalId] */\n      dup2\n      mstore\n      0x20\n      add\n      swap1\n      dup2\n      mstore\n      0x20\n      add\n      0x00\n      keccak256\n        /* \"submissions/Zora/DecentralizedGovernance.sol\":5091:5140  Proposal storage proposal = proposals[proposalId] */\n      swap1\n      pop\n        /* \"submissions/Zora/DecentralizedGovernance.sol\":5179:5187  proposal */\n      dup1\n        /* \"submissions/Zora/DecentralizedGovernance.sol\":5179:5195  proposal.endTime */\n      0x05\n      add\n      sload\n        /* \"submissions/Zora/DecentralizedGovernance.sol\":5161:5176  block.timestamp */\n      timestamp\n        /* \"submissions/Zora/DecentralizedGovernance.sol\":5161:5195  block.timestamp > proposal.endTime */\n      gt\n        /* \"submissions/Zora/DecentralizedGovernance.sol\":5153:5216  require(block.timestamp > proposal.endTime, \"Voting not ended\") */\n      tag_142\n      jumpi\n      mload(0x40)\n      0x08c379a000000000000000000000000000000000000000000000000000000000\n      dup2\n      mstore\n      0x04\n      add\n      tag_143\n      swap1\n      tag_144\n      jump\t// in\n    tag_143:\n      mload(0x40)\n      dup1\n      swap2\n      sub\n      swap1\n      revert\n    tag_142:\n        /* \"submissions/Zora/DecentralizedGovernance.sol\":5236:5244  proposal */\n      dup1\n        /* \"submissions/Zora/DecentralizedGovernance.sol\":5236:5253  proposal.executed */\n      0x06\n      add\n      0x00\n      swap1\n      sload\n      swap1\n      0x0100\n      exp\n      swap1\n      div\n      0xff\n      and\n        /* \"submissions/Zora/DecentralizedGovernance.sol\":5235:5253  !proposal.executed */\n      iszero\n        /* \"submissions/Zora/DecentralizedGovernance.sol\":5227:5274  require(!proposal.executed, \"Already executed\") */\n      tag_145\n      jumpi\n      mload(0x40)\n      0x08c379a000000000000000000000000000000000000000000000000000000000\n      dup2\n      mstore\n      0x04\n      add\n      tag_146\n      swap1\n      tag_103\n      jump\t// in\n    tag_146:\n      mload(0x40)\n      dup1\n      swap2\n      sub\n      swap1\n      revert\n    tag_145:\n        /* \"submissions/Zora/DecentralizedGovernance.sol\":5294:5302  proposal */\n      dup1\n        /* \"submissions/Zora/DecentralizedGovernance.sol\":5294:5311  proposal.canceled */\n      0x06\n      add\n      0x01\n      swap1\n      sload\n      swap1\n      0x0100\n      exp\n      swap1\n      div\n      0xff\n      and\n        /* \"submissions/Zora/DecentralizedGovernance.sol\":5293:5311  !proposal.canceled */\n      iszero\n        /* \"submissions/Zora/DecentralizedGovernance.sol\":5285:5324  require(!proposal.canceled, \"Canceled\") */\n      tag_147\n      jumpi\n      mload(0x40)\n      0x08c379a000000000000000000000000000000000000000000000000000000000\n      dup2\n      mstore\n      0x04\n      add\n      tag_148\n      swap1\n      tag_106\n      jump\t// in\n    tag_148:\n      mload(0x40)\n      dup1\n      swap2\n      sub\n      swap1\n      revert\n    tag_147:\n        /* \"submissions/Zora/DecentralizedGovernance.sol\":5337:5355  uint256 totalVotes */\n      0x00\n        /* \"submissions/Zora/DecentralizedGovernance.sol\":5378:5386  proposal */\n      dup2\n        /* \"submissions/Zora/DecentralizedGovernance.sol\":5378:5399  proposal.againstVotes */\n      0x03\n      add\n      sload\n        /* \"submissions/Zora/DecentralizedGovernance.sol\":5358:5366  proposal */\n      dup3\n        /* \"submissions/Zora/DecentralizedGovernance.sol\":5358:5375  proposal.forVotes */\n      0x02\n      add\n      sload\n        /* \"submissions/Zora/DecentralizedGovernance.sol\":5358:5399  proposal.forVotes + proposal.againstVotes */\n      tag_149\n      swap2\n      swap1\n      tag_136\n      jump\t// in\n    tag_149:\n        /* \"submissions/Zora/DecentralizedGovernance.sol\":5337:5399  uint256 totalVotes = proposal.forVotes + proposal.againstVotes */\n      swap1\n      pop\n        /* \"submissions/Zora/DecentralizedGovernance.sol\":5410:5429  uint256 totalSupply */\n      0x00\n        /* \"submissions/Zora/DecentralizedGovernance.sol\":5432:5447  governanceToken */\n      0x01\n      0x00\n      swap1\n      sload\n      swap1\n      0x0100\n      exp\n      swap1\n      div\n      0xffffffffffffffffffffffffffffffffffffffff\n      and\n        /* \"submissions/Zora/DecentralizedGovernance.sol\":5432:5459  governanceToken.totalSupply */\n      0xffffffffffffffffffffffffffffffffffffffff\n      and\n      0x18160ddd\n        /* \"submissions/Zora/DecentralizedGovernance.sol\":5432:5461  governanceToken.totalSupply() */\n      mload(0x40)\n      dup2\n      0xffffffff\n      and\n      0xe0\n      shl\n      dup2\n      mstore\n      0x04\n      add\n      0x20\n      mload(0x40)\n      dup1\n      dup4\n      sub\n      dup2\n      dup7\n      gas\n      staticcall\n      iszero\n      dup1\n      iszero\n      tag_151\n      jumpi\n      returndatacopy(0x00, 0x00, returndatasize)\n      revert(0x00, returndatasize)\n    tag_151:\n      pop\n      pop\n      pop\n      pop\n      mload(0x40)\n      returndatasize\n      not(0x1f)\n      0x1f\n      dup3\n      add\n      and\n      dup3\n      add\n      dup1\n      0x40\n      mstore\n      pop\n      dup2\n      add\n      swap1\n      tag_152\n      swap2\n      swap1\n      tag_153\n      jump\t// in\n    tag_152:\n        /* \"submissions/Zora/DecentralizedGovernance.sol\":5410:5461  uint256 totalSupply = governanceToken.totalSupply() */\n      swap1\n      pop\n        /* \"submissions/Zora/DecentralizedGovernance.sol\":5472:5494  uint256 quorumRequired */\n      0x00\n        /* \"submissions/Zora/DecentralizedGovernance.sol\":5532:5535  100 */\n      0x64\n        /* \"submissions/Zora/DecentralizedGovernance.sol\":5512:5528  quorumPercentage */\n      sload(0x08)\n        /* \"submissions/Zora/DecentralizedGovernance.sol\":5498:5509  totalSupply */\n      dup4\n        /* \"submissions/Zora/DecentralizedGovernance.sol\":5498:5528  totalSupply * quorumPercentage */\n      tag_154\n      swap2\n      swap1\n      tag_155\n      jump\t// in\n    tag_154:\n        /* \"submissions/Zora/DecentralizedGovernance.sol\":5497:5535  (totalSupply * quorumPercentage) / 100 */\n      tag_156\n      swap2\n      swap1\n      tag_157\n      jump\t// in\n    tag_156:\n        /* \"submissions/Zora/DecentralizedGovernance.sol\":5472:5535  uint256 quorumRequired = (totalSupply * quorumPercentage) / 100 */\n      swap1\n      pop\n        /* \"submissions/Zora/DecentralizedGovernance.sol\":5566:5580  quorumRequired */\n      dup1\n        /* \"submissions/Zora/DecentralizedGovernance.sol\":5552:5562  totalVotes */\n      dup4\n        /* \"submissions/Zora/DecentralizedGovernance.sol\":5552:5580  totalVotes >= quorumRequired */\n      lt\n      iszero\n        /* \"submissions/Zora/DecentralizedGovernance.sol\":5552:5625  totalVotes >= quorumRequired && proposal.forVotes > proposal.againstVotes */\n      dup1\n      iszero\n      tag_158\n      jumpi\n      pop\n        /* \"submissions/Zora/DecentralizedGovernance.sol\":5604:5612  proposal */\n      dup4\n        /* \"submissions/Zora/DecentralizedGovernance.sol\":5604:5625  proposal.againstVotes */\n      0x03\n      add\n      sload\n        /* \"submissions/Zora/DecentralizedGovernance.sol\":5584:5592  proposal */\n      dup5\n        /* \"submissions/Zora/DecentralizedGovernance.sol\":5584:5601  proposal.forVotes */\n      0x02\n      add\n      sload\n        /* \"submissions/Zora/DecentralizedGovernance.sol\":5584:5625  proposal.forVotes > proposal.againstVotes */\n      gt\n        /* \"submissions/Zora/DecentralizedGovernance.sol\":5552:5625  totalVotes >= quorumRequired && proposal.forVotes > proposal.againstVotes */\n    tag_158:\n        /* \"submissions/Zora/DecentralizedGovernance.sol\":5548:6093  if (totalVotes >= quorumRequired && proposal.forVotes > proposal.againstVotes) {... */\n      iszero\n      tag_159\n      jumpi\n        /* \"submissions/Zora/DecentralizedGovernance.sol\":5665:5666  0 */\n      0x00\n        /* \"submissions/Zora/DecentralizedGovernance.sol\":5646:5662  timelockDuration */\n      sload(0x06)\n        /* \"submissions/Zora/DecentralizedGovernance.sol\":5646:5666  timelockDuration > 0 */\n      gt\n        /* \"submissions/Zora/DecentralizedGovernance.sol\":5642:5981  if (timelockDuration > 0) {... */\n      iszero\n      tag_160\n      jumpi\n        /* \"submissions/Zora/DecentralizedGovernance.sol\":5728:5744  timelockDuration */\n      sload(0x06)\n        /* \"submissions/Zora/DecentralizedGovernance.sol\":5710:5725  block.timestamp */\n      timestamp\n        /* \"submissions/Zora/DecentralizedGovernance.sol\":5710:5744  block.timestamp + timelockDuration */\n      tag_161\n      swap2\n      swap1\n      tag_136\n      jump\t// in\n    tag_161:\n        /* \"submissions/Zora/DecentralizedGovernance.sol\":5687:5695  proposal */\n      dup5\n        /* \"submissions/Zora/DecentralizedGovernance.sol\":5687:5707  proposal.timelockEnd */\n      0x07\n      add\n        /* \"submissions/Zora/DecentralizedGovernance.sol\":5687:5744  proposal.timelockEnd = block.timestamp + timelockDuration */\n      dup2\n      swap1\n      sstore\n      pop\n        /* \"submissions/Zora/DecentralizedGovernance.sol\":5792:5802  proposalId */\n      dup5\n        /* \"submissions/Zora/DecentralizedGovernance.sol\":5768:5803  ProposalTimelockStarted(proposalId) */\n      0x4e3180fc09418f427bbfae80bce9eaedd459690d1dab5c62d57b3f56b23e35c4\n      mload(0x40)\n      mload(0x40)\n      dup1\n      swap2\n      sub\n      swap1\n      log2\n        /* \"submissions/Zora/DecentralizedGovernance.sol\":5642:5981  if (timelockDuration > 0) {... */\n      jump(tag_162)\n    tag_160:\n        /* \"submissions/Zora/DecentralizedGovernance.sol\":5864:5868  true */\n      0x01\n        /* \"submissions/Zora/DecentralizedGovernance.sol\":5844:5852  proposal */\n      dup5\n        /* \"submissions/Zora/DecentralizedGovernance.sol\":5844:5861  proposal.executed */\n      0x06\n      add\n      0x00\n        /* \"submissions/Zora/DecentralizedGovernance.sol\":5844:5868  proposal.executed = true */\n      0x0100\n      exp\n      dup2\n      sload\n      dup2\n      0xff\n      mul\n      not\n      and\n      swap1\n      dup4\n      iszero\n      iszero\n      mul\n      or\n      swap1\n      sstore\n      pop\n        /* \"submissions/Zora/DecentralizedGovernance.sol\":5887:5913  _refundDeposit(proposalId) */\n      tag_163\n        /* \"submissions/Zora/DecentralizedGovernance.sol\":5902:5912  proposalId */\n      dup6\n        /* \"submissions/Zora/DecentralizedGovernance.sol\":5887:5901  _refundDeposit */\n      tag_108\n        /* \"submissions/Zora/DecentralizedGovernance.sol\":5887:5913  _refundDeposit(proposalId) */\n      jump\t// in\n    tag_163:\n        /* \"submissions/Zora/DecentralizedGovernance.sol\":5954:5964  proposalId */\n      dup5\n        /* \"submissions/Zora/DecentralizedGovernance.sol\":5937:5965  ProposalExecuted(proposalId) */\n      0x712ae1383f79ac853f8d882153778e0260ef8f03b504e2866e0593e04d2b291f\n      mload(0x40)\n      mload(0x40)\n      dup1\n      swap2\n      sub\n      swap1\n      log2\n        /* \"submissions/Zora/DecentralizedGovernance.sol\":5642:5981  if (timelockDuration > 0) {... */\n    tag_162:\n        /* \"submissions/Zora/DecentralizedGovernance.sol\":5548:6093  if (totalVotes >= quorumRequired && proposal.forVotes > proposal.againstVotes) {... */\n      jump(tag_164)\n    tag_159:\n        /* \"submissions/Zora/DecentralizedGovernance.sol\":6033:6037  true */\n      0x01\n        /* \"submissions/Zora/DecentralizedGovernance.sol\":6013:6021  proposal */\n      dup5\n        /* \"submissions/Zora/DecentralizedGovernance.sol\":6013:6030  proposal.canceled */\n      0x06\n      add\n      0x01\n        /* \"submissions/Zora/DecentralizedGovernance.sol\":6013:6037  proposal.canceled = true */\n      0x0100\n      exp\n      dup2\n      sload\n      dup2\n      0xff\n      mul\n      not\n      and\n      swap1\n      dup4\n      iszero\n      iszero\n      mul\n      or\n      swap1\n      sstore\n      pop\n        /* \"submissions/Zora/DecentralizedGovernance.sol\":6070:6080  proposalId */\n      dup5\n        /* \"submissions/Zora/DecentralizedGovernance.sol\":6057:6081  QuorumNotMet(proposalId) */\n      0x9536f7423dd39687d0ee332e3794eda5d12d85a233395133bd9822ef1b3a820c\n      mload(0x40)\n      mload(0x40)\n      dup1\n      swap2\n      sub\n      swap1\n      log2\n        /* \"submissions/Zora/DecentralizedGovernance.sol\":5548:6093  if (totalVotes >= quorumRequired && proposal.forVotes > proposal.againstVotes) {... */\n    tag_164:\n        /* \"submissions/Zora/DecentralizedGovernance.sol\":5080:6100  {... */\n      pop\n      pop\n      pop\n      pop\n        /* \"submissions/Zora/DecentralizedGovernance.sol\":5025:6100  function finalizeProposal(uint256 proposalId) external {... */\n      pop\n      jump\t// out\n        /* \"submissions/Zora/DecentralizedGovernance.sol\":2891:3041  function setProposalDepositAmount(uint256 _proposalDepositAmount) external onlyAdmin {... */\n    tag_70:\n        /* \"submissions/Zora/DecentralizedGovernance.sol\":1906:1911  admin */\n      0x07\n      0x00\n      swap1\n      sload\n      swap1\n      0x0100\n      exp\n      swap1\n      div\n      0xffffffffffffffffffffffffffffffffffffffff\n      and\n        /* \"submissions/Zora/DecentralizedGovernance.sol\":1892:1911  msg.sender == admin */\n      0xffffffffffffffffffffffffffffffffffffffff\n      and\n        /* \"submissions/Zora/DecentralizedGovernance.sol\":1892:1902  msg.sender */\n      caller\n        /* \"submissions/Zora/DecentralizedGovernance.sol\":1892:1911  msg.sender == admin */\n      0xffffffffffffffffffffffffffffffffffffffff\n      and\n      eq\n        /* \"submissions/Zora/DecentralizedGovernance.sol\":1884:1925  require(msg.sender == admin, \"Not admin\") */\n      tag_166\n      jumpi\n      mload(0x40)\n      0x08c379a000000000000000000000000000000000000000000000000000000000\n      dup2\n      mstore\n      0x04\n      add\n      tag_167\n      swap1\n      tag_112\n      jump\t// in\n    tag_167:\n      mload(0x40)\n      dup1\n      swap2\n      sub\n      swap1\n      revert\n    tag_166:\n        /* \"submissions/Zora/DecentralizedGovernance.sol\":3011:3033  _proposalDepositAmount */\n      dup1\n        /* \"submissions/Zora/DecentralizedGovernance.sol\":2987:3008  proposalDepositAmount */\n      0x09\n        /* \"submissions/Zora/DecentralizedGovernance.sol\":2987:3033  proposalDepositAmount = _proposalDepositAmount */\n      dup2\n      swap1\n      sstore\n      pop\n        /* \"submissions/Zora/DecentralizedGovernance.sol\":2891:3041  function setProposalDepositAmount(uint256 _proposalDepositAmount) external onlyAdmin {... */\n      pop\n      jump\t// out\n        /* \"submissions/Zora/DecentralizedGovernance.sol\":4150:4966  function vote(uint256 proposalId, bool support) external {... */\n    tag_74:\n        /* \"submissions/Zora/DecentralizedGovernance.sol\":4218:4243  Proposal storage proposal */\n      0x00\n        /* \"submissions/Zora/DecentralizedGovernance.sol\":4246:4255  proposals */\n      0x02\n        /* \"submissions/Zora/DecentralizedGovernance.sol\":4246:4267  proposals[proposalId] */\n      0x00\n        /* \"submissions/Zora/DecentralizedGovernance.sol\":4256:4266  proposalId */\n      dup5\n        /* \"submissions/Zora/DecentralizedGovernance.sol\":4246:4267  proposals[proposalId] */\n      dup2\n      mstore\n      0x20\n      add\n      swap1\n      dup2\n      mstore\n      0x20\n      add\n      0x00\n      keccak256\n        /* \"submissions/Zora/DecentralizedGovernance.sol\":4218:4267  Proposal storage proposal = proposals[proposalId] */\n      swap1\n      pop\n        /* \"submissions/Zora/DecentralizedGovernance.sol\":4307:4315  proposal */\n      dup1\n        /* \"submissions/Zora/DecentralizedGovernance.sol\":4307:4325  proposal.startTime */\n      0x04\n      add\n      sload\n        /* \"submissions/Zora/DecentralizedGovernance.sol\":4288:4303  block.timestamp */\n      timestamp\n        /* \"submissions/Zora/DecentralizedGovernance.sol\":4288:4325  block.timestamp >= proposal.startTime */\n      lt\n      iszero\n        /* \"submissions/Zora/DecentralizedGovernance.sol\":4280:4341  require(block.timestamp >= proposal.startTime, \"Not started\") */\n      tag_170\n      jumpi\n      mload(0x40)\n      0x08c379a000000000000000000000000000000000000000000000000000000000\n      dup2\n      mstore\n      0x04\n      add\n      tag_171\n      swap1\n      tag_172\n      jump\t// in\n    tag_171:\n      mload(0x40)\n      dup1\n      swap2\n      sub\n      swap1\n      revert\n    tag_170:\n        /* \"submissions/Zora/DecentralizedGovernance.sol\":4379:4387  proposal */\n      dup1\n        /* \"submissions/Zora/DecentralizedGovernance.sol\":4379:4395  proposal.endTime */\n      0x05\n      add\n      sload\n        /* \"submissions/Zora/DecentralizedGovernance.sol\":4360:4375  block.timestamp */\n      timestamp\n        /* \"submissions/Zora/DecentralizedGovernance.sol\":4360:4395  block.timestamp <= proposal.endTime */\n      gt\n      iszero\n        /* \"submissions/Zora/DecentralizedGovernance.sol\":4352:4405  require(block.timestamp <= proposal.endTime, \"Ended\") */\n      tag_173\n      jumpi\n      mload(0x40)\n      0x08c379a000000000000000000000000000000000000000000000000000000000\n      dup2\n      mstore\n      0x04\n      add\n      tag_174\n      swap1\n      tag_175\n      jump\t// in\n    tag_174:\n      mload(0x40)\n      dup1\n      swap2\n      sub\n      swap1\n      revert\n    tag_173:\n        /* \"submissions/Zora/DecentralizedGovernance.sol\":4425:4433  proposal */\n      dup1\n        /* \"submissions/Zora/DecentralizedGovernance.sol\":4425:4442  proposal.executed */\n      0x06\n      add\n      0x00\n      swap1\n      sload\n      swap1\n      0x0100\n      exp\n      swap1\n      div\n      0xff\n      and\n        /* \"submissions/Zora/DecentralizedGovernance.sol\":4424:4442  !proposal.executed */\n      iszero\n        /* \"submissions/Zora/DecentralizedGovernance.sol\":4416:4463  require(!proposal.executed, \"Already executed\") */\n      tag_176\n      jumpi\n      mload(0x40)\n      0x08c379a000000000000000000000000000000000000000000000000000000000\n      dup2\n      mstore\n      0x04\n      add\n      tag_177\n      swap1\n      tag_103\n      jump\t// in\n    tag_177:\n      mload(0x40)\n      dup1\n      swap2\n      sub\n      swap1\n      revert\n    tag_176:\n        /* \"submissions/Zora/DecentralizedGovernance.sol\":4483:4491  proposal */\n      dup1\n        /* \"submissions/Zora/DecentralizedGovernance.sol\":4483:4500  proposal.canceled */\n      0x06\n      add\n      0x01\n      swap1\n      sload\n      swap1\n      0x0100\n      exp\n      swap1\n      div\n      0xff\n      and\n        /* \"submissions/Zora/DecentralizedGovernance.sol\":4482:4500  !proposal.canceled */\n      iszero\n        /* \"submissions/Zora/DecentralizedGovernance.sol\":4474:4513  require(!proposal.canceled, \"Canceled\") */\n      tag_178\n      jumpi\n      mload(0x40)\n      0x08c379a000000000000000000000000000000000000000000000000000000000\n      dup2\n      mstore\n      0x04\n      add\n      tag_179\n      swap1\n      tag_106\n      jump\t// in\n    tag_179:\n      mload(0x40)\n      dup1\n      swap2\n      sub\n      swap1\n      revert\n    tag_178:\n        /* \"submissions/Zora/DecentralizedGovernance.sol\":4533:4541  hasVoted */\n      0x03\n        /* \"submissions/Zora/DecentralizedGovernance.sol\":4533:4553  hasVoted[proposalId] */\n      0x00\n        /* \"submissions/Zora/DecentralizedGovernance.sol\":4542:4552  proposalId */\n      dup5\n        /* \"submissions/Zora/DecentralizedGovernance.sol\":4533:4553  hasVoted[proposalId] */\n      dup2\n      mstore\n      0x20\n      add\n      swap1\n      dup2\n      mstore\n      0x20\n      add\n      0x00\n      keccak256\n        /* \"submissions/Zora/DecentralizedGovernance.sol\":4533:4565  hasVoted[proposalId][msg.sender] */\n      0x00\n        /* \"submissions/Zora/DecentralizedGovernance.sol\":4554:4564  msg.sender */\n      caller\n        /* \"submissions/Zora/DecentralizedGovernance.sol\":4533:4565  hasVoted[proposalId][msg.sender] */\n      0xffffffffffffffffffffffffffffffffffffffff\n      and\n      0xffffffffffffffffffffffffffffffffffffffff\n      and\n      dup2\n      mstore\n      0x20\n      add\n      swap1\n      dup2\n      mstore\n      0x20\n      add\n      0x00\n      keccak256\n      0x00\n      swap1\n      sload\n      swap1\n      0x0100\n      exp\n      swap1\n      div\n      0xff\n      and\n        /* \"submissions/Zora/DecentralizedGovernance.sol\":4532:4565  !hasVoted[proposalId][msg.sender] */\n      iszero\n        /* \"submissions/Zora/DecentralizedGovernance.sol\":4524:4583  require(!hasVoted[proposalId][msg.sender], \"Already voted\") */\n      tag_180\n      jumpi\n      mload(0x40)\n      0x08c379a000000000000000000000000000000000000000000000000000000000\n      dup2\n      mstore\n      0x04\n      add\n      tag_181\n      swap1\n      tag_182\n      jump\t// in\n    tag_181:\n      mload(0x40)\n      dup1\n      swap2\n      sub\n      swap1\n      revert\n    tag_180:\n        /* \"submissions/Zora/DecentralizedGovernance.sol\":4596:4610  uint256 weight */\n      0x00\n        /* \"submissions/Zora/DecentralizedGovernance.sol\":4613:4628  governanceToken */\n      0x01\n      0x00\n      swap1\n      sload\n      swap1\n      0x0100\n      exp\n      swap1\n      div\n      0xffffffffffffffffffffffffffffffffffffffff\n      and\n        /* \"submissions/Zora/DecentralizedGovernance.sol\":4613:4638  governanceToken.balanceOf */\n      0xffffffffffffffffffffffffffffffffffffffff\n      and\n      0x70a08231\n        /* \"submissions/Zora/DecentralizedGovernance.sol\":4639:4649  msg.sender */\n      caller\n        /* \"submissions/Zora/DecentralizedGovernance.sol\":4613:4650  governanceToken.balanceOf(msg.sender) */\n      mload(0x40)\n      dup3\n      0xffffffff\n      and\n      0xe0\n      shl\n      dup2\n      mstore\n      0x04\n      add\n      tag_183\n      swap2\n      swap1\n      tag_78\n      jump\t// in\n    tag_183:\n      0x20\n      mload(0x40)\n      dup1\n      dup4\n      sub\n      dup2\n      dup7\n      gas\n      staticcall\n      iszero\n      dup1\n      iszero\n      tag_185\n      jumpi\n      returndatacopy(0x00, 0x00, returndatasize)\n      revert(0x00, returndatasize)\n    tag_185:\n      pop\n      pop\n      pop\n      pop\n      mload(0x40)\n      returndatasize\n      not(0x1f)\n      0x1f\n      dup3\n      add\n      and\n      dup3\n      add\n      dup1\n      0x40\n      mstore\n      pop\n      dup2\n      add\n      swap1\n      tag_186\n      swap2\n      swap1\n      tag_153\n      jump\t// in\n    tag_186:\n        /* \"submissions/Zora/DecentralizedGovernance.sol\":4596:4650  uint256 weight = governanceToken.balanceOf(msg.sender) */\n      swap1\n      pop\n        /* \"submissions/Zora/DecentralizedGovernance.sol\":4678:4679  0 */\n      0x00\n        /* \"submissions/Zora/DecentralizedGovernance.sol\":4669:4675  weight */\n      dup2\n        /* \"submissions/Zora/DecentralizedGovernance.sol\":4669:4679  weight > 0 */\n      gt\n        /* \"submissions/Zora/DecentralizedGovernance.sol\":4661:4699  require(weight > 0, \"No voting power\") */\n      tag_187\n      jumpi\n      mload(0x40)\n      0x08c379a000000000000000000000000000000000000000000000000000000000\n      dup2\n      mstore\n      0x04\n      add\n      tag_188\n      swap1\n      tag_189\n      jump\t// in\n    tag_188:\n      mload(0x40)\n      dup1\n      swap2\n      sub\n      swap1\n      revert\n    tag_187:\n        /* \"submissions/Zora/DecentralizedGovernance.sol\":4747:4751  true */\n      0x01\n        /* \"submissions/Zora/DecentralizedGovernance.sol\":4712:4720  hasVoted */\n      0x03\n        /* \"submissions/Zora/DecentralizedGovernance.sol\":4712:4732  hasVoted[proposalId] */\n      0x00\n        /* \"submissions/Zora/DecentralizedGovernance.sol\":4721:4731  proposalId */\n      dup7\n        /* \"submissions/Zora/DecentralizedGovernance.sol\":4712:4732  hasVoted[proposalId] */\n      dup2\n      mstore\n      0x20\n      add\n      swap1\n      dup2\n      mstore\n      0x20\n      add\n      0x00\n      keccak256\n        /* \"submissions/Zora/DecentralizedGovernance.sol\":4712:4744  hasVoted[proposalId][msg.sender] */\n      0x00\n        /* \"submissions/Zora/DecentralizedGovernance.sol\":4733:4743  msg.sender */\n      caller\n        /* \"submissions/Zora/DecentralizedGovernance.sol\":4712:4744  hasVoted[proposalId][msg.sender] */\n      0xffffffffffffffffffffffffffffffffffffffff\n      and\n      0xffffffffffffffffffffffffffffffffffffffff\n      and\n      dup2\n      mstore\n      0x20\n      add\n      swap1\n      dup2\n      mstore\n      0x20\n      add\n      0x00\n      keccak256\n      0x00\n        /* \"submissions/Zora/DecentralizedGovernance.sol\":4712:4751  hasVoted[proposalId][msg.sender] = true */\n      0x0100\n      exp\n      dup2\n      sload\n      dup2\n      0xff\n      mul\n      not\n      and\n      swap1\n      dup4\n      iszero\n      iszero\n      mul\n      or\n      swap1\n      sstore\n      pop\n        /* \"submissions/Zora/DecentralizedGovernance.sol\":4768:4775  support */\n      dup3\n        /* \"submissions/Zora/DecentralizedGovernance.sol\":4764:4895  if (support) {... */\n      iszero\n      tag_190\n      jumpi\n        /* \"submissions/Zora/DecentralizedGovernance.sol\":4813:4819  weight */\n      dup1\n        /* \"submissions/Zora/DecentralizedGovernance.sol\":4792:4800  proposal */\n      dup3\n        /* \"submissions/Zora/DecentralizedGovernance.sol\":4792:4809  proposal.forVotes */\n      0x02\n      add\n      0x00\n        /* \"submissions/Zora/DecentralizedGovernance.sol\":4792:4819  proposal.forVotes += weight */\n      dup3\n      dup3\n      sload\n      tag_191\n      swap2\n      swap1\n      tag_136\n      jump\t// in\n    tag_191:\n      swap3\n      pop\n      pop\n      dup2\n      swap1\n      sstore\n      pop\n        /* \"submissions/Zora/DecentralizedGovernance.sol\":4764:4895  if (support) {... */\n      jump(tag_192)\n    tag_190:\n        /* \"submissions/Zora/DecentralizedGovernance.sol\":4877:4883  weight */\n      dup1\n        /* \"submissions/Zora/DecentralizedGovernance.sol\":4852:4860  proposal */\n      dup3\n        /* \"submissions/Zora/DecentralizedGovernance.sol\":4852:4873  proposal.againstVotes */\n      0x03\n      add\n      0x00\n        /* \"submissions/Zora/DecentralizedGovernance.sol\":4852:4883  proposal.againstVotes += weight */\n      dup3\n      dup3\n      sload\n      tag_193\n      swap2\n      swap1\n      tag_136\n      jump\t// in\n    tag_193:\n      swap3\n      pop\n      pop\n      dup2\n      swap1\n      sstore\n      pop\n        /* \"submissions/Zora/DecentralizedGovernance.sol\":4764:4895  if (support) {... */\n    tag_192:\n        /* \"submissions/Zora/DecentralizedGovernance.sol\":4930:4940  msg.sender */\n      caller\n        /* \"submissions/Zora/DecentralizedGovernance.sol\":4912:4958  Voted(proposalId, msg.sender, support, weight) */\n      0xffffffffffffffffffffffffffffffffffffffff\n      and\n        /* \"submissions/Zora/DecentralizedGovernance.sol\":4918:4928  proposalId */\n      dup5\n        /* \"submissions/Zora/DecentralizedGovernance.sol\":4912:4958  Voted(proposalId, msg.sender, support, weight) */\n      0x7c2de587c00d75474a0c6c6fa96fd3b45dc974cd4e8a75f712bb84c950dce1b5\n        /* \"submissions/Zora/DecentralizedGovernance.sol\":4942:4949  support */\n      dup6\n        /* \"submissions/Zora/DecentralizedGovernance.sol\":4951:4957  weight */\n      dup5\n        /* \"submissions/Zora/DecentralizedGovernance.sol\":4912:4958  Voted(proposalId, msg.sender, support, weight) */\n      mload(0x40)\n      tag_194\n      swap3\n      swap2\n      swap1\n      tag_195\n      jump\t// in\n    tag_194:\n      mload(0x40)\n      dup1\n      swap2\n      sub\n      swap1\n      log3\n        /* \"submissions/Zora/DecentralizedGovernance.sol\":4207:4966  {... */\n      pop\n      pop\n        /* \"submissions/Zora/DecentralizedGovernance.sol\":4150:4966  function vote(uint256 proposalId, bool support) external {... */\n      pop\n      pop\n      jump\t// out\n        /* \"submissions/Zora/DecentralizedGovernance.sol\":1055:1075  address public admin */\n    tag_76:\n      0x07\n      0x00\n      swap1\n      sload\n      swap1\n      0x0100\n      exp\n      swap1\n      div\n      0xffffffffffffffffffffffffffffffffffffffff\n      and\n      dup2\n      jump\t// out\n        /* \"submissions/Zora/DecentralizedGovernance.sol\":6948:7344  function getProposalResult(uint256 proposalId) external view returns (... */\n    tag_81:\n        /* \"submissions/Zora/DecentralizedGovernance.sol\":7028:7039  bool passed */\n      0x00\n        /* \"submissions/Zora/DecentralizedGovernance.sol\":7050:7066  uint256 forVotes */\n      0x00\n        /* \"submissions/Zora/DecentralizedGovernance.sol\":7077:7097  uint256 againstVotes */\n      0x00\n        /* \"submissions/Zora/DecentralizedGovernance.sol\":7108:7121  bool executed */\n      0x00\n        /* \"submissions/Zora/DecentralizedGovernance.sol\":7140:7164  Proposal memory proposal */\n      0x00\n        /* \"submissions/Zora/DecentralizedGovernance.sol\":7167:7176  proposals */\n      0x02\n        /* \"submissions/Zora/DecentralizedGovernance.sol\":7167:7188  proposals[proposalId] */\n      0x00\n        /* \"submissions/Zora/DecentralizedGovernance.sol\":7177:7187  proposalId */\n      dup8\n        /* \"submissions/Zora/DecentralizedGovernance.sol\":7167:7188  proposals[proposalId] */\n      dup2\n      mstore\n      0x20\n      add\n      swap1\n      dup2\n      mstore\n      0x20\n      add\n      0x00\n      keccak256\n        /* \"submissions/Zora/DecentralizedGovernance.sol\":7140:7188  Proposal memory proposal = proposals[proposalId] */\n      mload(0x40)\n      dup1\n      0x0120\n      add\n      0x40\n      mstore\n      swap1\n      dup2\n      0x00\n      dup3\n      add\n      0x00\n      swap1\n      sload\n      swap1\n      0x0100\n      exp\n      swap1\n      div\n      0xffffffffffffffffffffffffffffffffffffffff\n      and\n      0xffffffffffffffffffffffffffffffffffffffff\n      and\n      0xffffffffffffffffffffffffffffffffffffffff\n      and\n      dup2\n      mstore\n      0x20\n      add\n      0x01\n      dup3\n      add\n      dup1\n      sload\n      tag_197\n      swap1\n      tag_89\n      jump\t// in\n    tag_197:\n      dup1\n      0x1f\n      add\n      0x20\n      dup1\n      swap2\n      div\n      mul\n      0x20\n      add\n      mload(0x40)\n      swap1\n      dup2\n      add\n      0x40\n      mstore\n      dup1\n      swap3\n      swap2\n      swap1\n      dup2\n      dup2\n      mstore\n      0x20\n      add\n      dup3\n      dup1\n      sload\n      tag_198\n      swap1\n      tag_89\n      jump\t// in\n    tag_198:\n      dup1\n      iszero\n      tag_199\n      jumpi\n      dup1\n      0x1f\n      lt\n      tag_200\n      jumpi\n      0x0100\n      dup1\n      dup4\n      sload\n      div\n      mul\n      dup4\n      mstore\n      swap2\n      0x20\n      add\n      swap2\n      jump(tag_199)\n    tag_200:\n      dup3\n      add\n      swap2\n      swap1\n      0x00\n      mstore\n      keccak256(0x00, 0x20)\n      swap1\n    tag_201:\n      dup2\n      sload\n      dup2\n      mstore\n      swap1\n      0x01\n      add\n      swap1\n      0x20\n      add\n      dup1\n      dup4\n      gt\n      tag_201\n      jumpi\n      dup3\n      swap1\n      sub\n      0x1f\n      and\n      dup3\n      add\n      swap2\n    tag_199:\n      pop\n      pop\n      pop\n      pop\n      pop\n      dup2\n      mstore\n      0x20\n      add\n      0x02\n      dup3\n      add\n      sload\n      dup2\n      mstore\n      0x20\n      add\n      0x03\n      dup3\n      add\n      sload\n      dup2\n      mstore\n      0x20\n      add\n      0x04\n      dup3\n      add\n      sload\n      dup2\n      mstore\n      0x20\n      add\n      0x05\n      dup3\n      add\n      sload\n      dup2\n      mstore\n      0x20\n      add\n      0x06\n      dup3\n      add\n      0x00\n      swap1\n      sload\n      swap1\n      0x0100\n      exp\n      swap1\n      div\n      0xff\n      and\n      iszero\n      iszero\n      iszero\n      iszero\n      dup2\n      mstore\n      0x20\n      add\n      0x06\n      dup3\n      add\n      0x01\n      swap1\n      sload\n      swap1\n      0x0100\n      exp\n      swap1\n      div\n      0xff\n      and\n      iszero\n      iszero\n      iszero\n      iszero\n      dup2\n      mstore\n      0x20\n      add\n      0x07\n      dup3\n      add\n      sload\n      dup2\n      mstore\n      pop\n      pop\n      swap1\n      pop\n        /* \"submissions/Zora/DecentralizedGovernance.sol\":7228:7236  proposal */\n      dup1\n        /* \"submissions/Zora/DecentralizedGovernance.sol\":7228:7249  proposal.againstVotes */\n      0x60\n      add\n      mload\n        /* \"submissions/Zora/DecentralizedGovernance.sol\":7208:7216  proposal */\n      dup2\n        /* \"submissions/Zora/DecentralizedGovernance.sol\":7208:7225  proposal.forVotes */\n      0x40\n      add\n      mload\n        /* \"submissions/Zora/DecentralizedGovernance.sol\":7208:7249  proposal.forVotes > proposal.againstVotes */\n      gt\n        /* \"submissions/Zora/DecentralizedGovernance.sol\":7199:7249  passed = proposal.forVotes > proposal.againstVotes */\n      swap5\n      pop\n        /* \"submissions/Zora/DecentralizedGovernance.sol\":7268:7274  passed */\n      dup5\n        /* \"submissions/Zora/DecentralizedGovernance.sol\":7276:7284  proposal */\n      dup2\n        /* \"submissions/Zora/DecentralizedGovernance.sol\":7276:7293  proposal.forVotes */\n      0x40\n      add\n      mload\n        /* \"submissions/Zora/DecentralizedGovernance.sol\":7295:7303  proposal */\n      dup3\n        /* \"submissions/Zora/DecentralizedGovernance.sol\":7295:7316  proposal.againstVotes */\n      0x60\n      add\n      mload\n        /* \"submissions/Zora/DecentralizedGovernance.sol\":7318:7326  proposal */\n      dup4\n        /* \"submissions/Zora/DecentralizedGovernance.sol\":7318:7335  proposal.executed */\n      0xc0\n      add\n      mload\n        /* \"submissions/Zora/DecentralizedGovernance.sol\":7260:7336  return (passed, proposal.forVotes, proposal.againstVotes, proposal.executed) */\n      swap5\n      pop\n      swap5\n      pop\n      swap5\n      pop\n      swap5\n      pop\n      pop\n        /* \"submissions/Zora/DecentralizedGovernance.sol\":6948:7344  function getProposalResult(uint256 proposalId) external view returns (... */\n      swap2\n      swap4\n      pop\n      swap2\n      swap4\n      jump\t// out\n        /* \"submissions/Zora/DecentralizedGovernance.sol\":335:364  IERC20 public governanceToken */\n    tag_85:\n      0x01\n      0x00\n      swap1\n      sload\n      swap1\n      0x0100\n      exp\n      swap1\n      div\n      0xffffffffffffffffffffffffffffffffffffffff\n      and\n      dup2\n      jump\t// out\n        /* \"submissions/Zora/DecentralizedGovernance.sol\":6654:6913  function _refundDeposit(uint256 proposalId) internal {... */\n    tag_108:\n        /* \"submissions/Zora/DecentralizedGovernance.sol\":6746:6747  0 */\n      0x00\n        /* \"submissions/Zora/DecentralizedGovernance.sol\":6722:6743  proposalDepositAmount */\n      sload(0x09)\n        /* \"submissions/Zora/DecentralizedGovernance.sol\":6722:6747  proposalDepositAmount > 0 */\n      gt\n        /* \"submissions/Zora/DecentralizedGovernance.sol\":6718:6906  if (proposalDepositAmount > 0) {... */\n      iszero\n      tag_203\n      jumpi\n        /* \"submissions/Zora/DecentralizedGovernance.sol\":6764:6789  Proposal storage proposal */\n      0x00\n        /* \"submissions/Zora/DecentralizedGovernance.sol\":6792:6801  proposals */\n      0x02\n        /* \"submissions/Zora/DecentralizedGovernance.sol\":6792:6813  proposals[proposalId] */\n      0x00\n        /* \"submissions/Zora/DecentralizedGovernance.sol\":6802:6812  proposalId */\n      dup4\n        /* \"submissions/Zora/DecentralizedGovernance.sol\":6792:6813  proposals[proposalId] */\n      dup2\n      mstore\n      0x20\n      add\n      swap1\n      dup2\n      mstore\n      0x20\n      add\n      0x00\n      keccak256\n        /* \"submissions/Zora/DecentralizedGovernance.sol\":6764:6813  Proposal storage proposal = proposals[proposalId] */\n      swap1\n      pop\n        /* \"submissions/Zora/DecentralizedGovernance.sol\":6828:6843  governanceToken */\n      0x01\n      0x00\n      swap1\n      sload\n      swap1\n      0x0100\n      exp\n      swap1\n      div\n      0xffffffffffffffffffffffffffffffffffffffff\n      and\n        /* \"submissions/Zora/DecentralizedGovernance.sol\":6828:6852  governanceToken.transfer */\n      0xffffffffffffffffffffffffffffffffffffffff\n      and\n      0xa9059cbb\n        /* \"submissions/Zora/DecentralizedGovernance.sol\":6853:6861  proposal */\n      dup3\n        /* \"submissions/Zora/DecentralizedGovernance.sol\":6853:6870  proposal.proposer */\n      0x00\n      add\n      0x00\n      swap1\n      sload\n      swap1\n      0x0100\n      exp\n      swap1\n      div\n      0xffffffffffffffffffffffffffffffffffffffff\n      and\n        /* \"submissions/Zora/DecentralizedGovernance.sol\":6872:6893  proposalDepositAmount */\n      sload(0x09)\n        /* \"submissions/Zora/DecentralizedGovernance.sol\":6828:6894  governanceToken.transfer(proposal.proposer, proposalDepositAmount) */\n      mload(0x40)\n      dup4\n      0xffffffff\n      and\n      0xe0\n      shl\n      dup2\n      mstore\n      0x04\n      add\n      tag_204\n      swap3\n      swap2\n      swap1\n      tag_205\n      jump\t// in\n    tag_204:\n      0x20\n      mload(0x40)\n      dup1\n      dup4\n      sub\n      dup2\n      0x00\n      dup8\n      gas\n      call\n      iszero\n      dup1\n      iszero\n      tag_207\n      jumpi\n      returndatacopy(0x00, 0x00, returndatasize)\n      revert(0x00, returndatasize)\n    tag_207:\n      pop\n      pop\n      pop\n      pop\n      mload(0x40)\n      returndatasize\n      not(0x1f)\n      0x1f\n      dup3\n      add\n      and\n      dup3\n      add\n      dup1\n      0x40\n      mstore\n      pop\n      dup2\n      add\n      swap1\n      tag_208\n      swap2\n      swap1\n      tag_132\n      jump\t// in\n    tag_208:\n      pop\n        /* \"submissions/Zora/DecentralizedGovernance.sol\":6749:6906  {... */\n      pop\n        /* \"submissions/Zora/DecentralizedGovernance.sol\":6718:6906  if (proposalDepositAmount > 0) {... */\n    tag_203:\n        /* \"submissions/Zora/DecentralizedGovernance.sol\":6654:6913  function _refundDeposit(uint256 proposalId) internal {... */\n      pop\n      jump\t// out\n        /* \"#utility.yul\":7:82   */\n    tag_209:\n        /* \"#utility.yul\":40:46   */\n      0x00\n        /* \"#utility.yul\":73:75   */\n      0x40\n        /* \"#utility.yul\":67:76   */\n      mload\n        /* \"#utility.yul\":57:76   */\n      swap1\n      pop\n        /* \"#utility.yul\":7:82   */\n      swap1\n      jump\t// out\n        /* \"#utility.yul\":88:205   */\n    tag_210:\n        /* \"#utility.yul\":197:198   */\n      0x00\n        /* \"#utility.yul\":194:195   */\n      0x00\n        /* \"#utility.yul\":187:199   */\n      revert\n        /* \"#utility.yul\":211:328   */\n    tag_211:\n        /* \"#utility.yul\":320:321   */\n      0x00\n        /* \"#utility.yul\":317:318   */\n      0x00\n        /* \"#utility.yul\":310:322   */\n      revert\n        /* \"#utility.yul\":334:411   */\n    tag_212:\n        /* \"#utility.yul\":371:378   */\n      0x00\n        /* \"#utility.yul\":400:405   */\n      dup2\n        /* \"#utility.yul\":389:405   */\n      swap1\n      pop\n        /* \"#utility.yul\":334:411   */\n      swap2\n      swap1\n      pop\n      jump\t// out\n        /* \"#utility.yul\":417:539   */\n    tag_213:\n        /* \"#utility.yul\":490:514   */\n      tag_293\n        /* \"#utility.yul\":508:513   */\n      dup2\n        /* \"#utility.yul\":490:514   */\n      tag_212\n      jump\t// in\n    tag_293:\n        /* \"#utility.yul\":483:488   */\n      dup2\n        /* \"#utility.yul\":480:515   */\n      eq\n        /* \"#utility.yul\":470:533   */\n      tag_294\n      jumpi\n        /* \"#utility.yul\":529:530   */\n      0x00\n        /* \"#utility.yul\":526:527   */\n      0x00\n        /* \"#utility.yul\":519:531   */\n      revert\n        /* \"#utility.yul\":470:533   */\n    tag_294:\n        /* \"#utility.yul\":417:539   */\n      pop\n      jump\t// out\n        /* \"#utility.yul\":545:684   */\n    tag_214:\n        /* \"#utility.yul\":591:596   */\n      0x00\n        /* \"#utility.yul\":629:635   */\n      dup2\n        /* \"#utility.yul\":616:636   */\n      calldataload\n        /* \"#utility.yul\":607:636   */\n      swap1\n      pop\n        /* \"#utility.yul\":645:678   */\n      tag_296\n        /* \"#utility.yul\":672:677   */\n      dup2\n        /* \"#utility.yul\":645:678   */\n      tag_213\n      jump\t// in\n    tag_296:\n        /* \"#utility.yul\":545:684   */\n      swap3\n      swap2\n      pop\n      pop\n      jump\t// out\n        /* \"#utility.yul\":690:1019   */\n    tag_25:\n        /* \"#utility.yul\":749:755   */\n      0x00\n        /* \"#utility.yul\":798:800   */\n      0x20\n        /* \"#utility.yul\":786:795   */\n      dup3\n        /* \"#utility.yul\":777:784   */\n      dup5\n        /* \"#utility.yul\":773:796   */\n      sub\n        /* \"#utility.yul\":769:801   */\n      slt\n        /* \"#utility.yul\":766:885   */\n      iszero\n      tag_298\n      jumpi\n        /* \"#utility.yul\":804:883   */\n      tag_299\n      tag_210\n      jump\t// in\n    tag_299:\n        /* \"#utility.yul\":766:885   */\n    tag_298:\n        /* \"#utility.yul\":924:925   */\n      0x00\n        /* \"#utility.yul\":949:1002   */\n      tag_300\n        /* \"#utility.yul\":994:1001   */\n      dup5\n        /* \"#utility.yul\":985:991   */\n      dup3\n        /* \"#utility.yul\":974:983   */\n      dup6\n        /* \"#utility.yul\":970:992   */\n      add\n        /* \"#utility.yul\":949:1002   */\n      tag_214\n      jump\t// in\n    tag_300:\n        /* \"#utility.yul\":939:1002   */\n      swap2\n      pop\n        /* \"#utility.yul\":895:1012   */\n      pop\n        /* \"#utility.yul\":690:1019   */\n      swap3\n      swap2\n      pop\n      pop\n      jump\t// out\n        /* \"#utility.yul\":1025:1151   */\n    tag_215:\n        /* \"#utility.yul\":1062:1069   */\n      0x00\n        /* \"#utility.yul\":1102:1144   */\n      0xffffffffffffffffffffffffffffffffffffffff\n        /* \"#utility.yul\":1095:1100   */\n      dup3\n        /* \"#utility.yul\":1091:1145   */\n      and\n        /* \"#utility.yul\":1080:1145   */\n      swap1\n      pop\n        /* \"#utility.yul\":1025:1151   */\n      swap2\n      swap1\n      pop\n      jump\t// out\n        /* \"#utility.yul\":1157:1253   */\n    tag_216:\n        /* \"#utility.yul\":1194:1201   */\n      0x00\n        /* \"#utility.yul\":1223:1247   */\n      tag_303\n        /* \"#utility.yul\":1241:1246   */\n      dup3\n        /* \"#utility.yul\":1223:1247   */\n      tag_215\n      jump\t// in\n    tag_303:\n        /* \"#utility.yul\":1212:1247   */\n      swap1\n      pop\n        /* \"#utility.yul\":1157:1253   */\n      swap2\n      swap1\n      pop\n      jump\t// out\n        /* \"#utility.yul\":1259:1377   */\n    tag_217:\n        /* \"#utility.yul\":1346:1370   */\n      tag_305\n        /* \"#utility.yul\":1364:1369   */\n      dup2\n        /* \"#utility.yul\":1346:1370   */\n      tag_216\n      jump\t// in\n    tag_305:\n        /* \"#utility.yul\":1341:1344   */\n      dup3\n        /* \"#utility.yul\":1334:1371   */\n      mstore\n        /* \"#utility.yul\":1259:1377   */\n      pop\n      pop\n      jump\t// out\n        /* \"#utility.yul\":1383:1482   */\n    tag_218:\n        /* \"#utility.yul\":1435:1441   */\n      0x00\n        /* \"#utility.yul\":1469:1474   */\n      dup2\n        /* \"#utility.yul\":1463:1475   */\n      mload\n        /* \"#utility.yul\":1453:1475   */\n      swap1\n      pop\n        /* \"#utility.yul\":1383:1482   */\n      swap2\n      swap1\n      pop\n      jump\t// out\n        /* \"#utility.yul\":1488:1657   */\n    tag_219:\n        /* \"#utility.yul\":1572:1583   */\n      0x00\n        /* \"#utility.yul\":1606:1612   */\n      dup3\n        /* \"#utility.yul\":1601:1604   */\n      dup3\n        /* \"#utility.yul\":1594:1613   */\n      mstore\n        /* \"#utility.yul\":1646:1650   */\n      0x20\n        /* \"#utility.yul\":1641:1644   */\n      dup3\n        /* \"#utility.yul\":1637:1651   */\n      add\n        /* \"#utility.yul\":1622:1651   */\n      swap1\n      pop\n        /* \"#utility.yul\":1488:1657   */\n      swap3\n      swap2\n      pop\n      pop\n      jump\t// out\n        /* \"#utility.yul\":1663:1802   */\n    tag_220:\n        /* \"#utility.yul\":1752:1758   */\n      dup3\n        /* \"#utility.yul\":1747:1750   */\n      dup2\n        /* \"#utility.yul\":1742:1745   */\n      dup4\n        /* \"#utility.yul\":1736:1759   */\n      mcopy\n        /* \"#utility.yul\":1793:1794   */\n      0x00\n        /* \"#utility.yul\":1784:1790   */\n      dup4\n        /* \"#utility.yul\":1779:1782   */\n      dup4\n        /* \"#utility.yul\":1775:1791   */\n      add\n        /* \"#utility.yul\":1768:1795   */\n      mstore\n        /* \"#utility.yul\":1663:1802   */\n      pop\n      pop\n      pop\n      jump\t// out\n        /* \"#utility.yul\":1808:1910   */\n    tag_221:\n        /* \"#utility.yul\":1849:1855   */\n      0x00\n        /* \"#utility.yul\":1900:1902   */\n      0x1f\n        /* \"#utility.yul\":1896:1903   */\n      not\n        /* \"#utility.yul\":1891:1893   */\n      0x1f\n        /* \"#utility.yul\":1884:1889   */\n      dup4\n        /* \"#utility.yul\":1880:1894   */\n      add\n        /* \"#utility.yul\":1876:1904   */\n      and\n        /* \"#utility.yul\":1866:1904   */\n      swap1\n      pop\n        /* \"#utility.yul\":1808:1910   */\n      swap2\n      swap1\n      pop\n      jump\t// out\n        /* \"#utility.yul\":1916:2293   */\n    tag_222:\n        /* \"#utility.yul\":2004:2007   */\n      0x00\n        /* \"#utility.yul\":2032:2071   */\n      tag_311\n        /* \"#utility.yul\":2065:2070   */\n      dup3\n        /* \"#utility.yul\":2032:2071   */\n      tag_218\n      jump\t// in\n    tag_311:\n        /* \"#utility.yul\":2087:2158   */\n      tag_312\n        /* \"#utility.yul\":2151:2157   */\n      dup2\n        /* \"#utility.yul\":2146:2149   */\n      dup6\n        /* \"#utility.yul\":2087:2158   */\n      tag_219\n      jump\t// in\n    tag_312:\n        /* \"#utility.yul\":2080:2158   */\n      swap4\n      pop\n        /* \"#utility.yul\":2167:2232   */\n      tag_313\n        /* \"#utility.yul\":2225:2231   */\n      dup2\n        /* \"#utility.yul\":2220:2223   */\n      dup6\n        /* \"#utility.yul\":2213:2217   */\n      0x20\n        /* \"#utility.yul\":2206:2211   */\n      dup7\n        /* \"#utility.yul\":2202:2218   */\n      add\n        /* \"#utility.yul\":2167:2232   */\n      tag_220\n      jump\t// in\n    tag_313:\n        /* \"#utility.yul\":2257:2286   */\n      tag_314\n        /* \"#utility.yul\":2279:2285   */\n      dup2\n        /* \"#utility.yul\":2257:2286   */\n      tag_221\n      jump\t// in\n    tag_314:\n        /* \"#utility.yul\":2252:2255   */\n      dup5\n        /* \"#utility.yul\":2248:2287   */\n      add\n        /* \"#utility.yul\":2241:2287   */\n      swap2\n      pop\n        /* \"#utility.yul\":2008:2293   */\n      pop\n        /* \"#utility.yul\":1916:2293   */\n      swap3\n      swap2\n      pop\n      pop\n      jump\t// out\n        /* \"#utility.yul\":2299:2417   */\n    tag_223:\n        /* \"#utility.yul\":2386:2410   */\n      tag_316\n        /* \"#utility.yul\":2404:2409   */\n      dup2\n        /* \"#utility.yul\":2386:2410   */\n      tag_212\n      jump\t// in\n    tag_316:\n        /* \"#utility.yul\":2381:2384   */\n      dup3\n        /* \"#utility.yul\":2374:2411   */\n      mstore\n        /* \"#utility.yul\":2299:2417   */\n      pop\n      pop\n      jump\t// out\n        /* \"#utility.yul\":2423:2513   */\n    tag_224:\n        /* \"#utility.yul\":2457:2464   */\n      0x00\n        /* \"#utility.yul\":2500:2505   */\n      dup2\n        /* \"#utility.yul\":2493:2506   */\n      iszero\n        /* \"#utility.yul\":2486:2507   */\n      iszero\n        /* \"#utility.yul\":2475:2507   */\n      swap1\n      pop\n        /* \"#utility.yul\":2423:2513   */\n      swap2\n      swap1\n      pop\n      jump\t// out\n        /* \"#utility.yul\":2519:2628   */\n    tag_225:\n        /* \"#utility.yul\":2600:2621   */\n      tag_319\n        /* \"#utility.yul\":2615:2620   */\n      dup2\n        /* \"#utility.yul\":2600:2621   */\n      tag_224\n      jump\t// in\n    tag_319:\n        /* \"#utility.yul\":2595:2598   */\n      dup3\n        /* \"#utility.yul\":2588:2622   */\n      mstore\n        /* \"#utility.yul\":2519:2628   */\n      pop\n      pop\n      jump\t// out\n        /* \"#utility.yul\":2634:3809   */\n    tag_28:\n        /* \"#utility.yul\":2959:2963   */\n      0x00\n        /* \"#utility.yul\":2997:3000   */\n      0x0120\n        /* \"#utility.yul\":2986:2995   */\n      dup3\n        /* \"#utility.yul\":2982:3001   */\n      add\n        /* \"#utility.yul\":2974:3001   */\n      swap1\n      pop\n        /* \"#utility.yul\":3011:3082   */\n      tag_321\n        /* \"#utility.yul\":3079:3080   */\n      0x00\n        /* \"#utility.yul\":3068:3077   */\n      dup4\n        /* \"#utility.yul\":3064:3081   */\n      add\n        /* \"#utility.yul\":3055:3061   */\n      dup13\n        /* \"#utility.yul\":3011:3082   */\n      tag_217\n      jump\t// in\n    tag_321:\n        /* \"#utility.yul\":3129:3138   */\n      dup2\n        /* \"#utility.yul\":3123:3127   */\n      dup2\n        /* \"#utility.yul\":3119:3139   */\n      sub\n        /* \"#utility.yul\":3114:3116   */\n      0x20\n        /* \"#utility.yul\":3103:3112   */\n      dup4\n        /* \"#utility.yul\":3099:3117   */\n      add\n        /* \"#utility.yul\":3092:3140   */\n      mstore\n        /* \"#utility.yul\":3157:3235   */\n      tag_322\n        /* \"#utility.yul\":3230:3234   */\n      dup2\n        /* \"#utility.yul\":3221:3227   */\n      dup12\n        /* \"#utility.yul\":3157:3235   */\n      tag_222\n      jump\t// in\n    tag_322:\n        /* \"#utility.yul\":3149:3235   */\n      swap1\n      pop\n        /* \"#utility.yul\":3245:3317   */\n      tag_323\n        /* \"#utility.yul\":3313:3315   */\n      0x40\n        /* \"#utility.yul\":3302:3311   */\n      dup4\n        /* \"#utility.yul\":3298:3316   */\n      add\n        /* \"#utility.yul\":3289:3295   */\n      dup11\n        /* \"#utility.yul\":3245:3317   */\n      tag_223\n      jump\t// in\n    tag_323:\n        /* \"#utility.yul\":3327:3399   */\n      tag_324\n        /* \"#utility.yul\":3395:3397   */\n      0x60\n        /* \"#utility.yul\":3384:3393   */\n      dup4\n        /* \"#utility.yul\":3380:3398   */\n      add\n        /* \"#utility.yul\":3371:3377   */\n      dup10\n        /* \"#utility.yul\":3327:3399   */\n      tag_223\n      jump\t// in\n    tag_324:\n        /* \"#utility.yul\":3409:3482   */\n      tag_325\n        /* \"#utility.yul\":3477:3480   */\n      0x80\n        /* \"#utility.yul\":3466:3475   */\n      dup4\n        /* \"#utility.yul\":3462:3481   */\n      add\n        /* \"#utility.yul\":3453:3459   */\n      dup9\n        /* \"#utility.yul\":3409:3482   */\n      tag_223\n      jump\t// in\n    tag_325:\n        /* \"#utility.yul\":3492:3565   */\n      tag_326\n        /* \"#utility.yul\":3560:3563   */\n      0xa0\n        /* \"#utility.yul\":3549:3558   */\n      dup4\n        /* \"#utility.yul\":3545:3564   */\n      add\n        /* \"#utility.yul\":3536:3542   */\n      dup8\n        /* \"#utility.yul\":3492:3565   */\n      tag_223\n      jump\t// in\n    tag_326:\n        /* \"#utility.yul\":3575:3642   */\n      tag_327\n        /* \"#utility.yul\":3637:3640   */\n      0xc0\n        /* \"#utility.yul\":3626:3635   */\n      dup4\n        /* \"#utility.yul\":3622:3641   */\n      add\n        /* \"#utility.yul\":3613:3619   */\n      dup7\n        /* \"#utility.yul\":3575:3642   */\n      tag_225\n      jump\t// in\n    tag_327:\n        /* \"#utility.yul\":3652:3719   */\n      tag_328\n        /* \"#utility.yul\":3714:3717   */\n      0xe0\n        /* \"#utility.yul\":3703:3712   */\n      dup4\n        /* \"#utility.yul\":3699:3718   */\n      add\n        /* \"#utility.yul\":3690:3696   */\n      dup6\n        /* \"#utility.yul\":3652:3719   */\n      tag_225\n      jump\t// in\n    tag_328:\n        /* \"#utility.yul\":3729:3802   */\n      tag_329\n        /* \"#utility.yul\":3797:3800   */\n      0x0100\n        /* \"#utility.yul\":3786:3795   */\n      dup4\n        /* \"#utility.yul\":3782:3801   */\n      add\n        /* \"#utility.yul\":3773:3779   */\n      dup5\n        /* \"#utility.yul\":3729:3802   */\n      tag_223\n      jump\t// in\n    tag_329:\n        /* \"#utility.yul\":2634:3809   */\n      swap11\n      swap10\n      pop\n      pop\n      pop\n      pop\n      pop\n      pop\n      pop\n      pop\n      pop\n      pop\n      jump\t// out\n        /* \"#utility.yul\":3815:4037   */\n    tag_35:\n        /* \"#utility.yul\":3908:3912   */\n      0x00\n        /* \"#utility.yul\":3946:3948   */\n      0x20\n        /* \"#utility.yul\":3935:3944   */\n      dup3\n        /* \"#utility.yul\":3931:3949   */\n      add\n        /* \"#utility.yul\":3923:3949   */\n      swap1\n      pop\n        /* \"#utility.yul\":3959:4030   */\n      tag_331\n        /* \"#utility.yul\":4027:4028   */\n      0x00\n        /* \"#utility.yul\":4016:4025   */\n      dup4\n        /* \"#utility.yul\":4012:4029   */\n      add\n        /* \"#utility.yul\":4003:4009   */\n      dup5\n        /* \"#utility.yul\":3959:4030   */\n      tag_223\n      jump\t// in\n    tag_331:\n        /* \"#utility.yul\":3815:4037   */\n      swap3\n      swap2\n      pop\n      pop\n      jump\t// out\n        /* \"#utility.yul\":4043:4165   */\n    tag_226:\n        /* \"#utility.yul\":4116:4140   */\n      tag_333\n        /* \"#utility.yul\":4134:4139   */\n      dup2\n        /* \"#utility.yul\":4116:4140   */\n      tag_216\n      jump\t// in\n    tag_333:\n        /* \"#utility.yul\":4109:4114   */\n      dup2\n        /* \"#utility.yul\":4106:4141   */\n      eq\n        /* \"#utility.yul\":4096:4159   */\n      tag_334\n      jumpi\n        /* \"#utility.yul\":4155:4156   */\n      0x00\n        /* \"#utility.yul\":4152:4153   */\n      0x00\n        /* \"#utility.yul\":4145:4157   */\n      revert\n        /* \"#utility.yul\":4096:4159   */\n    tag_334:\n        /* \"#utility.yul\":4043:4165   */\n      pop\n      jump\t// out\n        /* \"#utility.yul\":4171:4310   */\n    tag_227:\n        /* \"#utility.yul\":4217:4222   */\n      0x00\n        /* \"#utility.yul\":4255:4261   */\n      dup2\n        /* \"#utility.yul\":4242:4262   */\n      calldataload\n        /* \"#utility.yul\":4233:4262   */\n      swap1\n      pop\n        /* \"#utility.yul\":4271:4304   */\n      tag_336\n        /* \"#utility.yul\":4298:4303   */\n      dup2\n        /* \"#utility.yul\":4271:4304   */\n      tag_226\n      jump\t// in\n    tag_336:\n        /* \"#utility.yul\":4171:4310   */\n      swap3\n      swap2\n      pop\n      pop\n      jump\t// out\n        /* \"#utility.yul\":4316:4790   */\n    tag_53:\n        /* \"#utility.yul\":4384:4390   */\n      0x00\n        /* \"#utility.yul\":4392:4398   */\n      0x00\n        /* \"#utility.yul\":4441:4443   */\n      0x40\n        /* \"#utility.yul\":4429:4438   */\n      dup4\n        /* \"#utility.yul\":4420:4427   */\n      dup6\n        /* \"#utility.yul\":4416:4439   */\n      sub\n        /* \"#utility.yul\":4412:4444   */\n      slt\n        /* \"#utility.yul\":4409:4528   */\n      iszero\n      tag_338\n      jumpi\n        /* \"#utility.yul\":4447:4526   */\n      tag_339\n      tag_210\n      jump\t// in\n    tag_339:\n        /* \"#utility.yul\":4409:4528   */\n    tag_338:\n        /* \"#utility.yul\":4567:4568   */\n      0x00\n        /* \"#utility.yul\":4592:4645   */\n      tag_340\n        /* \"#utility.yul\":4637:4644   */\n      dup6\n        /* \"#utility.yul\":4628:4634   */\n      dup3\n        /* \"#utility.yul\":4617:4626   */\n      dup7\n        /* \"#utility.yul\":4613:4635   */\n      add\n        /* \"#utility.yul\":4592:4645   */\n      tag_214\n      jump\t// in\n    tag_340:\n        /* \"#utility.yul\":4582:4645   */\n      swap3\n      pop\n        /* \"#utility.yul\":4538:4655   */\n      pop\n        /* \"#utility.yul\":4694:4696   */\n      0x20\n        /* \"#utility.yul\":4720:4773   */\n      tag_341\n        /* \"#utility.yul\":4765:4772   */\n      dup6\n        /* \"#utility.yul\":4756:4762   */\n      dup3\n        /* \"#utility.yul\":4745:4754   */\n      dup7\n        /* \"#utility.yul\":4741:4763   */\n      add\n        /* \"#utility.yul\":4720:4773   */\n      tag_227\n      jump\t// in\n    tag_341:\n        /* \"#utility.yul\":4710:4773   */\n      swap2\n      pop\n        /* \"#utility.yul\":4665:4783   */\n      pop\n        /* \"#utility.yul\":4316:4790   */\n      swap3\n      pop\n      swap3\n      swap1\n      pop\n      jump\t// out\n        /* \"#utility.yul\":4796:5006   */\n    tag_56:\n        /* \"#utility.yul\":4883:4887   */\n      0x00\n        /* \"#utility.yul\":4921:4923   */\n      0x20\n        /* \"#utility.yul\":4910:4919   */\n      dup3\n        /* \"#utility.yul\":4906:4924   */\n      add\n        /* \"#utility.yul\":4898:4924   */\n      swap1\n      pop\n        /* \"#utility.yul\":4934:4999   */\n      tag_343\n        /* \"#utility.yul\":4996:4997   */\n      0x00\n        /* \"#utility.yul\":4985:4994   */\n      dup4\n        /* \"#utility.yul\":4981:4998   */\n      add\n        /* \"#utility.yul\":4972:4978   */\n      dup5\n        /* \"#utility.yul\":4934:4999   */\n      tag_225\n      jump\t// in\n    tag_343:\n        /* \"#utility.yul\":4796:5006   */\n      swap3\n      swap2\n      pop\n      pop\n      jump\t// out\n        /* \"#utility.yul\":5012:5129   */\n    tag_228:\n        /* \"#utility.yul\":5121:5122   */\n      0x00\n        /* \"#utility.yul\":5118:5119   */\n      0x00\n        /* \"#utility.yul\":5111:5123   */\n      revert\n        /* \"#utility.yul\":5135:5252   */\n    tag_229:\n        /* \"#utility.yul\":5244:5245   */\n      0x00\n        /* \"#utility.yul\":5241:5242   */\n      0x00\n        /* \"#utility.yul\":5234:5246   */\n      revert\n        /* \"#utility.yul\":5258:5438   */\n    tag_230:\n        /* \"#utility.yul\":5306:5383   */\n      0x4e487b7100000000000000000000000000000000000000000000000000000000\n        /* \"#utility.yul\":5303:5304   */\n      0x00\n        /* \"#utility.yul\":5296:5384   */\n      mstore\n        /* \"#utility.yul\":5403:5407   */\n      0x41\n        /* \"#utility.yul\":5400:5401   */\n      0x04\n        /* \"#utility.yul\":5393:5408   */\n      mstore\n        /* \"#utility.yul\":5427:5431   */\n      0x24\n        /* \"#utility.yul\":5424:5425   */\n      0x00\n        /* \"#utility.yul\":5417:5432   */\n      revert\n        /* \"#utility.yul\":5444:5725   */\n    tag_231:\n        /* \"#utility.yul\":5527:5554   */\n      tag_348\n        /* \"#utility.yul\":5549:5553   */\n      dup3\n        /* \"#utility.yul\":5527:5554   */\n      tag_221\n      jump\t// in\n    tag_348:\n        /* \"#utility.yul\":5519:5525   */\n      dup2\n        /* \"#utility.yul\":5515:5555   */\n      add\n        /* \"#utility.yul\":5657:5663   */\n      dup2\n        /* \"#utility.yul\":5645:5655   */\n      dup2\n        /* \"#utility.yul\":5642:5664   */\n      lt\n        /* \"#utility.yul\":5621:5639   */\n      0xffffffffffffffff\n        /* \"#utility.yul\":5609:5619   */\n      dup3\n        /* \"#utility.yul\":5606:5640   */\n      gt\n        /* \"#utility.yul\":5603:5665   */\n      or\n        /* \"#utility.yul\":5600:5688   */\n      iszero\n      tag_349\n      jumpi\n        /* \"#utility.yul\":5668:5686   */\n      tag_350\n      tag_230\n      jump\t// in\n    tag_350:\n        /* \"#utility.yul\":5600:5688   */\n    tag_349:\n        /* \"#utility.yul\":5708:5718   */\n      dup1\n        /* \"#utility.yul\":5704:5706   */\n      0x40\n        /* \"#utility.yul\":5697:5719   */\n      mstore\n        /* \"#utility.yul\":5487:5725   */\n      pop\n        /* \"#utility.yul\":5444:5725   */\n      pop\n      pop\n      jump\t// out\n        /* \"#utility.yul\":5731:5860   */\n    tag_232:\n        /* \"#utility.yul\":5765:5771   */\n      0x00\n        /* \"#utility.yul\":5792:5812   */\n      tag_352\n      tag_209\n      jump\t// in\n    tag_352:\n        /* \"#utility.yul\":5782:5812   */\n      swap1\n      pop\n        /* \"#utility.yul\":5821:5854   */\n      tag_353\n        /* \"#utility.yul\":5849:5853   */\n      dup3\n        /* \"#utility.yul\":5841:5847   */\n      dup3\n        /* \"#utility.yul\":5821:5854   */\n      tag_231\n      jump\t// in\n    tag_353:\n        /* \"#utility.yul\":5731:5860   */\n      swap2\n      swap1\n      pop\n      jump\t// out\n        /* \"#utility.yul\":5866:6174   */\n    tag_233:\n        /* \"#utility.yul\":5928:5932   */\n      0x00\n        /* \"#utility.yul\":6018:6036   */\n      0xffffffffffffffff\n        /* \"#utility.yul\":6010:6016   */\n      dup3\n        /* \"#utility.yul\":6007:6037   */\n      gt\n        /* \"#utility.yul\":6004:6060   */\n      iszero\n      tag_355\n      jumpi\n        /* \"#utility.yul\":6040:6058   */\n      tag_356\n      tag_230\n      jump\t// in\n    tag_356:\n        /* \"#utility.yul\":6004:6060   */\n    tag_355:\n        /* \"#utility.yul\":6078:6107   */\n      tag_357\n        /* \"#utility.yul\":6100:6106   */\n      dup3\n        /* \"#utility.yul\":6078:6107   */\n      tag_221\n      jump\t// in\n    tag_357:\n        /* \"#utility.yul\":6070:6107   */\n      swap1\n      pop\n        /* \"#utility.yul\":6162:6166   */\n      0x20\n        /* \"#utility.yul\":6156:6160   */\n      dup2\n        /* \"#utility.yul\":6152:6167   */\n      add\n        /* \"#utility.yul\":6144:6167   */\n      swap1\n      pop\n        /* \"#utility.yul\":5866:6174   */\n      swap2\n      swap1\n      pop\n      jump\t// out\n        /* \"#utility.yul\":6180:6328   */\n    tag_234:\n        /* \"#utility.yul\":6278:6284   */\n      dup3\n        /* \"#utility.yul\":6273:6276   */\n      dup2\n        /* \"#utility.yul\":6268:6271   */\n      dup4\n        /* \"#utility.yul\":6255:6285   */\n      calldatacopy\n        /* \"#utility.yul\":6319:6320   */\n      0x00\n        /* \"#utility.yul\":6310:6316   */\n      dup4\n        /* \"#utility.yul\":6305:6308   */\n      dup4\n        /* \"#utility.yul\":6301:6317   */\n      add\n        /* \"#utility.yul\":6294:6321   */\n      mstore\n        /* \"#utility.yul\":6180:6328   */\n      pop\n      pop\n      pop\n      jump\t// out\n        /* \"#utility.yul\":6334:6759   */\n    tag_235:\n        /* \"#utility.yul\":6412:6417   */\n      0x00\n        /* \"#utility.yul\":6437:6503   */\n      tag_360\n        /* \"#utility.yul\":6453:6502   */\n      tag_361\n        /* \"#utility.yul\":6495:6501   */\n      dup5\n        /* \"#utility.yul\":6453:6502   */\n      tag_233\n      jump\t// in\n    tag_361:\n        /* \"#utility.yul\":6437:6503   */\n      tag_232\n      jump\t// in\n    tag_360:\n        /* \"#utility.yul\":6428:6503   */\n      swap1\n      pop\n        /* \"#utility.yul\":6526:6532   */\n      dup3\n        /* \"#utility.yul\":6519:6524   */\n      dup2\n        /* \"#utility.yul\":6512:6533   */\n      mstore\n        /* \"#utility.yul\":6564:6568   */\n      0x20\n        /* \"#utility.yul\":6557:6562   */\n      dup2\n        /* \"#utility.yul\":6553:6569   */\n      add\n        /* \"#utility.yul\":6602:6605   */\n      dup5\n        /* \"#utility.yul\":6593:6599   */\n      dup5\n        /* \"#utility.yul\":6588:6591   */\n      dup5\n        /* \"#utility.yul\":6584:6600   */\n      add\n        /* \"#utility.yul\":6581:6606   */\n      gt\n        /* \"#utility.yul\":6578:6690   */\n      iszero\n      tag_362\n      jumpi\n        /* \"#utility.yul\":6609:6688   */\n      tag_363\n      tag_229\n      jump\t// in\n    tag_363:\n        /* \"#utility.yul\":6578:6690   */\n    tag_362:\n        /* \"#utility.yul\":6699:6753   */\n      tag_364\n        /* \"#utility.yul\":6746:6752   */\n      dup5\n        /* \"#utility.yul\":6741:6744   */\n      dup3\n        /* \"#utility.yul\":6736:6739   */\n      dup6\n        /* \"#utility.yul\":6699:6753   */\n      tag_234\n      jump\t// in\n    tag_364:\n        /* \"#utility.yul\":6418:6759   */\n      pop\n        /* \"#utility.yul\":6334:6759   */\n      swap4\n      swap3\n      pop\n      pop\n      pop\n      jump\t// out\n        /* \"#utility.yul\":6779:7119   */\n    tag_236:\n        /* \"#utility.yul\":6835:6840   */\n      0x00\n        /* \"#utility.yul\":6884:6887   */\n      dup3\n        /* \"#utility.yul\":6877:6881   */\n      0x1f\n        /* \"#utility.yul\":6869:6875   */\n      dup4\n        /* \"#utility.yul\":6865:6882   */\n      add\n        /* \"#utility.yul\":6861:6888   */\n      slt\n        /* \"#utility.yul\":6851:6973   */\n      tag_366\n      jumpi\n        /* \"#utility.yul\":6892:6971   */\n      tag_367\n      tag_228\n      jump\t// in\n    tag_367:\n        /* \"#utility.yul\":6851:6973   */\n    tag_366:\n        /* \"#utility.yul\":7009:7015   */\n      dup2\n        /* \"#utility.yul\":6996:7016   */\n      calldataload\n        /* \"#utility.yul\":7034:7113   */\n      tag_368\n        /* \"#utility.yul\":7109:7112   */\n      dup5\n        /* \"#utility.yul\":7101:7107   */\n      dup3\n        /* \"#utility.yul\":7094:7098   */\n      0x20\n        /* \"#utility.yul\":7086:7092   */\n      dup7\n        /* \"#utility.yul\":7082:7099   */\n      add\n        /* \"#utility.yul\":7034:7113   */\n      tag_235\n      jump\t// in\n    tag_368:\n        /* \"#utility.yul\":7025:7113   */\n      swap2\n      pop\n        /* \"#utility.yul\":6841:7119   */\n      pop\n        /* \"#utility.yul\":6779:7119   */\n      swap3\n      swap2\n      pop\n      pop\n      jump\t// out\n        /* \"#utility.yul\":7125:7634   */\n    tag_59:\n        /* \"#utility.yul\":7194:7200   */\n      0x00\n        /* \"#utility.yul\":7243:7245   */\n      0x20\n        /* \"#utility.yul\":7231:7240   */\n      dup3\n        /* \"#utility.yul\":7222:7229   */\n      dup5\n        /* \"#utility.yul\":7218:7241   */\n      sub\n        /* \"#utility.yul\":7214:7246   */\n      slt\n        /* \"#utility.yul\":7211:7330   */\n      iszero\n      tag_370\n      jumpi\n        /* \"#utility.yul\":7249:7328   */\n      tag_371\n      tag_210\n      jump\t// in\n    tag_371:\n        /* \"#utility.yul\":7211:7330   */\n    tag_370:\n        /* \"#utility.yul\":7397:7398   */\n      0x00\n        /* \"#utility.yul\":7386:7395   */\n      dup3\n        /* \"#utility.yul\":7382:7399   */\n      add\n        /* \"#utility.yul\":7369:7400   */\n      calldataload\n        /* \"#utility.yul\":7427:7445   */\n      0xffffffffffffffff\n        /* \"#utility.yul\":7419:7425   */\n      dup2\n        /* \"#utility.yul\":7416:7446   */\n      gt\n        /* \"#utility.yul\":7413:7530   */\n      iszero\n      tag_372\n      jumpi\n        /* \"#utility.yul\":7449:7528   */\n      tag_373\n      tag_211\n      jump\t// in\n    tag_373:\n        /* \"#utility.yul\":7413:7530   */\n    tag_372:\n        /* \"#utility.yul\":7554:7617   */\n      tag_374\n        /* \"#utility.yul\":7609:7616   */\n      dup5\n        /* \"#utility.yul\":7600:7606   */\n      dup3\n        /* \"#utility.yul\":7589:7598   */\n      dup6\n        /* \"#utility.yul\":7585:7607   */\n      add\n        /* \"#utility.yul\":7554:7617   */\n      tag_236\n      jump\t// in\n    tag_374:\n        /* \"#utility.yul\":7544:7617   */\n      swap2\n      pop\n        /* \"#utility.yul\":7340:7627   */\n      pop\n        /* \"#utility.yul\":7125:7634   */\n      swap3\n      swap2\n      pop\n      pop\n      jump\t// out\n        /* \"#utility.yul\":7640:7756   */\n    tag_237:\n        /* \"#utility.yul\":7710:7731   */\n      tag_376\n        /* \"#utility.yul\":7725:7730   */\n      dup2\n        /* \"#utility.yul\":7710:7731   */\n      tag_224\n      jump\t// in\n    tag_376:\n        /* \"#utility.yul\":7703:7708   */\n      dup2\n        /* \"#utility.yul\":7700:7732   */\n      eq\n        /* \"#utility.yul\":7690:7750   */\n      tag_377\n      jumpi\n        /* \"#utility.yul\":7746:7747   */\n      0x00\n        /* \"#utility.yul\":7743:7744   */\n      0x00\n        /* \"#utility.yul\":7736:7748   */\n      revert\n        /* \"#utility.yul\":7690:7750   */\n    tag_377:\n        /* \"#utility.yul\":7640:7756   */\n      pop\n      jump\t// out\n        /* \"#utility.yul\":7762:7895   */\n    tag_238:\n        /* \"#utility.yul\":7805:7810   */\n      0x00\n        /* \"#utility.yul\":7843:7849   */\n      dup2\n        /* \"#utility.yul\":7830:7850   */\n      calldataload\n        /* \"#utility.yul\":7821:7850   */\n      swap1\n      pop\n        /* \"#utility.yul\":7859:7889   */\n      tag_379\n        /* \"#utility.yul\":7883:7888   */\n      dup2\n        /* \"#utility.yul\":7859:7889   */\n      tag_237\n      jump\t// in\n    tag_379:\n        /* \"#utility.yul\":7762:7895   */\n      swap3\n      swap2\n      pop\n      pop\n      jump\t// out\n        /* \"#utility.yul\":7901:8369   */\n    tag_73:\n        /* \"#utility.yul\":7966:7972   */\n      0x00\n        /* \"#utility.yul\":7974:7980   */\n      0x00\n        /* \"#utility.yul\":8023:8025   */\n      0x40\n        /* \"#utility.yul\":8011:8020   */\n      dup4\n        /* \"#utility.yul\":8002:8009   */\n      dup6\n        /* \"#utility.yul\":7998:8021   */\n      sub\n        /* \"#utility.yul\":7994:8026   */\n      slt\n        /* \"#utility.yul\":7991:8110   */\n      iszero\n      tag_381\n      jumpi\n        /* \"#utility.yul\":8029:8108   */\n      tag_382\n      tag_210\n      jump\t// in\n    tag_382:\n        /* \"#utility.yul\":7991:8110   */\n    tag_381:\n        /* \"#utility.yul\":8149:8150   */\n      0x00\n        /* \"#utility.yul\":8174:8227   */\n      tag_383\n        /* \"#utility.yul\":8219:8226   */\n      dup6\n        /* \"#utility.yul\":8210:8216   */\n      dup3\n        /* \"#utility.yul\":8199:8208   */\n      dup7\n        /* \"#utility.yul\":8195:8217   */\n      add\n        /* \"#utility.yul\":8174:8227   */\n      tag_214\n      jump\t// in\n    tag_383:\n        /* \"#utility.yul\":8164:8227   */\n      swap3\n      pop\n        /* \"#utility.yul\":8120:8237   */\n      pop\n        /* \"#utility.yul\":8276:8278   */\n      0x20\n        /* \"#utility.yul\":8302:8352   */\n      tag_384\n        /* \"#utility.yul\":8344:8351   */\n      dup6\n        /* \"#utility.yul\":8335:8341   */\n      dup3\n        /* \"#utility.yul\":8324:8333   */\n      dup7\n        /* \"#utility.yul\":8320:8342   */\n      add\n        /* \"#utility.yul\":8302:8352   */\n      tag_238\n      jump\t// in\n    tag_384:\n        /* \"#utility.yul\":8292:8352   */\n      swap2\n      pop\n        /* \"#utility.yul\":8247:8362   */\n      pop\n        /* \"#utility.yul\":7901:8369   */\n      swap3\n      pop\n      swap3\n      swap1\n      pop\n      jump\t// out\n        /* \"#utility.yul\":8375:8597   */\n    tag_78:\n        /* \"#utility.yul\":8468:8472   */\n      0x00\n        /* \"#utility.yul\":8506:8508   */\n      0x20\n        /* \"#utility.yul\":8495:8504   */\n      dup3\n        /* \"#utility.yul\":8491:8509   */\n      add\n        /* \"#utility.yul\":8483:8509   */\n      swap1\n      pop\n        /* \"#utility.yul\":8519:8590   */\n      tag_386\n        /* \"#utility.yul\":8587:8588   */\n      0x00\n        /* \"#utility.yul\":8576:8585   */\n      dup4\n        /* \"#utility.yul\":8572:8589   */\n      add\n        /* \"#utility.yul\":8563:8569   */\n      dup5\n        /* \"#utility.yul\":8519:8590   */\n      tag_217\n      jump\t// in\n    tag_386:\n        /* \"#utility.yul\":8375:8597   */\n      swap3\n      swap2\n      pop\n      pop\n      jump\t// out\n        /* \"#utility.yul\":8603:9132   */\n    tag_83:\n        /* \"#utility.yul\":8768:8772   */\n      0x00\n        /* \"#utility.yul\":8806:8809   */\n      0x80\n        /* \"#utility.yul\":8795:8804   */\n      dup3\n        /* \"#utility.yul\":8791:8810   */\n      add\n        /* \"#utility.yul\":8783:8810   */\n      swap1\n      pop\n        /* \"#utility.yul\":8820:8885   */\n      tag_388\n        /* \"#utility.yul\":8882:8883   */\n      0x00\n        /* \"#utility.yul\":8871:8880   */\n      dup4\n        /* \"#utility.yul\":8867:8884   */\n      add\n        /* \"#utility.yul\":8858:8864   */\n      dup8\n        /* \"#utility.yul\":8820:8885   */\n      tag_225\n      jump\t// in\n    tag_388:\n        /* \"#utility.yul\":8895:8967   */\n      tag_389\n        /* \"#utility.yul\":8963:8965   */\n      0x20\n        /* \"#utility.yul\":8952:8961   */\n      dup4\n        /* \"#utility.yul\":8948:8966   */\n      add\n        /* \"#utility.yul\":8939:8945   */\n      dup7\n        /* \"#utility.yul\":8895:8967   */\n      tag_223\n      jump\t// in\n    tag_389:\n        /* \"#utility.yul\":8977:9049   */\n      tag_390\n        /* \"#utility.yul\":9045:9047   */\n      0x40\n        /* \"#utility.yul\":9034:9043   */\n      dup4\n        /* \"#utility.yul\":9030:9048   */\n      add\n        /* \"#utility.yul\":9021:9027   */\n      dup6\n        /* \"#utility.yul\":8977:9049   */\n      tag_223\n      jump\t// in\n    tag_390:\n        /* \"#utility.yul\":9059:9125   */\n      tag_391\n        /* \"#utility.yul\":9121:9123   */\n      0x60\n        /* \"#utility.yul\":9110:9119   */\n      dup4\n        /* \"#utility.yul\":9106:9124   */\n      add\n        /* \"#utility.yul\":9097:9103   */\n      dup5\n        /* \"#utility.yul\":9059:9125   */\n      tag_225\n      jump\t// in\n    tag_391:\n        /* \"#utility.yul\":8603:9132   */\n      swap6\n      swap5\n      pop\n      pop\n      pop\n      pop\n      pop\n      jump\t// out\n        /* \"#utility.yul\":9138:9198   */\n    tag_239:\n        /* \"#utility.yul\":9166:9169   */\n      0x00\n        /* \"#utility.yul\":9187:9192   */\n      dup2\n        /* \"#utility.yul\":9180:9192   */\n      swap1\n      pop\n        /* \"#utility.yul\":9138:9198   */\n      swap2\n      swap1\n      pop\n      jump\t// out\n        /* \"#utility.yul\":9204:9346   */\n    tag_240:\n        /* \"#utility.yul\":9254:9263   */\n      0x00\n        /* \"#utility.yul\":9287:9340   */\n      tag_394\n        /* \"#utility.yul\":9305:9339   */\n      tag_395\n        /* \"#utility.yul\":9314:9338   */\n      tag_396\n        /* \"#utility.yul\":9332:9337   */\n      dup5\n        /* \"#utility.yul\":9314:9338   */\n      tag_215\n      jump\t// in\n    tag_396:\n        /* \"#utility.yul\":9305:9339   */\n      tag_239\n      jump\t// in\n    tag_395:\n        /* \"#utility.yul\":9287:9340   */\n      tag_215\n      jump\t// in\n    tag_394:\n        /* \"#utility.yul\":9274:9340   */\n      swap1\n      pop\n        /* \"#utility.yul\":9204:9346   */\n      swap2\n      swap1\n      pop\n      jump\t// out\n        /* \"#utility.yul\":9352:9478   */\n    tag_241:\n        /* \"#utility.yul\":9402:9411   */\n      0x00\n        /* \"#utility.yul\":9435:9472   */\n      tag_398\n        /* \"#utility.yul\":9466:9471   */\n      dup3\n        /* \"#utility.yul\":9435:9472   */\n      tag_240\n      jump\t// in\n    tag_398:\n        /* \"#utility.yul\":9422:9472   */\n      swap1\n      pop\n        /* \"#utility.yul\":9352:9478   */\n      swap2\n      swap1\n      pop\n      jump\t// out\n        /* \"#utility.yul\":9484:9624   */\n    tag_242:\n        /* \"#utility.yul\":9548:9557   */\n      0x00\n        /* \"#utility.yul\":9581:9618   */\n      tag_400\n        /* \"#utility.yul\":9612:9617   */\n      dup3\n        /* \"#utility.yul\":9581:9618   */\n      tag_241\n      jump\t// in\n    tag_400:\n        /* \"#utility.yul\":9568:9618   */\n      swap1\n      pop\n        /* \"#utility.yul\":9484:9624   */\n      swap2\n      swap1\n      pop\n      jump\t// out\n        /* \"#utility.yul\":9630:9789   */\n    tag_243:\n        /* \"#utility.yul\":9731:9782   */\n      tag_402\n        /* \"#utility.yul\":9776:9781   */\n      dup2\n        /* \"#utility.yul\":9731:9782   */\n      tag_242\n      jump\t// in\n    tag_402:\n        /* \"#utility.yul\":9726:9729   */\n      dup3\n        /* \"#utility.yul\":9719:9783   */\n      mstore\n        /* \"#utility.yul\":9630:9789   */\n      pop\n      pop\n      jump\t// out\n        /* \"#utility.yul\":9795:10045   */\n    tag_87:\n        /* \"#utility.yul\":9902:9906   */\n      0x00\n        /* \"#utility.yul\":9940:9942   */\n      0x20\n        /* \"#utility.yul\":9929:9938   */\n      dup3\n        /* \"#utility.yul\":9925:9943   */\n      add\n        /* \"#utility.yul\":9917:9943   */\n      swap1\n      pop\n        /* \"#utility.yul\":9953:10038   */\n      tag_404\n        /* \"#utility.yul\":10035:10036   */\n      0x00\n        /* \"#utility.yul\":10024:10033   */\n      dup4\n        /* \"#utility.yul\":10020:10037   */\n      add\n        /* \"#utility.yul\":10011:10017   */\n      dup5\n        /* \"#utility.yul\":9953:10038   */\n      tag_243\n      jump\t// in\n    tag_404:\n        /* \"#utility.yul\":9795:10045   */\n      swap3\n      swap2\n      pop\n      pop\n      jump\t// out\n        /* \"#utility.yul\":10051:10231   */\n    tag_244:\n        /* \"#utility.yul\":10099:10176   */\n      0x4e487b7100000000000000000000000000000000000000000000000000000000\n        /* \"#utility.yul\":10096:10097   */\n      0x00\n        /* \"#utility.yul\":10089:10177   */\n      mstore\n        /* \"#utility.yul\":10196:10200   */\n      0x22\n        /* \"#utility.yul\":10193:10194   */\n      0x04\n        /* \"#utility.yul\":10186:10201   */\n      mstore\n        /* \"#utility.yul\":10220:10224   */\n      0x24\n        /* \"#utility.yul\":10217:10218   */\n      0x00\n        /* \"#utility.yul\":10210:10225   */\n      revert\n        /* \"#utility.yul\":10237:10557   */\n    tag_89:\n        /* \"#utility.yul\":10281:10287   */\n      0x00\n        /* \"#utility.yul\":10318:10319   */\n      0x02\n        /* \"#utility.yul\":10312:10316   */\n      dup3\n        /* \"#utility.yul\":10308:10320   */\n      div\n        /* \"#utility.yul\":10298:10320   */\n      swap1\n      pop\n        /* \"#utility.yul\":10365:10366   */\n      0x01\n        /* \"#utility.yul\":10359:10363   */\n      dup3\n        /* \"#utility.yul\":10355:10367   */\n      and\n        /* \"#utility.yul\":10386:10404   */\n      dup1\n        /* \"#utility.yul\":10376:10457   */\n      tag_407\n      jumpi\n        /* \"#utility.yul\":10442:10446   */\n      0x7f\n        /* \"#utility.yul\":10434:10440   */\n      dup3\n        /* \"#utility.yul\":10430:10447   */\n      and\n        /* \"#utility.yul\":10420:10447   */\n      swap2\n      pop\n        /* \"#utility.yul\":10376:10457   */\n    tag_407:\n        /* \"#utility.yul\":10504:10506   */\n      0x20\n        /* \"#utility.yul\":10496:10502   */\n      dup3\n        /* \"#utility.yul\":10493:10507   */\n      lt\n        /* \"#utility.yul\":10473:10491   */\n      dup2\n        /* \"#utility.yul\":10470:10508   */\n      sub\n        /* \"#utility.yul\":10467:10551   */\n      tag_408\n      jumpi\n        /* \"#utility.yul\":10523:10541   */\n      tag_409\n      tag_244\n      jump\t// in\n    tag_409:\n        /* \"#utility.yul\":10467:10551   */\n    tag_408:\n        /* \"#utility.yul\":10288:10557   */\n      pop\n        /* \"#utility.yul\":10237:10557   */\n      swap2\n      swap1\n      pop\n      jump\t// out\n        /* \"#utility.yul\":10563:10728   */\n    tag_245:\n        /* \"#utility.yul\":10703:10720   */\n      0x4e6f2074696d656c6f636b207365740000000000000000000000000000000000\n        /* \"#utility.yul\":10699:10700   */\n      0x00\n        /* \"#utility.yul\":10691:10697   */\n      dup3\n        /* \"#utility.yul\":10687:10701   */\n      add\n        /* \"#utility.yul\":10680:10721   */\n      mstore\n        /* \"#utility.yul\":10563:10728   */\n      pop\n      jump\t// out\n        /* \"#utility.yul\":10734:11100   */\n    tag_246:\n        /* \"#utility.yul\":10876:10879   */\n      0x00\n        /* \"#utility.yul\":10897:10964   */\n      tag_412\n        /* \"#utility.yul\":10961:10963   */\n      0x0f\n        /* \"#utility.yul\":10956:10959   */\n      dup4\n        /* \"#utility.yul\":10897:10964   */\n      tag_219\n      jump\t// in\n    tag_412:\n        /* \"#utility.yul\":10890:10964   */\n      swap2\n      pop\n        /* \"#utility.yul\":10973:11066   */\n      tag_413\n        /* \"#utility.yul\":11062:11065   */\n      dup3\n        /* \"#utility.yul\":10973:11066   */\n      tag_245\n      jump\t// in\n    tag_413:\n        /* \"#utility.yul\":11091:11093   */\n      0x20\n        /* \"#utility.yul\":11086:11089   */\n      dup3\n        /* \"#utility.yul\":11082:11094   */\n      add\n        /* \"#utility.yul\":11075:11094   */\n      swap1\n      pop\n        /* \"#utility.yul\":10734:11100   */\n      swap2\n      swap1\n      pop\n      jump\t// out\n        /* \"#utility.yul\":11106:11525   */\n    tag_97:\n        /* \"#utility.yul\":11272:11276   */\n      0x00\n        /* \"#utility.yul\":11310:11312   */\n      0x20\n        /* \"#utility.yul\":11299:11308   */\n      dup3\n        /* \"#utility.yul\":11295:11313   */\n      add\n        /* \"#utility.yul\":11287:11313   */\n      swap1\n      pop\n        /* \"#utility.yul\":11359:11368   */\n      dup2\n        /* \"#utility.yul\":11353:11357   */\n      dup2\n        /* \"#utility.yul\":11349:11369   */\n      sub\n        /* \"#utility.yul\":11345:11346   */\n      0x00\n        /* \"#utility.yul\":11334:11343   */\n      dup4\n        /* \"#utility.yul\":11330:11347   */\n      add\n        /* \"#utility.yul\":11323:11370   */\n      mstore\n        /* \"#utility.yul\":11387:11518   */\n      tag_415\n        /* \"#utility.yul\":11513:11517   */\n      dup2\n        /* \"#utility.yul\":11387:11518   */\n      tag_246\n      jump\t// in\n    tag_415:\n        /* \"#utility.yul\":11379:11518   */\n      swap1\n      pop\n        /* \"#utility.yul\":11106:11525   */\n      swap2\n      swap1\n      pop\n      jump\t// out\n        /* \"#utility.yul\":11531:11699   */\n    tag_247:\n        /* \"#utility.yul\":11671:11691   */\n      0x54696d656c6f636b206e6f7420656e6465640000000000000000000000000000\n        /* \"#utility.yul\":11667:11668   */\n      0x00\n        /* \"#utility.yul\":11659:11665   */\n      dup3\n        /* \"#utility.yul\":11655:11669   */\n      add\n        /* \"#utility.yul\":11648:11692   */\n      mstore\n        /* \"#utility.yul\":11531:11699   */\n      pop\n      jump\t// out\n        /* \"#utility.yul\":11705:12071   */\n    tag_248:\n        /* \"#utility.yul\":11847:11850   */\n      0x00\n        /* \"#utility.yul\":11868:11935   */\n      tag_418\n        /* \"#utility.yul\":11932:11934   */\n      0x12\n        /* \"#utility.yul\":11927:11930   */\n      dup4\n        /* \"#utility.yul\":11868:11935   */\n      tag_219\n      jump\t// in\n    tag_418:\n        /* \"#utility.yul\":11861:11935   */\n      swap2\n      pop\n        /* \"#utility.yul\":11944:12037   */\n      tag_419\n        /* \"#utility.yul\":12033:12036   */\n      dup3\n        /* \"#utility.yul\":11944:12037   */\n      tag_247\n      jump\t// in\n    tag_419:\n        /* \"#utility.yul\":12062:12064   */\n      0x20\n        /* \"#utility.yul\":12057:12060   */\n      dup3\n        /* \"#utility.yul\":12053:12065   */\n      add\n        /* \"#utility.yul\":12046:12065   */\n      swap1\n      pop\n        /* \"#utility.yul\":11705:12071   */\n      swap2\n      swap1\n      pop\n      jump\t// out\n        /* \"#utility.yul\":12077:12496   */\n    tag_100:\n        /* \"#utility.yul\":12243:12247   */\n      0x00\n        /* \"#utility.yul\":12281:12283   */\n      0x20\n        /* \"#utility.yul\":12270:12279   */\n      dup3\n        /* \"#utility.yul\":12266:12284   */\n      add\n        /* \"#utility.yul\":12258:12284   */\n      swap1\n      pop\n        /* \"#utility.yul\":12330:12339   */\n      dup2\n        /* \"#utility.yul\":12324:12328   */\n      dup2\n        /* \"#utility.yul\":12320:12340   */\n      sub\n        /* \"#utility.yul\":12316:12317   */\n      0x00\n        /* \"#utility.yul\":12305:12314   */\n      dup4\n        /* \"#utility.yul\":12301:12318   */\n      add\n        /* \"#utility.yul\":12294:12341   */\n      mstore\n        /* \"#utility.yul\":12358:12489   */\n      tag_421\n        /* \"#utility.yul\":12484:12488   */\n      dup2\n        /* \"#utility.yul\":12358:12489   */\n      tag_248\n      jump\t// in\n    tag_421:\n        /* \"#utility.yul\":12350:12489   */\n      swap1\n      pop\n        /* \"#utility.yul\":12077:12496   */\n      swap2\n      swap1\n      pop\n      jump\t// out\n        /* \"#utility.yul\":12502:12668   */\n    tag_249:\n        /* \"#utility.yul\":12642:12660   */\n      0x416c726561647920657865637574656400000000000000000000000000000000\n        /* \"#utility.yul\":12638:12639   */\n      0x00\n        /* \"#utility.yul\":12630:12636   */\n      dup3\n        /* \"#utility.yul\":12626:12640   */\n      add\n        /* \"#utility.yul\":12619:12661   */\n      mstore\n        /* \"#utility.yul\":12502:12668   */\n      pop\n      jump\t// out\n        /* \"#utility.yul\":12674:13040   */\n    tag_250:\n        /* \"#utility.yul\":12816:12819   */\n      0x00\n        /* \"#utility.yul\":12837:12904   */\n      tag_424\n        /* \"#utility.yul\":12901:12903   */\n      0x10\n        /* \"#utility.yul\":12896:12899   */\n      dup4\n        /* \"#utility.yul\":12837:12904   */\n      tag_219\n      jump\t// in\n    tag_424:\n        /* \"#utility.yul\":12830:12904   */\n      swap2\n      pop\n        /* \"#utility.yul\":12913:13006   */\n      tag_425\n        /* \"#utility.yul\":13002:13005   */\n      dup3\n        /* \"#utility.yul\":12913:13006   */\n      tag_249\n      jump\t// in\n    tag_425:\n        /* \"#utility.yul\":13031:13033   */\n      0x20\n        /* \"#utility.yul\":13026:13029   */\n      dup3\n        /* \"#utility.yul\":13022:13034   */\n      add\n        /* \"#utility.yul\":13015:13034   */\n      swap1\n      pop\n        /* \"#utility.yul\":12674:13040   */\n      swap2\n      swap1\n      pop\n      jump\t// out\n        /* \"#utility.yul\":13046:13465   */\n    tag_103:\n        /* \"#utility.yul\":13212:13216   */\n      0x00\n        /* \"#utility.yul\":13250:13252   */\n      0x20\n        /* \"#utility.yul\":13239:13248   */\n      dup3\n        /* \"#utility.yul\":13235:13253   */\n      add\n        /* \"#utility.yul\":13227:13253   */\n      swap1\n      pop\n        /* \"#utility.yul\":13299:13308   */\n      dup2\n        /* \"#utility.yul\":13293:13297   */\n      dup2\n        /* \"#utility.yul\":13289:13309   */\n      sub\n        /* \"#utility.yul\":13285:13286   */\n      0x00\n        /* \"#utility.yul\":13274:13283   */\n      dup4\n        /* \"#utility.yul\":13270:13287   */\n      add\n        /* \"#utility.yul\":13263:13310   */\n      mstore\n        /* \"#utility.yul\":13327:13458   */\n      tag_427\n        /* \"#utility.yul\":13453:13457   */\n      dup2\n        /* \"#utility.yul\":13327:13458   */\n      tag_250\n      jump\t// in\n    tag_427:\n        /* \"#utility.yul\":13319:13458   */\n      swap1\n      pop\n        /* \"#utility.yul\":13046:13465   */\n      swap2\n      swap1\n      pop\n      jump\t// out\n        /* \"#utility.yul\":13471:13629   */\n    tag_251:\n        /* \"#utility.yul\":13611:13621   */\n      0x43616e63656c6564000000000000000000000000000000000000000000000000\n        /* \"#utility.yul\":13607:13608   */\n      0x00\n        /* \"#utility.yul\":13599:13605   */\n      dup3\n        /* \"#utility.yul\":13595:13609   */\n      add\n        /* \"#utility.yul\":13588:13622   */\n      mstore\n        /* \"#utility.yul\":13471:13629   */\n      pop\n      jump\t// out\n        /* \"#utility.yul\":13635:14000   */\n    tag_252:\n        /* \"#utility.yul\":13777:13780   */\n      0x00\n        /* \"#utility.yul\":13798:13864   */\n      tag_430\n        /* \"#utility.yul\":13862:13863   */\n      0x08\n        /* \"#utility.yul\":13857:13860   */\n      dup4\n        /* \"#utility.yul\":13798:13864   */\n      tag_219\n      jump\t// in\n    tag_430:\n        /* \"#utility.yul\":13791:13864   */\n      swap2\n      pop\n        /* \"#utility.yul\":13873:13966   */\n      tag_431\n        /* \"#utility.yul\":13962:13965   */\n      dup3\n        /* \"#utility.yul\":13873:13966   */\n      tag_251\n      jump\t// in\n    tag_431:\n        /* \"#utility.yul\":13991:13993   */\n      0x20\n        /* \"#utility.yul\":13986:13989   */\n      dup3\n        /* \"#utility.yul\":13982:13994   */\n      add\n        /* \"#utility.yul\":13975:13994   */\n      swap1\n      pop\n        /* \"#utility.yul\":13635:14000   */\n      swap2\n      swap1\n      pop\n      jump\t// out\n        /* \"#utility.yul\":14006:14425   */\n    tag_106:\n        /* \"#utility.yul\":14172:14176   */\n      0x00\n        /* \"#utility.yul\":14210:14212   */\n      0x20\n        /* \"#utility.yul\":14199:14208   */\n      dup3\n        /* \"#utility.yul\":14195:14213   */\n      add\n        /* \"#utility.yul\":14187:14213   */\n      swap1\n      pop\n        /* \"#utility.yul\":14259:14268   */\n      dup2\n        /* \"#utility.yul\":14253:14257   */\n      dup2\n        /* \"#utility.yul\":14249:14269   */\n      sub\n        /* \"#utility.yul\":14245:14246   */\n      0x00\n        /* \"#utility.yul\":14234:14243   */\n      dup4\n        /* \"#utility.yul\":14230:14247   */\n      add\n        /* \"#utility.yul\":14223:14270   */\n      mstore\n        /* \"#utility.yul\":14287:14418   */\n      tag_433\n        /* \"#utility.yul\":14413:14417   */\n      dup2\n        /* \"#utility.yul\":14287:14418   */\n      tag_252\n      jump\t// in\n    tag_433:\n        /* \"#utility.yul\":14279:14418   */\n      swap1\n      pop\n        /* \"#utility.yul\":14006:14425   */\n      swap2\n      swap1\n      pop\n      jump\t// out\n        /* \"#utility.yul\":14431:14590   */\n    tag_253:\n        /* \"#utility.yul\":14571:14582   */\n      0x4e6f742061646d696e0000000000000000000000000000000000000000000000\n        /* \"#utility.yul\":14567:14568   */\n      0x00\n        /* \"#utility.yul\":14559:14565   */\n      dup3\n        /* \"#utility.yul\":14555:14569   */\n      add\n        /* \"#utility.yul\":14548:14583   */\n      mstore\n        /* \"#utility.yul\":14431:14590   */\n      pop\n      jump\t// out\n        /* \"#utility.yul\":14596:14961   */\n    tag_254:\n        /* \"#utility.yul\":14738:14741   */\n      0x00\n        /* \"#utility.yul\":14759:14825   */\n      tag_436\n        /* \"#utility.yul\":14823:14824   */\n      0x09\n        /* \"#utility.yul\":14818:14821   */\n      dup4\n        /* \"#utility.yul\":14759:14825   */\n      tag_219\n      jump\t// in\n    tag_436:\n        /* \"#utility.yul\":14752:14825   */\n      swap2\n      pop\n        /* \"#utility.yul\":14834:14927   */\n      tag_437\n        /* \"#utility.yul\":14923:14926   */\n      dup3\n        /* \"#utility.yul\":14834:14927   */\n      tag_253\n      jump\t// in\n    tag_437:\n        /* \"#utility.yul\":14952:14954   */\n      0x20\n        /* \"#utility.yul\":14947:14950   */\n      dup3\n        /* \"#utility.yul\":14943:14955   */\n      add\n        /* \"#utility.yul\":14936:14955   */\n      swap1\n      pop\n        /* \"#utility.yul\":14596:14961   */\n      swap2\n      swap1\n      pop\n      jump\t// out\n        /* \"#utility.yul\":14967:15386   */\n    tag_112:\n        /* \"#utility.yul\":15133:15137   */\n      0x00\n        /* \"#utility.yul\":15171:15173   */\n      0x20\n        /* \"#utility.yul\":15160:15169   */\n      dup3\n        /* \"#utility.yul\":15156:15174   */\n      add\n        /* \"#utility.yul\":15148:15174   */\n      swap1\n      pop\n        /* \"#utility.yul\":15220:15229   */\n      dup2\n        /* \"#utility.yul\":15214:15218   */\n      dup2\n        /* \"#utility.yul\":15210:15230   */\n      sub\n        /* \"#utility.yul\":15206:15207   */\n      0x00\n        /* \"#utility.yul\":15195:15204   */\n      dup4\n        /* \"#utility.yul\":15191:15208   */\n      add\n        /* \"#utility.yul\":15184:15231   */\n      mstore\n        /* \"#utility.yul\":15248:15379   */\n      tag_439\n        /* \"#utility.yul\":15374:15378   */\n      dup2\n        /* \"#utility.yul\":15248:15379   */\n      tag_254\n      jump\t// in\n    tag_439:\n        /* \"#utility.yul\":15240:15379   */\n      swap1\n      pop\n        /* \"#utility.yul\":14967:15386   */\n      swap2\n      swap1\n      pop\n      jump\t// out\n        /* \"#utility.yul\":15392:15622   */\n    tag_255:\n        /* \"#utility.yul\":15532:15566   */\n      0x51756f72756d2070657263656e74616765206d75737420626520626574776565\n        /* \"#utility.yul\":15528:15529   */\n      0x00\n        /* \"#utility.yul\":15520:15526   */\n      dup3\n        /* \"#utility.yul\":15516:15530   */\n      add\n        /* \"#utility.yul\":15509:15567   */\n      mstore\n        /* \"#utility.yul\":15601:15614   */\n      0x6e203020616e6420313030000000000000000000000000000000000000000000\n        /* \"#utility.yul\":15596:15598   */\n      0x20\n        /* \"#utility.yul\":15588:15594   */\n      dup3\n        /* \"#utility.yul\":15584:15599   */\n      add\n        /* \"#utility.yul\":15577:15615   */\n      mstore\n        /* \"#utility.yul\":15392:15622   */\n      pop\n      jump\t// out\n        /* \"#utility.yul\":15628:15994   */\n    tag_256:\n        /* \"#utility.yul\":15770:15773   */\n      0x00\n        /* \"#utility.yul\":15791:15858   */\n      tag_442\n        /* \"#utility.yul\":15855:15857   */\n      0x2b\n        /* \"#utility.yul\":15850:15853   */\n      dup4\n        /* \"#utility.yul\":15791:15858   */\n      tag_219\n      jump\t// in\n    tag_442:\n        /* \"#utility.yul\":15784:15858   */\n      swap2\n      pop\n        /* \"#utility.yul\":15867:15960   */\n      tag_443\n        /* \"#utility.yul\":15956:15959   */\n      dup3\n        /* \"#utility.yul\":15867:15960   */\n      tag_255\n      jump\t// in\n    tag_443:\n        /* \"#utility.yul\":15985:15987   */\n      0x40\n        /* \"#utility.yul\":15980:15983   */\n      dup3\n        /* \"#utility.yul\":15976:15988   */\n      add\n        /* \"#utility.yul\":15969:15988   */\n      swap1\n      pop\n        /* \"#utility.yul\":15628:15994   */\n      swap2\n      swap1\n      pop\n      jump\t// out\n        /* \"#utility.yul\":16000:16419   */\n    tag_121:\n        /* \"#utility.yul\":16166:16170   */\n      0x00\n        /* \"#utility.yul\":16204:16206   */\n      0x20\n        /* \"#utility.yul\":16193:16202   */\n      dup3\n        /* \"#utility.yul\":16189:16207   */\n      add\n        /* \"#utility.yul\":16181:16207   */\n      swap1\n      pop\n        /* \"#utility.yul\":16253:16262   */\n      dup2\n        /* \"#utility.yul\":16247:16251   */\n      dup2\n        /* \"#utility.yul\":16243:16263   */\n      sub\n        /* \"#utility.yul\":16239:16240   */\n      0x00\n        /* \"#utility.yul\":16228:16237   */\n      dup4\n        /* \"#utility.yul\":16224:16241   */\n      add\n        /* \"#utility.yul\":16217:16264   */\n      mstore\n        /* \"#utility.yul\":16281:16412   */\n      tag_445\n        /* \"#utility.yul\":16407:16411   */\n      dup2\n        /* \"#utility.yul\":16281:16412   */\n      tag_256\n      jump\t// in\n    tag_445:\n        /* \"#utility.yul\":16273:16412   */\n      swap1\n      pop\n        /* \"#utility.yul\":16000:16419   */\n      swap2\n      swap1\n      pop\n      jump\t// out\n        /* \"#utility.yul\":16425:16592   */\n    tag_257:\n        /* \"#utility.yul\":16565:16584   */\n      0x456d707479206465736372697074696f6e000000000000000000000000000000\n        /* \"#utility.yul\":16561:16562   */\n      0x00\n        /* \"#utility.yul\":16553:16559   */\n      dup3\n        /* \"#utility.yul\":16549:16563   */\n      add\n        /* \"#utility.yul\":16542:16585   */\n      mstore\n        /* \"#utility.yul\":16425:16592   */\n      pop\n      jump\t// out\n        /* \"#utility.yul\":16598:16964   */\n    tag_258:\n        /* \"#utility.yul\":16740:16743   */\n      0x00\n        /* \"#utility.yul\":16761:16828   */\n      tag_448\n        /* \"#utility.yul\":16825:16827   */\n      0x11\n        /* \"#utility.yul\":16820:16823   */\n      dup4\n        /* \"#utility.yul\":16761:16828   */\n      tag_219\n      jump\t// in\n    tag_448:\n        /* \"#utility.yul\":16754:16828   */\n      swap2\n      pop\n        /* \"#utility.yul\":16837:16930   */\n      tag_449\n        /* \"#utility.yul\":16926:16929   */\n      dup3\n        /* \"#utility.yul\":16837:16930   */\n      tag_257\n      jump\t// in\n    tag_449:\n        /* \"#utility.yul\":16955:16957   */\n      0x20\n        /* \"#utility.yul\":16950:16953   */\n      dup3\n        /* \"#utility.yul\":16946:16958   */\n      add\n        /* \"#utility.yul\":16939:16958   */\n      swap1\n      pop\n        /* \"#utility.yul\":16598:16964   */\n      swap2\n      swap1\n      pop\n      jump\t// out\n        /* \"#utility.yul\":16970:17389   */\n    tag_125:\n        /* \"#utility.yul\":17136:17140   */\n      0x00\n        /* \"#utility.yul\":17174:17176   */\n      0x20\n        /* \"#utility.yul\":17163:17172   */\n      dup3\n        /* \"#utility.yul\":17159:17177   */\n      add\n        /* \"#utility.yul\":17151:17177   */\n      swap1\n      pop\n        /* \"#utility.yul\":17223:17232   */\n      dup2\n        /* \"#utility.yul\":17217:17221   */\n      dup2\n        /* \"#utility.yul\":17213:17233   */\n      sub\n        /* \"#utility.yul\":17209:17210   */\n      0x00\n        /* \"#utility.yul\":17198:17207   */\n      dup4\n        /* \"#utility.yul\":17194:17211   */\n      add\n        /* \"#utility.yul\":17187:17234   */\n      mstore\n        /* \"#utility.yul\":17251:17382   */\n      tag_451\n        /* \"#utility.yul\":17377:17381   */\n      dup2\n        /* \"#utility.yul\":17251:17382   */\n      tag_258\n      jump\t// in\n    tag_451:\n        /* \"#utility.yul\":17243:17382   */\n      swap1\n      pop\n        /* \"#utility.yul\":16970:17389   */\n      swap2\n      swap1\n      pop\n      jump\t// out\n        /* \"#utility.yul\":17395:17837   */\n    tag_128:\n        /* \"#utility.yul\":17544:17548   */\n      0x00\n        /* \"#utility.yul\":17582:17584   */\n      0x60\n        /* \"#utility.yul\":17571:17580   */\n      dup3\n        /* \"#utility.yul\":17567:17585   */\n      add\n        /* \"#utility.yul\":17559:17585   */\n      swap1\n      pop\n        /* \"#utility.yul\":17595:17666   */\n      tag_453\n        /* \"#utility.yul\":17663:17664   */\n      0x00\n        /* \"#utility.yul\":17652:17661   */\n      dup4\n        /* \"#utility.yul\":17648:17665   */\n      add\n        /* \"#utility.yul\":17639:17645   */\n      dup7\n        /* \"#utility.yul\":17595:17666   */\n      tag_217\n      jump\t// in\n    tag_453:\n        /* \"#utility.yul\":17676:17748   */\n      tag_454\n        /* \"#utility.yul\":17744:17746   */\n      0x20\n        /* \"#utility.yul\":17733:17742   */\n      dup4\n        /* \"#utility.yul\":17729:17747   */\n      add\n        /* \"#utility.yul\":17720:17726   */\n      dup6\n        /* \"#utility.yul\":17676:17748   */\n      tag_217\n      jump\t// in\n    tag_454:\n        /* \"#utility.yul\":17758:17830   */\n      tag_455\n        /* \"#utility.yul\":17826:17828   */\n      0x40\n        /* \"#utility.yul\":17815:17824   */\n      dup4\n        /* \"#utility.yul\":17811:17829   */\n      add\n        /* \"#utility.yul\":17802:17808   */\n      dup5\n        /* \"#utility.yul\":17758:17830   */\n      tag_223\n      jump\t// in\n    tag_455:\n        /* \"#utility.yul\":17395:17837   */\n      swap5\n      swap4\n      pop\n      pop\n      pop\n      pop\n      jump\t// out\n        /* \"#utility.yul\":17843:17980   */\n    tag_259:\n        /* \"#utility.yul\":17897:17902   */\n      0x00\n        /* \"#utility.yul\":17928:17934   */\n      dup2\n        /* \"#utility.yul\":17922:17935   */\n      mload\n        /* \"#utility.yul\":17913:17935   */\n      swap1\n      pop\n        /* \"#utility.yul\":17944:17974   */\n      tag_457\n        /* \"#utility.yul\":17968:17973   */\n      dup2\n        /* \"#utility.yul\":17944:17974   */\n      tag_237\n      jump\t// in\n    tag_457:\n        /* \"#utility.yul\":17843:17980   */\n      swap3\n      swap2\n      pop\n      pop\n      jump\t// out\n        /* \"#utility.yul\":17986:18331   */\n    tag_132:\n        /* \"#utility.yul\":18053:18059   */\n      0x00\n        /* \"#utility.yul\":18102:18104   */\n      0x20\n        /* \"#utility.yul\":18090:18099   */\n      dup3\n        /* \"#utility.yul\":18081:18088   */\n      dup5\n        /* \"#utility.yul\":18077:18100   */\n      sub\n        /* \"#utility.yul\":18073:18105   */\n      slt\n        /* \"#utility.yul\":18070:18189   */\n      iszero\n      tag_459\n      jumpi\n        /* \"#utility.yul\":18108:18187   */\n      tag_460\n      tag_210\n      jump\t// in\n    tag_460:\n        /* \"#utility.yul\":18070:18189   */\n    tag_459:\n        /* \"#utility.yul\":18228:18229   */\n      0x00\n        /* \"#utility.yul\":18253:18314   */\n      tag_461\n        /* \"#utility.yul\":18306:18313   */\n      dup5\n        /* \"#utility.yul\":18297:18303   */\n      dup3\n        /* \"#utility.yul\":18286:18295   */\n      dup6\n        /* \"#utility.yul\":18282:18304   */\n      add\n        /* \"#utility.yul\":18253:18314   */\n      tag_259\n      jump\t// in\n    tag_461:\n        /* \"#utility.yul\":18243:18314   */\n      swap2\n      pop\n        /* \"#utility.yul\":18199:18324   */\n      pop\n        /* \"#utility.yul\":17986:18331   */\n      swap3\n      swap2\n      pop\n      pop\n      jump\t// out\n        /* \"#utility.yul\":18337:18517   */\n    tag_260:\n        /* \"#utility.yul\":18385:18462   */\n      0x4e487b7100000000000000000000000000000000000000000000000000000000\n        /* \"#utility.yul\":18382:18383   */\n      0x00\n        /* \"#utility.yul\":18375:18463   */\n      mstore\n        /* \"#utility.yul\":18482:18486   */\n      0x11\n        /* \"#utility.yul\":18479:18480   */\n      0x04\n        /* \"#utility.yul\":18472:18487   */\n      mstore\n        /* \"#utility.yul\":18506:18510   */\n      0x24\n        /* \"#utility.yul\":18503:18504   */\n      0x00\n        /* \"#utility.yul\":18496:18511   */\n      revert\n        /* \"#utility.yul\":18523:18756   */\n    tag_134:\n        /* \"#utility.yul\":18562:18565   */\n      0x00\n        /* \"#utility.yul\":18585:18609   */\n      tag_464\n        /* \"#utility.yul\":18603:18608   */\n      dup3\n        /* \"#utility.yul\":18585:18609   */\n      tag_212\n      jump\t// in\n    tag_464:\n        /* \"#utility.yul\":18576:18609   */\n      swap2\n      pop\n        /* \"#utility.yul\":18631:18697   */\n      0xffffffffffffffffffffffffffffffffffffffffffffffffffffffffffffffff\n        /* \"#utility.yul\":18624:18629   */\n      dup3\n        /* \"#utility.yul\":18621:18698   */\n      sub\n        /* \"#utility.yul\":18618:18721   */\n      tag_465\n      jumpi\n        /* \"#utility.yul\":18701:18719   */\n      tag_466\n      tag_260\n      jump\t// in\n    tag_466:\n        /* \"#utility.yul\":18618:18721   */\n    tag_465:\n        /* \"#utility.yul\":18748:18749   */\n      0x01\n        /* \"#utility.yul\":18741:18746   */\n      dup3\n        /* \"#utility.yul\":18737:18750   */\n      add\n        /* \"#utility.yul\":18730:18750   */\n      swap1\n      pop\n        /* \"#utility.yul\":18523:18756   */\n      swap2\n      swap1\n      pop\n      jump\t// out\n        /* \"#utility.yul\":18762:18953   */\n    tag_136:\n        /* \"#utility.yul\":18802:18805   */\n      0x00\n        /* \"#utility.yul\":18821:18841   */\n      tag_468\n        /* \"#utility.yul\":18839:18840   */\n      dup3\n        /* \"#utility.yul\":18821:18841   */\n      tag_212\n      jump\t// in\n    tag_468:\n        /* \"#utility.yul\":18816:18841   */\n      swap2\n      pop\n        /* \"#utility.yul\":18855:18875   */\n      tag_469\n        /* \"#utility.yul\":18873:18874   */\n      dup4\n        /* \"#utility.yul\":18855:18875   */\n      tag_212\n      jump\t// in\n    tag_469:\n        /* \"#utility.yul\":18850:18875   */\n      swap3\n      pop\n        /* \"#utility.yul\":18898:18899   */\n      dup3\n        /* \"#utility.yul\":18895:18896   */\n      dup3\n        /* \"#utility.yul\":18891:18900   */\n      add\n        /* \"#utility.yul\":18884:18900   */\n      swap1\n      pop\n        /* \"#utility.yul\":18919:18922   */\n      dup1\n        /* \"#utility.yul\":18916:18917   */\n      dup3\n        /* \"#utility.yul\":18913:18923   */\n      gt\n        /* \"#utility.yul\":18910:18946   */\n      iszero\n      tag_470\n      jumpi\n        /* \"#utility.yul\":18926:18944   */\n      tag_471\n      tag_260\n      jump\t// in\n    tag_471:\n        /* \"#utility.yul\":18910:18946   */\n    tag_470:\n        /* \"#utility.yul\":18762:18953   */\n      swap3\n      swap2\n      pop\n      pop\n      jump\t// out\n        /* \"#utility.yul\":18959:19100   */\n    tag_261:\n        /* \"#utility.yul\":19008:19012   */\n      0x00\n        /* \"#utility.yul\":19031:19034   */\n      dup2\n        /* \"#utility.yul\":19023:19034   */\n      swap1\n      pop\n        /* \"#utility.yul\":19054:19057   */\n      dup2\n        /* \"#utility.yul\":19051:19052   */\n      0x00\n        /* \"#utility.yul\":19044:19058   */\n      mstore\n        /* \"#utility.yul\":19088:19092   */\n      0x20\n        /* \"#utility.yul\":19085:19086   */\n      0x00\n        /* \"#utility.yul\":19075:19093   */\n      keccak256\n        /* \"#utility.yul\":19067:19093   */\n      swap1\n      pop\n        /* \"#utility.yul\":18959:19100   */\n      swap2\n      swap1\n      pop\n      jump\t// out\n        /* \"#utility.yul\":19106:19199   */\n    tag_262:\n        /* \"#utility.yul\":19143:19149   */\n      0x00\n        /* \"#utility.yul\":19190:19192   */\n      0x20\n        /* \"#utility.yul\":19185:19187   */\n      0x1f\n        /* \"#utility.yul\":19178:19183   */\n      dup4\n        /* \"#utility.yul\":19174:19188   */\n      add\n        /* \"#utility.yul\":19170:19193   */\n      div\n        /* \"#utility.yul\":19160:19193   */\n      swap1\n      pop\n        /* \"#utility.yul\":19106:19199   */\n      swap2\n      swap1\n      pop\n      jump\t// out\n        /* \"#utility.yul\":19205:19312   */\n    tag_263:\n        /* \"#utility.yul\":19249:19257   */\n      0x00\n        /* \"#utility.yul\":19299:19304   */\n      dup3\n        /* \"#utility.yul\":19293:19297   */\n      dup3\n        /* \"#utility.yul\":19289:19305   */\n      shl\n        /* \"#utility.yul\":19268:19305   */\n      swap1\n      pop\n        /* \"#utility.yul\":19205:19312   */\n      swap3\n      swap2\n      pop\n      pop\n      jump\t// out\n        /* \"#utility.yul\":19318:19711   */\n    tag_264:\n        /* \"#utility.yul\":19387:19393   */\n      0x00\n        /* \"#utility.yul\":19437:19438   */\n      0x08\n        /* \"#utility.yul\":19425:19435   */\n      dup4\n        /* \"#utility.yul\":19421:19439   */\n      mul\n        /* \"#utility.yul\":19460:19557   */\n      tag_476\n        /* \"#utility.yul\":19490:19556   */\n      0xffffffffffffffffffffffffffffffffffffffffffffffffffffffffffffffff\n        /* \"#utility.yul\":19479:19488   */\n      dup3\n        /* \"#utility.yul\":19460:19557   */\n      tag_263\n      jump\t// in\n    tag_476:\n        /* \"#utility.yul\":19578:19617   */\n      tag_477\n        /* \"#utility.yul\":19608:19616   */\n      dup7\n        /* \"#utility.yul\":19597:19606   */\n      dup4\n        /* \"#utility.yul\":19578:19617   */\n      tag_263\n      jump\t// in\n    tag_477:\n        /* \"#utility.yul\":19566:19617   */\n      swap6\n      pop\n        /* \"#utility.yul\":19650:19654   */\n      dup1\n        /* \"#utility.yul\":19646:19655   */\n      not\n        /* \"#utility.yul\":19639:19644   */\n      dup5\n        /* \"#utility.yul\":19635:19656   */\n      and\n        /* \"#utility.yul\":19626:19656   */\n      swap4\n      pop\n        /* \"#utility.yul\":19699:19703   */\n      dup1\n        /* \"#utility.yul\":19689:19697   */\n      dup7\n        /* \"#utility.yul\":19685:19704   */\n      and\n        /* \"#utility.yul\":19678:19683   */\n      dup5\n        /* \"#utility.yul\":19675:19705   */\n      or\n        /* \"#utility.yul\":19665:19705   */\n      swap3\n      pop\n        /* \"#utility.yul\":19394:19711   */\n      pop\n      pop\n        /* \"#utility.yul\":19318:19711   */\n      swap4\n      swap3\n      pop\n      pop\n      pop\n      jump\t// out\n        /* \"#utility.yul\":19717:19859   */\n    tag_265:\n        /* \"#utility.yul\":19767:19776   */\n      0x00\n        /* \"#utility.yul\":19800:19853   */\n      tag_479\n        /* \"#utility.yul\":19818:19852   */\n      tag_480\n        /* \"#utility.yul\":19827:19851   */\n      tag_481\n        /* \"#utility.yul\":19845:19850   */\n      dup5\n        /* \"#utility.yul\":19827:19851   */\n      tag_212\n      jump\t// in\n    tag_481:\n        /* \"#utility.yul\":19818:19852   */\n      tag_239\n      jump\t// in\n    tag_480:\n        /* \"#utility.yul\":19800:19853   */\n      tag_212\n      jump\t// in\n    tag_479:\n        /* \"#utility.yul\":19787:19853   */\n      swap1\n      pop\n        /* \"#utility.yul\":19717:19859   */\n      swap2\n      swap1\n      pop\n      jump\t// out\n        /* \"#utility.yul\":19865:19940   */\n    tag_266:\n        /* \"#utility.yul\":19908:19911   */\n      0x00\n        /* \"#utility.yul\":19929:19934   */\n      dup2\n        /* \"#utility.yul\":19922:19934   */\n      swap1\n      pop\n        /* \"#utility.yul\":19865:19940   */\n      swap2\n      swap1\n      pop\n      jump\t// out\n        /* \"#utility.yul\":19946:20215   */\n    tag_267:\n        /* \"#utility.yul\":20056:20095   */\n      tag_484\n        /* \"#utility.yul\":20087:20094   */\n      dup4\n        /* \"#utility.yul\":20056:20095   */\n      tag_265\n      jump\t// in\n    tag_484:\n        /* \"#utility.yul\":20117:20208   */\n      tag_485\n        /* \"#utility.yul\":20166:20207   */\n      tag_486\n        /* \"#utility.yul\":20190:20206   */\n      dup3\n        /* \"#utility.yul\":20166:20207   */\n      tag_266\n      jump\t// in\n    tag_486:\n        /* \"#utility.yul\":20158:20164   */\n      dup5\n        /* \"#utility.yul\":20151:20155   */\n      dup5\n        /* \"#utility.yul\":20145:20156   */\n      sload\n        /* \"#utility.yul\":20117:20208   */\n      tag_264\n      jump\t// in\n    tag_485:\n        /* \"#utility.yul\":20111:20115   */\n      dup3\n        /* \"#utility.yul\":20104:20209   */\n      sstore\n        /* \"#utility.yul\":20022:20215   */\n      pop\n        /* \"#utility.yul\":19946:20215   */\n      pop\n      pop\n      pop\n      jump\t// out\n        /* \"#utility.yul\":20221:20294   */\n    tag_268:\n        /* \"#utility.yul\":20266:20269   */\n      0x00\n        /* \"#utility.yul\":20287:20288   */\n      0x00\n        /* \"#utility.yul\":20280:20288   */\n      swap1\n      pop\n        /* \"#utility.yul\":20221:20294   */\n      swap1\n      jump\t// out\n        /* \"#utility.yul\":20300:20489   */\n    tag_269:\n        /* \"#utility.yul\":20377:20409   */\n      tag_489\n      tag_268\n      jump\t// in\n    tag_489:\n        /* \"#utility.yul\":20418:20483   */\n      tag_490\n        /* \"#utility.yul\":20476:20482   */\n      dup2\n        /* \"#utility.yul\":20468:20474   */\n      dup5\n        /* \"#utility.yul\":20462:20466   */\n      dup5\n        /* \"#utility.yul\":20418:20483   */\n      tag_267\n      jump\t// in\n    tag_490:\n        /* \"#utility.yul\":20353:20489   */\n      pop\n        /* \"#utility.yul\":20300:20489   */\n      pop\n      pop\n      jump\t// out\n        /* \"#utility.yul\":20495:20681   */\n    tag_270:\n        /* \"#utility.yul\":20555:20675   */\n    tag_492:\n        /* \"#utility.yul\":20572:20575   */\n      dup2\n        /* \"#utility.yul\":20565:20570   */\n      dup2\n        /* \"#utility.yul\":20562:20576   */\n      lt\n        /* \"#utility.yul\":20555:20675   */\n      iszero\n      tag_494\n      jumpi\n        /* \"#utility.yul\":20626:20665   */\n      tag_495\n        /* \"#utility.yul\":20663:20664   */\n      0x00\n        /* \"#utility.yul\":20656:20661   */\n      dup3\n        /* \"#utility.yul\":20626:20665   */\n      tag_269\n      jump\t// in\n    tag_495:\n        /* \"#utility.yul\":20599:20600   */\n      0x01\n        /* \"#utility.yul\":20592:20597   */\n      dup2\n        /* \"#utility.yul\":20588:20601   */\n      add\n        /* \"#utility.yul\":20579:20601   */\n      swap1\n      pop\n        /* \"#utility.yul\":20555:20675   */\n      jump(tag_492)\n    tag_494:\n        /* \"#utility.yul\":20495:20681   */\n      pop\n      pop\n      jump\t// out\n        /* \"#utility.yul\":20687:21230   */\n    tag_271:\n        /* \"#utility.yul\":20788:20790   */\n      0x1f\n        /* \"#utility.yul\":20783:20786   */\n      dup3\n        /* \"#utility.yul\":20780:20791   */\n      gt\n        /* \"#utility.yul\":20777:21223   */\n      iszero\n      tag_497\n      jumpi\n        /* \"#utility.yul\":20822:20860   */\n      tag_498\n        /* \"#utility.yul\":20854:20859   */\n      dup2\n        /* \"#utility.yul\":20822:20860   */\n      tag_261\n      jump\t// in\n    tag_498:\n        /* \"#utility.yul\":20906:20935   */\n      tag_499\n        /* \"#utility.yul\":20924:20934   */\n      dup5\n        /* \"#utility.yul\":20906:20935   */\n      tag_262\n      jump\t// in\n    tag_499:\n        /* \"#utility.yul\":20896:20904   */\n      dup2\n        /* \"#utility.yul\":20892:20936   */\n      add\n        /* \"#utility.yul\":21089:21091   */\n      0x20\n        /* \"#utility.yul\":21077:21087   */\n      dup6\n        /* \"#utility.yul\":21074:21092   */\n      lt\n        /* \"#utility.yul\":21071:21120   */\n      iszero\n      tag_500\n      jumpi\n        /* \"#utility.yul\":21110:21118   */\n      dup2\n        /* \"#utility.yul\":21095:21118   */\n      swap1\n      pop\n        /* \"#utility.yul\":21071:21120   */\n    tag_500:\n        /* \"#utility.yul\":21133:21213   */\n      tag_501\n        /* \"#utility.yul\":21189:21211   */\n      tag_502\n        /* \"#utility.yul\":21207:21210   */\n      dup6\n        /* \"#utility.yul\":21189:21211   */\n      tag_262\n      jump\t// in\n    tag_502:\n        /* \"#utility.yul\":21179:21187   */\n      dup4\n        /* \"#utility.yul\":21175:21212   */\n      add\n        /* \"#utility.yul\":21162:21173   */\n      dup3\n        /* \"#utility.yul\":21133:21213   */\n      tag_270\n      jump\t// in\n    tag_501:\n        /* \"#utility.yul\":20792:21223   */\n      pop\n      pop\n        /* \"#utility.yul\":20777:21223   */\n    tag_497:\n        /* \"#utility.yul\":20687:21230   */\n      pop\n      pop\n      pop\n      jump\t// out\n        /* \"#utility.yul\":21236:21353   */\n    tag_272:\n        /* \"#utility.yul\":21290:21298   */\n      0x00\n        /* \"#utility.yul\":21340:21345   */\n      dup3\n        /* \"#utility.yul\":21334:21338   */\n      dup3\n        /* \"#utility.yul\":21330:21346   */\n      shr\n        /* \"#utility.yul\":21309:21346   */\n      swap1\n      pop\n        /* \"#utility.yul\":21236:21353   */\n      swap3\n      swap2\n      pop\n      pop\n      jump\t// out\n        /* \"#utility.yul\":21359:21528   */\n    tag_273:\n        /* \"#utility.yul\":21403:21409   */\n      0x00\n        /* \"#utility.yul\":21436:21487   */\n      tag_505\n        /* \"#utility.yul\":21484:21485   */\n      0x00\n        /* \"#utility.yul\":21480:21486   */\n      not\n        /* \"#utility.yul\":21472:21477   */\n      dup5\n        /* \"#utility.yul\":21469:21470   */\n      0x08\n        /* \"#utility.yul\":21465:21478   */\n      mul\n        /* \"#utility.yul\":21436:21487   */\n      tag_272\n      jump\t// in\n    tag_505:\n        /* \"#utility.yul\":21432:21488   */\n      not\n        /* \"#utility.yul\":21517:21521   */\n      dup1\n        /* \"#utility.yul\":21511:21515   */\n      dup4\n        /* \"#utility.yul\":21507:21522   */\n      and\n        /* \"#utility.yul\":21497:21522   */\n      swap2\n      pop\n        /* \"#utility.yul\":21410:21528   */\n      pop\n        /* \"#utility.yul\":21359:21528   */\n      swap3\n      swap2\n      pop\n      pop\n      jump\t// out\n        /* \"#utility.yul\":21533:21828   */\n    tag_274:\n        /* \"#utility.yul\":21609:21613   */\n      0x00\n        /* \"#utility.yul\":21755:21784   */\n      tag_507\n        /* \"#utility.yul\":21780:21783   */\n      dup4\n        /* \"#utility.yul\":21774:21778   */\n      dup4\n        /* \"#utility.yul\":21755:21784   */\n      tag_273\n      jump\t// in\n    tag_507:\n        /* \"#utility.yul\":21747:21784   */\n      swap2\n      pop\n        /* \"#utility.yul\":21817:21820   */\n      dup3\n        /* \"#utility.yul\":21814:21815   */\n      0x02\n        /* \"#utility.yul\":21810:21821   */\n      mul\n        /* \"#utility.yul\":21804:21808   */\n      dup3\n        /* \"#utility.yul\":21801:21822   */\n      or\n        /* \"#utility.yul\":21793:21822   */\n      swap1\n      pop\n        /* \"#utility.yul\":21533:21828   */\n      swap3\n      swap2\n      pop\n      pop\n      jump\t// out\n        /* \"#utility.yul\":21833:23228   */\n    tag_138:\n        /* \"#utility.yul\":21950:21987   */\n      tag_509\n        /* \"#utility.yul\":21983:21986   */\n      dup3\n        /* \"#utility.yul\":21950:21987   */\n      tag_218\n      jump\t// in\n    tag_509:\n        /* \"#utility.yul\":22052:22070   */\n      0xffffffffffffffff\n        /* \"#utility.yul\":22044:22050   */\n      dup2\n        /* \"#utility.yul\":22041:22071   */\n      gt\n        /* \"#utility.yul\":22038:22094   */\n      iszero\n      tag_510\n      jumpi\n        /* \"#utility.yul\":22074:22092   */\n      tag_511\n      tag_230\n      jump\t// in\n    tag_511:\n        /* \"#utility.yul\":22038:22094   */\n    tag_510:\n        /* \"#utility.yul\":22118:22156   */\n      tag_512\n        /* \"#utility.yul\":22150:22154   */\n      dup3\n        /* \"#utility.yul\":22144:22155   */\n      sload\n        /* \"#utility.yul\":22118:22156   */\n      tag_89\n      jump\t// in\n    tag_512:\n        /* \"#utility.yul\":22203:22270   */\n      tag_513\n        /* \"#utility.yul\":22263:22269   */\n      dup3\n        /* \"#utility.yul\":22255:22261   */\n      dup3\n        /* \"#utility.yul\":22249:22253   */\n      dup6\n        /* \"#utility.yul\":22203:22270   */\n      tag_271\n      jump\t// in\n    tag_513:\n        /* \"#utility.yul\":22297:22298   */\n      0x00\n        /* \"#utility.yul\":22321:22325   */\n      0x20\n        /* \"#utility.yul\":22308:22325   */\n      swap1\n      pop\n        /* \"#utility.yul\":22353:22355   */\n      0x1f\n        /* \"#utility.yul\":22345:22351   */\n      dup4\n        /* \"#utility.yul\":22342:22356   */\n      gt\n        /* \"#utility.yul\":22370:22371   */\n      0x01\n        /* \"#utility.yul\":22365:22983   */\n      dup2\n      eq\n      tag_515\n      jumpi\n        /* \"#utility.yul\":23027:23028   */\n      0x00\n        /* \"#utility.yul\":23044:23050   */\n      dup5\n        /* \"#utility.yul\":23041:23118   */\n      iszero\n      tag_516\n      jumpi\n        /* \"#utility.yul\":23093:23102   */\n      dup3\n        /* \"#utility.yul\":23088:23091   */\n      dup8\n        /* \"#utility.yul\":23084:23103   */\n      add\n        /* \"#utility.yul\":23078:23104   */\n      mload\n        /* \"#utility.yul\":23069:23104   */\n      swap1\n      pop\n        /* \"#utility.yul\":23041:23118   */\n    tag_516:\n        /* \"#utility.yul\":23144:23211   */\n      tag_517\n        /* \"#utility.yul\":23204:23210   */\n      dup6\n        /* \"#utility.yul\":23197:23202   */\n      dup3\n        /* \"#utility.yul\":23144:23211   */\n      tag_274\n      jump\t// in\n    tag_517:\n        /* \"#utility.yul\":23138:23142   */\n      dup7\n        /* \"#utility.yul\":23131:23212   */\n      sstore\n        /* \"#utility.yul\":23000:23222   */\n      pop\n        /* \"#utility.yul\":22335:23222   */\n      jump(tag_514)\n        /* \"#utility.yul\":22365:22983   */\n    tag_515:\n        /* \"#utility.yul\":22417:22421   */\n      0x1f\n        /* \"#utility.yul\":22413:22422   */\n      not\n        /* \"#utility.yul\":22405:22411   */\n      dup5\n        /* \"#utility.yul\":22401:22423   */\n      and\n        /* \"#utility.yul\":22451:22488   */\n      tag_518\n        /* \"#utility.yul\":22483:22487   */\n      dup7\n        /* \"#utility.yul\":22451:22488   */\n      tag_261\n      jump\t// in\n    tag_518:\n        /* \"#utility.yul\":22510:22511   */\n      0x00\n        /* \"#utility.yul\":22524:22732   */\n    tag_519:\n        /* \"#utility.yul\":22538:22545   */\n      dup3\n        /* \"#utility.yul\":22535:22536   */\n      dup2\n        /* \"#utility.yul\":22532:22546   */\n      lt\n        /* \"#utility.yul\":22524:22732   */\n      iszero\n      tag_521\n      jumpi\n        /* \"#utility.yul\":22617:22626   */\n      dup5\n        /* \"#utility.yul\":22612:22615   */\n      dup10\n        /* \"#utility.yul\":22608:22627   */\n      add\n        /* \"#utility.yul\":22602:22628   */\n      mload\n        /* \"#utility.yul\":22594:22600   */\n      dup3\n        /* \"#utility.yul\":22587:22629   */\n      sstore\n        /* \"#utility.yul\":22668:22669   */\n      0x01\n        /* \"#utility.yul\":22660:22666   */\n      dup3\n        /* \"#utility.yul\":22656:22670   */\n      add\n        /* \"#utility.yul\":22646:22670   */\n      swap2\n      pop\n        /* \"#utility.yul\":22715:22717   */\n      0x20\n        /* \"#utility.yul\":22704:22713   */\n      dup6\n        /* \"#utility.yul\":22700:22718   */\n      add\n        /* \"#utility.yul\":22687:22718   */\n      swap5\n      pop\n        /* \"#utility.yul\":22561:22565   */\n      0x20\n        /* \"#utility.yul\":22558:22559   */\n      dup2\n        /* \"#utility.yul\":22554:22566   */\n      add\n        /* \"#utility.yul\":22549:22566   */\n      swap1\n      pop\n        /* \"#utility.yul\":22524:22732   */\n      jump(tag_519)\n    tag_521:\n        /* \"#utility.yul\":22760:22766   */\n      dup7\n        /* \"#utility.yul\":22751:22758   */\n      dup4\n        /* \"#utility.yul\":22748:22767   */\n      lt\n        /* \"#utility.yul\":22745:22924   */\n      iszero\n      tag_522\n      jumpi\n        /* \"#utility.yul\":22818:22827   */\n      dup5\n        /* \"#utility.yul\":22813:22816   */\n      dup10\n        /* \"#utility.yul\":22809:22828   */\n      add\n        /* \"#utility.yul\":22803:22829   */\n      mload\n        /* \"#utility.yul\":22861:22909   */\n      tag_523\n        /* \"#utility.yul\":22903:22907   */\n      0x1f\n        /* \"#utility.yul\":22895:22901   */\n      dup10\n        /* \"#utility.yul\":22891:22908   */\n      and\n        /* \"#utility.yul\":22880:22889   */\n      dup3\n        /* \"#utility.yul\":22861:22909   */\n      tag_273\n      jump\t// in\n    tag_523:\n        /* \"#utility.yul\":22853:22859   */\n      dup4\n        /* \"#utility.yul\":22846:22910   */\n      sstore\n        /* \"#utility.yul\":22768:22924   */\n      pop\n        /* \"#utility.yul\":22745:22924   */\n    tag_522:\n        /* \"#utility.yul\":22970:22971   */\n      0x01\n        /* \"#utility.yul\":22966:22967   */\n      0x02\n        /* \"#utility.yul\":22958:22964   */\n      dup9\n        /* \"#utility.yul\":22954:22968   */\n      mul\n        /* \"#utility.yul\":22950:22972   */\n      add\n        /* \"#utility.yul\":22944:22948   */\n      dup9\n        /* \"#utility.yul\":22937:22973   */\n      sstore\n        /* \"#utility.yul\":22372:22983   */\n      pop\n      pop\n      pop\n        /* \"#utility.yul\":22335:23222   */\n    tag_514:\n      pop\n        /* \"#utility.yul\":21925:23228   */\n      pop\n      pop\n      pop\n        /* \"#utility.yul\":21833:23228   */\n      pop\n      pop\n      jump\t// out\n        /* \"#utility.yul\":23234:23547   */\n    tag_140:\n        /* \"#utility.yul\":23347:23351   */\n      0x00\n        /* \"#utility.yul\":23385:23387   */\n      0x20\n        /* \"#utility.yul\":23374:23383   */\n      dup3\n        /* \"#utility.yul\":23370:23388   */\n      add\n        /* \"#utility.yul\":23362:23388   */\n      swap1\n      pop\n        /* \"#utility.yul\":23434:23443   */\n      dup2\n        /* \"#utility.yul\":23428:23432   */\n      dup2\n        /* \"#utility.yul\":23424:23444   */\n      sub\n        /* \"#utility.yul\":23420:23421   */\n      0x00\n        /* \"#utility.yul\":23409:23418   */\n      dup4\n        /* \"#utility.yul\":23405:23422   */\n      add\n        /* \"#utility.yul\":23398:23445   */\n      mstore\n        /* \"#utility.yul\":23462:23540   */\n      tag_525\n        /* \"#utility.yul\":23535:23539   */\n      dup2\n        /* \"#utility.yul\":23526:23532   */\n      dup5\n        /* \"#utility.yul\":23462:23540   */\n      tag_222\n      jump\t// in\n    tag_525:\n        /* \"#utility.yul\":23454:23540   */\n      swap1\n      pop\n        /* \"#utility.yul\":23234:23547   */\n      swap3\n      swap2\n      pop\n      pop\n      jump\t// out\n        /* \"#utility.yul\":23553:23719   */\n    tag_275:\n        /* \"#utility.yul\":23693:23711   */\n      0x566f74696e67206e6f7420656e64656400000000000000000000000000000000\n        /* \"#utility.yul\":23689:23690   */\n      0x00\n        /* \"#utility.yul\":23681:23687   */\n      dup3\n        /* \"#utility.yul\":23677:23691   */\n      add\n        /* \"#utility.yul\":23670:23712   */\n      mstore\n        /* \"#utility.yul\":23553:23719   */\n      pop\n      jump\t// out\n        /* \"#utility.yul\":23725:24091   */\n    tag_276:\n        /* \"#utility.yul\":23867:23870   */\n      0x00\n        /* \"#utility.yul\":23888:23955   */\n      tag_528\n        /* \"#utility.yul\":23952:23954   */\n      0x10\n        /* \"#utility.yul\":23947:23950   */\n      dup4\n        /* \"#utility.yul\":23888:23955   */\n      tag_219\n      jump\t// in\n    tag_528:\n        /* \"#utility.yul\":23881:23955   */\n      swap2\n      pop\n        /* \"#utility.yul\":23964:24057   */\n      tag_529\n        /* \"#utility.yul\":24053:24056   */\n      dup3\n        /* \"#utility.yul\":23964:24057   */\n      tag_275\n      jump\t// in\n    tag_529:\n        /* \"#utility.yul\":24082:24084   */\n      0x20\n        /* \"#utility.yul\":24077:24080   */\n      dup3\n        /* \"#utility.yul\":24073:24085   */\n      add\n        /* \"#utility.yul\":24066:24085   */\n      swap1\n      pop\n        /* \"#utility.yul\":23725:24091   */\n      swap2\n      swap1\n      pop\n      jump\t// out\n        /* \"#utility.yul\":24097:24516   */\n    tag_144:\n        /* \"#utility.yul\":24263:24267   */\n      0x00\n        /* \"#utility.yul\":24301:24303   */\n      0x20\n        /* \"#utility.yul\":24290:24299   */\n      dup3\n        /* \"#utility.yul\":24286:24304   */\n      add\n        /* \"#utility.yul\":24278:24304   */\n      swap1\n      pop\n        /* \"#utility.yul\":24350:24359   */\n      dup2\n        /* \"#utility.yul\":24344:24348   */\n      dup2\n        /* \"#utility.yul\":24340:24360   */\n      sub\n        /* \"#utility.yul\":24336:24337   */\n      0x00\n        /* \"#utility.yul\":24325:24334   */\n      dup4\n        /* \"#utility.yul\":24321:24338   */\n      add\n        /* \"#utility.yul\":24314:24361   */\n      mstore\n        /* \"#utility.yul\":24378:24509   */\n      tag_531\n        /* \"#utility.yul\":24504:24508   */\n      dup2\n        /* \"#utility.yul\":24378:24509   */\n      tag_276\n      jump\t// in\n    tag_531:\n        /* \"#utility.yul\":24370:24509   */\n      swap1\n      pop\n        /* \"#utility.yul\":24097:24516   */\n      swap2\n      swap1\n      pop\n      jump\t// out\n        /* \"#utility.yul\":24522:24665   */\n    tag_277:\n        /* \"#utility.yul\":24579:24584   */\n      0x00\n        /* \"#utility.yul\":24610:24616   */\n      dup2\n        /* \"#utility.yul\":24604:24617   */\n      mload\n        /* \"#utility.yul\":24595:24617   */\n      swap1\n      pop\n        /* \"#utility.yul\":24626:24659   */\n      tag_533\n        /* \"#utility.yul\":24653:24658   */\n      dup2\n        /* \"#utility.yul\":24626:24659   */\n      tag_213\n      jump\t// in\n    tag_533:\n        /* \"#utility.yul\":24522:24665   */\n      swap3\n      swap2\n      pop\n      pop\n      jump\t// out\n        /* \"#utility.yul\":24671:25022   */\n    tag_153:\n        /* \"#utility.yul\":24741:24747   */\n      0x00\n        /* \"#utility.yul\":24790:24792   */\n      0x20\n        /* \"#utility.yul\":24778:24787   */\n      dup3\n        /* \"#utility.yul\":24769:24776   */\n      dup5\n        /* \"#utility.yul\":24765:24788   */\n      sub\n        /* \"#utility.yul\":24761:24793   */\n      slt\n        /* \"#utility.yul\":24758:24877   */\n      iszero\n      tag_535\n      jumpi\n        /* \"#utility.yul\":24796:24875   */\n      tag_536\n      tag_210\n      jump\t// in\n    tag_536:\n        /* \"#utility.yul\":24758:24877   */\n    tag_535:\n        /* \"#utility.yul\":24916:24917   */\n      0x00\n        /* \"#utility.yul\":24941:25005   */\n      tag_537\n        /* \"#utility.yul\":24997:25004   */\n      dup5\n        /* \"#utility.yul\":24988:24994   */\n      dup3\n        /* \"#utility.yul\":24977:24986   */\n      dup6\n        /* \"#utility.yul\":24973:24995   */\n      add\n        /* \"#utility.yul\":24941:25005   */\n      tag_277\n      jump\t// in\n    tag_537:\n        /* \"#utility.yul\":24931:25005   */\n      swap2\n      pop\n        /* \"#utility.yul\":24887:25015   */\n      pop\n        /* \"#utility.yul\":24671:25022   */\n      swap3\n      swap2\n      pop\n      pop\n      jump\t// out\n        /* \"#utility.yul\":25028:25438   */\n    tag_155:\n        /* \"#utility.yul\":25068:25075   */\n      0x00\n        /* \"#utility.yul\":25091:25111   */\n      tag_539\n        /* \"#utility.yul\":25109:25110   */\n      dup3\n        /* \"#utility.yul\":25091:25111   */\n      tag_212\n      jump\t// in\n    tag_539:\n        /* \"#utility.yul\":25086:25111   */\n      swap2\n      pop\n        /* \"#utility.yul\":25125:25145   */\n      tag_540\n        /* \"#utility.yul\":25143:25144   */\n      dup4\n        /* \"#utility.yul\":25125:25145   */\n      tag_212\n      jump\t// in\n    tag_540:\n        /* \"#utility.yul\":25120:25145   */\n      swap3\n      pop\n        /* \"#utility.yul\":25180:25181   */\n      dup3\n        /* \"#utility.yul\":25177:25178   */\n      dup3\n        /* \"#utility.yul\":25173:25182   */\n      mul\n        /* \"#utility.yul\":25202:25232   */\n      tag_541\n        /* \"#utility.yul\":25220:25231   */\n      dup2\n        /* \"#utility.yul\":25202:25232   */\n      tag_212\n      jump\t// in\n    tag_541:\n        /* \"#utility.yul\":25191:25232   */\n      swap2\n      pop\n        /* \"#utility.yul\":25381:25382   */\n      dup3\n        /* \"#utility.yul\":25372:25379   */\n      dup3\n        /* \"#utility.yul\":25368:25383   */\n      div\n        /* \"#utility.yul\":25365:25366   */\n      dup5\n        /* \"#utility.yul\":25362:25384   */\n      eq\n        /* \"#utility.yul\":25342:25343   */\n      dup4\n        /* \"#utility.yul\":25335:25344   */\n      iszero\n        /* \"#utility.yul\":25315:25398   */\n      or\n        /* \"#utility.yul\":25292:25431   */\n      tag_542\n      jumpi\n        /* \"#utility.yul\":25411:25429   */\n      tag_543\n      tag_260\n      jump\t// in\n    tag_543:\n        /* \"#utility.yul\":25292:25431   */\n    tag_542:\n        /* \"#utility.yul\":25076:25438   */\n      pop\n        /* \"#utility.yul\":25028:25438   */\n      swap3\n      swap2\n      pop\n      pop\n      jump\t// out\n        /* \"#utility.yul\":25444:25624   */\n    tag_278:\n        /* \"#utility.yul\":25492:25569   */\n      0x4e487b7100000000000000000000000000000000000000000000000000000000\n        /* \"#utility.yul\":25489:25490   */\n      0x00\n        /* \"#utility.yul\":25482:25570   */\n      mstore\n        /* \"#utility.yul\":25589:25593   */\n      0x12\n        /* \"#utility.yul\":25586:25587   */\n      0x04\n        /* \"#utility.yul\":25579:25594   */\n      mstore\n        /* \"#utility.yul\":25613:25617   */\n      0x24\n        /* \"#utility.yul\":25610:25611   */\n      0x00\n        /* \"#utility.yul\":25603:25618   */\n      revert\n        /* \"#utility.yul\":25630:25815   */\n    tag_157:\n        /* \"#utility.yul\":25670:25671   */\n      0x00\n        /* \"#utility.yul\":25687:25707   */\n      tag_546\n        /* \"#utility.yul\":25705:25706   */\n      dup3\n        /* \"#utility.yul\":25687:25707   */\n      tag_212\n      jump\t// in\n    tag_546:\n        /* \"#utility.yul\":25682:25707   */\n      swap2\n      pop\n        /* \"#utility.yul\":25721:25741   */\n      tag_547\n        /* \"#utility.yul\":25739:25740   */\n      dup4\n        /* \"#utility.yul\":25721:25741   */\n      tag_212\n      jump\t// in\n    tag_547:\n        /* \"#utility.yul\":25716:25741   */\n      swap3\n      pop\n        /* \"#utility.yul\":25760:25761   */\n      dup3\n        /* \"#utility.yul\":25750:25785   */\n      tag_548\n      jumpi\n        /* \"#utility.yul\":25765:25783   */\n      tag_549\n      tag_278\n      jump\t// in\n    tag_549:\n        /* \"#utility.yul\":25750:25785   */\n    tag_548:\n        /* \"#utility.yul\":25807:25808   */\n      dup3\n        /* \"#utility.yul\":25804:25805   */\n      dup3\n        /* \"#utility.yul\":25800:25809   */\n      div\n        /* \"#utility.yul\":25795:25809   */\n      swap1\n      pop\n        /* \"#utility.yul\":25630:25815   */\n      swap3\n      swap2\n      pop\n      pop\n      jump\t// out\n        /* \"#utility.yul\":25821:25982   */\n    tag_279:\n        /* \"#utility.yul\":25961:25974   */\n      0x4e6f742073746172746564000000000000000000000000000000000000000000\n        /* \"#utility.yul\":25957:25958   */\n      0x00\n        /* \"#utility.yul\":25949:25955   */\n      dup3\n        /* \"#utility.yul\":25945:25959   */\n      add\n        /* \"#utility.yul\":25938:25975   */\n      mstore\n        /* \"#utility.yul\":25821:25982   */\n      pop\n      jump\t// out\n        /* \"#utility.yul\":25988:26354   */\n    tag_280:\n        /* \"#utility.yul\":26130:26133   */\n      0x00\n        /* \"#utility.yul\":26151:26218   */\n      tag_552\n        /* \"#utility.yul\":26215:26217   */\n      0x0b\n        /* \"#utility.yul\":26210:26213   */\n      dup4\n        /* \"#utility.yul\":26151:26218   */\n      tag_219\n      jump\t// in\n    tag_552:\n        /* \"#utility.yul\":26144:26218   */\n      swap2\n      pop\n        /* \"#utility.yul\":26227:26320   */\n      tag_553\n        /* \"#utility.yul\":26316:26319   */\n      dup3\n        /* \"#utility.yul\":26227:26320   */\n      tag_279\n      jump\t// in\n    tag_553:\n        /* \"#utility.yul\":26345:26347   */\n      0x20\n        /* \"#utility.yul\":26340:26343   */\n      dup3\n        /* \"#utility.yul\":26336:26348   */\n      add\n        /* \"#utility.yul\":26329:26348   */\n      swap1\n      pop\n        /* \"#utility.yul\":25988:26354   */\n      swap2\n      swap1\n      pop\n      jump\t// out\n        /* \"#utility.yul\":26360:26779   */\n    tag_172:\n        /* \"#utility.yul\":26526:26530   */\n      0x00\n        /* \"#utility.yul\":26564:26566   */\n      0x20\n        /* \"#utility.yul\":26553:26562   */\n      dup3\n        /* \"#utility.yul\":26549:26567   */\n      add\n        /* \"#utility.yul\":26541:26567   */\n      swap1\n      pop\n        /* \"#utility.yul\":26613:26622   */\n      dup2\n        /* \"#utility.yul\":26607:26611   */\n      dup2\n        /* \"#utility.yul\":26603:26623   */\n      sub\n        /* \"#utility.yul\":26599:26600   */\n      0x00\n        /* \"#utility.yul\":26588:26597   */\n      dup4\n        /* \"#utility.yul\":26584:26601   */\n      add\n        /* \"#utility.yul\":26577:26624   */\n      mstore\n        /* \"#utility.yul\":26641:26772   */\n      tag_555\n        /* \"#utility.yul\":26767:26771   */\n      dup2\n        /* \"#utility.yul\":26641:26772   */\n      tag_280\n      jump\t// in\n    tag_555:\n        /* \"#utility.yul\":26633:26772   */\n      swap1\n      pop\n        /* \"#utility.yul\":26360:26779   */\n      swap2\n      swap1\n      pop\n      jump\t// out\n        /* \"#utility.yul\":26785:26940   */\n    tag_281:\n        /* \"#utility.yul\":26925:26932   */\n      0x456e646564000000000000000000000000000000000000000000000000000000\n        /* \"#utility.yul\":26921:26922   */\n      0x00\n        /* \"#utility.yul\":26913:26919   */\n      dup3\n        /* \"#utility.yul\":26909:26923   */\n      add\n        /* \"#utility.yul\":26902:26933   */\n      mstore\n        /* \"#utility.yul\":26785:26940   */\n      pop\n      jump\t// out\n        /* \"#utility.yul\":26946:27311   */\n    tag_282:\n        /* \"#utility.yul\":27088:27091   */\n      0x00\n        /* \"#utility.yul\":27109:27175   */\n      tag_558\n        /* \"#utility.yul\":27173:27174   */\n      0x05\n        /* \"#utility.yul\":27168:27171   */\n      dup4\n        /* \"#utility.yul\":27109:27175   */\n      tag_219\n      jump\t// in\n    tag_558:\n        /* \"#utility.yul\":27102:27175   */\n      swap2\n      pop\n        /* \"#utility.yul\":27184:27277   */\n      tag_559\n        /* \"#utility.yul\":27273:27276   */\n      dup3\n        /* \"#utility.yul\":27184:27277   */\n      tag_281\n      jump\t// in\n    tag_559:\n        /* \"#utility.yul\":27302:27304   */\n      0x20\n        /* \"#utility.yul\":27297:27300   */\n      dup3\n        /* \"#utility.yul\":27293:27305   */\n      add\n        /* \"#utility.yul\":27286:27305   */\n      swap1\n      pop\n        /* \"#utility.yul\":26946:27311   */\n      swap2\n      swap1\n      pop\n      jump\t// out\n        /* \"#utility.yul\":27317:27736   */\n    tag_175:\n        /* \"#utility.yul\":27483:27487   */\n      0x00\n        /* \"#utility.yul\":27521:27523   */\n      0x20\n        /* \"#utility.yul\":27510:27519   */\n      dup3\n        /* \"#utility.yul\":27506:27524   */\n      add\n        /* \"#utility.yul\":27498:27524   */\n      swap1\n      pop\n        /* \"#utility.yul\":27570:27579   */\n      dup2\n        /* \"#utility.yul\":27564:27568   */\n      dup2\n        /* \"#utility.yul\":27560:27580   */\n      sub\n        /* \"#utility.yul\":27556:27557   */\n      0x00\n        /* \"#utility.yul\":27545:27554   */\n      dup4\n        /* \"#utility.yul\":27541:27558   */\n      add\n        /* \"#utility.yul\":27534:27581   */\n      mstore\n        /* \"#utility.yul\":27598:27729   */\n      tag_561\n        /* \"#utility.yul\":27724:27728   */\n      dup2\n        /* \"#utility.yul\":27598:27729   */\n      tag_282\n      jump\t// in\n    tag_561:\n        /* \"#utility.yul\":27590:27729   */\n      swap1\n      pop\n        /* \"#utility.yul\":27317:27736   */\n      swap2\n      swap1\n      pop\n      jump\t// out\n        /* \"#utility.yul\":27742:27905   */\n    tag_283:\n        /* \"#utility.yul\":27882:27897   */\n      0x416c726561647920766f74656400000000000000000000000000000000000000\n        /* \"#utility.yul\":27878:27879   */\n      0x00\n        /* \"#utility.yul\":27870:27876   */\n      dup3\n        /* \"#utility.yul\":27866:27880   */\n      add\n        /* \"#utility.yul\":27859:27898   */\n      mstore\n        /* \"#utility.yul\":27742:27905   */\n      pop\n      jump\t// out\n        /* \"#utility.yul\":27911:28277   */\n    tag_284:\n        /* \"#utility.yul\":28053:28056   */\n      0x00\n        /* \"#utility.yul\":28074:28141   */\n      tag_564\n        /* \"#utility.yul\":28138:28140   */\n      0x0d\n        /* \"#utility.yul\":28133:28136   */\n      dup4\n        /* \"#utility.yul\":28074:28141   */\n      tag_219\n      jump\t// in\n    tag_564:\n        /* \"#utility.yul\":28067:28141   */\n      swap2\n      pop\n        /* \"#utility.yul\":28150:28243   */\n      tag_565\n        /* \"#utility.yul\":28239:28242   */\n      dup3\n        /* \"#utility.yul\":28150:28243   */\n      tag_283\n      jump\t// in\n    tag_565:\n        /* \"#utility.yul\":28268:28270   */\n      0x20\n        /* \"#utility.yul\":28263:28266   */\n      dup3\n        /* \"#utility.yul\":28259:28271   */\n      add\n        /* \"#utility.yul\":28252:28271   */\n      swap1\n      pop\n        /* \"#utility.yul\":27911:28277   */\n      swap2\n      swap1\n      pop\n      jump\t// out\n        /* \"#utility.yul\":28283:28702   */\n    tag_182:\n        /* \"#utility.yul\":28449:28453   */\n      0x00\n        /* \"#utility.yul\":28487:28489   */\n      0x20\n        /* \"#utility.yul\":28476:28485   */\n      dup3\n        /* \"#utility.yul\":28472:28490   */\n      add\n        /* \"#utility.yul\":28464:28490   */\n      swap1\n      pop\n        /* \"#utility.yul\":28536:28545   */\n      dup2\n        /* \"#utility.yul\":28530:28534   */\n      dup2\n        /* \"#utility.yul\":28526:28546   */\n      sub\n        /* \"#utility.yul\":28522:28523   */\n      0x00\n        /* \"#utility.yul\":28511:28520   */\n      dup4\n        /* \"#utility.yul\":28507:28524   */\n      add\n        /* \"#utility.yul\":28500:28547   */\n      mstore\n        /* \"#utility.yul\":28564:28695   */\n      tag_567\n        /* \"#utility.yul\":28690:28694   */\n      dup2\n        /* \"#utility.yul\":28564:28695   */\n      tag_284\n      jump\t// in\n    tag_567:\n        /* \"#utility.yul\":28556:28695   */\n      swap1\n      pop\n        /* \"#utility.yul\":28283:28702   */\n      swap2\n      swap1\n      pop\n      jump\t// out\n        /* \"#utility.yul\":28708:28873   */\n    tag_285:\n        /* \"#utility.yul\":28848:28865   */\n      0x4e6f20766f74696e6720706f7765720000000000000000000000000000000000\n        /* \"#utility.yul\":28844:28845   */\n      0x00\n        /* \"#utility.yul\":28836:28842   */\n      dup3\n        /* \"#utility.yul\":28832:28846   */\n      add\n        /* \"#utility.yul\":28825:28866   */\n      mstore\n        /* \"#utility.yul\":28708:28873   */\n      pop\n      jump\t// out\n        /* \"#utility.yul\":28879:29245   */\n    tag_286:\n        /* \"#utility.yul\":29021:29024   */\n      0x00\n        /* \"#utility.yul\":29042:29109   */\n      tag_570\n        /* \"#utility.yul\":29106:29108   */\n      0x0f\n        /* \"#utility.yul\":29101:29104   */\n      dup4\n        /* \"#utility.yul\":29042:29109   */\n      tag_219\n      jump\t// in\n    tag_570:\n        /* \"#utility.yul\":29035:29109   */\n      swap2\n      pop\n        /* \"#utility.yul\":29118:29211   */\n      tag_571\n        /* \"#utility.yul\":29207:29210   */\n      dup3\n        /* \"#utility.yul\":29118:29211   */\n      tag_285\n      jump\t// in\n    tag_571:\n        /* \"#utility.yul\":29236:29238   */\n      0x20\n        /* \"#utility.yul\":29231:29234   */\n      dup3\n        /* \"#utility.yul\":29227:29239   */\n      add\n        /* \"#utility.yul\":29220:29239   */\n      swap1\n      pop\n        /* \"#utility.yul\":28879:29245   */\n      swap2\n      swap1\n      pop\n      jump\t// out\n        /* \"#utility.yul\":29251:29670   */\n    tag_189:\n        /* \"#utility.yul\":29417:29421   */\n      0x00\n        /* \"#utility.yul\":29455:29457   */\n      0x20\n        /* \"#utility.yul\":29444:29453   */\n      dup3\n        /* \"#utility.yul\":29440:29458   */\n      add\n        /* \"#utility.yul\":29432:29458   */\n      swap1\n      pop\n        /* \"#utility.yul\":29504:29513   */\n      dup2\n        /* \"#utility.yul\":29498:29502   */\n      dup2\n        /* \"#utility.yul\":29494:29514   */\n      sub\n        /* \"#utility.yul\":29490:29491   */\n      0x00\n        /* \"#utility.yul\":29479:29488   */\n      dup4\n        /* \"#utility.yul\":29475:29492   */\n      add\n        /* \"#utility.yul\":29468:29515   */\n      mstore\n        /* \"#utility.yul\":29532:29663   */\n      tag_573\n        /* \"#utility.yul\":29658:29662   */\n      dup2\n        /* \"#utility.yul\":29532:29663   */\n      tag_286\n      jump\t// in\n    tag_573:\n        /* \"#utility.yul\":29524:29663   */\n      swap1\n      pop\n        /* \"#utility.yul\":29251:29670   */\n      swap2\n      swap1\n      pop\n      jump\t// out\n        /* \"#utility.yul\":29676:29996   */\n    tag_195:\n        /* \"#utility.yul\":29791:29795   */\n      0x00\n        /* \"#utility.yul\":29829:29831   */\n      0x40\n        /* \"#utility.yul\":29818:29827   */\n      dup3\n        /* \"#utility.yul\":29814:29832   */\n      add\n        /* \"#utility.yul\":29806:29832   */\n      swap1\n      pop\n        /* \"#utility.yul\":29842:29907   */\n      tag_575\n        /* \"#utility.yul\":29904:29905   */\n      0x00\n        /* \"#utility.yul\":29893:29902   */\n      dup4\n        /* \"#utility.yul\":29889:29906   */\n      add\n        /* \"#utility.yul\":29880:29886   */\n      dup6\n        /* \"#utility.yul\":29842:29907   */\n      tag_225\n      jump\t// in\n    tag_575:\n        /* \"#utility.yul\":29917:29989   */\n      tag_576\n        /* \"#utility.yul\":29985:29987   */\n      0x20\n        /* \"#utility.yul\":29974:29983   */\n      dup4\n        /* \"#utility.yul\":29970:29988   */\n      add\n        /* \"#utility.yul\":29961:29967   */\n      dup5\n        /* \"#utility.yul\":29917:29989   */\n      tag_223\n      jump\t// in\n    tag_576:\n        /* \"#utility.yul\":29676:29996   */\n      swap4\n      swap3\n      pop\n      pop\n      pop\n      jump\t// out\n        /* \"#utility.yul\":30002:30334   */\n    tag_205:\n        /* \"#utility.yul\":30123:30127   */\n      0x00\n        /* \"#utility.yul\":30161:30163   */\n      0x40\n        /* \"#utility.yul\":30150:30159   */\n      dup3\n        /* \"#utility.yul\":30146:30164   */\n      add\n        /* \"#utility.yul\":30138:30164   */\n      swap1\n      pop\n        /* \"#utility.yul\":30174:30245   */\n      tag_578\n        /* \"#utility.yul\":30242:30243   */\n      0x00\n        /* \"#utility.yul\":30231:30240   */\n      dup4\n        /* \"#utility.yul\":30227:30244   */\n      add\n        /* \"#utility.yul\":30218:30224   */\n      dup6\n        /* \"#utility.yul\":30174:30245   */\n      tag_217\n      jump\t// in\n    tag_578:\n        /* \"#utility.yul\":30255:30327   */\n      tag_579\n        /* \"#utility.yul\":30323:30325   */\n      0x20\n        /* \"#utility.yul\":30312:30321   */\n      dup4\n        /* \"#utility.yul\":30308:30326   */\n      add\n        /* \"#utility.yul\":30299:30305   */\n      dup5\n        /* \"#utility.yul\":30255:30327   */\n      tag_223\n      jump\t// in\n    tag_579:\n        /* \"#utility.yul\":30002:30334   */\n      swap4\n      swap3\n      pop\n      pop\n      pop\n      jump\t// out\n\n    auxdata: 0xa264697066735822122064eb5b67ee07ecf463a32fb858a61165c2545a053af50ad8bf014323f2abf6ad64736f6c634300081e0033\n}\n",
				"bytecode": {
					"linkReferences": {},
					"object": "608060405234801561000f575f5ffd5b506040516128423803806128428339818101604052810190610031919061026e565b60015f819055505f73ffffffffffffffffffffffffffffffffffffffff168573ffffffffffffffffffffffffffffffffffffffff16036100a6576040517f08c379a000000000000000000000000000000000000000000000000000000000815260040161009d9061033f565b60405180910390fd5b5f84116100e8576040517f08c379a00000000000000000000000000000000000000000000000000000000081526004016100df906103a7565b60405180910390fd5b5f821180156100f8575060648211155b610137576040517f08c379a000000000000000000000000000000000000000000000000000000000815260040161012e9061040f565b60405180910390fd5b8460015f6101000a81548173ffffffffffffffffffffffffffffffffffffffff021916908373ffffffffffffffffffffffffffffffffffffffff16021790555083600581905550826006819055503360075f6101000a81548173ffffffffffffffffffffffffffffffffffffffff021916908373ffffffffffffffffffffffffffffffffffffffff1602179055508160088190555080600981905550505050505061042d565b5f5ffd5b5f73ffffffffffffffffffffffffffffffffffffffff82169050919050565b5f61020a826101e1565b9050919050565b61021a81610200565b8114610224575f5ffd5b50565b5f8151905061023581610211565b92915050565b5f819050919050565b61024d8161023b565b8114610257575f5ffd5b50565b5f8151905061026881610244565b92915050565b5f5f5f5f5f60a08688031215610287576102866101dd565b5b5f61029488828901610227565b95505060206102a58882890161025a565b94505060406102b68882890161025a565b93505060606102c78882890161025a565b92505060806102d88882890161025a565b9150509295509295909350565b5f82825260208201905092915050565b7f496e76616c696420746f6b656e000000000000000000000000000000000000005f82015250565b5f610329600d836102e5565b9150610334826102f5565b602082019050919050565b5f6020820190508181035f8301526103568161031d565b9050919050565b7f496e76616c6964206475726174696f6e000000000000000000000000000000005f82015250565b5f6103916010836102e5565b915061039c8261035d565b602082019050919050565b5f6020820190508181035f8301526103be81610385565b9050919050565b7f496e76616c69642071756f72756d0000000000000000000000000000000000005f82015250565b5f6103f9600e836102e5565b9150610404826103c5565b602082019050919050565b5f6020820190508181035f830152610426816103ed565b9050919050565b6124088061043a5f395ff3fe608060405234801561000f575f5ffd5b5060043610610109575f3560e01c806343859632116100a0578063af42d03a1161006f578063af42d03a146102ab578063c9d27afe146102c7578063f851a440146102e3578063f91f88f714610301578063f96dae0a1461033457610109565b8063438596321461021157806349c2a1a6146102415780634fa76ec9146102715780635652077c1461028f57610109565b8063150fea09116100dc578063150fea091461019d5780632ab09d14146101b95780632bbca157146101d757806332f6a1dc146101f557610109565b8063013cf08b1461010d5780630d61b519146101455780630e7ca9e314610161578063132002fc1461017f575b5f5ffd5b610127600480360381019061012291906114c9565b610352565b60405161013c999897969594939291906115cc565b60405180910390f35b61015f600480360381019061015a91906114c9565b61045a565b005b6101696105f4565b604051610176919061165e565b60405180910390f35b6101876105fa565b604051610194919061165e565b60405180910390f35b6101b760048036038101906101b291906114c9565b610600565b005b6101c16106d0565b6040516101ce919061165e565b60405180910390f35b6101df6106d6565b6040516101ec919061165e565b60405180910390f35b61020f600480360381019061020a91906114c9565b6106dc565b005b61022b600480360381019061022691906116a1565b6107b9565b60405161023891906116df565b60405180910390f35b61025b60048036038101906102569190611824565b6107e3565b604051610268919061165e565b60405180910390f35b610279610a8b565b604051610286919061165e565b60405180910390f35b6102a960048036038101906102a491906114c9565b610a91565b005b6102c560048036038101906102c091906114c9565b610d6b565b005b6102e160048036038101906102dc9190611895565b610e04565b005b6102eb6111bb565b6040516102f891906118d3565b60405180910390f35b61031b600480360381019061031691906114c9565b6111e0565b60405161032b94939291906118ec565b60405180910390f35b61033c61137c565b604051610349919061198a565b60405180910390f35b6002602052805f5260405f205f91509050805f015f9054906101000a900473ffffffffffffffffffffffffffffffffffffffff1690806001018054610396906119d0565b80601f01602080910402602001604051908101604052809291908181526020018280546103c2906119d0565b801561040d5780601f106103e45761010080835404028352916020019161040d565b820191905f5260205f20905b8154815290600101906020018083116103f057829003601f168201915b505050505090806002015490806003015490806004015490806005015490806006015f9054906101000a900460ff16908060060160019054906101000a900460ff16908060070154905089565b5f60025f8381526020019081526020015f2090505f8160070154116104b4576040517f08c379a00000000000000000000000000000000000000000000000000000000081526004016104ab90611a4a565b60405180910390fd5b80600701544210156104fb576040517f08c379a00000000000000000000000000000000000000000000000000000000081526004016104f290611ab2565b60405180910390fd5b806006015f9054906101000a900460ff161561054c576040517f08c379a000000000000000000000000000000000000000000000000000000000815260040161054390611b1a565b60405180910390fd5b8060060160019054906101000a900460ff161561059e576040517f08c379a000000000000000000000000000000000000000000000000000000000815260040161059590611b82565b60405180910390fd5b6001816006015f6101000a81548160ff0219169083151502179055506105c3826113a1565b817f712ae1383f79ac853f8d882153778e0260ef8f03b504e2866e0593e04d2b291f60405160405180910390a25050565b60095481565b60055481565b60075f9054906101000a900473ffffffffffffffffffffffffffffffffffffffff1673ffffffffffffffffffffffffffffffffffffffff163373ffffffffffffffffffffffffffffffffffffffff161461068f576040517f08c379a000000000000000000000000000000000000000000000000000000000815260040161068690611bea565b60405180910390fd5b806006819055507f980b903efea70e6b1bd235b1fb05f1a5da73cbd478b73c9538053f9eb29f129f816040516106c5919061165e565b60405180910390a150565b60045481565b60065481565b60075f9054906101000a900473ffffffffffffffffffffffffffffffffffffffff1673ffffffffffffffffffffffffffffffffffffffff163373ffffffffffffffffffffffffffffffffffffffff161461076b576040517f08c379a000000000000000000000000000000000000000000000000000000000815260040161076290611bea565b60405180910390fd5b60648111156107af576040517f08c379a00000000000000000000000000000000000000000000000000000000081526004016107a690611c78565b60405180910390fd5b8060088190555050565b6003602052815f5260405f20602052805f5260405f205f915091509054906101000a900460ff1681565b5f5f825111610827576040517f08c379a000000000000000000000000000000000000000000000000000000000815260040161081e90611ce0565b60405180910390fd5b5f60095411156108d35760015f9054906101000a900473ffffffffffffffffffffffffffffffffffffffff1673ffffffffffffffffffffffffffffffffffffffff166323b872dd33306009546040518463ffffffff1660e01b815260040161089193929190611cfe565b6020604051808303815f875af11580156108ad573d5f5f3e3d5ffd5b505050506040513d601f19601f820116820180604052508101906108d19190611d47565b505b5f60045f8154809291906108e690611d9f565b9190505590506040518061012001604052803373ffffffffffffffffffffffffffffffffffffffff1681526020018481526020015f81526020015f81526020014281526020016005544261093a9190611de6565b81526020015f151581526020015f151581526020015f81525060025f8381526020019081526020015f205f820151815f015f6101000a81548173ffffffffffffffffffffffffffffffffffffffff021916908373ffffffffffffffffffffffffffffffffffffffff16021790555060208201518160010190816109bd9190611fb0565b5060408201518160020155606082015181600301556080820151816004015560a0820151816005015560c0820151816006015f6101000a81548160ff02191690831515021790555060e08201518160060160016101000a81548160ff02191690831515021790555061010082015181600701559050503373ffffffffffffffffffffffffffffffffffffffff16817f7585f467599d0f008985f231af99293be388626ac16ca59505c2f8f88969cd6385604051610a7a919061207f565b60405180910390a380915050919050565b60085481565b5f60025f8381526020019081526020015f20905080600501544211610aeb576040517f08c379a0000000000000000000000000000000000000000000000000000000008152600401610ae2906120e9565b60405180910390fd5b806006015f9054906101000a900460ff1615610b3c576040517f08c379a0000000000000000000000000000000000000000000000000000000008152600401610b3390611b1a565b60405180910390fd5b8060060160019054906101000a900460ff1615610b8e576040517f08c379a0000000000000000000000000000000000000000000000000000000008152600401610b8590611b82565b60405180910390fd5b5f81600301548260020154610ba39190611de6565b90505f60015f9054906101000a900473ffffffffffffffffffffffffffffffffffffffff1673ffffffffffffffffffffffffffffffffffffffff166318160ddd6040518163ffffffff1660e01b8152600401602060405180830381865afa158015610c10573d5f5f3e3d5ffd5b505050506040513d601f19601f82011682018060405250810190610c34919061211b565b90505f606460085483610c479190612146565b610c5191906121b4565b9050808310158015610c6a575083600301548460020154115b15610d19575f6006541115610cc15760065442610c879190611de6565b8460070181905550847f4e3180fc09418f427bbfae80bce9eaedd459690d1dab5c62d57b3f56b23e35c460405160405180910390a2610d14565b6001846006015f6101000a81548160ff021916908315150217905550610ce6856113a1565b847f712ae1383f79ac853f8d882153778e0260ef8f03b504e2866e0593e04d2b291f60405160405180910390a25b610d64565b60018460060160016101000a81548160ff021916908315150217905550847f9536f7423dd39687d0ee332e3794eda5d12d85a233395133bd9822ef1b3a820c60405160405180910390a25b5050505050565b60075f9054906101000a900473ffffffffffffffffffffffffffffffffffffffff1673ffffffffffffffffffffffffffffffffffffffff163373ffffffffffffffffffffffffffffffffffffffff1614610dfa576040517f08c379a0000000000000000000000000000000000000000000000000000000008152600401610df190611bea565b60405180910390fd5b8060098190555050565b5f60025f8481526020019081526020015f2090508060040154421015610e5f576040517f08c379a0000000000000000000000000000000000000000000000000000000008152600401610e569061222e565b60405180910390fd5b8060050154421115610ea6576040517f08c379a0000000000000000000000000000000000000000000000000000000008152600401610e9d90612296565b60405180910390fd5b806006015f9054906101000a900460ff1615610ef7576040517f08c379a0000000000000000000000000000000000000000000000000000000008152600401610eee90611b1a565b60405180910390fd5b8060060160019054906101000a900460ff1615610f49576040517f08c379a0000000000000000000000000000000000000000000000000000000008152600401610f4090611b82565b60405180910390fd5b60035f8481526020019081526020015f205f3373ffffffffffffffffffffffffffffffffffffffff1673ffffffffffffffffffffffffffffffffffffffff1681526020019081526020015f205f9054906101000a900460ff1615610fe2576040517f08c379a0000000000000000000000000000000000000000000000000000000008152600401610fd9906122fe565b60405180910390fd5b5f60015f9054906101000a900473ffffffffffffffffffffffffffffffffffffffff1673ffffffffffffffffffffffffffffffffffffffff166370a08231336040518263ffffffff1660e01b815260040161103d91906118d3565b602060405180830381865afa158015611058573d5f5f3e3d5ffd5b505050506040513d601f19601f8201168201806040525081019061107c919061211b565b90505f81116110c0576040517f08c379a00000000000000000000000000000000000000000000000000000000081526004016110b790612366565b60405180910390fd5b600160035f8681526020019081526020015f205f3373ffffffffffffffffffffffffffffffffffffffff1673ffffffffffffffffffffffffffffffffffffffff1681526020019081526020015f205f6101000a81548160ff02191690831515021790555082156111495780826002015f82825461113d9190611de6565b92505081905550611164565b80826003015f82825461115c9190611de6565b925050819055505b3373ffffffffffffffffffffffffffffffffffffffff16847f7c2de587c00d75474a0c6c6fa96fd3b45dc974cd4e8a75f712bb84c950dce1b585846040516111ad929190612384565b60405180910390a350505050565b60075f9054906101000a900473ffffffffffffffffffffffffffffffffffffffff1681565b5f5f5f5f5f60025f8781526020019081526020015f20604051806101200160405290815f82015f9054906101000a900473ffffffffffffffffffffffffffffffffffffffff1673ffffffffffffffffffffffffffffffffffffffff1673ffffffffffffffffffffffffffffffffffffffff168152602001600182018054611266906119d0565b80601f0160208091040260200160405190810160405280929190818152602001828054611292906119d0565b80156112dd5780601f106112b4576101008083540402835291602001916112dd565b820191905f5260205f20905b8154815290600101906020018083116112c057829003601f168201915b5050505050815260200160028201548152602001600382015481526020016004820154815260200160058201548152602001600682015f9054906101000a900460ff161515151581526020016006820160019054906101000a900460ff1615151515815260200160078201548152505090508060600151816040015111945084816040015182606001518360c001519450945094509450509193509193565b60015f9054906101000a900473ffffffffffffffffffffffffffffffffffffffff1681565b5f6009541115611482575f60025f8381526020019081526020015f20905060015f9054906101000a900473ffffffffffffffffffffffffffffffffffffffff1673ffffffffffffffffffffffffffffffffffffffff1663a9059cbb825f015f9054906101000a900473ffffffffffffffffffffffffffffffffffffffff166009546040518363ffffffff1660e01b815260040161143f9291906123ab565b6020604051808303815f875af115801561145b573d5f5f3e3d5ffd5b505050506040513d601f19601f8201168201806040525081019061147f9190611d47565b50505b50565b5f604051905090565b5f5ffd5b5f5ffd5b5f819050919050565b6114a881611496565b81146114b2575f5ffd5b50565b5f813590506114c38161149f565b92915050565b5f602082840312156114de576114dd61148e565b5b5f6114eb848285016114b5565b91505092915050565b5f73ffffffffffffffffffffffffffffffffffffffff82169050919050565b5f61151d826114f4565b9050919050565b61152d81611513565b82525050565b5f81519050919050565b5f82825260208201905092915050565b8281835e5f83830152505050565b5f601f19601f8301169050919050565b5f61157582611533565b61157f818561153d565b935061158f81856020860161154d565b6115988161155b565b840191505092915050565b6115ac81611496565b82525050565b5f8115159050919050565b6115c6816115b2565b82525050565b5f610120820190506115e05f83018c611524565b81810360208301526115f2818b61156b565b9050611601604083018a6115a3565b61160e60608301896115a3565b61161b60808301886115a3565b61162860a08301876115a3565b61163560c08301866115bd565b61164260e08301856115bd565b6116506101008301846115a3565b9a9950505050505050505050565b5f6020820190506116715f8301846115a3565b92915050565b61168081611513565b811461168a575f5ffd5b50565b5f8135905061169b81611677565b92915050565b5f5f604083850312156116b7576116b661148e565b5b5f6116c4858286016114b5565b92505060206116d58582860161168d565b9150509250929050565b5f6020820190506116f25f8301846115bd565b92915050565b5f5ffd5b5f5ffd5b7f4e487b71000000000000000000000000000000000000000000000000000000005f52604160045260245ffd5b6117368261155b565b810181811067ffffffffffffffff8211171561175557611754611700565b5b80604052505050565b5f611767611485565b9050611773828261172d565b919050565b5f67ffffffffffffffff82111561179257611791611700565b5b61179b8261155b565b9050602081019050919050565b828183375f83830152505050565b5f6117c86117c384611778565b61175e565b9050828152602081018484840111156117e4576117e36116fc565b5b6117ef8482856117a8565b509392505050565b5f82601f83011261180b5761180a6116f8565b5b813561181b8482602086016117b6565b91505092915050565b5f602082840312156118395761183861148e565b5b5f82013567ffffffffffffffff81111561185657611855611492565b5b611862848285016117f7565b91505092915050565b611874816115b2565b811461187e575f5ffd5b50565b5f8135905061188f8161186b565b92915050565b5f5f604083850312156118ab576118aa61148e565b5b5f6118b8858286016114b5565b92505060206118c985828601611881565b9150509250929050565b5f6020820190506118e65f830184611524565b92915050565b5f6080820190506118ff5f8301876115bd565b61190c60208301866115a3565b61191960408301856115a3565b61192660608301846115bd565b95945050505050565b5f819050919050565b5f61195261194d611948846114f4565b61192f565b6114f4565b9050919050565b5f61196382611938565b9050919050565b5f61197482611959565b9050919050565b6119848161196a565b82525050565b5f60208201905061199d5f83018461197b565b92915050565b7f4e487b71000000000000000000000000000000000000000000000000000000005f52602260045260245ffd5b5f60028204905060018216806119e757607f821691505b6020821081036119fa576119f96119a3565b5b50919050565b7f4e6f2074696d656c6f636b2073657400000000000000000000000000000000005f82015250565b5f611a34600f8361153d565b9150611a3f82611a00565b602082019050919050565b5f6020820190508181035f830152611a6181611a28565b9050919050565b7f54696d656c6f636b206e6f7420656e64656400000000000000000000000000005f82015250565b5f611a9c60128361153d565b9150611aa782611a68565b602082019050919050565b5f6020820190508181035f830152611ac981611a90565b9050919050565b7f416c7265616479206578656375746564000000000000000000000000000000005f82015250565b5f611b0460108361153d565b9150611b0f82611ad0565b602082019050919050565b5f6020820190508181035f830152611b3181611af8565b9050919050565b7f43616e63656c65640000000000000000000000000000000000000000000000005f82015250565b5f611b6c60088361153d565b9150611b7782611b38565b602082019050919050565b5f6020820190508181035f830152611b9981611b60565b9050919050565b7f4e6f742061646d696e00000000000000000000000000000000000000000000005f82015250565b5f611bd460098361153d565b9150611bdf82611ba0565b602082019050919050565b5f6020820190508181035f830152611c0181611bc8565b9050919050565b7f51756f72756d2070657263656e74616765206d757374206265206265747765655f8201527f6e203020616e6420313030000000000000000000000000000000000000000000602082015250565b5f611c62602b8361153d565b9150611c6d82611c08565b604082019050919050565b5f6020820190508181035f830152611c8f81611c56565b9050919050565b7f456d707479206465736372697074696f6e0000000000000000000000000000005f82015250565b5f611cca60118361153d565b9150611cd582611c96565b602082019050919050565b5f6020820190508181035f830152611cf781611cbe565b9050919050565b5f606082019050611d115f830186611524565b611d1e6020830185611524565b611d2b60408301846115a3565b949350505050565b5f81519050611d418161186b565b92915050565b5f60208284031215611d5c57611d5b61148e565b5b5f611d6984828501611d33565b91505092915050565b7f4e487b71000000000000000000000000000000000000000000000000000000005f52601160045260245ffd5b5f611da982611496565b91507fffffffffffffffffffffffffffffffffffffffffffffffffffffffffffffffff8203611ddb57611dda611d72565b5b600182019050919050565b5f611df082611496565b9150611dfb83611496565b9250828201905080821115611e1357611e12611d72565b5b92915050565b5f819050815f5260205f209050919050565b5f6020601f8301049050919050565b5f82821b905092915050565b5f60088302611e757fffffffffffffffffffffffffffffffffffffffffffffffffffffffffffffffff82611e3a565b611e7f8683611e3a565b95508019841693508086168417925050509392505050565b5f611eb1611eac611ea784611496565b61192f565b611496565b9050919050565b5f819050919050565b611eca83611e97565b611ede611ed682611eb8565b848454611e46565b825550505050565b5f5f905090565b611ef5611ee6565b611f00818484611ec1565b505050565b5b81811015611f2357611f185f82611eed565b600181019050611f06565b5050565b601f821115611f6857611f3981611e19565b611f4284611e2b565b81016020851015611f51578190505b611f65611f5d85611e2b565b830182611f05565b50505b505050565b5f82821c905092915050565b5f611f885f1984600802611f6d565b1980831691505092915050565b5f611fa08383611f79565b9150826002028217905092915050565b611fb982611533565b67ffffffffffffffff811115611fd257611fd1611700565b5b611fdc82546119d0565b611fe7828285611f27565b5f60209050601f831160018114612018575f8415612006578287015190505b6120108582611f95565b865550612077565b601f19841661202686611e19565b5f5b8281101561204d57848901518255600182019150602085019450602081019050612028565b8683101561206a5784890151612066601f891682611f79565b8355505b6001600288020188555050505b505050505050565b5f6020820190508181035f830152612097818461156b565b905092915050565b7f566f74696e67206e6f7420656e646564000000000000000000000000000000005f82015250565b5f6120d360108361153d565b91506120de8261209f565b602082019050919050565b5f6020820190508181035f830152612100816120c7565b9050919050565b5f815190506121158161149f565b92915050565b5f602082840312156121305761212f61148e565b5b5f61213d84828501612107565b91505092915050565b5f61215082611496565b915061215b83611496565b925082820261216981611496565b915082820484148315176121805761217f611d72565b5b5092915050565b7f4e487b71000000000000000000000000000000000000000000000000000000005f52601260045260245ffd5b5f6121be82611496565b91506121c983611496565b9250826121d9576121d8612187565b5b828204905092915050565b7f4e6f7420737461727465640000000000000000000000000000000000000000005f82015250565b5f612218600b8361153d565b9150612223826121e4565b602082019050919050565b5f6020820190508181035f8301526122458161220c565b9050919050565b7f456e6465640000000000000000000000000000000000000000000000000000005f82015250565b5f61228060058361153d565b915061228b8261224c565b602082019050919050565b5f6020820190508181035f8301526122ad81612274565b9050919050565b7f416c726561647920766f746564000000000000000000000000000000000000005f82015250565b5f6122e8600d8361153d565b91506122f3826122b4565b602082019050919050565b5f6020820190508181035f830152612315816122dc565b9050919050565b7f4e6f20766f74696e6720706f77657200000000000000000000000000000000005f82015250565b5f612350600f8361153d565b915061235b8261231c565b602082019050919050565b5f6020820190508181035f83015261237d81612344565b9050919050565b5f6040820190506123975f8301856115bd565b6123a460208301846115a3565b9392505050565b5f6040820190506123be5f830185611524565b6123cb60208301846115a3565b939250505056fea264697066735822122064eb5b67ee07ecf463a32fb858a61165c2545a053af50ad8bf014323f2abf6ad64736f6c634300081e0033",
					"opcodes": "PUSH1 0x80 PUSH1 0x40 MSTORE CALLVALUE DUP1 ISZERO PUSH2 0xF JUMPI PUSH0 PUSH0 REVERT JUMPDEST POP PUSH1 0x40 MLOAD PUSH2 0x2842 CODESIZE SUB DUP1 PUSH2 0x2842 DUP4 CODECOPY DUP2 DUP2 ADD PUSH1 0x40 MSTORE DUP2 ADD SWAP1 PUSH2 0x31 SWAP2 SWAP1 PUSH2 0x26E JUMP JUMPDEST PUSH1 0x1 PUSH0 DUP2 SWAP1 SSTORE POP PUSH0 PUSH20 0xFFFFFFFFFFFFFFFFFFFFFFFFFFFFFFFFFFFFFFFF AND DUP6 PUSH20 0xFFFFFFFFFFFFFFFFFFFFFFFFFFFFFFFFFFFFFFFF AND SUB PUSH2 0xA6 JUMPI PUSH1 0x40 MLOAD PUSH32 0x8C379A000000000000000000000000000000000000000000000000000000000 DUP2 MSTORE PUSH1 0x4 ADD PUSH2 0x9D SWAP1 PUSH2 0x33F JUMP JUMPDEST PUSH1 0x40 MLOAD DUP1 SWAP2 SUB SWAP1 REVERT JUMPDEST PUSH0 DUP5 GT PUSH2 0xE8 JUMPI PUSH1 0x40 MLOAD PUSH32 0x8C379A000000000000000000000000000000000000000000000000000000000 DUP2 MSTORE PUSH1 0x4 ADD PUSH2 0xDF SWAP1 PUSH2 0x3A7 JUMP JUMPDEST PUSH1 0x40 MLOAD DUP1 SWAP2 SUB SWAP1 REVERT JUMPDEST PUSH0 DUP3 GT DUP1 ISZERO PUSH2 0xF8 JUMPI POP PUSH1 0x64 DUP3 GT ISZERO JUMPDEST PUSH2 0x137 JUMPI PUSH1 0x40 MLOAD PUSH32 0x8C379A000000000000000000000000000000000000000000000000000000000 DUP2 MSTORE PUSH1 0x4 ADD PUSH2 0x12E SWAP1 PUSH2 0x40F JUMP JUMPDEST PUSH1 0x40 MLOAD DUP1 SWAP2 SUB SWAP1 REVERT JUMPDEST DUP5 PUSH1 0x1 PUSH0 PUSH2 0x100 EXP DUP2 SLOAD DUP2 PUSH20 0xFFFFFFFFFFFFFFFFFFFFFFFFFFFFFFFFFFFFFFFF MUL NOT AND SWAP1 DUP4 PUSH20 0xFFFFFFFFFFFFFFFFFFFFFFFFFFFFFFFFFFFFFFFF AND MUL OR SWAP1 SSTORE POP DUP4 PUSH1 0x5 DUP2 SWAP1 SSTORE POP DUP3 PUSH1 0x6 DUP2 SWAP1 SSTORE POP CALLER PUSH1 0x7 PUSH0 PUSH2 0x100 EXP DUP2 SLOAD DUP2 PUSH20 0xFFFFFFFFFFFFFFFFFFFFFFFFFFFFFFFFFFFFFFFF MUL NOT AND SWAP1 DUP4 PUSH20 0xFFFFFFFFFFFFFFFFFFFFFFFFFFFFFFFFFFFFFFFF AND MUL OR SWAP1 SSTORE POP DUP2 PUSH1 0x8 DUP2 SWAP1 SSTORE POP DUP1 PUSH1 0x9 DUP2 SWAP1 SSTORE POP POP POP POP POP POP PUSH2 0x42D JUMP JUMPDEST PUSH0 PUSH0 REVERT JUMPDEST PUSH0 PUSH20 0xFFFFFFFFFFFFFFFFFFFFFFFFFFFFFFFFFFFFFFFF DUP3 AND SWAP1 POP SWAP2 SWAP1 POP JUMP JUMPDEST PUSH0 PUSH2 0x20A DUP3 PUSH2 0x1E1 JUMP JUMPDEST SWAP1 POP SWAP2 SWAP1 POP JUMP JUMPDEST PUSH2 0x21A DUP2 PUSH2 0x200 JUMP JUMPDEST DUP2 EQ PUSH2 0x224 JUMPI PUSH0 PUSH0 REVERT JUMPDEST POP JUMP JUMPDEST PUSH0 DUP2 MLOAD SWAP1 POP PUSH2 0x235 DUP2 PUSH2 0x211 JUMP JUMPDEST SWAP3 SWAP2 POP POP JUMP JUMPDEST PUSH0 DUP2 SWAP1 POP SWAP2 SWAP1 POP JUMP JUMPDEST PUSH2 0x24D DUP2 PUSH2 0x23B JUMP JUMPDEST DUP2 EQ PUSH2 0x257 JUMPI PUSH0 PUSH0 REVERT JUMPDEST POP JUMP JUMPDEST PUSH0 DUP2 MLOAD SWAP1 POP PUSH2 0x268 DUP2 PUSH2 0x244 JUMP JUMPDEST SWAP3 SWAP2 POP POP JUMP JUMPDEST PUSH0 PUSH0 PUSH0 PUSH0 PUSH0 PUSH1 0xA0 DUP7 DUP9 SUB SLT ISZERO PUSH2 0x287 JUMPI PUSH2 0x286 PUSH2 0x1DD JUMP JUMPDEST JUMPDEST PUSH0 PUSH2 0x294 DUP9 DUP3 DUP10 ADD PUSH2 0x227 JUMP JUMPDEST SWAP6 POP POP PUSH1 0x20 PUSH2 0x2A5 DUP9 DUP3 DUP10 ADD PUSH2 0x25A JUMP JUMPDEST SWAP5 POP POP PUSH1 0x40 PUSH2 0x2B6 DUP9 DUP3 DUP10 ADD PUSH2 0x25A JUMP JUMPDEST SWAP4 POP POP PUSH1 0x60 PUSH2 0x2C7 DUP9 DUP3 DUP10 ADD PUSH2 0x25A JUMP JUMPDEST SWAP3 POP POP PUSH1 0x80 PUSH2 0x2D8 DUP9 DUP3 DUP10 ADD PUSH2 0x25A JUMP JUMPDEST SWAP2 POP POP SWAP3 SWAP6 POP SWAP3 SWAP6 SWAP1 SWAP4 POP JUMP JUMPDEST PUSH0 DUP3 DUP3 MSTORE PUSH1 0x20 DUP3 ADD SWAP1 POP SWAP3 SWAP2 POP POP JUMP JUMPDEST PUSH32 0x496E76616C696420746F6B656E00000000000000000000000000000000000000 PUSH0 DUP3 ADD MSTORE POP JUMP JUMPDEST PUSH0 PUSH2 0x329 PUSH1 0xD DUP4 PUSH2 0x2E5 JUMP JUMPDEST SWAP2 POP PUSH2 0x334 DUP3 PUSH2 0x2F5 JUMP JUMPDEST PUSH1 0x20 DUP3 ADD SWAP1 POP SWAP2 SWAP1 POP JUMP JUMPDEST PUSH0 PUSH1 0x20 DUP3 ADD SWAP1 POP DUP2 DUP2 SUB PUSH0 DUP4 ADD MSTORE PUSH2 0x356 DUP2 PUSH2 0x31D JUMP JUMPDEST SWAP1 POP SWAP2 SWAP1 POP JUMP JUMPDEST PUSH32 0x496E76616C6964206475726174696F6E00000000000000000000000000000000 PUSH0 DUP3 ADD MSTORE POP JUMP JUMPDEST PUSH0 PUSH2 0x391 PUSH1 0x10 DUP4 PUSH2 0x2E5 JUMP JUMPDEST SWAP2 POP PUSH2 0x39C DUP3 PUSH2 0x35D JUMP JUMPDEST PUSH1 0x20 DUP3 ADD SWAP1 POP SWAP2 SWAP1 POP JUMP JUMPDEST PUSH0 PUSH1 0x20 DUP3 ADD SWAP1 POP DUP2 DUP2 SUB PUSH0 DUP4 ADD MSTORE PUSH2 0x3BE DUP2 PUSH2 0x385 JUMP JUMPDEST SWAP1 POP SWAP2 SWAP1 POP JUMP JUMPDEST PUSH32 0x496E76616C69642071756F72756D000000000000000000000000000000000000 PUSH0 DUP3 ADD MSTORE POP JUMP JUMPDEST PUSH0 PUSH2 0x3F9 PUSH1 0xE DUP4 PUSH2 0x2E5 JUMP JUMPDEST SWAP2 POP PUSH2 0x404 DUP3 PUSH2 0x3C5 JUMP JUMPDEST PUSH1 0x20 DUP3 ADD SWAP1 POP SWAP2 SWAP1 POP JUMP JUMPDEST PUSH0 PUSH1 0x20 DUP3 ADD SWAP1 POP DUP2 DUP2 SUB PUSH0 DUP4 ADD MSTORE PUSH2 0x426 DUP2 PUSH2 0x3ED JUMP JUMPDEST SWAP1 POP SWAP2 SWAP1 POP JUMP JUMPDEST PUSH2 0x2408 DUP1 PUSH2 0x43A PUSH0 CODECOPY PUSH0 RETURN INVALID PUSH1 0x80 PUSH1 0x40 MSTORE CALLVALUE DUP1 ISZERO PUSH2 0xF JUMPI PUSH0 PUSH0 REVERT JUMPDEST POP PUSH1 0x4 CALLDATASIZE LT PUSH2 0x109 JUMPI PUSH0 CALLDATALOAD PUSH1 0xE0 SHR DUP1 PUSH4 0x43859632 GT PUSH2 0xA0 JUMPI DUP1 PUSH4 0xAF42D03A GT PUSH2 0x6F JUMPI DUP1 PUSH4 0xAF42D03A EQ PUSH2 0x2AB JUMPI DUP1 PUSH4 0xC9D27AFE EQ PUSH2 0x2C7 JUMPI DUP1 PUSH4 0xF851A440 EQ PUSH2 0x2E3 JUMPI DUP1 PUSH4 0xF91F88F7 EQ PUSH2 0x301 JUMPI DUP1 PUSH4 0xF96DAE0A EQ PUSH2 0x334 JUMPI PUSH2 0x109 JUMP JUMPDEST DUP1 PUSH4 0x43859632 EQ PUSH2 0x211 JUMPI DUP1 PUSH4 0x49C2A1A6 EQ PUSH2 0x241 JUMPI DUP1 PUSH4 0x4FA76EC9 EQ PUSH2 0x271 JUMPI DUP1 PUSH4 0x5652077C EQ PUSH2 0x28F JUMPI PUSH2 0x109 JUMP JUMPDEST DUP1 PUSH4 0x150FEA09 GT PUSH2 0xDC JUMPI DUP1 PUSH4 0x150FEA09 EQ PUSH2 0x19D JUMPI DUP1 PUSH4 0x2AB09D14 EQ PUSH2 0x1B9 JUMPI DUP1 PUSH4 0x2BBCA157 EQ PUSH2 0x1D7 JUMPI DUP1 PUSH4 0x32F6A1DC EQ PUSH2 0x1F5 JUMPI PUSH2 0x109 JUMP JUMPDEST DUP1 PUSH4 0x13CF08B EQ PUSH2 0x10D JUMPI DUP1 PUSH4 0xD61B519 EQ PUSH2 0x145 JUMPI DUP1 PUSH4 0xE7CA9E3 EQ PUSH2 0x161 JUMPI DUP1 PUSH4 0x132002FC EQ PUSH2 0x17F JUMPI JUMPDEST PUSH0 PUSH0 REVERT JUMPDEST PUSH2 0x127 PUSH1 0x4 DUP1 CALLDATASIZE SUB DUP2 ADD SWAP1 PUSH2 0x122 SWAP2 SWAP1 PUSH2 0x14C9 JUMP JUMPDEST PUSH2 0x352 JUMP JUMPDEST PUSH1 0x40 MLOAD PUSH2 0x13C SWAP10 SWAP9 SWAP8 SWAP7 SWAP6 SWAP5 SWAP4 SWAP3 SWAP2 SWAP1 PUSH2 0x15CC JUMP JUMPDEST PUSH1 0x40 MLOAD DUP1 SWAP2 SUB SWAP1 RETURN JUMPDEST PUSH2 0x15F PUSH1 0x4 DUP1 CALLDATASIZE SUB DUP2 ADD SWAP1 PUSH2 0x15A SWAP2 SWAP1 PUSH2 0x14C9 JUMP JUMPDEST PUSH2 0x45A JUMP JUMPDEST STOP JUMPDEST PUSH2 0x169 PUSH2 0x5F4 JUMP JUMPDEST PUSH1 0x40 MLOAD PUSH2 0x176 SWAP2 SWAP1 PUSH2 0x165E JUMP JUMPDEST PUSH1 0x40 MLOAD DUP1 SWAP2 SUB SWAP1 RETURN JUMPDEST PUSH2 0x187 PUSH2 0x5FA JUMP JUMPDEST PUSH1 0x40 MLOAD PUSH2 0x194 SWAP2 SWAP1 PUSH2 0x165E JUMP JUMPDEST PUSH1 0x40 MLOAD DUP1 SWAP2 SUB SWAP1 RETURN JUMPDEST PUSH2 0x1B7 PUSH1 0x4 DUP1 CALLDATASIZE SUB DUP2 ADD SWAP1 PUSH2 0x1B2 SWAP2 SWAP1 PUSH2 0x14C9 JUMP JUMPDEST PUSH2 0x600 JUMP JUMPDEST STOP JUMPDEST PUSH2 0x1C1 PUSH2 0x6D0 JUMP JUMPDEST PUSH1 0x40 MLOAD PUSH2 0x1CE SWAP2 SWAP1 PUSH2 0x165E JUMP JUMPDEST PUSH1 0x40 MLOAD DUP1 SWAP2 SUB SWAP1 RETURN JUMPDEST PUSH2 0x1DF PUSH2 0x6D6 JUMP JUMPDEST PUSH1 0x40 MLOAD PUSH2 0x1EC SWAP2 SWAP1 PUSH2 0x165E JUMP JUMPDEST PUSH1 0x40 MLOAD DUP1 SWAP2 SUB SWAP1 RETURN JUMPDEST PUSH2 0x20F PUSH1 0x4 DUP1 CALLDATASIZE SUB DUP2 ADD SWAP1 PUSH2 0x20A SWAP2 SWAP1 PUSH2 0x14C9 JUMP JUMPDEST PUSH2 0x6DC JUMP JUMPDEST STOP JUMPDEST PUSH2 0x22B PUSH1 0x4 DUP1 CALLDATASIZE SUB DUP2 ADD SWAP1 PUSH2 0x226 SWAP2 SWAP1 PUSH2 0x16A1 JUMP JUMPDEST PUSH2 0x7B9 JUMP JUMPDEST PUSH1 0x40 MLOAD PUSH2 0x238 SWAP2 SWAP1 PUSH2 0x16DF JUMP JUMPDEST PUSH1 0x40 MLOAD DUP1 SWAP2 SUB SWAP1 RETURN JUMPDEST PUSH2 0x25B PUSH1 0x4 DUP1 CALLDATASIZE SUB DUP2 ADD SWAP1 PUSH2 0x256 SWAP2 SWAP1 PUSH2 0x1824 JUMP JUMPDEST PUSH2 0x7E3 JUMP JUMPDEST PUSH1 0x40 MLOAD PUSH2 0x268 SWAP2 SWAP1 PUSH2 0x165E JUMP JUMPDEST PUSH1 0x40 MLOAD DUP1 SWAP2 SUB SWAP1 RETURN JUMPDEST PUSH2 0x279 PUSH2 0xA8B JUMP JUMPDEST PUSH1 0x40 MLOAD PUSH2 0x286 SWAP2 SWAP1 PUSH2 0x165E JUMP JUMPDEST PUSH1 0x40 MLOAD DUP1 SWAP2 SUB SWAP1 RETURN JUMPDEST PUSH2 0x2A9 PUSH1 0x4 DUP1 CALLDATASIZE SUB DUP2 ADD SWAP1 PUSH2 0x2A4 SWAP2 SWAP1 PUSH2 0x14C9 JUMP JUMPDEST PUSH2 0xA91 JUMP JUMPDEST STOP JUMPDEST PUSH2 0x2C5 PUSH1 0x4 DUP1 CALLDATASIZE SUB DUP2 ADD SWAP1 PUSH2 0x2C0 SWAP2 SWAP1 PUSH2 0x14C9 JUMP JUMPDEST PUSH2 0xD6B JUMP JUMPDEST STOP JUMPDEST PUSH2 0x2E1 PUSH1 0x4 DUP1 CALLDATASIZE SUB DUP2 ADD SWAP1 PUSH2 0x2DC SWAP2 SWAP1 PUSH2 0x1895 JUMP JUMPDEST PUSH2 0xE04 JUMP JUMPDEST STOP JUMPDEST PUSH2 0x2EB PUSH2 0x11BB JUMP JUMPDEST PUSH1 0x40 MLOAD PUSH2 0x2F8 SWAP2 SWAP1 PUSH2 0x18D3 JUMP JUMPDEST PUSH1 0x40 MLOAD DUP1 SWAP2 SUB SWAP1 RETURN JUMPDEST PUSH2 0x31B PUSH1 0x4 DUP1 CALLDATASIZE SUB DUP2 ADD SWAP1 PUSH2 0x316 SWAP2 SWAP1 PUSH2 0x14C9 JUMP JUMPDEST PUSH2 0x11E0 JUMP JUMPDEST PUSH1 0x40 MLOAD PUSH2 0x32B SWAP5 SWAP4 SWAP3 SWAP2 SWAP1 PUSH2 0x18EC JUMP JUMPDEST PUSH1 0x40 MLOAD DUP1 SWAP2 SUB SWAP1 RETURN JUMPDEST PUSH2 0x33C PUSH2 0x137C JUMP JUMPDEST PUSH1 0x40 MLOAD PUSH2 0x349 SWAP2 SWAP1 PUSH2 0x198A JUMP JUMPDEST PUSH1 0x40 MLOAD DUP1 SWAP2 SUB SWAP1 RETURN JUMPDEST PUSH1 0x2 PUSH1 0x20 MSTORE DUP1 PUSH0 MSTORE PUSH1 0x40 PUSH0 KECCAK256 PUSH0 SWAP2 POP SWAP1 POP DUP1 PUSH0 ADD PUSH0 SWAP1 SLOAD SWAP1 PUSH2 0x100 EXP SWAP1 DIV PUSH20 0xFFFFFFFFFFFFFFFFFFFFFFFFFFFFFFFFFFFFFFFF AND SWAP1 DUP1 PUSH1 0x1 ADD DUP1 SLOAD PUSH2 0x396 SWAP1 PUSH2 0x19D0 JUMP JUMPDEST DUP1 PUSH1 0x1F ADD PUSH1 0x20 DUP1 SWAP2 DIV MUL PUSH1 0x20 ADD PUSH1 0x40 MLOAD SWAP1 DUP2 ADD PUSH1 0x40 MSTORE DUP1 SWAP3 SWAP2 SWAP1 DUP2 DUP2 MSTORE PUSH1 0x20 ADD DUP3 DUP1 SLOAD PUSH2 0x3C2 SWAP1 PUSH2 0x19D0 JUMP JUMPDEST DUP1 ISZERO PUSH2 0x40D JUMPI DUP1 PUSH1 0x1F LT PUSH2 0x3E4 JUMPI PUSH2 0x100 DUP1 DUP4 SLOAD DIV MUL DUP4 MSTORE SWAP2 PUSH1 0x20 ADD SWAP2 PUSH2 0x40D JUMP JUMPDEST DUP3 ADD SWAP2 SWAP1 PUSH0 MSTORE PUSH1 0x20 PUSH0 KECCAK256 SWAP1 JUMPDEST DUP2 SLOAD DUP2 MSTORE SWAP1 PUSH1 0x1 ADD SWAP1 PUSH1 0x20 ADD DUP1 DUP4 GT PUSH2 0x3F0 JUMPI DUP3 SWAP1 SUB PUSH1 0x1F AND DUP3 ADD SWAP2 JUMPDEST POP POP POP POP POP SWAP1 DUP1 PUSH1 0x2 ADD SLOAD SWAP1 DUP1 PUSH1 0x3 ADD SLOAD SWAP1 DUP1 PUSH1 0x4 ADD SLOAD SWAP1 DUP1 PUSH1 0x5 ADD SLOAD SWAP1 DUP1 PUSH1 0x6 ADD PUSH0 SWAP1 SLOAD SWAP1 PUSH2 0x100 EXP SWAP1 DIV PUSH1 0xFF AND SWAP1 DUP1 PUSH1 0x6 ADD PUSH1 0x1 SWAP1 SLOAD SWAP1 PUSH2 0x100 EXP SWAP1 DIV PUSH1 0xFF AND SWAP1 DUP1 PUSH1 0x7 ADD SLOAD SWAP1 POP DUP10 JUMP JUMPDEST PUSH0 PUSH1 0x2 PUSH0 DUP4 DUP2 MSTORE PUSH1 0x20 ADD SWAP1 DUP2 MSTORE PUSH1 0x20 ADD PUSH0 KECCAK256 SWAP1 POP PUSH0 DUP2 PUSH1 0x7 ADD SLOAD GT PUSH2 0x4B4 JUMPI PUSH1 0x40 MLOAD PUSH32 0x8C379A000000000000000000000000000000000000000000000000000000000 DUP2 MSTORE PUSH1 0x4 ADD PUSH2 0x4AB SWAP1 PUSH2 0x1A4A JUMP JUMPDEST PUSH1 0x40 MLOAD DUP1 SWAP2 SUB SWAP1 REVERT JUMPDEST DUP1 PUSH1 0x7 ADD SLOAD TIMESTAMP LT ISZERO PUSH2 0x4FB JUMPI PUSH1 0x40 MLOAD PUSH32 0x8C379A000000000000000000000000000000000000000000000000000000000 DUP2 MSTORE PUSH1 0x4 ADD PUSH2 0x4F2 SWAP1 PUSH2 0x1AB2 JUMP JUMPDEST PUSH1 0x40 MLOAD DUP1 SWAP2 SUB SWAP1 REVERT JUMPDEST DUP1 PUSH1 0x6 ADD PUSH0 SWAP1 SLOAD SWAP1 PUSH2 0x100 EXP SWAP1 DIV PUSH1 0xFF AND ISZERO PUSH2 0x54C JUMPI PUSH1 0x40 MLOAD PUSH32 0x8C379A000000000000000000000000000000000000000000000000000000000 DUP2 MSTORE PUSH1 0x4 ADD PUSH2 0x543 SWAP1 PUSH2 0x1B1A JUMP JUMPDEST PUSH1 0x40 MLOAD DUP1 SWAP2 SUB SWAP1 REVERT JUMPDEST DUP1 PUSH1 0x6 ADD PUSH1 0x1 SWAP1 SLOAD SWAP1 PUSH2 0x100 EXP SWAP1 DIV PUSH1 0xFF AND ISZERO PUSH2 0x59E JUMPI PUSH1 0x40 MLOAD PUSH32 0x8C379A000000000000000000000000000000000000000000000000000000000 DUP2 MSTORE PUSH1 0x4 ADD PUSH2 0x595 SWAP1 PUSH2 0x1B82 JUMP JUMPDEST PUSH1 0x40 MLOAD DUP1 SWAP2 SUB SWAP1 REVERT JUMPDEST PUSH1 0x1 DUP2 PUSH1 0x6 ADD PUSH0 PUSH2 0x100 EXP DUP2 SLOAD DUP2 PUSH1 0xFF MUL NOT AND SWAP1 DUP4 ISZERO ISZERO MUL OR SWAP1 SSTORE POP PUSH2 0x5C3 DUP3 PUSH2 0x13A1 JUMP JUMPDEST DUP2 PUSH32 0x712AE1383F79AC853F8D882153778E0260EF8F03B504E2866E0593E04D2B291F PUSH1 0x40 MLOAD PUSH1 0x40 MLOAD DUP1 SWAP2 SUB SWAP1 LOG2 POP POP JUMP JUMPDEST PUSH1 0x9 SLOAD DUP2 JUMP JUMPDEST PUSH1 0x5 SLOAD DUP2 JUMP JUMPDEST PUSH1 0x7 PUSH0 SWAP1 SLOAD SWAP1 PUSH2 0x100 EXP SWAP1 DIV PUSH20 0xFFFFFFFFFFFFFFFFFFFFFFFFFFFFFFFFFFFFFFFF AND PUSH20 0xFFFFFFFFFFFFFFFFFFFFFFFFFFFFFFFFFFFFFFFF AND CALLER PUSH20 0xFFFFFFFFFFFFFFFFFFFFFFFFFFFFFFFFFFFFFFFF AND EQ PUSH2 0x68F JUMPI PUSH1 0x40 MLOAD PUSH32 0x8C379A000000000000000000000000000000000000000000000000000000000 DUP2 MSTORE PUSH1 0x4 ADD PUSH2 0x686 SWAP1 PUSH2 0x1BEA JUMP JUMPDEST PUSH1 0x40 MLOAD DUP1 SWAP2 SUB SWAP1 REVERT JUMPDEST DUP1 PUSH1 0x6 DUP2 SWAP1 SSTORE POP PUSH32 0x980B903EFEA70E6B1BD235B1FB05F1A5DA73CBD478B73C9538053F9EB29F129F DUP2 PUSH1 0x40 MLOAD PUSH2 0x6C5 SWAP2 SWAP1 PUSH2 0x165E JUMP JUMPDEST PUSH1 0x40 MLOAD DUP1 SWAP2 SUB SWAP1 LOG1 POP JUMP JUMPDEST PUSH1 0x4 SLOAD DUP2 JUMP JUMPDEST PUSH1 0x6 SLOAD DUP2 JUMP JUMPDEST PUSH1 0x7 PUSH0 SWAP1 SLOAD SWAP1 PUSH2 0x100 EXP SWAP1 DIV PUSH20 0xFFFFFFFFFFFFFFFFFFFFFFFFFFFFFFFFFFFFFFFF AND PUSH20 0xFFFFFFFFFFFFFFFFFFFFFFFFFFFFFFFFFFFFFFFF AND CALLER PUSH20 0xFFFFFFFFFFFFFFFFFFFFFFFFFFFFFFFFFFFFFFFF AND EQ PUSH2 0x76B JUMPI PUSH1 0x40 MLOAD PUSH32 0x8C379A000000000000000000000000000000000000000000000000000000000 DUP2 MSTORE PUSH1 0x4 ADD PUSH2 0x762 SWAP1 PUSH2 0x1BEA JUMP JUMPDEST PUSH1 0x40 MLOAD DUP1 SWAP2 SUB SWAP1 REVERT JUMPDEST PUSH1 0x64 DUP2 GT ISZERO PUSH2 0x7AF JUMPI PUSH1 0x40 MLOAD PUSH32 0x8C379A000000000000000000000000000000000000000000000000000000000 DUP2 MSTORE PUSH1 0x4 ADD PUSH2 0x7A6 SWAP1 PUSH2 0x1C78 JUMP JUMPDEST PUSH1 0x40 MLOAD DUP1 SWAP2 SUB SWAP1 REVERT JUMPDEST DUP1 PUSH1 0x8 DUP2 SWAP1 SSTORE POP POP JUMP JUMPDEST PUSH1 0x3 PUSH1 0x20 MSTORE DUP2 PUSH0 MSTORE PUSH1 0x40 PUSH0 KECCAK256 PUSH1 0x20 MSTORE DUP1 PUSH0 MSTORE PUSH1 0x40 PUSH0 KECCAK256 PUSH0 SWAP2 POP SWAP2 POP SWAP1 SLOAD SWAP1 PUSH2 0x100 EXP SWAP1 DIV PUSH1 0xFF AND DUP2 JUMP JUMPDEST PUSH0 PUSH0 DUP3 MLOAD GT PUSH2 0x827 JUMPI PUSH1 0x40 MLOAD PUSH32 0x8C379A000000000000000000000000000000000000000000000000000000000 DUP2 MSTORE PUSH1 0x4 ADD PUSH2 0x81E SWAP1 PUSH2 0x1CE0 JUMP JUMPDEST PUSH1 0x40 MLOAD DUP1 SWAP2 SUB SWAP1 REVERT JUMPDEST PUSH0 PUSH1 0x9 SLOAD GT ISZERO PUSH2 0x8D3 JUMPI PUSH1 0x1 PUSH0 SWAP1 SLOAD SWAP1 PUSH2 0x100 EXP SWAP1 DIV PUSH20 0xFFFFFFFFFFFFFFFFFFFFFFFFFFFFFFFFFFFFFFFF AND PUSH20 0xFFFFFFFFFFFFFFFFFFFFFFFFFFFFFFFFFFFFFFFF AND PUSH4 0x23B872DD CALLER ADDRESS PUSH1 0x9 SLOAD PUSH1 0x40 MLOAD DUP5 PUSH4 0xFFFFFFFF AND PUSH1 0xE0 SHL DUP2 MSTORE PUSH1 0x4 ADD PUSH2 0x891 SWAP4 SWAP3 SWAP2 SWAP1 PUSH2 0x1CFE JUMP JUMPDEST PUSH1 0x20 PUSH1 0x40 MLOAD DUP1 DUP4 SUB DUP2 PUSH0 DUP8 GAS CALL ISZERO DUP1 ISZERO PUSH2 0x8AD JUMPI RETURNDATASIZE PUSH0 PUSH0 RETURNDATACOPY RETURNDATASIZE PUSH0 REVERT JUMPDEST POP POP POP POP PUSH1 0x40 MLOAD RETURNDATASIZE PUSH1 0x1F NOT PUSH1 0x1F DUP3 ADD AND DUP3 ADD DUP1 PUSH1 0x40 MSTORE POP DUP2 ADD SWAP1 PUSH2 0x8D1 SWAP2 SWAP1 PUSH2 0x1D47 JUMP JUMPDEST POP JUMPDEST PUSH0 PUSH1 0x4 PUSH0 DUP2 SLOAD DUP1 SWAP3 SWAP2 SWAP1 PUSH2 0x8E6 SWAP1 PUSH2 0x1D9F JUMP JUMPDEST SWAP2 SWAP1 POP SSTORE SWAP1 POP PUSH1 0x40 MLOAD DUP1 PUSH2 0x120 ADD PUSH1 0x40 MSTORE DUP1 CALLER PUSH20 0xFFFFFFFFFFFFFFFFFFFFFFFFFFFFFFFFFFFFFFFF AND DUP2 MSTORE PUSH1 0x20 ADD DUP5 DUP2 MSTORE PUSH1 0x20 ADD PUSH0 DUP2 MSTORE PUSH1 0x20 ADD PUSH0 DUP2 MSTORE PUSH1 0x20 ADD TIMESTAMP DUP2 MSTORE PUSH1 0x20 ADD PUSH1 0x5 SLOAD TIMESTAMP PUSH2 0x93A SWAP2 SWAP1 PUSH2 0x1DE6 JUMP JUMPDEST DUP2 MSTORE PUSH1 0x20 ADD PUSH0 ISZERO ISZERO DUP2 MSTORE PUSH1 0x20 ADD PUSH0 ISZERO ISZERO DUP2 MSTORE PUSH1 0x20 ADD PUSH0 DUP2 MSTORE POP PUSH1 0x2 PUSH0 DUP4 DUP2 MSTORE PUSH1 0x20 ADD SWAP1 DUP2 MSTORE PUSH1 0x20 ADD PUSH0 KECCAK256 PUSH0 DUP3 ADD MLOAD DUP2 PUSH0 ADD PUSH0 PUSH2 0x100 EXP DUP2 SLOAD DUP2 PUSH20 0xFFFFFFFFFFFFFFFFFFFFFFFFFFFFFFFFFFFFFFFF MUL NOT AND SWAP1 DUP4 PUSH20 0xFFFFFFFFFFFFFFFFFFFFFFFFFFFFFFFFFFFFFFFF AND MUL OR SWAP1 SSTORE POP PUSH1 0x20 DUP3 ADD MLOAD DUP2 PUSH1 0x1 ADD SWAP1 DUP2 PUSH2 0x9BD SWAP2 SWAP1 PUSH2 0x1FB0 JUMP JUMPDEST POP PUSH1 0x40 DUP3 ADD MLOAD DUP2 PUSH1 0x2 ADD SSTORE PUSH1 0x60 DUP3 ADD MLOAD DUP2 PUSH1 0x3 ADD SSTORE PUSH1 0x80 DUP3 ADD MLOAD DUP2 PUSH1 0x4 ADD SSTORE PUSH1 0xA0 DUP3 ADD MLOAD DUP2 PUSH1 0x5 ADD SSTORE PUSH1 0xC0 DUP3 ADD MLOAD DUP2 PUSH1 0x6 ADD PUSH0 PUSH2 0x100 EXP DUP2 SLOAD DUP2 PUSH1 0xFF MUL NOT AND SWAP1 DUP4 ISZERO ISZERO MUL OR SWAP1 SSTORE POP PUSH1 0xE0 DUP3 ADD MLOAD DUP2 PUSH1 0x6 ADD PUSH1 0x1 PUSH2 0x100 EXP DUP2 SLOAD DUP2 PUSH1 0xFF MUL NOT AND SWAP1 DUP4 ISZERO ISZERO MUL OR SWAP1 SSTORE POP PUSH2 0x100 DUP3 ADD MLOAD DUP2 PUSH1 0x7 ADD SSTORE SWAP1 POP POP CALLER PUSH20 0xFFFFFFFFFFFFFFFFFFFFFFFFFFFFFFFFFFFFFFFF AND DUP2 PUSH32 0x7585F467599D0F008985F231AF99293BE388626AC16CA59505C2F8F88969CD63 DUP6 PUSH1 0x40 MLOAD PUSH2 0xA7A SWAP2 SWAP1 PUSH2 0x207F JUMP JUMPDEST PUSH1 0x40 MLOAD DUP1 SWAP2 SUB SWAP1 LOG3 DUP1 SWAP2 POP POP SWAP2 SWAP1 POP JUMP JUMPDEST PUSH1 0x8 SLOAD DUP2 JUMP JUMPDEST PUSH0 PUSH1 0x2 PUSH0 DUP4 DUP2 MSTORE PUSH1 0x20 ADD SWAP1 DUP2 MSTORE PUSH1 0x20 ADD PUSH0 KECCAK256 SWAP1 POP DUP1 PUSH1 0x5 ADD SLOAD TIMESTAMP GT PUSH2 0xAEB JUMPI PUSH1 0x40 MLOAD PUSH32 0x8C379A000000000000000000000000000000000000000000000000000000000 DUP2 MSTORE PUSH1 0x4 ADD PUSH2 0xAE2 SWAP1 PUSH2 0x20E9 JUMP JUMPDEST PUSH1 0x40 MLOAD DUP1 SWAP2 SUB SWAP1 REVERT JUMPDEST DUP1 PUSH1 0x6 ADD PUSH0 SWAP1 SLOAD SWAP1 PUSH2 0x100 EXP SWAP1 DIV PUSH1 0xFF AND ISZERO PUSH2 0xB3C JUMPI PUSH1 0x40 MLOAD PUSH32 0x8C379A000000000000000000000000000000000000000000000000000000000 DUP2 MSTORE PUSH1 0x4 ADD PUSH2 0xB33 SWAP1 PUSH2 0x1B1A JUMP JUMPDEST PUSH1 0x40 MLOAD DUP1 SWAP2 SUB SWAP1 REVERT JUMPDEST DUP1 PUSH1 0x6 ADD PUSH1 0x1 SWAP1 SLOAD SWAP1 PUSH2 0x100 EXP SWAP1 DIV PUSH1 0xFF AND ISZERO PUSH2 0xB8E JUMPI PUSH1 0x40 MLOAD PUSH32 0x8C379A000000000000000000000000000000000000000000000000000000000 DUP2 MSTORE PUSH1 0x4 ADD PUSH2 0xB85 SWAP1 PUSH2 0x1B82 JUMP JUMPDEST PUSH1 0x40 MLOAD DUP1 SWAP2 SUB SWAP1 REVERT JUMPDEST PUSH0 DUP2 PUSH1 0x3 ADD SLOAD DUP3 PUSH1 0x2 ADD SLOAD PUSH2 0xBA3 SWAP2 SWAP1 PUSH2 0x1DE6 JUMP JUMPDEST SWAP1 POP PUSH0 PUSH1 0x1 PUSH0 SWAP1 SLOAD SWAP1 PUSH2 0x100 EXP SWAP1 DIV PUSH20 0xFFFFFFFFFFFFFFFFFFFFFFFFFFFFFFFFFFFFFFFF AND PUSH20 0xFFFFFFFFFFFFFFFFFFFFFFFFFFFFFFFFFFFFFFFF AND PUSH4 0x18160DDD PUSH1 0x40 MLOAD DUP2 PUSH4 0xFFFFFFFF AND PUSH1 0xE0 SHL DUP2 MSTORE PUSH1 0x4 ADD PUSH1 0x20 PUSH1 0x40 MLOAD DUP1 DUP4 SUB DUP2 DUP7 GAS STATICCALL ISZERO DUP1 ISZERO PUSH2 0xC10 JUMPI RETURNDATASIZE PUSH0 PUSH0 RETURNDATACOPY RETURNDATASIZE PUSH0 REVERT JUMPDEST POP POP POP POP PUSH1 0x40 MLOAD RETURNDATASIZE PUSH1 0x1F NOT PUSH1 0x1F DUP3 ADD AND DUP3 ADD DUP1 PUSH1 0x40 MSTORE POP DUP2 ADD SWAP1 PUSH2 0xC34 SWAP2 SWAP1 PUSH2 0x211B JUMP JUMPDEST SWAP1 POP PUSH0 PUSH1 0x64 PUSH1 0x8 SLOAD DUP4 PUSH2 0xC47 SWAP2 SWAP1 PUSH2 0x2146 JUMP JUMPDEST PUSH2 0xC51 SWAP2 SWAP1 PUSH2 0x21B4 JUMP JUMPDEST SWAP1 POP DUP1 DUP4 LT ISZERO DUP1 ISZERO PUSH2 0xC6A JUMPI POP DUP4 PUSH1 0x3 ADD SLOAD DUP5 PUSH1 0x2 ADD SLOAD GT JUMPDEST ISZERO PUSH2 0xD19 JUMPI PUSH0 PUSH1 0x6 SLOAD GT ISZERO PUSH2 0xCC1 JUMPI PUSH1 0x6 SLOAD TIMESTAMP PUSH2 0xC87 SWAP2 SWAP1 PUSH2 0x1DE6 JUMP JUMPDEST DUP5 PUSH1 0x7 ADD DUP2 SWAP1 SSTORE POP DUP5 PUSH32 0x4E3180FC09418F427BBFAE80BCE9EAEDD459690D1DAB5C62D57B3F56B23E35C4 PUSH1 0x40 MLOAD PUSH1 0x40 MLOAD DUP1 SWAP2 SUB SWAP1 LOG2 PUSH2 0xD14 JUMP JUMPDEST PUSH1 0x1 DUP5 PUSH1 0x6 ADD PUSH0 PUSH2 0x100 EXP DUP2 SLOAD DUP2 PUSH1 0xFF MUL NOT AND SWAP1 DUP4 ISZERO ISZERO MUL OR SWAP1 SSTORE POP PUSH2 0xCE6 DUP6 PUSH2 0x13A1 JUMP JUMPDEST DUP5 PUSH32 0x712AE1383F79AC853F8D882153778E0260EF8F03B504E2866E0593E04D2B291F PUSH1 0x40 MLOAD PUSH1 0x40 MLOAD DUP1 SWAP2 SUB SWAP1 LOG2 JUMPDEST PUSH2 0xD64 JUMP JUMPDEST PUSH1 0x1 DUP5 PUSH1 0x6 ADD PUSH1 0x1 PUSH2 0x100 EXP DUP2 SLOAD DUP2 PUSH1 0xFF MUL NOT AND SWAP1 DUP4 ISZERO ISZERO MUL OR SWAP1 SSTORE POP DUP5 PUSH32 0x9536F7423DD39687D0EE332E3794EDA5D12D85A233395133BD9822EF1B3A820C PUSH1 0x40 MLOAD PUSH1 0x40 MLOAD DUP1 SWAP2 SUB SWAP1 LOG2 JUMPDEST POP POP POP POP POP JUMP JUMPDEST PUSH1 0x7 PUSH0 SWAP1 SLOAD SWAP1 PUSH2 0x100 EXP SWAP1 DIV PUSH20 0xFFFFFFFFFFFFFFFFFFFFFFFFFFFFFFFFFFFFFFFF AND PUSH20 0xFFFFFFFFFFFFFFFFFFFFFFFFFFFFFFFFFFFFFFFF AND CALLER PUSH20 0xFFFFFFFFFFFFFFFFFFFFFFFFFFFFFFFFFFFFFFFF AND EQ PUSH2 0xDFA JUMPI PUSH1 0x40 MLOAD PUSH32 0x8C379A000000000000000000000000000000000000000000000000000000000 DUP2 MSTORE PUSH1 0x4 ADD PUSH2 0xDF1 SWAP1 PUSH2 0x1BEA JUMP JUMPDEST PUSH1 0x40 MLOAD DUP1 SWAP2 SUB SWAP1 REVERT JUMPDEST DUP1 PUSH1 0x9 DUP2 SWAP1 SSTORE POP POP JUMP JUMPDEST PUSH0 PUSH1 0x2 PUSH0 DUP5 DUP2 MSTORE PUSH1 0x20 ADD SWAP1 DUP2 MSTORE PUSH1 0x20 ADD PUSH0 KECCAK256 SWAP1 POP DUP1 PUSH1 0x4 ADD SLOAD TIMESTAMP LT ISZERO PUSH2 0xE5F JUMPI PUSH1 0x40 MLOAD PUSH32 0x8C379A000000000000000000000000000000000000000000000000000000000 DUP2 MSTORE PUSH1 0x4 ADD PUSH2 0xE56 SWAP1 PUSH2 0x222E JUMP JUMPDEST PUSH1 0x40 MLOAD DUP1 SWAP2 SUB SWAP1 REVERT JUMPDEST DUP1 PUSH1 0x5 ADD SLOAD TIMESTAMP GT ISZERO PUSH2 0xEA6 JUMPI PUSH1 0x40 MLOAD PUSH32 0x8C379A000000000000000000000000000000000000000000000000000000000 DUP2 MSTORE PUSH1 0x4 ADD PUSH2 0xE9D SWAP1 PUSH2 0x2296 JUMP JUMPDEST PUSH1 0x40 MLOAD DUP1 SWAP2 SUB SWAP1 REVERT JUMPDEST DUP1 PUSH1 0x6 ADD PUSH0 SWAP1 SLOAD SWAP1 PUSH2 0x100 EXP SWAP1 DIV PUSH1 0xFF AND ISZERO PUSH2 0xEF7 JUMPI PUSH1 0x40 MLOAD PUSH32 0x8C379A000000000000000000000000000000000000000000000000000000000 DUP2 MSTORE PUSH1 0x4 ADD PUSH2 0xEEE SWAP1 PUSH2 0x1B1A JUMP JUMPDEST PUSH1 0x40 MLOAD DUP1 SWAP2 SUB SWAP1 REVERT JUMPDEST DUP1 PUSH1 0x6 ADD PUSH1 0x1 SWAP1 SLOAD SWAP1 PUSH2 0x100 EXP SWAP1 DIV PUSH1 0xFF AND ISZERO PUSH2 0xF49 JUMPI PUSH1 0x40 MLOAD PUSH32 0x8C379A000000000000000000000000000000000000000000000000000000000 DUP2 MSTORE PUSH1 0x4 ADD PUSH2 0xF40 SWAP1 PUSH2 0x1B82 JUMP JUMPDEST PUSH1 0x40 MLOAD DUP1 SWAP2 SUB SWAP1 REVERT JUMPDEST PUSH1 0x3 PUSH0 DUP5 DUP2 MSTORE PUSH1 0x20 ADD SWAP1 DUP2 MSTORE PUSH1 0x20 ADD PUSH0 KECCAK256 PUSH0 CALLER PUSH20 0xFFFFFFFFFFFFFFFFFFFFFFFFFFFFFFFFFFFFFFFF AND PUSH20 0xFFFFFFFFFFFFFFFFFFFFFFFFFFFFFFFFFFFFFFFF AND DUP2 MSTORE PUSH1 0x20 ADD SWAP1 DUP2 MSTORE PUSH1 0x20 ADD PUSH0 KECCAK256 PUSH0 SWAP1 SLOAD SWAP1 PUSH2 0x100 EXP SWAP1 DIV PUSH1 0xFF AND ISZERO PUSH2 0xFE2 JUMPI PUSH1 0x40 MLOAD PUSH32 0x8C379A000000000000000000000000000000000000000000000000000000000 DUP2 MSTORE PUSH1 0x4 ADD PUSH2 0xFD9 SWAP1 PUSH2 0x22FE JUMP JUMPDEST PUSH1 0x40 MLOAD DUP1 SWAP2 SUB SWAP1 REVERT JUMPDEST PUSH0 PUSH1 0x1 PUSH0 SWAP1 SLOAD SWAP1 PUSH2 0x100 EXP SWAP1 DIV PUSH20 0xFFFFFFFFFFFFFFFFFFFFFFFFFFFFFFFFFFFFFFFF AND PUSH20 0xFFFFFFFFFFFFFFFFFFFFFFFFFFFFFFFFFFFFFFFF AND PUSH4 0x70A08231 CALLER PUSH1 0x40 MLOAD DUP3 PUSH4 0xFFFFFFFF AND PUSH1 0xE0 SHL DUP2 MSTORE PUSH1 0x4 ADD PUSH2 0x103D SWAP2 SWAP1 PUSH2 0x18D3 JUMP JUMPDEST PUSH1 0x20 PUSH1 0x40 MLOAD DUP1 DUP4 SUB DUP2 DUP7 GAS STATICCALL ISZERO DUP1 ISZERO PUSH2 0x1058 JUMPI RETURNDATASIZE PUSH0 PUSH0 RETURNDATACOPY RETURNDATASIZE PUSH0 REVERT JUMPDEST POP POP POP POP PUSH1 0x40 MLOAD RETURNDATASIZE PUSH1 0x1F NOT PUSH1 0x1F DUP3 ADD AND DUP3 ADD DUP1 PUSH1 0x40 MSTORE POP DUP2 ADD SWAP1 PUSH2 0x107C SWAP2 SWAP1 PUSH2 0x211B JUMP JUMPDEST SWAP1 POP PUSH0 DUP2 GT PUSH2 0x10C0 JUMPI PUSH1 0x40 MLOAD PUSH32 0x8C379A000000000000000000000000000000000000000000000000000000000 DUP2 MSTORE PUSH1 0x4 ADD PUSH2 0x10B7 SWAP1 PUSH2 0x2366 JUMP JUMPDEST PUSH1 0x40 MLOAD DUP1 SWAP2 SUB SWAP1 REVERT JUMPDEST PUSH1 0x1 PUSH1 0x3 PUSH0 DUP7 DUP2 MSTORE PUSH1 0x20 ADD SWAP1 DUP2 MSTORE PUSH1 0x20 ADD PUSH0 KECCAK256 PUSH0 CALLER PUSH20 0xFFFFFFFFFFFFFFFFFFFFFFFFFFFFFFFFFFFFFFFF AND PUSH20 0xFFFFFFFFFFFFFFFFFFFFFFFFFFFFFFFFFFFFFFFF AND DUP2 MSTORE PUSH1 0x20 ADD SWAP1 DUP2 MSTORE PUSH1 0x20 ADD PUSH0 KECCAK256 PUSH0 PUSH2 0x100 EXP DUP2 SLOAD DUP2 PUSH1 0xFF MUL NOT AND SWAP1 DUP4 ISZERO ISZERO MUL OR SWAP1 SSTORE POP DUP3 ISZERO PUSH2 0x1149 JUMPI DUP1 DUP3 PUSH1 0x2 ADD PUSH0 DUP3 DUP3 SLOAD PUSH2 0x113D SWAP2 SWAP1 PUSH2 0x1DE6 JUMP JUMPDEST SWAP3 POP POP DUP2 SWAP1 SSTORE POP PUSH2 0x1164 JUMP JUMPDEST DUP1 DUP3 PUSH1 0x3 ADD PUSH0 DUP3 DUP3 SLOAD PUSH2 0x115C SWAP2 SWAP1 PUSH2 0x1DE6 JUMP JUMPDEST SWAP3 POP POP DUP2 SWAP1 SSTORE POP JUMPDEST CALLER PUSH20 0xFFFFFFFFFFFFFFFFFFFFFFFFFFFFFFFFFFFFFFFF AND DUP5 PUSH32 0x7C2DE587C00D75474A0C6C6FA96FD3B45DC974CD4E8A75F712BB84C950DCE1B5 DUP6 DUP5 PUSH1 0x40 MLOAD PUSH2 0x11AD SWAP3 SWAP2 SWAP1 PUSH2 0x2384 JUMP JUMPDEST PUSH1 0x40 MLOAD DUP1 SWAP2 SUB SWAP1 LOG3 POP POP POP POP JUMP JUMPDEST PUSH1 0x7 PUSH0 SWAP1 SLOAD SWAP1 PUSH2 0x100 EXP SWAP1 DIV PUSH20 0xFFFFFFFFFFFFFFFFFFFFFFFFFFFFFFFFFFFFFFFF AND DUP2 JUMP JUMPDEST PUSH0 PUSH0 PUSH0 PUSH0 PUSH0 PUSH1 0x2 PUSH0 DUP8 DUP2 MSTORE PUSH1 0x20 ADD SWAP1 DUP2 MSTORE PUSH1 0x20 ADD PUSH0 KECCAK256 PUSH1 0x40 MLOAD DUP1 PUSH2 0x120 ADD PUSH1 0x40 MSTORE SWAP1 DUP2 PUSH0 DUP3 ADD PUSH0 SWAP1 SLOAD SWAP1 PUSH2 0x100 EXP SWAP1 DIV PUSH20 0xFFFFFFFFFFFFFFFFFFFFFFFFFFFFFFFFFFFFFFFF AND PUSH20 0xFFFFFFFFFFFFFFFFFFFFFFFFFFFFFFFFFFFFFFFF AND PUSH20 0xFFFFFFFFFFFFFFFFFFFFFFFFFFFFFFFFFFFFFFFF AND DUP2 MSTORE PUSH1 0x20 ADD PUSH1 0x1 DUP3 ADD DUP1 SLOAD PUSH2 0x1266 SWAP1 PUSH2 0x19D0 JUMP JUMPDEST DUP1 PUSH1 0x1F ADD PUSH1 0x20 DUP1 SWAP2 DIV MUL PUSH1 0x20 ADD PUSH1 0x40 MLOAD SWAP1 DUP2 ADD PUSH1 0x40 MSTORE DUP1 SWAP3 SWAP2 SWAP1 DUP2 DUP2 MSTORE PUSH1 0x20 ADD DUP3 DUP1 SLOAD PUSH2 0x1292 SWAP1 PUSH2 0x19D0 JUMP JUMPDEST DUP1 ISZERO PUSH2 0x12DD JUMPI DUP1 PUSH1 0x1F LT PUSH2 0x12B4 JUMPI PUSH2 0x100 DUP1 DUP4 SLOAD DIV MUL DUP4 MSTORE SWAP2 PUSH1 0x20 ADD SWAP2 PUSH2 0x12DD JUMP JUMPDEST DUP3 ADD SWAP2 SWAP1 PUSH0 MSTORE PUSH1 0x20 PUSH0 KECCAK256 SWAP1 JUMPDEST DUP2 SLOAD DUP2 MSTORE SWAP1 PUSH1 0x1 ADD SWAP1 PUSH1 0x20 ADD DUP1 DUP4 GT PUSH2 0x12C0 JUMPI DUP3 SWAP1 SUB PUSH1 0x1F AND DUP3 ADD SWAP2 JUMPDEST POP POP POP POP POP DUP2 MSTORE PUSH1 0x20 ADD PUSH1 0x2 DUP3 ADD SLOAD DUP2 MSTORE PUSH1 0x20 ADD PUSH1 0x3 DUP3 ADD SLOAD DUP2 MSTORE PUSH1 0x20 ADD PUSH1 0x4 DUP3 ADD SLOAD DUP2 MSTORE PUSH1 0x20 ADD PUSH1 0x5 DUP3 ADD SLOAD DUP2 MSTORE PUSH1 0x20 ADD PUSH1 0x6 DUP3 ADD PUSH0 SWAP1 SLOAD SWAP1 PUSH2 0x100 EXP SWAP1 DIV PUSH1 0xFF AND ISZERO ISZERO ISZERO ISZERO DUP2 MSTORE PUSH1 0x20 ADD PUSH1 0x6 DUP3 ADD PUSH1 0x1 SWAP1 SLOAD SWAP1 PUSH2 0x100 EXP SWAP1 DIV PUSH1 0xFF AND ISZERO ISZERO ISZERO ISZERO DUP2 MSTORE PUSH1 0x20 ADD PUSH1 0x7 DUP3 ADD SLOAD DUP2 MSTORE POP POP SWAP1 POP DUP1 PUSH1 0x60 ADD MLOAD DUP2 PUSH1 0x40 ADD MLOAD GT SWAP5 POP DUP5 DUP2 PUSH1 0x40 ADD MLOAD DUP3 PUSH1 0x60 ADD MLOAD DUP4 PUSH1 0xC0 ADD MLOAD SWAP5 POP SWAP5 POP SWAP5 POP SWAP5 POP POP SWAP2 SWAP4 POP SWAP2 SWAP4 JUMP JUMPDEST PUSH1 0x1 PUSH0 SWAP1 SLOAD SWAP1 PUSH2 0x100 EXP SWAP1 DIV PUSH20 0xFFFFFFFFFFFFFFFFFFFFFFFFFFFFFFFFFFFFFFFF AND DUP2 JUMP JUMPDEST PUSH0 PUSH1 0x9 SLOAD GT ISZERO PUSH2 0x1482 JUMPI PUSH0 PUSH1 0x2 PUSH0 DUP4 DUP2 MSTORE PUSH1 0x20 ADD SWAP1 DUP2 MSTORE PUSH1 0x20 ADD PUSH0 KECCAK256 SWAP1 POP PUSH1 0x1 PUSH0 SWAP1 SLOAD SWAP1 PUSH2 0x100 EXP SWAP1 DIV PUSH20 0xFFFFFFFFFFFFFFFFFFFFFFFFFFFFFFFFFFFFFFFF AND PUSH20 0xFFFFFFFFFFFFFFFFFFFFFFFFFFFFFFFFFFFFFFFF AND PUSH4 0xA9059CBB DUP3 PUSH0 ADD PUSH0 SWAP1 SLOAD SWAP1 PUSH2 0x100 EXP SWAP1 DIV PUSH20 0xFFFFFFFFFFFFFFFFFFFFFFFFFFFFFFFFFFFFFFFF AND PUSH1 0x9 SLOAD PUSH1 0x40 MLOAD DUP4 PUSH4 0xFFFFFFFF AND PUSH1 0xE0 SHL DUP2 MSTORE PUSH1 0x4 ADD PUSH2 0x143F SWAP3 SWAP2 SWAP1 PUSH2 0x23AB JUMP JUMPDEST PUSH1 0x20 PUSH1 0x40 MLOAD DUP1 DUP4 SUB DUP2 PUSH0 DUP8 GAS CALL ISZERO DUP1 ISZERO PUSH2 0x145B JUMPI RETURNDATASIZE PUSH0 PUSH0 RETURNDATACOPY RETURNDATASIZE PUSH0 REVERT JUMPDEST POP POP POP POP PUSH1 0x40 MLOAD RETURNDATASIZE PUSH1 0x1F NOT PUSH1 0x1F DUP3 ADD AND DUP3 ADD DUP1 PUSH1 0x40 MSTORE POP DUP2 ADD SWAP1 PUSH2 0x147F SWAP2 SWAP1 PUSH2 0x1D47 JUMP JUMPDEST POP POP JUMPDEST POP JUMP JUMPDEST PUSH0 PUSH1 0x40 MLOAD SWAP1 POP SWAP1 JUMP JUMPDEST PUSH0 PUSH0 REVERT JUMPDEST PUSH0 PUSH0 REVERT JUMPDEST PUSH0 DUP2 SWAP1 POP SWAP2 SWAP1 POP JUMP JUMPDEST PUSH2 0x14A8 DUP2 PUSH2 0x1496 JUMP JUMPDEST DUP2 EQ PUSH2 0x14B2 JUMPI PUSH0 PUSH0 REVERT JUMPDEST POP JUMP JUMPDEST PUSH0 DUP2 CALLDATALOAD SWAP1 POP PUSH2 0x14C3 DUP2 PUSH2 0x149F JUMP JUMPDEST SWAP3 SWAP2 POP POP JUMP JUMPDEST PUSH0 PUSH1 0x20 DUP3 DUP5 SUB SLT ISZERO PUSH2 0x14DE JUMPI PUSH2 0x14DD PUSH2 0x148E JUMP JUMPDEST JUMPDEST PUSH0 PUSH2 0x14EB DUP5 DUP3 DUP6 ADD PUSH2 0x14B5 JUMP JUMPDEST SWAP2 POP POP SWAP3 SWAP2 POP POP JUMP JUMPDEST PUSH0 PUSH20 0xFFFFFFFFFFFFFFFFFFFFFFFFFFFFFFFFFFFFFFFF DUP3 AND SWAP1 POP SWAP2 SWAP1 POP JUMP JUMPDEST PUSH0 PUSH2 0x151D DUP3 PUSH2 0x14F4 JUMP JUMPDEST SWAP1 POP SWAP2 SWAP1 POP JUMP JUMPDEST PUSH2 0x152D DUP2 PUSH2 0x1513 JUMP JUMPDEST DUP3 MSTORE POP POP JUMP JUMPDEST PUSH0 DUP2 MLOAD SWAP1 POP SWAP2 SWAP1 POP JUMP JUMPDEST PUSH0 DUP3 DUP3 MSTORE PUSH1 0x20 DUP3 ADD SWAP1 POP SWAP3 SWAP2 POP POP JUMP JUMPDEST DUP3 DUP2 DUP4 MCOPY PUSH0 DUP4 DUP4 ADD MSTORE POP POP POP JUMP JUMPDEST PUSH0 PUSH1 0x1F NOT PUSH1 0x1F DUP4 ADD AND SWAP1 POP SWAP2 SWAP1 POP JUMP JUMPDEST PUSH0 PUSH2 0x1575 DUP3 PUSH2 0x1533 JUMP JUMPDEST PUSH2 0x157F DUP2 DUP6 PUSH2 0x153D JUMP JUMPDEST SWAP4 POP PUSH2 0x158F DUP2 DUP6 PUSH1 0x20 DUP7 ADD PUSH2 0x154D JUMP JUMPDEST PUSH2 0x1598 DUP2 PUSH2 0x155B JUMP JUMPDEST DUP5 ADD SWAP2 POP POP SWAP3 SWAP2 POP POP JUMP JUMPDEST PUSH2 0x15AC DUP2 PUSH2 0x1496 JUMP JUMPDEST DUP3 MSTORE POP POP JUMP JUMPDEST PUSH0 DUP2 ISZERO ISZERO SWAP1 POP SWAP2 SWAP1 POP JUMP JUMPDEST PUSH2 0x15C6 DUP2 PUSH2 0x15B2 JUMP JUMPDEST DUP3 MSTORE POP POP JUMP JUMPDEST PUSH0 PUSH2 0x120 DUP3 ADD SWAP1 POP PUSH2 0x15E0 PUSH0 DUP4 ADD DUP13 PUSH2 0x1524 JUMP JUMPDEST DUP2 DUP2 SUB PUSH1 0x20 DUP4 ADD MSTORE PUSH2 0x15F2 DUP2 DUP12 PUSH2 0x156B JUMP JUMPDEST SWAP1 POP PUSH2 0x1601 PUSH1 0x40 DUP4 ADD DUP11 PUSH2 0x15A3 JUMP JUMPDEST PUSH2 0x160E PUSH1 0x60 DUP4 ADD DUP10 PUSH2 0x15A3 JUMP JUMPDEST PUSH2 0x161B PUSH1 0x80 DUP4 ADD DUP9 PUSH2 0x15A3 JUMP JUMPDEST PUSH2 0x1628 PUSH1 0xA0 DUP4 ADD DUP8 PUSH2 0x15A3 JUMP JUMPDEST PUSH2 0x1635 PUSH1 0xC0 DUP4 ADD DUP7 PUSH2 0x15BD JUMP JUMPDEST PUSH2 0x1642 PUSH1 0xE0 DUP4 ADD DUP6 PUSH2 0x15BD JUMP JUMPDEST PUSH2 0x1650 PUSH2 0x100 DUP4 ADD DUP5 PUSH2 0x15A3 JUMP JUMPDEST SWAP11 SWAP10 POP POP POP POP POP POP POP POP POP POP JUMP JUMPDEST PUSH0 PUSH1 0x20 DUP3 ADD SWAP1 POP PUSH2 0x1671 PUSH0 DUP4 ADD DUP5 PUSH2 0x15A3 JUMP JUMPDEST SWAP3 SWAP2 POP POP JUMP JUMPDEST PUSH2 0x1680 DUP2 PUSH2 0x1513 JUMP JUMPDEST DUP2 EQ PUSH2 0x168A JUMPI PUSH0 PUSH0 REVERT JUMPDEST POP JUMP JUMPDEST PUSH0 DUP2 CALLDATALOAD SWAP1 POP PUSH2 0x169B DUP2 PUSH2 0x1677 JUMP JUMPDEST SWAP3 SWAP2 POP POP JUMP JUMPDEST PUSH0 PUSH0 PUSH1 0x40 DUP4 DUP6 SUB SLT ISZERO PUSH2 0x16B7 JUMPI PUSH2 0x16B6 PUSH2 0x148E JUMP JUMPDEST JUMPDEST PUSH0 PUSH2 0x16C4 DUP6 DUP3 DUP7 ADD PUSH2 0x14B5 JUMP JUMPDEST SWAP3 POP POP PUSH1 0x20 PUSH2 0x16D5 DUP6 DUP3 DUP7 ADD PUSH2 0x168D JUMP JUMPDEST SWAP2 POP POP SWAP3 POP SWAP3 SWAP1 POP JUMP JUMPDEST PUSH0 PUSH1 0x20 DUP3 ADD SWAP1 POP PUSH2 0x16F2 PUSH0 DUP4 ADD DUP5 PUSH2 0x15BD JUMP JUMPDEST SWAP3 SWAP2 POP POP JUMP JUMPDEST PUSH0 PUSH0 REVERT JUMPDEST PUSH0 PUSH0 REVERT JUMPDEST PUSH32 0x4E487B7100000000000000000000000000000000000000000000000000000000 PUSH0 MSTORE PUSH1 0x41 PUSH1 0x4 MSTORE PUSH1 0x24 PUSH0 REVERT JUMPDEST PUSH2 0x1736 DUP3 PUSH2 0x155B JUMP JUMPDEST DUP2 ADD DUP2 DUP2 LT PUSH8 0xFFFFFFFFFFFFFFFF DUP3 GT OR ISZERO PUSH2 0x1755 JUMPI PUSH2 0x1754 PUSH2 0x1700 JUMP JUMPDEST JUMPDEST DUP1 PUSH1 0x40 MSTORE POP POP POP JUMP JUMPDEST PUSH0 PUSH2 0x1767 PUSH2 0x1485 JUMP JUMPDEST SWAP1 POP PUSH2 0x1773 DUP3 DUP3 PUSH2 0x172D JUMP JUMPDEST SWAP2 SWAP1 POP JUMP JUMPDEST PUSH0 PUSH8 0xFFFFFFFFFFFFFFFF DUP3 GT ISZERO PUSH2 0x1792 JUMPI PUSH2 0x1791 PUSH2 0x1700 JUMP JUMPDEST JUMPDEST PUSH2 0x179B DUP3 PUSH2 0x155B JUMP JUMPDEST SWAP1 POP PUSH1 0x20 DUP2 ADD SWAP1 POP SWAP2 SWAP1 POP JUMP JUMPDEST DUP3 DUP2 DUP4 CALLDATACOPY PUSH0 DUP4 DUP4 ADD MSTORE POP POP POP JUMP JUMPDEST PUSH0 PUSH2 0x17C8 PUSH2 0x17C3 DUP5 PUSH2 0x1778 JUMP JUMPDEST PUSH2 0x175E JUMP JUMPDEST SWAP1 POP DUP3 DUP2 MSTORE PUSH1 0x20 DUP2 ADD DUP5 DUP5 DUP5 ADD GT ISZERO PUSH2 0x17E4 JUMPI PUSH2 0x17E3 PUSH2 0x16FC JUMP JUMPDEST JUMPDEST PUSH2 0x17EF DUP5 DUP3 DUP6 PUSH2 0x17A8 JUMP JUMPDEST POP SWAP4 SWAP3 POP POP POP JUMP JUMPDEST PUSH0 DUP3 PUSH1 0x1F DUP4 ADD SLT PUSH2 0x180B JUMPI PUSH2 0x180A PUSH2 0x16F8 JUMP JUMPDEST JUMPDEST DUP2 CALLDATALOAD PUSH2 0x181B DUP5 DUP3 PUSH1 0x20 DUP7 ADD PUSH2 0x17B6 JUMP JUMPDEST SWAP2 POP POP SWAP3 SWAP2 POP POP JUMP JUMPDEST PUSH0 PUSH1 0x20 DUP3 DUP5 SUB SLT ISZERO PUSH2 0x1839 JUMPI PUSH2 0x1838 PUSH2 0x148E JUMP JUMPDEST JUMPDEST PUSH0 DUP3 ADD CALLDATALOAD PUSH8 0xFFFFFFFFFFFFFFFF DUP2 GT ISZERO PUSH2 0x1856 JUMPI PUSH2 0x1855 PUSH2 0x1492 JUMP JUMPDEST JUMPDEST PUSH2 0x1862 DUP5 DUP3 DUP6 ADD PUSH2 0x17F7 JUMP JUMPDEST SWAP2 POP POP SWAP3 SWAP2 POP POP JUMP JUMPDEST PUSH2 0x1874 DUP2 PUSH2 0x15B2 JUMP JUMPDEST DUP2 EQ PUSH2 0x187E JUMPI PUSH0 PUSH0 REVERT JUMPDEST POP JUMP JUMPDEST PUSH0 DUP2 CALLDATALOAD SWAP1 POP PUSH2 0x188F DUP2 PUSH2 0x186B JUMP JUMPDEST SWAP3 SWAP2 POP POP JUMP JUMPDEST PUSH0 PUSH0 PUSH1 0x40 DUP4 DUP6 SUB SLT ISZERO PUSH2 0x18AB JUMPI PUSH2 0x18AA PUSH2 0x148E JUMP JUMPDEST JUMPDEST PUSH0 PUSH2 0x18B8 DUP6 DUP3 DUP7 ADD PUSH2 0x14B5 JUMP JUMPDEST SWAP3 POP POP PUSH1 0x20 PUSH2 0x18C9 DUP6 DUP3 DUP7 ADD PUSH2 0x1881 JUMP JUMPDEST SWAP2 POP POP SWAP3 POP SWAP3 SWAP1 POP JUMP JUMPDEST PUSH0 PUSH1 0x20 DUP3 ADD SWAP1 POP PUSH2 0x18E6 PUSH0 DUP4 ADD DUP5 PUSH2 0x1524 JUMP JUMPDEST SWAP3 SWAP2 POP POP JUMP JUMPDEST PUSH0 PUSH1 0x80 DUP3 ADD SWAP1 POP PUSH2 0x18FF PUSH0 DUP4 ADD DUP8 PUSH2 0x15BD JUMP JUMPDEST PUSH2 0x190C PUSH1 0x20 DUP4 ADD DUP7 PUSH2 0x15A3 JUMP JUMPDEST PUSH2 0x1919 PUSH1 0x40 DUP4 ADD DUP6 PUSH2 0x15A3 JUMP JUMPDEST PUSH2 0x1926 PUSH1 0x60 DUP4 ADD DUP5 PUSH2 0x15BD JUMP JUMPDEST SWAP6 SWAP5 POP POP POP POP POP JUMP JUMPDEST PUSH0 DUP2 SWAP1 POP SWAP2 SWAP1 POP JUMP JUMPDEST PUSH0 PUSH2 0x1952 PUSH2 0x194D PUSH2 0x1948 DUP5 PUSH2 0x14F4 JUMP JUMPDEST PUSH2 0x192F JUMP JUMPDEST PUSH2 0x14F4 JUMP JUMPDEST SWAP1 POP SWAP2 SWAP1 POP JUMP JUMPDEST PUSH0 PUSH2 0x1963 DUP3 PUSH2 0x1938 JUMP JUMPDEST SWAP1 POP SWAP2 SWAP1 POP JUMP JUMPDEST PUSH0 PUSH2 0x1974 DUP3 PUSH2 0x1959 JUMP JUMPDEST SWAP1 POP SWAP2 SWAP1 POP JUMP JUMPDEST PUSH2 0x1984 DUP2 PUSH2 0x196A JUMP JUMPDEST DUP3 MSTORE POP POP JUMP JUMPDEST PUSH0 PUSH1 0x20 DUP3 ADD SWAP1 POP PUSH2 0x199D PUSH0 DUP4 ADD DUP5 PUSH2 0x197B JUMP JUMPDEST SWAP3 SWAP2 POP POP JUMP JUMPDEST PUSH32 0x4E487B7100000000000000000000000000000000000000000000000000000000 PUSH0 MSTORE PUSH1 0x22 PUSH1 0x4 MSTORE PUSH1 0x24 PUSH0 REVERT JUMPDEST PUSH0 PUSH1 0x2 DUP3 DIV SWAP1 POP PUSH1 0x1 DUP3 AND DUP1 PUSH2 0x19E7 JUMPI PUSH1 0x7F DUP3 AND SWAP2 POP JUMPDEST PUSH1 0x20 DUP3 LT DUP2 SUB PUSH2 0x19FA JUMPI PUSH2 0x19F9 PUSH2 0x19A3 JUMP JUMPDEST JUMPDEST POP SWAP2 SWAP1 POP JUMP JUMPDEST PUSH32 0x4E6F2074696D656C6F636B207365740000000000000000000000000000000000 PUSH0 DUP3 ADD MSTORE POP JUMP JUMPDEST PUSH0 PUSH2 0x1A34 PUSH1 0xF DUP4 PUSH2 0x153D JUMP JUMPDEST SWAP2 POP PUSH2 0x1A3F DUP3 PUSH2 0x1A00 JUMP JUMPDEST PUSH1 0x20 DUP3 ADD SWAP1 POP SWAP2 SWAP1 POP JUMP JUMPDEST PUSH0 PUSH1 0x20 DUP3 ADD SWAP1 POP DUP2 DUP2 SUB PUSH0 DUP4 ADD MSTORE PUSH2 0x1A61 DUP2 PUSH2 0x1A28 JUMP JUMPDEST SWAP1 POP SWAP2 SWAP1 POP JUMP JUMPDEST PUSH32 0x54696D656C6F636B206E6F7420656E6465640000000000000000000000000000 PUSH0 DUP3 ADD MSTORE POP JUMP JUMPDEST PUSH0 PUSH2 0x1A9C PUSH1 0x12 DUP4 PUSH2 0x153D JUMP JUMPDEST SWAP2 POP PUSH2 0x1AA7 DUP3 PUSH2 0x1A68 JUMP JUMPDEST PUSH1 0x20 DUP3 ADD SWAP1 POP SWAP2 SWAP1 POP JUMP JUMPDEST PUSH0 PUSH1 0x20 DUP3 ADD SWAP1 POP DUP2 DUP2 SUB PUSH0 DUP4 ADD MSTORE PUSH2 0x1AC9 DUP2 PUSH2 0x1A90 JUMP JUMPDEST SWAP1 POP SWAP2 SWAP1 POP JUMP JUMPDEST PUSH32 0x416C726561647920657865637574656400000000000000000000000000000000 PUSH0 DUP3 ADD MSTORE POP JUMP JUMPDEST PUSH0 PUSH2 0x1B04 PUSH1 0x10 DUP4 PUSH2 0x153D JUMP JUMPDEST SWAP2 POP PUSH2 0x1B0F DUP3 PUSH2 0x1AD0 JUMP JUMPDEST PUSH1 0x20 DUP3 ADD SWAP1 POP SWAP2 SWAP1 POP JUMP JUMPDEST PUSH0 PUSH1 0x20 DUP3 ADD SWAP1 POP DUP2 DUP2 SUB PUSH0 DUP4 ADD MSTORE PUSH2 0x1B31 DUP2 PUSH2 0x1AF8 JUMP JUMPDEST SWAP1 POP SWAP2 SWAP1 POP JUMP JUMPDEST PUSH32 0x43616E63656C6564000000000000000000000000000000000000000000000000 PUSH0 DUP3 ADD MSTORE POP JUMP JUMPDEST PUSH0 PUSH2 0x1B6C PUSH1 0x8 DUP4 PUSH2 0x153D JUMP JUMPDEST SWAP2 POP PUSH2 0x1B77 DUP3 PUSH2 0x1B38 JUMP JUMPDEST PUSH1 0x20 DUP3 ADD SWAP1 POP SWAP2 SWAP1 POP JUMP JUMPDEST PUSH0 PUSH1 0x20 DUP3 ADD SWAP1 POP DUP2 DUP2 SUB PUSH0 DUP4 ADD MSTORE PUSH2 0x1B99 DUP2 PUSH2 0x1B60 JUMP JUMPDEST SWAP1 POP SWAP2 SWAP1 POP JUMP JUMPDEST PUSH32 0x4E6F742061646D696E0000000000000000000000000000000000000000000000 PUSH0 DUP3 ADD MSTORE POP JUMP JUMPDEST PUSH0 PUSH2 0x1BD4 PUSH1 0x9 DUP4 PUSH2 0x153D JUMP JUMPDEST SWAP2 POP PUSH2 0x1BDF DUP3 PUSH2 0x1BA0 JUMP JUMPDEST PUSH1 0x20 DUP3 ADD SWAP1 POP SWAP2 SWAP1 POP JUMP JUMPDEST PUSH0 PUSH1 0x20 DUP3 ADD SWAP1 POP DUP2 DUP2 SUB PUSH0 DUP4 ADD MSTORE PUSH2 0x1C01 DUP2 PUSH2 0x1BC8 JUMP JUMPDEST SWAP1 POP SWAP2 SWAP1 POP JUMP JUMPDEST PUSH32 0x51756F72756D2070657263656E74616765206D75737420626520626574776565 PUSH0 DUP3 ADD MSTORE PUSH32 0x6E203020616E6420313030000000000000000000000000000000000000000000 PUSH1 0x20 DUP3 ADD MSTORE POP JUMP JUMPDEST PUSH0 PUSH2 0x1C62 PUSH1 0x2B DUP4 PUSH2 0x153D JUMP JUMPDEST SWAP2 POP PUSH2 0x1C6D DUP3 PUSH2 0x1C08 JUMP JUMPDEST PUSH1 0x40 DUP3 ADD SWAP1 POP SWAP2 SWAP1 POP JUMP JUMPDEST PUSH0 PUSH1 0x20 DUP3 ADD SWAP1 POP DUP2 DUP2 SUB PUSH0 DUP4 ADD MSTORE PUSH2 0x1C8F DUP2 PUSH2 0x1C56 JUMP JUMPDEST SWAP1 POP SWAP2 SWAP1 POP JUMP JUMPDEST PUSH32 0x456D707479206465736372697074696F6E000000000000000000000000000000 PUSH0 DUP3 ADD MSTORE POP JUMP JUMPDEST PUSH0 PUSH2 0x1CCA PUSH1 0x11 DUP4 PUSH2 0x153D JUMP JUMPDEST SWAP2 POP PUSH2 0x1CD5 DUP3 PUSH2 0x1C96 JUMP JUMPDEST PUSH1 0x20 DUP3 ADD SWAP1 POP SWAP2 SWAP1 POP JUMP JUMPDEST PUSH0 PUSH1 0x20 DUP3 ADD SWAP1 POP DUP2 DUP2 SUB PUSH0 DUP4 ADD MSTORE PUSH2 0x1CF7 DUP2 PUSH2 0x1CBE JUMP JUMPDEST SWAP1 POP SWAP2 SWAP1 POP JUMP JUMPDEST PUSH0 PUSH1 0x60 DUP3 ADD SWAP1 POP PUSH2 0x1D11 PUSH0 DUP4 ADD DUP7 PUSH2 0x1524 JUMP JUMPDEST PUSH2 0x1D1E PUSH1 0x20 DUP4 ADD DUP6 PUSH2 0x1524 JUMP JUMPDEST PUSH2 0x1D2B PUSH1 0x40 DUP4 ADD DUP5 PUSH2 0x15A3 JUMP JUMPDEST SWAP5 SWAP4 POP POP POP POP JUMP JUMPDEST PUSH0 DUP2 MLOAD SWAP1 POP PUSH2 0x1D41 DUP2 PUSH2 0x186B JUMP JUMPDEST SWAP3 SWAP2 POP POP JUMP JUMPDEST PUSH0 PUSH1 0x20 DUP3 DUP5 SUB SLT ISZERO PUSH2 0x1D5C JUMPI PUSH2 0x1D5B PUSH2 0x148E JUMP JUMPDEST JUMPDEST PUSH0 PUSH2 0x1D69 DUP5 DUP3 DUP6 ADD PUSH2 0x1D33 JUMP JUMPDEST SWAP2 POP POP SWAP3 SWAP2 POP POP JUMP JUMPDEST PUSH32 0x4E487B7100000000000000000000000000000000000000000000000000000000 PUSH0 MSTORE PUSH1 0x11 PUSH1 0x4 MSTORE PUSH1 0x24 PUSH0 REVERT JUMPDEST PUSH0 PUSH2 0x1DA9 DUP3 PUSH2 0x1496 JUMP JUMPDEST SWAP2 POP PUSH32 0xFFFFFFFFFFFFFFFFFFFFFFFFFFFFFFFFFFFFFFFFFFFFFFFFFFFFFFFFFFFFFFFF DUP3 SUB PUSH2 0x1DDB JUMPI PUSH2 0x1DDA PUSH2 0x1D72 JUMP JUMPDEST JUMPDEST PUSH1 0x1 DUP3 ADD SWAP1 POP SWAP2 SWAP1 POP JUMP JUMPDEST PUSH0 PUSH2 0x1DF0 DUP3 PUSH2 0x1496 JUMP JUMPDEST SWAP2 POP PUSH2 0x1DFB DUP4 PUSH2 0x1496 JUMP JUMPDEST SWAP3 POP DUP3 DUP3 ADD SWAP1 POP DUP1 DUP3 GT ISZERO PUSH2 0x1E13 JUMPI PUSH2 0x1E12 PUSH2 0x1D72 JUMP JUMPDEST JUMPDEST SWAP3 SWAP2 POP POP JUMP JUMPDEST PUSH0 DUP2 SWAP1 POP DUP2 PUSH0 MSTORE PUSH1 0x20 PUSH0 KECCAK256 SWAP1 POP SWAP2 SWAP1 POP JUMP JUMPDEST PUSH0 PUSH1 0x20 PUSH1 0x1F DUP4 ADD DIV SWAP1 POP SWAP2 SWAP1 POP JUMP JUMPDEST PUSH0 DUP3 DUP3 SHL SWAP1 POP SWAP3 SWAP2 POP POP JUMP JUMPDEST PUSH0 PUSH1 0x8 DUP4 MUL PUSH2 0x1E75 PUSH32 0xFFFFFFFFFFFFFFFFFFFFFFFFFFFFFFFFFFFFFFFFFFFFFFFFFFFFFFFFFFFFFFFF DUP3 PUSH2 0x1E3A JUMP JUMPDEST PUSH2 0x1E7F DUP7 DUP4 PUSH2 0x1E3A JUMP JUMPDEST SWAP6 POP DUP1 NOT DUP5 AND SWAP4 POP DUP1 DUP7 AND DUP5 OR SWAP3 POP POP POP SWAP4 SWAP3 POP POP POP JUMP JUMPDEST PUSH0 PUSH2 0x1EB1 PUSH2 0x1EAC PUSH2 0x1EA7 DUP5 PUSH2 0x1496 JUMP JUMPDEST PUSH2 0x192F JUMP JUMPDEST PUSH2 0x1496 JUMP JUMPDEST SWAP1 POP SWAP2 SWAP1 POP JUMP JUMPDEST PUSH0 DUP2 SWAP1 POP SWAP2 SWAP1 POP JUMP JUMPDEST PUSH2 0x1ECA DUP4 PUSH2 0x1E97 JUMP JUMPDEST PUSH2 0x1EDE PUSH2 0x1ED6 DUP3 PUSH2 0x1EB8 JUMP JUMPDEST DUP5 DUP5 SLOAD PUSH2 0x1E46 JUMP JUMPDEST DUP3 SSTORE POP POP POP POP JUMP JUMPDEST PUSH0 PUSH0 SWAP1 POP SWAP1 JUMP JUMPDEST PUSH2 0x1EF5 PUSH2 0x1EE6 JUMP JUMPDEST PUSH2 0x1F00 DUP2 DUP5 DUP5 PUSH2 0x1EC1 JUMP JUMPDEST POP POP POP JUMP JUMPDEST JUMPDEST DUP2 DUP2 LT ISZERO PUSH2 0x1F23 JUMPI PUSH2 0x1F18 PUSH0 DUP3 PUSH2 0x1EED JUMP JUMPDEST PUSH1 0x1 DUP2 ADD SWAP1 POP PUSH2 0x1F06 JUMP JUMPDEST POP POP JUMP JUMPDEST PUSH1 0x1F DUP3 GT ISZERO PUSH2 0x1F68 JUMPI PUSH2 0x1F39 DUP2 PUSH2 0x1E19 JUMP JUMPDEST PUSH2 0x1F42 DUP5 PUSH2 0x1E2B JUMP JUMPDEST DUP2 ADD PUSH1 0x20 DUP6 LT ISZERO PUSH2 0x1F51 JUMPI DUP2 SWAP1 POP JUMPDEST PUSH2 0x1F65 PUSH2 0x1F5D DUP6 PUSH2 0x1E2B JUMP JUMPDEST DUP4 ADD DUP3 PUSH2 0x1F05 JUMP JUMPDEST POP POP JUMPDEST POP POP POP JUMP JUMPDEST PUSH0 DUP3 DUP3 SHR SWAP1 POP SWAP3 SWAP2 POP POP JUMP JUMPDEST PUSH0 PUSH2 0x1F88 PUSH0 NOT DUP5 PUSH1 0x8 MUL PUSH2 0x1F6D JUMP JUMPDEST NOT DUP1 DUP4 AND SWAP2 POP POP SWAP3 SWAP2 POP POP JUMP JUMPDEST PUSH0 PUSH2 0x1FA0 DUP4 DUP4 PUSH2 0x1F79 JUMP JUMPDEST SWAP2 POP DUP3 PUSH1 0x2 MUL DUP3 OR SWAP1 POP SWAP3 SWAP2 POP POP JUMP JUMPDEST PUSH2 0x1FB9 DUP3 PUSH2 0x1533 JUMP JUMPDEST PUSH8 0xFFFFFFFFFFFFFFFF DUP2 GT ISZERO PUSH2 0x1FD2 JUMPI PUSH2 0x1FD1 PUSH2 0x1700 JUMP JUMPDEST JUMPDEST PUSH2 0x1FDC DUP3 SLOAD PUSH2 0x19D0 JUMP JUMPDEST PUSH2 0x1FE7 DUP3 DUP3 DUP6 PUSH2 0x1F27 JUMP JUMPDEST PUSH0 PUSH1 0x20 SWAP1 POP PUSH1 0x1F DUP4 GT PUSH1 0x1 DUP2 EQ PUSH2 0x2018 JUMPI PUSH0 DUP5 ISZERO PUSH2 0x2006 JUMPI DUP3 DUP8 ADD MLOAD SWAP1 POP JUMPDEST PUSH2 0x2010 DUP6 DUP3 PUSH2 0x1F95 JUMP JUMPDEST DUP7 SSTORE POP PUSH2 0x2077 JUMP JUMPDEST PUSH1 0x1F NOT DUP5 AND PUSH2 0x2026 DUP7 PUSH2 0x1E19 JUMP JUMPDEST PUSH0 JUMPDEST DUP3 DUP2 LT ISZERO PUSH2 0x204D JUMPI DUP5 DUP10 ADD MLOAD DUP3 SSTORE PUSH1 0x1 DUP3 ADD SWAP2 POP PUSH1 0x20 DUP6 ADD SWAP5 POP PUSH1 0x20 DUP2 ADD SWAP1 POP PUSH2 0x2028 JUMP JUMPDEST DUP7 DUP4 LT ISZERO PUSH2 0x206A JUMPI DUP5 DUP10 ADD MLOAD PUSH2 0x2066 PUSH1 0x1F DUP10 AND DUP3 PUSH2 0x1F79 JUMP JUMPDEST DUP4 SSTORE POP JUMPDEST PUSH1 0x1 PUSH1 0x2 DUP9 MUL ADD DUP9 SSTORE POP POP POP JUMPDEST POP POP POP POP POP POP JUMP JUMPDEST PUSH0 PUSH1 0x20 DUP3 ADD SWAP1 POP DUP2 DUP2 SUB PUSH0 DUP4 ADD MSTORE PUSH2 0x2097 DUP2 DUP5 PUSH2 0x156B JUMP JUMPDEST SWAP1 POP SWAP3 SWAP2 POP POP JUMP JUMPDEST PUSH32 0x566F74696E67206E6F7420656E64656400000000000000000000000000000000 PUSH0 DUP3 ADD MSTORE POP JUMP JUMPDEST PUSH0 PUSH2 0x20D3 PUSH1 0x10 DUP4 PUSH2 0x153D JUMP JUMPDEST SWAP2 POP PUSH2 0x20DE DUP3 PUSH2 0x209F JUMP JUMPDEST PUSH1 0x20 DUP3 ADD SWAP1 POP SWAP2 SWAP1 POP JUMP JUMPDEST PUSH0 PUSH1 0x20 DUP3 ADD SWAP1 POP DUP2 DUP2 SUB PUSH0 DUP4 ADD MSTORE PUSH2 0x2100 DUP2 PUSH2 0x20C7 JUMP JUMPDEST SWAP1 POP SWAP2 SWAP1 POP JUMP JUMPDEST PUSH0 DUP2 MLOAD SWAP1 POP PUSH2 0x2115 DUP2 PUSH2 0x149F JUMP JUMPDEST SWAP3 SWAP2 POP POP JUMP JUMPDEST PUSH0 PUSH1 0x20 DUP3 DUP5 SUB SLT ISZERO PUSH2 0x2130 JUMPI PUSH2 0x212F PUSH2 0x148E JUMP JUMPDEST JUMPDEST PUSH0 PUSH2 0x213D DUP5 DUP3 DUP6 ADD PUSH2 0x2107 JUMP JUMPDEST SWAP2 POP POP SWAP3 SWAP2 POP POP JUMP JUMPDEST PUSH0 PUSH2 0x2150 DUP3 PUSH2 0x1496 JUMP JUMPDEST SWAP2 POP PUSH2 0x215B DUP4 PUSH2 0x1496 JUMP JUMPDEST SWAP3 POP DUP3 DUP3 MUL PUSH2 0x2169 DUP2 PUSH2 0x1496 JUMP JUMPDEST SWAP2 POP DUP3 DUP3 DIV DUP5 EQ DUP4 ISZERO OR PUSH2 0x2180 JUMPI PUSH2 0x217F PUSH2 0x1D72 JUMP JUMPDEST JUMPDEST POP SWAP3 SWAP2 POP POP JUMP JUMPDEST PUSH32 0x4E487B7100000000000000000000000000000000000000000000000000000000 PUSH0 MSTORE PUSH1 0x12 PUSH1 0x4 MSTORE PUSH1 0x24 PUSH0 REVERT JUMPDEST PUSH0 PUSH2 0x21BE DUP3 PUSH2 0x1496 JUMP JUMPDEST SWAP2 POP PUSH2 0x21C9 DUP4 PUSH2 0x1496 JUMP JUMPDEST SWAP3 POP DUP3 PUSH2 0x21D9 JUMPI PUSH2 0x21D8 PUSH2 0x2187 JUMP JUMPDEST JUMPDEST DUP3 DUP3 DIV SWAP1 POP SWAP3 SWAP2 POP POP JUMP JUMPDEST PUSH32 0x4E6F742073746172746564000000000000000000000000000000000000000000 PUSH0 DUP3 ADD MSTORE POP JUMP JUMPDEST PUSH0 PUSH2 0x2218 PUSH1 0xB DUP4 PUSH2 0x153D JUMP JUMPDEST SWAP2 POP PUSH2 0x2223 DUP3 PUSH2 0x21E4 JUMP JUMPDEST PUSH1 0x20 DUP3 ADD SWAP1 POP SWAP2 SWAP1 POP JUMP JUMPDEST PUSH0 PUSH1 0x20 DUP3 ADD SWAP1 POP DUP2 DUP2 SUB PUSH0 DUP4 ADD MSTORE PUSH2 0x2245 DUP2 PUSH2 0x220C JUMP JUMPDEST SWAP1 POP SWAP2 SWAP1 POP JUMP JUMPDEST PUSH32 0x456E646564000000000000000000000000000000000000000000000000000000 PUSH0 DUP3 ADD MSTORE POP JUMP JUMPDEST PUSH0 PUSH2 0x2280 PUSH1 0x5 DUP4 PUSH2 0x153D JUMP JUMPDEST SWAP2 POP PUSH2 0x228B DUP3 PUSH2 0x224C JUMP JUMPDEST PUSH1 0x20 DUP3 ADD SWAP1 POP SWAP2 SWAP1 POP JUMP JUMPDEST PUSH0 PUSH1 0x20 DUP3 ADD SWAP1 POP DUP2 DUP2 SUB PUSH0 DUP4 ADD MSTORE PUSH2 0x22AD DUP2 PUSH2 0x2274 JUMP JUMPDEST SWAP1 POP SWAP2 SWAP1 POP JUMP JUMPDEST PUSH32 0x416C726561647920766F74656400000000000000000000000000000000000000 PUSH0 DUP3 ADD MSTORE POP JUMP JUMPDEST PUSH0 PUSH2 0x22E8 PUSH1 0xD DUP4 PUSH2 0x153D JUMP JUMPDEST SWAP2 POP PUSH2 0x22F3 DUP3 PUSH2 0x22B4 JUMP JUMPDEST PUSH1 0x20 DUP3 ADD SWAP1 POP SWAP2 SWAP1 POP JUMP JUMPDEST PUSH0 PUSH1 0x20 DUP3 ADD SWAP1 POP DUP2 DUP2 SUB PUSH0 DUP4 ADD MSTORE PUSH2 0x2315 DUP2 PUSH2 0x22DC JUMP JUMPDEST SWAP1 POP SWAP2 SWAP1 POP JUMP JUMPDEST PUSH32 0x4E6F20766F74696E6720706F7765720000000000000000000000000000000000 PUSH0 DUP3 ADD MSTORE POP JUMP JUMPDEST PUSH0 PUSH2 0x2350 PUSH1 0xF DUP4 PUSH2 0x153D JUMP JUMPDEST SWAP2 POP PUSH2 0x235B DUP3 PUSH2 0x231C JUMP JUMPDEST PUSH1 0x20 DUP3 ADD SWAP1 POP SWAP2 SWAP1 POP JUMP JUMPDEST PUSH0 PUSH1 0x20 DUP3 ADD SWAP1 POP DUP2 DUP2 SUB PUSH0 DUP4 ADD MSTORE PUSH2 0x237D DUP2 PUSH2 0x2344 JUMP JUMPDEST SWAP1 POP SWAP2 SWAP1 POP JUMP JUMPDEST PUSH0 PUSH1 0x40 DUP3 ADD SWAP1 POP PUSH2 0x2397 PUSH0 DUP4 ADD DUP6 PUSH2 0x15BD JUMP JUMPDEST PUSH2 0x23A4 PUSH1 0x20 DUP4 ADD DUP5 PUSH2 0x15A3 JUMP JUMPDEST SWAP4 SWAP3 POP POP POP JUMP JUMPDEST PUSH0 PUSH1 0x40 DUP3 ADD SWAP1 POP PUSH2 0x23BE PUSH0 DUP4 ADD DUP6 PUSH2 0x1524 JUMP JUMPDEST PUSH2 0x23CB PUSH1 0x20 DUP4 ADD DUP5 PUSH2 0x15A3 JUMP JUMPDEST SWAP4 SWAP3 POP POP POP JUMP INVALID LOG2 PUSH5 0x6970667358 0x22 SLT KECCAK256 PUSH5 0xEB5B67EE07 EOFCREATE 0xF4 PUSH4 0xA32FB858 0xA6 GT PUSH6 0xC2545A053AF5 EXP 0xD8 0xBF ADD NUMBER 0x23 CALLCODE 0xAB 0xF6 0xAD PUSH5 0x736F6C6343 STOP ADDMOD 0x1E STOP CALLER "
				},
				"gasEstimates": {
					"creation": {
						"codeDepositCost": "1844800",
						"executionCost": "infinite",
						"totalCost": "infinite"
					},
					"external": {
						"admin()": "2574",
						"createProposal(string)": "infinite",
						"executeProposal(uint256)": "infinite",
						"finalizeProposal(uint256)": "infinite",
						"getProposalResult(uint256)": "infinite",
						"governanceToken()": "infinite",
						"hasVoted(uint256,address)": "3093",
						"nextProposalId()": "2470",
						"proposalDepositAmount()": "2493",
						"proposals(uint256)": "infinite",
						"quorumPercentage()": "2492",
						"setProposalDepositAmount(uint256)": "24706",
						"setQuorumPercentage(uint256)": "24799",
						"setTimelockDuration(uint256)": "infinite",
						"timelockDuration()": "2492",
						"vote(uint256,bool)": "infinite",
						"votingDuration()": "2515"
					},
					"internal": {
						"_refundDeposit(uint256)": "infinite"
					}
				},
				"methodIdentifiers": {
					"admin()": "f851a440",
					"createProposal(string)": "49c2a1a6",
					"executeProposal(uint256)": "0d61b519",
					"finalizeProposal(uint256)": "5652077c",
					"getProposalResult(uint256)": "f91f88f7",
					"governanceToken()": "f96dae0a",
					"hasVoted(uint256,address)": "43859632",
					"nextProposalId()": "2ab09d14",
					"proposalDepositAmount()": "0e7ca9e3",
					"proposals(uint256)": "013cf08b",
					"quorumPercentage()": "4fa76ec9",
					"setProposalDepositAmount(uint256)": "af42d03a",
					"setQuorumPercentage(uint256)": "32f6a1dc",
					"setTimelockDuration(uint256)": "150fea09",
					"timelockDuration()": "2bbca157",
					"vote(uint256,bool)": "c9d27afe",
					"votingDuration()": "132002fc"
				}
			},
			"storageLayout": {
				"storage": [
					{
						"astId": 10,
						"contract": "submissions/Zora/DecentralizedGovernance.sol:DecentralizedGovernance",
						"label": "_status",
						"offset": 0,
						"slot": "0",
						"type": "t_uint256"
					},
					{
						"astId": 1920,
						"contract": "submissions/Zora/DecentralizedGovernance.sol:DecentralizedGovernance",
						"label": "governanceToken",
						"offset": 0,
						"slot": "1",
						"type": "t_contract(IERC20)142"
					},
					{
						"astId": 1944,
						"contract": "submissions/Zora/DecentralizedGovernance.sol:DecentralizedGovernance",
						"label": "proposals",
						"offset": 0,
						"slot": "2",
						"type": "t_mapping(t_uint256,t_struct(Proposal)1939_storage)"
					},
					{
						"astId": 1950,
						"contract": "submissions/Zora/DecentralizedGovernance.sol:DecentralizedGovernance",
						"label": "hasVoted",
						"offset": 0,
						"slot": "3",
						"type": "t_mapping(t_uint256,t_mapping(t_address,t_bool))"
					},
					{
						"astId": 1952,
						"contract": "submissions/Zora/DecentralizedGovernance.sol:DecentralizedGovernance",
						"label": "nextProposalId",
						"offset": 0,
						"slot": "4",
						"type": "t_uint256"
					},
					{
						"astId": 1954,
						"contract": "submissions/Zora/DecentralizedGovernance.sol:DecentralizedGovernance",
						"label": "votingDuration",
						"offset": 0,
						"slot": "5",
						"type": "t_uint256"
					},
					{
						"astId": 1956,
						"contract": "submissions/Zora/DecentralizedGovernance.sol:DecentralizedGovernance",
						"label": "timelockDuration",
						"offset": 0,
						"slot": "6",
						"type": "t_uint256"
					},
					{
						"astId": 1958,
						"contract": "submissions/Zora/DecentralizedGovernance.sol:DecentralizedGovernance",
						"label": "admin",
						"offset": 0,
						"slot": "7",
						"type": "t_address"
					},
					{
						"astId": 1960,
						"contract": "submissions/Zora/DecentralizedGovernance.sol:DecentralizedGovernance",
						"label": "quorumPercentage",
						"offset": 0,
						"slot": "8",
						"type": "t_uint256"
					},
					{
						"astId": 1962,
						"contract": "submissions/Zora/DecentralizedGovernance.sol:DecentralizedGovernance",
						"label": "proposalDepositAmount",
						"offset": 0,
						"slot": "9",
						"type": "t_uint256"
					}
				],
				"types": {
					"t_address": {
						"encoding": "inplace",
						"label": "address",
						"numberOfBytes": "20"
					},
					"t_bool": {
						"encoding": "inplace",
						"label": "bool",
						"numberOfBytes": "1"
					},
					"t_contract(IERC20)142": {
						"encoding": "inplace",
						"label": "contract IERC20",
						"numberOfBytes": "20"
					},
					"t_mapping(t_address,t_bool)": {
						"encoding": "mapping",
						"key": "t_address",
						"label": "mapping(address => bool)",
						"numberOfBytes": "32",
						"value": "t_bool"
					},
					"t_mapping(t_uint256,t_mapping(t_address,t_bool))": {
						"encoding": "mapping",
						"key": "t_uint256",
						"label": "mapping(uint256 => mapping(address => bool))",
						"numberOfBytes": "32",
						"value": "t_mapping(t_address,t_bool)"
					},
					"t_mapping(t_uint256,t_struct(Proposal)1939_storage)": {
						"encoding": "mapping",
						"key": "t_uint256",
						"label": "mapping(uint256 => struct DecentralizedGovernance.Proposal)",
						"numberOfBytes": "32",
						"value": "t_struct(Proposal)1939_storage"
					},
					"t_string_storage": {
						"encoding": "bytes",
						"label": "string",
						"numberOfBytes": "32"
					},
					"t_struct(Proposal)1939_storage": {
						"encoding": "inplace",
						"label": "struct DecentralizedGovernance.Proposal",
						"members": [
							{
								"astId": 1922,
								"contract": "submissions/Zora/DecentralizedGovernance.sol:DecentralizedGovernance",
								"label": "proposer",
								"offset": 0,
								"slot": "0",
								"type": "t_address"
							},
							{
								"astId": 1924,
								"contract": "submissions/Zora/DecentralizedGovernance.sol:DecentralizedGovernance",
								"label": "description",
								"offset": 0,
								"slot": "1",
								"type": "t_string_storage"
							},
							{
								"astId": 1926,
								"contract": "submissions/Zora/DecentralizedGovernance.sol:DecentralizedGovernance",
								"label": "forVotes",
								"offset": 0,
								"slot": "2",
								"type": "t_uint256"
							},
							{
								"astId": 1928,
								"contract": "submissions/Zora/DecentralizedGovernance.sol:DecentralizedGovernance",
								"label": "againstVotes",
								"offset": 0,
								"slot": "3",
								"type": "t_uint256"
							},
							{
								"astId": 1930,
								"contract": "submissions/Zora/DecentralizedGovernance.sol:DecentralizedGovernance",
								"label": "startTime",
								"offset": 0,
								"slot": "4",
								"type": "t_uint256"
							},
							{
								"astId": 1932,
								"contract": "submissions/Zora/DecentralizedGovernance.sol:DecentralizedGovernance",
								"label": "endTime",
								"offset": 0,
								"slot": "5",
								"type": "t_uint256"
							},
							{
								"astId": 1934,
								"contract": "submissions/Zora/DecentralizedGovernance.sol:DecentralizedGovernance",
								"label": "executed",
								"offset": 0,
								"slot": "6",
								"type": "t_bool"
							},
							{
								"astId": 1936,
								"contract": "submissions/Zora/DecentralizedGovernance.sol:DecentralizedGovernance",
								"label": "canceled",
								"offset": 1,
								"slot": "6",
								"type": "t_bool"
							},
							{
								"astId": 1938,
								"contract": "submissions/Zora/DecentralizedGovernance.sol:DecentralizedGovernance",
								"label": "timelockEnd",
								"offset": 0,
								"slot": "7",
								"type": "t_uint256"
							}
						],
						"numberOfBytes": "256"
					},
					"t_uint256": {
						"encoding": "inplace",
						"label": "uint256",
						"numberOfBytes": "32"
					}
				}
			},
			"userdoc": {
				"kind": "user",
				"methods": {},
				"version": 1
			}
		}
	}
}