{
	"submissions/Zora/GoldVault.sol": {
		"GoldVault": {
			"abi": [
				{
					"inputs": [],
					"stateMutability": "nonpayable",
					"type": "constructor"
				},
				{
					"inputs": [],
					"name": "deposit",
					"outputs": [],
					"stateMutability": "payable",
					"type": "function"
				},
				{
					"inputs": [
						{
							"internalType": "address",
							"name": "",
							"type": "address"
						}
					],
					"name": "goldBalance",
					"outputs": [
						{
							"internalType": "uint256",
							"name": "",
							"type": "uint256"
						}
					],
					"stateMutability": "view",
					"type": "function"
				},
				{
					"inputs": [],
					"name": "safeWithdraw",
					"outputs": [],
					"stateMutability": "nonpayable",
					"type": "function"
				},
				{
					"inputs": [],
					"name": "vulnerableWithdraw",
					"outputs": [],
					"stateMutability": "nonpayable",
					"type": "function"
				}
			],
			"devdoc": {
				"kind": "dev",
				"methods": {},
				"version": 1
			},
			"evm": {
				"assembly": "    /* \"submissions/Zora/GoldVault.sol\":61:1728  contract GoldVault {... */\n  mstore(0x40, 0x80)\n    /* \"submissions/Zora/GoldVault.sol\":428:483  constructor() {... */\n  callvalue\n  dup1\n  iszero\n  tag_1\n  jumpi\n  revert(0x00, 0x00)\ntag_1:\n  pop\n    /* \"submissions/Zora/GoldVault.sol\":314:315  1 */\n  0x01\n    /* \"submissions/Zora/GoldVault.sol\":453:460  _status */\n  dup1\n    /* \"submissions/Zora/GoldVault.sol\":453:475  _status = _NOT_ENTERED */\n  dup2\n  swap1\n  sstore\n  pop\n    /* \"submissions/Zora/GoldVault.sol\":61:1728  contract GoldVault {... */\n  dataSize(sub_0)\n  dup1\n  dataOffset(sub_0)\n  0x00\n  codecopy\n  0x00\n  return\nstop\n\nsub_0: assembly {\n        /* \"submissions/Zora/GoldVault.sol\":61:1728  contract GoldVault {... */\n      mstore(0x40, 0x80)\n      jumpi(tag_1, lt(calldatasize, 0x04))\n      shr(0xe0, calldataload(0x00))\n      dup1\n      0x6d02423f\n      eq\n      tag_2\n      jumpi\n      dup1\n      0x710957cc\n      eq\n      tag_3\n      jumpi\n      dup1\n      0x7fd42617\n      eq\n      tag_4\n      jumpi\n      dup1\n      0xd0e30db0\n      eq\n      tag_5\n      jumpi\n    tag_1:\n      revert(0x00, 0x00)\n        /* \"submissions/Zora/GoldVault.sol\":87:133  mapping(address => uint256) public goldBalance */\n    tag_2:\n      callvalue\n      dup1\n      iszero\n      tag_6\n      jumpi\n      revert(0x00, 0x00)\n    tag_6:\n      pop\n      tag_7\n      0x04\n      dup1\n      calldatasize\n      sub\n      dup2\n      add\n      swap1\n      tag_8\n      swap2\n      swap1\n      tag_9\n      jump\t// in\n    tag_8:\n      tag_10\n      jump\t// in\n    tag_7:\n      mload(0x40)\n      tag_11\n      swap2\n      swap1\n      tag_12\n      jump\t// in\n    tag_11:\n      mload(0x40)\n      dup1\n      swap2\n      sub\n      swap1\n      return\n        /* \"submissions/Zora/GoldVault.sol\":1027:1328  function vulnerableWithdraw() external {... */\n    tag_3:\n      callvalue\n      dup1\n      iszero\n      tag_13\n      jumpi\n      revert(0x00, 0x00)\n    tag_13:\n      pop\n      tag_14\n      tag_15\n      jump\t// in\n    tag_14:\n      stop\n        /* \"submissions/Zora/GoldVault.sol\":1418:1725  function safeWithdraw() external nonReentrant {... */\n    tag_4:\n      callvalue\n      dup1\n      iszero\n      tag_16\n      jumpi\n      revert(0x00, 0x00)\n    tag_16:\n      pop\n      tag_17\n      tag_18\n      jump\t// in\n    tag_17:\n      stop\n        /* \"submissions/Zora/GoldVault.sol\":718:873  function deposit() external payable {... */\n    tag_5:\n      tag_19\n      tag_20\n      jump\t// in\n    tag_19:\n      stop\n        /* \"submissions/Zora/GoldVault.sol\":87:133  mapping(address => uint256) public goldBalance */\n    tag_10:\n      mstore(0x20, 0x00)\n      dup1\n      0x00\n      mstore\n      keccak256(0x00, 0x40)\n      0x00\n      swap2\n      pop\n      swap1\n      pop\n      sload\n      dup2\n      jump\t// out\n        /* \"submissions/Zora/GoldVault.sol\":1027:1328  function vulnerableWithdraw() external {... */\n    tag_15:\n        /* \"submissions/Zora/GoldVault.sol\":1077:1091  uint256 amount */\n      0x00\n        /* \"submissions/Zora/GoldVault.sol\":1094:1105  goldBalance */\n      0x00\n        /* \"submissions/Zora/GoldVault.sol\":1094:1117  goldBalance[msg.sender] */\n      0x00\n        /* \"submissions/Zora/GoldVault.sol\":1106:1116  msg.sender */\n      caller\n        /* \"submissions/Zora/GoldVault.sol\":1094:1117  goldBalance[msg.sender] */\n      0xffffffffffffffffffffffffffffffffffffffff\n      and\n      0xffffffffffffffffffffffffffffffffffffffff\n      and\n      dup2\n      mstore\n      0x20\n      add\n      swap1\n      dup2\n      mstore\n      0x20\n      add\n      0x00\n      keccak256\n      sload\n        /* \"submissions/Zora/GoldVault.sol\":1077:1117  uint256 amount = goldBalance[msg.sender] */\n      swap1\n      pop\n        /* \"submissions/Zora/GoldVault.sol\":1145:1146  0 */\n      0x00\n        /* \"submissions/Zora/GoldVault.sol\":1136:1142  amount */\n      dup2\n        /* \"submissions/Zora/GoldVault.sol\":1136:1146  amount > 0 */\n      gt\n        /* \"submissions/Zora/GoldVault.sol\":1128:1170  require(amount > 0, \"Nothing to withdraw\") */\n      tag_22\n      jumpi\n      mload(0x40)\n      0x08c379a000000000000000000000000000000000000000000000000000000000\n      dup2\n      mstore\n      0x04\n      add\n      tag_23\n      swap1\n      tag_24\n      jump\t// in\n    tag_23:\n      mload(0x40)\n      dup1\n      swap2\n      sub\n      swap1\n      revert\n    tag_22:\n        /* \"submissions/Zora/GoldVault.sol\":1184:1193  bool sent */\n      0x00\n        /* \"submissions/Zora/GoldVault.sol\":1199:1209  msg.sender */\n      caller\n        /* \"submissions/Zora/GoldVault.sol\":1199:1214  msg.sender.call */\n      0xffffffffffffffffffffffffffffffffffffffff\n      and\n        /* \"submissions/Zora/GoldVault.sol\":1222:1228  amount */\n      dup3\n        /* \"submissions/Zora/GoldVault.sol\":1199:1233  msg.sender.call{value: amount}(\"\") */\n      mload(0x40)\n      tag_25\n      swap1\n      tag_26\n      jump\t// in\n    tag_25:\n      0x00\n      mload(0x40)\n      dup1\n      dup4\n      sub\n      dup2\n      dup6\n      dup8\n      gas\n      call\n      swap3\n      pop\n      pop\n      pop\n      returndatasize\n      dup1\n      0x00\n      dup2\n      eq\n      tag_29\n      jumpi\n      mload(0x40)\n      swap2\n      pop\n      and(add(returndatasize, 0x3f), not(0x1f))\n      dup3\n      add\n      0x40\n      mstore\n      returndatasize\n      dup3\n      mstore\n      returndatasize\n      0x00\n      0x20\n      dup5\n      add\n      returndatacopy\n      jump(tag_28)\n    tag_29:\n      0x60\n      swap2\n      pop\n    tag_28:\n      pop\n        /* \"submissions/Zora/GoldVault.sol\":1183:1233  (bool sent, ) = msg.sender.call{value: amount}(\"\") */\n      pop\n      swap1\n      pop\n        /* \"submissions/Zora/GoldVault.sol\":1252:1256  sent */\n      dup1\n        /* \"submissions/Zora/GoldVault.sol\":1244:1280  require(sent, \"ETH transfer failed\") */\n      tag_30\n      jumpi\n      mload(0x40)\n      0x08c379a000000000000000000000000000000000000000000000000000000000\n      dup2\n      mstore\n      0x04\n      add\n      tag_31\n      swap1\n      tag_32\n      jump\t// in\n    tag_31:\n      mload(0x40)\n      dup1\n      swap2\n      sub\n      swap1\n      revert\n    tag_30:\n        /* \"submissions/Zora/GoldVault.sol\":1319:1320  0 */\n      0x00\n        /* \"submissions/Zora/GoldVault.sol\":1293:1304  goldBalance */\n      0x00\n        /* \"submissions/Zora/GoldVault.sol\":1293:1316  goldBalance[msg.sender] */\n      0x00\n        /* \"submissions/Zora/GoldVault.sol\":1305:1315  msg.sender */\n      caller\n        /* \"submissions/Zora/GoldVault.sol\":1293:1316  goldBalance[msg.sender] */\n      0xffffffffffffffffffffffffffffffffffffffff\n      and\n      0xffffffffffffffffffffffffffffffffffffffff\n      and\n      dup2\n      mstore\n      0x20\n      add\n      swap1\n      dup2\n      mstore\n      0x20\n      add\n      0x00\n      keccak256\n        /* \"submissions/Zora/GoldVault.sol\":1293:1320  goldBalance[msg.sender] = 0 */\n      dup2\n      swap1\n      sstore\n      pop\n        /* \"submissions/Zora/GoldVault.sol\":1066:1328  {... */\n      pop\n      pop\n        /* \"submissions/Zora/GoldVault.sol\":1027:1328  function vulnerableWithdraw() external {... */\n      jump\t// out\n        /* \"submissions/Zora/GoldVault.sol\":1418:1725  function safeWithdraw() external nonReentrant {... */\n    tag_18:\n        /* \"submissions/Zora/GoldVault.sol\":388:389  2 */\n      0x02\n        /* \"submissions/Zora/GoldVault.sol\":534:541  _status */\n      sload(0x01)\n        /* \"submissions/Zora/GoldVault.sol\":534:553  _status != _ENTERED */\n      sub\n        /* \"submissions/Zora/GoldVault.sol\":526:580  require(_status != _ENTERED, \"Reentrant call blocked\") */\n      tag_34\n      jumpi\n      mload(0x40)\n      0x08c379a000000000000000000000000000000000000000000000000000000000\n      dup2\n      mstore\n      0x04\n      add\n      tag_35\n      swap1\n      tag_36\n      jump\t// in\n    tag_35:\n      mload(0x40)\n      dup1\n      swap2\n      sub\n      swap1\n      revert\n    tag_34:\n        /* \"submissions/Zora/GoldVault.sol\":388:389  2 */\n      0x02\n        /* \"submissions/Zora/GoldVault.sol\":591:598  _status */\n      0x01\n        /* \"submissions/Zora/GoldVault.sol\":591:609  _status = _ENTERED */\n      dup2\n      swap1\n      sstore\n      pop\n        /* \"submissions/Zora/GoldVault.sol\":1475:1489  uint256 amount */\n      0x00\n        /* \"submissions/Zora/GoldVault.sol\":1492:1503  goldBalance */\n      0x00\n        /* \"submissions/Zora/GoldVault.sol\":1492:1515  goldBalance[msg.sender] */\n      0x00\n        /* \"submissions/Zora/GoldVault.sol\":1504:1514  msg.sender */\n      caller\n        /* \"submissions/Zora/GoldVault.sol\":1492:1515  goldBalance[msg.sender] */\n      0xffffffffffffffffffffffffffffffffffffffff\n      and\n      0xffffffffffffffffffffffffffffffffffffffff\n      and\n      dup2\n      mstore\n      0x20\n      add\n      swap1\n      dup2\n      mstore\n      0x20\n      add\n      0x00\n      keccak256\n      sload\n        /* \"submissions/Zora/GoldVault.sol\":1475:1515  uint256 amount = goldBalance[msg.sender] */\n      swap1\n      pop\n        /* \"submissions/Zora/GoldVault.sol\":1543:1544  0 */\n      0x00\n        /* \"submissions/Zora/GoldVault.sol\":1534:1540  amount */\n      dup2\n        /* \"submissions/Zora/GoldVault.sol\":1534:1544  amount > 0 */\n      gt\n        /* \"submissions/Zora/GoldVault.sol\":1526:1568  require(amount > 0, \"Nothing to withdraw\") */\n      tag_38\n      jumpi\n      mload(0x40)\n      0x08c379a000000000000000000000000000000000000000000000000000000000\n      dup2\n      mstore\n      0x04\n      add\n      tag_39\n      swap1\n      tag_24\n      jump\t// in\n    tag_39:\n      mload(0x40)\n      dup1\n      swap2\n      sub\n      swap1\n      revert\n    tag_38:\n        /* \"submissions/Zora/GoldVault.sol\":1607:1608  0 */\n      0x00\n        /* \"submissions/Zora/GoldVault.sol\":1581:1592  goldBalance */\n      0x00\n        /* \"submissions/Zora/GoldVault.sol\":1581:1604  goldBalance[msg.sender] */\n      0x00\n        /* \"submissions/Zora/GoldVault.sol\":1593:1603  msg.sender */\n      caller\n        /* \"submissions/Zora/GoldVault.sol\":1581:1604  goldBalance[msg.sender] */\n      0xffffffffffffffffffffffffffffffffffffffff\n      and\n      0xffffffffffffffffffffffffffffffffffffffff\n      and\n      dup2\n      mstore\n      0x20\n      add\n      swap1\n      dup2\n      mstore\n      0x20\n      add\n      0x00\n      keccak256\n        /* \"submissions/Zora/GoldVault.sol\":1581:1608  goldBalance[msg.sender] = 0 */\n      dup2\n      swap1\n      sstore\n      pop\n        /* \"submissions/Zora/GoldVault.sol\":1621:1630  bool sent */\n      0x00\n        /* \"submissions/Zora/GoldVault.sol\":1636:1646  msg.sender */\n      caller\n        /* \"submissions/Zora/GoldVault.sol\":1636:1651  msg.sender.call */\n      0xffffffffffffffffffffffffffffffffffffffff\n      and\n        /* \"submissions/Zora/GoldVault.sol\":1659:1665  amount */\n      dup3\n        /* \"submissions/Zora/GoldVault.sol\":1636:1670  msg.sender.call{value: amount}(\"\") */\n      mload(0x40)\n      tag_40\n      swap1\n      tag_26\n      jump\t// in\n    tag_40:\n      0x00\n      mload(0x40)\n      dup1\n      dup4\n      sub\n      dup2\n      dup6\n      dup8\n      gas\n      call\n      swap3\n      pop\n      pop\n      pop\n      returndatasize\n      dup1\n      0x00\n      dup2\n      eq\n      tag_43\n      jumpi\n      mload(0x40)\n      swap2\n      pop\n      and(add(returndatasize, 0x3f), not(0x1f))\n      dup3\n      add\n      0x40\n      mstore\n      returndatasize\n      dup3\n      mstore\n      returndatasize\n      0x00\n      0x20\n      dup5\n      add\n      returndatacopy\n      jump(tag_42)\n    tag_43:\n      0x60\n      swap2\n      pop\n    tag_42:\n      pop\n        /* \"submissions/Zora/GoldVault.sol\":1620:1670  (bool sent, ) = msg.sender.call{value: amount}(\"\") */\n      pop\n      swap1\n      pop\n        /* \"submissions/Zora/GoldVault.sol\":1689:1693  sent */\n      dup1\n        /* \"submissions/Zora/GoldVault.sol\":1681:1717  require(sent, \"ETH transfer failed\") */\n      tag_44\n      jumpi\n      mload(0x40)\n      0x08c379a000000000000000000000000000000000000000000000000000000000\n      dup2\n      mstore\n      0x04\n      add\n      tag_45\n      swap1\n      tag_32\n      jump\t// in\n    tag_45:\n      mload(0x40)\n      dup1\n      swap2\n      sub\n      swap1\n      revert\n    tag_44:\n        /* \"submissions/Zora/GoldVault.sol\":1464:1725  {... */\n      pop\n      pop\n        /* \"submissions/Zora/GoldVault.sol\":314:315  1 */\n      0x01\n        /* \"submissions/Zora/GoldVault.sol\":641:648  _status */\n      dup1\n        /* \"submissions/Zora/GoldVault.sol\":641:663  _status = _NOT_ENTERED */\n      dup2\n      swap1\n      sstore\n      pop\n        /* \"submissions/Zora/GoldVault.sol\":1418:1725  function safeWithdraw() external nonReentrant {... */\n      jump\t// out\n        /* \"submissions/Zora/GoldVault.sol\":718:873  function deposit() external payable {... */\n    tag_20:\n        /* \"submissions/Zora/GoldVault.sol\":785:786  0 */\n      0x00\n        /* \"submissions/Zora/GoldVault.sol\":773:782  msg.value */\n      callvalue\n        /* \"submissions/Zora/GoldVault.sol\":773:786  msg.value > 0 */\n      gt\n        /* \"submissions/Zora/GoldVault.sol\":765:818  require(msg.value > 0, \"Deposit must be more than 0\") */\n      tag_47\n      jumpi\n      mload(0x40)\n      0x08c379a000000000000000000000000000000000000000000000000000000000\n      dup2\n      mstore\n      0x04\n      add\n      tag_48\n      swap1\n      tag_49\n      jump\t// in\n    tag_48:\n      mload(0x40)\n      dup1\n      swap2\n      sub\n      swap1\n      revert\n    tag_47:\n        /* \"submissions/Zora/GoldVault.sol\":856:865  msg.value */\n      callvalue\n        /* \"submissions/Zora/GoldVault.sol\":829:840  goldBalance */\n      0x00\n        /* \"submissions/Zora/GoldVault.sol\":829:852  goldBalance[msg.sender] */\n      0x00\n        /* \"submissions/Zora/GoldVault.sol\":841:851  msg.sender */\n      caller\n        /* \"submissions/Zora/GoldVault.sol\":829:852  goldBalance[msg.sender] */\n      0xffffffffffffffffffffffffffffffffffffffff\n      and\n      0xffffffffffffffffffffffffffffffffffffffff\n      and\n      dup2\n      mstore\n      0x20\n      add\n      swap1\n      dup2\n      mstore\n      0x20\n      add\n      0x00\n      keccak256\n      0x00\n        /* \"submissions/Zora/GoldVault.sol\":829:865  goldBalance[msg.sender] += msg.value */\n      dup3\n      dup3\n      sload\n      tag_50\n      swap2\n      swap1\n      tag_51\n      jump\t// in\n    tag_50:\n      swap3\n      pop\n      pop\n      dup2\n      swap1\n      sstore\n      pop\n        /* \"submissions/Zora/GoldVault.sol\":718:873  function deposit() external payable {... */\n      jump\t// out\n        /* \"#utility.yul\":88:205   */\n    tag_53:\n        /* \"#utility.yul\":197:198   */\n      0x00\n        /* \"#utility.yul\":194:195   */\n      0x00\n        /* \"#utility.yul\":187:199   */\n      revert\n        /* \"#utility.yul\":334:460   */\n    tag_55:\n        /* \"#utility.yul\":371:378   */\n      0x00\n        /* \"#utility.yul\":411:453   */\n      0xffffffffffffffffffffffffffffffffffffffff\n        /* \"#utility.yul\":404:409   */\n      dup3\n        /* \"#utility.yul\":400:454   */\n      and\n        /* \"#utility.yul\":389:454   */\n      swap1\n      pop\n        /* \"#utility.yul\":334:460   */\n      swap2\n      swap1\n      pop\n      jump\t// out\n        /* \"#utility.yul\":466:562   */\n    tag_56:\n        /* \"#utility.yul\":503:510   */\n      0x00\n        /* \"#utility.yul\":532:556   */\n      tag_80\n        /* \"#utility.yul\":550:555   */\n      dup3\n        /* \"#utility.yul\":532:556   */\n      tag_55\n      jump\t// in\n    tag_80:\n        /* \"#utility.yul\":521:556   */\n      swap1\n      pop\n        /* \"#utility.yul\":466:562   */\n      swap2\n      swap1\n      pop\n      jump\t// out\n        /* \"#utility.yul\":568:690   */\n    tag_57:\n        /* \"#utility.yul\":641:665   */\n      tag_82\n        /* \"#utility.yul\":659:664   */\n      dup2\n        /* \"#utility.yul\":641:665   */\n      tag_56\n      jump\t// in\n    tag_82:\n        /* \"#utility.yul\":634:639   */\n      dup2\n        /* \"#utility.yul\":631:666   */\n      eq\n        /* \"#utility.yul\":621:684   */\n      tag_83\n      jumpi\n        /* \"#utility.yul\":680:681   */\n      0x00\n        /* \"#utility.yul\":677:678   */\n      0x00\n        /* \"#utility.yul\":670:682   */\n      revert\n        /* \"#utility.yul\":621:684   */\n    tag_83:\n        /* \"#utility.yul\":568:690   */\n      pop\n      jump\t// out\n        /* \"#utility.yul\":696:835   */\n    tag_58:\n        /* \"#utility.yul\":742:747   */\n      0x00\n        /* \"#utility.yul\":780:786   */\n      dup2\n        /* \"#utility.yul\":767:787   */\n      calldataload\n        /* \"#utility.yul\":758:787   */\n      swap1\n      pop\n        /* \"#utility.yul\":796:829   */\n      tag_85\n        /* \"#utility.yul\":823:828   */\n      dup2\n        /* \"#utility.yul\":796:829   */\n      tag_57\n      jump\t// in\n    tag_85:\n        /* \"#utility.yul\":696:835   */\n      swap3\n      swap2\n      pop\n      pop\n      jump\t// out\n        /* \"#utility.yul\":841:1170   */\n    tag_9:\n        /* \"#utility.yul\":900:906   */\n      0x00\n        /* \"#utility.yul\":949:951   */\n      0x20\n        /* \"#utility.yul\":937:946   */\n      dup3\n        /* \"#utility.yul\":928:935   */\n      dup5\n        /* \"#utility.yul\":924:947   */\n      sub\n        /* \"#utility.yul\":920:952   */\n      slt\n        /* \"#utility.yul\":917:1036   */\n      iszero\n      tag_87\n      jumpi\n        /* \"#utility.yul\":955:1034   */\n      tag_88\n      tag_53\n      jump\t// in\n    tag_88:\n        /* \"#utility.yul\":917:1036   */\n    tag_87:\n        /* \"#utility.yul\":1075:1076   */\n      0x00\n        /* \"#utility.yul\":1100:1153   */\n      tag_89\n        /* \"#utility.yul\":1145:1152   */\n      dup5\n        /* \"#utility.yul\":1136:1142   */\n      dup3\n        /* \"#utility.yul\":1125:1134   */\n      dup6\n        /* \"#utility.yul\":1121:1143   */\n      add\n        /* \"#utility.yul\":1100:1153   */\n      tag_58\n      jump\t// in\n    tag_89:\n        /* \"#utility.yul\":1090:1153   */\n      swap2\n      pop\n        /* \"#utility.yul\":1046:1163   */\n      pop\n        /* \"#utility.yul\":841:1170   */\n      swap3\n      swap2\n      pop\n      pop\n      jump\t// out\n        /* \"#utility.yul\":1176:1253   */\n    tag_59:\n        /* \"#utility.yul\":1213:1220   */\n      0x00\n        /* \"#utility.yul\":1242:1247   */\n      dup2\n        /* \"#utility.yul\":1231:1247   */\n      swap1\n      pop\n        /* \"#utility.yul\":1176:1253   */\n      swap2\n      swap1\n      pop\n      jump\t// out\n        /* \"#utility.yul\":1259:1377   */\n    tag_60:\n        /* \"#utility.yul\":1346:1370   */\n      tag_92\n        /* \"#utility.yul\":1364:1369   */\n      dup2\n        /* \"#utility.yul\":1346:1370   */\n      tag_59\n      jump\t// in\n    tag_92:\n        /* \"#utility.yul\":1341:1344   */\n      dup3\n        /* \"#utility.yul\":1334:1371   */\n      mstore\n        /* \"#utility.yul\":1259:1377   */\n      pop\n      pop\n      jump\t// out\n        /* \"#utility.yul\":1383:1605   */\n    tag_12:\n        /* \"#utility.yul\":1476:1480   */\n      0x00\n        /* \"#utility.yul\":1514:1516   */\n      0x20\n        /* \"#utility.yul\":1503:1512   */\n      dup3\n        /* \"#utility.yul\":1499:1517   */\n      add\n        /* \"#utility.yul\":1491:1517   */\n      swap1\n      pop\n        /* \"#utility.yul\":1527:1598   */\n      tag_94\n        /* \"#utility.yul\":1595:1596   */\n      0x00\n        /* \"#utility.yul\":1584:1593   */\n      dup4\n        /* \"#utility.yul\":1580:1597   */\n      add\n        /* \"#utility.yul\":1571:1577   */\n      dup5\n        /* \"#utility.yul\":1527:1598   */\n      tag_60\n      jump\t// in\n    tag_94:\n        /* \"#utility.yul\":1383:1605   */\n      swap3\n      swap2\n      pop\n      pop\n      jump\t// out\n        /* \"#utility.yul\":1611:1780   */\n    tag_61:\n        /* \"#utility.yul\":1695:1706   */\n      0x00\n        /* \"#utility.yul\":1729:1735   */\n      dup3\n        /* \"#utility.yul\":1724:1727   */\n      dup3\n        /* \"#utility.yul\":1717:1736   */\n      mstore\n        /* \"#utility.yul\":1769:1773   */\n      0x20\n        /* \"#utility.yul\":1764:1767   */\n      dup3\n        /* \"#utility.yul\":1760:1774   */\n      add\n        /* \"#utility.yul\":1745:1774   */\n      swap1\n      pop\n        /* \"#utility.yul\":1611:1780   */\n      swap3\n      swap2\n      pop\n      pop\n      jump\t// out\n        /* \"#utility.yul\":1786:1955   */\n    tag_62:\n        /* \"#utility.yul\":1926:1947   */\n      0x4e6f7468696e6720746f20776974686472617700000000000000000000000000\n        /* \"#utility.yul\":1922:1923   */\n      0x00\n        /* \"#utility.yul\":1914:1920   */\n      dup3\n        /* \"#utility.yul\":1910:1924   */\n      add\n        /* \"#utility.yul\":1903:1948   */\n      mstore\n        /* \"#utility.yul\":1786:1955   */\n      pop\n      jump\t// out\n        /* \"#utility.yul\":1961:2327   */\n    tag_63:\n        /* \"#utility.yul\":2103:2106   */\n      0x00\n        /* \"#utility.yul\":2124:2191   */\n      tag_98\n        /* \"#utility.yul\":2188:2190   */\n      0x13\n        /* \"#utility.yul\":2183:2186   */\n      dup4\n        /* \"#utility.yul\":2124:2191   */\n      tag_61\n      jump\t// in\n    tag_98:\n        /* \"#utility.yul\":2117:2191   */\n      swap2\n      pop\n        /* \"#utility.yul\":2200:2293   */\n      tag_99\n        /* \"#utility.yul\":2289:2292   */\n      dup3\n        /* \"#utility.yul\":2200:2293   */\n      tag_62\n      jump\t// in\n    tag_99:\n        /* \"#utility.yul\":2318:2320   */\n      0x20\n        /* \"#utility.yul\":2313:2316   */\n      dup3\n        /* \"#utility.yul\":2309:2321   */\n      add\n        /* \"#utility.yul\":2302:2321   */\n      swap1\n      pop\n        /* \"#utility.yul\":1961:2327   */\n      swap2\n      swap1\n      pop\n      jump\t// out\n        /* \"#utility.yul\":2333:2752   */\n    tag_24:\n        /* \"#utility.yul\":2499:2503   */\n      0x00\n        /* \"#utility.yul\":2537:2539   */\n      0x20\n        /* \"#utility.yul\":2526:2535   */\n      dup3\n        /* \"#utility.yul\":2522:2540   */\n      add\n        /* \"#utility.yul\":2514:2540   */\n      swap1\n      pop\n        /* \"#utility.yul\":2586:2595   */\n      dup2\n        /* \"#utility.yul\":2580:2584   */\n      dup2\n        /* \"#utility.yul\":2576:2596   */\n      sub\n        /* \"#utility.yul\":2572:2573   */\n      0x00\n        /* \"#utility.yul\":2561:2570   */\n      dup4\n        /* \"#utility.yul\":2557:2574   */\n      add\n        /* \"#utility.yul\":2550:2597   */\n      mstore\n        /* \"#utility.yul\":2614:2745   */\n      tag_101\n        /* \"#utility.yul\":2740:2744   */\n      dup2\n        /* \"#utility.yul\":2614:2745   */\n      tag_63\n      jump\t// in\n    tag_101:\n        /* \"#utility.yul\":2606:2745   */\n      swap1\n      pop\n        /* \"#utility.yul\":2333:2752   */\n      swap2\n      swap1\n      pop\n      jump\t// out\n        /* \"#utility.yul\":2758:2905   */\n    tag_64:\n        /* \"#utility.yul\":2859:2870   */\n      0x00\n        /* \"#utility.yul\":2896:2899   */\n      dup2\n        /* \"#utility.yul\":2881:2899   */\n      swap1\n      pop\n        /* \"#utility.yul\":2758:2905   */\n      swap3\n      swap2\n      pop\n      pop\n      jump\t// out\n        /* \"#utility.yul\":2911:3025   */\n    tag_65:\n      pop\n      jump\t// out\n        /* \"#utility.yul\":3031:3429   */\n    tag_66:\n        /* \"#utility.yul\":3190:3193   */\n      0x00\n        /* \"#utility.yul\":3211:3294   */\n      tag_105\n        /* \"#utility.yul\":3292:3293   */\n      0x00\n        /* \"#utility.yul\":3287:3290   */\n      dup4\n        /* \"#utility.yul\":3211:3294   */\n      tag_64\n      jump\t// in\n    tag_105:\n        /* \"#utility.yul\":3204:3294   */\n      swap2\n      pop\n        /* \"#utility.yul\":3303:3396   */\n      tag_106\n        /* \"#utility.yul\":3392:3395   */\n      dup3\n        /* \"#utility.yul\":3303:3396   */\n      tag_65\n      jump\t// in\n    tag_106:\n        /* \"#utility.yul\":3421:3422   */\n      0x00\n        /* \"#utility.yul\":3416:3419   */\n      dup3\n        /* \"#utility.yul\":3412:3423   */\n      add\n        /* \"#utility.yul\":3405:3423   */\n      swap1\n      pop\n        /* \"#utility.yul\":3031:3429   */\n      swap2\n      swap1\n      pop\n      jump\t// out\n        /* \"#utility.yul\":3435:3814   */\n    tag_26:\n        /* \"#utility.yul\":3619:3622   */\n      0x00\n        /* \"#utility.yul\":3641:3788   */\n      tag_108\n        /* \"#utility.yul\":3784:3787   */\n      dup3\n        /* \"#utility.yul\":3641:3788   */\n      tag_66\n      jump\t// in\n    tag_108:\n        /* \"#utility.yul\":3634:3788   */\n      swap2\n      pop\n        /* \"#utility.yul\":3805:3808   */\n      dup2\n        /* \"#utility.yul\":3798:3808   */\n      swap1\n      pop\n        /* \"#utility.yul\":3435:3814   */\n      swap2\n      swap1\n      pop\n      jump\t// out\n        /* \"#utility.yul\":3820:3989   */\n    tag_67:\n        /* \"#utility.yul\":3960:3981   */\n      0x455448207472616e73666572206661696c656400000000000000000000000000\n        /* \"#utility.yul\":3956:3957   */\n      0x00\n        /* \"#utility.yul\":3948:3954   */\n      dup3\n        /* \"#utility.yul\":3944:3958   */\n      add\n        /* \"#utility.yul\":3937:3982   */\n      mstore\n        /* \"#utility.yul\":3820:3989   */\n      pop\n      jump\t// out\n        /* \"#utility.yul\":3995:4361   */\n    tag_68:\n        /* \"#utility.yul\":4137:4140   */\n      0x00\n        /* \"#utility.yul\":4158:4225   */\n      tag_111\n        /* \"#utility.yul\":4222:4224   */\n      0x13\n        /* \"#utility.yul\":4217:4220   */\n      dup4\n        /* \"#utility.yul\":4158:4225   */\n      tag_61\n      jump\t// in\n    tag_111:\n        /* \"#utility.yul\":4151:4225   */\n      swap2\n      pop\n        /* \"#utility.yul\":4234:4327   */\n      tag_112\n        /* \"#utility.yul\":4323:4326   */\n      dup3\n        /* \"#utility.yul\":4234:4327   */\n      tag_67\n      jump\t// in\n    tag_112:\n        /* \"#utility.yul\":4352:4354   */\n      0x20\n        /* \"#utility.yul\":4347:4350   */\n      dup3\n        /* \"#utility.yul\":4343:4355   */\n      add\n        /* \"#utility.yul\":4336:4355   */\n      swap1\n      pop\n        /* \"#utility.yul\":3995:4361   */\n      swap2\n      swap1\n      pop\n      jump\t// out\n        /* \"#utility.yul\":4367:4786   */\n    tag_32:\n        /* \"#utility.yul\":4533:4537   */\n      0x00\n        /* \"#utility.yul\":4571:4573   */\n      0x20\n        /* \"#utility.yul\":4560:4569   */\n      dup3\n        /* \"#utility.yul\":4556:4574   */\n      add\n        /* \"#utility.yul\":4548:4574   */\n      swap1\n      pop\n        /* \"#utility.yul\":4620:4629   */\n      dup2\n        /* \"#utility.yul\":4614:4618   */\n      dup2\n        /* \"#utility.yul\":4610:4630   */\n      sub\n        /* \"#utility.yul\":4606:4607   */\n      0x00\n        /* \"#utility.yul\":4595:4604   */\n      dup4\n        /* \"#utility.yul\":4591:4608   */\n      add\n        /* \"#utility.yul\":4584:4631   */\n      mstore\n        /* \"#utility.yul\":4648:4779   */\n      tag_114\n        /* \"#utility.yul\":4774:4778   */\n      dup2\n        /* \"#utility.yul\":4648:4779   */\n      tag_68\n      jump\t// in\n    tag_114:\n        /* \"#utility.yul\":4640:4779   */\n      swap1\n      pop\n        /* \"#utility.yul\":4367:4786   */\n      swap2\n      swap1\n      pop\n      jump\t// out\n        /* \"#utility.yul\":4792:4964   */\n    tag_69:\n        /* \"#utility.yul\":4932:4956   */\n      0x5265656e7472616e742063616c6c20626c6f636b656400000000000000000000\n        /* \"#utility.yul\":4928:4929   */\n      0x00\n        /* \"#utility.yul\":4920:4926   */\n      dup3\n        /* \"#utility.yul\":4916:4930   */\n      add\n        /* \"#utility.yul\":4909:4957   */\n      mstore\n        /* \"#utility.yul\":4792:4964   */\n      pop\n      jump\t// out\n        /* \"#utility.yul\":4970:5336   */\n    tag_70:\n        /* \"#utility.yul\":5112:5115   */\n      0x00\n        /* \"#utility.yul\":5133:5200   */\n      tag_117\n        /* \"#utility.yul\":5197:5199   */\n      0x16\n        /* \"#utility.yul\":5192:5195   */\n      dup4\n        /* \"#utility.yul\":5133:5200   */\n      tag_61\n      jump\t// in\n    tag_117:\n        /* \"#utility.yul\":5126:5200   */\n      swap2\n      pop\n        /* \"#utility.yul\":5209:5302   */\n      tag_118\n        /* \"#utility.yul\":5298:5301   */\n      dup3\n        /* \"#utility.yul\":5209:5302   */\n      tag_69\n      jump\t// in\n    tag_118:\n        /* \"#utility.yul\":5327:5329   */\n      0x20\n        /* \"#utility.yul\":5322:5325   */\n      dup3\n        /* \"#utility.yul\":5318:5330   */\n      add\n        /* \"#utility.yul\":5311:5330   */\n      swap1\n      pop\n        /* \"#utility.yul\":4970:5336   */\n      swap2\n      swap1\n      pop\n      jump\t// out\n        /* \"#utility.yul\":5342:5761   */\n    tag_36:\n        /* \"#utility.yul\":5508:5512   */\n      0x00\n        /* \"#utility.yul\":5546:5548   */\n      0x20\n        /* \"#utility.yul\":5535:5544   */\n      dup3\n        /* \"#utility.yul\":5531:5549   */\n      add\n        /* \"#utility.yul\":5523:5549   */\n      swap1\n      pop\n        /* \"#utility.yul\":5595:5604   */\n      dup2\n        /* \"#utility.yul\":5589:5593   */\n      dup2\n        /* \"#utility.yul\":5585:5605   */\n      sub\n        /* \"#utility.yul\":5581:5582   */\n      0x00\n        /* \"#utility.yul\":5570:5579   */\n      dup4\n        /* \"#utility.yul\":5566:5583   */\n      add\n        /* \"#utility.yul\":5559:5606   */\n      mstore\n        /* \"#utility.yul\":5623:5754   */\n      tag_120\n        /* \"#utility.yul\":5749:5753   */\n      dup2\n        /* \"#utility.yul\":5623:5754   */\n      tag_70\n      jump\t// in\n    tag_120:\n        /* \"#utility.yul\":5615:5754   */\n      swap1\n      pop\n        /* \"#utility.yul\":5342:5761   */\n      swap2\n      swap1\n      pop\n      jump\t// out\n        /* \"#utility.yul\":5767:5944   */\n    tag_71:\n        /* \"#utility.yul\":5907:5936   */\n      0x4465706f736974206d757374206265206d6f7265207468616e20300000000000\n        /* \"#utility.yul\":5903:5904   */\n      0x00\n        /* \"#utility.yul\":5895:5901   */\n      dup3\n        /* \"#utility.yul\":5891:5905   */\n      add\n        /* \"#utility.yul\":5884:5937   */\n      mstore\n        /* \"#utility.yul\":5767:5944   */\n      pop\n      jump\t// out\n        /* \"#utility.yul\":5950:6316   */\n    tag_72:\n        /* \"#utility.yul\":6092:6095   */\n      0x00\n        /* \"#utility.yul\":6113:6180   */\n      tag_123\n        /* \"#utility.yul\":6177:6179   */\n      0x1b\n        /* \"#utility.yul\":6172:6175   */\n      dup4\n        /* \"#utility.yul\":6113:6180   */\n      tag_61\n      jump\t// in\n    tag_123:\n        /* \"#utility.yul\":6106:6180   */\n      swap2\n      pop\n        /* \"#utility.yul\":6189:6282   */\n      tag_124\n        /* \"#utility.yul\":6278:6281   */\n      dup3\n        /* \"#utility.yul\":6189:6282   */\n      tag_71\n      jump\t// in\n    tag_124:\n        /* \"#utility.yul\":6307:6309   */\n      0x20\n        /* \"#utility.yul\":6302:6305   */\n      dup3\n        /* \"#utility.yul\":6298:6310   */\n      add\n        /* \"#utility.yul\":6291:6310   */\n      swap1\n      pop\n        /* \"#utility.yul\":5950:6316   */\n      swap2\n      swap1\n      pop\n      jump\t// out\n        /* \"#utility.yul\":6322:6741   */\n    tag_49:\n        /* \"#utility.yul\":6488:6492   */\n      0x00\n        /* \"#utility.yul\":6526:6528   */\n      0x20\n        /* \"#utility.yul\":6515:6524   */\n      dup3\n        /* \"#utility.yul\":6511:6529   */\n      add\n        /* \"#utility.yul\":6503:6529   */\n      swap1\n      pop\n        /* \"#utility.yul\":6575:6584   */\n      dup2\n        /* \"#utility.yul\":6569:6573   */\n      dup2\n        /* \"#utility.yul\":6565:6585   */\n      sub\n        /* \"#utility.yul\":6561:6562   */\n      0x00\n        /* \"#utility.yul\":6550:6559   */\n      dup4\n        /* \"#utility.yul\":6546:6563   */\n      add\n        /* \"#utility.yul\":6539:6586   */\n      mstore\n        /* \"#utility.yul\":6603:6734   */\n      tag_126\n        /* \"#utility.yul\":6729:6733   */\n      dup2\n        /* \"#utility.yul\":6603:6734   */\n      tag_72\n      jump\t// in\n    tag_126:\n        /* \"#utility.yul\":6595:6734   */\n      swap1\n      pop\n        /* \"#utility.yul\":6322:6741   */\n      swap2\n      swap1\n      pop\n      jump\t// out\n        /* \"#utility.yul\":6747:6927   */\n    tag_73:\n        /* \"#utility.yul\":6795:6872   */\n      0x4e487b7100000000000000000000000000000000000000000000000000000000\n        /* \"#utility.yul\":6792:6793   */\n      0x00\n        /* \"#utility.yul\":6785:6873   */\n      mstore\n        /* \"#utility.yul\":6892:6896   */\n      0x11\n        /* \"#utility.yul\":6889:6890   */\n      0x04\n        /* \"#utility.yul\":6882:6897   */\n      mstore\n        /* \"#utility.yul\":6916:6920   */\n      0x24\n        /* \"#utility.yul\":6913:6914   */\n      0x00\n        /* \"#utility.yul\":6906:6921   */\n      revert\n        /* \"#utility.yul\":6933:7124   */\n    tag_51:\n        /* \"#utility.yul\":6973:6976   */\n      0x00\n        /* \"#utility.yul\":6992:7012   */\n      tag_129\n        /* \"#utility.yul\":7010:7011   */\n      dup3\n        /* \"#utility.yul\":6992:7012   */\n      tag_59\n      jump\t// in\n    tag_129:\n        /* \"#utility.yul\":6987:7012   */\n      swap2\n      pop\n        /* \"#utility.yul\":7026:7046   */\n      tag_130\n        /* \"#utility.yul\":7044:7045   */\n      dup4\n        /* \"#utility.yul\":7026:7046   */\n      tag_59\n      jump\t// in\n    tag_130:\n        /* \"#utility.yul\":7021:7046   */\n      swap3\n      pop\n        /* \"#utility.yul\":7069:7070   */\n      dup3\n        /* \"#utility.yul\":7066:7067   */\n      dup3\n        /* \"#utility.yul\":7062:7071   */\n      add\n        /* \"#utility.yul\":7055:7071   */\n      swap1\n      pop\n        /* \"#utility.yul\":7090:7093   */\n      dup1\n        /* \"#utility.yul\":7087:7088   */\n      dup3\n        /* \"#utility.yul\":7084:7094   */\n      gt\n        /* \"#utility.yul\":7081:7117   */\n      iszero\n      tag_131\n      jumpi\n        /* \"#utility.yul\":7097:7115   */\n      tag_132\n      tag_73\n      jump\t// in\n    tag_132:\n        /* \"#utility.yul\":7081:7117   */\n    tag_131:\n        /* \"#utility.yul\":6933:7124   */\n      swap3\n      swap2\n      pop\n      pop\n      jump\t// out\n\n    auxdata: 0xa264697066735822122092474eef7b9f8f09d91ece7e1098d9ff5de1234e1d8705f218b682a5b2d3fba264736f6c634300081e0033\n}\n",
				"bytecode": {
					"linkReferences": {},
					"object": "6080604052348015600e575f5ffd5b50600180819055506107d1806100235f395ff3fe60806040526004361061003e575f3560e01c80636d02423f14610042578063710957cc1461007e5780637fd4261714610094578063d0e30db0146100aa575b5f5ffd5b34801561004d575f5ffd5b50610068600480360381019061006391906104ee565b6100b4565b6040516100759190610531565b60405180910390f35b348015610089575f5ffd5b506100926100c8565b005b34801561009f575f5ffd5b506100a8610237565b005b6100b26103fa565b005b5f602052805f5260405f205f915090505481565b5f5f5f3373ffffffffffffffffffffffffffffffffffffffff1673ffffffffffffffffffffffffffffffffffffffff1681526020019081526020015f205490505f811161014a576040517f08c379a0000000000000000000000000000000000000000000000000000000008152600401610141906105a4565b60405180910390fd5b5f3373ffffffffffffffffffffffffffffffffffffffff168260405161016f906105ef565b5f6040518083038185875af1925050503d805f81146101a9576040519150601f19603f3d011682016040523d82523d5f602084013e6101ae565b606091505b50509050806101f2576040517f08c379a00000000000000000000000000000000000000000000000000000000081526004016101e99061064d565b60405180910390fd5b5f5f5f3373ffffffffffffffffffffffffffffffffffffffff1673ffffffffffffffffffffffffffffffffffffffff1681526020019081526020015f20819055505050565b60026001540361027c576040517f08c379a0000000000000000000000000000000000000000000000000000000008152600401610273906106b5565b60405180910390fd5b60026001819055505f5f5f3373ffffffffffffffffffffffffffffffffffffffff1673ffffffffffffffffffffffffffffffffffffffff1681526020019081526020015f205490505f8111610306576040517f08c379a00000000000000000000000000000000000000000000000000000000081526004016102fd906105a4565b60405180910390fd5b5f5f5f3373ffffffffffffffffffffffffffffffffffffffff1673ffffffffffffffffffffffffffffffffffffffff1681526020019081526020015f20819055505f3373ffffffffffffffffffffffffffffffffffffffff168260405161036c906105ef565b5f6040518083038185875af1925050503d805f81146103a6576040519150601f19603f3d011682016040523d82523d5f602084013e6103ab565b606091505b50509050806103ef576040517f08c379a00000000000000000000000000000000000000000000000000000000081526004016103e69061064d565b60405180910390fd5b505060018081905550565b5f341161043c576040517f08c379a00000000000000000000000000000000000000000000000000000000081526004016104339061071d565b60405180910390fd5b345f5f3373ffffffffffffffffffffffffffffffffffffffff1673ffffffffffffffffffffffffffffffffffffffff1681526020019081526020015f205f8282546104879190610768565b92505081905550565b5f5ffd5b5f73ffffffffffffffffffffffffffffffffffffffff82169050919050565b5f6104bd82610494565b9050919050565b6104cd816104b3565b81146104d7575f5ffd5b50565b5f813590506104e8816104c4565b92915050565b5f6020828403121561050357610502610490565b5b5f610510848285016104da565b91505092915050565b5f819050919050565b61052b81610519565b82525050565b5f6020820190506105445f830184610522565b92915050565b5f82825260208201905092915050565b7f4e6f7468696e6720746f207769746864726177000000000000000000000000005f82015250565b5f61058e60138361054a565b91506105998261055a565b602082019050919050565b5f6020820190508181035f8301526105bb81610582565b9050919050565b5f81905092915050565b50565b5f6105da5f836105c2565b91506105e5826105cc565b5f82019050919050565b5f6105f9826105cf565b9150819050919050565b7f455448207472616e73666572206661696c6564000000000000000000000000005f82015250565b5f61063760138361054a565b915061064282610603565b602082019050919050565b5f6020820190508181035f8301526106648161062b565b9050919050565b7f5265656e7472616e742063616c6c20626c6f636b6564000000000000000000005f82015250565b5f61069f60168361054a565b91506106aa8261066b565b602082019050919050565b5f6020820190508181035f8301526106cc81610693565b9050919050565b7f4465706f736974206d757374206265206d6f7265207468616e203000000000005f82015250565b5f610707601b8361054a565b9150610712826106d3565b602082019050919050565b5f6020820190508181035f830152610734816106fb565b9050919050565b7f4e487b71000000000000000000000000000000000000000000000000000000005f52601160045260245ffd5b5f61077282610519565b915061077d83610519565b92508282019050808211156107955761079461073b565b5b9291505056fea264697066735822122092474eef7b9f8f09d91ece7e1098d9ff5de1234e1d8705f218b682a5b2d3fba264736f6c634300081e0033",
					"opcodes": "PUSH1 0x80 PUSH1 0x40 MSTORE CALLVALUE DUP1 ISZERO PUSH1 0xE JUMPI PUSH0 PUSH0 REVERT JUMPDEST POP PUSH1 0x1 DUP1 DUP2 SWAP1 SSTORE POP PUSH2 0x7D1 DUP1 PUSH2 0x23 PUSH0 CODECOPY PUSH0 RETURN INVALID PUSH1 0x80 PUSH1 0x40 MSTORE PUSH1 0x4 CALLDATASIZE LT PUSH2 0x3E JUMPI PUSH0 CALLDATALOAD PUSH1 0xE0 SHR DUP1 PUSH4 0x6D02423F EQ PUSH2 0x42 JUMPI DUP1 PUSH4 0x710957CC EQ PUSH2 0x7E JUMPI DUP1 PUSH4 0x7FD42617 EQ PUSH2 0x94 JUMPI DUP1 PUSH4 0xD0E30DB0 EQ PUSH2 0xAA JUMPI JUMPDEST PUSH0 PUSH0 REVERT JUMPDEST CALLVALUE DUP1 ISZERO PUSH2 0x4D JUMPI PUSH0 PUSH0 REVERT JUMPDEST POP PUSH2 0x68 PUSH1 0x4 DUP1 CALLDATASIZE SUB DUP2 ADD SWAP1 PUSH2 0x63 SWAP2 SWAP1 PUSH2 0x4EE JUMP JUMPDEST PUSH2 0xB4 JUMP JUMPDEST PUSH1 0x40 MLOAD PUSH2 0x75 SWAP2 SWAP1 PUSH2 0x531 JUMP JUMPDEST PUSH1 0x40 MLOAD DUP1 SWAP2 SUB SWAP1 RETURN JUMPDEST CALLVALUE DUP1 ISZERO PUSH2 0x89 JUMPI PUSH0 PUSH0 REVERT JUMPDEST POP PUSH2 0x92 PUSH2 0xC8 JUMP JUMPDEST STOP JUMPDEST CALLVALUE DUP1 ISZERO PUSH2 0x9F JUMPI PUSH0 PUSH0 REVERT JUMPDEST POP PUSH2 0xA8 PUSH2 0x237 JUMP JUMPDEST STOP JUMPDEST PUSH2 0xB2 PUSH2 0x3FA JUMP JUMPDEST STOP JUMPDEST PUSH0 PUSH1 0x20 MSTORE DUP1 PUSH0 MSTORE PUSH1 0x40 PUSH0 KECCAK256 PUSH0 SWAP2 POP SWAP1 POP SLOAD DUP2 JUMP JUMPDEST PUSH0 PUSH0 PUSH0 CALLER PUSH20 0xFFFFFFFFFFFFFFFFFFFFFFFFFFFFFFFFFFFFFFFF AND PUSH20 0xFFFFFFFFFFFFFFFFFFFFFFFFFFFFFFFFFFFFFFFF AND DUP2 MSTORE PUSH1 0x20 ADD SWAP1 DUP2 MSTORE PUSH1 0x20 ADD PUSH0 KECCAK256 SLOAD SWAP1 POP PUSH0 DUP2 GT PUSH2 0x14A JUMPI PUSH1 0x40 MLOAD PUSH32 0x8C379A000000000000000000000000000000000000000000000000000000000 DUP2 MSTORE PUSH1 0x4 ADD PUSH2 0x141 SWAP1 PUSH2 0x5A4 JUMP JUMPDEST PUSH1 0x40 MLOAD DUP1 SWAP2 SUB SWAP1 REVERT JUMPDEST PUSH0 CALLER PUSH20 0xFFFFFFFFFFFFFFFFFFFFFFFFFFFFFFFFFFFFFFFF AND DUP3 PUSH1 0x40 MLOAD PUSH2 0x16F SWAP1 PUSH2 0x5EF JUMP JUMPDEST PUSH0 PUSH1 0x40 MLOAD DUP1 DUP4 SUB DUP2 DUP6 DUP8 GAS CALL SWAP3 POP POP POP RETURNDATASIZE DUP1 PUSH0 DUP2 EQ PUSH2 0x1A9 JUMPI PUSH1 0x40 MLOAD SWAP2 POP PUSH1 0x1F NOT PUSH1 0x3F RETURNDATASIZE ADD AND DUP3 ADD PUSH1 0x40 MSTORE RETURNDATASIZE DUP3 MSTORE RETURNDATASIZE PUSH0 PUSH1 0x20 DUP5 ADD RETURNDATACOPY PUSH2 0x1AE JUMP JUMPDEST PUSH1 0x60 SWAP2 POP JUMPDEST POP POP SWAP1 POP DUP1 PUSH2 0x1F2 JUMPI PUSH1 0x40 MLOAD PUSH32 0x8C379A000000000000000000000000000000000000000000000000000000000 DUP2 MSTORE PUSH1 0x4 ADD PUSH2 0x1E9 SWAP1 PUSH2 0x64D JUMP JUMPDEST PUSH1 0x40 MLOAD DUP1 SWAP2 SUB SWAP1 REVERT JUMPDEST PUSH0 PUSH0 PUSH0 CALLER PUSH20 0xFFFFFFFFFFFFFFFFFFFFFFFFFFFFFFFFFFFFFFFF AND PUSH20 0xFFFFFFFFFFFFFFFFFFFFFFFFFFFFFFFFFFFFFFFF AND DUP2 MSTORE PUSH1 0x20 ADD SWAP1 DUP2 MSTORE PUSH1 0x20 ADD PUSH0 KECCAK256 DUP2 SWAP1 SSTORE POP POP POP JUMP JUMPDEST PUSH1 0x2 PUSH1 0x1 SLOAD SUB PUSH2 0x27C JUMPI PUSH1 0x40 MLOAD PUSH32 0x8C379A000000000000000000000000000000000000000000000000000000000 DUP2 MSTORE PUSH1 0x4 ADD PUSH2 0x273 SWAP1 PUSH2 0x6B5 JUMP JUMPDEST PUSH1 0x40 MLOAD DUP1 SWAP2 SUB SWAP1 REVERT JUMPDEST PUSH1 0x2 PUSH1 0x1 DUP2 SWAP1 SSTORE POP PUSH0 PUSH0 PUSH0 CALLER PUSH20 0xFFFFFFFFFFFFFFFFFFFFFFFFFFFFFFFFFFFFFFFF AND PUSH20 0xFFFFFFFFFFFFFFFFFFFFFFFFFFFFFFFFFFFFFFFF AND DUP2 MSTORE PUSH1 0x20 ADD SWAP1 DUP2 MSTORE PUSH1 0x20 ADD PUSH0 KECCAK256 SLOAD SWAP1 POP PUSH0 DUP2 GT PUSH2 0x306 JUMPI PUSH1 0x40 MLOAD PUSH32 0x8C379A000000000000000000000000000000000000000000000000000000000 DUP2 MSTORE PUSH1 0x4 ADD PUSH2 0x2FD SWAP1 PUSH2 0x5A4 JUMP JUMPDEST PUSH1 0x40 MLOAD DUP1 SWAP2 SUB SWAP1 REVERT JUMPDEST PUSH0 PUSH0 PUSH0 CALLER PUSH20 0xFFFFFFFFFFFFFFFFFFFFFFFFFFFFFFFFFFFFFFFF AND PUSH20 0xFFFFFFFFFFFFFFFFFFFFFFFFFFFFFFFFFFFFFFFF AND DUP2 MSTORE PUSH1 0x20 ADD SWAP1 DUP2 MSTORE PUSH1 0x20 ADD PUSH0 KECCAK256 DUP2 SWAP1 SSTORE POP PUSH0 CALLER PUSH20 0xFFFFFFFFFFFFFFFFFFFFFFFFFFFFFFFFFFFFFFFF AND DUP3 PUSH1 0x40 MLOAD PUSH2 0x36C SWAP1 PUSH2 0x5EF JUMP JUMPDEST PUSH0 PUSH1 0x40 MLOAD DUP1 DUP4 SUB DUP2 DUP6 DUP8 GAS CALL SWAP3 POP POP POP RETURNDATASIZE DUP1 PUSH0 DUP2 EQ PUSH2 0x3A6 JUMPI PUSH1 0x40 MLOAD SWAP2 POP PUSH1 0x1F NOT PUSH1 0x3F RETURNDATASIZE ADD AND DUP3 ADD PUSH1 0x40 MSTORE RETURNDATASIZE DUP3 MSTORE RETURNDATASIZE PUSH0 PUSH1 0x20 DUP5 ADD RETURNDATACOPY PUSH2 0x3AB JUMP JUMPDEST PUSH1 0x60 SWAP2 POP JUMPDEST POP POP SWAP1 POP DUP1 PUSH2 0x3EF JUMPI PUSH1 0x40 MLOAD PUSH32 0x8C379A000000000000000000000000000000000000000000000000000000000 DUP2 MSTORE PUSH1 0x4 ADD PUSH2 0x3E6 SWAP1 PUSH2 0x64D JUMP JUMPDEST PUSH1 0x40 MLOAD DUP1 SWAP2 SUB SWAP1 REVERT JUMPDEST POP POP PUSH1 0x1 DUP1 DUP2 SWAP1 SSTORE POP JUMP JUMPDEST PUSH0 CALLVALUE GT PUSH2 0x43C JUMPI PUSH1 0x40 MLOAD PUSH32 0x8C379A000000000000000000000000000000000000000000000000000000000 DUP2 MSTORE PUSH1 0x4 ADD PUSH2 0x433 SWAP1 PUSH2 0x71D JUMP JUMPDEST PUSH1 0x40 MLOAD DUP1 SWAP2 SUB SWAP1 REVERT JUMPDEST CALLVALUE PUSH0 PUSH0 CALLER PUSH20 0xFFFFFFFFFFFFFFFFFFFFFFFFFFFFFFFFFFFFFFFF AND PUSH20 0xFFFFFFFFFFFFFFFFFFFFFFFFFFFFFFFFFFFFFFFF AND DUP2 MSTORE PUSH1 0x20 ADD SWAP1 DUP2 MSTORE PUSH1 0x20 ADD PUSH0 KECCAK256 PUSH0 DUP3 DUP3 SLOAD PUSH2 0x487 SWAP2 SWAP1 PUSH2 0x768 JUMP JUMPDEST SWAP3 POP POP DUP2 SWAP1 SSTORE POP JUMP JUMPDEST PUSH0 PUSH0 REVERT JUMPDEST PUSH0 PUSH20 0xFFFFFFFFFFFFFFFFFFFFFFFFFFFFFFFFFFFFFFFF DUP3 AND SWAP1 POP SWAP2 SWAP1 POP JUMP JUMPDEST PUSH0 PUSH2 0x4BD DUP3 PUSH2 0x494 JUMP JUMPDEST SWAP1 POP SWAP2 SWAP1 POP JUMP JUMPDEST PUSH2 0x4CD DUP2 PUSH2 0x4B3 JUMP JUMPDEST DUP2 EQ PUSH2 0x4D7 JUMPI PUSH0 PUSH0 REVERT JUMPDEST POP JUMP JUMPDEST PUSH0 DUP2 CALLDATALOAD SWAP1 POP PUSH2 0x4E8 DUP2 PUSH2 0x4C4 JUMP JUMPDEST SWAP3 SWAP2 POP POP JUMP JUMPDEST PUSH0 PUSH1 0x20 DUP3 DUP5 SUB SLT ISZERO PUSH2 0x503 JUMPI PUSH2 0x502 PUSH2 0x490 JUMP JUMPDEST JUMPDEST PUSH0 PUSH2 0x510 DUP5 DUP3 DUP6 ADD PUSH2 0x4DA JUMP JUMPDEST SWAP2 POP POP SWAP3 SWAP2 POP POP JUMP JUMPDEST PUSH0 DUP2 SWAP1 POP SWAP2 SWAP1 POP JUMP JUMPDEST PUSH2 0x52B DUP2 PUSH2 0x519 JUMP JUMPDEST DUP3 MSTORE POP POP JUMP JUMPDEST PUSH0 PUSH1 0x20 DUP3 ADD SWAP1 POP PUSH2 0x544 PUSH0 DUP4 ADD DUP5 PUSH2 0x522 JUMP JUMPDEST SWAP3 SWAP2 POP POP JUMP JUMPDEST PUSH0 DUP3 DUP3 MSTORE PUSH1 0x20 DUP3 ADD SWAP1 POP SWAP3 SWAP2 POP POP JUMP JUMPDEST PUSH32 0x4E6F7468696E6720746F20776974686472617700000000000000000000000000 PUSH0 DUP3 ADD MSTORE POP JUMP JUMPDEST PUSH0 PUSH2 0x58E PUSH1 0x13 DUP4 PUSH2 0x54A JUMP JUMPDEST SWAP2 POP PUSH2 0x599 DUP3 PUSH2 0x55A JUMP JUMPDEST PUSH1 0x20 DUP3 ADD SWAP1 POP SWAP2 SWAP1 POP JUMP JUMPDEST PUSH0 PUSH1 0x20 DUP3 ADD SWAP1 POP DUP2 DUP2 SUB PUSH0 DUP4 ADD MSTORE PUSH2 0x5BB DUP2 PUSH2 0x582 JUMP JUMPDEST SWAP1 POP SWAP2 SWAP1 POP JUMP JUMPDEST PUSH0 DUP2 SWAP1 POP SWAP3 SWAP2 POP POP JUMP JUMPDEST POP JUMP JUMPDEST PUSH0 PUSH2 0x5DA PUSH0 DUP4 PUSH2 0x5C2 JUMP JUMPDEST SWAP2 POP PUSH2 0x5E5 DUP3 PUSH2 0x5CC JUMP JUMPDEST PUSH0 DUP3 ADD SWAP1 POP SWAP2 SWAP1 POP JUMP JUMPDEST PUSH0 PUSH2 0x5F9 DUP3 PUSH2 0x5CF JUMP JUMPDEST SWAP2 POP DUP2 SWAP1 POP SWAP2 SWAP1 POP JUMP JUMPDEST PUSH32 0x455448207472616E73666572206661696C656400000000000000000000000000 PUSH0 DUP3 ADD MSTORE POP JUMP JUMPDEST PUSH0 PUSH2 0x637 PUSH1 0x13 DUP4 PUSH2 0x54A JUMP JUMPDEST SWAP2 POP PUSH2 0x642 DUP3 PUSH2 0x603 JUMP JUMPDEST PUSH1 0x20 DUP3 ADD SWAP1 POP SWAP2 SWAP1 POP JUMP JUMPDEST PUSH0 PUSH1 0x20 DUP3 ADD SWAP1 POP DUP2 DUP2 SUB PUSH0 DUP4 ADD MSTORE PUSH2 0x664 DUP2 PUSH2 0x62B JUMP JUMPDEST SWAP1 POP SWAP2 SWAP1 POP JUMP JUMPDEST PUSH32 0x5265656E7472616E742063616C6C20626C6F636B656400000000000000000000 PUSH0 DUP3 ADD MSTORE POP JUMP JUMPDEST PUSH0 PUSH2 0x69F PUSH1 0x16 DUP4 PUSH2 0x54A JUMP JUMPDEST SWAP2 POP PUSH2 0x6AA DUP3 PUSH2 0x66B JUMP JUMPDEST PUSH1 0x20 DUP3 ADD SWAP1 POP SWAP2 SWAP1 POP JUMP JUMPDEST PUSH0 PUSH1 0x20 DUP3 ADD SWAP1 POP DUP2 DUP2 SUB PUSH0 DUP4 ADD MSTORE PUSH2 0x6CC DUP2 PUSH2 0x693 JUMP JUMPDEST SWAP1 POP SWAP2 SWAP1 POP JUMP JUMPDEST PUSH32 0x4465706F736974206D757374206265206D6F7265207468616E20300000000000 PUSH0 DUP3 ADD MSTORE POP JUMP JUMPDEST PUSH0 PUSH2 0x707 PUSH1 0x1B DUP4 PUSH2 0x54A JUMP JUMPDEST SWAP2 POP PUSH2 0x712 DUP3 PUSH2 0x6D3 JUMP JUMPDEST PUSH1 0x20 DUP3 ADD SWAP1 POP SWAP2 SWAP1 POP JUMP JUMPDEST PUSH0 PUSH1 0x20 DUP3 ADD SWAP1 POP DUP2 DUP2 SUB PUSH0 DUP4 ADD MSTORE PUSH2 0x734 DUP2 PUSH2 0x6FB JUMP JUMPDEST SWAP1 POP SWAP2 SWAP1 POP JUMP JUMPDEST PUSH32 0x4E487B7100000000000000000000000000000000000000000000000000000000 PUSH0 MSTORE PUSH1 0x11 PUSH1 0x4 MSTORE PUSH1 0x24 PUSH0 REVERT JUMPDEST PUSH0 PUSH2 0x772 DUP3 PUSH2 0x519 JUMP JUMPDEST SWAP2 POP PUSH2 0x77D DUP4 PUSH2 0x519 JUMP JUMPDEST SWAP3 POP DUP3 DUP3 ADD SWAP1 POP DUP1 DUP3 GT ISZERO PUSH2 0x795 JUMPI PUSH2 0x794 PUSH2 0x73B JUMP JUMPDEST JUMPDEST SWAP3 SWAP2 POP POP JUMP INVALID LOG2 PUSH5 0x6970667358 0x22 SLT KECCAK256 SWAP3 SELFBALANCE 0x4E 0xEF PUSH28 0x9F8F09D91ECE7E1098D9FF5DE1234E1D8705F218B682A5B2D3FBA264 PUSH20 0x6F6C634300081E00330000000000000000000000 "
				},
				"gasEstimates": {
					"creation": {
						"codeDepositCost": "400200",
						"executionCost": "22548",
						"totalCost": "422748"
					},
					"external": {
						"deposit()": "infinite",
						"goldBalance(address)": "2779",
						"safeWithdraw()": "infinite",
						"vulnerableWithdraw()": "infinite"
					}
				},
				"methodIdentifiers": {
					"deposit()": "d0e30db0",
					"goldBalance(address)": "6d02423f",
					"safeWithdraw()": "7fd42617",
					"vulnerableWithdraw()": "710957cc"
				}
			},
			"storageLayout": {
				"storage": [
					{
						"astId": 5,
						"contract": "submissions/Zora/GoldVault.sol:GoldVault",
						"label": "goldBalance",
						"offset": 0,
						"slot": "0",
						"type": "t_mapping(t_address,t_uint256)"
					},
					{
						"astId": 7,
						"contract": "submissions/Zora/GoldVault.sol:GoldVault",
						"label": "_status",
						"offset": 0,
						"slot": "1",
						"type": "t_uint256"
					}
				],
				"types": {
					"t_address": {
						"encoding": "inplace",
						"label": "address",
						"numberOfBytes": "20"
					},
					"t_mapping(t_address,t_uint256)": {
						"encoding": "mapping",
						"key": "t_address",
						"label": "mapping(address => uint256)",
						"numberOfBytes": "32",
						"value": "t_uint256"
					},
					"t_uint256": {
						"encoding": "inplace",
						"label": "uint256",
						"numberOfBytes": "32"
					}
				}
			},
			"userdoc": {
				"kind": "user",
				"methods": {},
				"version": 1
			}
		}
	}
}