{
	"submissions/Zora/PluginStore.sol": {
		"pluginStore": {
			"abi": [
				{
					"inputs": [
						{
							"internalType": "string",
							"name": "key",
							"type": "string"
						}
					],
					"name": "getPlugin",
					"outputs": [
						{
							"internalType": "address",
							"name": "",
							"type": "address"
						}
					],
					"stateMutability": "view",
					"type": "function"
				},
				{
					"inputs": [
						{
							"internalType": "address",
							"name": "user",
							"type": "address"
						}
					],
					"name": "getProfile",
					"outputs": [
						{
							"internalType": "string",
							"name": "",
							"type": "string"
						},
						{
							"internalType": "string",
							"name": "",
							"type": "string"
						}
					],
					"stateMutability": "view",
					"type": "function"
				},
				{
					"inputs": [
						{
							"internalType": "string",
							"name": "",
							"type": "string"
						}
					],
					"name": "plugins",
					"outputs": [
						{
							"internalType": "address",
							"name": "",
							"type": "address"
						}
					],
					"stateMutability": "view",
					"type": "function"
				},
				{
					"inputs": [
						{
							"internalType": "address",
							"name": "",
							"type": "address"
						}
					],
					"name": "profiles",
					"outputs": [
						{
							"internalType": "string",
							"name": "name",
							"type": "string"
						},
						{
							"internalType": "string",
							"name": "avatar",
							"type": "string"
						}
					],
					"stateMutability": "view",
					"type": "function"
				},
				{
					"inputs": [
						{
							"internalType": "string",
							"name": "key",
							"type": "string"
						},
						{
							"internalType": "address",
							"name": "pluginAddress",
							"type": "address"
						}
					],
					"name": "registryPlugin",
					"outputs": [],
					"stateMutability": "nonpayable",
					"type": "function"
				},
				{
					"inputs": [
						{
							"internalType": "string",
							"name": "key",
							"type": "string"
						},
						{
							"internalType": "string",
							"name": "functionSignature",
							"type": "string"
						},
						{
							"internalType": "address",
							"name": "user",
							"type": "address"
						},
						{
							"internalType": "string",
							"name": "argument",
							"type": "string"
						}
					],
					"name": "runPlugin",
					"outputs": [],
					"stateMutability": "nonpayable",
					"type": "function"
				},
				{
					"inputs": [
						{
							"internalType": "string",
							"name": "key",
							"type": "string"
						},
						{
							"internalType": "string",
							"name": "functionSignature",
							"type": "string"
						},
						{
							"internalType": "address",
							"name": "user",
							"type": "address"
						}
					],
					"name": "runPluginView",
					"outputs": [
						{
							"internalType": "string",
							"name": "",
							"type": "string"
						}
					],
					"stateMutability": "view",
					"type": "function"
				},
				{
					"inputs": [
						{
							"internalType": "string",
							"name": "_name",
							"type": "string"
						},
						{
							"internalType": "string",
							"name": "_avator",
							"type": "string"
						}
					],
					"name": "setProfile",
					"outputs": [],
					"stateMutability": "nonpayable",
					"type": "function"
				}
			],
			"devdoc": {
				"kind": "dev",
				"methods": {},
				"version": 1
			},
			"evm": {
				"assembly": "    /* \"submissions/Zora/PluginStore.sol\":60:1890  contract pluginStore {... */\n  mstore(0x40, 0x80)\n  callvalue\n  dup1\n  iszero\n  tag_1\n  jumpi\n  revert(0x00, 0x00)\ntag_1:\n  pop\n  dataSize(sub_0)\n  dup1\n  dataOffset(sub_0)\n  0x00\n  codecopy\n  0x00\n  return\nstop\n\nsub_0: assembly {\n        /* \"submissions/Zora/PluginStore.sol\":60:1890  contract pluginStore {... */\n      mstore(0x40, 0x80)\n      callvalue\n      dup1\n      iszero\n      tag_1\n      jumpi\n      revert(0x00, 0x00)\n    tag_1:\n      pop\n      jumpi(tag_2, lt(calldatasize, 0x04))\n      shr(0xe0, calldataload(0x00))\n      dup1\n      0x87859de2\n      gt\n      tag_11\n      jumpi\n      dup1\n      0x87859de2\n      eq\n      tag_7\n      jumpi\n      dup1\n      0xae9fcf2c\n      eq\n      tag_8\n      jumpi\n      dup1\n      0xbbe15627\n      eq\n      tag_9\n      jumpi\n      dup1\n      0xd5049ed6\n      eq\n      tag_10\n      jumpi\n      jump(tag_2)\n    tag_11:\n      dup1\n      0x0f53a470\n      eq\n      tag_3\n      jumpi\n      dup1\n      0x349fab3c\n      eq\n      tag_4\n      jumpi\n      dup1\n      0x719e37ae\n      eq\n      tag_5\n      jumpi\n      dup1\n      0x798b4c57\n      eq\n      tag_6\n      jumpi\n    tag_2:\n      revert(0x00, 0x00)\n        /* \"submissions/Zora/PluginStore.sol\":427:626  function getProfile(address user) external view returns (string memory, string memory) {... */\n    tag_3:\n      tag_12\n      0x04\n      dup1\n      calldatasize\n      sub\n      dup2\n      add\n      swap1\n      tag_13\n      swap2\n      swap1\n      tag_14\n      jump\t// in\n    tag_13:\n      tag_15\n      jump\t// in\n    tag_12:\n      mload(0x40)\n      tag_16\n      swap3\n      swap2\n      swap1\n      tag_17\n      jump\t// in\n    tag_16:\n      mload(0x40)\n      dup1\n      swap2\n      sub\n      swap1\n      return\n        /* \"submissions/Zora/PluginStore.sol\":764:872  function getPlugin(string memory key) external view returns (address) {... */\n    tag_4:\n      tag_18\n      0x04\n      dup1\n      calldatasize\n      sub\n      dup2\n      add\n      swap1\n      tag_19\n      swap2\n      swap1\n      tag_20\n      jump\t// in\n    tag_19:\n      tag_21\n      jump\t// in\n    tag_18:\n      mload(0x40)\n      tag_22\n      swap2\n      swap1\n      tag_23\n      jump\t// in\n    tag_22:\n      mload(0x40)\n      dup1\n      swap2\n      sub\n      swap1\n      return\n        /* \"submissions/Zora/PluginStore.sol\":276:419  function setProfile(string memory _name, string memory _avator) external{... */\n    tag_5:\n      tag_24\n      0x04\n      dup1\n      calldatasize\n      sub\n      dup2\n      add\n      swap1\n      tag_25\n      swap2\n      swap1\n      tag_26\n      jump\t// in\n    tag_25:\n      tag_27\n      jump\t// in\n    tag_24:\n      stop\n        /* \"submissions/Zora/PluginStore.sol\":226:267  mapping(string => address) public plugins */\n    tag_6:\n      tag_28\n      0x04\n      dup1\n      calldatasize\n      sub\n      dup2\n      add\n      swap1\n      tag_29\n      swap2\n      swap1\n      tag_20\n      jump\t// in\n    tag_29:\n      tag_30\n      jump\t// in\n    tag_28:\n      mload(0x40)\n      tag_31\n      swap2\n      swap1\n      tag_23\n      jump\t// in\n    tag_31:\n      mload(0x40)\n      dup1\n      swap2\n      sub\n      swap1\n      return\n        /* \"submissions/Zora/PluginStore.sol\":1357:1885  function runPluginView(... */\n    tag_7:\n      tag_32\n      0x04\n      dup1\n      calldatasize\n      sub\n      dup2\n      add\n      swap1\n      tag_33\n      swap2\n      swap1\n      tag_34\n      jump\t// in\n    tag_33:\n      tag_35\n      jump\t// in\n    tag_32:\n      mload(0x40)\n      tag_36\n      swap2\n      swap1\n      tag_37\n      jump\t// in\n    tag_36:\n      mload(0x40)\n      dup1\n      swap2\n      sub\n      swap1\n      return\n        /* \"submissions/Zora/PluginStore.sol\":880:1349  function runPlugin(... */\n    tag_8:\n      tag_38\n      0x04\n      dup1\n      calldatasize\n      sub\n      dup2\n      add\n      swap1\n      tag_39\n      swap2\n      swap1\n      tag_40\n      jump\t// in\n    tag_39:\n      tag_41\n      jump\t// in\n    tag_38:\n      stop\n        /* \"submissions/Zora/PluginStore.sol\":170:219  mapping(address => PlayerProfile) public profiles */\n    tag_9:\n      tag_42\n      0x04\n      dup1\n      calldatasize\n      sub\n      dup2\n      add\n      swap1\n      tag_43\n      swap2\n      swap1\n      tag_14\n      jump\t// in\n    tag_43:\n      tag_44\n      jump\t// in\n    tag_42:\n      mload(0x40)\n      tag_45\n      swap3\n      swap2\n      swap1\n      tag_17\n      jump\t// in\n    tag_45:\n      mload(0x40)\n      dup1\n      swap2\n      sub\n      swap1\n      return\n        /* \"submissions/Zora/PluginStore.sol\":634:756  function registryPlugin(string memory key, address pluginAddress) external {... */\n    tag_10:\n      tag_46\n      0x04\n      dup1\n      calldatasize\n      sub\n      dup2\n      add\n      swap1\n      tag_47\n      swap2\n      swap1\n      tag_48\n      jump\t// in\n    tag_47:\n      tag_49\n      jump\t// in\n    tag_46:\n      stop\n        /* \"submissions/Zora/PluginStore.sol\":427:626  function getProfile(address user) external view returns (string memory, string memory) {... */\n    tag_15:\n        /* \"submissions/Zora/PluginStore.sol\":484:497  string memory */\n      0x60\n        /* \"submissions/Zora/PluginStore.sol\":499:512  string memory */\n      dup1\n        /* \"submissions/Zora/PluginStore.sol\":525:553  PlayerProfile memory profile */\n      0x00\n        /* \"submissions/Zora/PluginStore.sol\":556:564  profiles */\n      0x00\n        /* \"submissions/Zora/PluginStore.sol\":556:570  profiles[user] */\n      0x00\n        /* \"submissions/Zora/PluginStore.sol\":565:569  user */\n      dup6\n        /* \"submissions/Zora/PluginStore.sol\":556:570  profiles[user] */\n      0xffffffffffffffffffffffffffffffffffffffff\n      and\n      0xffffffffffffffffffffffffffffffffffffffff\n      and\n      dup2\n      mstore\n      0x20\n      add\n      swap1\n      dup2\n      mstore\n      0x20\n      add\n      0x00\n      keccak256\n        /* \"submissions/Zora/PluginStore.sol\":525:570  PlayerProfile memory profile = profiles[user] */\n      mload(0x40)\n      dup1\n      0x40\n      add\n      0x40\n      mstore\n      swap1\n      dup2\n      0x00\n      dup3\n      add\n      dup1\n      sload\n      tag_51\n      swap1\n      tag_52\n      jump\t// in\n    tag_51:\n      dup1\n      0x1f\n      add\n      0x20\n      dup1\n      swap2\n      div\n      mul\n      0x20\n      add\n      mload(0x40)\n      swap1\n      dup2\n      add\n      0x40\n      mstore\n      dup1\n      swap3\n      swap2\n      swap1\n      dup2\n      dup2\n      mstore\n      0x20\n      add\n      dup3\n      dup1\n      sload\n      tag_53\n      swap1\n      tag_52\n      jump\t// in\n    tag_53:\n      dup1\n      iszero\n      tag_54\n      jumpi\n      dup1\n      0x1f\n      lt\n      tag_55\n      jumpi\n      0x0100\n      dup1\n      dup4\n      sload\n      div\n      mul\n      dup4\n      mstore\n      swap2\n      0x20\n      add\n      swap2\n      jump(tag_54)\n    tag_55:\n      dup3\n      add\n      swap2\n      swap1\n      0x00\n      mstore\n      keccak256(0x00, 0x20)\n      swap1\n    tag_56:\n      dup2\n      sload\n      dup2\n      mstore\n      swap1\n      0x01\n      add\n      swap1\n      0x20\n      add\n      dup1\n      dup4\n      gt\n      tag_56\n      jumpi\n      dup3\n      swap1\n      sub\n      0x1f\n      and\n      dup3\n      add\n      swap2\n    tag_54:\n      pop\n      pop\n      pop\n      pop\n      pop\n      dup2\n      mstore\n      0x20\n      add\n      0x01\n      dup3\n      add\n      dup1\n      sload\n      tag_57\n      swap1\n      tag_52\n      jump\t// in\n    tag_57:\n      dup1\n      0x1f\n      add\n      0x20\n      dup1\n      swap2\n      div\n      mul\n      0x20\n      add\n      mload(0x40)\n      swap1\n      dup2\n      add\n      0x40\n      mstore\n      dup1\n      swap3\n      swap2\n      swap1\n      dup2\n      dup2\n      mstore\n      0x20\n      add\n      dup3\n      dup1\n      sload\n      tag_58\n      swap1\n      tag_52\n      jump\t// in\n    tag_58:\n      dup1\n      iszero\n      tag_59\n      jumpi\n      dup1\n      0x1f\n      lt\n      tag_60\n      jumpi\n      0x0100\n      dup1\n      dup4\n      sload\n      div\n      mul\n      dup4\n      mstore\n      swap2\n      0x20\n      add\n      swap2\n      jump(tag_59)\n    tag_60:\n      dup3\n      add\n      swap2\n      swap1\n      0x00\n      mstore\n      keccak256(0x00, 0x20)\n      swap1\n    tag_61:\n      dup2\n      sload\n      dup2\n      mstore\n      swap1\n      0x01\n      add\n      swap1\n      0x20\n      add\n      dup1\n      dup4\n      gt\n      tag_61\n      jumpi\n      dup3\n      swap1\n      sub\n      0x1f\n      and\n      dup3\n      add\n      swap2\n    tag_59:\n      pop\n      pop\n      pop\n      pop\n      pop\n      dup2\n      mstore\n      pop\n      pop\n      swap1\n      pop\n        /* \"submissions/Zora/PluginStore.sol\":589:596  profile */\n      dup1\n        /* \"submissions/Zora/PluginStore.sol\":589:601  profile.name */\n      0x00\n      add\n      mload\n        /* \"submissions/Zora/PluginStore.sol\":603:610  profile */\n      dup2\n        /* \"submissions/Zora/PluginStore.sol\":603:617  profile.avatar */\n      0x20\n      add\n      mload\n        /* \"submissions/Zora/PluginStore.sol\":581:618  return (profile.name, profile.avatar) */\n      swap3\n      pop\n      swap3\n      pop\n      pop\n        /* \"submissions/Zora/PluginStore.sol\":427:626  function getProfile(address user) external view returns (string memory, string memory) {... */\n      swap2\n      pop\n      swap2\n      jump\t// out\n        /* \"submissions/Zora/PluginStore.sol\":764:872  function getPlugin(string memory key) external view returns (address) {... */\n    tag_21:\n        /* \"submissions/Zora/PluginStore.sol\":825:832  address */\n      0x00\n        /* \"submissions/Zora/PluginStore.sol\":852:859  plugins */\n      0x01\n        /* \"submissions/Zora/PluginStore.sol\":860:863  key */\n      dup3\n        /* \"submissions/Zora/PluginStore.sol\":852:864  plugins[key] */\n      mload(0x40)\n      tag_63\n      swap2\n      swap1\n      tag_64\n      jump\t// in\n    tag_63:\n      swap1\n      dup2\n      mstore\n      0x20\n      add\n      mload(0x40)\n      dup1\n      swap2\n      sub\n      swap1\n      keccak256\n      0x00\n      swap1\n      sload\n      swap1\n      0x0100\n      exp\n      swap1\n      div\n      0xffffffffffffffffffffffffffffffffffffffff\n      and\n        /* \"submissions/Zora/PluginStore.sol\":845:864  return plugins[key] */\n      swap1\n      pop\n        /* \"submissions/Zora/PluginStore.sol\":764:872  function getPlugin(string memory key) external view returns (address) {... */\n      swap2\n      swap1\n      pop\n      jump\t// out\n        /* \"submissions/Zora/PluginStore.sol\":276:419  function setProfile(string memory _name, string memory _avator) external{... */\n    tag_27:\n        /* \"submissions/Zora/PluginStore.sol\":382:411  PlayerProfile(_name, _avator) */\n      mload(0x40)\n      dup1\n      0x40\n      add\n      0x40\n      mstore\n      dup1\n        /* \"submissions/Zora/PluginStore.sol\":396:401  _name */\n      dup4\n        /* \"submissions/Zora/PluginStore.sol\":382:411  PlayerProfile(_name, _avator) */\n      dup2\n      mstore\n      0x20\n      add\n        /* \"submissions/Zora/PluginStore.sol\":403:410  _avator */\n      dup3\n        /* \"submissions/Zora/PluginStore.sol\":382:411  PlayerProfile(_name, _avator) */\n      dup2\n      mstore\n      pop\n        /* \"submissions/Zora/PluginStore.sol\":359:367  profiles */\n      0x00\n        /* \"submissions/Zora/PluginStore.sol\":359:379  profiles[msg.sender] */\n      0x00\n        /* \"submissions/Zora/PluginStore.sol\":368:378  msg.sender */\n      caller\n        /* \"submissions/Zora/PluginStore.sol\":359:379  profiles[msg.sender] */\n      0xffffffffffffffffffffffffffffffffffffffff\n      and\n      0xffffffffffffffffffffffffffffffffffffffff\n      and\n      dup2\n      mstore\n      0x20\n      add\n      swap1\n      dup2\n      mstore\n      0x20\n      add\n      0x00\n      keccak256\n        /* \"submissions/Zora/PluginStore.sol\":359:411  profiles[msg.sender] = PlayerProfile(_name, _avator) */\n      0x00\n      dup3\n      add\n      mload\n      dup2\n      0x00\n      add\n      swap1\n      dup2\n      tag_66\n      swap2\n      swap1\n      tag_67\n      jump\t// in\n    tag_66:\n      pop\n      0x20\n      dup3\n      add\n      mload\n      dup2\n      0x01\n      add\n      swap1\n      dup2\n      tag_68\n      swap2\n      swap1\n      tag_67\n      jump\t// in\n    tag_68:\n      pop\n      swap1\n      pop\n      pop\n        /* \"submissions/Zora/PluginStore.sol\":276:419  function setProfile(string memory _name, string memory _avator) external{... */\n      pop\n      pop\n      jump\t// out\n        /* \"submissions/Zora/PluginStore.sol\":226:267  mapping(string => address) public plugins */\n    tag_30:\n      0x01\n      dup2\n      dup1\n      mload\n      0x20\n      dup2\n      add\n      dup3\n      add\n      dup1\n      mload\n      dup5\n      dup3\n      mstore\n      0x20\n      dup4\n      add\n      0x20\n      dup6\n      add\n      keccak256\n      dup2\n      dup4\n      mstore\n      dup1\n      swap6\n      pop\n      pop\n      pop\n      pop\n      pop\n      pop\n      0x00\n      swap2\n      pop\n      sload\n      swap1\n      0x0100\n      exp\n      swap1\n      div\n      0xffffffffffffffffffffffffffffffffffffffff\n      and\n      dup2\n      jump\t// out\n        /* \"submissions/Zora/PluginStore.sol\":1357:1885  function runPluginView(... */\n    tag_35:\n        /* \"submissions/Zora/PluginStore.sol\":1503:1516  string memory */\n      0x60\n        /* \"submissions/Zora/PluginStore.sol\":1529:1543  address plugin */\n      0x00\n        /* \"submissions/Zora/PluginStore.sol\":1546:1553  plugins */\n      0x01\n        /* \"submissions/Zora/PluginStore.sol\":1554:1557  key */\n      dup6\n        /* \"submissions/Zora/PluginStore.sol\":1546:1558  plugins[key] */\n      mload(0x40)\n      tag_70\n      swap2\n      swap1\n      tag_64\n      jump\t// in\n    tag_70:\n      swap1\n      dup2\n      mstore\n      0x20\n      add\n      mload(0x40)\n      dup1\n      swap2\n      sub\n      swap1\n      keccak256\n      0x00\n      swap1\n      sload\n      swap1\n      0x0100\n      exp\n      swap1\n      div\n      0xffffffffffffffffffffffffffffffffffffffff\n      and\n        /* \"submissions/Zora/PluginStore.sol\":1529:1558  address plugin = plugins[key] */\n      swap1\n      pop\n        /* \"submissions/Zora/PluginStore.sol\":1595:1596  0 */\n      0x00\n        /* \"submissions/Zora/PluginStore.sol\":1577:1597  plugin != address(0) */\n      0xffffffffffffffffffffffffffffffffffffffff\n      and\n        /* \"submissions/Zora/PluginStore.sol\":1577:1583  plugin */\n      dup2\n        /* \"submissions/Zora/PluginStore.sol\":1577:1597  plugin != address(0) */\n      0xffffffffffffffffffffffffffffffffffffffff\n      and\n      sub\n        /* \"submissions/Zora/PluginStore.sol\":1569:1623  require(plugin != address(0), \"Plugin not registered\") */\n      tag_71\n      jumpi\n      mload(0x40)\n      0x08c379a000000000000000000000000000000000000000000000000000000000\n      dup2\n      mstore\n      0x04\n      add\n      tag_72\n      swap1\n      tag_73\n      jump\t// in\n    tag_72:\n      mload(0x40)\n      dup1\n      swap2\n      sub\n      swap1\n      revert\n    tag_71:\n        /* \"submissions/Zora/PluginStore.sol\":1636:1653  bytes memory data */\n      0x00\n        /* \"submissions/Zora/PluginStore.sol\":1680:1697  functionSignature */\n      dup5\n        /* \"submissions/Zora/PluginStore.sol\":1699:1703  user */\n      dup5\n        /* \"submissions/Zora/PluginStore.sol\":1656:1704  abi.encodeWithSignature(functionSignature, user) */\n      add(0x24, mload(0x40))\n      tag_74\n      swap2\n      swap1\n      tag_23\n      jump\t// in\n    tag_74:\n      mload(0x40)\n      0x20\n      dup2\n      dup4\n      sub\n      sub\n      dup2\n      mstore\n      swap1\n      0x40\n      mstore\n      swap1\n      mload(0x40)\n      tag_75\n      swap2\n      swap1\n      tag_64\n      jump\t// in\n    tag_75:\n      mload(0x40)\n      dup1\n      swap2\n      sub\n      swap1\n      keccak256\n      not(0xffffffffffffffffffffffffffffffffffffffffffffffffffffffff)\n      and\n      0x20\n      dup3\n      add\n      dup1\n      mload\n      0xffffffffffffffffffffffffffffffffffffffffffffffffffffffff\n      dup4\n      dup2\n      dup4\n      and\n      or\n      dup4\n      mstore\n      pop\n      pop\n      pop\n      pop\n        /* \"submissions/Zora/PluginStore.sol\":1636:1704  bytes memory data = abi.encodeWithSignature(functionSignature, user) */\n      swap1\n      pop\n        /* \"submissions/Zora/PluginStore.sol\":1716:1728  bool success */\n      0x00\n        /* \"submissions/Zora/PluginStore.sol\":1730:1749  bytes memory result */\n      0x00\n        /* \"submissions/Zora/PluginStore.sol\":1753:1759  plugin */\n      dup4\n        /* \"submissions/Zora/PluginStore.sol\":1753:1770  plugin.staticcall */\n      0xffffffffffffffffffffffffffffffffffffffff\n      and\n        /* \"submissions/Zora/PluginStore.sol\":1771:1775  data */\n      dup4\n        /* \"submissions/Zora/PluginStore.sol\":1753:1776  plugin.staticcall(data) */\n      mload(0x40)\n      tag_76\n      swap2\n      swap1\n      tag_77\n      jump\t// in\n    tag_76:\n      0x00\n      mload(0x40)\n      dup1\n      dup4\n      sub\n      dup2\n      dup6\n      gas\n      staticcall\n      swap2\n      pop\n      pop\n      returndatasize\n      dup1\n      0x00\n      dup2\n      eq\n      tag_80\n      jumpi\n      mload(0x40)\n      swap2\n      pop\n      and(add(returndatasize, 0x3f), not(0x1f))\n      dup3\n      add\n      0x40\n      mstore\n      returndatasize\n      dup3\n      mstore\n      returndatasize\n      0x00\n      0x20\n      dup5\n      add\n      returndatacopy\n      jump(tag_79)\n    tag_80:\n      0x60\n      swap2\n      pop\n    tag_79:\n      pop\n        /* \"submissions/Zora/PluginStore.sol\":1715:1776  (bool success, bytes memory result) = plugin.staticcall(data) */\n      swap2\n      pop\n      swap2\n      pop\n        /* \"submissions/Zora/PluginStore.sol\":1795:1802  success */\n      dup2\n        /* \"submissions/Zora/PluginStore.sol\":1787:1829  require(success, \"Plugin view call faied\") */\n      tag_81\n      jumpi\n      mload(0x40)\n      0x08c379a000000000000000000000000000000000000000000000000000000000\n      dup2\n      mstore\n      0x04\n      add\n      tag_82\n      swap1\n      tag_83\n      jump\t// in\n    tag_82:\n      mload(0x40)\n      dup1\n      swap2\n      sub\n      swap1\n      revert\n    tag_81:\n        /* \"submissions/Zora/PluginStore.sol\":1860:1866  result */\n      dup1\n        /* \"submissions/Zora/PluginStore.sol\":1849:1877  abi.decode(result, (string)) */\n      dup1\n      0x20\n      add\n      swap1\n      mload\n      dup2\n      add\n      swap1\n      tag_84\n      swap2\n      swap1\n      tag_85\n      jump\t// in\n    tag_84:\n        /* \"submissions/Zora/PluginStore.sol\":1842:1877  return abi.decode(result, (string)) */\n      swap5\n      pop\n      pop\n      pop\n      pop\n      pop\n        /* \"submissions/Zora/PluginStore.sol\":1357:1885  function runPluginView(... */\n      swap4\n      swap3\n      pop\n      pop\n      pop\n      jump\t// out\n        /* \"submissions/Zora/PluginStore.sol\":880:1349  function runPlugin(... */\n    tag_41:\n        /* \"submissions/Zora/PluginStore.sol\":1054:1068  address plugin */\n      0x00\n        /* \"submissions/Zora/PluginStore.sol\":1071:1078  plugins */\n      0x01\n        /* \"submissions/Zora/PluginStore.sol\":1079:1082  key */\n      dup6\n        /* \"submissions/Zora/PluginStore.sol\":1071:1083  plugins[key] */\n      mload(0x40)\n      tag_87\n      swap2\n      swap1\n      tag_64\n      jump\t// in\n    tag_87:\n      swap1\n      dup2\n      mstore\n      0x20\n      add\n      mload(0x40)\n      dup1\n      swap2\n      sub\n      swap1\n      keccak256\n      0x00\n      swap1\n      sload\n      swap1\n      0x0100\n      exp\n      swap1\n      div\n      0xffffffffffffffffffffffffffffffffffffffff\n      and\n        /* \"submissions/Zora/PluginStore.sol\":1054:1083  address plugin = plugins[key] */\n      swap1\n      pop\n        /* \"submissions/Zora/PluginStore.sol\":1120:1121  0 */\n      0x00\n        /* \"submissions/Zora/PluginStore.sol\":1102:1122  plugin != address(0) */\n      0xffffffffffffffffffffffffffffffffffffffff\n      and\n        /* \"submissions/Zora/PluginStore.sol\":1102:1108  plugin */\n      dup2\n        /* \"submissions/Zora/PluginStore.sol\":1102:1122  plugin != address(0) */\n      0xffffffffffffffffffffffffffffffffffffffff\n      and\n      sub\n        /* \"submissions/Zora/PluginStore.sol\":1094:1148  require(plugin != address(0), \"Plugin not registered\") */\n      tag_88\n      jumpi\n      mload(0x40)\n      0x08c379a000000000000000000000000000000000000000000000000000000000\n      dup2\n      mstore\n      0x04\n      add\n      tag_89\n      swap1\n      tag_73\n      jump\t// in\n    tag_89:\n      mload(0x40)\n      dup1\n      swap2\n      sub\n      swap1\n      revert\n    tag_88:\n        /* \"submissions/Zora/PluginStore.sol\":1161:1178  bytes memory data */\n      0x00\n        /* \"submissions/Zora/PluginStore.sol\":1205:1222  functionSignature */\n      dup5\n        /* \"submissions/Zora/PluginStore.sol\":1224:1228  user */\n      dup5\n        /* \"submissions/Zora/PluginStore.sol\":1230:1238  argument */\n      dup5\n        /* \"submissions/Zora/PluginStore.sol\":1181:1239  abi.encodeWithSignature(functionSignature, user, argument) */\n      add(0x24, mload(0x40))\n      tag_90\n      swap3\n      swap2\n      swap1\n      tag_91\n      jump\t// in\n    tag_90:\n      mload(0x40)\n      0x20\n      dup2\n      dup4\n      sub\n      sub\n      dup2\n      mstore\n      swap1\n      0x40\n      mstore\n      swap1\n      mload(0x40)\n      tag_92\n      swap2\n      swap1\n      tag_64\n      jump\t// in\n    tag_92:\n      mload(0x40)\n      dup1\n      swap2\n      sub\n      swap1\n      keccak256\n      not(0xffffffffffffffffffffffffffffffffffffffffffffffffffffffff)\n      and\n      0x20\n      dup3\n      add\n      dup1\n      mload\n      0xffffffffffffffffffffffffffffffffffffffffffffffffffffffff\n      dup4\n      dup2\n      dup4\n      and\n      or\n      dup4\n      mstore\n      pop\n      pop\n      pop\n      pop\n        /* \"submissions/Zora/PluginStore.sol\":1161:1239  bytes memory data = abi.encodeWithSignature(functionSignature, user, argument) */\n      swap1\n      pop\n        /* \"submissions/Zora/PluginStore.sol\":1251:1263  bool success */\n      0x00\n        /* \"submissions/Zora/PluginStore.sol\":1269:1275  plugin */\n      dup3\n        /* \"submissions/Zora/PluginStore.sol\":1269:1280  plugin.call */\n      0xffffffffffffffffffffffffffffffffffffffff\n      and\n        /* \"submissions/Zora/PluginStore.sol\":1281:1285  data */\n      dup3\n        /* \"submissions/Zora/PluginStore.sol\":1269:1286  plugin.call(data) */\n      mload(0x40)\n      tag_93\n      swap2\n      swap1\n      tag_77\n      jump\t// in\n    tag_93:\n      0x00\n      mload(0x40)\n      dup1\n      dup4\n      sub\n      dup2\n      0x00\n      dup7\n      gas\n      call\n      swap2\n      pop\n      pop\n      returndatasize\n      dup1\n      0x00\n      dup2\n      eq\n      tag_96\n      jumpi\n      mload(0x40)\n      swap2\n      pop\n      and(add(returndatasize, 0x3f), not(0x1f))\n      dup3\n      add\n      0x40\n      mstore\n      returndatasize\n      dup3\n      mstore\n      returndatasize\n      0x00\n      0x20\n      dup5\n      add\n      returndatacopy\n      jump(tag_95)\n    tag_96:\n      0x60\n      swap2\n      pop\n    tag_95:\n      pop\n        /* \"submissions/Zora/PluginStore.sol\":1250:1286  (bool success, ) = plugin.call(data) */\n      pop\n      swap1\n      pop\n        /* \"submissions/Zora/PluginStore.sol\":1305:1312  success */\n      dup1\n        /* \"submissions/Zora/PluginStore.sol\":1297:1339  require(success, \"Plugin excution failed\") */\n      tag_97\n      jumpi\n      mload(0x40)\n      0x08c379a000000000000000000000000000000000000000000000000000000000\n      dup2\n      mstore\n      0x04\n      add\n      tag_98\n      swap1\n      tag_99\n      jump\t// in\n    tag_98:\n      mload(0x40)\n      dup1\n      swap2\n      sub\n      swap1\n      revert\n    tag_97:\n        /* \"submissions/Zora/PluginStore.sol\":1043:1349  {... */\n      pop\n      pop\n      pop\n        /* \"submissions/Zora/PluginStore.sol\":880:1349  function runPlugin(... */\n      pop\n      pop\n      pop\n      pop\n      jump\t// out\n        /* \"submissions/Zora/PluginStore.sol\":170:219  mapping(address => PlayerProfile) public profiles */\n    tag_44:\n      mstore(0x20, 0x00)\n      dup1\n      0x00\n      mstore\n      keccak256(0x00, 0x40)\n      0x00\n      swap2\n      pop\n      swap1\n      pop\n      dup1\n      0x00\n      add\n      dup1\n      sload\n      tag_100\n      swap1\n      tag_52\n      jump\t// in\n    tag_100:\n      dup1\n      0x1f\n      add\n      0x20\n      dup1\n      swap2\n      div\n      mul\n      0x20\n      add\n      mload(0x40)\n      swap1\n      dup2\n      add\n      0x40\n      mstore\n      dup1\n      swap3\n      swap2\n      swap1\n      dup2\n      dup2\n      mstore\n      0x20\n      add\n      dup3\n      dup1\n      sload\n      tag_101\n      swap1\n      tag_52\n      jump\t// in\n    tag_101:\n      dup1\n      iszero\n      tag_102\n      jumpi\n      dup1\n      0x1f\n      lt\n      tag_103\n      jumpi\n      0x0100\n      dup1\n      dup4\n      sload\n      div\n      mul\n      dup4\n      mstore\n      swap2\n      0x20\n      add\n      swap2\n      jump(tag_102)\n    tag_103:\n      dup3\n      add\n      swap2\n      swap1\n      0x00\n      mstore\n      keccak256(0x00, 0x20)\n      swap1\n    tag_104:\n      dup2\n      sload\n      dup2\n      mstore\n      swap1\n      0x01\n      add\n      swap1\n      0x20\n      add\n      dup1\n      dup4\n      gt\n      tag_104\n      jumpi\n      dup3\n      swap1\n      sub\n      0x1f\n      and\n      dup3\n      add\n      swap2\n    tag_102:\n      pop\n      pop\n      pop\n      pop\n      pop\n      swap1\n      dup1\n      0x01\n      add\n      dup1\n      sload\n      tag_105\n      swap1\n      tag_52\n      jump\t// in\n    tag_105:\n      dup1\n      0x1f\n      add\n      0x20\n      dup1\n      swap2\n      div\n      mul\n      0x20\n      add\n      mload(0x40)\n      swap1\n      dup2\n      add\n      0x40\n      mstore\n      dup1\n      swap3\n      swap2\n      swap1\n      dup2\n      dup2\n      mstore\n      0x20\n      add\n      dup3\n      dup1\n      sload\n      tag_106\n      swap1\n      tag_52\n      jump\t// in\n    tag_106:\n      dup1\n      iszero\n      tag_107\n      jumpi\n      dup1\n      0x1f\n      lt\n      tag_108\n      jumpi\n      0x0100\n      dup1\n      dup4\n      sload\n      div\n      mul\n      dup4\n      mstore\n      swap2\n      0x20\n      add\n      swap2\n      jump(tag_107)\n    tag_108:\n      dup3\n      add\n      swap2\n      swap1\n      0x00\n      mstore\n      keccak256(0x00, 0x20)\n      swap1\n    tag_109:\n      dup2\n      sload\n      dup2\n      mstore\n      swap1\n      0x01\n      add\n      swap1\n      0x20\n      add\n      dup1\n      dup4\n      gt\n      tag_109\n      jumpi\n      dup3\n      swap1\n      sub\n      0x1f\n      and\n      dup3\n      add\n      swap2\n    tag_107:\n      pop\n      pop\n      pop\n      pop\n      pop\n      swap1\n      pop\n      dup3\n      jump\t// out\n        /* \"submissions/Zora/PluginStore.sol\":634:756  function registryPlugin(string memory key, address pluginAddress) external {... */\n    tag_49:\n        /* \"submissions/Zora/PluginStore.sol\":735:748  pluginAddress */\n      dup1\n        /* \"submissions/Zora/PluginStore.sol\":720:727  plugins */\n      0x01\n        /* \"submissions/Zora/PluginStore.sol\":728:731  key */\n      dup4\n        /* \"submissions/Zora/PluginStore.sol\":720:732  plugins[key] */\n      mload(0x40)\n      tag_111\n      swap2\n      swap1\n      tag_64\n      jump\t// in\n    tag_111:\n      swap1\n      dup2\n      mstore\n      0x20\n      add\n      mload(0x40)\n      dup1\n      swap2\n      sub\n      swap1\n      keccak256\n      0x00\n        /* \"submissions/Zora/PluginStore.sol\":720:748  plugins[key] = pluginAddress */\n      0x0100\n      exp\n      dup2\n      sload\n      dup2\n      0xffffffffffffffffffffffffffffffffffffffff\n      mul\n      not\n      and\n      swap1\n      dup4\n      0xffffffffffffffffffffffffffffffffffffffff\n      and\n      mul\n      or\n      swap1\n      sstore\n      pop\n        /* \"submissions/Zora/PluginStore.sol\":634:756  function registryPlugin(string memory key, address pluginAddress) external {... */\n      pop\n      pop\n      jump\t// out\n        /* \"#utility.yul\":7:82   */\n    tag_112:\n        /* \"#utility.yul\":40:46   */\n      0x00\n        /* \"#utility.yul\":73:75   */\n      0x40\n        /* \"#utility.yul\":67:76   */\n      mload\n        /* \"#utility.yul\":57:76   */\n      swap1\n      pop\n        /* \"#utility.yul\":7:82   */\n      swap1\n      jump\t// out\n        /* \"#utility.yul\":88:205   */\n    tag_113:\n        /* \"#utility.yul\":197:198   */\n      0x00\n        /* \"#utility.yul\":194:195   */\n      0x00\n        /* \"#utility.yul\":187:199   */\n      revert\n        /* \"#utility.yul\":211:328   */\n    tag_114:\n        /* \"#utility.yul\":320:321   */\n      0x00\n        /* \"#utility.yul\":317:318   */\n      0x00\n        /* \"#utility.yul\":310:322   */\n      revert\n        /* \"#utility.yul\":334:460   */\n    tag_115:\n        /* \"#utility.yul\":371:378   */\n      0x00\n        /* \"#utility.yul\":411:453   */\n      0xffffffffffffffffffffffffffffffffffffffff\n        /* \"#utility.yul\":404:409   */\n      dup3\n        /* \"#utility.yul\":400:454   */\n      and\n        /* \"#utility.yul\":389:454   */\n      swap1\n      pop\n        /* \"#utility.yul\":334:460   */\n      swap2\n      swap1\n      pop\n      jump\t// out\n        /* \"#utility.yul\":466:562   */\n    tag_116:\n        /* \"#utility.yul\":503:510   */\n      0x00\n        /* \"#utility.yul\":532:556   */\n      tag_170\n        /* \"#utility.yul\":550:555   */\n      dup3\n        /* \"#utility.yul\":532:556   */\n      tag_115\n      jump\t// in\n    tag_170:\n        /* \"#utility.yul\":521:556   */\n      swap1\n      pop\n        /* \"#utility.yul\":466:562   */\n      swap2\n      swap1\n      pop\n      jump\t// out\n        /* \"#utility.yul\":568:690   */\n    tag_117:\n        /* \"#utility.yul\":641:665   */\n      tag_172\n        /* \"#utility.yul\":659:664   */\n      dup2\n        /* \"#utility.yul\":641:665   */\n      tag_116\n      jump\t// in\n    tag_172:\n        /* \"#utility.yul\":634:639   */\n      dup2\n        /* \"#utility.yul\":631:666   */\n      eq\n        /* \"#utility.yul\":621:684   */\n      tag_173\n      jumpi\n        /* \"#utility.yul\":680:681   */\n      0x00\n        /* \"#utility.yul\":677:678   */\n      0x00\n        /* \"#utility.yul\":670:682   */\n      revert\n        /* \"#utility.yul\":621:684   */\n    tag_173:\n        /* \"#utility.yul\":568:690   */\n      pop\n      jump\t// out\n        /* \"#utility.yul\":696:835   */\n    tag_118:\n        /* \"#utility.yul\":742:747   */\n      0x00\n        /* \"#utility.yul\":780:786   */\n      dup2\n        /* \"#utility.yul\":767:787   */\n      calldataload\n        /* \"#utility.yul\":758:787   */\n      swap1\n      pop\n        /* \"#utility.yul\":796:829   */\n      tag_175\n        /* \"#utility.yul\":823:828   */\n      dup2\n        /* \"#utility.yul\":796:829   */\n      tag_117\n      jump\t// in\n    tag_175:\n        /* \"#utility.yul\":696:835   */\n      swap3\n      swap2\n      pop\n      pop\n      jump\t// out\n        /* \"#utility.yul\":841:1170   */\n    tag_14:\n        /* \"#utility.yul\":900:906   */\n      0x00\n        /* \"#utility.yul\":949:951   */\n      0x20\n        /* \"#utility.yul\":937:946   */\n      dup3\n        /* \"#utility.yul\":928:935   */\n      dup5\n        /* \"#utility.yul\":924:947   */\n      sub\n        /* \"#utility.yul\":920:952   */\n      slt\n        /* \"#utility.yul\":917:1036   */\n      iszero\n      tag_177\n      jumpi\n        /* \"#utility.yul\":955:1034   */\n      tag_178\n      tag_113\n      jump\t// in\n    tag_178:\n        /* \"#utility.yul\":917:1036   */\n    tag_177:\n        /* \"#utility.yul\":1075:1076   */\n      0x00\n        /* \"#utility.yul\":1100:1153   */\n      tag_179\n        /* \"#utility.yul\":1145:1152   */\n      dup5\n        /* \"#utility.yul\":1136:1142   */\n      dup3\n        /* \"#utility.yul\":1125:1134   */\n      dup6\n        /* \"#utility.yul\":1121:1143   */\n      add\n        /* \"#utility.yul\":1100:1153   */\n      tag_118\n      jump\t// in\n    tag_179:\n        /* \"#utility.yul\":1090:1153   */\n      swap2\n      pop\n        /* \"#utility.yul\":1046:1163   */\n      pop\n        /* \"#utility.yul\":841:1170   */\n      swap3\n      swap2\n      pop\n      pop\n      jump\t// out\n        /* \"#utility.yul\":1176:1275   */\n    tag_119:\n        /* \"#utility.yul\":1228:1234   */\n      0x00\n        /* \"#utility.yul\":1262:1267   */\n      dup2\n        /* \"#utility.yul\":1256:1268   */\n      mload\n        /* \"#utility.yul\":1246:1268   */\n      swap1\n      pop\n        /* \"#utility.yul\":1176:1275   */\n      swap2\n      swap1\n      pop\n      jump\t// out\n        /* \"#utility.yul\":1281:1450   */\n    tag_120:\n        /* \"#utility.yul\":1365:1376   */\n      0x00\n        /* \"#utility.yul\":1399:1405   */\n      dup3\n        /* \"#utility.yul\":1394:1397   */\n      dup3\n        /* \"#utility.yul\":1387:1406   */\n      mstore\n        /* \"#utility.yul\":1439:1443   */\n      0x20\n        /* \"#utility.yul\":1434:1437   */\n      dup3\n        /* \"#utility.yul\":1430:1444   */\n      add\n        /* \"#utility.yul\":1415:1444   */\n      swap1\n      pop\n        /* \"#utility.yul\":1281:1450   */\n      swap3\n      swap2\n      pop\n      pop\n      jump\t// out\n        /* \"#utility.yul\":1456:1595   */\n    tag_121:\n        /* \"#utility.yul\":1545:1551   */\n      dup3\n        /* \"#utility.yul\":1540:1543   */\n      dup2\n        /* \"#utility.yul\":1535:1538   */\n      dup4\n        /* \"#utility.yul\":1529:1552   */\n      mcopy\n        /* \"#utility.yul\":1586:1587   */\n      0x00\n        /* \"#utility.yul\":1577:1583   */\n      dup4\n        /* \"#utility.yul\":1572:1575   */\n      dup4\n        /* \"#utility.yul\":1568:1584   */\n      add\n        /* \"#utility.yul\":1561:1588   */\n      mstore\n        /* \"#utility.yul\":1456:1595   */\n      pop\n      pop\n      pop\n      jump\t// out\n        /* \"#utility.yul\":1601:1703   */\n    tag_122:\n        /* \"#utility.yul\":1642:1648   */\n      0x00\n        /* \"#utility.yul\":1693:1695   */\n      0x1f\n        /* \"#utility.yul\":1689:1696   */\n      not\n        /* \"#utility.yul\":1684:1686   */\n      0x1f\n        /* \"#utility.yul\":1677:1682   */\n      dup4\n        /* \"#utility.yul\":1673:1687   */\n      add\n        /* \"#utility.yul\":1669:1697   */\n      and\n        /* \"#utility.yul\":1659:1697   */\n      swap1\n      pop\n        /* \"#utility.yul\":1601:1703   */\n      swap2\n      swap1\n      pop\n      jump\t// out\n        /* \"#utility.yul\":1709:2086   */\n    tag_123:\n        /* \"#utility.yul\":1797:1800   */\n      0x00\n        /* \"#utility.yul\":1825:1864   */\n      tag_185\n        /* \"#utility.yul\":1858:1863   */\n      dup3\n        /* \"#utility.yul\":1825:1864   */\n      tag_119\n      jump\t// in\n    tag_185:\n        /* \"#utility.yul\":1880:1951   */\n      tag_186\n        /* \"#utility.yul\":1944:1950   */\n      dup2\n        /* \"#utility.yul\":1939:1942   */\n      dup6\n        /* \"#utility.yul\":1880:1951   */\n      tag_120\n      jump\t// in\n    tag_186:\n        /* \"#utility.yul\":1873:1951   */\n      swap4\n      pop\n        /* \"#utility.yul\":1960:2025   */\n      tag_187\n        /* \"#utility.yul\":2018:2024   */\n      dup2\n        /* \"#utility.yul\":2013:2016   */\n      dup6\n        /* \"#utility.yul\":2006:2010   */\n      0x20\n        /* \"#utility.yul\":1999:2004   */\n      dup7\n        /* \"#utility.yul\":1995:2011   */\n      add\n        /* \"#utility.yul\":1960:2025   */\n      tag_121\n      jump\t// in\n    tag_187:\n        /* \"#utility.yul\":2050:2079   */\n      tag_188\n        /* \"#utility.yul\":2072:2078   */\n      dup2\n        /* \"#utility.yul\":2050:2079   */\n      tag_122\n      jump\t// in\n    tag_188:\n        /* \"#utility.yul\":2045:2048   */\n      dup5\n        /* \"#utility.yul\":2041:2080   */\n      add\n        /* \"#utility.yul\":2034:2080   */\n      swap2\n      pop\n        /* \"#utility.yul\":1801:2086   */\n      pop\n        /* \"#utility.yul\":1709:2086   */\n      swap3\n      swap2\n      pop\n      pop\n      jump\t// out\n        /* \"#utility.yul\":2092:2606   */\n    tag_17:\n        /* \"#utility.yul\":2253:2257   */\n      0x00\n        /* \"#utility.yul\":2291:2293   */\n      0x40\n        /* \"#utility.yul\":2280:2289   */\n      dup3\n        /* \"#utility.yul\":2276:2294   */\n      add\n        /* \"#utility.yul\":2268:2294   */\n      swap1\n      pop\n        /* \"#utility.yul\":2340:2349   */\n      dup2\n        /* \"#utility.yul\":2334:2338   */\n      dup2\n        /* \"#utility.yul\":2330:2350   */\n      sub\n        /* \"#utility.yul\":2326:2327   */\n      0x00\n        /* \"#utility.yul\":2315:2324   */\n      dup4\n        /* \"#utility.yul\":2311:2328   */\n      add\n        /* \"#utility.yul\":2304:2351   */\n      mstore\n        /* \"#utility.yul\":2368:2446   */\n      tag_190\n        /* \"#utility.yul\":2441:2445   */\n      dup2\n        /* \"#utility.yul\":2432:2438   */\n      dup6\n        /* \"#utility.yul\":2368:2446   */\n      tag_123\n      jump\t// in\n    tag_190:\n        /* \"#utility.yul\":2360:2446   */\n      swap1\n      pop\n        /* \"#utility.yul\":2493:2502   */\n      dup2\n        /* \"#utility.yul\":2487:2491   */\n      dup2\n        /* \"#utility.yul\":2483:2503   */\n      sub\n        /* \"#utility.yul\":2478:2480   */\n      0x20\n        /* \"#utility.yul\":2467:2476   */\n      dup4\n        /* \"#utility.yul\":2463:2481   */\n      add\n        /* \"#utility.yul\":2456:2504   */\n      mstore\n        /* \"#utility.yul\":2521:2599   */\n      tag_191\n        /* \"#utility.yul\":2594:2598   */\n      dup2\n        /* \"#utility.yul\":2585:2591   */\n      dup5\n        /* \"#utility.yul\":2521:2599   */\n      tag_123\n      jump\t// in\n    tag_191:\n        /* \"#utility.yul\":2513:2599   */\n      swap1\n      pop\n        /* \"#utility.yul\":2092:2606   */\n      swap4\n      swap3\n      pop\n      pop\n      pop\n      jump\t// out\n        /* \"#utility.yul\":2612:2729   */\n    tag_124:\n        /* \"#utility.yul\":2721:2722   */\n      0x00\n        /* \"#utility.yul\":2718:2719   */\n      0x00\n        /* \"#utility.yul\":2711:2723   */\n      revert\n        /* \"#utility.yul\":2735:2852   */\n    tag_125:\n        /* \"#utility.yul\":2844:2845   */\n      0x00\n        /* \"#utility.yul\":2841:2842   */\n      0x00\n        /* \"#utility.yul\":2834:2846   */\n      revert\n        /* \"#utility.yul\":2858:3038   */\n    tag_126:\n        /* \"#utility.yul\":2906:2983   */\n      0x4e487b7100000000000000000000000000000000000000000000000000000000\n        /* \"#utility.yul\":2903:2904   */\n      0x00\n        /* \"#utility.yul\":2896:2984   */\n      mstore\n        /* \"#utility.yul\":3003:3007   */\n      0x41\n        /* \"#utility.yul\":3000:3001   */\n      0x04\n        /* \"#utility.yul\":2993:3008   */\n      mstore\n        /* \"#utility.yul\":3027:3031   */\n      0x24\n        /* \"#utility.yul\":3024:3025   */\n      0x00\n        /* \"#utility.yul\":3017:3032   */\n      revert\n        /* \"#utility.yul\":3044:3325   */\n    tag_127:\n        /* \"#utility.yul\":3127:3154   */\n      tag_196\n        /* \"#utility.yul\":3149:3153   */\n      dup3\n        /* \"#utility.yul\":3127:3154   */\n      tag_122\n      jump\t// in\n    tag_196:\n        /* \"#utility.yul\":3119:3125   */\n      dup2\n        /* \"#utility.yul\":3115:3155   */\n      add\n        /* \"#utility.yul\":3257:3263   */\n      dup2\n        /* \"#utility.yul\":3245:3255   */\n      dup2\n        /* \"#utility.yul\":3242:3264   */\n      lt\n        /* \"#utility.yul\":3221:3239   */\n      0xffffffffffffffff\n        /* \"#utility.yul\":3209:3219   */\n      dup3\n        /* \"#utility.yul\":3206:3240   */\n      gt\n        /* \"#utility.yul\":3203:3265   */\n      or\n        /* \"#utility.yul\":3200:3288   */\n      iszero\n      tag_197\n      jumpi\n        /* \"#utility.yul\":3268:3286   */\n      tag_198\n      tag_126\n      jump\t// in\n    tag_198:\n        /* \"#utility.yul\":3200:3288   */\n    tag_197:\n        /* \"#utility.yul\":3308:3318   */\n      dup1\n        /* \"#utility.yul\":3304:3306   */\n      0x40\n        /* \"#utility.yul\":3297:3319   */\n      mstore\n        /* \"#utility.yul\":3087:3325   */\n      pop\n        /* \"#utility.yul\":3044:3325   */\n      pop\n      pop\n      jump\t// out\n        /* \"#utility.yul\":3331:3460   */\n    tag_128:\n        /* \"#utility.yul\":3365:3371   */\n      0x00\n        /* \"#utility.yul\":3392:3412   */\n      tag_200\n      tag_112\n      jump\t// in\n    tag_200:\n        /* \"#utility.yul\":3382:3412   */\n      swap1\n      pop\n        /* \"#utility.yul\":3421:3454   */\n      tag_201\n        /* \"#utility.yul\":3449:3453   */\n      dup3\n        /* \"#utility.yul\":3441:3447   */\n      dup3\n        /* \"#utility.yul\":3421:3454   */\n      tag_127\n      jump\t// in\n    tag_201:\n        /* \"#utility.yul\":3331:3460   */\n      swap2\n      swap1\n      pop\n      jump\t// out\n        /* \"#utility.yul\":3466:3774   */\n    tag_129:\n        /* \"#utility.yul\":3528:3532   */\n      0x00\n        /* \"#utility.yul\":3618:3636   */\n      0xffffffffffffffff\n        /* \"#utility.yul\":3610:3616   */\n      dup3\n        /* \"#utility.yul\":3607:3637   */\n      gt\n        /* \"#utility.yul\":3604:3660   */\n      iszero\n      tag_203\n      jumpi\n        /* \"#utility.yul\":3640:3658   */\n      tag_204\n      tag_126\n      jump\t// in\n    tag_204:\n        /* \"#utility.yul\":3604:3660   */\n    tag_203:\n        /* \"#utility.yul\":3678:3707   */\n      tag_205\n        /* \"#utility.yul\":3700:3706   */\n      dup3\n        /* \"#utility.yul\":3678:3707   */\n      tag_122\n      jump\t// in\n    tag_205:\n        /* \"#utility.yul\":3670:3707   */\n      swap1\n      pop\n        /* \"#utility.yul\":3762:3766   */\n      0x20\n        /* \"#utility.yul\":3756:3760   */\n      dup2\n        /* \"#utility.yul\":3752:3767   */\n      add\n        /* \"#utility.yul\":3744:3767   */\n      swap1\n      pop\n        /* \"#utility.yul\":3466:3774   */\n      swap2\n      swap1\n      pop\n      jump\t// out\n        /* \"#utility.yul\":3780:3928   */\n    tag_130:\n        /* \"#utility.yul\":3878:3884   */\n      dup3\n        /* \"#utility.yul\":3873:3876   */\n      dup2\n        /* \"#utility.yul\":3868:3871   */\n      dup4\n        /* \"#utility.yul\":3855:3885   */\n      calldatacopy\n        /* \"#utility.yul\":3919:3920   */\n      0x00\n        /* \"#utility.yul\":3910:3916   */\n      dup4\n        /* \"#utility.yul\":3905:3908   */\n      dup4\n        /* \"#utility.yul\":3901:3917   */\n      add\n        /* \"#utility.yul\":3894:3921   */\n      mstore\n        /* \"#utility.yul\":3780:3928   */\n      pop\n      pop\n      pop\n      jump\t// out\n        /* \"#utility.yul\":3934:4359   */\n    tag_131:\n        /* \"#utility.yul\":4012:4017   */\n      0x00\n        /* \"#utility.yul\":4037:4103   */\n      tag_208\n        /* \"#utility.yul\":4053:4102   */\n      tag_209\n        /* \"#utility.yul\":4095:4101   */\n      dup5\n        /* \"#utility.yul\":4053:4102   */\n      tag_129\n      jump\t// in\n    tag_209:\n        /* \"#utility.yul\":4037:4103   */\n      tag_128\n      jump\t// in\n    tag_208:\n        /* \"#utility.yul\":4028:4103   */\n      swap1\n      pop\n        /* \"#utility.yul\":4126:4132   */\n      dup3\n        /* \"#utility.yul\":4119:4124   */\n      dup2\n        /* \"#utility.yul\":4112:4133   */\n      mstore\n        /* \"#utility.yul\":4164:4168   */\n      0x20\n        /* \"#utility.yul\":4157:4162   */\n      dup2\n        /* \"#utility.yul\":4153:4169   */\n      add\n        /* \"#utility.yul\":4202:4205   */\n      dup5\n        /* \"#utility.yul\":4193:4199   */\n      dup5\n        /* \"#utility.yul\":4188:4191   */\n      dup5\n        /* \"#utility.yul\":4184:4200   */\n      add\n        /* \"#utility.yul\":4181:4206   */\n      gt\n        /* \"#utility.yul\":4178:4290   */\n      iszero\n      tag_210\n      jumpi\n        /* \"#utility.yul\":4209:4288   */\n      tag_211\n      tag_125\n      jump\t// in\n    tag_211:\n        /* \"#utility.yul\":4178:4290   */\n    tag_210:\n        /* \"#utility.yul\":4299:4353   */\n      tag_212\n        /* \"#utility.yul\":4346:4352   */\n      dup5\n        /* \"#utility.yul\":4341:4344   */\n      dup3\n        /* \"#utility.yul\":4336:4339   */\n      dup6\n        /* \"#utility.yul\":4299:4353   */\n      tag_130\n      jump\t// in\n    tag_212:\n        /* \"#utility.yul\":4018:4359   */\n      pop\n        /* \"#utility.yul\":3934:4359   */\n      swap4\n      swap3\n      pop\n      pop\n      pop\n      jump\t// out\n        /* \"#utility.yul\":4379:4719   */\n    tag_132:\n        /* \"#utility.yul\":4435:4440   */\n      0x00\n        /* \"#utility.yul\":4484:4487   */\n      dup3\n        /* \"#utility.yul\":4477:4481   */\n      0x1f\n        /* \"#utility.yul\":4469:4475   */\n      dup4\n        /* \"#utility.yul\":4465:4482   */\n      add\n        /* \"#utility.yul\":4461:4488   */\n      slt\n        /* \"#utility.yul\":4451:4573   */\n      tag_214\n      jumpi\n        /* \"#utility.yul\":4492:4571   */\n      tag_215\n      tag_124\n      jump\t// in\n    tag_215:\n        /* \"#utility.yul\":4451:4573   */\n    tag_214:\n        /* \"#utility.yul\":4609:4615   */\n      dup2\n        /* \"#utility.yul\":4596:4616   */\n      calldataload\n        /* \"#utility.yul\":4634:4713   */\n      tag_216\n        /* \"#utility.yul\":4709:4712   */\n      dup5\n        /* \"#utility.yul\":4701:4707   */\n      dup3\n        /* \"#utility.yul\":4694:4698   */\n      0x20\n        /* \"#utility.yul\":4686:4692   */\n      dup7\n        /* \"#utility.yul\":4682:4699   */\n      add\n        /* \"#utility.yul\":4634:4713   */\n      tag_131\n      jump\t// in\n    tag_216:\n        /* \"#utility.yul\":4625:4713   */\n      swap2\n      pop\n        /* \"#utility.yul\":4441:4719   */\n      pop\n        /* \"#utility.yul\":4379:4719   */\n      swap3\n      swap2\n      pop\n      pop\n      jump\t// out\n        /* \"#utility.yul\":4725:5234   */\n    tag_20:\n        /* \"#utility.yul\":4794:4800   */\n      0x00\n        /* \"#utility.yul\":4843:4845   */\n      0x20\n        /* \"#utility.yul\":4831:4840   */\n      dup3\n        /* \"#utility.yul\":4822:4829   */\n      dup5\n        /* \"#utility.yul\":4818:4841   */\n      sub\n        /* \"#utility.yul\":4814:4846   */\n      slt\n        /* \"#utility.yul\":4811:4930   */\n      iszero\n      tag_218\n      jumpi\n        /* \"#utility.yul\":4849:4928   */\n      tag_219\n      tag_113\n      jump\t// in\n    tag_219:\n        /* \"#utility.yul\":4811:4930   */\n    tag_218:\n        /* \"#utility.yul\":4997:4998   */\n      0x00\n        /* \"#utility.yul\":4986:4995   */\n      dup3\n        /* \"#utility.yul\":4982:4999   */\n      add\n        /* \"#utility.yul\":4969:5000   */\n      calldataload\n        /* \"#utility.yul\":5027:5045   */\n      0xffffffffffffffff\n        /* \"#utility.yul\":5019:5025   */\n      dup2\n        /* \"#utility.yul\":5016:5046   */\n      gt\n        /* \"#utility.yul\":5013:5130   */\n      iszero\n      tag_220\n      jumpi\n        /* \"#utility.yul\":5049:5128   */\n      tag_221\n      tag_114\n      jump\t// in\n    tag_221:\n        /* \"#utility.yul\":5013:5130   */\n    tag_220:\n        /* \"#utility.yul\":5154:5217   */\n      tag_222\n        /* \"#utility.yul\":5209:5216   */\n      dup5\n        /* \"#utility.yul\":5200:5206   */\n      dup3\n        /* \"#utility.yul\":5189:5198   */\n      dup6\n        /* \"#utility.yul\":5185:5207   */\n      add\n        /* \"#utility.yul\":5154:5217   */\n      tag_132\n      jump\t// in\n    tag_222:\n        /* \"#utility.yul\":5144:5217   */\n      swap2\n      pop\n        /* \"#utility.yul\":4940:5227   */\n      pop\n        /* \"#utility.yul\":4725:5234   */\n      swap3\n      swap2\n      pop\n      pop\n      jump\t// out\n        /* \"#utility.yul\":5240:5358   */\n    tag_133:\n        /* \"#utility.yul\":5327:5351   */\n      tag_224\n        /* \"#utility.yul\":5345:5350   */\n      dup2\n        /* \"#utility.yul\":5327:5351   */\n      tag_116\n      jump\t// in\n    tag_224:\n        /* \"#utility.yul\":5322:5325   */\n      dup3\n        /* \"#utility.yul\":5315:5352   */\n      mstore\n        /* \"#utility.yul\":5240:5358   */\n      pop\n      pop\n      jump\t// out\n        /* \"#utility.yul\":5364:5586   */\n    tag_23:\n        /* \"#utility.yul\":5457:5461   */\n      0x00\n        /* \"#utility.yul\":5495:5497   */\n      0x20\n        /* \"#utility.yul\":5484:5493   */\n      dup3\n        /* \"#utility.yul\":5480:5498   */\n      add\n        /* \"#utility.yul\":5472:5498   */\n      swap1\n      pop\n        /* \"#utility.yul\":5508:5579   */\n      tag_226\n        /* \"#utility.yul\":5576:5577   */\n      0x00\n        /* \"#utility.yul\":5565:5574   */\n      dup4\n        /* \"#utility.yul\":5561:5578   */\n      add\n        /* \"#utility.yul\":5552:5558   */\n      dup5\n        /* \"#utility.yul\":5508:5579   */\n      tag_133\n      jump\t// in\n    tag_226:\n        /* \"#utility.yul\":5364:5586   */\n      swap3\n      swap2\n      pop\n      pop\n      jump\t// out\n        /* \"#utility.yul\":5592:6426   */\n    tag_26:\n        /* \"#utility.yul\":5680:5686   */\n      0x00\n        /* \"#utility.yul\":5688:5694   */\n      0x00\n        /* \"#utility.yul\":5737:5739   */\n      0x40\n        /* \"#utility.yul\":5725:5734   */\n      dup4\n        /* \"#utility.yul\":5716:5723   */\n      dup6\n        /* \"#utility.yul\":5712:5735   */\n      sub\n        /* \"#utility.yul\":5708:5740   */\n      slt\n        /* \"#utility.yul\":5705:5824   */\n      iszero\n      tag_228\n      jumpi\n        /* \"#utility.yul\":5743:5822   */\n      tag_229\n      tag_113\n      jump\t// in\n    tag_229:\n        /* \"#utility.yul\":5705:5824   */\n    tag_228:\n        /* \"#utility.yul\":5891:5892   */\n      0x00\n        /* \"#utility.yul\":5880:5889   */\n      dup4\n        /* \"#utility.yul\":5876:5893   */\n      add\n        /* \"#utility.yul\":5863:5894   */\n      calldataload\n        /* \"#utility.yul\":5921:5939   */\n      0xffffffffffffffff\n        /* \"#utility.yul\":5913:5919   */\n      dup2\n        /* \"#utility.yul\":5910:5940   */\n      gt\n        /* \"#utility.yul\":5907:6024   */\n      iszero\n      tag_230\n      jumpi\n        /* \"#utility.yul\":5943:6022   */\n      tag_231\n      tag_114\n      jump\t// in\n    tag_231:\n        /* \"#utility.yul\":5907:6024   */\n    tag_230:\n        /* \"#utility.yul\":6048:6111   */\n      tag_232\n        /* \"#utility.yul\":6103:6110   */\n      dup6\n        /* \"#utility.yul\":6094:6100   */\n      dup3\n        /* \"#utility.yul\":6083:6092   */\n      dup7\n        /* \"#utility.yul\":6079:6101   */\n      add\n        /* \"#utility.yul\":6048:6111   */\n      tag_132\n      jump\t// in\n    tag_232:\n        /* \"#utility.yul\":6038:6111   */\n      swap3\n      pop\n        /* \"#utility.yul\":5834:6121   */\n      pop\n        /* \"#utility.yul\":6188:6190   */\n      0x20\n        /* \"#utility.yul\":6177:6186   */\n      dup4\n        /* \"#utility.yul\":6173:6191   */\n      add\n        /* \"#utility.yul\":6160:6192   */\n      calldataload\n        /* \"#utility.yul\":6219:6237   */\n      0xffffffffffffffff\n        /* \"#utility.yul\":6211:6217   */\n      dup2\n        /* \"#utility.yul\":6208:6238   */\n      gt\n        /* \"#utility.yul\":6205:6322   */\n      iszero\n      tag_233\n      jumpi\n        /* \"#utility.yul\":6241:6320   */\n      tag_234\n      tag_114\n      jump\t// in\n    tag_234:\n        /* \"#utility.yul\":6205:6322   */\n    tag_233:\n        /* \"#utility.yul\":6346:6409   */\n      tag_235\n        /* \"#utility.yul\":6401:6408   */\n      dup6\n        /* \"#utility.yul\":6392:6398   */\n      dup3\n        /* \"#utility.yul\":6381:6390   */\n      dup7\n        /* \"#utility.yul\":6377:6399   */\n      add\n        /* \"#utility.yul\":6346:6409   */\n      tag_132\n      jump\t// in\n    tag_235:\n        /* \"#utility.yul\":6336:6409   */\n      swap2\n      pop\n        /* \"#utility.yul\":6131:6419   */\n      pop\n        /* \"#utility.yul\":5592:6426   */\n      swap3\n      pop\n      swap3\n      swap1\n      pop\n      jump\t// out\n        /* \"#utility.yul\":6432:7411   */\n    tag_34:\n        /* \"#utility.yul\":6529:6535   */\n      0x00\n        /* \"#utility.yul\":6537:6543   */\n      0x00\n        /* \"#utility.yul\":6545:6551   */\n      0x00\n        /* \"#utility.yul\":6594:6596   */\n      0x60\n        /* \"#utility.yul\":6582:6591   */\n      dup5\n        /* \"#utility.yul\":6573:6580   */\n      dup7\n        /* \"#utility.yul\":6569:6592   */\n      sub\n        /* \"#utility.yul\":6565:6597   */\n      slt\n        /* \"#utility.yul\":6562:6681   */\n      iszero\n      tag_237\n      jumpi\n        /* \"#utility.yul\":6600:6679   */\n      tag_238\n      tag_113\n      jump\t// in\n    tag_238:\n        /* \"#utility.yul\":6562:6681   */\n    tag_237:\n        /* \"#utility.yul\":6748:6749   */\n      0x00\n        /* \"#utility.yul\":6737:6746   */\n      dup5\n        /* \"#utility.yul\":6733:6750   */\n      add\n        /* \"#utility.yul\":6720:6751   */\n      calldataload\n        /* \"#utility.yul\":6778:6796   */\n      0xffffffffffffffff\n        /* \"#utility.yul\":6770:6776   */\n      dup2\n        /* \"#utility.yul\":6767:6797   */\n      gt\n        /* \"#utility.yul\":6764:6881   */\n      iszero\n      tag_239\n      jumpi\n        /* \"#utility.yul\":6800:6879   */\n      tag_240\n      tag_114\n      jump\t// in\n    tag_240:\n        /* \"#utility.yul\":6764:6881   */\n    tag_239:\n        /* \"#utility.yul\":6905:6968   */\n      tag_241\n        /* \"#utility.yul\":6960:6967   */\n      dup7\n        /* \"#utility.yul\":6951:6957   */\n      dup3\n        /* \"#utility.yul\":6940:6949   */\n      dup8\n        /* \"#utility.yul\":6936:6958   */\n      add\n        /* \"#utility.yul\":6905:6968   */\n      tag_132\n      jump\t// in\n    tag_241:\n        /* \"#utility.yul\":6895:6968   */\n      swap4\n      pop\n        /* \"#utility.yul\":6691:6978   */\n      pop\n        /* \"#utility.yul\":7045:7047   */\n      0x20\n        /* \"#utility.yul\":7034:7043   */\n      dup5\n        /* \"#utility.yul\":7030:7048   */\n      add\n        /* \"#utility.yul\":7017:7049   */\n      calldataload\n        /* \"#utility.yul\":7076:7094   */\n      0xffffffffffffffff\n        /* \"#utility.yul\":7068:7074   */\n      dup2\n        /* \"#utility.yul\":7065:7095   */\n      gt\n        /* \"#utility.yul\":7062:7179   */\n      iszero\n      tag_242\n      jumpi\n        /* \"#utility.yul\":7098:7177   */\n      tag_243\n      tag_114\n      jump\t// in\n    tag_243:\n        /* \"#utility.yul\":7062:7179   */\n    tag_242:\n        /* \"#utility.yul\":7203:7266   */\n      tag_244\n        /* \"#utility.yul\":7258:7265   */\n      dup7\n        /* \"#utility.yul\":7249:7255   */\n      dup3\n        /* \"#utility.yul\":7238:7247   */\n      dup8\n        /* \"#utility.yul\":7234:7256   */\n      add\n        /* \"#utility.yul\":7203:7266   */\n      tag_132\n      jump\t// in\n    tag_244:\n        /* \"#utility.yul\":7193:7266   */\n      swap3\n      pop\n        /* \"#utility.yul\":6988:7276   */\n      pop\n        /* \"#utility.yul\":7315:7317   */\n      0x40\n        /* \"#utility.yul\":7341:7394   */\n      tag_245\n        /* \"#utility.yul\":7386:7393   */\n      dup7\n        /* \"#utility.yul\":7377:7383   */\n      dup3\n        /* \"#utility.yul\":7366:7375   */\n      dup8\n        /* \"#utility.yul\":7362:7384   */\n      add\n        /* \"#utility.yul\":7341:7394   */\n      tag_118\n      jump\t// in\n    tag_245:\n        /* \"#utility.yul\":7331:7394   */\n      swap2\n      pop\n        /* \"#utility.yul\":7286:7404   */\n      pop\n        /* \"#utility.yul\":6432:7411   */\n      swap3\n      pop\n      swap3\n      pop\n      swap3\n      jump\t// out\n        /* \"#utility.yul\":7417:7730   */\n    tag_37:\n        /* \"#utility.yul\":7530:7534   */\n      0x00\n        /* \"#utility.yul\":7568:7570   */\n      0x20\n        /* \"#utility.yul\":7557:7566   */\n      dup3\n        /* \"#utility.yul\":7553:7571   */\n      add\n        /* \"#utility.yul\":7545:7571   */\n      swap1\n      pop\n        /* \"#utility.yul\":7617:7626   */\n      dup2\n        /* \"#utility.yul\":7611:7615   */\n      dup2\n        /* \"#utility.yul\":7607:7627   */\n      sub\n        /* \"#utility.yul\":7603:7604   */\n      0x00\n        /* \"#utility.yul\":7592:7601   */\n      dup4\n        /* \"#utility.yul\":7588:7605   */\n      add\n        /* \"#utility.yul\":7581:7628   */\n      mstore\n        /* \"#utility.yul\":7645:7723   */\n      tag_247\n        /* \"#utility.yul\":7718:7722   */\n      dup2\n        /* \"#utility.yul\":7709:7715   */\n      dup5\n        /* \"#utility.yul\":7645:7723   */\n      tag_123\n      jump\t// in\n    tag_247:\n        /* \"#utility.yul\":7637:7723   */\n      swap1\n      pop\n        /* \"#utility.yul\":7417:7730   */\n      swap3\n      swap2\n      pop\n      pop\n      jump\t// out\n        /* \"#utility.yul\":7736:9041   */\n    tag_40:\n        /* \"#utility.yul\":7852:7858   */\n      0x00\n        /* \"#utility.yul\":7860:7866   */\n      0x00\n        /* \"#utility.yul\":7868:7874   */\n      0x00\n        /* \"#utility.yul\":7876:7882   */\n      0x00\n        /* \"#utility.yul\":7925:7928   */\n      0x80\n        /* \"#utility.yul\":7913:7922   */\n      dup6\n        /* \"#utility.yul\":7904:7911   */\n      dup8\n        /* \"#utility.yul\":7900:7923   */\n      sub\n        /* \"#utility.yul\":7896:7929   */\n      slt\n        /* \"#utility.yul\":7893:8013   */\n      iszero\n      tag_249\n      jumpi\n        /* \"#utility.yul\":7932:8011   */\n      tag_250\n      tag_113\n      jump\t// in\n    tag_250:\n        /* \"#utility.yul\":7893:8013   */\n    tag_249:\n        /* \"#utility.yul\":8080:8081   */\n      0x00\n        /* \"#utility.yul\":8069:8078   */\n      dup6\n        /* \"#utility.yul\":8065:8082   */\n      add\n        /* \"#utility.yul\":8052:8083   */\n      calldataload\n        /* \"#utility.yul\":8110:8128   */\n      0xffffffffffffffff\n        /* \"#utility.yul\":8102:8108   */\n      dup2\n        /* \"#utility.yul\":8099:8129   */\n      gt\n        /* \"#utility.yul\":8096:8213   */\n      iszero\n      tag_251\n      jumpi\n        /* \"#utility.yul\":8132:8211   */\n      tag_252\n      tag_114\n      jump\t// in\n    tag_252:\n        /* \"#utility.yul\":8096:8213   */\n    tag_251:\n        /* \"#utility.yul\":8237:8300   */\n      tag_253\n        /* \"#utility.yul\":8292:8299   */\n      dup8\n        /* \"#utility.yul\":8283:8289   */\n      dup3\n        /* \"#utility.yul\":8272:8281   */\n      dup9\n        /* \"#utility.yul\":8268:8290   */\n      add\n        /* \"#utility.yul\":8237:8300   */\n      tag_132\n      jump\t// in\n    tag_253:\n        /* \"#utility.yul\":8227:8300   */\n      swap5\n      pop\n        /* \"#utility.yul\":8023:8310   */\n      pop\n        /* \"#utility.yul\":8377:8379   */\n      0x20\n        /* \"#utility.yul\":8366:8375   */\n      dup6\n        /* \"#utility.yul\":8362:8380   */\n      add\n        /* \"#utility.yul\":8349:8381   */\n      calldataload\n        /* \"#utility.yul\":8408:8426   */\n      0xffffffffffffffff\n        /* \"#utility.yul\":8400:8406   */\n      dup2\n        /* \"#utility.yul\":8397:8427   */\n      gt\n        /* \"#utility.yul\":8394:8511   */\n      iszero\n      tag_254\n      jumpi\n        /* \"#utility.yul\":8430:8509   */\n      tag_255\n      tag_114\n      jump\t// in\n    tag_255:\n        /* \"#utility.yul\":8394:8511   */\n    tag_254:\n        /* \"#utility.yul\":8535:8598   */\n      tag_256\n        /* \"#utility.yul\":8590:8597   */\n      dup8\n        /* \"#utility.yul\":8581:8587   */\n      dup3\n        /* \"#utility.yul\":8570:8579   */\n      dup9\n        /* \"#utility.yul\":8566:8588   */\n      add\n        /* \"#utility.yul\":8535:8598   */\n      tag_132\n      jump\t// in\n    tag_256:\n        /* \"#utility.yul\":8525:8598   */\n      swap4\n      pop\n        /* \"#utility.yul\":8320:8608   */\n      pop\n        /* \"#utility.yul\":8647:8649   */\n      0x40\n        /* \"#utility.yul\":8673:8726   */\n      tag_257\n        /* \"#utility.yul\":8718:8725   */\n      dup8\n        /* \"#utility.yul\":8709:8715   */\n      dup3\n        /* \"#utility.yul\":8698:8707   */\n      dup9\n        /* \"#utility.yul\":8694:8716   */\n      add\n        /* \"#utility.yul\":8673:8726   */\n      tag_118\n      jump\t// in\n    tag_257:\n        /* \"#utility.yul\":8663:8726   */\n      swap3\n      pop\n        /* \"#utility.yul\":8618:8736   */\n      pop\n        /* \"#utility.yul\":8803:8805   */\n      0x60\n        /* \"#utility.yul\":8792:8801   */\n      dup6\n        /* \"#utility.yul\":8788:8806   */\n      add\n        /* \"#utility.yul\":8775:8807   */\n      calldataload\n        /* \"#utility.yul\":8834:8852   */\n      0xffffffffffffffff\n        /* \"#utility.yul\":8826:8832   */\n      dup2\n        /* \"#utility.yul\":8823:8853   */\n      gt\n        /* \"#utility.yul\":8820:8937   */\n      iszero\n      tag_258\n      jumpi\n        /* \"#utility.yul\":8856:8935   */\n      tag_259\n      tag_114\n      jump\t// in\n    tag_259:\n        /* \"#utility.yul\":8820:8937   */\n    tag_258:\n        /* \"#utility.yul\":8961:9024   */\n      tag_260\n        /* \"#utility.yul\":9016:9023   */\n      dup8\n        /* \"#utility.yul\":9007:9013   */\n      dup3\n        /* \"#utility.yul\":8996:9005   */\n      dup9\n        /* \"#utility.yul\":8992:9014   */\n      add\n        /* \"#utility.yul\":8961:9024   */\n      tag_132\n      jump\t// in\n    tag_260:\n        /* \"#utility.yul\":8951:9024   */\n      swap2\n      pop\n        /* \"#utility.yul\":8746:9034   */\n      pop\n        /* \"#utility.yul\":7736:9041   */\n      swap3\n      swap6\n      swap2\n      swap5\n      pop\n      swap3\n      pop\n      jump\t// out\n        /* \"#utility.yul\":9047:9701   */\n    tag_48:\n        /* \"#utility.yul\":9125:9131   */\n      0x00\n        /* \"#utility.yul\":9133:9139   */\n      0x00\n        /* \"#utility.yul\":9182:9184   */\n      0x40\n        /* \"#utility.yul\":9170:9179   */\n      dup4\n        /* \"#utility.yul\":9161:9168   */\n      dup6\n        /* \"#utility.yul\":9157:9180   */\n      sub\n        /* \"#utility.yul\":9153:9185   */\n      slt\n        /* \"#utility.yul\":9150:9269   */\n      iszero\n      tag_262\n      jumpi\n        /* \"#utility.yul\":9188:9267   */\n      tag_263\n      tag_113\n      jump\t// in\n    tag_263:\n        /* \"#utility.yul\":9150:9269   */\n    tag_262:\n        /* \"#utility.yul\":9336:9337   */\n      0x00\n        /* \"#utility.yul\":9325:9334   */\n      dup4\n        /* \"#utility.yul\":9321:9338   */\n      add\n        /* \"#utility.yul\":9308:9339   */\n      calldataload\n        /* \"#utility.yul\":9366:9384   */\n      0xffffffffffffffff\n        /* \"#utility.yul\":9358:9364   */\n      dup2\n        /* \"#utility.yul\":9355:9385   */\n      gt\n        /* \"#utility.yul\":9352:9469   */\n      iszero\n      tag_264\n      jumpi\n        /* \"#utility.yul\":9388:9467   */\n      tag_265\n      tag_114\n      jump\t// in\n    tag_265:\n        /* \"#utility.yul\":9352:9469   */\n    tag_264:\n        /* \"#utility.yul\":9493:9556   */\n      tag_266\n        /* \"#utility.yul\":9548:9555   */\n      dup6\n        /* \"#utility.yul\":9539:9545   */\n      dup3\n        /* \"#utility.yul\":9528:9537   */\n      dup7\n        /* \"#utility.yul\":9524:9546   */\n      add\n        /* \"#utility.yul\":9493:9556   */\n      tag_132\n      jump\t// in\n    tag_266:\n        /* \"#utility.yul\":9483:9556   */\n      swap3\n      pop\n        /* \"#utility.yul\":9279:9566   */\n      pop\n        /* \"#utility.yul\":9605:9607   */\n      0x20\n        /* \"#utility.yul\":9631:9684   */\n      tag_267\n        /* \"#utility.yul\":9676:9683   */\n      dup6\n        /* \"#utility.yul\":9667:9673   */\n      dup3\n        /* \"#utility.yul\":9656:9665   */\n      dup7\n        /* \"#utility.yul\":9652:9674   */\n      add\n        /* \"#utility.yul\":9631:9684   */\n      tag_118\n      jump\t// in\n    tag_267:\n        /* \"#utility.yul\":9621:9684   */\n      swap2\n      pop\n        /* \"#utility.yul\":9576:9694   */\n      pop\n        /* \"#utility.yul\":9047:9701   */\n      swap3\n      pop\n      swap3\n      swap1\n      pop\n      jump\t// out\n        /* \"#utility.yul\":9707:9887   */\n    tag_134:\n        /* \"#utility.yul\":9755:9832   */\n      0x4e487b7100000000000000000000000000000000000000000000000000000000\n        /* \"#utility.yul\":9752:9753   */\n      0x00\n        /* \"#utility.yul\":9745:9833   */\n      mstore\n        /* \"#utility.yul\":9852:9856   */\n      0x22\n        /* \"#utility.yul\":9849:9850   */\n      0x04\n        /* \"#utility.yul\":9842:9857   */\n      mstore\n        /* \"#utility.yul\":9876:9880   */\n      0x24\n        /* \"#utility.yul\":9873:9874   */\n      0x00\n        /* \"#utility.yul\":9866:9881   */\n      revert\n        /* \"#utility.yul\":9893:10213   */\n    tag_52:\n        /* \"#utility.yul\":9937:9943   */\n      0x00\n        /* \"#utility.yul\":9974:9975   */\n      0x02\n        /* \"#utility.yul\":9968:9972   */\n      dup3\n        /* \"#utility.yul\":9964:9976   */\n      div\n        /* \"#utility.yul\":9954:9976   */\n      swap1\n      pop\n        /* \"#utility.yul\":10021:10022   */\n      0x01\n        /* \"#utility.yul\":10015:10019   */\n      dup3\n        /* \"#utility.yul\":10011:10023   */\n      and\n        /* \"#utility.yul\":10042:10060   */\n      dup1\n        /* \"#utility.yul\":10032:10113   */\n      tag_270\n      jumpi\n        /* \"#utility.yul\":10098:10102   */\n      0x7f\n        /* \"#utility.yul\":10090:10096   */\n      dup3\n        /* \"#utility.yul\":10086:10103   */\n      and\n        /* \"#utility.yul\":10076:10103   */\n      swap2\n      pop\n        /* \"#utility.yul\":10032:10113   */\n    tag_270:\n        /* \"#utility.yul\":10160:10162   */\n      0x20\n        /* \"#utility.yul\":10152:10158   */\n      dup3\n        /* \"#utility.yul\":10149:10163   */\n      lt\n        /* \"#utility.yul\":10129:10147   */\n      dup2\n        /* \"#utility.yul\":10126:10164   */\n      sub\n        /* \"#utility.yul\":10123:10207   */\n      tag_271\n      jumpi\n        /* \"#utility.yul\":10179:10197   */\n      tag_272\n      tag_134\n      jump\t// in\n    tag_272:\n        /* \"#utility.yul\":10123:10207   */\n    tag_271:\n        /* \"#utility.yul\":9944:10213   */\n      pop\n        /* \"#utility.yul\":9893:10213   */\n      swap2\n      swap1\n      pop\n      jump\t// out\n        /* \"#utility.yul\":10219:10367   */\n    tag_135:\n        /* \"#utility.yul\":10321:10332   */\n      0x00\n        /* \"#utility.yul\":10358:10361   */\n      dup2\n        /* \"#utility.yul\":10343:10361   */\n      swap1\n      pop\n        /* \"#utility.yul\":10219:10367   */\n      swap3\n      swap2\n      pop\n      pop\n      jump\t// out\n        /* \"#utility.yul\":10373:10763   */\n    tag_136:\n        /* \"#utility.yul\":10479:10482   */\n      0x00\n        /* \"#utility.yul\":10507:10546   */\n      tag_275\n        /* \"#utility.yul\":10540:10545   */\n      dup3\n        /* \"#utility.yul\":10507:10546   */\n      tag_119\n      jump\t// in\n    tag_275:\n        /* \"#utility.yul\":10562:10651   */\n      tag_276\n        /* \"#utility.yul\":10644:10650   */\n      dup2\n        /* \"#utility.yul\":10639:10642   */\n      dup6\n        /* \"#utility.yul\":10562:10651   */\n      tag_135\n      jump\t// in\n    tag_276:\n        /* \"#utility.yul\":10555:10651   */\n      swap4\n      pop\n        /* \"#utility.yul\":10660:10725   */\n      tag_277\n        /* \"#utility.yul\":10718:10724   */\n      dup2\n        /* \"#utility.yul\":10713:10716   */\n      dup6\n        /* \"#utility.yul\":10706:10710   */\n      0x20\n        /* \"#utility.yul\":10699:10704   */\n      dup7\n        /* \"#utility.yul\":10695:10711   */\n      add\n        /* \"#utility.yul\":10660:10725   */\n      tag_121\n      jump\t// in\n    tag_277:\n        /* \"#utility.yul\":10750:10756   */\n      dup1\n        /* \"#utility.yul\":10745:10748   */\n      dup5\n        /* \"#utility.yul\":10741:10757   */\n      add\n        /* \"#utility.yul\":10734:10757   */\n      swap2\n      pop\n        /* \"#utility.yul\":10483:10763   */\n      pop\n        /* \"#utility.yul\":10373:10763   */\n      swap3\n      swap2\n      pop\n      pop\n      jump\t// out\n        /* \"#utility.yul\":10769:11044   */\n    tag_64:\n        /* \"#utility.yul\":10901:10904   */\n      0x00\n        /* \"#utility.yul\":10923:11018   */\n      tag_279\n        /* \"#utility.yul\":11014:11017   */\n      dup3\n        /* \"#utility.yul\":11005:11011   */\n      dup5\n        /* \"#utility.yul\":10923:11018   */\n      tag_136\n      jump\t// in\n    tag_279:\n        /* \"#utility.yul\":10916:11018   */\n      swap2\n      pop\n        /* \"#utility.yul\":11035:11038   */\n      dup2\n        /* \"#utility.yul\":11028:11038   */\n      swap1\n      pop\n        /* \"#utility.yul\":10769:11044   */\n      swap3\n      swap2\n      pop\n      pop\n      jump\t// out\n        /* \"#utility.yul\":11050:11191   */\n    tag_137:\n        /* \"#utility.yul\":11099:11103   */\n      0x00\n        /* \"#utility.yul\":11122:11125   */\n      dup2\n        /* \"#utility.yul\":11114:11125   */\n      swap1\n      pop\n        /* \"#utility.yul\":11145:11148   */\n      dup2\n        /* \"#utility.yul\":11142:11143   */\n      0x00\n        /* \"#utility.yul\":11135:11149   */\n      mstore\n        /* \"#utility.yul\":11179:11183   */\n      0x20\n        /* \"#utility.yul\":11176:11177   */\n      0x00\n        /* \"#utility.yul\":11166:11184   */\n      keccak256\n        /* \"#utility.yul\":11158:11184   */\n      swap1\n      pop\n        /* \"#utility.yul\":11050:11191   */\n      swap2\n      swap1\n      pop\n      jump\t// out\n        /* \"#utility.yul\":11197:11290   */\n    tag_138:\n        /* \"#utility.yul\":11234:11240   */\n      0x00\n        /* \"#utility.yul\":11281:11283   */\n      0x20\n        /* \"#utility.yul\":11276:11278   */\n      0x1f\n        /* \"#utility.yul\":11269:11274   */\n      dup4\n        /* \"#utility.yul\":11265:11279   */\n      add\n        /* \"#utility.yul\":11261:11284   */\n      div\n        /* \"#utility.yul\":11251:11284   */\n      swap1\n      pop\n        /* \"#utility.yul\":11197:11290   */\n      swap2\n      swap1\n      pop\n      jump\t// out\n        /* \"#utility.yul\":11296:11403   */\n    tag_139:\n        /* \"#utility.yul\":11340:11348   */\n      0x00\n        /* \"#utility.yul\":11390:11395   */\n      dup3\n        /* \"#utility.yul\":11384:11388   */\n      dup3\n        /* \"#utility.yul\":11380:11396   */\n      shl\n        /* \"#utility.yul\":11359:11396   */\n      swap1\n      pop\n        /* \"#utility.yul\":11296:11403   */\n      swap3\n      swap2\n      pop\n      pop\n      jump\t// out\n        /* \"#utility.yul\":11409:11802   */\n    tag_140:\n        /* \"#utility.yul\":11478:11484   */\n      0x00\n        /* \"#utility.yul\":11528:11529   */\n      0x08\n        /* \"#utility.yul\":11516:11526   */\n      dup4\n        /* \"#utility.yul\":11512:11530   */\n      mul\n        /* \"#utility.yul\":11551:11648   */\n      tag_284\n        /* \"#utility.yul\":11581:11647   */\n      0xffffffffffffffffffffffffffffffffffffffffffffffffffffffffffffffff\n        /* \"#utility.yul\":11570:11579   */\n      dup3\n        /* \"#utility.yul\":11551:11648   */\n      tag_139\n      jump\t// in\n    tag_284:\n        /* \"#utility.yul\":11669:11708   */\n      tag_285\n        /* \"#utility.yul\":11699:11707   */\n      dup7\n        /* \"#utility.yul\":11688:11697   */\n      dup4\n        /* \"#utility.yul\":11669:11708   */\n      tag_139\n      jump\t// in\n    tag_285:\n        /* \"#utility.yul\":11657:11708   */\n      swap6\n      pop\n        /* \"#utility.yul\":11741:11745   */\n      dup1\n        /* \"#utility.yul\":11737:11746   */\n      not\n        /* \"#utility.yul\":11730:11735   */\n      dup5\n        /* \"#utility.yul\":11726:11747   */\n      and\n        /* \"#utility.yul\":11717:11747   */\n      swap4\n      pop\n        /* \"#utility.yul\":11790:11794   */\n      dup1\n        /* \"#utility.yul\":11780:11788   */\n      dup7\n        /* \"#utility.yul\":11776:11795   */\n      and\n        /* \"#utility.yul\":11769:11774   */\n      dup5\n        /* \"#utility.yul\":11766:11796   */\n      or\n        /* \"#utility.yul\":11756:11796   */\n      swap3\n      pop\n        /* \"#utility.yul\":11485:11802   */\n      pop\n      pop\n        /* \"#utility.yul\":11409:11802   */\n      swap4\n      swap3\n      pop\n      pop\n      pop\n      jump\t// out\n        /* \"#utility.yul\":11808:11885   */\n    tag_141:\n        /* \"#utility.yul\":11845:11852   */\n      0x00\n        /* \"#utility.yul\":11874:11879   */\n      dup2\n        /* \"#utility.yul\":11863:11879   */\n      swap1\n      pop\n        /* \"#utility.yul\":11808:11885   */\n      swap2\n      swap1\n      pop\n      jump\t// out\n        /* \"#utility.yul\":11891:11951   */\n    tag_142:\n        /* \"#utility.yul\":11919:11922   */\n      0x00\n        /* \"#utility.yul\":11940:11945   */\n      dup2\n        /* \"#utility.yul\":11933:11945   */\n      swap1\n      pop\n        /* \"#utility.yul\":11891:11951   */\n      swap2\n      swap1\n      pop\n      jump\t// out\n        /* \"#utility.yul\":11957:12099   */\n    tag_143:\n        /* \"#utility.yul\":12007:12016   */\n      0x00\n        /* \"#utility.yul\":12040:12093   */\n      tag_289\n        /* \"#utility.yul\":12058:12092   */\n      tag_290\n        /* \"#utility.yul\":12067:12091   */\n      tag_291\n        /* \"#utility.yul\":12085:12090   */\n      dup5\n        /* \"#utility.yul\":12067:12091   */\n      tag_141\n      jump\t// in\n    tag_291:\n        /* \"#utility.yul\":12058:12092   */\n      tag_142\n      jump\t// in\n    tag_290:\n        /* \"#utility.yul\":12040:12093   */\n      tag_141\n      jump\t// in\n    tag_289:\n        /* \"#utility.yul\":12027:12093   */\n      swap1\n      pop\n        /* \"#utility.yul\":11957:12099   */\n      swap2\n      swap1\n      pop\n      jump\t// out\n        /* \"#utility.yul\":12105:12180   */\n    tag_144:\n        /* \"#utility.yul\":12148:12151   */\n      0x00\n        /* \"#utility.yul\":12169:12174   */\n      dup2\n        /* \"#utility.yul\":12162:12174   */\n      swap1\n      pop\n        /* \"#utility.yul\":12105:12180   */\n      swap2\n      swap1\n      pop\n      jump\t// out\n        /* \"#utility.yul\":12186:12455   */\n    tag_145:\n        /* \"#utility.yul\":12296:12335   */\n      tag_294\n        /* \"#utility.yul\":12327:12334   */\n      dup4\n        /* \"#utility.yul\":12296:12335   */\n      tag_143\n      jump\t// in\n    tag_294:\n        /* \"#utility.yul\":12357:12448   */\n      tag_295\n        /* \"#utility.yul\":12406:12447   */\n      tag_296\n        /* \"#utility.yul\":12430:12446   */\n      dup3\n        /* \"#utility.yul\":12406:12447   */\n      tag_144\n      jump\t// in\n    tag_296:\n        /* \"#utility.yul\":12398:12404   */\n      dup5\n        /* \"#utility.yul\":12391:12395   */\n      dup5\n        /* \"#utility.yul\":12385:12396   */\n      sload\n        /* \"#utility.yul\":12357:12448   */\n      tag_140\n      jump\t// in\n    tag_295:\n        /* \"#utility.yul\":12351:12355   */\n      dup3\n        /* \"#utility.yul\":12344:12449   */\n      sstore\n        /* \"#utility.yul\":12262:12455   */\n      pop\n        /* \"#utility.yul\":12186:12455   */\n      pop\n      pop\n      pop\n      jump\t// out\n        /* \"#utility.yul\":12461:12534   */\n    tag_146:\n        /* \"#utility.yul\":12506:12509   */\n      0x00\n        /* \"#utility.yul\":12527:12528   */\n      0x00\n        /* \"#utility.yul\":12520:12528   */\n      swap1\n      pop\n        /* \"#utility.yul\":12461:12534   */\n      swap1\n      jump\t// out\n        /* \"#utility.yul\":12540:12729   */\n    tag_147:\n        /* \"#utility.yul\":12617:12649   */\n      tag_299\n      tag_146\n      jump\t// in\n    tag_299:\n        /* \"#utility.yul\":12658:12723   */\n      tag_300\n        /* \"#utility.yul\":12716:12722   */\n      dup2\n        /* \"#utility.yul\":12708:12714   */\n      dup5\n        /* \"#utility.yul\":12702:12706   */\n      dup5\n        /* \"#utility.yul\":12658:12723   */\n      tag_145\n      jump\t// in\n    tag_300:\n        /* \"#utility.yul\":12593:12729   */\n      pop\n        /* \"#utility.yul\":12540:12729   */\n      pop\n      pop\n      jump\t// out\n        /* \"#utility.yul\":12735:12921   */\n    tag_148:\n        /* \"#utility.yul\":12795:12915   */\n    tag_302:\n        /* \"#utility.yul\":12812:12815   */\n      dup2\n        /* \"#utility.yul\":12805:12810   */\n      dup2\n        /* \"#utility.yul\":12802:12816   */\n      lt\n        /* \"#utility.yul\":12795:12915   */\n      iszero\n      tag_304\n      jumpi\n        /* \"#utility.yul\":12866:12905   */\n      tag_305\n        /* \"#utility.yul\":12903:12904   */\n      0x00\n        /* \"#utility.yul\":12896:12901   */\n      dup3\n        /* \"#utility.yul\":12866:12905   */\n      tag_147\n      jump\t// in\n    tag_305:\n        /* \"#utility.yul\":12839:12840   */\n      0x01\n        /* \"#utility.yul\":12832:12837   */\n      dup2\n        /* \"#utility.yul\":12828:12841   */\n      add\n        /* \"#utility.yul\":12819:12841   */\n      swap1\n      pop\n        /* \"#utility.yul\":12795:12915   */\n      jump(tag_302)\n    tag_304:\n        /* \"#utility.yul\":12735:12921   */\n      pop\n      pop\n      jump\t// out\n        /* \"#utility.yul\":12927:13470   */\n    tag_149:\n        /* \"#utility.yul\":13028:13030   */\n      0x1f\n        /* \"#utility.yul\":13023:13026   */\n      dup3\n        /* \"#utility.yul\":13020:13031   */\n      gt\n        /* \"#utility.yul\":13017:13463   */\n      iszero\n      tag_307\n      jumpi\n        /* \"#utility.yul\":13062:13100   */\n      tag_308\n        /* \"#utility.yul\":13094:13099   */\n      dup2\n        /* \"#utility.yul\":13062:13100   */\n      tag_137\n      jump\t// in\n    tag_308:\n        /* \"#utility.yul\":13146:13175   */\n      tag_309\n        /* \"#utility.yul\":13164:13174   */\n      dup5\n        /* \"#utility.yul\":13146:13175   */\n      tag_138\n      jump\t// in\n    tag_309:\n        /* \"#utility.yul\":13136:13144   */\n      dup2\n        /* \"#utility.yul\":13132:13176   */\n      add\n        /* \"#utility.yul\":13329:13331   */\n      0x20\n        /* \"#utility.yul\":13317:13327   */\n      dup6\n        /* \"#utility.yul\":13314:13332   */\n      lt\n        /* \"#utility.yul\":13311:13360   */\n      iszero\n      tag_310\n      jumpi\n        /* \"#utility.yul\":13350:13358   */\n      dup2\n        /* \"#utility.yul\":13335:13358   */\n      swap1\n      pop\n        /* \"#utility.yul\":13311:13360   */\n    tag_310:\n        /* \"#utility.yul\":13373:13453   */\n      tag_311\n        /* \"#utility.yul\":13429:13451   */\n      tag_312\n        /* \"#utility.yul\":13447:13450   */\n      dup6\n        /* \"#utility.yul\":13429:13451   */\n      tag_138\n      jump\t// in\n    tag_312:\n        /* \"#utility.yul\":13419:13427   */\n      dup4\n        /* \"#utility.yul\":13415:13452   */\n      add\n        /* \"#utility.yul\":13402:13413   */\n      dup3\n        /* \"#utility.yul\":13373:13453   */\n      tag_148\n      jump\t// in\n    tag_311:\n        /* \"#utility.yul\":13032:13463   */\n      pop\n      pop\n        /* \"#utility.yul\":13017:13463   */\n    tag_307:\n        /* \"#utility.yul\":12927:13470   */\n      pop\n      pop\n      pop\n      jump\t// out\n        /* \"#utility.yul\":13476:13593   */\n    tag_150:\n        /* \"#utility.yul\":13530:13538   */\n      0x00\n        /* \"#utility.yul\":13580:13585   */\n      dup3\n        /* \"#utility.yul\":13574:13578   */\n      dup3\n        /* \"#utility.yul\":13570:13586   */\n      shr\n        /* \"#utility.yul\":13549:13586   */\n      swap1\n      pop\n        /* \"#utility.yul\":13476:13593   */\n      swap3\n      swap2\n      pop\n      pop\n      jump\t// out\n        /* \"#utility.yul\":13599:13768   */\n    tag_151:\n        /* \"#utility.yul\":13643:13649   */\n      0x00\n        /* \"#utility.yul\":13676:13727   */\n      tag_315\n        /* \"#utility.yul\":13724:13725   */\n      0x00\n        /* \"#utility.yul\":13720:13726   */\n      not\n        /* \"#utility.yul\":13712:13717   */\n      dup5\n        /* \"#utility.yul\":13709:13710   */\n      0x08\n        /* \"#utility.yul\":13705:13718   */\n      mul\n        /* \"#utility.yul\":13676:13727   */\n      tag_150\n      jump\t// in\n    tag_315:\n        /* \"#utility.yul\":13672:13728   */\n      not\n        /* \"#utility.yul\":13757:13761   */\n      dup1\n        /* \"#utility.yul\":13751:13755   */\n      dup4\n        /* \"#utility.yul\":13747:13762   */\n      and\n        /* \"#utility.yul\":13737:13762   */\n      swap2\n      pop\n        /* \"#utility.yul\":13650:13768   */\n      pop\n        /* \"#utility.yul\":13599:13768   */\n      swap3\n      swap2\n      pop\n      pop\n      jump\t// out\n        /* \"#utility.yul\":13773:14068   */\n    tag_152:\n        /* \"#utility.yul\":13849:13853   */\n      0x00\n        /* \"#utility.yul\":13995:14024   */\n      tag_317\n        /* \"#utility.yul\":14020:14023   */\n      dup4\n        /* \"#utility.yul\":14014:14018   */\n      dup4\n        /* \"#utility.yul\":13995:14024   */\n      tag_151\n      jump\t// in\n    tag_317:\n        /* \"#utility.yul\":13987:14024   */\n      swap2\n      pop\n        /* \"#utility.yul\":14057:14060   */\n      dup3\n        /* \"#utility.yul\":14054:14055   */\n      0x02\n        /* \"#utility.yul\":14050:14061   */\n      mul\n        /* \"#utility.yul\":14044:14048   */\n      dup3\n        /* \"#utility.yul\":14041:14062   */\n      or\n        /* \"#utility.yul\":14033:14062   */\n      swap1\n      pop\n        /* \"#utility.yul\":13773:14068   */\n      swap3\n      swap2\n      pop\n      pop\n      jump\t// out\n        /* \"#utility.yul\":14073:15468   */\n    tag_67:\n        /* \"#utility.yul\":14190:14227   */\n      tag_319\n        /* \"#utility.yul\":14223:14226   */\n      dup3\n        /* \"#utility.yul\":14190:14227   */\n      tag_119\n      jump\t// in\n    tag_319:\n        /* \"#utility.yul\":14292:14310   */\n      0xffffffffffffffff\n        /* \"#utility.yul\":14284:14290   */\n      dup2\n        /* \"#utility.yul\":14281:14311   */\n      gt\n        /* \"#utility.yul\":14278:14334   */\n      iszero\n      tag_320\n      jumpi\n        /* \"#utility.yul\":14314:14332   */\n      tag_321\n      tag_126\n      jump\t// in\n    tag_321:\n        /* \"#utility.yul\":14278:14334   */\n    tag_320:\n        /* \"#utility.yul\":14358:14396   */\n      tag_322\n        /* \"#utility.yul\":14390:14394   */\n      dup3\n        /* \"#utility.yul\":14384:14395   */\n      sload\n        /* \"#utility.yul\":14358:14396   */\n      tag_52\n      jump\t// in\n    tag_322:\n        /* \"#utility.yul\":14443:14510   */\n      tag_323\n        /* \"#utility.yul\":14503:14509   */\n      dup3\n        /* \"#utility.yul\":14495:14501   */\n      dup3\n        /* \"#utility.yul\":14489:14493   */\n      dup6\n        /* \"#utility.yul\":14443:14510   */\n      tag_149\n      jump\t// in\n    tag_323:\n        /* \"#utility.yul\":14537:14538   */\n      0x00\n        /* \"#utility.yul\":14561:14565   */\n      0x20\n        /* \"#utility.yul\":14548:14565   */\n      swap1\n      pop\n        /* \"#utility.yul\":14593:14595   */\n      0x1f\n        /* \"#utility.yul\":14585:14591   */\n      dup4\n        /* \"#utility.yul\":14582:14596   */\n      gt\n        /* \"#utility.yul\":14610:14611   */\n      0x01\n        /* \"#utility.yul\":14605:15223   */\n      dup2\n      eq\n      tag_325\n      jumpi\n        /* \"#utility.yul\":15267:15268   */\n      0x00\n        /* \"#utility.yul\":15284:15290   */\n      dup5\n        /* \"#utility.yul\":15281:15358   */\n      iszero\n      tag_326\n      jumpi\n        /* \"#utility.yul\":15333:15342   */\n      dup3\n        /* \"#utility.yul\":15328:15331   */\n      dup8\n        /* \"#utility.yul\":15324:15343   */\n      add\n        /* \"#utility.yul\":15318:15344   */\n      mload\n        /* \"#utility.yul\":15309:15344   */\n      swap1\n      pop\n        /* \"#utility.yul\":15281:15358   */\n    tag_326:\n        /* \"#utility.yul\":15384:15451   */\n      tag_327\n        /* \"#utility.yul\":15444:15450   */\n      dup6\n        /* \"#utility.yul\":15437:15442   */\n      dup3\n        /* \"#utility.yul\":15384:15451   */\n      tag_152\n      jump\t// in\n    tag_327:\n        /* \"#utility.yul\":15378:15382   */\n      dup7\n        /* \"#utility.yul\":15371:15452   */\n      sstore\n        /* \"#utility.yul\":15240:15462   */\n      pop\n        /* \"#utility.yul\":14575:15462   */\n      jump(tag_324)\n        /* \"#utility.yul\":14605:15223   */\n    tag_325:\n        /* \"#utility.yul\":14657:14661   */\n      0x1f\n        /* \"#utility.yul\":14653:14662   */\n      not\n        /* \"#utility.yul\":14645:14651   */\n      dup5\n        /* \"#utility.yul\":14641:14663   */\n      and\n        /* \"#utility.yul\":14691:14728   */\n      tag_328\n        /* \"#utility.yul\":14723:14727   */\n      dup7\n        /* \"#utility.yul\":14691:14728   */\n      tag_137\n      jump\t// in\n    tag_328:\n        /* \"#utility.yul\":14750:14751   */\n      0x00\n        /* \"#utility.yul\":14764:14972   */\n    tag_329:\n        /* \"#utility.yul\":14778:14785   */\n      dup3\n        /* \"#utility.yul\":14775:14776   */\n      dup2\n        /* \"#utility.yul\":14772:14786   */\n      lt\n        /* \"#utility.yul\":14764:14972   */\n      iszero\n      tag_331\n      jumpi\n        /* \"#utility.yul\":14857:14866   */\n      dup5\n        /* \"#utility.yul\":14852:14855   */\n      dup10\n        /* \"#utility.yul\":14848:14867   */\n      add\n        /* \"#utility.yul\":14842:14868   */\n      mload\n        /* \"#utility.yul\":14834:14840   */\n      dup3\n        /* \"#utility.yul\":14827:14869   */\n      sstore\n        /* \"#utility.yul\":14908:14909   */\n      0x01\n        /* \"#utility.yul\":14900:14906   */\n      dup3\n        /* \"#utility.yul\":14896:14910   */\n      add\n        /* \"#utility.yul\":14886:14910   */\n      swap2\n      pop\n        /* \"#utility.yul\":14955:14957   */\n      0x20\n        /* \"#utility.yul\":14944:14953   */\n      dup6\n        /* \"#utility.yul\":14940:14958   */\n      add\n        /* \"#utility.yul\":14927:14958   */\n      swap5\n      pop\n        /* \"#utility.yul\":14801:14805   */\n      0x20\n        /* \"#utility.yul\":14798:14799   */\n      dup2\n        /* \"#utility.yul\":14794:14806   */\n      add\n        /* \"#utility.yul\":14789:14806   */\n      swap1\n      pop\n        /* \"#utility.yul\":14764:14972   */\n      jump(tag_329)\n    tag_331:\n        /* \"#utility.yul\":15000:15006   */\n      dup7\n        /* \"#utility.yul\":14991:14998   */\n      dup4\n        /* \"#utility.yul\":14988:15007   */\n      lt\n        /* \"#utility.yul\":14985:15164   */\n      iszero\n      tag_332\n      jumpi\n        /* \"#utility.yul\":15058:15067   */\n      dup5\n        /* \"#utility.yul\":15053:15056   */\n      dup10\n        /* \"#utility.yul\":15049:15068   */\n      add\n        /* \"#utility.yul\":15043:15069   */\n      mload\n        /* \"#utility.yul\":15101:15149   */\n      tag_333\n        /* \"#utility.yul\":15143:15147   */\n      0x1f\n        /* \"#utility.yul\":15135:15141   */\n      dup10\n        /* \"#utility.yul\":15131:15148   */\n      and\n        /* \"#utility.yul\":15120:15129   */\n      dup3\n        /* \"#utility.yul\":15101:15149   */\n      tag_151\n      jump\t// in\n    tag_333:\n        /* \"#utility.yul\":15093:15099   */\n      dup4\n        /* \"#utility.yul\":15086:15150   */\n      sstore\n        /* \"#utility.yul\":15008:15164   */\n      pop\n        /* \"#utility.yul\":14985:15164   */\n    tag_332:\n        /* \"#utility.yul\":15210:15211   */\n      0x01\n        /* \"#utility.yul\":15206:15207   */\n      0x02\n        /* \"#utility.yul\":15198:15204   */\n      dup9\n        /* \"#utility.yul\":15194:15208   */\n      mul\n        /* \"#utility.yul\":15190:15212   */\n      add\n        /* \"#utility.yul\":15184:15188   */\n      dup9\n        /* \"#utility.yul\":15177:15213   */\n      sstore\n        /* \"#utility.yul\":14612:15223   */\n      pop\n      pop\n      pop\n        /* \"#utility.yul\":14575:15462   */\n    tag_324:\n      pop\n        /* \"#utility.yul\":14165:15468   */\n      pop\n      pop\n      pop\n        /* \"#utility.yul\":14073:15468   */\n      pop\n      pop\n      jump\t// out\n        /* \"#utility.yul\":15474:15645   */\n    tag_153:\n        /* \"#utility.yul\":15614:15637   */\n      0x506c7567696e206e6f7420726567697374657265640000000000000000000000\n        /* \"#utility.yul\":15610:15611   */\n      0x00\n        /* \"#utility.yul\":15602:15608   */\n      dup3\n        /* \"#utility.yul\":15598:15612   */\n      add\n        /* \"#utility.yul\":15591:15638   */\n      mstore\n        /* \"#utility.yul\":15474:15645   */\n      pop\n      jump\t// out\n        /* \"#utility.yul\":15651:16017   */\n    tag_154:\n        /* \"#utility.yul\":15793:15796   */\n      0x00\n        /* \"#utility.yul\":15814:15881   */\n      tag_336\n        /* \"#utility.yul\":15878:15880   */\n      0x15\n        /* \"#utility.yul\":15873:15876   */\n      dup4\n        /* \"#utility.yul\":15814:15881   */\n      tag_120\n      jump\t// in\n    tag_336:\n        /* \"#utility.yul\":15807:15881   */\n      swap2\n      pop\n        /* \"#utility.yul\":15890:15983   */\n      tag_337\n        /* \"#utility.yul\":15979:15982   */\n      dup3\n        /* \"#utility.yul\":15890:15983   */\n      tag_153\n      jump\t// in\n    tag_337:\n        /* \"#utility.yul\":16008:16010   */\n      0x20\n        /* \"#utility.yul\":16003:16006   */\n      dup3\n        /* \"#utility.yul\":15999:16011   */\n      add\n        /* \"#utility.yul\":15992:16011   */\n      swap1\n      pop\n        /* \"#utility.yul\":15651:16017   */\n      swap2\n      swap1\n      pop\n      jump\t// out\n        /* \"#utility.yul\":16023:16442   */\n    tag_73:\n        /* \"#utility.yul\":16189:16193   */\n      0x00\n        /* \"#utility.yul\":16227:16229   */\n      0x20\n        /* \"#utility.yul\":16216:16225   */\n      dup3\n        /* \"#utility.yul\":16212:16230   */\n      add\n        /* \"#utility.yul\":16204:16230   */\n      swap1\n      pop\n        /* \"#utility.yul\":16276:16285   */\n      dup2\n        /* \"#utility.yul\":16270:16274   */\n      dup2\n        /* \"#utility.yul\":16266:16286   */\n      sub\n        /* \"#utility.yul\":16262:16263   */\n      0x00\n        /* \"#utility.yul\":16251:16260   */\n      dup4\n        /* \"#utility.yul\":16247:16264   */\n      add\n        /* \"#utility.yul\":16240:16287   */\n      mstore\n        /* \"#utility.yul\":16304:16435   */\n      tag_339\n        /* \"#utility.yul\":16430:16434   */\n      dup2\n        /* \"#utility.yul\":16304:16435   */\n      tag_154\n      jump\t// in\n    tag_339:\n        /* \"#utility.yul\":16296:16435   */\n      swap1\n      pop\n        /* \"#utility.yul\":16023:16442   */\n      swap2\n      swap1\n      pop\n      jump\t// out\n        /* \"#utility.yul\":16448:16546   */\n    tag_155:\n        /* \"#utility.yul\":16499:16505   */\n      0x00\n        /* \"#utility.yul\":16533:16538   */\n      dup2\n        /* \"#utility.yul\":16527:16539   */\n      mload\n        /* \"#utility.yul\":16517:16539   */\n      swap1\n      pop\n        /* \"#utility.yul\":16448:16546   */\n      swap2\n      swap1\n      pop\n      jump\t// out\n        /* \"#utility.yul\":16552:16699   */\n    tag_156:\n        /* \"#utility.yul\":16653:16664   */\n      0x00\n        /* \"#utility.yul\":16690:16693   */\n      dup2\n        /* \"#utility.yul\":16675:16693   */\n      swap1\n      pop\n        /* \"#utility.yul\":16552:16699   */\n      swap3\n      swap2\n      pop\n      pop\n      jump\t// out\n        /* \"#utility.yul\":16705:17091   */\n    tag_157:\n        /* \"#utility.yul\":16809:16812   */\n      0x00\n        /* \"#utility.yul\":16837:16875   */\n      tag_343\n        /* \"#utility.yul\":16869:16874   */\n      dup3\n        /* \"#utility.yul\":16837:16875   */\n      tag_155\n      jump\t// in\n    tag_343:\n        /* \"#utility.yul\":16891:16979   */\n      tag_344\n        /* \"#utility.yul\":16972:16978   */\n      dup2\n        /* \"#utility.yul\":16967:16970   */\n      dup6\n        /* \"#utility.yul\":16891:16979   */\n      tag_156\n      jump\t// in\n    tag_344:\n        /* \"#utility.yul\":16884:16979   */\n      swap4\n      pop\n        /* \"#utility.yul\":16988:17053   */\n      tag_345\n        /* \"#utility.yul\":17046:17052   */\n      dup2\n        /* \"#utility.yul\":17041:17044   */\n      dup6\n        /* \"#utility.yul\":17034:17038   */\n      0x20\n        /* \"#utility.yul\":17027:17032   */\n      dup7\n        /* \"#utility.yul\":17023:17039   */\n      add\n        /* \"#utility.yul\":16988:17053   */\n      tag_121\n      jump\t// in\n    tag_345:\n        /* \"#utility.yul\":17078:17084   */\n      dup1\n        /* \"#utility.yul\":17073:17076   */\n      dup5\n        /* \"#utility.yul\":17069:17085   */\n      add\n        /* \"#utility.yul\":17062:17085   */\n      swap2\n      pop\n        /* \"#utility.yul\":16813:17091   */\n      pop\n        /* \"#utility.yul\":16705:17091   */\n      swap3\n      swap2\n      pop\n      pop\n      jump\t// out\n        /* \"#utility.yul\":17097:17368   */\n    tag_77:\n        /* \"#utility.yul\":17227:17230   */\n      0x00\n        /* \"#utility.yul\":17249:17342   */\n      tag_347\n        /* \"#utility.yul\":17338:17341   */\n      dup3\n        /* \"#utility.yul\":17329:17335   */\n      dup5\n        /* \"#utility.yul\":17249:17342   */\n      tag_157\n      jump\t// in\n    tag_347:\n        /* \"#utility.yul\":17242:17342   */\n      swap2\n      pop\n        /* \"#utility.yul\":17359:17362   */\n      dup2\n        /* \"#utility.yul\":17352:17362   */\n      swap1\n      pop\n        /* \"#utility.yul\":17097:17368   */\n      swap3\n      swap2\n      pop\n      pop\n      jump\t// out\n        /* \"#utility.yul\":17374:17546   */\n    tag_158:\n        /* \"#utility.yul\":17514:17538   */\n      0x506c7567696e20766965772063616c6c20666169656400000000000000000000\n        /* \"#utility.yul\":17510:17511   */\n      0x00\n        /* \"#utility.yul\":17502:17508   */\n      dup3\n        /* \"#utility.yul\":17498:17512   */\n      add\n        /* \"#utility.yul\":17491:17539   */\n      mstore\n        /* \"#utility.yul\":17374:17546   */\n      pop\n      jump\t// out\n        /* \"#utility.yul\":17552:17918   */\n    tag_159:\n        /* \"#utility.yul\":17694:17697   */\n      0x00\n        /* \"#utility.yul\":17715:17782   */\n      tag_350\n        /* \"#utility.yul\":17779:17781   */\n      0x16\n        /* \"#utility.yul\":17774:17777   */\n      dup4\n        /* \"#utility.yul\":17715:17782   */\n      tag_120\n      jump\t// in\n    tag_350:\n        /* \"#utility.yul\":17708:17782   */\n      swap2\n      pop\n        /* \"#utility.yul\":17791:17884   */\n      tag_351\n        /* \"#utility.yul\":17880:17883   */\n      dup3\n        /* \"#utility.yul\":17791:17884   */\n      tag_158\n      jump\t// in\n    tag_351:\n        /* \"#utility.yul\":17909:17911   */\n      0x20\n        /* \"#utility.yul\":17904:17907   */\n      dup3\n        /* \"#utility.yul\":17900:17912   */\n      add\n        /* \"#utility.yul\":17893:17912   */\n      swap1\n      pop\n        /* \"#utility.yul\":17552:17918   */\n      swap2\n      swap1\n      pop\n      jump\t// out\n        /* \"#utility.yul\":17924:18343   */\n    tag_83:\n        /* \"#utility.yul\":18090:18094   */\n      0x00\n        /* \"#utility.yul\":18128:18130   */\n      0x20\n        /* \"#utility.yul\":18117:18126   */\n      dup3\n        /* \"#utility.yul\":18113:18131   */\n      add\n        /* \"#utility.yul\":18105:18131   */\n      swap1\n      pop\n        /* \"#utility.yul\":18177:18186   */\n      dup2\n        /* \"#utility.yul\":18171:18175   */\n      dup2\n        /* \"#utility.yul\":18167:18187   */\n      sub\n        /* \"#utility.yul\":18163:18164   */\n      0x00\n        /* \"#utility.yul\":18152:18161   */\n      dup4\n        /* \"#utility.yul\":18148:18165   */\n      add\n        /* \"#utility.yul\":18141:18188   */\n      mstore\n        /* \"#utility.yul\":18205:18336   */\n      tag_353\n        /* \"#utility.yul\":18331:18335   */\n      dup2\n        /* \"#utility.yul\":18205:18336   */\n      tag_159\n      jump\t// in\n    tag_353:\n        /* \"#utility.yul\":18197:18336   */\n      swap1\n      pop\n        /* \"#utility.yul\":17924:18343   */\n      swap2\n      swap1\n      pop\n      jump\t// out\n        /* \"#utility.yul\":18349:18783   */\n    tag_160:\n        /* \"#utility.yul\":18438:18443   */\n      0x00\n        /* \"#utility.yul\":18463:18529   */\n      tag_355\n        /* \"#utility.yul\":18479:18528   */\n      tag_356\n        /* \"#utility.yul\":18521:18527   */\n      dup5\n        /* \"#utility.yul\":18479:18528   */\n      tag_129\n      jump\t// in\n    tag_356:\n        /* \"#utility.yul\":18463:18529   */\n      tag_128\n      jump\t// in\n    tag_355:\n        /* \"#utility.yul\":18454:18529   */\n      swap1\n      pop\n        /* \"#utility.yul\":18552:18558   */\n      dup3\n        /* \"#utility.yul\":18545:18550   */\n      dup2\n        /* \"#utility.yul\":18538:18559   */\n      mstore\n        /* \"#utility.yul\":18590:18594   */\n      0x20\n        /* \"#utility.yul\":18583:18588   */\n      dup2\n        /* \"#utility.yul\":18579:18595   */\n      add\n        /* \"#utility.yul\":18628:18631   */\n      dup5\n        /* \"#utility.yul\":18619:18625   */\n      dup5\n        /* \"#utility.yul\":18614:18617   */\n      dup5\n        /* \"#utility.yul\":18610:18626   */\n      add\n        /* \"#utility.yul\":18607:18632   */\n      gt\n        /* \"#utility.yul\":18604:18716   */\n      iszero\n      tag_357\n      jumpi\n        /* \"#utility.yul\":18635:18714   */\n      tag_358\n      tag_125\n      jump\t// in\n    tag_358:\n        /* \"#utility.yul\":18604:18716   */\n    tag_357:\n        /* \"#utility.yul\":18725:18777   */\n      tag_359\n        /* \"#utility.yul\":18770:18776   */\n      dup5\n        /* \"#utility.yul\":18765:18768   */\n      dup3\n        /* \"#utility.yul\":18760:18763   */\n      dup6\n        /* \"#utility.yul\":18725:18777   */\n      tag_121\n      jump\t// in\n    tag_359:\n        /* \"#utility.yul\":18444:18783   */\n      pop\n        /* \"#utility.yul\":18349:18783   */\n      swap4\n      swap3\n      pop\n      pop\n      pop\n      jump\t// out\n        /* \"#utility.yul\":18803:19158   */\n    tag_161:\n        /* \"#utility.yul\":18870:18875   */\n      0x00\n        /* \"#utility.yul\":18919:18922   */\n      dup3\n        /* \"#utility.yul\":18912:18916   */\n      0x1f\n        /* \"#utility.yul\":18904:18910   */\n      dup4\n        /* \"#utility.yul\":18900:18917   */\n      add\n        /* \"#utility.yul\":18896:18923   */\n      slt\n        /* \"#utility.yul\":18886:19008   */\n      tag_361\n      jumpi\n        /* \"#utility.yul\":18927:19006   */\n      tag_362\n      tag_124\n      jump\t// in\n    tag_362:\n        /* \"#utility.yul\":18886:19008   */\n    tag_361:\n        /* \"#utility.yul\":19037:19043   */\n      dup2\n        /* \"#utility.yul\":19031:19044   */\n      mload\n        /* \"#utility.yul\":19062:19152   */\n      tag_363\n        /* \"#utility.yul\":19148:19151   */\n      dup5\n        /* \"#utility.yul\":19140:19146   */\n      dup3\n        /* \"#utility.yul\":19133:19137   */\n      0x20\n        /* \"#utility.yul\":19125:19131   */\n      dup7\n        /* \"#utility.yul\":19121:19138   */\n      add\n        /* \"#utility.yul\":19062:19152   */\n      tag_160\n      jump\t// in\n    tag_363:\n        /* \"#utility.yul\":19053:19152   */\n      swap2\n      pop\n        /* \"#utility.yul\":18876:19158   */\n      pop\n        /* \"#utility.yul\":18803:19158   */\n      swap3\n      swap2\n      pop\n      pop\n      jump\t// out\n        /* \"#utility.yul\":19164:19688   */\n    tag_85:\n        /* \"#utility.yul\":19244:19250   */\n      0x00\n        /* \"#utility.yul\":19293:19295   */\n      0x20\n        /* \"#utility.yul\":19281:19290   */\n      dup3\n        /* \"#utility.yul\":19272:19279   */\n      dup5\n        /* \"#utility.yul\":19268:19291   */\n      sub\n        /* \"#utility.yul\":19264:19296   */\n      slt\n        /* \"#utility.yul\":19261:19380   */\n      iszero\n      tag_365\n      jumpi\n        /* \"#utility.yul\":19299:19378   */\n      tag_366\n      tag_113\n      jump\t// in\n    tag_366:\n        /* \"#utility.yul\":19261:19380   */\n    tag_365:\n        /* \"#utility.yul\":19440:19441   */\n      0x00\n        /* \"#utility.yul\":19429:19438   */\n      dup3\n        /* \"#utility.yul\":19425:19442   */\n      add\n        /* \"#utility.yul\":19419:19443   */\n      mload\n        /* \"#utility.yul\":19470:19488   */\n      0xffffffffffffffff\n        /* \"#utility.yul\":19462:19468   */\n      dup2\n        /* \"#utility.yul\":19459:19489   */\n      gt\n        /* \"#utility.yul\":19456:19573   */\n      iszero\n      tag_367\n      jumpi\n        /* \"#utility.yul\":19492:19571   */\n      tag_368\n      tag_114\n      jump\t// in\n    tag_368:\n        /* \"#utility.yul\":19456:19573   */\n    tag_367:\n        /* \"#utility.yul\":19597:19671   */\n      tag_369\n        /* \"#utility.yul\":19663:19670   */\n      dup5\n        /* \"#utility.yul\":19654:19660   */\n      dup3\n        /* \"#utility.yul\":19643:19652   */\n      dup6\n        /* \"#utility.yul\":19639:19661   */\n      add\n        /* \"#utility.yul\":19597:19671   */\n      tag_161\n      jump\t// in\n    tag_369:\n        /* \"#utility.yul\":19587:19671   */\n      swap2\n      pop\n        /* \"#utility.yul\":19390:19681   */\n      pop\n        /* \"#utility.yul\":19164:19688   */\n      swap3\n      swap2\n      pop\n      pop\n      jump\t// out\n        /* \"#utility.yul\":19694:20117   */\n    tag_91:\n        /* \"#utility.yul\":19835:19839   */\n      0x00\n        /* \"#utility.yul\":19873:19875   */\n      0x40\n        /* \"#utility.yul\":19862:19871   */\n      dup3\n        /* \"#utility.yul\":19858:19876   */\n      add\n        /* \"#utility.yul\":19850:19876   */\n      swap1\n      pop\n        /* \"#utility.yul\":19886:19957   */\n      tag_371\n        /* \"#utility.yul\":19954:19955   */\n      0x00\n        /* \"#utility.yul\":19943:19952   */\n      dup4\n        /* \"#utility.yul\":19939:19956   */\n      add\n        /* \"#utility.yul\":19930:19936   */\n      dup6\n        /* \"#utility.yul\":19886:19957   */\n      tag_133\n      jump\t// in\n    tag_371:\n        /* \"#utility.yul\":20004:20013   */\n      dup2\n        /* \"#utility.yul\":19998:20002   */\n      dup2\n        /* \"#utility.yul\":19994:20014   */\n      sub\n        /* \"#utility.yul\":19989:19991   */\n      0x20\n        /* \"#utility.yul\":19978:19987   */\n      dup4\n        /* \"#utility.yul\":19974:19992   */\n      add\n        /* \"#utility.yul\":19967:20015   */\n      mstore\n        /* \"#utility.yul\":20032:20110   */\n      tag_372\n        /* \"#utility.yul\":20105:20109   */\n      dup2\n        /* \"#utility.yul\":20096:20102   */\n      dup5\n        /* \"#utility.yul\":20032:20110   */\n      tag_123\n      jump\t// in\n    tag_372:\n        /* \"#utility.yul\":20024:20110   */\n      swap1\n      pop\n        /* \"#utility.yul\":19694:20117   */\n      swap4\n      swap3\n      pop\n      pop\n      pop\n      jump\t// out\n        /* \"#utility.yul\":20123:20295   */\n    tag_162:\n        /* \"#utility.yul\":20263:20287   */\n      0x506c7567696e206578637574696f6e206661696c656400000000000000000000\n        /* \"#utility.yul\":20259:20260   */\n      0x00\n        /* \"#utility.yul\":20251:20257   */\n      dup3\n        /* \"#utility.yul\":20247:20261   */\n      add\n        /* \"#utility.yul\":20240:20288   */\n      mstore\n        /* \"#utility.yul\":20123:20295   */\n      pop\n      jump\t// out\n        /* \"#utility.yul\":20301:20667   */\n    tag_163:\n        /* \"#utility.yul\":20443:20446   */\n      0x00\n        /* \"#utility.yul\":20464:20531   */\n      tag_375\n        /* \"#utility.yul\":20528:20530   */\n      0x16\n        /* \"#utility.yul\":20523:20526   */\n      dup4\n        /* \"#utility.yul\":20464:20531   */\n      tag_120\n      jump\t// in\n    tag_375:\n        /* \"#utility.yul\":20457:20531   */\n      swap2\n      pop\n        /* \"#utility.yul\":20540:20633   */\n      tag_376\n        /* \"#utility.yul\":20629:20632   */\n      dup3\n        /* \"#utility.yul\":20540:20633   */\n      tag_162\n      jump\t// in\n    tag_376:\n        /* \"#utility.yul\":20658:20660   */\n      0x20\n        /* \"#utility.yul\":20653:20656   */\n      dup3\n        /* \"#utility.yul\":20649:20661   */\n      add\n        /* \"#utility.yul\":20642:20661   */\n      swap1\n      pop\n        /* \"#utility.yul\":20301:20667   */\n      swap2\n      swap1\n      pop\n      jump\t// out\n        /* \"#utility.yul\":20673:21092   */\n    tag_99:\n        /* \"#utility.yul\":20839:20843   */\n      0x00\n        /* \"#utility.yul\":20877:20879   */\n      0x20\n        /* \"#utility.yul\":20866:20875   */\n      dup3\n        /* \"#utility.yul\":20862:20880   */\n      add\n        /* \"#utility.yul\":20854:20880   */\n      swap1\n      pop\n        /* \"#utility.yul\":20926:20935   */\n      dup2\n        /* \"#utility.yul\":20920:20924   */\n      dup2\n        /* \"#utility.yul\":20916:20936   */\n      sub\n        /* \"#utility.yul\":20912:20913   */\n      0x00\n        /* \"#utility.yul\":20901:20910   */\n      dup4\n        /* \"#utility.yul\":20897:20914   */\n      add\n        /* \"#utility.yul\":20890:20937   */\n      mstore\n        /* \"#utility.yul\":20954:21085   */\n      tag_378\n        /* \"#utility.yul\":21080:21084   */\n      dup2\n        /* \"#utility.yul\":20954:21085   */\n      tag_163\n      jump\t// in\n    tag_378:\n        /* \"#utility.yul\":20946:21085   */\n      swap1\n      pop\n        /* \"#utility.yul\":20673:21092   */\n      swap2\n      swap1\n      pop\n      jump\t// out\n\n    auxdata: 0xa2646970667358221220814c789b6a497af923ac474ecf7aea41b33cb3ac4da93451f0dd6a696d8d169a64736f6c634300081e0033\n}\n",
				"bytecode": {
					"linkReferences": {},
					"object": "6080604052348015600e575f5ffd5b506114ab8061001c5f395ff3fe608060405234801561000f575f5ffd5b5060043610610086575f3560e01c806387859de21161005957806387859de214610137578063ae9fcf2c14610167578063bbe1562714610183578063d5049ed6146101b457610086565b80630f53a4701461008a578063349fab3c146100bb578063719e37ae146100eb578063798b4c5714610107575b5f5ffd5b6100a4600480360381019061009f9190610a40565b6101d0565b6040516100b2929190610adb565b60405180910390f35b6100d560048036038101906100d09190610c3c565b61034f565b6040516100e29190610c92565b60405180910390f35b61010560048036038101906101009190610cab565b610395565b005b610121600480360381019061011c9190610c3c565b610417565b60405161012e9190610c92565b60405180910390f35b610151600480360381019061014c9190610d21565b61045f565b60405161015e9190610da9565b60405180910390f35b610181600480360381019061017c9190610dc9565b610661565b005b61019d60048036038101906101989190610a40565b61084a565b6040516101ab929190610adb565b60405180910390f35b6101ce60048036038101906101c99190610e81565b610975565b005b6060805f5f5f8573ffffffffffffffffffffffffffffffffffffffff1673ffffffffffffffffffffffffffffffffffffffff1681526020019081526020015f206040518060400160405290815f8201805461022a90610f08565b80601f016020809104026020016040519081016040528092919081815260200182805461025690610f08565b80156102a15780601f10610278576101008083540402835291602001916102a1565b820191905f5260205f20905b81548152906001019060200180831161028457829003601f168201915b505050505081526020016001820180546102ba90610f08565b80601f01602080910402602001604051908101604052809291908181526020018280546102e690610f08565b80156103315780601f1061030857610100808354040283529160200191610331565b820191905f5260205f20905b81548152906001019060200180831161031457829003601f168201915b5050505050815250509050805f015181602001519250925050915091565b5f6001826040516103609190610f72565b90815260200160405180910390205f9054906101000a900473ffffffffffffffffffffffffffffffffffffffff169050919050565b6040518060400160405280838152602001828152505f5f3373ffffffffffffffffffffffffffffffffffffffff1673ffffffffffffffffffffffffffffffffffffffff1681526020019081526020015f205f820151815f0190816103f99190611131565b50602082015181600101908161040f9190611131565b509050505050565b6001818051602081018201805184825260208301602085012081835280955050505050505f915054906101000a900473ffffffffffffffffffffffffffffffffffffffff1681565b60605f6001856040516104729190610f72565b90815260200160405180910390205f9054906101000a900473ffffffffffffffffffffffffffffffffffffffff1690505f73ffffffffffffffffffffffffffffffffffffffff168173ffffffffffffffffffffffffffffffffffffffff1603610510576040517f08c379a00000000000000000000000000000000000000000000000000000000081526004016105079061124a565b60405180910390fd5b5f84846040516024016105239190610c92565b604051602081830303815290604052906040516105409190610f72565b60405180910390207bffffffffffffffffffffffffffffffffffffffffffffffffffffffff19166020820180517bffffffffffffffffffffffffffffffffffffffffffffffffffffffff838183161783525050505090505f5f8373ffffffffffffffffffffffffffffffffffffffff16836040516105be91906112ac565b5f60405180830381855afa9150503d805f81146105f6576040519150601f19603f3d011682016040523d82523d5f602084013e6105fb565b606091505b509150915081610640576040517f08c379a00000000000000000000000000000000000000000000000000000000081526004016106379061130c565b60405180910390fd5b808060200190518101906106549190611398565b9450505050509392505050565b5f6001856040516106729190610f72565b90815260200160405180910390205f9054906101000a900473ffffffffffffffffffffffffffffffffffffffff1690505f73ffffffffffffffffffffffffffffffffffffffff168173ffffffffffffffffffffffffffffffffffffffff1603610710576040517f08c379a00000000000000000000000000000000000000000000000000000000081526004016107079061124a565b60405180910390fd5b5f8484846040516024016107259291906113df565b604051602081830303815290604052906040516107429190610f72565b60405180910390207bffffffffffffffffffffffffffffffffffffffffffffffffffffffff19166020820180517bffffffffffffffffffffffffffffffffffffffffffffffffffffffff838183161783525050505090505f8273ffffffffffffffffffffffffffffffffffffffff16826040516107bf91906112ac565b5f604051808303815f865af19150503d805f81146107f8576040519150601f19603f3d011682016040523d82523d5f602084013e6107fd565b606091505b5050905080610841576040517f08c379a000000000000000000000000000000000000000000000000000000000815260040161083890611457565b60405180910390fd5b50505050505050565b5f602052805f5260405f205f91509050805f01805461086890610f08565b80601f016020809104026020016040519081016040528092919081815260200182805461089490610f08565b80156108df5780601f106108b6576101008083540402835291602001916108df565b820191905f5260205f20905b8154815290600101906020018083116108c257829003601f168201915b5050505050908060010180546108f490610f08565b80601f016020809104026020016040519081016040528092919081815260200182805461092090610f08565b801561096b5780601f106109425761010080835404028352916020019161096b565b820191905f5260205f20905b81548152906001019060200180831161094e57829003601f168201915b5050505050905082565b806001836040516109869190610f72565b90815260200160405180910390205f6101000a81548173ffffffffffffffffffffffffffffffffffffffff021916908373ffffffffffffffffffffffffffffffffffffffff1602179055505050565b5f604051905090565b5f5ffd5b5f5ffd5b5f73ffffffffffffffffffffffffffffffffffffffff82169050919050565b5f610a0f826109e6565b9050919050565b610a1f81610a05565b8114610a29575f5ffd5b50565b5f81359050610a3a81610a16565b92915050565b5f60208284031215610a5557610a546109de565b5b5f610a6284828501610a2c565b91505092915050565b5f81519050919050565b5f82825260208201905092915050565b8281835e5f83830152505050565b5f601f19601f8301169050919050565b5f610aad82610a6b565b610ab78185610a75565b9350610ac7818560208601610a85565b610ad081610a93565b840191505092915050565b5f6040820190508181035f830152610af38185610aa3565b90508181036020830152610b078184610aa3565b90509392505050565b5f5ffd5b5f5ffd5b7f4e487b71000000000000000000000000000000000000000000000000000000005f52604160045260245ffd5b610b4e82610a93565b810181811067ffffffffffffffff82111715610b6d57610b6c610b18565b5b80604052505050565b5f610b7f6109d5565b9050610b8b8282610b45565b919050565b5f67ffffffffffffffff821115610baa57610ba9610b18565b5b610bb382610a93565b9050602081019050919050565b828183375f83830152505050565b5f610be0610bdb84610b90565b610b76565b905082815260208101848484011115610bfc57610bfb610b14565b5b610c07848285610bc0565b509392505050565b5f82601f830112610c2357610c22610b10565b5b8135610c33848260208601610bce565b91505092915050565b5f60208284031215610c5157610c506109de565b5b5f82013567ffffffffffffffff811115610c6e57610c6d6109e2565b5b610c7a84828501610c0f565b91505092915050565b610c8c81610a05565b82525050565b5f602082019050610ca55f830184610c83565b92915050565b5f5f60408385031215610cc157610cc06109de565b5b5f83013567ffffffffffffffff811115610cde57610cdd6109e2565b5b610cea85828601610c0f565b925050602083013567ffffffffffffffff811115610d0b57610d0a6109e2565b5b610d1785828601610c0f565b9150509250929050565b5f5f5f60608486031215610d3857610d376109de565b5b5f84013567ffffffffffffffff811115610d5557610d546109e2565b5b610d6186828701610c0f565b935050602084013567ffffffffffffffff811115610d8257610d816109e2565b5b610d8e86828701610c0f565b9250506040610d9f86828701610a2c565b9150509250925092565b5f6020820190508181035f830152610dc18184610aa3565b905092915050565b5f5f5f5f60808587031215610de157610de06109de565b5b5f85013567ffffffffffffffff811115610dfe57610dfd6109e2565b5b610e0a87828801610c0f565b945050602085013567ffffffffffffffff811115610e2b57610e2a6109e2565b5b610e3787828801610c0f565b9350506040610e4887828801610a2c565b925050606085013567ffffffffffffffff811115610e6957610e686109e2565b5b610e7587828801610c0f565b91505092959194509250565b5f5f60408385031215610e9757610e966109de565b5b5f83013567ffffffffffffffff811115610eb457610eb36109e2565b5b610ec085828601610c0f565b9250506020610ed185828601610a2c565b9150509250929050565b7f4e487b71000000000000000000000000000000000000000000000000000000005f52602260045260245ffd5b5f6002820490506001821680610f1f57607f821691505b602082108103610f3257610f31610edb565b5b50919050565b5f81905092915050565b5f610f4c82610a6b565b610f568185610f38565b9350610f66818560208601610a85565b80840191505092915050565b5f610f7d8284610f42565b915081905092915050565b5f819050815f5260205f209050919050565b5f6020601f8301049050919050565b5f82821b905092915050565b5f60088302610fe47fffffffffffffffffffffffffffffffffffffffffffffffffffffffffffffffff82610fa9565b610fee8683610fa9565b95508019841693508086168417925050509392505050565b5f819050919050565b5f819050919050565b5f61103261102d61102884611006565b61100f565b611006565b9050919050565b5f819050919050565b61104b83611018565b61105f61105782611039565b848454610fb5565b825550505050565b5f5f905090565b611076611067565b611081818484611042565b505050565b5b818110156110a4576110995f8261106e565b600181019050611087565b5050565b601f8211156110e9576110ba81610f88565b6110c384610f9a565b810160208510156110d2578190505b6110e66110de85610f9a565b830182611086565b50505b505050565b5f82821c905092915050565b5f6111095f19846008026110ee565b1980831691505092915050565b5f61112183836110fa565b9150826002028217905092915050565b61113a82610a6b565b67ffffffffffffffff81111561115357611152610b18565b5b61115d8254610f08565b6111688282856110a8565b5f60209050601f831160018114611199575f8415611187578287015190505b6111918582611116565b8655506111f8565b601f1984166111a786610f88565b5f5b828110156111ce578489015182556001820191506020850194506020810190506111a9565b868310156111eb57848901516111e7601f8916826110fa565b8355505b6001600288020188555050505b505050505050565b7f506c7567696e206e6f74207265676973746572656400000000000000000000005f82015250565b5f611234601583610a75565b915061123f82611200565b602082019050919050565b5f6020820190508181035f83015261126181611228565b9050919050565b5f81519050919050565b5f81905092915050565b5f61128682611268565b6112908185611272565b93506112a0818560208601610a85565b80840191505092915050565b5f6112b7828461127c565b915081905092915050565b7f506c7567696e20766965772063616c6c206661696564000000000000000000005f82015250565b5f6112f6601683610a75565b9150611301826112c2565b602082019050919050565b5f6020820190508181035f830152611323816112ea565b9050919050565b5f61133c61133784610b90565b610b76565b90508281526020810184848401111561135857611357610b14565b5b611363848285610a85565b509392505050565b5f82601f83011261137f5761137e610b10565b5b815161138f84826020860161132a565b91505092915050565b5f602082840312156113ad576113ac6109de565b5b5f82015167ffffffffffffffff8111156113ca576113c96109e2565b5b6113d68482850161136b565b91505092915050565b5f6040820190506113f25f830185610c83565b81810360208301526114048184610aa3565b90509392505050565b7f506c7567696e206578637574696f6e206661696c6564000000000000000000005f82015250565b5f611441601683610a75565b915061144c8261140d565b602082019050919050565b5f6020820190508181035f83015261146e81611435565b905091905056fea2646970667358221220814c789b6a497af923ac474ecf7aea41b33cb3ac4da93451f0dd6a696d8d169a64736f6c634300081e0033",
					"opcodes": "PUSH1 0x80 PUSH1 0x40 MSTORE CALLVALUE DUP1 ISZERO PUSH1 0xE JUMPI PUSH0 PUSH0 REVERT JUMPDEST POP PUSH2 0x14AB DUP1 PUSH2 0x1C PUSH0 CODECOPY PUSH0 RETURN INVALID PUSH1 0x80 PUSH1 0x40 MSTORE CALLVALUE DUP1 ISZERO PUSH2 0xF JUMPI PUSH0 PUSH0 REVERT JUMPDEST POP PUSH1 0x4 CALLDATASIZE LT PUSH2 0x86 JUMPI PUSH0 CALLDATALOAD PUSH1 0xE0 SHR DUP1 PUSH4 0x87859DE2 GT PUSH2 0x59 JUMPI DUP1 PUSH4 0x87859DE2 EQ PUSH2 0x137 JUMPI DUP1 PUSH4 0xAE9FCF2C EQ PUSH2 0x167 JUMPI DUP1 PUSH4 0xBBE15627 EQ PUSH2 0x183 JUMPI DUP1 PUSH4 0xD5049ED6 EQ PUSH2 0x1B4 JUMPI PUSH2 0x86 JUMP JUMPDEST DUP1 PUSH4 0xF53A470 EQ PUSH2 0x8A JUMPI DUP1 PUSH4 0x349FAB3C EQ PUSH2 0xBB JUMPI DUP1 PUSH4 0x719E37AE EQ PUSH2 0xEB JUMPI DUP1 PUSH4 0x798B4C57 EQ PUSH2 0x107 JUMPI JUMPDEST PUSH0 PUSH0 REVERT JUMPDEST PUSH2 0xA4 PUSH1 0x4 DUP1 CALLDATASIZE SUB DUP2 ADD SWAP1 PUSH2 0x9F SWAP2 SWAP1 PUSH2 0xA40 JUMP JUMPDEST PUSH2 0x1D0 JUMP JUMPDEST PUSH1 0x40 MLOAD PUSH2 0xB2 SWAP3 SWAP2 SWAP1 PUSH2 0xADB JUMP JUMPDEST PUSH1 0x40 MLOAD DUP1 SWAP2 SUB SWAP1 RETURN JUMPDEST PUSH2 0xD5 PUSH1 0x4 DUP1 CALLDATASIZE SUB DUP2 ADD SWAP1 PUSH2 0xD0 SWAP2 SWAP1 PUSH2 0xC3C JUMP JUMPDEST PUSH2 0x34F JUMP JUMPDEST PUSH1 0x40 MLOAD PUSH2 0xE2 SWAP2 SWAP1 PUSH2 0xC92 JUMP JUMPDEST PUSH1 0x40 MLOAD DUP1 SWAP2 SUB SWAP1 RETURN JUMPDEST PUSH2 0x105 PUSH1 0x4 DUP1 CALLDATASIZE SUB DUP2 ADD SWAP1 PUSH2 0x100 SWAP2 SWAP1 PUSH2 0xCAB JUMP JUMPDEST PUSH2 0x395 JUMP JUMPDEST STOP JUMPDEST PUSH2 0x121 PUSH1 0x4 DUP1 CALLDATASIZE SUB DUP2 ADD SWAP1 PUSH2 0x11C SWAP2 SWAP1 PUSH2 0xC3C JUMP JUMPDEST PUSH2 0x417 JUMP JUMPDEST PUSH1 0x40 MLOAD PUSH2 0x12E SWAP2 SWAP1 PUSH2 0xC92 JUMP JUMPDEST PUSH1 0x40 MLOAD DUP1 SWAP2 SUB SWAP1 RETURN JUMPDEST PUSH2 0x151 PUSH1 0x4 DUP1 CALLDATASIZE SUB DUP2 ADD SWAP1 PUSH2 0x14C SWAP2 SWAP1 PUSH2 0xD21 JUMP JUMPDEST PUSH2 0x45F JUMP JUMPDEST PUSH1 0x40 MLOAD PUSH2 0x15E SWAP2 SWAP1 PUSH2 0xDA9 JUMP JUMPDEST PUSH1 0x40 MLOAD DUP1 SWAP2 SUB SWAP1 RETURN JUMPDEST PUSH2 0x181 PUSH1 0x4 DUP1 CALLDATASIZE SUB DUP2 ADD SWAP1 PUSH2 0x17C SWAP2 SWAP1 PUSH2 0xDC9 JUMP JUMPDEST PUSH2 0x661 JUMP JUMPDEST STOP JUMPDEST PUSH2 0x19D PUSH1 0x4 DUP1 CALLDATASIZE SUB DUP2 ADD SWAP1 PUSH2 0x198 SWAP2 SWAP1 PUSH2 0xA40 JUMP JUMPDEST PUSH2 0x84A JUMP JUMPDEST PUSH1 0x40 MLOAD PUSH2 0x1AB SWAP3 SWAP2 SWAP1 PUSH2 0xADB JUMP JUMPDEST PUSH1 0x40 MLOAD DUP1 SWAP2 SUB SWAP1 RETURN JUMPDEST PUSH2 0x1CE PUSH1 0x4 DUP1 CALLDATASIZE SUB DUP2 ADD SWAP1 PUSH2 0x1C9 SWAP2 SWAP1 PUSH2 0xE81 JUMP JUMPDEST PUSH2 0x975 JUMP JUMPDEST STOP JUMPDEST PUSH1 0x60 DUP1 PUSH0 PUSH0 PUSH0 DUP6 PUSH20 0xFFFFFFFFFFFFFFFFFFFFFFFFFFFFFFFFFFFFFFFF AND PUSH20 0xFFFFFFFFFFFFFFFFFFFFFFFFFFFFFFFFFFFFFFFF AND DUP2 MSTORE PUSH1 0x20 ADD SWAP1 DUP2 MSTORE PUSH1 0x20 ADD PUSH0 KECCAK256 PUSH1 0x40 MLOAD DUP1 PUSH1 0x40 ADD PUSH1 0x40 MSTORE SWAP1 DUP2 PUSH0 DUP3 ADD DUP1 SLOAD PUSH2 0x22A SWAP1 PUSH2 0xF08 JUMP JUMPDEST DUP1 PUSH1 0x1F ADD PUSH1 0x20 DUP1 SWAP2 DIV MUL PUSH1 0x20 ADD PUSH1 0x40 MLOAD SWAP1 DUP2 ADD PUSH1 0x40 MSTORE DUP1 SWAP3 SWAP2 SWAP1 DUP2 DUP2 MSTORE PUSH1 0x20 ADD DUP3 DUP1 SLOAD PUSH2 0x256 SWAP1 PUSH2 0xF08 JUMP JUMPDEST DUP1 ISZERO PUSH2 0x2A1 JUMPI DUP1 PUSH1 0x1F LT PUSH2 0x278 JUMPI PUSH2 0x100 DUP1 DUP4 SLOAD DIV MUL DUP4 MSTORE SWAP2 PUSH1 0x20 ADD SWAP2 PUSH2 0x2A1 JUMP JUMPDEST DUP3 ADD SWAP2 SWAP1 PUSH0 MSTORE PUSH1 0x20 PUSH0 KECCAK256 SWAP1 JUMPDEST DUP2 SLOAD DUP2 MSTORE SWAP1 PUSH1 0x1 ADD SWAP1 PUSH1 0x20 ADD DUP1 DUP4 GT PUSH2 0x284 JUMPI DUP3 SWAP1 SUB PUSH1 0x1F AND DUP3 ADD SWAP2 JUMPDEST POP POP POP POP POP DUP2 MSTORE PUSH1 0x20 ADD PUSH1 0x1 DUP3 ADD DUP1 SLOAD PUSH2 0x2BA SWAP1 PUSH2 0xF08 JUMP JUMPDEST DUP1 PUSH1 0x1F ADD PUSH1 0x20 DUP1 SWAP2 DIV MUL PUSH1 0x20 ADD PUSH1 0x40 MLOAD SWAP1 DUP2 ADD PUSH1 0x40 MSTORE DUP1 SWAP3 SWAP2 SWAP1 DUP2 DUP2 MSTORE PUSH1 0x20 ADD DUP3 DUP1 SLOAD PUSH2 0x2E6 SWAP1 PUSH2 0xF08 JUMP JUMPDEST DUP1 ISZERO PUSH2 0x331 JUMPI DUP1 PUSH1 0x1F LT PUSH2 0x308 JUMPI PUSH2 0x100 DUP1 DUP4 SLOAD DIV MUL DUP4 MSTORE SWAP2 PUSH1 0x20 ADD SWAP2 PUSH2 0x331 JUMP JUMPDEST DUP3 ADD SWAP2 SWAP1 PUSH0 MSTORE PUSH1 0x20 PUSH0 KECCAK256 SWAP1 JUMPDEST DUP2 SLOAD DUP2 MSTORE SWAP1 PUSH1 0x1 ADD SWAP1 PUSH1 0x20 ADD DUP1 DUP4 GT PUSH2 0x314 JUMPI DUP3 SWAP1 SUB PUSH1 0x1F AND DUP3 ADD SWAP2 JUMPDEST POP POP POP POP POP DUP2 MSTORE POP POP SWAP1 POP DUP1 PUSH0 ADD MLOAD DUP2 PUSH1 0x20 ADD MLOAD SWAP3 POP SWAP3 POP POP SWAP2 POP SWAP2 JUMP JUMPDEST PUSH0 PUSH1 0x1 DUP3 PUSH1 0x40 MLOAD PUSH2 0x360 SWAP2 SWAP1 PUSH2 0xF72 JUMP JUMPDEST SWAP1 DUP2 MSTORE PUSH1 0x20 ADD PUSH1 0x40 MLOAD DUP1 SWAP2 SUB SWAP1 KECCAK256 PUSH0 SWAP1 SLOAD SWAP1 PUSH2 0x100 EXP SWAP1 DIV PUSH20 0xFFFFFFFFFFFFFFFFFFFFFFFFFFFFFFFFFFFFFFFF AND SWAP1 POP SWAP2 SWAP1 POP JUMP JUMPDEST PUSH1 0x40 MLOAD DUP1 PUSH1 0x40 ADD PUSH1 0x40 MSTORE DUP1 DUP4 DUP2 MSTORE PUSH1 0x20 ADD DUP3 DUP2 MSTORE POP PUSH0 PUSH0 CALLER PUSH20 0xFFFFFFFFFFFFFFFFFFFFFFFFFFFFFFFFFFFFFFFF AND PUSH20 0xFFFFFFFFFFFFFFFFFFFFFFFFFFFFFFFFFFFFFFFF AND DUP2 MSTORE PUSH1 0x20 ADD SWAP1 DUP2 MSTORE PUSH1 0x20 ADD PUSH0 KECCAK256 PUSH0 DUP3 ADD MLOAD DUP2 PUSH0 ADD SWAP1 DUP2 PUSH2 0x3F9 SWAP2 SWAP1 PUSH2 0x1131 JUMP JUMPDEST POP PUSH1 0x20 DUP3 ADD MLOAD DUP2 PUSH1 0x1 ADD SWAP1 DUP2 PUSH2 0x40F SWAP2 SWAP1 PUSH2 0x1131 JUMP JUMPDEST POP SWAP1 POP POP POP POP JUMP JUMPDEST PUSH1 0x1 DUP2 DUP1 MLOAD PUSH1 0x20 DUP2 ADD DUP3 ADD DUP1 MLOAD DUP5 DUP3 MSTORE PUSH1 0x20 DUP4 ADD PUSH1 0x20 DUP6 ADD KECCAK256 DUP2 DUP4 MSTORE DUP1 SWAP6 POP POP POP POP POP POP PUSH0 SWAP2 POP SLOAD SWAP1 PUSH2 0x100 EXP SWAP1 DIV PUSH20 0xFFFFFFFFFFFFFFFFFFFFFFFFFFFFFFFFFFFFFFFF AND DUP2 JUMP JUMPDEST PUSH1 0x60 PUSH0 PUSH1 0x1 DUP6 PUSH1 0x40 MLOAD PUSH2 0x472 SWAP2 SWAP1 PUSH2 0xF72 JUMP JUMPDEST SWAP1 DUP2 MSTORE PUSH1 0x20 ADD PUSH1 0x40 MLOAD DUP1 SWAP2 SUB SWAP1 KECCAK256 PUSH0 SWAP1 SLOAD SWAP1 PUSH2 0x100 EXP SWAP1 DIV PUSH20 0xFFFFFFFFFFFFFFFFFFFFFFFFFFFFFFFFFFFFFFFF AND SWAP1 POP PUSH0 PUSH20 0xFFFFFFFFFFFFFFFFFFFFFFFFFFFFFFFFFFFFFFFF AND DUP2 PUSH20 0xFFFFFFFFFFFFFFFFFFFFFFFFFFFFFFFFFFFFFFFF AND SUB PUSH2 0x510 JUMPI PUSH1 0x40 MLOAD PUSH32 0x8C379A000000000000000000000000000000000000000000000000000000000 DUP2 MSTORE PUSH1 0x4 ADD PUSH2 0x507 SWAP1 PUSH2 0x124A JUMP JUMPDEST PUSH1 0x40 MLOAD DUP1 SWAP2 SUB SWAP1 REVERT JUMPDEST PUSH0 DUP5 DUP5 PUSH1 0x40 MLOAD PUSH1 0x24 ADD PUSH2 0x523 SWAP2 SWAP1 PUSH2 0xC92 JUMP JUMPDEST PUSH1 0x40 MLOAD PUSH1 0x20 DUP2 DUP4 SUB SUB DUP2 MSTORE SWAP1 PUSH1 0x40 MSTORE SWAP1 PUSH1 0x40 MLOAD PUSH2 0x540 SWAP2 SWAP1 PUSH2 0xF72 JUMP JUMPDEST PUSH1 0x40 MLOAD DUP1 SWAP2 SUB SWAP1 KECCAK256 PUSH28 0xFFFFFFFFFFFFFFFFFFFFFFFFFFFFFFFFFFFFFFFFFFFFFFFFFFFFFFFF NOT AND PUSH1 0x20 DUP3 ADD DUP1 MLOAD PUSH28 0xFFFFFFFFFFFFFFFFFFFFFFFFFFFFFFFFFFFFFFFFFFFFFFFFFFFFFFFF DUP4 DUP2 DUP4 AND OR DUP4 MSTORE POP POP POP POP SWAP1 POP PUSH0 PUSH0 DUP4 PUSH20 0xFFFFFFFFFFFFFFFFFFFFFFFFFFFFFFFFFFFFFFFF AND DUP4 PUSH1 0x40 MLOAD PUSH2 0x5BE SWAP2 SWAP1 PUSH2 0x12AC JUMP JUMPDEST PUSH0 PUSH1 0x40 MLOAD DUP1 DUP4 SUB DUP2 DUP6 GAS STATICCALL SWAP2 POP POP RETURNDATASIZE DUP1 PUSH0 DUP2 EQ PUSH2 0x5F6 JUMPI PUSH1 0x40 MLOAD SWAP2 POP PUSH1 0x1F NOT PUSH1 0x3F RETURNDATASIZE ADD AND DUP3 ADD PUSH1 0x40 MSTORE RETURNDATASIZE DUP3 MSTORE RETURNDATASIZE PUSH0 PUSH1 0x20 DUP5 ADD RETURNDATACOPY PUSH2 0x5FB JUMP JUMPDEST PUSH1 0x60 SWAP2 POP JUMPDEST POP SWAP2 POP SWAP2 POP DUP2 PUSH2 0x640 JUMPI PUSH1 0x40 MLOAD PUSH32 0x8C379A000000000000000000000000000000000000000000000000000000000 DUP2 MSTORE PUSH1 0x4 ADD PUSH2 0x637 SWAP1 PUSH2 0x130C JUMP JUMPDEST PUSH1 0x40 MLOAD DUP1 SWAP2 SUB SWAP1 REVERT JUMPDEST DUP1 DUP1 PUSH1 0x20 ADD SWAP1 MLOAD DUP2 ADD SWAP1 PUSH2 0x654 SWAP2 SWAP1 PUSH2 0x1398 JUMP JUMPDEST SWAP5 POP POP POP POP POP SWAP4 SWAP3 POP POP POP JUMP JUMPDEST PUSH0 PUSH1 0x1 DUP6 PUSH1 0x40 MLOAD PUSH2 0x672 SWAP2 SWAP1 PUSH2 0xF72 JUMP JUMPDEST SWAP1 DUP2 MSTORE PUSH1 0x20 ADD PUSH1 0x40 MLOAD DUP1 SWAP2 SUB SWAP1 KECCAK256 PUSH0 SWAP1 SLOAD SWAP1 PUSH2 0x100 EXP SWAP1 DIV PUSH20 0xFFFFFFFFFFFFFFFFFFFFFFFFFFFFFFFFFFFFFFFF AND SWAP1 POP PUSH0 PUSH20 0xFFFFFFFFFFFFFFFFFFFFFFFFFFFFFFFFFFFFFFFF AND DUP2 PUSH20 0xFFFFFFFFFFFFFFFFFFFFFFFFFFFFFFFFFFFFFFFF AND SUB PUSH2 0x710 JUMPI PUSH1 0x40 MLOAD PUSH32 0x8C379A000000000000000000000000000000000000000000000000000000000 DUP2 MSTORE PUSH1 0x4 ADD PUSH2 0x707 SWAP1 PUSH2 0x124A JUMP JUMPDEST PUSH1 0x40 MLOAD DUP1 SWAP2 SUB SWAP1 REVERT JUMPDEST PUSH0 DUP5 DUP5 DUP5 PUSH1 0x40 MLOAD PUSH1 0x24 ADD PUSH2 0x725 SWAP3 SWAP2 SWAP1 PUSH2 0x13DF JUMP JUMPDEST PUSH1 0x40 MLOAD PUSH1 0x20 DUP2 DUP4 SUB SUB DUP2 MSTORE SWAP1 PUSH1 0x40 MSTORE SWAP1 PUSH1 0x40 MLOAD PUSH2 0x742 SWAP2 SWAP1 PUSH2 0xF72 JUMP JUMPDEST PUSH1 0x40 MLOAD DUP1 SWAP2 SUB SWAP1 KECCAK256 PUSH28 0xFFFFFFFFFFFFFFFFFFFFFFFFFFFFFFFFFFFFFFFFFFFFFFFFFFFFFFFF NOT AND PUSH1 0x20 DUP3 ADD DUP1 MLOAD PUSH28 0xFFFFFFFFFFFFFFFFFFFFFFFFFFFFFFFFFFFFFFFFFFFFFFFFFFFFFFFF DUP4 DUP2 DUP4 AND OR DUP4 MSTORE POP POP POP POP SWAP1 POP PUSH0 DUP3 PUSH20 0xFFFFFFFFFFFFFFFFFFFFFFFFFFFFFFFFFFFFFFFF AND DUP3 PUSH1 0x40 MLOAD PUSH2 0x7BF SWAP2 SWAP1 PUSH2 0x12AC JUMP JUMPDEST PUSH0 PUSH1 0x40 MLOAD DUP1 DUP4 SUB DUP2 PUSH0 DUP7 GAS CALL SWAP2 POP POP RETURNDATASIZE DUP1 PUSH0 DUP2 EQ PUSH2 0x7F8 JUMPI PUSH1 0x40 MLOAD SWAP2 POP PUSH1 0x1F NOT PUSH1 0x3F RETURNDATASIZE ADD AND DUP3 ADD PUSH1 0x40 MSTORE RETURNDATASIZE DUP3 MSTORE RETURNDATASIZE PUSH0 PUSH1 0x20 DUP5 ADD RETURNDATACOPY PUSH2 0x7FD JUMP JUMPDEST PUSH1 0x60 SWAP2 POP JUMPDEST POP POP SWAP1 POP DUP1 PUSH2 0x841 JUMPI PUSH1 0x40 MLOAD PUSH32 0x8C379A000000000000000000000000000000000000000000000000000000000 DUP2 MSTORE PUSH1 0x4 ADD PUSH2 0x838 SWAP1 PUSH2 0x1457 JUMP JUMPDEST PUSH1 0x40 MLOAD DUP1 SWAP2 SUB SWAP1 REVERT JUMPDEST POP POP POP POP POP POP POP JUMP JUMPDEST PUSH0 PUSH1 0x20 MSTORE DUP1 PUSH0 MSTORE PUSH1 0x40 PUSH0 KECCAK256 PUSH0 SWAP2 POP SWAP1 POP DUP1 PUSH0 ADD DUP1 SLOAD PUSH2 0x868 SWAP1 PUSH2 0xF08 JUMP JUMPDEST DUP1 PUSH1 0x1F ADD PUSH1 0x20 DUP1 SWAP2 DIV MUL PUSH1 0x20 ADD PUSH1 0x40 MLOAD SWAP1 DUP2 ADD PUSH1 0x40 MSTORE DUP1 SWAP3 SWAP2 SWAP1 DUP2 DUP2 MSTORE PUSH1 0x20 ADD DUP3 DUP1 SLOAD PUSH2 0x894 SWAP1 PUSH2 0xF08 JUMP JUMPDEST DUP1 ISZERO PUSH2 0x8DF JUMPI DUP1 PUSH1 0x1F LT PUSH2 0x8B6 JUMPI PUSH2 0x100 DUP1 DUP4 SLOAD DIV MUL DUP4 MSTORE SWAP2 PUSH1 0x20 ADD SWAP2 PUSH2 0x8DF JUMP JUMPDEST DUP3 ADD SWAP2 SWAP1 PUSH0 MSTORE PUSH1 0x20 PUSH0 KECCAK256 SWAP1 JUMPDEST DUP2 SLOAD DUP2 MSTORE SWAP1 PUSH1 0x1 ADD SWAP1 PUSH1 0x20 ADD DUP1 DUP4 GT PUSH2 0x8C2 JUMPI DUP3 SWAP1 SUB PUSH1 0x1F AND DUP3 ADD SWAP2 JUMPDEST POP POP POP POP POP SWAP1 DUP1 PUSH1 0x1 ADD DUP1 SLOAD PUSH2 0x8F4 SWAP1 PUSH2 0xF08 JUMP JUMPDEST DUP1 PUSH1 0x1F ADD PUSH1 0x20 DUP1 SWAP2 DIV MUL PUSH1 0x20 ADD PUSH1 0x40 MLOAD SWAP1 DUP2 ADD PUSH1 0x40 MSTORE DUP1 SWAP3 SWAP2 SWAP1 DUP2 DUP2 MSTORE PUSH1 0x20 ADD DUP3 DUP1 SLOAD PUSH2 0x920 SWAP1 PUSH2 0xF08 JUMP JUMPDEST DUP1 ISZERO PUSH2 0x96B JUMPI DUP1 PUSH1 0x1F LT PUSH2 0x942 JUMPI PUSH2 0x100 DUP1 DUP4 SLOAD DIV MUL DUP4 MSTORE SWAP2 PUSH1 0x20 ADD SWAP2 PUSH2 0x96B JUMP JUMPDEST DUP3 ADD SWAP2 SWAP1 PUSH0 MSTORE PUSH1 0x20 PUSH0 KECCAK256 SWAP1 JUMPDEST DUP2 SLOAD DUP2 MSTORE SWAP1 PUSH1 0x1 ADD SWAP1 PUSH1 0x20 ADD DUP1 DUP4 GT PUSH2 0x94E JUMPI DUP3 SWAP1 SUB PUSH1 0x1F AND DUP3 ADD SWAP2 JUMPDEST POP POP POP POP POP SWAP1 POP DUP3 JUMP JUMPDEST DUP1 PUSH1 0x1 DUP4 PUSH1 0x40 MLOAD PUSH2 0x986 SWAP2 SWAP1 PUSH2 0xF72 JUMP JUMPDEST SWAP1 DUP2 MSTORE PUSH1 0x20 ADD PUSH1 0x40 MLOAD DUP1 SWAP2 SUB SWAP1 KECCAK256 PUSH0 PUSH2 0x100 EXP DUP2 SLOAD DUP2 PUSH20 0xFFFFFFFFFFFFFFFFFFFFFFFFFFFFFFFFFFFFFFFF MUL NOT AND SWAP1 DUP4 PUSH20 0xFFFFFFFFFFFFFFFFFFFFFFFFFFFFFFFFFFFFFFFF AND MUL OR SWAP1 SSTORE POP POP POP JUMP JUMPDEST PUSH0 PUSH1 0x40 MLOAD SWAP1 POP SWAP1 JUMP JUMPDEST PUSH0 PUSH0 REVERT JUMPDEST PUSH0 PUSH0 REVERT JUMPDEST PUSH0 PUSH20 0xFFFFFFFFFFFFFFFFFFFFFFFFFFFFFFFFFFFFFFFF DUP3 AND SWAP1 POP SWAP2 SWAP1 POP JUMP JUMPDEST PUSH0 PUSH2 0xA0F DUP3 PUSH2 0x9E6 JUMP JUMPDEST SWAP1 POP SWAP2 SWAP1 POP JUMP JUMPDEST PUSH2 0xA1F DUP2 PUSH2 0xA05 JUMP JUMPDEST DUP2 EQ PUSH2 0xA29 JUMPI PUSH0 PUSH0 REVERT JUMPDEST POP JUMP JUMPDEST PUSH0 DUP2 CALLDATALOAD SWAP1 POP PUSH2 0xA3A DUP2 PUSH2 0xA16 JUMP JUMPDEST SWAP3 SWAP2 POP POP JUMP JUMPDEST PUSH0 PUSH1 0x20 DUP3 DUP5 SUB SLT ISZERO PUSH2 0xA55 JUMPI PUSH2 0xA54 PUSH2 0x9DE JUMP JUMPDEST JUMPDEST PUSH0 PUSH2 0xA62 DUP5 DUP3 DUP6 ADD PUSH2 0xA2C JUMP JUMPDEST SWAP2 POP POP SWAP3 SWAP2 POP POP JUMP JUMPDEST PUSH0 DUP2 MLOAD SWAP1 POP SWAP2 SWAP1 POP JUMP JUMPDEST PUSH0 DUP3 DUP3 MSTORE PUSH1 0x20 DUP3 ADD SWAP1 POP SWAP3 SWAP2 POP POP JUMP JUMPDEST DUP3 DUP2 DUP4 MCOPY PUSH0 DUP4 DUP4 ADD MSTORE POP POP POP JUMP JUMPDEST PUSH0 PUSH1 0x1F NOT PUSH1 0x1F DUP4 ADD AND SWAP1 POP SWAP2 SWAP1 POP JUMP JUMPDEST PUSH0 PUSH2 0xAAD DUP3 PUSH2 0xA6B JUMP JUMPDEST PUSH2 0xAB7 DUP2 DUP6 PUSH2 0xA75 JUMP JUMPDEST SWAP4 POP PUSH2 0xAC7 DUP2 DUP6 PUSH1 0x20 DUP7 ADD PUSH2 0xA85 JUMP JUMPDEST PUSH2 0xAD0 DUP2 PUSH2 0xA93 JUMP JUMPDEST DUP5 ADD SWAP2 POP POP SWAP3 SWAP2 POP POP JUMP JUMPDEST PUSH0 PUSH1 0x40 DUP3 ADD SWAP1 POP DUP2 DUP2 SUB PUSH0 DUP4 ADD MSTORE PUSH2 0xAF3 DUP2 DUP6 PUSH2 0xAA3 JUMP JUMPDEST SWAP1 POP DUP2 DUP2 SUB PUSH1 0x20 DUP4 ADD MSTORE PUSH2 0xB07 DUP2 DUP5 PUSH2 0xAA3 JUMP JUMPDEST SWAP1 POP SWAP4 SWAP3 POP POP POP JUMP JUMPDEST PUSH0 PUSH0 REVERT JUMPDEST PUSH0 PUSH0 REVERT JUMPDEST PUSH32 0x4E487B7100000000000000000000000000000000000000000000000000000000 PUSH0 MSTORE PUSH1 0x41 PUSH1 0x4 MSTORE PUSH1 0x24 PUSH0 REVERT JUMPDEST PUSH2 0xB4E DUP3 PUSH2 0xA93 JUMP JUMPDEST DUP2 ADD DUP2 DUP2 LT PUSH8 0xFFFFFFFFFFFFFFFF DUP3 GT OR ISZERO PUSH2 0xB6D JUMPI PUSH2 0xB6C PUSH2 0xB18 JUMP JUMPDEST JUMPDEST DUP1 PUSH1 0x40 MSTORE POP POP POP JUMP JUMPDEST PUSH0 PUSH2 0xB7F PUSH2 0x9D5 JUMP JUMPDEST SWAP1 POP PUSH2 0xB8B DUP3 DUP3 PUSH2 0xB45 JUMP JUMPDEST SWAP2 SWAP1 POP JUMP JUMPDEST PUSH0 PUSH8 0xFFFFFFFFFFFFFFFF DUP3 GT ISZERO PUSH2 0xBAA JUMPI PUSH2 0xBA9 PUSH2 0xB18 JUMP JUMPDEST JUMPDEST PUSH2 0xBB3 DUP3 PUSH2 0xA93 JUMP JUMPDEST SWAP1 POP PUSH1 0x20 DUP2 ADD SWAP1 POP SWAP2 SWAP1 POP JUMP JUMPDEST DUP3 DUP2 DUP4 CALLDATACOPY PUSH0 DUP4 DUP4 ADD MSTORE POP POP POP JUMP JUMPDEST PUSH0 PUSH2 0xBE0 PUSH2 0xBDB DUP5 PUSH2 0xB90 JUMP JUMPDEST PUSH2 0xB76 JUMP JUMPDEST SWAP1 POP DUP3 DUP2 MSTORE PUSH1 0x20 DUP2 ADD DUP5 DUP5 DUP5 ADD GT ISZERO PUSH2 0xBFC JUMPI PUSH2 0xBFB PUSH2 0xB14 JUMP JUMPDEST JUMPDEST PUSH2 0xC07 DUP5 DUP3 DUP6 PUSH2 0xBC0 JUMP JUMPDEST POP SWAP4 SWAP3 POP POP POP JUMP JUMPDEST PUSH0 DUP3 PUSH1 0x1F DUP4 ADD SLT PUSH2 0xC23 JUMPI PUSH2 0xC22 PUSH2 0xB10 JUMP JUMPDEST JUMPDEST DUP2 CALLDATALOAD PUSH2 0xC33 DUP5 DUP3 PUSH1 0x20 DUP7 ADD PUSH2 0xBCE JUMP JUMPDEST SWAP2 POP POP SWAP3 SWAP2 POP POP JUMP JUMPDEST PUSH0 PUSH1 0x20 DUP3 DUP5 SUB SLT ISZERO PUSH2 0xC51 JUMPI PUSH2 0xC50 PUSH2 0x9DE JUMP JUMPDEST JUMPDEST PUSH0 DUP3 ADD CALLDATALOAD PUSH8 0xFFFFFFFFFFFFFFFF DUP2 GT ISZERO PUSH2 0xC6E JUMPI PUSH2 0xC6D PUSH2 0x9E2 JUMP JUMPDEST JUMPDEST PUSH2 0xC7A DUP5 DUP3 DUP6 ADD PUSH2 0xC0F JUMP JUMPDEST SWAP2 POP POP SWAP3 SWAP2 POP POP JUMP JUMPDEST PUSH2 0xC8C DUP2 PUSH2 0xA05 JUMP JUMPDEST DUP3 MSTORE POP POP JUMP JUMPDEST PUSH0 PUSH1 0x20 DUP3 ADD SWAP1 POP PUSH2 0xCA5 PUSH0 DUP4 ADD DUP5 PUSH2 0xC83 JUMP JUMPDEST SWAP3 SWAP2 POP POP JUMP JUMPDEST PUSH0 PUSH0 PUSH1 0x40 DUP4 DUP6 SUB SLT ISZERO PUSH2 0xCC1 JUMPI PUSH2 0xCC0 PUSH2 0x9DE JUMP JUMPDEST JUMPDEST PUSH0 DUP4 ADD CALLDATALOAD PUSH8 0xFFFFFFFFFFFFFFFF DUP2 GT ISZERO PUSH2 0xCDE JUMPI PUSH2 0xCDD PUSH2 0x9E2 JUMP JUMPDEST JUMPDEST PUSH2 0xCEA DUP6 DUP3 DUP7 ADD PUSH2 0xC0F JUMP JUMPDEST SWAP3 POP POP PUSH1 0x20 DUP4 ADD CALLDATALOAD PUSH8 0xFFFFFFFFFFFFFFFF DUP2 GT ISZERO PUSH2 0xD0B JUMPI PUSH2 0xD0A PUSH2 0x9E2 JUMP JUMPDEST JUMPDEST PUSH2 0xD17 DUP6 DUP3 DUP7 ADD PUSH2 0xC0F JUMP JUMPDEST SWAP2 POP POP SWAP3 POP SWAP3 SWAP1 POP JUMP JUMPDEST PUSH0 PUSH0 PUSH0 PUSH1 0x60 DUP5 DUP7 SUB SLT ISZERO PUSH2 0xD38 JUMPI PUSH2 0xD37 PUSH2 0x9DE JUMP JUMPDEST JUMPDEST PUSH0 DUP5 ADD CALLDATALOAD PUSH8 0xFFFFFFFFFFFFFFFF DUP2 GT ISZERO PUSH2 0xD55 JUMPI PUSH2 0xD54 PUSH2 0x9E2 JUMP JUMPDEST JUMPDEST PUSH2 0xD61 DUP7 DUP3 DUP8 ADD PUSH2 0xC0F JUMP JUMPDEST SWAP4 POP POP PUSH1 0x20 DUP5 ADD CALLDATALOAD PUSH8 0xFFFFFFFFFFFFFFFF DUP2 GT ISZERO PUSH2 0xD82 JUMPI PUSH2 0xD81 PUSH2 0x9E2 JUMP JUMPDEST JUMPDEST PUSH2 0xD8E DUP7 DUP3 DUP8 ADD PUSH2 0xC0F JUMP JUMPDEST SWAP3 POP POP PUSH1 0x40 PUSH2 0xD9F DUP7 DUP3 DUP8 ADD PUSH2 0xA2C JUMP JUMPDEST SWAP2 POP POP SWAP3 POP SWAP3 POP SWAP3 JUMP JUMPDEST PUSH0 PUSH1 0x20 DUP3 ADD SWAP1 POP DUP2 DUP2 SUB PUSH0 DUP4 ADD MSTORE PUSH2 0xDC1 DUP2 DUP5 PUSH2 0xAA3 JUMP JUMPDEST SWAP1 POP SWAP3 SWAP2 POP POP JUMP JUMPDEST PUSH0 PUSH0 PUSH0 PUSH0 PUSH1 0x80 DUP6 DUP8 SUB SLT ISZERO PUSH2 0xDE1 JUMPI PUSH2 0xDE0 PUSH2 0x9DE JUMP JUMPDEST JUMPDEST PUSH0 DUP6 ADD CALLDATALOAD PUSH8 0xFFFFFFFFFFFFFFFF DUP2 GT ISZERO PUSH2 0xDFE JUMPI PUSH2 0xDFD PUSH2 0x9E2 JUMP JUMPDEST JUMPDEST PUSH2 0xE0A DUP8 DUP3 DUP9 ADD PUSH2 0xC0F JUMP JUMPDEST SWAP5 POP POP PUSH1 0x20 DUP6 ADD CALLDATALOAD PUSH8 0xFFFFFFFFFFFFFFFF DUP2 GT ISZERO PUSH2 0xE2B JUMPI PUSH2 0xE2A PUSH2 0x9E2 JUMP JUMPDEST JUMPDEST PUSH2 0xE37 DUP8 DUP3 DUP9 ADD PUSH2 0xC0F JUMP JUMPDEST SWAP4 POP POP PUSH1 0x40 PUSH2 0xE48 DUP8 DUP3 DUP9 ADD PUSH2 0xA2C JUMP JUMPDEST SWAP3 POP POP PUSH1 0x60 DUP6 ADD CALLDATALOAD PUSH8 0xFFFFFFFFFFFFFFFF DUP2 GT ISZERO PUSH2 0xE69 JUMPI PUSH2 0xE68 PUSH2 0x9E2 JUMP JUMPDEST JUMPDEST PUSH2 0xE75 DUP8 DUP3 DUP9 ADD PUSH2 0xC0F JUMP JUMPDEST SWAP2 POP POP SWAP3 SWAP6 SWAP2 SWAP5 POP SWAP3 POP JUMP JUMPDEST PUSH0 PUSH0 PUSH1 0x40 DUP4 DUP6 SUB SLT ISZERO PUSH2 0xE97 JUMPI PUSH2 0xE96 PUSH2 0x9DE JUMP JUMPDEST JUMPDEST PUSH0 DUP4 ADD CALLDATALOAD PUSH8 0xFFFFFFFFFFFFFFFF DUP2 GT ISZERO PUSH2 0xEB4 JUMPI PUSH2 0xEB3 PUSH2 0x9E2 JUMP JUMPDEST JUMPDEST PUSH2 0xEC0 DUP6 DUP3 DUP7 ADD PUSH2 0xC0F JUMP JUMPDEST SWAP3 POP POP PUSH1 0x20 PUSH2 0xED1 DUP6 DUP3 DUP7 ADD PUSH2 0xA2C JUMP JUMPDEST SWAP2 POP POP SWAP3 POP SWAP3 SWAP1 POP JUMP JUMPDEST PUSH32 0x4E487B7100000000000000000000000000000000000000000000000000000000 PUSH0 MSTORE PUSH1 0x22 PUSH1 0x4 MSTORE PUSH1 0x24 PUSH0 REVERT JUMPDEST PUSH0 PUSH1 0x2 DUP3 DIV SWAP1 POP PUSH1 0x1 DUP3 AND DUP1 PUSH2 0xF1F JUMPI PUSH1 0x7F DUP3 AND SWAP2 POP JUMPDEST PUSH1 0x20 DUP3 LT DUP2 SUB PUSH2 0xF32 JUMPI PUSH2 0xF31 PUSH2 0xEDB JUMP JUMPDEST JUMPDEST POP SWAP2 SWAP1 POP JUMP JUMPDEST PUSH0 DUP2 SWAP1 POP SWAP3 SWAP2 POP POP JUMP JUMPDEST PUSH0 PUSH2 0xF4C DUP3 PUSH2 0xA6B JUMP JUMPDEST PUSH2 0xF56 DUP2 DUP6 PUSH2 0xF38 JUMP JUMPDEST SWAP4 POP PUSH2 0xF66 DUP2 DUP6 PUSH1 0x20 DUP7 ADD PUSH2 0xA85 JUMP JUMPDEST DUP1 DUP5 ADD SWAP2 POP POP SWAP3 SWAP2 POP POP JUMP JUMPDEST PUSH0 PUSH2 0xF7D DUP3 DUP5 PUSH2 0xF42 JUMP JUMPDEST SWAP2 POP DUP2 SWAP1 POP SWAP3 SWAP2 POP POP JUMP JUMPDEST PUSH0 DUP2 SWAP1 POP DUP2 PUSH0 MSTORE PUSH1 0x20 PUSH0 KECCAK256 SWAP1 POP SWAP2 SWAP1 POP JUMP JUMPDEST PUSH0 PUSH1 0x20 PUSH1 0x1F DUP4 ADD DIV SWAP1 POP SWAP2 SWAP1 POP JUMP JUMPDEST PUSH0 DUP3 DUP3 SHL SWAP1 POP SWAP3 SWAP2 POP POP JUMP JUMPDEST PUSH0 PUSH1 0x8 DUP4 MUL PUSH2 0xFE4 PUSH32 0xFFFFFFFFFFFFFFFFFFFFFFFFFFFFFFFFFFFFFFFFFFFFFFFFFFFFFFFFFFFFFFFF DUP3 PUSH2 0xFA9 JUMP JUMPDEST PUSH2 0xFEE DUP7 DUP4 PUSH2 0xFA9 JUMP JUMPDEST SWAP6 POP DUP1 NOT DUP5 AND SWAP4 POP DUP1 DUP7 AND DUP5 OR SWAP3 POP POP POP SWAP4 SWAP3 POP POP POP JUMP JUMPDEST PUSH0 DUP2 SWAP1 POP SWAP2 SWAP1 POP JUMP JUMPDEST PUSH0 DUP2 SWAP1 POP SWAP2 SWAP1 POP JUMP JUMPDEST PUSH0 PUSH2 0x1032 PUSH2 0x102D PUSH2 0x1028 DUP5 PUSH2 0x1006 JUMP JUMPDEST PUSH2 0x100F JUMP JUMPDEST PUSH2 0x1006 JUMP JUMPDEST SWAP1 POP SWAP2 SWAP1 POP JUMP JUMPDEST PUSH0 DUP2 SWAP1 POP SWAP2 SWAP1 POP JUMP JUMPDEST PUSH2 0x104B DUP4 PUSH2 0x1018 JUMP JUMPDEST PUSH2 0x105F PUSH2 0x1057 DUP3 PUSH2 0x1039 JUMP JUMPDEST DUP5 DUP5 SLOAD PUSH2 0xFB5 JUMP JUMPDEST DUP3 SSTORE POP POP POP POP JUMP JUMPDEST PUSH0 PUSH0 SWAP1 POP SWAP1 JUMP JUMPDEST PUSH2 0x1076 PUSH2 0x1067 JUMP JUMPDEST PUSH2 0x1081 DUP2 DUP5 DUP5 PUSH2 0x1042 JUMP JUMPDEST POP POP POP JUMP JUMPDEST JUMPDEST DUP2 DUP2 LT ISZERO PUSH2 0x10A4 JUMPI PUSH2 0x1099 PUSH0 DUP3 PUSH2 0x106E JUMP JUMPDEST PUSH1 0x1 DUP2 ADD SWAP1 POP PUSH2 0x1087 JUMP JUMPDEST POP POP JUMP JUMPDEST PUSH1 0x1F DUP3 GT ISZERO PUSH2 0x10E9 JUMPI PUSH2 0x10BA DUP2 PUSH2 0xF88 JUMP JUMPDEST PUSH2 0x10C3 DUP5 PUSH2 0xF9A JUMP JUMPDEST DUP2 ADD PUSH1 0x20 DUP6 LT ISZERO PUSH2 0x10D2 JUMPI DUP2 SWAP1 POP JUMPDEST PUSH2 0x10E6 PUSH2 0x10DE DUP6 PUSH2 0xF9A JUMP JUMPDEST DUP4 ADD DUP3 PUSH2 0x1086 JUMP JUMPDEST POP POP JUMPDEST POP POP POP JUMP JUMPDEST PUSH0 DUP3 DUP3 SHR SWAP1 POP SWAP3 SWAP2 POP POP JUMP JUMPDEST PUSH0 PUSH2 0x1109 PUSH0 NOT DUP5 PUSH1 0x8 MUL PUSH2 0x10EE JUMP JUMPDEST NOT DUP1 DUP4 AND SWAP2 POP POP SWAP3 SWAP2 POP POP JUMP JUMPDEST PUSH0 PUSH2 0x1121 DUP4 DUP4 PUSH2 0x10FA JUMP JUMPDEST SWAP2 POP DUP3 PUSH1 0x2 MUL DUP3 OR SWAP1 POP SWAP3 SWAP2 POP POP JUMP JUMPDEST PUSH2 0x113A DUP3 PUSH2 0xA6B JUMP JUMPDEST PUSH8 0xFFFFFFFFFFFFFFFF DUP2 GT ISZERO PUSH2 0x1153 JUMPI PUSH2 0x1152 PUSH2 0xB18 JUMP JUMPDEST JUMPDEST PUSH2 0x115D DUP3 SLOAD PUSH2 0xF08 JUMP JUMPDEST PUSH2 0x1168 DUP3 DUP3 DUP6 PUSH2 0x10A8 JUMP JUMPDEST PUSH0 PUSH1 0x20 SWAP1 POP PUSH1 0x1F DUP4 GT PUSH1 0x1 DUP2 EQ PUSH2 0x1199 JUMPI PUSH0 DUP5 ISZERO PUSH2 0x1187 JUMPI DUP3 DUP8 ADD MLOAD SWAP1 POP JUMPDEST PUSH2 0x1191 DUP6 DUP3 PUSH2 0x1116 JUMP JUMPDEST DUP7 SSTORE POP PUSH2 0x11F8 JUMP JUMPDEST PUSH1 0x1F NOT DUP5 AND PUSH2 0x11A7 DUP7 PUSH2 0xF88 JUMP JUMPDEST PUSH0 JUMPDEST DUP3 DUP2 LT ISZERO PUSH2 0x11CE JUMPI DUP5 DUP10 ADD MLOAD DUP3 SSTORE PUSH1 0x1 DUP3 ADD SWAP2 POP PUSH1 0x20 DUP6 ADD SWAP5 POP PUSH1 0x20 DUP2 ADD SWAP1 POP PUSH2 0x11A9 JUMP JUMPDEST DUP7 DUP4 LT ISZERO PUSH2 0x11EB JUMPI DUP5 DUP10 ADD MLOAD PUSH2 0x11E7 PUSH1 0x1F DUP10 AND DUP3 PUSH2 0x10FA JUMP JUMPDEST DUP4 SSTORE POP JUMPDEST PUSH1 0x1 PUSH1 0x2 DUP9 MUL ADD DUP9 SSTORE POP POP POP JUMPDEST POP POP POP POP POP POP JUMP JUMPDEST PUSH32 0x506C7567696E206E6F7420726567697374657265640000000000000000000000 PUSH0 DUP3 ADD MSTORE POP JUMP JUMPDEST PUSH0 PUSH2 0x1234 PUSH1 0x15 DUP4 PUSH2 0xA75 JUMP JUMPDEST SWAP2 POP PUSH2 0x123F DUP3 PUSH2 0x1200 JUMP JUMPDEST PUSH1 0x20 DUP3 ADD SWAP1 POP SWAP2 SWAP1 POP JUMP JUMPDEST PUSH0 PUSH1 0x20 DUP3 ADD SWAP1 POP DUP2 DUP2 SUB PUSH0 DUP4 ADD MSTORE PUSH2 0x1261 DUP2 PUSH2 0x1228 JUMP JUMPDEST SWAP1 POP SWAP2 SWAP1 POP JUMP JUMPDEST PUSH0 DUP2 MLOAD SWAP1 POP SWAP2 SWAP1 POP JUMP JUMPDEST PUSH0 DUP2 SWAP1 POP SWAP3 SWAP2 POP POP JUMP JUMPDEST PUSH0 PUSH2 0x1286 DUP3 PUSH2 0x1268 JUMP JUMPDEST PUSH2 0x1290 DUP2 DUP6 PUSH2 0x1272 JUMP JUMPDEST SWAP4 POP PUSH2 0x12A0 DUP2 DUP6 PUSH1 0x20 DUP7 ADD PUSH2 0xA85 JUMP JUMPDEST DUP1 DUP5 ADD SWAP2 POP POP SWAP3 SWAP2 POP POP JUMP JUMPDEST PUSH0 PUSH2 0x12B7 DUP3 DUP5 PUSH2 0x127C JUMP JUMPDEST SWAP2 POP DUP2 SWAP1 POP SWAP3 SWAP2 POP POP JUMP JUMPDEST PUSH32 0x506C7567696E20766965772063616C6C20666169656400000000000000000000 PUSH0 DUP3 ADD MSTORE POP JUMP JUMPDEST PUSH0 PUSH2 0x12F6 PUSH1 0x16 DUP4 PUSH2 0xA75 JUMP JUMPDEST SWAP2 POP PUSH2 0x1301 DUP3 PUSH2 0x12C2 JUMP JUMPDEST PUSH1 0x20 DUP3 ADD SWAP1 POP SWAP2 SWAP1 POP JUMP JUMPDEST PUSH0 PUSH1 0x20 DUP3 ADD SWAP1 POP DUP2 DUP2 SUB PUSH0 DUP4 ADD MSTORE PUSH2 0x1323 DUP2 PUSH2 0x12EA JUMP JUMPDEST SWAP1 POP SWAP2 SWAP1 POP JUMP JUMPDEST PUSH0 PUSH2 0x133C PUSH2 0x1337 DUP5 PUSH2 0xB90 JUMP JUMPDEST PUSH2 0xB76 JUMP JUMPDEST SWAP1 POP DUP3 DUP2 MSTORE PUSH1 0x20 DUP2 ADD DUP5 DUP5 DUP5 ADD GT ISZERO PUSH2 0x1358 JUMPI PUSH2 0x1357 PUSH2 0xB14 JUMP JUMPDEST JUMPDEST PUSH2 0x1363 DUP5 DUP3 DUP6 PUSH2 0xA85 JUMP JUMPDEST POP SWAP4 SWAP3 POP POP POP JUMP JUMPDEST PUSH0 DUP3 PUSH1 0x1F DUP4 ADD SLT PUSH2 0x137F JUMPI PUSH2 0x137E PUSH2 0xB10 JUMP JUMPDEST JUMPDEST DUP2 MLOAD PUSH2 0x138F DUP5 DUP3 PUSH1 0x20 DUP7 ADD PUSH2 0x132A JUMP JUMPDEST SWAP2 POP POP SWAP3 SWAP2 POP POP JUMP JUMPDEST PUSH0 PUSH1 0x20 DUP3 DUP5 SUB SLT ISZERO PUSH2 0x13AD JUMPI PUSH2 0x13AC PUSH2 0x9DE JUMP JUMPDEST JUMPDEST PUSH0 DUP3 ADD MLOAD PUSH8 0xFFFFFFFFFFFFFFFF DUP2 GT ISZERO PUSH2 0x13CA JUMPI PUSH2 0x13C9 PUSH2 0x9E2 JUMP JUMPDEST JUMPDEST PUSH2 0x13D6 DUP5 DUP3 DUP6 ADD PUSH2 0x136B JUMP JUMPDEST SWAP2 POP POP SWAP3 SWAP2 POP POP JUMP JUMPDEST PUSH0 PUSH1 0x40 DUP3 ADD SWAP1 POP PUSH2 0x13F2 PUSH0 DUP4 ADD DUP6 PUSH2 0xC83 JUMP JUMPDEST DUP2 DUP2 SUB PUSH1 0x20 DUP4 ADD MSTORE PUSH2 0x1404 DUP2 DUP5 PUSH2 0xAA3 JUMP JUMPDEST SWAP1 POP SWAP4 SWAP3 POP POP POP JUMP JUMPDEST PUSH32 0x506C7567696E206578637574696F6E206661696C656400000000000000000000 PUSH0 DUP3 ADD MSTORE POP JUMP JUMPDEST PUSH0 PUSH2 0x1441 PUSH1 0x16 DUP4 PUSH2 0xA75 JUMP JUMPDEST SWAP2 POP PUSH2 0x144C DUP3 PUSH2 0x140D JUMP JUMPDEST PUSH1 0x20 DUP3 ADD SWAP1 POP SWAP2 SWAP1 POP JUMP JUMPDEST PUSH0 PUSH1 0x20 DUP3 ADD SWAP1 POP DUP2 DUP2 SUB PUSH0 DUP4 ADD MSTORE PUSH2 0x146E DUP2 PUSH2 0x1435 JUMP JUMPDEST SWAP1 POP SWAP2 SWAP1 POP JUMP INVALID LOG2 PUSH5 0x6970667358 0x22 SLT KECCAK256 DUP2 0x4C PUSH25 0x9B6A497AF923AC474ECF7AEA41B33CB3AC4DA93451F0DD6A69 PUSH14 0x8D169A64736F6C634300081E0033 "
				},
				"gasEstimates": {
					"creation": {
						"codeDepositCost": "1058200",
						"executionCost": "1098",
						"totalCost": "1059298"
					},
					"external": {
						"getPlugin(string)": "infinite",
						"getProfile(address)": "infinite",
						"plugins(string)": "infinite",
						"profiles(address)": "infinite",
						"registryPlugin(string,address)": "infinite",
						"runPlugin(string,string,address,string)": "infinite",
						"runPluginView(string,string,address)": "infinite",
						"setProfile(string,string)": "infinite"
					}
				},
				"methodIdentifiers": {
					"getPlugin(string)": "349fab3c",
					"getProfile(address)": "0f53a470",
					"plugins(string)": "798b4c57",
					"profiles(address)": "bbe15627",
					"registryPlugin(string,address)": "d5049ed6",
					"runPlugin(string,string,address,string)": "ae9fcf2c",
					"runPluginView(string,string,address)": "87859de2",
					"setProfile(string,string)": "719e37ae"
				}
			},
			"storageLayout": {
				"storage": [
					{
						"astId": 11,
						"contract": "submissions/Zora/PluginStore.sol:pluginStore",
						"label": "profiles",
						"offset": 0,
						"slot": "0",
						"type": "t_mapping(t_address,t_struct(PlayerProfile)6_storage)"
					},
					{
						"astId": 15,
						"contract": "submissions/Zora/PluginStore.sol:pluginStore",
						"label": "plugins",
						"offset": 0,
						"slot": "1",
						"type": "t_mapping(t_string_memory_ptr,t_address)"
					}
				],
				"types": {
					"t_address": {
						"encoding": "inplace",
						"label": "address",
						"numberOfBytes": "20"
					},
					"t_mapping(t_address,t_struct(PlayerProfile)6_storage)": {
						"encoding": "mapping",
						"key": "t_address",
						"label": "mapping(address => struct pluginStore.PlayerProfile)",
						"numberOfBytes": "32",
						"value": "t_struct(PlayerProfile)6_storage"
					},
					"t_mapping(t_string_memory_ptr,t_address)": {
						"encoding": "mapping",
						"key": "t_string_memory_ptr",
						"label": "mapping(string => address)",
						"numberOfBytes": "32",
						"value": "t_address"
					},
					"t_string_memory_ptr": {
						"encoding": "bytes",
						"label": "string",
						"numberOfBytes": "32"
					},
					"t_string_storage": {
						"encoding": "bytes",
						"label": "string",
						"numberOfBytes": "32"
					},
					"t_struct(PlayerProfile)6_storage": {
						"encoding": "inplace",
						"label": "struct pluginStore.PlayerProfile",
						"members": [
							{
								"astId": 3,
								"contract": "submissions/Zora/PluginStore.sol:pluginStore",
								"label": "name",
								"offset": 0,
								"slot": "0",
								"type": "t_string_storage"
							},
							{
								"astId": 5,
								"contract": "submissions/Zora/PluginStore.sol:pluginStore",
								"label": "avatar",
								"offset": 0,
								"slot": "1",
								"type": "t_string_storage"
							}
						],
						"numberOfBytes": "64"
					}
				}
			},
			"userdoc": {
				"kind": "user",
				"methods": {},
				"version": 1
			}
		}
	}
}