{
	"submissions/Zora/Day15GasEfficientVoting.sol": {
		"GasEfficientVoting": {
			"abi": [
				{
					"anonymous": false,
					"inputs": [
						{
							"indexed": true,
							"internalType": "uint8",
							"name": "proposalId",
							"type": "uint8"
						},
						{
							"indexed": false,
							"internalType": "bytes32",
							"name": "name",
							"type": "bytes32"
						}
					],
					"name": "ProposalCreated",
					"type": "event"
				},
				{
					"anonymous": false,
					"inputs": [
						{
							"indexed": true,
							"internalType": "uint8",
							"name": "proposalId",
							"type": "uint8"
						}
					],
					"name": "ProposalExcuted",
					"type": "event"
				},
				{
					"anonymous": false,
					"inputs": [
						{
							"indexed": true,
							"internalType": "address",
							"name": "voter",
							"type": "address"
						},
						{
							"indexed": true,
							"internalType": "uint8",
							"name": "proposalId",
							"type": "uint8"
						}
					],
					"name": "Voted",
					"type": "event"
				},
				{
					"inputs": [
						{
							"internalType": "bytes32",
							"name": "_name",
							"type": "bytes32"
						},
						{
							"internalType": "uint32",
							"name": "duration",
							"type": "uint32"
						}
					],
					"name": "createProposal",
					"outputs": [],
					"stateMutability": "nonpayable",
					"type": "function"
				},
				{
					"inputs": [
						{
							"internalType": "uint8",
							"name": "proposalId",
							"type": "uint8"
						}
					],
					"name": "excuteProposal",
					"outputs": [],
					"stateMutability": "nonpayable",
					"type": "function"
				},
				{
					"inputs": [
						{
							"internalType": "uint8",
							"name": "proposalId",
							"type": "uint8"
						}
					],
					"name": "getProposal",
					"outputs": [
						{
							"internalType": "bytes32",
							"name": "name",
							"type": "bytes32"
						},
						{
							"internalType": "uint32",
							"name": "voteCount",
							"type": "uint32"
						},
						{
							"internalType": "uint32",
							"name": "startTime",
							"type": "uint32"
						},
						{
							"internalType": "uint32",
							"name": "endTime",
							"type": "uint32"
						},
						{
							"internalType": "bool",
							"name": "excuted",
							"type": "bool"
						},
						{
							"internalType": "bool",
							"name": "active",
							"type": "bool"
						}
					],
					"stateMutability": "view",
					"type": "function"
				},
				{
					"inputs": [
						{
							"internalType": "address",
							"name": "voter",
							"type": "address"
						},
						{
							"internalType": "uint8",
							"name": "proposalId",
							"type": "uint8"
						}
					],
					"name": "hasVoted",
					"outputs": [
						{
							"internalType": "bool",
							"name": "",
							"type": "bool"
						}
					],
					"stateMutability": "view",
					"type": "function"
				},
				{
					"inputs": [],
					"name": "proposalCount",
					"outputs": [
						{
							"internalType": "uint8",
							"name": "",
							"type": "uint8"
						}
					],
					"stateMutability": "view",
					"type": "function"
				},
				{
					"inputs": [
						{
							"internalType": "uint8",
							"name": "",
							"type": "uint8"
						}
					],
					"name": "proposalVoterCount",
					"outputs": [
						{
							"internalType": "uint32",
							"name": "",
							"type": "uint32"
						}
					],
					"stateMutability": "view",
					"type": "function"
				},
				{
					"inputs": [
						{
							"internalType": "uint8",
							"name": "",
							"type": "uint8"
						}
					],
					"name": "proposals",
					"outputs": [
						{
							"internalType": "bytes32",
							"name": "name",
							"type": "bytes32"
						},
						{
							"internalType": "uint32",
							"name": "voteCount",
							"type": "uint32"
						},
						{
							"internalType": "uint32",
							"name": "startTime",
							"type": "uint32"
						},
						{
							"internalType": "uint32",
							"name": "endTime",
							"type": "uint32"
						},
						{
							"internalType": "bool",
							"name": "excuted",
							"type": "bool"
						}
					],
					"stateMutability": "view",
					"type": "function"
				},
				{
					"inputs": [
						{
							"internalType": "uint8",
							"name": "proposalId",
							"type": "uint8"
						}
					],
					"name": "vote",
					"outputs": [],
					"stateMutability": "nonpayable",
					"type": "function"
				}
			],
			"devdoc": {
				"kind": "dev",
				"methods": {},
				"version": 1
			},
			"evm": {
				"assembly": "    /* \"submissions/Zora/Day15GasEfficientVoting.sol\":60:3061  contract GasEfficientVoting{... */\n  mstore(0x40, 0x80)\n  callvalue\n  dup1\n  iszero\n  tag_1\n  jumpi\n  revert(0x00, 0x00)\ntag_1:\n  pop\n  dataSize(sub_0)\n  dup1\n  dataOffset(sub_0)\n  0x00\n  codecopy\n  0x00\n  return\nstop\n\nsub_0: assembly {\n        /* \"submissions/Zora/Day15GasEfficientVoting.sol\":60:3061  contract GasEfficientVoting{... */\n      mstore(0x40, 0x80)\n      callvalue\n      dup1\n      iszero\n      tag_1\n      jumpi\n      revert(0x00, 0x00)\n    tag_1:\n      pop\n      jumpi(tag_2, lt(calldatasize, 0x04))\n      shr(0xe0, calldataload(0x00))\n      dup1\n      0xd3c6a0f2\n      gt\n      tag_11\n      jumpi\n      dup1\n      0xd3c6a0f2\n      eq\n      tag_7\n      jumpi\n      dup1\n      0xda35c664\n      eq\n      tag_8\n      jumpi\n      dup1\n      0xdac001fe\n      eq\n      tag_9\n      jumpi\n      dup1\n      0xf34b4353\n      eq\n      tag_10\n      jumpi\n      jump(tag_2)\n    tag_11:\n      dup1\n      0x59aef53c\n      eq\n      tag_3\n      jumpi\n      dup1\n      0x6760b1c0\n      eq\n      tag_4\n      jumpi\n      dup1\n      0x84acf0f5\n      eq\n      tag_5\n      jumpi\n      dup1\n      0xb3f98adc\n      eq\n      tag_6\n      jumpi\n    tag_2:\n      revert(0x00, 0x00)\n        /* \"submissions/Zora/Day15GasEfficientVoting.sol\":641:1204  function createProposal(bytes32 _name, uint32 duration) external{... */\n    tag_3:\n      tag_12\n      0x04\n      dup1\n      calldatasize\n      sub\n      dup2\n      add\n      swap1\n      tag_13\n      swap2\n      swap1\n      tag_14\n      jump\t// in\n    tag_13:\n      tag_15\n      jump\t// in\n    tag_12:\n      stop\n        /* \"submissions/Zora/Day15GasEfficientVoting.sol\":391:441  mapping(uint8 => uint32) public proposalVoterCount */\n    tag_4:\n      tag_16\n      0x04\n      dup1\n      calldatasize\n      sub\n      dup2\n      add\n      swap1\n      tag_17\n      swap2\n      swap1\n      tag_18\n      jump\t// in\n    tag_17:\n      tag_19\n      jump\t// in\n    tag_16:\n      mload(0x40)\n      tag_20\n      swap2\n      swap1\n      tag_21\n      jump\t// in\n    tag_20:\n      mload(0x40)\n      dup1\n      swap2\n      sub\n      swap1\n      return\n        /* \"submissions/Zora/Day15GasEfficientVoting.sol\":285:328  mapping(uint8 => Proposal) public proposals */\n    tag_5:\n      tag_22\n      0x04\n      dup1\n      calldatasize\n      sub\n      dup2\n      add\n      swap1\n      tag_23\n      swap2\n      swap1\n      tag_18\n      jump\t// in\n    tag_23:\n      tag_24\n      jump\t// in\n    tag_22:\n      mload(0x40)\n      tag_25\n      swap6\n      swap5\n      swap4\n      swap3\n      swap2\n      swap1\n      tag_26\n      jump\t// in\n    tag_25:\n      mload(0x40)\n      dup1\n      swap2\n      sub\n      swap1\n      return\n        /* \"submissions/Zora/Day15GasEfficientVoting.sol\":1212:1917  function vote(uint8 proposalId) external{... */\n    tag_6:\n      tag_27\n      0x04\n      dup1\n      calldatasize\n      sub\n      dup2\n      add\n      swap1\n      tag_28\n      swap2\n      swap1\n      tag_18\n      jump\t// in\n    tag_28:\n      tag_29\n      jump\t// in\n    tag_27:\n      stop\n        /* \"submissions/Zora/Day15GasEfficientVoting.sol\":2303:2453  function hasVoted(address voter, uint8 proposalId) external view returns(bool){... */\n    tag_7:\n      tag_30\n      0x04\n      dup1\n      calldatasize\n      sub\n      dup2\n      add\n      swap1\n      tag_31\n      swap2\n      swap1\n      tag_32\n      jump\t// in\n    tag_31:\n      tag_33\n      jump\t// in\n    tag_30:\n      mload(0x40)\n      tag_34\n      swap2\n      swap1\n      tag_35\n      jump\t// in\n    tag_34:\n      mload(0x40)\n      dup1\n      swap2\n      sub\n      swap1\n      return\n        /* \"submissions/Zora/Day15GasEfficientVoting.sol\":96:122  uint8 public proposalCount */\n    tag_8:\n      tag_36\n      tag_37\n      jump\t// in\n    tag_36:\n      mload(0x40)\n      tag_38\n      swap2\n      swap1\n      tag_39\n      jump\t// in\n    tag_38:\n      mload(0x40)\n      dup1\n      swap2\n      sub\n      swap1\n      return\n        /* \"submissions/Zora/Day15GasEfficientVoting.sol\":2461:3058  function getProposal(uint8 proposalId) external view returns(... */\n    tag_9:\n      tag_40\n      0x04\n      dup1\n      calldatasize\n      sub\n      dup2\n      add\n      swap1\n      tag_41\n      swap2\n      swap1\n      tag_18\n      jump\t// in\n    tag_41:\n      tag_42\n      jump\t// in\n    tag_40:\n      mload(0x40)\n      tag_43\n      swap7\n      swap6\n      swap5\n      swap4\n      swap3\n      swap2\n      swap1\n      tag_44\n      jump\t// in\n    tag_43:\n      mload(0x40)\n      dup1\n      swap2\n      sub\n      swap1\n      return\n        /* \"submissions/Zora/Day15GasEfficientVoting.sol\":1925:2295  function excuteProposal(uint8 proposalId) external{... */\n    tag_10:\n      tag_45\n      0x04\n      dup1\n      calldatasize\n      sub\n      dup2\n      add\n      swap1\n      tag_46\n      swap2\n      swap1\n      tag_18\n      jump\t// in\n    tag_46:\n      tag_47\n      jump\t// in\n    tag_45:\n      stop\n        /* \"submissions/Zora/Day15GasEfficientVoting.sol\":641:1204  function createProposal(bytes32 _name, uint32 duration) external{... */\n    tag_15:\n        /* \"submissions/Zora/Day15GasEfficientVoting.sol\":735:736  0 */\n      0x00\n        /* \"submissions/Zora/Day15GasEfficientVoting.sol\":724:732  duration */\n      dup2\n        /* \"submissions/Zora/Day15GasEfficientVoting.sol\":724:736  duration > 0 */\n      0xffffffff\n      and\n      gt\n        /* \"submissions/Zora/Day15GasEfficientVoting.sol\":716:772  require(duration > 0, \"Durations should be more than 0\") */\n      tag_49\n      jumpi\n      mload(0x40)\n      0x08c379a000000000000000000000000000000000000000000000000000000000\n      dup2\n      mstore\n      0x04\n      add\n      tag_50\n      swap1\n      tag_51\n      jump\t// in\n    tag_50:\n      mload(0x40)\n      dup1\n      swap2\n      sub\n      swap1\n      revert\n    tag_49:\n        /* \"submissions/Zora/Day15GasEfficientVoting.sol\":783:799  uint8 proposalId */\n      0x00\n        /* \"submissions/Zora/Day15GasEfficientVoting.sol\":802:815  proposalCount */\n      0x00\n      0x00\n      swap1\n      sload\n      swap1\n      0x0100\n      exp\n      swap1\n      div\n      0xff\n      and\n        /* \"submissions/Zora/Day15GasEfficientVoting.sol\":783:815  uint8 proposalId = proposalCount */\n      swap1\n      pop\n        /* \"submissions/Zora/Day15GasEfficientVoting.sol\":826:839  proposalCount */\n      0x00\n      0x00\n        /* \"submissions/Zora/Day15GasEfficientVoting.sol\":826:841  proposalCount++ */\n      dup2\n      dup2\n      swap1\n      sload\n      swap1\n      0x0100\n      exp\n      swap1\n      div\n      0xff\n      and\n      dup1\n      swap3\n      swap2\n      swap1\n      tag_52\n      swap1\n      tag_53\n      jump\t// in\n    tag_52:\n      swap2\n      swap1\n      0x0100\n      exp\n      dup2\n      sload\n      dup2\n      0xff\n      mul\n      not\n      and\n      swap1\n      dup4\n      0xff\n      and\n      mul\n      or\n      swap1\n      sstore\n      pop\n      pop\n        /* \"submissions/Zora/Day15GasEfficientVoting.sol\":852:879  Proposal memory newProposal */\n      0x00\n        /* \"submissions/Zora/Day15GasEfficientVoting.sol\":882:1098  Proposal({... */\n      mload(0x40)\n      dup1\n      0xa0\n      add\n      0x40\n      mstore\n      dup1\n        /* \"submissions/Zora/Day15GasEfficientVoting.sol\":912:917  _name */\n      dup6\n        /* \"submissions/Zora/Day15GasEfficientVoting.sol\":882:1098  Proposal({... */\n      dup2\n      mstore\n      0x20\n      add\n        /* \"submissions/Zora/Day15GasEfficientVoting.sol\":943:944  0 */\n      0x00\n        /* \"submissions/Zora/Day15GasEfficientVoting.sol\":882:1098  Proposal({... */\n      0xffffffff\n      and\n      dup2\n      mstore\n      0x20\n      add\n        /* \"submissions/Zora/Day15GasEfficientVoting.sol\":977:992  block.timestamp */\n      timestamp\n        /* \"submissions/Zora/Day15GasEfficientVoting.sol\":882:1098  Proposal({... */\n      0xffffffff\n      and\n      dup2\n      mstore\n      0x20\n      add\n        /* \"submissions/Zora/Day15GasEfficientVoting.sol\":1043:1051  duration */\n      dup5\n        /* \"submissions/Zora/Day15GasEfficientVoting.sol\":1024:1039  block.timestamp */\n      timestamp\n        /* \"submissions/Zora/Day15GasEfficientVoting.sol\":1017:1051  uint32(block.timestamp) + duration */\n      tag_54\n      swap2\n      swap1\n      tag_55\n      jump\t// in\n    tag_54:\n        /* \"submissions/Zora/Day15GasEfficientVoting.sol\":882:1098  Proposal({... */\n      0xffffffff\n      and\n      dup2\n      mstore\n      0x20\n      add\n        /* \"submissions/Zora/Day15GasEfficientVoting.sol\":1075:1080  false */\n      0x00\n        /* \"submissions/Zora/Day15GasEfficientVoting.sol\":882:1098  Proposal({... */\n      iszero\n      iszero\n      dup2\n      mstore\n      pop\n        /* \"submissions/Zora/Day15GasEfficientVoting.sol\":852:1098  Proposal memory newProposal = Proposal({... */\n      swap1\n      pop\n        /* \"submissions/Zora/Day15GasEfficientVoting.sol\":1133:1144  newProposal */\n      dup1\n        /* \"submissions/Zora/Day15GasEfficientVoting.sol\":1109:1118  proposals */\n      0x01\n        /* \"submissions/Zora/Day15GasEfficientVoting.sol\":1109:1130  proposals[proposalId] */\n      0x00\n        /* \"submissions/Zora/Day15GasEfficientVoting.sol\":1119:1129  proposalId */\n      dup5\n        /* \"submissions/Zora/Day15GasEfficientVoting.sol\":1109:1130  proposals[proposalId] */\n      0xff\n      and\n      0xff\n      and\n      dup2\n      mstore\n      0x20\n      add\n      swap1\n      dup2\n      mstore\n      0x20\n      add\n      0x00\n      keccak256\n        /* \"submissions/Zora/Day15GasEfficientVoting.sol\":1109:1144  proposals[proposalId] = newProposal */\n      0x00\n      dup3\n      add\n      mload\n      dup2\n      0x00\n      add\n      sstore\n      0x20\n      dup3\n      add\n      mload\n      dup2\n      0x01\n      add\n      exp(0x0100, 0x00)\n      dup2\n      sload\n      dup2\n      0xffffffff\n      mul\n      not\n      and\n      swap1\n      dup4\n      0xffffffff\n      and\n      mul\n      or\n      swap1\n      sstore\n      pop\n      0x40\n      dup3\n      add\n      mload\n      dup2\n      0x01\n      add\n      exp(0x0100, 0x04)\n      dup2\n      sload\n      dup2\n      0xffffffff\n      mul\n      not\n      and\n      swap1\n      dup4\n      0xffffffff\n      and\n      mul\n      or\n      swap1\n      sstore\n      pop\n      0x60\n      dup3\n      add\n      mload\n      dup2\n      0x01\n      add\n      exp(0x0100, 0x08)\n      dup2\n      sload\n      dup2\n      0xffffffff\n      mul\n      not\n      and\n      swap1\n      dup4\n      0xffffffff\n      and\n      mul\n      or\n      swap1\n      sstore\n      pop\n      0x80\n      dup3\n      add\n      mload\n      dup2\n      0x01\n      add\n      exp(0x0100, 0x0c)\n      dup2\n      sload\n      dup2\n      0xff\n      mul\n      not\n      and\n      swap1\n      dup4\n      iszero\n      iszero\n      mul\n      or\n      swap1\n      sstore\n      pop\n      swap1\n      pop\n      pop\n        /* \"submissions/Zora/Day15GasEfficientVoting.sol\":1176:1186  proposalId */\n      dup2\n        /* \"submissions/Zora/Day15GasEfficientVoting.sol\":1160:1194  ProposalCreated(proposalId, _name) */\n      0xff\n      and\n      0x778068a8b34cd2ab006c1c96cd8b819623539c5979eea060167a8376ab51ae26\n        /* \"submissions/Zora/Day15GasEfficientVoting.sol\":1188:1193  _name */\n      dup6\n        /* \"submissions/Zora/Day15GasEfficientVoting.sol\":1160:1194  ProposalCreated(proposalId, _name) */\n      mload(0x40)\n      tag_56\n      swap2\n      swap1\n      tag_57\n      jump\t// in\n    tag_56:\n      mload(0x40)\n      dup1\n      swap2\n      sub\n      swap1\n      log2\n        /* \"submissions/Zora/Day15GasEfficientVoting.sol\":705:1204  {... */\n      pop\n      pop\n        /* \"submissions/Zora/Day15GasEfficientVoting.sol\":641:1204  function createProposal(bytes32 _name, uint32 duration) external{... */\n      pop\n      pop\n      jump\t// out\n        /* \"submissions/Zora/Day15GasEfficientVoting.sol\":391:441  mapping(uint8 => uint32) public proposalVoterCount */\n    tag_19:\n      mstore(0x20, 0x03)\n      dup1\n      0x00\n      mstore\n      keccak256(0x00, 0x40)\n      0x00\n      swap2\n      pop\n      sload\n      swap1\n      0x0100\n      exp\n      swap1\n      div\n      0xffffffff\n      and\n      dup2\n      jump\t// out\n        /* \"submissions/Zora/Day15GasEfficientVoting.sol\":285:328  mapping(uint8 => Proposal) public proposals */\n    tag_24:\n      mstore(0x20, 0x01)\n      dup1\n      0x00\n      mstore\n      keccak256(0x00, 0x40)\n      0x00\n      swap2\n      pop\n      swap1\n      pop\n      dup1\n      0x00\n      add\n      sload\n      swap1\n      dup1\n      0x01\n      add\n      0x00\n      swap1\n      sload\n      swap1\n      0x0100\n      exp\n      swap1\n      div\n      0xffffffff\n      and\n      swap1\n      dup1\n      0x01\n      add\n      0x04\n      swap1\n      sload\n      swap1\n      0x0100\n      exp\n      swap1\n      div\n      0xffffffff\n      and\n      swap1\n      dup1\n      0x01\n      add\n      0x08\n      swap1\n      sload\n      swap1\n      0x0100\n      exp\n      swap1\n      div\n      0xffffffff\n      and\n      swap1\n      dup1\n      0x01\n      add\n      0x0c\n      swap1\n      sload\n      swap1\n      0x0100\n      exp\n      swap1\n      div\n      0xff\n      and\n      swap1\n      pop\n      dup6\n      jump\t// out\n        /* \"submissions/Zora/Day15GasEfficientVoting.sol\":1212:1917  function vote(uint8 proposalId) external{... */\n    tag_29:\n        /* \"submissions/Zora/Day15GasEfficientVoting.sol\":1284:1297  proposalCount */\n      0x00\n      0x00\n      swap1\n      sload\n      swap1\n      0x0100\n      exp\n      swap1\n      div\n      0xff\n      and\n        /* \"submissions/Zora/Day15GasEfficientVoting.sol\":1271:1297  proposalId < proposalCount */\n      0xff\n      and\n        /* \"submissions/Zora/Day15GasEfficientVoting.sol\":1271:1281  proposalId */\n      dup2\n        /* \"submissions/Zora/Day15GasEfficientVoting.sol\":1271:1297  proposalId < proposalCount */\n      0xff\n      and\n      lt\n        /* \"submissions/Zora/Day15GasEfficientVoting.sol\":1263:1318  require(proposalId < proposalCount, \"Invalid proposal\") */\n      tag_59\n      jumpi\n      mload(0x40)\n      0x08c379a000000000000000000000000000000000000000000000000000000000\n      dup2\n      mstore\n      0x04\n      add\n      tag_60\n      swap1\n      tag_61\n      jump\t// in\n    tag_60:\n      mload(0x40)\n      dup1\n      swap2\n      sub\n      swap1\n      revert\n    tag_59:\n        /* \"submissions/Zora/Day15GasEfficientVoting.sol\":1329:1348  uint256 currentTime */\n      0x00\n        /* \"submissions/Zora/Day15GasEfficientVoting.sol\":1358:1373  block.timestamp */\n      timestamp\n        /* \"submissions/Zora/Day15GasEfficientVoting.sol\":1329:1374  uint256 currentTime = uint32(block.timestamp) */\n      0xffffffff\n      and\n      swap1\n      pop\n        /* \"submissions/Zora/Day15GasEfficientVoting.sol\":1408:1417  proposals */\n      0x01\n        /* \"submissions/Zora/Day15GasEfficientVoting.sol\":1408:1429  proposals[proposalId] */\n      0x00\n        /* \"submissions/Zora/Day15GasEfficientVoting.sol\":1418:1428  proposalId */\n      dup4\n        /* \"submissions/Zora/Day15GasEfficientVoting.sol\":1408:1429  proposals[proposalId] */\n      0xff\n      and\n      0xff\n      and\n      dup2\n      mstore\n      0x20\n      add\n      swap1\n      dup2\n      mstore\n      0x20\n      add\n      0x00\n      keccak256\n        /* \"submissions/Zora/Day15GasEfficientVoting.sol\":1408:1439  proposals[proposalId].startTime */\n      0x01\n      add\n      0x04\n      swap1\n      sload\n      swap1\n      0x0100\n      exp\n      swap1\n      div\n      0xffffffff\n      and\n        /* \"submissions/Zora/Day15GasEfficientVoting.sol\":1393:1439  currentTime >= proposals[proposalId].startTime */\n      0xffffffff\n      and\n        /* \"submissions/Zora/Day15GasEfficientVoting.sol\":1393:1404  currentTime */\n      dup2\n        /* \"submissions/Zora/Day15GasEfficientVoting.sol\":1393:1439  currentTime >= proposals[proposalId].startTime */\n      lt\n      iszero\n        /* \"submissions/Zora/Day15GasEfficientVoting.sol\":1385:1466  require(currentTime >= proposals[proposalId].startTime, \"Voting has not started\") */\n      tag_62\n      jumpi\n      mload(0x40)\n      0x08c379a000000000000000000000000000000000000000000000000000000000\n      dup2\n      mstore\n      0x04\n      add\n      tag_63\n      swap1\n      tag_64\n      jump\t// in\n    tag_63:\n      mload(0x40)\n      dup1\n      swap2\n      sub\n      swap1\n      revert\n    tag_62:\n        /* \"submissions/Zora/Day15GasEfficientVoting.sol\":1500:1509  proposals */\n      0x01\n        /* \"submissions/Zora/Day15GasEfficientVoting.sol\":1500:1521  proposals[proposalId] */\n      0x00\n        /* \"submissions/Zora/Day15GasEfficientVoting.sol\":1510:1520  proposalId */\n      dup4\n        /* \"submissions/Zora/Day15GasEfficientVoting.sol\":1500:1521  proposals[proposalId] */\n      0xff\n      and\n      0xff\n      and\n      dup2\n      mstore\n      0x20\n      add\n      swap1\n      dup2\n      mstore\n      0x20\n      add\n      0x00\n      keccak256\n        /* \"submissions/Zora/Day15GasEfficientVoting.sol\":1500:1529  proposals[proposalId].endTime */\n      0x01\n      add\n      0x08\n      swap1\n      sload\n      swap1\n      0x0100\n      exp\n      swap1\n      div\n      0xffffffff\n      and\n        /* \"submissions/Zora/Day15GasEfficientVoting.sol\":1485:1529  currentTime <= proposals[proposalId].endTime */\n      0xffffffff\n      and\n        /* \"submissions/Zora/Day15GasEfficientVoting.sol\":1485:1496  currentTime */\n      dup2\n        /* \"submissions/Zora/Day15GasEfficientVoting.sol\":1485:1529  currentTime <= proposals[proposalId].endTime */\n      gt\n      iszero\n        /* \"submissions/Zora/Day15GasEfficientVoting.sol\":1477:1550  require(currentTime <= proposals[proposalId].endTime, \"Voting has ended\") */\n      tag_65\n      jumpi\n      mload(0x40)\n      0x08c379a000000000000000000000000000000000000000000000000000000000\n      dup2\n      mstore\n      0x04\n      add\n      tag_66\n      swap1\n      tag_67\n      jump\t// in\n    tag_66:\n      mload(0x40)\n      dup1\n      swap2\n      sub\n      swap1\n      revert\n    tag_65:\n        /* \"submissions/Zora/Day15GasEfficientVoting.sol\":1563:1580  uint256 voterData */\n      0x00\n        /* \"submissions/Zora/Day15GasEfficientVoting.sol\":1583:1596  voterRegistry */\n      0x02\n        /* \"submissions/Zora/Day15GasEfficientVoting.sol\":1583:1608  voterRegistry[msg.sender] */\n      0x00\n        /* \"submissions/Zora/Day15GasEfficientVoting.sol\":1597:1607  msg.sender */\n      caller\n        /* \"submissions/Zora/Day15GasEfficientVoting.sol\":1583:1608  voterRegistry[msg.sender] */\n      0xffffffffffffffffffffffffffffffffffffffff\n      and\n      0xffffffffffffffffffffffffffffffffffffffff\n      and\n      dup2\n      mstore\n      0x20\n      add\n      swap1\n      dup2\n      mstore\n      0x20\n      add\n      0x00\n      keccak256\n      sload\n        /* \"submissions/Zora/Day15GasEfficientVoting.sol\":1563:1608  uint256 voterData = voterRegistry[msg.sender] */\n      swap1\n      pop\n        /* \"submissions/Zora/Day15GasEfficientVoting.sol\":1619:1631  uint256 mask */\n      0x00\n        /* \"submissions/Zora/Day15GasEfficientVoting.sol\":1639:1649  proposalId */\n      dup4\n        /* \"submissions/Zora/Day15GasEfficientVoting.sol\":1634:1649  1 << proposalId */\n      0xff\n      and\n        /* \"submissions/Zora/Day15GasEfficientVoting.sol\":1634:1635  1 */\n      0x01\n        /* \"submissions/Zora/Day15GasEfficientVoting.sol\":1634:1649  1 << proposalId */\n      swap1\n      shl\n        /* \"submissions/Zora/Day15GasEfficientVoting.sol\":1619:1649  uint256 mask = 1 << proposalId */\n      swap1\n      pop\n        /* \"submissions/Zora/Day15GasEfficientVoting.sol\":1697:1698  0 */\n      0x00\n        /* \"submissions/Zora/Day15GasEfficientVoting.sol\":1668:1681  voterRegistry */\n      0x02\n        /* \"submissions/Zora/Day15GasEfficientVoting.sol\":1668:1693  voterRegistry[msg.sender] */\n      0x00\n        /* \"submissions/Zora/Day15GasEfficientVoting.sol\":1682:1692  msg.sender */\n      caller\n        /* \"submissions/Zora/Day15GasEfficientVoting.sol\":1668:1693  voterRegistry[msg.sender] */\n      0xffffffffffffffffffffffffffffffffffffffff\n      and\n      0xffffffffffffffffffffffffffffffffffffffff\n      and\n      dup2\n      mstore\n      0x20\n      add\n      swap1\n      dup2\n      mstore\n      0x20\n      add\n      0x00\n      keccak256\n      sload\n        /* \"submissions/Zora/Day15GasEfficientVoting.sol\":1668:1698  voterRegistry[msg.sender] == 0 */\n      eq\n        /* \"submissions/Zora/Day15GasEfficientVoting.sol\":1660:1716  require(voterRegistry[msg.sender] == 0, \"Already voted\") */\n      tag_68\n      jumpi\n      mload(0x40)\n      0x08c379a000000000000000000000000000000000000000000000000000000000\n      dup2\n      mstore\n      0x04\n      add\n      tag_69\n      swap1\n      tag_70\n      jump\t// in\n    tag_69:\n      mload(0x40)\n      dup1\n      swap2\n      sub\n      swap1\n      revert\n    tag_68:\n        /* \"submissions/Zora/Day15GasEfficientVoting.sol\":1767:1771  mask */\n      dup1\n        /* \"submissions/Zora/Day15GasEfficientVoting.sol\":1755:1764  voterData */\n      dup3\n        /* \"submissions/Zora/Day15GasEfficientVoting.sol\":1755:1771  voterData | mask */\n      or\n        /* \"submissions/Zora/Day15GasEfficientVoting.sol\":1727:1740  voterRegistry */\n      0x02\n        /* \"submissions/Zora/Day15GasEfficientVoting.sol\":1727:1752  voterRegistry[msg.sender] */\n      0x00\n        /* \"submissions/Zora/Day15GasEfficientVoting.sol\":1741:1751  msg.sender */\n      caller\n        /* \"submissions/Zora/Day15GasEfficientVoting.sol\":1727:1752  voterRegistry[msg.sender] */\n      0xffffffffffffffffffffffffffffffffffffffff\n      and\n      0xffffffffffffffffffffffffffffffffffffffff\n      and\n      dup2\n      mstore\n      0x20\n      add\n      swap1\n      dup2\n      mstore\n      0x20\n      add\n      0x00\n      keccak256\n        /* \"submissions/Zora/Day15GasEfficientVoting.sol\":1727:1771  voterRegistry[msg.sender] = voterData | mask */\n      dup2\n      swap1\n      sstore\n      pop\n        /* \"submissions/Zora/Day15GasEfficientVoting.sol\":1782:1791  proposals */\n      0x01\n        /* \"submissions/Zora/Day15GasEfficientVoting.sol\":1782:1803  proposals[proposalId] */\n      0x00\n        /* \"submissions/Zora/Day15GasEfficientVoting.sol\":1792:1802  proposalId */\n      dup6\n        /* \"submissions/Zora/Day15GasEfficientVoting.sol\":1782:1803  proposals[proposalId] */\n      0xff\n      and\n      0xff\n      and\n      dup2\n      mstore\n      0x20\n      add\n      swap1\n      dup2\n      mstore\n      0x20\n      add\n      0x00\n      keccak256\n        /* \"submissions/Zora/Day15GasEfficientVoting.sol\":1782:1813  proposals[proposalId].voteCount */\n      0x01\n      add\n      0x00\n        /* \"submissions/Zora/Day15GasEfficientVoting.sol\":1782:1815  proposals[proposalId].voteCount++ */\n      dup2\n      dup2\n      swap1\n      sload\n      swap1\n      0x0100\n      exp\n      swap1\n      div\n      0xffffffff\n      and\n      dup1\n      swap3\n      swap2\n      swap1\n      tag_71\n      swap1\n      tag_72\n      jump\t// in\n    tag_71:\n      swap2\n      swap1\n      0x0100\n      exp\n      dup2\n      sload\n      dup2\n      0xffffffff\n      mul\n      not\n      and\n      swap1\n      dup4\n      0xffffffff\n      and\n      mul\n      or\n      swap1\n      sstore\n      pop\n      pop\n        /* \"submissions/Zora/Day15GasEfficientVoting.sol\":1826:1844  proposalVoterCount */\n      0x03\n        /* \"submissions/Zora/Day15GasEfficientVoting.sol\":1826:1856  proposalVoterCount[proposalId] */\n      0x00\n        /* \"submissions/Zora/Day15GasEfficientVoting.sol\":1845:1855  proposalId */\n      dup6\n        /* \"submissions/Zora/Day15GasEfficientVoting.sol\":1826:1856  proposalVoterCount[proposalId] */\n      0xff\n      and\n      0xff\n      and\n      dup2\n      mstore\n      0x20\n      add\n      swap1\n      dup2\n      mstore\n      0x20\n      add\n      0x00\n      keccak256\n      0x00\n        /* \"submissions/Zora/Day15GasEfficientVoting.sol\":1826:1858  proposalVoterCount[proposalId]++ */\n      dup2\n      dup2\n      swap1\n      sload\n      swap1\n      0x0100\n      exp\n      swap1\n      div\n      0xffffffff\n      and\n      dup1\n      swap3\n      swap2\n      swap1\n      tag_73\n      swap1\n      tag_72\n      jump\t// in\n    tag_73:\n      swap2\n      swap1\n      0x0100\n      exp\n      dup2\n      sload\n      dup2\n      0xffffffff\n      mul\n      not\n      and\n      swap1\n      dup4\n      0xffffffff\n      and\n      mul\n      or\n      swap1\n      sstore\n      pop\n      pop\n        /* \"submissions/Zora/Day15GasEfficientVoting.sol\":1892:1902  proposalId */\n      dup4\n        /* \"submissions/Zora/Day15GasEfficientVoting.sol\":1874:1903  Voted(msg.sender, proposalId) */\n      0xff\n      and\n        /* \"submissions/Zora/Day15GasEfficientVoting.sol\":1880:1890  msg.sender */\n      caller\n        /* \"submissions/Zora/Day15GasEfficientVoting.sol\":1874:1903  Voted(msg.sender, proposalId) */\n      0xffffffffffffffffffffffffffffffffffffffff\n      and\n      0x14075e33dffdc00c1fcaf75d0f86d667170be57fb566b12b41b499e5fa53b125\n      mload(0x40)\n      mload(0x40)\n      dup1\n      swap2\n      sub\n      swap1\n      log3\n        /* \"submissions/Zora/Day15GasEfficientVoting.sol\":1252:1917  {... */\n      pop\n      pop\n      pop\n        /* \"submissions/Zora/Day15GasEfficientVoting.sol\":1212:1917  function vote(uint8 proposalId) external{... */\n      pop\n      jump\t// out\n        /* \"submissions/Zora/Day15GasEfficientVoting.sol\":2303:2453  function hasVoted(address voter, uint8 proposalId) external view returns(bool){... */\n    tag_33:\n        /* \"submissions/Zora/Day15GasEfficientVoting.sol\":2376:2380  bool */\n      0x00\n        /* \"submissions/Zora/Day15GasEfficientVoting.sol\":2443:2444  0 */\n      0x00\n        /* \"submissions/Zora/Day15GasEfficientVoting.sol\":2428:2438  proposalId */\n      dup3\n        /* \"submissions/Zora/Day15GasEfficientVoting.sol\":2423:2438  1 << proposalId */\n      0xff\n      and\n        /* \"submissions/Zora/Day15GasEfficientVoting.sol\":2423:2424  1 */\n      0x01\n        /* \"submissions/Zora/Day15GasEfficientVoting.sol\":2423:2438  1 << proposalId */\n      swap1\n      shl\n        /* \"submissions/Zora/Day15GasEfficientVoting.sol\":2399:2412  voterRegistry */\n      0x02\n        /* \"submissions/Zora/Day15GasEfficientVoting.sol\":2399:2419  voterRegistry[voter] */\n      0x00\n        /* \"submissions/Zora/Day15GasEfficientVoting.sol\":2413:2418  voter */\n      dup7\n        /* \"submissions/Zora/Day15GasEfficientVoting.sol\":2399:2419  voterRegistry[voter] */\n      0xffffffffffffffffffffffffffffffffffffffff\n      and\n      0xffffffffffffffffffffffffffffffffffffffff\n      and\n      dup2\n      mstore\n      0x20\n      add\n      swap1\n      dup2\n      mstore\n      0x20\n      add\n      0x00\n      keccak256\n      sload\n        /* \"submissions/Zora/Day15GasEfficientVoting.sol\":2399:2439  voterRegistry[voter] & (1 << proposalId) */\n      and\n        /* \"submissions/Zora/Day15GasEfficientVoting.sol\":2399:2444  voterRegistry[voter] & (1 << proposalId) != 0 */\n      eq\n      iszero\n        /* \"submissions/Zora/Day15GasEfficientVoting.sol\":2392:2445  return(voterRegistry[voter] & (1 << proposalId) != 0) */\n      swap1\n      pop\n        /* \"submissions/Zora/Day15GasEfficientVoting.sol\":2303:2453  function hasVoted(address voter, uint8 proposalId) external view returns(bool){... */\n      swap3\n      swap2\n      pop\n      pop\n      jump\t// out\n        /* \"submissions/Zora/Day15GasEfficientVoting.sol\":96:122  uint8 public proposalCount */\n    tag_37:\n      0x00\n      0x00\n      swap1\n      sload\n      swap1\n      0x0100\n      exp\n      swap1\n      div\n      0xff\n      and\n      dup2\n      jump\t// out\n        /* \"submissions/Zora/Day15GasEfficientVoting.sol\":2461:3058  function getProposal(uint8 proposalId) external view returns(... */\n    tag_42:\n        /* \"submissions/Zora/Day15GasEfficientVoting.sol\":2532:2544  bytes32 name */\n      0x00\n        /* \"submissions/Zora/Day15GasEfficientVoting.sol\":2555:2571  uint32 voteCount */\n      0x00\n        /* \"submissions/Zora/Day15GasEfficientVoting.sol\":2582:2598  uint32 startTime */\n      0x00\n        /* \"submissions/Zora/Day15GasEfficientVoting.sol\":2609:2623  uint32 endTime */\n      0x00\n        /* \"submissions/Zora/Day15GasEfficientVoting.sol\":2634:2646  bool excuted */\n      0x00\n        /* \"submissions/Zora/Day15GasEfficientVoting.sol\":2657:2668  bool active */\n      0x00\n        /* \"submissions/Zora/Day15GasEfficientVoting.sol\":2711:2724  proposalCount */\n      0x00\n      0x00\n      swap1\n      sload\n      swap1\n      0x0100\n      exp\n      swap1\n      div\n      0xff\n      and\n        /* \"submissions/Zora/Day15GasEfficientVoting.sol\":2698:2724  proposalId < proposalCount */\n      0xff\n      and\n        /* \"submissions/Zora/Day15GasEfficientVoting.sol\":2698:2708  proposalId */\n      dup8\n        /* \"submissions/Zora/Day15GasEfficientVoting.sol\":2698:2724  proposalId < proposalCount */\n      0xff\n      and\n      lt\n        /* \"submissions/Zora/Day15GasEfficientVoting.sol\":2690:2745  require(proposalId < proposalCount, \"Invalid proposal\") */\n      tag_76\n      jumpi\n      mload(0x40)\n      0x08c379a000000000000000000000000000000000000000000000000000000000\n      dup2\n      mstore\n      0x04\n      add\n      tag_77\n      swap1\n      tag_61\n      jump\t// in\n    tag_77:\n      mload(0x40)\n      dup1\n      swap2\n      sub\n      swap1\n      revert\n    tag_76:\n        /* \"submissions/Zora/Day15GasEfficientVoting.sol\":2754:2779  Proposal storage proposal */\n      0x00\n        /* \"submissions/Zora/Day15GasEfficientVoting.sol\":2782:2791  proposals */\n      0x01\n        /* \"submissions/Zora/Day15GasEfficientVoting.sol\":2782:2803  proposals[proposalId] */\n      0x00\n        /* \"submissions/Zora/Day15GasEfficientVoting.sol\":2792:2802  proposalId */\n      dup10\n        /* \"submissions/Zora/Day15GasEfficientVoting.sol\":2782:2803  proposals[proposalId] */\n      0xff\n      and\n      0xff\n      and\n      dup2\n      mstore\n      0x20\n      add\n      swap1\n      dup2\n      mstore\n      0x20\n      add\n      0x00\n      keccak256\n        /* \"submissions/Zora/Day15GasEfficientVoting.sol\":2754:2803  Proposal storage proposal = proposals[proposalId] */\n      swap1\n      pop\n        /* \"submissions/Zora/Day15GasEfficientVoting.sol\":2827:2835  proposal */\n      dup1\n        /* \"submissions/Zora/Day15GasEfficientVoting.sol\":2827:2840  proposal.name */\n      0x00\n      add\n      sload\n        /* \"submissions/Zora/Day15GasEfficientVoting.sol\":2851:2859  proposal */\n      dup2\n        /* \"submissions/Zora/Day15GasEfficientVoting.sol\":2851:2869  proposal.voteCount */\n      0x01\n      add\n      0x00\n      swap1\n      sload\n      swap1\n      0x0100\n      exp\n      swap1\n      div\n      0xffffffff\n      and\n        /* \"submissions/Zora/Day15GasEfficientVoting.sol\":2880:2888  proposal */\n      dup3\n        /* \"submissions/Zora/Day15GasEfficientVoting.sol\":2880:2898  proposal.startTime */\n      0x01\n      add\n      0x04\n      swap1\n      sload\n      swap1\n      0x0100\n      exp\n      swap1\n      div\n      0xffffffff\n      and\n        /* \"submissions/Zora/Day15GasEfficientVoting.sol\":2909:2917  proposal */\n      dup4\n        /* \"submissions/Zora/Day15GasEfficientVoting.sol\":2909:2925  proposal.endTime */\n      0x01\n      add\n      0x08\n      swap1\n      sload\n      swap1\n      0x0100\n      exp\n      swap1\n      div\n      0xffffffff\n      and\n        /* \"submissions/Zora/Day15GasEfficientVoting.sol\":2936:2944  proposal */\n      dup5\n        /* \"submissions/Zora/Day15GasEfficientVoting.sol\":2936:2952  proposal.excuted */\n      0x01\n      add\n      0x0c\n      swap1\n      sload\n      swap1\n      0x0100\n      exp\n      swap1\n      div\n      0xff\n      and\n        /* \"submissions/Zora/Day15GasEfficientVoting.sol\":2983:2991  proposal */\n      dup6\n        /* \"submissions/Zora/Day15GasEfficientVoting.sol\":2983:3001  proposal.startTime */\n      0x01\n      add\n      0x04\n      swap1\n      sload\n      swap1\n      0x0100\n      exp\n      swap1\n      div\n      0xffffffff\n      and\n        /* \"submissions/Zora/Day15GasEfficientVoting.sol\":2964:3001  block.timestamp >= proposal.startTime */\n      0xffffffff\n      and\n        /* \"submissions/Zora/Day15GasEfficientVoting.sol\":2964:2979  block.timestamp */\n      timestamp\n        /* \"submissions/Zora/Day15GasEfficientVoting.sol\":2964:3001  block.timestamp >= proposal.startTime */\n      lt\n      iszero\n        /* \"submissions/Zora/Day15GasEfficientVoting.sol\":2964:3040  block.timestamp >= proposal.startTime && block.timestamp <= proposal.endTime */\n      dup1\n      iszero\n      tag_78\n      jumpi\n      pop\n        /* \"submissions/Zora/Day15GasEfficientVoting.sol\":3024:3032  proposal */\n      dup6\n        /* \"submissions/Zora/Day15GasEfficientVoting.sol\":3024:3040  proposal.endTime */\n      0x01\n      add\n      0x08\n      swap1\n      sload\n      swap1\n      0x0100\n      exp\n      swap1\n      div\n      0xffffffff\n      and\n        /* \"submissions/Zora/Day15GasEfficientVoting.sol\":3005:3040  block.timestamp <= proposal.endTime */\n      0xffffffff\n      and\n        /* \"submissions/Zora/Day15GasEfficientVoting.sol\":3005:3020  block.timestamp */\n      timestamp\n        /* \"submissions/Zora/Day15GasEfficientVoting.sol\":3005:3040  block.timestamp <= proposal.endTime */\n      gt\n      iszero\n        /* \"submissions/Zora/Day15GasEfficientVoting.sol\":2964:3040  block.timestamp >= proposal.startTime && block.timestamp <= proposal.endTime */\n    tag_78:\n        /* \"submissions/Zora/Day15GasEfficientVoting.sol\":2810:3050  return(... */\n      swap7\n      pop\n      swap7\n      pop\n      swap7\n      pop\n      swap7\n      pop\n      swap7\n      pop\n      swap7\n      pop\n      pop\n        /* \"submissions/Zora/Day15GasEfficientVoting.sol\":2461:3058  function getProposal(uint8 proposalId) external view returns(... */\n      swap2\n      swap4\n      swap6\n      pop\n      swap2\n      swap4\n      swap6\n      jump\t// out\n        /* \"submissions/Zora/Day15GasEfficientVoting.sol\":1925:2295  function excuteProposal(uint8 proposalId) external{... */\n    tag_47:\n        /* \"submissions/Zora/Day15GasEfficientVoting.sol\":2007:2020  proposalCount */\n      0x00\n      0x00\n      swap1\n      sload\n      swap1\n      0x0100\n      exp\n      swap1\n      div\n      0xff\n      and\n        /* \"submissions/Zora/Day15GasEfficientVoting.sol\":1994:2020  proposalId < proposalCount */\n      0xff\n      and\n        /* \"submissions/Zora/Day15GasEfficientVoting.sol\":1994:2004  proposalId */\n      dup2\n        /* \"submissions/Zora/Day15GasEfficientVoting.sol\":1994:2020  proposalId < proposalCount */\n      0xff\n      and\n      lt\n        /* \"submissions/Zora/Day15GasEfficientVoting.sol\":1986:2041  require(proposalId < proposalCount, \"Invalid Proposal\") */\n      tag_80\n      jumpi\n      mload(0x40)\n      0x08c379a000000000000000000000000000000000000000000000000000000000\n      dup2\n      mstore\n      0x04\n      add\n      tag_81\n      swap1\n      tag_82\n      jump\t// in\n    tag_81:\n      mload(0x40)\n      dup1\n      swap2\n      sub\n      swap1\n      revert\n    tag_80:\n        /* \"submissions/Zora/Day15GasEfficientVoting.sol\":2078:2087  proposals */\n      0x01\n        /* \"submissions/Zora/Day15GasEfficientVoting.sol\":2078:2099  proposals[proposalId] */\n      0x00\n        /* \"submissions/Zora/Day15GasEfficientVoting.sol\":2088:2098  proposalId */\n      dup3\n        /* \"submissions/Zora/Day15GasEfficientVoting.sol\":2078:2099  proposals[proposalId] */\n      0xff\n      and\n      0xff\n      and\n      dup2\n      mstore\n      0x20\n      add\n      swap1\n      dup2\n      mstore\n      0x20\n      add\n      0x00\n      keccak256\n        /* \"submissions/Zora/Day15GasEfficientVoting.sol\":2078:2107  proposals[proposalId].endTime */\n      0x01\n      add\n      0x08\n      swap1\n      sload\n      swap1\n      0x0100\n      exp\n      swap1\n      div\n      0xffffffff\n      and\n        /* \"submissions/Zora/Day15GasEfficientVoting.sol\":2060:2107  block.timestamp > proposals[proposalId].endTime */\n      0xffffffff\n      and\n        /* \"submissions/Zora/Day15GasEfficientVoting.sol\":2060:2075  block.timestamp */\n      timestamp\n        /* \"submissions/Zora/Day15GasEfficientVoting.sol\":2060:2107  block.timestamp > proposals[proposalId].endTime */\n      gt\n        /* \"submissions/Zora/Day15GasEfficientVoting.sol\":2052:2128  require(block.timestamp > proposals[proposalId].endTime, \"Voting not ended\") */\n      tag_83\n      jumpi\n      mload(0x40)\n      0x08c379a000000000000000000000000000000000000000000000000000000000\n      dup2\n      mstore\n      0x04\n      add\n      tag_84\n      swap1\n      tag_85\n      jump\t// in\n    tag_84:\n      mload(0x40)\n      dup1\n      swap2\n      sub\n      swap1\n      revert\n    tag_83:\n        /* \"submissions/Zora/Day15GasEfficientVoting.sol\":2148:2157  proposals */\n      0x01\n        /* \"submissions/Zora/Day15GasEfficientVoting.sol\":2148:2169  proposals[proposalId] */\n      0x00\n        /* \"submissions/Zora/Day15GasEfficientVoting.sol\":2158:2168  proposalId */\n      dup3\n        /* \"submissions/Zora/Day15GasEfficientVoting.sol\":2148:2169  proposals[proposalId] */\n      0xff\n      and\n      0xff\n      and\n      dup2\n      mstore\n      0x20\n      add\n      swap1\n      dup2\n      mstore\n      0x20\n      add\n      0x00\n      keccak256\n        /* \"submissions/Zora/Day15GasEfficientVoting.sol\":2148:2177  proposals[proposalId].excuted */\n      0x01\n      add\n      0x0c\n      swap1\n      sload\n      swap1\n      0x0100\n      exp\n      swap1\n      div\n      0xff\n      and\n        /* \"submissions/Zora/Day15GasEfficientVoting.sol\":2147:2177  !proposals[proposalId].excuted */\n      iszero\n        /* \"submissions/Zora/Day15GasEfficientVoting.sol\":2139:2197  require(!proposals[proposalId].excuted, \"Already excuted\") */\n      tag_86\n      jumpi\n      mload(0x40)\n      0x08c379a000000000000000000000000000000000000000000000000000000000\n      dup2\n      mstore\n      0x04\n      add\n      tag_87\n      swap1\n      tag_88\n      jump\t// in\n    tag_87:\n      mload(0x40)\n      dup1\n      swap2\n      sub\n      swap1\n      revert\n    tag_86:\n        /* \"submissions/Zora/Day15GasEfficientVoting.sol\":2240:2244  true */\n      0x01\n        /* \"submissions/Zora/Day15GasEfficientVoting.sol\":2208:2217  proposals */\n      dup1\n        /* \"submissions/Zora/Day15GasEfficientVoting.sol\":2208:2229  proposals[proposalId] */\n      0x00\n        /* \"submissions/Zora/Day15GasEfficientVoting.sol\":2218:2228  proposalId */\n      dup4\n        /* \"submissions/Zora/Day15GasEfficientVoting.sol\":2208:2229  proposals[proposalId] */\n      0xff\n      and\n      0xff\n      and\n      dup2\n      mstore\n      0x20\n      add\n      swap1\n      dup2\n      mstore\n      0x20\n      add\n      0x00\n      keccak256\n        /* \"submissions/Zora/Day15GasEfficientVoting.sol\":2208:2237  proposals[proposalId].excuted */\n      0x01\n      add\n      0x0c\n        /* \"submissions/Zora/Day15GasEfficientVoting.sol\":2208:2244  proposals[proposalId].excuted = true */\n      0x0100\n      exp\n      dup2\n      sload\n      dup2\n      0xff\n      mul\n      not\n      and\n      swap1\n      dup4\n      iszero\n      iszero\n      mul\n      or\n      swap1\n      sstore\n      pop\n        /* \"submissions/Zora/Day15GasEfficientVoting.sol\":2276:2286  proposalId */\n      dup1\n        /* \"submissions/Zora/Day15GasEfficientVoting.sol\":2260:2287  ProposalExcuted(proposalId) */\n      0xff\n      and\n      0x8aa589870aedc16475b88d2f3f2194d3ac48eee9f767dc13c621ef2ea9ab6968\n      mload(0x40)\n      mload(0x40)\n      dup1\n      swap2\n      sub\n      swap1\n      log2\n        /* \"submissions/Zora/Day15GasEfficientVoting.sol\":1925:2295  function excuteProposal(uint8 proposalId) external{... */\n      pop\n      jump\t// out\n        /* \"#utility.yul\":88:205   */\n    tag_90:\n        /* \"#utility.yul\":197:198   */\n      0x00\n        /* \"#utility.yul\":194:195   */\n      0x00\n        /* \"#utility.yul\":187:199   */\n      revert\n        /* \"#utility.yul\":334:411   */\n    tag_92:\n        /* \"#utility.yul\":371:378   */\n      0x00\n        /* \"#utility.yul\":400:405   */\n      dup2\n        /* \"#utility.yul\":389:405   */\n      swap1\n      pop\n        /* \"#utility.yul\":334:411   */\n      swap2\n      swap1\n      pop\n      jump\t// out\n        /* \"#utility.yul\":417:539   */\n    tag_93:\n        /* \"#utility.yul\":490:514   */\n      tag_134\n        /* \"#utility.yul\":508:513   */\n      dup2\n        /* \"#utility.yul\":490:514   */\n      tag_92\n      jump\t// in\n    tag_134:\n        /* \"#utility.yul\":483:488   */\n      dup2\n        /* \"#utility.yul\":480:515   */\n      eq\n        /* \"#utility.yul\":470:533   */\n      tag_135\n      jumpi\n        /* \"#utility.yul\":529:530   */\n      0x00\n        /* \"#utility.yul\":526:527   */\n      0x00\n        /* \"#utility.yul\":519:531   */\n      revert\n        /* \"#utility.yul\":470:533   */\n    tag_135:\n        /* \"#utility.yul\":417:539   */\n      pop\n      jump\t// out\n        /* \"#utility.yul\":545:684   */\n    tag_94:\n        /* \"#utility.yul\":591:596   */\n      0x00\n        /* \"#utility.yul\":629:635   */\n      dup2\n        /* \"#utility.yul\":616:636   */\n      calldataload\n        /* \"#utility.yul\":607:636   */\n      swap1\n      pop\n        /* \"#utility.yul\":645:678   */\n      tag_137\n        /* \"#utility.yul\":672:677   */\n      dup2\n        /* \"#utility.yul\":645:678   */\n      tag_93\n      jump\t// in\n    tag_137:\n        /* \"#utility.yul\":545:684   */\n      swap3\n      swap2\n      pop\n      pop\n      jump\t// out\n        /* \"#utility.yul\":690:783   */\n    tag_95:\n        /* \"#utility.yul\":726:733   */\n      0x00\n        /* \"#utility.yul\":766:776   */\n      0xffffffff\n        /* \"#utility.yul\":759:764   */\n      dup3\n        /* \"#utility.yul\":755:777   */\n      and\n        /* \"#utility.yul\":744:777   */\n      swap1\n      pop\n        /* \"#utility.yul\":690:783   */\n      swap2\n      swap1\n      pop\n      jump\t// out\n        /* \"#utility.yul\":789:909   */\n    tag_96:\n        /* \"#utility.yul\":861:884   */\n      tag_140\n        /* \"#utility.yul\":878:883   */\n      dup2\n        /* \"#utility.yul\":861:884   */\n      tag_95\n      jump\t// in\n    tag_140:\n        /* \"#utility.yul\":854:859   */\n      dup2\n        /* \"#utility.yul\":851:885   */\n      eq\n        /* \"#utility.yul\":841:903   */\n      tag_141\n      jumpi\n        /* \"#utility.yul\":899:900   */\n      0x00\n        /* \"#utility.yul\":896:897   */\n      0x00\n        /* \"#utility.yul\":889:901   */\n      revert\n        /* \"#utility.yul\":841:903   */\n    tag_141:\n        /* \"#utility.yul\":789:909   */\n      pop\n      jump\t// out\n        /* \"#utility.yul\":915:1052   */\n    tag_97:\n        /* \"#utility.yul\":960:965   */\n      0x00\n        /* \"#utility.yul\":998:1004   */\n      dup2\n        /* \"#utility.yul\":985:1005   */\n      calldataload\n        /* \"#utility.yul\":976:1005   */\n      swap1\n      pop\n        /* \"#utility.yul\":1014:1046   */\n      tag_143\n        /* \"#utility.yul\":1040:1045   */\n      dup2\n        /* \"#utility.yul\":1014:1046   */\n      tag_96\n      jump\t// in\n    tag_143:\n        /* \"#utility.yul\":915:1052   */\n      swap3\n      swap2\n      pop\n      pop\n      jump\t// out\n        /* \"#utility.yul\":1058:1530   */\n    tag_14:\n        /* \"#utility.yul\":1125:1131   */\n      0x00\n        /* \"#utility.yul\":1133:1139   */\n      0x00\n        /* \"#utility.yul\":1182:1184   */\n      0x40\n        /* \"#utility.yul\":1170:1179   */\n      dup4\n        /* \"#utility.yul\":1161:1168   */\n      dup6\n        /* \"#utility.yul\":1157:1180   */\n      sub\n        /* \"#utility.yul\":1153:1185   */\n      slt\n        /* \"#utility.yul\":1150:1269   */\n      iszero\n      tag_145\n      jumpi\n        /* \"#utility.yul\":1188:1267   */\n      tag_146\n      tag_90\n      jump\t// in\n    tag_146:\n        /* \"#utility.yul\":1150:1269   */\n    tag_145:\n        /* \"#utility.yul\":1308:1309   */\n      0x00\n        /* \"#utility.yul\":1333:1386   */\n      tag_147\n        /* \"#utility.yul\":1378:1385   */\n      dup6\n        /* \"#utility.yul\":1369:1375   */\n      dup3\n        /* \"#utility.yul\":1358:1367   */\n      dup7\n        /* \"#utility.yul\":1354:1376   */\n      add\n        /* \"#utility.yul\":1333:1386   */\n      tag_94\n      jump\t// in\n    tag_147:\n        /* \"#utility.yul\":1323:1386   */\n      swap3\n      pop\n        /* \"#utility.yul\":1279:1396   */\n      pop\n        /* \"#utility.yul\":1435:1437   */\n      0x20\n        /* \"#utility.yul\":1461:1513   */\n      tag_148\n        /* \"#utility.yul\":1505:1512   */\n      dup6\n        /* \"#utility.yul\":1496:1502   */\n      dup3\n        /* \"#utility.yul\":1485:1494   */\n      dup7\n        /* \"#utility.yul\":1481:1503   */\n      add\n        /* \"#utility.yul\":1461:1513   */\n      tag_97\n      jump\t// in\n    tag_148:\n        /* \"#utility.yul\":1451:1513   */\n      swap2\n      pop\n        /* \"#utility.yul\":1406:1523   */\n      pop\n        /* \"#utility.yul\":1058:1530   */\n      swap3\n      pop\n      swap3\n      swap1\n      pop\n      jump\t// out\n        /* \"#utility.yul\":1536:1622   */\n    tag_98:\n        /* \"#utility.yul\":1571:1578   */\n      0x00\n        /* \"#utility.yul\":1611:1615   */\n      0xff\n        /* \"#utility.yul\":1604:1609   */\n      dup3\n        /* \"#utility.yul\":1600:1616   */\n      and\n        /* \"#utility.yul\":1589:1616   */\n      swap1\n      pop\n        /* \"#utility.yul\":1536:1622   */\n      swap2\n      swap1\n      pop\n      jump\t// out\n        /* \"#utility.yul\":1628:1746   */\n    tag_99:\n        /* \"#utility.yul\":1699:1721   */\n      tag_151\n        /* \"#utility.yul\":1715:1720   */\n      dup2\n        /* \"#utility.yul\":1699:1721   */\n      tag_98\n      jump\t// in\n    tag_151:\n        /* \"#utility.yul\":1692:1697   */\n      dup2\n        /* \"#utility.yul\":1689:1722   */\n      eq\n        /* \"#utility.yul\":1679:1740   */\n      tag_152\n      jumpi\n        /* \"#utility.yul\":1736:1737   */\n      0x00\n        /* \"#utility.yul\":1733:1734   */\n      0x00\n        /* \"#utility.yul\":1726:1738   */\n      revert\n        /* \"#utility.yul\":1679:1740   */\n    tag_152:\n        /* \"#utility.yul\":1628:1746   */\n      pop\n      jump\t// out\n        /* \"#utility.yul\":1752:1887   */\n    tag_100:\n        /* \"#utility.yul\":1796:1801   */\n      0x00\n        /* \"#utility.yul\":1834:1840   */\n      dup2\n        /* \"#utility.yul\":1821:1841   */\n      calldataload\n        /* \"#utility.yul\":1812:1841   */\n      swap1\n      pop\n        /* \"#utility.yul\":1850:1881   */\n      tag_154\n        /* \"#utility.yul\":1875:1880   */\n      dup2\n        /* \"#utility.yul\":1850:1881   */\n      tag_99\n      jump\t// in\n    tag_154:\n        /* \"#utility.yul\":1752:1887   */\n      swap3\n      swap2\n      pop\n      pop\n      jump\t// out\n        /* \"#utility.yul\":1893:2218   */\n    tag_18:\n        /* \"#utility.yul\":1950:1956   */\n      0x00\n        /* \"#utility.yul\":1999:2001   */\n      0x20\n        /* \"#utility.yul\":1987:1996   */\n      dup3\n        /* \"#utility.yul\":1978:1985   */\n      dup5\n        /* \"#utility.yul\":1974:1997   */\n      sub\n        /* \"#utility.yul\":1970:2002   */\n      slt\n        /* \"#utility.yul\":1967:2086   */\n      iszero\n      tag_156\n      jumpi\n        /* \"#utility.yul\":2005:2084   */\n      tag_157\n      tag_90\n      jump\t// in\n    tag_157:\n        /* \"#utility.yul\":1967:2086   */\n    tag_156:\n        /* \"#utility.yul\":2125:2126   */\n      0x00\n        /* \"#utility.yul\":2150:2201   */\n      tag_158\n        /* \"#utility.yul\":2193:2200   */\n      dup5\n        /* \"#utility.yul\":2184:2190   */\n      dup3\n        /* \"#utility.yul\":2173:2182   */\n      dup6\n        /* \"#utility.yul\":2169:2191   */\n      add\n        /* \"#utility.yul\":2150:2201   */\n      tag_100\n      jump\t// in\n    tag_158:\n        /* \"#utility.yul\":2140:2201   */\n      swap2\n      pop\n        /* \"#utility.yul\":2096:2211   */\n      pop\n        /* \"#utility.yul\":1893:2218   */\n      swap3\n      swap2\n      pop\n      pop\n      jump\t// out\n        /* \"#utility.yul\":2224:2339   */\n    tag_101:\n        /* \"#utility.yul\":2309:2332   */\n      tag_160\n        /* \"#utility.yul\":2326:2331   */\n      dup2\n        /* \"#utility.yul\":2309:2332   */\n      tag_95\n      jump\t// in\n    tag_160:\n        /* \"#utility.yul\":2304:2307   */\n      dup3\n        /* \"#utility.yul\":2297:2333   */\n      mstore\n        /* \"#utility.yul\":2224:2339   */\n      pop\n      pop\n      jump\t// out\n        /* \"#utility.yul\":2345:2563   */\n    tag_21:\n        /* \"#utility.yul\":2436:2440   */\n      0x00\n        /* \"#utility.yul\":2474:2476   */\n      0x20\n        /* \"#utility.yul\":2463:2472   */\n      dup3\n        /* \"#utility.yul\":2459:2477   */\n      add\n        /* \"#utility.yul\":2451:2477   */\n      swap1\n      pop\n        /* \"#utility.yul\":2487:2556   */\n      tag_162\n        /* \"#utility.yul\":2553:2554   */\n      0x00\n        /* \"#utility.yul\":2542:2551   */\n      dup4\n        /* \"#utility.yul\":2538:2555   */\n      add\n        /* \"#utility.yul\":2529:2535   */\n      dup5\n        /* \"#utility.yul\":2487:2556   */\n      tag_101\n      jump\t// in\n    tag_162:\n        /* \"#utility.yul\":2345:2563   */\n      swap3\n      swap2\n      pop\n      pop\n      jump\t// out\n        /* \"#utility.yul\":2569:2687   */\n    tag_102:\n        /* \"#utility.yul\":2656:2680   */\n      tag_164\n        /* \"#utility.yul\":2674:2679   */\n      dup2\n        /* \"#utility.yul\":2656:2680   */\n      tag_92\n      jump\t// in\n    tag_164:\n        /* \"#utility.yul\":2651:2654   */\n      dup3\n        /* \"#utility.yul\":2644:2681   */\n      mstore\n        /* \"#utility.yul\":2569:2687   */\n      pop\n      pop\n      jump\t// out\n        /* \"#utility.yul\":2693:2783   */\n    tag_103:\n        /* \"#utility.yul\":2727:2734   */\n      0x00\n        /* \"#utility.yul\":2770:2775   */\n      dup2\n        /* \"#utility.yul\":2763:2776   */\n      iszero\n        /* \"#utility.yul\":2756:2777   */\n      iszero\n        /* \"#utility.yul\":2745:2777   */\n      swap1\n      pop\n        /* \"#utility.yul\":2693:2783   */\n      swap2\n      swap1\n      pop\n      jump\t// out\n        /* \"#utility.yul\":2789:2898   */\n    tag_104:\n        /* \"#utility.yul\":2870:2891   */\n      tag_167\n        /* \"#utility.yul\":2885:2890   */\n      dup2\n        /* \"#utility.yul\":2870:2891   */\n      tag_103\n      jump\t// in\n    tag_167:\n        /* \"#utility.yul\":2865:2868   */\n      dup3\n        /* \"#utility.yul\":2858:2892   */\n      mstore\n        /* \"#utility.yul\":2789:2898   */\n      pop\n      pop\n      jump\t// out\n        /* \"#utility.yul\":2904:3544   */\n    tag_26:\n        /* \"#utility.yul\":3097:3101   */\n      0x00\n        /* \"#utility.yul\":3135:3138   */\n      0xa0\n        /* \"#utility.yul\":3124:3133   */\n      dup3\n        /* \"#utility.yul\":3120:3139   */\n      add\n        /* \"#utility.yul\":3112:3139   */\n      swap1\n      pop\n        /* \"#utility.yul\":3149:3220   */\n      tag_169\n        /* \"#utility.yul\":3217:3218   */\n      0x00\n        /* \"#utility.yul\":3206:3215   */\n      dup4\n        /* \"#utility.yul\":3202:3219   */\n      add\n        /* \"#utility.yul\":3193:3199   */\n      dup9\n        /* \"#utility.yul\":3149:3220   */\n      tag_102\n      jump\t// in\n    tag_169:\n        /* \"#utility.yul\":3230:3300   */\n      tag_170\n        /* \"#utility.yul\":3296:3298   */\n      0x20\n        /* \"#utility.yul\":3285:3294   */\n      dup4\n        /* \"#utility.yul\":3281:3299   */\n      add\n        /* \"#utility.yul\":3272:3278   */\n      dup8\n        /* \"#utility.yul\":3230:3300   */\n      tag_101\n      jump\t// in\n    tag_170:\n        /* \"#utility.yul\":3310:3380   */\n      tag_171\n        /* \"#utility.yul\":3376:3378   */\n      0x40\n        /* \"#utility.yul\":3365:3374   */\n      dup4\n        /* \"#utility.yul\":3361:3379   */\n      add\n        /* \"#utility.yul\":3352:3358   */\n      dup7\n        /* \"#utility.yul\":3310:3380   */\n      tag_101\n      jump\t// in\n    tag_171:\n        /* \"#utility.yul\":3390:3460   */\n      tag_172\n        /* \"#utility.yul\":3456:3458   */\n      0x60\n        /* \"#utility.yul\":3445:3454   */\n      dup4\n        /* \"#utility.yul\":3441:3459   */\n      add\n        /* \"#utility.yul\":3432:3438   */\n      dup6\n        /* \"#utility.yul\":3390:3460   */\n      tag_101\n      jump\t// in\n    tag_172:\n        /* \"#utility.yul\":3470:3537   */\n      tag_173\n        /* \"#utility.yul\":3532:3535   */\n      0x80\n        /* \"#utility.yul\":3521:3530   */\n      dup4\n        /* \"#utility.yul\":3517:3536   */\n      add\n        /* \"#utility.yul\":3508:3514   */\n      dup5\n        /* \"#utility.yul\":3470:3537   */\n      tag_104\n      jump\t// in\n    tag_173:\n        /* \"#utility.yul\":2904:3544   */\n      swap7\n      swap6\n      pop\n      pop\n      pop\n      pop\n      pop\n      pop\n      jump\t// out\n        /* \"#utility.yul\":3550:3676   */\n    tag_105:\n        /* \"#utility.yul\":3587:3594   */\n      0x00\n        /* \"#utility.yul\":3627:3669   */\n      0xffffffffffffffffffffffffffffffffffffffff\n        /* \"#utility.yul\":3620:3625   */\n      dup3\n        /* \"#utility.yul\":3616:3670   */\n      and\n        /* \"#utility.yul\":3605:3670   */\n      swap1\n      pop\n        /* \"#utility.yul\":3550:3676   */\n      swap2\n      swap1\n      pop\n      jump\t// out\n        /* \"#utility.yul\":3682:3778   */\n    tag_106:\n        /* \"#utility.yul\":3719:3726   */\n      0x00\n        /* \"#utility.yul\":3748:3772   */\n      tag_176\n        /* \"#utility.yul\":3766:3771   */\n      dup3\n        /* \"#utility.yul\":3748:3772   */\n      tag_105\n      jump\t// in\n    tag_176:\n        /* \"#utility.yul\":3737:3772   */\n      swap1\n      pop\n        /* \"#utility.yul\":3682:3778   */\n      swap2\n      swap1\n      pop\n      jump\t// out\n        /* \"#utility.yul\":3784:3906   */\n    tag_107:\n        /* \"#utility.yul\":3857:3881   */\n      tag_178\n        /* \"#utility.yul\":3875:3880   */\n      dup2\n        /* \"#utility.yul\":3857:3881   */\n      tag_106\n      jump\t// in\n    tag_178:\n        /* \"#utility.yul\":3850:3855   */\n      dup2\n        /* \"#utility.yul\":3847:3882   */\n      eq\n        /* \"#utility.yul\":3837:3900   */\n      tag_179\n      jumpi\n        /* \"#utility.yul\":3896:3897   */\n      0x00\n        /* \"#utility.yul\":3893:3894   */\n      0x00\n        /* \"#utility.yul\":3886:3898   */\n      revert\n        /* \"#utility.yul\":3837:3900   */\n    tag_179:\n        /* \"#utility.yul\":3784:3906   */\n      pop\n      jump\t// out\n        /* \"#utility.yul\":3912:4051   */\n    tag_108:\n        /* \"#utility.yul\":3958:3963   */\n      0x00\n        /* \"#utility.yul\":3996:4002   */\n      dup2\n        /* \"#utility.yul\":3983:4003   */\n      calldataload\n        /* \"#utility.yul\":3974:4003   */\n      swap1\n      pop\n        /* \"#utility.yul\":4012:4045   */\n      tag_181\n        /* \"#utility.yul\":4039:4044   */\n      dup2\n        /* \"#utility.yul\":4012:4045   */\n      tag_107\n      jump\t// in\n    tag_181:\n        /* \"#utility.yul\":3912:4051   */\n      swap3\n      swap2\n      pop\n      pop\n      jump\t// out\n        /* \"#utility.yul\":4057:4527   */\n    tag_32:\n        /* \"#utility.yul\":4123:4129   */\n      0x00\n        /* \"#utility.yul\":4131:4137   */\n      0x00\n        /* \"#utility.yul\":4180:4182   */\n      0x40\n        /* \"#utility.yul\":4168:4177   */\n      dup4\n        /* \"#utility.yul\":4159:4166   */\n      dup6\n        /* \"#utility.yul\":4155:4178   */\n      sub\n        /* \"#utility.yul\":4151:4183   */\n      slt\n        /* \"#utility.yul\":4148:4267   */\n      iszero\n      tag_183\n      jumpi\n        /* \"#utility.yul\":4186:4265   */\n      tag_184\n      tag_90\n      jump\t// in\n    tag_184:\n        /* \"#utility.yul\":4148:4267   */\n    tag_183:\n        /* \"#utility.yul\":4306:4307   */\n      0x00\n        /* \"#utility.yul\":4331:4384   */\n      tag_185\n        /* \"#utility.yul\":4376:4383   */\n      dup6\n        /* \"#utility.yul\":4367:4373   */\n      dup3\n        /* \"#utility.yul\":4356:4365   */\n      dup7\n        /* \"#utility.yul\":4352:4374   */\n      add\n        /* \"#utility.yul\":4331:4384   */\n      tag_108\n      jump\t// in\n    tag_185:\n        /* \"#utility.yul\":4321:4384   */\n      swap3\n      pop\n        /* \"#utility.yul\":4277:4394   */\n      pop\n        /* \"#utility.yul\":4433:4435   */\n      0x20\n        /* \"#utility.yul\":4459:4510   */\n      tag_186\n        /* \"#utility.yul\":4502:4509   */\n      dup6\n        /* \"#utility.yul\":4493:4499   */\n      dup3\n        /* \"#utility.yul\":4482:4491   */\n      dup7\n        /* \"#utility.yul\":4478:4500   */\n      add\n        /* \"#utility.yul\":4459:4510   */\n      tag_100\n      jump\t// in\n    tag_186:\n        /* \"#utility.yul\":4449:4510   */\n      swap2\n      pop\n        /* \"#utility.yul\":4404:4520   */\n      pop\n        /* \"#utility.yul\":4057:4527   */\n      swap3\n      pop\n      swap3\n      swap1\n      pop\n      jump\t// out\n        /* \"#utility.yul\":4533:4743   */\n    tag_35:\n        /* \"#utility.yul\":4620:4624   */\n      0x00\n        /* \"#utility.yul\":4658:4660   */\n      0x20\n        /* \"#utility.yul\":4647:4656   */\n      dup3\n        /* \"#utility.yul\":4643:4661   */\n      add\n        /* \"#utility.yul\":4635:4661   */\n      swap1\n      pop\n        /* \"#utility.yul\":4671:4736   */\n      tag_188\n        /* \"#utility.yul\":4733:4734   */\n      0x00\n        /* \"#utility.yul\":4722:4731   */\n      dup4\n        /* \"#utility.yul\":4718:4735   */\n      add\n        /* \"#utility.yul\":4709:4715   */\n      dup5\n        /* \"#utility.yul\":4671:4736   */\n      tag_104\n      jump\t// in\n    tag_188:\n        /* \"#utility.yul\":4533:4743   */\n      swap3\n      swap2\n      pop\n      pop\n      jump\t// out\n        /* \"#utility.yul\":4749:4861   */\n    tag_109:\n        /* \"#utility.yul\":4832:4854   */\n      tag_190\n        /* \"#utility.yul\":4848:4853   */\n      dup2\n        /* \"#utility.yul\":4832:4854   */\n      tag_98\n      jump\t// in\n    tag_190:\n        /* \"#utility.yul\":4827:4830   */\n      dup3\n        /* \"#utility.yul\":4820:4855   */\n      mstore\n        /* \"#utility.yul\":4749:4861   */\n      pop\n      pop\n      jump\t// out\n        /* \"#utility.yul\":4867:5081   */\n    tag_39:\n        /* \"#utility.yul\":4956:4960   */\n      0x00\n        /* \"#utility.yul\":4994:4996   */\n      0x20\n        /* \"#utility.yul\":4983:4992   */\n      dup3\n        /* \"#utility.yul\":4979:4997   */\n      add\n        /* \"#utility.yul\":4971:4997   */\n      swap1\n      pop\n        /* \"#utility.yul\":5007:5074   */\n      tag_192\n        /* \"#utility.yul\":5071:5072   */\n      0x00\n        /* \"#utility.yul\":5060:5069   */\n      dup4\n        /* \"#utility.yul\":5056:5073   */\n      add\n        /* \"#utility.yul\":5047:5053   */\n      dup5\n        /* \"#utility.yul\":5007:5074   */\n      tag_109\n      jump\t// in\n    tag_192:\n        /* \"#utility.yul\":4867:5081   */\n      swap3\n      swap2\n      pop\n      pop\n      jump\t// out\n        /* \"#utility.yul\":5087:5826   */\n    tag_44:\n        /* \"#utility.yul\":5302:5306   */\n      0x00\n        /* \"#utility.yul\":5340:5343   */\n      0xc0\n        /* \"#utility.yul\":5329:5338   */\n      dup3\n        /* \"#utility.yul\":5325:5344   */\n      add\n        /* \"#utility.yul\":5317:5344   */\n      swap1\n      pop\n        /* \"#utility.yul\":5354:5425   */\n      tag_194\n        /* \"#utility.yul\":5422:5423   */\n      0x00\n        /* \"#utility.yul\":5411:5420   */\n      dup4\n        /* \"#utility.yul\":5407:5424   */\n      add\n        /* \"#utility.yul\":5398:5404   */\n      dup10\n        /* \"#utility.yul\":5354:5425   */\n      tag_102\n      jump\t// in\n    tag_194:\n        /* \"#utility.yul\":5435:5505   */\n      tag_195\n        /* \"#utility.yul\":5501:5503   */\n      0x20\n        /* \"#utility.yul\":5490:5499   */\n      dup4\n        /* \"#utility.yul\":5486:5504   */\n      add\n        /* \"#utility.yul\":5477:5483   */\n      dup9\n        /* \"#utility.yul\":5435:5505   */\n      tag_101\n      jump\t// in\n    tag_195:\n        /* \"#utility.yul\":5515:5585   */\n      tag_196\n        /* \"#utility.yul\":5581:5583   */\n      0x40\n        /* \"#utility.yul\":5570:5579   */\n      dup4\n        /* \"#utility.yul\":5566:5584   */\n      add\n        /* \"#utility.yul\":5557:5563   */\n      dup8\n        /* \"#utility.yul\":5515:5585   */\n      tag_101\n      jump\t// in\n    tag_196:\n        /* \"#utility.yul\":5595:5665   */\n      tag_197\n        /* \"#utility.yul\":5661:5663   */\n      0x60\n        /* \"#utility.yul\":5650:5659   */\n      dup4\n        /* \"#utility.yul\":5646:5664   */\n      add\n        /* \"#utility.yul\":5637:5643   */\n      dup7\n        /* \"#utility.yul\":5595:5665   */\n      tag_101\n      jump\t// in\n    tag_197:\n        /* \"#utility.yul\":5675:5742   */\n      tag_198\n        /* \"#utility.yul\":5737:5740   */\n      0x80\n        /* \"#utility.yul\":5726:5735   */\n      dup4\n        /* \"#utility.yul\":5722:5741   */\n      add\n        /* \"#utility.yul\":5713:5719   */\n      dup6\n        /* \"#utility.yul\":5675:5742   */\n      tag_104\n      jump\t// in\n    tag_198:\n        /* \"#utility.yul\":5752:5819   */\n      tag_199\n        /* \"#utility.yul\":5814:5817   */\n      0xa0\n        /* \"#utility.yul\":5803:5812   */\n      dup4\n        /* \"#utility.yul\":5799:5818   */\n      add\n        /* \"#utility.yul\":5790:5796   */\n      dup5\n        /* \"#utility.yul\":5752:5819   */\n      tag_104\n      jump\t// in\n    tag_199:\n        /* \"#utility.yul\":5087:5826   */\n      swap8\n      swap7\n      pop\n      pop\n      pop\n      pop\n      pop\n      pop\n      pop\n      jump\t// out\n        /* \"#utility.yul\":5832:6001   */\n    tag_110:\n        /* \"#utility.yul\":5916:5927   */\n      0x00\n        /* \"#utility.yul\":5950:5956   */\n      dup3\n        /* \"#utility.yul\":5945:5948   */\n      dup3\n        /* \"#utility.yul\":5938:5957   */\n      mstore\n        /* \"#utility.yul\":5990:5994   */\n      0x20\n        /* \"#utility.yul\":5985:5988   */\n      dup3\n        /* \"#utility.yul\":5981:5995   */\n      add\n        /* \"#utility.yul\":5966:5995   */\n      swap1\n      pop\n        /* \"#utility.yul\":5832:6001   */\n      swap3\n      swap2\n      pop\n      pop\n      jump\t// out\n        /* \"#utility.yul\":6007:6188   */\n    tag_111:\n        /* \"#utility.yul\":6147:6180   */\n      0x4475726174696f6e732073686f756c64206265206d6f7265207468616e203000\n        /* \"#utility.yul\":6143:6144   */\n      0x00\n        /* \"#utility.yul\":6135:6141   */\n      dup3\n        /* \"#utility.yul\":6131:6145   */\n      add\n        /* \"#utility.yul\":6124:6181   */\n      mstore\n        /* \"#utility.yul\":6007:6188   */\n      pop\n      jump\t// out\n        /* \"#utility.yul\":6194:6560   */\n    tag_112:\n        /* \"#utility.yul\":6336:6339   */\n      0x00\n        /* \"#utility.yul\":6357:6424   */\n      tag_203\n        /* \"#utility.yul\":6421:6423   */\n      0x1f\n        /* \"#utility.yul\":6416:6419   */\n      dup4\n        /* \"#utility.yul\":6357:6424   */\n      tag_110\n      jump\t// in\n    tag_203:\n        /* \"#utility.yul\":6350:6424   */\n      swap2\n      pop\n        /* \"#utility.yul\":6433:6526   */\n      tag_204\n        /* \"#utility.yul\":6522:6525   */\n      dup3\n        /* \"#utility.yul\":6433:6526   */\n      tag_111\n      jump\t// in\n    tag_204:\n        /* \"#utility.yul\":6551:6553   */\n      0x20\n        /* \"#utility.yul\":6546:6549   */\n      dup3\n        /* \"#utility.yul\":6542:6554   */\n      add\n        /* \"#utility.yul\":6535:6554   */\n      swap1\n      pop\n        /* \"#utility.yul\":6194:6560   */\n      swap2\n      swap1\n      pop\n      jump\t// out\n        /* \"#utility.yul\":6566:6985   */\n    tag_51:\n        /* \"#utility.yul\":6732:6736   */\n      0x00\n        /* \"#utility.yul\":6770:6772   */\n      0x20\n        /* \"#utility.yul\":6759:6768   */\n      dup3\n        /* \"#utility.yul\":6755:6773   */\n      add\n        /* \"#utility.yul\":6747:6773   */\n      swap1\n      pop\n        /* \"#utility.yul\":6819:6828   */\n      dup2\n        /* \"#utility.yul\":6813:6817   */\n      dup2\n        /* \"#utility.yul\":6809:6829   */\n      sub\n        /* \"#utility.yul\":6805:6806   */\n      0x00\n        /* \"#utility.yul\":6794:6803   */\n      dup4\n        /* \"#utility.yul\":6790:6807   */\n      add\n        /* \"#utility.yul\":6783:6830   */\n      mstore\n        /* \"#utility.yul\":6847:6978   */\n      tag_206\n        /* \"#utility.yul\":6973:6977   */\n      dup2\n        /* \"#utility.yul\":6847:6978   */\n      tag_112\n      jump\t// in\n    tag_206:\n        /* \"#utility.yul\":6839:6978   */\n      swap1\n      pop\n        /* \"#utility.yul\":6566:6985   */\n      swap2\n      swap1\n      pop\n      jump\t// out\n        /* \"#utility.yul\":6991:7171   */\n    tag_113:\n        /* \"#utility.yul\":7039:7116   */\n      0x4e487b7100000000000000000000000000000000000000000000000000000000\n        /* \"#utility.yul\":7036:7037   */\n      0x00\n        /* \"#utility.yul\":7029:7117   */\n      mstore\n        /* \"#utility.yul\":7136:7140   */\n      0x11\n        /* \"#utility.yul\":7133:7134   */\n      0x04\n        /* \"#utility.yul\":7126:7141   */\n      mstore\n        /* \"#utility.yul\":7160:7164   */\n      0x24\n        /* \"#utility.yul\":7157:7158   */\n      0x00\n        /* \"#utility.yul\":7150:7165   */\n      revert\n        /* \"#utility.yul\":7177:7344   */\n    tag_53:\n        /* \"#utility.yul\":7214:7217   */\n      0x00\n        /* \"#utility.yul\":7237:7259   */\n      tag_209\n        /* \"#utility.yul\":7253:7258   */\n      dup3\n        /* \"#utility.yul\":7237:7259   */\n      tag_98\n      jump\t// in\n    tag_209:\n        /* \"#utility.yul\":7228:7259   */\n      swap2\n      pop\n        /* \"#utility.yul\":7281:7285   */\n      0xff\n        /* \"#utility.yul\":7274:7279   */\n      dup3\n        /* \"#utility.yul\":7271:7286   */\n      sub\n        /* \"#utility.yul\":7268:7309   */\n      tag_210\n      jumpi\n        /* \"#utility.yul\":7289:7307   */\n      tag_211\n      tag_113\n      jump\t// in\n    tag_211:\n        /* \"#utility.yul\":7268:7309   */\n    tag_210:\n        /* \"#utility.yul\":7336:7337   */\n      0x01\n        /* \"#utility.yul\":7329:7334   */\n      dup3\n        /* \"#utility.yul\":7325:7338   */\n      add\n        /* \"#utility.yul\":7318:7338   */\n      swap1\n      pop\n        /* \"#utility.yul\":7177:7344   */\n      swap2\n      swap1\n      pop\n      jump\t// out\n        /* \"#utility.yul\":7350:7547   */\n    tag_55:\n        /* \"#utility.yul\":7389:7392   */\n      0x00\n        /* \"#utility.yul\":7408:7427   */\n      tag_213\n        /* \"#utility.yul\":7425:7426   */\n      dup3\n        /* \"#utility.yul\":7408:7427   */\n      tag_95\n      jump\t// in\n    tag_213:\n        /* \"#utility.yul\":7403:7427   */\n      swap2\n      pop\n        /* \"#utility.yul\":7441:7460   */\n      tag_214\n        /* \"#utility.yul\":7458:7459   */\n      dup4\n        /* \"#utility.yul\":7441:7460   */\n      tag_95\n      jump\t// in\n    tag_214:\n        /* \"#utility.yul\":7436:7460   */\n      swap3\n      pop\n        /* \"#utility.yul\":7483:7484   */\n      dup3\n        /* \"#utility.yul\":7480:7481   */\n      dup3\n        /* \"#utility.yul\":7476:7485   */\n      add\n        /* \"#utility.yul\":7469:7485   */\n      swap1\n      pop\n        /* \"#utility.yul\":7506:7516   */\n      0xffffffff\n        /* \"#utility.yul\":7501:7504   */\n      dup2\n        /* \"#utility.yul\":7498:7517   */\n      gt\n        /* \"#utility.yul\":7495:7540   */\n      iszero\n      tag_215\n      jumpi\n        /* \"#utility.yul\":7520:7538   */\n      tag_216\n      tag_113\n      jump\t// in\n    tag_216:\n        /* \"#utility.yul\":7495:7540   */\n    tag_215:\n        /* \"#utility.yul\":7350:7547   */\n      swap3\n      swap2\n      pop\n      pop\n      jump\t// out\n        /* \"#utility.yul\":7553:7775   */\n    tag_57:\n        /* \"#utility.yul\":7646:7650   */\n      0x00\n        /* \"#utility.yul\":7684:7686   */\n      0x20\n        /* \"#utility.yul\":7673:7682   */\n      dup3\n        /* \"#utility.yul\":7669:7687   */\n      add\n        /* \"#utility.yul\":7661:7687   */\n      swap1\n      pop\n        /* \"#utility.yul\":7697:7768   */\n      tag_218\n        /* \"#utility.yul\":7765:7766   */\n      0x00\n        /* \"#utility.yul\":7754:7763   */\n      dup4\n        /* \"#utility.yul\":7750:7767   */\n      add\n        /* \"#utility.yul\":7741:7747   */\n      dup5\n        /* \"#utility.yul\":7697:7768   */\n      tag_102\n      jump\t// in\n    tag_218:\n        /* \"#utility.yul\":7553:7775   */\n      swap3\n      swap2\n      pop\n      pop\n      jump\t// out\n        /* \"#utility.yul\":7781:7947   */\n    tag_114:\n        /* \"#utility.yul\":7921:7939   */\n      0x496e76616c69642070726f706f73616c00000000000000000000000000000000\n        /* \"#utility.yul\":7917:7918   */\n      0x00\n        /* \"#utility.yul\":7909:7915   */\n      dup3\n        /* \"#utility.yul\":7905:7919   */\n      add\n        /* \"#utility.yul\":7898:7940   */\n      mstore\n        /* \"#utility.yul\":7781:7947   */\n      pop\n      jump\t// out\n        /* \"#utility.yul\":7953:8319   */\n    tag_115:\n        /* \"#utility.yul\":8095:8098   */\n      0x00\n        /* \"#utility.yul\":8116:8183   */\n      tag_221\n        /* \"#utility.yul\":8180:8182   */\n      0x10\n        /* \"#utility.yul\":8175:8178   */\n      dup4\n        /* \"#utility.yul\":8116:8183   */\n      tag_110\n      jump\t// in\n    tag_221:\n        /* \"#utility.yul\":8109:8183   */\n      swap2\n      pop\n        /* \"#utility.yul\":8192:8285   */\n      tag_222\n        /* \"#utility.yul\":8281:8284   */\n      dup3\n        /* \"#utility.yul\":8192:8285   */\n      tag_114\n      jump\t// in\n    tag_222:\n        /* \"#utility.yul\":8310:8312   */\n      0x20\n        /* \"#utility.yul\":8305:8308   */\n      dup3\n        /* \"#utility.yul\":8301:8313   */\n      add\n        /* \"#utility.yul\":8294:8313   */\n      swap1\n      pop\n        /* \"#utility.yul\":7953:8319   */\n      swap2\n      swap1\n      pop\n      jump\t// out\n        /* \"#utility.yul\":8325:8744   */\n    tag_61:\n        /* \"#utility.yul\":8491:8495   */\n      0x00\n        /* \"#utility.yul\":8529:8531   */\n      0x20\n        /* \"#utility.yul\":8518:8527   */\n      dup3\n        /* \"#utility.yul\":8514:8532   */\n      add\n        /* \"#utility.yul\":8506:8532   */\n      swap1\n      pop\n        /* \"#utility.yul\":8578:8587   */\n      dup2\n        /* \"#utility.yul\":8572:8576   */\n      dup2\n        /* \"#utility.yul\":8568:8588   */\n      sub\n        /* \"#utility.yul\":8564:8565   */\n      0x00\n        /* \"#utility.yul\":8553:8562   */\n      dup4\n        /* \"#utility.yul\":8549:8566   */\n      add\n        /* \"#utility.yul\":8542:8589   */\n      mstore\n        /* \"#utility.yul\":8606:8737   */\n      tag_224\n        /* \"#utility.yul\":8732:8736   */\n      dup2\n        /* \"#utility.yul\":8606:8737   */\n      tag_115\n      jump\t// in\n    tag_224:\n        /* \"#utility.yul\":8598:8737   */\n      swap1\n      pop\n        /* \"#utility.yul\":8325:8744   */\n      swap2\n      swap1\n      pop\n      jump\t// out\n        /* \"#utility.yul\":8750:8922   */\n    tag_116:\n        /* \"#utility.yul\":8890:8914   */\n      0x566f74696e6720686173206e6f74207374617274656400000000000000000000\n        /* \"#utility.yul\":8886:8887   */\n      0x00\n        /* \"#utility.yul\":8878:8884   */\n      dup3\n        /* \"#utility.yul\":8874:8888   */\n      add\n        /* \"#utility.yul\":8867:8915   */\n      mstore\n        /* \"#utility.yul\":8750:8922   */\n      pop\n      jump\t// out\n        /* \"#utility.yul\":8928:9294   */\n    tag_117:\n        /* \"#utility.yul\":9070:9073   */\n      0x00\n        /* \"#utility.yul\":9091:9158   */\n      tag_227\n        /* \"#utility.yul\":9155:9157   */\n      0x16\n        /* \"#utility.yul\":9150:9153   */\n      dup4\n        /* \"#utility.yul\":9091:9158   */\n      tag_110\n      jump\t// in\n    tag_227:\n        /* \"#utility.yul\":9084:9158   */\n      swap2\n      pop\n        /* \"#utility.yul\":9167:9260   */\n      tag_228\n        /* \"#utility.yul\":9256:9259   */\n      dup3\n        /* \"#utility.yul\":9167:9260   */\n      tag_116\n      jump\t// in\n    tag_228:\n        /* \"#utility.yul\":9285:9287   */\n      0x20\n        /* \"#utility.yul\":9280:9283   */\n      dup3\n        /* \"#utility.yul\":9276:9288   */\n      add\n        /* \"#utility.yul\":9269:9288   */\n      swap1\n      pop\n        /* \"#utility.yul\":8928:9294   */\n      swap2\n      swap1\n      pop\n      jump\t// out\n        /* \"#utility.yul\":9300:9719   */\n    tag_64:\n        /* \"#utility.yul\":9466:9470   */\n      0x00\n        /* \"#utility.yul\":9504:9506   */\n      0x20\n        /* \"#utility.yul\":9493:9502   */\n      dup3\n        /* \"#utility.yul\":9489:9507   */\n      add\n        /* \"#utility.yul\":9481:9507   */\n      swap1\n      pop\n        /* \"#utility.yul\":9553:9562   */\n      dup2\n        /* \"#utility.yul\":9547:9551   */\n      dup2\n        /* \"#utility.yul\":9543:9563   */\n      sub\n        /* \"#utility.yul\":9539:9540   */\n      0x00\n        /* \"#utility.yul\":9528:9537   */\n      dup4\n        /* \"#utility.yul\":9524:9541   */\n      add\n        /* \"#utility.yul\":9517:9564   */\n      mstore\n        /* \"#utility.yul\":9581:9712   */\n      tag_230\n        /* \"#utility.yul\":9707:9711   */\n      dup2\n        /* \"#utility.yul\":9581:9712   */\n      tag_117\n      jump\t// in\n    tag_230:\n        /* \"#utility.yul\":9573:9712   */\n      swap1\n      pop\n        /* \"#utility.yul\":9300:9719   */\n      swap2\n      swap1\n      pop\n      jump\t// out\n        /* \"#utility.yul\":9725:9891   */\n    tag_118:\n        /* \"#utility.yul\":9865:9883   */\n      0x566f74696e672068617320656e64656400000000000000000000000000000000\n        /* \"#utility.yul\":9861:9862   */\n      0x00\n        /* \"#utility.yul\":9853:9859   */\n      dup3\n        /* \"#utility.yul\":9849:9863   */\n      add\n        /* \"#utility.yul\":9842:9884   */\n      mstore\n        /* \"#utility.yul\":9725:9891   */\n      pop\n      jump\t// out\n        /* \"#utility.yul\":9897:10263   */\n    tag_119:\n        /* \"#utility.yul\":10039:10042   */\n      0x00\n        /* \"#utility.yul\":10060:10127   */\n      tag_233\n        /* \"#utility.yul\":10124:10126   */\n      0x10\n        /* \"#utility.yul\":10119:10122   */\n      dup4\n        /* \"#utility.yul\":10060:10127   */\n      tag_110\n      jump\t// in\n    tag_233:\n        /* \"#utility.yul\":10053:10127   */\n      swap2\n      pop\n        /* \"#utility.yul\":10136:10229   */\n      tag_234\n        /* \"#utility.yul\":10225:10228   */\n      dup3\n        /* \"#utility.yul\":10136:10229   */\n      tag_118\n      jump\t// in\n    tag_234:\n        /* \"#utility.yul\":10254:10256   */\n      0x20\n        /* \"#utility.yul\":10249:10252   */\n      dup3\n        /* \"#utility.yul\":10245:10257   */\n      add\n        /* \"#utility.yul\":10238:10257   */\n      swap1\n      pop\n        /* \"#utility.yul\":9897:10263   */\n      swap2\n      swap1\n      pop\n      jump\t// out\n        /* \"#utility.yul\":10269:10688   */\n    tag_67:\n        /* \"#utility.yul\":10435:10439   */\n      0x00\n        /* \"#utility.yul\":10473:10475   */\n      0x20\n        /* \"#utility.yul\":10462:10471   */\n      dup3\n        /* \"#utility.yul\":10458:10476   */\n      add\n        /* \"#utility.yul\":10450:10476   */\n      swap1\n      pop\n        /* \"#utility.yul\":10522:10531   */\n      dup2\n        /* \"#utility.yul\":10516:10520   */\n      dup2\n        /* \"#utility.yul\":10512:10532   */\n      sub\n        /* \"#utility.yul\":10508:10509   */\n      0x00\n        /* \"#utility.yul\":10497:10506   */\n      dup4\n        /* \"#utility.yul\":10493:10510   */\n      add\n        /* \"#utility.yul\":10486:10533   */\n      mstore\n        /* \"#utility.yul\":10550:10681   */\n      tag_236\n        /* \"#utility.yul\":10676:10680   */\n      dup2\n        /* \"#utility.yul\":10550:10681   */\n      tag_119\n      jump\t// in\n    tag_236:\n        /* \"#utility.yul\":10542:10681   */\n      swap1\n      pop\n        /* \"#utility.yul\":10269:10688   */\n      swap2\n      swap1\n      pop\n      jump\t// out\n        /* \"#utility.yul\":10694:10857   */\n    tag_120:\n        /* \"#utility.yul\":10834:10849   */\n      0x416c726561647920766f74656400000000000000000000000000000000000000\n        /* \"#utility.yul\":10830:10831   */\n      0x00\n        /* \"#utility.yul\":10822:10828   */\n      dup3\n        /* \"#utility.yul\":10818:10832   */\n      add\n        /* \"#utility.yul\":10811:10850   */\n      mstore\n        /* \"#utility.yul\":10694:10857   */\n      pop\n      jump\t// out\n        /* \"#utility.yul\":10863:11229   */\n    tag_121:\n        /* \"#utility.yul\":11005:11008   */\n      0x00\n        /* \"#utility.yul\":11026:11093   */\n      tag_239\n        /* \"#utility.yul\":11090:11092   */\n      0x0d\n        /* \"#utility.yul\":11085:11088   */\n      dup4\n        /* \"#utility.yul\":11026:11093   */\n      tag_110\n      jump\t// in\n    tag_239:\n        /* \"#utility.yul\":11019:11093   */\n      swap2\n      pop\n        /* \"#utility.yul\":11102:11195   */\n      tag_240\n        /* \"#utility.yul\":11191:11194   */\n      dup3\n        /* \"#utility.yul\":11102:11195   */\n      tag_120\n      jump\t// in\n    tag_240:\n        /* \"#utility.yul\":11220:11222   */\n      0x20\n        /* \"#utility.yul\":11215:11218   */\n      dup3\n        /* \"#utility.yul\":11211:11223   */\n      add\n        /* \"#utility.yul\":11204:11223   */\n      swap1\n      pop\n        /* \"#utility.yul\":10863:11229   */\n      swap2\n      swap1\n      pop\n      jump\t// out\n        /* \"#utility.yul\":11235:11654   */\n    tag_70:\n        /* \"#utility.yul\":11401:11405   */\n      0x00\n        /* \"#utility.yul\":11439:11441   */\n      0x20\n        /* \"#utility.yul\":11428:11437   */\n      dup3\n        /* \"#utility.yul\":11424:11442   */\n      add\n        /* \"#utility.yul\":11416:11442   */\n      swap1\n      pop\n        /* \"#utility.yul\":11488:11497   */\n      dup2\n        /* \"#utility.yul\":11482:11486   */\n      dup2\n        /* \"#utility.yul\":11478:11498   */\n      sub\n        /* \"#utility.yul\":11474:11475   */\n      0x00\n        /* \"#utility.yul\":11463:11472   */\n      dup4\n        /* \"#utility.yul\":11459:11476   */\n      add\n        /* \"#utility.yul\":11452:11499   */\n      mstore\n        /* \"#utility.yul\":11516:11647   */\n      tag_242\n        /* \"#utility.yul\":11642:11646   */\n      dup2\n        /* \"#utility.yul\":11516:11647   */\n      tag_121\n      jump\t// in\n    tag_242:\n        /* \"#utility.yul\":11508:11647   */\n      swap1\n      pop\n        /* \"#utility.yul\":11235:11654   */\n      swap2\n      swap1\n      pop\n      jump\t// out\n        /* \"#utility.yul\":11660:11835   */\n    tag_72:\n        /* \"#utility.yul\":11698:11701   */\n      0x00\n        /* \"#utility.yul\":11721:11744   */\n      tag_244\n        /* \"#utility.yul\":11738:11743   */\n      dup3\n        /* \"#utility.yul\":11721:11744   */\n      tag_95\n      jump\t// in\n    tag_244:\n        /* \"#utility.yul\":11712:11744   */\n      swap2\n      pop\n        /* \"#utility.yul\":11766:11776   */\n      0xffffffff\n        /* \"#utility.yul\":11759:11764   */\n      dup3\n        /* \"#utility.yul\":11756:11777   */\n      sub\n        /* \"#utility.yul\":11753:11800   */\n      tag_245\n      jumpi\n        /* \"#utility.yul\":11780:11798   */\n      tag_246\n      tag_113\n      jump\t// in\n    tag_246:\n        /* \"#utility.yul\":11753:11800   */\n    tag_245:\n        /* \"#utility.yul\":11827:11828   */\n      0x01\n        /* \"#utility.yul\":11820:11825   */\n      dup3\n        /* \"#utility.yul\":11816:11829   */\n      add\n        /* \"#utility.yul\":11809:11829   */\n      swap1\n      pop\n        /* \"#utility.yul\":11660:11835   */\n      swap2\n      swap1\n      pop\n      jump\t// out\n        /* \"#utility.yul\":11841:12007   */\n    tag_122:\n        /* \"#utility.yul\":11981:11999   */\n      0x496e76616c69642050726f706f73616c00000000000000000000000000000000\n        /* \"#utility.yul\":11977:11978   */\n      0x00\n        /* \"#utility.yul\":11969:11975   */\n      dup3\n        /* \"#utility.yul\":11965:11979   */\n      add\n        /* \"#utility.yul\":11958:12000   */\n      mstore\n        /* \"#utility.yul\":11841:12007   */\n      pop\n      jump\t// out\n        /* \"#utility.yul\":12013:12379   */\n    tag_123:\n        /* \"#utility.yul\":12155:12158   */\n      0x00\n        /* \"#utility.yul\":12176:12243   */\n      tag_249\n        /* \"#utility.yul\":12240:12242   */\n      0x10\n        /* \"#utility.yul\":12235:12238   */\n      dup4\n        /* \"#utility.yul\":12176:12243   */\n      tag_110\n      jump\t// in\n    tag_249:\n        /* \"#utility.yul\":12169:12243   */\n      swap2\n      pop\n        /* \"#utility.yul\":12252:12345   */\n      tag_250\n        /* \"#utility.yul\":12341:12344   */\n      dup3\n        /* \"#utility.yul\":12252:12345   */\n      tag_122\n      jump\t// in\n    tag_250:\n        /* \"#utility.yul\":12370:12372   */\n      0x20\n        /* \"#utility.yul\":12365:12368   */\n      dup3\n        /* \"#utility.yul\":12361:12373   */\n      add\n        /* \"#utility.yul\":12354:12373   */\n      swap1\n      pop\n        /* \"#utility.yul\":12013:12379   */\n      swap2\n      swap1\n      pop\n      jump\t// out\n        /* \"#utility.yul\":12385:12804   */\n    tag_82:\n        /* \"#utility.yul\":12551:12555   */\n      0x00\n        /* \"#utility.yul\":12589:12591   */\n      0x20\n        /* \"#utility.yul\":12578:12587   */\n      dup3\n        /* \"#utility.yul\":12574:12592   */\n      add\n        /* \"#utility.yul\":12566:12592   */\n      swap1\n      pop\n        /* \"#utility.yul\":12638:12647   */\n      dup2\n        /* \"#utility.yul\":12632:12636   */\n      dup2\n        /* \"#utility.yul\":12628:12648   */\n      sub\n        /* \"#utility.yul\":12624:12625   */\n      0x00\n        /* \"#utility.yul\":12613:12622   */\n      dup4\n        /* \"#utility.yul\":12609:12626   */\n      add\n        /* \"#utility.yul\":12602:12649   */\n      mstore\n        /* \"#utility.yul\":12666:12797   */\n      tag_252\n        /* \"#utility.yul\":12792:12796   */\n      dup2\n        /* \"#utility.yul\":12666:12797   */\n      tag_123\n      jump\t// in\n    tag_252:\n        /* \"#utility.yul\":12658:12797   */\n      swap1\n      pop\n        /* \"#utility.yul\":12385:12804   */\n      swap2\n      swap1\n      pop\n      jump\t// out\n        /* \"#utility.yul\":12810:12976   */\n    tag_124:\n        /* \"#utility.yul\":12950:12968   */\n      0x566f74696e67206e6f7420656e64656400000000000000000000000000000000\n        /* \"#utility.yul\":12946:12947   */\n      0x00\n        /* \"#utility.yul\":12938:12944   */\n      dup3\n        /* \"#utility.yul\":12934:12948   */\n      add\n        /* \"#utility.yul\":12927:12969   */\n      mstore\n        /* \"#utility.yul\":12810:12976   */\n      pop\n      jump\t// out\n        /* \"#utility.yul\":12982:13348   */\n    tag_125:\n        /* \"#utility.yul\":13124:13127   */\n      0x00\n        /* \"#utility.yul\":13145:13212   */\n      tag_255\n        /* \"#utility.yul\":13209:13211   */\n      0x10\n        /* \"#utility.yul\":13204:13207   */\n      dup4\n        /* \"#utility.yul\":13145:13212   */\n      tag_110\n      jump\t// in\n    tag_255:\n        /* \"#utility.yul\":13138:13212   */\n      swap2\n      pop\n        /* \"#utility.yul\":13221:13314   */\n      tag_256\n        /* \"#utility.yul\":13310:13313   */\n      dup3\n        /* \"#utility.yul\":13221:13314   */\n      tag_124\n      jump\t// in\n    tag_256:\n        /* \"#utility.yul\":13339:13341   */\n      0x20\n        /* \"#utility.yul\":13334:13337   */\n      dup3\n        /* \"#utility.yul\":13330:13342   */\n      add\n        /* \"#utility.yul\":13323:13342   */\n      swap1\n      pop\n        /* \"#utility.yul\":12982:13348   */\n      swap2\n      swap1\n      pop\n      jump\t// out\n        /* \"#utility.yul\":13354:13773   */\n    tag_85:\n        /* \"#utility.yul\":13520:13524   */\n      0x00\n        /* \"#utility.yul\":13558:13560   */\n      0x20\n        /* \"#utility.yul\":13547:13556   */\n      dup3\n        /* \"#utility.yul\":13543:13561   */\n      add\n        /* \"#utility.yul\":13535:13561   */\n      swap1\n      pop\n        /* \"#utility.yul\":13607:13616   */\n      dup2\n        /* \"#utility.yul\":13601:13605   */\n      dup2\n        /* \"#utility.yul\":13597:13617   */\n      sub\n        /* \"#utility.yul\":13593:13594   */\n      0x00\n        /* \"#utility.yul\":13582:13591   */\n      dup4\n        /* \"#utility.yul\":13578:13595   */\n      add\n        /* \"#utility.yul\":13571:13618   */\n      mstore\n        /* \"#utility.yul\":13635:13766   */\n      tag_258\n        /* \"#utility.yul\":13761:13765   */\n      dup2\n        /* \"#utility.yul\":13635:13766   */\n      tag_125\n      jump\t// in\n    tag_258:\n        /* \"#utility.yul\":13627:13766   */\n      swap1\n      pop\n        /* \"#utility.yul\":13354:13773   */\n      swap2\n      swap1\n      pop\n      jump\t// out\n        /* \"#utility.yul\":13779:13944   */\n    tag_126:\n        /* \"#utility.yul\":13919:13936   */\n      0x416c726561647920657863757465640000000000000000000000000000000000\n        /* \"#utility.yul\":13915:13916   */\n      0x00\n        /* \"#utility.yul\":13907:13913   */\n      dup3\n        /* \"#utility.yul\":13903:13917   */\n      add\n        /* \"#utility.yul\":13896:13937   */\n      mstore\n        /* \"#utility.yul\":13779:13944   */\n      pop\n      jump\t// out\n        /* \"#utility.yul\":13950:14316   */\n    tag_127:\n        /* \"#utility.yul\":14092:14095   */\n      0x00\n        /* \"#utility.yul\":14113:14180   */\n      tag_261\n        /* \"#utility.yul\":14177:14179   */\n      0x0f\n        /* \"#utility.yul\":14172:14175   */\n      dup4\n        /* \"#utility.yul\":14113:14180   */\n      tag_110\n      jump\t// in\n    tag_261:\n        /* \"#utility.yul\":14106:14180   */\n      swap2\n      pop\n        /* \"#utility.yul\":14189:14282   */\n      tag_262\n        /* \"#utility.yul\":14278:14281   */\n      dup3\n        /* \"#utility.yul\":14189:14282   */\n      tag_126\n      jump\t// in\n    tag_262:\n        /* \"#utility.yul\":14307:14309   */\n      0x20\n        /* \"#utility.yul\":14302:14305   */\n      dup3\n        /* \"#utility.yul\":14298:14310   */\n      add\n        /* \"#utility.yul\":14291:14310   */\n      swap1\n      pop\n        /* \"#utility.yul\":13950:14316   */\n      swap2\n      swap1\n      pop\n      jump\t// out\n        /* \"#utility.yul\":14322:14741   */\n    tag_88:\n        /* \"#utility.yul\":14488:14492   */\n      0x00\n        /* \"#utility.yul\":14526:14528   */\n      0x20\n        /* \"#utility.yul\":14515:14524   */\n      dup3\n        /* \"#utility.yul\":14511:14529   */\n      add\n        /* \"#utility.yul\":14503:14529   */\n      swap1\n      pop\n        /* \"#utility.yul\":14575:14584   */\n      dup2\n        /* \"#utility.yul\":14569:14573   */\n      dup2\n        /* \"#utility.yul\":14565:14585   */\n      sub\n        /* \"#utility.yul\":14561:14562   */\n      0x00\n        /* \"#utility.yul\":14550:14559   */\n      dup4\n        /* \"#utility.yul\":14546:14563   */\n      add\n        /* \"#utility.yul\":14539:14586   */\n      mstore\n        /* \"#utility.yul\":14603:14734   */\n      tag_264\n        /* \"#utility.yul\":14729:14733   */\n      dup2\n        /* \"#utility.yul\":14603:14734   */\n      tag_127\n      jump\t// in\n    tag_264:\n        /* \"#utility.yul\":14595:14734   */\n      swap1\n      pop\n        /* \"#utility.yul\":14322:14741   */\n      swap2\n      swap1\n      pop\n      jump\t// out\n\n    auxdata: 0xa26469706673582212203fbf77708faf454f8e8cead709edd2ce16d9c47aaacf2d5d8b2335503cf7b62364736f6c634300081e0033\n}\n",
				"bytecode": {
					"linkReferences": {},
					"object": "6080604052348015600e575f5ffd5b506111cb8061001c5f395ff3fe608060405234801561000f575f5ffd5b5060043610610086575f3560e01c8063d3c6a0f211610059578063d3c6a0f214610126578063da35c66414610156578063dac001fe14610174578063f34b4353146101a957610086565b806359aef53c1461008a5780636760b1c0146100a657806384acf0f5146100d6578063b3f98adc1461010a575b5f5ffd5b6100a4600480360381019061009f9190610afc565b6101c5565b005b6100c060048036038101906100bb9190610b70565b610395565b6040516100cd9190610baa565b60405180910390f35b6100f060048036038101906100eb9190610b70565b6103b5565b604051610101959493929190610bec565b60405180910390f35b610124600480360381019061011f9190610b70565b610423565b005b610140600480360381019061013b9190610c97565b610771565b60405161014d9190610cd5565b60405180910390f35b61015e6107c4565b60405161016b9190610cfd565b60405180910390f35b61018e60048036038101906101899190610b70565b6107d5565b6040516101a096959493929190610d16565b60405180910390f35b6101c360048036038101906101be9190610b70565b6108f8565b005b5f8163ffffffff161161020d576040517f08c379a000000000000000000000000000000000000000000000000000000000815260040161020490610dcf565b60405180910390fd5b5f5f5f9054906101000a900460ff1690505f5f81819054906101000a900460ff168092919061023b90610e1a565b91906101000a81548160ff021916908360ff160217905550505f6040518060a001604052808581526020015f63ffffffff1681526020014263ffffffff168152602001844261028a9190610e42565b63ffffffff1681526020015f151581525090508060015f8460ff1660ff1681526020019081526020015f205f820151815f01556020820151816001015f6101000a81548163ffffffff021916908363ffffffff16021790555060408201518160010160046101000a81548163ffffffff021916908363ffffffff16021790555060608201518160010160086101000a81548163ffffffff021916908363ffffffff160217905550608082015181600101600c6101000a81548160ff0219169083151502179055509050508160ff167f778068a8b34cd2ab006c1c96cd8b819623539c5979eea060167a8376ab51ae26856040516103879190610e79565b60405180910390a250505050565b6003602052805f5260405f205f915054906101000a900463ffffffff1681565b6001602052805f5260405f205f91509050805f015490806001015f9054906101000a900463ffffffff16908060010160049054906101000a900463ffffffff16908060010160089054906101000a900463ffffffff169080600101600c9054906101000a900460ff16905085565b5f5f9054906101000a900460ff1660ff168160ff1610610478576040517f08c379a000000000000000000000000000000000000000000000000000000000815260040161046f90610edc565b60405180910390fd5b5f4263ffffffff16905060015f8360ff1660ff1681526020019081526020015f2060010160049054906101000a900463ffffffff1663ffffffff168110156104f5576040517f08c379a00000000000000000000000000000000000000000000000000000000081526004016104ec90610f44565b60405180910390fd5b60015f8360ff1660ff1681526020019081526020015f2060010160089054906101000a900463ffffffff1663ffffffff16811115610568576040517f08c379a000000000000000000000000000000000000000000000000000000000815260040161055f90610fac565b60405180910390fd5b5f60025f3373ffffffffffffffffffffffffffffffffffffffff1673ffffffffffffffffffffffffffffffffffffffff1681526020019081526020015f205490505f8360ff166001901b90505f60025f3373ffffffffffffffffffffffffffffffffffffffff1673ffffffffffffffffffffffffffffffffffffffff1681526020019081526020015f205414610633576040517f08c379a000000000000000000000000000000000000000000000000000000000815260040161062a90611014565b60405180910390fd5b80821760025f3373ffffffffffffffffffffffffffffffffffffffff1673ffffffffffffffffffffffffffffffffffffffff1681526020019081526020015f208190555060015f8560ff1660ff1681526020019081526020015f206001015f81819054906101000a900463ffffffff16809291906106b090611032565b91906101000a81548163ffffffff021916908363ffffffff1602179055505060035f8560ff1660ff1681526020019081526020015f205f81819054906101000a900463ffffffff168092919061070590611032565b91906101000a81548163ffffffff021916908363ffffffff160217905550508360ff163373ffffffffffffffffffffffffffffffffffffffff167f14075e33dffdc00c1fcaf75d0f86d667170be57fb566b12b41b499e5fa53b12560405160405180910390a350505050565b5f5f8260ff166001901b60025f8673ffffffffffffffffffffffffffffffffffffffff1673ffffffffffffffffffffffffffffffffffffffff1681526020019081526020015f2054161415905092915050565b5f5f9054906101000a900460ff1681565b5f5f5f5f5f5f5f5f9054906101000a900460ff1660ff168760ff1610610830576040517f08c379a000000000000000000000000000000000000000000000000000000000815260040161082790610edc565b60405180910390fd5b5f60015f8960ff1660ff1681526020019081526020015f209050805f0154816001015f9054906101000a900463ffffffff168260010160049054906101000a900463ffffffff168360010160089054906101000a900463ffffffff1684600101600c9054906101000a900460ff168560010160049054906101000a900463ffffffff1663ffffffff1642101580156108e257508560010160089054906101000a900463ffffffff1663ffffffff164211155b9650965096509650965096505091939550919395565b5f5f9054906101000a900460ff1660ff168160ff161061094d576040517f08c379a0000000000000000000000000000000000000000000000000000000008152600401610944906110a7565b60405180910390fd5b60015f8260ff1660ff1681526020019081526020015f2060010160089054906101000a900463ffffffff1663ffffffff1642116109bf576040517f08c379a00000000000000000000000000000000000000000000000000000000081526004016109b69061110f565b60405180910390fd5b60015f8260ff1660ff1681526020019081526020015f20600101600c9054906101000a900460ff1615610a27576040517f08c379a0000000000000000000000000000000000000000000000000000000008152600401610a1e90611177565b60405180910390fd5b6001805f8360ff1660ff1681526020019081526020015f20600101600c6101000a81548160ff0219169083151502179055508060ff167f8aa589870aedc16475b88d2f3f2194d3ac48eee9f767dc13c621ef2ea9ab696860405160405180910390a250565b5f5ffd5b5f819050919050565b610aa281610a90565b8114610aac575f5ffd5b50565b5f81359050610abd81610a99565b92915050565b5f63ffffffff82169050919050565b610adb81610ac3565b8114610ae5575f5ffd5b50565b5f81359050610af681610ad2565b92915050565b5f5f60408385031215610b1257610b11610a8c565b5b5f610b1f85828601610aaf565b9250506020610b3085828601610ae8565b9150509250929050565b5f60ff82169050919050565b610b4f81610b3a565b8114610b59575f5ffd5b50565b5f81359050610b6a81610b46565b92915050565b5f60208284031215610b8557610b84610a8c565b5b5f610b9284828501610b5c565b91505092915050565b610ba481610ac3565b82525050565b5f602082019050610bbd5f830184610b9b565b92915050565b610bcc81610a90565b82525050565b5f8115159050919050565b610be681610bd2565b82525050565b5f60a082019050610bff5f830188610bc3565b610c0c6020830187610b9b565b610c196040830186610b9b565b610c266060830185610b9b565b610c336080830184610bdd565b9695505050505050565b5f73ffffffffffffffffffffffffffffffffffffffff82169050919050565b5f610c6682610c3d565b9050919050565b610c7681610c5c565b8114610c80575f5ffd5b50565b5f81359050610c9181610c6d565b92915050565b5f5f60408385031215610cad57610cac610a8c565b5b5f610cba85828601610c83565b9250506020610ccb85828601610b5c565b9150509250929050565b5f602082019050610ce85f830184610bdd565b92915050565b610cf781610b3a565b82525050565b5f602082019050610d105f830184610cee565b92915050565b5f60c082019050610d295f830189610bc3565b610d366020830188610b9b565b610d436040830187610b9b565b610d506060830186610b9b565b610d5d6080830185610bdd565b610d6a60a0830184610bdd565b979650505050505050565b5f82825260208201905092915050565b7f4475726174696f6e732073686f756c64206265206d6f7265207468616e2030005f82015250565b5f610db9601f83610d75565b9150610dc482610d85565b602082019050919050565b5f6020820190508181035f830152610de681610dad565b9050919050565b7f4e487b71000000000000000000000000000000000000000000000000000000005f52601160045260245ffd5b5f610e2482610b3a565b915060ff8203610e3757610e36610ded565b5b600182019050919050565b5f610e4c82610ac3565b9150610e5783610ac3565b9250828201905063ffffffff811115610e7357610e72610ded565b5b92915050565b5f602082019050610e8c5f830184610bc3565b92915050565b7f496e76616c69642070726f706f73616c000000000000000000000000000000005f82015250565b5f610ec6601083610d75565b9150610ed182610e92565b602082019050919050565b5f6020820190508181035f830152610ef381610eba565b9050919050565b7f566f74696e6720686173206e6f742073746172746564000000000000000000005f82015250565b5f610f2e601683610d75565b9150610f3982610efa565b602082019050919050565b5f6020820190508181035f830152610f5b81610f22565b9050919050565b7f566f74696e672068617320656e646564000000000000000000000000000000005f82015250565b5f610f96601083610d75565b9150610fa182610f62565b602082019050919050565b5f6020820190508181035f830152610fc381610f8a565b9050919050565b7f416c726561647920766f746564000000000000000000000000000000000000005f82015250565b5f610ffe600d83610d75565b915061100982610fca565b602082019050919050565b5f6020820190508181035f83015261102b81610ff2565b9050919050565b5f61103c82610ac3565b915063ffffffff820361105257611051610ded565b5b600182019050919050565b7f496e76616c69642050726f706f73616c000000000000000000000000000000005f82015250565b5f611091601083610d75565b915061109c8261105d565b602082019050919050565b5f6020820190508181035f8301526110be81611085565b9050919050565b7f566f74696e67206e6f7420656e646564000000000000000000000000000000005f82015250565b5f6110f9601083610d75565b9150611104826110c5565b602082019050919050565b5f6020820190508181035f830152611126816110ed565b9050919050565b7f416c7265616479206578637574656400000000000000000000000000000000005f82015250565b5f611161600f83610d75565b915061116c8261112d565b602082019050919050565b5f6020820190508181035f83015261118e81611155565b905091905056fea26469706673582212203fbf77708faf454f8e8cead709edd2ce16d9c47aaacf2d5d8b2335503cf7b62364736f6c634300081e0033",
					"opcodes": "PUSH1 0x80 PUSH1 0x40 MSTORE CALLVALUE DUP1 ISZERO PUSH1 0xE JUMPI PUSH0 PUSH0 REVERT JUMPDEST POP PUSH2 0x11CB DUP1 PUSH2 0x1C PUSH0 CODECOPY PUSH0 RETURN INVALID PUSH1 0x80 PUSH1 0x40 MSTORE CALLVALUE DUP1 ISZERO PUSH2 0xF JUMPI PUSH0 PUSH0 REVERT JUMPDEST POP PUSH1 0x4 CALLDATASIZE LT PUSH2 0x86 JUMPI PUSH0 CALLDATALOAD PUSH1 0xE0 SHR DUP1 PUSH4 0xD3C6A0F2 GT PUSH2 0x59 JUMPI DUP1 PUSH4 0xD3C6A0F2 EQ PUSH2 0x126 JUMPI DUP1 PUSH4 0xDA35C664 EQ PUSH2 0x156 JUMPI DUP1 PUSH4 0xDAC001FE EQ PUSH2 0x174 JUMPI DUP1 PUSH4 0xF34B4353 EQ PUSH2 0x1A9 JUMPI PUSH2 0x86 JUMP JUMPDEST DUP1 PUSH4 0x59AEF53C EQ PUSH2 0x8A JUMPI DUP1 PUSH4 0x6760B1C0 EQ PUSH2 0xA6 JUMPI DUP1 PUSH4 0x84ACF0F5 EQ PUSH2 0xD6 JUMPI DUP1 PUSH4 0xB3F98ADC EQ PUSH2 0x10A JUMPI JUMPDEST PUSH0 PUSH0 REVERT JUMPDEST PUSH2 0xA4 PUSH1 0x4 DUP1 CALLDATASIZE SUB DUP2 ADD SWAP1 PUSH2 0x9F SWAP2 SWAP1 PUSH2 0xAFC JUMP JUMPDEST PUSH2 0x1C5 JUMP JUMPDEST STOP JUMPDEST PUSH2 0xC0 PUSH1 0x4 DUP1 CALLDATASIZE SUB DUP2 ADD SWAP1 PUSH2 0xBB SWAP2 SWAP1 PUSH2 0xB70 JUMP JUMPDEST PUSH2 0x395 JUMP JUMPDEST PUSH1 0x40 MLOAD PUSH2 0xCD SWAP2 SWAP1 PUSH2 0xBAA JUMP JUMPDEST PUSH1 0x40 MLOAD DUP1 SWAP2 SUB SWAP1 RETURN JUMPDEST PUSH2 0xF0 PUSH1 0x4 DUP1 CALLDATASIZE SUB DUP2 ADD SWAP1 PUSH2 0xEB SWAP2 SWAP1 PUSH2 0xB70 JUMP JUMPDEST PUSH2 0x3B5 JUMP JUMPDEST PUSH1 0x40 MLOAD PUSH2 0x101 SWAP6 SWAP5 SWAP4 SWAP3 SWAP2 SWAP1 PUSH2 0xBEC JUMP JUMPDEST PUSH1 0x40 MLOAD DUP1 SWAP2 SUB SWAP1 RETURN JUMPDEST PUSH2 0x124 PUSH1 0x4 DUP1 CALLDATASIZE SUB DUP2 ADD SWAP1 PUSH2 0x11F SWAP2 SWAP1 PUSH2 0xB70 JUMP JUMPDEST PUSH2 0x423 JUMP JUMPDEST STOP JUMPDEST PUSH2 0x140 PUSH1 0x4 DUP1 CALLDATASIZE SUB DUP2 ADD SWAP1 PUSH2 0x13B SWAP2 SWAP1 PUSH2 0xC97 JUMP JUMPDEST PUSH2 0x771 JUMP JUMPDEST PUSH1 0x40 MLOAD PUSH2 0x14D SWAP2 SWAP1 PUSH2 0xCD5 JUMP JUMPDEST PUSH1 0x40 MLOAD DUP1 SWAP2 SUB SWAP1 RETURN JUMPDEST PUSH2 0x15E PUSH2 0x7C4 JUMP JUMPDEST PUSH1 0x40 MLOAD PUSH2 0x16B SWAP2 SWAP1 PUSH2 0xCFD JUMP JUMPDEST PUSH1 0x40 MLOAD DUP1 SWAP2 SUB SWAP1 RETURN JUMPDEST PUSH2 0x18E PUSH1 0x4 DUP1 CALLDATASIZE SUB DUP2 ADD SWAP1 PUSH2 0x189 SWAP2 SWAP1 PUSH2 0xB70 JUMP JUMPDEST PUSH2 0x7D5 JUMP JUMPDEST PUSH1 0x40 MLOAD PUSH2 0x1A0 SWAP7 SWAP6 SWAP5 SWAP4 SWAP3 SWAP2 SWAP1 PUSH2 0xD16 JUMP JUMPDEST PUSH1 0x40 MLOAD DUP1 SWAP2 SUB SWAP1 RETURN JUMPDEST PUSH2 0x1C3 PUSH1 0x4 DUP1 CALLDATASIZE SUB DUP2 ADD SWAP1 PUSH2 0x1BE SWAP2 SWAP1 PUSH2 0xB70 JUMP JUMPDEST PUSH2 0x8F8 JUMP JUMPDEST STOP JUMPDEST PUSH0 DUP2 PUSH4 0xFFFFFFFF AND GT PUSH2 0x20D JUMPI PUSH1 0x40 MLOAD PUSH32 0x8C379A000000000000000000000000000000000000000000000000000000000 DUP2 MSTORE PUSH1 0x4 ADD PUSH2 0x204 SWAP1 PUSH2 0xDCF JUMP JUMPDEST PUSH1 0x40 MLOAD DUP1 SWAP2 SUB SWAP1 REVERT JUMPDEST PUSH0 PUSH0 PUSH0 SWAP1 SLOAD SWAP1 PUSH2 0x100 EXP SWAP1 DIV PUSH1 0xFF AND SWAP1 POP PUSH0 PUSH0 DUP2 DUP2 SWAP1 SLOAD SWAP1 PUSH2 0x100 EXP SWAP1 DIV PUSH1 0xFF AND DUP1 SWAP3 SWAP2 SWAP1 PUSH2 0x23B SWAP1 PUSH2 0xE1A JUMP JUMPDEST SWAP2 SWAP1 PUSH2 0x100 EXP DUP2 SLOAD DUP2 PUSH1 0xFF MUL NOT AND SWAP1 DUP4 PUSH1 0xFF AND MUL OR SWAP1 SSTORE POP POP PUSH0 PUSH1 0x40 MLOAD DUP1 PUSH1 0xA0 ADD PUSH1 0x40 MSTORE DUP1 DUP6 DUP2 MSTORE PUSH1 0x20 ADD PUSH0 PUSH4 0xFFFFFFFF AND DUP2 MSTORE PUSH1 0x20 ADD TIMESTAMP PUSH4 0xFFFFFFFF AND DUP2 MSTORE PUSH1 0x20 ADD DUP5 TIMESTAMP PUSH2 0x28A SWAP2 SWAP1 PUSH2 0xE42 JUMP JUMPDEST PUSH4 0xFFFFFFFF AND DUP2 MSTORE PUSH1 0x20 ADD PUSH0 ISZERO ISZERO DUP2 MSTORE POP SWAP1 POP DUP1 PUSH1 0x1 PUSH0 DUP5 PUSH1 0xFF AND PUSH1 0xFF AND DUP2 MSTORE PUSH1 0x20 ADD SWAP1 DUP2 MSTORE PUSH1 0x20 ADD PUSH0 KECCAK256 PUSH0 DUP3 ADD MLOAD DUP2 PUSH0 ADD SSTORE PUSH1 0x20 DUP3 ADD MLOAD DUP2 PUSH1 0x1 ADD PUSH0 PUSH2 0x100 EXP DUP2 SLOAD DUP2 PUSH4 0xFFFFFFFF MUL NOT AND SWAP1 DUP4 PUSH4 0xFFFFFFFF AND MUL OR SWAP1 SSTORE POP PUSH1 0x40 DUP3 ADD MLOAD DUP2 PUSH1 0x1 ADD PUSH1 0x4 PUSH2 0x100 EXP DUP2 SLOAD DUP2 PUSH4 0xFFFFFFFF MUL NOT AND SWAP1 DUP4 PUSH4 0xFFFFFFFF AND MUL OR SWAP1 SSTORE POP PUSH1 0x60 DUP3 ADD MLOAD DUP2 PUSH1 0x1 ADD PUSH1 0x8 PUSH2 0x100 EXP DUP2 SLOAD DUP2 PUSH4 0xFFFFFFFF MUL NOT AND SWAP1 DUP4 PUSH4 0xFFFFFFFF AND MUL OR SWAP1 SSTORE POP PUSH1 0x80 DUP3 ADD MLOAD DUP2 PUSH1 0x1 ADD PUSH1 0xC PUSH2 0x100 EXP DUP2 SLOAD DUP2 PUSH1 0xFF MUL NOT AND SWAP1 DUP4 ISZERO ISZERO MUL OR SWAP1 SSTORE POP SWAP1 POP POP DUP2 PUSH1 0xFF AND PUSH32 0x778068A8B34CD2AB006C1C96CD8B819623539C5979EEA060167A8376AB51AE26 DUP6 PUSH1 0x40 MLOAD PUSH2 0x387 SWAP2 SWAP1 PUSH2 0xE79 JUMP JUMPDEST PUSH1 0x40 MLOAD DUP1 SWAP2 SUB SWAP1 LOG2 POP POP POP POP JUMP JUMPDEST PUSH1 0x3 PUSH1 0x20 MSTORE DUP1 PUSH0 MSTORE PUSH1 0x40 PUSH0 KECCAK256 PUSH0 SWAP2 POP SLOAD SWAP1 PUSH2 0x100 EXP SWAP1 DIV PUSH4 0xFFFFFFFF AND DUP2 JUMP JUMPDEST PUSH1 0x1 PUSH1 0x20 MSTORE DUP1 PUSH0 MSTORE PUSH1 0x40 PUSH0 KECCAK256 PUSH0 SWAP2 POP SWAP1 POP DUP1 PUSH0 ADD SLOAD SWAP1 DUP1 PUSH1 0x1 ADD PUSH0 SWAP1 SLOAD SWAP1 PUSH2 0x100 EXP SWAP1 DIV PUSH4 0xFFFFFFFF AND SWAP1 DUP1 PUSH1 0x1 ADD PUSH1 0x4 SWAP1 SLOAD SWAP1 PUSH2 0x100 EXP SWAP1 DIV PUSH4 0xFFFFFFFF AND SWAP1 DUP1 PUSH1 0x1 ADD PUSH1 0x8 SWAP1 SLOAD SWAP1 PUSH2 0x100 EXP SWAP1 DIV PUSH4 0xFFFFFFFF AND SWAP1 DUP1 PUSH1 0x1 ADD PUSH1 0xC SWAP1 SLOAD SWAP1 PUSH2 0x100 EXP SWAP1 DIV PUSH1 0xFF AND SWAP1 POP DUP6 JUMP JUMPDEST PUSH0 PUSH0 SWAP1 SLOAD SWAP1 PUSH2 0x100 EXP SWAP1 DIV PUSH1 0xFF AND PUSH1 0xFF AND DUP2 PUSH1 0xFF AND LT PUSH2 0x478 JUMPI PUSH1 0x40 MLOAD PUSH32 0x8C379A000000000000000000000000000000000000000000000000000000000 DUP2 MSTORE PUSH1 0x4 ADD PUSH2 0x46F SWAP1 PUSH2 0xEDC JUMP JUMPDEST PUSH1 0x40 MLOAD DUP1 SWAP2 SUB SWAP1 REVERT JUMPDEST PUSH0 TIMESTAMP PUSH4 0xFFFFFFFF AND SWAP1 POP PUSH1 0x1 PUSH0 DUP4 PUSH1 0xFF AND PUSH1 0xFF AND DUP2 MSTORE PUSH1 0x20 ADD SWAP1 DUP2 MSTORE PUSH1 0x20 ADD PUSH0 KECCAK256 PUSH1 0x1 ADD PUSH1 0x4 SWAP1 SLOAD SWAP1 PUSH2 0x100 EXP SWAP1 DIV PUSH4 0xFFFFFFFF AND PUSH4 0xFFFFFFFF AND DUP2 LT ISZERO PUSH2 0x4F5 JUMPI PUSH1 0x40 MLOAD PUSH32 0x8C379A000000000000000000000000000000000000000000000000000000000 DUP2 MSTORE PUSH1 0x4 ADD PUSH2 0x4EC SWAP1 PUSH2 0xF44 JUMP JUMPDEST PUSH1 0x40 MLOAD DUP1 SWAP2 SUB SWAP1 REVERT JUMPDEST PUSH1 0x1 PUSH0 DUP4 PUSH1 0xFF AND PUSH1 0xFF AND DUP2 MSTORE PUSH1 0x20 ADD SWAP1 DUP2 MSTORE PUSH1 0x20 ADD PUSH0 KECCAK256 PUSH1 0x1 ADD PUSH1 0x8 SWAP1 SLOAD SWAP1 PUSH2 0x100 EXP SWAP1 DIV PUSH4 0xFFFFFFFF AND PUSH4 0xFFFFFFFF AND DUP2 GT ISZERO PUSH2 0x568 JUMPI PUSH1 0x40 MLOAD PUSH32 0x8C379A000000000000000000000000000000000000000000000000000000000 DUP2 MSTORE PUSH1 0x4 ADD PUSH2 0x55F SWAP1 PUSH2 0xFAC JUMP JUMPDEST PUSH1 0x40 MLOAD DUP1 SWAP2 SUB SWAP1 REVERT JUMPDEST PUSH0 PUSH1 0x2 PUSH0 CALLER PUSH20 0xFFFFFFFFFFFFFFFFFFFFFFFFFFFFFFFFFFFFFFFF AND PUSH20 0xFFFFFFFFFFFFFFFFFFFFFFFFFFFFFFFFFFFFFFFF AND DUP2 MSTORE PUSH1 0x20 ADD SWAP1 DUP2 MSTORE PUSH1 0x20 ADD PUSH0 KECCAK256 SLOAD SWAP1 POP PUSH0 DUP4 PUSH1 0xFF AND PUSH1 0x1 SWAP1 SHL SWAP1 POP PUSH0 PUSH1 0x2 PUSH0 CALLER PUSH20 0xFFFFFFFFFFFFFFFFFFFFFFFFFFFFFFFFFFFFFFFF AND PUSH20 0xFFFFFFFFFFFFFFFFFFFFFFFFFFFFFFFFFFFFFFFF AND DUP2 MSTORE PUSH1 0x20 ADD SWAP1 DUP2 MSTORE PUSH1 0x20 ADD PUSH0 KECCAK256 SLOAD EQ PUSH2 0x633 JUMPI PUSH1 0x40 MLOAD PUSH32 0x8C379A000000000000000000000000000000000000000000000000000000000 DUP2 MSTORE PUSH1 0x4 ADD PUSH2 0x62A SWAP1 PUSH2 0x1014 JUMP JUMPDEST PUSH1 0x40 MLOAD DUP1 SWAP2 SUB SWAP1 REVERT JUMPDEST DUP1 DUP3 OR PUSH1 0x2 PUSH0 CALLER PUSH20 0xFFFFFFFFFFFFFFFFFFFFFFFFFFFFFFFFFFFFFFFF AND PUSH20 0xFFFFFFFFFFFFFFFFFFFFFFFFFFFFFFFFFFFFFFFF AND DUP2 MSTORE PUSH1 0x20 ADD SWAP1 DUP2 MSTORE PUSH1 0x20 ADD PUSH0 KECCAK256 DUP2 SWAP1 SSTORE POP PUSH1 0x1 PUSH0 DUP6 PUSH1 0xFF AND PUSH1 0xFF AND DUP2 MSTORE PUSH1 0x20 ADD SWAP1 DUP2 MSTORE PUSH1 0x20 ADD PUSH0 KECCAK256 PUSH1 0x1 ADD PUSH0 DUP2 DUP2 SWAP1 SLOAD SWAP1 PUSH2 0x100 EXP SWAP1 DIV PUSH4 0xFFFFFFFF AND DUP1 SWAP3 SWAP2 SWAP1 PUSH2 0x6B0 SWAP1 PUSH2 0x1032 JUMP JUMPDEST SWAP2 SWAP1 PUSH2 0x100 EXP DUP2 SLOAD DUP2 PUSH4 0xFFFFFFFF MUL NOT AND SWAP1 DUP4 PUSH4 0xFFFFFFFF AND MUL OR SWAP1 SSTORE POP POP PUSH1 0x3 PUSH0 DUP6 PUSH1 0xFF AND PUSH1 0xFF AND DUP2 MSTORE PUSH1 0x20 ADD SWAP1 DUP2 MSTORE PUSH1 0x20 ADD PUSH0 KECCAK256 PUSH0 DUP2 DUP2 SWAP1 SLOAD SWAP1 PUSH2 0x100 EXP SWAP1 DIV PUSH4 0xFFFFFFFF AND DUP1 SWAP3 SWAP2 SWAP1 PUSH2 0x705 SWAP1 PUSH2 0x1032 JUMP JUMPDEST SWAP2 SWAP1 PUSH2 0x100 EXP DUP2 SLOAD DUP2 PUSH4 0xFFFFFFFF MUL NOT AND SWAP1 DUP4 PUSH4 0xFFFFFFFF AND MUL OR SWAP1 SSTORE POP POP DUP4 PUSH1 0xFF AND CALLER PUSH20 0xFFFFFFFFFFFFFFFFFFFFFFFFFFFFFFFFFFFFFFFF AND PUSH32 0x14075E33DFFDC00C1FCAF75D0F86D667170BE57FB566B12B41B499E5FA53B125 PUSH1 0x40 MLOAD PUSH1 0x40 MLOAD DUP1 SWAP2 SUB SWAP1 LOG3 POP POP POP POP JUMP JUMPDEST PUSH0 PUSH0 DUP3 PUSH1 0xFF AND PUSH1 0x1 SWAP1 SHL PUSH1 0x2 PUSH0 DUP7 PUSH20 0xFFFFFFFFFFFFFFFFFFFFFFFFFFFFFFFFFFFFFFFF AND PUSH20 0xFFFFFFFFFFFFFFFFFFFFFFFFFFFFFFFFFFFFFFFF AND DUP2 MSTORE PUSH1 0x20 ADD SWAP1 DUP2 MSTORE PUSH1 0x20 ADD PUSH0 KECCAK256 SLOAD AND EQ ISZERO SWAP1 POP SWAP3 SWAP2 POP POP JUMP JUMPDEST PUSH0 PUSH0 SWAP1 SLOAD SWAP1 PUSH2 0x100 EXP SWAP1 DIV PUSH1 0xFF AND DUP2 JUMP JUMPDEST PUSH0 PUSH0 PUSH0 PUSH0 PUSH0 PUSH0 PUSH0 PUSH0 SWAP1 SLOAD SWAP1 PUSH2 0x100 EXP SWAP1 DIV PUSH1 0xFF AND PUSH1 0xFF AND DUP8 PUSH1 0xFF AND LT PUSH2 0x830 JUMPI PUSH1 0x40 MLOAD PUSH32 0x8C379A000000000000000000000000000000000000000000000000000000000 DUP2 MSTORE PUSH1 0x4 ADD PUSH2 0x827 SWAP1 PUSH2 0xEDC JUMP JUMPDEST PUSH1 0x40 MLOAD DUP1 SWAP2 SUB SWAP1 REVERT JUMPDEST PUSH0 PUSH1 0x1 PUSH0 DUP10 PUSH1 0xFF AND PUSH1 0xFF AND DUP2 MSTORE PUSH1 0x20 ADD SWAP1 DUP2 MSTORE PUSH1 0x20 ADD PUSH0 KECCAK256 SWAP1 POP DUP1 PUSH0 ADD SLOAD DUP2 PUSH1 0x1 ADD PUSH0 SWAP1 SLOAD SWAP1 PUSH2 0x100 EXP SWAP1 DIV PUSH4 0xFFFFFFFF AND DUP3 PUSH1 0x1 ADD PUSH1 0x4 SWAP1 SLOAD SWAP1 PUSH2 0x100 EXP SWAP1 DIV PUSH4 0xFFFFFFFF AND DUP4 PUSH1 0x1 ADD PUSH1 0x8 SWAP1 SLOAD SWAP1 PUSH2 0x100 EXP SWAP1 DIV PUSH4 0xFFFFFFFF AND DUP5 PUSH1 0x1 ADD PUSH1 0xC SWAP1 SLOAD SWAP1 PUSH2 0x100 EXP SWAP1 DIV PUSH1 0xFF AND DUP6 PUSH1 0x1 ADD PUSH1 0x4 SWAP1 SLOAD SWAP1 PUSH2 0x100 EXP SWAP1 DIV PUSH4 0xFFFFFFFF AND PUSH4 0xFFFFFFFF AND TIMESTAMP LT ISZERO DUP1 ISZERO PUSH2 0x8E2 JUMPI POP DUP6 PUSH1 0x1 ADD PUSH1 0x8 SWAP1 SLOAD SWAP1 PUSH2 0x100 EXP SWAP1 DIV PUSH4 0xFFFFFFFF AND PUSH4 0xFFFFFFFF AND TIMESTAMP GT ISZERO JUMPDEST SWAP7 POP SWAP7 POP SWAP7 POP SWAP7 POP SWAP7 POP SWAP7 POP POP SWAP2 SWAP4 SWAP6 POP SWAP2 SWAP4 SWAP6 JUMP JUMPDEST PUSH0 PUSH0 SWAP1 SLOAD SWAP1 PUSH2 0x100 EXP SWAP1 DIV PUSH1 0xFF AND PUSH1 0xFF AND DUP2 PUSH1 0xFF AND LT PUSH2 0x94D JUMPI PUSH1 0x40 MLOAD PUSH32 0x8C379A000000000000000000000000000000000000000000000000000000000 DUP2 MSTORE PUSH1 0x4 ADD PUSH2 0x944 SWAP1 PUSH2 0x10A7 JUMP JUMPDEST PUSH1 0x40 MLOAD DUP1 SWAP2 SUB SWAP1 REVERT JUMPDEST PUSH1 0x1 PUSH0 DUP3 PUSH1 0xFF AND PUSH1 0xFF AND DUP2 MSTORE PUSH1 0x20 ADD SWAP1 DUP2 MSTORE PUSH1 0x20 ADD PUSH0 KECCAK256 PUSH1 0x1 ADD PUSH1 0x8 SWAP1 SLOAD SWAP1 PUSH2 0x100 EXP SWAP1 DIV PUSH4 0xFFFFFFFF AND PUSH4 0xFFFFFFFF AND TIMESTAMP GT PUSH2 0x9BF JUMPI PUSH1 0x40 MLOAD PUSH32 0x8C379A000000000000000000000000000000000000000000000000000000000 DUP2 MSTORE PUSH1 0x4 ADD PUSH2 0x9B6 SWAP1 PUSH2 0x110F JUMP JUMPDEST PUSH1 0x40 MLOAD DUP1 SWAP2 SUB SWAP1 REVERT JUMPDEST PUSH1 0x1 PUSH0 DUP3 PUSH1 0xFF AND PUSH1 0xFF AND DUP2 MSTORE PUSH1 0x20 ADD SWAP1 DUP2 MSTORE PUSH1 0x20 ADD PUSH0 KECCAK256 PUSH1 0x1 ADD PUSH1 0xC SWAP1 SLOAD SWAP1 PUSH2 0x100 EXP SWAP1 DIV PUSH1 0xFF AND ISZERO PUSH2 0xA27 JUMPI PUSH1 0x40 MLOAD PUSH32 0x8C379A000000000000000000000000000000000000000000000000000000000 DUP2 MSTORE PUSH1 0x4 ADD PUSH2 0xA1E SWAP1 PUSH2 0x1177 JUMP JUMPDEST PUSH1 0x40 MLOAD DUP1 SWAP2 SUB SWAP1 REVERT JUMPDEST PUSH1 0x1 DUP1 PUSH0 DUP4 PUSH1 0xFF AND PUSH1 0xFF AND DUP2 MSTORE PUSH1 0x20 ADD SWAP1 DUP2 MSTORE PUSH1 0x20 ADD PUSH0 KECCAK256 PUSH1 0x1 ADD PUSH1 0xC PUSH2 0x100 EXP DUP2 SLOAD DUP2 PUSH1 0xFF MUL NOT AND SWAP1 DUP4 ISZERO ISZERO MUL OR SWAP1 SSTORE POP DUP1 PUSH1 0xFF AND PUSH32 0x8AA589870AEDC16475B88D2F3F2194D3AC48EEE9F767DC13C621EF2EA9AB6968 PUSH1 0x40 MLOAD PUSH1 0x40 MLOAD DUP1 SWAP2 SUB SWAP1 LOG2 POP JUMP JUMPDEST PUSH0 PUSH0 REVERT JUMPDEST PUSH0 DUP2 SWAP1 POP SWAP2 SWAP1 POP JUMP JUMPDEST PUSH2 0xAA2 DUP2 PUSH2 0xA90 JUMP JUMPDEST DUP2 EQ PUSH2 0xAAC JUMPI PUSH0 PUSH0 REVERT JUMPDEST POP JUMP JUMPDEST PUSH0 DUP2 CALLDATALOAD SWAP1 POP PUSH2 0xABD DUP2 PUSH2 0xA99 JUMP JUMPDEST SWAP3 SWAP2 POP POP JUMP JUMPDEST PUSH0 PUSH4 0xFFFFFFFF DUP3 AND SWAP1 POP SWAP2 SWAP1 POP JUMP JUMPDEST PUSH2 0xADB DUP2 PUSH2 0xAC3 JUMP JUMPDEST DUP2 EQ PUSH2 0xAE5 JUMPI PUSH0 PUSH0 REVERT JUMPDEST POP JUMP JUMPDEST PUSH0 DUP2 CALLDATALOAD SWAP1 POP PUSH2 0xAF6 DUP2 PUSH2 0xAD2 JUMP JUMPDEST SWAP3 SWAP2 POP POP JUMP JUMPDEST PUSH0 PUSH0 PUSH1 0x40 DUP4 DUP6 SUB SLT ISZERO PUSH2 0xB12 JUMPI PUSH2 0xB11 PUSH2 0xA8C JUMP JUMPDEST JUMPDEST PUSH0 PUSH2 0xB1F DUP6 DUP3 DUP7 ADD PUSH2 0xAAF JUMP JUMPDEST SWAP3 POP POP PUSH1 0x20 PUSH2 0xB30 DUP6 DUP3 DUP7 ADD PUSH2 0xAE8 JUMP JUMPDEST SWAP2 POP POP SWAP3 POP SWAP3 SWAP1 POP JUMP JUMPDEST PUSH0 PUSH1 0xFF DUP3 AND SWAP1 POP SWAP2 SWAP1 POP JUMP JUMPDEST PUSH2 0xB4F DUP2 PUSH2 0xB3A JUMP JUMPDEST DUP2 EQ PUSH2 0xB59 JUMPI PUSH0 PUSH0 REVERT JUMPDEST POP JUMP JUMPDEST PUSH0 DUP2 CALLDATALOAD SWAP1 POP PUSH2 0xB6A DUP2 PUSH2 0xB46 JUMP JUMPDEST SWAP3 SWAP2 POP POP JUMP JUMPDEST PUSH0 PUSH1 0x20 DUP3 DUP5 SUB SLT ISZERO PUSH2 0xB85 JUMPI PUSH2 0xB84 PUSH2 0xA8C JUMP JUMPDEST JUMPDEST PUSH0 PUSH2 0xB92 DUP5 DUP3 DUP6 ADD PUSH2 0xB5C JUMP JUMPDEST SWAP2 POP POP SWAP3 SWAP2 POP POP JUMP JUMPDEST PUSH2 0xBA4 DUP2 PUSH2 0xAC3 JUMP JUMPDEST DUP3 MSTORE POP POP JUMP JUMPDEST PUSH0 PUSH1 0x20 DUP3 ADD SWAP1 POP PUSH2 0xBBD PUSH0 DUP4 ADD DUP5 PUSH2 0xB9B JUMP JUMPDEST SWAP3 SWAP2 POP POP JUMP JUMPDEST PUSH2 0xBCC DUP2 PUSH2 0xA90 JUMP JUMPDEST DUP3 MSTORE POP POP JUMP JUMPDEST PUSH0 DUP2 ISZERO ISZERO SWAP1 POP SWAP2 SWAP1 POP JUMP JUMPDEST PUSH2 0xBE6 DUP2 PUSH2 0xBD2 JUMP JUMPDEST DUP3 MSTORE POP POP JUMP JUMPDEST PUSH0 PUSH1 0xA0 DUP3 ADD SWAP1 POP PUSH2 0xBFF PUSH0 DUP4 ADD DUP9 PUSH2 0xBC3 JUMP JUMPDEST PUSH2 0xC0C PUSH1 0x20 DUP4 ADD DUP8 PUSH2 0xB9B JUMP JUMPDEST PUSH2 0xC19 PUSH1 0x40 DUP4 ADD DUP7 PUSH2 0xB9B JUMP JUMPDEST PUSH2 0xC26 PUSH1 0x60 DUP4 ADD DUP6 PUSH2 0xB9B JUMP JUMPDEST PUSH2 0xC33 PUSH1 0x80 DUP4 ADD DUP5 PUSH2 0xBDD JUMP JUMPDEST SWAP7 SWAP6 POP POP POP POP POP POP JUMP JUMPDEST PUSH0 PUSH20 0xFFFFFFFFFFFFFFFFFFFFFFFFFFFFFFFFFFFFFFFF DUP3 AND SWAP1 POP SWAP2 SWAP1 POP JUMP JUMPDEST PUSH0 PUSH2 0xC66 DUP3 PUSH2 0xC3D JUMP JUMPDEST SWAP1 POP SWAP2 SWAP1 POP JUMP JUMPDEST PUSH2 0xC76 DUP2 PUSH2 0xC5C JUMP JUMPDEST DUP2 EQ PUSH2 0xC80 JUMPI PUSH0 PUSH0 REVERT JUMPDEST POP JUMP JUMPDEST PUSH0 DUP2 CALLDATALOAD SWAP1 POP PUSH2 0xC91 DUP2 PUSH2 0xC6D JUMP JUMPDEST SWAP3 SWAP2 POP POP JUMP JUMPDEST PUSH0 PUSH0 PUSH1 0x40 DUP4 DUP6 SUB SLT ISZERO PUSH2 0xCAD JUMPI PUSH2 0xCAC PUSH2 0xA8C JUMP JUMPDEST JUMPDEST PUSH0 PUSH2 0xCBA DUP6 DUP3 DUP7 ADD PUSH2 0xC83 JUMP JUMPDEST SWAP3 POP POP PUSH1 0x20 PUSH2 0xCCB DUP6 DUP3 DUP7 ADD PUSH2 0xB5C JUMP JUMPDEST SWAP2 POP POP SWAP3 POP SWAP3 SWAP1 POP JUMP JUMPDEST PUSH0 PUSH1 0x20 DUP3 ADD SWAP1 POP PUSH2 0xCE8 PUSH0 DUP4 ADD DUP5 PUSH2 0xBDD JUMP JUMPDEST SWAP3 SWAP2 POP POP JUMP JUMPDEST PUSH2 0xCF7 DUP2 PUSH2 0xB3A JUMP JUMPDEST DUP3 MSTORE POP POP JUMP JUMPDEST PUSH0 PUSH1 0x20 DUP3 ADD SWAP1 POP PUSH2 0xD10 PUSH0 DUP4 ADD DUP5 PUSH2 0xCEE JUMP JUMPDEST SWAP3 SWAP2 POP POP JUMP JUMPDEST PUSH0 PUSH1 0xC0 DUP3 ADD SWAP1 POP PUSH2 0xD29 PUSH0 DUP4 ADD DUP10 PUSH2 0xBC3 JUMP JUMPDEST PUSH2 0xD36 PUSH1 0x20 DUP4 ADD DUP9 PUSH2 0xB9B JUMP JUMPDEST PUSH2 0xD43 PUSH1 0x40 DUP4 ADD DUP8 PUSH2 0xB9B JUMP JUMPDEST PUSH2 0xD50 PUSH1 0x60 DUP4 ADD DUP7 PUSH2 0xB9B JUMP JUMPDEST PUSH2 0xD5D PUSH1 0x80 DUP4 ADD DUP6 PUSH2 0xBDD JUMP JUMPDEST PUSH2 0xD6A PUSH1 0xA0 DUP4 ADD DUP5 PUSH2 0xBDD JUMP JUMPDEST SWAP8 SWAP7 POP POP POP POP POP POP POP JUMP JUMPDEST PUSH0 DUP3 DUP3 MSTORE PUSH1 0x20 DUP3 ADD SWAP1 POP SWAP3 SWAP2 POP POP JUMP JUMPDEST PUSH32 0x4475726174696F6E732073686F756C64206265206D6F7265207468616E203000 PUSH0 DUP3 ADD MSTORE POP JUMP JUMPDEST PUSH0 PUSH2 0xDB9 PUSH1 0x1F DUP4 PUSH2 0xD75 JUMP JUMPDEST SWAP2 POP PUSH2 0xDC4 DUP3 PUSH2 0xD85 JUMP JUMPDEST PUSH1 0x20 DUP3 ADD SWAP1 POP SWAP2 SWAP1 POP JUMP JUMPDEST PUSH0 PUSH1 0x20 DUP3 ADD SWAP1 POP DUP2 DUP2 SUB PUSH0 DUP4 ADD MSTORE PUSH2 0xDE6 DUP2 PUSH2 0xDAD JUMP JUMPDEST SWAP1 POP SWAP2 SWAP1 POP JUMP JUMPDEST PUSH32 0x4E487B7100000000000000000000000000000000000000000000000000000000 PUSH0 MSTORE PUSH1 0x11 PUSH1 0x4 MSTORE PUSH1 0x24 PUSH0 REVERT JUMPDEST PUSH0 PUSH2 0xE24 DUP3 PUSH2 0xB3A JUMP JUMPDEST SWAP2 POP PUSH1 0xFF DUP3 SUB PUSH2 0xE37 JUMPI PUSH2 0xE36 PUSH2 0xDED JUMP JUMPDEST JUMPDEST PUSH1 0x1 DUP3 ADD SWAP1 POP SWAP2 SWAP1 POP JUMP JUMPDEST PUSH0 PUSH2 0xE4C DUP3 PUSH2 0xAC3 JUMP JUMPDEST SWAP2 POP PUSH2 0xE57 DUP4 PUSH2 0xAC3 JUMP JUMPDEST SWAP3 POP DUP3 DUP3 ADD SWAP1 POP PUSH4 0xFFFFFFFF DUP2 GT ISZERO PUSH2 0xE73 JUMPI PUSH2 0xE72 PUSH2 0xDED JUMP JUMPDEST JUMPDEST SWAP3 SWAP2 POP POP JUMP JUMPDEST PUSH0 PUSH1 0x20 DUP3 ADD SWAP1 POP PUSH2 0xE8C PUSH0 DUP4 ADD DUP5 PUSH2 0xBC3 JUMP JUMPDEST SWAP3 SWAP2 POP POP JUMP JUMPDEST PUSH32 0x496E76616C69642070726F706F73616C00000000000000000000000000000000 PUSH0 DUP3 ADD MSTORE POP JUMP JUMPDEST PUSH0 PUSH2 0xEC6 PUSH1 0x10 DUP4 PUSH2 0xD75 JUMP JUMPDEST SWAP2 POP PUSH2 0xED1 DUP3 PUSH2 0xE92 JUMP JUMPDEST PUSH1 0x20 DUP3 ADD SWAP1 POP SWAP2 SWAP1 POP JUMP JUMPDEST PUSH0 PUSH1 0x20 DUP3 ADD SWAP1 POP DUP2 DUP2 SUB PUSH0 DUP4 ADD MSTORE PUSH2 0xEF3 DUP2 PUSH2 0xEBA JUMP JUMPDEST SWAP1 POP SWAP2 SWAP1 POP JUMP JUMPDEST PUSH32 0x566F74696E6720686173206E6F74207374617274656400000000000000000000 PUSH0 DUP3 ADD MSTORE POP JUMP JUMPDEST PUSH0 PUSH2 0xF2E PUSH1 0x16 DUP4 PUSH2 0xD75 JUMP JUMPDEST SWAP2 POP PUSH2 0xF39 DUP3 PUSH2 0xEFA JUMP JUMPDEST PUSH1 0x20 DUP3 ADD SWAP1 POP SWAP2 SWAP1 POP JUMP JUMPDEST PUSH0 PUSH1 0x20 DUP3 ADD SWAP1 POP DUP2 DUP2 SUB PUSH0 DUP4 ADD MSTORE PUSH2 0xF5B DUP2 PUSH2 0xF22 JUMP JUMPDEST SWAP1 POP SWAP2 SWAP1 POP JUMP JUMPDEST PUSH32 0x566F74696E672068617320656E64656400000000000000000000000000000000 PUSH0 DUP3 ADD MSTORE POP JUMP JUMPDEST PUSH0 PUSH2 0xF96 PUSH1 0x10 DUP4 PUSH2 0xD75 JUMP JUMPDEST SWAP2 POP PUSH2 0xFA1 DUP3 PUSH2 0xF62 JUMP JUMPDEST PUSH1 0x20 DUP3 ADD SWAP1 POP SWAP2 SWAP1 POP JUMP JUMPDEST PUSH0 PUSH1 0x20 DUP3 ADD SWAP1 POP DUP2 DUP2 SUB PUSH0 DUP4 ADD MSTORE PUSH2 0xFC3 DUP2 PUSH2 0xF8A JUMP JUMPDEST SWAP1 POP SWAP2 SWAP1 POP JUMP JUMPDEST PUSH32 0x416C726561647920766F74656400000000000000000000000000000000000000 PUSH0 DUP3 ADD MSTORE POP JUMP JUMPDEST PUSH0 PUSH2 0xFFE PUSH1 0xD DUP4 PUSH2 0xD75 JUMP JUMPDEST SWAP2 POP PUSH2 0x1009 DUP3 PUSH2 0xFCA JUMP JUMPDEST PUSH1 0x20 DUP3 ADD SWAP1 POP SWAP2 SWAP1 POP JUMP JUMPDEST PUSH0 PUSH1 0x20 DUP3 ADD SWAP1 POP DUP2 DUP2 SUB PUSH0 DUP4 ADD MSTORE PUSH2 0x102B DUP2 PUSH2 0xFF2 JUMP JUMPDEST SWAP1 POP SWAP2 SWAP1 POP JUMP JUMPDEST PUSH0 PUSH2 0x103C DUP3 PUSH2 0xAC3 JUMP JUMPDEST SWAP2 POP PUSH4 0xFFFFFFFF DUP3 SUB PUSH2 0x1052 JUMPI PUSH2 0x1051 PUSH2 0xDED JUMP JUMPDEST JUMPDEST PUSH1 0x1 DUP3 ADD SWAP1 POP SWAP2 SWAP1 POP JUMP JUMPDEST PUSH32 0x496E76616C69642050726F706F73616C00000000000000000000000000000000 PUSH0 DUP3 ADD MSTORE POP JUMP JUMPDEST PUSH0 PUSH2 0x1091 PUSH1 0x10 DUP4 PUSH2 0xD75 JUMP JUMPDEST SWAP2 POP PUSH2 0x109C DUP3 PUSH2 0x105D JUMP JUMPDEST PUSH1 0x20 DUP3 ADD SWAP1 POP SWAP2 SWAP1 POP JUMP JUMPDEST PUSH0 PUSH1 0x20 DUP3 ADD SWAP1 POP DUP2 DUP2 SUB PUSH0 DUP4 ADD MSTORE PUSH2 0x10BE DUP2 PUSH2 0x1085 JUMP JUMPDEST SWAP1 POP SWAP2 SWAP1 POP JUMP JUMPDEST PUSH32 0x566F74696E67206E6F7420656E64656400000000000000000000000000000000 PUSH0 DUP3 ADD MSTORE POP JUMP JUMPDEST PUSH0 PUSH2 0x10F9 PUSH1 0x10 DUP4 PUSH2 0xD75 JUMP JUMPDEST SWAP2 POP PUSH2 0x1104 DUP3 PUSH2 0x10C5 JUMP JUMPDEST PUSH1 0x20 DUP3 ADD SWAP1 POP SWAP2 SWAP1 POP JUMP JUMPDEST PUSH0 PUSH1 0x20 DUP3 ADD SWAP1 POP DUP2 DUP2 SUB PUSH0 DUP4 ADD MSTORE PUSH2 0x1126 DUP2 PUSH2 0x10ED JUMP JUMPDEST SWAP1 POP SWAP2 SWAP1 POP JUMP JUMPDEST PUSH32 0x416C726561647920657863757465640000000000000000000000000000000000 PUSH0 DUP3 ADD MSTORE POP JUMP JUMPDEST PUSH0 PUSH2 0x1161 PUSH1 0xF DUP4 PUSH2 0xD75 JUMP JUMPDEST SWAP2 POP PUSH2 0x116C DUP3 PUSH2 0x112D JUMP JUMPDEST PUSH1 0x20 DUP3 ADD SWAP1 POP SWAP2 SWAP1 POP JUMP JUMPDEST PUSH0 PUSH1 0x20 DUP3 ADD SWAP1 POP DUP2 DUP2 SUB PUSH0 DUP4 ADD MSTORE PUSH2 0x118E DUP2 PUSH2 0x1155 JUMP JUMPDEST SWAP1 POP SWAP2 SWAP1 POP JUMP INVALID LOG2 PUSH5 0x6970667358 0x22 SLT KECCAK256 EXTCODEHASH 0xBF PUSH24 0x708FAF454F8E8CEAD709EDD2CE16D9C47AAACF2D5D8B2335 POP EXTCODECOPY 0xF7 0xB6 0x23 PUSH5 0x736F6C6343 STOP ADDMOD 0x1E STOP CALLER "
				},
				"gasEstimates": {
					"creation": {
						"codeDepositCost": "911000",
						"executionCost": "946",
						"totalCost": "911946"
					},
					"external": {
						"createProposal(bytes32,uint32)": "infinite",
						"excuteProposal(uint8)": "32822",
						"getProposal(uint8)": "infinite",
						"hasVoted(address,uint8)": "3040",
						"proposalCount()": "2487",
						"proposalVoterCount(uint8)": "2814",
						"proposals(uint8)": "infinite",
						"vote(uint8)": "infinite"
					}
				},
				"methodIdentifiers": {
					"createProposal(bytes32,uint32)": "59aef53c",
					"excuteProposal(uint8)": "f34b4353",
					"getProposal(uint8)": "dac001fe",
					"hasVoted(address,uint8)": "d3c6a0f2",
					"proposalCount()": "da35c664",
					"proposalVoterCount(uint8)": "6760b1c0",
					"proposals(uint8)": "84acf0f5",
					"vote(uint8)": "b3f98adc"
				}
			},
			"storageLayout": {
				"storage": [
					{
						"astId": 3,
						"contract": "submissions/Zora/Day15GasEfficientVoting.sol:GasEfficientVoting",
						"label": "proposalCount",
						"offset": 0,
						"slot": "0",
						"type": "t_uint8"
					},
					{
						"astId": 19,
						"contract": "submissions/Zora/Day15GasEfficientVoting.sol:GasEfficientVoting",
						"label": "proposals",
						"offset": 0,
						"slot": "1",
						"type": "t_mapping(t_uint8,t_struct(Proposal)14_storage)"
					},
					{
						"astId": 23,
						"contract": "submissions/Zora/Day15GasEfficientVoting.sol:GasEfficientVoting",
						"label": "voterRegistry",
						"offset": 0,
						"slot": "2",
						"type": "t_mapping(t_address,t_uint256)"
					},
					{
						"astId": 27,
						"contract": "submissions/Zora/Day15GasEfficientVoting.sol:GasEfficientVoting",
						"label": "proposalVoterCount",
						"offset": 0,
						"slot": "3",
						"type": "t_mapping(t_uint8,t_uint32)"
					}
				],
				"types": {
					"t_address": {
						"encoding": "inplace",
						"label": "address",
						"numberOfBytes": "20"
					},
					"t_bool": {
						"encoding": "inplace",
						"label": "bool",
						"numberOfBytes": "1"
					},
					"t_bytes32": {
						"encoding": "inplace",
						"label": "bytes32",
						"numberOfBytes": "32"
					},
					"t_mapping(t_address,t_uint256)": {
						"encoding": "mapping",
						"key": "t_address",
						"label": "mapping(address => uint256)",
						"numberOfBytes": "32",
						"value": "t_uint256"
					},
					"t_mapping(t_uint8,t_struct(Proposal)14_storage)": {
						"encoding": "mapping",
						"key": "t_uint8",
						"label": "mapping(uint8 => struct GasEfficientVoting.Proposal)",
						"numberOfBytes": "32",
						"value": "t_struct(Proposal)14_storage"
					},
					"t_mapping(t_uint8,t_uint32)": {
						"encoding": "mapping",
						"key": "t_uint8",
						"label": "mapping(uint8 => uint32)",
						"numberOfBytes": "32",
						"value": "t_uint32"
					},
					"t_struct(Proposal)14_storage": {
						"encoding": "inplace",
						"label": "struct GasEfficientVoting.Proposal",
						"members": [
							{
								"astId": 5,
								"contract": "submissions/Zora/Day15GasEfficientVoting.sol:GasEfficientVoting",
								"label": "name",
								"offset": 0,
								"slot": "0",
								"type": "t_bytes32"
							},
							{
								"astId": 7,
								"contract": "submissions/Zora/Day15GasEfficientVoting.sol:GasEfficientVoting",
								"label": "voteCount",
								"offset": 0,
								"slot": "1",
								"type": "t_uint32"
							},
							{
								"astId": 9,
								"contract": "submissions/Zora/Day15GasEfficientVoting.sol:GasEfficientVoting",
								"label": "startTime",
								"offset": 4,
								"slot": "1",
								"type": "t_uint32"
							},
							{
								"astId": 11,
								"contract": "submissions/Zora/Day15GasEfficientVoting.sol:GasEfficientVoting",
								"label": "endTime",
								"offset": 8,
								"slot": "1",
								"type": "t_uint32"
							},
							{
								"astId": 13,
								"contract": "submissions/Zora/Day15GasEfficientVoting.sol:GasEfficientVoting",
								"label": "excuted",
								"offset": 12,
								"slot": "1",
								"type": "t_bool"
							}
						],
						"numberOfBytes": "64"
					},
					"t_uint256": {
						"encoding": "inplace",
						"label": "uint256",
						"numberOfBytes": "32"
					},
					"t_uint32": {
						"encoding": "inplace",
						"label": "uint32",
						"numberOfBytes": "4"
					},
					"t_uint8": {
						"encoding": "inplace",
						"label": "uint8",
						"numberOfBytes": "1"
					}
				}
			},
			"userdoc": {
				"kind": "user",
				"methods": {},
				"version": 1
			}
		}
	}
}