{
	"submissions/Zora/Day7SmipleIOUApp.sol": {
		"SimleIOU": {
			"abi": [
				{
					"inputs": [],
					"stateMutability": "nonpayable",
					"type": "constructor"
				},
				{
					"inputs": [
						{
							"internalType": "address",
							"name": "_friend",
							"type": "address"
						}
					],
					"name": "addFriend",
					"outputs": [],
					"stateMutability": "nonpayable",
					"type": "function"
				},
				{
					"inputs": [
						{
							"internalType": "address",
							"name": "",
							"type": "address"
						}
					],
					"name": "balances",
					"outputs": [
						{
							"internalType": "uint256",
							"name": "",
							"type": "uint256"
						}
					],
					"stateMutability": "view",
					"type": "function"
				},
				{
					"inputs": [],
					"name": "checkBalance",
					"outputs": [
						{
							"internalType": "uint256",
							"name": "",
							"type": "uint256"
						}
					],
					"stateMutability": "view",
					"type": "function"
				},
				{
					"inputs": [
						{
							"internalType": "address",
							"name": "",
							"type": "address"
						},
						{
							"internalType": "address",
							"name": "",
							"type": "address"
						}
					],
					"name": "debts",
					"outputs": [
						{
							"internalType": "uint256",
							"name": "",
							"type": "uint256"
						}
					],
					"stateMutability": "view",
					"type": "function"
				},
				{
					"inputs": [],
					"name": "depositIntoWallet",
					"outputs": [],
					"stateMutability": "payable",
					"type": "function"
				},
				{
					"inputs": [
						{
							"internalType": "uint256",
							"name": "",
							"type": "uint256"
						}
					],
					"name": "friendList",
					"outputs": [
						{
							"internalType": "address",
							"name": "",
							"type": "address"
						}
					],
					"stateMutability": "view",
					"type": "function"
				},
				{
					"inputs": [],
					"name": "owner",
					"outputs": [
						{
							"internalType": "address",
							"name": "",
							"type": "address"
						}
					],
					"stateMutability": "view",
					"type": "function"
				},
				{
					"inputs": [
						{
							"internalType": "address",
							"name": "_creditor",
							"type": "address"
						},
						{
							"internalType": "uint256",
							"name": "_amount",
							"type": "uint256"
						}
					],
					"name": "payFromWallet",
					"outputs": [],
					"stateMutability": "nonpayable",
					"type": "function"
				},
				{
					"inputs": [
						{
							"internalType": "address",
							"name": "_debtor",
							"type": "address"
						},
						{
							"internalType": "uint256",
							"name": "_amount",
							"type": "uint256"
						}
					],
					"name": "recordDebt",
					"outputs": [],
					"stateMutability": "nonpayable",
					"type": "function"
				},
				{
					"inputs": [
						{
							"internalType": "address",
							"name": "",
							"type": "address"
						}
					],
					"name": "registeredFriends",
					"outputs": [
						{
							"internalType": "bool",
							"name": "",
							"type": "bool"
						}
					],
					"stateMutability": "view",
					"type": "function"
				},
				{
					"inputs": [
						{
							"internalType": "address payable",
							"name": "_to",
							"type": "address"
						},
						{
							"internalType": "uint256",
							"name": "_amount",
							"type": "uint256"
						}
					],
					"name": "transferEther",
					"outputs": [],
					"stateMutability": "nonpayable",
					"type": "function"
				},
				{
					"inputs": [
						{
							"internalType": "address payable",
							"name": "_to",
							"type": "address"
						},
						{
							"internalType": "uint256",
							"name": "_amount",
							"type": "uint256"
						}
					],
					"name": "transferEtherViaCall",
					"outputs": [],
					"stateMutability": "nonpayable",
					"type": "function"
				},
				{
					"inputs": [
						{
							"internalType": "uint256",
							"name": "_amount",
							"type": "uint256"
						}
					],
					"name": "withdraw",
					"outputs": [],
					"stateMutability": "nonpayable",
					"type": "function"
				}
			],
			"devdoc": {
				"kind": "dev",
				"methods": {},
				"version": 1
			},
			"evm": {
				"assembly": "    /* \"submissions/Zora/Day7SmipleIOUApp.sol\":60:3441  contract SimleIOU{... */\n  mstore(0x40, 0x80)\n    /* \"submissions/Zora/Day7SmipleIOUApp.sol\":330:465  constructor(){... */\n  callvalue\n  dup1\n  iszero\n  tag_1\n  jumpi\n  revert(0x00, 0x00)\ntag_1:\n  pop\n    /* \"submissions/Zora/Day7SmipleIOUApp.sol\":362:372  msg.sender */\n  caller\n    /* \"submissions/Zora/Day7SmipleIOUApp.sol\":354:359  owner */\n  0x00\n  0x00\n    /* \"submissions/Zora/Day7SmipleIOUApp.sol\":354:372  owner = msg.sender */\n  0x0100\n  exp\n  dup2\n  sload\n  dup2\n  0xffffffffffffffffffffffffffffffffffffffff\n  mul\n  not\n  and\n  swap1\n  dup4\n  0xffffffffffffffffffffffffffffffffffffffff\n  and\n  mul\n  or\n  swap1\n  sstore\n  pop\n    /* \"submissions/Zora/Day7SmipleIOUApp.sol\":415:419  true */\n  0x01\n    /* \"submissions/Zora/Day7SmipleIOUApp.sol\":383:400  registeredFriends */\n  dup1\n    /* \"submissions/Zora/Day7SmipleIOUApp.sol\":383:412  registeredFriends[msg.sender] */\n  0x00\n    /* \"submissions/Zora/Day7SmipleIOUApp.sol\":401:411  msg.sender */\n  caller\n    /* \"submissions/Zora/Day7SmipleIOUApp.sol\":383:412  registeredFriends[msg.sender] */\n  0xffffffffffffffffffffffffffffffffffffffff\n  and\n  0xffffffffffffffffffffffffffffffffffffffff\n  and\n  dup2\n  mstore\n  0x20\n  add\n  swap1\n  dup2\n  mstore\n  0x20\n  add\n  0x00\n  keccak256\n  0x00\n    /* \"submissions/Zora/Day7SmipleIOUApp.sol\":383:419  registeredFriends[msg.sender] = true */\n  0x0100\n  exp\n  dup2\n  sload\n  dup2\n  0xff\n  mul\n  not\n  and\n  swap1\n  dup4\n  iszero\n  iszero\n  mul\n  or\n  swap1\n  sstore\n  pop\n    /* \"submissions/Zora/Day7SmipleIOUApp.sol\":430:440  friendList */\n  0x02\n    /* \"submissions/Zora/Day7SmipleIOUApp.sol\":446:456  msg.sender */\n  caller\n    /* \"submissions/Zora/Day7SmipleIOUApp.sol\":430:457  friendList.push(msg.sender) */\n  swap1\n  dup1\n  0x01\n  dup2\n  sload\n  add\n  dup1\n  dup3\n  sstore\n  dup1\n  swap2\n  pop\n  pop\n  0x01\n  swap1\n  sub\n  swap1\n  0x00\n  mstore\n  keccak256(0x00, 0x20)\n  add\n  0x00\n  swap1\n  swap2\n  swap1\n  swap2\n  swap1\n  swap2\n  0x0100\n  exp\n  dup2\n  sload\n  dup2\n  0xffffffffffffffffffffffffffffffffffffffff\n  mul\n  not\n  and\n  swap1\n  dup4\n  0xffffffffffffffffffffffffffffffffffffffff\n  and\n  mul\n  or\n  swap1\n  sstore\n  pop\n    /* \"submissions/Zora/Day7SmipleIOUApp.sol\":60:3441  contract SimleIOU{... */\n  dataSize(sub_0)\n  dup1\n  dataOffset(sub_0)\n  0x00\n  codecopy\n  0x00\n  return\nstop\n\nsub_0: assembly {\n        /* \"submissions/Zora/Day7SmipleIOUApp.sol\":60:3441  contract SimleIOU{... */\n      mstore(0x40, 0x80)\n      jumpi(tag_1, lt(calldatasize, 0x04))\n      shr(0xe0, calldataload(0x00))\n      dup1\n      0xa49e225a\n      gt\n      tag_15\n      jumpi\n      dup1\n      0xd6081fff\n      gt\n      tag_16\n      jumpi\n      dup1\n      0xd6081fff\n      eq\n      tag_11\n      jumpi\n      dup1\n      0xd7a1cfe1\n      eq\n      tag_12\n      jumpi\n      dup1\n      0xe4860841\n      eq\n      tag_13\n      jumpi\n      dup1\n      0xfa74542d\n      eq\n      tag_14\n      jumpi\n      jump(tag_1)\n    tag_16:\n      dup1\n      0xa49e225a\n      eq\n      tag_8\n      jumpi\n      dup1\n      0xc71daccb\n      eq\n      tag_9\n      jumpi\n      dup1\n      0xcafe82cf\n      eq\n      tag_10\n      jumpi\n      jump(tag_1)\n    tag_15:\n      dup1\n      0x05b1137b\n      eq\n      tag_2\n      jumpi\n      dup1\n      0x21668a01\n      eq\n      tag_3\n      jumpi\n      dup1\n      0x27e235e3\n      eq\n      tag_4\n      jumpi\n      dup1\n      0x2e1a7d4d\n      eq\n      tag_5\n      jumpi\n      dup1\n      0x4ac1c33d\n      eq\n      tag_6\n      jumpi\n      dup1\n      0x8da5cb5b\n      eq\n      tag_7\n      jumpi\n    tag_1:\n      revert(0x00, 0x00)\n        /* \"submissions/Zora/Day7SmipleIOUApp.sol\":2106:2506  function transferEther(address payable _to, uint256 _amount) public onlyRegistered{... */\n    tag_2:\n      callvalue\n      dup1\n      iszero\n      tag_17\n      jumpi\n      revert(0x00, 0x00)\n    tag_17:\n      pop\n      tag_18\n      0x04\n      dup1\n      calldatasize\n      sub\n      dup2\n      add\n      swap1\n      tag_19\n      swap2\n      swap1\n      tag_20\n      jump\t// in\n    tag_19:\n      tag_21\n      jump\t// in\n    tag_18:\n      stop\n        /* \"submissions/Zora/Day7SmipleIOUApp.sol\":169:196  address[] public friendList */\n    tag_3:\n      callvalue\n      dup1\n      iszero\n      tag_22\n      jumpi\n      revert(0x00, 0x00)\n    tag_22:\n      pop\n      tag_23\n      0x04\n      dup1\n      calldatasize\n      sub\n      dup2\n      add\n      swap1\n      tag_24\n      swap2\n      swap1\n      tag_25\n      jump\t// in\n    tag_24:\n      tag_26\n      jump\t// in\n    tag_23:\n      mload(0x40)\n      tag_27\n      swap2\n      swap1\n      tag_28\n      jump\t// in\n    tag_27:\n      mload(0x40)\n      dup1\n      swap2\n      sub\n      swap1\n      return\n        /* \"submissions/Zora/Day7SmipleIOUApp.sol\":205:248  mapping(address => uint256) public balances */\n    tag_4:\n      callvalue\n      dup1\n      iszero\n      tag_29\n      jumpi\n      revert(0x00, 0x00)\n    tag_29:\n      pop\n      tag_30\n      0x04\n      dup1\n      calldatasize\n      sub\n      dup2\n      add\n      swap1\n      tag_31\n      swap2\n      swap1\n      tag_32\n      jump\t// in\n    tag_31:\n      tag_33\n      jump\t// in\n    tag_30:\n      mload(0x40)\n      tag_34\n      swap2\n      swap1\n      tag_35\n      jump\t// in\n    tag_34:\n      mload(0x40)\n      dup1\n      swap2\n      sub\n      swap1\n      return\n        /* \"submissions/Zora/Day7SmipleIOUApp.sol\":3005:3312  function withdraw(uint256 _amount) public onlyRegistered{... */\n    tag_5:\n      callvalue\n      dup1\n      iszero\n      tag_36\n      jumpi\n      revert(0x00, 0x00)\n    tag_36:\n      pop\n      tag_37\n      0x04\n      dup1\n      calldatasize\n      sub\n      dup2\n      add\n      swap1\n      tag_38\n      swap2\n      swap1\n      tag_25\n      jump\t// in\n    tag_38:\n      tag_39\n      jump\t// in\n    tag_37:\n      stop\n        /* \"submissions/Zora/Day7SmipleIOUApp.sol\":261:321  mapping(address => mapping(address => uint256)) public debts */\n    tag_6:\n      callvalue\n      dup1\n      iszero\n      tag_40\n      jumpi\n      revert(0x00, 0x00)\n    tag_40:\n      pop\n      tag_41\n      0x04\n      dup1\n      calldatasize\n      sub\n      dup2\n      add\n      swap1\n      tag_42\n      swap2\n      swap1\n      tag_43\n      jump\t// in\n    tag_42:\n      tag_44\n      jump\t// in\n    tag_41:\n      mload(0x40)\n      tag_45\n      swap2\n      swap1\n      tag_35\n      jump\t// in\n    tag_45:\n      mload(0x40)\n      dup1\n      swap2\n      sub\n      swap1\n      return\n        /* \"submissions/Zora/Day7SmipleIOUApp.sol\":84:104  address public owner */\n    tag_7:\n      callvalue\n      dup1\n      iszero\n      tag_46\n      jumpi\n      revert(0x00, 0x00)\n    tag_46:\n      pop\n      tag_47\n      tag_48\n      jump\t// in\n    tag_47:\n      mload(0x40)\n      tag_49\n      swap2\n      swap1\n      tag_28\n      jump\t// in\n    tag_49:\n      mload(0x40)\n      dup1\n      swap2\n      sub\n      swap1\n      return\n        /* \"submissions/Zora/Day7SmipleIOUApp.sol\":1515:2098  function payFromWallet(address _creditor, uint256 _amount) public onlyRegistered{... */\n    tag_8:\n      callvalue\n      dup1\n      iszero\n      tag_50\n      jumpi\n      revert(0x00, 0x00)\n    tag_50:\n      pop\n      tag_51\n      0x04\n      dup1\n      calldatasize\n      sub\n      dup2\n      add\n      swap1\n      tag_52\n      swap2\n      swap1\n      tag_53\n      jump\t// in\n    tag_52:\n      tag_54\n      jump\t// in\n    tag_51:\n      stop\n        /* \"submissions/Zora/Day7SmipleIOUApp.sol\":3320:3434  function checkBalance() public view onlyRegistered returns (uint256){... */\n    tag_9:\n      callvalue\n      dup1\n      iszero\n      tag_55\n      jumpi\n      revert(0x00, 0x00)\n    tag_55:\n      pop\n      tag_56\n      tag_57\n      jump\t// in\n    tag_56:\n      mload(0x40)\n      tag_58\n      swap2\n      swap1\n      tag_35\n      jump\t// in\n    tag_58:\n      mload(0x40)\n      dup1\n      swap2\n      sub\n      swap1\n      return\n        /* \"submissions/Zora/Day7SmipleIOUApp.sol\":1011:1171  function depositIntoWallet() public payable onlyRegistered{... */\n    tag_10:\n      tag_59\n      tag_60\n      jump\t// in\n    tag_59:\n      stop\n        /* \"submissions/Zora/Day7SmipleIOUApp.sol\":2514:2997  function transferEtherViaCall(address payable _to, uint256 _amount) public onlyRegistered{... */\n    tag_11:\n      callvalue\n      dup1\n      iszero\n      tag_61\n      jumpi\n      revert(0x00, 0x00)\n    tag_61:\n      pop\n      tag_62\n      0x04\n      dup1\n      calldatasize\n      sub\n      dup2\n      add\n      swap1\n      tag_63\n      swap2\n      swap1\n      tag_20\n      jump\t// in\n    tag_63:\n      tag_64\n      jump\t// in\n    tag_62:\n      stop\n        /* \"submissions/Zora/Day7SmipleIOUApp.sol\":726:1003  function addFriend(address _friend) public onlyOwner{... */\n    tag_12:\n      callvalue\n      dup1\n      iszero\n      tag_65\n      jumpi\n      revert(0x00, 0x00)\n    tag_65:\n      pop\n      tag_66\n      0x04\n      dup1\n      calldatasize\n      sub\n      dup2\n      add\n      swap1\n      tag_67\n      swap2\n      swap1\n      tag_32\n      jump\t// in\n    tag_67:\n      tag_68\n      jump\t// in\n    tag_66:\n      stop\n        /* \"submissions/Zora/Day7SmipleIOUApp.sol\":113:162  mapping(address => bool) public registeredFriends */\n    tag_13:\n      callvalue\n      dup1\n      iszero\n      tag_69\n      jumpi\n      revert(0x00, 0x00)\n    tag_69:\n      pop\n      tag_70\n      0x04\n      dup1\n      calldatasize\n      sub\n      dup2\n      add\n      swap1\n      tag_71\n      swap2\n      swap1\n      tag_32\n      jump\t// in\n    tag_71:\n      tag_72\n      jump\t// in\n    tag_70:\n      mload(0x40)\n      tag_73\n      swap2\n      swap1\n      tag_74\n      jump\t// in\n    tag_73:\n      mload(0x40)\n      dup1\n      swap2\n      sub\n      swap1\n      return\n        /* \"submissions/Zora/Day7SmipleIOUApp.sol\":1179:1507  function recordDebt(address _debtor, uint256 _amount) public onlyRegistered{... */\n    tag_14:\n      callvalue\n      dup1\n      iszero\n      tag_75\n      jumpi\n      revert(0x00, 0x00)\n    tag_75:\n      pop\n      tag_76\n      0x04\n      dup1\n      calldatasize\n      sub\n      dup2\n      add\n      swap1\n      tag_77\n      swap2\n      swap1\n      tag_53\n      jump\t// in\n    tag_77:\n      tag_78\n      jump\t// in\n    tag_76:\n      stop\n        /* \"submissions/Zora/Day7SmipleIOUApp.sol\":2106:2506  function transferEther(address payable _to, uint256 _amount) public onlyRegistered{... */\n    tag_21:\n        /* \"submissions/Zora/Day7SmipleIOUApp.sol\":642:659  registeredFriends */\n      0x01\n        /* \"submissions/Zora/Day7SmipleIOUApp.sol\":642:671  registeredFriends[msg.sender] */\n      0x00\n        /* \"submissions/Zora/Day7SmipleIOUApp.sol\":660:670  msg.sender */\n      caller\n        /* \"submissions/Zora/Day7SmipleIOUApp.sol\":642:671  registeredFriends[msg.sender] */\n      0xffffffffffffffffffffffffffffffffffffffff\n      and\n      0xffffffffffffffffffffffffffffffffffffffff\n      and\n      dup2\n      mstore\n      0x20\n      add\n      swap1\n      dup2\n      mstore\n      0x20\n      add\n      0x00\n      keccak256\n      0x00\n      swap1\n      sload\n      swap1\n      0x0100\n      exp\n      swap1\n      div\n      0xff\n      and\n        /* \"submissions/Zora/Day7SmipleIOUApp.sol\":634:698  require(registeredFriends[msg.sender], \"You are not registered\") */\n      tag_80\n      jumpi\n      mload(0x40)\n      0x08c379a000000000000000000000000000000000000000000000000000000000\n      dup2\n      mstore\n      0x04\n      add\n      tag_81\n      swap1\n      tag_82\n      jump\t// in\n    tag_81:\n      mload(0x40)\n      dup1\n      swap2\n      sub\n      swap1\n      revert\n    tag_80:\n        /* \"submissions/Zora/Day7SmipleIOUApp.sol\":2222:2223  0 */\n      0x00\n        /* \"submissions/Zora/Day7SmipleIOUApp.sol\":2207:2224  _to != address(0) */\n      0xffffffffffffffffffffffffffffffffffffffff\n      and\n        /* \"submissions/Zora/Day7SmipleIOUApp.sol\":2207:2210  _to */\n      dup3\n        /* \"submissions/Zora/Day7SmipleIOUApp.sol\":2207:2224  _to != address(0) */\n      0xffffffffffffffffffffffffffffffffffffffff\n      and\n      sub\n        /* \"submissions/Zora/Day7SmipleIOUApp.sol\":2199:2244  require(_to != address(0), \"Invalid address\") */\n      tag_84\n      jumpi\n      mload(0x40)\n      0x08c379a000000000000000000000000000000000000000000000000000000000\n      dup2\n      mstore\n      0x04\n      add\n      tag_85\n      swap1\n      tag_86\n      jump\t// in\n    tag_85:\n      mload(0x40)\n      dup1\n      swap2\n      sub\n      swap1\n      revert\n    tag_84:\n        /* \"submissions/Zora/Day7SmipleIOUApp.sol\":2263:2280  registeredFriends */\n      0x01\n        /* \"submissions/Zora/Day7SmipleIOUApp.sol\":2263:2285  registeredFriends[_to] */\n      0x00\n        /* \"submissions/Zora/Day7SmipleIOUApp.sol\":2281:2284  _to */\n      dup4\n        /* \"submissions/Zora/Day7SmipleIOUApp.sol\":2263:2285  registeredFriends[_to] */\n      0xffffffffffffffffffffffffffffffffffffffff\n      and\n      0xffffffffffffffffffffffffffffffffffffffff\n      and\n      dup2\n      mstore\n      0x20\n      add\n      swap1\n      dup2\n      mstore\n      0x20\n      add\n      0x00\n      keccak256\n      0x00\n      swap1\n      sload\n      swap1\n      0x0100\n      exp\n      swap1\n      div\n      0xff\n      and\n        /* \"submissions/Zora/Day7SmipleIOUApp.sol\":2255:2314  require(registeredFriends[_to], \"Recipient not registered\") */\n      tag_87\n      jumpi\n      mload(0x40)\n      0x08c379a000000000000000000000000000000000000000000000000000000000\n      dup2\n      mstore\n      0x04\n      add\n      tag_88\n      swap1\n      tag_89\n      jump\t// in\n    tag_88:\n      mload(0x40)\n      dup1\n      swap2\n      sub\n      swap1\n      revert\n    tag_87:\n        /* \"submissions/Zora/Day7SmipleIOUApp.sol\":2357:2364  _amount */\n      dup1\n        /* \"submissions/Zora/Day7SmipleIOUApp.sol\":2333:2341  balances */\n      0x03\n        /* \"submissions/Zora/Day7SmipleIOUApp.sol\":2333:2353  balances[msg.sender] */\n      0x00\n        /* \"submissions/Zora/Day7SmipleIOUApp.sol\":2342:2352  msg.sender */\n      caller\n        /* \"submissions/Zora/Day7SmipleIOUApp.sol\":2333:2353  balances[msg.sender] */\n      0xffffffffffffffffffffffffffffffffffffffff\n      and\n      0xffffffffffffffffffffffffffffffffffffffff\n      and\n      dup2\n      mstore\n      0x20\n      add\n      swap1\n      dup2\n      mstore\n      0x20\n      add\n      0x00\n      keccak256\n      sload\n        /* \"submissions/Zora/Day7SmipleIOUApp.sol\":2333:2364  balances[msg.sender] >= _amount */\n      lt\n      iszero\n        /* \"submissions/Zora/Day7SmipleIOUApp.sol\":2325:2389  require(balances[msg.sender] >= _amount, \"Insufficient balance\") */\n      tag_90\n      jumpi\n      mload(0x40)\n      0x08c379a000000000000000000000000000000000000000000000000000000000\n      dup2\n      mstore\n      0x04\n      add\n      tag_91\n      swap1\n      tag_92\n      jump\t// in\n    tag_91:\n      mload(0x40)\n      dup1\n      swap2\n      sub\n      swap1\n      revert\n    tag_90:\n        /* \"submissions/Zora/Day7SmipleIOUApp.sol\":2424:2431  _amount */\n      dup1\n        /* \"submissions/Zora/Day7SmipleIOUApp.sol\":2400:2408  balances */\n      0x03\n        /* \"submissions/Zora/Day7SmipleIOUApp.sol\":2400:2420  balances[msg.sender] */\n      0x00\n        /* \"submissions/Zora/Day7SmipleIOUApp.sol\":2409:2419  msg.sender */\n      caller\n        /* \"submissions/Zora/Day7SmipleIOUApp.sol\":2400:2420  balances[msg.sender] */\n      0xffffffffffffffffffffffffffffffffffffffff\n      and\n      0xffffffffffffffffffffffffffffffffffffffff\n      and\n      dup2\n      mstore\n      0x20\n      add\n      swap1\n      dup2\n      mstore\n      0x20\n      add\n      0x00\n      keccak256\n      0x00\n        /* \"submissions/Zora/Day7SmipleIOUApp.sol\":2400:2431  balances[msg.sender] -= _amount */\n      dup3\n      dup3\n      sload\n      tag_93\n      swap2\n      swap1\n      tag_94\n      jump\t// in\n    tag_93:\n      swap3\n      pop\n      pop\n      dup2\n      swap1\n      sstore\n      pop\n        /* \"submissions/Zora/Day7SmipleIOUApp.sol\":2442:2445  _to */\n      dup2\n        /* \"submissions/Zora/Day7SmipleIOUApp.sol\":2442:2454  _to.transfer */\n      0xffffffffffffffffffffffffffffffffffffffff\n      and\n        /* \"submissions/Zora/Day7SmipleIOUApp.sol\":2442:2463  _to.transfer(_amount) */\n      0x08fc\n        /* \"submissions/Zora/Day7SmipleIOUApp.sol\":2455:2462  _amount */\n      dup3\n        /* \"submissions/Zora/Day7SmipleIOUApp.sol\":2442:2463  _to.transfer(_amount) */\n      swap1\n      dup2\n      iszero\n      mul\n      swap1\n      mload(0x40)\n      0x00\n      mload(0x40)\n      dup1\n      dup4\n      sub\n      dup2\n      dup6\n      dup9\n      dup9\n      call\n      swap4\n      pop\n      pop\n      pop\n      pop\n      iszero\n      dup1\n      iszero\n      tag_96\n      jumpi\n      returndatacopy(0x00, 0x00, returndatasize)\n      revert(0x00, returndatasize)\n    tag_96:\n      pop\n        /* \"submissions/Zora/Day7SmipleIOUApp.sol\":2491:2498  _amount */\n      dup1\n        /* \"submissions/Zora/Day7SmipleIOUApp.sol\":2474:2482  balances */\n      0x03\n        /* \"submissions/Zora/Day7SmipleIOUApp.sol\":2474:2487  balances[_to] */\n      0x00\n        /* \"submissions/Zora/Day7SmipleIOUApp.sol\":2483:2486  _to */\n      dup5\n        /* \"submissions/Zora/Day7SmipleIOUApp.sol\":2474:2487  balances[_to] */\n      0xffffffffffffffffffffffffffffffffffffffff\n      and\n      0xffffffffffffffffffffffffffffffffffffffff\n      and\n      dup2\n      mstore\n      0x20\n      add\n      swap1\n      dup2\n      mstore\n      0x20\n      add\n      0x00\n      keccak256\n      0x00\n        /* \"submissions/Zora/Day7SmipleIOUApp.sol\":2474:2498  balances[_to] += _amount */\n      dup3\n      dup3\n      sload\n      tag_97\n      swap2\n      swap1\n      tag_98\n      jump\t// in\n    tag_97:\n      swap3\n      pop\n      pop\n      dup2\n      swap1\n      sstore\n      pop\n        /* \"submissions/Zora/Day7SmipleIOUApp.sol\":2106:2506  function transferEther(address payable _to, uint256 _amount) public onlyRegistered{... */\n      pop\n      pop\n      jump\t// out\n        /* \"submissions/Zora/Day7SmipleIOUApp.sol\":169:196  address[] public friendList */\n    tag_26:\n      0x02\n      dup2\n      dup2\n      sload\n      dup2\n      lt\n      tag_99\n      jumpi\n      0x00\n      dup1\n      revert\n    tag_99:\n      swap1\n      0x00\n      mstore\n      keccak256(0x00, 0x20)\n      add\n      0x00\n      swap2\n      pop\n      sload\n      swap1\n      0x0100\n      exp\n      swap1\n      div\n      0xffffffffffffffffffffffffffffffffffffffff\n      and\n      dup2\n      jump\t// out\n        /* \"submissions/Zora/Day7SmipleIOUApp.sol\":205:248  mapping(address => uint256) public balances */\n    tag_33:\n      mstore(0x20, 0x03)\n      dup1\n      0x00\n      mstore\n      keccak256(0x00, 0x40)\n      0x00\n      swap2\n      pop\n      swap1\n      pop\n      sload\n      dup2\n      jump\t// out\n        /* \"submissions/Zora/Day7SmipleIOUApp.sol\":3005:3312  function withdraw(uint256 _amount) public onlyRegistered{... */\n    tag_39:\n        /* \"submissions/Zora/Day7SmipleIOUApp.sol\":642:659  registeredFriends */\n      0x01\n        /* \"submissions/Zora/Day7SmipleIOUApp.sol\":642:671  registeredFriends[msg.sender] */\n      0x00\n        /* \"submissions/Zora/Day7SmipleIOUApp.sol\":660:670  msg.sender */\n      caller\n        /* \"submissions/Zora/Day7SmipleIOUApp.sol\":642:671  registeredFriends[msg.sender] */\n      0xffffffffffffffffffffffffffffffffffffffff\n      and\n      0xffffffffffffffffffffffffffffffffffffffff\n      and\n      dup2\n      mstore\n      0x20\n      add\n      swap1\n      dup2\n      mstore\n      0x20\n      add\n      0x00\n      keccak256\n      0x00\n      swap1\n      sload\n      swap1\n      0x0100\n      exp\n      swap1\n      div\n      0xff\n      and\n        /* \"submissions/Zora/Day7SmipleIOUApp.sol\":634:698  require(registeredFriends[msg.sender], \"You are not registered\") */\n      tag_102\n      jumpi\n      mload(0x40)\n      0x08c379a000000000000000000000000000000000000000000000000000000000\n      dup2\n      mstore\n      0x04\n      add\n      tag_103\n      swap1\n      tag_82\n      jump\t// in\n    tag_103:\n      mload(0x40)\n      dup1\n      swap2\n      sub\n      swap1\n      revert\n    tag_102:\n        /* \"submissions/Zora/Day7SmipleIOUApp.sol\":3104:3111  _amount */\n      dup1\n        /* \"submissions/Zora/Day7SmipleIOUApp.sol\":3080:3088  balances */\n      0x03\n        /* \"submissions/Zora/Day7SmipleIOUApp.sol\":3080:3100  balances[msg.sender] */\n      0x00\n        /* \"submissions/Zora/Day7SmipleIOUApp.sol\":3089:3099  msg.sender */\n      caller\n        /* \"submissions/Zora/Day7SmipleIOUApp.sol\":3080:3100  balances[msg.sender] */\n      0xffffffffffffffffffffffffffffffffffffffff\n      and\n      0xffffffffffffffffffffffffffffffffffffffff\n      and\n      dup2\n      mstore\n      0x20\n      add\n      swap1\n      dup2\n      mstore\n      0x20\n      add\n      0x00\n      keccak256\n      sload\n        /* \"submissions/Zora/Day7SmipleIOUApp.sol\":3080:3111  balances[msg.sender] >= _amount */\n      lt\n      iszero\n        /* \"submissions/Zora/Day7SmipleIOUApp.sol\":3072:3136  require(balances[msg.sender] >= _amount, \"Insufficient balance\") */\n      tag_105\n      jumpi\n      mload(0x40)\n      0x08c379a000000000000000000000000000000000000000000000000000000000\n      dup2\n      mstore\n      0x04\n      add\n      tag_106\n      swap1\n      tag_92\n      jump\t// in\n    tag_106:\n      mload(0x40)\n      dup1\n      swap2\n      sub\n      swap1\n      revert\n    tag_105:\n        /* \"submissions/Zora/Day7SmipleIOUApp.sol\":3173:3180  _amount */\n      dup1\n        /* \"submissions/Zora/Day7SmipleIOUApp.sol\":3149:3157  balances */\n      0x03\n        /* \"submissions/Zora/Day7SmipleIOUApp.sol\":3149:3169  balances[msg.sender] */\n      0x00\n        /* \"submissions/Zora/Day7SmipleIOUApp.sol\":3158:3168  msg.sender */\n      caller\n        /* \"submissions/Zora/Day7SmipleIOUApp.sol\":3149:3169  balances[msg.sender] */\n      0xffffffffffffffffffffffffffffffffffffffff\n      and\n      0xffffffffffffffffffffffffffffffffffffffff\n      and\n      dup2\n      mstore\n      0x20\n      add\n      swap1\n      dup2\n      mstore\n      0x20\n      add\n      0x00\n      keccak256\n      0x00\n        /* \"submissions/Zora/Day7SmipleIOUApp.sol\":3149:3180  balances[msg.sender] -= _amount */\n      dup3\n      dup3\n      sload\n      tag_107\n      swap2\n      swap1\n      tag_94\n      jump\t// in\n    tag_107:\n      swap3\n      pop\n      pop\n      dup2\n      swap1\n      sstore\n      pop\n        /* \"submissions/Zora/Day7SmipleIOUApp.sol\":3194:3206  bool success */\n      0x00\n        /* \"submissions/Zora/Day7SmipleIOUApp.sol\":3220:3230  msg.sender */\n      caller\n        /* \"submissions/Zora/Day7SmipleIOUApp.sol\":3212:3236  payable(msg.sender).call */\n      0xffffffffffffffffffffffffffffffffffffffff\n      and\n        /* \"submissions/Zora/Day7SmipleIOUApp.sol\":3244:3251  _amount */\n      dup3\n        /* \"submissions/Zora/Day7SmipleIOUApp.sol\":3212:3256  payable(msg.sender).call{value: _amount}(\"\") */\n      mload(0x40)\n      tag_108\n      swap1\n      tag_109\n      jump\t// in\n    tag_108:\n      0x00\n      mload(0x40)\n      dup1\n      dup4\n      sub\n      dup2\n      dup6\n      dup8\n      gas\n      call\n      swap3\n      pop\n      pop\n      pop\n      returndatasize\n      dup1\n      0x00\n      dup2\n      eq\n      tag_112\n      jumpi\n      mload(0x40)\n      swap2\n      pop\n      and(add(returndatasize, 0x3f), not(0x1f))\n      dup3\n      add\n      0x40\n      mstore\n      returndatasize\n      dup3\n      mstore\n      returndatasize\n      0x00\n      0x20\n      dup5\n      add\n      returndatacopy\n      jump(tag_111)\n    tag_112:\n      0x60\n      swap2\n      pop\n    tag_111:\n      pop\n        /* \"submissions/Zora/Day7SmipleIOUApp.sol\":3193:3256  (bool success, ) = payable(msg.sender).call{value: _amount}(\"\") */\n      pop\n      swap1\n      pop\n        /* \"submissions/Zora/Day7SmipleIOUApp.sol\":3275:3282  success */\n      dup1\n        /* \"submissions/Zora/Day7SmipleIOUApp.sol\":3267:3304  require(success, \"Withdrawal failed\") */\n      tag_113\n      jumpi\n      mload(0x40)\n      0x08c379a000000000000000000000000000000000000000000000000000000000\n      dup2\n      mstore\n      0x04\n      add\n      tag_114\n      swap1\n      tag_115\n      jump\t// in\n    tag_114:\n      mload(0x40)\n      dup1\n      swap2\n      sub\n      swap1\n      revert\n    tag_113:\n        /* \"submissions/Zora/Day7SmipleIOUApp.sol\":3061:3312  {... */\n      pop\n        /* \"submissions/Zora/Day7SmipleIOUApp.sol\":3005:3312  function withdraw(uint256 _amount) public onlyRegistered{... */\n      pop\n      jump\t// out\n        /* \"submissions/Zora/Day7SmipleIOUApp.sol\":261:321  mapping(address => mapping(address => uint256)) public debts */\n    tag_44:\n      mstore(0x20, 0x04)\n      dup2\n      0x00\n      mstore\n      mstore(0x20, keccak256(0x00, 0x40))\n      dup1\n      0x00\n      mstore\n      keccak256(0x00, 0x40)\n      0x00\n      swap2\n      pop\n      swap2\n      pop\n      pop\n      sload\n      dup2\n      jump\t// out\n        /* \"submissions/Zora/Day7SmipleIOUApp.sol\":84:104  address public owner */\n    tag_48:\n      0x00\n      0x00\n      swap1\n      sload\n      swap1\n      0x0100\n      exp\n      swap1\n      div\n      0xffffffffffffffffffffffffffffffffffffffff\n      and\n      dup2\n      jump\t// out\n        /* \"submissions/Zora/Day7SmipleIOUApp.sol\":1515:2098  function payFromWallet(address _creditor, uint256 _amount) public onlyRegistered{... */\n    tag_54:\n        /* \"submissions/Zora/Day7SmipleIOUApp.sol\":642:659  registeredFriends */\n      0x01\n        /* \"submissions/Zora/Day7SmipleIOUApp.sol\":642:671  registeredFriends[msg.sender] */\n      0x00\n        /* \"submissions/Zora/Day7SmipleIOUApp.sol\":660:670  msg.sender */\n      caller\n        /* \"submissions/Zora/Day7SmipleIOUApp.sol\":642:671  registeredFriends[msg.sender] */\n      0xffffffffffffffffffffffffffffffffffffffff\n      and\n      0xffffffffffffffffffffffffffffffffffffffff\n      and\n      dup2\n      mstore\n      0x20\n      add\n      swap1\n      dup2\n      mstore\n      0x20\n      add\n      0x00\n      keccak256\n      0x00\n      swap1\n      sload\n      swap1\n      0x0100\n      exp\n      swap1\n      div\n      0xff\n      and\n        /* \"submissions/Zora/Day7SmipleIOUApp.sol\":634:698  require(registeredFriends[msg.sender], \"You are not registered\") */\n      tag_117\n      jumpi\n      mload(0x40)\n      0x08c379a000000000000000000000000000000000000000000000000000000000\n      dup2\n      mstore\n      0x04\n      add\n      tag_118\n      swap1\n      tag_82\n      jump\t// in\n    tag_118:\n      mload(0x40)\n      dup1\n      swap2\n      sub\n      swap1\n      revert\n    tag_117:\n        /* \"submissions/Zora/Day7SmipleIOUApp.sol\":1635:1636  0 */\n      0x00\n        /* \"submissions/Zora/Day7SmipleIOUApp.sol\":1614:1637  _creditor != address(0) */\n      0xffffffffffffffffffffffffffffffffffffffff\n      and\n        /* \"submissions/Zora/Day7SmipleIOUApp.sol\":1614:1623  _creditor */\n      dup3\n        /* \"submissions/Zora/Day7SmipleIOUApp.sol\":1614:1637  _creditor != address(0) */\n      0xffffffffffffffffffffffffffffffffffffffff\n      and\n      sub\n        /* \"submissions/Zora/Day7SmipleIOUApp.sol\":1606:1657  require(_creditor != address(0), \"Invalid address\") */\n      tag_120\n      jumpi\n      mload(0x40)\n      0x08c379a000000000000000000000000000000000000000000000000000000000\n      dup2\n      mstore\n      0x04\n      add\n      tag_121\n      swap1\n      tag_86\n      jump\t// in\n    tag_121:\n      mload(0x40)\n      dup1\n      swap2\n      sub\n      swap1\n      revert\n    tag_120:\n        /* \"submissions/Zora/Day7SmipleIOUApp.sol\":1676:1693  registeredFriends */\n      0x01\n        /* \"submissions/Zora/Day7SmipleIOUApp.sol\":1676:1704  registeredFriends[_creditor] */\n      0x00\n        /* \"submissions/Zora/Day7SmipleIOUApp.sol\":1694:1703  _creditor */\n      dup4\n        /* \"submissions/Zora/Day7SmipleIOUApp.sol\":1676:1704  registeredFriends[_creditor] */\n      0xffffffffffffffffffffffffffffffffffffffff\n      and\n      0xffffffffffffffffffffffffffffffffffffffff\n      and\n      dup2\n      mstore\n      0x20\n      add\n      swap1\n      dup2\n      mstore\n      0x20\n      add\n      0x00\n      keccak256\n      0x00\n      swap1\n      sload\n      swap1\n      0x0100\n      exp\n      swap1\n      div\n      0xff\n      and\n        /* \"submissions/Zora/Day7SmipleIOUApp.sol\":1668:1732  require(registeredFriends[_creditor], \"Creditor not registered\") */\n      tag_122\n      jumpi\n      mload(0x40)\n      0x08c379a000000000000000000000000000000000000000000000000000000000\n      dup2\n      mstore\n      0x04\n      add\n      tag_123\n      swap1\n      tag_124\n      jump\t// in\n    tag_123:\n      mload(0x40)\n      dup1\n      swap2\n      sub\n      swap1\n      revert\n    tag_122:\n        /* \"submissions/Zora/Day7SmipleIOUApp.sol\":1761:1762  0 */\n      0x00\n        /* \"submissions/Zora/Day7SmipleIOUApp.sol\":1751:1758  _amount */\n      dup2\n        /* \"submissions/Zora/Day7SmipleIOUApp.sol\":1751:1762  _amount > 0 */\n      gt\n        /* \"submissions/Zora/Day7SmipleIOUApp.sol\":1743:1796  require(_amount > 0, \"Amount must be greater than 0\") */\n      tag_125\n      jumpi\n      mload(0x40)\n      0x08c379a000000000000000000000000000000000000000000000000000000000\n      dup2\n      mstore\n      0x04\n      add\n      tag_126\n      swap1\n      tag_127\n      jump\t// in\n    tag_126:\n      mload(0x40)\n      dup1\n      swap2\n      sub\n      swap1\n      revert\n    tag_125:\n        /* \"submissions/Zora/Day7SmipleIOUApp.sol\":1847:1854  _amount */\n      dup1\n        /* \"submissions/Zora/Day7SmipleIOUApp.sol\":1815:1820  debts */\n      0x04\n        /* \"submissions/Zora/Day7SmipleIOUApp.sol\":1815:1832  debts[msg.sender] */\n      0x00\n        /* \"submissions/Zora/Day7SmipleIOUApp.sol\":1821:1831  msg.sender */\n      caller\n        /* \"submissions/Zora/Day7SmipleIOUApp.sol\":1815:1832  debts[msg.sender] */\n      0xffffffffffffffffffffffffffffffffffffffff\n      and\n      0xffffffffffffffffffffffffffffffffffffffff\n      and\n      dup2\n      mstore\n      0x20\n      add\n      swap1\n      dup2\n      mstore\n      0x20\n      add\n      0x00\n      keccak256\n        /* \"submissions/Zora/Day7SmipleIOUApp.sol\":1815:1843  debts[msg.sender][_creditor] */\n      0x00\n        /* \"submissions/Zora/Day7SmipleIOUApp.sol\":1833:1842  _creditor */\n      dup5\n        /* \"submissions/Zora/Day7SmipleIOUApp.sol\":1815:1843  debts[msg.sender][_creditor] */\n      0xffffffffffffffffffffffffffffffffffffffff\n      and\n      0xffffffffffffffffffffffffffffffffffffffff\n      and\n      dup2\n      mstore\n      0x20\n      add\n      swap1\n      dup2\n      mstore\n      0x20\n      add\n      0x00\n      keccak256\n      sload\n        /* \"submissions/Zora/Day7SmipleIOUApp.sol\":1815:1854  debts[msg.sender][_creditor] >= _amount */\n      lt\n      iszero\n        /* \"submissions/Zora/Day7SmipleIOUApp.sol\":1807:1880  require(debts[msg.sender][_creditor] >= _amount, \"Debt amount incorrect\") */\n      tag_128\n      jumpi\n      mload(0x40)\n      0x08c379a000000000000000000000000000000000000000000000000000000000\n      dup2\n      mstore\n      0x04\n      add\n      tag_129\n      swap1\n      tag_130\n      jump\t// in\n    tag_129:\n      mload(0x40)\n      dup1\n      swap2\n      sub\n      swap1\n      revert\n    tag_128:\n        /* \"submissions/Zora/Day7SmipleIOUApp.sol\":1923:1930  _amount */\n      dup1\n        /* \"submissions/Zora/Day7SmipleIOUApp.sol\":1899:1907  balances */\n      0x03\n        /* \"submissions/Zora/Day7SmipleIOUApp.sol\":1899:1919  balances[msg.sender] */\n      0x00\n        /* \"submissions/Zora/Day7SmipleIOUApp.sol\":1908:1918  msg.sender */\n      caller\n        /* \"submissions/Zora/Day7SmipleIOUApp.sol\":1899:1919  balances[msg.sender] */\n      0xffffffffffffffffffffffffffffffffffffffff\n      and\n      0xffffffffffffffffffffffffffffffffffffffff\n      and\n      dup2\n      mstore\n      0x20\n      add\n      swap1\n      dup2\n      mstore\n      0x20\n      add\n      0x00\n      keccak256\n      sload\n        /* \"submissions/Zora/Day7SmipleIOUApp.sol\":1899:1930  balances[msg.sender] >= _amount */\n      lt\n      iszero\n        /* \"submissions/Zora/Day7SmipleIOUApp.sol\":1891:1955  require(balances[msg.sender] >= _amount, \"Insufficient balance\") */\n      tag_131\n      jumpi\n      mload(0x40)\n      0x08c379a000000000000000000000000000000000000000000000000000000000\n      dup2\n      mstore\n      0x04\n      add\n      tag_132\n      swap1\n      tag_92\n      jump\t// in\n    tag_132:\n      mload(0x40)\n      dup1\n      swap2\n      sub\n      swap1\n      revert\n    tag_131:\n        /* \"submissions/Zora/Day7SmipleIOUApp.sol\":1992:1999  _amount */\n      dup1\n        /* \"submissions/Zora/Day7SmipleIOUApp.sol\":1968:1976  balances */\n      0x03\n        /* \"submissions/Zora/Day7SmipleIOUApp.sol\":1968:1988  balances[msg.sender] */\n      0x00\n        /* \"submissions/Zora/Day7SmipleIOUApp.sol\":1977:1987  msg.sender */\n      caller\n        /* \"submissions/Zora/Day7SmipleIOUApp.sol\":1968:1988  balances[msg.sender] */\n      0xffffffffffffffffffffffffffffffffffffffff\n      and\n      0xffffffffffffffffffffffffffffffffffffffff\n      and\n      dup2\n      mstore\n      0x20\n      add\n      swap1\n      dup2\n      mstore\n      0x20\n      add\n      0x00\n      keccak256\n      0x00\n        /* \"submissions/Zora/Day7SmipleIOUApp.sol\":1968:1999  balances[msg.sender] -= _amount */\n      dup3\n      dup3\n      sload\n      tag_133\n      swap2\n      swap1\n      tag_94\n      jump\t// in\n    tag_133:\n      swap3\n      pop\n      pop\n      dup2\n      swap1\n      sstore\n      pop\n        /* \"submissions/Zora/Day7SmipleIOUApp.sol\":2033:2040  _amount */\n      dup1\n        /* \"submissions/Zora/Day7SmipleIOUApp.sol\":2010:2018  balances */\n      0x03\n        /* \"submissions/Zora/Day7SmipleIOUApp.sol\":2010:2029  balances[_creditor] */\n      0x00\n        /* \"submissions/Zora/Day7SmipleIOUApp.sol\":2019:2028  _creditor */\n      dup5\n        /* \"submissions/Zora/Day7SmipleIOUApp.sol\":2010:2029  balances[_creditor] */\n      0xffffffffffffffffffffffffffffffffffffffff\n      and\n      0xffffffffffffffffffffffffffffffffffffffff\n      and\n      dup2\n      mstore\n      0x20\n      add\n      swap1\n      dup2\n      mstore\n      0x20\n      add\n      0x00\n      keccak256\n      0x00\n        /* \"submissions/Zora/Day7SmipleIOUApp.sol\":2010:2040  balances[_creditor] += _amount */\n      dup3\n      dup3\n      sload\n      tag_134\n      swap2\n      swap1\n      tag_98\n      jump\t// in\n    tag_134:\n      swap3\n      pop\n      pop\n      dup2\n      swap1\n      sstore\n      pop\n        /* \"submissions/Zora/Day7SmipleIOUApp.sol\":2083:2090  _amount */\n      dup1\n        /* \"submissions/Zora/Day7SmipleIOUApp.sol\":2051:2056  debts */\n      0x04\n        /* \"submissions/Zora/Day7SmipleIOUApp.sol\":2051:2068  debts[msg.sender] */\n      0x00\n        /* \"submissions/Zora/Day7SmipleIOUApp.sol\":2057:2067  msg.sender */\n      caller\n        /* \"submissions/Zora/Day7SmipleIOUApp.sol\":2051:2068  debts[msg.sender] */\n      0xffffffffffffffffffffffffffffffffffffffff\n      and\n      0xffffffffffffffffffffffffffffffffffffffff\n      and\n      dup2\n      mstore\n      0x20\n      add\n      swap1\n      dup2\n      mstore\n      0x20\n      add\n      0x00\n      keccak256\n        /* \"submissions/Zora/Day7SmipleIOUApp.sol\":2051:2079  debts[msg.sender][_creditor] */\n      0x00\n        /* \"submissions/Zora/Day7SmipleIOUApp.sol\":2069:2078  _creditor */\n      dup5\n        /* \"submissions/Zora/Day7SmipleIOUApp.sol\":2051:2079  debts[msg.sender][_creditor] */\n      0xffffffffffffffffffffffffffffffffffffffff\n      and\n      0xffffffffffffffffffffffffffffffffffffffff\n      and\n      dup2\n      mstore\n      0x20\n      add\n      swap1\n      dup2\n      mstore\n      0x20\n      add\n      0x00\n      keccak256\n      0x00\n        /* \"submissions/Zora/Day7SmipleIOUApp.sol\":2051:2090  debts[msg.sender][_creditor] -= _amount */\n      dup3\n      dup3\n      sload\n      tag_135\n      swap2\n      swap1\n      tag_94\n      jump\t// in\n    tag_135:\n      swap3\n      pop\n      pop\n      dup2\n      swap1\n      sstore\n      pop\n        /* \"submissions/Zora/Day7SmipleIOUApp.sol\":1515:2098  function payFromWallet(address _creditor, uint256 _amount) public onlyRegistered{... */\n      pop\n      pop\n      jump\t// out\n        /* \"submissions/Zora/Day7SmipleIOUApp.sol\":3320:3434  function checkBalance() public view onlyRegistered returns (uint256){... */\n    tag_57:\n        /* \"submissions/Zora/Day7SmipleIOUApp.sol\":3380:3387  uint256 */\n      0x00\n        /* \"submissions/Zora/Day7SmipleIOUApp.sol\":642:659  registeredFriends */\n      0x01\n        /* \"submissions/Zora/Day7SmipleIOUApp.sol\":642:671  registeredFriends[msg.sender] */\n      0x00\n        /* \"submissions/Zora/Day7SmipleIOUApp.sol\":660:670  msg.sender */\n      caller\n        /* \"submissions/Zora/Day7SmipleIOUApp.sol\":642:671  registeredFriends[msg.sender] */\n      0xffffffffffffffffffffffffffffffffffffffff\n      and\n      0xffffffffffffffffffffffffffffffffffffffff\n      and\n      dup2\n      mstore\n      0x20\n      add\n      swap1\n      dup2\n      mstore\n      0x20\n      add\n      0x00\n      keccak256\n      0x00\n      swap1\n      sload\n      swap1\n      0x0100\n      exp\n      swap1\n      div\n      0xff\n      and\n        /* \"submissions/Zora/Day7SmipleIOUApp.sol\":634:698  require(registeredFriends[msg.sender], \"You are not registered\") */\n      tag_137\n      jumpi\n      mload(0x40)\n      0x08c379a000000000000000000000000000000000000000000000000000000000\n      dup2\n      mstore\n      0x04\n      add\n      tag_138\n      swap1\n      tag_82\n      jump\t// in\n    tag_138:\n      mload(0x40)\n      dup1\n      swap2\n      sub\n      swap1\n      revert\n    tag_137:\n        /* \"submissions/Zora/Day7SmipleIOUApp.sol\":3406:3414  balances */\n      0x03\n        /* \"submissions/Zora/Day7SmipleIOUApp.sol\":3406:3426  balances[msg.sender] */\n      0x00\n        /* \"submissions/Zora/Day7SmipleIOUApp.sol\":3415:3425  msg.sender */\n      caller\n        /* \"submissions/Zora/Day7SmipleIOUApp.sol\":3406:3426  balances[msg.sender] */\n      0xffffffffffffffffffffffffffffffffffffffff\n      and\n      0xffffffffffffffffffffffffffffffffffffffff\n      and\n      dup2\n      mstore\n      0x20\n      add\n      swap1\n      dup2\n      mstore\n      0x20\n      add\n      0x00\n      keccak256\n      sload\n        /* \"submissions/Zora/Day7SmipleIOUApp.sol\":3399:3426  return balances[msg.sender] */\n      swap1\n      pop\n        /* \"submissions/Zora/Day7SmipleIOUApp.sol\":3320:3434  function checkBalance() public view onlyRegistered returns (uint256){... */\n      swap1\n      jump\t// out\n        /* \"submissions/Zora/Day7SmipleIOUApp.sol\":1011:1171  function depositIntoWallet() public payable onlyRegistered{... */\n    tag_60:\n        /* \"submissions/Zora/Day7SmipleIOUApp.sol\":642:659  registeredFriends */\n      0x01\n        /* \"submissions/Zora/Day7SmipleIOUApp.sol\":642:671  registeredFriends[msg.sender] */\n      0x00\n        /* \"submissions/Zora/Day7SmipleIOUApp.sol\":660:670  msg.sender */\n      caller\n        /* \"submissions/Zora/Day7SmipleIOUApp.sol\":642:671  registeredFriends[msg.sender] */\n      0xffffffffffffffffffffffffffffffffffffffff\n      and\n      0xffffffffffffffffffffffffffffffffffffffff\n      and\n      dup2\n      mstore\n      0x20\n      add\n      swap1\n      dup2\n      mstore\n      0x20\n      add\n      0x00\n      keccak256\n      0x00\n      swap1\n      sload\n      swap1\n      0x0100\n      exp\n      swap1\n      div\n      0xff\n      and\n        /* \"submissions/Zora/Day7SmipleIOUApp.sol\":634:698  require(registeredFriends[msg.sender], \"You are not registered\") */\n      tag_141\n      jumpi\n      mload(0x40)\n      0x08c379a000000000000000000000000000000000000000000000000000000000\n      dup2\n      mstore\n      0x04\n      add\n      tag_142\n      swap1\n      tag_82\n      jump\t// in\n    tag_142:\n      mload(0x40)\n      dup1\n      swap2\n      sub\n      swap1\n      revert\n    tag_141:\n        /* \"submissions/Zora/Day7SmipleIOUApp.sol\":1100:1101  0 */\n      0x00\n        /* \"submissions/Zora/Day7SmipleIOUApp.sol\":1088:1097  msg.value */\n      callvalue\n        /* \"submissions/Zora/Day7SmipleIOUApp.sol\":1088:1101  msg.value > 0 */\n      gt\n        /* \"submissions/Zora/Day7SmipleIOUApp.sol\":1080:1119  require(msg.value > 0, \"Must send ETH\") */\n      tag_144\n      jumpi\n      mload(0x40)\n      0x08c379a000000000000000000000000000000000000000000000000000000000\n      dup2\n      mstore\n      0x04\n      add\n      tag_145\n      swap1\n      tag_146\n      jump\t// in\n    tag_145:\n      mload(0x40)\n      dup1\n      swap2\n      sub\n      swap1\n      revert\n    tag_144:\n        /* \"submissions/Zora/Day7SmipleIOUApp.sol\":1154:1163  msg.value */\n      callvalue\n        /* \"submissions/Zora/Day7SmipleIOUApp.sol\":1130:1138  balances */\n      0x03\n        /* \"submissions/Zora/Day7SmipleIOUApp.sol\":1130:1150  balances[msg.sender] */\n      0x00\n        /* \"submissions/Zora/Day7SmipleIOUApp.sol\":1139:1149  msg.sender */\n      caller\n        /* \"submissions/Zora/Day7SmipleIOUApp.sol\":1130:1150  balances[msg.sender] */\n      0xffffffffffffffffffffffffffffffffffffffff\n      and\n      0xffffffffffffffffffffffffffffffffffffffff\n      and\n      dup2\n      mstore\n      0x20\n      add\n      swap1\n      dup2\n      mstore\n      0x20\n      add\n      0x00\n      keccak256\n      0x00\n        /* \"submissions/Zora/Day7SmipleIOUApp.sol\":1130:1163  balances[msg.sender] += msg.value */\n      dup3\n      dup3\n      sload\n      tag_147\n      swap2\n      swap1\n      tag_98\n      jump\t// in\n    tag_147:\n      swap3\n      pop\n      pop\n      dup2\n      swap1\n      sstore\n      pop\n        /* \"submissions/Zora/Day7SmipleIOUApp.sol\":1011:1171  function depositIntoWallet() public payable onlyRegistered{... */\n      jump\t// out\n        /* \"submissions/Zora/Day7SmipleIOUApp.sol\":2514:2997  function transferEtherViaCall(address payable _to, uint256 _amount) public onlyRegistered{... */\n    tag_64:\n        /* \"submissions/Zora/Day7SmipleIOUApp.sol\":642:659  registeredFriends */\n      0x01\n        /* \"submissions/Zora/Day7SmipleIOUApp.sol\":642:671  registeredFriends[msg.sender] */\n      0x00\n        /* \"submissions/Zora/Day7SmipleIOUApp.sol\":660:670  msg.sender */\n      caller\n        /* \"submissions/Zora/Day7SmipleIOUApp.sol\":642:671  registeredFriends[msg.sender] */\n      0xffffffffffffffffffffffffffffffffffffffff\n      and\n      0xffffffffffffffffffffffffffffffffffffffff\n      and\n      dup2\n      mstore\n      0x20\n      add\n      swap1\n      dup2\n      mstore\n      0x20\n      add\n      0x00\n      keccak256\n      0x00\n      swap1\n      sload\n      swap1\n      0x0100\n      exp\n      swap1\n      div\n      0xff\n      and\n        /* \"submissions/Zora/Day7SmipleIOUApp.sol\":634:698  require(registeredFriends[msg.sender], \"You are not registered\") */\n      tag_149\n      jumpi\n      mload(0x40)\n      0x08c379a000000000000000000000000000000000000000000000000000000000\n      dup2\n      mstore\n      0x04\n      add\n      tag_150\n      swap1\n      tag_82\n      jump\t// in\n    tag_150:\n      mload(0x40)\n      dup1\n      swap2\n      sub\n      swap1\n      revert\n    tag_149:\n        /* \"submissions/Zora/Day7SmipleIOUApp.sol\":2637:2638  0 */\n      0x00\n        /* \"submissions/Zora/Day7SmipleIOUApp.sol\":2622:2639  _to != address(0) */\n      0xffffffffffffffffffffffffffffffffffffffff\n      and\n        /* \"submissions/Zora/Day7SmipleIOUApp.sol\":2622:2625  _to */\n      dup3\n        /* \"submissions/Zora/Day7SmipleIOUApp.sol\":2622:2639  _to != address(0) */\n      0xffffffffffffffffffffffffffffffffffffffff\n      and\n      sub\n        /* \"submissions/Zora/Day7SmipleIOUApp.sol\":2614:2659  require(_to != address(0), \"Invalid address\") */\n      tag_152\n      jumpi\n      mload(0x40)\n      0x08c379a000000000000000000000000000000000000000000000000000000000\n      dup2\n      mstore\n      0x04\n      add\n      tag_153\n      swap1\n      tag_86\n      jump\t// in\n    tag_153:\n      mload(0x40)\n      dup1\n      swap2\n      sub\n      swap1\n      revert\n    tag_152:\n        /* \"submissions/Zora/Day7SmipleIOUApp.sol\":2678:2695  registeredFriends */\n      0x01\n        /* \"submissions/Zora/Day7SmipleIOUApp.sol\":2678:2700  registeredFriends[_to] */\n      0x00\n        /* \"submissions/Zora/Day7SmipleIOUApp.sol\":2696:2699  _to */\n      dup4\n        /* \"submissions/Zora/Day7SmipleIOUApp.sol\":2678:2700  registeredFriends[_to] */\n      0xffffffffffffffffffffffffffffffffffffffff\n      and\n      0xffffffffffffffffffffffffffffffffffffffff\n      and\n      dup2\n      mstore\n      0x20\n      add\n      swap1\n      dup2\n      mstore\n      0x20\n      add\n      0x00\n      keccak256\n      0x00\n      swap1\n      sload\n      swap1\n      0x0100\n      exp\n      swap1\n      div\n      0xff\n      and\n        /* \"submissions/Zora/Day7SmipleIOUApp.sol\":2670:2729  require(registeredFriends[_to], \"Recipient not registered\") */\n      tag_154\n      jumpi\n      mload(0x40)\n      0x08c379a000000000000000000000000000000000000000000000000000000000\n      dup2\n      mstore\n      0x04\n      add\n      tag_155\n      swap1\n      tag_89\n      jump\t// in\n    tag_155:\n      mload(0x40)\n      dup1\n      swap2\n      sub\n      swap1\n      revert\n    tag_154:\n        /* \"submissions/Zora/Day7SmipleIOUApp.sol\":2772:2779  _amount */\n      dup1\n        /* \"submissions/Zora/Day7SmipleIOUApp.sol\":2748:2756  balances */\n      0x03\n        /* \"submissions/Zora/Day7SmipleIOUApp.sol\":2748:2768  balances[msg.sender] */\n      0x00\n        /* \"submissions/Zora/Day7SmipleIOUApp.sol\":2757:2767  msg.sender */\n      caller\n        /* \"submissions/Zora/Day7SmipleIOUApp.sol\":2748:2768  balances[msg.sender] */\n      0xffffffffffffffffffffffffffffffffffffffff\n      and\n      0xffffffffffffffffffffffffffffffffffffffff\n      and\n      dup2\n      mstore\n      0x20\n      add\n      swap1\n      dup2\n      mstore\n      0x20\n      add\n      0x00\n      keccak256\n      sload\n        /* \"submissions/Zora/Day7SmipleIOUApp.sol\":2748:2779  balances[msg.sender] >= _amount */\n      lt\n      iszero\n        /* \"submissions/Zora/Day7SmipleIOUApp.sol\":2740:2804  require(balances[msg.sender] >= _amount, \"Insufficient balance\") */\n      tag_156\n      jumpi\n      mload(0x40)\n      0x08c379a000000000000000000000000000000000000000000000000000000000\n      dup2\n      mstore\n      0x04\n      add\n      tag_157\n      swap1\n      tag_92\n      jump\t// in\n    tag_157:\n      mload(0x40)\n      dup1\n      swap2\n      sub\n      swap1\n      revert\n    tag_156:\n        /* \"submissions/Zora/Day7SmipleIOUApp.sol\":2841:2848  _amount */\n      dup1\n        /* \"submissions/Zora/Day7SmipleIOUApp.sol\":2817:2825  balances */\n      0x03\n        /* \"submissions/Zora/Day7SmipleIOUApp.sol\":2817:2837  balances[msg.sender] */\n      0x00\n        /* \"submissions/Zora/Day7SmipleIOUApp.sol\":2826:2836  msg.sender */\n      caller\n        /* \"submissions/Zora/Day7SmipleIOUApp.sol\":2817:2837  balances[msg.sender] */\n      0xffffffffffffffffffffffffffffffffffffffff\n      and\n      0xffffffffffffffffffffffffffffffffffffffff\n      and\n      dup2\n      mstore\n      0x20\n      add\n      swap1\n      dup2\n      mstore\n      0x20\n      add\n      0x00\n      keccak256\n      0x00\n        /* \"submissions/Zora/Day7SmipleIOUApp.sol\":2817:2848  balances[msg.sender] -= _amount */\n      dup3\n      dup3\n      sload\n      tag_158\n      swap2\n      swap1\n      tag_94\n      jump\t// in\n    tag_158:\n      swap3\n      pop\n      pop\n      dup2\n      swap1\n      sstore\n      pop\n        /* \"submissions/Zora/Day7SmipleIOUApp.sol\":2862:2874  bool success */\n      0x00\n        /* \"submissions/Zora/Day7SmipleIOUApp.sol\":2880:2883  _to */\n      dup3\n        /* \"submissions/Zora/Day7SmipleIOUApp.sol\":2880:2888  _to.call */\n      0xffffffffffffffffffffffffffffffffffffffff\n      and\n        /* \"submissions/Zora/Day7SmipleIOUApp.sol\":2896:2903  _amount */\n      dup3\n        /* \"submissions/Zora/Day7SmipleIOUApp.sol\":2880:2908  _to.call{value: _amount}(\"\") */\n      mload(0x40)\n      tag_159\n      swap1\n      tag_109\n      jump\t// in\n    tag_159:\n      0x00\n      mload(0x40)\n      dup1\n      dup4\n      sub\n      dup2\n      dup6\n      dup8\n      gas\n      call\n      swap3\n      pop\n      pop\n      pop\n      returndatasize\n      dup1\n      0x00\n      dup2\n      eq\n      tag_162\n      jumpi\n      mload(0x40)\n      swap2\n      pop\n      and(add(returndatasize, 0x3f), not(0x1f))\n      dup3\n      add\n      0x40\n      mstore\n      returndatasize\n      dup3\n      mstore\n      returndatasize\n      0x00\n      0x20\n      dup5\n      add\n      returndatacopy\n      jump(tag_161)\n    tag_162:\n      0x60\n      swap2\n      pop\n    tag_161:\n      pop\n        /* \"submissions/Zora/Day7SmipleIOUApp.sol\":2861:2908  (bool success, ) = _to.call{value: _amount}(\"\") */\n      pop\n      swap1\n      pop\n        /* \"submissions/Zora/Day7SmipleIOUApp.sol\":2936:2943  _amount */\n      dup2\n        /* \"submissions/Zora/Day7SmipleIOUApp.sol\":2919:2927  balances */\n      0x03\n        /* \"submissions/Zora/Day7SmipleIOUApp.sol\":2919:2932  balances[_to] */\n      0x00\n        /* \"submissions/Zora/Day7SmipleIOUApp.sol\":2928:2931  _to */\n      dup6\n        /* \"submissions/Zora/Day7SmipleIOUApp.sol\":2919:2932  balances[_to] */\n      0xffffffffffffffffffffffffffffffffffffffff\n      and\n      0xffffffffffffffffffffffffffffffffffffffff\n      and\n      dup2\n      mstore\n      0x20\n      add\n      swap1\n      dup2\n      mstore\n      0x20\n      add\n      0x00\n      keccak256\n      0x00\n        /* \"submissions/Zora/Day7SmipleIOUApp.sol\":2919:2943  balances[_to] += _amount */\n      dup3\n      dup3\n      sload\n      tag_163\n      swap2\n      swap1\n      tag_98\n      jump\t// in\n    tag_163:\n      swap3\n      pop\n      pop\n      dup2\n      swap1\n      sstore\n      pop\n        /* \"submissions/Zora/Day7SmipleIOUApp.sol\":2962:2969  success */\n      dup1\n        /* \"submissions/Zora/Day7SmipleIOUApp.sol\":2954:2989  require(success, \"Transfer failed\") */\n      tag_164\n      jumpi\n      mload(0x40)\n      0x08c379a000000000000000000000000000000000000000000000000000000000\n      dup2\n      mstore\n      0x04\n      add\n      tag_165\n      swap1\n      tag_166\n      jump\t// in\n    tag_165:\n      mload(0x40)\n      dup1\n      swap2\n      sub\n      swap1\n      revert\n    tag_164:\n        /* \"submissions/Zora/Day7SmipleIOUApp.sol\":2603:2997  {... */\n      pop\n        /* \"submissions/Zora/Day7SmipleIOUApp.sol\":2514:2997  function transferEtherViaCall(address payable _to, uint256 _amount) public onlyRegistered{... */\n      pop\n      pop\n      jump\t// out\n        /* \"submissions/Zora/Day7SmipleIOUApp.sol\":726:1003  function addFriend(address _friend) public onlyOwner{... */\n    tag_68:\n        /* \"submissions/Zora/Day7SmipleIOUApp.sol\":526:531  owner */\n      0x00\n      0x00\n      swap1\n      sload\n      swap1\n      0x0100\n      exp\n      swap1\n      div\n      0xffffffffffffffffffffffffffffffffffffffff\n      and\n        /* \"submissions/Zora/Day7SmipleIOUApp.sol\":512:531  msg.sender == owner */\n      0xffffffffffffffffffffffffffffffffffffffff\n      and\n        /* \"submissions/Zora/Day7SmipleIOUApp.sol\":512:522  msg.sender */\n      caller\n        /* \"submissions/Zora/Day7SmipleIOUApp.sol\":512:531  msg.sender == owner */\n      0xffffffffffffffffffffffffffffffffffffffff\n      and\n      eq\n        /* \"submissions/Zora/Day7SmipleIOUApp.sol\":504:570  require(msg.sender == owner, \"Only owner can perform this action\") */\n      tag_168\n      jumpi\n      mload(0x40)\n      0x08c379a000000000000000000000000000000000000000000000000000000000\n      dup2\n      mstore\n      0x04\n      add\n      tag_169\n      swap1\n      tag_170\n      jump\t// in\n    tag_169:\n      mload(0x40)\n      dup1\n      swap2\n      sub\n      swap1\n      revert\n    tag_168:\n        /* \"submissions/Zora/Day7SmipleIOUApp.sol\":816:817  0 */\n      0x00\n        /* \"submissions/Zora/Day7SmipleIOUApp.sol\":797:818  _friend != address(0) */\n      0xffffffffffffffffffffffffffffffffffffffff\n      and\n        /* \"submissions/Zora/Day7SmipleIOUApp.sol\":797:804  _friend */\n      dup2\n        /* \"submissions/Zora/Day7SmipleIOUApp.sol\":797:818  _friend != address(0) */\n      0xffffffffffffffffffffffffffffffffffffffff\n      and\n      sub\n        /* \"submissions/Zora/Day7SmipleIOUApp.sol\":789:838  require(_friend != address(0), \"Invalid address\") */\n      tag_172\n      jumpi\n      mload(0x40)\n      0x08c379a000000000000000000000000000000000000000000000000000000000\n      dup2\n      mstore\n      0x04\n      add\n      tag_173\n      swap1\n      tag_86\n      jump\t// in\n    tag_173:\n      mload(0x40)\n      dup1\n      swap2\n      sub\n      swap1\n      revert\n    tag_172:\n        /* \"submissions/Zora/Day7SmipleIOUApp.sol\":858:875  registeredFriends */\n      0x01\n        /* \"submissions/Zora/Day7SmipleIOUApp.sol\":858:884  registeredFriends[_friend] */\n      0x00\n        /* \"submissions/Zora/Day7SmipleIOUApp.sol\":876:883  _friend */\n      dup3\n        /* \"submissions/Zora/Day7SmipleIOUApp.sol\":858:884  registeredFriends[_friend] */\n      0xffffffffffffffffffffffffffffffffffffffff\n      and\n      0xffffffffffffffffffffffffffffffffffffffff\n      and\n      dup2\n      mstore\n      0x20\n      add\n      swap1\n      dup2\n      mstore\n      0x20\n      add\n      0x00\n      keccak256\n      0x00\n      swap1\n      sload\n      swap1\n      0x0100\n      exp\n      swap1\n      div\n      0xff\n      and\n        /* \"submissions/Zora/Day7SmipleIOUApp.sol\":857:884  !registeredFriends[_friend] */\n      iszero\n        /* \"submissions/Zora/Day7SmipleIOUApp.sol\":849:914  require(!registeredFriends[_friend], \"Friend already registered\") */\n      tag_174\n      jumpi\n      mload(0x40)\n      0x08c379a000000000000000000000000000000000000000000000000000000000\n      dup2\n      mstore\n      0x04\n      add\n      tag_175\n      swap1\n      tag_176\n      jump\t// in\n    tag_175:\n      mload(0x40)\n      dup1\n      swap2\n      sub\n      swap1\n      revert\n    tag_174:\n        /* \"submissions/Zora/Day7SmipleIOUApp.sol\":956:960  true */\n      0x01\n        /* \"submissions/Zora/Day7SmipleIOUApp.sol\":927:944  registeredFriends */\n      dup1\n        /* \"submissions/Zora/Day7SmipleIOUApp.sol\":927:953  registeredFriends[_friend] */\n      0x00\n        /* \"submissions/Zora/Day7SmipleIOUApp.sol\":945:952  _friend */\n      dup4\n        /* \"submissions/Zora/Day7SmipleIOUApp.sol\":927:953  registeredFriends[_friend] */\n      0xffffffffffffffffffffffffffffffffffffffff\n      and\n      0xffffffffffffffffffffffffffffffffffffffff\n      and\n      dup2\n      mstore\n      0x20\n      add\n      swap1\n      dup2\n      mstore\n      0x20\n      add\n      0x00\n      keccak256\n      0x00\n        /* \"submissions/Zora/Day7SmipleIOUApp.sol\":927:960  registeredFriends[_friend] = true */\n      0x0100\n      exp\n      dup2\n      sload\n      dup2\n      0xff\n      mul\n      not\n      and\n      swap1\n      dup4\n      iszero\n      iszero\n      mul\n      or\n      swap1\n      sstore\n      pop\n        /* \"submissions/Zora/Day7SmipleIOUApp.sol\":971:981  friendList */\n      0x02\n        /* \"submissions/Zora/Day7SmipleIOUApp.sol\":987:994  _friend */\n      dup2\n        /* \"submissions/Zora/Day7SmipleIOUApp.sol\":971:995  friendList.push(_friend) */\n      swap1\n      dup1\n      0x01\n      dup2\n      sload\n      add\n      dup1\n      dup3\n      sstore\n      dup1\n      swap2\n      pop\n      pop\n      0x01\n      swap1\n      sub\n      swap1\n      0x00\n      mstore\n      keccak256(0x00, 0x20)\n      add\n      0x00\n      swap1\n      swap2\n      swap1\n      swap2\n      swap1\n      swap2\n      0x0100\n      exp\n      dup2\n      sload\n      dup2\n      0xffffffffffffffffffffffffffffffffffffffff\n      mul\n      not\n      and\n      swap1\n      dup4\n      0xffffffffffffffffffffffffffffffffffffffff\n      and\n      mul\n      or\n      swap1\n      sstore\n      pop\n        /* \"submissions/Zora/Day7SmipleIOUApp.sol\":726:1003  function addFriend(address _friend) public onlyOwner{... */\n      pop\n      jump\t// out\n        /* \"submissions/Zora/Day7SmipleIOUApp.sol\":113:162  mapping(address => bool) public registeredFriends */\n    tag_72:\n      mstore(0x20, 0x01)\n      dup1\n      0x00\n      mstore\n      keccak256(0x00, 0x40)\n      0x00\n      swap2\n      pop\n      sload\n      swap1\n      0x0100\n      exp\n      swap1\n      div\n      0xff\n      and\n      dup2\n      jump\t// out\n        /* \"submissions/Zora/Day7SmipleIOUApp.sol\":1179:1507  function recordDebt(address _debtor, uint256 _amount) public onlyRegistered{... */\n    tag_78:\n        /* \"submissions/Zora/Day7SmipleIOUApp.sol\":642:659  registeredFriends */\n      0x01\n        /* \"submissions/Zora/Day7SmipleIOUApp.sol\":642:671  registeredFriends[msg.sender] */\n      0x00\n        /* \"submissions/Zora/Day7SmipleIOUApp.sol\":660:670  msg.sender */\n      caller\n        /* \"submissions/Zora/Day7SmipleIOUApp.sol\":642:671  registeredFriends[msg.sender] */\n      0xffffffffffffffffffffffffffffffffffffffff\n      and\n      0xffffffffffffffffffffffffffffffffffffffff\n      and\n      dup2\n      mstore\n      0x20\n      add\n      swap1\n      dup2\n      mstore\n      0x20\n      add\n      0x00\n      keccak256\n      0x00\n      swap1\n      sload\n      swap1\n      0x0100\n      exp\n      swap1\n      div\n      0xff\n      and\n        /* \"submissions/Zora/Day7SmipleIOUApp.sol\":634:698  require(registeredFriends[msg.sender], \"You are not registered\") */\n      tag_179\n      jumpi\n      mload(0x40)\n      0x08c379a000000000000000000000000000000000000000000000000000000000\n      dup2\n      mstore\n      0x04\n      add\n      tag_180\n      swap1\n      tag_82\n      jump\t// in\n    tag_180:\n      mload(0x40)\n      dup1\n      swap2\n      sub\n      swap1\n      revert\n    tag_179:\n        /* \"submissions/Zora/Day7SmipleIOUApp.sol\":1292:1293  0 */\n      0x00\n        /* \"submissions/Zora/Day7SmipleIOUApp.sol\":1273:1294  _debtor != address(0) */\n      0xffffffffffffffffffffffffffffffffffffffff\n      and\n        /* \"submissions/Zora/Day7SmipleIOUApp.sol\":1273:1280  _debtor */\n      dup3\n        /* \"submissions/Zora/Day7SmipleIOUApp.sol\":1273:1294  _debtor != address(0) */\n      0xffffffffffffffffffffffffffffffffffffffff\n      and\n      sub\n        /* \"submissions/Zora/Day7SmipleIOUApp.sol\":1265:1314  require(_debtor != address(0), \"Invalid address\") */\n      tag_182\n      jumpi\n      mload(0x40)\n      0x08c379a000000000000000000000000000000000000000000000000000000000\n      dup2\n      mstore\n      0x04\n      add\n      tag_183\n      swap1\n      tag_86\n      jump\t// in\n    tag_183:\n      mload(0x40)\n      dup1\n      swap2\n      sub\n      swap1\n      revert\n    tag_182:\n        /* \"submissions/Zora/Day7SmipleIOUApp.sol\":1333:1350  registeredFriends */\n      0x01\n        /* \"submissions/Zora/Day7SmipleIOUApp.sol\":1333:1359  registeredFriends[_debtor] */\n      0x00\n        /* \"submissions/Zora/Day7SmipleIOUApp.sol\":1351:1358  _debtor */\n      dup4\n        /* \"submissions/Zora/Day7SmipleIOUApp.sol\":1333:1359  registeredFriends[_debtor] */\n      0xffffffffffffffffffffffffffffffffffffffff\n      and\n      0xffffffffffffffffffffffffffffffffffffffff\n      and\n      dup2\n      mstore\n      0x20\n      add\n      swap1\n      dup2\n      mstore\n      0x20\n      add\n      0x00\n      keccak256\n      0x00\n      swap1\n      sload\n      swap1\n      0x0100\n      exp\n      swap1\n      div\n      0xff\n      and\n        /* \"submissions/Zora/Day7SmipleIOUApp.sol\":1325:1386  require(registeredFriends[_debtor], \"Address not registered\") */\n      tag_184\n      jumpi\n      mload(0x40)\n      0x08c379a000000000000000000000000000000000000000000000000000000000\n      dup2\n      mstore\n      0x04\n      add\n      tag_185\n      swap1\n      tag_186\n      jump\t// in\n    tag_185:\n      mload(0x40)\n      dup1\n      swap2\n      sub\n      swap1\n      revert\n    tag_184:\n        /* \"submissions/Zora/Day7SmipleIOUApp.sol\":1414:1415  0 */\n      0x00\n        /* \"submissions/Zora/Day7SmipleIOUApp.sol\":1405:1412  _amount */\n      dup2\n        /* \"submissions/Zora/Day7SmipleIOUApp.sol\":1405:1415  _amount >0 */\n      gt\n        /* \"submissions/Zora/Day7SmipleIOUApp.sol\":1397:1449  require(_amount >0, \"Amount must be greater than 0\") */\n      tag_187\n      jumpi\n      mload(0x40)\n      0x08c379a000000000000000000000000000000000000000000000000000000000\n      dup2\n      mstore\n      0x04\n      add\n      tag_188\n      swap1\n      tag_127\n      jump\t// in\n    tag_188:\n      mload(0x40)\n      dup1\n      swap2\n      sub\n      swap1\n      revert\n    tag_187:\n        /* \"submissions/Zora/Day7SmipleIOUApp.sol\":1492:1499  _amount */\n      dup1\n        /* \"submissions/Zora/Day7SmipleIOUApp.sol\":1462:1467  debts */\n      0x04\n        /* \"submissions/Zora/Day7SmipleIOUApp.sol\":1462:1476  debts[_debtor] */\n      0x00\n        /* \"submissions/Zora/Day7SmipleIOUApp.sol\":1468:1475  _debtor */\n      dup5\n        /* \"submissions/Zora/Day7SmipleIOUApp.sol\":1462:1476  debts[_debtor] */\n      0xffffffffffffffffffffffffffffffffffffffff\n      and\n      0xffffffffffffffffffffffffffffffffffffffff\n      and\n      dup2\n      mstore\n      0x20\n      add\n      swap1\n      dup2\n      mstore\n      0x20\n      add\n      0x00\n      keccak256\n        /* \"submissions/Zora/Day7SmipleIOUApp.sol\":1462:1488  debts[_debtor][msg.sender] */\n      0x00\n        /* \"submissions/Zora/Day7SmipleIOUApp.sol\":1477:1487  msg.sender */\n      caller\n        /* \"submissions/Zora/Day7SmipleIOUApp.sol\":1462:1488  debts[_debtor][msg.sender] */\n      0xffffffffffffffffffffffffffffffffffffffff\n      and\n      0xffffffffffffffffffffffffffffffffffffffff\n      and\n      dup2\n      mstore\n      0x20\n      add\n      swap1\n      dup2\n      mstore\n      0x20\n      add\n      0x00\n      keccak256\n      0x00\n        /* \"submissions/Zora/Day7SmipleIOUApp.sol\":1462:1499  debts[_debtor][msg.sender] += _amount */\n      dup3\n      dup3\n      sload\n      tag_189\n      swap2\n      swap1\n      tag_98\n      jump\t// in\n    tag_189:\n      swap3\n      pop\n      pop\n      dup2\n      swap1\n      sstore\n      pop\n        /* \"submissions/Zora/Day7SmipleIOUApp.sol\":1179:1507  function recordDebt(address _debtor, uint256 _amount) public onlyRegistered{... */\n      pop\n      pop\n      jump\t// out\n        /* \"#utility.yul\":88:205   */\n    tag_191:\n        /* \"#utility.yul\":197:198   */\n      0x00\n        /* \"#utility.yul\":194:195   */\n      0x00\n        /* \"#utility.yul\":187:199   */\n      revert\n        /* \"#utility.yul\":334:460   */\n    tag_193:\n        /* \"#utility.yul\":371:378   */\n      0x00\n        /* \"#utility.yul\":411:453   */\n      0xffffffffffffffffffffffffffffffffffffffff\n        /* \"#utility.yul\":404:409   */\n      dup3\n        /* \"#utility.yul\":400:454   */\n      and\n        /* \"#utility.yul\":389:454   */\n      swap1\n      pop\n        /* \"#utility.yul\":334:460   */\n      swap2\n      swap1\n      pop\n      jump\t// out\n        /* \"#utility.yul\":466:570   */\n    tag_194:\n        /* \"#utility.yul\":511:518   */\n      0x00\n        /* \"#utility.yul\":540:564   */\n      tag_244\n        /* \"#utility.yul\":558:563   */\n      dup3\n        /* \"#utility.yul\":540:564   */\n      tag_193\n      jump\t// in\n    tag_244:\n        /* \"#utility.yul\":529:564   */\n      swap1\n      pop\n        /* \"#utility.yul\":466:570   */\n      swap2\n      swap1\n      pop\n      jump\t// out\n        /* \"#utility.yul\":576:714   */\n    tag_195:\n        /* \"#utility.yul\":657:689   */\n      tag_246\n        /* \"#utility.yul\":683:688   */\n      dup2\n        /* \"#utility.yul\":657:689   */\n      tag_194\n      jump\t// in\n    tag_246:\n        /* \"#utility.yul\":650:655   */\n      dup2\n        /* \"#utility.yul\":647:690   */\n      eq\n        /* \"#utility.yul\":637:708   */\n      tag_247\n      jumpi\n        /* \"#utility.yul\":704:705   */\n      0x00\n        /* \"#utility.yul\":701:702   */\n      0x00\n        /* \"#utility.yul\":694:706   */\n      revert\n        /* \"#utility.yul\":637:708   */\n    tag_247:\n        /* \"#utility.yul\":576:714   */\n      pop\n      jump\t// out\n        /* \"#utility.yul\":720:875   */\n    tag_196:\n        /* \"#utility.yul\":774:779   */\n      0x00\n        /* \"#utility.yul\":812:818   */\n      dup2\n        /* \"#utility.yul\":799:819   */\n      calldataload\n        /* \"#utility.yul\":790:819   */\n      swap1\n      pop\n        /* \"#utility.yul\":828:869   */\n      tag_249\n        /* \"#utility.yul\":863:868   */\n      dup2\n        /* \"#utility.yul\":828:869   */\n      tag_195\n      jump\t// in\n    tag_249:\n        /* \"#utility.yul\":720:875   */\n      swap3\n      swap2\n      pop\n      pop\n      jump\t// out\n        /* \"#utility.yul\":881:958   */\n    tag_197:\n        /* \"#utility.yul\":918:925   */\n      0x00\n        /* \"#utility.yul\":947:952   */\n      dup2\n        /* \"#utility.yul\":936:952   */\n      swap1\n      pop\n        /* \"#utility.yul\":881:958   */\n      swap2\n      swap1\n      pop\n      jump\t// out\n        /* \"#utility.yul\":964:1086   */\n    tag_198:\n        /* \"#utility.yul\":1037:1061   */\n      tag_252\n        /* \"#utility.yul\":1055:1060   */\n      dup2\n        /* \"#utility.yul\":1037:1061   */\n      tag_197\n      jump\t// in\n    tag_252:\n        /* \"#utility.yul\":1030:1035   */\n      dup2\n        /* \"#utility.yul\":1027:1062   */\n      eq\n        /* \"#utility.yul\":1017:1080   */\n      tag_253\n      jumpi\n        /* \"#utility.yul\":1076:1077   */\n      0x00\n        /* \"#utility.yul\":1073:1074   */\n      0x00\n        /* \"#utility.yul\":1066:1078   */\n      revert\n        /* \"#utility.yul\":1017:1080   */\n    tag_253:\n        /* \"#utility.yul\":964:1086   */\n      pop\n      jump\t// out\n        /* \"#utility.yul\":1092:1231   */\n    tag_199:\n        /* \"#utility.yul\":1138:1143   */\n      0x00\n        /* \"#utility.yul\":1176:1182   */\n      dup2\n        /* \"#utility.yul\":1163:1183   */\n      calldataload\n        /* \"#utility.yul\":1154:1183   */\n      swap1\n      pop\n        /* \"#utility.yul\":1192:1225   */\n      tag_255\n        /* \"#utility.yul\":1219:1224   */\n      dup2\n        /* \"#utility.yul\":1192:1225   */\n      tag_198\n      jump\t// in\n    tag_255:\n        /* \"#utility.yul\":1092:1231   */\n      swap3\n      swap2\n      pop\n      pop\n      jump\t// out\n        /* \"#utility.yul\":1237:1727   */\n    tag_20:\n        /* \"#utility.yul\":1313:1319   */\n      0x00\n        /* \"#utility.yul\":1321:1327   */\n      0x00\n        /* \"#utility.yul\":1370:1372   */\n      0x40\n        /* \"#utility.yul\":1358:1367   */\n      dup4\n        /* \"#utility.yul\":1349:1356   */\n      dup6\n        /* \"#utility.yul\":1345:1368   */\n      sub\n        /* \"#utility.yul\":1341:1373   */\n      slt\n        /* \"#utility.yul\":1338:1457   */\n      iszero\n      tag_257\n      jumpi\n        /* \"#utility.yul\":1376:1455   */\n      tag_258\n      tag_191\n      jump\t// in\n    tag_258:\n        /* \"#utility.yul\":1338:1457   */\n    tag_257:\n        /* \"#utility.yul\":1496:1497   */\n      0x00\n        /* \"#utility.yul\":1521:1582   */\n      tag_259\n        /* \"#utility.yul\":1574:1581   */\n      dup6\n        /* \"#utility.yul\":1565:1571   */\n      dup3\n        /* \"#utility.yul\":1554:1563   */\n      dup7\n        /* \"#utility.yul\":1550:1572   */\n      add\n        /* \"#utility.yul\":1521:1582   */\n      tag_196\n      jump\t// in\n    tag_259:\n        /* \"#utility.yul\":1511:1582   */\n      swap3\n      pop\n        /* \"#utility.yul\":1467:1592   */\n      pop\n        /* \"#utility.yul\":1631:1633   */\n      0x20\n        /* \"#utility.yul\":1657:1710   */\n      tag_260\n        /* \"#utility.yul\":1702:1709   */\n      dup6\n        /* \"#utility.yul\":1693:1699   */\n      dup3\n        /* \"#utility.yul\":1682:1691   */\n      dup7\n        /* \"#utility.yul\":1678:1700   */\n      add\n        /* \"#utility.yul\":1657:1710   */\n      tag_199\n      jump\t// in\n    tag_260:\n        /* \"#utility.yul\":1647:1710   */\n      swap2\n      pop\n        /* \"#utility.yul\":1602:1720   */\n      pop\n        /* \"#utility.yul\":1237:1727   */\n      swap3\n      pop\n      swap3\n      swap1\n      pop\n      jump\t// out\n        /* \"#utility.yul\":1733:2062   */\n    tag_25:\n        /* \"#utility.yul\":1792:1798   */\n      0x00\n        /* \"#utility.yul\":1841:1843   */\n      0x20\n        /* \"#utility.yul\":1829:1838   */\n      dup3\n        /* \"#utility.yul\":1820:1827   */\n      dup5\n        /* \"#utility.yul\":1816:1839   */\n      sub\n        /* \"#utility.yul\":1812:1844   */\n      slt\n        /* \"#utility.yul\":1809:1928   */\n      iszero\n      tag_262\n      jumpi\n        /* \"#utility.yul\":1847:1926   */\n      tag_263\n      tag_191\n      jump\t// in\n    tag_263:\n        /* \"#utility.yul\":1809:1928   */\n    tag_262:\n        /* \"#utility.yul\":1967:1968   */\n      0x00\n        /* \"#utility.yul\":1992:2045   */\n      tag_264\n        /* \"#utility.yul\":2037:2044   */\n      dup5\n        /* \"#utility.yul\":2028:2034   */\n      dup3\n        /* \"#utility.yul\":2017:2026   */\n      dup6\n        /* \"#utility.yul\":2013:2035   */\n      add\n        /* \"#utility.yul\":1992:2045   */\n      tag_199\n      jump\t// in\n    tag_264:\n        /* \"#utility.yul\":1982:2045   */\n      swap2\n      pop\n        /* \"#utility.yul\":1938:2055   */\n      pop\n        /* \"#utility.yul\":1733:2062   */\n      swap3\n      swap2\n      pop\n      pop\n      jump\t// out\n        /* \"#utility.yul\":2068:2164   */\n    tag_200:\n        /* \"#utility.yul\":2105:2112   */\n      0x00\n        /* \"#utility.yul\":2134:2158   */\n      tag_266\n        /* \"#utility.yul\":2152:2157   */\n      dup3\n        /* \"#utility.yul\":2134:2158   */\n      tag_193\n      jump\t// in\n    tag_266:\n        /* \"#utility.yul\":2123:2158   */\n      swap1\n      pop\n        /* \"#utility.yul\":2068:2164   */\n      swap2\n      swap1\n      pop\n      jump\t// out\n        /* \"#utility.yul\":2170:2288   */\n    tag_201:\n        /* \"#utility.yul\":2257:2281   */\n      tag_268\n        /* \"#utility.yul\":2275:2280   */\n      dup2\n        /* \"#utility.yul\":2257:2281   */\n      tag_200\n      jump\t// in\n    tag_268:\n        /* \"#utility.yul\":2252:2255   */\n      dup3\n        /* \"#utility.yul\":2245:2282   */\n      mstore\n        /* \"#utility.yul\":2170:2288   */\n      pop\n      pop\n      jump\t// out\n        /* \"#utility.yul\":2294:2516   */\n    tag_28:\n        /* \"#utility.yul\":2387:2391   */\n      0x00\n        /* \"#utility.yul\":2425:2427   */\n      0x20\n        /* \"#utility.yul\":2414:2423   */\n      dup3\n        /* \"#utility.yul\":2410:2428   */\n      add\n        /* \"#utility.yul\":2402:2428   */\n      swap1\n      pop\n        /* \"#utility.yul\":2438:2509   */\n      tag_270\n        /* \"#utility.yul\":2506:2507   */\n      0x00\n        /* \"#utility.yul\":2495:2504   */\n      dup4\n        /* \"#utility.yul\":2491:2508   */\n      add\n        /* \"#utility.yul\":2482:2488   */\n      dup5\n        /* \"#utility.yul\":2438:2509   */\n      tag_201\n      jump\t// in\n    tag_270:\n        /* \"#utility.yul\":2294:2516   */\n      swap3\n      swap2\n      pop\n      pop\n      jump\t// out\n        /* \"#utility.yul\":2522:2644   */\n    tag_202:\n        /* \"#utility.yul\":2595:2619   */\n      tag_272\n        /* \"#utility.yul\":2613:2618   */\n      dup2\n        /* \"#utility.yul\":2595:2619   */\n      tag_200\n      jump\t// in\n    tag_272:\n        /* \"#utility.yul\":2588:2593   */\n      dup2\n        /* \"#utility.yul\":2585:2620   */\n      eq\n        /* \"#utility.yul\":2575:2638   */\n      tag_273\n      jumpi\n        /* \"#utility.yul\":2634:2635   */\n      0x00\n        /* \"#utility.yul\":2631:2632   */\n      0x00\n        /* \"#utility.yul\":2624:2636   */\n      revert\n        /* \"#utility.yul\":2575:2638   */\n    tag_273:\n        /* \"#utility.yul\":2522:2644   */\n      pop\n      jump\t// out\n        /* \"#utility.yul\":2650:2789   */\n    tag_203:\n        /* \"#utility.yul\":2696:2701   */\n      0x00\n        /* \"#utility.yul\":2734:2740   */\n      dup2\n        /* \"#utility.yul\":2721:2741   */\n      calldataload\n        /* \"#utility.yul\":2712:2741   */\n      swap1\n      pop\n        /* \"#utility.yul\":2750:2783   */\n      tag_275\n        /* \"#utility.yul\":2777:2782   */\n      dup2\n        /* \"#utility.yul\":2750:2783   */\n      tag_202\n      jump\t// in\n    tag_275:\n        /* \"#utility.yul\":2650:2789   */\n      swap3\n      swap2\n      pop\n      pop\n      jump\t// out\n        /* \"#utility.yul\":2795:3124   */\n    tag_32:\n        /* \"#utility.yul\":2854:2860   */\n      0x00\n        /* \"#utility.yul\":2903:2905   */\n      0x20\n        /* \"#utility.yul\":2891:2900   */\n      dup3\n        /* \"#utility.yul\":2882:2889   */\n      dup5\n        /* \"#utility.yul\":2878:2901   */\n      sub\n        /* \"#utility.yul\":2874:2906   */\n      slt\n        /* \"#utility.yul\":2871:2990   */\n      iszero\n      tag_277\n      jumpi\n        /* \"#utility.yul\":2909:2988   */\n      tag_278\n      tag_191\n      jump\t// in\n    tag_278:\n        /* \"#utility.yul\":2871:2990   */\n    tag_277:\n        /* \"#utility.yul\":3029:3030   */\n      0x00\n        /* \"#utility.yul\":3054:3107   */\n      tag_279\n        /* \"#utility.yul\":3099:3106   */\n      dup5\n        /* \"#utility.yul\":3090:3096   */\n      dup3\n        /* \"#utility.yul\":3079:3088   */\n      dup6\n        /* \"#utility.yul\":3075:3097   */\n      add\n        /* \"#utility.yul\":3054:3107   */\n      tag_203\n      jump\t// in\n    tag_279:\n        /* \"#utility.yul\":3044:3107   */\n      swap2\n      pop\n        /* \"#utility.yul\":3000:3117   */\n      pop\n        /* \"#utility.yul\":2795:3124   */\n      swap3\n      swap2\n      pop\n      pop\n      jump\t// out\n        /* \"#utility.yul\":3130:3248   */\n    tag_204:\n        /* \"#utility.yul\":3217:3241   */\n      tag_281\n        /* \"#utility.yul\":3235:3240   */\n      dup2\n        /* \"#utility.yul\":3217:3241   */\n      tag_197\n      jump\t// in\n    tag_281:\n        /* \"#utility.yul\":3212:3215   */\n      dup3\n        /* \"#utility.yul\":3205:3242   */\n      mstore\n        /* \"#utility.yul\":3130:3248   */\n      pop\n      pop\n      jump\t// out\n        /* \"#utility.yul\":3254:3476   */\n    tag_35:\n        /* \"#utility.yul\":3347:3351   */\n      0x00\n        /* \"#utility.yul\":3385:3387   */\n      0x20\n        /* \"#utility.yul\":3374:3383   */\n      dup3\n        /* \"#utility.yul\":3370:3388   */\n      add\n        /* \"#utility.yul\":3362:3388   */\n      swap1\n      pop\n        /* \"#utility.yul\":3398:3469   */\n      tag_283\n        /* \"#utility.yul\":3466:3467   */\n      0x00\n        /* \"#utility.yul\":3455:3464   */\n      dup4\n        /* \"#utility.yul\":3451:3468   */\n      add\n        /* \"#utility.yul\":3442:3448   */\n      dup5\n        /* \"#utility.yul\":3398:3469   */\n      tag_204\n      jump\t// in\n    tag_283:\n        /* \"#utility.yul\":3254:3476   */\n      swap3\n      swap2\n      pop\n      pop\n      jump\t// out\n        /* \"#utility.yul\":3482:3956   */\n    tag_43:\n        /* \"#utility.yul\":3550:3556   */\n      0x00\n        /* \"#utility.yul\":3558:3564   */\n      0x00\n        /* \"#utility.yul\":3607:3609   */\n      0x40\n        /* \"#utility.yul\":3595:3604   */\n      dup4\n        /* \"#utility.yul\":3586:3593   */\n      dup6\n        /* \"#utility.yul\":3582:3605   */\n      sub\n        /* \"#utility.yul\":3578:3610   */\n      slt\n        /* \"#utility.yul\":3575:3694   */\n      iszero\n      tag_285\n      jumpi\n        /* \"#utility.yul\":3613:3692   */\n      tag_286\n      tag_191\n      jump\t// in\n    tag_286:\n        /* \"#utility.yul\":3575:3694   */\n    tag_285:\n        /* \"#utility.yul\":3733:3734   */\n      0x00\n        /* \"#utility.yul\":3758:3811   */\n      tag_287\n        /* \"#utility.yul\":3803:3810   */\n      dup6\n        /* \"#utility.yul\":3794:3800   */\n      dup3\n        /* \"#utility.yul\":3783:3792   */\n      dup7\n        /* \"#utility.yul\":3779:3801   */\n      add\n        /* \"#utility.yul\":3758:3811   */\n      tag_203\n      jump\t// in\n    tag_287:\n        /* \"#utility.yul\":3748:3811   */\n      swap3\n      pop\n        /* \"#utility.yul\":3704:3821   */\n      pop\n        /* \"#utility.yul\":3860:3862   */\n      0x20\n        /* \"#utility.yul\":3886:3939   */\n      tag_288\n        /* \"#utility.yul\":3931:3938   */\n      dup6\n        /* \"#utility.yul\":3922:3928   */\n      dup3\n        /* \"#utility.yul\":3911:3920   */\n      dup7\n        /* \"#utility.yul\":3907:3929   */\n      add\n        /* \"#utility.yul\":3886:3939   */\n      tag_203\n      jump\t// in\n    tag_288:\n        /* \"#utility.yul\":3876:3939   */\n      swap2\n      pop\n        /* \"#utility.yul\":3831:3949   */\n      pop\n        /* \"#utility.yul\":3482:3956   */\n      swap3\n      pop\n      swap3\n      swap1\n      pop\n      jump\t// out\n        /* \"#utility.yul\":3962:4436   */\n    tag_53:\n        /* \"#utility.yul\":4030:4036   */\n      0x00\n        /* \"#utility.yul\":4038:4044   */\n      0x00\n        /* \"#utility.yul\":4087:4089   */\n      0x40\n        /* \"#utility.yul\":4075:4084   */\n      dup4\n        /* \"#utility.yul\":4066:4073   */\n      dup6\n        /* \"#utility.yul\":4062:4085   */\n      sub\n        /* \"#utility.yul\":4058:4090   */\n      slt\n        /* \"#utility.yul\":4055:4174   */\n      iszero\n      tag_290\n      jumpi\n        /* \"#utility.yul\":4093:4172   */\n      tag_291\n      tag_191\n      jump\t// in\n    tag_291:\n        /* \"#utility.yul\":4055:4174   */\n    tag_290:\n        /* \"#utility.yul\":4213:4214   */\n      0x00\n        /* \"#utility.yul\":4238:4291   */\n      tag_292\n        /* \"#utility.yul\":4283:4290   */\n      dup6\n        /* \"#utility.yul\":4274:4280   */\n      dup3\n        /* \"#utility.yul\":4263:4272   */\n      dup7\n        /* \"#utility.yul\":4259:4281   */\n      add\n        /* \"#utility.yul\":4238:4291   */\n      tag_203\n      jump\t// in\n    tag_292:\n        /* \"#utility.yul\":4228:4291   */\n      swap3\n      pop\n        /* \"#utility.yul\":4184:4301   */\n      pop\n        /* \"#utility.yul\":4340:4342   */\n      0x20\n        /* \"#utility.yul\":4366:4419   */\n      tag_293\n        /* \"#utility.yul\":4411:4418   */\n      dup6\n        /* \"#utility.yul\":4402:4408   */\n      dup3\n        /* \"#utility.yul\":4391:4400   */\n      dup7\n        /* \"#utility.yul\":4387:4409   */\n      add\n        /* \"#utility.yul\":4366:4419   */\n      tag_199\n      jump\t// in\n    tag_293:\n        /* \"#utility.yul\":4356:4419   */\n      swap2\n      pop\n        /* \"#utility.yul\":4311:4429   */\n      pop\n        /* \"#utility.yul\":3962:4436   */\n      swap3\n      pop\n      swap3\n      swap1\n      pop\n      jump\t// out\n        /* \"#utility.yul\":4442:4532   */\n    tag_205:\n        /* \"#utility.yul\":4476:4483   */\n      0x00\n        /* \"#utility.yul\":4519:4524   */\n      dup2\n        /* \"#utility.yul\":4512:4525   */\n      iszero\n        /* \"#utility.yul\":4505:4526   */\n      iszero\n        /* \"#utility.yul\":4494:4526   */\n      swap1\n      pop\n        /* \"#utility.yul\":4442:4532   */\n      swap2\n      swap1\n      pop\n      jump\t// out\n        /* \"#utility.yul\":4538:4647   */\n    tag_206:\n        /* \"#utility.yul\":4619:4640   */\n      tag_296\n        /* \"#utility.yul\":4634:4639   */\n      dup2\n        /* \"#utility.yul\":4619:4640   */\n      tag_205\n      jump\t// in\n    tag_296:\n        /* \"#utility.yul\":4614:4617   */\n      dup3\n        /* \"#utility.yul\":4607:4641   */\n      mstore\n        /* \"#utility.yul\":4538:4647   */\n      pop\n      pop\n      jump\t// out\n        /* \"#utility.yul\":4653:4863   */\n    tag_74:\n        /* \"#utility.yul\":4740:4744   */\n      0x00\n        /* \"#utility.yul\":4778:4780   */\n      0x20\n        /* \"#utility.yul\":4767:4776   */\n      dup3\n        /* \"#utility.yul\":4763:4781   */\n      add\n        /* \"#utility.yul\":4755:4781   */\n      swap1\n      pop\n        /* \"#utility.yul\":4791:4856   */\n      tag_298\n        /* \"#utility.yul\":4853:4854   */\n      0x00\n        /* \"#utility.yul\":4842:4851   */\n      dup4\n        /* \"#utility.yul\":4838:4855   */\n      add\n        /* \"#utility.yul\":4829:4835   */\n      dup5\n        /* \"#utility.yul\":4791:4856   */\n      tag_206\n      jump\t// in\n    tag_298:\n        /* \"#utility.yul\":4653:4863   */\n      swap3\n      swap2\n      pop\n      pop\n      jump\t// out\n        /* \"#utility.yul\":4869:5038   */\n    tag_207:\n        /* \"#utility.yul\":4953:4964   */\n      0x00\n        /* \"#utility.yul\":4987:4993   */\n      dup3\n        /* \"#utility.yul\":4982:4985   */\n      dup3\n        /* \"#utility.yul\":4975:4994   */\n      mstore\n        /* \"#utility.yul\":5027:5031   */\n      0x20\n        /* \"#utility.yul\":5022:5025   */\n      dup3\n        /* \"#utility.yul\":5018:5032   */\n      add\n        /* \"#utility.yul\":5003:5032   */\n      swap1\n      pop\n        /* \"#utility.yul\":4869:5038   */\n      swap3\n      swap2\n      pop\n      pop\n      jump\t// out\n        /* \"#utility.yul\":5044:5216   */\n    tag_208:\n        /* \"#utility.yul\":5184:5208   */\n      0x596f7520617265206e6f74207265676973746572656400000000000000000000\n        /* \"#utility.yul\":5180:5181   */\n      0x00\n        /* \"#utility.yul\":5172:5178   */\n      dup3\n        /* \"#utility.yul\":5168:5182   */\n      add\n        /* \"#utility.yul\":5161:5209   */\n      mstore\n        /* \"#utility.yul\":5044:5216   */\n      pop\n      jump\t// out\n        /* \"#utility.yul\":5222:5588   */\n    tag_209:\n        /* \"#utility.yul\":5364:5367   */\n      0x00\n        /* \"#utility.yul\":5385:5452   */\n      tag_302\n        /* \"#utility.yul\":5449:5451   */\n      0x16\n        /* \"#utility.yul\":5444:5447   */\n      dup4\n        /* \"#utility.yul\":5385:5452   */\n      tag_207\n      jump\t// in\n    tag_302:\n        /* \"#utility.yul\":5378:5452   */\n      swap2\n      pop\n        /* \"#utility.yul\":5461:5554   */\n      tag_303\n        /* \"#utility.yul\":5550:5553   */\n      dup3\n        /* \"#utility.yul\":5461:5554   */\n      tag_208\n      jump\t// in\n    tag_303:\n        /* \"#utility.yul\":5579:5581   */\n      0x20\n        /* \"#utility.yul\":5574:5577   */\n      dup3\n        /* \"#utility.yul\":5570:5582   */\n      add\n        /* \"#utility.yul\":5563:5582   */\n      swap1\n      pop\n        /* \"#utility.yul\":5222:5588   */\n      swap2\n      swap1\n      pop\n      jump\t// out\n        /* \"#utility.yul\":5594:6013   */\n    tag_82:\n        /* \"#utility.yul\":5760:5764   */\n      0x00\n        /* \"#utility.yul\":5798:5800   */\n      0x20\n        /* \"#utility.yul\":5787:5796   */\n      dup3\n        /* \"#utility.yul\":5783:5801   */\n      add\n        /* \"#utility.yul\":5775:5801   */\n      swap1\n      pop\n        /* \"#utility.yul\":5847:5856   */\n      dup2\n        /* \"#utility.yul\":5841:5845   */\n      dup2\n        /* \"#utility.yul\":5837:5857   */\n      sub\n        /* \"#utility.yul\":5833:5834   */\n      0x00\n        /* \"#utility.yul\":5822:5831   */\n      dup4\n        /* \"#utility.yul\":5818:5835   */\n      add\n        /* \"#utility.yul\":5811:5858   */\n      mstore\n        /* \"#utility.yul\":5875:6006   */\n      tag_305\n        /* \"#utility.yul\":6001:6005   */\n      dup2\n        /* \"#utility.yul\":5875:6006   */\n      tag_209\n      jump\t// in\n    tag_305:\n        /* \"#utility.yul\":5867:6006   */\n      swap1\n      pop\n        /* \"#utility.yul\":5594:6013   */\n      swap2\n      swap1\n      pop\n      jump\t// out\n        /* \"#utility.yul\":6019:6184   */\n    tag_210:\n        /* \"#utility.yul\":6159:6176   */\n      0x496e76616c696420616464726573730000000000000000000000000000000000\n        /* \"#utility.yul\":6155:6156   */\n      0x00\n        /* \"#utility.yul\":6147:6153   */\n      dup3\n        /* \"#utility.yul\":6143:6157   */\n      add\n        /* \"#utility.yul\":6136:6177   */\n      mstore\n        /* \"#utility.yul\":6019:6184   */\n      pop\n      jump\t// out\n        /* \"#utility.yul\":6190:6556   */\n    tag_211:\n        /* \"#utility.yul\":6332:6335   */\n      0x00\n        /* \"#utility.yul\":6353:6420   */\n      tag_308\n        /* \"#utility.yul\":6417:6419   */\n      0x0f\n        /* \"#utility.yul\":6412:6415   */\n      dup4\n        /* \"#utility.yul\":6353:6420   */\n      tag_207\n      jump\t// in\n    tag_308:\n        /* \"#utility.yul\":6346:6420   */\n      swap2\n      pop\n        /* \"#utility.yul\":6429:6522   */\n      tag_309\n        /* \"#utility.yul\":6518:6521   */\n      dup3\n        /* \"#utility.yul\":6429:6522   */\n      tag_210\n      jump\t// in\n    tag_309:\n        /* \"#utility.yul\":6547:6549   */\n      0x20\n        /* \"#utility.yul\":6542:6545   */\n      dup3\n        /* \"#utility.yul\":6538:6550   */\n      add\n        /* \"#utility.yul\":6531:6550   */\n      swap1\n      pop\n        /* \"#utility.yul\":6190:6556   */\n      swap2\n      swap1\n      pop\n      jump\t// out\n        /* \"#utility.yul\":6562:6981   */\n    tag_86:\n        /* \"#utility.yul\":6728:6732   */\n      0x00\n        /* \"#utility.yul\":6766:6768   */\n      0x20\n        /* \"#utility.yul\":6755:6764   */\n      dup3\n        /* \"#utility.yul\":6751:6769   */\n      add\n        /* \"#utility.yul\":6743:6769   */\n      swap1\n      pop\n        /* \"#utility.yul\":6815:6824   */\n      dup2\n        /* \"#utility.yul\":6809:6813   */\n      dup2\n        /* \"#utility.yul\":6805:6825   */\n      sub\n        /* \"#utility.yul\":6801:6802   */\n      0x00\n        /* \"#utility.yul\":6790:6799   */\n      dup4\n        /* \"#utility.yul\":6786:6803   */\n      add\n        /* \"#utility.yul\":6779:6826   */\n      mstore\n        /* \"#utility.yul\":6843:6974   */\n      tag_311\n        /* \"#utility.yul\":6969:6973   */\n      dup2\n        /* \"#utility.yul\":6843:6974   */\n      tag_211\n      jump\t// in\n    tag_311:\n        /* \"#utility.yul\":6835:6974   */\n      swap1\n      pop\n        /* \"#utility.yul\":6562:6981   */\n      swap2\n      swap1\n      pop\n      jump\t// out\n        /* \"#utility.yul\":6987:7161   */\n    tag_212:\n        /* \"#utility.yul\":7127:7153   */\n      0x526563697069656e74206e6f7420726567697374657265640000000000000000\n        /* \"#utility.yul\":7123:7124   */\n      0x00\n        /* \"#utility.yul\":7115:7121   */\n      dup3\n        /* \"#utility.yul\":7111:7125   */\n      add\n        /* \"#utility.yul\":7104:7154   */\n      mstore\n        /* \"#utility.yul\":6987:7161   */\n      pop\n      jump\t// out\n        /* \"#utility.yul\":7167:7533   */\n    tag_213:\n        /* \"#utility.yul\":7309:7312   */\n      0x00\n        /* \"#utility.yul\":7330:7397   */\n      tag_314\n        /* \"#utility.yul\":7394:7396   */\n      0x18\n        /* \"#utility.yul\":7389:7392   */\n      dup4\n        /* \"#utility.yul\":7330:7397   */\n      tag_207\n      jump\t// in\n    tag_314:\n        /* \"#utility.yul\":7323:7397   */\n      swap2\n      pop\n        /* \"#utility.yul\":7406:7499   */\n      tag_315\n        /* \"#utility.yul\":7495:7498   */\n      dup3\n        /* \"#utility.yul\":7406:7499   */\n      tag_212\n      jump\t// in\n    tag_315:\n        /* \"#utility.yul\":7524:7526   */\n      0x20\n        /* \"#utility.yul\":7519:7522   */\n      dup3\n        /* \"#utility.yul\":7515:7527   */\n      add\n        /* \"#utility.yul\":7508:7527   */\n      swap1\n      pop\n        /* \"#utility.yul\":7167:7533   */\n      swap2\n      swap1\n      pop\n      jump\t// out\n        /* \"#utility.yul\":7539:7958   */\n    tag_89:\n        /* \"#utility.yul\":7705:7709   */\n      0x00\n        /* \"#utility.yul\":7743:7745   */\n      0x20\n        /* \"#utility.yul\":7732:7741   */\n      dup3\n        /* \"#utility.yul\":7728:7746   */\n      add\n        /* \"#utility.yul\":7720:7746   */\n      swap1\n      pop\n        /* \"#utility.yul\":7792:7801   */\n      dup2\n        /* \"#utility.yul\":7786:7790   */\n      dup2\n        /* \"#utility.yul\":7782:7802   */\n      sub\n        /* \"#utility.yul\":7778:7779   */\n      0x00\n        /* \"#utility.yul\":7767:7776   */\n      dup4\n        /* \"#utility.yul\":7763:7780   */\n      add\n        /* \"#utility.yul\":7756:7803   */\n      mstore\n        /* \"#utility.yul\":7820:7951   */\n      tag_317\n        /* \"#utility.yul\":7946:7950   */\n      dup2\n        /* \"#utility.yul\":7820:7951   */\n      tag_213\n      jump\t// in\n    tag_317:\n        /* \"#utility.yul\":7812:7951   */\n      swap1\n      pop\n        /* \"#utility.yul\":7539:7958   */\n      swap2\n      swap1\n      pop\n      jump\t// out\n        /* \"#utility.yul\":7964:8134   */\n    tag_214:\n        /* \"#utility.yul\":8104:8126   */\n      0x496e73756666696369656e742062616c616e6365000000000000000000000000\n        /* \"#utility.yul\":8100:8101   */\n      0x00\n        /* \"#utility.yul\":8092:8098   */\n      dup3\n        /* \"#utility.yul\":8088:8102   */\n      add\n        /* \"#utility.yul\":8081:8127   */\n      mstore\n        /* \"#utility.yul\":7964:8134   */\n      pop\n      jump\t// out\n        /* \"#utility.yul\":8140:8506   */\n    tag_215:\n        /* \"#utility.yul\":8282:8285   */\n      0x00\n        /* \"#utility.yul\":8303:8370   */\n      tag_320\n        /* \"#utility.yul\":8367:8369   */\n      0x14\n        /* \"#utility.yul\":8362:8365   */\n      dup4\n        /* \"#utility.yul\":8303:8370   */\n      tag_207\n      jump\t// in\n    tag_320:\n        /* \"#utility.yul\":8296:8370   */\n      swap2\n      pop\n        /* \"#utility.yul\":8379:8472   */\n      tag_321\n        /* \"#utility.yul\":8468:8471   */\n      dup3\n        /* \"#utility.yul\":8379:8472   */\n      tag_214\n      jump\t// in\n    tag_321:\n        /* \"#utility.yul\":8497:8499   */\n      0x20\n        /* \"#utility.yul\":8492:8495   */\n      dup3\n        /* \"#utility.yul\":8488:8500   */\n      add\n        /* \"#utility.yul\":8481:8500   */\n      swap1\n      pop\n        /* \"#utility.yul\":8140:8506   */\n      swap2\n      swap1\n      pop\n      jump\t// out\n        /* \"#utility.yul\":8512:8931   */\n    tag_92:\n        /* \"#utility.yul\":8678:8682   */\n      0x00\n        /* \"#utility.yul\":8716:8718   */\n      0x20\n        /* \"#utility.yul\":8705:8714   */\n      dup3\n        /* \"#utility.yul\":8701:8719   */\n      add\n        /* \"#utility.yul\":8693:8719   */\n      swap1\n      pop\n        /* \"#utility.yul\":8765:8774   */\n      dup2\n        /* \"#utility.yul\":8759:8763   */\n      dup2\n        /* \"#utility.yul\":8755:8775   */\n      sub\n        /* \"#utility.yul\":8751:8752   */\n      0x00\n        /* \"#utility.yul\":8740:8749   */\n      dup4\n        /* \"#utility.yul\":8736:8753   */\n      add\n        /* \"#utility.yul\":8729:8776   */\n      mstore\n        /* \"#utility.yul\":8793:8924   */\n      tag_323\n        /* \"#utility.yul\":8919:8923   */\n      dup2\n        /* \"#utility.yul\":8793:8924   */\n      tag_215\n      jump\t// in\n    tag_323:\n        /* \"#utility.yul\":8785:8924   */\n      swap1\n      pop\n        /* \"#utility.yul\":8512:8931   */\n      swap2\n      swap1\n      pop\n      jump\t// out\n        /* \"#utility.yul\":8937:9117   */\n    tag_216:\n        /* \"#utility.yul\":8985:9062   */\n      0x4e487b7100000000000000000000000000000000000000000000000000000000\n        /* \"#utility.yul\":8982:8983   */\n      0x00\n        /* \"#utility.yul\":8975:9063   */\n      mstore\n        /* \"#utility.yul\":9082:9086   */\n      0x11\n        /* \"#utility.yul\":9079:9080   */\n      0x04\n        /* \"#utility.yul\":9072:9087   */\n      mstore\n        /* \"#utility.yul\":9106:9110   */\n      0x24\n        /* \"#utility.yul\":9103:9104   */\n      0x00\n        /* \"#utility.yul\":9096:9111   */\n      revert\n        /* \"#utility.yul\":9123:9317   */\n    tag_94:\n        /* \"#utility.yul\":9163:9167   */\n      0x00\n        /* \"#utility.yul\":9183:9203   */\n      tag_326\n        /* \"#utility.yul\":9201:9202   */\n      dup3\n        /* \"#utility.yul\":9183:9203   */\n      tag_197\n      jump\t// in\n    tag_326:\n        /* \"#utility.yul\":9178:9203   */\n      swap2\n      pop\n        /* \"#utility.yul\":9217:9237   */\n      tag_327\n        /* \"#utility.yul\":9235:9236   */\n      dup4\n        /* \"#utility.yul\":9217:9237   */\n      tag_197\n      jump\t// in\n    tag_327:\n        /* \"#utility.yul\":9212:9237   */\n      swap3\n      pop\n        /* \"#utility.yul\":9261:9262   */\n      dup3\n        /* \"#utility.yul\":9258:9259   */\n      dup3\n        /* \"#utility.yul\":9254:9263   */\n      sub\n        /* \"#utility.yul\":9246:9263   */\n      swap1\n      pop\n        /* \"#utility.yul\":9285:9286   */\n      dup2\n        /* \"#utility.yul\":9279:9283   */\n      dup2\n        /* \"#utility.yul\":9276:9287   */\n      gt\n        /* \"#utility.yul\":9273:9310   */\n      iszero\n      tag_328\n      jumpi\n        /* \"#utility.yul\":9290:9308   */\n      tag_329\n      tag_216\n      jump\t// in\n    tag_329:\n        /* \"#utility.yul\":9273:9310   */\n    tag_328:\n        /* \"#utility.yul\":9123:9317   */\n      swap3\n      swap2\n      pop\n      pop\n      jump\t// out\n        /* \"#utility.yul\":9323:9514   */\n    tag_98:\n        /* \"#utility.yul\":9363:9366   */\n      0x00\n        /* \"#utility.yul\":9382:9402   */\n      tag_331\n        /* \"#utility.yul\":9400:9401   */\n      dup3\n        /* \"#utility.yul\":9382:9402   */\n      tag_197\n      jump\t// in\n    tag_331:\n        /* \"#utility.yul\":9377:9402   */\n      swap2\n      pop\n        /* \"#utility.yul\":9416:9436   */\n      tag_332\n        /* \"#utility.yul\":9434:9435   */\n      dup4\n        /* \"#utility.yul\":9416:9436   */\n      tag_197\n      jump\t// in\n    tag_332:\n        /* \"#utility.yul\":9411:9436   */\n      swap3\n      pop\n        /* \"#utility.yul\":9459:9460   */\n      dup3\n        /* \"#utility.yul\":9456:9457   */\n      dup3\n        /* \"#utility.yul\":9452:9461   */\n      add\n        /* \"#utility.yul\":9445:9461   */\n      swap1\n      pop\n        /* \"#utility.yul\":9480:9483   */\n      dup1\n        /* \"#utility.yul\":9477:9478   */\n      dup3\n        /* \"#utility.yul\":9474:9484   */\n      gt\n        /* \"#utility.yul\":9471:9507   */\n      iszero\n      tag_333\n      jumpi\n        /* \"#utility.yul\":9487:9505   */\n      tag_334\n      tag_216\n      jump\t// in\n    tag_334:\n        /* \"#utility.yul\":9471:9507   */\n    tag_333:\n        /* \"#utility.yul\":9323:9514   */\n      swap3\n      swap2\n      pop\n      pop\n      jump\t// out\n        /* \"#utility.yul\":9520:9667   */\n    tag_217:\n        /* \"#utility.yul\":9621:9632   */\n      0x00\n        /* \"#utility.yul\":9658:9661   */\n      dup2\n        /* \"#utility.yul\":9643:9661   */\n      swap1\n      pop\n        /* \"#utility.yul\":9520:9667   */\n      swap3\n      swap2\n      pop\n      pop\n      jump\t// out\n        /* \"#utility.yul\":9673:9787   */\n    tag_218:\n      pop\n      jump\t// out\n        /* \"#utility.yul\":9793:10191   */\n    tag_219:\n        /* \"#utility.yul\":9952:9955   */\n      0x00\n        /* \"#utility.yul\":9973:10056   */\n      tag_338\n        /* \"#utility.yul\":10054:10055   */\n      0x00\n        /* \"#utility.yul\":10049:10052   */\n      dup4\n        /* \"#utility.yul\":9973:10056   */\n      tag_217\n      jump\t// in\n    tag_338:\n        /* \"#utility.yul\":9966:10056   */\n      swap2\n      pop\n        /* \"#utility.yul\":10065:10158   */\n      tag_339\n        /* \"#utility.yul\":10154:10157   */\n      dup3\n        /* \"#utility.yul\":10065:10158   */\n      tag_218\n      jump\t// in\n    tag_339:\n        /* \"#utility.yul\":10183:10184   */\n      0x00\n        /* \"#utility.yul\":10178:10181   */\n      dup3\n        /* \"#utility.yul\":10174:10185   */\n      add\n        /* \"#utility.yul\":10167:10185   */\n      swap1\n      pop\n        /* \"#utility.yul\":9793:10191   */\n      swap2\n      swap1\n      pop\n      jump\t// out\n        /* \"#utility.yul\":10197:10576   */\n    tag_109:\n        /* \"#utility.yul\":10381:10384   */\n      0x00\n        /* \"#utility.yul\":10403:10550   */\n      tag_341\n        /* \"#utility.yul\":10546:10549   */\n      dup3\n        /* \"#utility.yul\":10403:10550   */\n      tag_219\n      jump\t// in\n    tag_341:\n        /* \"#utility.yul\":10396:10550   */\n      swap2\n      pop\n        /* \"#utility.yul\":10567:10570   */\n      dup2\n        /* \"#utility.yul\":10560:10570   */\n      swap1\n      pop\n        /* \"#utility.yul\":10197:10576   */\n      swap2\n      swap1\n      pop\n      jump\t// out\n        /* \"#utility.yul\":10582:10749   */\n    tag_220:\n        /* \"#utility.yul\":10722:10741   */\n      0x5769746864726177616c206661696c6564000000000000000000000000000000\n        /* \"#utility.yul\":10718:10719   */\n      0x00\n        /* \"#utility.yul\":10710:10716   */\n      dup3\n        /* \"#utility.yul\":10706:10720   */\n      add\n        /* \"#utility.yul\":10699:10742   */\n      mstore\n        /* \"#utility.yul\":10582:10749   */\n      pop\n      jump\t// out\n        /* \"#utility.yul\":10755:11121   */\n    tag_221:\n        /* \"#utility.yul\":10897:10900   */\n      0x00\n        /* \"#utility.yul\":10918:10985   */\n      tag_344\n        /* \"#utility.yul\":10982:10984   */\n      0x11\n        /* \"#utility.yul\":10977:10980   */\n      dup4\n        /* \"#utility.yul\":10918:10985   */\n      tag_207\n      jump\t// in\n    tag_344:\n        /* \"#utility.yul\":10911:10985   */\n      swap2\n      pop\n        /* \"#utility.yul\":10994:11087   */\n      tag_345\n        /* \"#utility.yul\":11083:11086   */\n      dup3\n        /* \"#utility.yul\":10994:11087   */\n      tag_220\n      jump\t// in\n    tag_345:\n        /* \"#utility.yul\":11112:11114   */\n      0x20\n        /* \"#utility.yul\":11107:11110   */\n      dup3\n        /* \"#utility.yul\":11103:11115   */\n      add\n        /* \"#utility.yul\":11096:11115   */\n      swap1\n      pop\n        /* \"#utility.yul\":10755:11121   */\n      swap2\n      swap1\n      pop\n      jump\t// out\n        /* \"#utility.yul\":11127:11546   */\n    tag_115:\n        /* \"#utility.yul\":11293:11297   */\n      0x00\n        /* \"#utility.yul\":11331:11333   */\n      0x20\n        /* \"#utility.yul\":11320:11329   */\n      dup3\n        /* \"#utility.yul\":11316:11334   */\n      add\n        /* \"#utility.yul\":11308:11334   */\n      swap1\n      pop\n        /* \"#utility.yul\":11380:11389   */\n      dup2\n        /* \"#utility.yul\":11374:11378   */\n      dup2\n        /* \"#utility.yul\":11370:11390   */\n      sub\n        /* \"#utility.yul\":11366:11367   */\n      0x00\n        /* \"#utility.yul\":11355:11364   */\n      dup4\n        /* \"#utility.yul\":11351:11368   */\n      add\n        /* \"#utility.yul\":11344:11391   */\n      mstore\n        /* \"#utility.yul\":11408:11539   */\n      tag_347\n        /* \"#utility.yul\":11534:11538   */\n      dup2\n        /* \"#utility.yul\":11408:11539   */\n      tag_221\n      jump\t// in\n    tag_347:\n        /* \"#utility.yul\":11400:11539   */\n      swap1\n      pop\n        /* \"#utility.yul\":11127:11546   */\n      swap2\n      swap1\n      pop\n      jump\t// out\n        /* \"#utility.yul\":11552:11725   */\n    tag_222:\n        /* \"#utility.yul\":11692:11717   */\n      0x4372656469746f72206e6f742072656769737465726564000000000000000000\n        /* \"#utility.yul\":11688:11689   */\n      0x00\n        /* \"#utility.yul\":11680:11686   */\n      dup3\n        /* \"#utility.yul\":11676:11690   */\n      add\n        /* \"#utility.yul\":11669:11718   */\n      mstore\n        /* \"#utility.yul\":11552:11725   */\n      pop\n      jump\t// out\n        /* \"#utility.yul\":11731:12097   */\n    tag_223:\n        /* \"#utility.yul\":11873:11876   */\n      0x00\n        /* \"#utility.yul\":11894:11961   */\n      tag_350\n        /* \"#utility.yul\":11958:11960   */\n      0x17\n        /* \"#utility.yul\":11953:11956   */\n      dup4\n        /* \"#utility.yul\":11894:11961   */\n      tag_207\n      jump\t// in\n    tag_350:\n        /* \"#utility.yul\":11887:11961   */\n      swap2\n      pop\n        /* \"#utility.yul\":11970:12063   */\n      tag_351\n        /* \"#utility.yul\":12059:12062   */\n      dup3\n        /* \"#utility.yul\":11970:12063   */\n      tag_222\n      jump\t// in\n    tag_351:\n        /* \"#utility.yul\":12088:12090   */\n      0x20\n        /* \"#utility.yul\":12083:12086   */\n      dup3\n        /* \"#utility.yul\":12079:12091   */\n      add\n        /* \"#utility.yul\":12072:12091   */\n      swap1\n      pop\n        /* \"#utility.yul\":11731:12097   */\n      swap2\n      swap1\n      pop\n      jump\t// out\n        /* \"#utility.yul\":12103:12522   */\n    tag_124:\n        /* \"#utility.yul\":12269:12273   */\n      0x00\n        /* \"#utility.yul\":12307:12309   */\n      0x20\n        /* \"#utility.yul\":12296:12305   */\n      dup3\n        /* \"#utility.yul\":12292:12310   */\n      add\n        /* \"#utility.yul\":12284:12310   */\n      swap1\n      pop\n        /* \"#utility.yul\":12356:12365   */\n      dup2\n        /* \"#utility.yul\":12350:12354   */\n      dup2\n        /* \"#utility.yul\":12346:12366   */\n      sub\n        /* \"#utility.yul\":12342:12343   */\n      0x00\n        /* \"#utility.yul\":12331:12340   */\n      dup4\n        /* \"#utility.yul\":12327:12344   */\n      add\n        /* \"#utility.yul\":12320:12367   */\n      mstore\n        /* \"#utility.yul\":12384:12515   */\n      tag_353\n        /* \"#utility.yul\":12510:12514   */\n      dup2\n        /* \"#utility.yul\":12384:12515   */\n      tag_223\n      jump\t// in\n    tag_353:\n        /* \"#utility.yul\":12376:12515   */\n      swap1\n      pop\n        /* \"#utility.yul\":12103:12522   */\n      swap2\n      swap1\n      pop\n      jump\t// out\n        /* \"#utility.yul\":12528:12707   */\n    tag_224:\n        /* \"#utility.yul\":12668:12699   */\n      0x416d6f756e74206d7573742062652067726561746572207468616e2030000000\n        /* \"#utility.yul\":12664:12665   */\n      0x00\n        /* \"#utility.yul\":12656:12662   */\n      dup3\n        /* \"#utility.yul\":12652:12666   */\n      add\n        /* \"#utility.yul\":12645:12700   */\n      mstore\n        /* \"#utility.yul\":12528:12707   */\n      pop\n      jump\t// out\n        /* \"#utility.yul\":12713:13079   */\n    tag_225:\n        /* \"#utility.yul\":12855:12858   */\n      0x00\n        /* \"#utility.yul\":12876:12943   */\n      tag_356\n        /* \"#utility.yul\":12940:12942   */\n      0x1d\n        /* \"#utility.yul\":12935:12938   */\n      dup4\n        /* \"#utility.yul\":12876:12943   */\n      tag_207\n      jump\t// in\n    tag_356:\n        /* \"#utility.yul\":12869:12943   */\n      swap2\n      pop\n        /* \"#utility.yul\":12952:13045   */\n      tag_357\n        /* \"#utility.yul\":13041:13044   */\n      dup3\n        /* \"#utility.yul\":12952:13045   */\n      tag_224\n      jump\t// in\n    tag_357:\n        /* \"#utility.yul\":13070:13072   */\n      0x20\n        /* \"#utility.yul\":13065:13068   */\n      dup3\n        /* \"#utility.yul\":13061:13073   */\n      add\n        /* \"#utility.yul\":13054:13073   */\n      swap1\n      pop\n        /* \"#utility.yul\":12713:13079   */\n      swap2\n      swap1\n      pop\n      jump\t// out\n        /* \"#utility.yul\":13085:13504   */\n    tag_127:\n        /* \"#utility.yul\":13251:13255   */\n      0x00\n        /* \"#utility.yul\":13289:13291   */\n      0x20\n        /* \"#utility.yul\":13278:13287   */\n      dup3\n        /* \"#utility.yul\":13274:13292   */\n      add\n        /* \"#utility.yul\":13266:13292   */\n      swap1\n      pop\n        /* \"#utility.yul\":13338:13347   */\n      dup2\n        /* \"#utility.yul\":13332:13336   */\n      dup2\n        /* \"#utility.yul\":13328:13348   */\n      sub\n        /* \"#utility.yul\":13324:13325   */\n      0x00\n        /* \"#utility.yul\":13313:13322   */\n      dup4\n        /* \"#utility.yul\":13309:13326   */\n      add\n        /* \"#utility.yul\":13302:13349   */\n      mstore\n        /* \"#utility.yul\":13366:13497   */\n      tag_359\n        /* \"#utility.yul\":13492:13496   */\n      dup2\n        /* \"#utility.yul\":13366:13497   */\n      tag_225\n      jump\t// in\n    tag_359:\n        /* \"#utility.yul\":13358:13497   */\n      swap1\n      pop\n        /* \"#utility.yul\":13085:13504   */\n      swap2\n      swap1\n      pop\n      jump\t// out\n        /* \"#utility.yul\":13510:13681   */\n    tag_226:\n        /* \"#utility.yul\":13650:13673   */\n      0x4465627420616d6f756e7420696e636f72726563740000000000000000000000\n        /* \"#utility.yul\":13646:13647   */\n      0x00\n        /* \"#utility.yul\":13638:13644   */\n      dup3\n        /* \"#utility.yul\":13634:13648   */\n      add\n        /* \"#utility.yul\":13627:13674   */\n      mstore\n        /* \"#utility.yul\":13510:13681   */\n      pop\n      jump\t// out\n        /* \"#utility.yul\":13687:14053   */\n    tag_227:\n        /* \"#utility.yul\":13829:13832   */\n      0x00\n        /* \"#utility.yul\":13850:13917   */\n      tag_362\n        /* \"#utility.yul\":13914:13916   */\n      0x15\n        /* \"#utility.yul\":13909:13912   */\n      dup4\n        /* \"#utility.yul\":13850:13917   */\n      tag_207\n      jump\t// in\n    tag_362:\n        /* \"#utility.yul\":13843:13917   */\n      swap2\n      pop\n        /* \"#utility.yul\":13926:14019   */\n      tag_363\n        /* \"#utility.yul\":14015:14018   */\n      dup3\n        /* \"#utility.yul\":13926:14019   */\n      tag_226\n      jump\t// in\n    tag_363:\n        /* \"#utility.yul\":14044:14046   */\n      0x20\n        /* \"#utility.yul\":14039:14042   */\n      dup3\n        /* \"#utility.yul\":14035:14047   */\n      add\n        /* \"#utility.yul\":14028:14047   */\n      swap1\n      pop\n        /* \"#utility.yul\":13687:14053   */\n      swap2\n      swap1\n      pop\n      jump\t// out\n        /* \"#utility.yul\":14059:14478   */\n    tag_130:\n        /* \"#utility.yul\":14225:14229   */\n      0x00\n        /* \"#utility.yul\":14263:14265   */\n      0x20\n        /* \"#utility.yul\":14252:14261   */\n      dup3\n        /* \"#utility.yul\":14248:14266   */\n      add\n        /* \"#utility.yul\":14240:14266   */\n      swap1\n      pop\n        /* \"#utility.yul\":14312:14321   */\n      dup2\n        /* \"#utility.yul\":14306:14310   */\n      dup2\n        /* \"#utility.yul\":14302:14322   */\n      sub\n        /* \"#utility.yul\":14298:14299   */\n      0x00\n        /* \"#utility.yul\":14287:14296   */\n      dup4\n        /* \"#utility.yul\":14283:14300   */\n      add\n        /* \"#utility.yul\":14276:14323   */\n      mstore\n        /* \"#utility.yul\":14340:14471   */\n      tag_365\n        /* \"#utility.yul\":14466:14470   */\n      dup2\n        /* \"#utility.yul\":14340:14471   */\n      tag_227\n      jump\t// in\n    tag_365:\n        /* \"#utility.yul\":14332:14471   */\n      swap1\n      pop\n        /* \"#utility.yul\":14059:14478   */\n      swap2\n      swap1\n      pop\n      jump\t// out\n        /* \"#utility.yul\":14484:14647   */\n    tag_228:\n        /* \"#utility.yul\":14624:14639   */\n      0x4d7573742073656e642045544800000000000000000000000000000000000000\n        /* \"#utility.yul\":14620:14621   */\n      0x00\n        /* \"#utility.yul\":14612:14618   */\n      dup3\n        /* \"#utility.yul\":14608:14622   */\n      add\n        /* \"#utility.yul\":14601:14640   */\n      mstore\n        /* \"#utility.yul\":14484:14647   */\n      pop\n      jump\t// out\n        /* \"#utility.yul\":14653:15019   */\n    tag_229:\n        /* \"#utility.yul\":14795:14798   */\n      0x00\n        /* \"#utility.yul\":14816:14883   */\n      tag_368\n        /* \"#utility.yul\":14880:14882   */\n      0x0d\n        /* \"#utility.yul\":14875:14878   */\n      dup4\n        /* \"#utility.yul\":14816:14883   */\n      tag_207\n      jump\t// in\n    tag_368:\n        /* \"#utility.yul\":14809:14883   */\n      swap2\n      pop\n        /* \"#utility.yul\":14892:14985   */\n      tag_369\n        /* \"#utility.yul\":14981:14984   */\n      dup3\n        /* \"#utility.yul\":14892:14985   */\n      tag_228\n      jump\t// in\n    tag_369:\n        /* \"#utility.yul\":15010:15012   */\n      0x20\n        /* \"#utility.yul\":15005:15008   */\n      dup3\n        /* \"#utility.yul\":15001:15013   */\n      add\n        /* \"#utility.yul\":14994:15013   */\n      swap1\n      pop\n        /* \"#utility.yul\":14653:15019   */\n      swap2\n      swap1\n      pop\n      jump\t// out\n        /* \"#utility.yul\":15025:15444   */\n    tag_146:\n        /* \"#utility.yul\":15191:15195   */\n      0x00\n        /* \"#utility.yul\":15229:15231   */\n      0x20\n        /* \"#utility.yul\":15218:15227   */\n      dup3\n        /* \"#utility.yul\":15214:15232   */\n      add\n        /* \"#utility.yul\":15206:15232   */\n      swap1\n      pop\n        /* \"#utility.yul\":15278:15287   */\n      dup2\n        /* \"#utility.yul\":15272:15276   */\n      dup2\n        /* \"#utility.yul\":15268:15288   */\n      sub\n        /* \"#utility.yul\":15264:15265   */\n      0x00\n        /* \"#utility.yul\":15253:15262   */\n      dup4\n        /* \"#utility.yul\":15249:15266   */\n      add\n        /* \"#utility.yul\":15242:15289   */\n      mstore\n        /* \"#utility.yul\":15306:15437   */\n      tag_371\n        /* \"#utility.yul\":15432:15436   */\n      dup2\n        /* \"#utility.yul\":15306:15437   */\n      tag_229\n      jump\t// in\n    tag_371:\n        /* \"#utility.yul\":15298:15437   */\n      swap1\n      pop\n        /* \"#utility.yul\":15025:15444   */\n      swap2\n      swap1\n      pop\n      jump\t// out\n        /* \"#utility.yul\":15450:15615   */\n    tag_230:\n        /* \"#utility.yul\":15590:15607   */\n      0x5472616e73666572206661696c65640000000000000000000000000000000000\n        /* \"#utility.yul\":15586:15587   */\n      0x00\n        /* \"#utility.yul\":15578:15584   */\n      dup3\n        /* \"#utility.yul\":15574:15588   */\n      add\n        /* \"#utility.yul\":15567:15608   */\n      mstore\n        /* \"#utility.yul\":15450:15615   */\n      pop\n      jump\t// out\n        /* \"#utility.yul\":15621:15987   */\n    tag_231:\n        /* \"#utility.yul\":15763:15766   */\n      0x00\n        /* \"#utility.yul\":15784:15851   */\n      tag_374\n        /* \"#utility.yul\":15848:15850   */\n      0x0f\n        /* \"#utility.yul\":15843:15846   */\n      dup4\n        /* \"#utility.yul\":15784:15851   */\n      tag_207\n      jump\t// in\n    tag_374:\n        /* \"#utility.yul\":15777:15851   */\n      swap2\n      pop\n        /* \"#utility.yul\":15860:15953   */\n      tag_375\n        /* \"#utility.yul\":15949:15952   */\n      dup3\n        /* \"#utility.yul\":15860:15953   */\n      tag_230\n      jump\t// in\n    tag_375:\n        /* \"#utility.yul\":15978:15980   */\n      0x20\n        /* \"#utility.yul\":15973:15976   */\n      dup3\n        /* \"#utility.yul\":15969:15981   */\n      add\n        /* \"#utility.yul\":15962:15981   */\n      swap1\n      pop\n        /* \"#utility.yul\":15621:15987   */\n      swap2\n      swap1\n      pop\n      jump\t// out\n        /* \"#utility.yul\":15993:16412   */\n    tag_166:\n        /* \"#utility.yul\":16159:16163   */\n      0x00\n        /* \"#utility.yul\":16197:16199   */\n      0x20\n        /* \"#utility.yul\":16186:16195   */\n      dup3\n        /* \"#utility.yul\":16182:16200   */\n      add\n        /* \"#utility.yul\":16174:16200   */\n      swap1\n      pop\n        /* \"#utility.yul\":16246:16255   */\n      dup2\n        /* \"#utility.yul\":16240:16244   */\n      dup2\n        /* \"#utility.yul\":16236:16256   */\n      sub\n        /* \"#utility.yul\":16232:16233   */\n      0x00\n        /* \"#utility.yul\":16221:16230   */\n      dup4\n        /* \"#utility.yul\":16217:16234   */\n      add\n        /* \"#utility.yul\":16210:16257   */\n      mstore\n        /* \"#utility.yul\":16274:16405   */\n      tag_377\n        /* \"#utility.yul\":16400:16404   */\n      dup2\n        /* \"#utility.yul\":16274:16405   */\n      tag_231\n      jump\t// in\n    tag_377:\n        /* \"#utility.yul\":16266:16405   */\n      swap1\n      pop\n        /* \"#utility.yul\":15993:16412   */\n      swap2\n      swap1\n      pop\n      jump\t// out\n        /* \"#utility.yul\":16418:16639   */\n    tag_232:\n        /* \"#utility.yul\":16558:16592   */\n      0x4f6e6c79206f776e65722063616e20706572666f726d20746869732061637469\n        /* \"#utility.yul\":16554:16555   */\n      0x00\n        /* \"#utility.yul\":16546:16552   */\n      dup3\n        /* \"#utility.yul\":16542:16556   */\n      add\n        /* \"#utility.yul\":16535:16593   */\n      mstore\n        /* \"#utility.yul\":16627:16631   */\n      0x6f6e000000000000000000000000000000000000000000000000000000000000\n        /* \"#utility.yul\":16622:16624   */\n      0x20\n        /* \"#utility.yul\":16614:16620   */\n      dup3\n        /* \"#utility.yul\":16610:16625   */\n      add\n        /* \"#utility.yul\":16603:16632   */\n      mstore\n        /* \"#utility.yul\":16418:16639   */\n      pop\n      jump\t// out\n        /* \"#utility.yul\":16645:17011   */\n    tag_233:\n        /* \"#utility.yul\":16787:16790   */\n      0x00\n        /* \"#utility.yul\":16808:16875   */\n      tag_380\n        /* \"#utility.yul\":16872:16874   */\n      0x22\n        /* \"#utility.yul\":16867:16870   */\n      dup4\n        /* \"#utility.yul\":16808:16875   */\n      tag_207\n      jump\t// in\n    tag_380:\n        /* \"#utility.yul\":16801:16875   */\n      swap2\n      pop\n        /* \"#utility.yul\":16884:16977   */\n      tag_381\n        /* \"#utility.yul\":16973:16976   */\n      dup3\n        /* \"#utility.yul\":16884:16977   */\n      tag_232\n      jump\t// in\n    tag_381:\n        /* \"#utility.yul\":17002:17004   */\n      0x40\n        /* \"#utility.yul\":16997:17000   */\n      dup3\n        /* \"#utility.yul\":16993:17005   */\n      add\n        /* \"#utility.yul\":16986:17005   */\n      swap1\n      pop\n        /* \"#utility.yul\":16645:17011   */\n      swap2\n      swap1\n      pop\n      jump\t// out\n        /* \"#utility.yul\":17017:17436   */\n    tag_170:\n        /* \"#utility.yul\":17183:17187   */\n      0x00\n        /* \"#utility.yul\":17221:17223   */\n      0x20\n        /* \"#utility.yul\":17210:17219   */\n      dup3\n        /* \"#utility.yul\":17206:17224   */\n      add\n        /* \"#utility.yul\":17198:17224   */\n      swap1\n      pop\n        /* \"#utility.yul\":17270:17279   */\n      dup2\n        /* \"#utility.yul\":17264:17268   */\n      dup2\n        /* \"#utility.yul\":17260:17280   */\n      sub\n        /* \"#utility.yul\":17256:17257   */\n      0x00\n        /* \"#utility.yul\":17245:17254   */\n      dup4\n        /* \"#utility.yul\":17241:17258   */\n      add\n        /* \"#utility.yul\":17234:17281   */\n      mstore\n        /* \"#utility.yul\":17298:17429   */\n      tag_383\n        /* \"#utility.yul\":17424:17428   */\n      dup2\n        /* \"#utility.yul\":17298:17429   */\n      tag_233\n      jump\t// in\n    tag_383:\n        /* \"#utility.yul\":17290:17429   */\n      swap1\n      pop\n        /* \"#utility.yul\":17017:17436   */\n      swap2\n      swap1\n      pop\n      jump\t// out\n        /* \"#utility.yul\":17442:17617   */\n    tag_234:\n        /* \"#utility.yul\":17582:17609   */\n      0x467269656e6420616c7265616479207265676973746572656400000000000000\n        /* \"#utility.yul\":17578:17579   */\n      0x00\n        /* \"#utility.yul\":17570:17576   */\n      dup3\n        /* \"#utility.yul\":17566:17580   */\n      add\n        /* \"#utility.yul\":17559:17610   */\n      mstore\n        /* \"#utility.yul\":17442:17617   */\n      pop\n      jump\t// out\n        /* \"#utility.yul\":17623:17989   */\n    tag_235:\n        /* \"#utility.yul\":17765:17768   */\n      0x00\n        /* \"#utility.yul\":17786:17853   */\n      tag_386\n        /* \"#utility.yul\":17850:17852   */\n      0x19\n        /* \"#utility.yul\":17845:17848   */\n      dup4\n        /* \"#utility.yul\":17786:17853   */\n      tag_207\n      jump\t// in\n    tag_386:\n        /* \"#utility.yul\":17779:17853   */\n      swap2\n      pop\n        /* \"#utility.yul\":17862:17955   */\n      tag_387\n        /* \"#utility.yul\":17951:17954   */\n      dup3\n        /* \"#utility.yul\":17862:17955   */\n      tag_234\n      jump\t// in\n    tag_387:\n        /* \"#utility.yul\":17980:17982   */\n      0x20\n        /* \"#utility.yul\":17975:17978   */\n      dup3\n        /* \"#utility.yul\":17971:17983   */\n      add\n        /* \"#utility.yul\":17964:17983   */\n      swap1\n      pop\n        /* \"#utility.yul\":17623:17989   */\n      swap2\n      swap1\n      pop\n      jump\t// out\n        /* \"#utility.yul\":17995:18414   */\n    tag_176:\n        /* \"#utility.yul\":18161:18165   */\n      0x00\n        /* \"#utility.yul\":18199:18201   */\n      0x20\n        /* \"#utility.yul\":18188:18197   */\n      dup3\n        /* \"#utility.yul\":18184:18202   */\n      add\n        /* \"#utility.yul\":18176:18202   */\n      swap1\n      pop\n        /* \"#utility.yul\":18248:18257   */\n      dup2\n        /* \"#utility.yul\":18242:18246   */\n      dup2\n        /* \"#utility.yul\":18238:18258   */\n      sub\n        /* \"#utility.yul\":18234:18235   */\n      0x00\n        /* \"#utility.yul\":18223:18232   */\n      dup4\n        /* \"#utility.yul\":18219:18236   */\n      add\n        /* \"#utility.yul\":18212:18259   */\n      mstore\n        /* \"#utility.yul\":18276:18407   */\n      tag_389\n        /* \"#utility.yul\":18402:18406   */\n      dup2\n        /* \"#utility.yul\":18276:18407   */\n      tag_235\n      jump\t// in\n    tag_389:\n        /* \"#utility.yul\":18268:18407   */\n      swap1\n      pop\n        /* \"#utility.yul\":17995:18414   */\n      swap2\n      swap1\n      pop\n      jump\t// out\n        /* \"#utility.yul\":18420:18592   */\n    tag_236:\n        /* \"#utility.yul\":18560:18584   */\n      0x41646472657373206e6f74207265676973746572656400000000000000000000\n        /* \"#utility.yul\":18556:18557   */\n      0x00\n        /* \"#utility.yul\":18548:18554   */\n      dup3\n        /* \"#utility.yul\":18544:18558   */\n      add\n        /* \"#utility.yul\":18537:18585   */\n      mstore\n        /* \"#utility.yul\":18420:18592   */\n      pop\n      jump\t// out\n        /* \"#utility.yul\":18598:18964   */\n    tag_237:\n        /* \"#utility.yul\":18740:18743   */\n      0x00\n        /* \"#utility.yul\":18761:18828   */\n      tag_392\n        /* \"#utility.yul\":18825:18827   */\n      0x16\n        /* \"#utility.yul\":18820:18823   */\n      dup4\n        /* \"#utility.yul\":18761:18828   */\n      tag_207\n      jump\t// in\n    tag_392:\n        /* \"#utility.yul\":18754:18828   */\n      swap2\n      pop\n        /* \"#utility.yul\":18837:18930   */\n      tag_393\n        /* \"#utility.yul\":18926:18929   */\n      dup3\n        /* \"#utility.yul\":18837:18930   */\n      tag_236\n      jump\t// in\n    tag_393:\n        /* \"#utility.yul\":18955:18957   */\n      0x20\n        /* \"#utility.yul\":18950:18953   */\n      dup3\n        /* \"#utility.yul\":18946:18958   */\n      add\n        /* \"#utility.yul\":18939:18958   */\n      swap1\n      pop\n        /* \"#utility.yul\":18598:18964   */\n      swap2\n      swap1\n      pop\n      jump\t// out\n        /* \"#utility.yul\":18970:19389   */\n    tag_186:\n        /* \"#utility.yul\":19136:19140   */\n      0x00\n        /* \"#utility.yul\":19174:19176   */\n      0x20\n        /* \"#utility.yul\":19163:19172   */\n      dup3\n        /* \"#utility.yul\":19159:19177   */\n      add\n        /* \"#utility.yul\":19151:19177   */\n      swap1\n      pop\n        /* \"#utility.yul\":19223:19232   */\n      dup2\n        /* \"#utility.yul\":19217:19221   */\n      dup2\n        /* \"#utility.yul\":19213:19233   */\n      sub\n        /* \"#utility.yul\":19209:19210   */\n      0x00\n        /* \"#utility.yul\":19198:19207   */\n      dup4\n        /* \"#utility.yul\":19194:19211   */\n      add\n        /* \"#utility.yul\":19187:19234   */\n      mstore\n        /* \"#utility.yul\":19251:19382   */\n      tag_395\n        /* \"#utility.yul\":19377:19381   */\n      dup2\n        /* \"#utility.yul\":19251:19382   */\n      tag_237\n      jump\t// in\n    tag_395:\n        /* \"#utility.yul\":19243:19382   */\n      swap1\n      pop\n        /* \"#utility.yul\":18970:19389   */\n      swap2\n      swap1\n      pop\n      jump\t// out\n\n    auxdata: 0xa2646970667358221220f60ed07da5f2cc4c02365c87136be9e3ed73852ac9aa8b7e6b715c4d7549c46764736f6c634300081e0033\n}\n",
				"bytecode": {
					"linkReferences": {},
					"object": "608060405234801561000f575f5ffd5b50335f5f6101000a81548173ffffffffffffffffffffffffffffffffffffffff021916908373ffffffffffffffffffffffffffffffffffffffff1602179055506001805f3373ffffffffffffffffffffffffffffffffffffffff1673ffffffffffffffffffffffffffffffffffffffff1681526020019081526020015f205f6101000a81548160ff021916908315150217905550600233908060018154018082558091505060019003905f5260205f20015f9091909190916101000a81548173ffffffffffffffffffffffffffffffffffffffff021916908373ffffffffffffffffffffffffffffffffffffffff160217905550611f97806101105f395ff3fe6080604052600436106100c1575f3560e01c8063a49e225a1161007e578063d6081fff11610058578063d6081fff1461024f578063d7a1cfe114610277578063e48608411461029f578063fa74542d146102db576100c1565b8063a49e225a146101f3578063c71daccb1461021b578063cafe82cf14610245576100c1565b806305b1137b146100c557806321668a01146100ed57806327e235e3146101295780632e1a7d4d146101655780634ac1c33d1461018d5780638da5cb5b146101c9575b5f5ffd5b3480156100d0575f5ffd5b506100eb60048036038101906100e69190611741565b610303565b005b3480156100f8575f5ffd5b50610113600480360381019061010e919061177f565b6105f1565b60405161012091906117ca565b60405180910390f35b348015610134575f5ffd5b5061014f600480360381019061014a919061180d565b61062c565b60405161015c9190611847565b60405180910390f35b348015610170575f5ffd5b5061018b6004803603810190610186919061177f565b610641565b005b348015610198575f5ffd5b506101b360048036038101906101ae9190611860565b610849565b6040516101c09190611847565b60405180910390f35b3480156101d4575f5ffd5b506101dd610869565b6040516101ea91906117ca565b60405180910390f35b3480156101fe575f5ffd5b506102196004803603810190610214919061189e565b61088d565b005b348015610226575f5ffd5b5061022f610cc2565b60405161023c9190611847565b60405180910390f35b61024d610d8f565b005b34801561025a575f5ffd5b5061027560048036038101906102709190611741565b610eaf565b005b348015610282575f5ffd5b5061029d6004803603810190610298919061180d565b611202565b005b3480156102aa575f5ffd5b506102c560048036038101906102c0919061180d565b61143f565b6040516102d291906118f6565b60405180910390f35b3480156102e6575f5ffd5b5061030160048036038101906102fc919061189e565b61145c565b005b60015f3373ffffffffffffffffffffffffffffffffffffffff1673ffffffffffffffffffffffffffffffffffffffff1681526020019081526020015f205f9054906101000a900460ff1661038c576040517f08c379a000000000000000000000000000000000000000000000000000000000815260040161038390611969565b60405180910390fd5b5f73ffffffffffffffffffffffffffffffffffffffff168273ffffffffffffffffffffffffffffffffffffffff16036103fa576040517f08c379a00000000000000000000000000000000000000000000000000000000081526004016103f1906119d1565b60405180910390fd5b60015f8373ffffffffffffffffffffffffffffffffffffffff1673ffffffffffffffffffffffffffffffffffffffff1681526020019081526020015f205f9054906101000a900460ff16610483576040517f08c379a000000000000000000000000000000000000000000000000000000000815260040161047a90611a39565b60405180910390fd5b8060035f3373ffffffffffffffffffffffffffffffffffffffff1673ffffffffffffffffffffffffffffffffffffffff1681526020019081526020015f20541015610503576040517f08c379a00000000000000000000000000000000000000000000000000000000081526004016104fa90611aa1565b60405180910390fd5b8060035f3373ffffffffffffffffffffffffffffffffffffffff1673ffffffffffffffffffffffffffffffffffffffff1681526020019081526020015f205f82825461054f9190611aec565b925050819055508173ffffffffffffffffffffffffffffffffffffffff166108fc8290811502906040515f60405180830381858888f19350505050158015610599573d5f5f3e3d5ffd5b508060035f8473ffffffffffffffffffffffffffffffffffffffff1673ffffffffffffffffffffffffffffffffffffffff1681526020019081526020015f205f8282546105e69190611b1f565b925050819055505050565b60028181548110610600575f80fd5b905f5260205f20015f915054906101000a900473ffffffffffffffffffffffffffffffffffffffff1681565b6003602052805f5260405f205f915090505481565b60015f3373ffffffffffffffffffffffffffffffffffffffff1673ffffffffffffffffffffffffffffffffffffffff1681526020019081526020015f205f9054906101000a900460ff166106ca576040517f08c379a00000000000000000000000000000000000000000000000000000000081526004016106c190611969565b60405180910390fd5b8060035f3373ffffffffffffffffffffffffffffffffffffffff1673ffffffffffffffffffffffffffffffffffffffff1681526020019081526020015f2054101561074a576040517f08c379a000000000000000000000000000000000000000000000000000000000815260040161074190611aa1565b60405180910390fd5b8060035f3373ffffffffffffffffffffffffffffffffffffffff1673ffffffffffffffffffffffffffffffffffffffff1681526020019081526020015f205f8282546107969190611aec565b925050819055505f3373ffffffffffffffffffffffffffffffffffffffff16826040516107c290611b7f565b5f6040518083038185875af1925050503d805f81146107fc576040519150601f19603f3d011682016040523d82523d5f602084013e610801565b606091505b5050905080610845576040517f08c379a000000000000000000000000000000000000000000000000000000000815260040161083c90611bdd565b60405180910390fd5b5050565b6004602052815f5260405f20602052805f5260405f205f91509150505481565b5f5f9054906101000a900473ffffffffffffffffffffffffffffffffffffffff1681565b60015f3373ffffffffffffffffffffffffffffffffffffffff1673ffffffffffffffffffffffffffffffffffffffff1681526020019081526020015f205f9054906101000a900460ff16610916576040517f08c379a000000000000000000000000000000000000000000000000000000000815260040161090d90611969565b60405180910390fd5b5f73ffffffffffffffffffffffffffffffffffffffff168273ffffffffffffffffffffffffffffffffffffffff1603610984576040517f08c379a000000000000000000000000000000000000000000000000000000000815260040161097b906119d1565b60405180910390fd5b60015f8373ffffffffffffffffffffffffffffffffffffffff1673ffffffffffffffffffffffffffffffffffffffff1681526020019081526020015f205f9054906101000a900460ff16610a0d576040517f08c379a0000000000000000000000000000000000000000000000000000000008152600401610a0490611c45565b60405180910390fd5b5f8111610a4f576040517f08c379a0000000000000000000000000000000000000000000000000000000008152600401610a4690611cad565b60405180910390fd5b8060045f3373ffffffffffffffffffffffffffffffffffffffff1673ffffffffffffffffffffffffffffffffffffffff1681526020019081526020015f205f8473ffffffffffffffffffffffffffffffffffffffff1673ffffffffffffffffffffffffffffffffffffffff1681526020019081526020015f20541015610b0a576040517f08c379a0000000000000000000000000000000000000000000000000000000008152600401610b0190611d15565b60405180910390fd5b8060035f3373ffffffffffffffffffffffffffffffffffffffff1673ffffffffffffffffffffffffffffffffffffffff1681526020019081526020015f20541015610b8a576040517f08c379a0000000000000000000000000000000000000000000000000000000008152600401610b8190611aa1565b60405180910390fd5b8060035f3373ffffffffffffffffffffffffffffffffffffffff1673ffffffffffffffffffffffffffffffffffffffff1681526020019081526020015f205f828254610bd69190611aec565b925050819055508060035f8473ffffffffffffffffffffffffffffffffffffffff1673ffffffffffffffffffffffffffffffffffffffff1681526020019081526020015f205f828254610c299190611b1f565b925050819055508060045f3373ffffffffffffffffffffffffffffffffffffffff1673ffffffffffffffffffffffffffffffffffffffff1681526020019081526020015f205f8473ffffffffffffffffffffffffffffffffffffffff1673ffffffffffffffffffffffffffffffffffffffff1681526020019081526020015f205f828254610cb79190611aec565b925050819055505050565b5f60015f3373ffffffffffffffffffffffffffffffffffffffff1673ffffffffffffffffffffffffffffffffffffffff1681526020019081526020015f205f9054906101000a900460ff16610d4c576040517f08c379a0000000000000000000000000000000000000000000000000000000008152600401610d4390611969565b60405180910390fd5b60035f3373ffffffffffffffffffffffffffffffffffffffff1673ffffffffffffffffffffffffffffffffffffffff1681526020019081526020015f2054905090565b60015f3373ffffffffffffffffffffffffffffffffffffffff1673ffffffffffffffffffffffffffffffffffffffff1681526020019081526020015f205f9054906101000a900460ff16610e18576040517f08c379a0000000000000000000000000000000000000000000000000000000008152600401610e0f90611969565b60405180910390fd5b5f3411610e5a576040517f08c379a0000000000000000000000000000000000000000000000000000000008152600401610e5190611d7d565b60405180910390fd5b3460035f3373ffffffffffffffffffffffffffffffffffffffff1673ffffffffffffffffffffffffffffffffffffffff1681526020019081526020015f205f828254610ea69190611b1f565b92505081905550565b60015f3373ffffffffffffffffffffffffffffffffffffffff1673ffffffffffffffffffffffffffffffffffffffff1681526020019081526020015f205f9054906101000a900460ff16610f38576040517f08c379a0000000000000000000000000000000000000000000000000000000008152600401610f2f90611969565b60405180910390fd5b5f73ffffffffffffffffffffffffffffffffffffffff168273ffffffffffffffffffffffffffffffffffffffff1603610fa6576040517f08c379a0000000000000000000000000000000000000000000000000000000008152600401610f9d906119d1565b60405180910390fd5b60015f8373ffffffffffffffffffffffffffffffffffffffff1673ffffffffffffffffffffffffffffffffffffffff1681526020019081526020015f205f9054906101000a900460ff1661102f576040517f08c379a000000000000000000000000000000000000000000000000000000000815260040161102690611a39565b60405180910390fd5b8060035f3373ffffffffffffffffffffffffffffffffffffffff1673ffffffffffffffffffffffffffffffffffffffff1681526020019081526020015f205410156110af576040517f08c379a00000000000000000000000000000000000000000000000000000000081526004016110a690611aa1565b60405180910390fd5b8060035f3373ffffffffffffffffffffffffffffffffffffffff1673ffffffffffffffffffffffffffffffffffffffff1681526020019081526020015f205f8282546110fb9190611aec565b925050819055505f8273ffffffffffffffffffffffffffffffffffffffff168260405161112790611b7f565b5f6040518083038185875af1925050503d805f8114611161576040519150601f19603f3d011682016040523d82523d5f602084013e611166565b606091505b505090508160035f8573ffffffffffffffffffffffffffffffffffffffff1673ffffffffffffffffffffffffffffffffffffffff1681526020019081526020015f205f8282546111b69190611b1f565b92505081905550806111fd576040517f08c379a00000000000000000000000000000000000000000000000000000000081526004016111f490611de5565b60405180910390fd5b505050565b5f5f9054906101000a900473ffffffffffffffffffffffffffffffffffffffff1673ffffffffffffffffffffffffffffffffffffffff163373ffffffffffffffffffffffffffffffffffffffff1614611290576040517f08c379a000000000000000000000000000000000000000000000000000000000815260040161128790611e73565b60405180910390fd5b5f73ffffffffffffffffffffffffffffffffffffffff168173ffffffffffffffffffffffffffffffffffffffff16036112fe576040517f08c379a00000000000000000000000000000000000000000000000000000000081526004016112f5906119d1565b60405180910390fd5b60015f8273ffffffffffffffffffffffffffffffffffffffff1673ffffffffffffffffffffffffffffffffffffffff1681526020019081526020015f205f9054906101000a900460ff1615611388576040517f08c379a000000000000000000000000000000000000000000000000000000000815260040161137f90611edb565b60405180910390fd5b6001805f8373ffffffffffffffffffffffffffffffffffffffff1673ffffffffffffffffffffffffffffffffffffffff1681526020019081526020015f205f6101000a81548160ff021916908315150217905550600281908060018154018082558091505060019003905f5260205f20015f9091909190916101000a81548173ffffffffffffffffffffffffffffffffffffffff021916908373ffffffffffffffffffffffffffffffffffffffff16021790555050565b6001602052805f5260405f205f915054906101000a900460ff1681565b60015f3373ffffffffffffffffffffffffffffffffffffffff1673ffffffffffffffffffffffffffffffffffffffff1681526020019081526020015f205f9054906101000a900460ff166114e5576040517f08c379a00000000000000000000000000000000000000000000000000000000081526004016114dc90611969565b60405180910390fd5b5f73ffffffffffffffffffffffffffffffffffffffff168273ffffffffffffffffffffffffffffffffffffffff1603611553576040517f08c379a000000000000000000000000000000000000000000000000000000000815260040161154a906119d1565b60405180910390fd5b60015f8373ffffffffffffffffffffffffffffffffffffffff1673ffffffffffffffffffffffffffffffffffffffff1681526020019081526020015f205f9054906101000a900460ff166115dc576040517f08c379a00000000000000000000000000000000000000000000000000000000081526004016115d390611f43565b60405180910390fd5b5f811161161e576040517f08c379a000000000000000000000000000000000000000000000000000000000815260040161161590611cad565b60405180910390fd5b8060045f8473ffffffffffffffffffffffffffffffffffffffff1673ffffffffffffffffffffffffffffffffffffffff1681526020019081526020015f205f3373ffffffffffffffffffffffffffffffffffffffff1673ffffffffffffffffffffffffffffffffffffffff1681526020019081526020015f205f8282546116a59190611b1f565b925050819055505050565b5f5ffd5b5f73ffffffffffffffffffffffffffffffffffffffff82169050919050565b5f6116dd826116b4565b9050919050565b6116ed816116d3565b81146116f7575f5ffd5b50565b5f81359050611708816116e4565b92915050565b5f819050919050565b6117208161170e565b811461172a575f5ffd5b50565b5f8135905061173b81611717565b92915050565b5f5f60408385031215611757576117566116b0565b5b5f611764858286016116fa565b92505060206117758582860161172d565b9150509250929050565b5f60208284031215611794576117936116b0565b5b5f6117a18482850161172d565b91505092915050565b5f6117b4826116b4565b9050919050565b6117c4816117aa565b82525050565b5f6020820190506117dd5f8301846117bb565b92915050565b6117ec816117aa565b81146117f6575f5ffd5b50565b5f81359050611807816117e3565b92915050565b5f60208284031215611822576118216116b0565b5b5f61182f848285016117f9565b91505092915050565b6118418161170e565b82525050565b5f60208201905061185a5f830184611838565b92915050565b5f5f60408385031215611876576118756116b0565b5b5f611883858286016117f9565b9250506020611894858286016117f9565b9150509250929050565b5f5f604083850312156118b4576118b36116b0565b5b5f6118c1858286016117f9565b92505060206118d28582860161172d565b9150509250929050565b5f8115159050919050565b6118f0816118dc565b82525050565b5f6020820190506119095f8301846118e7565b92915050565b5f82825260208201905092915050565b7f596f7520617265206e6f742072656769737465726564000000000000000000005f82015250565b5f61195360168361190f565b915061195e8261191f565b602082019050919050565b5f6020820190508181035f83015261198081611947565b9050919050565b7f496e76616c6964206164647265737300000000000000000000000000000000005f82015250565b5f6119bb600f8361190f565b91506119c682611987565b602082019050919050565b5f6020820190508181035f8301526119e8816119af565b9050919050565b7f526563697069656e74206e6f74207265676973746572656400000000000000005f82015250565b5f611a2360188361190f565b9150611a2e826119ef565b602082019050919050565b5f6020820190508181035f830152611a5081611a17565b9050919050565b7f496e73756666696369656e742062616c616e63650000000000000000000000005f82015250565b5f611a8b60148361190f565b9150611a9682611a57565b602082019050919050565b5f6020820190508181035f830152611ab881611a7f565b9050919050565b7f4e487b71000000000000000000000000000000000000000000000000000000005f52601160045260245ffd5b5f611af68261170e565b9150611b018361170e565b9250828203905081811115611b1957611b18611abf565b5b92915050565b5f611b298261170e565b9150611b348361170e565b9250828201905080821115611b4c57611b4b611abf565b5b92915050565b5f81905092915050565b50565b5f611b6a5f83611b52565b9150611b7582611b5c565b5f82019050919050565b5f611b8982611b5f565b9150819050919050565b7f5769746864726177616c206661696c65640000000000000000000000000000005f82015250565b5f611bc760118361190f565b9150611bd282611b93565b602082019050919050565b5f6020820190508181035f830152611bf481611bbb565b9050919050565b7f4372656469746f72206e6f7420726567697374657265640000000000000000005f82015250565b5f611c2f60178361190f565b9150611c3a82611bfb565b602082019050919050565b5f6020820190508181035f830152611c5c81611c23565b9050919050565b7f416d6f756e74206d7573742062652067726561746572207468616e20300000005f82015250565b5f611c97601d8361190f565b9150611ca282611c63565b602082019050919050565b5f6020820190508181035f830152611cc481611c8b565b9050919050565b7f4465627420616d6f756e7420696e636f727265637400000000000000000000005f82015250565b5f611cff60158361190f565b9150611d0a82611ccb565b602082019050919050565b5f6020820190508181035f830152611d2c81611cf3565b9050919050565b7f4d7573742073656e6420455448000000000000000000000000000000000000005f82015250565b5f611d67600d8361190f565b9150611d7282611d33565b602082019050919050565b5f6020820190508181035f830152611d9481611d5b565b9050919050565b7f5472616e73666572206661696c656400000000000000000000000000000000005f82015250565b5f611dcf600f8361190f565b9150611dda82611d9b565b602082019050919050565b5f6020820190508181035f830152611dfc81611dc3565b9050919050565b7f4f6e6c79206f776e65722063616e20706572666f726d207468697320616374695f8201527f6f6e000000000000000000000000000000000000000000000000000000000000602082015250565b5f611e5d60228361190f565b9150611e6882611e03565b604082019050919050565b5f6020820190508181035f830152611e8a81611e51565b9050919050565b7f467269656e6420616c72656164792072656769737465726564000000000000005f82015250565b5f611ec560198361190f565b9150611ed082611e91565b602082019050919050565b5f6020820190508181035f830152611ef281611eb9565b9050919050565b7f41646472657373206e6f742072656769737465726564000000000000000000005f82015250565b5f611f2d60168361190f565b9150611f3882611ef9565b602082019050919050565b5f6020820190508181035f830152611f5a81611f21565b905091905056fea2646970667358221220f60ed07da5f2cc4c02365c87136be9e3ed73852ac9aa8b7e6b715c4d7549c46764736f6c634300081e0033",
					"opcodes": "PUSH1 0x80 PUSH1 0x40 MSTORE CALLVALUE DUP1 ISZERO PUSH2 0xF JUMPI PUSH0 PUSH0 REVERT JUMPDEST POP CALLER PUSH0 PUSH0 PUSH2 0x100 EXP DUP2 SLOAD DUP2 PUSH20 0xFFFFFFFFFFFFFFFFFFFFFFFFFFFFFFFFFFFFFFFF MUL NOT AND SWAP1 DUP4 PUSH20 0xFFFFFFFFFFFFFFFFFFFFFFFFFFFFFFFFFFFFFFFF AND MUL OR SWAP1 SSTORE POP PUSH1 0x1 DUP1 PUSH0 CALLER PUSH20 0xFFFFFFFFFFFFFFFFFFFFFFFFFFFFFFFFFFFFFFFF AND PUSH20 0xFFFFFFFFFFFFFFFFFFFFFFFFFFFFFFFFFFFFFFFF AND DUP2 MSTORE PUSH1 0x20 ADD SWAP1 DUP2 MSTORE PUSH1 0x20 ADD PUSH0 KECCAK256 PUSH0 PUSH2 0x100 EXP DUP2 SLOAD DUP2 PUSH1 0xFF MUL NOT AND SWAP1 DUP4 ISZERO ISZERO MUL OR SWAP1 SSTORE POP PUSH1 0x2 CALLER SWAP1 DUP1 PUSH1 0x1 DUP2 SLOAD ADD DUP1 DUP3 SSTORE DUP1 SWAP2 POP POP PUSH1 0x1 SWAP1 SUB SWAP1 PUSH0 MSTORE PUSH1 0x20 PUSH0 KECCAK256 ADD PUSH0 SWAP1 SWAP2 SWAP1 SWAP2 SWAP1 SWAP2 PUSH2 0x100 EXP DUP2 SLOAD DUP2 PUSH20 0xFFFFFFFFFFFFFFFFFFFFFFFFFFFFFFFFFFFFFFFF MUL NOT AND SWAP1 DUP4 PUSH20 0xFFFFFFFFFFFFFFFFFFFFFFFFFFFFFFFFFFFFFFFF AND MUL OR SWAP1 SSTORE POP PUSH2 0x1F97 DUP1 PUSH2 0x110 PUSH0 CODECOPY PUSH0 RETURN INVALID PUSH1 0x80 PUSH1 0x40 MSTORE PUSH1 0x4 CALLDATASIZE LT PUSH2 0xC1 JUMPI PUSH0 CALLDATALOAD PUSH1 0xE0 SHR DUP1 PUSH4 0xA49E225A GT PUSH2 0x7E JUMPI DUP1 PUSH4 0xD6081FFF GT PUSH2 0x58 JUMPI DUP1 PUSH4 0xD6081FFF EQ PUSH2 0x24F JUMPI DUP1 PUSH4 0xD7A1CFE1 EQ PUSH2 0x277 JUMPI DUP1 PUSH4 0xE4860841 EQ PUSH2 0x29F JUMPI DUP1 PUSH4 0xFA74542D EQ PUSH2 0x2DB JUMPI PUSH2 0xC1 JUMP JUMPDEST DUP1 PUSH4 0xA49E225A EQ PUSH2 0x1F3 JUMPI DUP1 PUSH4 0xC71DACCB EQ PUSH2 0x21B JUMPI DUP1 PUSH4 0xCAFE82CF EQ PUSH2 0x245 JUMPI PUSH2 0xC1 JUMP JUMPDEST DUP1 PUSH4 0x5B1137B EQ PUSH2 0xC5 JUMPI DUP1 PUSH4 0x21668A01 EQ PUSH2 0xED JUMPI DUP1 PUSH4 0x27E235E3 EQ PUSH2 0x129 JUMPI DUP1 PUSH4 0x2E1A7D4D EQ PUSH2 0x165 JUMPI DUP1 PUSH4 0x4AC1C33D EQ PUSH2 0x18D JUMPI DUP1 PUSH4 0x8DA5CB5B EQ PUSH2 0x1C9 JUMPI JUMPDEST PUSH0 PUSH0 REVERT JUMPDEST CALLVALUE DUP1 ISZERO PUSH2 0xD0 JUMPI PUSH0 PUSH0 REVERT JUMPDEST POP PUSH2 0xEB PUSH1 0x4 DUP1 CALLDATASIZE SUB DUP2 ADD SWAP1 PUSH2 0xE6 SWAP2 SWAP1 PUSH2 0x1741 JUMP JUMPDEST PUSH2 0x303 JUMP JUMPDEST STOP JUMPDEST CALLVALUE DUP1 ISZERO PUSH2 0xF8 JUMPI PUSH0 PUSH0 REVERT JUMPDEST POP PUSH2 0x113 PUSH1 0x4 DUP1 CALLDATASIZE SUB DUP2 ADD SWAP1 PUSH2 0x10E SWAP2 SWAP1 PUSH2 0x177F JUMP JUMPDEST PUSH2 0x5F1 JUMP JUMPDEST PUSH1 0x40 MLOAD PUSH2 0x120 SWAP2 SWAP1 PUSH2 0x17CA JUMP JUMPDEST PUSH1 0x40 MLOAD DUP1 SWAP2 SUB SWAP1 RETURN JUMPDEST CALLVALUE DUP1 ISZERO PUSH2 0x134 JUMPI PUSH0 PUSH0 REVERT JUMPDEST POP PUSH2 0x14F PUSH1 0x4 DUP1 CALLDATASIZE SUB DUP2 ADD SWAP1 PUSH2 0x14A SWAP2 SWAP1 PUSH2 0x180D JUMP JUMPDEST PUSH2 0x62C JUMP JUMPDEST PUSH1 0x40 MLOAD PUSH2 0x15C SWAP2 SWAP1 PUSH2 0x1847 JUMP JUMPDEST PUSH1 0x40 MLOAD DUP1 SWAP2 SUB SWAP1 RETURN JUMPDEST CALLVALUE DUP1 ISZERO PUSH2 0x170 JUMPI PUSH0 PUSH0 REVERT JUMPDEST POP PUSH2 0x18B PUSH1 0x4 DUP1 CALLDATASIZE SUB DUP2 ADD SWAP1 PUSH2 0x186 SWAP2 SWAP1 PUSH2 0x177F JUMP JUMPDEST PUSH2 0x641 JUMP JUMPDEST STOP JUMPDEST CALLVALUE DUP1 ISZERO PUSH2 0x198 JUMPI PUSH0 PUSH0 REVERT JUMPDEST POP PUSH2 0x1B3 PUSH1 0x4 DUP1 CALLDATASIZE SUB DUP2 ADD SWAP1 PUSH2 0x1AE SWAP2 SWAP1 PUSH2 0x1860 JUMP JUMPDEST PUSH2 0x849 JUMP JUMPDEST PUSH1 0x40 MLOAD PUSH2 0x1C0 SWAP2 SWAP1 PUSH2 0x1847 JUMP JUMPDEST PUSH1 0x40 MLOAD DUP1 SWAP2 SUB SWAP1 RETURN JUMPDEST CALLVALUE DUP1 ISZERO PUSH2 0x1D4 JUMPI PUSH0 PUSH0 REVERT JUMPDEST POP PUSH2 0x1DD PUSH2 0x869 JUMP JUMPDEST PUSH1 0x40 MLOAD PUSH2 0x1EA SWAP2 SWAP1 PUSH2 0x17CA JUMP JUMPDEST PUSH1 0x40 MLOAD DUP1 SWAP2 SUB SWAP1 RETURN JUMPDEST CALLVALUE DUP1 ISZERO PUSH2 0x1FE JUMPI PUSH0 PUSH0 REVERT JUMPDEST POP PUSH2 0x219 PUSH1 0x4 DUP1 CALLDATASIZE SUB DUP2 ADD SWAP1 PUSH2 0x214 SWAP2 SWAP1 PUSH2 0x189E JUMP JUMPDEST PUSH2 0x88D JUMP JUMPDEST STOP JUMPDEST CALLVALUE DUP1 ISZERO PUSH2 0x226 JUMPI PUSH0 PUSH0 REVERT JUMPDEST POP PUSH2 0x22F PUSH2 0xCC2 JUMP JUMPDEST PUSH1 0x40 MLOAD PUSH2 0x23C SWAP2 SWAP1 PUSH2 0x1847 JUMP JUMPDEST PUSH1 0x40 MLOAD DUP1 SWAP2 SUB SWAP1 RETURN JUMPDEST PUSH2 0x24D PUSH2 0xD8F JUMP JUMPDEST STOP JUMPDEST CALLVALUE DUP1 ISZERO PUSH2 0x25A JUMPI PUSH0 PUSH0 REVERT JUMPDEST POP PUSH2 0x275 PUSH1 0x4 DUP1 CALLDATASIZE SUB DUP2 ADD SWAP1 PUSH2 0x270 SWAP2 SWAP1 PUSH2 0x1741 JUMP JUMPDEST PUSH2 0xEAF JUMP JUMPDEST STOP JUMPDEST CALLVALUE DUP1 ISZERO PUSH2 0x282 JUMPI PUSH0 PUSH0 REVERT JUMPDEST POP PUSH2 0x29D PUSH1 0x4 DUP1 CALLDATASIZE SUB DUP2 ADD SWAP1 PUSH2 0x298 SWAP2 SWAP1 PUSH2 0x180D JUMP JUMPDEST PUSH2 0x1202 JUMP JUMPDEST STOP JUMPDEST CALLVALUE DUP1 ISZERO PUSH2 0x2AA JUMPI PUSH0 PUSH0 REVERT JUMPDEST POP PUSH2 0x2C5 PUSH1 0x4 DUP1 CALLDATASIZE SUB DUP2 ADD SWAP1 PUSH2 0x2C0 SWAP2 SWAP1 PUSH2 0x180D JUMP JUMPDEST PUSH2 0x143F JUMP JUMPDEST PUSH1 0x40 MLOAD PUSH2 0x2D2 SWAP2 SWAP1 PUSH2 0x18F6 JUMP JUMPDEST PUSH1 0x40 MLOAD DUP1 SWAP2 SUB SWAP1 RETURN JUMPDEST CALLVALUE DUP1 ISZERO PUSH2 0x2E6 JUMPI PUSH0 PUSH0 REVERT JUMPDEST POP PUSH2 0x301 PUSH1 0x4 DUP1 CALLDATASIZE SUB DUP2 ADD SWAP1 PUSH2 0x2FC SWAP2 SWAP1 PUSH2 0x189E JUMP JUMPDEST PUSH2 0x145C JUMP JUMPDEST STOP JUMPDEST PUSH1 0x1 PUSH0 CALLER PUSH20 0xFFFFFFFFFFFFFFFFFFFFFFFFFFFFFFFFFFFFFFFF AND PUSH20 0xFFFFFFFFFFFFFFFFFFFFFFFFFFFFFFFFFFFFFFFF AND DUP2 MSTORE PUSH1 0x20 ADD SWAP1 DUP2 MSTORE PUSH1 0x20 ADD PUSH0 KECCAK256 PUSH0 SWAP1 SLOAD SWAP1 PUSH2 0x100 EXP SWAP1 DIV PUSH1 0xFF AND PUSH2 0x38C JUMPI PUSH1 0x40 MLOAD PUSH32 0x8C379A000000000000000000000000000000000000000000000000000000000 DUP2 MSTORE PUSH1 0x4 ADD PUSH2 0x383 SWAP1 PUSH2 0x1969 JUMP JUMPDEST PUSH1 0x40 MLOAD DUP1 SWAP2 SUB SWAP1 REVERT JUMPDEST PUSH0 PUSH20 0xFFFFFFFFFFFFFFFFFFFFFFFFFFFFFFFFFFFFFFFF AND DUP3 PUSH20 0xFFFFFFFFFFFFFFFFFFFFFFFFFFFFFFFFFFFFFFFF AND SUB PUSH2 0x3FA JUMPI PUSH1 0x40 MLOAD PUSH32 0x8C379A000000000000000000000000000000000000000000000000000000000 DUP2 MSTORE PUSH1 0x4 ADD PUSH2 0x3F1 SWAP1 PUSH2 0x19D1 JUMP JUMPDEST PUSH1 0x40 MLOAD DUP1 SWAP2 SUB SWAP1 REVERT JUMPDEST PUSH1 0x1 PUSH0 DUP4 PUSH20 0xFFFFFFFFFFFFFFFFFFFFFFFFFFFFFFFFFFFFFFFF AND PUSH20 0xFFFFFFFFFFFFFFFFFFFFFFFFFFFFFFFFFFFFFFFF AND DUP2 MSTORE PUSH1 0x20 ADD SWAP1 DUP2 MSTORE PUSH1 0x20 ADD PUSH0 KECCAK256 PUSH0 SWAP1 SLOAD SWAP1 PUSH2 0x100 EXP SWAP1 DIV PUSH1 0xFF AND PUSH2 0x483 JUMPI PUSH1 0x40 MLOAD PUSH32 0x8C379A000000000000000000000000000000000000000000000000000000000 DUP2 MSTORE PUSH1 0x4 ADD PUSH2 0x47A SWAP1 PUSH2 0x1A39 JUMP JUMPDEST PUSH1 0x40 MLOAD DUP1 SWAP2 SUB SWAP1 REVERT JUMPDEST DUP1 PUSH1 0x3 PUSH0 CALLER PUSH20 0xFFFFFFFFFFFFFFFFFFFFFFFFFFFFFFFFFFFFFFFF AND PUSH20 0xFFFFFFFFFFFFFFFFFFFFFFFFFFFFFFFFFFFFFFFF AND DUP2 MSTORE PUSH1 0x20 ADD SWAP1 DUP2 MSTORE PUSH1 0x20 ADD PUSH0 KECCAK256 SLOAD LT ISZERO PUSH2 0x503 JUMPI PUSH1 0x40 MLOAD PUSH32 0x8C379A000000000000000000000000000000000000000000000000000000000 DUP2 MSTORE PUSH1 0x4 ADD PUSH2 0x4FA SWAP1 PUSH2 0x1AA1 JUMP JUMPDEST PUSH1 0x40 MLOAD DUP1 SWAP2 SUB SWAP1 REVERT JUMPDEST DUP1 PUSH1 0x3 PUSH0 CALLER PUSH20 0xFFFFFFFFFFFFFFFFFFFFFFFFFFFFFFFFFFFFFFFF AND PUSH20 0xFFFFFFFFFFFFFFFFFFFFFFFFFFFFFFFFFFFFFFFF AND DUP2 MSTORE PUSH1 0x20 ADD SWAP1 DUP2 MSTORE PUSH1 0x20 ADD PUSH0 KECCAK256 PUSH0 DUP3 DUP3 SLOAD PUSH2 0x54F SWAP2 SWAP1 PUSH2 0x1AEC JUMP JUMPDEST SWAP3 POP POP DUP2 SWAP1 SSTORE POP DUP2 PUSH20 0xFFFFFFFFFFFFFFFFFFFFFFFFFFFFFFFFFFFFFFFF AND PUSH2 0x8FC DUP3 SWAP1 DUP2 ISZERO MUL SWAP1 PUSH1 0x40 MLOAD PUSH0 PUSH1 0x40 MLOAD DUP1 DUP4 SUB DUP2 DUP6 DUP9 DUP9 CALL SWAP4 POP POP POP POP ISZERO DUP1 ISZERO PUSH2 0x599 JUMPI RETURNDATASIZE PUSH0 PUSH0 RETURNDATACOPY RETURNDATASIZE PUSH0 REVERT JUMPDEST POP DUP1 PUSH1 0x3 PUSH0 DUP5 PUSH20 0xFFFFFFFFFFFFFFFFFFFFFFFFFFFFFFFFFFFFFFFF AND PUSH20 0xFFFFFFFFFFFFFFFFFFFFFFFFFFFFFFFFFFFFFFFF AND DUP2 MSTORE PUSH1 0x20 ADD SWAP1 DUP2 MSTORE PUSH1 0x20 ADD PUSH0 KECCAK256 PUSH0 DUP3 DUP3 SLOAD PUSH2 0x5E6 SWAP2 SWAP1 PUSH2 0x1B1F JUMP JUMPDEST SWAP3 POP POP DUP2 SWAP1 SSTORE POP POP POP JUMP JUMPDEST PUSH1 0x2 DUP2 DUP2 SLOAD DUP2 LT PUSH2 0x600 JUMPI PUSH0 DUP1 REVERT JUMPDEST SWAP1 PUSH0 MSTORE PUSH1 0x20 PUSH0 KECCAK256 ADD PUSH0 SWAP2 POP SLOAD SWAP1 PUSH2 0x100 EXP SWAP1 DIV PUSH20 0xFFFFFFFFFFFFFFFFFFFFFFFFFFFFFFFFFFFFFFFF AND DUP2 JUMP JUMPDEST PUSH1 0x3 PUSH1 0x20 MSTORE DUP1 PUSH0 MSTORE PUSH1 0x40 PUSH0 KECCAK256 PUSH0 SWAP2 POP SWAP1 POP SLOAD DUP2 JUMP JUMPDEST PUSH1 0x1 PUSH0 CALLER PUSH20 0xFFFFFFFFFFFFFFFFFFFFFFFFFFFFFFFFFFFFFFFF AND PUSH20 0xFFFFFFFFFFFFFFFFFFFFFFFFFFFFFFFFFFFFFFFF AND DUP2 MSTORE PUSH1 0x20 ADD SWAP1 DUP2 MSTORE PUSH1 0x20 ADD PUSH0 KECCAK256 PUSH0 SWAP1 SLOAD SWAP1 PUSH2 0x100 EXP SWAP1 DIV PUSH1 0xFF AND PUSH2 0x6CA JUMPI PUSH1 0x40 MLOAD PUSH32 0x8C379A000000000000000000000000000000000000000000000000000000000 DUP2 MSTORE PUSH1 0x4 ADD PUSH2 0x6C1 SWAP1 PUSH2 0x1969 JUMP JUMPDEST PUSH1 0x40 MLOAD DUP1 SWAP2 SUB SWAP1 REVERT JUMPDEST DUP1 PUSH1 0x3 PUSH0 CALLER PUSH20 0xFFFFFFFFFFFFFFFFFFFFFFFFFFFFFFFFFFFFFFFF AND PUSH20 0xFFFFFFFFFFFFFFFFFFFFFFFFFFFFFFFFFFFFFFFF AND DUP2 MSTORE PUSH1 0x20 ADD SWAP1 DUP2 MSTORE PUSH1 0x20 ADD PUSH0 KECCAK256 SLOAD LT ISZERO PUSH2 0x74A JUMPI PUSH1 0x40 MLOAD PUSH32 0x8C379A000000000000000000000000000000000000000000000000000000000 DUP2 MSTORE PUSH1 0x4 ADD PUSH2 0x741 SWAP1 PUSH2 0x1AA1 JUMP JUMPDEST PUSH1 0x40 MLOAD DUP1 SWAP2 SUB SWAP1 REVERT JUMPDEST DUP1 PUSH1 0x3 PUSH0 CALLER PUSH20 0xFFFFFFFFFFFFFFFFFFFFFFFFFFFFFFFFFFFFFFFF AND PUSH20 0xFFFFFFFFFFFFFFFFFFFFFFFFFFFFFFFFFFFFFFFF AND DUP2 MSTORE PUSH1 0x20 ADD SWAP1 DUP2 MSTORE PUSH1 0x20 ADD PUSH0 KECCAK256 PUSH0 DUP3 DUP3 SLOAD PUSH2 0x796 SWAP2 SWAP1 PUSH2 0x1AEC JUMP JUMPDEST SWAP3 POP POP DUP2 SWAP1 SSTORE POP PUSH0 CALLER PUSH20 0xFFFFFFFFFFFFFFFFFFFFFFFFFFFFFFFFFFFFFFFF AND DUP3 PUSH1 0x40 MLOAD PUSH2 0x7C2 SWAP1 PUSH2 0x1B7F JUMP JUMPDEST PUSH0 PUSH1 0x40 MLOAD DUP1 DUP4 SUB DUP2 DUP6 DUP8 GAS CALL SWAP3 POP POP POP RETURNDATASIZE DUP1 PUSH0 DUP2 EQ PUSH2 0x7FC JUMPI PUSH1 0x40 MLOAD SWAP2 POP PUSH1 0x1F NOT PUSH1 0x3F RETURNDATASIZE ADD AND DUP3 ADD PUSH1 0x40 MSTORE RETURNDATASIZE DUP3 MSTORE RETURNDATASIZE PUSH0 PUSH1 0x20 DUP5 ADD RETURNDATACOPY PUSH2 0x801 JUMP JUMPDEST PUSH1 0x60 SWAP2 POP JUMPDEST POP POP SWAP1 POP DUP1 PUSH2 0x845 JUMPI PUSH1 0x40 MLOAD PUSH32 0x8C379A000000000000000000000000000000000000000000000000000000000 DUP2 MSTORE PUSH1 0x4 ADD PUSH2 0x83C SWAP1 PUSH2 0x1BDD JUMP JUMPDEST PUSH1 0x40 MLOAD DUP1 SWAP2 SUB SWAP1 REVERT JUMPDEST POP POP JUMP JUMPDEST PUSH1 0x4 PUSH1 0x20 MSTORE DUP2 PUSH0 MSTORE PUSH1 0x40 PUSH0 KECCAK256 PUSH1 0x20 MSTORE DUP1 PUSH0 MSTORE PUSH1 0x40 PUSH0 KECCAK256 PUSH0 SWAP2 POP SWAP2 POP POP SLOAD DUP2 JUMP JUMPDEST PUSH0 PUSH0 SWAP1 SLOAD SWAP1 PUSH2 0x100 EXP SWAP1 DIV PUSH20 0xFFFFFFFFFFFFFFFFFFFFFFFFFFFFFFFFFFFFFFFF AND DUP2 JUMP JUMPDEST PUSH1 0x1 PUSH0 CALLER PUSH20 0xFFFFFFFFFFFFFFFFFFFFFFFFFFFFFFFFFFFFFFFF AND PUSH20 0xFFFFFFFFFFFFFFFFFFFFFFFFFFFFFFFFFFFFFFFF AND DUP2 MSTORE PUSH1 0x20 ADD SWAP1 DUP2 MSTORE PUSH1 0x20 ADD PUSH0 KECCAK256 PUSH0 SWAP1 SLOAD SWAP1 PUSH2 0x100 EXP SWAP1 DIV PUSH1 0xFF AND PUSH2 0x916 JUMPI PUSH1 0x40 MLOAD PUSH32 0x8C379A000000000000000000000000000000000000000000000000000000000 DUP2 MSTORE PUSH1 0x4 ADD PUSH2 0x90D SWAP1 PUSH2 0x1969 JUMP JUMPDEST PUSH1 0x40 MLOAD DUP1 SWAP2 SUB SWAP1 REVERT JUMPDEST PUSH0 PUSH20 0xFFFFFFFFFFFFFFFFFFFFFFFFFFFFFFFFFFFFFFFF AND DUP3 PUSH20 0xFFFFFFFFFFFFFFFFFFFFFFFFFFFFFFFFFFFFFFFF AND SUB PUSH2 0x984 JUMPI PUSH1 0x40 MLOAD PUSH32 0x8C379A000000000000000000000000000000000000000000000000000000000 DUP2 MSTORE PUSH1 0x4 ADD PUSH2 0x97B SWAP1 PUSH2 0x19D1 JUMP JUMPDEST PUSH1 0x40 MLOAD DUP1 SWAP2 SUB SWAP1 REVERT JUMPDEST PUSH1 0x1 PUSH0 DUP4 PUSH20 0xFFFFFFFFFFFFFFFFFFFFFFFFFFFFFFFFFFFFFFFF AND PUSH20 0xFFFFFFFFFFFFFFFFFFFFFFFFFFFFFFFFFFFFFFFF AND DUP2 MSTORE PUSH1 0x20 ADD SWAP1 DUP2 MSTORE PUSH1 0x20 ADD PUSH0 KECCAK256 PUSH0 SWAP1 SLOAD SWAP1 PUSH2 0x100 EXP SWAP1 DIV PUSH1 0xFF AND PUSH2 0xA0D JUMPI PUSH1 0x40 MLOAD PUSH32 0x8C379A000000000000000000000000000000000000000000000000000000000 DUP2 MSTORE PUSH1 0x4 ADD PUSH2 0xA04 SWAP1 PUSH2 0x1C45 JUMP JUMPDEST PUSH1 0x40 MLOAD DUP1 SWAP2 SUB SWAP1 REVERT JUMPDEST PUSH0 DUP2 GT PUSH2 0xA4F JUMPI PUSH1 0x40 MLOAD PUSH32 0x8C379A000000000000000000000000000000000000000000000000000000000 DUP2 MSTORE PUSH1 0x4 ADD PUSH2 0xA46 SWAP1 PUSH2 0x1CAD JUMP JUMPDEST PUSH1 0x40 MLOAD DUP1 SWAP2 SUB SWAP1 REVERT JUMPDEST DUP1 PUSH1 0x4 PUSH0 CALLER PUSH20 0xFFFFFFFFFFFFFFFFFFFFFFFFFFFFFFFFFFFFFFFF AND PUSH20 0xFFFFFFFFFFFFFFFFFFFFFFFFFFFFFFFFFFFFFFFF AND DUP2 MSTORE PUSH1 0x20 ADD SWAP1 DUP2 MSTORE PUSH1 0x20 ADD PUSH0 KECCAK256 PUSH0 DUP5 PUSH20 0xFFFFFFFFFFFFFFFFFFFFFFFFFFFFFFFFFFFFFFFF AND PUSH20 0xFFFFFFFFFFFFFFFFFFFFFFFFFFFFFFFFFFFFFFFF AND DUP2 MSTORE PUSH1 0x20 ADD SWAP1 DUP2 MSTORE PUSH1 0x20 ADD PUSH0 KECCAK256 SLOAD LT ISZERO PUSH2 0xB0A JUMPI PUSH1 0x40 MLOAD PUSH32 0x8C379A000000000000000000000000000000000000000000000000000000000 DUP2 MSTORE PUSH1 0x4 ADD PUSH2 0xB01 SWAP1 PUSH2 0x1D15 JUMP JUMPDEST PUSH1 0x40 MLOAD DUP1 SWAP2 SUB SWAP1 REVERT JUMPDEST DUP1 PUSH1 0x3 PUSH0 CALLER PUSH20 0xFFFFFFFFFFFFFFFFFFFFFFFFFFFFFFFFFFFFFFFF AND PUSH20 0xFFFFFFFFFFFFFFFFFFFFFFFFFFFFFFFFFFFFFFFF AND DUP2 MSTORE PUSH1 0x20 ADD SWAP1 DUP2 MSTORE PUSH1 0x20 ADD PUSH0 KECCAK256 SLOAD LT ISZERO PUSH2 0xB8A JUMPI PUSH1 0x40 MLOAD PUSH32 0x8C379A000000000000000000000000000000000000000000000000000000000 DUP2 MSTORE PUSH1 0x4 ADD PUSH2 0xB81 SWAP1 PUSH2 0x1AA1 JUMP JUMPDEST PUSH1 0x40 MLOAD DUP1 SWAP2 SUB SWAP1 REVERT JUMPDEST DUP1 PUSH1 0x3 PUSH0 CALLER PUSH20 0xFFFFFFFFFFFFFFFFFFFFFFFFFFFFFFFFFFFFFFFF AND PUSH20 0xFFFFFFFFFFFFFFFFFFFFFFFFFFFFFFFFFFFFFFFF AND DUP2 MSTORE PUSH1 0x20 ADD SWAP1 DUP2 MSTORE PUSH1 0x20 ADD PUSH0 KECCAK256 PUSH0 DUP3 DUP3 SLOAD PUSH2 0xBD6 SWAP2 SWAP1 PUSH2 0x1AEC JUMP JUMPDEST SWAP3 POP POP DUP2 SWAP1 SSTORE POP DUP1 PUSH1 0x3 PUSH0 DUP5 PUSH20 0xFFFFFFFFFFFFFFFFFFFFFFFFFFFFFFFFFFFFFFFF AND PUSH20 0xFFFFFFFFFFFFFFFFFFFFFFFFFFFFFFFFFFFFFFFF AND DUP2 MSTORE PUSH1 0x20 ADD SWAP1 DUP2 MSTORE PUSH1 0x20 ADD PUSH0 KECCAK256 PUSH0 DUP3 DUP3 SLOAD PUSH2 0xC29 SWAP2 SWAP1 PUSH2 0x1B1F JUMP JUMPDEST SWAP3 POP POP DUP2 SWAP1 SSTORE POP DUP1 PUSH1 0x4 PUSH0 CALLER PUSH20 0xFFFFFFFFFFFFFFFFFFFFFFFFFFFFFFFFFFFFFFFF AND PUSH20 0xFFFFFFFFFFFFFFFFFFFFFFFFFFFFFFFFFFFFFFFF AND DUP2 MSTORE PUSH1 0x20 ADD SWAP1 DUP2 MSTORE PUSH1 0x20 ADD PUSH0 KECCAK256 PUSH0 DUP5 PUSH20 0xFFFFFFFFFFFFFFFFFFFFFFFFFFFFFFFFFFFFFFFF AND PUSH20 0xFFFFFFFFFFFFFFFFFFFFFFFFFFFFFFFFFFFFFFFF AND DUP2 MSTORE PUSH1 0x20 ADD SWAP1 DUP2 MSTORE PUSH1 0x20 ADD PUSH0 KECCAK256 PUSH0 DUP3 DUP3 SLOAD PUSH2 0xCB7 SWAP2 SWAP1 PUSH2 0x1AEC JUMP JUMPDEST SWAP3 POP POP DUP2 SWAP1 SSTORE POP POP POP JUMP JUMPDEST PUSH0 PUSH1 0x1 PUSH0 CALLER PUSH20 0xFFFFFFFFFFFFFFFFFFFFFFFFFFFFFFFFFFFFFFFF AND PUSH20 0xFFFFFFFFFFFFFFFFFFFFFFFFFFFFFFFFFFFFFFFF AND DUP2 MSTORE PUSH1 0x20 ADD SWAP1 DUP2 MSTORE PUSH1 0x20 ADD PUSH0 KECCAK256 PUSH0 SWAP1 SLOAD SWAP1 PUSH2 0x100 EXP SWAP1 DIV PUSH1 0xFF AND PUSH2 0xD4C JUMPI PUSH1 0x40 MLOAD PUSH32 0x8C379A000000000000000000000000000000000000000000000000000000000 DUP2 MSTORE PUSH1 0x4 ADD PUSH2 0xD43 SWAP1 PUSH2 0x1969 JUMP JUMPDEST PUSH1 0x40 MLOAD DUP1 SWAP2 SUB SWAP1 REVERT JUMPDEST PUSH1 0x3 PUSH0 CALLER PUSH20 0xFFFFFFFFFFFFFFFFFFFFFFFFFFFFFFFFFFFFFFFF AND PUSH20 0xFFFFFFFFFFFFFFFFFFFFFFFFFFFFFFFFFFFFFFFF AND DUP2 MSTORE PUSH1 0x20 ADD SWAP1 DUP2 MSTORE PUSH1 0x20 ADD PUSH0 KECCAK256 SLOAD SWAP1 POP SWAP1 JUMP JUMPDEST PUSH1 0x1 PUSH0 CALLER PUSH20 0xFFFFFFFFFFFFFFFFFFFFFFFFFFFFFFFFFFFFFFFF AND PUSH20 0xFFFFFFFFFFFFFFFFFFFFFFFFFFFFFFFFFFFFFFFF AND DUP2 MSTORE PUSH1 0x20 ADD SWAP1 DUP2 MSTORE PUSH1 0x20 ADD PUSH0 KECCAK256 PUSH0 SWAP1 SLOAD SWAP1 PUSH2 0x100 EXP SWAP1 DIV PUSH1 0xFF AND PUSH2 0xE18 JUMPI PUSH1 0x40 MLOAD PUSH32 0x8C379A000000000000000000000000000000000000000000000000000000000 DUP2 MSTORE PUSH1 0x4 ADD PUSH2 0xE0F SWAP1 PUSH2 0x1969 JUMP JUMPDEST PUSH1 0x40 MLOAD DUP1 SWAP2 SUB SWAP1 REVERT JUMPDEST PUSH0 CALLVALUE GT PUSH2 0xE5A JUMPI PUSH1 0x40 MLOAD PUSH32 0x8C379A000000000000000000000000000000000000000000000000000000000 DUP2 MSTORE PUSH1 0x4 ADD PUSH2 0xE51 SWAP1 PUSH2 0x1D7D JUMP JUMPDEST PUSH1 0x40 MLOAD DUP1 SWAP2 SUB SWAP1 REVERT JUMPDEST CALLVALUE PUSH1 0x3 PUSH0 CALLER PUSH20 0xFFFFFFFFFFFFFFFFFFFFFFFFFFFFFFFFFFFFFFFF AND PUSH20 0xFFFFFFFFFFFFFFFFFFFFFFFFFFFFFFFFFFFFFFFF AND DUP2 MSTORE PUSH1 0x20 ADD SWAP1 DUP2 MSTORE PUSH1 0x20 ADD PUSH0 KECCAK256 PUSH0 DUP3 DUP3 SLOAD PUSH2 0xEA6 SWAP2 SWAP1 PUSH2 0x1B1F JUMP JUMPDEST SWAP3 POP POP DUP2 SWAP1 SSTORE POP JUMP JUMPDEST PUSH1 0x1 PUSH0 CALLER PUSH20 0xFFFFFFFFFFFFFFFFFFFFFFFFFFFFFFFFFFFFFFFF AND PUSH20 0xFFFFFFFFFFFFFFFFFFFFFFFFFFFFFFFFFFFFFFFF AND DUP2 MSTORE PUSH1 0x20 ADD SWAP1 DUP2 MSTORE PUSH1 0x20 ADD PUSH0 KECCAK256 PUSH0 SWAP1 SLOAD SWAP1 PUSH2 0x100 EXP SWAP1 DIV PUSH1 0xFF AND PUSH2 0xF38 JUMPI PUSH1 0x40 MLOAD PUSH32 0x8C379A000000000000000000000000000000000000000000000000000000000 DUP2 MSTORE PUSH1 0x4 ADD PUSH2 0xF2F SWAP1 PUSH2 0x1969 JUMP JUMPDEST PUSH1 0x40 MLOAD DUP1 SWAP2 SUB SWAP1 REVERT JUMPDEST PUSH0 PUSH20 0xFFFFFFFFFFFFFFFFFFFFFFFFFFFFFFFFFFFFFFFF AND DUP3 PUSH20 0xFFFFFFFFFFFFFFFFFFFFFFFFFFFFFFFFFFFFFFFF AND SUB PUSH2 0xFA6 JUMPI PUSH1 0x40 MLOAD PUSH32 0x8C379A000000000000000000000000000000000000000000000000000000000 DUP2 MSTORE PUSH1 0x4 ADD PUSH2 0xF9D SWAP1 PUSH2 0x19D1 JUMP JUMPDEST PUSH1 0x40 MLOAD DUP1 SWAP2 SUB SWAP1 REVERT JUMPDEST PUSH1 0x1 PUSH0 DUP4 PUSH20 0xFFFFFFFFFFFFFFFFFFFFFFFFFFFFFFFFFFFFFFFF AND PUSH20 0xFFFFFFFFFFFFFFFFFFFFFFFFFFFFFFFFFFFFFFFF AND DUP2 MSTORE PUSH1 0x20 ADD SWAP1 DUP2 MSTORE PUSH1 0x20 ADD PUSH0 KECCAK256 PUSH0 SWAP1 SLOAD SWAP1 PUSH2 0x100 EXP SWAP1 DIV PUSH1 0xFF AND PUSH2 0x102F JUMPI PUSH1 0x40 MLOAD PUSH32 0x8C379A000000000000000000000000000000000000000000000000000000000 DUP2 MSTORE PUSH1 0x4 ADD PUSH2 0x1026 SWAP1 PUSH2 0x1A39 JUMP JUMPDEST PUSH1 0x40 MLOAD DUP1 SWAP2 SUB SWAP1 REVERT JUMPDEST DUP1 PUSH1 0x3 PUSH0 CALLER PUSH20 0xFFFFFFFFFFFFFFFFFFFFFFFFFFFFFFFFFFFFFFFF AND PUSH20 0xFFFFFFFFFFFFFFFFFFFFFFFFFFFFFFFFFFFFFFFF AND DUP2 MSTORE PUSH1 0x20 ADD SWAP1 DUP2 MSTORE PUSH1 0x20 ADD PUSH0 KECCAK256 SLOAD LT ISZERO PUSH2 0x10AF JUMPI PUSH1 0x40 MLOAD PUSH32 0x8C379A000000000000000000000000000000000000000000000000000000000 DUP2 MSTORE PUSH1 0x4 ADD PUSH2 0x10A6 SWAP1 PUSH2 0x1AA1 JUMP JUMPDEST PUSH1 0x40 MLOAD DUP1 SWAP2 SUB SWAP1 REVERT JUMPDEST DUP1 PUSH1 0x3 PUSH0 CALLER PUSH20 0xFFFFFFFFFFFFFFFFFFFFFFFFFFFFFFFFFFFFFFFF AND PUSH20 0xFFFFFFFFFFFFFFFFFFFFFFFFFFFFFFFFFFFFFFFF AND DUP2 MSTORE PUSH1 0x20 ADD SWAP1 DUP2 MSTORE PUSH1 0x20 ADD PUSH0 KECCAK256 PUSH0 DUP3 DUP3 SLOAD PUSH2 0x10FB SWAP2 SWAP1 PUSH2 0x1AEC JUMP JUMPDEST SWAP3 POP POP DUP2 SWAP1 SSTORE POP PUSH0 DUP3 PUSH20 0xFFFFFFFFFFFFFFFFFFFFFFFFFFFFFFFFFFFFFFFF AND DUP3 PUSH1 0x40 MLOAD PUSH2 0x1127 SWAP1 PUSH2 0x1B7F JUMP JUMPDEST PUSH0 PUSH1 0x40 MLOAD DUP1 DUP4 SUB DUP2 DUP6 DUP8 GAS CALL SWAP3 POP POP POP RETURNDATASIZE DUP1 PUSH0 DUP2 EQ PUSH2 0x1161 JUMPI PUSH1 0x40 MLOAD SWAP2 POP PUSH1 0x1F NOT PUSH1 0x3F RETURNDATASIZE ADD AND DUP3 ADD PUSH1 0x40 MSTORE RETURNDATASIZE DUP3 MSTORE RETURNDATASIZE PUSH0 PUSH1 0x20 DUP5 ADD RETURNDATACOPY PUSH2 0x1166 JUMP JUMPDEST PUSH1 0x60 SWAP2 POP JUMPDEST POP POP SWAP1 POP DUP2 PUSH1 0x3 PUSH0 DUP6 PUSH20 0xFFFFFFFFFFFFFFFFFFFFFFFFFFFFFFFFFFFFFFFF AND PUSH20 0xFFFFFFFFFFFFFFFFFFFFFFFFFFFFFFFFFFFFFFFF AND DUP2 MSTORE PUSH1 0x20 ADD SWAP1 DUP2 MSTORE PUSH1 0x20 ADD PUSH0 KECCAK256 PUSH0 DUP3 DUP3 SLOAD PUSH2 0x11B6 SWAP2 SWAP1 PUSH2 0x1B1F JUMP JUMPDEST SWAP3 POP POP DUP2 SWAP1 SSTORE POP DUP1 PUSH2 0x11FD JUMPI PUSH1 0x40 MLOAD PUSH32 0x8C379A000000000000000000000000000000000000000000000000000000000 DUP2 MSTORE PUSH1 0x4 ADD PUSH2 0x11F4 SWAP1 PUSH2 0x1DE5 JUMP JUMPDEST PUSH1 0x40 MLOAD DUP1 SWAP2 SUB SWAP1 REVERT JUMPDEST POP POP POP JUMP JUMPDEST PUSH0 PUSH0 SWAP1 SLOAD SWAP1 PUSH2 0x100 EXP SWAP1 DIV PUSH20 0xFFFFFFFFFFFFFFFFFFFFFFFFFFFFFFFFFFFFFFFF AND PUSH20 0xFFFFFFFFFFFFFFFFFFFFFFFFFFFFFFFFFFFFFFFF AND CALLER PUSH20 0xFFFFFFFFFFFFFFFFFFFFFFFFFFFFFFFFFFFFFFFF AND EQ PUSH2 0x1290 JUMPI PUSH1 0x40 MLOAD PUSH32 0x8C379A000000000000000000000000000000000000000000000000000000000 DUP2 MSTORE PUSH1 0x4 ADD PUSH2 0x1287 SWAP1 PUSH2 0x1E73 JUMP JUMPDEST PUSH1 0x40 MLOAD DUP1 SWAP2 SUB SWAP1 REVERT JUMPDEST PUSH0 PUSH20 0xFFFFFFFFFFFFFFFFFFFFFFFFFFFFFFFFFFFFFFFF AND DUP2 PUSH20 0xFFFFFFFFFFFFFFFFFFFFFFFFFFFFFFFFFFFFFFFF AND SUB PUSH2 0x12FE JUMPI PUSH1 0x40 MLOAD PUSH32 0x8C379A000000000000000000000000000000000000000000000000000000000 DUP2 MSTORE PUSH1 0x4 ADD PUSH2 0x12F5 SWAP1 PUSH2 0x19D1 JUMP JUMPDEST PUSH1 0x40 MLOAD DUP1 SWAP2 SUB SWAP1 REVERT JUMPDEST PUSH1 0x1 PUSH0 DUP3 PUSH20 0xFFFFFFFFFFFFFFFFFFFFFFFFFFFFFFFFFFFFFFFF AND PUSH20 0xFFFFFFFFFFFFFFFFFFFFFFFFFFFFFFFFFFFFFFFF AND DUP2 MSTORE PUSH1 0x20 ADD SWAP1 DUP2 MSTORE PUSH1 0x20 ADD PUSH0 KECCAK256 PUSH0 SWAP1 SLOAD SWAP1 PUSH2 0x100 EXP SWAP1 DIV PUSH1 0xFF AND ISZERO PUSH2 0x1388 JUMPI PUSH1 0x40 MLOAD PUSH32 0x8C379A000000000000000000000000000000000000000000000000000000000 DUP2 MSTORE PUSH1 0x4 ADD PUSH2 0x137F SWAP1 PUSH2 0x1EDB JUMP JUMPDEST PUSH1 0x40 MLOAD DUP1 SWAP2 SUB SWAP1 REVERT JUMPDEST PUSH1 0x1 DUP1 PUSH0 DUP4 PUSH20 0xFFFFFFFFFFFFFFFFFFFFFFFFFFFFFFFFFFFFFFFF AND PUSH20 0xFFFFFFFFFFFFFFFFFFFFFFFFFFFFFFFFFFFFFFFF AND DUP2 MSTORE PUSH1 0x20 ADD SWAP1 DUP2 MSTORE PUSH1 0x20 ADD PUSH0 KECCAK256 PUSH0 PUSH2 0x100 EXP DUP2 SLOAD DUP2 PUSH1 0xFF MUL NOT AND SWAP1 DUP4 ISZERO ISZERO MUL OR SWAP1 SSTORE POP PUSH1 0x2 DUP2 SWAP1 DUP1 PUSH1 0x1 DUP2 SLOAD ADD DUP1 DUP3 SSTORE DUP1 SWAP2 POP POP PUSH1 0x1 SWAP1 SUB SWAP1 PUSH0 MSTORE PUSH1 0x20 PUSH0 KECCAK256 ADD PUSH0 SWAP1 SWAP2 SWAP1 SWAP2 SWAP1 SWAP2 PUSH2 0x100 EXP DUP2 SLOAD DUP2 PUSH20 0xFFFFFFFFFFFFFFFFFFFFFFFFFFFFFFFFFFFFFFFF MUL NOT AND SWAP1 DUP4 PUSH20 0xFFFFFFFFFFFFFFFFFFFFFFFFFFFFFFFFFFFFFFFF AND MUL OR SWAP1 SSTORE POP POP JUMP JUMPDEST PUSH1 0x1 PUSH1 0x20 MSTORE DUP1 PUSH0 MSTORE PUSH1 0x40 PUSH0 KECCAK256 PUSH0 SWAP2 POP SLOAD SWAP1 PUSH2 0x100 EXP SWAP1 DIV PUSH1 0xFF AND DUP2 JUMP JUMPDEST PUSH1 0x1 PUSH0 CALLER PUSH20 0xFFFFFFFFFFFFFFFFFFFFFFFFFFFFFFFFFFFFFFFF AND PUSH20 0xFFFFFFFFFFFFFFFFFFFFFFFFFFFFFFFFFFFFFFFF AND DUP2 MSTORE PUSH1 0x20 ADD SWAP1 DUP2 MSTORE PUSH1 0x20 ADD PUSH0 KECCAK256 PUSH0 SWAP1 SLOAD SWAP1 PUSH2 0x100 EXP SWAP1 DIV PUSH1 0xFF AND PUSH2 0x14E5 JUMPI PUSH1 0x40 MLOAD PUSH32 0x8C379A000000000000000000000000000000000000000000000000000000000 DUP2 MSTORE PUSH1 0x4 ADD PUSH2 0x14DC SWAP1 PUSH2 0x1969 JUMP JUMPDEST PUSH1 0x40 MLOAD DUP1 SWAP2 SUB SWAP1 REVERT JUMPDEST PUSH0 PUSH20 0xFFFFFFFFFFFFFFFFFFFFFFFFFFFFFFFFFFFFFFFF AND DUP3 PUSH20 0xFFFFFFFFFFFFFFFFFFFFFFFFFFFFFFFFFFFFFFFF AND SUB PUSH2 0x1553 JUMPI PUSH1 0x40 MLOAD PUSH32 0x8C379A000000000000000000000000000000000000000000000000000000000 DUP2 MSTORE PUSH1 0x4 ADD PUSH2 0x154A SWAP1 PUSH2 0x19D1 JUMP JUMPDEST PUSH1 0x40 MLOAD DUP1 SWAP2 SUB SWAP1 REVERT JUMPDEST PUSH1 0x1 PUSH0 DUP4 PUSH20 0xFFFFFFFFFFFFFFFFFFFFFFFFFFFFFFFFFFFFFFFF AND PUSH20 0xFFFFFFFFFFFFFFFFFFFFFFFFFFFFFFFFFFFFFFFF AND DUP2 MSTORE PUSH1 0x20 ADD SWAP1 DUP2 MSTORE PUSH1 0x20 ADD PUSH0 KECCAK256 PUSH0 SWAP1 SLOAD SWAP1 PUSH2 0x100 EXP SWAP1 DIV PUSH1 0xFF AND PUSH2 0x15DC JUMPI PUSH1 0x40 MLOAD PUSH32 0x8C379A000000000000000000000000000000000000000000000000000000000 DUP2 MSTORE PUSH1 0x4 ADD PUSH2 0x15D3 SWAP1 PUSH2 0x1F43 JUMP JUMPDEST PUSH1 0x40 MLOAD DUP1 SWAP2 SUB SWAP1 REVERT JUMPDEST PUSH0 DUP2 GT PUSH2 0x161E JUMPI PUSH1 0x40 MLOAD PUSH32 0x8C379A000000000000000000000000000000000000000000000000000000000 DUP2 MSTORE PUSH1 0x4 ADD PUSH2 0x1615 SWAP1 PUSH2 0x1CAD JUMP JUMPDEST PUSH1 0x40 MLOAD DUP1 SWAP2 SUB SWAP1 REVERT JUMPDEST DUP1 PUSH1 0x4 PUSH0 DUP5 PUSH20 0xFFFFFFFFFFFFFFFFFFFFFFFFFFFFFFFFFFFFFFFF AND PUSH20 0xFFFFFFFFFFFFFFFFFFFFFFFFFFFFFFFFFFFFFFFF AND DUP2 MSTORE PUSH1 0x20 ADD SWAP1 DUP2 MSTORE PUSH1 0x20 ADD PUSH0 KECCAK256 PUSH0 CALLER PUSH20 0xFFFFFFFFFFFFFFFFFFFFFFFFFFFFFFFFFFFFFFFF AND PUSH20 0xFFFFFFFFFFFFFFFFFFFFFFFFFFFFFFFFFFFFFFFF AND DUP2 MSTORE PUSH1 0x20 ADD SWAP1 DUP2 MSTORE PUSH1 0x20 ADD PUSH0 KECCAK256 PUSH0 DUP3 DUP3 SLOAD PUSH2 0x16A5 SWAP2 SWAP1 PUSH2 0x1B1F JUMP JUMPDEST SWAP3 POP POP DUP2 SWAP1 SSTORE POP POP POP JUMP JUMPDEST PUSH0 PUSH0 REVERT JUMPDEST PUSH0 PUSH20 0xFFFFFFFFFFFFFFFFFFFFFFFFFFFFFFFFFFFFFFFF DUP3 AND SWAP1 POP SWAP2 SWAP1 POP JUMP JUMPDEST PUSH0 PUSH2 0x16DD DUP3 PUSH2 0x16B4 JUMP JUMPDEST SWAP1 POP SWAP2 SWAP1 POP JUMP JUMPDEST PUSH2 0x16ED DUP2 PUSH2 0x16D3 JUMP JUMPDEST DUP2 EQ PUSH2 0x16F7 JUMPI PUSH0 PUSH0 REVERT JUMPDEST POP JUMP JUMPDEST PUSH0 DUP2 CALLDATALOAD SWAP1 POP PUSH2 0x1708 DUP2 PUSH2 0x16E4 JUMP JUMPDEST SWAP3 SWAP2 POP POP JUMP JUMPDEST PUSH0 DUP2 SWAP1 POP SWAP2 SWAP1 POP JUMP JUMPDEST PUSH2 0x1720 DUP2 PUSH2 0x170E JUMP JUMPDEST DUP2 EQ PUSH2 0x172A JUMPI PUSH0 PUSH0 REVERT JUMPDEST POP JUMP JUMPDEST PUSH0 DUP2 CALLDATALOAD SWAP1 POP PUSH2 0x173B DUP2 PUSH2 0x1717 JUMP JUMPDEST SWAP3 SWAP2 POP POP JUMP JUMPDEST PUSH0 PUSH0 PUSH1 0x40 DUP4 DUP6 SUB SLT ISZERO PUSH2 0x1757 JUMPI PUSH2 0x1756 PUSH2 0x16B0 JUMP JUMPDEST JUMPDEST PUSH0 PUSH2 0x1764 DUP6 DUP3 DUP7 ADD PUSH2 0x16FA JUMP JUMPDEST SWAP3 POP POP PUSH1 0x20 PUSH2 0x1775 DUP6 DUP3 DUP7 ADD PUSH2 0x172D JUMP JUMPDEST SWAP2 POP POP SWAP3 POP SWAP3 SWAP1 POP JUMP JUMPDEST PUSH0 PUSH1 0x20 DUP3 DUP5 SUB SLT ISZERO PUSH2 0x1794 JUMPI PUSH2 0x1793 PUSH2 0x16B0 JUMP JUMPDEST JUMPDEST PUSH0 PUSH2 0x17A1 DUP5 DUP3 DUP6 ADD PUSH2 0x172D JUMP JUMPDEST SWAP2 POP POP SWAP3 SWAP2 POP POP JUMP JUMPDEST PUSH0 PUSH2 0x17B4 DUP3 PUSH2 0x16B4 JUMP JUMPDEST SWAP1 POP SWAP2 SWAP1 POP JUMP JUMPDEST PUSH2 0x17C4 DUP2 PUSH2 0x17AA JUMP JUMPDEST DUP3 MSTORE POP POP JUMP JUMPDEST PUSH0 PUSH1 0x20 DUP3 ADD SWAP1 POP PUSH2 0x17DD PUSH0 DUP4 ADD DUP5 PUSH2 0x17BB JUMP JUMPDEST SWAP3 SWAP2 POP POP JUMP JUMPDEST PUSH2 0x17EC DUP2 PUSH2 0x17AA JUMP JUMPDEST DUP2 EQ PUSH2 0x17F6 JUMPI PUSH0 PUSH0 REVERT JUMPDEST POP JUMP JUMPDEST PUSH0 DUP2 CALLDATALOAD SWAP1 POP PUSH2 0x1807 DUP2 PUSH2 0x17E3 JUMP JUMPDEST SWAP3 SWAP2 POP POP JUMP JUMPDEST PUSH0 PUSH1 0x20 DUP3 DUP5 SUB SLT ISZERO PUSH2 0x1822 JUMPI PUSH2 0x1821 PUSH2 0x16B0 JUMP JUMPDEST JUMPDEST PUSH0 PUSH2 0x182F DUP5 DUP3 DUP6 ADD PUSH2 0x17F9 JUMP JUMPDEST SWAP2 POP POP SWAP3 SWAP2 POP POP JUMP JUMPDEST PUSH2 0x1841 DUP2 PUSH2 0x170E JUMP JUMPDEST DUP3 MSTORE POP POP JUMP JUMPDEST PUSH0 PUSH1 0x20 DUP3 ADD SWAP1 POP PUSH2 0x185A PUSH0 DUP4 ADD DUP5 PUSH2 0x1838 JUMP JUMPDEST SWAP3 SWAP2 POP POP JUMP JUMPDEST PUSH0 PUSH0 PUSH1 0x40 DUP4 DUP6 SUB SLT ISZERO PUSH2 0x1876 JUMPI PUSH2 0x1875 PUSH2 0x16B0 JUMP JUMPDEST JUMPDEST PUSH0 PUSH2 0x1883 DUP6 DUP3 DUP7 ADD PUSH2 0x17F9 JUMP JUMPDEST SWAP3 POP POP PUSH1 0x20 PUSH2 0x1894 DUP6 DUP3 DUP7 ADD PUSH2 0x17F9 JUMP JUMPDEST SWAP2 POP POP SWAP3 POP SWAP3 SWAP1 POP JUMP JUMPDEST PUSH0 PUSH0 PUSH1 0x40 DUP4 DUP6 SUB SLT ISZERO PUSH2 0x18B4 JUMPI PUSH2 0x18B3 PUSH2 0x16B0 JUMP JUMPDEST JUMPDEST PUSH0 PUSH2 0x18C1 DUP6 DUP3 DUP7 ADD PUSH2 0x17F9 JUMP JUMPDEST SWAP3 POP POP PUSH1 0x20 PUSH2 0x18D2 DUP6 DUP3 DUP7 ADD PUSH2 0x172D JUMP JUMPDEST SWAP2 POP POP SWAP3 POP SWAP3 SWAP1 POP JUMP JUMPDEST PUSH0 DUP2 ISZERO ISZERO SWAP1 POP SWAP2 SWAP1 POP JUMP JUMPDEST PUSH2 0x18F0 DUP2 PUSH2 0x18DC JUMP JUMPDEST DUP3 MSTORE POP POP JUMP JUMPDEST PUSH0 PUSH1 0x20 DUP3 ADD SWAP1 POP PUSH2 0x1909 PUSH0 DUP4 ADD DUP5 PUSH2 0x18E7 JUMP JUMPDEST SWAP3 SWAP2 POP POP JUMP JUMPDEST PUSH0 DUP3 DUP3 MSTORE PUSH1 0x20 DUP3 ADD SWAP1 POP SWAP3 SWAP2 POP POP JUMP JUMPDEST PUSH32 0x596F7520617265206E6F74207265676973746572656400000000000000000000 PUSH0 DUP3 ADD MSTORE POP JUMP JUMPDEST PUSH0 PUSH2 0x1953 PUSH1 0x16 DUP4 PUSH2 0x190F JUMP JUMPDEST SWAP2 POP PUSH2 0x195E DUP3 PUSH2 0x191F JUMP JUMPDEST PUSH1 0x20 DUP3 ADD SWAP1 POP SWAP2 SWAP1 POP JUMP JUMPDEST PUSH0 PUSH1 0x20 DUP3 ADD SWAP1 POP DUP2 DUP2 SUB PUSH0 DUP4 ADD MSTORE PUSH2 0x1980 DUP2 PUSH2 0x1947 JUMP JUMPDEST SWAP1 POP SWAP2 SWAP1 POP JUMP JUMPDEST PUSH32 0x496E76616C696420616464726573730000000000000000000000000000000000 PUSH0 DUP3 ADD MSTORE POP JUMP JUMPDEST PUSH0 PUSH2 0x19BB PUSH1 0xF DUP4 PUSH2 0x190F JUMP JUMPDEST SWAP2 POP PUSH2 0x19C6 DUP3 PUSH2 0x1987 JUMP JUMPDEST PUSH1 0x20 DUP3 ADD SWAP1 POP SWAP2 SWAP1 POP JUMP JUMPDEST PUSH0 PUSH1 0x20 DUP3 ADD SWAP1 POP DUP2 DUP2 SUB PUSH0 DUP4 ADD MSTORE PUSH2 0x19E8 DUP2 PUSH2 0x19AF JUMP JUMPDEST SWAP1 POP SWAP2 SWAP1 POP JUMP JUMPDEST PUSH32 0x526563697069656E74206E6F7420726567697374657265640000000000000000 PUSH0 DUP3 ADD MSTORE POP JUMP JUMPDEST PUSH0 PUSH2 0x1A23 PUSH1 0x18 DUP4 PUSH2 0x190F JUMP JUMPDEST SWAP2 POP PUSH2 0x1A2E DUP3 PUSH2 0x19EF JUMP JUMPDEST PUSH1 0x20 DUP3 ADD SWAP1 POP SWAP2 SWAP1 POP JUMP JUMPDEST PUSH0 PUSH1 0x20 DUP3 ADD SWAP1 POP DUP2 DUP2 SUB PUSH0 DUP4 ADD MSTORE PUSH2 0x1A50 DUP2 PUSH2 0x1A17 JUMP JUMPDEST SWAP1 POP SWAP2 SWAP1 POP JUMP JUMPDEST PUSH32 0x496E73756666696369656E742062616C616E6365000000000000000000000000 PUSH0 DUP3 ADD MSTORE POP JUMP JUMPDEST PUSH0 PUSH2 0x1A8B PUSH1 0x14 DUP4 PUSH2 0x190F JUMP JUMPDEST SWAP2 POP PUSH2 0x1A96 DUP3 PUSH2 0x1A57 JUMP JUMPDEST PUSH1 0x20 DUP3 ADD SWAP1 POP SWAP2 SWAP1 POP JUMP JUMPDEST PUSH0 PUSH1 0x20 DUP3 ADD SWAP1 POP DUP2 DUP2 SUB PUSH0 DUP4 ADD MSTORE PUSH2 0x1AB8 DUP2 PUSH2 0x1A7F JUMP JUMPDEST SWAP1 POP SWAP2 SWAP1 POP JUMP JUMPDEST PUSH32 0x4E487B7100000000000000000000000000000000000000000000000000000000 PUSH0 MSTORE PUSH1 0x11 PUSH1 0x4 MSTORE PUSH1 0x24 PUSH0 REVERT JUMPDEST PUSH0 PUSH2 0x1AF6 DUP3 PUSH2 0x170E JUMP JUMPDEST SWAP2 POP PUSH2 0x1B01 DUP4 PUSH2 0x170E JUMP JUMPDEST SWAP3 POP DUP3 DUP3 SUB SWAP1 POP DUP2 DUP2 GT ISZERO PUSH2 0x1B19 JUMPI PUSH2 0x1B18 PUSH2 0x1ABF JUMP JUMPDEST JUMPDEST SWAP3 SWAP2 POP POP JUMP JUMPDEST PUSH0 PUSH2 0x1B29 DUP3 PUSH2 0x170E JUMP JUMPDEST SWAP2 POP PUSH2 0x1B34 DUP4 PUSH2 0x170E JUMP JUMPDEST SWAP3 POP DUP3 DUP3 ADD SWAP1 POP DUP1 DUP3 GT ISZERO PUSH2 0x1B4C JUMPI PUSH2 0x1B4B PUSH2 0x1ABF JUMP JUMPDEST JUMPDEST SWAP3 SWAP2 POP POP JUMP JUMPDEST PUSH0 DUP2 SWAP1 POP SWAP3 SWAP2 POP POP JUMP JUMPDEST POP JUMP JUMPDEST PUSH0 PUSH2 0x1B6A PUSH0 DUP4 PUSH2 0x1B52 JUMP JUMPDEST SWAP2 POP PUSH2 0x1B75 DUP3 PUSH2 0x1B5C JUMP JUMPDEST PUSH0 DUP3 ADD SWAP1 POP SWAP2 SWAP1 POP JUMP JUMPDEST PUSH0 PUSH2 0x1B89 DUP3 PUSH2 0x1B5F JUMP JUMPDEST SWAP2 POP DUP2 SWAP1 POP SWAP2 SWAP1 POP JUMP JUMPDEST PUSH32 0x5769746864726177616C206661696C6564000000000000000000000000000000 PUSH0 DUP3 ADD MSTORE POP JUMP JUMPDEST PUSH0 PUSH2 0x1BC7 PUSH1 0x11 DUP4 PUSH2 0x190F JUMP JUMPDEST SWAP2 POP PUSH2 0x1BD2 DUP3 PUSH2 0x1B93 JUMP JUMPDEST PUSH1 0x20 DUP3 ADD SWAP1 POP SWAP2 SWAP1 POP JUMP JUMPDEST PUSH0 PUSH1 0x20 DUP3 ADD SWAP1 POP DUP2 DUP2 SUB PUSH0 DUP4 ADD MSTORE PUSH2 0x1BF4 DUP2 PUSH2 0x1BBB JUMP JUMPDEST SWAP1 POP SWAP2 SWAP1 POP JUMP JUMPDEST PUSH32 0x4372656469746F72206E6F742072656769737465726564000000000000000000 PUSH0 DUP3 ADD MSTORE POP JUMP JUMPDEST PUSH0 PUSH2 0x1C2F PUSH1 0x17 DUP4 PUSH2 0x190F JUMP JUMPDEST SWAP2 POP PUSH2 0x1C3A DUP3 PUSH2 0x1BFB JUMP JUMPDEST PUSH1 0x20 DUP3 ADD SWAP1 POP SWAP2 SWAP1 POP JUMP JUMPDEST PUSH0 PUSH1 0x20 DUP3 ADD SWAP1 POP DUP2 DUP2 SUB PUSH0 DUP4 ADD MSTORE PUSH2 0x1C5C DUP2 PUSH2 0x1C23 JUMP JUMPDEST SWAP1 POP SWAP2 SWAP1 POP JUMP JUMPDEST PUSH32 0x416D6F756E74206D7573742062652067726561746572207468616E2030000000 PUSH0 DUP3 ADD MSTORE POP JUMP JUMPDEST PUSH0 PUSH2 0x1C97 PUSH1 0x1D DUP4 PUSH2 0x190F JUMP JUMPDEST SWAP2 POP PUSH2 0x1CA2 DUP3 PUSH2 0x1C63 JUMP JUMPDEST PUSH1 0x20 DUP3 ADD SWAP1 POP SWAP2 SWAP1 POP JUMP JUMPDEST PUSH0 PUSH1 0x20 DUP3 ADD SWAP1 POP DUP2 DUP2 SUB PUSH0 DUP4 ADD MSTORE PUSH2 0x1CC4 DUP2 PUSH2 0x1C8B JUMP JUMPDEST SWAP1 POP SWAP2 SWAP1 POP JUMP JUMPDEST PUSH32 0x4465627420616D6F756E7420696E636F72726563740000000000000000000000 PUSH0 DUP3 ADD MSTORE POP JUMP JUMPDEST PUSH0 PUSH2 0x1CFF PUSH1 0x15 DUP4 PUSH2 0x190F JUMP JUMPDEST SWAP2 POP PUSH2 0x1D0A DUP3 PUSH2 0x1CCB JUMP JUMPDEST PUSH1 0x20 DUP3 ADD SWAP1 POP SWAP2 SWAP1 POP JUMP JUMPDEST PUSH0 PUSH1 0x20 DUP3 ADD SWAP1 POP DUP2 DUP2 SUB PUSH0 DUP4 ADD MSTORE PUSH2 0x1D2C DUP2 PUSH2 0x1CF3 JUMP JUMPDEST SWAP1 POP SWAP2 SWAP1 POP JUMP JUMPDEST PUSH32 0x4D7573742073656E642045544800000000000000000000000000000000000000 PUSH0 DUP3 ADD MSTORE POP JUMP JUMPDEST PUSH0 PUSH2 0x1D67 PUSH1 0xD DUP4 PUSH2 0x190F JUMP JUMPDEST SWAP2 POP PUSH2 0x1D72 DUP3 PUSH2 0x1D33 JUMP JUMPDEST PUSH1 0x20 DUP3 ADD SWAP1 POP SWAP2 SWAP1 POP JUMP JUMPDEST PUSH0 PUSH1 0x20 DUP3 ADD SWAP1 POP DUP2 DUP2 SUB PUSH0 DUP4 ADD MSTORE PUSH2 0x1D94 DUP2 PUSH2 0x1D5B JUMP JUMPDEST SWAP1 POP SWAP2 SWAP1 POP JUMP JUMPDEST PUSH32 0x5472616E73666572206661696C65640000000000000000000000000000000000 PUSH0 DUP3 ADD MSTORE POP JUMP JUMPDEST PUSH0 PUSH2 0x1DCF PUSH1 0xF DUP4 PUSH2 0x190F JUMP JUMPDEST SWAP2 POP PUSH2 0x1DDA DUP3 PUSH2 0x1D9B JUMP JUMPDEST PUSH1 0x20 DUP3 ADD SWAP1 POP SWAP2 SWAP1 POP JUMP JUMPDEST PUSH0 PUSH1 0x20 DUP3 ADD SWAP1 POP DUP2 DUP2 SUB PUSH0 DUP4 ADD MSTORE PUSH2 0x1DFC DUP2 PUSH2 0x1DC3 JUMP JUMPDEST SWAP1 POP SWAP2 SWAP1 POP JUMP JUMPDEST PUSH32 0x4F6E6C79206F776E65722063616E20706572666F726D20746869732061637469 PUSH0 DUP3 ADD MSTORE PUSH32 0x6F6E000000000000000000000000000000000000000000000000000000000000 PUSH1 0x20 DUP3 ADD MSTORE POP JUMP JUMPDEST PUSH0 PUSH2 0x1E5D PUSH1 0x22 DUP4 PUSH2 0x190F JUMP JUMPDEST SWAP2 POP PUSH2 0x1E68 DUP3 PUSH2 0x1E03 JUMP JUMPDEST PUSH1 0x40 DUP3 ADD SWAP1 POP SWAP2 SWAP1 POP JUMP JUMPDEST PUSH0 PUSH1 0x20 DUP3 ADD SWAP1 POP DUP2 DUP2 SUB PUSH0 DUP4 ADD MSTORE PUSH2 0x1E8A DUP2 PUSH2 0x1E51 JUMP JUMPDEST SWAP1 POP SWAP2 SWAP1 POP JUMP JUMPDEST PUSH32 0x467269656E6420616C7265616479207265676973746572656400000000000000 PUSH0 DUP3 ADD MSTORE POP JUMP JUMPDEST PUSH0 PUSH2 0x1EC5 PUSH1 0x19 DUP4 PUSH2 0x190F JUMP JUMPDEST SWAP2 POP PUSH2 0x1ED0 DUP3 PUSH2 0x1E91 JUMP JUMPDEST PUSH1 0x20 DUP3 ADD SWAP1 POP SWAP2 SWAP1 POP JUMP JUMPDEST PUSH0 PUSH1 0x20 DUP3 ADD SWAP1 POP DUP2 DUP2 SUB PUSH0 DUP4 ADD MSTORE PUSH2 0x1EF2 DUP2 PUSH2 0x1EB9 JUMP JUMPDEST SWAP1 POP SWAP2 SWAP1 POP JUMP JUMPDEST PUSH32 0x41646472657373206E6F74207265676973746572656400000000000000000000 PUSH0 DUP3 ADD MSTORE POP JUMP JUMPDEST PUSH0 PUSH2 0x1F2D PUSH1 0x16 DUP4 PUSH2 0x190F JUMP JUMPDEST SWAP2 POP PUSH2 0x1F38 DUP3 PUSH2 0x1EF9 JUMP JUMPDEST PUSH1 0x20 DUP3 ADD SWAP1 POP SWAP2 SWAP1 POP JUMP JUMPDEST PUSH0 PUSH1 0x20 DUP3 ADD SWAP1 POP DUP2 DUP2 SUB PUSH0 DUP4 ADD MSTORE PUSH2 0x1F5A DUP2 PUSH2 0x1F21 JUMP JUMPDEST SWAP1 POP SWAP2 SWAP1 POP JUMP INVALID LOG2 PUSH5 0x6970667358 0x22 SLT KECCAK256 0xF6 0xE 0xD0 PUSH30 0xA5F2CC4C02365C87136BE9E3ED73852AC9AA8B7E6B715C4D7549C4676473 PUSH16 0x6C634300081E00330000000000000000 "
				},
				"gasEstimates": {
					"creation": {
						"codeDepositCost": "1617400",
						"executionCost": "98884",
						"totalCost": "1716284"
					},
					"external": {
						"addFriend(address)": "77868",
						"balances(address)": "2847",
						"checkBalance()": "4803",
						"debts(address,address)": "infinite",
						"depositIntoWallet()": "infinite",
						"friendList(uint256)": "4967",
						"owner()": "2618",
						"payFromWallet(address,uint256)": "infinite",
						"recordDebt(address,uint256)": "infinite",
						"registeredFriends(address)": "2899",
						"transferEther(address,uint256)": "infinite",
						"transferEtherViaCall(address,uint256)": "infinite",
						"withdraw(uint256)": "infinite"
					}
				},
				"methodIdentifiers": {
					"addFriend(address)": "d7a1cfe1",
					"balances(address)": "27e235e3",
					"checkBalance()": "c71daccb",
					"debts(address,address)": "4ac1c33d",
					"depositIntoWallet()": "cafe82cf",
					"friendList(uint256)": "21668a01",
					"owner()": "8da5cb5b",
					"payFromWallet(address,uint256)": "a49e225a",
					"recordDebt(address,uint256)": "fa74542d",
					"registeredFriends(address)": "e4860841",
					"transferEther(address,uint256)": "05b1137b",
					"transferEtherViaCall(address,uint256)": "d6081fff",
					"withdraw(uint256)": "2e1a7d4d"
				}
			},
			"storageLayout": {
				"storage": [
					{
						"astId": 3,
						"contract": "submissions/Zora/Day7SmipleIOUApp.sol:SimleIOU",
						"label": "owner",
						"offset": 0,
						"slot": "0",
						"type": "t_address"
					},
					{
						"astId": 7,
						"contract": "submissions/Zora/Day7SmipleIOUApp.sol:SimleIOU",
						"label": "registeredFriends",
						"offset": 0,
						"slot": "1",
						"type": "t_mapping(t_address,t_bool)"
					},
					{
						"astId": 10,
						"contract": "submissions/Zora/Day7SmipleIOUApp.sol:SimleIOU",
						"label": "friendList",
						"offset": 0,
						"slot": "2",
						"type": "t_array(t_address)dyn_storage"
					},
					{
						"astId": 14,
						"contract": "submissions/Zora/Day7SmipleIOUApp.sol:SimleIOU",
						"label": "balances",
						"offset": 0,
						"slot": "3",
						"type": "t_mapping(t_address,t_uint256)"
					},
					{
						"astId": 20,
						"contract": "submissions/Zora/Day7SmipleIOUApp.sol:SimleIOU",
						"label": "debts",
						"offset": 0,
						"slot": "4",
						"type": "t_mapping(t_address,t_mapping(t_address,t_uint256))"
					}
				],
				"types": {
					"t_address": {
						"encoding": "inplace",
						"label": "address",
						"numberOfBytes": "20"
					},
					"t_array(t_address)dyn_storage": {
						"base": "t_address",
						"encoding": "dynamic_array",
						"label": "address[]",
						"numberOfBytes": "32"
					},
					"t_bool": {
						"encoding": "inplace",
						"label": "bool",
						"numberOfBytes": "1"
					},
					"t_mapping(t_address,t_bool)": {
						"encoding": "mapping",
						"key": "t_address",
						"label": "mapping(address => bool)",
						"numberOfBytes": "32",
						"value": "t_bool"
					},
					"t_mapping(t_address,t_mapping(t_address,t_uint256))": {
						"encoding": "mapping",
						"key": "t_address",
						"label": "mapping(address => mapping(address => uint256))",
						"numberOfBytes": "32",
						"value": "t_mapping(t_address,t_uint256)"
					},
					"t_mapping(t_address,t_uint256)": {
						"encoding": "mapping",
						"key": "t_address",
						"label": "mapping(address => uint256)",
						"numberOfBytes": "32",
						"value": "t_uint256"
					},
					"t_uint256": {
						"encoding": "inplace",
						"label": "uint256",
						"numberOfBytes": "32"
					}
				}
			},
			"userdoc": {
				"kind": "user",
				"methods": {},
				"version": 1
			}
		}
	}
}