{
	"submissions/Zora/SubscriptionLogicV2.sol": {
		"SubscriptionLogicV2": {
			"abi": [
				{
					"inputs": [
						{
							"internalType": "uint8",
							"name": "planId",
							"type": "uint8"
						},
						{
							"internalType": "uint256",
							"name": "price",
							"type": "uint256"
						},
						{
							"internalType": "uint256",
							"name": "duration",
							"type": "uint256"
						}
					],
					"name": "addPlan",
					"outputs": [],
					"stateMutability": "nonpayable",
					"type": "function"
				},
				{
					"inputs": [
						{
							"internalType": "address",
							"name": "user",
							"type": "address"
						}
					],
					"name": "isActive",
					"outputs": [
						{
							"internalType": "bool",
							"name": "",
							"type": "bool"
						}
					],
					"stateMutability": "view",
					"type": "function"
				},
				{
					"inputs": [],
					"name": "logicContract",
					"outputs": [
						{
							"internalType": "address",
							"name": "",
							"type": "address"
						}
					],
					"stateMutability": "view",
					"type": "function"
				},
				{
					"inputs": [],
					"name": "owner",
					"outputs": [
						{
							"internalType": "address",
							"name": "",
							"type": "address"
						}
					],
					"stateMutability": "view",
					"type": "function"
				},
				{
					"inputs": [
						{
							"internalType": "address",
							"name": "user",
							"type": "address"
						}
					],
					"name": "pauseAccount",
					"outputs": [],
					"stateMutability": "nonpayable",
					"type": "function"
				},
				{
					"inputs": [
						{
							"internalType": "uint8",
							"name": "",
							"type": "uint8"
						}
					],
					"name": "planDuration",
					"outputs": [
						{
							"internalType": "uint256",
							"name": "",
							"type": "uint256"
						}
					],
					"stateMutability": "view",
					"type": "function"
				},
				{
					"inputs": [
						{
							"internalType": "uint8",
							"name": "",
							"type": "uint8"
						}
					],
					"name": "planPrices",
					"outputs": [
						{
							"internalType": "uint256",
							"name": "",
							"type": "uint256"
						}
					],
					"stateMutability": "view",
					"type": "function"
				},
				{
					"inputs": [
						{
							"internalType": "address",
							"name": "user",
							"type": "address"
						}
					],
					"name": "resumeAccount",
					"outputs": [],
					"stateMutability": "nonpayable",
					"type": "function"
				},
				{
					"inputs": [
						{
							"internalType": "uint8",
							"name": "planId",
							"type": "uint8"
						}
					],
					"name": "subscribe",
					"outputs": [],
					"stateMutability": "payable",
					"type": "function"
				},
				{
					"inputs": [
						{
							"internalType": "address",
							"name": "",
							"type": "address"
						}
					],
					"name": "subscriptions",
					"outputs": [
						{
							"internalType": "uint8",
							"name": "planId",
							"type": "uint8"
						},
						{
							"internalType": "uint256",
							"name": "expiry",
							"type": "uint256"
						},
						{
							"internalType": "bool",
							"name": "paused",
							"type": "bool"
						}
					],
					"stateMutability": "view",
					"type": "function"
				}
			],
			"devdoc": {
				"kind": "dev",
				"methods": {},
				"version": 1
			},
			"evm": {
				"assembly": "    /* \"submissions/Zora/SubscriptionLogicV2.sol\":105:1200  contract SubscriptionLogicV2 is SubscriptionStorageLayout {... */\n  mstore(0x40, 0x80)\n  callvalue\n  dup1\n  iszero\n  tag_1\n  jumpi\n  revert(0x00, 0x00)\ntag_1:\n  pop\n  dataSize(sub_0)\n  dup1\n  dataOffset(sub_0)\n  0x00\n  codecopy\n  0x00\n  return\nstop\n\nsub_0: assembly {\n        /* \"submissions/Zora/SubscriptionLogicV2.sol\":105:1200  contract SubscriptionLogicV2 is SubscriptionStorageLayout {... */\n      mstore(0x40, 0x80)\n      jumpi(tag_1, lt(calldatasize, 0x04))\n      shr(0xe0, calldataload(0x00))\n      dup1\n      0xb33187e7\n      gt\n      tag_12\n      jumpi\n      dup1\n      0xb33187e7\n      eq\n      tag_7\n      jumpi\n      dup1\n      0xcc0e97c9\n      eq\n      tag_8\n      jumpi\n      dup1\n      0xcc2d49d8\n      eq\n      tag_9\n      jumpi\n      dup1\n      0xf046395a\n      eq\n      tag_10\n      jumpi\n      dup1\n      0xf66d9820\n      eq\n      tag_11\n      jumpi\n      jump(tag_1)\n    tag_12:\n      dup1\n      0x484d1ad6\n      eq\n      tag_2\n      jumpi\n      dup1\n      0x49c7e639\n      eq\n      tag_3\n      jumpi\n      dup1\n      0x76ca4f72\n      eq\n      tag_4\n      jumpi\n      dup1\n      0x8da5cb5b\n      eq\n      tag_5\n      jumpi\n      dup1\n      0x9f8a13d7\n      eq\n      tag_6\n      jumpi\n    tag_1:\n      revert(0x00, 0x00)\n        /* \"submissions/Zora/SubscriptionLogicV2.sol\":990:1086  function pauseAccount(address user) external{... */\n    tag_2:\n      callvalue\n      dup1\n      iszero\n      tag_13\n      jumpi\n      revert(0x00, 0x00)\n    tag_13:\n      pop\n      tag_14\n      0x04\n      dup1\n      calldatasize\n      sub\n      dup2\n      add\n      swap1\n      tag_15\n      swap2\n      swap1\n      tag_16\n      jump\t// in\n    tag_15:\n      tag_17\n      jump\t// in\n    tag_14:\n      stop\n        /* \"submissions/Zora/SubscriptionLogicV2.sol\":340:794  function subscribe(uint8 planId) external payable {... */\n    tag_3:\n      tag_18\n      0x04\n      dup1\n      calldatasize\n      sub\n      dup2\n      add\n      swap1\n      tag_19\n      swap2\n      swap1\n      tag_20\n      jump\t// in\n    tag_19:\n      tag_21\n      jump\t// in\n    tag_18:\n      stop\n        /* \"submissions/Zora/SubscriptionStorageLayout.sol\":382:427  mapping(uint8 => uint256) public planDuration */\n    tag_4:\n      callvalue\n      dup1\n      iszero\n      tag_22\n      jumpi\n      revert(0x00, 0x00)\n    tag_22:\n      pop\n      tag_23\n      0x04\n      dup1\n      calldatasize\n      sub\n      dup2\n      add\n      swap1\n      tag_24\n      swap2\n      swap1\n      tag_20\n      jump\t// in\n    tag_24:\n      tag_25\n      jump\t// in\n    tag_23:\n      mload(0x40)\n      tag_26\n      swap2\n      swap1\n      tag_27\n      jump\t// in\n    tag_26:\n      mload(0x40)\n      dup1\n      swap2\n      sub\n      swap1\n      return\n        /* \"submissions/Zora/SubscriptionStorageLayout.sol\":137:157  address public owner */\n    tag_5:\n      callvalue\n      dup1\n      iszero\n      tag_28\n      jumpi\n      revert(0x00, 0x00)\n    tag_28:\n      pop\n      tag_29\n      tag_30\n      jump\t// in\n    tag_29:\n      mload(0x40)\n      tag_31\n      swap2\n      swap1\n      tag_32\n      jump\t// in\n    tag_31:\n      mload(0x40)\n      dup1\n      swap2\n      sub\n      swap1\n      return\n        /* \"submissions/Zora/SubscriptionLogicV2.sol\":808:982  function isActive(address user) external view returns (bool) {... */\n    tag_6:\n      callvalue\n      dup1\n      iszero\n      tag_33\n      jumpi\n      revert(0x00, 0x00)\n    tag_33:\n      pop\n      tag_34\n      0x04\n      dup1\n      calldatasize\n      sub\n      dup2\n      add\n      swap1\n      tag_35\n      swap2\n      swap1\n      tag_16\n      jump\t// in\n    tag_35:\n      tag_36\n      jump\t// in\n    tag_34:\n      mload(0x40)\n      tag_37\n      swap2\n      swap1\n      tag_38\n      jump\t// in\n    tag_37:\n      mload(0x40)\n      dup1\n      swap2\n      sub\n      swap1\n      return\n        /* \"submissions/Zora/SubscriptionStorageLayout.sol\":332:375  mapping(uint8 => uint256) public planPrices */\n    tag_7:\n      callvalue\n      dup1\n      iszero\n      tag_39\n      jumpi\n      revert(0x00, 0x00)\n    tag_39:\n      pop\n      tag_40\n      0x04\n      dup1\n      calldatasize\n      sub\n      dup2\n      add\n      swap1\n      tag_41\n      swap2\n      swap1\n      tag_20\n      jump\t// in\n    tag_41:\n      tag_42\n      jump\t// in\n    tag_40:\n      mload(0x40)\n      tag_43\n      swap2\n      swap1\n      tag_27\n      jump\t// in\n    tag_43:\n      mload(0x40)\n      dup1\n      swap2\n      sub\n      swap1\n      return\n        /* \"submissions/Zora/SubscriptionStorageLayout.sol\":102:130  address public logicContract */\n    tag_8:\n      callvalue\n      dup1\n      iszero\n      tag_44\n      jumpi\n      revert(0x00, 0x00)\n    tag_44:\n      pop\n      tag_45\n      tag_46\n      jump\t// in\n    tag_45:\n      mload(0x40)\n      tag_47\n      swap2\n      swap1\n      tag_32\n      jump\t// in\n    tag_47:\n      mload(0x40)\n      dup1\n      swap2\n      sub\n      swap1\n      return\n        /* \"submissions/Zora/SubscriptionLogicV2.sol\":176:328  function addPlan(uint8 planId, uint256 price, uint256 duration) external {... */\n    tag_9:\n      callvalue\n      dup1\n      iszero\n      tag_48\n      jumpi\n      revert(0x00, 0x00)\n    tag_48:\n      pop\n      tag_49\n      0x04\n      dup1\n      calldatasize\n      sub\n      dup2\n      add\n      swap1\n      tag_50\n      swap2\n      swap1\n      tag_51\n      jump\t// in\n    tag_50:\n      tag_52\n      jump\t// in\n    tag_49:\n      stop\n        /* \"submissions/Zora/SubscriptionStorageLayout.sol\":272:325  mapping(address => Subscription) public subscriptions */\n    tag_10:\n      callvalue\n      dup1\n      iszero\n      tag_53\n      jumpi\n      revert(0x00, 0x00)\n    tag_53:\n      pop\n      tag_54\n      0x04\n      dup1\n      calldatasize\n      sub\n      dup2\n      add\n      swap1\n      tag_55\n      swap2\n      swap1\n      tag_16\n      jump\t// in\n    tag_55:\n      tag_56\n      jump\t// in\n    tag_54:\n      mload(0x40)\n      tag_57\n      swap4\n      swap3\n      swap2\n      swap1\n      tag_58\n      jump\t// in\n    tag_57:\n      mload(0x40)\n      dup1\n      swap2\n      sub\n      swap1\n      return\n        /* \"submissions/Zora/SubscriptionLogicV2.sol\":1094:1193  function resumeAccount(address user) external {... */\n    tag_11:\n      callvalue\n      dup1\n      iszero\n      tag_59\n      jumpi\n      revert(0x00, 0x00)\n    tag_59:\n      pop\n      tag_60\n      0x04\n      dup1\n      calldatasize\n      sub\n      dup2\n      add\n      swap1\n      tag_61\n      swap2\n      swap1\n      tag_16\n      jump\t// in\n    tag_61:\n      tag_62\n      jump\t// in\n    tag_60:\n      stop\n        /* \"submissions/Zora/SubscriptionLogicV2.sol\":990:1086  function pauseAccount(address user) external{... */\n    tag_17:\n        /* \"submissions/Zora/SubscriptionLogicV2.sol\":1074:1078  true */\n      0x01\n        /* \"submissions/Zora/SubscriptionLogicV2.sol\":1045:1058  subscriptions */\n      0x02\n        /* \"submissions/Zora/SubscriptionLogicV2.sol\":1045:1064  subscriptions[user] */\n      0x00\n        /* \"submissions/Zora/SubscriptionLogicV2.sol\":1059:1063  user */\n      dup4\n        /* \"submissions/Zora/SubscriptionLogicV2.sol\":1045:1064  subscriptions[user] */\n      0xffffffffffffffffffffffffffffffffffffffff\n      and\n      0xffffffffffffffffffffffffffffffffffffffff\n      and\n      dup2\n      mstore\n      0x20\n      add\n      swap1\n      dup2\n      mstore\n      0x20\n      add\n      0x00\n      keccak256\n        /* \"submissions/Zora/SubscriptionLogicV2.sol\":1045:1071  subscriptions[user].paused */\n      0x02\n      add\n      0x00\n        /* \"submissions/Zora/SubscriptionLogicV2.sol\":1045:1078  subscriptions[user].paused = true */\n      0x0100\n      exp\n      dup2\n      sload\n      dup2\n      0xff\n      mul\n      not\n      and\n      swap1\n      dup4\n      iszero\n      iszero\n      mul\n      or\n      swap1\n      sstore\n      pop\n        /* \"submissions/Zora/SubscriptionLogicV2.sol\":990:1086  function pauseAccount(address user) external{... */\n      pop\n      jump\t// out\n        /* \"submissions/Zora/SubscriptionLogicV2.sol\":340:794  function subscribe(uint8 planId) external payable {... */\n    tag_21:\n        /* \"submissions/Zora/SubscriptionLogicV2.sol\":426:427  0 */\n      0x00\n        /* \"submissions/Zora/SubscriptionLogicV2.sol\":405:415  planPrices */\n      0x03\n        /* \"submissions/Zora/SubscriptionLogicV2.sol\":405:423  planPrices[planId] */\n      0x00\n        /* \"submissions/Zora/SubscriptionLogicV2.sol\":416:422  planId */\n      dup4\n        /* \"submissions/Zora/SubscriptionLogicV2.sol\":405:423  planPrices[planId] */\n      0xff\n      and\n      0xff\n      and\n      dup2\n      mstore\n      0x20\n      add\n      swap1\n      dup2\n      mstore\n      0x20\n      add\n      0x00\n      keccak256\n      sload\n        /* \"submissions/Zora/SubscriptionLogicV2.sol\":405:427  planPrices[planId] > 0 */\n      gt\n        /* \"submissions/Zora/SubscriptionLogicV2.sol\":397:444  require(planPrices[planId] > 0, \"Invalid plan\") */\n      tag_65\n      jumpi\n      mload(0x40)\n      0x08c379a000000000000000000000000000000000000000000000000000000000\n      dup2\n      mstore\n      0x04\n      add\n      tag_66\n      swap1\n      tag_67\n      jump\t// in\n    tag_66:\n      mload(0x40)\n      dup1\n      swap2\n      sub\n      swap1\n      revert\n    tag_65:\n        /* \"submissions/Zora/SubscriptionLogicV2.sol\":472:482  planPrices */\n      0x03\n        /* \"submissions/Zora/SubscriptionLogicV2.sol\":472:490  planPrices[planId] */\n      0x00\n        /* \"submissions/Zora/SubscriptionLogicV2.sol\":483:489  planId */\n      dup3\n        /* \"submissions/Zora/SubscriptionLogicV2.sol\":472:490  planPrices[planId] */\n      0xff\n      and\n      0xff\n      and\n      dup2\n      mstore\n      0x20\n      add\n      swap1\n      dup2\n      mstore\n      0x20\n      add\n      0x00\n      keccak256\n      sload\n        /* \"submissions/Zora/SubscriptionLogicV2.sol\":459:468  msg.value */\n      callvalue\n        /* \"submissions/Zora/SubscriptionLogicV2.sol\":459:490  msg.value >= planPrices[planId] */\n      lt\n      iszero\n        /* \"submissions/Zora/SubscriptionLogicV2.sol\":451:515  require(msg.value >= planPrices[planId], \"Insufficient payment\") */\n      tag_68\n      jumpi\n      mload(0x40)\n      0x08c379a000000000000000000000000000000000000000000000000000000000\n      dup2\n      mstore\n      0x04\n      add\n      tag_69\n      swap1\n      tag_70\n      jump\t// in\n    tag_69:\n      mload(0x40)\n      dup1\n      swap2\n      sub\n      swap1\n      revert\n    tag_68:\n        /* \"submissions/Zora/SubscriptionLogicV2.sol\":524:546  Subscription storage s */\n      0x00\n        /* \"submissions/Zora/SubscriptionLogicV2.sol\":549:562  subscriptions */\n      0x02\n        /* \"submissions/Zora/SubscriptionLogicV2.sol\":549:574  subscriptions[msg.sender] */\n      0x00\n        /* \"submissions/Zora/SubscriptionLogicV2.sol\":563:573  msg.sender */\n      caller\n        /* \"submissions/Zora/SubscriptionLogicV2.sol\":549:574  subscriptions[msg.sender] */\n      0xffffffffffffffffffffffffffffffffffffffff\n      and\n      0xffffffffffffffffffffffffffffffffffffffff\n      and\n      dup2\n      mstore\n      0x20\n      add\n      swap1\n      dup2\n      mstore\n      0x20\n      add\n      0x00\n      keccak256\n        /* \"submissions/Zora/SubscriptionLogicV2.sol\":524:574  Subscription storage s = subscriptions[msg.sender] */\n      swap1\n      pop\n        /* \"submissions/Zora/SubscriptionLogicV2.sol\":603:604  s */\n      dup1\n        /* \"submissions/Zora/SubscriptionLogicV2.sol\":603:611  s.expiry */\n      0x01\n      add\n      sload\n        /* \"submissions/Zora/SubscriptionLogicV2.sol\":585:600  block.timestamp */\n      timestamp\n        /* \"submissions/Zora/SubscriptionLogicV2.sol\":585:611  block.timestamp < s.expiry */\n      lt\n        /* \"submissions/Zora/SubscriptionLogicV2.sol\":581:738  if (block.timestamp < s.expiry) {... */\n      iszero\n      tag_71\n      jumpi\n        /* \"submissions/Zora/SubscriptionLogicV2.sol\":636:648  planDuration */\n      0x04\n        /* \"submissions/Zora/SubscriptionLogicV2.sol\":636:656  planDuration[planId] */\n      0x00\n        /* \"submissions/Zora/SubscriptionLogicV2.sol\":649:655  planId */\n      dup4\n        /* \"submissions/Zora/SubscriptionLogicV2.sol\":636:656  planDuration[planId] */\n      0xff\n      and\n      0xff\n      and\n      dup2\n      mstore\n      0x20\n      add\n      swap1\n      dup2\n      mstore\n      0x20\n      add\n      0x00\n      keccak256\n      sload\n        /* \"submissions/Zora/SubscriptionLogicV2.sol\":624:625  s */\n      dup2\n        /* \"submissions/Zora/SubscriptionLogicV2.sol\":624:632  s.expiry */\n      0x01\n      add\n      0x00\n        /* \"submissions/Zora/SubscriptionLogicV2.sol\":624:656  s.expiry += planDuration[planId] */\n      dup3\n      dup3\n      sload\n      tag_72\n      swap2\n      swap1\n      tag_73\n      jump\t// in\n    tag_72:\n      swap3\n      pop\n      pop\n      dup2\n      swap1\n      sstore\n      pop\n        /* \"submissions/Zora/SubscriptionLogicV2.sol\":581:738  if (block.timestamp < s.expiry) {... */\n      jump(tag_74)\n    tag_71:\n        /* \"submissions/Zora/SubscriptionLogicV2.sol\":710:722  planDuration */\n      0x04\n        /* \"submissions/Zora/SubscriptionLogicV2.sol\":710:730  planDuration[planId] */\n      0x00\n        /* \"submissions/Zora/SubscriptionLogicV2.sol\":723:729  planId */\n      dup4\n        /* \"submissions/Zora/SubscriptionLogicV2.sol\":710:730  planDuration[planId] */\n      0xff\n      and\n      0xff\n      and\n      dup2\n      mstore\n      0x20\n      add\n      swap1\n      dup2\n      mstore\n      0x20\n      add\n      0x00\n      keccak256\n      sload\n        /* \"submissions/Zora/SubscriptionLogicV2.sol\":692:707  block.timestamp */\n      timestamp\n        /* \"submissions/Zora/SubscriptionLogicV2.sol\":692:730  block.timestamp + planDuration[planId] */\n      tag_75\n      swap2\n      swap1\n      tag_73\n      jump\t// in\n    tag_75:\n        /* \"submissions/Zora/SubscriptionLogicV2.sol\":681:682  s */\n      dup2\n        /* \"submissions/Zora/SubscriptionLogicV2.sol\":681:689  s.expiry */\n      0x01\n      add\n        /* \"submissions/Zora/SubscriptionLogicV2.sol\":681:730  s.expiry = block.timestamp + planDuration[planId] */\n      dup2\n      swap1\n      sstore\n      pop\n        /* \"submissions/Zora/SubscriptionLogicV2.sol\":581:738  if (block.timestamp < s.expiry) {... */\n    tag_74:\n        /* \"submissions/Zora/SubscriptionLogicV2.sol\":757:763  planId */\n      dup2\n        /* \"submissions/Zora/SubscriptionLogicV2.sol\":746:747  s */\n      dup2\n        /* \"submissions/Zora/SubscriptionLogicV2.sol\":746:754  s.planId */\n      0x00\n      add\n      0x00\n        /* \"submissions/Zora/SubscriptionLogicV2.sol\":746:763  s.planId = planId */\n      0x0100\n      exp\n      dup2\n      sload\n      dup2\n      0xff\n      mul\n      not\n      and\n      swap1\n      dup4\n      0xff\n      and\n      mul\n      or\n      swap1\n      sstore\n      pop\n        /* \"submissions/Zora/SubscriptionLogicV2.sol\":781:786  false */\n      0x00\n        /* \"submissions/Zora/SubscriptionLogicV2.sol\":770:771  s */\n      dup2\n        /* \"submissions/Zora/SubscriptionLogicV2.sol\":770:778  s.paused */\n      0x02\n      add\n      0x00\n        /* \"submissions/Zora/SubscriptionLogicV2.sol\":770:786  s.paused = false */\n      0x0100\n      exp\n      dup2\n      sload\n      dup2\n      0xff\n      mul\n      not\n      and\n      swap1\n      dup4\n      iszero\n      iszero\n      mul\n      or\n      swap1\n      sstore\n      pop\n        /* \"submissions/Zora/SubscriptionLogicV2.sol\":390:794  {... */\n      pop\n        /* \"submissions/Zora/SubscriptionLogicV2.sol\":340:794  function subscribe(uint8 planId) external payable {... */\n      pop\n      jump\t// out\n        /* \"submissions/Zora/SubscriptionStorageLayout.sol\":382:427  mapping(uint8 => uint256) public planDuration */\n    tag_25:\n      mstore(0x20, 0x04)\n      dup1\n      0x00\n      mstore\n      keccak256(0x00, 0x40)\n      0x00\n      swap2\n      pop\n      swap1\n      pop\n      sload\n      dup2\n      jump\t// out\n        /* \"submissions/Zora/SubscriptionStorageLayout.sol\":137:157  address public owner */\n    tag_30:\n      0x01\n      0x00\n      swap1\n      sload\n      swap1\n      0x0100\n      exp\n      swap1\n      div\n      0xffffffffffffffffffffffffffffffffffffffff\n      and\n      dup2\n      jump\t// out\n        /* \"submissions/Zora/SubscriptionLogicV2.sol\":808:982  function isActive(address user) external view returns (bool) {... */\n    tag_36:\n        /* \"submissions/Zora/SubscriptionLogicV2.sol\":863:867  bool */\n      0x00\n        /* \"submissions/Zora/SubscriptionLogicV2.sol\":876:897  Subscription memory s */\n      0x00\n        /* \"submissions/Zora/SubscriptionLogicV2.sol\":900:913  subscriptions */\n      0x02\n        /* \"submissions/Zora/SubscriptionLogicV2.sol\":900:919  subscriptions[user] */\n      0x00\n        /* \"submissions/Zora/SubscriptionLogicV2.sol\":914:918  user */\n      dup5\n        /* \"submissions/Zora/SubscriptionLogicV2.sol\":900:919  subscriptions[user] */\n      0xffffffffffffffffffffffffffffffffffffffff\n      and\n      0xffffffffffffffffffffffffffffffffffffffff\n      and\n      dup2\n      mstore\n      0x20\n      add\n      swap1\n      dup2\n      mstore\n      0x20\n      add\n      0x00\n      keccak256\n        /* \"submissions/Zora/SubscriptionLogicV2.sol\":876:919  Subscription memory s = subscriptions[user] */\n      mload(0x40)\n      dup1\n      0x60\n      add\n      0x40\n      mstore\n      swap1\n      dup2\n      0x00\n      dup3\n      add\n      0x00\n      swap1\n      sload\n      swap1\n      0x0100\n      exp\n      swap1\n      div\n      0xff\n      and\n      0xff\n      and\n      0xff\n      and\n      dup2\n      mstore\n      0x20\n      add\n      0x01\n      dup3\n      add\n      sload\n      dup2\n      mstore\n      0x20\n      add\n      0x02\n      dup3\n      add\n      0x00\n      swap1\n      sload\n      swap1\n      0x0100\n      exp\n      swap1\n      div\n      0xff\n      and\n      iszero\n      iszero\n      iszero\n      iszero\n      dup2\n      mstore\n      pop\n      pop\n      swap1\n      pop\n        /* \"submissions/Zora/SubscriptionLogicV2.sol\":952:953  s */\n      dup1\n        /* \"submissions/Zora/SubscriptionLogicV2.sol\":952:960  s.expiry */\n      0x20\n      add\n      mload\n        /* \"submissions/Zora/SubscriptionLogicV2.sol\":934:949  block.timestamp */\n      timestamp\n        /* \"submissions/Zora/SubscriptionLogicV2.sol\":934:960  block.timestamp < s.expiry */\n      lt\n        /* \"submissions/Zora/SubscriptionLogicV2.sol\":934:973  block.timestamp < s.expiry && !s.paused */\n      dup1\n      iszero\n      tag_77\n      jumpi\n      pop\n        /* \"submissions/Zora/SubscriptionLogicV2.sol\":965:966  s */\n      dup1\n        /* \"submissions/Zora/SubscriptionLogicV2.sol\":965:973  s.paused */\n      0x40\n      add\n      mload\n        /* \"submissions/Zora/SubscriptionLogicV2.sol\":964:973  !s.paused */\n      iszero\n        /* \"submissions/Zora/SubscriptionLogicV2.sol\":934:973  block.timestamp < s.expiry && !s.paused */\n    tag_77:\n        /* \"submissions/Zora/SubscriptionLogicV2.sol\":926:974  return (block.timestamp < s.expiry && !s.paused) */\n      swap2\n      pop\n      pop\n        /* \"submissions/Zora/SubscriptionLogicV2.sol\":808:982  function isActive(address user) external view returns (bool) {... */\n      swap2\n      swap1\n      pop\n      jump\t// out\n        /* \"submissions/Zora/SubscriptionStorageLayout.sol\":332:375  mapping(uint8 => uint256) public planPrices */\n    tag_42:\n      mstore(0x20, 0x03)\n      dup1\n      0x00\n      mstore\n      keccak256(0x00, 0x40)\n      0x00\n      swap2\n      pop\n      swap1\n      pop\n      sload\n      dup2\n      jump\t// out\n        /* \"submissions/Zora/SubscriptionStorageLayout.sol\":102:130  address public logicContract */\n    tag_46:\n      0x00\n      0x00\n      swap1\n      sload\n      swap1\n      0x0100\n      exp\n      swap1\n      div\n      0xffffffffffffffffffffffffffffffffffffffff\n      and\n      dup2\n      jump\t// out\n        /* \"submissions/Zora/SubscriptionLogicV2.sol\":176:328  function addPlan(uint8 planId, uint256 price, uint256 duration) external {... */\n    tag_52:\n        /* \"submissions/Zora/SubscriptionLogicV2.sol\":277:282  price */\n      dup2\n        /* \"submissions/Zora/SubscriptionLogicV2.sol\":256:266  planPrices */\n      0x03\n        /* \"submissions/Zora/SubscriptionLogicV2.sol\":256:274  planPrices[planId] */\n      0x00\n        /* \"submissions/Zora/SubscriptionLogicV2.sol\":267:273  planId */\n      dup6\n        /* \"submissions/Zora/SubscriptionLogicV2.sol\":256:274  planPrices[planId] */\n      0xff\n      and\n      0xff\n      and\n      dup2\n      mstore\n      0x20\n      add\n      swap1\n      dup2\n      mstore\n      0x20\n      add\n      0x00\n      keccak256\n        /* \"submissions/Zora/SubscriptionLogicV2.sol\":256:282  planPrices[planId] = price */\n      dup2\n      swap1\n      sstore\n      pop\n        /* \"submissions/Zora/SubscriptionLogicV2.sol\":312:320  duration */\n      dup1\n        /* \"submissions/Zora/SubscriptionLogicV2.sol\":289:301  planDuration */\n      0x04\n        /* \"submissions/Zora/SubscriptionLogicV2.sol\":289:309  planDuration[planId] */\n      0x00\n        /* \"submissions/Zora/SubscriptionLogicV2.sol\":302:308  planId */\n      dup6\n        /* \"submissions/Zora/SubscriptionLogicV2.sol\":289:309  planDuration[planId] */\n      0xff\n      and\n      0xff\n      and\n      dup2\n      mstore\n      0x20\n      add\n      swap1\n      dup2\n      mstore\n      0x20\n      add\n      0x00\n      keccak256\n        /* \"submissions/Zora/SubscriptionLogicV2.sol\":289:320  planDuration[planId] = duration */\n      dup2\n      swap1\n      sstore\n      pop\n        /* \"submissions/Zora/SubscriptionLogicV2.sol\":176:328  function addPlan(uint8 planId, uint256 price, uint256 duration) external {... */\n      pop\n      pop\n      pop\n      jump\t// out\n        /* \"submissions/Zora/SubscriptionStorageLayout.sol\":272:325  mapping(address => Subscription) public subscriptions */\n    tag_56:\n      mstore(0x20, 0x02)\n      dup1\n      0x00\n      mstore\n      keccak256(0x00, 0x40)\n      0x00\n      swap2\n      pop\n      swap1\n      pop\n      dup1\n      0x00\n      add\n      0x00\n      swap1\n      sload\n      swap1\n      0x0100\n      exp\n      swap1\n      div\n      0xff\n      and\n      swap1\n      dup1\n      0x01\n      add\n      sload\n      swap1\n      dup1\n      0x02\n      add\n      0x00\n      swap1\n      sload\n      swap1\n      0x0100\n      exp\n      swap1\n      div\n      0xff\n      and\n      swap1\n      pop\n      dup4\n      jump\t// out\n        /* \"submissions/Zora/SubscriptionLogicV2.sol\":1094:1193  function resumeAccount(address user) external {... */\n    tag_62:\n        /* \"submissions/Zora/SubscriptionLogicV2.sol\":1180:1185  false */\n      0x00\n        /* \"submissions/Zora/SubscriptionLogicV2.sol\":1151:1164  subscriptions */\n      0x02\n        /* \"submissions/Zora/SubscriptionLogicV2.sol\":1151:1170  subscriptions[user] */\n      0x00\n        /* \"submissions/Zora/SubscriptionLogicV2.sol\":1165:1169  user */\n      dup4\n        /* \"submissions/Zora/SubscriptionLogicV2.sol\":1151:1170  subscriptions[user] */\n      0xffffffffffffffffffffffffffffffffffffffff\n      and\n      0xffffffffffffffffffffffffffffffffffffffff\n      and\n      dup2\n      mstore\n      0x20\n      add\n      swap1\n      dup2\n      mstore\n      0x20\n      add\n      0x00\n      keccak256\n        /* \"submissions/Zora/SubscriptionLogicV2.sol\":1151:1177  subscriptions[user].paused */\n      0x02\n      add\n      0x00\n        /* \"submissions/Zora/SubscriptionLogicV2.sol\":1151:1185  subscriptions[user].paused = false */\n      0x0100\n      exp\n      dup2\n      sload\n      dup2\n      0xff\n      mul\n      not\n      and\n      swap1\n      dup4\n      iszero\n      iszero\n      mul\n      or\n      swap1\n      sstore\n      pop\n        /* \"submissions/Zora/SubscriptionLogicV2.sol\":1094:1193  function resumeAccount(address user) external {... */\n      pop\n      jump\t// out\n        /* \"#utility.yul\":88:205   */\n    tag_81:\n        /* \"#utility.yul\":197:198   */\n      0x00\n        /* \"#utility.yul\":194:195   */\n      0x00\n        /* \"#utility.yul\":187:199   */\n      revert\n        /* \"#utility.yul\":334:460   */\n    tag_83:\n        /* \"#utility.yul\":371:378   */\n      0x00\n        /* \"#utility.yul\":411:453   */\n      0xffffffffffffffffffffffffffffffffffffffff\n        /* \"#utility.yul\":404:409   */\n      dup3\n        /* \"#utility.yul\":400:454   */\n      and\n        /* \"#utility.yul\":389:454   */\n      swap1\n      pop\n        /* \"#utility.yul\":334:460   */\n      swap2\n      swap1\n      pop\n      jump\t// out\n        /* \"#utility.yul\":466:562   */\n    tag_84:\n        /* \"#utility.yul\":503:510   */\n      0x00\n        /* \"#utility.yul\":532:556   */\n      tag_110\n        /* \"#utility.yul\":550:555   */\n      dup3\n        /* \"#utility.yul\":532:556   */\n      tag_83\n      jump\t// in\n    tag_110:\n        /* \"#utility.yul\":521:556   */\n      swap1\n      pop\n        /* \"#utility.yul\":466:562   */\n      swap2\n      swap1\n      pop\n      jump\t// out\n        /* \"#utility.yul\":568:690   */\n    tag_85:\n        /* \"#utility.yul\":641:665   */\n      tag_112\n        /* \"#utility.yul\":659:664   */\n      dup2\n        /* \"#utility.yul\":641:665   */\n      tag_84\n      jump\t// in\n    tag_112:\n        /* \"#utility.yul\":634:639   */\n      dup2\n        /* \"#utility.yul\":631:666   */\n      eq\n        /* \"#utility.yul\":621:684   */\n      tag_113\n      jumpi\n        /* \"#utility.yul\":680:681   */\n      0x00\n        /* \"#utility.yul\":677:678   */\n      0x00\n        /* \"#utility.yul\":670:682   */\n      revert\n        /* \"#utility.yul\":621:684   */\n    tag_113:\n        /* \"#utility.yul\":568:690   */\n      pop\n      jump\t// out\n        /* \"#utility.yul\":696:835   */\n    tag_86:\n        /* \"#utility.yul\":742:747   */\n      0x00\n        /* \"#utility.yul\":780:786   */\n      dup2\n        /* \"#utility.yul\":767:787   */\n      calldataload\n        /* \"#utility.yul\":758:787   */\n      swap1\n      pop\n        /* \"#utility.yul\":796:829   */\n      tag_115\n        /* \"#utility.yul\":823:828   */\n      dup2\n        /* \"#utility.yul\":796:829   */\n      tag_85\n      jump\t// in\n    tag_115:\n        /* \"#utility.yul\":696:835   */\n      swap3\n      swap2\n      pop\n      pop\n      jump\t// out\n        /* \"#utility.yul\":841:1170   */\n    tag_16:\n        /* \"#utility.yul\":900:906   */\n      0x00\n        /* \"#utility.yul\":949:951   */\n      0x20\n        /* \"#utility.yul\":937:946   */\n      dup3\n        /* \"#utility.yul\":928:935   */\n      dup5\n        /* \"#utility.yul\":924:947   */\n      sub\n        /* \"#utility.yul\":920:952   */\n      slt\n        /* \"#utility.yul\":917:1036   */\n      iszero\n      tag_117\n      jumpi\n        /* \"#utility.yul\":955:1034   */\n      tag_118\n      tag_81\n      jump\t// in\n    tag_118:\n        /* \"#utility.yul\":917:1036   */\n    tag_117:\n        /* \"#utility.yul\":1075:1076   */\n      0x00\n        /* \"#utility.yul\":1100:1153   */\n      tag_119\n        /* \"#utility.yul\":1145:1152   */\n      dup5\n        /* \"#utility.yul\":1136:1142   */\n      dup3\n        /* \"#utility.yul\":1125:1134   */\n      dup6\n        /* \"#utility.yul\":1121:1143   */\n      add\n        /* \"#utility.yul\":1100:1153   */\n      tag_86\n      jump\t// in\n    tag_119:\n        /* \"#utility.yul\":1090:1153   */\n      swap2\n      pop\n        /* \"#utility.yul\":1046:1163   */\n      pop\n        /* \"#utility.yul\":841:1170   */\n      swap3\n      swap2\n      pop\n      pop\n      jump\t// out\n        /* \"#utility.yul\":1176:1262   */\n    tag_87:\n        /* \"#utility.yul\":1211:1218   */\n      0x00\n        /* \"#utility.yul\":1251:1255   */\n      0xff\n        /* \"#utility.yul\":1244:1249   */\n      dup3\n        /* \"#utility.yul\":1240:1256   */\n      and\n        /* \"#utility.yul\":1229:1256   */\n      swap1\n      pop\n        /* \"#utility.yul\":1176:1262   */\n      swap2\n      swap1\n      pop\n      jump\t// out\n        /* \"#utility.yul\":1268:1386   */\n    tag_88:\n        /* \"#utility.yul\":1339:1361   */\n      tag_122\n        /* \"#utility.yul\":1355:1360   */\n      dup2\n        /* \"#utility.yul\":1339:1361   */\n      tag_87\n      jump\t// in\n    tag_122:\n        /* \"#utility.yul\":1332:1337   */\n      dup2\n        /* \"#utility.yul\":1329:1362   */\n      eq\n        /* \"#utility.yul\":1319:1380   */\n      tag_123\n      jumpi\n        /* \"#utility.yul\":1376:1377   */\n      0x00\n        /* \"#utility.yul\":1373:1374   */\n      0x00\n        /* \"#utility.yul\":1366:1378   */\n      revert\n        /* \"#utility.yul\":1319:1380   */\n    tag_123:\n        /* \"#utility.yul\":1268:1386   */\n      pop\n      jump\t// out\n        /* \"#utility.yul\":1392:1527   */\n    tag_89:\n        /* \"#utility.yul\":1436:1441   */\n      0x00\n        /* \"#utility.yul\":1474:1480   */\n      dup2\n        /* \"#utility.yul\":1461:1481   */\n      calldataload\n        /* \"#utility.yul\":1452:1481   */\n      swap1\n      pop\n        /* \"#utility.yul\":1490:1521   */\n      tag_125\n        /* \"#utility.yul\":1515:1520   */\n      dup2\n        /* \"#utility.yul\":1490:1521   */\n      tag_88\n      jump\t// in\n    tag_125:\n        /* \"#utility.yul\":1392:1527   */\n      swap3\n      swap2\n      pop\n      pop\n      jump\t// out\n        /* \"#utility.yul\":1533:1858   */\n    tag_20:\n        /* \"#utility.yul\":1590:1596   */\n      0x00\n        /* \"#utility.yul\":1639:1641   */\n      0x20\n        /* \"#utility.yul\":1627:1636   */\n      dup3\n        /* \"#utility.yul\":1618:1625   */\n      dup5\n        /* \"#utility.yul\":1614:1637   */\n      sub\n        /* \"#utility.yul\":1610:1642   */\n      slt\n        /* \"#utility.yul\":1607:1726   */\n      iszero\n      tag_127\n      jumpi\n        /* \"#utility.yul\":1645:1724   */\n      tag_128\n      tag_81\n      jump\t// in\n    tag_128:\n        /* \"#utility.yul\":1607:1726   */\n    tag_127:\n        /* \"#utility.yul\":1765:1766   */\n      0x00\n        /* \"#utility.yul\":1790:1841   */\n      tag_129\n        /* \"#utility.yul\":1833:1840   */\n      dup5\n        /* \"#utility.yul\":1824:1830   */\n      dup3\n        /* \"#utility.yul\":1813:1822   */\n      dup6\n        /* \"#utility.yul\":1809:1831   */\n      add\n        /* \"#utility.yul\":1790:1841   */\n      tag_89\n      jump\t// in\n    tag_129:\n        /* \"#utility.yul\":1780:1841   */\n      swap2\n      pop\n        /* \"#utility.yul\":1736:1851   */\n      pop\n        /* \"#utility.yul\":1533:1858   */\n      swap3\n      swap2\n      pop\n      pop\n      jump\t// out\n        /* \"#utility.yul\":1864:1941   */\n    tag_90:\n        /* \"#utility.yul\":1901:1908   */\n      0x00\n        /* \"#utility.yul\":1930:1935   */\n      dup2\n        /* \"#utility.yul\":1919:1935   */\n      swap1\n      pop\n        /* \"#utility.yul\":1864:1941   */\n      swap2\n      swap1\n      pop\n      jump\t// out\n        /* \"#utility.yul\":1947:2065   */\n    tag_91:\n        /* \"#utility.yul\":2034:2058   */\n      tag_132\n        /* \"#utility.yul\":2052:2057   */\n      dup2\n        /* \"#utility.yul\":2034:2058   */\n      tag_90\n      jump\t// in\n    tag_132:\n        /* \"#utility.yul\":2029:2032   */\n      dup3\n        /* \"#utility.yul\":2022:2059   */\n      mstore\n        /* \"#utility.yul\":1947:2065   */\n      pop\n      pop\n      jump\t// out\n        /* \"#utility.yul\":2071:2293   */\n    tag_27:\n        /* \"#utility.yul\":2164:2168   */\n      0x00\n        /* \"#utility.yul\":2202:2204   */\n      0x20\n        /* \"#utility.yul\":2191:2200   */\n      dup3\n        /* \"#utility.yul\":2187:2205   */\n      add\n        /* \"#utility.yul\":2179:2205   */\n      swap1\n      pop\n        /* \"#utility.yul\":2215:2286   */\n      tag_134\n        /* \"#utility.yul\":2283:2284   */\n      0x00\n        /* \"#utility.yul\":2272:2281   */\n      dup4\n        /* \"#utility.yul\":2268:2285   */\n      add\n        /* \"#utility.yul\":2259:2265   */\n      dup5\n        /* \"#utility.yul\":2215:2286   */\n      tag_91\n      jump\t// in\n    tag_134:\n        /* \"#utility.yul\":2071:2293   */\n      swap3\n      swap2\n      pop\n      pop\n      jump\t// out\n        /* \"#utility.yul\":2299:2417   */\n    tag_92:\n        /* \"#utility.yul\":2386:2410   */\n      tag_136\n        /* \"#utility.yul\":2404:2409   */\n      dup2\n        /* \"#utility.yul\":2386:2410   */\n      tag_84\n      jump\t// in\n    tag_136:\n        /* \"#utility.yul\":2381:2384   */\n      dup3\n        /* \"#utility.yul\":2374:2411   */\n      mstore\n        /* \"#utility.yul\":2299:2417   */\n      pop\n      pop\n      jump\t// out\n        /* \"#utility.yul\":2423:2645   */\n    tag_32:\n        /* \"#utility.yul\":2516:2520   */\n      0x00\n        /* \"#utility.yul\":2554:2556   */\n      0x20\n        /* \"#utility.yul\":2543:2552   */\n      dup3\n        /* \"#utility.yul\":2539:2557   */\n      add\n        /* \"#utility.yul\":2531:2557   */\n      swap1\n      pop\n        /* \"#utility.yul\":2567:2638   */\n      tag_138\n        /* \"#utility.yul\":2635:2636   */\n      0x00\n        /* \"#utility.yul\":2624:2633   */\n      dup4\n        /* \"#utility.yul\":2620:2637   */\n      add\n        /* \"#utility.yul\":2611:2617   */\n      dup5\n        /* \"#utility.yul\":2567:2638   */\n      tag_92\n      jump\t// in\n    tag_138:\n        /* \"#utility.yul\":2423:2645   */\n      swap3\n      swap2\n      pop\n      pop\n      jump\t// out\n        /* \"#utility.yul\":2651:2741   */\n    tag_93:\n        /* \"#utility.yul\":2685:2692   */\n      0x00\n        /* \"#utility.yul\":2728:2733   */\n      dup2\n        /* \"#utility.yul\":2721:2734   */\n      iszero\n        /* \"#utility.yul\":2714:2735   */\n      iszero\n        /* \"#utility.yul\":2703:2735   */\n      swap1\n      pop\n        /* \"#utility.yul\":2651:2741   */\n      swap2\n      swap1\n      pop\n      jump\t// out\n        /* \"#utility.yul\":2747:2856   */\n    tag_94:\n        /* \"#utility.yul\":2828:2849   */\n      tag_141\n        /* \"#utility.yul\":2843:2848   */\n      dup2\n        /* \"#utility.yul\":2828:2849   */\n      tag_93\n      jump\t// in\n    tag_141:\n        /* \"#utility.yul\":2823:2826   */\n      dup3\n        /* \"#utility.yul\":2816:2850   */\n      mstore\n        /* \"#utility.yul\":2747:2856   */\n      pop\n      pop\n      jump\t// out\n        /* \"#utility.yul\":2862:3072   */\n    tag_38:\n        /* \"#utility.yul\":2949:2953   */\n      0x00\n        /* \"#utility.yul\":2987:2989   */\n      0x20\n        /* \"#utility.yul\":2976:2985   */\n      dup3\n        /* \"#utility.yul\":2972:2990   */\n      add\n        /* \"#utility.yul\":2964:2990   */\n      swap1\n      pop\n        /* \"#utility.yul\":3000:3065   */\n      tag_143\n        /* \"#utility.yul\":3062:3063   */\n      0x00\n        /* \"#utility.yul\":3051:3060   */\n      dup4\n        /* \"#utility.yul\":3047:3064   */\n      add\n        /* \"#utility.yul\":3038:3044   */\n      dup5\n        /* \"#utility.yul\":3000:3065   */\n      tag_94\n      jump\t// in\n    tag_143:\n        /* \"#utility.yul\":2862:3072   */\n      swap3\n      swap2\n      pop\n      pop\n      jump\t// out\n        /* \"#utility.yul\":3078:3200   */\n    tag_95:\n        /* \"#utility.yul\":3151:3175   */\n      tag_145\n        /* \"#utility.yul\":3169:3174   */\n      dup2\n        /* \"#utility.yul\":3151:3175   */\n      tag_90\n      jump\t// in\n    tag_145:\n        /* \"#utility.yul\":3144:3149   */\n      dup2\n        /* \"#utility.yul\":3141:3176   */\n      eq\n        /* \"#utility.yul\":3131:3194   */\n      tag_146\n      jumpi\n        /* \"#utility.yul\":3190:3191   */\n      0x00\n        /* \"#utility.yul\":3187:3188   */\n      0x00\n        /* \"#utility.yul\":3180:3192   */\n      revert\n        /* \"#utility.yul\":3131:3194   */\n    tag_146:\n        /* \"#utility.yul\":3078:3200   */\n      pop\n      jump\t// out\n        /* \"#utility.yul\":3206:3345   */\n    tag_96:\n        /* \"#utility.yul\":3252:3257   */\n      0x00\n        /* \"#utility.yul\":3290:3296   */\n      dup2\n        /* \"#utility.yul\":3277:3297   */\n      calldataload\n        /* \"#utility.yul\":3268:3297   */\n      swap1\n      pop\n        /* \"#utility.yul\":3306:3339   */\n      tag_148\n        /* \"#utility.yul\":3333:3338   */\n      dup2\n        /* \"#utility.yul\":3306:3339   */\n      tag_95\n      jump\t// in\n    tag_148:\n        /* \"#utility.yul\":3206:3345   */\n      swap3\n      swap2\n      pop\n      pop\n      jump\t// out\n        /* \"#utility.yul\":3351:3966   */\n    tag_51:\n        /* \"#utility.yul\":3426:3432   */\n      0x00\n        /* \"#utility.yul\":3434:3440   */\n      0x00\n        /* \"#utility.yul\":3442:3448   */\n      0x00\n        /* \"#utility.yul\":3491:3493   */\n      0x60\n        /* \"#utility.yul\":3479:3488   */\n      dup5\n        /* \"#utility.yul\":3470:3477   */\n      dup7\n        /* \"#utility.yul\":3466:3489   */\n      sub\n        /* \"#utility.yul\":3462:3494   */\n      slt\n        /* \"#utility.yul\":3459:3578   */\n      iszero\n      tag_150\n      jumpi\n        /* \"#utility.yul\":3497:3576   */\n      tag_151\n      tag_81\n      jump\t// in\n    tag_151:\n        /* \"#utility.yul\":3459:3578   */\n    tag_150:\n        /* \"#utility.yul\":3617:3618   */\n      0x00\n        /* \"#utility.yul\":3642:3693   */\n      tag_152\n        /* \"#utility.yul\":3685:3692   */\n      dup7\n        /* \"#utility.yul\":3676:3682   */\n      dup3\n        /* \"#utility.yul\":3665:3674   */\n      dup8\n        /* \"#utility.yul\":3661:3683   */\n      add\n        /* \"#utility.yul\":3642:3693   */\n      tag_89\n      jump\t// in\n    tag_152:\n        /* \"#utility.yul\":3632:3693   */\n      swap4\n      pop\n        /* \"#utility.yul\":3588:3703   */\n      pop\n        /* \"#utility.yul\":3742:3744   */\n      0x20\n        /* \"#utility.yul\":3768:3821   */\n      tag_153\n        /* \"#utility.yul\":3813:3820   */\n      dup7\n        /* \"#utility.yul\":3804:3810   */\n      dup3\n        /* \"#utility.yul\":3793:3802   */\n      dup8\n        /* \"#utility.yul\":3789:3811   */\n      add\n        /* \"#utility.yul\":3768:3821   */\n      tag_96\n      jump\t// in\n    tag_153:\n        /* \"#utility.yul\":3758:3821   */\n      swap3\n      pop\n        /* \"#utility.yul\":3713:3831   */\n      pop\n        /* \"#utility.yul\":3870:3872   */\n      0x40\n        /* \"#utility.yul\":3896:3949   */\n      tag_154\n        /* \"#utility.yul\":3941:3948   */\n      dup7\n        /* \"#utility.yul\":3932:3938   */\n      dup3\n        /* \"#utility.yul\":3921:3930   */\n      dup8\n        /* \"#utility.yul\":3917:3939   */\n      add\n        /* \"#utility.yul\":3896:3949   */\n      tag_96\n      jump\t// in\n    tag_154:\n        /* \"#utility.yul\":3886:3949   */\n      swap2\n      pop\n        /* \"#utility.yul\":3841:3959   */\n      pop\n        /* \"#utility.yul\":3351:3966   */\n      swap3\n      pop\n      swap3\n      pop\n      swap3\n      jump\t// out\n        /* \"#utility.yul\":3972:4084   */\n    tag_97:\n        /* \"#utility.yul\":4055:4077   */\n      tag_156\n        /* \"#utility.yul\":4071:4076   */\n      dup2\n        /* \"#utility.yul\":4055:4077   */\n      tag_87\n      jump\t// in\n    tag_156:\n        /* \"#utility.yul\":4050:4053   */\n      dup3\n        /* \"#utility.yul\":4043:4078   */\n      mstore\n        /* \"#utility.yul\":3972:4084   */\n      pop\n      pop\n      jump\t// out\n        /* \"#utility.yul\":4090:4512   */\n    tag_58:\n        /* \"#utility.yul\":4229:4233   */\n      0x00\n        /* \"#utility.yul\":4267:4269   */\n      0x60\n        /* \"#utility.yul\":4256:4265   */\n      dup3\n        /* \"#utility.yul\":4252:4270   */\n      add\n        /* \"#utility.yul\":4244:4270   */\n      swap1\n      pop\n        /* \"#utility.yul\":4280:4347   */\n      tag_158\n        /* \"#utility.yul\":4344:4345   */\n      0x00\n        /* \"#utility.yul\":4333:4342   */\n      dup4\n        /* \"#utility.yul\":4329:4346   */\n      add\n        /* \"#utility.yul\":4320:4326   */\n      dup7\n        /* \"#utility.yul\":4280:4347   */\n      tag_97\n      jump\t// in\n    tag_158:\n        /* \"#utility.yul\":4357:4429   */\n      tag_159\n        /* \"#utility.yul\":4425:4427   */\n      0x20\n        /* \"#utility.yul\":4414:4423   */\n      dup4\n        /* \"#utility.yul\":4410:4428   */\n      add\n        /* \"#utility.yul\":4401:4407   */\n      dup6\n        /* \"#utility.yul\":4357:4429   */\n      tag_91\n      jump\t// in\n    tag_159:\n        /* \"#utility.yul\":4439:4505   */\n      tag_160\n        /* \"#utility.yul\":4501:4503   */\n      0x40\n        /* \"#utility.yul\":4490:4499   */\n      dup4\n        /* \"#utility.yul\":4486:4504   */\n      add\n        /* \"#utility.yul\":4477:4483   */\n      dup5\n        /* \"#utility.yul\":4439:4505   */\n      tag_94\n      jump\t// in\n    tag_160:\n        /* \"#utility.yul\":4090:4512   */\n      swap5\n      swap4\n      pop\n      pop\n      pop\n      pop\n      jump\t// out\n        /* \"#utility.yul\":4518:4687   */\n    tag_98:\n        /* \"#utility.yul\":4602:4613   */\n      0x00\n        /* \"#utility.yul\":4636:4642   */\n      dup3\n        /* \"#utility.yul\":4631:4634   */\n      dup3\n        /* \"#utility.yul\":4624:4643   */\n      mstore\n        /* \"#utility.yul\":4676:4680   */\n      0x20\n        /* \"#utility.yul\":4671:4674   */\n      dup3\n        /* \"#utility.yul\":4667:4681   */\n      add\n        /* \"#utility.yul\":4652:4681   */\n      swap1\n      pop\n        /* \"#utility.yul\":4518:4687   */\n      swap3\n      swap2\n      pop\n      pop\n      jump\t// out\n        /* \"#utility.yul\":4693:4855   */\n    tag_99:\n        /* \"#utility.yul\":4833:4847   */\n      0x496e76616c696420706c616e0000000000000000000000000000000000000000\n        /* \"#utility.yul\":4829:4830   */\n      0x00\n        /* \"#utility.yul\":4821:4827   */\n      dup3\n        /* \"#utility.yul\":4817:4831   */\n      add\n        /* \"#utility.yul\":4810:4848   */\n      mstore\n        /* \"#utility.yul\":4693:4855   */\n      pop\n      jump\t// out\n        /* \"#utility.yul\":4861:5227   */\n    tag_100:\n        /* \"#utility.yul\":5003:5006   */\n      0x00\n        /* \"#utility.yul\":5024:5091   */\n      tag_164\n        /* \"#utility.yul\":5088:5090   */\n      0x0c\n        /* \"#utility.yul\":5083:5086   */\n      dup4\n        /* \"#utility.yul\":5024:5091   */\n      tag_98\n      jump\t// in\n    tag_164:\n        /* \"#utility.yul\":5017:5091   */\n      swap2\n      pop\n        /* \"#utility.yul\":5100:5193   */\n      tag_165\n        /* \"#utility.yul\":5189:5192   */\n      dup3\n        /* \"#utility.yul\":5100:5193   */\n      tag_99\n      jump\t// in\n    tag_165:\n        /* \"#utility.yul\":5218:5220   */\n      0x20\n        /* \"#utility.yul\":5213:5216   */\n      dup3\n        /* \"#utility.yul\":5209:5221   */\n      add\n        /* \"#utility.yul\":5202:5221   */\n      swap1\n      pop\n        /* \"#utility.yul\":4861:5227   */\n      swap2\n      swap1\n      pop\n      jump\t// out\n        /* \"#utility.yul\":5233:5652   */\n    tag_67:\n        /* \"#utility.yul\":5399:5403   */\n      0x00\n        /* \"#utility.yul\":5437:5439   */\n      0x20\n        /* \"#utility.yul\":5426:5435   */\n      dup3\n        /* \"#utility.yul\":5422:5440   */\n      add\n        /* \"#utility.yul\":5414:5440   */\n      swap1\n      pop\n        /* \"#utility.yul\":5486:5495   */\n      dup2\n        /* \"#utility.yul\":5480:5484   */\n      dup2\n        /* \"#utility.yul\":5476:5496   */\n      sub\n        /* \"#utility.yul\":5472:5473   */\n      0x00\n        /* \"#utility.yul\":5461:5470   */\n      dup4\n        /* \"#utility.yul\":5457:5474   */\n      add\n        /* \"#utility.yul\":5450:5497   */\n      mstore\n        /* \"#utility.yul\":5514:5645   */\n      tag_167\n        /* \"#utility.yul\":5640:5644   */\n      dup2\n        /* \"#utility.yul\":5514:5645   */\n      tag_100\n      jump\t// in\n    tag_167:\n        /* \"#utility.yul\":5506:5645   */\n      swap1\n      pop\n        /* \"#utility.yul\":5233:5652   */\n      swap2\n      swap1\n      pop\n      jump\t// out\n        /* \"#utility.yul\":5658:5828   */\n    tag_101:\n        /* \"#utility.yul\":5798:5820   */\n      0x496e73756666696369656e74207061796d656e74000000000000000000000000\n        /* \"#utility.yul\":5794:5795   */\n      0x00\n        /* \"#utility.yul\":5786:5792   */\n      dup3\n        /* \"#utility.yul\":5782:5796   */\n      add\n        /* \"#utility.yul\":5775:5821   */\n      mstore\n        /* \"#utility.yul\":5658:5828   */\n      pop\n      jump\t// out\n        /* \"#utility.yul\":5834:6200   */\n    tag_102:\n        /* \"#utility.yul\":5976:5979   */\n      0x00\n        /* \"#utility.yul\":5997:6064   */\n      tag_170\n        /* \"#utility.yul\":6061:6063   */\n      0x14\n        /* \"#utility.yul\":6056:6059   */\n      dup4\n        /* \"#utility.yul\":5997:6064   */\n      tag_98\n      jump\t// in\n    tag_170:\n        /* \"#utility.yul\":5990:6064   */\n      swap2\n      pop\n        /* \"#utility.yul\":6073:6166   */\n      tag_171\n        /* \"#utility.yul\":6162:6165   */\n      dup3\n        /* \"#utility.yul\":6073:6166   */\n      tag_101\n      jump\t// in\n    tag_171:\n        /* \"#utility.yul\":6191:6193   */\n      0x20\n        /* \"#utility.yul\":6186:6189   */\n      dup3\n        /* \"#utility.yul\":6182:6194   */\n      add\n        /* \"#utility.yul\":6175:6194   */\n      swap1\n      pop\n        /* \"#utility.yul\":5834:6200   */\n      swap2\n      swap1\n      pop\n      jump\t// out\n        /* \"#utility.yul\":6206:6625   */\n    tag_70:\n        /* \"#utility.yul\":6372:6376   */\n      0x00\n        /* \"#utility.yul\":6410:6412   */\n      0x20\n        /* \"#utility.yul\":6399:6408   */\n      dup3\n        /* \"#utility.yul\":6395:6413   */\n      add\n        /* \"#utility.yul\":6387:6413   */\n      swap1\n      pop\n        /* \"#utility.yul\":6459:6468   */\n      dup2\n        /* \"#utility.yul\":6453:6457   */\n      dup2\n        /* \"#utility.yul\":6449:6469   */\n      sub\n        /* \"#utility.yul\":6445:6446   */\n      0x00\n        /* \"#utility.yul\":6434:6443   */\n      dup4\n        /* \"#utility.yul\":6430:6447   */\n      add\n        /* \"#utility.yul\":6423:6470   */\n      mstore\n        /* \"#utility.yul\":6487:6618   */\n      tag_173\n        /* \"#utility.yul\":6613:6617   */\n      dup2\n        /* \"#utility.yul\":6487:6618   */\n      tag_102\n      jump\t// in\n    tag_173:\n        /* \"#utility.yul\":6479:6618   */\n      swap1\n      pop\n        /* \"#utility.yul\":6206:6625   */\n      swap2\n      swap1\n      pop\n      jump\t// out\n        /* \"#utility.yul\":6631:6811   */\n    tag_103:\n        /* \"#utility.yul\":6679:6756   */\n      0x4e487b7100000000000000000000000000000000000000000000000000000000\n        /* \"#utility.yul\":6676:6677   */\n      0x00\n        /* \"#utility.yul\":6669:6757   */\n      mstore\n        /* \"#utility.yul\":6776:6780   */\n      0x11\n        /* \"#utility.yul\":6773:6774   */\n      0x04\n        /* \"#utility.yul\":6766:6781   */\n      mstore\n        /* \"#utility.yul\":6800:6804   */\n      0x24\n        /* \"#utility.yul\":6797:6798   */\n      0x00\n        /* \"#utility.yul\":6790:6805   */\n      revert\n        /* \"#utility.yul\":6817:7008   */\n    tag_73:\n        /* \"#utility.yul\":6857:6860   */\n      0x00\n        /* \"#utility.yul\":6876:6896   */\n      tag_176\n        /* \"#utility.yul\":6894:6895   */\n      dup3\n        /* \"#utility.yul\":6876:6896   */\n      tag_90\n      jump\t// in\n    tag_176:\n        /* \"#utility.yul\":6871:6896   */\n      swap2\n      pop\n        /* \"#utility.yul\":6910:6930   */\n      tag_177\n        /* \"#utility.yul\":6928:6929   */\n      dup4\n        /* \"#utility.yul\":6910:6930   */\n      tag_90\n      jump\t// in\n    tag_177:\n        /* \"#utility.yul\":6905:6930   */\n      swap3\n      pop\n        /* \"#utility.yul\":6953:6954   */\n      dup3\n        /* \"#utility.yul\":6950:6951   */\n      dup3\n        /* \"#utility.yul\":6946:6955   */\n      add\n        /* \"#utility.yul\":6939:6955   */\n      swap1\n      pop\n        /* \"#utility.yul\":6974:6977   */\n      dup1\n        /* \"#utility.yul\":6971:6972   */\n      dup3\n        /* \"#utility.yul\":6968:6978   */\n      gt\n        /* \"#utility.yul\":6965:7001   */\n      iszero\n      tag_178\n      jumpi\n        /* \"#utility.yul\":6981:6999   */\n      tag_179\n      tag_103\n      jump\t// in\n    tag_179:\n        /* \"#utility.yul\":6965:7001   */\n    tag_178:\n        /* \"#utility.yul\":6817:7008   */\n      swap3\n      swap2\n      pop\n      pop\n      jump\t// out\n\n    auxdata: 0xa2646970667358221220e593cc85dcdb9356b6e15d78356ec77e3d1a15dfde686bcde61bfd371a3952cc64736f6c634300081e0033\n}\n",
				"bytecode": {
					"linkReferences": {},
					"object": "6080604052348015600e575f5ffd5b506109fe8061001c5f395ff3fe608060405260043610610090575f3560e01c8063b33187e711610058578063b33187e71461017a578063cc0e97c9146101b6578063cc2d49d8146101e0578063f046395a14610208578063f66d98201461024657610090565b8063484d1ad61461009457806349c7e639146100bc57806376ca4f72146100d85780638da5cb5b146101145780639f8a13d71461013e575b5f5ffd5b34801561009f575f5ffd5b506100ba60048036038101906100b591906106b2565b61026e565b005b6100d660048036038101906100d19190610713565b6102c9565b005b3480156100e3575f5ffd5b506100fe60048036038101906100f99190610713565b610464565b60405161010b9190610756565b60405180910390f35b34801561011f575f5ffd5b50610128610479565b604051610135919061077e565b60405180910390f35b348015610149575f5ffd5b50610164600480360381019061015f91906106b2565b61049e565b60405161017191906107b1565b60405180910390f35b348015610185575f5ffd5b506101a0600480360381019061019b9190610713565b610546565b6040516101ad9190610756565b60405180910390f35b3480156101c1575f5ffd5b506101ca61055b565b6040516101d7919061077e565b60405180910390f35b3480156101eb575f5ffd5b50610206600480360381019061020191906107f4565b61057f565b005b348015610213575f5ffd5b5061022e600480360381019061022991906106b2565b6105bc565b60405161023d93929190610853565b60405180910390f35b348015610251575f5ffd5b5061026c600480360381019061026791906106b2565b6105fa565b005b600160025f8373ffffffffffffffffffffffffffffffffffffffff1673ffffffffffffffffffffffffffffffffffffffff1681526020019081526020015f206002015f6101000a81548160ff02191690831515021790555050565b5f60035f8360ff1660ff1681526020019081526020015f205411610322576040517f08c379a0000000000000000000000000000000000000000000000000000000008152600401610319906108e2565b60405180910390fd5b60035f8260ff1660ff1681526020019081526020015f205434101561037c576040517f08c379a00000000000000000000000000000000000000000000000000000000081526004016103739061094a565b60405180910390fd5b5f60025f3373ffffffffffffffffffffffffffffffffffffffff1673ffffffffffffffffffffffffffffffffffffffff1681526020019081526020015f20905080600101544210156103fe5760045f8360ff1660ff1681526020019081526020015f2054816001015f8282546103f29190610995565b9250508190555061042a565b60045f8360ff1660ff1681526020019081526020015f2054426104219190610995565b81600101819055505b81815f015f6101000a81548160ff021916908360ff1602179055505f816002015f6101000a81548160ff0219169083151502179055505050565b6004602052805f5260405f205f915090505481565b60015f9054906101000a900473ffffffffffffffffffffffffffffffffffffffff1681565b5f5f60025f8473ffffffffffffffffffffffffffffffffffffffff1673ffffffffffffffffffffffffffffffffffffffff1681526020019081526020015f206040518060600160405290815f82015f9054906101000a900460ff1660ff1660ff16815260200160018201548152602001600282015f9054906101000a900460ff161515151581525050905080602001514210801561053e57508060400151155b915050919050565b6003602052805f5260405f205f915090505481565b5f5f9054906101000a900473ffffffffffffffffffffffffffffffffffffffff1681565b8160035f8560ff1660ff1681526020019081526020015f20819055508060045f8560ff1660ff1681526020019081526020015f2081905550505050565b6002602052805f5260405f205f91509050805f015f9054906101000a900460ff1690806001015490806002015f9054906101000a900460ff16905083565b5f60025f8373ffffffffffffffffffffffffffffffffffffffff1673ffffffffffffffffffffffffffffffffffffffff1681526020019081526020015f206002015f6101000a81548160ff02191690831515021790555050565b5f5ffd5b5f73ffffffffffffffffffffffffffffffffffffffff82169050919050565b5f61068182610658565b9050919050565b61069181610677565b811461069b575f5ffd5b50565b5f813590506106ac81610688565b92915050565b5f602082840312156106c7576106c6610654565b5b5f6106d48482850161069e565b91505092915050565b5f60ff82169050919050565b6106f2816106dd565b81146106fc575f5ffd5b50565b5f8135905061070d816106e9565b92915050565b5f6020828403121561072857610727610654565b5b5f610735848285016106ff565b91505092915050565b5f819050919050565b6107508161073e565b82525050565b5f6020820190506107695f830184610747565b92915050565b61077881610677565b82525050565b5f6020820190506107915f83018461076f565b92915050565b5f8115159050919050565b6107ab81610797565b82525050565b5f6020820190506107c45f8301846107a2565b92915050565b6107d38161073e565b81146107dd575f5ffd5b50565b5f813590506107ee816107ca565b92915050565b5f5f5f6060848603121561080b5761080a610654565b5b5f610818868287016106ff565b9350506020610829868287016107e0565b925050604061083a868287016107e0565b9150509250925092565b61084d816106dd565b82525050565b5f6060820190506108665f830186610844565b6108736020830185610747565b61088060408301846107a2565b949350505050565b5f82825260208201905092915050565b7f496e76616c696420706c616e00000000000000000000000000000000000000005f82015250565b5f6108cc600c83610888565b91506108d782610898565b602082019050919050565b5f6020820190508181035f8301526108f9816108c0565b9050919050565b7f496e73756666696369656e74207061796d656e740000000000000000000000005f82015250565b5f610934601483610888565b915061093f82610900565b602082019050919050565b5f6020820190508181035f83015261096181610928565b9050919050565b7f4e487b71000000000000000000000000000000000000000000000000000000005f52601160045260245ffd5b5f61099f8261073e565b91506109aa8361073e565b92508282019050808211156109c2576109c1610968565b5b9291505056fea2646970667358221220e593cc85dcdb9356b6e15d78356ec77e3d1a15dfde686bcde61bfd371a3952cc64736f6c634300081e0033",
					"opcodes": "PUSH1 0x80 PUSH1 0x40 MSTORE CALLVALUE DUP1 ISZERO PUSH1 0xE JUMPI PUSH0 PUSH0 REVERT JUMPDEST POP PUSH2 0x9FE DUP1 PUSH2 0x1C PUSH0 CODECOPY PUSH0 RETURN INVALID PUSH1 0x80 PUSH1 0x40 MSTORE PUSH1 0x4 CALLDATASIZE LT PUSH2 0x90 JUMPI PUSH0 CALLDATALOAD PUSH1 0xE0 SHR DUP1 PUSH4 0xB33187E7 GT PUSH2 0x58 JUMPI DUP1 PUSH4 0xB33187E7 EQ PUSH2 0x17A JUMPI DUP1 PUSH4 0xCC0E97C9 EQ PUSH2 0x1B6 JUMPI DUP1 PUSH4 0xCC2D49D8 EQ PUSH2 0x1E0 JUMPI DUP1 PUSH4 0xF046395A EQ PUSH2 0x208 JUMPI DUP1 PUSH4 0xF66D9820 EQ PUSH2 0x246 JUMPI PUSH2 0x90 JUMP JUMPDEST DUP1 PUSH4 0x484D1AD6 EQ PUSH2 0x94 JUMPI DUP1 PUSH4 0x49C7E639 EQ PUSH2 0xBC JUMPI DUP1 PUSH4 0x76CA4F72 EQ PUSH2 0xD8 JUMPI DUP1 PUSH4 0x8DA5CB5B EQ PUSH2 0x114 JUMPI DUP1 PUSH4 0x9F8A13D7 EQ PUSH2 0x13E JUMPI JUMPDEST PUSH0 PUSH0 REVERT JUMPDEST CALLVALUE DUP1 ISZERO PUSH2 0x9F JUMPI PUSH0 PUSH0 REVERT JUMPDEST POP PUSH2 0xBA PUSH1 0x4 DUP1 CALLDATASIZE SUB DUP2 ADD SWAP1 PUSH2 0xB5 SWAP2 SWAP1 PUSH2 0x6B2 JUMP JUMPDEST PUSH2 0x26E JUMP JUMPDEST STOP JUMPDEST PUSH2 0xD6 PUSH1 0x4 DUP1 CALLDATASIZE SUB DUP2 ADD SWAP1 PUSH2 0xD1 SWAP2 SWAP1 PUSH2 0x713 JUMP JUMPDEST PUSH2 0x2C9 JUMP JUMPDEST STOP JUMPDEST CALLVALUE DUP1 ISZERO PUSH2 0xE3 JUMPI PUSH0 PUSH0 REVERT JUMPDEST POP PUSH2 0xFE PUSH1 0x4 DUP1 CALLDATASIZE SUB DUP2 ADD SWAP1 PUSH2 0xF9 SWAP2 SWAP1 PUSH2 0x713 JUMP JUMPDEST PUSH2 0x464 JUMP JUMPDEST PUSH1 0x40 MLOAD PUSH2 0x10B SWAP2 SWAP1 PUSH2 0x756 JUMP JUMPDEST PUSH1 0x40 MLOAD DUP1 SWAP2 SUB SWAP1 RETURN JUMPDEST CALLVALUE DUP1 ISZERO PUSH2 0x11F JUMPI PUSH0 PUSH0 REVERT JUMPDEST POP PUSH2 0x128 PUSH2 0x479 JUMP JUMPDEST PUSH1 0x40 MLOAD PUSH2 0x135 SWAP2 SWAP1 PUSH2 0x77E JUMP JUMPDEST PUSH1 0x40 MLOAD DUP1 SWAP2 SUB SWAP1 RETURN JUMPDEST CALLVALUE DUP1 ISZERO PUSH2 0x149 JUMPI PUSH0 PUSH0 REVERT JUMPDEST POP PUSH2 0x164 PUSH1 0x4 DUP1 CALLDATASIZE SUB DUP2 ADD SWAP1 PUSH2 0x15F SWAP2 SWAP1 PUSH2 0x6B2 JUMP JUMPDEST PUSH2 0x49E JUMP JUMPDEST PUSH1 0x40 MLOAD PUSH2 0x171 SWAP2 SWAP1 PUSH2 0x7B1 JUMP JUMPDEST PUSH1 0x40 MLOAD DUP1 SWAP2 SUB SWAP1 RETURN JUMPDEST CALLVALUE DUP1 ISZERO PUSH2 0x185 JUMPI PUSH0 PUSH0 REVERT JUMPDEST POP PUSH2 0x1A0 PUSH1 0x4 DUP1 CALLDATASIZE SUB DUP2 ADD SWAP1 PUSH2 0x19B SWAP2 SWAP1 PUSH2 0x713 JUMP JUMPDEST PUSH2 0x546 JUMP JUMPDEST PUSH1 0x40 MLOAD PUSH2 0x1AD SWAP2 SWAP1 PUSH2 0x756 JUMP JUMPDEST PUSH1 0x40 MLOAD DUP1 SWAP2 SUB SWAP1 RETURN JUMPDEST CALLVALUE DUP1 ISZERO PUSH2 0x1C1 JUMPI PUSH0 PUSH0 REVERT JUMPDEST POP PUSH2 0x1CA PUSH2 0x55B JUMP JUMPDEST PUSH1 0x40 MLOAD PUSH2 0x1D7 SWAP2 SWAP1 PUSH2 0x77E JUMP JUMPDEST PUSH1 0x40 MLOAD DUP1 SWAP2 SUB SWAP1 RETURN JUMPDEST CALLVALUE DUP1 ISZERO PUSH2 0x1EB JUMPI PUSH0 PUSH0 REVERT JUMPDEST POP PUSH2 0x206 PUSH1 0x4 DUP1 CALLDATASIZE SUB DUP2 ADD SWAP1 PUSH2 0x201 SWAP2 SWAP1 PUSH2 0x7F4 JUMP JUMPDEST PUSH2 0x57F JUMP JUMPDEST STOP JUMPDEST CALLVALUE DUP1 ISZERO PUSH2 0x213 JUMPI PUSH0 PUSH0 REVERT JUMPDEST POP PUSH2 0x22E PUSH1 0x4 DUP1 CALLDATASIZE SUB DUP2 ADD SWAP1 PUSH2 0x229 SWAP2 SWAP1 PUSH2 0x6B2 JUMP JUMPDEST PUSH2 0x5BC JUMP JUMPDEST PUSH1 0x40 MLOAD PUSH2 0x23D SWAP4 SWAP3 SWAP2 SWAP1 PUSH2 0x853 JUMP JUMPDEST PUSH1 0x40 MLOAD DUP1 SWAP2 SUB SWAP1 RETURN JUMPDEST CALLVALUE DUP1 ISZERO PUSH2 0x251 JUMPI PUSH0 PUSH0 REVERT JUMPDEST POP PUSH2 0x26C PUSH1 0x4 DUP1 CALLDATASIZE SUB DUP2 ADD SWAP1 PUSH2 0x267 SWAP2 SWAP1 PUSH2 0x6B2 JUMP JUMPDEST PUSH2 0x5FA JUMP JUMPDEST STOP JUMPDEST PUSH1 0x1 PUSH1 0x2 PUSH0 DUP4 PUSH20 0xFFFFFFFFFFFFFFFFFFFFFFFFFFFFFFFFFFFFFFFF AND PUSH20 0xFFFFFFFFFFFFFFFFFFFFFFFFFFFFFFFFFFFFFFFF AND DUP2 MSTORE PUSH1 0x20 ADD SWAP1 DUP2 MSTORE PUSH1 0x20 ADD PUSH0 KECCAK256 PUSH1 0x2 ADD PUSH0 PUSH2 0x100 EXP DUP2 SLOAD DUP2 PUSH1 0xFF MUL NOT AND SWAP1 DUP4 ISZERO ISZERO MUL OR SWAP1 SSTORE POP POP JUMP JUMPDEST PUSH0 PUSH1 0x3 PUSH0 DUP4 PUSH1 0xFF AND PUSH1 0xFF AND DUP2 MSTORE PUSH1 0x20 ADD SWAP1 DUP2 MSTORE PUSH1 0x20 ADD PUSH0 KECCAK256 SLOAD GT PUSH2 0x322 JUMPI PUSH1 0x40 MLOAD PUSH32 0x8C379A000000000000000000000000000000000000000000000000000000000 DUP2 MSTORE PUSH1 0x4 ADD PUSH2 0x319 SWAP1 PUSH2 0x8E2 JUMP JUMPDEST PUSH1 0x40 MLOAD DUP1 SWAP2 SUB SWAP1 REVERT JUMPDEST PUSH1 0x3 PUSH0 DUP3 PUSH1 0xFF AND PUSH1 0xFF AND DUP2 MSTORE PUSH1 0x20 ADD SWAP1 DUP2 MSTORE PUSH1 0x20 ADD PUSH0 KECCAK256 SLOAD CALLVALUE LT ISZERO PUSH2 0x37C JUMPI PUSH1 0x40 MLOAD PUSH32 0x8C379A000000000000000000000000000000000000000000000000000000000 DUP2 MSTORE PUSH1 0x4 ADD PUSH2 0x373 SWAP1 PUSH2 0x94A JUMP JUMPDEST PUSH1 0x40 MLOAD DUP1 SWAP2 SUB SWAP1 REVERT JUMPDEST PUSH0 PUSH1 0x2 PUSH0 CALLER PUSH20 0xFFFFFFFFFFFFFFFFFFFFFFFFFFFFFFFFFFFFFFFF AND PUSH20 0xFFFFFFFFFFFFFFFFFFFFFFFFFFFFFFFFFFFFFFFF AND DUP2 MSTORE PUSH1 0x20 ADD SWAP1 DUP2 MSTORE PUSH1 0x20 ADD PUSH0 KECCAK256 SWAP1 POP DUP1 PUSH1 0x1 ADD SLOAD TIMESTAMP LT ISZERO PUSH2 0x3FE JUMPI PUSH1 0x4 PUSH0 DUP4 PUSH1 0xFF AND PUSH1 0xFF AND DUP2 MSTORE PUSH1 0x20 ADD SWAP1 DUP2 MSTORE PUSH1 0x20 ADD PUSH0 KECCAK256 SLOAD DUP2 PUSH1 0x1 ADD PUSH0 DUP3 DUP3 SLOAD PUSH2 0x3F2 SWAP2 SWAP1 PUSH2 0x995 JUMP JUMPDEST SWAP3 POP POP DUP2 SWAP1 SSTORE POP PUSH2 0x42A JUMP JUMPDEST PUSH1 0x4 PUSH0 DUP4 PUSH1 0xFF AND PUSH1 0xFF AND DUP2 MSTORE PUSH1 0x20 ADD SWAP1 DUP2 MSTORE PUSH1 0x20 ADD PUSH0 KECCAK256 SLOAD TIMESTAMP PUSH2 0x421 SWAP2 SWAP1 PUSH2 0x995 JUMP JUMPDEST DUP2 PUSH1 0x1 ADD DUP2 SWAP1 SSTORE POP JUMPDEST DUP2 DUP2 PUSH0 ADD PUSH0 PUSH2 0x100 EXP DUP2 SLOAD DUP2 PUSH1 0xFF MUL NOT AND SWAP1 DUP4 PUSH1 0xFF AND MUL OR SWAP1 SSTORE POP PUSH0 DUP2 PUSH1 0x2 ADD PUSH0 PUSH2 0x100 EXP DUP2 SLOAD DUP2 PUSH1 0xFF MUL NOT AND SWAP1 DUP4 ISZERO ISZERO MUL OR SWAP1 SSTORE POP POP POP JUMP JUMPDEST PUSH1 0x4 PUSH1 0x20 MSTORE DUP1 PUSH0 MSTORE PUSH1 0x40 PUSH0 KECCAK256 PUSH0 SWAP2 POP SWAP1 POP SLOAD DUP2 JUMP JUMPDEST PUSH1 0x1 PUSH0 SWAP1 SLOAD SWAP1 PUSH2 0x100 EXP SWAP1 DIV PUSH20 0xFFFFFFFFFFFFFFFFFFFFFFFFFFFFFFFFFFFFFFFF AND DUP2 JUMP JUMPDEST PUSH0 PUSH0 PUSH1 0x2 PUSH0 DUP5 PUSH20 0xFFFFFFFFFFFFFFFFFFFFFFFFFFFFFFFFFFFFFFFF AND PUSH20 0xFFFFFFFFFFFFFFFFFFFFFFFFFFFFFFFFFFFFFFFF AND DUP2 MSTORE PUSH1 0x20 ADD SWAP1 DUP2 MSTORE PUSH1 0x20 ADD PUSH0 KECCAK256 PUSH1 0x40 MLOAD DUP1 PUSH1 0x60 ADD PUSH1 0x40 MSTORE SWAP1 DUP2 PUSH0 DUP3 ADD PUSH0 SWAP1 SLOAD SWAP1 PUSH2 0x100 EXP SWAP1 DIV PUSH1 0xFF AND PUSH1 0xFF AND PUSH1 0xFF AND DUP2 MSTORE PUSH1 0x20 ADD PUSH1 0x1 DUP3 ADD SLOAD DUP2 MSTORE PUSH1 0x20 ADD PUSH1 0x2 DUP3 ADD PUSH0 SWAP1 SLOAD SWAP1 PUSH2 0x100 EXP SWAP1 DIV PUSH1 0xFF AND ISZERO ISZERO ISZERO ISZERO DUP2 MSTORE POP POP SWAP1 POP DUP1 PUSH1 0x20 ADD MLOAD TIMESTAMP LT DUP1 ISZERO PUSH2 0x53E JUMPI POP DUP1 PUSH1 0x40 ADD MLOAD ISZERO JUMPDEST SWAP2 POP POP SWAP2 SWAP1 POP JUMP JUMPDEST PUSH1 0x3 PUSH1 0x20 MSTORE DUP1 PUSH0 MSTORE PUSH1 0x40 PUSH0 KECCAK256 PUSH0 SWAP2 POP SWAP1 POP SLOAD DUP2 JUMP JUMPDEST PUSH0 PUSH0 SWAP1 SLOAD SWAP1 PUSH2 0x100 EXP SWAP1 DIV PUSH20 0xFFFFFFFFFFFFFFFFFFFFFFFFFFFFFFFFFFFFFFFF AND DUP2 JUMP JUMPDEST DUP2 PUSH1 0x3 PUSH0 DUP6 PUSH1 0xFF AND PUSH1 0xFF AND DUP2 MSTORE PUSH1 0x20 ADD SWAP1 DUP2 MSTORE PUSH1 0x20 ADD PUSH0 KECCAK256 DUP2 SWAP1 SSTORE POP DUP1 PUSH1 0x4 PUSH0 DUP6 PUSH1 0xFF AND PUSH1 0xFF AND DUP2 MSTORE PUSH1 0x20 ADD SWAP1 DUP2 MSTORE PUSH1 0x20 ADD PUSH0 KECCAK256 DUP2 SWAP1 SSTORE POP POP POP POP JUMP JUMPDEST PUSH1 0x2 PUSH1 0x20 MSTORE DUP1 PUSH0 MSTORE PUSH1 0x40 PUSH0 KECCAK256 PUSH0 SWAP2 POP SWAP1 POP DUP1 PUSH0 ADD PUSH0 SWAP1 SLOAD SWAP1 PUSH2 0x100 EXP SWAP1 DIV PUSH1 0xFF AND SWAP1 DUP1 PUSH1 0x1 ADD SLOAD SWAP1 DUP1 PUSH1 0x2 ADD PUSH0 SWAP1 SLOAD SWAP1 PUSH2 0x100 EXP SWAP1 DIV PUSH1 0xFF AND SWAP1 POP DUP4 JUMP JUMPDEST PUSH0 PUSH1 0x2 PUSH0 DUP4 PUSH20 0xFFFFFFFFFFFFFFFFFFFFFFFFFFFFFFFFFFFFFFFF AND PUSH20 0xFFFFFFFFFFFFFFFFFFFFFFFFFFFFFFFFFFFFFFFF AND DUP2 MSTORE PUSH1 0x20 ADD SWAP1 DUP2 MSTORE PUSH1 0x20 ADD PUSH0 KECCAK256 PUSH1 0x2 ADD PUSH0 PUSH2 0x100 EXP DUP2 SLOAD DUP2 PUSH1 0xFF MUL NOT AND SWAP1 DUP4 ISZERO ISZERO MUL OR SWAP1 SSTORE POP POP JUMP JUMPDEST PUSH0 PUSH0 REVERT JUMPDEST PUSH0 PUSH20 0xFFFFFFFFFFFFFFFFFFFFFFFFFFFFFFFFFFFFFFFF DUP3 AND SWAP1 POP SWAP2 SWAP1 POP JUMP JUMPDEST PUSH0 PUSH2 0x681 DUP3 PUSH2 0x658 JUMP JUMPDEST SWAP1 POP SWAP2 SWAP1 POP JUMP JUMPDEST PUSH2 0x691 DUP2 PUSH2 0x677 JUMP JUMPDEST DUP2 EQ PUSH2 0x69B JUMPI PUSH0 PUSH0 REVERT JUMPDEST POP JUMP JUMPDEST PUSH0 DUP2 CALLDATALOAD SWAP1 POP PUSH2 0x6AC DUP2 PUSH2 0x688 JUMP JUMPDEST SWAP3 SWAP2 POP POP JUMP JUMPDEST PUSH0 PUSH1 0x20 DUP3 DUP5 SUB SLT ISZERO PUSH2 0x6C7 JUMPI PUSH2 0x6C6 PUSH2 0x654 JUMP JUMPDEST JUMPDEST PUSH0 PUSH2 0x6D4 DUP5 DUP3 DUP6 ADD PUSH2 0x69E JUMP JUMPDEST SWAP2 POP POP SWAP3 SWAP2 POP POP JUMP JUMPDEST PUSH0 PUSH1 0xFF DUP3 AND SWAP1 POP SWAP2 SWAP1 POP JUMP JUMPDEST PUSH2 0x6F2 DUP2 PUSH2 0x6DD JUMP JUMPDEST DUP2 EQ PUSH2 0x6FC JUMPI PUSH0 PUSH0 REVERT JUMPDEST POP JUMP JUMPDEST PUSH0 DUP2 CALLDATALOAD SWAP1 POP PUSH2 0x70D DUP2 PUSH2 0x6E9 JUMP JUMPDEST SWAP3 SWAP2 POP POP JUMP JUMPDEST PUSH0 PUSH1 0x20 DUP3 DUP5 SUB SLT ISZERO PUSH2 0x728 JUMPI PUSH2 0x727 PUSH2 0x654 JUMP JUMPDEST JUMPDEST PUSH0 PUSH2 0x735 DUP5 DUP3 DUP6 ADD PUSH2 0x6FF JUMP JUMPDEST SWAP2 POP POP SWAP3 SWAP2 POP POP JUMP JUMPDEST PUSH0 DUP2 SWAP1 POP SWAP2 SWAP1 POP JUMP JUMPDEST PUSH2 0x750 DUP2 PUSH2 0x73E JUMP JUMPDEST DUP3 MSTORE POP POP JUMP JUMPDEST PUSH0 PUSH1 0x20 DUP3 ADD SWAP1 POP PUSH2 0x769 PUSH0 DUP4 ADD DUP5 PUSH2 0x747 JUMP JUMPDEST SWAP3 SWAP2 POP POP JUMP JUMPDEST PUSH2 0x778 DUP2 PUSH2 0x677 JUMP JUMPDEST DUP3 MSTORE POP POP JUMP JUMPDEST PUSH0 PUSH1 0x20 DUP3 ADD SWAP1 POP PUSH2 0x791 PUSH0 DUP4 ADD DUP5 PUSH2 0x76F JUMP JUMPDEST SWAP3 SWAP2 POP POP JUMP JUMPDEST PUSH0 DUP2 ISZERO ISZERO SWAP1 POP SWAP2 SWAP1 POP JUMP JUMPDEST PUSH2 0x7AB DUP2 PUSH2 0x797 JUMP JUMPDEST DUP3 MSTORE POP POP JUMP JUMPDEST PUSH0 PUSH1 0x20 DUP3 ADD SWAP1 POP PUSH2 0x7C4 PUSH0 DUP4 ADD DUP5 PUSH2 0x7A2 JUMP JUMPDEST SWAP3 SWAP2 POP POP JUMP JUMPDEST PUSH2 0x7D3 DUP2 PUSH2 0x73E JUMP JUMPDEST DUP2 EQ PUSH2 0x7DD JUMPI PUSH0 PUSH0 REVERT JUMPDEST POP JUMP JUMPDEST PUSH0 DUP2 CALLDATALOAD SWAP1 POP PUSH2 0x7EE DUP2 PUSH2 0x7CA JUMP JUMPDEST SWAP3 SWAP2 POP POP JUMP JUMPDEST PUSH0 PUSH0 PUSH0 PUSH1 0x60 DUP5 DUP7 SUB SLT ISZERO PUSH2 0x80B JUMPI PUSH2 0x80A PUSH2 0x654 JUMP JUMPDEST JUMPDEST PUSH0 PUSH2 0x818 DUP7 DUP3 DUP8 ADD PUSH2 0x6FF JUMP JUMPDEST SWAP4 POP POP PUSH1 0x20 PUSH2 0x829 DUP7 DUP3 DUP8 ADD PUSH2 0x7E0 JUMP JUMPDEST SWAP3 POP POP PUSH1 0x40 PUSH2 0x83A DUP7 DUP3 DUP8 ADD PUSH2 0x7E0 JUMP JUMPDEST SWAP2 POP POP SWAP3 POP SWAP3 POP SWAP3 JUMP JUMPDEST PUSH2 0x84D DUP2 PUSH2 0x6DD JUMP JUMPDEST DUP3 MSTORE POP POP JUMP JUMPDEST PUSH0 PUSH1 0x60 DUP3 ADD SWAP1 POP PUSH2 0x866 PUSH0 DUP4 ADD DUP7 PUSH2 0x844 JUMP JUMPDEST PUSH2 0x873 PUSH1 0x20 DUP4 ADD DUP6 PUSH2 0x747 JUMP JUMPDEST PUSH2 0x880 PUSH1 0x40 DUP4 ADD DUP5 PUSH2 0x7A2 JUMP JUMPDEST SWAP5 SWAP4 POP POP POP POP JUMP JUMPDEST PUSH0 DUP3 DUP3 MSTORE PUSH1 0x20 DUP3 ADD SWAP1 POP SWAP3 SWAP2 POP POP JUMP JUMPDEST PUSH32 0x496E76616C696420706C616E0000000000000000000000000000000000000000 PUSH0 DUP3 ADD MSTORE POP JUMP JUMPDEST PUSH0 PUSH2 0x8CC PUSH1 0xC DUP4 PUSH2 0x888 JUMP JUMPDEST SWAP2 POP PUSH2 0x8D7 DUP3 PUSH2 0x898 JUMP JUMPDEST PUSH1 0x20 DUP3 ADD SWAP1 POP SWAP2 SWAP1 POP JUMP JUMPDEST PUSH0 PUSH1 0x20 DUP3 ADD SWAP1 POP DUP2 DUP2 SUB PUSH0 DUP4 ADD MSTORE PUSH2 0x8F9 DUP2 PUSH2 0x8C0 JUMP JUMPDEST SWAP1 POP SWAP2 SWAP1 POP JUMP JUMPDEST PUSH32 0x496E73756666696369656E74207061796D656E74000000000000000000000000 PUSH0 DUP3 ADD MSTORE POP JUMP JUMPDEST PUSH0 PUSH2 0x934 PUSH1 0x14 DUP4 PUSH2 0x888 JUMP JUMPDEST SWAP2 POP PUSH2 0x93F DUP3 PUSH2 0x900 JUMP JUMPDEST PUSH1 0x20 DUP3 ADD SWAP1 POP SWAP2 SWAP1 POP JUMP JUMPDEST PUSH0 PUSH1 0x20 DUP3 ADD SWAP1 POP DUP2 DUP2 SUB PUSH0 DUP4 ADD MSTORE PUSH2 0x961 DUP2 PUSH2 0x928 JUMP JUMPDEST SWAP1 POP SWAP2 SWAP1 POP JUMP JUMPDEST PUSH32 0x4E487B7100000000000000000000000000000000000000000000000000000000 PUSH0 MSTORE PUSH1 0x11 PUSH1 0x4 MSTORE PUSH1 0x24 PUSH0 REVERT JUMPDEST PUSH0 PUSH2 0x99F DUP3 PUSH2 0x73E JUMP JUMPDEST SWAP2 POP PUSH2 0x9AA DUP4 PUSH2 0x73E JUMP JUMPDEST SWAP3 POP DUP3 DUP3 ADD SWAP1 POP DUP1 DUP3 GT ISZERO PUSH2 0x9C2 JUMPI PUSH2 0x9C1 PUSH2 0x968 JUMP JUMPDEST JUMPDEST SWAP3 SWAP2 POP POP JUMP INVALID LOG2 PUSH5 0x6970667358 0x22 SLT KECCAK256 JUMPF 0x93CC DUP6 0xDC 0xDB SWAP4 JUMP 0xB6 RJUMPI 0x5D78 CALLDATALOAD PUSH15 0xC77E3D1A15DFDE686BCDE61BFD371A CODECOPY MSTORE 0xCC PUSH5 0x736F6C6343 STOP ADDMOD 0x1E STOP CALLER "
				},
				"gasEstimates": {
					"creation": {
						"codeDepositCost": "511600",
						"executionCost": "541",
						"totalCost": "512141"
					},
					"external": {
						"addPlan(uint8,uint256,uint256)": "infinite",
						"isActive(address)": "7377",
						"logicContract()": "2529",
						"owner()": "2575",
						"pauseAccount(address)": "24810",
						"planDuration(uint8)": "2805",
						"planPrices(uint8)": "2760",
						"resumeAccount(address)": "24896",
						"subscribe(uint8)": "infinite",
						"subscriptions(address)": "7385"
					}
				},
				"methodIdentifiers": {
					"addPlan(uint8,uint256,uint256)": "cc2d49d8",
					"isActive(address)": "9f8a13d7",
					"logicContract()": "cc0e97c9",
					"owner()": "8da5cb5b",
					"pauseAccount(address)": "484d1ad6",
					"planDuration(uint8)": "76ca4f72",
					"planPrices(uint8)": "b33187e7",
					"resumeAccount(address)": "f66d9820",
					"subscribe(uint8)": "49c7e639",
					"subscriptions(address)": "f046395a"
				}
			},
			"storageLayout": {
				"storage": [
					{
						"astId": 155,
						"contract": "submissions/Zora/SubscriptionLogicV2.sol:SubscriptionLogicV2",
						"label": "logicContract",
						"offset": 0,
						"slot": "0",
						"type": "t_address"
					},
					{
						"astId": 157,
						"contract": "submissions/Zora/SubscriptionLogicV2.sol:SubscriptionLogicV2",
						"label": "owner",
						"offset": 0,
						"slot": "1",
						"type": "t_address"
					},
					{
						"astId": 169,
						"contract": "submissions/Zora/SubscriptionLogicV2.sol:SubscriptionLogicV2",
						"label": "subscriptions",
						"offset": 0,
						"slot": "2",
						"type": "t_mapping(t_address,t_struct(Subscription)164_storage)"
					},
					{
						"astId": 173,
						"contract": "submissions/Zora/SubscriptionLogicV2.sol:SubscriptionLogicV2",
						"label": "planPrices",
						"offset": 0,
						"slot": "3",
						"type": "t_mapping(t_uint8,t_uint256)"
					},
					{
						"astId": 177,
						"contract": "submissions/Zora/SubscriptionLogicV2.sol:SubscriptionLogicV2",
						"label": "planDuration",
						"offset": 0,
						"slot": "4",
						"type": "t_mapping(t_uint8,t_uint256)"
					}
				],
				"types": {
					"t_address": {
						"encoding": "inplace",
						"label": "address",
						"numberOfBytes": "20"
					},
					"t_bool": {
						"encoding": "inplace",
						"label": "bool",
						"numberOfBytes": "1"
					},
					"t_mapping(t_address,t_struct(Subscription)164_storage)": {
						"encoding": "mapping",
						"key": "t_address",
						"label": "mapping(address => struct SubscriptionStorageLayout.Subscription)",
						"numberOfBytes": "32",
						"value": "t_struct(Subscription)164_storage"
					},
					"t_mapping(t_uint8,t_uint256)": {
						"encoding": "mapping",
						"key": "t_uint8",
						"label": "mapping(uint8 => uint256)",
						"numberOfBytes": "32",
						"value": "t_uint256"
					},
					"t_struct(Subscription)164_storage": {
						"encoding": "inplace",
						"label": "struct SubscriptionStorageLayout.Subscription",
						"members": [
							{
								"astId": 159,
								"contract": "submissions/Zora/SubscriptionLogicV2.sol:SubscriptionLogicV2",
								"label": "planId",
								"offset": 0,
								"slot": "0",
								"type": "t_uint8"
							},
							{
								"astId": 161,
								"contract": "submissions/Zora/SubscriptionLogicV2.sol:SubscriptionLogicV2",
								"label": "expiry",
								"offset": 0,
								"slot": "1",
								"type": "t_uint256"
							},
							{
								"astId": 163,
								"contract": "submissions/Zora/SubscriptionLogicV2.sol:SubscriptionLogicV2",
								"label": "paused",
								"offset": 0,
								"slot": "2",
								"type": "t_bool"
							}
						],
						"numberOfBytes": "96"
					},
					"t_uint256": {
						"encoding": "inplace",
						"label": "uint256",
						"numberOfBytes": "32"
					},
					"t_uint8": {
						"encoding": "inplace",
						"label": "uint8",
						"numberOfBytes": "1"
					}
				}
			},
			"userdoc": {
				"kind": "user",
				"methods": {},
				"version": 1
			}
		}
	}
}