{
	"submissions/Zora/Day26NFTMarketplace.sol": {
		"NFTMarketplace": {
			"abi": [
				{
					"inputs": [
						{
							"internalType": "uint256",
							"name": "_marketplaceFeePercent",
							"type": "uint256"
						},
						{
							"internalType": "address",
							"name": "_feeRecipient",
							"type": "address"
						}
					],
					"stateMutability": "nonpayable",
					"type": "constructor"
				},
				{
					"anonymous": false,
					"inputs": [
						{
							"indexed": false,
							"internalType": "uint256",
							"name": "newMarketplaceFee",
							"type": "uint256"
						},
						{
							"indexed": false,
							"internalType": "address",
							"name": "newFeeRecipient",
							"type": "address"
						}
					],
					"name": "FeeUpdated",
					"type": "event"
				},
				{
					"anonymous": false,
					"inputs": [
						{
							"indexed": true,
							"internalType": "address",
							"name": "seller",
							"type": "address"
						},
						{
							"indexed": true,
							"internalType": "address",
							"name": "nftAddress",
							"type": "address"
						},
						{
							"indexed": true,
							"internalType": "uint256",
							"name": "tokenId",
							"type": "uint256"
						},
						{
							"indexed": false,
							"internalType": "uint256",
							"name": "price",
							"type": "uint256"
						},
						{
							"indexed": false,
							"internalType": "address",
							"name": "royaltyReceiver",
							"type": "address"
						},
						{
							"indexed": false,
							"internalType": "uint256",
							"name": "royaltyPercent",
							"type": "uint256"
						}
					],
					"name": "Listed",
					"type": "event"
				},
				{
					"anonymous": false,
					"inputs": [
						{
							"indexed": true,
							"internalType": "address",
							"name": "buyer",
							"type": "address"
						},
						{
							"indexed": true,
							"internalType": "address",
							"name": "nftAddress",
							"type": "address"
						},
						{
							"indexed": true,
							"internalType": "uint256",
							"name": "tokenId",
							"type": "uint256"
						},
						{
							"indexed": false,
							"internalType": "uint256",
							"name": "price",
							"type": "uint256"
						},
						{
							"indexed": false,
							"internalType": "address",
							"name": "seller",
							"type": "address"
						},
						{
							"indexed": false,
							"internalType": "address",
							"name": "royaltyReceiver",
							"type": "address"
						},
						{
							"indexed": false,
							"internalType": "uint256",
							"name": "royaltyAmount",
							"type": "uint256"
						},
						{
							"indexed": false,
							"internalType": "uint256",
							"name": "marketplaceFeeAmount",
							"type": "uint256"
						}
					],
					"name": "Purchase",
					"type": "event"
				},
				{
					"anonymous": false,
					"inputs": [
						{
							"indexed": true,
							"internalType": "address",
							"name": "seller",
							"type": "address"
						},
						{
							"indexed": true,
							"internalType": "address",
							"name": "nftAddress",
							"type": "address"
						},
						{
							"indexed": true,
							"internalType": "uint256",
							"name": "tokenId",
							"type": "uint256"
						}
					],
					"name": "Unlisted",
					"type": "event"
				},
				{
					"stateMutability": "payable",
					"type": "fallback"
				},
				{
					"inputs": [
						{
							"internalType": "address",
							"name": "nftAddress",
							"type": "address"
						},
						{
							"internalType": "uint256",
							"name": "tokenId",
							"type": "uint256"
						}
					],
					"name": "buyNFT",
					"outputs": [],
					"stateMutability": "payable",
					"type": "function"
				},
				{
					"inputs": [
						{
							"internalType": "address",
							"name": "nftAddress",
							"type": "address"
						},
						{
							"internalType": "uint256",
							"name": "tokenId",
							"type": "uint256"
						}
					],
					"name": "cancelListing",
					"outputs": [],
					"stateMutability": "nonpayable",
					"type": "function"
				},
				{
					"inputs": [],
					"name": "feeRecipient",
					"outputs": [
						{
							"internalType": "address",
							"name": "",
							"type": "address"
						}
					],
					"stateMutability": "view",
					"type": "function"
				},
				{
					"inputs": [
						{
							"internalType": "address",
							"name": "nftAddress",
							"type": "address"
						},
						{
							"internalType": "uint256",
							"name": "tokenId",
							"type": "uint256"
						}
					],
					"name": "getListing",
					"outputs": [
						{
							"components": [
								{
									"internalType": "address",
									"name": "seller",
									"type": "address"
								},
								{
									"internalType": "address",
									"name": "nftAddress",
									"type": "address"
								},
								{
									"internalType": "uint256",
									"name": "tokenId",
									"type": "uint256"
								},
								{
									"internalType": "uint256",
									"name": "price",
									"type": "uint256"
								},
								{
									"internalType": "address",
									"name": "royaltyReceiver",
									"type": "address"
								},
								{
									"internalType": "uint256",
									"name": "royaltyPercent",
									"type": "uint256"
								},
								{
									"internalType": "bool",
									"name": "isListed",
									"type": "bool"
								}
							],
							"internalType": "struct NFTMarketplace.Listing",
							"name": "",
							"type": "tuple"
						}
					],
					"stateMutability": "view",
					"type": "function"
				},
				{
					"inputs": [
						{
							"internalType": "address",
							"name": "nftAddress",
							"type": "address"
						},
						{
							"internalType": "uint256",
							"name": "tokenId",
							"type": "uint256"
						},
						{
							"internalType": "uint256",
							"name": "price",
							"type": "uint256"
						},
						{
							"internalType": "address",
							"name": "royaltyReceiver",
							"type": "address"
						},
						{
							"internalType": "uint256",
							"name": "royaltyPercent",
							"type": "uint256"
						}
					],
					"name": "listNFT",
					"outputs": [],
					"stateMutability": "nonpayable",
					"type": "function"
				},
				{
					"inputs": [
						{
							"internalType": "address",
							"name": "",
							"type": "address"
						},
						{
							"internalType": "uint256",
							"name": "",
							"type": "uint256"
						}
					],
					"name": "listings",
					"outputs": [
						{
							"internalType": "address",
							"name": "seller",
							"type": "address"
						},
						{
							"internalType": "address",
							"name": "nftAddress",
							"type": "address"
						},
						{
							"internalType": "uint256",
							"name": "tokenId",
							"type": "uint256"
						},
						{
							"internalType": "uint256",
							"name": "price",
							"type": "uint256"
						},
						{
							"internalType": "address",
							"name": "royaltyReceiver",
							"type": "address"
						},
						{
							"internalType": "uint256",
							"name": "royaltyPercent",
							"type": "uint256"
						},
						{
							"internalType": "bool",
							"name": "isListed",
							"type": "bool"
						}
					],
					"stateMutability": "view",
					"type": "function"
				},
				{
					"inputs": [],
					"name": "marketplaceFeePercent",
					"outputs": [
						{
							"internalType": "uint256",
							"name": "",
							"type": "uint256"
						}
					],
					"stateMutability": "view",
					"type": "function"
				},
				{
					"inputs": [],
					"name": "owner",
					"outputs": [
						{
							"internalType": "address",
							"name": "",
							"type": "address"
						}
					],
					"stateMutability": "view",
					"type": "function"
				},
				{
					"inputs": [
						{
							"internalType": "address",
							"name": "_newRecipient",
							"type": "address"
						}
					],
					"name": "setFeeRecipient",
					"outputs": [],
					"stateMutability": "nonpayable",
					"type": "function"
				},
				{
					"inputs": [
						{
							"internalType": "uint256",
							"name": "_newFee",
							"type": "uint256"
						}
					],
					"name": "setMarketplaceFeePercent",
					"outputs": [],
					"stateMutability": "nonpayable",
					"type": "function"
				},
				{
					"stateMutability": "payable",
					"type": "receive"
				}
			],
			"devdoc": {
				"kind": "dev",
				"methods": {},
				"version": 1
			},
			"evm": {
				"assembly": "    /* \"submissions/Zora/Day26NFTMarketplace.sol\":253:6147  contract NFTMarketplace is ReentrancyGuard {... */\n  mstore(0x40, 0x80)\n    /* \"submissions/Zora/Day26NFTMarketplace.sol\":1651:2063  constructor(uint256 _marketplaceFeePercent, address _feeRecipient) {... */\n  callvalue\n  dup1\n  iszero\n  tag_1\n  jumpi\n  revert(0x00, 0x00)\ntag_1:\n  pop\n  mload(0x40)\n  sub(codesize, bytecodeSize)\n  dup1\n  bytecodeSize\n  dup4\n  codecopy\n  dup2\n  dup2\n  add\n  0x40\n  mstore\n  dup2\n  add\n  swap1\n  tag_2\n  swap2\n  swap1\n  tag_3\n  jump\t// in\ntag_2:\n    /* \"@openzeppelin/contracts/security/ReentrancyGuard.sol\":1716:1717  1 */\n  0x01\n    /* \"@openzeppelin/contracts/security/ReentrancyGuard.sol\":1821:1828  _status */\n  0x00\n    /* \"@openzeppelin/contracts/security/ReentrancyGuard.sol\":1821:1843  _status = _NOT_ENTERED */\n  dup2\n  swap1\n  sstore\n  pop\n    /* \"submissions/Zora/Day26NFTMarketplace.sol\":1763:1767  1000 */\n  0x03e8\n    /* \"submissions/Zora/Day26NFTMarketplace.sol\":1737:1759  _marketplaceFeePercent */\n  dup3\n    /* \"submissions/Zora/Day26NFTMarketplace.sol\":1737:1767  _marketplaceFeePercent <= 1000 */\n  gt\n  iszero\n    /* \"submissions/Zora/Day26NFTMarketplace.sol\":1729:1806  require(_marketplaceFeePercent <= 1000, \"Marketplace fee too high (max 10%)\") */\n  tag_8\n  jumpi\n  mload(0x40)\n  0x08c379a000000000000000000000000000000000000000000000000000000000\n  dup2\n  mstore\n  0x04\n  add\n  tag_9\n  swap1\n  tag_10\n  jump\t// in\ntag_9:\n  mload(0x40)\n  dup1\n  swap2\n  sub\n  swap1\n  revert\ntag_8:\n    /* \"submissions/Zora/Day26NFTMarketplace.sol\":1850:1851  0 */\n  0x00\n    /* \"submissions/Zora/Day26NFTMarketplace.sol\":1825:1852  _feeRecipient != address(0) */\n  0xffffffffffffffffffffffffffffffffffffffff\n  and\n    /* \"submissions/Zora/Day26NFTMarketplace.sol\":1825:1838  _feeRecipient */\n  dup2\n    /* \"submissions/Zora/Day26NFTMarketplace.sol\":1825:1852  _feeRecipient != address(0) */\n  0xffffffffffffffffffffffffffffffffffffffff\n  and\n  sub\n    /* \"submissions/Zora/Day26NFTMarketplace.sol\":1817:1885  require(_feeRecipient != address(0), \"Fee recipient cannot be zero\") */\n  tag_11\n  jumpi\n  mload(0x40)\n  0x08c379a000000000000000000000000000000000000000000000000000000000\n  dup2\n  mstore\n  0x04\n  add\n  tag_12\n  swap1\n  tag_13\n  jump\t// in\ntag_12:\n  mload(0x40)\n  dup1\n  swap2\n  sub\n  swap1\n  revert\ntag_11:\n    /* \"submissions/Zora/Day26NFTMarketplace.sol\":1906:1916  msg.sender */\n  caller\n    /* \"submissions/Zora/Day26NFTMarketplace.sol\":1898:1903  owner */\n  0x01\n  0x00\n    /* \"submissions/Zora/Day26NFTMarketplace.sol\":1898:1916  owner = msg.sender */\n  0x0100\n  exp\n  dup2\n  sload\n  dup2\n  0xffffffffffffffffffffffffffffffffffffffff\n  mul\n  not\n  and\n  swap1\n  dup4\n  0xffffffffffffffffffffffffffffffffffffffff\n  and\n  mul\n  or\n  swap1\n  sstore\n  pop\n    /* \"submissions/Zora/Day26NFTMarketplace.sol\":1951:1973  _marketplaceFeePercent */\n  dup2\n    /* \"submissions/Zora/Day26NFTMarketplace.sol\":1927:1948  marketplaceFeePercent */\n  0x02\n    /* \"submissions/Zora/Day26NFTMarketplace.sol\":1927:1973  marketplaceFeePercent = _marketplaceFeePercent */\n  dup2\n  swap1\n  sstore\n  pop\n    /* \"submissions/Zora/Day26NFTMarketplace.sol\":2019:2032  _feeRecipient */\n  dup1\n    /* \"submissions/Zora/Day26NFTMarketplace.sol\":2004:2016  feeRecipient */\n  0x03\n  0x00\n    /* \"submissions/Zora/Day26NFTMarketplace.sol\":2004:2032  feeRecipient = _feeRecipient */\n  0x0100\n  exp\n  dup2\n  sload\n  dup2\n  0xffffffffffffffffffffffffffffffffffffffff\n  mul\n  not\n  and\n  swap1\n  dup4\n  0xffffffffffffffffffffffffffffffffffffffff\n  and\n  mul\n  or\n  swap1\n  sstore\n  pop\n    /* \"submissions/Zora/Day26NFTMarketplace.sol\":1651:2063  constructor(uint256 _marketplaceFeePercent, address _feeRecipient) {... */\n  pop\n  pop\n    /* \"submissions/Zora/Day26NFTMarketplace.sol\":253:6147  contract NFTMarketplace is ReentrancyGuard {... */\n  jump(tag_14)\n    /* \"#utility.yul\":88:205   */\ntag_16:\n    /* \"#utility.yul\":197:198   */\n  0x00\n    /* \"#utility.yul\":194:195   */\n  0x00\n    /* \"#utility.yul\":187:199   */\n  revert\n    /* \"#utility.yul\":334:411   */\ntag_18:\n    /* \"#utility.yul\":371:378   */\n  0x00\n    /* \"#utility.yul\":400:405   */\n  dup2\n    /* \"#utility.yul\":389:405   */\n  swap1\n  pop\n    /* \"#utility.yul\":334:411   */\n  swap2\n  swap1\n  pop\n  jump\t// out\n    /* \"#utility.yul\":417:539   */\ntag_19:\n    /* \"#utility.yul\":490:514   */\n  tag_36\n    /* \"#utility.yul\":508:513   */\n  dup2\n    /* \"#utility.yul\":490:514   */\n  tag_18\n  jump\t// in\ntag_36:\n    /* \"#utility.yul\":483:488   */\n  dup2\n    /* \"#utility.yul\":480:515   */\n  eq\n    /* \"#utility.yul\":470:533   */\n  tag_37\n  jumpi\n    /* \"#utility.yul\":529:530   */\n  0x00\n    /* \"#utility.yul\":526:527   */\n  0x00\n    /* \"#utility.yul\":519:531   */\n  revert\n    /* \"#utility.yul\":470:533   */\ntag_37:\n    /* \"#utility.yul\":417:539   */\n  pop\n  jump\t// out\n    /* \"#utility.yul\":545:688   */\ntag_20:\n    /* \"#utility.yul\":602:607   */\n  0x00\n    /* \"#utility.yul\":633:639   */\n  dup2\n    /* \"#utility.yul\":627:640   */\n  mload\n    /* \"#utility.yul\":618:640   */\n  swap1\n  pop\n    /* \"#utility.yul\":649:682   */\n  tag_39\n    /* \"#utility.yul\":676:681   */\n  dup2\n    /* \"#utility.yul\":649:682   */\n  tag_19\n  jump\t// in\ntag_39:\n    /* \"#utility.yul\":545:688   */\n  swap3\n  swap2\n  pop\n  pop\n  jump\t// out\n    /* \"#utility.yul\":694:820   */\ntag_21:\n    /* \"#utility.yul\":731:738   */\n  0x00\n    /* \"#utility.yul\":771:813   */\n  0xffffffffffffffffffffffffffffffffffffffff\n    /* \"#utility.yul\":764:769   */\n  dup3\n    /* \"#utility.yul\":760:814   */\n  and\n    /* \"#utility.yul\":749:814   */\n  swap1\n  pop\n    /* \"#utility.yul\":694:820   */\n  swap2\n  swap1\n  pop\n  jump\t// out\n    /* \"#utility.yul\":826:922   */\ntag_22:\n    /* \"#utility.yul\":863:870   */\n  0x00\n    /* \"#utility.yul\":892:916   */\n  tag_42\n    /* \"#utility.yul\":910:915   */\n  dup3\n    /* \"#utility.yul\":892:916   */\n  tag_21\n  jump\t// in\ntag_42:\n    /* \"#utility.yul\":881:916   */\n  swap1\n  pop\n    /* \"#utility.yul\":826:922   */\n  swap2\n  swap1\n  pop\n  jump\t// out\n    /* \"#utility.yul\":928:1050   */\ntag_23:\n    /* \"#utility.yul\":1001:1025   */\n  tag_44\n    /* \"#utility.yul\":1019:1024   */\n  dup2\n    /* \"#utility.yul\":1001:1025   */\n  tag_22\n  jump\t// in\ntag_44:\n    /* \"#utility.yul\":994:999   */\n  dup2\n    /* \"#utility.yul\":991:1026   */\n  eq\n    /* \"#utility.yul\":981:1044   */\n  tag_45\n  jumpi\n    /* \"#utility.yul\":1040:1041   */\n  0x00\n    /* \"#utility.yul\":1037:1038   */\n  0x00\n    /* \"#utility.yul\":1030:1042   */\n  revert\n    /* \"#utility.yul\":981:1044   */\ntag_45:\n    /* \"#utility.yul\":928:1050   */\n  pop\n  jump\t// out\n    /* \"#utility.yul\":1056:1199   */\ntag_24:\n    /* \"#utility.yul\":1113:1118   */\n  0x00\n    /* \"#utility.yul\":1144:1150   */\n  dup2\n    /* \"#utility.yul\":1138:1151   */\n  mload\n    /* \"#utility.yul\":1129:1151   */\n  swap1\n  pop\n    /* \"#utility.yul\":1160:1193   */\n  tag_47\n    /* \"#utility.yul\":1187:1192   */\n  dup2\n    /* \"#utility.yul\":1160:1193   */\n  tag_23\n  jump\t// in\ntag_47:\n    /* \"#utility.yul\":1056:1199   */\n  swap3\n  swap2\n  pop\n  pop\n  jump\t// out\n    /* \"#utility.yul\":1205:1712   */\ntag_3:\n    /* \"#utility.yul\":1284:1290   */\n  0x00\n    /* \"#utility.yul\":1292:1298   */\n  0x00\n    /* \"#utility.yul\":1341:1343   */\n  0x40\n    /* \"#utility.yul\":1329:1338   */\n  dup4\n    /* \"#utility.yul\":1320:1327   */\n  dup6\n    /* \"#utility.yul\":1316:1339   */\n  sub\n    /* \"#utility.yul\":1312:1344   */\n  slt\n    /* \"#utility.yul\":1309:1428   */\n  iszero\n  tag_49\n  jumpi\n    /* \"#utility.yul\":1347:1426   */\n  tag_50\n  tag_16\n  jump\t// in\ntag_50:\n    /* \"#utility.yul\":1309:1428   */\ntag_49:\n    /* \"#utility.yul\":1467:1468   */\n  0x00\n    /* \"#utility.yul\":1492:1556   */\n  tag_51\n    /* \"#utility.yul\":1548:1555   */\n  dup6\n    /* \"#utility.yul\":1539:1545   */\n  dup3\n    /* \"#utility.yul\":1528:1537   */\n  dup7\n    /* \"#utility.yul\":1524:1546   */\n  add\n    /* \"#utility.yul\":1492:1556   */\n  tag_20\n  jump\t// in\ntag_51:\n    /* \"#utility.yul\":1482:1556   */\n  swap3\n  pop\n    /* \"#utility.yul\":1438:1566   */\n  pop\n    /* \"#utility.yul\":1605:1607   */\n  0x20\n    /* \"#utility.yul\":1631:1695   */\n  tag_52\n    /* \"#utility.yul\":1687:1694   */\n  dup6\n    /* \"#utility.yul\":1678:1684   */\n  dup3\n    /* \"#utility.yul\":1667:1676   */\n  dup7\n    /* \"#utility.yul\":1663:1685   */\n  add\n    /* \"#utility.yul\":1631:1695   */\n  tag_24\n  jump\t// in\ntag_52:\n    /* \"#utility.yul\":1621:1695   */\n  swap2\n  pop\n    /* \"#utility.yul\":1576:1705   */\n  pop\n    /* \"#utility.yul\":1205:1712   */\n  swap3\n  pop\n  swap3\n  swap1\n  pop\n  jump\t// out\n    /* \"#utility.yul\":1718:1887   */\ntag_25:\n    /* \"#utility.yul\":1802:1813   */\n  0x00\n    /* \"#utility.yul\":1836:1842   */\n  dup3\n    /* \"#utility.yul\":1831:1834   */\n  dup3\n    /* \"#utility.yul\":1824:1843   */\n  mstore\n    /* \"#utility.yul\":1876:1880   */\n  0x20\n    /* \"#utility.yul\":1871:1874   */\n  dup3\n    /* \"#utility.yul\":1867:1881   */\n  add\n    /* \"#utility.yul\":1852:1881   */\n  swap1\n  pop\n    /* \"#utility.yul\":1718:1887   */\n  swap3\n  swap2\n  pop\n  pop\n  jump\t// out\n    /* \"#utility.yul\":1893:2114   */\ntag_26:\n    /* \"#utility.yul\":2033:2067   */\n  0x4d61726b6574706c6163652066656520746f6f206869676820286d6178203130\n    /* \"#utility.yul\":2029:2030   */\n  0x00\n    /* \"#utility.yul\":2021:2027   */\n  dup3\n    /* \"#utility.yul\":2017:2031   */\n  add\n    /* \"#utility.yul\":2010:2068   */\n  mstore\n    /* \"#utility.yul\":2102:2106   */\n  0x2529000000000000000000000000000000000000000000000000000000000000\n    /* \"#utility.yul\":2097:2099   */\n  0x20\n    /* \"#utility.yul\":2089:2095   */\n  dup3\n    /* \"#utility.yul\":2085:2100   */\n  add\n    /* \"#utility.yul\":2078:2107   */\n  mstore\n    /* \"#utility.yul\":1893:2114   */\n  pop\n  jump\t// out\n    /* \"#utility.yul\":2120:2486   */\ntag_27:\n    /* \"#utility.yul\":2262:2265   */\n  0x00\n    /* \"#utility.yul\":2283:2350   */\n  tag_56\n    /* \"#utility.yul\":2347:2349   */\n  0x22\n    /* \"#utility.yul\":2342:2345   */\n  dup4\n    /* \"#utility.yul\":2283:2350   */\n  tag_25\n  jump\t// in\ntag_56:\n    /* \"#utility.yul\":2276:2350   */\n  swap2\n  pop\n    /* \"#utility.yul\":2359:2452   */\n  tag_57\n    /* \"#utility.yul\":2448:2451   */\n  dup3\n    /* \"#utility.yul\":2359:2452   */\n  tag_26\n  jump\t// in\ntag_57:\n    /* \"#utility.yul\":2477:2479   */\n  0x40\n    /* \"#utility.yul\":2472:2475   */\n  dup3\n    /* \"#utility.yul\":2468:2480   */\n  add\n    /* \"#utility.yul\":2461:2480   */\n  swap1\n  pop\n    /* \"#utility.yul\":2120:2486   */\n  swap2\n  swap1\n  pop\n  jump\t// out\n    /* \"#utility.yul\":2492:2911   */\ntag_10:\n    /* \"#utility.yul\":2658:2662   */\n  0x00\n    /* \"#utility.yul\":2696:2698   */\n  0x20\n    /* \"#utility.yul\":2685:2694   */\n  dup3\n    /* \"#utility.yul\":2681:2699   */\n  add\n    /* \"#utility.yul\":2673:2699   */\n  swap1\n  pop\n    /* \"#utility.yul\":2745:2754   */\n  dup2\n    /* \"#utility.yul\":2739:2743   */\n  dup2\n    /* \"#utility.yul\":2735:2755   */\n  sub\n    /* \"#utility.yul\":2731:2732   */\n  0x00\n    /* \"#utility.yul\":2720:2729   */\n  dup4\n    /* \"#utility.yul\":2716:2733   */\n  add\n    /* \"#utility.yul\":2709:2756   */\n  mstore\n    /* \"#utility.yul\":2773:2904   */\n  tag_59\n    /* \"#utility.yul\":2899:2903   */\n  dup2\n    /* \"#utility.yul\":2773:2904   */\n  tag_27\n  jump\t// in\ntag_59:\n    /* \"#utility.yul\":2765:2904   */\n  swap1\n  pop\n    /* \"#utility.yul\":2492:2911   */\n  swap2\n  swap1\n  pop\n  jump\t// out\n    /* \"#utility.yul\":2917:3095   */\ntag_28:\n    /* \"#utility.yul\":3057:3087   */\n  0x46656520726563697069656e742063616e6e6f74206265207a65726f00000000\n    /* \"#utility.yul\":3053:3054   */\n  0x00\n    /* \"#utility.yul\":3045:3051   */\n  dup3\n    /* \"#utility.yul\":3041:3055   */\n  add\n    /* \"#utility.yul\":3034:3088   */\n  mstore\n    /* \"#utility.yul\":2917:3095   */\n  pop\n  jump\t// out\n    /* \"#utility.yul\":3101:3467   */\ntag_29:\n    /* \"#utility.yul\":3243:3246   */\n  0x00\n    /* \"#utility.yul\":3264:3331   */\n  tag_62\n    /* \"#utility.yul\":3328:3330   */\n  0x1c\n    /* \"#utility.yul\":3323:3326   */\n  dup4\n    /* \"#utility.yul\":3264:3331   */\n  tag_25\n  jump\t// in\ntag_62:\n    /* \"#utility.yul\":3257:3331   */\n  swap2\n  pop\n    /* \"#utility.yul\":3340:3433   */\n  tag_63\n    /* \"#utility.yul\":3429:3432   */\n  dup3\n    /* \"#utility.yul\":3340:3433   */\n  tag_28\n  jump\t// in\ntag_63:\n    /* \"#utility.yul\":3458:3460   */\n  0x20\n    /* \"#utility.yul\":3453:3456   */\n  dup3\n    /* \"#utility.yul\":3449:3461   */\n  add\n    /* \"#utility.yul\":3442:3461   */\n  swap1\n  pop\n    /* \"#utility.yul\":3101:3467   */\n  swap2\n  swap1\n  pop\n  jump\t// out\n    /* \"#utility.yul\":3473:3892   */\ntag_13:\n    /* \"#utility.yul\":3639:3643   */\n  0x00\n    /* \"#utility.yul\":3677:3679   */\n  0x20\n    /* \"#utility.yul\":3666:3675   */\n  dup3\n    /* \"#utility.yul\":3662:3680   */\n  add\n    /* \"#utility.yul\":3654:3680   */\n  swap1\n  pop\n    /* \"#utility.yul\":3726:3735   */\n  dup2\n    /* \"#utility.yul\":3720:3724   */\n  dup2\n    /* \"#utility.yul\":3716:3736   */\n  sub\n    /* \"#utility.yul\":3712:3713   */\n  0x00\n    /* \"#utility.yul\":3701:3710   */\n  dup4\n    /* \"#utility.yul\":3697:3714   */\n  add\n    /* \"#utility.yul\":3690:3737   */\n  mstore\n    /* \"#utility.yul\":3754:3885   */\n  tag_65\n    /* \"#utility.yul\":3880:3884   */\n  dup2\n    /* \"#utility.yul\":3754:3885   */\n  tag_29\n  jump\t// in\ntag_65:\n    /* \"#utility.yul\":3746:3885   */\n  swap1\n  pop\n    /* \"#utility.yul\":3473:3892   */\n  swap2\n  swap1\n  pop\n  jump\t// out\n    /* \"submissions/Zora/Day26NFTMarketplace.sol\":253:6147  contract NFTMarketplace is ReentrancyGuard {... */\ntag_14:\n  dataSize(sub_0)\n  dup1\n  dataOffset(sub_0)\n  0x00\n  codecopy\n  0x00\n  return\nstop\n\nsub_0: assembly {\n        /* \"submissions/Zora/Day26NFTMarketplace.sol\":253:6147  contract NFTMarketplace is ReentrancyGuard {... */\n      mstore(0x40, 0x80)\n      jumpi(tag_1, lt(calldatasize, 0x04))\n      shr(0xe0, calldataload(0x00))\n      dup1\n      0x8da5cb5b\n      gt\n      tag_13\n      jumpi\n      dup1\n      0x8da5cb5b\n      eq\n      tag_8\n      jumpi\n      dup1\n      0xa82ba76f\n      eq\n      tag_9\n      jumpi\n      dup1\n      0xa9124451\n      eq\n      tag_10\n      jumpi\n      dup1\n      0xb2ddee06\n      eq\n      tag_11\n      jumpi\n      dup1\n      0xe74b981b\n      eq\n      tag_12\n      jumpi\n      jump(tag_2)\n    tag_13:\n      dup1\n      0x07df30\n      eq\n      tag_3\n      jumpi\n      dup1\n      0x38d73b0d\n      eq\n      tag_4\n      jumpi\n      dup1\n      0x46904840\n      eq\n      tag_5\n      jumpi\n      dup1\n      0x86b8865c\n      eq\n      tag_6\n      jumpi\n      dup1\n      0x88700d1c\n      eq\n      tag_7\n      jumpi\n      jump(tag_2)\n    tag_1:\n      jumpi(tag_2, calldatasize)\n        /* \"submissions/Zora/Day26NFTMarketplace.sol\":5990:6023  revert(\"Direct ETH not accepted\") */\n      mload(0x40)\n      0x08c379a000000000000000000000000000000000000000000000000000000000\n      dup2\n      mstore\n      0x04\n      add\n      tag_16\n      swap1\n      tag_17\n      jump\t// in\n    tag_16:\n      mload(0x40)\n      dup1\n      swap2\n      sub\n      swap1\n      revert\n        /* \"submissions/Zora/Day26NFTMarketplace.sol\":253:6147  contract NFTMarketplace is ReentrancyGuard {... */\n    tag_2:\n        /* \"submissions/Zora/Day26NFTMarketplace.sol\":6110:6136  revert(\"Unknown function\") */\n      mload(0x40)\n      0x08c379a000000000000000000000000000000000000000000000000000000000\n      dup2\n      mstore\n      0x04\n      add\n      tag_20\n      swap1\n      tag_21\n      jump\t// in\n    tag_20:\n      mload(0x40)\n      dup1\n      swap2\n      sub\n      swap1\n      revert\n        /* \"submissions/Zora/Day26NFTMarketplace.sol\":712:775  mapping(address => mapping(uint256 => Listing)) public listings */\n    tag_3:\n      callvalue\n      dup1\n      iszero\n      tag_22\n      jumpi\n      revert(0x00, 0x00)\n    tag_22:\n      pop\n      tag_23\n      0x04\n      dup1\n      calldatasize\n      sub\n      dup2\n      add\n      swap1\n      tag_24\n      swap2\n      swap1\n      tag_25\n      jump\t// in\n    tag_24:\n      tag_26\n      jump\t// in\n    tag_23:\n      mload(0x40)\n      tag_27\n      swap8\n      swap7\n      swap6\n      swap5\n      swap4\n      swap3\n      swap2\n      swap1\n      tag_28\n      jump\t// in\n    tag_27:\n      mload(0x40)\n      dup1\n      swap2\n      sub\n      swap1\n      return\n        /* \"submissions/Zora/Day26NFTMarketplace.sol\":331:367  uint256 public marketplaceFeePercent */\n    tag_4:\n      callvalue\n      dup1\n      iszero\n      tag_29\n      jumpi\n      revert(0x00, 0x00)\n    tag_29:\n      pop\n      tag_30\n      tag_31\n      jump\t// in\n    tag_30:\n      mload(0x40)\n      tag_32\n      swap2\n      swap1\n      tag_33\n      jump\t// in\n    tag_32:\n      mload(0x40)\n      dup1\n      swap2\n      sub\n      swap1\n      return\n        /* \"submissions/Zora/Day26NFTMarketplace.sol\":407:434  address public feeRecipient */\n    tag_5:\n      callvalue\n      dup1\n      iszero\n      tag_34\n      jumpi\n      revert(0x00, 0x00)\n    tag_34:\n      pop\n      tag_35\n      tag_36\n      jump\t// in\n    tag_35:\n      mload(0x40)\n      tag_37\n      swap2\n      swap1\n      tag_38\n      jump\t// in\n    tag_37:\n      mload(0x40)\n      dup1\n      swap2\n      sub\n      swap1\n      return\n        /* \"submissions/Zora/Day26NFTMarketplace.sol\":2764:3859  function listNFT(... */\n    tag_6:\n      callvalue\n      dup1\n      iszero\n      tag_39\n      jumpi\n      revert(0x00, 0x00)\n    tag_39:\n      pop\n      tag_40\n      0x04\n      dup1\n      calldatasize\n      sub\n      dup2\n      add\n      swap1\n      tag_41\n      swap2\n      swap1\n      tag_42\n      jump\t// in\n    tag_41:\n      tag_43\n      jump\t// in\n    tag_40:\n      stop\n        /* \"submissions/Zora/Day26NFTMarketplace.sol\":5793:5944  function getListing(address nftAddress, uint256 tokenId) external view returns (Listing memory) {... */\n    tag_7:\n      callvalue\n      dup1\n      iszero\n      tag_44\n      jumpi\n      revert(0x00, 0x00)\n    tag_44:\n      pop\n      tag_45\n      0x04\n      dup1\n      calldatasize\n      sub\n      dup2\n      add\n      swap1\n      tag_46\n      swap2\n      swap1\n      tag_25\n      jump\t// in\n    tag_46:\n      tag_47\n      jump\t// in\n    tag_45:\n      mload(0x40)\n      tag_48\n      swap2\n      swap1\n      tag_49\n      jump\t// in\n    tag_48:\n      mload(0x40)\n      dup1\n      swap2\n      sub\n      swap1\n      return\n        /* \"submissions/Zora/Day26NFTMarketplace.sol\":303:323  address public owner */\n    tag_8:\n      callvalue\n      dup1\n      iszero\n      tag_50\n      jumpi\n      revert(0x00, 0x00)\n    tag_50:\n      pop\n      tag_51\n      tag_52\n      jump\t// in\n    tag_51:\n      mload(0x40)\n      tag_53\n      swap2\n      swap1\n      tag_38\n      jump\t// in\n    tag_53:\n      mload(0x40)\n      dup1\n      swap2\n      sub\n      swap1\n      return\n        /* \"submissions/Zora/Day26NFTMarketplace.sol\":3890:5349  function buyNFT(address nftAddress, uint256 tokenId) external payable nonReentrant {... */\n    tag_9:\n      tag_54\n      0x04\n      dup1\n      calldatasize\n      sub\n      dup2\n      add\n      swap1\n      tag_55\n      swap2\n      swap1\n      tag_25\n      jump\t// in\n    tag_55:\n      tag_56\n      jump\t// in\n    tag_54:\n      stop\n        /* \"submissions/Zora/Day26NFTMarketplace.sol\":2211:2443  function setMarketplaceFeePercent(uint256 _newFee) external onlyOwner {... */\n    tag_10:\n      callvalue\n      dup1\n      iszero\n      tag_57\n      jumpi\n      revert(0x00, 0x00)\n    tag_57:\n      pop\n      tag_58\n      0x04\n      dup1\n      calldatasize\n      sub\n      dup2\n      add\n      swap1\n      tag_59\n      swap2\n      swap1\n      tag_60\n      jump\t// in\n    tag_59:\n      tag_61\n      jump\t// in\n    tag_58:\n      stop\n        /* \"submissions/Zora/Day26NFTMarketplace.sol\":5395:5750  function cancelListing(address nftAddress, uint256 tokenId) external {... */\n    tag_11:\n      callvalue\n      dup1\n      iszero\n      tag_62\n      jumpi\n      revert(0x00, 0x00)\n    tag_62:\n      pop\n      tag_63\n      0x04\n      dup1\n      calldatasize\n      sub\n      dup2\n      add\n      swap1\n      tag_64\n      swap2\n      swap1\n      tag_25\n      jump\t// in\n    tag_64:\n      tag_65\n      jump\t// in\n    tag_63:\n      stop\n        /* \"submissions/Zora/Day26NFTMarketplace.sol\":2477:2727  function setFeeRecipient(address _newRecipient) external onlyOwner {... */\n    tag_12:\n      callvalue\n      dup1\n      iszero\n      tag_66\n      jumpi\n      revert(0x00, 0x00)\n    tag_66:\n      pop\n      tag_67\n      0x04\n      dup1\n      calldatasize\n      sub\n      dup2\n      add\n      swap1\n      tag_68\n      swap2\n      swap1\n      tag_69\n      jump\t// in\n    tag_68:\n      tag_70\n      jump\t// in\n    tag_67:\n      stop\n        /* \"submissions/Zora/Day26NFTMarketplace.sol\":712:775  mapping(address => mapping(uint256 => Listing)) public listings */\n    tag_26:\n      mstore(0x20, 0x04)\n      dup2\n      0x00\n      mstore\n      mstore(0x20, keccak256(0x00, 0x40))\n      dup1\n      0x00\n      mstore\n      keccak256(0x00, 0x40)\n      0x00\n      swap2\n      pop\n      swap2\n      pop\n      pop\n      dup1\n      0x00\n      add\n      0x00\n      swap1\n      sload\n      swap1\n      0x0100\n      exp\n      swap1\n      div\n      0xffffffffffffffffffffffffffffffffffffffff\n      and\n      swap1\n      dup1\n      0x01\n      add\n      0x00\n      swap1\n      sload\n      swap1\n      0x0100\n      exp\n      swap1\n      div\n      0xffffffffffffffffffffffffffffffffffffffff\n      and\n      swap1\n      dup1\n      0x02\n      add\n      sload\n      swap1\n      dup1\n      0x03\n      add\n      sload\n      swap1\n      dup1\n      0x04\n      add\n      0x00\n      swap1\n      sload\n      swap1\n      0x0100\n      exp\n      swap1\n      div\n      0xffffffffffffffffffffffffffffffffffffffff\n      and\n      swap1\n      dup1\n      0x05\n      add\n      sload\n      swap1\n      dup1\n      0x06\n      add\n      0x00\n      swap1\n      sload\n      swap1\n      0x0100\n      exp\n      swap1\n      div\n      0xff\n      and\n      swap1\n      pop\n      dup8\n      jump\t// out\n        /* \"submissions/Zora/Day26NFTMarketplace.sol\":331:367  uint256 public marketplaceFeePercent */\n    tag_31:\n      sload(0x02)\n      dup2\n      jump\t// out\n        /* \"submissions/Zora/Day26NFTMarketplace.sol\":407:434  address public feeRecipient */\n    tag_36:\n      0x03\n      0x00\n      swap1\n      sload\n      swap1\n      0x0100\n      exp\n      swap1\n      div\n      0xffffffffffffffffffffffffffffffffffffffff\n      and\n      dup2\n      jump\t// out\n        /* \"submissions/Zora/Day26NFTMarketplace.sol\":2764:3859  function listNFT(... */\n    tag_43:\n        /* \"submissions/Zora/Day26NFTMarketplace.sol\":2970:2971  0 */\n      0x00\n        /* \"submissions/Zora/Day26NFTMarketplace.sol\":2962:2967  price */\n      dup4\n        /* \"submissions/Zora/Day26NFTMarketplace.sol\":2962:2971  price > 0 */\n      gt\n        /* \"submissions/Zora/Day26NFTMarketplace.sol\":2954:3000  require(price > 0, \"Price must be above zero\") */\n      tag_72\n      jumpi\n      mload(0x40)\n      0x08c379a000000000000000000000000000000000000000000000000000000000\n      dup2\n      mstore\n      0x04\n      add\n      tag_73\n      swap1\n      tag_74\n      jump\t// in\n    tag_73:\n      mload(0x40)\n      dup1\n      swap2\n      sub\n      swap1\n      revert\n    tag_72:\n        /* \"submissions/Zora/Day26NFTMarketplace.sol\":3037:3041  1000 */\n      0x03e8\n        /* \"submissions/Zora/Day26NFTMarketplace.sol\":3019:3033  royaltyPercent */\n      dup2\n        /* \"submissions/Zora/Day26NFTMarketplace.sol\":3019:3041  royaltyPercent <= 1000 */\n      gt\n      iszero\n        /* \"submissions/Zora/Day26NFTMarketplace.sol\":3011:3069  require(royaltyPercent <= 1000, \"Max 10% royalty allowed\") */\n      tag_75\n      jumpi\n      mload(0x40)\n      0x08c379a000000000000000000000000000000000000000000000000000000000\n      dup2\n      mstore\n      0x04\n      add\n      tag_76\n      swap1\n      tag_77\n      jump\t// in\n    tag_76:\n      mload(0x40)\n      dup1\n      swap2\n      sub\n      swap1\n      revert\n    tag_75:\n        /* \"submissions/Zora/Day26NFTMarketplace.sol\":3089:3097  listings */\n      0x04\n        /* \"submissions/Zora/Day26NFTMarketplace.sol\":3089:3109  listings[nftAddress] */\n      0x00\n        /* \"submissions/Zora/Day26NFTMarketplace.sol\":3098:3108  nftAddress */\n      dup7\n        /* \"submissions/Zora/Day26NFTMarketplace.sol\":3089:3109  listings[nftAddress] */\n      0xffffffffffffffffffffffffffffffffffffffff\n      and\n      0xffffffffffffffffffffffffffffffffffffffff\n      and\n      dup2\n      mstore\n      0x20\n      add\n      swap1\n      dup2\n      mstore\n      0x20\n      add\n      0x00\n      keccak256\n        /* \"submissions/Zora/Day26NFTMarketplace.sol\":3089:3118  listings[nftAddress][tokenId] */\n      0x00\n        /* \"submissions/Zora/Day26NFTMarketplace.sol\":3110:3117  tokenId */\n      dup6\n        /* \"submissions/Zora/Day26NFTMarketplace.sol\":3089:3118  listings[nftAddress][tokenId] */\n      dup2\n      mstore\n      0x20\n      add\n      swap1\n      dup2\n      mstore\n      0x20\n      add\n      0x00\n      keccak256\n        /* \"submissions/Zora/Day26NFTMarketplace.sol\":3089:3127  listings[nftAddress][tokenId].isListed */\n      0x06\n      add\n      0x00\n      swap1\n      sload\n      swap1\n      0x0100\n      exp\n      swap1\n      div\n      0xff\n      and\n        /* \"submissions/Zora/Day26NFTMarketplace.sol\":3088:3127  !listings[nftAddress][tokenId].isListed */\n      iszero\n        /* \"submissions/Zora/Day26NFTMarketplace.sol\":3080:3146  require(!listings[nftAddress][tokenId].isListed, \"Already listed\") */\n      tag_78\n      jumpi\n      mload(0x40)\n      0x08c379a000000000000000000000000000000000000000000000000000000000\n      dup2\n      mstore\n      0x04\n      add\n      tag_79\n      swap1\n      tag_80\n      jump\t// in\n    tag_79:\n      mload(0x40)\n      dup1\n      swap2\n      sub\n      swap1\n      revert\n    tag_78:\n        /* \"submissions/Zora/Day26NFTMarketplace.sol\":3159:3170  IERC721 nft */\n      0x00\n        /* \"submissions/Zora/Day26NFTMarketplace.sol\":3181:3191  nftAddress */\n      dup6\n        /* \"submissions/Zora/Day26NFTMarketplace.sol\":3159:3192  IERC721 nft = IERC721(nftAddress) */\n      swap1\n      pop\n        /* \"submissions/Zora/Day26NFTMarketplace.sol\":3235:3245  msg.sender */\n      caller\n        /* \"submissions/Zora/Day26NFTMarketplace.sol\":3211:3245  nft.ownerOf(tokenId) == msg.sender */\n      0xffffffffffffffffffffffffffffffffffffffff\n      and\n        /* \"submissions/Zora/Day26NFTMarketplace.sol\":3211:3214  nft */\n      dup2\n        /* \"submissions/Zora/Day26NFTMarketplace.sol\":3211:3222  nft.ownerOf */\n      0xffffffffffffffffffffffffffffffffffffffff\n      and\n      0x6352211e\n        /* \"submissions/Zora/Day26NFTMarketplace.sol\":3223:3230  tokenId */\n      dup8\n        /* \"submissions/Zora/Day26NFTMarketplace.sol\":3211:3231  nft.ownerOf(tokenId) */\n      mload(0x40)\n      dup3\n      0xffffffff\n      and\n      0xe0\n      shl\n      dup2\n      mstore\n      0x04\n      add\n      tag_81\n      swap2\n      swap1\n      tag_33\n      jump\t// in\n    tag_81:\n      0x20\n      mload(0x40)\n      dup1\n      dup4\n      sub\n      dup2\n      dup7\n      gas\n      staticcall\n      iszero\n      dup1\n      iszero\n      tag_83\n      jumpi\n      returndatacopy(0x00, 0x00, returndatasize)\n      revert(0x00, returndatasize)\n    tag_83:\n      pop\n      pop\n      pop\n      pop\n      mload(0x40)\n      returndatasize\n      not(0x1f)\n      0x1f\n      dup3\n      add\n      and\n      dup3\n      add\n      dup1\n      0x40\n      mstore\n      pop\n      dup2\n      add\n      swap1\n      tag_84\n      swap2\n      swap1\n      tag_85\n      jump\t// in\n    tag_84:\n        /* \"submissions/Zora/Day26NFTMarketplace.sol\":3211:3245  nft.ownerOf(tokenId) == msg.sender */\n      0xffffffffffffffffffffffffffffffffffffffff\n      and\n      eq\n        /* \"submissions/Zora/Day26NFTMarketplace.sol\":3203:3263  require(nft.ownerOf(tokenId) == msg.sender, \"Not the owner\") */\n      tag_86\n      jumpi\n      mload(0x40)\n      0x08c379a000000000000000000000000000000000000000000000000000000000\n      dup2\n      mstore\n      0x04\n      add\n      tag_87\n      swap1\n      tag_88\n      jump\t// in\n    tag_87:\n      mload(0x40)\n      dup1\n      swap2\n      sub\n      swap1\n      revert\n    tag_86:\n        /* \"submissions/Zora/Day26NFTMarketplace.sol\":3332:3336  this */\n      address\n        /* \"submissions/Zora/Day26NFTMarketplace.sol\":3296:3337  nft.getApproved(tokenId) == address(this) */\n      0xffffffffffffffffffffffffffffffffffffffff\n      and\n        /* \"submissions/Zora/Day26NFTMarketplace.sol\":3296:3299  nft */\n      dup2\n        /* \"submissions/Zora/Day26NFTMarketplace.sol\":3296:3311  nft.getApproved */\n      0xffffffffffffffffffffffffffffffffffffffff\n      and\n      0x081812fc\n        /* \"submissions/Zora/Day26NFTMarketplace.sol\":3312:3319  tokenId */\n      dup8\n        /* \"submissions/Zora/Day26NFTMarketplace.sol\":3296:3320  nft.getApproved(tokenId) */\n      mload(0x40)\n      dup3\n      0xffffffff\n      and\n      0xe0\n      shl\n      dup2\n      mstore\n      0x04\n      add\n      tag_89\n      swap2\n      swap1\n      tag_33\n      jump\t// in\n    tag_89:\n      0x20\n      mload(0x40)\n      dup1\n      dup4\n      sub\n      dup2\n      dup7\n      gas\n      staticcall\n      iszero\n      dup1\n      iszero\n      tag_91\n      jumpi\n      returndatacopy(0x00, 0x00, returndatasize)\n      revert(0x00, returndatasize)\n    tag_91:\n      pop\n      pop\n      pop\n      pop\n      mload(0x40)\n      returndatasize\n      not(0x1f)\n      0x1f\n      dup3\n      add\n      and\n      dup3\n      add\n      dup1\n      0x40\n      mstore\n      pop\n      dup2\n      add\n      swap1\n      tag_92\n      swap2\n      swap1\n      tag_85\n      jump\t// in\n    tag_92:\n        /* \"submissions/Zora/Day26NFTMarketplace.sol\":3296:3337  nft.getApproved(tokenId) == address(this) */\n      0xffffffffffffffffffffffffffffffffffffffff\n      and\n      eq\n        /* \"submissions/Zora/Day26NFTMarketplace.sol\":3296:3388  nft.getApproved(tokenId) == address(this) || nft.isApprovedForAll(msg.sender, address(this)) */\n      dup1\n      tag_93\n      jumpi\n      pop\n        /* \"submissions/Zora/Day26NFTMarketplace.sol\":3341:3344  nft */\n      dup1\n        /* \"submissions/Zora/Day26NFTMarketplace.sol\":3341:3361  nft.isApprovedForAll */\n      0xffffffffffffffffffffffffffffffffffffffff\n      and\n      0xe985e9c5\n        /* \"submissions/Zora/Day26NFTMarketplace.sol\":3362:3372  msg.sender */\n      caller\n        /* \"submissions/Zora/Day26NFTMarketplace.sol\":3382:3386  this */\n      address\n        /* \"submissions/Zora/Day26NFTMarketplace.sol\":3341:3388  nft.isApprovedForAll(msg.sender, address(this)) */\n      mload(0x40)\n      dup4\n      0xffffffff\n      and\n      0xe0\n      shl\n      dup2\n      mstore\n      0x04\n      add\n      tag_94\n      swap3\n      swap2\n      swap1\n      tag_95\n      jump\t// in\n    tag_94:\n      0x20\n      mload(0x40)\n      dup1\n      dup4\n      sub\n      dup2\n      dup7\n      gas\n      staticcall\n      iszero\n      dup1\n      iszero\n      tag_97\n      jumpi\n      returndatacopy(0x00, 0x00, returndatasize)\n      revert(0x00, returndatasize)\n    tag_97:\n      pop\n      pop\n      pop\n      pop\n      mload(0x40)\n      returndatasize\n      not(0x1f)\n      0x1f\n      dup3\n      add\n      and\n      dup3\n      add\n      dup1\n      0x40\n      mstore\n      pop\n      dup2\n      add\n      swap1\n      tag_98\n      swap2\n      swap1\n      tag_99\n      jump\t// in\n    tag_98:\n        /* \"submissions/Zora/Day26NFTMarketplace.sol\":3296:3388  nft.getApproved(tokenId) == address(this) || nft.isApprovedForAll(msg.sender, address(this)) */\n    tag_93:\n        /* \"submissions/Zora/Day26NFTMarketplace.sol\":3274:3440  require(... */\n      tag_100\n      jumpi\n      mload(0x40)\n      0x08c379a000000000000000000000000000000000000000000000000000000000\n      dup2\n      mstore\n      0x04\n      add\n      tag_101\n      swap1\n      tag_102\n      jump\t// in\n    tag_101:\n      mload(0x40)\n      dup1\n      swap2\n      sub\n      swap1\n      revert\n    tag_100:\n        /* \"submissions/Zora/Day26NFTMarketplace.sol\":3485:3754  Listing({... */\n      mload(0x40)\n      dup1\n      0xe0\n      add\n      0x40\n      mstore\n      dup1\n        /* \"submissions/Zora/Day26NFTMarketplace.sol\":3516:3526  msg.sender */\n      caller\n        /* \"submissions/Zora/Day26NFTMarketplace.sol\":3485:3754  Listing({... */\n      0xffffffffffffffffffffffffffffffffffffffff\n      and\n      dup2\n      mstore\n      0x20\n      add\n        /* \"submissions/Zora/Day26NFTMarketplace.sol\":3553:3563  nftAddress */\n      dup8\n        /* \"submissions/Zora/Day26NFTMarketplace.sol\":3485:3754  Listing({... */\n      0xffffffffffffffffffffffffffffffffffffffff\n      and\n      dup2\n      mstore\n      0x20\n      add\n        /* \"submissions/Zora/Day26NFTMarketplace.sol\":3587:3594  tokenId */\n      dup7\n        /* \"submissions/Zora/Day26NFTMarketplace.sol\":3485:3754  Listing({... */\n      dup2\n      mstore\n      0x20\n      add\n        /* \"submissions/Zora/Day26NFTMarketplace.sol\":3616:3621  price */\n      dup6\n        /* \"submissions/Zora/Day26NFTMarketplace.sol\":3485:3754  Listing({... */\n      dup2\n      mstore\n      0x20\n      add\n        /* \"submissions/Zora/Day26NFTMarketplace.sol\":3653:3668  royaltyReceiver */\n      dup5\n        /* \"submissions/Zora/Day26NFTMarketplace.sol\":3485:3754  Listing({... */\n      0xffffffffffffffffffffffffffffffffffffffff\n      and\n      dup2\n      mstore\n      0x20\n      add\n        /* \"submissions/Zora/Day26NFTMarketplace.sol\":3699:3713  royaltyPercent */\n      dup4\n        /* \"submissions/Zora/Day26NFTMarketplace.sol\":3485:3754  Listing({... */\n      dup2\n      mstore\n      0x20\n      add\n        /* \"submissions/Zora/Day26NFTMarketplace.sol\":3738:3742  true */\n      0x01\n        /* \"submissions/Zora/Day26NFTMarketplace.sol\":3485:3754  Listing({... */\n      iszero\n      iszero\n      dup2\n      mstore\n      pop\n        /* \"submissions/Zora/Day26NFTMarketplace.sol\":3453:3461  listings */\n      0x04\n        /* \"submissions/Zora/Day26NFTMarketplace.sol\":3453:3473  listings[nftAddress] */\n      0x00\n        /* \"submissions/Zora/Day26NFTMarketplace.sol\":3462:3472  nftAddress */\n      dup9\n        /* \"submissions/Zora/Day26NFTMarketplace.sol\":3453:3473  listings[nftAddress] */\n      0xffffffffffffffffffffffffffffffffffffffff\n      and\n      0xffffffffffffffffffffffffffffffffffffffff\n      and\n      dup2\n      mstore\n      0x20\n      add\n      swap1\n      dup2\n      mstore\n      0x20\n      add\n      0x00\n      keccak256\n        /* \"submissions/Zora/Day26NFTMarketplace.sol\":3453:3482  listings[nftAddress][tokenId] */\n      0x00\n        /* \"submissions/Zora/Day26NFTMarketplace.sol\":3474:3481  tokenId */\n      dup8\n        /* \"submissions/Zora/Day26NFTMarketplace.sol\":3453:3482  listings[nftAddress][tokenId] */\n      dup2\n      mstore\n      0x20\n      add\n      swap1\n      dup2\n      mstore\n      0x20\n      add\n      0x00\n      keccak256\n        /* \"submissions/Zora/Day26NFTMarketplace.sol\":3453:3754  listings[nftAddress][tokenId] = Listing({... */\n      0x00\n      dup3\n      add\n      mload\n      dup2\n      0x00\n      add\n      exp(0x0100, 0x00)\n      dup2\n      sload\n      dup2\n      0xffffffffffffffffffffffffffffffffffffffff\n      mul\n      not\n      and\n      swap1\n      dup4\n      0xffffffffffffffffffffffffffffffffffffffff\n      and\n      mul\n      or\n      swap1\n      sstore\n      pop\n      0x20\n      dup3\n      add\n      mload\n      dup2\n      0x01\n      add\n      exp(0x0100, 0x00)\n      dup2\n      sload\n      dup2\n      0xffffffffffffffffffffffffffffffffffffffff\n      mul\n      not\n      and\n      swap1\n      dup4\n      0xffffffffffffffffffffffffffffffffffffffff\n      and\n      mul\n      or\n      swap1\n      sstore\n      pop\n      0x40\n      dup3\n      add\n      mload\n      dup2\n      0x02\n      add\n      sstore\n      0x60\n      dup3\n      add\n      mload\n      dup2\n      0x03\n      add\n      sstore\n      0x80\n      dup3\n      add\n      mload\n      dup2\n      0x04\n      add\n      exp(0x0100, 0x00)\n      dup2\n      sload\n      dup2\n      0xffffffffffffffffffffffffffffffffffffffff\n      mul\n      not\n      and\n      swap1\n      dup4\n      0xffffffffffffffffffffffffffffffffffffffff\n      and\n      mul\n      or\n      swap1\n      sstore\n      pop\n      0xa0\n      dup3\n      add\n      mload\n      dup2\n      0x05\n      add\n      sstore\n      0xc0\n      dup3\n      add\n      mload\n      dup2\n      0x06\n      add\n      exp(0x0100, 0x00)\n      dup2\n      sload\n      dup2\n      0xff\n      mul\n      not\n      and\n      swap1\n      dup4\n      iszero\n      iszero\n      mul\n      or\n      swap1\n      sstore\n      pop\n      swap1\n      pop\n      pop\n        /* \"submissions/Zora/Day26NFTMarketplace.sol\":3803:3810  tokenId */\n      dup5\n        /* \"submissions/Zora/Day26NFTMarketplace.sol\":3791:3801  nftAddress */\n      dup7\n        /* \"submissions/Zora/Day26NFTMarketplace.sol\":3772:3851  Listed(msg.sender, nftAddress, tokenId, price, royaltyReceiver, royaltyPercent) */\n      0xffffffffffffffffffffffffffffffffffffffff\n      and\n        /* \"submissions/Zora/Day26NFTMarketplace.sol\":3779:3789  msg.sender */\n      caller\n        /* \"submissions/Zora/Day26NFTMarketplace.sol\":3772:3851  Listed(msg.sender, nftAddress, tokenId, price, royaltyReceiver, royaltyPercent) */\n      0xffffffffffffffffffffffffffffffffffffffff\n      and\n      0x807de38b500f7dce06ab2c21f8dbd9d2c9bfca0e78928c06fd93375feac76b04\n        /* \"submissions/Zora/Day26NFTMarketplace.sol\":3812:3817  price */\n      dup8\n        /* \"submissions/Zora/Day26NFTMarketplace.sol\":3819:3834  royaltyReceiver */\n      dup8\n        /* \"submissions/Zora/Day26NFTMarketplace.sol\":3836:3850  royaltyPercent */\n      dup8\n        /* \"submissions/Zora/Day26NFTMarketplace.sol\":3772:3851  Listed(msg.sender, nftAddress, tokenId, price, royaltyReceiver, royaltyPercent) */\n      mload(0x40)\n      tag_103\n      swap4\n      swap3\n      swap2\n      swap1\n      tag_104\n      jump\t// in\n    tag_103:\n      mload(0x40)\n      dup1\n      swap2\n      sub\n      swap1\n      log4\n        /* \"submissions/Zora/Day26NFTMarketplace.sol\":2943:3859  {... */\n      pop\n        /* \"submissions/Zora/Day26NFTMarketplace.sol\":2764:3859  function listNFT(... */\n      pop\n      pop\n      pop\n      pop\n      pop\n      jump\t// out\n        /* \"submissions/Zora/Day26NFTMarketplace.sol\":5793:5944  function getListing(address nftAddress, uint256 tokenId) external view returns (Listing memory) {... */\n    tag_47:\n        /* \"submissions/Zora/Day26NFTMarketplace.sol\":5873:5887  Listing memory */\n      tag_105\n      tag_106\n      jump\t// in\n    tag_105:\n        /* \"submissions/Zora/Day26NFTMarketplace.sol\":5907:5915  listings */\n      0x04\n        /* \"submissions/Zora/Day26NFTMarketplace.sol\":5907:5927  listings[nftAddress] */\n      0x00\n        /* \"submissions/Zora/Day26NFTMarketplace.sol\":5916:5926  nftAddress */\n      dup5\n        /* \"submissions/Zora/Day26NFTMarketplace.sol\":5907:5927  listings[nftAddress] */\n      0xffffffffffffffffffffffffffffffffffffffff\n      and\n      0xffffffffffffffffffffffffffffffffffffffff\n      and\n      dup2\n      mstore\n      0x20\n      add\n      swap1\n      dup2\n      mstore\n      0x20\n      add\n      0x00\n      keccak256\n        /* \"submissions/Zora/Day26NFTMarketplace.sol\":5907:5936  listings[nftAddress][tokenId] */\n      0x00\n        /* \"submissions/Zora/Day26NFTMarketplace.sol\":5928:5935  tokenId */\n      dup4\n        /* \"submissions/Zora/Day26NFTMarketplace.sol\":5907:5936  listings[nftAddress][tokenId] */\n      dup2\n      mstore\n      0x20\n      add\n      swap1\n      dup2\n      mstore\n      0x20\n      add\n      0x00\n      keccak256\n        /* \"submissions/Zora/Day26NFTMarketplace.sol\":5900:5936  return listings[nftAddress][tokenId] */\n      mload(0x40)\n      dup1\n      0xe0\n      add\n      0x40\n      mstore\n      swap1\n      dup2\n      0x00\n      dup3\n      add\n      0x00\n      swap1\n      sload\n      swap1\n      0x0100\n      exp\n      swap1\n      div\n      0xffffffffffffffffffffffffffffffffffffffff\n      and\n      0xffffffffffffffffffffffffffffffffffffffff\n      and\n      0xffffffffffffffffffffffffffffffffffffffff\n      and\n      dup2\n      mstore\n      0x20\n      add\n      0x01\n      dup3\n      add\n      0x00\n      swap1\n      sload\n      swap1\n      0x0100\n      exp\n      swap1\n      div\n      0xffffffffffffffffffffffffffffffffffffffff\n      and\n      0xffffffffffffffffffffffffffffffffffffffff\n      and\n      0xffffffffffffffffffffffffffffffffffffffff\n      and\n      dup2\n      mstore\n      0x20\n      add\n      0x02\n      dup3\n      add\n      sload\n      dup2\n      mstore\n      0x20\n      add\n      0x03\n      dup3\n      add\n      sload\n      dup2\n      mstore\n      0x20\n      add\n      0x04\n      dup3\n      add\n      0x00\n      swap1\n      sload\n      swap1\n      0x0100\n      exp\n      swap1\n      div\n      0xffffffffffffffffffffffffffffffffffffffff\n      and\n      0xffffffffffffffffffffffffffffffffffffffff\n      and\n      0xffffffffffffffffffffffffffffffffffffffff\n      and\n      dup2\n      mstore\n      0x20\n      add\n      0x05\n      dup3\n      add\n      sload\n      dup2\n      mstore\n      0x20\n      add\n      0x06\n      dup3\n      add\n      0x00\n      swap1\n      sload\n      swap1\n      0x0100\n      exp\n      swap1\n      div\n      0xff\n      and\n      iszero\n      iszero\n      iszero\n      iszero\n      dup2\n      mstore\n      pop\n      pop\n      swap1\n      pop\n        /* \"submissions/Zora/Day26NFTMarketplace.sol\":5793:5944  function getListing(address nftAddress, uint256 tokenId) external view returns (Listing memory) {... */\n      swap3\n      swap2\n      pop\n      pop\n      jump\t// out\n        /* \"submissions/Zora/Day26NFTMarketplace.sol\":303:323  address public owner */\n    tag_52:\n      0x01\n      0x00\n      swap1\n      sload\n      swap1\n      0x0100\n      exp\n      swap1\n      div\n      0xffffffffffffffffffffffffffffffffffffffff\n      and\n      dup2\n      jump\t// out\n        /* \"submissions/Zora/Day26NFTMarketplace.sol\":3890:5349  function buyNFT(address nftAddress, uint256 tokenId) external payable nonReentrant {... */\n    tag_56:\n        /* \"@openzeppelin/contracts/security/ReentrancyGuard.sol\":2261:2282  _nonReentrantBefore() */\n      tag_109\n        /* \"@openzeppelin/contracts/security/ReentrancyGuard.sol\":2261:2280  _nonReentrantBefore */\n      tag_110\n        /* \"@openzeppelin/contracts/security/ReentrancyGuard.sol\":2261:2282  _nonReentrantBefore() */\n      jump\t// in\n    tag_109:\n        /* \"submissions/Zora/Day26NFTMarketplace.sol\":3984:4003  Listing memory item */\n      0x00\n        /* \"submissions/Zora/Day26NFTMarketplace.sol\":4006:4014  listings */\n      0x04\n        /* \"submissions/Zora/Day26NFTMarketplace.sol\":4006:4026  listings[nftAddress] */\n      0x00\n        /* \"submissions/Zora/Day26NFTMarketplace.sol\":4015:4025  nftAddress */\n      dup5\n        /* \"submissions/Zora/Day26NFTMarketplace.sol\":4006:4026  listings[nftAddress] */\n      0xffffffffffffffffffffffffffffffffffffffff\n      and\n      0xffffffffffffffffffffffffffffffffffffffff\n      and\n      dup2\n      mstore\n      0x20\n      add\n      swap1\n      dup2\n      mstore\n      0x20\n      add\n      0x00\n      keccak256\n        /* \"submissions/Zora/Day26NFTMarketplace.sol\":4006:4035  listings[nftAddress][tokenId] */\n      0x00\n        /* \"submissions/Zora/Day26NFTMarketplace.sol\":4027:4034  tokenId */\n      dup4\n        /* \"submissions/Zora/Day26NFTMarketplace.sol\":4006:4035  listings[nftAddress][tokenId] */\n      dup2\n      mstore\n      0x20\n      add\n      swap1\n      dup2\n      mstore\n      0x20\n      add\n      0x00\n      keccak256\n        /* \"submissions/Zora/Day26NFTMarketplace.sol\":3984:4035  Listing memory item = listings[nftAddress][tokenId] */\n      mload(0x40)\n      dup1\n      0xe0\n      add\n      0x40\n      mstore\n      swap1\n      dup2\n      0x00\n      dup3\n      add\n      0x00\n      swap1\n      sload\n      swap1\n      0x0100\n      exp\n      swap1\n      div\n      0xffffffffffffffffffffffffffffffffffffffff\n      and\n      0xffffffffffffffffffffffffffffffffffffffff\n      and\n      0xffffffffffffffffffffffffffffffffffffffff\n      and\n      dup2\n      mstore\n      0x20\n      add\n      0x01\n      dup3\n      add\n      0x00\n      swap1\n      sload\n      swap1\n      0x0100\n      exp\n      swap1\n      div\n      0xffffffffffffffffffffffffffffffffffffffff\n      and\n      0xffffffffffffffffffffffffffffffffffffffff\n      and\n      0xffffffffffffffffffffffffffffffffffffffff\n      and\n      dup2\n      mstore\n      0x20\n      add\n      0x02\n      dup3\n      add\n      sload\n      dup2\n      mstore\n      0x20\n      add\n      0x03\n      dup3\n      add\n      sload\n      dup2\n      mstore\n      0x20\n      add\n      0x04\n      dup3\n      add\n      0x00\n      swap1\n      sload\n      swap1\n      0x0100\n      exp\n      swap1\n      div\n      0xffffffffffffffffffffffffffffffffffffffff\n      and\n      0xffffffffffffffffffffffffffffffffffffffff\n      and\n      0xffffffffffffffffffffffffffffffffffffffff\n      and\n      dup2\n      mstore\n      0x20\n      add\n      0x05\n      dup3\n      add\n      sload\n      dup2\n      mstore\n      0x20\n      add\n      0x06\n      dup3\n      add\n      0x00\n      swap1\n      sload\n      swap1\n      0x0100\n      exp\n      swap1\n      div\n      0xff\n      and\n      iszero\n      iszero\n      iszero\n      iszero\n      dup2\n      mstore\n      pop\n      pop\n      swap1\n      pop\n        /* \"submissions/Zora/Day26NFTMarketplace.sol\":4054:4058  item */\n      dup1\n        /* \"submissions/Zora/Day26NFTMarketplace.sol\":4054:4067  item.isListed */\n      0xc0\n      add\n      mload\n        /* \"submissions/Zora/Day26NFTMarketplace.sol\":4046:4082  require(item.isListed, \"Not listed\") */\n      tag_112\n      jumpi\n      mload(0x40)\n      0x08c379a000000000000000000000000000000000000000000000000000000000\n      dup2\n      mstore\n      0x04\n      add\n      tag_113\n      swap1\n      tag_114\n      jump\t// in\n    tag_113:\n      mload(0x40)\n      dup1\n      swap2\n      sub\n      swap1\n      revert\n    tag_112:\n        /* \"submissions/Zora/Day26NFTMarketplace.sol\":4114:4118  item */\n      dup1\n        /* \"submissions/Zora/Day26NFTMarketplace.sol\":4114:4124  item.price */\n      0x60\n      add\n      mload\n        /* \"submissions/Zora/Day26NFTMarketplace.sol\":4101:4110  msg.value */\n      callvalue\n        /* \"submissions/Zora/Day26NFTMarketplace.sol\":4101:4124  msg.value == item.price */\n      eq\n        /* \"submissions/Zora/Day26NFTMarketplace.sol\":4093:4147  require(msg.value == item.price, \"Incorrect ETH sent\") */\n      tag_115\n      jumpi\n      mload(0x40)\n      0x08c379a000000000000000000000000000000000000000000000000000000000\n      dup2\n      mstore\n      0x04\n      add\n      tag_116\n      swap1\n      tag_117\n      jump\t// in\n    tag_116:\n      mload(0x40)\n      dup1\n      swap2\n      sub\n      swap1\n      revert\n    tag_115:\n        /* \"submissions/Zora/Day26NFTMarketplace.sol\":4227:4232  10000 */\n      0x2710\n        /* \"submissions/Zora/Day26NFTMarketplace.sol\":4202:4223  marketplaceFeePercent */\n      sload(0x02)\n        /* \"submissions/Zora/Day26NFTMarketplace.sol\":4180:4184  item */\n      dup3\n        /* \"submissions/Zora/Day26NFTMarketplace.sol\":4180:4199  item.royaltyPercent */\n      0xa0\n      add\n      mload\n        /* \"submissions/Zora/Day26NFTMarketplace.sol\":4180:4223  item.royaltyPercent + marketplaceFeePercent */\n      tag_118\n      swap2\n      swap1\n      tag_119\n      jump\t// in\n    tag_118:\n        /* \"submissions/Zora/Day26NFTMarketplace.sol\":4180:4232  item.royaltyPercent + marketplaceFeePercent <= 10000 */\n      gt\n      iszero\n        /* \"submissions/Zora/Day26NFTMarketplace.sol\":4158:4285  require(... */\n      tag_120\n      jumpi\n      mload(0x40)\n      0x08c379a000000000000000000000000000000000000000000000000000000000\n      dup2\n      mstore\n      0x04\n      add\n      tag_121\n      swap1\n      tag_122\n      jump\t// in\n    tag_121:\n      mload(0x40)\n      dup1\n      swap2\n      sub\n      swap1\n      revert\n    tag_120:\n        /* \"submissions/Zora/Day26NFTMarketplace.sol\":4298:4315  uint256 feeAmount */\n      0x00\n        /* \"submissions/Zora/Day26NFTMarketplace.sol\":4356:4361  10000 */\n      0x2710\n        /* \"submissions/Zora/Day26NFTMarketplace.sol\":4331:4352  marketplaceFeePercent */\n      sload(0x02)\n        /* \"submissions/Zora/Day26NFTMarketplace.sol\":4319:4328  msg.value */\n      callvalue\n        /* \"submissions/Zora/Day26NFTMarketplace.sol\":4319:4352  msg.value * marketplaceFeePercent */\n      tag_123\n      swap2\n      swap1\n      tag_124\n      jump\t// in\n    tag_123:\n        /* \"submissions/Zora/Day26NFTMarketplace.sol\":4318:4361  (msg.value * marketplaceFeePercent) / 10000 */\n      tag_125\n      swap2\n      swap1\n      tag_126\n      jump\t// in\n    tag_125:\n        /* \"submissions/Zora/Day26NFTMarketplace.sol\":4298:4361  uint256 feeAmount = (msg.value * marketplaceFeePercent) / 10000 */\n      swap1\n      pop\n        /* \"submissions/Zora/Day26NFTMarketplace.sol\":4372:4393  uint256 royaltyAmount */\n      0x00\n        /* \"submissions/Zora/Day26NFTMarketplace.sol\":4432:4437  10000 */\n      0x2710\n        /* \"submissions/Zora/Day26NFTMarketplace.sol\":4409:4413  item */\n      dup4\n        /* \"submissions/Zora/Day26NFTMarketplace.sol\":4409:4428  item.royaltyPercent */\n      0xa0\n      add\n      mload\n        /* \"submissions/Zora/Day26NFTMarketplace.sol\":4397:4406  msg.value */\n      callvalue\n        /* \"submissions/Zora/Day26NFTMarketplace.sol\":4397:4428  msg.value * item.royaltyPercent */\n      tag_127\n      swap2\n      swap1\n      tag_124\n      jump\t// in\n    tag_127:\n        /* \"submissions/Zora/Day26NFTMarketplace.sol\":4396:4437  (msg.value * item.royaltyPercent) / 10000 */\n      tag_128\n      swap2\n      swap1\n      tag_126\n      jump\t// in\n    tag_128:\n        /* \"submissions/Zora/Day26NFTMarketplace.sol\":4372:4437  uint256 royaltyAmount = (msg.value * item.royaltyPercent) / 10000 */\n      swap1\n      pop\n        /* \"submissions/Zora/Day26NFTMarketplace.sol\":4448:4468  uint256 sellerAmount */\n      0x00\n        /* \"submissions/Zora/Day26NFTMarketplace.sol\":4495:4508  royaltyAmount */\n      dup2\n        /* \"submissions/Zora/Day26NFTMarketplace.sol\":4483:4492  feeAmount */\n      dup4\n        /* \"submissions/Zora/Day26NFTMarketplace.sol\":4471:4480  msg.value */\n      callvalue\n        /* \"submissions/Zora/Day26NFTMarketplace.sol\":4471:4492  msg.value - feeAmount */\n      tag_129\n      swap2\n      swap1\n      tag_130\n      jump\t// in\n    tag_129:\n        /* \"submissions/Zora/Day26NFTMarketplace.sol\":4471:4508  msg.value - feeAmount - royaltyAmount */\n      tag_131\n      swap2\n      swap1\n      tag_130\n      jump\t// in\n    tag_131:\n        /* \"submissions/Zora/Day26NFTMarketplace.sol\":4448:4508  uint256 sellerAmount = msg.value - feeAmount - royaltyAmount */\n      swap1\n      pop\n        /* \"submissions/Zora/Day26NFTMarketplace.sol\":4562:4563  0 */\n      0x00\n        /* \"submissions/Zora/Day26NFTMarketplace.sol\":4550:4559  feeAmount */\n      dup4\n        /* \"submissions/Zora/Day26NFTMarketplace.sol\":4550:4563  feeAmount > 0 */\n      gt\n        /* \"submissions/Zora/Day26NFTMarketplace.sol\":4546:4633  if (feeAmount > 0) {... */\n      iszero\n      tag_132\n      jumpi\n        /* \"submissions/Zora/Day26NFTMarketplace.sol\":4588:4600  feeRecipient */\n      0x03\n      0x00\n      swap1\n      sload\n      swap1\n      0x0100\n      exp\n      swap1\n      div\n      0xffffffffffffffffffffffffffffffffffffffff\n      and\n        /* \"submissions/Zora/Day26NFTMarketplace.sol\":4580:4610  payable(feeRecipient).transfer */\n      0xffffffffffffffffffffffffffffffffffffffff\n      and\n        /* \"submissions/Zora/Day26NFTMarketplace.sol\":4580:4621  payable(feeRecipient).transfer(feeAmount) */\n      0x08fc\n        /* \"submissions/Zora/Day26NFTMarketplace.sol\":4611:4620  feeAmount */\n      dup5\n        /* \"submissions/Zora/Day26NFTMarketplace.sol\":4580:4621  payable(feeRecipient).transfer(feeAmount) */\n      swap1\n      dup2\n      iszero\n      mul\n      swap1\n      mload(0x40)\n      0x00\n      mload(0x40)\n      dup1\n      dup4\n      sub\n      dup2\n      dup6\n      dup9\n      dup9\n      call\n      swap4\n      pop\n      pop\n      pop\n      pop\n      iszero\n      dup1\n      iszero\n      tag_134\n      jumpi\n      returndatacopy(0x00, 0x00, returndatasize)\n      revert(0x00, returndatasize)\n    tag_134:\n      pop\n        /* \"submissions/Zora/Day26NFTMarketplace.sol\":4546:4633  if (feeAmount > 0) {... */\n    tag_132:\n        /* \"submissions/Zora/Day26NFTMarketplace.sol\":4693:4694  0 */\n      0x00\n        /* \"submissions/Zora/Day26NFTMarketplace.sol\":4677:4690  royaltyAmount */\n      dup3\n        /* \"submissions/Zora/Day26NFTMarketplace.sol\":4677:4694  royaltyAmount > 0 */\n      gt\n        /* \"submissions/Zora/Day26NFTMarketplace.sol\":4677:4732  royaltyAmount > 0 && item.royaltyReceiver != address(0) */\n      dup1\n      iszero\n      tag_135\n      jumpi\n      pop\n        /* \"submissions/Zora/Day26NFTMarketplace.sol\":4730:4731  0 */\n      0x00\n        /* \"submissions/Zora/Day26NFTMarketplace.sol\":4698:4732  item.royaltyReceiver != address(0) */\n      0xffffffffffffffffffffffffffffffffffffffff\n      and\n        /* \"submissions/Zora/Day26NFTMarketplace.sol\":4698:4702  item */\n      dup5\n        /* \"submissions/Zora/Day26NFTMarketplace.sol\":4698:4718  item.royaltyReceiver */\n      0x80\n      add\n      mload\n        /* \"submissions/Zora/Day26NFTMarketplace.sol\":4698:4732  item.royaltyReceiver != address(0) */\n      0xffffffffffffffffffffffffffffffffffffffff\n      and\n      eq\n      iszero\n        /* \"submissions/Zora/Day26NFTMarketplace.sol\":4677:4732  royaltyAmount > 0 && item.royaltyReceiver != address(0) */\n    tag_135:\n        /* \"submissions/Zora/Day26NFTMarketplace.sol\":4673:4814  if (royaltyAmount > 0 && item.royaltyReceiver != address(0)) {... */\n      iszero\n      tag_136\n      jumpi\n        /* \"submissions/Zora/Day26NFTMarketplace.sol\":4757:4761  item */\n      dup4\n        /* \"submissions/Zora/Day26NFTMarketplace.sol\":4757:4777  item.royaltyReceiver */\n      0x80\n      add\n      mload\n        /* \"submissions/Zora/Day26NFTMarketplace.sol\":4749:4787  payable(item.royaltyReceiver).transfer */\n      0xffffffffffffffffffffffffffffffffffffffff\n      and\n        /* \"submissions/Zora/Day26NFTMarketplace.sol\":4749:4802  payable(item.royaltyReceiver).transfer(royaltyAmount) */\n      0x08fc\n        /* \"submissions/Zora/Day26NFTMarketplace.sol\":4788:4801  royaltyAmount */\n      dup4\n        /* \"submissions/Zora/Day26NFTMarketplace.sol\":4749:4802  payable(item.royaltyReceiver).transfer(royaltyAmount) */\n      swap1\n      dup2\n      iszero\n      mul\n      swap1\n      mload(0x40)\n      0x00\n      mload(0x40)\n      dup1\n      dup4\n      sub\n      dup2\n      dup6\n      dup9\n      dup9\n      call\n      swap4\n      pop\n      pop\n      pop\n      pop\n      iszero\n      dup1\n      iszero\n      tag_138\n      jumpi\n      returndatacopy(0x00, 0x00, returndatasize)\n      revert(0x00, returndatasize)\n    tag_138:\n      pop\n        /* \"submissions/Zora/Day26NFTMarketplace.sol\":4673:4814  if (royaltyAmount > 0 && item.royaltyReceiver != address(0)) {... */\n    tag_136:\n        /* \"submissions/Zora/Day26NFTMarketplace.sol\":4859:4863  item */\n      dup4\n        /* \"submissions/Zora/Day26NFTMarketplace.sol\":4859:4870  item.seller */\n      0x00\n      add\n      mload\n        /* \"submissions/Zora/Day26NFTMarketplace.sol\":4851:4880  payable(item.seller).transfer */\n      0xffffffffffffffffffffffffffffffffffffffff\n      and\n        /* \"submissions/Zora/Day26NFTMarketplace.sol\":4851:4894  payable(item.seller).transfer(sellerAmount) */\n      0x08fc\n        /* \"submissions/Zora/Day26NFTMarketplace.sol\":4881:4893  sellerAmount */\n      dup3\n        /* \"submissions/Zora/Day26NFTMarketplace.sol\":4851:4894  payable(item.seller).transfer(sellerAmount) */\n      swap1\n      dup2\n      iszero\n      mul\n      swap1\n      mload(0x40)\n      0x00\n      mload(0x40)\n      dup1\n      dup4\n      sub\n      dup2\n      dup6\n      dup9\n      dup9\n      call\n      swap4\n      pop\n      pop\n      pop\n      pop\n      iszero\n      dup1\n      iszero\n      tag_140\n      jumpi\n      returndatacopy(0x00, 0x00, returndatasize)\n      revert(0x00, returndatasize)\n    tag_140:\n      pop\n        /* \"submissions/Zora/Day26NFTMarketplace.sol\":4949:4953  item */\n      dup4\n        /* \"submissions/Zora/Day26NFTMarketplace.sol\":4949:4964  item.nftAddress */\n      0x20\n      add\n      mload\n        /* \"submissions/Zora/Day26NFTMarketplace.sol\":4941:4982  IERC721(item.nftAddress).safeTransferFrom */\n      0xffffffffffffffffffffffffffffffffffffffff\n      and\n      0x42842e0e\n        /* \"submissions/Zora/Day26NFTMarketplace.sol\":4983:4987  item */\n      dup6\n        /* \"submissions/Zora/Day26NFTMarketplace.sol\":4983:4994  item.seller */\n      0x00\n      add\n      mload\n        /* \"submissions/Zora/Day26NFTMarketplace.sol\":4996:5006  msg.sender */\n      caller\n        /* \"submissions/Zora/Day26NFTMarketplace.sol\":5008:5012  item */\n      dup8\n        /* \"submissions/Zora/Day26NFTMarketplace.sol\":5008:5020  item.tokenId */\n      0x40\n      add\n      mload\n        /* \"submissions/Zora/Day26NFTMarketplace.sol\":4941:5021  IERC721(item.nftAddress).safeTransferFrom(item.seller, msg.sender, item.tokenId) */\n      mload(0x40)\n      dup5\n      0xffffffff\n      and\n      0xe0\n      shl\n      dup2\n      mstore\n      0x04\n      add\n      tag_141\n      swap4\n      swap3\n      swap2\n      swap1\n      tag_142\n      jump\t// in\n    tag_141:\n      0x00\n      mload(0x40)\n      dup1\n      dup4\n      sub\n      dup2\n      0x00\n      dup8\n      dup1\n      extcodesize\n      iszero\n      dup1\n      iszero\n      tag_143\n      jumpi\n      revert(0x00, 0x00)\n    tag_143:\n      pop\n      gas\n      call\n      iszero\n      dup1\n      iszero\n      tag_145\n      jumpi\n      returndatacopy(0x00, 0x00, returndatasize)\n      revert(0x00, returndatasize)\n    tag_145:\n      pop\n      pop\n      pop\n      pop\n        /* \"submissions/Zora/Day26NFTMarketplace.sol\":5066:5074  listings */\n      0x04\n        /* \"submissions/Zora/Day26NFTMarketplace.sol\":5066:5086  listings[nftAddress] */\n      0x00\n        /* \"submissions/Zora/Day26NFTMarketplace.sol\":5075:5085  nftAddress */\n      dup8\n        /* \"submissions/Zora/Day26NFTMarketplace.sol\":5066:5086  listings[nftAddress] */\n      0xffffffffffffffffffffffffffffffffffffffff\n      and\n      0xffffffffffffffffffffffffffffffffffffffff\n      and\n      dup2\n      mstore\n      0x20\n      add\n      swap1\n      dup2\n      mstore\n      0x20\n      add\n      0x00\n      keccak256\n        /* \"submissions/Zora/Day26NFTMarketplace.sol\":5066:5095  listings[nftAddress][tokenId] */\n      0x00\n        /* \"submissions/Zora/Day26NFTMarketplace.sol\":5087:5094  tokenId */\n      dup7\n        /* \"submissions/Zora/Day26NFTMarketplace.sol\":5066:5095  listings[nftAddress][tokenId] */\n      dup2\n      mstore\n      0x20\n      add\n      swap1\n      dup2\n      mstore\n      0x20\n      add\n      0x00\n      keccak256\n      0x00\n        /* \"submissions/Zora/Day26NFTMarketplace.sol\":5059:5095  delete listings[nftAddress][tokenId] */\n      0x00\n      dup3\n      add\n      exp(0x0100, 0x00)\n      dup2\n      sload\n      swap1\n      0xffffffffffffffffffffffffffffffffffffffff\n      mul\n      not\n      and\n      swap1\n      sstore\n      0x01\n      dup3\n      add\n      exp(0x0100, 0x00)\n      dup2\n      sload\n      swap1\n      0xffffffffffffffffffffffffffffffffffffffff\n      mul\n      not\n      and\n      swap1\n      sstore\n      0x02\n      dup3\n      add\n      0x00\n      swap1\n      sstore\n      0x03\n      dup3\n      add\n      0x00\n      swap1\n      sstore\n      0x04\n      dup3\n      add\n      exp(0x0100, 0x00)\n      dup2\n      sload\n      swap1\n      0xffffffffffffffffffffffffffffffffffffffff\n      mul\n      not\n      and\n      swap1\n      sstore\n      0x05\n      dup3\n      add\n      0x00\n      swap1\n      sstore\n      0x06\n      dup3\n      add\n      exp(0x0100, 0x00)\n      dup2\n      sload\n      swap1\n      0xff\n      mul\n      not\n      and\n      swap1\n      sstore\n      pop\n      pop\n        /* \"submissions/Zora/Day26NFTMarketplace.sol\":5186:5193  tokenId */\n      dup5\n        /* \"submissions/Zora/Day26NFTMarketplace.sol\":5161:5171  nftAddress */\n      dup7\n        /* \"submissions/Zora/Day26NFTMarketplace.sol\":5113:5341  Purchase(... */\n      0xffffffffffffffffffffffffffffffffffffffff\n      and\n        /* \"submissions/Zora/Day26NFTMarketplace.sol\":5136:5146  msg.sender */\n      caller\n        /* \"submissions/Zora/Day26NFTMarketplace.sol\":5113:5341  Purchase(... */\n      0xffffffffffffffffffffffffffffffffffffffff\n      and\n      0x3b7a3f17e96f82672c521bf9a7d850285797e343cb2a6d4a5a9a845aa57c144e\n        /* \"submissions/Zora/Day26NFTMarketplace.sol\":5208:5217  msg.value */\n      callvalue\n        /* \"submissions/Zora/Day26NFTMarketplace.sol\":5232:5236  item */\n      dup9\n        /* \"submissions/Zora/Day26NFTMarketplace.sol\":5232:5243  item.seller */\n      0x00\n      add\n      mload\n        /* \"submissions/Zora/Day26NFTMarketplace.sol\":5258:5262  item */\n      dup10\n        /* \"submissions/Zora/Day26NFTMarketplace.sol\":5258:5278  item.royaltyReceiver */\n      0x80\n      add\n      mload\n        /* \"submissions/Zora/Day26NFTMarketplace.sol\":5293:5306  royaltyAmount */\n      dup9\n        /* \"submissions/Zora/Day26NFTMarketplace.sol\":5321:5330  feeAmount */\n      dup11\n        /* \"submissions/Zora/Day26NFTMarketplace.sol\":5113:5341  Purchase(... */\n      mload(0x40)\n      tag_146\n      swap6\n      swap5\n      swap4\n      swap3\n      swap2\n      swap1\n      tag_147\n      jump\t// in\n    tag_146:\n      mload(0x40)\n      dup1\n      swap2\n      sub\n      swap1\n      log4\n        /* \"submissions/Zora/Day26NFTMarketplace.sol\":3973:5349  {... */\n      pop\n      pop\n      pop\n      pop\n        /* \"@openzeppelin/contracts/security/ReentrancyGuard.sol\":2303:2323  _nonReentrantAfter() */\n      tag_148\n        /* \"@openzeppelin/contracts/security/ReentrancyGuard.sol\":2303:2321  _nonReentrantAfter */\n      tag_149\n        /* \"@openzeppelin/contracts/security/ReentrancyGuard.sol\":2303:2323  _nonReentrantAfter() */\n      jump\t// in\n    tag_148:\n        /* \"submissions/Zora/Day26NFTMarketplace.sol\":3890:5349  function buyNFT(address nftAddress, uint256 tokenId) external payable nonReentrant {... */\n      pop\n      pop\n      jump\t// out\n        /* \"submissions/Zora/Day26NFTMarketplace.sol\":2211:2443  function setMarketplaceFeePercent(uint256 _newFee) external onlyOwner {... */\n    tag_61:\n        /* \"submissions/Zora/Day26NFTMarketplace.sol\":2125:2130  owner */\n      0x01\n      0x00\n      swap1\n      sload\n      swap1\n      0x0100\n      exp\n      swap1\n      div\n      0xffffffffffffffffffffffffffffffffffffffff\n      and\n        /* \"submissions/Zora/Day26NFTMarketplace.sol\":2111:2130  msg.sender == owner */\n      0xffffffffffffffffffffffffffffffffffffffff\n      and\n        /* \"submissions/Zora/Day26NFTMarketplace.sol\":2111:2121  msg.sender */\n      caller\n        /* \"submissions/Zora/Day26NFTMarketplace.sol\":2111:2130  msg.sender == owner */\n      0xffffffffffffffffffffffffffffffffffffffff\n      and\n      eq\n        /* \"submissions/Zora/Day26NFTMarketplace.sol\":2103:2145  require(msg.sender == owner, \"Only owner\") */\n      tag_151\n      jumpi\n      mload(0x40)\n      0x08c379a000000000000000000000000000000000000000000000000000000000\n      dup2\n      mstore\n      0x04\n      add\n      tag_152\n      swap1\n      tag_153\n      jump\t// in\n    tag_152:\n      mload(0x40)\n      dup1\n      swap2\n      sub\n      swap1\n      revert\n    tag_151:\n        /* \"submissions/Zora/Day26NFTMarketplace.sol\":2311:2315  1000 */\n      0x03e8\n        /* \"submissions/Zora/Day26NFTMarketplace.sol\":2300:2307  _newFee */\n      dup2\n        /* \"submissions/Zora/Day26NFTMarketplace.sol\":2300:2315  _newFee <= 1000 */\n      gt\n      iszero\n        /* \"submissions/Zora/Day26NFTMarketplace.sol\":2292:2344  require(_newFee <= 1000, \"Marketplace fee too high\") */\n      tag_155\n      jumpi\n      mload(0x40)\n      0x08c379a000000000000000000000000000000000000000000000000000000000\n      dup2\n      mstore\n      0x04\n      add\n      tag_156\n      swap1\n      tag_157\n      jump\t// in\n    tag_156:\n      mload(0x40)\n      dup1\n      swap2\n      sub\n      swap1\n      revert\n    tag_155:\n        /* \"submissions/Zora/Day26NFTMarketplace.sol\":2379:2386  _newFee */\n      dup1\n        /* \"submissions/Zora/Day26NFTMarketplace.sol\":2355:2376  marketplaceFeePercent */\n      0x02\n        /* \"submissions/Zora/Day26NFTMarketplace.sol\":2355:2386  marketplaceFeePercent = _newFee */\n      dup2\n      swap1\n      sstore\n      pop\n        /* \"submissions/Zora/Day26NFTMarketplace.sol\":2402:2435  FeeUpdated(_newFee, feeRecipient) */\n      0x7cfad8b150be9751a5386cc4e0f549618032ff63d14fab4f77cd4b0aaaedc242\n        /* \"submissions/Zora/Day26NFTMarketplace.sol\":2413:2420  _newFee */\n      dup2\n        /* \"submissions/Zora/Day26NFTMarketplace.sol\":2422:2434  feeRecipient */\n      0x03\n      0x00\n      swap1\n      sload\n      swap1\n      0x0100\n      exp\n      swap1\n      div\n      0xffffffffffffffffffffffffffffffffffffffff\n      and\n        /* \"submissions/Zora/Day26NFTMarketplace.sol\":2402:2435  FeeUpdated(_newFee, feeRecipient) */\n      mload(0x40)\n      tag_158\n      swap3\n      swap2\n      swap1\n      tag_159\n      jump\t// in\n    tag_158:\n      mload(0x40)\n      dup1\n      swap2\n      sub\n      swap1\n      log1\n        /* \"submissions/Zora/Day26NFTMarketplace.sol\":2211:2443  function setMarketplaceFeePercent(uint256 _newFee) external onlyOwner {... */\n      pop\n      jump\t// out\n        /* \"submissions/Zora/Day26NFTMarketplace.sol\":5395:5750  function cancelListing(address nftAddress, uint256 tokenId) external {... */\n    tag_65:\n        /* \"submissions/Zora/Day26NFTMarketplace.sol\":5475:5494  Listing memory item */\n      0x00\n        /* \"submissions/Zora/Day26NFTMarketplace.sol\":5497:5505  listings */\n      0x04\n        /* \"submissions/Zora/Day26NFTMarketplace.sol\":5497:5517  listings[nftAddress] */\n      0x00\n        /* \"submissions/Zora/Day26NFTMarketplace.sol\":5506:5516  nftAddress */\n      dup5\n        /* \"submissions/Zora/Day26NFTMarketplace.sol\":5497:5517  listings[nftAddress] */\n      0xffffffffffffffffffffffffffffffffffffffff\n      and\n      0xffffffffffffffffffffffffffffffffffffffff\n      and\n      dup2\n      mstore\n      0x20\n      add\n      swap1\n      dup2\n      mstore\n      0x20\n      add\n      0x00\n      keccak256\n        /* \"submissions/Zora/Day26NFTMarketplace.sol\":5497:5526  listings[nftAddress][tokenId] */\n      0x00\n        /* \"submissions/Zora/Day26NFTMarketplace.sol\":5518:5525  tokenId */\n      dup4\n        /* \"submissions/Zora/Day26NFTMarketplace.sol\":5497:5526  listings[nftAddress][tokenId] */\n      dup2\n      mstore\n      0x20\n      add\n      swap1\n      dup2\n      mstore\n      0x20\n      add\n      0x00\n      keccak256\n        /* \"submissions/Zora/Day26NFTMarketplace.sol\":5475:5526  Listing memory item = listings[nftAddress][tokenId] */\n      mload(0x40)\n      dup1\n      0xe0\n      add\n      0x40\n      mstore\n      swap1\n      dup2\n      0x00\n      dup3\n      add\n      0x00\n      swap1\n      sload\n      swap1\n      0x0100\n      exp\n      swap1\n      div\n      0xffffffffffffffffffffffffffffffffffffffff\n      and\n      0xffffffffffffffffffffffffffffffffffffffff\n      and\n      0xffffffffffffffffffffffffffffffffffffffff\n      and\n      dup2\n      mstore\n      0x20\n      add\n      0x01\n      dup3\n      add\n      0x00\n      swap1\n      sload\n      swap1\n      0x0100\n      exp\n      swap1\n      div\n      0xffffffffffffffffffffffffffffffffffffffff\n      and\n      0xffffffffffffffffffffffffffffffffffffffff\n      and\n      0xffffffffffffffffffffffffffffffffffffffff\n      and\n      dup2\n      mstore\n      0x20\n      add\n      0x02\n      dup3\n      add\n      sload\n      dup2\n      mstore\n      0x20\n      add\n      0x03\n      dup3\n      add\n      sload\n      dup2\n      mstore\n      0x20\n      add\n      0x04\n      dup3\n      add\n      0x00\n      swap1\n      sload\n      swap1\n      0x0100\n      exp\n      swap1\n      div\n      0xffffffffffffffffffffffffffffffffffffffff\n      and\n      0xffffffffffffffffffffffffffffffffffffffff\n      and\n      0xffffffffffffffffffffffffffffffffffffffff\n      and\n      dup2\n      mstore\n      0x20\n      add\n      0x05\n      dup3\n      add\n      sload\n      dup2\n      mstore\n      0x20\n      add\n      0x06\n      dup3\n      add\n      0x00\n      swap1\n      sload\n      swap1\n      0x0100\n      exp\n      swap1\n      div\n      0xff\n      and\n      iszero\n      iszero\n      iszero\n      iszero\n      dup2\n      mstore\n      pop\n      pop\n      swap1\n      pop\n        /* \"submissions/Zora/Day26NFTMarketplace.sol\":5545:5549  item */\n      dup1\n        /* \"submissions/Zora/Day26NFTMarketplace.sol\":5545:5558  item.isListed */\n      0xc0\n      add\n      mload\n        /* \"submissions/Zora/Day26NFTMarketplace.sol\":5537:5573  require(item.isListed, \"Not listed\") */\n      tag_161\n      jumpi\n      mload(0x40)\n      0x08c379a000000000000000000000000000000000000000000000000000000000\n      dup2\n      mstore\n      0x04\n      add\n      tag_162\n      swap1\n      tag_114\n      jump\t// in\n    tag_162:\n      mload(0x40)\n      dup1\n      swap2\n      sub\n      swap1\n      revert\n    tag_161:\n        /* \"submissions/Zora/Day26NFTMarketplace.sol\":5607:5617  msg.sender */\n      caller\n        /* \"submissions/Zora/Day26NFTMarketplace.sol\":5592:5617  item.seller == msg.sender */\n      0xffffffffffffffffffffffffffffffffffffffff\n      and\n        /* \"submissions/Zora/Day26NFTMarketplace.sol\":5592:5596  item */\n      dup2\n        /* \"submissions/Zora/Day26NFTMarketplace.sol\":5592:5603  item.seller */\n      0x00\n      add\n      mload\n        /* \"submissions/Zora/Day26NFTMarketplace.sol\":5592:5617  item.seller == msg.sender */\n      0xffffffffffffffffffffffffffffffffffffffff\n      and\n      eq\n        /* \"submissions/Zora/Day26NFTMarketplace.sol\":5584:5636  require(item.seller == msg.sender, \"Not the seller\") */\n      tag_163\n      jumpi\n      mload(0x40)\n      0x08c379a000000000000000000000000000000000000000000000000000000000\n      dup2\n      mstore\n      0x04\n      add\n      tag_164\n      swap1\n      tag_165\n      jump\t// in\n    tag_164:\n      mload(0x40)\n      dup1\n      swap2\n      sub\n      swap1\n      revert\n    tag_163:\n        /* \"submissions/Zora/Day26NFTMarketplace.sol\":5656:5664  listings */\n      0x04\n        /* \"submissions/Zora/Day26NFTMarketplace.sol\":5656:5676  listings[nftAddress] */\n      0x00\n        /* \"submissions/Zora/Day26NFTMarketplace.sol\":5665:5675  nftAddress */\n      dup5\n        /* \"submissions/Zora/Day26NFTMarketplace.sol\":5656:5676  listings[nftAddress] */\n      0xffffffffffffffffffffffffffffffffffffffff\n      and\n      0xffffffffffffffffffffffffffffffffffffffff\n      and\n      dup2\n      mstore\n      0x20\n      add\n      swap1\n      dup2\n      mstore\n      0x20\n      add\n      0x00\n      keccak256\n        /* \"submissions/Zora/Day26NFTMarketplace.sol\":5656:5685  listings[nftAddress][tokenId] */\n      0x00\n        /* \"submissions/Zora/Day26NFTMarketplace.sol\":5677:5684  tokenId */\n      dup4\n        /* \"submissions/Zora/Day26NFTMarketplace.sol\":5656:5685  listings[nftAddress][tokenId] */\n      dup2\n      mstore\n      0x20\n      add\n      swap1\n      dup2\n      mstore\n      0x20\n      add\n      0x00\n      keccak256\n      0x00\n        /* \"submissions/Zora/Day26NFTMarketplace.sol\":5649:5685  delete listings[nftAddress][tokenId] */\n      0x00\n      dup3\n      add\n      exp(0x0100, 0x00)\n      dup2\n      sload\n      swap1\n      0xffffffffffffffffffffffffffffffffffffffff\n      mul\n      not\n      and\n      swap1\n      sstore\n      0x01\n      dup3\n      add\n      exp(0x0100, 0x00)\n      dup2\n      sload\n      swap1\n      0xffffffffffffffffffffffffffffffffffffffff\n      mul\n      not\n      and\n      swap1\n      sstore\n      0x02\n      dup3\n      add\n      0x00\n      swap1\n      sstore\n      0x03\n      dup3\n      add\n      0x00\n      swap1\n      sstore\n      0x04\n      dup3\n      add\n      exp(0x0100, 0x00)\n      dup2\n      sload\n      swap1\n      0xffffffffffffffffffffffffffffffffffffffff\n      mul\n      not\n      and\n      swap1\n      sstore\n      0x05\n      dup3\n      add\n      0x00\n      swap1\n      sstore\n      0x06\n      dup3\n      add\n      exp(0x0100, 0x00)\n      dup2\n      sload\n      swap1\n      0xff\n      mul\n      not\n      and\n      swap1\n      sstore\n      pop\n      pop\n        /* \"submissions/Zora/Day26NFTMarketplace.sol\":5734:5741  tokenId */\n      dup2\n        /* \"submissions/Zora/Day26NFTMarketplace.sol\":5722:5732  nftAddress */\n      dup4\n        /* \"submissions/Zora/Day26NFTMarketplace.sol\":5701:5742  Unlisted(msg.sender, nftAddress, tokenId) */\n      0xffffffffffffffffffffffffffffffffffffffff\n      and\n        /* \"submissions/Zora/Day26NFTMarketplace.sol\":5710:5720  msg.sender */\n      caller\n        /* \"submissions/Zora/Day26NFTMarketplace.sol\":5701:5742  Unlisted(msg.sender, nftAddress, tokenId) */\n      0xffffffffffffffffffffffffffffffffffffffff\n      and\n      0x2ba1378929ab3521060adb4fd901d045748c412cddca72243659f6e757baa17d\n      mload(0x40)\n      mload(0x40)\n      dup1\n      swap2\n      sub\n      swap1\n      log4\n        /* \"submissions/Zora/Day26NFTMarketplace.sol\":5464:5750  {... */\n      pop\n        /* \"submissions/Zora/Day26NFTMarketplace.sol\":5395:5750  function cancelListing(address nftAddress, uint256 tokenId) external {... */\n      pop\n      pop\n      jump\t// out\n        /* \"submissions/Zora/Day26NFTMarketplace.sol\":2477:2727  function setFeeRecipient(address _newRecipient) external onlyOwner {... */\n    tag_70:\n        /* \"submissions/Zora/Day26NFTMarketplace.sol\":2125:2130  owner */\n      0x01\n      0x00\n      swap1\n      sload\n      swap1\n      0x0100\n      exp\n      swap1\n      div\n      0xffffffffffffffffffffffffffffffffffffffff\n      and\n        /* \"submissions/Zora/Day26NFTMarketplace.sol\":2111:2130  msg.sender == owner */\n      0xffffffffffffffffffffffffffffffffffffffff\n      and\n        /* \"submissions/Zora/Day26NFTMarketplace.sol\":2111:2121  msg.sender */\n      caller\n        /* \"submissions/Zora/Day26NFTMarketplace.sol\":2111:2130  msg.sender == owner */\n      0xffffffffffffffffffffffffffffffffffffffff\n      and\n      eq\n        /* \"submissions/Zora/Day26NFTMarketplace.sol\":2103:2145  require(msg.sender == owner, \"Only owner\") */\n      tag_167\n      jumpi\n      mload(0x40)\n      0x08c379a000000000000000000000000000000000000000000000000000000000\n      dup2\n      mstore\n      0x04\n      add\n      tag_168\n      swap1\n      tag_153\n      jump\t// in\n    tag_168:\n      mload(0x40)\n      dup1\n      swap2\n      sub\n      swap1\n      revert\n    tag_167:\n        /* \"submissions/Zora/Day26NFTMarketplace.sol\":2588:2589  0 */\n      0x00\n        /* \"submissions/Zora/Day26NFTMarketplace.sol\":2563:2590  _newRecipient != address(0) */\n      0xffffffffffffffffffffffffffffffffffffffff\n      and\n        /* \"submissions/Zora/Day26NFTMarketplace.sol\":2563:2576  _newRecipient */\n      dup2\n        /* \"submissions/Zora/Day26NFTMarketplace.sol\":2563:2590  _newRecipient != address(0) */\n      0xffffffffffffffffffffffffffffffffffffffff\n      and\n      sub\n        /* \"submissions/Zora/Day26NFTMarketplace.sol\":2555:2616  require(_newRecipient != address(0), \"Invalid fee recipient\") */\n      tag_170\n      jumpi\n      mload(0x40)\n      0x08c379a000000000000000000000000000000000000000000000000000000000\n      dup2\n      mstore\n      0x04\n      add\n      tag_171\n      swap1\n      tag_172\n      jump\t// in\n    tag_171:\n      mload(0x40)\n      dup1\n      swap2\n      sub\n      swap1\n      revert\n    tag_170:\n        /* \"submissions/Zora/Day26NFTMarketplace.sol\":2642:2655  _newRecipient */\n      dup1\n        /* \"submissions/Zora/Day26NFTMarketplace.sol\":2627:2639  feeRecipient */\n      0x03\n      0x00\n        /* \"submissions/Zora/Day26NFTMarketplace.sol\":2627:2655  feeRecipient = _newRecipient */\n      0x0100\n      exp\n      dup2\n      sload\n      dup2\n      0xffffffffffffffffffffffffffffffffffffffff\n      mul\n      not\n      and\n      swap1\n      dup4\n      0xffffffffffffffffffffffffffffffffffffffff\n      and\n      mul\n      or\n      swap1\n      sstore\n      pop\n        /* \"submissions/Zora/Day26NFTMarketplace.sol\":2671:2719  FeeUpdated(marketplaceFeePercent, _newRecipient) */\n      0x7cfad8b150be9751a5386cc4e0f549618032ff63d14fab4f77cd4b0aaaedc242\n        /* \"submissions/Zora/Day26NFTMarketplace.sol\":2682:2703  marketplaceFeePercent */\n      sload(0x02)\n        /* \"submissions/Zora/Day26NFTMarketplace.sol\":2705:2718  _newRecipient */\n      dup3\n        /* \"submissions/Zora/Day26NFTMarketplace.sol\":2671:2719  FeeUpdated(marketplaceFeePercent, _newRecipient) */\n      mload(0x40)\n      tag_173\n      swap3\n      swap2\n      swap1\n      tag_159\n      jump\t// in\n    tag_173:\n      mload(0x40)\n      dup1\n      swap2\n      sub\n      swap1\n      log1\n        /* \"submissions/Zora/Day26NFTMarketplace.sol\":2477:2727  function setFeeRecipient(address _newRecipient) external onlyOwner {... */\n      pop\n      jump\t// out\n        /* \"@openzeppelin/contracts/security/ReentrancyGuard.sol\":2336:2623  function _nonReentrantBefore() private {... */\n    tag_110:\n        /* \"@openzeppelin/contracts/security/ReentrancyGuard.sol\":1759:1760  2 */\n      0x02\n        /* \"@openzeppelin/contracts/security/ReentrancyGuard.sol\":2468:2475  _status */\n      sload(0x00)\n        /* \"@openzeppelin/contracts/security/ReentrancyGuard.sol\":2468:2487  _status != _ENTERED */\n      sub\n        /* \"@openzeppelin/contracts/security/ReentrancyGuard.sol\":2460:2523  require(_status != _ENTERED, \"ReentrancyGuard: reentrant call\") */\n      tag_175\n      jumpi\n      mload(0x40)\n      0x08c379a000000000000000000000000000000000000000000000000000000000\n      dup2\n      mstore\n      0x04\n      add\n      tag_176\n      swap1\n      tag_177\n      jump\t// in\n    tag_176:\n      mload(0x40)\n      dup1\n      swap2\n      sub\n      swap1\n      revert\n    tag_175:\n        /* \"@openzeppelin/contracts/security/ReentrancyGuard.sol\":1759:1760  2 */\n      0x02\n        /* \"@openzeppelin/contracts/security/ReentrancyGuard.sol\":2598:2605  _status */\n      0x00\n        /* \"@openzeppelin/contracts/security/ReentrancyGuard.sol\":2598:2616  _status = _ENTERED */\n      dup2\n      swap1\n      sstore\n      pop\n        /* \"@openzeppelin/contracts/security/ReentrancyGuard.sol\":2336:2623  function _nonReentrantBefore() private {... */\n      jump\t// out\n        /* \"@openzeppelin/contracts/security/ReentrancyGuard.sol\":2629:2838  function _nonReentrantAfter() private {... */\n    tag_149:\n        /* \"@openzeppelin/contracts/security/ReentrancyGuard.sol\":1716:1717  1 */\n      0x01\n        /* \"@openzeppelin/contracts/security/ReentrancyGuard.sol\":2809:2816  _status */\n      0x00\n        /* \"@openzeppelin/contracts/security/ReentrancyGuard.sol\":2809:2831  _status = _NOT_ENTERED */\n      dup2\n      swap1\n      sstore\n      pop\n        /* \"@openzeppelin/contracts/security/ReentrancyGuard.sol\":2629:2838  function _nonReentrantAfter() private {... */\n      jump\t// out\n    tag_106:\n      mload(0x40)\n      dup1\n      0xe0\n      add\n      0x40\n      mstore\n      dup1\n      and(0xffffffffffffffffffffffffffffffffffffffff, 0x00)\n      dup2\n      mstore\n      0x20\n      add\n      and(0xffffffffffffffffffffffffffffffffffffffff, 0x00)\n      dup2\n      mstore\n      0x20\n      add\n      0x00\n      dup2\n      mstore\n      0x20\n      add\n      0x00\n      dup2\n      mstore\n      0x20\n      add\n      and(0xffffffffffffffffffffffffffffffffffffffff, 0x00)\n      dup2\n      mstore\n      0x20\n      add\n      0x00\n      dup2\n      mstore\n      0x20\n      add\n      iszero(iszero(0x00))\n      dup2\n      mstore\n      pop\n      swap1\n      jump\t// out\n        /* \"#utility.yul\":7:176   */\n    tag_179:\n        /* \"#utility.yul\":91:102   */\n      0x00\n        /* \"#utility.yul\":125:131   */\n      dup3\n        /* \"#utility.yul\":120:123   */\n      dup3\n        /* \"#utility.yul\":113:132   */\n      mstore\n        /* \"#utility.yul\":165:169   */\n      0x20\n        /* \"#utility.yul\":160:163   */\n      dup3\n        /* \"#utility.yul\":156:170   */\n      add\n        /* \"#utility.yul\":141:170   */\n      swap1\n      pop\n        /* \"#utility.yul\":7:176   */\n      swap3\n      swap2\n      pop\n      pop\n      jump\t// out\n        /* \"#utility.yul\":182:355   */\n    tag_180:\n        /* \"#utility.yul\":322:347   */\n      0x44697265637420455448206e6f74206163636570746564000000000000000000\n        /* \"#utility.yul\":318:319   */\n      0x00\n        /* \"#utility.yul\":310:316   */\n      dup3\n        /* \"#utility.yul\":306:320   */\n      add\n        /* \"#utility.yul\":299:348   */\n      mstore\n        /* \"#utility.yul\":182:355   */\n      pop\n      jump\t// out\n        /* \"#utility.yul\":361:727   */\n    tag_181:\n        /* \"#utility.yul\":503:506   */\n      0x00\n        /* \"#utility.yul\":524:591   */\n      tag_237\n        /* \"#utility.yul\":588:590   */\n      0x17\n        /* \"#utility.yul\":583:586   */\n      dup4\n        /* \"#utility.yul\":524:591   */\n      tag_179\n      jump\t// in\n    tag_237:\n        /* \"#utility.yul\":517:591   */\n      swap2\n      pop\n        /* \"#utility.yul\":600:693   */\n      tag_238\n        /* \"#utility.yul\":689:692   */\n      dup3\n        /* \"#utility.yul\":600:693   */\n      tag_180\n      jump\t// in\n    tag_238:\n        /* \"#utility.yul\":718:720   */\n      0x20\n        /* \"#utility.yul\":713:716   */\n      dup3\n        /* \"#utility.yul\":709:721   */\n      add\n        /* \"#utility.yul\":702:721   */\n      swap1\n      pop\n        /* \"#utility.yul\":361:727   */\n      swap2\n      swap1\n      pop\n      jump\t// out\n        /* \"#utility.yul\":733:1152   */\n    tag_17:\n        /* \"#utility.yul\":899:903   */\n      0x00\n        /* \"#utility.yul\":937:939   */\n      0x20\n        /* \"#utility.yul\":926:935   */\n      dup3\n        /* \"#utility.yul\":922:940   */\n      add\n        /* \"#utility.yul\":914:940   */\n      swap1\n      pop\n        /* \"#utility.yul\":986:995   */\n      dup2\n        /* \"#utility.yul\":980:984   */\n      dup2\n        /* \"#utility.yul\":976:996   */\n      sub\n        /* \"#utility.yul\":972:973   */\n      0x00\n        /* \"#utility.yul\":961:970   */\n      dup4\n        /* \"#utility.yul\":957:974   */\n      add\n        /* \"#utility.yul\":950:997   */\n      mstore\n        /* \"#utility.yul\":1014:1145   */\n      tag_240\n        /* \"#utility.yul\":1140:1144   */\n      dup2\n        /* \"#utility.yul\":1014:1145   */\n      tag_181\n      jump\t// in\n    tag_240:\n        /* \"#utility.yul\":1006:1145   */\n      swap1\n      pop\n        /* \"#utility.yul\":733:1152   */\n      swap2\n      swap1\n      pop\n      jump\t// out\n        /* \"#utility.yul\":1158:1324   */\n    tag_182:\n        /* \"#utility.yul\":1298:1316   */\n      0x556e6b6e6f776e2066756e6374696f6e00000000000000000000000000000000\n        /* \"#utility.yul\":1294:1295   */\n      0x00\n        /* \"#utility.yul\":1286:1292   */\n      dup3\n        /* \"#utility.yul\":1282:1296   */\n      add\n        /* \"#utility.yul\":1275:1317   */\n      mstore\n        /* \"#utility.yul\":1158:1324   */\n      pop\n      jump\t// out\n        /* \"#utility.yul\":1330:1696   */\n    tag_183:\n        /* \"#utility.yul\":1472:1475   */\n      0x00\n        /* \"#utility.yul\":1493:1560   */\n      tag_243\n        /* \"#utility.yul\":1557:1559   */\n      0x10\n        /* \"#utility.yul\":1552:1555   */\n      dup4\n        /* \"#utility.yul\":1493:1560   */\n      tag_179\n      jump\t// in\n    tag_243:\n        /* \"#utility.yul\":1486:1560   */\n      swap2\n      pop\n        /* \"#utility.yul\":1569:1662   */\n      tag_244\n        /* \"#utility.yul\":1658:1661   */\n      dup3\n        /* \"#utility.yul\":1569:1662   */\n      tag_182\n      jump\t// in\n    tag_244:\n        /* \"#utility.yul\":1687:1689   */\n      0x20\n        /* \"#utility.yul\":1682:1685   */\n      dup3\n        /* \"#utility.yul\":1678:1690   */\n      add\n        /* \"#utility.yul\":1671:1690   */\n      swap1\n      pop\n        /* \"#utility.yul\":1330:1696   */\n      swap2\n      swap1\n      pop\n      jump\t// out\n        /* \"#utility.yul\":1702:2121   */\n    tag_21:\n        /* \"#utility.yul\":1868:1872   */\n      0x00\n        /* \"#utility.yul\":1906:1908   */\n      0x20\n        /* \"#utility.yul\":1895:1904   */\n      dup3\n        /* \"#utility.yul\":1891:1909   */\n      add\n        /* \"#utility.yul\":1883:1909   */\n      swap1\n      pop\n        /* \"#utility.yul\":1955:1964   */\n      dup2\n        /* \"#utility.yul\":1949:1953   */\n      dup2\n        /* \"#utility.yul\":1945:1965   */\n      sub\n        /* \"#utility.yul\":1941:1942   */\n      0x00\n        /* \"#utility.yul\":1930:1939   */\n      dup4\n        /* \"#utility.yul\":1926:1943   */\n      add\n        /* \"#utility.yul\":1919:1966   */\n      mstore\n        /* \"#utility.yul\":1983:2114   */\n      tag_246\n        /* \"#utility.yul\":2109:2113   */\n      dup2\n        /* \"#utility.yul\":1983:2114   */\n      tag_183\n      jump\t// in\n    tag_246:\n        /* \"#utility.yul\":1975:2114   */\n      swap1\n      pop\n        /* \"#utility.yul\":1702:2121   */\n      swap2\n      swap1\n      pop\n      jump\t// out\n        /* \"#utility.yul\":2208:2325   */\n    tag_185:\n        /* \"#utility.yul\":2317:2318   */\n      0x00\n        /* \"#utility.yul\":2314:2315   */\n      0x00\n        /* \"#utility.yul\":2307:2319   */\n      revert\n        /* \"#utility.yul\":2454:2580   */\n    tag_187:\n        /* \"#utility.yul\":2491:2498   */\n      0x00\n        /* \"#utility.yul\":2531:2573   */\n      0xffffffffffffffffffffffffffffffffffffffff\n        /* \"#utility.yul\":2524:2529   */\n      dup3\n        /* \"#utility.yul\":2520:2574   */\n      and\n        /* \"#utility.yul\":2509:2574   */\n      swap1\n      pop\n        /* \"#utility.yul\":2454:2580   */\n      swap2\n      swap1\n      pop\n      jump\t// out\n        /* \"#utility.yul\":2586:2682   */\n    tag_188:\n        /* \"#utility.yul\":2623:2630   */\n      0x00\n        /* \"#utility.yul\":2652:2676   */\n      tag_252\n        /* \"#utility.yul\":2670:2675   */\n      dup3\n        /* \"#utility.yul\":2652:2676   */\n      tag_187\n      jump\t// in\n    tag_252:\n        /* \"#utility.yul\":2641:2676   */\n      swap1\n      pop\n        /* \"#utility.yul\":2586:2682   */\n      swap2\n      swap1\n      pop\n      jump\t// out\n        /* \"#utility.yul\":2688:2810   */\n    tag_189:\n        /* \"#utility.yul\":2761:2785   */\n      tag_254\n        /* \"#utility.yul\":2779:2784   */\n      dup2\n        /* \"#utility.yul\":2761:2785   */\n      tag_188\n      jump\t// in\n    tag_254:\n        /* \"#utility.yul\":2754:2759   */\n      dup2\n        /* \"#utility.yul\":2751:2786   */\n      eq\n        /* \"#utility.yul\":2741:2804   */\n      tag_255\n      jumpi\n        /* \"#utility.yul\":2800:2801   */\n      0x00\n        /* \"#utility.yul\":2797:2798   */\n      0x00\n        /* \"#utility.yul\":2790:2802   */\n      revert\n        /* \"#utility.yul\":2741:2804   */\n    tag_255:\n        /* \"#utility.yul\":2688:2810   */\n      pop\n      jump\t// out\n        /* \"#utility.yul\":2816:2955   */\n    tag_190:\n        /* \"#utility.yul\":2862:2867   */\n      0x00\n        /* \"#utility.yul\":2900:2906   */\n      dup2\n        /* \"#utility.yul\":2887:2907   */\n      calldataload\n        /* \"#utility.yul\":2878:2907   */\n      swap1\n      pop\n        /* \"#utility.yul\":2916:2949   */\n      tag_257\n        /* \"#utility.yul\":2943:2948   */\n      dup2\n        /* \"#utility.yul\":2916:2949   */\n      tag_189\n      jump\t// in\n    tag_257:\n        /* \"#utility.yul\":2816:2955   */\n      swap3\n      swap2\n      pop\n      pop\n      jump\t// out\n        /* \"#utility.yul\":2961:3038   */\n    tag_191:\n        /* \"#utility.yul\":2998:3005   */\n      0x00\n        /* \"#utility.yul\":3027:3032   */\n      dup2\n        /* \"#utility.yul\":3016:3032   */\n      swap1\n      pop\n        /* \"#utility.yul\":2961:3038   */\n      swap2\n      swap1\n      pop\n      jump\t// out\n        /* \"#utility.yul\":3044:3166   */\n    tag_192:\n        /* \"#utility.yul\":3117:3141   */\n      tag_260\n        /* \"#utility.yul\":3135:3140   */\n      dup2\n        /* \"#utility.yul\":3117:3141   */\n      tag_191\n      jump\t// in\n    tag_260:\n        /* \"#utility.yul\":3110:3115   */\n      dup2\n        /* \"#utility.yul\":3107:3142   */\n      eq\n        /* \"#utility.yul\":3097:3160   */\n      tag_261\n      jumpi\n        /* \"#utility.yul\":3156:3157   */\n      0x00\n        /* \"#utility.yul\":3153:3154   */\n      0x00\n        /* \"#utility.yul\":3146:3158   */\n      revert\n        /* \"#utility.yul\":3097:3160   */\n    tag_261:\n        /* \"#utility.yul\":3044:3166   */\n      pop\n      jump\t// out\n        /* \"#utility.yul\":3172:3311   */\n    tag_193:\n        /* \"#utility.yul\":3218:3223   */\n      0x00\n        /* \"#utility.yul\":3256:3262   */\n      dup2\n        /* \"#utility.yul\":3243:3263   */\n      calldataload\n        /* \"#utility.yul\":3234:3263   */\n      swap1\n      pop\n        /* \"#utility.yul\":3272:3305   */\n      tag_263\n        /* \"#utility.yul\":3299:3304   */\n      dup2\n        /* \"#utility.yul\":3272:3305   */\n      tag_192\n      jump\t// in\n    tag_263:\n        /* \"#utility.yul\":3172:3311   */\n      swap3\n      swap2\n      pop\n      pop\n      jump\t// out\n        /* \"#utility.yul\":3317:3791   */\n    tag_25:\n        /* \"#utility.yul\":3385:3391   */\n      0x00\n        /* \"#utility.yul\":3393:3399   */\n      0x00\n        /* \"#utility.yul\":3442:3444   */\n      0x40\n        /* \"#utility.yul\":3430:3439   */\n      dup4\n        /* \"#utility.yul\":3421:3428   */\n      dup6\n        /* \"#utility.yul\":3417:3440   */\n      sub\n        /* \"#utility.yul\":3413:3445   */\n      slt\n        /* \"#utility.yul\":3410:3529   */\n      iszero\n      tag_265\n      jumpi\n        /* \"#utility.yul\":3448:3527   */\n      tag_266\n      tag_185\n      jump\t// in\n    tag_266:\n        /* \"#utility.yul\":3410:3529   */\n    tag_265:\n        /* \"#utility.yul\":3568:3569   */\n      0x00\n        /* \"#utility.yul\":3593:3646   */\n      tag_267\n        /* \"#utility.yul\":3638:3645   */\n      dup6\n        /* \"#utility.yul\":3629:3635   */\n      dup3\n        /* \"#utility.yul\":3618:3627   */\n      dup7\n        /* \"#utility.yul\":3614:3636   */\n      add\n        /* \"#utility.yul\":3593:3646   */\n      tag_190\n      jump\t// in\n    tag_267:\n        /* \"#utility.yul\":3583:3646   */\n      swap3\n      pop\n        /* \"#utility.yul\":3539:3656   */\n      pop\n        /* \"#utility.yul\":3695:3697   */\n      0x20\n        /* \"#utility.yul\":3721:3774   */\n      tag_268\n        /* \"#utility.yul\":3766:3773   */\n      dup6\n        /* \"#utility.yul\":3757:3763   */\n      dup3\n        /* \"#utility.yul\":3746:3755   */\n      dup7\n        /* \"#utility.yul\":3742:3764   */\n      add\n        /* \"#utility.yul\":3721:3774   */\n      tag_193\n      jump\t// in\n    tag_268:\n        /* \"#utility.yul\":3711:3774   */\n      swap2\n      pop\n        /* \"#utility.yul\":3666:3784   */\n      pop\n        /* \"#utility.yul\":3317:3791   */\n      swap3\n      pop\n      swap3\n      swap1\n      pop\n      jump\t// out\n        /* \"#utility.yul\":3797:3915   */\n    tag_194:\n        /* \"#utility.yul\":3884:3908   */\n      tag_270\n        /* \"#utility.yul\":3902:3907   */\n      dup2\n        /* \"#utility.yul\":3884:3908   */\n      tag_188\n      jump\t// in\n    tag_270:\n        /* \"#utility.yul\":3879:3882   */\n      dup3\n        /* \"#utility.yul\":3872:3909   */\n      mstore\n        /* \"#utility.yul\":3797:3915   */\n      pop\n      pop\n      jump\t// out\n        /* \"#utility.yul\":3921:4039   */\n    tag_195:\n        /* \"#utility.yul\":4008:4032   */\n      tag_272\n        /* \"#utility.yul\":4026:4031   */\n      dup2\n        /* \"#utility.yul\":4008:4032   */\n      tag_191\n      jump\t// in\n    tag_272:\n        /* \"#utility.yul\":4003:4006   */\n      dup3\n        /* \"#utility.yul\":3996:4033   */\n      mstore\n        /* \"#utility.yul\":3921:4039   */\n      pop\n      pop\n      jump\t// out\n        /* \"#utility.yul\":4045:4135   */\n    tag_196:\n        /* \"#utility.yul\":4079:4086   */\n      0x00\n        /* \"#utility.yul\":4122:4127   */\n      dup2\n        /* \"#utility.yul\":4115:4128   */\n      iszero\n        /* \"#utility.yul\":4108:4129   */\n      iszero\n        /* \"#utility.yul\":4097:4129   */\n      swap1\n      pop\n        /* \"#utility.yul\":4045:4135   */\n      swap2\n      swap1\n      pop\n      jump\t// out\n        /* \"#utility.yul\":4141:4250   */\n    tag_197:\n        /* \"#utility.yul\":4222:4243   */\n      tag_275\n        /* \"#utility.yul\":4237:4242   */\n      dup2\n        /* \"#utility.yul\":4222:4243   */\n      tag_196\n      jump\t// in\n    tag_275:\n        /* \"#utility.yul\":4217:4220   */\n      dup3\n        /* \"#utility.yul\":4210:4244   */\n      mstore\n        /* \"#utility.yul\":4141:4250   */\n      pop\n      pop\n      jump\t// out\n        /* \"#utility.yul\":4256:5130   */\n    tag_28:\n        /* \"#utility.yul\":4511:4515   */\n      0x00\n        /* \"#utility.yul\":4549:4552   */\n      0xe0\n        /* \"#utility.yul\":4538:4547   */\n      dup3\n        /* \"#utility.yul\":4534:4553   */\n      add\n        /* \"#utility.yul\":4526:4553   */\n      swap1\n      pop\n        /* \"#utility.yul\":4563:4634   */\n      tag_277\n        /* \"#utility.yul\":4631:4632   */\n      0x00\n        /* \"#utility.yul\":4620:4629   */\n      dup4\n        /* \"#utility.yul\":4616:4633   */\n      add\n        /* \"#utility.yul\":4607:4613   */\n      dup11\n        /* \"#utility.yul\":4563:4634   */\n      tag_194\n      jump\t// in\n    tag_277:\n        /* \"#utility.yul\":4644:4716   */\n      tag_278\n        /* \"#utility.yul\":4712:4714   */\n      0x20\n        /* \"#utility.yul\":4701:4710   */\n      dup4\n        /* \"#utility.yul\":4697:4715   */\n      add\n        /* \"#utility.yul\":4688:4694   */\n      dup10\n        /* \"#utility.yul\":4644:4716   */\n      tag_194\n      jump\t// in\n    tag_278:\n        /* \"#utility.yul\":4726:4798   */\n      tag_279\n        /* \"#utility.yul\":4794:4796   */\n      0x40\n        /* \"#utility.yul\":4783:4792   */\n      dup4\n        /* \"#utility.yul\":4779:4797   */\n      add\n        /* \"#utility.yul\":4770:4776   */\n      dup9\n        /* \"#utility.yul\":4726:4798   */\n      tag_195\n      jump\t// in\n    tag_279:\n        /* \"#utility.yul\":4808:4880   */\n      tag_280\n        /* \"#utility.yul\":4876:4878   */\n      0x60\n        /* \"#utility.yul\":4865:4874   */\n      dup4\n        /* \"#utility.yul\":4861:4879   */\n      add\n        /* \"#utility.yul\":4852:4858   */\n      dup8\n        /* \"#utility.yul\":4808:4880   */\n      tag_195\n      jump\t// in\n    tag_280:\n        /* \"#utility.yul\":4890:4963   */\n      tag_281\n        /* \"#utility.yul\":4958:4961   */\n      0x80\n        /* \"#utility.yul\":4947:4956   */\n      dup4\n        /* \"#utility.yul\":4943:4962   */\n      add\n        /* \"#utility.yul\":4934:4940   */\n      dup7\n        /* \"#utility.yul\":4890:4963   */\n      tag_194\n      jump\t// in\n    tag_281:\n        /* \"#utility.yul\":4973:5046   */\n      tag_282\n        /* \"#utility.yul\":5041:5044   */\n      0xa0\n        /* \"#utility.yul\":5030:5039   */\n      dup4\n        /* \"#utility.yul\":5026:5045   */\n      add\n        /* \"#utility.yul\":5017:5023   */\n      dup6\n        /* \"#utility.yul\":4973:5046   */\n      tag_195\n      jump\t// in\n    tag_282:\n        /* \"#utility.yul\":5056:5123   */\n      tag_283\n        /* \"#utility.yul\":5118:5121   */\n      0xc0\n        /* \"#utility.yul\":5107:5116   */\n      dup4\n        /* \"#utility.yul\":5103:5122   */\n      add\n        /* \"#utility.yul\":5094:5100   */\n      dup5\n        /* \"#utility.yul\":5056:5123   */\n      tag_197\n      jump\t// in\n    tag_283:\n        /* \"#utility.yul\":4256:5130   */\n      swap9\n      swap8\n      pop\n      pop\n      pop\n      pop\n      pop\n      pop\n      pop\n      pop\n      jump\t// out\n        /* \"#utility.yul\":5136:5358   */\n    tag_33:\n        /* \"#utility.yul\":5229:5233   */\n      0x00\n        /* \"#utility.yul\":5267:5269   */\n      0x20\n        /* \"#utility.yul\":5256:5265   */\n      dup3\n        /* \"#utility.yul\":5252:5270   */\n      add\n        /* \"#utility.yul\":5244:5270   */\n      swap1\n      pop\n        /* \"#utility.yul\":5280:5351   */\n      tag_285\n        /* \"#utility.yul\":5348:5349   */\n      0x00\n        /* \"#utility.yul\":5337:5346   */\n      dup4\n        /* \"#utility.yul\":5333:5350   */\n      add\n        /* \"#utility.yul\":5324:5330   */\n      dup5\n        /* \"#utility.yul\":5280:5351   */\n      tag_195\n      jump\t// in\n    tag_285:\n        /* \"#utility.yul\":5136:5358   */\n      swap3\n      swap2\n      pop\n      pop\n      jump\t// out\n        /* \"#utility.yul\":5364:5586   */\n    tag_38:\n        /* \"#utility.yul\":5457:5461   */\n      0x00\n        /* \"#utility.yul\":5495:5497   */\n      0x20\n        /* \"#utility.yul\":5484:5493   */\n      dup3\n        /* \"#utility.yul\":5480:5498   */\n      add\n        /* \"#utility.yul\":5472:5498   */\n      swap1\n      pop\n        /* \"#utility.yul\":5508:5579   */\n      tag_287\n        /* \"#utility.yul\":5576:5577   */\n      0x00\n        /* \"#utility.yul\":5565:5574   */\n      dup4\n        /* \"#utility.yul\":5561:5578   */\n      add\n        /* \"#utility.yul\":5552:5558   */\n      dup5\n        /* \"#utility.yul\":5508:5579   */\n      tag_194\n      jump\t// in\n    tag_287:\n        /* \"#utility.yul\":5364:5586   */\n      swap3\n      swap2\n      pop\n      pop\n      jump\t// out\n        /* \"#utility.yul\":5592:6503   */\n    tag_42:\n        /* \"#utility.yul\":5687:5693   */\n      0x00\n        /* \"#utility.yul\":5695:5701   */\n      0x00\n        /* \"#utility.yul\":5703:5709   */\n      0x00\n        /* \"#utility.yul\":5711:5717   */\n      0x00\n        /* \"#utility.yul\":5719:5725   */\n      0x00\n        /* \"#utility.yul\":5768:5771   */\n      0xa0\n        /* \"#utility.yul\":5756:5765   */\n      dup7\n        /* \"#utility.yul\":5747:5754   */\n      dup9\n        /* \"#utility.yul\":5743:5766   */\n      sub\n        /* \"#utility.yul\":5739:5772   */\n      slt\n        /* \"#utility.yul\":5736:5856   */\n      iszero\n      tag_289\n      jumpi\n        /* \"#utility.yul\":5775:5854   */\n      tag_290\n      tag_185\n      jump\t// in\n    tag_290:\n        /* \"#utility.yul\":5736:5856   */\n    tag_289:\n        /* \"#utility.yul\":5895:5896   */\n      0x00\n        /* \"#utility.yul\":5920:5973   */\n      tag_291\n        /* \"#utility.yul\":5965:5972   */\n      dup9\n        /* \"#utility.yul\":5956:5962   */\n      dup3\n        /* \"#utility.yul\":5945:5954   */\n      dup10\n        /* \"#utility.yul\":5941:5963   */\n      add\n        /* \"#utility.yul\":5920:5973   */\n      tag_190\n      jump\t// in\n    tag_291:\n        /* \"#utility.yul\":5910:5973   */\n      swap6\n      pop\n        /* \"#utility.yul\":5866:5983   */\n      pop\n        /* \"#utility.yul\":6022:6024   */\n      0x20\n        /* \"#utility.yul\":6048:6101   */\n      tag_292\n        /* \"#utility.yul\":6093:6100   */\n      dup9\n        /* \"#utility.yul\":6084:6090   */\n      dup3\n        /* \"#utility.yul\":6073:6082   */\n      dup10\n        /* \"#utility.yul\":6069:6091   */\n      add\n        /* \"#utility.yul\":6048:6101   */\n      tag_193\n      jump\t// in\n    tag_292:\n        /* \"#utility.yul\":6038:6101   */\n      swap5\n      pop\n        /* \"#utility.yul\":5993:6111   */\n      pop\n        /* \"#utility.yul\":6150:6152   */\n      0x40\n        /* \"#utility.yul\":6176:6229   */\n      tag_293\n        /* \"#utility.yul\":6221:6228   */\n      dup9\n        /* \"#utility.yul\":6212:6218   */\n      dup3\n        /* \"#utility.yul\":6201:6210   */\n      dup10\n        /* \"#utility.yul\":6197:6219   */\n      add\n        /* \"#utility.yul\":6176:6229   */\n      tag_193\n      jump\t// in\n    tag_293:\n        /* \"#utility.yul\":6166:6229   */\n      swap4\n      pop\n        /* \"#utility.yul\":6121:6239   */\n      pop\n        /* \"#utility.yul\":6278:6280   */\n      0x60\n        /* \"#utility.yul\":6304:6357   */\n      tag_294\n        /* \"#utility.yul\":6349:6356   */\n      dup9\n        /* \"#utility.yul\":6340:6346   */\n      dup3\n        /* \"#utility.yul\":6329:6338   */\n      dup10\n        /* \"#utility.yul\":6325:6347   */\n      add\n        /* \"#utility.yul\":6304:6357   */\n      tag_190\n      jump\t// in\n    tag_294:\n        /* \"#utility.yul\":6294:6357   */\n      swap3\n      pop\n        /* \"#utility.yul\":6249:6367   */\n      pop\n        /* \"#utility.yul\":6406:6409   */\n      0x80\n        /* \"#utility.yul\":6433:6486   */\n      tag_295\n        /* \"#utility.yul\":6478:6485   */\n      dup9\n        /* \"#utility.yul\":6469:6475   */\n      dup3\n        /* \"#utility.yul\":6458:6467   */\n      dup10\n        /* \"#utility.yul\":6454:6476   */\n      add\n        /* \"#utility.yul\":6433:6486   */\n      tag_193\n      jump\t// in\n    tag_295:\n        /* \"#utility.yul\":6423:6486   */\n      swap2\n      pop\n        /* \"#utility.yul\":6377:6496   */\n      pop\n        /* \"#utility.yul\":5592:6503   */\n      swap3\n      swap6\n      pop\n      swap3\n      swap6\n      swap1\n      swap4\n      pop\n      jump\t// out\n        /* \"#utility.yul\":6509:6617   */\n    tag_198:\n        /* \"#utility.yul\":6586:6610   */\n      tag_297\n        /* \"#utility.yul\":6604:6609   */\n      dup2\n        /* \"#utility.yul\":6586:6610   */\n      tag_188\n      jump\t// in\n    tag_297:\n        /* \"#utility.yul\":6581:6584   */\n      dup3\n        /* \"#utility.yul\":6574:6611   */\n      mstore\n        /* \"#utility.yul\":6509:6617   */\n      pop\n      pop\n      jump\t// out\n        /* \"#utility.yul\":6623:6731   */\n    tag_199:\n        /* \"#utility.yul\":6700:6724   */\n      tag_299\n        /* \"#utility.yul\":6718:6723   */\n      dup2\n        /* \"#utility.yul\":6700:6724   */\n      tag_191\n      jump\t// in\n    tag_299:\n        /* \"#utility.yul\":6695:6698   */\n      dup3\n        /* \"#utility.yul\":6688:6725   */\n      mstore\n        /* \"#utility.yul\":6623:6731   */\n      pop\n      pop\n      jump\t// out\n        /* \"#utility.yul\":6737:6836   */\n    tag_200:\n        /* \"#utility.yul\":6808:6829   */\n      tag_301\n        /* \"#utility.yul\":6823:6828   */\n      dup2\n        /* \"#utility.yul\":6808:6829   */\n      tag_196\n      jump\t// in\n    tag_301:\n        /* \"#utility.yul\":6803:6806   */\n      dup3\n        /* \"#utility.yul\":6796:6830   */\n      mstore\n        /* \"#utility.yul\":6737:6836   */\n      pop\n      pop\n      jump\t// out\n        /* \"#utility.yul\":6912:8318   */\n    tag_201:\n        /* \"#utility.yul\":7057:7061   */\n      0xe0\n        /* \"#utility.yul\":7052:7055   */\n      dup3\n        /* \"#utility.yul\":7048:7062   */\n      add\n        /* \"#utility.yul\":7146:7150   */\n      0x00\n        /* \"#utility.yul\":7139:7144   */\n      dup3\n        /* \"#utility.yul\":7135:7151   */\n      add\n        /* \"#utility.yul\":7129:7152   */\n      mload\n        /* \"#utility.yul\":7165:7228   */\n      tag_303\n        /* \"#utility.yul\":7222:7226   */\n      0x00\n        /* \"#utility.yul\":7217:7220   */\n      dup6\n        /* \"#utility.yul\":7213:7227   */\n      add\n        /* \"#utility.yul\":7199:7211   */\n      dup3\n        /* \"#utility.yul\":7165:7228   */\n      tag_198\n      jump\t// in\n    tag_303:\n        /* \"#utility.yul\":7072:7238   */\n      pop\n        /* \"#utility.yul\":7326:7330   */\n      0x20\n        /* \"#utility.yul\":7319:7324   */\n      dup3\n        /* \"#utility.yul\":7315:7331   */\n      add\n        /* \"#utility.yul\":7309:7332   */\n      mload\n        /* \"#utility.yul\":7345:7408   */\n      tag_304\n        /* \"#utility.yul\":7402:7406   */\n      0x20\n        /* \"#utility.yul\":7397:7400   */\n      dup6\n        /* \"#utility.yul\":7393:7407   */\n      add\n        /* \"#utility.yul\":7379:7391   */\n      dup3\n        /* \"#utility.yul\":7345:7408   */\n      tag_198\n      jump\t// in\n    tag_304:\n        /* \"#utility.yul\":7248:7418   */\n      pop\n        /* \"#utility.yul\":7503:7507   */\n      0x40\n        /* \"#utility.yul\":7496:7501   */\n      dup3\n        /* \"#utility.yul\":7492:7508   */\n      add\n        /* \"#utility.yul\":7486:7509   */\n      mload\n        /* \"#utility.yul\":7522:7585   */\n      tag_305\n        /* \"#utility.yul\":7579:7583   */\n      0x40\n        /* \"#utility.yul\":7574:7577   */\n      dup6\n        /* \"#utility.yul\":7570:7584   */\n      add\n        /* \"#utility.yul\":7556:7568   */\n      dup3\n        /* \"#utility.yul\":7522:7585   */\n      tag_199\n      jump\t// in\n    tag_305:\n        /* \"#utility.yul\":7428:7595   */\n      pop\n        /* \"#utility.yul\":7678:7682   */\n      0x60\n        /* \"#utility.yul\":7671:7676   */\n      dup3\n        /* \"#utility.yul\":7667:7683   */\n      add\n        /* \"#utility.yul\":7661:7684   */\n      mload\n        /* \"#utility.yul\":7697:7760   */\n      tag_306\n        /* \"#utility.yul\":7754:7758   */\n      0x60\n        /* \"#utility.yul\":7749:7752   */\n      dup6\n        /* \"#utility.yul\":7745:7759   */\n      add\n        /* \"#utility.yul\":7731:7743   */\n      dup3\n        /* \"#utility.yul\":7697:7760   */\n      tag_199\n      jump\t// in\n    tag_306:\n        /* \"#utility.yul\":7605:7770   */\n      pop\n        /* \"#utility.yul\":7863:7867   */\n      0x80\n        /* \"#utility.yul\":7856:7861   */\n      dup3\n        /* \"#utility.yul\":7852:7868   */\n      add\n        /* \"#utility.yul\":7846:7869   */\n      mload\n        /* \"#utility.yul\":7882:7945   */\n      tag_307\n        /* \"#utility.yul\":7939:7943   */\n      0x80\n        /* \"#utility.yul\":7934:7937   */\n      dup6\n        /* \"#utility.yul\":7930:7944   */\n      add\n        /* \"#utility.yul\":7916:7928   */\n      dup3\n        /* \"#utility.yul\":7882:7945   */\n      tag_198\n      jump\t// in\n    tag_307:\n        /* \"#utility.yul\":7780:7955   */\n      pop\n        /* \"#utility.yul\":8047:8051   */\n      0xa0\n        /* \"#utility.yul\":8040:8045   */\n      dup3\n        /* \"#utility.yul\":8036:8052   */\n      add\n        /* \"#utility.yul\":8030:8053   */\n      mload\n        /* \"#utility.yul\":8066:8129   */\n      tag_308\n        /* \"#utility.yul\":8123:8127   */\n      0xa0\n        /* \"#utility.yul\":8118:8121   */\n      dup6\n        /* \"#utility.yul\":8114:8128   */\n      add\n        /* \"#utility.yul\":8100:8112   */\n      dup3\n        /* \"#utility.yul\":8066:8129   */\n      tag_199\n      jump\t// in\n    tag_308:\n        /* \"#utility.yul\":7965:8139   */\n      pop\n        /* \"#utility.yul\":8225:8229   */\n      0xc0\n        /* \"#utility.yul\":8218:8223   */\n      dup3\n        /* \"#utility.yul\":8214:8230   */\n      add\n        /* \"#utility.yul\":8208:8231   */\n      mload\n        /* \"#utility.yul\":8244:8301   */\n      tag_309\n        /* \"#utility.yul\":8295:8299   */\n      0xc0\n        /* \"#utility.yul\":8290:8293   */\n      dup6\n        /* \"#utility.yul\":8286:8300   */\n      add\n        /* \"#utility.yul\":8272:8284   */\n      dup3\n        /* \"#utility.yul\":8244:8301   */\n      tag_200\n      jump\t// in\n    tag_309:\n        /* \"#utility.yul\":8149:8311   */\n      pop\n        /* \"#utility.yul\":7026:8318   */\n      pop\n        /* \"#utility.yul\":6912:8318   */\n      pop\n      pop\n      jump\t// out\n        /* \"#utility.yul\":8324:8643   */\n    tag_49:\n        /* \"#utility.yul\":8465:8469   */\n      0x00\n        /* \"#utility.yul\":8503:8506   */\n      0xe0\n        /* \"#utility.yul\":8492:8501   */\n      dup3\n        /* \"#utility.yul\":8488:8507   */\n      add\n        /* \"#utility.yul\":8480:8507   */\n      swap1\n      pop\n        /* \"#utility.yul\":8517:8636   */\n      tag_311\n        /* \"#utility.yul\":8633:8634   */\n      0x00\n        /* \"#utility.yul\":8622:8631   */\n      dup4\n        /* \"#utility.yul\":8618:8635   */\n      add\n        /* \"#utility.yul\":8609:8615   */\n      dup5\n        /* \"#utility.yul\":8517:8636   */\n      tag_201\n      jump\t// in\n    tag_311:\n        /* \"#utility.yul\":8324:8643   */\n      swap3\n      swap2\n      pop\n      pop\n      jump\t// out\n        /* \"#utility.yul\":8649:8978   */\n    tag_60:\n        /* \"#utility.yul\":8708:8714   */\n      0x00\n        /* \"#utility.yul\":8757:8759   */\n      0x20\n        /* \"#utility.yul\":8745:8754   */\n      dup3\n        /* \"#utility.yul\":8736:8743   */\n      dup5\n        /* \"#utility.yul\":8732:8755   */\n      sub\n        /* \"#utility.yul\":8728:8760   */\n      slt\n        /* \"#utility.yul\":8725:8844   */\n      iszero\n      tag_313\n      jumpi\n        /* \"#utility.yul\":8763:8842   */\n      tag_314\n      tag_185\n      jump\t// in\n    tag_314:\n        /* \"#utility.yul\":8725:8844   */\n    tag_313:\n        /* \"#utility.yul\":8883:8884   */\n      0x00\n        /* \"#utility.yul\":8908:8961   */\n      tag_315\n        /* \"#utility.yul\":8953:8960   */\n      dup5\n        /* \"#utility.yul\":8944:8950   */\n      dup3\n        /* \"#utility.yul\":8933:8942   */\n      dup6\n        /* \"#utility.yul\":8929:8951   */\n      add\n        /* \"#utility.yul\":8908:8961   */\n      tag_193\n      jump\t// in\n    tag_315:\n        /* \"#utility.yul\":8898:8961   */\n      swap2\n      pop\n        /* \"#utility.yul\":8854:8971   */\n      pop\n        /* \"#utility.yul\":8649:8978   */\n      swap3\n      swap2\n      pop\n      pop\n      jump\t// out\n        /* \"#utility.yul\":8984:9313   */\n    tag_69:\n        /* \"#utility.yul\":9043:9049   */\n      0x00\n        /* \"#utility.yul\":9092:9094   */\n      0x20\n        /* \"#utility.yul\":9080:9089   */\n      dup3\n        /* \"#utility.yul\":9071:9078   */\n      dup5\n        /* \"#utility.yul\":9067:9090   */\n      sub\n        /* \"#utility.yul\":9063:9095   */\n      slt\n        /* \"#utility.yul\":9060:9179   */\n      iszero\n      tag_317\n      jumpi\n        /* \"#utility.yul\":9098:9177   */\n      tag_318\n      tag_185\n      jump\t// in\n    tag_318:\n        /* \"#utility.yul\":9060:9179   */\n    tag_317:\n        /* \"#utility.yul\":9218:9219   */\n      0x00\n        /* \"#utility.yul\":9243:9296   */\n      tag_319\n        /* \"#utility.yul\":9288:9295   */\n      dup5\n        /* \"#utility.yul\":9279:9285   */\n      dup3\n        /* \"#utility.yul\":9268:9277   */\n      dup6\n        /* \"#utility.yul\":9264:9286   */\n      add\n        /* \"#utility.yul\":9243:9296   */\n      tag_190\n      jump\t// in\n    tag_319:\n        /* \"#utility.yul\":9233:9296   */\n      swap2\n      pop\n        /* \"#utility.yul\":9189:9306   */\n      pop\n        /* \"#utility.yul\":8984:9313   */\n      swap3\n      swap2\n      pop\n      pop\n      jump\t// out\n        /* \"#utility.yul\":9319:9493   */\n    tag_202:\n        /* \"#utility.yul\":9459:9485   */\n      0x5072696365206d7573742062652061626f7665207a65726f0000000000000000\n        /* \"#utility.yul\":9455:9456   */\n      0x00\n        /* \"#utility.yul\":9447:9453   */\n      dup3\n        /* \"#utility.yul\":9443:9457   */\n      add\n        /* \"#utility.yul\":9436:9486   */\n      mstore\n        /* \"#utility.yul\":9319:9493   */\n      pop\n      jump\t// out\n        /* \"#utility.yul\":9499:9865   */\n    tag_203:\n        /* \"#utility.yul\":9641:9644   */\n      0x00\n        /* \"#utility.yul\":9662:9729   */\n      tag_322\n        /* \"#utility.yul\":9726:9728   */\n      0x18\n        /* \"#utility.yul\":9721:9724   */\n      dup4\n        /* \"#utility.yul\":9662:9729   */\n      tag_179\n      jump\t// in\n    tag_322:\n        /* \"#utility.yul\":9655:9729   */\n      swap2\n      pop\n        /* \"#utility.yul\":9738:9831   */\n      tag_323\n        /* \"#utility.yul\":9827:9830   */\n      dup3\n        /* \"#utility.yul\":9738:9831   */\n      tag_202\n      jump\t// in\n    tag_323:\n        /* \"#utility.yul\":9856:9858   */\n      0x20\n        /* \"#utility.yul\":9851:9854   */\n      dup3\n        /* \"#utility.yul\":9847:9859   */\n      add\n        /* \"#utility.yul\":9840:9859   */\n      swap1\n      pop\n        /* \"#utility.yul\":9499:9865   */\n      swap2\n      swap1\n      pop\n      jump\t// out\n        /* \"#utility.yul\":9871:10290   */\n    tag_74:\n        /* \"#utility.yul\":10037:10041   */\n      0x00\n        /* \"#utility.yul\":10075:10077   */\n      0x20\n        /* \"#utility.yul\":10064:10073   */\n      dup3\n        /* \"#utility.yul\":10060:10078   */\n      add\n        /* \"#utility.yul\":10052:10078   */\n      swap1\n      pop\n        /* \"#utility.yul\":10124:10133   */\n      dup2\n        /* \"#utility.yul\":10118:10122   */\n      dup2\n        /* \"#utility.yul\":10114:10134   */\n      sub\n        /* \"#utility.yul\":10110:10111   */\n      0x00\n        /* \"#utility.yul\":10099:10108   */\n      dup4\n        /* \"#utility.yul\":10095:10112   */\n      add\n        /* \"#utility.yul\":10088:10135   */\n      mstore\n        /* \"#utility.yul\":10152:10283   */\n      tag_325\n        /* \"#utility.yul\":10278:10282   */\n      dup2\n        /* \"#utility.yul\":10152:10283   */\n      tag_203\n      jump\t// in\n    tag_325:\n        /* \"#utility.yul\":10144:10283   */\n      swap1\n      pop\n        /* \"#utility.yul\":9871:10290   */\n      swap2\n      swap1\n      pop\n      jump\t// out\n        /* \"#utility.yul\":10296:10469   */\n    tag_204:\n        /* \"#utility.yul\":10436:10461   */\n      0x4d61782031302520726f79616c747920616c6c6f776564000000000000000000\n        /* \"#utility.yul\":10432:10433   */\n      0x00\n        /* \"#utility.yul\":10424:10430   */\n      dup3\n        /* \"#utility.yul\":10420:10434   */\n      add\n        /* \"#utility.yul\":10413:10462   */\n      mstore\n        /* \"#utility.yul\":10296:10469   */\n      pop\n      jump\t// out\n        /* \"#utility.yul\":10475:10841   */\n    tag_205:\n        /* \"#utility.yul\":10617:10620   */\n      0x00\n        /* \"#utility.yul\":10638:10705   */\n      tag_328\n        /* \"#utility.yul\":10702:10704   */\n      0x17\n        /* \"#utility.yul\":10697:10700   */\n      dup4\n        /* \"#utility.yul\":10638:10705   */\n      tag_179\n      jump\t// in\n    tag_328:\n        /* \"#utility.yul\":10631:10705   */\n      swap2\n      pop\n        /* \"#utility.yul\":10714:10807   */\n      tag_329\n        /* \"#utility.yul\":10803:10806   */\n      dup3\n        /* \"#utility.yul\":10714:10807   */\n      tag_204\n      jump\t// in\n    tag_329:\n        /* \"#utility.yul\":10832:10834   */\n      0x20\n        /* \"#utility.yul\":10827:10830   */\n      dup3\n        /* \"#utility.yul\":10823:10835   */\n      add\n        /* \"#utility.yul\":10816:10835   */\n      swap1\n      pop\n        /* \"#utility.yul\":10475:10841   */\n      swap2\n      swap1\n      pop\n      jump\t// out\n        /* \"#utility.yul\":10847:11266   */\n    tag_77:\n        /* \"#utility.yul\":11013:11017   */\n      0x00\n        /* \"#utility.yul\":11051:11053   */\n      0x20\n        /* \"#utility.yul\":11040:11049   */\n      dup3\n        /* \"#utility.yul\":11036:11054   */\n      add\n        /* \"#utility.yul\":11028:11054   */\n      swap1\n      pop\n        /* \"#utility.yul\":11100:11109   */\n      dup2\n        /* \"#utility.yul\":11094:11098   */\n      dup2\n        /* \"#utility.yul\":11090:11110   */\n      sub\n        /* \"#utility.yul\":11086:11087   */\n      0x00\n        /* \"#utility.yul\":11075:11084   */\n      dup4\n        /* \"#utility.yul\":11071:11088   */\n      add\n        /* \"#utility.yul\":11064:11111   */\n      mstore\n        /* \"#utility.yul\":11128:11259   */\n      tag_331\n        /* \"#utility.yul\":11254:11258   */\n      dup2\n        /* \"#utility.yul\":11128:11259   */\n      tag_205\n      jump\t// in\n    tag_331:\n        /* \"#utility.yul\":11120:11259   */\n      swap1\n      pop\n        /* \"#utility.yul\":10847:11266   */\n      swap2\n      swap1\n      pop\n      jump\t// out\n        /* \"#utility.yul\":11272:11436   */\n    tag_206:\n        /* \"#utility.yul\":11412:11428   */\n      0x416c7265616479206c6973746564000000000000000000000000000000000000\n        /* \"#utility.yul\":11408:11409   */\n      0x00\n        /* \"#utility.yul\":11400:11406   */\n      dup3\n        /* \"#utility.yul\":11396:11410   */\n      add\n        /* \"#utility.yul\":11389:11429   */\n      mstore\n        /* \"#utility.yul\":11272:11436   */\n      pop\n      jump\t// out\n        /* \"#utility.yul\":11442:11808   */\n    tag_207:\n        /* \"#utility.yul\":11584:11587   */\n      0x00\n        /* \"#utility.yul\":11605:11672   */\n      tag_334\n        /* \"#utility.yul\":11669:11671   */\n      0x0e\n        /* \"#utility.yul\":11664:11667   */\n      dup4\n        /* \"#utility.yul\":11605:11672   */\n      tag_179\n      jump\t// in\n    tag_334:\n        /* \"#utility.yul\":11598:11672   */\n      swap2\n      pop\n        /* \"#utility.yul\":11681:11774   */\n      tag_335\n        /* \"#utility.yul\":11770:11773   */\n      dup3\n        /* \"#utility.yul\":11681:11774   */\n      tag_206\n      jump\t// in\n    tag_335:\n        /* \"#utility.yul\":11799:11801   */\n      0x20\n        /* \"#utility.yul\":11794:11797   */\n      dup3\n        /* \"#utility.yul\":11790:11802   */\n      add\n        /* \"#utility.yul\":11783:11802   */\n      swap1\n      pop\n        /* \"#utility.yul\":11442:11808   */\n      swap2\n      swap1\n      pop\n      jump\t// out\n        /* \"#utility.yul\":11814:12233   */\n    tag_80:\n        /* \"#utility.yul\":11980:11984   */\n      0x00\n        /* \"#utility.yul\":12018:12020   */\n      0x20\n        /* \"#utility.yul\":12007:12016   */\n      dup3\n        /* \"#utility.yul\":12003:12021   */\n      add\n        /* \"#utility.yul\":11995:12021   */\n      swap1\n      pop\n        /* \"#utility.yul\":12067:12076   */\n      dup2\n        /* \"#utility.yul\":12061:12065   */\n      dup2\n        /* \"#utility.yul\":12057:12077   */\n      sub\n        /* \"#utility.yul\":12053:12054   */\n      0x00\n        /* \"#utility.yul\":12042:12051   */\n      dup4\n        /* \"#utility.yul\":12038:12055   */\n      add\n        /* \"#utility.yul\":12031:12078   */\n      mstore\n        /* \"#utility.yul\":12095:12226   */\n      tag_337\n        /* \"#utility.yul\":12221:12225   */\n      dup2\n        /* \"#utility.yul\":12095:12226   */\n      tag_207\n      jump\t// in\n    tag_337:\n        /* \"#utility.yul\":12087:12226   */\n      swap1\n      pop\n        /* \"#utility.yul\":11814:12233   */\n      swap2\n      swap1\n      pop\n      jump\t// out\n        /* \"#utility.yul\":12239:12382   */\n    tag_208:\n        /* \"#utility.yul\":12296:12301   */\n      0x00\n        /* \"#utility.yul\":12327:12333   */\n      dup2\n        /* \"#utility.yul\":12321:12334   */\n      mload\n        /* \"#utility.yul\":12312:12334   */\n      swap1\n      pop\n        /* \"#utility.yul\":12343:12376   */\n      tag_339\n        /* \"#utility.yul\":12370:12375   */\n      dup2\n        /* \"#utility.yul\":12343:12376   */\n      tag_189\n      jump\t// in\n    tag_339:\n        /* \"#utility.yul\":12239:12382   */\n      swap3\n      swap2\n      pop\n      pop\n      jump\t// out\n        /* \"#utility.yul\":12388:12739   */\n    tag_85:\n        /* \"#utility.yul\":12458:12464   */\n      0x00\n        /* \"#utility.yul\":12507:12509   */\n      0x20\n        /* \"#utility.yul\":12495:12504   */\n      dup3\n        /* \"#utility.yul\":12486:12493   */\n      dup5\n        /* \"#utility.yul\":12482:12505   */\n      sub\n        /* \"#utility.yul\":12478:12510   */\n      slt\n        /* \"#utility.yul\":12475:12594   */\n      iszero\n      tag_341\n      jumpi\n        /* \"#utility.yul\":12513:12592   */\n      tag_342\n      tag_185\n      jump\t// in\n    tag_342:\n        /* \"#utility.yul\":12475:12594   */\n    tag_341:\n        /* \"#utility.yul\":12633:12634   */\n      0x00\n        /* \"#utility.yul\":12658:12722   */\n      tag_343\n        /* \"#utility.yul\":12714:12721   */\n      dup5\n        /* \"#utility.yul\":12705:12711   */\n      dup3\n        /* \"#utility.yul\":12694:12703   */\n      dup6\n        /* \"#utility.yul\":12690:12712   */\n      add\n        /* \"#utility.yul\":12658:12722   */\n      tag_208\n      jump\t// in\n    tag_343:\n        /* \"#utility.yul\":12648:12722   */\n      swap2\n      pop\n        /* \"#utility.yul\":12604:12732   */\n      pop\n        /* \"#utility.yul\":12388:12739   */\n      swap3\n      swap2\n      pop\n      pop\n      jump\t// out\n        /* \"#utility.yul\":12745:12908   */\n    tag_209:\n        /* \"#utility.yul\":12885:12900   */\n      0x4e6f7420746865206f776e657200000000000000000000000000000000000000\n        /* \"#utility.yul\":12881:12882   */\n      0x00\n        /* \"#utility.yul\":12873:12879   */\n      dup3\n        /* \"#utility.yul\":12869:12883   */\n      add\n        /* \"#utility.yul\":12862:12901   */\n      mstore\n        /* \"#utility.yul\":12745:12908   */\n      pop\n      jump\t// out\n        /* \"#utility.yul\":12914:13280   */\n    tag_210:\n        /* \"#utility.yul\":13056:13059   */\n      0x00\n        /* \"#utility.yul\":13077:13144   */\n      tag_346\n        /* \"#utility.yul\":13141:13143   */\n      0x0d\n        /* \"#utility.yul\":13136:13139   */\n      dup4\n        /* \"#utility.yul\":13077:13144   */\n      tag_179\n      jump\t// in\n    tag_346:\n        /* \"#utility.yul\":13070:13144   */\n      swap2\n      pop\n        /* \"#utility.yul\":13153:13246   */\n      tag_347\n        /* \"#utility.yul\":13242:13245   */\n      dup3\n        /* \"#utility.yul\":13153:13246   */\n      tag_209\n      jump\t// in\n    tag_347:\n        /* \"#utility.yul\":13271:13273   */\n      0x20\n        /* \"#utility.yul\":13266:13269   */\n      dup3\n        /* \"#utility.yul\":13262:13274   */\n      add\n        /* \"#utility.yul\":13255:13274   */\n      swap1\n      pop\n        /* \"#utility.yul\":12914:13280   */\n      swap2\n      swap1\n      pop\n      jump\t// out\n        /* \"#utility.yul\":13286:13705   */\n    tag_88:\n        /* \"#utility.yul\":13452:13456   */\n      0x00\n        /* \"#utility.yul\":13490:13492   */\n      0x20\n        /* \"#utility.yul\":13479:13488   */\n      dup3\n        /* \"#utility.yul\":13475:13493   */\n      add\n        /* \"#utility.yul\":13467:13493   */\n      swap1\n      pop\n        /* \"#utility.yul\":13539:13548   */\n      dup2\n        /* \"#utility.yul\":13533:13537   */\n      dup2\n        /* \"#utility.yul\":13529:13549   */\n      sub\n        /* \"#utility.yul\":13525:13526   */\n      0x00\n        /* \"#utility.yul\":13514:13523   */\n      dup4\n        /* \"#utility.yul\":13510:13527   */\n      add\n        /* \"#utility.yul\":13503:13550   */\n      mstore\n        /* \"#utility.yul\":13567:13698   */\n      tag_349\n        /* \"#utility.yul\":13693:13697   */\n      dup2\n        /* \"#utility.yul\":13567:13698   */\n      tag_210\n      jump\t// in\n    tag_349:\n        /* \"#utility.yul\":13559:13698   */\n      swap1\n      pop\n        /* \"#utility.yul\":13286:13705   */\n      swap2\n      swap1\n      pop\n      jump\t// out\n        /* \"#utility.yul\":13711:14043   */\n    tag_95:\n        /* \"#utility.yul\":13832:13836   */\n      0x00\n        /* \"#utility.yul\":13870:13872   */\n      0x40\n        /* \"#utility.yul\":13859:13868   */\n      dup3\n        /* \"#utility.yul\":13855:13873   */\n      add\n        /* \"#utility.yul\":13847:13873   */\n      swap1\n      pop\n        /* \"#utility.yul\":13883:13954   */\n      tag_351\n        /* \"#utility.yul\":13951:13952   */\n      0x00\n        /* \"#utility.yul\":13940:13949   */\n      dup4\n        /* \"#utility.yul\":13936:13953   */\n      add\n        /* \"#utility.yul\":13927:13933   */\n      dup6\n        /* \"#utility.yul\":13883:13954   */\n      tag_194\n      jump\t// in\n    tag_351:\n        /* \"#utility.yul\":13964:14036   */\n      tag_352\n        /* \"#utility.yul\":14032:14034   */\n      0x20\n        /* \"#utility.yul\":14021:14030   */\n      dup4\n        /* \"#utility.yul\":14017:14035   */\n      add\n        /* \"#utility.yul\":14008:14014   */\n      dup5\n        /* \"#utility.yul\":13964:14036   */\n      tag_194\n      jump\t// in\n    tag_352:\n        /* \"#utility.yul\":13711:14043   */\n      swap4\n      swap3\n      pop\n      pop\n      pop\n      jump\t// out\n        /* \"#utility.yul\":14049:14165   */\n    tag_211:\n        /* \"#utility.yul\":14119:14140   */\n      tag_354\n        /* \"#utility.yul\":14134:14139   */\n      dup2\n        /* \"#utility.yul\":14119:14140   */\n      tag_196\n      jump\t// in\n    tag_354:\n        /* \"#utility.yul\":14112:14117   */\n      dup2\n        /* \"#utility.yul\":14109:14141   */\n      eq\n        /* \"#utility.yul\":14099:14159   */\n      tag_355\n      jumpi\n        /* \"#utility.yul\":14155:14156   */\n      0x00\n        /* \"#utility.yul\":14152:14153   */\n      0x00\n        /* \"#utility.yul\":14145:14157   */\n      revert\n        /* \"#utility.yul\":14099:14159   */\n    tag_355:\n        /* \"#utility.yul\":14049:14165   */\n      pop\n      jump\t// out\n        /* \"#utility.yul\":14171:14308   */\n    tag_212:\n        /* \"#utility.yul\":14225:14230   */\n      0x00\n        /* \"#utility.yul\":14256:14262   */\n      dup2\n        /* \"#utility.yul\":14250:14263   */\n      mload\n        /* \"#utility.yul\":14241:14263   */\n      swap1\n      pop\n        /* \"#utility.yul\":14272:14302   */\n      tag_357\n        /* \"#utility.yul\":14296:14301   */\n      dup2\n        /* \"#utility.yul\":14272:14302   */\n      tag_211\n      jump\t// in\n    tag_357:\n        /* \"#utility.yul\":14171:14308   */\n      swap3\n      swap2\n      pop\n      pop\n      jump\t// out\n        /* \"#utility.yul\":14314:14659   */\n    tag_99:\n        /* \"#utility.yul\":14381:14387   */\n      0x00\n        /* \"#utility.yul\":14430:14432   */\n      0x20\n        /* \"#utility.yul\":14418:14427   */\n      dup3\n        /* \"#utility.yul\":14409:14416   */\n      dup5\n        /* \"#utility.yul\":14405:14428   */\n      sub\n        /* \"#utility.yul\":14401:14433   */\n      slt\n        /* \"#utility.yul\":14398:14517   */\n      iszero\n      tag_359\n      jumpi\n        /* \"#utility.yul\":14436:14515   */\n      tag_360\n      tag_185\n      jump\t// in\n    tag_360:\n        /* \"#utility.yul\":14398:14517   */\n    tag_359:\n        /* \"#utility.yul\":14556:14557   */\n      0x00\n        /* \"#utility.yul\":14581:14642   */\n      tag_361\n        /* \"#utility.yul\":14634:14641   */\n      dup5\n        /* \"#utility.yul\":14625:14631   */\n      dup3\n        /* \"#utility.yul\":14614:14623   */\n      dup6\n        /* \"#utility.yul\":14610:14632   */\n      add\n        /* \"#utility.yul\":14581:14642   */\n      tag_212\n      jump\t// in\n    tag_361:\n        /* \"#utility.yul\":14571:14642   */\n      swap2\n      pop\n        /* \"#utility.yul\":14527:14652   */\n      pop\n        /* \"#utility.yul\":14314:14659   */\n      swap3\n      swap2\n      pop\n      pop\n      jump\t// out\n        /* \"#utility.yul\":14665:14839   */\n    tag_213:\n        /* \"#utility.yul\":14805:14831   */\n      0x4d61726b6574706c616365206e6f7420617070726f7665640000000000000000\n        /* \"#utility.yul\":14801:14802   */\n      0x00\n        /* \"#utility.yul\":14793:14799   */\n      dup3\n        /* \"#utility.yul\":14789:14803   */\n      add\n        /* \"#utility.yul\":14782:14832   */\n      mstore\n        /* \"#utility.yul\":14665:14839   */\n      pop\n      jump\t// out\n        /* \"#utility.yul\":14845:15211   */\n    tag_214:\n        /* \"#utility.yul\":14987:14990   */\n      0x00\n        /* \"#utility.yul\":15008:15075   */\n      tag_364\n        /* \"#utility.yul\":15072:15074   */\n      0x18\n        /* \"#utility.yul\":15067:15070   */\n      dup4\n        /* \"#utility.yul\":15008:15075   */\n      tag_179\n      jump\t// in\n    tag_364:\n        /* \"#utility.yul\":15001:15075   */\n      swap2\n      pop\n        /* \"#utility.yul\":15084:15177   */\n      tag_365\n        /* \"#utility.yul\":15173:15176   */\n      dup3\n        /* \"#utility.yul\":15084:15177   */\n      tag_213\n      jump\t// in\n    tag_365:\n        /* \"#utility.yul\":15202:15204   */\n      0x20\n        /* \"#utility.yul\":15197:15200   */\n      dup3\n        /* \"#utility.yul\":15193:15205   */\n      add\n        /* \"#utility.yul\":15186:15205   */\n      swap1\n      pop\n        /* \"#utility.yul\":14845:15211   */\n      swap2\n      swap1\n      pop\n      jump\t// out\n        /* \"#utility.yul\":15217:15636   */\n    tag_102:\n        /* \"#utility.yul\":15383:15387   */\n      0x00\n        /* \"#utility.yul\":15421:15423   */\n      0x20\n        /* \"#utility.yul\":15410:15419   */\n      dup3\n        /* \"#utility.yul\":15406:15424   */\n      add\n        /* \"#utility.yul\":15398:15424   */\n      swap1\n      pop\n        /* \"#utility.yul\":15470:15479   */\n      dup2\n        /* \"#utility.yul\":15464:15468   */\n      dup2\n        /* \"#utility.yul\":15460:15480   */\n      sub\n        /* \"#utility.yul\":15456:15457   */\n      0x00\n        /* \"#utility.yul\":15445:15454   */\n      dup4\n        /* \"#utility.yul\":15441:15458   */\n      add\n        /* \"#utility.yul\":15434:15481   */\n      mstore\n        /* \"#utility.yul\":15498:15629   */\n      tag_367\n        /* \"#utility.yul\":15624:15628   */\n      dup2\n        /* \"#utility.yul\":15498:15629   */\n      tag_214\n      jump\t// in\n    tag_367:\n        /* \"#utility.yul\":15490:15629   */\n      swap1\n      pop\n        /* \"#utility.yul\":15217:15636   */\n      swap2\n      swap1\n      pop\n      jump\t// out\n        /* \"#utility.yul\":15642:16084   */\n    tag_104:\n        /* \"#utility.yul\":15791:15795   */\n      0x00\n        /* \"#utility.yul\":15829:15831   */\n      0x60\n        /* \"#utility.yul\":15818:15827   */\n      dup3\n        /* \"#utility.yul\":15814:15832   */\n      add\n        /* \"#utility.yul\":15806:15832   */\n      swap1\n      pop\n        /* \"#utility.yul\":15842:15913   */\n      tag_369\n        /* \"#utility.yul\":15910:15911   */\n      0x00\n        /* \"#utility.yul\":15899:15908   */\n      dup4\n        /* \"#utility.yul\":15895:15912   */\n      add\n        /* \"#utility.yul\":15886:15892   */\n      dup7\n        /* \"#utility.yul\":15842:15913   */\n      tag_195\n      jump\t// in\n    tag_369:\n        /* \"#utility.yul\":15923:15995   */\n      tag_370\n        /* \"#utility.yul\":15991:15993   */\n      0x20\n        /* \"#utility.yul\":15980:15989   */\n      dup4\n        /* \"#utility.yul\":15976:15994   */\n      add\n        /* \"#utility.yul\":15967:15973   */\n      dup6\n        /* \"#utility.yul\":15923:15995   */\n      tag_194\n      jump\t// in\n    tag_370:\n        /* \"#utility.yul\":16005:16077   */\n      tag_371\n        /* \"#utility.yul\":16073:16075   */\n      0x40\n        /* \"#utility.yul\":16062:16071   */\n      dup4\n        /* \"#utility.yul\":16058:16076   */\n      add\n        /* \"#utility.yul\":16049:16055   */\n      dup5\n        /* \"#utility.yul\":16005:16077   */\n      tag_195\n      jump\t// in\n    tag_371:\n        /* \"#utility.yul\":15642:16084   */\n      swap5\n      swap4\n      pop\n      pop\n      pop\n      pop\n      jump\t// out\n        /* \"#utility.yul\":16090:16250   */\n    tag_215:\n        /* \"#utility.yul\":16230:16242   */\n      0x4e6f74206c697374656400000000000000000000000000000000000000000000\n        /* \"#utility.yul\":16226:16227   */\n      0x00\n        /* \"#utility.yul\":16218:16224   */\n      dup3\n        /* \"#utility.yul\":16214:16228   */\n      add\n        /* \"#utility.yul\":16207:16243   */\n      mstore\n        /* \"#utility.yul\":16090:16250   */\n      pop\n      jump\t// out\n        /* \"#utility.yul\":16256:16622   */\n    tag_216:\n        /* \"#utility.yul\":16398:16401   */\n      0x00\n        /* \"#utility.yul\":16419:16486   */\n      tag_374\n        /* \"#utility.yul\":16483:16485   */\n      0x0a\n        /* \"#utility.yul\":16478:16481   */\n      dup4\n        /* \"#utility.yul\":16419:16486   */\n      tag_179\n      jump\t// in\n    tag_374:\n        /* \"#utility.yul\":16412:16486   */\n      swap2\n      pop\n        /* \"#utility.yul\":16495:16588   */\n      tag_375\n        /* \"#utility.yul\":16584:16587   */\n      dup3\n        /* \"#utility.yul\":16495:16588   */\n      tag_215\n      jump\t// in\n    tag_375:\n        /* \"#utility.yul\":16613:16615   */\n      0x20\n        /* \"#utility.yul\":16608:16611   */\n      dup3\n        /* \"#utility.yul\":16604:16616   */\n      add\n        /* \"#utility.yul\":16597:16616   */\n      swap1\n      pop\n        /* \"#utility.yul\":16256:16622   */\n      swap2\n      swap1\n      pop\n      jump\t// out\n        /* \"#utility.yul\":16628:17047   */\n    tag_114:\n        /* \"#utility.yul\":16794:16798   */\n      0x00\n        /* \"#utility.yul\":16832:16834   */\n      0x20\n        /* \"#utility.yul\":16821:16830   */\n      dup3\n        /* \"#utility.yul\":16817:16835   */\n      add\n        /* \"#utility.yul\":16809:16835   */\n      swap1\n      pop\n        /* \"#utility.yul\":16881:16890   */\n      dup2\n        /* \"#utility.yul\":16875:16879   */\n      dup2\n        /* \"#utility.yul\":16871:16891   */\n      sub\n        /* \"#utility.yul\":16867:16868   */\n      0x00\n        /* \"#utility.yul\":16856:16865   */\n      dup4\n        /* \"#utility.yul\":16852:16869   */\n      add\n        /* \"#utility.yul\":16845:16892   */\n      mstore\n        /* \"#utility.yul\":16909:17040   */\n      tag_377\n        /* \"#utility.yul\":17035:17039   */\n      dup2\n        /* \"#utility.yul\":16909:17040   */\n      tag_216\n      jump\t// in\n    tag_377:\n        /* \"#utility.yul\":16901:17040   */\n      swap1\n      pop\n        /* \"#utility.yul\":16628:17047   */\n      swap2\n      swap1\n      pop\n      jump\t// out\n        /* \"#utility.yul\":17053:17221   */\n    tag_217:\n        /* \"#utility.yul\":17193:17213   */\n      0x496e636f7272656374204554482073656e740000000000000000000000000000\n        /* \"#utility.yul\":17189:17190   */\n      0x00\n        /* \"#utility.yul\":17181:17187   */\n      dup3\n        /* \"#utility.yul\":17177:17191   */\n      add\n        /* \"#utility.yul\":17170:17214   */\n      mstore\n        /* \"#utility.yul\":17053:17221   */\n      pop\n      jump\t// out\n        /* \"#utility.yul\":17227:17593   */\n    tag_218:\n        /* \"#utility.yul\":17369:17372   */\n      0x00\n        /* \"#utility.yul\":17390:17457   */\n      tag_380\n        /* \"#utility.yul\":17454:17456   */\n      0x12\n        /* \"#utility.yul\":17449:17452   */\n      dup4\n        /* \"#utility.yul\":17390:17457   */\n      tag_179\n      jump\t// in\n    tag_380:\n        /* \"#utility.yul\":17383:17457   */\n      swap2\n      pop\n        /* \"#utility.yul\":17466:17559   */\n      tag_381\n        /* \"#utility.yul\":17555:17558   */\n      dup3\n        /* \"#utility.yul\":17466:17559   */\n      tag_217\n      jump\t// in\n    tag_381:\n        /* \"#utility.yul\":17584:17586   */\n      0x20\n        /* \"#utility.yul\":17579:17582   */\n      dup3\n        /* \"#utility.yul\":17575:17587   */\n      add\n        /* \"#utility.yul\":17568:17587   */\n      swap1\n      pop\n        /* \"#utility.yul\":17227:17593   */\n      swap2\n      swap1\n      pop\n      jump\t// out\n        /* \"#utility.yul\":17599:18018   */\n    tag_117:\n        /* \"#utility.yul\":17765:17769   */\n      0x00\n        /* \"#utility.yul\":17803:17805   */\n      0x20\n        /* \"#utility.yul\":17792:17801   */\n      dup3\n        /* \"#utility.yul\":17788:17806   */\n      add\n        /* \"#utility.yul\":17780:17806   */\n      swap1\n      pop\n        /* \"#utility.yul\":17852:17861   */\n      dup2\n        /* \"#utility.yul\":17846:17850   */\n      dup2\n        /* \"#utility.yul\":17842:17862   */\n      sub\n        /* \"#utility.yul\":17838:17839   */\n      0x00\n        /* \"#utility.yul\":17827:17836   */\n      dup4\n        /* \"#utility.yul\":17823:17840   */\n      add\n        /* \"#utility.yul\":17816:17863   */\n      mstore\n        /* \"#utility.yul\":17880:18011   */\n      tag_383\n        /* \"#utility.yul\":18006:18010   */\n      dup2\n        /* \"#utility.yul\":17880:18011   */\n      tag_218\n      jump\t// in\n    tag_383:\n        /* \"#utility.yul\":17872:18011   */\n      swap1\n      pop\n        /* \"#utility.yul\":17599:18018   */\n      swap2\n      swap1\n      pop\n      jump\t// out\n        /* \"#utility.yul\":18024:18204   */\n    tag_219:\n        /* \"#utility.yul\":18072:18149   */\n      0x4e487b7100000000000000000000000000000000000000000000000000000000\n        /* \"#utility.yul\":18069:18070   */\n      0x00\n        /* \"#utility.yul\":18062:18150   */\n      mstore\n        /* \"#utility.yul\":18169:18173   */\n      0x11\n        /* \"#utility.yul\":18166:18167   */\n      0x04\n        /* \"#utility.yul\":18159:18174   */\n      mstore\n        /* \"#utility.yul\":18193:18197   */\n      0x24\n        /* \"#utility.yul\":18190:18191   */\n      0x00\n        /* \"#utility.yul\":18183:18198   */\n      revert\n        /* \"#utility.yul\":18210:18401   */\n    tag_119:\n        /* \"#utility.yul\":18250:18253   */\n      0x00\n        /* \"#utility.yul\":18269:18289   */\n      tag_386\n        /* \"#utility.yul\":18287:18288   */\n      dup3\n        /* \"#utility.yul\":18269:18289   */\n      tag_191\n      jump\t// in\n    tag_386:\n        /* \"#utility.yul\":18264:18289   */\n      swap2\n      pop\n        /* \"#utility.yul\":18303:18323   */\n      tag_387\n        /* \"#utility.yul\":18321:18322   */\n      dup4\n        /* \"#utility.yul\":18303:18323   */\n      tag_191\n      jump\t// in\n    tag_387:\n        /* \"#utility.yul\":18298:18323   */\n      swap3\n      pop\n        /* \"#utility.yul\":18346:18347   */\n      dup3\n        /* \"#utility.yul\":18343:18344   */\n      dup3\n        /* \"#utility.yul\":18339:18348   */\n      add\n        /* \"#utility.yul\":18332:18348   */\n      swap1\n      pop\n        /* \"#utility.yul\":18367:18370   */\n      dup1\n        /* \"#utility.yul\":18364:18365   */\n      dup3\n        /* \"#utility.yul\":18361:18371   */\n      gt\n        /* \"#utility.yul\":18358:18394   */\n      iszero\n      tag_388\n      jumpi\n        /* \"#utility.yul\":18374:18392   */\n      tag_389\n      tag_219\n      jump\t// in\n    tag_389:\n        /* \"#utility.yul\":18358:18394   */\n    tag_388:\n        /* \"#utility.yul\":18210:18401   */\n      swap3\n      swap2\n      pop\n      pop\n      jump\t// out\n        /* \"#utility.yul\":18407:18582   */\n    tag_220:\n        /* \"#utility.yul\":18547:18574   */\n      0x436f6d62696e6564206665657320657863656564203130302500000000000000\n        /* \"#utility.yul\":18543:18544   */\n      0x00\n        /* \"#utility.yul\":18535:18541   */\n      dup3\n        /* \"#utility.yul\":18531:18545   */\n      add\n        /* \"#utility.yul\":18524:18575   */\n      mstore\n        /* \"#utility.yul\":18407:18582   */\n      pop\n      jump\t// out\n        /* \"#utility.yul\":18588:18954   */\n    tag_221:\n        /* \"#utility.yul\":18730:18733   */\n      0x00\n        /* \"#utility.yul\":18751:18818   */\n      tag_392\n        /* \"#utility.yul\":18815:18817   */\n      0x19\n        /* \"#utility.yul\":18810:18813   */\n      dup4\n        /* \"#utility.yul\":18751:18818   */\n      tag_179\n      jump\t// in\n    tag_392:\n        /* \"#utility.yul\":18744:18818   */\n      swap2\n      pop\n        /* \"#utility.yul\":18827:18920   */\n      tag_393\n        /* \"#utility.yul\":18916:18919   */\n      dup3\n        /* \"#utility.yul\":18827:18920   */\n      tag_220\n      jump\t// in\n    tag_393:\n        /* \"#utility.yul\":18945:18947   */\n      0x20\n        /* \"#utility.yul\":18940:18943   */\n      dup3\n        /* \"#utility.yul\":18936:18948   */\n      add\n        /* \"#utility.yul\":18929:18948   */\n      swap1\n      pop\n        /* \"#utility.yul\":18588:18954   */\n      swap2\n      swap1\n      pop\n      jump\t// out\n        /* \"#utility.yul\":18960:19379   */\n    tag_122:\n        /* \"#utility.yul\":19126:19130   */\n      0x00\n        /* \"#utility.yul\":19164:19166   */\n      0x20\n        /* \"#utility.yul\":19153:19162   */\n      dup3\n        /* \"#utility.yul\":19149:19167   */\n      add\n        /* \"#utility.yul\":19141:19167   */\n      swap1\n      pop\n        /* \"#utility.yul\":19213:19222   */\n      dup2\n        /* \"#utility.yul\":19207:19211   */\n      dup2\n        /* \"#utility.yul\":19203:19223   */\n      sub\n        /* \"#utility.yul\":19199:19200   */\n      0x00\n        /* \"#utility.yul\":19188:19197   */\n      dup4\n        /* \"#utility.yul\":19184:19201   */\n      add\n        /* \"#utility.yul\":19177:19224   */\n      mstore\n        /* \"#utility.yul\":19241:19372   */\n      tag_395\n        /* \"#utility.yul\":19367:19371   */\n      dup2\n        /* \"#utility.yul\":19241:19372   */\n      tag_221\n      jump\t// in\n    tag_395:\n        /* \"#utility.yul\":19233:19372   */\n      swap1\n      pop\n        /* \"#utility.yul\":18960:19379   */\n      swap2\n      swap1\n      pop\n      jump\t// out\n        /* \"#utility.yul\":19385:19795   */\n    tag_124:\n        /* \"#utility.yul\":19425:19432   */\n      0x00\n        /* \"#utility.yul\":19448:19468   */\n      tag_397\n        /* \"#utility.yul\":19466:19467   */\n      dup3\n        /* \"#utility.yul\":19448:19468   */\n      tag_191\n      jump\t// in\n    tag_397:\n        /* \"#utility.yul\":19443:19468   */\n      swap2\n      pop\n        /* \"#utility.yul\":19482:19502   */\n      tag_398\n        /* \"#utility.yul\":19500:19501   */\n      dup4\n        /* \"#utility.yul\":19482:19502   */\n      tag_191\n      jump\t// in\n    tag_398:\n        /* \"#utility.yul\":19477:19502   */\n      swap3\n      pop\n        /* \"#utility.yul\":19537:19538   */\n      dup3\n        /* \"#utility.yul\":19534:19535   */\n      dup3\n        /* \"#utility.yul\":19530:19539   */\n      mul\n        /* \"#utility.yul\":19559:19589   */\n      tag_399\n        /* \"#utility.yul\":19577:19588   */\n      dup2\n        /* \"#utility.yul\":19559:19589   */\n      tag_191\n      jump\t// in\n    tag_399:\n        /* \"#utility.yul\":19548:19589   */\n      swap2\n      pop\n        /* \"#utility.yul\":19738:19739   */\n      dup3\n        /* \"#utility.yul\":19729:19736   */\n      dup3\n        /* \"#utility.yul\":19725:19740   */\n      div\n        /* \"#utility.yul\":19722:19723   */\n      dup5\n        /* \"#utility.yul\":19719:19741   */\n      eq\n        /* \"#utility.yul\":19699:19700   */\n      dup4\n        /* \"#utility.yul\":19692:19701   */\n      iszero\n        /* \"#utility.yul\":19672:19755   */\n      or\n        /* \"#utility.yul\":19649:19788   */\n      tag_400\n      jumpi\n        /* \"#utility.yul\":19768:19786   */\n      tag_401\n      tag_219\n      jump\t// in\n    tag_401:\n        /* \"#utility.yul\":19649:19788   */\n    tag_400:\n        /* \"#utility.yul\":19433:19795   */\n      pop\n        /* \"#utility.yul\":19385:19795   */\n      swap3\n      swap2\n      pop\n      pop\n      jump\t// out\n        /* \"#utility.yul\":19801:19981   */\n    tag_222:\n        /* \"#utility.yul\":19849:19926   */\n      0x4e487b7100000000000000000000000000000000000000000000000000000000\n        /* \"#utility.yul\":19846:19847   */\n      0x00\n        /* \"#utility.yul\":19839:19927   */\n      mstore\n        /* \"#utility.yul\":19946:19950   */\n      0x12\n        /* \"#utility.yul\":19943:19944   */\n      0x04\n        /* \"#utility.yul\":19936:19951   */\n      mstore\n        /* \"#utility.yul\":19970:19974   */\n      0x24\n        /* \"#utility.yul\":19967:19968   */\n      0x00\n        /* \"#utility.yul\":19960:19975   */\n      revert\n        /* \"#utility.yul\":19987:20172   */\n    tag_126:\n        /* \"#utility.yul\":20027:20028   */\n      0x00\n        /* \"#utility.yul\":20044:20064   */\n      tag_404\n        /* \"#utility.yul\":20062:20063   */\n      dup3\n        /* \"#utility.yul\":20044:20064   */\n      tag_191\n      jump\t// in\n    tag_404:\n        /* \"#utility.yul\":20039:20064   */\n      swap2\n      pop\n        /* \"#utility.yul\":20078:20098   */\n      tag_405\n        /* \"#utility.yul\":20096:20097   */\n      dup4\n        /* \"#utility.yul\":20078:20098   */\n      tag_191\n      jump\t// in\n    tag_405:\n        /* \"#utility.yul\":20073:20098   */\n      swap3\n      pop\n        /* \"#utility.yul\":20117:20118   */\n      dup3\n        /* \"#utility.yul\":20107:20142   */\n      tag_406\n      jumpi\n        /* \"#utility.yul\":20122:20140   */\n      tag_407\n      tag_222\n      jump\t// in\n    tag_407:\n        /* \"#utility.yul\":20107:20142   */\n    tag_406:\n        /* \"#utility.yul\":20164:20165   */\n      dup3\n        /* \"#utility.yul\":20161:20162   */\n      dup3\n        /* \"#utility.yul\":20157:20166   */\n      div\n        /* \"#utility.yul\":20152:20166   */\n      swap1\n      pop\n        /* \"#utility.yul\":19987:20172   */\n      swap3\n      swap2\n      pop\n      pop\n      jump\t// out\n        /* \"#utility.yul\":20178:20372   */\n    tag_130:\n        /* \"#utility.yul\":20218:20222   */\n      0x00\n        /* \"#utility.yul\":20238:20258   */\n      tag_409\n        /* \"#utility.yul\":20256:20257   */\n      dup3\n        /* \"#utility.yul\":20238:20258   */\n      tag_191\n      jump\t// in\n    tag_409:\n        /* \"#utility.yul\":20233:20258   */\n      swap2\n      pop\n        /* \"#utility.yul\":20272:20292   */\n      tag_410\n        /* \"#utility.yul\":20290:20291   */\n      dup4\n        /* \"#utility.yul\":20272:20292   */\n      tag_191\n      jump\t// in\n    tag_410:\n        /* \"#utility.yul\":20267:20292   */\n      swap3\n      pop\n        /* \"#utility.yul\":20316:20317   */\n      dup3\n        /* \"#utility.yul\":20313:20314   */\n      dup3\n        /* \"#utility.yul\":20309:20318   */\n      sub\n        /* \"#utility.yul\":20301:20318   */\n      swap1\n      pop\n        /* \"#utility.yul\":20340:20341   */\n      dup2\n        /* \"#utility.yul\":20334:20338   */\n      dup2\n        /* \"#utility.yul\":20331:20342   */\n      gt\n        /* \"#utility.yul\":20328:20365   */\n      iszero\n      tag_411\n      jumpi\n        /* \"#utility.yul\":20345:20363   */\n      tag_412\n      tag_219\n      jump\t// in\n    tag_412:\n        /* \"#utility.yul\":20328:20365   */\n    tag_411:\n        /* \"#utility.yul\":20178:20372   */\n      swap3\n      swap2\n      pop\n      pop\n      jump\t// out\n        /* \"#utility.yul\":20378:20820   */\n    tag_142:\n        /* \"#utility.yul\":20527:20531   */\n      0x00\n        /* \"#utility.yul\":20565:20567   */\n      0x60\n        /* \"#utility.yul\":20554:20563   */\n      dup3\n        /* \"#utility.yul\":20550:20568   */\n      add\n        /* \"#utility.yul\":20542:20568   */\n      swap1\n      pop\n        /* \"#utility.yul\":20578:20649   */\n      tag_414\n        /* \"#utility.yul\":20646:20647   */\n      0x00\n        /* \"#utility.yul\":20635:20644   */\n      dup4\n        /* \"#utility.yul\":20631:20648   */\n      add\n        /* \"#utility.yul\":20622:20628   */\n      dup7\n        /* \"#utility.yul\":20578:20649   */\n      tag_194\n      jump\t// in\n    tag_414:\n        /* \"#utility.yul\":20659:20731   */\n      tag_415\n        /* \"#utility.yul\":20727:20729   */\n      0x20\n        /* \"#utility.yul\":20716:20725   */\n      dup4\n        /* \"#utility.yul\":20712:20730   */\n      add\n        /* \"#utility.yul\":20703:20709   */\n      dup6\n        /* \"#utility.yul\":20659:20731   */\n      tag_194\n      jump\t// in\n    tag_415:\n        /* \"#utility.yul\":20741:20813   */\n      tag_416\n        /* \"#utility.yul\":20809:20811   */\n      0x40\n        /* \"#utility.yul\":20798:20807   */\n      dup4\n        /* \"#utility.yul\":20794:20812   */\n      add\n        /* \"#utility.yul\":20785:20791   */\n      dup5\n        /* \"#utility.yul\":20741:20813   */\n      tag_195\n      jump\t// in\n    tag_416:\n        /* \"#utility.yul\":20378:20820   */\n      swap5\n      swap4\n      pop\n      pop\n      pop\n      pop\n      jump\t// out\n        /* \"#utility.yul\":20826:21490   */\n    tag_147:\n        /* \"#utility.yul\":21031:21035   */\n      0x00\n        /* \"#utility.yul\":21069:21072   */\n      0xa0\n        /* \"#utility.yul\":21058:21067   */\n      dup3\n        /* \"#utility.yul\":21054:21073   */\n      add\n        /* \"#utility.yul\":21046:21073   */\n      swap1\n      pop\n        /* \"#utility.yul\":21083:21154   */\n      tag_418\n        /* \"#utility.yul\":21151:21152   */\n      0x00\n        /* \"#utility.yul\":21140:21149   */\n      dup4\n        /* \"#utility.yul\":21136:21153   */\n      add\n        /* \"#utility.yul\":21127:21133   */\n      dup9\n        /* \"#utility.yul\":21083:21154   */\n      tag_195\n      jump\t// in\n    tag_418:\n        /* \"#utility.yul\":21164:21236   */\n      tag_419\n        /* \"#utility.yul\":21232:21234   */\n      0x20\n        /* \"#utility.yul\":21221:21230   */\n      dup4\n        /* \"#utility.yul\":21217:21235   */\n      add\n        /* \"#utility.yul\":21208:21214   */\n      dup8\n        /* \"#utility.yul\":21164:21236   */\n      tag_194\n      jump\t// in\n    tag_419:\n        /* \"#utility.yul\":21246:21318   */\n      tag_420\n        /* \"#utility.yul\":21314:21316   */\n      0x40\n        /* \"#utility.yul\":21303:21312   */\n      dup4\n        /* \"#utility.yul\":21299:21317   */\n      add\n        /* \"#utility.yul\":21290:21296   */\n      dup7\n        /* \"#utility.yul\":21246:21318   */\n      tag_194\n      jump\t// in\n    tag_420:\n        /* \"#utility.yul\":21328:21400   */\n      tag_421\n        /* \"#utility.yul\":21396:21398   */\n      0x60\n        /* \"#utility.yul\":21385:21394   */\n      dup4\n        /* \"#utility.yul\":21381:21399   */\n      add\n        /* \"#utility.yul\":21372:21378   */\n      dup6\n        /* \"#utility.yul\":21328:21400   */\n      tag_195\n      jump\t// in\n    tag_421:\n        /* \"#utility.yul\":21410:21483   */\n      tag_422\n        /* \"#utility.yul\":21478:21481   */\n      0x80\n        /* \"#utility.yul\":21467:21476   */\n      dup4\n        /* \"#utility.yul\":21463:21482   */\n      add\n        /* \"#utility.yul\":21454:21460   */\n      dup5\n        /* \"#utility.yul\":21410:21483   */\n      tag_195\n      jump\t// in\n    tag_422:\n        /* \"#utility.yul\":20826:21490   */\n      swap7\n      swap6\n      pop\n      pop\n      pop\n      pop\n      pop\n      pop\n      jump\t// out\n        /* \"#utility.yul\":21496:21656   */\n    tag_223:\n        /* \"#utility.yul\":21636:21648   */\n      0x4f6e6c79206f776e657200000000000000000000000000000000000000000000\n        /* \"#utility.yul\":21632:21633   */\n      0x00\n        /* \"#utility.yul\":21624:21630   */\n      dup3\n        /* \"#utility.yul\":21620:21634   */\n      add\n        /* \"#utility.yul\":21613:21649   */\n      mstore\n        /* \"#utility.yul\":21496:21656   */\n      pop\n      jump\t// out\n        /* \"#utility.yul\":21662:22028   */\n    tag_224:\n        /* \"#utility.yul\":21804:21807   */\n      0x00\n        /* \"#utility.yul\":21825:21892   */\n      tag_425\n        /* \"#utility.yul\":21889:21891   */\n      0x0a\n        /* \"#utility.yul\":21884:21887   */\n      dup4\n        /* \"#utility.yul\":21825:21892   */\n      tag_179\n      jump\t// in\n    tag_425:\n        /* \"#utility.yul\":21818:21892   */\n      swap2\n      pop\n        /* \"#utility.yul\":21901:21994   */\n      tag_426\n        /* \"#utility.yul\":21990:21993   */\n      dup3\n        /* \"#utility.yul\":21901:21994   */\n      tag_223\n      jump\t// in\n    tag_426:\n        /* \"#utility.yul\":22019:22021   */\n      0x20\n        /* \"#utility.yul\":22014:22017   */\n      dup3\n        /* \"#utility.yul\":22010:22022   */\n      add\n        /* \"#utility.yul\":22003:22022   */\n      swap1\n      pop\n        /* \"#utility.yul\":21662:22028   */\n      swap2\n      swap1\n      pop\n      jump\t// out\n        /* \"#utility.yul\":22034:22453   */\n    tag_153:\n        /* \"#utility.yul\":22200:22204   */\n      0x00\n        /* \"#utility.yul\":22238:22240   */\n      0x20\n        /* \"#utility.yul\":22227:22236   */\n      dup3\n        /* \"#utility.yul\":22223:22241   */\n      add\n        /* \"#utility.yul\":22215:22241   */\n      swap1\n      pop\n        /* \"#utility.yul\":22287:22296   */\n      dup2\n        /* \"#utility.yul\":22281:22285   */\n      dup2\n        /* \"#utility.yul\":22277:22297   */\n      sub\n        /* \"#utility.yul\":22273:22274   */\n      0x00\n        /* \"#utility.yul\":22262:22271   */\n      dup4\n        /* \"#utility.yul\":22258:22275   */\n      add\n        /* \"#utility.yul\":22251:22298   */\n      mstore\n        /* \"#utility.yul\":22315:22446   */\n      tag_428\n        /* \"#utility.yul\":22441:22445   */\n      dup2\n        /* \"#utility.yul\":22315:22446   */\n      tag_224\n      jump\t// in\n    tag_428:\n        /* \"#utility.yul\":22307:22446   */\n      swap1\n      pop\n        /* \"#utility.yul\":22034:22453   */\n      swap2\n      swap1\n      pop\n      jump\t// out\n        /* \"#utility.yul\":22459:22633   */\n    tag_225:\n        /* \"#utility.yul\":22599:22625   */\n      0x4d61726b6574706c6163652066656520746f6f20686967680000000000000000\n        /* \"#utility.yul\":22595:22596   */\n      0x00\n        /* \"#utility.yul\":22587:22593   */\n      dup3\n        /* \"#utility.yul\":22583:22597   */\n      add\n        /* \"#utility.yul\":22576:22626   */\n      mstore\n        /* \"#utility.yul\":22459:22633   */\n      pop\n      jump\t// out\n        /* \"#utility.yul\":22639:23005   */\n    tag_226:\n        /* \"#utility.yul\":22781:22784   */\n      0x00\n        /* \"#utility.yul\":22802:22869   */\n      tag_431\n        /* \"#utility.yul\":22866:22868   */\n      0x18\n        /* \"#utility.yul\":22861:22864   */\n      dup4\n        /* \"#utility.yul\":22802:22869   */\n      tag_179\n      jump\t// in\n    tag_431:\n        /* \"#utility.yul\":22795:22869   */\n      swap2\n      pop\n        /* \"#utility.yul\":22878:22971   */\n      tag_432\n        /* \"#utility.yul\":22967:22970   */\n      dup3\n        /* \"#utility.yul\":22878:22971   */\n      tag_225\n      jump\t// in\n    tag_432:\n        /* \"#utility.yul\":22996:22998   */\n      0x20\n        /* \"#utility.yul\":22991:22994   */\n      dup3\n        /* \"#utility.yul\":22987:22999   */\n      add\n        /* \"#utility.yul\":22980:22999   */\n      swap1\n      pop\n        /* \"#utility.yul\":22639:23005   */\n      swap2\n      swap1\n      pop\n      jump\t// out\n        /* \"#utility.yul\":23011:23430   */\n    tag_157:\n        /* \"#utility.yul\":23177:23181   */\n      0x00\n        /* \"#utility.yul\":23215:23217   */\n      0x20\n        /* \"#utility.yul\":23204:23213   */\n      dup3\n        /* \"#utility.yul\":23200:23218   */\n      add\n        /* \"#utility.yul\":23192:23218   */\n      swap1\n      pop\n        /* \"#utility.yul\":23264:23273   */\n      dup2\n        /* \"#utility.yul\":23258:23262   */\n      dup2\n        /* \"#utility.yul\":23254:23274   */\n      sub\n        /* \"#utility.yul\":23250:23251   */\n      0x00\n        /* \"#utility.yul\":23239:23248   */\n      dup4\n        /* \"#utility.yul\":23235:23252   */\n      add\n        /* \"#utility.yul\":23228:23275   */\n      mstore\n        /* \"#utility.yul\":23292:23423   */\n      tag_434\n        /* \"#utility.yul\":23418:23422   */\n      dup2\n        /* \"#utility.yul\":23292:23423   */\n      tag_226\n      jump\t// in\n    tag_434:\n        /* \"#utility.yul\":23284:23423   */\n      swap1\n      pop\n        /* \"#utility.yul\":23011:23430   */\n      swap2\n      swap1\n      pop\n      jump\t// out\n        /* \"#utility.yul\":23436:23768   */\n    tag_159:\n        /* \"#utility.yul\":23557:23561   */\n      0x00\n        /* \"#utility.yul\":23595:23597   */\n      0x40\n        /* \"#utility.yul\":23584:23593   */\n      dup3\n        /* \"#utility.yul\":23580:23598   */\n      add\n        /* \"#utility.yul\":23572:23598   */\n      swap1\n      pop\n        /* \"#utility.yul\":23608:23679   */\n      tag_436\n        /* \"#utility.yul\":23676:23677   */\n      0x00\n        /* \"#utility.yul\":23665:23674   */\n      dup4\n        /* \"#utility.yul\":23661:23678   */\n      add\n        /* \"#utility.yul\":23652:23658   */\n      dup6\n        /* \"#utility.yul\":23608:23679   */\n      tag_195\n      jump\t// in\n    tag_436:\n        /* \"#utility.yul\":23689:23761   */\n      tag_437\n        /* \"#utility.yul\":23757:23759   */\n      0x20\n        /* \"#utility.yul\":23746:23755   */\n      dup4\n        /* \"#utility.yul\":23742:23760   */\n      add\n        /* \"#utility.yul\":23733:23739   */\n      dup5\n        /* \"#utility.yul\":23689:23761   */\n      tag_194\n      jump\t// in\n    tag_437:\n        /* \"#utility.yul\":23436:23768   */\n      swap4\n      swap3\n      pop\n      pop\n      pop\n      jump\t// out\n        /* \"#utility.yul\":23774:23938   */\n    tag_227:\n        /* \"#utility.yul\":23914:23930   */\n      0x4e6f74207468652073656c6c6572000000000000000000000000000000000000\n        /* \"#utility.yul\":23910:23911   */\n      0x00\n        /* \"#utility.yul\":23902:23908   */\n      dup3\n        /* \"#utility.yul\":23898:23912   */\n      add\n        /* \"#utility.yul\":23891:23931   */\n      mstore\n        /* \"#utility.yul\":23774:23938   */\n      pop\n      jump\t// out\n        /* \"#utility.yul\":23944:24310   */\n    tag_228:\n        /* \"#utility.yul\":24086:24089   */\n      0x00\n        /* \"#utility.yul\":24107:24174   */\n      tag_440\n        /* \"#utility.yul\":24171:24173   */\n      0x0e\n        /* \"#utility.yul\":24166:24169   */\n      dup4\n        /* \"#utility.yul\":24107:24174   */\n      tag_179\n      jump\t// in\n    tag_440:\n        /* \"#utility.yul\":24100:24174   */\n      swap2\n      pop\n        /* \"#utility.yul\":24183:24276   */\n      tag_441\n        /* \"#utility.yul\":24272:24275   */\n      dup3\n        /* \"#utility.yul\":24183:24276   */\n      tag_227\n      jump\t// in\n    tag_441:\n        /* \"#utility.yul\":24301:24303   */\n      0x20\n        /* \"#utility.yul\":24296:24299   */\n      dup3\n        /* \"#utility.yul\":24292:24304   */\n      add\n        /* \"#utility.yul\":24285:24304   */\n      swap1\n      pop\n        /* \"#utility.yul\":23944:24310   */\n      swap2\n      swap1\n      pop\n      jump\t// out\n        /* \"#utility.yul\":24316:24735   */\n    tag_165:\n        /* \"#utility.yul\":24482:24486   */\n      0x00\n        /* \"#utility.yul\":24520:24522   */\n      0x20\n        /* \"#utility.yul\":24509:24518   */\n      dup3\n        /* \"#utility.yul\":24505:24523   */\n      add\n        /* \"#utility.yul\":24497:24523   */\n      swap1\n      pop\n        /* \"#utility.yul\":24569:24578   */\n      dup2\n        /* \"#utility.yul\":24563:24567   */\n      dup2\n        /* \"#utility.yul\":24559:24579   */\n      sub\n        /* \"#utility.yul\":24555:24556   */\n      0x00\n        /* \"#utility.yul\":24544:24553   */\n      dup4\n        /* \"#utility.yul\":24540:24557   */\n      add\n        /* \"#utility.yul\":24533:24580   */\n      mstore\n        /* \"#utility.yul\":24597:24728   */\n      tag_443\n        /* \"#utility.yul\":24723:24727   */\n      dup2\n        /* \"#utility.yul\":24597:24728   */\n      tag_228\n      jump\t// in\n    tag_443:\n        /* \"#utility.yul\":24589:24728   */\n      swap1\n      pop\n        /* \"#utility.yul\":24316:24735   */\n      swap2\n      swap1\n      pop\n      jump\t// out\n        /* \"#utility.yul\":24741:24912   */\n    tag_229:\n        /* \"#utility.yul\":24881:24904   */\n      0x496e76616c69642066656520726563697069656e740000000000000000000000\n        /* \"#utility.yul\":24877:24878   */\n      0x00\n        /* \"#utility.yul\":24869:24875   */\n      dup3\n        /* \"#utility.yul\":24865:24879   */\n      add\n        /* \"#utility.yul\":24858:24905   */\n      mstore\n        /* \"#utility.yul\":24741:24912   */\n      pop\n      jump\t// out\n        /* \"#utility.yul\":24918:25284   */\n    tag_230:\n        /* \"#utility.yul\":25060:25063   */\n      0x00\n        /* \"#utility.yul\":25081:25148   */\n      tag_446\n        /* \"#utility.yul\":25145:25147   */\n      0x15\n        /* \"#utility.yul\":25140:25143   */\n      dup4\n        /* \"#utility.yul\":25081:25148   */\n      tag_179\n      jump\t// in\n    tag_446:\n        /* \"#utility.yul\":25074:25148   */\n      swap2\n      pop\n        /* \"#utility.yul\":25157:25250   */\n      tag_447\n        /* \"#utility.yul\":25246:25249   */\n      dup3\n        /* \"#utility.yul\":25157:25250   */\n      tag_229\n      jump\t// in\n    tag_447:\n        /* \"#utility.yul\":25275:25277   */\n      0x20\n        /* \"#utility.yul\":25270:25273   */\n      dup3\n        /* \"#utility.yul\":25266:25278   */\n      add\n        /* \"#utility.yul\":25259:25278   */\n      swap1\n      pop\n        /* \"#utility.yul\":24918:25284   */\n      swap2\n      swap1\n      pop\n      jump\t// out\n        /* \"#utility.yul\":25290:25709   */\n    tag_172:\n        /* \"#utility.yul\":25456:25460   */\n      0x00\n        /* \"#utility.yul\":25494:25496   */\n      0x20\n        /* \"#utility.yul\":25483:25492   */\n      dup3\n        /* \"#utility.yul\":25479:25497   */\n      add\n        /* \"#utility.yul\":25471:25497   */\n      swap1\n      pop\n        /* \"#utility.yul\":25543:25552   */\n      dup2\n        /* \"#utility.yul\":25537:25541   */\n      dup2\n        /* \"#utility.yul\":25533:25553   */\n      sub\n        /* \"#utility.yul\":25529:25530   */\n      0x00\n        /* \"#utility.yul\":25518:25527   */\n      dup4\n        /* \"#utility.yul\":25514:25531   */\n      add\n        /* \"#utility.yul\":25507:25554   */\n      mstore\n        /* \"#utility.yul\":25571:25702   */\n      tag_449\n        /* \"#utility.yul\":25697:25701   */\n      dup2\n        /* \"#utility.yul\":25571:25702   */\n      tag_230\n      jump\t// in\n    tag_449:\n        /* \"#utility.yul\":25563:25702   */\n      swap1\n      pop\n        /* \"#utility.yul\":25290:25709   */\n      swap2\n      swap1\n      pop\n      jump\t// out\n        /* \"#utility.yul\":25715:25896   */\n    tag_231:\n        /* \"#utility.yul\":25855:25888   */\n      0x5265656e7472616e637947756172643a207265656e7472616e742063616c6c00\n        /* \"#utility.yul\":25851:25852   */\n      0x00\n        /* \"#utility.yul\":25843:25849   */\n      dup3\n        /* \"#utility.yul\":25839:25853   */\n      add\n        /* \"#utility.yul\":25832:25889   */\n      mstore\n        /* \"#utility.yul\":25715:25896   */\n      pop\n      jump\t// out\n        /* \"#utility.yul\":25902:26268   */\n    tag_232:\n        /* \"#utility.yul\":26044:26047   */\n      0x00\n        /* \"#utility.yul\":26065:26132   */\n      tag_452\n        /* \"#utility.yul\":26129:26131   */\n      0x1f\n        /* \"#utility.yul\":26124:26127   */\n      dup4\n        /* \"#utility.yul\":26065:26132   */\n      tag_179\n      jump\t// in\n    tag_452:\n        /* \"#utility.yul\":26058:26132   */\n      swap2\n      pop\n        /* \"#utility.yul\":26141:26234   */\n      tag_453\n        /* \"#utility.yul\":26230:26233   */\n      dup3\n        /* \"#utility.yul\":26141:26234   */\n      tag_231\n      jump\t// in\n    tag_453:\n        /* \"#utility.yul\":26259:26261   */\n      0x20\n        /* \"#utility.yul\":26254:26257   */\n      dup3\n        /* \"#utility.yul\":26250:26262   */\n      add\n        /* \"#utility.yul\":26243:26262   */\n      swap1\n      pop\n        /* \"#utility.yul\":25902:26268   */\n      swap2\n      swap1\n      pop\n      jump\t// out\n        /* \"#utility.yul\":26274:26693   */\n    tag_177:\n        /* \"#utility.yul\":26440:26444   */\n      0x00\n        /* \"#utility.yul\":26478:26480   */\n      0x20\n        /* \"#utility.yul\":26467:26476   */\n      dup3\n        /* \"#utility.yul\":26463:26481   */\n      add\n        /* \"#utility.yul\":26455:26481   */\n      swap1\n      pop\n        /* \"#utility.yul\":26527:26536   */\n      dup2\n        /* \"#utility.yul\":26521:26525   */\n      dup2\n        /* \"#utility.yul\":26517:26537   */\n      sub\n        /* \"#utility.yul\":26513:26514   */\n      0x00\n        /* \"#utility.yul\":26502:26511   */\n      dup4\n        /* \"#utility.yul\":26498:26515   */\n      add\n        /* \"#utility.yul\":26491:26538   */\n      mstore\n        /* \"#utility.yul\":26555:26686   */\n      tag_455\n        /* \"#utility.yul\":26681:26685   */\n      dup2\n        /* \"#utility.yul\":26555:26686   */\n      tag_232\n      jump\t// in\n    tag_455:\n        /* \"#utility.yul\":26547:26686   */\n      swap1\n      pop\n        /* \"#utility.yul\":26274:26693   */\n      swap2\n      swap1\n      pop\n      jump\t// out\n\n    auxdata: 0xa2646970667358221220fd8138c62a3f341d7e9b22b3d080bc9052722c3979947c34eec34eb8a5e6bfad64736f6c634300081e0033\n}\n",
				"bytecode": {
					"linkReferences": {},
					"object": "608060405234801561000f575f5ffd5b506040516127ed3803806127ed8339818101604052810190610031919061020a565b60015f819055506103e882111561007d576040517f08c379a0000000000000000000000000000000000000000000000000000000008152600401610074906102c8565b60405180910390fd5b5f73ffffffffffffffffffffffffffffffffffffffff168173ffffffffffffffffffffffffffffffffffffffff16036100eb576040517f08c379a00000000000000000000000000000000000000000000000000000000081526004016100e290610330565b60405180910390fd5b3360015f6101000a81548173ffffffffffffffffffffffffffffffffffffffff021916908373ffffffffffffffffffffffffffffffffffffffff160217905550816002819055508060035f6101000a81548173ffffffffffffffffffffffffffffffffffffffff021916908373ffffffffffffffffffffffffffffffffffffffff160217905550505061034e565b5f5ffd5b5f819050919050565b61018f8161017d565b8114610199575f5ffd5b50565b5f815190506101aa81610186565b92915050565b5f73ffffffffffffffffffffffffffffffffffffffff82169050919050565b5f6101d9826101b0565b9050919050565b6101e9816101cf565b81146101f3575f5ffd5b50565b5f81519050610204816101e0565b92915050565b5f5f604083850312156102205761021f610179565b5b5f61022d8582860161019c565b925050602061023e858286016101f6565b9150509250929050565b5f82825260208201905092915050565b7f4d61726b6574706c6163652066656520746f6f206869676820286d61782031305f8201527f2529000000000000000000000000000000000000000000000000000000000000602082015250565b5f6102b2602283610248565b91506102bd82610258565b604082019050919050565b5f6020820190508181035f8301526102df816102a6565b9050919050565b7f46656520726563697069656e742063616e6e6f74206265207a65726f000000005f82015250565b5f61031a601c83610248565b9150610325826102e6565b602082019050919050565b5f6020820190508181035f8301526103478161030e565b9050919050565b6124928061035b5f395ff3fe608060405260043610610093575f3560e01c80638da5cb5b116100585780638da5cb5b14610208578063a82ba76f14610232578063a91244511461024e578063b2ddee0614610276578063e74b981b1461029e576100d3565b806207df301461010e57806338d73b0d14610150578063469048401461017a57806386b8865c146101a457806388700d1c146101cc576100d3565b366100d3576040517f08c379a00000000000000000000000000000000000000000000000000000000081526004016100ca9061187b565b60405180910390fd5b6040517f08c379a0000000000000000000000000000000000000000000000000000000008152600401610105906118e3565b60405180910390fd5b348015610119575f5ffd5b50610134600480360381019061012f9190611992565b6102c6565b6040516101479796959493929190611a08565b60405180910390f35b34801561015b575f5ffd5b50610164610378565b6040516101719190611a75565b60405180910390f35b348015610185575f5ffd5b5061018e61037e565b60405161019b9190611a8e565b60405180910390f35b3480156101af575f5ffd5b506101ca60048036038101906101c59190611aa7565b6103a3565b005b3480156101d7575f5ffd5b506101f260048036038101906101ed9190611992565b61095b565b6040516101ff9190611bd7565b60405180910390f35b348015610213575f5ffd5b5061021c610af8565b6040516102299190611a8e565b60405180910390f35b61024c60048036038101906102479190611992565b610b1d565b005b348015610259575f5ffd5b50610274600480360381019061026f9190611bf0565b611111565b005b348015610281575f5ffd5b5061029c60048036038101906102979190611992565b611249565b005b3480156102a9575f5ffd5b506102c460048036038101906102bf9190611c1b565b6115d6565b005b6004602052815f5260405f20602052805f5260405f205f9150915050805f015f9054906101000a900473ffffffffffffffffffffffffffffffffffffffff1690806001015f9054906101000a900473ffffffffffffffffffffffffffffffffffffffff1690806002015490806003015490806004015f9054906101000a900473ffffffffffffffffffffffffffffffffffffffff1690806005015490806006015f9054906101000a900460ff16905087565b60025481565b60035f9054906101000a900473ffffffffffffffffffffffffffffffffffffffff1681565b5f83116103e5576040517f08c379a00000000000000000000000000000000000000000000000000000000081526004016103dc90611c90565b60405180910390fd5b6103e881111561042a576040517f08c379a000000000000000000000000000000000000000000000000000000000815260040161042190611cf8565b60405180910390fd5b60045f8673ffffffffffffffffffffffffffffffffffffffff1673ffffffffffffffffffffffffffffffffffffffff1681526020019081526020015f205f8581526020019081526020015f206006015f9054906101000a900460ff16156104c6576040517f08c379a00000000000000000000000000000000000000000000000000000000081526004016104bd90611d60565b60405180910390fd5b5f8590503373ffffffffffffffffffffffffffffffffffffffff168173ffffffffffffffffffffffffffffffffffffffff16636352211e876040518263ffffffff1660e01b815260040161051a9190611a75565b602060405180830381865afa158015610535573d5f5f3e3d5ffd5b505050506040513d601f19601f820116820180604052508101906105599190611d92565b73ffffffffffffffffffffffffffffffffffffffff16146105af576040517f08c379a00000000000000000000000000000000000000000000000000000000081526004016105a690611e07565b60405180910390fd5b3073ffffffffffffffffffffffffffffffffffffffff168173ffffffffffffffffffffffffffffffffffffffff1663081812fc876040518263ffffffff1660e01b81526004016105ff9190611a75565b602060405180830381865afa15801561061a573d5f5f3e3d5ffd5b505050506040513d601f19601f8201168201806040525081019061063e9190611d92565b73ffffffffffffffffffffffffffffffffffffffff1614806106d657508073ffffffffffffffffffffffffffffffffffffffff1663e985e9c533306040518363ffffffff1660e01b8152600401610696929190611e25565b602060405180830381865afa1580156106b1573d5f5f3e3d5ffd5b505050506040513d601f19601f820116820180604052508101906106d59190611e76565b5b610715576040517f08c379a000000000000000000000000000000000000000000000000000000000815260040161070c90611eeb565b60405180910390fd5b6040518060e001604052803373ffffffffffffffffffffffffffffffffffffffff1681526020018773ffffffffffffffffffffffffffffffffffffffff1681526020018681526020018581526020018473ffffffffffffffffffffffffffffffffffffffff1681526020018381526020016001151581525060045f8873ffffffffffffffffffffffffffffffffffffffff1673ffffffffffffffffffffffffffffffffffffffff1681526020019081526020015f205f8781526020019081526020015f205f820151815f015f6101000a81548173ffffffffffffffffffffffffffffffffffffffff021916908373ffffffffffffffffffffffffffffffffffffffff1602179055506020820151816001015f6101000a81548173ffffffffffffffffffffffffffffffffffffffff021916908373ffffffffffffffffffffffffffffffffffffffff16021790555060408201518160020155606082015181600301556080820151816004015f6101000a81548173ffffffffffffffffffffffffffffffffffffffff021916908373ffffffffffffffffffffffffffffffffffffffff16021790555060a0820151816005015560c0820151816006015f6101000a81548160ff021916908315150217905550905050848673ffffffffffffffffffffffffffffffffffffffff163373ffffffffffffffffffffffffffffffffffffffff167f807de38b500f7dce06ab2c21f8dbd9d2c9bfca0e78928c06fd93375feac76b0487878760405161094b93929190611f09565b60405180910390a4505050505050565b6109636117a7565b60045f8473ffffffffffffffffffffffffffffffffffffffff1673ffffffffffffffffffffffffffffffffffffffff1681526020019081526020015f205f8381526020019081526020015f206040518060e00160405290815f82015f9054906101000a900473ffffffffffffffffffffffffffffffffffffffff1673ffffffffffffffffffffffffffffffffffffffff1673ffffffffffffffffffffffffffffffffffffffff168152602001600182015f9054906101000a900473ffffffffffffffffffffffffffffffffffffffff1673ffffffffffffffffffffffffffffffffffffffff1673ffffffffffffffffffffffffffffffffffffffff1681526020016002820154815260200160038201548152602001600482015f9054906101000a900473ffffffffffffffffffffffffffffffffffffffff1673ffffffffffffffffffffffffffffffffffffffff1673ffffffffffffffffffffffffffffffffffffffff16815260200160058201548152602001600682015f9054906101000a900460ff161515151581525050905092915050565b60015f9054906101000a900473ffffffffffffffffffffffffffffffffffffffff1681565b610b25611751565b5f60045f8473ffffffffffffffffffffffffffffffffffffffff1673ffffffffffffffffffffffffffffffffffffffff1681526020019081526020015f205f8381526020019081526020015f206040518060e00160405290815f82015f9054906101000a900473ffffffffffffffffffffffffffffffffffffffff1673ffffffffffffffffffffffffffffffffffffffff1673ffffffffffffffffffffffffffffffffffffffff168152602001600182015f9054906101000a900473ffffffffffffffffffffffffffffffffffffffff1673ffffffffffffffffffffffffffffffffffffffff1673ffffffffffffffffffffffffffffffffffffffff1681526020016002820154815260200160038201548152602001600482015f9054906101000a900473ffffffffffffffffffffffffffffffffffffffff1673ffffffffffffffffffffffffffffffffffffffff1673ffffffffffffffffffffffffffffffffffffffff16815260200160058201548152602001600682015f9054906101000a900460ff16151515158152505090508060c00151610cf9576040517f08c379a0000000000000000000000000000000000000000000000000000000008152600401610cf090611f88565b60405180910390fd5b80606001513414610d3f576040517f08c379a0000000000000000000000000000000000000000000000000000000008152600401610d3690611ff0565b60405180910390fd5b6127106002548260a00151610d54919061203b565b1115610d95576040517f08c379a0000000000000000000000000000000000000000000000000000000008152600401610d8c906120b8565b60405180910390fd5b5f61271060025434610da791906120d6565b610db19190612144565b90505f6127108360a0015134610dc791906120d6565b610dd19190612144565b90505f818334610de19190612174565b610deb9190612174565b90505f831115610e5b5760035f9054906101000a900473ffffffffffffffffffffffffffffffffffffffff1673ffffffffffffffffffffffffffffffffffffffff166108fc8490811502906040515f60405180830381858888f19350505050158015610e59573d5f5f3e3d5ffd5b505b5f82118015610e9a57505f73ffffffffffffffffffffffffffffffffffffffff16846080015173ffffffffffffffffffffffffffffffffffffffff1614155b15610ee857836080015173ffffffffffffffffffffffffffffffffffffffff166108fc8390811502906040515f60405180830381858888f19350505050158015610ee6573d5f5f3e3d5ffd5b505b835f015173ffffffffffffffffffffffffffffffffffffffff166108fc8290811502906040515f60405180830381858888f19350505050158015610f2e573d5f5f3e3d5ffd5b50836020015173ffffffffffffffffffffffffffffffffffffffff166342842e0e855f01513387604001516040518463ffffffff1660e01b8152600401610f77939291906121a7565b5f604051808303815f87803b158015610f8e575f5ffd5b505af1158015610fa0573d5f5f3e3d5ffd5b5050505060045f8773ffffffffffffffffffffffffffffffffffffffff1673ffffffffffffffffffffffffffffffffffffffff1681526020019081526020015f205f8681526020019081526020015f205f5f82015f6101000a81549073ffffffffffffffffffffffffffffffffffffffff0219169055600182015f6101000a81549073ffffffffffffffffffffffffffffffffffffffff0219169055600282015f9055600382015f9055600482015f6101000a81549073ffffffffffffffffffffffffffffffffffffffff0219169055600582015f9055600682015f6101000a81549060ff02191690555050848673ffffffffffffffffffffffffffffffffffffffff163373ffffffffffffffffffffffffffffffffffffffff167f3b7a3f17e96f82672c521bf9a7d850285797e343cb2a6d4a5a9a845aa57c144e34885f01518960800151888a6040516110f99594939291906121dc565b60405180910390a45050505061110d61179e565b5050565b60015f9054906101000a900473ffffffffffffffffffffffffffffffffffffffff1673ffffffffffffffffffffffffffffffffffffffff163373ffffffffffffffffffffffffffffffffffffffff16146111a0576040517f08c379a000000000000000000000000000000000000000000000000000000000815260040161119790612277565b60405180910390fd5b6103e88111156111e5576040517f08c379a00000000000000000000000000000000000000000000000000000000081526004016111dc906122df565b60405180910390fd5b806002819055507f7cfad8b150be9751a5386cc4e0f549618032ff63d14fab4f77cd4b0aaaedc2428160035f9054906101000a900473ffffffffffffffffffffffffffffffffffffffff1660405161123e9291906122fd565b60405180910390a150565b5f60045f8473ffffffffffffffffffffffffffffffffffffffff1673ffffffffffffffffffffffffffffffffffffffff1681526020019081526020015f205f8381526020019081526020015f206040518060e00160405290815f82015f9054906101000a900473ffffffffffffffffffffffffffffffffffffffff1673ffffffffffffffffffffffffffffffffffffffff1673ffffffffffffffffffffffffffffffffffffffff168152602001600182015f9054906101000a900473ffffffffffffffffffffffffffffffffffffffff1673ffffffffffffffffffffffffffffffffffffffff1673ffffffffffffffffffffffffffffffffffffffff1681526020016002820154815260200160038201548152602001600482015f9054906101000a900473ffffffffffffffffffffffffffffffffffffffff1673ffffffffffffffffffffffffffffffffffffffff1673ffffffffffffffffffffffffffffffffffffffff16815260200160058201548152602001600682015f9054906101000a900460ff16151515158152505090508060c0015161141d576040517f08c379a000000000000000000000000000000000000000000000000000000000815260040161141490611f88565b60405180910390fd5b3373ffffffffffffffffffffffffffffffffffffffff16815f015173ffffffffffffffffffffffffffffffffffffffff161461148e576040517f08c379a00000000000000000000000000000000000000000000000000000000081526004016114859061236e565b60405180910390fd5b60045f8473ffffffffffffffffffffffffffffffffffffffff1673ffffffffffffffffffffffffffffffffffffffff1681526020019081526020015f205f8381526020019081526020015f205f5f82015f6101000a81549073ffffffffffffffffffffffffffffffffffffffff0219169055600182015f6101000a81549073ffffffffffffffffffffffffffffffffffffffff0219169055600282015f9055600382015f9055600482015f6101000a81549073ffffffffffffffffffffffffffffffffffffffff0219169055600582015f9055600682015f6101000a81549060ff02191690555050818373ffffffffffffffffffffffffffffffffffffffff163373ffffffffffffffffffffffffffffffffffffffff167f2ba1378929ab3521060adb4fd901d045748c412cddca72243659f6e757baa17d60405160405180910390a4505050565b60015f9054906101000a900473ffffffffffffffffffffffffffffffffffffffff1673ffffffffffffffffffffffffffffffffffffffff163373ffffffffffffffffffffffffffffffffffffffff1614611665576040517f08c379a000000000000000000000000000000000000000000000000000000000815260040161165c90612277565b60405180910390fd5b5f73ffffffffffffffffffffffffffffffffffffffff168173ffffffffffffffffffffffffffffffffffffffff16036116d3576040517f08c379a00000000000000000000000000000000000000000000000000000000081526004016116ca906123d6565b60405180910390fd5b8060035f6101000a81548173ffffffffffffffffffffffffffffffffffffffff021916908373ffffffffffffffffffffffffffffffffffffffff1602179055507f7cfad8b150be9751a5386cc4e0f549618032ff63d14fab4f77cd4b0aaaedc242600254826040516117469291906122fd565b60405180910390a150565b60025f5403611795576040517f08c379a000000000000000000000000000000000000000000000000000000000815260040161178c9061243e565b60405180910390fd5b60025f81905550565b60015f81905550565b6040518060e001604052805f73ffffffffffffffffffffffffffffffffffffffff1681526020015f73ffffffffffffffffffffffffffffffffffffffff1681526020015f81526020015f81526020015f73ffffffffffffffffffffffffffffffffffffffff1681526020015f81526020015f151581525090565b5f82825260208201905092915050565b7f44697265637420455448206e6f742061636365707465640000000000000000005f82015250565b5f611865601783611821565b915061187082611831565b602082019050919050565b5f6020820190508181035f83015261189281611859565b9050919050565b7f556e6b6e6f776e2066756e6374696f6e000000000000000000000000000000005f82015250565b5f6118cd601083611821565b91506118d882611899565b602082019050919050565b5f6020820190508181035f8301526118fa816118c1565b9050919050565b5f5ffd5b5f73ffffffffffffffffffffffffffffffffffffffff82169050919050565b5f61192e82611905565b9050919050565b61193e81611924565b8114611948575f5ffd5b50565b5f8135905061195981611935565b92915050565b5f819050919050565b6119718161195f565b811461197b575f5ffd5b50565b5f8135905061198c81611968565b92915050565b5f5f604083850312156119a8576119a7611901565b5b5f6119b58582860161194b565b92505060206119c68582860161197e565b9150509250929050565b6119d981611924565b82525050565b6119e88161195f565b82525050565b5f8115159050919050565b611a02816119ee565b82525050565b5f60e082019050611a1b5f83018a6119d0565b611a2860208301896119d0565b611a3560408301886119df565b611a4260608301876119df565b611a4f60808301866119d0565b611a5c60a08301856119df565b611a6960c08301846119f9565b98975050505050505050565b5f602082019050611a885f8301846119df565b92915050565b5f602082019050611aa15f8301846119d0565b92915050565b5f5f5f5f5f60a08688031215611ac057611abf611901565b5b5f611acd8882890161194b565b9550506020611ade8882890161197e565b9450506040611aef8882890161197e565b9350506060611b008882890161194b565b9250506080611b118882890161197e565b9150509295509295909350565b611b2781611924565b82525050565b611b368161195f565b82525050565b611b45816119ee565b82525050565b60e082015f820151611b5f5f850182611b1e565b506020820151611b726020850182611b1e565b506040820151611b856040850182611b2d565b506060820151611b986060850182611b2d565b506080820151611bab6080850182611b1e565b5060a0820151611bbe60a0850182611b2d565b5060c0820151611bd160c0850182611b3c565b50505050565b5f60e082019050611bea5f830184611b4b565b92915050565b5f60208284031215611c0557611c04611901565b5b5f611c128482850161197e565b91505092915050565b5f60208284031215611c3057611c2f611901565b5b5f611c3d8482850161194b565b91505092915050565b7f5072696365206d7573742062652061626f7665207a65726f00000000000000005f82015250565b5f611c7a601883611821565b9150611c8582611c46565b602082019050919050565b5f6020820190508181035f830152611ca781611c6e565b9050919050565b7f4d61782031302520726f79616c747920616c6c6f7765640000000000000000005f82015250565b5f611ce2601783611821565b9150611ced82611cae565b602082019050919050565b5f6020820190508181035f830152611d0f81611cd6565b9050919050565b7f416c7265616479206c69737465640000000000000000000000000000000000005f82015250565b5f611d4a600e83611821565b9150611d5582611d16565b602082019050919050565b5f6020820190508181035f830152611d7781611d3e565b9050919050565b5f81519050611d8c81611935565b92915050565b5f60208284031215611da757611da6611901565b5b5f611db484828501611d7e565b91505092915050565b7f4e6f7420746865206f776e6572000000000000000000000000000000000000005f82015250565b5f611df1600d83611821565b9150611dfc82611dbd565b602082019050919050565b5f6020820190508181035f830152611e1e81611de5565b9050919050565b5f604082019050611e385f8301856119d0565b611e4560208301846119d0565b9392505050565b611e55816119ee565b8114611e5f575f5ffd5b50565b5f81519050611e7081611e4c565b92915050565b5f60208284031215611e8b57611e8a611901565b5b5f611e9884828501611e62565b91505092915050565b7f4d61726b6574706c616365206e6f7420617070726f76656400000000000000005f82015250565b5f611ed5601883611821565b9150611ee082611ea1565b602082019050919050565b5f6020820190508181035f830152611f0281611ec9565b9050919050565b5f606082019050611f1c5f8301866119df565b611f2960208301856119d0565b611f3660408301846119df565b949350505050565b7f4e6f74206c6973746564000000000000000000000000000000000000000000005f82015250565b5f611f72600a83611821565b9150611f7d82611f3e565b602082019050919050565b5f6020820190508181035f830152611f9f81611f66565b9050919050565b7f496e636f7272656374204554482073656e7400000000000000000000000000005f82015250565b5f611fda601283611821565b9150611fe582611fa6565b602082019050919050565b5f6020820190508181035f83015261200781611fce565b9050919050565b7f4e487b71000000000000000000000000000000000000000000000000000000005f52601160045260245ffd5b5f6120458261195f565b91506120508361195f565b92508282019050808211156120685761206761200e565b5b92915050565b7f436f6d62696e65642066656573206578636565642031303025000000000000005f82015250565b5f6120a2601983611821565b91506120ad8261206e565b602082019050919050565b5f6020820190508181035f8301526120cf81612096565b9050919050565b5f6120e08261195f565b91506120eb8361195f565b92508282026120f98161195f565b915082820484148315176121105761210f61200e565b5b5092915050565b7f4e487b71000000000000000000000000000000000000000000000000000000005f52601260045260245ffd5b5f61214e8261195f565b91506121598361195f565b92508261216957612168612117565b5b828204905092915050565b5f61217e8261195f565b91506121898361195f565b92508282039050818111156121a1576121a061200e565b5b92915050565b5f6060820190506121ba5f8301866119d0565b6121c760208301856119d0565b6121d460408301846119df565b949350505050565b5f60a0820190506121ef5f8301886119df565b6121fc60208301876119d0565b61220960408301866119d0565b61221660608301856119df565b61222360808301846119df565b9695505050505050565b7f4f6e6c79206f776e6572000000000000000000000000000000000000000000005f82015250565b5f612261600a83611821565b915061226c8261222d565b602082019050919050565b5f6020820190508181035f83015261228e81612255565b9050919050565b7f4d61726b6574706c6163652066656520746f6f206869676800000000000000005f82015250565b5f6122c9601883611821565b91506122d482612295565b602082019050919050565b5f6020820190508181035f8301526122f6816122bd565b9050919050565b5f6040820190506123105f8301856119df565b61231d60208301846119d0565b9392505050565b7f4e6f74207468652073656c6c65720000000000000000000000000000000000005f82015250565b5f612358600e83611821565b915061236382612324565b602082019050919050565b5f6020820190508181035f8301526123858161234c565b9050919050565b7f496e76616c69642066656520726563697069656e7400000000000000000000005f82015250565b5f6123c0601583611821565b91506123cb8261238c565b602082019050919050565b5f6020820190508181035f8301526123ed816123b4565b9050919050565b7f5265656e7472616e637947756172643a207265656e7472616e742063616c6c005f82015250565b5f612428601f83611821565b9150612433826123f4565b602082019050919050565b5f6020820190508181035f8301526124558161241c565b905091905056fea2646970667358221220fd8138c62a3f341d7e9b22b3d080bc9052722c3979947c34eec34eb8a5e6bfad64736f6c634300081e0033",
					"opcodes": "PUSH1 0x80 PUSH1 0x40 MSTORE CALLVALUE DUP1 ISZERO PUSH2 0xF JUMPI PUSH0 PUSH0 REVERT JUMPDEST POP PUSH1 0x40 MLOAD PUSH2 0x27ED CODESIZE SUB DUP1 PUSH2 0x27ED DUP4 CODECOPY DUP2 DUP2 ADD PUSH1 0x40 MSTORE DUP2 ADD SWAP1 PUSH2 0x31 SWAP2 SWAP1 PUSH2 0x20A JUMP JUMPDEST PUSH1 0x1 PUSH0 DUP2 SWAP1 SSTORE POP PUSH2 0x3E8 DUP3 GT ISZERO PUSH2 0x7D JUMPI PUSH1 0x40 MLOAD PUSH32 0x8C379A000000000000000000000000000000000000000000000000000000000 DUP2 MSTORE PUSH1 0x4 ADD PUSH2 0x74 SWAP1 PUSH2 0x2C8 JUMP JUMPDEST PUSH1 0x40 MLOAD DUP1 SWAP2 SUB SWAP1 REVERT JUMPDEST PUSH0 PUSH20 0xFFFFFFFFFFFFFFFFFFFFFFFFFFFFFFFFFFFFFFFF AND DUP2 PUSH20 0xFFFFFFFFFFFFFFFFFFFFFFFFFFFFFFFFFFFFFFFF AND SUB PUSH2 0xEB JUMPI PUSH1 0x40 MLOAD PUSH32 0x8C379A000000000000000000000000000000000000000000000000000000000 DUP2 MSTORE PUSH1 0x4 ADD PUSH2 0xE2 SWAP1 PUSH2 0x330 JUMP JUMPDEST PUSH1 0x40 MLOAD DUP1 SWAP2 SUB SWAP1 REVERT JUMPDEST CALLER PUSH1 0x1 PUSH0 PUSH2 0x100 EXP DUP2 SLOAD DUP2 PUSH20 0xFFFFFFFFFFFFFFFFFFFFFFFFFFFFFFFFFFFFFFFF MUL NOT AND SWAP1 DUP4 PUSH20 0xFFFFFFFFFFFFFFFFFFFFFFFFFFFFFFFFFFFFFFFF AND MUL OR SWAP1 SSTORE POP DUP2 PUSH1 0x2 DUP2 SWAP1 SSTORE POP DUP1 PUSH1 0x3 PUSH0 PUSH2 0x100 EXP DUP2 SLOAD DUP2 PUSH20 0xFFFFFFFFFFFFFFFFFFFFFFFFFFFFFFFFFFFFFFFF MUL NOT AND SWAP1 DUP4 PUSH20 0xFFFFFFFFFFFFFFFFFFFFFFFFFFFFFFFFFFFFFFFF AND MUL OR SWAP1 SSTORE POP POP POP PUSH2 0x34E JUMP JUMPDEST PUSH0 PUSH0 REVERT JUMPDEST PUSH0 DUP2 SWAP1 POP SWAP2 SWAP1 POP JUMP JUMPDEST PUSH2 0x18F DUP2 PUSH2 0x17D JUMP JUMPDEST DUP2 EQ PUSH2 0x199 JUMPI PUSH0 PUSH0 REVERT JUMPDEST POP JUMP JUMPDEST PUSH0 DUP2 MLOAD SWAP1 POP PUSH2 0x1AA DUP2 PUSH2 0x186 JUMP JUMPDEST SWAP3 SWAP2 POP POP JUMP JUMPDEST PUSH0 PUSH20 0xFFFFFFFFFFFFFFFFFFFFFFFFFFFFFFFFFFFFFFFF DUP3 AND SWAP1 POP SWAP2 SWAP1 POP JUMP JUMPDEST PUSH0 PUSH2 0x1D9 DUP3 PUSH2 0x1B0 JUMP JUMPDEST SWAP1 POP SWAP2 SWAP1 POP JUMP JUMPDEST PUSH2 0x1E9 DUP2 PUSH2 0x1CF JUMP JUMPDEST DUP2 EQ PUSH2 0x1F3 JUMPI PUSH0 PUSH0 REVERT JUMPDEST POP JUMP JUMPDEST PUSH0 DUP2 MLOAD SWAP1 POP PUSH2 0x204 DUP2 PUSH2 0x1E0 JUMP JUMPDEST SWAP3 SWAP2 POP POP JUMP JUMPDEST PUSH0 PUSH0 PUSH1 0x40 DUP4 DUP6 SUB SLT ISZERO PUSH2 0x220 JUMPI PUSH2 0x21F PUSH2 0x179 JUMP JUMPDEST JUMPDEST PUSH0 PUSH2 0x22D DUP6 DUP3 DUP7 ADD PUSH2 0x19C JUMP JUMPDEST SWAP3 POP POP PUSH1 0x20 PUSH2 0x23E DUP6 DUP3 DUP7 ADD PUSH2 0x1F6 JUMP JUMPDEST SWAP2 POP POP SWAP3 POP SWAP3 SWAP1 POP JUMP JUMPDEST PUSH0 DUP3 DUP3 MSTORE PUSH1 0x20 DUP3 ADD SWAP1 POP SWAP3 SWAP2 POP POP JUMP JUMPDEST PUSH32 0x4D61726B6574706C6163652066656520746F6F206869676820286D6178203130 PUSH0 DUP3 ADD MSTORE PUSH32 0x2529000000000000000000000000000000000000000000000000000000000000 PUSH1 0x20 DUP3 ADD MSTORE POP JUMP JUMPDEST PUSH0 PUSH2 0x2B2 PUSH1 0x22 DUP4 PUSH2 0x248 JUMP JUMPDEST SWAP2 POP PUSH2 0x2BD DUP3 PUSH2 0x258 JUMP JUMPDEST PUSH1 0x40 DUP3 ADD SWAP1 POP SWAP2 SWAP1 POP JUMP JUMPDEST PUSH0 PUSH1 0x20 DUP3 ADD SWAP1 POP DUP2 DUP2 SUB PUSH0 DUP4 ADD MSTORE PUSH2 0x2DF DUP2 PUSH2 0x2A6 JUMP JUMPDEST SWAP1 POP SWAP2 SWAP1 POP JUMP JUMPDEST PUSH32 0x46656520726563697069656E742063616E6E6F74206265207A65726F00000000 PUSH0 DUP3 ADD MSTORE POP JUMP JUMPDEST PUSH0 PUSH2 0x31A PUSH1 0x1C DUP4 PUSH2 0x248 JUMP JUMPDEST SWAP2 POP PUSH2 0x325 DUP3 PUSH2 0x2E6 JUMP JUMPDEST PUSH1 0x20 DUP3 ADD SWAP1 POP SWAP2 SWAP1 POP JUMP JUMPDEST PUSH0 PUSH1 0x20 DUP3 ADD SWAP1 POP DUP2 DUP2 SUB PUSH0 DUP4 ADD MSTORE PUSH2 0x347 DUP2 PUSH2 0x30E JUMP JUMPDEST SWAP1 POP SWAP2 SWAP1 POP JUMP JUMPDEST PUSH2 0x2492 DUP1 PUSH2 0x35B PUSH0 CODECOPY PUSH0 RETURN INVALID PUSH1 0x80 PUSH1 0x40 MSTORE PUSH1 0x4 CALLDATASIZE LT PUSH2 0x93 JUMPI PUSH0 CALLDATALOAD PUSH1 0xE0 SHR DUP1 PUSH4 0x8DA5CB5B GT PUSH2 0x58 JUMPI DUP1 PUSH4 0x8DA5CB5B EQ PUSH2 0x208 JUMPI DUP1 PUSH4 0xA82BA76F EQ PUSH2 0x232 JUMPI DUP1 PUSH4 0xA9124451 EQ PUSH2 0x24E JUMPI DUP1 PUSH4 0xB2DDEE06 EQ PUSH2 0x276 JUMPI DUP1 PUSH4 0xE74B981B EQ PUSH2 0x29E JUMPI PUSH2 0xD3 JUMP JUMPDEST DUP1 PUSH3 0x7DF30 EQ PUSH2 0x10E JUMPI DUP1 PUSH4 0x38D73B0D EQ PUSH2 0x150 JUMPI DUP1 PUSH4 0x46904840 EQ PUSH2 0x17A JUMPI DUP1 PUSH4 0x86B8865C EQ PUSH2 0x1A4 JUMPI DUP1 PUSH4 0x88700D1C EQ PUSH2 0x1CC JUMPI PUSH2 0xD3 JUMP JUMPDEST CALLDATASIZE PUSH2 0xD3 JUMPI PUSH1 0x40 MLOAD PUSH32 0x8C379A000000000000000000000000000000000000000000000000000000000 DUP2 MSTORE PUSH1 0x4 ADD PUSH2 0xCA SWAP1 PUSH2 0x187B JUMP JUMPDEST PUSH1 0x40 MLOAD DUP1 SWAP2 SUB SWAP1 REVERT JUMPDEST PUSH1 0x40 MLOAD PUSH32 0x8C379A000000000000000000000000000000000000000000000000000000000 DUP2 MSTORE PUSH1 0x4 ADD PUSH2 0x105 SWAP1 PUSH2 0x18E3 JUMP JUMPDEST PUSH1 0x40 MLOAD DUP1 SWAP2 SUB SWAP1 REVERT JUMPDEST CALLVALUE DUP1 ISZERO PUSH2 0x119 JUMPI PUSH0 PUSH0 REVERT JUMPDEST POP PUSH2 0x134 PUSH1 0x4 DUP1 CALLDATASIZE SUB DUP2 ADD SWAP1 PUSH2 0x12F SWAP2 SWAP1 PUSH2 0x1992 JUMP JUMPDEST PUSH2 0x2C6 JUMP JUMPDEST PUSH1 0x40 MLOAD PUSH2 0x147 SWAP8 SWAP7 SWAP6 SWAP5 SWAP4 SWAP3 SWAP2 SWAP1 PUSH2 0x1A08 JUMP JUMPDEST PUSH1 0x40 MLOAD DUP1 SWAP2 SUB SWAP1 RETURN JUMPDEST CALLVALUE DUP1 ISZERO PUSH2 0x15B JUMPI PUSH0 PUSH0 REVERT JUMPDEST POP PUSH2 0x164 PUSH2 0x378 JUMP JUMPDEST PUSH1 0x40 MLOAD PUSH2 0x171 SWAP2 SWAP1 PUSH2 0x1A75 JUMP JUMPDEST PUSH1 0x40 MLOAD DUP1 SWAP2 SUB SWAP1 RETURN JUMPDEST CALLVALUE DUP1 ISZERO PUSH2 0x185 JUMPI PUSH0 PUSH0 REVERT JUMPDEST POP PUSH2 0x18E PUSH2 0x37E JUMP JUMPDEST PUSH1 0x40 MLOAD PUSH2 0x19B SWAP2 SWAP1 PUSH2 0x1A8E JUMP JUMPDEST PUSH1 0x40 MLOAD DUP1 SWAP2 SUB SWAP1 RETURN JUMPDEST CALLVALUE DUP1 ISZERO PUSH2 0x1AF JUMPI PUSH0 PUSH0 REVERT JUMPDEST POP PUSH2 0x1CA PUSH1 0x4 DUP1 CALLDATASIZE SUB DUP2 ADD SWAP1 PUSH2 0x1C5 SWAP2 SWAP1 PUSH2 0x1AA7 JUMP JUMPDEST PUSH2 0x3A3 JUMP JUMPDEST STOP JUMPDEST CALLVALUE DUP1 ISZERO PUSH2 0x1D7 JUMPI PUSH0 PUSH0 REVERT JUMPDEST POP PUSH2 0x1F2 PUSH1 0x4 DUP1 CALLDATASIZE SUB DUP2 ADD SWAP1 PUSH2 0x1ED SWAP2 SWAP1 PUSH2 0x1992 JUMP JUMPDEST PUSH2 0x95B JUMP JUMPDEST PUSH1 0x40 MLOAD PUSH2 0x1FF SWAP2 SWAP1 PUSH2 0x1BD7 JUMP JUMPDEST PUSH1 0x40 MLOAD DUP1 SWAP2 SUB SWAP1 RETURN JUMPDEST CALLVALUE DUP1 ISZERO PUSH2 0x213 JUMPI PUSH0 PUSH0 REVERT JUMPDEST POP PUSH2 0x21C PUSH2 0xAF8 JUMP JUMPDEST PUSH1 0x40 MLOAD PUSH2 0x229 SWAP2 SWAP1 PUSH2 0x1A8E JUMP JUMPDEST PUSH1 0x40 MLOAD DUP1 SWAP2 SUB SWAP1 RETURN JUMPDEST PUSH2 0x24C PUSH1 0x4 DUP1 CALLDATASIZE SUB DUP2 ADD SWAP1 PUSH2 0x247 SWAP2 SWAP1 PUSH2 0x1992 JUMP JUMPDEST PUSH2 0xB1D JUMP JUMPDEST STOP JUMPDEST CALLVALUE DUP1 ISZERO PUSH2 0x259 JUMPI PUSH0 PUSH0 REVERT JUMPDEST POP PUSH2 0x274 PUSH1 0x4 DUP1 CALLDATASIZE SUB DUP2 ADD SWAP1 PUSH2 0x26F SWAP2 SWAP1 PUSH2 0x1BF0 JUMP JUMPDEST PUSH2 0x1111 JUMP JUMPDEST STOP JUMPDEST CALLVALUE DUP1 ISZERO PUSH2 0x281 JUMPI PUSH0 PUSH0 REVERT JUMPDEST POP PUSH2 0x29C PUSH1 0x4 DUP1 CALLDATASIZE SUB DUP2 ADD SWAP1 PUSH2 0x297 SWAP2 SWAP1 PUSH2 0x1992 JUMP JUMPDEST PUSH2 0x1249 JUMP JUMPDEST STOP JUMPDEST CALLVALUE DUP1 ISZERO PUSH2 0x2A9 JUMPI PUSH0 PUSH0 REVERT JUMPDEST POP PUSH2 0x2C4 PUSH1 0x4 DUP1 CALLDATASIZE SUB DUP2 ADD SWAP1 PUSH2 0x2BF SWAP2 SWAP1 PUSH2 0x1C1B JUMP JUMPDEST PUSH2 0x15D6 JUMP JUMPDEST STOP JUMPDEST PUSH1 0x4 PUSH1 0x20 MSTORE DUP2 PUSH0 MSTORE PUSH1 0x40 PUSH0 KECCAK256 PUSH1 0x20 MSTORE DUP1 PUSH0 MSTORE PUSH1 0x40 PUSH0 KECCAK256 PUSH0 SWAP2 POP SWAP2 POP POP DUP1 PUSH0 ADD PUSH0 SWAP1 SLOAD SWAP1 PUSH2 0x100 EXP SWAP1 DIV PUSH20 0xFFFFFFFFFFFFFFFFFFFFFFFFFFFFFFFFFFFFFFFF AND SWAP1 DUP1 PUSH1 0x1 ADD PUSH0 SWAP1 SLOAD SWAP1 PUSH2 0x100 EXP SWAP1 DIV PUSH20 0xFFFFFFFFFFFFFFFFFFFFFFFFFFFFFFFFFFFFFFFF AND SWAP1 DUP1 PUSH1 0x2 ADD SLOAD SWAP1 DUP1 PUSH1 0x3 ADD SLOAD SWAP1 DUP1 PUSH1 0x4 ADD PUSH0 SWAP1 SLOAD SWAP1 PUSH2 0x100 EXP SWAP1 DIV PUSH20 0xFFFFFFFFFFFFFFFFFFFFFFFFFFFFFFFFFFFFFFFF AND SWAP1 DUP1 PUSH1 0x5 ADD SLOAD SWAP1 DUP1 PUSH1 0x6 ADD PUSH0 SWAP1 SLOAD SWAP1 PUSH2 0x100 EXP SWAP1 DIV PUSH1 0xFF AND SWAP1 POP DUP8 JUMP JUMPDEST PUSH1 0x2 SLOAD DUP2 JUMP JUMPDEST PUSH1 0x3 PUSH0 SWAP1 SLOAD SWAP1 PUSH2 0x100 EXP SWAP1 DIV PUSH20 0xFFFFFFFFFFFFFFFFFFFFFFFFFFFFFFFFFFFFFFFF AND DUP2 JUMP JUMPDEST PUSH0 DUP4 GT PUSH2 0x3E5 JUMPI PUSH1 0x40 MLOAD PUSH32 0x8C379A000000000000000000000000000000000000000000000000000000000 DUP2 MSTORE PUSH1 0x4 ADD PUSH2 0x3DC SWAP1 PUSH2 0x1C90 JUMP JUMPDEST PUSH1 0x40 MLOAD DUP1 SWAP2 SUB SWAP1 REVERT JUMPDEST PUSH2 0x3E8 DUP2 GT ISZERO PUSH2 0x42A JUMPI PUSH1 0x40 MLOAD PUSH32 0x8C379A000000000000000000000000000000000000000000000000000000000 DUP2 MSTORE PUSH1 0x4 ADD PUSH2 0x421 SWAP1 PUSH2 0x1CF8 JUMP JUMPDEST PUSH1 0x40 MLOAD DUP1 SWAP2 SUB SWAP1 REVERT JUMPDEST PUSH1 0x4 PUSH0 DUP7 PUSH20 0xFFFFFFFFFFFFFFFFFFFFFFFFFFFFFFFFFFFFFFFF AND PUSH20 0xFFFFFFFFFFFFFFFFFFFFFFFFFFFFFFFFFFFFFFFF AND DUP2 MSTORE PUSH1 0x20 ADD SWAP1 DUP2 MSTORE PUSH1 0x20 ADD PUSH0 KECCAK256 PUSH0 DUP6 DUP2 MSTORE PUSH1 0x20 ADD SWAP1 DUP2 MSTORE PUSH1 0x20 ADD PUSH0 KECCAK256 PUSH1 0x6 ADD PUSH0 SWAP1 SLOAD SWAP1 PUSH2 0x100 EXP SWAP1 DIV PUSH1 0xFF AND ISZERO PUSH2 0x4C6 JUMPI PUSH1 0x40 MLOAD PUSH32 0x8C379A000000000000000000000000000000000000000000000000000000000 DUP2 MSTORE PUSH1 0x4 ADD PUSH2 0x4BD SWAP1 PUSH2 0x1D60 JUMP JUMPDEST PUSH1 0x40 MLOAD DUP1 SWAP2 SUB SWAP1 REVERT JUMPDEST PUSH0 DUP6 SWAP1 POP CALLER PUSH20 0xFFFFFFFFFFFFFFFFFFFFFFFFFFFFFFFFFFFFFFFF AND DUP2 PUSH20 0xFFFFFFFFFFFFFFFFFFFFFFFFFFFFFFFFFFFFFFFF AND PUSH4 0x6352211E DUP8 PUSH1 0x40 MLOAD DUP3 PUSH4 0xFFFFFFFF AND PUSH1 0xE0 SHL DUP2 MSTORE PUSH1 0x4 ADD PUSH2 0x51A SWAP2 SWAP1 PUSH2 0x1A75 JUMP JUMPDEST PUSH1 0x20 PUSH1 0x40 MLOAD DUP1 DUP4 SUB DUP2 DUP7 GAS STATICCALL ISZERO DUP1 ISZERO PUSH2 0x535 JUMPI RETURNDATASIZE PUSH0 PUSH0 RETURNDATACOPY RETURNDATASIZE PUSH0 REVERT JUMPDEST POP POP POP POP PUSH1 0x40 MLOAD RETURNDATASIZE PUSH1 0x1F NOT PUSH1 0x1F DUP3 ADD AND DUP3 ADD DUP1 PUSH1 0x40 MSTORE POP DUP2 ADD SWAP1 PUSH2 0x559 SWAP2 SWAP1 PUSH2 0x1D92 JUMP JUMPDEST PUSH20 0xFFFFFFFFFFFFFFFFFFFFFFFFFFFFFFFFFFFFFFFF AND EQ PUSH2 0x5AF JUMPI PUSH1 0x40 MLOAD PUSH32 0x8C379A000000000000000000000000000000000000000000000000000000000 DUP2 MSTORE PUSH1 0x4 ADD PUSH2 0x5A6 SWAP1 PUSH2 0x1E07 JUMP JUMPDEST PUSH1 0x40 MLOAD DUP1 SWAP2 SUB SWAP1 REVERT JUMPDEST ADDRESS PUSH20 0xFFFFFFFFFFFFFFFFFFFFFFFFFFFFFFFFFFFFFFFF AND DUP2 PUSH20 0xFFFFFFFFFFFFFFFFFFFFFFFFFFFFFFFFFFFFFFFF AND PUSH4 0x81812FC DUP8 PUSH1 0x40 MLOAD DUP3 PUSH4 0xFFFFFFFF AND PUSH1 0xE0 SHL DUP2 MSTORE PUSH1 0x4 ADD PUSH2 0x5FF SWAP2 SWAP1 PUSH2 0x1A75 JUMP JUMPDEST PUSH1 0x20 PUSH1 0x40 MLOAD DUP1 DUP4 SUB DUP2 DUP7 GAS STATICCALL ISZERO DUP1 ISZERO PUSH2 0x61A JUMPI RETURNDATASIZE PUSH0 PUSH0 RETURNDATACOPY RETURNDATASIZE PUSH0 REVERT JUMPDEST POP POP POP POP PUSH1 0x40 MLOAD RETURNDATASIZE PUSH1 0x1F NOT PUSH1 0x1F DUP3 ADD AND DUP3 ADD DUP1 PUSH1 0x40 MSTORE POP DUP2 ADD SWAP1 PUSH2 0x63E SWAP2 SWAP1 PUSH2 0x1D92 JUMP JUMPDEST PUSH20 0xFFFFFFFFFFFFFFFFFFFFFFFFFFFFFFFFFFFFFFFF AND EQ DUP1 PUSH2 0x6D6 JUMPI POP DUP1 PUSH20 0xFFFFFFFFFFFFFFFFFFFFFFFFFFFFFFFFFFFFFFFF AND PUSH4 0xE985E9C5 CALLER ADDRESS PUSH1 0x40 MLOAD DUP4 PUSH4 0xFFFFFFFF AND PUSH1 0xE0 SHL DUP2 MSTORE PUSH1 0x4 ADD PUSH2 0x696 SWAP3 SWAP2 SWAP1 PUSH2 0x1E25 JUMP JUMPDEST PUSH1 0x20 PUSH1 0x40 MLOAD DUP1 DUP4 SUB DUP2 DUP7 GAS STATICCALL ISZERO DUP1 ISZERO PUSH2 0x6B1 JUMPI RETURNDATASIZE PUSH0 PUSH0 RETURNDATACOPY RETURNDATASIZE PUSH0 REVERT JUMPDEST POP POP POP POP PUSH1 0x40 MLOAD RETURNDATASIZE PUSH1 0x1F NOT PUSH1 0x1F DUP3 ADD AND DUP3 ADD DUP1 PUSH1 0x40 MSTORE POP DUP2 ADD SWAP1 PUSH2 0x6D5 SWAP2 SWAP1 PUSH2 0x1E76 JUMP JUMPDEST JUMPDEST PUSH2 0x715 JUMPI PUSH1 0x40 MLOAD PUSH32 0x8C379A000000000000000000000000000000000000000000000000000000000 DUP2 MSTORE PUSH1 0x4 ADD PUSH2 0x70C SWAP1 PUSH2 0x1EEB JUMP JUMPDEST PUSH1 0x40 MLOAD DUP1 SWAP2 SUB SWAP1 REVERT JUMPDEST PUSH1 0x40 MLOAD DUP1 PUSH1 0xE0 ADD PUSH1 0x40 MSTORE DUP1 CALLER PUSH20 0xFFFFFFFFFFFFFFFFFFFFFFFFFFFFFFFFFFFFFFFF AND DUP2 MSTORE PUSH1 0x20 ADD DUP8 PUSH20 0xFFFFFFFFFFFFFFFFFFFFFFFFFFFFFFFFFFFFFFFF AND DUP2 MSTORE PUSH1 0x20 ADD DUP7 DUP2 MSTORE PUSH1 0x20 ADD DUP6 DUP2 MSTORE PUSH1 0x20 ADD DUP5 PUSH20 0xFFFFFFFFFFFFFFFFFFFFFFFFFFFFFFFFFFFFFFFF AND DUP2 MSTORE PUSH1 0x20 ADD DUP4 DUP2 MSTORE PUSH1 0x20 ADD PUSH1 0x1 ISZERO ISZERO DUP2 MSTORE POP PUSH1 0x4 PUSH0 DUP9 PUSH20 0xFFFFFFFFFFFFFFFFFFFFFFFFFFFFFFFFFFFFFFFF AND PUSH20 0xFFFFFFFFFFFFFFFFFFFFFFFFFFFFFFFFFFFFFFFF AND DUP2 MSTORE PUSH1 0x20 ADD SWAP1 DUP2 MSTORE PUSH1 0x20 ADD PUSH0 KECCAK256 PUSH0 DUP8 DUP2 MSTORE PUSH1 0x20 ADD SWAP1 DUP2 MSTORE PUSH1 0x20 ADD PUSH0 KECCAK256 PUSH0 DUP3 ADD MLOAD DUP2 PUSH0 ADD PUSH0 PUSH2 0x100 EXP DUP2 SLOAD DUP2 PUSH20 0xFFFFFFFFFFFFFFFFFFFFFFFFFFFFFFFFFFFFFFFF MUL NOT AND SWAP1 DUP4 PUSH20 0xFFFFFFFFFFFFFFFFFFFFFFFFFFFFFFFFFFFFFFFF AND MUL OR SWAP1 SSTORE POP PUSH1 0x20 DUP3 ADD MLOAD DUP2 PUSH1 0x1 ADD PUSH0 PUSH2 0x100 EXP DUP2 SLOAD DUP2 PUSH20 0xFFFFFFFFFFFFFFFFFFFFFFFFFFFFFFFFFFFFFFFF MUL NOT AND SWAP1 DUP4 PUSH20 0xFFFFFFFFFFFFFFFFFFFFFFFFFFFFFFFFFFFFFFFF AND MUL OR SWAP1 SSTORE POP PUSH1 0x40 DUP3 ADD MLOAD DUP2 PUSH1 0x2 ADD SSTORE PUSH1 0x60 DUP3 ADD MLOAD DUP2 PUSH1 0x3 ADD SSTORE PUSH1 0x80 DUP3 ADD MLOAD DUP2 PUSH1 0x4 ADD PUSH0 PUSH2 0x100 EXP DUP2 SLOAD DUP2 PUSH20 0xFFFFFFFFFFFFFFFFFFFFFFFFFFFFFFFFFFFFFFFF MUL NOT AND SWAP1 DUP4 PUSH20 0xFFFFFFFFFFFFFFFFFFFFFFFFFFFFFFFFFFFFFFFF AND MUL OR SWAP1 SSTORE POP PUSH1 0xA0 DUP3 ADD MLOAD DUP2 PUSH1 0x5 ADD SSTORE PUSH1 0xC0 DUP3 ADD MLOAD DUP2 PUSH1 0x6 ADD PUSH0 PUSH2 0x100 EXP DUP2 SLOAD DUP2 PUSH1 0xFF MUL NOT AND SWAP1 DUP4 ISZERO ISZERO MUL OR SWAP1 SSTORE POP SWAP1 POP POP DUP5 DUP7 PUSH20 0xFFFFFFFFFFFFFFFFFFFFFFFFFFFFFFFFFFFFFFFF AND CALLER PUSH20 0xFFFFFFFFFFFFFFFFFFFFFFFFFFFFFFFFFFFFFFFF AND PUSH32 0x807DE38B500F7DCE06AB2C21F8DBD9D2C9BFCA0E78928C06FD93375FEAC76B04 DUP8 DUP8 DUP8 PUSH1 0x40 MLOAD PUSH2 0x94B SWAP4 SWAP3 SWAP2 SWAP1 PUSH2 0x1F09 JUMP JUMPDEST PUSH1 0x40 MLOAD DUP1 SWAP2 SUB SWAP1 LOG4 POP POP POP POP POP POP JUMP JUMPDEST PUSH2 0x963 PUSH2 0x17A7 JUMP JUMPDEST PUSH1 0x4 PUSH0 DUP5 PUSH20 0xFFFFFFFFFFFFFFFFFFFFFFFFFFFFFFFFFFFFFFFF AND PUSH20 0xFFFFFFFFFFFFFFFFFFFFFFFFFFFFFFFFFFFFFFFF AND DUP2 MSTORE PUSH1 0x20 ADD SWAP1 DUP2 MSTORE PUSH1 0x20 ADD PUSH0 KECCAK256 PUSH0 DUP4 DUP2 MSTORE PUSH1 0x20 ADD SWAP1 DUP2 MSTORE PUSH1 0x20 ADD PUSH0 KECCAK256 PUSH1 0x40 MLOAD DUP1 PUSH1 0xE0 ADD PUSH1 0x40 MSTORE SWAP1 DUP2 PUSH0 DUP3 ADD PUSH0 SWAP1 SLOAD SWAP1 PUSH2 0x100 EXP SWAP1 DIV PUSH20 0xFFFFFFFFFFFFFFFFFFFFFFFFFFFFFFFFFFFFFFFF AND PUSH20 0xFFFFFFFFFFFFFFFFFFFFFFFFFFFFFFFFFFFFFFFF AND PUSH20 0xFFFFFFFFFFFFFFFFFFFFFFFFFFFFFFFFFFFFFFFF AND DUP2 MSTORE PUSH1 0x20 ADD PUSH1 0x1 DUP3 ADD PUSH0 SWAP1 SLOAD SWAP1 PUSH2 0x100 EXP SWAP1 DIV PUSH20 0xFFFFFFFFFFFFFFFFFFFFFFFFFFFFFFFFFFFFFFFF AND PUSH20 0xFFFFFFFFFFFFFFFFFFFFFFFFFFFFFFFFFFFFFFFF AND PUSH20 0xFFFFFFFFFFFFFFFFFFFFFFFFFFFFFFFFFFFFFFFF AND DUP2 MSTORE PUSH1 0x20 ADD PUSH1 0x2 DUP3 ADD SLOAD DUP2 MSTORE PUSH1 0x20 ADD PUSH1 0x3 DUP3 ADD SLOAD DUP2 MSTORE PUSH1 0x20 ADD PUSH1 0x4 DUP3 ADD PUSH0 SWAP1 SLOAD SWAP1 PUSH2 0x100 EXP SWAP1 DIV PUSH20 0xFFFFFFFFFFFFFFFFFFFFFFFFFFFFFFFFFFFFFFFF AND PUSH20 0xFFFFFFFFFFFFFFFFFFFFFFFFFFFFFFFFFFFFFFFF AND PUSH20 0xFFFFFFFFFFFFFFFFFFFFFFFFFFFFFFFFFFFFFFFF AND DUP2 MSTORE PUSH1 0x20 ADD PUSH1 0x5 DUP3 ADD SLOAD DUP2 MSTORE PUSH1 0x20 ADD PUSH1 0x6 DUP3 ADD PUSH0 SWAP1 SLOAD SWAP1 PUSH2 0x100 EXP SWAP1 DIV PUSH1 0xFF AND ISZERO ISZERO ISZERO ISZERO DUP2 MSTORE POP POP SWAP1 POP SWAP3 SWAP2 POP POP JUMP JUMPDEST PUSH1 0x1 PUSH0 SWAP1 SLOAD SWAP1 PUSH2 0x100 EXP SWAP1 DIV PUSH20 0xFFFFFFFFFFFFFFFFFFFFFFFFFFFFFFFFFFFFFFFF AND DUP2 JUMP JUMPDEST PUSH2 0xB25 PUSH2 0x1751 JUMP JUMPDEST PUSH0 PUSH1 0x4 PUSH0 DUP5 PUSH20 0xFFFFFFFFFFFFFFFFFFFFFFFFFFFFFFFFFFFFFFFF AND PUSH20 0xFFFFFFFFFFFFFFFFFFFFFFFFFFFFFFFFFFFFFFFF AND DUP2 MSTORE PUSH1 0x20 ADD SWAP1 DUP2 MSTORE PUSH1 0x20 ADD PUSH0 KECCAK256 PUSH0 DUP4 DUP2 MSTORE PUSH1 0x20 ADD SWAP1 DUP2 MSTORE PUSH1 0x20 ADD PUSH0 KECCAK256 PUSH1 0x40 MLOAD DUP1 PUSH1 0xE0 ADD PUSH1 0x40 MSTORE SWAP1 DUP2 PUSH0 DUP3 ADD PUSH0 SWAP1 SLOAD SWAP1 PUSH2 0x100 EXP SWAP1 DIV PUSH20 0xFFFFFFFFFFFFFFFFFFFFFFFFFFFFFFFFFFFFFFFF AND PUSH20 0xFFFFFFFFFFFFFFFFFFFFFFFFFFFFFFFFFFFFFFFF AND PUSH20 0xFFFFFFFFFFFFFFFFFFFFFFFFFFFFFFFFFFFFFFFF AND DUP2 MSTORE PUSH1 0x20 ADD PUSH1 0x1 DUP3 ADD PUSH0 SWAP1 SLOAD SWAP1 PUSH2 0x100 EXP SWAP1 DIV PUSH20 0xFFFFFFFFFFFFFFFFFFFFFFFFFFFFFFFFFFFFFFFF AND PUSH20 0xFFFFFFFFFFFFFFFFFFFFFFFFFFFFFFFFFFFFFFFF AND PUSH20 0xFFFFFFFFFFFFFFFFFFFFFFFFFFFFFFFFFFFFFFFF AND DUP2 MSTORE PUSH1 0x20 ADD PUSH1 0x2 DUP3 ADD SLOAD DUP2 MSTORE PUSH1 0x20 ADD PUSH1 0x3 DUP3 ADD SLOAD DUP2 MSTORE PUSH1 0x20 ADD PUSH1 0x4 DUP3 ADD PUSH0 SWAP1 SLOAD SWAP1 PUSH2 0x100 EXP SWAP1 DIV PUSH20 0xFFFFFFFFFFFFFFFFFFFFFFFFFFFFFFFFFFFFFFFF AND PUSH20 0xFFFFFFFFFFFFFFFFFFFFFFFFFFFFFFFFFFFFFFFF AND PUSH20 0xFFFFFFFFFFFFFFFFFFFFFFFFFFFFFFFFFFFFFFFF AND DUP2 MSTORE PUSH1 0x20 ADD PUSH1 0x5 DUP3 ADD SLOAD DUP2 MSTORE PUSH1 0x20 ADD PUSH1 0x6 DUP3 ADD PUSH0 SWAP1 SLOAD SWAP1 PUSH2 0x100 EXP SWAP1 DIV PUSH1 0xFF AND ISZERO ISZERO ISZERO ISZERO DUP2 MSTORE POP POP SWAP1 POP DUP1 PUSH1 0xC0 ADD MLOAD PUSH2 0xCF9 JUMPI PUSH1 0x40 MLOAD PUSH32 0x8C379A000000000000000000000000000000000000000000000000000000000 DUP2 MSTORE PUSH1 0x4 ADD PUSH2 0xCF0 SWAP1 PUSH2 0x1F88 JUMP JUMPDEST PUSH1 0x40 MLOAD DUP1 SWAP2 SUB SWAP1 REVERT JUMPDEST DUP1 PUSH1 0x60 ADD MLOAD CALLVALUE EQ PUSH2 0xD3F JUMPI PUSH1 0x40 MLOAD PUSH32 0x8C379A000000000000000000000000000000000000000000000000000000000 DUP2 MSTORE PUSH1 0x4 ADD PUSH2 0xD36 SWAP1 PUSH2 0x1FF0 JUMP JUMPDEST PUSH1 0x40 MLOAD DUP1 SWAP2 SUB SWAP1 REVERT JUMPDEST PUSH2 0x2710 PUSH1 0x2 SLOAD DUP3 PUSH1 0xA0 ADD MLOAD PUSH2 0xD54 SWAP2 SWAP1 PUSH2 0x203B JUMP JUMPDEST GT ISZERO PUSH2 0xD95 JUMPI PUSH1 0x40 MLOAD PUSH32 0x8C379A000000000000000000000000000000000000000000000000000000000 DUP2 MSTORE PUSH1 0x4 ADD PUSH2 0xD8C SWAP1 PUSH2 0x20B8 JUMP JUMPDEST PUSH1 0x40 MLOAD DUP1 SWAP2 SUB SWAP1 REVERT JUMPDEST PUSH0 PUSH2 0x2710 PUSH1 0x2 SLOAD CALLVALUE PUSH2 0xDA7 SWAP2 SWAP1 PUSH2 0x20D6 JUMP JUMPDEST PUSH2 0xDB1 SWAP2 SWAP1 PUSH2 0x2144 JUMP JUMPDEST SWAP1 POP PUSH0 PUSH2 0x2710 DUP4 PUSH1 0xA0 ADD MLOAD CALLVALUE PUSH2 0xDC7 SWAP2 SWAP1 PUSH2 0x20D6 JUMP JUMPDEST PUSH2 0xDD1 SWAP2 SWAP1 PUSH2 0x2144 JUMP JUMPDEST SWAP1 POP PUSH0 DUP2 DUP4 CALLVALUE PUSH2 0xDE1 SWAP2 SWAP1 PUSH2 0x2174 JUMP JUMPDEST PUSH2 0xDEB SWAP2 SWAP1 PUSH2 0x2174 JUMP JUMPDEST SWAP1 POP PUSH0 DUP4 GT ISZERO PUSH2 0xE5B JUMPI PUSH1 0x3 PUSH0 SWAP1 SLOAD SWAP1 PUSH2 0x100 EXP SWAP1 DIV PUSH20 0xFFFFFFFFFFFFFFFFFFFFFFFFFFFFFFFFFFFFFFFF AND PUSH20 0xFFFFFFFFFFFFFFFFFFFFFFFFFFFFFFFFFFFFFFFF AND PUSH2 0x8FC DUP5 SWAP1 DUP2 ISZERO MUL SWAP1 PUSH1 0x40 MLOAD PUSH0 PUSH1 0x40 MLOAD DUP1 DUP4 SUB DUP2 DUP6 DUP9 DUP9 CALL SWAP4 POP POP POP POP ISZERO DUP1 ISZERO PUSH2 0xE59 JUMPI RETURNDATASIZE PUSH0 PUSH0 RETURNDATACOPY RETURNDATASIZE PUSH0 REVERT JUMPDEST POP JUMPDEST PUSH0 DUP3 GT DUP1 ISZERO PUSH2 0xE9A JUMPI POP PUSH0 PUSH20 0xFFFFFFFFFFFFFFFFFFFFFFFFFFFFFFFFFFFFFFFF AND DUP5 PUSH1 0x80 ADD MLOAD PUSH20 0xFFFFFFFFFFFFFFFFFFFFFFFFFFFFFFFFFFFFFFFF AND EQ ISZERO JUMPDEST ISZERO PUSH2 0xEE8 JUMPI DUP4 PUSH1 0x80 ADD MLOAD PUSH20 0xFFFFFFFFFFFFFFFFFFFFFFFFFFFFFFFFFFFFFFFF AND PUSH2 0x8FC DUP4 SWAP1 DUP2 ISZERO MUL SWAP1 PUSH1 0x40 MLOAD PUSH0 PUSH1 0x40 MLOAD DUP1 DUP4 SUB DUP2 DUP6 DUP9 DUP9 CALL SWAP4 POP POP POP POP ISZERO DUP1 ISZERO PUSH2 0xEE6 JUMPI RETURNDATASIZE PUSH0 PUSH0 RETURNDATACOPY RETURNDATASIZE PUSH0 REVERT JUMPDEST POP JUMPDEST DUP4 PUSH0 ADD MLOAD PUSH20 0xFFFFFFFFFFFFFFFFFFFFFFFFFFFFFFFFFFFFFFFF AND PUSH2 0x8FC DUP3 SWAP1 DUP2 ISZERO MUL SWAP1 PUSH1 0x40 MLOAD PUSH0 PUSH1 0x40 MLOAD DUP1 DUP4 SUB DUP2 DUP6 DUP9 DUP9 CALL SWAP4 POP POP POP POP ISZERO DUP1 ISZERO PUSH2 0xF2E JUMPI RETURNDATASIZE PUSH0 PUSH0 RETURNDATACOPY RETURNDATASIZE PUSH0 REVERT JUMPDEST POP DUP4 PUSH1 0x20 ADD MLOAD PUSH20 0xFFFFFFFFFFFFFFFFFFFFFFFFFFFFFFFFFFFFFFFF AND PUSH4 0x42842E0E DUP6 PUSH0 ADD MLOAD CALLER DUP8 PUSH1 0x40 ADD MLOAD PUSH1 0x40 MLOAD DUP5 PUSH4 0xFFFFFFFF AND PUSH1 0xE0 SHL DUP2 MSTORE PUSH1 0x4 ADD PUSH2 0xF77 SWAP4 SWAP3 SWAP2 SWAP1 PUSH2 0x21A7 JUMP JUMPDEST PUSH0 PUSH1 0x40 MLOAD DUP1 DUP4 SUB DUP2 PUSH0 DUP8 DUP1 EXTCODESIZE ISZERO DUP1 ISZERO PUSH2 0xF8E JUMPI PUSH0 PUSH0 REVERT JUMPDEST POP GAS CALL ISZERO DUP1 ISZERO PUSH2 0xFA0 JUMPI RETURNDATASIZE PUSH0 PUSH0 RETURNDATACOPY RETURNDATASIZE PUSH0 REVERT JUMPDEST POP POP POP POP PUSH1 0x4 PUSH0 DUP8 PUSH20 0xFFFFFFFFFFFFFFFFFFFFFFFFFFFFFFFFFFFFFFFF AND PUSH20 0xFFFFFFFFFFFFFFFFFFFFFFFFFFFFFFFFFFFFFFFF AND DUP2 MSTORE PUSH1 0x20 ADD SWAP1 DUP2 MSTORE PUSH1 0x20 ADD PUSH0 KECCAK256 PUSH0 DUP7 DUP2 MSTORE PUSH1 0x20 ADD SWAP1 DUP2 MSTORE PUSH1 0x20 ADD PUSH0 KECCAK256 PUSH0 PUSH0 DUP3 ADD PUSH0 PUSH2 0x100 EXP DUP2 SLOAD SWAP1 PUSH20 0xFFFFFFFFFFFFFFFFFFFFFFFFFFFFFFFFFFFFFFFF MUL NOT AND SWAP1 SSTORE PUSH1 0x1 DUP3 ADD PUSH0 PUSH2 0x100 EXP DUP2 SLOAD SWAP1 PUSH20 0xFFFFFFFFFFFFFFFFFFFFFFFFFFFFFFFFFFFFFFFF MUL NOT AND SWAP1 SSTORE PUSH1 0x2 DUP3 ADD PUSH0 SWAP1 SSTORE PUSH1 0x3 DUP3 ADD PUSH0 SWAP1 SSTORE PUSH1 0x4 DUP3 ADD PUSH0 PUSH2 0x100 EXP DUP2 SLOAD SWAP1 PUSH20 0xFFFFFFFFFFFFFFFFFFFFFFFFFFFFFFFFFFFFFFFF MUL NOT AND SWAP1 SSTORE PUSH1 0x5 DUP3 ADD PUSH0 SWAP1 SSTORE PUSH1 0x6 DUP3 ADD PUSH0 PUSH2 0x100 EXP DUP2 SLOAD SWAP1 PUSH1 0xFF MUL NOT AND SWAP1 SSTORE POP POP DUP5 DUP7 PUSH20 0xFFFFFFFFFFFFFFFFFFFFFFFFFFFFFFFFFFFFFFFF AND CALLER PUSH20 0xFFFFFFFFFFFFFFFFFFFFFFFFFFFFFFFFFFFFFFFF AND PUSH32 0x3B7A3F17E96F82672C521BF9A7D850285797E343CB2A6D4A5A9A845AA57C144E CALLVALUE DUP9 PUSH0 ADD MLOAD DUP10 PUSH1 0x80 ADD MLOAD DUP9 DUP11 PUSH1 0x40 MLOAD PUSH2 0x10F9 SWAP6 SWAP5 SWAP4 SWAP3 SWAP2 SWAP1 PUSH2 0x21DC JUMP JUMPDEST PUSH1 0x40 MLOAD DUP1 SWAP2 SUB SWAP1 LOG4 POP POP POP POP PUSH2 0x110D PUSH2 0x179E JUMP JUMPDEST POP POP JUMP JUMPDEST PUSH1 0x1 PUSH0 SWAP1 SLOAD SWAP1 PUSH2 0x100 EXP SWAP1 DIV PUSH20 0xFFFFFFFFFFFFFFFFFFFFFFFFFFFFFFFFFFFFFFFF AND PUSH20 0xFFFFFFFFFFFFFFFFFFFFFFFFFFFFFFFFFFFFFFFF AND CALLER PUSH20 0xFFFFFFFFFFFFFFFFFFFFFFFFFFFFFFFFFFFFFFFF AND EQ PUSH2 0x11A0 JUMPI PUSH1 0x40 MLOAD PUSH32 0x8C379A000000000000000000000000000000000000000000000000000000000 DUP2 MSTORE PUSH1 0x4 ADD PUSH2 0x1197 SWAP1 PUSH2 0x2277 JUMP JUMPDEST PUSH1 0x40 MLOAD DUP1 SWAP2 SUB SWAP1 REVERT JUMPDEST PUSH2 0x3E8 DUP2 GT ISZERO PUSH2 0x11E5 JUMPI PUSH1 0x40 MLOAD PUSH32 0x8C379A000000000000000000000000000000000000000000000000000000000 DUP2 MSTORE PUSH1 0x4 ADD PUSH2 0x11DC SWAP1 PUSH2 0x22DF JUMP JUMPDEST PUSH1 0x40 MLOAD DUP1 SWAP2 SUB SWAP1 REVERT JUMPDEST DUP1 PUSH1 0x2 DUP2 SWAP1 SSTORE POP PUSH32 0x7CFAD8B150BE9751A5386CC4E0F549618032FF63D14FAB4F77CD4B0AAAEDC242 DUP2 PUSH1 0x3 PUSH0 SWAP1 SLOAD SWAP1 PUSH2 0x100 EXP SWAP1 DIV PUSH20 0xFFFFFFFFFFFFFFFFFFFFFFFFFFFFFFFFFFFFFFFF AND PUSH1 0x40 MLOAD PUSH2 0x123E SWAP3 SWAP2 SWAP1 PUSH2 0x22FD JUMP JUMPDEST PUSH1 0x40 MLOAD DUP1 SWAP2 SUB SWAP1 LOG1 POP JUMP JUMPDEST PUSH0 PUSH1 0x4 PUSH0 DUP5 PUSH20 0xFFFFFFFFFFFFFFFFFFFFFFFFFFFFFFFFFFFFFFFF AND PUSH20 0xFFFFFFFFFFFFFFFFFFFFFFFFFFFFFFFFFFFFFFFF AND DUP2 MSTORE PUSH1 0x20 ADD SWAP1 DUP2 MSTORE PUSH1 0x20 ADD PUSH0 KECCAK256 PUSH0 DUP4 DUP2 MSTORE PUSH1 0x20 ADD SWAP1 DUP2 MSTORE PUSH1 0x20 ADD PUSH0 KECCAK256 PUSH1 0x40 MLOAD DUP1 PUSH1 0xE0 ADD PUSH1 0x40 MSTORE SWAP1 DUP2 PUSH0 DUP3 ADD PUSH0 SWAP1 SLOAD SWAP1 PUSH2 0x100 EXP SWAP1 DIV PUSH20 0xFFFFFFFFFFFFFFFFFFFFFFFFFFFFFFFFFFFFFFFF AND PUSH20 0xFFFFFFFFFFFFFFFFFFFFFFFFFFFFFFFFFFFFFFFF AND PUSH20 0xFFFFFFFFFFFFFFFFFFFFFFFFFFFFFFFFFFFFFFFF AND DUP2 MSTORE PUSH1 0x20 ADD PUSH1 0x1 DUP3 ADD PUSH0 SWAP1 SLOAD SWAP1 PUSH2 0x100 EXP SWAP1 DIV PUSH20 0xFFFFFFFFFFFFFFFFFFFFFFFFFFFFFFFFFFFFFFFF AND PUSH20 0xFFFFFFFFFFFFFFFFFFFFFFFFFFFFFFFFFFFFFFFF AND PUSH20 0xFFFFFFFFFFFFFFFFFFFFFFFFFFFFFFFFFFFFFFFF AND DUP2 MSTORE PUSH1 0x20 ADD PUSH1 0x2 DUP3 ADD SLOAD DUP2 MSTORE PUSH1 0x20 ADD PUSH1 0x3 DUP3 ADD SLOAD DUP2 MSTORE PUSH1 0x20 ADD PUSH1 0x4 DUP3 ADD PUSH0 SWAP1 SLOAD SWAP1 PUSH2 0x100 EXP SWAP1 DIV PUSH20 0xFFFFFFFFFFFFFFFFFFFFFFFFFFFFFFFFFFFFFFFF AND PUSH20 0xFFFFFFFFFFFFFFFFFFFFFFFFFFFFFFFFFFFFFFFF AND PUSH20 0xFFFFFFFFFFFFFFFFFFFFFFFFFFFFFFFFFFFFFFFF AND DUP2 MSTORE PUSH1 0x20 ADD PUSH1 0x5 DUP3 ADD SLOAD DUP2 MSTORE PUSH1 0x20 ADD PUSH1 0x6 DUP3 ADD PUSH0 SWAP1 SLOAD SWAP1 PUSH2 0x100 EXP SWAP1 DIV PUSH1 0xFF AND ISZERO ISZERO ISZERO ISZERO DUP2 MSTORE POP POP SWAP1 POP DUP1 PUSH1 0xC0 ADD MLOAD PUSH2 0x141D JUMPI PUSH1 0x40 MLOAD PUSH32 0x8C379A000000000000000000000000000000000000000000000000000000000 DUP2 MSTORE PUSH1 0x4 ADD PUSH2 0x1414 SWAP1 PUSH2 0x1F88 JUMP JUMPDEST PUSH1 0x40 MLOAD DUP1 SWAP2 SUB SWAP1 REVERT JUMPDEST CALLER PUSH20 0xFFFFFFFFFFFFFFFFFFFFFFFFFFFFFFFFFFFFFFFF AND DUP2 PUSH0 ADD MLOAD PUSH20 0xFFFFFFFFFFFFFFFFFFFFFFFFFFFFFFFFFFFFFFFF AND EQ PUSH2 0x148E JUMPI PUSH1 0x40 MLOAD PUSH32 0x8C379A000000000000000000000000000000000000000000000000000000000 DUP2 MSTORE PUSH1 0x4 ADD PUSH2 0x1485 SWAP1 PUSH2 0x236E JUMP JUMPDEST PUSH1 0x40 MLOAD DUP1 SWAP2 SUB SWAP1 REVERT JUMPDEST PUSH1 0x4 PUSH0 DUP5 PUSH20 0xFFFFFFFFFFFFFFFFFFFFFFFFFFFFFFFFFFFFFFFF AND PUSH20 0xFFFFFFFFFFFFFFFFFFFFFFFFFFFFFFFFFFFFFFFF AND DUP2 MSTORE PUSH1 0x20 ADD SWAP1 DUP2 MSTORE PUSH1 0x20 ADD PUSH0 KECCAK256 PUSH0 DUP4 DUP2 MSTORE PUSH1 0x20 ADD SWAP1 DUP2 MSTORE PUSH1 0x20 ADD PUSH0 KECCAK256 PUSH0 PUSH0 DUP3 ADD PUSH0 PUSH2 0x100 EXP DUP2 SLOAD SWAP1 PUSH20 0xFFFFFFFFFFFFFFFFFFFFFFFFFFFFFFFFFFFFFFFF MUL NOT AND SWAP1 SSTORE PUSH1 0x1 DUP3 ADD PUSH0 PUSH2 0x100 EXP DUP2 SLOAD SWAP1 PUSH20 0xFFFFFFFFFFFFFFFFFFFFFFFFFFFFFFFFFFFFFFFF MUL NOT AND SWAP1 SSTORE PUSH1 0x2 DUP3 ADD PUSH0 SWAP1 SSTORE PUSH1 0x3 DUP3 ADD PUSH0 SWAP1 SSTORE PUSH1 0x4 DUP3 ADD PUSH0 PUSH2 0x100 EXP DUP2 SLOAD SWAP1 PUSH20 0xFFFFFFFFFFFFFFFFFFFFFFFFFFFFFFFFFFFFFFFF MUL NOT AND SWAP1 SSTORE PUSH1 0x5 DUP3 ADD PUSH0 SWAP1 SSTORE PUSH1 0x6 DUP3 ADD PUSH0 PUSH2 0x100 EXP DUP2 SLOAD SWAP1 PUSH1 0xFF MUL NOT AND SWAP1 SSTORE POP POP DUP2 DUP4 PUSH20 0xFFFFFFFFFFFFFFFFFFFFFFFFFFFFFFFFFFFFFFFF AND CALLER PUSH20 0xFFFFFFFFFFFFFFFFFFFFFFFFFFFFFFFFFFFFFFFF AND PUSH32 0x2BA1378929AB3521060ADB4FD901D045748C412CDDCA72243659F6E757BAA17D PUSH1 0x40 MLOAD PUSH1 0x40 MLOAD DUP1 SWAP2 SUB SWAP1 LOG4 POP POP POP JUMP JUMPDEST PUSH1 0x1 PUSH0 SWAP1 SLOAD SWAP1 PUSH2 0x100 EXP SWAP1 DIV PUSH20 0xFFFFFFFFFFFFFFFFFFFFFFFFFFFFFFFFFFFFFFFF AND PUSH20 0xFFFFFFFFFFFFFFFFFFFFFFFFFFFFFFFFFFFFFFFF AND CALLER PUSH20 0xFFFFFFFFFFFFFFFFFFFFFFFFFFFFFFFFFFFFFFFF AND EQ PUSH2 0x1665 JUMPI PUSH1 0x40 MLOAD PUSH32 0x8C379A000000000000000000000000000000000000000000000000000000000 DUP2 MSTORE PUSH1 0x4 ADD PUSH2 0x165C SWAP1 PUSH2 0x2277 JUMP JUMPDEST PUSH1 0x40 MLOAD DUP1 SWAP2 SUB SWAP1 REVERT JUMPDEST PUSH0 PUSH20 0xFFFFFFFFFFFFFFFFFFFFFFFFFFFFFFFFFFFFFFFF AND DUP2 PUSH20 0xFFFFFFFFFFFFFFFFFFFFFFFFFFFFFFFFFFFFFFFF AND SUB PUSH2 0x16D3 JUMPI PUSH1 0x40 MLOAD PUSH32 0x8C379A000000000000000000000000000000000000000000000000000000000 DUP2 MSTORE PUSH1 0x4 ADD PUSH2 0x16CA SWAP1 PUSH2 0x23D6 JUMP JUMPDEST PUSH1 0x40 MLOAD DUP1 SWAP2 SUB SWAP1 REVERT JUMPDEST DUP1 PUSH1 0x3 PUSH0 PUSH2 0x100 EXP DUP2 SLOAD DUP2 PUSH20 0xFFFFFFFFFFFFFFFFFFFFFFFFFFFFFFFFFFFFFFFF MUL NOT AND SWAP1 DUP4 PUSH20 0xFFFFFFFFFFFFFFFFFFFFFFFFFFFFFFFFFFFFFFFF AND MUL OR SWAP1 SSTORE POP PUSH32 0x7CFAD8B150BE9751A5386CC4E0F549618032FF63D14FAB4F77CD4B0AAAEDC242 PUSH1 0x2 SLOAD DUP3 PUSH1 0x40 MLOAD PUSH2 0x1746 SWAP3 SWAP2 SWAP1 PUSH2 0x22FD JUMP JUMPDEST PUSH1 0x40 MLOAD DUP1 SWAP2 SUB SWAP1 LOG1 POP JUMP JUMPDEST PUSH1 0x2 PUSH0 SLOAD SUB PUSH2 0x1795 JUMPI PUSH1 0x40 MLOAD PUSH32 0x8C379A000000000000000000000000000000000000000000000000000000000 DUP2 MSTORE PUSH1 0x4 ADD PUSH2 0x178C SWAP1 PUSH2 0x243E JUMP JUMPDEST PUSH1 0x40 MLOAD DUP1 SWAP2 SUB SWAP1 REVERT JUMPDEST PUSH1 0x2 PUSH0 DUP2 SWAP1 SSTORE POP JUMP JUMPDEST PUSH1 0x1 PUSH0 DUP2 SWAP1 SSTORE POP JUMP JUMPDEST PUSH1 0x40 MLOAD DUP1 PUSH1 0xE0 ADD PUSH1 0x40 MSTORE DUP1 PUSH0 PUSH20 0xFFFFFFFFFFFFFFFFFFFFFFFFFFFFFFFFFFFFFFFF AND DUP2 MSTORE PUSH1 0x20 ADD PUSH0 PUSH20 0xFFFFFFFFFFFFFFFFFFFFFFFFFFFFFFFFFFFFFFFF AND DUP2 MSTORE PUSH1 0x20 ADD PUSH0 DUP2 MSTORE PUSH1 0x20 ADD PUSH0 DUP2 MSTORE PUSH1 0x20 ADD PUSH0 PUSH20 0xFFFFFFFFFFFFFFFFFFFFFFFFFFFFFFFFFFFFFFFF AND DUP2 MSTORE PUSH1 0x20 ADD PUSH0 DUP2 MSTORE PUSH1 0x20 ADD PUSH0 ISZERO ISZERO DUP2 MSTORE POP SWAP1 JUMP JUMPDEST PUSH0 DUP3 DUP3 MSTORE PUSH1 0x20 DUP3 ADD SWAP1 POP SWAP3 SWAP2 POP POP JUMP JUMPDEST PUSH32 0x44697265637420455448206E6F74206163636570746564000000000000000000 PUSH0 DUP3 ADD MSTORE POP JUMP JUMPDEST PUSH0 PUSH2 0x1865 PUSH1 0x17 DUP4 PUSH2 0x1821 JUMP JUMPDEST SWAP2 POP PUSH2 0x1870 DUP3 PUSH2 0x1831 JUMP JUMPDEST PUSH1 0x20 DUP3 ADD SWAP1 POP SWAP2 SWAP1 POP JUMP JUMPDEST PUSH0 PUSH1 0x20 DUP3 ADD SWAP1 POP DUP2 DUP2 SUB PUSH0 DUP4 ADD MSTORE PUSH2 0x1892 DUP2 PUSH2 0x1859 JUMP JUMPDEST SWAP1 POP SWAP2 SWAP1 POP JUMP JUMPDEST PUSH32 0x556E6B6E6F776E2066756E6374696F6E00000000000000000000000000000000 PUSH0 DUP3 ADD MSTORE POP JUMP JUMPDEST PUSH0 PUSH2 0x18CD PUSH1 0x10 DUP4 PUSH2 0x1821 JUMP JUMPDEST SWAP2 POP PUSH2 0x18D8 DUP3 PUSH2 0x1899 JUMP JUMPDEST PUSH1 0x20 DUP3 ADD SWAP1 POP SWAP2 SWAP1 POP JUMP JUMPDEST PUSH0 PUSH1 0x20 DUP3 ADD SWAP1 POP DUP2 DUP2 SUB PUSH0 DUP4 ADD MSTORE PUSH2 0x18FA DUP2 PUSH2 0x18C1 JUMP JUMPDEST SWAP1 POP SWAP2 SWAP1 POP JUMP JUMPDEST PUSH0 PUSH0 REVERT JUMPDEST PUSH0 PUSH20 0xFFFFFFFFFFFFFFFFFFFFFFFFFFFFFFFFFFFFFFFF DUP3 AND SWAP1 POP SWAP2 SWAP1 POP JUMP JUMPDEST PUSH0 PUSH2 0x192E DUP3 PUSH2 0x1905 JUMP JUMPDEST SWAP1 POP SWAP2 SWAP1 POP JUMP JUMPDEST PUSH2 0x193E DUP2 PUSH2 0x1924 JUMP JUMPDEST DUP2 EQ PUSH2 0x1948 JUMPI PUSH0 PUSH0 REVERT JUMPDEST POP JUMP JUMPDEST PUSH0 DUP2 CALLDATALOAD SWAP1 POP PUSH2 0x1959 DUP2 PUSH2 0x1935 JUMP JUMPDEST SWAP3 SWAP2 POP POP JUMP JUMPDEST PUSH0 DUP2 SWAP1 POP SWAP2 SWAP1 POP JUMP JUMPDEST PUSH2 0x1971 DUP2 PUSH2 0x195F JUMP JUMPDEST DUP2 EQ PUSH2 0x197B JUMPI PUSH0 PUSH0 REVERT JUMPDEST POP JUMP JUMPDEST PUSH0 DUP2 CALLDATALOAD SWAP1 POP PUSH2 0x198C DUP2 PUSH2 0x1968 JUMP JUMPDEST SWAP3 SWAP2 POP POP JUMP JUMPDEST PUSH0 PUSH0 PUSH1 0x40 DUP4 DUP6 SUB SLT ISZERO PUSH2 0x19A8 JUMPI PUSH2 0x19A7 PUSH2 0x1901 JUMP JUMPDEST JUMPDEST PUSH0 PUSH2 0x19B5 DUP6 DUP3 DUP7 ADD PUSH2 0x194B JUMP JUMPDEST SWAP3 POP POP PUSH1 0x20 PUSH2 0x19C6 DUP6 DUP3 DUP7 ADD PUSH2 0x197E JUMP JUMPDEST SWAP2 POP POP SWAP3 POP SWAP3 SWAP1 POP JUMP JUMPDEST PUSH2 0x19D9 DUP2 PUSH2 0x1924 JUMP JUMPDEST DUP3 MSTORE POP POP JUMP JUMPDEST PUSH2 0x19E8 DUP2 PUSH2 0x195F JUMP JUMPDEST DUP3 MSTORE POP POP JUMP JUMPDEST PUSH0 DUP2 ISZERO ISZERO SWAP1 POP SWAP2 SWAP1 POP JUMP JUMPDEST PUSH2 0x1A02 DUP2 PUSH2 0x19EE JUMP JUMPDEST DUP3 MSTORE POP POP JUMP JUMPDEST PUSH0 PUSH1 0xE0 DUP3 ADD SWAP1 POP PUSH2 0x1A1B PUSH0 DUP4 ADD DUP11 PUSH2 0x19D0 JUMP JUMPDEST PUSH2 0x1A28 PUSH1 0x20 DUP4 ADD DUP10 PUSH2 0x19D0 JUMP JUMPDEST PUSH2 0x1A35 PUSH1 0x40 DUP4 ADD DUP9 PUSH2 0x19DF JUMP JUMPDEST PUSH2 0x1A42 PUSH1 0x60 DUP4 ADD DUP8 PUSH2 0x19DF JUMP JUMPDEST PUSH2 0x1A4F PUSH1 0x80 DUP4 ADD DUP7 PUSH2 0x19D0 JUMP JUMPDEST PUSH2 0x1A5C PUSH1 0xA0 DUP4 ADD DUP6 PUSH2 0x19DF JUMP JUMPDEST PUSH2 0x1A69 PUSH1 0xC0 DUP4 ADD DUP5 PUSH2 0x19F9 JUMP JUMPDEST SWAP9 SWAP8 POP POP POP POP POP POP POP POP JUMP JUMPDEST PUSH0 PUSH1 0x20 DUP3 ADD SWAP1 POP PUSH2 0x1A88 PUSH0 DUP4 ADD DUP5 PUSH2 0x19DF JUMP JUMPDEST SWAP3 SWAP2 POP POP JUMP JUMPDEST PUSH0 PUSH1 0x20 DUP3 ADD SWAP1 POP PUSH2 0x1AA1 PUSH0 DUP4 ADD DUP5 PUSH2 0x19D0 JUMP JUMPDEST SWAP3 SWAP2 POP POP JUMP JUMPDEST PUSH0 PUSH0 PUSH0 PUSH0 PUSH0 PUSH1 0xA0 DUP7 DUP9 SUB SLT ISZERO PUSH2 0x1AC0 JUMPI PUSH2 0x1ABF PUSH2 0x1901 JUMP JUMPDEST JUMPDEST PUSH0 PUSH2 0x1ACD DUP9 DUP3 DUP10 ADD PUSH2 0x194B JUMP JUMPDEST SWAP6 POP POP PUSH1 0x20 PUSH2 0x1ADE DUP9 DUP3 DUP10 ADD PUSH2 0x197E JUMP JUMPDEST SWAP5 POP POP PUSH1 0x40 PUSH2 0x1AEF DUP9 DUP3 DUP10 ADD PUSH2 0x197E JUMP JUMPDEST SWAP4 POP POP PUSH1 0x60 PUSH2 0x1B00 DUP9 DUP3 DUP10 ADD PUSH2 0x194B JUMP JUMPDEST SWAP3 POP POP PUSH1 0x80 PUSH2 0x1B11 DUP9 DUP3 DUP10 ADD PUSH2 0x197E JUMP JUMPDEST SWAP2 POP POP SWAP3 SWAP6 POP SWAP3 SWAP6 SWAP1 SWAP4 POP JUMP JUMPDEST PUSH2 0x1B27 DUP2 PUSH2 0x1924 JUMP JUMPDEST DUP3 MSTORE POP POP JUMP JUMPDEST PUSH2 0x1B36 DUP2 PUSH2 0x195F JUMP JUMPDEST DUP3 MSTORE POP POP JUMP JUMPDEST PUSH2 0x1B45 DUP2 PUSH2 0x19EE JUMP JUMPDEST DUP3 MSTORE POP POP JUMP JUMPDEST PUSH1 0xE0 DUP3 ADD PUSH0 DUP3 ADD MLOAD PUSH2 0x1B5F PUSH0 DUP6 ADD DUP3 PUSH2 0x1B1E JUMP JUMPDEST POP PUSH1 0x20 DUP3 ADD MLOAD PUSH2 0x1B72 PUSH1 0x20 DUP6 ADD DUP3 PUSH2 0x1B1E JUMP JUMPDEST POP PUSH1 0x40 DUP3 ADD MLOAD PUSH2 0x1B85 PUSH1 0x40 DUP6 ADD DUP3 PUSH2 0x1B2D JUMP JUMPDEST POP PUSH1 0x60 DUP3 ADD MLOAD PUSH2 0x1B98 PUSH1 0x60 DUP6 ADD DUP3 PUSH2 0x1B2D JUMP JUMPDEST POP PUSH1 0x80 DUP3 ADD MLOAD PUSH2 0x1BAB PUSH1 0x80 DUP6 ADD DUP3 PUSH2 0x1B1E JUMP JUMPDEST POP PUSH1 0xA0 DUP3 ADD MLOAD PUSH2 0x1BBE PUSH1 0xA0 DUP6 ADD DUP3 PUSH2 0x1B2D JUMP JUMPDEST POP PUSH1 0xC0 DUP3 ADD MLOAD PUSH2 0x1BD1 PUSH1 0xC0 DUP6 ADD DUP3 PUSH2 0x1B3C JUMP JUMPDEST POP POP POP POP JUMP JUMPDEST PUSH0 PUSH1 0xE0 DUP3 ADD SWAP1 POP PUSH2 0x1BEA PUSH0 DUP4 ADD DUP5 PUSH2 0x1B4B JUMP JUMPDEST SWAP3 SWAP2 POP POP JUMP JUMPDEST PUSH0 PUSH1 0x20 DUP3 DUP5 SUB SLT ISZERO PUSH2 0x1C05 JUMPI PUSH2 0x1C04 PUSH2 0x1901 JUMP JUMPDEST JUMPDEST PUSH0 PUSH2 0x1C12 DUP5 DUP3 DUP6 ADD PUSH2 0x197E JUMP JUMPDEST SWAP2 POP POP SWAP3 SWAP2 POP POP JUMP JUMPDEST PUSH0 PUSH1 0x20 DUP3 DUP5 SUB SLT ISZERO PUSH2 0x1C30 JUMPI PUSH2 0x1C2F PUSH2 0x1901 JUMP JUMPDEST JUMPDEST PUSH0 PUSH2 0x1C3D DUP5 DUP3 DUP6 ADD PUSH2 0x194B JUMP JUMPDEST SWAP2 POP POP SWAP3 SWAP2 POP POP JUMP JUMPDEST PUSH32 0x5072696365206D7573742062652061626F7665207A65726F0000000000000000 PUSH0 DUP3 ADD MSTORE POP JUMP JUMPDEST PUSH0 PUSH2 0x1C7A PUSH1 0x18 DUP4 PUSH2 0x1821 JUMP JUMPDEST SWAP2 POP PUSH2 0x1C85 DUP3 PUSH2 0x1C46 JUMP JUMPDEST PUSH1 0x20 DUP3 ADD SWAP1 POP SWAP2 SWAP1 POP JUMP JUMPDEST PUSH0 PUSH1 0x20 DUP3 ADD SWAP1 POP DUP2 DUP2 SUB PUSH0 DUP4 ADD MSTORE PUSH2 0x1CA7 DUP2 PUSH2 0x1C6E JUMP JUMPDEST SWAP1 POP SWAP2 SWAP1 POP JUMP JUMPDEST PUSH32 0x4D61782031302520726F79616C747920616C6C6F776564000000000000000000 PUSH0 DUP3 ADD MSTORE POP JUMP JUMPDEST PUSH0 PUSH2 0x1CE2 PUSH1 0x17 DUP4 PUSH2 0x1821 JUMP JUMPDEST SWAP2 POP PUSH2 0x1CED DUP3 PUSH2 0x1CAE JUMP JUMPDEST PUSH1 0x20 DUP3 ADD SWAP1 POP SWAP2 SWAP1 POP JUMP JUMPDEST PUSH0 PUSH1 0x20 DUP3 ADD SWAP1 POP DUP2 DUP2 SUB PUSH0 DUP4 ADD MSTORE PUSH2 0x1D0F DUP2 PUSH2 0x1CD6 JUMP JUMPDEST SWAP1 POP SWAP2 SWAP1 POP JUMP JUMPDEST PUSH32 0x416C7265616479206C6973746564000000000000000000000000000000000000 PUSH0 DUP3 ADD MSTORE POP JUMP JUMPDEST PUSH0 PUSH2 0x1D4A PUSH1 0xE DUP4 PUSH2 0x1821 JUMP JUMPDEST SWAP2 POP PUSH2 0x1D55 DUP3 PUSH2 0x1D16 JUMP JUMPDEST PUSH1 0x20 DUP3 ADD SWAP1 POP SWAP2 SWAP1 POP JUMP JUMPDEST PUSH0 PUSH1 0x20 DUP3 ADD SWAP1 POP DUP2 DUP2 SUB PUSH0 DUP4 ADD MSTORE PUSH2 0x1D77 DUP2 PUSH2 0x1D3E JUMP JUMPDEST SWAP1 POP SWAP2 SWAP1 POP JUMP JUMPDEST PUSH0 DUP2 MLOAD SWAP1 POP PUSH2 0x1D8C DUP2 PUSH2 0x1935 JUMP JUMPDEST SWAP3 SWAP2 POP POP JUMP JUMPDEST PUSH0 PUSH1 0x20 DUP3 DUP5 SUB SLT ISZERO PUSH2 0x1DA7 JUMPI PUSH2 0x1DA6 PUSH2 0x1901 JUMP JUMPDEST JUMPDEST PUSH0 PUSH2 0x1DB4 DUP5 DUP3 DUP6 ADD PUSH2 0x1D7E JUMP JUMPDEST SWAP2 POP POP SWAP3 SWAP2 POP POP JUMP JUMPDEST PUSH32 0x4E6F7420746865206F776E657200000000000000000000000000000000000000 PUSH0 DUP3 ADD MSTORE POP JUMP JUMPDEST PUSH0 PUSH2 0x1DF1 PUSH1 0xD DUP4 PUSH2 0x1821 JUMP JUMPDEST SWAP2 POP PUSH2 0x1DFC DUP3 PUSH2 0x1DBD JUMP JUMPDEST PUSH1 0x20 DUP3 ADD SWAP1 POP SWAP2 SWAP1 POP JUMP JUMPDEST PUSH0 PUSH1 0x20 DUP3 ADD SWAP1 POP DUP2 DUP2 SUB PUSH0 DUP4 ADD MSTORE PUSH2 0x1E1E DUP2 PUSH2 0x1DE5 JUMP JUMPDEST SWAP1 POP SWAP2 SWAP1 POP JUMP JUMPDEST PUSH0 PUSH1 0x40 DUP3 ADD SWAP1 POP PUSH2 0x1E38 PUSH0 DUP4 ADD DUP6 PUSH2 0x19D0 JUMP JUMPDEST PUSH2 0x1E45 PUSH1 0x20 DUP4 ADD DUP5 PUSH2 0x19D0 JUMP JUMPDEST SWAP4 SWAP3 POP POP POP JUMP JUMPDEST PUSH2 0x1E55 DUP2 PUSH2 0x19EE JUMP JUMPDEST DUP2 EQ PUSH2 0x1E5F JUMPI PUSH0 PUSH0 REVERT JUMPDEST POP JUMP JUMPDEST PUSH0 DUP2 MLOAD SWAP1 POP PUSH2 0x1E70 DUP2 PUSH2 0x1E4C JUMP JUMPDEST SWAP3 SWAP2 POP POP JUMP JUMPDEST PUSH0 PUSH1 0x20 DUP3 DUP5 SUB SLT ISZERO PUSH2 0x1E8B JUMPI PUSH2 0x1E8A PUSH2 0x1901 JUMP JUMPDEST JUMPDEST PUSH0 PUSH2 0x1E98 DUP5 DUP3 DUP6 ADD PUSH2 0x1E62 JUMP JUMPDEST SWAP2 POP POP SWAP3 SWAP2 POP POP JUMP JUMPDEST PUSH32 0x4D61726B6574706C616365206E6F7420617070726F7665640000000000000000 PUSH0 DUP3 ADD MSTORE POP JUMP JUMPDEST PUSH0 PUSH2 0x1ED5 PUSH1 0x18 DUP4 PUSH2 0x1821 JUMP JUMPDEST SWAP2 POP PUSH2 0x1EE0 DUP3 PUSH2 0x1EA1 JUMP JUMPDEST PUSH1 0x20 DUP3 ADD SWAP1 POP SWAP2 SWAP1 POP JUMP JUMPDEST PUSH0 PUSH1 0x20 DUP3 ADD SWAP1 POP DUP2 DUP2 SUB PUSH0 DUP4 ADD MSTORE PUSH2 0x1F02 DUP2 PUSH2 0x1EC9 JUMP JUMPDEST SWAP1 POP SWAP2 SWAP1 POP JUMP JUMPDEST PUSH0 PUSH1 0x60 DUP3 ADD SWAP1 POP PUSH2 0x1F1C PUSH0 DUP4 ADD DUP7 PUSH2 0x19DF JUMP JUMPDEST PUSH2 0x1F29 PUSH1 0x20 DUP4 ADD DUP6 PUSH2 0x19D0 JUMP JUMPDEST PUSH2 0x1F36 PUSH1 0x40 DUP4 ADD DUP5 PUSH2 0x19DF JUMP JUMPDEST SWAP5 SWAP4 POP POP POP POP JUMP JUMPDEST PUSH32 0x4E6F74206C697374656400000000000000000000000000000000000000000000 PUSH0 DUP3 ADD MSTORE POP JUMP JUMPDEST PUSH0 PUSH2 0x1F72 PUSH1 0xA DUP4 PUSH2 0x1821 JUMP JUMPDEST SWAP2 POP PUSH2 0x1F7D DUP3 PUSH2 0x1F3E JUMP JUMPDEST PUSH1 0x20 DUP3 ADD SWAP1 POP SWAP2 SWAP1 POP JUMP JUMPDEST PUSH0 PUSH1 0x20 DUP3 ADD SWAP1 POP DUP2 DUP2 SUB PUSH0 DUP4 ADD MSTORE PUSH2 0x1F9F DUP2 PUSH2 0x1F66 JUMP JUMPDEST SWAP1 POP SWAP2 SWAP1 POP JUMP JUMPDEST PUSH32 0x496E636F7272656374204554482073656E740000000000000000000000000000 PUSH0 DUP3 ADD MSTORE POP JUMP JUMPDEST PUSH0 PUSH2 0x1FDA PUSH1 0x12 DUP4 PUSH2 0x1821 JUMP JUMPDEST SWAP2 POP PUSH2 0x1FE5 DUP3 PUSH2 0x1FA6 JUMP JUMPDEST PUSH1 0x20 DUP3 ADD SWAP1 POP SWAP2 SWAP1 POP JUMP JUMPDEST PUSH0 PUSH1 0x20 DUP3 ADD SWAP1 POP DUP2 DUP2 SUB PUSH0 DUP4 ADD MSTORE PUSH2 0x2007 DUP2 PUSH2 0x1FCE JUMP JUMPDEST SWAP1 POP SWAP2 SWAP1 POP JUMP JUMPDEST PUSH32 0x4E487B7100000000000000000000000000000000000000000000000000000000 PUSH0 MSTORE PUSH1 0x11 PUSH1 0x4 MSTORE PUSH1 0x24 PUSH0 REVERT JUMPDEST PUSH0 PUSH2 0x2045 DUP3 PUSH2 0x195F JUMP JUMPDEST SWAP2 POP PUSH2 0x2050 DUP4 PUSH2 0x195F JUMP JUMPDEST SWAP3 POP DUP3 DUP3 ADD SWAP1 POP DUP1 DUP3 GT ISZERO PUSH2 0x2068 JUMPI PUSH2 0x2067 PUSH2 0x200E JUMP JUMPDEST JUMPDEST SWAP3 SWAP2 POP POP JUMP JUMPDEST PUSH32 0x436F6D62696E6564206665657320657863656564203130302500000000000000 PUSH0 DUP3 ADD MSTORE POP JUMP JUMPDEST PUSH0 PUSH2 0x20A2 PUSH1 0x19 DUP4 PUSH2 0x1821 JUMP JUMPDEST SWAP2 POP PUSH2 0x20AD DUP3 PUSH2 0x206E JUMP JUMPDEST PUSH1 0x20 DUP3 ADD SWAP1 POP SWAP2 SWAP1 POP JUMP JUMPDEST PUSH0 PUSH1 0x20 DUP3 ADD SWAP1 POP DUP2 DUP2 SUB PUSH0 DUP4 ADD MSTORE PUSH2 0x20CF DUP2 PUSH2 0x2096 JUMP JUMPDEST SWAP1 POP SWAP2 SWAP1 POP JUMP JUMPDEST PUSH0 PUSH2 0x20E0 DUP3 PUSH2 0x195F JUMP JUMPDEST SWAP2 POP PUSH2 0x20EB DUP4 PUSH2 0x195F JUMP JUMPDEST SWAP3 POP DUP3 DUP3 MUL PUSH2 0x20F9 DUP2 PUSH2 0x195F JUMP JUMPDEST SWAP2 POP DUP3 DUP3 DIV DUP5 EQ DUP4 ISZERO OR PUSH2 0x2110 JUMPI PUSH2 0x210F PUSH2 0x200E JUMP JUMPDEST JUMPDEST POP SWAP3 SWAP2 POP POP JUMP JUMPDEST PUSH32 0x4E487B7100000000000000000000000000000000000000000000000000000000 PUSH0 MSTORE PUSH1 0x12 PUSH1 0x4 MSTORE PUSH1 0x24 PUSH0 REVERT JUMPDEST PUSH0 PUSH2 0x214E DUP3 PUSH2 0x195F JUMP JUMPDEST SWAP2 POP PUSH2 0x2159 DUP4 PUSH2 0x195F JUMP JUMPDEST SWAP3 POP DUP3 PUSH2 0x2169 JUMPI PUSH2 0x2168 PUSH2 0x2117 JUMP JUMPDEST JUMPDEST DUP3 DUP3 DIV SWAP1 POP SWAP3 SWAP2 POP POP JUMP JUMPDEST PUSH0 PUSH2 0x217E DUP3 PUSH2 0x195F JUMP JUMPDEST SWAP2 POP PUSH2 0x2189 DUP4 PUSH2 0x195F JUMP JUMPDEST SWAP3 POP DUP3 DUP3 SUB SWAP1 POP DUP2 DUP2 GT ISZERO PUSH2 0x21A1 JUMPI PUSH2 0x21A0 PUSH2 0x200E JUMP JUMPDEST JUMPDEST SWAP3 SWAP2 POP POP JUMP JUMPDEST PUSH0 PUSH1 0x60 DUP3 ADD SWAP1 POP PUSH2 0x21BA PUSH0 DUP4 ADD DUP7 PUSH2 0x19D0 JUMP JUMPDEST PUSH2 0x21C7 PUSH1 0x20 DUP4 ADD DUP6 PUSH2 0x19D0 JUMP JUMPDEST PUSH2 0x21D4 PUSH1 0x40 DUP4 ADD DUP5 PUSH2 0x19DF JUMP JUMPDEST SWAP5 SWAP4 POP POP POP POP JUMP JUMPDEST PUSH0 PUSH1 0xA0 DUP3 ADD SWAP1 POP PUSH2 0x21EF PUSH0 DUP4 ADD DUP9 PUSH2 0x19DF JUMP JUMPDEST PUSH2 0x21FC PUSH1 0x20 DUP4 ADD DUP8 PUSH2 0x19D0 JUMP JUMPDEST PUSH2 0x2209 PUSH1 0x40 DUP4 ADD DUP7 PUSH2 0x19D0 JUMP JUMPDEST PUSH2 0x2216 PUSH1 0x60 DUP4 ADD DUP6 PUSH2 0x19DF JUMP JUMPDEST PUSH2 0x2223 PUSH1 0x80 DUP4 ADD DUP5 PUSH2 0x19DF JUMP JUMPDEST SWAP7 SWAP6 POP POP POP POP POP POP JUMP JUMPDEST PUSH32 0x4F6E6C79206F776E657200000000000000000000000000000000000000000000 PUSH0 DUP3 ADD MSTORE POP JUMP JUMPDEST PUSH0 PUSH2 0x2261 PUSH1 0xA DUP4 PUSH2 0x1821 JUMP JUMPDEST SWAP2 POP PUSH2 0x226C DUP3 PUSH2 0x222D JUMP JUMPDEST PUSH1 0x20 DUP3 ADD SWAP1 POP SWAP2 SWAP1 POP JUMP JUMPDEST PUSH0 PUSH1 0x20 DUP3 ADD SWAP1 POP DUP2 DUP2 SUB PUSH0 DUP4 ADD MSTORE PUSH2 0x228E DUP2 PUSH2 0x2255 JUMP JUMPDEST SWAP1 POP SWAP2 SWAP1 POP JUMP JUMPDEST PUSH32 0x4D61726B6574706C6163652066656520746F6F20686967680000000000000000 PUSH0 DUP3 ADD MSTORE POP JUMP JUMPDEST PUSH0 PUSH2 0x22C9 PUSH1 0x18 DUP4 PUSH2 0x1821 JUMP JUMPDEST SWAP2 POP PUSH2 0x22D4 DUP3 PUSH2 0x2295 JUMP JUMPDEST PUSH1 0x20 DUP3 ADD SWAP1 POP SWAP2 SWAP1 POP JUMP JUMPDEST PUSH0 PUSH1 0x20 DUP3 ADD SWAP1 POP DUP2 DUP2 SUB PUSH0 DUP4 ADD MSTORE PUSH2 0x22F6 DUP2 PUSH2 0x22BD JUMP JUMPDEST SWAP1 POP SWAP2 SWAP1 POP JUMP JUMPDEST PUSH0 PUSH1 0x40 DUP3 ADD SWAP1 POP PUSH2 0x2310 PUSH0 DUP4 ADD DUP6 PUSH2 0x19DF JUMP JUMPDEST PUSH2 0x231D PUSH1 0x20 DUP4 ADD DUP5 PUSH2 0x19D0 JUMP JUMPDEST SWAP4 SWAP3 POP POP POP JUMP JUMPDEST PUSH32 0x4E6F74207468652073656C6C6572000000000000000000000000000000000000 PUSH0 DUP3 ADD MSTORE POP JUMP JUMPDEST PUSH0 PUSH2 0x2358 PUSH1 0xE DUP4 PUSH2 0x1821 JUMP JUMPDEST SWAP2 POP PUSH2 0x2363 DUP3 PUSH2 0x2324 JUMP JUMPDEST PUSH1 0x20 DUP3 ADD SWAP1 POP SWAP2 SWAP1 POP JUMP JUMPDEST PUSH0 PUSH1 0x20 DUP3 ADD SWAP1 POP DUP2 DUP2 SUB PUSH0 DUP4 ADD MSTORE PUSH2 0x2385 DUP2 PUSH2 0x234C JUMP JUMPDEST SWAP1 POP SWAP2 SWAP1 POP JUMP JUMPDEST PUSH32 0x496E76616C69642066656520726563697069656E740000000000000000000000 PUSH0 DUP3 ADD MSTORE POP JUMP JUMPDEST PUSH0 PUSH2 0x23C0 PUSH1 0x15 DUP4 PUSH2 0x1821 JUMP JUMPDEST SWAP2 POP PUSH2 0x23CB DUP3 PUSH2 0x238C JUMP JUMPDEST PUSH1 0x20 DUP3 ADD SWAP1 POP SWAP2 SWAP1 POP JUMP JUMPDEST PUSH0 PUSH1 0x20 DUP3 ADD SWAP1 POP DUP2 DUP2 SUB PUSH0 DUP4 ADD MSTORE PUSH2 0x23ED DUP2 PUSH2 0x23B4 JUMP JUMPDEST SWAP1 POP SWAP2 SWAP1 POP JUMP JUMPDEST PUSH32 0x5265656E7472616E637947756172643A207265656E7472616E742063616C6C00 PUSH0 DUP3 ADD MSTORE POP JUMP JUMPDEST PUSH0 PUSH2 0x2428 PUSH1 0x1F DUP4 PUSH2 0x1821 JUMP JUMPDEST SWAP2 POP PUSH2 0x2433 DUP3 PUSH2 0x23F4 JUMP JUMPDEST PUSH1 0x20 DUP3 ADD SWAP1 POP SWAP2 SWAP1 POP JUMP JUMPDEST PUSH0 PUSH1 0x20 DUP3 ADD SWAP1 POP DUP2 DUP2 SUB PUSH0 DUP4 ADD MSTORE PUSH2 0x2455 DUP2 PUSH2 0x241C JUMP JUMPDEST SWAP1 POP SWAP2 SWAP1 POP JUMP INVALID LOG2 PUSH5 0x6970667358 0x22 SLT KECCAK256 REVERT DUP2 CODESIZE 0xC6 0x2A EXTCODEHASH CALLVALUE SAR PUSH31 0x9B22B3D080BC9052722C3979947C34EEC34EB8A5E6BFAD64736F6C63430008 0x1E STOP CALLER "
				},
				"gasEstimates": {
					"creation": {
						"codeDepositCost": "1872400",
						"executionCost": "infinite",
						"totalCost": "infinite"
					},
					"external": {
						"": "489",
						"buyNFT(address,uint256)": "infinite",
						"cancelListing(address,uint256)": "130136",
						"feeRecipient()": "2553",
						"getListing(address,uint256)": "infinite",
						"listNFT(address,uint256,uint256,address,uint256)": "infinite",
						"listings(address,uint256)": "infinite",
						"marketplaceFeePercent()": "2448",
						"owner()": "2508",
						"setFeeRecipient(address)": "infinite",
						"setMarketplaceFeePercent(uint256)": "infinite"
					}
				},
				"methodIdentifiers": {
					"buyNFT(address,uint256)": "a82ba76f",
					"cancelListing(address,uint256)": "b2ddee06",
					"feeRecipient()": "46904840",
					"getListing(address,uint256)": "88700d1c",
					"listNFT(address,uint256,uint256,address,uint256)": "86b8865c",
					"listings(address,uint256)": "0007df30",
					"marketplaceFeePercent()": "38d73b0d",
					"owner()": "8da5cb5b",
					"setFeeRecipient(address)": "e74b981b",
					"setMarketplaceFeePercent(uint256)": "a9124451"
				}
			},
			"storageLayout": {
				"storage": [
					{
						"astId": 10,
						"contract": "submissions/Zora/Day26NFTMarketplace.sol:NFTMarketplace",
						"label": "_status",
						"offset": 0,
						"slot": "0",
						"type": "t_uint256"
					},
					{
						"astId": 201,
						"contract": "submissions/Zora/Day26NFTMarketplace.sol:NFTMarketplace",
						"label": "owner",
						"offset": 0,
						"slot": "1",
						"type": "t_address"
					},
					{
						"astId": 203,
						"contract": "submissions/Zora/Day26NFTMarketplace.sol:NFTMarketplace",
						"label": "marketplaceFeePercent",
						"offset": 0,
						"slot": "2",
						"type": "t_uint256"
					},
					{
						"astId": 205,
						"contract": "submissions/Zora/Day26NFTMarketplace.sol:NFTMarketplace",
						"label": "feeRecipient",
						"offset": 0,
						"slot": "3",
						"type": "t_address"
					},
					{
						"astId": 227,
						"contract": "submissions/Zora/Day26NFTMarketplace.sol:NFTMarketplace",
						"label": "listings",
						"offset": 0,
						"slot": "4",
						"type": "t_mapping(t_address,t_mapping(t_uint256,t_struct(Listing)220_storage))"
					}
				],
				"types": {
					"t_address": {
						"encoding": "inplace",
						"label": "address",
						"numberOfBytes": "20"
					},
					"t_bool": {
						"encoding": "inplace",
						"label": "bool",
						"numberOfBytes": "1"
					},
					"t_mapping(t_address,t_mapping(t_uint256,t_struct(Listing)220_storage))": {
						"encoding": "mapping",
						"key": "t_address",
						"label": "mapping(address => mapping(uint256 => struct NFTMarketplace.Listing))",
						"numberOfBytes": "32",
						"value": "t_mapping(t_uint256,t_struct(Listing)220_storage)"
					},
					"t_mapping(t_uint256,t_struct(Listing)220_storage)": {
						"encoding": "mapping",
						"key": "t_uint256",
						"label": "mapping(uint256 => struct NFTMarketplace.Listing)",
						"numberOfBytes": "32",
						"value": "t_struct(Listing)220_storage"
					},
					"t_struct(Listing)220_storage": {
						"encoding": "inplace",
						"label": "struct NFTMarketplace.Listing",
						"members": [
							{
								"astId": 207,
								"contract": "submissions/Zora/Day26NFTMarketplace.sol:NFTMarketplace",
								"label": "seller",
								"offset": 0,
								"slot": "0",
								"type": "t_address"
							},
							{
								"astId": 209,
								"contract": "submissions/Zora/Day26NFTMarketplace.sol:NFTMarketplace",
								"label": "nftAddress",
								"offset": 0,
								"slot": "1",
								"type": "t_address"
							},
							{
								"astId": 211,
								"contract": "submissions/Zora/Day26NFTMarketplace.sol:NFTMarketplace",
								"label": "tokenId",
								"offset": 0,
								"slot": "2",
								"type": "t_uint256"
							},
							{
								"astId": 213,
								"contract": "submissions/Zora/Day26NFTMarketplace.sol:NFTMarketplace",
								"label": "price",
								"offset": 0,
								"slot": "3",
								"type": "t_uint256"
							},
							{
								"astId": 215,
								"contract": "submissions/Zora/Day26NFTMarketplace.sol:NFTMarketplace",
								"label": "royaltyReceiver",
								"offset": 0,
								"slot": "4",
								"type": "t_address"
							},
							{
								"astId": 217,
								"contract": "submissions/Zora/Day26NFTMarketplace.sol:NFTMarketplace",
								"label": "royaltyPercent",
								"offset": 0,
								"slot": "5",
								"type": "t_uint256"
							},
							{
								"astId": 219,
								"contract": "submissions/Zora/Day26NFTMarketplace.sol:NFTMarketplace",
								"label": "isListed",
								"offset": 0,
								"slot": "6",
								"type": "t_bool"
							}
						],
						"numberOfBytes": "224"
					},
					"t_uint256": {
						"encoding": "inplace",
						"label": "uint256",
						"numberOfBytes": "32"
					}
				}
			},
			"userdoc": {
				"kind": "user",
				"methods": {},
				"version": 1
			}
		}
	}
}