{
	"submissions/Zora/Day30MiniDexPair.sol": {
		"MiniDexPair": {
			"abi": [
				{
					"inputs": [
						{
							"internalType": "address",
							"name": "_tokenA",
							"type": "address"
						},
						{
							"internalType": "address",
							"name": "_tokenB",
							"type": "address"
						}
					],
					"stateMutability": "nonpayable",
					"type": "constructor"
				},
				{
					"anonymous": false,
					"inputs": [
						{
							"indexed": true,
							"internalType": "address",
							"name": "provider",
							"type": "address"
						},
						{
							"indexed": false,
							"internalType": "uint256",
							"name": "amountA",
							"type": "uint256"
						},
						{
							"indexed": false,
							"internalType": "uint256",
							"name": "amountB",
							"type": "uint256"
						},
						{
							"indexed": false,
							"internalType": "uint256",
							"name": "lpMinted",
							"type": "uint256"
						}
					],
					"name": "LiquidityAdded",
					"type": "event"
				},
				{
					"anonymous": false,
					"inputs": [
						{
							"indexed": true,
							"internalType": "address",
							"name": "provider",
							"type": "address"
						},
						{
							"indexed": false,
							"internalType": "uint256",
							"name": "amountA",
							"type": "uint256"
						},
						{
							"indexed": false,
							"internalType": "uint256",
							"name": "amountB",
							"type": "uint256"
						},
						{
							"indexed": false,
							"internalType": "uint256",
							"name": "lpBurned",
							"type": "uint256"
						}
					],
					"name": "LiquidityRemoved",
					"type": "event"
				},
				{
					"anonymous": false,
					"inputs": [
						{
							"indexed": true,
							"internalType": "address",
							"name": "user",
							"type": "address"
						},
						{
							"indexed": false,
							"internalType": "address",
							"name": "inputToken",
							"type": "address"
						},
						{
							"indexed": false,
							"internalType": "uint256",
							"name": "inputAmount",
							"type": "uint256"
						},
						{
							"indexed": false,
							"internalType": "address",
							"name": "outputToken",
							"type": "address"
						},
						{
							"indexed": false,
							"internalType": "uint256",
							"name": "outputAmount",
							"type": "uint256"
						}
					],
					"name": "Swapped",
					"type": "event"
				},
				{
					"inputs": [
						{
							"internalType": "uint256",
							"name": "amountA",
							"type": "uint256"
						},
						{
							"internalType": "uint256",
							"name": "amountB",
							"type": "uint256"
						}
					],
					"name": "addLiquidity",
					"outputs": [],
					"stateMutability": "nonpayable",
					"type": "function"
				},
				{
					"inputs": [
						{
							"internalType": "uint256",
							"name": "inputAmount",
							"type": "uint256"
						},
						{
							"internalType": "address",
							"name": "inputToken",
							"type": "address"
						}
					],
					"name": "getAmountOut",
					"outputs": [
						{
							"internalType": "uint256",
							"name": "outputAmount",
							"type": "uint256"
						}
					],
					"stateMutability": "view",
					"type": "function"
				},
				{
					"inputs": [
						{
							"internalType": "address",
							"name": "user",
							"type": "address"
						}
					],
					"name": "getLPBalance",
					"outputs": [
						{
							"internalType": "uint256",
							"name": "",
							"type": "uint256"
						}
					],
					"stateMutability": "view",
					"type": "function"
				},
				{
					"inputs": [],
					"name": "getReserves",
					"outputs": [
						{
							"internalType": "uint256",
							"name": "",
							"type": "uint256"
						},
						{
							"internalType": "uint256",
							"name": "",
							"type": "uint256"
						}
					],
					"stateMutability": "view",
					"type": "function"
				},
				{
					"inputs": [],
					"name": "getTotalLPSupply",
					"outputs": [
						{
							"internalType": "uint256",
							"name": "",
							"type": "uint256"
						}
					],
					"stateMutability": "view",
					"type": "function"
				},
				{
					"inputs": [
						{
							"internalType": "address",
							"name": "",
							"type": "address"
						}
					],
					"name": "lpBalances",
					"outputs": [
						{
							"internalType": "uint256",
							"name": "",
							"type": "uint256"
						}
					],
					"stateMutability": "view",
					"type": "function"
				},
				{
					"inputs": [
						{
							"internalType": "uint256",
							"name": "lpAmount",
							"type": "uint256"
						}
					],
					"name": "removeLiquidity",
					"outputs": [],
					"stateMutability": "nonpayable",
					"type": "function"
				},
				{
					"inputs": [],
					"name": "reserveA",
					"outputs": [
						{
							"internalType": "uint256",
							"name": "",
							"type": "uint256"
						}
					],
					"stateMutability": "view",
					"type": "function"
				},
				{
					"inputs": [],
					"name": "reserveB",
					"outputs": [
						{
							"internalType": "uint256",
							"name": "",
							"type": "uint256"
						}
					],
					"stateMutability": "view",
					"type": "function"
				},
				{
					"inputs": [
						{
							"internalType": "uint256",
							"name": "inputAmount",
							"type": "uint256"
						},
						{
							"internalType": "address",
							"name": "inputToken",
							"type": "address"
						}
					],
					"name": "swap",
					"outputs": [],
					"stateMutability": "nonpayable",
					"type": "function"
				},
				{
					"inputs": [],
					"name": "tokenA",
					"outputs": [
						{
							"internalType": "address",
							"name": "",
							"type": "address"
						}
					],
					"stateMutability": "view",
					"type": "function"
				},
				{
					"inputs": [],
					"name": "tokenB",
					"outputs": [
						{
							"internalType": "address",
							"name": "",
							"type": "address"
						}
					],
					"stateMutability": "view",
					"type": "function"
				},
				{
					"inputs": [],
					"name": "totalLPSupply",
					"outputs": [
						{
							"internalType": "uint256",
							"name": "",
							"type": "uint256"
						}
					],
					"stateMutability": "view",
					"type": "function"
				}
			],
			"devdoc": {
				"kind": "dev",
				"methods": {},
				"version": 1
			},
			"evm": {
				"assembly": "    /* \"submissions/Zora/Day30MiniDexPair.sol\":185:5103  contract MiniDexPair is ReentrancyGuard {... */\n  mstore(0x40, 0xc0)\n    /* \"submissions/Zora/Day30MiniDexPair.sol\":916:1166  constructor(address _tokenA, address _tokenB) {... */\n  callvalue\n  dup1\n  iszero\n  tag_1\n  jumpi\n  revert(0x00, 0x00)\ntag_1:\n  pop\n  mload(0x40)\n  sub(codesize, bytecodeSize)\n  dup1\n  bytecodeSize\n  dup4\n  codecopy\n  dup2\n  dup2\n  add\n  0x40\n  mstore\n  dup2\n  add\n  swap1\n  tag_2\n  swap2\n  swap1\n  tag_3\n  jump\t// in\ntag_2:\n    /* \"@openzeppelin/contracts/security/ReentrancyGuard.sol\":1716:1717  1 */\n  0x01\n    /* \"@openzeppelin/contracts/security/ReentrancyGuard.sol\":1821:1828  _status */\n  0x00\n    /* \"@openzeppelin/contracts/security/ReentrancyGuard.sol\":1821:1843  _status = _NOT_ENTERED */\n  dup2\n  swap1\n  sstore\n  pop\n    /* \"submissions/Zora/Day30MiniDexPair.sol\":992:999  _tokenB */\n  dup1\n    /* \"submissions/Zora/Day30MiniDexPair.sol\":981:999  _tokenA != _tokenB */\n  0xffffffffffffffffffffffffffffffffffffffff\n  and\n    /* \"submissions/Zora/Day30MiniDexPair.sol\":981:988  _tokenA */\n  dup3\n    /* \"submissions/Zora/Day30MiniDexPair.sol\":981:999  _tokenA != _tokenB */\n  0xffffffffffffffffffffffffffffffffffffffff\n  and\n  sub\n    /* \"submissions/Zora/Day30MiniDexPair.sol\":973:1020  require(_tokenA != _tokenB, \"Identical tokens\") */\n  tag_8\n  jumpi\n  mload(0x40)\n  0x08c379a000000000000000000000000000000000000000000000000000000000\n  dup2\n  mstore\n  0x04\n  add\n  tag_9\n  swap1\n  tag_10\n  jump\t// in\ntag_9:\n  mload(0x40)\n  dup1\n  swap2\n  sub\n  swap1\n  revert\ntag_8:\n    /* \"submissions/Zora/Day30MiniDexPair.sol\":1058:1059  0 */\n  0x00\n    /* \"submissions/Zora/Day30MiniDexPair.sol\":1039:1060  _tokenA != address(0) */\n  0xffffffffffffffffffffffffffffffffffffffff\n  and\n    /* \"submissions/Zora/Day30MiniDexPair.sol\":1039:1046  _tokenA */\n  dup3\n    /* \"submissions/Zora/Day30MiniDexPair.sol\":1039:1060  _tokenA != address(0) */\n  0xffffffffffffffffffffffffffffffffffffffff\n  and\n  eq\n  iszero\n    /* \"submissions/Zora/Day30MiniDexPair.sol\":1039:1085  _tokenA != address(0) && _tokenB != address(0) */\n  dup1\n  iszero\n  tag_11\n  jumpi\n  pop\n    /* \"submissions/Zora/Day30MiniDexPair.sol\":1083:1084  0 */\n  0x00\n    /* \"submissions/Zora/Day30MiniDexPair.sol\":1064:1085  _tokenB != address(0) */\n  0xffffffffffffffffffffffffffffffffffffffff\n  and\n    /* \"submissions/Zora/Day30MiniDexPair.sol\":1064:1071  _tokenB */\n  dup2\n    /* \"submissions/Zora/Day30MiniDexPair.sol\":1064:1085  _tokenB != address(0) */\n  0xffffffffffffffffffffffffffffffffffffffff\n  and\n  eq\n  iszero\n    /* \"submissions/Zora/Day30MiniDexPair.sol\":1039:1085  _tokenA != address(0) && _tokenB != address(0) */\ntag_11:\n    /* \"submissions/Zora/Day30MiniDexPair.sol\":1031:1102  require(_tokenA != address(0) && _tokenB != address(0), \"Zero address\") */\n  tag_12\n  jumpi\n  mload(0x40)\n  0x08c379a000000000000000000000000000000000000000000000000000000000\n  dup2\n  mstore\n  0x04\n  add\n  tag_13\n  swap1\n  tag_14\n  jump\t// in\ntag_13:\n  mload(0x40)\n  dup1\n  swap2\n  sub\n  swap1\n  revert\ntag_12:\n    /* \"submissions/Zora/Day30MiniDexPair.sol\":1124:1131  _tokenA */\n  dup2\n    /* \"submissions/Zora/Day30MiniDexPair.sol\":1115:1131  tokenA = _tokenA */\n  0xffffffffffffffffffffffffffffffffffffffff\n  and\n  0x80\n  dup2\n  0xffffffffffffffffffffffffffffffffffffffff\n  and\n  dup2\n  mstore\n  pop\n  pop\n    /* \"submissions/Zora/Day30MiniDexPair.sol\":1151:1158  _tokenB */\n  dup1\n    /* \"submissions/Zora/Day30MiniDexPair.sol\":1142:1158  tokenB = _tokenB */\n  0xffffffffffffffffffffffffffffffffffffffff\n  and\n  0xa0\n  dup2\n  0xffffffffffffffffffffffffffffffffffffffff\n  and\n  dup2\n  mstore\n  pop\n  pop\n    /* \"submissions/Zora/Day30MiniDexPair.sol\":916:1166  constructor(address _tokenA, address _tokenB) {... */\n  pop\n  pop\n    /* \"submissions/Zora/Day30MiniDexPair.sol\":185:5103  contract MiniDexPair is ReentrancyGuard {... */\n  jump(tag_15)\n    /* \"#utility.yul\":88:205   */\ntag_17:\n    /* \"#utility.yul\":197:198   */\n  0x00\n    /* \"#utility.yul\":194:195   */\n  0x00\n    /* \"#utility.yul\":187:199   */\n  revert\n    /* \"#utility.yul\":334:460   */\ntag_19:\n    /* \"#utility.yul\":371:378   */\n  0x00\n    /* \"#utility.yul\":411:453   */\n  0xffffffffffffffffffffffffffffffffffffffff\n    /* \"#utility.yul\":404:409   */\n  dup3\n    /* \"#utility.yul\":400:454   */\n  and\n    /* \"#utility.yul\":389:454   */\n  swap1\n  pop\n    /* \"#utility.yul\":334:460   */\n  swap2\n  swap1\n  pop\n  jump\t// out\n    /* \"#utility.yul\":466:562   */\ntag_20:\n    /* \"#utility.yul\":503:510   */\n  0x00\n    /* \"#utility.yul\":532:556   */\n  tag_34\n    /* \"#utility.yul\":550:555   */\n  dup3\n    /* \"#utility.yul\":532:556   */\n  tag_19\n  jump\t// in\ntag_34:\n    /* \"#utility.yul\":521:556   */\n  swap1\n  pop\n    /* \"#utility.yul\":466:562   */\n  swap2\n  swap1\n  pop\n  jump\t// out\n    /* \"#utility.yul\":568:690   */\ntag_21:\n    /* \"#utility.yul\":641:665   */\n  tag_36\n    /* \"#utility.yul\":659:664   */\n  dup2\n    /* \"#utility.yul\":641:665   */\n  tag_20\n  jump\t// in\ntag_36:\n    /* \"#utility.yul\":634:639   */\n  dup2\n    /* \"#utility.yul\":631:666   */\n  eq\n    /* \"#utility.yul\":621:684   */\n  tag_37\n  jumpi\n    /* \"#utility.yul\":680:681   */\n  0x00\n    /* \"#utility.yul\":677:678   */\n  0x00\n    /* \"#utility.yul\":670:682   */\n  revert\n    /* \"#utility.yul\":621:684   */\ntag_37:\n    /* \"#utility.yul\":568:690   */\n  pop\n  jump\t// out\n    /* \"#utility.yul\":696:839   */\ntag_22:\n    /* \"#utility.yul\":753:758   */\n  0x00\n    /* \"#utility.yul\":784:790   */\n  dup2\n    /* \"#utility.yul\":778:791   */\n  mload\n    /* \"#utility.yul\":769:791   */\n  swap1\n  pop\n    /* \"#utility.yul\":800:833   */\n  tag_39\n    /* \"#utility.yul\":827:832   */\n  dup2\n    /* \"#utility.yul\":800:833   */\n  tag_21\n  jump\t// in\ntag_39:\n    /* \"#utility.yul\":696:839   */\n  swap3\n  swap2\n  pop\n  pop\n  jump\t// out\n    /* \"#utility.yul\":845:1352   */\ntag_3:\n    /* \"#utility.yul\":924:930   */\n  0x00\n    /* \"#utility.yul\":932:938   */\n  0x00\n    /* \"#utility.yul\":981:983   */\n  0x40\n    /* \"#utility.yul\":969:978   */\n  dup4\n    /* \"#utility.yul\":960:967   */\n  dup6\n    /* \"#utility.yul\":956:979   */\n  sub\n    /* \"#utility.yul\":952:984   */\n  slt\n    /* \"#utility.yul\":949:1068   */\n  iszero\n  tag_41\n  jumpi\n    /* \"#utility.yul\":987:1066   */\n  tag_42\n  tag_17\n  jump\t// in\ntag_42:\n    /* \"#utility.yul\":949:1068   */\ntag_41:\n    /* \"#utility.yul\":1107:1108   */\n  0x00\n    /* \"#utility.yul\":1132:1196   */\n  tag_43\n    /* \"#utility.yul\":1188:1195   */\n  dup6\n    /* \"#utility.yul\":1179:1185   */\n  dup3\n    /* \"#utility.yul\":1168:1177   */\n  dup7\n    /* \"#utility.yul\":1164:1186   */\n  add\n    /* \"#utility.yul\":1132:1196   */\n  tag_22\n  jump\t// in\ntag_43:\n    /* \"#utility.yul\":1122:1196   */\n  swap3\n  pop\n    /* \"#utility.yul\":1078:1206   */\n  pop\n    /* \"#utility.yul\":1245:1247   */\n  0x20\n    /* \"#utility.yul\":1271:1335   */\n  tag_44\n    /* \"#utility.yul\":1327:1334   */\n  dup6\n    /* \"#utility.yul\":1318:1324   */\n  dup3\n    /* \"#utility.yul\":1307:1316   */\n  dup7\n    /* \"#utility.yul\":1303:1325   */\n  add\n    /* \"#utility.yul\":1271:1335   */\n  tag_22\n  jump\t// in\ntag_44:\n    /* \"#utility.yul\":1261:1335   */\n  swap2\n  pop\n    /* \"#utility.yul\":1216:1345   */\n  pop\n    /* \"#utility.yul\":845:1352   */\n  swap3\n  pop\n  swap3\n  swap1\n  pop\n  jump\t// out\n    /* \"#utility.yul\":1358:1527   */\ntag_23:\n    /* \"#utility.yul\":1442:1453   */\n  0x00\n    /* \"#utility.yul\":1476:1482   */\n  dup3\n    /* \"#utility.yul\":1471:1474   */\n  dup3\n    /* \"#utility.yul\":1464:1483   */\n  mstore\n    /* \"#utility.yul\":1516:1520   */\n  0x20\n    /* \"#utility.yul\":1511:1514   */\n  dup3\n    /* \"#utility.yul\":1507:1521   */\n  add\n    /* \"#utility.yul\":1492:1521   */\n  swap1\n  pop\n    /* \"#utility.yul\":1358:1527   */\n  swap3\n  swap2\n  pop\n  pop\n  jump\t// out\n    /* \"#utility.yul\":1533:1699   */\ntag_24:\n    /* \"#utility.yul\":1673:1691   */\n  0x4964656e746963616c20746f6b656e7300000000000000000000000000000000\n    /* \"#utility.yul\":1669:1670   */\n  0x00\n    /* \"#utility.yul\":1661:1667   */\n  dup3\n    /* \"#utility.yul\":1657:1671   */\n  add\n    /* \"#utility.yul\":1650:1692   */\n  mstore\n    /* \"#utility.yul\":1533:1699   */\n  pop\n  jump\t// out\n    /* \"#utility.yul\":1705:2071   */\ntag_25:\n    /* \"#utility.yul\":1847:1850   */\n  0x00\n    /* \"#utility.yul\":1868:1935   */\n  tag_48\n    /* \"#utility.yul\":1932:1934   */\n  0x10\n    /* \"#utility.yul\":1927:1930   */\n  dup4\n    /* \"#utility.yul\":1868:1935   */\n  tag_23\n  jump\t// in\ntag_48:\n    /* \"#utility.yul\":1861:1935   */\n  swap2\n  pop\n    /* \"#utility.yul\":1944:2037   */\n  tag_49\n    /* \"#utility.yul\":2033:2036   */\n  dup3\n    /* \"#utility.yul\":1944:2037   */\n  tag_24\n  jump\t// in\ntag_49:\n    /* \"#utility.yul\":2062:2064   */\n  0x20\n    /* \"#utility.yul\":2057:2060   */\n  dup3\n    /* \"#utility.yul\":2053:2065   */\n  add\n    /* \"#utility.yul\":2046:2065   */\n  swap1\n  pop\n    /* \"#utility.yul\":1705:2071   */\n  swap2\n  swap1\n  pop\n  jump\t// out\n    /* \"#utility.yul\":2077:2496   */\ntag_10:\n    /* \"#utility.yul\":2243:2247   */\n  0x00\n    /* \"#utility.yul\":2281:2283   */\n  0x20\n    /* \"#utility.yul\":2270:2279   */\n  dup3\n    /* \"#utility.yul\":2266:2284   */\n  add\n    /* \"#utility.yul\":2258:2284   */\n  swap1\n  pop\n    /* \"#utility.yul\":2330:2339   */\n  dup2\n    /* \"#utility.yul\":2324:2328   */\n  dup2\n    /* \"#utility.yul\":2320:2340   */\n  sub\n    /* \"#utility.yul\":2316:2317   */\n  0x00\n    /* \"#utility.yul\":2305:2314   */\n  dup4\n    /* \"#utility.yul\":2301:2318   */\n  add\n    /* \"#utility.yul\":2294:2341   */\n  mstore\n    /* \"#utility.yul\":2358:2489   */\n  tag_51\n    /* \"#utility.yul\":2484:2488   */\n  dup2\n    /* \"#utility.yul\":2358:2489   */\n  tag_25\n  jump\t// in\ntag_51:\n    /* \"#utility.yul\":2350:2489   */\n  swap1\n  pop\n    /* \"#utility.yul\":2077:2496   */\n  swap2\n  swap1\n  pop\n  jump\t// out\n    /* \"#utility.yul\":2502:2664   */\ntag_26:\n    /* \"#utility.yul\":2642:2656   */\n  0x5a65726f20616464726573730000000000000000000000000000000000000000\n    /* \"#utility.yul\":2638:2639   */\n  0x00\n    /* \"#utility.yul\":2630:2636   */\n  dup3\n    /* \"#utility.yul\":2626:2640   */\n  add\n    /* \"#utility.yul\":2619:2657   */\n  mstore\n    /* \"#utility.yul\":2502:2664   */\n  pop\n  jump\t// out\n    /* \"#utility.yul\":2670:3036   */\ntag_27:\n    /* \"#utility.yul\":2812:2815   */\n  0x00\n    /* \"#utility.yul\":2833:2900   */\n  tag_54\n    /* \"#utility.yul\":2897:2899   */\n  0x0c\n    /* \"#utility.yul\":2892:2895   */\n  dup4\n    /* \"#utility.yul\":2833:2900   */\n  tag_23\n  jump\t// in\ntag_54:\n    /* \"#utility.yul\":2826:2900   */\n  swap2\n  pop\n    /* \"#utility.yul\":2909:3002   */\n  tag_55\n    /* \"#utility.yul\":2998:3001   */\n  dup3\n    /* \"#utility.yul\":2909:3002   */\n  tag_26\n  jump\t// in\ntag_55:\n    /* \"#utility.yul\":3027:3029   */\n  0x20\n    /* \"#utility.yul\":3022:3025   */\n  dup3\n    /* \"#utility.yul\":3018:3030   */\n  add\n    /* \"#utility.yul\":3011:3030   */\n  swap1\n  pop\n    /* \"#utility.yul\":2670:3036   */\n  swap2\n  swap1\n  pop\n  jump\t// out\n    /* \"#utility.yul\":3042:3461   */\ntag_14:\n    /* \"#utility.yul\":3208:3212   */\n  0x00\n    /* \"#utility.yul\":3246:3248   */\n  0x20\n    /* \"#utility.yul\":3235:3244   */\n  dup3\n    /* \"#utility.yul\":3231:3249   */\n  add\n    /* \"#utility.yul\":3223:3249   */\n  swap1\n  pop\n    /* \"#utility.yul\":3295:3304   */\n  dup2\n    /* \"#utility.yul\":3289:3293   */\n  dup2\n    /* \"#utility.yul\":3285:3305   */\n  sub\n    /* \"#utility.yul\":3281:3282   */\n  0x00\n    /* \"#utility.yul\":3270:3279   */\n  dup4\n    /* \"#utility.yul\":3266:3283   */\n  add\n    /* \"#utility.yul\":3259:3306   */\n  mstore\n    /* \"#utility.yul\":3323:3454   */\n  tag_57\n    /* \"#utility.yul\":3449:3453   */\n  dup2\n    /* \"#utility.yul\":3323:3454   */\n  tag_27\n  jump\t// in\ntag_57:\n    /* \"#utility.yul\":3315:3454   */\n  swap1\n  pop\n    /* \"#utility.yul\":3042:3461   */\n  swap2\n  swap1\n  pop\n  jump\t// out\n    /* \"submissions/Zora/Day30MiniDexPair.sol\":185:5103  contract MiniDexPair is ReentrancyGuard {... */\ntag_15:\n  mload(0x80)\n  mload(0xa0)\n  codecopy(0x00, dataOffset(sub_0), dataSize(sub_0))\n  0x00\n  assignImmutable(\"0xc5bf1d490d2f4e87cc1d5184cd59114bcef0e857ac09f6d840a1caed5b52d973\")\n  0x00\n  assignImmutable(\"0x06a79e67d636d828aa58884bc7fed897698bb40922db4eadf708235cd9c2de2c\")\n  return(0x00, dataSize(sub_0))\nstop\n\nsub_0: assembly {\n        /* \"submissions/Zora/Day30MiniDexPair.sol\":185:5103  contract MiniDexPair is ReentrancyGuard {... */\n      mstore(0x40, 0x80)\n      callvalue\n      dup1\n      iszero\n      tag_1\n      jumpi\n      revert(0x00, 0x00)\n    tag_1:\n      pop\n      jumpi(tag_2, lt(calldatasize, 0x04))\n      shr(0xe0, calldataload(0x00))\n      dup1\n      0x9cd441da\n      gt\n      tag_16\n      jumpi\n      dup1\n      0xd2258beb\n      gt\n      tag_17\n      jumpi\n      dup1\n      0xd2258beb\n      eq\n      tag_12\n      jumpi\n      dup1\n      0xd3986f08\n      eq\n      tag_13\n      jumpi\n      dup1\n      0xdc5fa6c5\n      eq\n      tag_14\n      jumpi\n      dup1\n      0xf140a35a\n      eq\n      tag_15\n      jumpi\n      jump(tag_2)\n    tag_17:\n      dup1\n      0x9cd441da\n      eq\n      tag_9\n      jumpi\n      dup1\n      0xb7e5dcee\n      eq\n      tag_10\n      jumpi\n      dup1\n      0xd1a86711\n      eq\n      tag_11\n      jumpi\n      jump(tag_2)\n    tag_16:\n      dup1\n      0x0902f1ac\n      eq\n      tag_3\n      jumpi\n      dup1\n      0x0b65092d\n      eq\n      tag_4\n      jumpi\n      dup1\n      0x0fc63d10\n      eq\n      tag_5\n      jumpi\n      dup1\n      0x19e36f3b\n      eq\n      tag_6\n      jumpi\n      dup1\n      0x5f64b55b\n      eq\n      tag_7\n      jumpi\n      dup1\n      0x9c8f9f23\n      eq\n      tag_8\n      jumpi\n    tag_2:\n      revert(0x00, 0x00)\n        /* \"submissions/Zora/Day30MiniDexPair.sol\":4765:4875  function getReserves() external view returns (uint256, uint256) {... */\n    tag_3:\n      tag_18\n      tag_19\n      jump\t// in\n    tag_18:\n      mload(0x40)\n      tag_20\n      swap3\n      swap2\n      swap1\n      tag_21\n      jump\t// in\n    tag_20:\n      mload(0x40)\n      dup1\n      swap2\n      sub\n      swap1\n      return\n        /* \"submissions/Zora/Day30MiniDexPair.sol\":522:567  mapping(address => uint256) public lpBalances */\n    tag_4:\n      tag_22\n      0x04\n      dup1\n      calldatasize\n      sub\n      dup2\n      add\n      swap1\n      tag_23\n      swap2\n      swap1\n      tag_24\n      jump\t// in\n    tag_23:\n      tag_25\n      jump\t// in\n    tag_22:\n      mload(0x40)\n      tag_26\n      swap2\n      swap1\n      tag_27\n      jump\t// in\n    tag_26:\n      mload(0x40)\n      dup1\n      swap2\n      sub\n      swap1\n      return\n        /* \"submissions/Zora/Day30MiniDexPair.sol\":232:263  address public immutable tokenA */\n    tag_5:\n      tag_28\n      tag_29\n      jump\t// in\n    tag_28:\n      mload(0x40)\n      tag_30\n      swap2\n      swap1\n      tag_31\n      jump\t// in\n    tag_30:\n      mload(0x40)\n      dup1\n      swap2\n      sub\n      swap1\n      return\n        /* \"submissions/Zora/Day30MiniDexPair.sol\":418:441  uint256 public reserveB */\n    tag_6:\n      tag_32\n      tag_33\n      jump\t// in\n    tag_32:\n      mload(0x40)\n      tag_34\n      swap2\n      swap1\n      tag_27\n      jump\t// in\n    tag_34:\n      mload(0x40)\n      dup1\n      swap2\n      sub\n      swap1\n      return\n        /* \"submissions/Zora/Day30MiniDexPair.sol\":328:359  address public immutable tokenB */\n    tag_7:\n      tag_35\n      tag_36\n      jump\t// in\n    tag_35:\n      mload(0x40)\n      tag_37\n      swap2\n      swap1\n      tag_31\n      jump\t// in\n    tag_37:\n      mload(0x40)\n      dup1\n      swap2\n      sub\n      swap1\n      return\n        /* \"submissions/Zora/Day30MiniDexPair.sol\":2794:3391  function removeLiquidity(uint256 lpAmount) external nonReentrant {... */\n    tag_8:\n      tag_38\n      0x04\n      dup1\n      calldatasize\n      sub\n      dup2\n      add\n      swap1\n      tag_39\n      swap2\n      swap1\n      tag_40\n      jump\t// in\n    tag_39:\n      tag_41\n      jump\t// in\n    tag_38:\n      stop\n        /* \"submissions/Zora/Day30MiniDexPair.sol\":1851:2748  function addLiquidity(uint256 amountA, uint256 amountB) external nonReentrant {... */\n    tag_9:\n      tag_42\n      0x04\n      dup1\n      calldatasize\n      sub\n      dup2\n      add\n      swap1\n      tag_43\n      swap2\n      swap1\n      tag_44\n      jump\t// in\n    tag_43:\n      tag_45\n      jump\t// in\n    tag_42:\n      stop\n        /* \"submissions/Zora/Day30MiniDexPair.sol\":5001:5100  function getTotalLPSupply() external view returns (uint256) {... */\n    tag_10:\n      tag_46\n      tag_47\n      jump\t// in\n    tag_46:\n      mload(0x40)\n      tag_48\n      swap2\n      swap1\n      tag_27\n      jump\t// in\n    tag_48:\n      mload(0x40)\n      dup1\n      swap2\n      sub\n      swap1\n      return\n        /* \"submissions/Zora/Day30MiniDexPair.sol\":448:476  uint256 public totalLPSupply */\n    tag_11:\n      tag_49\n      tag_50\n      jump\t// in\n    tag_49:\n      mload(0x40)\n      tag_51\n      swap2\n      swap1\n      tag_27\n      jump\t// in\n    tag_51:\n      mload(0x40)\n      dup1\n      swap2\n      sub\n      swap1\n      return\n        /* \"submissions/Zora/Day30MiniDexPair.sol\":4883:4993  function getLPBalance(address user) external view returns (uint256) {... */\n    tag_12:\n      tag_52\n      0x04\n      dup1\n      calldatasize\n      sub\n      dup2\n      add\n      swap1\n      tag_53\n      swap2\n      swap1\n      tag_24\n      jump\t// in\n    tag_53:\n      tag_54\n      jump\t// in\n    tag_52:\n      mload(0x40)\n      tag_55\n      swap2\n      swap1\n      tag_27\n      jump\t// in\n    tag_55:\n      mload(0x40)\n      dup1\n      swap2\n      sub\n      swap1\n      return\n        /* \"submissions/Zora/Day30MiniDexPair.sol\":4048:4736  function swap(uint256 inputAmount, address inputToken) external nonReentrant {... */\n    tag_13:\n      tag_56\n      0x04\n      dup1\n      calldatasize\n      sub\n      dup2\n      add\n      swap1\n      tag_57\n      swap2\n      swap1\n      tag_58\n      jump\t// in\n    tag_57:\n      tag_59\n      jump\t// in\n    tag_56:\n      stop\n        /* \"submissions/Zora/Day30MiniDexPair.sol\":368:391  uint256 public reserveA */\n    tag_14:\n      tag_60\n      tag_61\n      jump\t// in\n    tag_60:\n      mload(0x40)\n      tag_62\n      swap2\n      swap1\n      tag_27\n      jump\t// in\n    tag_62:\n      mload(0x40)\n      dup1\n      swap2\n      sub\n      swap1\n      return\n        /* \"submissions/Zora/Day30MiniDexPair.sol\":3425:4020  function getAmountOut(uint256 inputAmount, address inputToken) public view returns (uint256 outputAmount) {... */\n    tag_15:\n      tag_63\n      0x04\n      dup1\n      calldatasize\n      sub\n      dup2\n      add\n      swap1\n      tag_64\n      swap2\n      swap1\n      tag_58\n      jump\t// in\n    tag_64:\n      tag_65\n      jump\t// in\n    tag_63:\n      mload(0x40)\n      tag_66\n      swap2\n      swap1\n      tag_27\n      jump\t// in\n    tag_66:\n      mload(0x40)\n      dup1\n      swap2\n      sub\n      swap1\n      return\n        /* \"submissions/Zora/Day30MiniDexPair.sol\":4765:4875  function getReserves() external view returns (uint256, uint256) {... */\n    tag_19:\n        /* \"submissions/Zora/Day30MiniDexPair.sol\":4811:4818  uint256 */\n      0x00\n        /* \"submissions/Zora/Day30MiniDexPair.sol\":4820:4827  uint256 */\n      0x00\n        /* \"submissions/Zora/Day30MiniDexPair.sol\":4848:4856  reserveA */\n      sload(0x01)\n        /* \"submissions/Zora/Day30MiniDexPair.sol\":4858:4866  reserveB */\n      sload(0x02)\n        /* \"submissions/Zora/Day30MiniDexPair.sol\":4840:4867  return (reserveA, reserveB) */\n      swap2\n      pop\n      swap2\n      pop\n        /* \"submissions/Zora/Day30MiniDexPair.sol\":4765:4875  function getReserves() external view returns (uint256, uint256) {... */\n      swap1\n      swap2\n      jump\t// out\n        /* \"submissions/Zora/Day30MiniDexPair.sol\":522:567  mapping(address => uint256) public lpBalances */\n    tag_25:\n      mstore(0x20, 0x04)\n      dup1\n      0x00\n      mstore\n      keccak256(0x00, 0x40)\n      0x00\n      swap2\n      pop\n      swap1\n      pop\n      sload\n      dup2\n      jump\t// out\n        /* \"submissions/Zora/Day30MiniDexPair.sol\":232:263  address public immutable tokenA */\n    tag_29:\n      immutable(\"0x06a79e67d636d828aa58884bc7fed897698bb40922db4eadf708235cd9c2de2c\")\n      dup2\n      jump\t// out\n        /* \"submissions/Zora/Day30MiniDexPair.sol\":418:441  uint256 public reserveB */\n    tag_33:\n      sload(0x02)\n      dup2\n      jump\t// out\n        /* \"submissions/Zora/Day30MiniDexPair.sol\":328:359  address public immutable tokenB */\n    tag_36:\n      immutable(\"0xc5bf1d490d2f4e87cc1d5184cd59114bcef0e857ac09f6d840a1caed5b52d973\")\n      dup2\n      jump\t// out\n        /* \"submissions/Zora/Day30MiniDexPair.sol\":2794:3391  function removeLiquidity(uint256 lpAmount) external nonReentrant {... */\n    tag_41:\n        /* \"@openzeppelin/contracts/security/ReentrancyGuard.sol\":2261:2282  _nonReentrantBefore() */\n      tag_69\n        /* \"@openzeppelin/contracts/security/ReentrancyGuard.sol\":2261:2280  _nonReentrantBefore */\n      tag_70\n        /* \"@openzeppelin/contracts/security/ReentrancyGuard.sol\":2261:2282  _nonReentrantBefore() */\n      jump\t// in\n    tag_69:\n        /* \"submissions/Zora/Day30MiniDexPair.sol\":2889:2890  0 */\n      0x00\n        /* \"submissions/Zora/Day30MiniDexPair.sol\":2878:2886  lpAmount */\n      dup2\n        /* \"submissions/Zora/Day30MiniDexPair.sol\":2878:2890  lpAmount > 0 */\n      gt\n        /* \"submissions/Zora/Day30MiniDexPair.sol\":2878:2928  lpAmount > 0 && lpAmount <= lpBalances[msg.sender] */\n      dup1\n      iszero\n      tag_72\n      jumpi\n      pop\n        /* \"submissions/Zora/Day30MiniDexPair.sol\":2906:2916  lpBalances */\n      0x04\n        /* \"submissions/Zora/Day30MiniDexPair.sol\":2906:2928  lpBalances[msg.sender] */\n      0x00\n        /* \"submissions/Zora/Day30MiniDexPair.sol\":2917:2927  msg.sender */\n      caller\n        /* \"submissions/Zora/Day30MiniDexPair.sol\":2906:2928  lpBalances[msg.sender] */\n      0xffffffffffffffffffffffffffffffffffffffff\n      and\n      0xffffffffffffffffffffffffffffffffffffffff\n      and\n      dup2\n      mstore\n      0x20\n      add\n      swap1\n      dup2\n      mstore\n      0x20\n      add\n      0x00\n      keccak256\n      sload\n        /* \"submissions/Zora/Day30MiniDexPair.sol\":2894:2902  lpAmount */\n      dup2\n        /* \"submissions/Zora/Day30MiniDexPair.sol\":2894:2928  lpAmount <= lpBalances[msg.sender] */\n      gt\n      iszero\n        /* \"submissions/Zora/Day30MiniDexPair.sol\":2878:2928  lpAmount > 0 && lpAmount <= lpBalances[msg.sender] */\n    tag_72:\n        /* \"submissions/Zora/Day30MiniDexPair.sol\":2870:2950  require(lpAmount > 0 && lpAmount <= lpBalances[msg.sender], \"Invalid LP amount\") */\n      tag_73\n      jumpi\n      mload(0x40)\n      0x08c379a000000000000000000000000000000000000000000000000000000000\n      dup2\n      mstore\n      0x04\n      add\n      tag_74\n      swap1\n      tag_75\n      jump\t// in\n    tag_74:\n      mload(0x40)\n      dup1\n      swap2\n      sub\n      swap1\n      revert\n    tag_73:\n        /* \"submissions/Zora/Day30MiniDexPair.sol\":2963:2978  uint256 amountA */\n      0x00\n        /* \"submissions/Zora/Day30MiniDexPair.sol\":3005:3018  totalLPSupply */\n      sload(0x03)\n        /* \"submissions/Zora/Day30MiniDexPair.sol\":2993:3001  reserveA */\n      sload(0x01)\n        /* \"submissions/Zora/Day30MiniDexPair.sol\":2982:2990  lpAmount */\n      dup4\n        /* \"submissions/Zora/Day30MiniDexPair.sol\":2982:3001  lpAmount * reserveA */\n      tag_76\n      swap2\n      swap1\n      tag_77\n      jump\t// in\n    tag_76:\n        /* \"submissions/Zora/Day30MiniDexPair.sol\":2981:3018  (lpAmount * reserveA) / totalLPSupply */\n      tag_78\n      swap2\n      swap1\n      tag_79\n      jump\t// in\n    tag_78:\n        /* \"submissions/Zora/Day30MiniDexPair.sol\":2963:3018  uint256 amountA = (lpAmount * reserveA) / totalLPSupply */\n      swap1\n      pop\n        /* \"submissions/Zora/Day30MiniDexPair.sol\":3029:3044  uint256 amountB */\n      0x00\n        /* \"submissions/Zora/Day30MiniDexPair.sol\":3071:3084  totalLPSupply */\n      sload(0x03)\n        /* \"submissions/Zora/Day30MiniDexPair.sol\":3059:3067  reserveB */\n      sload(0x02)\n        /* \"submissions/Zora/Day30MiniDexPair.sol\":3048:3056  lpAmount */\n      dup5\n        /* \"submissions/Zora/Day30MiniDexPair.sol\":3048:3067  lpAmount * reserveB */\n      tag_80\n      swap2\n      swap1\n      tag_77\n      jump\t// in\n    tag_80:\n        /* \"submissions/Zora/Day30MiniDexPair.sol\":3047:3084  (lpAmount * reserveB) / totalLPSupply */\n      tag_81\n      swap2\n      swap1\n      tag_79\n      jump\t// in\n    tag_81:\n        /* \"submissions/Zora/Day30MiniDexPair.sol\":3029:3084  uint256 amountB = (lpAmount * reserveB) / totalLPSupply */\n      swap1\n      pop\n        /* \"submissions/Zora/Day30MiniDexPair.sol\":3123:3131  lpAmount */\n      dup3\n        /* \"submissions/Zora/Day30MiniDexPair.sol\":3097:3107  lpBalances */\n      0x04\n        /* \"submissions/Zora/Day30MiniDexPair.sol\":3097:3119  lpBalances[msg.sender] */\n      0x00\n        /* \"submissions/Zora/Day30MiniDexPair.sol\":3108:3118  msg.sender */\n      caller\n        /* \"submissions/Zora/Day30MiniDexPair.sol\":3097:3119  lpBalances[msg.sender] */\n      0xffffffffffffffffffffffffffffffffffffffff\n      and\n      0xffffffffffffffffffffffffffffffffffffffff\n      and\n      dup2\n      mstore\n      0x20\n      add\n      swap1\n      dup2\n      mstore\n      0x20\n      add\n      0x00\n      keccak256\n      0x00\n        /* \"submissions/Zora/Day30MiniDexPair.sol\":3097:3131  lpBalances[msg.sender] -= lpAmount */\n      dup3\n      dup3\n      sload\n      tag_82\n      swap2\n      swap1\n      tag_83\n      jump\t// in\n    tag_82:\n      swap3\n      pop\n      pop\n      dup2\n      swap1\n      sstore\n      pop\n        /* \"submissions/Zora/Day30MiniDexPair.sol\":3159:3167  lpAmount */\n      dup3\n        /* \"submissions/Zora/Day30MiniDexPair.sol\":3142:3155  totalLPSupply */\n      0x03\n      0x00\n        /* \"submissions/Zora/Day30MiniDexPair.sol\":3142:3167  totalLPSupply -= lpAmount */\n      dup3\n      dup3\n      sload\n      tag_84\n      swap2\n      swap1\n      tag_83\n      jump\t// in\n    tag_84:\n      swap3\n      pop\n      pop\n      dup2\n      swap1\n      sstore\n      pop\n        /* \"submissions/Zora/Day30MiniDexPair.sol\":3187:3193  tokenA */\n      immutable(\"0x06a79e67d636d828aa58884bc7fed897698bb40922db4eadf708235cd9c2de2c\")\n        /* \"submissions/Zora/Day30MiniDexPair.sol\":3180:3203  IERC20(tokenA).transfer */\n      0xffffffffffffffffffffffffffffffffffffffff\n      and\n      0xa9059cbb\n        /* \"submissions/Zora/Day30MiniDexPair.sol\":3204:3214  msg.sender */\n      caller\n        /* \"submissions/Zora/Day30MiniDexPair.sol\":3216:3223  amountA */\n      dup5\n        /* \"submissions/Zora/Day30MiniDexPair.sol\":3180:3224  IERC20(tokenA).transfer(msg.sender, amountA) */\n      mload(0x40)\n      dup4\n      0xffffffff\n      and\n      0xe0\n      shl\n      dup2\n      mstore\n      0x04\n      add\n      tag_85\n      swap3\n      swap2\n      swap1\n      tag_86\n      jump\t// in\n    tag_85:\n      0x20\n      mload(0x40)\n      dup1\n      dup4\n      sub\n      dup2\n      0x00\n      dup8\n      gas\n      call\n      iszero\n      dup1\n      iszero\n      tag_88\n      jumpi\n      returndatacopy(0x00, 0x00, returndatasize)\n      revert(0x00, returndatasize)\n    tag_88:\n      pop\n      pop\n      pop\n      pop\n      mload(0x40)\n      returndatasize\n      not(0x1f)\n      0x1f\n      dup3\n      add\n      and\n      dup3\n      add\n      dup1\n      0x40\n      mstore\n      pop\n      dup2\n      add\n      swap1\n      tag_89\n      swap2\n      swap1\n      tag_90\n      jump\t// in\n    tag_89:\n      pop\n        /* \"submissions/Zora/Day30MiniDexPair.sol\":3242:3248  tokenB */\n      immutable(\"0xc5bf1d490d2f4e87cc1d5184cd59114bcef0e857ac09f6d840a1caed5b52d973\")\n        /* \"submissions/Zora/Day30MiniDexPair.sol\":3235:3258  IERC20(tokenB).transfer */\n      0xffffffffffffffffffffffffffffffffffffffff\n      and\n      0xa9059cbb\n        /* \"submissions/Zora/Day30MiniDexPair.sol\":3259:3269  msg.sender */\n      caller\n        /* \"submissions/Zora/Day30MiniDexPair.sol\":3271:3278  amountB */\n      dup4\n        /* \"submissions/Zora/Day30MiniDexPair.sol\":3235:3279  IERC20(tokenB).transfer(msg.sender, amountB) */\n      mload(0x40)\n      dup4\n      0xffffffff\n      and\n      0xe0\n      shl\n      dup2\n      mstore\n      0x04\n      add\n      tag_91\n      swap3\n      swap2\n      swap1\n      tag_86\n      jump\t// in\n    tag_91:\n      0x20\n      mload(0x40)\n      dup1\n      dup4\n      sub\n      dup2\n      0x00\n      dup8\n      gas\n      call\n      iszero\n      dup1\n      iszero\n      tag_93\n      jumpi\n      returndatacopy(0x00, 0x00, returndatasize)\n      revert(0x00, returndatasize)\n    tag_93:\n      pop\n      pop\n      pop\n      pop\n      mload(0x40)\n      returndatasize\n      not(0x1f)\n      0x1f\n      dup3\n      add\n      and\n      dup3\n      add\n      dup1\n      0x40\n      mstore\n      pop\n      dup2\n      add\n      swap1\n      tag_94\n      swap2\n      swap1\n      tag_90\n      jump\t// in\n    tag_94:\n      pop\n        /* \"submissions/Zora/Day30MiniDexPair.sol\":3292:3309  _updateReserves() */\n      tag_95\n        /* \"submissions/Zora/Day30MiniDexPair.sol\":3292:3307  _updateReserves */\n      tag_96\n        /* \"submissions/Zora/Day30MiniDexPair.sol\":3292:3309  _updateReserves() */\n      jump\t// in\n    tag_95:\n        /* \"submissions/Zora/Day30MiniDexPair.sol\":3344:3354  msg.sender */\n      caller\n        /* \"submissions/Zora/Day30MiniDexPair.sol\":3327:3383  LiquidityRemoved(msg.sender, amountA, amountB, lpAmount) */\n      0xffffffffffffffffffffffffffffffffffffffff\n      and\n      0x1dc8bb69df2b8e91fbdcbfcf93d951b3f0000f085a95fe3f7946d6161439245d\n        /* \"submissions/Zora/Day30MiniDexPair.sol\":3356:3363  amountA */\n      dup4\n        /* \"submissions/Zora/Day30MiniDexPair.sol\":3365:3372  amountB */\n      dup4\n        /* \"submissions/Zora/Day30MiniDexPair.sol\":3374:3382  lpAmount */\n      dup7\n        /* \"submissions/Zora/Day30MiniDexPair.sol\":3327:3383  LiquidityRemoved(msg.sender, amountA, amountB, lpAmount) */\n      mload(0x40)\n      tag_97\n      swap4\n      swap3\n      swap2\n      swap1\n      tag_98\n      jump\t// in\n    tag_97:\n      mload(0x40)\n      dup1\n      swap2\n      sub\n      swap1\n      log2\n        /* \"submissions/Zora/Day30MiniDexPair.sol\":2859:3391  {... */\n      pop\n      pop\n        /* \"@openzeppelin/contracts/security/ReentrancyGuard.sol\":2303:2323  _nonReentrantAfter() */\n      tag_99\n        /* \"@openzeppelin/contracts/security/ReentrancyGuard.sol\":2303:2321  _nonReentrantAfter */\n      tag_100\n        /* \"@openzeppelin/contracts/security/ReentrancyGuard.sol\":2303:2323  _nonReentrantAfter() */\n      jump\t// in\n    tag_99:\n        /* \"submissions/Zora/Day30MiniDexPair.sol\":2794:3391  function removeLiquidity(uint256 lpAmount) external nonReentrant {... */\n      pop\n      jump\t// out\n        /* \"submissions/Zora/Day30MiniDexPair.sol\":1851:2748  function addLiquidity(uint256 amountA, uint256 amountB) external nonReentrant {... */\n    tag_45:\n        /* \"@openzeppelin/contracts/security/ReentrancyGuard.sol\":2261:2282  _nonReentrantBefore() */\n      tag_102\n        /* \"@openzeppelin/contracts/security/ReentrancyGuard.sol\":2261:2280  _nonReentrantBefore */\n      tag_70\n        /* \"@openzeppelin/contracts/security/ReentrancyGuard.sol\":2261:2282  _nonReentrantBefore() */\n      jump\t// in\n    tag_102:\n        /* \"submissions/Zora/Day30MiniDexPair.sol\":1958:1959  0 */\n      0x00\n        /* \"submissions/Zora/Day30MiniDexPair.sol\":1948:1955  amountA */\n      dup3\n        /* \"submissions/Zora/Day30MiniDexPair.sol\":1948:1959  amountA > 0 */\n      gt\n        /* \"submissions/Zora/Day30MiniDexPair.sol\":1948:1974  amountA > 0 && amountB > 0 */\n      dup1\n      iszero\n      tag_104\n      jumpi\n      pop\n        /* \"submissions/Zora/Day30MiniDexPair.sol\":1973:1974  0 */\n      0x00\n        /* \"submissions/Zora/Day30MiniDexPair.sol\":1963:1970  amountB */\n      dup2\n        /* \"submissions/Zora/Day30MiniDexPair.sol\":1963:1974  amountB > 0 */\n      gt\n        /* \"submissions/Zora/Day30MiniDexPair.sol\":1948:1974  amountA > 0 && amountB > 0 */\n    tag_104:\n        /* \"submissions/Zora/Day30MiniDexPair.sol\":1940:1994  require(amountA > 0 && amountB > 0, \"Invalid amounts\") */\n      tag_105\n      jumpi\n      mload(0x40)\n      0x08c379a000000000000000000000000000000000000000000000000000000000\n      dup2\n      mstore\n      0x04\n      add\n      tag_106\n      swap1\n      tag_107\n      jump\t// in\n    tag_106:\n      mload(0x40)\n      dup1\n      swap2\n      sub\n      swap1\n      revert\n    tag_105:\n        /* \"submissions/Zora/Day30MiniDexPair.sol\":2038:2044  tokenA */\n      immutable(\"0x06a79e67d636d828aa58884bc7fed897698bb40922db4eadf708235cd9c2de2c\")\n        /* \"submissions/Zora/Day30MiniDexPair.sol\":2031:2058  IERC20(tokenA).transferFrom */\n      0xffffffffffffffffffffffffffffffffffffffff\n      and\n      0x23b872dd\n        /* \"submissions/Zora/Day30MiniDexPair.sol\":2059:2069  msg.sender */\n      caller\n        /* \"submissions/Zora/Day30MiniDexPair.sol\":2079:2083  this */\n      address\n        /* \"submissions/Zora/Day30MiniDexPair.sol\":2086:2093  amountA */\n      dup6\n        /* \"submissions/Zora/Day30MiniDexPair.sol\":2031:2094  IERC20(tokenA).transferFrom(msg.sender, address(this), amountA) */\n      mload(0x40)\n      dup5\n      0xffffffff\n      and\n      0xe0\n      shl\n      dup2\n      mstore\n      0x04\n      add\n      tag_108\n      swap4\n      swap3\n      swap2\n      swap1\n      tag_109\n      jump\t// in\n    tag_108:\n      0x20\n      mload(0x40)\n      dup1\n      dup4\n      sub\n      dup2\n      0x00\n      dup8\n      gas\n      call\n      iszero\n      dup1\n      iszero\n      tag_111\n      jumpi\n      returndatacopy(0x00, 0x00, returndatasize)\n      revert(0x00, returndatasize)\n    tag_111:\n      pop\n      pop\n      pop\n      pop\n      mload(0x40)\n      returndatasize\n      not(0x1f)\n      0x1f\n      dup3\n      add\n      and\n      dup3\n      add\n      dup1\n      0x40\n      mstore\n      pop\n      dup2\n      add\n      swap1\n      tag_112\n      swap2\n      swap1\n      tag_90\n      jump\t// in\n    tag_112:\n      pop\n        /* \"submissions/Zora/Day30MiniDexPair.sol\":2112:2118  tokenB */\n      immutable(\"0xc5bf1d490d2f4e87cc1d5184cd59114bcef0e857ac09f6d840a1caed5b52d973\")\n        /* \"submissions/Zora/Day30MiniDexPair.sol\":2105:2132  IERC20(tokenB).transferFrom */\n      0xffffffffffffffffffffffffffffffffffffffff\n      and\n      0x23b872dd\n        /* \"submissions/Zora/Day30MiniDexPair.sol\":2133:2143  msg.sender */\n      caller\n        /* \"submissions/Zora/Day30MiniDexPair.sol\":2153:2157  this */\n      address\n        /* \"submissions/Zora/Day30MiniDexPair.sol\":2160:2167  amountB */\n      dup5\n        /* \"submissions/Zora/Day30MiniDexPair.sol\":2105:2168  IERC20(tokenB).transferFrom(msg.sender, address(this), amountB) */\n      mload(0x40)\n      dup5\n      0xffffffff\n      and\n      0xe0\n      shl\n      dup2\n      mstore\n      0x04\n      add\n      tag_113\n      swap4\n      swap3\n      swap2\n      swap1\n      tag_109\n      jump\t// in\n    tag_113:\n      0x20\n      mload(0x40)\n      dup1\n      dup4\n      sub\n      dup2\n      0x00\n      dup8\n      gas\n      call\n      iszero\n      dup1\n      iszero\n      tag_115\n      jumpi\n      returndatacopy(0x00, 0x00, returndatasize)\n      revert(0x00, returndatasize)\n    tag_115:\n      pop\n      pop\n      pop\n      pop\n      mload(0x40)\n      returndatasize\n      not(0x1f)\n      0x1f\n      dup3\n      add\n      and\n      dup3\n      add\n      dup1\n      0x40\n      mstore\n      pop\n      dup2\n      add\n      swap1\n      tag_116\n      swap2\n      swap1\n      tag_90\n      jump\t// in\n    tag_116:\n      pop\n        /* \"submissions/Zora/Day30MiniDexPair.sol\":2220:2236  uint256 lpToMint */\n      0x00\n        /* \"submissions/Zora/Day30MiniDexPair.sol\":2268:2269  0 */\n      0x00\n        /* \"submissions/Zora/Day30MiniDexPair.sol\":2251:2264  totalLPSupply */\n      sload(0x03)\n        /* \"submissions/Zora/Day30MiniDexPair.sol\":2251:2269  totalLPSupply == 0 */\n      sub\n        /* \"submissions/Zora/Day30MiniDexPair.sol\":2247:2504  if (totalLPSupply == 0) {... */\n      tag_117\n      jumpi\n        /* \"submissions/Zora/Day30MiniDexPair.sol\":2297:2320  sqrt(amountA * amountB) */\n      tag_118\n        /* \"submissions/Zora/Day30MiniDexPair.sol\":2312:2319  amountB */\n      dup3\n        /* \"submissions/Zora/Day30MiniDexPair.sol\":2302:2309  amountA */\n      dup5\n        /* \"submissions/Zora/Day30MiniDexPair.sol\":2302:2319  amountA * amountB */\n      tag_119\n      swap2\n      swap1\n      tag_77\n      jump\t// in\n    tag_119:\n        /* \"submissions/Zora/Day30MiniDexPair.sol\":2297:2301  sqrt */\n      tag_120\n        /* \"submissions/Zora/Day30MiniDexPair.sol\":2297:2320  sqrt(amountA * amountB) */\n      jump\t// in\n    tag_118:\n        /* \"submissions/Zora/Day30MiniDexPair.sol\":2286:2320  lpToMint = sqrt(amountA * amountB) */\n      swap1\n      pop\n        /* \"submissions/Zora/Day30MiniDexPair.sol\":2247:2504  if (totalLPSupply == 0) {... */\n      jump(tag_121)\n    tag_117:\n        /* \"submissions/Zora/Day30MiniDexPair.sol\":2364:2492  min(... */\n      tag_122\n        /* \"submissions/Zora/Day30MiniDexPair.sol\":2414:2422  reserveA */\n      sload(0x01)\n        /* \"submissions/Zora/Day30MiniDexPair.sol\":2397:2410  totalLPSupply */\n      sload(0x03)\n        /* \"submissions/Zora/Day30MiniDexPair.sol\":2387:2394  amountA */\n      dup6\n        /* \"submissions/Zora/Day30MiniDexPair.sol\":2387:2410  amountA * totalLPSupply */\n      tag_123\n      swap2\n      swap1\n      tag_77\n      jump\t// in\n    tag_123:\n        /* \"submissions/Zora/Day30MiniDexPair.sol\":2386:2422  (amountA * totalLPSupply) / reserveA */\n      tag_124\n      swap2\n      swap1\n      tag_79\n      jump\t// in\n    tag_124:\n        /* \"submissions/Zora/Day30MiniDexPair.sol\":2469:2477  reserveB */\n      sload(0x02)\n        /* \"submissions/Zora/Day30MiniDexPair.sol\":2452:2465  totalLPSupply */\n      sload(0x03)\n        /* \"submissions/Zora/Day30MiniDexPair.sol\":2442:2449  amountB */\n      dup6\n        /* \"submissions/Zora/Day30MiniDexPair.sol\":2442:2465  amountB * totalLPSupply */\n      tag_125\n      swap2\n      swap1\n      tag_77\n      jump\t// in\n    tag_125:\n        /* \"submissions/Zora/Day30MiniDexPair.sol\":2441:2477  (amountB * totalLPSupply) / reserveB */\n      tag_126\n      swap2\n      swap1\n      tag_79\n      jump\t// in\n    tag_126:\n        /* \"submissions/Zora/Day30MiniDexPair.sol\":2364:2367  min */\n      tag_127\n        /* \"submissions/Zora/Day30MiniDexPair.sol\":2364:2492  min(... */\n      jump\t// in\n    tag_122:\n        /* \"submissions/Zora/Day30MiniDexPair.sol\":2353:2492  lpToMint = min(... */\n      swap1\n      pop\n        /* \"submissions/Zora/Day30MiniDexPair.sol\":2247:2504  if (totalLPSupply == 0) {... */\n    tag_121:\n        /* \"submissions/Zora/Day30MiniDexPair.sol\":2535:2536  0 */\n      0x00\n        /* \"submissions/Zora/Day30MiniDexPair.sol\":2524:2532  lpToMint */\n      dup2\n        /* \"submissions/Zora/Day30MiniDexPair.sol\":2524:2536  lpToMint > 0 */\n      gt\n        /* \"submissions/Zora/Day30MiniDexPair.sol\":2516:2555  require(lpToMint > 0, \"Zero LP minted\") */\n      tag_128\n      jumpi\n      mload(0x40)\n      0x08c379a000000000000000000000000000000000000000000000000000000000\n      dup2\n      mstore\n      0x04\n      add\n      tag_129\n      swap1\n      tag_130\n      jump\t// in\n    tag_129:\n      mload(0x40)\n      dup1\n      swap2\n      sub\n      swap1\n      revert\n    tag_128:\n        /* \"submissions/Zora/Day30MiniDexPair.sol\":2594:2602  lpToMint */\n      dup1\n        /* \"submissions/Zora/Day30MiniDexPair.sol\":2568:2578  lpBalances */\n      0x04\n        /* \"submissions/Zora/Day30MiniDexPair.sol\":2568:2590  lpBalances[msg.sender] */\n      0x00\n        /* \"submissions/Zora/Day30MiniDexPair.sol\":2579:2589  msg.sender */\n      caller\n        /* \"submissions/Zora/Day30MiniDexPair.sol\":2568:2590  lpBalances[msg.sender] */\n      0xffffffffffffffffffffffffffffffffffffffff\n      and\n      0xffffffffffffffffffffffffffffffffffffffff\n      and\n      dup2\n      mstore\n      0x20\n      add\n      swap1\n      dup2\n      mstore\n      0x20\n      add\n      0x00\n      keccak256\n      0x00\n        /* \"submissions/Zora/Day30MiniDexPair.sol\":2568:2602  lpBalances[msg.sender] += lpToMint */\n      dup3\n      dup3\n      sload\n      tag_131\n      swap2\n      swap1\n      tag_132\n      jump\t// in\n    tag_131:\n      swap3\n      pop\n      pop\n      dup2\n      swap1\n      sstore\n      pop\n        /* \"submissions/Zora/Day30MiniDexPair.sol\":2630:2638  lpToMint */\n      dup1\n        /* \"submissions/Zora/Day30MiniDexPair.sol\":2613:2626  totalLPSupply */\n      0x03\n      0x00\n        /* \"submissions/Zora/Day30MiniDexPair.sol\":2613:2638  totalLPSupply += lpToMint */\n      dup3\n      dup3\n      sload\n      tag_133\n      swap2\n      swap1\n      tag_132\n      jump\t// in\n    tag_133:\n      swap3\n      pop\n      pop\n      dup2\n      swap1\n      sstore\n      pop\n        /* \"submissions/Zora/Day30MiniDexPair.sol\":2651:2668  _updateReserves() */\n      tag_134\n        /* \"submissions/Zora/Day30MiniDexPair.sol\":2651:2666  _updateReserves */\n      tag_96\n        /* \"submissions/Zora/Day30MiniDexPair.sol\":2651:2668  _updateReserves() */\n      jump\t// in\n    tag_134:\n        /* \"submissions/Zora/Day30MiniDexPair.sol\":2701:2711  msg.sender */\n      caller\n        /* \"submissions/Zora/Day30MiniDexPair.sol\":2686:2740  LiquidityAdded(msg.sender, amountA, amountB, lpToMint) */\n      0xffffffffffffffffffffffffffffffffffffffff\n      and\n      0x64b83944e79c3ce8d4c297411de637c3e102d064677aac0c163976ebdcd6f50e\n        /* \"submissions/Zora/Day30MiniDexPair.sol\":2713:2720  amountA */\n      dup5\n        /* \"submissions/Zora/Day30MiniDexPair.sol\":2722:2729  amountB */\n      dup5\n        /* \"submissions/Zora/Day30MiniDexPair.sol\":2731:2739  lpToMint */\n      dup5\n        /* \"submissions/Zora/Day30MiniDexPair.sol\":2686:2740  LiquidityAdded(msg.sender, amountA, amountB, lpToMint) */\n      mload(0x40)\n      tag_135\n      swap4\n      swap3\n      swap2\n      swap1\n      tag_98\n      jump\t// in\n    tag_135:\n      mload(0x40)\n      dup1\n      swap2\n      sub\n      swap1\n      log2\n        /* \"submissions/Zora/Day30MiniDexPair.sol\":1929:2748  {... */\n      pop\n        /* \"@openzeppelin/contracts/security/ReentrancyGuard.sol\":2303:2323  _nonReentrantAfter() */\n      tag_136\n        /* \"@openzeppelin/contracts/security/ReentrancyGuard.sol\":2303:2321  _nonReentrantAfter */\n      tag_100\n        /* \"@openzeppelin/contracts/security/ReentrancyGuard.sol\":2303:2323  _nonReentrantAfter() */\n      jump\t// in\n    tag_136:\n        /* \"submissions/Zora/Day30MiniDexPair.sol\":1851:2748  function addLiquidity(uint256 amountA, uint256 amountB) external nonReentrant {... */\n      pop\n      pop\n      jump\t// out\n        /* \"submissions/Zora/Day30MiniDexPair.sol\":5001:5100  function getTotalLPSupply() external view returns (uint256) {... */\n    tag_47:\n        /* \"submissions/Zora/Day30MiniDexPair.sol\":5052:5059  uint256 */\n      0x00\n        /* \"submissions/Zora/Day30MiniDexPair.sol\":5079:5092  totalLPSupply */\n      sload(0x03)\n        /* \"submissions/Zora/Day30MiniDexPair.sol\":5072:5092  return totalLPSupply */\n      swap1\n      pop\n        /* \"submissions/Zora/Day30MiniDexPair.sol\":5001:5100  function getTotalLPSupply() external view returns (uint256) {... */\n      swap1\n      jump\t// out\n        /* \"submissions/Zora/Day30MiniDexPair.sol\":448:476  uint256 public totalLPSupply */\n    tag_50:\n      sload(0x03)\n      dup2\n      jump\t// out\n        /* \"submissions/Zora/Day30MiniDexPair.sol\":4883:4993  function getLPBalance(address user) external view returns (uint256) {... */\n    tag_54:\n        /* \"submissions/Zora/Day30MiniDexPair.sol\":4942:4949  uint256 */\n      0x00\n        /* \"submissions/Zora/Day30MiniDexPair.sol\":4969:4979  lpBalances */\n      0x04\n        /* \"submissions/Zora/Day30MiniDexPair.sol\":4969:4985  lpBalances[user] */\n      0x00\n        /* \"submissions/Zora/Day30MiniDexPair.sol\":4980:4984  user */\n      dup4\n        /* \"submissions/Zora/Day30MiniDexPair.sol\":4969:4985  lpBalances[user] */\n      0xffffffffffffffffffffffffffffffffffffffff\n      and\n      0xffffffffffffffffffffffffffffffffffffffff\n      and\n      dup2\n      mstore\n      0x20\n      add\n      swap1\n      dup2\n      mstore\n      0x20\n      add\n      0x00\n      keccak256\n      sload\n        /* \"submissions/Zora/Day30MiniDexPair.sol\":4962:4985  return lpBalances[user] */\n      swap1\n      pop\n        /* \"submissions/Zora/Day30MiniDexPair.sol\":4883:4993  function getLPBalance(address user) external view returns (uint256) {... */\n      swap2\n      swap1\n      pop\n      jump\t// out\n        /* \"submissions/Zora/Day30MiniDexPair.sol\":4048:4736  function swap(uint256 inputAmount, address inputToken) external nonReentrant {... */\n    tag_59:\n        /* \"@openzeppelin/contracts/security/ReentrancyGuard.sol\":2261:2282  _nonReentrantBefore() */\n      tag_140\n        /* \"@openzeppelin/contracts/security/ReentrancyGuard.sol\":2261:2280  _nonReentrantBefore */\n      tag_70\n        /* \"@openzeppelin/contracts/security/ReentrancyGuard.sol\":2261:2282  _nonReentrantBefore() */\n      jump\t// in\n    tag_140:\n        /* \"submissions/Zora/Day30MiniDexPair.sol\":4158:4159  0 */\n      0x00\n        /* \"submissions/Zora/Day30MiniDexPair.sol\":4144:4155  inputAmount */\n      dup3\n        /* \"submissions/Zora/Day30MiniDexPair.sol\":4144:4159  inputAmount > 0 */\n      gt\n        /* \"submissions/Zora/Day30MiniDexPair.sol\":4136:4174  require(inputAmount > 0, \"Zero input\") */\n      tag_142\n      jumpi\n      mload(0x40)\n      0x08c379a000000000000000000000000000000000000000000000000000000000\n      dup2\n      mstore\n      0x04\n      add\n      tag_143\n      swap1\n      tag_144\n      jump\t// in\n    tag_143:\n      mload(0x40)\n      dup1\n      swap2\n      sub\n      swap1\n      revert\n    tag_142:\n        /* \"submissions/Zora/Day30MiniDexPair.sol\":4207:4213  tokenA */\n      immutable(\"0x06a79e67d636d828aa58884bc7fed897698bb40922db4eadf708235cd9c2de2c\")\n        /* \"submissions/Zora/Day30MiniDexPair.sol\":4193:4213  inputToken == tokenA */\n      0xffffffffffffffffffffffffffffffffffffffff\n      and\n        /* \"submissions/Zora/Day30MiniDexPair.sol\":4193:4203  inputToken */\n      dup2\n        /* \"submissions/Zora/Day30MiniDexPair.sol\":4193:4213  inputToken == tokenA */\n      0xffffffffffffffffffffffffffffffffffffffff\n      and\n      eq\n        /* \"submissions/Zora/Day30MiniDexPair.sol\":4193:4237  inputToken == tokenA || inputToken == tokenB */\n      dup1\n      tag_145\n      jumpi\n      pop\n        /* \"submissions/Zora/Day30MiniDexPair.sol\":4231:4237  tokenB */\n      immutable(\"0xc5bf1d490d2f4e87cc1d5184cd59114bcef0e857ac09f6d840a1caed5b52d973\")\n        /* \"submissions/Zora/Day30MiniDexPair.sol\":4217:4237  inputToken == tokenB */\n      0xffffffffffffffffffffffffffffffffffffffff\n      and\n        /* \"submissions/Zora/Day30MiniDexPair.sol\":4217:4227  inputToken */\n      dup2\n        /* \"submissions/Zora/Day30MiniDexPair.sol\":4217:4237  inputToken == tokenB */\n      0xffffffffffffffffffffffffffffffffffffffff\n      and\n      eq\n        /* \"submissions/Zora/Day30MiniDexPair.sol\":4193:4237  inputToken == tokenA || inputToken == tokenB */\n    tag_145:\n        /* \"submissions/Zora/Day30MiniDexPair.sol\":4185:4255  require(inputToken == tokenA || inputToken == tokenB, \"Invalid token\") */\n      tag_146\n      jumpi\n      mload(0x40)\n      0x08c379a000000000000000000000000000000000000000000000000000000000\n      dup2\n      mstore\n      0x04\n      add\n      tag_147\n      swap1\n      tag_148\n      jump\t// in\n    tag_147:\n      mload(0x40)\n      dup1\n      swap2\n      sub\n      swap1\n      revert\n    tag_146:\n        /* \"submissions/Zora/Day30MiniDexPair.sol\":4268:4287  address outputToken */\n      0x00\n        /* \"submissions/Zora/Day30MiniDexPair.sol\":4304:4310  tokenA */\n      immutable(\"0x06a79e67d636d828aa58884bc7fed897698bb40922db4eadf708235cd9c2de2c\")\n        /* \"submissions/Zora/Day30MiniDexPair.sol\":4290:4310  inputToken == tokenA */\n      0xffffffffffffffffffffffffffffffffffffffff\n      and\n        /* \"submissions/Zora/Day30MiniDexPair.sol\":4290:4300  inputToken */\n      dup3\n        /* \"submissions/Zora/Day30MiniDexPair.sol\":4290:4310  inputToken == tokenA */\n      0xffffffffffffffffffffffffffffffffffffffff\n      and\n      eq\n        /* \"submissions/Zora/Day30MiniDexPair.sol\":4290:4328  inputToken == tokenA ? tokenB : tokenA */\n      tag_149\n      jumpi\n        /* \"submissions/Zora/Day30MiniDexPair.sol\":4322:4328  tokenA */\n      immutable(\"0x06a79e67d636d828aa58884bc7fed897698bb40922db4eadf708235cd9c2de2c\")\n        /* \"submissions/Zora/Day30MiniDexPair.sol\":4290:4328  inputToken == tokenA ? tokenB : tokenA */\n      jump(tag_150)\n    tag_149:\n        /* \"submissions/Zora/Day30MiniDexPair.sol\":4313:4319  tokenB */\n      immutable(\"0xc5bf1d490d2f4e87cc1d5184cd59114bcef0e857ac09f6d840a1caed5b52d973\")\n        /* \"submissions/Zora/Day30MiniDexPair.sol\":4290:4328  inputToken == tokenA ? tokenB : tokenA */\n    tag_150:\n        /* \"submissions/Zora/Day30MiniDexPair.sol\":4268:4328  address outputToken = inputToken == tokenA ? tokenB : tokenA */\n      swap1\n      pop\n        /* \"submissions/Zora/Day30MiniDexPair.sol\":4339:4359  uint256 outputAmount */\n      0x00\n        /* \"submissions/Zora/Day30MiniDexPair.sol\":4362:4399  getAmountOut(inputAmount, inputToken) */\n      tag_151\n        /* \"submissions/Zora/Day30MiniDexPair.sol\":4375:4386  inputAmount */\n      dup5\n        /* \"submissions/Zora/Day30MiniDexPair.sol\":4388:4398  inputToken */\n      dup5\n        /* \"submissions/Zora/Day30MiniDexPair.sol\":4362:4374  getAmountOut */\n      tag_65\n        /* \"submissions/Zora/Day30MiniDexPair.sol\":4362:4399  getAmountOut(inputAmount, inputToken) */\n      jump\t// in\n    tag_151:\n        /* \"submissions/Zora/Day30MiniDexPair.sol\":4339:4399  uint256 outputAmount = getAmountOut(inputAmount, inputToken) */\n      swap1\n      pop\n        /* \"submissions/Zora/Day30MiniDexPair.sol\":4435:4436  0 */\n      0x00\n        /* \"submissions/Zora/Day30MiniDexPair.sol\":4420:4432  outputAmount */\n      dup2\n        /* \"submissions/Zora/Day30MiniDexPair.sol\":4420:4436  outputAmount > 0 */\n      gt\n        /* \"submissions/Zora/Day30MiniDexPair.sol\":4412:4460  require(outputAmount > 0, \"Insufficient output\") */\n      tag_152\n      jumpi\n      mload(0x40)\n      0x08c379a000000000000000000000000000000000000000000000000000000000\n      dup2\n      mstore\n      0x04\n      add\n      tag_153\n      swap1\n      tag_154\n      jump\t// in\n    tag_153:\n      mload(0x40)\n      dup1\n      swap2\n      sub\n      swap1\n      revert\n    tag_152:\n        /* \"submissions/Zora/Day30MiniDexPair.sol\":4480:4490  inputToken */\n      dup3\n        /* \"submissions/Zora/Day30MiniDexPair.sol\":4473:4504  IERC20(inputToken).transferFrom */\n      0xffffffffffffffffffffffffffffffffffffffff\n      and\n      0x23b872dd\n        /* \"submissions/Zora/Day30MiniDexPair.sol\":4505:4515  msg.sender */\n      caller\n        /* \"submissions/Zora/Day30MiniDexPair.sol\":4525:4529  this */\n      address\n        /* \"submissions/Zora/Day30MiniDexPair.sol\":4532:4543  inputAmount */\n      dup8\n        /* \"submissions/Zora/Day30MiniDexPair.sol\":4473:4544  IERC20(inputToken).transferFrom(msg.sender, address(this), inputAmount) */\n      mload(0x40)\n      dup5\n      0xffffffff\n      and\n      0xe0\n      shl\n      dup2\n      mstore\n      0x04\n      add\n      tag_155\n      swap4\n      swap3\n      swap2\n      swap1\n      tag_109\n      jump\t// in\n    tag_155:\n      0x20\n      mload(0x40)\n      dup1\n      dup4\n      sub\n      dup2\n      0x00\n      dup8\n      gas\n      call\n      iszero\n      dup1\n      iszero\n      tag_157\n      jumpi\n      returndatacopy(0x00, 0x00, returndatasize)\n      revert(0x00, returndatasize)\n    tag_157:\n      pop\n      pop\n      pop\n      pop\n      mload(0x40)\n      returndatasize\n      not(0x1f)\n      0x1f\n      dup3\n      add\n      and\n      dup3\n      add\n      dup1\n      0x40\n      mstore\n      pop\n      dup2\n      add\n      swap1\n      tag_158\n      swap2\n      swap1\n      tag_90\n      jump\t// in\n    tag_158:\n      pop\n        /* \"submissions/Zora/Day30MiniDexPair.sol\":4562:4573  outputToken */\n      dup2\n        /* \"submissions/Zora/Day30MiniDexPair.sol\":4555:4583  IERC20(outputToken).transfer */\n      0xffffffffffffffffffffffffffffffffffffffff\n      and\n      0xa9059cbb\n        /* \"submissions/Zora/Day30MiniDexPair.sol\":4584:4594  msg.sender */\n      caller\n        /* \"submissions/Zora/Day30MiniDexPair.sol\":4596:4608  outputAmount */\n      dup4\n        /* \"submissions/Zora/Day30MiniDexPair.sol\":4555:4609  IERC20(outputToken).transfer(msg.sender, outputAmount) */\n      mload(0x40)\n      dup4\n      0xffffffff\n      and\n      0xe0\n      shl\n      dup2\n      mstore\n      0x04\n      add\n      tag_159\n      swap3\n      swap2\n      swap1\n      tag_86\n      jump\t// in\n    tag_159:\n      0x20\n      mload(0x40)\n      dup1\n      dup4\n      sub\n      dup2\n      0x00\n      dup8\n      gas\n      call\n      iszero\n      dup1\n      iszero\n      tag_161\n      jumpi\n      returndatacopy(0x00, 0x00, returndatasize)\n      revert(0x00, returndatasize)\n    tag_161:\n      pop\n      pop\n      pop\n      pop\n      mload(0x40)\n      returndatasize\n      not(0x1f)\n      0x1f\n      dup3\n      add\n      and\n      dup3\n      add\n      dup1\n      0x40\n      mstore\n      pop\n      dup2\n      add\n      swap1\n      tag_162\n      swap2\n      swap1\n      tag_90\n      jump\t// in\n    tag_162:\n      pop\n        /* \"submissions/Zora/Day30MiniDexPair.sol\":4622:4639  _updateReserves() */\n      tag_163\n        /* \"submissions/Zora/Day30MiniDexPair.sol\":4622:4637  _updateReserves */\n      tag_96\n        /* \"submissions/Zora/Day30MiniDexPair.sol\":4622:4639  _updateReserves() */\n      jump\t// in\n    tag_163:\n        /* \"submissions/Zora/Day30MiniDexPair.sol\":4665:4675  msg.sender */\n      caller\n        /* \"submissions/Zora/Day30MiniDexPair.sol\":4657:4728  Swapped(msg.sender, inputToken, inputAmount, outputToken, outputAmount) */\n      0xffffffffffffffffffffffffffffffffffffffff\n      and\n      0x692315744755ee6d80decaeb993d4b1bb95ff5db042cc47b32d5a7d858b01902\n        /* \"submissions/Zora/Day30MiniDexPair.sol\":4677:4687  inputToken */\n      dup5\n        /* \"submissions/Zora/Day30MiniDexPair.sol\":4689:4700  inputAmount */\n      dup7\n        /* \"submissions/Zora/Day30MiniDexPair.sol\":4702:4713  outputToken */\n      dup6\n        /* \"submissions/Zora/Day30MiniDexPair.sol\":4715:4727  outputAmount */\n      dup6\n        /* \"submissions/Zora/Day30MiniDexPair.sol\":4657:4728  Swapped(msg.sender, inputToken, inputAmount, outputToken, outputAmount) */\n      mload(0x40)\n      tag_164\n      swap5\n      swap4\n      swap3\n      swap2\n      swap1\n      tag_165\n      jump\t// in\n    tag_164:\n      mload(0x40)\n      dup1\n      swap2\n      sub\n      swap1\n      log2\n        /* \"submissions/Zora/Day30MiniDexPair.sol\":4125:4736  {... */\n      pop\n      pop\n        /* \"@openzeppelin/contracts/security/ReentrancyGuard.sol\":2303:2323  _nonReentrantAfter() */\n      tag_166\n        /* \"@openzeppelin/contracts/security/ReentrancyGuard.sol\":2303:2321  _nonReentrantAfter */\n      tag_100\n        /* \"@openzeppelin/contracts/security/ReentrancyGuard.sol\":2303:2323  _nonReentrantAfter() */\n      jump\t// in\n    tag_166:\n        /* \"submissions/Zora/Day30MiniDexPair.sol\":4048:4736  function swap(uint256 inputAmount, address inputToken) external nonReentrant {... */\n      pop\n      pop\n      jump\t// out\n        /* \"submissions/Zora/Day30MiniDexPair.sol\":368:391  uint256 public reserveA */\n    tag_61:\n      sload(0x01)\n      dup2\n      jump\t// out\n        /* \"submissions/Zora/Day30MiniDexPair.sol\":3425:4020  function getAmountOut(uint256 inputAmount, address inputToken) public view returns (uint256 outputAmount) {... */\n    tag_65:\n        /* \"submissions/Zora/Day30MiniDexPair.sol\":3509:3529  uint256 outputAmount */\n      0x00\n        /* \"submissions/Zora/Day30MiniDexPair.sol\":3564:3570  tokenA */\n      immutable(\"0x06a79e67d636d828aa58884bc7fed897698bb40922db4eadf708235cd9c2de2c\")\n        /* \"submissions/Zora/Day30MiniDexPair.sol\":3550:3570  inputToken == tokenA */\n      0xffffffffffffffffffffffffffffffffffffffff\n      and\n        /* \"submissions/Zora/Day30MiniDexPair.sol\":3550:3560  inputToken */\n      dup3\n        /* \"submissions/Zora/Day30MiniDexPair.sol\":3550:3570  inputToken == tokenA */\n      0xffffffffffffffffffffffffffffffffffffffff\n      and\n      eq\n        /* \"submissions/Zora/Day30MiniDexPair.sol\":3550:3594  inputToken == tokenA || inputToken == tokenB */\n      dup1\n      tag_168\n      jumpi\n      pop\n        /* \"submissions/Zora/Day30MiniDexPair.sol\":3588:3594  tokenB */\n      immutable(\"0xc5bf1d490d2f4e87cc1d5184cd59114bcef0e857ac09f6d840a1caed5b52d973\")\n        /* \"submissions/Zora/Day30MiniDexPair.sol\":3574:3594  inputToken == tokenB */\n      0xffffffffffffffffffffffffffffffffffffffff\n      and\n        /* \"submissions/Zora/Day30MiniDexPair.sol\":3574:3584  inputToken */\n      dup3\n        /* \"submissions/Zora/Day30MiniDexPair.sol\":3574:3594  inputToken == tokenB */\n      0xffffffffffffffffffffffffffffffffffffffff\n      and\n      eq\n        /* \"submissions/Zora/Day30MiniDexPair.sol\":3550:3594  inputToken == tokenA || inputToken == tokenB */\n    tag_168:\n        /* \"submissions/Zora/Day30MiniDexPair.sol\":3542:3618  require(inputToken == tokenA || inputToken == tokenB, \"Invalid input token\") */\n      tag_169\n      jumpi\n      mload(0x40)\n      0x08c379a000000000000000000000000000000000000000000000000000000000\n      dup2\n      mstore\n      0x04\n      add\n      tag_170\n      swap1\n      tag_171\n      jump\t// in\n    tag_170:\n      mload(0x40)\n      dup1\n      swap2\n      sub\n      swap1\n      revert\n    tag_169:\n        /* \"submissions/Zora/Day30MiniDexPair.sol\":3631:3644  bool isTokenA */\n      0x00\n        /* \"submissions/Zora/Day30MiniDexPair.sol\":3661:3667  tokenA */\n      immutable(\"0x06a79e67d636d828aa58884bc7fed897698bb40922db4eadf708235cd9c2de2c\")\n        /* \"submissions/Zora/Day30MiniDexPair.sol\":3647:3667  inputToken == tokenA */\n      0xffffffffffffffffffffffffffffffffffffffff\n      and\n        /* \"submissions/Zora/Day30MiniDexPair.sol\":3647:3657  inputToken */\n      dup4\n        /* \"submissions/Zora/Day30MiniDexPair.sol\":3647:3667  inputToken == tokenA */\n      0xffffffffffffffffffffffffffffffffffffffff\n      and\n      eq\n        /* \"submissions/Zora/Day30MiniDexPair.sol\":3631:3667  bool isTokenA = inputToken == tokenA */\n      swap1\n      pop\n        /* \"submissions/Zora/Day30MiniDexPair.sol\":3679:3699  uint256 inputReserve */\n      0x00\n        /* \"submissions/Zora/Day30MiniDexPair.sol\":3701:3722  uint256 outputReserve */\n      0x00\n        /* \"submissions/Zora/Day30MiniDexPair.sol\":3726:3734  isTokenA */\n      dup3\n        /* \"submissions/Zora/Day30MiniDexPair.sol\":3726:3780  isTokenA ? (reserveA, reserveB) : (reserveB, reserveA) */\n      tag_172\n      jumpi\n        /* \"submissions/Zora/Day30MiniDexPair.sol\":3761:3769  reserveB */\n      sload(0x02)\n        /* \"submissions/Zora/Day30MiniDexPair.sol\":3771:3779  reserveA */\n      sload(0x01)\n        /* \"submissions/Zora/Day30MiniDexPair.sol\":3726:3780  isTokenA ? (reserveA, reserveB) : (reserveB, reserveA) */\n      jump(tag_173)\n    tag_172:\n        /* \"submissions/Zora/Day30MiniDexPair.sol\":3738:3746  reserveA */\n      sload(0x01)\n        /* \"submissions/Zora/Day30MiniDexPair.sol\":3748:3756  reserveB */\n      sload(0x02)\n        /* \"submissions/Zora/Day30MiniDexPair.sol\":3726:3780  isTokenA ? (reserveA, reserveB) : (reserveB, reserveA) */\n    tag_173:\n        /* \"submissions/Zora/Day30MiniDexPair.sol\":3678:3780  (uint256 inputReserve, uint256 outputReserve) = isTokenA ? (reserveA, reserveB) : (reserveB, reserveA) */\n      swap2\n      pop\n      swap2\n      pop\n        /* \"submissions/Zora/Day30MiniDexPair.sol\":3793:3813  uint256 inputWithFee */\n      0x00\n        /* \"submissions/Zora/Day30MiniDexPair.sol\":3830:3833  997 */\n      0x03e5\n        /* \"submissions/Zora/Day30MiniDexPair.sol\":3816:3827  inputAmount */\n      dup8\n        /* \"submissions/Zora/Day30MiniDexPair.sol\":3816:3833  inputAmount * 997 */\n      tag_174\n      swap2\n      swap1\n      tag_77\n      jump\t// in\n    tag_174:\n        /* \"submissions/Zora/Day30MiniDexPair.sol\":3793:3833  uint256 inputWithFee = inputAmount * 997 */\n      swap1\n      pop\n        /* \"submissions/Zora/Day30MiniDexPair.sol\":3844:3861  uint256 numerator */\n      0x00\n        /* \"submissions/Zora/Day30MiniDexPair.sol\":3879:3892  outputReserve */\n      dup3\n        /* \"submissions/Zora/Day30MiniDexPair.sol\":3864:3876  inputWithFee */\n      dup3\n        /* \"submissions/Zora/Day30MiniDexPair.sol\":3864:3892  inputWithFee * outputReserve */\n      tag_175\n      swap2\n      swap1\n      tag_77\n      jump\t// in\n    tag_175:\n        /* \"submissions/Zora/Day30MiniDexPair.sol\":3844:3892  uint256 numerator = inputWithFee * outputReserve */\n      swap1\n      pop\n        /* \"submissions/Zora/Day30MiniDexPair.sol\":3903:3922  uint256 denominator */\n      0x00\n        /* \"submissions/Zora/Day30MiniDexPair.sol\":3949:3961  inputWithFee */\n      dup3\n        /* \"submissions/Zora/Day30MiniDexPair.sol\":3941:3945  1000 */\n      0x03e8\n        /* \"submissions/Zora/Day30MiniDexPair.sol\":3926:3938  inputReserve */\n      dup7\n        /* \"submissions/Zora/Day30MiniDexPair.sol\":3926:3945  inputReserve * 1000 */\n      tag_176\n      swap2\n      swap1\n      tag_77\n      jump\t// in\n    tag_176:\n        /* \"submissions/Zora/Day30MiniDexPair.sol\":3925:3961  (inputReserve * 1000) + inputWithFee */\n      tag_177\n      swap2\n      swap1\n      tag_132\n      jump\t// in\n    tag_177:\n        /* \"submissions/Zora/Day30MiniDexPair.sol\":3903:3961  uint256 denominator = (inputReserve * 1000) + inputWithFee */\n      swap1\n      pop\n        /* \"submissions/Zora/Day30MiniDexPair.sol\":4001:4012  denominator */\n      dup1\n        /* \"submissions/Zora/Day30MiniDexPair.sol\":3989:3998  numerator */\n      dup3\n        /* \"submissions/Zora/Day30MiniDexPair.sol\":3989:4012  numerator / denominator */\n      tag_178\n      swap2\n      swap1\n      tag_79\n      jump\t// in\n    tag_178:\n        /* \"submissions/Zora/Day30MiniDexPair.sol\":3974:4012  outputAmount = numerator / denominator */\n      swap7\n      pop\n        /* \"submissions/Zora/Day30MiniDexPair.sol\":3531:4020  {... */\n      pop\n      pop\n      pop\n      pop\n      pop\n      pop\n        /* \"submissions/Zora/Day30MiniDexPair.sol\":3425:4020  function getAmountOut(uint256 inputAmount, address inputToken) public view returns (uint256 outputAmount) {... */\n      swap3\n      swap2\n      pop\n      pop\n      jump\t// out\n        /* \"@openzeppelin/contracts/security/ReentrancyGuard.sol\":2336:2623  function _nonReentrantBefore() private {... */\n    tag_70:\n        /* \"@openzeppelin/contracts/security/ReentrancyGuard.sol\":1759:1760  2 */\n      0x02\n        /* \"@openzeppelin/contracts/security/ReentrancyGuard.sol\":2468:2475  _status */\n      sload(0x00)\n        /* \"@openzeppelin/contracts/security/ReentrancyGuard.sol\":2468:2487  _status != _ENTERED */\n      sub\n        /* \"@openzeppelin/contracts/security/ReentrancyGuard.sol\":2460:2523  require(_status != _ENTERED, \"ReentrancyGuard: reentrant call\") */\n      tag_180\n      jumpi\n      mload(0x40)\n      0x08c379a000000000000000000000000000000000000000000000000000000000\n      dup2\n      mstore\n      0x04\n      add\n      tag_181\n      swap1\n      tag_182\n      jump\t// in\n    tag_181:\n      mload(0x40)\n      dup1\n      swap2\n      sub\n      swap1\n      revert\n    tag_180:\n        /* \"@openzeppelin/contracts/security/ReentrancyGuard.sol\":1759:1760  2 */\n      0x02\n        /* \"@openzeppelin/contracts/security/ReentrancyGuard.sol\":2598:2605  _status */\n      0x00\n        /* \"@openzeppelin/contracts/security/ReentrancyGuard.sol\":2598:2616  _status = _ENTERED */\n      dup2\n      swap1\n      sstore\n      pop\n        /* \"@openzeppelin/contracts/security/ReentrancyGuard.sol\":2336:2623  function _nonReentrantBefore() private {... */\n      jump\t// out\n        /* \"submissions/Zora/Day30MiniDexPair.sol\":1646:1811  function _updateReserves() private {... */\n    tag_96:\n        /* \"submissions/Zora/Day30MiniDexPair.sol\":1710:1716  tokenA */\n      immutable(\"0x06a79e67d636d828aa58884bc7fed897698bb40922db4eadf708235cd9c2de2c\")\n        /* \"submissions/Zora/Day30MiniDexPair.sol\":1703:1727  IERC20(tokenA).balanceOf */\n      0xffffffffffffffffffffffffffffffffffffffff\n      and\n      0x70a08231\n        /* \"submissions/Zora/Day30MiniDexPair.sol\":1736:1740  this */\n      address\n        /* \"submissions/Zora/Day30MiniDexPair.sol\":1703:1742  IERC20(tokenA).balanceOf(address(this)) */\n      mload(0x40)\n      dup3\n      0xffffffff\n      and\n      0xe0\n      shl\n      dup2\n      mstore\n      0x04\n      add\n      tag_184\n      swap2\n      swap1\n      tag_31\n      jump\t// in\n    tag_184:\n      0x20\n      mload(0x40)\n      dup1\n      dup4\n      sub\n      dup2\n      dup7\n      gas\n      staticcall\n      iszero\n      dup1\n      iszero\n      tag_186\n      jumpi\n      returndatacopy(0x00, 0x00, returndatasize)\n      revert(0x00, returndatasize)\n    tag_186:\n      pop\n      pop\n      pop\n      pop\n      mload(0x40)\n      returndatasize\n      not(0x1f)\n      0x1f\n      dup3\n      add\n      and\n      dup3\n      add\n      dup1\n      0x40\n      mstore\n      pop\n      dup2\n      add\n      swap1\n      tag_187\n      swap2\n      swap1\n      tag_188\n      jump\t// in\n    tag_187:\n        /* \"submissions/Zora/Day30MiniDexPair.sol\":1692:1700  reserveA */\n      0x01\n        /* \"submissions/Zora/Day30MiniDexPair.sol\":1692:1742  reserveA = IERC20(tokenA).balanceOf(address(this)) */\n      dup2\n      swap1\n      sstore\n      pop\n        /* \"submissions/Zora/Day30MiniDexPair.sol\":1771:1777  tokenB */\n      immutable(\"0xc5bf1d490d2f4e87cc1d5184cd59114bcef0e857ac09f6d840a1caed5b52d973\")\n        /* \"submissions/Zora/Day30MiniDexPair.sol\":1764:1788  IERC20(tokenB).balanceOf */\n      0xffffffffffffffffffffffffffffffffffffffff\n      and\n      0x70a08231\n        /* \"submissions/Zora/Day30MiniDexPair.sol\":1797:1801  this */\n      address\n        /* \"submissions/Zora/Day30MiniDexPair.sol\":1764:1803  IERC20(tokenB).balanceOf(address(this)) */\n      mload(0x40)\n      dup3\n      0xffffffff\n      and\n      0xe0\n      shl\n      dup2\n      mstore\n      0x04\n      add\n      tag_189\n      swap2\n      swap1\n      tag_31\n      jump\t// in\n    tag_189:\n      0x20\n      mload(0x40)\n      dup1\n      dup4\n      sub\n      dup2\n      dup7\n      gas\n      staticcall\n      iszero\n      dup1\n      iszero\n      tag_191\n      jumpi\n      returndatacopy(0x00, 0x00, returndatasize)\n      revert(0x00, returndatasize)\n    tag_191:\n      pop\n      pop\n      pop\n      pop\n      mload(0x40)\n      returndatasize\n      not(0x1f)\n      0x1f\n      dup3\n      add\n      and\n      dup3\n      add\n      dup1\n      0x40\n      mstore\n      pop\n      dup2\n      add\n      swap1\n      tag_192\n      swap2\n      swap1\n      tag_188\n      jump\t// in\n    tag_192:\n        /* \"submissions/Zora/Day30MiniDexPair.sol\":1753:1761  reserveB */\n      0x02\n        /* \"submissions/Zora/Day30MiniDexPair.sol\":1753:1803  reserveB = IERC20(tokenB).balanceOf(address(this)) */\n      dup2\n      swap1\n      sstore\n      pop\n        /* \"submissions/Zora/Day30MiniDexPair.sol\":1646:1811  function _updateReserves() private {... */\n      jump\t// out\n        /* \"@openzeppelin/contracts/security/ReentrancyGuard.sol\":2629:2838  function _nonReentrantAfter() private {... */\n    tag_100:\n        /* \"@openzeppelin/contracts/security/ReentrancyGuard.sol\":1716:1717  1 */\n      0x01\n        /* \"@openzeppelin/contracts/security/ReentrancyGuard.sol\":2809:2816  _status */\n      0x00\n        /* \"@openzeppelin/contracts/security/ReentrancyGuard.sol\":2809:2831  _status = _NOT_ENTERED */\n      dup2\n      swap1\n      sstore\n      pop\n        /* \"@openzeppelin/contracts/security/ReentrancyGuard.sol\":2629:2838  function _nonReentrantAfter() private {... */\n      jump\t// out\n        /* \"submissions/Zora/Day30MiniDexPair.sol\":1195:1498  function sqrt(uint y) internal pure returns (uint z) {... */\n    tag_120:\n        /* \"submissions/Zora/Day30MiniDexPair.sol\":1240:1246  uint z */\n      0x00\n        /* \"submissions/Zora/Day30MiniDexPair.sol\":1267:1268  3 */\n      0x03\n        /* \"submissions/Zora/Day30MiniDexPair.sol\":1263:1264  y */\n      dup3\n        /* \"submissions/Zora/Day30MiniDexPair.sol\":1263:1268  y > 3 */\n      gt\n        /* \"submissions/Zora/Day30MiniDexPair.sol\":1259:1491  if (y > 3) {... */\n      iszero\n      tag_195\n      jumpi\n        /* \"submissions/Zora/Day30MiniDexPair.sol\":1289:1290  y */\n      dup2\n        /* \"submissions/Zora/Day30MiniDexPair.sol\":1285:1290  z = y */\n      swap1\n      pop\n        /* \"submissions/Zora/Day30MiniDexPair.sol\":1305:1311  uint x */\n      0x00\n        /* \"submissions/Zora/Day30MiniDexPair.sol\":1322:1323  1 */\n      0x01\n        /* \"submissions/Zora/Day30MiniDexPair.sol\":1318:1319  2 */\n      0x02\n        /* \"submissions/Zora/Day30MiniDexPair.sol\":1314:1315  y */\n      dup5\n        /* \"submissions/Zora/Day30MiniDexPair.sol\":1314:1319  y / 2 */\n      tag_196\n      swap2\n      swap1\n      tag_79\n      jump\t// in\n    tag_196:\n        /* \"submissions/Zora/Day30MiniDexPair.sol\":1314:1323  y / 2 + 1 */\n      tag_197\n      swap2\n      swap1\n      tag_132\n      jump\t// in\n    tag_197:\n        /* \"submissions/Zora/Day30MiniDexPair.sol\":1305:1323  uint x = y / 2 + 1 */\n      swap1\n      pop\n        /* \"submissions/Zora/Day30MiniDexPair.sol\":1338:1430  while (x < z) {... */\n    tag_198:\n        /* \"submissions/Zora/Day30MiniDexPair.sol\":1349:1350  z */\n      dup2\n        /* \"submissions/Zora/Day30MiniDexPair.sol\":1345:1346  x */\n      dup2\n        /* \"submissions/Zora/Day30MiniDexPair.sol\":1345:1350  x < z */\n      lt\n        /* \"submissions/Zora/Day30MiniDexPair.sol\":1338:1430  while (x < z) {... */\n      iszero\n      tag_199\n      jumpi\n        /* \"submissions/Zora/Day30MiniDexPair.sol\":1375:1376  x */\n      dup1\n        /* \"submissions/Zora/Day30MiniDexPair.sol\":1371:1376  z = x */\n      swap2\n      pop\n        /* \"submissions/Zora/Day30MiniDexPair.sol\":1413:1414  2 */\n      0x02\n        /* \"submissions/Zora/Day30MiniDexPair.sol\":1408:1409  x */\n      dup2\n        /* \"submissions/Zora/Day30MiniDexPair.sol\":1404:1405  x */\n      dup3\n        /* \"submissions/Zora/Day30MiniDexPair.sol\":1400:1401  y */\n      dup6\n        /* \"submissions/Zora/Day30MiniDexPair.sol\":1400:1405  y / x */\n      tag_200\n      swap2\n      swap1\n      tag_79\n      jump\t// in\n    tag_200:\n        /* \"submissions/Zora/Day30MiniDexPair.sol\":1400:1409  y / x + x */\n      tag_201\n      swap2\n      swap1\n      tag_132\n      jump\t// in\n    tag_201:\n        /* \"submissions/Zora/Day30MiniDexPair.sol\":1399:1414  (y / x + x) / 2 */\n      tag_202\n      swap2\n      swap1\n      tag_79\n      jump\t// in\n    tag_202:\n        /* \"submissions/Zora/Day30MiniDexPair.sol\":1395:1414  x = (y / x + x) / 2 */\n      swap1\n      pop\n        /* \"submissions/Zora/Day30MiniDexPair.sol\":1338:1430  while (x < z) {... */\n      jump(tag_198)\n    tag_199:\n        /* \"submissions/Zora/Day30MiniDexPair.sol\":1270:1441  {... */\n      pop\n        /* \"submissions/Zora/Day30MiniDexPair.sol\":1259:1491  if (y > 3) {... */\n      jump(tag_203)\n    tag_195:\n        /* \"submissions/Zora/Day30MiniDexPair.sol\":1456:1457  0 */\n      0x00\n        /* \"submissions/Zora/Day30MiniDexPair.sol\":1451:1452  y */\n      dup3\n        /* \"submissions/Zora/Day30MiniDexPair.sol\":1451:1457  y != 0 */\n      eq\n        /* \"submissions/Zora/Day30MiniDexPair.sol\":1447:1491  if (y != 0) {... */\n      tag_204\n      jumpi\n        /* \"submissions/Zora/Day30MiniDexPair.sol\":1478:1479  1 */\n      0x01\n        /* \"submissions/Zora/Day30MiniDexPair.sol\":1474:1479  z = 1 */\n      swap1\n      pop\n        /* \"submissions/Zora/Day30MiniDexPair.sol\":1447:1491  if (y != 0) {... */\n    tag_204:\n        /* \"submissions/Zora/Day30MiniDexPair.sol\":1259:1491  if (y > 3) {... */\n    tag_203:\n        /* \"submissions/Zora/Day30MiniDexPair.sol\":1195:1498  function sqrt(uint y) internal pure returns (uint z) {... */\n      swap2\n      swap1\n      pop\n      jump\t// out\n        /* \"submissions/Zora/Day30MiniDexPair.sol\":1506:1612  function min(uint256 a, uint256 b) internal pure returns (uint256) {... */\n    tag_127:\n        /* \"submissions/Zora/Day30MiniDexPair.sol\":1564:1571  uint256 */\n      0x00\n        /* \"submissions/Zora/Day30MiniDexPair.sol\":1595:1596  b */\n      dup2\n        /* \"submissions/Zora/Day30MiniDexPair.sol\":1591:1592  a */\n      dup4\n        /* \"submissions/Zora/Day30MiniDexPair.sol\":1591:1596  a < b */\n      lt\n        /* \"submissions/Zora/Day30MiniDexPair.sol\":1591:1604  a < b ? a : b */\n      tag_206\n      jumpi\n        /* \"submissions/Zora/Day30MiniDexPair.sol\":1603:1604  b */\n      dup2\n        /* \"submissions/Zora/Day30MiniDexPair.sol\":1591:1604  a < b ? a : b */\n      jump(tag_207)\n    tag_206:\n        /* \"submissions/Zora/Day30MiniDexPair.sol\":1599:1600  a */\n      dup3\n        /* \"submissions/Zora/Day30MiniDexPair.sol\":1591:1604  a < b ? a : b */\n    tag_207:\n        /* \"submissions/Zora/Day30MiniDexPair.sol\":1584:1604  return a < b ? a : b */\n      swap1\n      pop\n        /* \"submissions/Zora/Day30MiniDexPair.sol\":1506:1612  function min(uint256 a, uint256 b) internal pure returns (uint256) {... */\n      swap3\n      swap2\n      pop\n      pop\n      jump\t// out\n        /* \"#utility.yul\":7:84   */\n    tag_208:\n        /* \"#utility.yul\":44:51   */\n      0x00\n        /* \"#utility.yul\":73:78   */\n      dup2\n        /* \"#utility.yul\":62:78   */\n      swap1\n      pop\n        /* \"#utility.yul\":7:84   */\n      swap2\n      swap1\n      pop\n      jump\t// out\n        /* \"#utility.yul\":90:208   */\n    tag_209:\n        /* \"#utility.yul\":177:201   */\n      tag_246\n        /* \"#utility.yul\":195:200   */\n      dup2\n        /* \"#utility.yul\":177:201   */\n      tag_208\n      jump\t// in\n    tag_246:\n        /* \"#utility.yul\":172:175   */\n      dup3\n        /* \"#utility.yul\":165:202   */\n      mstore\n        /* \"#utility.yul\":90:208   */\n      pop\n      pop\n      jump\t// out\n        /* \"#utility.yul\":214:546   */\n    tag_21:\n        /* \"#utility.yul\":335:339   */\n      0x00\n        /* \"#utility.yul\":373:375   */\n      0x40\n        /* \"#utility.yul\":362:371   */\n      dup3\n        /* \"#utility.yul\":358:376   */\n      add\n        /* \"#utility.yul\":350:376   */\n      swap1\n      pop\n        /* \"#utility.yul\":386:457   */\n      tag_248\n        /* \"#utility.yul\":454:455   */\n      0x00\n        /* \"#utility.yul\":443:452   */\n      dup4\n        /* \"#utility.yul\":439:456   */\n      add\n        /* \"#utility.yul\":430:436   */\n      dup6\n        /* \"#utility.yul\":386:457   */\n      tag_209\n      jump\t// in\n    tag_248:\n        /* \"#utility.yul\":467:539   */\n      tag_249\n        /* \"#utility.yul\":535:537   */\n      0x20\n        /* \"#utility.yul\":524:533   */\n      dup4\n        /* \"#utility.yul\":520:538   */\n      add\n        /* \"#utility.yul\":511:517   */\n      dup5\n        /* \"#utility.yul\":467:539   */\n      tag_209\n      jump\t// in\n    tag_249:\n        /* \"#utility.yul\":214:546   */\n      swap4\n      swap3\n      pop\n      pop\n      pop\n      jump\t// out\n        /* \"#utility.yul\":633:750   */\n    tag_211:\n        /* \"#utility.yul\":742:743   */\n      0x00\n        /* \"#utility.yul\":739:740   */\n      0x00\n        /* \"#utility.yul\":732:744   */\n      revert\n        /* \"#utility.yul\":879:1005   */\n    tag_213:\n        /* \"#utility.yul\":916:923   */\n      0x00\n        /* \"#utility.yul\":956:998   */\n      0xffffffffffffffffffffffffffffffffffffffff\n        /* \"#utility.yul\":949:954   */\n      dup3\n        /* \"#utility.yul\":945:999   */\n      and\n        /* \"#utility.yul\":934:999   */\n      swap1\n      pop\n        /* \"#utility.yul\":879:1005   */\n      swap2\n      swap1\n      pop\n      jump\t// out\n        /* \"#utility.yul\":1011:1107   */\n    tag_214:\n        /* \"#utility.yul\":1048:1055   */\n      0x00\n        /* \"#utility.yul\":1077:1101   */\n      tag_255\n        /* \"#utility.yul\":1095:1100   */\n      dup3\n        /* \"#utility.yul\":1077:1101   */\n      tag_213\n      jump\t// in\n    tag_255:\n        /* \"#utility.yul\":1066:1101   */\n      swap1\n      pop\n        /* \"#utility.yul\":1011:1107   */\n      swap2\n      swap1\n      pop\n      jump\t// out\n        /* \"#utility.yul\":1113:1235   */\n    tag_215:\n        /* \"#utility.yul\":1186:1210   */\n      tag_257\n        /* \"#utility.yul\":1204:1209   */\n      dup2\n        /* \"#utility.yul\":1186:1210   */\n      tag_214\n      jump\t// in\n    tag_257:\n        /* \"#utility.yul\":1179:1184   */\n      dup2\n        /* \"#utility.yul\":1176:1211   */\n      eq\n        /* \"#utility.yul\":1166:1229   */\n      tag_258\n      jumpi\n        /* \"#utility.yul\":1225:1226   */\n      0x00\n        /* \"#utility.yul\":1222:1223   */\n      0x00\n        /* \"#utility.yul\":1215:1227   */\n      revert\n        /* \"#utility.yul\":1166:1229   */\n    tag_258:\n        /* \"#utility.yul\":1113:1235   */\n      pop\n      jump\t// out\n        /* \"#utility.yul\":1241:1380   */\n    tag_216:\n        /* \"#utility.yul\":1287:1292   */\n      0x00\n        /* \"#utility.yul\":1325:1331   */\n      dup2\n        /* \"#utility.yul\":1312:1332   */\n      calldataload\n        /* \"#utility.yul\":1303:1332   */\n      swap1\n      pop\n        /* \"#utility.yul\":1341:1374   */\n      tag_260\n        /* \"#utility.yul\":1368:1373   */\n      dup2\n        /* \"#utility.yul\":1341:1374   */\n      tag_215\n      jump\t// in\n    tag_260:\n        /* \"#utility.yul\":1241:1380   */\n      swap3\n      swap2\n      pop\n      pop\n      jump\t// out\n        /* \"#utility.yul\":1386:1715   */\n    tag_24:\n        /* \"#utility.yul\":1445:1451   */\n      0x00\n        /* \"#utility.yul\":1494:1496   */\n      0x20\n        /* \"#utility.yul\":1482:1491   */\n      dup3\n        /* \"#utility.yul\":1473:1480   */\n      dup5\n        /* \"#utility.yul\":1469:1492   */\n      sub\n        /* \"#utility.yul\":1465:1497   */\n      slt\n        /* \"#utility.yul\":1462:1581   */\n      iszero\n      tag_262\n      jumpi\n        /* \"#utility.yul\":1500:1579   */\n      tag_263\n      tag_211\n      jump\t// in\n    tag_263:\n        /* \"#utility.yul\":1462:1581   */\n    tag_262:\n        /* \"#utility.yul\":1620:1621   */\n      0x00\n        /* \"#utility.yul\":1645:1698   */\n      tag_264\n        /* \"#utility.yul\":1690:1697   */\n      dup5\n        /* \"#utility.yul\":1681:1687   */\n      dup3\n        /* \"#utility.yul\":1670:1679   */\n      dup6\n        /* \"#utility.yul\":1666:1688   */\n      add\n        /* \"#utility.yul\":1645:1698   */\n      tag_216\n      jump\t// in\n    tag_264:\n        /* \"#utility.yul\":1635:1698   */\n      swap2\n      pop\n        /* \"#utility.yul\":1591:1708   */\n      pop\n        /* \"#utility.yul\":1386:1715   */\n      swap3\n      swap2\n      pop\n      pop\n      jump\t// out\n        /* \"#utility.yul\":1721:1943   */\n    tag_27:\n        /* \"#utility.yul\":1814:1818   */\n      0x00\n        /* \"#utility.yul\":1852:1854   */\n      0x20\n        /* \"#utility.yul\":1841:1850   */\n      dup3\n        /* \"#utility.yul\":1837:1855   */\n      add\n        /* \"#utility.yul\":1829:1855   */\n      swap1\n      pop\n        /* \"#utility.yul\":1865:1936   */\n      tag_266\n        /* \"#utility.yul\":1933:1934   */\n      0x00\n        /* \"#utility.yul\":1922:1931   */\n      dup4\n        /* \"#utility.yul\":1918:1935   */\n      add\n        /* \"#utility.yul\":1909:1915   */\n      dup5\n        /* \"#utility.yul\":1865:1936   */\n      tag_209\n      jump\t// in\n    tag_266:\n        /* \"#utility.yul\":1721:1943   */\n      swap3\n      swap2\n      pop\n      pop\n      jump\t// out\n        /* \"#utility.yul\":1949:2067   */\n    tag_217:\n        /* \"#utility.yul\":2036:2060   */\n      tag_268\n        /* \"#utility.yul\":2054:2059   */\n      dup2\n        /* \"#utility.yul\":2036:2060   */\n      tag_214\n      jump\t// in\n    tag_268:\n        /* \"#utility.yul\":2031:2034   */\n      dup3\n        /* \"#utility.yul\":2024:2061   */\n      mstore\n        /* \"#utility.yul\":1949:2067   */\n      pop\n      pop\n      jump\t// out\n        /* \"#utility.yul\":2073:2295   */\n    tag_31:\n        /* \"#utility.yul\":2166:2170   */\n      0x00\n        /* \"#utility.yul\":2204:2206   */\n      0x20\n        /* \"#utility.yul\":2193:2202   */\n      dup3\n        /* \"#utility.yul\":2189:2207   */\n      add\n        /* \"#utility.yul\":2181:2207   */\n      swap1\n      pop\n        /* \"#utility.yul\":2217:2288   */\n      tag_270\n        /* \"#utility.yul\":2285:2286   */\n      0x00\n        /* \"#utility.yul\":2274:2283   */\n      dup4\n        /* \"#utility.yul\":2270:2287   */\n      add\n        /* \"#utility.yul\":2261:2267   */\n      dup5\n        /* \"#utility.yul\":2217:2288   */\n      tag_217\n      jump\t// in\n    tag_270:\n        /* \"#utility.yul\":2073:2295   */\n      swap3\n      swap2\n      pop\n      pop\n      jump\t// out\n        /* \"#utility.yul\":2301:2423   */\n    tag_218:\n        /* \"#utility.yul\":2374:2398   */\n      tag_272\n        /* \"#utility.yul\":2392:2397   */\n      dup2\n        /* \"#utility.yul\":2374:2398   */\n      tag_208\n      jump\t// in\n    tag_272:\n        /* \"#utility.yul\":2367:2372   */\n      dup2\n        /* \"#utility.yul\":2364:2399   */\n      eq\n        /* \"#utility.yul\":2354:2417   */\n      tag_273\n      jumpi\n        /* \"#utility.yul\":2413:2414   */\n      0x00\n        /* \"#utility.yul\":2410:2411   */\n      0x00\n        /* \"#utility.yul\":2403:2415   */\n      revert\n        /* \"#utility.yul\":2354:2417   */\n    tag_273:\n        /* \"#utility.yul\":2301:2423   */\n      pop\n      jump\t// out\n        /* \"#utility.yul\":2429:2568   */\n    tag_219:\n        /* \"#utility.yul\":2475:2480   */\n      0x00\n        /* \"#utility.yul\":2513:2519   */\n      dup2\n        /* \"#utility.yul\":2500:2520   */\n      calldataload\n        /* \"#utility.yul\":2491:2520   */\n      swap1\n      pop\n        /* \"#utility.yul\":2529:2562   */\n      tag_275\n        /* \"#utility.yul\":2556:2561   */\n      dup2\n        /* \"#utility.yul\":2529:2562   */\n      tag_218\n      jump\t// in\n    tag_275:\n        /* \"#utility.yul\":2429:2568   */\n      swap3\n      swap2\n      pop\n      pop\n      jump\t// out\n        /* \"#utility.yul\":2574:2903   */\n    tag_40:\n        /* \"#utility.yul\":2633:2639   */\n      0x00\n        /* \"#utility.yul\":2682:2684   */\n      0x20\n        /* \"#utility.yul\":2670:2679   */\n      dup3\n        /* \"#utility.yul\":2661:2668   */\n      dup5\n        /* \"#utility.yul\":2657:2680   */\n      sub\n        /* \"#utility.yul\":2653:2685   */\n      slt\n        /* \"#utility.yul\":2650:2769   */\n      iszero\n      tag_277\n      jumpi\n        /* \"#utility.yul\":2688:2767   */\n      tag_278\n      tag_211\n      jump\t// in\n    tag_278:\n        /* \"#utility.yul\":2650:2769   */\n    tag_277:\n        /* \"#utility.yul\":2808:2809   */\n      0x00\n        /* \"#utility.yul\":2833:2886   */\n      tag_279\n        /* \"#utility.yul\":2878:2885   */\n      dup5\n        /* \"#utility.yul\":2869:2875   */\n      dup3\n        /* \"#utility.yul\":2858:2867   */\n      dup6\n        /* \"#utility.yul\":2854:2876   */\n      add\n        /* \"#utility.yul\":2833:2886   */\n      tag_219\n      jump\t// in\n    tag_279:\n        /* \"#utility.yul\":2823:2886   */\n      swap2\n      pop\n        /* \"#utility.yul\":2779:2896   */\n      pop\n        /* \"#utility.yul\":2574:2903   */\n      swap3\n      swap2\n      pop\n      pop\n      jump\t// out\n        /* \"#utility.yul\":2909:3383   */\n    tag_44:\n        /* \"#utility.yul\":2977:2983   */\n      0x00\n        /* \"#utility.yul\":2985:2991   */\n      0x00\n        /* \"#utility.yul\":3034:3036   */\n      0x40\n        /* \"#utility.yul\":3022:3031   */\n      dup4\n        /* \"#utility.yul\":3013:3020   */\n      dup6\n        /* \"#utility.yul\":3009:3032   */\n      sub\n        /* \"#utility.yul\":3005:3037   */\n      slt\n        /* \"#utility.yul\":3002:3121   */\n      iszero\n      tag_281\n      jumpi\n        /* \"#utility.yul\":3040:3119   */\n      tag_282\n      tag_211\n      jump\t// in\n    tag_282:\n        /* \"#utility.yul\":3002:3121   */\n    tag_281:\n        /* \"#utility.yul\":3160:3161   */\n      0x00\n        /* \"#utility.yul\":3185:3238   */\n      tag_283\n        /* \"#utility.yul\":3230:3237   */\n      dup6\n        /* \"#utility.yul\":3221:3227   */\n      dup3\n        /* \"#utility.yul\":3210:3219   */\n      dup7\n        /* \"#utility.yul\":3206:3228   */\n      add\n        /* \"#utility.yul\":3185:3238   */\n      tag_219\n      jump\t// in\n    tag_283:\n        /* \"#utility.yul\":3175:3238   */\n      swap3\n      pop\n        /* \"#utility.yul\":3131:3248   */\n      pop\n        /* \"#utility.yul\":3287:3289   */\n      0x20\n        /* \"#utility.yul\":3313:3366   */\n      tag_284\n        /* \"#utility.yul\":3358:3365   */\n      dup6\n        /* \"#utility.yul\":3349:3355   */\n      dup3\n        /* \"#utility.yul\":3338:3347   */\n      dup7\n        /* \"#utility.yul\":3334:3356   */\n      add\n        /* \"#utility.yul\":3313:3366   */\n      tag_219\n      jump\t// in\n    tag_284:\n        /* \"#utility.yul\":3303:3366   */\n      swap2\n      pop\n        /* \"#utility.yul\":3258:3376   */\n      pop\n        /* \"#utility.yul\":2909:3383   */\n      swap3\n      pop\n      swap3\n      swap1\n      pop\n      jump\t// out\n        /* \"#utility.yul\":3389:3863   */\n    tag_58:\n        /* \"#utility.yul\":3457:3463   */\n      0x00\n        /* \"#utility.yul\":3465:3471   */\n      0x00\n        /* \"#utility.yul\":3514:3516   */\n      0x40\n        /* \"#utility.yul\":3502:3511   */\n      dup4\n        /* \"#utility.yul\":3493:3500   */\n      dup6\n        /* \"#utility.yul\":3489:3512   */\n      sub\n        /* \"#utility.yul\":3485:3517   */\n      slt\n        /* \"#utility.yul\":3482:3601   */\n      iszero\n      tag_286\n      jumpi\n        /* \"#utility.yul\":3520:3599   */\n      tag_287\n      tag_211\n      jump\t// in\n    tag_287:\n        /* \"#utility.yul\":3482:3601   */\n    tag_286:\n        /* \"#utility.yul\":3640:3641   */\n      0x00\n        /* \"#utility.yul\":3665:3718   */\n      tag_288\n        /* \"#utility.yul\":3710:3717   */\n      dup6\n        /* \"#utility.yul\":3701:3707   */\n      dup3\n        /* \"#utility.yul\":3690:3699   */\n      dup7\n        /* \"#utility.yul\":3686:3708   */\n      add\n        /* \"#utility.yul\":3665:3718   */\n      tag_219\n      jump\t// in\n    tag_288:\n        /* \"#utility.yul\":3655:3718   */\n      swap3\n      pop\n        /* \"#utility.yul\":3611:3728   */\n      pop\n        /* \"#utility.yul\":3767:3769   */\n      0x20\n        /* \"#utility.yul\":3793:3846   */\n      tag_289\n        /* \"#utility.yul\":3838:3845   */\n      dup6\n        /* \"#utility.yul\":3829:3835   */\n      dup3\n        /* \"#utility.yul\":3818:3827   */\n      dup7\n        /* \"#utility.yul\":3814:3836   */\n      add\n        /* \"#utility.yul\":3793:3846   */\n      tag_216\n      jump\t// in\n    tag_289:\n        /* \"#utility.yul\":3783:3846   */\n      swap2\n      pop\n        /* \"#utility.yul\":3738:3856   */\n      pop\n        /* \"#utility.yul\":3389:3863   */\n      swap3\n      pop\n      swap3\n      swap1\n      pop\n      jump\t// out\n        /* \"#utility.yul\":3869:4038   */\n    tag_220:\n        /* \"#utility.yul\":3953:3964   */\n      0x00\n        /* \"#utility.yul\":3987:3993   */\n      dup3\n        /* \"#utility.yul\":3982:3985   */\n      dup3\n        /* \"#utility.yul\":3975:3994   */\n      mstore\n        /* \"#utility.yul\":4027:4031   */\n      0x20\n        /* \"#utility.yul\":4022:4025   */\n      dup3\n        /* \"#utility.yul\":4018:4032   */\n      add\n        /* \"#utility.yul\":4003:4032   */\n      swap1\n      pop\n        /* \"#utility.yul\":3869:4038   */\n      swap3\n      swap2\n      pop\n      pop\n      jump\t// out\n        /* \"#utility.yul\":4044:4211   */\n    tag_221:\n        /* \"#utility.yul\":4184:4203   */\n      0x496e76616c6964204c5020616d6f756e74000000000000000000000000000000\n        /* \"#utility.yul\":4180:4181   */\n      0x00\n        /* \"#utility.yul\":4172:4178   */\n      dup3\n        /* \"#utility.yul\":4168:4182   */\n      add\n        /* \"#utility.yul\":4161:4204   */\n      mstore\n        /* \"#utility.yul\":4044:4211   */\n      pop\n      jump\t// out\n        /* \"#utility.yul\":4217:4583   */\n    tag_222:\n        /* \"#utility.yul\":4359:4362   */\n      0x00\n        /* \"#utility.yul\":4380:4447   */\n      tag_293\n        /* \"#utility.yul\":4444:4446   */\n      0x11\n        /* \"#utility.yul\":4439:4442   */\n      dup4\n        /* \"#utility.yul\":4380:4447   */\n      tag_220\n      jump\t// in\n    tag_293:\n        /* \"#utility.yul\":4373:4447   */\n      swap2\n      pop\n        /* \"#utility.yul\":4456:4549   */\n      tag_294\n        /* \"#utility.yul\":4545:4548   */\n      dup3\n        /* \"#utility.yul\":4456:4549   */\n      tag_221\n      jump\t// in\n    tag_294:\n        /* \"#utility.yul\":4574:4576   */\n      0x20\n        /* \"#utility.yul\":4569:4572   */\n      dup3\n        /* \"#utility.yul\":4565:4577   */\n      add\n        /* \"#utility.yul\":4558:4577   */\n      swap1\n      pop\n        /* \"#utility.yul\":4217:4583   */\n      swap2\n      swap1\n      pop\n      jump\t// out\n        /* \"#utility.yul\":4589:5008   */\n    tag_75:\n        /* \"#utility.yul\":4755:4759   */\n      0x00\n        /* \"#utility.yul\":4793:4795   */\n      0x20\n        /* \"#utility.yul\":4782:4791   */\n      dup3\n        /* \"#utility.yul\":4778:4796   */\n      add\n        /* \"#utility.yul\":4770:4796   */\n      swap1\n      pop\n        /* \"#utility.yul\":4842:4851   */\n      dup2\n        /* \"#utility.yul\":4836:4840   */\n      dup2\n        /* \"#utility.yul\":4832:4852   */\n      sub\n        /* \"#utility.yul\":4828:4829   */\n      0x00\n        /* \"#utility.yul\":4817:4826   */\n      dup4\n        /* \"#utility.yul\":4813:4830   */\n      add\n        /* \"#utility.yul\":4806:4853   */\n      mstore\n        /* \"#utility.yul\":4870:5001   */\n      tag_296\n        /* \"#utility.yul\":4996:5000   */\n      dup2\n        /* \"#utility.yul\":4870:5001   */\n      tag_222\n      jump\t// in\n    tag_296:\n        /* \"#utility.yul\":4862:5001   */\n      swap1\n      pop\n        /* \"#utility.yul\":4589:5008   */\n      swap2\n      swap1\n      pop\n      jump\t// out\n        /* \"#utility.yul\":5014:5194   */\n    tag_223:\n        /* \"#utility.yul\":5062:5139   */\n      0x4e487b7100000000000000000000000000000000000000000000000000000000\n        /* \"#utility.yul\":5059:5060   */\n      0x00\n        /* \"#utility.yul\":5052:5140   */\n      mstore\n        /* \"#utility.yul\":5159:5163   */\n      0x11\n        /* \"#utility.yul\":5156:5157   */\n      0x04\n        /* \"#utility.yul\":5149:5164   */\n      mstore\n        /* \"#utility.yul\":5183:5187   */\n      0x24\n        /* \"#utility.yul\":5180:5181   */\n      0x00\n        /* \"#utility.yul\":5173:5188   */\n      revert\n        /* \"#utility.yul\":5200:5610   */\n    tag_77:\n        /* \"#utility.yul\":5240:5247   */\n      0x00\n        /* \"#utility.yul\":5263:5283   */\n      tag_299\n        /* \"#utility.yul\":5281:5282   */\n      dup3\n        /* \"#utility.yul\":5263:5283   */\n      tag_208\n      jump\t// in\n    tag_299:\n        /* \"#utility.yul\":5258:5283   */\n      swap2\n      pop\n        /* \"#utility.yul\":5297:5317   */\n      tag_300\n        /* \"#utility.yul\":5315:5316   */\n      dup4\n        /* \"#utility.yul\":5297:5317   */\n      tag_208\n      jump\t// in\n    tag_300:\n        /* \"#utility.yul\":5292:5317   */\n      swap3\n      pop\n        /* \"#utility.yul\":5352:5353   */\n      dup3\n        /* \"#utility.yul\":5349:5350   */\n      dup3\n        /* \"#utility.yul\":5345:5354   */\n      mul\n        /* \"#utility.yul\":5374:5404   */\n      tag_301\n        /* \"#utility.yul\":5392:5403   */\n      dup2\n        /* \"#utility.yul\":5374:5404   */\n      tag_208\n      jump\t// in\n    tag_301:\n        /* \"#utility.yul\":5363:5404   */\n      swap2\n      pop\n        /* \"#utility.yul\":5553:5554   */\n      dup3\n        /* \"#utility.yul\":5544:5551   */\n      dup3\n        /* \"#utility.yul\":5540:5555   */\n      div\n        /* \"#utility.yul\":5537:5538   */\n      dup5\n        /* \"#utility.yul\":5534:5556   */\n      eq\n        /* \"#utility.yul\":5514:5515   */\n      dup4\n        /* \"#utility.yul\":5507:5516   */\n      iszero\n        /* \"#utility.yul\":5487:5570   */\n      or\n        /* \"#utility.yul\":5464:5603   */\n      tag_302\n      jumpi\n        /* \"#utility.yul\":5583:5601   */\n      tag_303\n      tag_223\n      jump\t// in\n    tag_303:\n        /* \"#utility.yul\":5464:5603   */\n    tag_302:\n        /* \"#utility.yul\":5248:5610   */\n      pop\n        /* \"#utility.yul\":5200:5610   */\n      swap3\n      swap2\n      pop\n      pop\n      jump\t// out\n        /* \"#utility.yul\":5616:5796   */\n    tag_224:\n        /* \"#utility.yul\":5664:5741   */\n      0x4e487b7100000000000000000000000000000000000000000000000000000000\n        /* \"#utility.yul\":5661:5662   */\n      0x00\n        /* \"#utility.yul\":5654:5742   */\n      mstore\n        /* \"#utility.yul\":5761:5765   */\n      0x12\n        /* \"#utility.yul\":5758:5759   */\n      0x04\n        /* \"#utility.yul\":5751:5766   */\n      mstore\n        /* \"#utility.yul\":5785:5789   */\n      0x24\n        /* \"#utility.yul\":5782:5783   */\n      0x00\n        /* \"#utility.yul\":5775:5790   */\n      revert\n        /* \"#utility.yul\":5802:5987   */\n    tag_79:\n        /* \"#utility.yul\":5842:5843   */\n      0x00\n        /* \"#utility.yul\":5859:5879   */\n      tag_306\n        /* \"#utility.yul\":5877:5878   */\n      dup3\n        /* \"#utility.yul\":5859:5879   */\n      tag_208\n      jump\t// in\n    tag_306:\n        /* \"#utility.yul\":5854:5879   */\n      swap2\n      pop\n        /* \"#utility.yul\":5893:5913   */\n      tag_307\n        /* \"#utility.yul\":5911:5912   */\n      dup4\n        /* \"#utility.yul\":5893:5913   */\n      tag_208\n      jump\t// in\n    tag_307:\n        /* \"#utility.yul\":5888:5913   */\n      swap3\n      pop\n        /* \"#utility.yul\":5932:5933   */\n      dup3\n        /* \"#utility.yul\":5922:5957   */\n      tag_308\n      jumpi\n        /* \"#utility.yul\":5937:5955   */\n      tag_309\n      tag_224\n      jump\t// in\n    tag_309:\n        /* \"#utility.yul\":5922:5957   */\n    tag_308:\n        /* \"#utility.yul\":5979:5980   */\n      dup3\n        /* \"#utility.yul\":5976:5977   */\n      dup3\n        /* \"#utility.yul\":5972:5981   */\n      div\n        /* \"#utility.yul\":5967:5981   */\n      swap1\n      pop\n        /* \"#utility.yul\":5802:5987   */\n      swap3\n      swap2\n      pop\n      pop\n      jump\t// out\n        /* \"#utility.yul\":5993:6187   */\n    tag_83:\n        /* \"#utility.yul\":6033:6037   */\n      0x00\n        /* \"#utility.yul\":6053:6073   */\n      tag_311\n        /* \"#utility.yul\":6071:6072   */\n      dup3\n        /* \"#utility.yul\":6053:6073   */\n      tag_208\n      jump\t// in\n    tag_311:\n        /* \"#utility.yul\":6048:6073   */\n      swap2\n      pop\n        /* \"#utility.yul\":6087:6107   */\n      tag_312\n        /* \"#utility.yul\":6105:6106   */\n      dup4\n        /* \"#utility.yul\":6087:6107   */\n      tag_208\n      jump\t// in\n    tag_312:\n        /* \"#utility.yul\":6082:6107   */\n      swap3\n      pop\n        /* \"#utility.yul\":6131:6132   */\n      dup3\n        /* \"#utility.yul\":6128:6129   */\n      dup3\n        /* \"#utility.yul\":6124:6133   */\n      sub\n        /* \"#utility.yul\":6116:6133   */\n      swap1\n      pop\n        /* \"#utility.yul\":6155:6156   */\n      dup2\n        /* \"#utility.yul\":6149:6153   */\n      dup2\n        /* \"#utility.yul\":6146:6157   */\n      gt\n        /* \"#utility.yul\":6143:6180   */\n      iszero\n      tag_313\n      jumpi\n        /* \"#utility.yul\":6160:6178   */\n      tag_314\n      tag_223\n      jump\t// in\n    tag_314:\n        /* \"#utility.yul\":6143:6180   */\n    tag_313:\n        /* \"#utility.yul\":5993:6187   */\n      swap3\n      swap2\n      pop\n      pop\n      jump\t// out\n        /* \"#utility.yul\":6193:6525   */\n    tag_86:\n        /* \"#utility.yul\":6314:6318   */\n      0x00\n        /* \"#utility.yul\":6352:6354   */\n      0x40\n        /* \"#utility.yul\":6341:6350   */\n      dup3\n        /* \"#utility.yul\":6337:6355   */\n      add\n        /* \"#utility.yul\":6329:6355   */\n      swap1\n      pop\n        /* \"#utility.yul\":6365:6436   */\n      tag_316\n        /* \"#utility.yul\":6433:6434   */\n      0x00\n        /* \"#utility.yul\":6422:6431   */\n      dup4\n        /* \"#utility.yul\":6418:6435   */\n      add\n        /* \"#utility.yul\":6409:6415   */\n      dup6\n        /* \"#utility.yul\":6365:6436   */\n      tag_217\n      jump\t// in\n    tag_316:\n        /* \"#utility.yul\":6446:6518   */\n      tag_317\n        /* \"#utility.yul\":6514:6516   */\n      0x20\n        /* \"#utility.yul\":6503:6512   */\n      dup4\n        /* \"#utility.yul\":6499:6517   */\n      add\n        /* \"#utility.yul\":6490:6496   */\n      dup5\n        /* \"#utility.yul\":6446:6518   */\n      tag_209\n      jump\t// in\n    tag_317:\n        /* \"#utility.yul\":6193:6525   */\n      swap4\n      swap3\n      pop\n      pop\n      pop\n      jump\t// out\n        /* \"#utility.yul\":6531:6621   */\n    tag_225:\n        /* \"#utility.yul\":6565:6572   */\n      0x00\n        /* \"#utility.yul\":6608:6613   */\n      dup2\n        /* \"#utility.yul\":6601:6614   */\n      iszero\n        /* \"#utility.yul\":6594:6615   */\n      iszero\n        /* \"#utility.yul\":6583:6615   */\n      swap1\n      pop\n        /* \"#utility.yul\":6531:6621   */\n      swap2\n      swap1\n      pop\n      jump\t// out\n        /* \"#utility.yul\":6627:6743   */\n    tag_226:\n        /* \"#utility.yul\":6697:6718   */\n      tag_320\n        /* \"#utility.yul\":6712:6717   */\n      dup2\n        /* \"#utility.yul\":6697:6718   */\n      tag_225\n      jump\t// in\n    tag_320:\n        /* \"#utility.yul\":6690:6695   */\n      dup2\n        /* \"#utility.yul\":6687:6719   */\n      eq\n        /* \"#utility.yul\":6677:6737   */\n      tag_321\n      jumpi\n        /* \"#utility.yul\":6733:6734   */\n      0x00\n        /* \"#utility.yul\":6730:6731   */\n      0x00\n        /* \"#utility.yul\":6723:6735   */\n      revert\n        /* \"#utility.yul\":6677:6737   */\n    tag_321:\n        /* \"#utility.yul\":6627:6743   */\n      pop\n      jump\t// out\n        /* \"#utility.yul\":6749:6886   */\n    tag_227:\n        /* \"#utility.yul\":6803:6808   */\n      0x00\n        /* \"#utility.yul\":6834:6840   */\n      dup2\n        /* \"#utility.yul\":6828:6841   */\n      mload\n        /* \"#utility.yul\":6819:6841   */\n      swap1\n      pop\n        /* \"#utility.yul\":6850:6880   */\n      tag_323\n        /* \"#utility.yul\":6874:6879   */\n      dup2\n        /* \"#utility.yul\":6850:6880   */\n      tag_226\n      jump\t// in\n    tag_323:\n        /* \"#utility.yul\":6749:6886   */\n      swap3\n      swap2\n      pop\n      pop\n      jump\t// out\n        /* \"#utility.yul\":6892:7237   */\n    tag_90:\n        /* \"#utility.yul\":6959:6965   */\n      0x00\n        /* \"#utility.yul\":7008:7010   */\n      0x20\n        /* \"#utility.yul\":6996:7005   */\n      dup3\n        /* \"#utility.yul\":6987:6994   */\n      dup5\n        /* \"#utility.yul\":6983:7006   */\n      sub\n        /* \"#utility.yul\":6979:7011   */\n      slt\n        /* \"#utility.yul\":6976:7095   */\n      iszero\n      tag_325\n      jumpi\n        /* \"#utility.yul\":7014:7093   */\n      tag_326\n      tag_211\n      jump\t// in\n    tag_326:\n        /* \"#utility.yul\":6976:7095   */\n    tag_325:\n        /* \"#utility.yul\":7134:7135   */\n      0x00\n        /* \"#utility.yul\":7159:7220   */\n      tag_327\n        /* \"#utility.yul\":7212:7219   */\n      dup5\n        /* \"#utility.yul\":7203:7209   */\n      dup3\n        /* \"#utility.yul\":7192:7201   */\n      dup6\n        /* \"#utility.yul\":7188:7210   */\n      add\n        /* \"#utility.yul\":7159:7220   */\n      tag_227\n      jump\t// in\n    tag_327:\n        /* \"#utility.yul\":7149:7220   */\n      swap2\n      pop\n        /* \"#utility.yul\":7105:7230   */\n      pop\n        /* \"#utility.yul\":6892:7237   */\n      swap3\n      swap2\n      pop\n      pop\n      jump\t// out\n        /* \"#utility.yul\":7243:7685   */\n    tag_98:\n        /* \"#utility.yul\":7392:7396   */\n      0x00\n        /* \"#utility.yul\":7430:7432   */\n      0x60\n        /* \"#utility.yul\":7419:7428   */\n      dup3\n        /* \"#utility.yul\":7415:7433   */\n      add\n        /* \"#utility.yul\":7407:7433   */\n      swap1\n      pop\n        /* \"#utility.yul\":7443:7514   */\n      tag_329\n        /* \"#utility.yul\":7511:7512   */\n      0x00\n        /* \"#utility.yul\":7500:7509   */\n      dup4\n        /* \"#utility.yul\":7496:7513   */\n      add\n        /* \"#utility.yul\":7487:7493   */\n      dup7\n        /* \"#utility.yul\":7443:7514   */\n      tag_209\n      jump\t// in\n    tag_329:\n        /* \"#utility.yul\":7524:7596   */\n      tag_330\n        /* \"#utility.yul\":7592:7594   */\n      0x20\n        /* \"#utility.yul\":7581:7590   */\n      dup4\n        /* \"#utility.yul\":7577:7595   */\n      add\n        /* \"#utility.yul\":7568:7574   */\n      dup6\n        /* \"#utility.yul\":7524:7596   */\n      tag_209\n      jump\t// in\n    tag_330:\n        /* \"#utility.yul\":7606:7678   */\n      tag_331\n        /* \"#utility.yul\":7674:7676   */\n      0x40\n        /* \"#utility.yul\":7663:7672   */\n      dup4\n        /* \"#utility.yul\":7659:7677   */\n      add\n        /* \"#utility.yul\":7650:7656   */\n      dup5\n        /* \"#utility.yul\":7606:7678   */\n      tag_209\n      jump\t// in\n    tag_331:\n        /* \"#utility.yul\":7243:7685   */\n      swap5\n      swap4\n      pop\n      pop\n      pop\n      pop\n      jump\t// out\n        /* \"#utility.yul\":7691:7856   */\n    tag_228:\n        /* \"#utility.yul\":7831:7848   */\n      0x496e76616c696420616d6f756e74730000000000000000000000000000000000\n        /* \"#utility.yul\":7827:7828   */\n      0x00\n        /* \"#utility.yul\":7819:7825   */\n      dup3\n        /* \"#utility.yul\":7815:7829   */\n      add\n        /* \"#utility.yul\":7808:7849   */\n      mstore\n        /* \"#utility.yul\":7691:7856   */\n      pop\n      jump\t// out\n        /* \"#utility.yul\":7862:8228   */\n    tag_229:\n        /* \"#utility.yul\":8004:8007   */\n      0x00\n        /* \"#utility.yul\":8025:8092   */\n      tag_334\n        /* \"#utility.yul\":8089:8091   */\n      0x0f\n        /* \"#utility.yul\":8084:8087   */\n      dup4\n        /* \"#utility.yul\":8025:8092   */\n      tag_220\n      jump\t// in\n    tag_334:\n        /* \"#utility.yul\":8018:8092   */\n      swap2\n      pop\n        /* \"#utility.yul\":8101:8194   */\n      tag_335\n        /* \"#utility.yul\":8190:8193   */\n      dup3\n        /* \"#utility.yul\":8101:8194   */\n      tag_228\n      jump\t// in\n    tag_335:\n        /* \"#utility.yul\":8219:8221   */\n      0x20\n        /* \"#utility.yul\":8214:8217   */\n      dup3\n        /* \"#utility.yul\":8210:8222   */\n      add\n        /* \"#utility.yul\":8203:8222   */\n      swap1\n      pop\n        /* \"#utility.yul\":7862:8228   */\n      swap2\n      swap1\n      pop\n      jump\t// out\n        /* \"#utility.yul\":8234:8653   */\n    tag_107:\n        /* \"#utility.yul\":8400:8404   */\n      0x00\n        /* \"#utility.yul\":8438:8440   */\n      0x20\n        /* \"#utility.yul\":8427:8436   */\n      dup3\n        /* \"#utility.yul\":8423:8441   */\n      add\n        /* \"#utility.yul\":8415:8441   */\n      swap1\n      pop\n        /* \"#utility.yul\":8487:8496   */\n      dup2\n        /* \"#utility.yul\":8481:8485   */\n      dup2\n        /* \"#utility.yul\":8477:8497   */\n      sub\n        /* \"#utility.yul\":8473:8474   */\n      0x00\n        /* \"#utility.yul\":8462:8471   */\n      dup4\n        /* \"#utility.yul\":8458:8475   */\n      add\n        /* \"#utility.yul\":8451:8498   */\n      mstore\n        /* \"#utility.yul\":8515:8646   */\n      tag_337\n        /* \"#utility.yul\":8641:8645   */\n      dup2\n        /* \"#utility.yul\":8515:8646   */\n      tag_229\n      jump\t// in\n    tag_337:\n        /* \"#utility.yul\":8507:8646   */\n      swap1\n      pop\n        /* \"#utility.yul\":8234:8653   */\n      swap2\n      swap1\n      pop\n      jump\t// out\n        /* \"#utility.yul\":8659:9101   */\n    tag_109:\n        /* \"#utility.yul\":8808:8812   */\n      0x00\n        /* \"#utility.yul\":8846:8848   */\n      0x60\n        /* \"#utility.yul\":8835:8844   */\n      dup3\n        /* \"#utility.yul\":8831:8849   */\n      add\n        /* \"#utility.yul\":8823:8849   */\n      swap1\n      pop\n        /* \"#utility.yul\":8859:8930   */\n      tag_339\n        /* \"#utility.yul\":8927:8928   */\n      0x00\n        /* \"#utility.yul\":8916:8925   */\n      dup4\n        /* \"#utility.yul\":8912:8929   */\n      add\n        /* \"#utility.yul\":8903:8909   */\n      dup7\n        /* \"#utility.yul\":8859:8930   */\n      tag_217\n      jump\t// in\n    tag_339:\n        /* \"#utility.yul\":8940:9012   */\n      tag_340\n        /* \"#utility.yul\":9008:9010   */\n      0x20\n        /* \"#utility.yul\":8997:9006   */\n      dup4\n        /* \"#utility.yul\":8993:9011   */\n      add\n        /* \"#utility.yul\":8984:8990   */\n      dup6\n        /* \"#utility.yul\":8940:9012   */\n      tag_217\n      jump\t// in\n    tag_340:\n        /* \"#utility.yul\":9022:9094   */\n      tag_341\n        /* \"#utility.yul\":9090:9092   */\n      0x40\n        /* \"#utility.yul\":9079:9088   */\n      dup4\n        /* \"#utility.yul\":9075:9093   */\n      add\n        /* \"#utility.yul\":9066:9072   */\n      dup5\n        /* \"#utility.yul\":9022:9094   */\n      tag_209\n      jump\t// in\n    tag_341:\n        /* \"#utility.yul\":8659:9101   */\n      swap5\n      swap4\n      pop\n      pop\n      pop\n      pop\n      jump\t// out\n        /* \"#utility.yul\":9107:9271   */\n    tag_230:\n        /* \"#utility.yul\":9247:9263   */\n      0x5a65726f204c50206d696e746564000000000000000000000000000000000000\n        /* \"#utility.yul\":9243:9244   */\n      0x00\n        /* \"#utility.yul\":9235:9241   */\n      dup3\n        /* \"#utility.yul\":9231:9245   */\n      add\n        /* \"#utility.yul\":9224:9264   */\n      mstore\n        /* \"#utility.yul\":9107:9271   */\n      pop\n      jump\t// out\n        /* \"#utility.yul\":9277:9643   */\n    tag_231:\n        /* \"#utility.yul\":9419:9422   */\n      0x00\n        /* \"#utility.yul\":9440:9507   */\n      tag_344\n        /* \"#utility.yul\":9504:9506   */\n      0x0e\n        /* \"#utility.yul\":9499:9502   */\n      dup4\n        /* \"#utility.yul\":9440:9507   */\n      tag_220\n      jump\t// in\n    tag_344:\n        /* \"#utility.yul\":9433:9507   */\n      swap2\n      pop\n        /* \"#utility.yul\":9516:9609   */\n      tag_345\n        /* \"#utility.yul\":9605:9608   */\n      dup3\n        /* \"#utility.yul\":9516:9609   */\n      tag_230\n      jump\t// in\n    tag_345:\n        /* \"#utility.yul\":9634:9636   */\n      0x20\n        /* \"#utility.yul\":9629:9632   */\n      dup3\n        /* \"#utility.yul\":9625:9637   */\n      add\n        /* \"#utility.yul\":9618:9637   */\n      swap1\n      pop\n        /* \"#utility.yul\":9277:9643   */\n      swap2\n      swap1\n      pop\n      jump\t// out\n        /* \"#utility.yul\":9649:10068   */\n    tag_130:\n        /* \"#utility.yul\":9815:9819   */\n      0x00\n        /* \"#utility.yul\":9853:9855   */\n      0x20\n        /* \"#utility.yul\":9842:9851   */\n      dup3\n        /* \"#utility.yul\":9838:9856   */\n      add\n        /* \"#utility.yul\":9830:9856   */\n      swap1\n      pop\n        /* \"#utility.yul\":9902:9911   */\n      dup2\n        /* \"#utility.yul\":9896:9900   */\n      dup2\n        /* \"#utility.yul\":9892:9912   */\n      sub\n        /* \"#utility.yul\":9888:9889   */\n      0x00\n        /* \"#utility.yul\":9877:9886   */\n      dup4\n        /* \"#utility.yul\":9873:9890   */\n      add\n        /* \"#utility.yul\":9866:9913   */\n      mstore\n        /* \"#utility.yul\":9930:10061   */\n      tag_347\n        /* \"#utility.yul\":10056:10060   */\n      dup2\n        /* \"#utility.yul\":9930:10061   */\n      tag_231\n      jump\t// in\n    tag_347:\n        /* \"#utility.yul\":9922:10061   */\n      swap1\n      pop\n        /* \"#utility.yul\":9649:10068   */\n      swap2\n      swap1\n      pop\n      jump\t// out\n        /* \"#utility.yul\":10074:10265   */\n    tag_132:\n        /* \"#utility.yul\":10114:10117   */\n      0x00\n        /* \"#utility.yul\":10133:10153   */\n      tag_349\n        /* \"#utility.yul\":10151:10152   */\n      dup3\n        /* \"#utility.yul\":10133:10153   */\n      tag_208\n      jump\t// in\n    tag_349:\n        /* \"#utility.yul\":10128:10153   */\n      swap2\n      pop\n        /* \"#utility.yul\":10167:10187   */\n      tag_350\n        /* \"#utility.yul\":10185:10186   */\n      dup4\n        /* \"#utility.yul\":10167:10187   */\n      tag_208\n      jump\t// in\n    tag_350:\n        /* \"#utility.yul\":10162:10187   */\n      swap3\n      pop\n        /* \"#utility.yul\":10210:10211   */\n      dup3\n        /* \"#utility.yul\":10207:10208   */\n      dup3\n        /* \"#utility.yul\":10203:10212   */\n      add\n        /* \"#utility.yul\":10196:10212   */\n      swap1\n      pop\n        /* \"#utility.yul\":10231:10234   */\n      dup1\n        /* \"#utility.yul\":10228:10229   */\n      dup3\n        /* \"#utility.yul\":10225:10235   */\n      gt\n        /* \"#utility.yul\":10222:10258   */\n      iszero\n      tag_351\n      jumpi\n        /* \"#utility.yul\":10238:10256   */\n      tag_352\n      tag_223\n      jump\t// in\n    tag_352:\n        /* \"#utility.yul\":10222:10258   */\n    tag_351:\n        /* \"#utility.yul\":10074:10265   */\n      swap3\n      swap2\n      pop\n      pop\n      jump\t// out\n        /* \"#utility.yul\":10271:10431   */\n    tag_232:\n        /* \"#utility.yul\":10411:10423   */\n      0x5a65726f20696e70757400000000000000000000000000000000000000000000\n        /* \"#utility.yul\":10407:10408   */\n      0x00\n        /* \"#utility.yul\":10399:10405   */\n      dup3\n        /* \"#utility.yul\":10395:10409   */\n      add\n        /* \"#utility.yul\":10388:10424   */\n      mstore\n        /* \"#utility.yul\":10271:10431   */\n      pop\n      jump\t// out\n        /* \"#utility.yul\":10437:10803   */\n    tag_233:\n        /* \"#utility.yul\":10579:10582   */\n      0x00\n        /* \"#utility.yul\":10600:10667   */\n      tag_355\n        /* \"#utility.yul\":10664:10666   */\n      0x0a\n        /* \"#utility.yul\":10659:10662   */\n      dup4\n        /* \"#utility.yul\":10600:10667   */\n      tag_220\n      jump\t// in\n    tag_355:\n        /* \"#utility.yul\":10593:10667   */\n      swap2\n      pop\n        /* \"#utility.yul\":10676:10769   */\n      tag_356\n        /* \"#utility.yul\":10765:10768   */\n      dup3\n        /* \"#utility.yul\":10676:10769   */\n      tag_232\n      jump\t// in\n    tag_356:\n        /* \"#utility.yul\":10794:10796   */\n      0x20\n        /* \"#utility.yul\":10789:10792   */\n      dup3\n        /* \"#utility.yul\":10785:10797   */\n      add\n        /* \"#utility.yul\":10778:10797   */\n      swap1\n      pop\n        /* \"#utility.yul\":10437:10803   */\n      swap2\n      swap1\n      pop\n      jump\t// out\n        /* \"#utility.yul\":10809:11228   */\n    tag_144:\n        /* \"#utility.yul\":10975:10979   */\n      0x00\n        /* \"#utility.yul\":11013:11015   */\n      0x20\n        /* \"#utility.yul\":11002:11011   */\n      dup3\n        /* \"#utility.yul\":10998:11016   */\n      add\n        /* \"#utility.yul\":10990:11016   */\n      swap1\n      pop\n        /* \"#utility.yul\":11062:11071   */\n      dup2\n        /* \"#utility.yul\":11056:11060   */\n      dup2\n        /* \"#utility.yul\":11052:11072   */\n      sub\n        /* \"#utility.yul\":11048:11049   */\n      0x00\n        /* \"#utility.yul\":11037:11046   */\n      dup4\n        /* \"#utility.yul\":11033:11050   */\n      add\n        /* \"#utility.yul\":11026:11073   */\n      mstore\n        /* \"#utility.yul\":11090:11221   */\n      tag_358\n        /* \"#utility.yul\":11216:11220   */\n      dup2\n        /* \"#utility.yul\":11090:11221   */\n      tag_233\n      jump\t// in\n    tag_358:\n        /* \"#utility.yul\":11082:11221   */\n      swap1\n      pop\n        /* \"#utility.yul\":10809:11228   */\n      swap2\n      swap1\n      pop\n      jump\t// out\n        /* \"#utility.yul\":11234:11397   */\n    tag_234:\n        /* \"#utility.yul\":11374:11389   */\n      0x496e76616c696420746f6b656e00000000000000000000000000000000000000\n        /* \"#utility.yul\":11370:11371   */\n      0x00\n        /* \"#utility.yul\":11362:11368   */\n      dup3\n        /* \"#utility.yul\":11358:11372   */\n      add\n        /* \"#utility.yul\":11351:11390   */\n      mstore\n        /* \"#utility.yul\":11234:11397   */\n      pop\n      jump\t// out\n        /* \"#utility.yul\":11403:11769   */\n    tag_235:\n        /* \"#utility.yul\":11545:11548   */\n      0x00\n        /* \"#utility.yul\":11566:11633   */\n      tag_361\n        /* \"#utility.yul\":11630:11632   */\n      0x0d\n        /* \"#utility.yul\":11625:11628   */\n      dup4\n        /* \"#utility.yul\":11566:11633   */\n      tag_220\n      jump\t// in\n    tag_361:\n        /* \"#utility.yul\":11559:11633   */\n      swap2\n      pop\n        /* \"#utility.yul\":11642:11735   */\n      tag_362\n        /* \"#utility.yul\":11731:11734   */\n      dup3\n        /* \"#utility.yul\":11642:11735   */\n      tag_234\n      jump\t// in\n    tag_362:\n        /* \"#utility.yul\":11760:11762   */\n      0x20\n        /* \"#utility.yul\":11755:11758   */\n      dup3\n        /* \"#utility.yul\":11751:11763   */\n      add\n        /* \"#utility.yul\":11744:11763   */\n      swap1\n      pop\n        /* \"#utility.yul\":11403:11769   */\n      swap2\n      swap1\n      pop\n      jump\t// out\n        /* \"#utility.yul\":11775:12194   */\n    tag_148:\n        /* \"#utility.yul\":11941:11945   */\n      0x00\n        /* \"#utility.yul\":11979:11981   */\n      0x20\n        /* \"#utility.yul\":11968:11977   */\n      dup3\n        /* \"#utility.yul\":11964:11982   */\n      add\n        /* \"#utility.yul\":11956:11982   */\n      swap1\n      pop\n        /* \"#utility.yul\":12028:12037   */\n      dup2\n        /* \"#utility.yul\":12022:12026   */\n      dup2\n        /* \"#utility.yul\":12018:12038   */\n      sub\n        /* \"#utility.yul\":12014:12015   */\n      0x00\n        /* \"#utility.yul\":12003:12012   */\n      dup4\n        /* \"#utility.yul\":11999:12016   */\n      add\n        /* \"#utility.yul\":11992:12039   */\n      mstore\n        /* \"#utility.yul\":12056:12187   */\n      tag_364\n        /* \"#utility.yul\":12182:12186   */\n      dup2\n        /* \"#utility.yul\":12056:12187   */\n      tag_235\n      jump\t// in\n    tag_364:\n        /* \"#utility.yul\":12048:12187   */\n      swap1\n      pop\n        /* \"#utility.yul\":11775:12194   */\n      swap2\n      swap1\n      pop\n      jump\t// out\n        /* \"#utility.yul\":12200:12369   */\n    tag_236:\n        /* \"#utility.yul\":12340:12361   */\n      0x496e73756666696369656e74206f757470757400000000000000000000000000\n        /* \"#utility.yul\":12336:12337   */\n      0x00\n        /* \"#utility.yul\":12328:12334   */\n      dup3\n        /* \"#utility.yul\":12324:12338   */\n      add\n        /* \"#utility.yul\":12317:12362   */\n      mstore\n        /* \"#utility.yul\":12200:12369   */\n      pop\n      jump\t// out\n        /* \"#utility.yul\":12375:12741   */\n    tag_237:\n        /* \"#utility.yul\":12517:12520   */\n      0x00\n        /* \"#utility.yul\":12538:12605   */\n      tag_367\n        /* \"#utility.yul\":12602:12604   */\n      0x13\n        /* \"#utility.yul\":12597:12600   */\n      dup4\n        /* \"#utility.yul\":12538:12605   */\n      tag_220\n      jump\t// in\n    tag_367:\n        /* \"#utility.yul\":12531:12605   */\n      swap2\n      pop\n        /* \"#utility.yul\":12614:12707   */\n      tag_368\n        /* \"#utility.yul\":12703:12706   */\n      dup3\n        /* \"#utility.yul\":12614:12707   */\n      tag_236\n      jump\t// in\n    tag_368:\n        /* \"#utility.yul\":12732:12734   */\n      0x20\n        /* \"#utility.yul\":12727:12730   */\n      dup3\n        /* \"#utility.yul\":12723:12735   */\n      add\n        /* \"#utility.yul\":12716:12735   */\n      swap1\n      pop\n        /* \"#utility.yul\":12375:12741   */\n      swap2\n      swap1\n      pop\n      jump\t// out\n        /* \"#utility.yul\":12747:13166   */\n    tag_154:\n        /* \"#utility.yul\":12913:12917   */\n      0x00\n        /* \"#utility.yul\":12951:12953   */\n      0x20\n        /* \"#utility.yul\":12940:12949   */\n      dup3\n        /* \"#utility.yul\":12936:12954   */\n      add\n        /* \"#utility.yul\":12928:12954   */\n      swap1\n      pop\n        /* \"#utility.yul\":13000:13009   */\n      dup2\n        /* \"#utility.yul\":12994:12998   */\n      dup2\n        /* \"#utility.yul\":12990:13010   */\n      sub\n        /* \"#utility.yul\":12986:12987   */\n      0x00\n        /* \"#utility.yul\":12975:12984   */\n      dup4\n        /* \"#utility.yul\":12971:12988   */\n      add\n        /* \"#utility.yul\":12964:13011   */\n      mstore\n        /* \"#utility.yul\":13028:13159   */\n      tag_370\n        /* \"#utility.yul\":13154:13158   */\n      dup2\n        /* \"#utility.yul\":13028:13159   */\n      tag_237\n      jump\t// in\n    tag_370:\n        /* \"#utility.yul\":13020:13159   */\n      swap1\n      pop\n        /* \"#utility.yul\":12747:13166   */\n      swap2\n      swap1\n      pop\n      jump\t// out\n        /* \"#utility.yul\":13172:13725   */\n    tag_165:\n        /* \"#utility.yul\":13349:13353   */\n      0x00\n        /* \"#utility.yul\":13387:13390   */\n      0x80\n        /* \"#utility.yul\":13376:13385   */\n      dup3\n        /* \"#utility.yul\":13372:13391   */\n      add\n        /* \"#utility.yul\":13364:13391   */\n      swap1\n      pop\n        /* \"#utility.yul\":13401:13472   */\n      tag_372\n        /* \"#utility.yul\":13469:13470   */\n      0x00\n        /* \"#utility.yul\":13458:13467   */\n      dup4\n        /* \"#utility.yul\":13454:13471   */\n      add\n        /* \"#utility.yul\":13445:13451   */\n      dup8\n        /* \"#utility.yul\":13401:13472   */\n      tag_217\n      jump\t// in\n    tag_372:\n        /* \"#utility.yul\":13482:13554   */\n      tag_373\n        /* \"#utility.yul\":13550:13552   */\n      0x20\n        /* \"#utility.yul\":13539:13548   */\n      dup4\n        /* \"#utility.yul\":13535:13553   */\n      add\n        /* \"#utility.yul\":13526:13532   */\n      dup7\n        /* \"#utility.yul\":13482:13554   */\n      tag_209\n      jump\t// in\n    tag_373:\n        /* \"#utility.yul\":13564:13636   */\n      tag_374\n        /* \"#utility.yul\":13632:13634   */\n      0x40\n        /* \"#utility.yul\":13621:13630   */\n      dup4\n        /* \"#utility.yul\":13617:13635   */\n      add\n        /* \"#utility.yul\":13608:13614   */\n      dup6\n        /* \"#utility.yul\":13564:13636   */\n      tag_217\n      jump\t// in\n    tag_374:\n        /* \"#utility.yul\":13646:13718   */\n      tag_375\n        /* \"#utility.yul\":13714:13716   */\n      0x60\n        /* \"#utility.yul\":13703:13712   */\n      dup4\n        /* \"#utility.yul\":13699:13717   */\n      add\n        /* \"#utility.yul\":13690:13696   */\n      dup5\n        /* \"#utility.yul\":13646:13718   */\n      tag_209\n      jump\t// in\n    tag_375:\n        /* \"#utility.yul\":13172:13725   */\n      swap6\n      swap5\n      pop\n      pop\n      pop\n      pop\n      pop\n      jump\t// out\n        /* \"#utility.yul\":13731:13900   */\n    tag_238:\n        /* \"#utility.yul\":13871:13892   */\n      0x496e76616c696420696e70757420746f6b656e00000000000000000000000000\n        /* \"#utility.yul\":13867:13868   */\n      0x00\n        /* \"#utility.yul\":13859:13865   */\n      dup3\n        /* \"#utility.yul\":13855:13869   */\n      add\n        /* \"#utility.yul\":13848:13893   */\n      mstore\n        /* \"#utility.yul\":13731:13900   */\n      pop\n      jump\t// out\n        /* \"#utility.yul\":13906:14272   */\n    tag_239:\n        /* \"#utility.yul\":14048:14051   */\n      0x00\n        /* \"#utility.yul\":14069:14136   */\n      tag_378\n        /* \"#utility.yul\":14133:14135   */\n      0x13\n        /* \"#utility.yul\":14128:14131   */\n      dup4\n        /* \"#utility.yul\":14069:14136   */\n      tag_220\n      jump\t// in\n    tag_378:\n        /* \"#utility.yul\":14062:14136   */\n      swap2\n      pop\n        /* \"#utility.yul\":14145:14238   */\n      tag_379\n        /* \"#utility.yul\":14234:14237   */\n      dup3\n        /* \"#utility.yul\":14145:14238   */\n      tag_238\n      jump\t// in\n    tag_379:\n        /* \"#utility.yul\":14263:14265   */\n      0x20\n        /* \"#utility.yul\":14258:14261   */\n      dup3\n        /* \"#utility.yul\":14254:14266   */\n      add\n        /* \"#utility.yul\":14247:14266   */\n      swap1\n      pop\n        /* \"#utility.yul\":13906:14272   */\n      swap2\n      swap1\n      pop\n      jump\t// out\n        /* \"#utility.yul\":14278:14697   */\n    tag_171:\n        /* \"#utility.yul\":14444:14448   */\n      0x00\n        /* \"#utility.yul\":14482:14484   */\n      0x20\n        /* \"#utility.yul\":14471:14480   */\n      dup3\n        /* \"#utility.yul\":14467:14485   */\n      add\n        /* \"#utility.yul\":14459:14485   */\n      swap1\n      pop\n        /* \"#utility.yul\":14531:14540   */\n      dup2\n        /* \"#utility.yul\":14525:14529   */\n      dup2\n        /* \"#utility.yul\":14521:14541   */\n      sub\n        /* \"#utility.yul\":14517:14518   */\n      0x00\n        /* \"#utility.yul\":14506:14515   */\n      dup4\n        /* \"#utility.yul\":14502:14519   */\n      add\n        /* \"#utility.yul\":14495:14542   */\n      mstore\n        /* \"#utility.yul\":14559:14690   */\n      tag_381\n        /* \"#utility.yul\":14685:14689   */\n      dup2\n        /* \"#utility.yul\":14559:14690   */\n      tag_239\n      jump\t// in\n    tag_381:\n        /* \"#utility.yul\":14551:14690   */\n      swap1\n      pop\n        /* \"#utility.yul\":14278:14697   */\n      swap2\n      swap1\n      pop\n      jump\t// out\n        /* \"#utility.yul\":14703:14884   */\n    tag_240:\n        /* \"#utility.yul\":14843:14876   */\n      0x5265656e7472616e637947756172643a207265656e7472616e742063616c6c00\n        /* \"#utility.yul\":14839:14840   */\n      0x00\n        /* \"#utility.yul\":14831:14837   */\n      dup3\n        /* \"#utility.yul\":14827:14841   */\n      add\n        /* \"#utility.yul\":14820:14877   */\n      mstore\n        /* \"#utility.yul\":14703:14884   */\n      pop\n      jump\t// out\n        /* \"#utility.yul\":14890:15256   */\n    tag_241:\n        /* \"#utility.yul\":15032:15035   */\n      0x00\n        /* \"#utility.yul\":15053:15120   */\n      tag_384\n        /* \"#utility.yul\":15117:15119   */\n      0x1f\n        /* \"#utility.yul\":15112:15115   */\n      dup4\n        /* \"#utility.yul\":15053:15120   */\n      tag_220\n      jump\t// in\n    tag_384:\n        /* \"#utility.yul\":15046:15120   */\n      swap2\n      pop\n        /* \"#utility.yul\":15129:15222   */\n      tag_385\n        /* \"#utility.yul\":15218:15221   */\n      dup3\n        /* \"#utility.yul\":15129:15222   */\n      tag_240\n      jump\t// in\n    tag_385:\n        /* \"#utility.yul\":15247:15249   */\n      0x20\n        /* \"#utility.yul\":15242:15245   */\n      dup3\n        /* \"#utility.yul\":15238:15250   */\n      add\n        /* \"#utility.yul\":15231:15250   */\n      swap1\n      pop\n        /* \"#utility.yul\":14890:15256   */\n      swap2\n      swap1\n      pop\n      jump\t// out\n        /* \"#utility.yul\":15262:15681   */\n    tag_182:\n        /* \"#utility.yul\":15428:15432   */\n      0x00\n        /* \"#utility.yul\":15466:15468   */\n      0x20\n        /* \"#utility.yul\":15455:15464   */\n      dup3\n        /* \"#utility.yul\":15451:15469   */\n      add\n        /* \"#utility.yul\":15443:15469   */\n      swap1\n      pop\n        /* \"#utility.yul\":15515:15524   */\n      dup2\n        /* \"#utility.yul\":15509:15513   */\n      dup2\n        /* \"#utility.yul\":15505:15525   */\n      sub\n        /* \"#utility.yul\":15501:15502   */\n      0x00\n        /* \"#utility.yul\":15490:15499   */\n      dup4\n        /* \"#utility.yul\":15486:15503   */\n      add\n        /* \"#utility.yul\":15479:15526   */\n      mstore\n        /* \"#utility.yul\":15543:15674   */\n      tag_387\n        /* \"#utility.yul\":15669:15673   */\n      dup2\n        /* \"#utility.yul\":15543:15674   */\n      tag_241\n      jump\t// in\n    tag_387:\n        /* \"#utility.yul\":15535:15674   */\n      swap1\n      pop\n        /* \"#utility.yul\":15262:15681   */\n      swap2\n      swap1\n      pop\n      jump\t// out\n        /* \"#utility.yul\":15687:15830   */\n    tag_242:\n        /* \"#utility.yul\":15744:15749   */\n      0x00\n        /* \"#utility.yul\":15775:15781   */\n      dup2\n        /* \"#utility.yul\":15769:15782   */\n      mload\n        /* \"#utility.yul\":15760:15782   */\n      swap1\n      pop\n        /* \"#utility.yul\":15791:15824   */\n      tag_389\n        /* \"#utility.yul\":15818:15823   */\n      dup2\n        /* \"#utility.yul\":15791:15824   */\n      tag_218\n      jump\t// in\n    tag_389:\n        /* \"#utility.yul\":15687:15830   */\n      swap3\n      swap2\n      pop\n      pop\n      jump\t// out\n        /* \"#utility.yul\":15836:16187   */\n    tag_188:\n        /* \"#utility.yul\":15906:15912   */\n      0x00\n        /* \"#utility.yul\":15955:15957   */\n      0x20\n        /* \"#utility.yul\":15943:15952   */\n      dup3\n        /* \"#utility.yul\":15934:15941   */\n      dup5\n        /* \"#utility.yul\":15930:15953   */\n      sub\n        /* \"#utility.yul\":15926:15958   */\n      slt\n        /* \"#utility.yul\":15923:16042   */\n      iszero\n      tag_391\n      jumpi\n        /* \"#utility.yul\":15961:16040   */\n      tag_392\n      tag_211\n      jump\t// in\n    tag_392:\n        /* \"#utility.yul\":15923:16042   */\n    tag_391:\n        /* \"#utility.yul\":16081:16082   */\n      0x00\n        /* \"#utility.yul\":16106:16170   */\n      tag_393\n        /* \"#utility.yul\":16162:16169   */\n      dup5\n        /* \"#utility.yul\":16153:16159   */\n      dup3\n        /* \"#utility.yul\":16142:16151   */\n      dup6\n        /* \"#utility.yul\":16138:16160   */\n      add\n        /* \"#utility.yul\":16106:16170   */\n      tag_242\n      jump\t// in\n    tag_393:\n        /* \"#utility.yul\":16096:16170   */\n      swap2\n      pop\n        /* \"#utility.yul\":16052:16180   */\n      pop\n        /* \"#utility.yul\":15836:16187   */\n      swap3\n      swap2\n      pop\n      pop\n      jump\t// out\n\n    auxdata: 0xa26469706673582212203a9ebc5a2b3cdc9895205adf3ad00f4fa6c03c5745d9b02bbffb6fd9c1fe50b364736f6c634300081e0033\n}\n",
				"bytecode": {
					"linkReferences": {},
					"object": "60c060405234801561000f575f5ffd5b50604051611c45380380611c458339818101604052810190610031919061021a565b60015f819055508073ffffffffffffffffffffffffffffffffffffffff168273ffffffffffffffffffffffffffffffffffffffff16036100a6576040517f08c379a000000000000000000000000000000000000000000000000000000000815260040161009d906102b2565b60405180910390fd5b5f73ffffffffffffffffffffffffffffffffffffffff168273ffffffffffffffffffffffffffffffffffffffff161415801561010e57505f73ffffffffffffffffffffffffffffffffffffffff168173ffffffffffffffffffffffffffffffffffffffff1614155b61014d576040517f08c379a00000000000000000000000000000000000000000000000000000000081526004016101449061031a565b60405180910390fd5b8173ffffffffffffffffffffffffffffffffffffffff1660808173ffffffffffffffffffffffffffffffffffffffff16815250508073ffffffffffffffffffffffffffffffffffffffff1660a08173ffffffffffffffffffffffffffffffffffffffff16815250505050610338565b5f5ffd5b5f73ffffffffffffffffffffffffffffffffffffffff82169050919050565b5f6101e9826101c0565b9050919050565b6101f9816101df565b8114610203575f5ffd5b50565b5f81519050610214816101f0565b92915050565b5f5f604083850312156102305761022f6101bc565b5b5f61023d85828601610206565b925050602061024e85828601610206565b9150509250929050565b5f82825260208201905092915050565b7f4964656e746963616c20746f6b656e73000000000000000000000000000000005f82015250565b5f61029c601083610258565b91506102a782610268565b602082019050919050565b5f6020820190508181035f8301526102c981610290565b9050919050565b7f5a65726f206164647265737300000000000000000000000000000000000000005f82015250565b5f610304600c83610258565b915061030f826102d0565b602082019050919050565b5f6020820190508181035f830152610331816102f8565b9050919050565b60805160a05161188a6103bb5f395f81816102d9015281816104d3015281816106c9015281816109d501528181610ade01528181610d110152610f5001525f81816102af015281816104370152818161062b0152818161098001528181610a6501528181610ab801528181610cbc01528181610da10152610eb2015261188a5ff3fe608060405234801561000f575f5ffd5b50600436106100cd575f3560e01c80639cd441da1161008a578063d2258beb11610064578063d2258beb146101ee578063d3986f081461021e578063dc5fa6c51461023a578063f140a35a14610258576100cd565b80639cd441da14610196578063b7e5dcee146101b2578063d1a86711146101d0576100cd565b80630902f1ac146100d15780630b65092d146100f05780630fc63d101461012057806319e36f3b1461013e5780635f64b55b1461015c5780639c8f9f231461017a575b5f5ffd5b6100d9610288565b6040516100e792919061109e565b60405180910390f35b61010a60048036038101906101059190611123565b610298565b604051610117919061114e565b60405180910390f35b6101286102ad565b6040516101359190611176565b60405180910390f35b6101466102d1565b604051610153919061114e565b60405180910390f35b6101646102d7565b6040516101719190611176565b60405180910390f35b610194600480360381019061018f91906111b9565b6102fb565b005b6101b060048036038101906101ab91906111e4565b6105d4565b005b6101ba6108df565b6040516101c7919061114e565b60405180910390f35b6101d86108e8565b6040516101e5919061114e565b60405180910390f35b61020860048036038101906102039190611123565b6108ee565b604051610215919061114e565b60405180910390f35b61023860048036038101906102339190611222565b610934565b005b610242610cb3565b60405161024f919061114e565b60405180910390f35b610272600480360381019061026d9190611222565b610cb9565b60405161027f919061114e565b60405180910390f35b5f5f600154600254915091509091565b6004602052805f5260405f205f915090505481565b7f000000000000000000000000000000000000000000000000000000000000000081565b60025481565b7f000000000000000000000000000000000000000000000000000000000000000081565b610303610e63565b5f8111801561034f575060045f3373ffffffffffffffffffffffffffffffffffffffff1673ffffffffffffffffffffffffffffffffffffffff1681526020019081526020015f20548111155b61038e576040517f08c379a0000000000000000000000000000000000000000000000000000000008152600401610385906112ba565b60405180910390fd5b5f600354600154836103a09190611305565b6103aa9190611373565b90505f600354600254846103be9190611305565b6103c89190611373565b90508260045f3373ffffffffffffffffffffffffffffffffffffffff1673ffffffffffffffffffffffffffffffffffffffff1681526020019081526020015f205f82825461041691906113a3565b925050819055508260035f82825461042e91906113a3565b925050819055507f000000000000000000000000000000000000000000000000000000000000000073ffffffffffffffffffffffffffffffffffffffff1663a9059cbb33846040518363ffffffff1660e01b81526004016104909291906113d6565b6020604051808303815f875af11580156104ac573d5f5f3e3d5ffd5b505050506040513d601f19601f820116820180604052508101906104d09190611432565b507f000000000000000000000000000000000000000000000000000000000000000073ffffffffffffffffffffffffffffffffffffffff1663a9059cbb33836040518363ffffffff1660e01b815260040161052c9291906113d6565b6020604051808303815f875af1158015610548573d5f5f3e3d5ffd5b505050506040513d601f19601f8201168201806040525081019061056c9190611432565b50610575610eb0565b3373ffffffffffffffffffffffffffffffffffffffff167f1dc8bb69df2b8e91fbdcbfcf93d951b3f0000f085a95fe3f7946d6161439245d8383866040516105bf9392919061145d565b60405180910390a250506105d1610fee565b50565b6105dc610e63565b5f821180156105ea57505f81115b610629576040517f08c379a0000000000000000000000000000000000000000000000000000000008152600401610620906114dc565b60405180910390fd5b7f000000000000000000000000000000000000000000000000000000000000000073ffffffffffffffffffffffffffffffffffffffff166323b872dd3330856040518463ffffffff1660e01b8152600401610686939291906114fa565b6020604051808303815f875af11580156106a2573d5f5f3e3d5ffd5b505050506040513d601f19601f820116820180604052508101906106c69190611432565b507f000000000000000000000000000000000000000000000000000000000000000073ffffffffffffffffffffffffffffffffffffffff166323b872dd3330846040518463ffffffff1660e01b8152600401610724939291906114fa565b6020604051808303815f875af1158015610740573d5f5f3e3d5ffd5b505050506040513d601f19601f820116820180604052508101906107649190611432565b505f5f6003540361078a57610783828461077e9190611305565b610ff7565b90506107cb565b6107c86001546003548561079e9190611305565b6107a89190611373565b600254600354856107b99190611305565b6107c39190611373565b61106e565b90505b5f811161080d576040517f08c379a000000000000000000000000000000000000000000000000000000000815260040161080490611579565b60405180910390fd5b8060045f3373ffffffffffffffffffffffffffffffffffffffff1673ffffffffffffffffffffffffffffffffffffffff1681526020019081526020015f205f8282546108599190611597565b925050819055508060035f8282546108719190611597565b92505081905550610880610eb0565b3373ffffffffffffffffffffffffffffffffffffffff167f64b83944e79c3ce8d4c297411de637c3e102d064677aac0c163976ebdcd6f50e8484846040516108ca9392919061145d565b60405180910390a2506108db610fee565b5050565b5f600354905090565b60035481565b5f60045f8373ffffffffffffffffffffffffffffffffffffffff1673ffffffffffffffffffffffffffffffffffffffff1681526020019081526020015f20549050919050565b61093c610e63565b5f821161097e576040517f08c379a000000000000000000000000000000000000000000000000000000000815260040161097590611614565b60405180910390fd5b7f000000000000000000000000000000000000000000000000000000000000000073ffffffffffffffffffffffffffffffffffffffff168173ffffffffffffffffffffffffffffffffffffffff161480610a2357507f000000000000000000000000000000000000000000000000000000000000000073ffffffffffffffffffffffffffffffffffffffff168173ffffffffffffffffffffffffffffffffffffffff16145b610a62576040517f08c379a0000000000000000000000000000000000000000000000000000000008152600401610a599061167c565b60405180910390fd5b5f7f000000000000000000000000000000000000000000000000000000000000000073ffffffffffffffffffffffffffffffffffffffff168273ffffffffffffffffffffffffffffffffffffffff1614610adc577f0000000000000000000000000000000000000000000000000000000000000000610afe565b7f00000000000000000000000000000000000000000000000000000000000000005b90505f610b0b8484610cb9565b90505f8111610b4f576040517f08c379a0000000000000000000000000000000000000000000000000000000008152600401610b46906116e4565b60405180910390fd5b8273ffffffffffffffffffffffffffffffffffffffff166323b872dd3330876040518463ffffffff1660e01b8152600401610b8c939291906114fa565b6020604051808303815f875af1158015610ba8573d5f5f3e3d5ffd5b505050506040513d601f19601f82011682018060405250810190610bcc9190611432565b508173ffffffffffffffffffffffffffffffffffffffff1663a9059cbb33836040518363ffffffff1660e01b8152600401610c089291906113d6565b6020604051808303815f875af1158015610c24573d5f5f3e3d5ffd5b505050506040513d601f19601f82011682018060405250810190610c489190611432565b50610c51610eb0565b3373ffffffffffffffffffffffffffffffffffffffff167f692315744755ee6d80decaeb993d4b1bb95ff5db042cc47b32d5a7d858b0190284868585604051610c9d9493929190611702565b60405180910390a25050610caf610fee565b5050565b60015481565b5f7f000000000000000000000000000000000000000000000000000000000000000073ffffffffffffffffffffffffffffffffffffffff168273ffffffffffffffffffffffffffffffffffffffff161480610d5f57507f000000000000000000000000000000000000000000000000000000000000000073ffffffffffffffffffffffffffffffffffffffff168273ffffffffffffffffffffffffffffffffffffffff16145b610d9e576040517f08c379a0000000000000000000000000000000000000000000000000000000008152600401610d959061178f565b60405180910390fd5b5f7f000000000000000000000000000000000000000000000000000000000000000073ffffffffffffffffffffffffffffffffffffffff168373ffffffffffffffffffffffffffffffffffffffff161490505f5f82610e0257600254600154610e09565b6001546002545b915091505f6103e587610e1c9190611305565b90505f8282610e2b9190611305565b90505f826103e886610e3d9190611305565b610e479190611597565b90508082610e559190611373565b965050505050505092915050565b60025f5403610ea7576040517f08c379a0000000000000000000000000000000000000000000000000000000008152600401610e9e906117f7565b60405180910390fd5b60025f81905550565b7f000000000000000000000000000000000000000000000000000000000000000073ffffffffffffffffffffffffffffffffffffffff166370a08231306040518263ffffffff1660e01b8152600401610f099190611176565b602060405180830381865afa158015610f24573d5f5f3e3d5ffd5b505050506040513d601f19601f82011682018060405250810190610f489190611829565b6001819055507f000000000000000000000000000000000000000000000000000000000000000073ffffffffffffffffffffffffffffffffffffffff166370a08231306040518263ffffffff1660e01b8152600401610fa79190611176565b602060405180830381865afa158015610fc2573d5f5f3e3d5ffd5b505050506040513d601f19601f82011682018060405250810190610fe69190611829565b600281905550565b60015f81905550565b5f600382111561105c578190505f60016002846110149190611373565b61101e9190611597565b90505b8181101561105657809150600281828561103b9190611373565b6110459190611597565b61104f9190611373565b9050611021565b50611069565b5f821461106857600190505b5b919050565b5f81831061107c578161107e565b825b905092915050565b5f819050919050565b61109881611086565b82525050565b5f6040820190506110b15f83018561108f565b6110be602083018461108f565b9392505050565b5f5ffd5b5f73ffffffffffffffffffffffffffffffffffffffff82169050919050565b5f6110f2826110c9565b9050919050565b611102816110e8565b811461110c575f5ffd5b50565b5f8135905061111d816110f9565b92915050565b5f60208284031215611138576111376110c5565b5b5f6111458482850161110f565b91505092915050565b5f6020820190506111615f83018461108f565b92915050565b611170816110e8565b82525050565b5f6020820190506111895f830184611167565b92915050565b61119881611086565b81146111a2575f5ffd5b50565b5f813590506111b38161118f565b92915050565b5f602082840312156111ce576111cd6110c5565b5b5f6111db848285016111a5565b91505092915050565b5f5f604083850312156111fa576111f96110c5565b5b5f611207858286016111a5565b9250506020611218858286016111a5565b9150509250929050565b5f5f60408385031215611238576112376110c5565b5b5f611245858286016111a5565b92505060206112568582860161110f565b9150509250929050565b5f82825260208201905092915050565b7f496e76616c6964204c5020616d6f756e740000000000000000000000000000005f82015250565b5f6112a4601183611260565b91506112af82611270565b602082019050919050565b5f6020820190508181035f8301526112d181611298565b9050919050565b7f4e487b71000000000000000000000000000000000000000000000000000000005f52601160045260245ffd5b5f61130f82611086565b915061131a83611086565b925082820261132881611086565b9150828204841483151761133f5761133e6112d8565b5b5092915050565b7f4e487b71000000000000000000000000000000000000000000000000000000005f52601260045260245ffd5b5f61137d82611086565b915061138883611086565b92508261139857611397611346565b5b828204905092915050565b5f6113ad82611086565b91506113b883611086565b92508282039050818111156113d0576113cf6112d8565b5b92915050565b5f6040820190506113e95f830185611167565b6113f6602083018461108f565b9392505050565b5f8115159050919050565b611411816113fd565b811461141b575f5ffd5b50565b5f8151905061142c81611408565b92915050565b5f60208284031215611447576114466110c5565b5b5f6114548482850161141e565b91505092915050565b5f6060820190506114705f83018661108f565b61147d602083018561108f565b61148a604083018461108f565b949350505050565b7f496e76616c696420616d6f756e747300000000000000000000000000000000005f82015250565b5f6114c6600f83611260565b91506114d182611492565b602082019050919050565b5f6020820190508181035f8301526114f3816114ba565b9050919050565b5f60608201905061150d5f830186611167565b61151a6020830185611167565b611527604083018461108f565b949350505050565b7f5a65726f204c50206d696e7465640000000000000000000000000000000000005f82015250565b5f611563600e83611260565b915061156e8261152f565b602082019050919050565b5f6020820190508181035f83015261159081611557565b9050919050565b5f6115a182611086565b91506115ac83611086565b92508282019050808211156115c4576115c36112d8565b5b92915050565b7f5a65726f20696e707574000000000000000000000000000000000000000000005f82015250565b5f6115fe600a83611260565b9150611609826115ca565b602082019050919050565b5f6020820190508181035f83015261162b816115f2565b9050919050565b7f496e76616c696420746f6b656e000000000000000000000000000000000000005f82015250565b5f611666600d83611260565b915061167182611632565b602082019050919050565b5f6020820190508181035f8301526116938161165a565b9050919050565b7f496e73756666696369656e74206f7574707574000000000000000000000000005f82015250565b5f6116ce601383611260565b91506116d98261169a565b602082019050919050565b5f6020820190508181035f8301526116fb816116c2565b9050919050565b5f6080820190506117155f830187611167565b611722602083018661108f565b61172f6040830185611167565b61173c606083018461108f565b95945050505050565b7f496e76616c696420696e70757420746f6b656e000000000000000000000000005f82015250565b5f611779601383611260565b915061178482611745565b602082019050919050565b5f6020820190508181035f8301526117a68161176d565b9050919050565b7f5265656e7472616e637947756172643a207265656e7472616e742063616c6c005f82015250565b5f6117e1601f83611260565b91506117ec826117ad565b602082019050919050565b5f6020820190508181035f83015261180e816117d5565b9050919050565b5f815190506118238161118f565b92915050565b5f6020828403121561183e5761183d6110c5565b5b5f61184b84828501611815565b9150509291505056fea26469706673582212203a9ebc5a2b3cdc9895205adf3ad00f4fa6c03c5745d9b02bbffb6fd9c1fe50b364736f6c634300081e0033",
					"opcodes": "PUSH1 0xC0 PUSH1 0x40 MSTORE CALLVALUE DUP1 ISZERO PUSH2 0xF JUMPI PUSH0 PUSH0 REVERT JUMPDEST POP PUSH1 0x40 MLOAD PUSH2 0x1C45 CODESIZE SUB DUP1 PUSH2 0x1C45 DUP4 CODECOPY DUP2 DUP2 ADD PUSH1 0x40 MSTORE DUP2 ADD SWAP1 PUSH2 0x31 SWAP2 SWAP1 PUSH2 0x21A JUMP JUMPDEST PUSH1 0x1 PUSH0 DUP2 SWAP1 SSTORE POP DUP1 PUSH20 0xFFFFFFFFFFFFFFFFFFFFFFFFFFFFFFFFFFFFFFFF AND DUP3 PUSH20 0xFFFFFFFFFFFFFFFFFFFFFFFFFFFFFFFFFFFFFFFF AND SUB PUSH2 0xA6 JUMPI PUSH1 0x40 MLOAD PUSH32 0x8C379A000000000000000000000000000000000000000000000000000000000 DUP2 MSTORE PUSH1 0x4 ADD PUSH2 0x9D SWAP1 PUSH2 0x2B2 JUMP JUMPDEST PUSH1 0x40 MLOAD DUP1 SWAP2 SUB SWAP1 REVERT JUMPDEST PUSH0 PUSH20 0xFFFFFFFFFFFFFFFFFFFFFFFFFFFFFFFFFFFFFFFF AND DUP3 PUSH20 0xFFFFFFFFFFFFFFFFFFFFFFFFFFFFFFFFFFFFFFFF AND EQ ISZERO DUP1 ISZERO PUSH2 0x10E JUMPI POP PUSH0 PUSH20 0xFFFFFFFFFFFFFFFFFFFFFFFFFFFFFFFFFFFFFFFF AND DUP2 PUSH20 0xFFFFFFFFFFFFFFFFFFFFFFFFFFFFFFFFFFFFFFFF AND EQ ISZERO JUMPDEST PUSH2 0x14D JUMPI PUSH1 0x40 MLOAD PUSH32 0x8C379A000000000000000000000000000000000000000000000000000000000 DUP2 MSTORE PUSH1 0x4 ADD PUSH2 0x144 SWAP1 PUSH2 0x31A JUMP JUMPDEST PUSH1 0x40 MLOAD DUP1 SWAP2 SUB SWAP1 REVERT JUMPDEST DUP2 PUSH20 0xFFFFFFFFFFFFFFFFFFFFFFFFFFFFFFFFFFFFFFFF AND PUSH1 0x80 DUP2 PUSH20 0xFFFFFFFFFFFFFFFFFFFFFFFFFFFFFFFFFFFFFFFF AND DUP2 MSTORE POP POP DUP1 PUSH20 0xFFFFFFFFFFFFFFFFFFFFFFFFFFFFFFFFFFFFFFFF AND PUSH1 0xA0 DUP2 PUSH20 0xFFFFFFFFFFFFFFFFFFFFFFFFFFFFFFFFFFFFFFFF AND DUP2 MSTORE POP POP POP POP PUSH2 0x338 JUMP JUMPDEST PUSH0 PUSH0 REVERT JUMPDEST PUSH0 PUSH20 0xFFFFFFFFFFFFFFFFFFFFFFFFFFFFFFFFFFFFFFFF DUP3 AND SWAP1 POP SWAP2 SWAP1 POP JUMP JUMPDEST PUSH0 PUSH2 0x1E9 DUP3 PUSH2 0x1C0 JUMP JUMPDEST SWAP1 POP SWAP2 SWAP1 POP JUMP JUMPDEST PUSH2 0x1F9 DUP2 PUSH2 0x1DF JUMP JUMPDEST DUP2 EQ PUSH2 0x203 JUMPI PUSH0 PUSH0 REVERT JUMPDEST POP JUMP JUMPDEST PUSH0 DUP2 MLOAD SWAP1 POP PUSH2 0x214 DUP2 PUSH2 0x1F0 JUMP JUMPDEST SWAP3 SWAP2 POP POP JUMP JUMPDEST PUSH0 PUSH0 PUSH1 0x40 DUP4 DUP6 SUB SLT ISZERO PUSH2 0x230 JUMPI PUSH2 0x22F PUSH2 0x1BC JUMP JUMPDEST JUMPDEST PUSH0 PUSH2 0x23D DUP6 DUP3 DUP7 ADD PUSH2 0x206 JUMP JUMPDEST SWAP3 POP POP PUSH1 0x20 PUSH2 0x24E DUP6 DUP3 DUP7 ADD PUSH2 0x206 JUMP JUMPDEST SWAP2 POP POP SWAP3 POP SWAP3 SWAP1 POP JUMP JUMPDEST PUSH0 DUP3 DUP3 MSTORE PUSH1 0x20 DUP3 ADD SWAP1 POP SWAP3 SWAP2 POP POP JUMP JUMPDEST PUSH32 0x4964656E746963616C20746F6B656E7300000000000000000000000000000000 PUSH0 DUP3 ADD MSTORE POP JUMP JUMPDEST PUSH0 PUSH2 0x29C PUSH1 0x10 DUP4 PUSH2 0x258 JUMP JUMPDEST SWAP2 POP PUSH2 0x2A7 DUP3 PUSH2 0x268 JUMP JUMPDEST PUSH1 0x20 DUP3 ADD SWAP1 POP SWAP2 SWAP1 POP JUMP JUMPDEST PUSH0 PUSH1 0x20 DUP3 ADD SWAP1 POP DUP2 DUP2 SUB PUSH0 DUP4 ADD MSTORE PUSH2 0x2C9 DUP2 PUSH2 0x290 JUMP JUMPDEST SWAP1 POP SWAP2 SWAP1 POP JUMP JUMPDEST PUSH32 0x5A65726F20616464726573730000000000000000000000000000000000000000 PUSH0 DUP3 ADD MSTORE POP JUMP JUMPDEST PUSH0 PUSH2 0x304 PUSH1 0xC DUP4 PUSH2 0x258 JUMP JUMPDEST SWAP2 POP PUSH2 0x30F DUP3 PUSH2 0x2D0 JUMP JUMPDEST PUSH1 0x20 DUP3 ADD SWAP1 POP SWAP2 SWAP1 POP JUMP JUMPDEST PUSH0 PUSH1 0x20 DUP3 ADD SWAP1 POP DUP2 DUP2 SUB PUSH0 DUP4 ADD MSTORE PUSH2 0x331 DUP2 PUSH2 0x2F8 JUMP JUMPDEST SWAP1 POP SWAP2 SWAP1 POP JUMP JUMPDEST PUSH1 0x80 MLOAD PUSH1 0xA0 MLOAD PUSH2 0x188A PUSH2 0x3BB PUSH0 CODECOPY PUSH0 DUP2 DUP2 PUSH2 0x2D9 ADD MSTORE DUP2 DUP2 PUSH2 0x4D3 ADD MSTORE DUP2 DUP2 PUSH2 0x6C9 ADD MSTORE DUP2 DUP2 PUSH2 0x9D5 ADD MSTORE DUP2 DUP2 PUSH2 0xADE ADD MSTORE DUP2 DUP2 PUSH2 0xD11 ADD MSTORE PUSH2 0xF50 ADD MSTORE PUSH0 DUP2 DUP2 PUSH2 0x2AF ADD MSTORE DUP2 DUP2 PUSH2 0x437 ADD MSTORE DUP2 DUP2 PUSH2 0x62B ADD MSTORE DUP2 DUP2 PUSH2 0x980 ADD MSTORE DUP2 DUP2 PUSH2 0xA65 ADD MSTORE DUP2 DUP2 PUSH2 0xAB8 ADD MSTORE DUP2 DUP2 PUSH2 0xCBC ADD MSTORE DUP2 DUP2 PUSH2 0xDA1 ADD MSTORE PUSH2 0xEB2 ADD MSTORE PUSH2 0x188A PUSH0 RETURN INVALID PUSH1 0x80 PUSH1 0x40 MSTORE CALLVALUE DUP1 ISZERO PUSH2 0xF JUMPI PUSH0 PUSH0 REVERT JUMPDEST POP PUSH1 0x4 CALLDATASIZE LT PUSH2 0xCD JUMPI PUSH0 CALLDATALOAD PUSH1 0xE0 SHR DUP1 PUSH4 0x9CD441DA GT PUSH2 0x8A JUMPI DUP1 PUSH4 0xD2258BEB GT PUSH2 0x64 JUMPI DUP1 PUSH4 0xD2258BEB EQ PUSH2 0x1EE JUMPI DUP1 PUSH4 0xD3986F08 EQ PUSH2 0x21E JUMPI DUP1 PUSH4 0xDC5FA6C5 EQ PUSH2 0x23A JUMPI DUP1 PUSH4 0xF140A35A EQ PUSH2 0x258 JUMPI PUSH2 0xCD JUMP JUMPDEST DUP1 PUSH4 0x9CD441DA EQ PUSH2 0x196 JUMPI DUP1 PUSH4 0xB7E5DCEE EQ PUSH2 0x1B2 JUMPI DUP1 PUSH4 0xD1A86711 EQ PUSH2 0x1D0 JUMPI PUSH2 0xCD JUMP JUMPDEST DUP1 PUSH4 0x902F1AC EQ PUSH2 0xD1 JUMPI DUP1 PUSH4 0xB65092D EQ PUSH2 0xF0 JUMPI DUP1 PUSH4 0xFC63D10 EQ PUSH2 0x120 JUMPI DUP1 PUSH4 0x19E36F3B EQ PUSH2 0x13E JUMPI DUP1 PUSH4 0x5F64B55B EQ PUSH2 0x15C JUMPI DUP1 PUSH4 0x9C8F9F23 EQ PUSH2 0x17A JUMPI JUMPDEST PUSH0 PUSH0 REVERT JUMPDEST PUSH2 0xD9 PUSH2 0x288 JUMP JUMPDEST PUSH1 0x40 MLOAD PUSH2 0xE7 SWAP3 SWAP2 SWAP1 PUSH2 0x109E JUMP JUMPDEST PUSH1 0x40 MLOAD DUP1 SWAP2 SUB SWAP1 RETURN JUMPDEST PUSH2 0x10A PUSH1 0x4 DUP1 CALLDATASIZE SUB DUP2 ADD SWAP1 PUSH2 0x105 SWAP2 SWAP1 PUSH2 0x1123 JUMP JUMPDEST PUSH2 0x298 JUMP JUMPDEST PUSH1 0x40 MLOAD PUSH2 0x117 SWAP2 SWAP1 PUSH2 0x114E JUMP JUMPDEST PUSH1 0x40 MLOAD DUP1 SWAP2 SUB SWAP1 RETURN JUMPDEST PUSH2 0x128 PUSH2 0x2AD JUMP JUMPDEST PUSH1 0x40 MLOAD PUSH2 0x135 SWAP2 SWAP1 PUSH2 0x1176 JUMP JUMPDEST PUSH1 0x40 MLOAD DUP1 SWAP2 SUB SWAP1 RETURN JUMPDEST PUSH2 0x146 PUSH2 0x2D1 JUMP JUMPDEST PUSH1 0x40 MLOAD PUSH2 0x153 SWAP2 SWAP1 PUSH2 0x114E JUMP JUMPDEST PUSH1 0x40 MLOAD DUP1 SWAP2 SUB SWAP1 RETURN JUMPDEST PUSH2 0x164 PUSH2 0x2D7 JUMP JUMPDEST PUSH1 0x40 MLOAD PUSH2 0x171 SWAP2 SWAP1 PUSH2 0x1176 JUMP JUMPDEST PUSH1 0x40 MLOAD DUP1 SWAP2 SUB SWAP1 RETURN JUMPDEST PUSH2 0x194 PUSH1 0x4 DUP1 CALLDATASIZE SUB DUP2 ADD SWAP1 PUSH2 0x18F SWAP2 SWAP1 PUSH2 0x11B9 JUMP JUMPDEST PUSH2 0x2FB JUMP JUMPDEST STOP JUMPDEST PUSH2 0x1B0 PUSH1 0x4 DUP1 CALLDATASIZE SUB DUP2 ADD SWAP1 PUSH2 0x1AB SWAP2 SWAP1 PUSH2 0x11E4 JUMP JUMPDEST PUSH2 0x5D4 JUMP JUMPDEST STOP JUMPDEST PUSH2 0x1BA PUSH2 0x8DF JUMP JUMPDEST PUSH1 0x40 MLOAD PUSH2 0x1C7 SWAP2 SWAP1 PUSH2 0x114E JUMP JUMPDEST PUSH1 0x40 MLOAD DUP1 SWAP2 SUB SWAP1 RETURN JUMPDEST PUSH2 0x1D8 PUSH2 0x8E8 JUMP JUMPDEST PUSH1 0x40 MLOAD PUSH2 0x1E5 SWAP2 SWAP1 PUSH2 0x114E JUMP JUMPDEST PUSH1 0x40 MLOAD DUP1 SWAP2 SUB SWAP1 RETURN JUMPDEST PUSH2 0x208 PUSH1 0x4 DUP1 CALLDATASIZE SUB DUP2 ADD SWAP1 PUSH2 0x203 SWAP2 SWAP1 PUSH2 0x1123 JUMP JUMPDEST PUSH2 0x8EE JUMP JUMPDEST PUSH1 0x40 MLOAD PUSH2 0x215 SWAP2 SWAP1 PUSH2 0x114E JUMP JUMPDEST PUSH1 0x40 MLOAD DUP1 SWAP2 SUB SWAP1 RETURN JUMPDEST PUSH2 0x238 PUSH1 0x4 DUP1 CALLDATASIZE SUB DUP2 ADD SWAP1 PUSH2 0x233 SWAP2 SWAP1 PUSH2 0x1222 JUMP JUMPDEST PUSH2 0x934 JUMP JUMPDEST STOP JUMPDEST PUSH2 0x242 PUSH2 0xCB3 JUMP JUMPDEST PUSH1 0x40 MLOAD PUSH2 0x24F SWAP2 SWAP1 PUSH2 0x114E JUMP JUMPDEST PUSH1 0x40 MLOAD DUP1 SWAP2 SUB SWAP1 RETURN JUMPDEST PUSH2 0x272 PUSH1 0x4 DUP1 CALLDATASIZE SUB DUP2 ADD SWAP1 PUSH2 0x26D SWAP2 SWAP1 PUSH2 0x1222 JUMP JUMPDEST PUSH2 0xCB9 JUMP JUMPDEST PUSH1 0x40 MLOAD PUSH2 0x27F SWAP2 SWAP1 PUSH2 0x114E JUMP JUMPDEST PUSH1 0x40 MLOAD DUP1 SWAP2 SUB SWAP1 RETURN JUMPDEST PUSH0 PUSH0 PUSH1 0x1 SLOAD PUSH1 0x2 SLOAD SWAP2 POP SWAP2 POP SWAP1 SWAP2 JUMP JUMPDEST PUSH1 0x4 PUSH1 0x20 MSTORE DUP1 PUSH0 MSTORE PUSH1 0x40 PUSH0 KECCAK256 PUSH0 SWAP2 POP SWAP1 POP SLOAD DUP2 JUMP JUMPDEST PUSH32 0x0 DUP2 JUMP JUMPDEST PUSH1 0x2 SLOAD DUP2 JUMP JUMPDEST PUSH32 0x0 DUP2 JUMP JUMPDEST PUSH2 0x303 PUSH2 0xE63 JUMP JUMPDEST PUSH0 DUP2 GT DUP1 ISZERO PUSH2 0x34F JUMPI POP PUSH1 0x4 PUSH0 CALLER PUSH20 0xFFFFFFFFFFFFFFFFFFFFFFFFFFFFFFFFFFFFFFFF AND PUSH20 0xFFFFFFFFFFFFFFFFFFFFFFFFFFFFFFFFFFFFFFFF AND DUP2 MSTORE PUSH1 0x20 ADD SWAP1 DUP2 MSTORE PUSH1 0x20 ADD PUSH0 KECCAK256 SLOAD DUP2 GT ISZERO JUMPDEST PUSH2 0x38E JUMPI PUSH1 0x40 MLOAD PUSH32 0x8C379A000000000000000000000000000000000000000000000000000000000 DUP2 MSTORE PUSH1 0x4 ADD PUSH2 0x385 SWAP1 PUSH2 0x12BA JUMP JUMPDEST PUSH1 0x40 MLOAD DUP1 SWAP2 SUB SWAP1 REVERT JUMPDEST PUSH0 PUSH1 0x3 SLOAD PUSH1 0x1 SLOAD DUP4 PUSH2 0x3A0 SWAP2 SWAP1 PUSH2 0x1305 JUMP JUMPDEST PUSH2 0x3AA SWAP2 SWAP1 PUSH2 0x1373 JUMP JUMPDEST SWAP1 POP PUSH0 PUSH1 0x3 SLOAD PUSH1 0x2 SLOAD DUP5 PUSH2 0x3BE SWAP2 SWAP1 PUSH2 0x1305 JUMP JUMPDEST PUSH2 0x3C8 SWAP2 SWAP1 PUSH2 0x1373 JUMP JUMPDEST SWAP1 POP DUP3 PUSH1 0x4 PUSH0 CALLER PUSH20 0xFFFFFFFFFFFFFFFFFFFFFFFFFFFFFFFFFFFFFFFF AND PUSH20 0xFFFFFFFFFFFFFFFFFFFFFFFFFFFFFFFFFFFFFFFF AND DUP2 MSTORE PUSH1 0x20 ADD SWAP1 DUP2 MSTORE PUSH1 0x20 ADD PUSH0 KECCAK256 PUSH0 DUP3 DUP3 SLOAD PUSH2 0x416 SWAP2 SWAP1 PUSH2 0x13A3 JUMP JUMPDEST SWAP3 POP POP DUP2 SWAP1 SSTORE POP DUP3 PUSH1 0x3 PUSH0 DUP3 DUP3 SLOAD PUSH2 0x42E SWAP2 SWAP1 PUSH2 0x13A3 JUMP JUMPDEST SWAP3 POP POP DUP2 SWAP1 SSTORE POP PUSH32 0x0 PUSH20 0xFFFFFFFFFFFFFFFFFFFFFFFFFFFFFFFFFFFFFFFF AND PUSH4 0xA9059CBB CALLER DUP5 PUSH1 0x40 MLOAD DUP4 PUSH4 0xFFFFFFFF AND PUSH1 0xE0 SHL DUP2 MSTORE PUSH1 0x4 ADD PUSH2 0x490 SWAP3 SWAP2 SWAP1 PUSH2 0x13D6 JUMP JUMPDEST PUSH1 0x20 PUSH1 0x40 MLOAD DUP1 DUP4 SUB DUP2 PUSH0 DUP8 GAS CALL ISZERO DUP1 ISZERO PUSH2 0x4AC JUMPI RETURNDATASIZE PUSH0 PUSH0 RETURNDATACOPY RETURNDATASIZE PUSH0 REVERT JUMPDEST POP POP POP POP PUSH1 0x40 MLOAD RETURNDATASIZE PUSH1 0x1F NOT PUSH1 0x1F DUP3 ADD AND DUP3 ADD DUP1 PUSH1 0x40 MSTORE POP DUP2 ADD SWAP1 PUSH2 0x4D0 SWAP2 SWAP1 PUSH2 0x1432 JUMP JUMPDEST POP PUSH32 0x0 PUSH20 0xFFFFFFFFFFFFFFFFFFFFFFFFFFFFFFFFFFFFFFFF AND PUSH4 0xA9059CBB CALLER DUP4 PUSH1 0x40 MLOAD DUP4 PUSH4 0xFFFFFFFF AND PUSH1 0xE0 SHL DUP2 MSTORE PUSH1 0x4 ADD PUSH2 0x52C SWAP3 SWAP2 SWAP1 PUSH2 0x13D6 JUMP JUMPDEST PUSH1 0x20 PUSH1 0x40 MLOAD DUP1 DUP4 SUB DUP2 PUSH0 DUP8 GAS CALL ISZERO DUP1 ISZERO PUSH2 0x548 JUMPI RETURNDATASIZE PUSH0 PUSH0 RETURNDATACOPY RETURNDATASIZE PUSH0 REVERT JUMPDEST POP POP POP POP PUSH1 0x40 MLOAD RETURNDATASIZE PUSH1 0x1F NOT PUSH1 0x1F DUP3 ADD AND DUP3 ADD DUP1 PUSH1 0x40 MSTORE POP DUP2 ADD SWAP1 PUSH2 0x56C SWAP2 SWAP1 PUSH2 0x1432 JUMP JUMPDEST POP PUSH2 0x575 PUSH2 0xEB0 JUMP JUMPDEST CALLER PUSH20 0xFFFFFFFFFFFFFFFFFFFFFFFFFFFFFFFFFFFFFFFF AND PUSH32 0x1DC8BB69DF2B8E91FBDCBFCF93D951B3F0000F085A95FE3F7946D6161439245D DUP4 DUP4 DUP7 PUSH1 0x40 MLOAD PUSH2 0x5BF SWAP4 SWAP3 SWAP2 SWAP1 PUSH2 0x145D JUMP JUMPDEST PUSH1 0x40 MLOAD DUP1 SWAP2 SUB SWAP1 LOG2 POP POP PUSH2 0x5D1 PUSH2 0xFEE JUMP JUMPDEST POP JUMP JUMPDEST PUSH2 0x5DC PUSH2 0xE63 JUMP JUMPDEST PUSH0 DUP3 GT DUP1 ISZERO PUSH2 0x5EA JUMPI POP PUSH0 DUP2 GT JUMPDEST PUSH2 0x629 JUMPI PUSH1 0x40 MLOAD PUSH32 0x8C379A000000000000000000000000000000000000000000000000000000000 DUP2 MSTORE PUSH1 0x4 ADD PUSH2 0x620 SWAP1 PUSH2 0x14DC JUMP JUMPDEST PUSH1 0x40 MLOAD DUP1 SWAP2 SUB SWAP1 REVERT JUMPDEST PUSH32 0x0 PUSH20 0xFFFFFFFFFFFFFFFFFFFFFFFFFFFFFFFFFFFFFFFF AND PUSH4 0x23B872DD CALLER ADDRESS DUP6 PUSH1 0x40 MLOAD DUP5 PUSH4 0xFFFFFFFF AND PUSH1 0xE0 SHL DUP2 MSTORE PUSH1 0x4 ADD PUSH2 0x686 SWAP4 SWAP3 SWAP2 SWAP1 PUSH2 0x14FA JUMP JUMPDEST PUSH1 0x20 PUSH1 0x40 MLOAD DUP1 DUP4 SUB DUP2 PUSH0 DUP8 GAS CALL ISZERO DUP1 ISZERO PUSH2 0x6A2 JUMPI RETURNDATASIZE PUSH0 PUSH0 RETURNDATACOPY RETURNDATASIZE PUSH0 REVERT JUMPDEST POP POP POP POP PUSH1 0x40 MLOAD RETURNDATASIZE PUSH1 0x1F NOT PUSH1 0x1F DUP3 ADD AND DUP3 ADD DUP1 PUSH1 0x40 MSTORE POP DUP2 ADD SWAP1 PUSH2 0x6C6 SWAP2 SWAP1 PUSH2 0x1432 JUMP JUMPDEST POP PUSH32 0x0 PUSH20 0xFFFFFFFFFFFFFFFFFFFFFFFFFFFFFFFFFFFFFFFF AND PUSH4 0x23B872DD CALLER ADDRESS DUP5 PUSH1 0x40 MLOAD DUP5 PUSH4 0xFFFFFFFF AND PUSH1 0xE0 SHL DUP2 MSTORE PUSH1 0x4 ADD PUSH2 0x724 SWAP4 SWAP3 SWAP2 SWAP1 PUSH2 0x14FA JUMP JUMPDEST PUSH1 0x20 PUSH1 0x40 MLOAD DUP1 DUP4 SUB DUP2 PUSH0 DUP8 GAS CALL ISZERO DUP1 ISZERO PUSH2 0x740 JUMPI RETURNDATASIZE PUSH0 PUSH0 RETURNDATACOPY RETURNDATASIZE PUSH0 REVERT JUMPDEST POP POP POP POP PUSH1 0x40 MLOAD RETURNDATASIZE PUSH1 0x1F NOT PUSH1 0x1F DUP3 ADD AND DUP3 ADD DUP1 PUSH1 0x40 MSTORE POP DUP2 ADD SWAP1 PUSH2 0x764 SWAP2 SWAP1 PUSH2 0x1432 JUMP JUMPDEST POP PUSH0 PUSH0 PUSH1 0x3 SLOAD SUB PUSH2 0x78A JUMPI PUSH2 0x783 DUP3 DUP5 PUSH2 0x77E SWAP2 SWAP1 PUSH2 0x1305 JUMP JUMPDEST PUSH2 0xFF7 JUMP JUMPDEST SWAP1 POP PUSH2 0x7CB JUMP JUMPDEST PUSH2 0x7C8 PUSH1 0x1 SLOAD PUSH1 0x3 SLOAD DUP6 PUSH2 0x79E SWAP2 SWAP1 PUSH2 0x1305 JUMP JUMPDEST PUSH2 0x7A8 SWAP2 SWAP1 PUSH2 0x1373 JUMP JUMPDEST PUSH1 0x2 SLOAD PUSH1 0x3 SLOAD DUP6 PUSH2 0x7B9 SWAP2 SWAP1 PUSH2 0x1305 JUMP JUMPDEST PUSH2 0x7C3 SWAP2 SWAP1 PUSH2 0x1373 JUMP JUMPDEST PUSH2 0x106E JUMP JUMPDEST SWAP1 POP JUMPDEST PUSH0 DUP2 GT PUSH2 0x80D JUMPI PUSH1 0x40 MLOAD PUSH32 0x8C379A000000000000000000000000000000000000000000000000000000000 DUP2 MSTORE PUSH1 0x4 ADD PUSH2 0x804 SWAP1 PUSH2 0x1579 JUMP JUMPDEST PUSH1 0x40 MLOAD DUP1 SWAP2 SUB SWAP1 REVERT JUMPDEST DUP1 PUSH1 0x4 PUSH0 CALLER PUSH20 0xFFFFFFFFFFFFFFFFFFFFFFFFFFFFFFFFFFFFFFFF AND PUSH20 0xFFFFFFFFFFFFFFFFFFFFFFFFFFFFFFFFFFFFFFFF AND DUP2 MSTORE PUSH1 0x20 ADD SWAP1 DUP2 MSTORE PUSH1 0x20 ADD PUSH0 KECCAK256 PUSH0 DUP3 DUP3 SLOAD PUSH2 0x859 SWAP2 SWAP1 PUSH2 0x1597 JUMP JUMPDEST SWAP3 POP POP DUP2 SWAP1 SSTORE POP DUP1 PUSH1 0x3 PUSH0 DUP3 DUP3 SLOAD PUSH2 0x871 SWAP2 SWAP1 PUSH2 0x1597 JUMP JUMPDEST SWAP3 POP POP DUP2 SWAP1 SSTORE POP PUSH2 0x880 PUSH2 0xEB0 JUMP JUMPDEST CALLER PUSH20 0xFFFFFFFFFFFFFFFFFFFFFFFFFFFFFFFFFFFFFFFF AND PUSH32 0x64B83944E79C3CE8D4C297411DE637C3E102D064677AAC0C163976EBDCD6F50E DUP5 DUP5 DUP5 PUSH1 0x40 MLOAD PUSH2 0x8CA SWAP4 SWAP3 SWAP2 SWAP1 PUSH2 0x145D JUMP JUMPDEST PUSH1 0x40 MLOAD DUP1 SWAP2 SUB SWAP1 LOG2 POP PUSH2 0x8DB PUSH2 0xFEE JUMP JUMPDEST POP POP JUMP JUMPDEST PUSH0 PUSH1 0x3 SLOAD SWAP1 POP SWAP1 JUMP JUMPDEST PUSH1 0x3 SLOAD DUP2 JUMP JUMPDEST PUSH0 PUSH1 0x4 PUSH0 DUP4 PUSH20 0xFFFFFFFFFFFFFFFFFFFFFFFFFFFFFFFFFFFFFFFF AND PUSH20 0xFFFFFFFFFFFFFFFFFFFFFFFFFFFFFFFFFFFFFFFF AND DUP2 MSTORE PUSH1 0x20 ADD SWAP1 DUP2 MSTORE PUSH1 0x20 ADD PUSH0 KECCAK256 SLOAD SWAP1 POP SWAP2 SWAP1 POP JUMP JUMPDEST PUSH2 0x93C PUSH2 0xE63 JUMP JUMPDEST PUSH0 DUP3 GT PUSH2 0x97E JUMPI PUSH1 0x40 MLOAD PUSH32 0x8C379A000000000000000000000000000000000000000000000000000000000 DUP2 MSTORE PUSH1 0x4 ADD PUSH2 0x975 SWAP1 PUSH2 0x1614 JUMP JUMPDEST PUSH1 0x40 MLOAD DUP1 SWAP2 SUB SWAP1 REVERT JUMPDEST PUSH32 0x0 PUSH20 0xFFFFFFFFFFFFFFFFFFFFFFFFFFFFFFFFFFFFFFFF AND DUP2 PUSH20 0xFFFFFFFFFFFFFFFFFFFFFFFFFFFFFFFFFFFFFFFF AND EQ DUP1 PUSH2 0xA23 JUMPI POP PUSH32 0x0 PUSH20 0xFFFFFFFFFFFFFFFFFFFFFFFFFFFFFFFFFFFFFFFF AND DUP2 PUSH20 0xFFFFFFFFFFFFFFFFFFFFFFFFFFFFFFFFFFFFFFFF AND EQ JUMPDEST PUSH2 0xA62 JUMPI PUSH1 0x40 MLOAD PUSH32 0x8C379A000000000000000000000000000000000000000000000000000000000 DUP2 MSTORE PUSH1 0x4 ADD PUSH2 0xA59 SWAP1 PUSH2 0x167C JUMP JUMPDEST PUSH1 0x40 MLOAD DUP1 SWAP2 SUB SWAP1 REVERT JUMPDEST PUSH0 PUSH32 0x0 PUSH20 0xFFFFFFFFFFFFFFFFFFFFFFFFFFFFFFFFFFFFFFFF AND DUP3 PUSH20 0xFFFFFFFFFFFFFFFFFFFFFFFFFFFFFFFFFFFFFFFF AND EQ PUSH2 0xADC JUMPI PUSH32 0x0 PUSH2 0xAFE JUMP JUMPDEST PUSH32 0x0 JUMPDEST SWAP1 POP PUSH0 PUSH2 0xB0B DUP5 DUP5 PUSH2 0xCB9 JUMP JUMPDEST SWAP1 POP PUSH0 DUP2 GT PUSH2 0xB4F JUMPI PUSH1 0x40 MLOAD PUSH32 0x8C379A000000000000000000000000000000000000000000000000000000000 DUP2 MSTORE PUSH1 0x4 ADD PUSH2 0xB46 SWAP1 PUSH2 0x16E4 JUMP JUMPDEST PUSH1 0x40 MLOAD DUP1 SWAP2 SUB SWAP1 REVERT JUMPDEST DUP3 PUSH20 0xFFFFFFFFFFFFFFFFFFFFFFFFFFFFFFFFFFFFFFFF AND PUSH4 0x23B872DD CALLER ADDRESS DUP8 PUSH1 0x40 MLOAD DUP5 PUSH4 0xFFFFFFFF AND PUSH1 0xE0 SHL DUP2 MSTORE PUSH1 0x4 ADD PUSH2 0xB8C SWAP4 SWAP3 SWAP2 SWAP1 PUSH2 0x14FA JUMP JUMPDEST PUSH1 0x20 PUSH1 0x40 MLOAD DUP1 DUP4 SUB DUP2 PUSH0 DUP8 GAS CALL ISZERO DUP1 ISZERO PUSH2 0xBA8 JUMPI RETURNDATASIZE PUSH0 PUSH0 RETURNDATACOPY RETURNDATASIZE PUSH0 REVERT JUMPDEST POP POP POP POP PUSH1 0x40 MLOAD RETURNDATASIZE PUSH1 0x1F NOT PUSH1 0x1F DUP3 ADD AND DUP3 ADD DUP1 PUSH1 0x40 MSTORE POP DUP2 ADD SWAP1 PUSH2 0xBCC SWAP2 SWAP1 PUSH2 0x1432 JUMP JUMPDEST POP DUP2 PUSH20 0xFFFFFFFFFFFFFFFFFFFFFFFFFFFFFFFFFFFFFFFF AND PUSH4 0xA9059CBB CALLER DUP4 PUSH1 0x40 MLOAD DUP4 PUSH4 0xFFFFFFFF AND PUSH1 0xE0 SHL DUP2 MSTORE PUSH1 0x4 ADD PUSH2 0xC08 SWAP3 SWAP2 SWAP1 PUSH2 0x13D6 JUMP JUMPDEST PUSH1 0x20 PUSH1 0x40 MLOAD DUP1 DUP4 SUB DUP2 PUSH0 DUP8 GAS CALL ISZERO DUP1 ISZERO PUSH2 0xC24 JUMPI RETURNDATASIZE PUSH0 PUSH0 RETURNDATACOPY RETURNDATASIZE PUSH0 REVERT JUMPDEST POP POP POP POP PUSH1 0x40 MLOAD RETURNDATASIZE PUSH1 0x1F NOT PUSH1 0x1F DUP3 ADD AND DUP3 ADD DUP1 PUSH1 0x40 MSTORE POP DUP2 ADD SWAP1 PUSH2 0xC48 SWAP2 SWAP1 PUSH2 0x1432 JUMP JUMPDEST POP PUSH2 0xC51 PUSH2 0xEB0 JUMP JUMPDEST CALLER PUSH20 0xFFFFFFFFFFFFFFFFFFFFFFFFFFFFFFFFFFFFFFFF AND PUSH32 0x692315744755EE6D80DECAEB993D4B1BB95FF5DB042CC47B32D5A7D858B01902 DUP5 DUP7 DUP6 DUP6 PUSH1 0x40 MLOAD PUSH2 0xC9D SWAP5 SWAP4 SWAP3 SWAP2 SWAP1 PUSH2 0x1702 JUMP JUMPDEST PUSH1 0x40 MLOAD DUP1 SWAP2 SUB SWAP1 LOG2 POP POP PUSH2 0xCAF PUSH2 0xFEE JUMP JUMPDEST POP POP JUMP JUMPDEST PUSH1 0x1 SLOAD DUP2 JUMP JUMPDEST PUSH0 PUSH32 0x0 PUSH20 0xFFFFFFFFFFFFFFFFFFFFFFFFFFFFFFFFFFFFFFFF AND DUP3 PUSH20 0xFFFFFFFFFFFFFFFFFFFFFFFFFFFFFFFFFFFFFFFF AND EQ DUP1 PUSH2 0xD5F JUMPI POP PUSH32 0x0 PUSH20 0xFFFFFFFFFFFFFFFFFFFFFFFFFFFFFFFFFFFFFFFF AND DUP3 PUSH20 0xFFFFFFFFFFFFFFFFFFFFFFFFFFFFFFFFFFFFFFFF AND EQ JUMPDEST PUSH2 0xD9E JUMPI PUSH1 0x40 MLOAD PUSH32 0x8C379A000000000000000000000000000000000000000000000000000000000 DUP2 MSTORE PUSH1 0x4 ADD PUSH2 0xD95 SWAP1 PUSH2 0x178F JUMP JUMPDEST PUSH1 0x40 MLOAD DUP1 SWAP2 SUB SWAP1 REVERT JUMPDEST PUSH0 PUSH32 0x0 PUSH20 0xFFFFFFFFFFFFFFFFFFFFFFFFFFFFFFFFFFFFFFFF AND DUP4 PUSH20 0xFFFFFFFFFFFFFFFFFFFFFFFFFFFFFFFFFFFFFFFF AND EQ SWAP1 POP PUSH0 PUSH0 DUP3 PUSH2 0xE02 JUMPI PUSH1 0x2 SLOAD PUSH1 0x1 SLOAD PUSH2 0xE09 JUMP JUMPDEST PUSH1 0x1 SLOAD PUSH1 0x2 SLOAD JUMPDEST SWAP2 POP SWAP2 POP PUSH0 PUSH2 0x3E5 DUP8 PUSH2 0xE1C SWAP2 SWAP1 PUSH2 0x1305 JUMP JUMPDEST SWAP1 POP PUSH0 DUP3 DUP3 PUSH2 0xE2B SWAP2 SWAP1 PUSH2 0x1305 JUMP JUMPDEST SWAP1 POP PUSH0 DUP3 PUSH2 0x3E8 DUP7 PUSH2 0xE3D SWAP2 SWAP1 PUSH2 0x1305 JUMP JUMPDEST PUSH2 0xE47 SWAP2 SWAP1 PUSH2 0x1597 JUMP JUMPDEST SWAP1 POP DUP1 DUP3 PUSH2 0xE55 SWAP2 SWAP1 PUSH2 0x1373 JUMP JUMPDEST SWAP7 POP POP POP POP POP POP POP SWAP3 SWAP2 POP POP JUMP JUMPDEST PUSH1 0x2 PUSH0 SLOAD SUB PUSH2 0xEA7 JUMPI PUSH1 0x40 MLOAD PUSH32 0x8C379A000000000000000000000000000000000000000000000000000000000 DUP2 MSTORE PUSH1 0x4 ADD PUSH2 0xE9E SWAP1 PUSH2 0x17F7 JUMP JUMPDEST PUSH1 0x40 MLOAD DUP1 SWAP2 SUB SWAP1 REVERT JUMPDEST PUSH1 0x2 PUSH0 DUP2 SWAP1 SSTORE POP JUMP JUMPDEST PUSH32 0x0 PUSH20 0xFFFFFFFFFFFFFFFFFFFFFFFFFFFFFFFFFFFFFFFF AND PUSH4 0x70A08231 ADDRESS PUSH1 0x40 MLOAD DUP3 PUSH4 0xFFFFFFFF AND PUSH1 0xE0 SHL DUP2 MSTORE PUSH1 0x4 ADD PUSH2 0xF09 SWAP2 SWAP1 PUSH2 0x1176 JUMP JUMPDEST PUSH1 0x20 PUSH1 0x40 MLOAD DUP1 DUP4 SUB DUP2 DUP7 GAS STATICCALL ISZERO DUP1 ISZERO PUSH2 0xF24 JUMPI RETURNDATASIZE PUSH0 PUSH0 RETURNDATACOPY RETURNDATASIZE PUSH0 REVERT JUMPDEST POP POP POP POP PUSH1 0x40 MLOAD RETURNDATASIZE PUSH1 0x1F NOT PUSH1 0x1F DUP3 ADD AND DUP3 ADD DUP1 PUSH1 0x40 MSTORE POP DUP2 ADD SWAP1 PUSH2 0xF48 SWAP2 SWAP1 PUSH2 0x1829 JUMP JUMPDEST PUSH1 0x1 DUP2 SWAP1 SSTORE POP PUSH32 0x0 PUSH20 0xFFFFFFFFFFFFFFFFFFFFFFFFFFFFFFFFFFFFFFFF AND PUSH4 0x70A08231 ADDRESS PUSH1 0x40 MLOAD DUP3 PUSH4 0xFFFFFFFF AND PUSH1 0xE0 SHL DUP2 MSTORE PUSH1 0x4 ADD PUSH2 0xFA7 SWAP2 SWAP1 PUSH2 0x1176 JUMP JUMPDEST PUSH1 0x20 PUSH1 0x40 MLOAD DUP1 DUP4 SUB DUP2 DUP7 GAS STATICCALL ISZERO DUP1 ISZERO PUSH2 0xFC2 JUMPI RETURNDATASIZE PUSH0 PUSH0 RETURNDATACOPY RETURNDATASIZE PUSH0 REVERT JUMPDEST POP POP POP POP PUSH1 0x40 MLOAD RETURNDATASIZE PUSH1 0x1F NOT PUSH1 0x1F DUP3 ADD AND DUP3 ADD DUP1 PUSH1 0x40 MSTORE POP DUP2 ADD SWAP1 PUSH2 0xFE6 SWAP2 SWAP1 PUSH2 0x1829 JUMP JUMPDEST PUSH1 0x2 DUP2 SWAP1 SSTORE POP JUMP JUMPDEST PUSH1 0x1 PUSH0 DUP2 SWAP1 SSTORE POP JUMP JUMPDEST PUSH0 PUSH1 0x3 DUP3 GT ISZERO PUSH2 0x105C JUMPI DUP2 SWAP1 POP PUSH0 PUSH1 0x1 PUSH1 0x2 DUP5 PUSH2 0x1014 SWAP2 SWAP1 PUSH2 0x1373 JUMP JUMPDEST PUSH2 0x101E SWAP2 SWAP1 PUSH2 0x1597 JUMP JUMPDEST SWAP1 POP JUMPDEST DUP2 DUP2 LT ISZERO PUSH2 0x1056 JUMPI DUP1 SWAP2 POP PUSH1 0x2 DUP2 DUP3 DUP6 PUSH2 0x103B SWAP2 SWAP1 PUSH2 0x1373 JUMP JUMPDEST PUSH2 0x1045 SWAP2 SWAP1 PUSH2 0x1597 JUMP JUMPDEST PUSH2 0x104F SWAP2 SWAP1 PUSH2 0x1373 JUMP JUMPDEST SWAP1 POP PUSH2 0x1021 JUMP JUMPDEST POP PUSH2 0x1069 JUMP JUMPDEST PUSH0 DUP3 EQ PUSH2 0x1068 JUMPI PUSH1 0x1 SWAP1 POP JUMPDEST JUMPDEST SWAP2 SWAP1 POP JUMP JUMPDEST PUSH0 DUP2 DUP4 LT PUSH2 0x107C JUMPI DUP2 PUSH2 0x107E JUMP JUMPDEST DUP3 JUMPDEST SWAP1 POP SWAP3 SWAP2 POP POP JUMP JUMPDEST PUSH0 DUP2 SWAP1 POP SWAP2 SWAP1 POP JUMP JUMPDEST PUSH2 0x1098 DUP2 PUSH2 0x1086 JUMP JUMPDEST DUP3 MSTORE POP POP JUMP JUMPDEST PUSH0 PUSH1 0x40 DUP3 ADD SWAP1 POP PUSH2 0x10B1 PUSH0 DUP4 ADD DUP6 PUSH2 0x108F JUMP JUMPDEST PUSH2 0x10BE PUSH1 0x20 DUP4 ADD DUP5 PUSH2 0x108F JUMP JUMPDEST SWAP4 SWAP3 POP POP POP JUMP JUMPDEST PUSH0 PUSH0 REVERT JUMPDEST PUSH0 PUSH20 0xFFFFFFFFFFFFFFFFFFFFFFFFFFFFFFFFFFFFFFFF DUP3 AND SWAP1 POP SWAP2 SWAP1 POP JUMP JUMPDEST PUSH0 PUSH2 0x10F2 DUP3 PUSH2 0x10C9 JUMP JUMPDEST SWAP1 POP SWAP2 SWAP1 POP JUMP JUMPDEST PUSH2 0x1102 DUP2 PUSH2 0x10E8 JUMP JUMPDEST DUP2 EQ PUSH2 0x110C JUMPI PUSH0 PUSH0 REVERT JUMPDEST POP JUMP JUMPDEST PUSH0 DUP2 CALLDATALOAD SWAP1 POP PUSH2 0x111D DUP2 PUSH2 0x10F9 JUMP JUMPDEST SWAP3 SWAP2 POP POP JUMP JUMPDEST PUSH0 PUSH1 0x20 DUP3 DUP5 SUB SLT ISZERO PUSH2 0x1138 JUMPI PUSH2 0x1137 PUSH2 0x10C5 JUMP JUMPDEST JUMPDEST PUSH0 PUSH2 0x1145 DUP5 DUP3 DUP6 ADD PUSH2 0x110F JUMP JUMPDEST SWAP2 POP POP SWAP3 SWAP2 POP POP JUMP JUMPDEST PUSH0 PUSH1 0x20 DUP3 ADD SWAP1 POP PUSH2 0x1161 PUSH0 DUP4 ADD DUP5 PUSH2 0x108F JUMP JUMPDEST SWAP3 SWAP2 POP POP JUMP JUMPDEST PUSH2 0x1170 DUP2 PUSH2 0x10E8 JUMP JUMPDEST DUP3 MSTORE POP POP JUMP JUMPDEST PUSH0 PUSH1 0x20 DUP3 ADD SWAP1 POP PUSH2 0x1189 PUSH0 DUP4 ADD DUP5 PUSH2 0x1167 JUMP JUMPDEST SWAP3 SWAP2 POP POP JUMP JUMPDEST PUSH2 0x1198 DUP2 PUSH2 0x1086 JUMP JUMPDEST DUP2 EQ PUSH2 0x11A2 JUMPI PUSH0 PUSH0 REVERT JUMPDEST POP JUMP JUMPDEST PUSH0 DUP2 CALLDATALOAD SWAP1 POP PUSH2 0x11B3 DUP2 PUSH2 0x118F JUMP JUMPDEST SWAP3 SWAP2 POP POP JUMP JUMPDEST PUSH0 PUSH1 0x20 DUP3 DUP5 SUB SLT ISZERO PUSH2 0x11CE JUMPI PUSH2 0x11CD PUSH2 0x10C5 JUMP JUMPDEST JUMPDEST PUSH0 PUSH2 0x11DB DUP5 DUP3 DUP6 ADD PUSH2 0x11A5 JUMP JUMPDEST SWAP2 POP POP SWAP3 SWAP2 POP POP JUMP JUMPDEST PUSH0 PUSH0 PUSH1 0x40 DUP4 DUP6 SUB SLT ISZERO PUSH2 0x11FA JUMPI PUSH2 0x11F9 PUSH2 0x10C5 JUMP JUMPDEST JUMPDEST PUSH0 PUSH2 0x1207 DUP6 DUP3 DUP7 ADD PUSH2 0x11A5 JUMP JUMPDEST SWAP3 POP POP PUSH1 0x20 PUSH2 0x1218 DUP6 DUP3 DUP7 ADD PUSH2 0x11A5 JUMP JUMPDEST SWAP2 POP POP SWAP3 POP SWAP3 SWAP1 POP JUMP JUMPDEST PUSH0 PUSH0 PUSH1 0x40 DUP4 DUP6 SUB SLT ISZERO PUSH2 0x1238 JUMPI PUSH2 0x1237 PUSH2 0x10C5 JUMP JUMPDEST JUMPDEST PUSH0 PUSH2 0x1245 DUP6 DUP3 DUP7 ADD PUSH2 0x11A5 JUMP JUMPDEST SWAP3 POP POP PUSH1 0x20 PUSH2 0x1256 DUP6 DUP3 DUP7 ADD PUSH2 0x110F JUMP JUMPDEST SWAP2 POP POP SWAP3 POP SWAP3 SWAP1 POP JUMP JUMPDEST PUSH0 DUP3 DUP3 MSTORE PUSH1 0x20 DUP3 ADD SWAP1 POP SWAP3 SWAP2 POP POP JUMP JUMPDEST PUSH32 0x496E76616C6964204C5020616D6F756E74000000000000000000000000000000 PUSH0 DUP3 ADD MSTORE POP JUMP JUMPDEST PUSH0 PUSH2 0x12A4 PUSH1 0x11 DUP4 PUSH2 0x1260 JUMP JUMPDEST SWAP2 POP PUSH2 0x12AF DUP3 PUSH2 0x1270 JUMP JUMPDEST PUSH1 0x20 DUP3 ADD SWAP1 POP SWAP2 SWAP1 POP JUMP JUMPDEST PUSH0 PUSH1 0x20 DUP3 ADD SWAP1 POP DUP2 DUP2 SUB PUSH0 DUP4 ADD MSTORE PUSH2 0x12D1 DUP2 PUSH2 0x1298 JUMP JUMPDEST SWAP1 POP SWAP2 SWAP1 POP JUMP JUMPDEST PUSH32 0x4E487B7100000000000000000000000000000000000000000000000000000000 PUSH0 MSTORE PUSH1 0x11 PUSH1 0x4 MSTORE PUSH1 0x24 PUSH0 REVERT JUMPDEST PUSH0 PUSH2 0x130F DUP3 PUSH2 0x1086 JUMP JUMPDEST SWAP2 POP PUSH2 0x131A DUP4 PUSH2 0x1086 JUMP JUMPDEST SWAP3 POP DUP3 DUP3 MUL PUSH2 0x1328 DUP2 PUSH2 0x1086 JUMP JUMPDEST SWAP2 POP DUP3 DUP3 DIV DUP5 EQ DUP4 ISZERO OR PUSH2 0x133F JUMPI PUSH2 0x133E PUSH2 0x12D8 JUMP JUMPDEST JUMPDEST POP SWAP3 SWAP2 POP POP JUMP JUMPDEST PUSH32 0x4E487B7100000000000000000000000000000000000000000000000000000000 PUSH0 MSTORE PUSH1 0x12 PUSH1 0x4 MSTORE PUSH1 0x24 PUSH0 REVERT JUMPDEST PUSH0 PUSH2 0x137D DUP3 PUSH2 0x1086 JUMP JUMPDEST SWAP2 POP PUSH2 0x1388 DUP4 PUSH2 0x1086 JUMP JUMPDEST SWAP3 POP DUP3 PUSH2 0x1398 JUMPI PUSH2 0x1397 PUSH2 0x1346 JUMP JUMPDEST JUMPDEST DUP3 DUP3 DIV SWAP1 POP SWAP3 SWAP2 POP POP JUMP JUMPDEST PUSH0 PUSH2 0x13AD DUP3 PUSH2 0x1086 JUMP JUMPDEST SWAP2 POP PUSH2 0x13B8 DUP4 PUSH2 0x1086 JUMP JUMPDEST SWAP3 POP DUP3 DUP3 SUB SWAP1 POP DUP2 DUP2 GT ISZERO PUSH2 0x13D0 JUMPI PUSH2 0x13CF PUSH2 0x12D8 JUMP JUMPDEST JUMPDEST SWAP3 SWAP2 POP POP JUMP JUMPDEST PUSH0 PUSH1 0x40 DUP3 ADD SWAP1 POP PUSH2 0x13E9 PUSH0 DUP4 ADD DUP6 PUSH2 0x1167 JUMP JUMPDEST PUSH2 0x13F6 PUSH1 0x20 DUP4 ADD DUP5 PUSH2 0x108F JUMP JUMPDEST SWAP4 SWAP3 POP POP POP JUMP JUMPDEST PUSH0 DUP2 ISZERO ISZERO SWAP1 POP SWAP2 SWAP1 POP JUMP JUMPDEST PUSH2 0x1411 DUP2 PUSH2 0x13FD JUMP JUMPDEST DUP2 EQ PUSH2 0x141B JUMPI PUSH0 PUSH0 REVERT JUMPDEST POP JUMP JUMPDEST PUSH0 DUP2 MLOAD SWAP1 POP PUSH2 0x142C DUP2 PUSH2 0x1408 JUMP JUMPDEST SWAP3 SWAP2 POP POP JUMP JUMPDEST PUSH0 PUSH1 0x20 DUP3 DUP5 SUB SLT ISZERO PUSH2 0x1447 JUMPI PUSH2 0x1446 PUSH2 0x10C5 JUMP JUMPDEST JUMPDEST PUSH0 PUSH2 0x1454 DUP5 DUP3 DUP6 ADD PUSH2 0x141E JUMP JUMPDEST SWAP2 POP POP SWAP3 SWAP2 POP POP JUMP JUMPDEST PUSH0 PUSH1 0x60 DUP3 ADD SWAP1 POP PUSH2 0x1470 PUSH0 DUP4 ADD DUP7 PUSH2 0x108F JUMP JUMPDEST PUSH2 0x147D PUSH1 0x20 DUP4 ADD DUP6 PUSH2 0x108F JUMP JUMPDEST PUSH2 0x148A PUSH1 0x40 DUP4 ADD DUP5 PUSH2 0x108F JUMP JUMPDEST SWAP5 SWAP4 POP POP POP POP JUMP JUMPDEST PUSH32 0x496E76616C696420616D6F756E74730000000000000000000000000000000000 PUSH0 DUP3 ADD MSTORE POP JUMP JUMPDEST PUSH0 PUSH2 0x14C6 PUSH1 0xF DUP4 PUSH2 0x1260 JUMP JUMPDEST SWAP2 POP PUSH2 0x14D1 DUP3 PUSH2 0x1492 JUMP JUMPDEST PUSH1 0x20 DUP3 ADD SWAP1 POP SWAP2 SWAP1 POP JUMP JUMPDEST PUSH0 PUSH1 0x20 DUP3 ADD SWAP1 POP DUP2 DUP2 SUB PUSH0 DUP4 ADD MSTORE PUSH2 0x14F3 DUP2 PUSH2 0x14BA JUMP JUMPDEST SWAP1 POP SWAP2 SWAP1 POP JUMP JUMPDEST PUSH0 PUSH1 0x60 DUP3 ADD SWAP1 POP PUSH2 0x150D PUSH0 DUP4 ADD DUP7 PUSH2 0x1167 JUMP JUMPDEST PUSH2 0x151A PUSH1 0x20 DUP4 ADD DUP6 PUSH2 0x1167 JUMP JUMPDEST PUSH2 0x1527 PUSH1 0x40 DUP4 ADD DUP5 PUSH2 0x108F JUMP JUMPDEST SWAP5 SWAP4 POP POP POP POP JUMP JUMPDEST PUSH32 0x5A65726F204C50206D696E746564000000000000000000000000000000000000 PUSH0 DUP3 ADD MSTORE POP JUMP JUMPDEST PUSH0 PUSH2 0x1563 PUSH1 0xE DUP4 PUSH2 0x1260 JUMP JUMPDEST SWAP2 POP PUSH2 0x156E DUP3 PUSH2 0x152F JUMP JUMPDEST PUSH1 0x20 DUP3 ADD SWAP1 POP SWAP2 SWAP1 POP JUMP JUMPDEST PUSH0 PUSH1 0x20 DUP3 ADD SWAP1 POP DUP2 DUP2 SUB PUSH0 DUP4 ADD MSTORE PUSH2 0x1590 DUP2 PUSH2 0x1557 JUMP JUMPDEST SWAP1 POP SWAP2 SWAP1 POP JUMP JUMPDEST PUSH0 PUSH2 0x15A1 DUP3 PUSH2 0x1086 JUMP JUMPDEST SWAP2 POP PUSH2 0x15AC DUP4 PUSH2 0x1086 JUMP JUMPDEST SWAP3 POP DUP3 DUP3 ADD SWAP1 POP DUP1 DUP3 GT ISZERO PUSH2 0x15C4 JUMPI PUSH2 0x15C3 PUSH2 0x12D8 JUMP JUMPDEST JUMPDEST SWAP3 SWAP2 POP POP JUMP JUMPDEST PUSH32 0x5A65726F20696E70757400000000000000000000000000000000000000000000 PUSH0 DUP3 ADD MSTORE POP JUMP JUMPDEST PUSH0 PUSH2 0x15FE PUSH1 0xA DUP4 PUSH2 0x1260 JUMP JUMPDEST SWAP2 POP PUSH2 0x1609 DUP3 PUSH2 0x15CA JUMP JUMPDEST PUSH1 0x20 DUP3 ADD SWAP1 POP SWAP2 SWAP1 POP JUMP JUMPDEST PUSH0 PUSH1 0x20 DUP3 ADD SWAP1 POP DUP2 DUP2 SUB PUSH0 DUP4 ADD MSTORE PUSH2 0x162B DUP2 PUSH2 0x15F2 JUMP JUMPDEST SWAP1 POP SWAP2 SWAP1 POP JUMP JUMPDEST PUSH32 0x496E76616C696420746F6B656E00000000000000000000000000000000000000 PUSH0 DUP3 ADD MSTORE POP JUMP JUMPDEST PUSH0 PUSH2 0x1666 PUSH1 0xD DUP4 PUSH2 0x1260 JUMP JUMPDEST SWAP2 POP PUSH2 0x1671 DUP3 PUSH2 0x1632 JUMP JUMPDEST PUSH1 0x20 DUP3 ADD SWAP1 POP SWAP2 SWAP1 POP JUMP JUMPDEST PUSH0 PUSH1 0x20 DUP3 ADD SWAP1 POP DUP2 DUP2 SUB PUSH0 DUP4 ADD MSTORE PUSH2 0x1693 DUP2 PUSH2 0x165A JUMP JUMPDEST SWAP1 POP SWAP2 SWAP1 POP JUMP JUMPDEST PUSH32 0x496E73756666696369656E74206F757470757400000000000000000000000000 PUSH0 DUP3 ADD MSTORE POP JUMP JUMPDEST PUSH0 PUSH2 0x16CE PUSH1 0x13 DUP4 PUSH2 0x1260 JUMP JUMPDEST SWAP2 POP PUSH2 0x16D9 DUP3 PUSH2 0x169A JUMP JUMPDEST PUSH1 0x20 DUP3 ADD SWAP1 POP SWAP2 SWAP1 POP JUMP JUMPDEST PUSH0 PUSH1 0x20 DUP3 ADD SWAP1 POP DUP2 DUP2 SUB PUSH0 DUP4 ADD MSTORE PUSH2 0x16FB DUP2 PUSH2 0x16C2 JUMP JUMPDEST SWAP1 POP SWAP2 SWAP1 POP JUMP JUMPDEST PUSH0 PUSH1 0x80 DUP3 ADD SWAP1 POP PUSH2 0x1715 PUSH0 DUP4 ADD DUP8 PUSH2 0x1167 JUMP JUMPDEST PUSH2 0x1722 PUSH1 0x20 DUP4 ADD DUP7 PUSH2 0x108F JUMP JUMPDEST PUSH2 0x172F PUSH1 0x40 DUP4 ADD DUP6 PUSH2 0x1167 JUMP JUMPDEST PUSH2 0x173C PUSH1 0x60 DUP4 ADD DUP5 PUSH2 0x108F JUMP JUMPDEST SWAP6 SWAP5 POP POP POP POP POP JUMP JUMPDEST PUSH32 0x496E76616C696420696E70757420746F6B656E00000000000000000000000000 PUSH0 DUP3 ADD MSTORE POP JUMP JUMPDEST PUSH0 PUSH2 0x1779 PUSH1 0x13 DUP4 PUSH2 0x1260 JUMP JUMPDEST SWAP2 POP PUSH2 0x1784 DUP3 PUSH2 0x1745 JUMP JUMPDEST PUSH1 0x20 DUP3 ADD SWAP1 POP SWAP2 SWAP1 POP JUMP JUMPDEST PUSH0 PUSH1 0x20 DUP3 ADD SWAP1 POP DUP2 DUP2 SUB PUSH0 DUP4 ADD MSTORE PUSH2 0x17A6 DUP2 PUSH2 0x176D JUMP JUMPDEST SWAP1 POP SWAP2 SWAP1 POP JUMP JUMPDEST PUSH32 0x5265656E7472616E637947756172643A207265656E7472616E742063616C6C00 PUSH0 DUP3 ADD MSTORE POP JUMP JUMPDEST PUSH0 PUSH2 0x17E1 PUSH1 0x1F DUP4 PUSH2 0x1260 JUMP JUMPDEST SWAP2 POP PUSH2 0x17EC DUP3 PUSH2 0x17AD JUMP JUMPDEST PUSH1 0x20 DUP3 ADD SWAP1 POP SWAP2 SWAP1 POP JUMP JUMPDEST PUSH0 PUSH1 0x20 DUP3 ADD SWAP1 POP DUP2 DUP2 SUB PUSH0 DUP4 ADD MSTORE PUSH2 0x180E DUP2 PUSH2 0x17D5 JUMP JUMPDEST SWAP1 POP SWAP2 SWAP1 POP JUMP JUMPDEST PUSH0 DUP2 MLOAD SWAP1 POP PUSH2 0x1823 DUP2 PUSH2 0x118F JUMP JUMPDEST SWAP3 SWAP2 POP POP JUMP JUMPDEST PUSH0 PUSH1 0x20 DUP3 DUP5 SUB SLT ISZERO PUSH2 0x183E JUMPI PUSH2 0x183D PUSH2 0x10C5 JUMP JUMPDEST JUMPDEST PUSH0 PUSH2 0x184B DUP5 DUP3 DUP6 ADD PUSH2 0x1815 JUMP JUMPDEST SWAP2 POP POP SWAP3 SWAP2 POP POP JUMP INVALID LOG2 PUSH5 0x6970667358 0x22 SLT KECCAK256 GASPRICE SWAP15 0xBC GAS 0x2B EXTCODECOPY 0xDC SWAP9 SWAP6 KECCAK256 GAS 0xDF GASPRICE 0xD0 0xF 0x4F 0xA6 0xC0 EXTCODECOPY JUMPI GASLIMIT 0xD9 0xB0 0x2B 0xBF EXTSTATICCALL PUSH16 0xD9C1FE50B364736F6C634300081E0033 "
				},
				"gasEstimates": {
					"creation": {
						"codeDepositCost": "1256400",
						"executionCost": "infinite",
						"totalCost": "infinite"
					},
					"external": {
						"addLiquidity(uint256,uint256)": "infinite",
						"getAmountOut(uint256,address)": "infinite",
						"getLPBalance(address)": "2851",
						"getReserves()": "infinite",
						"getTotalLPSupply()": "2477",
						"lpBalances(address)": "2825",
						"removeLiquidity(uint256)": "infinite",
						"reserveA()": "2491",
						"reserveB()": "2492",
						"swap(uint256,address)": "infinite",
						"tokenA()": "infinite",
						"tokenB()": "infinite",
						"totalLPSupply()": "2492"
					},
					"internal": {
						"_updateReserves()": "infinite",
						"min(uint256,uint256)": "63",
						"sqrt(uint256)": "infinite"
					}
				},
				"methodIdentifiers": {
					"addLiquidity(uint256,uint256)": "9cd441da",
					"getAmountOut(uint256,address)": "f140a35a",
					"getLPBalance(address)": "d2258beb",
					"getReserves()": "0902f1ac",
					"getTotalLPSupply()": "b7e5dcee",
					"lpBalances(address)": "0b65092d",
					"removeLiquidity(uint256)": "9c8f9f23",
					"reserveA()": "dc5fa6c5",
					"reserveB()": "19e36f3b",
					"swap(uint256,address)": "d3986f08",
					"tokenA()": "0fc63d10",
					"tokenB()": "5f64b55b",
					"totalLPSupply()": "d1a86711"
				}
			},
			"storageLayout": {
				"storage": [
					{
						"astId": 10,
						"contract": "submissions/Zora/Day30MiniDexPair.sol:MiniDexPair",
						"label": "_status",
						"offset": 0,
						"slot": "0",
						"type": "t_uint256"
					},
					{
						"astId": 154,
						"contract": "submissions/Zora/Day30MiniDexPair.sol:MiniDexPair",
						"label": "reserveA",
						"offset": 0,
						"slot": "1",
						"type": "t_uint256"
					},
					{
						"astId": 156,
						"contract": "submissions/Zora/Day30MiniDexPair.sol:MiniDexPair",
						"label": "reserveB",
						"offset": 0,
						"slot": "2",
						"type": "t_uint256"
					},
					{
						"astId": 158,
						"contract": "submissions/Zora/Day30MiniDexPair.sol:MiniDexPair",
						"label": "totalLPSupply",
						"offset": 0,
						"slot": "3",
						"type": "t_uint256"
					},
					{
						"astId": 162,
						"contract": "submissions/Zora/Day30MiniDexPair.sol:MiniDexPair",
						"label": "lpBalances",
						"offset": 0,
						"slot": "4",
						"type": "t_mapping(t_address,t_uint256)"
					}
				],
				"types": {
					"t_address": {
						"encoding": "inplace",
						"label": "address",
						"numberOfBytes": "20"
					},
					"t_mapping(t_address,t_uint256)": {
						"encoding": "mapping",
						"key": "t_address",
						"label": "mapping(address => uint256)",
						"numberOfBytes": "32",
						"value": "t_uint256"
					},
					"t_uint256": {
						"encoding": "inplace",
						"label": "uint256",
						"numberOfBytes": "32"
					}
				}
			},
			"userdoc": {
				"kind": "user",
				"methods": {},
				"version": 1
			}
		}
	}
}