{
	"submissions/Zora/BasicDepositBox.sol": {
		"BasicDepositBox": {
			"abi": [
				{
					"anonymous": false,
					"inputs": [
						{
							"indexed": true,
							"internalType": "address",
							"name": "previousOwner",
							"type": "address"
						},
						{
							"indexed": true,
							"internalType": "address",
							"name": "newOwner",
							"type": "address"
						}
					],
					"name": "OwnershipTransferred",
					"type": "event"
				},
				{
					"anonymous": false,
					"inputs": [
						{
							"indexed": true,
							"internalType": "address",
							"name": "owner",
							"type": "address"
						}
					],
					"name": "SecretStored",
					"type": "event"
				},
				{
					"inputs": [],
					"name": "getBoxType",
					"outputs": [
						{
							"internalType": "string",
							"name": "",
							"type": "string"
						}
					],
					"stateMutability": "pure",
					"type": "function"
				},
				{
					"inputs": [],
					"name": "getDepositTime",
					"outputs": [
						{
							"internalType": "uint256",
							"name": "",
							"type": "uint256"
						}
					],
					"stateMutability": "view",
					"type": "function"
				},
				{
					"inputs": [],
					"name": "getOwner",
					"outputs": [
						{
							"internalType": "address",
							"name": "",
							"type": "address"
						}
					],
					"stateMutability": "view",
					"type": "function"
				},
				{
					"inputs": [],
					"name": "getSecret",
					"outputs": [
						{
							"internalType": "string",
							"name": "",
							"type": "string"
						}
					],
					"stateMutability": "view",
					"type": "function"
				},
				{
					"inputs": [
						{
							"internalType": "string",
							"name": "_secret",
							"type": "string"
						}
					],
					"name": "storeSecret",
					"outputs": [],
					"stateMutability": "nonpayable",
					"type": "function"
				},
				{
					"inputs": [
						{
							"internalType": "address",
							"name": "newOwner",
							"type": "address"
						}
					],
					"name": "transferOwnership",
					"outputs": [],
					"stateMutability": "nonpayable",
					"type": "function"
				}
			],
			"devdoc": {
				"kind": "dev",
				"methods": {},
				"version": 1
			},
			"evm": {
				"assembly": "    /* \"submissions/Zora/BasicDepositBox.sol\":94:253  contract BasicDepositBox is BaseDepositBox{... */\n  mstore(0x40, 0x80)\n  callvalue\n  dup1\n  iszero\n  tag_1\n  jumpi\n  revert(0x00, 0x00)\ntag_1:\n  pop\n    /* \"submissions/Zora/BaseDepositBox.sol\":525:535  msg.sender */\n  caller\n    /* \"submissions/Zora/BaseDepositBox.sol\":517:522  owner */\n  0x00\n  0x00\n    /* \"submissions/Zora/BaseDepositBox.sol\":517:535  owner = msg.sender */\n  0x0100\n  exp\n  dup2\n  sload\n  dup2\n  0xffffffffffffffffffffffffffffffffffffffff\n  mul\n  not\n  and\n  swap1\n  dup4\n  0xffffffffffffffffffffffffffffffffffffffff\n  and\n  mul\n  or\n  swap1\n  sstore\n  pop\n    /* \"submissions/Zora/BaseDepositBox.sol\":560:575  block.timestamp */\n  timestamp\n    /* \"submissions/Zora/BaseDepositBox.sol\":546:557  depositTime */\n  0x02\n    /* \"submissions/Zora/BaseDepositBox.sol\":546:575  depositTime = block.timestamp */\n  dup2\n  swap1\n  sstore\n  pop\n    /* \"submissions/Zora/BasicDepositBox.sol\":94:253  contract BasicDepositBox is BaseDepositBox{... */\n  dataSize(sub_0)\n  dup1\n  dataOffset(sub_0)\n  0x00\n  codecopy\n  0x00\n  return\nstop\n\nsub_0: assembly {\n        /* \"submissions/Zora/BasicDepositBox.sol\":94:253  contract BasicDepositBox is BaseDepositBox{... */\n      mstore(0x40, 0x80)\n      callvalue\n      dup1\n      iszero\n      tag_1\n      jumpi\n      revert(0x00, 0x00)\n    tag_1:\n      pop\n      jumpi(tag_2, lt(calldatasize, 0x04))\n      shr(0xe0, calldataload(0x00))\n      dup1\n      0x04199139\n      eq\n      tag_3\n      jumpi\n      dup1\n      0x51811f04\n      eq\n      tag_4\n      jumpi\n      dup1\n      0x5b9fdc30\n      eq\n      tag_5\n      jumpi\n      dup1\n      0x893d20e8\n      eq\n      tag_6\n      jumpi\n      dup1\n      0xa14ab9f8\n      eq\n      tag_7\n      jumpi\n      dup1\n      0xf2fde38b\n      eq\n      tag_8\n      jumpi\n    tag_2:\n      revert(0x00, 0x00)\n        /* \"submissions/Zora/BasicDepositBox.sol\":143:244  function getBoxType() external pure override returns (string memory){... */\n    tag_3:\n      tag_9\n      tag_10\n      jump\t// in\n    tag_9:\n      mload(0x40)\n      tag_11\n      swap2\n      swap1\n      tag_12\n      jump\t// in\n    tag_11:\n      mload(0x40)\n      dup1\n      swap2\n      sub\n      swap1\n      return\n        /* \"submissions/Zora/BaseDepositBox.sol\":1231:1343  function getDepositTime() external view virtual override returns (uint256) {... */\n    tag_4:\n      tag_13\n      tag_14\n      jump\t// in\n    tag_13:\n      mload(0x40)\n      tag_15\n      swap2\n      swap1\n      tag_16\n      jump\t// in\n    tag_15:\n      mload(0x40)\n      dup1\n      swap2\n      sub\n      swap1\n      return\n        /* \"submissions/Zora/BaseDepositBox.sol\":1107:1223  function getSecret() public view virtual override onlyOwner returns (string memory) {... */\n    tag_5:\n      tag_17\n      tag_18\n      jump\t// in\n    tag_17:\n      mload(0x40)\n      tag_19\n      swap2\n      swap1\n      tag_12\n      jump\t// in\n    tag_19:\n      mload(0x40)\n      dup1\n      swap2\n      sub\n      swap1\n      return\n        /* \"submissions/Zora/BaseDepositBox.sol\":591:681  function getOwner() public view override returns (address) {... */\n    tag_6:\n      tag_20\n      tag_21\n      jump\t// in\n    tag_20:\n      mload(0x40)\n      tag_22\n      swap2\n      swap1\n      tag_23\n      jump\t// in\n    tag_22:\n      mload(0x40)\n      dup1\n      swap2\n      sub\n      swap1\n      return\n        /* \"submissions/Zora/BaseDepositBox.sol\":943:1099  function storeSecret(string calldata _secret) external virtual override onlyOwner{... */\n    tag_7:\n      tag_24\n      0x04\n      dup1\n      calldatasize\n      sub\n      dup2\n      add\n      swap1\n      tag_25\n      swap2\n      swap1\n      tag_26\n      jump\t// in\n    tag_25:\n      tag_27\n      jump\t// in\n    tag_24:\n      stop\n        /* \"submissions/Zora/BaseDepositBox.sol\":689:935  function transferOwnership(address newOwner) external virtual override onlyOwner{... */\n    tag_8:\n      tag_28\n      0x04\n      dup1\n      calldatasize\n      sub\n      dup2\n      add\n      swap1\n      tag_29\n      swap2\n      swap1\n      tag_30\n      jump\t// in\n    tag_29:\n      tag_31\n      jump\t// in\n    tag_28:\n      stop\n        /* \"submissions/Zora/BasicDepositBox.sol\":143:244  function getBoxType() external pure override returns (string memory){... */\n    tag_10:\n        /* \"submissions/Zora/BasicDepositBox.sol\":197:210  string memory */\n      0x60\n        /* \"submissions/Zora/BasicDepositBox.sol\":222:236  return \"Basic\" */\n      mload(0x40)\n      dup1\n      0x40\n      add\n      0x40\n      mstore\n      dup1\n      0x05\n      dup2\n      mstore\n      0x20\n      add\n      0x4261736963000000000000000000000000000000000000000000000000000000\n      dup2\n      mstore\n      pop\n      swap1\n      pop\n        /* \"submissions/Zora/BasicDepositBox.sol\":143:244  function getBoxType() external pure override returns (string memory){... */\n      swap1\n      jump\t// out\n        /* \"submissions/Zora/BaseDepositBox.sol\":1231:1343  function getDepositTime() external view virtual override returns (uint256) {... */\n    tag_14:\n        /* \"submissions/Zora/BaseDepositBox.sol\":1297:1304  uint256 */\n      0x00\n        /* \"submissions/Zora/BaseDepositBox.sol\":1324:1335  depositTime */\n      sload(0x02)\n        /* \"submissions/Zora/BaseDepositBox.sol\":1317:1335  return depositTime */\n      swap1\n      pop\n        /* \"submissions/Zora/BaseDepositBox.sol\":1231:1343  function getDepositTime() external view virtual override returns (uint256) {... */\n      swap1\n      jump\t// out\n        /* \"submissions/Zora/BaseDepositBox.sol\":1107:1223  function getSecret() public view virtual override onlyOwner returns (string memory) {... */\n    tag_18:\n        /* \"submissions/Zora/BaseDepositBox.sol\":1176:1189  string memory */\n      0x60\n        /* \"submissions/Zora/BaseDepositBox.sol\":437:442  owner */\n      0x00\n      0x00\n      swap1\n      sload\n      swap1\n      0x0100\n      exp\n      swap1\n      div\n      0xffffffffffffffffffffffffffffffffffffffff\n      and\n        /* \"submissions/Zora/BaseDepositBox.sol\":423:442  msg.sender == owner */\n      0xffffffffffffffffffffffffffffffffffffffff\n      and\n        /* \"submissions/Zora/BaseDepositBox.sol\":423:433  msg.sender */\n      caller\n        /* \"submissions/Zora/BaseDepositBox.sol\":423:442  msg.sender == owner */\n      0xffffffffffffffffffffffffffffffffffffffff\n      and\n      eq\n        /* \"submissions/Zora/BaseDepositBox.sol\":415:464  require(msg.sender == owner, \"Not the box owner\") */\n      tag_35\n      jumpi\n      mload(0x40)\n      0x08c379a000000000000000000000000000000000000000000000000000000000\n      dup2\n      mstore\n      0x04\n      add\n      tag_36\n      swap1\n      tag_37\n      jump\t// in\n    tag_36:\n      mload(0x40)\n      dup1\n      swap2\n      sub\n      swap1\n      revert\n    tag_35:\n        /* \"submissions/Zora/BaseDepositBox.sol\":1209:1215  secret */\n      0x01\n        /* \"submissions/Zora/BaseDepositBox.sol\":1202:1215  return secret */\n      dup1\n      sload\n      tag_39\n      swap1\n      tag_40\n      jump\t// in\n    tag_39:\n      dup1\n      0x1f\n      add\n      0x20\n      dup1\n      swap2\n      div\n      mul\n      0x20\n      add\n      mload(0x40)\n      swap1\n      dup2\n      add\n      0x40\n      mstore\n      dup1\n      swap3\n      swap2\n      swap1\n      dup2\n      dup2\n      mstore\n      0x20\n      add\n      dup3\n      dup1\n      sload\n      tag_41\n      swap1\n      tag_40\n      jump\t// in\n    tag_41:\n      dup1\n      iszero\n      tag_42\n      jumpi\n      dup1\n      0x1f\n      lt\n      tag_43\n      jumpi\n      0x0100\n      dup1\n      dup4\n      sload\n      div\n      mul\n      dup4\n      mstore\n      swap2\n      0x20\n      add\n      swap2\n      jump(tag_42)\n    tag_43:\n      dup3\n      add\n      swap2\n      swap1\n      0x00\n      mstore\n      keccak256(0x00, 0x20)\n      swap1\n    tag_44:\n      dup2\n      sload\n      dup2\n      mstore\n      swap1\n      0x01\n      add\n      swap1\n      0x20\n      add\n      dup1\n      dup4\n      gt\n      tag_44\n      jumpi\n      dup3\n      swap1\n      sub\n      0x1f\n      and\n      dup3\n      add\n      swap2\n    tag_42:\n      pop\n      pop\n      pop\n      pop\n      pop\n      swap1\n      pop\n        /* \"submissions/Zora/BaseDepositBox.sol\":1107:1223  function getSecret() public view virtual override onlyOwner returns (string memory) {... */\n      swap1\n      jump\t// out\n        /* \"submissions/Zora/BaseDepositBox.sol\":591:681  function getOwner() public view override returns (address) {... */\n    tag_21:\n        /* \"submissions/Zora/BaseDepositBox.sol\":641:648  address */\n      0x00\n        /* \"submissions/Zora/BaseDepositBox.sol\":668:673  owner */\n      0x00\n      0x00\n      swap1\n      sload\n      swap1\n      0x0100\n      exp\n      swap1\n      div\n      0xffffffffffffffffffffffffffffffffffffffff\n      and\n        /* \"submissions/Zora/BaseDepositBox.sol\":661:673  return owner */\n      swap1\n      pop\n        /* \"submissions/Zora/BaseDepositBox.sol\":591:681  function getOwner() public view override returns (address) {... */\n      swap1\n      jump\t// out\n        /* \"submissions/Zora/BaseDepositBox.sol\":943:1099  function storeSecret(string calldata _secret) external virtual override onlyOwner{... */\n    tag_27:\n        /* \"submissions/Zora/BaseDepositBox.sol\":437:442  owner */\n      0x00\n      0x00\n      swap1\n      sload\n      swap1\n      0x0100\n      exp\n      swap1\n      div\n      0xffffffffffffffffffffffffffffffffffffffff\n      and\n        /* \"submissions/Zora/BaseDepositBox.sol\":423:442  msg.sender == owner */\n      0xffffffffffffffffffffffffffffffffffffffff\n      and\n        /* \"submissions/Zora/BaseDepositBox.sol\":423:433  msg.sender */\n      caller\n        /* \"submissions/Zora/BaseDepositBox.sol\":423:442  msg.sender == owner */\n      0xffffffffffffffffffffffffffffffffffffffff\n      and\n      eq\n        /* \"submissions/Zora/BaseDepositBox.sol\":415:464  require(msg.sender == owner, \"Not the box owner\") */\n      tag_47\n      jumpi\n      mload(0x40)\n      0x08c379a000000000000000000000000000000000000000000000000000000000\n      dup2\n      mstore\n      0x04\n      add\n      tag_48\n      swap1\n      tag_37\n      jump\t// in\n    tag_48:\n      mload(0x40)\n      dup1\n      swap2\n      sub\n      swap1\n      revert\n    tag_47:\n        /* \"submissions/Zora/BaseDepositBox.sol\":1044:1051  _secret */\n      dup2\n      dup2\n        /* \"submissions/Zora/BaseDepositBox.sol\":1035:1041  secret */\n      0x01\n        /* \"submissions/Zora/BaseDepositBox.sol\":1035:1051  secret = _secret */\n      swap2\n      dup3\n      tag_50\n      swap3\n      swap2\n      swap1\n      tag_51\n      jump\t// in\n    tag_50:\n      pop\n        /* \"submissions/Zora/BaseDepositBox.sol\":1080:1090  msg.sender */\n      caller\n        /* \"submissions/Zora/BaseDepositBox.sol\":1067:1091  SecretStored(msg.sender) */\n      0xffffffffffffffffffffffffffffffffffffffff\n      and\n      0x0977f4c93d6a66455eb4f1467e8a01fec7c62b1ce20353fb51b7269712e11967\n      mload(0x40)\n      mload(0x40)\n      dup1\n      swap2\n      sub\n      swap1\n      log2\n        /* \"submissions/Zora/BaseDepositBox.sol\":943:1099  function storeSecret(string calldata _secret) external virtual override onlyOwner{... */\n      pop\n      pop\n      jump\t// out\n        /* \"submissions/Zora/BaseDepositBox.sol\":689:935  function transferOwnership(address newOwner) external virtual override onlyOwner{... */\n    tag_31:\n        /* \"submissions/Zora/BaseDepositBox.sol\":437:442  owner */\n      0x00\n      0x00\n      swap1\n      sload\n      swap1\n      0x0100\n      exp\n      swap1\n      div\n      0xffffffffffffffffffffffffffffffffffffffff\n      and\n        /* \"submissions/Zora/BaseDepositBox.sol\":423:442  msg.sender == owner */\n      0xffffffffffffffffffffffffffffffffffffffff\n      and\n        /* \"submissions/Zora/BaseDepositBox.sol\":423:433  msg.sender */\n      caller\n        /* \"submissions/Zora/BaseDepositBox.sol\":423:442  msg.sender == owner */\n      0xffffffffffffffffffffffffffffffffffffffff\n      and\n      eq\n        /* \"submissions/Zora/BaseDepositBox.sol\":415:464  require(msg.sender == owner, \"Not the box owner\") */\n      tag_53\n      jumpi\n      mload(0x40)\n      0x08c379a000000000000000000000000000000000000000000000000000000000\n      dup2\n      mstore\n      0x04\n      add\n      tag_54\n      swap1\n      tag_37\n      jump\t// in\n    tag_54:\n      mload(0x40)\n      dup1\n      swap2\n      sub\n      swap1\n      revert\n    tag_53:\n        /* \"submissions/Zora/BaseDepositBox.sol\":808:809  0 */\n      0x00\n        /* \"submissions/Zora/BaseDepositBox.sol\":788:810  newOwner != address(0) */\n      0xffffffffffffffffffffffffffffffffffffffff\n      and\n        /* \"submissions/Zora/BaseDepositBox.sol\":788:796  newOwner */\n      dup2\n        /* \"submissions/Zora/BaseDepositBox.sol\":788:810  newOwner != address(0) */\n      0xffffffffffffffffffffffffffffffffffffffff\n      and\n      sub\n        /* \"submissions/Zora/BaseDepositBox.sol\":780:847  require(newOwner != address(0), \"New owner cannot be zero address\") */\n      tag_56\n      jumpi\n      mload(0x40)\n      0x08c379a000000000000000000000000000000000000000000000000000000000\n      dup2\n      mstore\n      0x04\n      add\n      tag_57\n      swap1\n      tag_58\n      jump\t// in\n    tag_57:\n      mload(0x40)\n      dup1\n      swap2\n      sub\n      swap1\n      revert\n    tag_56:\n        /* \"submissions/Zora/BaseDepositBox.sol\":891:899  newOwner */\n      dup1\n        /* \"submissions/Zora/BaseDepositBox.sol\":863:900  OwnershipTransferred(owner, newOwner) */\n      0xffffffffffffffffffffffffffffffffffffffff\n      and\n        /* \"submissions/Zora/BaseDepositBox.sol\":884:889  owner */\n      0x00\n      0x00\n      swap1\n      sload\n      swap1\n      0x0100\n      exp\n      swap1\n      div\n      0xffffffffffffffffffffffffffffffffffffffff\n      and\n        /* \"submissions/Zora/BaseDepositBox.sol\":863:900  OwnershipTransferred(owner, newOwner) */\n      0xffffffffffffffffffffffffffffffffffffffff\n      and\n      0x8be0079c531659141344cd1fd0a4f28419497f9722a3daafe3b4186f6b6457e0\n      mload(0x40)\n      mload(0x40)\n      dup1\n      swap2\n      sub\n      swap1\n      log3\n        /* \"submissions/Zora/BaseDepositBox.sol\":919:927  newOwner */\n      dup1\n        /* \"submissions/Zora/BaseDepositBox.sol\":911:916  owner */\n      0x00\n      0x00\n        /* \"submissions/Zora/BaseDepositBox.sol\":911:927  owner = newOwner */\n      0x0100\n      exp\n      dup2\n      sload\n      dup2\n      0xffffffffffffffffffffffffffffffffffffffff\n      mul\n      not\n      and\n      swap1\n      dup4\n      0xffffffffffffffffffffffffffffffffffffffff\n      and\n      mul\n      or\n      swap1\n      sstore\n      pop\n        /* \"submissions/Zora/BaseDepositBox.sol\":689:935  function transferOwnership(address newOwner) external virtual override onlyOwner{... */\n      pop\n      jump\t// out\n        /* \"#utility.yul\":7:106   */\n    tag_59:\n        /* \"#utility.yul\":59:65   */\n      0x00\n        /* \"#utility.yul\":93:98   */\n      dup2\n        /* \"#utility.yul\":87:99   */\n      mload\n        /* \"#utility.yul\":77:99   */\n      swap1\n      pop\n        /* \"#utility.yul\":7:106   */\n      swap2\n      swap1\n      pop\n      jump\t// out\n        /* \"#utility.yul\":112:281   */\n    tag_60:\n        /* \"#utility.yul\":196:207   */\n      0x00\n        /* \"#utility.yul\":230:236   */\n      dup3\n        /* \"#utility.yul\":225:228   */\n      dup3\n        /* \"#utility.yul\":218:237   */\n      mstore\n        /* \"#utility.yul\":270:274   */\n      0x20\n        /* \"#utility.yul\":265:268   */\n      dup3\n        /* \"#utility.yul\":261:275   */\n      add\n        /* \"#utility.yul\":246:275   */\n      swap1\n      pop\n        /* \"#utility.yul\":112:281   */\n      swap3\n      swap2\n      pop\n      pop\n      jump\t// out\n        /* \"#utility.yul\":287:426   */\n    tag_61:\n        /* \"#utility.yul\":376:382   */\n      dup3\n        /* \"#utility.yul\":371:374   */\n      dup2\n        /* \"#utility.yul\":366:369   */\n      dup4\n        /* \"#utility.yul\":360:383   */\n      mcopy\n        /* \"#utility.yul\":417:418   */\n      0x00\n        /* \"#utility.yul\":408:414   */\n      dup4\n        /* \"#utility.yul\":403:406   */\n      dup4\n        /* \"#utility.yul\":399:415   */\n      add\n        /* \"#utility.yul\":392:419   */\n      mstore\n        /* \"#utility.yul\":287:426   */\n      pop\n      pop\n      pop\n      jump\t// out\n        /* \"#utility.yul\":432:534   */\n    tag_62:\n        /* \"#utility.yul\":473:479   */\n      0x00\n        /* \"#utility.yul\":524:526   */\n      0x1f\n        /* \"#utility.yul\":520:527   */\n      not\n        /* \"#utility.yul\":515:517   */\n      0x1f\n        /* \"#utility.yul\":508:513   */\n      dup4\n        /* \"#utility.yul\":504:518   */\n      add\n        /* \"#utility.yul\":500:528   */\n      and\n        /* \"#utility.yul\":490:528   */\n      swap1\n      pop\n        /* \"#utility.yul\":432:534   */\n      swap2\n      swap1\n      pop\n      jump\t// out\n        /* \"#utility.yul\":540:917   */\n    tag_63:\n        /* \"#utility.yul\":628:631   */\n      0x00\n        /* \"#utility.yul\":656:695   */\n      tag_106\n        /* \"#utility.yul\":689:694   */\n      dup3\n        /* \"#utility.yul\":656:695   */\n      tag_59\n      jump\t// in\n    tag_106:\n        /* \"#utility.yul\":711:782   */\n      tag_107\n        /* \"#utility.yul\":775:781   */\n      dup2\n        /* \"#utility.yul\":770:773   */\n      dup6\n        /* \"#utility.yul\":711:782   */\n      tag_60\n      jump\t// in\n    tag_107:\n        /* \"#utility.yul\":704:782   */\n      swap4\n      pop\n        /* \"#utility.yul\":791:856   */\n      tag_108\n        /* \"#utility.yul\":849:855   */\n      dup2\n        /* \"#utility.yul\":844:847   */\n      dup6\n        /* \"#utility.yul\":837:841   */\n      0x20\n        /* \"#utility.yul\":830:835   */\n      dup7\n        /* \"#utility.yul\":826:842   */\n      add\n        /* \"#utility.yul\":791:856   */\n      tag_61\n      jump\t// in\n    tag_108:\n        /* \"#utility.yul\":881:910   */\n      tag_109\n        /* \"#utility.yul\":903:909   */\n      dup2\n        /* \"#utility.yul\":881:910   */\n      tag_62\n      jump\t// in\n    tag_109:\n        /* \"#utility.yul\":876:879   */\n      dup5\n        /* \"#utility.yul\":872:911   */\n      add\n        /* \"#utility.yul\":865:911   */\n      swap2\n      pop\n        /* \"#utility.yul\":632:917   */\n      pop\n        /* \"#utility.yul\":540:917   */\n      swap3\n      swap2\n      pop\n      pop\n      jump\t// out\n        /* \"#utility.yul\":923:1236   */\n    tag_12:\n        /* \"#utility.yul\":1036:1040   */\n      0x00\n        /* \"#utility.yul\":1074:1076   */\n      0x20\n        /* \"#utility.yul\":1063:1072   */\n      dup3\n        /* \"#utility.yul\":1059:1077   */\n      add\n        /* \"#utility.yul\":1051:1077   */\n      swap1\n      pop\n        /* \"#utility.yul\":1123:1132   */\n      dup2\n        /* \"#utility.yul\":1117:1121   */\n      dup2\n        /* \"#utility.yul\":1113:1133   */\n      sub\n        /* \"#utility.yul\":1109:1110   */\n      0x00\n        /* \"#utility.yul\":1098:1107   */\n      dup4\n        /* \"#utility.yul\":1094:1111   */\n      add\n        /* \"#utility.yul\":1087:1134   */\n      mstore\n        /* \"#utility.yul\":1151:1229   */\n      tag_111\n        /* \"#utility.yul\":1224:1228   */\n      dup2\n        /* \"#utility.yul\":1215:1221   */\n      dup5\n        /* \"#utility.yul\":1151:1229   */\n      tag_63\n      jump\t// in\n    tag_111:\n        /* \"#utility.yul\":1143:1229   */\n      swap1\n      pop\n        /* \"#utility.yul\":923:1236   */\n      swap3\n      swap2\n      pop\n      pop\n      jump\t// out\n        /* \"#utility.yul\":1242:1319   */\n    tag_64:\n        /* \"#utility.yul\":1279:1286   */\n      0x00\n        /* \"#utility.yul\":1308:1313   */\n      dup2\n        /* \"#utility.yul\":1297:1313   */\n      swap1\n      pop\n        /* \"#utility.yul\":1242:1319   */\n      swap2\n      swap1\n      pop\n      jump\t// out\n        /* \"#utility.yul\":1325:1443   */\n    tag_65:\n        /* \"#utility.yul\":1412:1436   */\n      tag_114\n        /* \"#utility.yul\":1430:1435   */\n      dup2\n        /* \"#utility.yul\":1412:1436   */\n      tag_64\n      jump\t// in\n    tag_114:\n        /* \"#utility.yul\":1407:1410   */\n      dup3\n        /* \"#utility.yul\":1400:1437   */\n      mstore\n        /* \"#utility.yul\":1325:1443   */\n      pop\n      pop\n      jump\t// out\n        /* \"#utility.yul\":1449:1671   */\n    tag_16:\n        /* \"#utility.yul\":1542:1546   */\n      0x00\n        /* \"#utility.yul\":1580:1582   */\n      0x20\n        /* \"#utility.yul\":1569:1578   */\n      dup3\n        /* \"#utility.yul\":1565:1583   */\n      add\n        /* \"#utility.yul\":1557:1583   */\n      swap1\n      pop\n        /* \"#utility.yul\":1593:1664   */\n      tag_116\n        /* \"#utility.yul\":1661:1662   */\n      0x00\n        /* \"#utility.yul\":1650:1659   */\n      dup4\n        /* \"#utility.yul\":1646:1663   */\n      add\n        /* \"#utility.yul\":1637:1643   */\n      dup5\n        /* \"#utility.yul\":1593:1664   */\n      tag_65\n      jump\t// in\n    tag_116:\n        /* \"#utility.yul\":1449:1671   */\n      swap3\n      swap2\n      pop\n      pop\n      jump\t// out\n        /* \"#utility.yul\":1677:1803   */\n    tag_66:\n        /* \"#utility.yul\":1714:1721   */\n      0x00\n        /* \"#utility.yul\":1754:1796   */\n      0xffffffffffffffffffffffffffffffffffffffff\n        /* \"#utility.yul\":1747:1752   */\n      dup3\n        /* \"#utility.yul\":1743:1797   */\n      and\n        /* \"#utility.yul\":1732:1797   */\n      swap1\n      pop\n        /* \"#utility.yul\":1677:1803   */\n      swap2\n      swap1\n      pop\n      jump\t// out\n        /* \"#utility.yul\":1809:1905   */\n    tag_67:\n        /* \"#utility.yul\":1846:1853   */\n      0x00\n        /* \"#utility.yul\":1875:1899   */\n      tag_119\n        /* \"#utility.yul\":1893:1898   */\n      dup3\n        /* \"#utility.yul\":1875:1899   */\n      tag_66\n      jump\t// in\n    tag_119:\n        /* \"#utility.yul\":1864:1899   */\n      swap1\n      pop\n        /* \"#utility.yul\":1809:1905   */\n      swap2\n      swap1\n      pop\n      jump\t// out\n        /* \"#utility.yul\":1911:2029   */\n    tag_68:\n        /* \"#utility.yul\":1998:2022   */\n      tag_121\n        /* \"#utility.yul\":2016:2021   */\n      dup2\n        /* \"#utility.yul\":1998:2022   */\n      tag_67\n      jump\t// in\n    tag_121:\n        /* \"#utility.yul\":1993:1996   */\n      dup3\n        /* \"#utility.yul\":1986:2023   */\n      mstore\n        /* \"#utility.yul\":1911:2029   */\n      pop\n      pop\n      jump\t// out\n        /* \"#utility.yul\":2035:2257   */\n    tag_23:\n        /* \"#utility.yul\":2128:2132   */\n      0x00\n        /* \"#utility.yul\":2166:2168   */\n      0x20\n        /* \"#utility.yul\":2155:2164   */\n      dup3\n        /* \"#utility.yul\":2151:2169   */\n      add\n        /* \"#utility.yul\":2143:2169   */\n      swap1\n      pop\n        /* \"#utility.yul\":2179:2250   */\n      tag_123\n        /* \"#utility.yul\":2247:2248   */\n      0x00\n        /* \"#utility.yul\":2236:2245   */\n      dup4\n        /* \"#utility.yul\":2232:2249   */\n      add\n        /* \"#utility.yul\":2223:2229   */\n      dup5\n        /* \"#utility.yul\":2179:2250   */\n      tag_68\n      jump\t// in\n    tag_123:\n        /* \"#utility.yul\":2035:2257   */\n      swap3\n      swap2\n      pop\n      pop\n      jump\t// out\n        /* \"#utility.yul\":2344:2461   */\n    tag_70:\n        /* \"#utility.yul\":2453:2454   */\n      0x00\n        /* \"#utility.yul\":2450:2451   */\n      0x00\n        /* \"#utility.yul\":2443:2455   */\n      revert\n        /* \"#utility.yul\":2467:2584   */\n    tag_71:\n        /* \"#utility.yul\":2576:2577   */\n      0x00\n        /* \"#utility.yul\":2573:2574   */\n      0x00\n        /* \"#utility.yul\":2566:2578   */\n      revert\n        /* \"#utility.yul\":2590:2707   */\n    tag_72:\n        /* \"#utility.yul\":2699:2700   */\n      0x00\n        /* \"#utility.yul\":2696:2697   */\n      0x00\n        /* \"#utility.yul\":2689:2701   */\n      revert\n        /* \"#utility.yul\":2713:2830   */\n    tag_73:\n        /* \"#utility.yul\":2822:2823   */\n      0x00\n        /* \"#utility.yul\":2819:2820   */\n      0x00\n        /* \"#utility.yul\":2812:2824   */\n      revert\n        /* \"#utility.yul\":2836:2953   */\n    tag_74:\n        /* \"#utility.yul\":2945:2946   */\n      0x00\n        /* \"#utility.yul\":2942:2943   */\n      0x00\n        /* \"#utility.yul\":2935:2947   */\n      revert\n        /* \"#utility.yul\":2973:3526   */\n    tag_75:\n        /* \"#utility.yul\":3031:3039   */\n      0x00\n        /* \"#utility.yul\":3041:3047   */\n      0x00\n        /* \"#utility.yul\":3091:3094   */\n      dup4\n        /* \"#utility.yul\":3084:3088   */\n      0x1f\n        /* \"#utility.yul\":3076:3082   */\n      dup5\n        /* \"#utility.yul\":3072:3089   */\n      add\n        /* \"#utility.yul\":3068:3095   */\n      slt\n        /* \"#utility.yul\":3058:3180   */\n      tag_131\n      jumpi\n        /* \"#utility.yul\":3099:3178   */\n      tag_132\n      tag_72\n      jump\t// in\n    tag_132:\n        /* \"#utility.yul\":3058:3180   */\n    tag_131:\n        /* \"#utility.yul\":3212:3218   */\n      dup3\n        /* \"#utility.yul\":3199:3219   */\n      calldataload\n        /* \"#utility.yul\":3189:3219   */\n      swap1\n      pop\n        /* \"#utility.yul\":3242:3260   */\n      0xffffffffffffffff\n        /* \"#utility.yul\":3234:3240   */\n      dup2\n        /* \"#utility.yul\":3231:3261   */\n      gt\n        /* \"#utility.yul\":3228:3345   */\n      iszero\n      tag_133\n      jumpi\n        /* \"#utility.yul\":3264:3343   */\n      tag_134\n      tag_73\n      jump\t// in\n    tag_134:\n        /* \"#utility.yul\":3228:3345   */\n    tag_133:\n        /* \"#utility.yul\":3378:3382   */\n      0x20\n        /* \"#utility.yul\":3370:3376   */\n      dup4\n        /* \"#utility.yul\":3366:3383   */\n      add\n        /* \"#utility.yul\":3354:3383   */\n      swap2\n      pop\n        /* \"#utility.yul\":3432:3435   */\n      dup4\n        /* \"#utility.yul\":3424:3428   */\n      0x01\n        /* \"#utility.yul\":3416:3422   */\n      dup3\n        /* \"#utility.yul\":3412:3429   */\n      mul\n        /* \"#utility.yul\":3402:3410   */\n      dup4\n        /* \"#utility.yul\":3398:3430   */\n      add\n        /* \"#utility.yul\":3395:3436   */\n      gt\n        /* \"#utility.yul\":3392:3520   */\n      iszero\n      tag_135\n      jumpi\n        /* \"#utility.yul\":3439:3518   */\n      tag_136\n      tag_74\n      jump\t// in\n    tag_136:\n        /* \"#utility.yul\":3392:3520   */\n    tag_135:\n        /* \"#utility.yul\":2973:3526   */\n      swap3\n      pop\n      swap3\n      swap1\n      pop\n      jump\t// out\n        /* \"#utility.yul\":3532:4061   */\n    tag_26:\n        /* \"#utility.yul\":3603:3609   */\n      0x00\n        /* \"#utility.yul\":3611:3617   */\n      0x00\n        /* \"#utility.yul\":3660:3662   */\n      0x20\n        /* \"#utility.yul\":3648:3657   */\n      dup4\n        /* \"#utility.yul\":3639:3646   */\n      dup6\n        /* \"#utility.yul\":3635:3658   */\n      sub\n        /* \"#utility.yul\":3631:3663   */\n      slt\n        /* \"#utility.yul\":3628:3747   */\n      iszero\n      tag_138\n      jumpi\n        /* \"#utility.yul\":3666:3745   */\n      tag_139\n      tag_70\n      jump\t// in\n    tag_139:\n        /* \"#utility.yul\":3628:3747   */\n    tag_138:\n        /* \"#utility.yul\":3814:3815   */\n      0x00\n        /* \"#utility.yul\":3803:3812   */\n      dup4\n        /* \"#utility.yul\":3799:3816   */\n      add\n        /* \"#utility.yul\":3786:3817   */\n      calldataload\n        /* \"#utility.yul\":3844:3862   */\n      0xffffffffffffffff\n        /* \"#utility.yul\":3836:3842   */\n      dup2\n        /* \"#utility.yul\":3833:3863   */\n      gt\n        /* \"#utility.yul\":3830:3947   */\n      iszero\n      tag_140\n      jumpi\n        /* \"#utility.yul\":3866:3945   */\n      tag_141\n      tag_71\n      jump\t// in\n    tag_141:\n        /* \"#utility.yul\":3830:3947   */\n    tag_140:\n        /* \"#utility.yul\":3979:4044   */\n      tag_142\n        /* \"#utility.yul\":4036:4043   */\n      dup6\n        /* \"#utility.yul\":4027:4033   */\n      dup3\n        /* \"#utility.yul\":4016:4025   */\n      dup7\n        /* \"#utility.yul\":4012:4034   */\n      add\n        /* \"#utility.yul\":3979:4044   */\n      tag_75\n      jump\t// in\n    tag_142:\n        /* \"#utility.yul\":3961:4044   */\n      swap3\n      pop\n      swap3\n      pop\n        /* \"#utility.yul\":3757:4054   */\n      pop\n        /* \"#utility.yul\":3532:4061   */\n      swap3\n      pop\n      swap3\n      swap1\n      pop\n      jump\t// out\n        /* \"#utility.yul\":4067:4189   */\n    tag_76:\n        /* \"#utility.yul\":4140:4164   */\n      tag_144\n        /* \"#utility.yul\":4158:4163   */\n      dup2\n        /* \"#utility.yul\":4140:4164   */\n      tag_67\n      jump\t// in\n    tag_144:\n        /* \"#utility.yul\":4133:4138   */\n      dup2\n        /* \"#utility.yul\":4130:4165   */\n      eq\n        /* \"#utility.yul\":4120:4183   */\n      tag_145\n      jumpi\n        /* \"#utility.yul\":4179:4180   */\n      0x00\n        /* \"#utility.yul\":4176:4177   */\n      0x00\n        /* \"#utility.yul\":4169:4181   */\n      revert\n        /* \"#utility.yul\":4120:4183   */\n    tag_145:\n        /* \"#utility.yul\":4067:4189   */\n      pop\n      jump\t// out\n        /* \"#utility.yul\":4195:4334   */\n    tag_77:\n        /* \"#utility.yul\":4241:4246   */\n      0x00\n        /* \"#utility.yul\":4279:4285   */\n      dup2\n        /* \"#utility.yul\":4266:4286   */\n      calldataload\n        /* \"#utility.yul\":4257:4286   */\n      swap1\n      pop\n        /* \"#utility.yul\":4295:4328   */\n      tag_147\n        /* \"#utility.yul\":4322:4327   */\n      dup2\n        /* \"#utility.yul\":4295:4328   */\n      tag_76\n      jump\t// in\n    tag_147:\n        /* \"#utility.yul\":4195:4334   */\n      swap3\n      swap2\n      pop\n      pop\n      jump\t// out\n        /* \"#utility.yul\":4340:4669   */\n    tag_30:\n        /* \"#utility.yul\":4399:4405   */\n      0x00\n        /* \"#utility.yul\":4448:4450   */\n      0x20\n        /* \"#utility.yul\":4436:4445   */\n      dup3\n        /* \"#utility.yul\":4427:4434   */\n      dup5\n        /* \"#utility.yul\":4423:4446   */\n      sub\n        /* \"#utility.yul\":4419:4451   */\n      slt\n        /* \"#utility.yul\":4416:4535   */\n      iszero\n      tag_149\n      jumpi\n        /* \"#utility.yul\":4454:4533   */\n      tag_150\n      tag_70\n      jump\t// in\n    tag_150:\n        /* \"#utility.yul\":4416:4535   */\n    tag_149:\n        /* \"#utility.yul\":4574:4575   */\n      0x00\n        /* \"#utility.yul\":4599:4652   */\n      tag_151\n        /* \"#utility.yul\":4644:4651   */\n      dup5\n        /* \"#utility.yul\":4635:4641   */\n      dup3\n        /* \"#utility.yul\":4624:4633   */\n      dup6\n        /* \"#utility.yul\":4620:4642   */\n      add\n        /* \"#utility.yul\":4599:4652   */\n      tag_77\n      jump\t// in\n    tag_151:\n        /* \"#utility.yul\":4589:4652   */\n      swap2\n      pop\n        /* \"#utility.yul\":4545:4662   */\n      pop\n        /* \"#utility.yul\":4340:4669   */\n      swap3\n      swap2\n      pop\n      pop\n      jump\t// out\n        /* \"#utility.yul\":4675:4842   */\n    tag_78:\n        /* \"#utility.yul\":4815:4834   */\n      0x4e6f742074686520626f78206f776e6572000000000000000000000000000000\n        /* \"#utility.yul\":4811:4812   */\n      0x00\n        /* \"#utility.yul\":4803:4809   */\n      dup3\n        /* \"#utility.yul\":4799:4813   */\n      add\n        /* \"#utility.yul\":4792:4835   */\n      mstore\n        /* \"#utility.yul\":4675:4842   */\n      pop\n      jump\t// out\n        /* \"#utility.yul\":4848:5214   */\n    tag_79:\n        /* \"#utility.yul\":4990:4993   */\n      0x00\n        /* \"#utility.yul\":5011:5078   */\n      tag_154\n        /* \"#utility.yul\":5075:5077   */\n      0x11\n        /* \"#utility.yul\":5070:5073   */\n      dup4\n        /* \"#utility.yul\":5011:5078   */\n      tag_60\n      jump\t// in\n    tag_154:\n        /* \"#utility.yul\":5004:5078   */\n      swap2\n      pop\n        /* \"#utility.yul\":5087:5180   */\n      tag_155\n        /* \"#utility.yul\":5176:5179   */\n      dup3\n        /* \"#utility.yul\":5087:5180   */\n      tag_78\n      jump\t// in\n    tag_155:\n        /* \"#utility.yul\":5205:5207   */\n      0x20\n        /* \"#utility.yul\":5200:5203   */\n      dup3\n        /* \"#utility.yul\":5196:5208   */\n      add\n        /* \"#utility.yul\":5189:5208   */\n      swap1\n      pop\n        /* \"#utility.yul\":4848:5214   */\n      swap2\n      swap1\n      pop\n      jump\t// out\n        /* \"#utility.yul\":5220:5639   */\n    tag_37:\n        /* \"#utility.yul\":5386:5390   */\n      0x00\n        /* \"#utility.yul\":5424:5426   */\n      0x20\n        /* \"#utility.yul\":5413:5422   */\n      dup3\n        /* \"#utility.yul\":5409:5427   */\n      add\n        /* \"#utility.yul\":5401:5427   */\n      swap1\n      pop\n        /* \"#utility.yul\":5473:5482   */\n      dup2\n        /* \"#utility.yul\":5467:5471   */\n      dup2\n        /* \"#utility.yul\":5463:5483   */\n      sub\n        /* \"#utility.yul\":5459:5460   */\n      0x00\n        /* \"#utility.yul\":5448:5457   */\n      dup4\n        /* \"#utility.yul\":5444:5461   */\n      add\n        /* \"#utility.yul\":5437:5484   */\n      mstore\n        /* \"#utility.yul\":5501:5632   */\n      tag_157\n        /* \"#utility.yul\":5627:5631   */\n      dup2\n        /* \"#utility.yul\":5501:5632   */\n      tag_79\n      jump\t// in\n    tag_157:\n        /* \"#utility.yul\":5493:5632   */\n      swap1\n      pop\n        /* \"#utility.yul\":5220:5639   */\n      swap2\n      swap1\n      pop\n      jump\t// out\n        /* \"#utility.yul\":5645:5825   */\n    tag_80:\n        /* \"#utility.yul\":5693:5770   */\n      0x4e487b7100000000000000000000000000000000000000000000000000000000\n        /* \"#utility.yul\":5690:5691   */\n      0x00\n        /* \"#utility.yul\":5683:5771   */\n      mstore\n        /* \"#utility.yul\":5790:5794   */\n      0x22\n        /* \"#utility.yul\":5787:5788   */\n      0x04\n        /* \"#utility.yul\":5780:5795   */\n      mstore\n        /* \"#utility.yul\":5814:5818   */\n      0x24\n        /* \"#utility.yul\":5811:5812   */\n      0x00\n        /* \"#utility.yul\":5804:5819   */\n      revert\n        /* \"#utility.yul\":5831:6151   */\n    tag_40:\n        /* \"#utility.yul\":5875:5881   */\n      0x00\n        /* \"#utility.yul\":5912:5913   */\n      0x02\n        /* \"#utility.yul\":5906:5910   */\n      dup3\n        /* \"#utility.yul\":5902:5914   */\n      div\n        /* \"#utility.yul\":5892:5914   */\n      swap1\n      pop\n        /* \"#utility.yul\":5959:5960   */\n      0x01\n        /* \"#utility.yul\":5953:5957   */\n      dup3\n        /* \"#utility.yul\":5949:5961   */\n      and\n        /* \"#utility.yul\":5980:5998   */\n      dup1\n        /* \"#utility.yul\":5970:6051   */\n      tag_160\n      jumpi\n        /* \"#utility.yul\":6036:6040   */\n      0x7f\n        /* \"#utility.yul\":6028:6034   */\n      dup3\n        /* \"#utility.yul\":6024:6041   */\n      and\n        /* \"#utility.yul\":6014:6041   */\n      swap2\n      pop\n        /* \"#utility.yul\":5970:6051   */\n    tag_160:\n        /* \"#utility.yul\":6098:6100   */\n      0x20\n        /* \"#utility.yul\":6090:6096   */\n      dup3\n        /* \"#utility.yul\":6087:6101   */\n      lt\n        /* \"#utility.yul\":6067:6085   */\n      dup2\n        /* \"#utility.yul\":6064:6102   */\n      sub\n        /* \"#utility.yul\":6061:6145   */\n      tag_161\n      jumpi\n        /* \"#utility.yul\":6117:6135   */\n      tag_162\n      tag_80\n      jump\t// in\n    tag_162:\n        /* \"#utility.yul\":6061:6145   */\n    tag_161:\n        /* \"#utility.yul\":5882:6151   */\n      pop\n        /* \"#utility.yul\":5831:6151   */\n      swap2\n      swap1\n      pop\n      jump\t// out\n        /* \"#utility.yul\":6157:6254   */\n    tag_81:\n        /* \"#utility.yul\":6216:6222   */\n      0x00\n        /* \"#utility.yul\":6244:6247   */\n      dup3\n        /* \"#utility.yul\":6234:6247   */\n      swap1\n      pop\n        /* \"#utility.yul\":6157:6254   */\n      swap3\n      swap2\n      pop\n      pop\n      jump\t// out\n        /* \"#utility.yul\":6260:6440   */\n    tag_82:\n        /* \"#utility.yul\":6308:6385   */\n      0x4e487b7100000000000000000000000000000000000000000000000000000000\n        /* \"#utility.yul\":6305:6306   */\n      0x00\n        /* \"#utility.yul\":6298:6386   */\n      mstore\n        /* \"#utility.yul\":6405:6409   */\n      0x41\n        /* \"#utility.yul\":6402:6403   */\n      0x04\n        /* \"#utility.yul\":6395:6410   */\n      mstore\n        /* \"#utility.yul\":6429:6433   */\n      0x24\n        /* \"#utility.yul\":6426:6427   */\n      0x00\n        /* \"#utility.yul\":6419:6434   */\n      revert\n        /* \"#utility.yul\":6446:6587   */\n    tag_83:\n        /* \"#utility.yul\":6495:6499   */\n      0x00\n        /* \"#utility.yul\":6518:6521   */\n      dup2\n        /* \"#utility.yul\":6510:6521   */\n      swap1\n      pop\n        /* \"#utility.yul\":6541:6544   */\n      dup2\n        /* \"#utility.yul\":6538:6539   */\n      0x00\n        /* \"#utility.yul\":6531:6545   */\n      mstore\n        /* \"#utility.yul\":6575:6579   */\n      0x20\n        /* \"#utility.yul\":6572:6573   */\n      0x00\n        /* \"#utility.yul\":6562:6580   */\n      keccak256\n        /* \"#utility.yul\":6554:6580   */\n      swap1\n      pop\n        /* \"#utility.yul\":6446:6587   */\n      swap2\n      swap1\n      pop\n      jump\t// out\n        /* \"#utility.yul\":6593:6686   */\n    tag_84:\n        /* \"#utility.yul\":6630:6636   */\n      0x00\n        /* \"#utility.yul\":6677:6679   */\n      0x20\n        /* \"#utility.yul\":6672:6674   */\n      0x1f\n        /* \"#utility.yul\":6665:6670   */\n      dup4\n        /* \"#utility.yul\":6661:6675   */\n      add\n        /* \"#utility.yul\":6657:6680   */\n      div\n        /* \"#utility.yul\":6647:6680   */\n      swap1\n      pop\n        /* \"#utility.yul\":6593:6686   */\n      swap2\n      swap1\n      pop\n      jump\t// out\n        /* \"#utility.yul\":6692:6799   */\n    tag_85:\n        /* \"#utility.yul\":6736:6744   */\n      0x00\n        /* \"#utility.yul\":6786:6791   */\n      dup3\n        /* \"#utility.yul\":6780:6784   */\n      dup3\n        /* \"#utility.yul\":6776:6792   */\n      shl\n        /* \"#utility.yul\":6755:6792   */\n      swap1\n      pop\n        /* \"#utility.yul\":6692:6799   */\n      swap3\n      swap2\n      pop\n      pop\n      jump\t// out\n        /* \"#utility.yul\":6805:7198   */\n    tag_86:\n        /* \"#utility.yul\":6874:6880   */\n      0x00\n        /* \"#utility.yul\":6924:6925   */\n      0x08\n        /* \"#utility.yul\":6912:6922   */\n      dup4\n        /* \"#utility.yul\":6908:6926   */\n      mul\n        /* \"#utility.yul\":6947:7044   */\n      tag_169\n        /* \"#utility.yul\":6977:7043   */\n      0xffffffffffffffffffffffffffffffffffffffffffffffffffffffffffffffff\n        /* \"#utility.yul\":6966:6975   */\n      dup3\n        /* \"#utility.yul\":6947:7044   */\n      tag_85\n      jump\t// in\n    tag_169:\n        /* \"#utility.yul\":7065:7104   */\n      tag_170\n        /* \"#utility.yul\":7095:7103   */\n      dup7\n        /* \"#utility.yul\":7084:7093   */\n      dup4\n        /* \"#utility.yul\":7065:7104   */\n      tag_85\n      jump\t// in\n    tag_170:\n        /* \"#utility.yul\":7053:7104   */\n      swap6\n      pop\n        /* \"#utility.yul\":7137:7141   */\n      dup1\n        /* \"#utility.yul\":7133:7142   */\n      not\n        /* \"#utility.yul\":7126:7131   */\n      dup5\n        /* \"#utility.yul\":7122:7143   */\n      and\n        /* \"#utility.yul\":7113:7143   */\n      swap4\n      pop\n        /* \"#utility.yul\":7186:7190   */\n      dup1\n        /* \"#utility.yul\":7176:7184   */\n      dup7\n        /* \"#utility.yul\":7172:7191   */\n      and\n        /* \"#utility.yul\":7165:7170   */\n      dup5\n        /* \"#utility.yul\":7162:7192   */\n      or\n        /* \"#utility.yul\":7152:7192   */\n      swap3\n      pop\n        /* \"#utility.yul\":6881:7198   */\n      pop\n      pop\n        /* \"#utility.yul\":6805:7198   */\n      swap4\n      swap3\n      pop\n      pop\n      pop\n      jump\t// out\n        /* \"#utility.yul\":7204:7264   */\n    tag_87:\n        /* \"#utility.yul\":7232:7235   */\n      0x00\n        /* \"#utility.yul\":7253:7258   */\n      dup2\n        /* \"#utility.yul\":7246:7258   */\n      swap1\n      pop\n        /* \"#utility.yul\":7204:7264   */\n      swap2\n      swap1\n      pop\n      jump\t// out\n        /* \"#utility.yul\":7270:7412   */\n    tag_88:\n        /* \"#utility.yul\":7320:7329   */\n      0x00\n        /* \"#utility.yul\":7353:7406   */\n      tag_173\n        /* \"#utility.yul\":7371:7405   */\n      tag_174\n        /* \"#utility.yul\":7380:7404   */\n      tag_175\n        /* \"#utility.yul\":7398:7403   */\n      dup5\n        /* \"#utility.yul\":7380:7404   */\n      tag_64\n      jump\t// in\n    tag_175:\n        /* \"#utility.yul\":7371:7405   */\n      tag_87\n      jump\t// in\n    tag_174:\n        /* \"#utility.yul\":7353:7406   */\n      tag_64\n      jump\t// in\n    tag_173:\n        /* \"#utility.yul\":7340:7406   */\n      swap1\n      pop\n        /* \"#utility.yul\":7270:7412   */\n      swap2\n      swap1\n      pop\n      jump\t// out\n        /* \"#utility.yul\":7418:7493   */\n    tag_89:\n        /* \"#utility.yul\":7461:7464   */\n      0x00\n        /* \"#utility.yul\":7482:7487   */\n      dup2\n        /* \"#utility.yul\":7475:7487   */\n      swap1\n      pop\n        /* \"#utility.yul\":7418:7493   */\n      swap2\n      swap1\n      pop\n      jump\t// out\n        /* \"#utility.yul\":7499:7768   */\n    tag_90:\n        /* \"#utility.yul\":7609:7648   */\n      tag_178\n        /* \"#utility.yul\":7640:7647   */\n      dup4\n        /* \"#utility.yul\":7609:7648   */\n      tag_88\n      jump\t// in\n    tag_178:\n        /* \"#utility.yul\":7670:7761   */\n      tag_179\n        /* \"#utility.yul\":7719:7760   */\n      tag_180\n        /* \"#utility.yul\":7743:7759   */\n      dup3\n        /* \"#utility.yul\":7719:7760   */\n      tag_89\n      jump\t// in\n    tag_180:\n        /* \"#utility.yul\":7711:7717   */\n      dup5\n        /* \"#utility.yul\":7704:7708   */\n      dup5\n        /* \"#utility.yul\":7698:7709   */\n      sload\n        /* \"#utility.yul\":7670:7761   */\n      tag_86\n      jump\t// in\n    tag_179:\n        /* \"#utility.yul\":7664:7668   */\n      dup3\n        /* \"#utility.yul\":7657:7762   */\n      sstore\n        /* \"#utility.yul\":7575:7768   */\n      pop\n        /* \"#utility.yul\":7499:7768   */\n      pop\n      pop\n      pop\n      jump\t// out\n        /* \"#utility.yul\":7774:7847   */\n    tag_91:\n        /* \"#utility.yul\":7819:7822   */\n      0x00\n        /* \"#utility.yul\":7840:7841   */\n      0x00\n        /* \"#utility.yul\":7833:7841   */\n      swap1\n      pop\n        /* \"#utility.yul\":7774:7847   */\n      swap1\n      jump\t// out\n        /* \"#utility.yul\":7853:8042   */\n    tag_92:\n        /* \"#utility.yul\":7930:7962   */\n      tag_183\n      tag_91\n      jump\t// in\n    tag_183:\n        /* \"#utility.yul\":7971:8036   */\n      tag_184\n        /* \"#utility.yul\":8029:8035   */\n      dup2\n        /* \"#utility.yul\":8021:8027   */\n      dup5\n        /* \"#utility.yul\":8015:8019   */\n      dup5\n        /* \"#utility.yul\":7971:8036   */\n      tag_90\n      jump\t// in\n    tag_184:\n        /* \"#utility.yul\":7906:8042   */\n      pop\n        /* \"#utility.yul\":7853:8042   */\n      pop\n      pop\n      jump\t// out\n        /* \"#utility.yul\":8048:8234   */\n    tag_93:\n        /* \"#utility.yul\":8108:8228   */\n    tag_186:\n        /* \"#utility.yul\":8125:8128   */\n      dup2\n        /* \"#utility.yul\":8118:8123   */\n      dup2\n        /* \"#utility.yul\":8115:8129   */\n      lt\n        /* \"#utility.yul\":8108:8228   */\n      iszero\n      tag_188\n      jumpi\n        /* \"#utility.yul\":8179:8218   */\n      tag_189\n        /* \"#utility.yul\":8216:8217   */\n      0x00\n        /* \"#utility.yul\":8209:8214   */\n      dup3\n        /* \"#utility.yul\":8179:8218   */\n      tag_92\n      jump\t// in\n    tag_189:\n        /* \"#utility.yul\":8152:8153   */\n      0x01\n        /* \"#utility.yul\":8145:8150   */\n      dup2\n        /* \"#utility.yul\":8141:8154   */\n      add\n        /* \"#utility.yul\":8132:8154   */\n      swap1\n      pop\n        /* \"#utility.yul\":8108:8228   */\n      jump(tag_186)\n    tag_188:\n        /* \"#utility.yul\":8048:8234   */\n      pop\n      pop\n      jump\t// out\n        /* \"#utility.yul\":8240:8783   */\n    tag_94:\n        /* \"#utility.yul\":8341:8343   */\n      0x1f\n        /* \"#utility.yul\":8336:8339   */\n      dup3\n        /* \"#utility.yul\":8333:8344   */\n      gt\n        /* \"#utility.yul\":8330:8776   */\n      iszero\n      tag_191\n      jumpi\n        /* \"#utility.yul\":8375:8413   */\n      tag_192\n        /* \"#utility.yul\":8407:8412   */\n      dup2\n        /* \"#utility.yul\":8375:8413   */\n      tag_83\n      jump\t// in\n    tag_192:\n        /* \"#utility.yul\":8459:8488   */\n      tag_193\n        /* \"#utility.yul\":8477:8487   */\n      dup5\n        /* \"#utility.yul\":8459:8488   */\n      tag_84\n      jump\t// in\n    tag_193:\n        /* \"#utility.yul\":8449:8457   */\n      dup2\n        /* \"#utility.yul\":8445:8489   */\n      add\n        /* \"#utility.yul\":8642:8644   */\n      0x20\n        /* \"#utility.yul\":8630:8640   */\n      dup6\n        /* \"#utility.yul\":8627:8645   */\n      lt\n        /* \"#utility.yul\":8624:8673   */\n      iszero\n      tag_194\n      jumpi\n        /* \"#utility.yul\":8663:8671   */\n      dup2\n        /* \"#utility.yul\":8648:8671   */\n      swap1\n      pop\n        /* \"#utility.yul\":8624:8673   */\n    tag_194:\n        /* \"#utility.yul\":8686:8766   */\n      tag_195\n        /* \"#utility.yul\":8742:8764   */\n      tag_196\n        /* \"#utility.yul\":8760:8763   */\n      dup6\n        /* \"#utility.yul\":8742:8764   */\n      tag_84\n      jump\t// in\n    tag_196:\n        /* \"#utility.yul\":8732:8740   */\n      dup4\n        /* \"#utility.yul\":8728:8765   */\n      add\n        /* \"#utility.yul\":8715:8726   */\n      dup3\n        /* \"#utility.yul\":8686:8766   */\n      tag_93\n      jump\t// in\n    tag_195:\n        /* \"#utility.yul\":8345:8776   */\n      pop\n      pop\n        /* \"#utility.yul\":8330:8776   */\n    tag_191:\n        /* \"#utility.yul\":8240:8783   */\n      pop\n      pop\n      pop\n      jump\t// out\n        /* \"#utility.yul\":8789:8906   */\n    tag_95:\n        /* \"#utility.yul\":8843:8851   */\n      0x00\n        /* \"#utility.yul\":8893:8898   */\n      dup3\n        /* \"#utility.yul\":8887:8891   */\n      dup3\n        /* \"#utility.yul\":8883:8899   */\n      shr\n        /* \"#utility.yul\":8862:8899   */\n      swap1\n      pop\n        /* \"#utility.yul\":8789:8906   */\n      swap3\n      swap2\n      pop\n      pop\n      jump\t// out\n        /* \"#utility.yul\":8912:9081   */\n    tag_96:\n        /* \"#utility.yul\":8956:8962   */\n      0x00\n        /* \"#utility.yul\":8989:9040   */\n      tag_199\n        /* \"#utility.yul\":9037:9038   */\n      0x00\n        /* \"#utility.yul\":9033:9039   */\n      not\n        /* \"#utility.yul\":9025:9030   */\n      dup5\n        /* \"#utility.yul\":9022:9023   */\n      0x08\n        /* \"#utility.yul\":9018:9031   */\n      mul\n        /* \"#utility.yul\":8989:9040   */\n      tag_95\n      jump\t// in\n    tag_199:\n        /* \"#utility.yul\":8985:9041   */\n      not\n        /* \"#utility.yul\":9070:9074   */\n      dup1\n        /* \"#utility.yul\":9064:9068   */\n      dup4\n        /* \"#utility.yul\":9060:9075   */\n      and\n        /* \"#utility.yul\":9050:9075   */\n      swap2\n      pop\n        /* \"#utility.yul\":8963:9081   */\n      pop\n        /* \"#utility.yul\":8912:9081   */\n      swap3\n      swap2\n      pop\n      pop\n      jump\t// out\n        /* \"#utility.yul\":9086:9381   */\n    tag_97:\n        /* \"#utility.yul\":9162:9166   */\n      0x00\n        /* \"#utility.yul\":9308:9337   */\n      tag_201\n        /* \"#utility.yul\":9333:9336   */\n      dup4\n        /* \"#utility.yul\":9327:9331   */\n      dup4\n        /* \"#utility.yul\":9308:9337   */\n      tag_96\n      jump\t// in\n    tag_201:\n        /* \"#utility.yul\":9300:9337   */\n      swap2\n      pop\n        /* \"#utility.yul\":9370:9373   */\n      dup3\n        /* \"#utility.yul\":9367:9368   */\n      0x02\n        /* \"#utility.yul\":9363:9374   */\n      mul\n        /* \"#utility.yul\":9357:9361   */\n      dup3\n        /* \"#utility.yul\":9354:9375   */\n      or\n        /* \"#utility.yul\":9346:9375   */\n      swap1\n      pop\n        /* \"#utility.yul\":9086:9381   */\n      swap3\n      swap2\n      pop\n      pop\n      jump\t// out\n        /* \"#utility.yul\":9386:10789   */\n    tag_51:\n        /* \"#utility.yul\":9510:9554   */\n      tag_203\n        /* \"#utility.yul\":9550:9553   */\n      dup4\n        /* \"#utility.yul\":9545:9548   */\n      dup4\n        /* \"#utility.yul\":9510:9554   */\n      tag_81\n      jump\t// in\n    tag_203:\n        /* \"#utility.yul\":9619:9637   */\n      0xffffffffffffffff\n        /* \"#utility.yul\":9611:9617   */\n      dup2\n        /* \"#utility.yul\":9608:9638   */\n      gt\n        /* \"#utility.yul\":9605:9661   */\n      iszero\n      tag_204\n      jumpi\n        /* \"#utility.yul\":9641:9659   */\n      tag_205\n      tag_82\n      jump\t// in\n    tag_205:\n        /* \"#utility.yul\":9605:9661   */\n    tag_204:\n        /* \"#utility.yul\":9685:9723   */\n      tag_206\n        /* \"#utility.yul\":9717:9721   */\n      dup3\n        /* \"#utility.yul\":9711:9722   */\n      sload\n        /* \"#utility.yul\":9685:9723   */\n      tag_40\n      jump\t// in\n    tag_206:\n        /* \"#utility.yul\":9770:9837   */\n      tag_207\n        /* \"#utility.yul\":9830:9836   */\n      dup3\n        /* \"#utility.yul\":9822:9828   */\n      dup3\n        /* \"#utility.yul\":9816:9820   */\n      dup6\n        /* \"#utility.yul\":9770:9837   */\n      tag_94\n      jump\t// in\n    tag_207:\n        /* \"#utility.yul\":9864:9865   */\n      0x00\n        /* \"#utility.yul\":9893:9895   */\n      0x1f\n        /* \"#utility.yul\":9885:9891   */\n      dup4\n        /* \"#utility.yul\":9882:9896   */\n      gt\n        /* \"#utility.yul\":9910:9911   */\n      0x01\n        /* \"#utility.yul\":9905:10537   */\n      dup2\n      eq\n      tag_209\n      jumpi\n        /* \"#utility.yul\":10581:10582   */\n      0x00\n        /* \"#utility.yul\":10598:10604   */\n      dup5\n        /* \"#utility.yul\":10595:10679   */\n      iszero\n      tag_210\n      jumpi\n        /* \"#utility.yul\":10654:10663   */\n      dup3\n        /* \"#utility.yul\":10649:10652   */\n      dup8\n        /* \"#utility.yul\":10645:10664   */\n      add\n        /* \"#utility.yul\":10632:10665   */\n      calldataload\n        /* \"#utility.yul\":10623:10665   */\n      swap1\n      pop\n        /* \"#utility.yul\":10595:10679   */\n    tag_210:\n        /* \"#utility.yul\":10705:10772   */\n      tag_211\n        /* \"#utility.yul\":10765:10771   */\n      dup6\n        /* \"#utility.yul\":10758:10763   */\n      dup3\n        /* \"#utility.yul\":10705:10772   */\n      tag_97\n      jump\t// in\n    tag_211:\n        /* \"#utility.yul\":10699:10703   */\n      dup7\n        /* \"#utility.yul\":10692:10773   */\n      sstore\n        /* \"#utility.yul\":10554:10783   */\n      pop\n        /* \"#utility.yul\":9875:10783   */\n      jump(tag_208)\n        /* \"#utility.yul\":9905:10537   */\n    tag_209:\n        /* \"#utility.yul\":9957:9961   */\n      0x1f\n        /* \"#utility.yul\":9953:9962   */\n      not\n        /* \"#utility.yul\":9945:9951   */\n      dup5\n        /* \"#utility.yul\":9941:9963   */\n      and\n        /* \"#utility.yul\":9991:10028   */\n      tag_212\n        /* \"#utility.yul\":10023:10027   */\n      dup7\n        /* \"#utility.yul\":9991:10028   */\n      tag_83\n      jump\t// in\n    tag_212:\n        /* \"#utility.yul\":10050:10051   */\n      0x00\n        /* \"#utility.yul\":10064:10279   */\n    tag_213:\n        /* \"#utility.yul\":10078:10085   */\n      dup3\n        /* \"#utility.yul\":10075:10076   */\n      dup2\n        /* \"#utility.yul\":10072:10086   */\n      lt\n        /* \"#utility.yul\":10064:10279   */\n      iszero\n      tag_215\n      jumpi\n        /* \"#utility.yul\":10164:10173   */\n      dup5\n        /* \"#utility.yul\":10159:10162   */\n      dup10\n        /* \"#utility.yul\":10155:10174   */\n      add\n        /* \"#utility.yul\":10142:10175   */\n      calldataload\n        /* \"#utility.yul\":10134:10140   */\n      dup3\n        /* \"#utility.yul\":10127:10176   */\n      sstore\n        /* \"#utility.yul\":10215:10216   */\n      0x01\n        /* \"#utility.yul\":10207:10213   */\n      dup3\n        /* \"#utility.yul\":10203:10217   */\n      add\n        /* \"#utility.yul\":10193:10217   */\n      swap2\n      pop\n        /* \"#utility.yul\":10262:10264   */\n      0x20\n        /* \"#utility.yul\":10251:10260   */\n      dup6\n        /* \"#utility.yul\":10247:10265   */\n      add\n        /* \"#utility.yul\":10234:10265   */\n      swap5\n      pop\n        /* \"#utility.yul\":10101:10105   */\n      0x20\n        /* \"#utility.yul\":10098:10099   */\n      dup2\n        /* \"#utility.yul\":10094:10106   */\n      add\n        /* \"#utility.yul\":10089:10106   */\n      swap1\n      pop\n        /* \"#utility.yul\":10064:10279   */\n      jump(tag_213)\n    tag_215:\n        /* \"#utility.yul\":10307:10313   */\n      dup7\n        /* \"#utility.yul\":10298:10305   */\n      dup4\n        /* \"#utility.yul\":10295:10314   */\n      lt\n        /* \"#utility.yul\":10292:10478   */\n      iszero\n      tag_216\n      jumpi\n        /* \"#utility.yul\":10372:10381   */\n      dup5\n        /* \"#utility.yul\":10367:10370   */\n      dup10\n        /* \"#utility.yul\":10363:10382   */\n      add\n        /* \"#utility.yul\":10350:10383   */\n      calldataload\n        /* \"#utility.yul\":10415:10463   */\n      tag_217\n        /* \"#utility.yul\":10457:10461   */\n      0x1f\n        /* \"#utility.yul\":10449:10455   */\n      dup10\n        /* \"#utility.yul\":10445:10462   */\n      and\n        /* \"#utility.yul\":10434:10443   */\n      dup3\n        /* \"#utility.yul\":10415:10463   */\n      tag_96\n      jump\t// in\n    tag_217:\n        /* \"#utility.yul\":10407:10413   */\n      dup4\n        /* \"#utility.yul\":10400:10464   */\n      sstore\n        /* \"#utility.yul\":10315:10478   */\n      pop\n        /* \"#utility.yul\":10292:10478   */\n    tag_216:\n        /* \"#utility.yul\":10524:10525   */\n      0x01\n        /* \"#utility.yul\":10520:10521   */\n      0x02\n        /* \"#utility.yul\":10512:10518   */\n      dup9\n        /* \"#utility.yul\":10508:10522   */\n      mul\n        /* \"#utility.yul\":10504:10526   */\n      add\n        /* \"#utility.yul\":10498:10502   */\n      dup9\n        /* \"#utility.yul\":10491:10527   */\n      sstore\n        /* \"#utility.yul\":9912:10537   */\n      pop\n      pop\n      pop\n        /* \"#utility.yul\":9875:10783   */\n    tag_208:\n      pop\n        /* \"#utility.yul\":9485:10789   */\n      pop\n      pop\n      pop\n        /* \"#utility.yul\":9386:10789   */\n      pop\n      pop\n      pop\n      jump\t// out\n        /* \"#utility.yul\":10795:10977   */\n    tag_98:\n        /* \"#utility.yul\":10935:10969   */\n      0x4e6577206f776e65722063616e6e6f74206265207a65726f2061646472657373\n        /* \"#utility.yul\":10931:10932   */\n      0x00\n        /* \"#utility.yul\":10923:10929   */\n      dup3\n        /* \"#utility.yul\":10919:10933   */\n      add\n        /* \"#utility.yul\":10912:10970   */\n      mstore\n        /* \"#utility.yul\":10795:10977   */\n      pop\n      jump\t// out\n        /* \"#utility.yul\":10983:11349   */\n    tag_99:\n        /* \"#utility.yul\":11125:11128   */\n      0x00\n        /* \"#utility.yul\":11146:11213   */\n      tag_220\n        /* \"#utility.yul\":11210:11212   */\n      0x20\n        /* \"#utility.yul\":11205:11208   */\n      dup4\n        /* \"#utility.yul\":11146:11213   */\n      tag_60\n      jump\t// in\n    tag_220:\n        /* \"#utility.yul\":11139:11213   */\n      swap2\n      pop\n        /* \"#utility.yul\":11222:11315   */\n      tag_221\n        /* \"#utility.yul\":11311:11314   */\n      dup3\n        /* \"#utility.yul\":11222:11315   */\n      tag_98\n      jump\t// in\n    tag_221:\n        /* \"#utility.yul\":11340:11342   */\n      0x20\n        /* \"#utility.yul\":11335:11338   */\n      dup3\n        /* \"#utility.yul\":11331:11343   */\n      add\n        /* \"#utility.yul\":11324:11343   */\n      swap1\n      pop\n        /* \"#utility.yul\":10983:11349   */\n      swap2\n      swap1\n      pop\n      jump\t// out\n        /* \"#utility.yul\":11355:11774   */\n    tag_58:\n        /* \"#utility.yul\":11521:11525   */\n      0x00\n        /* \"#utility.yul\":11559:11561   */\n      0x20\n        /* \"#utility.yul\":11548:11557   */\n      dup3\n        /* \"#utility.yul\":11544:11562   */\n      add\n        /* \"#utility.yul\":11536:11562   */\n      swap1\n      pop\n        /* \"#utility.yul\":11608:11617   */\n      dup2\n        /* \"#utility.yul\":11602:11606   */\n      dup2\n        /* \"#utility.yul\":11598:11618   */\n      sub\n        /* \"#utility.yul\":11594:11595   */\n      0x00\n        /* \"#utility.yul\":11583:11592   */\n      dup4\n        /* \"#utility.yul\":11579:11596   */\n      add\n        /* \"#utility.yul\":11572:11619   */\n      mstore\n        /* \"#utility.yul\":11636:11767   */\n      tag_223\n        /* \"#utility.yul\":11762:11766   */\n      dup2\n        /* \"#utility.yul\":11636:11767   */\n      tag_99\n      jump\t// in\n    tag_223:\n        /* \"#utility.yul\":11628:11767   */\n      swap1\n      pop\n        /* \"#utility.yul\":11355:11774   */\n      swap2\n      swap1\n      pop\n      jump\t// out\n\n    auxdata: 0xa26469706673582212202850194c0f289138a0d68927c198a426cd3486e17de2e6338f396f6c601f72bd64736f6c634300081e0033\n}\n",
				"bytecode": {
					"linkReferences": {},
					"object": "6080604052348015600e575f5ffd5b50335f5f6101000a81548173ffffffffffffffffffffffffffffffffffffffff021916908373ffffffffffffffffffffffffffffffffffffffff16021790555042600281905550610b67806100625f395ff3fe608060405234801561000f575f5ffd5b5060043610610060575f3560e01c8063041991391461006457806351811f04146100825780635b9fdc30146100a0578063893d20e8146100be578063a14ab9f8146100dc578063f2fde38b146100f8575b5f5ffd5b61006c610114565b60405161007991906105ae565b60405180910390f35b61008a610151565b60405161009791906105e6565b60405180910390f35b6100a861015a565b6040516100b591906105ae565b60405180910390f35b6100c6610278565b6040516100d3919061063e565b60405180910390f35b6100f660048036038101906100f191906106c0565b61029f565b005b610112600480360381019061010d9190610735565b610386565b005b60606040518060400160405280600581526020017f4261736963000000000000000000000000000000000000000000000000000000815250905090565b5f600254905090565b60605f5f9054906101000a900473ffffffffffffffffffffffffffffffffffffffff1673ffffffffffffffffffffffffffffffffffffffff163373ffffffffffffffffffffffffffffffffffffffff16146101ea576040517f08c379a00000000000000000000000000000000000000000000000000000000081526004016101e1906107aa565b60405180910390fd5b600180546101f7906107f5565b80601f0160208091040260200160405190810160405280929190818152602001828054610223906107f5565b801561026e5780601f106102455761010080835404028352916020019161026e565b820191905f5260205f20905b81548152906001019060200180831161025157829003601f168201915b5050505050905090565b5f5f5f9054906101000a900473ffffffffffffffffffffffffffffffffffffffff16905090565b5f5f9054906101000a900473ffffffffffffffffffffffffffffffffffffffff1673ffffffffffffffffffffffffffffffffffffffff163373ffffffffffffffffffffffffffffffffffffffff161461032d576040517f08c379a0000000000000000000000000000000000000000000000000000000008152600401610324906107aa565b60405180910390fd5b81816001918261033e9291906109fc565b503373ffffffffffffffffffffffffffffffffffffffff167f0977f4c93d6a66455eb4f1467e8a01fec7c62b1ce20353fb51b7269712e1196760405160405180910390a25050565b5f5f9054906101000a900473ffffffffffffffffffffffffffffffffffffffff1673ffffffffffffffffffffffffffffffffffffffff163373ffffffffffffffffffffffffffffffffffffffff1614610414576040517f08c379a000000000000000000000000000000000000000000000000000000000815260040161040b906107aa565b60405180910390fd5b5f73ffffffffffffffffffffffffffffffffffffffff168173ffffffffffffffffffffffffffffffffffffffff1603610482576040517f08c379a000000000000000000000000000000000000000000000000000000000815260040161047990610b13565b60405180910390fd5b8073ffffffffffffffffffffffffffffffffffffffff165f5f9054906101000a900473ffffffffffffffffffffffffffffffffffffffff1673ffffffffffffffffffffffffffffffffffffffff167f8be0079c531659141344cd1fd0a4f28419497f9722a3daafe3b4186f6b6457e060405160405180910390a3805f5f6101000a81548173ffffffffffffffffffffffffffffffffffffffff021916908373ffffffffffffffffffffffffffffffffffffffff16021790555050565b5f81519050919050565b5f82825260208201905092915050565b8281835e5f83830152505050565b5f601f19601f8301169050919050565b5f6105808261053e565b61058a8185610548565b935061059a818560208601610558565b6105a381610566565b840191505092915050565b5f6020820190508181035f8301526105c68184610576565b905092915050565b5f819050919050565b6105e0816105ce565b82525050565b5f6020820190506105f95f8301846105d7565b92915050565b5f73ffffffffffffffffffffffffffffffffffffffff82169050919050565b5f610628826105ff565b9050919050565b6106388161061e565b82525050565b5f6020820190506106515f83018461062f565b92915050565b5f5ffd5b5f5ffd5b5f5ffd5b5f5ffd5b5f5ffd5b5f5f83601f8401126106805761067f61065f565b5b8235905067ffffffffffffffff81111561069d5761069c610663565b5b6020830191508360018202830111156106b9576106b8610667565b5b9250929050565b5f5f602083850312156106d6576106d5610657565b5b5f83013567ffffffffffffffff8111156106f3576106f261065b565b5b6106ff8582860161066b565b92509250509250929050565b6107148161061e565b811461071e575f5ffd5b50565b5f8135905061072f8161070b565b92915050565b5f6020828403121561074a57610749610657565b5b5f61075784828501610721565b91505092915050565b7f4e6f742074686520626f78206f776e65720000000000000000000000000000005f82015250565b5f610794601183610548565b915061079f82610760565b602082019050919050565b5f6020820190508181035f8301526107c181610788565b9050919050565b7f4e487b71000000000000000000000000000000000000000000000000000000005f52602260045260245ffd5b5f600282049050600182168061080c57607f821691505b60208210810361081f5761081e6107c8565b5b50919050565b5f82905092915050565b7f4e487b71000000000000000000000000000000000000000000000000000000005f52604160045260245ffd5b5f819050815f5260205f209050919050565b5f6020601f8301049050919050565b5f82821b905092915050565b5f600883026108b87fffffffffffffffffffffffffffffffffffffffffffffffffffffffffffffffff8261087d565b6108c2868361087d565b95508019841693508086168417925050509392505050565b5f819050919050565b5f6108fd6108f86108f3846105ce565b6108da565b6105ce565b9050919050565b5f819050919050565b610916836108e3565b61092a61092282610904565b848454610889565b825550505050565b5f5f905090565b610941610932565b61094c81848461090d565b505050565b5b8181101561096f576109645f82610939565b600181019050610952565b5050565b601f8211156109b4576109858161085c565b61098e8461086e565b8101602085101561099d578190505b6109b16109a98561086e565b830182610951565b50505b505050565b5f82821c905092915050565b5f6109d45f19846008026109b9565b1980831691505092915050565b5f6109ec83836109c5565b9150826002028217905092915050565b610a068383610825565b67ffffffffffffffff811115610a1f57610a1e61082f565b5b610a2982546107f5565b610a34828285610973565b5f601f831160018114610a61575f8415610a4f578287013590505b610a5985826109e1565b865550610ac0565b601f198416610a6f8661085c565b5f5b82811015610a9657848901358255600182019150602085019450602081019050610a71565b86831015610ab35784890135610aaf601f8916826109c5565b8355505b6001600288020188555050505b50505050505050565b7f4e6577206f776e65722063616e6e6f74206265207a65726f20616464726573735f82015250565b5f610afd602083610548565b9150610b0882610ac9565b602082019050919050565b5f6020820190508181035f830152610b2a81610af1565b905091905056fea26469706673582212202850194c0f289138a0d68927c198a426cd3486e17de2e6338f396f6c601f72bd64736f6c634300081e0033",
					"opcodes": "PUSH1 0x80 PUSH1 0x40 MSTORE CALLVALUE DUP1 ISZERO PUSH1 0xE JUMPI PUSH0 PUSH0 REVERT JUMPDEST POP CALLER PUSH0 PUSH0 PUSH2 0x100 EXP DUP2 SLOAD DUP2 PUSH20 0xFFFFFFFFFFFFFFFFFFFFFFFFFFFFFFFFFFFFFFFF MUL NOT AND SWAP1 DUP4 PUSH20 0xFFFFFFFFFFFFFFFFFFFFFFFFFFFFFFFFFFFFFFFF AND MUL OR SWAP1 SSTORE POP TIMESTAMP PUSH1 0x2 DUP2 SWAP1 SSTORE POP PUSH2 0xB67 DUP1 PUSH2 0x62 PUSH0 CODECOPY PUSH0 RETURN INVALID PUSH1 0x80 PUSH1 0x40 MSTORE CALLVALUE DUP1 ISZERO PUSH2 0xF JUMPI PUSH0 PUSH0 REVERT JUMPDEST POP PUSH1 0x4 CALLDATASIZE LT PUSH2 0x60 JUMPI PUSH0 CALLDATALOAD PUSH1 0xE0 SHR DUP1 PUSH4 0x4199139 EQ PUSH2 0x64 JUMPI DUP1 PUSH4 0x51811F04 EQ PUSH2 0x82 JUMPI DUP1 PUSH4 0x5B9FDC30 EQ PUSH2 0xA0 JUMPI DUP1 PUSH4 0x893D20E8 EQ PUSH2 0xBE JUMPI DUP1 PUSH4 0xA14AB9F8 EQ PUSH2 0xDC JUMPI DUP1 PUSH4 0xF2FDE38B EQ PUSH2 0xF8 JUMPI JUMPDEST PUSH0 PUSH0 REVERT JUMPDEST PUSH2 0x6C PUSH2 0x114 JUMP JUMPDEST PUSH1 0x40 MLOAD PUSH2 0x79 SWAP2 SWAP1 PUSH2 0x5AE JUMP JUMPDEST PUSH1 0x40 MLOAD DUP1 SWAP2 SUB SWAP1 RETURN JUMPDEST PUSH2 0x8A PUSH2 0x151 JUMP JUMPDEST PUSH1 0x40 MLOAD PUSH2 0x97 SWAP2 SWAP1 PUSH2 0x5E6 JUMP JUMPDEST PUSH1 0x40 MLOAD DUP1 SWAP2 SUB SWAP1 RETURN JUMPDEST PUSH2 0xA8 PUSH2 0x15A JUMP JUMPDEST PUSH1 0x40 MLOAD PUSH2 0xB5 SWAP2 SWAP1 PUSH2 0x5AE JUMP JUMPDEST PUSH1 0x40 MLOAD DUP1 SWAP2 SUB SWAP1 RETURN JUMPDEST PUSH2 0xC6 PUSH2 0x278 JUMP JUMPDEST PUSH1 0x40 MLOAD PUSH2 0xD3 SWAP2 SWAP1 PUSH2 0x63E JUMP JUMPDEST PUSH1 0x40 MLOAD DUP1 SWAP2 SUB SWAP1 RETURN JUMPDEST PUSH2 0xF6 PUSH1 0x4 DUP1 CALLDATASIZE SUB DUP2 ADD SWAP1 PUSH2 0xF1 SWAP2 SWAP1 PUSH2 0x6C0 JUMP JUMPDEST PUSH2 0x29F JUMP JUMPDEST STOP JUMPDEST PUSH2 0x112 PUSH1 0x4 DUP1 CALLDATASIZE SUB DUP2 ADD SWAP1 PUSH2 0x10D SWAP2 SWAP1 PUSH2 0x735 JUMP JUMPDEST PUSH2 0x386 JUMP JUMPDEST STOP JUMPDEST PUSH1 0x60 PUSH1 0x40 MLOAD DUP1 PUSH1 0x40 ADD PUSH1 0x40 MSTORE DUP1 PUSH1 0x5 DUP2 MSTORE PUSH1 0x20 ADD PUSH32 0x4261736963000000000000000000000000000000000000000000000000000000 DUP2 MSTORE POP SWAP1 POP SWAP1 JUMP JUMPDEST PUSH0 PUSH1 0x2 SLOAD SWAP1 POP SWAP1 JUMP JUMPDEST PUSH1 0x60 PUSH0 PUSH0 SWAP1 SLOAD SWAP1 PUSH2 0x100 EXP SWAP1 DIV PUSH20 0xFFFFFFFFFFFFFFFFFFFFFFFFFFFFFFFFFFFFFFFF AND PUSH20 0xFFFFFFFFFFFFFFFFFFFFFFFFFFFFFFFFFFFFFFFF AND CALLER PUSH20 0xFFFFFFFFFFFFFFFFFFFFFFFFFFFFFFFFFFFFFFFF AND EQ PUSH2 0x1EA JUMPI PUSH1 0x40 MLOAD PUSH32 0x8C379A000000000000000000000000000000000000000000000000000000000 DUP2 MSTORE PUSH1 0x4 ADD PUSH2 0x1E1 SWAP1 PUSH2 0x7AA JUMP JUMPDEST PUSH1 0x40 MLOAD DUP1 SWAP2 SUB SWAP1 REVERT JUMPDEST PUSH1 0x1 DUP1 SLOAD PUSH2 0x1F7 SWAP1 PUSH2 0x7F5 JUMP JUMPDEST DUP1 PUSH1 0x1F ADD PUSH1 0x20 DUP1 SWAP2 DIV MUL PUSH1 0x20 ADD PUSH1 0x40 MLOAD SWAP1 DUP2 ADD PUSH1 0x40 MSTORE DUP1 SWAP3 SWAP2 SWAP1 DUP2 DUP2 MSTORE PUSH1 0x20 ADD DUP3 DUP1 SLOAD PUSH2 0x223 SWAP1 PUSH2 0x7F5 JUMP JUMPDEST DUP1 ISZERO PUSH2 0x26E JUMPI DUP1 PUSH1 0x1F LT PUSH2 0x245 JUMPI PUSH2 0x100 DUP1 DUP4 SLOAD DIV MUL DUP4 MSTORE SWAP2 PUSH1 0x20 ADD SWAP2 PUSH2 0x26E JUMP JUMPDEST DUP3 ADD SWAP2 SWAP1 PUSH0 MSTORE PUSH1 0x20 PUSH0 KECCAK256 SWAP1 JUMPDEST DUP2 SLOAD DUP2 MSTORE SWAP1 PUSH1 0x1 ADD SWAP1 PUSH1 0x20 ADD DUP1 DUP4 GT PUSH2 0x251 JUMPI DUP3 SWAP1 SUB PUSH1 0x1F AND DUP3 ADD SWAP2 JUMPDEST POP POP POP POP POP SWAP1 POP SWAP1 JUMP JUMPDEST PUSH0 PUSH0 PUSH0 SWAP1 SLOAD SWAP1 PUSH2 0x100 EXP SWAP1 DIV PUSH20 0xFFFFFFFFFFFFFFFFFFFFFFFFFFFFFFFFFFFFFFFF AND SWAP1 POP SWAP1 JUMP JUMPDEST PUSH0 PUSH0 SWAP1 SLOAD SWAP1 PUSH2 0x100 EXP SWAP1 DIV PUSH20 0xFFFFFFFFFFFFFFFFFFFFFFFFFFFFFFFFFFFFFFFF AND PUSH20 0xFFFFFFFFFFFFFFFFFFFFFFFFFFFFFFFFFFFFFFFF AND CALLER PUSH20 0xFFFFFFFFFFFFFFFFFFFFFFFFFFFFFFFFFFFFFFFF AND EQ PUSH2 0x32D JUMPI PUSH1 0x40 MLOAD PUSH32 0x8C379A000000000000000000000000000000000000000000000000000000000 DUP2 MSTORE PUSH1 0x4 ADD PUSH2 0x324 SWAP1 PUSH2 0x7AA JUMP JUMPDEST PUSH1 0x40 MLOAD DUP1 SWAP2 SUB SWAP1 REVERT JUMPDEST DUP2 DUP2 PUSH1 0x1 SWAP2 DUP3 PUSH2 0x33E SWAP3 SWAP2 SWAP1 PUSH2 0x9FC JUMP JUMPDEST POP CALLER PUSH20 0xFFFFFFFFFFFFFFFFFFFFFFFFFFFFFFFFFFFFFFFF AND PUSH32 0x977F4C93D6A66455EB4F1467E8A01FEC7C62B1CE20353FB51B7269712E11967 PUSH1 0x40 MLOAD PUSH1 0x40 MLOAD DUP1 SWAP2 SUB SWAP1 LOG2 POP POP JUMP JUMPDEST PUSH0 PUSH0 SWAP1 SLOAD SWAP1 PUSH2 0x100 EXP SWAP1 DIV PUSH20 0xFFFFFFFFFFFFFFFFFFFFFFFFFFFFFFFFFFFFFFFF AND PUSH20 0xFFFFFFFFFFFFFFFFFFFFFFFFFFFFFFFFFFFFFFFF AND CALLER PUSH20 0xFFFFFFFFFFFFFFFFFFFFFFFFFFFFFFFFFFFFFFFF AND EQ PUSH2 0x414 JUMPI PUSH1 0x40 MLOAD PUSH32 0x8C379A000000000000000000000000000000000000000000000000000000000 DUP2 MSTORE PUSH1 0x4 ADD PUSH2 0x40B SWAP1 PUSH2 0x7AA JUMP JUMPDEST PUSH1 0x40 MLOAD DUP1 SWAP2 SUB SWAP1 REVERT JUMPDEST PUSH0 PUSH20 0xFFFFFFFFFFFFFFFFFFFFFFFFFFFFFFFFFFFFFFFF AND DUP2 PUSH20 0xFFFFFFFFFFFFFFFFFFFFFFFFFFFFFFFFFFFFFFFF AND SUB PUSH2 0x482 JUMPI PUSH1 0x40 MLOAD PUSH32 0x8C379A000000000000000000000000000000000000000000000000000000000 DUP2 MSTORE PUSH1 0x4 ADD PUSH2 0x479 SWAP1 PUSH2 0xB13 JUMP JUMPDEST PUSH1 0x40 MLOAD DUP1 SWAP2 SUB SWAP1 REVERT JUMPDEST DUP1 PUSH20 0xFFFFFFFFFFFFFFFFFFFFFFFFFFFFFFFFFFFFFFFF AND PUSH0 PUSH0 SWAP1 SLOAD SWAP1 PUSH2 0x100 EXP SWAP1 DIV PUSH20 0xFFFFFFFFFFFFFFFFFFFFFFFFFFFFFFFFFFFFFFFF AND PUSH20 0xFFFFFFFFFFFFFFFFFFFFFFFFFFFFFFFFFFFFFFFF AND PUSH32 0x8BE0079C531659141344CD1FD0A4F28419497F9722A3DAAFE3B4186F6B6457E0 PUSH1 0x40 MLOAD PUSH1 0x40 MLOAD DUP1 SWAP2 SUB SWAP1 LOG3 DUP1 PUSH0 PUSH0 PUSH2 0x100 EXP DUP2 SLOAD DUP2 PUSH20 0xFFFFFFFFFFFFFFFFFFFFFFFFFFFFFFFFFFFFFFFF MUL NOT AND SWAP1 DUP4 PUSH20 0xFFFFFFFFFFFFFFFFFFFFFFFFFFFFFFFFFFFFFFFF AND MUL OR SWAP1 SSTORE POP POP JUMP JUMPDEST PUSH0 DUP2 MLOAD SWAP1 POP SWAP2 SWAP1 POP JUMP JUMPDEST PUSH0 DUP3 DUP3 MSTORE PUSH1 0x20 DUP3 ADD SWAP1 POP SWAP3 SWAP2 POP POP JUMP JUMPDEST DUP3 DUP2 DUP4 MCOPY PUSH0 DUP4 DUP4 ADD MSTORE POP POP POP JUMP JUMPDEST PUSH0 PUSH1 0x1F NOT PUSH1 0x1F DUP4 ADD AND SWAP1 POP SWAP2 SWAP1 POP JUMP JUMPDEST PUSH0 PUSH2 0x580 DUP3 PUSH2 0x53E JUMP JUMPDEST PUSH2 0x58A DUP2 DUP6 PUSH2 0x548 JUMP JUMPDEST SWAP4 POP PUSH2 0x59A DUP2 DUP6 PUSH1 0x20 DUP7 ADD PUSH2 0x558 JUMP JUMPDEST PUSH2 0x5A3 DUP2 PUSH2 0x566 JUMP JUMPDEST DUP5 ADD SWAP2 POP POP SWAP3 SWAP2 POP POP JUMP JUMPDEST PUSH0 PUSH1 0x20 DUP3 ADD SWAP1 POP DUP2 DUP2 SUB PUSH0 DUP4 ADD MSTORE PUSH2 0x5C6 DUP2 DUP5 PUSH2 0x576 JUMP JUMPDEST SWAP1 POP SWAP3 SWAP2 POP POP JUMP JUMPDEST PUSH0 DUP2 SWAP1 POP SWAP2 SWAP1 POP JUMP JUMPDEST PUSH2 0x5E0 DUP2 PUSH2 0x5CE JUMP JUMPDEST DUP3 MSTORE POP POP JUMP JUMPDEST PUSH0 PUSH1 0x20 DUP3 ADD SWAP1 POP PUSH2 0x5F9 PUSH0 DUP4 ADD DUP5 PUSH2 0x5D7 JUMP JUMPDEST SWAP3 SWAP2 POP POP JUMP JUMPDEST PUSH0 PUSH20 0xFFFFFFFFFFFFFFFFFFFFFFFFFFFFFFFFFFFFFFFF DUP3 AND SWAP1 POP SWAP2 SWAP1 POP JUMP JUMPDEST PUSH0 PUSH2 0x628 DUP3 PUSH2 0x5FF JUMP JUMPDEST SWAP1 POP SWAP2 SWAP1 POP JUMP JUMPDEST PUSH2 0x638 DUP2 PUSH2 0x61E JUMP JUMPDEST DUP3 MSTORE POP POP JUMP JUMPDEST PUSH0 PUSH1 0x20 DUP3 ADD SWAP1 POP PUSH2 0x651 PUSH0 DUP4 ADD DUP5 PUSH2 0x62F JUMP JUMPDEST SWAP3 SWAP2 POP POP JUMP JUMPDEST PUSH0 PUSH0 REVERT JUMPDEST PUSH0 PUSH0 REVERT JUMPDEST PUSH0 PUSH0 REVERT JUMPDEST PUSH0 PUSH0 REVERT JUMPDEST PUSH0 PUSH0 REVERT JUMPDEST PUSH0 PUSH0 DUP4 PUSH1 0x1F DUP5 ADD SLT PUSH2 0x680 JUMPI PUSH2 0x67F PUSH2 0x65F JUMP JUMPDEST JUMPDEST DUP3 CALLDATALOAD SWAP1 POP PUSH8 0xFFFFFFFFFFFFFFFF DUP2 GT ISZERO PUSH2 0x69D JUMPI PUSH2 0x69C PUSH2 0x663 JUMP JUMPDEST JUMPDEST PUSH1 0x20 DUP4 ADD SWAP2 POP DUP4 PUSH1 0x1 DUP3 MUL DUP4 ADD GT ISZERO PUSH2 0x6B9 JUMPI PUSH2 0x6B8 PUSH2 0x667 JUMP JUMPDEST JUMPDEST SWAP3 POP SWAP3 SWAP1 POP JUMP JUMPDEST PUSH0 PUSH0 PUSH1 0x20 DUP4 DUP6 SUB SLT ISZERO PUSH2 0x6D6 JUMPI PUSH2 0x6D5 PUSH2 0x657 JUMP JUMPDEST JUMPDEST PUSH0 DUP4 ADD CALLDATALOAD PUSH8 0xFFFFFFFFFFFFFFFF DUP2 GT ISZERO PUSH2 0x6F3 JUMPI PUSH2 0x6F2 PUSH2 0x65B JUMP JUMPDEST JUMPDEST PUSH2 0x6FF DUP6 DUP3 DUP7 ADD PUSH2 0x66B JUMP JUMPDEST SWAP3 POP SWAP3 POP POP SWAP3 POP SWAP3 SWAP1 POP JUMP JUMPDEST PUSH2 0x714 DUP2 PUSH2 0x61E JUMP JUMPDEST DUP2 EQ PUSH2 0x71E JUMPI PUSH0 PUSH0 REVERT JUMPDEST POP JUMP JUMPDEST PUSH0 DUP2 CALLDATALOAD SWAP1 POP PUSH2 0x72F DUP2 PUSH2 0x70B JUMP JUMPDEST SWAP3 SWAP2 POP POP JUMP JUMPDEST PUSH0 PUSH1 0x20 DUP3 DUP5 SUB SLT ISZERO PUSH2 0x74A JUMPI PUSH2 0x749 PUSH2 0x657 JUMP JUMPDEST JUMPDEST PUSH0 PUSH2 0x757 DUP5 DUP3 DUP6 ADD PUSH2 0x721 JUMP JUMPDEST SWAP2 POP POP SWAP3 SWAP2 POP POP JUMP JUMPDEST PUSH32 0x4E6F742074686520626F78206F776E6572000000000000000000000000000000 PUSH0 DUP3 ADD MSTORE POP JUMP JUMPDEST PUSH0 PUSH2 0x794 PUSH1 0x11 DUP4 PUSH2 0x548 JUMP JUMPDEST SWAP2 POP PUSH2 0x79F DUP3 PUSH2 0x760 JUMP JUMPDEST PUSH1 0x20 DUP3 ADD SWAP1 POP SWAP2 SWAP1 POP JUMP JUMPDEST PUSH0 PUSH1 0x20 DUP3 ADD SWAP1 POP DUP2 DUP2 SUB PUSH0 DUP4 ADD MSTORE PUSH2 0x7C1 DUP2 PUSH2 0x788 JUMP JUMPDEST SWAP1 POP SWAP2 SWAP1 POP JUMP JUMPDEST PUSH32 0x4E487B7100000000000000000000000000000000000000000000000000000000 PUSH0 MSTORE PUSH1 0x22 PUSH1 0x4 MSTORE PUSH1 0x24 PUSH0 REVERT JUMPDEST PUSH0 PUSH1 0x2 DUP3 DIV SWAP1 POP PUSH1 0x1 DUP3 AND DUP1 PUSH2 0x80C JUMPI PUSH1 0x7F DUP3 AND SWAP2 POP JUMPDEST PUSH1 0x20 DUP3 LT DUP2 SUB PUSH2 0x81F JUMPI PUSH2 0x81E PUSH2 0x7C8 JUMP JUMPDEST JUMPDEST POP SWAP2 SWAP1 POP JUMP JUMPDEST PUSH0 DUP3 SWAP1 POP SWAP3 SWAP2 POP POP JUMP JUMPDEST PUSH32 0x4E487B7100000000000000000000000000000000000000000000000000000000 PUSH0 MSTORE PUSH1 0x41 PUSH1 0x4 MSTORE PUSH1 0x24 PUSH0 REVERT JUMPDEST PUSH0 DUP2 SWAP1 POP DUP2 PUSH0 MSTORE PUSH1 0x20 PUSH0 KECCAK256 SWAP1 POP SWAP2 SWAP1 POP JUMP JUMPDEST PUSH0 PUSH1 0x20 PUSH1 0x1F DUP4 ADD DIV SWAP1 POP SWAP2 SWAP1 POP JUMP JUMPDEST PUSH0 DUP3 DUP3 SHL SWAP1 POP SWAP3 SWAP2 POP POP JUMP JUMPDEST PUSH0 PUSH1 0x8 DUP4 MUL PUSH2 0x8B8 PUSH32 0xFFFFFFFFFFFFFFFFFFFFFFFFFFFFFFFFFFFFFFFFFFFFFFFFFFFFFFFFFFFFFFFF DUP3 PUSH2 0x87D JUMP JUMPDEST PUSH2 0x8C2 DUP7 DUP4 PUSH2 0x87D JUMP JUMPDEST SWAP6 POP DUP1 NOT DUP5 AND SWAP4 POP DUP1 DUP7 AND DUP5 OR SWAP3 POP POP POP SWAP4 SWAP3 POP POP POP JUMP JUMPDEST PUSH0 DUP2 SWAP1 POP SWAP2 SWAP1 POP JUMP JUMPDEST PUSH0 PUSH2 0x8FD PUSH2 0x8F8 PUSH2 0x8F3 DUP5 PUSH2 0x5CE JUMP JUMPDEST PUSH2 0x8DA JUMP JUMPDEST PUSH2 0x5CE JUMP JUMPDEST SWAP1 POP SWAP2 SWAP1 POP JUMP JUMPDEST PUSH0 DUP2 SWAP1 POP SWAP2 SWAP1 POP JUMP JUMPDEST PUSH2 0x916 DUP4 PUSH2 0x8E3 JUMP JUMPDEST PUSH2 0x92A PUSH2 0x922 DUP3 PUSH2 0x904 JUMP JUMPDEST DUP5 DUP5 SLOAD PUSH2 0x889 JUMP JUMPDEST DUP3 SSTORE POP POP POP POP JUMP JUMPDEST PUSH0 PUSH0 SWAP1 POP SWAP1 JUMP JUMPDEST PUSH2 0x941 PUSH2 0x932 JUMP JUMPDEST PUSH2 0x94C DUP2 DUP5 DUP5 PUSH2 0x90D JUMP JUMPDEST POP POP POP JUMP JUMPDEST JUMPDEST DUP2 DUP2 LT ISZERO PUSH2 0x96F JUMPI PUSH2 0x964 PUSH0 DUP3 PUSH2 0x939 JUMP JUMPDEST PUSH1 0x1 DUP2 ADD SWAP1 POP PUSH2 0x952 JUMP JUMPDEST POP POP JUMP JUMPDEST PUSH1 0x1F DUP3 GT ISZERO PUSH2 0x9B4 JUMPI PUSH2 0x985 DUP2 PUSH2 0x85C JUMP JUMPDEST PUSH2 0x98E DUP5 PUSH2 0x86E JUMP JUMPDEST DUP2 ADD PUSH1 0x20 DUP6 LT ISZERO PUSH2 0x99D JUMPI DUP2 SWAP1 POP JUMPDEST PUSH2 0x9B1 PUSH2 0x9A9 DUP6 PUSH2 0x86E JUMP JUMPDEST DUP4 ADD DUP3 PUSH2 0x951 JUMP JUMPDEST POP POP JUMPDEST POP POP POP JUMP JUMPDEST PUSH0 DUP3 DUP3 SHR SWAP1 POP SWAP3 SWAP2 POP POP JUMP JUMPDEST PUSH0 PUSH2 0x9D4 PUSH0 NOT DUP5 PUSH1 0x8 MUL PUSH2 0x9B9 JUMP JUMPDEST NOT DUP1 DUP4 AND SWAP2 POP POP SWAP3 SWAP2 POP POP JUMP JUMPDEST PUSH0 PUSH2 0x9EC DUP4 DUP4 PUSH2 0x9C5 JUMP JUMPDEST SWAP2 POP DUP3 PUSH1 0x2 MUL DUP3 OR SWAP1 POP SWAP3 SWAP2 POP POP JUMP JUMPDEST PUSH2 0xA06 DUP4 DUP4 PUSH2 0x825 JUMP JUMPDEST PUSH8 0xFFFFFFFFFFFFFFFF DUP2 GT ISZERO PUSH2 0xA1F JUMPI PUSH2 0xA1E PUSH2 0x82F JUMP JUMPDEST JUMPDEST PUSH2 0xA29 DUP3 SLOAD PUSH2 0x7F5 JUMP JUMPDEST PUSH2 0xA34 DUP3 DUP3 DUP6 PUSH2 0x973 JUMP JUMPDEST PUSH0 PUSH1 0x1F DUP4 GT PUSH1 0x1 DUP2 EQ PUSH2 0xA61 JUMPI PUSH0 DUP5 ISZERO PUSH2 0xA4F JUMPI DUP3 DUP8 ADD CALLDATALOAD SWAP1 POP JUMPDEST PUSH2 0xA59 DUP6 DUP3 PUSH2 0x9E1 JUMP JUMPDEST DUP7 SSTORE POP PUSH2 0xAC0 JUMP JUMPDEST PUSH1 0x1F NOT DUP5 AND PUSH2 0xA6F DUP7 PUSH2 0x85C JUMP JUMPDEST PUSH0 JUMPDEST DUP3 DUP2 LT ISZERO PUSH2 0xA96 JUMPI DUP5 DUP10 ADD CALLDATALOAD DUP3 SSTORE PUSH1 0x1 DUP3 ADD SWAP2 POP PUSH1 0x20 DUP6 ADD SWAP5 POP PUSH1 0x20 DUP2 ADD SWAP1 POP PUSH2 0xA71 JUMP JUMPDEST DUP7 DUP4 LT ISZERO PUSH2 0xAB3 JUMPI DUP5 DUP10 ADD CALLDATALOAD PUSH2 0xAAF PUSH1 0x1F DUP10 AND DUP3 PUSH2 0x9C5 JUMP JUMPDEST DUP4 SSTORE POP JUMPDEST PUSH1 0x1 PUSH1 0x2 DUP9 MUL ADD DUP9 SSTORE POP POP POP JUMPDEST POP POP POP POP POP POP POP JUMP JUMPDEST PUSH32 0x4E6577206F776E65722063616E6E6F74206265207A65726F2061646472657373 PUSH0 DUP3 ADD MSTORE POP JUMP JUMPDEST PUSH0 PUSH2 0xAFD PUSH1 0x20 DUP4 PUSH2 0x548 JUMP JUMPDEST SWAP2 POP PUSH2 0xB08 DUP3 PUSH2 0xAC9 JUMP JUMPDEST PUSH1 0x20 DUP3 ADD SWAP1 POP SWAP2 SWAP1 POP JUMP JUMPDEST PUSH0 PUSH1 0x20 DUP3 ADD SWAP1 POP DUP2 DUP2 SUB PUSH0 DUP4 ADD MSTORE PUSH2 0xB2A DUP2 PUSH2 0xAF1 JUMP JUMPDEST SWAP1 POP SWAP2 SWAP1 POP JUMP INVALID LOG2 PUSH5 0x6970667358 0x22 SLT KECCAK256 0x28 POP NOT 0x4C 0xF 0x28 SWAP2 CODESIZE LOG0 0xD6 DUP10 0x27 0xC1 SWAP9 LOG4 0x26 0xCD CALLVALUE DUP7 RJUMPI 0x7DE2 DUPN 0x33 DUP16 CODECOPY PUSH16 0x6C601F72BD64736F6C634300081E0033 "
				},
				"gasEstimates": {
					"creation": {
						"codeDepositCost": "583800",
						"executionCost": "46994",
						"totalCost": "630794"
					},
					"external": {
						"getBoxType()": "infinite",
						"getDepositTime()": "2432",
						"getOwner()": "2558",
						"getSecret()": "infinite",
						"storeSecret(string)": "infinite",
						"transferOwnership(address)": "30683"
					}
				},
				"methodIdentifiers": {
					"getBoxType()": "04199139",
					"getDepositTime()": "51811f04",
					"getOwner()": "893d20e8",
					"getSecret()": "5b9fdc30",
					"storeSecret(string)": "a14ab9f8",
					"transferOwnership(address)": "f2fde38b"
				}
			},
			"storageLayout": {
				"storage": [
					{
						"astId": 6,
						"contract": "submissions/Zora/BasicDepositBox.sol:BasicDepositBox",
						"label": "owner",
						"offset": 0,
						"slot": "0",
						"type": "t_address"
					},
					{
						"astId": 8,
						"contract": "submissions/Zora/BasicDepositBox.sol:BasicDepositBox",
						"label": "secret",
						"offset": 0,
						"slot": "1",
						"type": "t_string_storage"
					},
					{
						"astId": 10,
						"contract": "submissions/Zora/BasicDepositBox.sol:BasicDepositBox",
						"label": "depositTime",
						"offset": 0,
						"slot": "2",
						"type": "t_uint256"
					}
				],
				"types": {
					"t_address": {
						"encoding": "inplace",
						"label": "address",
						"numberOfBytes": "20"
					},
					"t_string_storage": {
						"encoding": "bytes",
						"label": "string",
						"numberOfBytes": "32"
					},
					"t_uint256": {
						"encoding": "inplace",
						"label": "uint256",
						"numberOfBytes": "32"
					}
				}
			},
			"userdoc": {
				"kind": "user",
				"methods": {},
				"version": 1
			}
		}
	}
}