{
	"data": {
		"bytecode": {
			"linkReferences": {},
			"object": "608060405234801561000f575f5ffd5b50604051612a79380380612a79833981810160405281019061003191906102c5565b818181600390816100429190610571565b5080600490816100529190610571565b5050508360055f6101000a81548173ffffffffffffffffffffffffffffffffffffffff021916908373ffffffffffffffffffffffffffffffffffffffff1602179055508260065f6101000a81548173ffffffffffffffffffffffffffffffffffffffff021916908373ffffffffffffffffffffffffffffffffffffffff1602179055503360095f6101000a81548173ffffffffffffffffffffffffffffffffffffffff021916908373ffffffffffffffffffffffffffffffffffffffff16021790555050505050610640565b5f604051905090565b5f5ffd5b5f5ffd5b5f73ffffffffffffffffffffffffffffffffffffffff82169050919050565b5f6101588261012f565b9050919050565b6101688161014e565b8114610172575f5ffd5b50565b5f815190506101838161015f565b92915050565b5f5ffd5b5f5ffd5b5f601f19601f8301169050919050565b7f4e487b71000000000000000000000000000000000000000000000000000000005f52604160045260245ffd5b6101d782610191565b810181811067ffffffffffffffff821117156101f6576101f56101a1565b5b80604052505050565b5f61020861011e565b905061021482826101ce565b919050565b5f67ffffffffffffffff821115610233576102326101a1565b5b61023c82610191565b9050602081019050919050565b8281835e5f83830152505050565b5f61026961026484610219565b6101ff565b9050828152602081018484840111156102855761028461018d565b5b610290848285610249565b509392505050565b5f82601f8301126102ac576102ab610189565b5b81516102bc848260208601610257565b91505092915050565b5f5f5f5f608085870312156102dd576102dc610127565b5b5f6102ea87828801610175565b94505060206102fb87828801610175565b935050604085015167ffffffffffffffff81111561031c5761031b61012b565b5b61032887828801610298565b925050606085015167ffffffffffffffff8111156103495761034861012b565b5b61035587828801610298565b91505092959194509250565b5f81519050919050565b7f4e487b71000000000000000000000000000000000000000000000000000000005f52602260045260245ffd5b5f60028204905060018216806103af57607f821691505b6020821081036103c2576103c161036b565b5b50919050565b5f819050815f5260205f209050919050565b5f6020601f8301049050919050565b5f82821b905092915050565b5f600883026104247fffffffffffffffffffffffffffffffffffffffffffffffffffffffffffffffff826103e9565b61042e86836103e9565b95508019841693508086168417925050509392505050565b5f819050919050565b5f819050919050565b5f61047261046d61046884610446565b61044f565b610446565b9050919050565b5f819050919050565b61048b83610458565b61049f61049782610479565b8484546103f5565b825550505050565b5f5f905090565b6104b66104a7565b6104c1818484610482565b505050565b5b818110156104e4576104d95f826104ae565b6001810190506104c7565b5050565b601f821115610529576104fa816103c8565b610503846103da565b81016020851015610512578190505b61052661051e856103da565b8301826104c6565b50505b505050565b5f82821c905092915050565b5f6105495f198460080261052e565b1980831691505092915050565b5f610561838361053a565b9150826002028217905092915050565b61057a82610361565b67ffffffffffffffff811115610593576105926101a1565b5b61059d8254610398565b6105a88282856104e8565b5f60209050601f8311600181146105d9575f84156105c7578287015190505b6105d18582610556565b865550610638565b601f1984166105e7866103c8565b5f5b8281101561060e578489015182556001820191506020850194506020810190506105e9565b8683101561062b5784890151610627601f89168261053a565b8355505b6001600288020188555050505b505050505050565b61242c8061064d5f395ff3fe608060405234801561000f575f5ffd5b506004361061011f575f3560e01c80635f64b55b116100ab5780639cd441da1161006f5780639cd441da1461030f578063a9059cbb1461032b578063c915cc241461035b578063dc5fa6c514610377578063dd62ed3e146103955761011f565b80635f64b55b1461025457806370a08231146102725780638da5cb5b146102a257806395d89b41146102c05780639c8f9f23146102de5761011f565b8063140e6247116100f2578063140e6247146101ae57806318160ddd146101ca57806319e36f3b146101e857806323b872dd14610206578063313ce567146102365761011f565b806306fdde03146101235780630902f1ac14610141578063095ea7b3146101605780630fc63d1014610190575b5f5ffd5b61012b6103c5565b6040516101389190611a41565b60405180910390f35b610149610455565b604051610157929190611a79565b60405180910390f35b61017a60048036038101906101759190611b28565b610465565b6040516101879190611b80565b60405180910390f35b610198610487565b6040516101a59190611bf4565b60405180910390f35b6101c860048036038101906101c39190611c0d565b6104ac565b005b6101d26107d1565b6040516101df9190611c4b565b60405180910390f35b6101f06107da565b6040516101fd9190611c4b565b60405180910390f35b610220600480360381019061021b9190611c64565b6107e0565b60405161022d9190611b80565b60405180910390f35b61023e61080e565b60405161024b9190611ccf565b60405180910390f35b61025c610816565b6040516102699190611bf4565b60405180910390f35b61028c60048036038101906102879190611ce8565b61083b565b6040516102999190611c4b565b60405180910390f35b6102aa610880565b6040516102b79190611d22565b60405180910390f35b6102c86108a5565b6040516102d59190611a41565b60405180910390f35b6102f860048036038101906102f39190611d3b565b610935565b604051610306929190611a79565b60405180910390f35b61032960048036038101906103249190611c0d565b610c60565b005b61034560048036038101906103409190611b28565b610ef1565b6040516103529190611b80565b60405180910390f35b61037560048036038101906103709190611c0d565b610f13565b005b61037f611238565b60405161038c9190611c4b565b60405180910390f35b6103af60048036038101906103aa9190611d66565b61123e565b6040516103bc9190611c4b565b60405180910390f35b6060600380546103d490611dd1565b80601f016020809104026020016040519081016040528092919081815260200182805461040090611dd1565b801561044b5780601f106104225761010080835404028352916020019161044b565b820191905f5260205f20905b81548152906001019060200180831161042e57829003601f168201915b5050505050905090565b5f5f600754600854915091509091565b5f5f61046f6112c0565b905061047c8185856112c7565b600191505092915050565b60055f9054906101000a900473ffffffffffffffffffffffffffffffffffffffff1681565b5f82116104ee576040517f08c379a00000000000000000000000000000000000000000000000000000000081526004016104e590611e4b565b60405180910390fd5b5f60075411801561050057505f600854115b61053f576040517f08c379a000000000000000000000000000000000000000000000000000000000815260040161053690611eb3565b60405180910390fd5b5f6103e86103e5846105519190611efe565b61055b9190611f6c565b90505f8160075461056c9190611f9c565b8260085461057a9190611efe565b6105849190611f6c565b9050828110156105c9576040517f08c379a00000000000000000000000000000000000000000000000000000000081526004016105c090612019565b60405180910390fd5b60055f9054906101000a900473ffffffffffffffffffffffffffffffffffffffff1673ffffffffffffffffffffffffffffffffffffffff166323b872dd3330876040518463ffffffff1660e01b815260040161062793929190612037565b6020604051808303815f875af1158015610643573d5f5f3e3d5ffd5b505050506040513d601f19601f820116820180604052508101906106679190612096565b5060065f9054906101000a900473ffffffffffffffffffffffffffffffffffffffff1673ffffffffffffffffffffffffffffffffffffffff1663a9059cbb33836040518363ffffffff1660e01b81526004016106c49291906120c1565b6020604051808303815f875af11580156106e0573d5f5f3e3d5ffd5b505050506040513d601f19601f820116820180604052508101906107049190612096565b508160075f8282546107169190611f9c565b925050819055508060085f82825461072e91906120e8565b925050819055503373ffffffffffffffffffffffffffffffffffffffff167f631fb37dba9bbcb8b2f3be2d669e365ae9f1bd850cc57dfe8b7ccd7d979a2bba60055f9054906101000a900473ffffffffffffffffffffffffffffffffffffffff168660065f9054906101000a900473ffffffffffffffffffffffffffffffffffffffff16856040516107c3949392919061211b565b60405180910390a250505050565b5f600254905090565b60085481565b5f5f6107ea6112c0565b90506107f78582856112d9565b61080285858561136c565b60019150509392505050565b5f6012905090565b60065f9054906101000a900473ffffffffffffffffffffffffffffffffffffffff1681565b5f5f5f8373ffffffffffffffffffffffffffffffffffffffff1673ffffffffffffffffffffffffffffffffffffffff1681526020019081526020015f20549050919050565b60095f9054906101000a900473ffffffffffffffffffffffffffffffffffffffff1681565b6060600480546108b490611dd1565b80601f01602080910402602001604051908101604052809291908181526020018280546108e090611dd1565b801561092b5780601f106109025761010080835404028352916020019161092b565b820191905f5260205f20905b81548152906001019060200180831161090e57829003601f168201915b5050505050905090565b5f5f5f8311610979576040517f08c379a0000000000000000000000000000000000000000000000000000000008152600401610970906121a8565b60405180910390fd5b826109833361083b565b10156109c4576040517f08c379a00000000000000000000000000000000000000000000000000000000081526004016109bb90612210565b60405180910390fd5b5f6109cd6107d1565b90505f8111610a11576040517f08c379a0000000000000000000000000000000000000000000000000000000008152600401610a0890612278565b60405180910390fd5b8060075485610a209190611efe565b610a2a9190611f6c565b92508060085485610a3b9190611efe565b610a459190611f6c565b91505f83118015610a5557505f82115b610a94576040517f08c379a0000000000000000000000000000000000000000000000000000000008152600401610a8b90612306565b60405180910390fd5b8260075f828254610aa591906120e8565b925050819055508160085f828254610abd91906120e8565b92505081905550610ace338561145c565b60055f9054906101000a900473ffffffffffffffffffffffffffffffffffffffff1673ffffffffffffffffffffffffffffffffffffffff1663a9059cbb33856040518363ffffffff1660e01b8152600401610b2a9291906120c1565b6020604051808303815f875af1158015610b46573d5f5f3e3d5ffd5b505050506040513d601f19601f82011682018060405250810190610b6a9190612096565b5060065f9054906101000a900473ffffffffffffffffffffffffffffffffffffffff1673ffffffffffffffffffffffffffffffffffffffff1663a9059cbb33846040518363ffffffff1660e01b8152600401610bc79291906120c1565b6020604051808303815f875af1158015610be3573d5f5f3e3d5ffd5b505050506040513d601f19601f82011682018060405250810190610c079190612096565b503373ffffffffffffffffffffffffffffffffffffffff167f1dc8bb69df2b8e91fbdcbfcf93d951b3f0000f085a95fe3f7946d6161439245d848487604051610c5293929190612324565b60405180910390a250915091565b5f82118015610c6e57505f81115b610cad576040517f08c379a0000000000000000000000000000000000000000000000000000000008152600401610ca4906123a3565b60405180910390fd5b60055f9054906101000a900473ffffffffffffffffffffffffffffffffffffffff1673ffffffffffffffffffffffffffffffffffffffff166323b872dd3330856040518463ffffffff1660e01b8152600401610d0b93929190612037565b6020604051808303815f875af1158015610d27573d5f5f3e3d5ffd5b505050506040513d601f19601f82011682018060405250810190610d4b9190612096565b5060065f9054906101000a900473ffffffffffffffffffffffffffffffffffffffff1673ffffffffffffffffffffffffffffffffffffffff166323b872dd3330846040518463ffffffff1660e01b8152600401610daa93929190612037565b6020604051808303815f875af1158015610dc6573d5f5f3e3d5ffd5b505050506040513d601f19601f82011682018060405250810190610dea9190612096565b505f5f610df56107d1565b03610e1557610e0e8284610e099190611efe565b6114db565b9050610e60565b610e5d600754610e236107d1565b85610e2e9190611efe565b610e389190611f6c565b600854610e436107d1565b85610e4e9190611efe565b610e589190611f6c565b611552565b90505b610e6a338261156a565b8260075f828254610e7b9190611f9c565b925050819055508160085f828254610e939190611f9c565b925050819055503373ffffffffffffffffffffffffffffffffffffffff167f64b83944e79c3ce8d4c297411de637c3e102d064677aac0c163976ebdcd6f50e848484604051610ee493929190612324565b60405180910390a2505050565b5f5f610efb6112c0565b9050610f0881858561136c565b600191505092915050565b5f8211610f55576040517f08c379a0000000000000000000000000000000000000000000000000000000008152600401610f4c90611e4b565b60405180910390fd5b5f600754118015610f6757505f600854115b610fa6576040517f08c379a0000000000000000000000000000000000000000000000000000000008152600401610f9d90611eb3565b60405180910390fd5b5f6103e86103e584610fb89190611efe565b610fc29190611f6c565b90505f81600854610fd39190611f9c565b82600754610fe19190611efe565b610feb9190611f6c565b905082811015611030576040517f08c379a000000000000000000000000000000000000000000000000000000000815260040161102790612019565b60405180910390fd5b60065f9054906101000a900473ffffffffffffffffffffffffffffffffffffffff1673ffffffffffffffffffffffffffffffffffffffff166323b872dd3330876040518463ffffffff1660e01b815260040161108e93929190612037565b6020604051808303815f875af11580156110aa573d5f5f3e3d5ffd5b505050506040513d601f19601f820116820180604052508101906110ce9190612096565b5060055f9054906101000a900473ffffffffffffffffffffffffffffffffffffffff1673ffffffffffffffffffffffffffffffffffffffff1663a9059cbb33836040518363ffffffff1660e01b815260040161112b9291906120c1565b6020604051808303815f875af1158015611147573d5f5f3e3d5ffd5b505050506040513d601f19601f8201168201806040525081019061116b9190612096565b508160085f82825461117d9190611f9c565b925050819055508060075f82825461119591906120e8565b925050819055503373ffffffffffffffffffffffffffffffffffffffff167f631fb37dba9bbcb8b2f3be2d669e365ae9f1bd850cc57dfe8b7ccd7d979a2bba60065f9054906101000a900473ffffffffffffffffffffffffffffffffffffffff168660055f9054906101000a900473ffffffffffffffffffffffffffffffffffffffff168560405161122a949392919061211b565b60405180910390a250505050565b60075481565b5f60015f8473ffffffffffffffffffffffffffffffffffffffff1673ffffffffffffffffffffffffffffffffffffffff1681526020019081526020015f205f8373ffffffffffffffffffffffffffffffffffffffff1673ffffffffffffffffffffffffffffffffffffffff1681526020019081526020015f2054905092915050565b5f33905090565b6112d483838360016115e9565b505050565b5f6112e4848461123e565b90507fffffffffffffffffffffffffffffffffffffffffffffffffffffffffffffffff8110156113665781811015611357578281836040517ffb8f41b200000000000000000000000000000000000000000000000000000000815260040161134e939291906123c1565b60405180910390fd5b61136584848484035f6115e9565b5b50505050565b5f73ffffffffffffffffffffffffffffffffffffffff168373ffffffffffffffffffffffffffffffffffffffff16036113dc575f6040517f96c6fd1e0000000000000000000000000000000000000000000000000000000081526004016113d39190611d22565b60405180910390fd5b5f73ffffffffffffffffffffffffffffffffffffffff168273ffffffffffffffffffffffffffffffffffffffff160361144c575f6040517fec442f050000000000000000000000000000000000000000000000000000000081526004016114439190611d22565b60405180910390fd5b6114578383836117b8565b505050565b5f73ffffffffffffffffffffffffffffffffffffffff168273ffffffffffffffffffffffffffffffffffffffff16036114cc575f6040517f96c6fd1e0000000000000000000000000000000000000000000000000000000081526004016114c39190611d22565b60405180910390fd5b6114d7825f836117b8565b5050565b5f6003821115611540578190505f60016002846114f89190611f6c565b6115029190611f9c565b90505b8181101561153a57809150600281828561151f9190611f6c565b6115299190611f9c565b6115339190611f6c565b9050611505565b5061154d565b5f821461154c57600190505b5b919050565b5f8183106115605781611562565b825b905092915050565b5f73ffffffffffffffffffffffffffffffffffffffff168273ffffffffffffffffffffffffffffffffffffffff16036115da575f6040517fec442f050000000000000000000000000000000000000000000000000000000081526004016115d19190611d22565b60405180910390fd5b6115e55f83836117b8565b5050565b5f73ffffffffffffffffffffffffffffffffffffffff168473ffffffffffffffffffffffffffffffffffffffff1603611659575f6040517fe602df050000000000000000000000000000000000000000000000000000000081526004016116509190611d22565b60405180910390fd5b5f73ffffffffffffffffffffffffffffffffffffffff168373ffffffffffffffffffffffffffffffffffffffff16036116c9575f6040517f94280d620000000000000000000000000000000000000000000000000000000081526004016116c09190611d22565b60405180910390fd5b8160015f8673ffffffffffffffffffffffffffffffffffffffff1673ffffffffffffffffffffffffffffffffffffffff1681526020019081526020015f205f8573ffffffffffffffffffffffffffffffffffffffff1673ffffffffffffffffffffffffffffffffffffffff1681526020019081526020015f208190555080156117b2578273ffffffffffffffffffffffffffffffffffffffff168473ffffffffffffffffffffffffffffffffffffffff167f8c5be1e5ebec7d5bd14f71427d1e84f3dd0314c0f7b2291e5b200ac8c7c3b925846040516117a99190611c4b565b60405180910390a35b50505050565b5f73ffffffffffffffffffffffffffffffffffffffff168373ffffffffffffffffffffffffffffffffffffffff1603611808578060025f8282546117fc9190611f9c565b925050819055506118d6565b5f5f5f8573ffffffffffffffffffffffffffffffffffffffff1673ffffffffffffffffffffffffffffffffffffffff1681526020019081526020015f2054905081811015611891578381836040517fe450d38c000000000000000000000000000000000000000000000000000000008152600401611888939291906123c1565b60405180910390fd5b8181035f5f8673ffffffffffffffffffffffffffffffffffffffff1673ffffffffffffffffffffffffffffffffffffffff1681526020019081526020015f2081905550505b5f73ffffffffffffffffffffffffffffffffffffffff168273ffffffffffffffffffffffffffffffffffffffff160361191d578060025f8282540392505081905550611967565b805f5f8473ffffffffffffffffffffffffffffffffffffffff1673ffffffffffffffffffffffffffffffffffffffff1681526020019081526020015f205f82825401925050819055505b8173ffffffffffffffffffffffffffffffffffffffff168373ffffffffffffffffffffffffffffffffffffffff167fddf252ad1be2c89b69c2b068fc378daa952ba7f163c4a11628f55a4df523b3ef836040516119c49190611c4b565b60405180910390a3505050565b5f81519050919050565b5f82825260208201905092915050565b8281835e5f83830152505050565b5f601f19601f8301169050919050565b5f611a13826119d1565b611a1d81856119db565b9350611a2d8185602086016119eb565b611a36816119f9565b840191505092915050565b5f6020820190508181035f830152611a598184611a09565b905092915050565b5f819050919050565b611a7381611a61565b82525050565b5f604082019050611a8c5f830185611a6a565b611a996020830184611a6a565b9392505050565b5f5ffd5b5f73ffffffffffffffffffffffffffffffffffffffff82169050919050565b5f611acd82611aa4565b9050919050565b611add81611ac3565b8114611ae7575f5ffd5b50565b5f81359050611af881611ad4565b92915050565b611b0781611a61565b8114611b11575f5ffd5b50565b5f81359050611b2281611afe565b92915050565b5f5f60408385031215611b3e57611b3d611aa0565b5b5f611b4b85828601611aea565b9250506020611b5c85828601611b14565b9150509250929050565b5f8115159050919050565b611b7a81611b66565b82525050565b5f602082019050611b935f830184611b71565b92915050565b5f819050919050565b5f611bbc611bb7611bb284611aa4565b611b99565b611aa4565b9050919050565b5f611bcd82611ba2565b9050919050565b5f611bde82611bc3565b9050919050565b611bee81611bd4565b82525050565b5f602082019050611c075f830184611be5565b92915050565b5f5f60408385031215611c2357611c22611aa0565b5b5f611c3085828601611b14565b9250506020611c4185828601611b14565b9150509250929050565b5f602082019050611c5e5f830184611a6a565b92915050565b5f5f5f60608486031215611c7b57611c7a611aa0565b5b5f611c8886828701611aea565b9350506020611c9986828701611aea565b9250506040611caa86828701611b14565b9150509250925092565b5f60ff82169050919050565b611cc981611cb4565b82525050565b5f602082019050611ce25f830184611cc0565b92915050565b5f60208284031215611cfd57611cfc611aa0565b5b5f611d0a84828501611aea565b91505092915050565b611d1c81611ac3565b82525050565b5f602082019050611d355f830184611d13565b92915050565b5f60208284031215611d5057611d4f611aa0565b5b5f611d5d84828501611b14565b91505092915050565b5f5f60408385031215611d7c57611d7b611aa0565b5b5f611d8985828601611aea565b9250506020611d9a85828601611aea565b9150509250929050565b7f4e487b71000000000000000000000000000000000000000000000000000000005f52602260045260245ffd5b5f6002820490506001821680611de857607f821691505b602082108103611dfb57611dfa611da4565b5b50919050565b7f416d6f756e74206d757374206265203e203000000000000000000000000000005f82015250565b5f611e356012836119db565b9150611e4082611e01565b602082019050919050565b5f6020820190508181035f830152611e6281611e29565b9050919050565b7f496e73756666696369656e7420726573657276657300000000000000000000005f82015250565b5f611e9d6015836119db565b9150611ea882611e69565b602082019050919050565b5f6020820190508181035f830152611eca81611e91565b9050919050565b7f4e487b71000000000000000000000000000000000000000000000000000000005f52601160045260245ffd5b5f611f0882611a61565b9150611f1383611a61565b9250828202611f2181611a61565b91508282048414831517611f3857611f37611ed1565b5b5092915050565b7f4e487b71000000000000000000000000000000000000000000000000000000005f52601260045260245ffd5b5f611f7682611a61565b9150611f8183611a61565b925082611f9157611f90611f3f565b5b828204905092915050565b5f611fa682611a61565b9150611fb183611a61565b9250828201905080821115611fc957611fc8611ed1565b5b92915050565b7f536c69707061676520746f6f20686967680000000000000000000000000000005f82015250565b5f6120036011836119db565b915061200e82611fcf565b602082019050919050565b5f6020820190508181035f83015261203081611ff7565b9050919050565b5f60608201905061204a5f830186611d13565b6120576020830185611d13565b6120646040830184611a6a565b949350505050565b61207581611b66565b811461207f575f5ffd5b50565b5f815190506120908161206c565b92915050565b5f602082840312156120ab576120aa611aa0565b5b5f6120b884828501612082565b91505092915050565b5f6040820190506120d45f830185611d13565b6120e16020830184611a6a565b9392505050565b5f6120f282611a61565b91506120fd83611a61565b925082820390508181111561211557612114611ed1565b5b92915050565b5f60808201905061212e5f830187611d13565b61213b6020830186611a6a565b6121486040830185611d13565b6121556060830184611a6a565b95945050505050565b7f4c697175696469747920746f2072656d6f7665206d757374206265203e2030005f82015250565b5f612192601f836119db565b915061219d8261215e565b602082019050919050565b5f6020820190508181035f8301526121bf81612186565b9050919050565b7f496e73756666696369656e74206c697175696469747920746f6b656e730000005f82015250565b5f6121fa601d836119db565b9150612205826121c6565b602082019050919050565b5f6020820190508181035f830152612227816121ee565b9050919050565b7f4e6f206c697175696469747920696e2074686520706f6f6c00000000000000005f82015250565b5f6122626018836119db565b915061226d8261222e565b602082019050919050565b5f6020820190508181035f83015261228f81612256565b9050919050565b7f496e73756666696369656e7420726573657276657320666f72207265717565735f8201527f746564206c697175696469747900000000000000000000000000000000000000602082015250565b5f6122f0602d836119db565b91506122fb82612296565b604082019050919050565b5f6020820190508181035f83015261231d816122e4565b9050919050565b5f6060820190506123375f830186611a6a565b6123446020830185611a6a565b6123516040830184611a6a565b949350505050565b7f416d6f756e7473206d757374206265203e2030000000000000000000000000005f82015250565b5f61238d6013836119db565b915061239882612359565b602082019050919050565b5f6020820190508181035f8301526123ba81612381565b9050919050565b5f6060820190506123d45f830186611d13565b6123e16020830185611a6a565b6123ee6040830184611a6a565b94935050505056fea2646970667358221220738b2c834d3bfb667288a19228b6900f00ddc9a577b699ea505eb7e928a2cd1464736f6c634300081e0033",
			"opcodes": "PUSH1 0x80 PUSH1 0x40 MSTORE CALLVALUE DUP1 ISZERO PUSH2 0xF JUMPI PUSH0 PUSH0 REVERT JUMPDEST POP PUSH1 0x40 MLOAD PUSH2 0x2A79 CODESIZE SUB DUP1 PUSH2 0x2A79 DUP4 CODECOPY DUP2 DUP2 ADD PUSH1 0x40 MSTORE DUP2 ADD SWAP1 PUSH2 0x31 SWAP2 SWAP1 PUSH2 0x2C5 JUMP JUMPDEST DUP2 DUP2 DUP2 PUSH1 0x3 SWAP1 DUP2 PUSH2 0x42 SWAP2 SWAP1 PUSH2 0x571 JUMP JUMPDEST POP DUP1 PUSH1 0x4 SWAP1 DUP2 PUSH2 0x52 SWAP2 SWAP1 PUSH2 0x571 JUMP JUMPDEST POP POP POP DUP4 PUSH1 0x5 PUSH0 PUSH2 0x100 EXP DUP2 SLOAD DUP2 PUSH20 0xFFFFFFFFFFFFFFFFFFFFFFFFFFFFFFFFFFFFFFFF MUL NOT AND SWAP1 DUP4 PUSH20 0xFFFFFFFFFFFFFFFFFFFFFFFFFFFFFFFFFFFFFFFF AND MUL OR SWAP1 SSTORE POP DUP3 PUSH1 0x6 PUSH0 PUSH2 0x100 EXP DUP2 SLOAD DUP2 PUSH20 0xFFFFFFFFFFFFFFFFFFFFFFFFFFFFFFFFFFFFFFFF MUL NOT AND SWAP1 DUP4 PUSH20 0xFFFFFFFFFFFFFFFFFFFFFFFFFFFFFFFFFFFFFFFF AND MUL OR SWAP1 SSTORE POP CALLER PUSH1 0x9 PUSH0 PUSH2 0x100 EXP DUP2 SLOAD DUP2 PUSH20 0xFFFFFFFFFFFFFFFFFFFFFFFFFFFFFFFFFFFFFFFF MUL NOT AND SWAP1 DUP4 PUSH20 0xFFFFFFFFFFFFFFFFFFFFFFFFFFFFFFFFFFFFFFFF AND MUL OR SWAP1 SSTORE POP POP POP POP POP PUSH2 0x640 JUMP JUMPDEST PUSH0 PUSH1 0x40 MLOAD SWAP1 POP SWAP1 JUMP JUMPDEST PUSH0 PUSH0 REVERT JUMPDEST PUSH0 PUSH0 REVERT JUMPDEST PUSH0 PUSH20 0xFFFFFFFFFFFFFFFFFFFFFFFFFFFFFFFFFFFFFFFF DUP3 AND SWAP1 POP SWAP2 SWAP1 POP JUMP JUMPDEST PUSH0 PUSH2 0x158 DUP3 PUSH2 0x12F JUMP JUMPDEST SWAP1 POP SWAP2 SWAP1 POP JUMP JUMPDEST PUSH2 0x168 DUP2 PUSH2 0x14E JUMP JUMPDEST DUP2 EQ PUSH2 0x172 JUMPI PUSH0 PUSH0 REVERT JUMPDEST POP JUMP JUMPDEST PUSH0 DUP2 MLOAD SWAP1 POP PUSH2 0x183 DUP2 PUSH2 0x15F JUMP JUMPDEST SWAP3 SWAP2 POP POP JUMP JUMPDEST PUSH0 PUSH0 REVERT JUMPDEST PUSH0 PUSH0 REVERT JUMPDEST PUSH0 PUSH1 0x1F NOT PUSH1 0x1F DUP4 ADD AND SWAP1 POP SWAP2 SWAP1 POP JUMP JUMPDEST PUSH32 0x4E487B7100000000000000000000000000000000000000000000000000000000 PUSH0 MSTORE PUSH1 0x41 PUSH1 0x4 MSTORE PUSH1 0x24 PUSH0 REVERT JUMPDEST PUSH2 0x1D7 DUP3 PUSH2 0x191 JUMP JUMPDEST DUP2 ADD DUP2 DUP2 LT PUSH8 0xFFFFFFFFFFFFFFFF DUP3 GT OR ISZERO PUSH2 0x1F6 JUMPI PUSH2 0x1F5 PUSH2 0x1A1 JUMP JUMPDEST JUMPDEST DUP1 PUSH1 0x40 MSTORE POP POP POP JUMP JUMPDEST PUSH0 PUSH2 0x208 PUSH2 0x11E JUMP JUMPDEST SWAP1 POP PUSH2 0x214 DUP3 DUP3 PUSH2 0x1CE JUMP JUMPDEST SWAP2 SWAP1 POP JUMP JUMPDEST PUSH0 PUSH8 0xFFFFFFFFFFFFFFFF DUP3 GT ISZERO PUSH2 0x233 JUMPI PUSH2 0x232 PUSH2 0x1A1 JUMP JUMPDEST JUMPDEST PUSH2 0x23C DUP3 PUSH2 0x191 JUMP JUMPDEST SWAP1 POP PUSH1 0x20 DUP2 ADD SWAP1 POP SWAP2 SWAP1 POP JUMP JUMPDEST DUP3 DUP2 DUP4 MCOPY PUSH0 DUP4 DUP4 ADD MSTORE POP POP POP JUMP JUMPDEST PUSH0 PUSH2 0x269 PUSH2 0x264 DUP5 PUSH2 0x219 JUMP JUMPDEST PUSH2 0x1FF JUMP JUMPDEST SWAP1 POP DUP3 DUP2 MSTORE PUSH1 0x20 DUP2 ADD DUP5 DUP5 DUP5 ADD GT ISZERO PUSH2 0x285 JUMPI PUSH2 0x284 PUSH2 0x18D JUMP JUMPDEST JUMPDEST PUSH2 0x290 DUP5 DUP3 DUP6 PUSH2 0x249 JUMP JUMPDEST POP SWAP4 SWAP3 POP POP POP JUMP JUMPDEST PUSH0 DUP3 PUSH1 0x1F DUP4 ADD SLT PUSH2 0x2AC JUMPI PUSH2 0x2AB PUSH2 0x189 JUMP JUMPDEST JUMPDEST DUP2 MLOAD PUSH2 0x2BC DUP5 DUP3 PUSH1 0x20 DUP7 ADD PUSH2 0x257 JUMP JUMPDEST SWAP2 POP POP SWAP3 SWAP2 POP POP JUMP JUMPDEST PUSH0 PUSH0 PUSH0 PUSH0 PUSH1 0x80 DUP6 DUP8 SUB SLT ISZERO PUSH2 0x2DD JUMPI PUSH2 0x2DC PUSH2 0x127 JUMP JUMPDEST JUMPDEST PUSH0 PUSH2 0x2EA DUP8 DUP3 DUP9 ADD PUSH2 0x175 JUMP JUMPDEST SWAP5 POP POP PUSH1 0x20 PUSH2 0x2FB DUP8 DUP3 DUP9 ADD PUSH2 0x175 JUMP JUMPDEST SWAP4 POP POP PUSH1 0x40 DUP6 ADD MLOAD PUSH8 0xFFFFFFFFFFFFFFFF DUP2 GT ISZERO PUSH2 0x31C JUMPI PUSH2 0x31B PUSH2 0x12B JUMP JUMPDEST JUMPDEST PUSH2 0x328 DUP8 DUP3 DUP9 ADD PUSH2 0x298 JUMP JUMPDEST SWAP3 POP POP PUSH1 0x60 DUP6 ADD MLOAD PUSH8 0xFFFFFFFFFFFFFFFF DUP2 GT ISZERO PUSH2 0x349 JUMPI PUSH2 0x348 PUSH2 0x12B JUMP JUMPDEST JUMPDEST PUSH2 0x355 DUP8 DUP3 DUP9 ADD PUSH2 0x298 JUMP JUMPDEST SWAP2 POP POP SWAP3 SWAP6 SWAP2 SWAP5 POP SWAP3 POP JUMP JUMPDEST PUSH0 DUP2 MLOAD SWAP1 POP SWAP2 SWAP1 POP JUMP JUMPDEST PUSH32 0x4E487B7100000000000000000000000000000000000000000000000000000000 PUSH0 MSTORE PUSH1 0x22 PUSH1 0x4 MSTORE PUSH1 0x24 PUSH0 REVERT JUMPDEST PUSH0 PUSH1 0x2 DUP3 DIV SWAP1 POP PUSH1 0x1 DUP3 AND DUP1 PUSH2 0x3AF JUMPI PUSH1 0x7F DUP3 AND SWAP2 POP JUMPDEST PUSH1 0x20 DUP3 LT DUP2 SUB PUSH2 0x3C2 JUMPI PUSH2 0x3C1 PUSH2 0x36B JUMP JUMPDEST JUMPDEST POP SWAP2 SWAP1 POP JUMP JUMPDEST PUSH0 DUP2 SWAP1 POP DUP2 PUSH0 MSTORE PUSH1 0x20 PUSH0 KECCAK256 SWAP1 POP SWAP2 SWAP1 POP JUMP JUMPDEST PUSH0 PUSH1 0x20 PUSH1 0x1F DUP4 ADD DIV SWAP1 POP SWAP2 SWAP1 POP JUMP JUMPDEST PUSH0 DUP3 DUP3 SHL SWAP1 POP SWAP3 SWAP2 POP POP JUMP JUMPDEST PUSH0 PUSH1 0x8 DUP4 MUL PUSH2 0x424 PUSH32 0xFFFFFFFFFFFFFFFFFFFFFFFFFFFFFFFFFFFFFFFFFFFFFFFFFFFFFFFFFFFFFFFF DUP3 PUSH2 0x3E9 JUMP JUMPDEST PUSH2 0x42E DUP7 DUP4 PUSH2 0x3E9 JUMP JUMPDEST SWAP6 POP DUP1 NOT DUP5 AND SWAP4 POP DUP1 DUP7 AND DUP5 OR SWAP3 POP POP POP SWAP4 SWAP3 POP POP POP JUMP JUMPDEST PUSH0 DUP2 SWAP1 POP SWAP2 SWAP1 POP JUMP JUMPDEST PUSH0 DUP2 SWAP1 POP SWAP2 SWAP1 POP JUMP JUMPDEST PUSH0 PUSH2 0x472 PUSH2 0x46D PUSH2 0x468 DUP5 PUSH2 0x446 JUMP JUMPDEST PUSH2 0x44F JUMP JUMPDEST PUSH2 0x446 JUMP JUMPDEST SWAP1 POP SWAP2 SWAP1 POP JUMP JUMPDEST PUSH0 DUP2 SWAP1 POP SWAP2 SWAP1 POP JUMP JUMPDEST PUSH2 0x48B DUP4 PUSH2 0x458 JUMP JUMPDEST PUSH2 0x49F PUSH2 0x497 DUP3 PUSH2 0x479 JUMP JUMPDEST DUP5 DUP5 SLOAD PUSH2 0x3F5 JUMP JUMPDEST DUP3 SSTORE POP POP POP POP JUMP JUMPDEST PUSH0 PUSH0 SWAP1 POP SWAP1 JUMP JUMPDEST PUSH2 0x4B6 PUSH2 0x4A7 JUMP JUMPDEST PUSH2 0x4C1 DUP2 DUP5 DUP5 PUSH2 0x482 JUMP JUMPDEST POP POP POP JUMP JUMPDEST JUMPDEST DUP2 DUP2 LT ISZERO PUSH2 0x4E4 JUMPI PUSH2 0x4D9 PUSH0 DUP3 PUSH2 0x4AE JUMP JUMPDEST PUSH1 0x1 DUP2 ADD SWAP1 POP PUSH2 0x4C7 JUMP JUMPDEST POP POP JUMP JUMPDEST PUSH1 0x1F DUP3 GT ISZERO PUSH2 0x529 JUMPI PUSH2 0x4FA DUP2 PUSH2 0x3C8 JUMP JUMPDEST PUSH2 0x503 DUP5 PUSH2 0x3DA JUMP JUMPDEST DUP2 ADD PUSH1 0x20 DUP6 LT ISZERO PUSH2 0x512 JUMPI DUP2 SWAP1 POP JUMPDEST PUSH2 0x526 PUSH2 0x51E DUP6 PUSH2 0x3DA JUMP JUMPDEST DUP4 ADD DUP3 PUSH2 0x4C6 JUMP JUMPDEST POP POP JUMPDEST POP POP POP JUMP JUMPDEST PUSH0 DUP3 DUP3 SHR SWAP1 POP SWAP3 SWAP2 POP POP JUMP JUMPDEST PUSH0 PUSH2 0x549 PUSH0 NOT DUP5 PUSH1 0x8 MUL PUSH2 0x52E JUMP JUMPDEST NOT DUP1 DUP4 AND SWAP2 POP POP SWAP3 SWAP2 POP POP JUMP JUMPDEST PUSH0 PUSH2 0x561 DUP4 DUP4 PUSH2 0x53A JUMP JUMPDEST SWAP2 POP DUP3 PUSH1 0x2 MUL DUP3 OR SWAP1 POP SWAP3 SWAP2 POP POP JUMP JUMPDEST PUSH2 0x57A DUP3 PUSH2 0x361 JUMP JUMPDEST PUSH8 0xFFFFFFFFFFFFFFFF DUP2 GT ISZERO PUSH2 0x593 JUMPI PUSH2 0x592 PUSH2 0x1A1 JUMP JUMPDEST JUMPDEST PUSH2 0x59D DUP3 SLOAD PUSH2 0x398 JUMP JUMPDEST PUSH2 0x5A8 DUP3 DUP3 DUP6 PUSH2 0x4E8 JUMP JUMPDEST PUSH0 PUSH1 0x20 SWAP1 POP PUSH1 0x1F DUP4 GT PUSH1 0x1 DUP2 EQ PUSH2 0x5D9 JUMPI PUSH0 DUP5 ISZERO PUSH2 0x5C7 JUMPI DUP3 DUP8 ADD MLOAD SWAP1 POP JUMPDEST PUSH2 0x5D1 DUP6 DUP3 PUSH2 0x556 JUMP JUMPDEST DUP7 SSTORE POP PUSH2 0x638 JUMP JUMPDEST PUSH1 0x1F NOT DUP5 AND PUSH2 0x5E7 DUP7 PUSH2 0x3C8 JUMP JUMPDEST PUSH0 JUMPDEST DUP3 DUP2 LT ISZERO PUSH2 0x60E JUMPI DUP5 DUP10 ADD MLOAD DUP3 SSTORE PUSH1 0x1 DUP3 ADD SWAP2 POP PUSH1 0x20 DUP6 ADD SWAP5 POP PUSH1 0x20 DUP2 ADD SWAP1 POP PUSH2 0x5E9 JUMP JUMPDEST DUP7 DUP4 LT ISZERO PUSH2 0x62B JUMPI DUP5 DUP10 ADD MLOAD PUSH2 0x627 PUSH1 0x1F DUP10 AND DUP3 PUSH2 0x53A JUMP JUMPDEST DUP4 SSTORE POP JUMPDEST PUSH1 0x1 PUSH1 0x2 DUP9 MUL ADD DUP9 SSTORE POP POP POP JUMPDEST POP POP POP POP POP POP JUMP JUMPDEST PUSH2 0x242C DUP1 PUSH2 0x64D PUSH0 CODECOPY PUSH0 RETURN INVALID PUSH1 0x80 PUSH1 0x40 MSTORE CALLVALUE DUP1 ISZERO PUSH2 0xF JUMPI PUSH0 PUSH0 REVERT JUMPDEST POP PUSH1 0x4 CALLDATASIZE LT PUSH2 0x11F JUMPI PUSH0 CALLDATALOAD PUSH1 0xE0 SHR DUP1 PUSH4 0x5F64B55B GT PUSH2 0xAB JUMPI DUP1 PUSH4 0x9CD441DA GT PUSH2 0x6F JUMPI DUP1 PUSH4 0x9CD441DA EQ PUSH2 0x30F JUMPI DUP1 PUSH4 0xA9059CBB EQ PUSH2 0x32B JUMPI DUP1 PUSH4 0xC915CC24 EQ PUSH2 0x35B JUMPI DUP1 PUSH4 0xDC5FA6C5 EQ PUSH2 0x377 JUMPI DUP1 PUSH4 0xDD62ED3E EQ PUSH2 0x395 JUMPI PUSH2 0x11F JUMP JUMPDEST DUP1 PUSH4 0x5F64B55B EQ PUSH2 0x254 JUMPI DUP1 PUSH4 0x70A08231 EQ PUSH2 0x272 JUMPI DUP1 PUSH4 0x8DA5CB5B EQ PUSH2 0x2A2 JUMPI DUP1 PUSH4 0x95D89B41 EQ PUSH2 0x2C0 JUMPI DUP1 PUSH4 0x9C8F9F23 EQ PUSH2 0x2DE JUMPI PUSH2 0x11F JUMP JUMPDEST DUP1 PUSH4 0x140E6247 GT PUSH2 0xF2 JUMPI DUP1 PUSH4 0x140E6247 EQ PUSH2 0x1AE JUMPI DUP1 PUSH4 0x18160DDD EQ PUSH2 0x1CA JUMPI DUP1 PUSH4 0x19E36F3B EQ PUSH2 0x1E8 JUMPI DUP1 PUSH4 0x23B872DD EQ PUSH2 0x206 JUMPI DUP1 PUSH4 0x313CE567 EQ PUSH2 0x236 JUMPI PUSH2 0x11F JUMP JUMPDEST DUP1 PUSH4 0x6FDDE03 EQ PUSH2 0x123 JUMPI DUP1 PUSH4 0x902F1AC EQ PUSH2 0x141 JUMPI DUP1 PUSH4 0x95EA7B3 EQ PUSH2 0x160 JUMPI DUP1 PUSH4 0xFC63D10 EQ PUSH2 0x190 JUMPI JUMPDEST PUSH0 PUSH0 REVERT JUMPDEST PUSH2 0x12B PUSH2 0x3C5 JUMP JUMPDEST PUSH1 0x40 MLOAD PUSH2 0x138 SWAP2 SWAP1 PUSH2 0x1A41 JUMP JUMPDEST PUSH1 0x40 MLOAD DUP1 SWAP2 SUB SWAP1 RETURN JUMPDEST PUSH2 0x149 PUSH2 0x455 JUMP JUMPDEST PUSH1 0x40 MLOAD PUSH2 0x157 SWAP3 SWAP2 SWAP1 PUSH2 0x1A79 JUMP JUMPDEST PUSH1 0x40 MLOAD DUP1 SWAP2 SUB SWAP1 RETURN JUMPDEST PUSH2 0x17A PUSH1 0x4 DUP1 CALLDATASIZE SUB DUP2 ADD SWAP1 PUSH2 0x175 SWAP2 SWAP1 PUSH2 0x1B28 JUMP JUMPDEST PUSH2 0x465 JUMP JUMPDEST PUSH1 0x40 MLOAD PUSH2 0x187 SWAP2 SWAP1 PUSH2 0x1B80 JUMP JUMPDEST PUSH1 0x40 MLOAD DUP1 SWAP2 SUB SWAP1 RETURN JUMPDEST PUSH2 0x198 PUSH2 0x487 JUMP JUMPDEST PUSH1 0x40 MLOAD PUSH2 0x1A5 SWAP2 SWAP1 PUSH2 0x1BF4 JUMP JUMPDEST PUSH1 0x40 MLOAD DUP1 SWAP2 SUB SWAP1 RETURN JUMPDEST PUSH2 0x1C8 PUSH1 0x4 DUP1 CALLDATASIZE SUB DUP2 ADD SWAP1 PUSH2 0x1C3 SWAP2 SWAP1 PUSH2 0x1C0D JUMP JUMPDEST PUSH2 0x4AC JUMP JUMPDEST STOP JUMPDEST PUSH2 0x1D2 PUSH2 0x7D1 JUMP JUMPDEST PUSH1 0x40 MLOAD PUSH2 0x1DF SWAP2 SWAP1 PUSH2 0x1C4B JUMP JUMPDEST PUSH1 0x40 MLOAD DUP1 SWAP2 SUB SWAP1 RETURN JUMPDEST PUSH2 0x1F0 PUSH2 0x7DA JUMP JUMPDEST PUSH1 0x40 MLOAD PUSH2 0x1FD SWAP2 SWAP1 PUSH2 0x1C4B JUMP JUMPDEST PUSH1 0x40 MLOAD DUP1 SWAP2 SUB SWAP1 RETURN JUMPDEST PUSH2 0x220 PUSH1 0x4 DUP1 CALLDATASIZE SUB DUP2 ADD SWAP1 PUSH2 0x21B SWAP2 SWAP1 PUSH2 0x1C64 JUMP JUMPDEST PUSH2 0x7E0 JUMP JUMPDEST PUSH1 0x40 MLOAD PUSH2 0x22D SWAP2 SWAP1 PUSH2 0x1B80 JUMP JUMPDEST PUSH1 0x40 MLOAD DUP1 SWAP2 SUB SWAP1 RETURN JUMPDEST PUSH2 0x23E PUSH2 0x80E JUMP JUMPDEST PUSH1 0x40 MLOAD PUSH2 0x24B SWAP2 SWAP1 PUSH2 0x1CCF JUMP JUMPDEST PUSH1 0x40 MLOAD DUP1 SWAP2 SUB SWAP1 RETURN JUMPDEST PUSH2 0x25C PUSH2 0x816 JUMP JUMPDEST PUSH1 0x40 MLOAD PUSH2 0x269 SWAP2 SWAP1 PUSH2 0x1BF4 JUMP JUMPDEST PUSH1 0x40 MLOAD DUP1 SWAP2 SUB SWAP1 RETURN JUMPDEST PUSH2 0x28C PUSH1 0x4 DUP1 CALLDATASIZE SUB DUP2 ADD SWAP1 PUSH2 0x287 SWAP2 SWAP1 PUSH2 0x1CE8 JUMP JUMPDEST PUSH2 0x83B JUMP JUMPDEST PUSH1 0x40 MLOAD PUSH2 0x299 SWAP2 SWAP1 PUSH2 0x1C4B JUMP JUMPDEST PUSH1 0x40 MLOAD DUP1 SWAP2 SUB SWAP1 RETURN JUMPDEST PUSH2 0x2AA PUSH2 0x880 JUMP JUMPDEST PUSH1 0x40 MLOAD PUSH2 0x2B7 SWAP2 SWAP1 PUSH2 0x1D22 JUMP JUMPDEST PUSH1 0x40 MLOAD DUP1 SWAP2 SUB SWAP1 RETURN JUMPDEST PUSH2 0x2C8 PUSH2 0x8A5 JUMP JUMPDEST PUSH1 0x40 MLOAD PUSH2 0x2D5 SWAP2 SWAP1 PUSH2 0x1A41 JUMP JUMPDEST PUSH1 0x40 MLOAD DUP1 SWAP2 SUB SWAP1 RETURN JUMPDEST PUSH2 0x2F8 PUSH1 0x4 DUP1 CALLDATASIZE SUB DUP2 ADD SWAP1 PUSH2 0x2F3 SWAP2 SWAP1 PUSH2 0x1D3B JUMP JUMPDEST PUSH2 0x935 JUMP JUMPDEST PUSH1 0x40 MLOAD PUSH2 0x306 SWAP3 SWAP2 SWAP1 PUSH2 0x1A79 JUMP JUMPDEST PUSH1 0x40 MLOAD DUP1 SWAP2 SUB SWAP1 RETURN JUMPDEST PUSH2 0x329 PUSH1 0x4 DUP1 CALLDATASIZE SUB DUP2 ADD SWAP1 PUSH2 0x324 SWAP2 SWAP1 PUSH2 0x1C0D JUMP JUMPDEST PUSH2 0xC60 JUMP JUMPDEST STOP JUMPDEST PUSH2 0x345 PUSH1 0x4 DUP1 CALLDATASIZE SUB DUP2 ADD SWAP1 PUSH2 0x340 SWAP2 SWAP1 PUSH2 0x1B28 JUMP JUMPDEST PUSH2 0xEF1 JUMP JUMPDEST PUSH1 0x40 MLOAD PUSH2 0x352 SWAP2 SWAP1 PUSH2 0x1B80 JUMP JUMPDEST PUSH1 0x40 MLOAD DUP1 SWAP2 SUB SWAP1 RETURN JUMPDEST PUSH2 0x375 PUSH1 0x4 DUP1 CALLDATASIZE SUB DUP2 ADD SWAP1 PUSH2 0x370 SWAP2 SWAP1 PUSH2 0x1C0D JUMP JUMPDEST PUSH2 0xF13 JUMP JUMPDEST STOP JUMPDEST PUSH2 0x37F PUSH2 0x1238 JUMP JUMPDEST PUSH1 0x40 MLOAD PUSH2 0x38C SWAP2 SWAP1 PUSH2 0x1C4B JUMP JUMPDEST PUSH1 0x40 MLOAD DUP1 SWAP2 SUB SWAP1 RETURN JUMPDEST PUSH2 0x3AF PUSH1 0x4 DUP1 CALLDATASIZE SUB DUP2 ADD SWAP1 PUSH2 0x3AA SWAP2 SWAP1 PUSH2 0x1D66 JUMP JUMPDEST PUSH2 0x123E JUMP JUMPDEST PUSH1 0x40 MLOAD PUSH2 0x3BC SWAP2 SWAP1 PUSH2 0x1C4B JUMP JUMPDEST PUSH1 0x40 MLOAD DUP1 SWAP2 SUB SWAP1 RETURN JUMPDEST PUSH1 0x60 PUSH1 0x3 DUP1 SLOAD PUSH2 0x3D4 SWAP1 PUSH2 0x1DD1 JUMP JUMPDEST DUP1 PUSH1 0x1F ADD PUSH1 0x20 DUP1 SWAP2 DIV MUL PUSH1 0x20 ADD PUSH1 0x40 MLOAD SWAP1 DUP2 ADD PUSH1 0x40 MSTORE DUP1 SWAP3 SWAP2 SWAP1 DUP2 DUP2 MSTORE PUSH1 0x20 ADD DUP3 DUP1 SLOAD PUSH2 0x400 SWAP1 PUSH2 0x1DD1 JUMP JUMPDEST DUP1 ISZERO PUSH2 0x44B JUMPI DUP1 PUSH1 0x1F LT PUSH2 0x422 JUMPI PUSH2 0x100 DUP1 DUP4 SLOAD DIV MUL DUP4 MSTORE SWAP2 PUSH1 0x20 ADD SWAP2 PUSH2 0x44B JUMP JUMPDEST DUP3 ADD SWAP2 SWAP1 PUSH0 MSTORE PUSH1 0x20 PUSH0 KECCAK256 SWAP1 JUMPDEST DUP2 SLOAD DUP2 MSTORE SWAP1 PUSH1 0x1 ADD SWAP1 PUSH1 0x20 ADD DUP1 DUP4 GT PUSH2 0x42E JUMPI DUP3 SWAP1 SUB PUSH1 0x1F AND DUP3 ADD SWAP2 JUMPDEST POP POP POP POP POP SWAP1 POP SWAP1 JUMP JUMPDEST PUSH0 PUSH0 PUSH1 0x7 SLOAD PUSH1 0x8 SLOAD SWAP2 POP SWAP2 POP SWAP1 SWAP2 JUMP JUMPDEST PUSH0 PUSH0 PUSH2 0x46F PUSH2 0x12C0 JUMP JUMPDEST SWAP1 POP PUSH2 0x47C DUP2 DUP6 DUP6 PUSH2 0x12C7 JUMP JUMPDEST PUSH1 0x1 SWAP2 POP POP SWAP3 SWAP2 POP POP JUMP JUMPDEST PUSH1 0x5 PUSH0 SWAP1 SLOAD SWAP1 PUSH2 0x100 EXP SWAP1 DIV PUSH20 0xFFFFFFFFFFFFFFFFFFFFFFFFFFFFFFFFFFFFFFFF AND DUP2 JUMP JUMPDEST PUSH0 DUP3 GT PUSH2 0x4EE JUMPI PUSH1 0x40 MLOAD PUSH32 0x8C379A000000000000000000000000000000000000000000000000000000000 DUP2 MSTORE PUSH1 0x4 ADD PUSH2 0x4E5 SWAP1 PUSH2 0x1E4B JUMP JUMPDEST PUSH1 0x40 MLOAD DUP1 SWAP2 SUB SWAP1 REVERT JUMPDEST PUSH0 PUSH1 0x7 SLOAD GT DUP1 ISZERO PUSH2 0x500 JUMPI POP PUSH0 PUSH1 0x8 SLOAD GT JUMPDEST PUSH2 0x53F JUMPI PUSH1 0x40 MLOAD PUSH32 0x8C379A000000000000000000000000000000000000000000000000000000000 DUP2 MSTORE PUSH1 0x4 ADD PUSH2 0x536 SWAP1 PUSH2 0x1EB3 JUMP JUMPDEST PUSH1 0x40 MLOAD DUP1 SWAP2 SUB SWAP1 REVERT JUMPDEST PUSH0 PUSH2 0x3E8 PUSH2 0x3E5 DUP5 PUSH2 0x551 SWAP2 SWAP1 PUSH2 0x1EFE JUMP JUMPDEST PUSH2 0x55B SWAP2 SWAP1 PUSH2 0x1F6C JUMP JUMPDEST SWAP1 POP PUSH0 DUP2 PUSH1 0x7 SLOAD PUSH2 0x56C SWAP2 SWAP1 PUSH2 0x1F9C JUMP JUMPDEST DUP3 PUSH1 0x8 SLOAD PUSH2 0x57A SWAP2 SWAP1 PUSH2 0x1EFE JUMP JUMPDEST PUSH2 0x584 SWAP2 SWAP1 PUSH2 0x1F6C JUMP JUMPDEST SWAP1 POP DUP3 DUP2 LT ISZERO PUSH2 0x5C9 JUMPI PUSH1 0x40 MLOAD PUSH32 0x8C379A000000000000000000000000000000000000000000000000000000000 DUP2 MSTORE PUSH1 0x4 ADD PUSH2 0x5C0 SWAP1 PUSH2 0x2019 JUMP JUMPDEST PUSH1 0x40 MLOAD DUP1 SWAP2 SUB SWAP1 REVERT JUMPDEST PUSH1 0x5 PUSH0 SWAP1 SLOAD SWAP1 PUSH2 0x100 EXP SWAP1 DIV PUSH20 0xFFFFFFFFFFFFFFFFFFFFFFFFFFFFFFFFFFFFFFFF AND PUSH20 0xFFFFFFFFFFFFFFFFFFFFFFFFFFFFFFFFFFFFFFFF AND PUSH4 0x23B872DD CALLER ADDRESS DUP8 PUSH1 0x40 MLOAD DUP5 PUSH4 0xFFFFFFFF AND PUSH1 0xE0 SHL DUP2 MSTORE PUSH1 0x4 ADD PUSH2 0x627 SWAP4 SWAP3 SWAP2 SWAP1 PUSH2 0x2037 JUMP JUMPDEST PUSH1 0x20 PUSH1 0x40 MLOAD DUP1 DUP4 SUB DUP2 PUSH0 DUP8 GAS CALL ISZERO DUP1 ISZERO PUSH2 0x643 JUMPI RETURNDATASIZE PUSH0 PUSH0 RETURNDATACOPY RETURNDATASIZE PUSH0 REVERT JUMPDEST POP POP POP POP PUSH1 0x40 MLOAD RETURNDATASIZE PUSH1 0x1F NOT PUSH1 0x1F DUP3 ADD AND DUP3 ADD DUP1 PUSH1 0x40 MSTORE POP DUP2 ADD SWAP1 PUSH2 0x667 SWAP2 SWAP1 PUSH2 0x2096 JUMP JUMPDEST POP PUSH1 0x6 PUSH0 SWAP1 SLOAD SWAP1 PUSH2 0x100 EXP SWAP1 DIV PUSH20 0xFFFFFFFFFFFFFFFFFFFFFFFFFFFFFFFFFFFFFFFF AND PUSH20 0xFFFFFFFFFFFFFFFFFFFFFFFFFFFFFFFFFFFFFFFF AND PUSH4 0xA9059CBB CALLER DUP4 PUSH1 0x40 MLOAD DUP4 PUSH4 0xFFFFFFFF AND PUSH1 0xE0 SHL DUP2 MSTORE PUSH1 0x4 ADD PUSH2 0x6C4 SWAP3 SWAP2 SWAP1 PUSH2 0x20C1 JUMP JUMPDEST PUSH1 0x20 PUSH1 0x40 MLOAD DUP1 DUP4 SUB DUP2 PUSH0 DUP8 GAS CALL ISZERO DUP1 ISZERO PUSH2 0x6E0 JUMPI RETURNDATASIZE PUSH0 PUSH0 RETURNDATACOPY RETURNDATASIZE PUSH0 REVERT JUMPDEST POP POP POP POP PUSH1 0x40 MLOAD RETURNDATASIZE PUSH1 0x1F NOT PUSH1 0x1F DUP3 ADD AND DUP3 ADD DUP1 PUSH1 0x40 MSTORE POP DUP2 ADD SWAP1 PUSH2 0x704 SWAP2 SWAP1 PUSH2 0x2096 JUMP JUMPDEST POP DUP2 PUSH1 0x7 PUSH0 DUP3 DUP3 SLOAD PUSH2 0x716 SWAP2 SWAP1 PUSH2 0x1F9C JUMP JUMPDEST SWAP3 POP POP DUP2 SWAP1 SSTORE POP DUP1 PUSH1 0x8 PUSH0 DUP3 DUP3 SLOAD PUSH2 0x72E SWAP2 SWAP1 PUSH2 0x20E8 JUMP JUMPDEST SWAP3 POP POP DUP2 SWAP1 SSTORE POP CALLER PUSH20 0xFFFFFFFFFFFFFFFFFFFFFFFFFFFFFFFFFFFFFFFF AND PUSH32 0x631FB37DBA9BBCB8B2F3BE2D669E365AE9F1BD850CC57DFE8B7CCD7D979A2BBA PUSH1 0x5 PUSH0 SWAP1 SLOAD SWAP1 PUSH2 0x100 EXP SWAP1 DIV PUSH20 0xFFFFFFFFFFFFFFFFFFFFFFFFFFFFFFFFFFFFFFFF AND DUP7 PUSH1 0x6 PUSH0 SWAP1 SLOAD SWAP1 PUSH2 0x100 EXP SWAP1 DIV PUSH20 0xFFFFFFFFFFFFFFFFFFFFFFFFFFFFFFFFFFFFFFFF AND DUP6 PUSH1 0x40 MLOAD PUSH2 0x7C3 SWAP5 SWAP4 SWAP3 SWAP2 SWAP1 PUSH2 0x211B JUMP JUMPDEST PUSH1 0x40 MLOAD DUP1 SWAP2 SUB SWAP1 LOG2 POP POP POP POP JUMP JUMPDEST PUSH0 PUSH1 0x2 SLOAD SWAP1 POP SWAP1 JUMP JUMPDEST PUSH1 0x8 SLOAD DUP2 JUMP JUMPDEST PUSH0 PUSH0 PUSH2 0x7EA PUSH2 0x12C0 JUMP JUMPDEST SWAP1 POP PUSH2 0x7F7 DUP6 DUP3 DUP6 PUSH2 0x12D9 JUMP JUMPDEST PUSH2 0x802 DUP6 DUP6 DUP6 PUSH2 0x136C JUMP JUMPDEST PUSH1 0x1 SWAP2 POP POP SWAP4 SWAP3 POP POP POP JUMP JUMPDEST PUSH0 PUSH1 0x12 SWAP1 POP SWAP1 JUMP JUMPDEST PUSH1 0x6 PUSH0 SWAP1 SLOAD SWAP1 PUSH2 0x100 EXP SWAP1 DIV PUSH20 0xFFFFFFFFFFFFFFFFFFFFFFFFFFFFFFFFFFFFFFFF AND DUP2 JUMP JUMPDEST PUSH0 PUSH0 PUSH0 DUP4 PUSH20 0xFFFFFFFFFFFFFFFFFFFFFFFFFFFFFFFFFFFFFFFF AND PUSH20 0xFFFFFFFFFFFFFFFFFFFFFFFFFFFFFFFFFFFFFFFF AND DUP2 MSTORE PUSH1 0x20 ADD SWAP1 DUP2 MSTORE PUSH1 0x20 ADD PUSH0 KECCAK256 SLOAD SWAP1 POP SWAP2 SWAP1 POP JUMP JUMPDEST PUSH1 0x9 PUSH0 SWAP1 SLOAD SWAP1 PUSH2 0x100 EXP SWAP1 DIV PUSH20 0xFFFFFFFFFFFFFFFFFFFFFFFFFFFFFFFFFFFFFFFF AND DUP2 JUMP JUMPDEST PUSH1 0x60 PUSH1 0x4 DUP1 SLOAD PUSH2 0x8B4 SWAP1 PUSH2 0x1DD1 JUMP JUMPDEST DUP1 PUSH1 0x1F ADD PUSH1 0x20 DUP1 SWAP2 DIV MUL PUSH1 0x20 ADD PUSH1 0x40 MLOAD SWAP1 DUP2 ADD PUSH1 0x40 MSTORE DUP1 SWAP3 SWAP2 SWAP1 DUP2 DUP2 MSTORE PUSH1 0x20 ADD DUP3 DUP1 SLOAD PUSH2 0x8E0 SWAP1 PUSH2 0x1DD1 JUMP JUMPDEST DUP1 ISZERO PUSH2 0x92B JUMPI DUP1 PUSH1 0x1F LT PUSH2 0x902 JUMPI PUSH2 0x100 DUP1 DUP4 SLOAD DIV MUL DUP4 MSTORE SWAP2 PUSH1 0x20 ADD SWAP2 PUSH2 0x92B JUMP JUMPDEST DUP3 ADD SWAP2 SWAP1 PUSH0 MSTORE PUSH1 0x20 PUSH0 KECCAK256 SWAP1 JUMPDEST DUP2 SLOAD DUP2 MSTORE SWAP1 PUSH1 0x1 ADD SWAP1 PUSH1 0x20 ADD DUP1 DUP4 GT PUSH2 0x90E JUMPI DUP3 SWAP1 SUB PUSH1 0x1F AND DUP3 ADD SWAP2 JUMPDEST POP POP POP POP POP SWAP1 POP SWAP1 JUMP JUMPDEST PUSH0 PUSH0 PUSH0 DUP4 GT PUSH2 0x979 JUMPI PUSH1 0x40 MLOAD PUSH32 0x8C379A000000000000000000000000000000000000000000000000000000000 DUP2 MSTORE PUSH1 0x4 ADD PUSH2 0x970 SWAP1 PUSH2 0x21A8 JUMP JUMPDEST PUSH1 0x40 MLOAD DUP1 SWAP2 SUB SWAP1 REVERT JUMPDEST DUP3 PUSH2 0x983 CALLER PUSH2 0x83B JUMP JUMPDEST LT ISZERO PUSH2 0x9C4 JUMPI PUSH1 0x40 MLOAD PUSH32 0x8C379A000000000000000000000000000000000000000000000000000000000 DUP2 MSTORE PUSH1 0x4 ADD PUSH2 0x9BB SWAP1 PUSH2 0x2210 JUMP JUMPDEST PUSH1 0x40 MLOAD DUP1 SWAP2 SUB SWAP1 REVERT JUMPDEST PUSH0 PUSH2 0x9CD PUSH2 0x7D1 JUMP JUMPDEST SWAP1 POP PUSH0 DUP2 GT PUSH2 0xA11 JUMPI PUSH1 0x40 MLOAD PUSH32 0x8C379A000000000000000000000000000000000000000000000000000000000 DUP2 MSTORE PUSH1 0x4 ADD PUSH2 0xA08 SWAP1 PUSH2 0x2278 JUMP JUMPDEST PUSH1 0x40 MLOAD DUP1 SWAP2 SUB SWAP1 REVERT JUMPDEST DUP1 PUSH1 0x7 SLOAD DUP6 PUSH2 0xA20 SWAP2 SWAP1 PUSH2 0x1EFE JUMP JUMPDEST PUSH2 0xA2A SWAP2 SWAP1 PUSH2 0x1F6C JUMP JUMPDEST SWAP3 POP DUP1 PUSH1 0x8 SLOAD DUP6 PUSH2 0xA3B SWAP2 SWAP1 PUSH2 0x1EFE JUMP JUMPDEST PUSH2 0xA45 SWAP2 SWAP1 PUSH2 0x1F6C JUMP JUMPDEST SWAP2 POP PUSH0 DUP4 GT DUP1 ISZERO PUSH2 0xA55 JUMPI POP PUSH0 DUP3 GT JUMPDEST PUSH2 0xA94 JUMPI PUSH1 0x40 MLOAD PUSH32 0x8C379A000000000000000000000000000000000000000000000000000000000 DUP2 MSTORE PUSH1 0x4 ADD PUSH2 0xA8B SWAP1 PUSH2 0x2306 JUMP JUMPDEST PUSH1 0x40 MLOAD DUP1 SWAP2 SUB SWAP1 REVERT JUMPDEST DUP3 PUSH1 0x7 PUSH0 DUP3 DUP3 SLOAD PUSH2 0xAA5 SWAP2 SWAP1 PUSH2 0x20E8 JUMP JUMPDEST SWAP3 POP POP DUP2 SWAP1 SSTORE POP DUP2 PUSH1 0x8 PUSH0 DUP3 DUP3 SLOAD PUSH2 0xABD SWAP2 SWAP1 PUSH2 0x20E8 JUMP JUMPDEST SWAP3 POP POP DUP2 SWAP1 SSTORE POP PUSH2 0xACE CALLER DUP6 PUSH2 0x145C JUMP JUMPDEST PUSH1 0x5 PUSH0 SWAP1 SLOAD SWAP1 PUSH2 0x100 EXP SWAP1 DIV PUSH20 0xFFFFFFFFFFFFFFFFFFFFFFFFFFFFFFFFFFFFFFFF AND PUSH20 0xFFFFFFFFFFFFFFFFFFFFFFFFFFFFFFFFFFFFFFFF AND PUSH4 0xA9059CBB CALLER DUP6 PUSH1 0x40 MLOAD DUP4 PUSH4 0xFFFFFFFF AND PUSH1 0xE0 SHL DUP2 MSTORE PUSH1 0x4 ADD PUSH2 0xB2A SWAP3 SWAP2 SWAP1 PUSH2 0x20C1 JUMP JUMPDEST PUSH1 0x20 PUSH1 0x40 MLOAD DUP1 DUP4 SUB DUP2 PUSH0 DUP8 GAS CALL ISZERO DUP1 ISZERO PUSH2 0xB46 JUMPI RETURNDATASIZE PUSH0 PUSH0 RETURNDATACOPY RETURNDATASIZE PUSH0 REVERT JUMPDEST POP POP POP POP PUSH1 0x40 MLOAD RETURNDATASIZE PUSH1 0x1F NOT PUSH1 0x1F DUP3 ADD AND DUP3 ADD DUP1 PUSH1 0x40 MSTORE POP DUP2 ADD SWAP1 PUSH2 0xB6A SWAP2 SWAP1 PUSH2 0x2096 JUMP JUMPDEST POP PUSH1 0x6 PUSH0 SWAP1 SLOAD SWAP1 PUSH2 0x100 EXP SWAP1 DIV PUSH20 0xFFFFFFFFFFFFFFFFFFFFFFFFFFFFFFFFFFFFFFFF AND PUSH20 0xFFFFFFFFFFFFFFFFFFFFFFFFFFFFFFFFFFFFFFFF AND PUSH4 0xA9059CBB CALLER DUP5 PUSH1 0x40 MLOAD DUP4 PUSH4 0xFFFFFFFF AND PUSH1 0xE0 SHL DUP2 MSTORE PUSH1 0x4 ADD PUSH2 0xBC7 SWAP3 SWAP2 SWAP1 PUSH2 0x20C1 JUMP JUMPDEST PUSH1 0x20 PUSH1 0x40 MLOAD DUP1 DUP4 SUB DUP2 PUSH0 DUP8 GAS CALL ISZERO DUP1 ISZERO PUSH2 0xBE3 JUMPI RETURNDATASIZE PUSH0 PUSH0 RETURNDATACOPY RETURNDATASIZE PUSH0 REVERT JUMPDEST POP POP POP POP PUSH1 0x40 MLOAD RETURNDATASIZE PUSH1 0x1F NOT PUSH1 0x1F DUP3 ADD AND DUP3 ADD DUP1 PUSH1 0x40 MSTORE POP DUP2 ADD SWAP1 PUSH2 0xC07 SWAP2 SWAP1 PUSH2 0x2096 JUMP JUMPDEST POP CALLER PUSH20 0xFFFFFFFFFFFFFFFFFFFFFFFFFFFFFFFFFFFFFFFF AND PUSH32 0x1DC8BB69DF2B8E91FBDCBFCF93D951B3F0000F085A95FE3F7946D6161439245D DUP5 DUP5 DUP8 PUSH1 0x40 MLOAD PUSH2 0xC52 SWAP4 SWAP3 SWAP2 SWAP1 PUSH2 0x2324 JUMP JUMPDEST PUSH1 0x40 MLOAD DUP1 SWAP2 SUB SWAP1 LOG2 POP SWAP2 POP SWAP2 JUMP JUMPDEST PUSH0 DUP3 GT DUP1 ISZERO PUSH2 0xC6E JUMPI POP PUSH0 DUP2 GT JUMPDEST PUSH2 0xCAD JUMPI PUSH1 0x40 MLOAD PUSH32 0x8C379A000000000000000000000000000000000000000000000000000000000 DUP2 MSTORE PUSH1 0x4 ADD PUSH2 0xCA4 SWAP1 PUSH2 0x23A3 JUMP JUMPDEST PUSH1 0x40 MLOAD DUP1 SWAP2 SUB SWAP1 REVERT JUMPDEST PUSH1 0x5 PUSH0 SWAP1 SLOAD SWAP1 PUSH2 0x100 EXP SWAP1 DIV PUSH20 0xFFFFFFFFFFFFFFFFFFFFFFFFFFFFFFFFFFFFFFFF AND PUSH20 0xFFFFFFFFFFFFFFFFFFFFFFFFFFFFFFFFFFFFFFFF AND PUSH4 0x23B872DD CALLER ADDRESS DUP6 PUSH1 0x40 MLOAD DUP5 PUSH4 0xFFFFFFFF AND PUSH1 0xE0 SHL DUP2 MSTORE PUSH1 0x4 ADD PUSH2 0xD0B SWAP4 SWAP3 SWAP2 SWAP1 PUSH2 0x2037 JUMP JUMPDEST PUSH1 0x20 PUSH1 0x40 MLOAD DUP1 DUP4 SUB DUP2 PUSH0 DUP8 GAS CALL ISZERO DUP1 ISZERO PUSH2 0xD27 JUMPI RETURNDATASIZE PUSH0 PUSH0 RETURNDATACOPY RETURNDATASIZE PUSH0 REVERT JUMPDEST POP POP POP POP PUSH1 0x40 MLOAD RETURNDATASIZE PUSH1 0x1F NOT PUSH1 0x1F DUP3 ADD AND DUP3 ADD DUP1 PUSH1 0x40 MSTORE POP DUP2 ADD SWAP1 PUSH2 0xD4B SWAP2 SWAP1 PUSH2 0x2096 JUMP JUMPDEST POP PUSH1 0x6 PUSH0 SWAP1 SLOAD SWAP1 PUSH2 0x100 EXP SWAP1 DIV PUSH20 0xFFFFFFFFFFFFFFFFFFFFFFFFFFFFFFFFFFFFFFFF AND PUSH20 0xFFFFFFFFFFFFFFFFFFFFFFFFFFFFFFFFFFFFFFFF AND PUSH4 0x23B872DD CALLER ADDRESS DUP5 PUSH1 0x40 MLOAD DUP5 PUSH4 0xFFFFFFFF AND PUSH1 0xE0 SHL DUP2 MSTORE PUSH1 0x4 ADD PUSH2 0xDAA SWAP4 SWAP3 SWAP2 SWAP1 PUSH2 0x2037 JUMP JUMPDEST PUSH1 0x20 PUSH1 0x40 MLOAD DUP1 DUP4 SUB DUP2 PUSH0 DUP8 GAS CALL ISZERO DUP1 ISZERO PUSH2 0xDC6 JUMPI RETURNDATASIZE PUSH0 PUSH0 RETURNDATACOPY RETURNDATASIZE PUSH0 REVERT JUMPDEST POP POP POP POP PUSH1 0x40 MLOAD RETURNDATASIZE PUSH1 0x1F NOT PUSH1 0x1F DUP3 ADD AND DUP3 ADD DUP1 PUSH1 0x40 MSTORE POP DUP2 ADD SWAP1 PUSH2 0xDEA SWAP2 SWAP1 PUSH2 0x2096 JUMP JUMPDEST POP PUSH0 PUSH0 PUSH2 0xDF5 PUSH2 0x7D1 JUMP JUMPDEST SUB PUSH2 0xE15 JUMPI PUSH2 0xE0E DUP3 DUP5 PUSH2 0xE09 SWAP2 SWAP1 PUSH2 0x1EFE JUMP JUMPDEST PUSH2 0x14DB JUMP JUMPDEST SWAP1 POP PUSH2 0xE60 JUMP JUMPDEST PUSH2 0xE5D PUSH1 0x7 SLOAD PUSH2 0xE23 PUSH2 0x7D1 JUMP JUMPDEST DUP6 PUSH2 0xE2E SWAP2 SWAP1 PUSH2 0x1EFE JUMP JUMPDEST PUSH2 0xE38 SWAP2 SWAP1 PUSH2 0x1F6C JUMP JUMPDEST PUSH1 0x8 SLOAD PUSH2 0xE43 PUSH2 0x7D1 JUMP JUMPDEST DUP6 PUSH2 0xE4E SWAP2 SWAP1 PUSH2 0x1EFE JUMP JUMPDEST PUSH2 0xE58 SWAP2 SWAP1 PUSH2 0x1F6C JUMP JUMPDEST PUSH2 0x1552 JUMP JUMPDEST SWAP1 POP JUMPDEST PUSH2 0xE6A CALLER DUP3 PUSH2 0x156A JUMP JUMPDEST DUP3 PUSH1 0x7 PUSH0 DUP3 DUP3 SLOAD PUSH2 0xE7B SWAP2 SWAP1 PUSH2 0x1F9C JUMP JUMPDEST SWAP3 POP POP DUP2 SWAP1 SSTORE POP DUP2 PUSH1 0x8 PUSH0 DUP3 DUP3 SLOAD PUSH2 0xE93 SWAP2 SWAP1 PUSH2 0x1F9C JUMP JUMPDEST SWAP3 POP POP DUP2 SWAP1 SSTORE POP CALLER PUSH20 0xFFFFFFFFFFFFFFFFFFFFFFFFFFFFFFFFFFFFFFFF AND PUSH32 0x64B83944E79C3CE8D4C297411DE637C3E102D064677AAC0C163976EBDCD6F50E DUP5 DUP5 DUP5 PUSH1 0x40 MLOAD PUSH2 0xEE4 SWAP4 SWAP3 SWAP2 SWAP1 PUSH2 0x2324 JUMP JUMPDEST PUSH1 0x40 MLOAD DUP1 SWAP2 SUB SWAP1 LOG2 POP POP POP JUMP JUMPDEST PUSH0 PUSH0 PUSH2 0xEFB PUSH2 0x12C0 JUMP JUMPDEST SWAP1 POP PUSH2 0xF08 DUP2 DUP6 DUP6 PUSH2 0x136C JUMP JUMPDEST PUSH1 0x1 SWAP2 POP POP SWAP3 SWAP2 POP POP JUMP JUMPDEST PUSH0 DUP3 GT PUSH2 0xF55 JUMPI PUSH1 0x40 MLOAD PUSH32 0x8C379A000000000000000000000000000000000000000000000000000000000 DUP2 MSTORE PUSH1 0x4 ADD PUSH2 0xF4C SWAP1 PUSH2 0x1E4B JUMP JUMPDEST PUSH1 0x40 MLOAD DUP1 SWAP2 SUB SWAP1 REVERT JUMPDEST PUSH0 PUSH1 0x7 SLOAD GT DUP1 ISZERO PUSH2 0xF67 JUMPI POP PUSH0 PUSH1 0x8 SLOAD GT JUMPDEST PUSH2 0xFA6 JUMPI PUSH1 0x40 MLOAD PUSH32 0x8C379A000000000000000000000000000000000000000000000000000000000 DUP2 MSTORE PUSH1 0x4 ADD PUSH2 0xF9D SWAP1 PUSH2 0x1EB3 JUMP JUMPDEST PUSH1 0x40 MLOAD DUP1 SWAP2 SUB SWAP1 REVERT JUMPDEST PUSH0 PUSH2 0x3E8 PUSH2 0x3E5 DUP5 PUSH2 0xFB8 SWAP2 SWAP1 PUSH2 0x1EFE JUMP JUMPDEST PUSH2 0xFC2 SWAP2 SWAP1 PUSH2 0x1F6C JUMP JUMPDEST SWAP1 POP PUSH0 DUP2 PUSH1 0x8 SLOAD PUSH2 0xFD3 SWAP2 SWAP1 PUSH2 0x1F9C JUMP JUMPDEST DUP3 PUSH1 0x7 SLOAD PUSH2 0xFE1 SWAP2 SWAP1 PUSH2 0x1EFE JUMP JUMPDEST PUSH2 0xFEB SWAP2 SWAP1 PUSH2 0x1F6C JUMP JUMPDEST SWAP1 POP DUP3 DUP2 LT ISZERO PUSH2 0x1030 JUMPI PUSH1 0x40 MLOAD PUSH32 0x8C379A000000000000000000000000000000000000000000000000000000000 DUP2 MSTORE PUSH1 0x4 ADD PUSH2 0x1027 SWAP1 PUSH2 0x2019 JUMP JUMPDEST PUSH1 0x40 MLOAD DUP1 SWAP2 SUB SWAP1 REVERT JUMPDEST PUSH1 0x6 PUSH0 SWAP1 SLOAD SWAP1 PUSH2 0x100 EXP SWAP1 DIV PUSH20 0xFFFFFFFFFFFFFFFFFFFFFFFFFFFFFFFFFFFFFFFF AND PUSH20 0xFFFFFFFFFFFFFFFFFFFFFFFFFFFFFFFFFFFFFFFF AND PUSH4 0x23B872DD CALLER ADDRESS DUP8 PUSH1 0x40 MLOAD DUP5 PUSH4 0xFFFFFFFF AND PUSH1 0xE0 SHL DUP2 MSTORE PUSH1 0x4 ADD PUSH2 0x108E SWAP4 SWAP3 SWAP2 SWAP1 PUSH2 0x2037 JUMP JUMPDEST PUSH1 0x20 PUSH1 0x40 MLOAD DUP1 DUP4 SUB DUP2 PUSH0 DUP8 GAS CALL ISZERO DUP1 ISZERO PUSH2 0x10AA JUMPI RETURNDATASIZE PUSH0 PUSH0 RETURNDATACOPY RETURNDATASIZE PUSH0 REVERT JUMPDEST POP POP POP POP PUSH1 0x40 MLOAD RETURNDATASIZE PUSH1 0x1F NOT PUSH1 0x1F DUP3 ADD AND DUP3 ADD DUP1 PUSH1 0x40 MSTORE POP DUP2 ADD SWAP1 PUSH2 0x10CE SWAP2 SWAP1 PUSH2 0x2096 JUMP JUMPDEST POP PUSH1 0x5 PUSH0 SWAP1 SLOAD SWAP1 PUSH2 0x100 EXP SWAP1 DIV PUSH20 0xFFFFFFFFFFFFFFFFFFFFFFFFFFFFFFFFFFFFFFFF AND PUSH20 0xFFFFFFFFFFFFFFFFFFFFFFFFFFFFFFFFFFFFFFFF AND PUSH4 0xA9059CBB CALLER DUP4 PUSH1 0x40 MLOAD DUP4 PUSH4 0xFFFFFFFF AND PUSH1 0xE0 SHL DUP2 MSTORE PUSH1 0x4 ADD PUSH2 0x112B SWAP3 SWAP2 SWAP1 PUSH2 0x20C1 JUMP JUMPDEST PUSH1 0x20 PUSH1 0x40 MLOAD DUP1 DUP4 SUB DUP2 PUSH0 DUP8 GAS CALL ISZERO DUP1 ISZERO PUSH2 0x1147 JUMPI RETURNDATASIZE PUSH0 PUSH0 RETURNDATACOPY RETURNDATASIZE PUSH0 REVERT JUMPDEST POP POP POP POP PUSH1 0x40 MLOAD RETURNDATASIZE PUSH1 0x1F NOT PUSH1 0x1F DUP3 ADD AND DUP3 ADD DUP1 PUSH1 0x40 MSTORE POP DUP2 ADD SWAP1 PUSH2 0x116B SWAP2 SWAP1 PUSH2 0x2096 JUMP JUMPDEST POP DUP2 PUSH1 0x8 PUSH0 DUP3 DUP3 SLOAD PUSH2 0x117D SWAP2 SWAP1 PUSH2 0x1F9C JUMP JUMPDEST SWAP3 POP POP DUP2 SWAP1 SSTORE POP DUP1 PUSH1 0x7 PUSH0 DUP3 DUP3 SLOAD PUSH2 0x1195 SWAP2 SWAP1 PUSH2 0x20E8 JUMP JUMPDEST SWAP3 POP POP DUP2 SWAP1 SSTORE POP CALLER PUSH20 0xFFFFFFFFFFFFFFFFFFFFFFFFFFFFFFFFFFFFFFFF AND PUSH32 0x631FB37DBA9BBCB8B2F3BE2D669E365AE9F1BD850CC57DFE8B7CCD7D979A2BBA PUSH1 0x6 PUSH0 SWAP1 SLOAD SWAP1 PUSH2 0x100 EXP SWAP1 DIV PUSH20 0xFFFFFFFFFFFFFFFFFFFFFFFFFFFFFFFFFFFFFFFF AND DUP7 PUSH1 0x5 PUSH0 SWAP1 SLOAD SWAP1 PUSH2 0x100 EXP SWAP1 DIV PUSH20 0xFFFFFFFFFFFFFFFFFFFFFFFFFFFFFFFFFFFFFFFF AND DUP6 PUSH1 0x40 MLOAD PUSH2 0x122A SWAP5 SWAP4 SWAP3 SWAP2 SWAP1 PUSH2 0x211B JUMP JUMPDEST PUSH1 0x40 MLOAD DUP1 SWAP2 SUB SWAP1 LOG2 POP POP POP POP JUMP JUMPDEST PUSH1 0x7 SLOAD DUP2 JUMP JUMPDEST PUSH0 PUSH1 0x1 PUSH0 DUP5 PUSH20 0xFFFFFFFFFFFFFFFFFFFFFFFFFFFFFFFFFFFFFFFF AND PUSH20 0xFFFFFFFFFFFFFFFFFFFFFFFFFFFFFFFFFFFFFFFF AND DUP2 MSTORE PUSH1 0x20 ADD SWAP1 DUP2 MSTORE PUSH1 0x20 ADD PUSH0 KECCAK256 PUSH0 DUP4 PUSH20 0xFFFFFFFFFFFFFFFFFFFFFFFFFFFFFFFFFFFFFFFF AND PUSH20 0xFFFFFFFFFFFFFFFFFFFFFFFFFFFFFFFFFFFFFFFF AND DUP2 MSTORE PUSH1 0x20 ADD SWAP1 DUP2 MSTORE PUSH1 0x20 ADD PUSH0 KECCAK256 SLOAD SWAP1 POP SWAP3 SWAP2 POP POP JUMP JUMPDEST PUSH0 CALLER SWAP1 POP SWAP1 JUMP JUMPDEST PUSH2 0x12D4 DUP4 DUP4 DUP4 PUSH1 0x1 PUSH2 0x15E9 JUMP JUMPDEST POP POP POP JUMP JUMPDEST PUSH0 PUSH2 0x12E4 DUP5 DUP5 PUSH2 0x123E JUMP JUMPDEST SWAP1 POP PUSH32 0xFFFFFFFFFFFFFFFFFFFFFFFFFFFFFFFFFFFFFFFFFFFFFFFFFFFFFFFFFFFFFFFF DUP2 LT ISZERO PUSH2 0x1366 JUMPI DUP2 DUP2 LT ISZERO PUSH2 0x1357 JUMPI DUP3 DUP2 DUP4 PUSH1 0x40 MLOAD PUSH32 0xFB8F41B200000000000000000000000000000000000000000000000000000000 DUP2 MSTORE PUSH1 0x4 ADD PUSH2 0x134E SWAP4 SWAP3 SWAP2 SWAP1 PUSH2 0x23C1 JUMP JUMPDEST PUSH1 0x40 MLOAD DUP1 SWAP2 SUB SWAP1 REVERT JUMPDEST PUSH2 0x1365 DUP5 DUP5 DUP5 DUP5 SUB PUSH0 PUSH2 0x15E9 JUMP JUMPDEST JUMPDEST POP POP POP POP JUMP JUMPDEST PUSH0 PUSH20 0xFFFFFFFFFFFFFFFFFFFFFFFFFFFFFFFFFFFFFFFF AND DUP4 PUSH20 0xFFFFFFFFFFFFFFFFFFFFFFFFFFFFFFFFFFFFFFFF AND SUB PUSH2 0x13DC JUMPI PUSH0 PUSH1 0x40 MLOAD PUSH32 0x96C6FD1E00000000000000000000000000000000000000000000000000000000 DUP2 MSTORE PUSH1 0x4 ADD PUSH2 0x13D3 SWAP2 SWAP1 PUSH2 0x1D22 JUMP JUMPDEST PUSH1 0x40 MLOAD DUP1 SWAP2 SUB SWAP1 REVERT JUMPDEST PUSH0 PUSH20 0xFFFFFFFFFFFFFFFFFFFFFFFFFFFFFFFFFFFFFFFF AND DUP3 PUSH20 0xFFFFFFFFFFFFFFFFFFFFFFFFFFFFFFFFFFFFFFFF AND SUB PUSH2 0x144C JUMPI PUSH0 PUSH1 0x40 MLOAD PUSH32 0xEC442F0500000000000000000000000000000000000000000000000000000000 DUP2 MSTORE PUSH1 0x4 ADD PUSH2 0x1443 SWAP2 SWAP1 PUSH2 0x1D22 JUMP JUMPDEST PUSH1 0x40 MLOAD DUP1 SWAP2 SUB SWAP1 REVERT JUMPDEST PUSH2 0x1457 DUP4 DUP4 DUP4 PUSH2 0x17B8 JUMP JUMPDEST POP POP POP JUMP JUMPDEST PUSH0 PUSH20 0xFFFFFFFFFFFFFFFFFFFFFFFFFFFFFFFFFFFFFFFF AND DUP3 PUSH20 0xFFFFFFFFFFFFFFFFFFFFFFFFFFFFFFFFFFFFFFFF AND SUB PUSH2 0x14CC JUMPI PUSH0 PUSH1 0x40 MLOAD PUSH32 0x96C6FD1E00000000000000000000000000000000000000000000000000000000 DUP2 MSTORE PUSH1 0x4 ADD PUSH2 0x14C3 SWAP2 SWAP1 PUSH2 0x1D22 JUMP JUMPDEST PUSH1 0x40 MLOAD DUP1 SWAP2 SUB SWAP1 REVERT JUMPDEST PUSH2 0x14D7 DUP3 PUSH0 DUP4 PUSH2 0x17B8 JUMP JUMPDEST POP POP JUMP JUMPDEST PUSH0 PUSH1 0x3 DUP3 GT ISZERO PUSH2 0x1540 JUMPI DUP2 SWAP1 POP PUSH0 PUSH1 0x1 PUSH1 0x2 DUP5 PUSH2 0x14F8 SWAP2 SWAP1 PUSH2 0x1F6C JUMP JUMPDEST PUSH2 0x1502 SWAP2 SWAP1 PUSH2 0x1F9C JUMP JUMPDEST SWAP1 POP JUMPDEST DUP2 DUP2 LT ISZERO PUSH2 0x153A JUMPI DUP1 SWAP2 POP PUSH1 0x2 DUP2 DUP3 DUP6 PUSH2 0x151F SWAP2 SWAP1 PUSH2 0x1F6C JUMP JUMPDEST PUSH2 0x1529 SWAP2 SWAP1 PUSH2 0x1F9C JUMP JUMPDEST PUSH2 0x1533 SWAP2 SWAP1 PUSH2 0x1F6C JUMP JUMPDEST SWAP1 POP PUSH2 0x1505 JUMP JUMPDEST POP PUSH2 0x154D JUMP JUMPDEST PUSH0 DUP3 EQ PUSH2 0x154C JUMPI PUSH1 0x1 SWAP1 POP JUMPDEST JUMPDEST SWAP2 SWAP1 POP JUMP JUMPDEST PUSH0 DUP2 DUP4 LT PUSH2 0x1560 JUMPI DUP2 PUSH2 0x1562 JUMP JUMPDEST DUP3 JUMPDEST SWAP1 POP SWAP3 SWAP2 POP POP JUMP JUMPDEST PUSH0 PUSH20 0xFFFFFFFFFFFFFFFFFFFFFFFFFFFFFFFFFFFFFFFF AND DUP3 PUSH20 0xFFFFFFFFFFFFFFFFFFFFFFFFFFFFFFFFFFFFFFFF AND SUB PUSH2 0x15DA JUMPI PUSH0 PUSH1 0x40 MLOAD PUSH32 0xEC442F0500000000000000000000000000000000000000000000000000000000 DUP2 MSTORE PUSH1 0x4 ADD PUSH2 0x15D1 SWAP2 SWAP1 PUSH2 0x1D22 JUMP JUMPDEST PUSH1 0x40 MLOAD DUP1 SWAP2 SUB SWAP1 REVERT JUMPDEST PUSH2 0x15E5 PUSH0 DUP4 DUP4 PUSH2 0x17B8 JUMP JUMPDEST POP POP JUMP JUMPDEST PUSH0 PUSH20 0xFFFFFFFFFFFFFFFFFFFFFFFFFFFFFFFFFFFFFFFF AND DUP5 PUSH20 0xFFFFFFFFFFFFFFFFFFFFFFFFFFFFFFFFFFFFFFFF AND SUB PUSH2 0x1659 JUMPI PUSH0 PUSH1 0x40 MLOAD PUSH32 0xE602DF0500000000000000000000000000000000000000000000000000000000 DUP2 MSTORE PUSH1 0x4 ADD PUSH2 0x1650 SWAP2 SWAP1 PUSH2 0x1D22 JUMP JUMPDEST PUSH1 0x40 MLOAD DUP1 SWAP2 SUB SWAP1 REVERT JUMPDEST PUSH0 PUSH20 0xFFFFFFFFFFFFFFFFFFFFFFFFFFFFFFFFFFFFFFFF AND DUP4 PUSH20 0xFFFFFFFFFFFFFFFFFFFFFFFFFFFFFFFFFFFFFFFF AND SUB PUSH2 0x16C9 JUMPI PUSH0 PUSH1 0x40 MLOAD PUSH32 0x94280D6200000000000000000000000000000000000000000000000000000000 DUP2 MSTORE PUSH1 0x4 ADD PUSH2 0x16C0 SWAP2 SWAP1 PUSH2 0x1D22 JUMP JUMPDEST PUSH1 0x40 MLOAD DUP1 SWAP2 SUB SWAP1 REVERT JUMPDEST DUP2 PUSH1 0x1 PUSH0 DUP7 PUSH20 0xFFFFFFFFFFFFFFFFFFFFFFFFFFFFFFFFFFFFFFFF AND PUSH20 0xFFFFFFFFFFFFFFFFFFFFFFFFFFFFFFFFFFFFFFFF AND DUP2 MSTORE PUSH1 0x20 ADD SWAP1 DUP2 MSTORE PUSH1 0x20 ADD PUSH0 KECCAK256 PUSH0 DUP6 PUSH20 0xFFFFFFFFFFFFFFFFFFFFFFFFFFFFFFFFFFFFFFFF AND PUSH20 0xFFFFFFFFFFFFFFFFFFFFFFFFFFFFFFFFFFFFFFFF AND DUP2 MSTORE PUSH1 0x20 ADD SWAP1 DUP2 MSTORE PUSH1 0x20 ADD PUSH0 KECCAK256 DUP2 SWAP1 SSTORE POP DUP1 ISZERO PUSH2 0x17B2 JUMPI DUP3 PUSH20 0xFFFFFFFFFFFFFFFFFFFFFFFFFFFFFFFFFFFFFFFF AND DUP5 PUSH20 0xFFFFFFFFFFFFFFFFFFFFFFFFFFFFFFFFFFFFFFFF AND PUSH32 0x8C5BE1E5EBEC7D5BD14F71427D1E84F3DD0314C0F7B2291E5B200AC8C7C3B925 DUP5 PUSH1 0x40 MLOAD PUSH2 0x17A9 SWAP2 SWAP1 PUSH2 0x1C4B JUMP JUMPDEST PUSH1 0x40 MLOAD DUP1 SWAP2 SUB SWAP1 LOG3 JUMPDEST POP POP POP POP JUMP JUMPDEST PUSH0 PUSH20 0xFFFFFFFFFFFFFFFFFFFFFFFFFFFFFFFFFFFFFFFF AND DUP4 PUSH20 0xFFFFFFFFFFFFFFFFFFFFFFFFFFFFFFFFFFFFFFFF AND SUB PUSH2 0x1808 JUMPI DUP1 PUSH1 0x2 PUSH0 DUP3 DUP3 SLOAD PUSH2 0x17FC SWAP2 SWAP1 PUSH2 0x1F9C JUMP JUMPDEST SWAP3 POP POP DUP2 SWAP1 SSTORE POP PUSH2 0x18D6 JUMP JUMPDEST PUSH0 PUSH0 PUSH0 DUP6 PUSH20 0xFFFFFFFFFFFFFFFFFFFFFFFFFFFFFFFFFFFFFFFF AND PUSH20 0xFFFFFFFFFFFFFFFFFFFFFFFFFFFFFFFFFFFFFFFF AND DUP2 MSTORE PUSH1 0x20 ADD SWAP1 DUP2 MSTORE PUSH1 0x20 ADD PUSH0 KECCAK256 SLOAD SWAP1 POP DUP2 DUP2 LT ISZERO PUSH2 0x1891 JUMPI DUP4 DUP2 DUP4 PUSH1 0x40 MLOAD PUSH32 0xE450D38C00000000000000000000000000000000000000000000000000000000 DUP2 MSTORE PUSH1 0x4 ADD PUSH2 0x1888 SWAP4 SWAP3 SWAP2 SWAP1 PUSH2 0x23C1 JUMP JUMPDEST PUSH1 0x40 MLOAD DUP1 SWAP2 SUB SWAP1 REVERT JUMPDEST DUP2 DUP2 SUB PUSH0 PUSH0 DUP7 PUSH20 0xFFFFFFFFFFFFFFFFFFFFFFFFFFFFFFFFFFFFFFFF AND PUSH20 0xFFFFFFFFFFFFFFFFFFFFFFFFFFFFFFFFFFFFFFFF AND DUP2 MSTORE PUSH1 0x20 ADD SWAP1 DUP2 MSTORE PUSH1 0x20 ADD PUSH0 KECCAK256 DUP2 SWAP1 SSTORE POP POP JUMPDEST PUSH0 PUSH20 0xFFFFFFFFFFFFFFFFFFFFFFFFFFFFFFFFFFFFFFFF AND DUP3 PUSH20 0xFFFFFFFFFFFFFFFFFFFFFFFFFFFFFFFFFFFFFFFF AND SUB PUSH2 0x191D JUMPI DUP1 PUSH1 0x2 PUSH0 DUP3 DUP3 SLOAD SUB SWAP3 POP POP DUP2 SWAP1 SSTORE POP PUSH2 0x1967 JUMP JUMPDEST DUP1 PUSH0 PUSH0 DUP5 PUSH20 0xFFFFFFFFFFFFFFFFFFFFFFFFFFFFFFFFFFFFFFFF AND PUSH20 0xFFFFFFFFFFFFFFFFFFFFFFFFFFFFFFFFFFFFFFFF AND DUP2 MSTORE PUSH1 0x20 ADD SWAP1 DUP2 MSTORE PUSH1 0x20 ADD PUSH0 KECCAK256 PUSH0 DUP3 DUP3 SLOAD ADD SWAP3 POP POP DUP2 SWAP1 SSTORE POP JUMPDEST DUP2 PUSH20 0xFFFFFFFFFFFFFFFFFFFFFFFFFFFFFFFFFFFFFFFF AND DUP4 PUSH20 0xFFFFFFFFFFFFFFFFFFFFFFFFFFFFFFFFFFFFFFFF AND PUSH32 0xDDF252AD1BE2C89B69C2B068FC378DAA952BA7F163C4A11628F55A4DF523B3EF DUP4 PUSH1 0x40 MLOAD PUSH2 0x19C4 SWAP2 SWAP1 PUSH2 0x1C4B JUMP JUMPDEST PUSH1 0x40 MLOAD DUP1 SWAP2 SUB SWAP1 LOG3 POP POP POP JUMP JUMPDEST PUSH0 DUP2 MLOAD SWAP1 POP SWAP2 SWAP1 POP JUMP JUMPDEST PUSH0 DUP3 DUP3 MSTORE PUSH1 0x20 DUP3 ADD SWAP1 POP SWAP3 SWAP2 POP POP JUMP JUMPDEST DUP3 DUP2 DUP4 MCOPY PUSH0 DUP4 DUP4 ADD MSTORE POP POP POP JUMP JUMPDEST PUSH0 PUSH1 0x1F NOT PUSH1 0x1F DUP4 ADD AND SWAP1 POP SWAP2 SWAP1 POP JUMP JUMPDEST PUSH0 PUSH2 0x1A13 DUP3 PUSH2 0x19D1 JUMP JUMPDEST PUSH2 0x1A1D DUP2 DUP6 PUSH2 0x19DB JUMP JUMPDEST SWAP4 POP PUSH2 0x1A2D DUP2 DUP6 PUSH1 0x20 DUP7 ADD PUSH2 0x19EB JUMP JUMPDEST PUSH2 0x1A36 DUP2 PUSH2 0x19F9 JUMP JUMPDEST DUP5 ADD SWAP2 POP POP SWAP3 SWAP2 POP POP JUMP JUMPDEST PUSH0 PUSH1 0x20 DUP3 ADD SWAP1 POP DUP2 DUP2 SUB PUSH0 DUP4 ADD MSTORE PUSH2 0x1A59 DUP2 DUP5 PUSH2 0x1A09 JUMP JUMPDEST SWAP1 POP SWAP3 SWAP2 POP POP JUMP JUMPDEST PUSH0 DUP2 SWAP1 POP SWAP2 SWAP1 POP JUMP JUMPDEST PUSH2 0x1A73 DUP2 PUSH2 0x1A61 JUMP JUMPDEST DUP3 MSTORE POP POP JUMP JUMPDEST PUSH0 PUSH1 0x40 DUP3 ADD SWAP1 POP PUSH2 0x1A8C PUSH0 DUP4 ADD DUP6 PUSH2 0x1A6A JUMP JUMPDEST PUSH2 0x1A99 PUSH1 0x20 DUP4 ADD DUP5 PUSH2 0x1A6A JUMP JUMPDEST SWAP4 SWAP3 POP POP POP JUMP JUMPDEST PUSH0 PUSH0 REVERT JUMPDEST PUSH0 PUSH20 0xFFFFFFFFFFFFFFFFFFFFFFFFFFFFFFFFFFFFFFFF DUP3 AND SWAP1 POP SWAP2 SWAP1 POP JUMP JUMPDEST PUSH0 PUSH2 0x1ACD DUP3 PUSH2 0x1AA4 JUMP JUMPDEST SWAP1 POP SWAP2 SWAP1 POP JUMP JUMPDEST PUSH2 0x1ADD DUP2 PUSH2 0x1AC3 JUMP JUMPDEST DUP2 EQ PUSH2 0x1AE7 JUMPI PUSH0 PUSH0 REVERT JUMPDEST POP JUMP JUMPDEST PUSH0 DUP2 CALLDATALOAD SWAP1 POP PUSH2 0x1AF8 DUP2 PUSH2 0x1AD4 JUMP JUMPDEST SWAP3 SWAP2 POP POP JUMP JUMPDEST PUSH2 0x1B07 DUP2 PUSH2 0x1A61 JUMP JUMPDEST DUP2 EQ PUSH2 0x1B11 JUMPI PUSH0 PUSH0 REVERT JUMPDEST POP JUMP JUMPDEST PUSH0 DUP2 CALLDATALOAD SWAP1 POP PUSH2 0x1B22 DUP2 PUSH2 0x1AFE JUMP JUMPDEST SWAP3 SWAP2 POP POP JUMP JUMPDEST PUSH0 PUSH0 PUSH1 0x40 DUP4 DUP6 SUB SLT ISZERO PUSH2 0x1B3E JUMPI PUSH2 0x1B3D PUSH2 0x1AA0 JUMP JUMPDEST JUMPDEST PUSH0 PUSH2 0x1B4B DUP6 DUP3 DUP7 ADD PUSH2 0x1AEA JUMP JUMPDEST SWAP3 POP POP PUSH1 0x20 PUSH2 0x1B5C DUP6 DUP3 DUP7 ADD PUSH2 0x1B14 JUMP JUMPDEST SWAP2 POP POP SWAP3 POP SWAP3 SWAP1 POP JUMP JUMPDEST PUSH0 DUP2 ISZERO ISZERO SWAP1 POP SWAP2 SWAP1 POP JUMP JUMPDEST PUSH2 0x1B7A DUP2 PUSH2 0x1B66 JUMP JUMPDEST DUP3 MSTORE POP POP JUMP JUMPDEST PUSH0 PUSH1 0x20 DUP3 ADD SWAP1 POP PUSH2 0x1B93 PUSH0 DUP4 ADD DUP5 PUSH2 0x1B71 JUMP JUMPDEST SWAP3 SWAP2 POP POP JUMP JUMPDEST PUSH0 DUP2 SWAP1 POP SWAP2 SWAP1 POP JUMP JUMPDEST PUSH0 PUSH2 0x1BBC PUSH2 0x1BB7 PUSH2 0x1BB2 DUP5 PUSH2 0x1AA4 JUMP JUMPDEST PUSH2 0x1B99 JUMP JUMPDEST PUSH2 0x1AA4 JUMP JUMPDEST SWAP1 POP SWAP2 SWAP1 POP JUMP JUMPDEST PUSH0 PUSH2 0x1BCD DUP3 PUSH2 0x1BA2 JUMP JUMPDEST SWAP1 POP SWAP2 SWAP1 POP JUMP JUMPDEST PUSH0 PUSH2 0x1BDE DUP3 PUSH2 0x1BC3 JUMP JUMPDEST SWAP1 POP SWAP2 SWAP1 POP JUMP JUMPDEST PUSH2 0x1BEE DUP2 PUSH2 0x1BD4 JUMP JUMPDEST DUP3 MSTORE POP POP JUMP JUMPDEST PUSH0 PUSH1 0x20 DUP3 ADD SWAP1 POP PUSH2 0x1C07 PUSH0 DUP4 ADD DUP5 PUSH2 0x1BE5 JUMP JUMPDEST SWAP3 SWAP2 POP POP JUMP JUMPDEST PUSH0 PUSH0 PUSH1 0x40 DUP4 DUP6 SUB SLT ISZERO PUSH2 0x1C23 JUMPI PUSH2 0x1C22 PUSH2 0x1AA0 JUMP JUMPDEST JUMPDEST PUSH0 PUSH2 0x1C30 DUP6 DUP3 DUP7 ADD PUSH2 0x1B14 JUMP JUMPDEST SWAP3 POP POP PUSH1 0x20 PUSH2 0x1C41 DUP6 DUP3 DUP7 ADD PUSH2 0x1B14 JUMP JUMPDEST SWAP2 POP POP SWAP3 POP SWAP3 SWAP1 POP JUMP JUMPDEST PUSH0 PUSH1 0x20 DUP3 ADD SWAP1 POP PUSH2 0x1C5E PUSH0 DUP4 ADD DUP5 PUSH2 0x1A6A JUMP JUMPDEST SWAP3 SWAP2 POP POP JUMP JUMPDEST PUSH0 PUSH0 PUSH0 PUSH1 0x60 DUP5 DUP7 SUB SLT ISZERO PUSH2 0x1C7B JUMPI PUSH2 0x1C7A PUSH2 0x1AA0 JUMP JUMPDEST JUMPDEST PUSH0 PUSH2 0x1C88 DUP7 DUP3 DUP8 ADD PUSH2 0x1AEA JUMP JUMPDEST SWAP4 POP POP PUSH1 0x20 PUSH2 0x1C99 DUP7 DUP3 DUP8 ADD PUSH2 0x1AEA JUMP JUMPDEST SWAP3 POP POP PUSH1 0x40 PUSH2 0x1CAA DUP7 DUP3 DUP8 ADD PUSH2 0x1B14 JUMP JUMPDEST SWAP2 POP POP SWAP3 POP SWAP3 POP SWAP3 JUMP JUMPDEST PUSH0 PUSH1 0xFF DUP3 AND SWAP1 POP SWAP2 SWAP1 POP JUMP JUMPDEST PUSH2 0x1CC9 DUP2 PUSH2 0x1CB4 JUMP JUMPDEST DUP3 MSTORE POP POP JUMP JUMPDEST PUSH0 PUSH1 0x20 DUP3 ADD SWAP1 POP PUSH2 0x1CE2 PUSH0 DUP4 ADD DUP5 PUSH2 0x1CC0 JUMP JUMPDEST SWAP3 SWAP2 POP POP JUMP JUMPDEST PUSH0 PUSH1 0x20 DUP3 DUP5 SUB SLT ISZERO PUSH2 0x1CFD JUMPI PUSH2 0x1CFC PUSH2 0x1AA0 JUMP JUMPDEST JUMPDEST PUSH0 PUSH2 0x1D0A DUP5 DUP3 DUP6 ADD PUSH2 0x1AEA JUMP JUMPDEST SWAP2 POP POP SWAP3 SWAP2 POP POP JUMP JUMPDEST PUSH2 0x1D1C DUP2 PUSH2 0x1AC3 JUMP JUMPDEST DUP3 MSTORE POP POP JUMP JUMPDEST PUSH0 PUSH1 0x20 DUP3 ADD SWAP1 POP PUSH2 0x1D35 PUSH0 DUP4 ADD DUP5 PUSH2 0x1D13 JUMP JUMPDEST SWAP3 SWAP2 POP POP JUMP JUMPDEST PUSH0 PUSH1 0x20 DUP3 DUP5 SUB SLT ISZERO PUSH2 0x1D50 JUMPI PUSH2 0x1D4F PUSH2 0x1AA0 JUMP JUMPDEST JUMPDEST PUSH0 PUSH2 0x1D5D DUP5 DUP3 DUP6 ADD PUSH2 0x1B14 JUMP JUMPDEST SWAP2 POP POP SWAP3 SWAP2 POP POP JUMP JUMPDEST PUSH0 PUSH0 PUSH1 0x40 DUP4 DUP6 SUB SLT ISZERO PUSH2 0x1D7C JUMPI PUSH2 0x1D7B PUSH2 0x1AA0 JUMP JUMPDEST JUMPDEST PUSH0 PUSH2 0x1D89 DUP6 DUP3 DUP7 ADD PUSH2 0x1AEA JUMP JUMPDEST SWAP3 POP POP PUSH1 0x20 PUSH2 0x1D9A DUP6 DUP3 DUP7 ADD PUSH2 0x1AEA JUMP JUMPDEST SWAP2 POP POP SWAP3 POP SWAP3 SWAP1 POP JUMP JUMPDEST PUSH32 0x4E487B7100000000000000000000000000000000000000000000000000000000 PUSH0 MSTORE PUSH1 0x22 PUSH1 0x4 MSTORE PUSH1 0x24 PUSH0 REVERT JUMPDEST PUSH0 PUSH1 0x2 DUP3 DIV SWAP1 POP PUSH1 0x1 DUP3 AND DUP1 PUSH2 0x1DE8 JUMPI PUSH1 0x7F DUP3 AND SWAP2 POP JUMPDEST PUSH1 0x20 DUP3 LT DUP2 SUB PUSH2 0x1DFB JUMPI PUSH2 0x1DFA PUSH2 0x1DA4 JUMP JUMPDEST JUMPDEST POP SWAP2 SWAP1 POP JUMP JUMPDEST PUSH32 0x416D6F756E74206D757374206265203E20300000000000000000000000000000 PUSH0 DUP3 ADD MSTORE POP JUMP JUMPDEST PUSH0 PUSH2 0x1E35 PUSH1 0x12 DUP4 PUSH2 0x19DB JUMP JUMPDEST SWAP2 POP PUSH2 0x1E40 DUP3 PUSH2 0x1E01 JUMP JUMPDEST PUSH1 0x20 DUP3 ADD SWAP1 POP SWAP2 SWAP1 POP JUMP JUMPDEST PUSH0 PUSH1 0x20 DUP3 ADD SWAP1 POP DUP2 DUP2 SUB PUSH0 DUP4 ADD MSTORE PUSH2 0x1E62 DUP2 PUSH2 0x1E29 JUMP JUMPDEST SWAP1 POP SWAP2 SWAP1 POP JUMP JUMPDEST PUSH32 0x496E73756666696369656E742072657365727665730000000000000000000000 PUSH0 DUP3 ADD MSTORE POP JUMP JUMPDEST PUSH0 PUSH2 0x1E9D PUSH1 0x15 DUP4 PUSH2 0x19DB JUMP JUMPDEST SWAP2 POP PUSH2 0x1EA8 DUP3 PUSH2 0x1E69 JUMP JUMPDEST PUSH1 0x20 DUP3 ADD SWAP1 POP SWAP2 SWAP1 POP JUMP JUMPDEST PUSH0 PUSH1 0x20 DUP3 ADD SWAP1 POP DUP2 DUP2 SUB PUSH0 DUP4 ADD MSTORE PUSH2 0x1ECA DUP2 PUSH2 0x1E91 JUMP JUMPDEST SWAP1 POP SWAP2 SWAP1 POP JUMP JUMPDEST PUSH32 0x4E487B7100000000000000000000000000000000000000000000000000000000 PUSH0 MSTORE PUSH1 0x11 PUSH1 0x4 MSTORE PUSH1 0x24 PUSH0 REVERT JUMPDEST PUSH0 PUSH2 0x1F08 DUP3 PUSH2 0x1A61 JUMP JUMPDEST SWAP2 POP PUSH2 0x1F13 DUP4 PUSH2 0x1A61 JUMP JUMPDEST SWAP3 POP DUP3 DUP3 MUL PUSH2 0x1F21 DUP2 PUSH2 0x1A61 JUMP JUMPDEST SWAP2 POP DUP3 DUP3 DIV DUP5 EQ DUP4 ISZERO OR PUSH2 0x1F38 JUMPI PUSH2 0x1F37 PUSH2 0x1ED1 JUMP JUMPDEST JUMPDEST POP SWAP3 SWAP2 POP POP JUMP JUMPDEST PUSH32 0x4E487B7100000000000000000000000000000000000000000000000000000000 PUSH0 MSTORE PUSH1 0x12 PUSH1 0x4 MSTORE PUSH1 0x24 PUSH0 REVERT JUMPDEST PUSH0 PUSH2 0x1F76 DUP3 PUSH2 0x1A61 JUMP JUMPDEST SWAP2 POP PUSH2 0x1F81 DUP4 PUSH2 0x1A61 JUMP JUMPDEST SWAP3 POP DUP3 PUSH2 0x1F91 JUMPI PUSH2 0x1F90 PUSH2 0x1F3F JUMP JUMPDEST JUMPDEST DUP3 DUP3 DIV SWAP1 POP SWAP3 SWAP2 POP POP JUMP JUMPDEST PUSH0 PUSH2 0x1FA6 DUP3 PUSH2 0x1A61 JUMP JUMPDEST SWAP2 POP PUSH2 0x1FB1 DUP4 PUSH2 0x1A61 JUMP JUMPDEST SWAP3 POP DUP3 DUP3 ADD SWAP1 POP DUP1 DUP3 GT ISZERO PUSH2 0x1FC9 JUMPI PUSH2 0x1FC8 PUSH2 0x1ED1 JUMP JUMPDEST JUMPDEST SWAP3 SWAP2 POP POP JUMP JUMPDEST PUSH32 0x536C69707061676520746F6F2068696768000000000000000000000000000000 PUSH0 DUP3 ADD MSTORE POP JUMP JUMPDEST PUSH0 PUSH2 0x2003 PUSH1 0x11 DUP4 PUSH2 0x19DB JUMP JUMPDEST SWAP2 POP PUSH2 0x200E DUP3 PUSH2 0x1FCF JUMP JUMPDEST PUSH1 0x20 DUP3 ADD SWAP1 POP SWAP2 SWAP1 POP JUMP JUMPDEST PUSH0 PUSH1 0x20 DUP3 ADD SWAP1 POP DUP2 DUP2 SUB PUSH0 DUP4 ADD MSTORE PUSH2 0x2030 DUP2 PUSH2 0x1FF7 JUMP JUMPDEST SWAP1 POP SWAP2 SWAP1 POP JUMP JUMPDEST PUSH0 PUSH1 0x60 DUP3 ADD SWAP1 POP PUSH2 0x204A PUSH0 DUP4 ADD DUP7 PUSH2 0x1D13 JUMP JUMPDEST PUSH2 0x2057 PUSH1 0x20 DUP4 ADD DUP6 PUSH2 0x1D13 JUMP JUMPDEST PUSH2 0x2064 PUSH1 0x40 DUP4 ADD DUP5 PUSH2 0x1A6A JUMP JUMPDEST SWAP5 SWAP4 POP POP POP POP JUMP JUMPDEST PUSH2 0x2075 DUP2 PUSH2 0x1B66 JUMP JUMPDEST DUP2 EQ PUSH2 0x207F JUMPI PUSH0 PUSH0 REVERT JUMPDEST POP JUMP JUMPDEST PUSH0 DUP2 MLOAD SWAP1 POP PUSH2 0x2090 DUP2 PUSH2 0x206C JUMP JUMPDEST SWAP3 SWAP2 POP POP JUMP JUMPDEST PUSH0 PUSH1 0x20 DUP3 DUP5 SUB SLT ISZERO PUSH2 0x20AB JUMPI PUSH2 0x20AA PUSH2 0x1AA0 JUMP JUMPDEST JUMPDEST PUSH0 PUSH2 0x20B8 DUP5 DUP3 DUP6 ADD PUSH2 0x2082 JUMP JUMPDEST SWAP2 POP POP SWAP3 SWAP2 POP POP JUMP JUMPDEST PUSH0 PUSH1 0x40 DUP3 ADD SWAP1 POP PUSH2 0x20D4 PUSH0 DUP4 ADD DUP6 PUSH2 0x1D13 JUMP JUMPDEST PUSH2 0x20E1 PUSH1 0x20 DUP4 ADD DUP5 PUSH2 0x1A6A JUMP JUMPDEST SWAP4 SWAP3 POP POP POP JUMP JUMPDEST PUSH0 PUSH2 0x20F2 DUP3 PUSH2 0x1A61 JUMP JUMPDEST SWAP2 POP PUSH2 0x20FD DUP4 PUSH2 0x1A61 JUMP JUMPDEST SWAP3 POP DUP3 DUP3 SUB SWAP1 POP DUP2 DUP2 GT ISZERO PUSH2 0x2115 JUMPI PUSH2 0x2114 PUSH2 0x1ED1 JUMP JUMPDEST JUMPDEST SWAP3 SWAP2 POP POP JUMP JUMPDEST PUSH0 PUSH1 0x80 DUP3 ADD SWAP1 POP PUSH2 0x212E PUSH0 DUP4 ADD DUP8 PUSH2 0x1D13 JUMP JUMPDEST PUSH2 0x213B PUSH1 0x20 DUP4 ADD DUP7 PUSH2 0x1A6A JUMP JUMPDEST PUSH2 0x2148 PUSH1 0x40 DUP4 ADD DUP6 PUSH2 0x1D13 JUMP JUMPDEST PUSH2 0x2155 PUSH1 0x60 DUP4 ADD DUP5 PUSH2 0x1A6A JUMP JUMPDEST SWAP6 SWAP5 POP POP POP POP POP JUMP JUMPDEST PUSH32 0x4C697175696469747920746F2072656D6F7665206D757374206265203E203000 PUSH0 DUP3 ADD MSTORE POP JUMP JUMPDEST PUSH0 PUSH2 0x2192 PUSH1 0x1F DUP4 PUSH2 0x19DB JUMP JUMPDEST SWAP2 POP PUSH2 0x219D DUP3 PUSH2 0x215E JUMP JUMPDEST PUSH1 0x20 DUP3 ADD SWAP1 POP SWAP2 SWAP1 POP JUMP JUMPDEST PUSH0 PUSH1 0x20 DUP3 ADD SWAP1 POP DUP2 DUP2 SUB PUSH0 DUP4 ADD MSTORE PUSH2 0x21BF DUP2 PUSH2 0x2186 JUMP JUMPDEST SWAP1 POP SWAP2 SWAP1 POP JUMP JUMPDEST PUSH32 0x496E73756666696369656E74206C697175696469747920746F6B656E73000000 PUSH0 DUP3 ADD MSTORE POP JUMP JUMPDEST PUSH0 PUSH2 0x21FA PUSH1 0x1D DUP4 PUSH2 0x19DB JUMP JUMPDEST SWAP2 POP PUSH2 0x2205 DUP3 PUSH2 0x21C6 JUMP JUMPDEST PUSH1 0x20 DUP3 ADD SWAP1 POP SWAP2 SWAP1 POP JUMP JUMPDEST PUSH0 PUSH1 0x20 DUP3 ADD SWAP1 POP DUP2 DUP2 SUB PUSH0 DUP4 ADD MSTORE PUSH2 0x2227 DUP2 PUSH2 0x21EE JUMP JUMPDEST SWAP1 POP SWAP2 SWAP1 POP JUMP JUMPDEST PUSH32 0x4E6F206C697175696469747920696E2074686520706F6F6C0000000000000000 PUSH0 DUP3 ADD MSTORE POP JUMP JUMPDEST PUSH0 PUSH2 0x2262 PUSH1 0x18 DUP4 PUSH2 0x19DB JUMP JUMPDEST SWAP2 POP PUSH2 0x226D DUP3 PUSH2 0x222E JUMP JUMPDEST PUSH1 0x20 DUP3 ADD SWAP1 POP SWAP2 SWAP1 POP JUMP JUMPDEST PUSH0 PUSH1 0x20 DUP3 ADD SWAP1 POP DUP2 DUP2 SUB PUSH0 DUP4 ADD MSTORE PUSH2 0x228F DUP2 PUSH2 0x2256 JUMP JUMPDEST SWAP1 POP SWAP2 SWAP1 POP JUMP JUMPDEST PUSH32 0x496E73756666696369656E7420726573657276657320666F7220726571756573 PUSH0 DUP3 ADD MSTORE PUSH32 0x746564206C697175696469747900000000000000000000000000000000000000 PUSH1 0x20 DUP3 ADD MSTORE POP JUMP JUMPDEST PUSH0 PUSH2 0x22F0 PUSH1 0x2D DUP4 PUSH2 0x19DB JUMP JUMPDEST SWAP2 POP PUSH2 0x22FB DUP3 PUSH2 0x2296 JUMP JUMPDEST PUSH1 0x40 DUP3 ADD SWAP1 POP SWAP2 SWAP1 POP JUMP JUMPDEST PUSH0 PUSH1 0x20 DUP3 ADD SWAP1 POP DUP2 DUP2 SUB PUSH0 DUP4 ADD MSTORE PUSH2 0x231D DUP2 PUSH2 0x22E4 JUMP JUMPDEST SWAP1 POP SWAP2 SWAP1 POP JUMP JUMPDEST PUSH0 PUSH1 0x60 DUP3 ADD SWAP1 POP PUSH2 0x2337 PUSH0 DUP4 ADD DUP7 PUSH2 0x1A6A JUMP JUMPDEST PUSH2 0x2344 PUSH1 0x20 DUP4 ADD DUP6 PUSH2 0x1A6A JUMP JUMPDEST PUSH2 0x2351 PUSH1 0x40 DUP4 ADD DUP5 PUSH2 0x1A6A JUMP JUMPDEST SWAP5 SWAP4 POP POP POP POP JUMP JUMPDEST PUSH32 0x416D6F756E7473206D757374206265203E203000000000000000000000000000 PUSH0 DUP3 ADD MSTORE POP JUMP JUMPDEST PUSH0 PUSH2 0x238D PUSH1 0x13 DUP4 PUSH2 0x19DB JUMP JUMPDEST SWAP2 POP PUSH2 0x2398 DUP3 PUSH2 0x2359 JUMP JUMPDEST PUSH1 0x20 DUP3 ADD SWAP1 POP SWAP2 SWAP1 POP JUMP JUMPDEST PUSH0 PUSH1 0x20 DUP3 ADD SWAP1 POP DUP2 DUP2 SUB PUSH0 DUP4 ADD MSTORE PUSH2 0x23BA DUP2 PUSH2 0x2381 JUMP JUMPDEST SWAP1 POP SWAP2 SWAP1 POP JUMP JUMPDEST PUSH0 PUSH1 0x60 DUP3 ADD SWAP1 POP PUSH2 0x23D4 PUSH0 DUP4 ADD DUP7 PUSH2 0x1D13 JUMP JUMPDEST PUSH2 0x23E1 PUSH1 0x20 DUP4 ADD DUP6 PUSH2 0x1A6A JUMP JUMPDEST PUSH2 0x23EE PUSH1 0x40 DUP4 ADD DUP5 PUSH2 0x1A6A JUMP JUMPDEST SWAP5 SWAP4 POP POP POP POP JUMP INVALID LOG2 PUSH5 0x6970667358 0x22 SLT KECCAK256 PUSH20 0x8B2C834D3BFB667288A19228B6900F00DDC9A577 0xB6 SWAP10 0xEA POP MCOPY 0xB7 0xE9 0x28 LOG2 0xCD EQ PUSH5 0x736F6C6343 STOP ADDMOD 0x1E STOP CALLER "
		},
		"gasEstimates": {
			"creation": {
				"codeDepositCost": "1852000",
				"executionCost": "infinite",
				"totalCost": "infinite"
			},
			"external": {
				"addLiquidity(uint256,uint256)": "infinite",
				"allowance(address,address)": "infinite",
				"approve(address,uint256)": "infinite",
				"balanceOf(address)": "2873",
				"decimals()": "449",
				"getReserves()": "infinite",
				"name()": "infinite",
				"owner()": "2575",
				"removeLiquidity(uint256)": "infinite",
				"reserveA()": "2513",
				"reserveB()": "2492",
				"swapAforB(uint256,uint256)": "infinite",
				"swapBforA(uint256,uint256)": "infinite",
				"symbol()": "infinite",
				"tokenA()": "infinite",
				"tokenB()": "infinite",
				"totalSupply()": "2477",
				"transfer(address,uint256)": "infinite",
				"transferFrom(address,address,uint256)": "infinite"
			},
			"internal": {
				"min(uint256,uint256)": "63",
				"sqrt(uint256)": "infinite"
			}
		},
		"methodIdentifiers": {
			"addLiquidity(uint256,uint256)": "9cd441da",
			"allowance(address,address)": "dd62ed3e",
			"approve(address,uint256)": "095ea7b3",
			"balanceOf(address)": "70a08231",
			"decimals()": "313ce567",
			"getReserves()": "0902f1ac",
			"name()": "06fdde03",
			"owner()": "8da5cb5b",
			"removeLiquidity(uint256)": "9c8f9f23",
			"reserveA()": "dc5fa6c5",
			"reserveB()": "19e36f3b",
			"swapAforB(uint256,uint256)": "140e6247",
			"swapBforA(uint256,uint256)": "c915cc24",
			"symbol()": "95d89b41",
			"tokenA()": "0fc63d10",
			"tokenB()": "5f64b55b",
			"totalSupply()": "18160ddd",
			"transfer(address,uint256)": "a9059cbb",
			"transferFrom(address,address,uint256)": "23b872dd"
		}
	},
	"abi": [
		{
			"inputs": [
				{
					"internalType": "address",
					"name": "_tokenA",
					"type": "address"
				},
				{
					"internalType": "address",
					"name": "_tokenB",
					"type": "address"
				},
				{
					"internalType": "string",
					"name": "_name",
					"type": "string"
				},
				{
					"internalType": "string",
					"name": "_symbol",
					"type": "string"
				}
			],
			"stateMutability": "nonpayable",
			"type": "constructor"
		},
		{
			"inputs": [
				{
					"internalType": "address",
					"name": "spender",
					"type": "address"
				},
				{
					"internalType": "uint256",
					"name": "allowance",
					"type": "uint256"
				},
				{
					"internalType": "uint256",
					"name": "needed",
					"type": "uint256"
				}
			],
			"name": "ERC20InsufficientAllowance",
			"type": "error"
		},
		{
			"inputs": [
				{
					"internalType": "address",
					"name": "sender",
					"type": "address"
				},
				{
					"internalType": "uint256",
					"name": "balance",
					"type": "uint256"
				},
				{
					"internalType": "uint256",
					"name": "needed",
					"type": "uint256"
				}
			],
			"name": "ERC20InsufficientBalance",
			"type": "error"
		},
		{
			"inputs": [
				{
					"internalType": "address",
					"name": "approver",
					"type": "address"
				}
			],
			"name": "ERC20InvalidApprover",
			"type": "error"
		},
		{
			"inputs": [
				{
					"internalType": "address",
					"name": "receiver",
					"type": "address"
				}
			],
			"name": "ERC20InvalidReceiver",
			"type": "error"
		},
		{
			"inputs": [
				{
					"internalType": "address",
					"name": "sender",
					"type": "address"
				}
			],
			"name": "ERC20InvalidSender",
			"type": "error"
		},
		{
			"inputs": [
				{
					"internalType": "address",
					"name": "spender",
					"type": "address"
				}
			],
			"name": "ERC20InvalidSpender",
			"type": "error"
		},
		{
			"anonymous": false,
			"inputs": [
				{
					"indexed": true,
					"internalType": "address",
					"name": "owner",
					"type": "address"
				},
				{
					"indexed": true,
					"internalType": "address",
					"name": "spender",
					"type": "address"
				},
				{
					"indexed": false,
					"internalType": "uint256",
					"name": "value",
					"type": "uint256"
				}
			],
			"name": "Approval",
			"type": "event"
		},
		{
			"anonymous": false,
			"inputs": [
				{
					"indexed": true,
					"internalType": "address",
					"name": "provider",
					"type": "address"
				},
				{
					"indexed": false,
					"internalType": "uint256",
					"name": "amountA",
					"type": "uint256"
				},
				{
					"indexed": false,
					"internalType": "uint256",
					"name": "amountB",
					"type": "uint256"
				},
				{
					"indexed": false,
					"internalType": "uint256",
					"name": "liquidity",
					"type": "uint256"
				}
			],
			"name": "LiquidityAdded",
			"type": "event"
		},
		{
			"anonymous": false,
			"inputs": [
				{
					"indexed": true,
					"internalType": "address",
					"name": "provider",
					"type": "address"
				},
				{
					"indexed": false,
					"internalType": "uint256",
					"name": "amountA",
					"type": "uint256"
				},
				{
					"indexed": false,
					"internalType": "uint256",
					"name": "amountB",
					"type": "uint256"
				},
				{
					"indexed": false,
					"internalType": "uint256",
					"name": "liquidity",
					"type": "uint256"
				}
			],
			"name": "LiquidityRemoved",
			"type": "event"
		},
		{
			"anonymous": false,
			"inputs": [
				{
					"indexed": true,
					"internalType": "address",
					"name": "trader",
					"type": "address"
				},
				{
					"indexed": false,
					"internalType": "address",
					"name": "tokenIn",
					"type": "address"
				},
				{
					"indexed": false,
					"internalType": "uint256",
					"name": "amountIn",
					"type": "uint256"
				},
				{
					"indexed": false,
					"internalType": "address",
					"name": "tokenOut",
					"type": "address"
				},
				{
					"indexed": false,
					"internalType": "uint256",
					"name": "amountOut",
					"type": "uint256"
				}
			],
			"name": "TokensSwapped",
			"type": "event"
		},
		{
			"anonymous": false,
			"inputs": [
				{
					"indexed": true,
					"internalType": "address",
					"name": "from",
					"type": "address"
				},
				{
					"indexed": true,
					"internalType": "address",
					"name": "to",
					"type": "address"
				},
				{
					"indexed": false,
					"internalType": "uint256",
					"name": "value",
					"type": "uint256"
				}
			],
			"name": "Transfer",
			"type": "event"
		},
		{
			"inputs": [
				{
					"internalType": "uint256",
					"name": "amountA",
					"type": "uint256"
				},
				{
					"internalType": "uint256",
					"name": "amountB",
					"type": "uint256"
				}
			],
			"name": "addLiquidity",
			"outputs": [],
			"stateMutability": "nonpayable",
			"type": "function"
		},
		{
			"inputs": [
				{
					"internalType": "address",
					"name": "owner",
					"type": "address"
				},
				{
					"internalType": "address",
					"name": "spender",
					"type": "address"
				}
			],
			"name": "allowance",
			"outputs": [
				{
					"internalType": "uint256",
					"name": "",
					"type": "uint256"
				}
			],
			"stateMutability": "view",
			"type": "function"
		},
		{
			"inputs": [
				{
					"internalType": "address",
					"name": "spender",
					"type": "address"
				},
				{
					"internalType": "uint256",
					"name": "value",
					"type": "uint256"
				}
			],
			"name": "approve",
			"outputs": [
				{
					"internalType": "bool",
					"name": "",
					"type": "bool"
				}
			],
			"stateMutability": "nonpayable",
			"type": "function"
		},
		{
			"inputs": [
				{
					"internalType": "address",
					"name": "account",
					"type": "address"
				}
			],
			"name": "balanceOf",
			"outputs": [
				{
					"internalType": "uint256",
					"name": "",
					"type": "uint256"
				}
			],
			"stateMutability": "view",
			"type": "function"
		},
		{
			"inputs": [],
			"name": "decimals",
			"outputs": [
				{
					"internalType": "uint8",
					"name": "",
					"type": "uint8"
				}
			],
			"stateMutability": "view",
			"type": "function"
		},
		{
			"inputs": [],
			"name": "getReserves",
			"outputs": [
				{
					"internalType": "uint256",
					"name": "",
					"type": "uint256"
				},
				{
					"internalType": "uint256",
					"name": "",
					"type": "uint256"
				}
			],
			"stateMutability": "view",
			"type": "function"
		},
		{
			"inputs": [],
			"name": "name",
			"outputs": [
				{
					"internalType": "string",
					"name": "",
					"type": "string"
				}
			],
			"stateMutability": "view",
			"type": "function"
		},
		{
			"inputs": [],
			"name": "owner",
			"outputs": [
				{
					"internalType": "address",
					"name": "",
					"type": "address"
				}
			],
			"stateMutability": "view",
			"type": "function"
		},
		{
			"inputs": [
				{
					"internalType": "uint256",
					"name": "liquidityToRemove",
					"type": "uint256"
				}
			],
			"name": "removeLiquidity",
			"outputs": [
				{
					"internalType": "uint256",
					"name": "amountAOut",
					"type": "uint256"
				},
				{
					"internalType": "uint256",
					"name": "amountBOut",
					"type": "uint256"
				}
			],
			"stateMutability": "nonpayable",
			"type": "function"
		},
		{
			"inputs": [],
			"name": "reserveA",
			"outputs": [
				{
					"internalType": "uint256",
					"name": "",
					"type": "uint256"
				}
			],
			"stateMutability": "view",
			"type": "function"
		},
		{
			"inputs": [],
			"name": "reserveB",
			"outputs": [
				{
					"internalType": "uint256",
					"name": "",
					"type": "uint256"
				}
			],
			"stateMutability": "view",
			"type": "function"
		},
		{
			"inputs": [
				{
					"internalType": "uint256",
					"name": "amountAIn",
					"type": "uint256"
				},
				{
					"internalType": "uint256",
					"name": "minBOut",
					"type": "uint256"
				}
			],
			"name": "swapAforB",
			"outputs": [],
			"stateMutability": "nonpayable",
			"type": "function"
		},
		{
			"inputs": [
				{
					"internalType": "uint256",
					"name": "amountBIn",
					"type": "uint256"
				},
				{
					"internalType": "uint256",
					"name": "minAOut",
					"type": "uint256"
				}
			],
			"name": "swapBforA",
			"outputs": [],
			"stateMutability": "nonpayable",
			"type": "function"
		},
		{
			"inputs": [],
			"name": "symbol",
			"outputs": [
				{
					"internalType": "string",
					"name": "",
					"type": "string"
				}
			],
			"stateMutability": "view",
			"type": "function"
		},
		{
			"inputs": [],
			"name": "tokenA",
			"outputs": [
				{
					"internalType": "contract IERC20",
					"name": "",
					"type": "address"
				}
			],
			"stateMutability": "view",
			"type": "function"
		},
		{
			"inputs": [],
			"name": "tokenB",
			"outputs": [
				{
					"internalType": "contract IERC20",
					"name": "",
					"type": "address"
				}
			],
			"stateMutability": "view",
			"type": "function"
		},
		{
			"inputs": [],
			"name": "totalSupply",
			"outputs": [
				{
					"internalType": "uint256",
					"name": "",
					"type": "uint256"
				}
			],
			"stateMutability": "view",
			"type": "function"
		},
		{
			"inputs": [
				{
					"internalType": "address",
					"name": "to",
					"type": "address"
				},
				{
					"internalType": "uint256",
					"name": "value",
					"type": "uint256"
				}
			],
			"name": "transfer",
			"outputs": [
				{
					"internalType": "bool",
					"name": "",
					"type": "bool"
				}
			],
			"stateMutability": "nonpayable",
			"type": "function"
		},
		{
			"inputs": [
				{
					"internalType": "address",
					"name": "from",
					"type": "address"
				},
				{
					"internalType": "address",
					"name": "to",
					"type": "address"
				},
				{
					"internalType": "uint256",
					"name": "value",
					"type": "uint256"
				}
			],
			"name": "transferFrom",
			"outputs": [
				{
					"internalType": "bool",
					"name": "",
					"type": "bool"
				}
			],
			"stateMutability": "nonpayable",
			"type": "function"
		}
	]
}