{
	"data": {
		"bytecode": {
			"linkReferences": {},
			"object": "608060405234801561000f575f5ffd5b50604051611ae8380380611ae88339818101604052810190610031919061026b565b825f908161003f91906104de565b5081600281905550806003819055503360015f6101000a81548173ffffffffffffffffffffffffffffffffffffffff021916908373ffffffffffffffffffffffffffffffffffffffff160217905550600160055f6101000a81548160ff0219169083151502179055507fef361a1e306446b9c7b03355ef7fbc9ea7cbdc417a1fd436d496c6d5523a48db8383836040516100db93929190610604565b60405180910390a1505050610640565b5f604051905090565b5f5ffd5b5f5ffd5b5f5ffd5b5f5ffd5b5f601f19601f8301169050919050565b7f4e487b71000000000000000000000000000000000000000000000000000000005f52604160045260245ffd5b61014a82610104565b810181811067ffffffffffffffff8211171561016957610168610114565b5b80604052505050565b5f61017b6100eb565b90506101878282610141565b919050565b5f67ffffffffffffffff8211156101a6576101a5610114565b5b6101af82610104565b9050602081019050919050565b8281835e5f83830152505050565b5f6101dc6101d78461018c565b610172565b9050828152602081018484840111156101f8576101f7610100565b5b6102038482856101bc565b509392505050565b5f82601f83011261021f5761021e6100fc565b5b815161022f8482602086016101ca565b91505092915050565b5f819050919050565b61024a81610238565b8114610254575f5ffd5b50565b5f8151905061026581610241565b92915050565b5f5f5f60608486031215610282576102816100f4565b5b5f84015167ffffffffffffffff81111561029f5761029e6100f8565b5b6102ab8682870161020b565b93505060206102bc86828701610257565b92505060406102cd86828701610257565b9150509250925092565b5f81519050919050565b7f4e487b71000000000000000000000000000000000000000000000000000000005f52602260045260245ffd5b5f600282049050600182168061032557607f821691505b602082108103610338576103376102e1565b5b50919050565b5f819050815f5260205f209050919050565b5f6020601f8301049050919050565b5f82821b905092915050565b5f6008830261039a7fffffffffffffffffffffffffffffffffffffffffffffffffffffffffffffffff8261035f565b6103a4868361035f565b95508019841693508086168417925050509392505050565b5f819050919050565b5f6103df6103da6103d584610238565b6103bc565b610238565b9050919050565b5f819050919050565b6103f8836103c5565b61040c610404826103e6565b84845461036b565b825550505050565b5f5f905090565b610423610414565b61042e8184846103ef565b505050565b5b81811015610451576104465f8261041b565b600181019050610434565b5050565b601f821115610496576104678161033e565b61047084610350565b8101602085101561047f578190505b61049361048b85610350565b830182610433565b50505b505050565b5f82821c905092915050565b5f6104b65f198460080261049b565b1980831691505092915050565b5f6104ce83836104a7565b9150826002028217905092915050565b6104e7826102d7565b67ffffffffffffffff811115610500576104ff610114565b5b61050a825461030e565b610515828285610455565b5f60209050601f831160018114610546575f8415610534578287015190505b61053e85826104c3565b8655506105a5565b601f1984166105548661033e565b5f5b8281101561057b57848901518255600182019150602085019450602081019050610556565b868310156105985784890151610594601f8916826104a7565b8355505b6001600288020188555050505b505050505050565b5f82825260208201905092915050565b5f6105c7826102d7565b6105d181856105ad565b93506105e18185602086016101bc565b6105ea81610104565b840191505092915050565b6105fe81610238565b82525050565b5f6060820190508181035f83015261061c81866105bd565b905061062b60208301856105f5565b61063860408301846105f5565b949350505050565b61149b8061064d5f395ff3fe608060405234801561000f575f5ffd5b50600436106100cd575f3560e01c8063665983ec1161008a578063cc54bcf211610064578063cc54bcf214610211578063d866b0b61461022f578063f1adda471461025f578063fa5408011461027d576100cd565b8063665983ec146101a75780638043c9c0146101c357806397aba7f9146101e1576100cd565b80631f5ac1b2146100d1578063258c1ef514610101578063304c44d1146101315780634bfbe5df1461014d5780635f3d7fa11461016b5780636120326514610189575b5f5ffd5b6100eb60048036038101906100e69190610951565b6102ad565b6040516100f89190610994565b60405180910390f35b61011b60048036038101906101169190610ae9565b6102e0565b6040516101289190610b5d565b60405180910390f35b61014b60048036038101906101469190610b76565b61035c565b005b6101556105be565b6040516101629190610bd5565b60405180910390f35b6101736105c4565b6040516101809190610bd5565b60405180910390f35b6101916105ca565b60405161019e9190610bfd565b60405180910390f35b6101c160048036038101906101bc9190610c40565b6105ef565b005b6101cb6106d1565b6040516101d89190610ccb565b60405180910390f35b6101fb60048036038101906101f69190610d15565b61075c565b6040516102089190610bfd565b60405180910390f35b610219610882565b6040516102269190610b5d565b60405180910390f35b61024960048036038101906102449190610951565b610894565b6040516102569190610b5d565b60405180910390f35b6102676108b1565b6040516102749190610bd5565b60405180910390f35b61029760048036038101906102929190610d6f565b6108b7565b6040516102a49190610994565b60405180910390f35b5f305f836040516020016102c393929190610ed8565b604051602081830303815290604052805190602001209050919050565b5f5f6102eb846102ad565b90505f6102f7826108b7565b905060015f9054906101000a900473ffffffffffffffffffffffffffffffffffffffff1673ffffffffffffffffffffffffffffffffffffffff1661033b828661075c565b73ffffffffffffffffffffffffffffffffffffffff16149250505092915050565b60055f9054906101000a900460ff166103aa576040517f08c379a00000000000000000000000000000000000000000000000000000000081526004016103a190610f5a565b60405180910390fd5b620151806002546103bb9190610fa5565b4211156103fd576040517f08c379a00000000000000000000000000000000000000000000000000000000081526004016103f490611022565b60405180910390fd5b60065f3373ffffffffffffffffffffffffffffffffffffffff1673ffffffffffffffffffffffffffffffffffffffff1681526020019081526020015f205f9054906101000a900460ff1615610487576040517f08c379a000000000000000000000000000000000000000000000000000000000815260040161047e9061108a565b60405180910390fd5b600354600454106104cd576040517f08c379a00000000000000000000000000000000000000000000000000000000081526004016104c4906110f2565b60405180910390fd5b6104d733826102e0565b610516576040517f08c379a000000000000000000000000000000000000000000000000000000000815260040161050d9061115a565b60405180910390fd5b600160065f3373ffffffffffffffffffffffffffffffffffffffff1673ffffffffffffffffffffffffffffffffffffffff1681526020019081526020015f205f6101000a81548160ff02191690831515021790555060045f81548092919061057d90611178565b91905055507fc4b6af862e5edf86b47bbd28434015dfdddfc6ce20ea8f6146df2972b54db5d533426040516105b39291906111bf565b60405180910390a150565b60025481565b60035481565b60015f9054906101000a900473ffffffffffffffffffffffffffffffffffffffff1681565b60015f9054906101000a900473ffffffffffffffffffffffffffffffffffffffff1673ffffffffffffffffffffffffffffffffffffffff163373ffffffffffffffffffffffffffffffffffffffff161461067e576040517f08c379a000000000000000000000000000000000000000000000000000000000815260040161067590611256565b60405180910390fd5b8060055f6101000a81548160ff0219169083151502179055507f3b2459d109ea4ebe9f621a02c3324d4b06bcbb121b32094e9210c57575e2f150816040516106c69190610b5d565b60405180910390a150565b5f80546106dd90610e0c565b80601f016020809104026020016040519081016040528092919081815260200182805461070990610e0c565b80156107545780601f1061072b57610100808354040283529160200191610754565b820191905f5260205f20905b81548152906001019060200180831161073757829003601f168201915b505050505081565b5f60418251146107a1576040517f08c379a0000000000000000000000000000000000000000000000000000000008152600401610798906112be565b60405180910390fd5b5f5f5f602085015192506040850151915060608501515f1a9050601b8160ff1610156107d757601b816107d491906112e8565b90505b601b8160ff1614806107ec5750601c8160ff16145b61082b576040517f08c379a000000000000000000000000000000000000000000000000000000000815260040161082290611366565b60405180910390fd5b6001868285856040515f815260200160405260405161084d9493929190611393565b6020604051602081039080840390855afa15801561086d573d5f5f3e3d5ffd5b50505060206040510351935050505092915050565b60055f9054906101000a900460ff1681565b6006602052805f5260405f205f915054906101000a900460ff1681565b60045481565b5f816040516020016108c99190611440565b604051602081830303815290604052805190602001209050919050565b5f604051905090565b5f5ffd5b5f5ffd5b5f73ffffffffffffffffffffffffffffffffffffffff82169050919050565b5f610920826108f7565b9050919050565b61093081610916565b811461093a575f5ffd5b50565b5f8135905061094b81610927565b92915050565b5f60208284031215610966576109656108ef565b5b5f6109738482850161093d565b91505092915050565b5f819050919050565b61098e8161097c565b82525050565b5f6020820190506109a75f830184610985565b92915050565b5f5ffd5b5f5ffd5b5f601f19601f8301169050919050565b7f4e487b71000000000000000000000000000000000000000000000000000000005f52604160045260245ffd5b6109fb826109b5565b810181811067ffffffffffffffff82111715610a1a57610a196109c5565b5b80604052505050565b5f610a2c6108e6565b9050610a3882826109f2565b919050565b5f67ffffffffffffffff821115610a5757610a566109c5565b5b610a60826109b5565b9050602081019050919050565b828183375f83830152505050565b5f610a8d610a8884610a3d565b610a23565b905082815260208101848484011115610aa957610aa86109b1565b5b610ab4848285610a6d565b509392505050565b5f82601f830112610ad057610acf6109ad565b5b8135610ae0848260208601610a7b565b91505092915050565b5f5f60408385031215610aff57610afe6108ef565b5b5f610b0c8582860161093d565b925050602083013567ffffffffffffffff811115610b2d57610b2c6108f3565b5b610b3985828601610abc565b9150509250929050565b5f8115159050919050565b610b5781610b43565b82525050565b5f602082019050610b705f830184610b4e565b92915050565b5f60208284031215610b8b57610b8a6108ef565b5b5f82013567ffffffffffffffff811115610ba857610ba76108f3565b5b610bb484828501610abc565b91505092915050565b5f819050919050565b610bcf81610bbd565b82525050565b5f602082019050610be85f830184610bc6565b92915050565b610bf781610916565b82525050565b5f602082019050610c105f830184610bee565b92915050565b610c1f81610b43565b8114610c29575f5ffd5b50565b5f81359050610c3a81610c16565b92915050565b5f60208284031215610c5557610c546108ef565b5b5f610c6284828501610c2c565b91505092915050565b5f81519050919050565b5f82825260208201905092915050565b8281835e5f83830152505050565b5f610c9d82610c6b565b610ca78185610c75565b9350610cb7818560208601610c85565b610cc0816109b5565b840191505092915050565b5f6020820190508181035f830152610ce38184610c93565b905092915050565b610cf48161097c565b8114610cfe575f5ffd5b50565b5f81359050610d0f81610ceb565b92915050565b5f5f60408385031215610d2b57610d2a6108ef565b5b5f610d3885828601610d01565b925050602083013567ffffffffffffffff811115610d5957610d586108f3565b5b610d6585828601610abc565b9150509250929050565b5f60208284031215610d8457610d836108ef565b5b5f610d9184828501610d01565b91505092915050565b5f8160601b9050919050565b5f610db082610d9a565b9050919050565b5f610dc182610da6565b9050919050565b610dd9610dd482610916565b610db7565b82525050565b7f4e487b71000000000000000000000000000000000000000000000000000000005f52602260045260245ffd5b5f6002820490506001821680610e2357607f821691505b602082108103610e3657610e35610ddf565b5b50919050565b5f81905092915050565b5f819050815f5260205f209050919050565b5f8154610e6481610e0c565b610e6e8186610e3c565b9450600182165f8114610e885760018114610e9d57610ecf565b60ff1983168652811515820286019350610ecf565b610ea685610e46565b5f5b83811015610ec757815481890152600182019150602081019050610ea8565b838801955050505b50505092915050565b5f610ee38286610dc8565b601482019150610ef38285610e58565b9150610eff8284610dc8565b601482019150819050949350505050565b7f4576656e74206973206e6f7420616374697665000000000000000000000000005f82015250565b5f610f44601383610c75565b9150610f4f82610f10565b602082019050919050565b5f6020820190508181035f830152610f7181610f38565b9050919050565b7f4e487b71000000000000000000000000000000000000000000000000000000005f52601160045260245ffd5b5f610faf82610bbd565b9150610fba83610bbd565b9250828201905080821115610fd257610fd1610f78565b5b92915050565b7f4576656e742068617320656e64656400000000000000000000000000000000005f82015250565b5f61100c600f83610c75565b915061101782610fd8565b602082019050919050565b5f6020820190508181035f83015261103981611000565b9050919050565b7f417474656e6465652068617320616c726561647920636865636b656420696e005f82015250565b5f611074601f83610c75565b915061107f82611040565b602082019050919050565b5f6020820190508181035f8301526110a181611068565b9050919050565b7f4d6178696d756d20617474656e646565732072656163686564000000000000005f82015250565b5f6110dc601983610c75565b91506110e7826110a8565b602082019050919050565b5f6020820190508181035f830152611109816110d0565b9050919050565b7f496e76616c6964207369676e61747572650000000000000000000000000000005f82015250565b5f611144601183610c75565b915061114f82611110565b602082019050919050565b5f6020820190508181035f83015261117181611138565b9050919050565b5f61118282610bbd565b91507fffffffffffffffffffffffffffffffffffffffffffffffffffffffffffffffff82036111b4576111b3610f78565b5b600182019050919050565b5f6040820190506111d25f830185610bee565b6111df6020830184610bc6565b9392505050565b7f4f6e6c7920746865206576656e74206f7267616e697a65722063616e2063616c5f8201527f6c20746869732066756e6374696f6e0000000000000000000000000000000000602082015250565b5f611240602f83610c75565b915061124b826111e6565b604082019050919050565b5f6020820190508181035f83015261126d81611234565b9050919050565b7f496e76616c6964207369676e6174757265206c656e67746800000000000000005f82015250565b5f6112a8601883610c75565b91506112b382611274565b602082019050919050565b5f6020820190508181035f8301526112d58161129c565b9050919050565b5f60ff82169050919050565b5f6112f2826112dc565b91506112fd836112dc565b9250828201905060ff81111561131657611315610f78565b5b92915050565b7f496e76616c6964207369676e6174757265202776272076616c756500000000005f82015250565b5f611350601b83610c75565b915061135b8261131c565b602082019050919050565b5f6020820190508181035f83015261137d81611344565b9050919050565b61138d816112dc565b82525050565b5f6080820190506113a65f830187610985565b6113b36020830186611384565b6113c06040830185610985565b6113cd6060830184610985565b95945050505050565b7f19457468657265756d205369676e6564204d6573736167653a0a3332000000005f82015250565b5f61140a601c83610e3c565b9150611415826113d6565b601c82019050919050565b5f819050919050565b61143a6114358261097c565b611420565b82525050565b5f61144a826113fe565b91506114568284611429565b6020820191508190509291505056fea2646970667358221220d9143fb3fc18ba4da20da18198af456d852aeaa27690068ab3f389f7b16a298a64736f6c634300081e0033",
			"opcodes": "PUSH1 0x80 PUSH1 0x40 MSTORE CALLVALUE DUP1 ISZERO PUSH2 0xF JUMPI PUSH0 PUSH0 REVERT JUMPDEST POP PUSH1 0x40 MLOAD PUSH2 0x1AE8 CODESIZE SUB DUP1 PUSH2 0x1AE8 DUP4 CODECOPY DUP2 DUP2 ADD PUSH1 0x40 MSTORE DUP2 ADD SWAP1 PUSH2 0x31 SWAP2 SWAP1 PUSH2 0x26B JUMP JUMPDEST DUP3 PUSH0 SWAP1 DUP2 PUSH2 0x3F SWAP2 SWAP1 PUSH2 0x4DE JUMP JUMPDEST POP DUP2 PUSH1 0x2 DUP2 SWAP1 SSTORE POP DUP1 PUSH1 0x3 DUP2 SWAP1 SSTORE POP CALLER PUSH1 0x1 PUSH0 PUSH2 0x100 EXP DUP2 SLOAD DUP2 PUSH20 0xFFFFFFFFFFFFFFFFFFFFFFFFFFFFFFFFFFFFFFFF MUL NOT AND SWAP1 DUP4 PUSH20 0xFFFFFFFFFFFFFFFFFFFFFFFFFFFFFFFFFFFFFFFF AND MUL OR SWAP1 SSTORE POP PUSH1 0x1 PUSH1 0x5 PUSH0 PUSH2 0x100 EXP DUP2 SLOAD DUP2 PUSH1 0xFF MUL NOT AND SWAP1 DUP4 ISZERO ISZERO MUL OR SWAP1 SSTORE POP PUSH32 0xEF361A1E306446B9C7B03355EF7FBC9EA7CBDC417A1FD436D496C6D5523A48DB DUP4 DUP4 DUP4 PUSH1 0x40 MLOAD PUSH2 0xDB SWAP4 SWAP3 SWAP2 SWAP1 PUSH2 0x604 JUMP JUMPDEST PUSH1 0x40 MLOAD DUP1 SWAP2 SUB SWAP1 LOG1 POP POP POP PUSH2 0x640 JUMP JUMPDEST PUSH0 PUSH1 0x40 MLOAD SWAP1 POP SWAP1 JUMP JUMPDEST PUSH0 PUSH0 REVERT JUMPDEST PUSH0 PUSH0 REVERT JUMPDEST PUSH0 PUSH0 REVERT JUMPDEST PUSH0 PUSH0 REVERT JUMPDEST PUSH0 PUSH1 0x1F NOT PUSH1 0x1F DUP4 ADD AND SWAP1 POP SWAP2 SWAP1 POP JUMP JUMPDEST PUSH32 0x4E487B7100000000000000000000000000000000000000000000000000000000 PUSH0 MSTORE PUSH1 0x41 PUSH1 0x4 MSTORE PUSH1 0x24 PUSH0 REVERT JUMPDEST PUSH2 0x14A DUP3 PUSH2 0x104 JUMP JUMPDEST DUP2 ADD DUP2 DUP2 LT PUSH8 0xFFFFFFFFFFFFFFFF DUP3 GT OR ISZERO PUSH2 0x169 JUMPI PUSH2 0x168 PUSH2 0x114 JUMP JUMPDEST JUMPDEST DUP1 PUSH1 0x40 MSTORE POP POP POP JUMP JUMPDEST PUSH0 PUSH2 0x17B PUSH2 0xEB JUMP JUMPDEST SWAP1 POP PUSH2 0x187 DUP3 DUP3 PUSH2 0x141 JUMP JUMPDEST SWAP2 SWAP1 POP JUMP JUMPDEST PUSH0 PUSH8 0xFFFFFFFFFFFFFFFF DUP3 GT ISZERO PUSH2 0x1A6 JUMPI PUSH2 0x1A5 PUSH2 0x114 JUMP JUMPDEST JUMPDEST PUSH2 0x1AF DUP3 PUSH2 0x104 JUMP JUMPDEST SWAP1 POP PUSH1 0x20 DUP2 ADD SWAP1 POP SWAP2 SWAP1 POP JUMP JUMPDEST DUP3 DUP2 DUP4 MCOPY PUSH0 DUP4 DUP4 ADD MSTORE POP POP POP JUMP JUMPDEST PUSH0 PUSH2 0x1DC PUSH2 0x1D7 DUP5 PUSH2 0x18C JUMP JUMPDEST PUSH2 0x172 JUMP JUMPDEST SWAP1 POP DUP3 DUP2 MSTORE PUSH1 0x20 DUP2 ADD DUP5 DUP5 DUP5 ADD GT ISZERO PUSH2 0x1F8 JUMPI PUSH2 0x1F7 PUSH2 0x100 JUMP JUMPDEST JUMPDEST PUSH2 0x203 DUP5 DUP3 DUP6 PUSH2 0x1BC JUMP JUMPDEST POP SWAP4 SWAP3 POP POP POP JUMP JUMPDEST PUSH0 DUP3 PUSH1 0x1F DUP4 ADD SLT PUSH2 0x21F JUMPI PUSH2 0x21E PUSH2 0xFC JUMP JUMPDEST JUMPDEST DUP2 MLOAD PUSH2 0x22F DUP5 DUP3 PUSH1 0x20 DUP7 ADD PUSH2 0x1CA JUMP JUMPDEST SWAP2 POP POP SWAP3 SWAP2 POP POP JUMP JUMPDEST PUSH0 DUP2 SWAP1 POP SWAP2 SWAP1 POP JUMP JUMPDEST PUSH2 0x24A DUP2 PUSH2 0x238 JUMP JUMPDEST DUP2 EQ PUSH2 0x254 JUMPI PUSH0 PUSH0 REVERT JUMPDEST POP JUMP JUMPDEST PUSH0 DUP2 MLOAD SWAP1 POP PUSH2 0x265 DUP2 PUSH2 0x241 JUMP JUMPDEST SWAP3 SWAP2 POP POP JUMP JUMPDEST PUSH0 PUSH0 PUSH0 PUSH1 0x60 DUP5 DUP7 SUB SLT ISZERO PUSH2 0x282 JUMPI PUSH2 0x281 PUSH2 0xF4 JUMP JUMPDEST JUMPDEST PUSH0 DUP5 ADD MLOAD PUSH8 0xFFFFFFFFFFFFFFFF DUP2 GT ISZERO PUSH2 0x29F JUMPI PUSH2 0x29E PUSH2 0xF8 JUMP JUMPDEST JUMPDEST PUSH2 0x2AB DUP7 DUP3 DUP8 ADD PUSH2 0x20B JUMP JUMPDEST SWAP4 POP POP PUSH1 0x20 PUSH2 0x2BC DUP7 DUP3 DUP8 ADD PUSH2 0x257 JUMP JUMPDEST SWAP3 POP POP PUSH1 0x40 PUSH2 0x2CD DUP7 DUP3 DUP8 ADD PUSH2 0x257 JUMP JUMPDEST SWAP2 POP POP SWAP3 POP SWAP3 POP SWAP3 JUMP JUMPDEST PUSH0 DUP2 MLOAD SWAP1 POP SWAP2 SWAP1 POP JUMP JUMPDEST PUSH32 0x4E487B7100000000000000000000000000000000000000000000000000000000 PUSH0 MSTORE PUSH1 0x22 PUSH1 0x4 MSTORE PUSH1 0x24 PUSH0 REVERT JUMPDEST PUSH0 PUSH1 0x2 DUP3 DIV SWAP1 POP PUSH1 0x1 DUP3 AND DUP1 PUSH2 0x325 JUMPI PUSH1 0x7F DUP3 AND SWAP2 POP JUMPDEST PUSH1 0x20 DUP3 LT DUP2 SUB PUSH2 0x338 JUMPI PUSH2 0x337 PUSH2 0x2E1 JUMP JUMPDEST JUMPDEST POP SWAP2 SWAP1 POP JUMP JUMPDEST PUSH0 DUP2 SWAP1 POP DUP2 PUSH0 MSTORE PUSH1 0x20 PUSH0 KECCAK256 SWAP1 POP SWAP2 SWAP1 POP JUMP JUMPDEST PUSH0 PUSH1 0x20 PUSH1 0x1F DUP4 ADD DIV SWAP1 POP SWAP2 SWAP1 POP JUMP JUMPDEST PUSH0 DUP3 DUP3 SHL SWAP1 POP SWAP3 SWAP2 POP POP JUMP JUMPDEST PUSH0 PUSH1 0x8 DUP4 MUL PUSH2 0x39A PUSH32 0xFFFFFFFFFFFFFFFFFFFFFFFFFFFFFFFFFFFFFFFFFFFFFFFFFFFFFFFFFFFFFFFF DUP3 PUSH2 0x35F JUMP JUMPDEST PUSH2 0x3A4 DUP7 DUP4 PUSH2 0x35F JUMP JUMPDEST SWAP6 POP DUP1 NOT DUP5 AND SWAP4 POP DUP1 DUP7 AND DUP5 OR SWAP3 POP POP POP SWAP4 SWAP3 POP POP POP JUMP JUMPDEST PUSH0 DUP2 SWAP1 POP SWAP2 SWAP1 POP JUMP JUMPDEST PUSH0 PUSH2 0x3DF PUSH2 0x3DA PUSH2 0x3D5 DUP5 PUSH2 0x238 JUMP JUMPDEST PUSH2 0x3BC JUMP JUMPDEST PUSH2 0x238 JUMP JUMPDEST SWAP1 POP SWAP2 SWAP1 POP JUMP JUMPDEST PUSH0 DUP2 SWAP1 POP SWAP2 SWAP1 POP JUMP JUMPDEST PUSH2 0x3F8 DUP4 PUSH2 0x3C5 JUMP JUMPDEST PUSH2 0x40C PUSH2 0x404 DUP3 PUSH2 0x3E6 JUMP JUMPDEST DUP5 DUP5 SLOAD PUSH2 0x36B JUMP JUMPDEST DUP3 SSTORE POP POP POP POP JUMP JUMPDEST PUSH0 PUSH0 SWAP1 POP SWAP1 JUMP JUMPDEST PUSH2 0x423 PUSH2 0x414 JUMP JUMPDEST PUSH2 0x42E DUP2 DUP5 DUP5 PUSH2 0x3EF JUMP JUMPDEST POP POP POP JUMP JUMPDEST JUMPDEST DUP2 DUP2 LT ISZERO PUSH2 0x451 JUMPI PUSH2 0x446 PUSH0 DUP3 PUSH2 0x41B JUMP JUMPDEST PUSH1 0x1 DUP2 ADD SWAP1 POP PUSH2 0x434 JUMP JUMPDEST POP POP JUMP JUMPDEST PUSH1 0x1F DUP3 GT ISZERO PUSH2 0x496 JUMPI PUSH2 0x467 DUP2 PUSH2 0x33E JUMP JUMPDEST PUSH2 0x470 DUP5 PUSH2 0x350 JUMP JUMPDEST DUP2 ADD PUSH1 0x20 DUP6 LT ISZERO PUSH2 0x47F JUMPI DUP2 SWAP1 POP JUMPDEST PUSH2 0x493 PUSH2 0x48B DUP6 PUSH2 0x350 JUMP JUMPDEST DUP4 ADD DUP3 PUSH2 0x433 JUMP JUMPDEST POP POP JUMPDEST POP POP POP JUMP JUMPDEST PUSH0 DUP3 DUP3 SHR SWAP1 POP SWAP3 SWAP2 POP POP JUMP JUMPDEST PUSH0 PUSH2 0x4B6 PUSH0 NOT DUP5 PUSH1 0x8 MUL PUSH2 0x49B JUMP JUMPDEST NOT DUP1 DUP4 AND SWAP2 POP POP SWAP3 SWAP2 POP POP JUMP JUMPDEST PUSH0 PUSH2 0x4CE DUP4 DUP4 PUSH2 0x4A7 JUMP JUMPDEST SWAP2 POP DUP3 PUSH1 0x2 MUL DUP3 OR SWAP1 POP SWAP3 SWAP2 POP POP JUMP JUMPDEST PUSH2 0x4E7 DUP3 PUSH2 0x2D7 JUMP JUMPDEST PUSH8 0xFFFFFFFFFFFFFFFF DUP2 GT ISZERO PUSH2 0x500 JUMPI PUSH2 0x4FF PUSH2 0x114 JUMP JUMPDEST JUMPDEST PUSH2 0x50A DUP3 SLOAD PUSH2 0x30E JUMP JUMPDEST PUSH2 0x515 DUP3 DUP3 DUP6 PUSH2 0x455 JUMP JUMPDEST PUSH0 PUSH1 0x20 SWAP1 POP PUSH1 0x1F DUP4 GT PUSH1 0x1 DUP2 EQ PUSH2 0x546 JUMPI PUSH0 DUP5 ISZERO PUSH2 0x534 JUMPI DUP3 DUP8 ADD MLOAD SWAP1 POP JUMPDEST PUSH2 0x53E DUP6 DUP3 PUSH2 0x4C3 JUMP JUMPDEST DUP7 SSTORE POP PUSH2 0x5A5 JUMP JUMPDEST PUSH1 0x1F NOT DUP5 AND PUSH2 0x554 DUP7 PUSH2 0x33E JUMP JUMPDEST PUSH0 JUMPDEST DUP3 DUP2 LT ISZERO PUSH2 0x57B JUMPI DUP5 DUP10 ADD MLOAD DUP3 SSTORE PUSH1 0x1 DUP3 ADD SWAP2 POP PUSH1 0x20 DUP6 ADD SWAP5 POP PUSH1 0x20 DUP2 ADD SWAP1 POP PUSH2 0x556 JUMP JUMPDEST DUP7 DUP4 LT ISZERO PUSH2 0x598 JUMPI DUP5 DUP10 ADD MLOAD PUSH2 0x594 PUSH1 0x1F DUP10 AND DUP3 PUSH2 0x4A7 JUMP JUMPDEST DUP4 SSTORE POP JUMPDEST PUSH1 0x1 PUSH1 0x2 DUP9 MUL ADD DUP9 SSTORE POP POP POP JUMPDEST POP POP POP POP POP POP JUMP JUMPDEST PUSH0 DUP3 DUP3 MSTORE PUSH1 0x20 DUP3 ADD SWAP1 POP SWAP3 SWAP2 POP POP JUMP JUMPDEST PUSH0 PUSH2 0x5C7 DUP3 PUSH2 0x2D7 JUMP JUMPDEST PUSH2 0x5D1 DUP2 DUP6 PUSH2 0x5AD JUMP JUMPDEST SWAP4 POP PUSH2 0x5E1 DUP2 DUP6 PUSH1 0x20 DUP7 ADD PUSH2 0x1BC JUMP JUMPDEST PUSH2 0x5EA DUP2 PUSH2 0x104 JUMP JUMPDEST DUP5 ADD SWAP2 POP POP SWAP3 SWAP2 POP POP JUMP JUMPDEST PUSH2 0x5FE DUP2 PUSH2 0x238 JUMP JUMPDEST DUP3 MSTORE POP POP JUMP JUMPDEST PUSH0 PUSH1 0x60 DUP3 ADD SWAP1 POP DUP2 DUP2 SUB PUSH0 DUP4 ADD MSTORE PUSH2 0x61C DUP2 DUP7 PUSH2 0x5BD JUMP JUMPDEST SWAP1 POP PUSH2 0x62B PUSH1 0x20 DUP4 ADD DUP6 PUSH2 0x5F5 JUMP JUMPDEST PUSH2 0x638 PUSH1 0x40 DUP4 ADD DUP5 PUSH2 0x5F5 JUMP JUMPDEST SWAP5 SWAP4 POP POP POP POP JUMP JUMPDEST PUSH2 0x149B DUP1 PUSH2 0x64D PUSH0 CODECOPY PUSH0 RETURN INVALID PUSH1 0x80 PUSH1 0x40 MSTORE CALLVALUE DUP1 ISZERO PUSH2 0xF JUMPI PUSH0 PUSH0 REVERT JUMPDEST POP PUSH1 0x4 CALLDATASIZE LT PUSH2 0xCD JUMPI PUSH0 CALLDATALOAD PUSH1 0xE0 SHR DUP1 PUSH4 0x665983EC GT PUSH2 0x8A JUMPI DUP1 PUSH4 0xCC54BCF2 GT PUSH2 0x64 JUMPI DUP1 PUSH4 0xCC54BCF2 EQ PUSH2 0x211 JUMPI DUP1 PUSH4 0xD866B0B6 EQ PUSH2 0x22F JUMPI DUP1 PUSH4 0xF1ADDA47 EQ PUSH2 0x25F JUMPI DUP1 PUSH4 0xFA540801 EQ PUSH2 0x27D JUMPI PUSH2 0xCD JUMP JUMPDEST DUP1 PUSH4 0x665983EC EQ PUSH2 0x1A7 JUMPI DUP1 PUSH4 0x8043C9C0 EQ PUSH2 0x1C3 JUMPI DUP1 PUSH4 0x97ABA7F9 EQ PUSH2 0x1E1 JUMPI PUSH2 0xCD JUMP JUMPDEST DUP1 PUSH4 0x1F5AC1B2 EQ PUSH2 0xD1 JUMPI DUP1 PUSH4 0x258C1EF5 EQ PUSH2 0x101 JUMPI DUP1 PUSH4 0x304C44D1 EQ PUSH2 0x131 JUMPI DUP1 PUSH4 0x4BFBE5DF EQ PUSH2 0x14D JUMPI DUP1 PUSH4 0x5F3D7FA1 EQ PUSH2 0x16B JUMPI DUP1 PUSH4 0x61203265 EQ PUSH2 0x189 JUMPI JUMPDEST PUSH0 PUSH0 REVERT JUMPDEST PUSH2 0xEB PUSH1 0x4 DUP1 CALLDATASIZE SUB DUP2 ADD SWAP1 PUSH2 0xE6 SWAP2 SWAP1 PUSH2 0x951 JUMP JUMPDEST PUSH2 0x2AD JUMP JUMPDEST PUSH1 0x40 MLOAD PUSH2 0xF8 SWAP2 SWAP1 PUSH2 0x994 JUMP JUMPDEST PUSH1 0x40 MLOAD DUP1 SWAP2 SUB SWAP1 RETURN JUMPDEST PUSH2 0x11B PUSH1 0x4 DUP1 CALLDATASIZE SUB DUP2 ADD SWAP1 PUSH2 0x116 SWAP2 SWAP1 PUSH2 0xAE9 JUMP JUMPDEST PUSH2 0x2E0 JUMP JUMPDEST PUSH1 0x40 MLOAD PUSH2 0x128 SWAP2 SWAP1 PUSH2 0xB5D JUMP JUMPDEST PUSH1 0x40 MLOAD DUP1 SWAP2 SUB SWAP1 RETURN JUMPDEST PUSH2 0x14B PUSH1 0x4 DUP1 CALLDATASIZE SUB DUP2 ADD SWAP1 PUSH2 0x146 SWAP2 SWAP1 PUSH2 0xB76 JUMP JUMPDEST PUSH2 0x35C JUMP JUMPDEST STOP JUMPDEST PUSH2 0x155 PUSH2 0x5BE JUMP JUMPDEST PUSH1 0x40 MLOAD PUSH2 0x162 SWAP2 SWAP1 PUSH2 0xBD5 JUMP JUMPDEST PUSH1 0x40 MLOAD DUP1 SWAP2 SUB SWAP1 RETURN JUMPDEST PUSH2 0x173 PUSH2 0x5C4 JUMP JUMPDEST PUSH1 0x40 MLOAD PUSH2 0x180 SWAP2 SWAP1 PUSH2 0xBD5 JUMP JUMPDEST PUSH1 0x40 MLOAD DUP1 SWAP2 SUB SWAP1 RETURN JUMPDEST PUSH2 0x191 PUSH2 0x5CA JUMP JUMPDEST PUSH1 0x40 MLOAD PUSH2 0x19E SWAP2 SWAP1 PUSH2 0xBFD JUMP JUMPDEST PUSH1 0x40 MLOAD DUP1 SWAP2 SUB SWAP1 RETURN JUMPDEST PUSH2 0x1C1 PUSH1 0x4 DUP1 CALLDATASIZE SUB DUP2 ADD SWAP1 PUSH2 0x1BC SWAP2 SWAP1 PUSH2 0xC40 JUMP JUMPDEST PUSH2 0x5EF JUMP JUMPDEST STOP JUMPDEST PUSH2 0x1CB PUSH2 0x6D1 JUMP JUMPDEST PUSH1 0x40 MLOAD PUSH2 0x1D8 SWAP2 SWAP1 PUSH2 0xCCB JUMP JUMPDEST PUSH1 0x40 MLOAD DUP1 SWAP2 SUB SWAP1 RETURN JUMPDEST PUSH2 0x1FB PUSH1 0x4 DUP1 CALLDATASIZE SUB DUP2 ADD SWAP1 PUSH2 0x1F6 SWAP2 SWAP1 PUSH2 0xD15 JUMP JUMPDEST PUSH2 0x75C JUMP JUMPDEST PUSH1 0x40 MLOAD PUSH2 0x208 SWAP2 SWAP1 PUSH2 0xBFD JUMP JUMPDEST PUSH1 0x40 MLOAD DUP1 SWAP2 SUB SWAP1 RETURN JUMPDEST PUSH2 0x219 PUSH2 0x882 JUMP JUMPDEST PUSH1 0x40 MLOAD PUSH2 0x226 SWAP2 SWAP1 PUSH2 0xB5D JUMP JUMPDEST PUSH1 0x40 MLOAD DUP1 SWAP2 SUB SWAP1 RETURN JUMPDEST PUSH2 0x249 PUSH1 0x4 DUP1 CALLDATASIZE SUB DUP2 ADD SWAP1 PUSH2 0x244 SWAP2 SWAP1 PUSH2 0x951 JUMP JUMPDEST PUSH2 0x894 JUMP JUMPDEST PUSH1 0x40 MLOAD PUSH2 0x256 SWAP2 SWAP1 PUSH2 0xB5D JUMP JUMPDEST PUSH1 0x40 MLOAD DUP1 SWAP2 SUB SWAP1 RETURN JUMPDEST PUSH2 0x267 PUSH2 0x8B1 JUMP JUMPDEST PUSH1 0x40 MLOAD PUSH2 0x274 SWAP2 SWAP1 PUSH2 0xBD5 JUMP JUMPDEST PUSH1 0x40 MLOAD DUP1 SWAP2 SUB SWAP1 RETURN JUMPDEST PUSH2 0x297 PUSH1 0x4 DUP1 CALLDATASIZE SUB DUP2 ADD SWAP1 PUSH2 0x292 SWAP2 SWAP1 PUSH2 0xD6F JUMP JUMPDEST PUSH2 0x8B7 JUMP JUMPDEST PUSH1 0x40 MLOAD PUSH2 0x2A4 SWAP2 SWAP1 PUSH2 0x994 JUMP JUMPDEST PUSH1 0x40 MLOAD DUP1 SWAP2 SUB SWAP1 RETURN JUMPDEST PUSH0 ADDRESS PUSH0 DUP4 PUSH1 0x40 MLOAD PUSH1 0x20 ADD PUSH2 0x2C3 SWAP4 SWAP3 SWAP2 SWAP1 PUSH2 0xED8 JUMP JUMPDEST PUSH1 0x40 MLOAD PUSH1 0x20 DUP2 DUP4 SUB SUB DUP2 MSTORE SWAP1 PUSH1 0x40 MSTORE DUP1 MLOAD SWAP1 PUSH1 0x20 ADD KECCAK256 SWAP1 POP SWAP2 SWAP1 POP JUMP JUMPDEST PUSH0 PUSH0 PUSH2 0x2EB DUP5 PUSH2 0x2AD JUMP JUMPDEST SWAP1 POP PUSH0 PUSH2 0x2F7 DUP3 PUSH2 0x8B7 JUMP JUMPDEST SWAP1 POP PUSH1 0x1 PUSH0 SWAP1 SLOAD SWAP1 PUSH2 0x100 EXP SWAP1 DIV PUSH20 0xFFFFFFFFFFFFFFFFFFFFFFFFFFFFFFFFFFFFFFFF AND PUSH20 0xFFFFFFFFFFFFFFFFFFFFFFFFFFFFFFFFFFFFFFFF AND PUSH2 0x33B DUP3 DUP7 PUSH2 0x75C JUMP JUMPDEST PUSH20 0xFFFFFFFFFFFFFFFFFFFFFFFFFFFFFFFFFFFFFFFF AND EQ SWAP3 POP POP POP SWAP3 SWAP2 POP POP JUMP JUMPDEST PUSH1 0x5 PUSH0 SWAP1 SLOAD SWAP1 PUSH2 0x100 EXP SWAP1 DIV PUSH1 0xFF AND PUSH2 0x3AA JUMPI PUSH1 0x40 MLOAD PUSH32 0x8C379A000000000000000000000000000000000000000000000000000000000 DUP2 MSTORE PUSH1 0x4 ADD PUSH2 0x3A1 SWAP1 PUSH2 0xF5A JUMP JUMPDEST PUSH1 0x40 MLOAD DUP1 SWAP2 SUB SWAP1 REVERT JUMPDEST PUSH3 0x15180 PUSH1 0x2 SLOAD PUSH2 0x3BB SWAP2 SWAP1 PUSH2 0xFA5 JUMP JUMPDEST TIMESTAMP GT ISZERO PUSH2 0x3FD JUMPI PUSH1 0x40 MLOAD PUSH32 0x8C379A000000000000000000000000000000000000000000000000000000000 DUP2 MSTORE PUSH1 0x4 ADD PUSH2 0x3F4 SWAP1 PUSH2 0x1022 JUMP JUMPDEST PUSH1 0x40 MLOAD DUP1 SWAP2 SUB SWAP1 REVERT JUMPDEST PUSH1 0x6 PUSH0 CALLER PUSH20 0xFFFFFFFFFFFFFFFFFFFFFFFFFFFFFFFFFFFFFFFF AND PUSH20 0xFFFFFFFFFFFFFFFFFFFFFFFFFFFFFFFFFFFFFFFF AND DUP2 MSTORE PUSH1 0x20 ADD SWAP1 DUP2 MSTORE PUSH1 0x20 ADD PUSH0 KECCAK256 PUSH0 SWAP1 SLOAD SWAP1 PUSH2 0x100 EXP SWAP1 DIV PUSH1 0xFF AND ISZERO PUSH2 0x487 JUMPI PUSH1 0x40 MLOAD PUSH32 0x8C379A000000000000000000000000000000000000000000000000000000000 DUP2 MSTORE PUSH1 0x4 ADD PUSH2 0x47E SWAP1 PUSH2 0x108A JUMP JUMPDEST PUSH1 0x40 MLOAD DUP1 SWAP2 SUB SWAP1 REVERT JUMPDEST PUSH1 0x3 SLOAD PUSH1 0x4 SLOAD LT PUSH2 0x4CD JUMPI PUSH1 0x40 MLOAD PUSH32 0x8C379A000000000000000000000000000000000000000000000000000000000 DUP2 MSTORE PUSH1 0x4 ADD PUSH2 0x4C4 SWAP1 PUSH2 0x10F2 JUMP JUMPDEST PUSH1 0x40 MLOAD DUP1 SWAP2 SUB SWAP1 REVERT JUMPDEST PUSH2 0x4D7 CALLER DUP3 PUSH2 0x2E0 JUMP JUMPDEST PUSH2 0x516 JUMPI PUSH1 0x40 MLOAD PUSH32 0x8C379A000000000000000000000000000000000000000000000000000000000 DUP2 MSTORE PUSH1 0x4 ADD PUSH2 0x50D SWAP1 PUSH2 0x115A JUMP JUMPDEST PUSH1 0x40 MLOAD DUP1 SWAP2 SUB SWAP1 REVERT JUMPDEST PUSH1 0x1 PUSH1 0x6 PUSH0 CALLER PUSH20 0xFFFFFFFFFFFFFFFFFFFFFFFFFFFFFFFFFFFFFFFF AND PUSH20 0xFFFFFFFFFFFFFFFFFFFFFFFFFFFFFFFFFFFFFFFF AND DUP2 MSTORE PUSH1 0x20 ADD SWAP1 DUP2 MSTORE PUSH1 0x20 ADD PUSH0 KECCAK256 PUSH0 PUSH2 0x100 EXP DUP2 SLOAD DUP2 PUSH1 0xFF MUL NOT AND SWAP1 DUP4 ISZERO ISZERO MUL OR SWAP1 SSTORE POP PUSH1 0x4 PUSH0 DUP2 SLOAD DUP1 SWAP3 SWAP2 SWAP1 PUSH2 0x57D SWAP1 PUSH2 0x1178 JUMP JUMPDEST SWAP2 SWAP1 POP SSTORE POP PUSH32 0xC4B6AF862E5EDF86B47BBD28434015DFDDDFC6CE20EA8F6146DF2972B54DB5D5 CALLER TIMESTAMP PUSH1 0x40 MLOAD PUSH2 0x5B3 SWAP3 SWAP2 SWAP1 PUSH2 0x11BF JUMP JUMPDEST PUSH1 0x40 MLOAD DUP1 SWAP2 SUB SWAP1 LOG1 POP JUMP JUMPDEST PUSH1 0x2 SLOAD DUP2 JUMP JUMPDEST PUSH1 0x3 SLOAD DUP2 JUMP JUMPDEST PUSH1 0x1 PUSH0 SWAP1 SLOAD SWAP1 PUSH2 0x100 EXP SWAP1 DIV PUSH20 0xFFFFFFFFFFFFFFFFFFFFFFFFFFFFFFFFFFFFFFFF AND DUP2 JUMP JUMPDEST PUSH1 0x1 PUSH0 SWAP1 SLOAD SWAP1 PUSH2 0x100 EXP SWAP1 DIV PUSH20 0xFFFFFFFFFFFFFFFFFFFFFFFFFFFFFFFFFFFFFFFF AND PUSH20 0xFFFFFFFFFFFFFFFFFFFFFFFFFFFFFFFFFFFFFFFF AND CALLER PUSH20 0xFFFFFFFFFFFFFFFFFFFFFFFFFFFFFFFFFFFFFFFF AND EQ PUSH2 0x67E JUMPI PUSH1 0x40 MLOAD PUSH32 0x8C379A000000000000000000000000000000000000000000000000000000000 DUP2 MSTORE PUSH1 0x4 ADD PUSH2 0x675 SWAP1 PUSH2 0x1256 JUMP JUMPDEST PUSH1 0x40 MLOAD DUP1 SWAP2 SUB SWAP1 REVERT JUMPDEST DUP1 PUSH1 0x5 PUSH0 PUSH2 0x100 EXP DUP2 SLOAD DUP2 PUSH1 0xFF MUL NOT AND SWAP1 DUP4 ISZERO ISZERO MUL OR SWAP1 SSTORE POP PUSH32 0x3B2459D109EA4EBE9F621A02C3324D4B06BCBB121B32094E9210C57575E2F150 DUP2 PUSH1 0x40 MLOAD PUSH2 0x6C6 SWAP2 SWAP1 PUSH2 0xB5D JUMP JUMPDEST PUSH1 0x40 MLOAD DUP1 SWAP2 SUB SWAP1 LOG1 POP JUMP JUMPDEST PUSH0 DUP1 SLOAD PUSH2 0x6DD SWAP1 PUSH2 0xE0C JUMP JUMPDEST DUP1 PUSH1 0x1F ADD PUSH1 0x20 DUP1 SWAP2 DIV MUL PUSH1 0x20 ADD PUSH1 0x40 MLOAD SWAP1 DUP2 ADD PUSH1 0x40 MSTORE DUP1 SWAP3 SWAP2 SWAP1 DUP2 DUP2 MSTORE PUSH1 0x20 ADD DUP3 DUP1 SLOAD PUSH2 0x709 SWAP1 PUSH2 0xE0C JUMP JUMPDEST DUP1 ISZERO PUSH2 0x754 JUMPI DUP1 PUSH1 0x1F LT PUSH2 0x72B JUMPI PUSH2 0x100 DUP1 DUP4 SLOAD DIV MUL DUP4 MSTORE SWAP2 PUSH1 0x20 ADD SWAP2 PUSH2 0x754 JUMP JUMPDEST DUP3 ADD SWAP2 SWAP1 PUSH0 MSTORE PUSH1 0x20 PUSH0 KECCAK256 SWAP1 JUMPDEST DUP2 SLOAD DUP2 MSTORE SWAP1 PUSH1 0x1 ADD SWAP1 PUSH1 0x20 ADD DUP1 DUP4 GT PUSH2 0x737 JUMPI DUP3 SWAP1 SUB PUSH1 0x1F AND DUP3 ADD SWAP2 JUMPDEST POP POP POP POP POP DUP2 JUMP JUMPDEST PUSH0 PUSH1 0x41 DUP3 MLOAD EQ PUSH2 0x7A1 JUMPI PUSH1 0x40 MLOAD PUSH32 0x8C379A000000000000000000000000000000000000000000000000000000000 DUP2 MSTORE PUSH1 0x4 ADD PUSH2 0x798 SWAP1 PUSH2 0x12BE JUMP JUMPDEST PUSH1 0x40 MLOAD DUP1 SWAP2 SUB SWAP1 REVERT JUMPDEST PUSH0 PUSH0 PUSH0 PUSH1 0x20 DUP6 ADD MLOAD SWAP3 POP PUSH1 0x40 DUP6 ADD MLOAD SWAP2 POP PUSH1 0x60 DUP6 ADD MLOAD PUSH0 BYTE SWAP1 POP PUSH1 0x1B DUP2 PUSH1 0xFF AND LT ISZERO PUSH2 0x7D7 JUMPI PUSH1 0x1B DUP2 PUSH2 0x7D4 SWAP2 SWAP1 PUSH2 0x12E8 JUMP JUMPDEST SWAP1 POP JUMPDEST PUSH1 0x1B DUP2 PUSH1 0xFF AND EQ DUP1 PUSH2 0x7EC JUMPI POP PUSH1 0x1C DUP2 PUSH1 0xFF AND EQ JUMPDEST PUSH2 0x82B JUMPI PUSH1 0x40 MLOAD PUSH32 0x8C379A000000000000000000000000000000000000000000000000000000000 DUP2 MSTORE PUSH1 0x4 ADD PUSH2 0x822 SWAP1 PUSH2 0x1366 JUMP JUMPDEST PUSH1 0x40 MLOAD DUP1 SWAP2 SUB SWAP1 REVERT JUMPDEST PUSH1 0x1 DUP7 DUP3 DUP6 DUP6 PUSH1 0x40 MLOAD PUSH0 DUP2 MSTORE PUSH1 0x20 ADD PUSH1 0x40 MSTORE PUSH1 0x40 MLOAD PUSH2 0x84D SWAP5 SWAP4 SWAP3 SWAP2 SWAP1 PUSH2 0x1393 JUMP JUMPDEST PUSH1 0x20 PUSH1 0x40 MLOAD PUSH1 0x20 DUP2 SUB SWAP1 DUP1 DUP5 SUB SWAP1 DUP6 GAS STATICCALL ISZERO DUP1 ISZERO PUSH2 0x86D JUMPI RETURNDATASIZE PUSH0 PUSH0 RETURNDATACOPY RETURNDATASIZE PUSH0 REVERT JUMPDEST POP POP POP PUSH1 0x20 PUSH1 0x40 MLOAD SUB MLOAD SWAP4 POP POP POP POP SWAP3 SWAP2 POP POP JUMP JUMPDEST PUSH1 0x5 PUSH0 SWAP1 SLOAD SWAP1 PUSH2 0x100 EXP SWAP1 DIV PUSH1 0xFF AND DUP2 JUMP JUMPDEST PUSH1 0x6 PUSH1 0x20 MSTORE DUP1 PUSH0 MSTORE PUSH1 0x40 PUSH0 KECCAK256 PUSH0 SWAP2 POP SLOAD SWAP1 PUSH2 0x100 EXP SWAP1 DIV PUSH1 0xFF AND DUP2 JUMP JUMPDEST PUSH1 0x4 SLOAD DUP2 JUMP JUMPDEST PUSH0 DUP2 PUSH1 0x40 MLOAD PUSH1 0x20 ADD PUSH2 0x8C9 SWAP2 SWAP1 PUSH2 0x1440 JUMP JUMPDEST PUSH1 0x40 MLOAD PUSH1 0x20 DUP2 DUP4 SUB SUB DUP2 MSTORE SWAP1 PUSH1 0x40 MSTORE DUP1 MLOAD SWAP1 PUSH1 0x20 ADD KECCAK256 SWAP1 POP SWAP2 SWAP1 POP JUMP JUMPDEST PUSH0 PUSH1 0x40 MLOAD SWAP1 POP SWAP1 JUMP JUMPDEST PUSH0 PUSH0 REVERT JUMPDEST PUSH0 PUSH0 REVERT JUMPDEST PUSH0 PUSH20 0xFFFFFFFFFFFFFFFFFFFFFFFFFFFFFFFFFFFFFFFF DUP3 AND SWAP1 POP SWAP2 SWAP1 POP JUMP JUMPDEST PUSH0 PUSH2 0x920 DUP3 PUSH2 0x8F7 JUMP JUMPDEST SWAP1 POP SWAP2 SWAP1 POP JUMP JUMPDEST PUSH2 0x930 DUP2 PUSH2 0x916 JUMP JUMPDEST DUP2 EQ PUSH2 0x93A JUMPI PUSH0 PUSH0 REVERT JUMPDEST POP JUMP JUMPDEST PUSH0 DUP2 CALLDATALOAD SWAP1 POP PUSH2 0x94B DUP2 PUSH2 0x927 JUMP JUMPDEST SWAP3 SWAP2 POP POP JUMP JUMPDEST PUSH0 PUSH1 0x20 DUP3 DUP5 SUB SLT ISZERO PUSH2 0x966 JUMPI PUSH2 0x965 PUSH2 0x8EF JUMP JUMPDEST JUMPDEST PUSH0 PUSH2 0x973 DUP5 DUP3 DUP6 ADD PUSH2 0x93D JUMP JUMPDEST SWAP2 POP POP SWAP3 SWAP2 POP POP JUMP JUMPDEST PUSH0 DUP2 SWAP1 POP SWAP2 SWAP1 POP JUMP JUMPDEST PUSH2 0x98E DUP2 PUSH2 0x97C JUMP JUMPDEST DUP3 MSTORE POP POP JUMP JUMPDEST PUSH0 PUSH1 0x20 DUP3 ADD SWAP1 POP PUSH2 0x9A7 PUSH0 DUP4 ADD DUP5 PUSH2 0x985 JUMP JUMPDEST SWAP3 SWAP2 POP POP JUMP JUMPDEST PUSH0 PUSH0 REVERT JUMPDEST PUSH0 PUSH0 REVERT JUMPDEST PUSH0 PUSH1 0x1F NOT PUSH1 0x1F DUP4 ADD AND SWAP1 POP SWAP2 SWAP1 POP JUMP JUMPDEST PUSH32 0x4E487B7100000000000000000000000000000000000000000000000000000000 PUSH0 MSTORE PUSH1 0x41 PUSH1 0x4 MSTORE PUSH1 0x24 PUSH0 REVERT JUMPDEST PUSH2 0x9FB DUP3 PUSH2 0x9B5 JUMP JUMPDEST DUP2 ADD DUP2 DUP2 LT PUSH8 0xFFFFFFFFFFFFFFFF DUP3 GT OR ISZERO PUSH2 0xA1A JUMPI PUSH2 0xA19 PUSH2 0x9C5 JUMP JUMPDEST JUMPDEST DUP1 PUSH1 0x40 MSTORE POP POP POP JUMP JUMPDEST PUSH0 PUSH2 0xA2C PUSH2 0x8E6 JUMP JUMPDEST SWAP1 POP PUSH2 0xA38 DUP3 DUP3 PUSH2 0x9F2 JUMP JUMPDEST SWAP2 SWAP1 POP JUMP JUMPDEST PUSH0 PUSH8 0xFFFFFFFFFFFFFFFF DUP3 GT ISZERO PUSH2 0xA57 JUMPI PUSH2 0xA56 PUSH2 0x9C5 JUMP JUMPDEST JUMPDEST PUSH2 0xA60 DUP3 PUSH2 0x9B5 JUMP JUMPDEST SWAP1 POP PUSH1 0x20 DUP2 ADD SWAP1 POP SWAP2 SWAP1 POP JUMP JUMPDEST DUP3 DUP2 DUP4 CALLDATACOPY PUSH0 DUP4 DUP4 ADD MSTORE POP POP POP JUMP JUMPDEST PUSH0 PUSH2 0xA8D PUSH2 0xA88 DUP5 PUSH2 0xA3D JUMP JUMPDEST PUSH2 0xA23 JUMP JUMPDEST SWAP1 POP DUP3 DUP2 MSTORE PUSH1 0x20 DUP2 ADD DUP5 DUP5 DUP5 ADD GT ISZERO PUSH2 0xAA9 JUMPI PUSH2 0xAA8 PUSH2 0x9B1 JUMP JUMPDEST JUMPDEST PUSH2 0xAB4 DUP5 DUP3 DUP6 PUSH2 0xA6D JUMP JUMPDEST POP SWAP4 SWAP3 POP POP POP JUMP JUMPDEST PUSH0 DUP3 PUSH1 0x1F DUP4 ADD SLT PUSH2 0xAD0 JUMPI PUSH2 0xACF PUSH2 0x9AD JUMP JUMPDEST JUMPDEST DUP2 CALLDATALOAD PUSH2 0xAE0 DUP5 DUP3 PUSH1 0x20 DUP7 ADD PUSH2 0xA7B JUMP JUMPDEST SWAP2 POP POP SWAP3 SWAP2 POP POP JUMP JUMPDEST PUSH0 PUSH0 PUSH1 0x40 DUP4 DUP6 SUB SLT ISZERO PUSH2 0xAFF JUMPI PUSH2 0xAFE PUSH2 0x8EF JUMP JUMPDEST JUMPDEST PUSH0 PUSH2 0xB0C DUP6 DUP3 DUP7 ADD PUSH2 0x93D JUMP JUMPDEST SWAP3 POP POP PUSH1 0x20 DUP4 ADD CALLDATALOAD PUSH8 0xFFFFFFFFFFFFFFFF DUP2 GT ISZERO PUSH2 0xB2D JUMPI PUSH2 0xB2C PUSH2 0x8F3 JUMP JUMPDEST JUMPDEST PUSH2 0xB39 DUP6 DUP3 DUP7 ADD PUSH2 0xABC JUMP JUMPDEST SWAP2 POP POP SWAP3 POP SWAP3 SWAP1 POP JUMP JUMPDEST PUSH0 DUP2 ISZERO ISZERO SWAP1 POP SWAP2 SWAP1 POP JUMP JUMPDEST PUSH2 0xB57 DUP2 PUSH2 0xB43 JUMP JUMPDEST DUP3 MSTORE POP POP JUMP JUMPDEST PUSH0 PUSH1 0x20 DUP3 ADD SWAP1 POP PUSH2 0xB70 PUSH0 DUP4 ADD DUP5 PUSH2 0xB4E JUMP JUMPDEST SWAP3 SWAP2 POP POP JUMP JUMPDEST PUSH0 PUSH1 0x20 DUP3 DUP5 SUB SLT ISZERO PUSH2 0xB8B JUMPI PUSH2 0xB8A PUSH2 0x8EF JUMP JUMPDEST JUMPDEST PUSH0 DUP3 ADD CALLDATALOAD PUSH8 0xFFFFFFFFFFFFFFFF DUP2 GT ISZERO PUSH2 0xBA8 JUMPI PUSH2 0xBA7 PUSH2 0x8F3 JUMP JUMPDEST JUMPDEST PUSH2 0xBB4 DUP5 DUP3 DUP6 ADD PUSH2 0xABC JUMP JUMPDEST SWAP2 POP POP SWAP3 SWAP2 POP POP JUMP JUMPDEST PUSH0 DUP2 SWAP1 POP SWAP2 SWAP1 POP JUMP JUMPDEST PUSH2 0xBCF DUP2 PUSH2 0xBBD JUMP JUMPDEST DUP3 MSTORE POP POP JUMP JUMPDEST PUSH0 PUSH1 0x20 DUP3 ADD SWAP1 POP PUSH2 0xBE8 PUSH0 DUP4 ADD DUP5 PUSH2 0xBC6 JUMP JUMPDEST SWAP3 SWAP2 POP POP JUMP JUMPDEST PUSH2 0xBF7 DUP2 PUSH2 0x916 JUMP JUMPDEST DUP3 MSTORE POP POP JUMP JUMPDEST PUSH0 PUSH1 0x20 DUP3 ADD SWAP1 POP PUSH2 0xC10 PUSH0 DUP4 ADD DUP5 PUSH2 0xBEE JUMP JUMPDEST SWAP3 SWAP2 POP POP JUMP JUMPDEST PUSH2 0xC1F DUP2 PUSH2 0xB43 JUMP JUMPDEST DUP2 EQ PUSH2 0xC29 JUMPI PUSH0 PUSH0 REVERT JUMPDEST POP JUMP JUMPDEST PUSH0 DUP2 CALLDATALOAD SWAP1 POP PUSH2 0xC3A DUP2 PUSH2 0xC16 JUMP JUMPDEST SWAP3 SWAP2 POP POP JUMP JUMPDEST PUSH0 PUSH1 0x20 DUP3 DUP5 SUB SLT ISZERO PUSH2 0xC55 JUMPI PUSH2 0xC54 PUSH2 0x8EF JUMP JUMPDEST JUMPDEST PUSH0 PUSH2 0xC62 DUP5 DUP3 DUP6 ADD PUSH2 0xC2C JUMP JUMPDEST SWAP2 POP POP SWAP3 SWAP2 POP POP JUMP JUMPDEST PUSH0 DUP2 MLOAD SWAP1 POP SWAP2 SWAP1 POP JUMP JUMPDEST PUSH0 DUP3 DUP3 MSTORE PUSH1 0x20 DUP3 ADD SWAP1 POP SWAP3 SWAP2 POP POP JUMP JUMPDEST DUP3 DUP2 DUP4 MCOPY PUSH0 DUP4 DUP4 ADD MSTORE POP POP POP JUMP JUMPDEST PUSH0 PUSH2 0xC9D DUP3 PUSH2 0xC6B JUMP JUMPDEST PUSH2 0xCA7 DUP2 DUP6 PUSH2 0xC75 JUMP JUMPDEST SWAP4 POP PUSH2 0xCB7 DUP2 DUP6 PUSH1 0x20 DUP7 ADD PUSH2 0xC85 JUMP JUMPDEST PUSH2 0xCC0 DUP2 PUSH2 0x9B5 JUMP JUMPDEST DUP5 ADD SWAP2 POP POP SWAP3 SWAP2 POP POP JUMP JUMPDEST PUSH0 PUSH1 0x20 DUP3 ADD SWAP1 POP DUP2 DUP2 SUB PUSH0 DUP4 ADD MSTORE PUSH2 0xCE3 DUP2 DUP5 PUSH2 0xC93 JUMP JUMPDEST SWAP1 POP SWAP3 SWAP2 POP POP JUMP JUMPDEST PUSH2 0xCF4 DUP2 PUSH2 0x97C JUMP JUMPDEST DUP2 EQ PUSH2 0xCFE JUMPI PUSH0 PUSH0 REVERT JUMPDEST POP JUMP JUMPDEST PUSH0 DUP2 CALLDATALOAD SWAP1 POP PUSH2 0xD0F DUP2 PUSH2 0xCEB JUMP JUMPDEST SWAP3 SWAP2 POP POP JUMP JUMPDEST PUSH0 PUSH0 PUSH1 0x40 DUP4 DUP6 SUB SLT ISZERO PUSH2 0xD2B JUMPI PUSH2 0xD2A PUSH2 0x8EF JUMP JUMPDEST JUMPDEST PUSH0 PUSH2 0xD38 DUP6 DUP3 DUP7 ADD PUSH2 0xD01 JUMP JUMPDEST SWAP3 POP POP PUSH1 0x20 DUP4 ADD CALLDATALOAD PUSH8 0xFFFFFFFFFFFFFFFF DUP2 GT ISZERO PUSH2 0xD59 JUMPI PUSH2 0xD58 PUSH2 0x8F3 JUMP JUMPDEST JUMPDEST PUSH2 0xD65 DUP6 DUP3 DUP7 ADD PUSH2 0xABC JUMP JUMPDEST SWAP2 POP POP SWAP3 POP SWAP3 SWAP1 POP JUMP JUMPDEST PUSH0 PUSH1 0x20 DUP3 DUP5 SUB SLT ISZERO PUSH2 0xD84 JUMPI PUSH2 0xD83 PUSH2 0x8EF JUMP JUMPDEST JUMPDEST PUSH0 PUSH2 0xD91 DUP5 DUP3 DUP6 ADD PUSH2 0xD01 JUMP JUMPDEST SWAP2 POP POP SWAP3 SWAP2 POP POP JUMP JUMPDEST PUSH0 DUP2 PUSH1 0x60 SHL SWAP1 POP SWAP2 SWAP1 POP JUMP JUMPDEST PUSH0 PUSH2 0xDB0 DUP3 PUSH2 0xD9A JUMP JUMPDEST SWAP1 POP SWAP2 SWAP1 POP JUMP JUMPDEST PUSH0 PUSH2 0xDC1 DUP3 PUSH2 0xDA6 JUMP JUMPDEST SWAP1 POP SWAP2 SWAP1 POP JUMP JUMPDEST PUSH2 0xDD9 PUSH2 0xDD4 DUP3 PUSH2 0x916 JUMP JUMPDEST PUSH2 0xDB7 JUMP JUMPDEST DUP3 MSTORE POP POP JUMP JUMPDEST PUSH32 0x4E487B7100000000000000000000000000000000000000000000000000000000 PUSH0 MSTORE PUSH1 0x22 PUSH1 0x4 MSTORE PUSH1 0x24 PUSH0 REVERT JUMPDEST PUSH0 PUSH1 0x2 DUP3 DIV SWAP1 POP PUSH1 0x1 DUP3 AND DUP1 PUSH2 0xE23 JUMPI PUSH1 0x7F DUP3 AND SWAP2 POP JUMPDEST PUSH1 0x20 DUP3 LT DUP2 SUB PUSH2 0xE36 JUMPI PUSH2 0xE35 PUSH2 0xDDF JUMP JUMPDEST JUMPDEST POP SWAP2 SWAP1 POP JUMP JUMPDEST PUSH0 DUP2 SWAP1 POP SWAP3 SWAP2 POP POP JUMP JUMPDEST PUSH0 DUP2 SWAP1 POP DUP2 PUSH0 MSTORE PUSH1 0x20 PUSH0 KECCAK256 SWAP1 POP SWAP2 SWAP1 POP JUMP JUMPDEST PUSH0 DUP2 SLOAD PUSH2 0xE64 DUP2 PUSH2 0xE0C JUMP JUMPDEST PUSH2 0xE6E DUP2 DUP7 PUSH2 0xE3C JUMP JUMPDEST SWAP5 POP PUSH1 0x1 DUP3 AND PUSH0 DUP2 EQ PUSH2 0xE88 JUMPI PUSH1 0x1 DUP2 EQ PUSH2 0xE9D JUMPI PUSH2 0xECF JUMP JUMPDEST PUSH1 0xFF NOT DUP4 AND DUP7 MSTORE DUP2 ISZERO ISZERO DUP3 MUL DUP7 ADD SWAP4 POP PUSH2 0xECF JUMP JUMPDEST PUSH2 0xEA6 DUP6 PUSH2 0xE46 JUMP JUMPDEST PUSH0 JUMPDEST DUP4 DUP2 LT ISZERO PUSH2 0xEC7 JUMPI DUP2 SLOAD DUP2 DUP10 ADD MSTORE PUSH1 0x1 DUP3 ADD SWAP2 POP PUSH1 0x20 DUP2 ADD SWAP1 POP PUSH2 0xEA8 JUMP JUMPDEST DUP4 DUP9 ADD SWAP6 POP POP POP JUMPDEST POP POP POP SWAP3 SWAP2 POP POP JUMP JUMPDEST PUSH0 PUSH2 0xEE3 DUP3 DUP7 PUSH2 0xDC8 JUMP JUMPDEST PUSH1 0x14 DUP3 ADD SWAP2 POP PUSH2 0xEF3 DUP3 DUP6 PUSH2 0xE58 JUMP JUMPDEST SWAP2 POP PUSH2 0xEFF DUP3 DUP5 PUSH2 0xDC8 JUMP JUMPDEST PUSH1 0x14 DUP3 ADD SWAP2 POP DUP2 SWAP1 POP SWAP5 SWAP4 POP POP POP POP JUMP JUMPDEST PUSH32 0x4576656E74206973206E6F742061637469766500000000000000000000000000 PUSH0 DUP3 ADD MSTORE POP JUMP JUMPDEST PUSH0 PUSH2 0xF44 PUSH1 0x13 DUP4 PUSH2 0xC75 JUMP JUMPDEST SWAP2 POP PUSH2 0xF4F DUP3 PUSH2 0xF10 JUMP JUMPDEST PUSH1 0x20 DUP3 ADD SWAP1 POP SWAP2 SWAP1 POP JUMP JUMPDEST PUSH0 PUSH1 0x20 DUP3 ADD SWAP1 POP DUP2 DUP2 SUB PUSH0 DUP4 ADD MSTORE PUSH2 0xF71 DUP2 PUSH2 0xF38 JUMP JUMPDEST SWAP1 POP SWAP2 SWAP1 POP JUMP JUMPDEST PUSH32 0x4E487B7100000000000000000000000000000000000000000000000000000000 PUSH0 MSTORE PUSH1 0x11 PUSH1 0x4 MSTORE PUSH1 0x24 PUSH0 REVERT JUMPDEST PUSH0 PUSH2 0xFAF DUP3 PUSH2 0xBBD JUMP JUMPDEST SWAP2 POP PUSH2 0xFBA DUP4 PUSH2 0xBBD JUMP JUMPDEST SWAP3 POP DUP3 DUP3 ADD SWAP1 POP DUP1 DUP3 GT ISZERO PUSH2 0xFD2 JUMPI PUSH2 0xFD1 PUSH2 0xF78 JUMP JUMPDEST JUMPDEST SWAP3 SWAP2 POP POP JUMP JUMPDEST PUSH32 0x4576656E742068617320656E6465640000000000000000000000000000000000 PUSH0 DUP3 ADD MSTORE POP JUMP JUMPDEST PUSH0 PUSH2 0x100C PUSH1 0xF DUP4 PUSH2 0xC75 JUMP JUMPDEST SWAP2 POP PUSH2 0x1017 DUP3 PUSH2 0xFD8 JUMP JUMPDEST PUSH1 0x20 DUP3 ADD SWAP1 POP SWAP2 SWAP1 POP JUMP JUMPDEST PUSH0 PUSH1 0x20 DUP3 ADD SWAP1 POP DUP2 DUP2 SUB PUSH0 DUP4 ADD MSTORE PUSH2 0x1039 DUP2 PUSH2 0x1000 JUMP JUMPDEST SWAP1 POP SWAP2 SWAP1 POP JUMP JUMPDEST PUSH32 0x417474656E6465652068617320616C726561647920636865636B656420696E00 PUSH0 DUP3 ADD MSTORE POP JUMP JUMPDEST PUSH0 PUSH2 0x1074 PUSH1 0x1F DUP4 PUSH2 0xC75 JUMP JUMPDEST SWAP2 POP PUSH2 0x107F DUP3 PUSH2 0x1040 JUMP JUMPDEST PUSH1 0x20 DUP3 ADD SWAP1 POP SWAP2 SWAP1 POP JUMP JUMPDEST PUSH0 PUSH1 0x20 DUP3 ADD SWAP1 POP DUP2 DUP2 SUB PUSH0 DUP4 ADD MSTORE PUSH2 0x10A1 DUP2 PUSH2 0x1068 JUMP JUMPDEST SWAP1 POP SWAP2 SWAP1 POP JUMP JUMPDEST PUSH32 0x4D6178696D756D20617474656E64656573207265616368656400000000000000 PUSH0 DUP3 ADD MSTORE POP JUMP JUMPDEST PUSH0 PUSH2 0x10DC PUSH1 0x19 DUP4 PUSH2 0xC75 JUMP JUMPDEST SWAP2 POP PUSH2 0x10E7 DUP3 PUSH2 0x10A8 JUMP JUMPDEST PUSH1 0x20 DUP3 ADD SWAP1 POP SWAP2 SWAP1 POP JUMP JUMPDEST PUSH0 PUSH1 0x20 DUP3 ADD SWAP1 POP DUP2 DUP2 SUB PUSH0 DUP4 ADD MSTORE PUSH2 0x1109 DUP2 PUSH2 0x10D0 JUMP JUMPDEST SWAP1 POP SWAP2 SWAP1 POP JUMP JUMPDEST PUSH32 0x496E76616C6964207369676E6174757265000000000000000000000000000000 PUSH0 DUP3 ADD MSTORE POP JUMP JUMPDEST PUSH0 PUSH2 0x1144 PUSH1 0x11 DUP4 PUSH2 0xC75 JUMP JUMPDEST SWAP2 POP PUSH2 0x114F DUP3 PUSH2 0x1110 JUMP JUMPDEST PUSH1 0x20 DUP3 ADD SWAP1 POP SWAP2 SWAP1 POP JUMP JUMPDEST PUSH0 PUSH1 0x20 DUP3 ADD SWAP1 POP DUP2 DUP2 SUB PUSH0 DUP4 ADD MSTORE PUSH2 0x1171 DUP2 PUSH2 0x1138 JUMP JUMPDEST SWAP1 POP SWAP2 SWAP1 POP JUMP JUMPDEST PUSH0 PUSH2 0x1182 DUP3 PUSH2 0xBBD JUMP JUMPDEST SWAP2 POP PUSH32 0xFFFFFFFFFFFFFFFFFFFFFFFFFFFFFFFFFFFFFFFFFFFFFFFFFFFFFFFFFFFFFFFF DUP3 SUB PUSH2 0x11B4 JUMPI PUSH2 0x11B3 PUSH2 0xF78 JUMP JUMPDEST JUMPDEST PUSH1 0x1 DUP3 ADD SWAP1 POP SWAP2 SWAP1 POP JUMP JUMPDEST PUSH0 PUSH1 0x40 DUP3 ADD SWAP1 POP PUSH2 0x11D2 PUSH0 DUP4 ADD DUP6 PUSH2 0xBEE JUMP JUMPDEST PUSH2 0x11DF PUSH1 0x20 DUP4 ADD DUP5 PUSH2 0xBC6 JUMP JUMPDEST SWAP4 SWAP3 POP POP POP JUMP JUMPDEST PUSH32 0x4F6E6C7920746865206576656E74206F7267616E697A65722063616E2063616C PUSH0 DUP3 ADD MSTORE PUSH32 0x6C20746869732066756E6374696F6E0000000000000000000000000000000000 PUSH1 0x20 DUP3 ADD MSTORE POP JUMP JUMPDEST PUSH0 PUSH2 0x1240 PUSH1 0x2F DUP4 PUSH2 0xC75 JUMP JUMPDEST SWAP2 POP PUSH2 0x124B DUP3 PUSH2 0x11E6 JUMP JUMPDEST PUSH1 0x40 DUP3 ADD SWAP1 POP SWAP2 SWAP1 POP JUMP JUMPDEST PUSH0 PUSH1 0x20 DUP3 ADD SWAP1 POP DUP2 DUP2 SUB PUSH0 DUP4 ADD MSTORE PUSH2 0x126D DUP2 PUSH2 0x1234 JUMP JUMPDEST SWAP1 POP SWAP2 SWAP1 POP JUMP JUMPDEST PUSH32 0x496E76616C6964207369676E6174757265206C656E6774680000000000000000 PUSH0 DUP3 ADD MSTORE POP JUMP JUMPDEST PUSH0 PUSH2 0x12A8 PUSH1 0x18 DUP4 PUSH2 0xC75 JUMP JUMPDEST SWAP2 POP PUSH2 0x12B3 DUP3 PUSH2 0x1274 JUMP JUMPDEST PUSH1 0x20 DUP3 ADD SWAP1 POP SWAP2 SWAP1 POP JUMP JUMPDEST PUSH0 PUSH1 0x20 DUP3 ADD SWAP1 POP DUP2 DUP2 SUB PUSH0 DUP4 ADD MSTORE PUSH2 0x12D5 DUP2 PUSH2 0x129C JUMP JUMPDEST SWAP1 POP SWAP2 SWAP1 POP JUMP JUMPDEST PUSH0 PUSH1 0xFF DUP3 AND SWAP1 POP SWAP2 SWAP1 POP JUMP JUMPDEST PUSH0 PUSH2 0x12F2 DUP3 PUSH2 0x12DC JUMP JUMPDEST SWAP2 POP PUSH2 0x12FD DUP4 PUSH2 0x12DC JUMP JUMPDEST SWAP3 POP DUP3 DUP3 ADD SWAP1 POP PUSH1 0xFF DUP2 GT ISZERO PUSH2 0x1316 JUMPI PUSH2 0x1315 PUSH2 0xF78 JUMP JUMPDEST JUMPDEST SWAP3 SWAP2 POP POP JUMP JUMPDEST PUSH32 0x496E76616C6964207369676E6174757265202776272076616C75650000000000 PUSH0 DUP3 ADD MSTORE POP JUMP JUMPDEST PUSH0 PUSH2 0x1350 PUSH1 0x1B DUP4 PUSH2 0xC75 JUMP JUMPDEST SWAP2 POP PUSH2 0x135B DUP3 PUSH2 0x131C JUMP JUMPDEST PUSH1 0x20 DUP3 ADD SWAP1 POP SWAP2 SWAP1 POP JUMP JUMPDEST PUSH0 PUSH1 0x20 DUP3 ADD SWAP1 POP DUP2 DUP2 SUB PUSH0 DUP4 ADD MSTORE PUSH2 0x137D DUP2 PUSH2 0x1344 JUMP JUMPDEST SWAP1 POP SWAP2 SWAP1 POP JUMP JUMPDEST PUSH2 0x138D DUP2 PUSH2 0x12DC JUMP JUMPDEST DUP3 MSTORE POP POP JUMP JUMPDEST PUSH0 PUSH1 0x80 DUP3 ADD SWAP1 POP PUSH2 0x13A6 PUSH0 DUP4 ADD DUP8 PUSH2 0x985 JUMP JUMPDEST PUSH2 0x13B3 PUSH1 0x20 DUP4 ADD DUP7 PUSH2 0x1384 JUMP JUMPDEST PUSH2 0x13C0 PUSH1 0x40 DUP4 ADD DUP6 PUSH2 0x985 JUMP JUMPDEST PUSH2 0x13CD PUSH1 0x60 DUP4 ADD DUP5 PUSH2 0x985 JUMP JUMPDEST SWAP6 SWAP5 POP POP POP POP POP JUMP JUMPDEST PUSH32 0x19457468657265756D205369676E6564204D6573736167653A0A333200000000 PUSH0 DUP3 ADD MSTORE POP JUMP JUMPDEST PUSH0 PUSH2 0x140A PUSH1 0x1C DUP4 PUSH2 0xE3C JUMP JUMPDEST SWAP2 POP PUSH2 0x1415 DUP3 PUSH2 0x13D6 JUMP JUMPDEST PUSH1 0x1C DUP3 ADD SWAP1 POP SWAP2 SWAP1 POP JUMP JUMPDEST PUSH0 DUP2 SWAP1 POP SWAP2 SWAP1 POP JUMP JUMPDEST PUSH2 0x143A PUSH2 0x1435 DUP3 PUSH2 0x97C JUMP JUMPDEST PUSH2 0x1420 JUMP JUMPDEST DUP3 MSTORE POP POP JUMP JUMPDEST PUSH0 PUSH2 0x144A DUP3 PUSH2 0x13FE JUMP JUMPDEST SWAP2 POP PUSH2 0x1456 DUP3 DUP5 PUSH2 0x1429 JUMP JUMPDEST PUSH1 0x20 DUP3 ADD SWAP2 POP DUP2 SWAP1 POP SWAP3 SWAP2 POP POP JUMP INVALID LOG2 PUSH5 0x6970667358 0x22 SLT KECCAK256 0xD9 EQ EXTCODEHASH 0xB3 0xFC XOR 0xBA 0x4D LOG2 0xD LOG1 DUP2 SWAP9 0xAF GASLIMIT PUSH14 0x852AEAA27690068AB3F389F7B16A 0x29 DUP11 PUSH5 0x736F6C6343 STOP ADDMOD 0x1E STOP CALLER "
		},
		"gasEstimates": {
			"creation": {
				"codeDepositCost": "1055000",
				"executionCost": "infinite",
				"totalCost": "infinite"
			},
			"external": {
				"attendeeCount()": "2491",
				"checkIn(bytes)": "infinite",
				"eventDate()": "2492",
				"eventName()": "infinite",
				"getEthSignedMessageHash(bytes32)": "infinite",
				"getMessageHash(address)": "infinite",
				"hasAttended(address)": "2877",
				"isEventActive()": "2488",
				"maxAttendees()": "2514",
				"organizer()": "2619",
				"recoverSigner(bytes32,bytes)": "infinite",
				"setEventStatus(bool)": "infinite",
				"verifySignature(address,bytes)": "infinite"
			}
		},
		"methodIdentifiers": {
			"attendeeCount()": "f1adda47",
			"checkIn(bytes)": "304c44d1",
			"eventDate()": "4bfbe5df",
			"eventName()": "8043c9c0",
			"getEthSignedMessageHash(bytes32)": "fa540801",
			"getMessageHash(address)": "1f5ac1b2",
			"hasAttended(address)": "d866b0b6",
			"isEventActive()": "cc54bcf2",
			"maxAttendees()": "5f3d7fa1",
			"organizer()": "61203265",
			"recoverSigner(bytes32,bytes)": "97aba7f9",
			"setEventStatus(bool)": "665983ec",
			"verifySignature(address,bytes)": "258c1ef5"
		}
	},
	"abi": [
		{
			"inputs": [
				{
					"internalType": "string",
					"name": "_eventName",
					"type": "string"
				},
				{
					"internalType": "uint256",
					"name": "_eventDate_unix",
					"type": "uint256"
				},
				{
					"internalType": "uint256",
					"name": "_maxAttendees",
					"type": "uint256"
				}
			],
			"stateMutability": "nonpayable",
			"type": "constructor"
		},
		{
			"anonymous": false,
			"inputs": [
				{
					"indexed": false,
					"internalType": "address",
					"name": "attendee",
					"type": "address"
				},
				{
					"indexed": false,
					"internalType": "uint256",
					"name": "timestamp",
					"type": "uint256"
				}
			],
			"name": "AttendeeCheckedIn",
			"type": "event"
		},
		{
			"anonymous": false,
			"inputs": [
				{
					"indexed": false,
					"internalType": "string",
					"name": "name",
					"type": "string"
				},
				{
					"indexed": false,
					"internalType": "uint256",
					"name": "date",
					"type": "uint256"
				},
				{
					"indexed": false,
					"internalType": "uint256",
					"name": "maxAttendees",
					"type": "uint256"
				}
			],
			"name": "EventCreated",
			"type": "event"
		},
		{
			"anonymous": false,
			"inputs": [
				{
					"indexed": false,
					"internalType": "bool",
					"name": "isActive",
					"type": "bool"
				}
			],
			"name": "EventStatusChanged",
			"type": "event"
		},
		{
			"inputs": [],
			"name": "attendeeCount",
			"outputs": [
				{
					"internalType": "uint256",
					"name": "",
					"type": "uint256"
				}
			],
			"stateMutability": "view",
			"type": "function"
		},
		{
			"inputs": [
				{
					"internalType": "bytes",
					"name": "_signature",
					"type": "bytes"
				}
			],
			"name": "checkIn",
			"outputs": [],
			"stateMutability": "nonpayable",
			"type": "function"
		},
		{
			"inputs": [],
			"name": "eventDate",
			"outputs": [
				{
					"internalType": "uint256",
					"name": "",
					"type": "uint256"
				}
			],
			"stateMutability": "view",
			"type": "function"
		},
		{
			"inputs": [],
			"name": "eventName",
			"outputs": [
				{
					"internalType": "string",
					"name": "",
					"type": "string"
				}
			],
			"stateMutability": "view",
			"type": "function"
		},
		{
			"inputs": [
				{
					"internalType": "bytes32",
					"name": "_messageHash",
					"type": "bytes32"
				}
			],
			"name": "getEthSignedMessageHash",
			"outputs": [
				{
					"internalType": "bytes32",
					"name": "",
					"type": "bytes32"
				}
			],
			"stateMutability": "pure",
			"type": "function"
		},
		{
			"inputs": [
				{
					"internalType": "address",
					"name": "_attendee",
					"type": "address"
				}
			],
			"name": "getMessageHash",
			"outputs": [
				{
					"internalType": "bytes32",
					"name": "",
					"type": "bytes32"
				}
			],
			"stateMutability": "view",
			"type": "function"
		},
		{
			"inputs": [
				{
					"internalType": "address",
					"name": "",
					"type": "address"
				}
			],
			"name": "hasAttended",
			"outputs": [
				{
					"internalType": "bool",
					"name": "",
					"type": "bool"
				}
			],
			"stateMutability": "view",
			"type": "function"
		},
		{
			"inputs": [],
			"name": "isEventActive",
			"outputs": [
				{
					"internalType": "bool",
					"name": "",
					"type": "bool"
				}
			],
			"stateMutability": "view",
			"type": "function"
		},
		{
			"inputs": [],
			"name": "maxAttendees",
			"outputs": [
				{
					"internalType": "uint256",
					"name": "",
					"type": "uint256"
				}
			],
			"stateMutability": "view",
			"type": "function"
		},
		{
			"inputs": [],
			"name": "organizer",
			"outputs": [
				{
					"internalType": "address",
					"name": "",
					"type": "address"
				}
			],
			"stateMutability": "view",
			"type": "function"
		},
		{
			"inputs": [
				{
					"internalType": "bytes32",
					"name": "_ethSignedMessageHash",
					"type": "bytes32"
				},
				{
					"internalType": "bytes",
					"name": "_signature",
					"type": "bytes"
				}
			],
			"name": "recoverSigner",
			"outputs": [
				{
					"internalType": "address",
					"name": "",
					"type": "address"
				}
			],
			"stateMutability": "pure",
			"type": "function"
		},
		{
			"inputs": [
				{
					"internalType": "bool",
					"name": "_isActive",
					"type": "bool"
				}
			],
			"name": "setEventStatus",
			"outputs": [],
			"stateMutability": "nonpayable",
			"type": "function"
		},
		{
			"inputs": [
				{
					"internalType": "address",
					"name": "_attendee",
					"type": "address"
				},
				{
					"internalType": "bytes",
					"name": "_signature",
					"type": "bytes"
				}
			],
			"name": "verifySignature",
			"outputs": [
				{
					"internalType": "bool",
					"name": "",
					"type": "bool"
				}
			],
			"stateMutability": "view",
			"type": "function"
		}
	]
}