{
	"data": {
		"bytecode": {
			"linkReferences": {},
			"object": "60c060405234801561000f575f5ffd5b50604051611c45380380611c458339818101604052810190610031919061021a565b60015f819055508073ffffffffffffffffffffffffffffffffffffffff168273ffffffffffffffffffffffffffffffffffffffff16036100a6576040517f08c379a000000000000000000000000000000000000000000000000000000000815260040161009d906102b2565b60405180910390fd5b5f73ffffffffffffffffffffffffffffffffffffffff168273ffffffffffffffffffffffffffffffffffffffff161415801561010e57505f73ffffffffffffffffffffffffffffffffffffffff168173ffffffffffffffffffffffffffffffffffffffff1614155b61014d576040517f08c379a00000000000000000000000000000000000000000000000000000000081526004016101449061031a565b60405180910390fd5b8173ffffffffffffffffffffffffffffffffffffffff1660808173ffffffffffffffffffffffffffffffffffffffff16815250508073ffffffffffffffffffffffffffffffffffffffff1660a08173ffffffffffffffffffffffffffffffffffffffff16815250505050610338565b5f5ffd5b5f73ffffffffffffffffffffffffffffffffffffffff82169050919050565b5f6101e9826101c0565b9050919050565b6101f9816101df565b8114610203575f5ffd5b50565b5f81519050610214816101f0565b92915050565b5f5f604083850312156102305761022f6101bc565b5b5f61023d85828601610206565b925050602061024e85828601610206565b9150509250929050565b5f82825260208201905092915050565b7f4964656e746963616c20746f6b656e73000000000000000000000000000000005f82015250565b5f61029c601083610258565b91506102a782610268565b602082019050919050565b5f6020820190508181035f8301526102c981610290565b9050919050565b7f5a65726f206164647265737300000000000000000000000000000000000000005f82015250565b5f610304600c83610258565b915061030f826102d0565b602082019050919050565b5f6020820190508181035f830152610331816102f8565b9050919050565b60805160a05161188a6103bb5f395f81816102d9015281816104d3015281816106c9015281816109d501528181610ade01528181610d110152610f5001525f81816102af015281816104370152818161062b0152818161098001528181610a6501528181610ab801528181610cbc01528181610da10152610eb2015261188a5ff3fe608060405234801561000f575f5ffd5b50600436106100cd575f3560e01c80639cd441da1161008a578063d2258beb11610064578063d2258beb146101ee578063d3986f081461021e578063dc5fa6c51461023a578063f140a35a14610258576100cd565b80639cd441da14610196578063b7e5dcee146101b2578063d1a86711146101d0576100cd565b80630902f1ac146100d15780630b65092d146100f05780630fc63d101461012057806319e36f3b1461013e5780635f64b55b1461015c5780639c8f9f231461017a575b5f5ffd5b6100d9610288565b6040516100e792919061109e565b60405180910390f35b61010a60048036038101906101059190611123565b610298565b604051610117919061114e565b60405180910390f35b6101286102ad565b6040516101359190611176565b60405180910390f35b6101466102d1565b604051610153919061114e565b60405180910390f35b6101646102d7565b6040516101719190611176565b60405180910390f35b610194600480360381019061018f91906111b9565b6102fb565b005b6101b060048036038101906101ab91906111e4565b6105d4565b005b6101ba6108df565b6040516101c7919061114e565b60405180910390f35b6101d86108e8565b6040516101e5919061114e565b60405180910390f35b61020860048036038101906102039190611123565b6108ee565b604051610215919061114e565b60405180910390f35b61023860048036038101906102339190611222565b610934565b005b610242610cb3565b60405161024f919061114e565b60405180910390f35b610272600480360381019061026d9190611222565b610cb9565b60405161027f919061114e565b60405180910390f35b5f5f600154600254915091509091565b6004602052805f5260405f205f915090505481565b7f000000000000000000000000000000000000000000000000000000000000000081565b60025481565b7f000000000000000000000000000000000000000000000000000000000000000081565b610303610e63565b5f8111801561034f575060045f3373ffffffffffffffffffffffffffffffffffffffff1673ffffffffffffffffffffffffffffffffffffffff1681526020019081526020015f20548111155b61038e576040517f08c379a0000000000000000000000000000000000000000000000000000000008152600401610385906112ba565b60405180910390fd5b5f600354600154836103a09190611305565b6103aa9190611373565b90505f600354600254846103be9190611305565b6103c89190611373565b90508260045f3373ffffffffffffffffffffffffffffffffffffffff1673ffffffffffffffffffffffffffffffffffffffff1681526020019081526020015f205f82825461041691906113a3565b925050819055508260035f82825461042e91906113a3565b925050819055507f000000000000000000000000000000000000000000000000000000000000000073ffffffffffffffffffffffffffffffffffffffff1663a9059cbb33846040518363ffffffff1660e01b81526004016104909291906113d6565b6020604051808303815f875af11580156104ac573d5f5f3e3d5ffd5b505050506040513d601f19601f820116820180604052508101906104d09190611432565b507f000000000000000000000000000000000000000000000000000000000000000073ffffffffffffffffffffffffffffffffffffffff1663a9059cbb33836040518363ffffffff1660e01b815260040161052c9291906113d6565b6020604051808303815f875af1158015610548573d5f5f3e3d5ffd5b505050506040513d601f19601f8201168201806040525081019061056c9190611432565b50610575610eb0565b3373ffffffffffffffffffffffffffffffffffffffff167f1dc8bb69df2b8e91fbdcbfcf93d951b3f0000f085a95fe3f7946d6161439245d8383866040516105bf9392919061145d565b60405180910390a250506105d1610fee565b50565b6105dc610e63565b5f821180156105ea57505f81115b610629576040517f08c379a0000000000000000000000000000000000000000000000000000000008152600401610620906114dc565b60405180910390fd5b7f000000000000000000000000000000000000000000000000000000000000000073ffffffffffffffffffffffffffffffffffffffff166323b872dd3330856040518463ffffffff1660e01b8152600401610686939291906114fa565b6020604051808303815f875af11580156106a2573d5f5f3e3d5ffd5b505050506040513d601f19601f820116820180604052508101906106c69190611432565b507f000000000000000000000000000000000000000000000000000000000000000073ffffffffffffffffffffffffffffffffffffffff166323b872dd3330846040518463ffffffff1660e01b8152600401610724939291906114fa565b6020604051808303815f875af1158015610740573d5f5f3e3d5ffd5b505050506040513d601f19601f820116820180604052508101906107649190611432565b505f5f6003540361078a57610783828461077e9190611305565b610ff7565b90506107cb565b6107c86001546003548561079e9190611305565b6107a89190611373565b600254600354856107b99190611305565b6107c39190611373565b61106e565b90505b5f811161080d576040517f08c379a000000000000000000000000000000000000000000000000000000000815260040161080490611579565b60405180910390fd5b8060045f3373ffffffffffffffffffffffffffffffffffffffff1673ffffffffffffffffffffffffffffffffffffffff1681526020019081526020015f205f8282546108599190611597565b925050819055508060035f8282546108719190611597565b92505081905550610880610eb0565b3373ffffffffffffffffffffffffffffffffffffffff167f64b83944e79c3ce8d4c297411de637c3e102d064677aac0c163976ebdcd6f50e8484846040516108ca9392919061145d565b60405180910390a2506108db610fee565b5050565b5f600354905090565b60035481565b5f60045f8373ffffffffffffffffffffffffffffffffffffffff1673ffffffffffffffffffffffffffffffffffffffff1681526020019081526020015f20549050919050565b61093c610e63565b5f821161097e576040517f08c379a000000000000000000000000000000000000000000000000000000000815260040161097590611614565b60405180910390fd5b7f000000000000000000000000000000000000000000000000000000000000000073ffffffffffffffffffffffffffffffffffffffff168173ffffffffffffffffffffffffffffffffffffffff161480610a2357507f000000000000000000000000000000000000000000000000000000000000000073ffffffffffffffffffffffffffffffffffffffff168173ffffffffffffffffffffffffffffffffffffffff16145b610a62576040517f08c379a0000000000000000000000000000000000000000000000000000000008152600401610a599061167c565b60405180910390fd5b5f7f000000000000000000000000000000000000000000000000000000000000000073ffffffffffffffffffffffffffffffffffffffff168273ffffffffffffffffffffffffffffffffffffffff1614610adc577f0000000000000000000000000000000000000000000000000000000000000000610afe565b7f00000000000000000000000000000000000000000000000000000000000000005b90505f610b0b8484610cb9565b90505f8111610b4f576040517f08c379a0000000000000000000000000000000000000000000000000000000008152600401610b46906116e4565b60405180910390fd5b8273ffffffffffffffffffffffffffffffffffffffff166323b872dd3330876040518463ffffffff1660e01b8152600401610b8c939291906114fa565b6020604051808303815f875af1158015610ba8573d5f5f3e3d5ffd5b505050506040513d601f19601f82011682018060405250810190610bcc9190611432565b508173ffffffffffffffffffffffffffffffffffffffff1663a9059cbb33836040518363ffffffff1660e01b8152600401610c089291906113d6565b6020604051808303815f875af1158015610c24573d5f5f3e3d5ffd5b505050506040513d601f19601f82011682018060405250810190610c489190611432565b50610c51610eb0565b3373ffffffffffffffffffffffffffffffffffffffff167f692315744755ee6d80decaeb993d4b1bb95ff5db042cc47b32d5a7d858b0190284868585604051610c9d9493929190611702565b60405180910390a25050610caf610fee565b5050565b60015481565b5f7f000000000000000000000000000000000000000000000000000000000000000073ffffffffffffffffffffffffffffffffffffffff168273ffffffffffffffffffffffffffffffffffffffff161480610d5f57507f000000000000000000000000000000000000000000000000000000000000000073ffffffffffffffffffffffffffffffffffffffff168273ffffffffffffffffffffffffffffffffffffffff16145b610d9e576040517f08c379a0000000000000000000000000000000000000000000000000000000008152600401610d959061178f565b60405180910390fd5b5f7f000000000000000000000000000000000000000000000000000000000000000073ffffffffffffffffffffffffffffffffffffffff168373ffffffffffffffffffffffffffffffffffffffff161490505f5f82610e0257600254600154610e09565b6001546002545b915091505f6103e587610e1c9190611305565b90505f8282610e2b9190611305565b90505f826103e886610e3d9190611305565b610e479190611597565b90508082610e559190611373565b965050505050505092915050565b60025f5403610ea7576040517f08c379a0000000000000000000000000000000000000000000000000000000008152600401610e9e906117f7565b60405180910390fd5b60025f81905550565b7f000000000000000000000000000000000000000000000000000000000000000073ffffffffffffffffffffffffffffffffffffffff166370a08231306040518263ffffffff1660e01b8152600401610f099190611176565b602060405180830381865afa158015610f24573d5f5f3e3d5ffd5b505050506040513d601f19601f82011682018060405250810190610f489190611829565b6001819055507f000000000000000000000000000000000000000000000000000000000000000073ffffffffffffffffffffffffffffffffffffffff166370a08231306040518263ffffffff1660e01b8152600401610fa79190611176565b602060405180830381865afa158015610fc2573d5f5f3e3d5ffd5b505050506040513d601f19601f82011682018060405250810190610fe69190611829565b600281905550565b60015f81905550565b5f600382111561105c578190505f60016002846110149190611373565b61101e9190611597565b90505b8181101561105657809150600281828561103b9190611373565b6110459190611597565b61104f9190611373565b9050611021565b50611069565b5f821461106857600190505b5b919050565b5f81831061107c578161107e565b825b905092915050565b5f819050919050565b61109881611086565b82525050565b5f6040820190506110b15f83018561108f565b6110be602083018461108f565b9392505050565b5f5ffd5b5f73ffffffffffffffffffffffffffffffffffffffff82169050919050565b5f6110f2826110c9565b9050919050565b611102816110e8565b811461110c575f5ffd5b50565b5f8135905061111d816110f9565b92915050565b5f60208284031215611138576111376110c5565b5b5f6111458482850161110f565b91505092915050565b5f6020820190506111615f83018461108f565b92915050565b611170816110e8565b82525050565b5f6020820190506111895f830184611167565b92915050565b61119881611086565b81146111a2575f5ffd5b50565b5f813590506111b38161118f565b92915050565b5f602082840312156111ce576111cd6110c5565b5b5f6111db848285016111a5565b91505092915050565b5f5f604083850312156111fa576111f96110c5565b5b5f611207858286016111a5565b9250506020611218858286016111a5565b9150509250929050565b5f5f60408385031215611238576112376110c5565b5b5f611245858286016111a5565b92505060206112568582860161110f565b9150509250929050565b5f82825260208201905092915050565b7f496e76616c6964204c5020616d6f756e740000000000000000000000000000005f82015250565b5f6112a4601183611260565b91506112af82611270565b602082019050919050565b5f6020820190508181035f8301526112d181611298565b9050919050565b7f4e487b71000000000000000000000000000000000000000000000000000000005f52601160045260245ffd5b5f61130f82611086565b915061131a83611086565b925082820261132881611086565b9150828204841483151761133f5761133e6112d8565b5b5092915050565b7f4e487b71000000000000000000000000000000000000000000000000000000005f52601260045260245ffd5b5f61137d82611086565b915061138883611086565b92508261139857611397611346565b5b828204905092915050565b5f6113ad82611086565b91506113b883611086565b92508282039050818111156113d0576113cf6112d8565b5b92915050565b5f6040820190506113e95f830185611167565b6113f6602083018461108f565b9392505050565b5f8115159050919050565b611411816113fd565b811461141b575f5ffd5b50565b5f8151905061142c81611408565b92915050565b5f60208284031215611447576114466110c5565b5b5f6114548482850161141e565b91505092915050565b5f6060820190506114705f83018661108f565b61147d602083018561108f565b61148a604083018461108f565b949350505050565b7f496e76616c696420616d6f756e747300000000000000000000000000000000005f82015250565b5f6114c6600f83611260565b91506114d182611492565b602082019050919050565b5f6020820190508181035f8301526114f3816114ba565b9050919050565b5f60608201905061150d5f830186611167565b61151a6020830185611167565b611527604083018461108f565b949350505050565b7f5a65726f204c50206d696e7465640000000000000000000000000000000000005f82015250565b5f611563600e83611260565b915061156e8261152f565b602082019050919050565b5f6020820190508181035f83015261159081611557565b9050919050565b5f6115a182611086565b91506115ac83611086565b92508282019050808211156115c4576115c36112d8565b5b92915050565b7f5a65726f20696e707574000000000000000000000000000000000000000000005f82015250565b5f6115fe600a83611260565b9150611609826115ca565b602082019050919050565b5f6020820190508181035f83015261162b816115f2565b9050919050565b7f496e76616c696420746f6b656e000000000000000000000000000000000000005f82015250565b5f611666600d83611260565b915061167182611632565b602082019050919050565b5f6020820190508181035f8301526116938161165a565b9050919050565b7f496e73756666696369656e74206f7574707574000000000000000000000000005f82015250565b5f6116ce601383611260565b91506116d98261169a565b602082019050919050565b5f6020820190508181035f8301526116fb816116c2565b9050919050565b5f6080820190506117155f830187611167565b611722602083018661108f565b61172f6040830185611167565b61173c606083018461108f565b95945050505050565b7f496e76616c696420696e70757420746f6b656e000000000000000000000000005f82015250565b5f611779601383611260565b915061178482611745565b602082019050919050565b5f6020820190508181035f8301526117a68161176d565b9050919050565b7f5265656e7472616e637947756172643a207265656e7472616e742063616c6c005f82015250565b5f6117e1601f83611260565b91506117ec826117ad565b602082019050919050565b5f6020820190508181035f83015261180e816117d5565b9050919050565b5f815190506118238161118f565b92915050565b5f6020828403121561183e5761183d6110c5565b5b5f61184b84828501611815565b9150509291505056fea26469706673582212203a9ebc5a2b3cdc9895205adf3ad00f4fa6c03c5745d9b02bbffb6fd9c1fe50b364736f6c634300081e0033",
			"opcodes": "PUSH1 0xC0 PUSH1 0x40 MSTORE CALLVALUE DUP1 ISZERO PUSH2 0xF JUMPI PUSH0 PUSH0 REVERT JUMPDEST POP PUSH1 0x40 MLOAD PUSH2 0x1C45 CODESIZE SUB DUP1 PUSH2 0x1C45 DUP4 CODECOPY DUP2 DUP2 ADD PUSH1 0x40 MSTORE DUP2 ADD SWAP1 PUSH2 0x31 SWAP2 SWAP1 PUSH2 0x21A JUMP JUMPDEST PUSH1 0x1 PUSH0 DUP2 SWAP1 SSTORE POP DUP1 PUSH20 0xFFFFFFFFFFFFFFFFFFFFFFFFFFFFFFFFFFFFFFFF AND DUP3 PUSH20 0xFFFFFFFFFFFFFFFFFFFFFFFFFFFFFFFFFFFFFFFF AND SUB PUSH2 0xA6 JUMPI PUSH1 0x40 MLOAD PUSH32 0x8C379A000000000000000000000000000000000000000000000000000000000 DUP2 MSTORE PUSH1 0x4 ADD PUSH2 0x9D SWAP1 PUSH2 0x2B2 JUMP JUMPDEST PUSH1 0x40 MLOAD DUP1 SWAP2 SUB SWAP1 REVERT JUMPDEST PUSH0 PUSH20 0xFFFFFFFFFFFFFFFFFFFFFFFFFFFFFFFFFFFFFFFF AND DUP3 PUSH20 0xFFFFFFFFFFFFFFFFFFFFFFFFFFFFFFFFFFFFFFFF AND EQ ISZERO DUP1 ISZERO PUSH2 0x10E JUMPI POP PUSH0 PUSH20 0xFFFFFFFFFFFFFFFFFFFFFFFFFFFFFFFFFFFFFFFF AND DUP2 PUSH20 0xFFFFFFFFFFFFFFFFFFFFFFFFFFFFFFFFFFFFFFFF AND EQ ISZERO JUMPDEST PUSH2 0x14D JUMPI PUSH1 0x40 MLOAD PUSH32 0x8C379A000000000000000000000000000000000000000000000000000000000 DUP2 MSTORE PUSH1 0x4 ADD PUSH2 0x144 SWAP1 PUSH2 0x31A JUMP JUMPDEST PUSH1 0x40 MLOAD DUP1 SWAP2 SUB SWAP1 REVERT JUMPDEST DUP2 PUSH20 0xFFFFFFFFFFFFFFFFFFFFFFFFFFFFFFFFFFFFFFFF AND PUSH1 0x80 DUP2 PUSH20 0xFFFFFFFFFFFFFFFFFFFFFFFFFFFFFFFFFFFFFFFF AND DUP2 MSTORE POP POP DUP1 PUSH20 0xFFFFFFFFFFFFFFFFFFFFFFFFFFFFFFFFFFFFFFFF AND PUSH1 0xA0 DUP2 PUSH20 0xFFFFFFFFFFFFFFFFFFFFFFFFFFFFFFFFFFFFFFFF AND DUP2 MSTORE POP POP POP POP PUSH2 0x338 JUMP JUMPDEST PUSH0 PUSH0 REVERT JUMPDEST PUSH0 PUSH20 0xFFFFFFFFFFFFFFFFFFFFFFFFFFFFFFFFFFFFFFFF DUP3 AND SWAP1 POP SWAP2 SWAP1 POP JUMP JUMPDEST PUSH0 PUSH2 0x1E9 DUP3 PUSH2 0x1C0 JUMP JUMPDEST SWAP1 POP SWAP2 SWAP1 POP JUMP JUMPDEST PUSH2 0x1F9 DUP2 PUSH2 0x1DF JUMP JUMPDEST DUP2 EQ PUSH2 0x203 JUMPI PUSH0 PUSH0 REVERT JUMPDEST POP JUMP JUMPDEST PUSH0 DUP2 MLOAD SWAP1 POP PUSH2 0x214 DUP2 PUSH2 0x1F0 JUMP JUMPDEST SWAP3 SWAP2 POP POP JUMP JUMPDEST PUSH0 PUSH0 PUSH1 0x40 DUP4 DUP6 SUB SLT ISZERO PUSH2 0x230 JUMPI PUSH2 0x22F PUSH2 0x1BC JUMP JUMPDEST JUMPDEST PUSH0 PUSH2 0x23D DUP6 DUP3 DUP7 ADD PUSH2 0x206 JUMP JUMPDEST SWAP3 POP POP PUSH1 0x20 PUSH2 0x24E DUP6 DUP3 DUP7 ADD PUSH2 0x206 JUMP JUMPDEST SWAP2 POP POP SWAP3 POP SWAP3 SWAP1 POP JUMP JUMPDEST PUSH0 DUP3 DUP3 MSTORE PUSH1 0x20 DUP3 ADD SWAP1 POP SWAP3 SWAP2 POP POP JUMP JUMPDEST PUSH32 0x4964656E746963616C20746F6B656E7300000000000000000000000000000000 PUSH0 DUP3 ADD MSTORE POP JUMP JUMPDEST PUSH0 PUSH2 0x29C PUSH1 0x10 DUP4 PUSH2 0x258 JUMP JUMPDEST SWAP2 POP PUSH2 0x2A7 DUP3 PUSH2 0x268 JUMP JUMPDEST PUSH1 0x20 DUP3 ADD SWAP1 POP SWAP2 SWAP1 POP JUMP JUMPDEST PUSH0 PUSH1 0x20 DUP3 ADD SWAP1 POP DUP2 DUP2 SUB PUSH0 DUP4 ADD MSTORE PUSH2 0x2C9 DUP2 PUSH2 0x290 JUMP JUMPDEST SWAP1 POP SWAP2 SWAP1 POP JUMP JUMPDEST PUSH32 0x5A65726F20616464726573730000000000000000000000000000000000000000 PUSH0 DUP3 ADD MSTORE POP JUMP JUMPDEST PUSH0 PUSH2 0x304 PUSH1 0xC DUP4 PUSH2 0x258 JUMP JUMPDEST SWAP2 POP PUSH2 0x30F DUP3 PUSH2 0x2D0 JUMP JUMPDEST PUSH1 0x20 DUP3 ADD SWAP1 POP SWAP2 SWAP1 POP JUMP JUMPDEST PUSH0 PUSH1 0x20 DUP3 ADD SWAP1 POP DUP2 DUP2 SUB PUSH0 DUP4 ADD MSTORE PUSH2 0x331 DUP2 PUSH2 0x2F8 JUMP JUMPDEST SWAP1 POP SWAP2 SWAP1 POP JUMP JUMPDEST PUSH1 0x80 MLOAD PUSH1 0xA0 MLOAD PUSH2 0x188A PUSH2 0x3BB PUSH0 CODECOPY PUSH0 DUP2 DUP2 PUSH2 0x2D9 ADD MSTORE DUP2 DUP2 PUSH2 0x4D3 ADD MSTORE DUP2 DUP2 PUSH2 0x6C9 ADD MSTORE DUP2 DUP2 PUSH2 0x9D5 ADD MSTORE DUP2 DUP2 PUSH2 0xADE ADD MSTORE DUP2 DUP2 PUSH2 0xD11 ADD MSTORE PUSH2 0xF50 ADD MSTORE PUSH0 DUP2 DUP2 PUSH2 0x2AF ADD MSTORE DUP2 DUP2 PUSH2 0x437 ADD MSTORE DUP2 DUP2 PUSH2 0x62B ADD MSTORE DUP2 DUP2 PUSH2 0x980 ADD MSTORE DUP2 DUP2 PUSH2 0xA65 ADD MSTORE DUP2 DUP2 PUSH2 0xAB8 ADD MSTORE DUP2 DUP2 PUSH2 0xCBC ADD MSTORE DUP2 DUP2 PUSH2 0xDA1 ADD MSTORE PUSH2 0xEB2 ADD MSTORE PUSH2 0x188A PUSH0 RETURN INVALID PUSH1 0x80 PUSH1 0x40 MSTORE CALLVALUE DUP1 ISZERO PUSH2 0xF JUMPI PUSH0 PUSH0 REVERT JUMPDEST POP PUSH1 0x4 CALLDATASIZE LT PUSH2 0xCD JUMPI PUSH0 CALLDATALOAD PUSH1 0xE0 SHR DUP1 PUSH4 0x9CD441DA GT PUSH2 0x8A JUMPI DUP1 PUSH4 0xD2258BEB GT PUSH2 0x64 JUMPI DUP1 PUSH4 0xD2258BEB EQ PUSH2 0x1EE JUMPI DUP1 PUSH4 0xD3986F08 EQ PUSH2 0x21E JUMPI DUP1 PUSH4 0xDC5FA6C5 EQ PUSH2 0x23A JUMPI DUP1 PUSH4 0xF140A35A EQ PUSH2 0x258 JUMPI PUSH2 0xCD JUMP JUMPDEST DUP1 PUSH4 0x9CD441DA EQ PUSH2 0x196 JUMPI DUP1 PUSH4 0xB7E5DCEE EQ PUSH2 0x1B2 JUMPI DUP1 PUSH4 0xD1A86711 EQ PUSH2 0x1D0 JUMPI PUSH2 0xCD JUMP JUMPDEST DUP1 PUSH4 0x902F1AC EQ PUSH2 0xD1 JUMPI DUP1 PUSH4 0xB65092D EQ PUSH2 0xF0 JUMPI DUP1 PUSH4 0xFC63D10 EQ PUSH2 0x120 JUMPI DUP1 PUSH4 0x19E36F3B EQ PUSH2 0x13E JUMPI DUP1 PUSH4 0x5F64B55B EQ PUSH2 0x15C JUMPI DUP1 PUSH4 0x9C8F9F23 EQ PUSH2 0x17A JUMPI JUMPDEST PUSH0 PUSH0 REVERT JUMPDEST PUSH2 0xD9 PUSH2 0x288 JUMP JUMPDEST PUSH1 0x40 MLOAD PUSH2 0xE7 SWAP3 SWAP2 SWAP1 PUSH2 0x109E JUMP JUMPDEST PUSH1 0x40 MLOAD DUP1 SWAP2 SUB SWAP1 RETURN JUMPDEST PUSH2 0x10A PUSH1 0x4 DUP1 CALLDATASIZE SUB DUP2 ADD SWAP1 PUSH2 0x105 SWAP2 SWAP1 PUSH2 0x1123 JUMP JUMPDEST PUSH2 0x298 JUMP JUMPDEST PUSH1 0x40 MLOAD PUSH2 0x117 SWAP2 SWAP1 PUSH2 0x114E JUMP JUMPDEST PUSH1 0x40 MLOAD DUP1 SWAP2 SUB SWAP1 RETURN JUMPDEST PUSH2 0x128 PUSH2 0x2AD JUMP JUMPDEST PUSH1 0x40 MLOAD PUSH2 0x135 SWAP2 SWAP1 PUSH2 0x1176 JUMP JUMPDEST PUSH1 0x40 MLOAD DUP1 SWAP2 SUB SWAP1 RETURN JUMPDEST PUSH2 0x146 PUSH2 0x2D1 JUMP JUMPDEST PUSH1 0x40 MLOAD PUSH2 0x153 SWAP2 SWAP1 PUSH2 0x114E JUMP JUMPDEST PUSH1 0x40 MLOAD DUP1 SWAP2 SUB SWAP1 RETURN JUMPDEST PUSH2 0x164 PUSH2 0x2D7 JUMP JUMPDEST PUSH1 0x40 MLOAD PUSH2 0x171 SWAP2 SWAP1 PUSH2 0x1176 JUMP JUMPDEST PUSH1 0x40 MLOAD DUP1 SWAP2 SUB SWAP1 RETURN JUMPDEST PUSH2 0x194 PUSH1 0x4 DUP1 CALLDATASIZE SUB DUP2 ADD SWAP1 PUSH2 0x18F SWAP2 SWAP1 PUSH2 0x11B9 JUMP JUMPDEST PUSH2 0x2FB JUMP JUMPDEST STOP JUMPDEST PUSH2 0x1B0 PUSH1 0x4 DUP1 CALLDATASIZE SUB DUP2 ADD SWAP1 PUSH2 0x1AB SWAP2 SWAP1 PUSH2 0x11E4 JUMP JUMPDEST PUSH2 0x5D4 JUMP JUMPDEST STOP JUMPDEST PUSH2 0x1BA PUSH2 0x8DF JUMP JUMPDEST PUSH1 0x40 MLOAD PUSH2 0x1C7 SWAP2 SWAP1 PUSH2 0x114E JUMP JUMPDEST PUSH1 0x40 MLOAD DUP1 SWAP2 SUB SWAP1 RETURN JUMPDEST PUSH2 0x1D8 PUSH2 0x8E8 JUMP JUMPDEST PUSH1 0x40 MLOAD PUSH2 0x1E5 SWAP2 SWAP1 PUSH2 0x114E JUMP JUMPDEST PUSH1 0x40 MLOAD DUP1 SWAP2 SUB SWAP1 RETURN JUMPDEST PUSH2 0x208 PUSH1 0x4 DUP1 CALLDATASIZE SUB DUP2 ADD SWAP1 PUSH2 0x203 SWAP2 SWAP1 PUSH2 0x1123 JUMP JUMPDEST PUSH2 0x8EE JUMP JUMPDEST PUSH1 0x40 MLOAD PUSH2 0x215 SWAP2 SWAP1 PUSH2 0x114E JUMP JUMPDEST PUSH1 0x40 MLOAD DUP1 SWAP2 SUB SWAP1 RETURN JUMPDEST PUSH2 0x238 PUSH1 0x4 DUP1 CALLDATASIZE SUB DUP2 ADD SWAP1 PUSH2 0x233 SWAP2 SWAP1 PUSH2 0x1222 JUMP JUMPDEST PUSH2 0x934 JUMP JUMPDEST STOP JUMPDEST PUSH2 0x242 PUSH2 0xCB3 JUMP JUMPDEST PUSH1 0x40 MLOAD PUSH2 0x24F SWAP2 SWAP1 PUSH2 0x114E JUMP JUMPDEST PUSH1 0x40 MLOAD DUP1 SWAP2 SUB SWAP1 RETURN JUMPDEST PUSH2 0x272 PUSH1 0x4 DUP1 CALLDATASIZE SUB DUP2 ADD SWAP1 PUSH2 0x26D SWAP2 SWAP1 PUSH2 0x1222 JUMP JUMPDEST PUSH2 0xCB9 JUMP JUMPDEST PUSH1 0x40 MLOAD PUSH2 0x27F SWAP2 SWAP1 PUSH2 0x114E JUMP JUMPDEST PUSH1 0x40 MLOAD DUP1 SWAP2 SUB SWAP1 RETURN JUMPDEST PUSH0 PUSH0 PUSH1 0x1 SLOAD PUSH1 0x2 SLOAD SWAP2 POP SWAP2 POP SWAP1 SWAP2 JUMP JUMPDEST PUSH1 0x4 PUSH1 0x20 MSTORE DUP1 PUSH0 MSTORE PUSH1 0x40 PUSH0 KECCAK256 PUSH0 SWAP2 POP SWAP1 POP SLOAD DUP2 JUMP JUMPDEST PUSH32 0x0 DUP2 JUMP JUMPDEST PUSH1 0x2 SLOAD DUP2 JUMP JUMPDEST PUSH32 0x0 DUP2 JUMP JUMPDEST PUSH2 0x303 PUSH2 0xE63 JUMP JUMPDEST PUSH0 DUP2 GT DUP1 ISZERO PUSH2 0x34F JUMPI POP PUSH1 0x4 PUSH0 CALLER PUSH20 0xFFFFFFFFFFFFFFFFFFFFFFFFFFFFFFFFFFFFFFFF AND PUSH20 0xFFFFFFFFFFFFFFFFFFFFFFFFFFFFFFFFFFFFFFFF AND DUP2 MSTORE PUSH1 0x20 ADD SWAP1 DUP2 MSTORE PUSH1 0x20 ADD PUSH0 KECCAK256 SLOAD DUP2 GT ISZERO JUMPDEST PUSH2 0x38E JUMPI PUSH1 0x40 MLOAD PUSH32 0x8C379A000000000000000000000000000000000000000000000000000000000 DUP2 MSTORE PUSH1 0x4 ADD PUSH2 0x385 SWAP1 PUSH2 0x12BA JUMP JUMPDEST PUSH1 0x40 MLOAD DUP1 SWAP2 SUB SWAP1 REVERT JUMPDEST PUSH0 PUSH1 0x3 SLOAD PUSH1 0x1 SLOAD DUP4 PUSH2 0x3A0 SWAP2 SWAP1 PUSH2 0x1305 JUMP JUMPDEST PUSH2 0x3AA SWAP2 SWAP1 PUSH2 0x1373 JUMP JUMPDEST SWAP1 POP PUSH0 PUSH1 0x3 SLOAD PUSH1 0x2 SLOAD DUP5 PUSH2 0x3BE SWAP2 SWAP1 PUSH2 0x1305 JUMP JUMPDEST PUSH2 0x3C8 SWAP2 SWAP1 PUSH2 0x1373 JUMP JUMPDEST SWAP1 POP DUP3 PUSH1 0x4 PUSH0 CALLER PUSH20 0xFFFFFFFFFFFFFFFFFFFFFFFFFFFFFFFFFFFFFFFF AND PUSH20 0xFFFFFFFFFFFFFFFFFFFFFFFFFFFFFFFFFFFFFFFF AND DUP2 MSTORE PUSH1 0x20 ADD SWAP1 DUP2 MSTORE PUSH1 0x20 ADD PUSH0 KECCAK256 PUSH0 DUP3 DUP3 SLOAD PUSH2 0x416 SWAP2 SWAP1 PUSH2 0x13A3 JUMP JUMPDEST SWAP3 POP POP DUP2 SWAP1 SSTORE POP DUP3 PUSH1 0x3 PUSH0 DUP3 DUP3 SLOAD PUSH2 0x42E SWAP2 SWAP1 PUSH2 0x13A3 JUMP JUMPDEST SWAP3 POP POP DUP2 SWAP1 SSTORE POP PUSH32 0x0 PUSH20 0xFFFFFFFFFFFFFFFFFFFFFFFFFFFFFFFFFFFFFFFF AND PUSH4 0xA9059CBB CALLER DUP5 PUSH1 0x40 MLOAD DUP4 PUSH4 0xFFFFFFFF AND PUSH1 0xE0 SHL DUP2 MSTORE PUSH1 0x4 ADD PUSH2 0x490 SWAP3 SWAP2 SWAP1 PUSH2 0x13D6 JUMP JUMPDEST PUSH1 0x20 PUSH1 0x40 MLOAD DUP1 DUP4 SUB DUP2 PUSH0 DUP8 GAS CALL ISZERO DUP1 ISZERO PUSH2 0x4AC JUMPI RETURNDATASIZE PUSH0 PUSH0 RETURNDATACOPY RETURNDATASIZE PUSH0 REVERT JUMPDEST POP POP POP POP PUSH1 0x40 MLOAD RETURNDATASIZE PUSH1 0x1F NOT PUSH1 0x1F DUP3 ADD AND DUP3 ADD DUP1 PUSH1 0x40 MSTORE POP DUP2 ADD SWAP1 PUSH2 0x4D0 SWAP2 SWAP1 PUSH2 0x1432 JUMP JUMPDEST POP PUSH32 0x0 PUSH20 0xFFFFFFFFFFFFFFFFFFFFFFFFFFFFFFFFFFFFFFFF AND PUSH4 0xA9059CBB CALLER DUP4 PUSH1 0x40 MLOAD DUP4 PUSH4 0xFFFFFFFF AND PUSH1 0xE0 SHL DUP2 MSTORE PUSH1 0x4 ADD PUSH2 0x52C SWAP3 SWAP2 SWAP1 PUSH2 0x13D6 JUMP JUMPDEST PUSH1 0x20 PUSH1 0x40 MLOAD DUP1 DUP4 SUB DUP2 PUSH0 DUP8 GAS CALL ISZERO DUP1 ISZERO PUSH2 0x548 JUMPI RETURNDATASIZE PUSH0 PUSH0 RETURNDATACOPY RETURNDATASIZE PUSH0 REVERT JUMPDEST POP POP POP POP PUSH1 0x40 MLOAD RETURNDATASIZE PUSH1 0x1F NOT PUSH1 0x1F DUP3 ADD AND DUP3 ADD DUP1 PUSH1 0x40 MSTORE POP DUP2 ADD SWAP1 PUSH2 0x56C SWAP2 SWAP1 PUSH2 0x1432 JUMP JUMPDEST POP PUSH2 0x575 PUSH2 0xEB0 JUMP JUMPDEST CALLER PUSH20 0xFFFFFFFFFFFFFFFFFFFFFFFFFFFFFFFFFFFFFFFF AND PUSH32 0x1DC8BB69DF2B8E91FBDCBFCF93D951B3F0000F085A95FE3F7946D6161439245D DUP4 DUP4 DUP7 PUSH1 0x40 MLOAD PUSH2 0x5BF SWAP4 SWAP3 SWAP2 SWAP1 PUSH2 0x145D JUMP JUMPDEST PUSH1 0x40 MLOAD DUP1 SWAP2 SUB SWAP1 LOG2 POP POP PUSH2 0x5D1 PUSH2 0xFEE JUMP JUMPDEST POP JUMP JUMPDEST PUSH2 0x5DC PUSH2 0xE63 JUMP JUMPDEST PUSH0 DUP3 GT DUP1 ISZERO PUSH2 0x5EA JUMPI POP PUSH0 DUP2 GT JUMPDEST PUSH2 0x629 JUMPI PUSH1 0x40 MLOAD PUSH32 0x8C379A000000000000000000000000000000000000000000000000000000000 DUP2 MSTORE PUSH1 0x4 ADD PUSH2 0x620 SWAP1 PUSH2 0x14DC JUMP JUMPDEST PUSH1 0x40 MLOAD DUP1 SWAP2 SUB SWAP1 REVERT JUMPDEST PUSH32 0x0 PUSH20 0xFFFFFFFFFFFFFFFFFFFFFFFFFFFFFFFFFFFFFFFF AND PUSH4 0x23B872DD CALLER ADDRESS DUP6 PUSH1 0x40 MLOAD DUP5 PUSH4 0xFFFFFFFF AND PUSH1 0xE0 SHL DUP2 MSTORE PUSH1 0x4 ADD PUSH2 0x686 SWAP4 SWAP3 SWAP2 SWAP1 PUSH2 0x14FA JUMP JUMPDEST PUSH1 0x20 PUSH1 0x40 MLOAD DUP1 DUP4 SUB DUP2 PUSH0 DUP8 GAS CALL ISZERO DUP1 ISZERO PUSH2 0x6A2 JUMPI RETURNDATASIZE PUSH0 PUSH0 RETURNDATACOPY RETURNDATASIZE PUSH0 REVERT JUMPDEST POP POP POP POP PUSH1 0x40 MLOAD RETURNDATASIZE PUSH1 0x1F NOT PUSH1 0x1F DUP3 ADD AND DUP3 ADD DUP1 PUSH1 0x40 MSTORE POP DUP2 ADD SWAP1 PUSH2 0x6C6 SWAP2 SWAP1 PUSH2 0x1432 JUMP JUMPDEST POP PUSH32 0x0 PUSH20 0xFFFFFFFFFFFFFFFFFFFFFFFFFFFFFFFFFFFFFFFF AND PUSH4 0x23B872DD CALLER ADDRESS DUP5 PUSH1 0x40 MLOAD DUP5 PUSH4 0xFFFFFFFF AND PUSH1 0xE0 SHL DUP2 MSTORE PUSH1 0x4 ADD PUSH2 0x724 SWAP4 SWAP3 SWAP2 SWAP1 PUSH2 0x14FA JUMP JUMPDEST PUSH1 0x20 PUSH1 0x40 MLOAD DUP1 DUP4 SUB DUP2 PUSH0 DUP8 GAS CALL ISZERO DUP1 ISZERO PUSH2 0x740 JUMPI RETURNDATASIZE PUSH0 PUSH0 RETURNDATACOPY RETURNDATASIZE PUSH0 REVERT JUMPDEST POP POP POP POP PUSH1 0x40 MLOAD RETURNDATASIZE PUSH1 0x1F NOT PUSH1 0x1F DUP3 ADD AND DUP3 ADD DUP1 PUSH1 0x40 MSTORE POP DUP2 ADD SWAP1 PUSH2 0x764 SWAP2 SWAP1 PUSH2 0x1432 JUMP JUMPDEST POP PUSH0 PUSH0 PUSH1 0x3 SLOAD SUB PUSH2 0x78A JUMPI PUSH2 0x783 DUP3 DUP5 PUSH2 0x77E SWAP2 SWAP1 PUSH2 0x1305 JUMP JUMPDEST PUSH2 0xFF7 JUMP JUMPDEST SWAP1 POP PUSH2 0x7CB JUMP JUMPDEST PUSH2 0x7C8 PUSH1 0x1 SLOAD PUSH1 0x3 SLOAD DUP6 PUSH2 0x79E SWAP2 SWAP1 PUSH2 0x1305 JUMP JUMPDEST PUSH2 0x7A8 SWAP2 SWAP1 PUSH2 0x1373 JUMP JUMPDEST PUSH1 0x2 SLOAD PUSH1 0x3 SLOAD DUP6 PUSH2 0x7B9 SWAP2 SWAP1 PUSH2 0x1305 JUMP JUMPDEST PUSH2 0x7C3 SWAP2 SWAP1 PUSH2 0x1373 JUMP JUMPDEST PUSH2 0x106E JUMP JUMPDEST SWAP1 POP JUMPDEST PUSH0 DUP2 GT PUSH2 0x80D JUMPI PUSH1 0x40 MLOAD PUSH32 0x8C379A000000000000000000000000000000000000000000000000000000000 DUP2 MSTORE PUSH1 0x4 ADD PUSH2 0x804 SWAP1 PUSH2 0x1579 JUMP JUMPDEST PUSH1 0x40 MLOAD DUP1 SWAP2 SUB SWAP1 REVERT JUMPDEST DUP1 PUSH1 0x4 PUSH0 CALLER PUSH20 0xFFFFFFFFFFFFFFFFFFFFFFFFFFFFFFFFFFFFFFFF AND PUSH20 0xFFFFFFFFFFFFFFFFFFFFFFFFFFFFFFFFFFFFFFFF AND DUP2 MSTORE PUSH1 0x20 ADD SWAP1 DUP2 MSTORE PUSH1 0x20 ADD PUSH0 KECCAK256 PUSH0 DUP3 DUP3 SLOAD PUSH2 0x859 SWAP2 SWAP1 PUSH2 0x1597 JUMP JUMPDEST SWAP3 POP POP DUP2 SWAP1 SSTORE POP DUP1 PUSH1 0x3 PUSH0 DUP3 DUP3 SLOAD PUSH2 0x871 SWAP2 SWAP1 PUSH2 0x1597 JUMP JUMPDEST SWAP3 POP POP DUP2 SWAP1 SSTORE POP PUSH2 0x880 PUSH2 0xEB0 JUMP JUMPDEST CALLER PUSH20 0xFFFFFFFFFFFFFFFFFFFFFFFFFFFFFFFFFFFFFFFF AND PUSH32 0x64B83944E79C3CE8D4C297411DE637C3E102D064677AAC0C163976EBDCD6F50E DUP5 DUP5 DUP5 PUSH1 0x40 MLOAD PUSH2 0x8CA SWAP4 SWAP3 SWAP2 SWAP1 PUSH2 0x145D JUMP JUMPDEST PUSH1 0x40 MLOAD DUP1 SWAP2 SUB SWAP1 LOG2 POP PUSH2 0x8DB PUSH2 0xFEE JUMP JUMPDEST POP POP JUMP JUMPDEST PUSH0 PUSH1 0x3 SLOAD SWAP1 POP SWAP1 JUMP JUMPDEST PUSH1 0x3 SLOAD DUP2 JUMP JUMPDEST PUSH0 PUSH1 0x4 PUSH0 DUP4 PUSH20 0xFFFFFFFFFFFFFFFFFFFFFFFFFFFFFFFFFFFFFFFF AND PUSH20 0xFFFFFFFFFFFFFFFFFFFFFFFFFFFFFFFFFFFFFFFF AND DUP2 MSTORE PUSH1 0x20 ADD SWAP1 DUP2 MSTORE PUSH1 0x20 ADD PUSH0 KECCAK256 SLOAD SWAP1 POP SWAP2 SWAP1 POP JUMP JUMPDEST PUSH2 0x93C PUSH2 0xE63 JUMP JUMPDEST PUSH0 DUP3 GT PUSH2 0x97E JUMPI PUSH1 0x40 MLOAD PUSH32 0x8C379A000000000000000000000000000000000000000000000000000000000 DUP2 MSTORE PUSH1 0x4 ADD PUSH2 0x975 SWAP1 PUSH2 0x1614 JUMP JUMPDEST PUSH1 0x40 MLOAD DUP1 SWAP2 SUB SWAP1 REVERT JUMPDEST PUSH32 0x0 PUSH20 0xFFFFFFFFFFFFFFFFFFFFFFFFFFFFFFFFFFFFFFFF AND DUP2 PUSH20 0xFFFFFFFFFFFFFFFFFFFFFFFFFFFFFFFFFFFFFFFF AND EQ DUP1 PUSH2 0xA23 JUMPI POP PUSH32 0x0 PUSH20 0xFFFFFFFFFFFFFFFFFFFFFFFFFFFFFFFFFFFFFFFF AND DUP2 PUSH20 0xFFFFFFFFFFFFFFFFFFFFFFFFFFFFFFFFFFFFFFFF AND EQ JUMPDEST PUSH2 0xA62 JUMPI PUSH1 0x40 MLOAD PUSH32 0x8C379A000000000000000000000000000000000000000000000000000000000 DUP2 MSTORE PUSH1 0x4 ADD PUSH2 0xA59 SWAP1 PUSH2 0x167C JUMP JUMPDEST PUSH1 0x40 MLOAD DUP1 SWAP2 SUB SWAP1 REVERT JUMPDEST PUSH0 PUSH32 0x0 PUSH20 0xFFFFFFFFFFFFFFFFFFFFFFFFFFFFFFFFFFFFFFFF AND DUP3 PUSH20 0xFFFFFFFFFFFFFFFFFFFFFFFFFFFFFFFFFFFFFFFF AND EQ PUSH2 0xADC JUMPI PUSH32 0x0 PUSH2 0xAFE JUMP JUMPDEST PUSH32 0x0 JUMPDEST SWAP1 POP PUSH0 PUSH2 0xB0B DUP5 DUP5 PUSH2 0xCB9 JUMP JUMPDEST SWAP1 POP PUSH0 DUP2 GT PUSH2 0xB4F JUMPI PUSH1 0x40 MLOAD PUSH32 0x8C379A000000000000000000000000000000000000000000000000000000000 DUP2 MSTORE PUSH1 0x4 ADD PUSH2 0xB46 SWAP1 PUSH2 0x16E4 JUMP JUMPDEST PUSH1 0x40 MLOAD DUP1 SWAP2 SUB SWAP1 REVERT JUMPDEST DUP3 PUSH20 0xFFFFFFFFFFFFFFFFFFFFFFFFFFFFFFFFFFFFFFFF AND PUSH4 0x23B872DD CALLER ADDRESS DUP8 PUSH1 0x40 MLOAD DUP5 PUSH4 0xFFFFFFFF AND PUSH1 0xE0 SHL DUP2 MSTORE PUSH1 0x4 ADD PUSH2 0xB8C SWAP4 SWAP3 SWAP2 SWAP1 PUSH2 0x14FA JUMP JUMPDEST PUSH1 0x20 PUSH1 0x40 MLOAD DUP1 DUP4 SUB DUP2 PUSH0 DUP8 GAS CALL ISZERO DUP1 ISZERO PUSH2 0xBA8 JUMPI RETURNDATASIZE PUSH0 PUSH0 RETURNDATACOPY RETURNDATASIZE PUSH0 REVERT JUMPDEST POP POP POP POP PUSH1 0x40 MLOAD RETURNDATASIZE PUSH1 0x1F NOT PUSH1 0x1F DUP3 ADD AND DUP3 ADD DUP1 PUSH1 0x40 MSTORE POP DUP2 ADD SWAP1 PUSH2 0xBCC SWAP2 SWAP1 PUSH2 0x1432 JUMP JUMPDEST POP DUP2 PUSH20 0xFFFFFFFFFFFFFFFFFFFFFFFFFFFFFFFFFFFFFFFF AND PUSH4 0xA9059CBB CALLER DUP4 PUSH1 0x40 MLOAD DUP4 PUSH4 0xFFFFFFFF AND PUSH1 0xE0 SHL DUP2 MSTORE PUSH1 0x4 ADD PUSH2 0xC08 SWAP3 SWAP2 SWAP1 PUSH2 0x13D6 JUMP JUMPDEST PUSH1 0x20 PUSH1 0x40 MLOAD DUP1 DUP4 SUB DUP2 PUSH0 DUP8 GAS CALL ISZERO DUP1 ISZERO PUSH2 0xC24 JUMPI RETURNDATASIZE PUSH0 PUSH0 RETURNDATACOPY RETURNDATASIZE PUSH0 REVERT JUMPDEST POP POP POP POP PUSH1 0x40 MLOAD RETURNDATASIZE PUSH1 0x1F NOT PUSH1 0x1F DUP3 ADD AND DUP3 ADD DUP1 PUSH1 0x40 MSTORE POP DUP2 ADD SWAP1 PUSH2 0xC48 SWAP2 SWAP1 PUSH2 0x1432 JUMP JUMPDEST POP PUSH2 0xC51 PUSH2 0xEB0 JUMP JUMPDEST CALLER PUSH20 0xFFFFFFFFFFFFFFFFFFFFFFFFFFFFFFFFFFFFFFFF AND PUSH32 0x692315744755EE6D80DECAEB993D4B1BB95FF5DB042CC47B32D5A7D858B01902 DUP5 DUP7 DUP6 DUP6 PUSH1 0x40 MLOAD PUSH2 0xC9D SWAP5 SWAP4 SWAP3 SWAP2 SWAP1 PUSH2 0x1702 JUMP JUMPDEST PUSH1 0x40 MLOAD DUP1 SWAP2 SUB SWAP1 LOG2 POP POP PUSH2 0xCAF PUSH2 0xFEE JUMP JUMPDEST POP POP JUMP JUMPDEST PUSH1 0x1 SLOAD DUP2 JUMP JUMPDEST PUSH0 PUSH32 0x0 PUSH20 0xFFFFFFFFFFFFFFFFFFFFFFFFFFFFFFFFFFFFFFFF AND DUP3 PUSH20 0xFFFFFFFFFFFFFFFFFFFFFFFFFFFFFFFFFFFFFFFF AND EQ DUP1 PUSH2 0xD5F JUMPI POP PUSH32 0x0 PUSH20 0xFFFFFFFFFFFFFFFFFFFFFFFFFFFFFFFFFFFFFFFF AND DUP3 PUSH20 0xFFFFFFFFFFFFFFFFFFFFFFFFFFFFFFFFFFFFFFFF AND EQ JUMPDEST PUSH2 0xD9E JUMPI PUSH1 0x40 MLOAD PUSH32 0x8C379A000000000000000000000000000000000000000000000000000000000 DUP2 MSTORE PUSH1 0x4 ADD PUSH2 0xD95 SWAP1 PUSH2 0x178F JUMP JUMPDEST PUSH1 0x40 MLOAD DUP1 SWAP2 SUB SWAP1 REVERT JUMPDEST PUSH0 PUSH32 0x0 PUSH20 0xFFFFFFFFFFFFFFFFFFFFFFFFFFFFFFFFFFFFFFFF AND DUP4 PUSH20 0xFFFFFFFFFFFFFFFFFFFFFFFFFFFFFFFFFFFFFFFF AND EQ SWAP1 POP PUSH0 PUSH0 DUP3 PUSH2 0xE02 JUMPI PUSH1 0x2 SLOAD PUSH1 0x1 SLOAD PUSH2 0xE09 JUMP JUMPDEST PUSH1 0x1 SLOAD PUSH1 0x2 SLOAD JUMPDEST SWAP2 POP SWAP2 POP PUSH0 PUSH2 0x3E5 DUP8 PUSH2 0xE1C SWAP2 SWAP1 PUSH2 0x1305 JUMP JUMPDEST SWAP1 POP PUSH0 DUP3 DUP3 PUSH2 0xE2B SWAP2 SWAP1 PUSH2 0x1305 JUMP JUMPDEST SWAP1 POP PUSH0 DUP3 PUSH2 0x3E8 DUP7 PUSH2 0xE3D SWAP2 SWAP1 PUSH2 0x1305 JUMP JUMPDEST PUSH2 0xE47 SWAP2 SWAP1 PUSH2 0x1597 JUMP JUMPDEST SWAP1 POP DUP1 DUP3 PUSH2 0xE55 SWAP2 SWAP1 PUSH2 0x1373 JUMP JUMPDEST SWAP7 POP POP POP POP POP POP POP SWAP3 SWAP2 POP POP JUMP JUMPDEST PUSH1 0x2 PUSH0 SLOAD SUB PUSH2 0xEA7 JUMPI PUSH1 0x40 MLOAD PUSH32 0x8C379A000000000000000000000000000000000000000000000000000000000 DUP2 MSTORE PUSH1 0x4 ADD PUSH2 0xE9E SWAP1 PUSH2 0x17F7 JUMP JUMPDEST PUSH1 0x40 MLOAD DUP1 SWAP2 SUB SWAP1 REVERT JUMPDEST PUSH1 0x2 PUSH0 DUP2 SWAP1 SSTORE POP JUMP JUMPDEST PUSH32 0x0 PUSH20 0xFFFFFFFFFFFFFFFFFFFFFFFFFFFFFFFFFFFFFFFF AND PUSH4 0x70A08231 ADDRESS PUSH1 0x40 MLOAD DUP3 PUSH4 0xFFFFFFFF AND PUSH1 0xE0 SHL DUP2 MSTORE PUSH1 0x4 ADD PUSH2 0xF09 SWAP2 SWAP1 PUSH2 0x1176 JUMP JUMPDEST PUSH1 0x20 PUSH1 0x40 MLOAD DUP1 DUP4 SUB DUP2 DUP7 GAS STATICCALL ISZERO DUP1 ISZERO PUSH2 0xF24 JUMPI RETURNDATASIZE PUSH0 PUSH0 RETURNDATACOPY RETURNDATASIZE PUSH0 REVERT JUMPDEST POP POP POP POP PUSH1 0x40 MLOAD RETURNDATASIZE PUSH1 0x1F NOT PUSH1 0x1F DUP3 ADD AND DUP3 ADD DUP1 PUSH1 0x40 MSTORE POP DUP2 ADD SWAP1 PUSH2 0xF48 SWAP2 SWAP1 PUSH2 0x1829 JUMP JUMPDEST PUSH1 0x1 DUP2 SWAP1 SSTORE POP PUSH32 0x0 PUSH20 0xFFFFFFFFFFFFFFFFFFFFFFFFFFFFFFFFFFFFFFFF AND PUSH4 0x70A08231 ADDRESS PUSH1 0x40 MLOAD DUP3 PUSH4 0xFFFFFFFF AND PUSH1 0xE0 SHL DUP2 MSTORE PUSH1 0x4 ADD PUSH2 0xFA7 SWAP2 SWAP1 PUSH2 0x1176 JUMP JUMPDEST PUSH1 0x20 PUSH1 0x40 MLOAD DUP1 DUP4 SUB DUP2 DUP7 GAS STATICCALL ISZERO DUP1 ISZERO PUSH2 0xFC2 JUMPI RETURNDATASIZE PUSH0 PUSH0 RETURNDATACOPY RETURNDATASIZE PUSH0 REVERT JUMPDEST POP POP POP POP PUSH1 0x40 MLOAD RETURNDATASIZE PUSH1 0x1F NOT PUSH1 0x1F DUP3 ADD AND DUP3 ADD DUP1 PUSH1 0x40 MSTORE POP DUP2 ADD SWAP1 PUSH2 0xFE6 SWAP2 SWAP1 PUSH2 0x1829 JUMP JUMPDEST PUSH1 0x2 DUP2 SWAP1 SSTORE POP JUMP JUMPDEST PUSH1 0x1 PUSH0 DUP2 SWAP1 SSTORE POP JUMP JUMPDEST PUSH0 PUSH1 0x3 DUP3 GT ISZERO PUSH2 0x105C JUMPI DUP2 SWAP1 POP PUSH0 PUSH1 0x1 PUSH1 0x2 DUP5 PUSH2 0x1014 SWAP2 SWAP1 PUSH2 0x1373 JUMP JUMPDEST PUSH2 0x101E SWAP2 SWAP1 PUSH2 0x1597 JUMP JUMPDEST SWAP1 POP JUMPDEST DUP2 DUP2 LT ISZERO PUSH2 0x1056 JUMPI DUP1 SWAP2 POP PUSH1 0x2 DUP2 DUP3 DUP6 PUSH2 0x103B SWAP2 SWAP1 PUSH2 0x1373 JUMP JUMPDEST PUSH2 0x1045 SWAP2 SWAP1 PUSH2 0x1597 JUMP JUMPDEST PUSH2 0x104F SWAP2 SWAP1 PUSH2 0x1373 JUMP JUMPDEST SWAP1 POP PUSH2 0x1021 JUMP JUMPDEST POP PUSH2 0x1069 JUMP JUMPDEST PUSH0 DUP3 EQ PUSH2 0x1068 JUMPI PUSH1 0x1 SWAP1 POP JUMPDEST JUMPDEST SWAP2 SWAP1 POP JUMP JUMPDEST PUSH0 DUP2 DUP4 LT PUSH2 0x107C JUMPI DUP2 PUSH2 0x107E JUMP JUMPDEST DUP3 JUMPDEST SWAP1 POP SWAP3 SWAP2 POP POP JUMP JUMPDEST PUSH0 DUP2 SWAP1 POP SWAP2 SWAP1 POP JUMP JUMPDEST PUSH2 0x1098 DUP2 PUSH2 0x1086 JUMP JUMPDEST DUP3 MSTORE POP POP JUMP JUMPDEST PUSH0 PUSH1 0x40 DUP3 ADD SWAP1 POP PUSH2 0x10B1 PUSH0 DUP4 ADD DUP6 PUSH2 0x108F JUMP JUMPDEST PUSH2 0x10BE PUSH1 0x20 DUP4 ADD DUP5 PUSH2 0x108F JUMP JUMPDEST SWAP4 SWAP3 POP POP POP JUMP JUMPDEST PUSH0 PUSH0 REVERT JUMPDEST PUSH0 PUSH20 0xFFFFFFFFFFFFFFFFFFFFFFFFFFFFFFFFFFFFFFFF DUP3 AND SWAP1 POP SWAP2 SWAP1 POP JUMP JUMPDEST PUSH0 PUSH2 0x10F2 DUP3 PUSH2 0x10C9 JUMP JUMPDEST SWAP1 POP SWAP2 SWAP1 POP JUMP JUMPDEST PUSH2 0x1102 DUP2 PUSH2 0x10E8 JUMP JUMPDEST DUP2 EQ PUSH2 0x110C JUMPI PUSH0 PUSH0 REVERT JUMPDEST POP JUMP JUMPDEST PUSH0 DUP2 CALLDATALOAD SWAP1 POP PUSH2 0x111D DUP2 PUSH2 0x10F9 JUMP JUMPDEST SWAP3 SWAP2 POP POP JUMP JUMPDEST PUSH0 PUSH1 0x20 DUP3 DUP5 SUB SLT ISZERO PUSH2 0x1138 JUMPI PUSH2 0x1137 PUSH2 0x10C5 JUMP JUMPDEST JUMPDEST PUSH0 PUSH2 0x1145 DUP5 DUP3 DUP6 ADD PUSH2 0x110F JUMP JUMPDEST SWAP2 POP POP SWAP3 SWAP2 POP POP JUMP JUMPDEST PUSH0 PUSH1 0x20 DUP3 ADD SWAP1 POP PUSH2 0x1161 PUSH0 DUP4 ADD DUP5 PUSH2 0x108F JUMP JUMPDEST SWAP3 SWAP2 POP POP JUMP JUMPDEST PUSH2 0x1170 DUP2 PUSH2 0x10E8 JUMP JUMPDEST DUP3 MSTORE POP POP JUMP JUMPDEST PUSH0 PUSH1 0x20 DUP3 ADD SWAP1 POP PUSH2 0x1189 PUSH0 DUP4 ADD DUP5 PUSH2 0x1167 JUMP JUMPDEST SWAP3 SWAP2 POP POP JUMP JUMPDEST PUSH2 0x1198 DUP2 PUSH2 0x1086 JUMP JUMPDEST DUP2 EQ PUSH2 0x11A2 JUMPI PUSH0 PUSH0 REVERT JUMPDEST POP JUMP JUMPDEST PUSH0 DUP2 CALLDATALOAD SWAP1 POP PUSH2 0x11B3 DUP2 PUSH2 0x118F JUMP JUMPDEST SWAP3 SWAP2 POP POP JUMP JUMPDEST PUSH0 PUSH1 0x20 DUP3 DUP5 SUB SLT ISZERO PUSH2 0x11CE JUMPI PUSH2 0x11CD PUSH2 0x10C5 JUMP JUMPDEST JUMPDEST PUSH0 PUSH2 0x11DB DUP5 DUP3 DUP6 ADD PUSH2 0x11A5 JUMP JUMPDEST SWAP2 POP POP SWAP3 SWAP2 POP POP JUMP JUMPDEST PUSH0 PUSH0 PUSH1 0x40 DUP4 DUP6 SUB SLT ISZERO PUSH2 0x11FA JUMPI PUSH2 0x11F9 PUSH2 0x10C5 JUMP JUMPDEST JUMPDEST PUSH0 PUSH2 0x1207 DUP6 DUP3 DUP7 ADD PUSH2 0x11A5 JUMP JUMPDEST SWAP3 POP POP PUSH1 0x20 PUSH2 0x1218 DUP6 DUP3 DUP7 ADD PUSH2 0x11A5 JUMP JUMPDEST SWAP2 POP POP SWAP3 POP SWAP3 SWAP1 POP JUMP JUMPDEST PUSH0 PUSH0 PUSH1 0x40 DUP4 DUP6 SUB SLT ISZERO PUSH2 0x1238 JUMPI PUSH2 0x1237 PUSH2 0x10C5 JUMP JUMPDEST JUMPDEST PUSH0 PUSH2 0x1245 DUP6 DUP3 DUP7 ADD PUSH2 0x11A5 JUMP JUMPDEST SWAP3 POP POP PUSH1 0x20 PUSH2 0x1256 DUP6 DUP3 DUP7 ADD PUSH2 0x110F JUMP JUMPDEST SWAP2 POP POP SWAP3 POP SWAP3 SWAP1 POP JUMP JUMPDEST PUSH0 DUP3 DUP3 MSTORE PUSH1 0x20 DUP3 ADD SWAP1 POP SWAP3 SWAP2 POP POP JUMP JUMPDEST PUSH32 0x496E76616C6964204C5020616D6F756E74000000000000000000000000000000 PUSH0 DUP3 ADD MSTORE POP JUMP JUMPDEST PUSH0 PUSH2 0x12A4 PUSH1 0x11 DUP4 PUSH2 0x1260 JUMP JUMPDEST SWAP2 POP PUSH2 0x12AF DUP3 PUSH2 0x1270 JUMP JUMPDEST PUSH1 0x20 DUP3 ADD SWAP1 POP SWAP2 SWAP1 POP JUMP JUMPDEST PUSH0 PUSH1 0x20 DUP3 ADD SWAP1 POP DUP2 DUP2 SUB PUSH0 DUP4 ADD MSTORE PUSH2 0x12D1 DUP2 PUSH2 0x1298 JUMP JUMPDEST SWAP1 POP SWAP2 SWAP1 POP JUMP JUMPDEST PUSH32 0x4E487B7100000000000000000000000000000000000000000000000000000000 PUSH0 MSTORE PUSH1 0x11 PUSH1 0x4 MSTORE PUSH1 0x24 PUSH0 REVERT JUMPDEST PUSH0 PUSH2 0x130F DUP3 PUSH2 0x1086 JUMP JUMPDEST SWAP2 POP PUSH2 0x131A DUP4 PUSH2 0x1086 JUMP JUMPDEST SWAP3 POP DUP3 DUP3 MUL PUSH2 0x1328 DUP2 PUSH2 0x1086 JUMP JUMPDEST SWAP2 POP DUP3 DUP3 DIV DUP5 EQ DUP4 ISZERO OR PUSH2 0x133F JUMPI PUSH2 0x133E PUSH2 0x12D8 JUMP JUMPDEST JUMPDEST POP SWAP3 SWAP2 POP POP JUMP JUMPDEST PUSH32 0x4E487B7100000000000000000000000000000000000000000000000000000000 PUSH0 MSTORE PUSH1 0x12 PUSH1 0x4 MSTORE PUSH1 0x24 PUSH0 REVERT JUMPDEST PUSH0 PUSH2 0x137D DUP3 PUSH2 0x1086 JUMP JUMPDEST SWAP2 POP PUSH2 0x1388 DUP4 PUSH2 0x1086 JUMP JUMPDEST SWAP3 POP DUP3 PUSH2 0x1398 JUMPI PUSH2 0x1397 PUSH2 0x1346 JUMP JUMPDEST JUMPDEST DUP3 DUP3 DIV SWAP1 POP SWAP3 SWAP2 POP POP JUMP JUMPDEST PUSH0 PUSH2 0x13AD DUP3 PUSH2 0x1086 JUMP JUMPDEST SWAP2 POP PUSH2 0x13B8 DUP4 PUSH2 0x1086 JUMP JUMPDEST SWAP3 POP DUP3 DUP3 SUB SWAP1 POP DUP2 DUP2 GT ISZERO PUSH2 0x13D0 JUMPI PUSH2 0x13CF PUSH2 0x12D8 JUMP JUMPDEST JUMPDEST SWAP3 SWAP2 POP POP JUMP JUMPDEST PUSH0 PUSH1 0x40 DUP3 ADD SWAP1 POP PUSH2 0x13E9 PUSH0 DUP4 ADD DUP6 PUSH2 0x1167 JUMP JUMPDEST PUSH2 0x13F6 PUSH1 0x20 DUP4 ADD DUP5 PUSH2 0x108F JUMP JUMPDEST SWAP4 SWAP3 POP POP POP JUMP JUMPDEST PUSH0 DUP2 ISZERO ISZERO SWAP1 POP SWAP2 SWAP1 POP JUMP JUMPDEST PUSH2 0x1411 DUP2 PUSH2 0x13FD JUMP JUMPDEST DUP2 EQ PUSH2 0x141B JUMPI PUSH0 PUSH0 REVERT JUMPDEST POP JUMP JUMPDEST PUSH0 DUP2 MLOAD SWAP1 POP PUSH2 0x142C DUP2 PUSH2 0x1408 JUMP JUMPDEST SWAP3 SWAP2 POP POP JUMP JUMPDEST PUSH0 PUSH1 0x20 DUP3 DUP5 SUB SLT ISZERO PUSH2 0x1447 JUMPI PUSH2 0x1446 PUSH2 0x10C5 JUMP JUMPDEST JUMPDEST PUSH0 PUSH2 0x1454 DUP5 DUP3 DUP6 ADD PUSH2 0x141E JUMP JUMPDEST SWAP2 POP POP SWAP3 SWAP2 POP POP JUMP JUMPDEST PUSH0 PUSH1 0x60 DUP3 ADD SWAP1 POP PUSH2 0x1470 PUSH0 DUP4 ADD DUP7 PUSH2 0x108F JUMP JUMPDEST PUSH2 0x147D PUSH1 0x20 DUP4 ADD DUP6 PUSH2 0x108F JUMP JUMPDEST PUSH2 0x148A PUSH1 0x40 DUP4 ADD DUP5 PUSH2 0x108F JUMP JUMPDEST SWAP5 SWAP4 POP POP POP POP JUMP JUMPDEST PUSH32 0x496E76616C696420616D6F756E74730000000000000000000000000000000000 PUSH0 DUP3 ADD MSTORE POP JUMP JUMPDEST PUSH0 PUSH2 0x14C6 PUSH1 0xF DUP4 PUSH2 0x1260 JUMP JUMPDEST SWAP2 POP PUSH2 0x14D1 DUP3 PUSH2 0x1492 JUMP JUMPDEST PUSH1 0x20 DUP3 ADD SWAP1 POP SWAP2 SWAP1 POP JUMP JUMPDEST PUSH0 PUSH1 0x20 DUP3 ADD SWAP1 POP DUP2 DUP2 SUB PUSH0 DUP4 ADD MSTORE PUSH2 0x14F3 DUP2 PUSH2 0x14BA JUMP JUMPDEST SWAP1 POP SWAP2 SWAP1 POP JUMP JUMPDEST PUSH0 PUSH1 0x60 DUP3 ADD SWAP1 POP PUSH2 0x150D PUSH0 DUP4 ADD DUP7 PUSH2 0x1167 JUMP JUMPDEST PUSH2 0x151A PUSH1 0x20 DUP4 ADD DUP6 PUSH2 0x1167 JUMP JUMPDEST PUSH2 0x1527 PUSH1 0x40 DUP4 ADD DUP5 PUSH2 0x108F JUMP JUMPDEST SWAP5 SWAP4 POP POP POP POP JUMP JUMPDEST PUSH32 0x5A65726F204C50206D696E746564000000000000000000000000000000000000 PUSH0 DUP3 ADD MSTORE POP JUMP JUMPDEST PUSH0 PUSH2 0x1563 PUSH1 0xE DUP4 PUSH2 0x1260 JUMP JUMPDEST SWAP2 POP PUSH2 0x156E DUP3 PUSH2 0x152F JUMP JUMPDEST PUSH1 0x20 DUP3 ADD SWAP1 POP SWAP2 SWAP1 POP JUMP JUMPDEST PUSH0 PUSH1 0x20 DUP3 ADD SWAP1 POP DUP2 DUP2 SUB PUSH0 DUP4 ADD MSTORE PUSH2 0x1590 DUP2 PUSH2 0x1557 JUMP JUMPDEST SWAP1 POP SWAP2 SWAP1 POP JUMP JUMPDEST PUSH0 PUSH2 0x15A1 DUP3 PUSH2 0x1086 JUMP JUMPDEST SWAP2 POP PUSH2 0x15AC DUP4 PUSH2 0x1086 JUMP JUMPDEST SWAP3 POP DUP3 DUP3 ADD SWAP1 POP DUP1 DUP3 GT ISZERO PUSH2 0x15C4 JUMPI PUSH2 0x15C3 PUSH2 0x12D8 JUMP JUMPDEST JUMPDEST SWAP3 SWAP2 POP POP JUMP JUMPDEST PUSH32 0x5A65726F20696E70757400000000000000000000000000000000000000000000 PUSH0 DUP3 ADD MSTORE POP JUMP JUMPDEST PUSH0 PUSH2 0x15FE PUSH1 0xA DUP4 PUSH2 0x1260 JUMP JUMPDEST SWAP2 POP PUSH2 0x1609 DUP3 PUSH2 0x15CA JUMP JUMPDEST PUSH1 0x20 DUP3 ADD SWAP1 POP SWAP2 SWAP1 POP JUMP JUMPDEST PUSH0 PUSH1 0x20 DUP3 ADD SWAP1 POP DUP2 DUP2 SUB PUSH0 DUP4 ADD MSTORE PUSH2 0x162B DUP2 PUSH2 0x15F2 JUMP JUMPDEST SWAP1 POP SWAP2 SWAP1 POP JUMP JUMPDEST PUSH32 0x496E76616C696420746F6B656E00000000000000000000000000000000000000 PUSH0 DUP3 ADD MSTORE POP JUMP JUMPDEST PUSH0 PUSH2 0x1666 PUSH1 0xD DUP4 PUSH2 0x1260 JUMP JUMPDEST SWAP2 POP PUSH2 0x1671 DUP3 PUSH2 0x1632 JUMP JUMPDEST PUSH1 0x20 DUP3 ADD SWAP1 POP SWAP2 SWAP1 POP JUMP JUMPDEST PUSH0 PUSH1 0x20 DUP3 ADD SWAP1 POP DUP2 DUP2 SUB PUSH0 DUP4 ADD MSTORE PUSH2 0x1693 DUP2 PUSH2 0x165A JUMP JUMPDEST SWAP1 POP SWAP2 SWAP1 POP JUMP JUMPDEST PUSH32 0x496E73756666696369656E74206F757470757400000000000000000000000000 PUSH0 DUP3 ADD MSTORE POP JUMP JUMPDEST PUSH0 PUSH2 0x16CE PUSH1 0x13 DUP4 PUSH2 0x1260 JUMP JUMPDEST SWAP2 POP PUSH2 0x16D9 DUP3 PUSH2 0x169A JUMP JUMPDEST PUSH1 0x20 DUP3 ADD SWAP1 POP SWAP2 SWAP1 POP JUMP JUMPDEST PUSH0 PUSH1 0x20 DUP3 ADD SWAP1 POP DUP2 DUP2 SUB PUSH0 DUP4 ADD MSTORE PUSH2 0x16FB DUP2 PUSH2 0x16C2 JUMP JUMPDEST SWAP1 POP SWAP2 SWAP1 POP JUMP JUMPDEST PUSH0 PUSH1 0x80 DUP3 ADD SWAP1 POP PUSH2 0x1715 PUSH0 DUP4 ADD DUP8 PUSH2 0x1167 JUMP JUMPDEST PUSH2 0x1722 PUSH1 0x20 DUP4 ADD DUP7 PUSH2 0x108F JUMP JUMPDEST PUSH2 0x172F PUSH1 0x40 DUP4 ADD DUP6 PUSH2 0x1167 JUMP JUMPDEST PUSH2 0x173C PUSH1 0x60 DUP4 ADD DUP5 PUSH2 0x108F JUMP JUMPDEST SWAP6 SWAP5 POP POP POP POP POP JUMP JUMPDEST PUSH32 0x496E76616C696420696E70757420746F6B656E00000000000000000000000000 PUSH0 DUP3 ADD MSTORE POP JUMP JUMPDEST PUSH0 PUSH2 0x1779 PUSH1 0x13 DUP4 PUSH2 0x1260 JUMP JUMPDEST SWAP2 POP PUSH2 0x1784 DUP3 PUSH2 0x1745 JUMP JUMPDEST PUSH1 0x20 DUP3 ADD SWAP1 POP SWAP2 SWAP1 POP JUMP JUMPDEST PUSH0 PUSH1 0x20 DUP3 ADD SWAP1 POP DUP2 DUP2 SUB PUSH0 DUP4 ADD MSTORE PUSH2 0x17A6 DUP2 PUSH2 0x176D JUMP JUMPDEST SWAP1 POP SWAP2 SWAP1 POP JUMP JUMPDEST PUSH32 0x5265656E7472616E637947756172643A207265656E7472616E742063616C6C00 PUSH0 DUP3 ADD MSTORE POP JUMP JUMPDEST PUSH0 PUSH2 0x17E1 PUSH1 0x1F DUP4 PUSH2 0x1260 JUMP JUMPDEST SWAP2 POP PUSH2 0x17EC DUP3 PUSH2 0x17AD JUMP JUMPDEST PUSH1 0x20 DUP3 ADD SWAP1 POP SWAP2 SWAP1 POP JUMP JUMPDEST PUSH0 PUSH1 0x20 DUP3 ADD SWAP1 POP DUP2 DUP2 SUB PUSH0 DUP4 ADD MSTORE PUSH2 0x180E DUP2 PUSH2 0x17D5 JUMP JUMPDEST SWAP1 POP SWAP2 SWAP1 POP JUMP JUMPDEST PUSH0 DUP2 MLOAD SWAP1 POP PUSH2 0x1823 DUP2 PUSH2 0x118F JUMP JUMPDEST SWAP3 SWAP2 POP POP JUMP JUMPDEST PUSH0 PUSH1 0x20 DUP3 DUP5 SUB SLT ISZERO PUSH2 0x183E JUMPI PUSH2 0x183D PUSH2 0x10C5 JUMP JUMPDEST JUMPDEST PUSH0 PUSH2 0x184B DUP5 DUP3 DUP6 ADD PUSH2 0x1815 JUMP JUMPDEST SWAP2 POP POP SWAP3 SWAP2 POP POP JUMP INVALID LOG2 PUSH5 0x6970667358 0x22 SLT KECCAK256 GASPRICE SWAP15 0xBC GAS 0x2B EXTCODECOPY 0xDC SWAP9 SWAP6 KECCAK256 GAS 0xDF GASPRICE 0xD0 0xF 0x4F 0xA6 0xC0 EXTCODECOPY JUMPI GASLIMIT 0xD9 0xB0 0x2B 0xBF EXTSTATICCALL PUSH16 0xD9C1FE50B364736F6C634300081E0033 "
		},
		"gasEstimates": {
			"creation": {
				"codeDepositCost": "1256400",
				"executionCost": "infinite",
				"totalCost": "infinite"
			},
			"external": {
				"addLiquidity(uint256,uint256)": "infinite",
				"getAmountOut(uint256,address)": "infinite",
				"getLPBalance(address)": "2851",
				"getReserves()": "infinite",
				"getTotalLPSupply()": "2477",
				"lpBalances(address)": "2825",
				"removeLiquidity(uint256)": "infinite",
				"reserveA()": "2491",
				"reserveB()": "2492",
				"swap(uint256,address)": "infinite",
				"tokenA()": "infinite",
				"tokenB()": "infinite",
				"totalLPSupply()": "2492"
			},
			"internal": {
				"_updateReserves()": "infinite",
				"min(uint256,uint256)": "63",
				"sqrt(uint256)": "infinite"
			}
		},
		"methodIdentifiers": {
			"addLiquidity(uint256,uint256)": "9cd441da",
			"getAmountOut(uint256,address)": "f140a35a",
			"getLPBalance(address)": "d2258beb",
			"getReserves()": "0902f1ac",
			"getTotalLPSupply()": "b7e5dcee",
			"lpBalances(address)": "0b65092d",
			"removeLiquidity(uint256)": "9c8f9f23",
			"reserveA()": "dc5fa6c5",
			"reserveB()": "19e36f3b",
			"swap(uint256,address)": "d3986f08",
			"tokenA()": "0fc63d10",
			"tokenB()": "5f64b55b",
			"totalLPSupply()": "d1a86711"
		}
	},
	"abi": [
		{
			"inputs": [
				{
					"internalType": "address",
					"name": "_tokenA",
					"type": "address"
				},
				{
					"internalType": "address",
					"name": "_tokenB",
					"type": "address"
				}
			],
			"stateMutability": "nonpayable",
			"type": "constructor"
		},
		{
			"anonymous": false,
			"inputs": [
				{
					"indexed": true,
					"internalType": "address",
					"name": "provider",
					"type": "address"
				},
				{
					"indexed": false,
					"internalType": "uint256",
					"name": "amountA",
					"type": "uint256"
				},
				{
					"indexed": false,
					"internalType": "uint256",
					"name": "amountB",
					"type": "uint256"
				},
				{
					"indexed": false,
					"internalType": "uint256",
					"name": "lpMinted",
					"type": "uint256"
				}
			],
			"name": "LiquidityAdded",
			"type": "event"
		},
		{
			"anonymous": false,
			"inputs": [
				{
					"indexed": true,
					"internalType": "address",
					"name": "provider",
					"type": "address"
				},
				{
					"indexed": false,
					"internalType": "uint256",
					"name": "amountA",
					"type": "uint256"
				},
				{
					"indexed": false,
					"internalType": "uint256",
					"name": "amountB",
					"type": "uint256"
				},
				{
					"indexed": false,
					"internalType": "uint256",
					"name": "lpBurned",
					"type": "uint256"
				}
			],
			"name": "LiquidityRemoved",
			"type": "event"
		},
		{
			"anonymous": false,
			"inputs": [
				{
					"indexed": true,
					"internalType": "address",
					"name": "user",
					"type": "address"
				},
				{
					"indexed": false,
					"internalType": "address",
					"name": "inputToken",
					"type": "address"
				},
				{
					"indexed": false,
					"internalType": "uint256",
					"name": "inputAmount",
					"type": "uint256"
				},
				{
					"indexed": false,
					"internalType": "address",
					"name": "outputToken",
					"type": "address"
				},
				{
					"indexed": false,
					"internalType": "uint256",
					"name": "outputAmount",
					"type": "uint256"
				}
			],
			"name": "Swapped",
			"type": "event"
		},
		{
			"inputs": [
				{
					"internalType": "uint256",
					"name": "amountA",
					"type": "uint256"
				},
				{
					"internalType": "uint256",
					"name": "amountB",
					"type": "uint256"
				}
			],
			"name": "addLiquidity",
			"outputs": [],
			"stateMutability": "nonpayable",
			"type": "function"
		},
		{
			"inputs": [
				{
					"internalType": "uint256",
					"name": "inputAmount",
					"type": "uint256"
				},
				{
					"internalType": "address",
					"name": "inputToken",
					"type": "address"
				}
			],
			"name": "getAmountOut",
			"outputs": [
				{
					"internalType": "uint256",
					"name": "outputAmount",
					"type": "uint256"
				}
			],
			"stateMutability": "view",
			"type": "function"
		},
		{
			"inputs": [
				{
					"internalType": "address",
					"name": "user",
					"type": "address"
				}
			],
			"name": "getLPBalance",
			"outputs": [
				{
					"internalType": "uint256",
					"name": "",
					"type": "uint256"
				}
			],
			"stateMutability": "view",
			"type": "function"
		},
		{
			"inputs": [],
			"name": "getReserves",
			"outputs": [
				{
					"internalType": "uint256",
					"name": "",
					"type": "uint256"
				},
				{
					"internalType": "uint256",
					"name": "",
					"type": "uint256"
				}
			],
			"stateMutability": "view",
			"type": "function"
		},
		{
			"inputs": [],
			"name": "getTotalLPSupply",
			"outputs": [
				{
					"internalType": "uint256",
					"name": "",
					"type": "uint256"
				}
			],
			"stateMutability": "view",
			"type": "function"
		},
		{
			"inputs": [
				{
					"internalType": "address",
					"name": "",
					"type": "address"
				}
			],
			"name": "lpBalances",
			"outputs": [
				{
					"internalType": "uint256",
					"name": "",
					"type": "uint256"
				}
			],
			"stateMutability": "view",
			"type": "function"
		},
		{
			"inputs": [
				{
					"internalType": "uint256",
					"name": "lpAmount",
					"type": "uint256"
				}
			],
			"name": "removeLiquidity",
			"outputs": [],
			"stateMutability": "nonpayable",
			"type": "function"
		},
		{
			"inputs": [],
			"name": "reserveA",
			"outputs": [
				{
					"internalType": "uint256",
					"name": "",
					"type": "uint256"
				}
			],
			"stateMutability": "view",
			"type": "function"
		},
		{
			"inputs": [],
			"name": "reserveB",
			"outputs": [
				{
					"internalType": "uint256",
					"name": "",
					"type": "uint256"
				}
			],
			"stateMutability": "view",
			"type": "function"
		},
		{
			"inputs": [
				{
					"internalType": "uint256",
					"name": "inputAmount",
					"type": "uint256"
				},
				{
					"internalType": "address",
					"name": "inputToken",
					"type": "address"
				}
			],
			"name": "swap",
			"outputs": [],
			"stateMutability": "nonpayable",
			"type": "function"
		},
		{
			"inputs": [],
			"name": "tokenA",
			"outputs": [
				{
					"internalType": "address",
					"name": "",
					"type": "address"
				}
			],
			"stateMutability": "view",
			"type": "function"
		},
		{
			"inputs": [],
			"name": "tokenB",
			"outputs": [
				{
					"internalType": "address",
					"name": "",
					"type": "address"
				}
			],
			"stateMutability": "view",
			"type": "function"
		},
		{
			"inputs": [],
			"name": "totalLPSupply",
			"outputs": [
				{
					"internalType": "uint256",
					"name": "",
					"type": "uint256"
				}
			],
			"stateMutability": "view",
			"type": "function"
		}
	]
}