{
	"data": {
		"bytecode": {
			"linkReferences": {},
			"object": "608060405234801561000f575f5ffd5b50335f73ffffffffffffffffffffffffffffffffffffffff168173ffffffffffffffffffffffffffffffffffffffff1603610081575f6040517f1e4fbdf7000000000000000000000000000000000000000000000000000000008152600401610078919061021e565b60405180910390fd5b6100908161011e60201b60201c565b505f5f60146101000a81548160ff021916908360ff1602179055506040518060400160405280601181526020017f4d4f434b2f5241494e46414c4c2f555344000000000000000000000000000000815250600190816100ef9190610474565b50600160025f6101000a81548160ff021916908360ff1602179055504260038190555043600481905550610543565b5f5f5f9054906101000a900473ffffffffffffffffffffffffffffffffffffffff169050815f5f6101000a81548173ffffffffffffffffffffffffffffffffffffffff021916908373ffffffffffffffffffffffffffffffffffffffff1602179055508173ffffffffffffffffffffffffffffffffffffffff168173ffffffffffffffffffffffffffffffffffffffff167f8be0079c531659141344cd1fd0a4f28419497f9722a3daafe3b4186f6b6457e060405160405180910390a35050565b5f73ffffffffffffffffffffffffffffffffffffffff82169050919050565b5f610208826101df565b9050919050565b610218816101fe565b82525050565b5f6020820190506102315f83018461020f565b92915050565b5f81519050919050565b7f4e487b71000000000000000000000000000000000000000000000000000000005f52604160045260245ffd5b7f4e487b71000000000000000000000000000000000000000000000000000000005f52602260045260245ffd5b5f60028204905060018216806102b257607f821691505b6020821081036102c5576102c461026e565b5b50919050565b5f819050815f5260205f209050919050565b5f6020601f8301049050919050565b5f82821b905092915050565b5f600883026103277fffffffffffffffffffffffffffffffffffffffffffffffffffffffffffffffff826102ec565b61033186836102ec565b95508019841693508086168417925050509392505050565b5f819050919050565b5f819050919050565b5f61037561037061036b84610349565b610352565b610349565b9050919050565b5f819050919050565b61038e8361035b565b6103a261039a8261037c565b8484546102f8565b825550505050565b5f5f905090565b6103b96103aa565b6103c4818484610385565b505050565b5b818110156103e7576103dc5f826103b1565b6001810190506103ca565b5050565b601f82111561042c576103fd816102cb565b610406846102dd565b81016020851015610415578190505b610429610421856102dd565b8301826103c9565b50505b505050565b5f82821c905092915050565b5f61044c5f1984600802610431565b1980831691505092915050565b5f610464838361043d565b9150826002028217905092915050565b61047d82610237565b67ffffffffffffffff81111561049657610495610241565b5b6104a0825461029b565b6104ab8282856103eb565b5f60209050601f8311600181146104dc575f84156104ca578287015190505b6104d48582610459565b86555061053b565b601f1984166104ea866102cb565b5f5b82811015610511578489015182556001820191506020850194506020810190506104ec565b8683101561052e578489015161052a601f89168261043d565b8355505b6001600288020188555050505b505050505050565b610a5f806105505f395ff3fe608060405234801561000f575f5ffd5b506004361061009c575f3560e01c80638da5cb5b116100645780638da5cb5b1461010e5780639a6fc8f51461012c578063db8a284f14610160578063f2fde38b1461017e578063feaf968c1461019a5761009c565b8063313ce567146100a057806354fd4d50146100be5780636d2073dd146100dc578063715018a6146100e65780637284e416146100f0575b5f5ffd5b6100a86101bc565b6040516100b591906105af565b60405180910390f35b6100c66101d1565b6040516100d391906105e0565b60405180910390f35b6100e46101d9565b005b6100ee6101e3565b005b6100f86101f6565b6040516101059190610669565b60405180910390f35b610116610286565b60405161012391906106c8565b60405180910390f35b61014660048036038101906101419190610724565b6102ad565b604051610157959493929190610776565b60405180910390f35b6101686102d5565b60405161017591906107c7565b60405180910390f35b6101986004803603810190610193919061080a565b61032c565b005b6101a26103b0565b6040516101b3959493929190610776565b60405180910390f35b5f5f60149054906101000a900460ff16905090565b5f6001905090565b6101e16103fe565b565b6101eb610445565b6101f45f6104cc565b565b60606001805461020590610862565b80601f016020809104026020016040519081016040528092919081815260200182805461023190610862565b801561027c5780601f106102535761010080835404028352916020019161027c565b820191905f5260205f20905b81548152906001019060200180831161025f57829003601f168201915b5050505050905090565b5f5f5f9054906101000a900473ffffffffffffffffffffffffffffffffffffffff16905090565b5f5f5f5f5f856102bb6102d5565b600354600354899450945094509450945091939590929450565b5f5f600454436102e591906108bf565b90505f6103e842418460405160200161030093929190610968565b604051602081830303815290604052805190602001205f1c61032291906109d1565b9050809250505090565b610334610445565b5f73ffffffffffffffffffffffffffffffffffffffff168173ffffffffffffffffffffffffffffffffffffffff16036103a4575f6040517f1e4fbdf700000000000000000000000000000000000000000000000000000000815260040161039b91906106c8565b60405180910390fd5b6103ad816104cc565b50565b5f5f5f5f5f60025f9054906101000a900460ff166103cc6102d5565b60035460035460025f9054906101000a900460ff168460ff1694508060ff169050945094509450945094509091929394565b60025f81819054906101000a900460ff168092919061041c90610a01565b91906101000a81548160ff021916908360ff160217905550504360038190555043600481905550565b61044d61058d565b73ffffffffffffffffffffffffffffffffffffffff1661046b610286565b73ffffffffffffffffffffffffffffffffffffffff16146104ca5761048e61058d565b6040517f118cdaa70000000000000000000000000000000000000000000000000000000081526004016104c191906106c8565b60405180910390fd5b565b5f5f5f9054906101000a900473ffffffffffffffffffffffffffffffffffffffff169050815f5f6101000a81548173ffffffffffffffffffffffffffffffffffffffff021916908373ffffffffffffffffffffffffffffffffffffffff1602179055508173ffffffffffffffffffffffffffffffffffffffff168173ffffffffffffffffffffffffffffffffffffffff167f8be0079c531659141344cd1fd0a4f28419497f9722a3daafe3b4186f6b6457e060405160405180910390a35050565b5f33905090565b5f60ff82169050919050565b6105a981610594565b82525050565b5f6020820190506105c25f8301846105a0565b92915050565b5f819050919050565b6105da816105c8565b82525050565b5f6020820190506105f35f8301846105d1565b92915050565b5f81519050919050565b5f82825260208201905092915050565b8281835e5f83830152505050565b5f601f19601f8301169050919050565b5f61063b826105f9565b6106458185610603565b9350610655818560208601610613565b61065e81610621565b840191505092915050565b5f6020820190508181035f8301526106818184610631565b905092915050565b5f73ffffffffffffffffffffffffffffffffffffffff82169050919050565b5f6106b282610689565b9050919050565b6106c2816106a8565b82525050565b5f6020820190506106db5f8301846106b9565b92915050565b5f5ffd5b5f69ffffffffffffffffffff82169050919050565b610703816106e5565b811461070d575f5ffd5b50565b5f8135905061071e816106fa565b92915050565b5f60208284031215610739576107386106e1565b5b5f61074684828501610710565b91505092915050565b610758816106e5565b82525050565b5f819050919050565b6107708161075e565b82525050565b5f60a0820190506107895f83018861074f565b6107966020830187610767565b6107a360408301866105d1565b6107b060608301856105d1565b6107bd608083018461074f565b9695505050505050565b5f6020820190506107da5f830184610767565b92915050565b6107e9816106a8565b81146107f3575f5ffd5b50565b5f81359050610804816107e0565b92915050565b5f6020828403121561081f5761081e6106e1565b5b5f61082c848285016107f6565b91505092915050565b7f4e487b71000000000000000000000000000000000000000000000000000000005f52602260045260245ffd5b5f600282049050600182168061087957607f821691505b60208210810361088c5761088b610835565b5b50919050565b7f4e487b71000000000000000000000000000000000000000000000000000000005f52601160045260245ffd5b5f6108c9826105c8565b91506108d4836105c8565b92508282039050818111156108ec576108eb610892565b5b92915050565b5f819050919050565b61090c610907826105c8565b6108f2565b82525050565b5f61091c82610689565b9050919050565b5f8160601b9050919050565b5f61093982610923565b9050919050565b5f61094a8261092f565b9050919050565b61096261095d82610912565b610940565b82525050565b5f61097382866108fb565b6020820191506109838285610951565b60148201915061099382846108fb565b602082019150819050949350505050565b7f4e487b71000000000000000000000000000000000000000000000000000000005f52601260045260245ffd5b5f6109db826105c8565b91506109e6836105c8565b9250826109f6576109f56109a4565b5b828206905092915050565b5f610a0b82610594565b915060ff8203610a1e57610a1d610892565b5b60018201905091905056fea2646970667358221220d71293f7fe4e2618085996fdf01335e5f3f18764b0ba4dd738b15bade18757c564736f6c634300081e0033",
			"opcodes": "PUSH1 0x80 PUSH1 0x40 MSTORE CALLVALUE DUP1 ISZERO PUSH2 0xF JUMPI PUSH0 PUSH0 REVERT JUMPDEST POP CALLER PUSH0 PUSH20 0xFFFFFFFFFFFFFFFFFFFFFFFFFFFFFFFFFFFFFFFF AND DUP2 PUSH20 0xFFFFFFFFFFFFFFFFFFFFFFFFFFFFFFFFFFFFFFFF AND SUB PUSH2 0x81 JUMPI PUSH0 PUSH1 0x40 MLOAD PUSH32 0x1E4FBDF700000000000000000000000000000000000000000000000000000000 DUP2 MSTORE PUSH1 0x4 ADD PUSH2 0x78 SWAP2 SWAP1 PUSH2 0x21E JUMP JUMPDEST PUSH1 0x40 MLOAD DUP1 SWAP2 SUB SWAP1 REVERT JUMPDEST PUSH2 0x90 DUP2 PUSH2 0x11E PUSH1 0x20 SHL PUSH1 0x20 SHR JUMP JUMPDEST POP PUSH0 PUSH0 PUSH1 0x14 PUSH2 0x100 EXP DUP2 SLOAD DUP2 PUSH1 0xFF MUL NOT AND SWAP1 DUP4 PUSH1 0xFF AND MUL OR SWAP1 SSTORE POP PUSH1 0x40 MLOAD DUP1 PUSH1 0x40 ADD PUSH1 0x40 MSTORE DUP1 PUSH1 0x11 DUP2 MSTORE PUSH1 0x20 ADD PUSH32 0x4D4F434B2F5241494E46414C4C2F555344000000000000000000000000000000 DUP2 MSTORE POP PUSH1 0x1 SWAP1 DUP2 PUSH2 0xEF SWAP2 SWAP1 PUSH2 0x474 JUMP JUMPDEST POP PUSH1 0x1 PUSH1 0x2 PUSH0 PUSH2 0x100 EXP DUP2 SLOAD DUP2 PUSH1 0xFF MUL NOT AND SWAP1 DUP4 PUSH1 0xFF AND MUL OR SWAP1 SSTORE POP TIMESTAMP PUSH1 0x3 DUP2 SWAP1 SSTORE POP NUMBER PUSH1 0x4 DUP2 SWAP1 SSTORE POP PUSH2 0x543 JUMP JUMPDEST PUSH0 PUSH0 PUSH0 SWAP1 SLOAD SWAP1 PUSH2 0x100 EXP SWAP1 DIV PUSH20 0xFFFFFFFFFFFFFFFFFFFFFFFFFFFFFFFFFFFFFFFF AND SWAP1 POP DUP2 PUSH0 PUSH0 PUSH2 0x100 EXP DUP2 SLOAD DUP2 PUSH20 0xFFFFFFFFFFFFFFFFFFFFFFFFFFFFFFFFFFFFFFFF MUL NOT AND SWAP1 DUP4 PUSH20 0xFFFFFFFFFFFFFFFFFFFFFFFFFFFFFFFFFFFFFFFF AND MUL OR SWAP1 SSTORE POP DUP2 PUSH20 0xFFFFFFFFFFFFFFFFFFFFFFFFFFFFFFFFFFFFFFFF AND DUP2 PUSH20 0xFFFFFFFFFFFFFFFFFFFFFFFFFFFFFFFFFFFFFFFF AND PUSH32 0x8BE0079C531659141344CD1FD0A4F28419497F9722A3DAAFE3B4186F6B6457E0 PUSH1 0x40 MLOAD PUSH1 0x40 MLOAD DUP1 SWAP2 SUB SWAP1 LOG3 POP POP JUMP JUMPDEST PUSH0 PUSH20 0xFFFFFFFFFFFFFFFFFFFFFFFFFFFFFFFFFFFFFFFF DUP3 AND SWAP1 POP SWAP2 SWAP1 POP JUMP JUMPDEST PUSH0 PUSH2 0x208 DUP3 PUSH2 0x1DF JUMP JUMPDEST SWAP1 POP SWAP2 SWAP1 POP JUMP JUMPDEST PUSH2 0x218 DUP2 PUSH2 0x1FE JUMP JUMPDEST DUP3 MSTORE POP POP JUMP JUMPDEST PUSH0 PUSH1 0x20 DUP3 ADD SWAP1 POP PUSH2 0x231 PUSH0 DUP4 ADD DUP5 PUSH2 0x20F JUMP JUMPDEST SWAP3 SWAP2 POP POP JUMP JUMPDEST PUSH0 DUP2 MLOAD SWAP1 POP SWAP2 SWAP1 POP JUMP JUMPDEST PUSH32 0x4E487B7100000000000000000000000000000000000000000000000000000000 PUSH0 MSTORE PUSH1 0x41 PUSH1 0x4 MSTORE PUSH1 0x24 PUSH0 REVERT JUMPDEST PUSH32 0x4E487B7100000000000000000000000000000000000000000000000000000000 PUSH0 MSTORE PUSH1 0x22 PUSH1 0x4 MSTORE PUSH1 0x24 PUSH0 REVERT JUMPDEST PUSH0 PUSH1 0x2 DUP3 DIV SWAP1 POP PUSH1 0x1 DUP3 AND DUP1 PUSH2 0x2B2 JUMPI PUSH1 0x7F DUP3 AND SWAP2 POP JUMPDEST PUSH1 0x20 DUP3 LT DUP2 SUB PUSH2 0x2C5 JUMPI PUSH2 0x2C4 PUSH2 0x26E JUMP JUMPDEST JUMPDEST POP SWAP2 SWAP1 POP JUMP JUMPDEST PUSH0 DUP2 SWAP1 POP DUP2 PUSH0 MSTORE PUSH1 0x20 PUSH0 KECCAK256 SWAP1 POP SWAP2 SWAP1 POP JUMP JUMPDEST PUSH0 PUSH1 0x20 PUSH1 0x1F DUP4 ADD DIV SWAP1 POP SWAP2 SWAP1 POP JUMP JUMPDEST PUSH0 DUP3 DUP3 SHL SWAP1 POP SWAP3 SWAP2 POP POP JUMP JUMPDEST PUSH0 PUSH1 0x8 DUP4 MUL PUSH2 0x327 PUSH32 0xFFFFFFFFFFFFFFFFFFFFFFFFFFFFFFFFFFFFFFFFFFFFFFFFFFFFFFFFFFFFFFFF DUP3 PUSH2 0x2EC JUMP JUMPDEST PUSH2 0x331 DUP7 DUP4 PUSH2 0x2EC JUMP JUMPDEST SWAP6 POP DUP1 NOT DUP5 AND SWAP4 POP DUP1 DUP7 AND DUP5 OR SWAP3 POP POP POP SWAP4 SWAP3 POP POP POP JUMP JUMPDEST PUSH0 DUP2 SWAP1 POP SWAP2 SWAP1 POP JUMP JUMPDEST PUSH0 DUP2 SWAP1 POP SWAP2 SWAP1 POP JUMP JUMPDEST PUSH0 PUSH2 0x375 PUSH2 0x370 PUSH2 0x36B DUP5 PUSH2 0x349 JUMP JUMPDEST PUSH2 0x352 JUMP JUMPDEST PUSH2 0x349 JUMP JUMPDEST SWAP1 POP SWAP2 SWAP1 POP JUMP JUMPDEST PUSH0 DUP2 SWAP1 POP SWAP2 SWAP1 POP JUMP JUMPDEST PUSH2 0x38E DUP4 PUSH2 0x35B JUMP JUMPDEST PUSH2 0x3A2 PUSH2 0x39A DUP3 PUSH2 0x37C JUMP JUMPDEST DUP5 DUP5 SLOAD PUSH2 0x2F8 JUMP JUMPDEST DUP3 SSTORE POP POP POP POP JUMP JUMPDEST PUSH0 PUSH0 SWAP1 POP SWAP1 JUMP JUMPDEST PUSH2 0x3B9 PUSH2 0x3AA JUMP JUMPDEST PUSH2 0x3C4 DUP2 DUP5 DUP5 PUSH2 0x385 JUMP JUMPDEST POP POP POP JUMP JUMPDEST JUMPDEST DUP2 DUP2 LT ISZERO PUSH2 0x3E7 JUMPI PUSH2 0x3DC PUSH0 DUP3 PUSH2 0x3B1 JUMP JUMPDEST PUSH1 0x1 DUP2 ADD SWAP1 POP PUSH2 0x3CA JUMP JUMPDEST POP POP JUMP JUMPDEST PUSH1 0x1F DUP3 GT ISZERO PUSH2 0x42C JUMPI PUSH2 0x3FD DUP2 PUSH2 0x2CB JUMP JUMPDEST PUSH2 0x406 DUP5 PUSH2 0x2DD JUMP JUMPDEST DUP2 ADD PUSH1 0x20 DUP6 LT ISZERO PUSH2 0x415 JUMPI DUP2 SWAP1 POP JUMPDEST PUSH2 0x429 PUSH2 0x421 DUP6 PUSH2 0x2DD JUMP JUMPDEST DUP4 ADD DUP3 PUSH2 0x3C9 JUMP JUMPDEST POP POP JUMPDEST POP POP POP JUMP JUMPDEST PUSH0 DUP3 DUP3 SHR SWAP1 POP SWAP3 SWAP2 POP POP JUMP JUMPDEST PUSH0 PUSH2 0x44C PUSH0 NOT DUP5 PUSH1 0x8 MUL PUSH2 0x431 JUMP JUMPDEST NOT DUP1 DUP4 AND SWAP2 POP POP SWAP3 SWAP2 POP POP JUMP JUMPDEST PUSH0 PUSH2 0x464 DUP4 DUP4 PUSH2 0x43D JUMP JUMPDEST SWAP2 POP DUP3 PUSH1 0x2 MUL DUP3 OR SWAP1 POP SWAP3 SWAP2 POP POP JUMP JUMPDEST PUSH2 0x47D DUP3 PUSH2 0x237 JUMP JUMPDEST PUSH8 0xFFFFFFFFFFFFFFFF DUP2 GT ISZERO PUSH2 0x496 JUMPI PUSH2 0x495 PUSH2 0x241 JUMP JUMPDEST JUMPDEST PUSH2 0x4A0 DUP3 SLOAD PUSH2 0x29B JUMP JUMPDEST PUSH2 0x4AB DUP3 DUP3 DUP6 PUSH2 0x3EB JUMP JUMPDEST PUSH0 PUSH1 0x20 SWAP1 POP PUSH1 0x1F DUP4 GT PUSH1 0x1 DUP2 EQ PUSH2 0x4DC JUMPI PUSH0 DUP5 ISZERO PUSH2 0x4CA JUMPI DUP3 DUP8 ADD MLOAD SWAP1 POP JUMPDEST PUSH2 0x4D4 DUP6 DUP3 PUSH2 0x459 JUMP JUMPDEST DUP7 SSTORE POP PUSH2 0x53B JUMP JUMPDEST PUSH1 0x1F NOT DUP5 AND PUSH2 0x4EA DUP7 PUSH2 0x2CB JUMP JUMPDEST PUSH0 JUMPDEST DUP3 DUP2 LT ISZERO PUSH2 0x511 JUMPI DUP5 DUP10 ADD MLOAD DUP3 SSTORE PUSH1 0x1 DUP3 ADD SWAP2 POP PUSH1 0x20 DUP6 ADD SWAP5 POP PUSH1 0x20 DUP2 ADD SWAP1 POP PUSH2 0x4EC JUMP JUMPDEST DUP7 DUP4 LT ISZERO PUSH2 0x52E JUMPI DUP5 DUP10 ADD MLOAD PUSH2 0x52A PUSH1 0x1F DUP10 AND DUP3 PUSH2 0x43D JUMP JUMPDEST DUP4 SSTORE POP JUMPDEST PUSH1 0x1 PUSH1 0x2 DUP9 MUL ADD DUP9 SSTORE POP POP POP JUMPDEST POP POP POP POP POP POP JUMP JUMPDEST PUSH2 0xA5F DUP1 PUSH2 0x550 PUSH0 CODECOPY PUSH0 RETURN INVALID PUSH1 0x80 PUSH1 0x40 MSTORE CALLVALUE DUP1 ISZERO PUSH2 0xF JUMPI PUSH0 PUSH0 REVERT JUMPDEST POP PUSH1 0x4 CALLDATASIZE LT PUSH2 0x9C JUMPI PUSH0 CALLDATALOAD PUSH1 0xE0 SHR DUP1 PUSH4 0x8DA5CB5B GT PUSH2 0x64 JUMPI DUP1 PUSH4 0x8DA5CB5B EQ PUSH2 0x10E JUMPI DUP1 PUSH4 0x9A6FC8F5 EQ PUSH2 0x12C JUMPI DUP1 PUSH4 0xDB8A284F EQ PUSH2 0x160 JUMPI DUP1 PUSH4 0xF2FDE38B EQ PUSH2 0x17E JUMPI DUP1 PUSH4 0xFEAF968C EQ PUSH2 0x19A JUMPI PUSH2 0x9C JUMP JUMPDEST DUP1 PUSH4 0x313CE567 EQ PUSH2 0xA0 JUMPI DUP1 PUSH4 0x54FD4D50 EQ PUSH2 0xBE JUMPI DUP1 PUSH4 0x6D2073DD EQ PUSH2 0xDC JUMPI DUP1 PUSH4 0x715018A6 EQ PUSH2 0xE6 JUMPI DUP1 PUSH4 0x7284E416 EQ PUSH2 0xF0 JUMPI JUMPDEST PUSH0 PUSH0 REVERT JUMPDEST PUSH2 0xA8 PUSH2 0x1BC JUMP JUMPDEST PUSH1 0x40 MLOAD PUSH2 0xB5 SWAP2 SWAP1 PUSH2 0x5AF JUMP JUMPDEST PUSH1 0x40 MLOAD DUP1 SWAP2 SUB SWAP1 RETURN JUMPDEST PUSH2 0xC6 PUSH2 0x1D1 JUMP JUMPDEST PUSH1 0x40 MLOAD PUSH2 0xD3 SWAP2 SWAP1 PUSH2 0x5E0 JUMP JUMPDEST PUSH1 0x40 MLOAD DUP1 SWAP2 SUB SWAP1 RETURN JUMPDEST PUSH2 0xE4 PUSH2 0x1D9 JUMP JUMPDEST STOP JUMPDEST PUSH2 0xEE PUSH2 0x1E3 JUMP JUMPDEST STOP JUMPDEST PUSH2 0xF8 PUSH2 0x1F6 JUMP JUMPDEST PUSH1 0x40 MLOAD PUSH2 0x105 SWAP2 SWAP1 PUSH2 0x669 JUMP JUMPDEST PUSH1 0x40 MLOAD DUP1 SWAP2 SUB SWAP1 RETURN JUMPDEST PUSH2 0x116 PUSH2 0x286 JUMP JUMPDEST PUSH1 0x40 MLOAD PUSH2 0x123 SWAP2 SWAP1 PUSH2 0x6C8 JUMP JUMPDEST PUSH1 0x40 MLOAD DUP1 SWAP2 SUB SWAP1 RETURN JUMPDEST PUSH2 0x146 PUSH1 0x4 DUP1 CALLDATASIZE SUB DUP2 ADD SWAP1 PUSH2 0x141 SWAP2 SWAP1 PUSH2 0x724 JUMP JUMPDEST PUSH2 0x2AD JUMP JUMPDEST PUSH1 0x40 MLOAD PUSH2 0x157 SWAP6 SWAP5 SWAP4 SWAP3 SWAP2 SWAP1 PUSH2 0x776 JUMP JUMPDEST PUSH1 0x40 MLOAD DUP1 SWAP2 SUB SWAP1 RETURN JUMPDEST PUSH2 0x168 PUSH2 0x2D5 JUMP JUMPDEST PUSH1 0x40 MLOAD PUSH2 0x175 SWAP2 SWAP1 PUSH2 0x7C7 JUMP JUMPDEST PUSH1 0x40 MLOAD DUP1 SWAP2 SUB SWAP1 RETURN JUMPDEST PUSH2 0x198 PUSH1 0x4 DUP1 CALLDATASIZE SUB DUP2 ADD SWAP1 PUSH2 0x193 SWAP2 SWAP1 PUSH2 0x80A JUMP JUMPDEST PUSH2 0x32C JUMP JUMPDEST STOP JUMPDEST PUSH2 0x1A2 PUSH2 0x3B0 JUMP JUMPDEST PUSH1 0x40 MLOAD PUSH2 0x1B3 SWAP6 SWAP5 SWAP4 SWAP3 SWAP2 SWAP1 PUSH2 0x776 JUMP JUMPDEST PUSH1 0x40 MLOAD DUP1 SWAP2 SUB SWAP1 RETURN JUMPDEST PUSH0 PUSH0 PUSH1 0x14 SWAP1 SLOAD SWAP1 PUSH2 0x100 EXP SWAP1 DIV PUSH1 0xFF AND SWAP1 POP SWAP1 JUMP JUMPDEST PUSH0 PUSH1 0x1 SWAP1 POP SWAP1 JUMP JUMPDEST PUSH2 0x1E1 PUSH2 0x3FE JUMP JUMPDEST JUMP JUMPDEST PUSH2 0x1EB PUSH2 0x445 JUMP JUMPDEST PUSH2 0x1F4 PUSH0 PUSH2 0x4CC JUMP JUMPDEST JUMP JUMPDEST PUSH1 0x60 PUSH1 0x1 DUP1 SLOAD PUSH2 0x205 SWAP1 PUSH2 0x862 JUMP JUMPDEST DUP1 PUSH1 0x1F ADD PUSH1 0x20 DUP1 SWAP2 DIV MUL PUSH1 0x20 ADD PUSH1 0x40 MLOAD SWAP1 DUP2 ADD PUSH1 0x40 MSTORE DUP1 SWAP3 SWAP2 SWAP1 DUP2 DUP2 MSTORE PUSH1 0x20 ADD DUP3 DUP1 SLOAD PUSH2 0x231 SWAP1 PUSH2 0x862 JUMP JUMPDEST DUP1 ISZERO PUSH2 0x27C JUMPI DUP1 PUSH1 0x1F LT PUSH2 0x253 JUMPI PUSH2 0x100 DUP1 DUP4 SLOAD DIV MUL DUP4 MSTORE SWAP2 PUSH1 0x20 ADD SWAP2 PUSH2 0x27C JUMP JUMPDEST DUP3 ADD SWAP2 SWAP1 PUSH0 MSTORE PUSH1 0x20 PUSH0 KECCAK256 SWAP1 JUMPDEST DUP2 SLOAD DUP2 MSTORE SWAP1 PUSH1 0x1 ADD SWAP1 PUSH1 0x20 ADD DUP1 DUP4 GT PUSH2 0x25F JUMPI DUP3 SWAP1 SUB PUSH1 0x1F AND DUP3 ADD SWAP2 JUMPDEST POP POP POP POP POP SWAP1 POP SWAP1 JUMP JUMPDEST PUSH0 PUSH0 PUSH0 SWAP1 SLOAD SWAP1 PUSH2 0x100 EXP SWAP1 DIV PUSH20 0xFFFFFFFFFFFFFFFFFFFFFFFFFFFFFFFFFFFFFFFF AND SWAP1 POP SWAP1 JUMP JUMPDEST PUSH0 PUSH0 PUSH0 PUSH0 PUSH0 DUP6 PUSH2 0x2BB PUSH2 0x2D5 JUMP JUMPDEST PUSH1 0x3 SLOAD PUSH1 0x3 SLOAD DUP10 SWAP5 POP SWAP5 POP SWAP5 POP SWAP5 POP SWAP5 POP SWAP2 SWAP4 SWAP6 SWAP1 SWAP3 SWAP5 POP JUMP JUMPDEST PUSH0 PUSH0 PUSH1 0x4 SLOAD NUMBER PUSH2 0x2E5 SWAP2 SWAP1 PUSH2 0x8BF JUMP JUMPDEST SWAP1 POP PUSH0 PUSH2 0x3E8 TIMESTAMP COINBASE DUP5 PUSH1 0x40 MLOAD PUSH1 0x20 ADD PUSH2 0x300 SWAP4 SWAP3 SWAP2 SWAP1 PUSH2 0x968 JUMP JUMPDEST PUSH1 0x40 MLOAD PUSH1 0x20 DUP2 DUP4 SUB SUB DUP2 MSTORE SWAP1 PUSH1 0x40 MSTORE DUP1 MLOAD SWAP1 PUSH1 0x20 ADD KECCAK256 PUSH0 SHR PUSH2 0x322 SWAP2 SWAP1 PUSH2 0x9D1 JUMP JUMPDEST SWAP1 POP DUP1 SWAP3 POP POP POP SWAP1 JUMP JUMPDEST PUSH2 0x334 PUSH2 0x445 JUMP JUMPDEST PUSH0 PUSH20 0xFFFFFFFFFFFFFFFFFFFFFFFFFFFFFFFFFFFFFFFF AND DUP2 PUSH20 0xFFFFFFFFFFFFFFFFFFFFFFFFFFFFFFFFFFFFFFFF AND SUB PUSH2 0x3A4 JUMPI PUSH0 PUSH1 0x40 MLOAD PUSH32 0x1E4FBDF700000000000000000000000000000000000000000000000000000000 DUP2 MSTORE PUSH1 0x4 ADD PUSH2 0x39B SWAP2 SWAP1 PUSH2 0x6C8 JUMP JUMPDEST PUSH1 0x40 MLOAD DUP1 SWAP2 SUB SWAP1 REVERT JUMPDEST PUSH2 0x3AD DUP2 PUSH2 0x4CC JUMP JUMPDEST POP JUMP JUMPDEST PUSH0 PUSH0 PUSH0 PUSH0 PUSH0 PUSH1 0x2 PUSH0 SWAP1 SLOAD SWAP1 PUSH2 0x100 EXP SWAP1 DIV PUSH1 0xFF AND PUSH2 0x3CC PUSH2 0x2D5 JUMP JUMPDEST PUSH1 0x3 SLOAD PUSH1 0x3 SLOAD PUSH1 0x2 PUSH0 SWAP1 SLOAD SWAP1 PUSH2 0x100 EXP SWAP1 DIV PUSH1 0xFF AND DUP5 PUSH1 0xFF AND SWAP5 POP DUP1 PUSH1 0xFF AND SWAP1 POP SWAP5 POP SWAP5 POP SWAP5 POP SWAP5 POP SWAP5 POP SWAP1 SWAP2 SWAP3 SWAP4 SWAP5 JUMP JUMPDEST PUSH1 0x2 PUSH0 DUP2 DUP2 SWAP1 SLOAD SWAP1 PUSH2 0x100 EXP SWAP1 DIV PUSH1 0xFF AND DUP1 SWAP3 SWAP2 SWAP1 PUSH2 0x41C SWAP1 PUSH2 0xA01 JUMP JUMPDEST SWAP2 SWAP1 PUSH2 0x100 EXP DUP2 SLOAD DUP2 PUSH1 0xFF MUL NOT AND SWAP1 DUP4 PUSH1 0xFF AND MUL OR SWAP1 SSTORE POP POP NUMBER PUSH1 0x3 DUP2 SWAP1 SSTORE POP NUMBER PUSH1 0x4 DUP2 SWAP1 SSTORE POP JUMP JUMPDEST PUSH2 0x44D PUSH2 0x58D JUMP JUMPDEST PUSH20 0xFFFFFFFFFFFFFFFFFFFFFFFFFFFFFFFFFFFFFFFF AND PUSH2 0x46B PUSH2 0x286 JUMP JUMPDEST PUSH20 0xFFFFFFFFFFFFFFFFFFFFFFFFFFFFFFFFFFFFFFFF AND EQ PUSH2 0x4CA JUMPI PUSH2 0x48E PUSH2 0x58D JUMP JUMPDEST PUSH1 0x40 MLOAD PUSH32 0x118CDAA700000000000000000000000000000000000000000000000000000000 DUP2 MSTORE PUSH1 0x4 ADD PUSH2 0x4C1 SWAP2 SWAP1 PUSH2 0x6C8 JUMP JUMPDEST PUSH1 0x40 MLOAD DUP1 SWAP2 SUB SWAP1 REVERT JUMPDEST JUMP JUMPDEST PUSH0 PUSH0 PUSH0 SWAP1 SLOAD SWAP1 PUSH2 0x100 EXP SWAP1 DIV PUSH20 0xFFFFFFFFFFFFFFFFFFFFFFFFFFFFFFFFFFFFFFFF AND SWAP1 POP DUP2 PUSH0 PUSH0 PUSH2 0x100 EXP DUP2 SLOAD DUP2 PUSH20 0xFFFFFFFFFFFFFFFFFFFFFFFFFFFFFFFFFFFFFFFF MUL NOT AND SWAP1 DUP4 PUSH20 0xFFFFFFFFFFFFFFFFFFFFFFFFFFFFFFFFFFFFFFFF AND MUL OR SWAP1 SSTORE POP DUP2 PUSH20 0xFFFFFFFFFFFFFFFFFFFFFFFFFFFFFFFFFFFFFFFF AND DUP2 PUSH20 0xFFFFFFFFFFFFFFFFFFFFFFFFFFFFFFFFFFFFFFFF AND PUSH32 0x8BE0079C531659141344CD1FD0A4F28419497F9722A3DAAFE3B4186F6B6457E0 PUSH1 0x40 MLOAD PUSH1 0x40 MLOAD DUP1 SWAP2 SUB SWAP1 LOG3 POP POP JUMP JUMPDEST PUSH0 CALLER SWAP1 POP SWAP1 JUMP JUMPDEST PUSH0 PUSH1 0xFF DUP3 AND SWAP1 POP SWAP2 SWAP1 POP JUMP JUMPDEST PUSH2 0x5A9 DUP2 PUSH2 0x594 JUMP JUMPDEST DUP3 MSTORE POP POP JUMP JUMPDEST PUSH0 PUSH1 0x20 DUP3 ADD SWAP1 POP PUSH2 0x5C2 PUSH0 DUP4 ADD DUP5 PUSH2 0x5A0 JUMP JUMPDEST SWAP3 SWAP2 POP POP JUMP JUMPDEST PUSH0 DUP2 SWAP1 POP SWAP2 SWAP1 POP JUMP JUMPDEST PUSH2 0x5DA DUP2 PUSH2 0x5C8 JUMP JUMPDEST DUP3 MSTORE POP POP JUMP JUMPDEST PUSH0 PUSH1 0x20 DUP3 ADD SWAP1 POP PUSH2 0x5F3 PUSH0 DUP4 ADD DUP5 PUSH2 0x5D1 JUMP JUMPDEST SWAP3 SWAP2 POP POP JUMP JUMPDEST PUSH0 DUP2 MLOAD SWAP1 POP SWAP2 SWAP1 POP JUMP JUMPDEST PUSH0 DUP3 DUP3 MSTORE PUSH1 0x20 DUP3 ADD SWAP1 POP SWAP3 SWAP2 POP POP JUMP JUMPDEST DUP3 DUP2 DUP4 MCOPY PUSH0 DUP4 DUP4 ADD MSTORE POP POP POP JUMP JUMPDEST PUSH0 PUSH1 0x1F NOT PUSH1 0x1F DUP4 ADD AND SWAP1 POP SWAP2 SWAP1 POP JUMP JUMPDEST PUSH0 PUSH2 0x63B DUP3 PUSH2 0x5F9 JUMP JUMPDEST PUSH2 0x645 DUP2 DUP6 PUSH2 0x603 JUMP JUMPDEST SWAP4 POP PUSH2 0x655 DUP2 DUP6 PUSH1 0x20 DUP7 ADD PUSH2 0x613 JUMP JUMPDEST PUSH2 0x65E DUP2 PUSH2 0x621 JUMP JUMPDEST DUP5 ADD SWAP2 POP POP SWAP3 SWAP2 POP POP JUMP JUMPDEST PUSH0 PUSH1 0x20 DUP3 ADD SWAP1 POP DUP2 DUP2 SUB PUSH0 DUP4 ADD MSTORE PUSH2 0x681 DUP2 DUP5 PUSH2 0x631 JUMP JUMPDEST SWAP1 POP SWAP3 SWAP2 POP POP JUMP JUMPDEST PUSH0 PUSH20 0xFFFFFFFFFFFFFFFFFFFFFFFFFFFFFFFFFFFFFFFF DUP3 AND SWAP1 POP SWAP2 SWAP1 POP JUMP JUMPDEST PUSH0 PUSH2 0x6B2 DUP3 PUSH2 0x689 JUMP JUMPDEST SWAP1 POP SWAP2 SWAP1 POP JUMP JUMPDEST PUSH2 0x6C2 DUP2 PUSH2 0x6A8 JUMP JUMPDEST DUP3 MSTORE POP POP JUMP JUMPDEST PUSH0 PUSH1 0x20 DUP3 ADD SWAP1 POP PUSH2 0x6DB PUSH0 DUP4 ADD DUP5 PUSH2 0x6B9 JUMP JUMPDEST SWAP3 SWAP2 POP POP JUMP JUMPDEST PUSH0 PUSH0 REVERT JUMPDEST PUSH0 PUSH10 0xFFFFFFFFFFFFFFFFFFFF DUP3 AND SWAP1 POP SWAP2 SWAP1 POP JUMP JUMPDEST PUSH2 0x703 DUP2 PUSH2 0x6E5 JUMP JUMPDEST DUP2 EQ PUSH2 0x70D JUMPI PUSH0 PUSH0 REVERT JUMPDEST POP JUMP JUMPDEST PUSH0 DUP2 CALLDATALOAD SWAP1 POP PUSH2 0x71E DUP2 PUSH2 0x6FA JUMP JUMPDEST SWAP3 SWAP2 POP POP JUMP JUMPDEST PUSH0 PUSH1 0x20 DUP3 DUP5 SUB SLT ISZERO PUSH2 0x739 JUMPI PUSH2 0x738 PUSH2 0x6E1 JUMP JUMPDEST JUMPDEST PUSH0 PUSH2 0x746 DUP5 DUP3 DUP6 ADD PUSH2 0x710 JUMP JUMPDEST SWAP2 POP POP SWAP3 SWAP2 POP POP JUMP JUMPDEST PUSH2 0x758 DUP2 PUSH2 0x6E5 JUMP JUMPDEST DUP3 MSTORE POP POP JUMP JUMPDEST PUSH0 DUP2 SWAP1 POP SWAP2 SWAP1 POP JUMP JUMPDEST PUSH2 0x770 DUP2 PUSH2 0x75E JUMP JUMPDEST DUP3 MSTORE POP POP JUMP JUMPDEST PUSH0 PUSH1 0xA0 DUP3 ADD SWAP1 POP PUSH2 0x789 PUSH0 DUP4 ADD DUP9 PUSH2 0x74F JUMP JUMPDEST PUSH2 0x796 PUSH1 0x20 DUP4 ADD DUP8 PUSH2 0x767 JUMP JUMPDEST PUSH2 0x7A3 PUSH1 0x40 DUP4 ADD DUP7 PUSH2 0x5D1 JUMP JUMPDEST PUSH2 0x7B0 PUSH1 0x60 DUP4 ADD DUP6 PUSH2 0x5D1 JUMP JUMPDEST PUSH2 0x7BD PUSH1 0x80 DUP4 ADD DUP5 PUSH2 0x74F JUMP JUMPDEST SWAP7 SWAP6 POP POP POP POP POP POP JUMP JUMPDEST PUSH0 PUSH1 0x20 DUP3 ADD SWAP1 POP PUSH2 0x7DA PUSH0 DUP4 ADD DUP5 PUSH2 0x767 JUMP JUMPDEST SWAP3 SWAP2 POP POP JUMP JUMPDEST PUSH2 0x7E9 DUP2 PUSH2 0x6A8 JUMP JUMPDEST DUP2 EQ PUSH2 0x7F3 JUMPI PUSH0 PUSH0 REVERT JUMPDEST POP JUMP JUMPDEST PUSH0 DUP2 CALLDATALOAD SWAP1 POP PUSH2 0x804 DUP2 PUSH2 0x7E0 JUMP JUMPDEST SWAP3 SWAP2 POP POP JUMP JUMPDEST PUSH0 PUSH1 0x20 DUP3 DUP5 SUB SLT ISZERO PUSH2 0x81F JUMPI PUSH2 0x81E PUSH2 0x6E1 JUMP JUMPDEST JUMPDEST PUSH0 PUSH2 0x82C DUP5 DUP3 DUP6 ADD PUSH2 0x7F6 JUMP JUMPDEST SWAP2 POP POP SWAP3 SWAP2 POP POP JUMP JUMPDEST PUSH32 0x4E487B7100000000000000000000000000000000000000000000000000000000 PUSH0 MSTORE PUSH1 0x22 PUSH1 0x4 MSTORE PUSH1 0x24 PUSH0 REVERT JUMPDEST PUSH0 PUSH1 0x2 DUP3 DIV SWAP1 POP PUSH1 0x1 DUP3 AND DUP1 PUSH2 0x879 JUMPI PUSH1 0x7F DUP3 AND SWAP2 POP JUMPDEST PUSH1 0x20 DUP3 LT DUP2 SUB PUSH2 0x88C JUMPI PUSH2 0x88B PUSH2 0x835 JUMP JUMPDEST JUMPDEST POP SWAP2 SWAP1 POP JUMP JUMPDEST PUSH32 0x4E487B7100000000000000000000000000000000000000000000000000000000 PUSH0 MSTORE PUSH1 0x11 PUSH1 0x4 MSTORE PUSH1 0x24 PUSH0 REVERT JUMPDEST PUSH0 PUSH2 0x8C9 DUP3 PUSH2 0x5C8 JUMP JUMPDEST SWAP2 POP PUSH2 0x8D4 DUP4 PUSH2 0x5C8 JUMP JUMPDEST SWAP3 POP DUP3 DUP3 SUB SWAP1 POP DUP2 DUP2 GT ISZERO PUSH2 0x8EC JUMPI PUSH2 0x8EB PUSH2 0x892 JUMP JUMPDEST JUMPDEST SWAP3 SWAP2 POP POP JUMP JUMPDEST PUSH0 DUP2 SWAP1 POP SWAP2 SWAP1 POP JUMP JUMPDEST PUSH2 0x90C PUSH2 0x907 DUP3 PUSH2 0x5C8 JUMP JUMPDEST PUSH2 0x8F2 JUMP JUMPDEST DUP3 MSTORE POP POP JUMP JUMPDEST PUSH0 PUSH2 0x91C DUP3 PUSH2 0x689 JUMP JUMPDEST SWAP1 POP SWAP2 SWAP1 POP JUMP JUMPDEST PUSH0 DUP2 PUSH1 0x60 SHL SWAP1 POP SWAP2 SWAP1 POP JUMP JUMPDEST PUSH0 PUSH2 0x939 DUP3 PUSH2 0x923 JUMP JUMPDEST SWAP1 POP SWAP2 SWAP1 POP JUMP JUMPDEST PUSH0 PUSH2 0x94A DUP3 PUSH2 0x92F JUMP JUMPDEST SWAP1 POP SWAP2 SWAP1 POP JUMP JUMPDEST PUSH2 0x962 PUSH2 0x95D DUP3 PUSH2 0x912 JUMP JUMPDEST PUSH2 0x940 JUMP JUMPDEST DUP3 MSTORE POP POP JUMP JUMPDEST PUSH0 PUSH2 0x973 DUP3 DUP7 PUSH2 0x8FB JUMP JUMPDEST PUSH1 0x20 DUP3 ADD SWAP2 POP PUSH2 0x983 DUP3 DUP6 PUSH2 0x951 JUMP JUMPDEST PUSH1 0x14 DUP3 ADD SWAP2 POP PUSH2 0x993 DUP3 DUP5 PUSH2 0x8FB JUMP JUMPDEST PUSH1 0x20 DUP3 ADD SWAP2 POP DUP2 SWAP1 POP SWAP5 SWAP4 POP POP POP POP JUMP JUMPDEST PUSH32 0x4E487B7100000000000000000000000000000000000000000000000000000000 PUSH0 MSTORE PUSH1 0x12 PUSH1 0x4 MSTORE PUSH1 0x24 PUSH0 REVERT JUMPDEST PUSH0 PUSH2 0x9DB DUP3 PUSH2 0x5C8 JUMP JUMPDEST SWAP2 POP PUSH2 0x9E6 DUP4 PUSH2 0x5C8 JUMP JUMPDEST SWAP3 POP DUP3 PUSH2 0x9F6 JUMPI PUSH2 0x9F5 PUSH2 0x9A4 JUMP JUMPDEST JUMPDEST DUP3 DUP3 MOD SWAP1 POP SWAP3 SWAP2 POP POP JUMP JUMPDEST PUSH0 PUSH2 0xA0B DUP3 PUSH2 0x594 JUMP JUMPDEST SWAP2 POP PUSH1 0xFF DUP3 SUB PUSH2 0xA1E JUMPI PUSH2 0xA1D PUSH2 0x892 JUMP JUMPDEST JUMPDEST PUSH1 0x1 DUP3 ADD SWAP1 POP SWAP2 SWAP1 POP JUMP INVALID LOG2 PUSH5 0x6970667358 0x22 SLT KECCAK256 0xD7 SLT SWAP4 0xF7 INVALID 0x4E 0x26 XOR ADDMOD MSIZE SWAP7 REVERT CREATE SGT CALLDATALOAD JUMPF 0xF3F1 DUP8 PUSH5 0xB0BA4DD738 0xB1 JUMPDEST 0xAD RJUMPI 0x8757 0xC5 PUSH5 0x736F6C6343 STOP ADDMOD 0x1E STOP CALLER "
		},
		"gasEstimates": {
			"creation": {
				"codeDepositCost": "531000",
				"executionCost": "infinite",
				"totalCost": "infinite"
			},
			"external": {
				"_rainfall()": "infinite",
				"decimals()": "2524",
				"description()": "infinite",
				"getRoundData(uint80)": "infinite",
				"latestRoundData()": "infinite",
				"owner()": "2514",
				"renounceOwnership()": "infinite",
				"transferOwnership(address)": "infinite",
				"updateRondomRainfall()": "70990",
				"version()": "355"
			},
			"internal": {
				"_updateRondomRainfall()": "70787"
			}
		},
		"methodIdentifiers": {
			"_rainfall()": "db8a284f",
			"decimals()": "313ce567",
			"description()": "7284e416",
			"getRoundData(uint80)": "9a6fc8f5",
			"latestRoundData()": "feaf968c",
			"owner()": "8da5cb5b",
			"renounceOwnership()": "715018a6",
			"transferOwnership(address)": "f2fde38b",
			"updateRondomRainfall()": "6d2073dd",
			"version()": "54fd4d50"
		}
	},
	"abi": [
		{
			"inputs": [],
			"stateMutability": "nonpayable",
			"type": "constructor"
		},
		{
			"inputs": [
				{
					"internalType": "address",
					"name": "owner",
					"type": "address"
				}
			],
			"name": "OwnableInvalidOwner",
			"type": "error"
		},
		{
			"inputs": [
				{
					"internalType": "address",
					"name": "account",
					"type": "address"
				}
			],
			"name": "OwnableUnauthorizedAccount",
			"type": "error"
		},
		{
			"anonymous": false,
			"inputs": [
				{
					"indexed": true,
					"internalType": "address",
					"name": "previousOwner",
					"type": "address"
				},
				{
					"indexed": true,
					"internalType": "address",
					"name": "newOwner",
					"type": "address"
				}
			],
			"name": "OwnershipTransferred",
			"type": "event"
		},
		{
			"inputs": [],
			"name": "_rainfall",
			"outputs": [
				{
					"internalType": "int256",
					"name": "",
					"type": "int256"
				}
			],
			"stateMutability": "view",
			"type": "function"
		},
		{
			"inputs": [],
			"name": "decimals",
			"outputs": [
				{
					"internalType": "uint8",
					"name": "",
					"type": "uint8"
				}
			],
			"stateMutability": "view",
			"type": "function"
		},
		{
			"inputs": [],
			"name": "description",
			"outputs": [
				{
					"internalType": "string",
					"name": "",
					"type": "string"
				}
			],
			"stateMutability": "view",
			"type": "function"
		},
		{
			"inputs": [
				{
					"internalType": "uint80",
					"name": "_roundId_",
					"type": "uint80"
				}
			],
			"name": "getRoundData",
			"outputs": [
				{
					"internalType": "uint80",
					"name": "roundId",
					"type": "uint80"
				},
				{
					"internalType": "int256",
					"name": "answer",
					"type": "int256"
				},
				{
					"internalType": "uint256",
					"name": "startedAt",
					"type": "uint256"
				},
				{
					"internalType": "uint256",
					"name": "updatedAt",
					"type": "uint256"
				},
				{
					"internalType": "uint80",
					"name": "answeredInRound",
					"type": "uint80"
				}
			],
			"stateMutability": "view",
			"type": "function"
		},
		{
			"inputs": [],
			"name": "latestRoundData",
			"outputs": [
				{
					"internalType": "uint80",
					"name": "roundId",
					"type": "uint80"
				},
				{
					"internalType": "int256",
					"name": "answer",
					"type": "int256"
				},
				{
					"internalType": "uint256",
					"name": "startedAt",
					"type": "uint256"
				},
				{
					"internalType": "uint256",
					"name": "updatedAt",
					"type": "uint256"
				},
				{
					"internalType": "uint80",
					"name": "answeredInRound",
					"type": "uint80"
				}
			],
			"stateMutability": "view",
			"type": "function"
		},
		{
			"inputs": [],
			"name": "owner",
			"outputs": [
				{
					"internalType": "address",
					"name": "",
					"type": "address"
				}
			],
			"stateMutability": "view",
			"type": "function"
		},
		{
			"inputs": [],
			"name": "renounceOwnership",
			"outputs": [],
			"stateMutability": "nonpayable",
			"type": "function"
		},
		{
			"inputs": [
				{
					"internalType": "address",
					"name": "newOwner",
					"type": "address"
				}
			],
			"name": "transferOwnership",
			"outputs": [],
			"stateMutability": "nonpayable",
			"type": "function"
		},
		{
			"inputs": [],
			"name": "updateRondomRainfall",
			"outputs": [],
			"stateMutability": "nonpayable",
			"type": "function"
		},
		{
			"inputs": [],
			"name": "version",
			"outputs": [
				{
					"internalType": "uint256",
					"name": "",
					"type": "uint256"
				}
			],
			"stateMutability": "pure",
			"type": "function"
		}
	]
}