{
	"data": {
		"bytecode": {
			"linkReferences": {},
			"object": "60c06040526096600955348015610014575f5ffd5b50604051613699380380613699833981810160405281019061003691906105d3565b816040518060400160405280601581526020017f53696d706c652055534420537461626c65636f696e00000000000000000000008152506040518060400160405280600481526020017f735553440000000000000000000000000000000000000000000000000000000081525081600390816100b29190610860565b5080600490816100c29190610860565b5050505f73ffffffffffffffffffffffffffffffffffffffff168173ffffffffffffffffffffffffffffffffffffffff1603610135575f6040517f1e4fbdf700000000000000000000000000000000000000000000000000000000815260040161012c919061093e565b60405180910390fd5b6101448161035160201b60201c565b5060016006819055505f73ffffffffffffffffffffffffffffffffffffffff168373ffffffffffffffffffffffffffffffffffffffff16036101b2576040517f28d3d34200000000000000000000000000000000000000000000000000000000815260040160405180910390fd5b5f73ffffffffffffffffffffffffffffffffffffffff168173ffffffffffffffffffffffffffffffffffffffff1603610217576040517fe358806300000000000000000000000000000000000000000000000000000000815260040160405180910390fd5b8273ffffffffffffffffffffffffffffffffffffffff1660808173ffffffffffffffffffffffffffffffffffffffff16815250508273ffffffffffffffffffffffffffffffffffffffff1663313ce5676040518163ffffffff1660e01b8152600401602060405180830381865afa158015610294573d5f5f3e3d5ffd5b505050506040513d601f19601f820116820180604052508101906102b8919061098d565b60ff1660a08160ff16815250508060085f6101000a81548173ffffffffffffffffffffffffffffffffffffffff021916908373ffffffffffffffffffffffffffffffffffffffff1602179055506103175f5f1b8361041460201b60201c565b506103487fd83007455b073bdf2abc6e8b18ce2847f802b368f0ad3a285cbb1773ec2f4c838361041460201b60201c565b505050506109b8565b5f60055f9054906101000a900473ffffffffffffffffffffffffffffffffffffffff1690508160055f6101000a81548173ffffffffffffffffffffffffffffffffffffffff021916908373ffffffffffffffffffffffffffffffffffffffff1602179055508173ffffffffffffffffffffffffffffffffffffffff168173ffffffffffffffffffffffffffffffffffffffff167f8be0079c531659141344cd1fd0a4f28419497f9722a3daafe3b4186f6b6457e060405160405180910390a35050565b5f610425838361050a60201b60201c565b61050057600160075f8581526020019081526020015f205f015f8473ffffffffffffffffffffffffffffffffffffffff1673ffffffffffffffffffffffffffffffffffffffff1681526020019081526020015f205f6101000a81548160ff02191690831515021790555061049d61056e60201b60201c565b73ffffffffffffffffffffffffffffffffffffffff168273ffffffffffffffffffffffffffffffffffffffff16847f2f8788117e7eff1d82e926ec794901d17c78024a50270940304540a733656f0d60405160405180910390a460019050610504565b5f90505b92915050565b5f60075f8481526020019081526020015f205f015f8373ffffffffffffffffffffffffffffffffffffffff1673ffffffffffffffffffffffffffffffffffffffff1681526020019081526020015f205f9054906101000a900460ff16905092915050565b5f33905090565b5f5ffd5b5f73ffffffffffffffffffffffffffffffffffffffff82169050919050565b5f6105a282610579565b9050919050565b6105b281610598565b81146105bc575f5ffd5b50565b5f815190506105cd816105a9565b92915050565b5f5f5f606084860312156105ea576105e9610575565b5b5f6105f7868287016105bf565b9350506020610608868287016105bf565b9250506040610619868287016105bf565b9150509250925092565b5f81519050919050565b7f4e487b71000000000000000000000000000000000000000000000000000000005f52604160045260245ffd5b7f4e487b71000000000000000000000000000000000000000000000000000000005f52602260045260245ffd5b5f600282049050600182168061069e57607f821691505b6020821081036106b1576106b061065a565b5b50919050565b5f819050815f5260205f209050919050565b5f6020601f8301049050919050565b5f82821b905092915050565b5f600883026107137fffffffffffffffffffffffffffffffffffffffffffffffffffffffffffffffff826106d8565b61071d86836106d8565b95508019841693508086168417925050509392505050565b5f819050919050565b5f819050919050565b5f61076161075c61075784610735565b61073e565b610735565b9050919050565b5f819050919050565b61077a83610747565b61078e61078682610768565b8484546106e4565b825550505050565b5f5f905090565b6107a5610796565b6107b0818484610771565b505050565b5b818110156107d3576107c85f8261079d565b6001810190506107b6565b5050565b601f821115610818576107e9816106b7565b6107f2846106c9565b81016020851015610801578190505b61081561080d856106c9565b8301826107b5565b50505b505050565b5f82821c905092915050565b5f6108385f198460080261081d565b1980831691505092915050565b5f6108508383610829565b9150826002028217905092915050565b61086982610623565b67ffffffffffffffff8111156108825761088161062d565b5b61088c8254610687565b6108978282856107d7565b5f60209050601f8311600181146108c8575f84156108b6578287015190505b6108c08582610845565b865550610927565b601f1984166108d6866106b7565b5f5b828110156108fd578489015182556001820191506020850194506020810190506108d8565b8683101561091a5784890151610916601f891682610829565b8355505b6001600288020188555050505b505050505050565b61093881610598565b82525050565b5f6020820190506109515f83018461092f565b92915050565b5f60ff82169050919050565b61096c81610957565b8114610976575f5ffd5b50565b5f8151905061098781610963565b92915050565b5f602082840312156109a2576109a1610575565b5b5f6109af84828501610979565b91505092915050565b60805160a051612c96610a035f395f818161084f01528181610d6401528181610fce015281816111b4015261149701525f8181610dae01528181610eaa01526112070152612c965ff3fe608060405234801561000f575f5ffd5b50600436106101e3575f3560e01c806391d148541161010d578063d547741f116100a0578063e5829d201161006f578063e5829d20146105a5578063eb91d37e146105c1578063ec9c6c30146105df578063f2fde38b146105fd576101e3565b8063d547741f1461051f578063db006a751461053b578063dcaf9c4414610557578063dd62ed3e14610575576101e3565b8063a2fd773d116100dc578063a2fd773d14610483578063a9059cbb146104a1578063b2016bd4146104d1578063ba6af5ab146104ef576101e3565b806391d14854146103fb57806395d89b411461042b578063a0712d6814610449578063a217fddf14610465576101e3565b80632f2ff15d11610185578063715018a611610154578063715018a614610399578063741bef1a146103a357806374626404146103c15780638da5cb5b146103dd576101e3565b80632f2ff15d14610313578063313ce5671461032f57806336568abe1461034d57806370a0823114610369576101e3565b806318160ddd116101c157806318160ddd146102655780631bde17fe1461028357806323b872dd146102b3578063248a9ca3146102e3576101e3565b806301ffc9a7146101e757806306fdde0314610217578063095ea7b314610235575b5f5ffd5b61020160048036038101906101fc91906121f9565b610619565b60405161020e919061223e565b60405180910390f35b61021f610692565b60405161022c91906122c7565b60405180910390f35b61024f600480360381019061024a9190612374565b610722565b60405161025c919061223e565b60405180910390f35b61026d610744565b60405161027a91906123c1565b60405180910390f35b61029d600480360381019061029891906123da565b61074d565b6040516102aa91906123c1565b60405180910390f35b6102cd60048036038101906102c89190612405565b61089e565b6040516102da919061223e565b60405180910390f35b6102fd60048036038101906102f89190612488565b6108cc565b60405161030a91906124c2565b60405180910390f35b61032d600480360381019061032891906124db565b6108e9565b005b61033761090b565b6040516103449190612534565b60405180910390f35b610367600480360381019061036291906124db565b610913565b005b610383600480360381019061037e919061254d565b61098e565b60405161039091906123c1565b60405180910390f35b6103a16109d3565b005b6103ab6109e6565b6040516103b891906125d3565b60405180910390f35b6103db60048036038101906103d6919061254d565b610a0b565b005b6103e5610b15565b6040516103f291906125fb565b60405180910390f35b610415600480360381019061041091906124db565b610b3d565b604051610422919061223e565b60405180910390f35b610433610ba1565b60405161044091906122c7565b60405180910390f35b610463600480360381019061045e91906123da565b610c31565b005b61046d610e5c565b60405161047a91906124c2565b60405180910390f35b61048b610e62565b60405161049891906124c2565b60405180910390f35b6104bb60048036038101906104b69190612374565b610e86565b6040516104c8919061223e565b60405180910390f35b6104d9610ea8565b6040516104e69190612634565b60405180910390f35b610509600480360381019061050491906123da565b610ecc565b60405161051691906123c1565b60405180910390f35b610539600480360381019061053491906124db565b61101d565b005b610555600480360381019061055091906123da565b61103f565b005b61055f6112aa565b60405161056c91906123c1565b60405180910390f35b61058f600480360381019061058a919061264d565b6112b0565b60405161059c91906123c1565b60405180910390f35b6105bf60048036038101906105ba91906123da565b611332565b005b6105c96113b6565b6040516105d691906123c1565b60405180910390f35b6105e7611495565b6040516105f49190612534565b60405180910390f35b6106176004803603810190610612919061254d565b6114b9565b005b5f7f7965db0b000000000000000000000000000000000000000000000000000000007bffffffffffffffffffffffffffffffffffffffffffffffffffffffff1916827bffffffffffffffffffffffffffffffffffffffffffffffffffffffff1916148061068b575061068a8261153d565b5b9050919050565b6060600380546106a1906126b8565b80601f01602080910402602001604051908101604052809291908181526020018280546106cd906126b8565b80156107185780601f106106ef57610100808354040283529160200191610718565b820191905f5260205f20905b8154815290600101906020018083116106fb57829003601f168201915b5050505050905090565b5f5f61072c6115a6565b90506107398185856115ad565b600191505092915050565b5f600254905090565b5f5f820361075d575f9050610899565b5f6107666113b6565b90505f61077161090b565b600a61077d9190612844565b84610788919061288e565b90505f826064610798919061288e565b600954836107a6919061288e565b6107b091906128fc565b90505f60085f9054906101000a900473ffffffffffffffffffffffffffffffffffffffff1673ffffffffffffffffffffffffffffffffffffffff1663313ce5676040518163ffffffff1660e01b8152600401602060405180830381865afa15801561081d573d5f5f3e3d5ffd5b505050506040513d601f19601f820116820180604052508101906108419190612956565b600a61084d9190612844565b7f0000000000000000000000000000000000000000000000000000000000000000600a61087a9190612844565b83610885919061288e565b61088f91906128fc565b9050809450505050505b919050565b5f5f6108a86115a6565b90506108b58582856115bf565b6108c0858585611652565b60019150509392505050565b5f60075f8381526020019081526020015f20600101549050919050565b6108f2826108cc565b6108fb81611742565b6109058383611756565b50505050565b5f6012905090565b61091b6115a6565b73ffffffffffffffffffffffffffffffffffffffff168173ffffffffffffffffffffffffffffffffffffffff161461097f576040517f6697b23200000000000000000000000000000000000000000000000000000000815260040160405180910390fd5b6109898282611840565b505050565b5f5f5f8373ffffffffffffffffffffffffffffffffffffffff1673ffffffffffffffffffffffffffffffffffffffff1681526020019081526020015f20549050919050565b6109db61192a565b6109e45f6119b1565b565b60085f9054906101000a900473ffffffffffffffffffffffffffffffffffffffff1681565b7fd83007455b073bdf2abc6e8b18ce2847f802b368f0ad3a285cbb1773ec2f4c83610a3581611742565b5f73ffffffffffffffffffffffffffffffffffffffff168273ffffffffffffffffffffffffffffffffffffffff1603610a9a576040517fe358806300000000000000000000000000000000000000000000000000000000815260040160405180910390fd5b8160085f6101000a81548173ffffffffffffffffffffffffffffffffffffffff021916908373ffffffffffffffffffffffffffffffffffffffff1602179055507fe5b20b8497e4f3e2435ef9c20e2e26b47497ee13745ce1c681ad6640653119e682604051610b0991906125fb565b60405180910390a15050565b5f60055f9054906101000a900473ffffffffffffffffffffffffffffffffffffffff16905090565b5f60075f8481526020019081526020015f205f015f8373ffffffffffffffffffffffffffffffffffffffff1673ffffffffffffffffffffffffffffffffffffffff1681526020019081526020015f205f9054906101000a900460ff16905092915050565b606060048054610bb0906126b8565b80601f0160208091040260200160405190810160405280929190818152602001828054610bdc906126b8565b8015610c275780601f10610bfe57610100808354040283529160200191610c27565b820191905f5260205f20905b815481529060010190602001808311610c0a57829003601f168201915b5050505050905090565b610c39611a74565b5f8103610c72576040517f7a5f358c00000000000000000000000000000000000000000000000000000000815260040160405180910390fd5b5f610c7b6113b6565b90505f610c8661090b565b600a610c929190612844565b83610c9d919061288e565b90505f826064610cad919061288e565b60095483610cbb919061288e565b610cc591906128fc565b90505f60085f9054906101000a900473ffffffffffffffffffffffffffffffffffffffff1673ffffffffffffffffffffffffffffffffffffffff1663313ce5676040518163ffffffff1660e01b8152600401602060405180830381865afa158015610d32573d5f5f3e3d5ffd5b505050506040513d601f19601f82011682018060405250810190610d569190612956565b600a610d629190612844565b7f0000000000000000000000000000000000000000000000000000000000000000600a610d8f9190612844565b83610d9a919061288e565b610da491906128fc565b9050610df33330837f000000000000000000000000000000000000000000000000000000000000000073ffffffffffffffffffffffffffffffffffffffff16611ac3909392919063ffffffff16565b610dfd3386611b45565b3373ffffffffffffffffffffffffffffffffffffffff167f25b428dfde728ccfaddad7e29e4ac23c24ed7fd1a6e3e3f91894a9a073f5dfff8683604051610e45929190612981565b60405180910390a250505050610e59611bc4565b50565b5f5f1b81565b7fd83007455b073bdf2abc6e8b18ce2847f802b368f0ad3a285cbb1773ec2f4c8381565b5f5f610e906115a6565b9050610e9d818585611652565b600191505092915050565b7f000000000000000000000000000000000000000000000000000000000000000081565b5f5f8203610edc575f9050611018565b5f610ee56113b6565b90505f610ef061090b565b600a610efc9190612844565b84610f07919061288e565b90505f82600954610f18919061288e565b606483610f25919061288e565b610f2f91906128fc565b90505f60085f9054906101000a900473ffffffffffffffffffffffffffffffffffffffff1673ffffffffffffffffffffffffffffffffffffffff1663313ce5676040518163ffffffff1660e01b8152600401602060405180830381865afa158015610f9c573d5f5f3e3d5ffd5b505050506040513d601f19601f82011682018060405250810190610fc09190612956565b600a610fcc9190612844565b7f0000000000000000000000000000000000000000000000000000000000000000600a610ff99190612844565b83611004919061288e565b61100e91906128fc565b9050809450505050505b919050565b611026826108cc565b61102f81611742565b6110398383611840565b50505050565b611047611a74565b5f8103611080576040517f7a5f358c00000000000000000000000000000000000000000000000000000000815260040160405180910390fd5b8061108a3361098e565b10156110c2576040517f30de15db00000000000000000000000000000000000000000000000000000000815260040160405180910390fd5b5f6110cb6113b6565b90505f6110d661090b565b600a6110e29190612844565b836110ed919061288e565b90505f826009546110fe919061288e565b60648361110b919061288e565b61111591906128fc565b90505f60085f9054906101000a900473ffffffffffffffffffffffffffffffffffffffff1673ffffffffffffffffffffffffffffffffffffffff1663313ce5676040518163ffffffff1660e01b8152600401602060405180830381865afa158015611182573d5f5f3e3d5ffd5b505050506040513d601f19601f820116820180604052508101906111a69190612956565b600a6111b29190612844565b7f0000000000000000000000000000000000000000000000000000000000000000600a6111df9190612844565b836111ea919061288e565b6111f491906128fc565b90506112003386611bce565b61124b33827f000000000000000000000000000000000000000000000000000000000000000073ffffffffffffffffffffffffffffffffffffffff16611c4d9092919063ffffffff16565b3373ffffffffffffffffffffffffffffffffffffffff167ff3a670cd3af7d64b488926880889d08a8585a138ff455227af6737339a1ec2628683604051611293929190612981565b60405180910390a2505050506112a7611bc4565b50565b60095481565b5f60015f8473ffffffffffffffffffffffffffffffffffffffff1673ffffffffffffffffffffffffffffffffffffffff1681526020019081526020015f205f8373ffffffffffffffffffffffffffffffffffffffff1673ffffffffffffffffffffffffffffffffffffffff1681526020019081526020015f2054905092915050565b61133a61192a565b6064811015611375576040517f33efa14600000000000000000000000000000000000000000000000000000000815260040160405180910390fd5b806009819055507ffb0ebe8c7316e6a251494c38876d13d9a3a029273fce7964c12aa2ce07869530816040516113ab91906123c1565b60405180910390a150565b5f5f60085f9054906101000a900473ffffffffffffffffffffffffffffffffffffffff1673ffffffffffffffffffffffffffffffffffffffff1663feaf968c6040518163ffffffff1660e01b815260040160a060405180830381865afa158015611422573d5f5f3e3d5ffd5b505050506040513d601f19601f820116820180604052508101906114469190612a2e565b5050509150505f811361148e576040517f08c379a000000000000000000000000000000000000000000000000000000000815260040161148590612aef565b60405180910390fd5b8091505090565b7f000000000000000000000000000000000000000000000000000000000000000081565b6114c161192a565b5f73ffffffffffffffffffffffffffffffffffffffff168173ffffffffffffffffffffffffffffffffffffffff1603611531575f6040517f1e4fbdf700000000000000000000000000000000000000000000000000000000815260040161152891906125fb565b60405180910390fd5b61153a816119b1565b50565b5f7f01ffc9a7000000000000000000000000000000000000000000000000000000007bffffffffffffffffffffffffffffffffffffffffffffffffffffffff1916827bffffffffffffffffffffffffffffffffffffffffffffffffffffffff1916149050919050565b5f33905090565b6115ba8383836001611ccc565b505050565b5f6115ca84846112b0565b90507fffffffffffffffffffffffffffffffffffffffffffffffffffffffffffffffff81101561164c578181101561163d578281836040517ffb8f41b200000000000000000000000000000000000000000000000000000000815260040161163493929190612b0d565b60405180910390fd5b61164b84848484035f611ccc565b5b50505050565b5f73ffffffffffffffffffffffffffffffffffffffff168373ffffffffffffffffffffffffffffffffffffffff16036116c2575f6040517f96c6fd1e0000000000000000000000000000000000000000000000000000000081526004016116b991906125fb565b60405180910390fd5b5f73ffffffffffffffffffffffffffffffffffffffff168273ffffffffffffffffffffffffffffffffffffffff1603611732575f6040517fec442f0500000000000000000000000000000000000000000000000000000000815260040161172991906125fb565b60405180910390fd5b61173d838383611e9b565b505050565b6117538161174e6115a6565b6120b4565b50565b5f6117618383610b3d565b61183657600160075f8581526020019081526020015f205f015f8473ffffffffffffffffffffffffffffffffffffffff1673ffffffffffffffffffffffffffffffffffffffff1681526020019081526020015f205f6101000a81548160ff0219169083151502179055506117d36115a6565b73ffffffffffffffffffffffffffffffffffffffff168273ffffffffffffffffffffffffffffffffffffffff16847f2f8788117e7eff1d82e926ec794901d17c78024a50270940304540a733656f0d60405160405180910390a46001905061183a565b5f90505b92915050565b5f61184b8383610b3d565b15611920575f60075f8581526020019081526020015f205f015f8473ffffffffffffffffffffffffffffffffffffffff1673ffffffffffffffffffffffffffffffffffffffff1681526020019081526020015f205f6101000a81548160ff0219169083151502179055506118bd6115a6565b73ffffffffffffffffffffffffffffffffffffffff168273ffffffffffffffffffffffffffffffffffffffff16847ff6391f5c32d9c69d2a47ea670b442974b53935d1edc7fd64eb21e047a839171b60405160405180910390a460019050611924565b5f90505b92915050565b6119326115a6565b73ffffffffffffffffffffffffffffffffffffffff16611950610b15565b73ffffffffffffffffffffffffffffffffffffffff16146119af576119736115a6565b6040517f118cdaa70000000000000000000000000000000000000000000000000000000081526004016119a691906125fb565b60405180910390fd5b565b5f60055f9054906101000a900473ffffffffffffffffffffffffffffffffffffffff1690508160055f6101000a81548173ffffffffffffffffffffffffffffffffffffffff021916908373ffffffffffffffffffffffffffffffffffffffff1602179055508173ffffffffffffffffffffffffffffffffffffffff168173ffffffffffffffffffffffffffffffffffffffff167f8be0079c531659141344cd1fd0a4f28419497f9722a3daafe3b4186f6b6457e060405160405180910390a35050565b600260065403611ab9576040517f08c379a0000000000000000000000000000000000000000000000000000000008152600401611ab090612b8c565b60405180910390fd5b6002600681905550565b611b3f848573ffffffffffffffffffffffffffffffffffffffff166323b872dd868686604051602401611af893929190612baa565b604051602081830303815290604052915060e01b6020820180517bffffffffffffffffffffffffffffffffffffffffffffffffffffffff8381831617835250505050612105565b50505050565b5f73ffffffffffffffffffffffffffffffffffffffff168273ffffffffffffffffffffffffffffffffffffffff1603611bb5575f6040517fec442f05000000000000000000000000000000000000000000000000000000008152600401611bac91906125fb565b60405180910390fd5b611bc05f8383611e9b565b5050565b6001600681905550565b5f73ffffffffffffffffffffffffffffffffffffffff168273ffffffffffffffffffffffffffffffffffffffff1603611c3e575f6040517f96c6fd1e000000000000000000000000000000000000000000000000000000008152600401611c3591906125fb565b60405180910390fd5b611c49825f83611e9b565b5050565b611cc7838473ffffffffffffffffffffffffffffffffffffffff1663a9059cbb8585604051602401611c80929190612bdf565b604051602081830303815290604052915060e01b6020820180517bffffffffffffffffffffffffffffffffffffffffffffffffffffffff8381831617835250505050612105565b505050565b5f73ffffffffffffffffffffffffffffffffffffffff168473ffffffffffffffffffffffffffffffffffffffff1603611d3c575f6040517fe602df05000000000000000000000000000000000000000000000000000000008152600401611d3391906125fb565b60405180910390fd5b5f73ffffffffffffffffffffffffffffffffffffffff168373ffffffffffffffffffffffffffffffffffffffff1603611dac575f6040517f94280d62000000000000000000000000000000000000000000000000000000008152600401611da391906125fb565b60405180910390fd5b8160015f8673ffffffffffffffffffffffffffffffffffffffff1673ffffffffffffffffffffffffffffffffffffffff1681526020019081526020015f205f8573ffffffffffffffffffffffffffffffffffffffff1673ffffffffffffffffffffffffffffffffffffffff1681526020019081526020015f20819055508015611e95578273ffffffffffffffffffffffffffffffffffffffff168473ffffffffffffffffffffffffffffffffffffffff167f8c5be1e5ebec7d5bd14f71427d1e84f3dd0314c0f7b2291e5b200ac8c7c3b92584604051611e8c91906123c1565b60405180910390a35b50505050565b5f73ffffffffffffffffffffffffffffffffffffffff168373ffffffffffffffffffffffffffffffffffffffff1603611eeb578060025f828254611edf9190612c06565b92505081905550611fb9565b5f5f5f8573ffffffffffffffffffffffffffffffffffffffff1673ffffffffffffffffffffffffffffffffffffffff1681526020019081526020015f2054905081811015611f74578381836040517fe450d38c000000000000000000000000000000000000000000000000000000008152600401611f6b93929190612b0d565b60405180910390fd5b8181035f5f8673ffffffffffffffffffffffffffffffffffffffff1673ffffffffffffffffffffffffffffffffffffffff1681526020019081526020015f2081905550505b5f73ffffffffffffffffffffffffffffffffffffffff168273ffffffffffffffffffffffffffffffffffffffff1603612000578060025f828254039250508190555061204a565b805f5f8473ffffffffffffffffffffffffffffffffffffffff1673ffffffffffffffffffffffffffffffffffffffff1681526020019081526020015f205f82825401925050819055505b8173ffffffffffffffffffffffffffffffffffffffff168373ffffffffffffffffffffffffffffffffffffffff167fddf252ad1be2c89b69c2b068fc378daa952ba7f163c4a11628f55a4df523b3ef836040516120a791906123c1565b60405180910390a3505050565b6120be8282610b3d565b6121015780826040517fe2517d3f0000000000000000000000000000000000000000000000000000000081526004016120f8929190612c39565b60405180910390fd5b5050565b5f5f60205f8451602086015f885af180612124576040513d5f823e3d81fd5b3d92505f519150505f821461213d576001811415612158565b5f8473ffffffffffffffffffffffffffffffffffffffff163b145b1561219a57836040517f5274afe700000000000000000000000000000000000000000000000000000000815260040161219191906125fb565b60405180910390fd5b50505050565b5f5ffd5b5f7fffffffff0000000000000000000000000000000000000000000000000000000082169050919050565b6121d8816121a4565b81146121e2575f5ffd5b50565b5f813590506121f3816121cf565b92915050565b5f6020828403121561220e5761220d6121a0565b5b5f61221b848285016121e5565b91505092915050565b5f8115159050919050565b61223881612224565b82525050565b5f6020820190506122515f83018461222f565b92915050565b5f81519050919050565b5f82825260208201905092915050565b8281835e5f83830152505050565b5f601f19601f8301169050919050565b5f61229982612257565b6122a38185612261565b93506122b3818560208601612271565b6122bc8161227f565b840191505092915050565b5f6020820190508181035f8301526122df818461228f565b905092915050565b5f73ffffffffffffffffffffffffffffffffffffffff82169050919050565b5f612310826122e7565b9050919050565b61232081612306565b811461232a575f5ffd5b50565b5f8135905061233b81612317565b92915050565b5f819050919050565b61235381612341565b811461235d575f5ffd5b50565b5f8135905061236e8161234a565b92915050565b5f5f6040838503121561238a576123896121a0565b5b5f6123978582860161232d565b92505060206123a885828601612360565b9150509250929050565b6123bb81612341565b82525050565b5f6020820190506123d45f8301846123b2565b92915050565b5f602082840312156123ef576123ee6121a0565b5b5f6123fc84828501612360565b91505092915050565b5f5f5f6060848603121561241c5761241b6121a0565b5b5f6124298682870161232d565b935050602061243a8682870161232d565b925050604061244b86828701612360565b9150509250925092565b5f819050919050565b61246781612455565b8114612471575f5ffd5b50565b5f813590506124828161245e565b92915050565b5f6020828403121561249d5761249c6121a0565b5b5f6124aa84828501612474565b91505092915050565b6124bc81612455565b82525050565b5f6020820190506124d55f8301846124b3565b92915050565b5f5f604083850312156124f1576124f06121a0565b5b5f6124fe85828601612474565b925050602061250f8582860161232d565b9150509250929050565b5f60ff82169050919050565b61252e81612519565b82525050565b5f6020820190506125475f830184612525565b92915050565b5f60208284031215612562576125616121a0565b5b5f61256f8482850161232d565b91505092915050565b5f819050919050565b5f61259b612596612591846122e7565b612578565b6122e7565b9050919050565b5f6125ac82612581565b9050919050565b5f6125bd826125a2565b9050919050565b6125cd816125b3565b82525050565b5f6020820190506125e65f8301846125c4565b92915050565b6125f581612306565b82525050565b5f60208201905061260e5f8301846125ec565b92915050565b5f61261e826125a2565b9050919050565b61262e81612614565b82525050565b5f6020820190506126475f830184612625565b92915050565b5f5f60408385031215612663576126626121a0565b5b5f6126708582860161232d565b92505060206126818582860161232d565b9150509250929050565b7f4e487b71000000000000000000000000000000000000000000000000000000005f52602260045260245ffd5b5f60028204905060018216806126cf57607f821691505b6020821081036126e2576126e161268b565b5b50919050565b7f4e487b71000000000000000000000000000000000000000000000000000000005f52601160045260245ffd5b5f8160011c9050919050565b5f5f8291508390505b600185111561276a57808604811115612746576127456126e8565b5b60018516156127555780820291505b808102905061276385612715565b945061272a565b94509492505050565b5f82612782576001905061283d565b8161278f575f905061283d565b81600181146127a557600281146127af576127de565b600191505061283d565b60ff8411156127c1576127c06126e8565b5b8360020a9150848211156127d8576127d76126e8565b5b5061283d565b5060208310610133831016604e8410600b84101617156128135782820a90508381111561280e5761280d6126e8565b5b61283d565b6128208484846001612721565b92509050818404811115612837576128366126e8565b5b81810290505b9392505050565b5f61284e82612341565b915061285983612519565b92506128867fffffffffffffffffffffffffffffffffffffffffffffffffffffffffffffffff8484612773565b905092915050565b5f61289882612341565b91506128a383612341565b92508282026128b181612341565b915082820484148315176128c8576128c76126e8565b5b5092915050565b7f4e487b71000000000000000000000000000000000000000000000000000000005f52601260045260245ffd5b5f61290682612341565b915061291183612341565b925082612921576129206128cf565b5b828204905092915050565b61293581612519565b811461293f575f5ffd5b50565b5f815190506129508161292c565b92915050565b5f6020828403121561296b5761296a6121a0565b5b5f61297884828501612942565b91505092915050565b5f6040820190506129945f8301856123b2565b6129a160208301846123b2565b9392505050565b5f69ffffffffffffffffffff82169050919050565b6129c6816129a8565b81146129d0575f5ffd5b50565b5f815190506129e1816129bd565b92915050565b5f819050919050565b6129f9816129e7565b8114612a03575f5ffd5b50565b5f81519050612a14816129f0565b92915050565b5f81519050612a288161234a565b92915050565b5f5f5f5f5f60a08688031215612a4757612a466121a0565b5b5f612a54888289016129d3565b9550506020612a6588828901612a06565b9450506040612a7688828901612a1a565b9350506060612a8788828901612a1a565b9250506080612a98888289016129d3565b9150509295509295909350565b7f496e76616c6964207072696365206665656420726573706f6e736500000000005f82015250565b5f612ad9601b83612261565b9150612ae482612aa5565b602082019050919050565b5f6020820190508181035f830152612b0681612acd565b9050919050565b5f606082019050612b205f8301866125ec565b612b2d60208301856123b2565b612b3a60408301846123b2565b949350505050565b7f5265656e7472616e637947756172643a207265656e7472616e742063616c6c005f82015250565b5f612b76601f83612261565b9150612b8182612b42565b602082019050919050565b5f6020820190508181035f830152612ba381612b6a565b9050919050565b5f606082019050612bbd5f8301866125ec565b612bca60208301856125ec565b612bd760408301846123b2565b949350505050565b5f604082019050612bf25f8301856125ec565b612bff60208301846123b2565b9392505050565b5f612c1082612341565b9150612c1b83612341565b9250828201905080821115612c3357612c326126e8565b5b92915050565b5f604082019050612c4c5f8301856125ec565b612c5960208301846124b3565b939250505056fea2646970667358221220a2b970e1a8bab334b08b6ba95edcd96c4288e5095455e38d0bc14498e76c543664736f6c634300081e0033",
			"opcodes": "PUSH1 0xC0 PUSH1 0x40 MSTORE PUSH1 0x96 PUSH1 0x9 SSTORE CALLVALUE DUP1 ISZERO PUSH2 0x14 JUMPI PUSH0 PUSH0 REVERT JUMPDEST POP PUSH1 0x40 MLOAD PUSH2 0x3699 CODESIZE SUB DUP1 PUSH2 0x3699 DUP4 CODECOPY DUP2 DUP2 ADD PUSH1 0x40 MSTORE DUP2 ADD SWAP1 PUSH2 0x36 SWAP2 SWAP1 PUSH2 0x5D3 JUMP JUMPDEST DUP2 PUSH1 0x40 MLOAD DUP1 PUSH1 0x40 ADD PUSH1 0x40 MSTORE DUP1 PUSH1 0x15 DUP2 MSTORE PUSH1 0x20 ADD PUSH32 0x53696D706C652055534420537461626C65636F696E0000000000000000000000 DUP2 MSTORE POP PUSH1 0x40 MLOAD DUP1 PUSH1 0x40 ADD PUSH1 0x40 MSTORE DUP1 PUSH1 0x4 DUP2 MSTORE PUSH1 0x20 ADD PUSH32 0x7355534400000000000000000000000000000000000000000000000000000000 DUP2 MSTORE POP DUP2 PUSH1 0x3 SWAP1 DUP2 PUSH2 0xB2 SWAP2 SWAP1 PUSH2 0x860 JUMP JUMPDEST POP DUP1 PUSH1 0x4 SWAP1 DUP2 PUSH2 0xC2 SWAP2 SWAP1 PUSH2 0x860 JUMP JUMPDEST POP POP POP PUSH0 PUSH20 0xFFFFFFFFFFFFFFFFFFFFFFFFFFFFFFFFFFFFFFFF AND DUP2 PUSH20 0xFFFFFFFFFFFFFFFFFFFFFFFFFFFFFFFFFFFFFFFF AND SUB PUSH2 0x135 JUMPI PUSH0 PUSH1 0x40 MLOAD PUSH32 0x1E4FBDF700000000000000000000000000000000000000000000000000000000 DUP2 MSTORE PUSH1 0x4 ADD PUSH2 0x12C SWAP2 SWAP1 PUSH2 0x93E JUMP JUMPDEST PUSH1 0x40 MLOAD DUP1 SWAP2 SUB SWAP1 REVERT JUMPDEST PUSH2 0x144 DUP2 PUSH2 0x351 PUSH1 0x20 SHL PUSH1 0x20 SHR JUMP JUMPDEST POP PUSH1 0x1 PUSH1 0x6 DUP2 SWAP1 SSTORE POP PUSH0 PUSH20 0xFFFFFFFFFFFFFFFFFFFFFFFFFFFFFFFFFFFFFFFF AND DUP4 PUSH20 0xFFFFFFFFFFFFFFFFFFFFFFFFFFFFFFFFFFFFFFFF AND SUB PUSH2 0x1B2 JUMPI PUSH1 0x40 MLOAD PUSH32 0x28D3D34200000000000000000000000000000000000000000000000000000000 DUP2 MSTORE PUSH1 0x4 ADD PUSH1 0x40 MLOAD DUP1 SWAP2 SUB SWAP1 REVERT JUMPDEST PUSH0 PUSH20 0xFFFFFFFFFFFFFFFFFFFFFFFFFFFFFFFFFFFFFFFF AND DUP2 PUSH20 0xFFFFFFFFFFFFFFFFFFFFFFFFFFFFFFFFFFFFFFFF AND SUB PUSH2 0x217 JUMPI PUSH1 0x40 MLOAD PUSH32 0xE358806300000000000000000000000000000000000000000000000000000000 DUP2 MSTORE PUSH1 0x4 ADD PUSH1 0x40 MLOAD DUP1 SWAP2 SUB SWAP1 REVERT JUMPDEST DUP3 PUSH20 0xFFFFFFFFFFFFFFFFFFFFFFFFFFFFFFFFFFFFFFFF AND PUSH1 0x80 DUP2 PUSH20 0xFFFFFFFFFFFFFFFFFFFFFFFFFFFFFFFFFFFFFFFF AND DUP2 MSTORE POP POP DUP3 PUSH20 0xFFFFFFFFFFFFFFFFFFFFFFFFFFFFFFFFFFFFFFFF AND PUSH4 0x313CE567 PUSH1 0x40 MLOAD DUP2 PUSH4 0xFFFFFFFF AND PUSH1 0xE0 SHL DUP2 MSTORE PUSH1 0x4 ADD PUSH1 0x20 PUSH1 0x40 MLOAD DUP1 DUP4 SUB DUP2 DUP7 GAS STATICCALL ISZERO DUP1 ISZERO PUSH2 0x294 JUMPI RETURNDATASIZE PUSH0 PUSH0 RETURNDATACOPY RETURNDATASIZE PUSH0 REVERT JUMPDEST POP POP POP POP PUSH1 0x40 MLOAD RETURNDATASIZE PUSH1 0x1F NOT PUSH1 0x1F DUP3 ADD AND DUP3 ADD DUP1 PUSH1 0x40 MSTORE POP DUP2 ADD SWAP1 PUSH2 0x2B8 SWAP2 SWAP1 PUSH2 0x98D JUMP JUMPDEST PUSH1 0xFF AND PUSH1 0xA0 DUP2 PUSH1 0xFF AND DUP2 MSTORE POP POP DUP1 PUSH1 0x8 PUSH0 PUSH2 0x100 EXP DUP2 SLOAD DUP2 PUSH20 0xFFFFFFFFFFFFFFFFFFFFFFFFFFFFFFFFFFFFFFFF MUL NOT AND SWAP1 DUP4 PUSH20 0xFFFFFFFFFFFFFFFFFFFFFFFFFFFFFFFFFFFFFFFF AND MUL OR SWAP1 SSTORE POP PUSH2 0x317 PUSH0 PUSH0 SHL DUP4 PUSH2 0x414 PUSH1 0x20 SHL PUSH1 0x20 SHR JUMP JUMPDEST POP PUSH2 0x348 PUSH32 0xD83007455B073BDF2ABC6E8B18CE2847F802B368F0AD3A285CBB1773EC2F4C83 DUP4 PUSH2 0x414 PUSH1 0x20 SHL PUSH1 0x20 SHR JUMP JUMPDEST POP POP POP POP PUSH2 0x9B8 JUMP JUMPDEST PUSH0 PUSH1 0x5 PUSH0 SWAP1 SLOAD SWAP1 PUSH2 0x100 EXP SWAP1 DIV PUSH20 0xFFFFFFFFFFFFFFFFFFFFFFFFFFFFFFFFFFFFFFFF AND SWAP1 POP DUP2 PUSH1 0x5 PUSH0 PUSH2 0x100 EXP DUP2 SLOAD DUP2 PUSH20 0xFFFFFFFFFFFFFFFFFFFFFFFFFFFFFFFFFFFFFFFF MUL NOT AND SWAP1 DUP4 PUSH20 0xFFFFFFFFFFFFFFFFFFFFFFFFFFFFFFFFFFFFFFFF AND MUL OR SWAP1 SSTORE POP DUP2 PUSH20 0xFFFFFFFFFFFFFFFFFFFFFFFFFFFFFFFFFFFFFFFF AND DUP2 PUSH20 0xFFFFFFFFFFFFFFFFFFFFFFFFFFFFFFFFFFFFFFFF AND PUSH32 0x8BE0079C531659141344CD1FD0A4F28419497F9722A3DAAFE3B4186F6B6457E0 PUSH1 0x40 MLOAD PUSH1 0x40 MLOAD DUP1 SWAP2 SUB SWAP1 LOG3 POP POP JUMP JUMPDEST PUSH0 PUSH2 0x425 DUP4 DUP4 PUSH2 0x50A PUSH1 0x20 SHL PUSH1 0x20 SHR JUMP JUMPDEST PUSH2 0x500 JUMPI PUSH1 0x1 PUSH1 0x7 PUSH0 DUP6 DUP2 MSTORE PUSH1 0x20 ADD SWAP1 DUP2 MSTORE PUSH1 0x20 ADD PUSH0 KECCAK256 PUSH0 ADD PUSH0 DUP5 PUSH20 0xFFFFFFFFFFFFFFFFFFFFFFFFFFFFFFFFFFFFFFFF AND PUSH20 0xFFFFFFFFFFFFFFFFFFFFFFFFFFFFFFFFFFFFFFFF AND DUP2 MSTORE PUSH1 0x20 ADD SWAP1 DUP2 MSTORE PUSH1 0x20 ADD PUSH0 KECCAK256 PUSH0 PUSH2 0x100 EXP DUP2 SLOAD DUP2 PUSH1 0xFF MUL NOT AND SWAP1 DUP4 ISZERO ISZERO MUL OR SWAP1 SSTORE POP PUSH2 0x49D PUSH2 0x56E PUSH1 0x20 SHL PUSH1 0x20 SHR JUMP JUMPDEST PUSH20 0xFFFFFFFFFFFFFFFFFFFFFFFFFFFFFFFFFFFFFFFF AND DUP3 PUSH20 0xFFFFFFFFFFFFFFFFFFFFFFFFFFFFFFFFFFFFFFFF AND DUP5 PUSH32 0x2F8788117E7EFF1D82E926EC794901D17C78024A50270940304540A733656F0D PUSH1 0x40 MLOAD PUSH1 0x40 MLOAD DUP1 SWAP2 SUB SWAP1 LOG4 PUSH1 0x1 SWAP1 POP PUSH2 0x504 JUMP JUMPDEST PUSH0 SWAP1 POP JUMPDEST SWAP3 SWAP2 POP POP JUMP JUMPDEST PUSH0 PUSH1 0x7 PUSH0 DUP5 DUP2 MSTORE PUSH1 0x20 ADD SWAP1 DUP2 MSTORE PUSH1 0x20 ADD PUSH0 KECCAK256 PUSH0 ADD PUSH0 DUP4 PUSH20 0xFFFFFFFFFFFFFFFFFFFFFFFFFFFFFFFFFFFFFFFF AND PUSH20 0xFFFFFFFFFFFFFFFFFFFFFFFFFFFFFFFFFFFFFFFF AND DUP2 MSTORE PUSH1 0x20 ADD SWAP1 DUP2 MSTORE PUSH1 0x20 ADD PUSH0 KECCAK256 PUSH0 SWAP1 SLOAD SWAP1 PUSH2 0x100 EXP SWAP1 DIV PUSH1 0xFF AND SWAP1 POP SWAP3 SWAP2 POP POP JUMP JUMPDEST PUSH0 CALLER SWAP1 POP SWAP1 JUMP JUMPDEST PUSH0 PUSH0 REVERT JUMPDEST PUSH0 PUSH20 0xFFFFFFFFFFFFFFFFFFFFFFFFFFFFFFFFFFFFFFFF DUP3 AND SWAP1 POP SWAP2 SWAP1 POP JUMP JUMPDEST PUSH0 PUSH2 0x5A2 DUP3 PUSH2 0x579 JUMP JUMPDEST SWAP1 POP SWAP2 SWAP1 POP JUMP JUMPDEST PUSH2 0x5B2 DUP2 PUSH2 0x598 JUMP JUMPDEST DUP2 EQ PUSH2 0x5BC JUMPI PUSH0 PUSH0 REVERT JUMPDEST POP JUMP JUMPDEST PUSH0 DUP2 MLOAD SWAP1 POP PUSH2 0x5CD DUP2 PUSH2 0x5A9 JUMP JUMPDEST SWAP3 SWAP2 POP POP JUMP JUMPDEST PUSH0 PUSH0 PUSH0 PUSH1 0x60 DUP5 DUP7 SUB SLT ISZERO PUSH2 0x5EA JUMPI PUSH2 0x5E9 PUSH2 0x575 JUMP JUMPDEST JUMPDEST PUSH0 PUSH2 0x5F7 DUP7 DUP3 DUP8 ADD PUSH2 0x5BF JUMP JUMPDEST SWAP4 POP POP PUSH1 0x20 PUSH2 0x608 DUP7 DUP3 DUP8 ADD PUSH2 0x5BF JUMP JUMPDEST SWAP3 POP POP PUSH1 0x40 PUSH2 0x619 DUP7 DUP3 DUP8 ADD PUSH2 0x5BF JUMP JUMPDEST SWAP2 POP POP SWAP3 POP SWAP3 POP SWAP3 JUMP JUMPDEST PUSH0 DUP2 MLOAD SWAP1 POP SWAP2 SWAP1 POP JUMP JUMPDEST PUSH32 0x4E487B7100000000000000000000000000000000000000000000000000000000 PUSH0 MSTORE PUSH1 0x41 PUSH1 0x4 MSTORE PUSH1 0x24 PUSH0 REVERT JUMPDEST PUSH32 0x4E487B7100000000000000000000000000000000000000000000000000000000 PUSH0 MSTORE PUSH1 0x22 PUSH1 0x4 MSTORE PUSH1 0x24 PUSH0 REVERT JUMPDEST PUSH0 PUSH1 0x2 DUP3 DIV SWAP1 POP PUSH1 0x1 DUP3 AND DUP1 PUSH2 0x69E JUMPI PUSH1 0x7F DUP3 AND SWAP2 POP JUMPDEST PUSH1 0x20 DUP3 LT DUP2 SUB PUSH2 0x6B1 JUMPI PUSH2 0x6B0 PUSH2 0x65A JUMP JUMPDEST JUMPDEST POP SWAP2 SWAP1 POP JUMP JUMPDEST PUSH0 DUP2 SWAP1 POP DUP2 PUSH0 MSTORE PUSH1 0x20 PUSH0 KECCAK256 SWAP1 POP SWAP2 SWAP1 POP JUMP JUMPDEST PUSH0 PUSH1 0x20 PUSH1 0x1F DUP4 ADD DIV SWAP1 POP SWAP2 SWAP1 POP JUMP JUMPDEST PUSH0 DUP3 DUP3 SHL SWAP1 POP SWAP3 SWAP2 POP POP JUMP JUMPDEST PUSH0 PUSH1 0x8 DUP4 MUL PUSH2 0x713 PUSH32 0xFFFFFFFFFFFFFFFFFFFFFFFFFFFFFFFFFFFFFFFFFFFFFFFFFFFFFFFFFFFFFFFF DUP3 PUSH2 0x6D8 JUMP JUMPDEST PUSH2 0x71D DUP7 DUP4 PUSH2 0x6D8 JUMP JUMPDEST SWAP6 POP DUP1 NOT DUP5 AND SWAP4 POP DUP1 DUP7 AND DUP5 OR SWAP3 POP POP POP SWAP4 SWAP3 POP POP POP JUMP JUMPDEST PUSH0 DUP2 SWAP1 POP SWAP2 SWAP1 POP JUMP JUMPDEST PUSH0 DUP2 SWAP1 POP SWAP2 SWAP1 POP JUMP JUMPDEST PUSH0 PUSH2 0x761 PUSH2 0x75C PUSH2 0x757 DUP5 PUSH2 0x735 JUMP JUMPDEST PUSH2 0x73E JUMP JUMPDEST PUSH2 0x735 JUMP JUMPDEST SWAP1 POP SWAP2 SWAP1 POP JUMP JUMPDEST PUSH0 DUP2 SWAP1 POP SWAP2 SWAP1 POP JUMP JUMPDEST PUSH2 0x77A DUP4 PUSH2 0x747 JUMP JUMPDEST PUSH2 0x78E PUSH2 0x786 DUP3 PUSH2 0x768 JUMP JUMPDEST DUP5 DUP5 SLOAD PUSH2 0x6E4 JUMP JUMPDEST DUP3 SSTORE POP POP POP POP JUMP JUMPDEST PUSH0 PUSH0 SWAP1 POP SWAP1 JUMP JUMPDEST PUSH2 0x7A5 PUSH2 0x796 JUMP JUMPDEST PUSH2 0x7B0 DUP2 DUP5 DUP5 PUSH2 0x771 JUMP JUMPDEST POP POP POP JUMP JUMPDEST JUMPDEST DUP2 DUP2 LT ISZERO PUSH2 0x7D3 JUMPI PUSH2 0x7C8 PUSH0 DUP3 PUSH2 0x79D JUMP JUMPDEST PUSH1 0x1 DUP2 ADD SWAP1 POP PUSH2 0x7B6 JUMP JUMPDEST POP POP JUMP JUMPDEST PUSH1 0x1F DUP3 GT ISZERO PUSH2 0x818 JUMPI PUSH2 0x7E9 DUP2 PUSH2 0x6B7 JUMP JUMPDEST PUSH2 0x7F2 DUP5 PUSH2 0x6C9 JUMP JUMPDEST DUP2 ADD PUSH1 0x20 DUP6 LT ISZERO PUSH2 0x801 JUMPI DUP2 SWAP1 POP JUMPDEST PUSH2 0x815 PUSH2 0x80D DUP6 PUSH2 0x6C9 JUMP JUMPDEST DUP4 ADD DUP3 PUSH2 0x7B5 JUMP JUMPDEST POP POP JUMPDEST POP POP POP JUMP JUMPDEST PUSH0 DUP3 DUP3 SHR SWAP1 POP SWAP3 SWAP2 POP POP JUMP JUMPDEST PUSH0 PUSH2 0x838 PUSH0 NOT DUP5 PUSH1 0x8 MUL PUSH2 0x81D JUMP JUMPDEST NOT DUP1 DUP4 AND SWAP2 POP POP SWAP3 SWAP2 POP POP JUMP JUMPDEST PUSH0 PUSH2 0x850 DUP4 DUP4 PUSH2 0x829 JUMP JUMPDEST SWAP2 POP DUP3 PUSH1 0x2 MUL DUP3 OR SWAP1 POP SWAP3 SWAP2 POP POP JUMP JUMPDEST PUSH2 0x869 DUP3 PUSH2 0x623 JUMP JUMPDEST PUSH8 0xFFFFFFFFFFFFFFFF DUP2 GT ISZERO PUSH2 0x882 JUMPI PUSH2 0x881 PUSH2 0x62D JUMP JUMPDEST JUMPDEST PUSH2 0x88C DUP3 SLOAD PUSH2 0x687 JUMP JUMPDEST PUSH2 0x897 DUP3 DUP3 DUP6 PUSH2 0x7D7 JUMP JUMPDEST PUSH0 PUSH1 0x20 SWAP1 POP PUSH1 0x1F DUP4 GT PUSH1 0x1 DUP2 EQ PUSH2 0x8C8 JUMPI PUSH0 DUP5 ISZERO PUSH2 0x8B6 JUMPI DUP3 DUP8 ADD MLOAD SWAP1 POP JUMPDEST PUSH2 0x8C0 DUP6 DUP3 PUSH2 0x845 JUMP JUMPDEST DUP7 SSTORE POP PUSH2 0x927 JUMP JUMPDEST PUSH1 0x1F NOT DUP5 AND PUSH2 0x8D6 DUP7 PUSH2 0x6B7 JUMP JUMPDEST PUSH0 JUMPDEST DUP3 DUP2 LT ISZERO PUSH2 0x8FD JUMPI DUP5 DUP10 ADD MLOAD DUP3 SSTORE PUSH1 0x1 DUP3 ADD SWAP2 POP PUSH1 0x20 DUP6 ADD SWAP5 POP PUSH1 0x20 DUP2 ADD SWAP1 POP PUSH2 0x8D8 JUMP JUMPDEST DUP7 DUP4 LT ISZERO PUSH2 0x91A JUMPI DUP5 DUP10 ADD MLOAD PUSH2 0x916 PUSH1 0x1F DUP10 AND DUP3 PUSH2 0x829 JUMP JUMPDEST DUP4 SSTORE POP JUMPDEST PUSH1 0x1 PUSH1 0x2 DUP9 MUL ADD DUP9 SSTORE POP POP POP JUMPDEST POP POP POP POP POP POP JUMP JUMPDEST PUSH2 0x938 DUP2 PUSH2 0x598 JUMP JUMPDEST DUP3 MSTORE POP POP JUMP JUMPDEST PUSH0 PUSH1 0x20 DUP3 ADD SWAP1 POP PUSH2 0x951 PUSH0 DUP4 ADD DUP5 PUSH2 0x92F JUMP JUMPDEST SWAP3 SWAP2 POP POP JUMP JUMPDEST PUSH0 PUSH1 0xFF DUP3 AND SWAP1 POP SWAP2 SWAP1 POP JUMP JUMPDEST PUSH2 0x96C DUP2 PUSH2 0x957 JUMP JUMPDEST DUP2 EQ PUSH2 0x976 JUMPI PUSH0 PUSH0 REVERT JUMPDEST POP JUMP JUMPDEST PUSH0 DUP2 MLOAD SWAP1 POP PUSH2 0x987 DUP2 PUSH2 0x963 JUMP JUMPDEST SWAP3 SWAP2 POP POP JUMP JUMPDEST PUSH0 PUSH1 0x20 DUP3 DUP5 SUB SLT ISZERO PUSH2 0x9A2 JUMPI PUSH2 0x9A1 PUSH2 0x575 JUMP JUMPDEST JUMPDEST PUSH0 PUSH2 0x9AF DUP5 DUP3 DUP6 ADD PUSH2 0x979 JUMP JUMPDEST SWAP2 POP POP SWAP3 SWAP2 POP POP JUMP JUMPDEST PUSH1 0x80 MLOAD PUSH1 0xA0 MLOAD PUSH2 0x2C96 PUSH2 0xA03 PUSH0 CODECOPY PUSH0 DUP2 DUP2 PUSH2 0x84F ADD MSTORE DUP2 DUP2 PUSH2 0xD64 ADD MSTORE DUP2 DUP2 PUSH2 0xFCE ADD MSTORE DUP2 DUP2 PUSH2 0x11B4 ADD MSTORE PUSH2 0x1497 ADD MSTORE PUSH0 DUP2 DUP2 PUSH2 0xDAE ADD MSTORE DUP2 DUP2 PUSH2 0xEAA ADD MSTORE PUSH2 0x1207 ADD MSTORE PUSH2 0x2C96 PUSH0 RETURN INVALID PUSH1 0x80 PUSH1 0x40 MSTORE CALLVALUE DUP1 ISZERO PUSH2 0xF JUMPI PUSH0 PUSH0 REVERT JUMPDEST POP PUSH1 0x4 CALLDATASIZE LT PUSH2 0x1E3 JUMPI PUSH0 CALLDATALOAD PUSH1 0xE0 SHR DUP1 PUSH4 0x91D14854 GT PUSH2 0x10D JUMPI DUP1 PUSH4 0xD547741F GT PUSH2 0xA0 JUMPI DUP1 PUSH4 0xE5829D20 GT PUSH2 0x6F JUMPI DUP1 PUSH4 0xE5829D20 EQ PUSH2 0x5A5 JUMPI DUP1 PUSH4 0xEB91D37E EQ PUSH2 0x5C1 JUMPI DUP1 PUSH4 0xEC9C6C30 EQ PUSH2 0x5DF JUMPI DUP1 PUSH4 0xF2FDE38B EQ PUSH2 0x5FD JUMPI PUSH2 0x1E3 JUMP JUMPDEST DUP1 PUSH4 0xD547741F EQ PUSH2 0x51F JUMPI DUP1 PUSH4 0xDB006A75 EQ PUSH2 0x53B JUMPI DUP1 PUSH4 0xDCAF9C44 EQ PUSH2 0x557 JUMPI DUP1 PUSH4 0xDD62ED3E EQ PUSH2 0x575 JUMPI PUSH2 0x1E3 JUMP JUMPDEST DUP1 PUSH4 0xA2FD773D GT PUSH2 0xDC JUMPI DUP1 PUSH4 0xA2FD773D EQ PUSH2 0x483 JUMPI DUP1 PUSH4 0xA9059CBB EQ PUSH2 0x4A1 JUMPI DUP1 PUSH4 0xB2016BD4 EQ PUSH2 0x4D1 JUMPI DUP1 PUSH4 0xBA6AF5AB EQ PUSH2 0x4EF JUMPI PUSH2 0x1E3 JUMP JUMPDEST DUP1 PUSH4 0x91D14854 EQ PUSH2 0x3FB JUMPI DUP1 PUSH4 0x95D89B41 EQ PUSH2 0x42B JUMPI DUP1 PUSH4 0xA0712D68 EQ PUSH2 0x449 JUMPI DUP1 PUSH4 0xA217FDDF EQ PUSH2 0x465 JUMPI PUSH2 0x1E3 JUMP JUMPDEST DUP1 PUSH4 0x2F2FF15D GT PUSH2 0x185 JUMPI DUP1 PUSH4 0x715018A6 GT PUSH2 0x154 JUMPI DUP1 PUSH4 0x715018A6 EQ PUSH2 0x399 JUMPI DUP1 PUSH4 0x741BEF1A EQ PUSH2 0x3A3 JUMPI DUP1 PUSH4 0x74626404 EQ PUSH2 0x3C1 JUMPI DUP1 PUSH4 0x8DA5CB5B EQ PUSH2 0x3DD JUMPI PUSH2 0x1E3 JUMP JUMPDEST DUP1 PUSH4 0x2F2FF15D EQ PUSH2 0x313 JUMPI DUP1 PUSH4 0x313CE567 EQ PUSH2 0x32F JUMPI DUP1 PUSH4 0x36568ABE EQ PUSH2 0x34D JUMPI DUP1 PUSH4 0x70A08231 EQ PUSH2 0x369 JUMPI PUSH2 0x1E3 JUMP JUMPDEST DUP1 PUSH4 0x18160DDD GT PUSH2 0x1C1 JUMPI DUP1 PUSH4 0x18160DDD EQ PUSH2 0x265 JUMPI DUP1 PUSH4 0x1BDE17FE EQ PUSH2 0x283 JUMPI DUP1 PUSH4 0x23B872DD EQ PUSH2 0x2B3 JUMPI DUP1 PUSH4 0x248A9CA3 EQ PUSH2 0x2E3 JUMPI PUSH2 0x1E3 JUMP JUMPDEST DUP1 PUSH4 0x1FFC9A7 EQ PUSH2 0x1E7 JUMPI DUP1 PUSH4 0x6FDDE03 EQ PUSH2 0x217 JUMPI DUP1 PUSH4 0x95EA7B3 EQ PUSH2 0x235 JUMPI JUMPDEST PUSH0 PUSH0 REVERT JUMPDEST PUSH2 0x201 PUSH1 0x4 DUP1 CALLDATASIZE SUB DUP2 ADD SWAP1 PUSH2 0x1FC SWAP2 SWAP1 PUSH2 0x21F9 JUMP JUMPDEST PUSH2 0x619 JUMP JUMPDEST PUSH1 0x40 MLOAD PUSH2 0x20E SWAP2 SWAP1 PUSH2 0x223E JUMP JUMPDEST PUSH1 0x40 MLOAD DUP1 SWAP2 SUB SWAP1 RETURN JUMPDEST PUSH2 0x21F PUSH2 0x692 JUMP JUMPDEST PUSH1 0x40 MLOAD PUSH2 0x22C SWAP2 SWAP1 PUSH2 0x22C7 JUMP JUMPDEST PUSH1 0x40 MLOAD DUP1 SWAP2 SUB SWAP1 RETURN JUMPDEST PUSH2 0x24F PUSH1 0x4 DUP1 CALLDATASIZE SUB DUP2 ADD SWAP1 PUSH2 0x24A SWAP2 SWAP1 PUSH2 0x2374 JUMP JUMPDEST PUSH2 0x722 JUMP JUMPDEST PUSH1 0x40 MLOAD PUSH2 0x25C SWAP2 SWAP1 PUSH2 0x223E JUMP JUMPDEST PUSH1 0x40 MLOAD DUP1 SWAP2 SUB SWAP1 RETURN JUMPDEST PUSH2 0x26D PUSH2 0x744 JUMP JUMPDEST PUSH1 0x40 MLOAD PUSH2 0x27A SWAP2 SWAP1 PUSH2 0x23C1 JUMP JUMPDEST PUSH1 0x40 MLOAD DUP1 SWAP2 SUB SWAP1 RETURN JUMPDEST PUSH2 0x29D PUSH1 0x4 DUP1 CALLDATASIZE SUB DUP2 ADD SWAP1 PUSH2 0x298 SWAP2 SWAP1 PUSH2 0x23DA JUMP JUMPDEST PUSH2 0x74D JUMP JUMPDEST PUSH1 0x40 MLOAD PUSH2 0x2AA SWAP2 SWAP1 PUSH2 0x23C1 JUMP JUMPDEST PUSH1 0x40 MLOAD DUP1 SWAP2 SUB SWAP1 RETURN JUMPDEST PUSH2 0x2CD PUSH1 0x4 DUP1 CALLDATASIZE SUB DUP2 ADD SWAP1 PUSH2 0x2C8 SWAP2 SWAP1 PUSH2 0x2405 JUMP JUMPDEST PUSH2 0x89E JUMP JUMPDEST PUSH1 0x40 MLOAD PUSH2 0x2DA SWAP2 SWAP1 PUSH2 0x223E JUMP JUMPDEST PUSH1 0x40 MLOAD DUP1 SWAP2 SUB SWAP1 RETURN JUMPDEST PUSH2 0x2FD PUSH1 0x4 DUP1 CALLDATASIZE SUB DUP2 ADD SWAP1 PUSH2 0x2F8 SWAP2 SWAP1 PUSH2 0x2488 JUMP JUMPDEST PUSH2 0x8CC JUMP JUMPDEST PUSH1 0x40 MLOAD PUSH2 0x30A SWAP2 SWAP1 PUSH2 0x24C2 JUMP JUMPDEST PUSH1 0x40 MLOAD DUP1 SWAP2 SUB SWAP1 RETURN JUMPDEST PUSH2 0x32D PUSH1 0x4 DUP1 CALLDATASIZE SUB DUP2 ADD SWAP1 PUSH2 0x328 SWAP2 SWAP1 PUSH2 0x24DB JUMP JUMPDEST PUSH2 0x8E9 JUMP JUMPDEST STOP JUMPDEST PUSH2 0x337 PUSH2 0x90B JUMP JUMPDEST PUSH1 0x40 MLOAD PUSH2 0x344 SWAP2 SWAP1 PUSH2 0x2534 JUMP JUMPDEST PUSH1 0x40 MLOAD DUP1 SWAP2 SUB SWAP1 RETURN JUMPDEST PUSH2 0x367 PUSH1 0x4 DUP1 CALLDATASIZE SUB DUP2 ADD SWAP1 PUSH2 0x362 SWAP2 SWAP1 PUSH2 0x24DB JUMP JUMPDEST PUSH2 0x913 JUMP JUMPDEST STOP JUMPDEST PUSH2 0x383 PUSH1 0x4 DUP1 CALLDATASIZE SUB DUP2 ADD SWAP1 PUSH2 0x37E SWAP2 SWAP1 PUSH2 0x254D JUMP JUMPDEST PUSH2 0x98E JUMP JUMPDEST PUSH1 0x40 MLOAD PUSH2 0x390 SWAP2 SWAP1 PUSH2 0x23C1 JUMP JUMPDEST PUSH1 0x40 MLOAD DUP1 SWAP2 SUB SWAP1 RETURN JUMPDEST PUSH2 0x3A1 PUSH2 0x9D3 JUMP JUMPDEST STOP JUMPDEST PUSH2 0x3AB PUSH2 0x9E6 JUMP JUMPDEST PUSH1 0x40 MLOAD PUSH2 0x3B8 SWAP2 SWAP1 PUSH2 0x25D3 JUMP JUMPDEST PUSH1 0x40 MLOAD DUP1 SWAP2 SUB SWAP1 RETURN JUMPDEST PUSH2 0x3DB PUSH1 0x4 DUP1 CALLDATASIZE SUB DUP2 ADD SWAP1 PUSH2 0x3D6 SWAP2 SWAP1 PUSH2 0x254D JUMP JUMPDEST PUSH2 0xA0B JUMP JUMPDEST STOP JUMPDEST PUSH2 0x3E5 PUSH2 0xB15 JUMP JUMPDEST PUSH1 0x40 MLOAD PUSH2 0x3F2 SWAP2 SWAP1 PUSH2 0x25FB JUMP JUMPDEST PUSH1 0x40 MLOAD DUP1 SWAP2 SUB SWAP1 RETURN JUMPDEST PUSH2 0x415 PUSH1 0x4 DUP1 CALLDATASIZE SUB DUP2 ADD SWAP1 PUSH2 0x410 SWAP2 SWAP1 PUSH2 0x24DB JUMP JUMPDEST PUSH2 0xB3D JUMP JUMPDEST PUSH1 0x40 MLOAD PUSH2 0x422 SWAP2 SWAP1 PUSH2 0x223E JUMP JUMPDEST PUSH1 0x40 MLOAD DUP1 SWAP2 SUB SWAP1 RETURN JUMPDEST PUSH2 0x433 PUSH2 0xBA1 JUMP JUMPDEST PUSH1 0x40 MLOAD PUSH2 0x440 SWAP2 SWAP1 PUSH2 0x22C7 JUMP JUMPDEST PUSH1 0x40 MLOAD DUP1 SWAP2 SUB SWAP1 RETURN JUMPDEST PUSH2 0x463 PUSH1 0x4 DUP1 CALLDATASIZE SUB DUP2 ADD SWAP1 PUSH2 0x45E SWAP2 SWAP1 PUSH2 0x23DA JUMP JUMPDEST PUSH2 0xC31 JUMP JUMPDEST STOP JUMPDEST PUSH2 0x46D PUSH2 0xE5C JUMP JUMPDEST PUSH1 0x40 MLOAD PUSH2 0x47A SWAP2 SWAP1 PUSH2 0x24C2 JUMP JUMPDEST PUSH1 0x40 MLOAD DUP1 SWAP2 SUB SWAP1 RETURN JUMPDEST PUSH2 0x48B PUSH2 0xE62 JUMP JUMPDEST PUSH1 0x40 MLOAD PUSH2 0x498 SWAP2 SWAP1 PUSH2 0x24C2 JUMP JUMPDEST PUSH1 0x40 MLOAD DUP1 SWAP2 SUB SWAP1 RETURN JUMPDEST PUSH2 0x4BB PUSH1 0x4 DUP1 CALLDATASIZE SUB DUP2 ADD SWAP1 PUSH2 0x4B6 SWAP2 SWAP1 PUSH2 0x2374 JUMP JUMPDEST PUSH2 0xE86 JUMP JUMPDEST PUSH1 0x40 MLOAD PUSH2 0x4C8 SWAP2 SWAP1 PUSH2 0x223E JUMP JUMPDEST PUSH1 0x40 MLOAD DUP1 SWAP2 SUB SWAP1 RETURN JUMPDEST PUSH2 0x4D9 PUSH2 0xEA8 JUMP JUMPDEST PUSH1 0x40 MLOAD PUSH2 0x4E6 SWAP2 SWAP1 PUSH2 0x2634 JUMP JUMPDEST PUSH1 0x40 MLOAD DUP1 SWAP2 SUB SWAP1 RETURN JUMPDEST PUSH2 0x509 PUSH1 0x4 DUP1 CALLDATASIZE SUB DUP2 ADD SWAP1 PUSH2 0x504 SWAP2 SWAP1 PUSH2 0x23DA JUMP JUMPDEST PUSH2 0xECC JUMP JUMPDEST PUSH1 0x40 MLOAD PUSH2 0x516 SWAP2 SWAP1 PUSH2 0x23C1 JUMP JUMPDEST PUSH1 0x40 MLOAD DUP1 SWAP2 SUB SWAP1 RETURN JUMPDEST PUSH2 0x539 PUSH1 0x4 DUP1 CALLDATASIZE SUB DUP2 ADD SWAP1 PUSH2 0x534 SWAP2 SWAP1 PUSH2 0x24DB JUMP JUMPDEST PUSH2 0x101D JUMP JUMPDEST STOP JUMPDEST PUSH2 0x555 PUSH1 0x4 DUP1 CALLDATASIZE SUB DUP2 ADD SWAP1 PUSH2 0x550 SWAP2 SWAP1 PUSH2 0x23DA JUMP JUMPDEST PUSH2 0x103F JUMP JUMPDEST STOP JUMPDEST PUSH2 0x55F PUSH2 0x12AA JUMP JUMPDEST PUSH1 0x40 MLOAD PUSH2 0x56C SWAP2 SWAP1 PUSH2 0x23C1 JUMP JUMPDEST PUSH1 0x40 MLOAD DUP1 SWAP2 SUB SWAP1 RETURN JUMPDEST PUSH2 0x58F PUSH1 0x4 DUP1 CALLDATASIZE SUB DUP2 ADD SWAP1 PUSH2 0x58A SWAP2 SWAP1 PUSH2 0x264D JUMP JUMPDEST PUSH2 0x12B0 JUMP JUMPDEST PUSH1 0x40 MLOAD PUSH2 0x59C SWAP2 SWAP1 PUSH2 0x23C1 JUMP JUMPDEST PUSH1 0x40 MLOAD DUP1 SWAP2 SUB SWAP1 RETURN JUMPDEST PUSH2 0x5BF PUSH1 0x4 DUP1 CALLDATASIZE SUB DUP2 ADD SWAP1 PUSH2 0x5BA SWAP2 SWAP1 PUSH2 0x23DA JUMP JUMPDEST PUSH2 0x1332 JUMP JUMPDEST STOP JUMPDEST PUSH2 0x5C9 PUSH2 0x13B6 JUMP JUMPDEST PUSH1 0x40 MLOAD PUSH2 0x5D6 SWAP2 SWAP1 PUSH2 0x23C1 JUMP JUMPDEST PUSH1 0x40 MLOAD DUP1 SWAP2 SUB SWAP1 RETURN JUMPDEST PUSH2 0x5E7 PUSH2 0x1495 JUMP JUMPDEST PUSH1 0x40 MLOAD PUSH2 0x5F4 SWAP2 SWAP1 PUSH2 0x2534 JUMP JUMPDEST PUSH1 0x40 MLOAD DUP1 SWAP2 SUB SWAP1 RETURN JUMPDEST PUSH2 0x617 PUSH1 0x4 DUP1 CALLDATASIZE SUB DUP2 ADD SWAP1 PUSH2 0x612 SWAP2 SWAP1 PUSH2 0x254D JUMP JUMPDEST PUSH2 0x14B9 JUMP JUMPDEST STOP JUMPDEST PUSH0 PUSH32 0x7965DB0B00000000000000000000000000000000000000000000000000000000 PUSH28 0xFFFFFFFFFFFFFFFFFFFFFFFFFFFFFFFFFFFFFFFFFFFFFFFFFFFFFFFF NOT AND DUP3 PUSH28 0xFFFFFFFFFFFFFFFFFFFFFFFFFFFFFFFFFFFFFFFFFFFFFFFFFFFFFFFF NOT AND EQ DUP1 PUSH2 0x68B JUMPI POP PUSH2 0x68A DUP3 PUSH2 0x153D JUMP JUMPDEST JUMPDEST SWAP1 POP SWAP2 SWAP1 POP JUMP JUMPDEST PUSH1 0x60 PUSH1 0x3 DUP1 SLOAD PUSH2 0x6A1 SWAP1 PUSH2 0x26B8 JUMP JUMPDEST DUP1 PUSH1 0x1F ADD PUSH1 0x20 DUP1 SWAP2 DIV MUL PUSH1 0x20 ADD PUSH1 0x40 MLOAD SWAP1 DUP2 ADD PUSH1 0x40 MSTORE DUP1 SWAP3 SWAP2 SWAP1 DUP2 DUP2 MSTORE PUSH1 0x20 ADD DUP3 DUP1 SLOAD PUSH2 0x6CD SWAP1 PUSH2 0x26B8 JUMP JUMPDEST DUP1 ISZERO PUSH2 0x718 JUMPI DUP1 PUSH1 0x1F LT PUSH2 0x6EF JUMPI PUSH2 0x100 DUP1 DUP4 SLOAD DIV MUL DUP4 MSTORE SWAP2 PUSH1 0x20 ADD SWAP2 PUSH2 0x718 JUMP JUMPDEST DUP3 ADD SWAP2 SWAP1 PUSH0 MSTORE PUSH1 0x20 PUSH0 KECCAK256 SWAP1 JUMPDEST DUP2 SLOAD DUP2 MSTORE SWAP1 PUSH1 0x1 ADD SWAP1 PUSH1 0x20 ADD DUP1 DUP4 GT PUSH2 0x6FB JUMPI DUP3 SWAP1 SUB PUSH1 0x1F AND DUP3 ADD SWAP2 JUMPDEST POP POP POP POP POP SWAP1 POP SWAP1 JUMP JUMPDEST PUSH0 PUSH0 PUSH2 0x72C PUSH2 0x15A6 JUMP JUMPDEST SWAP1 POP PUSH2 0x739 DUP2 DUP6 DUP6 PUSH2 0x15AD JUMP JUMPDEST PUSH1 0x1 SWAP2 POP POP SWAP3 SWAP2 POP POP JUMP JUMPDEST PUSH0 PUSH1 0x2 SLOAD SWAP1 POP SWAP1 JUMP JUMPDEST PUSH0 PUSH0 DUP3 SUB PUSH2 0x75D JUMPI PUSH0 SWAP1 POP PUSH2 0x899 JUMP JUMPDEST PUSH0 PUSH2 0x766 PUSH2 0x13B6 JUMP JUMPDEST SWAP1 POP PUSH0 PUSH2 0x771 PUSH2 0x90B JUMP JUMPDEST PUSH1 0xA PUSH2 0x77D SWAP2 SWAP1 PUSH2 0x2844 JUMP JUMPDEST DUP5 PUSH2 0x788 SWAP2 SWAP1 PUSH2 0x288E JUMP JUMPDEST SWAP1 POP PUSH0 DUP3 PUSH1 0x64 PUSH2 0x798 SWAP2 SWAP1 PUSH2 0x288E JUMP JUMPDEST PUSH1 0x9 SLOAD DUP4 PUSH2 0x7A6 SWAP2 SWAP1 PUSH2 0x288E JUMP JUMPDEST PUSH2 0x7B0 SWAP2 SWAP1 PUSH2 0x28FC JUMP JUMPDEST SWAP1 POP PUSH0 PUSH1 0x8 PUSH0 SWAP1 SLOAD SWAP1 PUSH2 0x100 EXP SWAP1 DIV PUSH20 0xFFFFFFFFFFFFFFFFFFFFFFFFFFFFFFFFFFFFFFFF AND PUSH20 0xFFFFFFFFFFFFFFFFFFFFFFFFFFFFFFFFFFFFFFFF AND PUSH4 0x313CE567 PUSH1 0x40 MLOAD DUP2 PUSH4 0xFFFFFFFF AND PUSH1 0xE0 SHL DUP2 MSTORE PUSH1 0x4 ADD PUSH1 0x20 PUSH1 0x40 MLOAD DUP1 DUP4 SUB DUP2 DUP7 GAS STATICCALL ISZERO DUP1 ISZERO PUSH2 0x81D JUMPI RETURNDATASIZE PUSH0 PUSH0 RETURNDATACOPY RETURNDATASIZE PUSH0 REVERT JUMPDEST POP POP POP POP PUSH1 0x40 MLOAD RETURNDATASIZE PUSH1 0x1F NOT PUSH1 0x1F DUP3 ADD AND DUP3 ADD DUP1 PUSH1 0x40 MSTORE POP DUP2 ADD SWAP1 PUSH2 0x841 SWAP2 SWAP1 PUSH2 0x2956 JUMP JUMPDEST PUSH1 0xA PUSH2 0x84D SWAP2 SWAP1 PUSH2 0x2844 JUMP JUMPDEST PUSH32 0x0 PUSH1 0xA PUSH2 0x87A SWAP2 SWAP1 PUSH2 0x2844 JUMP JUMPDEST DUP4 PUSH2 0x885 SWAP2 SWAP1 PUSH2 0x288E JUMP JUMPDEST PUSH2 0x88F SWAP2 SWAP1 PUSH2 0x28FC JUMP JUMPDEST SWAP1 POP DUP1 SWAP5 POP POP POP POP POP JUMPDEST SWAP2 SWAP1 POP JUMP JUMPDEST PUSH0 PUSH0 PUSH2 0x8A8 PUSH2 0x15A6 JUMP JUMPDEST SWAP1 POP PUSH2 0x8B5 DUP6 DUP3 DUP6 PUSH2 0x15BF JUMP JUMPDEST PUSH2 0x8C0 DUP6 DUP6 DUP6 PUSH2 0x1652 JUMP JUMPDEST PUSH1 0x1 SWAP2 POP POP SWAP4 SWAP3 POP POP POP JUMP JUMPDEST PUSH0 PUSH1 0x7 PUSH0 DUP4 DUP2 MSTORE PUSH1 0x20 ADD SWAP1 DUP2 MSTORE PUSH1 0x20 ADD PUSH0 KECCAK256 PUSH1 0x1 ADD SLOAD SWAP1 POP SWAP2 SWAP1 POP JUMP JUMPDEST PUSH2 0x8F2 DUP3 PUSH2 0x8CC JUMP JUMPDEST PUSH2 0x8FB DUP2 PUSH2 0x1742 JUMP JUMPDEST PUSH2 0x905 DUP4 DUP4 PUSH2 0x1756 JUMP JUMPDEST POP POP POP POP JUMP JUMPDEST PUSH0 PUSH1 0x12 SWAP1 POP SWAP1 JUMP JUMPDEST PUSH2 0x91B PUSH2 0x15A6 JUMP JUMPDEST PUSH20 0xFFFFFFFFFFFFFFFFFFFFFFFFFFFFFFFFFFFFFFFF AND DUP2 PUSH20 0xFFFFFFFFFFFFFFFFFFFFFFFFFFFFFFFFFFFFFFFF AND EQ PUSH2 0x97F JUMPI PUSH1 0x40 MLOAD PUSH32 0x6697B23200000000000000000000000000000000000000000000000000000000 DUP2 MSTORE PUSH1 0x4 ADD PUSH1 0x40 MLOAD DUP1 SWAP2 SUB SWAP1 REVERT JUMPDEST PUSH2 0x989 DUP3 DUP3 PUSH2 0x1840 JUMP JUMPDEST POP POP POP JUMP JUMPDEST PUSH0 PUSH0 PUSH0 DUP4 PUSH20 0xFFFFFFFFFFFFFFFFFFFFFFFFFFFFFFFFFFFFFFFF AND PUSH20 0xFFFFFFFFFFFFFFFFFFFFFFFFFFFFFFFFFFFFFFFF AND DUP2 MSTORE PUSH1 0x20 ADD SWAP1 DUP2 MSTORE PUSH1 0x20 ADD PUSH0 KECCAK256 SLOAD SWAP1 POP SWAP2 SWAP1 POP JUMP JUMPDEST PUSH2 0x9DB PUSH2 0x192A JUMP JUMPDEST PUSH2 0x9E4 PUSH0 PUSH2 0x19B1 JUMP JUMPDEST JUMP JUMPDEST PUSH1 0x8 PUSH0 SWAP1 SLOAD SWAP1 PUSH2 0x100 EXP SWAP1 DIV PUSH20 0xFFFFFFFFFFFFFFFFFFFFFFFFFFFFFFFFFFFFFFFF AND DUP2 JUMP JUMPDEST PUSH32 0xD83007455B073BDF2ABC6E8B18CE2847F802B368F0AD3A285CBB1773EC2F4C83 PUSH2 0xA35 DUP2 PUSH2 0x1742 JUMP JUMPDEST PUSH0 PUSH20 0xFFFFFFFFFFFFFFFFFFFFFFFFFFFFFFFFFFFFFFFF AND DUP3 PUSH20 0xFFFFFFFFFFFFFFFFFFFFFFFFFFFFFFFFFFFFFFFF AND SUB PUSH2 0xA9A JUMPI PUSH1 0x40 MLOAD PUSH32 0xE358806300000000000000000000000000000000000000000000000000000000 DUP2 MSTORE PUSH1 0x4 ADD PUSH1 0x40 MLOAD DUP1 SWAP2 SUB SWAP1 REVERT JUMPDEST DUP2 PUSH1 0x8 PUSH0 PUSH2 0x100 EXP DUP2 SLOAD DUP2 PUSH20 0xFFFFFFFFFFFFFFFFFFFFFFFFFFFFFFFFFFFFFFFF MUL NOT AND SWAP1 DUP4 PUSH20 0xFFFFFFFFFFFFFFFFFFFFFFFFFFFFFFFFFFFFFFFF AND MUL OR SWAP1 SSTORE POP PUSH32 0xE5B20B8497E4F3E2435EF9C20E2E26B47497EE13745CE1C681AD6640653119E6 DUP3 PUSH1 0x40 MLOAD PUSH2 0xB09 SWAP2 SWAP1 PUSH2 0x25FB JUMP JUMPDEST PUSH1 0x40 MLOAD DUP1 SWAP2 SUB SWAP1 LOG1 POP POP JUMP JUMPDEST PUSH0 PUSH1 0x5 PUSH0 SWAP1 SLOAD SWAP1 PUSH2 0x100 EXP SWAP1 DIV PUSH20 0xFFFFFFFFFFFFFFFFFFFFFFFFFFFFFFFFFFFFFFFF AND SWAP1 POP SWAP1 JUMP JUMPDEST PUSH0 PUSH1 0x7 PUSH0 DUP5 DUP2 MSTORE PUSH1 0x20 ADD SWAP1 DUP2 MSTORE PUSH1 0x20 ADD PUSH0 KECCAK256 PUSH0 ADD PUSH0 DUP4 PUSH20 0xFFFFFFFFFFFFFFFFFFFFFFFFFFFFFFFFFFFFFFFF AND PUSH20 0xFFFFFFFFFFFFFFFFFFFFFFFFFFFFFFFFFFFFFFFF AND DUP2 MSTORE PUSH1 0x20 ADD SWAP1 DUP2 MSTORE PUSH1 0x20 ADD PUSH0 KECCAK256 PUSH0 SWAP1 SLOAD SWAP1 PUSH2 0x100 EXP SWAP1 DIV PUSH1 0xFF AND SWAP1 POP SWAP3 SWAP2 POP POP JUMP JUMPDEST PUSH1 0x60 PUSH1 0x4 DUP1 SLOAD PUSH2 0xBB0 SWAP1 PUSH2 0x26B8 JUMP JUMPDEST DUP1 PUSH1 0x1F ADD PUSH1 0x20 DUP1 SWAP2 DIV MUL PUSH1 0x20 ADD PUSH1 0x40 MLOAD SWAP1 DUP2 ADD PUSH1 0x40 MSTORE DUP1 SWAP3 SWAP2 SWAP1 DUP2 DUP2 MSTORE PUSH1 0x20 ADD DUP3 DUP1 SLOAD PUSH2 0xBDC SWAP1 PUSH2 0x26B8 JUMP JUMPDEST DUP1 ISZERO PUSH2 0xC27 JUMPI DUP1 PUSH1 0x1F LT PUSH2 0xBFE JUMPI PUSH2 0x100 DUP1 DUP4 SLOAD DIV MUL DUP4 MSTORE SWAP2 PUSH1 0x20 ADD SWAP2 PUSH2 0xC27 JUMP JUMPDEST DUP3 ADD SWAP2 SWAP1 PUSH0 MSTORE PUSH1 0x20 PUSH0 KECCAK256 SWAP1 JUMPDEST DUP2 SLOAD DUP2 MSTORE SWAP1 PUSH1 0x1 ADD SWAP1 PUSH1 0x20 ADD DUP1 DUP4 GT PUSH2 0xC0A JUMPI DUP3 SWAP1 SUB PUSH1 0x1F AND DUP3 ADD SWAP2 JUMPDEST POP POP POP POP POP SWAP1 POP SWAP1 JUMP JUMPDEST PUSH2 0xC39 PUSH2 0x1A74 JUMP JUMPDEST PUSH0 DUP2 SUB PUSH2 0xC72 JUMPI PUSH1 0x40 MLOAD PUSH32 0x7A5F358C00000000000000000000000000000000000000000000000000000000 DUP2 MSTORE PUSH1 0x4 ADD PUSH1 0x40 MLOAD DUP1 SWAP2 SUB SWAP1 REVERT JUMPDEST PUSH0 PUSH2 0xC7B PUSH2 0x13B6 JUMP JUMPDEST SWAP1 POP PUSH0 PUSH2 0xC86 PUSH2 0x90B JUMP JUMPDEST PUSH1 0xA PUSH2 0xC92 SWAP2 SWAP1 PUSH2 0x2844 JUMP JUMPDEST DUP4 PUSH2 0xC9D SWAP2 SWAP1 PUSH2 0x288E JUMP JUMPDEST SWAP1 POP PUSH0 DUP3 PUSH1 0x64 PUSH2 0xCAD SWAP2 SWAP1 PUSH2 0x288E JUMP JUMPDEST PUSH1 0x9 SLOAD DUP4 PUSH2 0xCBB SWAP2 SWAP1 PUSH2 0x288E JUMP JUMPDEST PUSH2 0xCC5 SWAP2 SWAP1 PUSH2 0x28FC JUMP JUMPDEST SWAP1 POP PUSH0 PUSH1 0x8 PUSH0 SWAP1 SLOAD SWAP1 PUSH2 0x100 EXP SWAP1 DIV PUSH20 0xFFFFFFFFFFFFFFFFFFFFFFFFFFFFFFFFFFFFFFFF AND PUSH20 0xFFFFFFFFFFFFFFFFFFFFFFFFFFFFFFFFFFFFFFFF AND PUSH4 0x313CE567 PUSH1 0x40 MLOAD DUP2 PUSH4 0xFFFFFFFF AND PUSH1 0xE0 SHL DUP2 MSTORE PUSH1 0x4 ADD PUSH1 0x20 PUSH1 0x40 MLOAD DUP1 DUP4 SUB DUP2 DUP7 GAS STATICCALL ISZERO DUP1 ISZERO PUSH2 0xD32 JUMPI RETURNDATASIZE PUSH0 PUSH0 RETURNDATACOPY RETURNDATASIZE PUSH0 REVERT JUMPDEST POP POP POP POP PUSH1 0x40 MLOAD RETURNDATASIZE PUSH1 0x1F NOT PUSH1 0x1F DUP3 ADD AND DUP3 ADD DUP1 PUSH1 0x40 MSTORE POP DUP2 ADD SWAP1 PUSH2 0xD56 SWAP2 SWAP1 PUSH2 0x2956 JUMP JUMPDEST PUSH1 0xA PUSH2 0xD62 SWAP2 SWAP1 PUSH2 0x2844 JUMP JUMPDEST PUSH32 0x0 PUSH1 0xA PUSH2 0xD8F SWAP2 SWAP1 PUSH2 0x2844 JUMP JUMPDEST DUP4 PUSH2 0xD9A SWAP2 SWAP1 PUSH2 0x288E JUMP JUMPDEST PUSH2 0xDA4 SWAP2 SWAP1 PUSH2 0x28FC JUMP JUMPDEST SWAP1 POP PUSH2 0xDF3 CALLER ADDRESS DUP4 PUSH32 0x0 PUSH20 0xFFFFFFFFFFFFFFFFFFFFFFFFFFFFFFFFFFFFFFFF AND PUSH2 0x1AC3 SWAP1 SWAP4 SWAP3 SWAP2 SWAP1 PUSH4 0xFFFFFFFF AND JUMP JUMPDEST PUSH2 0xDFD CALLER DUP7 PUSH2 0x1B45 JUMP JUMPDEST CALLER PUSH20 0xFFFFFFFFFFFFFFFFFFFFFFFFFFFFFFFFFFFFFFFF AND PUSH32 0x25B428DFDE728CCFADDAD7E29E4AC23C24ED7FD1A6E3E3F91894A9A073F5DFFF DUP7 DUP4 PUSH1 0x40 MLOAD PUSH2 0xE45 SWAP3 SWAP2 SWAP1 PUSH2 0x2981 JUMP JUMPDEST PUSH1 0x40 MLOAD DUP1 SWAP2 SUB SWAP1 LOG2 POP POP POP POP PUSH2 0xE59 PUSH2 0x1BC4 JUMP JUMPDEST POP JUMP JUMPDEST PUSH0 PUSH0 SHL DUP2 JUMP JUMPDEST PUSH32 0xD83007455B073BDF2ABC6E8B18CE2847F802B368F0AD3A285CBB1773EC2F4C83 DUP2 JUMP JUMPDEST PUSH0 PUSH0 PUSH2 0xE90 PUSH2 0x15A6 JUMP JUMPDEST SWAP1 POP PUSH2 0xE9D DUP2 DUP6 DUP6 PUSH2 0x1652 JUMP JUMPDEST PUSH1 0x1 SWAP2 POP POP SWAP3 SWAP2 POP POP JUMP JUMPDEST PUSH32 0x0 DUP2 JUMP JUMPDEST PUSH0 PUSH0 DUP3 SUB PUSH2 0xEDC JUMPI PUSH0 SWAP1 POP PUSH2 0x1018 JUMP JUMPDEST PUSH0 PUSH2 0xEE5 PUSH2 0x13B6 JUMP JUMPDEST SWAP1 POP PUSH0 PUSH2 0xEF0 PUSH2 0x90B JUMP JUMPDEST PUSH1 0xA PUSH2 0xEFC SWAP2 SWAP1 PUSH2 0x2844 JUMP JUMPDEST DUP5 PUSH2 0xF07 SWAP2 SWAP1 PUSH2 0x288E JUMP JUMPDEST SWAP1 POP PUSH0 DUP3 PUSH1 0x9 SLOAD PUSH2 0xF18 SWAP2 SWAP1 PUSH2 0x288E JUMP JUMPDEST PUSH1 0x64 DUP4 PUSH2 0xF25 SWAP2 SWAP1 PUSH2 0x288E JUMP JUMPDEST PUSH2 0xF2F SWAP2 SWAP1 PUSH2 0x28FC JUMP JUMPDEST SWAP1 POP PUSH0 PUSH1 0x8 PUSH0 SWAP1 SLOAD SWAP1 PUSH2 0x100 EXP SWAP1 DIV PUSH20 0xFFFFFFFFFFFFFFFFFFFFFFFFFFFFFFFFFFFFFFFF AND PUSH20 0xFFFFFFFFFFFFFFFFFFFFFFFFFFFFFFFFFFFFFFFF AND PUSH4 0x313CE567 PUSH1 0x40 MLOAD DUP2 PUSH4 0xFFFFFFFF AND PUSH1 0xE0 SHL DUP2 MSTORE PUSH1 0x4 ADD PUSH1 0x20 PUSH1 0x40 MLOAD DUP1 DUP4 SUB DUP2 DUP7 GAS STATICCALL ISZERO DUP1 ISZERO PUSH2 0xF9C JUMPI RETURNDATASIZE PUSH0 PUSH0 RETURNDATACOPY RETURNDATASIZE PUSH0 REVERT JUMPDEST POP POP POP POP PUSH1 0x40 MLOAD RETURNDATASIZE PUSH1 0x1F NOT PUSH1 0x1F DUP3 ADD AND DUP3 ADD DUP1 PUSH1 0x40 MSTORE POP DUP2 ADD SWAP1 PUSH2 0xFC0 SWAP2 SWAP1 PUSH2 0x2956 JUMP JUMPDEST PUSH1 0xA PUSH2 0xFCC SWAP2 SWAP1 PUSH2 0x2844 JUMP JUMPDEST PUSH32 0x0 PUSH1 0xA PUSH2 0xFF9 SWAP2 SWAP1 PUSH2 0x2844 JUMP JUMPDEST DUP4 PUSH2 0x1004 SWAP2 SWAP1 PUSH2 0x288E JUMP JUMPDEST PUSH2 0x100E SWAP2 SWAP1 PUSH2 0x28FC JUMP JUMPDEST SWAP1 POP DUP1 SWAP5 POP POP POP POP POP JUMPDEST SWAP2 SWAP1 POP JUMP JUMPDEST PUSH2 0x1026 DUP3 PUSH2 0x8CC JUMP JUMPDEST PUSH2 0x102F DUP2 PUSH2 0x1742 JUMP JUMPDEST PUSH2 0x1039 DUP4 DUP4 PUSH2 0x1840 JUMP JUMPDEST POP POP POP POP JUMP JUMPDEST PUSH2 0x1047 PUSH2 0x1A74 JUMP JUMPDEST PUSH0 DUP2 SUB PUSH2 0x1080 JUMPI PUSH1 0x40 MLOAD PUSH32 0x7A5F358C00000000000000000000000000000000000000000000000000000000 DUP2 MSTORE PUSH1 0x4 ADD PUSH1 0x40 MLOAD DUP1 SWAP2 SUB SWAP1 REVERT JUMPDEST DUP1 PUSH2 0x108A CALLER PUSH2 0x98E JUMP JUMPDEST LT ISZERO PUSH2 0x10C2 JUMPI PUSH1 0x40 MLOAD PUSH32 0x30DE15DB00000000000000000000000000000000000000000000000000000000 DUP2 MSTORE PUSH1 0x4 ADD PUSH1 0x40 MLOAD DUP1 SWAP2 SUB SWAP1 REVERT JUMPDEST PUSH0 PUSH2 0x10CB PUSH2 0x13B6 JUMP JUMPDEST SWAP1 POP PUSH0 PUSH2 0x10D6 PUSH2 0x90B JUMP JUMPDEST PUSH1 0xA PUSH2 0x10E2 SWAP2 SWAP1 PUSH2 0x2844 JUMP JUMPDEST DUP4 PUSH2 0x10ED SWAP2 SWAP1 PUSH2 0x288E JUMP JUMPDEST SWAP1 POP PUSH0 DUP3 PUSH1 0x9 SLOAD PUSH2 0x10FE SWAP2 SWAP1 PUSH2 0x288E JUMP JUMPDEST PUSH1 0x64 DUP4 PUSH2 0x110B SWAP2 SWAP1 PUSH2 0x288E JUMP JUMPDEST PUSH2 0x1115 SWAP2 SWAP1 PUSH2 0x28FC JUMP JUMPDEST SWAP1 POP PUSH0 PUSH1 0x8 PUSH0 SWAP1 SLOAD SWAP1 PUSH2 0x100 EXP SWAP1 DIV PUSH20 0xFFFFFFFFFFFFFFFFFFFFFFFFFFFFFFFFFFFFFFFF AND PUSH20 0xFFFFFFFFFFFFFFFFFFFFFFFFFFFFFFFFFFFFFFFF AND PUSH4 0x313CE567 PUSH1 0x40 MLOAD DUP2 PUSH4 0xFFFFFFFF AND PUSH1 0xE0 SHL DUP2 MSTORE PUSH1 0x4 ADD PUSH1 0x20 PUSH1 0x40 MLOAD DUP1 DUP4 SUB DUP2 DUP7 GAS STATICCALL ISZERO DUP1 ISZERO PUSH2 0x1182 JUMPI RETURNDATASIZE PUSH0 PUSH0 RETURNDATACOPY RETURNDATASIZE PUSH0 REVERT JUMPDEST POP POP POP POP PUSH1 0x40 MLOAD RETURNDATASIZE PUSH1 0x1F NOT PUSH1 0x1F DUP3 ADD AND DUP3 ADD DUP1 PUSH1 0x40 MSTORE POP DUP2 ADD SWAP1 PUSH2 0x11A6 SWAP2 SWAP1 PUSH2 0x2956 JUMP JUMPDEST PUSH1 0xA PUSH2 0x11B2 SWAP2 SWAP1 PUSH2 0x2844 JUMP JUMPDEST PUSH32 0x0 PUSH1 0xA PUSH2 0x11DF SWAP2 SWAP1 PUSH2 0x2844 JUMP JUMPDEST DUP4 PUSH2 0x11EA SWAP2 SWAP1 PUSH2 0x288E JUMP JUMPDEST PUSH2 0x11F4 SWAP2 SWAP1 PUSH2 0x28FC JUMP JUMPDEST SWAP1 POP PUSH2 0x1200 CALLER DUP7 PUSH2 0x1BCE JUMP JUMPDEST PUSH2 0x124B CALLER DUP3 PUSH32 0x0 PUSH20 0xFFFFFFFFFFFFFFFFFFFFFFFFFFFFFFFFFFFFFFFF AND PUSH2 0x1C4D SWAP1 SWAP3 SWAP2 SWAP1 PUSH4 0xFFFFFFFF AND JUMP JUMPDEST CALLER PUSH20 0xFFFFFFFFFFFFFFFFFFFFFFFFFFFFFFFFFFFFFFFF AND PUSH32 0xF3A670CD3AF7D64B488926880889D08A8585A138FF455227AF6737339A1EC262 DUP7 DUP4 PUSH1 0x40 MLOAD PUSH2 0x1293 SWAP3 SWAP2 SWAP1 PUSH2 0x2981 JUMP JUMPDEST PUSH1 0x40 MLOAD DUP1 SWAP2 SUB SWAP1 LOG2 POP POP POP POP PUSH2 0x12A7 PUSH2 0x1BC4 JUMP JUMPDEST POP JUMP JUMPDEST PUSH1 0x9 SLOAD DUP2 JUMP JUMPDEST PUSH0 PUSH1 0x1 PUSH0 DUP5 PUSH20 0xFFFFFFFFFFFFFFFFFFFFFFFFFFFFFFFFFFFFFFFF AND PUSH20 0xFFFFFFFFFFFFFFFFFFFFFFFFFFFFFFFFFFFFFFFF AND DUP2 MSTORE PUSH1 0x20 ADD SWAP1 DUP2 MSTORE PUSH1 0x20 ADD PUSH0 KECCAK256 PUSH0 DUP4 PUSH20 0xFFFFFFFFFFFFFFFFFFFFFFFFFFFFFFFFFFFFFFFF AND PUSH20 0xFFFFFFFFFFFFFFFFFFFFFFFFFFFFFFFFFFFFFFFF AND DUP2 MSTORE PUSH1 0x20 ADD SWAP1 DUP2 MSTORE PUSH1 0x20 ADD PUSH0 KECCAK256 SLOAD SWAP1 POP SWAP3 SWAP2 POP POP JUMP JUMPDEST PUSH2 0x133A PUSH2 0x192A JUMP JUMPDEST PUSH1 0x64 DUP2 LT ISZERO PUSH2 0x1375 JUMPI PUSH1 0x40 MLOAD PUSH32 0x33EFA14600000000000000000000000000000000000000000000000000000000 DUP2 MSTORE PUSH1 0x4 ADD PUSH1 0x40 MLOAD DUP1 SWAP2 SUB SWAP1 REVERT JUMPDEST DUP1 PUSH1 0x9 DUP2 SWAP1 SSTORE POP PUSH32 0xFB0EBE8C7316E6A251494C38876D13D9A3A029273FCE7964C12AA2CE07869530 DUP2 PUSH1 0x40 MLOAD PUSH2 0x13AB SWAP2 SWAP1 PUSH2 0x23C1 JUMP JUMPDEST PUSH1 0x40 MLOAD DUP1 SWAP2 SUB SWAP1 LOG1 POP JUMP JUMPDEST PUSH0 PUSH0 PUSH1 0x8 PUSH0 SWAP1 SLOAD SWAP1 PUSH2 0x100 EXP SWAP1 DIV PUSH20 0xFFFFFFFFFFFFFFFFFFFFFFFFFFFFFFFFFFFFFFFF AND PUSH20 0xFFFFFFFFFFFFFFFFFFFFFFFFFFFFFFFFFFFFFFFF AND PUSH4 0xFEAF968C PUSH1 0x40 MLOAD DUP2 PUSH4 0xFFFFFFFF AND PUSH1 0xE0 SHL DUP2 MSTORE PUSH1 0x4 ADD PUSH1 0xA0 PUSH1 0x40 MLOAD DUP1 DUP4 SUB DUP2 DUP7 GAS STATICCALL ISZERO DUP1 ISZERO PUSH2 0x1422 JUMPI RETURNDATASIZE PUSH0 PUSH0 RETURNDATACOPY RETURNDATASIZE PUSH0 REVERT JUMPDEST POP POP POP POP PUSH1 0x40 MLOAD RETURNDATASIZE PUSH1 0x1F NOT PUSH1 0x1F DUP3 ADD AND DUP3 ADD DUP1 PUSH1 0x40 MSTORE POP DUP2 ADD SWAP1 PUSH2 0x1446 SWAP2 SWAP1 PUSH2 0x2A2E JUMP JUMPDEST POP POP POP SWAP2 POP POP PUSH0 DUP2 SGT PUSH2 0x148E JUMPI PUSH1 0x40 MLOAD PUSH32 0x8C379A000000000000000000000000000000000000000000000000000000000 DUP2 MSTORE PUSH1 0x4 ADD PUSH2 0x1485 SWAP1 PUSH2 0x2AEF JUMP JUMPDEST PUSH1 0x40 MLOAD DUP1 SWAP2 SUB SWAP1 REVERT JUMPDEST DUP1 SWAP2 POP POP SWAP1 JUMP JUMPDEST PUSH32 0x0 DUP2 JUMP JUMPDEST PUSH2 0x14C1 PUSH2 0x192A JUMP JUMPDEST PUSH0 PUSH20 0xFFFFFFFFFFFFFFFFFFFFFFFFFFFFFFFFFFFFFFFF AND DUP2 PUSH20 0xFFFFFFFFFFFFFFFFFFFFFFFFFFFFFFFFFFFFFFFF AND SUB PUSH2 0x1531 JUMPI PUSH0 PUSH1 0x40 MLOAD PUSH32 0x1E4FBDF700000000000000000000000000000000000000000000000000000000 DUP2 MSTORE PUSH1 0x4 ADD PUSH2 0x1528 SWAP2 SWAP1 PUSH2 0x25FB JUMP JUMPDEST PUSH1 0x40 MLOAD DUP1 SWAP2 SUB SWAP1 REVERT JUMPDEST PUSH2 0x153A DUP2 PUSH2 0x19B1 JUMP JUMPDEST POP JUMP JUMPDEST PUSH0 PUSH32 0x1FFC9A700000000000000000000000000000000000000000000000000000000 PUSH28 0xFFFFFFFFFFFFFFFFFFFFFFFFFFFFFFFFFFFFFFFFFFFFFFFFFFFFFFFF NOT AND DUP3 PUSH28 0xFFFFFFFFFFFFFFFFFFFFFFFFFFFFFFFFFFFFFFFFFFFFFFFFFFFFFFFF NOT AND EQ SWAP1 POP SWAP2 SWAP1 POP JUMP JUMPDEST PUSH0 CALLER SWAP1 POP SWAP1 JUMP JUMPDEST PUSH2 0x15BA DUP4 DUP4 DUP4 PUSH1 0x1 PUSH2 0x1CCC JUMP JUMPDEST POP POP POP JUMP JUMPDEST PUSH0 PUSH2 0x15CA DUP5 DUP5 PUSH2 0x12B0 JUMP JUMPDEST SWAP1 POP PUSH32 0xFFFFFFFFFFFFFFFFFFFFFFFFFFFFFFFFFFFFFFFFFFFFFFFFFFFFFFFFFFFFFFFF DUP2 LT ISZERO PUSH2 0x164C JUMPI DUP2 DUP2 LT ISZERO PUSH2 0x163D JUMPI DUP3 DUP2 DUP4 PUSH1 0x40 MLOAD PUSH32 0xFB8F41B200000000000000000000000000000000000000000000000000000000 DUP2 MSTORE PUSH1 0x4 ADD PUSH2 0x1634 SWAP4 SWAP3 SWAP2 SWAP1 PUSH2 0x2B0D JUMP JUMPDEST PUSH1 0x40 MLOAD DUP1 SWAP2 SUB SWAP1 REVERT JUMPDEST PUSH2 0x164B DUP5 DUP5 DUP5 DUP5 SUB PUSH0 PUSH2 0x1CCC JUMP JUMPDEST JUMPDEST POP POP POP POP JUMP JUMPDEST PUSH0 PUSH20 0xFFFFFFFFFFFFFFFFFFFFFFFFFFFFFFFFFFFFFFFF AND DUP4 PUSH20 0xFFFFFFFFFFFFFFFFFFFFFFFFFFFFFFFFFFFFFFFF AND SUB PUSH2 0x16C2 JUMPI PUSH0 PUSH1 0x40 MLOAD PUSH32 0x96C6FD1E00000000000000000000000000000000000000000000000000000000 DUP2 MSTORE PUSH1 0x4 ADD PUSH2 0x16B9 SWAP2 SWAP1 PUSH2 0x25FB JUMP JUMPDEST PUSH1 0x40 MLOAD DUP1 SWAP2 SUB SWAP1 REVERT JUMPDEST PUSH0 PUSH20 0xFFFFFFFFFFFFFFFFFFFFFFFFFFFFFFFFFFFFFFFF AND DUP3 PUSH20 0xFFFFFFFFFFFFFFFFFFFFFFFFFFFFFFFFFFFFFFFF AND SUB PUSH2 0x1732 JUMPI PUSH0 PUSH1 0x40 MLOAD PUSH32 0xEC442F0500000000000000000000000000000000000000000000000000000000 DUP2 MSTORE PUSH1 0x4 ADD PUSH2 0x1729 SWAP2 SWAP1 PUSH2 0x25FB JUMP JUMPDEST PUSH1 0x40 MLOAD DUP1 SWAP2 SUB SWAP1 REVERT JUMPDEST PUSH2 0x173D DUP4 DUP4 DUP4 PUSH2 0x1E9B JUMP JUMPDEST POP POP POP JUMP JUMPDEST PUSH2 0x1753 DUP2 PUSH2 0x174E PUSH2 0x15A6 JUMP JUMPDEST PUSH2 0x20B4 JUMP JUMPDEST POP JUMP JUMPDEST PUSH0 PUSH2 0x1761 DUP4 DUP4 PUSH2 0xB3D JUMP JUMPDEST PUSH2 0x1836 JUMPI PUSH1 0x1 PUSH1 0x7 PUSH0 DUP6 DUP2 MSTORE PUSH1 0x20 ADD SWAP1 DUP2 MSTORE PUSH1 0x20 ADD PUSH0 KECCAK256 PUSH0 ADD PUSH0 DUP5 PUSH20 0xFFFFFFFFFFFFFFFFFFFFFFFFFFFFFFFFFFFFFFFF AND PUSH20 0xFFFFFFFFFFFFFFFFFFFFFFFFFFFFFFFFFFFFFFFF AND DUP2 MSTORE PUSH1 0x20 ADD SWAP1 DUP2 MSTORE PUSH1 0x20 ADD PUSH0 KECCAK256 PUSH0 PUSH2 0x100 EXP DUP2 SLOAD DUP2 PUSH1 0xFF MUL NOT AND SWAP1 DUP4 ISZERO ISZERO MUL OR SWAP1 SSTORE POP PUSH2 0x17D3 PUSH2 0x15A6 JUMP JUMPDEST PUSH20 0xFFFFFFFFFFFFFFFFFFFFFFFFFFFFFFFFFFFFFFFF AND DUP3 PUSH20 0xFFFFFFFFFFFFFFFFFFFFFFFFFFFFFFFFFFFFFFFF AND DUP5 PUSH32 0x2F8788117E7EFF1D82E926EC794901D17C78024A50270940304540A733656F0D PUSH1 0x40 MLOAD PUSH1 0x40 MLOAD DUP1 SWAP2 SUB SWAP1 LOG4 PUSH1 0x1 SWAP1 POP PUSH2 0x183A JUMP JUMPDEST PUSH0 SWAP1 POP JUMPDEST SWAP3 SWAP2 POP POP JUMP JUMPDEST PUSH0 PUSH2 0x184B DUP4 DUP4 PUSH2 0xB3D JUMP JUMPDEST ISZERO PUSH2 0x1920 JUMPI PUSH0 PUSH1 0x7 PUSH0 DUP6 DUP2 MSTORE PUSH1 0x20 ADD SWAP1 DUP2 MSTORE PUSH1 0x20 ADD PUSH0 KECCAK256 PUSH0 ADD PUSH0 DUP5 PUSH20 0xFFFFFFFFFFFFFFFFFFFFFFFFFFFFFFFFFFFFFFFF AND PUSH20 0xFFFFFFFFFFFFFFFFFFFFFFFFFFFFFFFFFFFFFFFF AND DUP2 MSTORE PUSH1 0x20 ADD SWAP1 DUP2 MSTORE PUSH1 0x20 ADD PUSH0 KECCAK256 PUSH0 PUSH2 0x100 EXP DUP2 SLOAD DUP2 PUSH1 0xFF MUL NOT AND SWAP1 DUP4 ISZERO ISZERO MUL OR SWAP1 SSTORE POP PUSH2 0x18BD PUSH2 0x15A6 JUMP JUMPDEST PUSH20 0xFFFFFFFFFFFFFFFFFFFFFFFFFFFFFFFFFFFFFFFF AND DUP3 PUSH20 0xFFFFFFFFFFFFFFFFFFFFFFFFFFFFFFFFFFFFFFFF AND DUP5 PUSH32 0xF6391F5C32D9C69D2A47EA670B442974B53935D1EDC7FD64EB21E047A839171B PUSH1 0x40 MLOAD PUSH1 0x40 MLOAD DUP1 SWAP2 SUB SWAP1 LOG4 PUSH1 0x1 SWAP1 POP PUSH2 0x1924 JUMP JUMPDEST PUSH0 SWAP1 POP JUMPDEST SWAP3 SWAP2 POP POP JUMP JUMPDEST PUSH2 0x1932 PUSH2 0x15A6 JUMP JUMPDEST PUSH20 0xFFFFFFFFFFFFFFFFFFFFFFFFFFFFFFFFFFFFFFFF AND PUSH2 0x1950 PUSH2 0xB15 JUMP JUMPDEST PUSH20 0xFFFFFFFFFFFFFFFFFFFFFFFFFFFFFFFFFFFFFFFF AND EQ PUSH2 0x19AF JUMPI PUSH2 0x1973 PUSH2 0x15A6 JUMP JUMPDEST PUSH1 0x40 MLOAD PUSH32 0x118CDAA700000000000000000000000000000000000000000000000000000000 DUP2 MSTORE PUSH1 0x4 ADD PUSH2 0x19A6 SWAP2 SWAP1 PUSH2 0x25FB JUMP JUMPDEST PUSH1 0x40 MLOAD DUP1 SWAP2 SUB SWAP1 REVERT JUMPDEST JUMP JUMPDEST PUSH0 PUSH1 0x5 PUSH0 SWAP1 SLOAD SWAP1 PUSH2 0x100 EXP SWAP1 DIV PUSH20 0xFFFFFFFFFFFFFFFFFFFFFFFFFFFFFFFFFFFFFFFF AND SWAP1 POP DUP2 PUSH1 0x5 PUSH0 PUSH2 0x100 EXP DUP2 SLOAD DUP2 PUSH20 0xFFFFFFFFFFFFFFFFFFFFFFFFFFFFFFFFFFFFFFFF MUL NOT AND SWAP1 DUP4 PUSH20 0xFFFFFFFFFFFFFFFFFFFFFFFFFFFFFFFFFFFFFFFF AND MUL OR SWAP1 SSTORE POP DUP2 PUSH20 0xFFFFFFFFFFFFFFFFFFFFFFFFFFFFFFFFFFFFFFFF AND DUP2 PUSH20 0xFFFFFFFFFFFFFFFFFFFFFFFFFFFFFFFFFFFFFFFF AND PUSH32 0x8BE0079C531659141344CD1FD0A4F28419497F9722A3DAAFE3B4186F6B6457E0 PUSH1 0x40 MLOAD PUSH1 0x40 MLOAD DUP1 SWAP2 SUB SWAP1 LOG3 POP POP JUMP JUMPDEST PUSH1 0x2 PUSH1 0x6 SLOAD SUB PUSH2 0x1AB9 JUMPI PUSH1 0x40 MLOAD PUSH32 0x8C379A000000000000000000000000000000000000000000000000000000000 DUP2 MSTORE PUSH1 0x4 ADD PUSH2 0x1AB0 SWAP1 PUSH2 0x2B8C JUMP JUMPDEST PUSH1 0x40 MLOAD DUP1 SWAP2 SUB SWAP1 REVERT JUMPDEST PUSH1 0x2 PUSH1 0x6 DUP2 SWAP1 SSTORE POP JUMP JUMPDEST PUSH2 0x1B3F DUP5 DUP6 PUSH20 0xFFFFFFFFFFFFFFFFFFFFFFFFFFFFFFFFFFFFFFFF AND PUSH4 0x23B872DD DUP7 DUP7 DUP7 PUSH1 0x40 MLOAD PUSH1 0x24 ADD PUSH2 0x1AF8 SWAP4 SWAP3 SWAP2 SWAP1 PUSH2 0x2BAA JUMP JUMPDEST PUSH1 0x40 MLOAD PUSH1 0x20 DUP2 DUP4 SUB SUB DUP2 MSTORE SWAP1 PUSH1 0x40 MSTORE SWAP2 POP PUSH1 0xE0 SHL PUSH1 0x20 DUP3 ADD DUP1 MLOAD PUSH28 0xFFFFFFFFFFFFFFFFFFFFFFFFFFFFFFFFFFFFFFFFFFFFFFFFFFFFFFFF DUP4 DUP2 DUP4 AND OR DUP4 MSTORE POP POP POP POP PUSH2 0x2105 JUMP JUMPDEST POP POP POP POP JUMP JUMPDEST PUSH0 PUSH20 0xFFFFFFFFFFFFFFFFFFFFFFFFFFFFFFFFFFFFFFFF AND DUP3 PUSH20 0xFFFFFFFFFFFFFFFFFFFFFFFFFFFFFFFFFFFFFFFF AND SUB PUSH2 0x1BB5 JUMPI PUSH0 PUSH1 0x40 MLOAD PUSH32 0xEC442F0500000000000000000000000000000000000000000000000000000000 DUP2 MSTORE PUSH1 0x4 ADD PUSH2 0x1BAC SWAP2 SWAP1 PUSH2 0x25FB JUMP JUMPDEST PUSH1 0x40 MLOAD DUP1 SWAP2 SUB SWAP1 REVERT JUMPDEST PUSH2 0x1BC0 PUSH0 DUP4 DUP4 PUSH2 0x1E9B JUMP JUMPDEST POP POP JUMP JUMPDEST PUSH1 0x1 PUSH1 0x6 DUP2 SWAP1 SSTORE POP JUMP JUMPDEST PUSH0 PUSH20 0xFFFFFFFFFFFFFFFFFFFFFFFFFFFFFFFFFFFFFFFF AND DUP3 PUSH20 0xFFFFFFFFFFFFFFFFFFFFFFFFFFFFFFFFFFFFFFFF AND SUB PUSH2 0x1C3E JUMPI PUSH0 PUSH1 0x40 MLOAD PUSH32 0x96C6FD1E00000000000000000000000000000000000000000000000000000000 DUP2 MSTORE PUSH1 0x4 ADD PUSH2 0x1C35 SWAP2 SWAP1 PUSH2 0x25FB JUMP JUMPDEST PUSH1 0x40 MLOAD DUP1 SWAP2 SUB SWAP1 REVERT JUMPDEST PUSH2 0x1C49 DUP3 PUSH0 DUP4 PUSH2 0x1E9B JUMP JUMPDEST POP POP JUMP JUMPDEST PUSH2 0x1CC7 DUP4 DUP5 PUSH20 0xFFFFFFFFFFFFFFFFFFFFFFFFFFFFFFFFFFFFFFFF AND PUSH4 0xA9059CBB DUP6 DUP6 PUSH1 0x40 MLOAD PUSH1 0x24 ADD PUSH2 0x1C80 SWAP3 SWAP2 SWAP1 PUSH2 0x2BDF JUMP JUMPDEST PUSH1 0x40 MLOAD PUSH1 0x20 DUP2 DUP4 SUB SUB DUP2 MSTORE SWAP1 PUSH1 0x40 MSTORE SWAP2 POP PUSH1 0xE0 SHL PUSH1 0x20 DUP3 ADD DUP1 MLOAD PUSH28 0xFFFFFFFFFFFFFFFFFFFFFFFFFFFFFFFFFFFFFFFFFFFFFFFFFFFFFFFF DUP4 DUP2 DUP4 AND OR DUP4 MSTORE POP POP POP POP PUSH2 0x2105 JUMP JUMPDEST POP POP POP JUMP JUMPDEST PUSH0 PUSH20 0xFFFFFFFFFFFFFFFFFFFFFFFFFFFFFFFFFFFFFFFF AND DUP5 PUSH20 0xFFFFFFFFFFFFFFFFFFFFFFFFFFFFFFFFFFFFFFFF AND SUB PUSH2 0x1D3C JUMPI PUSH0 PUSH1 0x40 MLOAD PUSH32 0xE602DF0500000000000000000000000000000000000000000000000000000000 DUP2 MSTORE PUSH1 0x4 ADD PUSH2 0x1D33 SWAP2 SWAP1 PUSH2 0x25FB JUMP JUMPDEST PUSH1 0x40 MLOAD DUP1 SWAP2 SUB SWAP1 REVERT JUMPDEST PUSH0 PUSH20 0xFFFFFFFFFFFFFFFFFFFFFFFFFFFFFFFFFFFFFFFF AND DUP4 PUSH20 0xFFFFFFFFFFFFFFFFFFFFFFFFFFFFFFFFFFFFFFFF AND SUB PUSH2 0x1DAC JUMPI PUSH0 PUSH1 0x40 MLOAD PUSH32 0x94280D6200000000000000000000000000000000000000000000000000000000 DUP2 MSTORE PUSH1 0x4 ADD PUSH2 0x1DA3 SWAP2 SWAP1 PUSH2 0x25FB JUMP JUMPDEST PUSH1 0x40 MLOAD DUP1 SWAP2 SUB SWAP1 REVERT JUMPDEST DUP2 PUSH1 0x1 PUSH0 DUP7 PUSH20 0xFFFFFFFFFFFFFFFFFFFFFFFFFFFFFFFFFFFFFFFF AND PUSH20 0xFFFFFFFFFFFFFFFFFFFFFFFFFFFFFFFFFFFFFFFF AND DUP2 MSTORE PUSH1 0x20 ADD SWAP1 DUP2 MSTORE PUSH1 0x20 ADD PUSH0 KECCAK256 PUSH0 DUP6 PUSH20 0xFFFFFFFFFFFFFFFFFFFFFFFFFFFFFFFFFFFFFFFF AND PUSH20 0xFFFFFFFFFFFFFFFFFFFFFFFFFFFFFFFFFFFFFFFF AND DUP2 MSTORE PUSH1 0x20 ADD SWAP1 DUP2 MSTORE PUSH1 0x20 ADD PUSH0 KECCAK256 DUP2 SWAP1 SSTORE POP DUP1 ISZERO PUSH2 0x1E95 JUMPI DUP3 PUSH20 0xFFFFFFFFFFFFFFFFFFFFFFFFFFFFFFFFFFFFFFFF AND DUP5 PUSH20 0xFFFFFFFFFFFFFFFFFFFFFFFFFFFFFFFFFFFFFFFF AND PUSH32 0x8C5BE1E5EBEC7D5BD14F71427D1E84F3DD0314C0F7B2291E5B200AC8C7C3B925 DUP5 PUSH1 0x40 MLOAD PUSH2 0x1E8C SWAP2 SWAP1 PUSH2 0x23C1 JUMP JUMPDEST PUSH1 0x40 MLOAD DUP1 SWAP2 SUB SWAP1 LOG3 JUMPDEST POP POP POP POP JUMP JUMPDEST PUSH0 PUSH20 0xFFFFFFFFFFFFFFFFFFFFFFFFFFFFFFFFFFFFFFFF AND DUP4 PUSH20 0xFFFFFFFFFFFFFFFFFFFFFFFFFFFFFFFFFFFFFFFF AND SUB PUSH2 0x1EEB JUMPI DUP1 PUSH1 0x2 PUSH0 DUP3 DUP3 SLOAD PUSH2 0x1EDF SWAP2 SWAP1 PUSH2 0x2C06 JUMP JUMPDEST SWAP3 POP POP DUP2 SWAP1 SSTORE POP PUSH2 0x1FB9 JUMP JUMPDEST PUSH0 PUSH0 PUSH0 DUP6 PUSH20 0xFFFFFFFFFFFFFFFFFFFFFFFFFFFFFFFFFFFFFFFF AND PUSH20 0xFFFFFFFFFFFFFFFFFFFFFFFFFFFFFFFFFFFFFFFF AND DUP2 MSTORE PUSH1 0x20 ADD SWAP1 DUP2 MSTORE PUSH1 0x20 ADD PUSH0 KECCAK256 SLOAD SWAP1 POP DUP2 DUP2 LT ISZERO PUSH2 0x1F74 JUMPI DUP4 DUP2 DUP4 PUSH1 0x40 MLOAD PUSH32 0xE450D38C00000000000000000000000000000000000000000000000000000000 DUP2 MSTORE PUSH1 0x4 ADD PUSH2 0x1F6B SWAP4 SWAP3 SWAP2 SWAP1 PUSH2 0x2B0D JUMP JUMPDEST PUSH1 0x40 MLOAD DUP1 SWAP2 SUB SWAP1 REVERT JUMPDEST DUP2 DUP2 SUB PUSH0 PUSH0 DUP7 PUSH20 0xFFFFFFFFFFFFFFFFFFFFFFFFFFFFFFFFFFFFFFFF AND PUSH20 0xFFFFFFFFFFFFFFFFFFFFFFFFFFFFFFFFFFFFFFFF AND DUP2 MSTORE PUSH1 0x20 ADD SWAP1 DUP2 MSTORE PUSH1 0x20 ADD PUSH0 KECCAK256 DUP2 SWAP1 SSTORE POP POP JUMPDEST PUSH0 PUSH20 0xFFFFFFFFFFFFFFFFFFFFFFFFFFFFFFFFFFFFFFFF AND DUP3 PUSH20 0xFFFFFFFFFFFFFFFFFFFFFFFFFFFFFFFFFFFFFFFF AND SUB PUSH2 0x2000 JUMPI DUP1 PUSH1 0x2 PUSH0 DUP3 DUP3 SLOAD SUB SWAP3 POP POP DUP2 SWAP1 SSTORE POP PUSH2 0x204A JUMP JUMPDEST DUP1 PUSH0 PUSH0 DUP5 PUSH20 0xFFFFFFFFFFFFFFFFFFFFFFFFFFFFFFFFFFFFFFFF AND PUSH20 0xFFFFFFFFFFFFFFFFFFFFFFFFFFFFFFFFFFFFFFFF AND DUP2 MSTORE PUSH1 0x20 ADD SWAP1 DUP2 MSTORE PUSH1 0x20 ADD PUSH0 KECCAK256 PUSH0 DUP3 DUP3 SLOAD ADD SWAP3 POP POP DUP2 SWAP1 SSTORE POP JUMPDEST DUP2 PUSH20 0xFFFFFFFFFFFFFFFFFFFFFFFFFFFFFFFFFFFFFFFF AND DUP4 PUSH20 0xFFFFFFFFFFFFFFFFFFFFFFFFFFFFFFFFFFFFFFFF AND PUSH32 0xDDF252AD1BE2C89B69C2B068FC378DAA952BA7F163C4A11628F55A4DF523B3EF DUP4 PUSH1 0x40 MLOAD PUSH2 0x20A7 SWAP2 SWAP1 PUSH2 0x23C1 JUMP JUMPDEST PUSH1 0x40 MLOAD DUP1 SWAP2 SUB SWAP1 LOG3 POP POP POP JUMP JUMPDEST PUSH2 0x20BE DUP3 DUP3 PUSH2 0xB3D JUMP JUMPDEST PUSH2 0x2101 JUMPI DUP1 DUP3 PUSH1 0x40 MLOAD PUSH32 0xE2517D3F00000000000000000000000000000000000000000000000000000000 DUP2 MSTORE PUSH1 0x4 ADD PUSH2 0x20F8 SWAP3 SWAP2 SWAP1 PUSH2 0x2C39 JUMP JUMPDEST PUSH1 0x40 MLOAD DUP1 SWAP2 SUB SWAP1 REVERT JUMPDEST POP POP JUMP JUMPDEST PUSH0 PUSH0 PUSH1 0x20 PUSH0 DUP5 MLOAD PUSH1 0x20 DUP7 ADD PUSH0 DUP9 GAS CALL DUP1 PUSH2 0x2124 JUMPI PUSH1 0x40 MLOAD RETURNDATASIZE PUSH0 DUP3 RETURNDATACOPY RETURNDATASIZE DUP2 REVERT JUMPDEST RETURNDATASIZE SWAP3 POP PUSH0 MLOAD SWAP2 POP POP PUSH0 DUP3 EQ PUSH2 0x213D JUMPI PUSH1 0x1 DUP2 EQ ISZERO PUSH2 0x2158 JUMP JUMPDEST PUSH0 DUP5 PUSH20 0xFFFFFFFFFFFFFFFFFFFFFFFFFFFFFFFFFFFFFFFF AND EXTCODESIZE EQ JUMPDEST ISZERO PUSH2 0x219A JUMPI DUP4 PUSH1 0x40 MLOAD PUSH32 0x5274AFE700000000000000000000000000000000000000000000000000000000 DUP2 MSTORE PUSH1 0x4 ADD PUSH2 0x2191 SWAP2 SWAP1 PUSH2 0x25FB JUMP JUMPDEST PUSH1 0x40 MLOAD DUP1 SWAP2 SUB SWAP1 REVERT JUMPDEST POP POP POP POP JUMP JUMPDEST PUSH0 PUSH0 REVERT JUMPDEST PUSH0 PUSH32 0xFFFFFFFF00000000000000000000000000000000000000000000000000000000 DUP3 AND SWAP1 POP SWAP2 SWAP1 POP JUMP JUMPDEST PUSH2 0x21D8 DUP2 PUSH2 0x21A4 JUMP JUMPDEST DUP2 EQ PUSH2 0x21E2 JUMPI PUSH0 PUSH0 REVERT JUMPDEST POP JUMP JUMPDEST PUSH0 DUP2 CALLDATALOAD SWAP1 POP PUSH2 0x21F3 DUP2 PUSH2 0x21CF JUMP JUMPDEST SWAP3 SWAP2 POP POP JUMP JUMPDEST PUSH0 PUSH1 0x20 DUP3 DUP5 SUB SLT ISZERO PUSH2 0x220E JUMPI PUSH2 0x220D PUSH2 0x21A0 JUMP JUMPDEST JUMPDEST PUSH0 PUSH2 0x221B DUP5 DUP3 DUP6 ADD PUSH2 0x21E5 JUMP JUMPDEST SWAP2 POP POP SWAP3 SWAP2 POP POP JUMP JUMPDEST PUSH0 DUP2 ISZERO ISZERO SWAP1 POP SWAP2 SWAP1 POP JUMP JUMPDEST PUSH2 0x2238 DUP2 PUSH2 0x2224 JUMP JUMPDEST DUP3 MSTORE POP POP JUMP JUMPDEST PUSH0 PUSH1 0x20 DUP3 ADD SWAP1 POP PUSH2 0x2251 PUSH0 DUP4 ADD DUP5 PUSH2 0x222F JUMP JUMPDEST SWAP3 SWAP2 POP POP JUMP JUMPDEST PUSH0 DUP2 MLOAD SWAP1 POP SWAP2 SWAP1 POP JUMP JUMPDEST PUSH0 DUP3 DUP3 MSTORE PUSH1 0x20 DUP3 ADD SWAP1 POP SWAP3 SWAP2 POP POP JUMP JUMPDEST DUP3 DUP2 DUP4 MCOPY PUSH0 DUP4 DUP4 ADD MSTORE POP POP POP JUMP JUMPDEST PUSH0 PUSH1 0x1F NOT PUSH1 0x1F DUP4 ADD AND SWAP1 POP SWAP2 SWAP1 POP JUMP JUMPDEST PUSH0 PUSH2 0x2299 DUP3 PUSH2 0x2257 JUMP JUMPDEST PUSH2 0x22A3 DUP2 DUP6 PUSH2 0x2261 JUMP JUMPDEST SWAP4 POP PUSH2 0x22B3 DUP2 DUP6 PUSH1 0x20 DUP7 ADD PUSH2 0x2271 JUMP JUMPDEST PUSH2 0x22BC DUP2 PUSH2 0x227F JUMP JUMPDEST DUP5 ADD SWAP2 POP POP SWAP3 SWAP2 POP POP JUMP JUMPDEST PUSH0 PUSH1 0x20 DUP3 ADD SWAP1 POP DUP2 DUP2 SUB PUSH0 DUP4 ADD MSTORE PUSH2 0x22DF DUP2 DUP5 PUSH2 0x228F JUMP JUMPDEST SWAP1 POP SWAP3 SWAP2 POP POP JUMP JUMPDEST PUSH0 PUSH20 0xFFFFFFFFFFFFFFFFFFFFFFFFFFFFFFFFFFFFFFFF DUP3 AND SWAP1 POP SWAP2 SWAP1 POP JUMP JUMPDEST PUSH0 PUSH2 0x2310 DUP3 PUSH2 0x22E7 JUMP JUMPDEST SWAP1 POP SWAP2 SWAP1 POP JUMP JUMPDEST PUSH2 0x2320 DUP2 PUSH2 0x2306 JUMP JUMPDEST DUP2 EQ PUSH2 0x232A JUMPI PUSH0 PUSH0 REVERT JUMPDEST POP JUMP JUMPDEST PUSH0 DUP2 CALLDATALOAD SWAP1 POP PUSH2 0x233B DUP2 PUSH2 0x2317 JUMP JUMPDEST SWAP3 SWAP2 POP POP JUMP JUMPDEST PUSH0 DUP2 SWAP1 POP SWAP2 SWAP1 POP JUMP JUMPDEST PUSH2 0x2353 DUP2 PUSH2 0x2341 JUMP JUMPDEST DUP2 EQ PUSH2 0x235D JUMPI PUSH0 PUSH0 REVERT JUMPDEST POP JUMP JUMPDEST PUSH0 DUP2 CALLDATALOAD SWAP1 POP PUSH2 0x236E DUP2 PUSH2 0x234A JUMP JUMPDEST SWAP3 SWAP2 POP POP JUMP JUMPDEST PUSH0 PUSH0 PUSH1 0x40 DUP4 DUP6 SUB SLT ISZERO PUSH2 0x238A JUMPI PUSH2 0x2389 PUSH2 0x21A0 JUMP JUMPDEST JUMPDEST PUSH0 PUSH2 0x2397 DUP6 DUP3 DUP7 ADD PUSH2 0x232D JUMP JUMPDEST SWAP3 POP POP PUSH1 0x20 PUSH2 0x23A8 DUP6 DUP3 DUP7 ADD PUSH2 0x2360 JUMP JUMPDEST SWAP2 POP POP SWAP3 POP SWAP3 SWAP1 POP JUMP JUMPDEST PUSH2 0x23BB DUP2 PUSH2 0x2341 JUMP JUMPDEST DUP3 MSTORE POP POP JUMP JUMPDEST PUSH0 PUSH1 0x20 DUP3 ADD SWAP1 POP PUSH2 0x23D4 PUSH0 DUP4 ADD DUP5 PUSH2 0x23B2 JUMP JUMPDEST SWAP3 SWAP2 POP POP JUMP JUMPDEST PUSH0 PUSH1 0x20 DUP3 DUP5 SUB SLT ISZERO PUSH2 0x23EF JUMPI PUSH2 0x23EE PUSH2 0x21A0 JUMP JUMPDEST JUMPDEST PUSH0 PUSH2 0x23FC DUP5 DUP3 DUP6 ADD PUSH2 0x2360 JUMP JUMPDEST SWAP2 POP POP SWAP3 SWAP2 POP POP JUMP JUMPDEST PUSH0 PUSH0 PUSH0 PUSH1 0x60 DUP5 DUP7 SUB SLT ISZERO PUSH2 0x241C JUMPI PUSH2 0x241B PUSH2 0x21A0 JUMP JUMPDEST JUMPDEST PUSH0 PUSH2 0x2429 DUP7 DUP3 DUP8 ADD PUSH2 0x232D JUMP JUMPDEST SWAP4 POP POP PUSH1 0x20 PUSH2 0x243A DUP7 DUP3 DUP8 ADD PUSH2 0x232D JUMP JUMPDEST SWAP3 POP POP PUSH1 0x40 PUSH2 0x244B DUP7 DUP3 DUP8 ADD PUSH2 0x2360 JUMP JUMPDEST SWAP2 POP POP SWAP3 POP SWAP3 POP SWAP3 JUMP JUMPDEST PUSH0 DUP2 SWAP1 POP SWAP2 SWAP1 POP JUMP JUMPDEST PUSH2 0x2467 DUP2 PUSH2 0x2455 JUMP JUMPDEST DUP2 EQ PUSH2 0x2471 JUMPI PUSH0 PUSH0 REVERT JUMPDEST POP JUMP JUMPDEST PUSH0 DUP2 CALLDATALOAD SWAP1 POP PUSH2 0x2482 DUP2 PUSH2 0x245E JUMP JUMPDEST SWAP3 SWAP2 POP POP JUMP JUMPDEST PUSH0 PUSH1 0x20 DUP3 DUP5 SUB SLT ISZERO PUSH2 0x249D JUMPI PUSH2 0x249C PUSH2 0x21A0 JUMP JUMPDEST JUMPDEST PUSH0 PUSH2 0x24AA DUP5 DUP3 DUP6 ADD PUSH2 0x2474 JUMP JUMPDEST SWAP2 POP POP SWAP3 SWAP2 POP POP JUMP JUMPDEST PUSH2 0x24BC DUP2 PUSH2 0x2455 JUMP JUMPDEST DUP3 MSTORE POP POP JUMP JUMPDEST PUSH0 PUSH1 0x20 DUP3 ADD SWAP1 POP PUSH2 0x24D5 PUSH0 DUP4 ADD DUP5 PUSH2 0x24B3 JUMP JUMPDEST SWAP3 SWAP2 POP POP JUMP JUMPDEST PUSH0 PUSH0 PUSH1 0x40 DUP4 DUP6 SUB SLT ISZERO PUSH2 0x24F1 JUMPI PUSH2 0x24F0 PUSH2 0x21A0 JUMP JUMPDEST JUMPDEST PUSH0 PUSH2 0x24FE DUP6 DUP3 DUP7 ADD PUSH2 0x2474 JUMP JUMPDEST SWAP3 POP POP PUSH1 0x20 PUSH2 0x250F DUP6 DUP3 DUP7 ADD PUSH2 0x232D JUMP JUMPDEST SWAP2 POP POP SWAP3 POP SWAP3 SWAP1 POP JUMP JUMPDEST PUSH0 PUSH1 0xFF DUP3 AND SWAP1 POP SWAP2 SWAP1 POP JUMP JUMPDEST PUSH2 0x252E DUP2 PUSH2 0x2519 JUMP JUMPDEST DUP3 MSTORE POP POP JUMP JUMPDEST PUSH0 PUSH1 0x20 DUP3 ADD SWAP1 POP PUSH2 0x2547 PUSH0 DUP4 ADD DUP5 PUSH2 0x2525 JUMP JUMPDEST SWAP3 SWAP2 POP POP JUMP JUMPDEST PUSH0 PUSH1 0x20 DUP3 DUP5 SUB SLT ISZERO PUSH2 0x2562 JUMPI PUSH2 0x2561 PUSH2 0x21A0 JUMP JUMPDEST JUMPDEST PUSH0 PUSH2 0x256F DUP5 DUP3 DUP6 ADD PUSH2 0x232D JUMP JUMPDEST SWAP2 POP POP SWAP3 SWAP2 POP POP JUMP JUMPDEST PUSH0 DUP2 SWAP1 POP SWAP2 SWAP1 POP JUMP JUMPDEST PUSH0 PUSH2 0x259B PUSH2 0x2596 PUSH2 0x2591 DUP5 PUSH2 0x22E7 JUMP JUMPDEST PUSH2 0x2578 JUMP JUMPDEST PUSH2 0x22E7 JUMP JUMPDEST SWAP1 POP SWAP2 SWAP1 POP JUMP JUMPDEST PUSH0 PUSH2 0x25AC DUP3 PUSH2 0x2581 JUMP JUMPDEST SWAP1 POP SWAP2 SWAP1 POP JUMP JUMPDEST PUSH0 PUSH2 0x25BD DUP3 PUSH2 0x25A2 JUMP JUMPDEST SWAP1 POP SWAP2 SWAP1 POP JUMP JUMPDEST PUSH2 0x25CD DUP2 PUSH2 0x25B3 JUMP JUMPDEST DUP3 MSTORE POP POP JUMP JUMPDEST PUSH0 PUSH1 0x20 DUP3 ADD SWAP1 POP PUSH2 0x25E6 PUSH0 DUP4 ADD DUP5 PUSH2 0x25C4 JUMP JUMPDEST SWAP3 SWAP2 POP POP JUMP JUMPDEST PUSH2 0x25F5 DUP2 PUSH2 0x2306 JUMP JUMPDEST DUP3 MSTORE POP POP JUMP JUMPDEST PUSH0 PUSH1 0x20 DUP3 ADD SWAP1 POP PUSH2 0x260E PUSH0 DUP4 ADD DUP5 PUSH2 0x25EC JUMP JUMPDEST SWAP3 SWAP2 POP POP JUMP JUMPDEST PUSH0 PUSH2 0x261E DUP3 PUSH2 0x25A2 JUMP JUMPDEST SWAP1 POP SWAP2 SWAP1 POP JUMP JUMPDEST PUSH2 0x262E DUP2 PUSH2 0x2614 JUMP JUMPDEST DUP3 MSTORE POP POP JUMP JUMPDEST PUSH0 PUSH1 0x20 DUP3 ADD SWAP1 POP PUSH2 0x2647 PUSH0 DUP4 ADD DUP5 PUSH2 0x2625 JUMP JUMPDEST SWAP3 SWAP2 POP POP JUMP JUMPDEST PUSH0 PUSH0 PUSH1 0x40 DUP4 DUP6 SUB SLT ISZERO PUSH2 0x2663 JUMPI PUSH2 0x2662 PUSH2 0x21A0 JUMP JUMPDEST JUMPDEST PUSH0 PUSH2 0x2670 DUP6 DUP3 DUP7 ADD PUSH2 0x232D JUMP JUMPDEST SWAP3 POP POP PUSH1 0x20 PUSH2 0x2681 DUP6 DUP3 DUP7 ADD PUSH2 0x232D JUMP JUMPDEST SWAP2 POP POP SWAP3 POP SWAP3 SWAP1 POP JUMP JUMPDEST PUSH32 0x4E487B7100000000000000000000000000000000000000000000000000000000 PUSH0 MSTORE PUSH1 0x22 PUSH1 0x4 MSTORE PUSH1 0x24 PUSH0 REVERT JUMPDEST PUSH0 PUSH1 0x2 DUP3 DIV SWAP1 POP PUSH1 0x1 DUP3 AND DUP1 PUSH2 0x26CF JUMPI PUSH1 0x7F DUP3 AND SWAP2 POP JUMPDEST PUSH1 0x20 DUP3 LT DUP2 SUB PUSH2 0x26E2 JUMPI PUSH2 0x26E1 PUSH2 0x268B JUMP JUMPDEST JUMPDEST POP SWAP2 SWAP1 POP JUMP JUMPDEST PUSH32 0x4E487B7100000000000000000000000000000000000000000000000000000000 PUSH0 MSTORE PUSH1 0x11 PUSH1 0x4 MSTORE PUSH1 0x24 PUSH0 REVERT JUMPDEST PUSH0 DUP2 PUSH1 0x1 SHR SWAP1 POP SWAP2 SWAP1 POP JUMP JUMPDEST PUSH0 PUSH0 DUP3 SWAP2 POP DUP4 SWAP1 POP JUMPDEST PUSH1 0x1 DUP6 GT ISZERO PUSH2 0x276A JUMPI DUP1 DUP7 DIV DUP2 GT ISZERO PUSH2 0x2746 JUMPI PUSH2 0x2745 PUSH2 0x26E8 JUMP JUMPDEST JUMPDEST PUSH1 0x1 DUP6 AND ISZERO PUSH2 0x2755 JUMPI DUP1 DUP3 MUL SWAP2 POP JUMPDEST DUP1 DUP2 MUL SWAP1 POP PUSH2 0x2763 DUP6 PUSH2 0x2715 JUMP JUMPDEST SWAP5 POP PUSH2 0x272A JUMP JUMPDEST SWAP5 POP SWAP5 SWAP3 POP POP POP JUMP JUMPDEST PUSH0 DUP3 PUSH2 0x2782 JUMPI PUSH1 0x1 SWAP1 POP PUSH2 0x283D JUMP JUMPDEST DUP2 PUSH2 0x278F JUMPI PUSH0 SWAP1 POP PUSH2 0x283D JUMP JUMPDEST DUP2 PUSH1 0x1 DUP2 EQ PUSH2 0x27A5 JUMPI PUSH1 0x2 DUP2 EQ PUSH2 0x27AF JUMPI PUSH2 0x27DE JUMP JUMPDEST PUSH1 0x1 SWAP2 POP POP PUSH2 0x283D JUMP JUMPDEST PUSH1 0xFF DUP5 GT ISZERO PUSH2 0x27C1 JUMPI PUSH2 0x27C0 PUSH2 0x26E8 JUMP JUMPDEST JUMPDEST DUP4 PUSH1 0x2 EXP SWAP2 POP DUP5 DUP3 GT ISZERO PUSH2 0x27D8 JUMPI PUSH2 0x27D7 PUSH2 0x26E8 JUMP JUMPDEST JUMPDEST POP PUSH2 0x283D JUMP JUMPDEST POP PUSH1 0x20 DUP4 LT PUSH2 0x133 DUP4 LT AND PUSH1 0x4E DUP5 LT PUSH1 0xB DUP5 LT AND OR ISZERO PUSH2 0x2813 JUMPI DUP3 DUP3 EXP SWAP1 POP DUP4 DUP2 GT ISZERO PUSH2 0x280E JUMPI PUSH2 0x280D PUSH2 0x26E8 JUMP JUMPDEST JUMPDEST PUSH2 0x283D JUMP JUMPDEST PUSH2 0x2820 DUP5 DUP5 DUP5 PUSH1 0x1 PUSH2 0x2721 JUMP JUMPDEST SWAP3 POP SWAP1 POP DUP2 DUP5 DIV DUP2 GT ISZERO PUSH2 0x2837 JUMPI PUSH2 0x2836 PUSH2 0x26E8 JUMP JUMPDEST JUMPDEST DUP2 DUP2 MUL SWAP1 POP JUMPDEST SWAP4 SWAP3 POP POP POP JUMP JUMPDEST PUSH0 PUSH2 0x284E DUP3 PUSH2 0x2341 JUMP JUMPDEST SWAP2 POP PUSH2 0x2859 DUP4 PUSH2 0x2519 JUMP JUMPDEST SWAP3 POP PUSH2 0x2886 PUSH32 0xFFFFFFFFFFFFFFFFFFFFFFFFFFFFFFFFFFFFFFFFFFFFFFFFFFFFFFFFFFFFFFFF DUP5 DUP5 PUSH2 0x2773 JUMP JUMPDEST SWAP1 POP SWAP3 SWAP2 POP POP JUMP JUMPDEST PUSH0 PUSH2 0x2898 DUP3 PUSH2 0x2341 JUMP JUMPDEST SWAP2 POP PUSH2 0x28A3 DUP4 PUSH2 0x2341 JUMP JUMPDEST SWAP3 POP DUP3 DUP3 MUL PUSH2 0x28B1 DUP2 PUSH2 0x2341 JUMP JUMPDEST SWAP2 POP DUP3 DUP3 DIV DUP5 EQ DUP4 ISZERO OR PUSH2 0x28C8 JUMPI PUSH2 0x28C7 PUSH2 0x26E8 JUMP JUMPDEST JUMPDEST POP SWAP3 SWAP2 POP POP JUMP JUMPDEST PUSH32 0x4E487B7100000000000000000000000000000000000000000000000000000000 PUSH0 MSTORE PUSH1 0x12 PUSH1 0x4 MSTORE PUSH1 0x24 PUSH0 REVERT JUMPDEST PUSH0 PUSH2 0x2906 DUP3 PUSH2 0x2341 JUMP JUMPDEST SWAP2 POP PUSH2 0x2911 DUP4 PUSH2 0x2341 JUMP JUMPDEST SWAP3 POP DUP3 PUSH2 0x2921 JUMPI PUSH2 0x2920 PUSH2 0x28CF JUMP JUMPDEST JUMPDEST DUP3 DUP3 DIV SWAP1 POP SWAP3 SWAP2 POP POP JUMP JUMPDEST PUSH2 0x2935 DUP2 PUSH2 0x2519 JUMP JUMPDEST DUP2 EQ PUSH2 0x293F JUMPI PUSH0 PUSH0 REVERT JUMPDEST POP JUMP JUMPDEST PUSH0 DUP2 MLOAD SWAP1 POP PUSH2 0x2950 DUP2 PUSH2 0x292C JUMP JUMPDEST SWAP3 SWAP2 POP POP JUMP JUMPDEST PUSH0 PUSH1 0x20 DUP3 DUP5 SUB SLT ISZERO PUSH2 0x296B JUMPI PUSH2 0x296A PUSH2 0x21A0 JUMP JUMPDEST JUMPDEST PUSH0 PUSH2 0x2978 DUP5 DUP3 DUP6 ADD PUSH2 0x2942 JUMP JUMPDEST SWAP2 POP POP SWAP3 SWAP2 POP POP JUMP JUMPDEST PUSH0 PUSH1 0x40 DUP3 ADD SWAP1 POP PUSH2 0x2994 PUSH0 DUP4 ADD DUP6 PUSH2 0x23B2 JUMP JUMPDEST PUSH2 0x29A1 PUSH1 0x20 DUP4 ADD DUP5 PUSH2 0x23B2 JUMP JUMPDEST SWAP4 SWAP3 POP POP POP JUMP JUMPDEST PUSH0 PUSH10 0xFFFFFFFFFFFFFFFFFFFF DUP3 AND SWAP1 POP SWAP2 SWAP1 POP JUMP JUMPDEST PUSH2 0x29C6 DUP2 PUSH2 0x29A8 JUMP JUMPDEST DUP2 EQ PUSH2 0x29D0 JUMPI PUSH0 PUSH0 REVERT JUMPDEST POP JUMP JUMPDEST PUSH0 DUP2 MLOAD SWAP1 POP PUSH2 0x29E1 DUP2 PUSH2 0x29BD JUMP JUMPDEST SWAP3 SWAP2 POP POP JUMP JUMPDEST PUSH0 DUP2 SWAP1 POP SWAP2 SWAP1 POP JUMP JUMPDEST PUSH2 0x29F9 DUP2 PUSH2 0x29E7 JUMP JUMPDEST DUP2 EQ PUSH2 0x2A03 JUMPI PUSH0 PUSH0 REVERT JUMPDEST POP JUMP JUMPDEST PUSH0 DUP2 MLOAD SWAP1 POP PUSH2 0x2A14 DUP2 PUSH2 0x29F0 JUMP JUMPDEST SWAP3 SWAP2 POP POP JUMP JUMPDEST PUSH0 DUP2 MLOAD SWAP1 POP PUSH2 0x2A28 DUP2 PUSH2 0x234A JUMP JUMPDEST SWAP3 SWAP2 POP POP JUMP JUMPDEST PUSH0 PUSH0 PUSH0 PUSH0 PUSH0 PUSH1 0xA0 DUP7 DUP9 SUB SLT ISZERO PUSH2 0x2A47 JUMPI PUSH2 0x2A46 PUSH2 0x21A0 JUMP JUMPDEST JUMPDEST PUSH0 PUSH2 0x2A54 DUP9 DUP3 DUP10 ADD PUSH2 0x29D3 JUMP JUMPDEST SWAP6 POP POP PUSH1 0x20 PUSH2 0x2A65 DUP9 DUP3 DUP10 ADD PUSH2 0x2A06 JUMP JUMPDEST SWAP5 POP POP PUSH1 0x40 PUSH2 0x2A76 DUP9 DUP3 DUP10 ADD PUSH2 0x2A1A JUMP JUMPDEST SWAP4 POP POP PUSH1 0x60 PUSH2 0x2A87 DUP9 DUP3 DUP10 ADD PUSH2 0x2A1A JUMP JUMPDEST SWAP3 POP POP PUSH1 0x80 PUSH2 0x2A98 DUP9 DUP3 DUP10 ADD PUSH2 0x29D3 JUMP JUMPDEST SWAP2 POP POP SWAP3 SWAP6 POP SWAP3 SWAP6 SWAP1 SWAP4 POP JUMP JUMPDEST PUSH32 0x496E76616C6964207072696365206665656420726573706F6E73650000000000 PUSH0 DUP3 ADD MSTORE POP JUMP JUMPDEST PUSH0 PUSH2 0x2AD9 PUSH1 0x1B DUP4 PUSH2 0x2261 JUMP JUMPDEST SWAP2 POP PUSH2 0x2AE4 DUP3 PUSH2 0x2AA5 JUMP JUMPDEST PUSH1 0x20 DUP3 ADD SWAP1 POP SWAP2 SWAP1 POP JUMP JUMPDEST PUSH0 PUSH1 0x20 DUP3 ADD SWAP1 POP DUP2 DUP2 SUB PUSH0 DUP4 ADD MSTORE PUSH2 0x2B06 DUP2 PUSH2 0x2ACD JUMP JUMPDEST SWAP1 POP SWAP2 SWAP1 POP JUMP JUMPDEST PUSH0 PUSH1 0x60 DUP3 ADD SWAP1 POP PUSH2 0x2B20 PUSH0 DUP4 ADD DUP7 PUSH2 0x25EC JUMP JUMPDEST PUSH2 0x2B2D PUSH1 0x20 DUP4 ADD DUP6 PUSH2 0x23B2 JUMP JUMPDEST PUSH2 0x2B3A PUSH1 0x40 DUP4 ADD DUP5 PUSH2 0x23B2 JUMP JUMPDEST SWAP5 SWAP4 POP POP POP POP JUMP JUMPDEST PUSH32 0x5265656E7472616E637947756172643A207265656E7472616E742063616C6C00 PUSH0 DUP3 ADD MSTORE POP JUMP JUMPDEST PUSH0 PUSH2 0x2B76 PUSH1 0x1F DUP4 PUSH2 0x2261 JUMP JUMPDEST SWAP2 POP PUSH2 0x2B81 DUP3 PUSH2 0x2B42 JUMP JUMPDEST PUSH1 0x20 DUP3 ADD SWAP1 POP SWAP2 SWAP1 POP JUMP JUMPDEST PUSH0 PUSH1 0x20 DUP3 ADD SWAP1 POP DUP2 DUP2 SUB PUSH0 DUP4 ADD MSTORE PUSH2 0x2BA3 DUP2 PUSH2 0x2B6A JUMP JUMPDEST SWAP1 POP SWAP2 SWAP1 POP JUMP JUMPDEST PUSH0 PUSH1 0x60 DUP3 ADD SWAP1 POP PUSH2 0x2BBD PUSH0 DUP4 ADD DUP7 PUSH2 0x25EC JUMP JUMPDEST PUSH2 0x2BCA PUSH1 0x20 DUP4 ADD DUP6 PUSH2 0x25EC JUMP JUMPDEST PUSH2 0x2BD7 PUSH1 0x40 DUP4 ADD DUP5 PUSH2 0x23B2 JUMP JUMPDEST SWAP5 SWAP4 POP POP POP POP JUMP JUMPDEST PUSH0 PUSH1 0x40 DUP3 ADD SWAP1 POP PUSH2 0x2BF2 PUSH0 DUP4 ADD DUP6 PUSH2 0x25EC JUMP JUMPDEST PUSH2 0x2BFF PUSH1 0x20 DUP4 ADD DUP5 PUSH2 0x23B2 JUMP JUMPDEST SWAP4 SWAP3 POP POP POP JUMP JUMPDEST PUSH0 PUSH2 0x2C10 DUP3 PUSH2 0x2341 JUMP JUMPDEST SWAP2 POP PUSH2 0x2C1B DUP4 PUSH2 0x2341 JUMP JUMPDEST SWAP3 POP DUP3 DUP3 ADD SWAP1 POP DUP1 DUP3 GT ISZERO PUSH2 0x2C33 JUMPI PUSH2 0x2C32 PUSH2 0x26E8 JUMP JUMPDEST JUMPDEST SWAP3 SWAP2 POP POP JUMP JUMPDEST PUSH0 PUSH1 0x40 DUP3 ADD SWAP1 POP PUSH2 0x2C4C PUSH0 DUP4 ADD DUP6 PUSH2 0x25EC JUMP JUMPDEST PUSH2 0x2C59 PUSH1 0x20 DUP4 ADD DUP5 PUSH2 0x24B3 JUMP JUMPDEST SWAP4 SWAP3 POP POP POP JUMP INVALID LOG2 PUSH5 0x6970667358 0x22 SLT KECCAK256 LOG2 0xB9 PUSH17 0xE1A8BAB334B08B6BA95EDCD96C4288E509 SLOAD SSTORE CALLF 0x8D0B 0xC1 PREVRANDAO SWAP9 SWAPN 0x6C SLOAD CALLDATASIZE PUSH5 0x736F6C6343 STOP ADDMOD 0x1E STOP CALLER "
		},
		"gasEstimates": {
			"creation": {
				"codeDepositCost": "2282800",
				"executionCost": "infinite",
				"totalCost": "infinite"
			},
			"external": {
				"DEFAULT_ADMIN_ROLE()": "441",
				"PRICE_FEED_MANAGER_ROLE()": "370",
				"allowance(address,address)": "infinite",
				"approve(address,uint256)": "infinite",
				"balanceOf(address)": "2940",
				"collateralDecimals()": "infinite",
				"collateralToken()": "infinite",
				"collateralizationRatio()": "2514",
				"decimals()": "406",
				"getCollateralForRedeem(uint256)": "infinite",
				"getCurrentPrice()": "infinite",
				"getRequiredCollateralForMint(uint256)": "infinite",
				"getRoleAdmin(bytes32)": "infinite",
				"grantRole(bytes32,address)": "infinite",
				"hasRole(bytes32,address)": "3167",
				"mint(uint256)": "infinite",
				"name()": "infinite",
				"owner()": "2626",
				"priceFeed()": "infinite",
				"redeem(uint256)": "infinite",
				"renounceOwnership()": "infinite",
				"renounceRole(bytes32,address)": "infinite",
				"revokeRole(bytes32,address)": "infinite",
				"setCollateralizationRatio(uint256)": "infinite",
				"setPriceFeedContract(address)": "infinite",
				"supportsInterface(bytes4)": "764",
				"symbol()": "infinite",
				"totalSupply()": "2478",
				"transfer(address,uint256)": "infinite",
				"transferFrom(address,address,uint256)": "infinite",
				"transferOwnership(address)": "infinite"
			}
		},
		"methodIdentifiers": {
			"DEFAULT_ADMIN_ROLE()": "a217fddf",
			"PRICE_FEED_MANAGER_ROLE()": "a2fd773d",
			"allowance(address,address)": "dd62ed3e",
			"approve(address,uint256)": "095ea7b3",
			"balanceOf(address)": "70a08231",
			"collateralDecimals()": "ec9c6c30",
			"collateralToken()": "b2016bd4",
			"collateralizationRatio()": "dcaf9c44",
			"decimals()": "313ce567",
			"getCollateralForRedeem(uint256)": "ba6af5ab",
			"getCurrentPrice()": "eb91d37e",
			"getRequiredCollateralForMint(uint256)": "1bde17fe",
			"getRoleAdmin(bytes32)": "248a9ca3",
			"grantRole(bytes32,address)": "2f2ff15d",
			"hasRole(bytes32,address)": "91d14854",
			"mint(uint256)": "a0712d68",
			"name()": "06fdde03",
			"owner()": "8da5cb5b",
			"priceFeed()": "741bef1a",
			"redeem(uint256)": "db006a75",
			"renounceOwnership()": "715018a6",
			"renounceRole(bytes32,address)": "36568abe",
			"revokeRole(bytes32,address)": "d547741f",
			"setCollateralizationRatio(uint256)": "e5829d20",
			"setPriceFeedContract(address)": "74626404",
			"supportsInterface(bytes4)": "01ffc9a7",
			"symbol()": "95d89b41",
			"totalSupply()": "18160ddd",
			"transfer(address,uint256)": "a9059cbb",
			"transferFrom(address,address,uint256)": "23b872dd",
			"transferOwnership(address)": "f2fde38b"
		}
	},
	"abi": [
		{
			"inputs": [
				{
					"internalType": "address",
					"name": "_collateralToken",
					"type": "address"
				},
				{
					"internalType": "address",
					"name": "_initialOwner",
					"type": "address"
				},
				{
					"internalType": "address",
					"name": "_priceFeed",
					"type": "address"
				}
			],
			"stateMutability": "nonpayable",
			"type": "constructor"
		},
		{
			"inputs": [],
			"name": "AccessControlBadConfirmation",
			"type": "error"
		},
		{
			"inputs": [
				{
					"internalType": "address",
					"name": "account",
					"type": "address"
				},
				{
					"internalType": "bytes32",
					"name": "neededRole",
					"type": "bytes32"
				}
			],
			"name": "AccessControlUnauthorizedAccount",
			"type": "error"
		},
		{
			"inputs": [],
			"name": "CollateralizationRatioTooLow",
			"type": "error"
		},
		{
			"inputs": [
				{
					"internalType": "address",
					"name": "spender",
					"type": "address"
				},
				{
					"internalType": "uint256",
					"name": "allowance",
					"type": "uint256"
				},
				{
					"internalType": "uint256",
					"name": "needed",
					"type": "uint256"
				}
			],
			"name": "ERC20InsufficientAllowance",
			"type": "error"
		},
		{
			"inputs": [
				{
					"internalType": "address",
					"name": "sender",
					"type": "address"
				},
				{
					"internalType": "uint256",
					"name": "balance",
					"type": "uint256"
				},
				{
					"internalType": "uint256",
					"name": "needed",
					"type": "uint256"
				}
			],
			"name": "ERC20InsufficientBalance",
			"type": "error"
		},
		{
			"inputs": [
				{
					"internalType": "address",
					"name": "approver",
					"type": "address"
				}
			],
			"name": "ERC20InvalidApprover",
			"type": "error"
		},
		{
			"inputs": [
				{
					"internalType": "address",
					"name": "receiver",
					"type": "address"
				}
			],
			"name": "ERC20InvalidReceiver",
			"type": "error"
		},
		{
			"inputs": [
				{
					"internalType": "address",
					"name": "sender",
					"type": "address"
				}
			],
			"name": "ERC20InvalidSender",
			"type": "error"
		},
		{
			"inputs": [
				{
					"internalType": "address",
					"name": "spender",
					"type": "address"
				}
			],
			"name": "ERC20InvalidSpender",
			"type": "error"
		},
		{
			"inputs": [],
			"name": "InsufficientStablecoinBalance",
			"type": "error"
		},
		{
			"inputs": [],
			"name": "InvalidCollateralTokenAddress",
			"type": "error"
		},
		{
			"inputs": [],
			"name": "InvalidPriceFeedAddress",
			"type": "error"
		},
		{
			"inputs": [],
			"name": "MintAmountIsZero",
			"type": "error"
		},
		{
			"inputs": [
				{
					"internalType": "address",
					"name": "owner",
					"type": "address"
				}
			],
			"name": "OwnableInvalidOwner",
			"type": "error"
		},
		{
			"inputs": [
				{
					"internalType": "address",
					"name": "account",
					"type": "address"
				}
			],
			"name": "OwnableUnauthorizedAccount",
			"type": "error"
		},
		{
			"inputs": [
				{
					"internalType": "address",
					"name": "token",
					"type": "address"
				}
			],
			"name": "SafeERC20FailedOperation",
			"type": "error"
		},
		{
			"anonymous": false,
			"inputs": [
				{
					"indexed": true,
					"internalType": "address",
					"name": "owner",
					"type": "address"
				},
				{
					"indexed": true,
					"internalType": "address",
					"name": "spender",
					"type": "address"
				},
				{
					"indexed": false,
					"internalType": "uint256",
					"name": "value",
					"type": "uint256"
				}
			],
			"name": "Approval",
			"type": "event"
		},
		{
			"anonymous": false,
			"inputs": [
				{
					"indexed": false,
					"internalType": "uint256",
					"name": "newRatio",
					"type": "uint256"
				}
			],
			"name": "CollateralizationRatioUpdated",
			"type": "event"
		},
		{
			"anonymous": false,
			"inputs": [
				{
					"indexed": true,
					"internalType": "address",
					"name": "user",
					"type": "address"
				},
				{
					"indexed": false,
					"internalType": "uint256",
					"name": "amount",
					"type": "uint256"
				},
				{
					"indexed": false,
					"internalType": "uint256",
					"name": "collateralDeposited",
					"type": "uint256"
				}
			],
			"name": "Minted",
			"type": "event"
		},
		{
			"anonymous": false,
			"inputs": [
				{
					"indexed": true,
					"internalType": "address",
					"name": "previousOwner",
					"type": "address"
				},
				{
					"indexed": true,
					"internalType": "address",
					"name": "newOwner",
					"type": "address"
				}
			],
			"name": "OwnershipTransferred",
			"type": "event"
		},
		{
			"anonymous": false,
			"inputs": [
				{
					"indexed": false,
					"internalType": "address",
					"name": "newPriceFeed",
					"type": "address"
				}
			],
			"name": "PriceFeedUpdated",
			"type": "event"
		},
		{
			"anonymous": false,
			"inputs": [
				{
					"indexed": true,
					"internalType": "address",
					"name": "user",
					"type": "address"
				},
				{
					"indexed": false,
					"internalType": "uint256",
					"name": "amount",
					"type": "uint256"
				},
				{
					"indexed": false,
					"internalType": "uint256",
					"name": "collateralReturned",
					"type": "uint256"
				}
			],
			"name": "Redeemed",
			"type": "event"
		},
		{
			"anonymous": false,
			"inputs": [
				{
					"indexed": true,
					"internalType": "bytes32",
					"name": "role",
					"type": "bytes32"
				},
				{
					"indexed": true,
					"internalType": "bytes32",
					"name": "previousAdminRole",
					"type": "bytes32"
				},
				{
					"indexed": true,
					"internalType": "bytes32",
					"name": "newAdminRole",
					"type": "bytes32"
				}
			],
			"name": "RoleAdminChanged",
			"type": "event"
		},
		{
			"anonymous": false,
			"inputs": [
				{
					"indexed": true,
					"internalType": "bytes32",
					"name": "role",
					"type": "bytes32"
				},
				{
					"indexed": true,
					"internalType": "address",
					"name": "account",
					"type": "address"
				},
				{
					"indexed": true,
					"internalType": "address",
					"name": "sender",
					"type": "address"
				}
			],
			"name": "RoleGranted",
			"type": "event"
		},
		{
			"anonymous": false,
			"inputs": [
				{
					"indexed": true,
					"internalType": "bytes32",
					"name": "role",
					"type": "bytes32"
				},
				{
					"indexed": true,
					"internalType": "address",
					"name": "account",
					"type": "address"
				},
				{
					"indexed": true,
					"internalType": "address",
					"name": "sender",
					"type": "address"
				}
			],
			"name": "RoleRevoked",
			"type": "event"
		},
		{
			"anonymous": false,
			"inputs": [
				{
					"indexed": true,
					"internalType": "address",
					"name": "from",
					"type": "address"
				},
				{
					"indexed": true,
					"internalType": "address",
					"name": "to",
					"type": "address"
				},
				{
					"indexed": false,
					"internalType": "uint256",
					"name": "value",
					"type": "uint256"
				}
			],
			"name": "Transfer",
			"type": "event"
		},
		{
			"inputs": [],
			"name": "DEFAULT_ADMIN_ROLE",
			"outputs": [
				{
					"internalType": "bytes32",
					"name": "",
					"type": "bytes32"
				}
			],
			"stateMutability": "view",
			"type": "function"
		},
		{
			"inputs": [],
			"name": "PRICE_FEED_MANAGER_ROLE",
			"outputs": [
				{
					"internalType": "bytes32",
					"name": "",
					"type": "bytes32"
				}
			],
			"stateMutability": "view",
			"type": "function"
		},
		{
			"inputs": [
				{
					"internalType": "address",
					"name": "owner",
					"type": "address"
				},
				{
					"internalType": "address",
					"name": "spender",
					"type": "address"
				}
			],
			"name": "allowance",
			"outputs": [
				{
					"internalType": "uint256",
					"name": "",
					"type": "uint256"
				}
			],
			"stateMutability": "view",
			"type": "function"
		},
		{
			"inputs": [
				{
					"internalType": "address",
					"name": "spender",
					"type": "address"
				},
				{
					"internalType": "uint256",
					"name": "value",
					"type": "uint256"
				}
			],
			"name": "approve",
			"outputs": [
				{
					"internalType": "bool",
					"name": "",
					"type": "bool"
				}
			],
			"stateMutability": "nonpayable",
			"type": "function"
		},
		{
			"inputs": [
				{
					"internalType": "address",
					"name": "account",
					"type": "address"
				}
			],
			"name": "balanceOf",
			"outputs": [
				{
					"internalType": "uint256",
					"name": "",
					"type": "uint256"
				}
			],
			"stateMutability": "view",
			"type": "function"
		},
		{
			"inputs": [],
			"name": "collateralDecimals",
			"outputs": [
				{
					"internalType": "uint8",
					"name": "",
					"type": "uint8"
				}
			],
			"stateMutability": "view",
			"type": "function"
		},
		{
			"inputs": [],
			"name": "collateralToken",
			"outputs": [
				{
					"internalType": "contract IERC20",
					"name": "",
					"type": "address"
				}
			],
			"stateMutability": "view",
			"type": "function"
		},
		{
			"inputs": [],
			"name": "collateralizationRatio",
			"outputs": [
				{
					"internalType": "uint256",
					"name": "",
					"type": "uint256"
				}
			],
			"stateMutability": "view",
			"type": "function"
		},
		{
			"inputs": [],
			"name": "decimals",
			"outputs": [
				{
					"internalType": "uint8",
					"name": "",
					"type": "uint8"
				}
			],
			"stateMutability": "view",
			"type": "function"
		},
		{
			"inputs": [
				{
					"internalType": "uint256",
					"name": "amount",
					"type": "uint256"
				}
			],
			"name": "getCollateralForRedeem",
			"outputs": [
				{
					"internalType": "uint256",
					"name": "",
					"type": "uint256"
				}
			],
			"stateMutability": "view",
			"type": "function"
		},
		{
			"inputs": [],
			"name": "getCurrentPrice",
			"outputs": [
				{
					"internalType": "uint256",
					"name": "",
					"type": "uint256"
				}
			],
			"stateMutability": "view",
			"type": "function"
		},
		{
			"inputs": [
				{
					"internalType": "uint256",
					"name": "amount",
					"type": "uint256"
				}
			],
			"name": "getRequiredCollateralForMint",
			"outputs": [
				{
					"internalType": "uint256",
					"name": "",
					"type": "uint256"
				}
			],
			"stateMutability": "view",
			"type": "function"
		},
		{
			"inputs": [
				{
					"internalType": "bytes32",
					"name": "role",
					"type": "bytes32"
				}
			],
			"name": "getRoleAdmin",
			"outputs": [
				{
					"internalType": "bytes32",
					"name": "",
					"type": "bytes32"
				}
			],
			"stateMutability": "view",
			"type": "function"
		},
		{
			"inputs": [
				{
					"internalType": "bytes32",
					"name": "role",
					"type": "bytes32"
				},
				{
					"internalType": "address",
					"name": "account",
					"type": "address"
				}
			],
			"name": "grantRole",
			"outputs": [],
			"stateMutability": "nonpayable",
			"type": "function"
		},
		{
			"inputs": [
				{
					"internalType": "bytes32",
					"name": "role",
					"type": "bytes32"
				},
				{
					"internalType": "address",
					"name": "account",
					"type": "address"
				}
			],
			"name": "hasRole",
			"outputs": [
				{
					"internalType": "bool",
					"name": "",
					"type": "bool"
				}
			],
			"stateMutability": "view",
			"type": "function"
		},
		{
			"inputs": [
				{
					"internalType": "uint256",
					"name": "amount",
					"type": "uint256"
				}
			],
			"name": "mint",
			"outputs": [],
			"stateMutability": "nonpayable",
			"type": "function"
		},
		{
			"inputs": [],
			"name": "name",
			"outputs": [
				{
					"internalType": "string",
					"name": "",
					"type": "string"
				}
			],
			"stateMutability": "view",
			"type": "function"
		},
		{
			"inputs": [],
			"name": "owner",
			"outputs": [
				{
					"internalType": "address",
					"name": "",
					"type": "address"
				}
			],
			"stateMutability": "view",
			"type": "function"
		},
		{
			"inputs": [],
			"name": "priceFeed",
			"outputs": [
				{
					"internalType": "contract AggregatorV3Interface",
					"name": "",
					"type": "address"
				}
			],
			"stateMutability": "view",
			"type": "function"
		},
		{
			"inputs": [
				{
					"internalType": "uint256",
					"name": "amount",
					"type": "uint256"
				}
			],
			"name": "redeem",
			"outputs": [],
			"stateMutability": "nonpayable",
			"type": "function"
		},
		{
			"inputs": [],
			"name": "renounceOwnership",
			"outputs": [],
			"stateMutability": "nonpayable",
			"type": "function"
		},
		{
			"inputs": [
				{
					"internalType": "bytes32",
					"name": "role",
					"type": "bytes32"
				},
				{
					"internalType": "address",
					"name": "callerConfirmation",
					"type": "address"
				}
			],
			"name": "renounceRole",
			"outputs": [],
			"stateMutability": "nonpayable",
			"type": "function"
		},
		{
			"inputs": [
				{
					"internalType": "bytes32",
					"name": "role",
					"type": "bytes32"
				},
				{
					"internalType": "address",
					"name": "account",
					"type": "address"
				}
			],
			"name": "revokeRole",
			"outputs": [],
			"stateMutability": "nonpayable",
			"type": "function"
		},
		{
			"inputs": [
				{
					"internalType": "uint256",
					"name": "newRatio",
					"type": "uint256"
				}
			],
			"name": "setCollateralizationRatio",
			"outputs": [],
			"stateMutability": "nonpayable",
			"type": "function"
		},
		{
			"inputs": [
				{
					"internalType": "address",
					"name": "_newPriceFeed",
					"type": "address"
				}
			],
			"name": "setPriceFeedContract",
			"outputs": [],
			"stateMutability": "nonpayable",
			"type": "function"
		},
		{
			"inputs": [
				{
					"internalType": "bytes4",
					"name": "interfaceId",
					"type": "bytes4"
				}
			],
			"name": "supportsInterface",
			"outputs": [
				{
					"internalType": "bool",
					"name": "",
					"type": "bool"
				}
			],
			"stateMutability": "view",
			"type": "function"
		},
		{
			"inputs": [],
			"name": "symbol",
			"outputs": [
				{
					"internalType": "string",
					"name": "",
					"type": "string"
				}
			],
			"stateMutability": "view",
			"type": "function"
		},
		{
			"inputs": [],
			"name": "totalSupply",
			"outputs": [
				{
					"internalType": "uint256",
					"name": "",
					"type": "uint256"
				}
			],
			"stateMutability": "view",
			"type": "function"
		},
		{
			"inputs": [
				{
					"internalType": "address",
					"name": "to",
					"type": "address"
				},
				{
					"internalType": "uint256",
					"name": "value",
					"type": "uint256"
				}
			],
			"name": "transfer",
			"outputs": [
				{
					"internalType": "bool",
					"name": "",
					"type": "bool"
				}
			],
			"stateMutability": "nonpayable",
			"type": "function"
		},
		{
			"inputs": [
				{
					"internalType": "address",
					"name": "from",
					"type": "address"
				},
				{
					"internalType": "address",
					"name": "to",
					"type": "address"
				},
				{
					"internalType": "uint256",
					"name": "value",
					"type": "uint256"
				}
			],
			"name": "transferFrom",
			"outputs": [
				{
					"internalType": "bool",
					"name": "",
					"type": "bool"
				}
			],
			"stateMutability": "nonpayable",
			"type": "function"
		},
		{
			"inputs": [
				{
					"internalType": "address",
					"name": "newOwner",
					"type": "address"
				}
			],
			"name": "transferOwnership",
			"outputs": [],
			"stateMutability": "nonpayable",
			"type": "function"
		}
	]
}