{
	"data": {
		"bytecode": {
			"linkReferences": {},
			"object": "608060405234801561000f575f5ffd5b50604051610e72380380610e72833981810160405281019061003191906100c6565b335f5f6101000a81548173ffffffffffffffffffffffffffffffffffffffff021916908373ffffffffffffffffffffffffffffffffffffffff160217905550426002819055508042610083919061011e565b60038190555050610151565b5f5ffd5b5f819050919050565b6100a581610093565b81146100af575f5ffd5b50565b5f815190506100c08161009c565b92915050565b5f602082840312156100db576100da61008f565b5b5f6100e8848285016100b2565b91505092915050565b7f4e487b71000000000000000000000000000000000000000000000000000000005f52601160045260245ffd5b5f61012882610093565b915061013383610093565b925082820190508082111561014b5761014a6100f1565b5b92915050565b610d148061015e5f395ff3fe608060405234801561000f575f5ffd5b5060043610610086575f3560e01c80637a8cd156116100595780637a8cd15614610102578063893d20e814610120578063a14ab9f81461013e578063f2fde38b1461015a57610086565b8063041991391461008a57806351811f04146100a85780635b9fdc30146100c6578063602bc62b146100e4575b5f5ffd5b610092610176565b60405161009f9190610693565b60405180910390f35b6100b06101b3565b6040516100bd91906106cb565b60405180910390f35b6100ce6101bc565b6040516100db9190610693565b60405180910390f35b6100ec610210565b6040516100f991906106cb565b60405180910390f35b61010a610219565b60405161011791906106cb565b60405180910390f35b61012861023f565b6040516101359190610723565b60405180910390f35b610158600480360381019061015391906107a5565b610266565b005b610174600480360381019061016f919061081a565b61034d565b005b60606040518060400160405280600a81526020017f54696d654c6f636b656400000000000000000000000000000000000000000000815250905090565b5f600254905090565b6060600354421015610203576040517f08c379a00000000000000000000000000000000000000000000000000000000081526004016101fa9061088f565b60405180910390fd5b61020b610505565b905090565b5f600354905090565b5f600354421061022b575f905061023c565b4260035461023991906108da565b90505b90565b5f5f5f9054906101000a900473ffffffffffffffffffffffffffffffffffffffff16905090565b5f5f9054906101000a900473ffffffffffffffffffffffffffffffffffffffff1673ffffffffffffffffffffffffffffffffffffffff163373ffffffffffffffffffffffffffffffffffffffff16146102f4576040517f08c379a00000000000000000000000000000000000000000000000000000000081526004016102eb90610957565b60405180910390fd5b818160019182610305929190610ba9565b503373ffffffffffffffffffffffffffffffffffffffff167f0977f4c93d6a66455eb4f1467e8a01fec7c62b1ce20353fb51b7269712e1196760405160405180910390a25050565b5f5f9054906101000a900473ffffffffffffffffffffffffffffffffffffffff1673ffffffffffffffffffffffffffffffffffffffff163373ffffffffffffffffffffffffffffffffffffffff16146103db576040517f08c379a00000000000000000000000000000000000000000000000000000000081526004016103d290610957565b60405180910390fd5b5f73ffffffffffffffffffffffffffffffffffffffff168173ffffffffffffffffffffffffffffffffffffffff1603610449576040517f08c379a000000000000000000000000000000000000000000000000000000000815260040161044090610cc0565b60405180910390fd5b8073ffffffffffffffffffffffffffffffffffffffff165f5f9054906101000a900473ffffffffffffffffffffffffffffffffffffffff1673ffffffffffffffffffffffffffffffffffffffff167f8be0079c531659141344cd1fd0a4f28419497f9722a3daafe3b4186f6b6457e060405160405180910390a3805f5f6101000a81548173ffffffffffffffffffffffffffffffffffffffff021916908373ffffffffffffffffffffffffffffffffffffffff16021790555050565b60605f5f9054906101000a900473ffffffffffffffffffffffffffffffffffffffff1673ffffffffffffffffffffffffffffffffffffffff163373ffffffffffffffffffffffffffffffffffffffff1614610595576040517f08c379a000000000000000000000000000000000000000000000000000000000815260040161058c90610957565b60405180910390fd5b600180546105a2906109d9565b80601f01602080910402602001604051908101604052809291908181526020018280546105ce906109d9565b80156106195780601f106105f057610100808354040283529160200191610619565b820191905f5260205f20905b8154815290600101906020018083116105fc57829003601f168201915b5050505050905090565b5f81519050919050565b5f82825260208201905092915050565b8281835e5f83830152505050565b5f601f19601f8301169050919050565b5f61066582610623565b61066f818561062d565b935061067f81856020860161063d565b6106888161064b565b840191505092915050565b5f6020820190508181035f8301526106ab818461065b565b905092915050565b5f819050919050565b6106c5816106b3565b82525050565b5f6020820190506106de5f8301846106bc565b92915050565b5f73ffffffffffffffffffffffffffffffffffffffff82169050919050565b5f61070d826106e4565b9050919050565b61071d81610703565b82525050565b5f6020820190506107365f830184610714565b92915050565b5f5ffd5b5f5ffd5b5f5ffd5b5f5ffd5b5f5ffd5b5f5f83601f84011261076557610764610744565b5b8235905067ffffffffffffffff81111561078257610781610748565b5b60208301915083600182028301111561079e5761079d61074c565b5b9250929050565b5f5f602083850312156107bb576107ba61073c565b5b5f83013567ffffffffffffffff8111156107d8576107d7610740565b5b6107e485828601610750565b92509250509250929050565b6107f981610703565b8114610803575f5ffd5b50565b5f81359050610814816107f0565b92915050565b5f6020828403121561082f5761082e61073c565b5b5f61083c84828501610806565b91505092915050565b7f426f78206973207374696c6c2074696d652d6c6f636b656400000000000000005f82015250565b5f61087960188361062d565b915061088482610845565b602082019050919050565b5f6020820190508181035f8301526108a68161086d565b9050919050565b7f4e487b71000000000000000000000000000000000000000000000000000000005f52601160045260245ffd5b5f6108e4826106b3565b91506108ef836106b3565b9250828203905081811115610907576109066108ad565b5b92915050565b7f4e6f742074686520626f78206f776e65720000000000000000000000000000005f82015250565b5f61094160118361062d565b915061094c8261090d565b602082019050919050565b5f6020820190508181035f83015261096e81610935565b9050919050565b5f82905092915050565b7f4e487b71000000000000000000000000000000000000000000000000000000005f52604160045260245ffd5b7f4e487b71000000000000000000000000000000000000000000000000000000005f52602260045260245ffd5b5f60028204905060018216806109f057607f821691505b602082108103610a0357610a026109ac565b5b50919050565b5f819050815f5260205f209050919050565b5f6020601f8301049050919050565b5f82821b905092915050565b5f60088302610a657fffffffffffffffffffffffffffffffffffffffffffffffffffffffffffffffff82610a2a565b610a6f8683610a2a565b95508019841693508086168417925050509392505050565b5f819050919050565b5f610aaa610aa5610aa0846106b3565b610a87565b6106b3565b9050919050565b5f819050919050565b610ac383610a90565b610ad7610acf82610ab1565b848454610a36565b825550505050565b5f5f905090565b610aee610adf565b610af9818484610aba565b505050565b5b81811015610b1c57610b115f82610ae6565b600181019050610aff565b5050565b601f821115610b6157610b3281610a09565b610b3b84610a1b565b81016020851015610b4a578190505b610b5e610b5685610a1b565b830182610afe565b50505b505050565b5f82821c905092915050565b5f610b815f1984600802610b66565b1980831691505092915050565b5f610b998383610b72565b9150826002028217905092915050565b610bb38383610975565b67ffffffffffffffff811115610bcc57610bcb61097f565b5b610bd682546109d9565b610be1828285610b20565b5f601f831160018114610c0e575f8415610bfc578287013590505b610c068582610b8e565b865550610c6d565b601f198416610c1c86610a09565b5f5b82811015610c4357848901358255600182019150602085019450602081019050610c1e565b86831015610c605784890135610c5c601f891682610b72565b8355505b6001600288020188555050505b50505050505050565b7f4e6577206f776e65722063616e6e6f74206265207a65726f20616464726573735f82015250565b5f610caa60208361062d565b9150610cb582610c76565b602082019050919050565b5f6020820190508181035f830152610cd781610c9e565b905091905056fea2646970667358221220cddbbe0eee8fb72b9e5bd5acfd78999d3fa8357670af458e70da1463ce52f60e64736f6c634300081e0033",
			"opcodes": "PUSH1 0x80 PUSH1 0x40 MSTORE CALLVALUE DUP1 ISZERO PUSH2 0xF JUMPI PUSH0 PUSH0 REVERT JUMPDEST POP PUSH1 0x40 MLOAD PUSH2 0xE72 CODESIZE SUB DUP1 PUSH2 0xE72 DUP4 CODECOPY DUP2 DUP2 ADD PUSH1 0x40 MSTORE DUP2 ADD SWAP1 PUSH2 0x31 SWAP2 SWAP1 PUSH2 0xC6 JUMP JUMPDEST CALLER PUSH0 PUSH0 PUSH2 0x100 EXP DUP2 SLOAD DUP2 PUSH20 0xFFFFFFFFFFFFFFFFFFFFFFFFFFFFFFFFFFFFFFFF MUL NOT AND SWAP1 DUP4 PUSH20 0xFFFFFFFFFFFFFFFFFFFFFFFFFFFFFFFFFFFFFFFF AND MUL OR SWAP1 SSTORE POP TIMESTAMP PUSH1 0x2 DUP2 SWAP1 SSTORE POP DUP1 TIMESTAMP PUSH2 0x83 SWAP2 SWAP1 PUSH2 0x11E JUMP JUMPDEST PUSH1 0x3 DUP2 SWAP1 SSTORE POP POP PUSH2 0x151 JUMP JUMPDEST PUSH0 PUSH0 REVERT JUMPDEST PUSH0 DUP2 SWAP1 POP SWAP2 SWAP1 POP JUMP JUMPDEST PUSH2 0xA5 DUP2 PUSH2 0x93 JUMP JUMPDEST DUP2 EQ PUSH2 0xAF JUMPI PUSH0 PUSH0 REVERT JUMPDEST POP JUMP JUMPDEST PUSH0 DUP2 MLOAD SWAP1 POP PUSH2 0xC0 DUP2 PUSH2 0x9C JUMP JUMPDEST SWAP3 SWAP2 POP POP JUMP JUMPDEST PUSH0 PUSH1 0x20 DUP3 DUP5 SUB SLT ISZERO PUSH2 0xDB JUMPI PUSH2 0xDA PUSH2 0x8F JUMP JUMPDEST JUMPDEST PUSH0 PUSH2 0xE8 DUP5 DUP3 DUP6 ADD PUSH2 0xB2 JUMP JUMPDEST SWAP2 POP POP SWAP3 SWAP2 POP POP JUMP JUMPDEST PUSH32 0x4E487B7100000000000000000000000000000000000000000000000000000000 PUSH0 MSTORE PUSH1 0x11 PUSH1 0x4 MSTORE PUSH1 0x24 PUSH0 REVERT JUMPDEST PUSH0 PUSH2 0x128 DUP3 PUSH2 0x93 JUMP JUMPDEST SWAP2 POP PUSH2 0x133 DUP4 PUSH2 0x93 JUMP JUMPDEST SWAP3 POP DUP3 DUP3 ADD SWAP1 POP DUP1 DUP3 GT ISZERO PUSH2 0x14B JUMPI PUSH2 0x14A PUSH2 0xF1 JUMP JUMPDEST JUMPDEST SWAP3 SWAP2 POP POP JUMP JUMPDEST PUSH2 0xD14 DUP1 PUSH2 0x15E PUSH0 CODECOPY PUSH0 RETURN INVALID PUSH1 0x80 PUSH1 0x40 MSTORE CALLVALUE DUP1 ISZERO PUSH2 0xF JUMPI PUSH0 PUSH0 REVERT JUMPDEST POP PUSH1 0x4 CALLDATASIZE LT PUSH2 0x86 JUMPI PUSH0 CALLDATALOAD PUSH1 0xE0 SHR DUP1 PUSH4 0x7A8CD156 GT PUSH2 0x59 JUMPI DUP1 PUSH4 0x7A8CD156 EQ PUSH2 0x102 JUMPI DUP1 PUSH4 0x893D20E8 EQ PUSH2 0x120 JUMPI DUP1 PUSH4 0xA14AB9F8 EQ PUSH2 0x13E JUMPI DUP1 PUSH4 0xF2FDE38B EQ PUSH2 0x15A JUMPI PUSH2 0x86 JUMP JUMPDEST DUP1 PUSH4 0x4199139 EQ PUSH2 0x8A JUMPI DUP1 PUSH4 0x51811F04 EQ PUSH2 0xA8 JUMPI DUP1 PUSH4 0x5B9FDC30 EQ PUSH2 0xC6 JUMPI DUP1 PUSH4 0x602BC62B EQ PUSH2 0xE4 JUMPI JUMPDEST PUSH0 PUSH0 REVERT JUMPDEST PUSH2 0x92 PUSH2 0x176 JUMP JUMPDEST PUSH1 0x40 MLOAD PUSH2 0x9F SWAP2 SWAP1 PUSH2 0x693 JUMP JUMPDEST PUSH1 0x40 MLOAD DUP1 SWAP2 SUB SWAP1 RETURN JUMPDEST PUSH2 0xB0 PUSH2 0x1B3 JUMP JUMPDEST PUSH1 0x40 MLOAD PUSH2 0xBD SWAP2 SWAP1 PUSH2 0x6CB JUMP JUMPDEST PUSH1 0x40 MLOAD DUP1 SWAP2 SUB SWAP1 RETURN JUMPDEST PUSH2 0xCE PUSH2 0x1BC JUMP JUMPDEST PUSH1 0x40 MLOAD PUSH2 0xDB SWAP2 SWAP1 PUSH2 0x693 JUMP JUMPDEST PUSH1 0x40 MLOAD DUP1 SWAP2 SUB SWAP1 RETURN JUMPDEST PUSH2 0xEC PUSH2 0x210 JUMP JUMPDEST PUSH1 0x40 MLOAD PUSH2 0xF9 SWAP2 SWAP1 PUSH2 0x6CB JUMP JUMPDEST PUSH1 0x40 MLOAD DUP1 SWAP2 SUB SWAP1 RETURN JUMPDEST PUSH2 0x10A PUSH2 0x219 JUMP JUMPDEST PUSH1 0x40 MLOAD PUSH2 0x117 SWAP2 SWAP1 PUSH2 0x6CB JUMP JUMPDEST PUSH1 0x40 MLOAD DUP1 SWAP2 SUB SWAP1 RETURN JUMPDEST PUSH2 0x128 PUSH2 0x23F JUMP JUMPDEST PUSH1 0x40 MLOAD PUSH2 0x135 SWAP2 SWAP1 PUSH2 0x723 JUMP JUMPDEST PUSH1 0x40 MLOAD DUP1 SWAP2 SUB SWAP1 RETURN JUMPDEST PUSH2 0x158 PUSH1 0x4 DUP1 CALLDATASIZE SUB DUP2 ADD SWAP1 PUSH2 0x153 SWAP2 SWAP1 PUSH2 0x7A5 JUMP JUMPDEST PUSH2 0x266 JUMP JUMPDEST STOP JUMPDEST PUSH2 0x174 PUSH1 0x4 DUP1 CALLDATASIZE SUB DUP2 ADD SWAP1 PUSH2 0x16F SWAP2 SWAP1 PUSH2 0x81A JUMP JUMPDEST PUSH2 0x34D JUMP JUMPDEST STOP JUMPDEST PUSH1 0x60 PUSH1 0x40 MLOAD DUP1 PUSH1 0x40 ADD PUSH1 0x40 MSTORE DUP1 PUSH1 0xA DUP2 MSTORE PUSH1 0x20 ADD PUSH32 0x54696D654C6F636B656400000000000000000000000000000000000000000000 DUP2 MSTORE POP SWAP1 POP SWAP1 JUMP JUMPDEST PUSH0 PUSH1 0x2 SLOAD SWAP1 POP SWAP1 JUMP JUMPDEST PUSH1 0x60 PUSH1 0x3 SLOAD TIMESTAMP LT ISZERO PUSH2 0x203 JUMPI PUSH1 0x40 MLOAD PUSH32 0x8C379A000000000000000000000000000000000000000000000000000000000 DUP2 MSTORE PUSH1 0x4 ADD PUSH2 0x1FA SWAP1 PUSH2 0x88F JUMP JUMPDEST PUSH1 0x40 MLOAD DUP1 SWAP2 SUB SWAP1 REVERT JUMPDEST PUSH2 0x20B PUSH2 0x505 JUMP JUMPDEST SWAP1 POP SWAP1 JUMP JUMPDEST PUSH0 PUSH1 0x3 SLOAD SWAP1 POP SWAP1 JUMP JUMPDEST PUSH0 PUSH1 0x3 SLOAD TIMESTAMP LT PUSH2 0x22B JUMPI PUSH0 SWAP1 POP PUSH2 0x23C JUMP JUMPDEST TIMESTAMP PUSH1 0x3 SLOAD PUSH2 0x239 SWAP2 SWAP1 PUSH2 0x8DA JUMP JUMPDEST SWAP1 POP JUMPDEST SWAP1 JUMP JUMPDEST PUSH0 PUSH0 PUSH0 SWAP1 SLOAD SWAP1 PUSH2 0x100 EXP SWAP1 DIV PUSH20 0xFFFFFFFFFFFFFFFFFFFFFFFFFFFFFFFFFFFFFFFF AND SWAP1 POP SWAP1 JUMP JUMPDEST PUSH0 PUSH0 SWAP1 SLOAD SWAP1 PUSH2 0x100 EXP SWAP1 DIV PUSH20 0xFFFFFFFFFFFFFFFFFFFFFFFFFFFFFFFFFFFFFFFF AND PUSH20 0xFFFFFFFFFFFFFFFFFFFFFFFFFFFFFFFFFFFFFFFF AND CALLER PUSH20 0xFFFFFFFFFFFFFFFFFFFFFFFFFFFFFFFFFFFFFFFF AND EQ PUSH2 0x2F4 JUMPI PUSH1 0x40 MLOAD PUSH32 0x8C379A000000000000000000000000000000000000000000000000000000000 DUP2 MSTORE PUSH1 0x4 ADD PUSH2 0x2EB SWAP1 PUSH2 0x957 JUMP JUMPDEST PUSH1 0x40 MLOAD DUP1 SWAP2 SUB SWAP1 REVERT JUMPDEST DUP2 DUP2 PUSH1 0x1 SWAP2 DUP3 PUSH2 0x305 SWAP3 SWAP2 SWAP1 PUSH2 0xBA9 JUMP JUMPDEST POP CALLER PUSH20 0xFFFFFFFFFFFFFFFFFFFFFFFFFFFFFFFFFFFFFFFF AND PUSH32 0x977F4C93D6A66455EB4F1467E8A01FEC7C62B1CE20353FB51B7269712E11967 PUSH1 0x40 MLOAD PUSH1 0x40 MLOAD DUP1 SWAP2 SUB SWAP1 LOG2 POP POP JUMP JUMPDEST PUSH0 PUSH0 SWAP1 SLOAD SWAP1 PUSH2 0x100 EXP SWAP1 DIV PUSH20 0xFFFFFFFFFFFFFFFFFFFFFFFFFFFFFFFFFFFFFFFF AND PUSH20 0xFFFFFFFFFFFFFFFFFFFFFFFFFFFFFFFFFFFFFFFF AND CALLER PUSH20 0xFFFFFFFFFFFFFFFFFFFFFFFFFFFFFFFFFFFFFFFF AND EQ PUSH2 0x3DB JUMPI PUSH1 0x40 MLOAD PUSH32 0x8C379A000000000000000000000000000000000000000000000000000000000 DUP2 MSTORE PUSH1 0x4 ADD PUSH2 0x3D2 SWAP1 PUSH2 0x957 JUMP JUMPDEST PUSH1 0x40 MLOAD DUP1 SWAP2 SUB SWAP1 REVERT JUMPDEST PUSH0 PUSH20 0xFFFFFFFFFFFFFFFFFFFFFFFFFFFFFFFFFFFFFFFF AND DUP2 PUSH20 0xFFFFFFFFFFFFFFFFFFFFFFFFFFFFFFFFFFFFFFFF AND SUB PUSH2 0x449 JUMPI PUSH1 0x40 MLOAD PUSH32 0x8C379A000000000000000000000000000000000000000000000000000000000 DUP2 MSTORE PUSH1 0x4 ADD PUSH2 0x440 SWAP1 PUSH2 0xCC0 JUMP JUMPDEST PUSH1 0x40 MLOAD DUP1 SWAP2 SUB SWAP1 REVERT JUMPDEST DUP1 PUSH20 0xFFFFFFFFFFFFFFFFFFFFFFFFFFFFFFFFFFFFFFFF AND PUSH0 PUSH0 SWAP1 SLOAD SWAP1 PUSH2 0x100 EXP SWAP1 DIV PUSH20 0xFFFFFFFFFFFFFFFFFFFFFFFFFFFFFFFFFFFFFFFF AND PUSH20 0xFFFFFFFFFFFFFFFFFFFFFFFFFFFFFFFFFFFFFFFF AND PUSH32 0x8BE0079C531659141344CD1FD0A4F28419497F9722A3DAAFE3B4186F6B6457E0 PUSH1 0x40 MLOAD PUSH1 0x40 MLOAD DUP1 SWAP2 SUB SWAP1 LOG3 DUP1 PUSH0 PUSH0 PUSH2 0x100 EXP DUP2 SLOAD DUP2 PUSH20 0xFFFFFFFFFFFFFFFFFFFFFFFFFFFFFFFFFFFFFFFF MUL NOT AND SWAP1 DUP4 PUSH20 0xFFFFFFFFFFFFFFFFFFFFFFFFFFFFFFFFFFFFFFFF AND MUL OR SWAP1 SSTORE POP POP JUMP JUMPDEST PUSH1 0x60 PUSH0 PUSH0 SWAP1 SLOAD SWAP1 PUSH2 0x100 EXP SWAP1 DIV PUSH20 0xFFFFFFFFFFFFFFFFFFFFFFFFFFFFFFFFFFFFFFFF AND PUSH20 0xFFFFFFFFFFFFFFFFFFFFFFFFFFFFFFFFFFFFFFFF AND CALLER PUSH20 0xFFFFFFFFFFFFFFFFFFFFFFFFFFFFFFFFFFFFFFFF AND EQ PUSH2 0x595 JUMPI PUSH1 0x40 MLOAD PUSH32 0x8C379A000000000000000000000000000000000000000000000000000000000 DUP2 MSTORE PUSH1 0x4 ADD PUSH2 0x58C SWAP1 PUSH2 0x957 JUMP JUMPDEST PUSH1 0x40 MLOAD DUP1 SWAP2 SUB SWAP1 REVERT JUMPDEST PUSH1 0x1 DUP1 SLOAD PUSH2 0x5A2 SWAP1 PUSH2 0x9D9 JUMP JUMPDEST DUP1 PUSH1 0x1F ADD PUSH1 0x20 DUP1 SWAP2 DIV MUL PUSH1 0x20 ADD PUSH1 0x40 MLOAD SWAP1 DUP2 ADD PUSH1 0x40 MSTORE DUP1 SWAP3 SWAP2 SWAP1 DUP2 DUP2 MSTORE PUSH1 0x20 ADD DUP3 DUP1 SLOAD PUSH2 0x5CE SWAP1 PUSH2 0x9D9 JUMP JUMPDEST DUP1 ISZERO PUSH2 0x619 JUMPI DUP1 PUSH1 0x1F LT PUSH2 0x5F0 JUMPI PUSH2 0x100 DUP1 DUP4 SLOAD DIV MUL DUP4 MSTORE SWAP2 PUSH1 0x20 ADD SWAP2 PUSH2 0x619 JUMP JUMPDEST DUP3 ADD SWAP2 SWAP1 PUSH0 MSTORE PUSH1 0x20 PUSH0 KECCAK256 SWAP1 JUMPDEST DUP2 SLOAD DUP2 MSTORE SWAP1 PUSH1 0x1 ADD SWAP1 PUSH1 0x20 ADD DUP1 DUP4 GT PUSH2 0x5FC JUMPI DUP3 SWAP1 SUB PUSH1 0x1F AND DUP3 ADD SWAP2 JUMPDEST POP POP POP POP POP SWAP1 POP SWAP1 JUMP JUMPDEST PUSH0 DUP2 MLOAD SWAP1 POP SWAP2 SWAP1 POP JUMP JUMPDEST PUSH0 DUP3 DUP3 MSTORE PUSH1 0x20 DUP3 ADD SWAP1 POP SWAP3 SWAP2 POP POP JUMP JUMPDEST DUP3 DUP2 DUP4 MCOPY PUSH0 DUP4 DUP4 ADD MSTORE POP POP POP JUMP JUMPDEST PUSH0 PUSH1 0x1F NOT PUSH1 0x1F DUP4 ADD AND SWAP1 POP SWAP2 SWAP1 POP JUMP JUMPDEST PUSH0 PUSH2 0x665 DUP3 PUSH2 0x623 JUMP JUMPDEST PUSH2 0x66F DUP2 DUP6 PUSH2 0x62D JUMP JUMPDEST SWAP4 POP PUSH2 0x67F DUP2 DUP6 PUSH1 0x20 DUP7 ADD PUSH2 0x63D JUMP JUMPDEST PUSH2 0x688 DUP2 PUSH2 0x64B JUMP JUMPDEST DUP5 ADD SWAP2 POP POP SWAP3 SWAP2 POP POP JUMP JUMPDEST PUSH0 PUSH1 0x20 DUP3 ADD SWAP1 POP DUP2 DUP2 SUB PUSH0 DUP4 ADD MSTORE PUSH2 0x6AB DUP2 DUP5 PUSH2 0x65B JUMP JUMPDEST SWAP1 POP SWAP3 SWAP2 POP POP JUMP JUMPDEST PUSH0 DUP2 SWAP1 POP SWAP2 SWAP1 POP JUMP JUMPDEST PUSH2 0x6C5 DUP2 PUSH2 0x6B3 JUMP JUMPDEST DUP3 MSTORE POP POP JUMP JUMPDEST PUSH0 PUSH1 0x20 DUP3 ADD SWAP1 POP PUSH2 0x6DE PUSH0 DUP4 ADD DUP5 PUSH2 0x6BC JUMP JUMPDEST SWAP3 SWAP2 POP POP JUMP JUMPDEST PUSH0 PUSH20 0xFFFFFFFFFFFFFFFFFFFFFFFFFFFFFFFFFFFFFFFF DUP3 AND SWAP1 POP SWAP2 SWAP1 POP JUMP JUMPDEST PUSH0 PUSH2 0x70D DUP3 PUSH2 0x6E4 JUMP JUMPDEST SWAP1 POP SWAP2 SWAP1 POP JUMP JUMPDEST PUSH2 0x71D DUP2 PUSH2 0x703 JUMP JUMPDEST DUP3 MSTORE POP POP JUMP JUMPDEST PUSH0 PUSH1 0x20 DUP3 ADD SWAP1 POP PUSH2 0x736 PUSH0 DUP4 ADD DUP5 PUSH2 0x714 JUMP JUMPDEST SWAP3 SWAP2 POP POP JUMP JUMPDEST PUSH0 PUSH0 REVERT JUMPDEST PUSH0 PUSH0 REVERT JUMPDEST PUSH0 PUSH0 REVERT JUMPDEST PUSH0 PUSH0 REVERT JUMPDEST PUSH0 PUSH0 REVERT JUMPDEST PUSH0 PUSH0 DUP4 PUSH1 0x1F DUP5 ADD SLT PUSH2 0x765 JUMPI PUSH2 0x764 PUSH2 0x744 JUMP JUMPDEST JUMPDEST DUP3 CALLDATALOAD SWAP1 POP PUSH8 0xFFFFFFFFFFFFFFFF DUP2 GT ISZERO PUSH2 0x782 JUMPI PUSH2 0x781 PUSH2 0x748 JUMP JUMPDEST JUMPDEST PUSH1 0x20 DUP4 ADD SWAP2 POP DUP4 PUSH1 0x1 DUP3 MUL DUP4 ADD GT ISZERO PUSH2 0x79E JUMPI PUSH2 0x79D PUSH2 0x74C JUMP JUMPDEST JUMPDEST SWAP3 POP SWAP3 SWAP1 POP JUMP JUMPDEST PUSH0 PUSH0 PUSH1 0x20 DUP4 DUP6 SUB SLT ISZERO PUSH2 0x7BB JUMPI PUSH2 0x7BA PUSH2 0x73C JUMP JUMPDEST JUMPDEST PUSH0 DUP4 ADD CALLDATALOAD PUSH8 0xFFFFFFFFFFFFFFFF DUP2 GT ISZERO PUSH2 0x7D8 JUMPI PUSH2 0x7D7 PUSH2 0x740 JUMP JUMPDEST JUMPDEST PUSH2 0x7E4 DUP6 DUP3 DUP7 ADD PUSH2 0x750 JUMP JUMPDEST SWAP3 POP SWAP3 POP POP SWAP3 POP SWAP3 SWAP1 POP JUMP JUMPDEST PUSH2 0x7F9 DUP2 PUSH2 0x703 JUMP JUMPDEST DUP2 EQ PUSH2 0x803 JUMPI PUSH0 PUSH0 REVERT JUMPDEST POP JUMP JUMPDEST PUSH0 DUP2 CALLDATALOAD SWAP1 POP PUSH2 0x814 DUP2 PUSH2 0x7F0 JUMP JUMPDEST SWAP3 SWAP2 POP POP JUMP JUMPDEST PUSH0 PUSH1 0x20 DUP3 DUP5 SUB SLT ISZERO PUSH2 0x82F JUMPI PUSH2 0x82E PUSH2 0x73C JUMP JUMPDEST JUMPDEST PUSH0 PUSH2 0x83C DUP5 DUP3 DUP6 ADD PUSH2 0x806 JUMP JUMPDEST SWAP2 POP POP SWAP3 SWAP2 POP POP JUMP JUMPDEST PUSH32 0x426F78206973207374696C6C2074696D652D6C6F636B65640000000000000000 PUSH0 DUP3 ADD MSTORE POP JUMP JUMPDEST PUSH0 PUSH2 0x879 PUSH1 0x18 DUP4 PUSH2 0x62D JUMP JUMPDEST SWAP2 POP PUSH2 0x884 DUP3 PUSH2 0x845 JUMP JUMPDEST PUSH1 0x20 DUP3 ADD SWAP1 POP SWAP2 SWAP1 POP JUMP JUMPDEST PUSH0 PUSH1 0x20 DUP3 ADD SWAP1 POP DUP2 DUP2 SUB PUSH0 DUP4 ADD MSTORE PUSH2 0x8A6 DUP2 PUSH2 0x86D JUMP JUMPDEST SWAP1 POP SWAP2 SWAP1 POP JUMP JUMPDEST PUSH32 0x4E487B7100000000000000000000000000000000000000000000000000000000 PUSH0 MSTORE PUSH1 0x11 PUSH1 0x4 MSTORE PUSH1 0x24 PUSH0 REVERT JUMPDEST PUSH0 PUSH2 0x8E4 DUP3 PUSH2 0x6B3 JUMP JUMPDEST SWAP2 POP PUSH2 0x8EF DUP4 PUSH2 0x6B3 JUMP JUMPDEST SWAP3 POP DUP3 DUP3 SUB SWAP1 POP DUP2 DUP2 GT ISZERO PUSH2 0x907 JUMPI PUSH2 0x906 PUSH2 0x8AD JUMP JUMPDEST JUMPDEST SWAP3 SWAP2 POP POP JUMP JUMPDEST PUSH32 0x4E6F742074686520626F78206F776E6572000000000000000000000000000000 PUSH0 DUP3 ADD MSTORE POP JUMP JUMPDEST PUSH0 PUSH2 0x941 PUSH1 0x11 DUP4 PUSH2 0x62D JUMP JUMPDEST SWAP2 POP PUSH2 0x94C DUP3 PUSH2 0x90D JUMP JUMPDEST PUSH1 0x20 DUP3 ADD SWAP1 POP SWAP2 SWAP1 POP JUMP JUMPDEST PUSH0 PUSH1 0x20 DUP3 ADD SWAP1 POP DUP2 DUP2 SUB PUSH0 DUP4 ADD MSTORE PUSH2 0x96E DUP2 PUSH2 0x935 JUMP JUMPDEST SWAP1 POP SWAP2 SWAP1 POP JUMP JUMPDEST PUSH0 DUP3 SWAP1 POP SWAP3 SWAP2 POP POP JUMP JUMPDEST PUSH32 0x4E487B7100000000000000000000000000000000000000000000000000000000 PUSH0 MSTORE PUSH1 0x41 PUSH1 0x4 MSTORE PUSH1 0x24 PUSH0 REVERT JUMPDEST PUSH32 0x4E487B7100000000000000000000000000000000000000000000000000000000 PUSH0 MSTORE PUSH1 0x22 PUSH1 0x4 MSTORE PUSH1 0x24 PUSH0 REVERT JUMPDEST PUSH0 PUSH1 0x2 DUP3 DIV SWAP1 POP PUSH1 0x1 DUP3 AND DUP1 PUSH2 0x9F0 JUMPI PUSH1 0x7F DUP3 AND SWAP2 POP JUMPDEST PUSH1 0x20 DUP3 LT DUP2 SUB PUSH2 0xA03 JUMPI PUSH2 0xA02 PUSH2 0x9AC JUMP JUMPDEST JUMPDEST POP SWAP2 SWAP1 POP JUMP JUMPDEST PUSH0 DUP2 SWAP1 POP DUP2 PUSH0 MSTORE PUSH1 0x20 PUSH0 KECCAK256 SWAP1 POP SWAP2 SWAP1 POP JUMP JUMPDEST PUSH0 PUSH1 0x20 PUSH1 0x1F DUP4 ADD DIV SWAP1 POP SWAP2 SWAP1 POP JUMP JUMPDEST PUSH0 DUP3 DUP3 SHL SWAP1 POP SWAP3 SWAP2 POP POP JUMP JUMPDEST PUSH0 PUSH1 0x8 DUP4 MUL PUSH2 0xA65 PUSH32 0xFFFFFFFFFFFFFFFFFFFFFFFFFFFFFFFFFFFFFFFFFFFFFFFFFFFFFFFFFFFFFFFF DUP3 PUSH2 0xA2A JUMP JUMPDEST PUSH2 0xA6F DUP7 DUP4 PUSH2 0xA2A JUMP JUMPDEST SWAP6 POP DUP1 NOT DUP5 AND SWAP4 POP DUP1 DUP7 AND DUP5 OR SWAP3 POP POP POP SWAP4 SWAP3 POP POP POP JUMP JUMPDEST PUSH0 DUP2 SWAP1 POP SWAP2 SWAP1 POP JUMP JUMPDEST PUSH0 PUSH2 0xAAA PUSH2 0xAA5 PUSH2 0xAA0 DUP5 PUSH2 0x6B3 JUMP JUMPDEST PUSH2 0xA87 JUMP JUMPDEST PUSH2 0x6B3 JUMP JUMPDEST SWAP1 POP SWAP2 SWAP1 POP JUMP JUMPDEST PUSH0 DUP2 SWAP1 POP SWAP2 SWAP1 POP JUMP JUMPDEST PUSH2 0xAC3 DUP4 PUSH2 0xA90 JUMP JUMPDEST PUSH2 0xAD7 PUSH2 0xACF DUP3 PUSH2 0xAB1 JUMP JUMPDEST DUP5 DUP5 SLOAD PUSH2 0xA36 JUMP JUMPDEST DUP3 SSTORE POP POP POP POP JUMP JUMPDEST PUSH0 PUSH0 SWAP1 POP SWAP1 JUMP JUMPDEST PUSH2 0xAEE PUSH2 0xADF JUMP JUMPDEST PUSH2 0xAF9 DUP2 DUP5 DUP5 PUSH2 0xABA JUMP JUMPDEST POP POP POP JUMP JUMPDEST JUMPDEST DUP2 DUP2 LT ISZERO PUSH2 0xB1C JUMPI PUSH2 0xB11 PUSH0 DUP3 PUSH2 0xAE6 JUMP JUMPDEST PUSH1 0x1 DUP2 ADD SWAP1 POP PUSH2 0xAFF JUMP JUMPDEST POP POP JUMP JUMPDEST PUSH1 0x1F DUP3 GT ISZERO PUSH2 0xB61 JUMPI PUSH2 0xB32 DUP2 PUSH2 0xA09 JUMP JUMPDEST PUSH2 0xB3B DUP5 PUSH2 0xA1B JUMP JUMPDEST DUP2 ADD PUSH1 0x20 DUP6 LT ISZERO PUSH2 0xB4A JUMPI DUP2 SWAP1 POP JUMPDEST PUSH2 0xB5E PUSH2 0xB56 DUP6 PUSH2 0xA1B JUMP JUMPDEST DUP4 ADD DUP3 PUSH2 0xAFE JUMP JUMPDEST POP POP JUMPDEST POP POP POP JUMP JUMPDEST PUSH0 DUP3 DUP3 SHR SWAP1 POP SWAP3 SWAP2 POP POP JUMP JUMPDEST PUSH0 PUSH2 0xB81 PUSH0 NOT DUP5 PUSH1 0x8 MUL PUSH2 0xB66 JUMP JUMPDEST NOT DUP1 DUP4 AND SWAP2 POP POP SWAP3 SWAP2 POP POP JUMP JUMPDEST PUSH0 PUSH2 0xB99 DUP4 DUP4 PUSH2 0xB72 JUMP JUMPDEST SWAP2 POP DUP3 PUSH1 0x2 MUL DUP3 OR SWAP1 POP SWAP3 SWAP2 POP POP JUMP JUMPDEST PUSH2 0xBB3 DUP4 DUP4 PUSH2 0x975 JUMP JUMPDEST PUSH8 0xFFFFFFFFFFFFFFFF DUP2 GT ISZERO PUSH2 0xBCC JUMPI PUSH2 0xBCB PUSH2 0x97F JUMP JUMPDEST JUMPDEST PUSH2 0xBD6 DUP3 SLOAD PUSH2 0x9D9 JUMP JUMPDEST PUSH2 0xBE1 DUP3 DUP3 DUP6 PUSH2 0xB20 JUMP JUMPDEST PUSH0 PUSH1 0x1F DUP4 GT PUSH1 0x1 DUP2 EQ PUSH2 0xC0E JUMPI PUSH0 DUP5 ISZERO PUSH2 0xBFC JUMPI DUP3 DUP8 ADD CALLDATALOAD SWAP1 POP JUMPDEST PUSH2 0xC06 DUP6 DUP3 PUSH2 0xB8E JUMP JUMPDEST DUP7 SSTORE POP PUSH2 0xC6D JUMP JUMPDEST PUSH1 0x1F NOT DUP5 AND PUSH2 0xC1C DUP7 PUSH2 0xA09 JUMP JUMPDEST PUSH0 JUMPDEST DUP3 DUP2 LT ISZERO PUSH2 0xC43 JUMPI DUP5 DUP10 ADD CALLDATALOAD DUP3 SSTORE PUSH1 0x1 DUP3 ADD SWAP2 POP PUSH1 0x20 DUP6 ADD SWAP5 POP PUSH1 0x20 DUP2 ADD SWAP1 POP PUSH2 0xC1E JUMP JUMPDEST DUP7 DUP4 LT ISZERO PUSH2 0xC60 JUMPI DUP5 DUP10 ADD CALLDATALOAD PUSH2 0xC5C PUSH1 0x1F DUP10 AND DUP3 PUSH2 0xB72 JUMP JUMPDEST DUP4 SSTORE POP JUMPDEST PUSH1 0x1 PUSH1 0x2 DUP9 MUL ADD DUP9 SSTORE POP POP POP JUMPDEST POP POP POP POP POP POP POP JUMP JUMPDEST PUSH32 0x4E6577206F776E65722063616E6E6F74206265207A65726F2061646472657373 PUSH0 DUP3 ADD MSTORE POP JUMP JUMPDEST PUSH0 PUSH2 0xCAA PUSH1 0x20 DUP4 PUSH2 0x62D JUMP JUMPDEST SWAP2 POP PUSH2 0xCB5 DUP3 PUSH2 0xC76 JUMP JUMPDEST PUSH1 0x20 DUP3 ADD SWAP1 POP SWAP2 SWAP1 POP JUMP JUMPDEST PUSH0 PUSH1 0x20 DUP3 ADD SWAP1 POP DUP2 DUP2 SUB PUSH0 DUP4 ADD MSTORE PUSH2 0xCD7 DUP2 PUSH2 0xC9E JUMP JUMPDEST SWAP1 POP SWAP2 SWAP1 POP JUMP INVALID LOG2 PUSH5 0x6970667358 0x22 SLT KECCAK256 0xCD 0xDB 0xBE 0xE RETURNCONTRACT 0x8F 0xB7 0x2B SWAP15 JUMPDEST 0xD5 0xAC REVERT PUSH25 0x999D3FA8357670AF458E70DA1463CE52F60E64736F6C634300 ADDMOD 0x1E STOP CALLER "
		},
		"gasEstimates": {
			"creation": {
				"codeDepositCost": "669600",
				"executionCost": "infinite",
				"totalCost": "infinite"
			},
			"external": {
				"getBoxType()": "infinite",
				"getDepositTime()": "2455",
				"getOwner()": "2536",
				"getRemainingLockTime()": "infinite",
				"getSecret()": "infinite",
				"getUnlockTime()": "2499",
				"storeSecret(string)": "infinite",
				"transferOwnership(address)": "30661"
			}
		},
		"methodIdentifiers": {
			"getBoxType()": "04199139",
			"getDepositTime()": "51811f04",
			"getOwner()": "893d20e8",
			"getRemainingLockTime()": "7a8cd156",
			"getSecret()": "5b9fdc30",
			"getUnlockTime()": "602bc62b",
			"storeSecret(string)": "a14ab9f8",
			"transferOwnership(address)": "f2fde38b"
		}
	},
	"abi": [
		{
			"inputs": [
				{
					"internalType": "uint256",
					"name": "lockDuration",
					"type": "uint256"
				}
			],
			"stateMutability": "nonpayable",
			"type": "constructor"
		},
		{
			"anonymous": false,
			"inputs": [
				{
					"indexed": true,
					"internalType": "address",
					"name": "previousOwner",
					"type": "address"
				},
				{
					"indexed": true,
					"internalType": "address",
					"name": "newOwner",
					"type": "address"
				}
			],
			"name": "OwnershipTransferred",
			"type": "event"
		},
		{
			"anonymous": false,
			"inputs": [
				{
					"indexed": true,
					"internalType": "address",
					"name": "owner",
					"type": "address"
				}
			],
			"name": "SecretStored",
			"type": "event"
		},
		{
			"inputs": [],
			"name": "getBoxType",
			"outputs": [
				{
					"internalType": "string",
					"name": "",
					"type": "string"
				}
			],
			"stateMutability": "pure",
			"type": "function"
		},
		{
			"inputs": [],
			"name": "getDepositTime",
			"outputs": [
				{
					"internalType": "uint256",
					"name": "",
					"type": "uint256"
				}
			],
			"stateMutability": "view",
			"type": "function"
		},
		{
			"inputs": [],
			"name": "getOwner",
			"outputs": [
				{
					"internalType": "address",
					"name": "",
					"type": "address"
				}
			],
			"stateMutability": "view",
			"type": "function"
		},
		{
			"inputs": [],
			"name": "getRemainingLockTime",
			"outputs": [
				{
					"internalType": "uint256",
					"name": "",
					"type": "uint256"
				}
			],
			"stateMutability": "view",
			"type": "function"
		},
		{
			"inputs": [],
			"name": "getSecret",
			"outputs": [
				{
					"internalType": "string",
					"name": "",
					"type": "string"
				}
			],
			"stateMutability": "view",
			"type": "function"
		},
		{
			"inputs": [],
			"name": "getUnlockTime",
			"outputs": [
				{
					"internalType": "uint256",
					"name": "",
					"type": "uint256"
				}
			],
			"stateMutability": "view",
			"type": "function"
		},
		{
			"inputs": [
				{
					"internalType": "string",
					"name": "_secret",
					"type": "string"
				}
			],
			"name": "storeSecret",
			"outputs": [],
			"stateMutability": "nonpayable",
			"type": "function"
		},
		{
			"inputs": [
				{
					"internalType": "address",
					"name": "newOwner",
					"type": "address"
				}
			],
			"name": "transferOwnership",
			"outputs": [],
			"stateMutability": "nonpayable",
			"type": "function"
		}
	]
}