{
	"data": {
		"bytecode": {
			"linkReferences": {},
			"object": "6080604052348015600e575f5ffd5b5061082a8061001c5f395ff3fe608060405234801561000f575f5ffd5b506004361061003f575f3560e01c80630f4fcd921461004357806346d868c71461005f578063fd9af7c71461008f575b5f5ffd5b61005d6004803603810190610058919061041a565b6100bf565b005b61007960048036038101906100749190610474565b61010d565b60405161008691906104ff565b60405180910390f35b6100a960048036038101906100a49190610474565b6101d9565b6040516100b691906104ff565b60405180910390f35b805f5f8473ffffffffffffffffffffffffffffffffffffffff1673ffffffffffffffffffffffffffffffffffffffff1681526020019081526020015f2090816101089190610725565b505050565b60605f5f8373ffffffffffffffffffffffffffffffffffffffff1673ffffffffffffffffffffffffffffffffffffffff1681526020019081526020015f2080546101569061054c565b80601f01602080910402602001604051908101604052809291908181526020018280546101829061054c565b80156101cd5780601f106101a4576101008083540402835291602001916101cd565b820191905f5260205f20905b8154815290600101906020018083116101b057829003601f168201915b50505050509050919050565b5f602052805f5260405f205f9150905080546101f49061054c565b80601f01602080910402602001604051908101604052809291908181526020018280546102209061054c565b801561026b5780601f106102425761010080835404028352916020019161026b565b820191905f5260205f20905b81548152906001019060200180831161024e57829003601f168201915b505050505081565b5f604051905090565b5f5ffd5b5f5ffd5b5f73ffffffffffffffffffffffffffffffffffffffff82169050919050565b5f6102ad82610284565b9050919050565b6102bd816102a3565b81146102c7575f5ffd5b50565b5f813590506102d8816102b4565b92915050565b5f5ffd5b5f5ffd5b5f601f19601f8301169050919050565b7f4e487b71000000000000000000000000000000000000000000000000000000005f52604160045260245ffd5b61032c826102e6565b810181811067ffffffffffffffff8211171561034b5761034a6102f6565b5b80604052505050565b5f61035d610273565b90506103698282610323565b919050565b5f67ffffffffffffffff821115610388576103876102f6565b5b610391826102e6565b9050602081019050919050565b828183375f83830152505050565b5f6103be6103b98461036e565b610354565b9050828152602081018484840111156103da576103d96102e2565b5b6103e584828561039e565b509392505050565b5f82601f830112610401576104006102de565b5b81356104118482602086016103ac565b91505092915050565b5f5f604083850312156104305761042f61027c565b5b5f61043d858286016102ca565b925050602083013567ffffffffffffffff81111561045e5761045d610280565b5b61046a858286016103ed565b9150509250929050565b5f602082840312156104895761048861027c565b5b5f610496848285016102ca565b91505092915050565b5f81519050919050565b5f82825260208201905092915050565b8281835e5f83830152505050565b5f6104d18261049f565b6104db81856104a9565b93506104eb8185602086016104b9565b6104f4816102e6565b840191505092915050565b5f6020820190508181035f83015261051781846104c7565b905092915050565b7f4e487b71000000000000000000000000000000000000000000000000000000005f52602260045260245ffd5b5f600282049050600182168061056357607f821691505b6020821081036105765761057561051f565b5b50919050565b5f819050815f5260205f209050919050565b5f6020601f8301049050919050565b5f82821b905092915050565b5f600883026105d87fffffffffffffffffffffffffffffffffffffffffffffffffffffffffffffffff8261059d565b6105e2868361059d565b95508019841693508086168417925050509392505050565b5f819050919050565b5f819050919050565b5f61062661062161061c846105fa565b610603565b6105fa565b9050919050565b5f819050919050565b61063f8361060c565b61065361064b8261062d565b8484546105a9565b825550505050565b5f5f905090565b61066a61065b565b610675818484610636565b505050565b5b818110156106985761068d5f82610662565b60018101905061067b565b5050565b601f8211156106dd576106ae8161057c565b6106b78461058e565b810160208510156106c6578190505b6106da6106d28561058e565b83018261067a565b50505b505050565b5f82821c905092915050565b5f6106fd5f19846008026106e2565b1980831691505092915050565b5f61071583836106ee565b9150826002028217905092915050565b61072e8261049f565b67ffffffffffffffff811115610747576107466102f6565b5b610751825461054c565b61075c82828561069c565b5f60209050601f83116001811461078d575f841561077b578287015190505b610785858261070a565b8655506107ec565b601f19841661079b8661057c565b5f5b828110156107c25784890151825560018201915060208501945060208101905061079d565b868310156107df57848901516107db601f8916826106ee565b8355505b6001600288020188555050505b50505050505056fea26469706673582212206787c8fe59f0705f7cacfca1286105403cd2aa261d5f2139572d5f0119e3969264736f6c634300081e0033",
			"opcodes": "PUSH1 0x80 PUSH1 0x40 MSTORE CALLVALUE DUP1 ISZERO PUSH1 0xE JUMPI PUSH0 PUSH0 REVERT JUMPDEST POP PUSH2 0x82A DUP1 PUSH2 0x1C PUSH0 CODECOPY PUSH0 RETURN INVALID PUSH1 0x80 PUSH1 0x40 MSTORE CALLVALUE DUP1 ISZERO PUSH2 0xF JUMPI PUSH0 PUSH0 REVERT JUMPDEST POP PUSH1 0x4 CALLDATASIZE LT PUSH2 0x3F JUMPI PUSH0 CALLDATALOAD PUSH1 0xE0 SHR DUP1 PUSH4 0xF4FCD92 EQ PUSH2 0x43 JUMPI DUP1 PUSH4 0x46D868C7 EQ PUSH2 0x5F JUMPI DUP1 PUSH4 0xFD9AF7C7 EQ PUSH2 0x8F JUMPI JUMPDEST PUSH0 PUSH0 REVERT JUMPDEST PUSH2 0x5D PUSH1 0x4 DUP1 CALLDATASIZE SUB DUP2 ADD SWAP1 PUSH2 0x58 SWAP2 SWAP1 PUSH2 0x41A JUMP JUMPDEST PUSH2 0xBF JUMP JUMPDEST STOP JUMPDEST PUSH2 0x79 PUSH1 0x4 DUP1 CALLDATASIZE SUB DUP2 ADD SWAP1 PUSH2 0x74 SWAP2 SWAP1 PUSH2 0x474 JUMP JUMPDEST PUSH2 0x10D JUMP JUMPDEST PUSH1 0x40 MLOAD PUSH2 0x86 SWAP2 SWAP1 PUSH2 0x4FF JUMP JUMPDEST PUSH1 0x40 MLOAD DUP1 SWAP2 SUB SWAP1 RETURN JUMPDEST PUSH2 0xA9 PUSH1 0x4 DUP1 CALLDATASIZE SUB DUP2 ADD SWAP1 PUSH2 0xA4 SWAP2 SWAP1 PUSH2 0x474 JUMP JUMPDEST PUSH2 0x1D9 JUMP JUMPDEST PUSH1 0x40 MLOAD PUSH2 0xB6 SWAP2 SWAP1 PUSH2 0x4FF JUMP JUMPDEST PUSH1 0x40 MLOAD DUP1 SWAP2 SUB SWAP1 RETURN JUMPDEST DUP1 PUSH0 PUSH0 DUP5 PUSH20 0xFFFFFFFFFFFFFFFFFFFFFFFFFFFFFFFFFFFFFFFF AND PUSH20 0xFFFFFFFFFFFFFFFFFFFFFFFFFFFFFFFFFFFFFFFF AND DUP2 MSTORE PUSH1 0x20 ADD SWAP1 DUP2 MSTORE PUSH1 0x20 ADD PUSH0 KECCAK256 SWAP1 DUP2 PUSH2 0x108 SWAP2 SWAP1 PUSH2 0x725 JUMP JUMPDEST POP POP POP JUMP JUMPDEST PUSH1 0x60 PUSH0 PUSH0 DUP4 PUSH20 0xFFFFFFFFFFFFFFFFFFFFFFFFFFFFFFFFFFFFFFFF AND PUSH20 0xFFFFFFFFFFFFFFFFFFFFFFFFFFFFFFFFFFFFFFFF AND DUP2 MSTORE PUSH1 0x20 ADD SWAP1 DUP2 MSTORE PUSH1 0x20 ADD PUSH0 KECCAK256 DUP1 SLOAD PUSH2 0x156 SWAP1 PUSH2 0x54C JUMP JUMPDEST DUP1 PUSH1 0x1F ADD PUSH1 0x20 DUP1 SWAP2 DIV MUL PUSH1 0x20 ADD PUSH1 0x40 MLOAD SWAP1 DUP2 ADD PUSH1 0x40 MSTORE DUP1 SWAP3 SWAP2 SWAP1 DUP2 DUP2 MSTORE PUSH1 0x20 ADD DUP3 DUP1 SLOAD PUSH2 0x182 SWAP1 PUSH2 0x54C JUMP JUMPDEST DUP1 ISZERO PUSH2 0x1CD JUMPI DUP1 PUSH1 0x1F LT PUSH2 0x1A4 JUMPI PUSH2 0x100 DUP1 DUP4 SLOAD DIV MUL DUP4 MSTORE SWAP2 PUSH1 0x20 ADD SWAP2 PUSH2 0x1CD JUMP JUMPDEST DUP3 ADD SWAP2 SWAP1 PUSH0 MSTORE PUSH1 0x20 PUSH0 KECCAK256 SWAP1 JUMPDEST DUP2 SLOAD DUP2 MSTORE SWAP1 PUSH1 0x1 ADD SWAP1 PUSH1 0x20 ADD DUP1 DUP4 GT PUSH2 0x1B0 JUMPI DUP3 SWAP1 SUB PUSH1 0x1F AND DUP3 ADD SWAP2 JUMPDEST POP POP POP POP POP SWAP1 POP SWAP2 SWAP1 POP JUMP JUMPDEST PUSH0 PUSH1 0x20 MSTORE DUP1 PUSH0 MSTORE PUSH1 0x40 PUSH0 KECCAK256 PUSH0 SWAP2 POP SWAP1 POP DUP1 SLOAD PUSH2 0x1F4 SWAP1 PUSH2 0x54C JUMP JUMPDEST DUP1 PUSH1 0x1F ADD PUSH1 0x20 DUP1 SWAP2 DIV MUL PUSH1 0x20 ADD PUSH1 0x40 MLOAD SWAP1 DUP2 ADD PUSH1 0x40 MSTORE DUP1 SWAP3 SWAP2 SWAP1 DUP2 DUP2 MSTORE PUSH1 0x20 ADD DUP3 DUP1 SLOAD PUSH2 0x220 SWAP1 PUSH2 0x54C JUMP JUMPDEST DUP1 ISZERO PUSH2 0x26B JUMPI DUP1 PUSH1 0x1F LT PUSH2 0x242 JUMPI PUSH2 0x100 DUP1 DUP4 SLOAD DIV MUL DUP4 MSTORE SWAP2 PUSH1 0x20 ADD SWAP2 PUSH2 0x26B JUMP JUMPDEST DUP3 ADD SWAP2 SWAP1 PUSH0 MSTORE PUSH1 0x20 PUSH0 KECCAK256 SWAP1 JUMPDEST DUP2 SLOAD DUP2 MSTORE SWAP1 PUSH1 0x1 ADD SWAP1 PUSH1 0x20 ADD DUP1 DUP4 GT PUSH2 0x24E JUMPI DUP3 SWAP1 SUB PUSH1 0x1F AND DUP3 ADD SWAP2 JUMPDEST POP POP POP POP POP DUP2 JUMP JUMPDEST PUSH0 PUSH1 0x40 MLOAD SWAP1 POP SWAP1 JUMP JUMPDEST PUSH0 PUSH0 REVERT JUMPDEST PUSH0 PUSH0 REVERT JUMPDEST PUSH0 PUSH20 0xFFFFFFFFFFFFFFFFFFFFFFFFFFFFFFFFFFFFFFFF DUP3 AND SWAP1 POP SWAP2 SWAP1 POP JUMP JUMPDEST PUSH0 PUSH2 0x2AD DUP3 PUSH2 0x284 JUMP JUMPDEST SWAP1 POP SWAP2 SWAP1 POP JUMP JUMPDEST PUSH2 0x2BD DUP2 PUSH2 0x2A3 JUMP JUMPDEST DUP2 EQ PUSH2 0x2C7 JUMPI PUSH0 PUSH0 REVERT JUMPDEST POP JUMP JUMPDEST PUSH0 DUP2 CALLDATALOAD SWAP1 POP PUSH2 0x2D8 DUP2 PUSH2 0x2B4 JUMP JUMPDEST SWAP3 SWAP2 POP POP JUMP JUMPDEST PUSH0 PUSH0 REVERT JUMPDEST PUSH0 PUSH0 REVERT JUMPDEST PUSH0 PUSH1 0x1F NOT PUSH1 0x1F DUP4 ADD AND SWAP1 POP SWAP2 SWAP1 POP JUMP JUMPDEST PUSH32 0x4E487B7100000000000000000000000000000000000000000000000000000000 PUSH0 MSTORE PUSH1 0x41 PUSH1 0x4 MSTORE PUSH1 0x24 PUSH0 REVERT JUMPDEST PUSH2 0x32C DUP3 PUSH2 0x2E6 JUMP JUMPDEST DUP2 ADD DUP2 DUP2 LT PUSH8 0xFFFFFFFFFFFFFFFF DUP3 GT OR ISZERO PUSH2 0x34B JUMPI PUSH2 0x34A PUSH2 0x2F6 JUMP JUMPDEST JUMPDEST DUP1 PUSH1 0x40 MSTORE POP POP POP JUMP JUMPDEST PUSH0 PUSH2 0x35D PUSH2 0x273 JUMP JUMPDEST SWAP1 POP PUSH2 0x369 DUP3 DUP3 PUSH2 0x323 JUMP JUMPDEST SWAP2 SWAP1 POP JUMP JUMPDEST PUSH0 PUSH8 0xFFFFFFFFFFFFFFFF DUP3 GT ISZERO PUSH2 0x388 JUMPI PUSH2 0x387 PUSH2 0x2F6 JUMP JUMPDEST JUMPDEST PUSH2 0x391 DUP3 PUSH2 0x2E6 JUMP JUMPDEST SWAP1 POP PUSH1 0x20 DUP2 ADD SWAP1 POP SWAP2 SWAP1 POP JUMP JUMPDEST DUP3 DUP2 DUP4 CALLDATACOPY PUSH0 DUP4 DUP4 ADD MSTORE POP POP POP JUMP JUMPDEST PUSH0 PUSH2 0x3BE PUSH2 0x3B9 DUP5 PUSH2 0x36E JUMP JUMPDEST PUSH2 0x354 JUMP JUMPDEST SWAP1 POP DUP3 DUP2 MSTORE PUSH1 0x20 DUP2 ADD DUP5 DUP5 DUP5 ADD GT ISZERO PUSH2 0x3DA JUMPI PUSH2 0x3D9 PUSH2 0x2E2 JUMP JUMPDEST JUMPDEST PUSH2 0x3E5 DUP5 DUP3 DUP6 PUSH2 0x39E JUMP JUMPDEST POP SWAP4 SWAP3 POP POP POP JUMP JUMPDEST PUSH0 DUP3 PUSH1 0x1F DUP4 ADD SLT PUSH2 0x401 JUMPI PUSH2 0x400 PUSH2 0x2DE JUMP JUMPDEST JUMPDEST DUP2 CALLDATALOAD PUSH2 0x411 DUP5 DUP3 PUSH1 0x20 DUP7 ADD PUSH2 0x3AC JUMP JUMPDEST SWAP2 POP POP SWAP3 SWAP2 POP POP JUMP JUMPDEST PUSH0 PUSH0 PUSH1 0x40 DUP4 DUP6 SUB SLT ISZERO PUSH2 0x430 JUMPI PUSH2 0x42F PUSH2 0x27C JUMP JUMPDEST JUMPDEST PUSH0 PUSH2 0x43D DUP6 DUP3 DUP7 ADD PUSH2 0x2CA JUMP JUMPDEST SWAP3 POP POP PUSH1 0x20 DUP4 ADD CALLDATALOAD PUSH8 0xFFFFFFFFFFFFFFFF DUP2 GT ISZERO PUSH2 0x45E JUMPI PUSH2 0x45D PUSH2 0x280 JUMP JUMPDEST JUMPDEST PUSH2 0x46A DUP6 DUP3 DUP7 ADD PUSH2 0x3ED JUMP JUMPDEST SWAP2 POP POP SWAP3 POP SWAP3 SWAP1 POP JUMP JUMPDEST PUSH0 PUSH1 0x20 DUP3 DUP5 SUB SLT ISZERO PUSH2 0x489 JUMPI PUSH2 0x488 PUSH2 0x27C JUMP JUMPDEST JUMPDEST PUSH0 PUSH2 0x496 DUP5 DUP3 DUP6 ADD PUSH2 0x2CA JUMP JUMPDEST SWAP2 POP POP SWAP3 SWAP2 POP POP JUMP JUMPDEST PUSH0 DUP2 MLOAD SWAP1 POP SWAP2 SWAP1 POP JUMP JUMPDEST PUSH0 DUP3 DUP3 MSTORE PUSH1 0x20 DUP3 ADD SWAP1 POP SWAP3 SWAP2 POP POP JUMP JUMPDEST DUP3 DUP2 DUP4 MCOPY PUSH0 DUP4 DUP4 ADD MSTORE POP POP POP JUMP JUMPDEST PUSH0 PUSH2 0x4D1 DUP3 PUSH2 0x49F JUMP JUMPDEST PUSH2 0x4DB DUP2 DUP6 PUSH2 0x4A9 JUMP JUMPDEST SWAP4 POP PUSH2 0x4EB DUP2 DUP6 PUSH1 0x20 DUP7 ADD PUSH2 0x4B9 JUMP JUMPDEST PUSH2 0x4F4 DUP2 PUSH2 0x2E6 JUMP JUMPDEST DUP5 ADD SWAP2 POP POP SWAP3 SWAP2 POP POP JUMP JUMPDEST PUSH0 PUSH1 0x20 DUP3 ADD SWAP1 POP DUP2 DUP2 SUB PUSH0 DUP4 ADD MSTORE PUSH2 0x517 DUP2 DUP5 PUSH2 0x4C7 JUMP JUMPDEST SWAP1 POP SWAP3 SWAP2 POP POP JUMP JUMPDEST PUSH32 0x4E487B7100000000000000000000000000000000000000000000000000000000 PUSH0 MSTORE PUSH1 0x22 PUSH1 0x4 MSTORE PUSH1 0x24 PUSH0 REVERT JUMPDEST PUSH0 PUSH1 0x2 DUP3 DIV SWAP1 POP PUSH1 0x1 DUP3 AND DUP1 PUSH2 0x563 JUMPI PUSH1 0x7F DUP3 AND SWAP2 POP JUMPDEST PUSH1 0x20 DUP3 LT DUP2 SUB PUSH2 0x576 JUMPI PUSH2 0x575 PUSH2 0x51F JUMP JUMPDEST JUMPDEST POP SWAP2 SWAP1 POP JUMP JUMPDEST PUSH0 DUP2 SWAP1 POP DUP2 PUSH0 MSTORE PUSH1 0x20 PUSH0 KECCAK256 SWAP1 POP SWAP2 SWAP1 POP JUMP JUMPDEST PUSH0 PUSH1 0x20 PUSH1 0x1F DUP4 ADD DIV SWAP1 POP SWAP2 SWAP1 POP JUMP JUMPDEST PUSH0 DUP3 DUP3 SHL SWAP1 POP SWAP3 SWAP2 POP POP JUMP JUMPDEST PUSH0 PUSH1 0x8 DUP4 MUL PUSH2 0x5D8 PUSH32 0xFFFFFFFFFFFFFFFFFFFFFFFFFFFFFFFFFFFFFFFFFFFFFFFFFFFFFFFFFFFFFFFF DUP3 PUSH2 0x59D JUMP JUMPDEST PUSH2 0x5E2 DUP7 DUP4 PUSH2 0x59D JUMP JUMPDEST SWAP6 POP DUP1 NOT DUP5 AND SWAP4 POP DUP1 DUP7 AND DUP5 OR SWAP3 POP POP POP SWAP4 SWAP3 POP POP POP JUMP JUMPDEST PUSH0 DUP2 SWAP1 POP SWAP2 SWAP1 POP JUMP JUMPDEST PUSH0 DUP2 SWAP1 POP SWAP2 SWAP1 POP JUMP JUMPDEST PUSH0 PUSH2 0x626 PUSH2 0x621 PUSH2 0x61C DUP5 PUSH2 0x5FA JUMP JUMPDEST PUSH2 0x603 JUMP JUMPDEST PUSH2 0x5FA JUMP JUMPDEST SWAP1 POP SWAP2 SWAP1 POP JUMP JUMPDEST PUSH0 DUP2 SWAP1 POP SWAP2 SWAP1 POP JUMP JUMPDEST PUSH2 0x63F DUP4 PUSH2 0x60C JUMP JUMPDEST PUSH2 0x653 PUSH2 0x64B DUP3 PUSH2 0x62D JUMP JUMPDEST DUP5 DUP5 SLOAD PUSH2 0x5A9 JUMP JUMPDEST DUP3 SSTORE POP POP POP POP JUMP JUMPDEST PUSH0 PUSH0 SWAP1 POP SWAP1 JUMP JUMPDEST PUSH2 0x66A PUSH2 0x65B JUMP JUMPDEST PUSH2 0x675 DUP2 DUP5 DUP5 PUSH2 0x636 JUMP JUMPDEST POP POP POP JUMP JUMPDEST JUMPDEST DUP2 DUP2 LT ISZERO PUSH2 0x698 JUMPI PUSH2 0x68D PUSH0 DUP3 PUSH2 0x662 JUMP JUMPDEST PUSH1 0x1 DUP2 ADD SWAP1 POP PUSH2 0x67B JUMP JUMPDEST POP POP JUMP JUMPDEST PUSH1 0x1F DUP3 GT ISZERO PUSH2 0x6DD JUMPI PUSH2 0x6AE DUP2 PUSH2 0x57C JUMP JUMPDEST PUSH2 0x6B7 DUP5 PUSH2 0x58E JUMP JUMPDEST DUP2 ADD PUSH1 0x20 DUP6 LT ISZERO PUSH2 0x6C6 JUMPI DUP2 SWAP1 POP JUMPDEST PUSH2 0x6DA PUSH2 0x6D2 DUP6 PUSH2 0x58E JUMP JUMPDEST DUP4 ADD DUP3 PUSH2 0x67A JUMP JUMPDEST POP POP JUMPDEST POP POP POP JUMP JUMPDEST PUSH0 DUP3 DUP3 SHR SWAP1 POP SWAP3 SWAP2 POP POP JUMP JUMPDEST PUSH0 PUSH2 0x6FD PUSH0 NOT DUP5 PUSH1 0x8 MUL PUSH2 0x6E2 JUMP JUMPDEST NOT DUP1 DUP4 AND SWAP2 POP POP SWAP3 SWAP2 POP POP JUMP JUMPDEST PUSH0 PUSH2 0x715 DUP4 DUP4 PUSH2 0x6EE JUMP JUMPDEST SWAP2 POP DUP3 PUSH1 0x2 MUL DUP3 OR SWAP1 POP SWAP3 SWAP2 POP POP JUMP JUMPDEST PUSH2 0x72E DUP3 PUSH2 0x49F JUMP JUMPDEST PUSH8 0xFFFFFFFFFFFFFFFF DUP2 GT ISZERO PUSH2 0x747 JUMPI PUSH2 0x746 PUSH2 0x2F6 JUMP JUMPDEST JUMPDEST PUSH2 0x751 DUP3 SLOAD PUSH2 0x54C JUMP JUMPDEST PUSH2 0x75C DUP3 DUP3 DUP6 PUSH2 0x69C JUMP JUMPDEST PUSH0 PUSH1 0x20 SWAP1 POP PUSH1 0x1F DUP4 GT PUSH1 0x1 DUP2 EQ PUSH2 0x78D JUMPI PUSH0 DUP5 ISZERO PUSH2 0x77B JUMPI DUP3 DUP8 ADD MLOAD SWAP1 POP JUMPDEST PUSH2 0x785 DUP6 DUP3 PUSH2 0x70A JUMP JUMPDEST DUP7 SSTORE POP PUSH2 0x7EC JUMP JUMPDEST PUSH1 0x1F NOT DUP5 AND PUSH2 0x79B DUP7 PUSH2 0x57C JUMP JUMPDEST PUSH0 JUMPDEST DUP3 DUP2 LT ISZERO PUSH2 0x7C2 JUMPI DUP5 DUP10 ADD MLOAD DUP3 SSTORE PUSH1 0x1 DUP3 ADD SWAP2 POP PUSH1 0x20 DUP6 ADD SWAP5 POP PUSH1 0x20 DUP2 ADD SWAP1 POP PUSH2 0x79D JUMP JUMPDEST DUP7 DUP4 LT ISZERO PUSH2 0x7DF JUMPI DUP5 DUP10 ADD MLOAD PUSH2 0x7DB PUSH1 0x1F DUP10 AND DUP3 PUSH2 0x6EE JUMP JUMPDEST DUP4 SSTORE POP JUMPDEST PUSH1 0x1 PUSH1 0x2 DUP9 MUL ADD DUP9 SSTORE POP POP POP JUMPDEST POP POP POP POP POP POP JUMP INVALID LOG2 PUSH5 0x6970667358 0x22 SLT KECCAK256 PUSH8 0x87C8FE59F0705F7C 0xAC 0xFC LOG1 0x28 PUSH2 0x540 EXTCODECOPY 0xD2 0xAA 0x26 SAR PUSH0 0x21 CODECOPY JUMPI 0x2D PUSH0 ADD NOT CALLF 0x9692 PUSH5 0x736F6C6343 STOP ADDMOD 0x1E STOP CALLER "
		},
		"gasEstimates": {
			"creation": {
				"codeDepositCost": "418000",
				"executionCost": "453",
				"totalCost": "418453"
			},
			"external": {
				"equippedWeapon(address)": "infinite",
				"getWeapon(address)": "infinite",
				"setWeapon(address,string)": "infinite"
			}
		},
		"methodIdentifiers": {
			"equippedWeapon(address)": "fd9af7c7",
			"getWeapon(address)": "46d868c7",
			"setWeapon(address,string)": "0f4fcd92"
		}
	},
	"abi": [
		{
			"inputs": [
				{
					"internalType": "address",
					"name": "",
					"type": "address"
				}
			],
			"name": "equippedWeapon",
			"outputs": [
				{
					"internalType": "string",
					"name": "",
					"type": "string"
				}
			],
			"stateMutability": "view",
			"type": "function"
		},
		{
			"inputs": [
				{
					"internalType": "address",
					"name": "user",
					"type": "address"
				}
			],
			"name": "getWeapon",
			"outputs": [
				{
					"internalType": "string",
					"name": "",
					"type": "string"
				}
			],
			"stateMutability": "view",
			"type": "function"
		},
		{
			"inputs": [
				{
					"internalType": "address",
					"name": "user",
					"type": "address"
				},
				{
					"internalType": "string",
					"name": "weapon",
					"type": "string"
				}
			],
			"name": "setWeapon",
			"outputs": [],
			"stateMutability": "nonpayable",
			"type": "function"
		}
	]
}